{
  "_format": "hh-sol-artifact-1",
  "contractName": "LeadingContractFactory",
  "sourceName": "contracts/LeadingContractFactory.sol",
  "abi": [
    {
      "inputs": [],
      "name": "InvalidInitialization",
      "type": "error"
    },
    {
      "inputs": [],
      "name": "NotInitializing",
      "type": "error"
    },
    {
      "inputs": [
        {
          "internalType": "address",
          "name": "owner",
          "type": "address"
        }
      ],
      "name": "OwnableInvalidOwner",
      "type": "error"
    },
    {
      "inputs": [
        {
          "internalType": "address",
          "name": "account",
          "type": "address"
        }
      ],
      "name": "OwnableUnauthorizedAccount",
      "type": "error"
    },
    {
      "inputs": [],
      "name": "ReentrancyGuardReentrantCall",
      "type": "error"
    },
    {
      "anonymous": false,
      "inputs": [
        {
          "indexed": true,
          "internalType": "address",
          "name": "newImplementation",
          "type": "address"
        }
      ],
      "name": "ImplementationUpdated",
      "type": "event"
    },
    {
      "anonymous": false,
      "inputs": [
        {
          "indexed": false,
          "internalType": "uint64",
          "name": "version",
          "type": "uint64"
        }
      ],
      "name": "Initialized",
      "type": "event"
    },
    {
      "anonymous": false,
      "inputs": [
        {
          "indexed": true,
          "internalType": "address",
          "name": "trader",
          "type": "address"
        },
        {
          "indexed": true,
          "internalType": "address",
          "name": "token",
          "type": "address"
        },
        {
          "indexed": false,
          "internalType": "address",
          "name": "contractAddress",
          "type": "address"
        },
        {
          "indexed": false,
          "internalType": "uint256",
          "name": "status",
          "type": "uint256"
        }
      ],
      "name": "LeadingContractAudit",
      "type": "event"
    },
    {
      "anonymous": false,
      "inputs": [
        {
          "indexed": true,
          "internalType": "address",
          "name": "trader",
          "type": "address"
        },
        {
          "indexed": true,
          "internalType": "address",
          "name": "token",
          "type": "address"
        },
        {
          "indexed": false,
          "internalType": "address",
          "name": "contractAddress",
          "type": "address"
        }
      ],
      "name": "LeadingContractCreated",
      "type": "event"
    },
    {
      "anonymous": false,
      "inputs": [
        {
          "indexed": true,
          "internalType": "address",
          "name": "trader",
          "type": "address"
        },
        {
          "indexed": true,
          "internalType": "address",
          "name": "token",
          "type": "address"
        }
      ],
      "name": "LeadingContractInfoUpdated",
      "type": "event"
    },
    {
      "anonymous": false,
      "inputs": [
        {
          "indexed": true,
          "internalType": "address",
          "name": "trader",
          "type": "address"
        },
        {
          "indexed": true,
          "internalType": "address",
          "name": "token",
          "type": "address"
        },
        {
          "indexed": false,
          "internalType": "address",
          "name": "contractAddress",
          "type": "address"
        }
      ],
      "name": "LeadingContractRemoved",
      "type": "event"
    },
    {
      "anonymous": false,
      "inputs": [
        {
          "indexed": true,
          "internalType": "address",
          "name": "trader",
          "type": "address"
        },
        {
          "indexed": true,
          "internalType": "address",
          "name": "token",
          "type": "address"
        },
        {
          "indexed": false,
          "internalType": "uint256",
          "name": "contractIndex",
          "type": "uint256"
        },
        {
          "indexed": false,
          "internalType": "bool",
          "name": "isActive",
          "type": "bool"
        }
      ],
      "name": "LeadingContractStatusUpdated",
      "type": "event"
    },
    {
      "anonymous": false,
      "inputs": [
        {
          "indexed": true,
          "internalType": "address",
          "name": "previousOwner",
          "type": "address"
        },
        {
          "indexed": true,
          "internalType": "address",
          "name": "newOwner",
          "type": "address"
        }
      ],
      "name": "OwnershipTransferred",
      "type": "event"
    },
    {
      "stateMutability": "payable",
      "type": "fallback"
    },
    {
      "inputs": [
        {
          "internalType": "address[]",
          "name": "_traders",
          "type": "address[]"
        },
        {
          "internalType": "address[]",
          "name": "_tokens",
          "type": "address[]"
        },
        {
          "internalType": "bool",
          "name": "_pass",
          "type": "bool"
        }
      ],
      "name": "auditLeadingContract",
      "outputs": [],
      "stateMutability": "nonpayable",
      "type": "function"
    },
    {
      "inputs": [
        {
          "internalType": "address",
          "name": "_token",
          "type": "address"
        },
        {
          "internalType": "address",
          "name": "_trader",
          "type": "address"
        },
        {
          "internalType": "string[]",
          "name": "_symbols",
          "type": "string[]"
        },
        {
          "internalType": "bytes[]",
          "name": "_priceUpdates",
          "type": "bytes[]"
        }
      ],
      "name": "autoDeleteInactiveContract",
      "outputs": [],
      "stateMutability": "payable",
      "type": "function"
    },
    {
      "inputs": [
        {
          "internalType": "address",
          "name": "_tokenAddress",
          "type": "address"
        },
        {
          "internalType": "uint256",
          "name": "_commissionRate",
          "type": "uint256"
        },
        {
          "internalType": "string",
          "name": "_leadingProjectName",
          "type": "string"
        },
        {
          "internalType": "string",
          "name": "_leadingProjectDescription",
          "type": "string"
        }
      ],
      "name": "createLeadingContract",
      "outputs": [
        {
          "internalType": "address",
          "name": "",
          "type": "address"
        }
      ],
      "stateMutability": "nonpayable",
      "type": "function"
    },
    {
      "inputs": [],
      "name": "dailyAssetShareSnapPeriod",
      "outputs": [
        {
          "internalType": "uint256",
          "name": "",
          "type": "uint256"
        }
      ],
      "stateMutability": "view",
      "type": "function"
    },
    {
      "inputs": [],
      "name": "distributeCommissionPeriod",
      "outputs": [
        {
          "internalType": "uint256",
          "name": "",
          "type": "uint256"
        }
      ],
      "stateMutability": "view",
      "type": "function"
    },
    {
      "inputs": [
        {
          "internalType": "string[]",
          "name": "_symbols",
          "type": "string[]"
        },
        {
          "internalType": "bytes[]",
          "name": "_priceUpdates",
          "type": "bytes[]"
        }
      ],
      "name": "distributeProfitsAll",
      "outputs": [],
      "stateMutability": "payable",
      "type": "function"
    },
    {
      "inputs": [
        {
          "internalType": "string[]",
          "name": "_symbols",
          "type": "string[]"
        },
        {
          "internalType": "bytes[]",
          "name": "_priceUpdates",
          "type": "bytes[]"
        }
      ],
      "name": "generateDailyAssetShareAll",
      "outputs": [],
      "stateMutability": "payable",
      "type": "function"
    },
    {
      "inputs": [
        {
          "internalType": "uint256",
          "name": "_days",
          "type": "uint256"
        }
      ],
      "name": "getAllLeadingContractInfo",
      "outputs": [
        {
          "components": [
            {
              "internalType": "address",
              "name": "contractAddress",
              "type": "address"
            },
            {
              "internalType": "address",
              "name": "traderAddress",
              "type": "address"
            },
            {
              "internalType": "string",
              "name": "traderName",
              "type": "string"
            },
            {
              "internalType": "string",
              "name": "traderDescription",
              "type": "string"
            },
            {
              "internalType": "address",
              "name": "tokenAddress",
              "type": "address"
            },
            {
              "internalType": "bool",
              "name": "isActive",
              "type": "bool"
            },
            {
              "internalType": "uint256",
              "name": "recentTotalShare",
              "type": "uint256"
            },
            {
              "internalType": "uint256",
              "name": "recentTotalBalance",
              "type": "uint256"
            },
            {
              "internalType": "uint256",
              "name": "pastTotalShare",
              "type": "uint256"
            },
            {
              "internalType": "uint256",
              "name": "pastTotalBalance",
              "type": "uint256"
            },
            {
              "internalType": "uint256",
              "name": "createTime",
              "type": "uint256"
            }
          ],
          "internalType": "struct LeadingContractFactory.LeadingContractInfo[]",
          "name": "",
          "type": "tuple[]"
        }
      ],
      "stateMutability": "view",
      "type": "function"
    },
    {
      "inputs": [
        {
          "internalType": "address",
          "name": "_trader",
          "type": "address"
        }
      ],
      "name": "getAllLeadingContractInfoByTrader",
      "outputs": [
        {
          "components": [
            {
              "internalType": "address",
              "name": "contractAddress",
              "type": "address"
            },
            {
              "internalType": "address",
              "name": "traderAddress",
              "type": "address"
            },
            {
              "internalType": "string",
              "name": "traderName",
              "type": "string"
            },
            {
              "internalType": "string",
              "name": "traderDescription",
              "type": "string"
            },
            {
              "internalType": "address",
              "name": "tokenAddress",
              "type": "address"
            },
            {
              "internalType": "bool",
              "name": "isActive",
              "type": "bool"
            },
            {
              "internalType": "uint256",
              "name": "recentTotalShare",
              "type": "uint256"
            },
            {
              "internalType": "uint256",
              "name": "recentTotalBalance",
              "type": "uint256"
            },
            {
              "internalType": "uint256",
              "name": "pastTotalShare",
              "type": "uint256"
            },
            {
              "internalType": "uint256",
              "name": "pastTotalBalance",
              "type": "uint256"
            },
            {
              "internalType": "uint256",
              "name": "createTime",
              "type": "uint256"
            }
          ],
          "internalType": "struct LeadingContractFactory.LeadingContractInfo[]",
          "name": "",
          "type": "tuple[]"
        }
      ],
      "stateMutability": "view",
      "type": "function"
    },
    {
      "inputs": [],
      "name": "getAllTraders",
      "outputs": [
        {
          "internalType": "address[]",
          "name": "",
          "type": "address[]"
        }
      ],
      "stateMutability": "view",
      "type": "function"
    },
    {
      "inputs": [],
      "name": "getDistributeProfitRate",
      "outputs": [
        {
          "internalType": "uint256",
          "name": "",
          "type": "uint256"
        },
        {
          "internalType": "uint256",
          "name": "",
          "type": "uint256"
        },
        {
          "internalType": "address",
          "name": "",
          "type": "address"
        }
      ],
      "stateMutability": "view",
      "type": "function"
    },
    {
      "inputs": [],
      "name": "getLeadingContractAddresses",
      "outputs": [
        {
          "internalType": "address[]",
          "name": "lists",
          "type": "address[]"
        }
      ],
      "stateMutability": "view",
      "type": "function"
    },
    {
      "inputs": [
        {
          "internalType": "address",
          "name": "trader",
          "type": "address"
        }
      ],
      "name": "getLeadingContractCount",
      "outputs": [
        {
          "internalType": "uint256",
          "name": "",
          "type": "uint256"
        }
      ],
      "stateMutability": "view",
      "type": "function"
    },
    {
      "inputs": [
        {
          "internalType": "address",
          "name": "_trader",
          "type": "address"
        },
        {
          "internalType": "address",
          "name": "_token",
          "type": "address"
        },
        {
          "internalType": "uint256",
          "name": "_days",
          "type": "uint256"
        }
      ],
      "name": "getLeadingContractInfo",
      "outputs": [
        {
          "components": [
            {
              "internalType": "address",
              "name": "contractAddress",
              "type": "address"
            },
            {
              "internalType": "address",
              "name": "traderAddress",
              "type": "address"
            },
            {
              "internalType": "string",
              "name": "traderName",
              "type": "string"
            },
            {
              "internalType": "string",
              "name": "traderDescription",
              "type": "string"
            },
            {
              "internalType": "address",
              "name": "tokenAddress",
              "type": "address"
            },
            {
              "internalType": "bool",
              "name": "isActive",
              "type": "bool"
            },
            {
              "internalType": "uint256",
              "name": "recentTotalShare",
              "type": "uint256"
            },
            {
              "internalType": "uint256",
              "name": "recentTotalBalance",
              "type": "uint256"
            },
            {
              "internalType": "uint256",
              "name": "pastTotalShare",
              "type": "uint256"
            },
            {
              "internalType": "uint256",
              "name": "pastTotalBalance",
              "type": "uint256"
            },
            {
              "internalType": "uint256",
              "name": "createTime",
              "type": "uint256"
            }
          ],
          "internalType": "struct LeadingContractFactory.LeadingContractInfo",
          "name": "",
          "type": "tuple"
        }
      ],
      "stateMutability": "view",
      "type": "function"
    },
    {
      "inputs": [
        {
          "internalType": "address",
          "name": "_contractAddress",
          "type": "address"
        }
      ],
      "name": "getLeadingContractInfoByAddress",
      "outputs": [
        {
          "components": [
            {
              "internalType": "address",
              "name": "contractAddress",
              "type": "address"
            },
            {
              "internalType": "address",
              "name": "traderAddress",
              "type": "address"
            },
            {
              "internalType": "string",
              "name": "traderName",
              "type": "string"
            },
            {
              "internalType": "string",
              "name": "traderDescription",
              "type": "string"
            },
            {
              "internalType": "address",
              "name": "tokenAddress",
              "type": "address"
            },
            {
              "internalType": "bool",
              "name": "isActive",
              "type": "bool"
            },
            {
              "internalType": "uint256",
              "name": "recentTotalShare",
              "type": "uint256"
            },
            {
              "internalType": "uint256",
              "name": "recentTotalBalance",
              "type": "uint256"
            },
            {
              "internalType": "uint256",
              "name": "pastTotalShare",
              "type": "uint256"
            },
            {
              "internalType": "uint256",
              "name": "pastTotalBalance",
              "type": "uint256"
            },
            {
              "internalType": "uint256",
              "name": "createTime",
              "type": "uint256"
            }
          ],
          "internalType": "struct LeadingContractFactory.LeadingContractInfo",
          "name": "",
          "type": "tuple"
        }
      ],
      "stateMutability": "view",
      "type": "function"
    },
    {
      "inputs": [
        {
          "internalType": "address",
          "name": "trader",
          "type": "address"
        }
      ],
      "name": "getLeadingContracts",
      "outputs": [
        {
          "internalType": "address[]",
          "name": "",
          "type": "address[]"
        }
      ],
      "stateMutability": "view",
      "type": "function"
    },
    {
      "inputs": [],
      "name": "getPendingLeadingContracts",
      "outputs": [
        {
          "components": [
            {
              "internalType": "address",
              "name": "contractAddress",
              "type": "address"
            },
            {
              "internalType": "address",
              "name": "traderAddress",
              "type": "address"
            },
            {
              "internalType": "string",
              "name": "traderName",
              "type": "string"
            },
            {
              "internalType": "string",
              "name": "traderDescription",
              "type": "string"
            },
            {
              "internalType": "address",
              "name": "tokenAddress",
              "type": "address"
            },
            {
              "internalType": "bool",
              "name": "isActive",
              "type": "bool"
            },
            {
              "internalType": "uint256",
              "name": "recentTotalShare",
              "type": "uint256"
            },
            {
              "internalType": "uint256",
              "name": "recentTotalBalance",
              "type": "uint256"
            },
            {
              "internalType": "uint256",
              "name": "pastTotalShare",
              "type": "uint256"
            },
            {
              "internalType": "uint256",
              "name": "pastTotalBalance",
              "type": "uint256"
            },
            {
              "internalType": "uint256",
              "name": "createTime",
              "type": "uint256"
            }
          ],
          "internalType": "struct LeadingContractFactory.LeadingContractInfo[]",
          "name": "",
          "type": "tuple[]"
        }
      ],
      "stateMutability": "view",
      "type": "function"
    },
    {
      "inputs": [
        {
          "internalType": "address",
          "name": "trader",
          "type": "address"
        }
      ],
      "name": "getTraderSupportedTokens",
      "outputs": [
        {
          "internalType": "address[]",
          "name": "",
          "type": "address[]"
        }
      ],
      "stateMutability": "view",
      "type": "function"
    },
    {
      "inputs": [
        {
          "internalType": "address",
          "name": "_user",
          "type": "address"
        }
      ],
      "name": "getUserFollowedContracts",
      "outputs": [
        {
          "components": [
            {
              "internalType": "address",
              "name": "contractAddress",
              "type": "address"
            },
            {
              "internalType": "address",
              "name": "traderAddress",
              "type": "address"
            },
            {
              "internalType": "string",
              "name": "traderName",
              "type": "string"
            },
            {
              "internalType": "string",
              "name": "traderDescription",
              "type": "string"
            },
            {
              "internalType": "address",
              "name": "tokenAddress",
              "type": "address"
            },
            {
              "internalType": "bool",
              "name": "isActive",
              "type": "bool"
            },
            {
              "internalType": "uint256",
              "name": "recentTotalShare",
              "type": "uint256"
            },
            {
              "internalType": "uint256",
              "name": "recentTotalBalance",
              "type": "uint256"
            },
            {
              "internalType": "uint256",
              "name": "pastTotalShare",
              "type": "uint256"
            },
            {
              "internalType": "uint256",
              "name": "pastTotalBalance",
              "type": "uint256"
            },
            {
              "internalType": "uint256",
              "name": "createTime",
              "type": "uint256"
            }
          ],
          "internalType": "struct LeadingContractFactory.LeadingContractInfo[]",
          "name": "",
          "type": "tuple[]"
        }
      ],
      "stateMutability": "view",
      "type": "function"
    },
    {
      "inputs": [
        {
          "internalType": "address[]",
          "name": "_address",
          "type": "address[]"
        }
      ],
      "name": "handleLiquidateLeadingContracts",
      "outputs": [],
      "stateMutability": "nonpayable",
      "type": "function"
    },
    {
      "inputs": [
        {
          "internalType": "address",
          "name": "_initialOwner",
          "type": "address"
        },
        {
          "internalType": "address",
          "name": "_platformTradeFeeAccount",
          "type": "address"
        },
        {
          "internalType": "address",
          "name": "_proxy",
          "type": "address"
        }
      ],
      "name": "initialize",
      "outputs": [],
      "stateMutability": "nonpayable",
      "type": "function"
    },
    {
      "inputs": [
        {
          "internalType": "address",
          "name": "_trader",
          "type": "address"
        }
      ],
      "name": "isTrader",
      "outputs": [
        {
          "internalType": "bool",
          "name": "",
          "type": "bool"
        }
      ],
      "stateMutability": "view",
      "type": "function"
    },
    {
      "inputs": [],
      "name": "lastBalanceSnapTime",
      "outputs": [
        {
          "internalType": "uint256",
          "name": "",
          "type": "uint256"
        }
      ],
      "stateMutability": "view",
      "type": "function"
    },
    {
      "inputs": [],
      "name": "lastDistributionTime",
      "outputs": [
        {
          "internalType": "uint256",
          "name": "",
          "type": "uint256"
        }
      ],
      "stateMutability": "view",
      "type": "function"
    },
    {
      "inputs": [],
      "name": "leadingContractImpl",
      "outputs": [
        {
          "internalType": "address",
          "name": "",
          "type": "address"
        }
      ],
      "stateMutability": "view",
      "type": "function"
    },
    {
      "inputs": [
        {
          "internalType": "address[]",
          "name": "_address",
          "type": "address[]"
        }
      ],
      "name": "liquidateStatus",
      "outputs": [
        {
          "internalType": "bool[]",
          "name": "status",
          "type": "bool[]"
        }
      ],
      "stateMutability": "view",
      "type": "function"
    },
    {
      "inputs": [],
      "name": "owner",
      "outputs": [
        {
          "internalType": "address",
          "name": "",
          "type": "address"
        }
      ],
      "stateMutability": "view",
      "type": "function"
    },
    {
      "inputs": [],
      "name": "platformTradeFeeAccount",
      "outputs": [
        {
          "internalType": "address",
          "name": "",
          "type": "address"
        }
      ],
      "stateMutability": "view",
      "type": "function"
    },
    {
      "inputs": [],
      "name": "proxyFactory",
      "outputs": [
        {
          "internalType": "contract IProxy",
          "name": "",
          "type": "address"
        }
      ],
      "stateMutability": "view",
      "type": "function"
    },
    {
      "inputs": [
        {
          "internalType": "address",
          "name": "_user",
          "type": "address"
        },
        {
          "internalType": "address",
          "name": "_contractAddress",
          "type": "address"
        }
      ],
      "name": "recordUserFollowedContract",
      "outputs": [],
      "stateMutability": "nonpayable",
      "type": "function"
    },
    {
      "inputs": [
        {
          "internalType": "address",
          "name": "_trader",
          "type": "address"
        },
        {
          "internalType": "address",
          "name": "_token",
          "type": "address"
        }
      ],
      "name": "remove",
      "outputs": [],
      "stateMutability": "nonpayable",
      "type": "function"
    },
    {
      "inputs": [
        {
          "internalType": "address",
          "name": "_user",
          "type": "address"
        },
        {
          "internalType": "address",
          "name": "_contractAddress",
          "type": "address"
        }
      ],
      "name": "removeUserFollowedContract",
      "outputs": [],
      "stateMutability": "nonpayable",
      "type": "function"
    },
    {
      "inputs": [],
      "name": "renounceOwnership",
      "outputs": [],
      "stateMutability": "nonpayable",
      "type": "function"
    },
    {
      "inputs": [
        {
          "internalType": "address",
          "name": "_newImplementation",
          "type": "address"
        }
      ],
      "name": "setImplementation",
      "outputs": [],
      "stateMutability": "nonpayable",
      "type": "function"
    },
    {
      "inputs": [
        {
          "internalType": "address",
          "name": "newOwner",
          "type": "address"
        }
      ],
      "name": "transferOwnership",
      "outputs": [],
      "stateMutability": "nonpayable",
      "type": "function"
    },
    {
      "inputs": [
        {
          "internalType": "string",
          "name": "",
          "type": "string"
        }
      ],
      "name": "underlying",
      "outputs": [
        {
          "internalType": "address",
          "name": "",
          "type": "address"
        }
      ],
      "stateMutability": "view",
      "type": "function"
    },
    {
      "inputs": [
        {
          "internalType": "address",
          "name": "_tokenAddress",
          "type": "address"
        },
        {
          "internalType": "string",
          "name": "_traderName",
          "type": "string"
        },
        {
          "internalType": "string",
          "name": "_traderDescription",
          "type": "string"
        }
      ],
      "name": "updateTraderInfo",
      "outputs": [],
      "stateMutability": "nonpayable",
      "type": "function"
    },
    {
      "inputs": [],
      "name": "version",
      "outputs": [
        {
          "internalType": "uint256",
          "name": "",
          "type": "uint256"
        }
      ],
      "stateMutability": "view",
      "type": "function"
    },
    {
      "stateMutability": "payable",
      "type": "receive"
    }
  ],
  "bytecode": "0x60808060405234601557614d77908161001a8239f35b5f80fdfe60806040526004361015610010575b005b5f3560e01c806296d24414612a115780631807cd0b146129ed57806323f1fcbf146129c7578063299ae7531461296857806338dcc25c146127d75780634039ad0d146127aa57806340a6809b1461269c57806353be06e51461249857806354fd4d501461247b5780635614579e14612455578063629b74851461232057806364a30a3814612054578063715018a614611fbd578063737d085d14611e4057806375b1735014611e2357806377afe2ed14611ca557806379c4e5e414611aa85780637f7c149114611a7e5780638ae1b5b7146117d55780638b92d628146117525780638da5cb5b1461170d5780639823aa8e146116f05780639fa45d5614611673578063ae5e55e61461161a578063afa85c091461146e578063b2b7d9ac14611451578063b56eeef014611236578063c0c53b8b14610d7c578063c10f1a7514610d57578063c1f550ff14610c6f578063d14ec0dc14610c52578063d784d42614610ba6578063df51a5f614610a75578063e3b4a33f14610394578063ef90dde11461036d578063f166ddd814610219578063f2fde38b146101f05763f50200570361000e57346101ec575f6003193601126101ec5760606005546006546001600160a01b03600154169060405192835260208301526040820152f35b5f80fd5b346101ec5760206003193601126101ec5761000e61020c612b3c565b610214613d2c565b6138ab565b346101ec5760206003193601126101ec576001600160a01b0361023a612b3c565b610242612fb8565b5016805f52600b6020526001600160a01b0360405f20541615610329575f52600b60205261032560405f2060096040519161027c83612c78565b6001600160a01b0381541683526001600160a01b0360018201541660208401526102a8600282016130b3565b60408401526102b9600382016130b3565b606084015260ff60048201546001600160a01b038116608086015260a01c16151560a0840152600581015460c0840152600681015460e0840152600781015461010084015260088101546101208401520154610140820152604051918291602083526020830190612b8d565b0390f35b606460405162461bcd60e51b815260206004820152601260248201527f436f6e7472616374206e6f7420666f756e6400000000000000000000000000006044820152fd5b346101ec575f6003193601126101ec57610325610388613d8b565b60405191829182612c36565b346101ec5760806003193601126101ec576103ad612b3c565b6024359060443567ffffffffffffffff81116101ec576103d1903690600401612d0a565b9060643567ffffffffffffffff81116101ec576103f2903690600401612d0a565b92335f52600360205260405f206001600160a01b0383165f526020526001600160a01b0360405f205416610a0b57603281116109c75760049060206001600160a01b035f5416604051938480927f19e67d750000000000000000000000000000000000000000000000000000000082525afa918215610980575f9261098b575b506001600160a01b03604051927f95b6ef0c0000000000000000000000000000000000000000000000000000000060208501523360248501523360448501523060648501521660848301526001600160a01b03831660a483015260c482015260c481526104e060e482612c95565b6001600160a01b03600254166001600160a01b037f9016d09d72d40fdae2fd8ceac6b6234c7706214fd39c1cd1e609a0528c19930054169060405192610cf680850185811067ffffffffffffffff8211176108ce5785946105579460609361404c8839825260208201528160408201520190612b68565b03905ff0918215610980576105746001600160a01b038416613f9f565b50335f52600360205260405f206001600160a01b0383165f5260205260405f206001600160a01b03808516166001600160a01b0319825416179055604051936105bc85612c78565b6001600160a01b0384168552602085019133835260408601908152606086019182526001600160a01b0384166080870152600160a08701525f60c08701525f60e08701525f6101008701525f610120870152426101408701526001600160a01b0385165f52600b6020526001600160a01b0360405f20938180895116166001600160a01b031986541617855551166001600160a01b036001850191166001600160a01b031982541617905560028301905180519067ffffffffffffffff82116108ce57610689835461307b565b601f8111610950575b50602090601f83116001146108ed576106c292915f91836108e2575b50508160011b915f199060031b1c19161790565b90555b5193845167ffffffffffffffff81116108ce576020956106e8600385015461307b565b601f8111610892575b508690601f831160011461082257826101409360099593610726935f926108175750508160011b915f199060031b1c19161790565b60038501555b600484016001600160a01b0380608084015116166001600160a01b031982541617815560a082015115157fffffffffffffffffffffff00ffffffffffffffffffffffffffffffffffffffff74ff000000000000000000000000000000000000000083549260a01b16911617905560c0810151600585015560e081015160068501556101008101516007850155610120810151600885015501519101556001600160a01b036040519181841683525f8584015216907f3cc9e154ebf4c45999f2227230f6bba5eb453e798922f40619e271ef3f60a98660403392a36001600160a01b0360405191168152f35b015190508a806106ae565b90600385015f52805f20915f5b601f198516811061087b575092600994926001926101409583601f19811610610863575b505050811b01600385015561072c565b01515f1960f88460031b161c19169055898080610853565b91928960018192868501518155019401920161082f565b6108be90600386015f52885f20601f850160051c8101918a86106108c4575b601f0160051c01906133f0565b876106f1565b90915081906108b1565b634e487b7160e01b5f52604160045260245ffd5b0151905089806106ae565b90601f19831691845f52815f20925f5b8181106109385750908460019594939210610920575b505050811b0190556106c5565b01515f1960f88460031b161c19169055888080610913565b929360206001819287860151815501950193016108fd565b61097a90845f5260205f20601f850160051c810191602086106108c457601f0160051c01906133f0565b88610692565b6040513d5f823e3d90fd5b9091506020813d6020116109bf575b816109a760209383612c95565b810103126101ec576109b890613897565b9085610472565b3d915061099a565b606460405162461bcd60e51b815260206004820152601f60248201527f636f6d6d697373696f6e2072617465206973206d6f7265207468656e203530006044820152fd5b608460405162461bcd60e51b815260206004820152602c60248201527f54726164657220616c726561647920686173206120636f6e747261637420666f60448201527f72207468697320746f6b656e00000000000000000000000000000000000000006064820152fd5b346101ec5760406003193601126101ec57610a8e612b3c565b6001600160a01b03610a9e612b52565b16805f52600b602052610abf6001600160a01b0360405f205416331461384c565b6001600160a01b035f9216915b825f52600c60205260405f205481101561000e57825f52600c602052816001600160a01b03610afe8360405f20613284565b90549060031b1c1614610b1357600101610acc565b5f838152600c6020526040902080545f19810193508311610b92576001600160a01b03610b46610b7f94610b6093613284565b90549060031b1c1691845f52600c60205260405f20613284565b9091906001600160a01b038084549260031b9316831b921b1916179055565b5f52600c60205261000e60405f206134b6565b634e487b7160e01b5f52601160045260245ffd5b346101ec5760206003193601126101ec576001600160a01b03610bc7612b3c565b610bcf613d2c565b168015610c0e57806001600160a01b031960025416176002557f310ba5f1d2ed074b51e2eccd052a47ae9ab7c6b800d1fca3db3999d6a592ca035f80a2005b606460405162461bcd60e51b815260206004820152600f60248201527f496e76616c6964206164647265737300000000000000000000000000000000006044820152fd5b346101ec575f6003193601126101ec576020601054604051908152f35b346101ec5760206003193601126101ec5760043567ffffffffffffffff81116101ec57610ca0903690600401612f4a565b8051905f5b828110610cae57005b610cd66001600160a01b03610cc383856131e2565b51165f52600860205260405f2054151590565b610ce3575b600101610ca5565b6001600160a01b03610cf582846131e2565b511690813b156101ec575f80926004604051809581937fd36408590000000000000000000000000000000000000000000000000000000083525af191821561098057600192610d47575b509050610cdb565b5f610d5191612c95565b84610d3f565b346101ec575f6003193601126101ec5760206001600160a01b035f5416604051908152f35b346101ec5760606003193601126101ec57610d95612b3c565b610d9d612b52565b906044356001600160a01b0381168091036101ec577ff0c57e16840df040f15088dc2f81fe391c3923bec73e23a9662efc9c229c6a00549060ff8260401c16159267ffffffffffffffff83168015908161122e575b6001149081611224575b15908161121b575b506111f357600494610ebe6001600160a01b0392858760017fffffffffffffffffffffffffffffffffffffffffffffffff00000000000000005f9916177ff0c57e16840df040f15088dc2f81fe391c3923bec73e23a9662efc9c229c6a005561119e575b50610e71613ff4565b610e79613ff4565b610e82336138ab565b610e8a613ff4565b610e92613ff4565b60017f9b779b17422d0df92223018b32b4d1fa46e071723d6817e2486d003becc55f0055610214613d2c565b6014600555826001600160a01b0319855416178455166001600160a01b03196001541617600155604051938480927f9816f4730000000000000000000000000000000000000000000000000000000082525afa918215610980575f905f93611039575b505f5b8151811015610f7657806001600160a01b03610f42600193876131e2565b51166001600160a01b03610f5f610f5984876131e2565b51612d28565b91166001600160a01b031982541617905501610f24565b826002600f556201518060105562093a8060115542601355610f9d620151804206426131d5565b601255610fa657005b7fffffffffffffffffffffffffffffffffffffffffffffff00ffffffffffffffff7ff0c57e16840df040f15088dc2f81fe391c3923bec73e23a9662efc9c229c6a0054167ff0c57e16840df040f15088dc2f81fe391c3923bec73e23a9662efc9c229c6a00557fc7f505b2f371ae2175ee4913f4499e1f2633a7b5936321eed1cdaeb6115181d2602060405160018152a1005b9250503d805f843e61104b8184612c95565b8201916040818403126101ec57805167ffffffffffffffff81116101ec5781019083601f830112156101ec5781519161108383612d47565b926110916040519485612c95565b80845260208085019160051b830101918683116101ec5760208101915b838310611137575050505060208101519067ffffffffffffffff82116101ec57019280601f850112156101ec5783516110e681612d47565b946110f46040519687612c95565b81865260208087019260051b8201019283116101ec57602001905b82821061111f5750505083610f21565b6020809161112c84613897565b81520191019061110f565b825167ffffffffffffffff81116101ec57820188603f820112156101ec5760208101519161116483612cb8565b6111716040519182612c95565b8381526040838501018b106101ec575f602085819660408397018386015e830101528152019201916110ae565b7fffffffffffffffffffffffffffffffffffffffffffffff0000000000000000001668010000000000000001177ff0c57e16840df040f15088dc2f81fe391c3923bec73e23a9662efc9c229c6a005588610e68565b7ff92ee8a9000000000000000000000000000000000000000000000000000000005f5260045ffd5b90501586610e04565b303b159150610dfc565b859150610df2565b346101ec5760206003193601126101ec576004805490355f805b8381106114155750611261906133a2565b905f925f915b81831061127c57604051806103258682612ecd565b6001600160a01b0361128d8461326c565b90549060031b1c16805f52600d60205260405f20604051808260208294549384815201905f5260205f20925f905b8082106113f05750506112d092500382612c95565b5f965b81518810156113e1576113d960019161137b6001600160a01b036112f78c876131e2565b5116865f52600360205260405f206001600160a01b0382165f52602052866001600160a01b0360405f2054169161132e8a84613988565b5f878152600b6020526040908190206004810154600982015492519a92999398949795969560a09190911c60ff16949093611391936003840193611387936002919091019290918e612c78565b8d5260208d01526130b3565b60408b01526130b3565b60608901526080880152151560a087015260c086015260e08501526101008401526101208301526101408201526113c8828b6131e2565b526113d3818a6131e2565b50613413565b9701966112d3565b96505060019093019250611267565b916001919350602082916001600160a01b0387541681520194019201849293916112bb565b906114476001916114406001600160a01b036114338698979861326c565b90549060031b1c16613171565b5190613406565b9101929192611250565b346101ec575f6003193601126101ec576020601254604051908152f35b346101ec5760206003193601126101ec576001600160a01b0361148f612b3c565b16805f52600d60205260405f20604051808260208294549384815201905f5260205f20925f5b8181106115f85750506114ca92500382612c95565b6114d481516133a2565b915f5b82518110156115ea57806001600160a01b036114f5600193866131e2565b5116835f5260036020526001600160a01b0360405f2091165f526020526001600160a01b0360405f2054165f52600b60205260405f2060096040519161153a83612c78565b6001600160a01b0381541683526001600160a01b0385820154166020840152611565600282016130b3565b6040840152611576600382016130b3565b606084015260ff60048201546001600160a01b038116608086015260a01c16151560a0840152600581015460c0840152600681015460e08401526007810154610100840152600881015461012084015201546101408201526115d882876131e2565b526115e381866131e2565b50016114d7565b604051806103258682612ecd565b84546001600160a01b03168352600194850194869450602090930192016114b5565b346101ec5760406003193601126101ec5761000e611636612b3c565b6001600160a01b03611646612b52565b918183165f52600b6020526116628260405f205416331461384c565b165f52600c60205260405f20613824565b346101ec575f6003193601126101ec5760405180602060045491828152019060045f527f8a35acfbc15ff81a39ae7d344fd709f28e8600b4aa8c65c6b64bfe7fe36bd19b905f5b8181106116d1576103258561038881870382612c95565b82546001600160a01b03168452602090930192600192830192016116ba565b346101ec575f6003193601126101ec576020601154604051908152f35b346101ec575f6003193601126101ec5760206001600160a01b037f9016d09d72d40fdae2fd8ceac6b6234c7706214fd39c1cd1e609a0528c1993005416604051908152f35b346101ec5760206003193601126101ec576001600160a01b03611773612b3c565b165f52600d60205260405f206040519081602082549182815201915f5260205f20905f5b8181106117b6576020856117ad81870382612c95565b51604051908152f35b82546001600160a01b0316845260209093019260019283019201611797565b346101ec5760606003193601126101ec5760043567ffffffffffffffff81116101ec57611806903690600401612f4a565b60243567ffffffffffffffff81116101ec57611826903690600401612f4a565b906044359182151583036101ec5761183c613d2c565b8151815103611a3a578151915f5b83811061185357005b6001600160a01b0361186582846131e2565b5116906001600160a01b0361187a82866131e2565b5116825f52600360205260405f206001600160a01b0382165f526020526001600160a01b0360405f20541692835f52600a60205260405f20546118c4575b5050600191500161184a565b6118cd84613dd3565b5087156119bf576118dd84613f45565b506118e781613299565b15611966575b7f3cc9e154ebf4c45999f2227230f6bba5eb453e798922f40619e271ef3f60a9866040600195835f52600d60205261192785835f20613824565b84847f90aeddfcb1428cce068a71e29d724f88317a2527526ca083e9246630a0d85d6360208551858152a38151908152866020820152a35b86806118b8565b60045493680100000000000000008510156108ce5760407f3cc9e154ebf4c45999f2227230f6bba5eb453e798922f40619e271ef3f60a986916119b684610b60896001809b016004556004613284565b955050506118ed565b908181600195937f3cc9e154ebf4c45999f2227230f6bba5eb453e798922f40619e271ef3f60a9866040805187815260026020820152a35f5260036020526001600160a01b0360405f2091165f5260205260405f206001600160a01b031981541690555f52600b602052611a3560405f2061346f565b61195f565b606460405162461bcd60e51b815260206004820152601860248201527f706172616d206c656e677468206973206d69736d6174636800000000000000006044820152fd5b346101ec5760406003193601126101ec5761000e611a9a612b3c565b611aa2612b52565b906134fb565b346101ec5760206003193601126101ec576001600160a01b03611ac9612b3c565b165f52600c60205260405f20604051808260208294549384815201905f5260205f20925f5b818110611c83575050611b0392500382612c95565b611b0d81516133a2565b5f905f5b8351811015611c36576001600160a01b03611b2c82866131e2565b51165f52600b6020526001600160a01b0360405f205416611b50575b600101611b11565b91611c2e6001916001600160a01b03611b6986886131e2565b51165f52600b60205260405f20600960405191611b8583612c78565b6001600160a01b0381541683526001600160a01b0386820154166020840152611bb0600282016130b3565b6040840152611bc1600382016130b3565b606084015260ff60048201546001600160a01b038116608086015260a01c16151560a0840152600581015460c0840152600681015460e0840152600781015461010084015260088101546101208401520154610140820152611c2382866131e2565b526113d381856131e2565b929050611b48565b5090611c41816133a2565b915f5b828110611c5957604051806103258682612ecd565b80611c66600192846131e2565b51611c7182876131e2565b52611c7c81866131e2565b5001611c44565b84546001600160a01b0316835260019485019486945060209093019201611aee565b346101ec5760206003193601126101ec5760043567ffffffffffffffff81116101ec57611cd6903690600401612f4a565b805190611ce282612d47565b91611cf06040519384612c95565b808352611cfc81612d47565b91601f196020850193013684375f5b828110611d58578385604051918291602083019060208452518091526040830191905f5b818110611d3d575050500390f35b82511515845285945060209384019390920191600101611d2f565b611d6d6001600160a01b03610cc383856131e2565b611d7a575b600101611d0b565b8060206001600160a01b03611d91600494866131e2565b5116604051938480927f59a3d8300000000000000000000000000000000000000000000000000000000082525afa8015610980575f90611de6575b60019250611dda82886131e2565b90151590529050611d72565b50906020813d8211611e1b575b81611e0060209383612c95565b810103126101ec57519081151582036101ec57600191611dcc565b3d9150611df3565b346101ec575f6003193601126101ec576020601354604051908152f35b611e4936612dde565b611e5860135460115490613406565b4210611f5357611e7391611e6d913691612e51565b82613b2f565b919050611e7e613d8b565b905f5b8251811015611f0a576001600160a01b03611e9c82856131e2565b511690813b156101ec575f60405180937fa1b42ffb000000000000000000000000000000000000000000000000000000008252818381611ee08b8a60048401613330565b03925af191821561098057600192611efa575b5001611e81565b5f611f0491612c95565b85611ef3565b611f19620151804206426131d5565b62015180810460038101809111610b92576007900662015180810290808204620151801490151715610b9257611f4e916131d5565b601355005b608460405162461bcd60e51b815260206004820152602e60248201527f746f6f2073686f72742074696d6520696e74657276616c20666f72206469737460448201527f7269627574652070726f666974730000000000000000000000000000000000006064820152fd5b346101ec575f6003193601126101ec57611fd5613d2c565b5f6001600160a01b037f9016d09d72d40fdae2fd8ceac6b6234c7706214fd39c1cd1e609a0528c199300546001600160a01b031981167f9016d09d72d40fdae2fd8ceac6b6234c7706214fd39c1cd1e609a0528c19930055167f8be0079c531659141344cd1fd0a4f28419497f9722a3daafe3b4186f6b6457e08280a3005b346101ec5760606003193601126101ec5761206d612b3c565b60243567ffffffffffffffff81116101ec5761208d903690600401612d0a565b9060443567ffffffffffffffff81116101ec576120ae903690600401612d0a565b91335f52600360205260405f206001600160a01b0383165f526020526001600160a01b0360405f2054166120e381151561300a565b5f52600b60205260405f2090600282019080519067ffffffffffffffff82116108ce57612110835461307b565b601f81116122f0575b50602090601f831160011461228a57918061214d9260039695945f9261227f5750508160011b915f199060031b1c19161790565b90555b0182519267ffffffffffffffff84116108ce5761216d825461307b565b601f811161224f575b50602090601f85116001146121e45793806121ae926001600160a01b03965f926121d95750508160011b915f199060031b1c19161790565b90555b16337f99aea1f1550ab3e43762b27dd94cb3caed3328e1fc7b39d72906f9802a8c8db45f80a3005b0151905086806106ae565b90601f19851691835f52815f20925f5b81811061223757509160019391876001600160a01b0398941061221f575b505050811b0190556121b1565b01515f1960f88460031b161c19169055858080612212565b929360206001819287860151815501950193016121f4565b61227990835f5260205f20601f870160051c810191602088106108c457601f0160051c01906133f0565b84612176565b0151905088806106ae565b90601f19831691845f52815f20925f5b8181106122d85750916001939185600398979694106122c1575b505050811b019055612150565b01515f1983881b60f8161c191690558780806122b4565b9293602060018192878601518155019501930161229a565b61231a90845f5260205f20601f850160051c810191602086106108c457601f0160051c01906133f0565b86612119565b346101ec575f6003193601126101ec5760095461233c816133a2565b905f600954905b82811061235857604051806103258682612ecd565b818110156124415760019060095f526001600160a01b038160205f200154165f52600b60205260405f2060096040519161239183612c78565b6001600160a01b0381541683526001600160a01b03858201541660208401526123bc600282016130b3565b60408401526123cd600382016130b3565b606084015260ff60048201546001600160a01b038116608086015260a01c16151560a0840152600581015460c0840152600681015460e084015260078101546101008401526008810154610120840152015461014082015261242f82876131e2565b5261243a81866131e2565b5001612343565b634e487b7160e01b5f52603260045260245ffd5b346101ec575f6003193601126101ec5760206001600160a01b0360025416604051908152f35b346101ec575f6003193601126101ec576020600f54604051908152f35b60806003193601126101ec576124ac612b3c565b6124b4612b52565b9060443567ffffffffffffffff81116101ec576124d5903690600401612d5f565b9160643567ffffffffffffffff81116101ec57366023820112156101ec57612507903690602481600401359101612e51565b9260027f9b779b17422d0df92223018b32b4d1fa46e071723d6817e2486d003becc55f0054146126745760027f9b779b17422d0df92223018b32b4d1fa46e071723d6817e2486d003becc55f00558051845103612630576001600160a01b0382165f52600360205260405f206001600160a01b0384165f526020526001600160a01b0360405f2054169361259c8515156132e5565b843b156101ec576125de945f926040518097819482937f2d9cd09a00000000000000000000000000000000000000000000000000000000845260048401613330565b039134905af1928315610980576125fa93612620575b506134fb565b60017f9b779b17422d0df92223018b32b4d1fa46e071723d6817e2486d003becc55f0055005b5f61262a91612c95565b836125f4565b606460405162461bcd60e51b815260206004820152601860248201527f4172726179206c656e67746873206d757374206d6174636800000000000000006044820152fd5b7f3ee5aeb5000000000000000000000000000000000000000000000000000000005f5260045ffd5b346101ec5760206003193601126101ec576001600160a01b036126bd612b3c565b16805f52600d60205260405f20604051808260208294549384815201905f5260205f20925f5b8181106127885750506126f892500382612c95565b8051601f1961271f61270983612d47565b926127176040519485612c95565b808452612d47565b013660208301375f5b825181101561277a57600190845f52600360205260405f206001600160a01b038061275384886131e2565b5116165f526020526001600160a01b0360405f20541661277382856131e2565b5201612728565b604051806103258482612c36565b84546001600160a01b03168352600194850194869450602090930192016126e3565b346101ec5760206003193601126101ec5760206127cd6127c8612b3c565b613299565b6040519015158152f35b6127e036612dde565b6127ec601254426131d5565b601054116128fe5761280391611e6d913691612e51565b5061280c613d8b565b905f5b82518110156128e4576001600160a01b0361282a82856131e2565b511690813b156101ec57604051917f0756f130000000000000000000000000000000000000000000000000000000008352604060048401528261287060448201886131f6565b6003198282030160248301526020865191828152019060208701905f905b8082106128c85750505091815f81819503925af1918215610980576001926128b8575b500161280f565b5f6128c291612c95565b856128b1565b919350916020806001928651815201940192018693929161288e565b6128f96128f36010544261324e565b426131d5565b601255005b608460405162461bcd60e51b815260206004820152602760248201527f746f6f2073686f72742074696d6520696e74657276616c20666f72206461696c60448201527f79206173736574000000000000000000000000000000000000000000000000006064820152fd5b346101ec5760206003193601126101ec5760043567ffffffffffffffff81116101ec576001600160a01b036020806129a581943690600401612d0a565b604051928184925191829101835e8101600e8152030190205416604051908152f35b346101ec575f6003193601126101ec5760206001600160a01b0360015416604051908152f35b346101ec5760206003193601126101ec57610325610388612a0c612b3c565b613171565b346101ec5760606003193601126101ec57612a2a612b3c565b6001600160a01b03612a3a612b52565b91612a43612fb8565b50165f5260036020526001600160a01b0360405f2091165f526020526103256001600160a01b0360405f205416612a7b81151561300a565b612a8760443582613988565b92935f92919252600b60205260405f2093600960405195612aa787612c78565b6001600160a01b0381541687526001600160a01b036001820154166020880152612ad3600282016130b3565b6040880152612ae4600382016130b3565b606088015260ff60048201546001600160a01b03811660808a015260a01c16151560a0880152015461014086015260c085015260e0840152610100830152610120820152604051918291602083526020830190612b8d565b600435906001600160a01b03821682036101ec57565b602435906001600160a01b03821682036101ec57565b90601f19601f602080948051918291828752018686015e5f8582860101520116010190565b906001600160a01b0382511681526001600160a01b03602083015116602082015261014080612be2612bd060408601516101606040870152610160860190612b68565b60608601518582036060870152612b68565b936001600160a01b03608082015116608085015260a0810151151560a085015260c081015160c085015260e081015160e0850152610100810151610100850152610120810151610120850152015191015290565b60206040818301928281528451809452019201905f5b818110612c595750505090565b82516001600160a01b0316845260209384019390920191600101612c4c565b610160810190811067ffffffffffffffff8211176108ce57604052565b90601f601f19910116810190811067ffffffffffffffff8211176108ce57604052565b67ffffffffffffffff81116108ce57601f01601f191660200190565b929192612ce082612cb8565b91612cee6040519384612c95565b8294818452818301116101ec578281602093845f960137010152565b9080601f830112156101ec57816020612d2593359101612cd4565b90565b60208091604051928184925191829101835e8101600e81520301902090565b67ffffffffffffffff81116108ce5760051b60200190565b9080601f830112156101ec578135612d7681612d47565b92612d846040519485612c95565b81845260208085019260051b820101918383116101ec5760208201905b838210612db057505050505090565b813567ffffffffffffffff81116101ec57602091612dd387848094880101612d0a565b815201910190612da1565b60406003198201126101ec5760043567ffffffffffffffff81116101ec5781612e0991600401612d5f565b9160243567ffffffffffffffff81116101ec57826023820112156101ec5780600401359267ffffffffffffffff84116101ec5760248460051b830101116101ec576024019190565b929192612e5d82612d47565b93612e6b6040519586612c95565b602085848152019260051b8201918183116101ec5780935b838510612e91575050505050565b843567ffffffffffffffff81116101ec57820183601f820112156101ec57602091612ec28583858095359101612cd4565b815201940193612e83565b602081016020825282518091526040820191602060408360051b8301019401925f915b838310612eff57505050505090565b9091929394602080612f3b837fffffffffffffffffffffffffffffffffffffffffffffffffffffffffffffffc086600196030187528951612b8d565b97019301930191939290612ef0565b9080601f830112156101ec57813590612f6282612d47565b92612f706040519485612c95565b82845260208085019360051b8201019182116101ec57602001915b818310612f985750505090565b82356001600160a01b03811681036101ec57815260209283019201612f8b565b60405190612fc582612c78565b5f61014083828152826020820152606060408201526060808201528260808201528260a08201528260c08201528260e082015282610100820152826101208201520152565b1561301157565b608460405162461bcd60e51b815260206004820152602b60248201527f4e6f20636f6e747261637420666f756e6420666f72207468697320747261646560448201527f7220616e6420746f6b656e0000000000000000000000000000000000000000006064820152fd5b90600182811c921680156130a9575b602083101461309557565b634e487b7160e01b5f52602260045260245ffd5b91607f169161308a565b9060405191825f8254926130c68461307b565b808452936001811690811561313157506001146130ed575b506130eb92500383612c95565b565b90505f9291925260205f20905f915b8183106131155750509060206130eb928201015f6130de565b60209193508060019154838589010152019101909184926130fc565b602093506130eb9592507fffffffffffffffffffffffffffffffffffffffffffffffffffffffffffffff0091501682840152151560051b8201015f6130de565b6001600160a01b03165f52600d60205260405f20604051808260208294549384815201905f5260205f20925f5b8181106131b3575050612d2592500382612c95565b84546001600160a01b031683526001948501948694506020909301920161319e565b91908203918211610b9257565b80518210156124415760209160051b010190565b9080602083519182815201916020808360051b8301019401925f915b83831061322157505050505090565b909192939460208061323f83601f1986600196030187528951612b68565b97019301930191939290613212565b8115613258570690565b634e487b7160e01b5f52601260045260245ffd5b6004548110156124415760045f5260205f2001905f90565b8054821015612441575f5260205f2001905f90565b600454905f5b8281106132ad575050505f90565b6001600160a01b036132be8261326c565b90549060031b1c166001600160a01b038316146132dd5760010161329f565b505050600190565b156132ec57565b606460405162461bcd60e51b815260206004820152601760248201527f436f6e747261637420646f6573206e6f742065786973740000000000000000006044820152fd5b90613343906040835260408301906131f6565b906020818303910152815180825260208201916020808360051b8301019401925f915b83831061337557505050505090565b909192939460208061339383601f1986600196030187528951612b68565b97019301930191939290613366565b906133ac82612d47565b6133b96040519182612c95565b828152601f196133c98294612d47565b01905f5b8281106133d957505050565b6020906133e4612fb8565b828285010152016133cd565b8181106133fb575050565b5f81556001016133f0565b91908201809211610b9257565b5f198114610b925760010190565b61342b815461307b565b9081613435575050565b81601f5f9311600114613446575055565b8183526020832061346291601f0160051c8101906001016133f0565b8082528160208120915555565b60095f9182815582600182015561348860028201613421565b61349460038201613421565b8260048201558260058201558260068201558260078201558260088201550155565b805480156134e7575f1901906134e46134cf8383613284565b6001600160a01b0382549160031b1b19169055565b55565b634e487b7160e01b5f52603160045260245ffd5b6001600160a01b0316805f52600360205260405f206001600160a01b0383165f526020526001600160a01b0360405f205416906135398215156132e5565b81331480156137f1575b80156137e8575b156137a457805f52600360205260405f206001600160a01b0384165f5260205260405f206001600160a01b03198154169055815f52600b60205261359060405f2061346f565b5f5b815f52600d60205260405f205481101561379c57815f52600d6020526001600160a01b036135c38260405f20613284565b90549060031b1c166001600160a01b038516146135e257600101613592565b5f828152600d602052604090208054939492935f1981019291908311610b92576001600160a01b0361361a61363494610b6093613284565b90549060031b1c1691855f52600d60205260405f20613284565b815f52600d60205261364860405f206134b6565b815f52600d60205260405f2054156136a6575b60206001600160a01b037fa9c4cf795890a049971a6e43cf862d315ec5c7b8c4bfaf94616f1499231ba8749261369086613e9a565b5061369a86613dd3565b506040519586521693a3565b91905f5b6004548082101561376757826001600160a01b036136c78461326c565b90549060031b1c16146136dd57506001016136aa565b929391925f19810191908211610b9257610b606001600160a01b036137046137129461326c565b90549060031b1c169161326c565b6004549081156134e7576001600160a01b036020917fa9c4cf795890a049971a6e43cf862d315ec5c7b8c4bfaf94616f1499231ba874935f190161375a6134cf826004613284565b6004555b9250505061365b565b5050909160206001600160a01b037fa9c4cf795890a049971a6e43cf862d315ec5c7b8c4bfaf94616f1499231ba8749261375e565b509091613648565b606460405162461bcd60e51b815260206004820152600c60248201527f556e617574686f72697a656400000000000000000000000000000000000000006044820152fd5b5030331461354a565b506001600160a01b037f9016d09d72d40fdae2fd8ceac6b6234c7706214fd39c1cd1e609a0528c19930054163314613543565b90815491680100000000000000008310156108ce5782610b609160016130eb95018155613284565b1561385357565b606460405162461bcd60e51b815260206004820152601b60248201527f63616c6c6572206e6f7420636f6e7472616374206164647265737300000000006044820152fd5b51906001600160a01b03821682036101ec57565b6001600160a01b0316801561393a576001600160a01b037f9016d09d72d40fdae2fd8ceac6b6234c7706214fd39c1cd1e609a0528c19930054826001600160a01b03198216177f9016d09d72d40fdae2fd8ceac6b6234c7706214fd39c1cd1e609a0528c19930055167f8be0079c531659141344cd1fd0a4f28419497f9722a3daafe3b4186f6b6457e05f80a3565b7f1e4fbdf7000000000000000000000000000000000000000000000000000000005f525f60045260245ffd5b91908260809103126101ec578151916020810151916060604083015192015190565b6001600160a01b0316916040517fc3633aa9000000000000000000000000000000000000000000000000000000008152602081600481875afa908115610980575f91613afd575b508015613af0575f19810192818411610b925780821115613ae7576139f3916131d5565b5f198101908111610b9257925b604051927f56c3748c0000000000000000000000000000000000000000000000000000000084526004840152608083602481845afa8015610980575f935f91613ac1575b5060809093946024604051809481937f56c3748c00000000000000000000000000000000000000000000000000000000835260048301525afa8015610980575f915f91613a9057509091565b9050613ab4915060803d608011613aba575b613aac8183612c95565b810190613966565b50915091565b503d613aa2565b6080809550613adc92503d8611613aba57613aac8183612c95565b509491509390613a44565b50505f92613a00565b505f925082915081908190565b90506020813d602011613b27575b81613b1860209383612c95565b810103126101ec57515f6139cf565b3d9150613b0b565b90918151835103613ce8578151801561325857340490613b5083513461324e565b93805191601f19613b79613b6385612d47565b94613b716040519687612c95565b808652612d47565b013660208501378294825196601f19613baa613b948a612d47565b99613ba26040519b8c612c95565b808b52612d47565b015f5b818110613cd757505087965f5b835180821015613ccb575f198101908111610b92578114613cba575b806020613c3b6001600160a01b03613bf2610f598d968a6131e2565b5416613bfe848b6131e2565b516040519586809481937f1af189a40000000000000000000000000000000000000000000000000000000083528760048401526024830190612b68565b03925af18015610980575f90613c88575b60019250613c5a828a6131e2565b52604051613c69602082612c95565b5f8152613c76828d6131e2565b52613c81818c6131e2565b5001613bba565b506020823d8211613cb2575b81613ca160209383612c95565b810103126101ec5760019151613c4c565b3d9150613c94565b9682613cc591613406565b96613bd6565b50509750505092505050565b806060602080938d01015201613bad565b606460405162461bcd60e51b815260206004820152602060248201527f496e636f6e73697374656e74207072696365206172726179206c656e677468736044820152fd5b6001600160a01b037f9016d09d72d40fdae2fd8ceac6b6234c7706214fd39c1cd1e609a0528c19930054163303613d5f57565b7f118cdaa7000000000000000000000000000000000000000000000000000000005f523360045260245ffd5b60405190600754808352826020810160075f5260205f20925f5b818110613dba5750506130eb92500383612c95565b8454835260019485019487945060209093019201613da5565b5f818152600a60205260409020548015613e94575f198101818111610b92576009545f19810191908211610b9257818103613e46575b50505060095480156134e7575f1901613e23816009613284565b8154905f199060031b1b191690556009555f52600a6020525f6040812055600190565b613e7e613e57613e68936009613284565b90549060031b1c9283926009613284565b819391549060031b91821b915f19901b19161790565b90555f52600a60205260405f20555f8080613e09565b50505f90565b5f818152600860205260409020548015613e94575f198101818111610b92576007545f19810191908211610b9257818103613f0d575b50505060075480156134e7575f1901613eea816007613284565b8154905f199060031b1b191690556007555f5260086020525f6040812055600190565b613f2f613f1e613e68936007613284565b90549060031b1c9283926007613284565b90555f52600860205260405f20555f8080613ed0565b805f52600860205260405f2054155f14613f9a57600754680100000000000000008110156108ce57613f83613e688260018594016007556007613284565b9055600754905f52600860205260405f2055600190565b505f90565b805f52600a60205260405f2054155f14613f9a57600954680100000000000000008110156108ce57613fdd613e688260018594016009556009613284565b9055600954905f52600a60205260405f2055600190565b60ff7ff0c57e16840df040f15088dc2f81fe391c3923bec73e23a9662efc9c229c6a005460401c161561402357565b7fd7e6bcf8000000000000000000000000000000000000000000000000000000005f5260045ffdfe60a0604052610cf6803803806100148161026b565b92833981016060828203126102675761002c82610290565b61003860208401610290565b604084015190936001600160401b03821161026757019180601f8401121561026757825161006d610068826102a4565b61026b565b9381855260208501926020838301011161026757815f926020809301855e85010152813b15610246577f360894a13ba1a3210667c828492db98dca3e2076cc3735a920a3ca505d382bbc80546001600160a01b0319166001600160a01b0384169081179091557fbc7cd75a20ee27fd9adebab32041f755214dbc6bffa90cc0225b39da2e5c2d3b5f80a282511561022e575f809161012d945190845af43d15610226573d9161011e610068846102a4565b9283523d5f602085013e6102bf565b505b604051906105438083016001600160401b0381118482101761021257602092849261079384396001600160a01b031681520301905ff080156102075760018060a01b0316806080525f516020610cd65f395f51905f52547f7e644d79422f17c01e4894b5f4f588d331ebfa28653d42ae832dc59e38c9798f6040805160018060a01b0384168152846020820152a181156101f4576001600160a01b031916175f516020610cd65f395f51905f5255604051610475908161031e82396080518160070152f35b633173bdd160e11b5f525f60045260245ffd5b6040513d5f823e3d90fd5b634e487b7160e01b5f52604160045260245ffd5b6060916102bf565b505050341561012f5763b398979f60e01b5f5260045ffd5b50634c9c8ce360e01b5f9081526001600160a01b0391909116600452602490fd5b5f80fd5b6040519190601f01601f191682016001600160401b0381118382101761021257604052565b51906001600160a01b038216820361026757565b6001600160401b03811161021257601f01601f191660200190565b906102e357508051156102d457602081519101fd5b63d6bda27560e01b5f5260045ffd5b81511580610314575b6102f4575090565b639996b31560e01b5f9081526001600160a01b0391909116600452602490fd5b50803b156102ec56fe6080604052337f000000000000000000000000000000000000000000000000000000000000000073ffffffffffffffffffffffffffffffffffffffff16036100bd575f357fffffffff00000000000000000000000000000000000000000000000000000000167f4f1ef28600000000000000000000000000000000000000000000000000000000146100b3577fd2b576ec000000000000000000000000000000000000000000000000000000005f5260045ffd5b6100bb610185565b005b5f8073ffffffffffffffffffffffffffffffffffffffff7f360894a13ba1a3210667c828492db98dca3e2076cc3735a920a3ca505d382bbc5416368280378136915af43d5f803e1561010d573d5ff35b3d5ffd5b7f4e487b71000000000000000000000000000000000000000000000000000000005f52604160045260245ffd5b90601f19601f604051930116820182811067ffffffffffffffff82111761016457604052565b610111565b67ffffffffffffffff811161016457601f01601f191660200190565b366004116102385760407ffffffffffffffffffffffffffffffffffffffffffffffffffffffffffffffffc3601126102385760043573ffffffffffffffffffffffffffffffffffffffff8116809103610238576024359067ffffffffffffffff821161023857366023830112156102385781600401359061020d61020883610169565b61013e565b918083523660248286010111610238576020815f9260246102369701838701378401015261023c565b565b5f80fd5b90813b1561032b5773ffffffffffffffffffffffffffffffffffffffff8216807fffffffffffffffffffffffff00000000000000000000000000000000000000007f360894a13ba1a3210667c828492db98dca3e2076cc3735a920a3ca505d382bbc5416177f360894a13ba1a3210667c828492db98dca3e2076cc3735a920a3ca505d382bbc557fbc7cd75a20ee27fd9adebab32041f755214dbc6bffa90cc0225b39da2e5c2d3b5f80a28051156102fa576102f79161036d565b50565b50503461030357565b7fb398979f000000000000000000000000000000000000000000000000000000005f5260045ffd5b73ffffffffffffffffffffffffffffffffffffffff827f4c9c8ce3000000000000000000000000000000000000000000000000000000005f521660045260245ffd5b5f8061039f93602081519101845af43d156103a2573d9161039061020884610169565b9283523d5f602085013e6103a6565b90565b6060915b906103e357508051156103bb57602081519101fd5b7fd6bda275000000000000000000000000000000000000000000000000000000005f5260045ffd5b81511580610436575b6103f4575090565b73ffffffffffffffffffffffffffffffffffffffff907f9996b315000000000000000000000000000000000000000000000000000000005f521660045260245ffd5b50803b156103ec56fea264697066735822122055f713f70cea6fe114bfc1e835bdb4da5b0ece4bc985dd1765a476f9141a747d64736f6c634300081c003360803460b857601f61054338819003918201601f19168301916001600160401b0383118484101760bc5780849260209460405283398101031260b857516001600160a01b0381169081900360b857801560a5575f80546001600160a01b031981168317825560405192916001600160a01b03909116907f8be0079c531659141344cd1fd0a4f28419497f9722a3daafe3b4186f6b6457e09080a361047290816100d18239f35b631e4fbdf760e01b5f525f60045260245ffd5b5f80fd5b634e487b7160e01b5f52604160045260245ffdfe60806040526004361015610011575f80fd5b5f5f3560e01c8063715018a61461032c5780638da5cb5b146102fa5780639623609d1461018d578063ad3cb1cc146101285763f2fde38b14610051575f80fd5b346101255760206003193601126101255760043573ffffffffffffffffffffffffffffffffffffffff81168091036101235761008b6103f0565b80156100f75773ffffffffffffffffffffffffffffffffffffffff8254827fffffffffffffffffffffffff00000000000000000000000000000000000000008216178455167f8be0079c531659141344cd1fd0a4f28419497f9722a3daafe3b4186f6b6457e08380a380f35b6024827f1e4fbdf700000000000000000000000000000000000000000000000000000000815280600452fd5b505b80fd5b50346101255780600319360112610125575061018960405161014b6040826103a8565b600581527f352e302e3000000000000000000000000000000000000000000000000000000060208201526040519182916020835260208301906103cb565b0390f35b5060606003193601126102c95760043573ffffffffffffffffffffffffffffffffffffffff81168091036102c95760243573ffffffffffffffffffffffffffffffffffffffff81168091036102c95760443567ffffffffffffffff81116102c957366023820112156102c957806004013567ffffffffffffffff81116102cd5760405191610225601f8301601f1916602001846103a8565b81835236602483830101116102c957815f92602460209301838601378301015261024d6103f0565b823b156102c95761029c925f926040518095819482937f4f1ef28600000000000000000000000000000000000000000000000000000000845260048401526040602484015260448301906103cb565b039134905af180156102be576102b0575080f35b6102bc91505f906103a8565b005b6040513d5f823e3d90fd5b5f80fd5b7f4e487b71000000000000000000000000000000000000000000000000000000005f52604160045260245ffd5b346102c9575f6003193601126102c957602073ffffffffffffffffffffffffffffffffffffffff5f5416604051908152f35b346102c9575f6003193601126102c9576103446103f0565b5f73ffffffffffffffffffffffffffffffffffffffff81547fffffffffffffffffffffffff000000000000000000000000000000000000000081168355167f8be0079c531659141344cd1fd0a4f28419497f9722a3daafe3b4186f6b6457e08280a3005b90601f601f19910116810190811067ffffffffffffffff8211176102cd57604052565b90601f19601f602080948051918291828752018686015e5f8582860101520116010190565b73ffffffffffffffffffffffffffffffffffffffff5f5416330361041057565b7f118cdaa7000000000000000000000000000000000000000000000000000000005f523360045260245ffdfea2646970667358221220c7b94e4cfb2fe38fd06a253ad82aa077b593a44f95e009b27c517f31e305e1fb64736f6c634300081c0033b53127684a568b3173ae13b9f8a6016e243e63b6e8ee1178d6a717850b5d6103a26469706673582212204a499962f37492b9daad563003fa0925f9f5958aa60d901ae1580f75b7191d2964736f6c634300081c0033",
  "linkReferences": {},
  "deployedLinkReferences": {}
}