{
  "_format": "hh-sol-artifact-1",
  "contractName": "Perpetual",
  "sourceName": "contracts/Perpetual.sol",
  "abi": [
    {
      "inputs": [],
      "name": "InvalidInitialization",
      "type": "error"
    },
    {
      "inputs": [],
      "name": "NotInitializing",
      "type": "error"
    },
    {
      "inputs": [
        {
          "internalType": "address",
          "name": "owner",
          "type": "address"
        }
      ],
      "name": "OwnableInvalidOwner",
      "type": "error"
    },
    {
      "inputs": [
        {
          "internalType": "address",
          "name": "account",
          "type": "address"
        }
      ],
      "name": "OwnableUnauthorizedAccount",
      "type": "error"
    },
    {
      "inputs": [],
      "name": "ReentrancyGuardReentrantCall",
      "type": "error"
    },
    {
      "anonymous": false,
      "inputs": [
        {
          "indexed": false,
          "internalType": "address",
          "name": "token",
          "type": "address"
        },
        {
          "indexed": false,
          "internalType": "address",
          "name": "holder",
          "type": "address"
        },
        {
          "indexed": false,
          "internalType": "string",
          "name": "name",
          "type": "string"
        },
        {
          "indexed": false,
          "internalType": "enum ICommon.Direct",
          "name": "direct",
          "type": "uint8"
        },
        {
          "indexed": false,
          "internalType": "uint256",
          "name": "value",
          "type": "uint256"
        },
        {
          "indexed": false,
          "internalType": "uint256",
          "name": "size",
          "type": "uint256"
        },
        {
          "indexed": false,
          "internalType": "uint256",
          "name": "margin",
          "type": "uint256"
        },
        {
          "indexed": false,
          "internalType": "uint256",
          "name": "freeze",
          "type": "uint256"
        }
      ],
      "name": "AccountPosition",
      "type": "event"
    },
    {
      "anonymous": false,
      "inputs": [
        {
          "indexed": false,
          "internalType": "address",
          "name": "token",
          "type": "address"
        },
        {
          "indexed": false,
          "internalType": "address",
          "name": "taker",
          "type": "address"
        },
        {
          "indexed": false,
          "internalType": "uint256",
          "name": "amount",
          "type": "uint256"
        },
        {
          "indexed": false,
          "internalType": "uint256",
          "name": "availableAmount",
          "type": "uint256"
        },
        {
          "indexed": false,
          "internalType": "uint256",
          "name": "marginAmount",
          "type": "uint256"
        },
        {
          "indexed": false,
          "internalType": "uint256",
          "name": "locked",
          "type": "uint256"
        },
        {
          "indexed": false,
          "internalType": "uint256",
          "name": "stage",
          "type": "uint256"
        },
        {
          "indexed": false,
          "internalType": "uint256",
          "name": "dif",
          "type": "uint256"
        }
      ],
      "name": "BalanceOfTaker",
      "type": "event"
    },
    {
      "anonymous": false,
      "inputs": [
        {
          "indexed": false,
          "internalType": "string",
          "name": "name",
          "type": "string"
        },
        {
          "indexed": true,
          "internalType": "address",
          "name": "taker",
          "type": "address"
        },
        {
          "indexed": true,
          "internalType": "address",
          "name": "token",
          "type": "address"
        },
        {
          "indexed": false,
          "internalType": "uint256",
          "name": "orderID",
          "type": "uint256"
        },
        {
          "indexed": false,
          "internalType": "enum ICommon.Direct",
          "name": "direct",
          "type": "uint8"
        },
        {
          "indexed": false,
          "internalType": "enum IPerpetual.OrderState",
          "name": "state",
          "type": "uint8"
        },
        {
          "indexed": false,
          "internalType": "enum ICommon.Offset",
          "name": "offset",
          "type": "uint8"
        },
        {
          "indexed": false,
          "internalType": "uint256",
          "name": "amount",
          "type": "uint256"
        },
        {
          "indexed": false,
          "internalType": "uint256",
          "name": "targetPrice",
          "type": "uint256"
        },
        {
          "indexed": false,
          "internalType": "uint256",
          "name": "margin",
          "type": "uint256"
        },
        {
          "indexed": false,
          "internalType": "uint256",
          "name": "rewardGas",
          "type": "uint256"
        },
        {
          "indexed": false,
          "internalType": "uint256",
          "name": "tradingFee",
          "type": "uint256"
        },
        {
          "indexed": false,
          "internalType": "uint256",
          "name": "startTime",
          "type": "uint256"
        },
        {
          "indexed": false,
          "internalType": "uint256",
          "name": "orderType",
          "type": "uint256"
        }
      ],
      "name": "CreateLimitedOrder",
      "type": "event"
    },
    {
      "anonymous": false,
      "inputs": [
        {
          "indexed": false,
          "internalType": "uint256",
          "name": "limitOrderID",
          "type": "uint256"
        },
        {
          "indexed": false,
          "internalType": "uint256",
          "name": "openLimitPrice",
          "type": "uint256"
        },
        {
          "indexed": false,
          "internalType": "uint256",
          "name": "gainTriggerPrice",
          "type": "uint256"
        },
        {
          "indexed": false,
          "internalType": "uint256",
          "name": "gainLimitPrice",
          "type": "uint256"
        },
        {
          "indexed": false,
          "internalType": "uint256",
          "name": "lossTriggerPrice",
          "type": "uint256"
        },
        {
          "indexed": false,
          "internalType": "uint256",
          "name": "lossLimitPrice",
          "type": "uint256"
        }
      ],
      "name": "CreateTriggerCondition",
      "type": "event"
    },
    {
      "anonymous": false,
      "inputs": [
        {
          "indexed": false,
          "internalType": "uint256",
          "name": "code",
          "type": "uint256"
        },
        {
          "indexed": false,
          "internalType": "uint256",
          "name": "orderID",
          "type": "uint256"
        },
        {
          "indexed": false,
          "internalType": "string",
          "name": "message",
          "type": "string"
        }
      ],
      "name": "ErrorInfo",
      "type": "event"
    },
    {
      "anonymous": false,
      "inputs": [
        {
          "indexed": false,
          "internalType": "uint256",
          "name": "code",
          "type": "uint256"
        },
        {
          "indexed": false,
          "internalType": "uint256",
          "name": "orderID",
          "type": "uint256"
        },
        {
          "indexed": false,
          "internalType": "bytes",
          "name": "message",
          "type": "bytes"
        }
      ],
      "name": "ExceptErrorInfo",
      "type": "event"
    },
    {
      "anonymous": false,
      "inputs": [
        {
          "indexed": false,
          "internalType": "uint64",
          "name": "version",
          "type": "uint64"
        }
      ],
      "name": "Initialized",
      "type": "event"
    },
    {
      "anonymous": false,
      "inputs": [
        {
          "indexed": false,
          "internalType": "string",
          "name": "name",
          "type": "string"
        },
        {
          "indexed": true,
          "internalType": "address",
          "name": "taker",
          "type": "address"
        },
        {
          "indexed": true,
          "internalType": "address",
          "name": "token",
          "type": "address"
        },
        {
          "indexed": false,
          "internalType": "uint256",
          "name": "orderID",
          "type": "uint256"
        },
        {
          "indexed": false,
          "internalType": "enum ICommon.Direct",
          "name": "direct",
          "type": "uint8"
        },
        {
          "indexed": false,
          "internalType": "enum IPerpetual.OrderState",
          "name": "state",
          "type": "uint8"
        },
        {
          "indexed": false,
          "internalType": "enum ICommon.Offset",
          "name": "offset",
          "type": "uint8"
        },
        {
          "indexed": false,
          "internalType": "uint256",
          "name": "amount",
          "type": "uint256"
        },
        {
          "indexed": false,
          "internalType": "uint256",
          "name": "targetPrice",
          "type": "uint256"
        },
        {
          "indexed": false,
          "internalType": "uint256",
          "name": "margin",
          "type": "uint256"
        },
        {
          "indexed": false,
          "internalType": "uint256",
          "name": "rewardGas",
          "type": "uint256"
        },
        {
          "indexed": false,
          "internalType": "uint256",
          "name": "tradingFee",
          "type": "uint256"
        },
        {
          "indexed": false,
          "internalType": "uint256",
          "name": "startTime",
          "type": "uint256"
        },
        {
          "indexed": false,
          "internalType": "uint256",
          "name": "orderType",
          "type": "uint256"
        }
      ],
      "name": "LimitedOrderHistory",
      "type": "event"
    },
    {
      "anonymous": false,
      "inputs": [
        {
          "indexed": false,
          "internalType": "address",
          "name": "token",
          "type": "address"
        },
        {
          "indexed": false,
          "internalType": "address",
          "name": "taker",
          "type": "address"
        }
      ],
      "name": "LiquidateTaker",
      "type": "event"
    },
    {
      "anonymous": false,
      "inputs": [
        {
          "indexed": true,
          "internalType": "address",
          "name": "taker",
          "type": "address"
        },
        {
          "indexed": false,
          "internalType": "string",
          "name": "name",
          "type": "string"
        },
        {
          "indexed": false,
          "internalType": "address",
          "name": "token",
          "type": "address"
        },
        {
          "indexed": false,
          "internalType": "uint256",
          "name": "orderID",
          "type": "uint256"
        },
        {
          "indexed": false,
          "internalType": "enum ICommon.Direct",
          "name": "direction",
          "type": "uint8"
        },
        {
          "indexed": false,
          "internalType": "enum IPerpetual.OrderType",
          "name": "orderType",
          "type": "uint8"
        },
        {
          "indexed": false,
          "internalType": "uint256",
          "name": "amount",
          "type": "uint256"
        },
        {
          "indexed": false,
          "internalType": "uint256",
          "name": "costPrice",
          "type": "uint256"
        },
        {
          "indexed": false,
          "internalType": "uint256",
          "name": "price",
          "type": "uint256"
        },
        {
          "indexed": false,
          "internalType": "uint256",
          "name": "tradingFee",
          "type": "uint256"
        },
        {
          "indexed": false,
          "internalType": "uint256",
          "name": "leverage",
          "type": "uint256"
        },
        {
          "indexed": false,
          "internalType": "uint256",
          "name": "marginAmount",
          "type": "uint256"
        },
        {
          "indexed": false,
          "internalType": "uint256",
          "name": "limitOrderId",
          "type": "uint256"
        },
        {
          "indexed": false,
          "internalType": "uint256",
          "name": "timestamp",
          "type": "uint256"
        }
      ],
      "name": "OrderHistory",
      "type": "event"
    },
    {
      "anonymous": false,
      "inputs": [
        {
          "indexed": true,
          "internalType": "address",
          "name": "previousOwner",
          "type": "address"
        },
        {
          "indexed": true,
          "internalType": "address",
          "name": "newOwner",
          "type": "address"
        }
      ],
      "name": "OwnershipTransferred",
      "type": "event"
    },
    {
      "anonymous": false,
      "inputs": [
        {
          "indexed": false,
          "internalType": "address",
          "name": "token",
          "type": "address"
        },
        {
          "indexed": false,
          "internalType": "uint256",
          "name": "orderID",
          "type": "uint256"
        },
        {
          "indexed": false,
          "internalType": "uint256",
          "name": "dealID",
          "type": "uint256"
        },
        {
          "indexed": false,
          "internalType": "enum IPerpetual.TradeType",
          "name": "tradeType",
          "type": "uint8"
        },
        {
          "indexed": false,
          "internalType": "uint256",
          "name": "amount",
          "type": "uint256"
        },
        {
          "indexed": false,
          "internalType": "uint256",
          "name": "price",
          "type": "uint256"
        },
        {
          "indexed": false,
          "internalType": "uint256",
          "name": "tradingFee",
          "type": "uint256"
        },
        {
          "indexed": false,
          "internalType": "uint256",
          "name": "leverage",
          "type": "uint256"
        },
        {
          "indexed": false,
          "internalType": "uint256",
          "name": "marginAmount",
          "type": "uint256"
        },
        {
          "indexed": false,
          "internalType": "uint256",
          "name": "profit",
          "type": "uint256"
        },
        {
          "indexed": false,
          "internalType": "uint256",
          "name": "loss",
          "type": "uint256"
        },
        {
          "indexed": false,
          "internalType": "uint256",
          "name": "timestamp",
          "type": "uint256"
        }
      ],
      "name": "TradeHistory",
      "type": "event"
    },
    {
      "anonymous": false,
      "inputs": [
        {
          "indexed": true,
          "internalType": "address",
          "name": "token",
          "type": "address"
        },
        {
          "indexed": true,
          "internalType": "address",
          "name": "sender",
          "type": "address"
        },
        {
          "indexed": true,
          "internalType": "address",
          "name": "received",
          "type": "address"
        },
        {
          "indexed": false,
          "internalType": "enum ICommon.TransactionType",
          "name": "transactionType",
          "type": "uint8"
        },
        {
          "indexed": false,
          "internalType": "uint256",
          "name": "amount",
          "type": "uint256"
        },
        {
          "indexed": false,
          "internalType": "uint256",
          "name": "timestamp",
          "type": "uint256"
        }
      ],
      "name": "TransactionHistory",
      "type": "event"
    },
    {
      "anonymous": false,
      "inputs": [
        {
          "indexed": false,
          "internalType": "address",
          "name": "token",
          "type": "address"
        },
        {
          "indexed": false,
          "internalType": "address",
          "name": "sender",
          "type": "address"
        },
        {
          "indexed": false,
          "internalType": "string",
          "name": "name",
          "type": "string"
        },
        {
          "indexed": false,
          "internalType": "uint256",
          "name": "beforeLeverage",
          "type": "uint256"
        },
        {
          "indexed": false,
          "internalType": "uint256",
          "name": "afterLeverage",
          "type": "uint256"
        }
      ],
      "name": "setLeverage",
      "type": "event"
    },
    {
      "stateMutability": "nonpayable",
      "type": "fallback"
    },
    {
      "inputs": [],
      "name": "buybackAddr",
      "outputs": [
        {
          "internalType": "address",
          "name": "",
          "type": "address"
        }
      ],
      "stateMutability": "view",
      "type": "function"
    },
    {
      "inputs": [
        {
          "internalType": "uint256[]",
          "name": "_orderIDs",
          "type": "uint256[]"
        }
      ],
      "name": "cancelOrders",
      "outputs": [],
      "stateMutability": "nonpayable",
      "type": "function"
    },
    {
      "inputs": [
        {
          "internalType": "address",
          "name": "_token",
          "type": "address"
        },
        {
          "internalType": "uint256",
          "name": "_amount",
          "type": "uint256"
        }
      ],
      "name": "deposit",
      "outputs": [],
      "stateMutability": "nonpayable",
      "type": "function"
    },
    {
      "inputs": [
        {
          "internalType": "address",
          "name": "_token",
          "type": "address"
        },
        {
          "internalType": "address",
          "name": "_taker",
          "type": "address"
        },
        {
          "internalType": "uint256",
          "name": "_stage",
          "type": "uint256"
        }
      ],
      "name": "emitTakerBalance",
      "outputs": [],
      "stateMutability": "nonpayable",
      "type": "function"
    },
    {
      "inputs": [
        {
          "internalType": "address",
          "name": "_token",
          "type": "address"
        }
      ],
      "name": "getTakerAddresses",
      "outputs": [
        {
          "internalType": "address[]",
          "name": "",
          "type": "address[]"
        }
      ],
      "stateMutability": "view",
      "type": "function"
    },
    {
      "inputs": [],
      "name": "getTokenList",
      "outputs": [
        {
          "internalType": "address[]",
          "name": "",
          "type": "address[]"
        }
      ],
      "stateMutability": "view",
      "type": "function"
    },
    {
      "inputs": [],
      "name": "getTradingPairs",
      "outputs": [
        {
          "internalType": "string[]",
          "name": "",
          "type": "string[]"
        }
      ],
      "stateMutability": "view",
      "type": "function"
    },
    {
      "inputs": [
        {
          "internalType": "string",
          "name": "_name",
          "type": "string"
        }
      ],
      "name": "getUnderlying",
      "outputs": [
        {
          "internalType": "contract Underlying",
          "name": "",
          "type": "address"
        }
      ],
      "stateMutability": "view",
      "type": "function"
    },
    {
      "inputs": [
        {
          "internalType": "address",
          "name": "_token",
          "type": "address"
        },
        {
          "internalType": "address",
          "name": "_taker",
          "type": "address"
        }
      ],
      "name": "getUserAccount",
      "outputs": [
        {
          "components": [
            {
              "internalType": "uint256",
              "name": "depositAmount",
              "type": "uint256"
            },
            {
              "internalType": "uint256",
              "name": "availableAmount",
              "type": "uint256"
            },
            {
              "internalType": "uint256",
              "name": "marginAmount",
              "type": "uint256"
            },
            {
              "internalType": "uint256",
              "name": "orderLocked",
              "type": "uint256"
            },
            {
              "internalType": "uint256",
              "name": "lastTime",
              "type": "uint256"
            }
          ],
          "internalType": "struct IPerpetual.AccountInfo",
          "name": "user",
          "type": "tuple"
        }
      ],
      "stateMutability": "view",
      "type": "function"
    },
    {
      "inputs": [
        {
          "internalType": "address",
          "name": "_token",
          "type": "address"
        },
        {
          "internalType": "address",
          "name": "_user",
          "type": "address"
        },
        {
          "internalType": "string",
          "name": "_name",
          "type": "string"
        }
      ],
      "name": "getUserLeverage",
      "outputs": [
        {
          "internalType": "uint256",
          "name": "",
          "type": "uint256"
        }
      ],
      "stateMutability": "view",
      "type": "function"
    },
    {
      "inputs": [
        {
          "internalType": "address",
          "name": "_priPool",
          "type": "address"
        },
        {
          "internalType": "address",
          "name": "_riskFundAddr",
          "type": "address"
        },
        {
          "internalType": "address",
          "name": "_tradeFeeAddr",
          "type": "address"
        },
        {
          "internalType": "address",
          "name": "_platformTradeFeeAddr",
          "type": "address"
        }
      ],
      "name": "initialize",
      "outputs": [],
      "stateMutability": "nonpayable",
      "type": "function"
    },
    {
      "inputs": [
        {
          "internalType": "uint256[]",
          "name": "_dealIDs",
          "type": "uint256[]"
        },
        {
          "internalType": "string[]",
          "name": "_symbols",
          "type": "string[]"
        },
        {
          "internalType": "bytes[]",
          "name": "_priceUpdate",
          "type": "bytes[]"
        }
      ],
      "name": "liquidateMakerDeals",
      "outputs": [],
      "stateMutability": "payable",
      "type": "function"
    },
    {
      "inputs": [
        {
          "internalType": "address[]",
          "name": "_token",
          "type": "address[]"
        },
        {
          "internalType": "address[]",
          "name": "_taker",
          "type": "address[]"
        },
        {
          "internalType": "string[]",
          "name": "_symbols",
          "type": "string[]"
        },
        {
          "internalType": "bytes[]",
          "name": "_priceUpdate",
          "type": "bytes[]"
        }
      ],
      "name": "liquidateTaker",
      "outputs": [],
      "stateMutability": "payable",
      "type": "function"
    },
    {
      "inputs": [],
      "name": "maintenanceMarginRate",
      "outputs": [
        {
          "internalType": "uint256",
          "name": "",
          "type": "uint256"
        }
      ],
      "stateMutability": "view",
      "type": "function"
    },
    {
      "inputs": [],
      "name": "marketAgent",
      "outputs": [
        {
          "internalType": "contract MarketAgent",
          "name": "",
          "type": "address"
        }
      ],
      "stateMutability": "view",
      "type": "function"
    },
    {
      "inputs": [
        {
          "internalType": "string",
          "name": "_name",
          "type": "string"
        },
        {
          "internalType": "address",
          "name": "_token",
          "type": "address"
        },
        {
          "internalType": "uint256",
          "name": "_amount",
          "type": "uint256"
        },
        {
          "internalType": "enum ICommon.Offset",
          "name": "_offset",
          "type": "uint8"
        },
        {
          "internalType": "enum ICommon.Direct",
          "name": "_direct",
          "type": "uint8"
        },
        {
          "internalType": "uint256",
          "name": "_param1",
          "type": "uint256"
        },
        {
          "internalType": "uint256",
          "name": "_param2",
          "type": "uint256"
        },
        {
          "internalType": "uint256",
          "name": "_param3",
          "type": "uint256"
        },
        {
          "internalType": "uint256",
          "name": "_param4",
          "type": "uint256"
        },
        {
          "internalType": "uint256",
          "name": "_deadline",
          "type": "uint256"
        }
      ],
      "name": "ocoTrade",
      "outputs": [],
      "stateMutability": "payable",
      "type": "function"
    },
    {
      "inputs": [],
      "name": "orderBook",
      "outputs": [
        {
          "internalType": "contract OrderBook",
          "name": "",
          "type": "address"
        }
      ],
      "stateMutability": "view",
      "type": "function"
    },
    {
      "inputs": [],
      "name": "owner",
      "outputs": [
        {
          "internalType": "address",
          "name": "",
          "type": "address"
        }
      ],
      "stateMutability": "view",
      "type": "function"
    },
    {
      "inputs": [],
      "name": "platformTradeFeeAddr",
      "outputs": [
        {
          "internalType": "address",
          "name": "",
          "type": "address"
        }
      ],
      "stateMutability": "view",
      "type": "function"
    },
    {
      "inputs": [],
      "name": "privatePool",
      "outputs": [
        {
          "internalType": "address",
          "name": "",
          "type": "address"
        }
      ],
      "stateMutability": "view",
      "type": "function"
    },
    {
      "inputs": [],
      "name": "renounceOwnership",
      "outputs": [],
      "stateMutability": "nonpayable",
      "type": "function"
    },
    {
      "inputs": [],
      "name": "riskFundAddr",
      "outputs": [
        {
          "internalType": "address",
          "name": "",
          "type": "address"
        }
      ],
      "stateMutability": "view",
      "type": "function"
    },
    {
      "inputs": [
        {
          "internalType": "address",
          "name": "_buyBack",
          "type": "address"
        },
        {
          "internalType": "address",
          "name": "_orderBook",
          "type": "address"
        },
        {
          "internalType": "address",
          "name": "_tradeAgent",
          "type": "address"
        },
        {
          "internalType": "address",
          "name": "_tradeStation",
          "type": "address"
        },
        {
          "internalType": "address",
          "name": "_marketAgent",
          "type": "address"
        },
        {
          "internalType": "address",
          "name": "_keeper",
          "type": "address"
        }
      ],
      "name": "setKeepers",
      "outputs": [],
      "stateMutability": "nonpayable",
      "type": "function"
    },
    {
      "inputs": [
        {
          "internalType": "address",
          "name": "_platform",
          "type": "address"
        },
        {
          "internalType": "address",
          "name": "_tradeFee",
          "type": "address"
        },
        {
          "internalType": "bool",
          "name": "_mergeRemainingFeeToBuyBack",
          "type": "bool"
        }
      ],
      "name": "setTradeFeeAddr",
      "outputs": [],
      "stateMutability": "nonpayable",
      "type": "function"
    },
    {
      "inputs": [
        {
          "internalType": "address",
          "name": "_keeper",
          "type": "address"
        },
        {
          "internalType": "bool",
          "name": "_right",
          "type": "bool"
        }
      ],
      "name": "setTriggerKeeper",
      "outputs": [],
      "stateMutability": "nonpayable",
      "type": "function"
    },
    {
      "inputs": [
        {
          "internalType": "string",
          "name": "_name",
          "type": "string"
        },
        {
          "internalType": "address",
          "name": "_underlying",
          "type": "address"
        }
      ],
      "name": "setUnderlying",
      "outputs": [],
      "stateMutability": "nonpayable",
      "type": "function"
    },
    {
      "inputs": [
        {
          "internalType": "address",
          "name": "_token",
          "type": "address"
        },
        {
          "internalType": "string",
          "name": "_name",
          "type": "string"
        },
        {
          "internalType": "uint256",
          "name": "_leverage",
          "type": "uint256"
        }
      ],
      "name": "setUserLeverage",
      "outputs": [],
      "stateMutability": "nonpayable",
      "type": "function"
    },
    {
      "inputs": [
        {
          "internalType": "address",
          "name": "token",
          "type": "address"
        },
        {
          "internalType": "address",
          "name": "takerAddr",
          "type": "address"
        },
        {
          "internalType": "uint256",
          "name": "tradingFee",
          "type": "uint256"
        }
      ],
      "name": "splitTradeFee",
      "outputs": [],
      "stateMutability": "nonpayable",
      "type": "function"
    },
    {
      "inputs": [
        {
          "internalType": "string",
          "name": "_name",
          "type": "string"
        },
        {
          "internalType": "address",
          "name": "_token",
          "type": "address"
        },
        {
          "internalType": "uint256",
          "name": "_amount",
          "type": "uint256"
        },
        {
          "internalType": "uint256",
          "name": "_price",
          "type": "uint256"
        },
        {
          "internalType": "uint256",
          "name": "_orderType",
          "type": "uint256"
        },
        {
          "internalType": "enum ICommon.Offset",
          "name": "_offset",
          "type": "uint8"
        },
        {
          "internalType": "enum ICommon.Direct",
          "name": "_direct",
          "type": "uint8"
        },
        {
          "internalType": "uint256",
          "name": "_orderType2",
          "type": "uint256"
        },
        {
          "internalType": "uint256",
          "name": "_deadline",
          "type": "uint256"
        },
        {
          "internalType": "bytes",
          "name": "_priceUpdate",
          "type": "bytes"
        }
      ],
      "name": "trade",
      "outputs": [],
      "stateMutability": "payable",
      "type": "function"
    },
    {
      "inputs": [],
      "name": "tradeAgent",
      "outputs": [
        {
          "internalType": "contract TradeAgent",
          "name": "",
          "type": "address"
        }
      ],
      "stateMutability": "view",
      "type": "function"
    },
    {
      "inputs": [],
      "name": "tradeFeeAddr",
      "outputs": [
        {
          "internalType": "address",
          "name": "",
          "type": "address"
        }
      ],
      "stateMutability": "view",
      "type": "function"
    },
    {
      "inputs": [],
      "name": "tradeStation",
      "outputs": [
        {
          "internalType": "contract TradeStation",
          "name": "",
          "type": "address"
        }
      ],
      "stateMutability": "view",
      "type": "function"
    },
    {
      "inputs": [
        {
          "internalType": "address",
          "name": "newOwner",
          "type": "address"
        }
      ],
      "name": "transferOwnership",
      "outputs": [],
      "stateMutability": "nonpayable",
      "type": "function"
    },
    {
      "inputs": [
        {
          "internalType": "uint256[]",
          "name": "_orderIDs",
          "type": "uint256[]"
        },
        {
          "internalType": "string[]",
          "name": "_symbols",
          "type": "string[]"
        },
        {
          "internalType": "bytes[]",
          "name": "_priceUpdate",
          "type": "bytes[]"
        }
      ],
      "name": "triggerOrders",
      "outputs": [],
      "stateMutability": "payable",
      "type": "function"
    },
    {
      "inputs": [
        {
          "internalType": "address",
          "name": "_token",
          "type": "address"
        },
        {
          "internalType": "address",
          "name": "_taker",
          "type": "address"
        },
        {
          "components": [
            {
              "internalType": "uint256",
              "name": "depositAmount",
              "type": "uint256"
            },
            {
              "internalType": "uint256",
              "name": "availableAmount",
              "type": "uint256"
            },
            {
              "internalType": "uint256",
              "name": "marginAmount",
              "type": "uint256"
            },
            {
              "internalType": "uint256",
              "name": "orderLocked",
              "type": "uint256"
            },
            {
              "internalType": "uint256",
              "name": "lastTime",
              "type": "uint256"
            }
          ],
          "internalType": "struct IPerpetual.AccountInfo",
          "name": "userInfo",
          "type": "tuple"
        }
      ],
      "name": "updateUserAsset",
      "outputs": [],
      "stateMutability": "nonpayable",
      "type": "function"
    },
    {
      "inputs": [
        {
          "internalType": "string[]",
          "name": "_symbols",
          "type": "string[]"
        },
        {
          "internalType": "bytes[]",
          "name": "_prices",
          "type": "bytes[]"
        }
      ],
      "name": "verifyPrice",
      "outputs": [
        {
          "internalType": "uint256[]",
          "name": "prices",
          "type": "uint256[]"
        }
      ],
      "stateMutability": "payable",
      "type": "function"
    },
    {
      "inputs": [
        {
          "internalType": "address",
          "name": "_token",
          "type": "address"
        },
        {
          "internalType": "uint256",
          "name": "_amount",
          "type": "uint256"
        },
        {
          "internalType": "string[]",
          "name": "_symbols",
          "type": "string[]"
        },
        {
          "internalType": "bytes[]",
          "name": "_priceUpdate",
          "type": "bytes[]"
        }
      ],
      "name": "withdraw",
      "outputs": [],
      "stateMutability": "payable",
      "type": "function"
    }
  ],
  "bytecode": "0x6080806040523460155761400b908161001a8239f35b5f80fdfe60806040526004361015610019575b3461001557005b5f80fd5b5f5f3560e01c806305ca57cf14611ffb5780630c41899814611fd55780630eed74c014611fa4578063273cbaa014611f30578063273e763814611c76578063336d1f1514611a6257806334d57a2014611a3b5780633851969e146119c9578063402d712c1461190957806347e7ef24146116a25780634bfbb7d51461164c57806356601435146116255780635671c19a146115c057806359b5e75e146115995780635c39e378146112b45780636648ddd41461123657806369a0eeb81461120f578063702c2b7414611181578063708b8d8614610f08578063715018a614610e6f578063776af5ba14610e4857806389f00b6d14610e2a5780638da5cb5b14610de45780639c59b33a14610d26578063a70dc3fe14610cff578063b55fb57414610c23578063b5c926f414610bb4578063b8d771d414610adf578063ccf1a4b214610a13578063cd2ce4ae146108f6578063d3c2d8b7146107bb578063e08061b314610794578063e448cc41146106a8578063f2fde38b1461067b578063f348285b14610654578063f74c30491461050b5763f8c8765e146101bb575061000e565b34610508576080600319360112610508576101d4612109565b906101dd61211f565b6101e5612135565b906101ee61214b565b917ff0c57e16840df040f15088dc2f81fe391c3923bec73e23a9662efc9c229c6a00549460ff8660401c16159567ffffffffffffffff811680159081610500575b60011490816104f6575b1590816104ed575b506104c5576001600160a01b0394939192858094838a60017fffffffffffffffffffffffffffffffffffffffffffffffff0000000000000000859716177ff0c57e16840df040f15088dc2f81fe391c3923bec73e23a9662efc9c229c6a0055610470575b506102ae613f7e565b6102b6613f7e565b6102bf3361347c565b6102c7613f7e565b6102cf613f7e565b60017f9b779b17422d0df92223018b32b4d1fa46e071723d6817e2486d003becc55f005516806001600160a01b0319600a541617600a558752600f60205260408720600160ff19825416179055166001600160a01b03196008541617600855166001600160a01b03196007541617600755166001600160a01b03196009541617600955308152600f60205260408120600160ff19825416179055338152600f60205260408120600160ff19825416179055670de0b6b3a7640000815566038d7ea4c6800060015567016345785d8a0000600255506702c68af0bb1400006003557fffffffffffffffffffffff00ffffffffffffffffffffffffffffffffffffffff600e5416600e556103dd57005b7fffffffffffffffffffffffffffffffffffffffffffffff00ffffffffffffffff7ff0c57e16840df040f15088dc2f81fe391c3923bec73e23a9662efc9c229c6a0054167ff0c57e16840df040f15088dc2f81fe391c3923bec73e23a9662efc9c229c6a00557fc7f505b2f371ae2175ee4913f4499e1f2633a7b5936321eed1cdaeb6115181d2602060405160018152a1005b7fffffffffffffffffffffffffffffffffffffffffffffff0000000000000000001668010000000000000001177ff0c57e16840df040f15088dc2f81fe391c3923bec73e23a9662efc9c229c6a00555f6102a5565b6004867ff92ee8a9000000000000000000000000000000000000000000000000000000008152fd5b9050155f610241565b303b159150610239565b88915061022f565b80fd5b50346105085760c060031936011261050857610525612109565b61052d61211f565b610535612135565b9161053e61214b565b608435926001600160a01b0384168094036106505760a435946001600160a01b03861680960361064c576001600160a01b0380949281809461057e613be2565b166001600160a01b0319600654161760065516806001600160a01b0319600b541617600b558752600f60205260408720600160ff1982541617905516806001600160a01b0319600c541617600c558552600f60205260408520600160ff1982541617905516806001600160a01b0319600e541617600e558352600f60205260408320600160ff19825416179055806001600160a01b0319600d541617600d558252600f60205260408220600160ff198254161790558152600f60205260408120600160ff1982541617905580f35b8680fd5b8580fd5b503461050857806003193601126105085760206001600160a01b0360075416604051908152f35b5034610508576020600319360112610508576106a5610698612109565b6106a0613be2565b61347c565b80f35b50346105085760e0600319360112610508576106c2612109565b6106ca61211f565b9060a07fffffffffffffffffffffffffffffffffffffffffffffffffffffffffffffffbc36011261079057600490604051926107058461205a565b604435845260208401606435815260408501906084358252606086019260a43584526001600160a01b03608088019560c4358752338a52600f60205261075160ff60408c2054166124ae565b42875216885260106020526001600160a01b036040892091165f5260205260405f20955186555160018601555160028501555160038401555191015580f35b8280fd5b503461050857806003193601126105085760206001600160a01b0360085416604051908152f35b5034610508577fbbd1b090970f0e970b855e7b10fb629b05c0ea0c6e28e9b67a3573a05b947d316101006001600160a01b036107f636612161565b92909116918286526010602052604086206001600160a01b0383165f5260205260405f2091604051926108288461205a565b8054845260018101546020850181815261086e61086660028501546040890194818652600460038801549760608c01988952015460808b0152612979565b845190612979565b8651818111156108c4575061088c6001600160a01b039188516129ce565b965b519151925193519460405198895216602088015260408701526060860152608085015260a084015260c083015260e0820152a180f35b90808210156108e5576001600160a01b03916108df916129ce565b9661088e565b50506001600160a01b038a9661088e565b5034610508578060031936011261050857601354610913816121dd565b906109216040519283612076565b808252601383527f66de8ffda797e3de9c05e8fc57b3bf0ec28a930d40b0d285d93c06501cf6a0909280602084015b838310610971576040516020808252819061096d90820188612437565b0390f35b60405182875461098081612bc4565b80845290600181169081156109f057506001146109ba575b50600192826109ac85946020940382612076565b815201960192019194610950565b888552602085208592505b8183106109da57505081016020016001610998565b60018160209254838688010152019201916109c5565b60ff191660208581019190915291151560051b8401909101915060019050610998565b5034610508576040600319360112610508576001600160a01b036040610a37612109565b9282610a4161211f565b948260808551610a508161205a565b8281528260208201528287820152826060820152015216815260106020522091165f5260205260a060405f20604051610a888161205a565b81549182825260018101546020830190815260028201549060408401918252608060046003850154946060870195865201549401938452604051948552516020850152516040840152516060830152516080820152f35b5060806003193601126105085760043567ffffffffffffffff8111610bb057610b0c9036906004016123a4565b60243567ffffffffffffffff811161079057610b2c9036906004016123a4565b60443567ffffffffffffffff8111610bac57610b4c903690600401612252565b916064359267ffffffffffffffff8411610ba857610b71610b819436906004016122d1565b939092610b7c6136c4565b612c10565b60017f9b779b17422d0df92223018b32b4d1fa46e071723d6817e2486d003becc55f005580f35b8480fd5b8380fd5b5080fd5b5060406003193601126105085760043567ffffffffffffffff8111610bb057610be1903690600401612252565b906024359067ffffffffffffffff82116105085761096d610c0f84610c0936600487016122d1565b916137cf565b604051918291602083526020830190612371565b50346105085760206003193601126105085760043567ffffffffffffffff8111610bb057610c559036906004016121f5565b81805b8251811015610cfb576001600160a01b03600c5416610c778285612bfc565b51813b15610bac5783916064839260405194859384927fc2b3356400000000000000000000000000000000000000000000000000000000845260048401523360248401528160448401525af1908115610cf0578391610cdb575b5050600101610c58565b81610ce591612076565b610bb057815f610cd1565b6040513d85823e3d90fd5b5080f35b503461050857806003193601126105085760206001600160a01b0360095416604051908152f35b503461050857606060031936011261050857610d40612109565b610d4861211f565b60443591821515809303610bac576001600160a01b038092338652600f602052610d7860ff6040882054166124ae565b166001600160a01b03196008541617600855166001600160a01b031960095416176009557fffffffffffffffffffffff00ffffffffffffffffffffffffffffffffffffffff74ff0000000000000000000000000000000000000000600e549260a01b16911617600e5580f35b503461050857806003193601126105085760206001600160a01b037f9016d09d72d40fdae2fd8ceac6b6234c7706214fd39c1cd1e609a0528c1993005416604051908152f35b50346105085780600319360112610508576020600254604051908152f35b503461050857806003193601126105085760206001600160a01b03600b5416604051908152f35b5034610508578060031936011261050857610e88613be2565b806001600160a01b037f9016d09d72d40fdae2fd8ceac6b6234c7706214fd39c1cd1e609a0528c199300546001600160a01b031981167f9016d09d72d40fdae2fd8ceac6b6234c7706214fd39c1cd1e609a0528c19930055167f8be0079c531659141344cd1fd0a4f28419497f9722a3daafe3b4186f6b6457e08280a380f35b50346105085760406003193601126105085760043567ffffffffffffffff8111610bb057610f3a9036906004016120eb565b90610f4361211f565b338252600f602052610f5b60ff6040842054166124ae565b6040516001600160a01b03845191602081818801948086835e81016011815203019020541615610fbb575b6001600160a01b0390602085604051928391518091835e8101601181520301902091166001600160a01b031982541617905580f35b6013546801000000000000000081101561116d576001810160135560135481101561115957601384527f66de8ffda797e3de9c05e8fc57b3bf0ec28a930d40b0d285d93c06501cf6a0900193836111465780519467ffffffffffffffff8611611132576110288154612bc4565b601f81116110ed575b50602095601f8111600114611080579081602093926001600160a01b039697985f91611075575b508160011b915f199060031b1c19161790555b9493925050610f86565b90508301515f611058565b601f198116825f52875f20905f5b8181106110d55750916001916001600160a01b03979899826020979695106110bd575b5050811b01905561106b565b8501515f1960f88460031b161c191690555f806110b1565b858a015183556020998a01996001909301920161108e565b815f5260205f20601f880160051c81019160208910611128575b601f0160051c01905b81811061111d5750611031565b5f8155600101611110565b9091508190611107565b634e487b7160e01b5f52604160045260245ffd5b602484634e487b7160e01b815280600452fd5b602484634e487b7160e01b81526032600452fd5b602484634e487b7160e01b81526041600452fd5b50346105085760606003193601126105085761119b612109565b6111a361211f565b60443567ffffffffffffffff8111610bac5760406020946001600160a01b036111d1819436906004016120eb565b95168152601286522091165f5282526111ed60405f208261248f565b549081156111ff575b50604051908152f35b611209915061361b565b5f6111f6565b503461050857806003193601126105085760206001600160a01b03600d5416604051908152f35b5034610508576020600319360112610508576001600160a01b03611258612109565b168152601460205260408120604051918260208354918281520192825260208220915b81811061129e5761096d8561129281870382612076565b6040519182918261219b565b825484526020909301926001928301920161127b565b506101406003193601126105085760043567ffffffffffffffff8111610bb0576112e29036906004016120eb565b6112ea61211f565b6084359060643560a43560038110156106505760c43592600384101561064c57610124359067ffffffffffffffff82116114fa57366023830112156114fa576113456001600160a01b039236906024816004013591016120b5565b5061134e6136c4565b169061136d611368835f52600560205260405f2054151590565b612843565b61137c4261010435101561288e565b6113858661373b565b96905061139185612924565b600185148015611586575b1561154257856113ea57606460405162461bcd60e51b815260206004820152600760248201527f696e76616c6964000000000000000000000000000000000000000000000000006044820152fd5b83156114fe576113fd88973410156128d9565b6001600160a01b03600e541692833b156114fa57879561145793604051988997889687967ffb13637b0000000000000000000000000000000000000000000000000000000088526101406004890152610144880190612412565b94602487015260443560448701526064860152608485015261147881612924565b60a484015261148681612924565b60c483015260e43560e48301523361010483015234610124830152039134905af180156114ef576114da575b5060017f9b779b17422d0df92223018b32b4d1fa46e071723d6817e2486d003becc55f005580f35b816114e491612076565b61050857805f6114b2565b6040513d84823e3d90fd5b8780fd5b606460405162461bcd60e51b815260206004820152600d60248201527f7072696365206973207a65726f000000000000000000000000000000000000006044820152fd5b606460405162461bcd60e51b815260206004820152600f60248201527f77726f6e6720646972656374696f6e00000000000000000000000000000000006044820152fd5b5061159085612924565b6002851461139c565b503461050857806003193601126105085760206001600160a01b03600a5416604051908152f35b506080600319360112610508576115d5612109565b60443567ffffffffffffffff8111610790576115f5903690600401612252565b6064359167ffffffffffffffff8311610bac576116196106a59336906004016122d1565b929091602435906129db565b503461050857806003193601126105085760206001600160a01b03600c5416604051908152f35b503461050857604060031936011261050857611666612109565b60243590811515809203610790576001600160a01b0390611685613be2565b168252600f602052604082209060ff60ff19835416911617905580f35b5034610508576040600319360112610508576116bc612109565b60243560015481106118c55782916116d682303384613a0a565b6001600160a01b038116918284526010602052604084206001600160a01b0333165f5260205260405f2061170a3384613235565b611715828254612979565b815560018101611726838254612979565b9055838552601460205261174b33604087206001915f520160205260405f2054151590565b156118a3575b5061175c3383613358565b604051906001825260208201524260408201523090837feb42cf637f927243245c50b4bf7fe105fe4f4d26209102240f2ba3d8e27a7df860603393a46117ad825f52600560205260405f2054151590565b156117b6575050f35b6117c08392613e2a565b506001600160a01b03600a5416827fffffffff0000000000000000000000000000000000000000000000000000000060186020604051611801604082612076565b828152017f617070726f766528616464726573732c75696e743235362900000000000000008152201691604051906020820193845260248201525f19604482015260448152611851606482612076565b51925af161185d6139db565b8161186c575b50156105085780f35b8051801592508215611881575b50505f611863565b8192509060209181010312610bb057602061189c9101612986565b5f80611879565b60044291015582845260146020526118be3360408620613e9a565b505f611751565b606460405162461bcd60e51b815260206004820152601860248201527f6465706f73697420616d6f756e7420746f6f20736d616c6c00000000000000006044820152fd5b508061194e61191736612302565b93909193338652600f60205261193360ff6040882054166124ae565b61193b6136c4565b6001600160a01b03600e541692856137cf565b90803b15610ba85761199393858094604051968795869485937fbcef60d700000000000000000000000000000000000000000000000000000000855260048501612942565b03925af180156114ef576114da575060017f9b779b17422d0df92223018b32b4d1fa46e071723d6817e2486d003becc55f005580f35b50806119f66119d736612302565b6119e3949192946136c4565b6001600160a01b03600c541692856137cf565b90803b15610ba85761199393858094604051968795869485937feb4f2e3600000000000000000000000000000000000000000000000000000000855260048501612942565b503461050857806003193601126105085760206001600160a01b03600e5416604051908152f35b506101406003193601126100155760043567ffffffffffffffff811161001557611a909036906004016120eb565b611a9861211f565b60443560643592600384101561001557608435926003841015610015576001600160a01b0390611ac66136c4565b1692611ae0611368855f52600560205260405f2054151590565b611aef4261012435101561288e565b611af88261373b565b908410611c32578060011b9080820460021490151715611c1e57611b1e903410156128d9565b6001600160a01b03600e541691823b15610015575f94611b7892604051978896879586957f6e839c640000000000000000000000000000000000000000000000000000000087526101406004880152610144870190612412565b9360248601526044850152611b8c81612924565b6064840152611b9a81612924565b608483015260a43560a483015260c43560c483015260e43560e48301526101043561010483015233610124830152039134905af18015611c1357611c00575060017f9b779b17422d0df92223018b32b4d1fa46e071723d6817e2486d003becc55f005580f35b611c0c91505f90612076565b5f5f6114b2565b6040513d5f823e3d90fd5b634e487b7160e01b5f52601160045260245ffd5b606460405162461bcd60e51b815260206004820152601460248201527f6f636f20616d6f756e7420746f6f20736d616c6c0000000000000000000000006044820152fd5b3461001557606060031936011261001557611c8f612109565b60243567ffffffffffffffff811161001557611caf9036906004016120eb565b604435906001600160a01b03604051602081845180838701835e81016011815203019020541615611eec57611ce38161361b565b8215159081611ee1575b5015611e9d575f6001600160a01b0380600b54169416905b60028110611db557509081611db2925f52601260205260405f206001600160a01b0333165f526020527f876c9e1723578de812ea7970374a8505b6086b8f573cea692c1e18c2e1c3dc27611d5c60405f208461248f565b54604051809184825233602083015260a06040830152611d7f60a0830187612412565b9060608301528760808301520390a15f52601260205260405f206001600160a01b0333165f5260205260405f209061248f565b55005b6040517f3a0204a90000000000000000000000000000000000000000000000000000000081528260048201523360248201526080604482015260808180611dff6084820188612412565b8560648301520381895afa908115611c13575f91611e69575b50611e2557600101611d05565b606460405162461bcd60e51b815260206004820152600b60248201527f65786973742061737365740000000000000000000000000000000000000000006044820152fd5b90506080813d8211611e95575b81611e8360809383612076565b81010312610015576020015186611e18565b3d9150611e76565b606460405162461bcd60e51b815260206004820152601560248201527f6c65766572616765206f7574206f6620312d31303000000000000000000000006044820152fd5b905082111584611ced565b606460405162461bcd60e51b815260206004820152600a60248201527f77726f6e67206e616d65000000000000000000000000000000000000000000006044820152fd5b34610015575f6003193601126100155760405180602060045491828152019060045f527f8a35acfbc15ff81a39ae7d344fd709f28e8600b4aa8c65c6b64bfe7fe36bd19b905f5b818110611f8e5761096d8561129281870382612076565b8254845260209093019260019283019201611f77565b3461001557611fd3611fb536612161565b91335f52600f602052611fce60ff60405f2054166124ae565b61253e565b005b34610015575f6003193601126100155760206001600160a01b0360065416604051908152f35b346100155760206003193601126100155760043567ffffffffffffffff8111610015576001600160a01b03602080612038819436906004016120eb565b604051928184925191829101835e810160118152030190205416604051908152f35b60a0810190811067ffffffffffffffff82111761113257604052565b90601f601f19910116810190811067ffffffffffffffff82111761113257604052565b67ffffffffffffffff811161113257601f01601f191660200190565b9291926120c182612099565b916120cf6040519384612076565b829481845281830111610015578281602093845f960137010152565b9080601f8301121561001557816020612106933591016120b5565b90565b600435906001600160a01b038216820361001557565b602435906001600160a01b038216820361001557565b604435906001600160a01b038216820361001557565b606435906001600160a01b038216820361001557565b6003196060910112610015576004356001600160a01b038116810361001557906024356001600160a01b0381168103610015579060443590565b60206040818301928281528451809452019201905f5b8181106121be5750505090565b82516001600160a01b03168452602093840193909201916001016121b1565b67ffffffffffffffff81116111325760051b60200190565b9080601f8301121561001557813561220c816121dd565b9261221a6040519485612076565b81845260208085019260051b82010192831161001557602001905b8282106122425750505090565b8135815260209182019101612235565b9080601f83011215610015578135612269816121dd565b926122776040519485612076565b81845260208085019260051b820101918383116100155760208201905b8382106122a357505050505090565b813567ffffffffffffffff8111610015576020916122c6878480948801016120eb565b815201910190612294565b9181601f840112156100155782359167ffffffffffffffff8311610015576020808501948460051b01011161001557565b60606003198201126100155760043567ffffffffffffffff8111610015578161232d916004016121f5565b9160243567ffffffffffffffff8111610015578261234d91600401612252565b916044359067ffffffffffffffff82116100155761236d916004016122d1565b9091565b90602080835192838152019201905f5b81811061238e5750505090565b8251845260209384019390920191600101612381565b9080601f83011215610015578135906123bc826121dd565b926123ca6040519485612076565b82845260208085019360051b82010191821161001557602001915b8183106123f25750505090565b82356001600160a01b0381168103610015578152602092830192016123e5565b90601f19601f602080948051918291828752018686015e5f8582860101520116010190565b9080602083519182815201916020808360051b8301019401925f915b83831061246257505050505090565b909192939460208061248083601f1986600196030187528951612412565b97019301930191939290612453565b6040518151909260209284929081908501845e82019081520301902090565b156124b557565b606460405162461bcd60e51b815260206004820152601e60248201527f63616c6c6572206973206e6f742070657270657475616c206b656570657200006044820152fd5b51906001600160a01b038216820361001557565b81810292918115918404141715611c1e57565b811561252a570490565b634e487b7160e01b5f52601260045260245ffd5b90821561283e57600d546001600160a01b0316925f8080808761276b575b61261197506125786125706003548761250d565b5f5490612520565b949182816001600160a01b038416151580612763575b8061275a575b612718575b50505050829080936001600160a01b03841615158061270f575b80612706575b6126c4575b505050506001600160a01b03600954169082908093831515806126bb575b806126b2575b612677575b5050505091829160ff600e5460a01c16612614575b8293506001600160a01b036008541691613537565b50565b9150916001600160a01b0360065416818115158061266e575b80612665575b612642575b50509082906125fc565b61265e919250600b5f93612657838289613c41565b8587613b8b565b5f80612638565b50801515612633565b5080151561262d565b61269e93945081115f146126a75761269182600e926129ce565b935b612657838289613c41565b5f8080806125e7565b9050600e5f93612693565b508015156125e2565b508115156125dc565b6126f293945081115f146126fb576126de82600c926129ce565b935b6126eb83828a613c41565b8688613b8b565b5f8080806125be565b9050600c5f936126e0565b508015156125b9565b508115156125b3565b61274693945081115f1461274f57612732826011926129ce565b935b61273f83828c613c41565b888a613b8b565b5f808080612599565b905060115f93612734565b50801515612594565b50600161258e565b50506040517f9594bd1b0000000000000000000000000000000000000000000000000000000081526001600160a01b0386811660048301528516602482015260448101849052956080925086915060649082905f905af18015611c13575f905f905f905f906127e3575b61261197509091929161255c565b505050506080843d608011612836575b8161280060809383612076565b810103126100155783612815612611956124f9565b90602081015191606061282a604084016124f9565b920151909291906127d5565b3d91506127f3565b505050565b1561284a57565b606460405162461bcd60e51b815260206004820152600860248201527f4e6f20746f6b656e0000000000000000000000000000000000000000000000006044820152fd5b1561289557565b606460405162461bcd60e51b815260206004820152600760248201527f65787069726564000000000000000000000000000000000000000000000000006044820152fd5b156128e057565b606460405162461bcd60e51b815260206004820152600b60248201527f6c657373207265776172640000000000000000000000000000000000000000006044820152fd5b6003111561292e57565b634e487b7160e01b5f52602160045260245ffd5b9161296b9061295d6121069593606086526060860190612371565b908482036020860152612437565b916040818403910152612371565b91908201809211611c1e57565b5190811515820361001557565b926001600160a01b036121069593816129c094168652166020850152608060408501526080840190612437565b916060818403910152612371565b91908203918211611c1e57565b9391604090612a3492946129fd5f956001600160a01b03600c541692846137cf565b9183518095819482937fd15a1b41000000000000000000000000000000000000000000000000000000008452338c60048601612993565b03915afa908115611c13575f905f92612b5a575b5015612b52575b50811561283e576001600160a01b03831692835f52601060205260405f206001600160a01b0333165f5260205260405f2091612a8b3383613235565b6001830190612a9c82549186612979565b8110612b0e5784612abd9185612ab683612ad198546129ce565b90556129ce565b9055612aca833383613c41565b3390613358565b6040519060028252602082015242604082015233917feb42cf637f927243245c50b4bf7fe105fe4f4d26209102240f2ba3d8e27a7df860603093a4565b606460405162461bcd60e51b815260206004820152601960248201527f776974686472657720616d6f756e7420746f6f206c61726765000000000000006044820152fd5b90505f612a4f565b9150506040813d604011612b93575b81612b7660409383612076565b81010312610015576020612b8982612986565b910151905f612a48565b3d9150612b69565b8054821015612bb0575f5260205f2001905f90565b634e487b7160e01b5f52603260045260245ffd5b90600182811c92168015612bf2575b6020831014612bde57565b634e487b7160e01b5f52602260045260245ffd5b91607f1691612bd3565b8051821015612bb05760209160051b010190565b93612c1d919593836137cf565b915f5b845181101561322d575f5b8651811015613224576001600160a01b03612c468388612bfc565b5116906001600160a01b03612c5b828a612bfc565b5116825f52601060205260405f206001600160a01b0382165f52602052612c8660405f205484613d5a565b801561321857612c968285613235565b612ce06080896001600160a01b03600c54168a6040518095819482937fd719606a0000000000000000000000000000000000000000000000000000000084528a8d60048601612993565b03915afa908115611c13575f916131df575b50612dfd575b50610100837fbbd1b090970f0e970b855e7b10fb629b05c0ea0c6e28e9b67a3573a05b947d31926001955f52601060205260405f206001600160a01b0382165f5260205260405f209060405191612d4e8361205a565b805483528781015460208401818152612d8b61086660028501546040880194818652600460038801549760608b01988952015460808a0152612979565b855181811115612ddd5750612da19086516129ce565b945b5190519151925193604051968752602087015260408601526060850152608084015260a0830152600b60c083015260e0820152a101612c2b565b81811015612df457612dee916129ce565b94612da3565b50505f94612da3565b612e62906001600160a01b03600754166020612e198288613d83565b6040517fdd62ed3e0000000000000000000000000000000000000000000000000000000081526001600160a01b0390931660048401523060248401529193849081906044820190565b0381895afa8015611c135789935f916131a7575b50612e86612e9d915f549061250d565b612e97612e9289613ef2565b613d75565b90612520565b80821161319f575b5060208a6001600160a01b03600e5416865f8a612f28612ec5888a612979565b95612f166040519b8c98899788967fc59b4d7800000000000000000000000000000000000000000000000000000000885260048801526024870152604486015260a0606486015260a4850190612437565b90600319848303016084850152612371565b03925af1928315611c13575f93613144575b509282869282600198877fbbd1b090970f0e970b855e7b10fb629b05c0ea0c6e28e9b67a3573a05b947d319861010098145f1461300857505050612f8b91506001600160a01b03600a541684613c41565b604080516001600160a01b038481168252831660208201527f41e1079eef48308723ea526ccdf110f7d9ce6445e554db20e4fbe261c3a5ac9b9190a1815f52601060205260405f206001600160a01b0382165f526020525f6004604082208281558289820155826002820155826003820155015592509350612cf8565b9091928185115f146130b0576130977feb42cf637f927243245c50b4bf7fe105fe4f4d26209102240f2ba3d8e27a7df89261308560609361305f6001600160a01b0360075416613058858c6129ce565b9089613c41565b61307e89613079856001600160a01b03600a541694612979565b6129ce565b9087613c41565b6001600160a01b0360075416966129ce565b60405190600882526020820152426040820152a4612f8b565b61312b7feb42cf637f927243245c50b4bf7fe105fe4f4d26209102240f2ba3d8e27a7df89294956131196060936130ff6001600160a01b03600754166130f6858b6129ce565b9030908a613a0a565b61307e836130798a6001600160a01b03600a541694612979565b6001600160a01b0360075416956129ce565b60405190600982526020820152426040820152a4612f8b565b92509490926020833d8211613197575b8161316160209383612076565b810103126100155791519094919290917fbbd1b090970f0e970b855e7b10fb629b05c0ea0c6e28e9b67a3573a05b947d31612f3a565b3d9150613154565b90505f612ea5565b9350506020833d82116131d7575b816131c260209383612076565b81010312610015579151889290612e86612e76565b3d91506131b5565b90506080813d8211613210575b816131f960809383612076565b810103126100155761320a90612986565b5f612cf2565b3d91506131ec565b50505050509350505050565b50600101612c20565b509350505050565b7fbbd1b090970f0e970b855e7b10fb629b05c0ea0c6e28e9b67a3573a05b947d31916001600160a01b03610100921690815f52601060205260405f206001600160a01b0382165f5260205260405f2090604051916132928361205a565b805483526001810154602084018181526132d061086660028501546040880194818652600460038801549760608b01988952015460808a0152612979565b85518181111561332657506132ee6001600160a01b039187516129ce565b955b519151925193519460405197885216602087015260408601526060850152608084015260a08301525f60c083015260e0820152a1565b9080821015613347576001600160a01b0391613341916129ce565b956132f0565b50506001600160a01b035f956132f0565b7fbbd1b090970f0e970b855e7b10fb629b05c0ea0c6e28e9b67a3573a05b947d31916001600160a01b03610100921690815f52601060205260405f206001600160a01b0382165f5260205260405f2090604051916133b58361205a565b805483526001810154602084018181526133f361086660028501546040880194818652600460038801549760608b01988952015460808a0152612979565b85518181111561344a57506134116001600160a01b039187516129ce565b955b519151925193519460405197885216602087015260408601526060850152608084015260a0830152600a60c083015260e0820152a1565b908082101561346b576001600160a01b0391613465916129ce565b95613413565b50506001600160a01b035f95613413565b6001600160a01b0316801561350b576001600160a01b037f9016d09d72d40fdae2fd8ceac6b6234c7706214fd39c1cd1e609a0528c19930054826001600160a01b03198216177f9016d09d72d40fdae2fd8ceac6b6234c7706214fd39c1cd1e609a0528c19930055167f8be0079c531659141344cd1fd0a4f28419497f9722a3daafe3b4186f6b6457e05f80a3565b7f1e4fbdf7000000000000000000000000000000000000000000000000000000005f525f60045260245ffd5b92939091846001600160a01b0382161515806135af575b806135a6575b613561575b505050505090565b6135909495508281115f1461359a579261357e83600d94956129ce565b955b61358b858483613c41565b613b8b565b5f80808080613559565b600d9250925f95613580565b50821515613554565b5080151561354e565b908160c0910312610015576040519060c082019082821067ffffffffffffffff8311176111325760a0916040528051835260208101516020840152604081015160408401526060810151606084015260808101516080840152015160a082015290565b60405181516001600160a01b0392602091839181908401835e601190820190815203019020541680156136be5760c0600491604051928380927f639122c90000000000000000000000000000000000000000000000000000000082525afa8015611c13576060915f9161368f575b50015190565b6136b1915060c03d60c0116136b7575b6136a98183612076565b8101906135b8565b5f613689565b503d61369f565b50606490565b60027f9b779b17422d0df92223018b32b4d1fa46e071723d6817e2486d003becc55f0054146137135760027f9b779b17422d0df92223018b32b4d1fa46e071723d6817e2486d003becc55f0055565b7f3ee5aeb5000000000000000000000000000000000000000000000000000000005f5260045ffd5b9060c06001600160a01b03602080600495604051928184925191829101835e810160118152030190205416604051938480927f639122c90000000000000000000000000000000000000000000000000000000082525afa918215611c13575f926137ae575b506020604083015192015190565b6137c891925060c03d60c0116136b7576136a98183612076565b905f6137a0565b9092919283825103613997576137e6825134612520565b908251801561252a573406936137fb866121dd565b936138096040519586612076565b868552601f19613818886121dd565b0136602087013784955f5b82518082101561398b575f198101908111611c1e57811461397a575b6001600160a01b036020806138548487612bfc565b51604051928184925191829101835e8101601181520301902054169089811015612bb0578060051b8601357fffffffffffffffffffffffffffffffffffffffffffffffffffffffffffffffe18736030181121561001557860180359067ffffffffffffffff82116100155760200190803603821361001557601f93818a6044602095601f19604051998a97889687947f1af189a40000000000000000000000000000000000000000000000000000000086528b6004870152816024870152868601375f858286010152011681010301925af18015611c13575f90613948575b60019250613941828a612bfc565b5201613823565b506020823d8211613972575b8161396160209383612076565b810103126100155760019151613933565b3d9150613954565b948161398591612979565b9461383f565b50505050939450505050565b606460405162461bcd60e51b815260206004820152602060248201527f496e636f6e73697374656e74207072696365206172726179206c656e677468736044820152fd5b3d15613a05573d906139ec82612099565b916139fa6040519384612076565b82523d5f602084013e565b606090565b9092612570613a2591613a1f612e9285613ef2565b9061250d565b80151580613b79575b80613b67575b613a3f575b50505050565b5f809493613b0f8295613b017fffffffff000000000000000000000000000000000000000000000000000000006025604051613a7c606082612076565b8181527f7432353629000000000000000000000000000000000000000000000000000000604060208301927f7472616e7366657246726f6d28616464726573732c616464726573732c75696e8452015220169560405194859360208501988952602485016001600160a01b036040929594938160608401971683521660208201520152565b03601f198101835282612076565b51925af1613b1b6139db565b81613b30575b5015610015575f808080613a39565b8051801592508215613b45575b50505f613b21565b8192509060209181010312610015576020613b609101612986565b5f80613b3d565b506001600160a01b0383161515613a34565b506001600160a01b0384161515613a2e565b9293909360405192601382101561292e576001600160a01b038080927feb42cf637f927243245c50b4bf7fe105fe4f4d26209102240f2ba3d8e27a7df89560609588526020880152426040880152169616941692a4565b6001600160a01b037f9016d09d72d40fdae2fd8ceac6b6234c7706214fd39c1cd1e609a0528c19930054163303613c1557565b7f118cdaa7000000000000000000000000000000000000000000000000000000005f523360045260245ffd5b91612570613c5591613a1f612e9286613ef2565b9182151580613d48575b613c6857505050565b5f928380937fffffffff0000000000000000000000000000000000000000000000000000000060196020604051613ca0604082612076565b828152017f7472616e7366657228616464726573732c75696e74323536290000000000000081522016926001600160a01b036040519260208401958652166024830152604482015260448152613cf7606482612076565b51925af1613d036139db565b81613d11575b501561001557565b8051801592508215613d26575b50505f613d09565b8192509060209181010312610015576020613d419101612986565b5f80613d1e565b506001600160a01b0382161515613c5f565b613d65903090613d83565b808211613d70575090565b905090565b604d8111611c1e57600a0a90565b6001600160a01b03604051927f70a082310000000000000000000000000000000000000000000000000000000084521660048301526020826024816001600160a01b0385165afa918215611c13575f92613df4575b50612e97612e92613dee612106945f549061250d565b92613ef2565b91506020823d602011613e22575b81613e0f60209383612076565b8101031261001557905190612e97613dd8565b3d9150613e02565b805f52600560205260405f2054155f14613e95576004546801000000000000000081101561113257613e7e613e688260018594016004556004612b9b565b819391549060031b91821b915f19901b19161790565b9055600454905f52600560205260405f2055600190565b505f90565b5f828152600182016020526040902054613eec57805490680100000000000000008210156111325782613ed7613e68846001809601855584612b9b565b90558054925f520160205260405f2055600190565b50505f90565b60206001600160a01b03916004604051809481937f313ce567000000000000000000000000000000000000000000000000000000008352165afa8015611c13575f90613f41575b60ff91501690565b506020813d602011613f76575b81613f5b60209383612076565b81010312610015575160ff811681036100155760ff90613f39565b3d9150613f4e565b60ff7ff0c57e16840df040f15088dc2f81fe391c3923bec73e23a9662efc9c229c6a005460401c1615613fad57565b7fd7e6bcf8000000000000000000000000000000000000000000000000000000005f5260045ffdfea26469706673582212202395c40f720261bb61f8b1cc14a62896059c07ae6aa61ca2619d7b5f3ea1ae8164736f6c634300081c0033",
  "linkReferences": {},
  "deployedLinkReferences": {}
}