{
  "_format": "hh-sol-artifact-1",
  "contractName": "PoolAgent",
  "sourceName": "contracts/PoolAgent.sol",
  "abi": [
    {
      "inputs": [],
      "name": "InvalidInitialization",
      "type": "error"
    },
    {
      "inputs": [],
      "name": "NotInitializing",
      "type": "error"
    },
    {
      "inputs": [
        {
          "internalType": "address",
          "name": "owner",
          "type": "address"
        }
      ],
      "name": "OwnableInvalidOwner",
      "type": "error"
    },
    {
      "inputs": [
        {
          "internalType": "address",
          "name": "account",
          "type": "address"
        }
      ],
      "name": "OwnableUnauthorizedAccount",
      "type": "error"
    },
    {
      "anonymous": false,
      "inputs": [
        {
          "indexed": false,
          "internalType": "address",
          "name": "token",
          "type": "address"
        },
        {
          "indexed": false,
          "internalType": "address",
          "name": "holder",
          "type": "address"
        },
        {
          "indexed": false,
          "internalType": "string",
          "name": "name",
          "type": "string"
        },
        {
          "indexed": false,
          "internalType": "enum ICommon.Direct",
          "name": "direct",
          "type": "uint8"
        },
        {
          "indexed": false,
          "internalType": "uint256",
          "name": "value",
          "type": "uint256"
        },
        {
          "indexed": false,
          "internalType": "uint256",
          "name": "size",
          "type": "uint256"
        },
        {
          "indexed": false,
          "internalType": "uint256",
          "name": "margin",
          "type": "uint256"
        },
        {
          "indexed": false,
          "internalType": "uint256",
          "name": "freeze",
          "type": "uint256"
        }
      ],
      "name": "AccountPosition",
      "type": "event"
    },
    {
      "anonymous": false,
      "inputs": [
        {
          "indexed": true,
          "internalType": "address",
          "name": "maker",
          "type": "address"
        },
        {
          "indexed": true,
          "internalType": "address",
          "name": "token",
          "type": "address"
        },
        {
          "indexed": false,
          "internalType": "uint256",
          "name": "makerDealId",
          "type": "uint256"
        },
        {
          "indexed": false,
          "internalType": "uint256",
          "name": "amount",
          "type": "uint256"
        },
        {
          "indexed": false,
          "internalType": "uint256",
          "name": "margin",
          "type": "uint256"
        }
      ],
      "name": "AddMargin",
      "type": "event"
    },
    {
      "anonymous": false,
      "inputs": [
        {
          "indexed": false,
          "internalType": "address",
          "name": "token",
          "type": "address"
        },
        {
          "indexed": false,
          "internalType": "address",
          "name": "maker",
          "type": "address"
        },
        {
          "indexed": false,
          "internalType": "uint256",
          "name": "amount",
          "type": "uint256"
        },
        {
          "indexed": false,
          "internalType": "uint256",
          "name": "availableAmount",
          "type": "uint256"
        },
        {
          "indexed": false,
          "internalType": "uint256",
          "name": "lockedAmount",
          "type": "uint256"
        },
        {
          "indexed": false,
          "internalType": "uint256",
          "name": "maintenanceMargin",
          "type": "uint256"
        },
        {
          "indexed": false,
          "internalType": "uint256",
          "name": "share",
          "type": "uint256"
        },
        {
          "indexed": false,
          "internalType": "uint256",
          "name": "flag",
          "type": "uint256"
        }
      ],
      "name": "BalanceOfMaker",
      "type": "event"
    },
    {
      "anonymous": false,
      "inputs": [
        {
          "indexed": false,
          "internalType": "address",
          "name": "token",
          "type": "address"
        },
        {
          "indexed": false,
          "internalType": "address",
          "name": "taker",
          "type": "address"
        },
        {
          "indexed": false,
          "internalType": "uint256",
          "name": "amount",
          "type": "uint256"
        },
        {
          "indexed": false,
          "internalType": "uint256",
          "name": "availableAmount",
          "type": "uint256"
        },
        {
          "indexed": false,
          "internalType": "uint256",
          "name": "marginAmount",
          "type": "uint256"
        },
        {
          "indexed": false,
          "internalType": "uint256",
          "name": "locked",
          "type": "uint256"
        },
        {
          "indexed": false,
          "internalType": "uint256",
          "name": "stage",
          "type": "uint256"
        },
        {
          "indexed": false,
          "internalType": "uint256",
          "name": "dif",
          "type": "uint256"
        }
      ],
      "name": "BalanceOfTaker",
      "type": "event"
    },
    {
      "anonymous": false,
      "inputs": [
        {
          "indexed": false,
          "internalType": "uint256",
          "name": "dealID",
          "type": "uint256"
        },
        {
          "indexed": false,
          "internalType": "address",
          "name": "token",
          "type": "address"
        },
        {
          "indexed": false,
          "internalType": "address",
          "name": "maker",
          "type": "address"
        },
        {
          "indexed": false,
          "internalType": "enum ICommon.Direct",
          "name": "direct",
          "type": "uint8"
        },
        {
          "indexed": false,
          "internalType": "uint256",
          "name": "size",
          "type": "uint256"
        },
        {
          "indexed": false,
          "internalType": "uint256",
          "name": "price",
          "type": "uint256"
        },
        {
          "indexed": false,
          "internalType": "uint256",
          "name": "makerID",
          "type": "uint256"
        },
        {
          "indexed": false,
          "internalType": "uint256",
          "name": "makerGain",
          "type": "uint256"
        },
        {
          "indexed": false,
          "internalType": "uint256",
          "name": "makerLoss",
          "type": "uint256"
        },
        {
          "indexed": false,
          "internalType": "uint256",
          "name": "closeFlag",
          "type": "uint256"
        },
        {
          "indexed": false,
          "internalType": "uint256",
          "name": "closeType",
          "type": "uint256"
        }
      ],
      "name": "ClosedMakerDeal",
      "type": "event"
    },
    {
      "anonymous": false,
      "inputs": [
        {
          "indexed": false,
          "internalType": "string",
          "name": "name",
          "type": "string"
        },
        {
          "indexed": true,
          "internalType": "address",
          "name": "taker",
          "type": "address"
        },
        {
          "indexed": true,
          "internalType": "address",
          "name": "token",
          "type": "address"
        },
        {
          "indexed": false,
          "internalType": "uint256",
          "name": "orderID",
          "type": "uint256"
        },
        {
          "indexed": false,
          "internalType": "enum ICommon.Direct",
          "name": "direct",
          "type": "uint8"
        },
        {
          "indexed": false,
          "internalType": "enum IPerpetual.OrderState",
          "name": "state",
          "type": "uint8"
        },
        {
          "indexed": false,
          "internalType": "enum ICommon.Offset",
          "name": "offset",
          "type": "uint8"
        },
        {
          "indexed": false,
          "internalType": "uint256",
          "name": "amount",
          "type": "uint256"
        },
        {
          "indexed": false,
          "internalType": "uint256",
          "name": "targetPrice",
          "type": "uint256"
        },
        {
          "indexed": false,
          "internalType": "uint256",
          "name": "margin",
          "type": "uint256"
        },
        {
          "indexed": false,
          "internalType": "uint256",
          "name": "rewardGas",
          "type": "uint256"
        },
        {
          "indexed": false,
          "internalType": "uint256",
          "name": "tradingFee",
          "type": "uint256"
        },
        {
          "indexed": false,
          "internalType": "uint256",
          "name": "startTime",
          "type": "uint256"
        },
        {
          "indexed": false,
          "internalType": "uint256",
          "name": "orderType",
          "type": "uint256"
        }
      ],
      "name": "CreateLimitedOrder",
      "type": "event"
    },
    {
      "anonymous": false,
      "inputs": [
        {
          "indexed": false,
          "internalType": "uint256",
          "name": "limitOrderID",
          "type": "uint256"
        },
        {
          "indexed": false,
          "internalType": "uint256",
          "name": "openLimitPrice",
          "type": "uint256"
        },
        {
          "indexed": false,
          "internalType": "uint256",
          "name": "gainTriggerPrice",
          "type": "uint256"
        },
        {
          "indexed": false,
          "internalType": "uint256",
          "name": "gainLimitPrice",
          "type": "uint256"
        },
        {
          "indexed": false,
          "internalType": "uint256",
          "name": "lossTriggerPrice",
          "type": "uint256"
        },
        {
          "indexed": false,
          "internalType": "uint256",
          "name": "lossLimitPrice",
          "type": "uint256"
        }
      ],
      "name": "CreateTriggerCondition",
      "type": "event"
    },
    {
      "anonymous": false,
      "inputs": [
        {
          "indexed": false,
          "internalType": "uint256",
          "name": "code",
          "type": "uint256"
        },
        {
          "indexed": false,
          "internalType": "uint256",
          "name": "orderID",
          "type": "uint256"
        },
        {
          "indexed": false,
          "internalType": "string",
          "name": "message",
          "type": "string"
        }
      ],
      "name": "ErrorInfo",
      "type": "event"
    },
    {
      "anonymous": false,
      "inputs": [
        {
          "indexed": false,
          "internalType": "uint256",
          "name": "code",
          "type": "uint256"
        },
        {
          "indexed": false,
          "internalType": "uint256",
          "name": "orderID",
          "type": "uint256"
        },
        {
          "indexed": false,
          "internalType": "bytes",
          "name": "message",
          "type": "bytes"
        }
      ],
      "name": "ExceptErrorInfo",
      "type": "event"
    },
    {
      "anonymous": false,
      "inputs": [
        {
          "indexed": false,
          "internalType": "uint64",
          "name": "version",
          "type": "uint64"
        }
      ],
      "name": "Initialized",
      "type": "event"
    },
    {
      "anonymous": false,
      "inputs": [
        {
          "indexed": false,
          "internalType": "string",
          "name": "name",
          "type": "string"
        },
        {
          "indexed": true,
          "internalType": "address",
          "name": "taker",
          "type": "address"
        },
        {
          "indexed": true,
          "internalType": "address",
          "name": "token",
          "type": "address"
        },
        {
          "indexed": false,
          "internalType": "uint256",
          "name": "orderID",
          "type": "uint256"
        },
        {
          "indexed": false,
          "internalType": "enum ICommon.Direct",
          "name": "direct",
          "type": "uint8"
        },
        {
          "indexed": false,
          "internalType": "enum IPerpetual.OrderState",
          "name": "state",
          "type": "uint8"
        },
        {
          "indexed": false,
          "internalType": "enum ICommon.Offset",
          "name": "offset",
          "type": "uint8"
        },
        {
          "indexed": false,
          "internalType": "uint256",
          "name": "amount",
          "type": "uint256"
        },
        {
          "indexed": false,
          "internalType": "uint256",
          "name": "targetPrice",
          "type": "uint256"
        },
        {
          "indexed": false,
          "internalType": "uint256",
          "name": "margin",
          "type": "uint256"
        },
        {
          "indexed": false,
          "internalType": "uint256",
          "name": "rewardGas",
          "type": "uint256"
        },
        {
          "indexed": false,
          "internalType": "uint256",
          "name": "tradingFee",
          "type": "uint256"
        },
        {
          "indexed": false,
          "internalType": "uint256",
          "name": "startTime",
          "type": "uint256"
        },
        {
          "indexed": false,
          "internalType": "uint256",
          "name": "orderType",
          "type": "uint256"
        }
      ],
      "name": "LimitedOrderHistory",
      "type": "event"
    },
    {
      "anonymous": false,
      "inputs": [
        {
          "indexed": false,
          "internalType": "address",
          "name": "token",
          "type": "address"
        },
        {
          "indexed": false,
          "internalType": "address",
          "name": "taker",
          "type": "address"
        }
      ],
      "name": "LiquidateTaker",
      "type": "event"
    },
    {
      "anonymous": false,
      "inputs": [
        {
          "indexed": false,
          "internalType": "uint256",
          "name": "dealID",
          "type": "uint256"
        },
        {
          "indexed": false,
          "internalType": "address",
          "name": "token",
          "type": "address"
        },
        {
          "indexed": false,
          "internalType": "address",
          "name": "maker",
          "type": "address"
        },
        {
          "indexed": false,
          "internalType": "uint256",
          "name": "makerID",
          "type": "uint256"
        }
      ],
      "name": "LiquidatedMakerDeal",
      "type": "event"
    },
    {
      "anonymous": false,
      "inputs": [
        {
          "indexed": false,
          "internalType": "uint256",
          "name": "takerDealID",
          "type": "uint256"
        },
        {
          "indexed": false,
          "internalType": "address",
          "name": "token",
          "type": "address"
        },
        {
          "indexed": false,
          "internalType": "address",
          "name": "maker",
          "type": "address"
        },
        {
          "indexed": false,
          "internalType": "enum ICommon.Direct",
          "name": "direct",
          "type": "uint8"
        },
        {
          "indexed": false,
          "internalType": "uint256",
          "name": "size",
          "type": "uint256"
        },
        {
          "indexed": false,
          "internalType": "uint256",
          "name": "price",
          "type": "uint256"
        },
        {
          "indexed": false,
          "internalType": "uint256",
          "name": "makerDealID",
          "type": "uint256"
        },
        {
          "indexed": false,
          "internalType": "uint256",
          "name": "marginAmount",
          "type": "uint256"
        },
        {
          "indexed": false,
          "internalType": "uint256",
          "name": "maintenanceMargin",
          "type": "uint256"
        },
        {
          "indexed": false,
          "internalType": "uint256",
          "name": "flag",
          "type": "uint256"
        }
      ],
      "name": "LockPoolMargin",
      "type": "event"
    },
    {
      "anonymous": false,
      "inputs": [
        {
          "indexed": true,
          "internalType": "address",
          "name": "taker",
          "type": "address"
        },
        {
          "indexed": false,
          "internalType": "string",
          "name": "name",
          "type": "string"
        },
        {
          "indexed": false,
          "internalType": "address",
          "name": "token",
          "type": "address"
        },
        {
          "indexed": false,
          "internalType": "uint256",
          "name": "orderID",
          "type": "uint256"
        },
        {
          "indexed": false,
          "internalType": "enum ICommon.Direct",
          "name": "direction",
          "type": "uint8"
        },
        {
          "indexed": false,
          "internalType": "enum IPerpetual.OrderType",
          "name": "orderType",
          "type": "uint8"
        },
        {
          "indexed": false,
          "internalType": "uint256",
          "name": "amount",
          "type": "uint256"
        },
        {
          "indexed": false,
          "internalType": "uint256",
          "name": "costPrice",
          "type": "uint256"
        },
        {
          "indexed": false,
          "internalType": "uint256",
          "name": "price",
          "type": "uint256"
        },
        {
          "indexed": false,
          "internalType": "uint256",
          "name": "tradingFee",
          "type": "uint256"
        },
        {
          "indexed": false,
          "internalType": "uint256",
          "name": "leverage",
          "type": "uint256"
        },
        {
          "indexed": false,
          "internalType": "uint256",
          "name": "marginAmount",
          "type": "uint256"
        },
        {
          "indexed": false,
          "internalType": "uint256",
          "name": "limitOrderId",
          "type": "uint256"
        },
        {
          "indexed": false,
          "internalType": "uint256",
          "name": "timestamp",
          "type": "uint256"
        }
      ],
      "name": "OrderHistory",
      "type": "event"
    },
    {
      "anonymous": false,
      "inputs": [
        {
          "indexed": true,
          "internalType": "address",
          "name": "previousOwner",
          "type": "address"
        },
        {
          "indexed": true,
          "internalType": "address",
          "name": "newOwner",
          "type": "address"
        }
      ],
      "name": "OwnershipTransferred",
      "type": "event"
    },
    {
      "anonymous": false,
      "inputs": [
        {
          "indexed": true,
          "internalType": "address",
          "name": "account",
          "type": "address"
        },
        {
          "indexed": true,
          "internalType": "address",
          "name": "token",
          "type": "address"
        },
        {
          "indexed": false,
          "internalType": "uint256",
          "name": "amount",
          "type": "uint256"
        },
        {
          "indexed": false,
          "internalType": "uint256",
          "name": "share",
          "type": "uint256"
        },
        {
          "indexed": false,
          "internalType": "enum ICommon.PoolFlag",
          "name": "poolType",
          "type": "uint8"
        }
      ],
      "name": "Provide",
      "type": "event"
    },
    {
      "anonymous": false,
      "inputs": [
        {
          "indexed": false,
          "internalType": "address",
          "name": "token",
          "type": "address"
        },
        {
          "indexed": false,
          "internalType": "uint256",
          "name": "orderID",
          "type": "uint256"
        },
        {
          "indexed": false,
          "internalType": "uint256",
          "name": "dealID",
          "type": "uint256"
        },
        {
          "indexed": false,
          "internalType": "enum IPerpetual.TradeType",
          "name": "tradeType",
          "type": "uint8"
        },
        {
          "indexed": false,
          "internalType": "uint256",
          "name": "amount",
          "type": "uint256"
        },
        {
          "indexed": false,
          "internalType": "uint256",
          "name": "price",
          "type": "uint256"
        },
        {
          "indexed": false,
          "internalType": "uint256",
          "name": "tradingFee",
          "type": "uint256"
        },
        {
          "indexed": false,
          "internalType": "uint256",
          "name": "leverage",
          "type": "uint256"
        },
        {
          "indexed": false,
          "internalType": "uint256",
          "name": "marginAmount",
          "type": "uint256"
        },
        {
          "indexed": false,
          "internalType": "uint256",
          "name": "profit",
          "type": "uint256"
        },
        {
          "indexed": false,
          "internalType": "uint256",
          "name": "loss",
          "type": "uint256"
        },
        {
          "indexed": false,
          "internalType": "uint256",
          "name": "timestamp",
          "type": "uint256"
        }
      ],
      "name": "TradeHistory",
      "type": "event"
    },
    {
      "anonymous": false,
      "inputs": [
        {
          "indexed": true,
          "internalType": "address",
          "name": "token",
          "type": "address"
        },
        {
          "indexed": true,
          "internalType": "address",
          "name": "sender",
          "type": "address"
        },
        {
          "indexed": true,
          "internalType": "address",
          "name": "received",
          "type": "address"
        },
        {
          "indexed": false,
          "internalType": "enum ICommon.TransactionType",
          "name": "transactionType",
          "type": "uint8"
        },
        {
          "indexed": false,
          "internalType": "uint256",
          "name": "amount",
          "type": "uint256"
        },
        {
          "indexed": false,
          "internalType": "uint256",
          "name": "timestamp",
          "type": "uint256"
        }
      ],
      "name": "TransactionHistory",
      "type": "event"
    },
    {
      "anonymous": false,
      "inputs": [
        {
          "indexed": true,
          "internalType": "address",
          "name": "account",
          "type": "address"
        },
        {
          "indexed": true,
          "internalType": "address",
          "name": "token",
          "type": "address"
        },
        {
          "indexed": false,
          "internalType": "uint256",
          "name": "amount",
          "type": "uint256"
        },
        {
          "indexed": false,
          "internalType": "uint256",
          "name": "share",
          "type": "uint256"
        },
        {
          "indexed": false,
          "internalType": "enum ICommon.PoolFlag",
          "name": "poolType",
          "type": "uint8"
        }
      ],
      "name": "Withdraw",
      "type": "event"
    },
    {
      "anonymous": false,
      "inputs": [
        {
          "indexed": false,
          "internalType": "address",
          "name": "token",
          "type": "address"
        },
        {
          "indexed": false,
          "internalType": "address",
          "name": "sender",
          "type": "address"
        },
        {
          "indexed": false,
          "internalType": "string",
          "name": "name",
          "type": "string"
        },
        {
          "indexed": false,
          "internalType": "uint256",
          "name": "beforeLeverage",
          "type": "uint256"
        },
        {
          "indexed": false,
          "internalType": "uint256",
          "name": "afterLeverage",
          "type": "uint256"
        }
      ],
      "name": "setLeverage",
      "type": "event"
    },
    {
      "stateMutability": "nonpayable",
      "type": "fallback"
    },
    {
      "inputs": [
        {
          "internalType": "uint256",
          "name": "_dealID",
          "type": "uint256"
        },
        {
          "internalType": "uint256",
          "name": "_profit",
          "type": "uint256"
        }
      ],
      "name": "checkMarginRisk",
      "outputs": [
        {
          "internalType": "bool",
          "name": "isRisk",
          "type": "bool"
        }
      ],
      "stateMutability": "view",
      "type": "function"
    },
    {
      "inputs": [
        {
          "internalType": "uint256",
          "name": "_start",
          "type": "uint256"
        },
        {
          "internalType": "uint256",
          "name": "_end",
          "type": "uint256"
        },
        {
          "internalType": "uint256",
          "name": "_count",
          "type": "uint256"
        }
      ],
      "name": "getActiveDeals",
      "outputs": [
        {
          "components": [
            {
              "internalType": "string",
              "name": "name",
              "type": "string"
            },
            {
              "internalType": "address",
              "name": "token",
              "type": "address"
            },
            {
              "internalType": "address",
              "name": "makerAddr",
              "type": "address"
            },
            {
              "internalType": "uint256",
              "name": "takerId",
              "type": "uint256"
            },
            {
              "internalType": "uint256",
              "name": "size",
              "type": "uint256"
            },
            {
              "internalType": "uint256",
              "name": "price",
              "type": "uint256"
            },
            {
              "internalType": "enum ICommon.Direct",
              "name": "direct",
              "type": "uint8"
            },
            {
              "internalType": "enum ICommon.DealState",
              "name": "state",
              "type": "uint8"
            },
            {
              "internalType": "uint256",
              "name": "marginAmount",
              "type": "uint256"
            },
            {
              "internalType": "uint256",
              "name": "maintenanceMargin",
              "type": "uint256"
            },
            {
              "internalType": "uint256",
              "name": "time",
              "type": "uint256"
            }
          ],
          "internalType": "struct ICommon.MakerDeal[]",
          "name": "info",
          "type": "tuple[]"
        },
        {
          "internalType": "uint256[]",
          "name": "ids",
          "type": "uint256[]"
        },
        {
          "internalType": "uint256",
          "name": "end",
          "type": "uint256"
        }
      ],
      "stateMutability": "view",
      "type": "function"
    },
    {
      "inputs": [
        {
          "internalType": "address[]",
          "name": "_tokens",
          "type": "address[]"
        },
        {
          "internalType": "address",
          "name": "_maker",
          "type": "address"
        }
      ],
      "name": "getLP2Accounts",
      "outputs": [
        {
          "components": [
            {
              "internalType": "address payable",
              "name": "holder",
              "type": "address"
            },
            {
              "internalType": "uint256",
              "name": "amount",
              "type": "uint256"
            },
            {
              "internalType": "uint256",
              "name": "availableAmount",
              "type": "uint256"
            },
            {
              "internalType": "uint256",
              "name": "lockedAmount",
              "type": "uint256"
            },
            {
              "internalType": "uint256",
              "name": "maintenanceMargin",
              "type": "uint256"
            },
            {
              "internalType": "uint256",
              "name": "leverage",
              "type": "uint256"
            },
            {
              "internalType": "uint256",
              "name": "maintenanceMarginRate",
              "type": "uint256"
            },
            {
              "internalType": "uint256",
              "name": "addMarginRate",
              "type": "uint256"
            },
            {
              "internalType": "bool",
              "name": "autoAddMargin",
              "type": "bool"
            },
            {
              "internalType": "bool",
              "name": "isRejectOrder",
              "type": "bool"
            }
          ],
          "internalType": "struct ICommon.LP2Account[]",
          "name": "user",
          "type": "tuple[]"
        }
      ],
      "stateMutability": "view",
      "type": "function"
    },
    {
      "inputs": [
        {
          "internalType": "uint256[]",
          "name": "_ids",
          "type": "uint256[]"
        }
      ],
      "name": "getMakerDeals",
      "outputs": [
        {
          "components": [
            {
              "internalType": "string",
              "name": "name",
              "type": "string"
            },
            {
              "internalType": "address",
              "name": "token",
              "type": "address"
            },
            {
              "internalType": "address",
              "name": "makerAddr",
              "type": "address"
            },
            {
              "internalType": "uint256",
              "name": "takerId",
              "type": "uint256"
            },
            {
              "internalType": "uint256",
              "name": "size",
              "type": "uint256"
            },
            {
              "internalType": "uint256",
              "name": "price",
              "type": "uint256"
            },
            {
              "internalType": "enum ICommon.Direct",
              "name": "direct",
              "type": "uint8"
            },
            {
              "internalType": "enum ICommon.DealState",
              "name": "state",
              "type": "uint8"
            },
            {
              "internalType": "uint256",
              "name": "marginAmount",
              "type": "uint256"
            },
            {
              "internalType": "uint256",
              "name": "maintenanceMargin",
              "type": "uint256"
            },
            {
              "internalType": "uint256",
              "name": "time",
              "type": "uint256"
            }
          ],
          "internalType": "struct ICommon.MakerDeal[]",
          "name": "deals",
          "type": "tuple[]"
        }
      ],
      "stateMutability": "view",
      "type": "function"
    },
    {
      "inputs": [
        {
          "internalType": "address",
          "name": "_token",
          "type": "address"
        },
        {
          "internalType": "address",
          "name": "_makerAddr",
          "type": "address"
        },
        {
          "internalType": "uint256",
          "name": "_amount",
          "type": "uint256"
        },
        {
          "internalType": "uint256",
          "name": "_price",
          "type": "uint256"
        }
      ],
      "name": "getMatchingMaker",
      "outputs": [
        {
          "internalType": "address",
          "name": "addr",
          "type": "address"
        },
        {
          "internalType": "uint256",
          "name": "marginAmount",
          "type": "uint256"
        },
        {
          "internalType": "uint256",
          "name": "maintenanceMargin",
          "type": "uint256"
        }
      ],
      "stateMutability": "view",
      "type": "function"
    },
    {
      "inputs": [
        {
          "internalType": "address",
          "name": "_token",
          "type": "address"
        }
      ],
      "name": "getPoolAsset",
      "outputs": [
        {
          "components": [
            {
              "internalType": "uint256",
              "name": "privateAmount",
              "type": "uint256"
            },
            {
              "internalType": "uint256",
              "name": "privateMargin",
              "type": "uint256"
            },
            {
              "internalType": "uint256",
              "name": "publicAmount",
              "type": "uint256"
            },
            {
              "internalType": "uint256",
              "name": "publicMargin",
              "type": "uint256"
            },
            {
              "internalType": "uint256",
              "name": "share",
              "type": "uint256"
            }
          ],
          "internalType": "struct ICommon.PoolAsset",
          "name": "asset",
          "type": "tuple"
        }
      ],
      "stateMutability": "view",
      "type": "function"
    },
    {
      "inputs": [
        {
          "internalType": "address[]",
          "name": "_tokens",
          "type": "address[]"
        }
      ],
      "name": "getPoolAssets",
      "outputs": [
        {
          "components": [
            {
              "internalType": "uint256",
              "name": "privateAmount",
              "type": "uint256"
            },
            {
              "internalType": "uint256",
              "name": "privateMargin",
              "type": "uint256"
            },
            {
              "internalType": "uint256",
              "name": "publicAmount",
              "type": "uint256"
            },
            {
              "internalType": "uint256",
              "name": "publicMargin",
              "type": "uint256"
            },
            {
              "internalType": "uint256",
              "name": "share",
              "type": "uint256"
            }
          ],
          "internalType": "struct ICommon.PoolAsset[]",
          "name": "assets",
          "type": "tuple[]"
        }
      ],
      "stateMutability": "view",
      "type": "function"
    },
    {
      "inputs": [
        {
          "internalType": "address",
          "name": "token",
          "type": "address"
        },
        {
          "internalType": "string[]",
          "name": "_symbols",
          "type": "string[]"
        },
        {
          "internalType": "uint256[]",
          "name": "_prices",
          "type": "uint256[]"
        }
      ],
      "name": "getShareNetValue",
      "outputs": [
        {
          "components": [
            {
              "internalType": "uint256",
              "name": "totalAmount",
              "type": "uint256"
            },
            {
              "internalType": "uint256",
              "name": "availableAmount",
              "type": "uint256"
            },
            {
              "internalType": "uint256",
              "name": "totalShare",
              "type": "uint256"
            },
            {
              "internalType": "uint256",
              "name": "gain",
              "type": "uint256"
            },
            {
              "internalType": "uint256",
              "name": "loss",
              "type": "uint256"
            },
            {
              "internalType": "uint256",
              "name": "netValue",
              "type": "uint256"
            }
          ],
          "internalType": "struct ICommon.PoolShareValue",
          "name": "item",
          "type": "tuple"
        }
      ],
      "stateMutability": "view",
      "type": "function"
    },
    {
      "inputs": [
        {
          "internalType": "address[]",
          "name": "_tokens",
          "type": "address[]"
        },
        {
          "internalType": "string[]",
          "name": "_symbols",
          "type": "string[]"
        },
        {
          "internalType": "uint256[]",
          "name": "_prices",
          "type": "uint256[]"
        }
      ],
      "name": "getShareNetValues",
      "outputs": [
        {
          "components": [
            {
              "internalType": "uint256",
              "name": "totalAmount",
              "type": "uint256"
            },
            {
              "internalType": "uint256",
              "name": "availableAmount",
              "type": "uint256"
            },
            {
              "internalType": "uint256",
              "name": "totalShare",
              "type": "uint256"
            },
            {
              "internalType": "uint256",
              "name": "gain",
              "type": "uint256"
            },
            {
              "internalType": "uint256",
              "name": "loss",
              "type": "uint256"
            },
            {
              "internalType": "uint256",
              "name": "netValue",
              "type": "uint256"
            }
          ],
          "internalType": "struct ICommon.PoolShareValue[]",
          "name": "netValues",
          "type": "tuple[]"
        }
      ],
      "stateMutability": "view",
      "type": "function"
    },
    {
      "inputs": [
        {
          "internalType": "address[]",
          "name": "_tokens",
          "type": "address[]"
        },
        {
          "internalType": "address",
          "name": "_maker",
          "type": "address"
        }
      ],
      "name": "getUserShareAmounts",
      "outputs": [
        {
          "internalType": "uint256[]",
          "name": "shares",
          "type": "uint256[]"
        }
      ],
      "stateMutability": "view",
      "type": "function"
    },
    {
      "inputs": [
        {
          "internalType": "address",
          "name": "_priPool",
          "type": "address"
        },
        {
          "internalType": "address",
          "name": "_perpetual",
          "type": "address"
        }
      ],
      "name": "initialize",
      "outputs": [],
      "stateMutability": "nonpayable",
      "type": "function"
    },
    {
      "inputs": [
        {
          "internalType": "address",
          "name": "_token",
          "type": "address"
        },
        {
          "internalType": "string",
          "name": "_name",
          "type": "string"
        },
        {
          "internalType": "uint256",
          "name": "_id",
          "type": "uint256"
        },
        {
          "internalType": "uint256",
          "name": "_amount",
          "type": "uint256"
        },
        {
          "internalType": "uint256",
          "name": "_tradingFee",
          "type": "uint256"
        },
        {
          "internalType": "uint256",
          "name": "_price",
          "type": "uint256"
        },
        {
          "internalType": "enum ICommon.Direct",
          "name": "_direction",
          "type": "uint8"
        }
      ],
      "name": "matchOrder",
      "outputs": [
        {
          "internalType": "bool",
          "name": "success",
          "type": "bool"
        },
        {
          "internalType": "uint256",
          "name": "remaining",
          "type": "uint256"
        }
      ],
      "stateMutability": "nonpayable",
      "type": "function"
    },
    {
      "inputs": [],
      "name": "owner",
      "outputs": [
        {
          "internalType": "address",
          "name": "",
          "type": "address"
        }
      ],
      "stateMutability": "view",
      "type": "function"
    },
    {
      "inputs": [],
      "name": "renounceOwnership",
      "outputs": [],
      "stateMutability": "nonpayable",
      "type": "function"
    },
    {
      "inputs": [
        {
          "internalType": "address",
          "name": "_orderBook",
          "type": "address"
        },
        {
          "internalType": "address",
          "name": "_tradeAgent",
          "type": "address"
        },
        {
          "internalType": "address",
          "name": "_tradeStation",
          "type": "address"
        },
        {
          "internalType": "address",
          "name": "_keeper",
          "type": "address"
        }
      ],
      "name": "setKeepers",
      "outputs": [],
      "stateMutability": "nonpayable",
      "type": "function"
    },
    {
      "inputs": [
        {
          "internalType": "address",
          "name": "newOwner",
          "type": "address"
        }
      ],
      "name": "transferOwnership",
      "outputs": [],
      "stateMutability": "nonpayable",
      "type": "function"
    }
  ],
  "bytecode": "0x60808060405234601557612d51908161001a8239f35b5f80fdfe60806040526004361015610019575b3461001557005b5f80fd5b5f3560e01c8063069d0254146101185780630e2180141461011357806325737d401461010e578063485cc9551461010957806370bcbca214610104578063715018a6146100ff5780637721625f146100fa57806381a4f173146100f55780638da5cb5b146100f0578063ac981092146100eb578063d112d0e9146100e6578063d3c76d66146100e1578063d5c3df39146100dc578063e771ad72146100d7578063f2fde38b146100d25763f518b0c50361000e576113a3565b611376565b6111ca565b6110df565b61100d565b610f9a565b610eb4565b610e04565b610cab565b610b79565b610a60565b6109b6565b610696565b610610565b61035d565b61012e565b6001600160a01b0381160361001557565b346100155760206003193601126100155760a06101556004356101508161011d565b61153f565b61018a604051809260808091805184526020810151602085015260408101516040850152606081015160608501520151910152565bf35b634e487b7160e01b5f52604160045260245ffd5b90601f601f19910116810190811067ffffffffffffffff8211176101c357604052565b61018c565b604051906101d8610160836101a0565b565b604051906101d8610140836101a0565b67ffffffffffffffff81116101c35760051b60200190565b9080601f83011215610015578135610219816101ea565b9261022760405194856101a0565b81845260208085019260051b82010192831161001557602001905b82821061024f5750505090565b60208091833561025e8161011d565b815201910190610242565b6040600319820112610015576004359067ffffffffffffffff82116100155761029491600401610202565b906024356102a18161011d565b90565b60206040818301928281528451809452019201905f5b8181106102c75750505090565b909192602061014060019261035261012088516102ed8482516001600160a01b03169052565b858101518685015260408101516040850152606081015160608501526080810151608085015260a081015160a085015260c081015160c085015260e081015160e085015261034661010082015161010086019015159052565b01511515610120830152565b0194019291016102ba565b346100155761036b36610269565b8151908115610427575b61037e826101ea565b9261038c60405194856101a0565b828452601f1961039b846101ea565b015f5b818110610410575050826103bf575b604051806103bb86826102a4565b0390f35b5f5b8381106103ce57506103ad565b806103f4846103ef6103e260019587611710565b516001600160a01b031690565b612301565b6103fe8288611710565b526104098187611710565b50016103c1565b60209061041b6116b4565b8282890101520161039e565b9150506104326125ef565b90815190610375565b9080601f83011215610015578135610452816101ea565b9261046060405194856101a0565b81845260208085019260051b82010192831161001557602001905b8282106104885750505090565b813581526020918201910161047b565b90601f19601f602080948051918291828752018686015e5f8582860101520116010190565b634e487b7160e01b5f52602160045260245ffd5b600311156104db57565b6104bd565b9060038210156104db5752565b600611156104db57565b9060068210156104db5752565b906101408061051e84516101608552610160850190610498565b6020808601516001600160a01b031690850152936040818101516001600160a01b031690850152606081015160608501526080810151608085015260a081015160a085015261057560c082015160c08601906104e0565b61058760e082015160e08601906104f7565b610100810151610100850152610120810151610120850152015191015290565b9080602083519182815201916020808360051b8301019401925f915b8383106105d257505050505090565b90919293946020806105f083601f1986600196030187528951610504565b970193019301919392906105c3565b9060206102a19281815201906105a7565b346100155760206003193601126100155760043567ffffffffffffffff81116100155761064190369060040161043b565b805161064c8161179c565b915f5b82811061066457604051806103bb86826105ff565b8061067a61067460019385611710565b5161266f565b6106848287611710565b5261068f8186611710565b500161064f565b34610015576040600319360112610015576004356106b38161011d565b602435906106c08261011d565b7ff0c57e16840df040f15088dc2f81fe391c3923bec73e23a9662efc9c229c6a00549167ffffffffffffffff61070660ff604086901c16159467ffffffffffffffff1690565b16801590816108cd575b60011490816108c3575b1590816108ba575b50610892576107a3918361079a60017fffffffffffffffffffffffffffffffffffffffffffffffff00000000000000007ff0c57e16840df040f15088dc2f81fe391c3923bec73e23a9662efc9c229c6a005416177ff0c57e16840df040f15088dc2f81fe391c3923bec73e23a9662efc9c229c6a0055565b61082d576117ea565b6107a957005b6107fe68ff0000000000000000197ff0c57e16840df040f15088dc2f81fe391c3923bec73e23a9662efc9c229c6a0054167ff0c57e16840df040f15088dc2f81fe391c3923bec73e23a9662efc9c229c6a0055565b604051600181527fc7f505b2f371ae2175ee4913f4499e1f2633a7b5936321eed1cdaeb6115181d290602090a1005b61088d6801000000000000000068ff0000000000000000197ff0c57e16840df040f15088dc2f81fe391c3923bec73e23a9662efc9c229c6a005416177ff0c57e16840df040f15088dc2f81fe391c3923bec73e23a9662efc9c229c6a0055565b6117ea565b7ff92ee8a9000000000000000000000000000000000000000000000000000000005f5260045ffd5b9050155f610722565b303b15915061071a565b849150610710565b67ffffffffffffffff81116101c357601f01601f191660200190565b81601f8201121561001557803590610908826108d5565b9261091660405194856101a0565b8284526020838301011161001557815f926020809301838601378301015290565b9080601f8301121561001557813561094e816101ea565b9261095c60405194856101a0565b81845260208085019260051b820101918383116100155760208201905b83821061098857505050505090565b813567ffffffffffffffff8111610015576020916109ab878480948801016108f1565b815201910190610979565b34610015576060600319360112610015576004356109d38161011d565b60243567ffffffffffffffff8111610015576109f3903690600401610937565b906044359067ffffffffffffffff82116100155760c092610a1b610a2193369060040161043b565b91611a5c565b61018a604051809260a0809180518452602081015160208501526040810151604085015260608101516060850152608081015160808501520151910152565b34610015575f60031936011261001557610a786128ec565b5f6001600160a01b037f9016d09d72d40fdae2fd8ceac6b6234c7706214fd39c1cd1e609a0528c1993005473ffffffffffffffffffffffffffffffffffffffff1981167f9016d09d72d40fdae2fd8ceac6b6234c7706214fd39c1cd1e609a0528c19930055167f8be0079c531659141344cd1fd0a4f28419497f9722a3daafe3b4186f6b6457e08280a3005b60206040818301928281528451809452019201905f5b818110610b275750505090565b909192602060c082610b6e600194885160a0809180518452602081015160208501526040810151604085015260608101516060850152608081015160808501520151910152565b019401929101610b1a565b346100155760606003193601126100155760043567ffffffffffffffff811161001557610baa903690600401610202565b60243567ffffffffffffffff811161001557610bca903690600401610937565b60443567ffffffffffffffff811161001557610bea90369060040161043b565b8251918215610c96575b610bfd836101ea565b93610c0b60405195866101a0565b838552601f19610c1a856101ea565b015f5b818110610c7f57505083610c3a575b604051806103bb8782610b04565b5f5b848110610c495750610c2c565b80610c638585610c5e6103e260019688611710565b611a5c565b610c6d8289611710565b52610c788188611710565b5001610c3c565b602090610c8a6118ad565b82828a01015201610c1d565b91509150610ca26125ef565b91825191610bf4565b3461001557608060031936011261001557610e026001600160a01b03600435610cd38161011d565b610dd8602435610ce28161011d565b610daf60443593610cf28561011d565b610d88610d64878060643594610d078661011d565b610d0f6128ec565b1695865f52600560205260405f20600160ff198254161790551692835f526005602052610d4660405f20600160ff19825416179055565b610d71610d64896001600160a01b03165f52600560205260405f2090565b600160ff19825416179055565b6001600160a01b03165f52600560205260405f2090565b6001600160a01b031673ffffffffffffffffffffffffffffffffffffffff195f5416175f55565b6001600160a01b031673ffffffffffffffffffffffffffffffffffffffff196003541617600355565b166001600160a01b031673ffffffffffffffffffffffffffffffffffffffff196004541617600455565b005b34610015575f6003193601126100155760206001600160a01b037f9016d09d72d40fdae2fd8ceac6b6234c7706214fd39c1cd1e609a0528c1993005416604051908152f35b60206040818301928281528451809452019201905f5b818110610e6c5750505090565b909192602060a082610ea9600194885160808091805184526020810151602085015260408101516040850152606081015160608501520151910152565b019401929101610e5f565b346100155760206003193601126100155760043567ffffffffffffffff811161001557610ee5903690600401610202565b80518015610f89575b610ef7816101ea565b91610f0560405193846101a0565b818352601f19610f14836101ea565b015f5b818110610f7257505081610f34575b604051806103bb8582610e49565b5f5b828110610f435750610f26565b80610f566101506103e260019486611710565b610f608287611710565b52610f6b8186611710565b5001610f36565b602090610f7d611435565b82828801015201610f17565b5050610f936125ef565b8051610eee565b3461001557608060031936011261001557610feb600435610fba8161011d565b602435610fc68161011d565b6044359060643592335f526005602052610fe660ff60405f205416611db6565b611e27565b604080516001600160a01b039094168452602084019290925290820152606090f35b346100155760406003193601126100155760043560243560206001600160a01b0360015416926024604051809581937f36ff6a7000000000000000000000000000000000000000000000000000000000835260048301525afa9182156110d05761108d6110886103bb94610100935f916110a1575b50611524565b61266f565b015160405191101581529081906020820190565b6110c3915060203d6020116110c9575b6110bb81836101a0565b810190611494565b5f611082565b503d6110b1565b611489565b6003111561001557565b346100155760e0600319360112610015576004356110fc8161011d565b6024359067ffffffffffffffff8211610015576111206111559236906004016108f1565b6044356064359060a4359260c43594611138866110d5565b335f52600560205261115060ff60405f205416611db6565b611f82565b604080519215158352602083019190915290f35b90602080835192838152019201905f5b8181106111865750505090565b8251845260209384019390920191600101611179565b9392916111c5906111b76040936060885260608801906105a7565b908682036020880152611169565b930152565b3461001557606060031936011261001557600435602435604435600482938093602061120d6112016001546001600160a01b031690565b6001600160a01b031690565b604051948580927ff2da708d0000000000000000000000000000000000000000000000000000000082525afa9283156110d0575f93611355575b50821061134b575b8110611343575b505f9291926112648261179c565b9161126e816121e2565b945b8481108061133a575b15611314576112878161266f565b60e0810160018151611298816104ed565b6112a1816104ed565b149081156112f6575b506112bf575b506112ba90612213565b611270565b836112ef91836112d36112ba95978b611710565b526112de8288611710565b526112e98187611710565b50612213565b92906112b0565b6002915051611304816104ed565b61130d816104ed565b145f6112aa565b8593926103bb92810361132f575b506040519384938461119c565b808452845284611322565b50818310611279565b91505f611256565b909350839061124f565b61136f91935060203d6020116110c9576110bb81836101a0565b915f611247565b3461001557602060031936011261001557610e026004356113968161011d565b61139e6128ec565b612221565b34610015576113b136610269565b8151908115611421575b6113c4826121e2565b92826113e1575b604051602080825281906103bb90820187611169565b5f5b8381106113f057506113cb565b80611410846001600160a01b0361140960019587611710565b511661250c565b61141a8288611710565b52016113e3565b91505061142c6125ef565b908151906113bb565b6040519060a0820182811067ffffffffffffffff8211176101c3576040525f6080838281528260208201528260408201528260608201520152565b90816020910312610015575160ff811681036100155790565b6040513d5f823e3d90fd5b90816020910312610015575190565b634e487b7160e01b5f52601160045260245ffd5b90670de0b6b3a7640000820291808304670de0b6b3a764000014901517156114db57565b6114a3565b818102929181159184041417156114db57565b604d81116114db57600a0a90565b634e487b7160e01b5f52601260045260245ffd5b811561151f570490565b611501565b5f198101919082116114db57565b919082039182116114db57565b611547611435565b906001600160a01b038116604051917f313ce567000000000000000000000000000000000000000000000000000000008352602083600481855afa9283156110d0575f93611683575b506115a66112016001546001600160a01b031690565b6040517f70a082310000000000000000000000000000000000000000000000000000000081526001600160a01b03821660048201529092602090829060249082905afa80156110d05761165c9461161760ff61161061161d94611647965f91611664575b506114b7565b92166114f3565b90611515565b60206116298585612301565b01516040870190815261163b84612439565b60608801525190611532565b8452611652816124af565b602085015261250c565b608082015290565b61167d915060203d6020116110c9576110bb81836101a0565b5f61160a565b6116a691935060203d6020116116ad575b61169e81836101a0565b810190611470565b915f611590565b503d611694565b60405190610140820182811067ffffffffffffffff8211176101c3576040525f610120838281528260208201528260408201528260608201528260808201528260a08201528260c08201528260e0820152826101008201520152565b80518210156117245760209160051b010190565b634e487b7160e01b5f52603260045260245ffd5b60405190610160820182811067ffffffffffffffff8211176101c3576040525f61014083606081528260208201528260408201528260608201528260808201528260a08201528260c08201528260e082015282610100820152826101208201520152565b906117a6826101ea565b6117b360405191826101a0565b828152601f196117c382946101ea565b01905f5b8281106117d357505050565b6020906117de611738565b828285010152016117c7565b6101d891610d71610d64610d6493611800612cc4565b611808612cc4565b61181133612221565b305f52600560205260405f20600160ff19825416179055335f52600560205261184460405f20600160ff19825416179055565b6001600160a01b03811673ffffffffffffffffffffffffffffffffffffffff1960015416176001556001600160a01b038085161673ffffffffffffffffffffffffffffffffffffffff1960025416176002556001600160a01b03165f52600560205260405f2090565b6040519060c0820182811067ffffffffffffffff8211176101c3576040525f60a0838281528260208201528260408201528260608201528260808201520152565b81601f8201121561001557805190611905826108d5565b9261191360405194856101a0565b8284526020838301011161001557815f9260208093018386015e8301015290565b6020818303126100155780519067ffffffffffffffff821161001557019080601f83011215610015578151611968816101ea565b9261197660405194856101a0565b81845260208085019260051b820101918383116100155760208201905b8382106119a257505050505090565b815167ffffffffffffffff8111610015576020916119c5878480948801016118ee565b815201910190611993565b805191908290602001825e015f815290565b604051906040820182811067ffffffffffffffff8211176101c3576040525f6020838281520152565b919082018092116114db57565b606460405162461bcd60e51b815260206004820152601e60248201527f7075626c696320706f6c6c2073686f756c64206265206465746f6e61746500006044820152fd5b919091611a676118ad565b90611a718161153f565b90608082015191826040850152670de0b6b3a764000060a085015260408101928351908186528451602087015215908115611dad575b50611da4576060019384511580611d97575b611d84576004965f611ad66112016002546001600160a01b031690565b604051998a80927fcd2ce4ae0000000000000000000000000000000000000000000000000000000082525afa9788156110d0575f98611d60575b50906060859798949501945f865260808801945f86525f975b8151891015611cc357611b3c8983611710565b51945f9a5f5b8d51811015611ca457611b55818f611710565b51604051611b7981611b6b6020820180956119d0565b03601f1981018352826101a0565b51902088604051611b9281611b6b6020820180956119d0565b51902014611ba257600101611b42565b889195949d9c50611bf48b8b611c2f6001979f969a9b611bc5611c39968e611710565b519384935b611c02611bf4611be285611bdc6119e2565b9c6127cd565b60208d9992990198818a528d526114e0565b670de0b6b3a7640000900490565b8951909190808310611c8b575050611c1e611c26918351611a0b565b895190611532565b90525b8d612874565b80925285526114e0565b9081815110155f14611c6e5790611c57611c5c928c51905190611a0b565b611532565b89525b01979990919899939293611b29565b611c7c611c84928b51611a0b565b905190611532565b8852611c5f565b819350611c5790611c9d939251611a0b565b9052611c29565b5093929b9a611c39611bf4828a93611c2f6001979f969a9b8f8f611bca565b93995050925050611d0493929450845190518091115f14611d4b57508351815110611d4057611cf58151855190611532565b60208601525b51905190611a0b565b80835281511015611d3b57611d28611d23611d33928451905190611532565b6114b7565b604083015190611515565b60a082015290565b611a18565b5f6020860152611cfb565b611d56908251611532565b6020860152611cfb565b611d7d9198503d805f833e611d7581836101a0565b810190611934565b965f611b10565b505050915050611d33611d2882516114b7565b5060408401511515611ab9565b50505091505090565b9050155f611aa7565b15611dbd57565b606460405162461bcd60e51b815260206004820152601f60248201527f63616c6c6572206973206e6f7420706f6f6c206167656e74206b6565706572006044820152fd5b90611e20939291335f526005602052610fe660ff60405f205416611db6565b9192909190565b81611e3491949394612301565b91611e43610120840151151590565b611f7657611e5c6112016001546001600160a01b031690565b936040517f2c86d98e000000000000000000000000000000000000000000000000000000008152602081600481895afa9182156110d057600493602093611ec4935f91611f59575b509160a088015180611f4f575b50611ebf91611bf4916114e0565b611515565b94604051928380927f89f00b6d0000000000000000000000000000000000000000000000000000000082525afa80156110d057611bf4611f0f916040935f91611f30575b50866114e0565b920151611f1c8385611a0b565b1115611f2d575050505f905f905f90565b92565b611f49915060203d6020116110c9576110bb81836101a0565b5f611f08565b9250611ebf611eb1565b611f709150853d87116110c9576110bb81836101a0565b5f611ea4565b505050505f905f905f90565b91929594939093611f948288856129b8565b93919590966001600160a01b03871680155f14611fb9575050505050505050505f9190565b8495969798999a939450600295611fdb6112016001546001600160a01b031690565b916001600160a01b038316146121d9575b611ff5816104d1565b600181036121b4575060206120a15f926002945b6120116101c8565b9081526001600160a01b038c16848201526001600160a01b038d1660408201528660608201528760808201528860a08201526120508660c08301612c51565b600160e08201528d6101008201528a610120820152426101408201526040519485809481937f249a6ee700000000000000000000000000000000000000000000000000000000835260048301612c5d565b03925af19687156110d0577f55a05fded01868e623bc311ab3e73d3cec2f0871392b36317648452d989ed1ce9a612189987f2c37a9956018f0a52fe734b1e1b43a0c291a1ca976448780e2105afc28c38d98978b97612111968e8c975f95612193575b506040519a8b9a8b612c6e565b0390a161211e8484612301565b602081015190604081015190608060608201519101519161213f888861250c565b93604051988998899491926001600160a01b0360e097949a999895929a8161010089019c16885216602087015260408601526060850152608084015260a083015260c08201520152565b0390a16001905f90565b6121ad91955060203d6020116110c9576110bb81836101a0565b935f612104565b806121c06002926104d1565b036121d45760206120a15f92600194612009565b612c0d565b60019650611fec565b906121ec826101ea565b6121f960405191826101a0565b828152601f1961220982946101ea565b0190602036910137565b5f1981146114db5760010190565b6001600160a01b031680156122bd576001600160a01b037f9016d09d72d40fdae2fd8ceac6b6234c7706214fd39c1cd1e609a0528c199300548273ffffffffffffffffffffffffffffffffffffffff198216177f9016d09d72d40fdae2fd8ceac6b6234c7706214fd39c1cd1e609a0528c19930055167f8be0079c531659141344cd1fd0a4f28419497f9722a3daafe3b4186f6b6457e05f80a3565b7f1e4fbdf7000000000000000000000000000000000000000000000000000000005f525f60045260245ffd5b51906101d88261011d565b5190811515820361001557565b61236c91610140916123116116b4565b506001600160a01b0360015416906040518095819482937f859d90a3000000000000000000000000000000000000000000000000000000008452600484019092916001600160a01b0360209181604085019616845216910152565b03915afa9081156110d0575f91612381575090565b9050610140813d8211612427575b8161239d61014093836101a0565b810103126100155761241e6101206123b36101da565b926123bd816122e9565b84526020810151602085015260408101516040850152606081015160608501526080810151608085015260a081015160a085015260c081015160c085015260e081015160e085015261241261010082016122f4565b610100850152016122f4565b61012082015290565b3d915061238f565b600411156104db57565b60206001600160a01b036044600154938260405195869485937f9409b02900000000000000000000000000000000000000000000000000000000855216600484015260016024840152165afa9081156110d0575f91612496575090565b6102a1915060203d6020116110c9576110bb81836101a0565b60206001600160a01b036044600154938260405195869485937f9409b02900000000000000000000000000000000000000000000000000000000855216600484015260026024840152165afa9081156110d0575f91612496575090565b6001546040517fd74960600000000000000000000000000000000000000000000000000000000081526001600160a01b039283166004820152928216602484015260209183916044918391165afa9081156110d0575f91612496575090565b6020818303126100155780519067ffffffffffffffff821161001557019080601f8301121561001557815161259f816101ea565b926125ad60405194856101a0565b81845260208085019260051b82010192831161001557602001905b8282106125d55750505090565b6020809183516125e48161011d565b8152019101906125c8565b60045f6001600160a01b0360015416604051928380927f273cbaa00000000000000000000000000000000000000000000000000000000082525afa9081156110d0575f9161263b575090565b6102a191503d805f833e61264f81836101a0565b81019061256b565b51906101d8826110d5565b5190600682101561001557565b612677611738565b505f6001600160a01b0360015416916024604051809481937f60d32e8d00000000000000000000000000000000000000000000000000000000835260048301525afa9081156110d0575f916126ca575090565b90503d805f833e6126db81836101a0565b8101906020818303126100155780519067ffffffffffffffff8211610015570190610160828203126100155761270f6101c8565b91805167ffffffffffffffff811161001557610140926127309183016118ee565b835261273e602082016122e9565b602084015261274f604082016122e9565b6040840152606081015160608401526080810151608084015260a081015160a084015261277e60c08201612657565b60c084015261278f60e08201612662565b60e0840152610100810151610100840152610120810151610120840152015161014082015290565b9190826040910312610015576020825192015190565b61282692916040916001600160a01b038060015416918451968794859384937f0c8c3516000000000000000000000000000000000000000000000000000000008552166004840152606060248401526064830190610498565b5f604483015203915afa9182156110d0575f905f9361284457509190565b905061286991925060403d60401161286d575b61286181836101a0565b8101906127b7565b9091565b503d612857565b6128cd92916040916001600160a01b038060015416918451968794859384937f0c8c3516000000000000000000000000000000000000000000000000000000008552166004840152606060248401526064830190610498565b6001604483015203915afa9182156110d0575f905f9361284457509190565b6001600160a01b037f9016d09d72d40fdae2fd8ceac6b6234c7706214fd39c1cd1e609a0528c1993005416330361291f57565b7f118cdaa7000000000000000000000000000000000000000000000000000000005f523360045260245ffd5b90816020910312610015575160048110156100155790565b1561296a57565b606460405162461bcd60e51b815260206004820152601560248201527f706f6f6c207374617475732069732072656675736500000000000000000000006044820152fd5b811561151f570690565b91906129cf6112016001546001600160a01b031690565b6040517fc0a148310000000000000000000000000000000000000000000000000000000081526001600160a01b0385166004820152602081602481855afa9081156110d0575f91612bde575b50612a258161242f565b612a326003821415612963565b6040517f5baf45fb0000000000000000000000000000000000000000000000000000000081526001600160a01b0386166004820152905f82602481865afa9182156110d0575f92612bc2575b50815191612a8b8261242f565b811592839184159485612baf575b80612ba6575b612ae3575b5050612aaf8261242f565b91612acf575b50612ac657505050505f905f905f90565b611e2093611e01565b60019150612adc8161242f565b145f612ab5565b612b3d826040516020810190612b3581611b6b42414487917fffffffffffffffffffffffffffffffffffffffff0000000000000000000000009060549492845260601b16602083015260348201520190565b5190206129ae565b915f5b818110612b4e575050612aa4565b612b798a8a8d612b736103e2612b6d88612b68898d611a0b565b6129ae565b89611710565b90611e01565b90916001600160a01b038116612b9457505050600101612b40565b9d919c509a5098505050505050505050565b50811515612a9f565b50612bb98461242f565b60028414612a99565b612bd79192503d805f833e61264f81836101a0565b905f612a7e565b612c00915060203d602011612c06575b612bf881836101a0565b81019061294b565b5f612a1b565b503d612bee565b606460405162461bcd60e51b815260206004820152601260248201527f77726f6e67206d616b65722064697265637400000000000000000000000000006044820152fd5b60038210156104db5752565b9060206102a1928181520190610504565b96936001600160a01b03612ca6929c9b9a9794816101209b98956101408c019f8c521660208b015216604089015260608801906104e0565b608086015260a085015260c084015260e08301526101008201520152565b60ff7ff0c57e16840df040f15088dc2f81fe391c3923bec73e23a9662efc9c229c6a005460401c1615612cf357565b7fd7e6bcf8000000000000000000000000000000000000000000000000000000005f5260045ffdfea2646970667358221220551e373455cbb30baf16871932fade6d206e451a939167af925a5e2187d3314d64736f6c634300081c0033",
  "linkReferences": {},
  "deployedLinkReferences": {}
}