{
  "_format": "hh-sol-artifact-1",
  "contractName": "PoolAgent",
  "sourceName": "contracts/PoolAgent.sol",
  "abi": [
    {
      "inputs": [],
      "name": "InvalidInitialization",
      "type": "error"
    },
    {
      "inputs": [],
      "name": "NotInitializing",
      "type": "error"
    },
    {
      "inputs": [
        {
          "internalType": "address",
          "name": "owner",
          "type": "address"
        }
      ],
      "name": "OwnableInvalidOwner",
      "type": "error"
    },
    {
      "inputs": [
        {
          "internalType": "address",
          "name": "account",
          "type": "address"
        }
      ],
      "name": "OwnableUnauthorizedAccount",
      "type": "error"
    },
    {
      "anonymous": false,
      "inputs": [
        {
          "indexed": false,
          "internalType": "address",
          "name": "token",
          "type": "address"
        },
        {
          "indexed": false,
          "internalType": "address",
          "name": "holder",
          "type": "address"
        },
        {
          "indexed": false,
          "internalType": "string",
          "name": "name",
          "type": "string"
        },
        {
          "indexed": false,
          "internalType": "enum ICommon.Direct",
          "name": "direct",
          "type": "uint8"
        },
        {
          "indexed": false,
          "internalType": "uint256",
          "name": "value",
          "type": "uint256"
        },
        {
          "indexed": false,
          "internalType": "uint256",
          "name": "size",
          "type": "uint256"
        },
        {
          "indexed": false,
          "internalType": "uint256",
          "name": "margin",
          "type": "uint256"
        },
        {
          "indexed": false,
          "internalType": "uint256",
          "name": "freeze",
          "type": "uint256"
        }
      ],
      "name": "AccountPosition",
      "type": "event"
    },
    {
      "anonymous": false,
      "inputs": [
        {
          "indexed": true,
          "internalType": "address",
          "name": "maker",
          "type": "address"
        },
        {
          "indexed": true,
          "internalType": "address",
          "name": "token",
          "type": "address"
        },
        {
          "indexed": false,
          "internalType": "uint256",
          "name": "makerDealId",
          "type": "uint256"
        },
        {
          "indexed": false,
          "internalType": "uint256",
          "name": "amount",
          "type": "uint256"
        },
        {
          "indexed": false,
          "internalType": "uint256",
          "name": "margin",
          "type": "uint256"
        }
      ],
      "name": "AddMargin",
      "type": "event"
    },
    {
      "anonymous": false,
      "inputs": [
        {
          "indexed": false,
          "internalType": "address",
          "name": "token",
          "type": "address"
        },
        {
          "indexed": false,
          "internalType": "address",
          "name": "maker",
          "type": "address"
        },
        {
          "indexed": false,
          "internalType": "uint256",
          "name": "amount",
          "type": "uint256"
        },
        {
          "indexed": false,
          "internalType": "uint256",
          "name": "availableAmount",
          "type": "uint256"
        },
        {
          "indexed": false,
          "internalType": "uint256",
          "name": "lockedAmount",
          "type": "uint256"
        },
        {
          "indexed": false,
          "internalType": "uint256",
          "name": "maintenanceMargin",
          "type": "uint256"
        },
        {
          "indexed": false,
          "internalType": "uint256",
          "name": "share",
          "type": "uint256"
        },
        {
          "indexed": false,
          "internalType": "uint256",
          "name": "flag",
          "type": "uint256"
        }
      ],
      "name": "BalanceOfMaker",
      "type": "event"
    },
    {
      "anonymous": false,
      "inputs": [
        {
          "indexed": false,
          "internalType": "address",
          "name": "token",
          "type": "address"
        },
        {
          "indexed": false,
          "internalType": "address",
          "name": "taker",
          "type": "address"
        },
        {
          "indexed": false,
          "internalType": "uint256",
          "name": "amount",
          "type": "uint256"
        },
        {
          "indexed": false,
          "internalType": "uint256",
          "name": "availableAmount",
          "type": "uint256"
        },
        {
          "indexed": false,
          "internalType": "uint256",
          "name": "marginAmount",
          "type": "uint256"
        },
        {
          "indexed": false,
          "internalType": "uint256",
          "name": "locked",
          "type": "uint256"
        },
        {
          "indexed": false,
          "internalType": "uint256",
          "name": "stage",
          "type": "uint256"
        },
        {
          "indexed": false,
          "internalType": "uint256",
          "name": "dif",
          "type": "uint256"
        }
      ],
      "name": "BalanceOfTaker",
      "type": "event"
    },
    {
      "anonymous": false,
      "inputs": [
        {
          "indexed": false,
          "internalType": "uint256",
          "name": "dealID",
          "type": "uint256"
        },
        {
          "indexed": false,
          "internalType": "address",
          "name": "token",
          "type": "address"
        },
        {
          "indexed": false,
          "internalType": "address",
          "name": "maker",
          "type": "address"
        },
        {
          "indexed": false,
          "internalType": "enum ICommon.Direct",
          "name": "direct",
          "type": "uint8"
        },
        {
          "indexed": false,
          "internalType": "uint256",
          "name": "size",
          "type": "uint256"
        },
        {
          "indexed": false,
          "internalType": "uint256",
          "name": "price",
          "type": "uint256"
        },
        {
          "indexed": false,
          "internalType": "uint256",
          "name": "makerID",
          "type": "uint256"
        },
        {
          "indexed": false,
          "internalType": "uint256",
          "name": "makerGain",
          "type": "uint256"
        },
        {
          "indexed": false,
          "internalType": "uint256",
          "name": "makerLoss",
          "type": "uint256"
        },
        {
          "indexed": false,
          "internalType": "uint256",
          "name": "closeFlag",
          "type": "uint256"
        },
        {
          "indexed": false,
          "internalType": "uint256",
          "name": "closeType",
          "type": "uint256"
        }
      ],
      "name": "ClosedMakerDeal",
      "type": "event"
    },
    {
      "anonymous": false,
      "inputs": [
        {
          "indexed": false,
          "internalType": "string",
          "name": "name",
          "type": "string"
        },
        {
          "indexed": true,
          "internalType": "address",
          "name": "taker",
          "type": "address"
        },
        {
          "indexed": true,
          "internalType": "address",
          "name": "token",
          "type": "address"
        },
        {
          "indexed": false,
          "internalType": "uint256",
          "name": "orderID",
          "type": "uint256"
        },
        {
          "indexed": false,
          "internalType": "enum ICommon.Direct",
          "name": "direct",
          "type": "uint8"
        },
        {
          "indexed": false,
          "internalType": "enum IPerpetual.OrderState",
          "name": "state",
          "type": "uint8"
        },
        {
          "indexed": false,
          "internalType": "enum ICommon.Offset",
          "name": "offset",
          "type": "uint8"
        },
        {
          "indexed": false,
          "internalType": "uint256",
          "name": "amount",
          "type": "uint256"
        },
        {
          "indexed": false,
          "internalType": "uint256",
          "name": "targetPrice",
          "type": "uint256"
        },
        {
          "indexed": false,
          "internalType": "uint256",
          "name": "margin",
          "type": "uint256"
        },
        {
          "indexed": false,
          "internalType": "uint256",
          "name": "rewardGas",
          "type": "uint256"
        },
        {
          "indexed": false,
          "internalType": "uint256",
          "name": "tradingFee",
          "type": "uint256"
        },
        {
          "indexed": false,
          "internalType": "uint256",
          "name": "startTime",
          "type": "uint256"
        },
        {
          "indexed": false,
          "internalType": "uint256",
          "name": "orderType",
          "type": "uint256"
        }
      ],
      "name": "CreateLimitedOrder",
      "type": "event"
    },
    {
      "anonymous": false,
      "inputs": [
        {
          "indexed": false,
          "internalType": "uint256",
          "name": "limitOrderID",
          "type": "uint256"
        },
        {
          "indexed": false,
          "internalType": "uint256",
          "name": "openLimitPrice",
          "type": "uint256"
        },
        {
          "indexed": false,
          "internalType": "uint256",
          "name": "gainTriggerPrice",
          "type": "uint256"
        },
        {
          "indexed": false,
          "internalType": "uint256",
          "name": "gainLimitPrice",
          "type": "uint256"
        },
        {
          "indexed": false,
          "internalType": "uint256",
          "name": "lossTriggerPrice",
          "type": "uint256"
        },
        {
          "indexed": false,
          "internalType": "uint256",
          "name": "lossLimitPrice",
          "type": "uint256"
        }
      ],
      "name": "CreateTriggerCondition",
      "type": "event"
    },
    {
      "anonymous": false,
      "inputs": [
        {
          "indexed": false,
          "internalType": "uint256",
          "name": "code",
          "type": "uint256"
        },
        {
          "indexed": false,
          "internalType": "uint256",
          "name": "orderID",
          "type": "uint256"
        },
        {
          "indexed": false,
          "internalType": "string",
          "name": "message",
          "type": "string"
        }
      ],
      "name": "ErrorInfo",
      "type": "event"
    },
    {
      "anonymous": false,
      "inputs": [
        {
          "indexed": false,
          "internalType": "uint256",
          "name": "code",
          "type": "uint256"
        },
        {
          "indexed": false,
          "internalType": "uint256",
          "name": "orderID",
          "type": "uint256"
        },
        {
          "indexed": false,
          "internalType": "bytes",
          "name": "message",
          "type": "bytes"
        }
      ],
      "name": "ExceptErrorInfo",
      "type": "event"
    },
    {
      "anonymous": false,
      "inputs": [
        {
          "indexed": false,
          "internalType": "uint64",
          "name": "version",
          "type": "uint64"
        }
      ],
      "name": "Initialized",
      "type": "event"
    },
    {
      "anonymous": false,
      "inputs": [
        {
          "indexed": false,
          "internalType": "string",
          "name": "name",
          "type": "string"
        },
        {
          "indexed": true,
          "internalType": "address",
          "name": "taker",
          "type": "address"
        },
        {
          "indexed": true,
          "internalType": "address",
          "name": "token",
          "type": "address"
        },
        {
          "indexed": false,
          "internalType": "uint256",
          "name": "orderID",
          "type": "uint256"
        },
        {
          "indexed": false,
          "internalType": "enum ICommon.Direct",
          "name": "direct",
          "type": "uint8"
        },
        {
          "indexed": false,
          "internalType": "enum IPerpetual.OrderState",
          "name": "state",
          "type": "uint8"
        },
        {
          "indexed": false,
          "internalType": "enum ICommon.Offset",
          "name": "offset",
          "type": "uint8"
        },
        {
          "indexed": false,
          "internalType": "uint256",
          "name": "amount",
          "type": "uint256"
        },
        {
          "indexed": false,
          "internalType": "uint256",
          "name": "targetPrice",
          "type": "uint256"
        },
        {
          "indexed": false,
          "internalType": "uint256",
          "name": "margin",
          "type": "uint256"
        },
        {
          "indexed": false,
          "internalType": "uint256",
          "name": "rewardGas",
          "type": "uint256"
        },
        {
          "indexed": false,
          "internalType": "uint256",
          "name": "tradingFee",
          "type": "uint256"
        },
        {
          "indexed": false,
          "internalType": "uint256",
          "name": "startTime",
          "type": "uint256"
        },
        {
          "indexed": false,
          "internalType": "uint256",
          "name": "orderType",
          "type": "uint256"
        }
      ],
      "name": "LimitedOrderHistory",
      "type": "event"
    },
    {
      "anonymous": false,
      "inputs": [
        {
          "indexed": false,
          "internalType": "address",
          "name": "token",
          "type": "address"
        },
        {
          "indexed": false,
          "internalType": "address",
          "name": "taker",
          "type": "address"
        }
      ],
      "name": "LiquidateTaker",
      "type": "event"
    },
    {
      "anonymous": false,
      "inputs": [
        {
          "indexed": false,
          "internalType": "uint256",
          "name": "dealID",
          "type": "uint256"
        },
        {
          "indexed": false,
          "internalType": "address",
          "name": "token",
          "type": "address"
        },
        {
          "indexed": false,
          "internalType": "address",
          "name": "maker",
          "type": "address"
        },
        {
          "indexed": false,
          "internalType": "uint256",
          "name": "makerID",
          "type": "uint256"
        }
      ],
      "name": "LiquidatedMakerDeal",
      "type": "event"
    },
    {
      "anonymous": false,
      "inputs": [
        {
          "indexed": false,
          "internalType": "uint256",
          "name": "takerDealID",
          "type": "uint256"
        },
        {
          "indexed": false,
          "internalType": "address",
          "name": "token",
          "type": "address"
        },
        {
          "indexed": false,
          "internalType": "address",
          "name": "maker",
          "type": "address"
        },
        {
          "indexed": false,
          "internalType": "enum ICommon.Direct",
          "name": "direct",
          "type": "uint8"
        },
        {
          "indexed": false,
          "internalType": "uint256",
          "name": "size",
          "type": "uint256"
        },
        {
          "indexed": false,
          "internalType": "uint256",
          "name": "price",
          "type": "uint256"
        },
        {
          "indexed": false,
          "internalType": "uint256",
          "name": "makerDealID",
          "type": "uint256"
        },
        {
          "indexed": false,
          "internalType": "uint256",
          "name": "marginAmount",
          "type": "uint256"
        },
        {
          "indexed": false,
          "internalType": "uint256",
          "name": "maintenanceMargin",
          "type": "uint256"
        },
        {
          "indexed": false,
          "internalType": "uint256",
          "name": "flag",
          "type": "uint256"
        }
      ],
      "name": "LockPoolMargin",
      "type": "event"
    },
    {
      "anonymous": false,
      "inputs": [
        {
          "indexed": true,
          "internalType": "address",
          "name": "taker",
          "type": "address"
        },
        {
          "indexed": false,
          "internalType": "string",
          "name": "name",
          "type": "string"
        },
        {
          "indexed": false,
          "internalType": "address",
          "name": "token",
          "type": "address"
        },
        {
          "indexed": false,
          "internalType": "uint256",
          "name": "orderID",
          "type": "uint256"
        },
        {
          "indexed": false,
          "internalType": "enum ICommon.Direct",
          "name": "direction",
          "type": "uint8"
        },
        {
          "indexed": false,
          "internalType": "enum IPerpetual.OrderType",
          "name": "orderType",
          "type": "uint8"
        },
        {
          "indexed": false,
          "internalType": "uint256",
          "name": "amount",
          "type": "uint256"
        },
        {
          "indexed": false,
          "internalType": "uint256",
          "name": "costPrice",
          "type": "uint256"
        },
        {
          "indexed": false,
          "internalType": "uint256",
          "name": "price",
          "type": "uint256"
        },
        {
          "indexed": false,
          "internalType": "uint256",
          "name": "tradingFee",
          "type": "uint256"
        },
        {
          "indexed": false,
          "internalType": "uint256",
          "name": "leverage",
          "type": "uint256"
        },
        {
          "indexed": false,
          "internalType": "uint256",
          "name": "marginAmount",
          "type": "uint256"
        },
        {
          "indexed": false,
          "internalType": "uint256",
          "name": "limitOrderId",
          "type": "uint256"
        },
        {
          "indexed": false,
          "internalType": "uint256",
          "name": "timestamp",
          "type": "uint256"
        }
      ],
      "name": "OrderHistory",
      "type": "event"
    },
    {
      "anonymous": false,
      "inputs": [
        {
          "indexed": true,
          "internalType": "address",
          "name": "previousOwner",
          "type": "address"
        },
        {
          "indexed": true,
          "internalType": "address",
          "name": "newOwner",
          "type": "address"
        }
      ],
      "name": "OwnershipTransferred",
      "type": "event"
    },
    {
      "anonymous": false,
      "inputs": [
        {
          "indexed": true,
          "internalType": "address",
          "name": "account",
          "type": "address"
        },
        {
          "indexed": true,
          "internalType": "address",
          "name": "token",
          "type": "address"
        },
        {
          "indexed": false,
          "internalType": "uint256",
          "name": "amount",
          "type": "uint256"
        },
        {
          "indexed": false,
          "internalType": "uint256",
          "name": "share",
          "type": "uint256"
        },
        {
          "indexed": false,
          "internalType": "enum ICommon.PoolFlag",
          "name": "poolType",
          "type": "uint8"
        }
      ],
      "name": "Provide",
      "type": "event"
    },
    {
      "anonymous": false,
      "inputs": [
        {
          "indexed": false,
          "internalType": "address",
          "name": "token",
          "type": "address"
        },
        {
          "indexed": false,
          "internalType": "uint256",
          "name": "orderID",
          "type": "uint256"
        },
        {
          "indexed": false,
          "internalType": "uint256",
          "name": "dealID",
          "type": "uint256"
        },
        {
          "indexed": false,
          "internalType": "enum IPerpetual.TradeType",
          "name": "tradeType",
          "type": "uint8"
        },
        {
          "indexed": false,
          "internalType": "uint256",
          "name": "amount",
          "type": "uint256"
        },
        {
          "indexed": false,
          "internalType": "uint256",
          "name": "price",
          "type": "uint256"
        },
        {
          "indexed": false,
          "internalType": "uint256",
          "name": "tradingFee",
          "type": "uint256"
        },
        {
          "indexed": false,
          "internalType": "uint256",
          "name": "leverage",
          "type": "uint256"
        },
        {
          "indexed": false,
          "internalType": "uint256",
          "name": "marginAmount",
          "type": "uint256"
        },
        {
          "indexed": false,
          "internalType": "uint256",
          "name": "profit",
          "type": "uint256"
        },
        {
          "indexed": false,
          "internalType": "uint256",
          "name": "loss",
          "type": "uint256"
        },
        {
          "indexed": false,
          "internalType": "uint256",
          "name": "timestamp",
          "type": "uint256"
        }
      ],
      "name": "TradeHistory",
      "type": "event"
    },
    {
      "anonymous": false,
      "inputs": [
        {
          "indexed": true,
          "internalType": "address",
          "name": "token",
          "type": "address"
        },
        {
          "indexed": true,
          "internalType": "address",
          "name": "sender",
          "type": "address"
        },
        {
          "indexed": true,
          "internalType": "address",
          "name": "received",
          "type": "address"
        },
        {
          "indexed": false,
          "internalType": "enum ICommon.TransactionType",
          "name": "transactionType",
          "type": "uint8"
        },
        {
          "indexed": false,
          "internalType": "uint256",
          "name": "amount",
          "type": "uint256"
        },
        {
          "indexed": false,
          "internalType": "uint256",
          "name": "timestamp",
          "type": "uint256"
        }
      ],
      "name": "TransactionHistory",
      "type": "event"
    },
    {
      "anonymous": false,
      "inputs": [
        {
          "indexed": true,
          "internalType": "address",
          "name": "account",
          "type": "address"
        },
        {
          "indexed": true,
          "internalType": "address",
          "name": "token",
          "type": "address"
        },
        {
          "indexed": false,
          "internalType": "uint256",
          "name": "amount",
          "type": "uint256"
        },
        {
          "indexed": false,
          "internalType": "uint256",
          "name": "share",
          "type": "uint256"
        },
        {
          "indexed": false,
          "internalType": "enum ICommon.PoolFlag",
          "name": "poolType",
          "type": "uint8"
        }
      ],
      "name": "Withdraw",
      "type": "event"
    },
    {
      "anonymous": false,
      "inputs": [
        {
          "indexed": false,
          "internalType": "address",
          "name": "token",
          "type": "address"
        },
        {
          "indexed": false,
          "internalType": "address",
          "name": "sender",
          "type": "address"
        },
        {
          "indexed": false,
          "internalType": "string",
          "name": "name",
          "type": "string"
        },
        {
          "indexed": false,
          "internalType": "uint256",
          "name": "beforeLeverage",
          "type": "uint256"
        },
        {
          "indexed": false,
          "internalType": "uint256",
          "name": "afterLeverage",
          "type": "uint256"
        }
      ],
      "name": "setLeverage",
      "type": "event"
    },
    {
      "stateMutability": "nonpayable",
      "type": "fallback"
    },
    {
      "inputs": [
        {
          "internalType": "uint256",
          "name": "_dealID",
          "type": "uint256"
        },
        {
          "internalType": "uint256",
          "name": "_profit",
          "type": "uint256"
        }
      ],
      "name": "checkMarginRisk",
      "outputs": [
        {
          "internalType": "bool",
          "name": "isRisk",
          "type": "bool"
        }
      ],
      "stateMutability": "view",
      "type": "function"
    },
    {
      "inputs": [
        {
          "internalType": "uint256",
          "name": "_start",
          "type": "uint256"
        },
        {
          "internalType": "uint256",
          "name": "_end",
          "type": "uint256"
        },
        {
          "internalType": "uint256",
          "name": "_count",
          "type": "uint256"
        }
      ],
      "name": "getActiveDeals",
      "outputs": [
        {
          "components": [
            {
              "internalType": "string",
              "name": "name",
              "type": "string"
            },
            {
              "internalType": "address",
              "name": "token",
              "type": "address"
            },
            {
              "internalType": "address",
              "name": "makerAddr",
              "type": "address"
            },
            {
              "internalType": "uint256",
              "name": "takerId",
              "type": "uint256"
            },
            {
              "internalType": "uint256",
              "name": "size",
              "type": "uint256"
            },
            {
              "internalType": "uint256",
              "name": "price",
              "type": "uint256"
            },
            {
              "internalType": "enum ICommon.Direct",
              "name": "direct",
              "type": "uint8"
            },
            {
              "internalType": "enum ICommon.DealState",
              "name": "state",
              "type": "uint8"
            },
            {
              "internalType": "uint256",
              "name": "marginAmount",
              "type": "uint256"
            },
            {
              "internalType": "uint256",
              "name": "maintenanceMargin",
              "type": "uint256"
            },
            {
              "internalType": "uint256",
              "name": "time",
              "type": "uint256"
            }
          ],
          "internalType": "struct ICommon.MakerDeal[]",
          "name": "info",
          "type": "tuple[]"
        },
        {
          "internalType": "uint256[]",
          "name": "ids",
          "type": "uint256[]"
        },
        {
          "internalType": "uint256",
          "name": "end",
          "type": "uint256"
        }
      ],
      "stateMutability": "view",
      "type": "function"
    },
    {
      "inputs": [
        {
          "internalType": "address[]",
          "name": "_tokens",
          "type": "address[]"
        },
        {
          "internalType": "address",
          "name": "_maker",
          "type": "address"
        }
      ],
      "name": "getLP2Accounts",
      "outputs": [
        {
          "components": [
            {
              "internalType": "address payable",
              "name": "holder",
              "type": "address"
            },
            {
              "internalType": "uint256",
              "name": "amount",
              "type": "uint256"
            },
            {
              "internalType": "uint256",
              "name": "availableAmount",
              "type": "uint256"
            },
            {
              "internalType": "uint256",
              "name": "lockedAmount",
              "type": "uint256"
            },
            {
              "internalType": "uint256",
              "name": "maintenanceMargin",
              "type": "uint256"
            },
            {
              "internalType": "uint256",
              "name": "leverage",
              "type": "uint256"
            },
            {
              "internalType": "uint256",
              "name": "maintenanceMarginRate",
              "type": "uint256"
            },
            {
              "internalType": "uint256",
              "name": "addMarginRate",
              "type": "uint256"
            },
            {
              "internalType": "bool",
              "name": "autoAddMargin",
              "type": "bool"
            },
            {
              "internalType": "bool",
              "name": "isRejectOrder",
              "type": "bool"
            }
          ],
          "internalType": "struct ICommon.LP2Account[]",
          "name": "user",
          "type": "tuple[]"
        }
      ],
      "stateMutability": "view",
      "type": "function"
    },
    {
      "inputs": [
        {
          "internalType": "uint256[]",
          "name": "_ids",
          "type": "uint256[]"
        }
      ],
      "name": "getMakerDeals",
      "outputs": [
        {
          "components": [
            {
              "internalType": "string",
              "name": "name",
              "type": "string"
            },
            {
              "internalType": "address",
              "name": "token",
              "type": "address"
            },
            {
              "internalType": "address",
              "name": "makerAddr",
              "type": "address"
            },
            {
              "internalType": "uint256",
              "name": "takerId",
              "type": "uint256"
            },
            {
              "internalType": "uint256",
              "name": "size",
              "type": "uint256"
            },
            {
              "internalType": "uint256",
              "name": "price",
              "type": "uint256"
            },
            {
              "internalType": "enum ICommon.Direct",
              "name": "direct",
              "type": "uint8"
            },
            {
              "internalType": "enum ICommon.DealState",
              "name": "state",
              "type": "uint8"
            },
            {
              "internalType": "uint256",
              "name": "marginAmount",
              "type": "uint256"
            },
            {
              "internalType": "uint256",
              "name": "maintenanceMargin",
              "type": "uint256"
            },
            {
              "internalType": "uint256",
              "name": "time",
              "type": "uint256"
            }
          ],
          "internalType": "struct ICommon.MakerDeal[]",
          "name": "deals",
          "type": "tuple[]"
        }
      ],
      "stateMutability": "view",
      "type": "function"
    },
    {
      "inputs": [
        {
          "internalType": "address",
          "name": "_token",
          "type": "address"
        },
        {
          "internalType": "address",
          "name": "_makerAddr",
          "type": "address"
        },
        {
          "internalType": "uint256",
          "name": "_amount",
          "type": "uint256"
        },
        {
          "internalType": "uint256",
          "name": "_price",
          "type": "uint256"
        }
      ],
      "name": "getMatchingMaker",
      "outputs": [
        {
          "internalType": "address",
          "name": "addr",
          "type": "address"
        },
        {
          "internalType": "uint256",
          "name": "marginAmount",
          "type": "uint256"
        },
        {
          "internalType": "uint256",
          "name": "maintenanceMargin",
          "type": "uint256"
        }
      ],
      "stateMutability": "view",
      "type": "function"
    },
    {
      "inputs": [
        {
          "internalType": "address",
          "name": "_token",
          "type": "address"
        }
      ],
      "name": "getPoolAsset",
      "outputs": [
        {
          "components": [
            {
              "internalType": "uint256",
              "name": "privateAmount",
              "type": "uint256"
            },
            {
              "internalType": "uint256",
              "name": "privateMargin",
              "type": "uint256"
            },
            {
              "internalType": "uint256",
              "name": "publicAmount",
              "type": "uint256"
            },
            {
              "internalType": "uint256",
              "name": "publicMargin",
              "type": "uint256"
            },
            {
              "internalType": "uint256",
              "name": "share",
              "type": "uint256"
            }
          ],
          "internalType": "struct ICommon.PoolAsset",
          "name": "asset",
          "type": "tuple"
        }
      ],
      "stateMutability": "view",
      "type": "function"
    },
    {
      "inputs": [
        {
          "internalType": "address[]",
          "name": "_tokens",
          "type": "address[]"
        }
      ],
      "name": "getPoolAssets",
      "outputs": [
        {
          "components": [
            {
              "internalType": "uint256",
              "name": "privateAmount",
              "type": "uint256"
            },
            {
              "internalType": "uint256",
              "name": "privateMargin",
              "type": "uint256"
            },
            {
              "internalType": "uint256",
              "name": "publicAmount",
              "type": "uint256"
            },
            {
              "internalType": "uint256",
              "name": "publicMargin",
              "type": "uint256"
            },
            {
              "internalType": "uint256",
              "name": "share",
              "type": "uint256"
            }
          ],
          "internalType": "struct ICommon.PoolAsset[]",
          "name": "assets",
          "type": "tuple[]"
        }
      ],
      "stateMutability": "view",
      "type": "function"
    },
    {
      "inputs": [
        {
          "internalType": "address",
          "name": "token",
          "type": "address"
        },
        {
          "internalType": "string[]",
          "name": "_symbols",
          "type": "string[]"
        },
        {
          "internalType": "uint256[]",
          "name": "_prices",
          "type": "uint256[]"
        }
      ],
      "name": "getShareNetValue",
      "outputs": [
        {
          "internalType": "uint256",
          "name": "",
          "type": "uint256"
        }
      ],
      "stateMutability": "view",
      "type": "function"
    },
    {
      "inputs": [
        {
          "internalType": "address[]",
          "name": "_tokens",
          "type": "address[]"
        },
        {
          "internalType": "string[]",
          "name": "_symbols",
          "type": "string[]"
        },
        {
          "internalType": "uint256[]",
          "name": "_prices",
          "type": "uint256[]"
        }
      ],
      "name": "getShareNetValues",
      "outputs": [
        {
          "internalType": "uint256[]",
          "name": "netValues",
          "type": "uint256[]"
        }
      ],
      "stateMutability": "view",
      "type": "function"
    },
    {
      "inputs": [
        {
          "internalType": "address[]",
          "name": "_tokens",
          "type": "address[]"
        },
        {
          "internalType": "address",
          "name": "_maker",
          "type": "address"
        }
      ],
      "name": "getUserShareAmounts",
      "outputs": [
        {
          "internalType": "uint256[]",
          "name": "shares",
          "type": "uint256[]"
        }
      ],
      "stateMutability": "view",
      "type": "function"
    },
    {
      "inputs": [
        {
          "internalType": "address",
          "name": "_priPool",
          "type": "address"
        },
        {
          "internalType": "address",
          "name": "_perpetual",
          "type": "address"
        }
      ],
      "name": "initialize",
      "outputs": [],
      "stateMutability": "nonpayable",
      "type": "function"
    },
    {
      "inputs": [
        {
          "internalType": "address",
          "name": "_token",
          "type": "address"
        },
        {
          "internalType": "string",
          "name": "_name",
          "type": "string"
        },
        {
          "internalType": "uint256",
          "name": "_id",
          "type": "uint256"
        },
        {
          "internalType": "uint256",
          "name": "_amount",
          "type": "uint256"
        },
        {
          "internalType": "uint256",
          "name": "_tradingFee",
          "type": "uint256"
        },
        {
          "internalType": "uint256",
          "name": "_price",
          "type": "uint256"
        },
        {
          "internalType": "enum ICommon.Direct",
          "name": "_direction",
          "type": "uint8"
        }
      ],
      "name": "matchOrder",
      "outputs": [
        {
          "internalType": "bool",
          "name": "success",
          "type": "bool"
        },
        {
          "internalType": "uint256",
          "name": "remaining",
          "type": "uint256"
        }
      ],
      "stateMutability": "nonpayable",
      "type": "function"
    },
    {
      "inputs": [],
      "name": "owner",
      "outputs": [
        {
          "internalType": "address",
          "name": "",
          "type": "address"
        }
      ],
      "stateMutability": "view",
      "type": "function"
    },
    {
      "inputs": [],
      "name": "renounceOwnership",
      "outputs": [],
      "stateMutability": "nonpayable",
      "type": "function"
    },
    {
      "inputs": [
        {
          "internalType": "address",
          "name": "_orderBook",
          "type": "address"
        },
        {
          "internalType": "address",
          "name": "_tradeAgent",
          "type": "address"
        },
        {
          "internalType": "address",
          "name": "_tradeStation",
          "type": "address"
        },
        {
          "internalType": "address",
          "name": "_keeper",
          "type": "address"
        }
      ],
      "name": "setKeepers",
      "outputs": [],
      "stateMutability": "nonpayable",
      "type": "function"
    },
    {
      "inputs": [
        {
          "internalType": "address",
          "name": "newOwner",
          "type": "address"
        }
      ],
      "name": "transferOwnership",
      "outputs": [],
      "stateMutability": "nonpayable",
      "type": "function"
    }
  ],
  "bytecode": "0x60808060405234601557612b0e908161001a8239f35b5f80fdfe60806040526004361015610019575b3461001557005b5f80fd5b5f3560e01c8063069d0254146101185780630e2180141461011357806325737d401461010e578063485cc9551461010957806370bcbca214610104578063715018a6146100ff5780637721625f146100fa57806381a4f173146100f55780638da5cb5b146100f0578063ac981092146100eb578063d112d0e9146100e6578063d3c76d66146100e1578063d5c3df39146100dc578063e771ad72146100d7578063f2fde38b146100d25763f518b0c50361000e576112bb565b61128e565b6110e2565b61102a565b610f58565b610ee5565b610dff565b610d4f565b610bf6565b610b07565b610a1f565b6109ac565b61068c565b610606565b61035d565b61012e565b6001600160a01b0381160361001557565b346100155760206003193601126100155760a06101556004356101508161011d565b611457565b61018a604051809260808091805184526020810151602085015260408101516040850152606081015160608501520151910152565bf35b634e487b7160e01b5f52604160045260245ffd5b90601f601f19910116810190811067ffffffffffffffff8211176101c357604052565b61018c565b604051906101d8610160836101a0565b565b604051906101d8610140836101a0565b67ffffffffffffffff81116101c35760051b60200190565b9080601f83011215610015578135610219816101ea565b9261022760405194856101a0565b81845260208085019260051b82010192831161001557602001905b82821061024f5750505090565b60208091833561025e8161011d565b815201910190610242565b6040600319820112610015576004359067ffffffffffffffff82116100155761029491600401610202565b906024356102a18161011d565b90565b60206040818301928281528451809452019201905f5b8181106102c75750505090565b909192602061014060019261035261012088516102ed8482516001600160a01b03169052565b858101518685015260408101516040850152606081015160608501526080810151608085015260a081015160a085015260c081015160c085015260e081015160e085015261034661010082015161010086019015159052565b01511515610120830152565b0194019291016102ba565b346100155761036b36610269565b8151908115610427575b61037e826101ea565b9261038c60405194856101a0565b828452601f1961039b846101ea565b015f5b818110610410575050826103bf575b604051806103bb86826102a4565b0390f35b5f5b8381106103ce57506103ad565b806103f4846103ef6103e260019587611625565b516001600160a01b031690565b61217a565b6103fe8288611625565b526104098187611625565b50016103c1565b60209061041b6115c9565b8282890101520161039e565b9150506104326123f0565b90815190610375565b9080601f83011215610015578135610452816101ea565b9261046060405194856101a0565b81845260208085019260051b82010192831161001557602001905b8282106104885750505090565b813581526020918201910161047b565b90601f19601f602080948051918291828752018686015e5f8582860101520116010190565b634e487b7160e01b5f52602160045260245ffd5b9060038210156104de5752565b6104bd565b600611156104de57565b9060068210156104de5752565b906101408061051484516101608552610160850190610498565b6020808601516001600160a01b031690850152936040818101516001600160a01b031690850152606081015160608501526080810151608085015260a081015160a085015261056b60c082015160c08601906104d1565b61057d60e082015160e08601906104ed565b610100810151610100850152610120810151610120850152015191015290565b9080602083519182815201916020808360051b8301019401925f915b8383106105c857505050505090565b90919293946020806105e683601f19866001960301875289516104fa565b970193019301919392906105b9565b9060206102a192818152019061059d565b346100155760206003193601126100155760043567ffffffffffffffff81116100155761063790369060040161043b565b8051610642816116b1565b915f5b82811061065a57604051806103bb86826105f5565b8061067061066a60019385611625565b51612470565b61067a8287611625565b526106858186611625565b5001610645565b34610015576040600319360112610015576004356106a98161011d565b602435906106b68261011d565b7ff0c57e16840df040f15088dc2f81fe391c3923bec73e23a9662efc9c229c6a00549167ffffffffffffffff6106fc60ff604086901c16159467ffffffffffffffff1690565b16801590816108c3575b60011490816108b9575b1590816108b0575b5061088857610799918361079060017fffffffffffffffffffffffffffffffffffffffffffffffff00000000000000007ff0c57e16840df040f15088dc2f81fe391c3923bec73e23a9662efc9c229c6a005416177ff0c57e16840df040f15088dc2f81fe391c3923bec73e23a9662efc9c229c6a0055565b610823576116ff565b61079f57005b6107f468ff0000000000000000197ff0c57e16840df040f15088dc2f81fe391c3923bec73e23a9662efc9c229c6a0054167ff0c57e16840df040f15088dc2f81fe391c3923bec73e23a9662efc9c229c6a0055565b604051600181527fc7f505b2f371ae2175ee4913f4499e1f2633a7b5936321eed1cdaeb6115181d290602090a1005b6108836801000000000000000068ff0000000000000000197ff0c57e16840df040f15088dc2f81fe391c3923bec73e23a9662efc9c229c6a005416177ff0c57e16840df040f15088dc2f81fe391c3923bec73e23a9662efc9c229c6a0055565b6116ff565b7ff92ee8a9000000000000000000000000000000000000000000000000000000005f5260045ffd5b9050155f610718565b303b159150610710565b849150610706565b67ffffffffffffffff81116101c357601f01601f191660200190565b81601f82011215610015578035906108fe826108cb565b9261090c60405194856101a0565b8284526020838301011161001557815f926020809301838601378301015290565b9080601f83011215610015578135610944816101ea565b9261095260405194856101a0565b81845260208085019260051b820101918383116100155760208201905b83821061097e57505050505090565b813567ffffffffffffffff8111610015576020916109a1878480948801016108e7565b81520191019061096f565b34610015576060600319360112610015576004356109c98161011d565b60243567ffffffffffffffff8111610015576109e990369060040161092d565b906044359067ffffffffffffffff821161001557602092610a11610a1793369060040161043b565b91611930565b604051908152f35b34610015575f60031936011261001557610a376126ed565b5f6001600160a01b037f9016d09d72d40fdae2fd8ceac6b6234c7706214fd39c1cd1e609a0528c1993005473ffffffffffffffffffffffffffffffffffffffff1981167f9016d09d72d40fdae2fd8ceac6b6234c7706214fd39c1cd1e609a0528c19930055167f8be0079c531659141344cd1fd0a4f28419497f9722a3daafe3b4186f6b6457e08280a3005b90602080835192838152019201905f5b818110610ae05750505090565b8251845260209384019390920191600101610ad3565b9060206102a1928181520190610ac3565b346100155760606003193601126100155760043567ffffffffffffffff811161001557610b38903690600401610202565b60243567ffffffffffffffff811161001557610b5890369060040161092d565b60443567ffffffffffffffff811161001557610b7890369060040161043b565b8251918215610be1575b610b8b83611bf3565b9383610ba0575b604051806103bb8782610af6565b5f5b848110610baf5750610b92565b80610bd085856001600160a01b03610bc960019688611625565b5116611930565b610bda8289611625565b5201610ba2565b91509150610bed6123f0565b91825191610b82565b3461001557608060031936011261001557610d4d6001600160a01b03600435610c1e8161011d565b610d23602435610c2d8161011d565b610cfa60443593610c3d8561011d565b610cd3610caf878060643594610c528661011d565b610c5a6126ed565b1695865f52600560205260405f20600160ff198254161790551692835f526005602052610c9160405f20600160ff19825416179055565b610cbc610caf896001600160a01b03165f52600560205260405f2090565b600160ff19825416179055565b6001600160a01b03165f52600560205260405f2090565b6001600160a01b031673ffffffffffffffffffffffffffffffffffffffff195f5416175f55565b6001600160a01b031673ffffffffffffffffffffffffffffffffffffffff196003541617600355565b166001600160a01b031673ffffffffffffffffffffffffffffffffffffffff196004541617600455565b005b34610015575f6003193601126100155760206001600160a01b037f9016d09d72d40fdae2fd8ceac6b6234c7706214fd39c1cd1e609a0528c1993005416604051908152f35b60206040818301928281528451809452019201905f5b818110610db75750505090565b909192602060a082610df4600194885160808091805184526020810151602085015260408101516040850152606081015160608501520151910152565b019401929101610daa565b346100155760206003193601126100155760043567ffffffffffffffff811161001557610e30903690600401610202565b80518015610ed4575b610e42816101ea565b91610e5060405193846101a0565b818352601f19610e5f836101ea565b015f5b818110610ebd57505081610e7f575b604051806103bb8582610d94565b5f5b828110610e8e5750610e71565b80610ea16101506103e260019486611625565b610eab8287611625565b52610eb68186611625565b5001610e81565b602090610ec861134d565b82828801015201610e62565b5050610ede6123f0565b8051610e39565b3461001557608060031936011261001557610f36600435610f058161011d565b602435610f118161011d565b6044359060643592335f526005602052610f3160ff60405f205416611c24565b611c95565b604080516001600160a01b039094168452602084019290925290820152606090f35b346100155760406003193601126100155760043560243560206001600160a01b0360015416926024604051809581937f36ff6a7000000000000000000000000000000000000000000000000000000000835260048301525afa91821561101b57610fd8610fd36103bb94610100935f91610fec575b5061143c565b612470565b015160405191101581529081906020820190565b61100e915060203d602011611014575b61100681836101a0565b8101906113ac565b5f610fcd565b503d610ffc565b6113a1565b6003111561001557565b346100155760e0600319360112610015576004356110478161011d565b6024359067ffffffffffffffff82116100155761106b6110a09236906004016108e7565b6044356064359060a4359260c4359461108386611020565b335f52600560205261109b60ff60405f205416611c24565b611df0565b604080519215158352602083019190915290f35b9392916110dd906110cf60409360608852606088019061059d565b908682036020880152610ac3565b930152565b346100155760606003193601126100155760043560243560443560048293809360206111256111196001546001600160a01b031690565b6001600160a01b031690565b604051948580927ff2da708d0000000000000000000000000000000000000000000000000000000082525afa92831561101b575f9361126d575b508210611263575b811061125b575b505f92919261117c826116b1565b9161118681611bf3565b945b84811080611252575b1561122c5761119f81612470565b60e08101600181516111b0816104e3565b6111b9816104e3565b1490811561120e575b506111d7575b506111d290612014565b611188565b8361120791836111eb6111d295978b611625565b526111f68288611625565b526112018187611625565b50612014565b92906111c8565b600291505161121c816104e3565b611225816104e3565b145f6111c2565b8593926103bb928103611247575b50604051938493846110b4565b80845284528461123a565b50818310611191565b91505f61116e565b9093508390611167565b61128791935060203d6020116110145761100681836101a0565b915f61115f565b3461001557602060031936011261001557610d4d6004356112ae8161011d565b6112b66126ed565b612022565b34610015576112c936610269565b8151908115611339575b6112dc82611bf3565b92826112f9575b604051602080825281906103bb90820187610ac3565b5f5b83811061130857506112e3565b80611328846001600160a01b0361132160019587611625565b51166120ea565b6113328288611625565b52016112fb565b9150506113446123f0565b908151906112d3565b6040519060a0820182811067ffffffffffffffff8211176101c3576040525f6080838281528260208201528260408201528260608201520152565b90816020910312610015575160ff811681036100155790565b6040513d5f823e3d90fd5b90816020910312610015575190565b634e487b7160e01b5f52601160045260245ffd5b90670de0b6b3a7640000820291808304670de0b6b3a764000014901517156113f357565b6113bb565b818102929181159184041417156113f357565b604d81116113f357600a0a90565b634e487b7160e01b5f52601260045260245ffd5b8115611437570490565b611419565b5f198101919082116113f357565b919082039182116113f357565b61145f61134d565b906001600160a01b038116906040517f313ce567000000000000000000000000000000000000000000000000000000008152602081600481865afa90811561101b575f9161159a575b506114be6111196001546001600160a01b031690565b6040517f70a082310000000000000000000000000000000000000000000000000000000081526001600160a01b038216600482015293602090859060249082905afa91821561101b5761155061153a60209261153460ff61152d61156e986115759b5f9161157d575b506113cf565b921661140b565b9061142d565b9261154581876120ea565b60808901528561217a565b015160408601908152611562846122b2565b6060870152519061144a565b835261230f565b602082015290565b6115949150883d8a116110145761100681836101a0565b5f611527565b6115bc915060203d6020116115c2575b6115b481836101a0565b810190611388565b5f6114a8565b503d6115aa565b60405190610140820182811067ffffffffffffffff8211176101c3576040525f610120838281528260208201528260408201528260608201528260808201528260a08201528260c08201528260e0820152826101008201520152565b80518210156116395760209160051b010190565b634e487b7160e01b5f52603260045260245ffd5b60405190610160820182811067ffffffffffffffff8211176101c3576040525f61014083606081528260208201528260408201528260608201528260808201528260a08201528260c08201528260e082015282610100820152826101208201520152565b906116bb826101ea565b6116c860405191826101a0565b828152601f196116d882946101ea565b01905f5b8281106116e857505050565b6020906116f361164d565b828285010152016116dc565b6101d891610cbc610caf610caf93611715612a81565b61171d612a81565b61172633612022565b305f52600560205260405f20600160ff19825416179055335f52600560205261175960405f20600160ff19825416179055565b6001600160a01b03811673ffffffffffffffffffffffffffffffffffffffff1960015416176001556001600160a01b038085161673ffffffffffffffffffffffffffffffffffffffff1960025416176002556001600160a01b03165f52600560205260405f2090565b81601f82011215610015578051906117d9826108cb565b926117e760405194856101a0565b8284526020838301011161001557815f9260208093018386015e8301015290565b6020818303126100155780519067ffffffffffffffff821161001557019080601f8301121561001557815161183c816101ea565b9261184a60405194856101a0565b81845260208085019260051b820101918383116100155760208201905b83821061187657505050505090565b815167ffffffffffffffff811161001557602091611899878480948801016117c2565b815201910190611867565b805191908290602001825e015f815290565b604051906040820182811067ffffffffffffffff8211176101c3576040525f6020838281520152565b919082018092116113f357565b606460405162461bcd60e51b815260206004820152601e60248201527f7075626c696320706f6c6c2073686f756c64206265206465746f6e61746500006044820152fd5b91909161193c81611457565b91608083019081511580159081611be7575b611bd5576060850151159081611bcd575b50611bb857946004955f61197e6111196002546001600160a01b031690565b604051988980927fcd2ce4ae0000000000000000000000000000000000000000000000000000000082525afa96871561101b575f97611b94575b5090949195935f915f935f965b8051881015611b52576119d88882611625565b51935f995f5b8451811015611b40576119f18186611625565b51604051611a1581611a076020820180956118a4565b03601f1981018352826101a0565b5190206040516020810190611a2e81611a07848d6118a4565b51902014611a3e576001016119de565b89939c949b50611a54908697939b989296611625565b5180915b611a90611a82611a7086611a6a6118b6565b986125ce565b602089969296019581875289526113f8565b670de0b6b3a7640000900490565b8551909190808310611b1f575091611ac5611abd611ab5611acf9694611a82966118df565b88519061144a565b955b8d612675565b80925286526113f8565b9182815110155f14611b005791611aed611af29260019451906118df565b61144a565b945b019692919790986119c5565b611b11600193611b199398996118df565b90519061144a565b95611af4565b611b3a611acf9593611aed611ac593611a829795999f6118df565b9b611abf565b509394909895998089939c949b611a58565b5050506040919295969450611b69935001516118df565b9180831115611b8f57611b82611b87916102a19461144a565b6113cf565b90519061142d565b6118ec565b611bb19197503d805f833e611ba981836101a0565b810190611808565b955f6119b8565b50916102a19350611b879150604001516113cf565b90505f61195f565b505050505050670de0b6b3a764000090565b5060408501511561194e565b90611bfd826101ea565b611c0a60405191826101a0565b828152601f19611c1a82946101ea565b0190602036910137565b15611c2b57565b606460405162461bcd60e51b815260206004820152601f60248201527f63616c6c6572206973206e6f7420706f6f6c206167656e74206b6565706572006044820152fd5b90611c8e939291335f526005602052610f3160ff60405f205416611c24565b9192909190565b81611ca29194939461217a565b91611cb1610120840151151590565b611de457611cca6111196001546001600160a01b031690565b936040517f2c86d98e000000000000000000000000000000000000000000000000000000008152602081600481895afa91821561101b57600493602093611d32935f91611dc7575b509160a088015180611dbd575b50611d2d91611a82916113f8565b61142d565b94604051928380927f89f00b6d0000000000000000000000000000000000000000000000000000000082525afa801561101b57611a82611d7d916040935f91611d9e575b50866113f8565b920151611d8a83856118df565b1115611d9b575050505f905f905f90565b92565b611db7915060203d6020116110145761100681836101a0565b5f611d76565b9250611d2d611d1f565b611dde9150853d87116110145761100681836101a0565b5f611d12565b505050505f905f905f90565b919295949390611e018288856127b9565b93919590966001600160a01b03871680155f14611e26575050505050505050505f9190565b60029a939495969798999a95611e476111196001546001600160a01b031690565b916001600160a01b0383161461200b575b611ef85f92602092611e686101c8565b9081526001600160a01b038c16848201526001600160a01b038d1660408201528660608201528760808201528860a0820152611ea78660c08301612a0e565b600160e08201528d6101008201528a610120820152426101408201526040519485809481937f249a6ee700000000000000000000000000000000000000000000000000000000835260048301612a1a565b03925af196871561101b577f55a05fded01868e623bc311ab3e73d3cec2f0871392b36317648452d989ed1ce9a611fe0987f2c37a9956018f0a52fe734b1e1b43a0c291a1ca976448780e2105afc28c38d98978b97611f68968e8c975f95611fea575b506040519a8b9a8b612a2b565b0390a1611f75848461217a565b6020810151906040810151906080606082015191015191611f9688886120ea565b93604051988998899491926001600160a01b0360e097949a999895929a8161010089019c16885216602087015260408601526060850152608084015260a083015260c08201520152565b0390a16001905f90565b61200491955060203d6020116110145761100681836101a0565b935f611f5b565b60019650611e58565b5f1981146113f35760010190565b6001600160a01b031680156120be576001600160a01b037f9016d09d72d40fdae2fd8ceac6b6234c7706214fd39c1cd1e609a0528c199300548273ffffffffffffffffffffffffffffffffffffffff198216177f9016d09d72d40fdae2fd8ceac6b6234c7706214fd39c1cd1e609a0528c19930055167f8be0079c531659141344cd1fd0a4f28419497f9722a3daafe3b4186f6b6457e05f80a3565b7f1e4fbdf7000000000000000000000000000000000000000000000000000000005f525f60045260245ffd5b6001546040517fd74960600000000000000000000000000000000000000000000000000000000081526001600160a01b039283166004820152928216602484015260209183916044918391165afa90811561101b575f91612149575090565b6102a1915060203d6020116110145761100681836101a0565b51906101d88261011d565b5190811515820361001557565b6121e5916101409161218a6115c9565b506001600160a01b0360015416906040518095819482937f859d90a3000000000000000000000000000000000000000000000000000000008452600484019092916001600160a01b0360209181604085019616845216910152565b03915afa90811561101b575f916121fa575090565b9050610140813d82116122a0575b8161221661014093836101a0565b810103126100155761229761012061222c6101da565b9261223681612162565b84526020810151602085015260408101516040850152606081015160608501526080810151608085015260a081015160a085015260c081015160c085015260e081015160e085015261228b610100820161216d565b6101008501520161216d565b61012082015290565b3d9150612208565b600411156104de57565b60206001600160a01b036044600154938260405195869485937f9409b02900000000000000000000000000000000000000000000000000000000855216600484015260016024840152165afa90811561101b575f91612149575090565b60206001600160a01b036044600154938260405195869485937f9409b02900000000000000000000000000000000000000000000000000000000855216600484015260026024840152165afa90811561101b575f91612149575090565b6020818303126100155780519067ffffffffffffffff821161001557019080601f830112156100155781516123a0816101ea565b926123ae60405194856101a0565b81845260208085019260051b82010192831161001557602001905b8282106123d65750505090565b6020809183516123e58161011d565b8152019101906123c9565b60045f6001600160a01b0360015416604051928380927f273cbaa00000000000000000000000000000000000000000000000000000000082525afa90811561101b575f9161243c575090565b6102a191503d805f833e61245081836101a0565b81019061236c565b51906101d882611020565b5190600682101561001557565b61247861164d565b505f6001600160a01b0360015416916024604051809481937f60d32e8d00000000000000000000000000000000000000000000000000000000835260048301525afa90811561101b575f916124cb575090565b90503d805f833e6124dc81836101a0565b8101906020818303126100155780519067ffffffffffffffff821161001557019061016082820312610015576125106101c8565b91805167ffffffffffffffff811161001557610140926125319183016117c2565b835261253f60208201612162565b602084015261255060408201612162565b6040840152606081015160608401526080810151608084015260a081015160a084015261257f60c08201612458565b60c084015261259060e08201612463565b60e0840152610100810151610100840152610120810151610120840152015161014082015290565b9190826040910312610015576020825192015190565b61262792916040916001600160a01b038060015416918451968794859384937f0c8c3516000000000000000000000000000000000000000000000000000000008552166004840152606060248401526064830190610498565b5f604483015203915afa91821561101b575f905f9361264557509190565b905061266a91925060403d60401161266e575b61266281836101a0565b8101906125b8565b9091565b503d612658565b6126ce92916040916001600160a01b038060015416918451968794859384937f0c8c3516000000000000000000000000000000000000000000000000000000008552166004840152606060248401526064830190610498565b6001604483015203915afa91821561101b575f905f9361264557509190565b6001600160a01b037f9016d09d72d40fdae2fd8ceac6b6234c7706214fd39c1cd1e609a0528c1993005416330361272057565b7f118cdaa7000000000000000000000000000000000000000000000000000000005f523360045260245ffd5b90816020910312610015575160048110156100155790565b1561276b57565b606460405162461bcd60e51b815260206004820152601560248201527f706f6f6c207374617475732069732072656675736500000000000000000000006044820152fd5b8115611437570690565b91906127d06111196001546001600160a01b031690565b6040517fc0a148310000000000000000000000000000000000000000000000000000000081526001600160a01b0385166004820152602081602481855afa90811561101b575f916129df575b50612826816122a8565b6128336003821415612764565b6040517f5baf45fb0000000000000000000000000000000000000000000000000000000081526001600160a01b0386166004820152905f82602481865afa91821561101b575f926129c3575b5081519161288c826122a8565b8115928391841594856129b0575b806129a7575b6128e4575b50506128b0826122a8565b916128d0575b506128c757505050505f905f905f90565b611c8e93611c6f565b600191506128dd816122a8565b145f6128b6565b61293e82604051602081019061293681611a0742414487917fffffffffffffffffffffffffffffffffffffffff0000000000000000000000009060549492845260601b16602083015260348201520190565b5190206127af565b915f5b81811061294f5750506128a5565b61297a8a8a8d6129746103e261296e88612969898d6118df565b6127af565b89611625565b90611c6f565b90916001600160a01b03811661299557505050600101612941565b9d919c509a5098505050505050505050565b508115156128a0565b506129ba846122a8565b6002841461289a565b6129d89192503d805f833e61245081836101a0565b905f61287f565b612a01915060203d602011612a07575b6129f981836101a0565b81019061274c565b5f61281c565b503d6129ef565b60038210156104de5752565b9060206102a19281815201906104fa565b96936001600160a01b03612a63929c9b9a9794816101209b98956101408c019f8c521660208b015216604089015260608801906104d1565b608086015260a085015260c084015260e08301526101008201520152565b60ff7ff0c57e16840df040f15088dc2f81fe391c3923bec73e23a9662efc9c229c6a005460401c1615612ab057565b7fd7e6bcf8000000000000000000000000000000000000000000000000000000005f5260045ffdfea2646970667358221220c153f202737f073064d5cce8bf5dcfabbe861e86c89c06521b2522416a437b8664736f6c634300081c0033",
  "linkReferences": {},
  "deployedLinkReferences": {}
}