{
  "_format": "hh-sol-artifact-1",
  "contractName": "PrivatePool",
  "sourceName": "contracts/PrivatePool.sol",
  "abi": [
    {
      "inputs": [],
      "name": "InvalidInitialization",
      "type": "error"
    },
    {
      "inputs": [],
      "name": "NotInitializing",
      "type": "error"
    },
    {
      "inputs": [
        {
          "internalType": "address",
          "name": "owner",
          "type": "address"
        }
      ],
      "name": "OwnableInvalidOwner",
      "type": "error"
    },
    {
      "inputs": [
        {
          "internalType": "address",
          "name": "account",
          "type": "address"
        }
      ],
      "name": "OwnableUnauthorizedAccount",
      "type": "error"
    },
    {
      "anonymous": false,
      "inputs": [
        {
          "indexed": false,
          "internalType": "address",
          "name": "token",
          "type": "address"
        },
        {
          "indexed": false,
          "internalType": "address",
          "name": "holder",
          "type": "address"
        },
        {
          "indexed": false,
          "internalType": "string",
          "name": "name",
          "type": "string"
        },
        {
          "indexed": false,
          "internalType": "enum ICommon.Direct",
          "name": "direct",
          "type": "uint8"
        },
        {
          "indexed": false,
          "internalType": "uint256",
          "name": "value",
          "type": "uint256"
        },
        {
          "indexed": false,
          "internalType": "uint256",
          "name": "size",
          "type": "uint256"
        },
        {
          "indexed": false,
          "internalType": "uint256",
          "name": "margin",
          "type": "uint256"
        },
        {
          "indexed": false,
          "internalType": "uint256",
          "name": "freeze",
          "type": "uint256"
        }
      ],
      "name": "AccountPosition",
      "type": "event"
    },
    {
      "anonymous": false,
      "inputs": [
        {
          "indexed": true,
          "internalType": "address",
          "name": "maker",
          "type": "address"
        },
        {
          "indexed": true,
          "internalType": "address",
          "name": "token",
          "type": "address"
        },
        {
          "indexed": false,
          "internalType": "uint256",
          "name": "makerDealId",
          "type": "uint256"
        },
        {
          "indexed": false,
          "internalType": "uint256",
          "name": "amount",
          "type": "uint256"
        },
        {
          "indexed": false,
          "internalType": "uint256",
          "name": "margin",
          "type": "uint256"
        }
      ],
      "name": "AddMargin",
      "type": "event"
    },
    {
      "anonymous": false,
      "inputs": [
        {
          "indexed": false,
          "internalType": "address",
          "name": "token",
          "type": "address"
        },
        {
          "indexed": false,
          "internalType": "address",
          "name": "maker",
          "type": "address"
        },
        {
          "indexed": false,
          "internalType": "uint256",
          "name": "amount",
          "type": "uint256"
        },
        {
          "indexed": false,
          "internalType": "uint256",
          "name": "availableAmount",
          "type": "uint256"
        },
        {
          "indexed": false,
          "internalType": "uint256",
          "name": "lockedAmount",
          "type": "uint256"
        },
        {
          "indexed": false,
          "internalType": "uint256",
          "name": "maintenanceMargin",
          "type": "uint256"
        },
        {
          "indexed": false,
          "internalType": "uint256",
          "name": "share",
          "type": "uint256"
        },
        {
          "indexed": false,
          "internalType": "uint256",
          "name": "flag",
          "type": "uint256"
        }
      ],
      "name": "BalanceOfMaker",
      "type": "event"
    },
    {
      "anonymous": false,
      "inputs": [
        {
          "indexed": false,
          "internalType": "uint256",
          "name": "dealID",
          "type": "uint256"
        },
        {
          "indexed": false,
          "internalType": "address",
          "name": "token",
          "type": "address"
        },
        {
          "indexed": false,
          "internalType": "address",
          "name": "maker",
          "type": "address"
        },
        {
          "indexed": false,
          "internalType": "enum ICommon.Direct",
          "name": "direct",
          "type": "uint8"
        },
        {
          "indexed": false,
          "internalType": "uint256",
          "name": "size",
          "type": "uint256"
        },
        {
          "indexed": false,
          "internalType": "uint256",
          "name": "price",
          "type": "uint256"
        },
        {
          "indexed": false,
          "internalType": "uint256",
          "name": "makerID",
          "type": "uint256"
        },
        {
          "indexed": false,
          "internalType": "uint256",
          "name": "makerGain",
          "type": "uint256"
        },
        {
          "indexed": false,
          "internalType": "uint256",
          "name": "makerLoss",
          "type": "uint256"
        },
        {
          "indexed": false,
          "internalType": "uint256",
          "name": "closeFlag",
          "type": "uint256"
        },
        {
          "indexed": false,
          "internalType": "uint256",
          "name": "closeType",
          "type": "uint256"
        }
      ],
      "name": "ClosedMakerDeal",
      "type": "event"
    },
    {
      "anonymous": false,
      "inputs": [
        {
          "indexed": false,
          "internalType": "uint64",
          "name": "version",
          "type": "uint64"
        }
      ],
      "name": "Initialized",
      "type": "event"
    },
    {
      "anonymous": false,
      "inputs": [
        {
          "indexed": false,
          "internalType": "address",
          "name": "token",
          "type": "address"
        },
        {
          "indexed": false,
          "internalType": "address",
          "name": "taker",
          "type": "address"
        }
      ],
      "name": "LiquidateTaker",
      "type": "event"
    },
    {
      "anonymous": false,
      "inputs": [
        {
          "indexed": false,
          "internalType": "uint256",
          "name": "dealID",
          "type": "uint256"
        },
        {
          "indexed": false,
          "internalType": "address",
          "name": "token",
          "type": "address"
        },
        {
          "indexed": false,
          "internalType": "address",
          "name": "maker",
          "type": "address"
        },
        {
          "indexed": false,
          "internalType": "uint256",
          "name": "makerID",
          "type": "uint256"
        }
      ],
      "name": "LiquidatedMakerDeal",
      "type": "event"
    },
    {
      "anonymous": false,
      "inputs": [
        {
          "indexed": false,
          "internalType": "uint256",
          "name": "takerDealID",
          "type": "uint256"
        },
        {
          "indexed": false,
          "internalType": "address",
          "name": "token",
          "type": "address"
        },
        {
          "indexed": false,
          "internalType": "address",
          "name": "maker",
          "type": "address"
        },
        {
          "indexed": false,
          "internalType": "enum ICommon.Direct",
          "name": "direct",
          "type": "uint8"
        },
        {
          "indexed": false,
          "internalType": "uint256",
          "name": "size",
          "type": "uint256"
        },
        {
          "indexed": false,
          "internalType": "uint256",
          "name": "price",
          "type": "uint256"
        },
        {
          "indexed": false,
          "internalType": "uint256",
          "name": "makerDealID",
          "type": "uint256"
        },
        {
          "indexed": false,
          "internalType": "uint256",
          "name": "marginAmount",
          "type": "uint256"
        },
        {
          "indexed": false,
          "internalType": "uint256",
          "name": "maintenanceMargin",
          "type": "uint256"
        },
        {
          "indexed": false,
          "internalType": "uint256",
          "name": "flag",
          "type": "uint256"
        }
      ],
      "name": "LockPoolMargin",
      "type": "event"
    },
    {
      "anonymous": false,
      "inputs": [
        {
          "indexed": true,
          "internalType": "address",
          "name": "previousOwner",
          "type": "address"
        },
        {
          "indexed": true,
          "internalType": "address",
          "name": "newOwner",
          "type": "address"
        }
      ],
      "name": "OwnershipTransferred",
      "type": "event"
    },
    {
      "anonymous": false,
      "inputs": [
        {
          "indexed": true,
          "internalType": "address",
          "name": "account",
          "type": "address"
        },
        {
          "indexed": true,
          "internalType": "address",
          "name": "token",
          "type": "address"
        },
        {
          "indexed": false,
          "internalType": "uint256",
          "name": "amount",
          "type": "uint256"
        },
        {
          "indexed": false,
          "internalType": "uint256",
          "name": "share",
          "type": "uint256"
        },
        {
          "indexed": false,
          "internalType": "enum ICommon.PoolFlag",
          "name": "poolType",
          "type": "uint8"
        }
      ],
      "name": "Provide",
      "type": "event"
    },
    {
      "anonymous": false,
      "inputs": [
        {
          "indexed": true,
          "internalType": "address",
          "name": "token",
          "type": "address"
        },
        {
          "indexed": true,
          "internalType": "address",
          "name": "sender",
          "type": "address"
        },
        {
          "indexed": true,
          "internalType": "address",
          "name": "received",
          "type": "address"
        },
        {
          "indexed": false,
          "internalType": "enum ICommon.TransactionType",
          "name": "transactionType",
          "type": "uint8"
        },
        {
          "indexed": false,
          "internalType": "uint256",
          "name": "amount",
          "type": "uint256"
        },
        {
          "indexed": false,
          "internalType": "uint256",
          "name": "timestamp",
          "type": "uint256"
        }
      ],
      "name": "TransactionHistory",
      "type": "event"
    },
    {
      "anonymous": false,
      "inputs": [
        {
          "indexed": true,
          "internalType": "address",
          "name": "account",
          "type": "address"
        },
        {
          "indexed": true,
          "internalType": "address",
          "name": "token",
          "type": "address"
        },
        {
          "indexed": false,
          "internalType": "uint256",
          "name": "amount",
          "type": "uint256"
        },
        {
          "indexed": false,
          "internalType": "uint256",
          "name": "share",
          "type": "uint256"
        },
        {
          "indexed": false,
          "internalType": "enum ICommon.PoolFlag",
          "name": "poolType",
          "type": "uint8"
        }
      ],
      "name": "Withdraw",
      "type": "event"
    },
    {
      "anonymous": false,
      "inputs": [
        {
          "indexed": false,
          "internalType": "address",
          "name": "token",
          "type": "address"
        },
        {
          "indexed": false,
          "internalType": "address",
          "name": "sender",
          "type": "address"
        },
        {
          "indexed": false,
          "internalType": "string",
          "name": "name",
          "type": "string"
        },
        {
          "indexed": false,
          "internalType": "uint256",
          "name": "beforeLeverage",
          "type": "uint256"
        },
        {
          "indexed": false,
          "internalType": "uint256",
          "name": "afterLeverage",
          "type": "uint256"
        }
      ],
      "name": "setLeverage",
      "type": "event"
    },
    {
      "stateMutability": "nonpayable",
      "type": "fallback"
    },
    {
      "inputs": [
        {
          "internalType": "uint256",
          "name": "_dealID",
          "type": "uint256"
        },
        {
          "internalType": "uint256",
          "name": "_amount",
          "type": "uint256"
        }
      ],
      "name": "addMarginAmount",
      "outputs": [],
      "stateMutability": "nonpayable",
      "type": "function"
    },
    {
      "inputs": [],
      "name": "addMarginRatio",
      "outputs": [
        {
          "internalType": "uint256",
          "name": "",
          "type": "uint256"
        }
      ],
      "stateMutability": "view",
      "type": "function"
    },
    {
      "inputs": [
        {
          "internalType": "uint256",
          "name": "_id",
          "type": "uint256"
        },
        {
          "internalType": "uint8",
          "name": "_type",
          "type": "uint8"
        },
        {
          "internalType": "uint256",
          "name": "_profit",
          "type": "uint256"
        },
        {
          "internalType": "uint256",
          "name": "_loss",
          "type": "uint256"
        },
        {
          "internalType": "uint256",
          "name": "_amount",
          "type": "uint256"
        },
        {
          "internalType": "uint256",
          "name": "_price",
          "type": "uint256"
        },
        {
          "internalType": "bool",
          "name": "_transform",
          "type": "bool"
        }
      ],
      "name": "close",
      "outputs": [
        {
          "internalType": "uint256",
          "name": "makerProfit",
          "type": "uint256"
        },
        {
          "internalType": "uint256",
          "name": "makerLoss",
          "type": "uint256"
        },
        {
          "internalType": "bool",
          "name": "isLiquidated",
          "type": "bool"
        },
        {
          "internalType": "bool",
          "name": "isAgreement",
          "type": "bool"
        }
      ],
      "stateMutability": "nonpayable",
      "type": "function"
    },
    {
      "inputs": [],
      "name": "closePeriod",
      "outputs": [
        {
          "internalType": "uint256",
          "name": "",
          "type": "uint256"
        }
      ],
      "stateMutability": "view",
      "type": "function"
    },
    {
      "inputs": [
        {
          "internalType": "address",
          "name": "token",
          "type": "address"
        },
        {
          "internalType": "address",
          "name": "maker",
          "type": "address"
        }
      ],
      "name": "getLP2Account",
      "outputs": [
        {
          "components": [
            {
              "internalType": "address payable",
              "name": "holder",
              "type": "address"
            },
            {
              "internalType": "uint256",
              "name": "amount",
              "type": "uint256"
            },
            {
              "internalType": "uint256",
              "name": "availableAmount",
              "type": "uint256"
            },
            {
              "internalType": "uint256",
              "name": "lockedAmount",
              "type": "uint256"
            },
            {
              "internalType": "uint256",
              "name": "maintenanceMargin",
              "type": "uint256"
            },
            {
              "internalType": "uint256",
              "name": "leverage",
              "type": "uint256"
            },
            {
              "internalType": "uint256",
              "name": "maintenanceMarginRate",
              "type": "uint256"
            },
            {
              "internalType": "uint256",
              "name": "addMarginRate",
              "type": "uint256"
            },
            {
              "internalType": "bool",
              "name": "autoAddMargin",
              "type": "bool"
            },
            {
              "internalType": "bool",
              "name": "isRejectOrder",
              "type": "bool"
            }
          ],
          "internalType": "struct ICommon.LP2Account",
          "name": "",
          "type": "tuple"
        }
      ],
      "stateMutability": "view",
      "type": "function"
    },
    {
      "inputs": [
        {
          "internalType": "address",
          "name": "token",
          "type": "address"
        }
      ],
      "name": "getMakerAddresses",
      "outputs": [
        {
          "internalType": "address[]",
          "name": "",
          "type": "address[]"
        }
      ],
      "stateMutability": "view",
      "type": "function"
    },
    {
      "inputs": [
        {
          "internalType": "uint256",
          "name": "makerDealID",
          "type": "uint256"
        }
      ],
      "name": "getMakerDeal",
      "outputs": [
        {
          "components": [
            {
              "internalType": "string",
              "name": "name",
              "type": "string"
            },
            {
              "internalType": "address",
              "name": "token",
              "type": "address"
            },
            {
              "internalType": "address",
              "name": "makerAddr",
              "type": "address"
            },
            {
              "internalType": "uint256",
              "name": "takerId",
              "type": "uint256"
            },
            {
              "internalType": "uint256",
              "name": "size",
              "type": "uint256"
            },
            {
              "internalType": "uint256",
              "name": "price",
              "type": "uint256"
            },
            {
              "internalType": "enum ICommon.Direct",
              "name": "direct",
              "type": "uint8"
            },
            {
              "internalType": "enum ICommon.DealState",
              "name": "state",
              "type": "uint8"
            },
            {
              "internalType": "uint256",
              "name": "marginAmount",
              "type": "uint256"
            },
            {
              "internalType": "uint256",
              "name": "maintenanceMargin",
              "type": "uint256"
            },
            {
              "internalType": "uint256",
              "name": "time",
              "type": "uint256"
            }
          ],
          "internalType": "struct ICommon.MakerDeal",
          "name": "",
          "type": "tuple"
        }
      ],
      "stateMutability": "view",
      "type": "function"
    },
    {
      "inputs": [],
      "name": "getMakerDealsLength",
      "outputs": [
        {
          "internalType": "uint256",
          "name": "",
          "type": "uint256"
        }
      ],
      "stateMutability": "view",
      "type": "function"
    },
    {
      "inputs": [
        {
          "internalType": "address",
          "name": "token",
          "type": "address"
        }
      ],
      "name": "getShareAddresses",
      "outputs": [
        {
          "internalType": "address[]",
          "name": "",
          "type": "address[]"
        }
      ],
      "stateMutability": "view",
      "type": "function"
    },
    {
      "inputs": [],
      "name": "getTokenList",
      "outputs": [
        {
          "internalType": "address[]",
          "name": "",
          "type": "address[]"
        }
      ],
      "stateMutability": "view",
      "type": "function"
    },
    {
      "inputs": [
        {
          "internalType": "address",
          "name": "token",
          "type": "address"
        },
        {
          "internalType": "address",
          "name": "maker",
          "type": "address"
        }
      ],
      "name": "getUserMakerDealsID",
      "outputs": [
        {
          "internalType": "uint256[]",
          "name": "",
          "type": "uint256[]"
        }
      ],
      "stateMutability": "view",
      "type": "function"
    },
    {
      "inputs": [
        {
          "internalType": "address",
          "name": "token",
          "type": "address"
        },
        {
          "internalType": "address",
          "name": "user",
          "type": "address"
        }
      ],
      "name": "getUserShareAmount",
      "outputs": [
        {
          "internalType": "uint256",
          "name": "",
          "type": "uint256"
        }
      ],
      "stateMutability": "view",
      "type": "function"
    },
    {
      "inputs": [
        {
          "internalType": "address",
          "name": "_riskFundAddr",
          "type": "address"
        }
      ],
      "name": "initialize",
      "outputs": [],
      "stateMutability": "nonpayable",
      "type": "function"
    },
    {
      "inputs": [],
      "name": "leverage",
      "outputs": [
        {
          "internalType": "uint256",
          "name": "",
          "type": "uint256"
        }
      ],
      "stateMutability": "view",
      "type": "function"
    },
    {
      "inputs": [],
      "name": "maintenanceMarginRate",
      "outputs": [
        {
          "internalType": "uint256",
          "name": "",
          "type": "uint256"
        }
      ],
      "stateMutability": "view",
      "type": "function"
    },
    {
      "inputs": [
        {
          "internalType": "uint256",
          "name": "",
          "type": "uint256"
        }
      ],
      "name": "matchIds",
      "outputs": [
        {
          "internalType": "uint256",
          "name": "",
          "type": "uint256"
        }
      ],
      "stateMutability": "view",
      "type": "function"
    },
    {
      "inputs": [
        {
          "components": [
            {
              "internalType": "string",
              "name": "name",
              "type": "string"
            },
            {
              "internalType": "address",
              "name": "token",
              "type": "address"
            },
            {
              "internalType": "address",
              "name": "makerAddr",
              "type": "address"
            },
            {
              "internalType": "uint256",
              "name": "takerId",
              "type": "uint256"
            },
            {
              "internalType": "uint256",
              "name": "size",
              "type": "uint256"
            },
            {
              "internalType": "uint256",
              "name": "price",
              "type": "uint256"
            },
            {
              "internalType": "enum ICommon.Direct",
              "name": "direct",
              "type": "uint8"
            },
            {
              "internalType": "enum ICommon.DealState",
              "name": "state",
              "type": "uint8"
            },
            {
              "internalType": "uint256",
              "name": "marginAmount",
              "type": "uint256"
            },
            {
              "internalType": "uint256",
              "name": "maintenanceMargin",
              "type": "uint256"
            },
            {
              "internalType": "uint256",
              "name": "time",
              "type": "uint256"
            }
          ],
          "internalType": "struct ICommon.MakerDeal",
          "name": "makerDeal",
          "type": "tuple"
        }
      ],
      "name": "newMakerDeal",
      "outputs": [
        {
          "internalType": "uint256",
          "name": "makerDealID",
          "type": "uint256"
        }
      ],
      "stateMutability": "nonpayable",
      "type": "function"
    },
    {
      "inputs": [],
      "name": "owner",
      "outputs": [
        {
          "internalType": "address",
          "name": "",
          "type": "address"
        }
      ],
      "stateMutability": "view",
      "type": "function"
    },
    {
      "inputs": [
        {
          "internalType": "address",
          "name": "",
          "type": "address"
        }
      ],
      "name": "poolType",
      "outputs": [
        {
          "internalType": "enum ICommon.PoolFlag",
          "name": "",
          "type": "uint8"
        }
      ],
      "stateMutability": "view",
      "type": "function"
    },
    {
      "inputs": [
        {
          "internalType": "address",
          "name": "",
          "type": "address"
        },
        {
          "internalType": "string",
          "name": "",
          "type": "string"
        },
        {
          "internalType": "uint256",
          "name": "",
          "type": "uint256"
        }
      ],
      "name": "positions",
      "outputs": [
        {
          "internalType": "uint256",
          "name": "value",
          "type": "uint256"
        },
        {
          "internalType": "uint256",
          "name": "size",
          "type": "uint256"
        }
      ],
      "stateMutability": "view",
      "type": "function"
    },
    {
      "inputs": [],
      "name": "privateMinMintAmount",
      "outputs": [
        {
          "internalType": "uint256",
          "name": "",
          "type": "uint256"
        }
      ],
      "stateMutability": "view",
      "type": "function"
    },
    {
      "inputs": [
        {
          "internalType": "address",
          "name": "_token",
          "type": "address"
        },
        {
          "internalType": "uint256",
          "name": "_amount",
          "type": "uint256"
        },
        {
          "internalType": "enum ICommon.PoolFlag",
          "name": "_priOrPub",
          "type": "uint8"
        },
        {
          "internalType": "string[]",
          "name": "_symbols",
          "type": "string[]"
        },
        {
          "internalType": "bytes[]",
          "name": "_prices",
          "type": "bytes[]"
        }
      ],
      "name": "provide",
      "outputs": [],
      "stateMutability": "payable",
      "type": "function"
    },
    {
      "inputs": [],
      "name": "renounceOwnership",
      "outputs": [],
      "stateMutability": "nonpayable",
      "type": "function"
    },
    {
      "inputs": [
        {
          "internalType": "uint256",
          "name": "_value",
          "type": "uint256"
        }
      ],
      "name": "setClosePeriod",
      "outputs": [],
      "stateMutability": "nonpayable",
      "type": "function"
    },
    {
      "inputs": [
        {
          "internalType": "address",
          "name": "_perpetual",
          "type": "address"
        },
        {
          "internalType": "address",
          "name": "_orderBook",
          "type": "address"
        },
        {
          "internalType": "address",
          "name": "_tradeAgent",
          "type": "address"
        },
        {
          "internalType": "address",
          "name": "_tradeStation",
          "type": "address"
        },
        {
          "internalType": "address",
          "name": "_poolAgent",
          "type": "address"
        },
        {
          "internalType": "address",
          "name": "_keeper",
          "type": "address"
        }
      ],
      "name": "setKeepers",
      "outputs": [],
      "stateMutability": "nonpayable",
      "type": "function"
    },
    {
      "inputs": [
        {
          "internalType": "address",
          "name": "_token",
          "type": "address"
        },
        {
          "internalType": "enum ICommon.PoolFlag",
          "name": "_flag",
          "type": "uint8"
        }
      ],
      "name": "setPoolType",
      "outputs": [],
      "stateMutability": "nonpayable",
      "type": "function"
    },
    {
      "inputs": [
        {
          "internalType": "uint256",
          "name": "_value",
          "type": "uint256"
        }
      ],
      "name": "setPrivateMinMintAmount",
      "outputs": [],
      "stateMutability": "nonpayable",
      "type": "function"
    },
    {
      "inputs": [
        {
          "internalType": "address",
          "name": "_token",
          "type": "address"
        },
        {
          "internalType": "uint256",
          "name": "_leverage",
          "type": "uint256"
        },
        {
          "internalType": "bool",
          "name": "_isRejectOrder",
          "type": "bool"
        },
        {
          "internalType": "bool",
          "name": "_autoAddMargin",
          "type": "bool"
        }
      ],
      "name": "setUserParam",
      "outputs": [],
      "stateMutability": "nonpayable",
      "type": "function"
    },
    {
      "inputs": [
        {
          "internalType": "address",
          "name": "",
          "type": "address"
        },
        {
          "internalType": "enum ICommon.PoolFlag",
          "name": "",
          "type": "uint8"
        }
      ],
      "name": "totalLockedLiquidity",
      "outputs": [
        {
          "internalType": "uint256",
          "name": "",
          "type": "uint256"
        }
      ],
      "stateMutability": "view",
      "type": "function"
    },
    {
      "inputs": [
        {
          "internalType": "address",
          "name": "newOwner",
          "type": "address"
        }
      ],
      "name": "transferOwnership",
      "outputs": [],
      "stateMutability": "nonpayable",
      "type": "function"
    },
    {
      "inputs": [
        {
          "internalType": "address",
          "name": "_token",
          "type": "address"
        },
        {
          "internalType": "uint256",
          "name": "_amount",
          "type": "uint256"
        },
        {
          "internalType": "enum ICommon.PoolFlag",
          "name": "_priOrPub",
          "type": "uint8"
        },
        {
          "internalType": "string[]",
          "name": "_symbols",
          "type": "string[]"
        },
        {
          "internalType": "bytes[]",
          "name": "_prices",
          "type": "bytes[]"
        }
      ],
      "name": "withdraw",
      "outputs": [],
      "stateMutability": "payable",
      "type": "function"
    }
  ],
  "bytecode": "0x608080604052346015576146fe908161001a8239f35b5f80fdfe60806040526004361015610019575b3461001557005b5f80fd5b5f5f3560e01c8063017364e81461192b57806302996994146118465780630c8c3516146117b35780631f92a4da14611796578063249a6ee71461130c578063273cbaa0146112985780632c86d98e1461127b57806336ff6a70146112515780633b3de031146111fa5780634e091b22146111c9578063507a7328146111ac5780635a92c6281461113a5780635baf45fb146110bc57806360d32e8d14610f04578063669e01ee14610eea578063715018a614610e53578063859d90a314610db257806389f00b6d14610d955780638da5cb5b14610d505780639409b02914610d1b578063aa2eea1814610cea578063ba0efe0314610ccd578063c0a1483114610c8b578063c23e629f14610a75578063c4d66de8146107cd578063d5e008d214610727578063d7496060146106d9578063f26a3e1d14610320578063f2da708d14610302578063f2fde38b146102d55763f74c304914610179575061000e565b346102d25760c06003193601126102d257610192611943565b61019a611959565b90604435906001600160a01b03821680920361001557606435916001600160a01b03831680930361001557608435916001600160a01b0383168093036100155760a435946001600160a01b038616809603610015576001600160a01b0380926102016131ed565b16806001600160a01b031960075416176007558752600f60205260408720600160ff1982541617905516806001600160a01b031960085416176008558552600f60205260408520600160ff19825416179055806001600160a01b031960095416176009558452600f60205260408420600160ff19825416179055806001600160a01b0319600a541617600a558352600f60205260408320600160ff198254161790558252600f60205260408220600160ff198254161790558152600f60205260408120600160ff1982541617905580f35b80fd5b50346102d25760206003193601126102d2576102ff6102f2611943565b6102fa6131ed565b6129a1565b80f35b50346102d257806003193601126102d2576020601354604051908152f35b50346102d25760e06003193601126102d257600435906024359060ff82168092036102d25760c43580151580910361001557338252600f60205261036a60ff604084205416612398565b838252601960205260408220545f1981019081116106c5576001600160a01b03600261039583612409565b50015416936001600160a01b0360016103ad84612409565b50015416918285526011602052604085206001600160a01b0387165f5260205260405f2061012060ff6008604051936103e5856119a0565b6001600160a01b03815416855260018101546020860152600281015460408601526003810154606086015260048101546080860152600581015460a0860152600681015460c0860152600781015460e08601520154818116151561010085015260081c1615159101527f55a05fded01868e623bc311ab3e73d3cec2f0871392b36317648452d989ed1ce61010061047c8886612882565b6020810151906040810151906080606082015191015190885f52601060205260405f206001600160a01b038d165f5260205260405f205492604051948a86528d602087015260408601526060850152608084015260a083015260c0820152600a60e0820152a1604051926101a084019184831067ffffffffffffffff8411176106b1576080987f55a05fded01868e623bc311ab3e73d3cec2f0871392b36317648452d989ed1ce9461010094604052888752602087019789895260408801526060870152828a87015260a086015260c085015260443560e08501526064358285015260843561012085015260a4356101408501526101608401968688526040610180860198888a5261058d8761324c565b5198519551151596511515978381526011602052206001600160a01b0382165f5260205260405f2061012060ff6008604051936105c9856119a0565b6001600160a01b03815416855260018101546020860152600281015460408601526003810154606086015260048101548e860152600581015460a0860152600681015460c0860152600781015460e0860152015481811615158785015260081c1615159101526106398183612882565b60208101519060408101518b606083015192015192855f52601060205260405f206001600160a01b0386165f5260205260405f2054946040519687526020870152604086015260608501528a84015260a083015260c0820152601460e0820152a1604051938452602084015260408301526060820152f35b634e487b7160e01b5f52604160045260245ffd5b602483634e487b7160e01b81526011600452fd5b50346102d25760406003193601126102d2576001600160a01b0360406106fd611943565b9282610707611959565b9416815260106020522091165f52602052602060405f2054604051908152f35b50346102d25760406003193601126102d257610741611943565b6001600160a01b03610751611959565b9116825260126020526001600160a01b036040832091165f5260205260405f20604051918260208354918281520192825260208220915b8181106107b7576107b38561079f818703826119bd565b604051918291602083526020830190611c60565b0390f35b8254845260209093019260019283019201610788565b34610015576020600319360112610015576107e6611943565b7ff0c57e16840df040f15088dc2f81fe391c3923bec73e23a9662efc9c229c6a005460ff8160401c16159167ffffffffffffffff821680159081610a6d575b6001149081610a63575b159081610a5a575b50610a3257818360017fffffffffffffffffffffffffffffffffffffffffffffffff00000000000000006001600160a01b039516177ff0c57e16840df040f15088dc2f81fe391c3923bec73e23a9662efc9c229c6a00556109dd575b5061089c613a3c565b6108a4613a3c565b6108ad336129a1565b166001600160a01b03196006541617600655306001600160a01b03196015541617601555305f52600f60205260405f20600160ff19825416179055335f52600f60205260405f20600160ff19825416179055600160ff195f5416175f55670de0b6b3a7640000600155600a600555670de0b6b3a7640000601655600a60025567016345785d8a000060035567016345785d8a000060045561094a57005b7fffffffffffffffffffffffffffffffffffffffffffffff00ffffffffffffffff7ff0c57e16840df040f15088dc2f81fe391c3923bec73e23a9662efc9c229c6a0054167ff0c57e16840df040f15088dc2f81fe391c3923bec73e23a9662efc9c229c6a00557fc7f505b2f371ae2175ee4913f4499e1f2633a7b5936321eed1cdaeb6115181d2602060405160018152a1005b7fffffffffffffffffffffffffffffffffffffffffffffff0000000000000000001668010000000000000001177ff0c57e16840df040f15088dc2f81fe391c3923bec73e23a9662efc9c229c6a005583610893565b7ff92ee8a9000000000000000000000000000000000000000000000000000000005f5260045ffd5b90501584610837565b303b15915061082f565b849150610825565b3461001557604060031936011261001557602435600435610a9581612409565b5060018101906001600160a01b038254165f52601160205260405f206001600160a01b0333165f5260205260405f20916001600160a01b03600283015416338103610c47576002840193845491878310610c035760ff600686015460081c166006811015610bef5760018114908115610be4575b5015610ba05760076001600160a01b039560038a947fc8f742aa90a6e6851d2252fa58ed695d3ca295b55bf5f1c2164a360cc8a093e299610b4d87610b7499611d0f565b905501610b5b858254611d30565b905501610b69838254611d30565b905584845416612d61565b5416926007610b8284612409565b500154604080519485526020850192909252908301523391606090a3005b606460405162461bcd60e51b815260206004820152601660248201527f4c6971756964697479207374617475732077726f6e67000000000000000000006044820152fd5b600291501489610b09565b634e487b7160e01b5f52602160045260245ffd5b606460405162461bcd60e51b815260206004820152601060248201527f45786365656420617661696c61626c65000000000000000000000000000000006044820152fd5b606460405162461bcd60e51b815260206004820152600960248201527f4e6f74206d616b657200000000000000000000000000000000000000000000006044820152fd5b34610015576020600319360112610015576001600160a01b03610cac611943565b165f526014602052602060ff60405f205416610ccb6040518092611c53565bf35b34610015575f600319360112610015576020600354604051908152f35b3461001557602060031936011261001557335f52600f602052610d1360ff60405f205416612398565b600435600555005b34610015576020610d476001600160a01b03610d3636611bdc565b91165f526017835260405f20611c3d565b54604051908152f35b34610015575f6003193601126100155760206001600160a01b037f9016d09d72d40fdae2fd8ceac6b6234c7706214fd39c1cd1e609a0528c1993005416604051908152f35b34610015575f600319360112610015576020600454604051908152f35b3461001557604060031936011261001557610140610ddf610dd1611943565b610dd9611959565b90612882565b610120604051916001600160a01b0381511683526020810151602084015260408101516040840152606081015160608401526080810151608084015260a081015160a084015260c081015160c084015260e081015160e0840152610100810151151561010084015201511515610120820152f35b34610015575f60031936011261001557610e6b6131ed565b5f6001600160a01b037f9016d09d72d40fdae2fd8ceac6b6234c7706214fd39c1cd1e609a0528c199300546001600160a01b031981167f9016d09d72d40fdae2fd8ceac6b6234c7706214fd39c1cd1e609a0528c19930055167f8be0079c531659141344cd1fd0a4f28419497f9722a3daafe3b4186f6b6457e08280a3005b610f02610ef636611a68565b94939093929192612546565b005b34610015576020600319360112610015575f610140604051610f2581611983565b606081528260208201528260408201528260608201528260808201528260a08201528260c08201528260e082015282610100820152826101208201520152610f6e600435612409565b5060405190610f7c82611983565b610f858161245d565b82526001600160a01b03600182015416602083019081526001600160a01b036002830154166040840190815260038301549260608501938452600481015460808601908152600582015460a0870190815260068301549060ff821660c08901926003821015610bef5760ff91845260081c169260e08901936006811015610bef5784526007850154976101008a019889526008860154956101208b0196875260090154966101408b019788526040519a60208c525160208c0161016090526101808c0161105191611c0b565b98516001600160a01b031660408c0152516001600160a01b031660608b01525160808a01525160a08901525160c08801525160e0870161109091611c30565b51936006851015610bef5785946101008601525161012085015251610140840152516101608301520390f35b34610015576020600319360112610015576001600160a01b036110dd611943565b165f52600e60205260405f206040519081602082549182815201915f5260205f20905f5b818110611124576107b385611118818703826119bd565b60405191829182611b9a565b8254845260209093019260019283019201611101565b34610015576020600319360112610015576001600160a01b0361115b611943565b165f52600d60205260405f206040519081602082549182815201915f5260205f20905f5b818110611196576107b385611118818703826119bd565b825484526020909301926001928301920161117f565b34610015575f600319360112610015576020600554604051908152f35b3461001557602060031936011261001557335f52600f6020526111f260ff60405f205416612398565b600435601655005b34610015576001600160a01b0361121036611bdc565b9190335f52600f60205261122a60ff60405f205416612398565b165f52601460205260405f20906004811015610bef5760ff60ff1983541691161790555f80f35b34610015576020600319360112610015576004355f526019602052602060405f2054604051908152f35b34610015575f600319360112610015576020600254604051908152f35b34610015575f60031936011261001557604051806020600b54918281520190600b5f527f0175b7a638427703f0dbe7bb9bbf987a2551717b34e79f33b5b1008d1fa01db9905f5b8181106112f6576107b385611118818703826119bd565b82548452602090930192600192830192016112df565b346100155760206003193601126100155760043567ffffffffffffffff8111610015576101606003198236030112610015576040519061134b82611983565b806004013567ffffffffffffffff81116100155761136f9060043691840101611a4a565b825261137d6024820161196f565b602083015261138e6044820161196f565b6040830152606481013560608301526084810135608083015260a481013560a083015260c481013560038110156100155760c083015260e4810135906006821015610015576101449160e08401526101048101356101008401526101248101356101208401520135610140820152335f52600f60205261141460ff60405f205416612398565b61142961010082015161012083015190611d30565b61144f816001600160a01b036020850151166001600160a01b0360408601511690612d61565b601354906001600160a01b036020840151165f52601260205260405f206001600160a01b0380604086015116165f5260205261148e8260405f20612e28565b50601354680100000000000000008110156106b1578060016114b39201601355612409565b61178357835180519067ffffffffffffffff82116106b15781906114d78454612425565b601f8111611736575b50602090601f83116001146116cf575f926116c4575b50508160011b915f199060031b1c19161781555b6001600160a01b036020850151166001600160a01b036001830191166001600160a01b03198254161790556001600160a01b036040850151166001600160a01b036002830191166001600160a01b0319825416179055606084015160038201556080840151600482015560a084015160058201556006810160c08501516003811015610bef5760ff60ff19835416911617815560e08501516006811015610bef5761ff001961ff0083549260081b16911617905561010084015160078201556101208401516008820155600961014085015191015560135460608401515f52601960205260405f20556001600160a01b036020840151165f52601160205260405f206001600160a01b0380604086015116165f5260205261165b600260405f2060038101611639858254611d30565b905560048101611650815461012089015190611d30565b905501918254611d0f565b90556001600160a01b036040830151166001600160a01b036015541614611688575b602090604051908152f35b6001600160a01b0360208301511682519060c0840151936003851015610bef576020946116bf9360a0608084015193015193612f57565b61167d565b0151905086806114f6565b9250835f52805f20905f935b601f198416851061171b576001945083601f19811610611703575b505050811b01815561150a565b01515f1960f88460031b161c191690558680806116f6565b818101518355602094850194600190930192909101906116db565b909150835f5260205f20601f840160051c81016020851061177c575b90849392915b601f830160051c8201811061176e5750506114e0565b5f8155859450600101611758565b5080611752565b634e487b7160e01b5f525f60045260245ffd5b34610015575f600319360112610015576020601654604051908152f35b34610015576060600319360112610015576117cc611943565b60243567ffffffffffffffff81116100155760206117ef81923690600401611a4a565b6001600160a01b0360443594165f526018825260405f20604051938285935191829101845e82019081520301902060028210156100155760409161183291611b73565b506001815491015482519182526020820152f35b346100155760806003193601126100155761185f611943565b60243590604435801515810361001557606435918215158303610015576001600160a01b03165f52601160205260405f206001600160a01b0333165f5260205260405f20606484116118e757600881610f029560056118d59401550191829061ff001961ff00835492151560081b169116179055565b9060ff60ff1983541691151516179055565b606460405162461bcd60e51b815260206004820152600c60248201527f6f7574206f6620302d31303000000000000000000000000000000000000000006044820152fd5b610f0261193736611a68565b94939093929192611d5d565b600435906001600160a01b038216820361001557565b602435906001600160a01b038216820361001557565b35906001600160a01b038216820361001557565b610160810190811067ffffffffffffffff8211176106b157604052565b610140810190811067ffffffffffffffff8211176106b157604052565b90601f601f19910116810190811067ffffffffffffffff8211176106b157604052565b67ffffffffffffffff81116106b15760051b60200190565b67ffffffffffffffff81116106b157601f01601f191660200190565b929192611a20826119f8565b91611a2e60405193846119bd565b829481845281830111610015578281602093845f960137010152565b9080601f8301121561001557816020611a6593359101611a14565b90565b9060a0600319830112610015576004356001600160a01b03811681036100155791602435916044356004811015610015579160643567ffffffffffffffff81116100155781602382011215610015578060040135611ac5816119e0565b91611ad360405193846119bd565b8183526024602084019260051b820101918483116100155760248201905b838210611b4457505050509160843567ffffffffffffffff811161001557826023820112156100155780600401359267ffffffffffffffff84116100155760248460051b83010111610015576024019190565b813567ffffffffffffffff811161001557602091611b688860248594880101611a4a565b815201910190611af1565b906002811015611b865760011b01905f90565b634e487b7160e01b5f52603260045260245ffd5b60206040818301928281528451809452019201905f5b818110611bbd5750505090565b82516001600160a01b0316845260209384019390920191600101611bb0565b6003196040910112610015576004356001600160a01b0381168103610015579060243560048110156100155790565b90601f19601f602080948051918291828752018686015e5f8582860101520116010190565b906003821015610bef5752565b906004811015610bef575f5260205260405f2090565b906004821015610bef5752565b90602080835192838152019201905f5b818110611c7d5750505090565b8251845260209384019390920191600101611c70565b929192611c9f826119e0565b93611cad60405195866119bd565b602085848152019260051b8201918183116100155780935b838510611cd3575050505050565b843567ffffffffffffffff811161001557820183601f8201121561001557602091611d048583858095359101611a14565b815201940193611cc5565b91908203918211611d1c57565b634e487b7160e01b5f52601160045260245ffd5b91908201809211611d1c57565b604090611d5b93959492956060820196825260208201520190611c53565b565b9290936001600160a01b03841695865f52601460205260ff60405f2054166004811015610bef5715801561236e575b1561232a57611da691611da0913691611c93565b82612ab4565b906004831015610bef576001830361200157855f52601060205260405f206001600160a01b0333165f5260205260405f20548511611fbd57855f52601060205260405f206001600160a01b0333165f5260205260405f20611e08868254611d0f565b9055855f52601060205260405f206001600160a01b0333165f5260205260405f205460165411611f5c575b611e44611e5392611e4a928661387a565b85612970565b60015490612983565b92845f52601160205260405f206001600160a01b038060155416165f5260205260405f20926002840193845491828711611f18577fe3f01f60e44135eef0110076e0ac4ed71eb05f55d66bac78629ddec52a56209a95611ec888611f02956001829601611ec1838254611d0f565b9055611d0f565b9055875f52601060205260405f206001600160a01b038060155416165f5260205260405f20611ef8858254611d0f565b90555b3390612c5f565b611f13604051928392339684611d3d565b0390a3565b606460405162461bcd60e51b815260206004820152601c60248201527f776974686472617720616d6f756e7420697320746f6f206c61726765000000006044820152fd5b93611e44611e5392611f91611e4a93895f52601060205260405f206001600160a01b0333165f5260205260405f205490611d30565b96885f52601060205260405f206001600160a01b0333165f526020525f60408120559250925050611e33565b606460405162461bcd60e51b815260206004820152601260248201527f736861726520697320746f6f206c6172676500000000000000000000000000006044820152fd5b50919291506002810361232457835f52601160205260405f206001600160a01b0333165f5260205260405f20916040519261203b846119a0565b6001600160a01b0381541684526001810154906020850191825260028101549060408601828152600382015493606088019485526004830154976080810198895260058401549360a08201948552600681015460c08301908152600860078301549260e0850193845201549561010084019760ff88161515895260ff61012086019860081c16151588528a116122e0576120d68a8651611d0f565b85526120e38a8751611d0f565b8652885115806122d6575b806122ca575b6122b4575b8451806121a157505050505050505050507fe3f01f60e44135eef0110076e0ac4ed71eb05f55d66bac78629ddec52a56209a9250845f52600e6020526121423360405f206137b5565b50845f52601160205260405f206001600160a01b0333165f526020525f60086040822082815582600182015582600282015582600382015582600482015582600582015582600682015582600782015501555b92611f02845f92611efb565b60165411612270577fe3f01f60e44135eef0110076e0ac4ed71eb05f55d66bac78629ddec52a56209a9b61226b998f97600897612254995f52601160205260405f206001600160a01b0333165f526020526001600160a01b038060405f20995116166001600160a01b03198954161788555160018801555160028701555160038601555160048501555160058401555160068301555160078201550192511515839060ff60ff1983541691151516179055565b51815461ff00191690151560081b61ff0016179055565b612195565b606460405162461bcd60e51b815260206004820152601860248201527f7374617920616d6f756e7420697320746f6f20736d616c6c00000000000000006044820152fd5b986122c190855190611d30565b985f85526120f9565b508451601654116120f4565b50845115156120ee565b606460405162461bcd60e51b815260206004820152601360248201527f616d6f756e7420697320746f6f206c61726765000000000000000000000000006044820152fd5b50505050565b606460405162461bcd60e51b815260206004820152601360248201527f77726f6e6720776974686472617720666c6167000000000000000000000000006044820152fd5b50865f52601460205260ff60405f2054166004851015610bef576004811015610bef578414611d8c565b1561239f57565b608460405162461bcd60e51b815260206004820152602160248201527f63616c6c6572206973206e6f74207072697661746520706f6f6c206b6565706560448201527f72000000000000000000000000000000000000000000000000000000000000006064820152fd5b601354811015611b865760135f52600a60205f20910201905f90565b90600182811c92168015612453575b602083101461243f57565b634e487b7160e01b5f52602260045260245ffd5b91607f1691612434565b9060405191825f82549261247084612425565b80845293600181169081156124d95750600114612495575b50611d5b925003836119bd565b90505f9291925260205f20905f915b8183106124bd575050906020611d5b928201015f612488565b60209193508060019154838589010152019101909184926124a4565b60209350611d5b95925060ff1991501682840152151560051b8201015f612488565b1561250257565b606460405162461bcd60e51b815260206004820152600960248201527f746f6f20736d616c6c00000000000000000000000000000000000000000000006044820152fd5b929390935f916001600160a01b03851696875f52601460205260ff60405f2054166004811015610bef57158015612858575b156128145761258c91611da0913691611c93565b91612599863033886130bd565b6004841015610bef576001840361273057509261260b612611927f8f482ec08235be52bb3abe471d37e58a4a0e31a05eb148064c014f71caa7e5f7956125e36001548910156124fb565b885f52600d6020526125f83360405f206139e4565b5061260560015489612970565b9361387a565b90612983565b845f52601160205260405f206001600160a01b038060155416165f5260205260405f2060018101612643868254611d30565b905560028101612654868254611d30565b9055855f52601060205260405f206001600160a01b038060155416165f5260205260405f20612684838254611d30565b9055855f52601060205260405f206001600160a01b0333165f5260205260405f206126b0838254611d30565b90556001600160a01b03815416156126f7575b505b845f52600c60205260405f2054156126e857611f13604051928392339684611d3d565b6126f18561398a565b50611f02565b60088101600160ff19825416179055600a60058201556001600160a01b038060155416166001600160a01b03198254161790555f6126c3565b9350505060028103612324577f8f482ec08235be52bb3abe471d37e58a4a0e31a05eb148064c014f71caa7e5f79161276c6016548510156124fb565b845f52601160205260405f206001600160a01b0333165f52602052600260405f20865f52600e6020526127b03360405f206001915f520160205260405f2054151590565b156127da575b600181016127c5878254611d30565b9055016127d3858254611d30565b90556126c5565b865f52600e6020526127ef3360405f206139e4565b5060088101805460ff1916600117905580546001600160a01b031916331781556127b6565b606460405162461bcd60e51b815260206004820152601260248201527f77726f6e67206465706f73697420666c616700000000000000000000000000006044820152fd5b50875f52601460205260ff60405f2054166004861015610bef576004811015610bef578514612578565b6001600160a01b03905f61012060405161289b816119a0565b8281528260208201528260408201528260608201528260808201528260a08201528260c08201528260e0820152826101008201520152165f5260116020526001600160a01b0360405f2091165f5260205260405f2060ff600860405192612901846119a0565b6001600160a01b03815416845260018101546020850152600281015460408501526003810154606085015260048101546080850152600581015460a0850152600681015460c0850152600781015460e08501520154818116151561010084015260081c16151561012082015290565b81810292918115918404141715611d1c57565b811561298d570490565b634e487b7160e01b5f52601260045260245ffd5b6001600160a01b03168015612a30576001600160a01b037f9016d09d72d40fdae2fd8ceac6b6234c7706214fd39c1cd1e609a0528c19930054826001600160a01b03198216177f9016d09d72d40fdae2fd8ceac6b6234c7706214fd39c1cd1e609a0528c19930055167f8be0079c531659141344cd1fd0a4f28419497f9722a3daafe3b4186f6b6457e05f80a3565b7f1e4fbdf7000000000000000000000000000000000000000000000000000000005f525f60045260245ffd5b9080602083519182815201916020808360051b8301019401925f915b838310612a8757505050505090565b9091929394602080612aa583601f1986600196030187528951611c0b565b97019301930191939290612a78565b90612b00916001600160a01b0360075416916040519384927fb5c926f4000000000000000000000000000000000000000000000000000000008452604060048501526044840190612a5c565b600319838203016024840152815180825260208201916020808360051b8301019401925f915b838310612be75750505050509181805f94039134905af1908115612bdc575f91612b4e575090565b90503d805f833e612b5f81836119bd565b8101906020818303126100155780519067ffffffffffffffff821161001557019080601f83011215610015578151612b96816119e0565b92612ba460405194856119bd565b81845260208085019260051b82010192831161001557602001905b828210612bcc5750505090565b8151815260209182019101612bbf565b6040513d5f823e3d90fd5b919395509193602080612c0683601f1986600196030187528951611c0b565b97019301930190928795949293612b26565b3d15612c42573d90612c29826119f8565b91612c3760405193846119bd565b82523d5f602084013e565b606090565b90816020910312610015575180151581036100155790565b91611e4a612c7e91612c78612c7386613e73565b61397c565b90612970565b9182612c8957505050565b5f928380937fffffffff0000000000000000000000000000000000000000000000000000000060196020604051612cc16040826119bd565b828152017f7472616e7366657228616464726573732c75696e74323536290000000000000081522016926001600160a01b036040519260208401958652166024830152604482015260448152612d186064826119bd565b51925af1612d24612c18565b81612d32575b501561001557565b8051801592508215612d47575b50505f612d2a565b612d5a9250602080918301019101612c47565b5f80612d3f565b90612db8916002916001600160a01b038060155416911614612dbb575b6001600160a01b03612da7911693845f526017602052612da18360405f20611c3d565b54611d30565b925f52601760205260405f20611c3d565b55565b60019150612d7e565b90612db8916002916001600160a01b038060155416911614612e0a575b6001600160a01b03612da7911693845f526017602052612e048360405f20611c3d565b54611d0f565b60019150612de1565b8054821015611b86575f5260205f2001905f90565b906001820191815f528260205260ff60405f205416612f50575f908054805b808410612f0f5750680100000000000000008110156106b157612e8a612e74826001879401855584612e13565b819391549060031b91821b915f19901b19161790565b905580545f198101908111611d1c57908392915b828111612ece5750612eb391612e7491612e13565b90555f5260205260405f20600160ff19825416179055600190565b919250905f198101818111611d1c57612ee79083612e13565b90549060031b1c612efb612e748385612e13565b90558015611d1c57839291905f1901612e9e565b92612f1a8482611d30565b60011c9085612f298386612e13565b90549060031b1c105f14612f49575060018101809111611d1c5792612e47565b9350612e47565b5050505f90565b6020916001600160a01b038392969596165f526018825260405f20604051938285935191829101845e820190815203019020906003811015610bef5760ff5f199116019160ff8311611d1c57612fd3612fcb612fc3612fbb612fde96600196611b73565b509387612970565b845490612983565b825490611d30565b815501918254611d30565b9055565b602092939450906001600160a01b038392165f526018825260405f20604051938285935191829101845e820190815203019020906003811015610bef5760ff5f1991160160ff8111611d1c5761303791611b73565b506001810191825480821161307957808203613057575050905f80925555565b82611ec1612fde94546130738461306e8784612970565b612983565b90611d0f565b606460405162461bcd60e51b815260206004820152601c60248201527f736861726520616d6f756e7420697320696e73756666696369656e74000000006044820152fd5b909192611e4a6130d391612c78612c7385613e73565b92836130df5750505050565b5f80949381946001600160a01b037fffffffff00000000000000000000000000000000000000000000000000000000602560405161311e6060826119bd565b8181527f7432353629000000000000000000000000000000000000000000000000000000604060208301927f7472616e7366657246726f6d28616464726573732c616464726573732c75696e8452015220169481604051946020860197885216602485015216604483015260648201526064815261319d6084826119bd565b51925af16131a9612c18565b816131be575b5015610015575f808080612324565b80518015925082156131d3575b50505f6131af565b6131e69250602080918301019101612c47565b5f806131cb565b6001600160a01b037f9016d09d72d40fdae2fd8ceac6b6234c7706214fd39c1cd1e609a0528c1993005416330361322057565b7f118cdaa7000000000000000000000000000000000000000000000000000000005f523360045260245ffd5b61325960c0820151612409565b50906001600160a01b03600183015416805f52601160205260405f20906001600160a01b03600285015416916001600160a01b0383165f5260205260405f20916132aa600986015460055490611d30565b421061377157606084015160ff1660010361340e5750506132cc908383613a93565b61340a577f181dbc3ad559b63759679084b2e0d8268b879a2556fb002571b357ce36b9916191610160915b610120810151916002906001600160a01b036002820154169260048201548086148015613402575b6133f6575b50606081015160ff166133cf576015546001600160a01b031684036133c65760ff60035b16935b60038301549560ff60066001600160a01b03600187015416950154169061339d6101408501519260c0860151946101808c880151970151976040519b8c5260208c015260408b015260608a0190611c30565b608088015260a087015260c086015260e0850152610100840152610120830152610140820152a1565b60ff6001613348565b6015546001600160a01b031684036133ed5760ff60025b169361334b565b60ff60046133e6565b9450600192505f613324565b50851561331f565b5050565b907f181dbc3ad559b63759679084b2e0d8268b879a2556fb002571b357ce36b99161949261016094926001600160a01b036015541614613732575b6101208301516136a2576006840161030061ff00198254161790556007840154916134f86134b060088701548095845f52601260205260405f206001600160a01b038060028c015416165f526020526134aa60405f2060c08a015190613eff565b50611d30565b60028401946134c0828754611d30565b8655600385016134d1838254611d0f565b90556134e260048601918254611d0f565b90556001600160a01b0360028801541683612dc4565b60e08401805190919015613629578151610180860190808252855481115f146135d75750915f9493916001936040880151613552575b5050500161353f8154835490611d0f565b90555560018152600160208201526132f7565b6135a56135b9935161356688548092611d0f565b9061357085613fe0565b8083116135c1575b5050613592816001600160a01b03600654163090876130bd565b306001600160a01b036006541685614135565b6001600160a01b0360075416905191612c5f565b5f808061352e565b6135ce9192508092611d30565b83525f80613578565b61360594929150604087015161360c575b50506135fb600183519201918254611d0f565b9055518254611d0f565b90556132f7565b613622916001600160a01b036007541690612c5f565b5f806135e8565b905061010084939293019283519182613647575b50505050506132f7565b6001926040870151613684575b5050016136648154845190611d30565b90556136738154835190611d30565b905551838201525f8080808061363d565b61369b916001600160a01b036007541630916130bd565b5f80613654565b61370f916006850161020061ff00198254161790556134f86134b061371760078801546137286136d76101208a015183612970565b6136e660048c01548092612983565b9384938b8d60076137058661306e610120600886015496015186612970565b9d8e998a95611d0f565b910155611d0f565b60088c01556101208a015190611d0f565b60048a0155611d30565b6101208301518015613766575b6137619060ff6006870154169060058701549161375b8861245d565b86612fe2565b613449565b50600484015461373f565b606460405162461bcd60e51b815260206004820152601760248201527f63616e6e6f7420636c6f7365206d616b6572206465616c0000000000000000006044820152fd5b906001820191815f528260205260405f20548015155f14613872575f198101818111611d1c5782545f19810191908211611d1c5781810361383d575b50505080548015613829575f19019061380a8282612e13565b8154905f199060031b1b19169055555f526020525f6040812055600190565b634e487b7160e01b5f52603160045260245ffd5b61385d61384d612e749386612e13565b90549060031b1c92839286612e13565b90555f528360205260405f20555f80806137f1565b505050505f90565b906138d7926001600160a01b0360a0936138e982600a541693604051978896879586957f70bcbca2000000000000000000000000000000000000000000000000000000008752166004860152606060248601526064850190612a5c565b90600319848303016044850152611c60565b03915afa8015612bdc575f90613903575b60809150015190565b5060a0813d60a011613974575b8161391d60a093836119bd565b810103126100155760405160a0810181811067ffffffffffffffff8211176106b1576080928391604052805183526020810151602084015260408101516040840152606081015160608401520151828201526138fa565b3d9150613910565b604d8111611d1c57600a0a90565b805f52600c60205260405f2054155f146139df57600b54680100000000000000008110156106b1576139c8612e74826001859401600b55600b612e13565b9055600b54905f52600c60205260405f2055600190565b505f90565b5f828152600182016020526040902054613a3657805490680100000000000000008210156106b15782613a21612e74846001809601855584612e13565b90558054925f520160205260405f2055600190565b50505f90565b60ff7ff0c57e16840df040f15088dc2f81fe391c3923bec73e23a9662efc9c229c6a005460401c1615613a6b57565b7fd7e6bcf8000000000000000000000000000000000000000000000000000000005f5260045ffd5b9190915f6001600160a01b03600185015416936001600160a01b036002820154169360078201928354600884019188835496613acf8885611d30565b9360e08a019182516101808c019a818c5260028a0196875492613af28a85611d30565b1015613c4d575050505050608094845f85613b938c613c069d9e9f9997600497613b51613b467f261fffb4b79148ca99a0f130d50296a0a9bf6bee424973781ef0e8c4359b25129f9c9b613bcb9c54611d30565b809281885551611d0f565b92613b5b83613fe0565b91828511613c33575b505050613b7f826001600160a01b03600654163090846130bd565b30906001600160a01b036006541690614135565b60018701613ba48154835490611d0f565b905555600160208d01525b613bbe60038601918254611d0f565b9055549201918254611d0f565b905560a0870151906001600160a01b0383890151169060c089015191604051938452602084015260408301526060820152a1838351916141dd565b15613c1357505050600190565b600192613c2e916001600160a01b0360075416905191612c5f565b525f90565b8293945091613c429192611d30565b9052908f805f613b64565b613c63859e979399949d9692989a958351611d0f565b9760088c015460ff81169081613e64575b5080613e5b575b15613d65575050505050505093600393613d0b87948694613ce9613cdc613cd4613d549b7fc8f742aa90a6e6851d2252fa58ed695d3ca295b55bf5f1c2164a360cc8a093e29f9e9d600461014091015491015190612970565b885490612970565b61306e6001548092612983565b9082613cf58383611d30565b11613d5c57613d049250611d30565b8099611d30565b8755613d18888254611d0f565b905501613d26868254611d30565b9055613d3385888a612d61565b01549154604051938493846040919493926060820195825260208201520152565b0390a3600190565b50508099611d30565b613bcb979f9990879f50613c069e5096613e209360809c95936004997f261fffb4b79148ca99a0f130d50296a0a9bf6bee424973781ef0e8c4359b25129f9c858110155f14613e2757505050613dcd613df991613dc5613e0e958a611d30565b905190611d0f565b80945b613de6826001600160a01b036006541683612c5f565b8d6001600160a01b036006541691614189565b60018a01613e1384613e0e8354855190611d0f565b611d0f565b9055613dc5868654611d30565b9055613baf565b909194501115613e41575b50613df982613e0e9394613dd0565b613e0e9250613e54613df9915188611d0f565b9250613e32565b50898910613c7b565b60ff915060081c16155f613c74565b60206001600160a01b03916004604051809481937f313ce567000000000000000000000000000000000000000000000000000000008352165afa8015612bdc575f90613ec2575b60ff91501690565b506020813d602011613ef7575b81613edc602093836119bd565b81010312610015575160ff811681036100155760ff90613eba565b3d9150613ecf565b9060018201815f528060205260ff60405f20541615612f50578254905f5b828110613f2d5750505050505f90565b83613f388287612e13565b90549060031b1c14613f4c57600101613f1d565b93945f198301928311949093919290855b611d1c5781811015613f9e576001810190818111611d1c57613f8160019289612e13565b90549060031b1c613f95612e74838b612e13565b90550185613f5d565b5050919390925080548015613829575f190190613fbb8282612e13565b8154905f199060031b1b19169055555f5260205260405f2060ff198154169055600190565b6001600160a01b0360065416906001600160a01b03811690604051917f70a08231000000000000000000000000000000000000000000000000000000008352836004840152602083602481845afa928315612bdc575f93614101575b50602061405b61404f6001548096612970565b61260b612c7386613e73565b946044604051809481937fdd62ed3e00000000000000000000000000000000000000000000000000000000835260048301523060248301525afa908115612bdc575f916140cd575b50612c736140b76140bd9461260b93612970565b92613e73565b8082116140c8575090565b905090565b90506020813d6020116140f9575b816140e8602093836119bd565b810103126100155751612c736140a3565b3d91506140db565b9092506020813d60201161412d575b8161411d602093836119bd565b810103126100155751915f61403c565b3d9150614110565b9192909281156123245760606001600160a01b0380807feb42cf637f927243245c50b4bf7fe105fe4f4d26209102240f2ba3d8e27a7df89460405196600988526020880152426040880152169616941692a4565b9192909281156123245760606001600160a01b0380807feb42cf637f927243245c50b4bf7fe105fe4f4d26209102240f2ba3d8e27a7df89460405196600888526020880152426040880152169616941692a4565b909160018201906001600160a01b038254165f52601260205260405f209360028401946001600160a01b0380875416165f5260205260405f209061422760c0820192835190613eff565b506001600160a01b038454166001600160a01b0387541691614260600888019283549461425a60078b0196875490611d30565b91612dc4565b6001600160a01b0386541691825f52601460205260ff60405f2054166004811015610bef5715806146bd575b8061469e575b614305575b5050505050506001600160a01b0360069354166001600160a01b0360155416146142cf575b500161040061ff00198254161790555f90565b6001600160a01b036142ff91541660ff84840154166004840154906005850154926142f98661245d565b90612fe2565b5f6142bc565b6001600160a01b03600a54166001600160a01b03601554169060048a019460606101408754960195608487519160405195869384927fd112d0e9000000000000000000000000000000000000000000000000000000008452876004850152896024850152604484015260648301525afa928315612bdc575f5f935f95614643575b506001600160a01b031661439d5750505050614297565b60ff809b88967f181dbc3ad559b63759679084b2e0d8268b879a2556fb002571b357ce36b991619f9b9a996101609f976001600160a01b038f928f8f908f6146129f9c614504938f6144c1907f2c37a9956018f0a52fe734b1e1b43a0c291a1ca976448780e2105afc28c38d989f996101409f9460039c61447f8c9d6144e7986144278686611d30565b915f5260116020528e60405f2091165f5260205260405f206001810161444e858254611d30565b9055600461446160028301958654611d30565b9160038101614471858254611d30565b905501611ec1878254611d30565b905586558c55888060155416166001600160a01b0319875416178655888d541697600682019e8f541690549060058301996144bb8b549461245d565b90612f57565b868b54165f52601260205260405f208780865416165f5260205260405f20905190612e28565b506144fe85808b5416935416918954905490611d30565b91612d61565b549454169d54169701549d8e9354169754998b5190549154926040519485528d602086015288604086015261453c606086018b611c30565b8b608086015260a085015260c084015260e08301526101008201526003610120820152a17f55a05fded01868e623bc311ab3e73d3cec2f0871392b36317648452d989ed1ce6101008861458f8582612882565b6020810151906040810151906080606082015191015191845f52601060205260405f206001600160a01b038a165f5260205260405f20549360405195865289602087015260408601526060850152608084015260a083015260c0820152600360e0820152a151945195604051988952602089015260408801526060870190611c30565b608085015260a084015260c08301525f60e083015261010082015260016101208201526005610140820152a1600190565b94505091506060833d606011614696575b81614661606093836119bd565b81010312610015578251916001600160a01b038316830361001557602084015160409094015193926001600160a01b03614386565b3d9150614654565b506001600160a01b038954166001600160a01b03601554161415614292565b5060ff5f541661428c56fea26469706673582212209a11d1371c757ffb0d2dc1ecf0e4db764640df4865dd8690d4c7518de87590da64736f6c634300081c0033",
  "linkReferences": {},
  "deployedLinkReferences": {}
}