{
  "_format": "hh-sol-artifact-1",
  "contractName": "TradeAgent",
  "sourceName": "contracts/TradeAgent.sol",
  "abi": [
    {
      "inputs": [],
      "name": "InvalidInitialization",
      "type": "error"
    },
    {
      "inputs": [],
      "name": "NotInitializing",
      "type": "error"
    },
    {
      "inputs": [
        {
          "internalType": "address",
          "name": "owner",
          "type": "address"
        }
      ],
      "name": "OwnableInvalidOwner",
      "type": "error"
    },
    {
      "inputs": [
        {
          "internalType": "address",
          "name": "account",
          "type": "address"
        }
      ],
      "name": "OwnableUnauthorizedAccount",
      "type": "error"
    },
    {
      "anonymous": false,
      "inputs": [
        {
          "indexed": false,
          "internalType": "address",
          "name": "token",
          "type": "address"
        },
        {
          "indexed": false,
          "internalType": "address",
          "name": "holder",
          "type": "address"
        },
        {
          "indexed": false,
          "internalType": "string",
          "name": "name",
          "type": "string"
        },
        {
          "indexed": false,
          "internalType": "enum ICommon.Direct",
          "name": "direct",
          "type": "uint8"
        },
        {
          "indexed": false,
          "internalType": "uint256",
          "name": "value",
          "type": "uint256"
        },
        {
          "indexed": false,
          "internalType": "uint256",
          "name": "size",
          "type": "uint256"
        },
        {
          "indexed": false,
          "internalType": "uint256",
          "name": "margin",
          "type": "uint256"
        },
        {
          "indexed": false,
          "internalType": "uint256",
          "name": "freeze",
          "type": "uint256"
        }
      ],
      "name": "AccountPosition",
      "type": "event"
    },
    {
      "anonymous": false,
      "inputs": [
        {
          "indexed": false,
          "internalType": "address",
          "name": "token",
          "type": "address"
        },
        {
          "indexed": false,
          "internalType": "address",
          "name": "taker",
          "type": "address"
        },
        {
          "indexed": false,
          "internalType": "uint256",
          "name": "amount",
          "type": "uint256"
        },
        {
          "indexed": false,
          "internalType": "uint256",
          "name": "availableAmount",
          "type": "uint256"
        },
        {
          "indexed": false,
          "internalType": "uint256",
          "name": "marginAmount",
          "type": "uint256"
        },
        {
          "indexed": false,
          "internalType": "uint256",
          "name": "locked",
          "type": "uint256"
        },
        {
          "indexed": false,
          "internalType": "uint256",
          "name": "stage",
          "type": "uint256"
        },
        {
          "indexed": false,
          "internalType": "uint256",
          "name": "dif",
          "type": "uint256"
        }
      ],
      "name": "BalanceOfTaker",
      "type": "event"
    },
    {
      "anonymous": false,
      "inputs": [
        {
          "indexed": false,
          "internalType": "string",
          "name": "name",
          "type": "string"
        },
        {
          "indexed": true,
          "internalType": "address",
          "name": "taker",
          "type": "address"
        },
        {
          "indexed": true,
          "internalType": "address",
          "name": "token",
          "type": "address"
        },
        {
          "indexed": false,
          "internalType": "uint256",
          "name": "orderID",
          "type": "uint256"
        },
        {
          "indexed": false,
          "internalType": "enum ICommon.Direct",
          "name": "direct",
          "type": "uint8"
        },
        {
          "indexed": false,
          "internalType": "enum IPerpetual.OrderState",
          "name": "state",
          "type": "uint8"
        },
        {
          "indexed": false,
          "internalType": "enum ICommon.Offset",
          "name": "offset",
          "type": "uint8"
        },
        {
          "indexed": false,
          "internalType": "uint256",
          "name": "amount",
          "type": "uint256"
        },
        {
          "indexed": false,
          "internalType": "uint256",
          "name": "targetPrice",
          "type": "uint256"
        },
        {
          "indexed": false,
          "internalType": "uint256",
          "name": "margin",
          "type": "uint256"
        },
        {
          "indexed": false,
          "internalType": "uint256",
          "name": "rewardGas",
          "type": "uint256"
        },
        {
          "indexed": false,
          "internalType": "uint256",
          "name": "tradingFee",
          "type": "uint256"
        },
        {
          "indexed": false,
          "internalType": "uint256",
          "name": "startTime",
          "type": "uint256"
        },
        {
          "indexed": false,
          "internalType": "uint256",
          "name": "orderType",
          "type": "uint256"
        }
      ],
      "name": "CreateLimitedOrder",
      "type": "event"
    },
    {
      "anonymous": false,
      "inputs": [
        {
          "indexed": false,
          "internalType": "uint256",
          "name": "limitOrderID",
          "type": "uint256"
        },
        {
          "indexed": false,
          "internalType": "uint256",
          "name": "openLimitPrice",
          "type": "uint256"
        },
        {
          "indexed": false,
          "internalType": "uint256",
          "name": "gainTriggerPrice",
          "type": "uint256"
        },
        {
          "indexed": false,
          "internalType": "uint256",
          "name": "gainLimitPrice",
          "type": "uint256"
        },
        {
          "indexed": false,
          "internalType": "uint256",
          "name": "lossTriggerPrice",
          "type": "uint256"
        },
        {
          "indexed": false,
          "internalType": "uint256",
          "name": "lossLimitPrice",
          "type": "uint256"
        }
      ],
      "name": "CreateTriggerCondition",
      "type": "event"
    },
    {
      "anonymous": false,
      "inputs": [
        {
          "indexed": false,
          "internalType": "uint256",
          "name": "code",
          "type": "uint256"
        },
        {
          "indexed": false,
          "internalType": "uint256",
          "name": "orderID",
          "type": "uint256"
        },
        {
          "indexed": false,
          "internalType": "string",
          "name": "message",
          "type": "string"
        }
      ],
      "name": "ErrorInfo",
      "type": "event"
    },
    {
      "anonymous": false,
      "inputs": [
        {
          "indexed": false,
          "internalType": "uint256",
          "name": "code",
          "type": "uint256"
        },
        {
          "indexed": false,
          "internalType": "uint256",
          "name": "orderID",
          "type": "uint256"
        },
        {
          "indexed": false,
          "internalType": "bytes",
          "name": "message",
          "type": "bytes"
        }
      ],
      "name": "ExceptErrorInfo",
      "type": "event"
    },
    {
      "anonymous": false,
      "inputs": [
        {
          "indexed": false,
          "internalType": "uint64",
          "name": "version",
          "type": "uint64"
        }
      ],
      "name": "Initialized",
      "type": "event"
    },
    {
      "anonymous": false,
      "inputs": [
        {
          "indexed": false,
          "internalType": "string",
          "name": "name",
          "type": "string"
        },
        {
          "indexed": true,
          "internalType": "address",
          "name": "taker",
          "type": "address"
        },
        {
          "indexed": true,
          "internalType": "address",
          "name": "token",
          "type": "address"
        },
        {
          "indexed": false,
          "internalType": "uint256",
          "name": "orderID",
          "type": "uint256"
        },
        {
          "indexed": false,
          "internalType": "enum ICommon.Direct",
          "name": "direct",
          "type": "uint8"
        },
        {
          "indexed": false,
          "internalType": "enum IPerpetual.OrderState",
          "name": "state",
          "type": "uint8"
        },
        {
          "indexed": false,
          "internalType": "enum ICommon.Offset",
          "name": "offset",
          "type": "uint8"
        },
        {
          "indexed": false,
          "internalType": "uint256",
          "name": "amount",
          "type": "uint256"
        },
        {
          "indexed": false,
          "internalType": "uint256",
          "name": "targetPrice",
          "type": "uint256"
        },
        {
          "indexed": false,
          "internalType": "uint256",
          "name": "margin",
          "type": "uint256"
        },
        {
          "indexed": false,
          "internalType": "uint256",
          "name": "rewardGas",
          "type": "uint256"
        },
        {
          "indexed": false,
          "internalType": "uint256",
          "name": "tradingFee",
          "type": "uint256"
        },
        {
          "indexed": false,
          "internalType": "uint256",
          "name": "startTime",
          "type": "uint256"
        },
        {
          "indexed": false,
          "internalType": "uint256",
          "name": "orderType",
          "type": "uint256"
        }
      ],
      "name": "LimitedOrderHistory",
      "type": "event"
    },
    {
      "anonymous": false,
      "inputs": [
        {
          "indexed": false,
          "internalType": "address",
          "name": "token",
          "type": "address"
        },
        {
          "indexed": false,
          "internalType": "address",
          "name": "taker",
          "type": "address"
        }
      ],
      "name": "LiquidateTaker",
      "type": "event"
    },
    {
      "anonymous": false,
      "inputs": [
        {
          "indexed": true,
          "internalType": "address",
          "name": "taker",
          "type": "address"
        },
        {
          "indexed": false,
          "internalType": "string",
          "name": "name",
          "type": "string"
        },
        {
          "indexed": false,
          "internalType": "address",
          "name": "token",
          "type": "address"
        },
        {
          "indexed": false,
          "internalType": "uint256",
          "name": "orderID",
          "type": "uint256"
        },
        {
          "indexed": false,
          "internalType": "enum ICommon.Direct",
          "name": "direction",
          "type": "uint8"
        },
        {
          "indexed": false,
          "internalType": "enum IPerpetual.OrderType",
          "name": "orderType",
          "type": "uint8"
        },
        {
          "indexed": false,
          "internalType": "uint256",
          "name": "amount",
          "type": "uint256"
        },
        {
          "indexed": false,
          "internalType": "uint256",
          "name": "costPrice",
          "type": "uint256"
        },
        {
          "indexed": false,
          "internalType": "uint256",
          "name": "price",
          "type": "uint256"
        },
        {
          "indexed": false,
          "internalType": "uint256",
          "name": "tradingFee",
          "type": "uint256"
        },
        {
          "indexed": false,
          "internalType": "uint256",
          "name": "leverage",
          "type": "uint256"
        },
        {
          "indexed": false,
          "internalType": "uint256",
          "name": "marginAmount",
          "type": "uint256"
        },
        {
          "indexed": false,
          "internalType": "uint256",
          "name": "limitOrderId",
          "type": "uint256"
        },
        {
          "indexed": false,
          "internalType": "uint256",
          "name": "timestamp",
          "type": "uint256"
        }
      ],
      "name": "OrderHistory",
      "type": "event"
    },
    {
      "anonymous": false,
      "inputs": [
        {
          "indexed": true,
          "internalType": "address",
          "name": "previousOwner",
          "type": "address"
        },
        {
          "indexed": true,
          "internalType": "address",
          "name": "newOwner",
          "type": "address"
        }
      ],
      "name": "OwnershipTransferred",
      "type": "event"
    },
    {
      "anonymous": false,
      "inputs": [
        {
          "indexed": false,
          "internalType": "address",
          "name": "token",
          "type": "address"
        },
        {
          "indexed": false,
          "internalType": "uint256",
          "name": "orderID",
          "type": "uint256"
        },
        {
          "indexed": false,
          "internalType": "uint256",
          "name": "dealID",
          "type": "uint256"
        },
        {
          "indexed": false,
          "internalType": "enum IPerpetual.TradeType",
          "name": "tradeType",
          "type": "uint8"
        },
        {
          "indexed": false,
          "internalType": "uint256",
          "name": "amount",
          "type": "uint256"
        },
        {
          "indexed": false,
          "internalType": "uint256",
          "name": "price",
          "type": "uint256"
        },
        {
          "indexed": false,
          "internalType": "uint256",
          "name": "tradingFee",
          "type": "uint256"
        },
        {
          "indexed": false,
          "internalType": "uint256",
          "name": "leverage",
          "type": "uint256"
        },
        {
          "indexed": false,
          "internalType": "uint256",
          "name": "marginAmount",
          "type": "uint256"
        },
        {
          "indexed": false,
          "internalType": "uint256",
          "name": "profit",
          "type": "uint256"
        },
        {
          "indexed": false,
          "internalType": "uint256",
          "name": "loss",
          "type": "uint256"
        },
        {
          "indexed": false,
          "internalType": "uint256",
          "name": "timestamp",
          "type": "uint256"
        }
      ],
      "name": "TradeHistory",
      "type": "event"
    },
    {
      "anonymous": false,
      "inputs": [
        {
          "indexed": true,
          "internalType": "address",
          "name": "token",
          "type": "address"
        },
        {
          "indexed": true,
          "internalType": "address",
          "name": "sender",
          "type": "address"
        },
        {
          "indexed": true,
          "internalType": "address",
          "name": "received",
          "type": "address"
        },
        {
          "indexed": false,
          "internalType": "enum ICommon.TransactionType",
          "name": "transactionType",
          "type": "uint8"
        },
        {
          "indexed": false,
          "internalType": "uint256",
          "name": "amount",
          "type": "uint256"
        },
        {
          "indexed": false,
          "internalType": "uint256",
          "name": "timestamp",
          "type": "uint256"
        }
      ],
      "name": "TransactionHistory",
      "type": "event"
    },
    {
      "anonymous": false,
      "inputs": [
        {
          "indexed": false,
          "internalType": "address",
          "name": "token",
          "type": "address"
        },
        {
          "indexed": false,
          "internalType": "address",
          "name": "sender",
          "type": "address"
        },
        {
          "indexed": false,
          "internalType": "string",
          "name": "name",
          "type": "string"
        },
        {
          "indexed": false,
          "internalType": "uint256",
          "name": "beforeLeverage",
          "type": "uint256"
        },
        {
          "indexed": false,
          "internalType": "uint256",
          "name": "afterLeverage",
          "type": "uint256"
        }
      ],
      "name": "setLeverage",
      "type": "event"
    },
    {
      "stateMutability": "nonpayable",
      "type": "fallback"
    },
    {
      "inputs": [
        {
          "internalType": "enum ICommon.Direct",
          "name": "_type",
          "type": "uint8"
        },
        {
          "internalType": "uint256",
          "name": "_currentPrice",
          "type": "uint256"
        },
        {
          "internalType": "uint256",
          "name": "_dealPrice",
          "type": "uint256"
        },
        {
          "internalType": "uint256",
          "name": "_amount",
          "type": "uint256"
        },
        {
          "internalType": "uint256",
          "name": "_willClose",
          "type": "uint256"
        }
      ],
      "name": "calDealPNL",
      "outputs": [
        {
          "internalType": "uint256",
          "name": "profit",
          "type": "uint256"
        },
        {
          "internalType": "uint256",
          "name": "loss",
          "type": "uint256"
        }
      ],
      "stateMutability": "pure",
      "type": "function"
    },
    {
      "inputs": [
        {
          "internalType": "uint256",
          "name": "_orderID",
          "type": "uint256"
        },
        {
          "internalType": "address",
          "name": "_taker",
          "type": "address"
        },
        {
          "internalType": "bool",
          "name": "_status",
          "type": "bool"
        }
      ],
      "name": "cancelOrder",
      "outputs": [],
      "stateMutability": "nonpayable",
      "type": "function"
    },
    {
      "inputs": [
        {
          "internalType": "uint256",
          "name": "_oID",
          "type": "uint256"
        },
        {
          "internalType": "uint256",
          "name": "_price",
          "type": "uint256"
        }
      ],
      "name": "checkLimitOrder",
      "outputs": [
        {
          "internalType": "bool",
          "name": "success",
          "type": "bool"
        }
      ],
      "stateMutability": "view",
      "type": "function"
    },
    {
      "inputs": [
        {
          "internalType": "uint256[]",
          "name": "_orders",
          "type": "uint256[]"
        },
        {
          "internalType": "uint256[]",
          "name": "_prices",
          "type": "uint256[]"
        }
      ],
      "name": "checkLimitOrders",
      "outputs": [
        {
          "internalType": "bool[]",
          "name": "result",
          "type": "bool[]"
        }
      ],
      "stateMutability": "view",
      "type": "function"
    },
    {
      "inputs": [
        {
          "internalType": "uint256[]",
          "name": "_deal",
          "type": "uint256[]"
        },
        {
          "internalType": "uint256[]",
          "name": "_price",
          "type": "uint256[]"
        }
      ],
      "name": "checkMakerDealsRiskStatus",
      "outputs": [
        {
          "internalType": "bool[]",
          "name": "riskStatus",
          "type": "bool[]"
        }
      ],
      "stateMutability": "view",
      "type": "function"
    },
    {
      "inputs": [
        {
          "internalType": "address",
          "name": "_token",
          "type": "address"
        },
        {
          "internalType": "address",
          "name": "_taker",
          "type": "address"
        },
        {
          "internalType": "string[]",
          "name": "_symbols",
          "type": "string[]"
        },
        {
          "internalType": "uint256[]",
          "name": "_prices",
          "type": "uint256[]"
        }
      ],
      "name": "checkTakerRiskStatus",
      "outputs": [
        {
          "internalType": "bool",
          "name": "isRisk",
          "type": "bool"
        },
        {
          "internalType": "uint256",
          "name": "netLoss",
          "type": "uint256"
        },
        {
          "internalType": "uint256",
          "name": "overLoss",
          "type": "uint256"
        },
        {
          "internalType": "uint256",
          "name": "loss",
          "type": "uint256"
        }
      ],
      "stateMutability": "view",
      "type": "function"
    },
    {
      "inputs": [
        {
          "internalType": "address[]",
          "name": "_tokens",
          "type": "address[]"
        },
        {
          "internalType": "address[]",
          "name": "_takers",
          "type": "address[]"
        },
        {
          "internalType": "string[]",
          "name": "_symbols",
          "type": "string[]"
        },
        {
          "internalType": "uint256[]",
          "name": "_prices",
          "type": "uint256[]"
        }
      ],
      "name": "checkTakersRiskStatus",
      "outputs": [
        {
          "internalType": "bool[]",
          "name": "riskStatus",
          "type": "bool[]"
        }
      ],
      "stateMutability": "view",
      "type": "function"
    },
    {
      "inputs": [
        {
          "internalType": "address",
          "name": "_token",
          "type": "address"
        },
        {
          "internalType": "address",
          "name": "_taker",
          "type": "address"
        },
        {
          "internalType": "string",
          "name": "_pair",
          "type": "string"
        },
        {
          "internalType": "enum ICommon.Direct",
          "name": "_type",
          "type": "uint8"
        },
        {
          "internalType": "uint256",
          "name": "_currentPrice",
          "type": "uint256"
        },
        {
          "internalType": "uint256",
          "name": "_deposit",
          "type": "uint256"
        }
      ],
      "name": "clearingTakerPosition",
      "outputs": [
        {
          "internalType": "uint256",
          "name": "remainingDeposit",
          "type": "uint256"
        },
        {
          "internalType": "bool",
          "name": "clear",
          "type": "bool"
        }
      ],
      "stateMutability": "nonpayable",
      "type": "function"
    },
    {
      "inputs": [
        {
          "internalType": "address",
          "name": "_token",
          "type": "address"
        },
        {
          "internalType": "address",
          "name": "_taker",
          "type": "address"
        },
        {
          "internalType": "uint256",
          "name": "_dealID",
          "type": "uint256"
        },
        {
          "internalType": "uint256",
          "name": "_amount",
          "type": "uint256"
        },
        {
          "internalType": "enum IPerpetual.TradeType",
          "name": "_tradeType",
          "type": "uint8"
        },
        {
          "internalType": "uint256",
          "name": "_currentPrice",
          "type": "uint256"
        },
        {
          "internalType": "uint256",
          "name": "_leverage",
          "type": "uint256"
        },
        {
          "internalType": "uint256",
          "name": "_margin",
          "type": "uint256"
        },
        {
          "internalType": "uint256",
          "name": "_tradeFeeRate",
          "type": "uint256"
        },
        {
          "internalType": "uint256",
          "name": "_profit",
          "type": "uint256"
        },
        {
          "internalType": "uint256",
          "name": "_loss",
          "type": "uint256"
        }
      ],
      "name": "closeDealEvent",
      "outputs": [],
      "stateMutability": "nonpayable",
      "type": "function"
    },
    {
      "inputs": [
        {
          "internalType": "address",
          "name": "_token",
          "type": "address"
        },
        {
          "internalType": "address",
          "name": "_taker",
          "type": "address"
        },
        {
          "internalType": "string",
          "name": "_name",
          "type": "string"
        },
        {
          "internalType": "uint256",
          "name": "_amount",
          "type": "uint256"
        },
        {
          "internalType": "uint256",
          "name": "_currentPrice",
          "type": "uint256"
        },
        {
          "internalType": "enum ICommon.Direct",
          "name": "_direct",
          "type": "uint8"
        },
        {
          "internalType": "uint256",
          "name": "_limitID",
          "type": "uint256"
        }
      ],
      "name": "closeOrder",
      "outputs": [
        {
          "components": [
            {
              "internalType": "uint256",
              "name": "costPrice",
              "type": "uint256"
            },
            {
              "internalType": "uint256",
              "name": "totalMargin",
              "type": "uint256"
            },
            {
              "internalType": "uint256",
              "name": "tradingFee",
              "type": "uint256"
            },
            {
              "internalType": "uint256",
              "name": "gain",
              "type": "uint256"
            },
            {
              "internalType": "uint256",
              "name": "loss",
              "type": "uint256"
            }
          ],
          "internalType": "struct ICommon.CloseOrderResult",
          "name": "bulk",
          "type": "tuple"
        }
      ],
      "stateMutability": "nonpayable",
      "type": "function"
    },
    {
      "inputs": [
        {
          "internalType": "uint256",
          "name": "_start",
          "type": "uint256"
        },
        {
          "internalType": "uint256",
          "name": "_end",
          "type": "uint256"
        },
        {
          "internalType": "uint256",
          "name": "_count",
          "type": "uint256"
        }
      ],
      "name": "getActiveDeals",
      "outputs": [
        {
          "components": [
            {
              "internalType": "address",
              "name": "token",
              "type": "address"
            },
            {
              "internalType": "address payable",
              "name": "taker",
              "type": "address"
            },
            {
              "internalType": "enum ICommon.Direct",
              "name": "direct",
              "type": "uint8"
            },
            {
              "internalType": "enum ICommon.DealState",
              "name": "state",
              "type": "uint8"
            },
            {
              "internalType": "uint256",
              "name": "orderID",
              "type": "uint256"
            },
            {
              "internalType": "string",
              "name": "name",
              "type": "string"
            },
            {
              "internalType": "uint256",
              "name": "amount",
              "type": "uint256"
            },
            {
              "internalType": "uint256",
              "name": "price",
              "type": "uint256"
            },
            {
              "internalType": "uint256",
              "name": "leverage",
              "type": "uint256"
            },
            {
              "internalType": "uint256",
              "name": "margin",
              "type": "uint256"
            },
            {
              "internalType": "uint256",
              "name": "tradingFee",
              "type": "uint256"
            },
            {
              "internalType": "uint256",
              "name": "timestamp",
              "type": "uint256"
            }
          ],
          "internalType": "struct ICommon.Deal[]",
          "name": "info",
          "type": "tuple[]"
        },
        {
          "internalType": "uint256[]",
          "name": "ids",
          "type": "uint256[]"
        },
        {
          "internalType": "uint256",
          "name": "end",
          "type": "uint256"
        }
      ],
      "stateMutability": "view",
      "type": "function"
    },
    {
      "inputs": [
        {
          "internalType": "uint256",
          "name": "_start",
          "type": "uint256"
        },
        {
          "internalType": "uint256",
          "name": "_end",
          "type": "uint256"
        },
        {
          "internalType": "uint256",
          "name": "_count",
          "type": "uint256"
        }
      ],
      "name": "getActiveLimitedOrders",
      "outputs": [
        {
          "components": [
            {
              "internalType": "address",
              "name": "token",
              "type": "address"
            },
            {
              "internalType": "address payable",
              "name": "taker",
              "type": "address"
            },
            {
              "internalType": "enum ICommon.Direct",
              "name": "direct",
              "type": "uint8"
            },
            {
              "internalType": "enum IPerpetual.OrderState",
              "name": "state",
              "type": "uint8"
            },
            {
              "internalType": "enum ICommon.Offset",
              "name": "offset",
              "type": "uint8"
            },
            {
              "internalType": "string",
              "name": "name",
              "type": "string"
            },
            {
              "internalType": "uint256",
              "name": "amount",
              "type": "uint256"
            },
            {
              "internalType": "uint256",
              "name": "targetPrice",
              "type": "uint256"
            },
            {
              "internalType": "uint256",
              "name": "margin",
              "type": "uint256"
            },
            {
              "internalType": "uint256",
              "name": "tradingFee",
              "type": "uint256"
            },
            {
              "internalType": "uint256",
              "name": "rewardGas",
              "type": "uint256"
            },
            {
              "internalType": "uint256",
              "name": "startTime",
              "type": "uint256"
            },
            {
              "internalType": "uint256",
              "name": "orderType",
              "type": "uint256"
            }
          ],
          "internalType": "struct IPerpetual.LimitedOrder[]",
          "name": "info",
          "type": "tuple[]"
        },
        {
          "internalType": "uint256[]",
          "name": "ids",
          "type": "uint256[]"
        },
        {
          "internalType": "uint256",
          "name": "end",
          "type": "uint256"
        }
      ],
      "stateMutability": "view",
      "type": "function"
    },
    {
      "inputs": [
        {
          "internalType": "uint256[]",
          "name": "_ids",
          "type": "uint256[]"
        }
      ],
      "name": "getDeals",
      "outputs": [
        {
          "components": [
            {
              "internalType": "address",
              "name": "token",
              "type": "address"
            },
            {
              "internalType": "address payable",
              "name": "taker",
              "type": "address"
            },
            {
              "internalType": "enum ICommon.Direct",
              "name": "direct",
              "type": "uint8"
            },
            {
              "internalType": "enum ICommon.DealState",
              "name": "state",
              "type": "uint8"
            },
            {
              "internalType": "uint256",
              "name": "orderID",
              "type": "uint256"
            },
            {
              "internalType": "string",
              "name": "name",
              "type": "string"
            },
            {
              "internalType": "uint256",
              "name": "amount",
              "type": "uint256"
            },
            {
              "internalType": "uint256",
              "name": "price",
              "type": "uint256"
            },
            {
              "internalType": "uint256",
              "name": "leverage",
              "type": "uint256"
            },
            {
              "internalType": "uint256",
              "name": "margin",
              "type": "uint256"
            },
            {
              "internalType": "uint256",
              "name": "tradingFee",
              "type": "uint256"
            },
            {
              "internalType": "uint256",
              "name": "timestamp",
              "type": "uint256"
            }
          ],
          "internalType": "struct ICommon.Deal[]",
          "name": "info",
          "type": "tuple[]"
        }
      ],
      "stateMutability": "view",
      "type": "function"
    },
    {
      "inputs": [
        {
          "internalType": "uint256[]",
          "name": "_ids",
          "type": "uint256[]"
        }
      ],
      "name": "getLimitOrders",
      "outputs": [
        {
          "components": [
            {
              "internalType": "address",
              "name": "token",
              "type": "address"
            },
            {
              "internalType": "address payable",
              "name": "taker",
              "type": "address"
            },
            {
              "internalType": "enum ICommon.Direct",
              "name": "direct",
              "type": "uint8"
            },
            {
              "internalType": "enum IPerpetual.OrderState",
              "name": "state",
              "type": "uint8"
            },
            {
              "internalType": "enum ICommon.Offset",
              "name": "offset",
              "type": "uint8"
            },
            {
              "internalType": "string",
              "name": "name",
              "type": "string"
            },
            {
              "internalType": "uint256",
              "name": "amount",
              "type": "uint256"
            },
            {
              "internalType": "uint256",
              "name": "targetPrice",
              "type": "uint256"
            },
            {
              "internalType": "uint256",
              "name": "margin",
              "type": "uint256"
            },
            {
              "internalType": "uint256",
              "name": "tradingFee",
              "type": "uint256"
            },
            {
              "internalType": "uint256",
              "name": "rewardGas",
              "type": "uint256"
            },
            {
              "internalType": "uint256",
              "name": "startTime",
              "type": "uint256"
            },
            {
              "internalType": "uint256",
              "name": "orderType",
              "type": "uint256"
            }
          ],
          "internalType": "struct IPerpetual.LimitedOrder[]",
          "name": "info",
          "type": "tuple[]"
        }
      ],
      "stateMutability": "view",
      "type": "function"
    },
    {
      "inputs": [
        {
          "internalType": "address",
          "name": "_token",
          "type": "address"
        },
        {
          "internalType": "address",
          "name": "_user",
          "type": "address"
        },
        {
          "internalType": "string",
          "name": "_name",
          "type": "string"
        },
        {
          "internalType": "uint256",
          "name": "_price",
          "type": "uint256"
        }
      ],
      "name": "getMaxOpenAmount",
      "outputs": [
        {
          "internalType": "uint256",
          "name": "amount",
          "type": "uint256"
        }
      ],
      "stateMutability": "view",
      "type": "function"
    },
    {
      "inputs": [
        {
          "internalType": "address",
          "name": "_token",
          "type": "address"
        },
        {
          "internalType": "address",
          "name": "_user",
          "type": "address"
        },
        {
          "internalType": "string[]",
          "name": "_symbols",
          "type": "string[]"
        },
        {
          "internalType": "uint256[]",
          "name": "_prices",
          "type": "uint256[]"
        }
      ],
      "name": "getMaxWithdrawableAmount",
      "outputs": [
        {
          "internalType": "uint256",
          "name": "_amount",
          "type": "uint256"
        }
      ],
      "stateMutability": "view",
      "type": "function"
    },
    {
      "inputs": [
        {
          "internalType": "address",
          "name": "_token",
          "type": "address"
        },
        {
          "internalType": "address",
          "name": "_user",
          "type": "address"
        },
        {
          "internalType": "string[]",
          "name": "_symbols",
          "type": "string[]"
        },
        {
          "internalType": "uint256[]",
          "name": "_prices",
          "type": "uint256[]"
        }
      ],
      "name": "getPNL",
      "outputs": [
        {
          "internalType": "bool",
          "name": "flag",
          "type": "bool"
        },
        {
          "internalType": "uint256",
          "name": "amount",
          "type": "uint256"
        }
      ],
      "stateMutability": "view",
      "type": "function"
    },
    {
      "inputs": [
        {
          "internalType": "address",
          "name": "_token",
          "type": "address"
        },
        {
          "internalType": "address",
          "name": "_taker",
          "type": "address"
        },
        {
          "internalType": "string",
          "name": "_name",
          "type": "string"
        },
        {
          "internalType": "uint256",
          "name": "_price",
          "type": "uint256"
        },
        {
          "internalType": "uint8",
          "name": "_direction",
          "type": "uint8"
        }
      ],
      "name": "getPNLByCertainPosition",
      "outputs": [
        {
          "internalType": "uint256",
          "name": "profit",
          "type": "uint256"
        },
        {
          "internalType": "uint256",
          "name": "loss",
          "type": "uint256"
        }
      ],
      "stateMutability": "view",
      "type": "function"
    },
    {
      "inputs": [
        {
          "internalType": "address",
          "name": "_token",
          "type": "address"
        },
        {
          "internalType": "address",
          "name": "_taker",
          "type": "address"
        },
        {
          "internalType": "string[]",
          "name": "_symbols",
          "type": "string[]"
        },
        {
          "internalType": "uint256[]",
          "name": "_prices",
          "type": "uint256[]"
        }
      ],
      "name": "getPNLByPosition",
      "outputs": [
        {
          "internalType": "uint256",
          "name": "totalProfit",
          "type": "uint256"
        },
        {
          "internalType": "uint256",
          "name": "totalLoss",
          "type": "uint256"
        }
      ],
      "stateMutability": "view",
      "type": "function"
    },
    {
      "inputs": [
        {
          "internalType": "uint256[]",
          "name": "_ids",
          "type": "uint256[]"
        }
      ],
      "name": "getTriggerConditions",
      "outputs": [
        {
          "components": [
            {
              "internalType": "string",
              "name": "remark",
              "type": "string"
            },
            {
              "internalType": "uint256",
              "name": "mean",
              "type": "uint256"
            },
            {
              "internalType": "uint256",
              "name": "openLimitPrice",
              "type": "uint256"
            },
            {
              "internalType": "uint256",
              "name": "gainTriggerPrice",
              "type": "uint256"
            },
            {
              "internalType": "uint256",
              "name": "gainLimitPrice",
              "type": "uint256"
            },
            {
              "internalType": "uint256",
              "name": "lossTriggerPrice",
              "type": "uint256"
            },
            {
              "internalType": "uint256",
              "name": "lossLimitPrice",
              "type": "uint256"
            }
          ],
          "internalType": "struct IPerpetual.TriggerCondition[]",
          "name": "info",
          "type": "tuple[]"
        }
      ],
      "stateMutability": "view",
      "type": "function"
    },
    {
      "inputs": [
        {
          "internalType": "address[]",
          "name": "_tokens",
          "type": "address[]"
        },
        {
          "internalType": "address",
          "name": "_taker",
          "type": "address"
        }
      ],
      "name": "getUserAccounts",
      "outputs": [
        {
          "components": [
            {
              "internalType": "uint256",
              "name": "depositAmount",
              "type": "uint256"
            },
            {
              "internalType": "uint256",
              "name": "availableAmount",
              "type": "uint256"
            },
            {
              "internalType": "uint256",
              "name": "marginAmount",
              "type": "uint256"
            },
            {
              "internalType": "uint256",
              "name": "orderLocked",
              "type": "uint256"
            },
            {
              "internalType": "uint256",
              "name": "lastTime",
              "type": "uint256"
            }
          ],
          "internalType": "struct IPerpetual.AccountInfo[]",
          "name": "user",
          "type": "tuple[]"
        }
      ],
      "stateMutability": "view",
      "type": "function"
    },
    {
      "inputs": [
        {
          "internalType": "address",
          "name": "_priPool",
          "type": "address"
        },
        {
          "internalType": "address",
          "name": "_perpetual",
          "type": "address"
        }
      ],
      "name": "initialize",
      "outputs": [],
      "stateMutability": "nonpayable",
      "type": "function"
    },
    {
      "inputs": [
        {
          "internalType": "uint256",
          "name": "_dealID",
          "type": "uint256"
        },
        {
          "internalType": "uint256",
          "name": "_price",
          "type": "uint256"
        }
      ],
      "name": "liquidateMakerDeal",
      "outputs": [
        {
          "internalType": "bool",
          "name": "isLiquidated",
          "type": "bool"
        },
        {
          "internalType": "bool",
          "name": "isAgreement",
          "type": "bool"
        },
        {
          "internalType": "uint256",
          "name": "userProfit",
          "type": "uint256"
        }
      ],
      "stateMutability": "nonpayable",
      "type": "function"
    },
    {
      "inputs": [
        {
          "internalType": "uint256[]",
          "name": "_dealIDs",
          "type": "uint256[]"
        },
        {
          "internalType": "string[]",
          "name": "_symbols",
          "type": "string[]"
        },
        {
          "internalType": "uint256[]",
          "name": "_prices",
          "type": "uint256[]"
        }
      ],
      "name": "liquidateMakerDeals",
      "outputs": [],
      "stateMutability": "nonpayable",
      "type": "function"
    },
    {
      "inputs": [],
      "name": "owner",
      "outputs": [
        {
          "internalType": "address",
          "name": "",
          "type": "address"
        }
      ],
      "stateMutability": "view",
      "type": "function"
    },
    {
      "inputs": [],
      "name": "renounceOwnership",
      "outputs": [],
      "stateMutability": "nonpayable",
      "type": "function"
    },
    {
      "inputs": [
        {
          "internalType": "address",
          "name": "_orderBook",
          "type": "address"
        },
        {
          "internalType": "address",
          "name": "_station",
          "type": "address"
        },
        {
          "internalType": "address",
          "name": "_poolAgent",
          "type": "address"
        },
        {
          "internalType": "address",
          "name": "keeper",
          "type": "address"
        }
      ],
      "name": "setKeepers",
      "outputs": [],
      "stateMutability": "nonpayable",
      "type": "function"
    },
    {
      "inputs": [
        {
          "internalType": "address",
          "name": "newOwner",
          "type": "address"
        }
      ],
      "name": "transferOwnership",
      "outputs": [],
      "stateMutability": "nonpayable",
      "type": "function"
    }
  ],
  "bytecode": "0x60808060405234601557614f12908161001a8239f35b5f80fdfe60806040526004361015610019575b3461001557005b5f80fd5b5f3560e01c8063016f4dcb146101d85780630374c555146101d35780630414065b146101ce57806307e71485146101c95780633ca1451a146101c4578063485cc955146101bf57806350942355146101ba57806352e282a7146101b5578063642bcd18146101b0578063715018a6146101ab57806375ffb53d146101a657806381a4f173146101a1578063824c96811461019c5780638da5cb5b14610197578063ac6b96a214610192578063c1d159d21461018d578063c2b3356414610188578063ca6ec37214610183578063d15a1b411461017e578063d719606a14610179578063e6b34c6914610174578063e771ad721461016f578063ea270eb21461016a578063eb4f2e3614610165578063f10f4fa014610160578063f1257f841461015b578063f2fde38b146101565763f69ef33b0361000e57612201565b6121d4565b61216d565b612153565b611e64565b611dee565b611c37565b611bf1565b611bbb565b611b91565b611a9e565b61196b565b611889565b611760565b61170a565b6115d1565b61140c565b611221565b610fda565b610f66565b610e4f565b610c65565b610a1d565b6108cb565b610848565b610758565b6104cb565b3461001557604060031936011261001557606061021260043560243590335f52600560205261020d60ff60405f20541661226a565b61249f565b906040519215158352151560208301526040820152f35b634e487b7160e01b5f52604160045260245ffd5b60e0810190811067ffffffffffffffff82111761025957604052565b610229565b60a0810190811067ffffffffffffffff82111761025957604052565b610100810190811067ffffffffffffffff82111761025957604052565b610180810190811067ffffffffffffffff82111761025957604052565b6101a0810190811067ffffffffffffffff82111761025957604052565b60c0810190811067ffffffffffffffff82111761025957604052565b90601f601f19910116810190811067ffffffffffffffff82111761025957604052565b60405190610320610180836102ed565b565b6040519061032060e0836102ed565b604051906103206101a0836102ed565b67ffffffffffffffff81116102595760051b60200190565b9080601f8301121561001557813561037081610341565b9261037e60405194856102ed565b81845260208085019260051b82010192831161001557602001905b8282106103a65750505090565b8135815260209182019101610399565b6020600319820112610015576004359067ffffffffffffffff8211610015576103e191600401610359565b90565b90601f19601f602080948051918291828752018686015e5f8582860101520116010190565b602081016020825282518091526040820191602060408360051b8301019401925f915b83831061043b57505050505090565b9091929394602080827fffffffffffffffffffffffffffffffffffffffffffffffffffffffffffffffc0856001950301865288519060c080610486845160e0855260e08501906103e4565b93858101518685015260408101516040850152606081015160608501526080810151608085015260a081015160a085015201519101529701930193019193929061042c565b34610015576104d9366103b6565b80516104e481612732565b915f906105086104fc6002546001600160a01b031690565b6001600160a01b031690565b915b838110610523576040518061051f8782610409565b0390f35b805f61053261056b93856127ab565b51604051809481927f0187703f000000000000000000000000000000000000000000000000000000008352600483019190602083019252565b0381875afa80156105bf576001925f9161059d575b5061058b82886127ab565b5261059681876127ab565b500161050a565b6105b991503d805f833e6105b181836102ed565b8101906127d3565b5f610580565b612403565b6001600160a01b0381160361001557565b9080601f830112156100155781356105ec81610341565b926105fa60405194856102ed565b81845260208085019260051b82010192831161001557602001905b8282106106225750505090565b602080918335610631816105c4565b815201910190610615565b67ffffffffffffffff811161025957601f01601f191660200190565b81601f820112156100155780359061066f8261063c565b9261067d60405194856102ed565b8284526020838301011161001557815f926020809301838601378301015290565b9080601f830112156100155781356106b581610341565b926106c360405194856102ed565b81845260208085019260051b820101918383116100155760208201905b8382106106ef57505050505090565b813567ffffffffffffffff81116100155760209161071287848094880101610658565b8152019101906106e0565b60206040818301928281528451809452019201905f5b8181106107405750505090565b82511515845260209384019390920191600101610733565b346100155760806003193601126100155760043567ffffffffffffffff8111610015576107899036906004016105d5565b60243567ffffffffffffffff8111610015576107a99036906004016105d5565b9060443567ffffffffffffffff8111610015576107ca90369060040161069e565b906064359167ffffffffffffffff83116100155761051f936107f36107f9943690600401610359565b92612892565b6040519182918261071d565b6003111561001557565b6103209092919260a081019360808091805184526020810151602085015260408101516040850152606081015160608501520151910152565b346100155760e060031936011261001557600435610865816105c4565b60243590610872826105c4565b6044359067ffffffffffffffff82116100155761051f9261089a6108bf933690600401610658565b6064356084359160a435936108ae85610805565b60c435956108ba612902565b61292c565b6040519182918261080f565b34610015576080600319360112610015576004356108e8816105c4565b6024356108f4816105c4565b6044359067ffffffffffffffff82116100155761010061091b61099c933690600401610658565b91610934836064359261092e81896148e3565b976149af565b906001600160a01b03610953604061094b87614a75565b015195614b1d565b16906040518096819482937f32a8450200000000000000000000000000000000000000000000000000000000845288600485016040919493926060820195825260208201520152565b03915afa9081156105bf5761051f936109d0935f936109e0575b5060609160206109c7920151612461565b91015190612474565b6040519081529081906020820190565b6109c7919350916020610a0c6060946101003d8111610a16575b610a0481836102ed565b810190612b32565b94925050916109b6565b503d6109fa565b3461001557604060031936011261001557600435610a3a816105c4565b60243590610a47826105c4565b7ff0c57e16840df040f15088dc2f81fe391c3923bec73e23a9662efc9c229c6a00549167ffffffffffffffff610a9660ff604086901c1615610a88565b1590565b9467ffffffffffffffff1690565b1680159081610c5d575b6001149081610c53575b159081610c4a575b50610c2257610b339183610b2a60017fffffffffffffffffffffffffffffffffffffffffffffffff00000000000000007ff0c57e16840df040f15088dc2f81fe391c3923bec73e23a9662efc9c229c6a005416177ff0c57e16840df040f15088dc2f81fe391c3923bec73e23a9662efc9c229c6a0055565b610bbd57612b97565b610b3957005b610b8e68ff0000000000000000197ff0c57e16840df040f15088dc2f81fe391c3923bec73e23a9662efc9c229c6a0054167ff0c57e16840df040f15088dc2f81fe391c3923bec73e23a9662efc9c229c6a0055565b604051600181527fc7f505b2f371ae2175ee4913f4499e1f2633a7b5936321eed1cdaeb6115181d290602090a1005b610c1d6801000000000000000068ff0000000000000000197ff0c57e16840df040f15088dc2f81fe391c3923bec73e23a9662efc9c229c6a005416177ff0c57e16840df040f15088dc2f81fe391c3923bec73e23a9662efc9c229c6a0055565b612b97565b7ff92ee8a9000000000000000000000000000000000000000000000000000000005f5260045ffd5b9050155f610ab2565b303b159150610aaa565b849150610aa0565b346100155760c060031936011261001557600435610c82816105c4565b60243590610c8f826105c4565b6044359167ffffffffffffffff831161001557610cb3610ce5933690600401610658565b60643590610cc082610805565b6084359260a43594335f526005602052610ce060ff60405f20541661226a565b612cab565b60408051928352901515602083015290f35b634e487b7160e01b5f52602160045260245ffd5b60031115610d1557565b610cf7565b90610d2482610d0b565b52565b60061115610d1557565b906006821015610d155752565b9080602083519182815201916020808360051b8301019401925f915b838310610d6957505050505090565b909192939460208082601f198560019503018652885190610d938183516001600160a01b03169052565b818301516001600160a01b031681840152610db660408301516040830190610d1a565b610dc860608301516060830190610d31565b6080820151608082015261016080610df160a085015161018060a08601526101808501906103e4565b9360c081015160c085015260e081015160e0850152610100810151610100850152610120810151610120850152610140810151610140850152015191015297019301930191939290610d5a565b9060206103e1928181520190610d3e565b3461001557610e5d366103b6565b8051610e6881613126565b915f90610e806104fc6002546001600160a01b031690565b915b838110610e97576040518061051f8782610e3e565b805f610ea6610ec693856127ab565b51604051809481926320bf56eb60e21b8352600483019190602083019252565b0381875afa80156105bf576001925f91610ef8575b50610ee682886127ab565b52610ef181876127ab565b5001610e82565b610f1491503d805f833e610f0c81836102ed565b81019061231e565b5f610edb565b9060406003198301126100155760043567ffffffffffffffff81116100155782610f4691600401610359565b916024359067ffffffffffffffff8211610015576103e191600401610359565b3461001557610f7436610f1a565b90610f7f8151612861565b915f5b8251811015610fc25780610fad610f9b600193866127ab565b51610fa683866127ab565b5190613588565b610fb782876127ab565b901515905201610f82565b6040518061051f868261071d565b5f91031261001557565b34610015575f60031936011261001557610ff2614d2f565b5f6001600160a01b037f9016d09d72d40fdae2fd8ceac6b6234c7706214fd39c1cd1e609a0528c1993005473ffffffffffffffffffffffffffffffffffffffff1981167f9016d09d72d40fdae2fd8ceac6b6234c7706214fd39c1cd1e609a0528c19930055167f8be0079c531659141344cd1fd0a4f28419497f9722a3daafe3b4186f6b6457e08280a3005b600319606091011261001557600435906024359060443590565b60081115610d1557565b90610d2482611098565b9080602083519182815201916020808360051b8301019401925f915b8383106110d757505050505090565b909192939460208082601f1985600195030186528851906111018183516001600160a01b03169052565b818301516001600160a01b03168184015261112460408301516040830190610d1a565b611136606083015160608301906110a2565b61114860808301516080830190610d1a565b6101808061116760a08501516101a060a08601526101a08501906103e4565b9360c081015160c085015260e081015160e08501526101008101516101008501526101208101516101208501526101408101516101408501526101608101516101608501520151910152970193019301919392906110c8565b90602080835192838152019201905f5b8181106111dd5750505090565b82518452602093840193909201916001016111d0565b93929161121c9061120e6040936060885260608801906110ac565b9086820360208801526111c0565b930152565b346100155761122f3661107e565b91908082906112496104fc6002546001600160a01b031690565b93604051917f49138690000000000000000000000000000000000000000000000000000000008352602083600481895afa9283156105bf575f936113db575b5082106113d1575b81106113c9575b5090915f906112a5856131d0565b946112af81612861565b935b858110806113c0575b1561139957604051630c3fc6b960e01b8152600481018290525f81602481875afa9081156105bf575f91611377575b5060608101600181516112fb81611098565b61130481611098565b14908115611359575b50611322575b5061131d90613377565b6112b1565b84611352918361133661131d95988a6127ab565b52611341828b6127ab565b5261134c818a6127ab565b50613377565b9390611313565b600291505161136781611098565b61137081611098565b145f61130d565b61139391503d805f833e61138b81836102ed565b81019061327f565b5f6112e9565b61051f879185879481036113b5575b50604051938493846111f3565b8084528452846113a8565b508184106112ba565b90505f611297565b9092508290611290565b6113fe91935060203d602011611405575b6113f681836102ed565b8101906131c1565b915f611288565b503d6113ec565b34610015576080600319360112610015576115646001600160a01b03600435611434816105c4565b61153a82602435611444816105c4565b6115108260443595611455876105c4565b81606435611462816105c4565b61146a614d2f565b165f52600560205260405f20600160ff1982541617905516805f52600560205261149e60405f20600160ff19825416179055565b6114c96114bc846001600160a01b03165f52600560205260405f2090565b600160ff19825416179055565b6114e76114bc876001600160a01b03165f52600560205260405f2090565b6001600160a01b031673ffffffffffffffffffffffffffffffffffffffff196002541617600255565b166001600160a01b031673ffffffffffffffffffffffffffffffffffffffff196003541617600355565b166001600160a01b031673ffffffffffffffffffffffffffffffffffffffff196004541617600455565b005b60206040818301928281528451809452019201905f5b8181106115895750505090565b909192602060a0826115c6600194885160808091805184526020810151602085015260408101516040850152606081015160608501520151910152565b01940192910161157c565b346100155760406003193601126100155760043567ffffffffffffffff8111610015576116029036906004016105d5565b60243561160e816105c4565b8151908115611687575b61162182613409565b9282611636575b6040518061051f8682611566565b5f5b8381106116455750611628565b8061166b84611666611659600195876127ab565b516001600160a01b031690565b6148e3565b61167582886127ab565b5261168081876127ab565b5001611638565b9050600491505f6116a36104fc6001546001600160a01b031690565b604051938480927f273cbaa00000000000000000000000000000000000000000000000000000000082525afa9182156105bf575f926116e6575b50815190611618565b6117039192503d805f833e6116fb81836102ed565b810190613385565b905f6116dd565b34610015575f6003193601126100155760206001600160a01b037f9016d09d72d40fdae2fd8ceac6b6234c7706214fd39c1cd1e609a0528c1993005416604051908152f35b9060206103e19281815201906110ac565b346100155761176e366103b6565b8051611779816131d0565b915f906117916104fc6002546001600160a01b031690565b915b8381106117a8576040518061051f878261174f565b805f6117b76117d793856127ab565b5160405180948192630c3fc6b960e01b8352600483019190602083019252565b0381875afa80156105bf576001925f91611809575b506117f782886127ab565b5261180281876127ab565b5001611793565b61181d91503d805f833e61138b81836102ed565b5f6117ec565b9060806003198301126100155760043561183c816105c4565b91602435611849816105c4565b9160443567ffffffffffffffff811161001557826118699160040161069e565b916064359067ffffffffffffffff8211610015576103e191600401610359565b34610015576118b261189a36611823565b919390916118a885856148e3565b925f955f956134c1565b9015611959575b506040810151926118c8614d8e565b670de0b6b3a764000003670de0b6b3a76400008111611954576118f7670de0b6b3a76400009161051f96612461565b048181106119175750506020915001516040519081529081906020820190565b909160200182611928838351612492565b1015611937575b5050506109d0565b61194c9350906119479151612492565b612430565b5f808061192f565b61240e565b92505f6118b9565b8015150361001557565b3461001557606060031936011261001557611a186024356040600435611990836105c4565b6044359061199d82611961565b335f5260056020526119b460ff845f20541661226a565b60025484905f906001600160a01b0316928551978895869485937fc2b335640000000000000000000000000000000000000000000000000000000085526004850191926001600160a01b036040929594606085019685521660208401521515910152565b03925af19081156105bf575f925f92611a6a575b5081611a3457005b82611a4282611564956148e3565b9260208401611a52828251612492565b9052611a6360608501918251612430565b9052614ddb565b909250611a8f915060403d604011611a97575b611a8781836102ed565b810190613457565b90915f611a2c565b503d611a7d565b346100155760a060031936011261001557600435611abb81610805565b6024356044359160643590600160843591611ad581610d0b565b03611b6757838310611b4757611b1993611aff83611afa611b0594611b0b9796612461565b612474565b92612430565b90612461565b670de0b6b3a7640000900490565b5f905b80158015611b3f575b611b2e90613476565b604080519182526020820192909252f35b508115611b25565b92611b05611b6193611aff611b0b94611afa5f9882612461565b90611b1c565b919291828411611b4757611b8a93611aff83611afa611b0594611b0b9796612461565b5f90611b1c565b34610015576040611bad611ba436611823565b929190916134c1565b825191151582526020820152f35b34610015576080611bd7611bce36611823565b929190916134f5565b916040519315158452602084015260408301526060820152f35b34610015576040600319360112610015576020611c12602435600435613588565b6040519015158152f35b93929161121c9061120e604093606088526060880190610d3e565b3461001557611c453661107e565b9190808290611c5f6104fc6002546001600160a01b031690565b93604051917fb8119888000000000000000000000000000000000000000000000000000000008352602083600481895afa9283156105bf575f93611dcd575b508210611dc3575b8110611dbb575b5090915f90611cbb85613126565b94611cc581612861565b935b85811080611db2575b15611d8b576040516320bf56eb60e21b8152600481018290525f81602481875afa9081156105bf575f91611d71575b506060810160018151611d1181610d27565b611d1a81610d27565b14908115611d53575b50611d38575b50611d3390613377565b611cc7565b84611d4c9183611336611d3395988a6127ab565b9390611d29565b6002915051611d6181610d27565b611d6a81610d27565b145f611d23565b611d8591503d805f833e610f0c81836102ed565b5f611cff565b61051f87918587948103611da7575b5060405193849384611c1c565b808452845284611d9a565b50818410611cd0565b90505f611cad565b9092508290611ca6565b611de791935060203d602011611405576113f681836102ed565b915f611c9e565b346100155760a060031936011261001557600435611e0b816105c4565b602435611e17816105c4565b60443567ffffffffffffffff811161001557611e37903690600401610658565b606435906084359260ff8416840361001557611e529461389c565b60408051928352602083019190915290f35b346100155760606003193601126100155760043567ffffffffffffffff811161001557611e95903690600401610359565b60243567ffffffffffffffff811161001557611eb590369060040161069e565b60443567ffffffffffffffff811161001557611ed5903690600401610359565b90335f526005602052611eee60ff60405f20541661226a565b8251915f5b838110611efc57005b611f5b9060c083611f186104fc6002546001600160a01b031690565b865f611f24868c6127ab565b51604051978895869485937fdcee347500000000000000000000000000000000000000000000000000000000855260048501613986565b03925af180156105bf575f905f915f905f935f965f94612115575b508161210d575b50611f90575b5050506001915001611ef3565b611fa56104fc6001546001600160a01b031690565b91823b15610015576040517fd3c2d8b70000000000000000000000000000000000000000000000000000000081526001600160a01b038581166004830152871660248201525f6044820181905290938490606490829084905af19283156105bf5761205a936120f9575b5061201a86856148e3565b91612026818451612492565b83526120408261203b60208601938451612492565b612492565b905261205160408301918251612430565b90528483614ddb565b61206f6104fc6001546001600160a01b031690565b92833b15610015576040517fd3c2d8b70000000000000000000000000000000000000000000000000000000081526001600160a01b03928316600482015291166024820152600a6044820152915f908390606490829084905af19182156105bf576001926120df575b8080611f83565b806120ed5f6120f3936102ed565b80610fd0565b5f6120d8565b806120ed5f612107936102ed565b5f61200f565b90505f611f7d565b94505050505061213d91925060c03d811161214c575b61213581836102ed565b81019061393a565b9095949193909291905f611f76565b503d61212b565b3461001557611e5261216436611823565b92919091613a18565b34610015576101606003193601126100155760043561218b816105c4565b60243590612198826105c4565b608435916044356064356005851015610015576115649460a43560c4359160e4359361010435956121c96101243590565b976101443599613aa6565b34610015576020600319360112610015576115646004356121f4816105c4565b6121fc614d2f565b613b7f565b346100155761220f36610f1a565b81519061221b82612861565b925f5b838110612233576040518061051f878261071d565b80612255612243600193856127ab565b5161224e83876127ab565b5190613c5c565b61225f82886127ab565b90151590520161221e565b1561227157565b606460405162461bcd60e51b815260206004820152601a60248201527f63616c6c6572206973206e6f74206167656e74206b65657065720000000000006044820152fd5b5190610320826105c4565b519061032082610805565b5190600682101561001557565b81601f82011215610015578051906122ef8261063c565b926122fd60405194856102ed565b8284526020838301011161001557815f9260208093018386015e8301015290565b6020818303126100155780519067ffffffffffffffff8211610015570190610180828203126100155761234f610310565b91612359816122b5565b8352612367602082016122b5565b6020840152612378604082016122c0565b6040840152612389606082016122cb565b60608401526080810151608084015260a081015167ffffffffffffffff811161001557610160926123bb9183016122d8565b60a084015260c081015160c084015260e081015160e0840152610100810151610100840152610120810151610120840152610140810151610140840152015161016082015290565b6040513d5f823e3d90fd5b634e487b7160e01b5f52601160045260245ffd5b5f1981019190821161195457565b9190820391821161195457565b90670de0b6b3a7640000820291808304670de0b6b3a7640000149015171561195457565b8181029291811591840414171561195457565b811561247e570490565b634e487b7160e01b5f52601260045260245ffd5b9190820180921161195457565b906124b56104fc6002546001600160a01b031690565b925f60405180956320bf56eb60e21b825281806124da88600483019190602083019252565b03915afa9384156105bf575f94612716575b506124fa610a848385613c5c565b61270b5760408401926001845161251081610d0b565b61251981610d0b565b14806126fe575b1561264a5760c0850193845195612543611b0b60e0830198611b058a5189612430565b9461254f818786613e9a565b909a925098908a15612638578089036125fc575b505050908592915b81516001600160a01b031691602081015161258c906001600160a01b031690565b9060a08101519361259b613fd4565b9551926125a784610d0b565b60c083019685885160e08601519061010087019788519461012089019b8c51976001600160a01b03166125d99961403a565b516001600160a01b0316956125ec614206565b9451915193519461032097614254565b611b0b985061262e92959493506126218161203b612626939b8c998651905190612461565b61243d565b905190612474565b9091925f80612563565b505f9950899850889750505050505050565b6002845161265781610d0b565b61266081610d0b565b14806126f1575b156126e55760c085019384519561268a611b0b60e0830198611b05888b51612430565b94612696818786613e9a565b909a925098908a15612638578089036126b6575b5050509085929161256b565b611b0b98506126db929594935061262181611947612626939b8c998651905190612461565b9091925f806126aa565b505f9350839250829150565b508260e086015111612667565b5060e08501518311612520565b5f9350839250829150565b61272b9194503d805f833e610f0c81836102ed565b925f6124ec565b9061273c82610341565b61274960405191826102ed565b828152601f196127598294610341565b01905f5b82811061276957505050565b6020906040516127788161023d565b606081525f838201525f60408201525f60608201525f60808201525f60a08201525f60c08201528282850101520161275d565b80518210156127bf5760209160051b010190565b634e487b7160e01b5f52603260045260245ffd5b6020818303126100155780519067ffffffffffffffff821161001557019060e08282031261001557612803610322565b91805167ffffffffffffffff81116100155760c0926128239183016122d8565b83526020810151602084015260408101516040840152606081015160608401526080810151608084015260a081015160a0840152015160c082015290565b9061286b82610341565b61287860405191826102ed565b828152601f196128888294610341565b0190602036910137565b939290918451926128a284612861565b955f5b8581106128b457505050505050565b806128ea86866001600160a01b036128ce600196886127ab565b51166001600160a01b036128e2868a6127ab565b5116906134f5565b5050506128f7828b6127ab565b9015159052016128a5565b6040519061290f8261025e565b5f6080838281528260208201528260408201528260608201520152565b509495939195929092335f52600560205261294d60ff60405f20541661226a565b6129626104fc6002546001600160a01b031690565b5f60405180927f0187703f000000000000000000000000000000000000000000000000000000008252818061299f8b600483019190602083019252565b03915afa80156105bf576020915f91612b18575b5001511590811591612b0d575b6129cf828286868c8a8d614421565b935f955f975f608088015260608701995f8b526129ee858d85846145d7565b9b5f5b8d51811015612af457612a0387610d0b565b8d8160018903612ad157612a16916127ab565b515b898c1015612a915760018101612a32575b506001016129f1565b888b888e9f9e612a42908e612430565b916020015191612a519461473b565b612a5e919e92939f612492565b9c612a6891612492565b9c60808c015190612a7891612492565b60808c01528d5190612a8991612492565b8d525f612a29565b505092999a509590969a50612ac497508994508a935b612aaf613fd4565b855193602087019b60408d51980151996140e7565b612acc614206565b505290565b90612ae8612ae3612aee938351612430565b612422565b906127ab565b51612a18565b5092999a509590969a50612ac497508994508a93612aa7565b5f19861491506129c0565b612b2c91503d805f833e6105b181836102ed565b5f6129b3565b90816101009103126100155760e060405191612b4d8361027a565b805183526020810151602084015260408101516040840152606081015160608401526080810151608084015260a081015160a084015260c081015160c0840152015160e082015290565b612c33916001600160a01b036114bc92612baf614e85565b612bb7614e85565b612bc033613b7f565b168073ffffffffffffffffffffffffffffffffffffffff195f5416175f555f52600560205260405f20600160ff198254161790556001600160a01b03811673ffffffffffffffffffffffffffffffffffffffff1960015416176001556001600160a01b03165f52600560205260405f2090565b612c516114bc336001600160a01b03165f52600560205260405f2090565b6103206114bc306001600160a01b03165f52600560205260405f2090565b60405190612c7c8261025e565b60606080835f81525f60208201525f60408201525f838201520152565b60ff5f199116019060ff821161195457565b93929190959495612cba612c6f565b9694612cc584610d0b565b612cd9612cd185612c99565b848484614bd6565b60608c015260408b0190815260208b01828152928b529990612d045750505050505050909150905f90565b91612d438492869489612d1c612d48998b99876149af565b9d8e9289612d38612d2b613fd4565b966126268151945161243d565b9251958a8a8a614191565b6145d7565b925f5b845181101561311057612d5d83610d0b565b6001831480156130f357612d7182876127ab565b515b612d886104fc6002546001600160a01b031690565b5f60405180926320bf56eb60e21b82528180612dac87600483019190602083019252565b03915afa9081156105bf575f916130d9575b506060810160018151612dd081610d27565b612dd981610d27565b149081156130bb575b50612df3575b505050600101612d4b565b91935f9290918a8885612e058a610d0b565b88806130ad575b15612fc25750612e37612e30611b0b8c611b0560c08901519160e08a015190612430565b8096612492565b978887612f39575b5050612e5160e0850151878786613f54565b50509050858103612efa575b50612edd84612eaa8888612ef299976001600160a01b0397612eeb97612e8e60019f9e9c516001600160a01b031690565b92612e97613fd4565b9060c0890151916101208a0151956142d2565b611659612ebe82516001600160a01b031690565b95602083019686612ed689516001600160a01b031690565b1690614c8a565b92516001600160a01b031690565b1690614cdf565b905f80612de8565b978694612eaa60019998612eeb946001600160a01b039697612f268e61203b612ef29d612edd99612430565b9d9a509796509450505094969750612e5d565b919891878310612f5857505085612f4f91612430565b965b5f80612e3f565b5f995091965081612f7057505060e08301515b612f51565b612f798a610d0b565b15612fa057612f6b9061262661262160c087019261203b611b0b855160e08b015190612461565b612f6b9061262661262160c0870192611947611b0b855160e08b015190612461565b9495612fcd8a610d0b565b888061309f575b15612ffe5750612e3785612ff8611b0b8d611b0560c08a01519160e08b0151612430565b97612492565b95946130098a610d0b565b60028a148080613091575b15613038575050612e37612e30611b0b8c611b0560c08901519160e08a0151612430565b6130448b979297610d0b565b80613083575b613059575b85612e3791612492565b9550612e378561307a611b0b8d611b0560c08a01519160e08b015190612430565b9791505061304f565b5060e08501518b101561304a565b5060e08601518c1115613014565b5060e08501518b1115612fd4565b5060e08501518b1015612e0c565b60029150516130c981610d27565b6130d281610d27565b145f612de2565b6130ed91503d805f833e610f0c81836102ed565b5f612dbe565b61310a613104612ae3848951612430565b876127ab565b51612d73565b5093945050505061311f614206565b5090600190565b9061313082610341565b61313d60405191826102ed565b828152601f1961314d8294610341565b01905f5b82811061315d57505050565b60209060405161316c81610297565b5f81525f838201525f60408201525f60608201525f6080820152606060a08201525f60c08201525f60e08201525f6101008201525f6101208201525f6101408201525f61016082015282828501015201613151565b90816020910312610015575190565b906131da82610341565b6131e760405191826102ed565b828152601f196131f78294610341565b01905f5b82811061320757505050565b602090604051613216816102b4565b5f81525f838201525f60408201525f60608201525f6080820152606060a08201525f60c08201525f60e08201525f6101008201525f6101208201525f6101408201525f6101608201525f610180820152828285010152016131fb565b5190600882101561001557565b6020818303126100155780519067ffffffffffffffff82116100155701906101a082820312610015576132b0610331565b916132ba816122b5565b83526132c8602082016122b5565b60208401526132d9604082016122c0565b60408401526132ea60608201613272565b60608401526132fb608082016122c0565b608084015260a081015167ffffffffffffffff811161001557610180926133239183016122d8565b60a084015260c081015160c084015260e081015160e0840152610100810151610100840152610120810151610120840152610140810151610140840152610160810151610160840152015161018082015290565b5f1981146119545760010190565b6020818303126100155780519067ffffffffffffffff821161001557019080601f830112156100155781516133b981610341565b926133c760405194856102ed565b81845260208085019260051b82010192831161001557602001905b8282106133ef5750505090565b6020809183516133fe816105c4565b8152019101906133e2565b9061341382610341565b61342060405191826102ed565b828152601f196134308294610341565b01905f5b82811061344057505050565b60209061344b612902565b82828501015201613434565b91908260409103126100155760208251613470816105c4565b92015190565b1561347d57565b606460405162461bcd60e51b815260206004820152600960248201527f504e4c206572726f7200000000000000000000000000000000000000000000006044820152fd5b906134cd939291613a18565b9091908083106134e65782039182116119545760019190565b918203918211611954575f9190565b9392613527919261350684876148e3565b93670de0b6b3a76400006135206040870151611b05614d8e565b0496613a18565b8092818310613541575b5050505090505f905f905f905f90565b51918103908082116119545781958201808311611954578311613531578282111561357a57505083039183831161195457600193929190565b9250935050600192915f9190565b905f6135c3926135a36104fc6002546001600160a01b031690565b6040518080968194630c3fc6b960e01b8352600483019190602083019252565b03915afa9182156105bf575f92613782575b5060608201600181516135e781611098565b6135f081611098565b14159081613763575b5061375d5760156101808301511461375657608082016001815161361c81610d0b565b61362581610d0b565b14806136e5575b6136dd576002905161363d81610d0b565b61364681610d0b565b14918261365d575b5050613658575f90565b600190565b90915060408101916001835161367281610d0b565b61367b81610d0b565b1492836136ce575b8315613694575b5050505f8061364e565b600291929350516136a481610d0b565b6136ad81610d0b565b1491826136bf575b50505f808061368a565b60e00151101590505f806136b5565b60e08301518210159350613683565b505050600190565b5060408301600181516136f781610d0b565b61370081610d0b565b149081613747575b8115613715575b5061362c565b600291505161372381610d0b565b61372c81610d0b565b1480613739575b5f61370f565b5060e0830151821015613733565b60e08501518411159150613708565b5050600190565b50505f90565b600291505161377181611098565b61377a81611098565b14155f6135f9565b6137979192503d805f833e61138b81836102ed565b905f6135d5565b9092915f92801561381a576137e1670de0b6b3a7640000916137cc5f809581996137c6612c6f565b98614bd6565b50604088015260208701819052908652612461565b04908251808310155f146138075750508201809211611954575181039081116119545791565b9350949350905081039081116119545790565b50505050505f905f90565b9092801561389257613866670de0b6b3a76400009161385160015f965f9861384b612c6f565b97614bd6565b50604087015260208601819052908552612461565b049181518311155f146138825750519081039081116119545791565b9392505181039081116119545790565b505050505f905f90565b9293919093801561381a576138db611b0b60ff926138c6865f965f9a6138c0612c6f565b9a614bd6565b5060408a015260208901819052908852612461565b9216613914578251808310613904575061390192916138f991612492565b905190612430565b91565b6103e19350611947919594612492565b82519094939290821161392e576139019293945051612430565b6103e192505190612430565b91908260c091031261001557815161395181611961565b91602081015161396081611961565b916040820151916060810151613975816105c4565b9160a06080830151613470816105c4565b93929093606081019481526060602082015282518095526080810194602060808260051b8401019401905f5b8181106139cf575050506103e193945060408184039101526111c0565b909194602080613a09837fffffffffffffffffffffffffffffffffffffffffffffffffffffffffffffff808860019603018c5289516103e4565b970198019101969190966139b2565b5f94938592835b8551881015613a9c57613a49613a3589886127ab565b51613a408a866127ab565b5190848761379e565b95613a6b613a578b8a6127ab565b51613a628c886127ab565b51908689613825565b9282018092116119545781018091116119545795820180921161195457810180911161195457600190970196613a1f565b9594505050509250565b969097670de0b6b3a7640000613ae187613adc879a9e9d999a8495999899335f526005602052613adc60ff60405f20541661226a565b612461565b040499613aec613fd4565b92604051936001600160a01b038a168552602085015260408401526005841015610d15576103209a613b7a977f85a6bfd765950245f4f456c74db06ee8bad5a7ea04b80581aa7563d196421f6696610180966060870152608086015260a085015260c084015260e0830152610100820152836101208201528761014082015242610160820152a18383614c8a565b614cdf565b6001600160a01b03168015613c1b576001600160a01b037f9016d09d72d40fdae2fd8ceac6b6234c7706214fd39c1cd1e609a0528c199300548273ffffffffffffffffffffffffffffffffffffffff198216177f9016d09d72d40fdae2fd8ceac6b6234c7706214fd39c1cd1e609a0528c19930055167f8be0079c531659141344cd1fd0a4f28419497f9722a3daafe3b4186f6b6457e05f80a3565b7f1e4fbdf7000000000000000000000000000000000000000000000000000000005f525f60045260245ffd5b9081602091031261001557516103e181611961565b613c716104fc6002546001600160a01b031690565b915f60405180946320bf56eb60e21b82528180613c9687600483019190602083019252565b03915afa9283156105bf575f93613e4d575b506060830160018151613cba81610d27565b613cc381610d27565b14159081613e2e575b508015613e26575b613e05576040830160018151613ce981610d0b565b613cf281610d0b565b1480613e19575b15613dbe575090613d26611b0b8460c0613d1d60209660e0613d8099015190612430565b91015190612461565b905b613d3d6104fc6004546001600160a01b031690565b906040518095819482937fd3c76d660000000000000000000000000000000000000000000000000000000084526004840160209093929193604081019481520152565b03915afa9081156105bf575f91613d95575090565b6103e1915060203d602011613db7575b613daf81836102ed565b810190613c47565b503d613da5565b60029092919251613dce81610d0b565b613dd781610d0b565b1480613e0c575b15613e0557613dff611b0b8460c0613d1d60209660e0613d80990151612430565b90613d28565b5050505f90565b5060e08301518210613dde565b5060e08401518211613cf9565b508015613cd4565b6002915051613e3c81610d27565b613e4581610d27565b14155f613ccc565b613e629193503d805f833e610f0c81836102ed565b915f613ca8565b91908260809103126100155781519160208101519160606040830151613e8e81611961565b9201516103e181611961565b9060e46080925f6001600160a01b0381541660405196879586947ff26a3e1d000000000000000000000000000000000000000000000000000000008652600486015260016024860152604485015282606485015282608485015260a4840152600160c48401525af180156105bf575f925f935f935f93613f1c575b5093929190565b9250509250613f43915060803d608011613f4d575b613f3b81836102ed565b810190613e69565b919390925f613f15565b503d613f31565b60e4905f608094956001600160a01b038254169060405197889687957ff26a3e1d00000000000000000000000000000000000000000000000000000000875260048701528460248701526044860152606485015282608485015260a48401528160c48401525af180156105bf575f925f935f935f93613f1c575093929190565b600460206001600160a01b0360025416604051928380927fc3710f250000000000000000000000000000000000000000000000000000000082525afa9081156105bf575f91614021575090565b6103e1915060203d602011611405576113f681836102ed565b9892956001600160a01b03956140879892957f52e38618358c614d6c859d2d6481831837d95cf94ee1be20b2243cbb5f69addc9a9498886040519b8c9b6101a08d526101a08d01906103e4565b9d1660208b015260408a015261409c81610d0b565b60608901526140af6080890160056110a2565b60a088015260c087015260e08601525f6101008601526101208501526101408401525f196101608401524261018084015216930390a2565b9a94956001600160a01b039791967f52e38618358c614d6c859d2d6481831837d95cf94ee1be20b2243cbb5f69addc9b939a956101a09a958a6141346040519e8f9e8f81815201906103e4565b9f1660208d015260408c015261414981610d0b565b60608b015261415c60808b0160036110a2565b60a08a015260c089015260e08801526101008701526101208601526101408501526101608401524261018084015216930390a2565b9892956001600160a01b03956141de9892957f52e38618358c614d6c859d2d6481831837d95cf94ee1be20b2243cbb5f69addc9a9498886040519b8c9b6101a08d526101a08d01906103e4565b9d1660208b015260408a01526141f381610d0b565b60608901526140af6080890160046110a2565b5f60206001600160a01b03600254166004604051809481937fb99ac9270000000000000000000000000000000000000000000000000000000083525af19081156105bf575f91614021575090565b94919261018096937f85a6bfd765950245f4f456c74db06ee8bad5a7ea04b80581aa7563d196421f669895926001600160a01b03604051981688526020880152604087015260036060870152608086015260a08501525f60c085015260e08401526101008301526101208201525f61014082015242610160820152a1565b95927f85a6bfd765950245f4f456c74db06ee8bad5a7ea04b80581aa7563d196421f669895926101809895926001600160a01b03604051991689526020890152604088015260036060880152608087015260a08601525f60c086015260e085015261010084015261012083015261014082015242610160820152a1565b6040519061435c8261027a565b5f60e0838281528260208201528260408201528260608201528260808201528260a08201528260c08201520152565b1561439257565b606460405162461bcd60e51b815260206004820152601b60248201527f616d6f756e74206973206772656174207468656e20667265657a6500000000006044820152fd5b156143dd57565b606460405162461bcd60e51b815260206004820152601360248201527f636c6f736520616d6f756e7420657863656564000000000000000000000000006044820152fd5b91959293909561442f612902565b966144e361443b612c6f565b9761444581610d0b565b61445961445182612c99565b858589614bd6565b9992905060208c929c019b606083019a8b528c52815261447761434f565b5061010060208d61448989898d6149af565b918291015261449a6104fc89614b1d565b898d604051988994859384937f32a84502000000000000000000000000000000000000000000000000000000008552600485016040919493926060820195825260208201520152565b03915afa9081156105bf57614552998c61453c948f6040806145349761454c9b5f916145b8575b500151910152156145a55761452e916145269151905190612430565b8c11156143d6565b5161243d565b8a5190612474565b8a5261454781610d0b565b612c99565b9361389c565b929060608501926080860194855281845282518110614574575b505050505090565b614599936145906145888361262695612461565b855190612474565b90528451612461565b90525f8080808061456c565b506145b390518c111561438b565b61452e565b6145d191506101003d8111610a1657610a0481836102ed565b5f61450a565b916001600160a01b035f938195614637836002541694604051988997889687967fec4082910000000000000000000000000000000000000000000000000000000088521660048701521660248501526080604485015260848401906103e4565b9061464181610d0b565b606483015203915afa9081156105bf575f9161465b575090565b90503d805f833e61466c81836102ed565b8101906020818303126100155780519067ffffffffffffffff821161001557019080601f830112156100155781516146a381610341565b926146b160405194856102ed565b81845260208085019260051b82010192831161001557602001905b8282106146d95750505090565b81518152602091820191016146cc565b90816060910312610015578051916040602083015192015190565b93909796959260c0959260e08601998652602086015261472381610d0b565b60408501526060840152608083015260a08201520152565b9094939291926147566104fc6002546001600160a01b031690565b91604051966320bf56eb60e21b88525f888061477a85600483019190602083019252565b0381875afa9788156105bf575f986148c7575b50606088016001815161479f81610d27565b6147a881610d27565b141590816148a8575b50614896576060949392916148315f9283906147d060a08d0151614a75565b519060c08d01519081811015871461488c57509b8c965b15614884575b60400151976147fb89610d0b565b6040519a8b998a9889977f17900de000000000000000000000000000000000000000000000000000000000895260048901614704565b03925af19283156105bf575f935f925f9161484d575b50919392565b91945050614873915060603d60601161487d575b61486b81836102ed565b8101906146e9565b919390915f614847565b503d614861565b8692506147ed565b90509b8c966147e7565b50505050505090505f905f905f905f90565b60029150516148b681610d27565b6148bf81610d27565b14155f6147b1565b6148dc9198503d805f833e610f0c81836102ed565b965f61478d565b6001600160a01b03604460a0926148f8612902565b5082600154168360405196879586947fccf1a4b20000000000000000000000000000000000000000000000000000000086521660048501521660248301525afa9081156105bf575f91614949575090565b905060a0813d60a0116149a7575b8161496460a093836102ed565b810103126100155760806040519161497b8361025e565b805183526020810151602084015260408101516040840152606081015160608401520151608082015290565b3d9150614957565b906001600160a01b039283602093614a10826001541693604051978896879586957f702c2b740000000000000000000000000000000000000000000000000000000087521660048601521660248401526060604484015260648301906103e4565b03915afa9081156105bf575f91614021575090565b908160c09103126100155760a060405191614a3f836102d1565b8051835260208101516020840152604081015160408401526060810151606084015260808101516080840152015160a082015290565b60c06001600160a01b03614ab66004935f60a0604051614a94816102d1565b8281528260208201528260408201528260608201528260808201520152614b1d565b16604051928380927f639122c90000000000000000000000000000000000000000000000000000000082525afa9081156105bf575f91614af4575090565b6103e1915060c03d60c011614b16575b614b0e81836102ed565b810190614a25565b503d614b04565b6020614b6a916001600160a01b036001541660405180809581947f05ca57cf00000000000000000000000000000000000000000000000000000000835286600484015260248301906103e4565b03915afa9081156105bf575f91614b7f575090565b90506020813d602011614bac575b81614b9a602093836102ed565b8101031261001557516103e1816105c4565b3d9150614b8d565b9190826080910312610015578151916020810151916060604083015192015190565b916001600160a01b03608093819560ff614c38846002541695604051998a98899788977f3a0204a900000000000000000000000000000000000000000000000000000000895216600488015216602486015288604486015260848501906103e4565b9116606483015203915afa80156105bf575f925f935f935f93614c5c575093929190565b9250509250613f43915060803d608011614c83575b614c7b81836102ed565b810190614bb4565b503d614c71565b90918015614cda577feb42cf637f927243245c50b4bf7fe105fe4f4d26209102240f2ba3d8e27a7df860606001600160a01b03805f966040519560048752602087015242604087015216941692a4565b505050565b90918015614cda577feb42cf637f927243245c50b4bf7fe105fe4f4d26209102240f2ba3d8e27a7df860606001600160a01b03805f966040519560058752602087015242604087015216941692a4565b6001600160a01b037f9016d09d72d40fdae2fd8ceac6b6234c7706214fd39c1cd1e609a0528c19930054163303614d6257565b7f118cdaa7000000000000000000000000000000000000000000000000000000005f523360045260245ffd5b600460206001600160a01b0360015416604051928380927f89f00b6d0000000000000000000000000000000000000000000000000000000082525afa9081156105bf575f91614021575090565b90916001600160a01b0360015416803b15610015575f928360e492614e6c6001600160a01b039586604051998a9889977fe448cc41000000000000000000000000000000000000000000000000000000008952166004880152166024860152604485019060808091805184526020810151602085015260408101516040850152606081015160608501520151910152565b5af180156105bf57614e7b5750565b5f610320916102ed565b60ff7ff0c57e16840df040f15088dc2f81fe391c3923bec73e23a9662efc9c229c6a005460401c1615614eb457565b7fd7e6bcf8000000000000000000000000000000000000000000000000000000005f5260045ffdfea2646970667358221220c2936e91336626413e8606a6edf68377565fce4fe1cbd353bdc229c8755adf4664736f6c634300081c0033",
  "linkReferences": {},
  "deployedLinkReferences": {}
}