{
  "_format": "hh-sol-artifact-1",
  "contractName": "TradeStation",
  "sourceName": "contracts/TradeStation.sol",
  "abi": [
    {
      "inputs": [],
      "name": "InvalidInitialization",
      "type": "error"
    },
    {
      "inputs": [],
      "name": "NotInitializing",
      "type": "error"
    },
    {
      "inputs": [
        {
          "internalType": "address",
          "name": "owner",
          "type": "address"
        }
      ],
      "name": "OwnableInvalidOwner",
      "type": "error"
    },
    {
      "inputs": [
        {
          "internalType": "address",
          "name": "account",
          "type": "address"
        }
      ],
      "name": "OwnableUnauthorizedAccount",
      "type": "error"
    },
    {
      "anonymous": false,
      "inputs": [
        {
          "indexed": false,
          "internalType": "address",
          "name": "token",
          "type": "address"
        },
        {
          "indexed": false,
          "internalType": "address",
          "name": "holder",
          "type": "address"
        },
        {
          "indexed": false,
          "internalType": "string",
          "name": "name",
          "type": "string"
        },
        {
          "indexed": false,
          "internalType": "enum ICommon.Direct",
          "name": "direct",
          "type": "uint8"
        },
        {
          "indexed": false,
          "internalType": "uint256",
          "name": "value",
          "type": "uint256"
        },
        {
          "indexed": false,
          "internalType": "uint256",
          "name": "size",
          "type": "uint256"
        },
        {
          "indexed": false,
          "internalType": "uint256",
          "name": "margin",
          "type": "uint256"
        },
        {
          "indexed": false,
          "internalType": "uint256",
          "name": "freeze",
          "type": "uint256"
        }
      ],
      "name": "AccountPosition",
      "type": "event"
    },
    {
      "anonymous": false,
      "inputs": [
        {
          "indexed": false,
          "internalType": "address",
          "name": "token",
          "type": "address"
        },
        {
          "indexed": false,
          "internalType": "address",
          "name": "taker",
          "type": "address"
        },
        {
          "indexed": false,
          "internalType": "uint256",
          "name": "amount",
          "type": "uint256"
        },
        {
          "indexed": false,
          "internalType": "uint256",
          "name": "availableAmount",
          "type": "uint256"
        },
        {
          "indexed": false,
          "internalType": "uint256",
          "name": "marginAmount",
          "type": "uint256"
        },
        {
          "indexed": false,
          "internalType": "uint256",
          "name": "locked",
          "type": "uint256"
        },
        {
          "indexed": false,
          "internalType": "uint256",
          "name": "stage",
          "type": "uint256"
        },
        {
          "indexed": false,
          "internalType": "uint256",
          "name": "dif",
          "type": "uint256"
        }
      ],
      "name": "BalanceOfTaker",
      "type": "event"
    },
    {
      "anonymous": false,
      "inputs": [
        {
          "indexed": false,
          "internalType": "string",
          "name": "name",
          "type": "string"
        },
        {
          "indexed": true,
          "internalType": "address",
          "name": "taker",
          "type": "address"
        },
        {
          "indexed": true,
          "internalType": "address",
          "name": "token",
          "type": "address"
        },
        {
          "indexed": false,
          "internalType": "uint256",
          "name": "orderID",
          "type": "uint256"
        },
        {
          "indexed": false,
          "internalType": "enum ICommon.Direct",
          "name": "direct",
          "type": "uint8"
        },
        {
          "indexed": false,
          "internalType": "enum IPerpetual.OrderState",
          "name": "state",
          "type": "uint8"
        },
        {
          "indexed": false,
          "internalType": "enum ICommon.Offset",
          "name": "offset",
          "type": "uint8"
        },
        {
          "indexed": false,
          "internalType": "uint256",
          "name": "amount",
          "type": "uint256"
        },
        {
          "indexed": false,
          "internalType": "uint256",
          "name": "targetPrice",
          "type": "uint256"
        },
        {
          "indexed": false,
          "internalType": "uint256",
          "name": "margin",
          "type": "uint256"
        },
        {
          "indexed": false,
          "internalType": "uint256",
          "name": "rewardGas",
          "type": "uint256"
        },
        {
          "indexed": false,
          "internalType": "uint256",
          "name": "tradingFee",
          "type": "uint256"
        },
        {
          "indexed": false,
          "internalType": "uint256",
          "name": "startTime",
          "type": "uint256"
        },
        {
          "indexed": false,
          "internalType": "uint256",
          "name": "orderType",
          "type": "uint256"
        }
      ],
      "name": "CreateLimitedOrder",
      "type": "event"
    },
    {
      "anonymous": false,
      "inputs": [
        {
          "indexed": false,
          "internalType": "uint256",
          "name": "limitOrderID",
          "type": "uint256"
        },
        {
          "indexed": false,
          "internalType": "uint256",
          "name": "openLimitPrice",
          "type": "uint256"
        },
        {
          "indexed": false,
          "internalType": "uint256",
          "name": "gainTriggerPrice",
          "type": "uint256"
        },
        {
          "indexed": false,
          "internalType": "uint256",
          "name": "gainLimitPrice",
          "type": "uint256"
        },
        {
          "indexed": false,
          "internalType": "uint256",
          "name": "lossTriggerPrice",
          "type": "uint256"
        },
        {
          "indexed": false,
          "internalType": "uint256",
          "name": "lossLimitPrice",
          "type": "uint256"
        }
      ],
      "name": "CreateTriggerCondition",
      "type": "event"
    },
    {
      "anonymous": false,
      "inputs": [
        {
          "indexed": false,
          "internalType": "uint256",
          "name": "code",
          "type": "uint256"
        },
        {
          "indexed": false,
          "internalType": "uint256",
          "name": "orderID",
          "type": "uint256"
        },
        {
          "indexed": false,
          "internalType": "string",
          "name": "message",
          "type": "string"
        }
      ],
      "name": "ErrorInfo",
      "type": "event"
    },
    {
      "anonymous": false,
      "inputs": [
        {
          "indexed": false,
          "internalType": "uint256",
          "name": "code",
          "type": "uint256"
        },
        {
          "indexed": false,
          "internalType": "uint256",
          "name": "orderID",
          "type": "uint256"
        },
        {
          "indexed": false,
          "internalType": "bytes",
          "name": "message",
          "type": "bytes"
        }
      ],
      "name": "ExceptErrorInfo",
      "type": "event"
    },
    {
      "anonymous": false,
      "inputs": [
        {
          "indexed": false,
          "internalType": "uint64",
          "name": "version",
          "type": "uint64"
        }
      ],
      "name": "Initialized",
      "type": "event"
    },
    {
      "anonymous": false,
      "inputs": [
        {
          "indexed": false,
          "internalType": "string",
          "name": "name",
          "type": "string"
        },
        {
          "indexed": true,
          "internalType": "address",
          "name": "taker",
          "type": "address"
        },
        {
          "indexed": true,
          "internalType": "address",
          "name": "token",
          "type": "address"
        },
        {
          "indexed": false,
          "internalType": "uint256",
          "name": "orderID",
          "type": "uint256"
        },
        {
          "indexed": false,
          "internalType": "enum ICommon.Direct",
          "name": "direct",
          "type": "uint8"
        },
        {
          "indexed": false,
          "internalType": "enum IPerpetual.OrderState",
          "name": "state",
          "type": "uint8"
        },
        {
          "indexed": false,
          "internalType": "enum ICommon.Offset",
          "name": "offset",
          "type": "uint8"
        },
        {
          "indexed": false,
          "internalType": "uint256",
          "name": "amount",
          "type": "uint256"
        },
        {
          "indexed": false,
          "internalType": "uint256",
          "name": "targetPrice",
          "type": "uint256"
        },
        {
          "indexed": false,
          "internalType": "uint256",
          "name": "margin",
          "type": "uint256"
        },
        {
          "indexed": false,
          "internalType": "uint256",
          "name": "rewardGas",
          "type": "uint256"
        },
        {
          "indexed": false,
          "internalType": "uint256",
          "name": "tradingFee",
          "type": "uint256"
        },
        {
          "indexed": false,
          "internalType": "uint256",
          "name": "startTime",
          "type": "uint256"
        },
        {
          "indexed": false,
          "internalType": "uint256",
          "name": "orderType",
          "type": "uint256"
        }
      ],
      "name": "LimitedOrderHistory",
      "type": "event"
    },
    {
      "anonymous": false,
      "inputs": [
        {
          "indexed": false,
          "internalType": "address",
          "name": "token",
          "type": "address"
        },
        {
          "indexed": false,
          "internalType": "address",
          "name": "taker",
          "type": "address"
        }
      ],
      "name": "LiquidateTaker",
      "type": "event"
    },
    {
      "anonymous": false,
      "inputs": [
        {
          "indexed": true,
          "internalType": "address",
          "name": "taker",
          "type": "address"
        },
        {
          "indexed": false,
          "internalType": "string",
          "name": "name",
          "type": "string"
        },
        {
          "indexed": false,
          "internalType": "address",
          "name": "token",
          "type": "address"
        },
        {
          "indexed": false,
          "internalType": "uint256",
          "name": "orderID",
          "type": "uint256"
        },
        {
          "indexed": false,
          "internalType": "enum ICommon.Direct",
          "name": "direction",
          "type": "uint8"
        },
        {
          "indexed": false,
          "internalType": "enum IPerpetual.OrderType",
          "name": "orderType",
          "type": "uint8"
        },
        {
          "indexed": false,
          "internalType": "uint256",
          "name": "amount",
          "type": "uint256"
        },
        {
          "indexed": false,
          "internalType": "uint256",
          "name": "costPrice",
          "type": "uint256"
        },
        {
          "indexed": false,
          "internalType": "uint256",
          "name": "price",
          "type": "uint256"
        },
        {
          "indexed": false,
          "internalType": "uint256",
          "name": "tradingFee",
          "type": "uint256"
        },
        {
          "indexed": false,
          "internalType": "uint256",
          "name": "leverage",
          "type": "uint256"
        },
        {
          "indexed": false,
          "internalType": "uint256",
          "name": "marginAmount",
          "type": "uint256"
        },
        {
          "indexed": false,
          "internalType": "uint256",
          "name": "limitOrderId",
          "type": "uint256"
        },
        {
          "indexed": false,
          "internalType": "uint256",
          "name": "timestamp",
          "type": "uint256"
        }
      ],
      "name": "OrderHistory",
      "type": "event"
    },
    {
      "anonymous": false,
      "inputs": [
        {
          "indexed": true,
          "internalType": "address",
          "name": "previousOwner",
          "type": "address"
        },
        {
          "indexed": true,
          "internalType": "address",
          "name": "newOwner",
          "type": "address"
        }
      ],
      "name": "OwnershipTransferred",
      "type": "event"
    },
    {
      "anonymous": false,
      "inputs": [
        {
          "indexed": false,
          "internalType": "address",
          "name": "token",
          "type": "address"
        },
        {
          "indexed": false,
          "internalType": "uint256",
          "name": "orderID",
          "type": "uint256"
        },
        {
          "indexed": false,
          "internalType": "uint256",
          "name": "dealID",
          "type": "uint256"
        },
        {
          "indexed": false,
          "internalType": "enum IPerpetual.TradeType",
          "name": "tradeType",
          "type": "uint8"
        },
        {
          "indexed": false,
          "internalType": "uint256",
          "name": "amount",
          "type": "uint256"
        },
        {
          "indexed": false,
          "internalType": "uint256",
          "name": "price",
          "type": "uint256"
        },
        {
          "indexed": false,
          "internalType": "uint256",
          "name": "tradingFee",
          "type": "uint256"
        },
        {
          "indexed": false,
          "internalType": "uint256",
          "name": "leverage",
          "type": "uint256"
        },
        {
          "indexed": false,
          "internalType": "uint256",
          "name": "marginAmount",
          "type": "uint256"
        },
        {
          "indexed": false,
          "internalType": "uint256",
          "name": "profit",
          "type": "uint256"
        },
        {
          "indexed": false,
          "internalType": "uint256",
          "name": "loss",
          "type": "uint256"
        },
        {
          "indexed": false,
          "internalType": "uint256",
          "name": "timestamp",
          "type": "uint256"
        }
      ],
      "name": "TradeHistory",
      "type": "event"
    },
    {
      "anonymous": false,
      "inputs": [
        {
          "indexed": true,
          "internalType": "address",
          "name": "token",
          "type": "address"
        },
        {
          "indexed": true,
          "internalType": "address",
          "name": "sender",
          "type": "address"
        },
        {
          "indexed": true,
          "internalType": "address",
          "name": "received",
          "type": "address"
        },
        {
          "indexed": false,
          "internalType": "enum ICommon.TransactionType",
          "name": "transactionType",
          "type": "uint8"
        },
        {
          "indexed": false,
          "internalType": "uint256",
          "name": "amount",
          "type": "uint256"
        },
        {
          "indexed": false,
          "internalType": "uint256",
          "name": "timestamp",
          "type": "uint256"
        }
      ],
      "name": "TransactionHistory",
      "type": "event"
    },
    {
      "anonymous": false,
      "inputs": [
        {
          "indexed": false,
          "internalType": "address",
          "name": "token",
          "type": "address"
        },
        {
          "indexed": false,
          "internalType": "address",
          "name": "sender",
          "type": "address"
        },
        {
          "indexed": false,
          "internalType": "string",
          "name": "name",
          "type": "string"
        },
        {
          "indexed": false,
          "internalType": "uint256",
          "name": "beforeLeverage",
          "type": "uint256"
        },
        {
          "indexed": false,
          "internalType": "uint256",
          "name": "afterLeverage",
          "type": "uint256"
        }
      ],
      "name": "setLeverage",
      "type": "event"
    },
    {
      "stateMutability": "nonpayable",
      "type": "fallback"
    },
    {
      "inputs": [
        {
          "internalType": "address",
          "name": "_token",
          "type": "address"
        },
        {
          "internalType": "address",
          "name": "_taker",
          "type": "address"
        },
        {
          "internalType": "uint256",
          "name": "_deposit",
          "type": "uint256"
        },
        {
          "internalType": "string[]",
          "name": "_pairs",
          "type": "string[]"
        },
        {
          "internalType": "uint256[]",
          "name": "_prices",
          "type": "uint256[]"
        }
      ],
      "name": "clearingTaker",
      "outputs": [
        {
          "internalType": "uint256",
          "name": "remainingDeposit",
          "type": "uint256"
        }
      ],
      "stateMutability": "nonpayable",
      "type": "function"
    },
    {
      "inputs": [
        {
          "internalType": "address",
          "name": "_token",
          "type": "address"
        },
        {
          "internalType": "address",
          "name": "_taker",
          "type": "address"
        },
        {
          "internalType": "string",
          "name": "_name",
          "type": "string"
        },
        {
          "internalType": "uint256",
          "name": "_amount",
          "type": "uint256"
        },
        {
          "internalType": "uint256",
          "name": "_price",
          "type": "uint256"
        },
        {
          "internalType": "enum ICommon.Direct",
          "name": "_direct",
          "type": "uint8"
        },
        {
          "internalType": "uint256",
          "name": "_limitID",
          "type": "uint256"
        }
      ],
      "name": "closeOrder",
      "outputs": [],
      "stateMutability": "nonpayable",
      "type": "function"
    },
    {
      "inputs": [
        {
          "internalType": "address",
          "name": "_priPool",
          "type": "address"
        },
        {
          "internalType": "address",
          "name": "_perpetual",
          "type": "address"
        }
      ],
      "name": "initialize",
      "outputs": [],
      "stateMutability": "nonpayable",
      "type": "function"
    },
    {
      "inputs": [
        {
          "internalType": "address",
          "name": "_token",
          "type": "address"
        },
        {
          "internalType": "address",
          "name": "_taker",
          "type": "address"
        },
        {
          "internalType": "string",
          "name": "_name",
          "type": "string"
        },
        {
          "internalType": "uint256",
          "name": "_amount",
          "type": "uint256"
        },
        {
          "internalType": "uint256",
          "name": "_price",
          "type": "uint256"
        },
        {
          "internalType": "enum ICommon.Direct",
          "name": "_type",
          "type": "uint8"
        },
        {
          "internalType": "uint256",
          "name": "_orderType2",
          "type": "uint256"
        },
        {
          "internalType": "uint256",
          "name": "_rewardsGas",
          "type": "uint256"
        }
      ],
      "name": "makeOpenLimitOrder",
      "outputs": [],
      "stateMutability": "nonpayable",
      "type": "function"
    },
    {
      "inputs": [
        {
          "internalType": "string",
          "name": "_name",
          "type": "string"
        },
        {
          "internalType": "address",
          "name": "_token",
          "type": "address"
        },
        {
          "internalType": "uint256",
          "name": "_amount",
          "type": "uint256"
        },
        {
          "internalType": "enum ICommon.Offset",
          "name": "_offset",
          "type": "uint8"
        },
        {
          "internalType": "enum ICommon.Direct",
          "name": "_direct",
          "type": "uint8"
        },
        {
          "internalType": "uint256",
          "name": "_param1",
          "type": "uint256"
        },
        {
          "internalType": "uint256",
          "name": "_param2",
          "type": "uint256"
        },
        {
          "internalType": "uint256",
          "name": "_param3",
          "type": "uint256"
        },
        {
          "internalType": "uint256",
          "name": "_param4",
          "type": "uint256"
        },
        {
          "internalType": "address",
          "name": "_taker",
          "type": "address"
        }
      ],
      "name": "ocoTrade",
      "outputs": [],
      "stateMutability": "payable",
      "type": "function"
    },
    {
      "inputs": [
        {
          "internalType": "address",
          "name": "_token",
          "type": "address"
        },
        {
          "internalType": "address",
          "name": "_taker",
          "type": "address"
        },
        {
          "internalType": "string",
          "name": "_name",
          "type": "string"
        },
        {
          "internalType": "uint256",
          "name": "_amount",
          "type": "uint256"
        },
        {
          "internalType": "uint256",
          "name": "_price",
          "type": "uint256"
        },
        {
          "internalType": "enum ICommon.Direct",
          "name": "_direct",
          "type": "uint8"
        },
        {
          "internalType": "uint256",
          "name": "_limitOrderID",
          "type": "uint256"
        },
        {
          "internalType": "uint256",
          "name": "_freezeAmount",
          "type": "uint256"
        }
      ],
      "name": "openOrder",
      "outputs": [],
      "stateMutability": "nonpayable",
      "type": "function"
    },
    {
      "inputs": [],
      "name": "owner",
      "outputs": [
        {
          "internalType": "address",
          "name": "",
          "type": "address"
        }
      ],
      "stateMutability": "view",
      "type": "function"
    },
    {
      "inputs": [],
      "name": "renounceOwnership",
      "outputs": [],
      "stateMutability": "nonpayable",
      "type": "function"
    },
    {
      "inputs": [
        {
          "internalType": "address",
          "name": "_orderBook",
          "type": "address"
        },
        {
          "internalType": "address",
          "name": "_agent",
          "type": "address"
        },
        {
          "internalType": "address",
          "name": "_poolAgent",
          "type": "address"
        },
        {
          "internalType": "address",
          "name": "_keeper",
          "type": "address"
        }
      ],
      "name": "setKeepers",
      "outputs": [],
      "stateMutability": "nonpayable",
      "type": "function"
    },
    {
      "inputs": [
        {
          "internalType": "string",
          "name": "_name",
          "type": "string"
        },
        {
          "internalType": "address",
          "name": "_token",
          "type": "address"
        },
        {
          "internalType": "uint256",
          "name": "_amount",
          "type": "uint256"
        },
        {
          "internalType": "uint256",
          "name": "_price",
          "type": "uint256"
        },
        {
          "internalType": "uint256",
          "name": "_orderType",
          "type": "uint256"
        },
        {
          "internalType": "enum ICommon.Offset",
          "name": "_offset",
          "type": "uint8"
        },
        {
          "internalType": "enum ICommon.Direct",
          "name": "_direct",
          "type": "uint8"
        },
        {
          "internalType": "uint256",
          "name": "_orderType2",
          "type": "uint256"
        },
        {
          "internalType": "address",
          "name": "_taker",
          "type": "address"
        },
        {
          "internalType": "uint256",
          "name": "_rewardGas",
          "type": "uint256"
        }
      ],
      "name": "trade",
      "outputs": [],
      "stateMutability": "payable",
      "type": "function"
    },
    {
      "inputs": [
        {
          "internalType": "address",
          "name": "newOwner",
          "type": "address"
        }
      ],
      "name": "transferOwnership",
      "outputs": [],
      "stateMutability": "nonpayable",
      "type": "function"
    },
    {
      "inputs": [
        {
          "internalType": "uint256[]",
          "name": "_orderID",
          "type": "uint256[]"
        },
        {
          "internalType": "string[]",
          "name": "_symbols",
          "type": "string[]"
        },
        {
          "internalType": "uint256[]",
          "name": "_prices",
          "type": "uint256[]"
        }
      ],
      "name": "triggerOrders",
      "outputs": [],
      "stateMutability": "nonpayable",
      "type": "function"
    }
  ],
  "bytecode": "0x60808060405234601557614347908161001a8239f35b5f80fdfe60806040526004361015610019575b3461001557005b5f80fd5b5f5f3560e01c8063068c9c2614611f7e57806307e71485146119f2578063485cc9551461173a5780636332d726146114ed5780636e839c64146112af578063715018a61461120957806381a4f173146110f05780638da5cb5b146110aa578063bcef60d714610e99578063c59b4d7814610cc7578063f2fde38b14610c9d5763fb13637b146100a8575061000e565b610140600319360112610c9a5760043567ffffffffffffffff8111610370576100d59036906004016120d3565b6100dd612031565b90608435906044359060a4356064356003821015610c985760c435936003851015610aac578760e43561010435976001600160a01b03891695868a03610a465761013960ff604061012435963381526005602052205416612281565b6101438a8c612be2565b61014c81612365565b600181036104ba57506103db5750509061018091338952600560205261017860ff60408b205416612281565b848789612641565b9261018b858761289b565b9060208201938451926060870193845111610397578051956101b360408901978851906122cc565b82526101c281518651906122cc565b90526101e860408201918251926101df60208b01948551906122ed565b9052898b61296d565b6001600160a01b036002541691823b156103935761024e90604051967fcc5bc7410000000000000000000000000000000000000000000000000000000088526001600160a01b038c16600489015260248801526101c060448801526101c4870190612340565b9261025881612365565b60648601528985809460e0839a84988496600160848701525f1960a4870152825160c48701525160e48601528b5161010486015251610124850152608081015161014485015260a081015161016485015260c081015161018485015201516101a483015203925af190811561037457839161035b575b50506001600160a01b0360015416905190803b1561034c57604051623bb5d360e61b81526001600160a01b03868116600483015285166024820152604481019290925282908290606490829084905af1801561035057610337575b505061033491612c55565b80f35b8161034191612094565b61034c57825f610329565b8280fd5b6040513d84823e3d90fd5b8161036591612094565b61037057815f6102ce565b5080fd5b6040513d85823e3d90fd5b634e487b7160e01b5f52602160045260245ffd5b8a80fd5b606460405162461bcd60e51b815260206004820152601160248201527f6f70656e20696e73756666696369656e740000000000000000000000000000006044820152fd5b92909350969493909633895260056020526103fc60ff60408b205416612281565b6104098189848a8a612641565b90610414888861289b565b9860208a01968751976060850198895111610476576103349b610471998261044261045f94518351906122cc565b9052610456606083019182519051906122ed565b90528b8b61296d565b60206040850151940151948a8a612a12565b612c55565b606460405162461bcd60e51b815260206004820152601760248201527f6f70656e206c696d697420696e73756666696369656e740000000000000000006044820152fd5b9192908b8b8a8c9b9e9d9b60808c60409d9c9d51936104d885612047565b8685526020850193878552604086019780895260608088015280858801528060a08801528060c088015260e08701526105256001600160a01b03600254169261052081612365565b6125d5565b9661054660405198899586948594633a0204a960e01b865260048601612609565b03915afa938415610c8b57918f929161057195949284938596610c5d575b50908585925252526122cc565b8511610c1957610b495750505060a08791338352600560205261059a60ff604085205416612281565b6001600160a01b03600354168a6040519485809481936307e7148560e01b83526001600160a01b038d16998a60048501528c602485015260e060448501526105e560e485018d612340565b92606485015260848401526105f981612365565b60a48301525f1960c483015203925af1908115610aa1578791610b0e575b50610622868661289b565b602081019081519161068661063d60208601948551906122ed565b8b61064e60608801928351906122ed565b93610664604060808a01519901988951906122ed565b948590818110610b06576106799293506122cc565b90525b83519051906122ed565b92818410610ac25761069c8b926106ba956122cc565b835260408301805191519091818111610ab0575050525b878761296d565b6001600160a01b03600154169051813b15610aac57604051623bb5d360e61b81526001600160a01b0387811660048301528816602482015260448101919091529087908290606490829084905af18015610aa157908791610a8c575b50506001600160a01b036002541661072d88612365565b610758608061073b8a6125d5565b60405180938192633a0204a960e01b8352888c8c60048601612609565b0381855afa908115610a81578891610a4e575b5015610781575b50505050610334929350612c55565b6040517f982edc3c0000000000000000000000000000000000000000000000000000000081526001600160a01b03868116600483015287166024820152949693959294919392908390839060449082905afa9182156103745783926109af575b50825b8251811015610999576107f78184612379565b515f19811461099057602490856001600160a01b036002541660405193848092630c3fc6b960e01b82528560048301525afa918215610985579060019392918792610961575b5060208201916001600160a01b038351168b14908161094d575b816108df575b816108b4575b81610893575b50610878575b50505b016107e4565b6001600160a01b0361088c925116906141d2565b5f8061086f565b60029150608001516108a481612365565b6108ad81612365565b145f610869565b90508c6108d76040830151916108c983612365565b6108d283612365565b612365565b8d1490610863565b90508960405161090e6020828180820195805191829101875e81018d838201520301601f198101835282612094565b51902060a08201516040516109436020828d8280830196805191829101885e820190838201520301601f198101835282612094565b519020149061085d565b80516001600160a01b03168a149150610857565b61097e9192503d8089833e6109768183612094565b8101906123e7565b905f61083d565b6040513d88823e3d90fd5b50600190610872565b50945050945050506103349183925f8080610772565b9091503d8084833e6109c18183612094565b810190602081830312610a465780519067ffffffffffffffff8211610a4a57019080601f83011215610a465781516109f88161218d565b92610a066040519485612094565b81845260208085019260051b820101928311610a4257602001905b828210610a3257505050905f6107e1565b8151815260209182019101610a21565b8580fd5b8380fd5b8480fd5b610a70915060803d608011610a7a575b610a688183612094565b8101906125e7565b505090505f61076b565b503d610a5e565b6040513d8a823e3d90fd5b81610a9691612094565b610a4257855f610716565b6040513d89823e3d90fd5b8780fd5b610abb9293506122cc565b90526106b3565b606460405162461bcd60e51b815260206004820152601260248201527f73686f756c64206265206465746f6e61746500000000000000000000000000006044820152fd5b50505261067c565b905060a03d60a011610b42575b610b258183612094565b81019060a081830312610aac5790610b3c916122fa565b5f610617565b503d610b1b565b99899a6001600160a01b0360029b999b98969798959495541694853b15610c155789976001600160a01b03958d95610bac6040519c8d9b8c9a8b9a63308b99cb60e21b8c521660048b015260248a01526101a060448a01526101a4890190612340565b95610bb681612365565b6064880152610bc481612365565b608487015260a486015260c48501528760e4850152876101048501528761012485015261014484015286610164840152610184830152039134905af180156103505761033757505061033491612c55565b8980fd5b606460405162461bcd60e51b815260206004820152601660248201527f636c6f736520616d6f756e7420746f6f206c61726765000000000000000000006044820152fd5b9194509450610c7c91925060803d608011610a7a57610a688183612094565b95919492939291905084610564565b8f604051903d90823e3d90fd5b865b80fd5b5034610c9a576020600319360112610c9a57610334610cba61201b565b610cc2612b83565b61250d565b5034610c9a5760a0600319360112610c9a57610ce161201b565b90610cea612031565b9160643567ffffffffffffffff811161034c57610d0b903690600401612202565b60843567ffffffffffffffff8111610a4657610d2b9036906004016121a5565b3384526005602052610d4360ff604086205416612281565b604435946001600160a01b03808695169116915b8351851015610e8e5785965b60ff8816906002821015610e81576001600160a01b0360025416906001610d8a8989612379565b51930160ff8111610e6d5791868a878b610e019795610db860ff6020991692610db284612365565b8b612379565b51604051998a98899788967f509423550000000000000000000000000000000000000000000000000000000088526004880152602487015260c0604487015260c4860190612340565b92610e0b81612365565b6064850152608484015260a483015203925af1908115610aa1578791610e3b575b50600160ff9198011696610d63565b90506020813d8211610e65575b81610e5560209383612094565b8101031261001557516001610e2c565b3d9150610e48565b60248a634e487b7160e01b81526011600452fd5b9750509360010193610d57565b602087604051908152f35b5034610c9a576060600319360112610c9a5760043567ffffffffffffffff811161037057610ecb9036906004016121a5565b60243567ffffffffffffffff811161034c57610eeb903690600401612202565b9060443567ffffffffffffffff8111610a465783610f0e849236906004016121a5565b903381526005602052610f2760ff604083205416612281565b80915b84518310156110a65790602491610f418487612379565b5190826001600160a01b036002541660405195868092630c3fc6b960e01b82528660048301525afa93841561037457839461108a575b506001600160a01b0384511692610f9d60208601946001600160a01b0386511690612be2565b8096815b815181101561107857610fb48183612379565b51604051610fe16020828180820195805191829101875e810188838201520301601f198101835282612094565b51902060a08801516040516110156020828180820195805191829101875e810189838201520301601f198101835282612094565b5190201461102557600101610fa1565b6001959299979491985061103b90849794612379565b515b801561106f576110669361105b6001600160a01b0393928493612e2a565b511691511690612c55565b01919390610f2a565b50505050611066565b5096926001949198969395929561103d565b61109f9194503d8085833e6109768183612094565b9287610f77565b5080f35b5034610c9a5780600319360112610c9a5760206001600160a01b037f9016d09d72d40fdae2fd8ceac6b6234c7706214fd39c1cd1e609a0528c1993005416604051908152f35b5034610c9a576080600319360112610c9a5761110a61201b565b611112612031565b90604435916001600160a01b038316809303610a46576064356001600160a01b038116809103610a4a576001600160a01b03809361114e612b83565b1690818652600560205260408620600160ff19825416179055818652600560205260408620600160ff19825416179055848652600560205260408620600160ff198254161790558552600560205260408520600160ff1982541617905573ffffffffffffffffffffffffffffffffffffffff1960025416176002551673ffffffffffffffffffffffffffffffffffffffff19600354161760035573ffffffffffffffffffffffffffffffffffffffff19600454161760045580f35b5034610c9a5780600319360112610c9a57611222612b83565b806001600160a01b037f9016d09d72d40fdae2fd8ceac6b6234c7706214fd39c1cd1e609a0528c1993005473ffffffffffffffffffffffffffffffffffffffff1981167f9016d09d72d40fdae2fd8ceac6b6234c7706214fd39c1cd1e609a0528c19930055167f8be0079c531659141344cd1fd0a4f28419497f9722a3daafe3b4186f6b6457e08280a380f35b50610140600319360112610c9a578060043567ffffffffffffffff81116114ea576112de9036906004016120d3565b6112e6612031565b6064359060038210156114e757608435906003821015610a4a5760a4359260e4359161012435936001600160a01b038516809503610aac57338852600560205261133660ff60408a205416612281565b61133f83612365565b60018314611494575b61135183612365565b6002831461142f575b6001600160a01b036002541693843b1561142b5788966001600160a01b03946113ae6040519a8b998a98899863308b99cb60e21b8a5216600489015260248801526101a060448801526101a4870190612340565b936113b881612365565b60648601526113c681612365565b608485015260443560a485015260c484015260c43560e484015261010483015261010435610124830152600b610144830152600161016483015234610184830152039134905af180156103505761141a5750f35b8161142491612094565b610c9a5780f35b8880fd5b9650841580159061148b575b1561144757879661135a565b606460405162461bcd60e51b815260206004820152601b60248201527f636c6f73652074726967676572207072696365206973207a65726f00000000006044820152fd5b5082151561143b565b965084156114a3578796611348565b606460405162461bcd60e51b815260206004820152601a60248201527f6f70656e2074726967676572207072696365206973207a65726f0000000000006044820152fd5b50505b50fd5b5034610c9a576115286114ff36612119565b949290979193969596338a52600560205261152060ff60408c205416612281565b838888612641565b90600192611536878761289b565b946001890161170d575b5060208501948551906060850191825111610397578a9981519761156a60408801998a51906122cc565b835261157981518551906122cc565b9052611596604083019283519361045660208a01958651906122ed565b6001600160a01b036002541693843b15611709578b968b9488948c946040519b8c9a8b998a987fcc5bc741000000000000000000000000000000000000000000000000000000008a526001600160a01b031660048a01526001600160a01b03166024890152604488016101c090526101c4880161161291612340565b9561161c81612365565b606488015261162a8161236f565b608487015260a4860152825160c48601525160e48501528a5161010485015251610124840152608081015161014484015260a081015161016484015260c081015161018484015260e001516101a483015203925af19081156116fe5785916116e9575b50506001600160a01b0360015416905190803b15610a4a57604051623bb5d360e61b81526001600160a01b039384166004820152939092166024840152604483015282908290606490829084905af180156103505761141a5750f35b816116f391612094565b6114e757835f61168d565b6040513d87823e3d90fd5b8b80fd5b9350600293602086016117218282516122ed565b9052611732606087019182516122cc565b90525f611540565b5034610c9a576040600319360112610c9a5761175461201b565b61175c612031565b7ff0c57e16840df040f15088dc2f81fe391c3923bec73e23a9662efc9c229c6a00549160ff8360401c16159267ffffffffffffffff8116801590816119ea575b60011490816119e0575b1590816119d7575b506119af576001600160a01b039291818560017fffffffffffffffffffffffffffffffffffffffffffffffff0000000000000000879516177ff0c57e16840df040f15088dc2f81fe391c3923bec73e23a9662efc9c229c6a005561195a575b5061181661423f565b61181e61423f565b6118273361250d565b168073ffffffffffffffffffffffffffffffffffffffff198654161785558452600560205260408420600160ff19825416179055168073ffffffffffffffffffffffffffffffffffffffff1960015416176001558252600560205260408220600160ff19825416179055338252600560205260408220600160ff19825416179055308252600560205260408220600160ff198254161790556118c65780f35b7fffffffffffffffffffffffffffffffffffffffffffffff00ffffffffffffffff7ff0c57e16840df040f15088dc2f81fe391c3923bec73e23a9662efc9c229c6a0054167ff0c57e16840df040f15088dc2f81fe391c3923bec73e23a9662efc9c229c6a00557fc7f505b2f371ae2175ee4913f4499e1f2633a7b5936321eed1cdaeb6115181d2602060405160018152a180f35b7fffffffffffffffffffffffffffffffffffffffffffffff0000000000000000001668010000000000000001177ff0c57e16840df040f15088dc2f81fe391c3923bec73e23a9662efc9c229c6a00555f61180d565b6004857ff92ee8a9000000000000000000000000000000000000000000000000000000008152fd5b9050155f6117ae565b303b1591506117a6565b85915061179c565b50346100155760e060031936011261001557611a0c61201b565b611a14612031565b60443567ffffffffffffffff811161001557611a349036906004016120d3565b60a4359260038410156100155760c43591335f526005602052611a5d60ff60405f205416612281565b6001600160a01b036003541693604051926307e7148560e01b84526001600160a01b0381169384600482015260a0816001600160a01b0385169889602483015260e06044830152815f818d611ab560e483018c612340565b9060643560648401526084356084840152611acf81612365565b60a48301528c60c483015203925af1908115611f1f575f91611f45575b50611af7838361289b565b60208101908151611b4b611b1160208601928351906122ed565b611b2160608701918251906122ed565b94611b37604060808901519801978851906122ed565b958690818110611f3b5790610679916122cc565b838110610ac257611b7f93611b5f916122cc565b825260408201805191519091818111611f2a5750505f90525b848461296d565b6001600160a01b0360015416905190803b1561001557604051623bb5d360e61b81526001600160a01b0384811660048301528516602482015260448101929092525f908290606490829084905af18015611f1f57611f0a575b506001600160a01b036002541690611bef88612365565b611c1a6080611bfd8a6125d5565b60405180938192633a0204a960e01b835289898860048601612609565b0381865afa908115611eff578a91611edc575b5015611c37578880f35b6040517f982edc3c0000000000000000000000000000000000000000000000000000000081526001600160a01b03918216600482015292166024830152959690959091908290879060449082905afa958615610350578296611e49575b50815b8651811015611e3557611caa8188612379565b51858114611e2c57602490846001600160a01b036002541660405193848092630c3fc6b960e01b82528560048301525afa9182156116fe579060019392918692611e10575b5060208201916001600160a01b038351168a149081611dfc575b81611d90575b81611d66575b81611d45575b50611d2a575b50505b01611c97565b6001600160a01b03611d3e925116906141d2565b5f80611d21565b6002915060800151611d5681612365565b611d5f81612365565b145f611d1b565b90506040810151611d7681612365565b611d7f81612365565b611d888d612365565b8c1490611d15565b90506040516020810190611dbe6020828a5180838d01875e81018c838201520301601f198101835282612094565b51902060a0820151604051611df26020828180820195805191829101875e81018d838201520301601f198101835282612094565b5190201490611d0f565b80516001600160a01b031689149150611d09565b611e259192503d8088833e6109768183612094565b905f611cef565b50600190611d24565b50509450505050505f808080808080808880f35b9095503d8083833e611e5b8183612094565b81019060208183031261034c5780519067ffffffffffffffff8211610a4657019080601f8301121561034c578151611e928161218d565b92611ea06040519485612094565b81845260208085019260051b820101928311610a4a57602001905b828210611ecc57505050945f611c94565b8151815260209182019101611ebb565b611ef5915060803d608011610a7a57610a688183612094565b505090505f611c2d565b6040513d8c823e3d90fd5b611f179198505f90612094565b5f965f611bd8565b6040513d5f823e3d90fd5b90611f34916122cc565b9052611b78565b50505f905261067c565b905060a03d60a011611f77575b611f5c8183612094565b810160a08282031261001557611f71916122fa565b5f611aec565b503d611f52565b3461001557611f8c36612119565b95969390949291335f526005602052611fab60ff60405f205416612281565b611fb88383868b89612641565b93611fc3898761289b565b9860208a0180519a606088019b8c5111610476576120199b82611fec61200994518351906122cc565b9052612000606083019182519051906122ed565b9052828961296d565b6020604087015196015196612a12565b005b600435906001600160a01b038216820361001557565b602435906001600160a01b038216820361001557565b610100810190811067ffffffffffffffff82111761206457604052565b634e487b7160e01b5f52604160045260245ffd5b60a0810190811067ffffffffffffffff82111761206457604052565b90601f601f19910116810190811067ffffffffffffffff82111761206457604052565b67ffffffffffffffff811161206457601f01601f191660200190565b81601f82011215610015578035906120ea826120b7565b926120f86040519485612094565b8284526020838301011161001557815f926020809301838601378301015290565b610100600319820112610015576004356001600160a01b038116810361001557916024356001600160a01b038116810361001557916044359067ffffffffffffffff82116100155761216d916004016120d3565b90606435906084359060a4356003811015610015579060c4359060e43590565b67ffffffffffffffff81116120645760051b60200190565b9080601f830112156100155781356121bc8161218d565b926121ca6040519485612094565b81845260208085019260051b82010192831161001557602001905b8282106121f25750505090565b81358152602091820191016121e5565b9080601f830112156100155781356122198161218d565b926122276040519485612094565b81845260208085019260051b820101918383116100155760208201905b83821061225357505050505090565b813567ffffffffffffffff811161001557602091612276878480948801016120d3565b815201910190612244565b1561228857565b606460405162461bcd60e51b815260206004820152601c60248201527f63616c6c6572206973206e6f742073746174696f6e206b6565706572000000006044820152fd5b919082039182116122d957565b634e487b7160e01b5f52601160045260245ffd5b919082018092116122d957565b91908260a09103126100155760405161231281612078565b6080808294805184526020810151602085015260408101516040850152606081015160608501520151910152565b90601f19601f602080948051918291828752018686015e5f8582860101520116010190565b6003111561037f57565b6008111561037f57565b805182101561238d5760209160051b010190565b634e487b7160e01b5f52603260045260245ffd5b81601f82011215610015578051906123b8826120b7565b926123c66040519485612094565b8284526020838301011161001557815f9260208093018386015e8301015290565b6020818303126100155780519067ffffffffffffffff82116100155701906101a08282031261001557604051916101a0830183811067ffffffffffffffff8211176120645760405280516001600160a01b038116810361001557835260208101516001600160a01b038116810361001557602084015260408101516003811015610015576040840152606081015160088110156100155760608401526080810151600381101561001557608084015260a081015167ffffffffffffffff811161001557610180926124b99183016123a1565b60a084015260c081015160c084015260e081015160e0840152610100810151610100840152610120810151610120840152610140810151610140840152610160810151610160840152015161018082015290565b6001600160a01b031680156125a9576001600160a01b037f9016d09d72d40fdae2fd8ceac6b6234c7706214fd39c1cd1e609a0528c199300548273ffffffffffffffffffffffffffffffffffffffff198216177f9016d09d72d40fdae2fd8ceac6b6234c7706214fd39c1cd1e609a0528c19930055167f8be0079c531659141344cd1fd0a4f28419497f9722a3daafe3b4186f6b6457e05f80a3565b7f1e4fbdf7000000000000000000000000000000000000000000000000000000005f525f60045260245ffd5b60ff5f199116019060ff82116122d957565b9190826080910312610015578151916020810151916060604083015192015190565b9261263a906001600160a01b036060948160ff95999899168752166020860152608060408601526080850190612340565b9416910152565b9391905f60e060405161265381612047565b8281528260208201528260408201528260608201528260808201528260a08201528260c082015201526001600160a01b0380600154169181604051977f702c2b7400000000000000000000000000000000000000000000000000000000895216600488015216602486015260606044860152602085806126d66064820186612340565b0381845afa948515611f1f575f95612865575b5061272c9160209160405180809581947f05ca57cf0000000000000000000000000000000000000000000000000000000083528660048401526024830190612340565b03915afa908115611f1f575f91612821575b50610100926001600160a01b0360649260405196879586947f32a84502000000000000000000000000000000000000000000000000000000008652600486015260248501526044840152165afa908115611f1f575f9161279c575090565b9050610100813d8211612819575b816127b86101009383612094565b810103126100155760e0604051916127cf83612047565b805183526020810151602084015260408101516040840152606081015160608401526080810151608084015260a081015160a084015260c081015160c0840152015160e082015290565b3d91506127aa565b90506020813d60201161285d575b8161283c60209383612094565b8101031261001557516001600160a01b03811681036100155761010061273e565b3d915061282f565b9094506020813d602011612893575b8161288160209383612094565b8101031261001557519361272c6126e9565b3d9150612874565b6129229160a0915f60806040516128b181612078565b82815282602082015282604082015282606082015201526001600160a01b0360015416906040518095819482937fccf1a4b2000000000000000000000000000000000000000000000000000000008452600484019092916001600160a01b0360209181604085019616845216910152565b03915afa908115611f1f575f91612937575090565b905060a03d60a011612966575b61294e8183612094565b810160a08282031261001557612963916122fa565b90565b503d612944565b90916001600160a01b0360015416803b15610015575f928360e49260806001600160a01b039586604051998a9889977fe448cc41000000000000000000000000000000000000000000000000000000008952166004880152166024860152805160448601526020810151606486015260408101516084860152606081015160a4860152015160c48401525af18015611f1f57612a065750565b5f612a1091612094565b565b9891959697906001600160a01b036002541696873b15610015576001600160a01b03612a6992819c60046040519e8f9263308b99cb60e21b8452169101521660248c01526101a060448c01526101a48b0190612340565b92612a7381612365565b60648a01525f978997889687966001608489015260a488015260c487015260e48601528861010486015261012485015261014484015286610164840152610184830152039134905af18015611f1f57612a065750565b96959492909391936001600160a01b036002541694853b15610015576001600160a01b03612b1f92816040519b63308b99cb60e21b8d521660048c01521660248a01526101a060448a01526101a4890190612340565b90612b2981612365565b60648801525f958795869485946002608487015260a486015260c48501528760e485015261010484015286610124840152600b6101448401526001610164840152610184830152039134905af18015611f1f57612a065750565b6001600160a01b037f9016d09d72d40fdae2fd8ceac6b6234c7706214fd39c1cd1e609a0528c19930054163303612bb657565b7f118cdaa7000000000000000000000000000000000000000000000000000000005f523360045260245ffd5b906001600160a01b036001541690813b15610015576040517fd3c2d8b70000000000000000000000000000000000000000000000000000000081526001600160a01b039384166004820152921660248301525f60448301819052908290606490829084905af18015611f1f57612a065750565b906001600160a01b036001541690813b15610015576040517fd3c2d8b70000000000000000000000000000000000000000000000000000000081526001600160a01b03938416600482015292166024830152600a60448301525f908290606490829084905af18015611f1f57612a065750565b5f9060033d11612cd457565b905060045f803e5f5160e01c90565b5f60443d10612963576040516003193d016004823e8051913d602484011167ffffffffffffffff841117612d51578282019283519167ffffffffffffffff8311612d49576003193d85010160208487010111612d49575061296392910160200190612094565b949350505050565b92915050565b3d15612d81573d90612d68826120b7565b91612d766040519384612094565b82523d5f602084013e565b606090565b93979695926001600160a01b0360c0969381612db69416875216602086015260e0604086015260e0850190612340565b9660608401526080830152612dca81612365565b60a08201520152565b9491926001600160a01b0360e0979481612e08949c9b9a979c1688521660208701526101006040870152610100860190612340565b9760608501526080840152612e1c81612365565b60a083015260c08201520152565b906002546001600160a01b035f911660405190630c3fc6b960e01b82528460048301525f82602481845afa908115611f1f576024925f926141b4575b505f90604051938480927f0187703f0000000000000000000000000000000000000000000000000000000082528960048301525afa918215611f1f575f926140f8575b5060208201916001835114806140d8575b613a4c57604460206001600160a01b0360035416604051928380927fe6b34c690000000000000000000000000000000000000000000000000000000082528b60048301528a60248301525afa9081156116fe578591613a11575b50612f22575b505050505050565b60018351146133ae5760e082019485526080820160018151612f4381612365565b612f4c81612365565b036131d55750612f67610100830151610120840151906122ed565b6001600160a01b038351169160208401966001600160a01b038851169360a086019485519160c0880195865194519460408a0195865191612fa783612365565b303b156131d157928f8e969493612fef938897956040519a8b9889987f6332d726000000000000000000000000000000000000000000000000000000008a5260048a01612dd3565b038183305af191826131bc575b505061311a57505050505050600190613013612cc8565b6308c379a01461309d575b50613032575b50505b5f8080808080612f1a565b7f4c94adf18d8bfad12d476c7b93150b992bfa3fb9a83d713dd8a97359b7413f82916130706001600160a01b03613067612d57565b935116826141d2565b613093604051928392600584526020840152606060408401526060830190612340565b0390a15f80613024565b6130a5612ce3565b90816130b2575b5061301e565b7f356c1ed0403936d05af0abea05fbda16720ce964f55d7010cee1ba6cd8e1f60a91925061311090926130ef6001600160a01b03865116876141d2565b60405191829160058352876020840152606060408401526060830190612340565b0390a15f806130ac565b90612a10989597916101408698960193600285519a5114613149575b5050505050505060036060830152614296565b60608301918251158015906131af575b613164575b50613136565b6131776131a3979b60011c8097516122cc565b9a60a06001600160a01b03808d5116975116915192519361319785612365565b51945195015195612ac9565b5f80808080808061315e565b5060a08401511515613159565b816131c691612094565b610aac57875f612ffc565b8d80fd5b90506002919250516131e681612365565b6131ef81612365565b146131fe575b50505050613027565b6001600160a01b038151169260208201936001600160a01b038551169060a08401519260c0850151905160408601519161323783612365565b303b15610aac578988959386959361326493604051998a9788976307e7148560e01b895260048901612d86565b038183305af19182613399575b505061337e5750600190613283612cc8565b6308c379a014613301575b5061329f575b50505f8080806131f5565b7f4c94adf18d8bfad12d476c7b93150b992bfa3fb9a83d713dd8a97359b7413f82916132d46001600160a01b03613067612d57565b6132f7604051928392600684526020840152606060408401526060830190612340565b0390a15f80613294565b613309612ce3565b9081613316575b5061328e565b7f356c1ed0403936d05af0abea05fbda16720ce964f55d7010cee1ba6cd8e1f60a91925061337490926133536001600160a01b03865116876141d2565b60405191829160068352876020840152606060408401526060830190612340565b0390a15f80613310565b90612a10939250506003606082015261014081015191614296565b816133a391612094565b61034c57825f613271565b9150610140810191825192600160808401516133c981612365565b6133d281612365565b146133e1575b50505050505050565b6040820180518015908115613a03575b5080156139d7575b80156139ab575b1561366a57508560e08401526001600160a01b038351169160208401966001600160a01b038851169360a086019485519060c0880192835160408a019586519061344982612365565b303b156131d157918f8e9593928695936134a4604051998a9788977f6332d726000000000000000000000000000000000000000000000000000000008952600489015260248801526101006044880152610104870190612340565b93606486015260848501526134b881612365565b60a484015260c48301528360e4830152038183305af19182613655575b50506135ec57505050505050506001906134ed612cc8565b6308c379a01461356f575b5061350d575b50505b5f8080808080806133d8565b7f4c94adf18d8bfad12d476c7b93150b992bfa3fb9a83d713dd8a97359b7413f82916135426001600160a01b03613067612d57565b613565604051928392600384526020840152606060408401526060830190612340565b0390a15f806134fe565b613577612ce3565b9081613584575b506134f8565b7f356c1ed0403936d05af0abea05fbda16720ce964f55d7010cee1ba6cd8e1f60a9192506135e290926135c16001600160a01b03865116876141d2565b60405191829160038352876020840152606060408401526060830190612340565b0390a15f8061357e565b90829160606136219b989a949997990191825115801590613648575b613626575b505050505050505060036060830152614296565b613501565b61363c969a50613177865160011c8097516122cc565b5f80808080808061360d565b5060a08401511515613608565b8161365f91612094565b61142b57885f6134d5565b9350945061367e855160011c8096516122cc565b926001600160a01b038351169560208401966001600160a01b038851169160a08601519360c087015190516040880151906136b882612365565b61018089015192303b156117095792613706928c9795928897956040519a8b9889987f068c9c26000000000000000000000000000000000000000000000000000000008a5260048a01612dd3565b038183305af19182613996575b505061381e57505050600190613727612cc8565b6308c379a0146137a1575b5061373f575b5050613501565b7f4c94adf18d8bfad12d476c7b93150b992bfa3fb9a83d713dd8a97359b7413f82916137746001600160a01b03613067612d57565b613797604051928392600484526020840152606060408401526060830190612340565b0390a15f80613738565b6137a9612ce3565b90816137b6575b50613732565b7f356c1ed0403936d05af0abea05fbda16720ce964f55d7010cee1ba6cd8e1f60a91925061381490926137f36001600160a01b03865116876141d2565b60405191829160048352876020840152606060408401526060830190612340565b0390a15f806137b0565b909295949193506060810190815115801590613989575b61384f575b50506003606083015292935061362192614296565b6001600160a01b0360025416604051927f49138690000000000000000000000000000000000000000000000000000000008452602084600481855afa93841561397e57899461394a575b505f198401938411613936579060a08993925192015193813b15610a46578360e49260405196879586947fbe63309e000000000000000000000000000000000000000000000000000000008652600486015260026024860152836044860152606485015282608485015260a48401528160c48401525af1801561098557613921575b8061383a565b61392c868092612094565b610a4a575f61391b565b602489634e487b7160e01b81526011600452fd5b9093506020813d602011613976575b8161396660209383612094565b810103126100155751925f613899565b3d9150613959565b6040513d8b823e3d90fd5b5060a08101511515613835565b816139a091612094565b610a4a57845f613713565b50600260408501516139bc81612365565b6139c581612365565b14801561340057508051871015613400565b50600160408501516139e881612365565b6139f181612365565b1480156133f9575080518711156133f9565b905060e0850151145f6133f1565b90506020813d602011613a44575b81613a2c60209383612094565b81010312610a4a57518015158103610a4a575f612f14565b3d9150613a1f565b9091506060810193845115806140cc575b8015614083575b6140665780945f928151151580613ffb575b15613ecc576080019182518015928315613ec1575b50508115613e8e575b8115613e58575b5015613e4f5750506001905b610140810180519215613c5257506001600160a01b038151169360208201946001600160a01b038651169060a08401519260c085015190604086015191613aed83612365565b303b1561142b578a899593869593613b1a93604051998a9788976307e7148560e01b895260048901612d86565b038183305af19182613c3d575b5050613c28575050600190613b3a612cc8565b6308c379a014613bab575b50613b4e575050565b7f4c94adf18d8bfad12d476c7b93150b992bfa3fb9a83d713dd8a97359b7413f8291613b836001600160a01b03613067612d57565b613ba6604051928392600184526020840152606060408401526060830190612340565b0390a1565b613bb3612ce3565b9081613bc0575b50613b45565b7f356c1ed0403936d05af0abea05fbda16720ce964f55d7010cee1ba6cd8e1f60a919250613c1e9092613bfd6001600160a01b03865116876141d2565b60405191829160018352876020840152606060408401526060830190612340565b0390a15f80613bba565b91612a10949193505060036060830152614296565b81613c4791612094565b610a4657835f613b27565b91613c629060011c8093516122cc565b916001600160a01b0360025416946001600160a01b0383511660208401966001600160a01b0388511660a086015192604087015190613ca082612365565b60c08801519161018089015197853b1561001557613ced985f9889956040519b8c9a8b998a9863308b99cb60e21b8a5260048a015260248901526101a060448901526101a4880190612340565b94613cf781612365565b60648701526002608487015260a486015260c48501528460e485015284610104850152846101248501526101448401528361016484015261018483015203925af19081613e3a575b50613c28575050600190613d51612cc8565b6308c379a014613dbd575b50613d65575050565b7f4c94adf18d8bfad12d476c7b93150b992bfa3fb9a83d713dd8a97359b7413f8291613d9a6001600160a01b03613067612d57565b613ba6604051928392600284526020840152606060408401526060830190612340565b613dc5612ce3565b9081613dd2575b50613d5c565b7f356c1ed0403936d05af0abea05fbda16720ce964f55d7010cee1ba6cd8e1f60a919250613e309092613e0f6001600160a01b03865116876141d2565b60405191829160028352876020840152606060408401526060830190612340565b0390a15f80613dcc565b613e479194505f90612094565b5f925f613d3f565b51935090613aa7565b905060026040850151613e6a81612365565b613e7381612365565b149081613e82575b505f613a9b565b9050815110155f613e7b565b905060016040850151613ea081612365565b613ea981612365565b1480613eb6575b90613a94565b508082511115613eb0565b511491505f80613a8b565b905060a08101908151151580613f90575b15613f865760c0019182518015928315613f7b575b50508115613f48575b8115613f12575b5015613e4f575050600190613aa7565b905060026040850151613f2481612365565b613f2d81612365565b149081613f3c575b505f613f02565b9050815111155f613f35565b905060016040850151613f5a81612365565b613f6381612365565b1480613f70575b90613efb565b508082511015613f6a565b511491505f80613ef2565b5050505050505050565b506040850160018151613fa281612365565b613fab81612365565b149081613fef575b8115613fc0575b50613edd565b6002915051613fce81612365565b613fd781612365565b1480613fe4575b5f613fba565b508151831015613fde565b83518511159150613fb3565b50604085016001815161400d81612365565b61401681612365565b14908161405a575b811561402b575b50613a76565b600291505161403981612365565b61404281612365565b148061404f575b5f614025565b508151831115614049565b8351851015915061401e565b50509050612a109291506003606082015261014081015191614296565b5060608301600181516140958161236f565b61409e8161236f565b141590816140ad575b50613a64565b60029150516140bb8161236f565b6140c48161236f565b14155f6140a7565b5060a082015115613a5d565b50600260808301516140e981612365565b6140f281612365565b14612eba565b9091503d805f833e61410a8183612094565b8101906020818303126100155780519067ffffffffffffffff821161001557019060e082820312610015576040519160e0830183811067ffffffffffffffff82111761206457604052805167ffffffffffffffff81116100155760c0926141729183016123a1565b83526020810151602084015260408101516040840152606081015160608401526080810151608084015260a081015160a0840152015160c0820152905f612ea9565b5f9192506141cb903d8084833e6109768183612094565b9190612e66565b6001600160a01b036003541691823b156100155760645f92836001600160a01b039560405196879586947fc2b3356400000000000000000000000000000000000000000000000000000000865260048601521660248401528160448401525af18015611f1f57612a065750565b60ff7ff0c57e16840df040f15088dc2f81fe391c3923bec73e23a9662efc9c229c6a005460401c161561426e57565b7fd7e6bcf8000000000000000000000000000000000000000000000000000000005f5260045ffd5b9060606001600160a01b0360025416910151906142b28261236f565b803b15610015575f928360649260405196879586947fac89c79800000000000000000000000000000000000000000000000000000000865260048601526142f88161236f565b602485015260448401525af18015611f1f57612a06575056fea2646970667358221220afc1c9e46bb2c66c6d688e44414a5bee21a74157fb5dff781f2b9b976c46fe0864736f6c634300081c0033",
  "linkReferences": {},
  "deployedLinkReferences": {}
}