{
  "_format": "hh-sol-artifact-1",
  "contractName": "MarketAgent",
  "sourceName": "contracts/MarketAgent.sol",
  "abi": [
    {
      "inputs": [],
      "name": "InvalidInitialization",
      "type": "error"
    },
    {
      "inputs": [],
      "name": "NotInitializing",
      "type": "error"
    },
    {
      "inputs": [
        {
          "internalType": "address",
          "name": "owner",
          "type": "address"
        }
      ],
      "name": "OwnableInvalidOwner",
      "type": "error"
    },
    {
      "inputs": [
        {
          "internalType": "address",
          "name": "account",
          "type": "address"
        }
      ],
      "name": "OwnableUnauthorizedAccount",
      "type": "error"
    },
    {
      "anonymous": false,
      "inputs": [
        {
          "indexed": false,
          "internalType": "uint64",
          "name": "version",
          "type": "uint64"
        }
      ],
      "name": "Initialized",
      "type": "event"
    },
    {
      "anonymous": false,
      "inputs": [
        {
          "indexed": true,
          "internalType": "address",
          "name": "previousOwner",
          "type": "address"
        },
        {
          "indexed": true,
          "internalType": "address",
          "name": "newOwner",
          "type": "address"
        }
      ],
      "name": "OwnershipTransferred",
      "type": "event"
    },
    {
      "anonymous": false,
      "inputs": [
        {
          "indexed": false,
          "internalType": "address",
          "name": "token",
          "type": "address"
        },
        {
          "indexed": false,
          "internalType": "address",
          "name": "inviter",
          "type": "address"
        },
        {
          "indexed": false,
          "internalType": "address",
          "name": "invitee",
          "type": "address"
        }
      ],
      "name": "addInviterRelation",
      "type": "event"
    },
    {
      "anonymous": false,
      "inputs": [
        {
          "indexed": false,
          "internalType": "address",
          "name": "token",
          "type": "address"
        },
        {
          "indexed": false,
          "internalType": "address",
          "name": "agent",
          "type": "address"
        },
        {
          "indexed": false,
          "internalType": "bool",
          "name": "approval",
          "type": "bool"
        }
      ],
      "name": "setTokenTopAgent",
      "type": "event"
    },
    {
      "stateMutability": "nonpayable",
      "type": "fallback"
    },
    {
      "inputs": [
        {
          "internalType": "address",
          "name": "_token",
          "type": "address"
        },
        {
          "internalType": "address",
          "name": "_inviter",
          "type": "address"
        },
        {
          "internalType": "address",
          "name": "_invitee",
          "type": "address"
        },
        {
          "internalType": "uint256",
          "name": "_tradeFee",
          "type": "uint256"
        }
      ],
      "name": "addInviteRelationAndCalc",
      "outputs": [
        {
          "internalType": "address",
          "name": "",
          "type": "address"
        },
        {
          "internalType": "uint256",
          "name": "",
          "type": "uint256"
        },
        {
          "internalType": "address",
          "name": "",
          "type": "address"
        },
        {
          "internalType": "uint256",
          "name": "",
          "type": "uint256"
        }
      ],
      "stateMutability": "nonpayable",
      "type": "function"
    },
    {
      "inputs": [],
      "name": "commonCommissionRate",
      "outputs": [
        {
          "internalType": "uint256",
          "name": "",
          "type": "uint256"
        }
      ],
      "stateMutability": "view",
      "type": "function"
    },
    {
      "inputs": [],
      "name": "getAgents",
      "outputs": [
        {
          "internalType": "address[]",
          "name": "",
          "type": "address[]"
        }
      ],
      "stateMutability": "view",
      "type": "function"
    },
    {
      "inputs": [
        {
          "internalType": "address",
          "name": "_inviter",
          "type": "address"
        },
        {
          "internalType": "address",
          "name": "_token",
          "type": "address"
        }
      ],
      "name": "getCommissionByInviter",
      "outputs": [
        {
          "internalType": "uint256",
          "name": "",
          "type": "uint256"
        }
      ],
      "stateMutability": "view",
      "type": "function"
    },
    {
      "inputs": [
        {
          "internalType": "address",
          "name": "_inviter",
          "type": "address"
        },
        {
          "internalType": "address",
          "name": "_invitee",
          "type": "address"
        },
        {
          "internalType": "address",
          "name": "_token",
          "type": "address"
        }
      ],
      "name": "getCommissionByInviterAndInvitee",
      "outputs": [
        {
          "internalType": "uint256",
          "name": "",
          "type": "uint256"
        }
      ],
      "stateMutability": "view",
      "type": "function"
    },
    {
      "inputs": [
        {
          "internalType": "address",
          "name": "_inviter",
          "type": "address"
        }
      ],
      "name": "getInviter",
      "outputs": [
        {
          "internalType": "address",
          "name": "",
          "type": "address"
        },
        {
          "internalType": "address[]",
          "name": "",
          "type": "address[]"
        }
      ],
      "stateMutability": "view",
      "type": "function"
    },
    {
      "inputs": [
        {
          "internalType": "address",
          "name": "initialOwner",
          "type": "address"
        }
      ],
      "name": "initialize",
      "outputs": [],
      "stateMutability": "nonpayable",
      "type": "function"
    },
    {
      "inputs": [],
      "name": "owner",
      "outputs": [
        {
          "internalType": "address",
          "name": "",
          "type": "address"
        }
      ],
      "stateMutability": "view",
      "type": "function"
    },
    {
      "inputs": [
        {
          "internalType": "address",
          "name": "_inviter",
          "type": "address"
        },
        {
          "internalType": "address",
          "name": "_invitee",
          "type": "address"
        }
      ],
      "name": "relateInviteeToInviter",
      "outputs": [],
      "stateMutability": "nonpayable",
      "type": "function"
    },
    {
      "inputs": [
        {
          "internalType": "address",
          "name": "",
          "type": "address"
        }
      ],
      "name": "relationShip",
      "outputs": [
        {
          "internalType": "address",
          "name": "",
          "type": "address"
        }
      ],
      "stateMutability": "view",
      "type": "function"
    },
    {
      "inputs": [],
      "name": "renounceOwnership",
      "outputs": [],
      "stateMutability": "nonpayable",
      "type": "function"
    },
    {
      "inputs": [
        {
          "internalType": "address",
          "name": "_addr",
          "type": "address"
        },
        {
          "internalType": "bool",
          "name": "_status",
          "type": "bool"
        }
      ],
      "name": "setAddressParam",
      "outputs": [],
      "stateMutability": "nonpayable",
      "type": "function"
    },
    {
      "inputs": [
        {
          "internalType": "uint256",
          "name": "commonRate",
          "type": "uint256"
        },
        {
          "internalType": "uint256",
          "name": "topRate",
          "type": "uint256"
        }
      ],
      "name": "setCommissionRate",
      "outputs": [],
      "stateMutability": "nonpayable",
      "type": "function"
    },
    {
      "inputs": [
        {
          "internalType": "address[]",
          "name": "_token",
          "type": "address[]"
        },
        {
          "internalType": "address[]",
          "name": "_topAgent",
          "type": "address[]"
        },
        {
          "internalType": "bool[]",
          "name": "_approval",
          "type": "bool[]"
        }
      ],
      "name": "setTokenTopAgentCommission",
      "outputs": [],
      "stateMutability": "nonpayable",
      "type": "function"
    },
    {
      "inputs": [
        {
          "internalType": "address",
          "name": "",
          "type": "address"
        },
        {
          "internalType": "address",
          "name": "",
          "type": "address"
        }
      ],
      "name": "topAgentTokens",
      "outputs": [
        {
          "internalType": "bool",
          "name": "",
          "type": "bool"
        }
      ],
      "stateMutability": "view",
      "type": "function"
    },
    {
      "inputs": [],
      "name": "topCommissionRate",
      "outputs": [
        {
          "internalType": "uint256",
          "name": "",
          "type": "uint256"
        }
      ],
      "stateMutability": "view",
      "type": "function"
    },
    {
      "inputs": [
        {
          "internalType": "address",
          "name": "newOwner",
          "type": "address"
        }
      ],
      "name": "transferOwnership",
      "outputs": [],
      "stateMutability": "nonpayable",
      "type": "function"
    }
  ],
  "bytecode": "0x60808060405234601557611530908161001b8239f35b600080fdfe608080604052600436101561001c575b503461001757005b600080fd5b600090813560e01c908163147df88714610b21575080632a46570d14610b03578063345d547514610aae5780633f80ac0b14610a5757806351aeb08c14610a2c57806358c7eaa71461099d57806360653c8e1461092e578063715018a61461088857806389b7265c146107d35780638da5cb5b1461078d578063b5f101de1461076f578063c4d66de8146104f2578063d216ce6f14610441578063eac3fda4146103c6578063eb410b0014610186578063f1a78eff1461010f5763f2fde38b0361000f573461010c57602060031936011261010c576101096100fc610b58565b610104611440565b611374565b80f35b80fd5b503461010c57608060031936011261010c576001600160a01b03610169608092610137610b58565b90610140610b6e565b61016060ff604061014f610b84565b943381526002602052205416610efb565b60643592610fd6565b929391826040519516855260208501521660408301526060820152f35b503461010c57606060031936011261010c5760043567ffffffffffffffff81116103c2576101b8903690600401610c46565b60243567ffffffffffffffff81116103be576101d8903690600401610c46565b60443567ffffffffffffffff81116103ba57366023820112156103ba57806004013561020381610c2e565b916102116040519384610bd7565b8183526024602084019260051b820101903682116103b657602401915b81831061039d57505050338452600260205261025060ff604086205416610efb565b8251825181149081610392575b501561034e57835b835181101561034a57806102da61027e60019385610fc2565b5115156001600160a01b036102938489610fc2565b51168852600460205260408089206001600160a01b036102b3868a610fc2565b5116906001600160a01b03600092168252602052209060ff60ff1983541691151516179055565b7f58daedee5dc215cca98174bbd6b4c560b6e4bc10ae4c8bd0c9c56e507350da9460606001600160a01b0361030f8489610fc2565b51166001600160a01b036103238589610fc2565b511661032f8588610fc2565b5115159060405192835260208301526040820152a101610265565b8480f35b606460405162461bcd60e51b815260206004820152601960248201527f6172726179206c656e67746820697320696e636f7272656374000000000000006044820152fd5b90508151143861025d565b823580151581036100175781526020928301920161022e565b8680fd5b8380fd5b8280fd5b5080fd5b503461010c578060031936011261010c576040516001548082526020820190600160005260206000209060005b8181106104225761041e8561040a81870382610bd7565b604051918291602083526020830190610b9a565b0390f35b82546001600160a01b03168452602090930192600192830192016103f3565b503461010c57602060031936011261010c5760016001600160a01b03604081610468610b58565b1693848152600360205281812094815260056020522054169101906040519182815491828252602082019060005260206000209260005b8181106104d05750506104b492500383610bd7565b61041e6040519283928352604060208401526040830190610b9a565b84546001600160a01b031683526001948501948794506020909301920161049f565b503461010c57602060031936011261010c5761050c610b58565b907ff0c57e16840df040f15088dc2f81fe391c3923bec73e23a9662efc9c229c6a00549160ff8360401c16159267ffffffffffffffff811680159081610767575b600114908161075d575b159081610754575b5061072c5790818460017fffffffffffffffffffffffffffffffffffffffffffffffff00000000000000006001600160a01b039516177ff0c57e16840df040f15088dc2f81fe391c3923bec73e23a9662efc9c229c6a00556106d7575b506105c56114a1565b6105cd6114a1565b6105d633611374565b6105de611440565b6105e781611374565b338352600260205260408320600160ff19825416179055168152600260205260408120600160ff19825416179055670de0b6b3a764000081555067016345785d8a00006006556000906706f05b59d3b200006007556106435780f35b7fffffffffffffffffffffffffffffffffffffffffffffff00ffffffffffffffff7ff0c57e16840df040f15088dc2f81fe391c3923bec73e23a9662efc9c229c6a0054167ff0c57e16840df040f15088dc2f81fe391c3923bec73e23a9662efc9c229c6a00557fc7f505b2f371ae2175ee4913f4499e1f2633a7b5936321eed1cdaeb6115181d2602060405160018152a180f35b7fffffffffffffffffffffffffffffffffffffffffffffff0000000000000000001668010000000000000001177ff0c57e16840df040f15088dc2f81fe391c3923bec73e23a9662efc9c229c6a0055386105bc565b6004837ff92ee8a9000000000000000000000000000000000000000000000000000000008152fd5b9050153861055f565b303b159150610557565b85915061054d565b503461010c578060031936011261010c576020600754604051908152f35b503461010c578060031936011261010c5760206001600160a01b037f9016d09d72d40fdae2fd8ceac6b6234c7706214fd39c1cd1e609a0528c1993005416604051908152f35b503461010c57604060031936011261010c576107ed610b58565b6024359081151582036103be576001600160a01b0390338452600260205261081b60ff604086205416610efb565b16908115610844576101099183526002602052604083209060ff60ff1983541691151516179055565b606460405162461bcd60e51b815260206004820152600460248201527f7a65726f000000000000000000000000000000000000000000000000000000006044820152fd5b503461010c578060031936011261010c576108a1611440565b806001600160a01b037f9016d09d72d40fdae2fd8ceac6b6234c7706214fd39c1cd1e609a0528c1993005473ffffffffffffffffffffffffffffffffffffffff1981167f9016d09d72d40fdae2fd8ceac6b6234c7706214fd39c1cd1e609a0528c19930055167f8be0079c531659141344cd1fd0a4f28419497f9722a3daafe3b4186f6b6457e08280a380f35b503461010c57606060031936011261010c57604060209161094d610b58565b610955610b6e565b906001600160a01b03610966610b84565b91168352600385526001600160a01b036003858520019116835284526001600160a01b038383209116825283522054604051908152f35b503461010c57604060031936011261010c576004356024359033835260026020526109ce60ff604085205416610efb565b6109d88282610f6c565b8354106109e85760065560075580f35b606460405162461bcd60e51b815260206004820152600d60248201527f72617465206973206c61726765000000000000000000000000000000000000006044820152fd5b503461010c57604060031936011261010c57610109610a49610b58565b610a51610b6e565b90610d74565b503461010c57604060031936011261010c5760ff6040602092610a78610b58565b6001600160a01b03610a88610b6e565b91168252600485526001600160a01b038383209116825284522054166040519015158152f35b503461010c57604060031936011261010c576040602091610acd610b58565b6001600160a01b03610add610b6e565b91168252600384526001600160a01b036004848420019116825283522054604051908152f35b503461010c578060031936011261010c576020600654604051908152f35b9050346103c25760206003193601126103c2576001600160a01b03604060209382610b4a610b58565b168152600585522054168152f35b600435906001600160a01b038216820361001757565b602435906001600160a01b038216820361001757565b604435906001600160a01b038216820361001757565b906020808351928381520192019060005b818110610bb85750505090565b82516001600160a01b0316845260209384019390920191600101610bab565b90601f7fffffffffffffffffffffffffffffffffffffffffffffffffffffffffffffffe0910116810190811067ffffffffffffffff821117610c1857604052565b634e487b7160e01b600052604160045260246000fd5b67ffffffffffffffff8111610c185760051b60200190565b9080601f8301121561001757813590610c5e82610c2e565b92610c6c6040519485610bd7565b82845260208085019360051b82010191821161001757602001915b818310610c945750505090565b82356001600160a01b038116810361001757815260209283019201610c87565b60015468010000000000000000811015610c18576001810180600155811015610d0b576001600160a01b03906001600052602060002001911673ffffffffffffffffffffffffffffffffffffffff19825416179055565b634e487b7160e01b600052603260045260246000fd5b805468010000000000000000811015610c185760018101808355811015610d0b576001600160a01b0391600052602060002001911673ffffffffffffffffffffffffffffffffffffffff19825416179055565b6001600160a01b03811680151580610ee9575b15610ea5576001600160a01b038316808214610e9f578060005260056020526001600160a01b0360406000205416610e9f577fe66486be5ed1d152eae7e1b2956d4b81071d0b994ee0037c801facba641126bc9360609383600052600360205260406000209081549060ff821615610e86575b50506002810191836000528260205260ff6040600020541615610e30575b505050604051916000835260208301526040820152a1565b6001610e3c9201610d21565b816000526020526040600020600160ff1982541617905580600052600560205260406000208273ffffffffffffffffffffffffffffffffffffffff19825416179055388080610e18565b600160ff19610e989316178355610cb4565b3880610dfa565b50505050565b606460405162461bcd60e51b815260206004820152601760248201527f696e76616c696420696e766974656520616464726573730000000000000000006044820152fd5b506001600160a01b0383161515610d87565b15610f0257565b608460405162461bcd60e51b815260206004820152602160248201527f63616c6c6572206973206e6f74206d61726b6574206167656e74206b6565706560448201527f72000000000000000000000000000000000000000000000000000000000000006064820152fd5b91908201809211610f7957565b634e487b7160e01b600052601160045260246000fd5b81810292918115918404141715610f7957565b8115610fac570490565b634e487b7160e01b600052601260045260246000fd5b8051821015610d0b5760209160051b010190565b919293906001600160a01b0384169485151580611362575b1561131e576001600160a01b03821690868214611309578660005260056020526001600160a01b036040600020541692600084156000146112f6575082156112cd57826000526003602052611058604060002097885460ff8116156112de575b5060018901610d21565b87600052600287016020526040600020600160ff1982541617905587600052600560205260406000208373ffffffffffffffffffffffffffffffffffffffff198254161790557fe66486be5ed1d152eae7e1b2956d4b81071d0b994ee0037c801facba641126bc60606040516001600160a01b03891681528560208201528a6040820152a15b81156112cd57506004600654966111046110fb6007549985610f8f565b60005490610fa2565b9860038201906001600160a01b038916600052816020526040600020816000526020526111368b604060002054610f6c565b916001600160a01b038a16600052602052604060002090600052602052604060002055016001600160a01b0386166000528060205261117a88604060002054610f6c565b906001600160a01b0387166000526020526040600020556001600160a01b0360009516908186526004602052604086206001600160a01b038516875260205260ff6040872054166000146112b15783965b6001600160a01b0388168752600360205260408720918388526004602052604088206001600160a01b038a16895260205260ff604089205416806112a6575b61121a575b505050505093929190565b9661122c611234926004959699610f8f565b905490610fa2565b956003820190846000528160205260406000208160005260205261125d88604060002054610f6c565b918560005260205260406000209060005260205260406000205501816000528060205261128f85604060002054610f6c565b91600052602052604060002055388080808061120f565b5060ff83541661120a565b83865260056020526001600160a01b03604087205416966111cb565b965060009550859450849392505050565b60ff191660011789556112f083610cb4565b3861104e565b84815260036020526040902096506110de565b50505092505050600090600090600090600090565b606460405162461bcd60e51b815260206004820152600f60248201527f61646472657373206973207a65726f00000000000000000000000000000000006044820152fd5b506001600160a01b0384161515610fee565b6001600160a01b03168015611411576001600160a01b037f9016d09d72d40fdae2fd8ceac6b6234c7706214fd39c1cd1e609a0528c199300548273ffffffffffffffffffffffffffffffffffffffff198216177f9016d09d72d40fdae2fd8ceac6b6234c7706214fd39c1cd1e609a0528c19930055167f8be0079c531659141344cd1fd0a4f28419497f9722a3daafe3b4186f6b6457e0600080a3565b7f1e4fbdf700000000000000000000000000000000000000000000000000000000600052600060045260246000fd5b6001600160a01b037f9016d09d72d40fdae2fd8ceac6b6234c7706214fd39c1cd1e609a0528c1993005416330361147357565b7f118cdaa7000000000000000000000000000000000000000000000000000000006000523360045260246000fd5b60ff7ff0c57e16840df040f15088dc2f81fe391c3923bec73e23a9662efc9c229c6a005460401c16156114d057565b7fd7e6bcf80000000000000000000000000000000000000000000000000000000060005260046000fdfea26469706673582212206b9428abe2502a2b8a32365a30e86940fcc5c3a09b7a8713ffe809d4c5d05c0264736f6c634300081c0033",
  "linkReferences": {},
  "deployedLinkReferences": {}
}