{
  "_format": "hh-sol-artifact-1",
  "contractName": "PrivatePool",
  "sourceName": "contracts/PrivatePool.sol",
  "abi": [
    {
      "inputs": [],
      "name": "InvalidInitialization",
      "type": "error"
    },
    {
      "inputs": [],
      "name": "NotInitializing",
      "type": "error"
    },
    {
      "inputs": [
        {
          "internalType": "address",
          "name": "owner",
          "type": "address"
        }
      ],
      "name": "OwnableInvalidOwner",
      "type": "error"
    },
    {
      "inputs": [
        {
          "internalType": "address",
          "name": "account",
          "type": "address"
        }
      ],
      "name": "OwnableUnauthorizedAccount",
      "type": "error"
    },
    {
      "anonymous": false,
      "inputs": [
        {
          "indexed": false,
          "internalType": "address",
          "name": "token",
          "type": "address"
        },
        {
          "indexed": false,
          "internalType": "address",
          "name": "holder",
          "type": "address"
        },
        {
          "indexed": false,
          "internalType": "string",
          "name": "name",
          "type": "string"
        },
        {
          "indexed": false,
          "internalType": "enum ICommon.Direct",
          "name": "direct",
          "type": "uint8"
        },
        {
          "indexed": false,
          "internalType": "uint256",
          "name": "value",
          "type": "uint256"
        },
        {
          "indexed": false,
          "internalType": "uint256",
          "name": "size",
          "type": "uint256"
        },
        {
          "indexed": false,
          "internalType": "uint256",
          "name": "margin",
          "type": "uint256"
        },
        {
          "indexed": false,
          "internalType": "uint256",
          "name": "freeze",
          "type": "uint256"
        }
      ],
      "name": "AccountPosition",
      "type": "event"
    },
    {
      "anonymous": false,
      "inputs": [
        {
          "indexed": true,
          "internalType": "address",
          "name": "account",
          "type": "address"
        },
        {
          "indexed": true,
          "internalType": "address",
          "name": "token",
          "type": "address"
        },
        {
          "indexed": false,
          "internalType": "uint256",
          "name": "orderID",
          "type": "uint256"
        },
        {
          "indexed": false,
          "internalType": "uint256",
          "name": "amount",
          "type": "uint256"
        },
        {
          "indexed": false,
          "internalType": "uint256",
          "name": "margin",
          "type": "uint256"
        }
      ],
      "name": "AddMargin",
      "type": "event"
    },
    {
      "anonymous": false,
      "inputs": [
        {
          "indexed": false,
          "internalType": "address",
          "name": "maker",
          "type": "address"
        },
        {
          "indexed": false,
          "internalType": "uint256",
          "name": "amount",
          "type": "uint256"
        },
        {
          "indexed": false,
          "internalType": "uint256",
          "name": "availableAmount",
          "type": "uint256"
        },
        {
          "indexed": false,
          "internalType": "uint256",
          "name": "lockedAmount",
          "type": "uint256"
        },
        {
          "indexed": false,
          "internalType": "uint256",
          "name": "maintenanceMargin",
          "type": "uint256"
        },
        {
          "indexed": false,
          "internalType": "uint256",
          "name": "share",
          "type": "uint256"
        },
        {
          "indexed": false,
          "internalType": "uint256",
          "name": "flag",
          "type": "uint256"
        }
      ],
      "name": "BalanceOfMaker",
      "type": "event"
    },
    {
      "anonymous": false,
      "inputs": [
        {
          "indexed": false,
          "internalType": "uint256",
          "name": "dealID",
          "type": "uint256"
        },
        {
          "indexed": false,
          "internalType": "address",
          "name": "maker",
          "type": "address"
        },
        {
          "indexed": false,
          "internalType": "uint256",
          "name": "size",
          "type": "uint256"
        },
        {
          "indexed": false,
          "internalType": "uint256",
          "name": "price",
          "type": "uint256"
        },
        {
          "indexed": false,
          "internalType": "uint256",
          "name": "makerID",
          "type": "uint256"
        },
        {
          "indexed": false,
          "internalType": "uint256",
          "name": "makerGain",
          "type": "uint256"
        },
        {
          "indexed": false,
          "internalType": "uint256",
          "name": "makerLoss",
          "type": "uint256"
        },
        {
          "indexed": false,
          "internalType": "uint256",
          "name": "closeFlag",
          "type": "uint256"
        },
        {
          "indexed": false,
          "internalType": "uint256",
          "name": "closeType",
          "type": "uint256"
        }
      ],
      "name": "CloseMakerDealInPool",
      "type": "event"
    },
    {
      "anonymous": false,
      "inputs": [
        {
          "indexed": false,
          "internalType": "uint64",
          "name": "version",
          "type": "uint64"
        }
      ],
      "name": "Initialized",
      "type": "event"
    },
    {
      "anonymous": false,
      "inputs": [
        {
          "indexed": false,
          "internalType": "uint256",
          "name": "dealID",
          "type": "uint256"
        },
        {
          "indexed": false,
          "internalType": "address",
          "name": "maker",
          "type": "address"
        },
        {
          "indexed": false,
          "internalType": "uint256",
          "name": "value",
          "type": "uint256"
        },
        {
          "indexed": false,
          "internalType": "uint256",
          "name": "price",
          "type": "uint256"
        },
        {
          "indexed": false,
          "internalType": "uint256",
          "name": "makerID",
          "type": "uint256"
        },
        {
          "indexed": false,
          "internalType": "uint256",
          "name": "marginAmount",
          "type": "uint256"
        },
        {
          "indexed": false,
          "internalType": "uint256",
          "name": "maintenanceMargin",
          "type": "uint256"
        }
      ],
      "name": "LockInPrivatePool",
      "type": "event"
    },
    {
      "anonymous": false,
      "inputs": [
        {
          "indexed": false,
          "internalType": "uint256",
          "name": "dealID",
          "type": "uint256"
        },
        {
          "indexed": false,
          "internalType": "address",
          "name": "maker",
          "type": "address"
        },
        {
          "indexed": false,
          "internalType": "uint256",
          "name": "size",
          "type": "uint256"
        },
        {
          "indexed": false,
          "internalType": "uint256",
          "name": "price",
          "type": "uint256"
        },
        {
          "indexed": false,
          "internalType": "uint256",
          "name": "makerID",
          "type": "uint256"
        },
        {
          "indexed": false,
          "internalType": "uint256",
          "name": "marginAmount",
          "type": "uint256"
        },
        {
          "indexed": false,
          "internalType": "uint256",
          "name": "maintenanceMargin",
          "type": "uint256"
        },
        {
          "indexed": false,
          "internalType": "uint256",
          "name": "flag",
          "type": "uint256"
        }
      ],
      "name": "LockPoolMargin",
      "type": "event"
    },
    {
      "anonymous": false,
      "inputs": [
        {
          "indexed": true,
          "internalType": "address",
          "name": "previousOwner",
          "type": "address"
        },
        {
          "indexed": true,
          "internalType": "address",
          "name": "newOwner",
          "type": "address"
        }
      ],
      "name": "OwnershipTransferred",
      "type": "event"
    },
    {
      "anonymous": false,
      "inputs": [
        {
          "indexed": true,
          "internalType": "address",
          "name": "account",
          "type": "address"
        },
        {
          "indexed": true,
          "internalType": "address",
          "name": "token",
          "type": "address"
        },
        {
          "indexed": false,
          "internalType": "uint256",
          "name": "amount",
          "type": "uint256"
        },
        {
          "indexed": false,
          "internalType": "uint256",
          "name": "poolType",
          "type": "uint256"
        }
      ],
      "name": "Provide",
      "type": "event"
    },
    {
      "anonymous": false,
      "inputs": [
        {
          "indexed": true,
          "internalType": "address",
          "name": "token",
          "type": "address"
        },
        {
          "indexed": true,
          "internalType": "address",
          "name": "sender",
          "type": "address"
        },
        {
          "indexed": true,
          "internalType": "address",
          "name": "received",
          "type": "address"
        },
        {
          "indexed": false,
          "internalType": "enum ICommon.TransactionType",
          "name": "transactionType",
          "type": "uint8"
        },
        {
          "indexed": false,
          "internalType": "uint256",
          "name": "amount",
          "type": "uint256"
        },
        {
          "indexed": false,
          "internalType": "uint256",
          "name": "timestamp",
          "type": "uint256"
        }
      ],
      "name": "TransactionHistory",
      "type": "event"
    },
    {
      "anonymous": false,
      "inputs": [
        {
          "indexed": true,
          "internalType": "address",
          "name": "account",
          "type": "address"
        },
        {
          "indexed": true,
          "internalType": "address",
          "name": "token",
          "type": "address"
        },
        {
          "indexed": false,
          "internalType": "uint256",
          "name": "amount",
          "type": "uint256"
        },
        {
          "indexed": false,
          "internalType": "uint256",
          "name": "poolType",
          "type": "uint256"
        }
      ],
      "name": "Withdraw",
      "type": "event"
    },
    {
      "anonymous": false,
      "inputs": [
        {
          "indexed": false,
          "internalType": "address",
          "name": "sender",
          "type": "address"
        },
        {
          "indexed": false,
          "internalType": "string",
          "name": "name",
          "type": "string"
        },
        {
          "indexed": false,
          "internalType": "uint256",
          "name": "beforeLeverage",
          "type": "uint256"
        },
        {
          "indexed": false,
          "internalType": "uint256",
          "name": "afterLeverage",
          "type": "uint256"
        }
      ],
      "name": "setLeverage",
      "type": "event"
    },
    {
      "stateMutability": "nonpayable",
      "type": "fallback"
    },
    {
      "inputs": [
        {
          "internalType": "uint256",
          "name": "_dealID",
          "type": "uint256"
        },
        {
          "internalType": "uint256",
          "name": "_amount",
          "type": "uint256"
        }
      ],
      "name": "addMarginAmount",
      "outputs": [],
      "stateMutability": "nonpayable",
      "type": "function"
    },
    {
      "inputs": [
        {
          "internalType": "uint256",
          "name": "_dealID",
          "type": "uint256"
        },
        {
          "internalType": "uint256",
          "name": "_profit",
          "type": "uint256"
        }
      ],
      "name": "checkMarginRisk",
      "outputs": [
        {
          "internalType": "bool",
          "name": "isRisk",
          "type": "bool"
        }
      ],
      "stateMutability": "view",
      "type": "function"
    },
    {
      "inputs": [
        {
          "internalType": "uint256",
          "name": "_id",
          "type": "uint256"
        },
        {
          "internalType": "uint8",
          "name": "_type",
          "type": "uint8"
        },
        {
          "internalType": "uint256",
          "name": "_profit",
          "type": "uint256"
        },
        {
          "internalType": "uint256",
          "name": "_loss",
          "type": "uint256"
        },
        {
          "internalType": "uint256",
          "name": "_amount",
          "type": "uint256"
        },
        {
          "internalType": "uint256",
          "name": "_price",
          "type": "uint256"
        },
        {
          "internalType": "bool",
          "name": "_transform",
          "type": "bool"
        }
      ],
      "name": "close",
      "outputs": [
        {
          "internalType": "uint256",
          "name": "makerProfit",
          "type": "uint256"
        },
        {
          "internalType": "uint256",
          "name": "makerLoss",
          "type": "uint256"
        },
        {
          "internalType": "bool",
          "name": "isLiquidated",
          "type": "bool"
        },
        {
          "internalType": "bool",
          "name": "isAgreement",
          "type": "bool"
        }
      ],
      "stateMutability": "nonpayable",
      "type": "function"
    },
    {
      "inputs": [],
      "name": "escrowAccount",
      "outputs": [
        {
          "internalType": "address",
          "name": "",
          "type": "address"
        }
      ],
      "stateMutability": "view",
      "type": "function"
    },
    {
      "inputs": [
        {
          "internalType": "uint256",
          "name": "_start",
          "type": "uint256"
        },
        {
          "internalType": "uint256",
          "name": "_end",
          "type": "uint256"
        },
        {
          "internalType": "uint256",
          "name": "_count",
          "type": "uint256"
        }
      ],
      "name": "getActiveDeals",
      "outputs": [
        {
          "components": [
            {
              "internalType": "address",
              "name": "makerAddr",
              "type": "address"
            },
            {
              "internalType": "bool",
              "name": "locked",
              "type": "bool"
            },
            {
              "internalType": "uint256",
              "name": "takerId",
              "type": "uint256"
            },
            {
              "internalType": "uint256",
              "name": "size",
              "type": "uint256"
            },
            {
              "internalType": "uint256",
              "name": "marginAmount",
              "type": "uint256"
            },
            {
              "internalType": "uint256",
              "name": "maintenanceMargin",
              "type": "uint256"
            },
            {
              "internalType": "uint256",
              "name": "pubPriFlag",
              "type": "uint256"
            },
            {
              "internalType": "uint256",
              "name": "movePrice",
              "type": "uint256"
            },
            {
              "internalType": "uint256",
              "name": "time",
              "type": "uint256"
            }
          ],
          "internalType": "struct IPool.MakerDeal[]",
          "name": "info",
          "type": "tuple[]"
        },
        {
          "internalType": "uint256[]",
          "name": "ids",
          "type": "uint256[]"
        },
        {
          "internalType": "uint256",
          "name": "end",
          "type": "uint256"
        }
      ],
      "stateMutability": "view",
      "type": "function"
    },
    {
      "inputs": [
        {
          "internalType": "address",
          "name": "maker",
          "type": "address"
        }
      ],
      "name": "getLP2Account",
      "outputs": [
        {
          "components": [
            {
              "internalType": "address payable",
              "name": "holder",
              "type": "address"
            },
            {
              "internalType": "uint256",
              "name": "amount",
              "type": "uint256"
            },
            {
              "internalType": "uint256",
              "name": "availableAmount",
              "type": "uint256"
            },
            {
              "internalType": "uint256",
              "name": "lockedAmount",
              "type": "uint256"
            },
            {
              "internalType": "uint256",
              "name": "maintenanceMargin",
              "type": "uint256"
            },
            {
              "internalType": "uint256",
              "name": "leverage",
              "type": "uint256"
            },
            {
              "internalType": "uint256",
              "name": "maintenanceMarginRate",
              "type": "uint256"
            },
            {
              "internalType": "uint256",
              "name": "addMarginRate",
              "type": "uint256"
            },
            {
              "internalType": "bool",
              "name": "autoAddMargin",
              "type": "bool"
            },
            {
              "internalType": "bool",
              "name": "isRejectOrder",
              "type": "bool"
            }
          ],
          "internalType": "struct IPool.LP2Account",
          "name": "",
          "type": "tuple"
        }
      ],
      "stateMutability": "view",
      "type": "function"
    },
    {
      "inputs": [],
      "name": "getMakerAddresses",
      "outputs": [
        {
          "internalType": "address[]",
          "name": "",
          "type": "address[]"
        }
      ],
      "stateMutability": "view",
      "type": "function"
    },
    {
      "inputs": [
        {
          "internalType": "uint256",
          "name": "makerDealID",
          "type": "uint256"
        }
      ],
      "name": "getMakerDeal",
      "outputs": [
        {
          "components": [
            {
              "internalType": "address",
              "name": "makerAddr",
              "type": "address"
            },
            {
              "internalType": "bool",
              "name": "locked",
              "type": "bool"
            },
            {
              "internalType": "uint256",
              "name": "takerId",
              "type": "uint256"
            },
            {
              "internalType": "uint256",
              "name": "size",
              "type": "uint256"
            },
            {
              "internalType": "uint256",
              "name": "marginAmount",
              "type": "uint256"
            },
            {
              "internalType": "uint256",
              "name": "maintenanceMargin",
              "type": "uint256"
            },
            {
              "internalType": "uint256",
              "name": "pubPriFlag",
              "type": "uint256"
            },
            {
              "internalType": "uint256",
              "name": "movePrice",
              "type": "uint256"
            },
            {
              "internalType": "uint256",
              "name": "time",
              "type": "uint256"
            }
          ],
          "internalType": "struct IPool.MakerDeal",
          "name": "",
          "type": "tuple"
        }
      ],
      "stateMutability": "view",
      "type": "function"
    },
    {
      "inputs": [
        {
          "internalType": "uint256[]",
          "name": "_ids",
          "type": "uint256[]"
        }
      ],
      "name": "getMakerDeals",
      "outputs": [
        {
          "components": [
            {
              "internalType": "address",
              "name": "makerAddr",
              "type": "address"
            },
            {
              "internalType": "bool",
              "name": "locked",
              "type": "bool"
            },
            {
              "internalType": "uint256",
              "name": "takerId",
              "type": "uint256"
            },
            {
              "internalType": "uint256",
              "name": "size",
              "type": "uint256"
            },
            {
              "internalType": "uint256",
              "name": "marginAmount",
              "type": "uint256"
            },
            {
              "internalType": "uint256",
              "name": "maintenanceMargin",
              "type": "uint256"
            },
            {
              "internalType": "uint256",
              "name": "pubPriFlag",
              "type": "uint256"
            },
            {
              "internalType": "uint256",
              "name": "movePrice",
              "type": "uint256"
            },
            {
              "internalType": "uint256",
              "name": "time",
              "type": "uint256"
            }
          ],
          "internalType": "struct IPool.MakerDeal[]",
          "name": "deals",
          "type": "tuple[]"
        }
      ],
      "stateMutability": "view",
      "type": "function"
    },
    {
      "inputs": [],
      "name": "getMakerDealsLength",
      "outputs": [
        {
          "internalType": "uint256",
          "name": "lpLen",
          "type": "uint256"
        }
      ],
      "stateMutability": "view",
      "type": "function"
    },
    {
      "inputs": [
        {
          "internalType": "address",
          "name": "maker",
          "type": "address"
        }
      ],
      "name": "getMakerUserDeals",
      "outputs": [
        {
          "internalType": "uint256[]",
          "name": "",
          "type": "uint256[]"
        }
      ],
      "stateMutability": "view",
      "type": "function"
    },
    {
      "inputs": [],
      "name": "getShareAddresses",
      "outputs": [
        {
          "internalType": "address[]",
          "name": "",
          "type": "address[]"
        }
      ],
      "stateMutability": "view",
      "type": "function"
    },
    {
      "inputs": [
        {
          "internalType": "address",
          "name": "initialOwner",
          "type": "address"
        },
        {
          "internalType": "address",
          "name": "_tokenAddress",
          "type": "address"
        },
        {
          "internalType": "address",
          "name": "_riskFundAddr",
          "type": "address"
        }
      ],
      "name": "initialize",
      "outputs": [],
      "stateMutability": "nonpayable",
      "type": "function"
    },
    {
      "inputs": [
        {
          "internalType": "uint256",
          "name": "",
          "type": "uint256"
        }
      ],
      "name": "matchIds",
      "outputs": [
        {
          "internalType": "uint256",
          "name": "",
          "type": "uint256"
        }
      ],
      "stateMutability": "view",
      "type": "function"
    },
    {
      "inputs": [
        {
          "internalType": "string",
          "name": "_name",
          "type": "string"
        },
        {
          "internalType": "uint256",
          "name": "_id",
          "type": "uint256"
        },
        {
          "internalType": "uint256",
          "name": "_amount",
          "type": "uint256"
        },
        {
          "internalType": "uint256",
          "name": "_tradingFee",
          "type": "uint256"
        },
        {
          "internalType": "uint256",
          "name": "_price",
          "type": "uint256"
        },
        {
          "internalType": "enum ICommon.Direct",
          "name": "_direction",
          "type": "uint8"
        }
      ],
      "name": "matchOrder",
      "outputs": [
        {
          "internalType": "bool",
          "name": "success",
          "type": "bool"
        },
        {
          "internalType": "uint256",
          "name": "remaining",
          "type": "uint256"
        }
      ],
      "stateMutability": "nonpayable",
      "type": "function"
    },
    {
      "inputs": [],
      "name": "owner",
      "outputs": [
        {
          "internalType": "address",
          "name": "",
          "type": "address"
        }
      ],
      "stateMutability": "view",
      "type": "function"
    },
    {
      "inputs": [],
      "name": "poolType",
      "outputs": [
        {
          "internalType": "enum ICommon.PoolFlag",
          "name": "",
          "type": "uint8"
        }
      ],
      "stateMutability": "view",
      "type": "function"
    },
    {
      "inputs": [
        {
          "internalType": "address",
          "name": "",
          "type": "address"
        },
        {
          "internalType": "string",
          "name": "",
          "type": "string"
        },
        {
          "internalType": "uint256",
          "name": "",
          "type": "uint256"
        }
      ],
      "name": "positions",
      "outputs": [
        {
          "internalType": "uint256",
          "name": "value",
          "type": "uint256"
        },
        {
          "internalType": "uint256",
          "name": "size",
          "type": "uint256"
        }
      ],
      "stateMutability": "view",
      "type": "function"
    },
    {
      "inputs": [],
      "name": "privateMinMintAmount",
      "outputs": [
        {
          "internalType": "uint256",
          "name": "",
          "type": "uint256"
        }
      ],
      "stateMutability": "view",
      "type": "function"
    },
    {
      "inputs": [
        {
          "internalType": "uint256",
          "name": "_amount",
          "type": "uint256"
        },
        {
          "internalType": "uint256",
          "name": "_priOrPub",
          "type": "uint256"
        }
      ],
      "name": "provide",
      "outputs": [],
      "stateMutability": "nonpayable",
      "type": "function"
    },
    {
      "inputs": [],
      "name": "renounceOwnership",
      "outputs": [],
      "stateMutability": "nonpayable",
      "type": "function"
    },
    {
      "inputs": [
        {
          "internalType": "address",
          "name": "_perpetual",
          "type": "address"
        },
        {
          "internalType": "address",
          "name": "_orderBook",
          "type": "address"
        },
        {
          "internalType": "address",
          "name": "_tradeAgent",
          "type": "address"
        },
        {
          "internalType": "address",
          "name": "_tradeStation",
          "type": "address"
        },
        {
          "internalType": "address",
          "name": "_keeper",
          "type": "address"
        }
      ],
      "name": "setKeepers",
      "outputs": [],
      "stateMutability": "nonpayable",
      "type": "function"
    },
    {
      "inputs": [
        {
          "internalType": "uint256",
          "name": "_value",
          "type": "uint256"
        }
      ],
      "name": "setPrivateMinMintAmount",
      "outputs": [],
      "stateMutability": "nonpayable",
      "type": "function"
    },
    {
      "inputs": [
        {
          "internalType": "uint256",
          "name": "_leverage",
          "type": "uint256"
        },
        {
          "internalType": "bool",
          "name": "_isRejectOrder",
          "type": "bool"
        },
        {
          "internalType": "bool",
          "name": "_autoAddMargin",
          "type": "bool"
        }
      ],
      "name": "setUserParam",
      "outputs": [],
      "stateMutability": "nonpayable",
      "type": "function"
    },
    {
      "inputs": [],
      "name": "totalLockedLiquidity",
      "outputs": [
        {
          "internalType": "uint256",
          "name": "",
          "type": "uint256"
        }
      ],
      "stateMutability": "view",
      "type": "function"
    },
    {
      "inputs": [
        {
          "internalType": "address",
          "name": "newOwner",
          "type": "address"
        }
      ],
      "name": "transferOwnership",
      "outputs": [],
      "stateMutability": "nonpayable",
      "type": "function"
    },
    {
      "inputs": [
        {
          "internalType": "uint256",
          "name": "_amount",
          "type": "uint256"
        },
        {
          "internalType": "uint256",
          "name": "_priOrPub",
          "type": "uint256"
        }
      ],
      "name": "withdraw",
      "outputs": [],
      "stateMutability": "nonpayable",
      "type": "function"
    }
  ],
  "bytecode": "0x60808060405234601557615689908161001b8239f35b600080fdfe6080604052600436101561001a575b3461001557005b600080fd5b60003560e01c80630c8c3516146101ca5780631f92a4da146101c557806325737d40146101c057806336ff6a70146101bb578063441a3e70146101b657806346ceec98146101b15780634e091b22146101ac57806354b3b018146101a757806360d32e8d146101a2578063715018a61461019d578063880a1a77146101985780638da5cb5b146101935780638e3a0e921461018e578063a8ece51a14610189578063b1951cfd14610184578063b1dd61b61461017f578063bc1c1c6c1461017a578063c0c53b8b14610175578063c229894214610170578063c23e629f1461016b578063d3c76d6614610166578063e771ad7214610161578063e8c3c54f1461015c578063f26a3e1d14610157578063f2da708d14610152578063f2fde38b1461014d5763f6ef18390361000e57611ca5565b611c78565b611c5a565b611a47565b611788565b611668565b6115e6565b611416565b61138f565b6110f4565b611074565b61104a565b610f36565b610f0e565b610e90565b610e40565b610db4565b610cd8565b610c3c565b610c12565b610bdf565b610ab8565b61059b565b61056f565b6104d8565b6103f3565b610348565b6001600160a01b0381160361001557565b634e487b7160e01b600052604160045260246000fd5b610140810190811067ffffffffffffffff82111761021357604052565b6101e0565b90601f601f19910116810190811067ffffffffffffffff82111761021357604052565b6040519061024b61014083610218565b565b6040519061024b61012083610218565b6040519061024b61016083610218565b67ffffffffffffffff811161021357601f01601f191660200190565b81601f82011215610015578035906102a08261026d565b926102ae6040519485610218565b8284526020838301011161001557816000926020809301838601378301015290565b60005b8381106102e35750506000910152565b81810151838201526020016102d3565b60209061030d9282604051948386809551938492016102d0565b82019081520301902090565b634e487b7160e01b600052603260045260246000fd5b9060028110156103435760011b0190600090565b610319565b3461001557606060031936011261001557600435610365816101cf565b60243567ffffffffffffffff811161001557602061038a6103b6923690600401610289565b6001600160a01b03604435941660005260168252604060002082604051948386809551938492016102d0565b820190815203019020906002811015610015576103d29161032f565b508054600190910154604080519283526020830191909152819081015b0390f35b34610015576000600319360112610015576020601454604051908152f35b67ffffffffffffffff81116102135760051b60200190565b906020808351928381520192019060005b8181106104475750505090565b9091926020610120826104b9600194885161010080916001600160a01b03815116845260208101511515602085015260408101516040850152606081015160608501526080810151608085015260a081015160a085015260c081015160c085015260e081015160e08501520151910152565b01940192910161043a565b9060206104d5928181520190610429565b90565b346100155760206003193601126100155760043567ffffffffffffffff811161001557366023820112156100155780600401359061051582610411565b916105236040519384610218565b8083526024602084019160051b8301019136831161001557602401905b82821061055f576103ef61055385611f36565b604051918291826104c4565b8135815260209182019101610540565b346100155760206003193601126100155760043560005260176020526020604060002054604051908152f35b34610015576040600319360112610015576024356004358080151580610a09575b6105c590611f87565b6105f16105d460135460ff1690565b6105dd8161103b565b84600382149182156109e3575b5050612016565b600183036107c5575061060381612bbb565b600261063761061e6013546001600160a01b039060081c1690565b6001600160a01b03166000526010602052604060002090565b015482111580610799575b61064b906120b3565b336000908152600f60205260409020610665838254612123565b90556013546106949060081c6001600160a01b03165b6001600160a01b0316600052600f602052604060002090565b61069f838254612123565b905560016106bc61061e6013546001600160a01b039060081c1690565b016106c8828254612123565b90556106f160026106e861061e6013546001600160a01b039060081c1690565b01918254612123565b9055336000908152600f602052604090205415610784575b6107268161071f6005546001600160a01b031690565b3390612c27565b7ff341246adaac6f497bc2a656f546ab9e182111d630394f0c57c710a59a2cb56761077f6001600160a01b036107646005546001600160a01b031690565b60408051958652602086019690965216933393918291820190565b0390a3005b336000908152600f6020526040812055610709565b5061064b6107ba336001600160a01b0316600052600f602052604060002090565b548311159050610642565b600283036109de576107f26107ed336001600160a01b03166000526010602052604060002090565b61201d565b906040820161080481518311156120b3565b6108206020840192610817818551612123565b84528251612123565b9052606082015115806109d4575b806109c8575b6109bb575b51908161099157505060005b600b54908181101561098a5761087761088361086083612257565b9290923393546001600160a01b039160031b1c1690565b6001600160a01b031690565b14610892576001915001610845565b61089b82612114565b8103610931575b50506108ce6108c4336001600160a01b0316600052600c602052604060002090565b60ff198154169055565b6109246108ee336001600160a01b03166000526010602052604060002090565b60086000918281558260018201558260028201558260038201558260048201558260058201558260068201558260078201550155565b61092c6122a0565b610709565b61096461095e61094b61094661098395612114565b612257565b90546001600160a01b039160031b1c1690565b91612257565b9091906001600160a01b038084549260031b9316831b921b1916179055565b38806108a2565b5050610709565b6109a261092c926014541115612130565b336000908152601060205260409020612191565b612191565b8051600082529250610839565b50805160145411610834565b508051151561082e565b611fd2565b9091506109ef8261103b565b6109f88261103b565b610a018161103b565b1484386105ea565b506105c5610a266108776013546001600160a01b039060081c1690565b33141590506105bc565b61024b9092919261012080610140830195610a548482516001600160a01b03169052565b6020810151602085015260408101516040850152606081015160608501526080810151608085015260a081015160a085015260c081015160c085015260e081015160e0850152610aaf61010082015161010086019015159052565b01511515910152565b34610015576020600319360112610015576001600160a01b03600435610add816101cf565b6000610120604051610aee816101f6565b8281528260208201528260408201528260608201528260808201528260a08201528260c08201528260e08201528261010082015201521660005260106020526103ef6040600020610bd3610bc96008610b4561023b565b93610b67610b5a82546001600160a01b031690565b6001600160a01b03168652565b60018101546020860152600281015460408601526003810154606086015260048101546080860152600581015460a0860152600681015460c0860152600781015460e08601520154610bc060ff82161515610100860152565b60081c60ff1690565b1515610120830152565b60405191829182610a30565b346100155760206003193601126100155760043533600052600e602052610c0d60ff604060002054166122fa565b601455005b346100155760006003193601126100155760206001600160a01b0360135460081c16604051908152f35b3461001557602060031936011261001557610120610c6d610c67600435610c61611db6565b50611e6f565b50611eaa565b610cd6604051809261010080916001600160a01b03815116845260208101511515602085015260408101516040850152606081015160608501526080810151608085015260a081015160a085015260c081015160c085015260e081015160e08501520151910152565bf35b3461001557600060031936011261001557610cf1612d29565b60006001600160a01b037f9016d09d72d40fdae2fd8ceac6b6234c7706214fd39c1cd1e609a0528c199300546001600160a01b031981167f9016d09d72d40fdae2fd8ceac6b6234c7706214fd39c1cd1e609a0528c19930055167f8be0079c531659141344cd1fd0a4f28419497f9722a3daafe3b4186f6b6457e08280a3005b602060408183019282815284518094520192019060005b818110610d955750505090565b82516001600160a01b0316845260209384019390920191600101610d88565b3461001557600060031936011261001557604051806020600a54918281520190600a6000527fc65a7bb8d6351c1cf70c95a316cc6a92839c986682d98bc35f958f4883f9d2a89060005b818110610e21576103ef85610e1581870382610218565b60405191829182610d71565b82546001600160a01b0316845260209093019260019283019201610dfe565b346100155760006003193601126100155760206001600160a01b037f9016d09d72d40fdae2fd8ceac6b6234c7706214fd39c1cd1e609a0528c1993005416604051908152f35b6003111561001557565b346100155760c06003193601126100155760043567ffffffffffffffff811161001557610ec4610efa913690600401610289565b6024356044356084359160a43593610edb85610e86565b33600052600e602052610ef560ff604060002054166122fa565b61236b565b604080519215158352602083019190915290f35b34610015576000600319360112610015576020601554604051908152f35b8015150361001557565b3461001557606060031936011261001557600435602435610f5681610f2c565b60443590610f6382610f2c565b33600052600c60205260ff6040600020541615610fe157610fcd6008610fdf94610fa0336001600160a01b03166000526010602052604060002090565b90610fae606482111561261e565b600582015501805461ff00191692151560081b61ff0016929092178255565b9060ff60ff1983541691151516179055565b005b606460405162461bcd60e51b815260206004820152601260248201527f75736572206973206e6f742065786973747300000000000000000000000000006044820152fd5b634e487b7160e01b600052602160045260246000fd5b6005111561104557565b611025565b346100155760006003193601126100155760ff601354166040516005821015611045576020918152f35b3461001557600060031936011261001557604051806020600b54918281520190600b6000527f0175b7a638427703f0dbe7bb9bbf987a2551717b34e79f33b5b1008d1fa01db99060005b8181106110d5576103ef85610e1581870382610218565b82546001600160a01b03168452602090930192600192830192016110be565b3461001557606060031936011261001557600435611111816101cf565b6024359061111e826101cf565b60443561112a816101cf565b7ff0c57e16840df040f15088dc2f81fe391c3923bec73e23a9662efc9c229c6a00549267ffffffffffffffff61117960ff604087901c161561116b565b1590565b9567ffffffffffffffff1690565b1680159081611342575b6001149081611338575b15908161132f575b5061130557611216928461120d60017fffffffffffffffffffffffffffffffffffffffffffffffff00000000000000007ff0c57e16840df040f15088dc2f81fe391c3923bec73e23a9662efc9c229c6a005416177ff0c57e16840df040f15088dc2f81fe391c3923bec73e23a9662efc9c229c6a0055565b6112a0576126b2565b61121c57005b61127168ff0000000000000000197ff0c57e16840df040f15088dc2f81fe391c3923bec73e23a9662efc9c229c6a0054167ff0c57e16840df040f15088dc2f81fe391c3923bec73e23a9662efc9c229c6a0055565b604051600181527fc7f505b2f371ae2175ee4913f4499e1f2633a7b5936321eed1cdaeb6115181d290602090a1005b6113006801000000000000000068ff0000000000000000197ff0c57e16840df040f15088dc2f81fe391c3923bec73e23a9662efc9c229c6a005416177ff0c57e16840df040f15088dc2f81fe391c3923bec73e23a9662efc9c229c6a0055565b6126b2565b7ff92ee8a90000000000000000000000000000000000000000000000000000000060005260046000fd5b90501538611195565b303b15915061118d565b859150611183565b906020808351928381520192019060005b8181106113685750505090565b825184526020938401939092019160010161135b565b9060206104d592818152019061134a565b34610015576020600319360112610015576001600160a01b036004356113b4816101cf565b166000526011602052604060002060405190816020825491828152019160005260206000209060005b818110611400576103ef856113f481870382610218565b6040519182918261137e565b82548452602090930192600192830192016113dd565b346100155760406003193601126100155760243560043561145a61144a61143c83611e6f565b50546001600160a01b031690565b6001600160a01b031633146128a2565b61148682600261147d336001600160a01b03166000526010602052604060002090565b015410156128ed565b6114aa60016114a261149784611e6f565b505460a01c60ff1690565b151514612938565b6114d48260026114cd336001600160a01b03166000526010602052604060002090565b0154612123565b60026114f3336001600160a01b03166000526010602052604060002090565b015561151f826003611518336001600160a01b03166000526010602052604060002090565b0154612991565b600361153e336001600160a01b03166000526010602052604060002090565b015561155782600361154f84611e6f565b500154612991565b600361156283611e6f565b50015561157961157483601554612991565b601555565b7fc8f742aa90a6e6851d2252fa58ed695d3ca295b55bf5f1c2164a360cc8a093e26001600160a01b036115b46005546001600160a01b031690565b61077f60036115c286611e6f565b50015460405193849316963396846040919493926060820195825260208201520152565b3461001557604060031936011261001557600435602435906000526017602052604060002054906000198201918211611635576080611629610c67602094611e6f565b01511115604051908152f35b6120fe565b93929161166390611655604093606088526060880190610429565b90868203602088015261134a565b930152565b34610015576060600319360112610015576004356024356044358192809260009160125480921161177e575b8110611776575b509291926116a882611e0c565b916116b281610411565b946116c06040519687610218565b818652601f196116cf83610411565b013660208801375b8481108061176d575b15611747576116f161149782611e6f565b611704575b6116ff9061299e565b6116d7565b9161173f81846117176116ff948a611e5b565b52611724610c6786611e6f565b61172e8288611e5b565b526117398187611e5b565b5061299e565b9290506116f6565b8593926103ef928103611762575b506040519384938461163a565b808452845284611755565b508183106116e0565b92503861169b565b9094508490611694565b346100155760406003193601126100155760043560243590806117ee6117e66108776013546117d76117ba8260ff1690565b6117c38161103b565b8860038214918215611a16575b50506129f1565b60081c6001600160a01b031690565b3314156129f8565b6117f730613202565b906118158130336118106005546001600160a01b031690565b6132c2565b60018403611990575061182f61183d926001541115612a43565b61183830613202565b612123565b611867611167611860336001600160a01b0316600052600d602052604060002090565b5460ff1690565b611955575b6118758161347e565b600161189061061e6013546001600160a01b039060081c1690565b0161189c838254612991565b905560026118b961061e6013546001600160a01b039060081c1690565b016118c5838254612991565b90556013546118df9060081c6001600160a01b031661067b565b6118ea828254612991565b905561191461190c336001600160a01b0316600052600f602052604060002090565b918254612991565b90555b7f9675a307d5dddc49aefd66964913e794711b6c69e23cfe1fa44406ab2bbaeae861077f6001600160a01b036107646005546001600160a01b031690565b611982611975336001600160a01b0316600052600d602052604060002090565b600160ff19825416179055565b61198b33612a8e565b61186c565b915060028303611a115761182f6119ab926014541115612a43565b6119b36133ad565b611a0c6119d66107ed336001600160a01b03166000526010602052604060002090565b602081016119e5848251612991565b9052604081016119f6848251612991565b9052336000908152601060205260409020612191565b611917565b6129ad565b909150611a228261103b565b611a2b8261103b565b611a348161103b565b1488386117d0565b60ff81160361001557565b346100155760e0600319360112610015576004357f9a5787718e945183fe431d089b46b9ee2c5cd3ffbb79ca1a9b117fc29b31c6aa6103ef611b8f602435611a8e81611a3c565b6044356064356084359060a4359260c43594611aa986610f2c565b33600052600e602052611ac360ff604060002054166122fa565b611aeb61143c611ae6611ae08d6000526017602052604060002090565b54612114565b611e6f565b9989611b0d6107ed8d6001600160a01b03166000526010602052604060002090565b8c611b876020830151926040810151906080606082015191015190611b45856001600160a01b0316600052600f602052604060002090565b549260405196879687929360c094600a96929897936001600160a01b0360e087019a168652602086015260408501526060840152608083015260a08201520152565b0390a16135d0565b9294909195611bb46107ed826001600160a01b03166000526010602052604060002090565b90611c2e6020830151926040810151906080606082015191015190611bec856001600160a01b0316600052600f602052604060002090565b549260405196879687929360c094601496929897936001600160a01b0360e087019a168652602086015260408501526060840152608083015260a08201520152565b0390a1604051948594859260609295949195608085019685526020850152151560408401521515910152565b34610015576000600319360112610015576020601254604051908152f35b3461001557602060031936011261001557610fdf600435611c98816101cf565b611ca0612d29565b612afc565b346100155760a060031936011261001557610fdf611975600435611cc8816101cf565b611d9d61197560243592611cdb846101cf565b611d9d61197560443592611cee846101cf565b611d7d61197560643595611d01876101cf565b6001600160a01b036084359a611d168c6101cf565b611d1e612d29565b16806001600160a01b03196008541617600855600052600e6020526040600020600160ff198254161790556001600160a01b0381166001600160a01b031960095416176009556001600160a01b0316600052600e602052604060002090565b611d9d816001600160a01b03166001600160a01b03196007541617600755565b6001600160a01b0316600052600e602052604060002090565b60405190610120820182811067ffffffffffffffff821117610213576040526000610100838281528260208201528260408201528260608201528260808201528260a08201528260c08201528260e08201520152565b90611e1682610411565b611e236040519182610218565b828152601f19611e338294610411565b019060005b828110611e4457505050565b602090611e4f611db6565b82828501015201611e38565b80518210156103435760209160051b010190565b60125481101561034357601260005260206000209060031b0190600090565b80548210156103435760005260206000209060031b0190600090565b906007611eb561024d565b92611ef0611ee78254611ede611ed1826001600160a01b031690565b6001600160a01b03168852565b60a01c60ff1690565b15156020860152565b600181015460408501526002810154606085015260038101546080850152600481015460a0850152600581015460c0850152600681015460e08501520154610100830152565b908151611f4281611e0c565b9260005b828110611f5257505050565b80611f6b610c67611f6560019486611e5b565b51611e6f565b611f758288611e5b565b52611f808187611e5b565b5001611f46565b15611f8e57565b606460405162461bcd60e51b815260206004820152600e60248201527f646f206e6f7420616c6c6f7765640000000000000000000000000000000000006044820152fd5b606460405162461bcd60e51b815260206004820152601360248201527f77726f6e6720776974686472617720666c6167000000000000000000000000006044820152fd5b15611fd257565b9061024b6120a9600861202e61023b565b9461205061204382546001600160a01b031690565b6001600160a01b03168752565b60018101546020870152600281015460408701526003810154606087015260048101546080870152600581015460a0870152600681015460c0870152600781015460e08701520154610bc060ff82161515610100870152565b1515610120840152565b156120ba57565b606460405162461bcd60e51b815260206004820152601060248201527f6c6f7765722074686520616d6f756e74000000000000000000000000000000006044820152fd5b634e487b7160e01b600052601160045260246000fd5b90600019820191821161163557565b9190820391821161163557565b1561213757565b606460405162461bcd60e51b815260206004820152601860248201527f7374617920616d6f756e7420697320746f6f20736d616c6c00000000000000006044820152fd5b634e487b7160e01b600052600060045260246000fd5b90612241610120600861024b946121ce6121b286516001600160a01b031690565b82906001600160a01b03166001600160a01b0319825416179055565b6020850151600182015560408501516002820155606085015160038201556080850151600482015560a0850151600582015560c0850151600682015560e08501516007820155019261223a612227610100830151151590565b859060ff60ff1983541691151516179055565b0151151590565b815461ff00191690151560081b61ff0016179055565b600b5481101561034357600b60005260206000200190600090565b80548210156103435760005260206000200190600090565b634e487b7160e01b600052603160045260246000fd5b600b5480156122f557600019810190600090600b5483101561034357600b918290527f0175b7a638427703f0dbe7bb9bbf987a2551717b34e79f33b5b1008d1fa01db80180546001600160a01b031916905555565b61228a565b1561230157565b608460405162461bcd60e51b815260206004820152602160248201527f63616c6c6572206973206e6f74207072697661746520706f6f6c206b6565706560448201527f72000000000000000000000000000000000000000000000000000000000000006064820152fd5b929194939061237a8387612ddf565b926001600160a01b038392931693841560001461239f57505050505050505060009190565b7f9a5787718e945183fe431d089b46b9ee2c5cd3ffbb79ca1a9b117fc29b31c6aa9392916125d69160029b98999a9b918985878d6123ec6108776013546001600160a01b039060081c1690565b8c14612615575b8686836124ab93612435611574846124307f5e16b3b6e0a15f63fe16c5b5705c03147211e204ce01e5197d2a699c087e167b9b9a99601554612991565b612991565b61245e612455876001600160a01b03166000526011602052604060002090565b601254906147a6565b50601254906040519788978b899491926001600160a01b0360e097949a999895929a61010088019b885216602087015260408601526060850152608084015260a083015260c08201520152565b0390a16124fc6124b961024d565b6001600160a01b0387168152600160208201528260408201528b60608201528760808201528360a08201528460c08201528c60e082015242610100820152612f66565b612513601254916000526017602052604060002090565b55612531846001600160a01b03166000526010602052604060002090565b9060016003830192612548836124308a8754612991565b845561256e600482019361255d818654612991565b8555611838600284019a8b54612123565b8855015495549154905490612596866001600160a01b0316600052600f602052604060002090565b54926040519788978893909796959260c095926001600160a01b0360e087019a168652602086015260408501526060840152608083015260a08201520152565b0390a16013546125f19060081c6001600160a01b0316610877565b14612603575b50505050600190600090565b61260c93613084565b388080806125f7565b600196506123f3565b1561262557565b606460405162461bcd60e51b815260206004820152600c60248201527f6f7574206f6620302d31303000000000000000000000000000000000000000006044820152fd5b9081600a0291600a83040361163557565b8181029291811591840414171561163557565b634e487b7160e01b600052601260045260246000fd5b81156126ad570490565b61268d565b61271d611975926001600160a01b03612802956126cd614899565b6126d5614899565b6126de33612afc565b6126e6612d29565b6126ef85612afc565b166001600160a01b031960065416176006556001600160a01b03166001600160a01b03196005541617600555565b601380547fffffffffffffffffffffff0000000000000000000000000000000000000000ff163360081b74ffffffffffffffffffffffffffffffffffffffff00161790556013546127b69060081c6001600160a01b031661279b6001600160a01b038216916001600160a01b03166000526010602052604060002090565b906001600160a01b03166001600160a01b0319825416179055565b6127e260086127d461061e6013546001600160a01b039060081c1690565b01600160ff19825416179055565b611d9d611975306001600160a01b0316600052600e602052604060002090565b612822611975336001600160a01b0316600052600e602052604060002090565b612834600260ff196013541617601355565b61284360ff1960005416600055565b612854670de0b6b3a7640000600155565b612865670de0b6b3a7640000601455565b61286f600a600255565b61288c612887612880600154612669565b6064900490565b600355565b61024b61289d612880600154612669565b600455565b156128a957565b606460405162461bcd60e51b815260206004820152600960248201527f4e6f74206d616b657200000000000000000000000000000000000000000000006044820152fd5b156128f457565b606460405162461bcd60e51b815260206004820152601060248201527f45786365656420617661696c61626c65000000000000000000000000000000006044820152fd5b1561293f57565b606460405162461bcd60e51b815260206004820152601660248201527f4c6971756964697479207374617475732077726f6e67000000000000000000006044820152fd5b906001820180921161163557565b9190820180921161163557565b60001981146116355760010190565b606460405162461bcd60e51b815260206004820152601260248201527f77726f6e67206465706f73697420666c616700000000000000000000000000006044820152fd5b156129ad57565b156129ff57565b606460405162461bcd60e51b815260206004820152601860248201527f77616c6c657420697320657363726f77206163636f756e7400000000000000006044820152fd5b15612a4a57565b606460405162461bcd60e51b815260206004820152600960248201527f746f6f20736d616c6c00000000000000000000000000000000000000000000006044820152fd5b600a5490680100000000000000008210156102135760018201600a55600a5482101561034357600a6000527fc65a7bb8d6351c1cf70c95a316cc6a92839c986682d98bc35f958f4883f9d2a890910180546001600160a01b0319166001600160a01b03909216919091179055565b6001600160a01b03168015612b8c576001600160a01b037f9016d09d72d40fdae2fd8ceac6b6234c7706214fd39c1cd1e609a0528c19930054826001600160a01b03198216177f9016d09d72d40fdae2fd8ceac6b6234c7706214fd39c1cd1e609a0528c19930055167f8be0079c531659141344cd1fd0a4f28419497f9722a3daafe3b4186f6b6457e0600080a3565b7f1e4fbdf700000000000000000000000000000000000000000000000000000000600052600060045260246000fd5b612bcd90612bc7614626565b9061267a565b6001549081156126ad570490565b3d15612c06573d90612bec8261026d565b91612bfa6040519384610218565b82523d6000602084013e565b606090565b9081602091031261001557516104d581610f2c565b1561001557565b91612c32908361468d565b80612c3c57505050565b61024b92600092838093612ce2604093612cd47fffffffff00000000000000000000000000000000000000000000000000000000601960208851612c808a82610218565b828152017f7472616e7366657228616464726573732c75696e7432353629000000000000008152201695519384926020840197885260248401602090939291936001600160a01b0360408201951681520152565b03601f198101835282610218565b51925af1612cee612bdb565b81612cfa575b50612c20565b8051801592508215612d0f575b505038612cf4565b612d229250602080918301019101612c0b565b3880612d07565b6001600160a01b037f9016d09d72d40fdae2fd8ceac6b6234c7706214fd39c1cd1e609a0528c19930054163303612d5c57565b7f118cdaa7000000000000000000000000000000000000000000000000000000006000523360045260246000fd5b15612d9157565b606460405162461bcd60e51b815260206004820152601560248201527f706f6f6c207374617475732069732072656675736500000000000000000000006044820152fd5b81156126ad570690565b601354919060ff8316612df18161103b565b600481141580612f54575b612e0590612d8a565b600b5490612e128161103b565b600381148015928184612f41575b80612f38575b612e83575b50612e358261103b565b91612e6f575b50612e4e57505050600090600090600090565b612e689260081c6001600160a01b031661469d565b61469d565b9192909190565b60019150612e7c8161103b565b1438612e3b565b612edd816040516020810190612ed581612cd442414487917fffffffffffffffffffffffffffffffffffffffff0000000000000000000000009060549492845260601b16602083015260348201520190565b519020612dd5565b9060005b818110612eef575050612e2b565b612f0d8888612e6361094b61094687612f08888b612991565b612dd5565b90916001600160a01b038116612f2857505050600101612ee1565b9b919a5098509650505050505050565b50801515612e26565b50612f4b8361103b565b60028314612e20565b50612f5e8161103b565b801515612dfc565b6012546801000000000000000081101561021357806001612f8c92016012556012611e8e565b9190916130625761010081612fc9612fad600794516001600160a01b031690565b85906001600160a01b03166001600160a01b0319825416179055565b61301f612fd96020830151151590565b85547fffffffffffffffffffffff00ffffffffffffffffffffffffffffffffffffffff1690151560a01b74ff000000000000000000000000000000000000000016178555565b60408101516001850155606081015160028501556080810151600385015560a0810151600485015560c0810151600585015560e081015160068501550151910155565b61217b565b6003111561104557565b60ff6000199116019060ff821161163557565b6130e3916130d56130c66130db939695966130c06001600160a01b0360135460081c166001600160a01b03166000526016602052604060002090565b906102f3565b916130d081613067565b613071565b9061032f565b50918361267a565b6001549081156126ad570490805482018092116116355760019181550180549182018092116116355755565b6131479293506130c66130d5916130c06001600160a01b0360135460081c166001600160a01b03166000526016602052604060002090565b50600181019182548082116131955780820361316857505090600080925555565b825490613175838361267a565b81156126ad570481039081116116355761319192558254612123565b9055565b606460405162461bcd60e51b815260206004820152601c60248201527f736861726520616d6f756e7420697320696e73756666696369656e74000000006044820152fd5b90816020910312610015575190565b6040513d6000823e3d90fd5b604d811161163557600a0a90565b6005546040517f70a082310000000000000000000000000000000000000000000000000000000081526001600160a01b03928316600482015290916020908290602490829086165afa9081156132bd576001600160a01b036132776132839361327e9360009161328e575b506001549061267a565b93166148f2565b6131f4565b9081156126ad570490565b6132b0915060203d6020116132b6575b6132a88183610218565b8101906131d9565b3861326d565b503d61329e565b6131e8565b926132d0909291928461468d565b92836132dd575b50505050565b6133a4936000809493612ce28295612cd47fffffffff00000000000000000000000000000000000000000000000000000000602560405161331f606082610218565b8181527f7432353629000000000000000000000000000000000000000000000000000000604060208301927f7472616e7366657246726f6d28616464726573732c616464726573732c75696e8452015220169560405194859360208501988952602485016001600160a01b036040929594938160608401971683521660208201520152565b388080806132d7565b33600052600c60205260ff60406000205416156133c657565b33600052600c6020526040600020600160ff19825416179055600b54680100000000000000008110156102135760018101600b55600b5481101561034357600b6000527f0175b7a638427703f0dbe7bb9bbf987a2551717b34e79f33b5b1008d1fa01db90180546001600160a01b0319163317905561345d60086127d4336001600160a01b03166000526010602052604060002090565b61024b3361279b336001600160a01b03166000526010602052604060002090565b60015461348a9161267a565b613283614626565b519061024b826101cf565b519061024b82610e86565b5190600682101561001557565b81601f820112156100155780516134cb8161026d565b926134d96040519485610218565b81845260208284010111610015576104d591602080850191016102d0565b6020818303126100155780519067ffffffffffffffff8211610015570190610160828203126100155761352861025d565b9161353281613492565b83526135406020820161349d565b6020840152613551604082016134a8565b60408401526135626060820161349d565b60608401526080810151608084015260a081015167ffffffffffffffff811161001557610140926135949183016134b5565b60a084015260c081015160c084015260e081015160e0840152610100810151610100840152610120810151610120840152015161014082015290565b91959496939096600093600080986000986135f8611ae0886000526017602052604060002090565b9361360285611e6f565b509361361585546001600160a01b031690565b9860ff6136358b6001600160a01b03166000526010602052604060002090565b9f168015809b819c6145fa575b50614523575b600114159050613d4a57505050600382019a8b5490600484019161366d835482612991565b93809e600284019283546136818189612991565b8411156138d6575050506136a39d9e9d61369b8683612123565b835490612123565b906136ac61497e565b908183116138a7575b505060049d9e9d6137129593600061157496948461370895613855575b50600183016136e8886118388354855490612123565b905555600381016136fa868254612123565b905501918254905490612123565b9055601554612123565b6137488261374361372a84546001600160a01b031690565b6001600160a01b03166000526011602052604060002090565b614b14565b50613754838b836153be565b1561376457505050505093929190565b90919295949897507fa9fda2d0d572da79a3bb128a2cd337112b06538bd638e802d7f392879dde36a89396506137b8886137a66005546001600160a01b031690565b6007546001600160a01b031690612c27565b60019586975b898b839560029360029515613845575b9761383796979861383c575b600188015497546001600160a01b031698604051998a998a95926001600160a01b036101009895929b9a99969361012089019c895216602088015260408701526060860152608085015260a084015260c083015260e08201520152565b0390a1565b600195506137da565b60028701549750600194506137ce565b806138836138a19261386f6005546001600160a01b031690565b6006546001600160a01b03165b30916132c2565b6006546001600160a01b03168c546001600160a01b03165b90614a50565b386136d2565b819f509e9f9e906138bd91969496959395612991565b906138c791612123565b9c9d91939092909138806136b5565b87841115613b355750508054906138ed8284612123565b600886015460ff81169081613b20575b5080613b15575b6139d4575050506004859361157495936139436139276139549961370896612123565b6001840161393a826118388b8454612123565b90558254612123565b9055600381016136fa868254612123565b61396c8261374361372a84546001600160a01b031690565b50613978838b83615129565b1561398857505050505093929190565b90919295949897507fa9fda2d0d572da79a3bb128a2cd337112b06538bd638e802d7f392879dde36a89396506139ca886137a66005546001600160a01b031690565b60019586976137be565b95509c9e509c509d5093965093507fc8f742aa90a6e6851d2252fa58ed695d3ca295b55bf5f1c2164a360cc8a093e297506001600160a01b039650613a769150613a51613a3f600396875490600788015480613b0b575b50613a3a9060028b015461267a565b61267a565b613a4c60015480926126a3565b6126a3565b613a5b8183612991565b845492908310613b0257613a6f9250612991565b8099612991565b8755613a83888254612123565b905501613a91868254612991565b9055613aa261157486601554612991565b613af3613ab682546001600160a01b031690565b956001613acb6005546001600160a01b031690565b9301549554908460405195869516981696846040919493926060820195825260208201520152565b0390a360009190600090600090565b50508099612991565b9150613a3a613a2b565b508454811115613904565b613b2f915060081c60ff161590565b386138fd565b6008869592949897960154613b4a8160ff1690565b9081613d35575b50613c61575b505050506004816001613b709301613943868254612123565b9055613b8161157482601554612123565b613b998461374361372a86546001600160a01b031690565b50613ba5858285614bcc565b15613bb7575050505050505093929190565b6139ca9293949598979b9a507fa9fda2d0d572da79a3bb128a2cd337112b06538bd638e802d7f392879dde36a8969950613bfd826137a66005546001600160a01b031690565b613c2e613c126005546001600160a01b031690565b6006546001600160a01b0316613c288585612123565b91612c27565b613c5b613c4285546001600160a01b031690565b92613c556006546001600160a01b031690565b92612123565b91614a9e565b838810613d1757613c728489612123565b81811115613c8b5750505050506004613b703880613b57565b955095509699509b9d509b509450613a76929c507fc8f742aa90a6e6851d2252fa58ed695d3ca295b55bf5f1c2164a360cc8a093e298506001600160a01b039750613cf2613a3f600397885490600789015480613d0d575b50613a3a9060028c015461267a565b9082613cfe8383612991565b11613b0257613a6f9250612991565b9150613a3a613ce3565b50505050505050995050505050505091505060009190600090600090565b613d44915060081c60ff161590565b38613b51565b87949596979d91929c9a98939b999d1560001461411c5785547fffffffffffffffffffffff00ffffffffffffffffffffffffffffffffffffffff168655600386019b8c5491613d9f6004890193845490612991565b9460038501613daf878254612123565b905560048501613dc28154865490612123565b9055613dd361157487601554612123565b613deb8a61374361372a8c546001600160a01b031690565b508215614050575050809c600284019e8f54613e078188612991565b841115613f895750613e5d575b5050509a600091613e5560017fa9fda2d0d572da79a3bb128a2cd337112b06538bd638e802d7f392879dde36a89a9b9c9d9e01916118388354855490612123565b9055556137be565b613e759291613e6d915490612123565b905490612123565b613e818d548092612123565b90613e8a61497e565b808311613f58575b5060017fa9fda2d0d572da79a3bb128a2cd337112b06538bd638e802d7f392879dde36a89a9b9c9d9e93613f4960009694613ef9613e5595613edc6005546001600160a01b031690565b90613c28613ef26007546001600160a01b031690565b918a612991565b613f2d81613f0f6005546001600160a01b031690565b6006546001600160a01b03166007546001600160a01b0316916132c2565b6006546001600160a01b03168b546001600160a01b031661389b565b939e9d9c9b9a50829450613e14565b819e939a9b9c9d50809194925093613f709083612991565b90613f7a91612991565b9b9a9998919c38939193613e92565b90949293507fa9fda2d0d572da79a3bb128a2cd337112b06538bd638e802d7f392879dde36a89b9c9d9e9f958092508411600014614007575060018392613fd761393a93613fe59796612123565b94613fec5701918254612123565b90556137be565b614002846137a66005546001600160a01b031690565b6106e8565b83611838600195979361401993612991565b905501614027838254612123565b9055614034575b506137be565b61404a906137a66005546001600160a01b031690565b3861402e565b959e909d5091505083156140e4577fa9fda2d0d572da79a3bb128a2cd337112b06538bd638e802d7f392879dde36a898999a9b9c9d5061243060026140b09386936140b8575b600181016140a5858254612991565b905501938454612991565b9055996137be565b6140df846140ce6005546001600160a01b031690565b6007546001600160a01b031661387c565b614096565b507fa9fda2d0d572da79a3bb128a2cd337112b06538bd638e802d7f392879dde36a89798999a9b92506002613fe59101918254612991565b819c50846003879d9c949d0154906141339161267a565b9260028701549384614144916126a3565b9c8d948760048a0154906141579161267a565b90614161916126a3565b948561416c91612991565b93600381018581549061417e91612123565b90556004018581549061419091612123565b905583601554906141a091612123565b6015558c1561446e57505050899b60019a60028201546141c08185612991565b82111561430b57507fa9fda2d0d572da79a3bb128a2cd337112b06538bd638e802d7f392879dde36a8999a9b9c9d50826142d6926142056142e596956142ca94612123565b9161421560028301548094612123565b9161421e61497e565b808411614302575b5060029061426161243094956142446005546001600160a01b031690565b90613c2861425a6007546001600160a01b031690565b9187612991565b61427785613f0f6005546001600160a01b031690565b61429f858d61389b6142916006546001600160a01b031690565b91546001600160a01b031690565b600181016142bb6142b1858354612123565b8484015490612123565b90556000910181905590612991565b9c5b6003870154612123565b60038601556004850154612123565b60048401556142f8826002850154612123565b60028401556137be565b92506002614226565b838294929e959e1160001461438f57509261438a8360017fa9fda2d0d572da79a3bb128a2cd337112b06538bd638e802d7f392879dde36a89c9d9e9f959461436661435c6142e5996142d698612123565b6002830154612123565b600282015501614377828254612123565b90556005546001600160a01b03166137a6565b6142cc565b848411156143e357509261438a8360017fa9fda2d0d572da79a3bb128a2cd337112b06538bd638e802d7f392879dde36a89c9d9e9f95946143666143d96142d6976142e59a612123565b6002830154612991565b83919d9a9b9c5060009d6143f691612991565b9061440091612123565b60028201556001018181549061441591612123565b90556005546001600160a01b031690600754614437906001600160a01b031690565b61444092612c27565b7fa9fda2d0d572da79a3bb128a2cd337112b06538bd638e802d7f392879dde36a8966142d66142e5926142cc565b929e919d909c9a9b50989992989082156144e05750819d82600283019182549061449791612991565b906144a191612991565b9055600101818154906144b391612991565b90556005546001600160a01b0316906007546144d5906001600160a01b031690565b3090614440936132c2565b9d7fa9fda2d0d572da79a3bb128a2cd337112b06538bd638e802d7f392879dde36a8999250926142e59361451c60026142d69401918254612991565b90556142cc565b600061457a926145416108776108776008546001600160a01b031690565b60405180809681947f82fd5bac000000000000000000000000000000000000000000000000000000008352600483019190602083019252565b03915afa9182156132bd576001926145c9916000916145d9575b508b6145ce57600289015460c08201525b60a08101519060208101516145b981613067565b60e060c08301519201519261310f565b613648565b8b60c08201526145a5565b6145f4913d8091833e6145ec8183610218565b8101906134f7565b38614594565b90506001600160a01b0361461d6108776013546001600160a01b039060081c1690565b91161438613642565b600460206001600160a01b0360095416604051928380927f3b1e6a590000000000000000000000000000000000000000000000000000000082525afa9081156132bd57600091614674575090565b6104d5915060203d6020116132b6576132a88183610218565b90612bc761327e612bcd936148f2565b9190916146c06107ed826001600160a01b03166000526010602052604060002090565b9161012083015161474a576002549360a084015180614740575b506146fb6146ed6040936147149361267a565b95613a4c60015480986126a3565b94613a4c60045460c087015180614738575b508761267a565b9201516147218385612991565b111561473557505050600090600090600090565b92565b90503861470d565b94506146fb6146da565b50505050600090600090600090565b9081549168010000000000000000831015610213578261478191600161024b95018155612272565b90919060001983549160031b92831b921b1916179055565b8015611635576000190190565b919060018301816000528060205260ff6040600020541661489157600084545b80821061484f57506147d88386614759565b6147e28554612114565b8181116148155750906148018361478161197595946148109798612272565b90600052602052604060002090565b600190565b8061484561483b61483161482b61484a95612114565b8a612272565b90549060031b1c90565b614781838a612272565b614799565b6147e2565b908181018082116116355760011c90846148698389612272565b90549060031b1c1060001461488a57506001810180911161163557906147c6565b91506147c6565b506000925050565b60ff7ff0c57e16840df040f15088dc2f81fe391c3923bec73e23a9662efc9c229c6a005460401c16156148c857565b7fd7e6bcf80000000000000000000000000000000000000000000000000000000060005260046000fd5b60206001600160a01b03916004604051809481937f313ce567000000000000000000000000000000000000000000000000000000008352165afa80156132bd57600090614942575b60ff91501690565b506020813d602011614976575b8161495c60209383610218565b810103126100155760ff905161497181611a3c565b61493a565b3d915061494f565b6006546001600160a01b0316614a0a61499682613202565b9160206149ab6005546001600160a01b031690565b916149be6001600160a01b038416610877565b6040517fdd62ed3e0000000000000000000000000000000000000000000000000000000081526001600160a01b0390921660048301523060248301529093849190829081906044820190565b03915afa9182156132bd5761327e614a34614a4094614a3a9360009161328e57506001549061267a565b926148f2565b906126a3565b808211614a4b575090565b905090565b91907feb42cf637f927243245c50b4bf7fe105fe4f4d26209102240f2ba3d8e27a7df860606001600160a01b03808060055416946040519660098852602088015242604088015216951693a4565b91907feb42cf637f927243245c50b4bf7fe105fe4f4d26209102240f2ba3d8e27a7df860606001600160a01b03808060055416946040519660088852602088015242604088015216951693a4565b805480156122f5576000190190614b038282612272565b60001982549160031b1b1916905555565b906001820190614b34611167611860838590600052602052604060002090565b614bc45782549060005b828110614b4f575050505050600090565b81614b5d6148318388612272565b14614b6a57600101614b3e565b9492909193945b614b7a85612114565b811015614bb157600181614ba9614b9f614831614b99614b7a96612983565b8b612272565b614781838b612272565b019050614b71565b5061481093506148016108c49395614aec565b505050600090565b9091614c2d90614bea6108776108776008546001600160a01b031690565b6000600185019182549060405180809781947f82fd5bac000000000000000000000000000000000000000000000000000000008352600483019190602083019252565b03915afa9283156132bd5760009361510e575b50601354600360ff8216614c538161103b565b1480615102575b806150d6575b614d03575b505050614cd09250614c7e82546001600160a01b031690565b6001600160a01b03614c9f6108776013546001600160a01b039060081c1690565b911614614cd5575b507fffffffffffffffffffffff00ffffffffffffffffffffffffffffffffffffffff8154169055565b600090565b8060a0614cfd920151906020810151614ced81613067565b60e060028601549201519261310f565b38614ca7565b6001600160a01b03919060081c821695614d336107ed886001600160a01b03166000526010602052604060002090565b966001614d75614d5b8483611518866001600160a01b03166000526010602052604060002090565b926001600160a01b03166000526010602052604060002090565b015560135460081c6001600160a01b03166002614dad614d5b8483611518866001600160a01b03166000526010602052604060002090565b015560135460081c6001600160a01b0316936002870192614dd08285548861469d565b979196909616614e095750505050505050614e01614cd0936109b661061e6013546001600160a01b039060081c1690565b388080614c65565b614e3091929497939699509794976001600160a01b03166000526010602052604060002090565b9060038201918989845490614e4491612991565b90614e4e91612991565b835560048101938a855490614e6291612991565b855560028201928b8b855490614e7791612123565b90614e8191612123565b84558a60038901558b60048901558254614ea1906001600160a01b031690565b8854600b60058b01556001600160a01b03919091167fffffffffffffffffffffff00000000000000000000000000000000000000000090911617740100000000000000000000000000000000000000001788555b86600689015560a08201516020830151614f0e81613067565b8b549360e00193845191614f2193613084565b549889614f38816000526017602052604060002090565b54614f4290612114565b9c8d9954614f56906001600160a01b031690565b92549351604080519384526001600160a01b038516602085015283018590526060830152608082019d909d5260a081019b909b5260c08b019b909b52600360e08b015299987f5e16b3b6e0a15f63fe16c5b5705c03147211e204ce01e5197d2a699c087e167b9061010090a16001015490549154925460135460081c6001600160a01b0316614ff8906001600160a01b0316600052600f602052604060002090565b54604080516001600160a01b038c16815260208101949094528301939093526060820193909352608081019290925260a0820152600360c08201527f9a5787718e945183fe431d089b46b9ee2c5cd3ffbb79ca1a9b117fc29b31c6aa9060e090a16040519586956150ad95879293610100946001600160a01b036005979399989461012087019a8752166020860152604085015260608401526080830152600060a083015260c0820152600160e08201520152565b037fa9fda2d0d572da79a3bb128a2cd337112b06538bd638e802d7f392879dde36a891a1600190565b5084546001600160a01b03166001600160a01b036150f9600884901c8216610877565b91161415614c60565b5060005460ff16614c5a565b61512291933d8091833e6145ec8183610218565b9138614c40565b909161514790614bea6108776108776008546001600160a01b031690565b03915afa9283156132bd576000936153a3575b50601354600360ff821661516d8161103b565b1480615397575b8061536b575b61519757505050614cd09250614c7e82546001600160a01b031690565b6001600160a01b03919060081c8216956151c76107ed886001600160a01b03166000526010602052604060002090565b9660016151ef614d5b8483611518866001600160a01b03166000526010602052604060002090565b015560135460081c6001600160a01b03166002615227614d5b8483611518866001600160a01b03166000526010602052604060002090565b015560135460081c6001600160a01b031693600287019261524a8285548861469d565b97919690961661527b5750505050505050614e01614cd0936109b661061e6013546001600160a01b039060081c1690565b6152a291929497939699509794976001600160a01b03166000526010602052604060002090565b90600382019189898454906152b691612991565b906152c091612991565b835560048101938a8554906152d491612991565b855560028201928b8b8554906152e991612123565b906152f391612123565b84558a60038901558b60048901558254615313906001600160a01b031690565b8854600c60058b01556001600160a01b03919091167fffffffffffffffffffffff0000000000000000000000000000000000000000009091161774010000000000000000000000000000000000000000178855614ef5565b5084546001600160a01b03166001600160a01b0361538e600884901c8216610877565b9116141561517a565b5060005460ff16615174565b6153b791933d8091833e6145ec8183610218565b913861515a565b90916153dc90614bea6108776108776008546001600160a01b031690565b03915afa9283156132bd57600093615638575b50601354600360ff82166154028161103b565b148061562c575b80615600575b61542c57505050614cd09250614c7e82546001600160a01b031690565b6001600160a01b03919060081c82169561545c6107ed886001600160a01b03166000526010602052604060002090565b966001615484614d5b8483611518866001600160a01b03166000526010602052604060002090565b015560135460081c6001600160a01b031660026154bc614d5b8483611518866001600160a01b03166000526010602052604060002090565b015560135460081c6001600160a01b03169360028701926154df8285548861469d565b9791969096166155105750505050505050614e01614cd0936109b661061e6013546001600160a01b039060081c1690565b61553791929497939699509794976001600160a01b03166000526010602052604060002090565b906003820191898984549061554b91612991565b9061555591612991565b835560048101938a85549061556991612991565b855560028201928b8b85549061557e91612123565b9061558891612123565b84558a60038901558b600489015582546155a8906001600160a01b031690565b8854600d60058b01556001600160a01b03919091167fffffffffffffffffffffff0000000000000000000000000000000000000000009091161774010000000000000000000000000000000000000000178855614ef5565b5084546001600160a01b03166001600160a01b03615623600884901c8216610877565b9116141561540f565b5060005460ff16615409565b61564c91933d8091833e6145ec8183610218565b91386153ef56fea26469706673582212201bc75b97bb7e8b88c34940f3e4a8ad4bdeb993ee559916a2390299bc0ddb666964736f6c634300081c0033",
  "linkReferences": {},
  "deployedLinkReferences": {}
}