{
  "_format": "hh-sol-artifact-1",
  "contractName": "BuyBack",
  "sourceName": "contracts/BuyBack.sol",
  "abi": [
    {
      "inputs": [],
      "name": "InvalidInitialization",
      "type": "error"
    },
    {
      "inputs": [],
      "name": "NotInitializing",
      "type": "error"
    },
    {
      "inputs": [
        {
          "internalType": "address",
          "name": "owner",
          "type": "address"
        }
      ],
      "name": "OwnableInvalidOwner",
      "type": "error"
    },
    {
      "inputs": [
        {
          "internalType": "address",
          "name": "account",
          "type": "address"
        }
      ],
      "name": "OwnableUnauthorizedAccount",
      "type": "error"
    },
    {
      "anonymous": false,
      "inputs": [
        {
          "indexed": false,
          "internalType": "address",
          "name": "user",
          "type": "address"
        },
        {
          "indexed": false,
          "internalType": "uint256",
          "name": "fccAmount",
          "type": "uint256"
        },
        {
          "indexed": false,
          "internalType": "address",
          "name": "token",
          "type": "address"
        },
        {
          "indexed": false,
          "internalType": "uint256",
          "name": "swapPrice",
          "type": "uint256"
        },
        {
          "indexed": false,
          "internalType": "uint256",
          "name": "swapAmount",
          "type": "uint256"
        }
      ],
      "name": "BuyBackAmount",
      "type": "event"
    },
    {
      "anonymous": false,
      "inputs": [
        {
          "indexed": false,
          "internalType": "uint64",
          "name": "version",
          "type": "uint64"
        }
      ],
      "name": "Initialized",
      "type": "event"
    },
    {
      "anonymous": false,
      "inputs": [
        {
          "indexed": true,
          "internalType": "address",
          "name": "previousOwner",
          "type": "address"
        },
        {
          "indexed": true,
          "internalType": "address",
          "name": "newOwner",
          "type": "address"
        }
      ],
      "name": "OwnershipTransferred",
      "type": "event"
    },
    {
      "anonymous": false,
      "inputs": [
        {
          "indexed": false,
          "internalType": "address",
          "name": "owner",
          "type": "address"
        },
        {
          "indexed": false,
          "internalType": "address",
          "name": "settle",
          "type": "address"
        },
        {
          "indexed": false,
          "internalType": "uint256",
          "name": "currentStageAmount",
          "type": "uint256"
        },
        {
          "indexed": false,
          "internalType": "uint256",
          "name": "lowerbound",
          "type": "uint256"
        },
        {
          "indexed": false,
          "internalType": "uint256",
          "name": "roundID",
          "type": "uint256"
        }
      ],
      "name": "SetRewardAmount",
      "type": "event"
    },
    {
      "anonymous": false,
      "inputs": [
        {
          "indexed": false,
          "internalType": "uint256",
          "name": "id",
          "type": "uint256"
        },
        {
          "indexed": false,
          "internalType": "uint256",
          "name": "amount",
          "type": "uint256"
        },
        {
          "indexed": false,
          "internalType": "uint256",
          "name": "timestamp",
          "type": "uint256"
        }
      ],
      "name": "UpdatePool",
      "type": "event"
    },
    {
      "stateMutability": "nonpayable",
      "type": "fallback"
    },
    {
      "inputs": [],
      "name": "FCCReceivedAddr",
      "outputs": [
        {
          "internalType": "address",
          "name": "",
          "type": "address"
        }
      ],
      "stateMutability": "view",
      "type": "function"
    },
    {
      "inputs": [
        {
          "internalType": "address",
          "name": "_settle",
          "type": "address"
        },
        {
          "internalType": "uint256",
          "name": "_defaultPrice",
          "type": "uint256"
        },
        {
          "internalType": "address",
          "name": "_numerator",
          "type": "address"
        },
        {
          "internalType": "address",
          "name": "_denominator",
          "type": "address"
        },
        {
          "internalType": "address",
          "name": "_pool",
          "type": "address"
        }
      ],
      "name": "addSettleBuybackInfo",
      "outputs": [],
      "stateMutability": "nonpayable",
      "type": "function"
    },
    {
      "inputs": [],
      "name": "currentStageAmount",
      "outputs": [
        {
          "internalType": "uint256",
          "name": "",
          "type": "uint256"
        }
      ],
      "stateMutability": "view",
      "type": "function"
    },
    {
      "inputs": [],
      "name": "deadAddress",
      "outputs": [
        {
          "internalType": "address",
          "name": "",
          "type": "address"
        }
      ],
      "stateMutability": "view",
      "type": "function"
    },
    {
      "inputs": [
        {
          "internalType": "address",
          "name": "_settle",
          "type": "address"
        },
        {
          "internalType": "bool",
          "name": "_disable",
          "type": "bool"
        }
      ],
      "name": "disableBuyBackInfo",
      "outputs": [],
      "stateMutability": "nonpayable",
      "type": "function"
    },
    {
      "inputs": [],
      "name": "elapseAmount",
      "outputs": [
        {
          "internalType": "uint256",
          "name": "",
          "type": "uint256"
        }
      ],
      "stateMutability": "view",
      "type": "function"
    },
    {
      "inputs": [
        {
          "internalType": "address",
          "name": "_settle",
          "type": "address"
        },
        {
          "internalType": "address",
          "name": "to",
          "type": "address"
        },
        {
          "internalType": "uint256",
          "name": "_amount",
          "type": "uint256"
        }
      ],
      "name": "fetch",
      "outputs": [],
      "stateMutability": "nonpayable",
      "type": "function"
    },
    {
      "inputs": [],
      "name": "getElapseAmount",
      "outputs": [
        {
          "internalType": "uint256",
          "name": "",
          "type": "uint256"
        }
      ],
      "stateMutability": "view",
      "type": "function"
    },
    {
      "inputs": [],
      "name": "getElapseAmountFromBlackHole",
      "outputs": [
        {
          "internalType": "uint256",
          "name": "",
          "type": "uint256"
        }
      ],
      "stateMutability": "view",
      "type": "function"
    },
    {
      "inputs": [],
      "name": "getSettleAddresses",
      "outputs": [
        {
          "internalType": "address[]",
          "name": "",
          "type": "address[]"
        }
      ],
      "stateMutability": "view",
      "type": "function"
    },
    {
      "inputs": [
        {
          "internalType": "address",
          "name": "_settle",
          "type": "address"
        }
      ],
      "name": "getSettleBuybackInfo",
      "outputs": [
        {
          "internalType": "uint256",
          "name": "_price",
          "type": "uint256"
        },
        {
          "internalType": "uint256",
          "name": "_TokenTotal",
          "type": "uint256"
        },
        {
          "internalType": "uint256",
          "name": "_FCCRemaining",
          "type": "uint256"
        },
        {
          "internalType": "uint256",
          "name": "_roundID",
          "type": "uint256"
        },
        {
          "internalType": "uint256",
          "name": "_stageAmount",
          "type": "uint256"
        },
        {
          "internalType": "uint256",
          "name": "_bound",
          "type": "uint256"
        },
        {
          "internalType": "address",
          "name": "_numerator",
          "type": "address"
        },
        {
          "internalType": "address",
          "name": "_denominator",
          "type": "address"
        },
        {
          "internalType": "address",
          "name": "_pool",
          "type": "address"
        }
      ],
      "stateMutability": "view",
      "type": "function"
    },
    {
      "inputs": [],
      "name": "getToken",
      "outputs": [
        {
          "internalType": "contract BEP20",
          "name": "",
          "type": "address"
        }
      ],
      "stateMutability": "view",
      "type": "function"
    },
    {
      "inputs": [
        {
          "internalType": "address",
          "name": "_fcc",
          "type": "address"
        }
      ],
      "name": "initialize",
      "outputs": [],
      "stateMutability": "nonpayable",
      "type": "function"
    },
    {
      "inputs": [],
      "name": "lowerBound",
      "outputs": [
        {
          "internalType": "uint256",
          "name": "",
          "type": "uint256"
        }
      ],
      "stateMutability": "view",
      "type": "function"
    },
    {
      "inputs": [],
      "name": "owner",
      "outputs": [
        {
          "internalType": "address",
          "name": "",
          "type": "address"
        }
      ],
      "stateMutability": "view",
      "type": "function"
    },
    {
      "inputs": [
        {
          "internalType": "address",
          "name": "_settle",
          "type": "address"
        }
      ],
      "name": "removeSettleBuybackInfo",
      "outputs": [],
      "stateMutability": "nonpayable",
      "type": "function"
    },
    {
      "inputs": [],
      "name": "renounceOwnership",
      "outputs": [],
      "stateMutability": "nonpayable",
      "type": "function"
    },
    {
      "inputs": [
        {
          "internalType": "address",
          "name": "_keeper",
          "type": "address"
        }
      ],
      "name": "setKeepers",
      "outputs": [],
      "stateMutability": "nonpayable",
      "type": "function"
    },
    {
      "inputs": [
        {
          "internalType": "address",
          "name": "_received",
          "type": "address"
        }
      ],
      "name": "setReceivedAddress",
      "outputs": [],
      "stateMutability": "nonpayable",
      "type": "function"
    },
    {
      "inputs": [
        {
          "internalType": "address",
          "name": "_settle",
          "type": "address"
        },
        {
          "internalType": "uint256",
          "name": "_currentStageAmount",
          "type": "uint256"
        },
        {
          "internalType": "uint256",
          "name": "_lowerBound",
          "type": "uint256"
        },
        {
          "internalType": "uint256",
          "name": "_remaining",
          "type": "uint256"
        }
      ],
      "name": "setSettleParameters",
      "outputs": [],
      "stateMutability": "nonpayable",
      "type": "function"
    },
    {
      "inputs": [
        {
          "internalType": "enum BuyBack.SwapMode",
          "name": "_mode",
          "type": "uint8"
        }
      ],
      "name": "setSwapMode",
      "outputs": [],
      "stateMutability": "nonpayable",
      "type": "function"
    },
    {
      "inputs": [
        {
          "internalType": "address",
          "name": "_token",
          "type": "address"
        }
      ],
      "name": "setToken",
      "outputs": [],
      "stateMutability": "nonpayable",
      "type": "function"
    },
    {
      "inputs": [
        {
          "internalType": "address",
          "name": "_settle",
          "type": "address"
        },
        {
          "internalType": "uint256",
          "name": "_amount",
          "type": "uint256"
        },
        {
          "internalType": "uint256",
          "name": "_roundID",
          "type": "uint256"
        }
      ],
      "name": "swap",
      "outputs": [],
      "stateMutability": "nonpayable",
      "type": "function"
    },
    {
      "inputs": [],
      "name": "swap4Mode",
      "outputs": [
        {
          "internalType": "enum BuyBack.SwapMode",
          "name": "",
          "type": "uint8"
        }
      ],
      "stateMutability": "view",
      "type": "function"
    },
    {
      "inputs": [
        {
          "internalType": "address",
          "name": "_settle",
          "type": "address"
        },
        {
          "internalType": "uint256",
          "name": "_amount",
          "type": "uint256"
        },
        {
          "internalType": "uint256",
          "name": "_roundID",
          "type": "uint256"
        }
      ],
      "name": "swapByPercent",
      "outputs": [],
      "stateMutability": "nonpayable",
      "type": "function"
    },
    {
      "inputs": [
        {
          "internalType": "address",
          "name": "_settle",
          "type": "address"
        },
        {
          "internalType": "uint256",
          "name": "_amount",
          "type": "uint256"
        },
        {
          "internalType": "uint256",
          "name": "_roundID",
          "type": "uint256"
        },
        {
          "internalType": "uint256",
          "name": "_price",
          "type": "uint256"
        }
      ],
      "name": "swapByPrice",
      "outputs": [],
      "stateMutability": "nonpayable",
      "type": "function"
    },
    {
      "inputs": [
        {
          "internalType": "address",
          "name": "newOwner",
          "type": "address"
        }
      ],
      "name": "transferOwnership",
      "outputs": [],
      "stateMutability": "nonpayable",
      "type": "function"
    },
    {
      "inputs": [
        {
          "internalType": "address",
          "name": "_settle",
          "type": "address"
        },
        {
          "internalType": "address",
          "name": "_numerator",
          "type": "address"
        },
        {
          "internalType": "address",
          "name": "_denominator",
          "type": "address"
        },
        {
          "internalType": "address",
          "name": "_pool",
          "type": "address"
        },
        {
          "internalType": "uint256",
          "name": "_defaultPrice",
          "type": "uint256"
        }
      ],
      "name": "updateBuyBackInfo",
      "outputs": [],
      "stateMutability": "nonpayable",
      "type": "function"
    }
  ],
  "bytecode": "0x6080806040523460155761254f908161001a8239f35b5f80fdfe608080604052600436101561001b575b503461001757005b5f80fd5b5f3560e01c9081630f95273214610f5157508063144fa6d714610eb857806321df0da714610e9257806327c8f83514610e6c5780632aa088e414610e525780632e7fb6fa14610e1e578063356196b414610d2b578063537fb74814610cd757806355a58b4314610cba5780636b4a8c6014610ca3578063715018a614610c0c578063730e374814610b4457806388aa98f314610afe5780638da5cb5b14610ab957806398d3520214610a7c5780639f1d0f5914610a65578063a384d6ff14610a48578063ad8d8d2414610a1f578063ae4f915c146109d7578063ae70710e1461095a578063b389bb0814610904578063c4d66de814610632578063c82a44cb146104f2578063caaddaa6146103d9578063cc317b0b1461022f578063db3cbb4d146101c1578063eff4383b146101865763f2fde38b1461015b575f61000f565b3461001757602060031936011261001757610184610177610f6b565b61017f6123d9565b611e40565b005b34610017575f6003193601126100175760206101b96001600160a01b03600154166001600160a01b036003541690611f9c565b604051908152f35b34610017576020600319360112610017576101206001600160a01b0380806101ef6101ea610f6b565b611c5b565b98979a9590966040959295949394519b8c5260208c015260408b015260608a0152608089015260a08801521660c08601521660e084015216610100820152f35b346100175760a060031936011261001757610248610f6b565b610250610f97565b90610259610fad565b608435906001600160a01b038216820361001757335f52600260205261028560ff60405f20541661101b565b6001600160a01b03831692835f52600760205260405f2054156102a457005b835f526007602052600160405f205560065490680100000000000000008210156103c5576102db8260016102fa9401600655611c2f565b9091906001600160a01b038084549260031b9316831b921b1916179055565b825f52600860205260405f20835f52600760205260405f20545f5260205260405f2093836001600160a01b03198654161785556001600160a01b036001860191166001600160a01b03198254161790556001600160a01b036002850191166001600160a01b03198254161790556001600160a01b036003840191166001600160a01b031982541617905560243560048301555f52600760205260405f20546008820155600954806007830155600982015542600a82015560095460058201556006600a549101555f80f35b634e487b7160e01b5f52604160045260245ffd5b34610017576020600319360112610017576001600160a01b036103fa610f6b565b335f52600260205261041260ff60405f20541661101b565b16805f52600760205260405f205461042657005b6006545f1981019190821161046a57815b816001600160a01b0361044983611c2f565b90549060031b1c161461047e57801561018457801561046a575f1901610437565b634e487b7160e01b5f52601160045260245ffd5b6102db6001600160a01b036104966104a49495611c2f565b90549060031b1c1691611c2f565b5f5260076020525f604081205560065480156104de575f19016104c681611c2f565b6001600160a01b0382549160031b1b19169055600655005b634e487b7160e01b5f52603160045260245ffd5b346100175761050036610fc3565b909291335f52600260205261051b60ff60405f20541661101b565b6127108410156105ee577f107d47bcb4708195f6abfe31a19d9da2630f565a42681a463ef4489f50440948936001600160a01b0360a0941692835f52600760205261056b60405f205415156110fc565b835f52600860205260405f20845f52600760205260405f20545f5260205260405f20836105e3575b826105d8575b816105cd575b5050825f52600760205260405f205491604051933385526020850152604084015260608301526080820152a1005b60090155858061059f565b826006820155610599565b836005820155610593565b606460405162461bcd60e51b815260206004820152600b60248201527f77726f6e6720706172616d0000000000000000000000000000000000000000006044820152fd5b346100175760206003193601126100175761064b610f6b565b7ff0c57e16840df040f15088dc2f81fe391c3923bec73e23a9662efc9c229c6a005460ff8160401c16159167ffffffffffffffff8216801590816108fc575b60011490816108f2575b1590816108e9575b506108c157818360017fffffffffffffffffffffffffffffffffffffffffffffffff00000000000000006001600160a01b039516177ff0c57e16840df040f15088dc2f81fe391c3923bec73e23a9662efc9c229c6a005561086c575b506107016124c2565b6107096124c2565b61071233611e40565b166001600160a01b03196001541617600155600260ff196005541617600555335f52600260205260405f20600160ff19825416179055670de0b6b3a76400005f5561dead6001600160a01b031960035416176003555f6004557fffffffffffffffffffffff0000000000000000000000000000000000000000ff6005541660055569152d02c7e14af6800000600955611388600a556001600160a01b0319600b5416600b556001600160a01b0319600c5416600c55670de0b6b3a7640000600d556107d957005b7fffffffffffffffffffffffffffffffffffffffffffffff00ffffffffffffffff7ff0c57e16840df040f15088dc2f81fe391c3923bec73e23a9662efc9c229c6a0054167ff0c57e16840df040f15088dc2f81fe391c3923bec73e23a9662efc9c229c6a00557fc7f505b2f371ae2175ee4913f4499e1f2633a7b5936321eed1cdaeb6115181d2602060405160018152a1005b7fffffffffffffffffffffffffffffffffffffffffffffff0000000000000000001668010000000000000001177ff0c57e16840df040f15088dc2f81fe391c3923bec73e23a9662efc9c229c6a0055836106f8565b7ff92ee8a9000000000000000000000000000000000000000000000000000000005f5260045ffd5b9050158461069c565b303b159150610694565b84915061068a565b346100175760a060031936011261001757610184610920610f6b565b610928610f81565b610930610f97565b610938610fad565b91335f52600260205261095160ff60405f20541661101b565b60843593611b49565b3461001757606060031936011261001757610973610f6b565b61097b610f81565b60443590335f52600260205261099760ff60405f20541661101b565b6001600160a01b0383165f52600760205260405f20541515806109c4575b6109bb57005b610184926120df565b50816109d03085611f9c565b10156109b5565b3461001757602060031936011261001757600435600381101561001757335f526002602052610a0c60ff60405f20541661101b565b60ff60ff19600554169116176005555f80f35b34610017575f6003193601126100175760206001600160a01b0360055460081c16604051908152f35b34610017575f600319360112610017576020600a54604051908152f35b3461001757610184610a7636610ff1565b916118ef565b34610017575f6003193601126100175760ff600554166040516003821015610aa5576020918152f35b634e487b7160e01b5f52602160045260245ffd5b34610017575f6003193601126100175760206001600160a01b037f9016d09d72d40fdae2fd8ceac6b6234c7706214fd39c1cd1e609a0528c1993005416604051908152f35b3461001757604060031936011261001757610b17610f6b565b60243580151581036100175761018491335f526002602052610b3f60ff60405f20541661101b565b611887565b34610017575f600319360112610017576040518060206006549283815201809260065f527ff652222313e28459528d920b65115c16c04f3efc82aaedc97be59f3f377c0d3f905f5b818110610bed5750505081610ba2910382611259565b604051918291602083019060208452518091526040830191905f5b818110610bcb575050500390f35b82516001600160a01b0316845285945060209384019390920191600101610bbd565b82546001600160a01b0316845260209093019260019283019201610b8c565b34610017575f60031936011261001757610c246123d9565b5f6001600160a01b037f9016d09d72d40fdae2fd8ceac6b6234c7706214fd39c1cd1e609a0528c199300546001600160a01b031981167f9016d09d72d40fdae2fd8ceac6b6234c7706214fd39c1cd1e609a0528c19930055167f8be0079c531659141344cd1fd0a4f28419497f9722a3daafe3b4186f6b6457e08280a3005b3461001757610184610cb436610ff1565b91611525565b34610017575f600319360112610017576020600454604051908152f35b34610017576020600319360112610017576001600160a01b03610cf8610f6b565b335f526002602052610d1060ff60405f20541661101b565b165f52600260205260405f20600160ff198254161790555f80f35b3461001757602060031936011261001757610d44610f6b565b335f526002602052610d5c60ff60405f20541661101b565b6001600160a01b03811615610db4577fffffffffffffffffffffff0000000000000000000000000000000000000000ff74ffffffffffffffffffffffffffffffffffffffff006005549260081b169116176005555f80f35b608460405162461bcd60e51b815260206004820152602160248201527f706c6174666f726d2072656365697665642061646472657373206973207a657260448201527f6f000000000000000000000000000000000000000000000000000000000000006064820152fd5b34610017575f6003193601126100175760206101b9600454610e4c6001600160a01b03600154163090611f9c565b906112a1565b3461001757610184610e6336610fc3565b929190916112ae565b34610017575f6003193601126100175760206001600160a01b0360035416604051908152f35b34610017575f6003193601126100175760206001600160a01b0360015416604051908152f35b34610017576020600319360112610017576001600160a01b03610ed9610f6b565b335f526002602052610ef160ff60405f20541661101b565b168015610f0d576001600160a01b031960015416176001555f80f35b606460405162461bcd60e51b815260206004820152601660248201527f706c6174666f726d20746f6b656e206973207a65726f000000000000000000006044820152fd5b34610017575f600319360112610017576020906009548152f35b600435906001600160a01b038216820361001757565b602435906001600160a01b038216820361001757565b604435906001600160a01b038216820361001757565b606435906001600160a01b038216820361001757565b6003196080910112610017576004356001600160a01b03811681036100175790602435906044359060643590565b6003196060910112610017576004356001600160a01b038116810361001757906024359060443590565b1561102257565b606460405162461bcd60e51b815260206004820152601d60248201527f63616c6c6572206973206e6f7420627579206261636b206b65657065720000006044820152fd5b1561106d57565b606460405162461bcd60e51b815260206004820152600e60248201527f616d6f756e74206973207a65726f0000000000000000000000000000000000006044820152fd5b156110b857565b606460405162461bcd60e51b815260206004820152601260248201527f446f206e6f7420616c6c6f7720737761702e00000000000000000000000000006044820152fd5b1561110357565b606460405162461bcd60e51b815260206004820152601160248201527f736574746c65206e6f742065786973742e0000000000000000000000000000006044820152fd5b1561114e57565b606460405162461bcd60e51b815260206004820152601060248201527f6d69736d61746368656420726f756e64000000000000000000000000000000006044820152fd5b1561119957565b606460405162461bcd60e51b815260206004820152601960248201527f706c6174666f726d20746f6b656e206e6f7420656e6f756768000000000000006044820152fd5b8181029291811591840414171561046a57565b81156111fa570490565b634e487b7160e01b5f52601260045260245ffd5b1561121557565b606460405162461bcd60e51b815260206004820152600c60248201527f64697361626c65207377617000000000000000000000000000000000000000006044820152fd5b90601f601f19910116810190811067ffffffffffffffff8211176103c557604052565b90816020910312610017575180151581036100175790565b9190820391821161046a57565b9190820180921161046a57565b91926112bb821515611066565b60ff600554166003811015610aa55760026112d691146110b1565b6112df33611efb565b61151f576001600160a01b03600154166001600160a01b0384169081146115125761140994815f52600760205261131b60405f205415156110fc565b815f52600760205261133260405f20548214611147565b815f52600860205260405f20815f52602052600960405f200154916113638561135b3089611f9c565b941015611192565b5f54926113798561137486896111dd565b6111f0565b938185116114f7575b50505f52600860205260405f20905f5260205260405f20916113ab60ff600b850154161561120e565b6001546003546040517f23b872dd0000000000000000000000000000000000000000000000000000000081523360048201526001600160a01b03918216602482015260448101879052976020928992169082905f9082906064820190565b03925af19586156114ec57856114b29461147b927f143ba53b3b18227b2fd6f49d25fd66d40e5b69b44dede9826200a8ca379923e3996114bf575b506114508533846120df565b6009810161145f888254611294565b905561146d876004546112a1565b60045542600a820155612209565b6040519485943386916080936001600160a01b039197969592978260a0860199168552602085015216604083015260608201520152565b0390a16114bd611f31565b565b6114e09060203d6020116114e5575b6114d88183611259565b81019061127c565b611444565b503d6114ce565b6040513d5f823e3d90fd5b90935061150a91955061137485856111dd565b935f80611382565b50505050506114bd611f31565b50505050565b611530821515611066565b60ff600554166003811015610aa557600161154b91146110b1565b61155433611efb565b611882576001600160a01b03600154166001600160a01b03821690811461187657805f52600760205261158c60405f205415156110fc565b805f5260076020526115a360405f20548514611147565b805f52600860205260405f20845f52602052600960405f200154936115ca84861015611192565b815f52600860205260405f20905f5260205261160860405f20946115f560ff600b880154161561120e565b611374856116033087611f9c565b6111dd565b916001600160a01b0360055460081c168015611832576001600160a01b03600154169060405163313ce56760e01b8152602081600481865afa9081156114ec5761166360ff61167193611669935f91611803575b5016611f8e565b886111dd565b5f54906111f0565b806116d8575b505050907f143ba53b3b18227b2fd6f49d25fd66d40e5b69b44dede9826200a8ca379923e3946116ad8460a096959433906120df565b600a4291015560405192338452602084015260408301525f60608301526080820152a16114bd611f31565b915f9291838093819998979699506117b17fffffffff00000000000000000000000000000000000000000000000000000000602560405161171a606082611259565b8181527f7432353629000000000000000000000000000000000000000000000000000000604060208301927f7472616e7366657246726f6d28616464726573732c616464726573732c75696e845201522016936117a36040519384926020840197885233602485016001600160a01b036040929594938160608401971683521660208201520152565b03601f198101835282611259565b51925af16117bd6120a0565b816117d4575b5015610017579091925f8080611677565b80518015925082156117e9575b50505f6117c3565b6117fc925060208091830101910161127c565b5f806117e1565b611825915060203d60201161182b575b61181d8183611259565b810190611f75565b5f61165c565b503d611813565b606460405162461bcd60e51b815260206004820152601860248201527f72656365697665642061646472657373206973207a65726f00000000000000006044820152fd5b505050506114bd611f31565b505050565b6001600160a01b03806001541691169081146118eb57805f5260076020526118b460405f205415156110fc565b805f52600860205260405f20905f52600760205260405f20545f52602052600b60405f20019060ff60ff1983541691151516179055565b5050565b906118fb811515611066565b60ff600554166003811015610aa557600261191691146110b1565b61191f33611efb565b611882576001600160a01b0360015416926001600160a01b03831693841461187657835f52600760205261195860405f205415156110fc565b835f52600760205261196f60405f20548214611147565b835f52600860205260405f20815f52602052600960405f2001549361199683861015611192565b5f52600860205260405f20905f5260205260405f20926119bd60ff600b860154161561120e565b6119c73084611f9c565b611a0e611a036001600160a01b036001880154166001600160a01b036002890154166001600160a01b0360038a0154169060048a015492612438565b9261137483856111dd565b918015611b0557611a2681611374611a9595876111dd565b916020856001600160a01b03600154166001600160a01b03600354165f6040518099819582947f23b872dd00000000000000000000000000000000000000000000000000000000845233600485016001600160a01b036040929594938160608401971683521660208201520152565b03925af19081156114ec577f143ba53b3b18227b2fd6f49d25fd66d40e5b69b44dede9826200a8ca379923e397611add8589936114b29861147b96611ae8575b501015611192565b6114508533846120df565b611b009060203d6020116114e5576114d88183611259565b611ad5565b606460405162461bcd60e51b815260206004820152600d60248201527f7072696365206973207a65726f000000000000000000000000000000000000006044820152fd5b9290916001600160a01b0380600154169416938414611bfa57836004945f526007602052611b7c60405f205415156110fc565b805f52600860205260405f20905f52600760205260405f20545f5260205260405f20926001600160a01b036001850191166001600160a01b03198254161790556001600160a01b036002840191166001600160a01b03198254161790556001600160a01b036003830191166001600160a01b03198254161790550155565b506001600160a01b03925082166001600160a01b0319600b541617600b55166001600160a01b0319600c541617600c55600d55565b600654811015611c475760065f5260205f2001905f90565b634e487b7160e01b5f52603260045260245ffd5b6001600160a01b03600154166001600160a01b03821690808214611e065750805f526007602052611c9160405f205415156110fc565b805f52600860205260405f20905f52600760205260405f20545f5260205260405f2060405192610180840184811067ffffffffffffffff8211176103c55760405281546001600160a01b0316845260018201546001600160a01b0316926020850193845260028301546001600160a01b0316936040860194855260038401546001600160a01b031694606087019586526004850154956080880196875260058601549460a0890195865260068701549460c08a01958652600788015460e08b015260088801549961010081019a8b526009890154986101208201998a52600a810154610140830152600b015460ff16151590610160015230611d9291611f9c565b9788975197889186516001600160a01b03169086516001600160a01b03169086516001600160a01b0316905191611dc893612438565b90611dd2916111dd565b90611ddc916111f0565b98519551945193516001600160a01b031692516001600160a01b031691516001600160a01b031690565b9150506001600160a01b03600c5416906001600160a01b03600b5416611e30600d54828486612438565b935f935f935f935f935f93929190565b6001600160a01b03168015611ecf576001600160a01b037f9016d09d72d40fdae2fd8ceac6b6234c7706214fd39c1cd1e609a0528c19930054826001600160a01b03198216177f9016d09d72d40fdae2fd8ceac6b6234c7706214fd39c1cd1e609a0528c19930055167f8be0079c531659141344cd1fd0a4f28419497f9722a3daafe3b4186f6b6457e05f80a3565b7f1e4fbdf7000000000000000000000000000000000000000000000000000000005f525f60045260245ffd5b3f8015159081611f09575090565b7fc5d2460186f7233c927e7db2dcc703c0e500b653ca82273b7bfad8045d85a4709150141590565b6001600160a01b0360015416611f473082611f9c565b80611f50575050565b6114bd91611f60826004546112a1565b6004556001600160a01b0360035416906120df565b90816020910312610017575160ff811681036100175790565b604d811161046a57600a0a90565b6001600160a01b03166001600160a01b03604051927f70a08231000000000000000000000000000000000000000000000000000000008452166004830152602082602481845afa9182156114ec575f9261206b575b509060206004926040519384809263313ce56760e01b82525afa9081156114ec5761203c925f9261203f575b5060ff61202f612036925f54906111dd565b9216611f8e565b906111f0565b90565b61203691925061202f61206260ff9260203d60201161182b5761181d8183611259565b9392505061201d565b91506020823d602011612098575b8161208660209383611259565b81010312610017579051906020611ff1565b3d9150612079565b3d156120da573d9067ffffffffffffffff82116103c557604051916120cf601f8201601f191660200184611259565b82523d5f602084013e565b606090565b9160405163313ce56760e01b81526020816004816001600160a01b0388165afa9182156114ec5761212060ff61212694611669945f91611803575016611f8e565b906111dd565b918261213157505050565b5f928380937fffffffff0000000000000000000000000000000000000000000000000000000060196020604051612169604082611259565b828152017f7472616e7366657228616464726573732c75696e74323536290000000000000081522016926001600160a01b0360405192602084019586521660248301526044820152604481526121c0606482611259565b51925af16121cc6120a0565b816121da575b501561001757565b80518015925082156121ef575b50505f6121d2565b612202925060208091830101910161127c565b5f806121e7565b60098101805491612710830292808404612710149015171561046a5761223560058201938454906111f0565b9360068201948554101561224b575b5050505050565b6001600160a01b031690815f52600760205260405f20546001810180911161046a577ff5d2d72d9b25d6853afd7d0554a113b705234b6a68bb36b7f143662994632411956060956123a592855f52600760205260405f2055845f52600860205260405f20855f52600760205260405f20545f52602052600460405f20946001600160a01b0380825416166001600160a01b03198754161786556001600160a01b036001820154166001600160a01b036001880191166001600160a01b03198254161790556001600160a01b036002820154166001600160a01b036002880191166001600160a01b03198254161790556001600160a01b036003820154166001600160a01b036003880191166001600160a01b031982541617905501546004850155845f52600760205260405f2054600885015554908160058501555460068401556123978554826112a1565b9485600785015554906112a1565b6009820155600a429101555f52600760205260405f2054906040519182526020820152426040820152a15f80808080612244565b6001600160a01b037f9016d09d72d40fdae2fd8ceac6b6234c7706214fd39c1cd1e609a0528c1993005416330361240c57565b7f118cdaa7000000000000000000000000000000000000000000000000000000005f523360045260245ffd5b90919392936001600160a01b0382161515806124b0575b8061249e575b61245e57505050565b61246b8161247193611f9c565b92611f9c565b9080151580612495575b612483575050565b61203c929350611374905f54906111dd565b5081151561247b565b506001600160a01b0381161515612455565b506001600160a01b038316151561244f565b60ff7ff0c57e16840df040f15088dc2f81fe391c3923bec73e23a9662efc9c229c6a005460401c16156124f157565b7fd7e6bcf8000000000000000000000000000000000000000000000000000000005f5260045ffdfea2646970667358221220b79eb6e1674267336064a16e92d90f24b303d8cb8b7c3097bd82f280379514bb64736f6c634300081c0033",
  "linkReferences": {},
  "deployedLinkReferences": {}
}