{
  "_format": "hh-sol-artifact-1",
  "contractName": "BuyBack",
  "sourceName": "contracts/BuyBack.sol",
  "abi": [
    {
      "inputs": [],
      "name": "InvalidInitialization",
      "type": "error"
    },
    {
      "inputs": [],
      "name": "NotInitializing",
      "type": "error"
    },
    {
      "inputs": [
        {
          "internalType": "address",
          "name": "owner",
          "type": "address"
        }
      ],
      "name": "OwnableInvalidOwner",
      "type": "error"
    },
    {
      "inputs": [
        {
          "internalType": "address",
          "name": "account",
          "type": "address"
        }
      ],
      "name": "OwnableUnauthorizedAccount",
      "type": "error"
    },
    {
      "anonymous": false,
      "inputs": [
        {
          "indexed": false,
          "internalType": "address",
          "name": "user",
          "type": "address"
        },
        {
          "indexed": false,
          "internalType": "uint256",
          "name": "fccAmount",
          "type": "uint256"
        },
        {
          "indexed": false,
          "internalType": "address",
          "name": "token",
          "type": "address"
        },
        {
          "indexed": false,
          "internalType": "uint256",
          "name": "swapPrice",
          "type": "uint256"
        },
        {
          "indexed": false,
          "internalType": "uint256",
          "name": "swapAmount",
          "type": "uint256"
        }
      ],
      "name": "BuyBackAmount",
      "type": "event"
    },
    {
      "anonymous": false,
      "inputs": [
        {
          "indexed": false,
          "internalType": "uint64",
          "name": "version",
          "type": "uint64"
        }
      ],
      "name": "Initialized",
      "type": "event"
    },
    {
      "anonymous": false,
      "inputs": [
        {
          "indexed": true,
          "internalType": "address",
          "name": "previousOwner",
          "type": "address"
        },
        {
          "indexed": true,
          "internalType": "address",
          "name": "newOwner",
          "type": "address"
        }
      ],
      "name": "OwnershipTransferred",
      "type": "event"
    },
    {
      "anonymous": false,
      "inputs": [
        {
          "indexed": false,
          "internalType": "address",
          "name": "owner",
          "type": "address"
        },
        {
          "indexed": false,
          "internalType": "address",
          "name": "settle",
          "type": "address"
        },
        {
          "indexed": false,
          "internalType": "uint256",
          "name": "currentStageAmount",
          "type": "uint256"
        },
        {
          "indexed": false,
          "internalType": "uint256",
          "name": "lowerbound",
          "type": "uint256"
        },
        {
          "indexed": false,
          "internalType": "uint256",
          "name": "roundID",
          "type": "uint256"
        }
      ],
      "name": "SetRewardAmount",
      "type": "event"
    },
    {
      "anonymous": false,
      "inputs": [
        {
          "indexed": false,
          "internalType": "uint256",
          "name": "id",
          "type": "uint256"
        },
        {
          "indexed": false,
          "internalType": "uint256",
          "name": "amount",
          "type": "uint256"
        },
        {
          "indexed": false,
          "internalType": "uint256",
          "name": "timestamp",
          "type": "uint256"
        }
      ],
      "name": "UpdatePool",
      "type": "event"
    },
    {
      "stateMutability": "nonpayable",
      "type": "fallback"
    },
    {
      "inputs": [],
      "name": "FCCReceivedAddr",
      "outputs": [
        {
          "internalType": "address",
          "name": "",
          "type": "address"
        }
      ],
      "stateMutability": "view",
      "type": "function"
    },
    {
      "inputs": [
        {
          "internalType": "address",
          "name": "_settle",
          "type": "address"
        },
        {
          "internalType": "uint256",
          "name": "_defaultPrice",
          "type": "uint256"
        },
        {
          "internalType": "address",
          "name": "_numerator",
          "type": "address"
        },
        {
          "internalType": "address",
          "name": "_denominator",
          "type": "address"
        },
        {
          "internalType": "address",
          "name": "_pool",
          "type": "address"
        }
      ],
      "name": "addSettleBuybackInfo",
      "outputs": [],
      "stateMutability": "nonpayable",
      "type": "function"
    },
    {
      "inputs": [],
      "name": "currentStageAmount",
      "outputs": [
        {
          "internalType": "uint256",
          "name": "",
          "type": "uint256"
        }
      ],
      "stateMutability": "view",
      "type": "function"
    },
    {
      "inputs": [],
      "name": "deadAddress",
      "outputs": [
        {
          "internalType": "address",
          "name": "",
          "type": "address"
        }
      ],
      "stateMutability": "view",
      "type": "function"
    },
    {
      "inputs": [
        {
          "internalType": "address",
          "name": "_settle",
          "type": "address"
        },
        {
          "internalType": "bool",
          "name": "_disable",
          "type": "bool"
        }
      ],
      "name": "disableBuyBackInfo",
      "outputs": [],
      "stateMutability": "nonpayable",
      "type": "function"
    },
    {
      "inputs": [],
      "name": "elapseAmount",
      "outputs": [
        {
          "internalType": "uint256",
          "name": "",
          "type": "uint256"
        }
      ],
      "stateMutability": "view",
      "type": "function"
    },
    {
      "inputs": [
        {
          "internalType": "address",
          "name": "_settle",
          "type": "address"
        },
        {
          "internalType": "address",
          "name": "to",
          "type": "address"
        },
        {
          "internalType": "uint256",
          "name": "_amount",
          "type": "uint256"
        }
      ],
      "name": "fetch",
      "outputs": [],
      "stateMutability": "nonpayable",
      "type": "function"
    },
    {
      "inputs": [],
      "name": "getElapseAmount",
      "outputs": [
        {
          "internalType": "uint256",
          "name": "",
          "type": "uint256"
        }
      ],
      "stateMutability": "view",
      "type": "function"
    },
    {
      "inputs": [],
      "name": "getElapseAmountFromBlackHole",
      "outputs": [
        {
          "internalType": "uint256",
          "name": "",
          "type": "uint256"
        }
      ],
      "stateMutability": "view",
      "type": "function"
    },
    {
      "inputs": [],
      "name": "getSettleAddresses",
      "outputs": [
        {
          "internalType": "address[]",
          "name": "",
          "type": "address[]"
        }
      ],
      "stateMutability": "view",
      "type": "function"
    },
    {
      "inputs": [
        {
          "internalType": "address",
          "name": "_settle",
          "type": "address"
        }
      ],
      "name": "getSettleBuybackInfo",
      "outputs": [
        {
          "internalType": "uint256",
          "name": "_price",
          "type": "uint256"
        },
        {
          "internalType": "uint256",
          "name": "_TokenTotal",
          "type": "uint256"
        },
        {
          "internalType": "uint256",
          "name": "_FCCRemaining",
          "type": "uint256"
        },
        {
          "internalType": "uint256",
          "name": "_roundID",
          "type": "uint256"
        },
        {
          "internalType": "uint256",
          "name": "_stageAmount",
          "type": "uint256"
        },
        {
          "internalType": "uint256",
          "name": "_bound",
          "type": "uint256"
        },
        {
          "internalType": "address",
          "name": "_numerator",
          "type": "address"
        },
        {
          "internalType": "address",
          "name": "_denominator",
          "type": "address"
        },
        {
          "internalType": "address",
          "name": "_pool",
          "type": "address"
        }
      ],
      "stateMutability": "view",
      "type": "function"
    },
    {
      "inputs": [],
      "name": "getToken",
      "outputs": [
        {
          "internalType": "contract BEP20",
          "name": "",
          "type": "address"
        }
      ],
      "stateMutability": "view",
      "type": "function"
    },
    {
      "inputs": [
        {
          "internalType": "address",
          "name": "_fcc",
          "type": "address"
        }
      ],
      "name": "initialize",
      "outputs": [],
      "stateMutability": "nonpayable",
      "type": "function"
    },
    {
      "inputs": [],
      "name": "lowerBound",
      "outputs": [
        {
          "internalType": "uint256",
          "name": "",
          "type": "uint256"
        }
      ],
      "stateMutability": "view",
      "type": "function"
    },
    {
      "inputs": [],
      "name": "owner",
      "outputs": [
        {
          "internalType": "address",
          "name": "",
          "type": "address"
        }
      ],
      "stateMutability": "view",
      "type": "function"
    },
    {
      "inputs": [
        {
          "internalType": "address",
          "name": "_settle",
          "type": "address"
        }
      ],
      "name": "removeSettleBuybackInfo",
      "outputs": [],
      "stateMutability": "nonpayable",
      "type": "function"
    },
    {
      "inputs": [],
      "name": "renounceOwnership",
      "outputs": [],
      "stateMutability": "nonpayable",
      "type": "function"
    },
    {
      "inputs": [
        {
          "internalType": "address",
          "name": "_keeper",
          "type": "address"
        }
      ],
      "name": "setKeepers",
      "outputs": [],
      "stateMutability": "nonpayable",
      "type": "function"
    },
    {
      "inputs": [
        {
          "internalType": "address",
          "name": "_received",
          "type": "address"
        }
      ],
      "name": "setReceivedAddress",
      "outputs": [],
      "stateMutability": "nonpayable",
      "type": "function"
    },
    {
      "inputs": [
        {
          "internalType": "address",
          "name": "_settle",
          "type": "address"
        },
        {
          "internalType": "uint256",
          "name": "_currentStageAmount",
          "type": "uint256"
        },
        {
          "internalType": "uint256",
          "name": "_lowerBound",
          "type": "uint256"
        },
        {
          "internalType": "uint256",
          "name": "_remaining",
          "type": "uint256"
        }
      ],
      "name": "setSettleParameters",
      "outputs": [],
      "stateMutability": "nonpayable",
      "type": "function"
    },
    {
      "inputs": [
        {
          "internalType": "enum BuyBack.SwapMode",
          "name": "_mode",
          "type": "uint8"
        }
      ],
      "name": "setSwapMode",
      "outputs": [],
      "stateMutability": "nonpayable",
      "type": "function"
    },
    {
      "inputs": [
        {
          "internalType": "address",
          "name": "_token",
          "type": "address"
        }
      ],
      "name": "setToken",
      "outputs": [],
      "stateMutability": "nonpayable",
      "type": "function"
    },
    {
      "inputs": [
        {
          "internalType": "address",
          "name": "_settle",
          "type": "address"
        },
        {
          "internalType": "uint256",
          "name": "_amount",
          "type": "uint256"
        },
        {
          "internalType": "uint256",
          "name": "_roundID",
          "type": "uint256"
        }
      ],
      "name": "swap",
      "outputs": [],
      "stateMutability": "nonpayable",
      "type": "function"
    },
    {
      "inputs": [],
      "name": "swap4Mode",
      "outputs": [
        {
          "internalType": "enum BuyBack.SwapMode",
          "name": "",
          "type": "uint8"
        }
      ],
      "stateMutability": "view",
      "type": "function"
    },
    {
      "inputs": [
        {
          "internalType": "address",
          "name": "_settle",
          "type": "address"
        },
        {
          "internalType": "uint256",
          "name": "_amount",
          "type": "uint256"
        },
        {
          "internalType": "uint256",
          "name": "_roundID",
          "type": "uint256"
        }
      ],
      "name": "swapByPercent",
      "outputs": [],
      "stateMutability": "nonpayable",
      "type": "function"
    },
    {
      "inputs": [
        {
          "internalType": "address",
          "name": "_settle",
          "type": "address"
        },
        {
          "internalType": "uint256",
          "name": "_amount",
          "type": "uint256"
        },
        {
          "internalType": "uint256",
          "name": "_roundID",
          "type": "uint256"
        },
        {
          "internalType": "uint256",
          "name": "_price",
          "type": "uint256"
        }
      ],
      "name": "swapByPrice",
      "outputs": [],
      "stateMutability": "nonpayable",
      "type": "function"
    },
    {
      "inputs": [
        {
          "internalType": "address",
          "name": "newOwner",
          "type": "address"
        }
      ],
      "name": "transferOwnership",
      "outputs": [],
      "stateMutability": "nonpayable",
      "type": "function"
    },
    {
      "inputs": [
        {
          "internalType": "address",
          "name": "_settle",
          "type": "address"
        },
        {
          "internalType": "address",
          "name": "_numerator",
          "type": "address"
        },
        {
          "internalType": "address",
          "name": "_denominator",
          "type": "address"
        },
        {
          "internalType": "address",
          "name": "_pool",
          "type": "address"
        },
        {
          "internalType": "uint256",
          "name": "_defaultPrice",
          "type": "uint256"
        }
      ],
      "name": "updateBuyBackInfo",
      "outputs": [],
      "stateMutability": "nonpayable",
      "type": "function"
    }
  ],
  "bytecode": "0x60808060405234601557612615908161001b8239f35b600080fdfe608080604052600436101561001c575b503461001757005b600080fd5b60003560e01c9081630f95273214610faa57508063144fa6d714610f0e57806321df0da714610ee757806327c8f83514610ec05780632aa088e414610ea65780632e7fb6fa14610e71578063356196b414610d7b578063537fb74814610d2257806355a58b4314610d045780636b4a8c6014610ced578063715018a614610c54578063730e374814610b8857806388aa98f314610b405780638da5cb5b14610afa57806398d3520214610aba5780639f1d0f5914610aa3578063a384d6ff14610a85578063ad8d8d2414610a5b578063ae4f915c14610a10578063ae70710e1461098f578063b389bb0814610937578063c4d66de81461065f578063c82a44cb14610513578063caaddaa6146103ed578063cc317b0b14610232578063db3cbb4d146101c4578063eff4383b146101885763f2fde38b1461015d573861000f565b3461001757602060031936011261001757610186610179610fc5565b61018161249a565b611eea565b005b346100175760006003193601126100175760206101bc6001600160a01b03600154166001600160a01b03600354169061204a565b604051908152f35b34610017576020600319360112610017576101206001600160a01b0380806101f26101ed610fc5565b611cf8565b98979a9590966040959295949394519b8c5260208c015260408b015260608a0152608089015260a08801521660c08601521660e084015216610100820152f35b346100175760a06003193601126100175761024b610fc5565b610253610ff1565b9061025c611007565b608435906001600160a01b03821682036100175733600052600260205261028a60ff60406000205416611075565b6001600160a01b03831692836000526007602052604060002054156102ab57005b836000526007602052600160406000205560065490680100000000000000008210156103d7576102e48260016103039401600655611cc7565b9091906001600160a01b038084549260031b9316831b921b1916179055565b8260005260086020526040600020836000526007602052604060002054600052602052604060002093836001600160a01b03198654161785556001600160a01b036001860191166001600160a01b03198254161790556001600160a01b036002850191166001600160a01b03198254161790556001600160a01b036003840191166001600160a01b0319825416179055602435600483015560005260076020526040600020546008820155600954806007830155600982015542600a82015560095460058201556006600a54910155600080f35b634e487b7160e01b600052604160045260246000fd5b34610017576020600319360112610017576001600160a01b0361040e610fc5565b33600052600260205261042860ff60406000205416611075565b1680600052600760205260406000205461043e57005b60065490600019820191821161048457815b816001600160a01b0361046283611cc7565b90549060031b1c161461049a5780156101865780156104845760001901610450565b634e487b7160e01b600052601160045260246000fd5b6102e46001600160a01b036104b26104c09495611cc7565b90549060031b1c1691611cc7565b60005260076020526000604081205560065480156104fd57600019016104e581611cc7565b6001600160a01b0382549160031b1b19169055600655005b634e487b7160e01b600052603160045260246000fd5b34610017576105213661101d565b90929133600052600260205261053e60ff60406000205416611075565b61271084101561061b577f107d47bcb4708195f6abfe31a19d9da2630f565a42681a463ef4489f50440948936001600160a01b0360a09416928360005260076020526105906040600020541515611156565b8360005260086020526040600020846000526007602052604060002054600052602052604060002083610610575b82610605575b816105fa575b505082600052600760205260406000205491604051933385526020850152604084015260608301526080820152a1005b6009015585806105ca565b8260068201556105c4565b8360058201556105be565b606460405162461bcd60e51b815260206004820152600b60248201527f77726f6e6720706172616d0000000000000000000000000000000000000000006044820152fd5b3461001757602060031936011261001757610678610fc5565b7ff0c57e16840df040f15088dc2f81fe391c3923bec73e23a9662efc9c229c6a005460ff8160401c16159167ffffffffffffffff82168015908161092f575b6001149081610925575b15908161091c575b506108f257818360017fffffffffffffffffffffffffffffffffffffffffffffffff00000000000000006001600160a01b039516177ff0c57e16840df040f15088dc2f81fe391c3923bec73e23a9662efc9c229c6a005561089d575b5061072e612586565b610736612586565b61073f33611eea565b166001600160a01b03196001541617600155600260ff1960055416176005553360005260026020526040600020600160ff19825416179055670de0b6b3a764000060005561dead6001600160a01b0319600354161760035560006004557fffffffffffffffffffffff0000000000000000000000000000000000000000ff6005541660055569152d02c7e14af6800000600955611388600a556001600160a01b0319600b5416600b556001600160a01b0319600c5416600c55670de0b6b3a7640000600d5561080a57005b7fffffffffffffffffffffffffffffffffffffffffffffff00ffffffffffffffff7ff0c57e16840df040f15088dc2f81fe391c3923bec73e23a9662efc9c229c6a0054167ff0c57e16840df040f15088dc2f81fe391c3923bec73e23a9662efc9c229c6a00557fc7f505b2f371ae2175ee4913f4499e1f2633a7b5936321eed1cdaeb6115181d2602060405160018152a1005b7fffffffffffffffffffffffffffffffffffffffffffffff0000000000000000001668010000000000000001177ff0c57e16840df040f15088dc2f81fe391c3923bec73e23a9662efc9c229c6a005583610725565b7ff92ee8a90000000000000000000000000000000000000000000000000000000060005260046000fd5b905015846106c9565b303b1591506106c1565b8491506106b7565b346100175760a060031936011261001757610186610953610fc5565b61095b610fdb565b610963610ff1565b61096b611007565b9133600052600260205261098660ff60406000205416611075565b60843593611bd9565b34610017576060600319360112610017576109a8610fc5565b6109b0610fdb565b604435903360005260026020526109ce60ff60406000205416611075565b6001600160a01b03831660005260076020526040600020541515806109fd575b6109f457005b61018692612191565b5081610a09308561204a565b10156109ee565b3461001757602060031936011261001757600435600381101561001757336000526002602052610a4760ff60406000205416611075565b60ff60ff1960055416911617600555600080f35b346100175760006003193601126100175760206001600160a01b0360055460081c16604051908152f35b34610017576000600319360112610017576020600a54604051908152f35b3461001757610186610ab43661104b565b91611972565b346100175760006003193601126100175760ff600554166040516003821015610ae4576020918152f35b634e487b7160e01b600052602160045260246000fd5b346100175760006003193601126100175760206001600160a01b037f9016d09d72d40fdae2fd8ceac6b6234c7706214fd39c1cd1e609a0528c1993005416604051908152f35b3461001757604060031936011261001757610b59610fc5565b60243580151581036100175761018691336000526002602052610b8360ff60406000205416611075565b611902565b34610017576000600319360112610017576040518060206006549283815201809260066000527ff652222313e28459528d920b65115c16c04f3efc82aaedc97be59f3f377c0d3f9060005b818110610c355750505081610be99103826112b5565b6040519182916020830190602084525180915260408301919060005b818110610c13575050500390f35b82516001600160a01b0316845285945060209384019390920191600101610c05565b82546001600160a01b0316845260209093019260019283019201610bd3565b3461001757600060031936011261001757610c6d61249a565b60006001600160a01b037f9016d09d72d40fdae2fd8ceac6b6234c7706214fd39c1cd1e609a0528c199300546001600160a01b031981167f9016d09d72d40fdae2fd8ceac6b6234c7706214fd39c1cd1e609a0528c19930055167f8be0079c531659141344cd1fd0a4f28419497f9722a3daafe3b4186f6b6457e08280a3005b3461001757610186610cfe3661104b565b91611590565b34610017576000600319360112610017576020600454604051908152f35b34610017576020600319360112610017576001600160a01b03610d43610fc5565b336000526002602052610d5d60ff60406000205416611075565b1660005260026020526040600020600160ff19825416179055600080f35b3461001757602060031936011261001757610d94610fc5565b336000526002602052610dae60ff60406000205416611075565b6001600160a01b03811615610e07577fffffffffffffffffffffff0000000000000000000000000000000000000000ff74ffffffffffffffffffffffffffffffffffffffff006005549260081b16911617600555600080f35b608460405162461bcd60e51b815260206004820152602160248201527f706c6174666f726d2072656365697665642061646472657373206973207a657260448201527f6f000000000000000000000000000000000000000000000000000000000000006064820152fd5b346100175760006003193601126100175760206101bc600454610ea06001600160a01b0360015416309061204a565b906112fd565b3461001757610186610eb73661101d565b9291909161130a565b346100175760006003193601126100175760206001600160a01b0360035416604051908152f35b346100175760006003193601126100175760206001600160a01b0360015416604051908152f35b34610017576020600319360112610017576001600160a01b03610f2f610fc5565b336000526002602052610f4960ff60406000205416611075565b168015610f66576001600160a01b03196001541617600155600080f35b606460405162461bcd60e51b815260206004820152601660248201527f706c6174666f726d20746f6b656e206973207a65726f000000000000000000006044820152fd5b34610017576000600319360112610017576020906009548152f35b600435906001600160a01b038216820361001757565b602435906001600160a01b038216820361001757565b604435906001600160a01b038216820361001757565b606435906001600160a01b038216820361001757565b6003196080910112610017576004356001600160a01b03811681036100175790602435906044359060643590565b6003196060910112610017576004356001600160a01b038116810361001757906024359060443590565b1561107c57565b606460405162461bcd60e51b815260206004820152601d60248201527f63616c6c6572206973206e6f7420627579206261636b206b65657065720000006044820152fd5b156110c757565b606460405162461bcd60e51b815260206004820152600e60248201527f616d6f756e74206973207a65726f0000000000000000000000000000000000006044820152fd5b1561111257565b606460405162461bcd60e51b815260206004820152601260248201527f446f206e6f7420616c6c6f7720737761702e00000000000000000000000000006044820152fd5b1561115d57565b606460405162461bcd60e51b815260206004820152601160248201527f736574746c65206e6f742065786973742e0000000000000000000000000000006044820152fd5b156111a857565b606460405162461bcd60e51b815260206004820152601060248201527f6d69736d61746368656420726f756e64000000000000000000000000000000006044820152fd5b156111f357565b606460405162461bcd60e51b815260206004820152601960248201527f706c6174666f726d20746f6b656e206e6f7420656e6f756768000000000000006044820152fd5b8181029291811591840414171561048457565b8115611254570490565b634e487b7160e01b600052601260045260246000fd5b1561127157565b606460405162461bcd60e51b815260206004820152600c60248201527f64697361626c65207377617000000000000000000000000000000000000000006044820152fd5b90601f601f19910116810190811067ffffffffffffffff8211176103d757604052565b90816020910312610017575180151581036100175790565b9190820391821161048457565b9190820180921161048457565b91926113178215156110c0565b60ff600554166003811015610ae4576002611332911461110b565b61133b33611fa9565b61158a576001600160a01b03600154166001600160a01b03841690811461157d57611473948160005260076020526113796040600020541515611156565b81600052600760205261139260406000205482146111a1565b816000526008602052604060002081600052602052600960406000200154916113c7856113bf308961204a565b9410156111ec565b600054926113de856113d98689611237565b61124a565b93818511611562575b5050600052600860205260406000209060005260205260406000209161141460ff600b850154161561126a565b6001546003546040517f23b872dd0000000000000000000000000000000000000000000000000000000081523360048201526001600160a01b039182166024820152604481018790529760209289921690829060009082906064820190565b03925af1958615611556578561151c946114e5927f143ba53b3b18227b2fd6f49d25fd66d40e5b69b44dede9826200a8ca379923e399611529575b506114ba853384612191565b600981016114c98882546112f0565b90556114d7876004546112fd565b60045542600a8201556122bc565b6040519485943386916080936001600160a01b039197969592978260a0860199168552602085015216604083015260608201520152565b0390a1611527611fdf565b565b61154a9060203d60201161154f575b61154281836112b5565b8101906112d8565b6114ae565b503d611538565b6040513d6000823e3d90fd5b9093506115759195506113d98585611237565b9338806113e7565b5050505050611527611fdf565b50505050565b61159b8215156110c0565b60ff600554166003811015610ae45760016115b6911461110b565b6115bf33611fa9565b6118fd576001600160a01b03600154166001600160a01b0382169081146118f1578060005260076020526115f96040600020541515611156565b80600052600760205261161260406000205485146111a1565b8060005260086020526040600020846000526020526009604060002001549361163d848610156111ec565b81600052600860205260406000209060005260205261167f60406000209461166c60ff600b880154161561126a565b6113d98561167a308761204a565b611237565b916001600160a01b0360055460081c1680156118ad576001600160a01b03600154169060405163313ce56760e01b8152602081600481865afa908115611556576116db60ff6116ea936116e19360009161187e575b501661203c565b88611237565b6000549061124a565b80611752575b505050907f143ba53b3b18227b2fd6f49d25fd66d40e5b69b44dede9826200a8ca379923e3946117268460a09695943390612191565b600a429101556040519233845260208401526040830152600060608301526080820152a1611527611fdf565b91600092918380938199989796995061182c7fffffffff0000000000000000000000000000000000000000000000000000000060256040516117956060826112b5565b8181527f7432353629000000000000000000000000000000000000000000000000000000604060208301927f7472616e7366657246726f6d28616464726573732c616464726573732c75696e8452015220169361181e6040519384926020840197885233602485016001600160a01b036040929594938160608401971683521660208201520152565b03601f1981018352826112b5565b51925af1611838612151565b8161184f575b5015610017579091923880806116f0565b8051801592508215611864575b50503861183e565b61187792506020809183010191016112d8565b388061185c565b6118a0915060203d6020116118a6575b61189881836112b5565b810190612023565b386116d4565b503d61188e565b606460405162461bcd60e51b815260206004820152601860248201527f72656365697665642061646472657373206973207a65726f00000000000000006044820152fd5b50505050611527611fdf565b505050565b6001600160a01b038060015416911690811461196e578060005260076020526119316040600020541515611156565b8060005260086020526040600020906000526007602052604060002054600052602052600b6040600020019060ff60ff1983541691151516179055565b5050565b9061197e8115156110c0565b60ff600554166003811015610ae4576002611999911461110b565b6119a233611fa9565b6118fd576001600160a01b0360015416926001600160a01b0383169384146118f1578360005260076020526119dd6040600020541515611156565b8360005260076020526119f660406000205482146111a1565b83600052600860205260406000208160005260205260096040600020015493611a21838610156111ec565b6000526008602052604060002090600052602052604060002092611a4c60ff600b860154161561126a565b611a56308461204a565b611a9d611a926001600160a01b036001880154166001600160a01b036002890154166001600160a01b0360038a0154169060048a0154926124fb565b926113d98385611237565b918015611b9557611ab5816113d9611b259587611237565b916020856001600160a01b03600154166001600160a01b036003541660006040518099819582947f23b872dd00000000000000000000000000000000000000000000000000000000845233600485016001600160a01b036040929594938160608401971683521660208201520152565b03925af1908115611556577f143ba53b3b18227b2fd6f49d25fd66d40e5b69b44dede9826200a8ca379923e397611b6d85899361151c986114e596611b78575b5010156111ec565b6114ba853384612191565b611b909060203d60201161154f5761154281836112b5565b611b65565b606460405162461bcd60e51b815260206004820152600d60248201527f7072696365206973207a65726f000000000000000000000000000000000000006044820152fd5b9290916001600160a01b0380600154169416938414611c9257836004946000526007602052611c0e6040600020541515611156565b80600052600860205260406000209060005260076020526040600020546000526020526040600020926001600160a01b036001850191166001600160a01b03198254161790556001600160a01b036002840191166001600160a01b03198254161790556001600160a01b036003830191166001600160a01b03198254161790550155565b506001600160a01b03925082166001600160a01b0319600b541617600b55166001600160a01b0319600c541617600c55600d55565b600654811015611ce257600660005260206000200190600090565b634e487b7160e01b600052603260045260246000fd5b6001600160a01b03600154166001600160a01b03821690808214611eab5750806000526007602052611d306040600020541515611156565b8060005260086020526040600020906000526007602052604060002054600052602052604060002060405192610180840184811067ffffffffffffffff8211176103d75760405281546001600160a01b0316845260018201546001600160a01b0316926020850193845260028301546001600160a01b0316936040860194855260038401546001600160a01b031694606087019586526004850154956080880196875260058601549460a0890195865260068701549460c08a01958652600788015460e08b015260088801549961010081019a8b526009890154986101208201998a52600a810154610140830152600b015460ff16151590610160015230611e379161204a565b9788975197889186516001600160a01b03169086516001600160a01b03169086516001600160a01b0316905191611e6d936124fb565b90611e7791611237565b90611e819161124a565b98519551945193516001600160a01b031692516001600160a01b031691516001600160a01b031690565b9150506001600160a01b03600c5416906001600160a01b03600b5416611ed5600d548284866124fb565b93600093600093600093600093600093929190565b6001600160a01b03168015611f7a576001600160a01b037f9016d09d72d40fdae2fd8ceac6b6234c7706214fd39c1cd1e609a0528c19930054826001600160a01b03198216177f9016d09d72d40fdae2fd8ceac6b6234c7706214fd39c1cd1e609a0528c19930055167f8be0079c531659141344cd1fd0a4f28419497f9722a3daafe3b4186f6b6457e0600080a3565b7f1e4fbdf700000000000000000000000000000000000000000000000000000000600052600060045260246000fd5b3f8015159081611fb7575090565b7fc5d2460186f7233c927e7db2dcc703c0e500b653ca82273b7bfad8045d85a4709150141590565b6001600160a01b0360015416611ff5308261204a565b80611ffe575050565b6115279161200e826004546112fd565b6004556001600160a01b036003541690612191565b90816020910312610017575160ff811681036100175790565b604d811161048457600a0a90565b6001600160a01b03166001600160a01b03604051927f70a08231000000000000000000000000000000000000000000000000000000008452166004830152602082602481845afa9182156115565760009261211c575b509060206004926040519384809263313ce56760e01b82525afa908115611556576120ed926000926120f0575b5060ff6120e06120e79260005490611237565b921661203c565b9061124a565b90565b6120e79192506120e061211360ff9260203d6020116118a65761189881836112b5565b939250506120cd565b91506020823d602011612149575b81612137602093836112b5565b810103126100175790519060206120a0565b3d915061212a565b3d1561218c573d9067ffffffffffffffff82116103d75760405191612180601f8201601f1916602001846112b5565b82523d6000602084013e565b606090565b9160405163313ce56760e01b81526020816004816001600160a01b0388165afa918215611556576121d360ff6121d9946116e19460009161187e57501661203c565b90611237565b91826121e457505050565b6000928380936040926001600160a01b037fffffffff0000000000000000000000000000000000000000000000000000000060196020875161222689826112b5565b828152017f7472616e7366657228616464726573732c75696e74323536290000000000000081522016945192602084019586521660248301526044820152604481526122736064826112b5565b51925af161227f612151565b8161228d575b501561001757565b80518015925082156122a2575b505038612285565b6122b592506020809183010191016112d8565b388061229a565b600981018054916127108302928084046127101490151715610484576122e8600582019384549061124a565b936006820194855410156122fe575b5050505050565b6001600160a01b03169081600052600760205260406000205460018101809111610484577ff5d2d72d9b25d6853afd7d0554a113b705234b6a68bb36b7f1436629946324119560609561246492856000526007602052604060002055846000526008602052604060002085600052600760205260406000205460005260205260046040600020946001600160a01b0380825416166001600160a01b03198754161786556001600160a01b036001820154166001600160a01b036001880191166001600160a01b03198254161790556001600160a01b036002820154166001600160a01b036002880191166001600160a01b03198254161790556001600160a01b036003820154166001600160a01b036003880191166001600160a01b031982541617905501546004850155846000526007602052604060002054600885015554908160058501555460068401556124568554826112fd565b9485600785015554906112fd565b6009820155600a429101556000526007602052604060002054906040519182526020820152426040820152a138808080806122f7565b6001600160a01b037f9016d09d72d40fdae2fd8ceac6b6234c7706214fd39c1cd1e609a0528c199300541633036124cd57565b7f118cdaa7000000000000000000000000000000000000000000000000000000006000523360045260246000fd5b90919392936001600160a01b038216151580612574575b80612562575b61252157505050565b61252e816125349361204a565b9261204a565b9080151580612559575b612546575050565b6120ed9293506113d99060005490611237565b5081151561253e565b506001600160a01b0381161515612518565b506001600160a01b0383161515612512565b60ff7ff0c57e16840df040f15088dc2f81fe391c3923bec73e23a9662efc9c229c6a005460401c16156125b557565b7fd7e6bcf80000000000000000000000000000000000000000000000000000000060005260046000fdfea2646970667358221220f69852b8bbbef741181fb219debdba4205793246ea2b8478bff4c1b08cf7b54b64736f6c634300081c0033",
  "linkReferences": {},
  "deployedLinkReferences": {}
}