{
  "_format": "hh-sol-artifact-1",
  "contractName": "MarketAgent",
  "sourceName": "contracts/MarketAgent.sol",
  "abi": [
    {
      "inputs": [],
      "name": "InvalidInitialization",
      "type": "error"
    },
    {
      "inputs": [],
      "name": "NotInitializing",
      "type": "error"
    },
    {
      "inputs": [
        {
          "internalType": "address",
          "name": "owner",
          "type": "address"
        }
      ],
      "name": "OwnableInvalidOwner",
      "type": "error"
    },
    {
      "inputs": [
        {
          "internalType": "address",
          "name": "account",
          "type": "address"
        }
      ],
      "name": "OwnableUnauthorizedAccount",
      "type": "error"
    },
    {
      "anonymous": false,
      "inputs": [
        {
          "indexed": false,
          "internalType": "uint64",
          "name": "version",
          "type": "uint64"
        }
      ],
      "name": "Initialized",
      "type": "event"
    },
    {
      "anonymous": false,
      "inputs": [
        {
          "indexed": true,
          "internalType": "address",
          "name": "previousOwner",
          "type": "address"
        },
        {
          "indexed": true,
          "internalType": "address",
          "name": "newOwner",
          "type": "address"
        }
      ],
      "name": "OwnershipTransferred",
      "type": "event"
    },
    {
      "anonymous": false,
      "inputs": [
        {
          "indexed": false,
          "internalType": "address",
          "name": "token",
          "type": "address"
        },
        {
          "indexed": false,
          "internalType": "address",
          "name": "inviter",
          "type": "address"
        },
        {
          "indexed": false,
          "internalType": "address",
          "name": "invitee",
          "type": "address"
        }
      ],
      "name": "addInviterRelation",
      "type": "event"
    },
    {
      "anonymous": false,
      "inputs": [
        {
          "indexed": false,
          "internalType": "address",
          "name": "token",
          "type": "address"
        },
        {
          "indexed": false,
          "internalType": "address",
          "name": "agent",
          "type": "address"
        },
        {
          "indexed": false,
          "internalType": "bool",
          "name": "approval",
          "type": "bool"
        }
      ],
      "name": "setTokenTopAgent",
      "type": "event"
    },
    {
      "stateMutability": "nonpayable",
      "type": "fallback"
    },
    {
      "inputs": [],
      "name": "commonCommissionRate",
      "outputs": [
        {
          "internalType": "uint256",
          "name": "",
          "type": "uint256"
        }
      ],
      "stateMutability": "view",
      "type": "function"
    },
    {
      "inputs": [
        {
          "internalType": "address",
          "name": "_token",
          "type": "address"
        },
        {
          "internalType": "address",
          "name": "_invitee",
          "type": "address"
        },
        {
          "internalType": "uint256",
          "name": "_tradeFee",
          "type": "uint256"
        }
      ],
      "name": "getAgentTradeFee",
      "outputs": [
        {
          "internalType": "address",
          "name": "",
          "type": "address"
        },
        {
          "internalType": "uint256",
          "name": "",
          "type": "uint256"
        },
        {
          "internalType": "address",
          "name": "",
          "type": "address"
        },
        {
          "internalType": "uint256",
          "name": "",
          "type": "uint256"
        }
      ],
      "stateMutability": "nonpayable",
      "type": "function"
    },
    {
      "inputs": [],
      "name": "getAgents",
      "outputs": [
        {
          "internalType": "address[]",
          "name": "",
          "type": "address[]"
        }
      ],
      "stateMutability": "view",
      "type": "function"
    },
    {
      "inputs": [
        {
          "internalType": "address",
          "name": "_inviter",
          "type": "address"
        },
        {
          "internalType": "address",
          "name": "_token",
          "type": "address"
        }
      ],
      "name": "getCommissionByInviter",
      "outputs": [
        {
          "internalType": "uint256",
          "name": "",
          "type": "uint256"
        }
      ],
      "stateMutability": "view",
      "type": "function"
    },
    {
      "inputs": [
        {
          "internalType": "address",
          "name": "_inviter",
          "type": "address"
        },
        {
          "internalType": "address",
          "name": "_invitee",
          "type": "address"
        },
        {
          "internalType": "address",
          "name": "_token",
          "type": "address"
        }
      ],
      "name": "getCommissionByInviterAndInvitee",
      "outputs": [
        {
          "internalType": "uint256",
          "name": "",
          "type": "uint256"
        }
      ],
      "stateMutability": "view",
      "type": "function"
    },
    {
      "inputs": [
        {
          "internalType": "address",
          "name": "_inviter",
          "type": "address"
        }
      ],
      "name": "getInviter",
      "outputs": [
        {
          "internalType": "address",
          "name": "",
          "type": "address"
        },
        {
          "internalType": "address[]",
          "name": "",
          "type": "address[]"
        }
      ],
      "stateMutability": "view",
      "type": "function"
    },
    {
      "inputs": [],
      "name": "getTopAgents",
      "outputs": [
        {
          "internalType": "address[]",
          "name": "",
          "type": "address[]"
        }
      ],
      "stateMutability": "view",
      "type": "function"
    },
    {
      "inputs": [],
      "name": "initialize",
      "outputs": [],
      "stateMutability": "nonpayable",
      "type": "function"
    },
    {
      "inputs": [],
      "name": "owner",
      "outputs": [
        {
          "internalType": "address",
          "name": "",
          "type": "address"
        }
      ],
      "stateMutability": "view",
      "type": "function"
    },
    {
      "inputs": [
        {
          "internalType": "address",
          "name": "_inviter",
          "type": "address"
        },
        {
          "internalType": "address",
          "name": "_invitee",
          "type": "address"
        }
      ],
      "name": "relateInviteeToInviter",
      "outputs": [],
      "stateMutability": "nonpayable",
      "type": "function"
    },
    {
      "inputs": [
        {
          "internalType": "address",
          "name": "",
          "type": "address"
        }
      ],
      "name": "relationShip",
      "outputs": [
        {
          "internalType": "address",
          "name": "",
          "type": "address"
        }
      ],
      "stateMutability": "view",
      "type": "function"
    },
    {
      "inputs": [],
      "name": "renounceOwnership",
      "outputs": [],
      "stateMutability": "nonpayable",
      "type": "function"
    },
    {
      "inputs": [
        {
          "internalType": "uint256",
          "name": "commonRate",
          "type": "uint256"
        },
        {
          "internalType": "uint256",
          "name": "topRate",
          "type": "uint256"
        }
      ],
      "name": "setCommissionRate",
      "outputs": [],
      "stateMutability": "nonpayable",
      "type": "function"
    },
    {
      "inputs": [
        {
          "internalType": "address",
          "name": "_addr",
          "type": "address"
        },
        {
          "internalType": "address",
          "name": "_keeper",
          "type": "address"
        }
      ],
      "name": "setKeepers",
      "outputs": [],
      "stateMutability": "nonpayable",
      "type": "function"
    },
    {
      "inputs": [
        {
          "internalType": "address[]",
          "name": "_token",
          "type": "address[]"
        },
        {
          "internalType": "address[]",
          "name": "_topAgent",
          "type": "address[]"
        },
        {
          "internalType": "bool[]",
          "name": "_approval",
          "type": "bool[]"
        }
      ],
      "name": "setTokenTopAgentCommission",
      "outputs": [],
      "stateMutability": "nonpayable",
      "type": "function"
    },
    {
      "inputs": [],
      "name": "topCommissionRate",
      "outputs": [
        {
          "internalType": "uint256",
          "name": "",
          "type": "uint256"
        }
      ],
      "stateMutability": "view",
      "type": "function"
    },
    {
      "inputs": [
        {
          "internalType": "address",
          "name": "newOwner",
          "type": "address"
        }
      ],
      "name": "transferOwnership",
      "outputs": [],
      "stateMutability": "nonpayable",
      "type": "function"
    }
  ],
  "bytecode": "0x6080806040523460155761166e908161001a8239f35b5f80fdfe608080604052600436101561001b575b503461001757005b5f80fd5b5f905f3560e01c908163147df88714610b71575080632a46570d14610b545780632b00020614610adf578063345d547514610a8857806351aeb08c14610a5c57806358c7eaa7146109cf57806360653c8e14610951578063715018a6146108ad57806375e97217146108395780638129fc1c146106005780638da5cb5b146105ba5780639594bd1b1461054b578063b5f101de1461052d578063d216ce6f1461047f578063eac3fda414610407578063eb410b001461010d5763f2fde38b0361000f573461010a57602060031936011261010a576101076100fa610bae565b6101026113f5565b61132d565b80f35b80fd5b503461010a57606060031936011261010a5760043567ffffffffffffffff81116104035761013f903690600401610c83565b60243567ffffffffffffffff81116103ff5761015f903690600401610c83565b906044359267ffffffffffffffff841161010a573660238501121561010a57836004013561018c81610c6b565b9461019a6040519687610c16565b8186526024602087019260051b820101903682116103fb57602401915b8183106103de5750505033815260046020526101d960ff604083205416610cf1565b81518351811490816103d3575b501561038f57805b825181101561038b576102018186611319565b5115610346576001600160a01b036102198286611319565b5116825260076020526001600160a01b0360408320541661030257806001600160a01b0361024960019387611319565b511683526006602052610273604084206001600160a01b0361026b8488611319565b5116906115e0565b506102906001600160a01b036102898388611319565b5116611586565b505b7f58daedee5dc215cca98174bbd6b4c560b6e4bc10ae4c8bd0c9c56e507350da9460606001600160a01b036102c78488611319565b51166001600160a01b036102db858a611319565b51166102e7858b611319565b5115159060405192835260208301526040820152a1016101ee565b606460405162461bcd60e51b815260206004820152601660248201527f746f70206167656e74206973206120696e7669746565000000000000000000006044820152fd5b806001600160a01b0361035b60019387611319565b511683526006602052610385604084206001600160a01b0361037d8488611319565b5116906114ab565b50610292565b5080f35b606460405162461bcd60e51b815260206004820152601960248201527f6172726179206c656e67746820697320696e636f7272656374000000000000006044820152fd5b90508451145f6101e6565b823580151581036103f7578152602092830192016101b7565b8480fd5b8380fd5b8280fd5b5080fd5b503461010a578060031936011261010a57604051600154808252602082019060015f5260205f20905f5b8181106104605761045c8561044881870382610c16565b604051918291602083526020830190610bda565b0390f35b82546001600160a01b0316845260209093019260019283019201610431565b503461010a57602060031936011261010a5760016001600160a01b036040816104a6610bae565b169384815260056020528181209481526007602052205416910190604051918281549182825260208201905f5260205f20925f5b81811061050b5750506104ef92500383610c16565b61045c6040519283928352604060208401526040830190610bda565b84546001600160a01b03168352600194850194879450602090930192016104da565b503461010a578060031936011261010a576020600954604051908152f35b503461010a57606060031936011261010a576001600160a01b0361059d608092610573610bae565b9061059460ff6040610583610bc4565b933381526004602052205416610cf1565b6044359161103a565b929391826040519516855260208501521660408301526060820152f35b503461010a578060031936011261010a5760206001600160a01b037f9016d09d72d40fdae2fd8ceac6b6234c7706214fd39c1cd1e609a0528c1993005416604051908152f35b34610017575f600319360112610017577ff0c57e16840df040f15088dc2f81fe391c3923bec73e23a9662efc9c229c6a005460ff8160401c16159067ffffffffffffffff811680159081610831575b6001149081610827575b15908161081e575b506107f6578160017fffffffffffffffffffffffffffffffffffffffffffffffff00000000000000008316177ff0c57e16840df040f15088dc2f81fe391c3923bec73e23a9662efc9c229c6a00556107a1575b506106bd611454565b6106c5611454565b6106ce3361132d565b335f52600460205260405f20600160ff19825416179055670de0b6b3a76400005f5567016345785d8a00006008556706f05b59d3b2000060095561070e57005b7fffffffffffffffffffffffffffffffffffffffffffffff00ffffffffffffffff7ff0c57e16840df040f15088dc2f81fe391c3923bec73e23a9662efc9c229c6a0054167ff0c57e16840df040f15088dc2f81fe391c3923bec73e23a9662efc9c229c6a00557fc7f505b2f371ae2175ee4913f4499e1f2633a7b5936321eed1cdaeb6115181d2602060405160018152a1005b7fffffffffffffffffffffffffffffffffffffffffffffff0000000000000000001668010000000000000001177ff0c57e16840df040f15088dc2f81fe391c3923bec73e23a9662efc9c229c6a0055816106b4565b7ff92ee8a9000000000000000000000000000000000000000000000000000000005f5260045ffd5b90501583610661565b303b159150610659565b83915061064f565b34610017575f6003193601126100175760405180602060025491828152019060025f527f405787fa12a823e0f2b7631cc41b3ba8828b3321ca811111fa75cd3aa3bb5ace905f5b8181106108975761045c8561044881870382610c16565b8254845260209093019260019283019201610880565b34610017575f600319360112610017576108c56113f5565b5f6001600160a01b037f9016d09d72d40fdae2fd8ceac6b6234c7706214fd39c1cd1e609a0528c1993005473ffffffffffffffffffffffffffffffffffffffff1981167f9016d09d72d40fdae2fd8ceac6b6234c7706214fd39c1cd1e609a0528c19930055167f8be0079c531659141344cd1fd0a4f28419497f9722a3daafe3b4186f6b6457e08280a3005b346100175760606003193601126100175761096a610bae565b610972610bc4565b90604435906001600160a01b0382168203610017576001600160a01b03165f5260056020526001600160a01b03600360405f200191165f526020526001600160a01b0360405f2091165f52602052602060405f2054604051908152f35b346100175760406003193601126100175760043560243590335f5260046020526109ff60ff60405f205416610cf1565b610a098282610fe8565b5f5410610a1857600855600955005b606460405162461bcd60e51b815260206004820152600d60248201527f72617465206973206c61726765000000000000000000000000000000000000006044820152fd5b3461001757604060031936011261001757610a86610a78610bae565b610a80610bc4565b90610d8b565b005b3461001757604060031936011261001757610aa1610bae565b6001600160a01b03610ab1610bc4565b91165f5260056020526001600160a01b03600460405f200191165f52602052602060405f2054604051908152f35b34610017576040600319360112610017576001600160a01b03610b00610bae565b81610b09610bc4565b91335f526004602052610b2260ff60405f205416610cf1565b165f52600460205260405f20600160ff19825416179055165f52600460205260405f20600160ff198254161790555f80f35b34610017575f600319360112610017576020600854604051908152f35b34610017576020600319360112610017576020906001600160a01b03610b95610bae565b165f52600782526001600160a01b0360405f2054168152f35b600435906001600160a01b038216820361001757565b602435906001600160a01b038216820361001757565b90602080835192838152019201905f5b818110610bf75750505090565b82516001600160a01b0316845260209384019390920191600101610bea565b90601f7fffffffffffffffffffffffffffffffffffffffffffffffffffffffffffffffe0910116810190811067ffffffffffffffff821117610c5757604052565b634e487b7160e01b5f52604160045260245ffd5b67ffffffffffffffff8111610c575760051b60200190565b9080601f8301121561001757813590610c9b82610c6b565b92610ca96040519485610c16565b82845260208085019360051b82010191821161001757602001915b818310610cd15750505090565b82356001600160a01b038116810361001757815260209283019201610cc4565b15610cf857565b608460405162461bcd60e51b815260206004820152602160248201527f63616c6c6572206973206e6f74206d61726b6574206167656e74206b6565706560448201527f72000000000000000000000000000000000000000000000000000000000000006064820152fd5b8054821015610d77575f5260205f2001905f90565b634e487b7160e01b5f52603260045260245ffd5b6001600160a01b03169081151580610fd6575b15610f92576001600160a01b031690818114610f8e57815f5260076020526001600160a01b0360405f205416610f8e57815f52600660205260405f2054610f4a57805f52600560205260405f20805460ff811615610efb575b506002810190835f528160205260ff60405f20541615610e4d575b50506060907fe66486be5ed1d152eae7e1b2956d4b81071d0b994ee0037c801facba641126bc92604051915f835260208301526040820152a1565b6001018054909390929168010000000000000000841015610c5757610e9b847fe66486be5ed1d152eae7e1b2956d4b81071d0b994ee0037c801facba641126bc966001606097018155610d62565b81549060031b906001600160a01b0385831b921b1916179055815f5260205260405f20600160ff19825416179055805f52600760205260405f208273ffffffffffffffffffffffffffffffffffffffff1982541617905592819250610e12565b60ff196001911617815560015468010000000000000000811015610c5757806001610f2b92016001556001610d62565b81549060031b906001600160a01b0385831b921b19161790555f610df7565b606460405162461bcd60e51b815260206004820152601460248201527f696e766974656520697320746f70206167656e740000000000000000000000006044820152fd5b5050565b606460405162461bcd60e51b815260206004820152601760248201527f696e76616c696420696e766974656520616464726573730000000000000000006044820152fd5b506001600160a01b0381161515610d9e565b91908201809211610ff557565b634e487b7160e01b5f52601160045260245ffd5b81810292918115918404141715610ff557565b8115611026570490565b634e487b7160e01b5f52601260045260245ffd5b9190916001600160a01b03831680151580611307575b156112c357805f5260076020526001600160a01b0360405f20541680155f146110d25750906110a2915f5260066020526001600160a01b0360405f209116906001915f520160205260405f2054151590565b6110b25750505f905f905f905f90565b6110c26110ca9160095490611009565b5f549061101c565b5f925f929190565b8094505f9591929552600560205260405f20936008549560046110fb6110c26009549988611009565b96600381016001600160a01b0384165f528060205260405f20875f526020526111288960405f2054610fe8565b906001600160a01b0385165f5260205260405f20875f5260205260405f2055016001600160a01b0382165f52806020526111668760405f2054610fe8565b906001600160a01b0383165f5260205260405f2055815f5260066020526111a96001600160a01b0360405f20921680926001915f520160205260405f2054151590565b156112a857815b6001600160a01b03811690811561129a57815f52600560205260405f20825f5260066020526111f08460405f206001915f520160205260405f2054151590565b8061128f575b6112165750505f5260076020526001600160a01b0360405f2054166111b0565b915096976110c261122d9160049495969798611009565b956003820190845f528160205260405f20815f526020526112528860405f2054610fe8565b91855f5260205260405f20905f5260205260405f205501815f528060205261127e8560405f2054610fe8565b915f5260205260405f205593929190565b5060ff8154166111f6565b509196505f94508493505050565b815f5260076020526001600160a01b0360405f2054166111b0565b606460405162461bcd60e51b815260206004820152600f60248201527f61646472657373206973207a65726f00000000000000000000000000000000006044820152fd5b506001600160a01b0382161515611050565b8051821015610d775760209160051b010190565b6001600160a01b031680156113c9576001600160a01b037f9016d09d72d40fdae2fd8ceac6b6234c7706214fd39c1cd1e609a0528c199300548273ffffffffffffffffffffffffffffffffffffffff198216177f9016d09d72d40fdae2fd8ceac6b6234c7706214fd39c1cd1e609a0528c19930055167f8be0079c531659141344cd1fd0a4f28419497f9722a3daafe3b4186f6b6457e05f80a3565b7f1e4fbdf7000000000000000000000000000000000000000000000000000000005f525f60045260245ffd5b6001600160a01b037f9016d09d72d40fdae2fd8ceac6b6234c7706214fd39c1cd1e609a0528c1993005416330361142857565b7f118cdaa7000000000000000000000000000000000000000000000000000000005f523360045260245ffd5b60ff7ff0c57e16840df040f15088dc2f81fe391c3923bec73e23a9662efc9c229c6a005460401c161561148357565b7fd7e6bcf8000000000000000000000000000000000000000000000000000000005f5260045ffd5b906001820191815f528260205260405f20548015155f1461157e575f198101818111610ff55782545f19810191908211610ff557818103611533575b5050508054801561151f575f1901906115008282610d62565b8154905f199060031b1b19169055555f526020525f6040812055600190565b634e487b7160e01b5f52603160045260245ffd5b6115696115436115539386610d62565b90549060031b1c92839286610d62565b819391549060031b91821b915f19901b19161790565b90555f528360205260405f20555f80806114e7565b505050505f90565b805f52600360205260405f2054155f146115db5760025468010000000000000000811015610c57576115c46115538260018594016002556002610d62565b9055600254905f52600360205260405f2055600190565b505f90565b5f8281526001820160205260409020546116325780549068010000000000000000821015610c57578261161d611553846001809601855584610d62565b90558054925f520160205260405f2055600190565b50505f9056fea26469706673582212209f8049db7cbf1dea5b60b7eccfd437003c2ec4332e8adf28334d1ab290b153c864736f6c634300081c0033",
  "linkReferences": {},
  "deployedLinkReferences": {}
}