{
  "_format": "hh-sol-artifact-1",
  "contractName": "MarketAgent",
  "sourceName": "contracts/MarketAgent.sol",
  "abi": [
    {
      "inputs": [],
      "name": "InvalidInitialization",
      "type": "error"
    },
    {
      "inputs": [],
      "name": "NotInitializing",
      "type": "error"
    },
    {
      "inputs": [
        {
          "internalType": "address",
          "name": "owner",
          "type": "address"
        }
      ],
      "name": "OwnableInvalidOwner",
      "type": "error"
    },
    {
      "inputs": [
        {
          "internalType": "address",
          "name": "account",
          "type": "address"
        }
      ],
      "name": "OwnableUnauthorizedAccount",
      "type": "error"
    },
    {
      "anonymous": false,
      "inputs": [
        {
          "indexed": false,
          "internalType": "uint64",
          "name": "version",
          "type": "uint64"
        }
      ],
      "name": "Initialized",
      "type": "event"
    },
    {
      "anonymous": false,
      "inputs": [
        {
          "indexed": true,
          "internalType": "address",
          "name": "previousOwner",
          "type": "address"
        },
        {
          "indexed": true,
          "internalType": "address",
          "name": "newOwner",
          "type": "address"
        }
      ],
      "name": "OwnershipTransferred",
      "type": "event"
    },
    {
      "anonymous": false,
      "inputs": [
        {
          "indexed": false,
          "internalType": "address",
          "name": "token",
          "type": "address"
        },
        {
          "indexed": false,
          "internalType": "address",
          "name": "inviter",
          "type": "address"
        },
        {
          "indexed": false,
          "internalType": "address",
          "name": "invitee",
          "type": "address"
        }
      ],
      "name": "addInviterRelation",
      "type": "event"
    },
    {
      "anonymous": false,
      "inputs": [
        {
          "indexed": false,
          "internalType": "address",
          "name": "token",
          "type": "address"
        },
        {
          "indexed": false,
          "internalType": "address",
          "name": "agent",
          "type": "address"
        },
        {
          "indexed": false,
          "internalType": "bool",
          "name": "approval",
          "type": "bool"
        }
      ],
      "name": "setTokenTopAgent",
      "type": "event"
    },
    {
      "stateMutability": "nonpayable",
      "type": "fallback"
    },
    {
      "inputs": [],
      "name": "commonCommissionRate",
      "outputs": [
        {
          "internalType": "uint256",
          "name": "",
          "type": "uint256"
        }
      ],
      "stateMutability": "view",
      "type": "function"
    },
    {
      "inputs": [
        {
          "internalType": "address",
          "name": "_token",
          "type": "address"
        },
        {
          "internalType": "address",
          "name": "_invitee",
          "type": "address"
        },
        {
          "internalType": "uint256",
          "name": "_tradeFee",
          "type": "uint256"
        }
      ],
      "name": "getAgentTradeFee",
      "outputs": [
        {
          "internalType": "address",
          "name": "",
          "type": "address"
        },
        {
          "internalType": "uint256",
          "name": "",
          "type": "uint256"
        },
        {
          "internalType": "address",
          "name": "",
          "type": "address"
        },
        {
          "internalType": "uint256",
          "name": "",
          "type": "uint256"
        }
      ],
      "stateMutability": "nonpayable",
      "type": "function"
    },
    {
      "inputs": [],
      "name": "getAgents",
      "outputs": [
        {
          "internalType": "address[]",
          "name": "",
          "type": "address[]"
        }
      ],
      "stateMutability": "view",
      "type": "function"
    },
    {
      "inputs": [
        {
          "internalType": "address",
          "name": "_inviter",
          "type": "address"
        },
        {
          "internalType": "address",
          "name": "_token",
          "type": "address"
        }
      ],
      "name": "getCommissionByInviter",
      "outputs": [
        {
          "internalType": "uint256",
          "name": "",
          "type": "uint256"
        }
      ],
      "stateMutability": "view",
      "type": "function"
    },
    {
      "inputs": [
        {
          "internalType": "address",
          "name": "_inviter",
          "type": "address"
        },
        {
          "internalType": "address",
          "name": "_invitee",
          "type": "address"
        },
        {
          "internalType": "address",
          "name": "_token",
          "type": "address"
        }
      ],
      "name": "getCommissionByInviterAndInvitee",
      "outputs": [
        {
          "internalType": "uint256",
          "name": "",
          "type": "uint256"
        }
      ],
      "stateMutability": "view",
      "type": "function"
    },
    {
      "inputs": [
        {
          "internalType": "address",
          "name": "_inviter",
          "type": "address"
        }
      ],
      "name": "getInviter",
      "outputs": [
        {
          "internalType": "address",
          "name": "",
          "type": "address"
        },
        {
          "internalType": "address[]",
          "name": "",
          "type": "address[]"
        }
      ],
      "stateMutability": "view",
      "type": "function"
    },
    {
      "inputs": [],
      "name": "initialize",
      "outputs": [],
      "stateMutability": "nonpayable",
      "type": "function"
    },
    {
      "inputs": [],
      "name": "owner",
      "outputs": [
        {
          "internalType": "address",
          "name": "",
          "type": "address"
        }
      ],
      "stateMutability": "view",
      "type": "function"
    },
    {
      "inputs": [
        {
          "internalType": "address",
          "name": "_inviter",
          "type": "address"
        },
        {
          "internalType": "address",
          "name": "_invitee",
          "type": "address"
        }
      ],
      "name": "relateInviteeToInviter",
      "outputs": [],
      "stateMutability": "nonpayable",
      "type": "function"
    },
    {
      "inputs": [
        {
          "internalType": "address",
          "name": "",
          "type": "address"
        }
      ],
      "name": "relationShip",
      "outputs": [
        {
          "internalType": "address",
          "name": "",
          "type": "address"
        }
      ],
      "stateMutability": "view",
      "type": "function"
    },
    {
      "inputs": [],
      "name": "renounceOwnership",
      "outputs": [],
      "stateMutability": "nonpayable",
      "type": "function"
    },
    {
      "inputs": [
        {
          "internalType": "uint256",
          "name": "commonRate",
          "type": "uint256"
        },
        {
          "internalType": "uint256",
          "name": "topRate",
          "type": "uint256"
        }
      ],
      "name": "setCommissionRate",
      "outputs": [],
      "stateMutability": "nonpayable",
      "type": "function"
    },
    {
      "inputs": [
        {
          "internalType": "address",
          "name": "_addr",
          "type": "address"
        },
        {
          "internalType": "address",
          "name": "_keeper",
          "type": "address"
        }
      ],
      "name": "setKeepers",
      "outputs": [],
      "stateMutability": "nonpayable",
      "type": "function"
    },
    {
      "inputs": [
        {
          "internalType": "address[]",
          "name": "_token",
          "type": "address[]"
        },
        {
          "internalType": "address[]",
          "name": "_topAgent",
          "type": "address[]"
        },
        {
          "internalType": "bool[]",
          "name": "_approval",
          "type": "bool[]"
        }
      ],
      "name": "setTokenTopAgentCommission",
      "outputs": [],
      "stateMutability": "nonpayable",
      "type": "function"
    },
    {
      "inputs": [],
      "name": "topCommissionRate",
      "outputs": [
        {
          "internalType": "uint256",
          "name": "",
          "type": "uint256"
        }
      ],
      "stateMutability": "view",
      "type": "function"
    },
    {
      "inputs": [
        {
          "internalType": "address",
          "name": "newOwner",
          "type": "address"
        }
      ],
      "name": "transferOwnership",
      "outputs": [],
      "stateMutability": "nonpayable",
      "type": "function"
    }
  ],
  "bytecode": "0x60808060405234601557611578908161001a8239f35b5f80fdfe608080604052600436101561001b575b503461001757005b5f80fd5b5f905f3560e01c908163147df88714610ad5575080632a46570d14610ab85780632b00020614610a43578063345d5475146109ec57806351aeb08c146109c057806358c7eaa71461093357806360653c8e146108b5578063715018a6146108115780638129fc1c146105d85780638da5cb5b146105925780639594bd1b14610523578063b5f101de14610505578063d216ce6f14610457578063eac3fda4146103df578063eb410b00146101025763f2fde38b0361000f57346100ff5760206003193601126100ff576100fc6100ef610b12565b6100f7611359565b611291565b80f35b80fd5b50346100ff5760606003193601126100ff5760043567ffffffffffffffff81116103db57610134903690600401610be7565b60243567ffffffffffffffff81116103d757610154903690600401610be7565b906044359267ffffffffffffffff84116100ff57366023850112156100ff57836004013561018181610bcf565b9461018f6040519687610b7a565b8186526024602087019260051b820101903682116103d357602401915b8183106103b65750505033815260026020526101ce60ff604083205416610c55565b81518351811490816103ab575b501561036757805b8251811015610363576101f6818661127d565b511561031e576001600160a01b0361020e828661127d565b5116825260056020526001600160a01b036040832054166102da57806001600160a01b0361023e6001938761127d565b511683526004602052610268604084206001600160a01b03610260848861127d565b5116906114ea565b505b7f58daedee5dc215cca98174bbd6b4c560b6e4bc10ae4c8bd0c9c56e507350da9460606001600160a01b0361029f848861127d565b51166001600160a01b036102b3858a61127d565b51166102bf858b61127d565b5115159060405192835260208301526040820152a1016101e3565b606460405162461bcd60e51b815260206004820152601660248201527f746f70206167656e74206973206120696e7669746565000000000000000000006044820152fd5b806001600160a01b036103336001938761127d565b51168352600460205261035d604084206001600160a01b03610355848861127d565b51169061140f565b5061026a565b5080f35b606460405162461bcd60e51b815260206004820152601960248201527f6172726179206c656e67746820697320696e636f7272656374000000000000006044820152fd5b90508451145f6101db565b823580151581036103cf578152602092830192016101ac565b8480fd5b8380fd5b8280fd5b5080fd5b50346100ff57806003193601126100ff57604051600154808252602082019060015f5260205f20905f5b818110610438576104348561042081870382610b7a565b604051918291602083526020830190610b3e565b0390f35b82546001600160a01b0316845260209093019260019283019201610409565b50346100ff5760206003193601126100ff5760016001600160a01b0360408161047e610b12565b169384815260036020528181209481526005602052205416910190604051918281549182825260208201905f5260205f20925f5b8181106104e35750506104c792500383610b7a565b6104346040519283928352604060208401526040830190610b3e565b84546001600160a01b03168352600194850194879450602090930192016104b2565b50346100ff57806003193601126100ff576020600754604051908152f35b50346100ff5760606003193601126100ff576001600160a01b0361057560809261054b610b12565b9061056c60ff604061055b610b28565b933381526002602052205416610c55565b60443591610f9e565b929391826040519516855260208501521660408301526060820152f35b50346100ff57806003193601126100ff5760206001600160a01b037f9016d09d72d40fdae2fd8ceac6b6234c7706214fd39c1cd1e609a0528c1993005416604051908152f35b34610017575f600319360112610017577ff0c57e16840df040f15088dc2f81fe391c3923bec73e23a9662efc9c229c6a005460ff8160401c16159067ffffffffffffffff811680159081610809575b60011490816107ff575b1590816107f6575b506107ce578160017fffffffffffffffffffffffffffffffffffffffffffffffff00000000000000008316177ff0c57e16840df040f15088dc2f81fe391c3923bec73e23a9662efc9c229c6a0055610779575b506106956113b8565b61069d6113b8565b6106a633611291565b335f52600260205260405f20600160ff19825416179055670de0b6b3a76400005f5567016345785d8a00006006556706f05b59d3b200006007556106e657005b7fffffffffffffffffffffffffffffffffffffffffffffff00ffffffffffffffff7ff0c57e16840df040f15088dc2f81fe391c3923bec73e23a9662efc9c229c6a0054167ff0c57e16840df040f15088dc2f81fe391c3923bec73e23a9662efc9c229c6a00557fc7f505b2f371ae2175ee4913f4499e1f2633a7b5936321eed1cdaeb6115181d2602060405160018152a1005b7fffffffffffffffffffffffffffffffffffffffffffffff0000000000000000001668010000000000000001177ff0c57e16840df040f15088dc2f81fe391c3923bec73e23a9662efc9c229c6a00558161068c565b7ff92ee8a9000000000000000000000000000000000000000000000000000000005f5260045ffd5b90501583610639565b303b159150610631565b839150610627565b34610017575f60031936011261001757610829611359565b5f6001600160a01b037f9016d09d72d40fdae2fd8ceac6b6234c7706214fd39c1cd1e609a0528c1993005473ffffffffffffffffffffffffffffffffffffffff1981167f9016d09d72d40fdae2fd8ceac6b6234c7706214fd39c1cd1e609a0528c19930055167f8be0079c531659141344cd1fd0a4f28419497f9722a3daafe3b4186f6b6457e08280a3005b34610017576060600319360112610017576108ce610b12565b6108d6610b28565b90604435906001600160a01b0382168203610017576001600160a01b03165f5260036020526001600160a01b03600360405f200191165f526020526001600160a01b0360405f2091165f52602052602060405f2054604051908152f35b346100175760406003193601126100175760043560243590335f52600260205261096360ff60405f205416610c55565b61096d8282610f4c565b5f541061097c57600655600755005b606460405162461bcd60e51b815260206004820152600d60248201527f72617465206973206c61726765000000000000000000000000000000000000006044820152fd5b34610017576040600319360112610017576109ea6109dc610b12565b6109e4610b28565b90610cef565b005b3461001757604060031936011261001757610a05610b12565b6001600160a01b03610a15610b28565b91165f5260036020526001600160a01b03600460405f200191165f52602052602060405f2054604051908152f35b34610017576040600319360112610017576001600160a01b03610a64610b12565b81610a6d610b28565b91335f526002602052610a8660ff60405f205416610c55565b165f52600260205260405f20600160ff19825416179055165f52600260205260405f20600160ff198254161790555f80f35b34610017575f600319360112610017576020600654604051908152f35b34610017576020600319360112610017576020906001600160a01b03610af9610b12565b165f52600582526001600160a01b0360405f2054168152f35b600435906001600160a01b038216820361001757565b602435906001600160a01b038216820361001757565b90602080835192838152019201905f5b818110610b5b5750505090565b82516001600160a01b0316845260209384019390920191600101610b4e565b90601f7fffffffffffffffffffffffffffffffffffffffffffffffffffffffffffffffe0910116810190811067ffffffffffffffff821117610bbb57604052565b634e487b7160e01b5f52604160045260245ffd5b67ffffffffffffffff8111610bbb5760051b60200190565b9080601f8301121561001757813590610bff82610bcf565b92610c0d6040519485610b7a565b82845260208085019360051b82010191821161001757602001915b818310610c355750505090565b82356001600160a01b038116810361001757815260209283019201610c28565b15610c5c57565b608460405162461bcd60e51b815260206004820152602160248201527f63616c6c6572206973206e6f74206d61726b6574206167656e74206b6565706560448201527f72000000000000000000000000000000000000000000000000000000000000006064820152fd5b8054821015610cdb575f5260205f2001905f90565b634e487b7160e01b5f52603260045260245ffd5b6001600160a01b03169081151580610f3a575b15610ef6576001600160a01b031690818114610ef257815f5260056020526001600160a01b0360405f205416610ef257815f52600460205260405f2054610eae57805f52600360205260405f20805460ff811615610e5f575b506002810190835f528160205260ff60405f20541615610db1575b50506060907fe66486be5ed1d152eae7e1b2956d4b81071d0b994ee0037c801facba641126bc92604051915f835260208301526040820152a1565b6001018054909390929168010000000000000000841015610bbb57610dff847fe66486be5ed1d152eae7e1b2956d4b81071d0b994ee0037c801facba641126bc966001606097018155610cc6565b81549060031b906001600160a01b0385831b921b1916179055815f5260205260405f20600160ff19825416179055805f52600560205260405f208273ffffffffffffffffffffffffffffffffffffffff1982541617905592819250610d76565b60ff196001911617815560015468010000000000000000811015610bbb57806001610e8f92016001556001610cc6565b81549060031b906001600160a01b0385831b921b19161790555f610d5b565b606460405162461bcd60e51b815260206004820152601460248201527f696e766974656520697320746f70206167656e740000000000000000000000006044820152fd5b5050565b606460405162461bcd60e51b815260206004820152601760248201527f696e76616c696420696e766974656520616464726573730000000000000000006044820152fd5b506001600160a01b0381161515610d02565b91908201809211610f5957565b634e487b7160e01b5f52601160045260245ffd5b81810292918115918404141715610f5957565b8115610f8a570490565b634e487b7160e01b5f52601260045260245ffd5b9190916001600160a01b0383168015158061126b575b1561122757805f5260056020526001600160a01b0360405f20541680155f14611036575090611006915f5260046020526001600160a01b0360405f209116906001915f520160205260405f2054151590565b6110165750505f905f905f905f90565b61102661102e9160075490610f6d565b5f5490610f80565b5f925f929190565b8094505f9591929552600360205260405f209360065495600461105f6110266007549988610f6d565b96600381016001600160a01b0384165f528060205260405f20875f5260205261108c8960405f2054610f4c565b906001600160a01b0385165f5260205260405f20875f5260205260405f2055016001600160a01b0382165f52806020526110ca8760405f2054610f4c565b906001600160a01b0383165f5260205260405f2055815f52600460205261110d6001600160a01b0360405f20921680926001915f520160205260405f2054151590565b1561120c57815b6001600160a01b0381169081156111fe57815f52600360205260405f20825f5260046020526111548460405f206001915f520160205260405f2054151590565b806111f3575b61117a5750505f5260056020526001600160a01b0360405f205416611114565b915096976110266111919160049495969798610f6d565b956003820190845f528160205260405f20815f526020526111b68860405f2054610f4c565b91855f5260205260405f20905f5260205260405f205501815f52806020526111e28560405f2054610f4c565b915f5260205260405f205593929190565b5060ff81541661115a565b509196505f94508493505050565b815f5260056020526001600160a01b0360405f205416611114565b606460405162461bcd60e51b815260206004820152600f60248201527f61646472657373206973207a65726f00000000000000000000000000000000006044820152fd5b506001600160a01b0382161515610fb4565b8051821015610cdb5760209160051b010190565b6001600160a01b0316801561132d576001600160a01b037f9016d09d72d40fdae2fd8ceac6b6234c7706214fd39c1cd1e609a0528c199300548273ffffffffffffffffffffffffffffffffffffffff198216177f9016d09d72d40fdae2fd8ceac6b6234c7706214fd39c1cd1e609a0528c19930055167f8be0079c531659141344cd1fd0a4f28419497f9722a3daafe3b4186f6b6457e05f80a3565b7f1e4fbdf7000000000000000000000000000000000000000000000000000000005f525f60045260245ffd5b6001600160a01b037f9016d09d72d40fdae2fd8ceac6b6234c7706214fd39c1cd1e609a0528c1993005416330361138c57565b7f118cdaa7000000000000000000000000000000000000000000000000000000005f523360045260245ffd5b60ff7ff0c57e16840df040f15088dc2f81fe391c3923bec73e23a9662efc9c229c6a005460401c16156113e757565b7fd7e6bcf8000000000000000000000000000000000000000000000000000000005f5260045ffd5b906001820191815f528260205260405f20548015155f146114e2575f198101818111610f595782545f19810191908211610f5957818103611497575b50505080548015611483575f1901906114648282610cc6565b8154905f199060031b1b19169055555f526020525f6040812055600190565b634e487b7160e01b5f52603160045260245ffd5b6114cd6114a76114b79386610cc6565b90549060031b1c92839286610cc6565b819391549060031b91821b915f19901b19161790565b90555f528360205260405f20555f808061144b565b505050505f90565b5f82815260018201602052604090205461153c5780549068010000000000000000821015610bbb57826115276114b7846001809601855584610cc6565b90558054925f520160205260405f2055600190565b50505f9056fea2646970667358221220ac4e9faabfcabe4c15eb44257627c8ff9ddab09439d10b7b15fc179b94615fbc64736f6c634300081c0033",
  "linkReferences": {},
  "deployedLinkReferences": {}
}