{
  "_format": "hh-sol-artifact-1",
  "contractName": "MarketAgent",
  "sourceName": "contracts/MarketAgent.sol",
  "abi": [
    {
      "inputs": [],
      "name": "InvalidInitialization",
      "type": "error"
    },
    {
      "inputs": [],
      "name": "NotInitializing",
      "type": "error"
    },
    {
      "inputs": [
        {
          "internalType": "address",
          "name": "owner",
          "type": "address"
        }
      ],
      "name": "OwnableInvalidOwner",
      "type": "error"
    },
    {
      "inputs": [
        {
          "internalType": "address",
          "name": "account",
          "type": "address"
        }
      ],
      "name": "OwnableUnauthorizedAccount",
      "type": "error"
    },
    {
      "anonymous": false,
      "inputs": [
        {
          "indexed": false,
          "internalType": "uint64",
          "name": "version",
          "type": "uint64"
        }
      ],
      "name": "Initialized",
      "type": "event"
    },
    {
      "anonymous": false,
      "inputs": [
        {
          "indexed": true,
          "internalType": "address",
          "name": "previousOwner",
          "type": "address"
        },
        {
          "indexed": true,
          "internalType": "address",
          "name": "newOwner",
          "type": "address"
        }
      ],
      "name": "OwnershipTransferred",
      "type": "event"
    },
    {
      "anonymous": false,
      "inputs": [
        {
          "indexed": false,
          "internalType": "address",
          "name": "token",
          "type": "address"
        },
        {
          "indexed": false,
          "internalType": "address",
          "name": "inviter",
          "type": "address"
        },
        {
          "indexed": false,
          "internalType": "address",
          "name": "invitee",
          "type": "address"
        }
      ],
      "name": "addInviterRelation",
      "type": "event"
    },
    {
      "anonymous": false,
      "inputs": [
        {
          "indexed": false,
          "internalType": "address",
          "name": "token",
          "type": "address"
        },
        {
          "indexed": false,
          "internalType": "address",
          "name": "agent",
          "type": "address"
        },
        {
          "indexed": false,
          "internalType": "bool",
          "name": "approval",
          "type": "bool"
        }
      ],
      "name": "setTokenTopAgent",
      "type": "event"
    },
    {
      "stateMutability": "nonpayable",
      "type": "fallback"
    },
    {
      "inputs": [],
      "name": "commonCommissionRate",
      "outputs": [
        {
          "internalType": "uint256",
          "name": "",
          "type": "uint256"
        }
      ],
      "stateMutability": "view",
      "type": "function"
    },
    {
      "inputs": [
        {
          "internalType": "address",
          "name": "_token",
          "type": "address"
        },
        {
          "internalType": "address",
          "name": "_invitee",
          "type": "address"
        },
        {
          "internalType": "uint256",
          "name": "_tradeFee",
          "type": "uint256"
        }
      ],
      "name": "getAgentTradeFee",
      "outputs": [
        {
          "internalType": "address",
          "name": "",
          "type": "address"
        },
        {
          "internalType": "uint256",
          "name": "",
          "type": "uint256"
        },
        {
          "internalType": "address",
          "name": "",
          "type": "address"
        },
        {
          "internalType": "uint256",
          "name": "",
          "type": "uint256"
        }
      ],
      "stateMutability": "nonpayable",
      "type": "function"
    },
    {
      "inputs": [],
      "name": "getAgents",
      "outputs": [
        {
          "internalType": "address[]",
          "name": "",
          "type": "address[]"
        }
      ],
      "stateMutability": "view",
      "type": "function"
    },
    {
      "inputs": [
        {
          "internalType": "address",
          "name": "_inviter",
          "type": "address"
        },
        {
          "internalType": "address",
          "name": "_token",
          "type": "address"
        }
      ],
      "name": "getCommissionByInviter",
      "outputs": [
        {
          "internalType": "uint256",
          "name": "",
          "type": "uint256"
        }
      ],
      "stateMutability": "view",
      "type": "function"
    },
    {
      "inputs": [
        {
          "internalType": "address",
          "name": "_inviter",
          "type": "address"
        },
        {
          "internalType": "address",
          "name": "_invitee",
          "type": "address"
        },
        {
          "internalType": "address",
          "name": "_token",
          "type": "address"
        }
      ],
      "name": "getCommissionByInviterAndInvitee",
      "outputs": [
        {
          "internalType": "uint256",
          "name": "",
          "type": "uint256"
        }
      ],
      "stateMutability": "view",
      "type": "function"
    },
    {
      "inputs": [
        {
          "internalType": "address",
          "name": "_inviter",
          "type": "address"
        }
      ],
      "name": "getInviter",
      "outputs": [
        {
          "internalType": "address",
          "name": "",
          "type": "address"
        },
        {
          "internalType": "address[]",
          "name": "",
          "type": "address[]"
        }
      ],
      "stateMutability": "view",
      "type": "function"
    },
    {
      "inputs": [],
      "name": "getTopAgents",
      "outputs": [
        {
          "internalType": "address[]",
          "name": "",
          "type": "address[]"
        }
      ],
      "stateMutability": "view",
      "type": "function"
    },
    {
      "inputs": [],
      "name": "initialize",
      "outputs": [],
      "stateMutability": "nonpayable",
      "type": "function"
    },
    {
      "inputs": [],
      "name": "owner",
      "outputs": [
        {
          "internalType": "address",
          "name": "",
          "type": "address"
        }
      ],
      "stateMutability": "view",
      "type": "function"
    },
    {
      "inputs": [
        {
          "internalType": "address",
          "name": "_inviter",
          "type": "address"
        },
        {
          "internalType": "address",
          "name": "_invitee",
          "type": "address"
        }
      ],
      "name": "relateInviteeToInviter",
      "outputs": [],
      "stateMutability": "nonpayable",
      "type": "function"
    },
    {
      "inputs": [
        {
          "internalType": "address",
          "name": "",
          "type": "address"
        }
      ],
      "name": "relationShip",
      "outputs": [
        {
          "internalType": "address",
          "name": "",
          "type": "address"
        }
      ],
      "stateMutability": "view",
      "type": "function"
    },
    {
      "inputs": [],
      "name": "renounceOwnership",
      "outputs": [],
      "stateMutability": "nonpayable",
      "type": "function"
    },
    {
      "inputs": [
        {
          "internalType": "uint256",
          "name": "commonRate",
          "type": "uint256"
        },
        {
          "internalType": "uint256",
          "name": "topRate",
          "type": "uint256"
        }
      ],
      "name": "setCommissionRate",
      "outputs": [],
      "stateMutability": "nonpayable",
      "type": "function"
    },
    {
      "inputs": [
        {
          "internalType": "address",
          "name": "_addr",
          "type": "address"
        },
        {
          "internalType": "address",
          "name": "_keeper",
          "type": "address"
        }
      ],
      "name": "setKeepers",
      "outputs": [],
      "stateMutability": "nonpayable",
      "type": "function"
    },
    {
      "inputs": [
        {
          "internalType": "address[]",
          "name": "_token",
          "type": "address[]"
        },
        {
          "internalType": "address[]",
          "name": "_topAgent",
          "type": "address[]"
        },
        {
          "internalType": "bool[]",
          "name": "_approval",
          "type": "bool[]"
        }
      ],
      "name": "setTokenTopAgentCommission",
      "outputs": [],
      "stateMutability": "nonpayable",
      "type": "function"
    },
    {
      "inputs": [],
      "name": "topCommissionRate",
      "outputs": [
        {
          "internalType": "uint256",
          "name": "",
          "type": "uint256"
        }
      ],
      "stateMutability": "view",
      "type": "function"
    },
    {
      "inputs": [
        {
          "internalType": "address",
          "name": "newOwner",
          "type": "address"
        }
      ],
      "name": "transferOwnership",
      "outputs": [],
      "stateMutability": "nonpayable",
      "type": "function"
    }
  ],
  "bytecode": "0x6080806040523460155761171e908161001a8239f35b5f80fdfe608080604052600436101561001b575b503461001757005b5f80fd5b5f905f3560e01c908163147df88714610b6e575080632a46570d14610b515780632b00020614610adc578063345d547514610a8557806351aeb08c14610a5957806358c7eaa7146109cc57806360653c8e1461094e578063715018a6146108aa57806375e97217146108365780638129fc1c146105fd5780638da5cb5b146105b75780639594bd1b14610548578063b5f101de1461052a578063d216ce6f1461047c578063eac3fda414610404578063eb410b001461010d5763f2fde38b0361000f573461010a57602060031936011261010a576101076100fa610bab565b6101026114a5565b6113dd565b80f35b80fd5b503461010a57606060031936011261010a5760043567ffffffffffffffff81116104005761013f903690600401610c80565b9060243567ffffffffffffffff811161040057610160903690600401610c80565b906044359267ffffffffffffffff8411610400573660238501121561040057836004013561018d81610c68565b9461019b6040519687610c13565b8186526024602087019260051b820101903682116103fc57602401915b8183106103df5750505033825260046020526101da60ff604084205416610cee565b80518351811490816103d4575b501561039057815b815181101561038c576001600160a01b0361020a82866113c9565b51169061021781876113c9565b51156103375781845260076020526001600160a01b03604085205416158015610319575b156102d5577f58daedee5dc215cca98174bbd6b4c560b6e4bc10ae4c8bd0c9c56e507350da946060836001948752600660205261028f604088206001600160a01b03610287878a6113c9565b511690611690565b5061029981611636565b505b6001600160a01b036102ad85886113c9565b5116906102ba858b6113c9565b5115159060405192835260208301526040820152a1016101ef565b606460405162461bcd60e51b815260206004820152601660248201527f746f70206167656e74206973206120696e7669746565000000000000000000006044820152fd5b508184526007602052816001600160a01b036040862054161461023b565b7f58daedee5dc215cca98174bbd6b4c560b6e4bc10ae4c8bd0c9c56e507350da9460608360019487526006602052610386604088206001600160a01b0361037e878a6113c9565b51169061155b565b5061029b565b8280f35b606460405162461bcd60e51b815260206004820152601960248201527f6172726179206c656e67746820697320696e636f7272656374000000000000006044820152fd5b90508451145f6101e7565b823580151581036103f8578152602092830192016101b8565b8580fd5b8480fd5b5080fd5b503461010a578060031936011261010a57604051600154808252602082019060015f5260205f20905f5b81811061045d576104598561044581870382610c13565b604051918291602083526020830190610bd7565b0390f35b82546001600160a01b031684526020909301926001928301920161042e565b503461010a57602060031936011261010a5760016001600160a01b036040816104a3610bab565b169384815260056020528181209481526007602052205416910190604051918281549182825260208201905f5260205f20925f5b8181106105085750506104ec92500383610c13565b6104596040519283928352604060208401526040830190610bd7565b84546001600160a01b03168352600194850194879450602090930192016104d7565b503461010a578060031936011261010a576020600954604051908152f35b503461010a57606060031936011261010a576001600160a01b0361059a608092610570610bab565b9061059160ff6040610580610bc1565b933381526004602052205416610cee565b604435916110bb565b929391826040519516855260208501521660408301526060820152f35b503461010a578060031936011261010a5760206001600160a01b037f9016d09d72d40fdae2fd8ceac6b6234c7706214fd39c1cd1e609a0528c1993005416604051908152f35b34610017575f600319360112610017577ff0c57e16840df040f15088dc2f81fe391c3923bec73e23a9662efc9c229c6a005460ff8160401c16159067ffffffffffffffff81168015908161082e575b6001149081610824575b15908161081b575b506107f3578160017fffffffffffffffffffffffffffffffffffffffffffffffff00000000000000008316177ff0c57e16840df040f15088dc2f81fe391c3923bec73e23a9662efc9c229c6a005561079e575b506106ba611504565b6106c2611504565b6106cb336113dd565b335f52600460205260405f20600160ff19825416179055670de0b6b3a76400005f5567016345785d8a00006008556706f05b59d3b2000060095561070b57005b7fffffffffffffffffffffffffffffffffffffffffffffff00ffffffffffffffff7ff0c57e16840df040f15088dc2f81fe391c3923bec73e23a9662efc9c229c6a0054167ff0c57e16840df040f15088dc2f81fe391c3923bec73e23a9662efc9c229c6a00557fc7f505b2f371ae2175ee4913f4499e1f2633a7b5936321eed1cdaeb6115181d2602060405160018152a1005b7fffffffffffffffffffffffffffffffffffffffffffffff0000000000000000001668010000000000000001177ff0c57e16840df040f15088dc2f81fe391c3923bec73e23a9662efc9c229c6a0055816106b1565b7ff92ee8a9000000000000000000000000000000000000000000000000000000005f5260045ffd5b9050158361065e565b303b159150610656565b83915061064c565b34610017575f6003193601126100175760405180602060025491828152019060025f527f405787fa12a823e0f2b7631cc41b3ba8828b3321ca811111fa75cd3aa3bb5ace905f5b818110610894576104598561044581870382610c13565b825484526020909301926001928301920161087d565b34610017575f600319360112610017576108c26114a5565b5f6001600160a01b037f9016d09d72d40fdae2fd8ceac6b6234c7706214fd39c1cd1e609a0528c1993005473ffffffffffffffffffffffffffffffffffffffff1981167f9016d09d72d40fdae2fd8ceac6b6234c7706214fd39c1cd1e609a0528c19930055167f8be0079c531659141344cd1fd0a4f28419497f9722a3daafe3b4186f6b6457e08280a3005b3461001757606060031936011261001757610967610bab565b61096f610bc1565b90604435906001600160a01b0382168203610017576001600160a01b03165f5260056020526001600160a01b03600360405f200191165f526020526001600160a01b0360405f2091165f52602052602060405f2054604051908152f35b346100175760406003193601126100175760043560243590335f5260046020526109fc60ff60405f205416610cee565b610a068282611069565b5f5410610a1557600855600955005b606460405162461bcd60e51b815260206004820152600d60248201527f72617465206973206c61726765000000000000000000000000000000000000006044820152fd5b3461001757604060031936011261001757610a83610a75610bab565b610a7d610bc1565b90610d88565b005b3461001757604060031936011261001757610a9e610bab565b6001600160a01b03610aae610bc1565b91165f5260056020526001600160a01b03600460405f200191165f52602052602060405f2054604051908152f35b34610017576040600319360112610017576001600160a01b03610afd610bab565b81610b06610bc1565b91335f526004602052610b1f60ff60405f205416610cee565b165f52600460205260405f20600160ff19825416179055165f52600460205260405f20600160ff198254161790555f80f35b34610017575f600319360112610017576020600854604051908152f35b34610017576020600319360112610017576020906001600160a01b03610b92610bab565b165f52600782526001600160a01b0360405f2054168152f35b600435906001600160a01b038216820361001757565b602435906001600160a01b038216820361001757565b90602080835192838152019201905f5b818110610bf45750505090565b82516001600160a01b0316845260209384019390920191600101610be7565b90601f7fffffffffffffffffffffffffffffffffffffffffffffffffffffffffffffffe0910116810190811067ffffffffffffffff821117610c5457604052565b634e487b7160e01b5f52604160045260245ffd5b67ffffffffffffffff8111610c545760051b60200190565b9080601f8301121561001757813590610c9882610c68565b92610ca66040519485610c13565b82845260208085019360051b82010191821161001757602001915b818310610cce5750505090565b82356001600160a01b038116810361001757815260209283019201610cc1565b15610cf557565b608460405162461bcd60e51b815260206004820152602160248201527f63616c6c6572206973206e6f74206d61726b6574206167656e74206b6565706560448201527f72000000000000000000000000000000000000000000000000000000000000006064820152fd5b8054821015610d74575f5260205f2001905f90565b634e487b7160e01b5f52603260045260245ffd5b6001600160a01b03169081151580611057575b15611013573382148015611001575b15610f97576001600160a01b031690815f5260076020526001600160a01b0360405f205416610f9357815f52600360205260405f2054610f4f57805f52600560205260405f20805460ff811615610f00575b506002810190835f528160205260ff60405f20541615610e52575b50506060907fe66486be5ed1d152eae7e1b2956d4b81071d0b994ee0037c801facba641126bc92604051915f835260208301526040820152a1565b6001018054909390929168010000000000000000841015610c5457610ea0847fe66486be5ed1d152eae7e1b2956d4b81071d0b994ee0037c801facba641126bc966001606097018155610d5f565b81549060031b906001600160a01b0385831b921b1916179055815f5260205260405f20600160ff19825416179055805f52600760205260405f208273ffffffffffffffffffffffffffffffffffffffff1982541617905592819250610e17565b60ff196001911617815560015468010000000000000000811015610c5457806001610f3092016001556001610d5f565b81549060031b906001600160a01b0385831b921b19161790555f610dfc565b606460405162461bcd60e51b815260206004820152601460248201527f696e766974656520697320746f70206167656e740000000000000000000000006044820152fd5b5050565b608460405162461bcd60e51b815260206004820152602360248201527f496e76616c6964207265636f6d6d656e646174696f6e2072656c6174696f6e7360448201527f68697000000000000000000000000000000000000000000000000000000000006064820152fd5b50336001600160a01b03821614610daa565b606460405162461bcd60e51b815260206004820152601760248201527f696e76616c696420696e766974656520616464726573730000000000000000006044820152fd5b506001600160a01b0381161515610d9b565b9190820180921161107657565b634e487b7160e01b5f52601160045260245ffd5b8181029291811591840414171561107657565b81156110a7570490565b634e487b7160e01b5f52601260045260245ffd5b9190916001600160a01b038316801515806113b7575b1561137357805f5260076020526001600160a01b0360405f20541680155f14611153575090611123915f5260066020526001600160a01b0360405f209116906001915f520160205260405f2054151590565b6111335750505f905f905f905f90565b61114361114b916009549061108a565b5f549061109d565b5f925f929190565b809294505f95939552600560205260405f209360085491600461117c611143600954958a61108a565b96600381016001600160a01b0385165f528060205260405f20845f526020526111a98960405f2054611069565b906001600160a01b0386165f5260205260405f20845f5260205260405f2055016001600160a01b0383165f52806020526111e78760405f2054611069565b906001600160a01b0384165f5260205260405f2055835f52600660205261122a6001600160a01b0360405f20931680936001915f520160205260405f2054151590565b156113575783915b5f925b6001600160a01b03811690811561134857815f52600560205260405f20825f5260066020526112758460405f206001915f520160205260405f2054151590565b8061133d575b6112c25750505f5260076020526001600160a01b0360405f20541692600a81116112b0575f1981146110765760010192611235565b5050505050909192505b91905f905f90565b92945097986112db91506004939796956111439161108a565b956003820190845f528160205260405f20815f526020526113008860405f2054611069565b91855f5260205260405f20905f5260205260405f205501815f528060205261132c8560405f2054611069565b915f5260205260405f205593929190565b5060ff81541661127b565b505050505050909192506112ba565b835f5260076020526001600160a01b0360405f20541691611232565b606460405162461bcd60e51b815260206004820152600f60248201527f61646472657373206973207a65726f00000000000000000000000000000000006044820152fd5b506001600160a01b03821615156110d1565b8051821015610d745760209160051b010190565b6001600160a01b03168015611479576001600160a01b037f9016d09d72d40fdae2fd8ceac6b6234c7706214fd39c1cd1e609a0528c199300548273ffffffffffffffffffffffffffffffffffffffff198216177f9016d09d72d40fdae2fd8ceac6b6234c7706214fd39c1cd1e609a0528c19930055167f8be0079c531659141344cd1fd0a4f28419497f9722a3daafe3b4186f6b6457e05f80a3565b7f1e4fbdf7000000000000000000000000000000000000000000000000000000005f525f60045260245ffd5b6001600160a01b037f9016d09d72d40fdae2fd8ceac6b6234c7706214fd39c1cd1e609a0528c199300541633036114d857565b7f118cdaa7000000000000000000000000000000000000000000000000000000005f523360045260245ffd5b60ff7ff0c57e16840df040f15088dc2f81fe391c3923bec73e23a9662efc9c229c6a005460401c161561153357565b7fd7e6bcf8000000000000000000000000000000000000000000000000000000005f5260045ffd5b906001820191815f528260205260405f20548015155f1461162e575f1981018181116110765782545f19810191908211611076578181036115e3575b505050805480156115cf575f1901906115b08282610d5f565b8154905f199060031b1b19169055555f526020525f6040812055600190565b634e487b7160e01b5f52603160045260245ffd5b6116196115f36116039386610d5f565b90549060031b1c92839286610d5f565b819391549060031b91821b915f19901b19161790565b90555f528360205260405f20555f8080611597565b505050505f90565b805f52600360205260405f2054155f1461168b5760025468010000000000000000811015610c54576116746116038260018594016002556002610d5f565b9055600254905f52600360205260405f2055600190565b505f90565b5f8281526001820160205260409020546116e25780549068010000000000000000821015610c5457826116cd611603846001809601855584610d5f565b90558054925f520160205260405f2055600190565b50505f9056fea26469706673582212206c9ded17b8d72f2df527ca34aa63350eb7a8ca6bb7651033535f22dfcdddb00964736f6c634300081c0033",
  "linkReferences": {},
  "deployedLinkReferences": {}
}