{
  "_format": "hh-sol-artifact-1",
  "contractName": "MarketAgent",
  "sourceName": "contracts/MarketAgent.sol",
  "abi": [
    {
      "inputs": [],
      "name": "InvalidInitialization",
      "type": "error"
    },
    {
      "inputs": [],
      "name": "NotInitializing",
      "type": "error"
    },
    {
      "inputs": [
        {
          "internalType": "address",
          "name": "owner",
          "type": "address"
        }
      ],
      "name": "OwnableInvalidOwner",
      "type": "error"
    },
    {
      "inputs": [
        {
          "internalType": "address",
          "name": "account",
          "type": "address"
        }
      ],
      "name": "OwnableUnauthorizedAccount",
      "type": "error"
    },
    {
      "anonymous": false,
      "inputs": [
        {
          "indexed": false,
          "internalType": "uint64",
          "name": "version",
          "type": "uint64"
        }
      ],
      "name": "Initialized",
      "type": "event"
    },
    {
      "anonymous": false,
      "inputs": [
        {
          "indexed": true,
          "internalType": "address",
          "name": "previousOwner",
          "type": "address"
        },
        {
          "indexed": true,
          "internalType": "address",
          "name": "newOwner",
          "type": "address"
        }
      ],
      "name": "OwnershipTransferred",
      "type": "event"
    },
    {
      "anonymous": false,
      "inputs": [
        {
          "indexed": false,
          "internalType": "address",
          "name": "token",
          "type": "address"
        },
        {
          "indexed": false,
          "internalType": "address",
          "name": "inviter",
          "type": "address"
        },
        {
          "indexed": false,
          "internalType": "address",
          "name": "invitee",
          "type": "address"
        }
      ],
      "name": "addInviterRelation",
      "type": "event"
    },
    {
      "anonymous": false,
      "inputs": [
        {
          "indexed": false,
          "internalType": "address",
          "name": "token",
          "type": "address"
        },
        {
          "indexed": false,
          "internalType": "address",
          "name": "agent",
          "type": "address"
        },
        {
          "indexed": false,
          "internalType": "bool",
          "name": "approval",
          "type": "bool"
        }
      ],
      "name": "setTokenTopAgent",
      "type": "event"
    },
    {
      "stateMutability": "nonpayable",
      "type": "fallback"
    },
    {
      "inputs": [
        {
          "internalType": "address",
          "name": "_token",
          "type": "address"
        },
        {
          "internalType": "address",
          "name": "_inviter",
          "type": "address"
        },
        {
          "internalType": "address",
          "name": "_invitee",
          "type": "address"
        },
        {
          "internalType": "uint256",
          "name": "_tradeFee",
          "type": "uint256"
        }
      ],
      "name": "addInviteRelationAndCalc",
      "outputs": [
        {
          "internalType": "address",
          "name": "",
          "type": "address"
        },
        {
          "internalType": "uint256",
          "name": "",
          "type": "uint256"
        },
        {
          "internalType": "address",
          "name": "",
          "type": "address"
        },
        {
          "internalType": "uint256",
          "name": "",
          "type": "uint256"
        }
      ],
      "stateMutability": "nonpayable",
      "type": "function"
    },
    {
      "inputs": [],
      "name": "commonCommissionRate",
      "outputs": [
        {
          "internalType": "uint256",
          "name": "",
          "type": "uint256"
        }
      ],
      "stateMutability": "view",
      "type": "function"
    },
    {
      "inputs": [],
      "name": "getAgents",
      "outputs": [
        {
          "internalType": "address[]",
          "name": "",
          "type": "address[]"
        }
      ],
      "stateMutability": "view",
      "type": "function"
    },
    {
      "inputs": [
        {
          "internalType": "address",
          "name": "_inviter",
          "type": "address"
        },
        {
          "internalType": "address",
          "name": "_token",
          "type": "address"
        }
      ],
      "name": "getCommissionByInviter",
      "outputs": [
        {
          "internalType": "uint256",
          "name": "",
          "type": "uint256"
        }
      ],
      "stateMutability": "view",
      "type": "function"
    },
    {
      "inputs": [
        {
          "internalType": "address",
          "name": "_inviter",
          "type": "address"
        },
        {
          "internalType": "address",
          "name": "_invitee",
          "type": "address"
        },
        {
          "internalType": "address",
          "name": "_token",
          "type": "address"
        }
      ],
      "name": "getCommissionByInviterAndInvitee",
      "outputs": [
        {
          "internalType": "uint256",
          "name": "",
          "type": "uint256"
        }
      ],
      "stateMutability": "view",
      "type": "function"
    },
    {
      "inputs": [
        {
          "internalType": "address",
          "name": "_inviter",
          "type": "address"
        }
      ],
      "name": "getInviter",
      "outputs": [
        {
          "internalType": "address",
          "name": "",
          "type": "address"
        },
        {
          "internalType": "address[]",
          "name": "",
          "type": "address[]"
        }
      ],
      "stateMutability": "view",
      "type": "function"
    },
    {
      "inputs": [],
      "name": "initialize",
      "outputs": [],
      "stateMutability": "nonpayable",
      "type": "function"
    },
    {
      "inputs": [],
      "name": "owner",
      "outputs": [
        {
          "internalType": "address",
          "name": "",
          "type": "address"
        }
      ],
      "stateMutability": "view",
      "type": "function"
    },
    {
      "inputs": [
        {
          "internalType": "address",
          "name": "_inviter",
          "type": "address"
        },
        {
          "internalType": "address",
          "name": "_invitee",
          "type": "address"
        }
      ],
      "name": "relateInviteeToInviter",
      "outputs": [],
      "stateMutability": "nonpayable",
      "type": "function"
    },
    {
      "inputs": [
        {
          "internalType": "address",
          "name": "",
          "type": "address"
        }
      ],
      "name": "relationShip",
      "outputs": [
        {
          "internalType": "address",
          "name": "",
          "type": "address"
        }
      ],
      "stateMutability": "view",
      "type": "function"
    },
    {
      "inputs": [],
      "name": "renounceOwnership",
      "outputs": [],
      "stateMutability": "nonpayable",
      "type": "function"
    },
    {
      "inputs": [
        {
          "internalType": "uint256",
          "name": "commonRate",
          "type": "uint256"
        },
        {
          "internalType": "uint256",
          "name": "topRate",
          "type": "uint256"
        }
      ],
      "name": "setCommissionRate",
      "outputs": [],
      "stateMutability": "nonpayable",
      "type": "function"
    },
    {
      "inputs": [
        {
          "internalType": "address",
          "name": "_addr",
          "type": "address"
        },
        {
          "internalType": "address",
          "name": "_keeper",
          "type": "address"
        }
      ],
      "name": "setKeepers",
      "outputs": [],
      "stateMutability": "nonpayable",
      "type": "function"
    },
    {
      "inputs": [
        {
          "internalType": "address[]",
          "name": "_token",
          "type": "address[]"
        },
        {
          "internalType": "address[]",
          "name": "_topAgent",
          "type": "address[]"
        },
        {
          "internalType": "bool[]",
          "name": "_approval",
          "type": "bool[]"
        }
      ],
      "name": "setTokenTopAgentCommission",
      "outputs": [],
      "stateMutability": "nonpayable",
      "type": "function"
    },
    {
      "inputs": [],
      "name": "topCommissionRate",
      "outputs": [
        {
          "internalType": "uint256",
          "name": "",
          "type": "uint256"
        }
      ],
      "stateMutability": "view",
      "type": "function"
    },
    {
      "inputs": [
        {
          "internalType": "address",
          "name": "newOwner",
          "type": "address"
        }
      ],
      "name": "transferOwnership",
      "outputs": [],
      "stateMutability": "nonpayable",
      "type": "function"
    }
  ],
  "bytecode": "0x60808060405234601557611679908161001b8239f35b600080fdfe608080604052600436101561001c575b503461001757005b600080fd5b600090813560e01c908163147df88714610adf575080632a46570d14610ac15780632b00020614610a4c578063345d5475146109f757806351aeb08c146109cc57806358c7eaa71461093d57806360653c8e146108ce578063715018a6146108285780638129fc1c146105e85780638da5cb5b146105a2578063b5f101de14610584578063d216ce6f146104d3578063eac3fda414610458578063eb410b001461017b578063f1a78eff146101045763f2fde38b0361000f5734610101576020600319360112610101576100fe6100f1610b16565b6100f9611444565b611378565b80f35b80fd5b5034610101576080600319360112610101576001600160a01b0361015e60809261012c610b16565b90610135610b2c565b61015560ff6040610144610b42565b943381526002602052205416610c72565b60643592610fbf565b929391826040519516855260208501521660408301526060820152f35b50346101015760606003193601126101015760043567ffffffffffffffff8111610454576101ad903690600401610c04565b60243567ffffffffffffffff8111610450576101cd903690600401610c04565b906044359267ffffffffffffffff841161010157366023850112156101015783600401356101fa81610bec565b946102086040519687610b95565b8186526024602087019260051b8201019036821161044c57602401915b81831061042f57505050338152600260205261024760ff604083205416610c72565b8151835181149081610424575b50156103e057805b82518110156103dc5761026f8186610fab565b5115610397576001600160a01b036102878286610fab565b5116825260056020526001600160a01b0360408320541661035357806001600160a01b036102b760019387610fab565b5116835260046020526102e1604084206001600160a01b036102d98488610fab565b5116906115e7565b505b7f58daedee5dc215cca98174bbd6b4c560b6e4bc10ae4c8bd0c9c56e507350da9460606001600160a01b036103188488610fab565b51166001600160a01b0361032c858a610fab565b5116610338858b610fab565b5115159060405192835260208301526040820152a10161025c565b606460405162461bcd60e51b815260206004820152601660248201527f746f70206167656e74206973206120696e7669746565000000000000000000006044820152fd5b806001600160a01b036103ac60019387610fab565b5116835260046020526103d6604084206001600160a01b036103ce8488610fab565b5116906114fe565b506102e3565b5080f35b606460405162461bcd60e51b815260206004820152601960248201527f6172726179206c656e67746820697320696e636f7272656374000000000000006044820152fd5b905084511438610254565b8235801515810361044857815260209283019201610225565b8480fd5b8380fd5b8280fd5b5080fd5b50346101015780600319360112610101576040516001548082526020820190600160005260206000209060005b8181106104b4576104b08561049c81870382610b95565b604051918291602083526020830190610b58565b0390f35b82546001600160a01b0316845260209093019260019283019201610485565b50346101015760206003193601126101015760016001600160a01b036040816104fa610b16565b1693848152600360205281812094815260056020522054169101906040519182815491828252602082019060005260206000209260005b81811061056257505061054692500383610b95565b6104b06040519283928352604060208401526040830190610b58565b84546001600160a01b0316835260019485019487945060209093019201610531565b50346101015780600319360112610101576020600754604051908152f35b503461010157806003193601126101015760206001600160a01b037f9016d09d72d40fdae2fd8ceac6b6234c7706214fd39c1cd1e609a0528c1993005416604051908152f35b50346101015780600319360112610101577ff0c57e16840df040f15088dc2f81fe391c3923bec73e23a9662efc9c229c6a00549060ff8260401c16159167ffffffffffffffff811680159081610820575b6001149081610816575b15908161080d575b506107e5578260017fffffffffffffffffffffffffffffffffffffffffffffffff00000000000000008316177ff0c57e16840df040f15088dc2f81fe391c3923bec73e23a9662efc9c229c6a0055610790575b506106a76114a5565b6106af6114a5565b6106b833611378565b338152600260205260408120805460ff19166001179055670de0b6b3a7640000905567016345785d8a00006006556706f05b59d3b200006007556000906106fc5780f35b7fffffffffffffffffffffffffffffffffffffffffffffff00ffffffffffffffff7ff0c57e16840df040f15088dc2f81fe391c3923bec73e23a9662efc9c229c6a0054167ff0c57e16840df040f15088dc2f81fe391c3923bec73e23a9662efc9c229c6a00557fc7f505b2f371ae2175ee4913f4499e1f2633a7b5936321eed1cdaeb6115181d2602060405160018152a180f35b7fffffffffffffffffffffffffffffffffffffffffffffff0000000000000000001668010000000000000001177ff0c57e16840df040f15088dc2f81fe391c3923bec73e23a9662efc9c229c6a00553861069e565b6004827ff92ee8a9000000000000000000000000000000000000000000000000000000008152fd5b9050153861064b565b303b159150610643565b849150610639565b5034610101578060031936011261010157610841611444565b806001600160a01b037f9016d09d72d40fdae2fd8ceac6b6234c7706214fd39c1cd1e609a0528c1993005473ffffffffffffffffffffffffffffffffffffffff1981167f9016d09d72d40fdae2fd8ceac6b6234c7706214fd39c1cd1e609a0528c19930055167f8be0079c531659141344cd1fd0a4f28419497f9722a3daafe3b4186f6b6457e08280a380f35b50346101015760606003193601126101015760406020916108ed610b16565b6108f5610b2c565b906001600160a01b03610906610b42565b91168352600385526001600160a01b036003858520019116835284526001600160a01b038383209116825283522054604051908152f35b50346101015760406003193601126101015760043560243590338352600260205261096e60ff604085205416610c72565b6109788282610f55565b8354106109885760065560075580f35b606460405162461bcd60e51b815260206004820152600d60248201527f72617465206973206c61726765000000000000000000000000000000000000006044820152fd5b5034610101576040600319360112610101576100fe6109e9610b16565b6109f1610b2c565b90610d77565b5034610101576040600319360112610101576040602091610a16610b16565b6001600160a01b03610a26610b2c565b91168252600384526001600160a01b036004848420019116825283522054604051908152f35b5034610101576040600319360112610101576001600160a01b03610a6e610b16565b81610a77610b2c565b913385526002602052610a9060ff604087205416610c72565b168352600260205260408320600160ff19825416179055168152600260205260408120600160ff1982541617905580f35b50346101015780600319360112610101576020600654604051908152f35b905034610454576020600319360112610454576001600160a01b03604060209382610b08610b16565b168152600585522054168152f35b600435906001600160a01b038216820361001757565b602435906001600160a01b038216820361001757565b604435906001600160a01b038216820361001757565b906020808351928381520192019060005b818110610b765750505090565b82516001600160a01b0316845260209384019390920191600101610b69565b90601f7fffffffffffffffffffffffffffffffffffffffffffffffffffffffffffffffe0910116810190811067ffffffffffffffff821117610bd657604052565b634e487b7160e01b600052604160045260246000fd5b67ffffffffffffffff8111610bd65760051b60200190565b9080601f8301121561001757813590610c1c82610bec565b92610c2a6040519485610b95565b82845260208085019360051b82010191821161001757602001915b818310610c525750505090565b82356001600160a01b038116810361001757815260209283019201610c45565b15610c7957565b608460405162461bcd60e51b815260206004820152602160248201527f63616c6c6572206973206e6f74206d61726b6574206167656e74206b6565706560448201527f72000000000000000000000000000000000000000000000000000000000000006064820152fd5b8054821015610cfb5760005260206000200190600090565b634e487b7160e01b600052603260045260246000fd5b60015468010000000000000000811015610bd657806001610d3792016001556001610ce3565b6001600160a01b0380839493549260031b9316831b921b1916179055565b805468010000000000000000811015610bd657610d3791600182018155610ce3565b6001600160a01b03811680151580610f43575b15610eff576001600160a01b038316808214610ef9578060005260056020526001600160a01b0360406000205416610ef957806000526004602052604060002054610eb5577fe66486be5ed1d152eae7e1b2956d4b81071d0b994ee0037c801facba641126bc9360609383600052600360205260406000209081549060ff821615610e9c575b50506002810191836000528260205260ff6040600020541615610e46575b505050604051916000835260208301526040820152a1565b6001610e529201610d55565b816000526020526040600020600160ff1982541617905580600052600560205260406000208273ffffffffffffffffffffffffffffffffffffffff19825416179055388080610e2e565b600160ff19610eae9316178355610d11565b3880610e10565b606460405162461bcd60e51b815260206004820152601460248201527f696e766974656520697320746f70206167656e740000000000000000000000006044820152fd5b50505050565b606460405162461bcd60e51b815260206004820152601760248201527f696e76616c696420696e766974656520616464726573730000000000000000006044820152fd5b506001600160a01b0383161515610d8a565b91908201809211610f6257565b634e487b7160e01b600052601160045260246000fd5b81810292918115918404141715610f6257565b8115610f95570490565b634e487b7160e01b600052601260045260246000fd5b8051821015610cfb5760209160051b010190565b909291936001600160a01b0385169384151580611366575b15611322576001600160a01b03811692858414611311578560005260056020526001600160a01b036040600020541691600083156000146112fe575084156112d657846000526003602052611041604060002098895460ff8116156112e6575b5060018a01610d55565b86600052600288016020526040600020600160ff1982541617905586600052600560205260406000208573ffffffffffffffffffffffffffffffffffffffff198254161790557fe66486be5ed1d152eae7e1b2956d4b81071d0b994ee0037c801facba641126bc60606040516001600160a01b0385168152876020820152896040820152a15b85156112d657506004600654976110ed6110e46007549a89610f78565b60005490610f8b565b9760038201906001600160a01b0385166000528160205260406000208160005260205261111f8a604060002054610f55565b916001600160a01b038616600052602052604060002090600052602052604060002055016001600160a01b0382166000528060205261116387604060002054610f55565b906001600160a01b038316600052602052604060002055600082815260046020526111ac6001600160a01b03604083209316809360019160005201602052604060002054151590565b156112bb5750815b6001600160a01b0381169081156112ac5781600052600360205260406000208260005260046020526111fa84604060002060019160005201602052604060002054151590565b806112a1575b61122257505060005260056020526001600160a01b03604060002054166111b4565b909798600492506110e461123c9160409596979899610f78565b96836003830191816112648b828060008c815288602052206000908682526020522054610f55565b936000908982526020522060009182526020522055019161129086836000848152866020522054610f55565b926000918252602052205593929190565b5060ff815416611200565b50919650600094508493505050565b604081846001600160a01b03935260056020522054166111b4565b9650600095508594508493505050565b60ff19166001178a556112f883610d11565b38611037565b83815260036020526040902097506110c7565b506000955085945084935083925050565b606460405162461bcd60e51b815260206004820152600f60248201527f61646472657373206973207a65726f00000000000000000000000000000000006044820152fd5b506001600160a01b0383161515610fd7565b6001600160a01b03168015611415576001600160a01b037f9016d09d72d40fdae2fd8ceac6b6234c7706214fd39c1cd1e609a0528c199300548273ffffffffffffffffffffffffffffffffffffffff198216177f9016d09d72d40fdae2fd8ceac6b6234c7706214fd39c1cd1e609a0528c19930055167f8be0079c531659141344cd1fd0a4f28419497f9722a3daafe3b4186f6b6457e0600080a3565b7f1e4fbdf700000000000000000000000000000000000000000000000000000000600052600060045260246000fd5b6001600160a01b037f9016d09d72d40fdae2fd8ceac6b6234c7706214fd39c1cd1e609a0528c1993005416330361147757565b7f118cdaa7000000000000000000000000000000000000000000000000000000006000523360045260246000fd5b60ff7ff0c57e16840df040f15088dc2f81fe391c3923bec73e23a9662efc9c229c6a005460401c16156114d457565b7fd7e6bcf80000000000000000000000000000000000000000000000000000000060005260046000fd5b90600182019181600052826020526040600020548015156000146115de576000198101818111610f62578254906000198201918211610f6257818103611590575b5050508054801561157a5760001901906115598282610ce3565b60001982549160031b1b191690555560005260205260006040812055600190565b634e487b7160e01b600052603160045260246000fd5b6115c76115a06115b09386610ce3565b90549060031b1c92839286610ce3565b81939154906000199060031b92831b921b19161790565b90556000528360205260406000205538808061153f565b50505050600090565b600082815260018201602052604090205461163c5780549068010000000000000000821015610bd657826116256115b0846001809601855584610ce3565b905580549260005201602052604060002055600190565b505060009056fea26469706673582212204ed763f9e724bd252b22148f24e345d9198684bf9c1120f9b20f548664dafa8764736f6c634300081c0033",
  "linkReferences": {},
  "deployedLinkReferences": {}
}