{
  "_format": "hh-sol-artifact-1",
  "contractName": "OrderBook",
  "sourceName": "contracts/OrderBook.sol",
  "abi": [
    {
      "inputs": [],
      "name": "InvalidInitialization",
      "type": "error"
    },
    {
      "inputs": [],
      "name": "NotInitializing",
      "type": "error"
    },
    {
      "inputs": [
        {
          "internalType": "address",
          "name": "owner",
          "type": "address"
        }
      ],
      "name": "OwnableInvalidOwner",
      "type": "error"
    },
    {
      "inputs": [
        {
          "internalType": "address",
          "name": "account",
          "type": "address"
        }
      ],
      "name": "OwnableUnauthorizedAccount",
      "type": "error"
    },
    {
      "anonymous": false,
      "inputs": [
        {
          "indexed": false,
          "internalType": "address",
          "name": "token",
          "type": "address"
        },
        {
          "indexed": false,
          "internalType": "address",
          "name": "holder",
          "type": "address"
        },
        {
          "indexed": false,
          "internalType": "string",
          "name": "name",
          "type": "string"
        },
        {
          "indexed": false,
          "internalType": "enum ICommon.Direct",
          "name": "direct",
          "type": "uint8"
        },
        {
          "indexed": false,
          "internalType": "uint256",
          "name": "value",
          "type": "uint256"
        },
        {
          "indexed": false,
          "internalType": "uint256",
          "name": "size",
          "type": "uint256"
        },
        {
          "indexed": false,
          "internalType": "uint256",
          "name": "margin",
          "type": "uint256"
        },
        {
          "indexed": false,
          "internalType": "uint256",
          "name": "freeze",
          "type": "uint256"
        }
      ],
      "name": "AccountPosition",
      "type": "event"
    },
    {
      "anonymous": false,
      "inputs": [
        {
          "indexed": false,
          "internalType": "address",
          "name": "token",
          "type": "address"
        },
        {
          "indexed": false,
          "internalType": "address",
          "name": "taker",
          "type": "address"
        },
        {
          "indexed": false,
          "internalType": "uint256",
          "name": "amount",
          "type": "uint256"
        },
        {
          "indexed": false,
          "internalType": "uint256",
          "name": "availableAmount",
          "type": "uint256"
        },
        {
          "indexed": false,
          "internalType": "uint256",
          "name": "marginAmount",
          "type": "uint256"
        },
        {
          "indexed": false,
          "internalType": "uint256",
          "name": "locked",
          "type": "uint256"
        },
        {
          "indexed": false,
          "internalType": "uint256",
          "name": "stage",
          "type": "uint256"
        },
        {
          "indexed": false,
          "internalType": "uint256",
          "name": "dif",
          "type": "uint256"
        }
      ],
      "name": "BalanceOfTaker",
      "type": "event"
    },
    {
      "anonymous": false,
      "inputs": [
        {
          "indexed": false,
          "internalType": "string",
          "name": "name",
          "type": "string"
        },
        {
          "indexed": true,
          "internalType": "address",
          "name": "taker",
          "type": "address"
        },
        {
          "indexed": true,
          "internalType": "address",
          "name": "token",
          "type": "address"
        },
        {
          "indexed": false,
          "internalType": "uint256",
          "name": "orderID",
          "type": "uint256"
        },
        {
          "indexed": false,
          "internalType": "enum ICommon.Direct",
          "name": "orderType",
          "type": "uint8"
        },
        {
          "indexed": false,
          "internalType": "enum IPerpetual.OrderState",
          "name": "state",
          "type": "uint8"
        },
        {
          "indexed": false,
          "internalType": "enum ICommon.Offset",
          "name": "offset",
          "type": "uint8"
        },
        {
          "indexed": false,
          "internalType": "uint256",
          "name": "amount",
          "type": "uint256"
        },
        {
          "indexed": false,
          "internalType": "uint256",
          "name": "targetPrice",
          "type": "uint256"
        },
        {
          "indexed": false,
          "internalType": "uint256",
          "name": "margin",
          "type": "uint256"
        },
        {
          "indexed": false,
          "internalType": "uint256",
          "name": "rewardGas",
          "type": "uint256"
        },
        {
          "indexed": false,
          "internalType": "uint256",
          "name": "tradingFee",
          "type": "uint256"
        },
        {
          "indexed": false,
          "internalType": "uint256",
          "name": "startTime",
          "type": "uint256"
        },
        {
          "indexed": false,
          "internalType": "uint256",
          "name": "goodTill",
          "type": "uint256"
        }
      ],
      "name": "CreateLimitedOrder",
      "type": "event"
    },
    {
      "anonymous": false,
      "inputs": [
        {
          "indexed": false,
          "internalType": "uint256",
          "name": "limitOrderID",
          "type": "uint256"
        },
        {
          "indexed": false,
          "internalType": "uint256",
          "name": "openLimitPrice",
          "type": "uint256"
        },
        {
          "indexed": false,
          "internalType": "uint256",
          "name": "gainTriggerPrice",
          "type": "uint256"
        },
        {
          "indexed": false,
          "internalType": "uint256",
          "name": "gainLimitPrice",
          "type": "uint256"
        },
        {
          "indexed": false,
          "internalType": "uint256",
          "name": "lossTriggerPrice",
          "type": "uint256"
        },
        {
          "indexed": false,
          "internalType": "uint256",
          "name": "lossLimitPrice",
          "type": "uint256"
        }
      ],
      "name": "CreateTriggerCondition",
      "type": "event"
    },
    {
      "anonymous": false,
      "inputs": [
        {
          "indexed": false,
          "internalType": "uint256",
          "name": "code",
          "type": "uint256"
        },
        {
          "indexed": false,
          "internalType": "uint256",
          "name": "orderID",
          "type": "uint256"
        },
        {
          "indexed": false,
          "internalType": "string",
          "name": "message",
          "type": "string"
        }
      ],
      "name": "ErrorInfo",
      "type": "event"
    },
    {
      "anonymous": false,
      "inputs": [
        {
          "indexed": false,
          "internalType": "uint256",
          "name": "code",
          "type": "uint256"
        },
        {
          "indexed": false,
          "internalType": "uint256",
          "name": "orderID",
          "type": "uint256"
        },
        {
          "indexed": false,
          "internalType": "bytes",
          "name": "message",
          "type": "bytes"
        }
      ],
      "name": "ExceptErrorInfo",
      "type": "event"
    },
    {
      "anonymous": false,
      "inputs": [
        {
          "indexed": false,
          "internalType": "uint64",
          "name": "version",
          "type": "uint64"
        }
      ],
      "name": "Initialized",
      "type": "event"
    },
    {
      "anonymous": false,
      "inputs": [
        {
          "indexed": false,
          "internalType": "string",
          "name": "name",
          "type": "string"
        },
        {
          "indexed": true,
          "internalType": "address",
          "name": "taker",
          "type": "address"
        },
        {
          "indexed": true,
          "internalType": "address",
          "name": "token",
          "type": "address"
        },
        {
          "indexed": false,
          "internalType": "uint256",
          "name": "orderID",
          "type": "uint256"
        },
        {
          "indexed": false,
          "internalType": "enum ICommon.Direct",
          "name": "orderType",
          "type": "uint8"
        },
        {
          "indexed": false,
          "internalType": "enum IPerpetual.OrderState",
          "name": "state",
          "type": "uint8"
        },
        {
          "indexed": false,
          "internalType": "enum ICommon.Offset",
          "name": "offset",
          "type": "uint8"
        },
        {
          "indexed": false,
          "internalType": "uint256",
          "name": "amount",
          "type": "uint256"
        },
        {
          "indexed": false,
          "internalType": "uint256",
          "name": "targetPrice",
          "type": "uint256"
        },
        {
          "indexed": false,
          "internalType": "uint256",
          "name": "margin",
          "type": "uint256"
        },
        {
          "indexed": false,
          "internalType": "uint256",
          "name": "rewardGas",
          "type": "uint256"
        },
        {
          "indexed": false,
          "internalType": "uint256",
          "name": "tradingFee",
          "type": "uint256"
        },
        {
          "indexed": false,
          "internalType": "uint256",
          "name": "startTime",
          "type": "uint256"
        },
        {
          "indexed": false,
          "internalType": "uint256",
          "name": "goodTill",
          "type": "uint256"
        }
      ],
      "name": "LimitedOrderHistory",
      "type": "event"
    },
    {
      "anonymous": false,
      "inputs": [
        {
          "indexed": true,
          "internalType": "address",
          "name": "taker",
          "type": "address"
        },
        {
          "indexed": false,
          "internalType": "string",
          "name": "name",
          "type": "string"
        },
        {
          "indexed": false,
          "internalType": "address",
          "name": "token",
          "type": "address"
        },
        {
          "indexed": false,
          "internalType": "uint256",
          "name": "orderID",
          "type": "uint256"
        },
        {
          "indexed": false,
          "internalType": "enum ICommon.Direct",
          "name": "direction",
          "type": "uint8"
        },
        {
          "indexed": false,
          "internalType": "enum IPerpetual.OrderType",
          "name": "orderType",
          "type": "uint8"
        },
        {
          "indexed": false,
          "internalType": "uint256",
          "name": "amount",
          "type": "uint256"
        },
        {
          "indexed": false,
          "internalType": "uint256",
          "name": "costPrice",
          "type": "uint256"
        },
        {
          "indexed": false,
          "internalType": "uint256",
          "name": "price",
          "type": "uint256"
        },
        {
          "indexed": false,
          "internalType": "uint256",
          "name": "tradingFee",
          "type": "uint256"
        },
        {
          "indexed": false,
          "internalType": "uint256",
          "name": "leverage",
          "type": "uint256"
        },
        {
          "indexed": false,
          "internalType": "uint256",
          "name": "marginAmount",
          "type": "uint256"
        },
        {
          "indexed": false,
          "internalType": "uint256",
          "name": "limitOrderId",
          "type": "uint256"
        },
        {
          "indexed": false,
          "internalType": "uint256",
          "name": "timestamp",
          "type": "uint256"
        }
      ],
      "name": "OrderHistory",
      "type": "event"
    },
    {
      "anonymous": false,
      "inputs": [
        {
          "indexed": true,
          "internalType": "address",
          "name": "previousOwner",
          "type": "address"
        },
        {
          "indexed": true,
          "internalType": "address",
          "name": "newOwner",
          "type": "address"
        }
      ],
      "name": "OwnershipTransferred",
      "type": "event"
    },
    {
      "anonymous": false,
      "inputs": [
        {
          "indexed": false,
          "internalType": "address",
          "name": "",
          "type": "address"
        },
        {
          "indexed": false,
          "internalType": "bool",
          "name": "",
          "type": "bool"
        }
      ],
      "name": "SetKeeper",
      "type": "event"
    },
    {
      "anonymous": false,
      "inputs": [
        {
          "indexed": false,
          "internalType": "address",
          "name": "token",
          "type": "address"
        },
        {
          "indexed": false,
          "internalType": "uint256",
          "name": "orderID",
          "type": "uint256"
        },
        {
          "indexed": false,
          "internalType": "uint256",
          "name": "dealID",
          "type": "uint256"
        },
        {
          "indexed": false,
          "internalType": "enum IPerpetual.TradeType",
          "name": "tradeType",
          "type": "uint8"
        },
        {
          "indexed": false,
          "internalType": "uint256",
          "name": "amount",
          "type": "uint256"
        },
        {
          "indexed": false,
          "internalType": "uint256",
          "name": "price",
          "type": "uint256"
        },
        {
          "indexed": false,
          "internalType": "uint256",
          "name": "tradingFee",
          "type": "uint256"
        },
        {
          "indexed": false,
          "internalType": "uint256",
          "name": "leverage",
          "type": "uint256"
        },
        {
          "indexed": false,
          "internalType": "uint256",
          "name": "marginAmount",
          "type": "uint256"
        },
        {
          "indexed": false,
          "internalType": "uint256",
          "name": "profit",
          "type": "uint256"
        },
        {
          "indexed": false,
          "internalType": "uint256",
          "name": "loss",
          "type": "uint256"
        },
        {
          "indexed": false,
          "internalType": "uint256",
          "name": "timestamp",
          "type": "uint256"
        }
      ],
      "name": "TradeHistory",
      "type": "event"
    },
    {
      "anonymous": false,
      "inputs": [
        {
          "indexed": true,
          "internalType": "address",
          "name": "token",
          "type": "address"
        },
        {
          "indexed": true,
          "internalType": "address",
          "name": "sender",
          "type": "address"
        },
        {
          "indexed": true,
          "internalType": "address",
          "name": "received",
          "type": "address"
        },
        {
          "indexed": false,
          "internalType": "enum ICommon.TransactionType",
          "name": "transactionType",
          "type": "uint8"
        },
        {
          "indexed": false,
          "internalType": "uint256",
          "name": "amount",
          "type": "uint256"
        },
        {
          "indexed": false,
          "internalType": "uint256",
          "name": "timestamp",
          "type": "uint256"
        }
      ],
      "name": "TransactionHistory",
      "type": "event"
    },
    {
      "anonymous": false,
      "inputs": [
        {
          "indexed": false,
          "internalType": "uint8",
          "name": "direct",
          "type": "uint8"
        },
        {
          "indexed": false,
          "internalType": "uint256",
          "name": "price",
          "type": "uint256"
        },
        {
          "indexed": false,
          "internalType": "uint256",
          "name": "value",
          "type": "uint256"
        }
      ],
      "name": "indexPosition",
      "type": "event"
    },
    {
      "anonymous": false,
      "inputs": [
        {
          "indexed": false,
          "internalType": "address",
          "name": "token",
          "type": "address"
        },
        {
          "indexed": false,
          "internalType": "address",
          "name": "sender",
          "type": "address"
        },
        {
          "indexed": false,
          "internalType": "string",
          "name": "name",
          "type": "string"
        },
        {
          "indexed": false,
          "internalType": "uint256",
          "name": "beforeLeverage",
          "type": "uint256"
        },
        {
          "indexed": false,
          "internalType": "uint256",
          "name": "afterLeverage",
          "type": "uint256"
        }
      ],
      "name": "setLeverage",
      "type": "event"
    },
    {
      "stateMutability": "nonpayable",
      "type": "fallback"
    },
    {
      "inputs": [
        {
          "internalType": "uint256",
          "name": "_oid",
          "type": "uint256"
        },
        {
          "internalType": "address",
          "name": "_holder",
          "type": "address"
        },
        {
          "internalType": "bool",
          "name": "liquidated",
          "type": "bool"
        }
      ],
      "name": "cancelOrder",
      "outputs": [
        {
          "internalType": "address",
          "name": "token",
          "type": "address"
        },
        {
          "internalType": "uint256",
          "name": "lockedAmount",
          "type": "uint256"
        }
      ],
      "stateMutability": "nonpayable",
      "type": "function"
    },
    {
      "inputs": [
        {
          "internalType": "address",
          "name": "_token",
          "type": "address"
        },
        {
          "internalType": "address",
          "name": "_taker",
          "type": "address"
        },
        {
          "internalType": "string",
          "name": "_pair",
          "type": "string"
        },
        {
          "internalType": "enum ICommon.Direct",
          "name": "_type",
          "type": "uint8"
        },
        {
          "internalType": "uint256",
          "name": "_currentPrice",
          "type": "uint256"
        },
        {
          "internalType": "uint256",
          "name": "_deposit",
          "type": "uint256"
        }
      ],
      "name": "clearingTakerPosition",
      "outputs": [
        {
          "internalType": "uint256",
          "name": "deposit",
          "type": "uint256"
        }
      ],
      "stateMutability": "nonpayable",
      "type": "function"
    },
    {
      "inputs": [
        {
          "internalType": "uint256",
          "name": "_dealID",
          "type": "uint256"
        },
        {
          "internalType": "uint256",
          "name": "_amount",
          "type": "uint256"
        },
        {
          "internalType": "enum ICommon.Direct",
          "name": "_type",
          "type": "uint8"
        },
        {
          "internalType": "uint256",
          "name": "_currentPrice",
          "type": "uint256"
        },
        {
          "internalType": "uint256",
          "name": "_leverage",
          "type": "uint256"
        },
        {
          "internalType": "uint256",
          "name": "_tradeFeeRate",
          "type": "uint256"
        },
        {
          "internalType": "uint256",
          "name": "_releaseSize",
          "type": "uint256"
        }
      ],
      "name": "closeDeal",
      "outputs": [
        {
          "internalType": "uint256",
          "name": "profit",
          "type": "uint256"
        },
        {
          "internalType": "uint256",
          "name": "loss",
          "type": "uint256"
        },
        {
          "internalType": "uint256",
          "name": "margin",
          "type": "uint256"
        }
      ],
      "stateMutability": "nonpayable",
      "type": "function"
    },
    {
      "inputs": [
        {
          "internalType": "uint256",
          "name": "_start",
          "type": "uint256"
        },
        {
          "internalType": "uint256",
          "name": "_end",
          "type": "uint256"
        },
        {
          "internalType": "uint256",
          "name": "_count",
          "type": "uint256"
        }
      ],
      "name": "getActiveDeals",
      "outputs": [
        {
          "components": [
            {
              "internalType": "address",
              "name": "token",
              "type": "address"
            },
            {
              "internalType": "address payable",
              "name": "taker",
              "type": "address"
            },
            {
              "internalType": "enum ICommon.Direct",
              "name": "direct",
              "type": "uint8"
            },
            {
              "internalType": "enum ICommon.DealState",
              "name": "state",
              "type": "uint8"
            },
            {
              "internalType": "enum ICommon.Offset",
              "name": "offset",
              "type": "uint8"
            },
            {
              "internalType": "uint256",
              "name": "orderID",
              "type": "uint256"
            },
            {
              "internalType": "string",
              "name": "name",
              "type": "string"
            },
            {
              "internalType": "uint256",
              "name": "amount",
              "type": "uint256"
            },
            {
              "internalType": "uint256",
              "name": "price",
              "type": "uint256"
            },
            {
              "internalType": "uint256",
              "name": "leverage",
              "type": "uint256"
            },
            {
              "internalType": "uint256",
              "name": "margin",
              "type": "uint256"
            },
            {
              "internalType": "uint256",
              "name": "tradingFee",
              "type": "uint256"
            },
            {
              "internalType": "uint256",
              "name": "timestamp",
              "type": "uint256"
            }
          ],
          "internalType": "struct ICommon.Deal[]",
          "name": "info",
          "type": "tuple[]"
        },
        {
          "internalType": "uint256[]",
          "name": "ids",
          "type": "uint256[]"
        },
        {
          "internalType": "uint256",
          "name": "end",
          "type": "uint256"
        }
      ],
      "stateMutability": "view",
      "type": "function"
    },
    {
      "inputs": [
        {
          "internalType": "uint256",
          "name": "_start",
          "type": "uint256"
        },
        {
          "internalType": "uint256",
          "name": "_end",
          "type": "uint256"
        },
        {
          "internalType": "uint256",
          "name": "_count",
          "type": "uint256"
        }
      ],
      "name": "getActiveLimitedOrders",
      "outputs": [
        {
          "components": [
            {
              "internalType": "address",
              "name": "token",
              "type": "address"
            },
            {
              "internalType": "address payable",
              "name": "taker",
              "type": "address"
            },
            {
              "internalType": "enum ICommon.Direct",
              "name": "direct",
              "type": "uint8"
            },
            {
              "internalType": "enum IPerpetual.OrderState",
              "name": "state",
              "type": "uint8"
            },
            {
              "internalType": "enum ICommon.Offset",
              "name": "offset",
              "type": "uint8"
            },
            {
              "internalType": "string",
              "name": "name",
              "type": "string"
            },
            {
              "internalType": "uint256",
              "name": "amount",
              "type": "uint256"
            },
            {
              "internalType": "uint256",
              "name": "targetPrice",
              "type": "uint256"
            },
            {
              "internalType": "uint256",
              "name": "margin",
              "type": "uint256"
            },
            {
              "internalType": "uint256",
              "name": "tradingFee",
              "type": "uint256"
            },
            {
              "internalType": "uint256",
              "name": "rewardGas",
              "type": "uint256"
            },
            {
              "internalType": "uint256",
              "name": "startTime",
              "type": "uint256"
            },
            {
              "internalType": "uint256",
              "name": "goodTill",
              "type": "uint256"
            }
          ],
          "internalType": "struct IPerpetual.LimitedOrder[]",
          "name": "info",
          "type": "tuple[]"
        },
        {
          "internalType": "uint256[]",
          "name": "ids",
          "type": "uint256[]"
        },
        {
          "internalType": "uint256",
          "name": "end",
          "type": "uint256"
        }
      ],
      "stateMutability": "view",
      "type": "function"
    },
    {
      "inputs": [],
      "name": "getAndIncreaseOrderID",
      "outputs": [
        {
          "internalType": "uint256",
          "name": "length",
          "type": "uint256"
        }
      ],
      "stateMutability": "nonpayable",
      "type": "function"
    },
    {
      "inputs": [
        {
          "internalType": "uint256",
          "name": "id",
          "type": "uint256"
        }
      ],
      "name": "getDeal",
      "outputs": [
        {
          "components": [
            {
              "internalType": "address",
              "name": "token",
              "type": "address"
            },
            {
              "internalType": "address payable",
              "name": "taker",
              "type": "address"
            },
            {
              "internalType": "enum ICommon.Direct",
              "name": "direct",
              "type": "uint8"
            },
            {
              "internalType": "enum ICommon.DealState",
              "name": "state",
              "type": "uint8"
            },
            {
              "internalType": "enum ICommon.Offset",
              "name": "offset",
              "type": "uint8"
            },
            {
              "internalType": "uint256",
              "name": "orderID",
              "type": "uint256"
            },
            {
              "internalType": "string",
              "name": "name",
              "type": "string"
            },
            {
              "internalType": "uint256",
              "name": "amount",
              "type": "uint256"
            },
            {
              "internalType": "uint256",
              "name": "price",
              "type": "uint256"
            },
            {
              "internalType": "uint256",
              "name": "leverage",
              "type": "uint256"
            },
            {
              "internalType": "uint256",
              "name": "margin",
              "type": "uint256"
            },
            {
              "internalType": "uint256",
              "name": "tradingFee",
              "type": "uint256"
            },
            {
              "internalType": "uint256",
              "name": "timestamp",
              "type": "uint256"
            }
          ],
          "internalType": "struct ICommon.Deal",
          "name": "",
          "type": "tuple"
        }
      ],
      "stateMutability": "view",
      "type": "function"
    },
    {
      "inputs": [],
      "name": "getDealLength",
      "outputs": [
        {
          "internalType": "uint256",
          "name": "length",
          "type": "uint256"
        }
      ],
      "stateMutability": "view",
      "type": "function"
    },
    {
      "inputs": [
        {
          "internalType": "uint256[]",
          "name": "_ids",
          "type": "uint256[]"
        }
      ],
      "name": "getDeals",
      "outputs": [
        {
          "components": [
            {
              "internalType": "address",
              "name": "token",
              "type": "address"
            },
            {
              "internalType": "address payable",
              "name": "taker",
              "type": "address"
            },
            {
              "internalType": "enum ICommon.Direct",
              "name": "direct",
              "type": "uint8"
            },
            {
              "internalType": "enum ICommon.DealState",
              "name": "state",
              "type": "uint8"
            },
            {
              "internalType": "enum ICommon.Offset",
              "name": "offset",
              "type": "uint8"
            },
            {
              "internalType": "uint256",
              "name": "orderID",
              "type": "uint256"
            },
            {
              "internalType": "string",
              "name": "name",
              "type": "string"
            },
            {
              "internalType": "uint256",
              "name": "amount",
              "type": "uint256"
            },
            {
              "internalType": "uint256",
              "name": "price",
              "type": "uint256"
            },
            {
              "internalType": "uint256",
              "name": "leverage",
              "type": "uint256"
            },
            {
              "internalType": "uint256",
              "name": "margin",
              "type": "uint256"
            },
            {
              "internalType": "uint256",
              "name": "tradingFee",
              "type": "uint256"
            },
            {
              "internalType": "uint256",
              "name": "timestamp",
              "type": "uint256"
            }
          ],
          "internalType": "struct ICommon.Deal[]",
          "name": "info",
          "type": "tuple[]"
        }
      ],
      "stateMutability": "view",
      "type": "function"
    },
    {
      "inputs": [
        {
          "internalType": "address",
          "name": "_token",
          "type": "address"
        },
        {
          "internalType": "address",
          "name": "_taker",
          "type": "address"
        },
        {
          "internalType": "string",
          "name": "_name",
          "type": "string"
        },
        {
          "internalType": "enum ICommon.Direct",
          "name": "_type",
          "type": "uint8"
        }
      ],
      "name": "getDealsByPosition",
      "outputs": [
        {
          "internalType": "uint256[]",
          "name": "_deals",
          "type": "uint256[]"
        }
      ],
      "stateMutability": "view",
      "type": "function"
    },
    {
      "inputs": [
        {
          "internalType": "uint256[]",
          "name": "_ids",
          "type": "uint256[]"
        }
      ],
      "name": "getLimitOrders",
      "outputs": [
        {
          "components": [
            {
              "internalType": "address",
              "name": "token",
              "type": "address"
            },
            {
              "internalType": "address payable",
              "name": "taker",
              "type": "address"
            },
            {
              "internalType": "enum ICommon.Direct",
              "name": "direct",
              "type": "uint8"
            },
            {
              "internalType": "enum IPerpetual.OrderState",
              "name": "state",
              "type": "uint8"
            },
            {
              "internalType": "enum ICommon.Offset",
              "name": "offset",
              "type": "uint8"
            },
            {
              "internalType": "string",
              "name": "name",
              "type": "string"
            },
            {
              "internalType": "uint256",
              "name": "amount",
              "type": "uint256"
            },
            {
              "internalType": "uint256",
              "name": "targetPrice",
              "type": "uint256"
            },
            {
              "internalType": "uint256",
              "name": "margin",
              "type": "uint256"
            },
            {
              "internalType": "uint256",
              "name": "tradingFee",
              "type": "uint256"
            },
            {
              "internalType": "uint256",
              "name": "rewardGas",
              "type": "uint256"
            },
            {
              "internalType": "uint256",
              "name": "startTime",
              "type": "uint256"
            },
            {
              "internalType": "uint256",
              "name": "goodTill",
              "type": "uint256"
            }
          ],
          "internalType": "struct IPerpetual.LimitedOrder[]",
          "name": "info",
          "type": "tuple[]"
        }
      ],
      "stateMutability": "view",
      "type": "function"
    },
    {
      "inputs": [
        {
          "internalType": "uint256",
          "name": "id",
          "type": "uint256"
        }
      ],
      "name": "getLimitedOrder",
      "outputs": [
        {
          "components": [
            {
              "internalType": "address",
              "name": "token",
              "type": "address"
            },
            {
              "internalType": "address payable",
              "name": "taker",
              "type": "address"
            },
            {
              "internalType": "enum ICommon.Direct",
              "name": "direct",
              "type": "uint8"
            },
            {
              "internalType": "enum IPerpetual.OrderState",
              "name": "state",
              "type": "uint8"
            },
            {
              "internalType": "enum ICommon.Offset",
              "name": "offset",
              "type": "uint8"
            },
            {
              "internalType": "string",
              "name": "name",
              "type": "string"
            },
            {
              "internalType": "uint256",
              "name": "amount",
              "type": "uint256"
            },
            {
              "internalType": "uint256",
              "name": "targetPrice",
              "type": "uint256"
            },
            {
              "internalType": "uint256",
              "name": "margin",
              "type": "uint256"
            },
            {
              "internalType": "uint256",
              "name": "tradingFee",
              "type": "uint256"
            },
            {
              "internalType": "uint256",
              "name": "rewardGas",
              "type": "uint256"
            },
            {
              "internalType": "uint256",
              "name": "startTime",
              "type": "uint256"
            },
            {
              "internalType": "uint256",
              "name": "goodTill",
              "type": "uint256"
            }
          ],
          "internalType": "struct IPerpetual.LimitedOrder",
          "name": "",
          "type": "tuple"
        }
      ],
      "stateMutability": "view",
      "type": "function"
    },
    {
      "inputs": [],
      "name": "getLimitedOrderLength",
      "outputs": [
        {
          "internalType": "uint256",
          "name": "length",
          "type": "uint256"
        }
      ],
      "stateMutability": "view",
      "type": "function"
    },
    {
      "inputs": [],
      "name": "getOrderID",
      "outputs": [
        {
          "internalType": "uint256",
          "name": "length",
          "type": "uint256"
        }
      ],
      "stateMutability": "view",
      "type": "function"
    },
    {
      "inputs": [
        {
          "internalType": "uint256",
          "name": "_id",
          "type": "uint256"
        }
      ],
      "name": "getTriggerCondition",
      "outputs": [
        {
          "components": [
            {
              "internalType": "uint256",
              "name": "mean",
              "type": "uint256"
            },
            {
              "internalType": "uint256",
              "name": "openLimitPrice",
              "type": "uint256"
            },
            {
              "internalType": "uint256",
              "name": "gainTriggerPrice",
              "type": "uint256"
            },
            {
              "internalType": "uint256",
              "name": "gainLimitPrice",
              "type": "uint256"
            },
            {
              "internalType": "uint256",
              "name": "lossTriggerPrice",
              "type": "uint256"
            },
            {
              "internalType": "uint256",
              "name": "lossLimitPrice",
              "type": "uint256"
            }
          ],
          "internalType": "struct IPerpetual.TriggerCondition",
          "name": "",
          "type": "tuple"
        }
      ],
      "stateMutability": "view",
      "type": "function"
    },
    {
      "inputs": [
        {
          "internalType": "uint256[]",
          "name": "_ids",
          "type": "uint256[]"
        }
      ],
      "name": "getTriggerConditions",
      "outputs": [
        {
          "components": [
            {
              "internalType": "uint256",
              "name": "mean",
              "type": "uint256"
            },
            {
              "internalType": "uint256",
              "name": "openLimitPrice",
              "type": "uint256"
            },
            {
              "internalType": "uint256",
              "name": "gainTriggerPrice",
              "type": "uint256"
            },
            {
              "internalType": "uint256",
              "name": "gainLimitPrice",
              "type": "uint256"
            },
            {
              "internalType": "uint256",
              "name": "lossTriggerPrice",
              "type": "uint256"
            },
            {
              "internalType": "uint256",
              "name": "lossLimitPrice",
              "type": "uint256"
            }
          ],
          "internalType": "struct IPerpetual.TriggerCondition[]",
          "name": "info",
          "type": "tuple[]"
        }
      ],
      "stateMutability": "view",
      "type": "function"
    },
    {
      "inputs": [
        {
          "internalType": "address",
          "name": "token",
          "type": "address"
        },
        {
          "internalType": "address",
          "name": "user",
          "type": "address"
        }
      ],
      "name": "getUserDealsID",
      "outputs": [
        {
          "internalType": "uint256[]",
          "name": "",
          "type": "uint256[]"
        }
      ],
      "stateMutability": "view",
      "type": "function"
    },
    {
      "inputs": [
        {
          "internalType": "address",
          "name": "token",
          "type": "address"
        },
        {
          "internalType": "address",
          "name": "user",
          "type": "address"
        }
      ],
      "name": "getUserLimitOrdersID",
      "outputs": [
        {
          "internalType": "uint256[]",
          "name": "",
          "type": "uint256[]"
        }
      ],
      "stateMutability": "view",
      "type": "function"
    },
    {
      "inputs": [
        {
          "internalType": "address",
          "name": "_priPool",
          "type": "address"
        },
        {
          "internalType": "address",
          "name": "_perpetual",
          "type": "address"
        }
      ],
      "name": "initialize",
      "outputs": [],
      "stateMutability": "nonpayable",
      "type": "function"
    },
    {
      "inputs": [
        {
          "internalType": "uint256",
          "name": "_dealID",
          "type": "uint256"
        },
        {
          "internalType": "string[]",
          "name": "_symbols",
          "type": "string[]"
        },
        {
          "internalType": "uint256[]",
          "name": "_prices",
          "type": "uint256[]"
        }
      ],
      "name": "liquidateMakerDeal",
      "outputs": [
        {
          "internalType": "bool",
          "name": "isLiquidated",
          "type": "bool"
        },
        {
          "internalType": "bool",
          "name": "isAgreement",
          "type": "bool"
        },
        {
          "internalType": "uint256",
          "name": "userProfit",
          "type": "uint256"
        },
        {
          "internalType": "address",
          "name": "token",
          "type": "address"
        },
        {
          "internalType": "address",
          "name": "taker",
          "type": "address"
        },
        {
          "internalType": "uint256",
          "name": "margin",
          "type": "uint256"
        }
      ],
      "stateMutability": "nonpayable",
      "type": "function"
    },
    {
      "inputs": [
        {
          "internalType": "address",
          "name": "_token",
          "type": "address"
        },
        {
          "internalType": "address",
          "name": "_taker",
          "type": "address"
        },
        {
          "internalType": "string",
          "name": "_name",
          "type": "string"
        },
        {
          "internalType": "enum ICommon.Direct",
          "name": "_type",
          "type": "uint8"
        },
        {
          "internalType": "enum ICommon.Offset",
          "name": "_offset",
          "type": "uint8"
        },
        {
          "internalType": "uint256",
          "name": "_amount",
          "type": "uint256"
        },
        {
          "internalType": "uint256",
          "name": "_price",
          "type": "uint256"
        },
        {
          "internalType": "uint256",
          "name": "_tradingFee",
          "type": "uint256"
        },
        {
          "internalType": "uint256",
          "name": "_rewardGas",
          "type": "uint256"
        },
        {
          "internalType": "uint256",
          "name": "_marginAmount",
          "type": "uint256"
        },
        {
          "internalType": "uint256",
          "name": "_goodTill",
          "type": "uint256"
        },
        {
          "internalType": "bool",
          "name": "condition",
          "type": "bool"
        },
        {
          "internalType": "uint256",
          "name": "_dueGas",
          "type": "uint256"
        }
      ],
      "name": "makeLimitedOrder",
      "outputs": [],
      "stateMutability": "payable",
      "type": "function"
    },
    {
      "inputs": [
        {
          "internalType": "address",
          "name": "_token",
          "type": "address"
        },
        {
          "internalType": "address",
          "name": "_taker",
          "type": "address"
        },
        {
          "internalType": "string",
          "name": "_name",
          "type": "string"
        },
        {
          "internalType": "enum ICommon.Direct",
          "name": "_type",
          "type": "uint8"
        },
        {
          "internalType": "enum IPerpetual.OrderType",
          "name": "_orderType",
          "type": "uint8"
        },
        {
          "internalType": "uint256",
          "name": "_limitID",
          "type": "uint256"
        },
        {
          "components": [
            {
              "internalType": "uint256",
              "name": "marketValue",
              "type": "uint256"
            },
            {
              "internalType": "uint256",
              "name": "marginAmount",
              "type": "uint256"
            },
            {
              "internalType": "uint256",
              "name": "tradingFee",
              "type": "uint256"
            },
            {
              "internalType": "uint256",
              "name": "totalLocked",
              "type": "uint256"
            },
            {
              "internalType": "uint256",
              "name": "currentPrice",
              "type": "uint256"
            },
            {
              "internalType": "uint256",
              "name": "dealPrice",
              "type": "uint256"
            },
            {
              "internalType": "uint256",
              "name": "amount",
              "type": "uint256"
            },
            {
              "internalType": "uint256",
              "name": "leverage",
              "type": "uint256"
            }
          ],
          "internalType": "struct IPerpetual.Fees",
          "name": "fee",
          "type": "tuple"
        }
      ],
      "name": "openOrder",
      "outputs": [],
      "stateMutability": "nonpayable",
      "type": "function"
    },
    {
      "inputs": [],
      "name": "owner",
      "outputs": [
        {
          "internalType": "address",
          "name": "",
          "type": "address"
        }
      ],
      "stateMutability": "view",
      "type": "function"
    },
    {
      "inputs": [
        {
          "internalType": "address",
          "name": "",
          "type": "address"
        },
        {
          "internalType": "address",
          "name": "",
          "type": "address"
        },
        {
          "internalType": "string",
          "name": "",
          "type": "string"
        },
        {
          "internalType": "uint256",
          "name": "",
          "type": "uint256"
        }
      ],
      "name": "positions",
      "outputs": [
        {
          "internalType": "uint256",
          "name": "value",
          "type": "uint256"
        },
        {
          "internalType": "uint256",
          "name": "size",
          "type": "uint256"
        },
        {
          "internalType": "uint256",
          "name": "margin",
          "type": "uint256"
        },
        {
          "internalType": "uint256",
          "name": "freeze",
          "type": "uint256"
        }
      ],
      "stateMutability": "view",
      "type": "function"
    },
    {
      "inputs": [],
      "name": "renounceOwnership",
      "outputs": [],
      "stateMutability": "nonpayable",
      "type": "function"
    },
    {
      "inputs": [
        {
          "internalType": "address",
          "name": "_agent",
          "type": "address"
        },
        {
          "internalType": "address",
          "name": "_station",
          "type": "address"
        },
        {
          "internalType": "address",
          "name": "keeper",
          "type": "address"
        }
      ],
      "name": "setKeepers",
      "outputs": [],
      "stateMutability": "nonpayable",
      "type": "function"
    },
    {
      "inputs": [
        {
          "internalType": "address",
          "name": "newOwner",
          "type": "address"
        }
      ],
      "name": "transferOwnership",
      "outputs": [],
      "stateMutability": "nonpayable",
      "type": "function"
    },
    {
      "inputs": [
        {
          "internalType": "uint256",
          "name": "limitID",
          "type": "uint256"
        },
        {
          "internalType": "enum IPerpetual.OrderState",
          "name": "state",
          "type": "uint8"
        },
        {
          "internalType": "uint256",
          "name": "rewardGas",
          "type": "uint256"
        }
      ],
      "name": "updateLimitOrder",
      "outputs": [],
      "stateMutability": "nonpayable",
      "type": "function"
    },
    {
      "inputs": [
        {
          "internalType": "uint256",
          "name": "limitOrderID",
          "type": "uint256"
        },
        {
          "internalType": "uint256",
          "name": "_mean",
          "type": "uint256"
        },
        {
          "internalType": "uint256",
          "name": "_openLimitPrice",
          "type": "uint256"
        },
        {
          "internalType": "uint256",
          "name": "_gainTriggerPrice",
          "type": "uint256"
        },
        {
          "internalType": "uint256",
          "name": "_gainLimitPrice",
          "type": "uint256"
        },
        {
          "internalType": "uint256",
          "name": "_lossTriggerPrice",
          "type": "uint256"
        },
        {
          "internalType": "uint256",
          "name": "_lossLimitPrice",
          "type": "uint256"
        }
      ],
      "name": "updateTriggerCondition",
      "outputs": [],
      "stateMutability": "nonpayable",
      "type": "function"
    }
  ],
  "bytecode": "0x60808060405234601557615035908161001b8239f35b600080fdfe6080604052600436101561001a575b3461001557005b600080fd5b60003560e01c80630187703f146101ea5780630374c555146101e55780630c3fc6b9146101e057806310881a73146101db57806317900de0146101d65780633a0204a9146101d1578063485cc955146101cc57806349138690146101c757806349216f85146101c257806350942355146101bd57806352e282a7146101b8578063715018a6146101b357806375ffb53d146101ae57806382fd5bac146101a95780638da5cb5b146101a4578063982edc3c1461019f578063ac6b96a21461019a578063ac89c79814610195578063b811988814610190578063b99ac9271461018b578063be63309e14610186578063c22e672c14610181578063c2b335641461017c578063c3710f2514610177578063cc5bc74114610172578063dcee34751461016d578063e771ad7214610168578063ec408291146101635763f2fde38b0361000e57611f21565b611e67565b611d5d565b611c34565b611b50565b611b32565b611ad1565b611a4b565b6119c3565b611976565b611958565b6117cc565b611753565b6116fa565b6116b4565b611675565b611544565b6113fd565b611388565b6111c7565b611155565b6110f2565b610ea5565b610dc0565b61082b565b61072a565b6106a3565b61049b565b610234565b6102329092919260c081019360a0809180518452602081015160208501526040810151604085015260608101516060850152608081015160808501520151910152565b565b3461001557602060031936011261001557600435610250611f4a565b50600052600b6020526102af6040600020600560405191610270836102c9565b8054835260018101546020840152600281015460408401526003810154606084015260048101546080840152015460a0820152604051918291826101ef565b0390f35b634e487b7160e01b600052604160045260246000fd5b60c0810190811067ffffffffffffffff8211176102e557604052565b6102b3565b610100810190811067ffffffffffffffff8211176102e557604052565b6101a0810190811067ffffffffffffffff8211176102e557604052565b60a0810190811067ffffffffffffffff8211176102e557604052565b90601f601f19910116810190811067ffffffffffffffff8211176102e557604052565b604051906102326101a083610340565b6040519061023260c083610340565b67ffffffffffffffff81116102e55760051b60200190565b9080601f830112156100155781356103b181610382565b926103bf6040519485610340565b81845260208085019260051b82010192831161001557602001905b8282106103e75750505090565b81358152602091820191016103da565b6020600319820112610015576004359067ffffffffffffffff8211610015576104229160040161039a565b90565b602060408183019282815284518094520192019060005b8181106104495750505090565b909192602060c082610490600194885160a0809180518452602081015160208501526040810151604085015260608101516060850152608081015160808501520151910152565b01940192910161043c565b34610015576104a9366103f7565b80516104b481610382565b916104c26040519384610340565b818352601f196104d183610382565b0160005b81811061053b57505060005b8281106104f657604051806102af8682610425565b8061051f61051a61050960019486611fce565b51600052600b602052604060002090565b611f7b565b6105298287611fce565b526105348186611fce565b50016104e1565b602090610546611f4a565b828288010152016104d5565b634e487b7160e01b600052602160045260246000fd5b6003111561057257565b610552565b9061058182610568565b52565b6008111561057257565b9061058182610584565b60005b8381106105ab5750506000910152565b818101518382015260200161059b565b90601f19601f6020936105d981518092818752878088019101610598565b0116010190565b80516001600160a01b03168252906020828101516001600160a01b03169082015261061360408301516040830190610577565b6106256060830151606083019061058e565b61063760808301516080830190610577565b6101808061065660a08501516101a060a08601526101a08501906105bb565b9360c081015160c085015260e081015160e0850152610100810151610100850152610120810151610120850152610140810151610140850152610160810151610160850152015191015290565b34610015576020600319360112610015576102af6106d46106ce6004356106c8611fe2565b50612043565b50612188565b6040519182916020835260208301906105e0565b600435906001600160a01b038216820361001557565b602435906001600160a01b038216820361001557565b604435906001600160a01b038216820361001557565b346100155760606003193601126100155761081f6107466106e8565b6107f66107516106fe565b6107cd6107c06001600160a01b0380610768610714565b966107716141af565b16938460005260096020526040600020600160ff1982541617905516948560005260096020526040600020600160ff198254161790556001600160a01b03166000526009602052604060002090565b600160ff19825416179055565b6001600160a01b031673ffffffffffffffffffffffffffffffffffffffff196002541617600255565b6001600160a01b031673ffffffffffffffffffffffffffffffffffffffff196003541617600355565b005b6003111561001557565b346100155760e06003193601126100155760443560043560243561084e83610821565b606435906084359060a4359360c4359033600052600960205261087860ff60406000205416612279565b60009261088482612062565b50906108b361089a83546001600160a01b031690565b6001600160a01b0316600052600a602052604060002090565b9360018301956109496109416109226108ef8a54996108d88b6001600160a01b031690565b6001600160a01b0316600052602052604060002090565b9861091c61090e61090460038b019c8d6122c4565b9260a01c60ff1690565b61091781610568565b612363565b90610da7565b509361093360038601918254612385565b908190556001850154612385565b841115612392565b5081158015610ccb575b15610c2157928098979961098e61096f885460ff9060a01c1690565b6109878d6005880154928360048a0154928392614210565b90856143b5565b505097909860046007870154976109e66003966109e16109d16109b88c546001600160a01b031690565b6001600160a01b03166000526008602052604060002090565b87546001600160a01b03166108d8565b61443b565b50835460ff60a81b19167503000000000000000000000000000000000000000000178455019b610a158d61246e565b9b60005b8d51811015610c0d579e8e9f8e9f8f610a33838792611fce565b5114610a465750600101909f9e50610a19565b909d9e9192939495969798999a9b9c9d610a76610a6682610a7b946124b9565b60001982549160031b1b19169055565b6124d1565b905b51811015610ad6578f90610acf82610ab7610aa7610a9d856001976124b9565b90549060031b1c90565b91610ab185612376565b906124b9565b90919060001983549160031b92831b921b1916179055565b018e610a7d565b5091939597999b9d610aee91939597999b9d506124ec565b610b0f610b036002546001600160a01b031690565b6001600160a01b031690565b93610b218a546001600160a01b031690565b91610b3387546001600160a01b031690565b93863b15610015578f928f92908e918d9c6040519e8f9a8b9a7ff1257f84000000000000000000000000000000000000000000000000000000008c5260048c019a610b7d9b61252c565b03815a6000948591f1968715610c0857610bca610bc4610b03610bb6610bd0998b996102af9d610bed575b50546001600160a01b031690565b94546001600160a01b031690565b9161216d565b916145ba565b604051938493846040919493926060820195825260208201520152565b80610bfc6000610c0293610340565b806110e7565b38610ba8565b612590565b509295989b509295989b509295989b610aee565b5092959196949790938054610c3a9060ff9060a01c1690565b98846005870154809b828760048b019e8f5491610c5694614210565b610c6193918d6142f6565b505099909a6007880190815491610c788984612401565b8254610c8391612414565b9283610c8e91612385565b905587815490610c9d91612385565b9055835460ff60a81b1916750200000000000000000000000000000000000000000017845597600495610aee565b5060048301548214610953565b67ffffffffffffffff81116102e557601f01601f191660200190565b81601f8201121561001557803590610d0b82610cd8565b92610d196040519485610340565b8284526020838301011161001557816000926020809301838601378301015290565b6001600160a01b03166000526007602052604060002090565b90610d6760209282815194859201610598565b0190565b602090610d85928260405194838680955193849201610598565b82019081520301902090565b634e487b7160e01b600052603260045260246000fd5b906002811015610dbb576005020190600090565b610d91565b3461001557608060031936011261001557610dd96106e8565b610de16106fe565b60443567ffffffffffffffff811161001557610e4f91610e3c610e0a6020933690600401610cf4565b916001600160a01b036064359616600052600a84526040600020906001600160a01b0316600052602052604060002090565b8260405194838680955193849201610598565b82019081520301902090600281101561001557610e6b91610da7565b5080546102af6001830154926003600282015491015490604051948594859094939260609260808301968352602083015260408201520152565b3461001557604060031936011261001557610ebe6106e8565b610ec66106fe565b7ff0c57e16840df040f15088dc2f81fe391c3923bec73e23a9662efc9c229c6a0054919067ffffffffffffffff610f1660ff604086901c1615610f08565b1590565b9467ffffffffffffffff1690565b16801590816110df575b60011490816110d5575b1590816110cc575b506110a257610fb39183610faa60017fffffffffffffffffffffffffffffffffffffffffffffffff00000000000000007ff0c57e16840df040f15088dc2f81fe391c3923bec73e23a9662efc9c229c6a005416177ff0c57e16840df040f15088dc2f81fe391c3923bec73e23a9662efc9c229c6a0055565b61103d5761259c565b610fb957005b61100e68ff0000000000000000197ff0c57e16840df040f15088dc2f81fe391c3923bec73e23a9662efc9c229c6a0054167ff0c57e16840df040f15088dc2f81fe391c3923bec73e23a9662efc9c229c6a0055565b604051600181527fc7f505b2f371ae2175ee4913f4499e1f2633a7b5936321eed1cdaeb6115181d290602090a1005b61109d6801000000000000000068ff0000000000000000197ff0c57e16840df040f15088dc2f81fe391c3923bec73e23a9662efc9c229c6a005416177ff0c57e16840df040f15088dc2f81fe391c3923bec73e23a9662efc9c229c6a0055565b61259c565b7ff92ee8a90000000000000000000000000000000000000000000000000000000060005260046000fd5b90501538610f32565b303b159150610f2a565b849150610f20565b600091031261001557565b34610015576000600319360112610015576020600654604051908152f35b906020808351928381520192019060005b81811061112e5750505090565b8251845260209384019390920191600101611121565b906020610422928181520190611110565b34610015576040600319360112610015576102af6111b36111ae6111776106e8565b6001600160a01b036111876106fe565b911660005260086020526040600020906001600160a01b0316600052602052604060002090565b61246e565b604051918291602083526020830190611110565b346100155760c0600319360112610015576111e06106e8565b6111e86106fe565b906044359067ffffffffffffffff8211610015576102af92611211611245933690600401610cf4565b6064359061121e82610821565b6084359260a4359433600052600960205261124060ff60406000205416612279565b612805565b6040519081529081906020820190565b6006111561057257565b9060068210156105725752565b80516001600160a01b03168252906020828101516001600160a01b03169082015261129f60408301516040830190610577565b6112b16060830151606083019061125f565b6112c360808301516080830190610577565b60a082015160a0820152610180806112ec60c08501516101a060c08601526101a08501906105bb565b9360e081015160e0850152610100810151610100850152610120810151610120850152610140810151610140850152610160810151610160850152015191015290565b9080602083519182815201916020808360051b8301019401926000915b83831061135b57505050505090565b909192939460208061137983601f198660019603018752895161126c565b9701930193019193929061134c565b3461001557611396366103f7565b80516113a181612ad1565b9160005b8281106113c257604051602080825281906102af9082018761132f565b806113e16113db6113d560019486611fce565b51612062565b50612b2c565b6113eb8287611fce565b526113f68186611fce565b50016113a5565b34610015576000600319360112610015576114166141af565b60006001600160a01b037f9016d09d72d40fdae2fd8ceac6b6234c7706214fd39c1cd1e609a0528c1993005473ffffffffffffffffffffffffffffffffffffffff1981167f9016d09d72d40fdae2fd8ceac6b6234c7706214fd39c1cd1e609a0528c19930055167f8be0079c531659141344cd1fd0a4f28419497f9722a3daafe3b4186f6b6457e08280a3005b600319606091011261001557600435906024359060443590565b9080602083519182815201916020808360051b8301019401926000915b8383106114e957505050505090565b909192939460208061150783601f19866001960301875289516105e0565b970193019301919392906114da565b93929161153f906115316040936060885260608801906114bd565b908682036020880152611110565b930152565b3461001557611552366114a3565b8192809260009160065480921161166b575b8110611663575b5092919261157882612be9565b9161158281612c38565b945b8481108061165a575b156116345760016115ad816115a184612043565b50015460a81c60ff1690565b6115b681610584565b148015611614575b6115d1575b6115cc90612c69565b611584565b9161160c81846115e46115cc948a611fce565b526115f16106ce86612043565b6115fb8288611fce565b526116068187611fce565b50612c69565b9290506115c3565b50600261162560016115a184612043565b61162e81610584565b146115be565b8593926102af92810361164f575b5060405193849384611516565b808452845284611642565b5081831061158d565b92503861156b565b9094508490611564565b34610015576020600319360112610015576102af6116a06113db60043561169a612a70565b50612062565b60405191829160208352602083019061126c565b346100155760006003193601126100155760206001600160a01b037f9016d09d72d40fdae2fd8ceac6b6234c7706214fd39c1cd1e609a0528c1993005416604051908152f35b34610015576040600319360112610015576102af6111b36111ae61171c6106e8565b6001600160a01b0361172c6106fe565b911660005260076020526040600020906001600160a01b0316600052602052604060002090565b3461001557611761366103f7565b805161176c81612be9565b9160005b82811061178d57604051602080825281906102af908201876114bd565b806117a66106ce6117a060019486611fce565b51612043565b6117b08287611fce565b526117bb8186611fce565b5001611770565b6008111561001557565b34610015576060600319360112610015576004356024356117ec816117c2565b816044359133600052600960205261180b60ff60406000205416612279565b61181482612043565b5090611824600183019182612c78565b60078201848155938015158061194e575b61192e575b5054906001600160a01b038216938492825461185c906001600160a01b031690565b94859160a081901c60ff169360a882901c60ff169160b01c60ff1690600387015490600488015490600589015490549160068a01549360088b01549560098c0154976040519b6001600160a01b038d9c169e6001600160a01b03169d6002019a6118c69b8d612d2c565b037f7d0616460a0a454bdf3e48a4f63e79ef1e23eb2a336bc7869d81c0dd7d2a99de91a3611907906001600160a01b03166000526007602052604060002090565b9061192491906001600160a01b0316600052602052604060002090565b9061081f9161443b565b600080808061194894325af1611942612cb1565b50612ce1565b3861183a565b5080471015611835565b34610015576000600319360112610015576020600554604051908152f35b34610015576000600319360112610015573360005260096020526119a160ff60406000205416612279565b60045460018101908181116119be57602091600455604051908152f35b61234d565b346100155760e06003193601126100155760043560056024356044356064356084359060a4359260c43596336000526009602052611a0860ff60406000205416612279565b600052600b602052604060002094855560018501556002840155600383015560048201550155600080f35b8015150361001557565b610164359061023282611a33565b6101a060031936011261001557611a606106e8565b611a686106fe565b906044359167ffffffffffffffff831161001557611a8d61081f933690600401610cf4565b606435611a9981610821565b608435611aa581610821565b60a43560c43560e43591610104359361012435956101443597611ac6611a3d565b99610184359b612da5565b34610015576060600319360112610015576040611b1d600435611af26106fe565b60443591611aff83611a33565b336000526009602052611b1860ff866000205416612279565b613665565b6001600160a01b038351921682526020820152f35b34610015576000600319360112610015576020600454604051908152f35b34610015576101c060031936011261001557611b6a6106e8565b611b726106fe565b9060443567ffffffffffffffff811161001557611b93903690600401610cf4565b606435611b9f81610821565b60843590611bac826117c2565b60a435926101007fffffffffffffffffffffffffffffffffffffffffffffffffffffffffffffff3c3601126100155761081f9560405195611bec876102ea565b60c435875260e43560208801526101043560408801526101243560608801526101443560808801526101643560a08801526101843560c08801526101a43560e08801526139cb565b346100155760606003193601126100155760243560043567ffffffffffffffff82116100155736602383011215610015578160040135611c7381610382565b92611c816040519485610340565b8184526024602085019260051b820101903682116100155760248101925b828410611d1257856044358667ffffffffffffffff8211610015576102af92611ccf611cd593369060040161039a565b91613d69565b6040805196151587529415156020870152938501929092526001600160a01b03908116606085015216608083015260a082015290819060c0820190565b833567ffffffffffffffff811161001557602091611d37839260243691870101610cf4565b815201930192611c9f565b93929161153f9061153160409360608852606088019061132f565b3461001557611d6b366114a3565b81928092600091600554809211611e5d575b8110611e55575b50929192611d9182612ad1565b91611d9b81612c38565b945b84811080611e4c575b15611e26576001611dba816115a184612062565b611dc381611255565b148015611e06575b611dde575b611dd990612c69565b611d9d565b91611dfe8184611df1611dd9948a611fce565b526115f16113db86612062565b929050611dd0565b506002611e1760016115a184612062565b611e2081611255565b14611dcb565b8593926102af928103611e41575b5060405193849384611d42565b808452845284611e34565b50818310611da6565b925038611d84565b9094508490611d7d565b3461001557608060031936011261001557611e806106e8565b611e886106fe565b9060443567ffffffffffffffff811161001557611f0e611f159261091c611efb60206102af97610e3c611ec060049836908a01610cf4565b916001600160a01b0360643597611ed689610821565b16600052600a84526040600020906001600160a01b0316600052602052604060002090565b8201908152030190209161091781610568565b500161246e565b60405191829182611144565b346100155760206003193601126100155761081f611f3d6106e8565b611f456141af565b6140e3565b60405190611f57826102c9565b600060a0838281528260208201528260408201528260608201528260808201520152565b90604051611f88816102c9565b60a06005829480548452600181015460208501526002810154604085015260038101546060850152600481015460808501520154910152565b805115610dbb5760200190565b8051821015610dbb5760209160051b010190565b60405190611fef82610307565b600061018083828152826020820152826040820152826060820152826080820152606060a08201528260c08201528260e0820152826101008201528261012082015282610140820152826101608201520152565b600654811015610dbb576006600052600a602060002091020190600090565b600554811015610dbb576005600052600a602060002091020190600090565b8054821015610dbb57600052600a602060002091020190600090565b61058182610568565b61058182610584565b90600182811c921680156120df575b60208310146120c957565b634e487b7160e01b600052602260045260246000fd5b91607f16916120be565b600092918154916120f9836120af565b808352926001811690811561214f575060011461211557505050565b60009081526020812093945091925b838310612135575060209250010190565b600181602092949394548385870101520191019190612124565b9050602094955060ff1991509291921683830152151560051b010190565b9061023261218192604051938480926120e9565b0383610340565b906009612193610363565b926121b56121a882546001600160a01b031690565b6001600160a01b03168552565b61221e61221560018301546121e36121d3826001600160a01b031690565b6001600160a01b03166020890152565b6121f860a082901c60ff165b6040890161209d565b61220c60a882901c60ff16606089016120a6565b60b01c60ff1690565b6080860161209d565b61222a6002820161216d565b60a0850152600381015460c0850152600481015460e085015260058101546101008501526006810154610120850152600781015461014085015260088101546101608501520154610180830152565b1561228057565b606460405162461bcd60e51b815260206004820152601f60248201527f63616c6c6572206973206e6f74206f7264657220626f6f6b206b6565706572006044820152fd5b9060405180926000908054906122d9826120af565b916001811690811561233557506001146122fc575b505060209281520301902090565b90915060005260206000206000905b82821061231e57505081016020386122ee565b80548287015285935060209091019060010161230b565b60ff19168552505080151502820190506020386122ee565b634e487b7160e01b600052601160045260246000fd5b60ff6000199116019060ff82116119be57565b9060001982019182116119be57565b919082039182116119be57565b1561239957565b606460405162461bcd60e51b815260206004820152601d60248201527f617661696c61626c6520616d6f756e7420696e73756666696369656e740000006044820152fd5b90670de0b6b3a7640000820291808304670de0b6b3a764000014901517156119be57565b818102929181159184041417156119be57565b811561241e570490565b634e487b7160e01b600052601260045260246000fd5b90600681101561057257815460ff60a81b191660a89190911b75ff00000000000000000000000000000000000000000016179055565b9055565b906040519182815491828252602082019060005260206000209260005b8181106124a057505061023292500383610340565b845483526001948501948794506020909301920161248b565b8054821015610dbb5760005260206000200190600090565b90600182018092116119be57565b919082018092116119be57565b80548015612509576000190190612506610a6683836124b9565b55565b634e487b7160e01b600052603160045260246000fd5b9060058210156105725752565b98969492909b9a99979593916101608a019c6001600160a01b03168a526001600160a01b031660208a0152604089015260608801526080870161256e9161251f565b60a086015260c085015260e08401526101008301526101208201526101400152565b6040513d6000823e3d90fd5b61263e916001600160a01b036107c0926125b4614fa6565b6125bc614fa6565b6125c5336140e3565b168073ffffffffffffffffffffffffffffffffffffffff19600054161760005560005260096020526040600020600160ff198254161790556001600160a01b03811673ffffffffffffffffffffffffffffffffffffffff1960015416176001556001600160a01b03166000526009602052604060002090565b61265e6107c0336001600160a01b03166000526009602052604060002090565b6102326107c0306001600160a01b03166000526009602052604060002090565b9060405161268b81610324565b60806126bc60048395805485526001810154602086015260028101546040860152600381015460608601520161246e565b910152565b9190826040910312610015576020825192015161042281611a33565b926001600160a01b0360a095989796938161270c9416865216602085015260c0604085015260c08401906105bb565b9561271681610568565b606083015260808201520152565b634e487b7160e01b600052600060045260246000fd5b818110612745575050565b6000815560010161273a565b9061280057600460809183518155602084015160018201556040840151600282015560608401516003820155019101519081519167ffffffffffffffff83116102e5576801000000000000000083116102e55760209082548484558085106127e3575b500190600052602060002060005b8381106127cf5750505050565b6001906020845194019381840155016127c2565b6127fa90846000528584600020918201910161273a565b386127b4565b612724565b9594939291909361286c61286661285461284e886128368c6001600160a01b0316600052600a602052604060002090565b906001600160a01b0316600052602052604060002090565b85610d6b565b61285d86610568565b61091c86612363565b5061267e565b936020850191825115612a66576002546040517f50942355000000000000000000000000000000000000000000000000000000008152999493926001600160a01b03909116918a9182916128c79189888d8b600488016126dd565b03815a604094600091f1978815610c0857600090600099612a32575b50976128f2575b505050505050565b6000908186979993959894965252600060408601526000606086015260009460808101955b865189815183101561299c57509061295f60016129386113d5848396611fce565b5001750400000000000000000000000000000000000000000060ff60a81b19825416179055565b6129956129838b6128368a6001600160a01b03166000526008602052604060002090565b61298e838b51611fce565b519061443b565b5001612917565b9498610d3b92506129f7979391506129f19061091c6129e76111ae996060612836999d526129e18a6128368a6001600160a01b0316600052600a602052604060002090565b90610d6b565b9161091781610568565b90612751565b9060005b8251811015612a235780612a1b86612a1560019487611fce565b51613539565b5050016129fb565b509250503880808080806128ea565b9050612a5791985060403d604011612a5f575b612a4f8183610340565b8101906126c1565b9790386128e3565b503d612a45565b9750505050505050565b60405190612a7d82610307565b6000610180838281528260208201528260408201528260608201528260808201528260a0820152606060c08201528260e0820152826101008201528261012082015282610140820152826101608201520152565b90612adb82610382565b612ae86040519182610340565b828152601f19612af88294610382565b019060005b828110612b0957505050565b602090612b14612a70565b82828501015201612afd565b60068210156105725752565b906009612b37610363565b92612b4c6121a882546001600160a01b031690565b612b8e6122156001830154612b6a6121d3826001600160a01b031690565b612b7a60a082901c60ff166121ef565b61220c60a882901c60ff1660608901612b20565b600281015460a0850152612ba46003820161216d565b60c0850152600481015460e085015260058101546101008501526006810154610120850152600781015461014085015260088101546101608501520154610180830152565b90612bf382610382565b612c006040519182610340565b828152601f19612c108294610382565b019060005b828110612c2157505050565b602090612c2c611fe2565b82828501015201612c15565b90612c4282610382565b612c4f6040519182610340565b828152601f19612c5f8294610382565b0190602036910137565b60001981146119be5760010190565b9061246a90612c8681610584565b82549075ff00000000000000000000000000000000000000000060ff60a81b199160a81b1691161790565b3d15612cdc573d90612cc282610cd8565b91612cd06040519384610340565b82523d6000602084013e565b606090565b15612ce857565b606460405162461bcd60e51b815260206004820152600f60248201527f7472616e73666572206661696c656400000000000000000000000000000000006044820152fd5b989592612d506101609b9895929e9d9c9996939e6101808c526101808c01906120e9565b9d60208b0152612d5f81610568565b60408a0152612d6d81610584565b6060890152612d7b81610568565b608088015260a087015260c086015260e08501526101008401526101208301526101408201520152565b8a87879e849e9c9a999695979486819f869e9b8b8f928f928f938b948d9633600052600960205260406000205460ff16612dde90612279565b8a9b60065494604051996001600160a01b038b9a169c6001600160a01b03169b4297612e0a9a8c613176565b037f052d8cb39abc1bd624ecd7027fd1b94ded9c7704f379055adcbab77044ec255b91a3159e6130099f9e612ff89f9d6128369e61316e575b156130435790612e866001600160a01b03612ee096959493612e75612e66610363565b6001600160a01b039098168852565b166001600160a01b03166020860152565b612e93876040860161209d565b60016060850152612ea7866080860161209d565b8860a085015260c08401528660e084015260006101008401526000610120840152610140830152426101608301526101808201526134be565b612ee981610568565b6001810361300c5750505050612fdc7f68cbb1c862d9d961359025e53792aa8be48fcf01d4712cf5dfd194d2a184a76993612fa0612f25610373565b6001815285602082015284604082015260006060820152826080820152600060a0820152612f67612f57600654612376565b600052600b602052604060002090565b9060a060059180518455602081015160018501556040810151600285015560608101516003850155608081015160048501550151910155565b612fab600654612376565b926040519485948590949360009360a09360c084019784526020840152604083015283606083015260808201520152565b0390a16001600160a01b03166000526007602052604060002090565b613003600654612376565b90614ab7565b50565b8061301c60029298979598610568565b1461302d575b505050505050610d3b565b613038958988614871565b388080808080613022565b60029899509661308c6001600160a01b036130e2989c949596979961307b949e9461306c610363565b6001600160a01b03909a168a52565b166001600160a01b03166020880152565b6130998b6040880161209d565b600160608701526130ad886080880161209d565b8960a08701528b60c087015260e0860152610100850152610120840152610140830152426101608301526101808201526134be565b6130eb81610568565b1461310d575b5050506001600160a01b03166000526007602052604060002090565b6131649161091c6129e761313c936129e18a6128368a6001600160a01b0316600052600a602052604060002090565b50916003600184015493019261315f61315785548093612385565b8311156134ee565b6124df565b90553880806130f1565b349350612e43565b9794919b9a99969398959290613196906101808a526101808a01906105bb565b9b60208901526131a581610568565b60408801526101609760016060890152612d7b81610568565b989592612d506101609b9895929e9d9c9996939e6101808c526101808c01906105bb565b906131ec81610568565b7fffffffffffffffffffffff00ffffffffffffffffffffffffffffffffffffffff74ff000000000000000000000000000000000000000083549260a01b169116179055565b9061323b81610568565b7fffffffffffffffffff00ffffffffffffffffffffffffffffffffffffffffffff76ff0000000000000000000000000000000000000000000083549260b01b169116179055565b9190601f811161329157505050565b610232926000526020600020906020601f840160051c830193106132bd575b601f0160051c019061273a565b90915081906132b0565b919091825167ffffffffffffffff81116102e5576132ef816132e984546120af565b84613282565b6020601f821160011461332b57819061246a939495600092613320575b50506000198260011b9260031b1c19161790565b01519050388061330c565b601f1982169061334084600052602060002090565b9160005b81811061337c57509583600195969710613363575b505050811b019055565b015160001960f88460031b161c19169055388080613359565b9192602060018192868b015181550194019201613344565b919061280057610180816133dd6133b4600994516001600160a01b031690565b85906001600160a01b031673ffffffffffffffffffffffffffffffffffffffff19825416179055565b613466600185016134246133fb60208501516001600160a01b031690565b82906001600160a01b031673ffffffffffffffffffffffffffffffffffffffff19825416179055565b61343b604084015161343581610568565b826131e2565b613452606084015161344c81610584565b82612c78565b60808301519061346182610568565b613231565b61347760a0820151600286016132c7565b60c0810151600385015560e0810151600485015561010081015160058501556101208101516006850155610140810151600785015561016081015160088501550151910155565b60065490680100000000000000008210156102e5576134e882600161023294016006556006612081565b90613394565b156134f557565b606460405162461bcd60e51b815260206004820152601960248201527f6c696d697420636c6f736520616d6f756e7420657863656564000000000000006044820152fd5b61355a91600191336000526009602052611b1860ff60406000205416612279565b9091565b1561356557565b606460405162461bcd60e51b815260206004820152601860248201527f57726f6e6720737461746520696e2063616e63656c696e6700000000000000006044820152fd5b156135b057565b606460405162461bcd60e51b815260206004820152600a60248201527f4e6f7420686f6c646572000000000000000000000000000000000000000000006044820152fd5b156135fb57565b608460405162461bcd60e51b815260206004820152602260248201527f63616e63656c20616d6f756e74206973206772656174207468616e206672656560448201527f7a650000000000000000000000000000000000000000000000000000000000006064820152fd5b92916136736106ce85612043565b9161368583516001600160a01b031690565b9460608401916001835161369881610584565b6136a181610584565b1480156139ae575b80156139a7575b6136b99061355e565b6001600160a01b03806136d660208801516001600160a01b031690565b921691161480156139a0575b6136eb906135a9565b821561393757600582525b613703846134e883612043565b6101408401518015158061392d575b613913575b5060a08401928351916020860151613735906001600160a01b031690565b865182906001600160a01b03169560408901519061375282610568565b519661375d88610584565b60808a01519661376c88610568565b60c08b0151988b60e08101519961010082019a8b516101408401519161012085019e8f5194610160870151966101800151976040519b6001600160a01b038d9c169e6001600160a01b03169d6137c29b8d6131be565b037f7d0616460a0a454bdf3e48a4f63e79ef1e23eb2a336bc7869d81c0dd7d2a99de91a385516001600160a01b0316600090815260076020526040902081906020888101516001600160a01b0316600090815291905260409020906138269161443b565b5081156138f3575b506138d7576002608085015161384381610568565b61384c81610568565b036138c857505061389f61388e6138c19261388761387461089a87516001600160a01b031690565b60208701516001600160a01b03166108d8565b9051610d6b565b61091c604085015161090e81610568565b5060c06003818501519201936138b98554809411156135f4565b015190612385565b9055600090565b519051610422935091506124df565b5050506138ed919250516001600160a01b031690565b90600090565b6001915061390b90600052600b602052604060002090565b54143861382e565b600080808061392794325af1611942612cb1565b38613717565b5080471015613712565b6001825161394481610584565b61394d81610584565b141580613982575b1561396357600782526136f6565b61018084015142111561397957600682526136f6565b600482526136f6565b506002825161399081610584565b61399981610584565b1415613955565b50826136e2565b50836136b0565b50600283516139bc81610584565b6139c581610584565b146136a9565b95949392919033600052600960205260406000205460ff166139ec90612279565b6000546001600160a01b03166001600160a01b0316966005549760c0880151604089015199838760a08c01516040519d8e9586957fd5c3df390000000000000000000000000000000000000000000000000000000087528b6004880196613a5297613be3565b03815a604094600091f1978815610c0857613b8198613a7991600091613b94575b50613c30565b613b7c60c0880151613a9760208a019182518b5191898989896146e0565b613aa086610568565b613abd613aac87612363565b60a08b015160055491888888614b8c565b613aea613ae185612836866001600160a01b03166000526008602052604060002090565b60055490614ab7565b506004549060c08a01519060a08b01519060e08c015190519160408d015193613b11610363565b6001600160a01b0389168152956001600160a01b038a166020880152613b3a8c6040890161209d565b600160608801526001608088015260a08701528960c087015260e086015261010085015261012084015261014083015261016082015242610180820152613d39565b614e79565b610232613b8f6004546124d1565b600455565b613bb6915060403d604011613bbd575b613bae8183610340565b810190613bc4565b5038613a73565b503d613ba4565b91908260409103126100155760208251613bdd81611a33565b92015190565b939060c095926001600160a01b03613c0e929a9998959a16865260e0602087015260e08601906105bb565b9760408501526060840152608083015260a0820152613c2c83610568565b0152565b15613c3757565b606460405162461bcd60e51b815260206004820152601760248201527f6c6971756964697479206973206e6f7420656e6f7567680000000000000000006044820152fd5b91906128005761018081613c9b6133b4600994516001600160a01b031690565b613ce160018501613cb96133fb60208501516001600160a01b031690565b613cca604084015161343581610568565b6134526060840151613cdb81611255565b82612434565b60a08101516002850155613cfc60c0820151600386016132c7565b60e0810151600485015561010081015160058501556101208101516006850155610140810151600785015561016081015160088501550151910155565b60055490680100000000000000008210156102e557613d6382600161023294016005556005612081565b90613c7b565b9190336000526009602052613d8560ff60406000205416612279565b613d916113db84612062565b600094613da582516001600160a01b031690565b9360c083019360005b81518110156140b057613dc18183611fce565b51604051613de581613dd7602082018095610d54565b03601f198101835282610340565b5190208651604051613dff81613dd7602082018095610d54565b51902014613e0f57600101613dae565b905060009750613e1e91611fce565b51915b6020810195613e3a610b0388516001600160a01b031690565b946101408301906060613ea2835197613e5e610b036002546001600160a01b031690565b906040519d8e809481937f016f4dcb0000000000000000000000000000000000000000000000000000000083528a6004840160209093929193604081019481520152565b03925af1988915610c085760009460009b60009b614073575b5085613ecf575b5050505050959493929190565b613fc1613fcc9361388760049694999e9b989c996108d8899f9c9961089a87613f39613fb393613f05606061091c9c0160059052565b613f1283613d6383612062565b6109e1613f296109b885516001600160a01b031690565b88516001600160a01b03166108d8565b50613fa6613f4e82516001600160a01b031690565b86516001600160a01b03169089519c604085019d8e5190613f6e82610568565b60e08701519251936001600160a01b03613f9e613f906101008b015187612401565b670de0b6b3a7640000900490565b9616906147c5565b516001600160a01b031690565b91516001600160a01b031690565b915161090e81610568565b500197613fd88961246e565b9660005b88518110156140635789613ff0828b611fce565b5114613ffe57600101613fdc565b61401891929394959697989950610a76610a66828d6124b9565b88518110156140475780614041614034610a9d6001948e6124b9565b610ab78d610ab185612376565b01614018565b509193959761405991939597506124ec565b3880808080613ec2565b5092959850929550929550614059565b919550995061409b919a5060603d6060116140a9575b6140938183610340565b8101906140bc565b909a90999194909185613ebb565b503d614089565b50505060009591613e21565b908160609103126100155780516140d281611a33565b9160406020830151613bdd81611a33565b6001600160a01b03168015614180576001600160a01b037f9016d09d72d40fdae2fd8ceac6b6234c7706214fd39c1cd1e609a0528c199300548273ffffffffffffffffffffffffffffffffffffffff198216177f9016d09d72d40fdae2fd8ceac6b6234c7706214fd39c1cd1e609a0528c19930055167f8be0079c531659141344cd1fd0a4f28419497f9722a3daafe3b4186f6b6457e0600080a3565b7f1e4fbdf700000000000000000000000000000000000000000000000000000000600052600060045260246000fd5b6001600160a01b037f9016d09d72d40fdae2fd8ceac6b6234c7706214fd39c1cd1e609a0528c199300541633036141e257565b7f118cdaa7000000000000000000000000000000000000000000000000000000006000523360045260246000fd5b60409360a4929396956001600160a01b036002541691865198899687957fca6ec37200000000000000000000000000000000000000000000000000000000875261425981610568565b600487015260248601526044850152606484015260848301525afa918215610c0857600090819361428957509190565b9092506040813d6040116142bd575b816142a560409383610340565b810103126142b95760209080519350015190565b8280fd5b3d9150614298565b919082608091031261001557815191602081015191606060408301516142ea81611a33565b92015161042281611a33565b600060809460e49394966001600160a01b038354169160405198899788967ff26a3e1d000000000000000000000000000000000000000000000000000000008852600488015285602488015260448701526064860152608485015260a4840152600160c48401525af18015610c085760009260009360009360009361437d575b5093929190565b92505092506143a4915060803d6080116143ae575b61439c8183610340565b8101906142c5565b9193909238614376565b503d614392565b60e4906000608094956001600160a01b038254169060405197889687957ff26a3e1d00000000000000000000000000000000000000000000000000000000875260048701528460248701526044860152606485015282608485015260a4840152600160c48401525af18015610c085760009260009360009360009361437d575093929190565b906001820190614462610f0461445b838590600052602052604060002090565b5460ff1690565b6145105782549060005b82811061447d575050505050600090565b8161448b610a9d83886124b9565b146144985760010161446c565b9492909193945b6144a885612376565b8110156144df576001816144d76144cd610a9d6144c76144a8966124d1565b8b6124b9565b610ab7838b6124b9565b01905061449f565b5061450b93506144f261450193956124ec565b90600052602052604060002090565b60ff198154169055565b600190565b505050600090565b1561451f57565b606460405162461bcd60e51b815260206004820152601160248201527f496e76616c696420646972656374696f6e0000000000000000000000000000006044820152fd5b9491926001600160a01b0360e0979481614598949c9b9a979c16885216602087015261010060408701526101008601906105bb565b976145a281610568565b6060850152608084015260a083015260c08201520152565b929361467d9291947faf7f2bb51be6fae4db771c6d0838b6242dbaab0aabf2a14b0ada2f9a8a90875f966000926145f083610568565b6001831480156146cd575b61460490614518565b61464361463161462b8a6128368b6001600160a01b0316600052600a602052604060002090565b87610d6b565b61463a85610568565b61091c85612363565b50938454801560001461468257508455600184015560028301555b8154600183015491600360028501549401549460405198899889614563565b0390a1565b916146b591506146ac6146958285612401565b936146a66001890195865490612414565b90612385565b86558254612385565b90556146c660028401918254612385565b905561465e565b506146d783610568565b600283146145fb565b93927faf7f2bb51be6fae4db771c6d0838b6242dbaab0aabf2a14b0ada2f9a8a90875f96919561467d9461471383610568565b6001831480156147b2575b61472790614518565b61474e61463161462b8a6128368b6001600160a01b0316600052600a602052604060002090565b5093845415600014614785578455600184015560028301558154600183015491600360028501549401549460405198899889614563565b6147909085546124df565b84556147a1600185019182546124df565b90556146c6600284019182546124df565b506147bc83610568565b6002831461471e565b93927faf7f2bb51be6fae4db771c6d0838b6242dbaab0aabf2a14b0ada2f9a8a90875f96919561467d946145f083610568565b6040519061480582610324565b60606080836000815260006020820152600060408201526000838201520152565b1561482d57565b606460405162461bcd60e51b815260206004820152601560248201527f706f736974696f6e2073697a65206973207a65726f00000000000000000000006044820152fd5b6148ca7f68cbb1c862d9d961359025e53792aa8be48fcf01d4712cf5dfd194d2a184a76998959794936129e16148dc94612836612866956148b06147f8565b506001600160a01b0316600052600a602052604060002090565b6148d384610568565b61091c84612363565b90602082016148ed81511515614826565b86159283159384614a7a575b614981575b505050509061467d91614943614912610373565b60018152600060208201528660408201528560608201528260808201528360a0820152612f67612f57600654612376565b61494e600654612376565b9360405195869586919260a093969594919660c08401978452600060208501526040840152606083015260808201520152565b9061498f61499792516123dd565b905190612414565b9180614a3b575b156149bb57505050509061467d60009283925b90913880806148fe565b82151591826149e2575b50506149d6575b9061467d916149b1565b925090506000806149cc565b9091506149ee82610568565b600182149182614a31575b8215614a09575b505038806149c5565b6002919250614a1781610568565b149081614a27575b503880614a00565b9050811038614a1f565b81841192506149f9565b50614a4581610568565b6001811480614a71575b8061499e5750614a5e81610568565b60028114801561499e575081861161499e565b50818610614a4f565b5084156148f9565b90815491680100000000000000008310156102e55782610ab7916001610232950181556124b9565b80156119be576000190190565b919060018301816000528060205260ff60406000205416614b8457600084545b808210614b425750614ae98386614a82565b614af38554612376565b818111614b125750906144f283610ab76107c0959461450b97986124b9565b80614b38614b2e610a9d614b28614b3d95612376565b8a6124b9565b610ab7838a6124b9565b614aaa565b614af3565b908181018082116119be5760011c9084614b5c83896124b9565b90549060031b1c10600014614b7d5750600181018091116119be5790614ad7565b9150614ad7565b506000925050565b614bc0926129e160049593612836614bbb949a98999a6001600160a01b0316600052600a602052604060002090565b610da7565b5001928354614bce81612c38565b9060005b818110614d1f575015614d125760005b8151811080614cff575b15614bff57614bfa90612c69565b614be2565b91929350508354811480614ce6575b614cbc5780151580614ccd575b614cbc578354811080614ca5575b614c9757614c4c614c46610a9d614c408754612376565b876124b9565b85614a82565b614c568454612376565b818111614c6c5750610ab79061023293946124b9565b80614b38614c88610a9d614c82614c9295612376565b896124b9565b610ab783896124b9565b614c56565b610ab79061023293946124b9565b50600019614cb6610a9d83876124b9565b14614c29565b6102329293610ab1610ab792612376565b50600019614ce0610a9d614c4084612376565b14614c1b565b50600019614cf9610a9d614c4084612376565b14614c0e565b50614d0a8183611fce565b518511614bec565b5090926102329250614a82565b80600019614d32610a9d6001948b6124b9565b14614d63576005614d4e614d49610a9d848c6124b9565b612062565b500154614d5b8286611fce565b525b01614bd2565b80614d79576000614d7385611fc1565b52614d5d565b614d8b614d8582612376565b85611fce565b51614d738286611fce565b99969390926001600160a01b036101809c9996939f9e9d9a9794614dc2906101a08e81815201906105bb565b9f1660208c015260408b0152614dd781610568565b60608a0152614de581610584565b608089015260a088015260c087015260e08601526101008501526101208401526101408301526101608201520152565b9693614e4b919b9a9996936101609996936001600160a01b036101808b019e168a5260208a01526040890152606088019061251f565b608086015260a085015260c084015260e0830152610100820152600061012082015260006101408201520152565b919294959390956004549460c081019683885191888760a08601998a5197604088019e8f519860e08101998a51916020019b808d51946001600160a01b03169b8c9b6040519b8c9b8c9b429b614ece9d614d96565b037f52e38618358c614d6c859d2d6481831837d95cf94ee1be20b2243cbb5f69addc91a28851604080516003815260208101929092524290820152600091906001600160a01b038716907feb42cf637f927243245c50b4bf7fe105fe4f4d26209102240f2ba3d8e27a7df890606090a4600192614f4a81610584565b6002149761467d957f85a6bfd765950245f4f456c74db06ee8bad5a7ea04b80581aa7563d196421f6699614f9d575b614f84600554612376565b9851905191519251935194604051998a9942988b614e15565b60029450614f79565b60ff7ff0c57e16840df040f15088dc2f81fe391c3923bec73e23a9662efc9c229c6a005460401c1615614fd557565b7fd7e6bcf80000000000000000000000000000000000000000000000000000000060005260046000fdfea2646970667358221220fb20e1ea585060d7e6bc03a7070857d65b7f31119ee806fee05958a974e2d7da64736f6c634300081c0033",
  "linkReferences": {},
  "deployedLinkReferences": {}
}