{
  "_format": "hh-sol-artifact-1",
  "contractName": "OrderBook",
  "sourceName": "contracts/OrderBook.sol",
  "abi": [
    {
      "inputs": [],
      "name": "InvalidInitialization",
      "type": "error"
    },
    {
      "inputs": [],
      "name": "NotInitializing",
      "type": "error"
    },
    {
      "inputs": [
        {
          "internalType": "address",
          "name": "owner",
          "type": "address"
        }
      ],
      "name": "OwnableInvalidOwner",
      "type": "error"
    },
    {
      "inputs": [
        {
          "internalType": "address",
          "name": "account",
          "type": "address"
        }
      ],
      "name": "OwnableUnauthorizedAccount",
      "type": "error"
    },
    {
      "anonymous": false,
      "inputs": [
        {
          "indexed": false,
          "internalType": "address",
          "name": "token",
          "type": "address"
        },
        {
          "indexed": false,
          "internalType": "address",
          "name": "holder",
          "type": "address"
        },
        {
          "indexed": false,
          "internalType": "string",
          "name": "name",
          "type": "string"
        },
        {
          "indexed": false,
          "internalType": "enum ICommon.Direct",
          "name": "direct",
          "type": "uint8"
        },
        {
          "indexed": false,
          "internalType": "uint256",
          "name": "value",
          "type": "uint256"
        },
        {
          "indexed": false,
          "internalType": "uint256",
          "name": "size",
          "type": "uint256"
        },
        {
          "indexed": false,
          "internalType": "uint256",
          "name": "margin",
          "type": "uint256"
        },
        {
          "indexed": false,
          "internalType": "uint256",
          "name": "freeze",
          "type": "uint256"
        }
      ],
      "name": "AccountPosition",
      "type": "event"
    },
    {
      "anonymous": false,
      "inputs": [
        {
          "indexed": false,
          "internalType": "address",
          "name": "token",
          "type": "address"
        },
        {
          "indexed": false,
          "internalType": "address",
          "name": "taker",
          "type": "address"
        },
        {
          "indexed": false,
          "internalType": "uint256",
          "name": "amount",
          "type": "uint256"
        },
        {
          "indexed": false,
          "internalType": "uint256",
          "name": "availableAmount",
          "type": "uint256"
        },
        {
          "indexed": false,
          "internalType": "uint256",
          "name": "marginAmount",
          "type": "uint256"
        },
        {
          "indexed": false,
          "internalType": "uint256",
          "name": "locked",
          "type": "uint256"
        },
        {
          "indexed": false,
          "internalType": "uint256",
          "name": "stage",
          "type": "uint256"
        },
        {
          "indexed": false,
          "internalType": "uint256",
          "name": "dif",
          "type": "uint256"
        }
      ],
      "name": "BalanceOfTaker",
      "type": "event"
    },
    {
      "anonymous": false,
      "inputs": [
        {
          "indexed": false,
          "internalType": "string",
          "name": "name",
          "type": "string"
        },
        {
          "indexed": true,
          "internalType": "address",
          "name": "taker",
          "type": "address"
        },
        {
          "indexed": true,
          "internalType": "address",
          "name": "token",
          "type": "address"
        },
        {
          "indexed": false,
          "internalType": "uint256",
          "name": "orderID",
          "type": "uint256"
        },
        {
          "indexed": false,
          "internalType": "enum ICommon.Direct",
          "name": "direct",
          "type": "uint8"
        },
        {
          "indexed": false,
          "internalType": "enum IPerpetual.OrderState",
          "name": "state",
          "type": "uint8"
        },
        {
          "indexed": false,
          "internalType": "enum ICommon.Offset",
          "name": "offset",
          "type": "uint8"
        },
        {
          "indexed": false,
          "internalType": "uint256",
          "name": "amount",
          "type": "uint256"
        },
        {
          "indexed": false,
          "internalType": "uint256",
          "name": "targetPrice",
          "type": "uint256"
        },
        {
          "indexed": false,
          "internalType": "uint256",
          "name": "margin",
          "type": "uint256"
        },
        {
          "indexed": false,
          "internalType": "uint256",
          "name": "rewardGas",
          "type": "uint256"
        },
        {
          "indexed": false,
          "internalType": "uint256",
          "name": "tradingFee",
          "type": "uint256"
        },
        {
          "indexed": false,
          "internalType": "uint256",
          "name": "startTime",
          "type": "uint256"
        },
        {
          "indexed": false,
          "internalType": "uint256",
          "name": "orderType",
          "type": "uint256"
        }
      ],
      "name": "CreateLimitedOrder",
      "type": "event"
    },
    {
      "anonymous": false,
      "inputs": [
        {
          "indexed": false,
          "internalType": "uint256",
          "name": "limitOrderID",
          "type": "uint256"
        },
        {
          "indexed": false,
          "internalType": "uint256",
          "name": "openLimitPrice",
          "type": "uint256"
        },
        {
          "indexed": false,
          "internalType": "uint256",
          "name": "gainTriggerPrice",
          "type": "uint256"
        },
        {
          "indexed": false,
          "internalType": "uint256",
          "name": "gainLimitPrice",
          "type": "uint256"
        },
        {
          "indexed": false,
          "internalType": "uint256",
          "name": "lossTriggerPrice",
          "type": "uint256"
        },
        {
          "indexed": false,
          "internalType": "uint256",
          "name": "lossLimitPrice",
          "type": "uint256"
        }
      ],
      "name": "CreateTriggerCondition",
      "type": "event"
    },
    {
      "anonymous": false,
      "inputs": [
        {
          "indexed": false,
          "internalType": "uint256",
          "name": "code",
          "type": "uint256"
        },
        {
          "indexed": false,
          "internalType": "uint256",
          "name": "orderID",
          "type": "uint256"
        },
        {
          "indexed": false,
          "internalType": "string",
          "name": "message",
          "type": "string"
        }
      ],
      "name": "ErrorInfo",
      "type": "event"
    },
    {
      "anonymous": false,
      "inputs": [
        {
          "indexed": false,
          "internalType": "uint256",
          "name": "code",
          "type": "uint256"
        },
        {
          "indexed": false,
          "internalType": "uint256",
          "name": "orderID",
          "type": "uint256"
        },
        {
          "indexed": false,
          "internalType": "bytes",
          "name": "message",
          "type": "bytes"
        }
      ],
      "name": "ExceptErrorInfo",
      "type": "event"
    },
    {
      "anonymous": false,
      "inputs": [
        {
          "indexed": false,
          "internalType": "uint64",
          "name": "version",
          "type": "uint64"
        }
      ],
      "name": "Initialized",
      "type": "event"
    },
    {
      "anonymous": false,
      "inputs": [
        {
          "indexed": false,
          "internalType": "string",
          "name": "name",
          "type": "string"
        },
        {
          "indexed": true,
          "internalType": "address",
          "name": "taker",
          "type": "address"
        },
        {
          "indexed": true,
          "internalType": "address",
          "name": "token",
          "type": "address"
        },
        {
          "indexed": false,
          "internalType": "uint256",
          "name": "orderID",
          "type": "uint256"
        },
        {
          "indexed": false,
          "internalType": "enum ICommon.Direct",
          "name": "direct",
          "type": "uint8"
        },
        {
          "indexed": false,
          "internalType": "enum IPerpetual.OrderState",
          "name": "state",
          "type": "uint8"
        },
        {
          "indexed": false,
          "internalType": "enum ICommon.Offset",
          "name": "offset",
          "type": "uint8"
        },
        {
          "indexed": false,
          "internalType": "uint256",
          "name": "amount",
          "type": "uint256"
        },
        {
          "indexed": false,
          "internalType": "uint256",
          "name": "targetPrice",
          "type": "uint256"
        },
        {
          "indexed": false,
          "internalType": "uint256",
          "name": "margin",
          "type": "uint256"
        },
        {
          "indexed": false,
          "internalType": "uint256",
          "name": "rewardGas",
          "type": "uint256"
        },
        {
          "indexed": false,
          "internalType": "uint256",
          "name": "tradingFee",
          "type": "uint256"
        },
        {
          "indexed": false,
          "internalType": "uint256",
          "name": "startTime",
          "type": "uint256"
        },
        {
          "indexed": false,
          "internalType": "uint256",
          "name": "orderType",
          "type": "uint256"
        }
      ],
      "name": "LimitedOrderHistory",
      "type": "event"
    },
    {
      "anonymous": false,
      "inputs": [
        {
          "indexed": false,
          "internalType": "address",
          "name": "token",
          "type": "address"
        },
        {
          "indexed": false,
          "internalType": "address",
          "name": "taker",
          "type": "address"
        }
      ],
      "name": "LiquidateTaker",
      "type": "event"
    },
    {
      "anonymous": false,
      "inputs": [
        {
          "indexed": true,
          "internalType": "address",
          "name": "taker",
          "type": "address"
        },
        {
          "indexed": false,
          "internalType": "string",
          "name": "name",
          "type": "string"
        },
        {
          "indexed": false,
          "internalType": "address",
          "name": "token",
          "type": "address"
        },
        {
          "indexed": false,
          "internalType": "uint256",
          "name": "orderID",
          "type": "uint256"
        },
        {
          "indexed": false,
          "internalType": "enum ICommon.Direct",
          "name": "direction",
          "type": "uint8"
        },
        {
          "indexed": false,
          "internalType": "enum IPerpetual.OrderType",
          "name": "orderType",
          "type": "uint8"
        },
        {
          "indexed": false,
          "internalType": "uint256",
          "name": "amount",
          "type": "uint256"
        },
        {
          "indexed": false,
          "internalType": "uint256",
          "name": "costPrice",
          "type": "uint256"
        },
        {
          "indexed": false,
          "internalType": "uint256",
          "name": "price",
          "type": "uint256"
        },
        {
          "indexed": false,
          "internalType": "uint256",
          "name": "tradingFee",
          "type": "uint256"
        },
        {
          "indexed": false,
          "internalType": "uint256",
          "name": "leverage",
          "type": "uint256"
        },
        {
          "indexed": false,
          "internalType": "uint256",
          "name": "marginAmount",
          "type": "uint256"
        },
        {
          "indexed": false,
          "internalType": "uint256",
          "name": "limitOrderId",
          "type": "uint256"
        },
        {
          "indexed": false,
          "internalType": "uint256",
          "name": "timestamp",
          "type": "uint256"
        }
      ],
      "name": "OrderHistory",
      "type": "event"
    },
    {
      "anonymous": false,
      "inputs": [
        {
          "indexed": true,
          "internalType": "address",
          "name": "previousOwner",
          "type": "address"
        },
        {
          "indexed": true,
          "internalType": "address",
          "name": "newOwner",
          "type": "address"
        }
      ],
      "name": "OwnershipTransferred",
      "type": "event"
    },
    {
      "anonymous": false,
      "inputs": [
        {
          "indexed": false,
          "internalType": "address",
          "name": "",
          "type": "address"
        },
        {
          "indexed": false,
          "internalType": "bool",
          "name": "",
          "type": "bool"
        }
      ],
      "name": "SetKeeper",
      "type": "event"
    },
    {
      "anonymous": false,
      "inputs": [
        {
          "indexed": false,
          "internalType": "address",
          "name": "token",
          "type": "address"
        },
        {
          "indexed": false,
          "internalType": "uint256",
          "name": "orderID",
          "type": "uint256"
        },
        {
          "indexed": false,
          "internalType": "uint256",
          "name": "dealID",
          "type": "uint256"
        },
        {
          "indexed": false,
          "internalType": "enum IPerpetual.TradeType",
          "name": "tradeType",
          "type": "uint8"
        },
        {
          "indexed": false,
          "internalType": "uint256",
          "name": "amount",
          "type": "uint256"
        },
        {
          "indexed": false,
          "internalType": "uint256",
          "name": "price",
          "type": "uint256"
        },
        {
          "indexed": false,
          "internalType": "uint256",
          "name": "tradingFee",
          "type": "uint256"
        },
        {
          "indexed": false,
          "internalType": "uint256",
          "name": "leverage",
          "type": "uint256"
        },
        {
          "indexed": false,
          "internalType": "uint256",
          "name": "marginAmount",
          "type": "uint256"
        },
        {
          "indexed": false,
          "internalType": "uint256",
          "name": "profit",
          "type": "uint256"
        },
        {
          "indexed": false,
          "internalType": "uint256",
          "name": "loss",
          "type": "uint256"
        },
        {
          "indexed": false,
          "internalType": "uint256",
          "name": "timestamp",
          "type": "uint256"
        }
      ],
      "name": "TradeHistory",
      "type": "event"
    },
    {
      "anonymous": false,
      "inputs": [
        {
          "indexed": true,
          "internalType": "address",
          "name": "token",
          "type": "address"
        },
        {
          "indexed": true,
          "internalType": "address",
          "name": "sender",
          "type": "address"
        },
        {
          "indexed": true,
          "internalType": "address",
          "name": "received",
          "type": "address"
        },
        {
          "indexed": false,
          "internalType": "enum ICommon.TransactionType",
          "name": "transactionType",
          "type": "uint8"
        },
        {
          "indexed": false,
          "internalType": "uint256",
          "name": "amount",
          "type": "uint256"
        },
        {
          "indexed": false,
          "internalType": "uint256",
          "name": "timestamp",
          "type": "uint256"
        }
      ],
      "name": "TransactionHistory",
      "type": "event"
    },
    {
      "anonymous": false,
      "inputs": [
        {
          "indexed": false,
          "internalType": "uint8",
          "name": "direct",
          "type": "uint8"
        },
        {
          "indexed": false,
          "internalType": "uint256",
          "name": "price",
          "type": "uint256"
        },
        {
          "indexed": false,
          "internalType": "uint256",
          "name": "value",
          "type": "uint256"
        }
      ],
      "name": "indexPosition",
      "type": "event"
    },
    {
      "anonymous": false,
      "inputs": [
        {
          "indexed": false,
          "internalType": "address",
          "name": "token",
          "type": "address"
        },
        {
          "indexed": false,
          "internalType": "address",
          "name": "sender",
          "type": "address"
        },
        {
          "indexed": false,
          "internalType": "string",
          "name": "name",
          "type": "string"
        },
        {
          "indexed": false,
          "internalType": "uint256",
          "name": "beforeLeverage",
          "type": "uint256"
        },
        {
          "indexed": false,
          "internalType": "uint256",
          "name": "afterLeverage",
          "type": "uint256"
        }
      ],
      "name": "setLeverage",
      "type": "event"
    },
    {
      "stateMutability": "nonpayable",
      "type": "fallback"
    },
    {
      "inputs": [
        {
          "internalType": "uint256",
          "name": "_oid",
          "type": "uint256"
        },
        {
          "internalType": "address",
          "name": "_holder",
          "type": "address"
        },
        {
          "internalType": "bool",
          "name": "liquidated",
          "type": "bool"
        }
      ],
      "name": "cancelOrder",
      "outputs": [
        {
          "internalType": "address",
          "name": "token",
          "type": "address"
        },
        {
          "internalType": "uint256",
          "name": "lockedAmount",
          "type": "uint256"
        }
      ],
      "stateMutability": "nonpayable",
      "type": "function"
    },
    {
      "inputs": [
        {
          "internalType": "address",
          "name": "_token",
          "type": "address"
        },
        {
          "internalType": "address",
          "name": "_taker",
          "type": "address"
        },
        {
          "internalType": "string",
          "name": "_pair",
          "type": "string"
        },
        {
          "internalType": "enum ICommon.Direct",
          "name": "_type",
          "type": "uint8"
        },
        {
          "internalType": "uint256",
          "name": "_currentPrice",
          "type": "uint256"
        },
        {
          "internalType": "uint256",
          "name": "_deposit",
          "type": "uint256"
        }
      ],
      "name": "clearingTakerPosition",
      "outputs": [
        {
          "internalType": "uint256",
          "name": "deposit",
          "type": "uint256"
        }
      ],
      "stateMutability": "nonpayable",
      "type": "function"
    },
    {
      "inputs": [
        {
          "internalType": "uint256",
          "name": "_dealID",
          "type": "uint256"
        },
        {
          "internalType": "uint256",
          "name": "_amount",
          "type": "uint256"
        },
        {
          "internalType": "enum ICommon.Direct",
          "name": "_type",
          "type": "uint8"
        },
        {
          "internalType": "uint256",
          "name": "_currentPrice",
          "type": "uint256"
        },
        {
          "internalType": "uint256",
          "name": "_leverage",
          "type": "uint256"
        },
        {
          "internalType": "uint256",
          "name": "_tradeFeeRate",
          "type": "uint256"
        },
        {
          "internalType": "uint256",
          "name": "_releaseSize",
          "type": "uint256"
        }
      ],
      "name": "closeDeal",
      "outputs": [
        {
          "internalType": "uint256",
          "name": "profit",
          "type": "uint256"
        },
        {
          "internalType": "uint256",
          "name": "loss",
          "type": "uint256"
        },
        {
          "internalType": "uint256",
          "name": "margin",
          "type": "uint256"
        }
      ],
      "stateMutability": "nonpayable",
      "type": "function"
    },
    {
      "inputs": [],
      "name": "getAndIncreaseOrderID",
      "outputs": [
        {
          "internalType": "uint256",
          "name": "length",
          "type": "uint256"
        }
      ],
      "stateMutability": "nonpayable",
      "type": "function"
    },
    {
      "inputs": [
        {
          "internalType": "uint256",
          "name": "id",
          "type": "uint256"
        }
      ],
      "name": "getDeal",
      "outputs": [
        {
          "components": [
            {
              "internalType": "address",
              "name": "token",
              "type": "address"
            },
            {
              "internalType": "address payable",
              "name": "taker",
              "type": "address"
            },
            {
              "internalType": "enum ICommon.Direct",
              "name": "direct",
              "type": "uint8"
            },
            {
              "internalType": "enum ICommon.DealState",
              "name": "state",
              "type": "uint8"
            },
            {
              "internalType": "uint256",
              "name": "orderID",
              "type": "uint256"
            },
            {
              "internalType": "string",
              "name": "name",
              "type": "string"
            },
            {
              "internalType": "uint256",
              "name": "amount",
              "type": "uint256"
            },
            {
              "internalType": "uint256",
              "name": "price",
              "type": "uint256"
            },
            {
              "internalType": "uint256",
              "name": "leverage",
              "type": "uint256"
            },
            {
              "internalType": "uint256",
              "name": "margin",
              "type": "uint256"
            },
            {
              "internalType": "uint256",
              "name": "tradingFee",
              "type": "uint256"
            },
            {
              "internalType": "uint256",
              "name": "timestamp",
              "type": "uint256"
            }
          ],
          "internalType": "struct ICommon.Deal",
          "name": "",
          "type": "tuple"
        }
      ],
      "stateMutability": "view",
      "type": "function"
    },
    {
      "inputs": [],
      "name": "getDealLength",
      "outputs": [
        {
          "internalType": "uint256",
          "name": "length",
          "type": "uint256"
        }
      ],
      "stateMutability": "view",
      "type": "function"
    },
    {
      "inputs": [
        {
          "internalType": "address",
          "name": "_token",
          "type": "address"
        },
        {
          "internalType": "address",
          "name": "_taker",
          "type": "address"
        },
        {
          "internalType": "string",
          "name": "_name",
          "type": "string"
        },
        {
          "internalType": "enum ICommon.Direct",
          "name": "_direct",
          "type": "uint8"
        }
      ],
      "name": "getDealsByPosition",
      "outputs": [
        {
          "internalType": "uint256[]",
          "name": "_deals",
          "type": "uint256[]"
        }
      ],
      "stateMutability": "view",
      "type": "function"
    },
    {
      "inputs": [
        {
          "internalType": "uint256",
          "name": "id",
          "type": "uint256"
        }
      ],
      "name": "getLimitedOrder",
      "outputs": [
        {
          "components": [
            {
              "internalType": "address",
              "name": "token",
              "type": "address"
            },
            {
              "internalType": "address payable",
              "name": "taker",
              "type": "address"
            },
            {
              "internalType": "enum ICommon.Direct",
              "name": "direct",
              "type": "uint8"
            },
            {
              "internalType": "enum IPerpetual.OrderState",
              "name": "state",
              "type": "uint8"
            },
            {
              "internalType": "enum ICommon.Offset",
              "name": "offset",
              "type": "uint8"
            },
            {
              "internalType": "string",
              "name": "name",
              "type": "string"
            },
            {
              "internalType": "uint256",
              "name": "amount",
              "type": "uint256"
            },
            {
              "internalType": "uint256",
              "name": "targetPrice",
              "type": "uint256"
            },
            {
              "internalType": "uint256",
              "name": "margin",
              "type": "uint256"
            },
            {
              "internalType": "uint256",
              "name": "tradingFee",
              "type": "uint256"
            },
            {
              "internalType": "uint256",
              "name": "rewardGas",
              "type": "uint256"
            },
            {
              "internalType": "uint256",
              "name": "startTime",
              "type": "uint256"
            },
            {
              "internalType": "uint256",
              "name": "orderType",
              "type": "uint256"
            }
          ],
          "internalType": "struct IPerpetual.LimitedOrder",
          "name": "",
          "type": "tuple"
        }
      ],
      "stateMutability": "view",
      "type": "function"
    },
    {
      "inputs": [],
      "name": "getLimitedOrderLength",
      "outputs": [
        {
          "internalType": "uint256",
          "name": "length",
          "type": "uint256"
        }
      ],
      "stateMutability": "view",
      "type": "function"
    },
    {
      "inputs": [],
      "name": "getOrderID",
      "outputs": [
        {
          "internalType": "uint256",
          "name": "length",
          "type": "uint256"
        }
      ],
      "stateMutability": "view",
      "type": "function"
    },
    {
      "inputs": [
        {
          "internalType": "uint256",
          "name": "_id",
          "type": "uint256"
        }
      ],
      "name": "getTriggerCondition",
      "outputs": [
        {
          "components": [
            {
              "internalType": "string",
              "name": "remark",
              "type": "string"
            },
            {
              "internalType": "uint256",
              "name": "mean",
              "type": "uint256"
            },
            {
              "internalType": "uint256",
              "name": "openLimitPrice",
              "type": "uint256"
            },
            {
              "internalType": "uint256",
              "name": "gainTriggerPrice",
              "type": "uint256"
            },
            {
              "internalType": "uint256",
              "name": "gainLimitPrice",
              "type": "uint256"
            },
            {
              "internalType": "uint256",
              "name": "lossTriggerPrice",
              "type": "uint256"
            },
            {
              "internalType": "uint256",
              "name": "lossLimitPrice",
              "type": "uint256"
            }
          ],
          "internalType": "struct IPerpetual.TriggerCondition",
          "name": "",
          "type": "tuple"
        }
      ],
      "stateMutability": "view",
      "type": "function"
    },
    {
      "inputs": [
        {
          "internalType": "address",
          "name": "token",
          "type": "address"
        },
        {
          "internalType": "address",
          "name": "user",
          "type": "address"
        }
      ],
      "name": "getUserDealsID",
      "outputs": [
        {
          "internalType": "uint256[]",
          "name": "",
          "type": "uint256[]"
        }
      ],
      "stateMutability": "view",
      "type": "function"
    },
    {
      "inputs": [
        {
          "internalType": "address",
          "name": "token",
          "type": "address"
        },
        {
          "internalType": "address",
          "name": "user",
          "type": "address"
        }
      ],
      "name": "getUserLimitOrdersID",
      "outputs": [
        {
          "internalType": "uint256[]",
          "name": "",
          "type": "uint256[]"
        }
      ],
      "stateMutability": "view",
      "type": "function"
    },
    {
      "inputs": [
        {
          "internalType": "address",
          "name": "_priPool",
          "type": "address"
        },
        {
          "internalType": "address",
          "name": "_perpetual",
          "type": "address"
        }
      ],
      "name": "initialize",
      "outputs": [],
      "stateMutability": "nonpayable",
      "type": "function"
    },
    {
      "inputs": [
        {
          "internalType": "uint256",
          "name": "_dealID",
          "type": "uint256"
        },
        {
          "internalType": "string[]",
          "name": "_symbols",
          "type": "string[]"
        },
        {
          "internalType": "uint256[]",
          "name": "_prices",
          "type": "uint256[]"
        }
      ],
      "name": "liquidateMakerDeal",
      "outputs": [
        {
          "internalType": "bool",
          "name": "isLiquidated",
          "type": "bool"
        },
        {
          "internalType": "bool",
          "name": "isAgreement",
          "type": "bool"
        },
        {
          "internalType": "uint256",
          "name": "userProfit",
          "type": "uint256"
        },
        {
          "internalType": "address",
          "name": "token",
          "type": "address"
        },
        {
          "internalType": "address",
          "name": "taker",
          "type": "address"
        },
        {
          "internalType": "uint256",
          "name": "margin",
          "type": "uint256"
        }
      ],
      "stateMutability": "nonpayable",
      "type": "function"
    },
    {
      "inputs": [
        {
          "internalType": "address",
          "name": "_token",
          "type": "address"
        },
        {
          "internalType": "address",
          "name": "_taker",
          "type": "address"
        },
        {
          "internalType": "string",
          "name": "_name",
          "type": "string"
        },
        {
          "internalType": "enum ICommon.Direct",
          "name": "_direct",
          "type": "uint8"
        },
        {
          "internalType": "enum ICommon.Offset",
          "name": "_offset",
          "type": "uint8"
        },
        {
          "internalType": "uint256",
          "name": "_amount",
          "type": "uint256"
        },
        {
          "internalType": "uint256",
          "name": "_price",
          "type": "uint256"
        },
        {
          "internalType": "uint256",
          "name": "_tradingFee",
          "type": "uint256"
        },
        {
          "internalType": "uint256",
          "name": "_rewardGas",
          "type": "uint256"
        },
        {
          "internalType": "uint256",
          "name": "_marginAmount",
          "type": "uint256"
        },
        {
          "internalType": "uint256",
          "name": "_orderType2",
          "type": "uint256"
        },
        {
          "internalType": "bool",
          "name": "condition",
          "type": "bool"
        },
        {
          "internalType": "uint256",
          "name": "_dueGas",
          "type": "uint256"
        }
      ],
      "name": "makeLimitedOrder",
      "outputs": [],
      "stateMutability": "payable",
      "type": "function"
    },
    {
      "inputs": [
        {
          "internalType": "address",
          "name": "_token",
          "type": "address"
        },
        {
          "internalType": "address",
          "name": "_taker",
          "type": "address"
        },
        {
          "internalType": "string",
          "name": "_name",
          "type": "string"
        },
        {
          "internalType": "enum ICommon.Direct",
          "name": "_direct",
          "type": "uint8"
        },
        {
          "internalType": "enum IPerpetual.OrderType",
          "name": "_orderType",
          "type": "uint8"
        },
        {
          "internalType": "uint256",
          "name": "_limitID",
          "type": "uint256"
        },
        {
          "components": [
            {
              "internalType": "uint256",
              "name": "marketValue",
              "type": "uint256"
            },
            {
              "internalType": "uint256",
              "name": "marginAmount",
              "type": "uint256"
            },
            {
              "internalType": "uint256",
              "name": "tradingFee",
              "type": "uint256"
            },
            {
              "internalType": "uint256",
              "name": "totalLocked",
              "type": "uint256"
            },
            {
              "internalType": "uint256",
              "name": "currentPrice",
              "type": "uint256"
            },
            {
              "internalType": "uint256",
              "name": "dealPrice",
              "type": "uint256"
            },
            {
              "internalType": "uint256",
              "name": "amount",
              "type": "uint256"
            },
            {
              "internalType": "uint256",
              "name": "leverage",
              "type": "uint256"
            }
          ],
          "internalType": "struct IPerpetual.Fees",
          "name": "fee",
          "type": "tuple"
        }
      ],
      "name": "openOrder",
      "outputs": [],
      "stateMutability": "nonpayable",
      "type": "function"
    },
    {
      "inputs": [],
      "name": "owner",
      "outputs": [
        {
          "internalType": "address",
          "name": "",
          "type": "address"
        }
      ],
      "stateMutability": "view",
      "type": "function"
    },
    {
      "inputs": [
        {
          "internalType": "address",
          "name": "",
          "type": "address"
        },
        {
          "internalType": "address",
          "name": "",
          "type": "address"
        },
        {
          "internalType": "string",
          "name": "",
          "type": "string"
        },
        {
          "internalType": "uint256",
          "name": "",
          "type": "uint256"
        }
      ],
      "name": "positions",
      "outputs": [
        {
          "internalType": "uint256",
          "name": "value",
          "type": "uint256"
        },
        {
          "internalType": "uint256",
          "name": "size",
          "type": "uint256"
        },
        {
          "internalType": "uint256",
          "name": "margin",
          "type": "uint256"
        },
        {
          "internalType": "uint256",
          "name": "freeze",
          "type": "uint256"
        }
      ],
      "stateMutability": "view",
      "type": "function"
    },
    {
      "inputs": [],
      "name": "renounceOwnership",
      "outputs": [],
      "stateMutability": "nonpayable",
      "type": "function"
    },
    {
      "inputs": [
        {
          "internalType": "address",
          "name": "_agent",
          "type": "address"
        },
        {
          "internalType": "address",
          "name": "_station",
          "type": "address"
        },
        {
          "internalType": "address",
          "name": "_poolAgent",
          "type": "address"
        },
        {
          "internalType": "address",
          "name": "keeper",
          "type": "address"
        }
      ],
      "name": "setKeepers",
      "outputs": [],
      "stateMutability": "nonpayable",
      "type": "function"
    },
    {
      "inputs": [
        {
          "internalType": "address",
          "name": "newOwner",
          "type": "address"
        }
      ],
      "name": "transferOwnership",
      "outputs": [],
      "stateMutability": "nonpayable",
      "type": "function"
    },
    {
      "inputs": [
        {
          "internalType": "uint256",
          "name": "limitID",
          "type": "uint256"
        },
        {
          "internalType": "enum IPerpetual.OrderState",
          "name": "state",
          "type": "uint8"
        },
        {
          "internalType": "uint256",
          "name": "rewardGas",
          "type": "uint256"
        }
      ],
      "name": "updateLimitOrder",
      "outputs": [],
      "stateMutability": "nonpayable",
      "type": "function"
    },
    {
      "inputs": [
        {
          "internalType": "uint256",
          "name": "limitOrderID",
          "type": "uint256"
        },
        {
          "internalType": "uint256",
          "name": "_mean",
          "type": "uint256"
        },
        {
          "internalType": "uint256",
          "name": "_openLimitPrice",
          "type": "uint256"
        },
        {
          "internalType": "uint256",
          "name": "_gainTriggerPrice",
          "type": "uint256"
        },
        {
          "internalType": "uint256",
          "name": "_gainLimitPrice",
          "type": "uint256"
        },
        {
          "internalType": "uint256",
          "name": "_lossTriggerPrice",
          "type": "uint256"
        },
        {
          "internalType": "uint256",
          "name": "_lossLimitPrice",
          "type": "uint256"
        }
      ],
      "name": "updateTriggerCondition",
      "outputs": [],
      "stateMutability": "nonpayable",
      "type": "function"
    }
  ],
  "bytecode": "0x60808060405234601557614b7d908161001a8239f35b5f80fdfe608080604052600436101561001b575b503461001757005b5f80fd5b5f905f3560e01c9081630187703f14612e32575080630c3fc6b914612cde57806317900de0146125445780633a0204a91461247a578063485cc955146121dc57806349138690146121be57806349216f851461217057806350942355146120eb578063715018a61461205257806381a4f17314611f5e57806382fd5bac14611e155780638da5cb5b14611dcf578063982edc3c14611d81578063ac89c79814611bd4578063b811988814611bb6578063b99ac92714611b70578063be63309e14611b05578063c22e672c1461109b578063c2b3356414611039578063c3710f251461101b578063cc5bc741146108f8578063dcee347514610228578063ec4082911461015a5763f2fde38b0361000f573461015757602060031936011261015757610154610147612f70565b61014f6146d6565b6144a4565b80f35b80fd5b503461015757608060031936011261015757610174612f70565b61017c612f86565b60443567ffffffffffffffff81116102245761019c903690600401613061565b906064359260038410156102205792610203602080600495610209956001600160a01b03604061021c9b826102109c168152600b86522091165f52825260405f20604051938285935191829101845e820190815203019020916101fe81612f5c565b61332d565b906130a7565b500161337d565b604051918291826130ce565b0390f35b8480fd5b8380fd5b50346101575760606003193601126101575760243560043567ffffffffffffffff82116108f457366023830112156108f45781600401359161026983613107565b926102776040519485613022565b80845260051b8101602401602084013682116108f05760248301905b8282106108bc57505050506044359067ffffffffffffffff82116102245736602383011215610224578160040135916102cb83613107565b926102d96040519485613022565b8084526024602085019160051b830101913683116108b857939493602401905b8282106108a857505050338452600a60205261031b60ff6040862054166132e2565b61032d610327826131f5565b50613828565b9084936001600160a01b0383511690869460a08501955b815181101561089b5761035781836133c7565b516040516103856020828d8280830196805191829101885e820190838201520301601f198101835282613022565b51902087518a6103b8602060405180938280830196805191829101885e820190838201520301601f198101835282613022565b519020146103c857600101610344565b9190506103d99293949596506133c7565b51925b60208101956001600160a01b038751169381610120840197606089519860446001600160a01b03600254169160405197889384927f016f4dcb00000000000000000000000000000000000000000000000000000000845289600485015260248401525af194851561089057829983958497610837575b508a610487575b505050505060c0965060405195151586521515602086015260408501526060840152608083015260a0820152f35b83989599969b6104aa836104a4889e9b98600560608401526131f5565b906142c9565b6001600160a01b0383511685526009602052604085206001600160a01b0380835116165f526020526104df8c60405f2061460d565b506001600160a01b038351166001600160a01b038251169185519560408601519161050983612f5c565b60c0870151955197670de0b6b3a764000061052860e08a01518961334c565b049961053385612f5c565b60018514908115610821575b50156107dd576001600160a01b038f807faf7f2bb51be6fae4db771c6d0838b6242dbaab0aabf2a14b0ada2f9a8a90875f6040998960049f996106839f9760209c9b6102039f998f989a8f9e8b9c52600b8f528989208b88165f528f526105cb8a5f2060208c518092885180848b01845e8201908152030190206105c287612f5c565b6102038761332d565b5092835480155f1461079457508355600183015560028201555b805460018201549061061960036002850154940154948b51988998895260208901526101008c890152610100880190612f37565b9461062381612f5c565b6060870152608086015260a085015260c084015260e08301520390a1828b51168152600b875220925116165f528252835f209051908451938285935191829101845e82019081520301902092015161067a81612f5c565b6101fe81612f5c565b50019761068f8961337d565b96865b885181101561078157896106a6828b6133c7565b51146106b457600101610692565b909192939495969798506106db6106cb828c6133db565b8154905f199060031b1b19169055565b6001810180911161076d575b885181101561074f576106fa818b6133db565b90549060031b1c5f19820182811161073b576001929161071d610735928e6133db565b90919082549060031b91821b915f19901b1916179055565b016106e7565b60248a634e487b7160e01b81526011600452fd5b50919395509193955061076360c0976133fd565b5f80808080610459565b602488634e487b7160e01b81526011600452fd5b5092955092955092955060c09650610763565b916107c591506107a4818461334c565b6107be60018701946107b88654809461335f565b9061333f565b865561333f565b90556107d66002830191825461333f565b90556105e5565b606460405162461bcd60e51b815260206004820152601160248201527f496e76616c696420646972656374696f6e0000000000000000000000000000006044820152fd5b5061082d905084612f5c565b600284148f61053f565b9650995093506060853d606011610888575b8161085660609383613022565b81010312610884576108678561347d565b9360406108766020880161347d565b96015194998a969596610452565b5080fd5b3d9150610849565b6040513d84823e3d90fd5b50505090919392936103dc565b81358152602091820191016102f9565b8680fd5b813567ffffffffffffffff81116108ec576020916108e1839260243691890101613061565b815201910190610293565b8780fd5b8580fd5b8280fd5b5034610157576101c060031936011261015757610913612f70565b61091b612f86565b9060443567ffffffffffffffff81116102245761093c903690600401613061565b91600360643510156102245760086084351015610224576101007fffffffffffffffffffffffffffffffffffffffffffffffffffffffffffffff3c3601126102245760405190610100820182811067ffffffffffffffff8211176110075760405260c435825260e43560208301526101043560408301526101243560608301526101443560808301526101643560a08301526101843560c08301526101a43560e0830152338552600a6020526109f860ff6040872054166132e2565b610a696040856001600160a01b03600454166001600160a01b03898860065460c08a0151878b015160a08c01519189519a8b998a9889977fd5c3df3900000000000000000000000000000000000000000000000000000000895216600488015260e0602488015260e4870190612f37565b9360448601526064850152608484015260a4830152610a89606435612f5c565b60643560c483015203925af1908115610ffc578691610fc2575b5015610f7e5760c08201516020830151835190610ac1606435612f5c565b6001606435148015610f67575b156107dd577faf7f2bb51be6fae4db771c6d0838b6242dbaab0aabf2a14b0ada2f9a8a90875f926001600160a01b0387168952600b602052604089206001600160a01b0386165f52602052610b5060405f2060206040518092828d805191829101845e820190815203019020610b45606435612f5c565b61020360643561332d565b50928354155f14610f33578355600183015560028201555b8054600182015490600360028401549301546040519384936001600160a01b038a1685526001600160a01b03881660208601526101006040860152610bb161010086018c612f37565b93610bbd606435612f5c565b6064356060870152608086015260a085015260c084015260e08301520390a1610be7606435612f5c565b610c06610bf560643561332d565b60a084015160065491878588614856565b6001600160a01b03831685526009602052604085206001600160a01b0382165f52602052610c3a60405f2060065490614769565b5060055460c083015160a084015160e085015160208601519160408701519360405195610c6687612fe9565b6001600160a01b038a1687526001600160a01b0388166020880152610c8c606435612f5c565b60643560408801526001606088015260808701528960a087015260c086015260e08501526101008401526101208301526101408201524261016082015260065468010000000000000000811015610f1f578692916104a4826001610cf394016006556131f5565b600554947f52e38618358c614d6c859d2d6481831837d95cf94ee1be20b2243cbb5f69addc60c08501519160a0860151604087015160e088015190602089015192610d4b604051956101a087526101a0870190612f37565b966001600160a01b038c1660208701528c6040870152610d6c606435612f5c565b6064356060870152610d7f608435612f66565b608435608087015260a08601528060c086015260e085015261010084015261012083015261014082015260a43561016082015242610180820152806001600160a01b038516930390a26001600160a01b036040840151916040519260038452602084015242604084015216907feb42cf637f927243245c50b4bf7fe105fe4f4d26209102240f2ba3d8e27a7df860606001600160a01b03871692a4600190610e28608435612f66565b600260843514610f16575b6006545f19810192908311610f025791816101809360c07f85a6bfd765950245f4f456c74db06ee8bad5a7ea04b80581aa7563d196421f669694015160a083015190610ead604085015193602060e0870151960151966001600160a01b03604051991689528b60208a01526040890152606088019061342d565b608086015260a085015260c084015260e0830152610100820152846101208201528461014082015242610160820152a160018101809111610eee5760055580f35b602482634e487b7160e01b81526011600452fd5b602486634e487b7160e01b81526011600452fd5b60029150610e33565b602487634e487b7160e01b81526041600452fd5b610f3e9084546133f0565b8355610f4f600184019182546133f0565b9055610f60600283019182546133f0565b9055610b68565b50610f73606435612f5c565b600260643514610ace565b606460405162461bcd60e51b815260206004820152601760248201527f6c6971756964697479206973206e6f7420656e6f7567680000000000000000006044820152fd5b90506040813d604011610ff4575b81610fdd60409383613022565b810103126108f057610fee9061347d565b5f610aa3565b3d9150610fd0565b6040513d88823e3d90fd5b602486634e487b7160e01b81526041600452fd5b50346101575780600319360112610157576020600554604051908152f35b503461015757606060031936011261015757611053612f86565b6044359081151582036108f457906110869161107e60ff60408096338152600a6020522054166132e2565b600435613f42565b6001600160a01b038351921682526020820152f35b506101a0600319360112610157576110b1612f70565b6110b9612f86565b60443567ffffffffffffffff8111610224576110d9903690600401613061565b906064356003811015610220576084359260038410156108f05760a4359160c4359160e4359461010435936101243595610144359861016435908115158203611b01578c610184359b338252600a60205261113a60ff6040842054166132e2565b6001600160a01b038060075498169e169c6040519250610180835261116361018084018a612f37565b9760208401526111728a612f5c565b604083018a90528f8f8f8f8f96808e9d8593859a8f8f8e606087016001905261119a81612f5c565b608087015260a086015260c085015260e0840152886101008401526101208301524261014083015288610160830152037f052d8cb39abc1bd624ecd7027fd1b94ded9c7704f379055adcbab77044ec255b91a3848252600b60205260408220815f5260205260405f2060405180918c516020819f019e8f845e82019081520360200190206112278d612f5c565b6112308d61332d565b611239916130a7565b5096156119e157906112b8949392916040519461125586612fcc565b855260208501526112658c612f5c565b8b60408501526001606085015261127b86612f5c565b8560808501528960a08501528760c08501528860e08501528061010085015261012084015261014083015242610160830152610180820152613c7b565b6112c181612f5c565b6001810361153457505050505050506040516112dc81612f9c565b6112e4613cd5565b815260208101600181526040820185815260608301848152608084018a815260a085019187835260c08601938c85526007545f198101908111611520578d52600c60205260408d20965195865167ffffffffffffffff811161150c578e61134b8a5461311f565b601f81116114d1575b50602090601f8311600114611461579060069983611456575b50508160011b915f199060031b1c19161788555b516001880155516002870155516003860155516004850155516005840155519101556007545f1981019390841161144257917f68cbb1c862d9d961359025e53792aa8be48fcf01d4712cf5dfd194d2a184a769939160c0936040519384526020840152604083015286606083015260808201528560a0820152a15b8252600860205260408220905f5260205260405f20600754905f19820191821161142e579061142a91614769565b5080f35b602483634e487b7160e01b81526011600452fd5b602487634e487b7160e01b81526011600452fd5b015190505f8061136d565b9192939495969798601f1984168b8452828420935b8181106114b9575091600193918560069c9b9a9998979694106114a1575b505050811b018855611381565b01515f1960f88460031b161c191690555f8080611494565b92936020600181928786015181550195019301611476565b6114fc908b835260208320601f850160051c81019160208610611502575b601f0160051c019061348a565b5f611354565b90915081906114ef565b60248f634e487b7160e01b81526041600452fd5b60248e634e487b7160e01b81526011600452fd5b6002908d9a979a9996999895985061154b81612f5c565b1461155f575b5050505050505050506113fc565b80600360016115739301549101549061333f565b1061199d5789966115ee6115e88a9860208d99889a6040899b9e899e60606080845161159e81613006565b84815284898201528486820152848382015201528152600b855220905f52825260405f20604051938492518091845e8201908152030190206115df84612f5c565b6102038461332d565b5061343a565b602081018051156119595783159182159283611951575b61181f575b5050505050505090919260405161162081612f9c565b611628613cd5565b8152602081016001815260408201898152606083018781526080840185815260a085019187835260c08601938985526007545f19810190811161180b578e6040918152600c60205220965195865167ffffffffffffffff81116117f6578f6116908a5461311f565b601f81116117c6575b50602090601f831160011461175657906006998361174b575b50508160011b915f199060031b1c19161788555b516001880155516002870155516003860155516004850155516005840155519101556007545f1981019490851161076d5760408051958652602086018990528501526060840152608083015260a08201527f68cbb1c862d9d961359025e53792aa8be48fcf01d4712cf5dfd194d2a184a7699060c090a15f8080808080808080611551565b015190505f806116b2565b9192939495969798601f1984168b8452828420935b8181106117ae575091600193918560069c9b9a999897969410611796575b505050811b0188556116c6565b01515f1960f88460031b161c191690555f8080611789565b9293602060018192878601518155019501930161176b565b6117f0908b835260208320601f850160051c8101916020861061150257601f0160051c019061348a565b5f611699565b5060248f634e487b7160e01b81526041600452fd5b60248f634e487b7160e01b81526011600452fd5b5190670de0b6b3a7640000820291808304670de0b6b3a76400001490151715611520575161184c9161335f565b92816118fa575b501561187357505050505050908491855b9291905f80808080808061160a565b829794959697151591826118a1575b5050611890575b5050611864565b935093505050908485915f80611889565b9091506118ad82612f5c565b6001821491826118f0575b82156118c8575b50505f80611882565b60029192506118d681612f5c565b1490816118e6575b505f806118bf565b905081105f6118de565b81841192506118b8565b905061190582612f5c565b600182149081611947575b811561191e575b505f611853565b905061192982612f5c565b8260028314918261193d575b50505f611917565b119050825f611935565b8381109150611910565b508515611605565b606460405162461bcd60e51b815260206004820152601560248201527f706f736974696f6e2073697a65206973207a65726f00000000000000000000006044820152fd5b606460405162461bcd60e51b815260206004820152601160248201527f6f636f20616d6f756e74206578636565640000000000000000000000000000006044820152fd5b60029c50611a659a5060409e969d959b9192979e99939894995199611a058b612fcc565b8a5260208a0152611a1581612f5c565b60408901525060016060880152611a2b89612f5c565b88608088015260a08701528a60c087015260e086015261010085015261012084015261014083015242610160830152610180820152613c7b565b611a6e81612f5c565b14611a7b575b50506113fc565b60036001820154910191611a918354809361333f565b8111611aa957611aa0916133f0565b90555f80611a74565b606460405162461bcd60e51b815260206004820152601960248201527f6c696d697420636c6f736520616d6f756e7420657863656564000000000000006044820152fd5b634e487b7160e01b5f52602160045260245ffd5b8c80fd5b50346101575760e060031936011261015757338152600a602052611b2f60ff6040832054166132e2565b6004358152600c60205260408120602435600182015560443560028201556064356003820155608435600482015560a4356005820155600660c43591015580f35b5034610157578060031936011261015757338152600a602052611b9960ff6040832054166132e2565b6005546001810180821161142e5760209250600555604051908152f35b50346101575780600319360112610157576020600654604051908152f35b50346101575760606003193601126101575760243560043560088210156108f4578061142a9260443590338652600a602052611c1660ff6040882054166132e2565b611c1f836131d9565b5090611c2f6001830191826138e6565b60078201928084558781151580611d77575b611d58575b505054907f7d0616460a0a454bdf3e48a4f63e79ef1e23eb2a336bc7869d81c0dd7d2a99de60026101806001600160a01b03851696846001600160a01b0389965416978760ff8a9960a01c169160ff808360a81c169260b01c169060038501546004860154906005870154925493600688015495600889015497611cdb60098b01549a6040519e8f9e8f818152019101613157565b9a60208d0152611cea81612f5c565b60408c0152611cf881612f66565b60608b0152611d0681612f5c565b60808a015260a089015260c088015260e08701526101008601526101208501526101408401526101608301520390a3845260086020526001600160a01b036040852091165f5260205260405f2061460d565b808080611d7094325af1611d6a61391b565b5061394a565b5f87611c46565b5081471015611c41565b5034610157576040600319360112610157576001600160a01b036040611da5612f70565b9282611daf612f86565b9416815260086020522091165f5260205261021c61021060405f2061337d565b503461015757806003193601126101575760206001600160a01b037f9016d09d72d40fdae2fd8ceac6b6234c7706214fd39c1cd1e609a0528c1993005416604051908152f35b50346101575760206003193601126101575780610160604051611e3781612fe9565b828152826020820152826040820152826060820152826080820152606060a08201528260c08201528260e08201528261010082015282610120820152826101408201520152611e8a6103276004356131f5565b60405190602082526001600160a01b0381511660208301526001600160a01b0360208201511660408301526040810151611ec381612f5c565b606083015260608101516006811015611f4a578293506080830152608081015160a0830152610160611f0660a083015161018060c08601526101a0850190612f37565b9160c081015160e085015260e08101516101008501526101008101516101208501526101208101516101408501526101408101518285015201516101808301520390f35b602484634e487b7160e01b81526021600452fd5b503461015757608060031936011261015757611f78612f70565b611f80612f86565b90604435916001600160a01b03831680930361022457606435916001600160a01b038316809303610220576001600160a01b038091611fbd6146d6565b1691828652600a60205260408620600160ff198254161790551691828552600a60205260408520600160ff19825416179055838552600a60205260408520600160ff198254161790558452600a60205260408420600160ff198254161790556001600160a01b031960025416176002556001600160a01b031960035416176003556001600160a01b0319600454161760045580f35b503461015757806003193601126101575761206b6146d6565b806001600160a01b037f9016d09d72d40fdae2fd8ceac6b6234c7706214fd39c1cd1e609a0528c199300546001600160a01b031981167f9016d09d72d40fdae2fd8ceac6b6234c7706214fd39c1cd1e609a0528c19930055167f8be0079c531659141344cd1fd0a4f28419497f9722a3daafe3b4186f6b6457e08280a380f35b50346101575760c060031936011261015757612105612f70565b61210d612f86565b9060443567ffffffffffffffff81116102245761212e903690600401613061565b606435906003821015610220579061216893929161215b60ff6040602098338152600a8a522054166132e2565b60a43593608435936134a0565b604051908152f35b5034610157576040600319360112610157576001600160a01b036040612194612f70565b928261219e612f86565b9416815260096020522091165f5260205261021c61021060405f2061337d565b50346101575780600319360112610157576020600754604051908152f35b5034610157576040600319360112610157576121f6612f70565b6121fe612f86565b7ff0c57e16840df040f15088dc2f81fe391c3923bec73e23a9662efc9c229c6a00549160ff8360401c16159267ffffffffffffffff811680159081612472575b6001149081612468575b15908161245f575b50612437576001600160a01b039291818560017fffffffffffffffffffffffffffffffffffffffffffffffff0000000000000000879516177ff0c57e16840df040f15088dc2f81fe391c3923bec73e23a9662efc9c229c6a00556123e2575b506122b8614af0565b6122c0614af0565b6122c9336144a4565b16806001600160a01b03198654161785558452600a60205260408420600160ff1982541617905516806001600160a01b031960015416176001558252600a60205260408220600160ff19825416179055338252600a60205260408220600160ff19825416179055308252600a60205260408220600160ff1982541617905561234e5780f35b7fffffffffffffffffffffffffffffffffffffffffffffff00ffffffffffffffff7ff0c57e16840df040f15088dc2f81fe391c3923bec73e23a9662efc9c229c6a0054167ff0c57e16840df040f15088dc2f81fe391c3923bec73e23a9662efc9c229c6a00557fc7f505b2f371ae2175ee4913f4499e1f2633a7b5936321eed1cdaeb6115181d2602060405160018152a180f35b7fffffffffffffffffffffffffffffffffffffffffffffff0000000000000000001668010000000000000001177ff0c57e16840df040f15088dc2f81fe391c3923bec73e23a9662efc9c229c6a00555f6122af565b6004857ff92ee8a9000000000000000000000000000000000000000000000000000000008152fd5b9050155f612250565b303b159150612248565b85915061223e565b503461015757608060031936011261015757612494612f70565b9061249d612f86565b60443567ffffffffffffffff81116108f4576020916124c183923690600401613061565b906001600160a01b0360643596168552600b83526001600160a01b036040862091165f52825260405f20604051938285935191829101845e82019081520301902090600283101561015757608061251884846130a7565b508054906001810154906003600282015491015491604051938452602084015260408301526060820152f35b50346100175760e06003193601126100175760043560243560443592600384101561001757335f52600a60205261258160ff60405f2054166132e2565b61258a836131f5565b50916001600160a01b038354165f52600b60205260405f2060018401908154906001600160a01b03808316165f5260205260405f20906003860191604051905f9084546125d68161311f565b9060018116908115612cc95750600114612c96575b508152819003602001902061260d916102039060a01c60ff166101fe81612f5c565b50936126306003860161262360c435825461333f565b809155600187015461333f565b8411612c525783158015612c45575b15612ae3579082916080600460e48a6126718b60ff5f9a5460a01c16600582015495869201549182916064359061455f565b9890936001600160a01b03825416906040519a8b9687957ff26a3e1d00000000000000000000000000000000000000000000000000000000875260048701528460248701526044860152606485015282608485015260a4840152600160c48401525af1938415612a6c575f945f915f905f92612a8b575b505050939160078801549360046003986001600160a01b038b54165f52600960205260405f206001600160a01b0380855416165f5260205261272d8c60405f2061460d565b50750300000000000000000000000000000000000000000060ff60a81b19845416178355019a61275c8c61337d565b995f5b8b51811015612a77578d8d612774838f6133c7565b5114612783575060010161275f565b6106cb829d9e939495969798999a9b9c9d61279d926133db565b600181018091116127e5575b8c518110156127f9576127bc818f6133db565b9054908d1b1c905f1981018181116127e5578f9261071d6127df926001956133db565b016127a9565b634e487b7160e01b5f52601160045260245ffd5b509295989b61280f9194979a9295989b506133fd565b6001600160a01b03600254166001600160a01b03845416906001600160a01b0387541691813b15610017575f610164928f8f908f908498612893916040519b8c9a8b997ff1257f84000000000000000000000000000000000000000000000000000000008b5260048b015260248a015260448901526064880152608487019061342d565b60643560a486015260843560c486015260e485015260a4356101048501526101248401528c6101448401525af18015612a6c57612a55575b506128f56001600160a01b03806128ee9354169454169460405192838092613157565b0382613022565b846128ff83612f5c565b600183148015612a42575b156107dd576060997faf7f2bb51be6fae4db771c6d0838b6242dbaab0aabf2a14b0ada2f9a8a90875f96858352600b602052604083206001600160a01b0388165f5260205261297760405f2060206040518092885180848b01845e8201908152030190206105c287612f5c565b5080549093816129fe575050825560018201558760028201555b80546001820154906129c76003600285015494015494604051988998895260208901526101006040890152610100880190612f37565b946129d181612f5c565b8c870152608086015260a085015260c084015260e08301520390a160405192835260208301526040820152f35b5091612a2a9150612a0f818461334c565b612a2360018601946107b88654809461335f565b855561333f565b905560028101612a3b89825461333f565b9055612991565b50612a4c83612f5c565b6002831461290a565b612a629195505f90613022565b5f936128f56128cb565b6040513d5f823e3d90fd5b5093979b509397909498509890949861280f565b96505050506080843d608011612adb575b81612aa960809383613022565b8101031261001757835193602081015194612ad26060612acb6040850161347d565b930161347d565b9095915f6126e8565b3d9150612a9c565b9296935090809594955460a01c60ff169360058701549660048101958987548a606435612b0f9461455f565b905f546001600160a01b03166040519a8b9384937ff26a3e1d0000000000000000000000000000000000000000000000000000000085528c6004860152602485015f9052604485015260648401528c608484015260a483015260c48201600190525a925f60e492608095f1978815612a6c575f985f915f905f92612bf4575b50505097956007820190612bc78b835493612ba9828661334c565b90612bc0612bb98654809461335f565b809761333f565b905561333f565b9055750200000000000000000000000000000000000000000060ff60a81b1985541617845596600461280f565b9a505050506080883d608011612c3d575b81612c1260809383613022565b8101031261001757875197602081015198612c346060612acb6040850161347d565b9099915f612b8e565b3d9150612c05565b506004860154841461263f565b606460405162461bcd60e51b815260206004820152601d60248201527f617661696c61626c6520616d6f756e7420696e73756666696369656e740000006044820152fd5b909150845f5260205f205f905b828210612cb5575050820190826125eb565b600181602092548488015201910190612ca3565b60ff19168552508015150283019150826125eb565b34610017576020600319360112610017575f610180604051612cff81612fcc565b828152826020820152826040820152826060820152826080820152606060a08201528260c08201528260e0820152826101008201528261012082015282610140820152826101608201520152612d5f612d596004356131d9565b50613211565b6040518091602082526001600160a01b0381511660208301526001600160a01b0360208201511660408301526040810151612d9981612f5c565b60608301526060810151612dac81612f66565b60808301526080810151612dbf81612f5c565b60a0830152610180612de260a08301516101a060c08601526101c0850190612f37565b9160c081015160e085015260e08101516101008501526101008101516101208501526101208101516101408501526101408101516101608501526101608101518285015201516101a08301520390f35b346100175760206003193601126100175760c081612e505f93612f9c565b606081528260208201528260408201528260608201528260808201528260a082015201526004355f52600c602052612f0e60405f2060405190612e9282612f9c565b604051612ea3816128ee8185613157565b8252600181015490602083019182526002810154906040840191825260038101546060850190815260048201549060808601918252600660058401549360a0880194855201549360c08701948552604051978897602089525160e060208a0152610100890190612f37565b955160408801525160608701525160808601525160a08501525160c08401525160e08301520390f35b90601f19601f602080948051918291828752018686015e5f8582860101520116010190565b60031115611aed57565b60081115611aed57565b600435906001600160a01b038216820361001757565b602435906001600160a01b038216820361001757565b60e0810190811067ffffffffffffffff821117612fb857604052565b634e487b7160e01b5f52604160045260245ffd5b6101a0810190811067ffffffffffffffff821117612fb857604052565b610180810190811067ffffffffffffffff821117612fb857604052565b60a0810190811067ffffffffffffffff821117612fb857604052565b90601f601f19910116810190811067ffffffffffffffff821117612fb857604052565b67ffffffffffffffff8111612fb857601f01601f191660200190565b81601f820112156100175780359061307882613045565b926130866040519485613022565b8284526020838301011161001757815f926020809301838601378301015290565b9060028110156130ba5760050201905f90565b634e487b7160e01b5f52603260045260245ffd5b60206040818301928281528451809452019201905f5b8181106130f15750505090565b82518452602093840193909201916001016130e4565b67ffffffffffffffff8111612fb85760051b60200190565b90600182811c9216801561314d575b602083101461313957565b634e487b7160e01b5f52602260045260245ffd5b91607f169161312e565b5f92918154916131668361311f565b80835292600181169081156131bb575060011461318257505050565b5f9081526020812093945091925b8383106131a1575060209250010190565b600181602092949394548385870101520191019190613190565b9050602094955060ff1991509291921683830152151560051b010190565b6007548110156130ba5760075f52600a60205f20910201905f90565b6006548110156130ba5760065f52600a60205f20910201905f90565b9060405161321e81612fcc565b610180600982946001600160a01b03815416845260ff60018201546001600160a01b0381166020870152818160a01c1661325781612f5c565b6040870152818160a81c1661326b81612f66565b606087015260b01c1661327d81612f5c565b6080850152604051613296816128ee8160028601613157565b60a0850152600381015460c0850152600481015460e085015260058101546101008501526006810154610120850152600781015461014085015260088101546101608501520154910152565b156132e957565b606460405162461bcd60e51b815260206004820152601f60248201527f63616c6c6572206973206e6f74206f7264657220626f6f6b206b6565706572006044820152fd5b60ff5f199116019060ff82116127e557565b919082039182116127e557565b818102929181159184041417156127e557565b8115613369570490565b634e487b7160e01b5f52601260045260245ffd5b90604051918281549182825260208201905f5260205f20925f5b8181106133ae5750506133ac92500383613022565b565b8454835260019485019487945060209093019201613397565b80518210156130ba5760209160051b010190565b80548210156130ba575f5260205f2001905f90565b919082018092116127e557565b80548015613419575f1901906134166106cb83836133db565b55565b634e487b7160e01b5f52603160045260245ffd5b906005821015611aed5752565b9060405161344781613006565b608061347860048395805485526001810154602086015260028101546040860152600381015460608601520161337d565b910152565b5190811515820361001757565b818110613495575050565b5f815560010161348a565b6001600160a01b03909695929194961690815f52600b60205260405f206001600160a01b0386165f5260205260405f20926135036115e860405160208186519882880199808b845e8201908152030190206134fa88612f5c565b6102038861332d565b90602082019081511561381d576002546001600160a01b031690604051809b81927f509423550000000000000000000000000000000000000000000000000000000083528860048401526001600160a01b038c1660248401526044830160c0905260c483016135729089612f37565b9161357c8c612f5c565b8b6064850152608484015260a483015203815a6040945f91f1988915612a6c575f905f9a6137dc575b50986135b5575b50505050505050565b5f829993959894969799525f8152604082015f815260608301905f82525f9860808501995b8a518d815183101561366057509060016135fe6135f88383956133c7565b516131f5565b5001750400000000000000000000000000000000000000000060ff60a81b198254161790558a5f5260096020528d6001600160a01b0360405f2091165f526020526136598c6136528360405f2092516133c7565b519061460d565b50016135da565b6136b69597999d92506020915099610203939496989c9a60608c528c5f52600b83526001600160a01b0360405f2091165f52825260405f20604051938492518091845e820190815203019020916101fe81612f5c565b9390936137c9576004945184555160018401555160028301555160038201550190519081519167ffffffffffffffff8311612fb857680100000000000000008311612fb85760209082548484558085106137ae575b5001905f5260205f205f5b83811061379a57505050505f52600860205260405f206001600160a01b0384165f5260205261374760405f2061337d565b905f5b825181101561378a578061378286613764600194876133c7565b51335f52600a60205261377d60ff60405f2054166132e2565b613d10565b50500161374a565b509250505f8080808080806135ac565b600190602084519401938184015501613716565b6137c390845f5285845f20918201910161348a565b5f61370b565b634e487b7160e01b5f525f60045260245ffd5b9950506040893d604011613815575b816137f860409383613022565b810103126100175761380e60208a519a0161347d565b985f6135a5565b3d91506137eb565b985050505050505050565b9060405161383581612fe9565b80926001600160a01b03815416825260ff60018201546001600160a01b0381166020850152818160a01c1661386981612f5c565b604085015260a81c166006811015611aed57610160916009916060850152600281015460808501526040516138a5816128ee8160038601613157565b60a0850152600481015460c0850152600581015460e08501526006810154610100850152600781015461012085015260088101546101408501520154910152565b906138f081612f66565b60ff60a81b1975ff00000000000000000000000000000000000000000083549260a81b169116179055565b3d15613945573d9061392c82613045565b9161393a6040519384613022565b82523d5f602084013e565b606090565b1561395157565b606460405162461bcd60e51b815260206004820152600f60248201527f7472616e73666572206661696c656400000000000000000000000000000000006044820152fd5b9895926139b96101609b9895929e9d9c9996939e6101808c526101808c0190612f37565b9d60208b01526139c881612f5c565b60408a01526139d681612f66565b60608901526139e481612f5c565b608088015260a087015260c086015260e08501526101008401526101208301526101408201520152565b90613a1881612f5c565b7fffffffffffffffffffffff00ffffffffffffffffffffffffffffffffffffffff74ff000000000000000000000000000000000000000083549260a01b169116179055565b91906137c9576001600160a01b0380825116166001600160a01b0319835416178255600182016001600160a01b0380602084015116166001600160a01b0319825416178155613ab96040830151613ab381612f5c565b82613a0e565b613ad06060830151613aca81612f66565b826138e6565b6080820151613ade81612f5c565b613ae781612f5c565b7fffffffffffffffffff00ffffffffffffffffffffffffffffffffffffffffffff76ff0000000000000000000000000000000000000000000083549260b01b1691161790556002820160a082015180519067ffffffffffffffff8211612fb857613b51835461311f565b601f8111613c4b575b50602090601f8311600114613be15791806101809492600996945f92613bd6575b50508160011b915f199060031b1c19161790555b60c0810151600385015560e0810151600485015561010081015160058501556101208101516006850155610140810151600785015561016081015160088501550151910155565b015190505f80613b7b565b90601f19831691845f52815f20925f5b818110613c33575092600192859260099896610180989610613c1b575b505050811b019055613b8f565b01515f1960f88460031b161c191690555f8080613c0e565b92936020600181928786015181550195019301613bf1565b613c7590845f5260205f20601f850160051c8101916020861061150257601f0160051c019061348a565b5f613b5a565b6007549068010000000000000000821015612fb857600182016007556007548210156130ba5760075f9081526133ac92600a027fa66cc928b5edb82af9bd49922954155ab7b0942694bea4ce44661d9a8736c68801613a5d565b60405190613ce4604083613022565b600282527f30780000000000000000000000000000000000000000000000000000000000006020830152565b613d1c612d59826131d9565b60608101805191929091600190613d3281612f66565b613d3b81612f66565b148015613f25575b8015613f1d575b15613ed95760208301936001600160a01b03808651169116148015613ed1575b15613e8d576001600160a01b0393613e629260058152613d9385613d8d856131d9565b90613a5d565b610140850190815180151580613e83575b613e6a575b507f7d0616460a0a454bdf3e48a4f63e79ef1e23eb2a336bc7869d81c0dd7d2a99de8460a0880151613e3c8a875116948a8c81511697604082015192613dee84612f5c565b5190613df982612f66565b608083015190613e0882612f5c565b60c084015160e08501519061010086015192519361012087015195610180610160890151980151986040519c8d9c8d613995565b0390a3848451165f526008602052848060405f20925116165f5260205260405f2061460d565b505116905f90565b5f808080613e7d94325af1611d6a61391b565b5f613da9565b5080471015613da4565b606460405162461bcd60e51b815260206004820152600a60248201527f4e6f7420686f6c646572000000000000000000000000000000000000000000006044820152fd5b506001613d6a565b606460405162461bcd60e51b815260206004820152601860248201527f57726f6e6720737461746520696e2063616e63656c696e6700000000000000006044820152fd5b506001613d4a565b5060028251613f3381612f66565b613f3c81612f66565b14613d43565b9291613f50612d59856131d9565b916001600160a01b0383511694606084019160018351613f6f81612f66565b613f7881612f66565b1480156142ac575b80156142a5575b15613ed9576001600160a01b0380602087015116911614801561429e575b15613e8d57821561424b57600582525b613fc284613d8d836131d9565b61014084015180151580614241575b614228575b5060a084019283519160208601516001600160a01b031686516001600160a01b03169060408801519561400887612f5c565b519561401387612f66565b8360808a01519661402388612f5c565b60c08b0151988b60e08101519961010082019a8b516101408401519161012085019e8f5194610160870151966101800151976040519b8c9b6140659b8d613995565b037f7d0616460a0a454bdf3e48a4f63e79ef1e23eb2a336bc7869d81c0dd7d2a99de91a385516001600160a01b03165f52600860205260405f2060208701516001600160a01b03166001600160a01b03165f526020528060405f20906140ca9161460d565b50811561420f575b506141fa57600260808501516140e781612f5c565b6140f081612f5c565b036141e8575050602080614155926001600160a01b038551165f52600b825260405f206001600160a01b03808488015116165f52825260405f20905190604051938285935191829101845e820190815203019020610203604084015161067a81612f5c565b5090600360c0820151920191825480911161417e5760c06141789201519061333f565b90555f90565b608460405162461bcd60e51b815260206004820152602260248201527f63616e63656c20616d6f756e74206973206772656174207468616e206672656560448201527f7a650000000000000000000000000000000000000000000000000000000000006064820152fd5b5190516141f7935091506133f0565b90565b5050506001600160a01b039192505116905f90565b90505f52600c60205260018060405f200154145f6140d2565b5f80808061423b94325af1611d6a61391b565b5f613fd6565b5080471015613fd1565b6001825161425881612f66565b61426181612f66565b141580614280575b156142775760078252613fb5565b60048252613fb5565b506002825161428e81612f66565b61429781612f66565b1415614269565b5082613fa5565b5083613f87565b50600283516142ba81612f66565b6142c381612f66565b14613f80565b91906137c9576001600160a01b0380825116166001600160a01b0319835416178255600182016001600160a01b0380602084015116166001600160a01b031982541617815561431f6040830151613ab381612f5c565b60608201516006811015611aed5760ff60a81b1975ff00000000000000000000000000000000000000000083549260a81b169116179055608081015160028301556003820160a082015180519067ffffffffffffffff8211612fb857614385835461311f565b601f8111614474575b50602090601f831160011461440a5791806101609492600996945f926143ff575b50508160011b915f199060031b1c19161790555b60c0810151600485015560e081015160058501556101008101516006850155610120810151600785015561014081015160088501550151910155565b015190505f806143af565b90601f19831691845f52815f20925f5b81811061445c575092600192859260099896610160989610614444575b505050811b0190556143c3565b01515f1960f88460031b161c191690555f8080614437565b9293602060018192878601518155019501930161441a565b61449e90845f5260205f20601f850160051c8101916020861061150257601f0160051c019061348a565b5f61438e565b6001600160a01b03168015614533576001600160a01b037f9016d09d72d40fdae2fd8ceac6b6234c7706214fd39c1cd1e609a0528c19930054826001600160a01b03198216177f9016d09d72d40fdae2fd8ceac6b6234c7706214fd39c1cd1e609a0528c19930055167f8be0079c531659141344cd1fd0a4f28419497f9722a3daafe3b4186f6b6457e05f80a3565b7f1e4fbdf7000000000000000000000000000000000000000000000000000000005f525f60045260245ffd5b60409360a4929396956001600160a01b036002541691865198899687957fca6ec3720000000000000000000000000000000000000000000000000000000087526145a881612f5c565b600487015260248601526044850152606484015260848301525afa918215612a6c575f905f936145d757509190565b9250506040823d604011614605575b816145f360409383613022565b81010312610017576020825192015190565b3d91506145e6565b9060018201815f528060205260ff60405f205416156146cf578254905f5b82811061463b5750505050505f90565b8361464682876133db565b90549060031b1c1461465a5760010161462b565b93945f198301928311949093919290855b6127e557818110156146aa5760018101908181116127e5576146a36146926001938a6133db565b90549060031b1c61071d838b6133db565b018561466b565b505091936146b99193506133fd565b5f5260205260405f2060ff198154169055600190565b5050505f90565b6001600160a01b037f9016d09d72d40fdae2fd8ceac6b6234c7706214fd39c1cd1e609a0528c1993005416330361470957565b7f118cdaa7000000000000000000000000000000000000000000000000000000005f523360045260245ffd5b9081549168010000000000000000831015612fb8578261071d9160016133ac950181556133db565b80156127e5575f190190565b906001820191815f528260205260ff60405f2054166146cf575f9080545b80831061481557506147998382614735565b80545f1981019081116127e5579083915b8381116147d857506147bf9261071d916133db565b5f5260205260405f20600160ff19825416179055600190565b9091505f198101908082116127e5576148086147f761480d93856133db565b90549060031b1c61071d83866133db565b61475d565b9083916147aa565b9161482083826133f0565b60011c908461482f83856133db565b90549060031b1c105f1461484f5750600181018091116127e55791614787565b9250614787565b60206148a693600495936001600160a01b0383949a989a165f52600b83526001600160a01b0360405f2091165f52825260405f20604051938285935191829101845e8201908152030190206130a7565b50019182546148b481613107565b906148c26040519283613022565b8082526148ce81613107565b601f196020840191013682375f5b828110614a6357505015614a56575f5b8151811080614a43575b1561490b575f1981146127e5576001016148ec565b9192939450508354811480614a1e575b6149df57801515806149f9575b6149df5783548110806149c5575b6149b75783545f1981019081116127e55761495461496191866133db565b90549060031b1c85614735565b83545f1981019081116127e5575b818111614985575061071d906133ac93946133db565b5f198101908082116127e5576148086149a16149b293886133db565b90549060031b1c61071d83896133db565b61496f565b61071d906133ac93946133db565b506149d081856133db565b5f1991549060031b1c14614936565b91925f1983019283116127e5576133ac9261071d916133db565b505f1981018181116127e557614a0f90856133db565b5f1991549060031b1c14614928565b505f1981018181116127e557614a3490856133db565b5f1991549060031b1c1461491b565b50614a4e81836133c7565b5186116148f6565b509092506133ac91614735565b614a6d81886133db565b905460039190911b1c5f1914614ab057806005614a9b614a8f6001948b6133db565b90549060031b1c6131f5565b500154614aa882876133c7565b525b016148dc565b80614ac7578351156130ba576001905f8352614aaa565b5f198101908082116127e557614adf600192866133c7565b51614aea82876133c7565b52614aaa565b60ff7ff0c57e16840df040f15088dc2f81fe391c3923bec73e23a9662efc9c229c6a005460401c1615614b1f57565b7fd7e6bcf8000000000000000000000000000000000000000000000000000000005f5260045ffdfea2646970667358221220ebdcdc7803c91b3f717595cca89aca7170d767e3d7a859afc710f0806daed32b64736f6c634300081c0033",
  "linkReferences": {},
  "deployedLinkReferences": {}
}