{
  "_format": "hh-sol-artifact-1",
  "contractName": "OrderBook",
  "sourceName": "contracts/OrderBook.sol",
  "abi": [
    {
      "inputs": [],
      "name": "InvalidInitialization",
      "type": "error"
    },
    {
      "inputs": [],
      "name": "NotInitializing",
      "type": "error"
    },
    {
      "inputs": [
        {
          "internalType": "address",
          "name": "owner",
          "type": "address"
        }
      ],
      "name": "OwnableInvalidOwner",
      "type": "error"
    },
    {
      "inputs": [
        {
          "internalType": "address",
          "name": "account",
          "type": "address"
        }
      ],
      "name": "OwnableUnauthorizedAccount",
      "type": "error"
    },
    {
      "anonymous": false,
      "inputs": [
        {
          "indexed": false,
          "internalType": "address",
          "name": "token",
          "type": "address"
        },
        {
          "indexed": false,
          "internalType": "address",
          "name": "holder",
          "type": "address"
        },
        {
          "indexed": false,
          "internalType": "string",
          "name": "name",
          "type": "string"
        },
        {
          "indexed": false,
          "internalType": "enum ICommon.Direct",
          "name": "direct",
          "type": "uint8"
        },
        {
          "indexed": false,
          "internalType": "uint256",
          "name": "value",
          "type": "uint256"
        },
        {
          "indexed": false,
          "internalType": "uint256",
          "name": "size",
          "type": "uint256"
        },
        {
          "indexed": false,
          "internalType": "uint256",
          "name": "margin",
          "type": "uint256"
        },
        {
          "indexed": false,
          "internalType": "uint256",
          "name": "freeze",
          "type": "uint256"
        }
      ],
      "name": "AccountPosition",
      "type": "event"
    },
    {
      "anonymous": false,
      "inputs": [
        {
          "indexed": false,
          "internalType": "address",
          "name": "token",
          "type": "address"
        },
        {
          "indexed": false,
          "internalType": "address",
          "name": "taker",
          "type": "address"
        },
        {
          "indexed": false,
          "internalType": "uint256",
          "name": "amount",
          "type": "uint256"
        },
        {
          "indexed": false,
          "internalType": "uint256",
          "name": "availableAmount",
          "type": "uint256"
        },
        {
          "indexed": false,
          "internalType": "uint256",
          "name": "marginAmount",
          "type": "uint256"
        },
        {
          "indexed": false,
          "internalType": "uint256",
          "name": "locked",
          "type": "uint256"
        },
        {
          "indexed": false,
          "internalType": "uint256",
          "name": "stage",
          "type": "uint256"
        },
        {
          "indexed": false,
          "internalType": "uint256",
          "name": "dif",
          "type": "uint256"
        }
      ],
      "name": "BalanceOfTaker",
      "type": "event"
    },
    {
      "anonymous": false,
      "inputs": [
        {
          "indexed": false,
          "internalType": "string",
          "name": "name",
          "type": "string"
        },
        {
          "indexed": true,
          "internalType": "address",
          "name": "taker",
          "type": "address"
        },
        {
          "indexed": true,
          "internalType": "address",
          "name": "token",
          "type": "address"
        },
        {
          "indexed": false,
          "internalType": "uint256",
          "name": "orderID",
          "type": "uint256"
        },
        {
          "indexed": false,
          "internalType": "enum ICommon.Direct",
          "name": "direct",
          "type": "uint8"
        },
        {
          "indexed": false,
          "internalType": "enum IPerpetual.OrderState",
          "name": "state",
          "type": "uint8"
        },
        {
          "indexed": false,
          "internalType": "enum ICommon.Offset",
          "name": "offset",
          "type": "uint8"
        },
        {
          "indexed": false,
          "internalType": "uint256",
          "name": "amount",
          "type": "uint256"
        },
        {
          "indexed": false,
          "internalType": "uint256",
          "name": "targetPrice",
          "type": "uint256"
        },
        {
          "indexed": false,
          "internalType": "uint256",
          "name": "margin",
          "type": "uint256"
        },
        {
          "indexed": false,
          "internalType": "uint256",
          "name": "rewardGas",
          "type": "uint256"
        },
        {
          "indexed": false,
          "internalType": "uint256",
          "name": "tradingFee",
          "type": "uint256"
        },
        {
          "indexed": false,
          "internalType": "uint256",
          "name": "startTime",
          "type": "uint256"
        },
        {
          "indexed": false,
          "internalType": "uint256",
          "name": "orderType",
          "type": "uint256"
        }
      ],
      "name": "CreateLimitedOrder",
      "type": "event"
    },
    {
      "anonymous": false,
      "inputs": [
        {
          "indexed": false,
          "internalType": "uint256",
          "name": "limitOrderID",
          "type": "uint256"
        },
        {
          "indexed": false,
          "internalType": "uint256",
          "name": "openLimitPrice",
          "type": "uint256"
        },
        {
          "indexed": false,
          "internalType": "uint256",
          "name": "gainTriggerPrice",
          "type": "uint256"
        },
        {
          "indexed": false,
          "internalType": "uint256",
          "name": "gainLimitPrice",
          "type": "uint256"
        },
        {
          "indexed": false,
          "internalType": "uint256",
          "name": "lossTriggerPrice",
          "type": "uint256"
        },
        {
          "indexed": false,
          "internalType": "uint256",
          "name": "lossLimitPrice",
          "type": "uint256"
        }
      ],
      "name": "CreateTriggerCondition",
      "type": "event"
    },
    {
      "anonymous": false,
      "inputs": [
        {
          "indexed": false,
          "internalType": "uint256",
          "name": "code",
          "type": "uint256"
        },
        {
          "indexed": false,
          "internalType": "uint256",
          "name": "orderID",
          "type": "uint256"
        },
        {
          "indexed": false,
          "internalType": "string",
          "name": "message",
          "type": "string"
        }
      ],
      "name": "ErrorInfo",
      "type": "event"
    },
    {
      "anonymous": false,
      "inputs": [
        {
          "indexed": false,
          "internalType": "uint256",
          "name": "code",
          "type": "uint256"
        },
        {
          "indexed": false,
          "internalType": "uint256",
          "name": "orderID",
          "type": "uint256"
        },
        {
          "indexed": false,
          "internalType": "bytes",
          "name": "message",
          "type": "bytes"
        }
      ],
      "name": "ExceptErrorInfo",
      "type": "event"
    },
    {
      "anonymous": false,
      "inputs": [
        {
          "indexed": false,
          "internalType": "uint64",
          "name": "version",
          "type": "uint64"
        }
      ],
      "name": "Initialized",
      "type": "event"
    },
    {
      "anonymous": false,
      "inputs": [
        {
          "indexed": false,
          "internalType": "string",
          "name": "name",
          "type": "string"
        },
        {
          "indexed": true,
          "internalType": "address",
          "name": "taker",
          "type": "address"
        },
        {
          "indexed": true,
          "internalType": "address",
          "name": "token",
          "type": "address"
        },
        {
          "indexed": false,
          "internalType": "uint256",
          "name": "orderID",
          "type": "uint256"
        },
        {
          "indexed": false,
          "internalType": "enum ICommon.Direct",
          "name": "direct",
          "type": "uint8"
        },
        {
          "indexed": false,
          "internalType": "enum IPerpetual.OrderState",
          "name": "state",
          "type": "uint8"
        },
        {
          "indexed": false,
          "internalType": "enum ICommon.Offset",
          "name": "offset",
          "type": "uint8"
        },
        {
          "indexed": false,
          "internalType": "uint256",
          "name": "amount",
          "type": "uint256"
        },
        {
          "indexed": false,
          "internalType": "uint256",
          "name": "targetPrice",
          "type": "uint256"
        },
        {
          "indexed": false,
          "internalType": "uint256",
          "name": "margin",
          "type": "uint256"
        },
        {
          "indexed": false,
          "internalType": "uint256",
          "name": "rewardGas",
          "type": "uint256"
        },
        {
          "indexed": false,
          "internalType": "uint256",
          "name": "tradingFee",
          "type": "uint256"
        },
        {
          "indexed": false,
          "internalType": "uint256",
          "name": "startTime",
          "type": "uint256"
        },
        {
          "indexed": false,
          "internalType": "uint256",
          "name": "orderType",
          "type": "uint256"
        }
      ],
      "name": "LimitedOrderHistory",
      "type": "event"
    },
    {
      "anonymous": false,
      "inputs": [
        {
          "indexed": false,
          "internalType": "address",
          "name": "token",
          "type": "address"
        },
        {
          "indexed": false,
          "internalType": "address",
          "name": "taker",
          "type": "address"
        }
      ],
      "name": "LiquidateTaker",
      "type": "event"
    },
    {
      "anonymous": false,
      "inputs": [
        {
          "indexed": true,
          "internalType": "address",
          "name": "taker",
          "type": "address"
        },
        {
          "indexed": false,
          "internalType": "string",
          "name": "name",
          "type": "string"
        },
        {
          "indexed": false,
          "internalType": "address",
          "name": "token",
          "type": "address"
        },
        {
          "indexed": false,
          "internalType": "uint256",
          "name": "orderID",
          "type": "uint256"
        },
        {
          "indexed": false,
          "internalType": "enum ICommon.Direct",
          "name": "direction",
          "type": "uint8"
        },
        {
          "indexed": false,
          "internalType": "enum IPerpetual.OrderType",
          "name": "orderType",
          "type": "uint8"
        },
        {
          "indexed": false,
          "internalType": "uint256",
          "name": "amount",
          "type": "uint256"
        },
        {
          "indexed": false,
          "internalType": "uint256",
          "name": "costPrice",
          "type": "uint256"
        },
        {
          "indexed": false,
          "internalType": "uint256",
          "name": "price",
          "type": "uint256"
        },
        {
          "indexed": false,
          "internalType": "uint256",
          "name": "tradingFee",
          "type": "uint256"
        },
        {
          "indexed": false,
          "internalType": "uint256",
          "name": "leverage",
          "type": "uint256"
        },
        {
          "indexed": false,
          "internalType": "uint256",
          "name": "marginAmount",
          "type": "uint256"
        },
        {
          "indexed": false,
          "internalType": "uint256",
          "name": "limitOrderId",
          "type": "uint256"
        },
        {
          "indexed": false,
          "internalType": "uint256",
          "name": "timestamp",
          "type": "uint256"
        }
      ],
      "name": "OrderHistory",
      "type": "event"
    },
    {
      "anonymous": false,
      "inputs": [
        {
          "indexed": true,
          "internalType": "address",
          "name": "previousOwner",
          "type": "address"
        },
        {
          "indexed": true,
          "internalType": "address",
          "name": "newOwner",
          "type": "address"
        }
      ],
      "name": "OwnershipTransferred",
      "type": "event"
    },
    {
      "anonymous": false,
      "inputs": [
        {
          "indexed": false,
          "internalType": "address",
          "name": "",
          "type": "address"
        },
        {
          "indexed": false,
          "internalType": "bool",
          "name": "",
          "type": "bool"
        }
      ],
      "name": "SetKeeper",
      "type": "event"
    },
    {
      "anonymous": false,
      "inputs": [
        {
          "indexed": false,
          "internalType": "address",
          "name": "token",
          "type": "address"
        },
        {
          "indexed": false,
          "internalType": "uint256",
          "name": "orderID",
          "type": "uint256"
        },
        {
          "indexed": false,
          "internalType": "uint256",
          "name": "dealID",
          "type": "uint256"
        },
        {
          "indexed": false,
          "internalType": "enum IPerpetual.TradeType",
          "name": "tradeType",
          "type": "uint8"
        },
        {
          "indexed": false,
          "internalType": "uint256",
          "name": "amount",
          "type": "uint256"
        },
        {
          "indexed": false,
          "internalType": "uint256",
          "name": "price",
          "type": "uint256"
        },
        {
          "indexed": false,
          "internalType": "uint256",
          "name": "tradingFee",
          "type": "uint256"
        },
        {
          "indexed": false,
          "internalType": "uint256",
          "name": "leverage",
          "type": "uint256"
        },
        {
          "indexed": false,
          "internalType": "uint256",
          "name": "marginAmount",
          "type": "uint256"
        },
        {
          "indexed": false,
          "internalType": "uint256",
          "name": "profit",
          "type": "uint256"
        },
        {
          "indexed": false,
          "internalType": "uint256",
          "name": "loss",
          "type": "uint256"
        },
        {
          "indexed": false,
          "internalType": "uint256",
          "name": "timestamp",
          "type": "uint256"
        }
      ],
      "name": "TradeHistory",
      "type": "event"
    },
    {
      "anonymous": false,
      "inputs": [
        {
          "indexed": true,
          "internalType": "address",
          "name": "token",
          "type": "address"
        },
        {
          "indexed": true,
          "internalType": "address",
          "name": "sender",
          "type": "address"
        },
        {
          "indexed": true,
          "internalType": "address",
          "name": "received",
          "type": "address"
        },
        {
          "indexed": false,
          "internalType": "enum ICommon.TransactionType",
          "name": "transactionType",
          "type": "uint8"
        },
        {
          "indexed": false,
          "internalType": "uint256",
          "name": "amount",
          "type": "uint256"
        },
        {
          "indexed": false,
          "internalType": "uint256",
          "name": "timestamp",
          "type": "uint256"
        }
      ],
      "name": "TransactionHistory",
      "type": "event"
    },
    {
      "anonymous": false,
      "inputs": [
        {
          "indexed": false,
          "internalType": "uint8",
          "name": "direct",
          "type": "uint8"
        },
        {
          "indexed": false,
          "internalType": "uint256",
          "name": "price",
          "type": "uint256"
        },
        {
          "indexed": false,
          "internalType": "uint256",
          "name": "value",
          "type": "uint256"
        }
      ],
      "name": "indexPosition",
      "type": "event"
    },
    {
      "anonymous": false,
      "inputs": [
        {
          "indexed": false,
          "internalType": "address",
          "name": "token",
          "type": "address"
        },
        {
          "indexed": false,
          "internalType": "address",
          "name": "sender",
          "type": "address"
        },
        {
          "indexed": false,
          "internalType": "string",
          "name": "name",
          "type": "string"
        },
        {
          "indexed": false,
          "internalType": "uint256",
          "name": "beforeLeverage",
          "type": "uint256"
        },
        {
          "indexed": false,
          "internalType": "uint256",
          "name": "afterLeverage",
          "type": "uint256"
        }
      ],
      "name": "setLeverage",
      "type": "event"
    },
    {
      "stateMutability": "nonpayable",
      "type": "fallback"
    },
    {
      "inputs": [
        {
          "internalType": "uint256",
          "name": "_oid",
          "type": "uint256"
        },
        {
          "internalType": "address",
          "name": "_holder",
          "type": "address"
        },
        {
          "internalType": "bool",
          "name": "liquidated",
          "type": "bool"
        }
      ],
      "name": "cancelOrder",
      "outputs": [
        {
          "internalType": "address",
          "name": "token",
          "type": "address"
        },
        {
          "internalType": "uint256",
          "name": "lockedAmount",
          "type": "uint256"
        }
      ],
      "stateMutability": "nonpayable",
      "type": "function"
    },
    {
      "inputs": [
        {
          "internalType": "address",
          "name": "_token",
          "type": "address"
        },
        {
          "internalType": "address",
          "name": "_taker",
          "type": "address"
        },
        {
          "internalType": "string",
          "name": "_pair",
          "type": "string"
        },
        {
          "internalType": "enum ICommon.Direct",
          "name": "_type",
          "type": "uint8"
        },
        {
          "internalType": "uint256",
          "name": "_currentPrice",
          "type": "uint256"
        },
        {
          "internalType": "uint256",
          "name": "_deposit",
          "type": "uint256"
        }
      ],
      "name": "clearingTakerPosition",
      "outputs": [
        {
          "internalType": "uint256",
          "name": "deposit",
          "type": "uint256"
        }
      ],
      "stateMutability": "nonpayable",
      "type": "function"
    },
    {
      "inputs": [
        {
          "internalType": "uint256",
          "name": "_dealID",
          "type": "uint256"
        },
        {
          "internalType": "uint256",
          "name": "_amount",
          "type": "uint256"
        },
        {
          "internalType": "enum ICommon.Direct",
          "name": "_type",
          "type": "uint8"
        },
        {
          "internalType": "uint256",
          "name": "_currentPrice",
          "type": "uint256"
        },
        {
          "internalType": "uint256",
          "name": "_leverage",
          "type": "uint256"
        },
        {
          "internalType": "uint256",
          "name": "_tradeFeeRate",
          "type": "uint256"
        },
        {
          "internalType": "uint256",
          "name": "_releaseSize",
          "type": "uint256"
        }
      ],
      "name": "closeDeal",
      "outputs": [
        {
          "internalType": "uint256",
          "name": "profit",
          "type": "uint256"
        },
        {
          "internalType": "uint256",
          "name": "loss",
          "type": "uint256"
        },
        {
          "internalType": "uint256",
          "name": "margin",
          "type": "uint256"
        }
      ],
      "stateMutability": "nonpayable",
      "type": "function"
    },
    {
      "inputs": [],
      "name": "getAndIncreaseOrderID",
      "outputs": [
        {
          "internalType": "uint256",
          "name": "length",
          "type": "uint256"
        }
      ],
      "stateMutability": "nonpayable",
      "type": "function"
    },
    {
      "inputs": [
        {
          "internalType": "uint256",
          "name": "id",
          "type": "uint256"
        }
      ],
      "name": "getDeal",
      "outputs": [
        {
          "components": [
            {
              "internalType": "address",
              "name": "token",
              "type": "address"
            },
            {
              "internalType": "address payable",
              "name": "taker",
              "type": "address"
            },
            {
              "internalType": "enum ICommon.Direct",
              "name": "direct",
              "type": "uint8"
            },
            {
              "internalType": "enum ICommon.DealState",
              "name": "state",
              "type": "uint8"
            },
            {
              "internalType": "enum ICommon.Offset",
              "name": "offset",
              "type": "uint8"
            },
            {
              "internalType": "uint256",
              "name": "orderID",
              "type": "uint256"
            },
            {
              "internalType": "string",
              "name": "name",
              "type": "string"
            },
            {
              "internalType": "uint256",
              "name": "amount",
              "type": "uint256"
            },
            {
              "internalType": "uint256",
              "name": "price",
              "type": "uint256"
            },
            {
              "internalType": "uint256",
              "name": "leverage",
              "type": "uint256"
            },
            {
              "internalType": "uint256",
              "name": "margin",
              "type": "uint256"
            },
            {
              "internalType": "uint256",
              "name": "tradingFee",
              "type": "uint256"
            },
            {
              "internalType": "uint256",
              "name": "timestamp",
              "type": "uint256"
            }
          ],
          "internalType": "struct ICommon.Deal",
          "name": "",
          "type": "tuple"
        }
      ],
      "stateMutability": "view",
      "type": "function"
    },
    {
      "inputs": [],
      "name": "getDealLength",
      "outputs": [
        {
          "internalType": "uint256",
          "name": "length",
          "type": "uint256"
        }
      ],
      "stateMutability": "view",
      "type": "function"
    },
    {
      "inputs": [
        {
          "internalType": "address",
          "name": "_token",
          "type": "address"
        },
        {
          "internalType": "address",
          "name": "_taker",
          "type": "address"
        },
        {
          "internalType": "string",
          "name": "_name",
          "type": "string"
        },
        {
          "internalType": "enum ICommon.Direct",
          "name": "_direct",
          "type": "uint8"
        }
      ],
      "name": "getDealsByPosition",
      "outputs": [
        {
          "internalType": "uint256[]",
          "name": "_deals",
          "type": "uint256[]"
        }
      ],
      "stateMutability": "view",
      "type": "function"
    },
    {
      "inputs": [
        {
          "internalType": "uint256",
          "name": "id",
          "type": "uint256"
        }
      ],
      "name": "getLimitedOrder",
      "outputs": [
        {
          "components": [
            {
              "internalType": "address",
              "name": "token",
              "type": "address"
            },
            {
              "internalType": "address payable",
              "name": "taker",
              "type": "address"
            },
            {
              "internalType": "enum ICommon.Direct",
              "name": "direct",
              "type": "uint8"
            },
            {
              "internalType": "enum IPerpetual.OrderState",
              "name": "state",
              "type": "uint8"
            },
            {
              "internalType": "enum ICommon.Offset",
              "name": "offset",
              "type": "uint8"
            },
            {
              "internalType": "string",
              "name": "name",
              "type": "string"
            },
            {
              "internalType": "uint256",
              "name": "amount",
              "type": "uint256"
            },
            {
              "internalType": "uint256",
              "name": "targetPrice",
              "type": "uint256"
            },
            {
              "internalType": "uint256",
              "name": "margin",
              "type": "uint256"
            },
            {
              "internalType": "uint256",
              "name": "tradingFee",
              "type": "uint256"
            },
            {
              "internalType": "uint256",
              "name": "rewardGas",
              "type": "uint256"
            },
            {
              "internalType": "uint256",
              "name": "startTime",
              "type": "uint256"
            },
            {
              "internalType": "uint256",
              "name": "orderType",
              "type": "uint256"
            }
          ],
          "internalType": "struct IPerpetual.LimitedOrder",
          "name": "",
          "type": "tuple"
        }
      ],
      "stateMutability": "view",
      "type": "function"
    },
    {
      "inputs": [],
      "name": "getLimitedOrderLength",
      "outputs": [
        {
          "internalType": "uint256",
          "name": "length",
          "type": "uint256"
        }
      ],
      "stateMutability": "view",
      "type": "function"
    },
    {
      "inputs": [],
      "name": "getOrderID",
      "outputs": [
        {
          "internalType": "uint256",
          "name": "length",
          "type": "uint256"
        }
      ],
      "stateMutability": "view",
      "type": "function"
    },
    {
      "inputs": [
        {
          "internalType": "uint256",
          "name": "_id",
          "type": "uint256"
        }
      ],
      "name": "getTriggerCondition",
      "outputs": [
        {
          "components": [
            {
              "internalType": "string",
              "name": "remark",
              "type": "string"
            },
            {
              "internalType": "uint256",
              "name": "mean",
              "type": "uint256"
            },
            {
              "internalType": "uint256",
              "name": "openLimitPrice",
              "type": "uint256"
            },
            {
              "internalType": "uint256",
              "name": "gainTriggerPrice",
              "type": "uint256"
            },
            {
              "internalType": "uint256",
              "name": "gainLimitPrice",
              "type": "uint256"
            },
            {
              "internalType": "uint256",
              "name": "lossTriggerPrice",
              "type": "uint256"
            },
            {
              "internalType": "uint256",
              "name": "lossLimitPrice",
              "type": "uint256"
            }
          ],
          "internalType": "struct IPerpetual.TriggerCondition",
          "name": "",
          "type": "tuple"
        }
      ],
      "stateMutability": "view",
      "type": "function"
    },
    {
      "inputs": [
        {
          "internalType": "address",
          "name": "token",
          "type": "address"
        },
        {
          "internalType": "address",
          "name": "user",
          "type": "address"
        }
      ],
      "name": "getUserDealsID",
      "outputs": [
        {
          "internalType": "uint256[]",
          "name": "",
          "type": "uint256[]"
        }
      ],
      "stateMutability": "view",
      "type": "function"
    },
    {
      "inputs": [
        {
          "internalType": "address",
          "name": "token",
          "type": "address"
        },
        {
          "internalType": "address",
          "name": "user",
          "type": "address"
        }
      ],
      "name": "getUserLimitOrdersID",
      "outputs": [
        {
          "internalType": "uint256[]",
          "name": "",
          "type": "uint256[]"
        }
      ],
      "stateMutability": "view",
      "type": "function"
    },
    {
      "inputs": [
        {
          "internalType": "address",
          "name": "_priPool",
          "type": "address"
        },
        {
          "internalType": "address",
          "name": "_perpetual",
          "type": "address"
        }
      ],
      "name": "initialize",
      "outputs": [],
      "stateMutability": "nonpayable",
      "type": "function"
    },
    {
      "inputs": [
        {
          "internalType": "uint256",
          "name": "_dealID",
          "type": "uint256"
        },
        {
          "internalType": "string[]",
          "name": "_symbols",
          "type": "string[]"
        },
        {
          "internalType": "uint256[]",
          "name": "_prices",
          "type": "uint256[]"
        }
      ],
      "name": "liquidateMakerDeal",
      "outputs": [
        {
          "internalType": "bool",
          "name": "isLiquidated",
          "type": "bool"
        },
        {
          "internalType": "bool",
          "name": "isAgreement",
          "type": "bool"
        },
        {
          "internalType": "uint256",
          "name": "userProfit",
          "type": "uint256"
        },
        {
          "internalType": "address",
          "name": "token",
          "type": "address"
        },
        {
          "internalType": "address",
          "name": "taker",
          "type": "address"
        },
        {
          "internalType": "uint256",
          "name": "margin",
          "type": "uint256"
        }
      ],
      "stateMutability": "nonpayable",
      "type": "function"
    },
    {
      "inputs": [
        {
          "internalType": "address",
          "name": "_token",
          "type": "address"
        },
        {
          "internalType": "address",
          "name": "_taker",
          "type": "address"
        },
        {
          "internalType": "string",
          "name": "_name",
          "type": "string"
        },
        {
          "internalType": "enum ICommon.Direct",
          "name": "_direct",
          "type": "uint8"
        },
        {
          "internalType": "enum ICommon.Offset",
          "name": "_offset",
          "type": "uint8"
        },
        {
          "internalType": "uint256",
          "name": "_amount",
          "type": "uint256"
        },
        {
          "internalType": "uint256",
          "name": "_price",
          "type": "uint256"
        },
        {
          "internalType": "uint256",
          "name": "_tradingFee",
          "type": "uint256"
        },
        {
          "internalType": "uint256",
          "name": "_rewardGas",
          "type": "uint256"
        },
        {
          "internalType": "uint256",
          "name": "_marginAmount",
          "type": "uint256"
        },
        {
          "internalType": "uint256",
          "name": "_orderType2",
          "type": "uint256"
        },
        {
          "internalType": "bool",
          "name": "condition",
          "type": "bool"
        },
        {
          "internalType": "uint256",
          "name": "_dueGas",
          "type": "uint256"
        }
      ],
      "name": "makeLimitedOrder",
      "outputs": [],
      "stateMutability": "payable",
      "type": "function"
    },
    {
      "inputs": [
        {
          "internalType": "address",
          "name": "_token",
          "type": "address"
        },
        {
          "internalType": "address",
          "name": "_taker",
          "type": "address"
        },
        {
          "internalType": "string",
          "name": "_name",
          "type": "string"
        },
        {
          "internalType": "enum ICommon.Direct",
          "name": "_direct",
          "type": "uint8"
        },
        {
          "internalType": "enum IPerpetual.OrderType",
          "name": "_orderType",
          "type": "uint8"
        },
        {
          "internalType": "uint256",
          "name": "_limitID",
          "type": "uint256"
        },
        {
          "components": [
            {
              "internalType": "uint256",
              "name": "marketValue",
              "type": "uint256"
            },
            {
              "internalType": "uint256",
              "name": "marginAmount",
              "type": "uint256"
            },
            {
              "internalType": "uint256",
              "name": "tradingFee",
              "type": "uint256"
            },
            {
              "internalType": "uint256",
              "name": "totalLocked",
              "type": "uint256"
            },
            {
              "internalType": "uint256",
              "name": "currentPrice",
              "type": "uint256"
            },
            {
              "internalType": "uint256",
              "name": "dealPrice",
              "type": "uint256"
            },
            {
              "internalType": "uint256",
              "name": "amount",
              "type": "uint256"
            },
            {
              "internalType": "uint256",
              "name": "leverage",
              "type": "uint256"
            }
          ],
          "internalType": "struct IPerpetual.Fees",
          "name": "fee",
          "type": "tuple"
        }
      ],
      "name": "openOrder",
      "outputs": [],
      "stateMutability": "nonpayable",
      "type": "function"
    },
    {
      "inputs": [],
      "name": "owner",
      "outputs": [
        {
          "internalType": "address",
          "name": "",
          "type": "address"
        }
      ],
      "stateMutability": "view",
      "type": "function"
    },
    {
      "inputs": [
        {
          "internalType": "address",
          "name": "",
          "type": "address"
        },
        {
          "internalType": "address",
          "name": "",
          "type": "address"
        },
        {
          "internalType": "string",
          "name": "",
          "type": "string"
        },
        {
          "internalType": "uint256",
          "name": "",
          "type": "uint256"
        }
      ],
      "name": "positions",
      "outputs": [
        {
          "internalType": "uint256",
          "name": "value",
          "type": "uint256"
        },
        {
          "internalType": "uint256",
          "name": "size",
          "type": "uint256"
        },
        {
          "internalType": "uint256",
          "name": "margin",
          "type": "uint256"
        },
        {
          "internalType": "uint256",
          "name": "freeze",
          "type": "uint256"
        }
      ],
      "stateMutability": "view",
      "type": "function"
    },
    {
      "inputs": [],
      "name": "renounceOwnership",
      "outputs": [],
      "stateMutability": "nonpayable",
      "type": "function"
    },
    {
      "inputs": [
        {
          "internalType": "address",
          "name": "_agent",
          "type": "address"
        },
        {
          "internalType": "address",
          "name": "_station",
          "type": "address"
        },
        {
          "internalType": "address",
          "name": "_poolAgent",
          "type": "address"
        },
        {
          "internalType": "address",
          "name": "keeper",
          "type": "address"
        }
      ],
      "name": "setKeepers",
      "outputs": [],
      "stateMutability": "nonpayable",
      "type": "function"
    },
    {
      "inputs": [
        {
          "internalType": "address",
          "name": "newOwner",
          "type": "address"
        }
      ],
      "name": "transferOwnership",
      "outputs": [],
      "stateMutability": "nonpayable",
      "type": "function"
    },
    {
      "inputs": [
        {
          "internalType": "uint256",
          "name": "limitID",
          "type": "uint256"
        },
        {
          "internalType": "enum IPerpetual.OrderState",
          "name": "state",
          "type": "uint8"
        },
        {
          "internalType": "uint256",
          "name": "rewardGas",
          "type": "uint256"
        }
      ],
      "name": "updateLimitOrder",
      "outputs": [],
      "stateMutability": "nonpayable",
      "type": "function"
    },
    {
      "inputs": [
        {
          "internalType": "uint256",
          "name": "limitOrderID",
          "type": "uint256"
        },
        {
          "internalType": "uint256",
          "name": "_mean",
          "type": "uint256"
        },
        {
          "internalType": "uint256",
          "name": "_openLimitPrice",
          "type": "uint256"
        },
        {
          "internalType": "uint256",
          "name": "_gainTriggerPrice",
          "type": "uint256"
        },
        {
          "internalType": "uint256",
          "name": "_gainLimitPrice",
          "type": "uint256"
        },
        {
          "internalType": "uint256",
          "name": "_lossTriggerPrice",
          "type": "uint256"
        },
        {
          "internalType": "uint256",
          "name": "_lossLimitPrice",
          "type": "uint256"
        }
      ],
      "name": "updateTriggerCondition",
      "outputs": [],
      "stateMutability": "nonpayable",
      "type": "function"
    }
  ],
  "bytecode": "0x60808060405234601557614bbe908161001a8239f35b5f80fdfe608080604052600436101561001b575b503461001757005b5f80fd5b5f905f3560e01c9081630187703f14612e57575080630c3fc6b914612d0357806317900de0146125695780633a0204a91461249f578063485cc9551461220157806349138690146121e357806349216f85146121955780635094235514612110578063715018a61461207757806381a4f17314611f8357806382fd5bac14611e1e5780638da5cb5b14611dd8578063982edc3c14611d8a578063ac89c79814611bdd578063b811988814611bbf578063b99ac92714611b79578063be63309e14611b0e578063c22e672c146110a4578063c2b3356414611042578063c3710f2514611024578063cc5bc741146108f9578063dcee347514610228578063ec4082911461015a5763f2fde38b0361000f573461015757602060031936011261015757610154610147612f95565b61014f614717565b6144e5565b80f35b80fd5b503461015757608060031936011261015757610174612f95565b61017c612fab565b60443567ffffffffffffffff81116102245761019c903690600401613069565b906064359260038410156102205792610203602080600495610209956001600160a01b03604061021c9b826102109c168152600b86522091165f52825260405f20604051938285935191829101845e820190815203019020916101fe81612f81565b613335565b906130af565b5001613385565b604051918291826130d6565b0390f35b8480fd5b8380fd5b50346101575760606003193601126101575760243560043567ffffffffffffffff82116108f557366023830112156108f5578160040135916102698361310f565b92610277604051948561302a565b80845260051b8101602401602084013682116108f15760248301905b8282106108bd57505050506044359067ffffffffffffffff82116102245736602383011215610224578160040135916102cb8361310f565b926102d9604051948561302a565b8084526024602085019160051b830101913683116108b957939493602401905b8282106108a957505050338452600a60205261031b60ff6040862054166132ea565b61032d610327826131fd565b50613830565b9084936001600160a01b0383511690869460c08501955b815181101561089c5761035781836133cf565b516040516103856020828d8280830196805191829101885e820190838201520301601f19810183528261302a565b51902087518a6103b8602060405180938280830196805191829101885e820190838201520301601f19810183528261302a565b519020146103c857600101610344565b9190506103d99293949596506133cf565b51925b60208101956001600160a01b038751169381610140840197606089519860446001600160a01b03600254169160405197889384927f016f4dcb00000000000000000000000000000000000000000000000000000000845289600485015260248401525af194851561089157829983958497610838575b508a610487575b505050505060c0965060405195151586521515602086015260408501526060840152608083015260a0820152f35b83989599969b6104aa836104a4889e9b98600560608401526131fd565b906142f5565b6001600160a01b0383511685526009602052604085206001600160a01b0380835116165f526020526104df8c60405f2061464e565b506001600160a01b038351166001600160a01b038251169185519560408601519161050983612f81565b60e0870151955197670de0b6b3a76400006105296101008a015189613354565b049961053485612f81565b60018514908115610822575b50156107de576001600160a01b038f807faf7f2bb51be6fae4db771c6d0838b6242dbaab0aabf2a14b0ada2f9a8a90875f6040998960049f996106849f9760209c9b6102039f998f989a8f9e8b9c52600b8f528989208b88165f528f526105cc8a5f2060208c518092885180848b01845e8201908152030190206105c387612f81565b61020387613335565b5092835480155f1461079557508355600183015560028201555b805460018201549061061a60036002850154940154948b51988998895260208901526101008c890152610100880190612f5c565b9461062481612f81565b6060870152608086015260a085015260c084015260e08301520390a1828b51168152600b875220925116165f528252835f209051908451938285935191829101845e82019081520301902092015161067b81612f81565b6101fe81612f81565b50019761069089613385565b96865b885181101561078257896106a7828b6133cf565b51146106b557600101610693565b909192939495969798506106dc6106cc828c6133e3565b8154905f199060031b1b19169055565b6001810180911161076e575b8851811015610750576106fb818b6133e3565b90549060031b1c5f19820182811161073c576001929161071e610736928e6133e3565b90919082549060031b91821b915f19901b1916179055565b016106e8565b60248a634e487b7160e01b81526011600452fd5b50919395509193955061076460c097613405565b5f80808080610459565b602488634e487b7160e01b81526011600452fd5b5092955092955092955060c09650610764565b916107c691506107a58184613354565b6107bf60018701946107b986548094613367565b90613347565b8655613347565b90556107d760028301918254613347565b90556105e6565b606460405162461bcd60e51b815260206004820152601160248201527f496e76616c696420646972656374696f6e0000000000000000000000000000006044820152fd5b5061082e905084612f81565b600284148f610540565b9650995093506060853d606011610889575b816108576060938361302a565b810103126108855761086885613485565b93604061087760208801613485565b96015194998a969596610452565b5080fd5b3d915061084a565b6040513d84823e3d90fd5b50505090919392936103dc565b81358152602091820191016102f9565b8680fd5b813567ffffffffffffffff81116108ed576020916108e2839260243691890101613069565b815201910190610293565b8780fd5b8580fd5b8280fd5b5034610157576101c060031936011261015757610914612f95565b61091c612fab565b9060443567ffffffffffffffff81116102245761093d903690600401613069565b91600360643510156102245760086084351015610224576101007fffffffffffffffffffffffffffffffffffffffffffffffffffffffffffffff3c3601126102245760405190610100820182811067ffffffffffffffff8211176110105760405260c435825260e43560208301526101043560408301526101243560608301526101443560808301526101643560a08301526101843560c08301526101a43560e0830152338552600a6020526109f960ff6040872054166132ea565b610a6a6040856001600160a01b03600454166001600160a01b03898860065460c08a0151878b015160a08c01519189519a8b998a9889977fd5c3df3900000000000000000000000000000000000000000000000000000000895216600488015260e0602488015260e4870190612f5c565b9360448601526064850152608484015260a4830152610a8a606435612f81565b60643560c483015203925af1908115611005578691610fcb575b5015610f875760c08201516020830151835190610ac2606435612f81565b6001606435148015610f70575b156107de577faf7f2bb51be6fae4db771c6d0838b6242dbaab0aabf2a14b0ada2f9a8a90875f926001600160a01b0387168952600b602052604089206001600160a01b0386165f52602052610b5160405f2060206040518092828d805191829101845e820190815203019020610b46606435612f81565b610203606435613335565b50928354155f14610f3c578355600183015560028201555b8054600182015490600360028401549301546040519384936001600160a01b038a1685526001600160a01b03881660208601526101006040860152610bb261010086018c612f5c565b93610bbe606435612f81565b6064356060870152608086015260a085015260c084015260e08301520390a1610be8606435612f81565b610c07610bf6606435613335565b60a084015160065491878588614897565b6001600160a01b03831685526009602052604085206001600160a01b0382165f52602052610c3b60405f20600654906147aa565b5060055460c083015160a084015160e085015160208601519160408701519360405195610c6787612ff1565b6001600160a01b038a1687526001600160a01b0388166020880152610c8d606435612f81565b6064356040880152600160608801526001608088015260a08701528960c087015260e08601526101008501526101208401526101408301526101608201524261018082015260065468010000000000000000811015610f28578692916104a4826001610cfc94016006556131fd565b600554947f52e38618358c614d6c859d2d6481831837d95cf94ee1be20b2243cbb5f69addc60c08501519160a0860151604087015160e088015190602089015192610d54604051956101a087526101a0870190612f5c565b966001600160a01b038c1660208701528c6040870152610d75606435612f81565b6064356060870152610d88608435612f8b565b608435608087015260a08601528060c086015260e085015261010084015261012083015261014082015260a43561016082015242610180820152806001600160a01b038516930390a26001600160a01b036040840151916040519260038452602084015242604084015216907feb42cf637f927243245c50b4bf7fe105fe4f4d26209102240f2ba3d8e27a7df860606001600160a01b03871692a4600190610e31608435612f8b565b600260843514610f1f575b6006545f19810192908311610f0b5791816101809360c07f85a6bfd765950245f4f456c74db06ee8bad5a7ea04b80581aa7563d196421f669694015160a083015190610eb6604085015193602060e0870151960151966001600160a01b03604051991689528b60208a015260408901526060880190613435565b608086015260a085015260c084015260e0830152610100820152846101208201528461014082015242610160820152a160018101809111610ef75760055580f35b602482634e487b7160e01b81526011600452fd5b602486634e487b7160e01b81526011600452fd5b60029150610e3c565b602487634e487b7160e01b81526041600452fd5b610f479084546133f8565b8355610f58600184019182546133f8565b9055610f69600283019182546133f8565b9055610b69565b50610f7c606435612f81565b600260643514610acf565b606460405162461bcd60e51b815260206004820152601760248201527f6c6971756964697479206973206e6f7420656e6f7567680000000000000000006044820152fd5b90506040813d604011610ffd575b81610fe66040938361302a565b810103126108f157610ff790613485565b5f610aa4565b3d9150610fd9565b6040513d88823e3d90fd5b602486634e487b7160e01b81526041600452fd5b50346101575780600319360112610157576020600554604051908152f35b50346101575760606003193601126101575761105c612fab565b6044359081151582036108f5579061108f9161108760ff60408096338152600a6020522054166132ea565b600435613f6e565b6001600160a01b038351921682526020820152f35b506101a0600319360112610157576110ba612f95565b6110c2612fab565b60443567ffffffffffffffff8111610224576110e2903690600401613069565b906064356003811015610220576084359260038410156108f15760a4359160c4359160e4359461010435936101243595610144359861016435908115158203611b0a578c610184359b338252600a60205261114360ff6040842054166132ea565b6001600160a01b038060075498169e169c6040519250610180835261116c61018084018a612f5c565b97602084015261117b8a612f81565b604083018a90528f8f8f8f8f96808e9d8593859a8f8f8e60608701600190526111a381612f81565b608087015260a086015260c085015260e0840152886101008401526101208301524261014083015288610160830152037f052d8cb39abc1bd624ecd7027fd1b94ded9c7704f379055adcbab77044ec255b91a3848252600b60205260408220815f5260205260405f2060405180918c516020819f019e8f845e82019081520360200190206112308d612f81565b6112398d613335565b611242916130af565b5096156119ea57906112c1949392916040519461125e86612ff1565b8552602085015261126e8c612f81565b8b60408501526001606085015261128486612f81565b8560808501528960a08501528760c08501528860e08501528061010085015261012084015261014083015242610160830152610180820152613ca7565b6112ca81612f81565b6001810361153d57505050505050506040516112e581612fc1565b6112ed613d01565b815260208101600181526040820185815260608301848152608084018a815260a085019187835260c08601938c85526007545f198101908111611529578d52600c60205260408d20965195865167ffffffffffffffff8111611515578e6113548a54613127565b601f81116114da575b50602090601f831160011461146a57906006998361145f575b50508160011b915f199060031b1c19161788555b516001880155516002870155516003860155516004850155516005840155519101556007545f1981019390841161144b57917f68cbb1c862d9d961359025e53792aa8be48fcf01d4712cf5dfd194d2a184a769939160c0936040519384526020840152604083015286606083015260808201528560a0820152a15b8252600860205260408220905f5260205260405f20600754905f1982019182116114375790611433916147aa565b5080f35b602483634e487b7160e01b81526011600452fd5b602487634e487b7160e01b81526011600452fd5b015190505f80611376565b9192939495969798601f1984168b8452828420935b8181106114c2575091600193918560069c9b9a9998979694106114aa575b505050811b01885561138a565b01515f1960f88460031b161c191690555f808061149d565b9293602060018192878601518155019501930161147f565b611505908b835260208320601f850160051c8101916020861061150b575b601f0160051c0190613492565b5f61135d565b90915081906114f8565b60248f634e487b7160e01b81526041600452fd5b60248e634e487b7160e01b81526011600452fd5b6002908d9a979a9996999895985061155481612f81565b14611568575b505050505050505050611405565b806003600161157c93015491015490613347565b106119a65789966115f76115f18a9860208d99889a6040899b9e899e6060608084516115a78161300e565b84815284898201528486820152848382015201528152600b855220905f52825260405f20604051938492518091845e8201908152030190206115e884612f81565b61020384613335565b50613442565b60208101805115611962578315918215928361195a575b611828575b5050505050505090919260405161162981612fc1565b611631613d01565b8152602081016001815260408201898152606083018781526080840185815260a085019187835260c08601938985526007545f198101908111611814578e6040918152600c60205220965195865167ffffffffffffffff81116117ff578f6116998a54613127565b601f81116117cf575b50602090601f831160011461175f579060069983611754575b50508160011b915f199060031b1c19161788555b516001880155516002870155516003860155516004850155516005840155519101556007545f1981019490851161076e5760408051958652602086018990528501526060840152608083015260a08201527f68cbb1c862d9d961359025e53792aa8be48fcf01d4712cf5dfd194d2a184a7699060c090a15f808080808080808061155a565b015190505f806116bb565b9192939495969798601f1984168b8452828420935b8181106117b7575091600193918560069c9b9a99989796941061179f575b505050811b0188556116cf565b01515f1960f88460031b161c191690555f8080611792565b92936020600181928786015181550195019301611774565b6117f9908b835260208320601f850160051c8101916020861061150b57601f0160051c0190613492565b5f6116a2565b5060248f634e487b7160e01b81526041600452fd5b60248f634e487b7160e01b81526011600452fd5b5190670de0b6b3a7640000820291808304670de0b6b3a76400001490151715611529575161185591613367565b9281611903575b501561187c57505050505050908491855b9291905f808080808080611613565b829794959697151591826118aa575b5050611899575b505061186d565b935093505050908485915f80611892565b9091506118b682612f81565b6001821491826118f9575b82156118d1575b50505f8061188b565b60029192506118df81612f81565b1490816118ef575b505f806118c8565b905081105f6118e7565b81841192506118c1565b905061190e82612f81565b600182149081611950575b8115611927575b505f61185c565b905061193282612f81565b82600283149182611946575b50505f611920565b119050825f61193e565b8381109150611919565b50851561160e565b606460405162461bcd60e51b815260206004820152601560248201527f706f736974696f6e2073697a65206973207a65726f00000000000000000000006044820152fd5b606460405162461bcd60e51b815260206004820152601160248201527f6f636f20616d6f756e74206578636565640000000000000000000000000000006044820152fd5b60029c50611a6e9a5060409e969d959b9192979e99939894995199611a0e8b612ff1565b8a5260208a0152611a1e81612f81565b60408901525060016060880152611a3489612f81565b88608088015260a08701528a60c087015260e086015261010085015261012084015261014083015242610160830152610180820152613ca7565b611a7781612f81565b14611a84575b5050611405565b60036001820154910191611a9a83548093613347565b8111611ab257611aa9916133f8565b90555f80611a7d565b606460405162461bcd60e51b815260206004820152601960248201527f6c696d697420636c6f736520616d6f756e7420657863656564000000000000006044820152fd5b634e487b7160e01b5f52602160045260245ffd5b8c80fd5b50346101575760e060031936011261015757338152600a602052611b3860ff6040832054166132ea565b6004358152600c60205260408120602435600182015560443560028201556064356003820155608435600482015560a4356005820155600660c43591015580f35b5034610157578060031936011261015757338152600a602052611ba260ff6040832054166132ea565b600554600181018082116114375760209250600555604051908152f35b50346101575780600319360112610157576020600654604051908152f35b50346101575760606003193601126101575760243560043560088210156108f557806114339260443590338652600a602052611c1f60ff6040882054166132ea565b611c28836131e1565b5090611c38600183019182613906565b60078201928084558781151580611d80575b611d61575b505054907f7d0616460a0a454bdf3e48a4f63e79ef1e23eb2a336bc7869d81c0dd7d2a99de60026101806001600160a01b03851696846001600160a01b0389965416978760ff8a9960a01c169160ff808360a81c169260b01c169060038501546004860154906005870154925493600688015495600889015497611ce460098b01549a6040519e8f9e8f81815201910161315f565b9a60208d0152611cf381612f81565b60408c0152611d0181612f8b565b60608b0152611d0f81612f81565b60808a015260a089015260c088015260e08701526101008601526101208501526101408401526101608301520390a3845260086020526001600160a01b036040852091165f5260205260405f2061464e565b808080611d7994325af1611d7361393b565b5061396a565b5f87611c4f565b5081471015611c4a565b5034610157576040600319360112610157576001600160a01b036040611dae612f95565b9282611db8612fab565b9416815260086020522091165f5260205261021c61021060405f20613385565b503461015757806003193601126101575760206001600160a01b037f9016d09d72d40fdae2fd8ceac6b6234c7706214fd39c1cd1e609a0528c1993005416604051908152f35b50346101575760206003193601126101575780610180604051611e4081612ff1565b8281528260208201528260408201528260608201528260808201528260a0820152606060c08201528260e0820152826101008201528261012082015282610140820152826101608201520152611e9a6103276004356131fd565b60405190602082526001600160a01b0381511660208301526001600160a01b0360208201511660408301526040810151611ed381612f81565b606083015260608101516006811015611f6f5782935060808301526080810151611efc81612f81565b60a083015260a081015160c0830152610180611f2960c08301516101a060e08601526101c0850190612f5c565b9160e08101516101008501526101008101516101208501526101208101516101408501526101408101516101608501526101608101518285015201516101a08301520390f35b602484634e487b7160e01b81526021600452fd5b503461015757608060031936011261015757611f9d612f95565b611fa5612fab565b90604435916001600160a01b03831680930361022457606435916001600160a01b038316809303610220576001600160a01b038091611fe2614717565b1691828652600a60205260408620600160ff198254161790551691828552600a60205260408520600160ff19825416179055838552600a60205260408520600160ff198254161790558452600a60205260408420600160ff198254161790556001600160a01b031960025416176002556001600160a01b031960035416176003556001600160a01b0319600454161760045580f35b5034610157578060031936011261015757612090614717565b806001600160a01b037f9016d09d72d40fdae2fd8ceac6b6234c7706214fd39c1cd1e609a0528c199300546001600160a01b031981167f9016d09d72d40fdae2fd8ceac6b6234c7706214fd39c1cd1e609a0528c19930055167f8be0079c531659141344cd1fd0a4f28419497f9722a3daafe3b4186f6b6457e08280a380f35b50346101575760c06003193601126101575761212a612f95565b612132612fab565b9060443567ffffffffffffffff811161022457612153903690600401613069565b606435906003821015610220579061218d93929161218060ff6040602098338152600a8a522054166132ea565b60a43593608435936134a8565b604051908152f35b5034610157576040600319360112610157576001600160a01b0360406121b9612f95565b92826121c3612fab565b9416815260096020522091165f5260205261021c61021060405f20613385565b50346101575780600319360112610157576020600754604051908152f35b50346101575760406003193601126101575761221b612f95565b612223612fab565b7ff0c57e16840df040f15088dc2f81fe391c3923bec73e23a9662efc9c229c6a00549160ff8360401c16159267ffffffffffffffff811680159081612497575b600114908161248d575b159081612484575b5061245c576001600160a01b039291818560017fffffffffffffffffffffffffffffffffffffffffffffffff0000000000000000879516177ff0c57e16840df040f15088dc2f81fe391c3923bec73e23a9662efc9c229c6a0055612407575b506122dd614b31565b6122e5614b31565b6122ee336144e5565b16806001600160a01b03198654161785558452600a60205260408420600160ff1982541617905516806001600160a01b031960015416176001558252600a60205260408220600160ff19825416179055338252600a60205260408220600160ff19825416179055308252600a60205260408220600160ff198254161790556123735780f35b7fffffffffffffffffffffffffffffffffffffffffffffff00ffffffffffffffff7ff0c57e16840df040f15088dc2f81fe391c3923bec73e23a9662efc9c229c6a0054167ff0c57e16840df040f15088dc2f81fe391c3923bec73e23a9662efc9c229c6a00557fc7f505b2f371ae2175ee4913f4499e1f2633a7b5936321eed1cdaeb6115181d2602060405160018152a180f35b7fffffffffffffffffffffffffffffffffffffffffffffff0000000000000000001668010000000000000001177ff0c57e16840df040f15088dc2f81fe391c3923bec73e23a9662efc9c229c6a00555f6122d4565b6004857ff92ee8a9000000000000000000000000000000000000000000000000000000008152fd5b9050155f612275565b303b15915061226d565b859150612263565b5034610157576080600319360112610157576124b9612f95565b906124c2612fab565b60443567ffffffffffffffff81116108f5576020916124e683923690600401613069565b906001600160a01b0360643596168552600b83526001600160a01b036040862091165f52825260405f20604051938285935191829101845e82019081520301902090600283101561015757608061253d84846130af565b508054906001810154906003600282015491015491604051938452602084015260408301526060820152f35b50346100175760e06003193601126100175760043560243560443592600384101561001757335f52600a6020526125a660ff60405f2054166132ea565b6125af836131fd565b50916001600160a01b038354165f52600b60205260405f2060018401908154906001600160a01b03808316165f5260205260405f20906003860191604051905f9084546125fb81613127565b9060018116908115612cee5750600114612cbb575b5081528190036020019020612632916102039060a01c60ff166101fe81612f81565b50936126556003860161264860c4358254613347565b8091556001870154613347565b8411612c775783158015612c6a575b15612b08579082916080600460e48a6126968b60ff5f9a5460a01c1660058201549586920154918291606435906145a0565b9890936001600160a01b03825416906040519a8b9687957ff26a3e1d00000000000000000000000000000000000000000000000000000000875260048701528460248701526044860152606485015282608485015260a4840152600160c48401525af1938415612a91575f945f915f905f92612ab0575b505050939160078801549360046003986001600160a01b038b54165f52600960205260405f206001600160a01b0380855416165f526020526127528c60405f2061464e565b50750300000000000000000000000000000000000000000060ff60a81b19845416178355019a6127818c613385565b995f5b8b51811015612a9c578d8d612799838f6133cf565b51146127a85750600101612784565b6106cc829d9e939495969798999a9b9c9d6127c2926133e3565b6001810180911161280a575b8c5181101561281e576127e1818f6133e3565b9054908d1b1c905f19810181811161280a578f9261071e612804926001956133e3565b016127ce565b634e487b7160e01b5f52601160045260245ffd5b509295989b6128349194979a9295989b50613405565b6001600160a01b03600254166001600160a01b03845416906001600160a01b0387541691813b15610017575f610164928f8f908f9084986128b8916040519b8c9a8b997ff1257f84000000000000000000000000000000000000000000000000000000008b5260048b015260248a0152604489015260648801526084870190613435565b60643560a486015260843560c486015260e485015260a4356101048501526101248401528c6101448401525af18015612a9157612a7a575b5061291a6001600160a01b0380612913935416945416946040519283809261315f565b038261302a565b8461292483612f81565b600183148015612a67575b156107de576060997faf7f2bb51be6fae4db771c6d0838b6242dbaab0aabf2a14b0ada2f9a8a90875f96858352600b602052604083206001600160a01b0388165f5260205261299c60405f2060206040518092885180848b01845e8201908152030190206105c387612f81565b508054909381612a23575050825560018201558760028201555b80546001820154906129ec6003600285015494015494604051988998895260208901526101006040890152610100880190612f5c565b946129f681612f81565b8c870152608086015260a085015260c084015260e08301520390a160405192835260208301526040820152f35b5091612a4f9150612a348184613354565b612a4860018601946107b986548094613367565b8555613347565b905560028101612a60898254613347565b90556129b6565b50612a7183612f81565b6002831461292f565b612a879195505f9061302a565b5f9361291a6128f0565b6040513d5f823e3d90fd5b5093979b5093979094985098909498612834565b96505050506080843d608011612b00575b81612ace6080938361302a565b8101031261001757835193602081015194612af76060612af060408501613485565b9301613485565b9095915f61270d565b3d9150612ac1565b9296935090809594955460a01c60ff169360058701549660048101958987548a606435612b34946145a0565b905f546001600160a01b03166040519a8b9384937ff26a3e1d0000000000000000000000000000000000000000000000000000000085528c6004860152602485015f9052604485015260648401528c608484015260a483015260c48201600190525a925f60e492608095f1978815612a91575f985f915f905f92612c19575b50505097956007820190612bec8b835493612bce8286613354565b90612be5612bde86548094613367565b8097613347565b9055613347565b9055750200000000000000000000000000000000000000000060ff60a81b19855416178455966004612834565b9a505050506080883d608011612c62575b81612c376080938361302a565b8101031261001757875197602081015198612c596060612af060408501613485565b9099915f612bb3565b3d9150612c2a565b5060048601548414612664565b606460405162461bcd60e51b815260206004820152601d60248201527f617661696c61626c6520616d6f756e7420696e73756666696369656e740000006044820152fd5b909150845f5260205f205f905b828210612cda57505082019082612610565b600181602092548488015201910190612cc8565b60ff1916855250801515028301915082612610565b34610017576020600319360112610017575f610180604051612d2481612ff1565b828152826020820152826040820152826060820152826080820152606060a08201528260c08201528260e0820152826101008201528261012082015282610140820152826101608201520152612d84612d7e6004356131e1565b50613219565b6040518091602082526001600160a01b0381511660208301526001600160a01b0360208201511660408301526040810151612dbe81612f81565b60608301526060810151612dd181612f8b565b60808301526080810151612de481612f81565b60a0830152610180612e0760a08301516101a060c08601526101c0850190612f5c565b9160c081015160e085015260e08101516101008501526101008101516101208501526101208101516101408501526101408101516101608501526101608101518285015201516101a08301520390f35b346100175760206003193601126100175760c081612e755f93612fc1565b606081528260208201528260408201528260608201528260808201528260a082015201526004355f52600c602052612f3360405f2060405190612eb782612fc1565b604051612ec881612913818561315f565b8252600181015490602083019182526002810154906040840191825260038101546060850190815260048201549060808601918252600660058401549360a0880194855201549360c08701948552604051978897602089525160e060208a0152610100890190612f5c565b955160408801525160608701525160808601525160a08501525160c08401525160e08301520390f35b90601f19601f602080948051918291828752018686015e5f8582860101520116010190565b60031115611af657565b60081115611af657565b600435906001600160a01b038216820361001757565b602435906001600160a01b038216820361001757565b60e0810190811067ffffffffffffffff821117612fdd57604052565b634e487b7160e01b5f52604160045260245ffd5b6101a0810190811067ffffffffffffffff821117612fdd57604052565b60a0810190811067ffffffffffffffff821117612fdd57604052565b90601f601f19910116810190811067ffffffffffffffff821117612fdd57604052565b67ffffffffffffffff8111612fdd57601f01601f191660200190565b81601f82011215610017578035906130808261304d565b9261308e604051948561302a565b8284526020838301011161001757815f926020809301838601378301015290565b9060028110156130c25760050201905f90565b634e487b7160e01b5f52603260045260245ffd5b60206040818301928281528451809452019201905f5b8181106130f95750505090565b82518452602093840193909201916001016130ec565b67ffffffffffffffff8111612fdd5760051b60200190565b90600182811c92168015613155575b602083101461314157565b634e487b7160e01b5f52602260045260245ffd5b91607f1691613136565b5f929181549161316e83613127565b80835292600181169081156131c3575060011461318a57505050565b5f9081526020812093945091925b8383106131a9575060209250010190565b600181602092949394548385870101520191019190613198565b9050602094955060ff1991509291921683830152151560051b010190565b6007548110156130c25760075f52600a60205f20910201905f90565b6006548110156130c25760065f52600a60205f20910201905f90565b9060405161322681612ff1565b610180600982946001600160a01b03815416845260ff60018201546001600160a01b0381166020870152818160a01c1661325f81612f81565b6040870152818160a81c1661327381612f8b565b606087015260b01c1661328581612f81565b608085015260405161329e81612913816002860161315f565b60a0850152600381015460c0850152600481015460e085015260058101546101008501526006810154610120850152600781015461014085015260088101546101608501520154910152565b156132f157565b606460405162461bcd60e51b815260206004820152601f60248201527f63616c6c6572206973206e6f74206f7264657220626f6f6b206b6565706572006044820152fd5b60ff5f199116019060ff821161280a57565b9190820391821161280a57565b8181029291811591840414171561280a57565b8115613371570490565b634e487b7160e01b5f52601260045260245ffd5b90604051918281549182825260208201905f5260205f20925f5b8181106133b65750506133b49250038361302a565b565b845483526001948501948794506020909301920161339f565b80518210156130c25760209160051b010190565b80548210156130c2575f5260205f2001905f90565b9190820180921161280a57565b80548015613421575f19019061341e6106cc83836133e3565b55565b634e487b7160e01b5f52603160045260245ffd5b906005821015611af65752565b9060405161344f8161300e565b6080613480600483958054855260018101546020860152600281015460408601526003810154606086015201613385565b910152565b5190811515820361001757565b81811061349d575050565b5f8155600101613492565b6001600160a01b03909695929194961690815f52600b60205260405f206001600160a01b0386165f5260205260405f209261350b6115f160405160208186519882880199808b845e82019081520301902061350288612f81565b61020388613335565b906020820190815115613825576002546001600160a01b031690604051809b81927f509423550000000000000000000000000000000000000000000000000000000083528860048401526001600160a01b038c1660248401526044830160c0905260c4830161357a9089612f5c565b916135848c612f81565b8b6064850152608484015260a483015203815a6040945f91f1988915612a91575f905f9a6137e4575b50986135bd575b50505050505050565b5f829993959894969799525f8152604082015f815260608301905f82525f9860808501995b8a518d815183101561366857509060016136066136008383956133cf565b516131fd565b5001750400000000000000000000000000000000000000000060ff60a81b198254161790558a5f5260096020528d6001600160a01b0360405f2091165f526020526136618c61365a8360405f2092516133cf565b519061464e565b50016135e2565b6136be9597999d92506020915099610203939496989c9a60608c528c5f52600b83526001600160a01b0360405f2091165f52825260405f20604051938492518091845e820190815203019020916101fe81612f81565b9390936137d1576004945184555160018401555160028301555160038201550190519081519167ffffffffffffffff8311612fdd57680100000000000000008311612fdd5760209082548484558085106137b6575b5001905f5260205f205f5b8381106137a257505050505f52600860205260405f206001600160a01b0384165f5260205261374f60405f20613385565b905f5b8251811015613792578061378a8661376c600194876133cf565b51335f52600a60205261378560ff60405f2054166132ea565b613d3c565b505001613752565b509250505f8080808080806135b4565b60019060208451940193818401550161371e565b6137cb90845f5285845f209182019101613492565b5f613713565b634e487b7160e01b5f525f60045260245ffd5b9950506040893d60401161381d575b816138006040938361302a565b810103126100175761381660208a519a01613485565b985f6135ad565b3d91506137f3565b985050505050505050565b9060405161383d81612ff1565b80926001600160a01b03815416825260018101546001600160a01b038116602084015260ff8160a01c1661387081612f81565b604084015260ff8160a81c16916006831015611af65760ff60099261018094606087015260b01c166138a181612f81565b6080850152600281015460a08501526040516138c481612913816003860161315f565b60c0850152600481015460e085015260058101546101008501526006810154610120850152600781015461014085015260088101546101608501520154910152565b9061391081612f8b565b60ff60a81b1975ff00000000000000000000000000000000000000000083549260a81b169116179055565b3d15613965573d9061394c8261304d565b9161395a604051938461302a565b82523d5f602084013e565b606090565b1561397157565b606460405162461bcd60e51b815260206004820152600f60248201527f7472616e73666572206661696c656400000000000000000000000000000000006044820152fd5b9895926139d96101609b9895929e9d9c9996939e6101808c526101808c0190612f5c565b9d60208b01526139e881612f81565b60408a01526139f681612f8b565b6060890152613a0481612f81565b608088015260a087015260c086015260e08501526101008401526101208301526101408201520152565b90613a3881612f81565b7fffffffffffffffffffffff00ffffffffffffffffffffffffffffffffffffffff74ff000000000000000000000000000000000000000083549260a01b169116179055565b90613a8781612f81565b7fffffffffffffffffff00ffffffffffffffffffffffffffffffffffffffffffff76ff0000000000000000000000000000000000000000000083549260b01b169116179055565b91906137d1576001600160a01b0380825116166001600160a01b0319835416178255613b58600183016001600160a01b0380602085015116166001600160a01b0319825416178155613b2d6040840151613b2781612f81565b82613a2e565b613b446060840151613b3e81612f8b565b82613906565b608083015190613b5382612f81565b613a7d565b6002820160a082015180519067ffffffffffffffff8211612fdd57613b7d8354613127565b601f8111613c77575b50602090601f8311600114613c0d5791806101809492600996945f92613c02575b50508160011b915f199060031b1c19161790555b60c0810151600385015560e0810151600485015561010081015160058501556101208101516006850155610140810151600785015561016081015160088501550151910155565b015190505f80613ba7565b90601f19831691845f52815f20925f5b818110613c5f575092600192859260099896610180989610613c47575b505050811b019055613bbb565b01515f1960f88460031b161c191690555f8080613c3a565b92936020600181928786015181550195019301613c1d565b613ca190845f5260205f20601f850160051c8101916020861061150b57601f0160051c0190613492565b5f613b86565b6007549068010000000000000000821015612fdd57600182016007556007548210156130c25760075f9081526133b492600a027fa66cc928b5edb82af9bd49922954155ab7b0942694bea4ce44661d9a8736c68801613ace565b60405190613d1060408361302a565b600282527f30780000000000000000000000000000000000000000000000000000000000006020830152565b613d48612d7e826131e1565b60608101805191929091600190613d5e81612f8b565b613d6781612f8b565b148015613f51575b8015613f49575b15613f055760208301936001600160a01b03808651169116148015613efd575b15613eb9576001600160a01b0393613e8e9260058152613dbf85613db9856131e1565b90613ace565b610140850190815180151580613eaf575b613e96575b507f7d0616460a0a454bdf3e48a4f63e79ef1e23eb2a336bc7869d81c0dd7d2a99de8460a0880151613e688a875116948a8c81511697604082015192613e1a84612f81565b5190613e2582612f8b565b608083015190613e3482612f81565b60c084015160e08501519061010086015192519361012087015195610180610160890151980151986040519c8d9c8d6139b5565b0390a3848451165f526008602052848060405f20925116165f5260205260405f2061464e565b505116905f90565b5f808080613ea994325af1611d7361393b565b5f613dd5565b5080471015613dd0565b606460405162461bcd60e51b815260206004820152600a60248201527f4e6f7420686f6c646572000000000000000000000000000000000000000000006044820152fd5b506001613d96565b606460405162461bcd60e51b815260206004820152601860248201527f57726f6e6720737461746520696e2063616e63656c696e6700000000000000006044820152fd5b506001613d76565b5060028251613f5f81612f8b565b613f6881612f8b565b14613d6f565b9291613f7c612d7e856131e1565b916001600160a01b0383511694606084019160018351613f9b81612f8b565b613fa481612f8b565b1480156142d8575b80156142d1575b15613f05576001600160a01b038060208701511691161480156142ca575b15613eb957821561427757600582525b613fee84613db9836131e1565b6101408401518015158061426d575b614254575b5060a084019283519160208601516001600160a01b031686516001600160a01b03169060408801519561403487612f81565b519561403f87612f8b565b8360808a01519661404f88612f81565b60c08b0151988b60e08101519961010082019a8b516101408401519161012085019e8f5194610160870151966101800151976040519b8c9b6140919b8d6139b5565b037f7d0616460a0a454bdf3e48a4f63e79ef1e23eb2a336bc7869d81c0dd7d2a99de91a385516001600160a01b03165f52600860205260405f2060208701516001600160a01b03166001600160a01b03165f526020528060405f20906140f69161464e565b50811561423b575b50614226576002608085015161411381612f81565b61411c81612f81565b03614214575050602080614181926001600160a01b038551165f52600b825260405f206001600160a01b03808488015116165f52825260405f20905190604051938285935191829101845e820190815203019020610203604084015161067b81612f81565b5090600360c082015192019182548091116141aa5760c06141a492015190613347565b90555f90565b608460405162461bcd60e51b815260206004820152602260248201527f63616e63656c20616d6f756e74206973206772656174207468616e206672656560448201527f7a650000000000000000000000000000000000000000000000000000000000006064820152fd5b519051614223935091506133f8565b90565b5050506001600160a01b039192505116905f90565b90505f52600c60205260018060405f200154145f6140fe565b5f80808061426794325af1611d7361393b565b5f614002565b5080471015613ffd565b6001825161428481612f8b565b61428d81612f8b565b1415806142ac575b156142a35760078252613fe1565b60048252613fe1565b50600282516142ba81612f8b565b6142c381612f8b565b1415614295565b5082613fd1565b5083613fb3565b50600283516142e681612f8b565b6142ef81612f8b565b14613fac565b91906137d1576001600160a01b0380825116166001600160a01b0319835416178255600182016001600160a01b0380602084015116166001600160a01b031982541617815561434b6040830151613b2781612f81565b6060820151906006821015611af6576143969160ff60a81b1975ff00000000000000000000000000000000000000000083549260a81b169116178155608083015190613b5382612f81565b60a081015160028301556003820160c082015180519067ffffffffffffffff8211612fdd576143c58354613127565b601f81116144b5575b50602090601f831160011461444b5791806101809492600996945f92614440575b50508160011b915f199060031b1c19161790555b60e0810151600485015561010081015160058501556101208101516006850155610140810151600785015561016081015160088501550151910155565b015190505f806143ef565b90601f19831691845f52815f20925f5b81811061449d575092600192859260099896610180989610614485575b505050811b019055614403565b01515f1960f88460031b161c191690555f8080614478565b9293602060018192878601518155019501930161445b565b6144df90845f5260205f20601f850160051c8101916020861061150b57601f0160051c0190613492565b5f6143ce565b6001600160a01b03168015614574576001600160a01b037f9016d09d72d40fdae2fd8ceac6b6234c7706214fd39c1cd1e609a0528c19930054826001600160a01b03198216177f9016d09d72d40fdae2fd8ceac6b6234c7706214fd39c1cd1e609a0528c19930055167f8be0079c531659141344cd1fd0a4f28419497f9722a3daafe3b4186f6b6457e05f80a3565b7f1e4fbdf7000000000000000000000000000000000000000000000000000000005f525f60045260245ffd5b60409360a4929396956001600160a01b036002541691865198899687957fca6ec3720000000000000000000000000000000000000000000000000000000087526145e981612f81565b600487015260248601526044850152606484015260848301525afa918215612a91575f905f9361461857509190565b9250506040823d604011614646575b816146346040938361302a565b81010312610017576020825192015190565b3d9150614627565b9060018201815f528060205260ff60405f20541615614710578254905f5b82811061467c5750505050505f90565b8361468782876133e3565b90549060031b1c1461469b5760010161466c565b93945f198301928311949093919290855b61280a57818110156146eb57600181019081811161280a576146e46146d36001938a6133e3565b90549060031b1c61071e838b6133e3565b01856146ac565b505091936146fa919350613405565b5f5260205260405f2060ff198154169055600190565b5050505f90565b6001600160a01b037f9016d09d72d40fdae2fd8ceac6b6234c7706214fd39c1cd1e609a0528c1993005416330361474a57565b7f118cdaa7000000000000000000000000000000000000000000000000000000005f523360045260245ffd5b9081549168010000000000000000831015612fdd578261071e9160016133b4950181556133e3565b801561280a575f190190565b906001820191815f528260205260ff60405f205416614710575f9080545b80831061485657506147da8382614776565b80545f19810190811161280a579083915b83811161481957506148009261071e916133e3565b5f5260205260405f20600160ff19825416179055600190565b9091505f1981019080821161280a5761484961483861484e93856133e3565b90549060031b1c61071e83866133e3565b61479e565b9083916147eb565b9161486183826133f8565b60011c908461487083856133e3565b90549060031b1c105f1461489057506001810180911161280a57916147c8565b92506147c8565b60206148e793600495936001600160a01b0383949a989a165f52600b83526001600160a01b0360405f2091165f52825260405f20604051938285935191829101845e8201908152030190206130af565b50019182546148f58161310f565b90614903604051928361302a565b80825261490f8161310f565b601f196020840191013682375f5b828110614aa457505015614a97575f5b8151811080614a84575b1561494c575f19811461280a5760010161492d565b9192939450508354811480614a5f575b614a205780151580614a3a575b614a20578354811080614a06575b6149f85783545f19810190811161280a576149956149a291866133e3565b90549060031b1c85614776565b83545f19810190811161280a575b8181116149c6575061071e906133b493946133e3565b5f1981019080821161280a576148496149e26149f393886133e3565b90549060031b1c61071e83896133e3565b6149b0565b61071e906133b493946133e3565b50614a1181856133e3565b5f1991549060031b1c14614977565b91925f19830192831161280a576133b49261071e916133e3565b505f19810181811161280a57614a5090856133e3565b5f1991549060031b1c14614969565b505f19810181811161280a57614a7590856133e3565b5f1991549060031b1c1461495c565b50614a8f81836133cf565b518611614937565b509092506133b491614776565b614aae81886133e3565b905460039190911b1c5f1914614af157806005614adc614ad06001948b6133e3565b90549060031b1c6131fd565b500154614ae982876133cf565b525b0161491d565b80614b08578351156130c2576001905f8352614aeb565b5f1981019080821161280a57614b20600192866133cf565b51614b2b82876133cf565b52614aeb565b60ff7ff0c57e16840df040f15088dc2f81fe391c3923bec73e23a9662efc9c229c6a005460401c1615614b6057565b7fd7e6bcf8000000000000000000000000000000000000000000000000000000005f5260045ffdfea264697066735822122023ced01c26afb7aaa74ec1dc193d24bceb62f4c588c34feb23fb08fb6583cfb764736f6c634300081c0033",
  "linkReferences": {},
  "deployedLinkReferences": {}
}