{
  "_format": "hh-sol-artifact-1",
  "contractName": "OrderBook",
  "sourceName": "contracts/OrderBook.sol",
  "abi": [
    {
      "inputs": [],
      "name": "InvalidInitialization",
      "type": "error"
    },
    {
      "inputs": [],
      "name": "NotInitializing",
      "type": "error"
    },
    {
      "inputs": [
        {
          "internalType": "address",
          "name": "owner",
          "type": "address"
        }
      ],
      "name": "OwnableInvalidOwner",
      "type": "error"
    },
    {
      "inputs": [
        {
          "internalType": "address",
          "name": "account",
          "type": "address"
        }
      ],
      "name": "OwnableUnauthorizedAccount",
      "type": "error"
    },
    {
      "anonymous": false,
      "inputs": [
        {
          "indexed": false,
          "internalType": "address",
          "name": "token",
          "type": "address"
        },
        {
          "indexed": false,
          "internalType": "address",
          "name": "holder",
          "type": "address"
        },
        {
          "indexed": false,
          "internalType": "string",
          "name": "name",
          "type": "string"
        },
        {
          "indexed": false,
          "internalType": "enum ICommon.Direct",
          "name": "direct",
          "type": "uint8"
        },
        {
          "indexed": false,
          "internalType": "uint256",
          "name": "value",
          "type": "uint256"
        },
        {
          "indexed": false,
          "internalType": "uint256",
          "name": "size",
          "type": "uint256"
        },
        {
          "indexed": false,
          "internalType": "uint256",
          "name": "margin",
          "type": "uint256"
        },
        {
          "indexed": false,
          "internalType": "uint256",
          "name": "freeze",
          "type": "uint256"
        }
      ],
      "name": "AccountPosition",
      "type": "event"
    },
    {
      "anonymous": false,
      "inputs": [
        {
          "indexed": false,
          "internalType": "address",
          "name": "token",
          "type": "address"
        },
        {
          "indexed": false,
          "internalType": "address",
          "name": "taker",
          "type": "address"
        },
        {
          "indexed": false,
          "internalType": "uint256",
          "name": "amount",
          "type": "uint256"
        },
        {
          "indexed": false,
          "internalType": "uint256",
          "name": "availableAmount",
          "type": "uint256"
        },
        {
          "indexed": false,
          "internalType": "uint256",
          "name": "marginAmount",
          "type": "uint256"
        },
        {
          "indexed": false,
          "internalType": "uint256",
          "name": "locked",
          "type": "uint256"
        },
        {
          "indexed": false,
          "internalType": "uint256",
          "name": "stage",
          "type": "uint256"
        },
        {
          "indexed": false,
          "internalType": "uint256",
          "name": "dif",
          "type": "uint256"
        }
      ],
      "name": "BalanceOfTaker",
      "type": "event"
    },
    {
      "anonymous": false,
      "inputs": [
        {
          "indexed": false,
          "internalType": "string",
          "name": "name",
          "type": "string"
        },
        {
          "indexed": true,
          "internalType": "address",
          "name": "taker",
          "type": "address"
        },
        {
          "indexed": true,
          "internalType": "address",
          "name": "token",
          "type": "address"
        },
        {
          "indexed": false,
          "internalType": "uint256",
          "name": "orderID",
          "type": "uint256"
        },
        {
          "indexed": false,
          "internalType": "enum ICommon.Direct",
          "name": "orderType",
          "type": "uint8"
        },
        {
          "indexed": false,
          "internalType": "enum IPerpetual.OrderState",
          "name": "state",
          "type": "uint8"
        },
        {
          "indexed": false,
          "internalType": "enum ICommon.Offset",
          "name": "offset",
          "type": "uint8"
        },
        {
          "indexed": false,
          "internalType": "uint256",
          "name": "amount",
          "type": "uint256"
        },
        {
          "indexed": false,
          "internalType": "uint256",
          "name": "targetPrice",
          "type": "uint256"
        },
        {
          "indexed": false,
          "internalType": "uint256",
          "name": "margin",
          "type": "uint256"
        },
        {
          "indexed": false,
          "internalType": "uint256",
          "name": "rewardGas",
          "type": "uint256"
        },
        {
          "indexed": false,
          "internalType": "uint256",
          "name": "tradingFee",
          "type": "uint256"
        },
        {
          "indexed": false,
          "internalType": "uint256",
          "name": "startTime",
          "type": "uint256"
        },
        {
          "indexed": false,
          "internalType": "uint256",
          "name": "goodTill",
          "type": "uint256"
        }
      ],
      "name": "CreateLimitedOrder",
      "type": "event"
    },
    {
      "anonymous": false,
      "inputs": [
        {
          "indexed": false,
          "internalType": "uint256",
          "name": "limitOrderID",
          "type": "uint256"
        },
        {
          "indexed": false,
          "internalType": "uint256",
          "name": "openLimitPrice",
          "type": "uint256"
        },
        {
          "indexed": false,
          "internalType": "uint256",
          "name": "gainTriggerPrice",
          "type": "uint256"
        },
        {
          "indexed": false,
          "internalType": "uint256",
          "name": "gainLimitPrice",
          "type": "uint256"
        },
        {
          "indexed": false,
          "internalType": "uint256",
          "name": "lossTriggerPrice",
          "type": "uint256"
        },
        {
          "indexed": false,
          "internalType": "uint256",
          "name": "lossLimitPrice",
          "type": "uint256"
        }
      ],
      "name": "CreateTriggerCondition",
      "type": "event"
    },
    {
      "anonymous": false,
      "inputs": [
        {
          "indexed": false,
          "internalType": "uint256",
          "name": "code",
          "type": "uint256"
        },
        {
          "indexed": false,
          "internalType": "uint256",
          "name": "orderID",
          "type": "uint256"
        },
        {
          "indexed": false,
          "internalType": "string",
          "name": "message",
          "type": "string"
        }
      ],
      "name": "ErrorInfo",
      "type": "event"
    },
    {
      "anonymous": false,
      "inputs": [
        {
          "indexed": false,
          "internalType": "uint256",
          "name": "code",
          "type": "uint256"
        },
        {
          "indexed": false,
          "internalType": "uint256",
          "name": "orderID",
          "type": "uint256"
        },
        {
          "indexed": false,
          "internalType": "bytes",
          "name": "message",
          "type": "bytes"
        }
      ],
      "name": "ExceptErrorInfo",
      "type": "event"
    },
    {
      "anonymous": false,
      "inputs": [
        {
          "indexed": false,
          "internalType": "uint64",
          "name": "version",
          "type": "uint64"
        }
      ],
      "name": "Initialized",
      "type": "event"
    },
    {
      "anonymous": false,
      "inputs": [
        {
          "indexed": false,
          "internalType": "string",
          "name": "name",
          "type": "string"
        },
        {
          "indexed": true,
          "internalType": "address",
          "name": "taker",
          "type": "address"
        },
        {
          "indexed": true,
          "internalType": "address",
          "name": "token",
          "type": "address"
        },
        {
          "indexed": false,
          "internalType": "uint256",
          "name": "orderID",
          "type": "uint256"
        },
        {
          "indexed": false,
          "internalType": "enum ICommon.Direct",
          "name": "orderType",
          "type": "uint8"
        },
        {
          "indexed": false,
          "internalType": "enum IPerpetual.OrderState",
          "name": "state",
          "type": "uint8"
        },
        {
          "indexed": false,
          "internalType": "enum ICommon.Offset",
          "name": "offset",
          "type": "uint8"
        },
        {
          "indexed": false,
          "internalType": "uint256",
          "name": "amount",
          "type": "uint256"
        },
        {
          "indexed": false,
          "internalType": "uint256",
          "name": "targetPrice",
          "type": "uint256"
        },
        {
          "indexed": false,
          "internalType": "uint256",
          "name": "margin",
          "type": "uint256"
        },
        {
          "indexed": false,
          "internalType": "uint256",
          "name": "rewardGas",
          "type": "uint256"
        },
        {
          "indexed": false,
          "internalType": "uint256",
          "name": "tradingFee",
          "type": "uint256"
        },
        {
          "indexed": false,
          "internalType": "uint256",
          "name": "startTime",
          "type": "uint256"
        },
        {
          "indexed": false,
          "internalType": "uint256",
          "name": "goodTill",
          "type": "uint256"
        }
      ],
      "name": "LimitedOrderHistory",
      "type": "event"
    },
    {
      "anonymous": false,
      "inputs": [
        {
          "indexed": true,
          "internalType": "address",
          "name": "taker",
          "type": "address"
        },
        {
          "indexed": false,
          "internalType": "string",
          "name": "name",
          "type": "string"
        },
        {
          "indexed": false,
          "internalType": "address",
          "name": "token",
          "type": "address"
        },
        {
          "indexed": false,
          "internalType": "uint256",
          "name": "orderID",
          "type": "uint256"
        },
        {
          "indexed": false,
          "internalType": "enum ICommon.Direct",
          "name": "direction",
          "type": "uint8"
        },
        {
          "indexed": false,
          "internalType": "enum IPerpetual.OrderType",
          "name": "orderType",
          "type": "uint8"
        },
        {
          "indexed": false,
          "internalType": "uint256",
          "name": "amount",
          "type": "uint256"
        },
        {
          "indexed": false,
          "internalType": "uint256",
          "name": "costPrice",
          "type": "uint256"
        },
        {
          "indexed": false,
          "internalType": "uint256",
          "name": "price",
          "type": "uint256"
        },
        {
          "indexed": false,
          "internalType": "uint256",
          "name": "tradingFee",
          "type": "uint256"
        },
        {
          "indexed": false,
          "internalType": "uint256",
          "name": "leverage",
          "type": "uint256"
        },
        {
          "indexed": false,
          "internalType": "uint256",
          "name": "marginAmount",
          "type": "uint256"
        },
        {
          "indexed": false,
          "internalType": "uint256",
          "name": "limitOrderId",
          "type": "uint256"
        },
        {
          "indexed": false,
          "internalType": "uint256",
          "name": "timestamp",
          "type": "uint256"
        }
      ],
      "name": "OrderHistory",
      "type": "event"
    },
    {
      "anonymous": false,
      "inputs": [
        {
          "indexed": true,
          "internalType": "address",
          "name": "previousOwner",
          "type": "address"
        },
        {
          "indexed": true,
          "internalType": "address",
          "name": "newOwner",
          "type": "address"
        }
      ],
      "name": "OwnershipTransferred",
      "type": "event"
    },
    {
      "anonymous": false,
      "inputs": [
        {
          "indexed": false,
          "internalType": "address",
          "name": "",
          "type": "address"
        },
        {
          "indexed": false,
          "internalType": "bool",
          "name": "",
          "type": "bool"
        }
      ],
      "name": "SetKeeper",
      "type": "event"
    },
    {
      "anonymous": false,
      "inputs": [
        {
          "indexed": false,
          "internalType": "address",
          "name": "token",
          "type": "address"
        },
        {
          "indexed": false,
          "internalType": "uint256",
          "name": "orderID",
          "type": "uint256"
        },
        {
          "indexed": false,
          "internalType": "uint256",
          "name": "dealID",
          "type": "uint256"
        },
        {
          "indexed": false,
          "internalType": "enum IPerpetual.TradeType",
          "name": "tradeType",
          "type": "uint8"
        },
        {
          "indexed": false,
          "internalType": "uint256",
          "name": "amount",
          "type": "uint256"
        },
        {
          "indexed": false,
          "internalType": "uint256",
          "name": "price",
          "type": "uint256"
        },
        {
          "indexed": false,
          "internalType": "uint256",
          "name": "tradingFee",
          "type": "uint256"
        },
        {
          "indexed": false,
          "internalType": "uint256",
          "name": "leverage",
          "type": "uint256"
        },
        {
          "indexed": false,
          "internalType": "uint256",
          "name": "marginAmount",
          "type": "uint256"
        },
        {
          "indexed": false,
          "internalType": "uint256",
          "name": "profit",
          "type": "uint256"
        },
        {
          "indexed": false,
          "internalType": "uint256",
          "name": "loss",
          "type": "uint256"
        },
        {
          "indexed": false,
          "internalType": "uint256",
          "name": "timestamp",
          "type": "uint256"
        }
      ],
      "name": "TradeHistory",
      "type": "event"
    },
    {
      "anonymous": false,
      "inputs": [
        {
          "indexed": true,
          "internalType": "address",
          "name": "token",
          "type": "address"
        },
        {
          "indexed": true,
          "internalType": "address",
          "name": "sender",
          "type": "address"
        },
        {
          "indexed": true,
          "internalType": "address",
          "name": "received",
          "type": "address"
        },
        {
          "indexed": false,
          "internalType": "enum ICommon.TransactionType",
          "name": "transactionType",
          "type": "uint8"
        },
        {
          "indexed": false,
          "internalType": "uint256",
          "name": "amount",
          "type": "uint256"
        },
        {
          "indexed": false,
          "internalType": "uint256",
          "name": "timestamp",
          "type": "uint256"
        }
      ],
      "name": "TransactionHistory",
      "type": "event"
    },
    {
      "anonymous": false,
      "inputs": [
        {
          "indexed": false,
          "internalType": "uint8",
          "name": "direct",
          "type": "uint8"
        },
        {
          "indexed": false,
          "internalType": "uint256",
          "name": "price",
          "type": "uint256"
        },
        {
          "indexed": false,
          "internalType": "uint256",
          "name": "value",
          "type": "uint256"
        }
      ],
      "name": "indexPosition",
      "type": "event"
    },
    {
      "anonymous": false,
      "inputs": [
        {
          "indexed": false,
          "internalType": "address",
          "name": "token",
          "type": "address"
        },
        {
          "indexed": false,
          "internalType": "address",
          "name": "sender",
          "type": "address"
        },
        {
          "indexed": false,
          "internalType": "string",
          "name": "name",
          "type": "string"
        },
        {
          "indexed": false,
          "internalType": "uint256",
          "name": "beforeLeverage",
          "type": "uint256"
        },
        {
          "indexed": false,
          "internalType": "uint256",
          "name": "afterLeverage",
          "type": "uint256"
        }
      ],
      "name": "setLeverage",
      "type": "event"
    },
    {
      "stateMutability": "nonpayable",
      "type": "fallback"
    },
    {
      "inputs": [
        {
          "internalType": "uint256",
          "name": "_oid",
          "type": "uint256"
        },
        {
          "internalType": "address",
          "name": "_holder",
          "type": "address"
        },
        {
          "internalType": "bool",
          "name": "liquidated",
          "type": "bool"
        }
      ],
      "name": "cancelOrder",
      "outputs": [
        {
          "internalType": "address",
          "name": "token",
          "type": "address"
        },
        {
          "internalType": "uint256",
          "name": "lockedAmount",
          "type": "uint256"
        }
      ],
      "stateMutability": "nonpayable",
      "type": "function"
    },
    {
      "inputs": [
        {
          "internalType": "address",
          "name": "_token",
          "type": "address"
        },
        {
          "internalType": "address",
          "name": "_taker",
          "type": "address"
        },
        {
          "internalType": "string",
          "name": "_pair",
          "type": "string"
        },
        {
          "internalType": "enum ICommon.Direct",
          "name": "_type",
          "type": "uint8"
        },
        {
          "internalType": "uint256",
          "name": "_currentPrice",
          "type": "uint256"
        },
        {
          "internalType": "uint256",
          "name": "_deposit",
          "type": "uint256"
        }
      ],
      "name": "clearingTakerPosition",
      "outputs": [
        {
          "internalType": "uint256",
          "name": "deposit",
          "type": "uint256"
        }
      ],
      "stateMutability": "nonpayable",
      "type": "function"
    },
    {
      "inputs": [
        {
          "internalType": "uint256",
          "name": "_dealID",
          "type": "uint256"
        },
        {
          "internalType": "uint256",
          "name": "_amount",
          "type": "uint256"
        },
        {
          "internalType": "enum ICommon.Direct",
          "name": "_type",
          "type": "uint8"
        },
        {
          "internalType": "uint256",
          "name": "_currentPrice",
          "type": "uint256"
        },
        {
          "internalType": "uint256",
          "name": "_leverage",
          "type": "uint256"
        },
        {
          "internalType": "uint256",
          "name": "_tradeFeeRate",
          "type": "uint256"
        },
        {
          "internalType": "uint256",
          "name": "_releaseSize",
          "type": "uint256"
        }
      ],
      "name": "closeDeal",
      "outputs": [
        {
          "internalType": "uint256",
          "name": "profit",
          "type": "uint256"
        },
        {
          "internalType": "uint256",
          "name": "loss",
          "type": "uint256"
        },
        {
          "internalType": "uint256",
          "name": "margin",
          "type": "uint256"
        }
      ],
      "stateMutability": "nonpayable",
      "type": "function"
    },
    {
      "inputs": [
        {
          "internalType": "uint256",
          "name": "_start",
          "type": "uint256"
        },
        {
          "internalType": "uint256",
          "name": "_end",
          "type": "uint256"
        },
        {
          "internalType": "uint256",
          "name": "_count",
          "type": "uint256"
        }
      ],
      "name": "getActiveDeals",
      "outputs": [
        {
          "components": [
            {
              "internalType": "address",
              "name": "token",
              "type": "address"
            },
            {
              "internalType": "address payable",
              "name": "taker",
              "type": "address"
            },
            {
              "internalType": "enum ICommon.Direct",
              "name": "direct",
              "type": "uint8"
            },
            {
              "internalType": "enum ICommon.DealState",
              "name": "state",
              "type": "uint8"
            },
            {
              "internalType": "enum ICommon.Offset",
              "name": "offset",
              "type": "uint8"
            },
            {
              "internalType": "uint256",
              "name": "orderID",
              "type": "uint256"
            },
            {
              "internalType": "string",
              "name": "name",
              "type": "string"
            },
            {
              "internalType": "uint256",
              "name": "amount",
              "type": "uint256"
            },
            {
              "internalType": "uint256",
              "name": "price",
              "type": "uint256"
            },
            {
              "internalType": "uint256",
              "name": "leverage",
              "type": "uint256"
            },
            {
              "internalType": "uint256",
              "name": "margin",
              "type": "uint256"
            },
            {
              "internalType": "uint256",
              "name": "tradingFee",
              "type": "uint256"
            },
            {
              "internalType": "uint256",
              "name": "timestamp",
              "type": "uint256"
            }
          ],
          "internalType": "struct ICommon.Deal[]",
          "name": "info",
          "type": "tuple[]"
        },
        {
          "internalType": "uint256[]",
          "name": "ids",
          "type": "uint256[]"
        },
        {
          "internalType": "uint256",
          "name": "end",
          "type": "uint256"
        }
      ],
      "stateMutability": "view",
      "type": "function"
    },
    {
      "inputs": [
        {
          "internalType": "uint256",
          "name": "_start",
          "type": "uint256"
        },
        {
          "internalType": "uint256",
          "name": "_end",
          "type": "uint256"
        },
        {
          "internalType": "uint256",
          "name": "_count",
          "type": "uint256"
        }
      ],
      "name": "getActiveLimitedOrders",
      "outputs": [
        {
          "components": [
            {
              "internalType": "address",
              "name": "token",
              "type": "address"
            },
            {
              "internalType": "address payable",
              "name": "taker",
              "type": "address"
            },
            {
              "internalType": "enum ICommon.Direct",
              "name": "direct",
              "type": "uint8"
            },
            {
              "internalType": "enum IPerpetual.OrderState",
              "name": "state",
              "type": "uint8"
            },
            {
              "internalType": "enum ICommon.Offset",
              "name": "offset",
              "type": "uint8"
            },
            {
              "internalType": "string",
              "name": "name",
              "type": "string"
            },
            {
              "internalType": "uint256",
              "name": "amount",
              "type": "uint256"
            },
            {
              "internalType": "uint256",
              "name": "targetPrice",
              "type": "uint256"
            },
            {
              "internalType": "uint256",
              "name": "margin",
              "type": "uint256"
            },
            {
              "internalType": "uint256",
              "name": "tradingFee",
              "type": "uint256"
            },
            {
              "internalType": "uint256",
              "name": "rewardGas",
              "type": "uint256"
            },
            {
              "internalType": "uint256",
              "name": "startTime",
              "type": "uint256"
            },
            {
              "internalType": "uint256",
              "name": "goodTill",
              "type": "uint256"
            }
          ],
          "internalType": "struct IPerpetual.LimitedOrder[]",
          "name": "info",
          "type": "tuple[]"
        },
        {
          "internalType": "uint256[]",
          "name": "ids",
          "type": "uint256[]"
        },
        {
          "internalType": "uint256",
          "name": "end",
          "type": "uint256"
        }
      ],
      "stateMutability": "view",
      "type": "function"
    },
    {
      "inputs": [],
      "name": "getAndIncreaseOrderID",
      "outputs": [
        {
          "internalType": "uint256",
          "name": "length",
          "type": "uint256"
        }
      ],
      "stateMutability": "nonpayable",
      "type": "function"
    },
    {
      "inputs": [
        {
          "internalType": "uint256",
          "name": "id",
          "type": "uint256"
        }
      ],
      "name": "getDeal",
      "outputs": [
        {
          "components": [
            {
              "internalType": "address",
              "name": "token",
              "type": "address"
            },
            {
              "internalType": "address payable",
              "name": "taker",
              "type": "address"
            },
            {
              "internalType": "enum ICommon.Direct",
              "name": "direct",
              "type": "uint8"
            },
            {
              "internalType": "enum ICommon.DealState",
              "name": "state",
              "type": "uint8"
            },
            {
              "internalType": "enum ICommon.Offset",
              "name": "offset",
              "type": "uint8"
            },
            {
              "internalType": "uint256",
              "name": "orderID",
              "type": "uint256"
            },
            {
              "internalType": "string",
              "name": "name",
              "type": "string"
            },
            {
              "internalType": "uint256",
              "name": "amount",
              "type": "uint256"
            },
            {
              "internalType": "uint256",
              "name": "price",
              "type": "uint256"
            },
            {
              "internalType": "uint256",
              "name": "leverage",
              "type": "uint256"
            },
            {
              "internalType": "uint256",
              "name": "margin",
              "type": "uint256"
            },
            {
              "internalType": "uint256",
              "name": "tradingFee",
              "type": "uint256"
            },
            {
              "internalType": "uint256",
              "name": "timestamp",
              "type": "uint256"
            }
          ],
          "internalType": "struct ICommon.Deal",
          "name": "",
          "type": "tuple"
        }
      ],
      "stateMutability": "view",
      "type": "function"
    },
    {
      "inputs": [],
      "name": "getDealLength",
      "outputs": [
        {
          "internalType": "uint256",
          "name": "length",
          "type": "uint256"
        }
      ],
      "stateMutability": "view",
      "type": "function"
    },
    {
      "inputs": [
        {
          "internalType": "uint256[]",
          "name": "_ids",
          "type": "uint256[]"
        }
      ],
      "name": "getDeals",
      "outputs": [
        {
          "components": [
            {
              "internalType": "address",
              "name": "token",
              "type": "address"
            },
            {
              "internalType": "address payable",
              "name": "taker",
              "type": "address"
            },
            {
              "internalType": "enum ICommon.Direct",
              "name": "direct",
              "type": "uint8"
            },
            {
              "internalType": "enum ICommon.DealState",
              "name": "state",
              "type": "uint8"
            },
            {
              "internalType": "enum ICommon.Offset",
              "name": "offset",
              "type": "uint8"
            },
            {
              "internalType": "uint256",
              "name": "orderID",
              "type": "uint256"
            },
            {
              "internalType": "string",
              "name": "name",
              "type": "string"
            },
            {
              "internalType": "uint256",
              "name": "amount",
              "type": "uint256"
            },
            {
              "internalType": "uint256",
              "name": "price",
              "type": "uint256"
            },
            {
              "internalType": "uint256",
              "name": "leverage",
              "type": "uint256"
            },
            {
              "internalType": "uint256",
              "name": "margin",
              "type": "uint256"
            },
            {
              "internalType": "uint256",
              "name": "tradingFee",
              "type": "uint256"
            },
            {
              "internalType": "uint256",
              "name": "timestamp",
              "type": "uint256"
            }
          ],
          "internalType": "struct ICommon.Deal[]",
          "name": "info",
          "type": "tuple[]"
        }
      ],
      "stateMutability": "view",
      "type": "function"
    },
    {
      "inputs": [
        {
          "internalType": "address",
          "name": "_token",
          "type": "address"
        },
        {
          "internalType": "address",
          "name": "_taker",
          "type": "address"
        },
        {
          "internalType": "string",
          "name": "_name",
          "type": "string"
        },
        {
          "internalType": "enum ICommon.Direct",
          "name": "_type",
          "type": "uint8"
        }
      ],
      "name": "getDealsByPosition",
      "outputs": [
        {
          "internalType": "uint256[]",
          "name": "_deals",
          "type": "uint256[]"
        }
      ],
      "stateMutability": "view",
      "type": "function"
    },
    {
      "inputs": [
        {
          "internalType": "uint256[]",
          "name": "_ids",
          "type": "uint256[]"
        }
      ],
      "name": "getLimitOrders",
      "outputs": [
        {
          "components": [
            {
              "internalType": "address",
              "name": "token",
              "type": "address"
            },
            {
              "internalType": "address payable",
              "name": "taker",
              "type": "address"
            },
            {
              "internalType": "enum ICommon.Direct",
              "name": "direct",
              "type": "uint8"
            },
            {
              "internalType": "enum IPerpetual.OrderState",
              "name": "state",
              "type": "uint8"
            },
            {
              "internalType": "enum ICommon.Offset",
              "name": "offset",
              "type": "uint8"
            },
            {
              "internalType": "string",
              "name": "name",
              "type": "string"
            },
            {
              "internalType": "uint256",
              "name": "amount",
              "type": "uint256"
            },
            {
              "internalType": "uint256",
              "name": "targetPrice",
              "type": "uint256"
            },
            {
              "internalType": "uint256",
              "name": "margin",
              "type": "uint256"
            },
            {
              "internalType": "uint256",
              "name": "tradingFee",
              "type": "uint256"
            },
            {
              "internalType": "uint256",
              "name": "rewardGas",
              "type": "uint256"
            },
            {
              "internalType": "uint256",
              "name": "startTime",
              "type": "uint256"
            },
            {
              "internalType": "uint256",
              "name": "goodTill",
              "type": "uint256"
            }
          ],
          "internalType": "struct IPerpetual.LimitedOrder[]",
          "name": "info",
          "type": "tuple[]"
        }
      ],
      "stateMutability": "view",
      "type": "function"
    },
    {
      "inputs": [
        {
          "internalType": "uint256",
          "name": "id",
          "type": "uint256"
        }
      ],
      "name": "getLimitedOrder",
      "outputs": [
        {
          "components": [
            {
              "internalType": "address",
              "name": "token",
              "type": "address"
            },
            {
              "internalType": "address payable",
              "name": "taker",
              "type": "address"
            },
            {
              "internalType": "enum ICommon.Direct",
              "name": "direct",
              "type": "uint8"
            },
            {
              "internalType": "enum IPerpetual.OrderState",
              "name": "state",
              "type": "uint8"
            },
            {
              "internalType": "enum ICommon.Offset",
              "name": "offset",
              "type": "uint8"
            },
            {
              "internalType": "string",
              "name": "name",
              "type": "string"
            },
            {
              "internalType": "uint256",
              "name": "amount",
              "type": "uint256"
            },
            {
              "internalType": "uint256",
              "name": "targetPrice",
              "type": "uint256"
            },
            {
              "internalType": "uint256",
              "name": "margin",
              "type": "uint256"
            },
            {
              "internalType": "uint256",
              "name": "tradingFee",
              "type": "uint256"
            },
            {
              "internalType": "uint256",
              "name": "rewardGas",
              "type": "uint256"
            },
            {
              "internalType": "uint256",
              "name": "startTime",
              "type": "uint256"
            },
            {
              "internalType": "uint256",
              "name": "goodTill",
              "type": "uint256"
            }
          ],
          "internalType": "struct IPerpetual.LimitedOrder",
          "name": "",
          "type": "tuple"
        }
      ],
      "stateMutability": "view",
      "type": "function"
    },
    {
      "inputs": [],
      "name": "getLimitedOrderLength",
      "outputs": [
        {
          "internalType": "uint256",
          "name": "length",
          "type": "uint256"
        }
      ],
      "stateMutability": "view",
      "type": "function"
    },
    {
      "inputs": [],
      "name": "getOrderID",
      "outputs": [
        {
          "internalType": "uint256",
          "name": "length",
          "type": "uint256"
        }
      ],
      "stateMutability": "view",
      "type": "function"
    },
    {
      "inputs": [
        {
          "internalType": "uint256",
          "name": "_id",
          "type": "uint256"
        }
      ],
      "name": "getTriggerCondition",
      "outputs": [
        {
          "components": [
            {
              "internalType": "string",
              "name": "remark",
              "type": "string"
            },
            {
              "internalType": "uint256",
              "name": "mean",
              "type": "uint256"
            },
            {
              "internalType": "uint256",
              "name": "openLimitPrice",
              "type": "uint256"
            },
            {
              "internalType": "uint256",
              "name": "gainTriggerPrice",
              "type": "uint256"
            },
            {
              "internalType": "uint256",
              "name": "gainLimitPrice",
              "type": "uint256"
            },
            {
              "internalType": "uint256",
              "name": "lossTriggerPrice",
              "type": "uint256"
            },
            {
              "internalType": "uint256",
              "name": "lossLimitPrice",
              "type": "uint256"
            }
          ],
          "internalType": "struct IPerpetual.TriggerCondition",
          "name": "",
          "type": "tuple"
        }
      ],
      "stateMutability": "view",
      "type": "function"
    },
    {
      "inputs": [
        {
          "internalType": "uint256[]",
          "name": "_ids",
          "type": "uint256[]"
        }
      ],
      "name": "getTriggerConditions",
      "outputs": [
        {
          "components": [
            {
              "internalType": "string",
              "name": "remark",
              "type": "string"
            },
            {
              "internalType": "uint256",
              "name": "mean",
              "type": "uint256"
            },
            {
              "internalType": "uint256",
              "name": "openLimitPrice",
              "type": "uint256"
            },
            {
              "internalType": "uint256",
              "name": "gainTriggerPrice",
              "type": "uint256"
            },
            {
              "internalType": "uint256",
              "name": "gainLimitPrice",
              "type": "uint256"
            },
            {
              "internalType": "uint256",
              "name": "lossTriggerPrice",
              "type": "uint256"
            },
            {
              "internalType": "uint256",
              "name": "lossLimitPrice",
              "type": "uint256"
            }
          ],
          "internalType": "struct IPerpetual.TriggerCondition[]",
          "name": "info",
          "type": "tuple[]"
        }
      ],
      "stateMutability": "view",
      "type": "function"
    },
    {
      "inputs": [
        {
          "internalType": "address",
          "name": "token",
          "type": "address"
        },
        {
          "internalType": "address",
          "name": "user",
          "type": "address"
        }
      ],
      "name": "getUserDealsID",
      "outputs": [
        {
          "internalType": "uint256[]",
          "name": "",
          "type": "uint256[]"
        }
      ],
      "stateMutability": "view",
      "type": "function"
    },
    {
      "inputs": [
        {
          "internalType": "address",
          "name": "token",
          "type": "address"
        },
        {
          "internalType": "address",
          "name": "user",
          "type": "address"
        }
      ],
      "name": "getUserLimitOrdersID",
      "outputs": [
        {
          "internalType": "uint256[]",
          "name": "",
          "type": "uint256[]"
        }
      ],
      "stateMutability": "view",
      "type": "function"
    },
    {
      "inputs": [
        {
          "internalType": "address",
          "name": "_priPool",
          "type": "address"
        },
        {
          "internalType": "address",
          "name": "_perpetual",
          "type": "address"
        }
      ],
      "name": "initialize",
      "outputs": [],
      "stateMutability": "nonpayable",
      "type": "function"
    },
    {
      "inputs": [
        {
          "internalType": "uint256",
          "name": "_dealID",
          "type": "uint256"
        },
        {
          "internalType": "string[]",
          "name": "_symbols",
          "type": "string[]"
        },
        {
          "internalType": "uint256[]",
          "name": "_prices",
          "type": "uint256[]"
        }
      ],
      "name": "liquidateMakerDeal",
      "outputs": [
        {
          "internalType": "bool",
          "name": "isLiquidated",
          "type": "bool"
        },
        {
          "internalType": "bool",
          "name": "isAgreement",
          "type": "bool"
        },
        {
          "internalType": "uint256",
          "name": "userProfit",
          "type": "uint256"
        },
        {
          "internalType": "address",
          "name": "token",
          "type": "address"
        },
        {
          "internalType": "address",
          "name": "taker",
          "type": "address"
        },
        {
          "internalType": "uint256",
          "name": "margin",
          "type": "uint256"
        }
      ],
      "stateMutability": "nonpayable",
      "type": "function"
    },
    {
      "inputs": [
        {
          "internalType": "address",
          "name": "_token",
          "type": "address"
        },
        {
          "internalType": "address",
          "name": "_taker",
          "type": "address"
        },
        {
          "internalType": "string",
          "name": "_name",
          "type": "string"
        },
        {
          "internalType": "enum ICommon.Direct",
          "name": "_type",
          "type": "uint8"
        },
        {
          "internalType": "enum ICommon.Offset",
          "name": "_offset",
          "type": "uint8"
        },
        {
          "internalType": "uint256",
          "name": "_amount",
          "type": "uint256"
        },
        {
          "internalType": "uint256",
          "name": "_price",
          "type": "uint256"
        },
        {
          "internalType": "uint256",
          "name": "_tradingFee",
          "type": "uint256"
        },
        {
          "internalType": "uint256",
          "name": "_rewardGas",
          "type": "uint256"
        },
        {
          "internalType": "uint256",
          "name": "_marginAmount",
          "type": "uint256"
        },
        {
          "internalType": "uint256",
          "name": "_goodTill",
          "type": "uint256"
        },
        {
          "internalType": "bool",
          "name": "condition",
          "type": "bool"
        },
        {
          "internalType": "uint256",
          "name": "_dueGas",
          "type": "uint256"
        }
      ],
      "name": "makeLimitedOrder",
      "outputs": [],
      "stateMutability": "payable",
      "type": "function"
    },
    {
      "inputs": [
        {
          "internalType": "address",
          "name": "_token",
          "type": "address"
        },
        {
          "internalType": "address",
          "name": "_taker",
          "type": "address"
        },
        {
          "internalType": "string",
          "name": "_name",
          "type": "string"
        },
        {
          "internalType": "enum ICommon.Direct",
          "name": "_type",
          "type": "uint8"
        },
        {
          "internalType": "enum IPerpetual.OrderType",
          "name": "_orderType",
          "type": "uint8"
        },
        {
          "internalType": "uint256",
          "name": "_limitID",
          "type": "uint256"
        },
        {
          "components": [
            {
              "internalType": "uint256",
              "name": "marketValue",
              "type": "uint256"
            },
            {
              "internalType": "uint256",
              "name": "marginAmount",
              "type": "uint256"
            },
            {
              "internalType": "uint256",
              "name": "tradingFee",
              "type": "uint256"
            },
            {
              "internalType": "uint256",
              "name": "totalLocked",
              "type": "uint256"
            },
            {
              "internalType": "uint256",
              "name": "currentPrice",
              "type": "uint256"
            },
            {
              "internalType": "uint256",
              "name": "dealPrice",
              "type": "uint256"
            },
            {
              "internalType": "uint256",
              "name": "amount",
              "type": "uint256"
            },
            {
              "internalType": "uint256",
              "name": "leverage",
              "type": "uint256"
            }
          ],
          "internalType": "struct IPerpetual.Fees",
          "name": "fee",
          "type": "tuple"
        }
      ],
      "name": "openOrder",
      "outputs": [],
      "stateMutability": "nonpayable",
      "type": "function"
    },
    {
      "inputs": [],
      "name": "owner",
      "outputs": [
        {
          "internalType": "address",
          "name": "",
          "type": "address"
        }
      ],
      "stateMutability": "view",
      "type": "function"
    },
    {
      "inputs": [
        {
          "internalType": "address",
          "name": "",
          "type": "address"
        },
        {
          "internalType": "address",
          "name": "",
          "type": "address"
        },
        {
          "internalType": "string",
          "name": "",
          "type": "string"
        },
        {
          "internalType": "uint256",
          "name": "",
          "type": "uint256"
        }
      ],
      "name": "positions",
      "outputs": [
        {
          "internalType": "uint256",
          "name": "value",
          "type": "uint256"
        },
        {
          "internalType": "uint256",
          "name": "size",
          "type": "uint256"
        },
        {
          "internalType": "uint256",
          "name": "margin",
          "type": "uint256"
        },
        {
          "internalType": "uint256",
          "name": "freeze",
          "type": "uint256"
        }
      ],
      "stateMutability": "view",
      "type": "function"
    },
    {
      "inputs": [],
      "name": "renounceOwnership",
      "outputs": [],
      "stateMutability": "nonpayable",
      "type": "function"
    },
    {
      "inputs": [
        {
          "internalType": "address",
          "name": "_agent",
          "type": "address"
        },
        {
          "internalType": "address",
          "name": "_station",
          "type": "address"
        },
        {
          "internalType": "address",
          "name": "_poolAgent",
          "type": "address"
        },
        {
          "internalType": "address",
          "name": "keeper",
          "type": "address"
        }
      ],
      "name": "setKeepers",
      "outputs": [],
      "stateMutability": "nonpayable",
      "type": "function"
    },
    {
      "inputs": [
        {
          "internalType": "address",
          "name": "newOwner",
          "type": "address"
        }
      ],
      "name": "transferOwnership",
      "outputs": [],
      "stateMutability": "nonpayable",
      "type": "function"
    },
    {
      "inputs": [
        {
          "internalType": "uint256",
          "name": "limitID",
          "type": "uint256"
        },
        {
          "internalType": "enum IPerpetual.OrderState",
          "name": "state",
          "type": "uint8"
        },
        {
          "internalType": "uint256",
          "name": "rewardGas",
          "type": "uint256"
        }
      ],
      "name": "updateLimitOrder",
      "outputs": [],
      "stateMutability": "nonpayable",
      "type": "function"
    },
    {
      "inputs": [
        {
          "internalType": "uint256",
          "name": "limitOrderID",
          "type": "uint256"
        },
        {
          "internalType": "uint256",
          "name": "_mean",
          "type": "uint256"
        },
        {
          "internalType": "uint256",
          "name": "_openLimitPrice",
          "type": "uint256"
        },
        {
          "internalType": "uint256",
          "name": "_gainTriggerPrice",
          "type": "uint256"
        },
        {
          "internalType": "uint256",
          "name": "_gainLimitPrice",
          "type": "uint256"
        },
        {
          "internalType": "uint256",
          "name": "_lossTriggerPrice",
          "type": "uint256"
        },
        {
          "internalType": "uint256",
          "name": "_lossLimitPrice",
          "type": "uint256"
        }
      ],
      "name": "updateTriggerCondition",
      "outputs": [],
      "stateMutability": "nonpayable",
      "type": "function"
    }
  ],
  "bytecode": "0x608080604052346015576150f2908161001a8239f35b5f80fdfe60806040526004361015610019575b3461001557005b5f80fd5b5f3560e01c80630187703f146101e85780630374c555146101e35780630c3fc6b9146101de57806317900de0146101d95780633a0204a9146101d4578063485cc955146101cf57806349138690146101ca57806349216f85146101c557806350942355146101c057806352e282a7146101bb578063715018a6146101b657806375ffb53d146101b157806381a4f173146101ac57806382fd5bac146101a75780638da5cb5b146101a2578063982edc3c1461019d578063ac6b96a214610198578063ac89c79814610193578063b81198881461018e578063b99ac92714610189578063be63309e14610184578063c22e672c1461017f578063c2b335641461017a578063c3710f2514610175578063cc5bc74114610170578063dcee34751461016b578063e771ad7214610166578063ec408291146101615763f2fde38b0361000e57611f43565b611e8f565b611d87565b611c5e565b611b7a565b611b5d565b611afe565b611a78565b6119f2565b6119a8565b61198b565b611806565b61178e565b611739565b6116f4565b6116b5565b611569565b61143a565b6112f6565b611282565b6110c4565b611056565b610ff5565b610dab565b610cd3565b61070a565b6106bb565b610501565b610278565b90601f19601f602080948051918291828752018686015e5f8582860101520116010190565b9060c080610229845160e0855260e08501906101ed565b936020810151602085015260408101516040850152606081015160608501526080810151608085015260a081015160a0850152015191015290565b906020610275928181520190610212565b90565b3461001557602060031936011261001557600435610294611f6c565b505f52600c60205261031160405f206006604051916102b283610329565b6040516102ca816102c38185611fdb565b03826103a0565b835260018101546020840152600281015460408401526003810154606084015260048101546080840152600581015460a0840152015460c082015260405191829182610264565b0390f35b634e487b7160e01b5f52604160045260245ffd5b60e0810190811067ffffffffffffffff82111761034557604052565b610315565b610100810190811067ffffffffffffffff82111761034557604052565b6101a0810190811067ffffffffffffffff82111761034557604052565b60a0810190811067ffffffffffffffff82111761034557604052565b90601f601f19910116810190811067ffffffffffffffff82111761034557604052565b604051906103d36101a0836103a0565b565b604051906103d360e0836103a0565b67ffffffffffffffff81116103455760051b60200190565b9080601f83011215610015578135610413816103e4565b9261042160405194856103a0565b81845260208085019260051b82010192831161001557602001905b8282106104495750505090565b813581526020918201910161043c565b6020600319820112610015576004359067ffffffffffffffff821161001557610275916004016103fc565b602081016020825282518091526040820191602060408360051b8301019401925f915b8383106104b657505050505090565b90919293946020806104f2837fffffffffffffffffffffffffffffffffffffffffffffffffffffffffffffffc086600196030187528951610212565b970193019301919392906104a7565b346100155761050f36610459565b805161051a816103e4565b9161052860405193846103a0565b818352601f19610537836103e4565b015f5b81811061059d5750505f5b82811061055a57604051806103118682610484565b8061058161057c61056d600194866120e4565b515f52600c60205260405f2090565b612078565b61058b82876120e4565b5261059681866120e4565b5001610545565b6020906105a8611f6c565b8282880101520161053a565b634e487b7160e01b5f52602160045260245ffd5b600311156105d257565b6105b4565b906105e1826105c8565b52565b600811156105d257565b906105e1826105e4565b80516001600160a01b03168252906020828101516001600160a01b03169082015261062b604083015160408301906105d7565b61063d606083015160608301906105ee565b61064f608083015160808301906105d7565b6101808061066e60a08501516101a060a08601526101a08501906101ed565b9360c081015160c085015260e081015160e0850152610100810151610100850152610120810151610120850152610140810151610140850152610160810151610160850152015191015290565b34610015576020600319360112610015576103116106ec6106e66004356106e06120f8565b50612158565b506121bb565b6040519182916020835260208301906105f8565b6003111561001557565b346100155760e06003193601126100155760443560243560043561072d83610700565b606435906084359060a4359360c43591335f52600a60205261075560ff60405f2054166122ac565b61075e81612174565b5061078a61077382546001600160a01b031690565b6001600160a01b03165f52600b60205260405f2090565b92600182019461081e6108166107f76107c48954986107af8a6001600160a01b031690565b6001600160a01b03165f5260205260405f2090565b976107f16107e36107d960038a019b8c6122f7565b9260a01c60ff1690565b6107ec816105c8565b612390565b90610cbb565b5092610808600385019182546123b0565b9081905560018401546123b0565b8311156123bd565b81158015610b9a575b15610af0579280989799610862610843885460ff9060a01c1690565b61085b8d6005880154928360048a0154928392614291565b908561442a565b505097909860046007870154976108b86003966108b36108a361088c8c546001600160a01b031690565b6001600160a01b03165f52600960205260405f2090565b87546001600160a01b03166107af565b6144ab565b50835460ff60a81b19167503000000000000000000000000000000000000000000178455019b6108e78d612497565b9b5f5b8d51811015610adc579e8e9f8e9f8f6109048387926120e4565b51146109175750600101909f9e506108ea565b909d9e9192939495969798999a9b9c9d6109476109378261094c946124df565b8154905f199060031b1b19169055565b6124f4565b905b518110156109a7578f906109a08261098861097861096e856001976124df565b90549060031b1c90565b91610982856123a2565b906124df565b90919082549060031b91821b915f19901b1916179055565b018e61094e565b5091939597999b9d6109bf91939597999b9d5061250f565b6109e06109d46002546001600160a01b031690565b6001600160a01b031690565b936109f28a546001600160a01b031690565b91610a0487546001600160a01b031690565b93863b15610015578f928f92908e918d9c6040519e8f9a8b9a7ff1257f84000000000000000000000000000000000000000000000000000000008c5260048c019a610a4e9b61254c565b03815a5f948591f1968715610ad757610a9a610a946109d4610a86610aa0998b996103119d610abd575b50546001600160a01b031690565b94546001600160a01b031690565b9161205d565b91614623565b604051938493846040919493926060820195825260208201520152565b80610acb5f610ad1936103a0565b80610feb565b5f610a78565b6125b0565b509295989b509295989b509295989b6109bf565b5092959196949790938054610b099060ff9060a01c1690565b98846005870154809b828760048b019e8f5491610b2594614291565b610b3093918d614370565b505099909a6007880190815491610b47898461242c565b8254610b529161243f565b9283610b5d916123b0565b905587815490610b6c916123b0565b9055835460ff60a81b19167502000000000000000000000000000000000000000000178455976004956109bf565b5060048301548214610827565b600435906001600160a01b038216820361001557565b602435906001600160a01b038216820361001557565b604435906001600160a01b038216820361001557565b606435906001600160a01b038216820361001557565b67ffffffffffffffff811161034557601f01601f191660200190565b81601f8201121561001557803590610c3282610bff565b92610c4060405194856103a0565b8284526020838301011161001557815f926020809301838601378301015290565b6001600160a01b03165f52600860205260405f2090565b805191908290602001825e015f815290565b602090610c9d9260405193848093610c78565b9081520301902090565b634e487b7160e01b5f52603260045260245ffd5b906002811015610cce5760050201905f90565b610ca7565b3461001557608060031936011261001557610cec610ba7565b610cf4610bbd565b60443567ffffffffffffffff811161001557610d5791610d4b610d1d6020933690600401610c1b565b916001600160a01b0360643596165f52600b845260405f20906001600160a01b03165f5260205260405f2090565b60405193848093610c78565b9081520301902090600281101561001557610d7191610cbb565b5080546103116001830154926003600282015491015490604051948594859094939260609260808301968352602083015260408201520152565b3461001557604060031936011261001557610dc4610ba7565b610dcc610bbd565b7ff0c57e16840df040f15088dc2f81fe391c3923bec73e23a9662efc9c229c6a0054919067ffffffffffffffff610e1c60ff604086901c1615610e0e565b1590565b9467ffffffffffffffff1690565b1680159081610fe3575b6001149081610fd9575b159081610fd0575b50610fa857610eb99183610eb060017fffffffffffffffffffffffffffffffffffffffffffffffff00000000000000007ff0c57e16840df040f15088dc2f81fe391c3923bec73e23a9662efc9c229c6a005416177ff0c57e16840df040f15088dc2f81fe391c3923bec73e23a9662efc9c229c6a0055565b610f43576125bb565b610ebf57005b610f1468ff0000000000000000197ff0c57e16840df040f15088dc2f81fe391c3923bec73e23a9662efc9c229c6a0054167ff0c57e16840df040f15088dc2f81fe391c3923bec73e23a9662efc9c229c6a0055565b604051600181527fc7f505b2f371ae2175ee4913f4499e1f2633a7b5936321eed1cdaeb6115181d290602090a1005b610fa36801000000000000000068ff0000000000000000197ff0c57e16840df040f15088dc2f81fe391c3923bec73e23a9662efc9c229c6a005416177ff0c57e16840df040f15088dc2f81fe391c3923bec73e23a9662efc9c229c6a0055565b6125bb565b7ff92ee8a9000000000000000000000000000000000000000000000000000000005f5260045ffd5b9050155f610e38565b303b159150610e30565b849150610e26565b5f91031261001557565b34610015575f600319360112610015576020600754604051908152f35b90602080835192838152019201905f5b81811061102f5750505090565b8251845260209384019390920191600101611022565b906020610275928181520190611012565b34610015576040600319360112610015576103116110b06110ab611078610ba7565b6001600160a01b03611088610bbd565b91165f52600960205260405f20906001600160a01b03165f5260205260405f2090565b612497565b604051918291602083526020830190611012565b346100155760c0600319360112610015576110dd610ba7565b6110e5610bbd565b906044359067ffffffffffffffff8211610015576103119261110e611140933690600401610c1b565b6064359061111b82610700565b6084359260a43594335f52600a60205261113b60ff60405f2054166122ac565b612811565b6040519081529081906020820190565b600611156105d257565b9060068210156105d25752565b80516001600160a01b03168252906020828101516001600160a01b03169082015261119a604083015160408301906105d7565b6111ac6060830151606083019061115a565b6111be608083015160808301906105d7565b60a082015160a0820152610180806111e760c08501516101a060c08601526101a08501906101ed565b9360e081015160e0850152610100810151610100850152610120810151610120850152610140810151610140850152610160810151610160850152015191015290565b9080602083519182815201916020808360051b8301019401925f915b83831061125557505050505090565b909192939460208061127383601f1986600196030187528951611167565b97019301930191939290611246565b346100155761129036610459565b805161129b81612acc565b915f5b8281106112bb57604051602080825281906103119082018761122a565b806112da6112d46112ce600194866120e4565b51612174565b50612b26565b6112e482876120e4565b526112ef81866120e4565b500161129e565b34610015575f6003193601126100155761130e61485a565b5f6001600160a01b037f9016d09d72d40fdae2fd8ceac6b6234c7706214fd39c1cd1e609a0528c1993005473ffffffffffffffffffffffffffffffffffffffff1981167f9016d09d72d40fdae2fd8ceac6b6234c7706214fd39c1cd1e609a0528c19930055167f8be0079c531659141344cd1fd0a4f28419497f9722a3daafe3b4186f6b6457e08280a3005b600319606091011261001557600435906024359060443590565b9080602083519182815201916020808360051b8301019401925f915b8383106113df57505050505090565b90919293946020806113fd83601f19866001960301875289516105f8565b970193019301919392906113d0565b939291611435906114276040936060885260608801906113b4565b908682036020880152611012565b930152565b34610015576114483661139a565b6007549192918281851161155f575b8110611557575b505f92919261146c82612be3565b9161147681612c31565b945b8481108061154e575b156115285760016114a18161149584612158565b50015460a81c60ff1690565b6114aa816105e4565b148015611508575b6114c5575b6114c090612c62565b611478565b9161150081846114d86114c0948a6120e4565b526114e56106e686612158565b6114ef82886120e4565b526114fa81876120e4565b50612c62565b9290506114b7565b506002611519600161149584612158565b611522816105e4565b146114b2565b859392610311928103611543575b506040519384938461140c565b808452845284611536565b50818310611481565b91505f61145e565b9093508390611457565b34610015576080600319360112610015576116b36001600160a01b0361158d610ba7565b611689611598610bbd565b916116606115a4610bd3565b9361163761161387806115b5610be9565b966115be61485a565b1693845f52600a60205260405f20600160ff198254161790551694855f52600a6020526115f560405f20600160ff19825416179055565b611620611613896001600160a01b03165f52600a60205260405f2090565b600160ff19825416179055565b6001600160a01b03165f52600a60205260405f2090565b6001600160a01b031673ffffffffffffffffffffffffffffffffffffffff196002541617600255565b6001600160a01b031673ffffffffffffffffffffffffffffffffffffffff196003541617600355565b166001600160a01b031673ffffffffffffffffffffffffffffffffffffffff196004541617600455565b005b34610015576020600319360112610015576103116116e06112d46004356116da612a6c565b50612174565b604051918291602083526020830190611167565b34610015575f6003193601126100155760206001600160a01b037f9016d09d72d40fdae2fd8ceac6b6234c7706214fd39c1cd1e609a0528c1993005416604051908152f35b34610015576040600319360112610015576103116110b06110ab61175b610ba7565b6001600160a01b0361176b610bbd565b91165f52600860205260405f20906001600160a01b03165f5260205260405f2090565b346100155761179c36610459565b80516117a781612be3565b915f5b8281106117c75760405160208082528190610311908201876113b4565b806117e06106e66117da600194866120e4565b51612158565b6117ea82876120e4565b526117f581866120e4565b50016117aa565b6008111561001557565b3461001557606060031936011261001557600435602435611826816117fc565b8160443591335f52600a60205261184360ff60405f2054166122ac565b61184c82612158565b509061185c600183019182612c70565b600782018481559380151580611981575b611962575b5054906001600160a01b0382169384928254611894906001600160a01b031690565b94859160a081901c60ff169360a882901c60ff169160b01c60ff1690600387015490600488015490600589015490549160068a01549360088b01549560098c0154976040519b6001600160a01b038d9c169e6001600160a01b03169d6002019a6118fe9b8d612d23565b037f7d0616460a0a454bdf3e48a4f63e79ef1e23eb2a336bc7869d81c0dd7d2a99de91a361193d906001600160a01b03165f52600860205260405f2090565b9061195891906001600160a01b03165f5260205260405f2090565b906116b3916144ab565b5f80808061197b94325af1611975612ca9565b50612cd8565b5f611872565b508047101561186d565b34610015575f600319360112610015576020600654604051908152f35b34610015575f60031936011261001557335f52600a6020526119d060ff60405f2054166122ac565b60055460018101908181116119ed57602091600555604051908152f35b61237c565b346100155760e06003193601126100155760043560066024356044356064356084359060a4359260c43596335f52600a602052611a3560ff60405f2054166122ac565b5f52600c60205260405f20946001860155600285015560038401556004830155600582015501555f80f35b8015150361001557565b61016435906103d382611a60565b6101a060031936011261001557611a8d610ba7565b611a95610bbd565b906044359167ffffffffffffffff831161001557611aba6116b3933690600401610c1b565b606435611ac681610700565b608435611ad281610700565b60a43560c43560e43591610104359361012435956101443597611af3611a6a565b99610184359b612d9c565b34610015576060600319360112610015576040611b48600435611b1f610bbd565b60443591611b2c83611a60565b335f52600a602052611b4360ff865f2054166122ac565b613760565b6001600160a01b038351921682526020820152f35b34610015575f600319360112610015576020600554604051908152f35b34610015576101c060031936011261001557611b94610ba7565b611b9c610bbd565b9060443567ffffffffffffffff811161001557611bbd903690600401610c1b565b606435611bc981610700565b60843590611bd6826117fc565b60a435926101007fffffffffffffffffffffffffffffffffffffffffffffffffffffffffffffff3c360112610015576116b39560405195611c168761034a565b60c435875260e43560208801526101043560408801526101243560608801526101443560808801526101643560a08801526101843560c08801526101a43560e0880152613ac1565b346100155760606003193601126100155760243560043567ffffffffffffffff82116100155736602383011215610015578160040135611c9d816103e4565b92611cab60405194856103a0565b8184526024602085019260051b820101903682116100155760248101925b828410611d3c57856044358667ffffffffffffffff82116100155761031192611cf9611cff9336906004016103fc565b91613e59565b6040805196151587529415156020870152938501929092526001600160a01b03908116606085015216608083015260a082015290819060c0820190565b833567ffffffffffffffff811161001557602091611d61839260243691870101610c1b565b815201930192611cc9565b9392916114359061142760409360608852606088019061122a565b3461001557611d953661139a565b60065491929182818511611e85575b8110611e7d575b505f929192611db982612acc565b91611dc381612c31565b945b84811080611e74575b15611e4e576001611de28161149584612174565b611deb81611150565b148015611e2e575b611e06575b611e0190612c62565b611dc5565b91611e268184611e19611e01948a6120e4565b526114e56112d486612174565b929050611df8565b506002611e3f600161149584612174565b611e4881611150565b14611df3565b859392610311928103611e69575b5060405193849384611d6c565b808452845284611e5c565b50818310611dce565b91505f611dab565b9093508390611da4565b3461001557608060031936011261001557611ea8610ba7565b611eb0610bbd565b9060443567ffffffffffffffff811161001557611f30611f37926107f1611f1f602061031197610d4b611ee860049836908a01610c1b565b916001600160a01b0360643597611efe89610700565b165f52600b845260405f20906001600160a01b03165f5260205260405f2090565b90815203019020916107ec816105c8565b5001612497565b60405191829182611045565b34610015576020600319360112610015576116b3611f5f610ba7565b611f6761485a565b6141c9565b60405190611f7982610329565b5f60c083606081528260208201528260408201528260608201528260808201528260a08201520152565b90600182811c92168015611fd1575b6020831014611fbd57565b634e487b7160e01b5f52602260045260245ffd5b91607f1691611fb2565b5f9291815491611fea83611fa3565b808352926001811690811561203f575060011461200657505050565b5f9081526020812093945091925b838310612025575060209250010190565b600181602092949394548385870101520191019190612014565b9050602094955060ff1991509291921683830152151560051b010190565b906103d36120719260405193848092611fdb565b03836103a0565b9060405161208581610329565b60c06006829460405161209c816102c38185611fdb565b845260018101546020850152600281015460408501526003810154606085015260048101546080850152600581015460a08501520154910152565b805115610cce5760200190565b8051821015610cce5760209160051b010190565b6040519061210582610367565b5f61018083828152826020820152826040820152826060820152826080820152606060a08201528260c08201528260e0820152826101008201528261012082015282610140820152826101608201520152565b600754811015610cce5760075f52600a60205f20910201905f90565b600654811015610cce5760065f52600a60205f20910201905f90565b8054821015610cce575f52600a60205f20910201905f90565b6105e1826105c8565b6105e1826105e4565b9060096121c66103c3565b926121e86121db82546001600160a01b031690565b6001600160a01b03168552565b6122516122486001830154612216612206826001600160a01b031690565b6001600160a01b03166020890152565b61222b60a082901c60ff165b604089016121a9565b61223f60a882901c60ff16606089016121b2565b60b01c60ff1690565b608086016121a9565b61225d6002820161205d565b60a0850152600381015460c0850152600481015460e085015260058101546101008501526006810154610120850152600781015461014085015260088101546101608501520154610180830152565b156122b357565b606460405162461bcd60e51b815260206004820152601f60248201527f63616c6c6572206973206e6f74206f7264657220626f6f6b206b6565706572006044820152fd5b9060405180925f9080549061230b82611fa3565b9160018116908115612364575060011461232e575b505060209281520301902090565b9091505f5260205f205f905b82821061234d575050810160205f612320565b80548287015285935060209091019060010161233a565b60ff191685525050801515028201905060205f612320565b634e487b7160e01b5f52601160045260245ffd5b60ff5f199116019060ff82116119ed57565b5f198101919082116119ed57565b919082039182116119ed57565b156123c457565b606460405162461bcd60e51b815260206004820152601d60248201527f617661696c61626c6520616d6f756e7420696e73756666696369656e740000006044820152fd5b90670de0b6b3a7640000820291808304670de0b6b3a764000014901517156119ed57565b818102929181159184041417156119ed57565b8115612449570490565b634e487b7160e01b5f52601260045260245ffd5b9060068110156105d257815460ff60a81b191660a89190911b75ff00000000000000000000000000000000000000000016179055565b9055565b90604051918281549182825260208201905f5260205f20925f5b8181106124c65750506103d3925003836103a0565b84548352600194850194879450602090930192016124b1565b8054821015610cce575f5260205f2001905f90565b90600182018092116119ed57565b919082018092116119ed57565b8054801561252b575f19019061252861093783836124df565b55565b634e487b7160e01b5f52603160045260245ffd5b9060058210156105d25752565b98969492909b9a99979593916101608a019c6001600160a01b03168a526001600160a01b031660208a0152604089015260608801526080870161258e9161253f565b60a086015260c085015260e08401526101008301526101208201526101400152565b6040513d5f823e3d90fd5b612657916001600160a01b03611613926125d3615065565b6125db615065565b6125e4336141c9565b168073ffffffffffffffffffffffffffffffffffffffff195f5416175f555f52600a60205260405f20600160ff198254161790556001600160a01b03811673ffffffffffffffffffffffffffffffffffffffff1960015416176001556001600160a01b03165f52600a60205260405f2090565b612675611613336001600160a01b03165f52600a60205260405f2090565b6103d3611613306001600160a01b03165f52600a60205260405f2090565b906040516126a081610384565b60806126d1600483958054855260018101546020860152600281015460408601526003810154606086015201612497565b910152565b9190826040910312610015576020825192015161027581611a60565b926001600160a01b0360a09598979693816127219416865216602085015260c0604085015260c08401906101ed565b9561272b816105c8565b606083015260808201520152565b634e487b7160e01b5f525f60045260245ffd5b818110612757575050565b5f815560010161274c565b9061280c57600460809183518155602084015160018201556040840151600282015560608401516003820155019101519081519167ffffffffffffffff8311610345576801000000000000000083116103455760209082548484558085106127f1575b5001905f5260205f205f5b8381106127dd5750505050565b6001906020845194019381840155016127d0565b61280690845f5285845f20918201910161274c565b5f6127c5565b612739565b9594939291909361287461286e61285c612856886128408c6001600160a01b03165f52600b60205260405f2090565b906001600160a01b03165f5260205260405f2090565b85610c8a565b612865866105c8565b6107f186612390565b50612693565b936020850191825115612a62576002546040517f50942355000000000000000000000000000000000000000000000000000000008152999493926001600160a01b03909116918a9182916128cf9189888d8b600488016126f2565b03815a6040945f91f1978815610ad7575f905f99612a2e575b50976128f7575b505050505050565b5f9081869799939598949652525f60408601525f60608601525f9460808101955b865189815183101561299b57509061296060016129396112ce8483966120e4565b5001750400000000000000000000000000000000000000000060ff60a81b19825416179055565b6129946129828b6128408a6001600160a01b03165f52600960205260405f2090565b61298d838b516120e4565b51906144ab565b5001612918565b9498610c6192506129f4979391506129ee906107f16129e46110ab996060612840999d526129de8a6128408a6001600160a01b03165f52600b60205260405f2090565b90610c8a565b916107ec816105c8565b90612762565b905f5b8251811015612a1f5780612a1786612a11600194876120e4565b51613636565b5050016129f7565b509250505f80808080806128ef565b9050612a5391985060403d604011612a5b575b612a4b81836103a0565b8101906126d6565b97905f6128e8565b503d612a41565b9750505050505050565b60405190612a7982610367565b5f610180838281528260208201528260408201528260608201528260808201528260a0820152606060c08201528260e0820152826101008201528261012082015282610140820152826101608201520152565b90612ad6826103e4565b612ae360405191826103a0565b828152601f19612af382946103e4565b01905f5b828110612b0357505050565b602090612b0e612a6c565b82828501015201612af7565b60068210156105d25752565b906009612b316103c3565b92612b466121db82546001600160a01b031690565b612b886122486001830154612b64612206826001600160a01b031690565b612b7460a082901c60ff16612222565b61223f60a882901c60ff1660608901612b1a565b600281015460a0850152612b9e6003820161205d565b60c0850152600481015460e085015260058101546101008501526006810154610120850152600781015461014085015260088101546101608501520154610180830152565b90612bed826103e4565b612bfa60405191826103a0565b828152601f19612c0a82946103e4565b01905f5b828110612c1a57505050565b602090612c256120f8565b82828501015201612c0e565b90612c3b826103e4565b612c4860405191826103a0565b828152601f19612c5882946103e4565b0190602036910137565b5f1981146119ed5760010190565b9061249390612c7e816105e4565b82549075ff00000000000000000000000000000000000000000060ff60a81b199160a81b1691161790565b3d15612cd3573d90612cba82610bff565b91612cc860405193846103a0565b82523d5f602084013e565b606090565b15612cdf57565b606460405162461bcd60e51b815260206004820152600f60248201527f7472616e73666572206661696c656400000000000000000000000000000000006044820152fd5b989592612d476101609b9895929e9d9c9996939e6101808c526101808c0190611fdb565b9d60208b0152612d56816105c8565b60408a0152612d64816105e4565b6060890152612d72816105c8565b608088015260a087015260c086015260e08501526101008401526101208301526101408201520152565b8a87879e849e9c9a999695979486819f869e9b8b8f928f928f938b948d96335f52600a60205260405f205460ff16612dd3906122ac565b8a9b60075494604051996001600160a01b038b9a169c6001600160a01b03169b4297612dff9a8c613137565b037f052d8cb39abc1bd624ecd7027fd1b94ded9c7704f379055adcbab77044ec255b91a3159e612fce9f9e612fbd9f9d6128409e61312f575b156130085790612e7b6001600160a01b03612ed396959493612e6a612e5b6103c3565b6001600160a01b039098168852565b166001600160a01b03166020860152565b612e8887604086016121a9565b60016060850152612e9c86608086016121a9565b8860a085015260c08401528660e08401525f6101008401525f61012084015261014083015242610160830152610180820152613478565b612edc816105c8565b60018103612fd15750505050612fa37f68cbb1c862d9d961359025e53792aa8be48fcf01d4712cf5dfd194d2a184a76993612f68612f186103d5565b612f206134f3565b8152600160208201528560408201528460608201525f60808201528260a08201525f60c0820152612f63612f556007546123a2565b5f52600c60205260405f2090565b61352e565b612f736007546123a2565b92604051948594859094935f9360a09360c084019784526020840152604083015283606083015260808201520152565b0390a16001600160a01b03165f52600860205260405f2090565b612fc86007546123a2565b90614b7a565b50565b80612fe1600292989795986105c8565b14612ff2575b505050505050610c61565b612ffd95898861492e565b5f8080808080612fe7565b6002989950966130516001600160a01b036130a7989c9495969799613040949e946130316103c3565b6001600160a01b03909a168a52565b166001600160a01b03166020880152565b61305e8b604088016121a9565b6001606087015261307288608088016121a9565b8960a08701528b60c087015260e086015261010085015261012084015261014083015242610160830152610180820152613478565b6130b0816105c8565b146130d0575b5050506001600160a01b03165f52600860205260405f2090565b613125916107f16129e46130fd936129de8a6128408a6001600160a01b03165f52600b60205260405f2090565b509160036001840154930192613120613118855480936123b0565b8311156134a8565b612502565b90555f80806130b6565b349350612e38565b9794919b9a99969398959290613157906101808a526101808a01906101ed565b9b6020890152613166816105c8565b60408801526101609760016060890152612d72816105c8565b989592612d476101609b9895929e9d9c9996939e6101808c526101808c01906101ed565b906131ad816105c8565b7fffffffffffffffffffffff00ffffffffffffffffffffffffffffffffffffffff74ff000000000000000000000000000000000000000083549260a01b169116179055565b906131fc816105c8565b7fffffffffffffffffff00ffffffffffffffffffffffffffffffffffffffffffff76ff0000000000000000000000000000000000000000000083549260b01b169116179055565b9190601f811161325257505050565b6103d3925f5260205f20906020601f840160051c8301931061327c575b601f0160051c019061274c565b909150819061326f565b919091825167ffffffffffffffff8111610345576132ae816132a88454611fa3565b84613243565b6020601f82116001146132e95781906124939394955f926132de575b50508160011b915f199060031b1c19161790565b015190505f806132ca565b601f198216906132fc845f5260205f2090565b915f5b8181106133365750958360019596971061331e575b505050811b019055565b01515f1960f88460031b161c191690555f8080613314565b9192602060018192868b0151815501940192016132ff565b919061280c576101808161339761336e600994516001600160a01b031690565b85906001600160a01b031673ffffffffffffffffffffffffffffffffffffffff19825416179055565b613420600185016133de6133b560208501516001600160a01b031690565b82906001600160a01b031673ffffffffffffffffffffffffffffffffffffffff19825416179055565b6133f560408401516133ef816105c8565b826131a3565b61340c6060840151613406816105e4565b82612c70565b60808301519061341b826105c8565b6131f2565b61343160a082015160028601613286565b60c0810151600385015560e0810151600485015561010081015160058501556101208101516006850155610140810151600785015561016081015160088501550151910155565b6007549068010000000000000000821015610345576134a28260016103d394016007556007612190565b9061334e565b156134af57565b606460405162461bcd60e51b815260206004820152601960248201527f6c696d697420636c6f736520616d6f756e7420657863656564000000000000006044820152fd5b604051906135026040836103a0565b600282527f30780000000000000000000000000000000000000000000000000000000000006020830152565b90805180519067ffffffffffffffff821161034557613557826135518654611fa3565b86613243565b602090601f83116001146135c7578260c0936006959361358b935f926132de5750508160011b915f199060031b1c19161790565b84555b6020810151600185015560408101516002850155606081015160038501556080810151600485015560a081015160058501550151910155565b90601f198316916135db865f5260205f2090565b925f5b81811061361e575092600192859260c0966006989610613606575b505050811b01845561358e565b01515f1960f88460031b161c191690555f80806135f9565b929360206001819287860151815501950193016135de565b61365591600191335f52600a602052611b4360ff60405f2054166122ac565b9091565b1561366057565b606460405162461bcd60e51b815260206004820152601860248201527f57726f6e6720737461746520696e2063616e63656c696e6700000000000000006044820152fd5b156136ab57565b606460405162461bcd60e51b815260206004820152600a60248201527f4e6f7420686f6c646572000000000000000000000000000000000000000000006044820152fd5b156136f657565b608460405162461bcd60e51b815260206004820152602260248201527f63616e63656c20616d6f756e74206973206772656174207468616e206672656560448201527f7a650000000000000000000000000000000000000000000000000000000000006064820152fd5b929161376e6106e685612158565b9161378083516001600160a01b031690565b94606084019160018351613793816105e4565b61379c816105e4565b148015613aa4575b8015613a9d575b6137b490613659565b6001600160a01b03806137d160208801516001600160a01b031690565b92169116148015613a96575b6137e6906136a4565b8215613a2d57600582525b6137fe846134a283612158565b61014084015180151580613a23575b613a0a575b5060a08401928351916020860151613830906001600160a01b031690565b865182906001600160a01b03169560408901519061384d826105c8565b5196613858886105e4565b60808a015196613867886105c8565b60c08b0151988b60e08101519961010082019a8b516101408401519161012085019e8f5194610160870151966101800151976040519b6001600160a01b038d9c169e6001600160a01b03169d6138bd9b8d61317f565b037f7d0616460a0a454bdf3e48a4f63e79ef1e23eb2a336bc7869d81c0dd7d2a99de91a385516001600160a01b03165f90815260086020526040902081906020888101516001600160a01b03165f908152919052604090209061391f916144ab565b5081156139ea575b506139cf576002608085015161393c816105c8565b613945816105c8565b036139c05750506139986139876139ba9261398061396d61077387516001600160a01b031690565b60208701516001600160a01b03166107af565b9051610c8a565b6107f160408501516107e3816105c8565b5060c06003818501519201936139b28554809411156136ef565b0151906123b0565b90555f90565b51905161027593509150612502565b5050506139e5919250516001600160a01b031690565b905f90565b60019150613a0182915f52600c60205260405f2090565b0154145f613927565b5f808080613a1d94325af1611975612ca9565b5f613812565b508047101561380d565b60018251613a3a816105e4565b613a43816105e4565b141580613a78575b15613a5957600782526137f1565b610180840151421115613a6f57600682526137f1565b600482526137f1565b5060028251613a86816105e4565b613a8f816105e4565b1415613a4b565b50826137dd565b50836137ab565b5060028351613ab2816105e4565b613abb816105e4565b146137a4565b959493929190335f52600a60205260405f205460ff16613ae0906122ac565b6004546001600160a01b03166001600160a01b0316966006549760c0880151604089015199838760a08c01516040519d8e9586957fd5c3df390000000000000000000000000000000000000000000000000000000087528b6004880196613b4697613cd3565b03815a6040945f91f1978815610ad757613c7198613b6b915f91613c84575b50613d20565b613c6c60c0880151613b8960208a019182518b519189898989614745565b613b92866105c8565b613baf613b9e87612390565b60a08b015160065491888888614c4a565b613bda613bd185612840866001600160a01b03165f52600960205260405f2090565b60065490614b7a565b506005549060c08a01519060a08b01519060e08c015190519160408d015193613c016103c3565b6001600160a01b0389168152956001600160a01b038a166020880152613c2a8c604089016121a9565b600160608801526001608088015260a08701528960c087015260e086015261010085015261012084015261014083015261016082015242610180820152613e29565b614f39565b6103d3613c7f6005546124f4565b600555565b613ca6915060403d604011613cad575b613c9e81836103a0565b810190613cb4565b505f613b65565b503d613c94565b91908260409103126100155760208251613ccd81611a60565b92015190565b939060c095926001600160a01b03613cfe929a9998959a16865260e0602087015260e08601906101ed565b9760408501526060840152608083015260a0820152613d1c836105c8565b0152565b15613d2757565b606460405162461bcd60e51b815260206004820152601760248201527f6c6971756964697479206973206e6f7420656e6f7567680000000000000000006044820152fd5b919061280c5761018081613d8b61336e600994516001600160a01b031690565b613dd160018501613da96133b560208501516001600160a01b031690565b613dba60408401516133ef816105c8565b61340c6060840151613dcb81611150565b8261245d565b60a08101516002850155613dec60c082015160038601613286565b60e0810151600485015561010081015160058501556101208101516006850155610140810151600785015561016081015160088501550151910155565b600654906801000000000000000082101561034557613e538260016103d394016006556006612190565b90613d6b565b9190335f52600a602052613e7360ff60405f2054166122ac565b613e7f6112d484612174565b5f94613e9282516001600160a01b031690565b9360c08301935f5b815181101561419757613ead81836120e4565b51604051613ed181613ec3602082018095610c78565b03601f1981018352826103a0565b5190208651604051613eeb81613ec3602082018095610c78565b51902014613efb57600101613e9a565b90505f9750613f09916120e4565b51915b6020810195613f256109d488516001600160a01b031690565b946101408301906060613f8d835197613f496109d46002546001600160a01b031690565b906040519d8e809481937f016f4dcb0000000000000000000000000000000000000000000000000000000083528a6004840160209093929193604081019481520152565b03925af1988915610ad7575f945f9b5f9b61415a575b5085613fb7575b5050505050959493929190565b6140a96140b49361398060049694999e9b989c996107af899f9c996107738761402161409b93613fed60606107f19c0160059052565b613ffa83613e5383612174565b6108b361401161088c85516001600160a01b031690565b88516001600160a01b03166107af565b5061408e61403682516001600160a01b031690565b86516001600160a01b03169089519c604085019d8e5190614056826105c8565b60e08701519251936001600160a01b036140866140786101008b01518761242c565b670de0b6b3a7640000900490565b961690614827565b516001600160a01b031690565b91516001600160a01b031690565b91516107e3816105c8565b5001976140c089612497565b965f5b885181101561414a57896140d7828b6120e4565b51146140e5576001016140c3565b6140ff91929394959697989950610947610937828d6124df565b885181101561412e578061412861411b61096e6001948e6124df565b6109888d610982856123a2565b016140ff565b5091939597614140919395975061250f565b5f80808080613faa565b5092959850929550929550614140565b9195509950614182919a5060603d606011614190575b61417a81836103a0565b8101906141a2565b909a90999194909185613fa3565b503d614170565b5050505f9591613f0c565b908160609103126100155780516141b881611a60565b9160406020830151613ccd81611a60565b6001600160a01b03168015614265576001600160a01b037f9016d09d72d40fdae2fd8ceac6b6234c7706214fd39c1cd1e609a0528c199300548273ffffffffffffffffffffffffffffffffffffffff198216177f9016d09d72d40fdae2fd8ceac6b6234c7706214fd39c1cd1e609a0528c19930055167f8be0079c531659141344cd1fd0a4f28419497f9722a3daafe3b4186f6b6457e05f80a3565b7f1e4fbdf7000000000000000000000000000000000000000000000000000000005f525f60045260245ffd5b60409360a4929396956001600160a01b036002541691865198899687957fca6ec3720000000000000000000000000000000000000000000000000000000087526142da816105c8565b600487015260248601526044850152606484015260848301525afa918215610ad7575f905f9361430957509190565b9250506040823d604011614337575b81614325604093836103a0565b81010312610015576020825192015190565b3d9150614318565b9190826080910312610015578151916020810151916060604083015161436481611a60565b92015161027581611a60565b5f60809460e49394966001600160a01b038354169160405198899788967ff26a3e1d000000000000000000000000000000000000000000000000000000008852600488015285602488015260448701526064860152608485015260a4840152600160c48401525af18015610ad7575f925f935f935f936143f2575b5093929190565b9250509250614419915060803d608011614423575b61441181836103a0565b81019061433f565b919390925f6143eb565b503d614407565b60e4905f608094956001600160a01b038254169060405197889687957ff26a3e1d00000000000000000000000000000000000000000000000000000000875260048701528460248701526044860152606485015282608485015260a4840152600160c48401525af18015610ad7575f925f935f935f936143f2575093929190565b9060018201906144d0610e0a6144c98385905f5260205260405f2090565b5460ff1690565b61457a578254905f5b8281106144e95750505050505f90565b816144f761096e83886124df565b14614504576001016144d9565b9492909193945b614514856123a2565b81101561454b5760018161454361453961096e614533614514966124f4565b8b6124df565b610988838b6124df565b01905061450b565b50614575935061455e61456b939561250f565b905f5260205260405f2090565b60ff198154169055565b600190565b5050505f90565b1561458857565b606460405162461bcd60e51b815260206004820152601160248201527f496e76616c696420646972656374696f6e0000000000000000000000000000006044820152fd5b9491926001600160a01b0360e0979481614601949c9b9a979c16885216602087015261010060408701526101008601906101ed565b9761460b816105c8565b6060850152608084015260a083015260c08201520152565b92936146e29291947faf7f2bb51be6fae4db771c6d0838b6242dbaab0aabf2a14b0ada2f9a8a90875f965f92614658836105c8565b600183148015614732575b61466c90614581565b6146a96146976146918a6128408b6001600160a01b03165f52600b60205260405f2090565b87610c8a565b6146a0856105c8565b6107f185612390565b5093845480155f146146e757508455600184015560028301555b81546001830154916003600285015494015494604051988998896145cc565b0390a1565b9161471a91506147116146fa828561242c565b9361470b600189019586549061243f565b906123b0565b865582546123b0565b905561472b600284019182546123b0565b90556146c3565b5061473c836105c8565b60028314614663565b93927faf7f2bb51be6fae4db771c6d0838b6242dbaab0aabf2a14b0ada2f9a8a90875f9691956146e294614778836105c8565b600183148015614814575b61478c90614581565b6147b16146976146918a6128408b6001600160a01b03165f52600b60205260405f2090565b50938454155f146147e75784556001840155600283015581546001830154916003600285015494015494604051988998896145cc565b6147f2908554612502565b845561480360018501918254612502565b905561472b60028401918254612502565b5061481e836105c8565b60028314614783565b93927faf7f2bb51be6fae4db771c6d0838b6242dbaab0aabf2a14b0ada2f9a8a90875f9691956146e294614658836105c8565b6001600160a01b037f9016d09d72d40fdae2fd8ceac6b6234c7706214fd39c1cd1e609a0528c1993005416330361488d57565b7f118cdaa7000000000000000000000000000000000000000000000000000000005f523360045260245ffd5b604051906148c682610384565b60606080835f81525f60208201525f60408201525f838201520152565b156148ea57565b606460405162461bcd60e51b815260206004820152601560248201527f706f736974696f6e2073697a65206973207a65726f00000000000000000000006044820152fd5b6149857f68cbb1c862d9d961359025e53792aa8be48fcf01d4712cf5dfd194d2a184a76998959794936129de6149979461284061286e9561496d6148b9565b506001600160a01b03165f52600b60205260405f2090565b61498e846105c8565b6107f184612390565b90602082016149a8815115156148e3565b86159283159384614b3e575b614a47575b50505050906146e291614a0a6149cd6103d5565b6149d56134f3565b8152600160208201525f60408201528660608201528560808201528260a08201528360c0820152612f63612f556007546123a2565b614a156007546123a2565b9360405195869586919260a093969594919660c084019784525f60208501526040840152606083015260808201520152565b90614a55614a5d9251612408565b90519061243f565b9180614aff575b15614a805750505050906146e25f925f925b90915f80806149b9565b8215159182614aa6575b5050614a9b575b906146e291614a76565b925090505f80614a91565b909150614ab2826105c8565b600182149182614af5575b8215614acd575b50505f80614a8a565b6002919250614adb816105c8565b149081614aeb575b505f80614ac4565b905081105f614ae3565b8184119250614abd565b50614b09816105c8565b6001811480614b35575b80614a645750614b22816105c8565b600281148015614a645750818611614a64565b50818610614b13565b5084156149b4565b908154916801000000000000000083101561034557826109889160016103d3950181556124df565b80156119ed575f190190565b919060018301815f528060205260ff60405f205416614c43575f84545b808210614c025750614ba98386614b46565b614bb385546123a2565b818111614bd257509061455e83610988611613959461457597986124df565b80614bf8614bee61096e614be8614bfd956123a2565b8a6124df565b610988838a6124df565b614b6e565b614bb3565b908181018082116119ed5760011c9084614c1c83896124df565b90549060031b1c105f14614c3c5750600181018091116119ed5790614b97565b9150614b97565b505f925050565b614c7c926129de60049593612840614c77949a98999a6001600160a01b03165f52600b60205260405f2090565b610cbb565b5001928354614c8a81612c31565b905f5b818110614de5575015614dd8575f5b8151811080614dc5575b15614cb957614cb490612c62565b614c9c565b91929350508354811480614daf575b614d825780151580614d93575b614d82578354811080614d5f575b614d5157614d06614d0061096e614cfa87546123a2565b876124df565b85614b46565b614d1084546123a2565b818111614d265750610988906103d393946124df565b80614bf8614d4261096e614d3c614d4c956123a2565b896124df565b61098883896124df565b614d10565b610988906103d393946124df565b50614d7c614d6d82866124df565b90545f199260039290921b1c90565b14614ce3565b6103d39293610982610988926123a2565b50614da9614d6d614da3836123a2565b866124df565b14614cd5565b50614dbf614d6d614da3836123a2565b14614cc8565b50614dd081836120e4565b518511614ca6565b5090926103d39250614b46565b80614df5614d6d6001938a6124df565b14614e26576005614e11614e0c61096e848c6124df565b612174565b500154614e1e82866120e4565b525b01614c8d565b80614e3b575f614e35856120d7565b52614e20565b614e4d614e47826123a2565b856120e4565b51614e3582866120e4565b99969390926001600160a01b036101809c9996939f9e9d9a9794614e84906101a08e81815201906101ed565b9f1660208c015260408b0152614e99816105c8565b60608a0152614ea7816105e4565b608089015260a088015260c087015260e08601526101008501526101208401526101408301526101608201520152565b9693614f0d919b9a9996936101609996936001600160a01b036101808b019e168a5260208a01526040890152606088019061253f565b608086015260a085015260c084015260e08301526101008201525f6101208201525f6101408201520152565b919294959390956005549460c081019683885191888760a08601998a5197604088019e8f519860e08101998a51916020019b808d51946001600160a01b03169b8c9b6040519b8c9b8c9b429b614f8e9d614e58565b037f52e38618358c614d6c859d2d6481831837d95cf94ee1be20b2243cbb5f69addc91a288516040805160038152602081019290925242908201525f91906001600160a01b038716907feb42cf637f927243245c50b4bf7fe105fe4f4d26209102240f2ba3d8e27a7df890606090a4600192615009816105e4565b600214976146e2957f85a6bfd765950245f4f456c74db06ee8bad5a7ea04b80581aa7563d196421f669961505c575b6150436006546123a2565b9851905191519251935194604051998a9942988b614ed7565b60029450615038565b60ff7ff0c57e16840df040f15088dc2f81fe391c3923bec73e23a9662efc9c229c6a005460401c161561509457565b7fd7e6bcf8000000000000000000000000000000000000000000000000000000005f5260045ffdfea26469706673582212204e9cf402c50dd65726cc93ee228d220e3ddbf60c54f926cdb8111e7c320702ca64736f6c634300081c0033",
  "linkReferences": {},
  "deployedLinkReferences": {}
}