{
  "_format": "hh-sol-artifact-1",
  "contractName": "Perpetual",
  "sourceName": "contracts/Perpetual.sol",
  "abi": [
    {
      "inputs": [],
      "name": "InvalidInitialization",
      "type": "error"
    },
    {
      "inputs": [],
      "name": "NotInitializing",
      "type": "error"
    },
    {
      "inputs": [
        {
          "internalType": "address",
          "name": "owner",
          "type": "address"
        }
      ],
      "name": "OwnableInvalidOwner",
      "type": "error"
    },
    {
      "inputs": [
        {
          "internalType": "address",
          "name": "account",
          "type": "address"
        }
      ],
      "name": "OwnableUnauthorizedAccount",
      "type": "error"
    },
    {
      "inputs": [],
      "name": "ReentrancyGuardReentrantCall",
      "type": "error"
    },
    {
      "anonymous": false,
      "inputs": [
        {
          "indexed": false,
          "internalType": "address",
          "name": "token",
          "type": "address"
        },
        {
          "indexed": false,
          "internalType": "address",
          "name": "holder",
          "type": "address"
        },
        {
          "indexed": false,
          "internalType": "string",
          "name": "name",
          "type": "string"
        },
        {
          "indexed": false,
          "internalType": "enum ICommon.Direct",
          "name": "direct",
          "type": "uint8"
        },
        {
          "indexed": false,
          "internalType": "uint256",
          "name": "value",
          "type": "uint256"
        },
        {
          "indexed": false,
          "internalType": "uint256",
          "name": "size",
          "type": "uint256"
        },
        {
          "indexed": false,
          "internalType": "uint256",
          "name": "margin",
          "type": "uint256"
        },
        {
          "indexed": false,
          "internalType": "uint256",
          "name": "freeze",
          "type": "uint256"
        }
      ],
      "name": "AccountPosition",
      "type": "event"
    },
    {
      "anonymous": false,
      "inputs": [
        {
          "indexed": false,
          "internalType": "address",
          "name": "token",
          "type": "address"
        },
        {
          "indexed": false,
          "internalType": "address",
          "name": "taker",
          "type": "address"
        },
        {
          "indexed": false,
          "internalType": "uint256",
          "name": "amount",
          "type": "uint256"
        },
        {
          "indexed": false,
          "internalType": "uint256",
          "name": "availableAmount",
          "type": "uint256"
        },
        {
          "indexed": false,
          "internalType": "uint256",
          "name": "marginAmount",
          "type": "uint256"
        },
        {
          "indexed": false,
          "internalType": "uint256",
          "name": "locked",
          "type": "uint256"
        },
        {
          "indexed": false,
          "internalType": "uint256",
          "name": "stage",
          "type": "uint256"
        },
        {
          "indexed": false,
          "internalType": "uint256",
          "name": "dif",
          "type": "uint256"
        }
      ],
      "name": "BalanceOfTaker",
      "type": "event"
    },
    {
      "anonymous": false,
      "inputs": [
        {
          "indexed": false,
          "internalType": "string",
          "name": "name",
          "type": "string"
        },
        {
          "indexed": true,
          "internalType": "address",
          "name": "taker",
          "type": "address"
        },
        {
          "indexed": true,
          "internalType": "address",
          "name": "token",
          "type": "address"
        },
        {
          "indexed": false,
          "internalType": "uint256",
          "name": "orderID",
          "type": "uint256"
        },
        {
          "indexed": false,
          "internalType": "enum ICommon.Direct",
          "name": "direct",
          "type": "uint8"
        },
        {
          "indexed": false,
          "internalType": "enum IPerpetual.OrderState",
          "name": "state",
          "type": "uint8"
        },
        {
          "indexed": false,
          "internalType": "enum ICommon.Offset",
          "name": "offset",
          "type": "uint8"
        },
        {
          "indexed": false,
          "internalType": "uint256",
          "name": "amount",
          "type": "uint256"
        },
        {
          "indexed": false,
          "internalType": "uint256",
          "name": "targetPrice",
          "type": "uint256"
        },
        {
          "indexed": false,
          "internalType": "uint256",
          "name": "margin",
          "type": "uint256"
        },
        {
          "indexed": false,
          "internalType": "uint256",
          "name": "rewardGas",
          "type": "uint256"
        },
        {
          "indexed": false,
          "internalType": "uint256",
          "name": "tradingFee",
          "type": "uint256"
        },
        {
          "indexed": false,
          "internalType": "uint256",
          "name": "startTime",
          "type": "uint256"
        },
        {
          "indexed": false,
          "internalType": "uint256",
          "name": "orderType",
          "type": "uint256"
        }
      ],
      "name": "CreateLimitedOrder",
      "type": "event"
    },
    {
      "anonymous": false,
      "inputs": [
        {
          "indexed": false,
          "internalType": "uint256",
          "name": "limitOrderID",
          "type": "uint256"
        },
        {
          "indexed": false,
          "internalType": "uint256",
          "name": "openLimitPrice",
          "type": "uint256"
        },
        {
          "indexed": false,
          "internalType": "uint256",
          "name": "gainTriggerPrice",
          "type": "uint256"
        },
        {
          "indexed": false,
          "internalType": "uint256",
          "name": "gainLimitPrice",
          "type": "uint256"
        },
        {
          "indexed": false,
          "internalType": "uint256",
          "name": "lossTriggerPrice",
          "type": "uint256"
        },
        {
          "indexed": false,
          "internalType": "uint256",
          "name": "lossLimitPrice",
          "type": "uint256"
        }
      ],
      "name": "CreateTriggerCondition",
      "type": "event"
    },
    {
      "anonymous": false,
      "inputs": [
        {
          "indexed": false,
          "internalType": "uint256",
          "name": "code",
          "type": "uint256"
        },
        {
          "indexed": false,
          "internalType": "uint256",
          "name": "orderID",
          "type": "uint256"
        },
        {
          "indexed": false,
          "internalType": "string",
          "name": "message",
          "type": "string"
        }
      ],
      "name": "ErrorInfo",
      "type": "event"
    },
    {
      "anonymous": false,
      "inputs": [
        {
          "indexed": false,
          "internalType": "uint256",
          "name": "code",
          "type": "uint256"
        },
        {
          "indexed": false,
          "internalType": "uint256",
          "name": "orderID",
          "type": "uint256"
        },
        {
          "indexed": false,
          "internalType": "bytes",
          "name": "message",
          "type": "bytes"
        }
      ],
      "name": "ExceptErrorInfo",
      "type": "event"
    },
    {
      "anonymous": false,
      "inputs": [
        {
          "indexed": false,
          "internalType": "uint64",
          "name": "version",
          "type": "uint64"
        }
      ],
      "name": "Initialized",
      "type": "event"
    },
    {
      "anonymous": false,
      "inputs": [
        {
          "indexed": false,
          "internalType": "string",
          "name": "name",
          "type": "string"
        },
        {
          "indexed": true,
          "internalType": "address",
          "name": "taker",
          "type": "address"
        },
        {
          "indexed": true,
          "internalType": "address",
          "name": "token",
          "type": "address"
        },
        {
          "indexed": false,
          "internalType": "uint256",
          "name": "orderID",
          "type": "uint256"
        },
        {
          "indexed": false,
          "internalType": "enum ICommon.Direct",
          "name": "direct",
          "type": "uint8"
        },
        {
          "indexed": false,
          "internalType": "enum IPerpetual.OrderState",
          "name": "state",
          "type": "uint8"
        },
        {
          "indexed": false,
          "internalType": "enum ICommon.Offset",
          "name": "offset",
          "type": "uint8"
        },
        {
          "indexed": false,
          "internalType": "uint256",
          "name": "amount",
          "type": "uint256"
        },
        {
          "indexed": false,
          "internalType": "uint256",
          "name": "targetPrice",
          "type": "uint256"
        },
        {
          "indexed": false,
          "internalType": "uint256",
          "name": "margin",
          "type": "uint256"
        },
        {
          "indexed": false,
          "internalType": "uint256",
          "name": "rewardGas",
          "type": "uint256"
        },
        {
          "indexed": false,
          "internalType": "uint256",
          "name": "tradingFee",
          "type": "uint256"
        },
        {
          "indexed": false,
          "internalType": "uint256",
          "name": "startTime",
          "type": "uint256"
        },
        {
          "indexed": false,
          "internalType": "uint256",
          "name": "orderType",
          "type": "uint256"
        }
      ],
      "name": "LimitedOrderHistory",
      "type": "event"
    },
    {
      "anonymous": false,
      "inputs": [
        {
          "indexed": false,
          "internalType": "address",
          "name": "token",
          "type": "address"
        },
        {
          "indexed": false,
          "internalType": "address",
          "name": "taker",
          "type": "address"
        }
      ],
      "name": "LiquidateTaker",
      "type": "event"
    },
    {
      "anonymous": false,
      "inputs": [
        {
          "indexed": true,
          "internalType": "address",
          "name": "taker",
          "type": "address"
        },
        {
          "indexed": false,
          "internalType": "string",
          "name": "name",
          "type": "string"
        },
        {
          "indexed": false,
          "internalType": "address",
          "name": "token",
          "type": "address"
        },
        {
          "indexed": false,
          "internalType": "uint256",
          "name": "orderID",
          "type": "uint256"
        },
        {
          "indexed": false,
          "internalType": "enum ICommon.Direct",
          "name": "direction",
          "type": "uint8"
        },
        {
          "indexed": false,
          "internalType": "enum IPerpetual.OrderType",
          "name": "orderType",
          "type": "uint8"
        },
        {
          "indexed": false,
          "internalType": "uint256",
          "name": "amount",
          "type": "uint256"
        },
        {
          "indexed": false,
          "internalType": "uint256",
          "name": "costPrice",
          "type": "uint256"
        },
        {
          "indexed": false,
          "internalType": "uint256",
          "name": "price",
          "type": "uint256"
        },
        {
          "indexed": false,
          "internalType": "uint256",
          "name": "tradingFee",
          "type": "uint256"
        },
        {
          "indexed": false,
          "internalType": "uint256",
          "name": "leverage",
          "type": "uint256"
        },
        {
          "indexed": false,
          "internalType": "uint256",
          "name": "marginAmount",
          "type": "uint256"
        },
        {
          "indexed": false,
          "internalType": "uint256",
          "name": "limitOrderId",
          "type": "uint256"
        },
        {
          "indexed": false,
          "internalType": "uint256",
          "name": "timestamp",
          "type": "uint256"
        }
      ],
      "name": "OrderHistory",
      "type": "event"
    },
    {
      "anonymous": false,
      "inputs": [
        {
          "indexed": true,
          "internalType": "address",
          "name": "previousOwner",
          "type": "address"
        },
        {
          "indexed": true,
          "internalType": "address",
          "name": "newOwner",
          "type": "address"
        }
      ],
      "name": "OwnershipTransferred",
      "type": "event"
    },
    {
      "anonymous": false,
      "inputs": [
        {
          "indexed": false,
          "internalType": "address",
          "name": "token",
          "type": "address"
        },
        {
          "indexed": false,
          "internalType": "uint256",
          "name": "orderID",
          "type": "uint256"
        },
        {
          "indexed": false,
          "internalType": "uint256",
          "name": "dealID",
          "type": "uint256"
        },
        {
          "indexed": false,
          "internalType": "enum IPerpetual.TradeType",
          "name": "tradeType",
          "type": "uint8"
        },
        {
          "indexed": false,
          "internalType": "uint256",
          "name": "amount",
          "type": "uint256"
        },
        {
          "indexed": false,
          "internalType": "uint256",
          "name": "price",
          "type": "uint256"
        },
        {
          "indexed": false,
          "internalType": "uint256",
          "name": "tradingFee",
          "type": "uint256"
        },
        {
          "indexed": false,
          "internalType": "uint256",
          "name": "leverage",
          "type": "uint256"
        },
        {
          "indexed": false,
          "internalType": "uint256",
          "name": "marginAmount",
          "type": "uint256"
        },
        {
          "indexed": false,
          "internalType": "uint256",
          "name": "profit",
          "type": "uint256"
        },
        {
          "indexed": false,
          "internalType": "uint256",
          "name": "loss",
          "type": "uint256"
        },
        {
          "indexed": false,
          "internalType": "uint256",
          "name": "timestamp",
          "type": "uint256"
        }
      ],
      "name": "TradeHistory",
      "type": "event"
    },
    {
      "anonymous": false,
      "inputs": [
        {
          "indexed": true,
          "internalType": "address",
          "name": "token",
          "type": "address"
        },
        {
          "indexed": true,
          "internalType": "address",
          "name": "sender",
          "type": "address"
        },
        {
          "indexed": true,
          "internalType": "address",
          "name": "received",
          "type": "address"
        },
        {
          "indexed": false,
          "internalType": "enum ICommon.TransactionType",
          "name": "transactionType",
          "type": "uint8"
        },
        {
          "indexed": false,
          "internalType": "uint256",
          "name": "amount",
          "type": "uint256"
        },
        {
          "indexed": false,
          "internalType": "uint256",
          "name": "timestamp",
          "type": "uint256"
        }
      ],
      "name": "TransactionHistory",
      "type": "event"
    },
    {
      "anonymous": false,
      "inputs": [
        {
          "indexed": false,
          "internalType": "address",
          "name": "token",
          "type": "address"
        },
        {
          "indexed": false,
          "internalType": "address",
          "name": "sender",
          "type": "address"
        },
        {
          "indexed": false,
          "internalType": "string",
          "name": "name",
          "type": "string"
        },
        {
          "indexed": false,
          "internalType": "uint256",
          "name": "beforeLeverage",
          "type": "uint256"
        },
        {
          "indexed": false,
          "internalType": "uint256",
          "name": "afterLeverage",
          "type": "uint256"
        }
      ],
      "name": "setLeverage",
      "type": "event"
    },
    {
      "stateMutability": "nonpayable",
      "type": "fallback"
    },
    {
      "inputs": [],
      "name": "buybackAddr",
      "outputs": [
        {
          "internalType": "address",
          "name": "",
          "type": "address"
        }
      ],
      "stateMutability": "view",
      "type": "function"
    },
    {
      "inputs": [
        {
          "internalType": "uint256[]",
          "name": "_orderIDs",
          "type": "uint256[]"
        }
      ],
      "name": "cancelOrders",
      "outputs": [],
      "stateMutability": "nonpayable",
      "type": "function"
    },
    {
      "inputs": [
        {
          "internalType": "address",
          "name": "_token",
          "type": "address"
        },
        {
          "internalType": "uint256",
          "name": "_amount",
          "type": "uint256"
        }
      ],
      "name": "deposit",
      "outputs": [],
      "stateMutability": "nonpayable",
      "type": "function"
    },
    {
      "inputs": [
        {
          "internalType": "address",
          "name": "_token",
          "type": "address"
        },
        {
          "internalType": "address",
          "name": "_taker",
          "type": "address"
        },
        {
          "internalType": "uint256",
          "name": "_stage",
          "type": "uint256"
        }
      ],
      "name": "emitTakerBalance",
      "outputs": [],
      "stateMutability": "nonpayable",
      "type": "function"
    },
    {
      "inputs": [],
      "name": "getTokenList",
      "outputs": [
        {
          "internalType": "address[]",
          "name": "",
          "type": "address[]"
        }
      ],
      "stateMutability": "view",
      "type": "function"
    },
    {
      "inputs": [],
      "name": "getTradingPairs",
      "outputs": [
        {
          "internalType": "string[]",
          "name": "",
          "type": "string[]"
        }
      ],
      "stateMutability": "view",
      "type": "function"
    },
    {
      "inputs": [
        {
          "internalType": "string",
          "name": "_name",
          "type": "string"
        }
      ],
      "name": "getUnderlying",
      "outputs": [
        {
          "internalType": "contract Underlying",
          "name": "",
          "type": "address"
        }
      ],
      "stateMutability": "view",
      "type": "function"
    },
    {
      "inputs": [
        {
          "internalType": "address",
          "name": "_token",
          "type": "address"
        },
        {
          "internalType": "address",
          "name": "_taker",
          "type": "address"
        }
      ],
      "name": "getUserAccount",
      "outputs": [
        {
          "components": [
            {
              "internalType": "uint256",
              "name": "depositAmount",
              "type": "uint256"
            },
            {
              "internalType": "uint256",
              "name": "availableAmount",
              "type": "uint256"
            },
            {
              "internalType": "uint256",
              "name": "marginAmount",
              "type": "uint256"
            },
            {
              "internalType": "uint256",
              "name": "orderLocked",
              "type": "uint256"
            },
            {
              "internalType": "uint256",
              "name": "lastTime",
              "type": "uint256"
            }
          ],
          "internalType": "struct IPerpetual.AccountInfo",
          "name": "user",
          "type": "tuple"
        }
      ],
      "stateMutability": "view",
      "type": "function"
    },
    {
      "inputs": [
        {
          "internalType": "address",
          "name": "_token",
          "type": "address"
        }
      ],
      "name": "getUserAddress",
      "outputs": [
        {
          "internalType": "address[]",
          "name": "",
          "type": "address[]"
        }
      ],
      "stateMutability": "view",
      "type": "function"
    },
    {
      "inputs": [
        {
          "internalType": "address",
          "name": "_token",
          "type": "address"
        },
        {
          "internalType": "address",
          "name": "_user",
          "type": "address"
        },
        {
          "internalType": "string",
          "name": "_name",
          "type": "string"
        }
      ],
      "name": "getUserLeverage",
      "outputs": [
        {
          "internalType": "uint256",
          "name": "",
          "type": "uint256"
        }
      ],
      "stateMutability": "view",
      "type": "function"
    },
    {
      "inputs": [
        {
          "internalType": "address",
          "name": "_priPool",
          "type": "address"
        },
        {
          "internalType": "address",
          "name": "_riskFundAddr",
          "type": "address"
        },
        {
          "internalType": "address",
          "name": "_tradeFeeAddr",
          "type": "address"
        },
        {
          "internalType": "address",
          "name": "_platformTradeFeeAddr",
          "type": "address"
        }
      ],
      "name": "initialize",
      "outputs": [],
      "stateMutability": "nonpayable",
      "type": "function"
    },
    {
      "inputs": [
        {
          "internalType": "uint256[]",
          "name": "_dealIDs",
          "type": "uint256[]"
        },
        {
          "internalType": "string[]",
          "name": "_symbols",
          "type": "string[]"
        },
        {
          "internalType": "bytes[]",
          "name": "_priceUpdate",
          "type": "bytes[]"
        }
      ],
      "name": "liquidateMakerDeals",
      "outputs": [],
      "stateMutability": "payable",
      "type": "function"
    },
    {
      "inputs": [
        {
          "internalType": "address[]",
          "name": "_token",
          "type": "address[]"
        },
        {
          "internalType": "address[]",
          "name": "_taker",
          "type": "address[]"
        },
        {
          "internalType": "string[]",
          "name": "_symbols",
          "type": "string[]"
        },
        {
          "internalType": "bytes[]",
          "name": "_priceUpdate",
          "type": "bytes[]"
        }
      ],
      "name": "liquidateTaker",
      "outputs": [],
      "stateMutability": "payable",
      "type": "function"
    },
    {
      "inputs": [],
      "name": "maintenanceMarginRate",
      "outputs": [
        {
          "internalType": "uint256",
          "name": "",
          "type": "uint256"
        }
      ],
      "stateMutability": "view",
      "type": "function"
    },
    {
      "inputs": [],
      "name": "marketAgent",
      "outputs": [
        {
          "internalType": "contract MarketAgent",
          "name": "",
          "type": "address"
        }
      ],
      "stateMutability": "view",
      "type": "function"
    },
    {
      "inputs": [
        {
          "internalType": "string",
          "name": "_name",
          "type": "string"
        },
        {
          "internalType": "address",
          "name": "_token",
          "type": "address"
        },
        {
          "internalType": "uint256",
          "name": "_amount",
          "type": "uint256"
        },
        {
          "internalType": "enum ICommon.Offset",
          "name": "_offset",
          "type": "uint8"
        },
        {
          "internalType": "enum ICommon.Direct",
          "name": "_direct",
          "type": "uint8"
        },
        {
          "internalType": "uint256",
          "name": "_param1",
          "type": "uint256"
        },
        {
          "internalType": "uint256",
          "name": "_param2",
          "type": "uint256"
        },
        {
          "internalType": "uint256",
          "name": "_param3",
          "type": "uint256"
        },
        {
          "internalType": "uint256",
          "name": "_param4",
          "type": "uint256"
        },
        {
          "internalType": "uint256",
          "name": "_deadline",
          "type": "uint256"
        }
      ],
      "name": "ocoTrade",
      "outputs": [],
      "stateMutability": "payable",
      "type": "function"
    },
    {
      "inputs": [],
      "name": "orderBook",
      "outputs": [
        {
          "internalType": "contract OrderBook",
          "name": "",
          "type": "address"
        }
      ],
      "stateMutability": "view",
      "type": "function"
    },
    {
      "inputs": [],
      "name": "owner",
      "outputs": [
        {
          "internalType": "address",
          "name": "",
          "type": "address"
        }
      ],
      "stateMutability": "view",
      "type": "function"
    },
    {
      "inputs": [],
      "name": "platformTradeFeeAddr",
      "outputs": [
        {
          "internalType": "address",
          "name": "",
          "type": "address"
        }
      ],
      "stateMutability": "view",
      "type": "function"
    },
    {
      "inputs": [],
      "name": "privatePool",
      "outputs": [
        {
          "internalType": "address",
          "name": "",
          "type": "address"
        }
      ],
      "stateMutability": "view",
      "type": "function"
    },
    {
      "inputs": [],
      "name": "renounceOwnership",
      "outputs": [],
      "stateMutability": "nonpayable",
      "type": "function"
    },
    {
      "inputs": [],
      "name": "riskFundAddr",
      "outputs": [
        {
          "internalType": "address",
          "name": "",
          "type": "address"
        }
      ],
      "stateMutability": "view",
      "type": "function"
    },
    {
      "inputs": [
        {
          "internalType": "address",
          "name": "_buyBack",
          "type": "address"
        },
        {
          "internalType": "address",
          "name": "_orderBook",
          "type": "address"
        },
        {
          "internalType": "address",
          "name": "_tradeAgent",
          "type": "address"
        },
        {
          "internalType": "address",
          "name": "_tradeStation",
          "type": "address"
        },
        {
          "internalType": "address",
          "name": "_marketAgent",
          "type": "address"
        },
        {
          "internalType": "address",
          "name": "_keeper",
          "type": "address"
        }
      ],
      "name": "setKeepers",
      "outputs": [],
      "stateMutability": "nonpayable",
      "type": "function"
    },
    {
      "inputs": [
        {
          "internalType": "address",
          "name": "_platform",
          "type": "address"
        },
        {
          "internalType": "address",
          "name": "_tradeFee",
          "type": "address"
        },
        {
          "internalType": "bool",
          "name": "_mergeRemainingFeeToBuyBack",
          "type": "bool"
        }
      ],
      "name": "setTradeFeeAddr",
      "outputs": [],
      "stateMutability": "nonpayable",
      "type": "function"
    },
    {
      "inputs": [
        {
          "internalType": "string",
          "name": "_name",
          "type": "string"
        },
        {
          "internalType": "address",
          "name": "_underlying",
          "type": "address"
        }
      ],
      "name": "setUnderlying",
      "outputs": [],
      "stateMutability": "nonpayable",
      "type": "function"
    },
    {
      "inputs": [
        {
          "internalType": "address",
          "name": "_token",
          "type": "address"
        },
        {
          "internalType": "string",
          "name": "_name",
          "type": "string"
        },
        {
          "internalType": "uint256",
          "name": "_leverage",
          "type": "uint256"
        }
      ],
      "name": "setUserLeverage",
      "outputs": [],
      "stateMutability": "nonpayable",
      "type": "function"
    },
    {
      "inputs": [
        {
          "internalType": "address",
          "name": "token",
          "type": "address"
        },
        {
          "internalType": "address",
          "name": "takerAddr",
          "type": "address"
        },
        {
          "internalType": "uint256",
          "name": "tradingFee",
          "type": "uint256"
        }
      ],
      "name": "splitTradeFee",
      "outputs": [],
      "stateMutability": "nonpayable",
      "type": "function"
    },
    {
      "inputs": [
        {
          "internalType": "string",
          "name": "_name",
          "type": "string"
        },
        {
          "internalType": "address",
          "name": "_token",
          "type": "address"
        },
        {
          "internalType": "uint256",
          "name": "_amount",
          "type": "uint256"
        },
        {
          "internalType": "uint256",
          "name": "_price",
          "type": "uint256"
        },
        {
          "internalType": "uint256",
          "name": "_orderType",
          "type": "uint256"
        },
        {
          "internalType": "enum ICommon.Offset",
          "name": "_offset",
          "type": "uint8"
        },
        {
          "internalType": "enum ICommon.Direct",
          "name": "_direct",
          "type": "uint8"
        },
        {
          "internalType": "uint256",
          "name": "_orderType2",
          "type": "uint256"
        },
        {
          "internalType": "uint256",
          "name": "_deadline",
          "type": "uint256"
        },
        {
          "internalType": "bytes",
          "name": "_priceUpdate",
          "type": "bytes"
        }
      ],
      "name": "trade",
      "outputs": [],
      "stateMutability": "payable",
      "type": "function"
    },
    {
      "inputs": [],
      "name": "tradeAgent",
      "outputs": [
        {
          "internalType": "contract TradeAgent",
          "name": "",
          "type": "address"
        }
      ],
      "stateMutability": "view",
      "type": "function"
    },
    {
      "inputs": [],
      "name": "tradeFeeAddr",
      "outputs": [
        {
          "internalType": "address",
          "name": "",
          "type": "address"
        }
      ],
      "stateMutability": "view",
      "type": "function"
    },
    {
      "inputs": [],
      "name": "tradeStation",
      "outputs": [
        {
          "internalType": "contract TradeStation",
          "name": "",
          "type": "address"
        }
      ],
      "stateMutability": "view",
      "type": "function"
    },
    {
      "inputs": [
        {
          "internalType": "address",
          "name": "newOwner",
          "type": "address"
        }
      ],
      "name": "transferOwnership",
      "outputs": [],
      "stateMutability": "nonpayable",
      "type": "function"
    },
    {
      "inputs": [
        {
          "internalType": "uint256[]",
          "name": "_orderIDs",
          "type": "uint256[]"
        },
        {
          "internalType": "string[]",
          "name": "_symbols",
          "type": "string[]"
        },
        {
          "internalType": "bytes[]",
          "name": "_priceUpdate",
          "type": "bytes[]"
        }
      ],
      "name": "triggerOrders",
      "outputs": [],
      "stateMutability": "payable",
      "type": "function"
    },
    {
      "inputs": [
        {
          "internalType": "address",
          "name": "_token",
          "type": "address"
        },
        {
          "internalType": "address",
          "name": "_taker",
          "type": "address"
        },
        {
          "components": [
            {
              "internalType": "uint256",
              "name": "depositAmount",
              "type": "uint256"
            },
            {
              "internalType": "uint256",
              "name": "availableAmount",
              "type": "uint256"
            },
            {
              "internalType": "uint256",
              "name": "marginAmount",
              "type": "uint256"
            },
            {
              "internalType": "uint256",
              "name": "orderLocked",
              "type": "uint256"
            },
            {
              "internalType": "uint256",
              "name": "lastTime",
              "type": "uint256"
            }
          ],
          "internalType": "struct IPerpetual.AccountInfo",
          "name": "userInfo",
          "type": "tuple"
        }
      ],
      "name": "updateUserAsset",
      "outputs": [],
      "stateMutability": "nonpayable",
      "type": "function"
    },
    {
      "inputs": [
        {
          "internalType": "string[]",
          "name": "_symbols",
          "type": "string[]"
        },
        {
          "internalType": "bytes[]",
          "name": "_prices",
          "type": "bytes[]"
        }
      ],
      "name": "verifyPrice",
      "outputs": [
        {
          "internalType": "uint256[]",
          "name": "prices",
          "type": "uint256[]"
        }
      ],
      "stateMutability": "payable",
      "type": "function"
    },
    {
      "inputs": [
        {
          "internalType": "address",
          "name": "_token",
          "type": "address"
        },
        {
          "internalType": "uint256",
          "name": "_amount",
          "type": "uint256"
        },
        {
          "internalType": "string[]",
          "name": "_symbols",
          "type": "string[]"
        },
        {
          "internalType": "bytes[]",
          "name": "_priceUpdate",
          "type": "bytes[]"
        }
      ],
      "name": "withdraw",
      "outputs": [],
      "stateMutability": "payable",
      "type": "function"
    }
  ],
  "bytecode": "0x6080806040523460155761400c908161001a8239f35b5f80fdfe60806040526004361015610019575b3461001557005b5f80fd5b5f5f3560e01c806305ca57cf14611ffc5780630c41899814611fd65780630eed74c014611fa5578063273cbaa014611f31578063273e763814611c78578063336d1f1514611a6a57806334d57a2014611a435780633851969e146119d1578063402d712c1461192957806347e7ef24146116ca5780634d6849d21461164c57806356601435146116255780635671c19a146115c057806359b5e75e146115995780635c39e3781461122b57806369a0eeb814611204578063702c2b7414611176578063708b8d8614610efd578063715018a614610e64578063776af5ba14610e3d57806389f00b6d14610e1f5780638da5cb5b14610dd95780639c59b33a14610d1b578063a70dc3fe14610cf4578063b55fb57414610c18578063b5c926f414610ba9578063b8d771d414610ad4578063ccf1a4b214610a08578063cd2ce4ae146108eb578063d3c2d8b7146107b0578063e08061b314610789578063e448cc411461069d578063f2fde38b14610670578063f348285b14610649578063f74c3049146105005763f8c8765e146101b0575061000e565b346104fd5760806003193601126104fd576101c961210a565b906101d2612120565b6101da612136565b906101e361214c565b917ff0c57e16840df040f15088dc2f81fe391c3923bec73e23a9662efc9c229c6a00549460ff8660401c16159567ffffffffffffffff8116801590816104f5575b60011490816104eb575b1590816104e2575b506104ba576001600160a01b0394939192858094838a60017fffffffffffffffffffffffffffffffffffffffffffffffff0000000000000000859716177ff0c57e16840df040f15088dc2f81fe391c3923bec73e23a9662efc9c229c6a0055610465575b506102a3613f7f565b6102ab613f7f565b6102b43361347d565b6102bc613f7f565b6102c4613f7f565b60017f9b779b17422d0df92223018b32b4d1fa46e071723d6817e2486d003becc55f005516806001600160a01b0319600a541617600a558752600f60205260408720600160ff19825416179055166001600160a01b03196008541617600855166001600160a01b03196007541617600755166001600160a01b03196009541617600955308152600f60205260408120600160ff19825416179055338152600f60205260408120600160ff19825416179055670de0b6b3a7640000815566038d7ea4c6800060015567016345785d8a0000600255506702c68af0bb1400006003557fffffffffffffffffffffff00ffffffffffffffffffffffffffffffffffffffff600e5416600e556103d257005b7fffffffffffffffffffffffffffffffffffffffffffffff00ffffffffffffffff7ff0c57e16840df040f15088dc2f81fe391c3923bec73e23a9662efc9c229c6a0054167ff0c57e16840df040f15088dc2f81fe391c3923bec73e23a9662efc9c229c6a00557fc7f505b2f371ae2175ee4913f4499e1f2633a7b5936321eed1cdaeb6115181d2602060405160018152a1005b7fffffffffffffffffffffffffffffffffffffffffffffff0000000000000000001668010000000000000001177ff0c57e16840df040f15088dc2f81fe391c3923bec73e23a9662efc9c229c6a00555f61029a565b6004867ff92ee8a9000000000000000000000000000000000000000000000000000000008152fd5b9050155f610236565b303b15915061022e565b889150610224565b80fd5b50346104fd5760c06003193601126104fd5761051a61210a565b610522612120565b61052a612136565b9161053361214c565b608435926001600160a01b0384168094036106455760a435946001600160a01b038616809603610641576001600160a01b03809492818094610573613cfc565b166001600160a01b0319600654161760065516806001600160a01b0319600b541617600b558752600f60205260408720600160ff1982541617905516806001600160a01b0319600c541617600c558552600f60205260408520600160ff1982541617905516806001600160a01b0319600e541617600e558352600f60205260408320600160ff19825416179055806001600160a01b0319600d541617600d558252600f60205260408220600160ff198254161790558152600f60205260408120600160ff1982541617905580f35b8680fd5b8580fd5b50346104fd57806003193601126104fd5760206001600160a01b0360075416604051908152f35b50346104fd5760206003193601126104fd5761069a61068d61210a565b610695613cfc565b61347d565b80f35b50346104fd5760e06003193601126104fd576106b761210a565b6106bf612120565b9060a07fffffffffffffffffffffffffffffffffffffffffffffffffffffffffffffffbc36011261078557600490604051926106fa8461205b565b604435845260208401606435815260408501906084358252606086019260a43584526001600160a01b03608088019560c4358752338a52600f60205261074660ff60408c2054166124af565b42875216885260106020526001600160a01b036040892091165f5260205260405f20955186555160018601555160028501555160038401555191015580f35b8280fd5b50346104fd57806003193601126104fd5760206001600160a01b0360085416604051908152f35b50346104fd577fbbd1b090970f0e970b855e7b10fb629b05c0ea0c6e28e9b67a3573a05b947d316101006001600160a01b036107eb36612162565b92909116918286526010602052604086206001600160a01b0383165f5260205260405f20916040519261081d8461205b565b8054845260018101546020850181815261086361085b60028501546040890194818652600460038801549760608c01988952015460808b015261297a565b84519061297a565b8651818111156108b957506108816001600160a01b039188516129cf565b965b519151925193519460405198895216602088015260408701526060860152608085015260a084015260c083015260e0820152a180f35b90808210156108da576001600160a01b03916108d4916129cf565b96610883565b50506001600160a01b038a96610883565b50346104fd57806003193601126104fd57601354610908816121de565b906109166040519283612077565b808252601383527f66de8ffda797e3de9c05e8fc57b3bf0ec28a930d40b0d285d93c06501cf6a0909280602084015b838310610966576040516020808252819061096290820188612438565b0390f35b60405182875461097581612bc5565b80845290600181169081156109e557506001146109af575b50600192826109a185946020940382612077565b815201960192019194610945565b888552602085208592505b8183106109cf5750508101602001600161098d565b60018160209254838688010152019201916109ba565b60ff191660208581019190915291151560051b840190910191506001905061098d565b50346104fd5760406003193601126104fd576001600160a01b036040610a2c61210a565b9282610a36612120565b948260808551610a458161205b565b8281528260208201528287820152826060820152015216815260106020522091165f5260205260a060405f20604051610a7d8161205b565b81549182825260018101546020830190815260028201549060408401918252608060046003850154946060870195865201549401938452604051948552516020850152516040840152516060830152516080820152f35b5060806003193601126104fd5760043567ffffffffffffffff8111610ba557610b019036906004016123a5565b60243567ffffffffffffffff811161078557610b219036906004016123a5565b60443567ffffffffffffffff8111610ba157610b41903690600401612253565b916064359267ffffffffffffffff8411610b9d57610b66610b769436906004016122d2565b939092610b716136c5565b612c11565b60017f9b779b17422d0df92223018b32b4d1fa46e071723d6817e2486d003becc55f005580f35b8480fd5b8380fd5b5080fd5b5060406003193601126104fd5760043567ffffffffffffffff8111610ba557610bd6903690600401612253565b906024359067ffffffffffffffff82116104fd57610962610c0484610bfe36600487016122d2565b916137d0565b604051918291602083526020830190612372565b50346104fd5760206003193601126104fd5760043567ffffffffffffffff8111610ba557610c4a9036906004016121f6565b81805b8251811015610cf0576001600160a01b03600c5416610c6c8285612bfd565b51813b15610ba15783916064839260405194859384927fc2b3356400000000000000000000000000000000000000000000000000000000845260048401523360248401528160448401525af1908115610ce5578391610cd0575b5050600101610c4d565b81610cda91612077565b610ba557815f610cc6565b6040513d85823e3d90fd5b5080f35b50346104fd57806003193601126104fd5760206001600160a01b0360095416604051908152f35b50346104fd5760606003193601126104fd57610d3561210a565b610d3d612120565b60443591821515809303610ba1576001600160a01b038092338652600f602052610d6d60ff6040882054166124af565b166001600160a01b03196008541617600855166001600160a01b031960095416176009557fffffffffffffffffffffff00ffffffffffffffffffffffffffffffffffffffff74ff0000000000000000000000000000000000000000600e549260a01b16911617600e5580f35b50346104fd57806003193601126104fd5760206001600160a01b037f9016d09d72d40fdae2fd8ceac6b6234c7706214fd39c1cd1e609a0528c1993005416604051908152f35b50346104fd57806003193601126104fd576020600254604051908152f35b50346104fd57806003193601126104fd5760206001600160a01b03600b5416604051908152f35b50346104fd57806003193601126104fd57610e7d613cfc565b806001600160a01b037f9016d09d72d40fdae2fd8ceac6b6234c7706214fd39c1cd1e609a0528c199300546001600160a01b031981167f9016d09d72d40fdae2fd8ceac6b6234c7706214fd39c1cd1e609a0528c19930055167f8be0079c531659141344cd1fd0a4f28419497f9722a3daafe3b4186f6b6457e08280a380f35b50346104fd5760406003193601126104fd5760043567ffffffffffffffff8111610ba557610f2f9036906004016120ec565b90610f38612120565b338252600f602052610f5060ff6040842054166124af565b6040516001600160a01b03845191602081818801948086835e81016011815203019020541615610fb0575b6001600160a01b0390602085604051928391518091835e8101601181520301902091166001600160a01b031982541617905580f35b60135468010000000000000000811015611162576001810160135560135481101561114e57601384527f66de8ffda797e3de9c05e8fc57b3bf0ec28a930d40b0d285d93c06501cf6a09001938361113b5780519467ffffffffffffffff86116111275761101d8154612bc5565b601f81116110e2575b50602095601f8111600114611075579081602093926001600160a01b039697985f9161106a575b508160011b915f199060031b1c19161790555b9493925050610f7b565b90508301515f61104d565b601f198116825f52875f20905f5b8181106110ca5750916001916001600160a01b03979899826020979695106110b2575b5050811b019055611060565b8501515f1960f88460031b161c191690555f806110a6565b858a015183556020998a019960019093019201611083565b815f5260205f20601f880160051c8101916020891061111d575b601f0160051c01905b8181106111125750611026565b5f8155600101611105565b90915081906110fc565b634e487b7160e01b5f52604160045260245ffd5b602484634e487b7160e01b815280600452fd5b602484634e487b7160e01b81526032600452fd5b602484634e487b7160e01b81526041600452fd5b50346104fd5760606003193601126104fd5761119061210a565b611198612120565b60443567ffffffffffffffff8111610ba15760406020946001600160a01b036111c6819436906004016120ec565b95168152601286522091165f5282526111e260405f2082612490565b549081156111f4575b50604051908152f35b6111fe915061361c565b5f6111eb565b50346104fd57806003193601126104fd5760206001600160a01b03600d5416604051908152f35b506101406003193601126104fd5760043567ffffffffffffffff8111610ba5576112599036906004016120ec565b611261612120565b9060443590606435926084359060a4359260038410156106415760c435916003831015611595576101243567ffffffffffffffff81116115915736602382011215611591576112ba9036906024816004013591016120b6565b6112c26136c5565b6112d142610104351015612844565b876112e46509184e72a00089061561288f565b34906112ef8561373c565b9290506112fb87612925565b60018714801561157e575b1561153a578b9a886114d757505050506020611378916001600160a01b036040518381885180838b01835e81016011815203019020541660405180809581947f1af189a40000000000000000000000000000000000000000000000000000000083528660048401526024830190612413565b039134905af19081156114cc578891611497575b509187915b6001600160a01b03600e541694853b156114935789976001600160a01b03976113f4966040519b8c9a8b998a987ffb13637b000000000000000000000000000000000000000000000000000000008a5261014060048b01526101448a0190612413565b9616602488015260448701526064860152608485015261141381612925565b60a484015261142181612925565b60c483015260e43560e4830152336101048301528261012483015203925af1801561148857611473575b5060017f9b779b17422d0df92223018b32b4d1fa46e071723d6817e2486d003becc55f005580f35b8161147d91612077565b6104fd57805f61144b565b6040513d84823e3d90fd5b8980fd5b9750506020873d6020116114c4575b816114b360209383612077565b81010312610015578796515f61138c565b3d91506114a6565b6040513d8a823e3d90fd5b9195935093919950156114f6576114f18a993410156128da565b611391565b606460405162461bcd60e51b815260206004820152600d60248201527f7072696365206973207a65726f000000000000000000000000000000000000006044820152fd5b606460405162461bcd60e51b815260206004820152600f60248201527f77726f6e6720646972656374696f6e00000000000000000000000000000000006044820152fd5b5061158887612925565b60028714611306565b8880fd5b8780fd5b50346104fd57806003193601126104fd5760206001600160a01b03600a5416604051908152f35b5060806003193601126104fd576115d561210a565b60443567ffffffffffffffff8111610785576115f5903690600401612253565b6064359167ffffffffffffffff8311610ba15761161961069a9336906004016122d2565b929091602435906129dc565b50346104fd57806003193601126104fd5760206001600160a01b03600c5416604051908152f35b50346104fd5760206003193601126104fd576001600160a01b0361166e61210a565b168152601460205260408120604051918260208354918281520192825260208220915b8181106116b457610962856116a881870382612077565b6040519182918261219c565b8254845260209093019260019283019201611691565b50346104fd5760406003193601126104fd576116e461210a565b60243560015481106118e55782916116fe82303384613a0b565b6001600160a01b038116918284526010602052604084206001600160a01b0333165f5260205260405f206117323384613236565b61173d82825461297a565b81556001810161174e83825461297a565b9055838552601460205261177333604087206001915f520160205260405f2054151590565b156118c3575b506117843383613359565b604051906001825260208201524260408201523090837feb42cf637f927243245c50b4bf7fe105fe4f4d26209102240f2ba3d8e27a7df860603393a481835260056020526040832054156117d6575050f35b6117e08392613e2b565b506001600160a01b03600a5416827fffffffff0000000000000000000000000000000000000000000000000000000060186020604051611821604082612077565b828152017f617070726f766528616464726573732c75696e743235362900000000000000008152201691604051906020820193845260248201525f19604482015260448152611871606482612077565b51925af161187d6139dc565b8161188c575b50156104fd5780f35b80518015925082156118a1575b50505f611883565b8192509060209181010312610ba55760206118bc9101612987565b5f80611899565b60044291015582845260146020526118de3360408620613e9b565b505f611779565b606460405162461bcd60e51b815260206004820152601860248201527f6465706f73697420616d6f756e7420746f6f20736d616c6c00000000000000006044820152fd5b508061195661193736612303565b611943949192946136c5565b6001600160a01b03600e541692856137d0565b90803b15610b9d5761199b93858094604051968795869485937fbcef60d700000000000000000000000000000000000000000000000000000000855260048501612943565b03925af1801561148857611473575060017f9b779b17422d0df92223018b32b4d1fa46e071723d6817e2486d003becc55f005580f35b50806119fe6119df36612303565b6119eb949192946136c5565b6001600160a01b03600c541692856137d0565b90803b15610b9d5761199b93858094604051968795869485937feb4f2e3600000000000000000000000000000000000000000000000000000000855260048501612943565b50346104fd57806003193601126104fd5760206001600160a01b03600e5416604051908152f35b506101406003193601126100155760043567ffffffffffffffff811161001557611a989036906004016120ec565b611aa0612120565b604435916064359060038210156100155760843591600383101561001557611ac66136c5565b611ad542610124351015612844565b611ae76509184e72a00086061561288f565b611af08261373c565b908610611c34578060011b9080820460021490151715611c2057611b16903410156128da565b6001600160a01b03600e541691823b15610015575f946001600160a01b0394611b7993604051988997889687967f6e839c640000000000000000000000000000000000000000000000000000000088526101406004890152610144880190612413565b941660248601526044850152611b8e81612925565b6064840152611b9c81612925565b608483015260a43560a483015260c43560c483015260e43560e48301526101043561010483015233610124830152039134905af18015611c1557611c02575060017f9b779b17422d0df92223018b32b4d1fa46e071723d6817e2486d003becc55f005580f35b611c0e91505f90612077565b5f5f61144b565b6040513d5f823e3d90fd5b634e487b7160e01b5f52601160045260245ffd5b606460405162461bcd60e51b815260206004820152601660248201527f6f7264657220616d6f756e7420746f6f20736d616c6c000000000000000000006044820152fd5b3461001557606060031936011261001557611c9161210a565b60243567ffffffffffffffff811161001557611cb19036906004016120ec565b604435906001600160a01b03604051602081845180838701835e810160118152030190205416611eed57611ce48161361c565b8215159081611ee2575b5015611e9e575f6001600160a01b0380600b54169416905b60028110611db657509081611db3925f52601260205260405f206001600160a01b0333165f526020527f876c9e1723578de812ea7970374a8505b6086b8f573cea692c1e18c2e1c3dc27611d5d60405f2084612490565b54604051809184825233602083015260a06040830152611d8060a0830187612413565b9060608301528760808301520390a15f52601260205260405f206001600160a01b0333165f5260205260405f2090612490565b55005b6040517f3a0204a90000000000000000000000000000000000000000000000000000000081528260048201523360248201526080604482015260808180611e006084820188612413565b8560648301520381895afa908115611c15575f91611e6a575b50611e2657600101611d06565b606460405162461bcd60e51b815260206004820152600b60248201527f65786973742061737365740000000000000000000000000000000000000000006044820152fd5b90506080813d8211611e96575b81611e8460809383612077565b81010312610015576020015186611e19565b3d9150611e77565b606460405162461bcd60e51b815260206004820152601560248201527f6c65766572616765206f7574206f6620312d31303000000000000000000000006044820152fd5b905082111584611cee565b606460405162461bcd60e51b815260206004820152600a60248201527f77726f6e67206e616d65000000000000000000000000000000000000000000006044820152fd5b34610015575f6003193601126100155760405180602060045491828152019060045f527f8a35acfbc15ff81a39ae7d344fd709f28e8600b4aa8c65c6b64bfe7fe36bd19b905f5b818110611f8f57610962856116a881870382612077565b8254845260209093019260019283019201611f78565b3461001557611fd4611fb636612162565b91335f52600f602052611fcf60ff60405f2054166124af565b61253f565b005b34610015575f6003193601126100155760206001600160a01b0360065416604051908152f35b346100155760206003193601126100155760043567ffffffffffffffff8111610015576001600160a01b03602080612039819436906004016120ec565b604051928184925191829101835e810160118152030190205416604051908152f35b60a0810190811067ffffffffffffffff82111761112757604052565b90601f601f19910116810190811067ffffffffffffffff82111761112757604052565b67ffffffffffffffff811161112757601f01601f191660200190565b9291926120c28261209a565b916120d06040519384612077565b829481845281830111610015578281602093845f960137010152565b9080601f8301121561001557816020612107933591016120b6565b90565b600435906001600160a01b038216820361001557565b602435906001600160a01b038216820361001557565b604435906001600160a01b038216820361001557565b606435906001600160a01b038216820361001557565b6003196060910112610015576004356001600160a01b038116810361001557906024356001600160a01b0381168103610015579060443590565b60206040818301928281528451809452019201905f5b8181106121bf5750505090565b82516001600160a01b03168452602093840193909201916001016121b2565b67ffffffffffffffff81116111275760051b60200190565b9080601f8301121561001557813561220d816121de565b9261221b6040519485612077565b81845260208085019260051b82010192831161001557602001905b8282106122435750505090565b8135815260209182019101612236565b9080601f8301121561001557813561226a816121de565b926122786040519485612077565b81845260208085019260051b820101918383116100155760208201905b8382106122a457505050505090565b813567ffffffffffffffff8111610015576020916122c7878480948801016120ec565b815201910190612295565b9181601f840112156100155782359167ffffffffffffffff8311610015576020808501948460051b01011161001557565b60606003198201126100155760043567ffffffffffffffff8111610015578161232e916004016121f6565b9160243567ffffffffffffffff8111610015578261234e91600401612253565b916044359067ffffffffffffffff82116100155761236e916004016122d2565b9091565b90602080835192838152019201905f5b81811061238f5750505090565b8251845260209384019390920191600101612382565b9080601f83011215610015578135906123bd826121de565b926123cb6040519485612077565b82845260208085019360051b82010191821161001557602001915b8183106123f35750505090565b82356001600160a01b0381168103610015578152602092830192016123e6565b90601f19601f602080948051918291828752018686015e5f8582860101520116010190565b9080602083519182815201916020808360051b8301019401925f915b83831061246357505050505090565b909192939460208061248183601f1986600196030187528951612413565b97019301930191939290612454565b6040518151909260209284929081908501845e82019081520301902090565b156124b657565b606460405162461bcd60e51b815260206004820152601e60248201527f63616c6c6572206973206e6f742070657270657475616c206b656570657200006044820152fd5b51906001600160a01b038216820361001557565b81810292918115918404141715611c2057565b811561252b570490565b634e487b7160e01b5f52601260045260245ffd5b90821561283f57600d546001600160a01b0316925f8080808761276c575b61261297506125796125716003548761250e565b5f5490612521565b949182816001600160a01b038416151580612764575b8061275b575b612719575b50505050829080936001600160a01b038416151580612710575b80612707575b6126c5575b505050506001600160a01b03600954169082908093831515806126bc575b806126b3575b612678575b5050505091829160ff600e5460a01c16612615575b8293506001600160a01b036008541691613538565b50565b9150916001600160a01b0360065416818115158061266f575b80612666575b612643575b50509082906125fd565b61265f919250600b5f93612658838289613be3565b8587613b8c565b5f80612639565b50801515612634565b5080151561262e565b61269f93945081115f146126a85761269282600e926129cf565b935b612658838289613be3565b5f8080806125e8565b9050600e5f93612694565b508015156125e3565b508115156125dd565b6126f393945081115f146126fc576126df82600c926129cf565b935b6126ec83828a613be3565b8688613b8c565b5f8080806125bf565b9050600c5f936126e1565b508015156125ba565b508115156125b4565b61274793945081115f1461275057612733826011926129cf565b935b61274083828c613be3565b888a613b8c565b5f80808061259a565b905060115f93612735565b50801515612595565b50600161258f565b50506040517f9594bd1b0000000000000000000000000000000000000000000000000000000081526001600160a01b0386811660048301528516602482015260448101849052956080925086915060649082905f905af18015611c15575f905f905f905f906127e4575b61261297509091929161255d565b505050506080843d608011612837575b8161280160809383612077565b810103126100155783612816612612956124fa565b90602081015191606061282b604084016124fa565b920151909291906127d6565b3d91506127f4565b505050565b1561284b57565b606460405162461bcd60e51b815260206004820152600760248201527f65787069726564000000000000000000000000000000000000000000000000006044820152fd5b1561289657565b606460405162461bcd60e51b815260206004820152601660248201527f616d6f756e7420707265636973696f6e206572726f72000000000000000000006044820152fd5b156128e157565b606460405162461bcd60e51b815260206004820152600b60248201527f6c657373207265776172640000000000000000000000000000000000000000006044820152fd5b6003111561292f57565b634e487b7160e01b5f52602160045260245ffd5b9161296c9061295e6121079593606086526060860190612372565b908482036020860152612438565b916040818403910152612372565b91908201809211611c2057565b5190811515820361001557565b926001600160a01b036121079593816129c194168652166020850152608060408501526080840190612438565b916060818403910152612372565b91908203918211611c2057565b9391604090612a3592946129fe5f956001600160a01b03600c541692846137d0565b9183518095819482937fd15a1b41000000000000000000000000000000000000000000000000000000008452338c60048601612994565b03915afa908115611c15575f905f92612b5b575b5015612b53575b50811561283f576001600160a01b03831692835f52601060205260405f206001600160a01b0333165f5260205260405f2091612a8c3383613236565b6001830190612a9d8254918661297a565b8110612b0f5784612abe9185612ab783612ad298546129cf565b90556129cf565b9055612acb833383613be3565b3390613359565b6040519060028252602082015242604082015233917feb42cf637f927243245c50b4bf7fe105fe4f4d26209102240f2ba3d8e27a7df860603093a4565b606460405162461bcd60e51b815260206004820152601960248201527f776974686472657720616d6f756e7420746f6f206c61726765000000000000006044820152fd5b90505f612a50565b9150506040813d604011612b94575b81612b7760409383612077565b81010312610015576020612b8a82612987565b910151905f612a49565b3d9150612b6a565b8054821015612bb1575f5260205f2001905f90565b634e487b7160e01b5f52603260045260245ffd5b90600182811c92168015612bf3575b6020831014612bdf57565b634e487b7160e01b5f52602260045260245ffd5b91607f1691612bd4565b8051821015612bb15760209160051b010190565b93612c1e919593836137d0565b915f5b845181101561322e575f5b8651811015613225576001600160a01b03612c478388612bfd565b5116906001600160a01b03612c5c828a612bfd565b5116825f52601060205260405f206001600160a01b0382165f52602052612c8760405f205484613d5b565b801561321957612c978285613236565b612ce16080896001600160a01b03600c54168a6040518095819482937fd719606a0000000000000000000000000000000000000000000000000000000084528a8d60048601612994565b03915afa908115611c15575f916131e0575b50612dfe575b50610100837fbbd1b090970f0e970b855e7b10fb629b05c0ea0c6e28e9b67a3573a05b947d31926001955f52601060205260405f206001600160a01b0382165f5260205260405f209060405191612d4f8361205b565b805483528781015460208401818152612d8c61085b60028501546040880194818652600460038801549760608b01988952015460808a015261297a565b855181811115612dde5750612da29086516129cf565b945b5190519151925193604051968752602087015260408601526060850152608084015260a0830152600b60c083015260e0820152a101612c2c565b81811015612df557612def916129cf565b94612da4565b50505f94612da4565b612e63906001600160a01b03600754166020612e1a8288613d84565b6040517fdd62ed3e0000000000000000000000000000000000000000000000000000000081526001600160a01b0390931660048401523060248401529193849081906044820190565b0381895afa8015611c155789935f916131a8575b50612e87612e9e915f549061250e565b612e98612e9389613ef3565b613d76565b90612521565b8082116131a0575b5060208a6001600160a01b03600e5416865f8a612f29612ec6888a61297a565b95612f176040519b8c98899788967fc59b4d7800000000000000000000000000000000000000000000000000000000885260048801526024870152604486015260a0606486015260a4850190612438565b90600319848303016084850152612372565b03925af1928315611c15575f93613145575b509282869282600198877fbbd1b090970f0e970b855e7b10fb629b05c0ea0c6e28e9b67a3573a05b947d319861010098145f1461300957505050612f8c91506001600160a01b03600a541684613be3565b604080516001600160a01b038481168252831660208201527f41e1079eef48308723ea526ccdf110f7d9ce6445e554db20e4fbe261c3a5ac9b9190a1815f52601060205260405f206001600160a01b0382165f526020525f6004604082208281558289820155826002820155826003820155015592509350612cf9565b9091928185115f146130b1576130987feb42cf637f927243245c50b4bf7fe105fe4f4d26209102240f2ba3d8e27a7df8926130866060936130606001600160a01b0360075416613059858c6129cf565b9089613be3565b61307f8961307a856001600160a01b03600a54169461297a565b6129cf565b9087613be3565b6001600160a01b0360075416966129cf565b60405190600882526020820152426040820152a4612f8c565b61312c7feb42cf637f927243245c50b4bf7fe105fe4f4d26209102240f2ba3d8e27a7df892949561311a6060936131006001600160a01b03600754166130f7858b6129cf565b9030908a613a0b565b61307f8361307a8a6001600160a01b03600a54169461297a565b6001600160a01b0360075416956129cf565b60405190600982526020820152426040820152a4612f8c565b92509490926020833d8211613198575b8161316260209383612077565b810103126100155791519094919290917fbbd1b090970f0e970b855e7b10fb629b05c0ea0c6e28e9b67a3573a05b947d31612f3b565b3d9150613155565b90505f612ea6565b9350506020833d82116131d8575b816131c360209383612077565b81010312610015579151889290612e87612e77565b3d91506131b6565b90506080813d8211613211575b816131fa60809383612077565b810103126100155761320b90612987565b5f612cf3565b3d91506131ed565b50505050509350505050565b50600101612c21565b509350505050565b7fbbd1b090970f0e970b855e7b10fb629b05c0ea0c6e28e9b67a3573a05b947d31916001600160a01b03610100921690815f52601060205260405f206001600160a01b0382165f5260205260405f2090604051916132938361205b565b805483526001810154602084018181526132d161085b60028501546040880194818652600460038801549760608b01988952015460808a015261297a565b85518181111561332757506132ef6001600160a01b039187516129cf565b955b519151925193519460405197885216602087015260408601526060850152608084015260a08301525f60c083015260e0820152a1565b9080821015613348576001600160a01b0391613342916129cf565b956132f1565b50506001600160a01b035f956132f1565b7fbbd1b090970f0e970b855e7b10fb629b05c0ea0c6e28e9b67a3573a05b947d31916001600160a01b03610100921690815f52601060205260405f206001600160a01b0382165f5260205260405f2090604051916133b68361205b565b805483526001810154602084018181526133f461085b60028501546040880194818652600460038801549760608b01988952015460808a015261297a565b85518181111561344b57506134126001600160a01b039187516129cf565b955b519151925193519460405197885216602087015260408601526060850152608084015260a0830152600a60c083015260e0820152a1565b908082101561346c576001600160a01b0391613466916129cf565b95613414565b50506001600160a01b035f95613414565b6001600160a01b0316801561350c576001600160a01b037f9016d09d72d40fdae2fd8ceac6b6234c7706214fd39c1cd1e609a0528c19930054826001600160a01b03198216177f9016d09d72d40fdae2fd8ceac6b6234c7706214fd39c1cd1e609a0528c19930055167f8be0079c531659141344cd1fd0a4f28419497f9722a3daafe3b4186f6b6457e05f80a3565b7f1e4fbdf7000000000000000000000000000000000000000000000000000000005f525f60045260245ffd5b92939091846001600160a01b0382161515806135b0575b806135a7575b613562575b505050505090565b6135919495508281115f1461359b579261357f83600d94956129cf565b955b61358c858483613be3565b613b8c565b5f8080808061355a565b600d9250925f95613581565b50821515613555565b5080151561354f565b908160c0910312610015576040519060c082019082821067ffffffffffffffff8311176111275760a0916040528051835260208101516020840152604081015160408401526060810151606084015260808101516080840152015160a082015290565b60405181516001600160a01b0392602091839181908401835e601190820190815203019020541680156136bf5760c0600491604051928380927f639122c90000000000000000000000000000000000000000000000000000000082525afa8015611c15576060915f91613690575b50015190565b6136b2915060c03d60c0116136b8575b6136aa8183612077565b8101906135b9565b5f61368a565b503d6136a0565b50606490565b60027f9b779b17422d0df92223018b32b4d1fa46e071723d6817e2486d003becc55f0054146137145760027f9b779b17422d0df92223018b32b4d1fa46e071723d6817e2486d003becc55f0055565b7f3ee5aeb5000000000000000000000000000000000000000000000000000000005f5260045ffd5b9060c06001600160a01b03602080600495604051928184925191829101835e810160118152030190205416604051938480927f639122c90000000000000000000000000000000000000000000000000000000082525afa918215611c15575f926137af575b506020604083015192015190565b6137c991925060c03d60c0116136b8576136aa8183612077565b905f6137a1565b9092919283825103613998576137e7825134612521565b908251801561252b573406936137fc866121de565b9361380a6040519586612077565b868552601f19613819886121de565b0136602087013784955f5b82518082101561398c575f198101908111611c2057811461397b575b6001600160a01b036020806138558487612bfd565b51604051928184925191829101835e8101601181520301902054169089811015612bb1578060051b8601357fffffffffffffffffffffffffffffffffffffffffffffffffffffffffffffffe18736030181121561001557860180359067ffffffffffffffff82116100155760200190803603821361001557601f93818a6044602095601f19604051998a97889687947f1af189a40000000000000000000000000000000000000000000000000000000086528b6004870152816024870152868601375f858286010152011681010301925af18015611c15575f90613949575b60019250613942828a612bfd565b5201613824565b506020823d8211613973575b8161396260209383612077565b810103126100155760019151613934565b3d9150613955565b94816139869161297a565b94613840565b50505050939450505050565b606460405162461bcd60e51b815260206004820152602060248201527f496e636f6e73697374656e74207072696365206172726179206c656e677468736044820152fd5b3d15613a06573d906139ed8261209a565b916139fb6040519384612077565b82523d5f602084013e565b606090565b9092612571613a2691613a20612e9385613ef3565b9061250e565b80151580613b7a575b80613b68575b613a40575b50505050565b5f809493613b108295613b027fffffffff000000000000000000000000000000000000000000000000000000006025604051613a7d606082612077565b8181527f7432353629000000000000000000000000000000000000000000000000000000604060208301927f7472616e7366657246726f6d28616464726573732c616464726573732c75696e8452015220169560405194859360208501988952602485016001600160a01b036040929594938160608401971683521660208201520152565b03601f198101835282612077565b51925af1613b1c6139dc565b81613b31575b5015610015575f808080613a3a565b8051801592508215613b46575b50505f613b22565b8192509060209181010312610015576020613b619101612987565b5f80613b3e565b506001600160a01b0383161515613a35565b506001600160a01b0384161515613a2f565b9293909360405192601382101561292f576001600160a01b038080927feb42cf637f927243245c50b4bf7fe105fe4f4d26209102240f2ba3d8e27a7df89560609588526020880152426040880152169616941692a4565b91612571613bf791613a20612e9386613ef3565b9182151580613cea575b613c0a57505050565b5f928380937fffffffff0000000000000000000000000000000000000000000000000000000060196020604051613c42604082612077565b828152017f7472616e7366657228616464726573732c75696e74323536290000000000000081522016926001600160a01b036040519260208401958652166024830152604482015260448152613c99606482612077565b51925af1613ca56139dc565b81613cb3575b501561001557565b8051801592508215613cc8575b50505f613cab565b8192509060209181010312610015576020613ce39101612987565b5f80613cc0565b506001600160a01b0382161515613c01565b6001600160a01b037f9016d09d72d40fdae2fd8ceac6b6234c7706214fd39c1cd1e609a0528c19930054163303613d2f57565b7f118cdaa7000000000000000000000000000000000000000000000000000000005f523360045260245ffd5b613d66903090613d84565b808211613d71575090565b905090565b604d8111611c2057600a0a90565b6001600160a01b03604051927f70a082310000000000000000000000000000000000000000000000000000000084521660048301526020826024816001600160a01b0385165afa918215611c15575f92613df5575b50612e98612e93613def612107945f549061250e565b92613ef3565b91506020823d602011613e23575b81613e1060209383612077565b8101031261001557905190612e98613dd9565b3d9150613e03565b805f52600560205260405f2054155f14613e96576004546801000000000000000081101561112757613e7f613e698260018594016004556004612b9c565b819391549060031b91821b915f19901b19161790565b9055600454905f52600560205260405f2055600190565b505f90565b5f828152600182016020526040902054613eed57805490680100000000000000008210156111275782613ed8613e69846001809601855584612b9c565b90558054925f520160205260405f2055600190565b50505f90565b60206001600160a01b03916004604051809481937f313ce567000000000000000000000000000000000000000000000000000000008352165afa8015611c15575f90613f42575b60ff91501690565b506020813d602011613f77575b81613f5c60209383612077565b81010312610015575160ff811681036100155760ff90613f3a565b3d9150613f4f565b60ff7ff0c57e16840df040f15088dc2f81fe391c3923bec73e23a9662efc9c229c6a005460401c1615613fae57565b7fd7e6bcf8000000000000000000000000000000000000000000000000000000005f5260045ffdfea264697066735822122089ae49ec63d98e387dfe298060da64c2e99f70d2181b4f2deb01509342914cc764736f6c634300081c0033",
  "linkReferences": {},
  "deployedLinkReferences": {}
}