{
  "_format": "hh-sol-artifact-1",
  "contractName": "Perpetual",
  "sourceName": "contracts/Perpetual.sol",
  "abi": [
    {
      "inputs": [],
      "name": "InvalidInitialization",
      "type": "error"
    },
    {
      "inputs": [],
      "name": "NotInitializing",
      "type": "error"
    },
    {
      "inputs": [
        {
          "internalType": "address",
          "name": "owner",
          "type": "address"
        }
      ],
      "name": "OwnableInvalidOwner",
      "type": "error"
    },
    {
      "inputs": [
        {
          "internalType": "address",
          "name": "account",
          "type": "address"
        }
      ],
      "name": "OwnableUnauthorizedAccount",
      "type": "error"
    },
    {
      "inputs": [],
      "name": "ReentrancyGuardReentrantCall",
      "type": "error"
    },
    {
      "anonymous": false,
      "inputs": [
        {
          "indexed": false,
          "internalType": "address",
          "name": "token",
          "type": "address"
        },
        {
          "indexed": false,
          "internalType": "address",
          "name": "holder",
          "type": "address"
        },
        {
          "indexed": false,
          "internalType": "string",
          "name": "name",
          "type": "string"
        },
        {
          "indexed": false,
          "internalType": "enum ICommon.Direct",
          "name": "direct",
          "type": "uint8"
        },
        {
          "indexed": false,
          "internalType": "uint256",
          "name": "value",
          "type": "uint256"
        },
        {
          "indexed": false,
          "internalType": "uint256",
          "name": "size",
          "type": "uint256"
        },
        {
          "indexed": false,
          "internalType": "uint256",
          "name": "margin",
          "type": "uint256"
        },
        {
          "indexed": false,
          "internalType": "uint256",
          "name": "freeze",
          "type": "uint256"
        }
      ],
      "name": "AccountPosition",
      "type": "event"
    },
    {
      "anonymous": false,
      "inputs": [
        {
          "indexed": false,
          "internalType": "address",
          "name": "token",
          "type": "address"
        },
        {
          "indexed": false,
          "internalType": "address",
          "name": "taker",
          "type": "address"
        },
        {
          "indexed": false,
          "internalType": "uint256",
          "name": "amount",
          "type": "uint256"
        },
        {
          "indexed": false,
          "internalType": "uint256",
          "name": "availableAmount",
          "type": "uint256"
        },
        {
          "indexed": false,
          "internalType": "uint256",
          "name": "marginAmount",
          "type": "uint256"
        },
        {
          "indexed": false,
          "internalType": "uint256",
          "name": "locked",
          "type": "uint256"
        },
        {
          "indexed": false,
          "internalType": "uint256",
          "name": "stage",
          "type": "uint256"
        },
        {
          "indexed": false,
          "internalType": "uint256",
          "name": "dif",
          "type": "uint256"
        }
      ],
      "name": "BalanceOfTaker",
      "type": "event"
    },
    {
      "anonymous": false,
      "inputs": [
        {
          "indexed": false,
          "internalType": "string",
          "name": "name",
          "type": "string"
        },
        {
          "indexed": true,
          "internalType": "address",
          "name": "taker",
          "type": "address"
        },
        {
          "indexed": true,
          "internalType": "address",
          "name": "token",
          "type": "address"
        },
        {
          "indexed": false,
          "internalType": "uint256",
          "name": "orderID",
          "type": "uint256"
        },
        {
          "indexed": false,
          "internalType": "enum ICommon.Direct",
          "name": "orderType",
          "type": "uint8"
        },
        {
          "indexed": false,
          "internalType": "enum IPerpetual.OrderState",
          "name": "state",
          "type": "uint8"
        },
        {
          "indexed": false,
          "internalType": "enum ICommon.Offset",
          "name": "offset",
          "type": "uint8"
        },
        {
          "indexed": false,
          "internalType": "uint256",
          "name": "amount",
          "type": "uint256"
        },
        {
          "indexed": false,
          "internalType": "uint256",
          "name": "targetPrice",
          "type": "uint256"
        },
        {
          "indexed": false,
          "internalType": "uint256",
          "name": "margin",
          "type": "uint256"
        },
        {
          "indexed": false,
          "internalType": "uint256",
          "name": "rewardGas",
          "type": "uint256"
        },
        {
          "indexed": false,
          "internalType": "uint256",
          "name": "tradingFee",
          "type": "uint256"
        },
        {
          "indexed": false,
          "internalType": "uint256",
          "name": "startTime",
          "type": "uint256"
        },
        {
          "indexed": false,
          "internalType": "uint256",
          "name": "goodTill",
          "type": "uint256"
        }
      ],
      "name": "CreateLimitedOrder",
      "type": "event"
    },
    {
      "anonymous": false,
      "inputs": [
        {
          "indexed": false,
          "internalType": "uint256",
          "name": "limitOrderID",
          "type": "uint256"
        },
        {
          "indexed": false,
          "internalType": "uint256",
          "name": "openLimitPrice",
          "type": "uint256"
        },
        {
          "indexed": false,
          "internalType": "uint256",
          "name": "gainTriggerPrice",
          "type": "uint256"
        },
        {
          "indexed": false,
          "internalType": "uint256",
          "name": "gainLimitPrice",
          "type": "uint256"
        },
        {
          "indexed": false,
          "internalType": "uint256",
          "name": "lossTriggerPrice",
          "type": "uint256"
        },
        {
          "indexed": false,
          "internalType": "uint256",
          "name": "lossLimitPrice",
          "type": "uint256"
        }
      ],
      "name": "CreateTriggerCondition",
      "type": "event"
    },
    {
      "anonymous": false,
      "inputs": [
        {
          "indexed": false,
          "internalType": "uint256",
          "name": "code",
          "type": "uint256"
        },
        {
          "indexed": false,
          "internalType": "uint256",
          "name": "orderID",
          "type": "uint256"
        },
        {
          "indexed": false,
          "internalType": "string",
          "name": "message",
          "type": "string"
        }
      ],
      "name": "ErrorInfo",
      "type": "event"
    },
    {
      "anonymous": false,
      "inputs": [
        {
          "indexed": false,
          "internalType": "uint256",
          "name": "code",
          "type": "uint256"
        },
        {
          "indexed": false,
          "internalType": "uint256",
          "name": "orderID",
          "type": "uint256"
        },
        {
          "indexed": false,
          "internalType": "bytes",
          "name": "message",
          "type": "bytes"
        }
      ],
      "name": "ExceptErrorInfo",
      "type": "event"
    },
    {
      "anonymous": false,
      "inputs": [
        {
          "indexed": false,
          "internalType": "uint64",
          "name": "version",
          "type": "uint64"
        }
      ],
      "name": "Initialized",
      "type": "event"
    },
    {
      "anonymous": false,
      "inputs": [
        {
          "indexed": false,
          "internalType": "string",
          "name": "name",
          "type": "string"
        },
        {
          "indexed": true,
          "internalType": "address",
          "name": "taker",
          "type": "address"
        },
        {
          "indexed": true,
          "internalType": "address",
          "name": "token",
          "type": "address"
        },
        {
          "indexed": false,
          "internalType": "uint256",
          "name": "orderID",
          "type": "uint256"
        },
        {
          "indexed": false,
          "internalType": "enum ICommon.Direct",
          "name": "orderType",
          "type": "uint8"
        },
        {
          "indexed": false,
          "internalType": "enum IPerpetual.OrderState",
          "name": "state",
          "type": "uint8"
        },
        {
          "indexed": false,
          "internalType": "enum ICommon.Offset",
          "name": "offset",
          "type": "uint8"
        },
        {
          "indexed": false,
          "internalType": "uint256",
          "name": "amount",
          "type": "uint256"
        },
        {
          "indexed": false,
          "internalType": "uint256",
          "name": "targetPrice",
          "type": "uint256"
        },
        {
          "indexed": false,
          "internalType": "uint256",
          "name": "margin",
          "type": "uint256"
        },
        {
          "indexed": false,
          "internalType": "uint256",
          "name": "rewardGas",
          "type": "uint256"
        },
        {
          "indexed": false,
          "internalType": "uint256",
          "name": "tradingFee",
          "type": "uint256"
        },
        {
          "indexed": false,
          "internalType": "uint256",
          "name": "startTime",
          "type": "uint256"
        },
        {
          "indexed": false,
          "internalType": "uint256",
          "name": "goodTill",
          "type": "uint256"
        }
      ],
      "name": "LimitedOrderHistory",
      "type": "event"
    },
    {
      "anonymous": false,
      "inputs": [
        {
          "indexed": true,
          "internalType": "address",
          "name": "taker",
          "type": "address"
        },
        {
          "indexed": false,
          "internalType": "string",
          "name": "name",
          "type": "string"
        },
        {
          "indexed": false,
          "internalType": "address",
          "name": "token",
          "type": "address"
        },
        {
          "indexed": false,
          "internalType": "uint256",
          "name": "orderID",
          "type": "uint256"
        },
        {
          "indexed": false,
          "internalType": "enum ICommon.Direct",
          "name": "direction",
          "type": "uint8"
        },
        {
          "indexed": false,
          "internalType": "enum IPerpetual.OrderType",
          "name": "orderType",
          "type": "uint8"
        },
        {
          "indexed": false,
          "internalType": "uint256",
          "name": "amount",
          "type": "uint256"
        },
        {
          "indexed": false,
          "internalType": "uint256",
          "name": "costPrice",
          "type": "uint256"
        },
        {
          "indexed": false,
          "internalType": "uint256",
          "name": "price",
          "type": "uint256"
        },
        {
          "indexed": false,
          "internalType": "uint256",
          "name": "tradingFee",
          "type": "uint256"
        },
        {
          "indexed": false,
          "internalType": "uint256",
          "name": "leverage",
          "type": "uint256"
        },
        {
          "indexed": false,
          "internalType": "uint256",
          "name": "marginAmount",
          "type": "uint256"
        },
        {
          "indexed": false,
          "internalType": "uint256",
          "name": "limitOrderId",
          "type": "uint256"
        },
        {
          "indexed": false,
          "internalType": "uint256",
          "name": "timestamp",
          "type": "uint256"
        }
      ],
      "name": "OrderHistory",
      "type": "event"
    },
    {
      "anonymous": false,
      "inputs": [
        {
          "indexed": true,
          "internalType": "address",
          "name": "previousOwner",
          "type": "address"
        },
        {
          "indexed": true,
          "internalType": "address",
          "name": "newOwner",
          "type": "address"
        }
      ],
      "name": "OwnershipTransferred",
      "type": "event"
    },
    {
      "anonymous": false,
      "inputs": [
        {
          "indexed": false,
          "internalType": "address",
          "name": "token",
          "type": "address"
        },
        {
          "indexed": false,
          "internalType": "uint256",
          "name": "orderID",
          "type": "uint256"
        },
        {
          "indexed": false,
          "internalType": "uint256",
          "name": "dealID",
          "type": "uint256"
        },
        {
          "indexed": false,
          "internalType": "enum IPerpetual.TradeType",
          "name": "tradeType",
          "type": "uint8"
        },
        {
          "indexed": false,
          "internalType": "uint256",
          "name": "amount",
          "type": "uint256"
        },
        {
          "indexed": false,
          "internalType": "uint256",
          "name": "price",
          "type": "uint256"
        },
        {
          "indexed": false,
          "internalType": "uint256",
          "name": "tradingFee",
          "type": "uint256"
        },
        {
          "indexed": false,
          "internalType": "uint256",
          "name": "leverage",
          "type": "uint256"
        },
        {
          "indexed": false,
          "internalType": "uint256",
          "name": "marginAmount",
          "type": "uint256"
        },
        {
          "indexed": false,
          "internalType": "uint256",
          "name": "profit",
          "type": "uint256"
        },
        {
          "indexed": false,
          "internalType": "uint256",
          "name": "loss",
          "type": "uint256"
        },
        {
          "indexed": false,
          "internalType": "uint256",
          "name": "timestamp",
          "type": "uint256"
        }
      ],
      "name": "TradeHistory",
      "type": "event"
    },
    {
      "anonymous": false,
      "inputs": [
        {
          "indexed": true,
          "internalType": "address",
          "name": "token",
          "type": "address"
        },
        {
          "indexed": true,
          "internalType": "address",
          "name": "sender",
          "type": "address"
        },
        {
          "indexed": true,
          "internalType": "address",
          "name": "received",
          "type": "address"
        },
        {
          "indexed": false,
          "internalType": "enum ICommon.TransactionType",
          "name": "transactionType",
          "type": "uint8"
        },
        {
          "indexed": false,
          "internalType": "uint256",
          "name": "amount",
          "type": "uint256"
        },
        {
          "indexed": false,
          "internalType": "uint256",
          "name": "timestamp",
          "type": "uint256"
        }
      ],
      "name": "TransactionHistory",
      "type": "event"
    },
    {
      "anonymous": false,
      "inputs": [
        {
          "indexed": false,
          "internalType": "address",
          "name": "token",
          "type": "address"
        },
        {
          "indexed": false,
          "internalType": "address",
          "name": "sender",
          "type": "address"
        },
        {
          "indexed": false,
          "internalType": "string",
          "name": "name",
          "type": "string"
        },
        {
          "indexed": false,
          "internalType": "uint256",
          "name": "beforeLeverage",
          "type": "uint256"
        },
        {
          "indexed": false,
          "internalType": "uint256",
          "name": "afterLeverage",
          "type": "uint256"
        }
      ],
      "name": "setLeverage",
      "type": "event"
    },
    {
      "stateMutability": "nonpayable",
      "type": "fallback"
    },
    {
      "inputs": [],
      "name": "buybackAddr",
      "outputs": [
        {
          "internalType": "address",
          "name": "",
          "type": "address"
        }
      ],
      "stateMutability": "view",
      "type": "function"
    },
    {
      "inputs": [
        {
          "internalType": "uint256[]",
          "name": "_orderIDs",
          "type": "uint256[]"
        }
      ],
      "name": "cancelOrders",
      "outputs": [],
      "stateMutability": "nonpayable",
      "type": "function"
    },
    {
      "inputs": [
        {
          "internalType": "string",
          "name": "_name",
          "type": "string"
        },
        {
          "internalType": "address",
          "name": "_token",
          "type": "address"
        },
        {
          "internalType": "uint256",
          "name": "_amount",
          "type": "uint256"
        },
        {
          "internalType": "uint256",
          "name": "_orderType",
          "type": "uint256"
        },
        {
          "internalType": "uint256",
          "name": "_price",
          "type": "uint256"
        },
        {
          "internalType": "enum ICommon.Direct",
          "name": "_type",
          "type": "uint8"
        },
        {
          "internalType": "uint256",
          "name": "_goodTill",
          "type": "uint256"
        },
        {
          "internalType": "uint256",
          "name": "_deadline",
          "type": "uint256"
        },
        {
          "internalType": "bytes",
          "name": "_priceUpdate",
          "type": "bytes"
        }
      ],
      "name": "closePosition",
      "outputs": [],
      "stateMutability": "payable",
      "type": "function"
    },
    {
      "inputs": [
        {
          "internalType": "address",
          "name": "_token",
          "type": "address"
        },
        {
          "internalType": "uint256",
          "name": "_amount",
          "type": "uint256"
        }
      ],
      "name": "deposit",
      "outputs": [],
      "stateMutability": "nonpayable",
      "type": "function"
    },
    {
      "inputs": [
        {
          "internalType": "address",
          "name": "_token",
          "type": "address"
        },
        {
          "internalType": "address",
          "name": "_taker",
          "type": "address"
        },
        {
          "internalType": "uint256",
          "name": "_stage",
          "type": "uint256"
        }
      ],
      "name": "emitTakerBalance",
      "outputs": [],
      "stateMutability": "nonpayable",
      "type": "function"
    },
    {
      "inputs": [],
      "name": "getTokenList",
      "outputs": [
        {
          "internalType": "address[]",
          "name": "",
          "type": "address[]"
        }
      ],
      "stateMutability": "view",
      "type": "function"
    },
    {
      "inputs": [],
      "name": "getTradingPairs",
      "outputs": [
        {
          "internalType": "string[]",
          "name": "",
          "type": "string[]"
        }
      ],
      "stateMutability": "view",
      "type": "function"
    },
    {
      "inputs": [
        {
          "internalType": "string",
          "name": "_name",
          "type": "string"
        }
      ],
      "name": "getUnderlying",
      "outputs": [
        {
          "internalType": "contract Underlying",
          "name": "",
          "type": "address"
        }
      ],
      "stateMutability": "view",
      "type": "function"
    },
    {
      "inputs": [
        {
          "internalType": "address",
          "name": "_token",
          "type": "address"
        },
        {
          "internalType": "address",
          "name": "_taker",
          "type": "address"
        }
      ],
      "name": "getUserAccount",
      "outputs": [
        {
          "components": [
            {
              "internalType": "uint256",
              "name": "depositAmount",
              "type": "uint256"
            },
            {
              "internalType": "uint256",
              "name": "availableAmount",
              "type": "uint256"
            },
            {
              "internalType": "uint256",
              "name": "marginAmount",
              "type": "uint256"
            },
            {
              "internalType": "uint256",
              "name": "orderLocked",
              "type": "uint256"
            },
            {
              "internalType": "uint256",
              "name": "lastTime",
              "type": "uint256"
            }
          ],
          "internalType": "struct IPerpetual.AccountInfo",
          "name": "user",
          "type": "tuple"
        }
      ],
      "stateMutability": "view",
      "type": "function"
    },
    {
      "inputs": [
        {
          "internalType": "address",
          "name": "_token",
          "type": "address"
        }
      ],
      "name": "getUserAddress",
      "outputs": [
        {
          "internalType": "address[]",
          "name": "",
          "type": "address[]"
        }
      ],
      "stateMutability": "view",
      "type": "function"
    },
    {
      "inputs": [
        {
          "internalType": "address",
          "name": "_token",
          "type": "address"
        },
        {
          "internalType": "address",
          "name": "_user",
          "type": "address"
        },
        {
          "internalType": "string",
          "name": "_name",
          "type": "string"
        }
      ],
      "name": "getUserLeverage",
      "outputs": [
        {
          "internalType": "uint256",
          "name": "",
          "type": "uint256"
        }
      ],
      "stateMutability": "view",
      "type": "function"
    },
    {
      "inputs": [
        {
          "internalType": "address",
          "name": "_priPool",
          "type": "address"
        },
        {
          "internalType": "address",
          "name": "_riskFundAddr",
          "type": "address"
        },
        {
          "internalType": "address",
          "name": "_tradeFeeAddr",
          "type": "address"
        },
        {
          "internalType": "address",
          "name": "_platformTradeFeeAddr",
          "type": "address"
        }
      ],
      "name": "initialize",
      "outputs": [],
      "stateMutability": "nonpayable",
      "type": "function"
    },
    {
      "inputs": [
        {
          "internalType": "uint256[]",
          "name": "_dealIDs",
          "type": "uint256[]"
        },
        {
          "internalType": "string[]",
          "name": "_symbols",
          "type": "string[]"
        },
        {
          "internalType": "bytes[]",
          "name": "_priceUpdate",
          "type": "bytes[]"
        }
      ],
      "name": "liquidateMakerDeals",
      "outputs": [],
      "stateMutability": "payable",
      "type": "function"
    },
    {
      "inputs": [
        {
          "internalType": "address[]",
          "name": "_token",
          "type": "address[]"
        },
        {
          "internalType": "address[]",
          "name": "_taker",
          "type": "address[]"
        },
        {
          "internalType": "string[]",
          "name": "_symbols",
          "type": "string[]"
        },
        {
          "internalType": "bytes[]",
          "name": "_priceUpdate",
          "type": "bytes[]"
        }
      ],
      "name": "liquidateTaker",
      "outputs": [],
      "stateMutability": "payable",
      "type": "function"
    },
    {
      "inputs": [],
      "name": "maintenanceMarginRate",
      "outputs": [
        {
          "internalType": "uint256",
          "name": "",
          "type": "uint256"
        }
      ],
      "stateMutability": "view",
      "type": "function"
    },
    {
      "inputs": [],
      "name": "marketAgent",
      "outputs": [
        {
          "internalType": "contract MarketAgent",
          "name": "",
          "type": "address"
        }
      ],
      "stateMutability": "view",
      "type": "function"
    },
    {
      "inputs": [],
      "name": "orderBook",
      "outputs": [
        {
          "internalType": "contract OrderBook",
          "name": "",
          "type": "address"
        }
      ],
      "stateMutability": "view",
      "type": "function"
    },
    {
      "inputs": [],
      "name": "owner",
      "outputs": [
        {
          "internalType": "address",
          "name": "",
          "type": "address"
        }
      ],
      "stateMutability": "view",
      "type": "function"
    },
    {
      "inputs": [],
      "name": "platformTradeFeeAddr",
      "outputs": [
        {
          "internalType": "address",
          "name": "",
          "type": "address"
        }
      ],
      "stateMutability": "view",
      "type": "function"
    },
    {
      "inputs": [],
      "name": "privatePool",
      "outputs": [
        {
          "internalType": "contract IPrivatePool",
          "name": "",
          "type": "address"
        }
      ],
      "stateMutability": "view",
      "type": "function"
    },
    {
      "inputs": [],
      "name": "renounceOwnership",
      "outputs": [],
      "stateMutability": "nonpayable",
      "type": "function"
    },
    {
      "inputs": [],
      "name": "riskFundAddr",
      "outputs": [
        {
          "internalType": "address",
          "name": "",
          "type": "address"
        }
      ],
      "stateMutability": "view",
      "type": "function"
    },
    {
      "inputs": [
        {
          "internalType": "address",
          "name": "_buyBack",
          "type": "address"
        },
        {
          "internalType": "address",
          "name": "_orderBook",
          "type": "address"
        },
        {
          "internalType": "address",
          "name": "_tradeAgent",
          "type": "address"
        },
        {
          "internalType": "address",
          "name": "_tradeStation",
          "type": "address"
        },
        {
          "internalType": "address",
          "name": "_marketAgent",
          "type": "address"
        },
        {
          "internalType": "address",
          "name": "_keeper",
          "type": "address"
        }
      ],
      "name": "setKeepers",
      "outputs": [],
      "stateMutability": "nonpayable",
      "type": "function"
    },
    {
      "inputs": [
        {
          "internalType": "address",
          "name": "_platform",
          "type": "address"
        },
        {
          "internalType": "address",
          "name": "_tradeFee",
          "type": "address"
        },
        {
          "internalType": "bool",
          "name": "_mergeRemainingFeeToBuyBack",
          "type": "bool"
        }
      ],
      "name": "setTradeFeeAddr",
      "outputs": [],
      "stateMutability": "nonpayable",
      "type": "function"
    },
    {
      "inputs": [
        {
          "internalType": "string",
          "name": "_name",
          "type": "string"
        },
        {
          "internalType": "address",
          "name": "_underlying",
          "type": "address"
        }
      ],
      "name": "setUnderlying",
      "outputs": [],
      "stateMutability": "nonpayable",
      "type": "function"
    },
    {
      "inputs": [
        {
          "internalType": "address",
          "name": "_token",
          "type": "address"
        },
        {
          "internalType": "string",
          "name": "_name",
          "type": "string"
        },
        {
          "internalType": "uint256",
          "name": "_leverage",
          "type": "uint256"
        }
      ],
      "name": "setUserLeverage",
      "outputs": [],
      "stateMutability": "nonpayable",
      "type": "function"
    },
    {
      "inputs": [
        {
          "internalType": "address",
          "name": "token",
          "type": "address"
        },
        {
          "internalType": "address",
          "name": "takerAddr",
          "type": "address"
        },
        {
          "internalType": "uint256",
          "name": "tradingFee",
          "type": "uint256"
        }
      ],
      "name": "splitTradeFee",
      "outputs": [],
      "stateMutability": "nonpayable",
      "type": "function"
    },
    {
      "inputs": [
        {
          "internalType": "string",
          "name": "_name",
          "type": "string"
        },
        {
          "internalType": "address",
          "name": "_token",
          "type": "address"
        },
        {
          "internalType": "uint256",
          "name": "_amount",
          "type": "uint256"
        },
        {
          "internalType": "enum ICommon.Direct",
          "name": "_type",
          "type": "uint8"
        },
        {
          "internalType": "enum ICommon.Offset",
          "name": "_offset",
          "type": "uint8"
        },
        {
          "internalType": "uint256",
          "name": "_param1",
          "type": "uint256"
        },
        {
          "internalType": "uint256",
          "name": "_param2",
          "type": "uint256"
        },
        {
          "internalType": "uint256",
          "name": "_param3",
          "type": "uint256"
        },
        {
          "internalType": "uint256",
          "name": "_param4",
          "type": "uint256"
        },
        {
          "internalType": "uint256",
          "name": "_goodTill",
          "type": "uint256"
        },
        {
          "internalType": "uint256",
          "name": "_deadline",
          "type": "uint256"
        }
      ],
      "name": "stopTakeOrder",
      "outputs": [],
      "stateMutability": "payable",
      "type": "function"
    },
    {
      "inputs": [],
      "name": "tradeAgent",
      "outputs": [
        {
          "internalType": "contract TradeAgent",
          "name": "",
          "type": "address"
        }
      ],
      "stateMutability": "view",
      "type": "function"
    },
    {
      "inputs": [],
      "name": "tradeFeeAddr",
      "outputs": [
        {
          "internalType": "address",
          "name": "",
          "type": "address"
        }
      ],
      "stateMutability": "view",
      "type": "function"
    },
    {
      "inputs": [
        {
          "internalType": "string",
          "name": "_name",
          "type": "string"
        },
        {
          "internalType": "address",
          "name": "_token",
          "type": "address"
        },
        {
          "internalType": "uint256",
          "name": "_amount",
          "type": "uint256"
        },
        {
          "internalType": "uint256",
          "name": "_price",
          "type": "uint256"
        },
        {
          "internalType": "uint256",
          "name": "_orderType",
          "type": "uint256"
        },
        {
          "internalType": "enum ICommon.Direct",
          "name": "_type",
          "type": "uint8"
        },
        {
          "internalType": "address",
          "name": "_inviter",
          "type": "address"
        },
        {
          "internalType": "uint256",
          "name": "_goodTill",
          "type": "uint256"
        },
        {
          "internalType": "uint256",
          "name": "_deadline",
          "type": "uint256"
        },
        {
          "internalType": "bytes",
          "name": "_priceUpdate",
          "type": "bytes"
        }
      ],
      "name": "tradeFutures",
      "outputs": [],
      "stateMutability": "payable",
      "type": "function"
    },
    {
      "inputs": [],
      "name": "tradeStation",
      "outputs": [
        {
          "internalType": "contract TradeStation",
          "name": "",
          "type": "address"
        }
      ],
      "stateMutability": "view",
      "type": "function"
    },
    {
      "inputs": [
        {
          "internalType": "address",
          "name": "newOwner",
          "type": "address"
        }
      ],
      "name": "transferOwnership",
      "outputs": [],
      "stateMutability": "nonpayable",
      "type": "function"
    },
    {
      "inputs": [
        {
          "internalType": "uint256[]",
          "name": "_orderIDs",
          "type": "uint256[]"
        },
        {
          "internalType": "string[]",
          "name": "_symbols",
          "type": "string[]"
        },
        {
          "internalType": "bytes[]",
          "name": "_priceUpdate",
          "type": "bytes[]"
        }
      ],
      "name": "triggerOrders",
      "outputs": [],
      "stateMutability": "payable",
      "type": "function"
    },
    {
      "inputs": [
        {
          "internalType": "address",
          "name": "_token",
          "type": "address"
        },
        {
          "internalType": "address",
          "name": "_taker",
          "type": "address"
        },
        {
          "components": [
            {
              "internalType": "uint256",
              "name": "depositAmount",
              "type": "uint256"
            },
            {
              "internalType": "uint256",
              "name": "availableAmount",
              "type": "uint256"
            },
            {
              "internalType": "uint256",
              "name": "marginAmount",
              "type": "uint256"
            },
            {
              "internalType": "uint256",
              "name": "orderLocked",
              "type": "uint256"
            },
            {
              "internalType": "uint256",
              "name": "lastTime",
              "type": "uint256"
            }
          ],
          "internalType": "struct IPerpetual.AccountInfo",
          "name": "userInfo",
          "type": "tuple"
        }
      ],
      "name": "updateUserAsset",
      "outputs": [],
      "stateMutability": "nonpayable",
      "type": "function"
    },
    {
      "inputs": [
        {
          "internalType": "address",
          "name": "_token",
          "type": "address"
        },
        {
          "internalType": "uint256",
          "name": "_amount",
          "type": "uint256"
        },
        {
          "internalType": "string[]",
          "name": "_symbols",
          "type": "string[]"
        },
        {
          "internalType": "bytes[]",
          "name": "_priceUpdate",
          "type": "bytes[]"
        }
      ],
      "name": "withdraw",
      "outputs": [],
      "stateMutability": "payable",
      "type": "function"
    }
  ],
  "bytecode": "0x608080604052346015576142ab908161001b8239f35b600080fdfe6080604052600436101561001a575b3461001557005b600080fd5b6000803560e01c806305b72e0c14611dd257806305ca57cf14611d6b5780630c41899814611d445780630eed74c014611d14578063273cbaa014611c9f578063273e7638146119cd57806334d57a20146119a65780633851969e14611934578063402d712c146118c257806347e7ef24146116415780634d6849d2146115c3578063566014351461159c5780635671c19a1461153757806359b5e75e1461151057806369a0eeb8146114e9578063702c2b7414611459578063708b8d86146111c3578063715018a61461112a578063776af5ba1461110357806389f00b6d146110e55780638da5cb5b1461109f5780639088f39e14610f2d5780639c59b33a14610e6f578063a70dc3fe14610e48578063b55fb57414610d6c578063b8d771d414610c9b578063ccf1a4b214610bc7578063cd2ce4ae14610aaa578063d3c2d8b71461096e578063e08061b314610947578063e448cc411461085c578063ec4f02b91461069f578063f2fde38b14610672578063f348285b1461064b578063f74c3049146105025763f8c8765e146101b2575061000e565b346104ff5760806003193601126104ff576101cb6121a0565b906101d461218a565b6101dc6121b6565b906101e56121cc565b917ff0c57e16840df040f15088dc2f81fe391c3923bec73e23a9662efc9c229c6a00549460ff8660401c16159567ffffffffffffffff8116801590816104f7575b60011490816104ed575b1590816104e4575b506104bc576001600160a01b0394939192858094838a60017fffffffffffffffffffffffffffffffffffffffffffffffff0000000000000000859716177ff0c57e16840df040f15088dc2f81fe391c3923bec73e23a9662efc9c229c6a0055610467575b506102a561421c565b6102ad61421c565b6102b633613636565b6102be61421c565b6102c661421c565b60017f9b779b17422d0df92223018b32b4d1fa46e071723d6817e2486d003becc55f005516806001600160a01b0319600a541617600a558752600f60205260408720600160ff19825416179055166001600160a01b03196008541617600855166001600160a01b03196007541617600755166001600160a01b03196009541617600955308152600f60205260408120600160ff19825416179055338152600f60205260408120600160ff19825416179055670de0b6b3a7640000815566038d7ea4c6800060015567016345785d8a0000600255506702c68af0bb1400006003557fffffffffffffffffffffff00ffffffffffffffffffffffffffffffffffffffff600e5416600e556103d457005b7fffffffffffffffffffffffffffffffffffffffffffffff00ffffffffffffffff7ff0c57e16840df040f15088dc2f81fe391c3923bec73e23a9662efc9c229c6a0054167ff0c57e16840df040f15088dc2f81fe391c3923bec73e23a9662efc9c229c6a00557fc7f505b2f371ae2175ee4913f4499e1f2633a7b5936321eed1cdaeb6115181d2602060405160018152a1005b7fffffffffffffffffffffffffffffffffffffffffffffff0000000000000000001668010000000000000001177ff0c57e16840df040f15088dc2f81fe391c3923bec73e23a9662efc9c229c6a00553861029c565b6004867ff92ee8a9000000000000000000000000000000000000000000000000000000008152fd5b90501538610238565b303b159150610230565b889150610226565b80fd5b50346104ff5760c06003193601126104ff5761051c6121a0565b61052461218a565b61052c6121b6565b916105356121cc565b608435926001600160a01b0384168094036106475760a435946001600160a01b038616809603610643576001600160a01b03809492818094610575614040565b166001600160a01b0319600654161760065516806001600160a01b0319600b541617600b558752600f60205260408720600160ff1982541617905516806001600160a01b0319600c541617600c558552600f60205260408520600160ff1982541617905516806001600160a01b0319600e541617600e558352600f60205260408320600160ff19825416179055806001600160a01b0319600d541617600d558252600f60205260408220600160ff198254161790558152600f60205260408120600160ff1982541617905580f35b8680fd5b8580fd5b50346104ff57806003193601126104ff5760206001600160a01b0360075416604051908152f35b50346104ff5760206003193601126104ff5761069c61068f6121a0565b610697614040565b613636565b80f35b506101606003193601126104ff578060043567ffffffffffffffff8111610859576106ce903690600401612145565b6106d661218a565b6044359160643590600382101561085557608435916003831015610647576106fc6136f5565b61070b42610144351015612502565b61071d6509184e72a00086061561254d565b61073e61073661072c846137d1565b91908810156125dc565b341015612672565b6001600160a01b03600e541691823b156106435786946001600160a01b03946107a193604051988997889687967f810c8af60000000000000000000000000000000000000000000000000000000088526101606004890152610164880190612484565b9416602486015260448501526107b6816126bd565b60648401526107c4816126bd565b608483015260a43560a483015260c43560c483015260e43560e4830152610104356101048301526101243561012483015233610144830152039134905af1801561084a57610835575b5060017f9b779b17422d0df92223018b32b4d1fa46e071723d6817e2486d003becc55f005580f35b8161083f91612106565b6104ff57803861080d565b6040513d84823e3d90fd5b8480fd5b50fd5b50346104ff5760e06003193601126104ff576108766121a0565b61087e61218a565b9060a07fffffffffffffffffffffffffffffffffffffffffffffffffffffffffffffffbc36011261094357600490604051926108b9846120ea565b6044358452602084016064358152604085019060843582526040606087019360a43585526001600160a01b03608089019660c4358852338b52600f60205261090660ff858d20541661275f565b42885216895260106020528189206001600160a01b0360009216825260205220955186555160018601555160028501555160038401555191015580f35b8280fd5b50346104ff57806003193601126104ff5760206001600160a01b0360085416604051908152f35b50346104ff577fbbd1b090970f0e970b855e7b10fb629b05c0ea0c6e28e9b67a3573a05b947d316101006001600160a01b036109a9366121e2565b9290911691828652601060205260408087206000906001600160a01b03851682526020522091604051926109dc846120ea565b80548452600181015460208501818152610a22610a1a60028501546040890194818652600460038801549760608c01988952015460808b0152612b64565b845190612b64565b865181811115610a785750610a406001600160a01b03918851612b57565b965b519151925193519460405198895216602088015260408701526060860152608085015260a084015260c083015260e0820152a180f35b9080821015610a99576001600160a01b0391610a9391612b57565b96610a42565b50506001600160a01b038a96610a42565b50346104ff57806003193601126104ff57601354610ac78161225f565b90610ad56040519283612106565b808252601383527f66de8ffda797e3de9c05e8fc57b3bf0ec28a930d40b0d285d93c06501cf6a0909280602084015b838310610b255760405160208082528190610b21908201886124a9565b0390f35b604051828754610b3481612dbe565b8084529060018116908115610ba45750600114610b6e575b5060019282610b6085946020940382612106565b815201960192019194610b04565b888552602085208592505b818310610b8e57505081016020016001610b4c565b6001816020925483868801015201920191610b79565b60ff191660208581019190915291151560051b8401909101915060019050610b4c565b50346104ff5760406003193601126104ff57604060a09181610be76121a0565b916001600160a01b03610bf861218a565b938260808551610c07816120ea565b828152826020820152828782015282606082015201521681526010602052206001600160a01b0360009216825260205220604051610c44816120ea565b81549182825260018101546020830190815260028201549060408401918252608060046003850154946060870195865201549401938452604051948552516020850152516040840152516060830152516080820152f35b5060806003193601126104ff5760043567ffffffffffffffff8111610d6857610cc89036906004016123f3565b60243567ffffffffffffffff811161094357610ce89036906004016123f3565b60443567ffffffffffffffff8111610d6457610d089036906004016122d4565b916064359267ffffffffffffffff841161085557610d2d610d3d943690600401612353565b939092610d386136f5565b612e0c565b60017f9b779b17422d0df92223018b32b4d1fa46e071723d6817e2486d003becc55f005580f35b8380fd5b5080fd5b50346104ff5760206003193601126104ff5760043567ffffffffffffffff8111610d6857610d9e903690600401612277565b81805b8251811015610e44576001600160a01b03600c5416610dc08285612df8565b51813b15610d645783916064839260405194859384927fc2b3356400000000000000000000000000000000000000000000000000000000845260048401523360248401528160448401525af1908115610e39578391610e24575b5050600101610da1565b81610e2e91612106565b610d68578138610e1a565b6040513d85823e3d90fd5b5080f35b50346104ff57806003193601126104ff5760206001600160a01b0360095416604051908152f35b50346104ff5760606003193601126104ff57610e896121a0565b610e9161218a565b60443591821515809303610d64576001600160a01b038092338652600f602052610ec160ff60408820541661275f565b166001600160a01b03196008541617600855166001600160a01b031960095416176009557fffffffffffffffffffffff00ffffffffffffffffffffffffffffffffffffffff74ff0000000000000000000000000000000000000000600e549260a01b16911617600e5580f35b506101206003193601126104ff578060043567ffffffffffffffff811161085957610f5c903690600401612145565b610f6461218a565b60a4359190604435906064356084356003861015610643576101043567ffffffffffffffff811161109b57610f9d903690600401612145565b90610fa66136f5565b610fb44260e4351015612502565b80610fc76509184e72a00087061561254d565b34908461107057505050610fdb908561387d565b9286905b6001600160a01b03600e541693843b1561106c5782611036918a986040519a8b998a9889977f1f3085fb000000000000000000000000000000000000000000000000000000008952339560c4359560048b016126dd565b03925af1801561084a57610835575060017f9b779b17422d0df92223018b32b4d1fa46e071723d6817e2486d003becc55f005580f35b8880fd5b61109691935061108f611085899894986137d1565b9050341015612672565b1515612627565b610fdf565b8780fd5b50346104ff57806003193601126104ff5760206001600160a01b037f9016d09d72d40fdae2fd8ceac6b6234c7706214fd39c1cd1e609a0528c1993005416604051908152f35b50346104ff57806003193601126104ff576020600254604051908152f35b50346104ff57806003193601126104ff5760206001600160a01b03600b5416604051908152f35b50346104ff57806003193601126104ff57611143614040565b806001600160a01b037f9016d09d72d40fdae2fd8ceac6b6234c7706214fd39c1cd1e609a0528c199300546001600160a01b031981167f9016d09d72d40fdae2fd8ceac6b6234c7706214fd39c1cd1e609a0528c19930055167f8be0079c531659141344cd1fd0a4f28419497f9722a3daafe3b4186f6b6457e08280a380f35b50346104ff5760406003193601126104ff5760043567ffffffffffffffff8111610d68576111f5903690600401612145565b6111fd61218a565b90338352600f60205261121660ff60408520541661275f565b604051906001600160a01b0381519260208181850195611237818389612461565b81016011815203019020541615611287575b60206001600160a01b039261126992604051938492839251928391612461565b8101601181520301902091166001600160a01b031982541617905580f35b60135468010000000000000000811015611445576001810160135560135481101561143157601385527f66de8ffda797e3de9c05e8fc57b3bf0ec28a930d40b0d285d93c06501cf6a090018461141e57815167ffffffffffffffff8111611408576112f28254612dbe565b601f81116113c0575b506020601f821160011461134c5792602092826001600160a01b03969361126996600091611341575b506000198260011b9260031b1c19161790555b9250925050611249565b905083015138611324565b601f1982169083600052806000209160005b8181106113a85750836112699693602096936001600160a01b0399966001941061138f575b5050811b019055611337565b85015160001960f88460031b161c191690553880611383565b9192602060018192868a01518155019401920161135e565b826000526020600020601f830160051c810191602084106113fe575b601f0160051c01905b8181106113f257506112fb565b600081556001016113e5565b90915081906113dc565b634e487b7160e01b600052604160045260246000fd5b602485634e487b7160e01b815280600452fd5b602485634e487b7160e01b81526032600452fd5b602485634e487b7160e01b81526041600452fd5b50346104ff5760606003193601126104ff576114736121a0565b61147b61218a565b60443567ffffffffffffffff8111610d645760406020946001600160a01b036114a981943690600401612145565b951681526012865220911660005282526114c7604060002082612739565b549081156114d9575b50604051908152f35b6114e391506139b4565b386114d0565b50346104ff57806003193601126104ff5760206001600160a01b03600d5416604051908152f35b50346104ff57806003193601126104ff5760206001600160a01b03600a5416604051908152f35b5060806003193601126104ff5761154c6121a0565b60443567ffffffffffffffff81116109435761156c9036906004016122d4565b6064359167ffffffffffffffff8311610d645761159061069c933690600401612353565b92909160243590612bb9565b50346104ff57806003193601126104ff5760206001600160a01b03600c5416604051908152f35b50346104ff5760206003193601126104ff576001600160a01b036115e56121a0565b168152601460205260408120604051918260208354918281520192825260208220915b81811061162b57610b218561161f81870382612106565b6040519182918261221c565b8254845260209093019260019283019201611608565b50346104ff5760406003193601126104ff5761165b6121a0565b60243590600154821061187e57611692839261168361167a3085613c7c565b91303386613d55565b61168d3084613c7c565b612b57565b906001600160a01b03811691828452601060205260408085206000906001600160a01b0333168252602052206116c833846133e6565b6116d3828254612b64565b8155600181016116e4838254612b64565b9055838552601460205261170b336040872060019160005201602052604060002054151590565b1561185c575b5061171c338361350e565b604051906001825260208201524260408201523090837feb42cf637f927243245c50b4bf7fe105fe4f4d26209102240f2ba3d8e27a7df860603393a4818352600560205260408320541561176e575050f35b6117788392614149565b506001600160a01b03600a5416827fffffffff00000000000000000000000000000000000000000000000000000000601860206040516117b9604082612106565b828152017f617070726f766528616464726573732c75696e7432353629000000000000000081522016916040519060208201938452602482015260001960448201526044815261180a606482612106565b51925af1611816613d25565b81611825575b50156104ff5780f35b805180159250821561183a575b50503861181c565b8192509060209181010312610d685760206118559101612b71565b3880611832565b600442910155828452601460205261187733604086206141c0565b5038611711565b606460405162461bcd60e51b815260206004820152601860248201527f6465706f73697420616d6f756e7420746f6f20736d616c6c00000000000000006044820152fd5b50806118ef6118d036612384565b6118dc949192946136f5565b6001600160a01b03600e54169285613a56565b90803b156108555761103693858094604051968795869485937fbcef60d700000000000000000000000000000000000000000000000000000000855260048501612b1d565b508061196161194236612384565b61194e949192946136f5565b6001600160a01b03600c54169285613a56565b90803b156108555761103693858094604051968795869485937feb4f2e3600000000000000000000000000000000000000000000000000000000855260048501612b1d565b50346104ff57806003193601126104ff5760206001600160a01b03600e5416604051908152f35b50346104ff5760606003193601126104ff576119e76121a0565b9060243567ffffffffffffffff8111610d6857611a08903690600401612145565b604435906001600160a01b036040516020818451611a298183858901612461565b810160118152030190205416611c5b57611a42816139b4565b8215159081611c50575b5015611c0c57826001600160a01b0380600b54169516905b60028110611b1957509081611b159285526012602052604085206001600160a01b0333166000526020527f876c9e1723578de812ea7970374a8505b6086b8f573cea692c1e18c2e1c3dc27611abd604060002084612739565b54604051809184825233602083015260a06040830152611ae060a0830187612484565b9060608301528760808301520390a184526012602052604084206001600160a01b033316600052602052604060002090612739565b5580f35b6040517f3a0204a90000000000000000000000000000000000000000000000000000000081528260048201523360248201526080604482015260808180611b636084820188612484565b85606483015203818a5afa908115611c01578691611bcd575b50611b8957600101611a64565b606460405162461bcd60e51b815260206004820152600b60248201527f65786973742061737365740000000000000000000000000000000000000000006044820152fd5b90506080813d8211611bf9575b81611be760809383612106565b81010312610647576020015138611b7c565b3d9150611bda565b6040513d88823e3d90fd5b606460405162461bcd60e51b815260206004820152601560248201527f6c65766572616765206f7574206f6620312d31303000000000000000000000006044820152fd5b905082111538611a4c565b606460405162461bcd60e51b815260206004820152600a60248201527f77726f6e67206e616d65000000000000000000000000000000000000000000006044820152fd5b50346104ff57806003193601126104ff5760405180916020600454928381520191600482527f8a35acfbc15ff81a39ae7d344fd709f28e8600b4aa8c65c6b64bfe7fe36bd19b915b818110611cfe57610b218561161f81870382612106565b8254845260209093019260019283019201611ce7565b50346104ff5761069c611d26366121e2565b91338552600f602052611d3f60ff60408720541661275f565b6127f3565b50346104ff57806003193601126104ff5760206001600160a01b0360065416604051908152f35b50346104ff5760206003193601126104ff576004359067ffffffffffffffff82116104ff5760206001600160a01b03611dbe82611dab3660048801612145565b8160405193828580945193849201612461565b810160118152030190205416604051908152f35b506101406003193601126104ff5760043567ffffffffffffffff8111610d6857611e00903690600401612145565b81611e0961218a565b60a43592906084359060643560443560038710156106475760c435916001600160a01b038316809303610643576101243567ffffffffffffffff811161109b57611e57903690600401612145565b90611e606136f5565b611e6f42610104351015612502565b878194611e846509184e72a00086061561254d565b6001600160a01b03600d5416801515806120e1575b80612037575b611f97575b505050611ebf3491611eb5896137d1565b92908610156125dc565b87611f8057505050611ed39192508561387d565b9085905b6001600160a01b03600e541693843b1561109b5782611f2e9189986040519b8c998a9889977f87ebfcfa000000000000000000000000000000000000000000000000000000008952339560e4359560048b016126dd565b03925af18015611f7357611f635760017f9b779b17422d0df92223018b32b4d1fa46e071723d6817e2486d003becc55f005580f35b611f6c91612106565b3881610d3d565b50604051903d90823e3d90fd5b611f9292949350610736901515612627565b611ed7565b608460809260405194859384927ff1a78eff0000000000000000000000000000000000000000000000000000000084526001600160a01b038d16600485015260248401523360448401528160648401525af1801561202c57611ffc575b808991611ea4565b61201d9060803d608011612025575b6120158183612106565b8101906125ac565b505050611ff4565b503d61200b565b6040513d8b823e3d90fd5b506040517f147df8870000000000000000000000000000000000000000000000000000000081523360048201529250602083602481845afa80156120d6578b93849161208e575b506001600160a01b031615611e9f565b9350506020833d6020116120ce575b816120aa60209383612106565b810103126120ca576001600160a01b036120c48c94612598565b9061207e565b8a80fd5b3d915061209d565b6040513d8d823e3d90fd5b50811515611e99565b60a0810190811067ffffffffffffffff82111761140857604052565b90601f601f19910116810190811067ffffffffffffffff82111761140857604052565b67ffffffffffffffff811161140857601f01601f191660200190565b81601f820112156100155760208135910161215f82612129565b9261216d6040519485612106565b828452828201116100155781600092602092838601378301015290565b602435906001600160a01b038216820361001557565b600435906001600160a01b038216820361001557565b604435906001600160a01b038216820361001557565b606435906001600160a01b038216820361001557565b6003196060910112610015576004356001600160a01b038116810361001557906024356001600160a01b0381168103610015579060443590565b602060408183019282815284518094520192019060005b8181106122405750505090565b82516001600160a01b0316845260209384019390920191600101612233565b67ffffffffffffffff81116114085760051b60200190565b9080601f8301121561001557813561228e8161225f565b9261229c6040519485612106565b81845260208085019260051b82010192831161001557602001905b8282106122c45750505090565b81358152602091820191016122b7565b9080601f830112156100155781356122eb8161225f565b926122f96040519485612106565b81845260208085019260051b820101918383116100155760208201905b83821061232557505050505090565b813567ffffffffffffffff81116100155760209161234887848094880101612145565b815201910190612316565b9181601f840112156100155782359167ffffffffffffffff8311610015576020808501948460051b01011161001557565b60606003198201126100155760043567ffffffffffffffff811161001557816123af91600401612277565b9160243567ffffffffffffffff811161001557826123cf916004016122d4565b916044359067ffffffffffffffff8211610015576123ef91600401612353565b9091565b9080601f830112156100155781359061240b8261225f565b926124196040519485612106565b82845260208085019360051b82010191821161001557602001915b8183106124415750505090565b82356001600160a01b038116810361001557815260209283019201612434565b60005b8381106124745750506000910152565b8181015183820152602001612464565b90601f19601f6020936124a281518092818752878088019101612461565b0116010190565b9080602083519182815201916020808360051b8301019401926000915b8383106124d557505050505090565b90919293946020806124f383601f1986600196030187528951612484565b970193019301919392906124c6565b1561250957565b606460405162461bcd60e51b815260206004820152600760248201527f65787069726564000000000000000000000000000000000000000000000000006044820152fd5b1561255457565b606460405162461bcd60e51b815260206004820152601660248201527f616d6f756e7420707265636973696f6e206572726f72000000000000000000006044820152fd5b51906001600160a01b038216820361001557565b9190826080910312610015576125c182612598565b9160208101519160606125d660408401612598565b92015190565b156125e357565b606460405162461bcd60e51b815260206004820152601560248201527f6f70656e20616d6f756e7420746f6f20736d616c6c00000000000000000000006044820152fd5b1561262e57565b606460405162461bcd60e51b815260206004820152600d60248201527f7072696365206973207a65726f000000000000000000000000000000000000006044820152fd5b1561267957565b606460405162461bcd60e51b815260206004820152600b60248201527f6c657373207265776172640000000000000000000000000000000000000000006044820152fd5b600311156126c757565b634e487b7160e01b600052602160045260246000fd5b95919998979361010097936001600160a01b036127068198946101208b526101208b0190612484565b9c166020890152604088015260608701526080860152612725816126bd565b60a085015260c08401521660e08201520152565b602090612753928260405194838680955193849201612461565b82019081520301902090565b1561276657565b606460405162461bcd60e51b815260206004820152601e60248201527f63616c6c6572206973206e6f742070657270657475616c206b656570657200006044820152fd5b818102929181159184041417156127bd57565b634e487b7160e01b600052601160045260246000fd5b81156127dd570490565b634e487b7160e01b600052601260045260246000fd5b909291926000908415612ae257600d546001600160a01b0316948280808089612a39575b6128ce98995061283461282c600354876127aa565b8854906127d3565b949182816001600160a01b038416151580612a31575b80612a28575b6129e5575b50505050829080936001600160a01b0384161515806129dc575b806129d3575b612990575b505050506001600160a01b0360095416908290809383151580612987575b8061297e575b61293b575b50505050918260ff600e5460a01c166128d1575b50509181926001600160a01b036008541691613931565b50565b909192506001600160a01b036006541690809282151580612932575b80612929575b612903575b5050509038806128b7565b61292192935050600b60009361291a838289613f27565b8587613ed0565b3880806128f8565b508115156128f3565b508115156128ed565b61296a93945081116000146129735761295682600e92612b57565b935b61296383828a613f27565b8588613ed0565b388080806128a3565b9050600e8593612958565b5080151561289e565b50811515612898565b6129bf93945081116000146129c8576129ab82600c92612b57565b935b6129b883828b613f27565b8689613ed0565b3880808061287a565b9050600c86936129ad565b50801515612875565b5081151561286f565b612a149394508111600014612a1d57612a0082601192612b57565b935b612a0d83828d613f27565b888b613ed0565b38808080612855565b905060118893612a02565b50801515612850565b50600161284a565b50505050608083966084604051809981937ff1a78eff0000000000000000000000000000000000000000000000000000000083526001600160a01b038a1660048401528160248401526001600160a01b03881660448401528660648401525af1958615610e39576128ce95968491859186918791612abf575b5090919291899850612817565b92505050612adc915060803d608011612025576120158183612106565b38612ab2565b5050509050565b906020808351928381520192019060005b818110612b075750505090565b8251845260209384019390920191600101612afa565b91612b4690612b38612b549593606086526060860190612ae9565b9084820360208601526124a9565b916040818403910152612ae9565b90565b919082039182116127bd57565b919082018092116127bd57565b5190811515820361001557565b926001600160a01b03612b54959381612bab941686521660208501526080604085015260808401906124a9565b916060818403910152612ae9565b9391604090612c139294612bdc6000956001600160a01b03600c54169284613a56565b9183518095819482937fd15a1b41000000000000000000000000000000000000000000000000000000008452338c60048601612b7e565b03915afa908115612d8457600090600092612d43575b5015612d3b575b508115612d36576001600160a01b038316928360005260106020526040806000206000906001600160a01b03331682526020522091612c6f33836133e6565b6001830190612c8082549186612b64565b8110612cf25784612ca19185612c9a83612cb59854612b57565b9055612b57565b9055612cae833383613f27565b339061350e565b6040519060028252602082015242604082015233917feb42cf637f927243245c50b4bf7fe105fe4f4d26209102240f2ba3d8e27a7df860603093a4565b606460405162461bcd60e51b815260206004820152601960248201527f776974686472657720616d6f756e7420746f6f206c61726765000000000000006044820152fd5b505050565b905038612c30565b9150506040813d604011612d7c575b81612d5f60409383612106565b81010312610015576020612d7282612b71565b9101519038612c29565b3d9150612d52565b6040513d6000823e3d90fd5b8054821015612da85760005260206000200190600090565b634e487b7160e01b600052603260045260246000fd5b90600182811c92168015612dee575b6020831014612dd857565b634e487b7160e01b600052602260045260246000fd5b91607f1691612dcd565b8051821015612da85760209160051b010190565b93612e1991959383613a56565b9160005b84518110156133de5760005b86518110156133d5576001600160a01b03612e448388612df8565b51166001600160a01b03612e58838a612df8565b5116816000526010602052612e866040806000206000906001600160a01b03851682526020522054836140a1565b80156133c957612e9682846133e6565b612ee06080896001600160a01b03600c54168a6040518095819482937fd719606a0000000000000000000000000000000000000000000000000000000084528a8c60048601612b7e565b03915afa908115612d8457600091613390575b50613003575b50610100827fbbd1b090970f0e970b855e7b10fb629b05c0ea0c6e28e9b67a3573a05b947d31926001959460005260106020526040806000206000906001600160a01b0384168252602052209060405191612f53836120ea565b805483528781015460208401818152612f90610a1a60028501546040880194818652600460038801549760608b01988952015460808a0152612b64565b855181811115612fe25750612fa6908651612b57565b945b5190519151925193604051968752602087015260408601526060850152608084015260a0830152600b60c083015260e0820152a101612e29565b81811015612ff957612ff391612b57565b94612fa8565b5050600094612fa8565b6001600160a01b03600754169061301a8285613c7c565b604051927fdd62ed3e0000000000000000000000000000000000000000000000000000000084526004840152306024840152602083604481885afa8015612d84578993600091613356575b5061307661308d91600054906127aa565b613087613082886140bc565b613c6e565b906127d3565b80821161334e575b5060208a6001600160a01b03600e5416866000896131196130b6888a612b64565b956131076040519b8c98899788967fc59b4d7800000000000000000000000000000000000000000000000000000000885260048801526024870152604486015260a0606486015260a48501906124a9565b90600319848303016084850152612ae9565b03925af1928315612d84576000936132fb575b50928285928260019897877fbbd1b090970f0e970b855e7b10fb629b05c0ea0c6e28e9b67a3573a05b947d319861010098146000146131c35750505061317f91506001600160a01b03600a541684613f27565b81600052601060205260006004604080832083906001600160a01b038616825260205220828155828982015582600282015582600382015501559250929350612ef9565b9091928185116000146132675761324e7feb42cf637f927243245c50b4bf7fe105fe4f4d26209102240f2ba3d8e27a7df89261323c60609361321b6001600160a01b0360075416613214858c612b57565b9089613f27565b6132358961168d856001600160a01b03600a541694612b64565b9087613f27565b6001600160a01b036007541696612b57565b60405190600882526020820152426040820152a461317f565b6132e27feb42cf637f927243245c50b4bf7fe105fe4f4d26209102240f2ba3d8e27a7df89294956132d06060936132b66001600160a01b03600754166132ad858b612b57565b9030908a613d55565b6132358361168d8a6001600160a01b03600a541694612b64565b6001600160a01b036007541695612b57565b60405190600982526020820152426040820152a461317f565b90926020823d8211613346575b8161331560209383612106565b810103126104ff575051917fbbd1b090970f0e970b855e7b10fb629b05c0ea0c6e28e9b67a3573a05b947d3161312c565b3d9150613308565b905038613095565b919293506020823d8211613388575b8161337260209383612106565b810103126104ff57505188929190613076613065565b3d9150613365565b906080823d82116133c1575b816133a960809383612106565b810103126104ff57506133bb90612b71565b38612ef3565b3d915061339c565b50505050509350505050565b50600101612e1d565b509350505050565b7fbbd1b090970f0e970b855e7b10fb629b05c0ea0c6e28e9b67a3573a05b947d31916001600160a01b036101009216908160005260106020526040806000206000906001600160a01b0384168252602052209060405191613446836120ea565b80548352600181015460208401818152613484610a1a60028501546040880194818652600460038801549760608b01988952015460808a0152612b64565b8551818111156134db57506134a26001600160a01b03918751612b57565b955b519151925193519460405197885216602087015260408601526060850152608084015260a0830152600060c083015260e0820152a1565b90808210156134fc576001600160a01b03916134f691612b57565b956134a4565b50506001600160a01b036000956134a4565b7fbbd1b090970f0e970b855e7b10fb629b05c0ea0c6e28e9b67a3573a05b947d31916001600160a01b036101009216908160005260106020526040806000206000906001600160a01b038416825260205220906040519161356e836120ea565b805483526001810154602084018181526135ac610a1a60028501546040880194818652600460038801549760608b01988952015460808a0152612b64565b85518181111561360357506135ca6001600160a01b03918751612b57565b955b519151925193519460405197885216602087015260408601526060850152608084015260a0830152600a60c083015260e0820152a1565b9080821015613624576001600160a01b039161361e91612b57565b956135cc565b50506001600160a01b036000956135cc565b6001600160a01b031680156136c6576001600160a01b037f9016d09d72d40fdae2fd8ceac6b6234c7706214fd39c1cd1e609a0528c19930054826001600160a01b03198216177f9016d09d72d40fdae2fd8ceac6b6234c7706214fd39c1cd1e609a0528c19930055167f8be0079c531659141344cd1fd0a4f28419497f9722a3daafe3b4186f6b6457e0600080a3565b7f1e4fbdf700000000000000000000000000000000000000000000000000000000600052600060045260246000fd5b60027f9b779b17422d0df92223018b32b4d1fa46e071723d6817e2486d003becc55f0054146137445760027f9b779b17422d0df92223018b32b4d1fa46e071723d6817e2486d003becc55f0055565b7f3ee5aeb50000000000000000000000000000000000000000000000000000000060005260046000fd5b908160c0910312610015576040519060c082019082821067ffffffffffffffff8311176114085760a0916040528051835260208101516020840152604081015160408401526060810151606084015260808101516080840152015160a082015290565b9060c06001600160a01b036137f760206004958160405193828580945193849201612461565b810160118152030190205416604051938480927f639122c90000000000000000000000000000000000000000000000000000000082525afa918215612d845760009261384c575b506020604083015192015190565b61386f91925060c03d60c011613876575b6138678183612106565b81019061376e565b903861383e565b503d61385d565b6138ea916001600160a01b036138a3602080948160405193828580945193849201612461565b81016011815203019020541660405180809581947f1af189a40000000000000000000000000000000000000000000000000000000083528660048401526024830190612484565b039134905af1908115612d8457600091613902575090565b90506020813d602011613929575b8161391d60209383612106565b81010312610015575190565b3d9150613910565b92939091846001600160a01b0382161515806139ab575b806139a2575b61395b575b505050505090565b61398b949550828111600014613995579261397983600d9495612b57565b955b613986858483613f27565b613ed0565b3880808080613953565b600d92509260009561397b565b5082151561394e565b50801515613948565b6139d560206001600160a01b03928160405193828580945193849201612461565b60119082019081520301902054168015613a505760c0600491604051928380927f639122c90000000000000000000000000000000000000000000000000000000082525afa8015612d8457606091600091613a31575b50015190565b613a4a915060c03d60c011613876576138678183612106565b38613a2b565b50606490565b9092919283825103613c2a57613a6d8251346127d3565b90825180156127dd57340693613a828661225f565b93613a906040519586612106565b868552601f19613a9f8861225f565b01366020870137849560005b825180821015613c1e5760001981019081116127bd578114613c0d575b6001600160a01b03613af36020613adf8487612df8565b518160405193828580945193849201612461565b81016011815203019020541689821015612da8578160051b8601357fffffffffffffffffffffffffffffffffffffffffffffffffffffffffffffffe18736030181121561001557860180359067ffffffffffffffff82116100155760200190803603821361001557601f92818a6044602095601f19604051988997889687947f1af189a40000000000000000000000000000000000000000000000000000000086528b6004870152816024870152868601376000858286010152011681010301925af1908115612d8457600091613bdb575b5090600191613bd4828a612df8565b5201613aab565b906020823d8211613c05575b81613bf460209383612106565b810103126104ff5750516001613bc5565b3d9150613be7565b9481613c1891612b64565b94613ac8565b50505050939450505050565b606460405162461bcd60e51b815260206004820152602060248201527f496e636f6e73697374656e74207072696365206172726179206c656e677468736044820152fd5b604d81116127bd57600a0a90565b6001600160a01b03604051927f70a082310000000000000000000000000000000000000000000000000000000084521660048301526020826024816001600160a01b0385165afa918215612d8457600092613cef575b50613087613082613ce9612b5494600054906127aa565b926140bc565b91506020823d602011613d1d575b81613d0a60209383612106565b8101031261001557905190613087613cd2565b3d9150613cfd565b3d15613d50573d90613d3682612129565b91613d446040519384612106565b82523d6000602084013e565b606090565b909192613d71613d7a91613d6b613082856140bc565b906127aa565b600054906127d3565b9283151580613ebe575b80613eac575b613d95575b50505050565b600080949381946001600160a01b037fffffffff000000000000000000000000000000000000000000000000000000006025604051613dd5606082612106565b8181527f7432353629000000000000000000000000000000000000000000000000000000604060208301927f7472616e7366657246726f6d28616464726573732c616464726573732c75696e84520152201694816040519460208601978852166024850152166044830152606482015260648152613e54608482612106565b51925af1613e60613d25565b81613e75575b50156100155738808080613d8f565b8051801592508215613e8a575b505038613e66565b8192509060209181010312610015576020613ea59101612b71565b3880613e82565b506001600160a01b0381161515613d8a565b506001600160a01b0383161515613d84565b929390936040519260138210156126c7576001600160a01b038080927feb42cf637f927243245c50b4bf7fe105fe4f4d26209102240f2ba3d8e27a7df89560609588526020880152426040880152169616941692a4565b91613d71613f3b91613d6b613082866140bc565b918215158061402e575b613f4e57505050565b6000928380936040926001600160a01b037fffffffff00000000000000000000000000000000000000000000000000000000601960208751613f908982612106565b828152017f7472616e7366657228616464726573732c75696e7432353629000000000000008152201694519260208401958652166024830152604482015260448152613fdd606482612106565b51925af1613fe9613d25565b81613ff7575b501561001557565b805180159250821561400c575b505038613fef565b81925090602091810103126100155760206140279101612b71565b3880614004565b506001600160a01b0382161515613f45565b6001600160a01b037f9016d09d72d40fdae2fd8ceac6b6234c7706214fd39c1cd1e609a0528c1993005416330361407357565b7f118cdaa7000000000000000000000000000000000000000000000000000000006000523360045260246000fd5b6140ac903090613c7c565b8082116140b7575090565b905090565b60206001600160a01b03916004604051809481937f313ce567000000000000000000000000000000000000000000000000000000008352165afa908115612d845760009161410c575b5060ff1690565b6020813d602011614141575b8161412560209383612106565b81010312610d6857519060ff821682036104ff575060ff614105565b3d9150614118565b806000526005602052604060002054156000146141ba5760045468010000000000000000811015611408576141a161418a8260018594016004556004612d90565b81939154906000199060031b92831b921b19161790565b9055600454906000526005602052604060002055600190565b50600090565b6000828152600182016020526040902054614215578054906801000000000000000082101561140857826141fe61418a846001809601855584612d90565b905580549260005201602052604060002055600190565b5050600090565b60ff7ff0c57e16840df040f15088dc2f81fe391c3923bec73e23a9662efc9c229c6a005460401c161561424b57565b7fd7e6bcf80000000000000000000000000000000000000000000000000000000060005260046000fdfea26469706673582212209dfa0ba0b100f39d12c87ff1bcb724fe719c4867a39895e6948397e38ad90f8464736f6c634300081c0033",
  "linkReferences": {},
  "deployedLinkReferences": {}
}