{
  "_format": "hh-sol-artifact-1",
  "contractName": "Perpetual",
  "sourceName": "contracts/Perpetual.sol",
  "abi": [
    {
      "inputs": [],
      "name": "InvalidInitialization",
      "type": "error"
    },
    {
      "inputs": [],
      "name": "NotInitializing",
      "type": "error"
    },
    {
      "inputs": [
        {
          "internalType": "address",
          "name": "owner",
          "type": "address"
        }
      ],
      "name": "OwnableInvalidOwner",
      "type": "error"
    },
    {
      "inputs": [
        {
          "internalType": "address",
          "name": "account",
          "type": "address"
        }
      ],
      "name": "OwnableUnauthorizedAccount",
      "type": "error"
    },
    {
      "inputs": [],
      "name": "ReentrancyGuardReentrantCall",
      "type": "error"
    },
    {
      "anonymous": false,
      "inputs": [
        {
          "indexed": false,
          "internalType": "address",
          "name": "token",
          "type": "address"
        },
        {
          "indexed": false,
          "internalType": "address",
          "name": "holder",
          "type": "address"
        },
        {
          "indexed": false,
          "internalType": "string",
          "name": "name",
          "type": "string"
        },
        {
          "indexed": false,
          "internalType": "enum ICommon.Direct",
          "name": "direct",
          "type": "uint8"
        },
        {
          "indexed": false,
          "internalType": "uint256",
          "name": "value",
          "type": "uint256"
        },
        {
          "indexed": false,
          "internalType": "uint256",
          "name": "size",
          "type": "uint256"
        },
        {
          "indexed": false,
          "internalType": "uint256",
          "name": "margin",
          "type": "uint256"
        },
        {
          "indexed": false,
          "internalType": "uint256",
          "name": "freeze",
          "type": "uint256"
        }
      ],
      "name": "AccountPosition",
      "type": "event"
    },
    {
      "anonymous": false,
      "inputs": [
        {
          "indexed": false,
          "internalType": "address",
          "name": "token",
          "type": "address"
        },
        {
          "indexed": false,
          "internalType": "address",
          "name": "taker",
          "type": "address"
        },
        {
          "indexed": false,
          "internalType": "uint256",
          "name": "amount",
          "type": "uint256"
        },
        {
          "indexed": false,
          "internalType": "uint256",
          "name": "availableAmount",
          "type": "uint256"
        },
        {
          "indexed": false,
          "internalType": "uint256",
          "name": "marginAmount",
          "type": "uint256"
        },
        {
          "indexed": false,
          "internalType": "uint256",
          "name": "locked",
          "type": "uint256"
        },
        {
          "indexed": false,
          "internalType": "uint256",
          "name": "stage",
          "type": "uint256"
        },
        {
          "indexed": false,
          "internalType": "uint256",
          "name": "dif",
          "type": "uint256"
        }
      ],
      "name": "BalanceOfTaker",
      "type": "event"
    },
    {
      "anonymous": false,
      "inputs": [
        {
          "indexed": false,
          "internalType": "string",
          "name": "name",
          "type": "string"
        },
        {
          "indexed": true,
          "internalType": "address",
          "name": "taker",
          "type": "address"
        },
        {
          "indexed": true,
          "internalType": "address",
          "name": "token",
          "type": "address"
        },
        {
          "indexed": false,
          "internalType": "uint256",
          "name": "orderID",
          "type": "uint256"
        },
        {
          "indexed": false,
          "internalType": "enum ICommon.Direct",
          "name": "direct",
          "type": "uint8"
        },
        {
          "indexed": false,
          "internalType": "enum IPerpetual.OrderState",
          "name": "state",
          "type": "uint8"
        },
        {
          "indexed": false,
          "internalType": "enum ICommon.Offset",
          "name": "offset",
          "type": "uint8"
        },
        {
          "indexed": false,
          "internalType": "uint256",
          "name": "amount",
          "type": "uint256"
        },
        {
          "indexed": false,
          "internalType": "uint256",
          "name": "targetPrice",
          "type": "uint256"
        },
        {
          "indexed": false,
          "internalType": "uint256",
          "name": "margin",
          "type": "uint256"
        },
        {
          "indexed": false,
          "internalType": "uint256",
          "name": "rewardGas",
          "type": "uint256"
        },
        {
          "indexed": false,
          "internalType": "uint256",
          "name": "tradingFee",
          "type": "uint256"
        },
        {
          "indexed": false,
          "internalType": "uint256",
          "name": "startTime",
          "type": "uint256"
        },
        {
          "indexed": false,
          "internalType": "uint256",
          "name": "orderType",
          "type": "uint256"
        }
      ],
      "name": "CreateLimitedOrder",
      "type": "event"
    },
    {
      "anonymous": false,
      "inputs": [
        {
          "indexed": false,
          "internalType": "uint256",
          "name": "limitOrderID",
          "type": "uint256"
        },
        {
          "indexed": false,
          "internalType": "uint256",
          "name": "openLimitPrice",
          "type": "uint256"
        },
        {
          "indexed": false,
          "internalType": "uint256",
          "name": "gainTriggerPrice",
          "type": "uint256"
        },
        {
          "indexed": false,
          "internalType": "uint256",
          "name": "gainLimitPrice",
          "type": "uint256"
        },
        {
          "indexed": false,
          "internalType": "uint256",
          "name": "lossTriggerPrice",
          "type": "uint256"
        },
        {
          "indexed": false,
          "internalType": "uint256",
          "name": "lossLimitPrice",
          "type": "uint256"
        }
      ],
      "name": "CreateTriggerCondition",
      "type": "event"
    },
    {
      "anonymous": false,
      "inputs": [
        {
          "indexed": false,
          "internalType": "uint256",
          "name": "code",
          "type": "uint256"
        },
        {
          "indexed": false,
          "internalType": "uint256",
          "name": "orderID",
          "type": "uint256"
        },
        {
          "indexed": false,
          "internalType": "string",
          "name": "message",
          "type": "string"
        }
      ],
      "name": "ErrorInfo",
      "type": "event"
    },
    {
      "anonymous": false,
      "inputs": [
        {
          "indexed": false,
          "internalType": "uint256",
          "name": "code",
          "type": "uint256"
        },
        {
          "indexed": false,
          "internalType": "uint256",
          "name": "orderID",
          "type": "uint256"
        },
        {
          "indexed": false,
          "internalType": "bytes",
          "name": "message",
          "type": "bytes"
        }
      ],
      "name": "ExceptErrorInfo",
      "type": "event"
    },
    {
      "anonymous": false,
      "inputs": [
        {
          "indexed": false,
          "internalType": "uint64",
          "name": "version",
          "type": "uint64"
        }
      ],
      "name": "Initialized",
      "type": "event"
    },
    {
      "anonymous": false,
      "inputs": [
        {
          "indexed": false,
          "internalType": "string",
          "name": "name",
          "type": "string"
        },
        {
          "indexed": true,
          "internalType": "address",
          "name": "taker",
          "type": "address"
        },
        {
          "indexed": true,
          "internalType": "address",
          "name": "token",
          "type": "address"
        },
        {
          "indexed": false,
          "internalType": "uint256",
          "name": "orderID",
          "type": "uint256"
        },
        {
          "indexed": false,
          "internalType": "enum ICommon.Direct",
          "name": "direct",
          "type": "uint8"
        },
        {
          "indexed": false,
          "internalType": "enum IPerpetual.OrderState",
          "name": "state",
          "type": "uint8"
        },
        {
          "indexed": false,
          "internalType": "enum ICommon.Offset",
          "name": "offset",
          "type": "uint8"
        },
        {
          "indexed": false,
          "internalType": "uint256",
          "name": "amount",
          "type": "uint256"
        },
        {
          "indexed": false,
          "internalType": "uint256",
          "name": "targetPrice",
          "type": "uint256"
        },
        {
          "indexed": false,
          "internalType": "uint256",
          "name": "margin",
          "type": "uint256"
        },
        {
          "indexed": false,
          "internalType": "uint256",
          "name": "rewardGas",
          "type": "uint256"
        },
        {
          "indexed": false,
          "internalType": "uint256",
          "name": "tradingFee",
          "type": "uint256"
        },
        {
          "indexed": false,
          "internalType": "uint256",
          "name": "startTime",
          "type": "uint256"
        },
        {
          "indexed": false,
          "internalType": "uint256",
          "name": "orderType",
          "type": "uint256"
        }
      ],
      "name": "LimitedOrderHistory",
      "type": "event"
    },
    {
      "anonymous": false,
      "inputs": [
        {
          "indexed": false,
          "internalType": "address",
          "name": "token",
          "type": "address"
        },
        {
          "indexed": false,
          "internalType": "address",
          "name": "taker",
          "type": "address"
        }
      ],
      "name": "LiquidateTaker",
      "type": "event"
    },
    {
      "anonymous": false,
      "inputs": [
        {
          "indexed": true,
          "internalType": "address",
          "name": "taker",
          "type": "address"
        },
        {
          "indexed": false,
          "internalType": "string",
          "name": "name",
          "type": "string"
        },
        {
          "indexed": false,
          "internalType": "address",
          "name": "token",
          "type": "address"
        },
        {
          "indexed": false,
          "internalType": "uint256",
          "name": "orderID",
          "type": "uint256"
        },
        {
          "indexed": false,
          "internalType": "enum ICommon.Direct",
          "name": "direction",
          "type": "uint8"
        },
        {
          "indexed": false,
          "internalType": "enum IPerpetual.OrderType",
          "name": "orderType",
          "type": "uint8"
        },
        {
          "indexed": false,
          "internalType": "uint256",
          "name": "amount",
          "type": "uint256"
        },
        {
          "indexed": false,
          "internalType": "uint256",
          "name": "costPrice",
          "type": "uint256"
        },
        {
          "indexed": false,
          "internalType": "uint256",
          "name": "price",
          "type": "uint256"
        },
        {
          "indexed": false,
          "internalType": "uint256",
          "name": "tradingFee",
          "type": "uint256"
        },
        {
          "indexed": false,
          "internalType": "uint256",
          "name": "leverage",
          "type": "uint256"
        },
        {
          "indexed": false,
          "internalType": "uint256",
          "name": "marginAmount",
          "type": "uint256"
        },
        {
          "indexed": false,
          "internalType": "uint256",
          "name": "limitOrderId",
          "type": "uint256"
        },
        {
          "indexed": false,
          "internalType": "uint256",
          "name": "timestamp",
          "type": "uint256"
        }
      ],
      "name": "OrderHistory",
      "type": "event"
    },
    {
      "anonymous": false,
      "inputs": [
        {
          "indexed": true,
          "internalType": "address",
          "name": "previousOwner",
          "type": "address"
        },
        {
          "indexed": true,
          "internalType": "address",
          "name": "newOwner",
          "type": "address"
        }
      ],
      "name": "OwnershipTransferred",
      "type": "event"
    },
    {
      "anonymous": false,
      "inputs": [
        {
          "indexed": false,
          "internalType": "address",
          "name": "token",
          "type": "address"
        },
        {
          "indexed": false,
          "internalType": "uint256",
          "name": "orderID",
          "type": "uint256"
        },
        {
          "indexed": false,
          "internalType": "uint256",
          "name": "dealID",
          "type": "uint256"
        },
        {
          "indexed": false,
          "internalType": "enum IPerpetual.TradeType",
          "name": "tradeType",
          "type": "uint8"
        },
        {
          "indexed": false,
          "internalType": "uint256",
          "name": "amount",
          "type": "uint256"
        },
        {
          "indexed": false,
          "internalType": "uint256",
          "name": "price",
          "type": "uint256"
        },
        {
          "indexed": false,
          "internalType": "uint256",
          "name": "tradingFee",
          "type": "uint256"
        },
        {
          "indexed": false,
          "internalType": "uint256",
          "name": "leverage",
          "type": "uint256"
        },
        {
          "indexed": false,
          "internalType": "uint256",
          "name": "marginAmount",
          "type": "uint256"
        },
        {
          "indexed": false,
          "internalType": "uint256",
          "name": "profit",
          "type": "uint256"
        },
        {
          "indexed": false,
          "internalType": "uint256",
          "name": "loss",
          "type": "uint256"
        },
        {
          "indexed": false,
          "internalType": "uint256",
          "name": "timestamp",
          "type": "uint256"
        }
      ],
      "name": "TradeHistory",
      "type": "event"
    },
    {
      "anonymous": false,
      "inputs": [
        {
          "indexed": true,
          "internalType": "address",
          "name": "token",
          "type": "address"
        },
        {
          "indexed": true,
          "internalType": "address",
          "name": "sender",
          "type": "address"
        },
        {
          "indexed": true,
          "internalType": "address",
          "name": "received",
          "type": "address"
        },
        {
          "indexed": false,
          "internalType": "enum ICommon.TransactionType",
          "name": "transactionType",
          "type": "uint8"
        },
        {
          "indexed": false,
          "internalType": "uint256",
          "name": "amount",
          "type": "uint256"
        },
        {
          "indexed": false,
          "internalType": "uint256",
          "name": "timestamp",
          "type": "uint256"
        }
      ],
      "name": "TransactionHistory",
      "type": "event"
    },
    {
      "anonymous": false,
      "inputs": [
        {
          "indexed": false,
          "internalType": "address",
          "name": "token",
          "type": "address"
        },
        {
          "indexed": false,
          "internalType": "address",
          "name": "sender",
          "type": "address"
        },
        {
          "indexed": false,
          "internalType": "string",
          "name": "name",
          "type": "string"
        },
        {
          "indexed": false,
          "internalType": "uint256",
          "name": "beforeLeverage",
          "type": "uint256"
        },
        {
          "indexed": false,
          "internalType": "uint256",
          "name": "afterLeverage",
          "type": "uint256"
        }
      ],
      "name": "setLeverage",
      "type": "event"
    },
    {
      "stateMutability": "nonpayable",
      "type": "fallback"
    },
    {
      "inputs": [],
      "name": "buybackAddr",
      "outputs": [
        {
          "internalType": "address",
          "name": "",
          "type": "address"
        }
      ],
      "stateMutability": "view",
      "type": "function"
    },
    {
      "inputs": [
        {
          "internalType": "uint256[]",
          "name": "_orderIDs",
          "type": "uint256[]"
        }
      ],
      "name": "cancelOrders",
      "outputs": [],
      "stateMutability": "nonpayable",
      "type": "function"
    },
    {
      "inputs": [
        {
          "internalType": "address",
          "name": "_token",
          "type": "address"
        },
        {
          "internalType": "uint256",
          "name": "_amount",
          "type": "uint256"
        }
      ],
      "name": "deposit",
      "outputs": [],
      "stateMutability": "nonpayable",
      "type": "function"
    },
    {
      "inputs": [
        {
          "internalType": "address",
          "name": "_token",
          "type": "address"
        },
        {
          "internalType": "address",
          "name": "_taker",
          "type": "address"
        },
        {
          "internalType": "uint256",
          "name": "_stage",
          "type": "uint256"
        }
      ],
      "name": "emitTakerBalance",
      "outputs": [],
      "stateMutability": "nonpayable",
      "type": "function"
    },
    {
      "inputs": [],
      "name": "getTokenList",
      "outputs": [
        {
          "internalType": "address[]",
          "name": "",
          "type": "address[]"
        }
      ],
      "stateMutability": "view",
      "type": "function"
    },
    {
      "inputs": [],
      "name": "getTradingPairs",
      "outputs": [
        {
          "internalType": "string[]",
          "name": "",
          "type": "string[]"
        }
      ],
      "stateMutability": "view",
      "type": "function"
    },
    {
      "inputs": [
        {
          "internalType": "string",
          "name": "_name",
          "type": "string"
        }
      ],
      "name": "getUnderlying",
      "outputs": [
        {
          "internalType": "contract Underlying",
          "name": "",
          "type": "address"
        }
      ],
      "stateMutability": "view",
      "type": "function"
    },
    {
      "inputs": [
        {
          "internalType": "address",
          "name": "_token",
          "type": "address"
        },
        {
          "internalType": "address",
          "name": "_taker",
          "type": "address"
        }
      ],
      "name": "getUserAccount",
      "outputs": [
        {
          "components": [
            {
              "internalType": "uint256",
              "name": "depositAmount",
              "type": "uint256"
            },
            {
              "internalType": "uint256",
              "name": "availableAmount",
              "type": "uint256"
            },
            {
              "internalType": "uint256",
              "name": "marginAmount",
              "type": "uint256"
            },
            {
              "internalType": "uint256",
              "name": "orderLocked",
              "type": "uint256"
            },
            {
              "internalType": "uint256",
              "name": "lastTime",
              "type": "uint256"
            }
          ],
          "internalType": "struct IPerpetual.AccountInfo",
          "name": "user",
          "type": "tuple"
        }
      ],
      "stateMutability": "view",
      "type": "function"
    },
    {
      "inputs": [
        {
          "internalType": "address",
          "name": "_token",
          "type": "address"
        }
      ],
      "name": "getUserAddress",
      "outputs": [
        {
          "internalType": "address[]",
          "name": "",
          "type": "address[]"
        }
      ],
      "stateMutability": "view",
      "type": "function"
    },
    {
      "inputs": [
        {
          "internalType": "address",
          "name": "_token",
          "type": "address"
        },
        {
          "internalType": "address",
          "name": "_user",
          "type": "address"
        },
        {
          "internalType": "string",
          "name": "_name",
          "type": "string"
        }
      ],
      "name": "getUserLeverage",
      "outputs": [
        {
          "internalType": "uint256",
          "name": "",
          "type": "uint256"
        }
      ],
      "stateMutability": "view",
      "type": "function"
    },
    {
      "inputs": [
        {
          "internalType": "address",
          "name": "_priPool",
          "type": "address"
        },
        {
          "internalType": "address",
          "name": "_riskFundAddr",
          "type": "address"
        },
        {
          "internalType": "address",
          "name": "_tradeFeeAddr",
          "type": "address"
        },
        {
          "internalType": "address",
          "name": "_platformTradeFeeAddr",
          "type": "address"
        }
      ],
      "name": "initialize",
      "outputs": [],
      "stateMutability": "nonpayable",
      "type": "function"
    },
    {
      "inputs": [
        {
          "internalType": "uint256[]",
          "name": "_dealIDs",
          "type": "uint256[]"
        },
        {
          "internalType": "string[]",
          "name": "_symbols",
          "type": "string[]"
        },
        {
          "internalType": "bytes[]",
          "name": "_priceUpdate",
          "type": "bytes[]"
        }
      ],
      "name": "liquidateMakerDeals",
      "outputs": [],
      "stateMutability": "payable",
      "type": "function"
    },
    {
      "inputs": [
        {
          "internalType": "address[]",
          "name": "_token",
          "type": "address[]"
        },
        {
          "internalType": "address[]",
          "name": "_taker",
          "type": "address[]"
        },
        {
          "internalType": "string[]",
          "name": "_symbols",
          "type": "string[]"
        },
        {
          "internalType": "bytes[]",
          "name": "_priceUpdate",
          "type": "bytes[]"
        }
      ],
      "name": "liquidateTaker",
      "outputs": [],
      "stateMutability": "payable",
      "type": "function"
    },
    {
      "inputs": [],
      "name": "maintenanceMarginRate",
      "outputs": [
        {
          "internalType": "uint256",
          "name": "",
          "type": "uint256"
        }
      ],
      "stateMutability": "view",
      "type": "function"
    },
    {
      "inputs": [],
      "name": "marketAgent",
      "outputs": [
        {
          "internalType": "contract MarketAgent",
          "name": "",
          "type": "address"
        }
      ],
      "stateMutability": "view",
      "type": "function"
    },
    {
      "inputs": [
        {
          "internalType": "string",
          "name": "_name",
          "type": "string"
        },
        {
          "internalType": "address",
          "name": "_token",
          "type": "address"
        },
        {
          "internalType": "uint256",
          "name": "_amount",
          "type": "uint256"
        },
        {
          "internalType": "enum ICommon.Offset",
          "name": "_offset",
          "type": "uint8"
        },
        {
          "internalType": "enum ICommon.Direct",
          "name": "_direct",
          "type": "uint8"
        },
        {
          "internalType": "uint256",
          "name": "_param1",
          "type": "uint256"
        },
        {
          "internalType": "uint256",
          "name": "_param2",
          "type": "uint256"
        },
        {
          "internalType": "uint256",
          "name": "_param3",
          "type": "uint256"
        },
        {
          "internalType": "uint256",
          "name": "_param4",
          "type": "uint256"
        },
        {
          "internalType": "uint256",
          "name": "_deadline",
          "type": "uint256"
        }
      ],
      "name": "ocoTrade",
      "outputs": [],
      "stateMutability": "payable",
      "type": "function"
    },
    {
      "inputs": [],
      "name": "orderBook",
      "outputs": [
        {
          "internalType": "contract OrderBook",
          "name": "",
          "type": "address"
        }
      ],
      "stateMutability": "view",
      "type": "function"
    },
    {
      "inputs": [],
      "name": "owner",
      "outputs": [
        {
          "internalType": "address",
          "name": "",
          "type": "address"
        }
      ],
      "stateMutability": "view",
      "type": "function"
    },
    {
      "inputs": [],
      "name": "platformTradeFeeAddr",
      "outputs": [
        {
          "internalType": "address",
          "name": "",
          "type": "address"
        }
      ],
      "stateMutability": "view",
      "type": "function"
    },
    {
      "inputs": [],
      "name": "privatePool",
      "outputs": [
        {
          "internalType": "address",
          "name": "",
          "type": "address"
        }
      ],
      "stateMutability": "view",
      "type": "function"
    },
    {
      "inputs": [],
      "name": "renounceOwnership",
      "outputs": [],
      "stateMutability": "nonpayable",
      "type": "function"
    },
    {
      "inputs": [],
      "name": "riskFundAddr",
      "outputs": [
        {
          "internalType": "address",
          "name": "",
          "type": "address"
        }
      ],
      "stateMutability": "view",
      "type": "function"
    },
    {
      "inputs": [
        {
          "internalType": "address",
          "name": "_buyBack",
          "type": "address"
        },
        {
          "internalType": "address",
          "name": "_orderBook",
          "type": "address"
        },
        {
          "internalType": "address",
          "name": "_tradeAgent",
          "type": "address"
        },
        {
          "internalType": "address",
          "name": "_tradeStation",
          "type": "address"
        },
        {
          "internalType": "address",
          "name": "_marketAgent",
          "type": "address"
        },
        {
          "internalType": "address",
          "name": "_keeper",
          "type": "address"
        }
      ],
      "name": "setKeepers",
      "outputs": [],
      "stateMutability": "nonpayable",
      "type": "function"
    },
    {
      "inputs": [
        {
          "internalType": "address",
          "name": "_platform",
          "type": "address"
        },
        {
          "internalType": "address",
          "name": "_tradeFee",
          "type": "address"
        },
        {
          "internalType": "bool",
          "name": "_mergeRemainingFeeToBuyBack",
          "type": "bool"
        }
      ],
      "name": "setTradeFeeAddr",
      "outputs": [],
      "stateMutability": "nonpayable",
      "type": "function"
    },
    {
      "inputs": [
        {
          "internalType": "string",
          "name": "_name",
          "type": "string"
        },
        {
          "internalType": "address",
          "name": "_underlying",
          "type": "address"
        }
      ],
      "name": "setUnderlying",
      "outputs": [],
      "stateMutability": "nonpayable",
      "type": "function"
    },
    {
      "inputs": [
        {
          "internalType": "address",
          "name": "_token",
          "type": "address"
        },
        {
          "internalType": "string",
          "name": "_name",
          "type": "string"
        },
        {
          "internalType": "uint256",
          "name": "_leverage",
          "type": "uint256"
        }
      ],
      "name": "setUserLeverage",
      "outputs": [],
      "stateMutability": "nonpayable",
      "type": "function"
    },
    {
      "inputs": [
        {
          "internalType": "address",
          "name": "token",
          "type": "address"
        },
        {
          "internalType": "address",
          "name": "takerAddr",
          "type": "address"
        },
        {
          "internalType": "uint256",
          "name": "tradingFee",
          "type": "uint256"
        }
      ],
      "name": "splitTradeFee",
      "outputs": [],
      "stateMutability": "nonpayable",
      "type": "function"
    },
    {
      "inputs": [
        {
          "internalType": "string",
          "name": "_name",
          "type": "string"
        },
        {
          "internalType": "address",
          "name": "_token",
          "type": "address"
        },
        {
          "internalType": "uint256",
          "name": "_amount",
          "type": "uint256"
        },
        {
          "internalType": "uint256",
          "name": "_price",
          "type": "uint256"
        },
        {
          "internalType": "uint256",
          "name": "_orderType",
          "type": "uint256"
        },
        {
          "internalType": "enum ICommon.Offset",
          "name": "_offset",
          "type": "uint8"
        },
        {
          "internalType": "enum ICommon.Direct",
          "name": "_direct",
          "type": "uint8"
        },
        {
          "internalType": "uint256",
          "name": "_orderType2",
          "type": "uint256"
        },
        {
          "internalType": "uint256",
          "name": "_deadline",
          "type": "uint256"
        },
        {
          "internalType": "bytes",
          "name": "_priceUpdate",
          "type": "bytes"
        }
      ],
      "name": "trade",
      "outputs": [],
      "stateMutability": "payable",
      "type": "function"
    },
    {
      "inputs": [],
      "name": "tradeAgent",
      "outputs": [
        {
          "internalType": "contract TradeAgent",
          "name": "",
          "type": "address"
        }
      ],
      "stateMutability": "view",
      "type": "function"
    },
    {
      "inputs": [],
      "name": "tradeFeeAddr",
      "outputs": [
        {
          "internalType": "address",
          "name": "",
          "type": "address"
        }
      ],
      "stateMutability": "view",
      "type": "function"
    },
    {
      "inputs": [],
      "name": "tradeStation",
      "outputs": [
        {
          "internalType": "contract TradeStation",
          "name": "",
          "type": "address"
        }
      ],
      "stateMutability": "view",
      "type": "function"
    },
    {
      "inputs": [
        {
          "internalType": "address",
          "name": "newOwner",
          "type": "address"
        }
      ],
      "name": "transferOwnership",
      "outputs": [],
      "stateMutability": "nonpayable",
      "type": "function"
    },
    {
      "inputs": [
        {
          "internalType": "uint256[]",
          "name": "_orderIDs",
          "type": "uint256[]"
        },
        {
          "internalType": "string[]",
          "name": "_symbols",
          "type": "string[]"
        },
        {
          "internalType": "bytes[]",
          "name": "_priceUpdate",
          "type": "bytes[]"
        }
      ],
      "name": "triggerOrders",
      "outputs": [],
      "stateMutability": "payable",
      "type": "function"
    },
    {
      "inputs": [
        {
          "internalType": "address",
          "name": "_token",
          "type": "address"
        },
        {
          "internalType": "address",
          "name": "_taker",
          "type": "address"
        },
        {
          "components": [
            {
              "internalType": "uint256",
              "name": "depositAmount",
              "type": "uint256"
            },
            {
              "internalType": "uint256",
              "name": "availableAmount",
              "type": "uint256"
            },
            {
              "internalType": "uint256",
              "name": "marginAmount",
              "type": "uint256"
            },
            {
              "internalType": "uint256",
              "name": "orderLocked",
              "type": "uint256"
            },
            {
              "internalType": "uint256",
              "name": "lastTime",
              "type": "uint256"
            }
          ],
          "internalType": "struct IPerpetual.AccountInfo",
          "name": "userInfo",
          "type": "tuple"
        }
      ],
      "name": "updateUserAsset",
      "outputs": [],
      "stateMutability": "nonpayable",
      "type": "function"
    },
    {
      "inputs": [
        {
          "internalType": "string[]",
          "name": "_symbols",
          "type": "string[]"
        },
        {
          "internalType": "bytes[]",
          "name": "_prices",
          "type": "bytes[]"
        }
      ],
      "name": "verifyPrice",
      "outputs": [
        {
          "internalType": "uint256[]",
          "name": "prices",
          "type": "uint256[]"
        }
      ],
      "stateMutability": "payable",
      "type": "function"
    },
    {
      "inputs": [
        {
          "internalType": "address",
          "name": "_token",
          "type": "address"
        },
        {
          "internalType": "uint256",
          "name": "_amount",
          "type": "uint256"
        },
        {
          "internalType": "string[]",
          "name": "_symbols",
          "type": "string[]"
        },
        {
          "internalType": "bytes[]",
          "name": "_priceUpdate",
          "type": "bytes[]"
        }
      ],
      "name": "withdraw",
      "outputs": [],
      "stateMutability": "payable",
      "type": "function"
    }
  ],
  "bytecode": "0x60808060405234601557613f99908161001a8239f35b5f80fdfe60806040526004361015610019575b3461001557005b5f80fd5b5f5f3560e01c806305ca57cf14611fd45780630c41899814611fae5780630eed74c014611f7d578063273cbaa014611f09578063273e763814611c4f578063336d1f1514611a5357806334d57a2014611a2c5780633851969e146119ba578063402d712c1461191257806347e7ef24146116b35780634d6849d214611635578063566014351461160e5780635671c19a146115a957806359b5e75e146115825780635c39e3781461122b57806369a0eeb814611204578063702c2b7414611176578063708b8d8614610efd578063715018a614610e64578063776af5ba14610e3d57806389f00b6d14610e1f5780638da5cb5b14610dd95780639c59b33a14610d1b578063a70dc3fe14610cf4578063b55fb57414610c18578063b5c926f414610ba9578063b8d771d414610ad4578063ccf1a4b214610a08578063cd2ce4ae146108eb578063d3c2d8b7146107b0578063e08061b314610789578063e448cc411461069d578063f2fde38b14610670578063f348285b14610649578063f74c3049146105005763f8c8765e146101b0575061000e565b346104fd5760806003193601126104fd576101c96120e2565b906101d26120f8565b6101da61210e565b906101e3612124565b917ff0c57e16840df040f15088dc2f81fe391c3923bec73e23a9662efc9c229c6a00549460ff8660401c16159567ffffffffffffffff8116801590816104f5575b60011490816104eb575b1590816104e2575b506104ba576001600160a01b0394939192858094838a60017fffffffffffffffffffffffffffffffffffffffffffffffff0000000000000000859716177ff0c57e16840df040f15088dc2f81fe391c3923bec73e23a9662efc9c229c6a0055610465575b506102a3613f0c565b6102ab613f0c565b6102b43361340a565b6102bc613f0c565b6102c4613f0c565b60017f9b779b17422d0df92223018b32b4d1fa46e071723d6817e2486d003becc55f005516806001600160a01b0319600a541617600a558752600f60205260408720600160ff19825416179055166001600160a01b03196008541617600855166001600160a01b03196007541617600755166001600160a01b03196009541617600955308152600f60205260408120600160ff19825416179055338152600f60205260408120600160ff19825416179055670de0b6b3a7640000815566038d7ea4c6800060015567016345785d8a0000600255506702c68af0bb1400006003557fffffffffffffffffffffff00ffffffffffffffffffffffffffffffffffffffff600e5416600e556103d257005b7fffffffffffffffffffffffffffffffffffffffffffffff00ffffffffffffffff7ff0c57e16840df040f15088dc2f81fe391c3923bec73e23a9662efc9c229c6a0054167ff0c57e16840df040f15088dc2f81fe391c3923bec73e23a9662efc9c229c6a00557fc7f505b2f371ae2175ee4913f4499e1f2633a7b5936321eed1cdaeb6115181d2602060405160018152a1005b7fffffffffffffffffffffffffffffffffffffffffffffff0000000000000000001668010000000000000001177ff0c57e16840df040f15088dc2f81fe391c3923bec73e23a9662efc9c229c6a00555f61029a565b6004867ff92ee8a9000000000000000000000000000000000000000000000000000000008152fd5b9050155f610236565b303b15915061022e565b889150610224565b80fd5b50346104fd5760c06003193601126104fd5761051a6120e2565b6105226120f8565b61052a61210e565b91610533612124565b608435926001600160a01b0384168094036106455760a435946001600160a01b038616809603610641576001600160a01b03809492818094610573613c89565b166001600160a01b0319600654161760065516806001600160a01b0319600b541617600b558752600f60205260408720600160ff1982541617905516806001600160a01b0319600c541617600c558552600f60205260408520600160ff1982541617905516806001600160a01b0319600e541617600e558352600f60205260408320600160ff19825416179055806001600160a01b0319600d541617600d558252600f60205260408220600160ff198254161790558152600f60205260408120600160ff1982541617905580f35b8680fd5b8580fd5b50346104fd57806003193601126104fd5760206001600160a01b0360075416604051908152f35b50346104fd5760206003193601126104fd5761069a61068d6120e2565b610695613c89565b61340a565b80f35b50346104fd5760e06003193601126104fd576106b76120e2565b6106bf6120f8565b9060a07fffffffffffffffffffffffffffffffffffffffffffffffffffffffffffffffbc36011261078557600490604051926106fa84612033565b604435845260208401606435815260408501906084358252606086019260a43584526001600160a01b03608088019560c4358752338a52600f60205261074660ff60408c205416612487565b42875216885260106020526001600160a01b036040892091165f5260205260405f20955186555160018601555160028501555160038401555191015580f35b8280fd5b50346104fd57806003193601126104fd5760206001600160a01b0360085416604051908152f35b50346104fd577fbbd1b090970f0e970b855e7b10fb629b05c0ea0c6e28e9b67a3573a05b947d316101006001600160a01b036107eb3661213a565b92909116918286526010602052604086206001600160a01b0383165f5260205260405f20916040519261081d84612033565b8054845260018101546020850181815261086361085b60028501546040890194818652600460038801549760608c01988952015460808b0152612907565b845190612907565b8651818111156108b957506108816001600160a01b0391885161295c565b965b519151925193519460405198895216602088015260408701526060860152608085015260a084015260c083015260e0820152a180f35b90808210156108da576001600160a01b03916108d49161295c565b96610883565b50506001600160a01b038a96610883565b50346104fd57806003193601126104fd57601354610908816121b6565b90610916604051928361204f565b808252601383527f66de8ffda797e3de9c05e8fc57b3bf0ec28a930d40b0d285d93c06501cf6a0909280602084015b838310610966576040516020808252819061096290820188612410565b0390f35b60405182875461097581612b52565b80845290600181169081156109e557506001146109af575b50600192826109a18594602094038261204f565b815201960192019194610945565b888552602085208592505b8183106109cf5750508101602001600161098d565b60018160209254838688010152019201916109ba565b60ff191660208581019190915291151560051b840190910191506001905061098d565b50346104fd5760406003193601126104fd576001600160a01b036040610a2c6120e2565b9282610a366120f8565b948260808551610a4581612033565b8281528260208201528287820152826060820152015216815260106020522091165f5260205260a060405f20604051610a7d81612033565b81549182825260018101546020830190815260028201549060408401918252608060046003850154946060870195865201549401938452604051948552516020850152516040840152516060830152516080820152f35b5060806003193601126104fd5760043567ffffffffffffffff8111610ba557610b0190369060040161237d565b60243567ffffffffffffffff811161078557610b2190369060040161237d565b60443567ffffffffffffffff8111610ba157610b4190369060040161222b565b916064359267ffffffffffffffff8411610b9d57610b66610b769436906004016122aa565b939092610b71613652565b612b9e565b60017f9b779b17422d0df92223018b32b4d1fa46e071723d6817e2486d003becc55f005580f35b8480fd5b8380fd5b5080fd5b5060406003193601126104fd5760043567ffffffffffffffff8111610ba557610bd690369060040161222b565b906024359067ffffffffffffffff82116104fd57610962610c0484610bfe36600487016122aa565b9161375d565b60405191829160208352602083019061234a565b50346104fd5760206003193601126104fd5760043567ffffffffffffffff8111610ba557610c4a9036906004016121ce565b81805b8251811015610cf0576001600160a01b03600c5416610c6c8285612b8a565b51813b15610ba15783916064839260405194859384927fc2b3356400000000000000000000000000000000000000000000000000000000845260048401523360248401528160448401525af1908115610ce5578391610cd0575b5050600101610c4d565b81610cda9161204f565b610ba557815f610cc6565b6040513d85823e3d90fd5b5080f35b50346104fd57806003193601126104fd5760206001600160a01b0360095416604051908152f35b50346104fd5760606003193601126104fd57610d356120e2565b610d3d6120f8565b60443591821515809303610ba1576001600160a01b038092338652600f602052610d6d60ff604088205416612487565b166001600160a01b03196008541617600855166001600160a01b031960095416176009557fffffffffffffffffffffff00ffffffffffffffffffffffffffffffffffffffff74ff0000000000000000000000000000000000000000600e549260a01b16911617600e5580f35b50346104fd57806003193601126104fd5760206001600160a01b037f9016d09d72d40fdae2fd8ceac6b6234c7706214fd39c1cd1e609a0528c1993005416604051908152f35b50346104fd57806003193601126104fd576020600254604051908152f35b50346104fd57806003193601126104fd5760206001600160a01b03600b5416604051908152f35b50346104fd57806003193601126104fd57610e7d613c89565b806001600160a01b037f9016d09d72d40fdae2fd8ceac6b6234c7706214fd39c1cd1e609a0528c199300546001600160a01b031981167f9016d09d72d40fdae2fd8ceac6b6234c7706214fd39c1cd1e609a0528c19930055167f8be0079c531659141344cd1fd0a4f28419497f9722a3daafe3b4186f6b6457e08280a380f35b50346104fd5760406003193601126104fd5760043567ffffffffffffffff8111610ba557610f2f9036906004016120c4565b90610f386120f8565b338252600f602052610f5060ff604084205416612487565b6040516001600160a01b03845191602081818801948086835e81016011815203019020541615610fb0575b6001600160a01b0390602085604051928391518091835e8101601181520301902091166001600160a01b031982541617905580f35b60135468010000000000000000811015611162576001810160135560135481101561114e57601384527f66de8ffda797e3de9c05e8fc57b3bf0ec28a930d40b0d285d93c06501cf6a09001938361113b5780519467ffffffffffffffff86116111275761101d8154612b52565b601f81116110e2575b50602095601f8111600114611075579081602093926001600160a01b039697985f9161106a575b508160011b915f199060031b1c19161790555b9493925050610f7b565b90508301515f61104d565b601f198116825f52875f20905f5b8181106110ca5750916001916001600160a01b03979899826020979695106110b2575b5050811b019055611060565b8501515f1960f88460031b161c191690555f806110a6565b858a015183556020998a019960019093019201611083565b815f5260205f20601f880160051c8101916020891061111d575b601f0160051c01905b8181106111125750611026565b5f8155600101611105565b90915081906110fc565b634e487b7160e01b5f52604160045260245ffd5b602484634e487b7160e01b815280600452fd5b602484634e487b7160e01b81526032600452fd5b602484634e487b7160e01b81526041600452fd5b50346104fd5760606003193601126104fd576111906120e2565b6111986120f8565b60443567ffffffffffffffff8111610ba15760406020946001600160a01b036111c6819436906004016120c4565b95168152601286522091165f5282526111e260405f2082612468565b549081156111f4575b50604051908152f35b6111fe91506135a9565b5f6111eb565b50346104fd57806003193601126104fd5760206001600160a01b03600d5416604051908152f35b506101406003193601126104fd5760043567ffffffffffffffff8111610ba5576112599036906004016120c4565b6112616120f8565b90606435916084359060a4359060038210156106455760c435926003841015610641576101243567ffffffffffffffff811161157e573660238201121561157e576112b690369060248160040135910161208e565b6112be613652565b6112cd4261010435101561281c565b34876112d8886136c9565b9290506112e4886128b2565b60018814801561156b575b15611527578a99856114c557505050506020611363916001600160a01b036040518381818c805191829101835e81016011815203019020541660405180809581947f1af189a400000000000000000000000000000000000000000000000000000000835286600484015260248301906123eb565b039134905af19081156114ba578791611485575b509486905b6001600160a01b03600e541693843b156114815788966001600160a01b03966113df956040519a8b998a9889977ffb13637b00000000000000000000000000000000000000000000000000000000895261014060048a01526101448901906123eb565b95166024870152604435604487015260648601526084850152611401816128b2565b60a484015261140f816128b2565b60c483015260e43560e4830152336101048301528261012483015203925af1801561147657611461575b5060017f9b779b17422d0df92223018b32b4d1fa46e071723d6817e2486d003becc55f005580f35b8161146b9161204f565b6104fd57805f611439565b6040513d84823e3d90fd5b8880fd5b9650506020863d6020116114b2575b816114a16020938361204f565b81010312610015578695515f611377565b3d9150611494565b6040513d89823e3d90fd5b91989299509250156114e3576114de8998341015612867565b61137c565b606460405162461bcd60e51b815260206004820152600d60248201527f7072696365206973207a65726f000000000000000000000000000000000000006044820152fd5b606460405162461bcd60e51b815260206004820152600f60248201527f77726f6e6720646972656374696f6e00000000000000000000000000000000006044820152fd5b50611575886128b2565b600288146112ef565b8780fd5b50346104fd57806003193601126104fd5760206001600160a01b03600a5416604051908152f35b5060806003193601126104fd576115be6120e2565b60443567ffffffffffffffff8111610785576115de90369060040161222b565b6064359167ffffffffffffffff8311610ba15761160261069a9336906004016122aa565b92909160243590612969565b50346104fd57806003193601126104fd5760206001600160a01b03600c5416604051908152f35b50346104fd5760206003193601126104fd576001600160a01b036116576120e2565b168152601460205260408120604051918260208354918281520192825260208220915b81811061169d57610962856116918187038261204f565b60405191829182612174565b825484526020909301926001928301920161167a565b50346104fd5760406003193601126104fd576116cd6120e2565b60243560015481106118ce5782916116e782303384613998565b6001600160a01b038116918284526010602052604084206001600160a01b0333165f5260205260405f2061171b33846131c3565b611726828254612907565b815560018101611737838254612907565b9055838552601460205261175c33604087206001915f520160205260405f2054151590565b156118ac575b5061176d33836132e6565b604051906001825260208201524260408201523090837feb42cf637f927243245c50b4bf7fe105fe4f4d26209102240f2ba3d8e27a7df860603393a481835260056020526040832054156117bf575050f35b6117c98392613db8565b506001600160a01b03600a5416827fffffffff000000000000000000000000000000000000000000000000000000006018602060405161180a60408261204f565b828152017f617070726f766528616464726573732c75696e743235362900000000000000008152201691604051906020820193845260248201525f1960448201526044815261185a60648261204f565b51925af1611866613969565b81611875575b50156104fd5780f35b805180159250821561188a575b50505f61186c565b8192509060209181010312610ba55760206118a59101612914565b5f80611882565b60044291015582845260146020526118c73360408620613e28565b505f611762565b606460405162461bcd60e51b815260206004820152601860248201527f6465706f73697420616d6f756e7420746f6f20736d616c6c00000000000000006044820152fd5b508061193f611920366122db565b61192c94919294613652565b6001600160a01b03600e5416928561375d565b90803b15610b9d5761198493858094604051968795869485937fbcef60d7000000000000000000000000000000000000000000000000000000008552600485016128d0565b03925af1801561147657611461575060017f9b779b17422d0df92223018b32b4d1fa46e071723d6817e2486d003becc55f005580f35b50806119e76119c8366122db565b6119d494919294613652565b6001600160a01b03600c5416928561375d565b90803b15610b9d5761198493858094604051968795869485937feb4f2e36000000000000000000000000000000000000000000000000000000008552600485016128d0565b50346104fd57806003193601126104fd5760206001600160a01b03600e5416604051908152f35b506101406003193601126100155760043567ffffffffffffffff811161001557611a819036906004016120c4565b611a896120f8565b604435916064359060038210156100155760843591600383101561001557611aaf613652565b611abe4261012435101561281c565b611ac7826136c9565b908610611c0b578060011b9080820460021490151715611bf757611aed90341015612867565b6001600160a01b03600e541691823b15610015575f946001600160a01b0394611b5093604051988997889687967f6e839c6400000000000000000000000000000000000000000000000000000000885261014060048901526101448801906123eb565b941660248601526044850152611b65816128b2565b6064840152611b73816128b2565b608483015260a43560a483015260c43560c483015260e43560e48301526101043561010483015233610124830152039134905af18015611bec57611bd9575060017f9b779b17422d0df92223018b32b4d1fa46e071723d6817e2486d003becc55f005580f35b611be591505f9061204f565b5f5f611439565b6040513d5f823e3d90fd5b634e487b7160e01b5f52601160045260245ffd5b606460405162461bcd60e51b815260206004820152601460248201527f6f636f20616d6f756e7420746f6f20736d616c6c0000000000000000000000006044820152fd5b3461001557606060031936011261001557611c686120e2565b60243567ffffffffffffffff811161001557611c889036906004016120c4565b604435906001600160a01b03604051602081845180838701835e81016011815203019020541615611ec557611cbc816135a9565b8215159081611eba575b5015611e76575f6001600160a01b0380600b54169416905b60028110611d8e57509081611d8b925f52601260205260405f206001600160a01b0333165f526020527f876c9e1723578de812ea7970374a8505b6086b8f573cea692c1e18c2e1c3dc27611d3560405f2084612468565b54604051809184825233602083015260a06040830152611d5860a08301876123eb565b9060608301528760808301520390a15f52601260205260405f206001600160a01b0333165f5260205260405f2090612468565b55005b6040517f3a0204a90000000000000000000000000000000000000000000000000000000081528260048201523360248201526080604482015260808180611dd860848201886123eb565b8560648301520381895afa908115611bec575f91611e42575b50611dfe57600101611cde565b606460405162461bcd60e51b815260206004820152600b60248201527f65786973742061737365740000000000000000000000000000000000000000006044820152fd5b90506080813d8211611e6e575b81611e5c6080938361204f565b81010312610015576020015186611df1565b3d9150611e4f565b606460405162461bcd60e51b815260206004820152601560248201527f6c65766572616765206f7574206f6620312d31303000000000000000000000006044820152fd5b905082111584611cc6565b606460405162461bcd60e51b815260206004820152600a60248201527f77726f6e67206e616d65000000000000000000000000000000000000000000006044820152fd5b34610015575f6003193601126100155760405180602060045491828152019060045f527f8a35acfbc15ff81a39ae7d344fd709f28e8600b4aa8c65c6b64bfe7fe36bd19b905f5b818110611f6757610962856116918187038261204f565b8254845260209093019260019283019201611f50565b3461001557611fac611f8e3661213a565b91335f52600f602052611fa760ff60405f205416612487565b612517565b005b34610015575f6003193601126100155760206001600160a01b0360065416604051908152f35b346100155760206003193601126100155760043567ffffffffffffffff8111610015576001600160a01b03602080612011819436906004016120c4565b604051928184925191829101835e810160118152030190205416604051908152f35b60a0810190811067ffffffffffffffff82111761112757604052565b90601f601f19910116810190811067ffffffffffffffff82111761112757604052565b67ffffffffffffffff811161112757601f01601f191660200190565b92919261209a82612072565b916120a8604051938461204f565b829481845281830111610015578281602093845f960137010152565b9080601f83011215610015578160206120df9335910161208e565b90565b600435906001600160a01b038216820361001557565b602435906001600160a01b038216820361001557565b604435906001600160a01b038216820361001557565b606435906001600160a01b038216820361001557565b6003196060910112610015576004356001600160a01b038116810361001557906024356001600160a01b0381168103610015579060443590565b60206040818301928281528451809452019201905f5b8181106121975750505090565b82516001600160a01b031684526020938401939092019160010161218a565b67ffffffffffffffff81116111275760051b60200190565b9080601f830112156100155781356121e5816121b6565b926121f3604051948561204f565b81845260208085019260051b82010192831161001557602001905b82821061221b5750505090565b813581526020918201910161220e565b9080601f83011215610015578135612242816121b6565b92612250604051948561204f565b81845260208085019260051b820101918383116100155760208201905b83821061227c57505050505090565b813567ffffffffffffffff81116100155760209161229f878480948801016120c4565b81520191019061226d565b9181601f840112156100155782359167ffffffffffffffff8311610015576020808501948460051b01011161001557565b60606003198201126100155760043567ffffffffffffffff81116100155781612306916004016121ce565b9160243567ffffffffffffffff811161001557826123269160040161222b565b916044359067ffffffffffffffff821161001557612346916004016122aa565b9091565b90602080835192838152019201905f5b8181106123675750505090565b825184526020938401939092019160010161235a565b9080601f8301121561001557813590612395826121b6565b926123a3604051948561204f565b82845260208085019360051b82010191821161001557602001915b8183106123cb5750505090565b82356001600160a01b0381168103610015578152602092830192016123be565b90601f19601f602080948051918291828752018686015e5f8582860101520116010190565b9080602083519182815201916020808360051b8301019401925f915b83831061243b57505050505090565b909192939460208061245983601f19866001960301875289516123eb565b9701930193019193929061242c565b6040518151909260209284929081908501845e82019081520301902090565b1561248e57565b606460405162461bcd60e51b815260206004820152601e60248201527f63616c6c6572206973206e6f742070657270657475616c206b656570657200006044820152fd5b51906001600160a01b038216820361001557565b81810292918115918404141715611bf757565b8115612503570490565b634e487b7160e01b5f52601260045260245ffd5b90821561281757600d546001600160a01b0316925f80808087612744575b6125ea9750612551612549600354876124e6565b5f54906124f9565b949182816001600160a01b03841615158061273c575b80612733575b6126f1575b50505050829080936001600160a01b0384161515806126e8575b806126df575b61269d575b505050506001600160a01b0360095416908290809383151580612694575b8061268b575b612650575b5050505091829160ff600e5460a01c166125ed575b8293506001600160a01b0360085416916134c5565b50565b9150916001600160a01b03600654168181151580612647575b8061263e575b61261b575b50509082906125d5565b612637919250600b5f93612630838289613b70565b8587613b19565b5f80612611565b5080151561260c565b50801515612606565b61267793945081115f146126805761266a82600e9261295c565b935b612630838289613b70565b5f8080806125c0565b9050600e5f9361266c565b508015156125bb565b508115156125b5565b6126cb93945081115f146126d4576126b782600c9261295c565b935b6126c483828a613b70565b8688613b19565b5f808080612597565b9050600c5f936126b9565b50801515612592565b5081151561258c565b61271f93945081115f146127285761270b8260119261295c565b935b61271883828c613b70565b888a613b19565b5f808080612572565b905060115f9361270d565b5080151561256d565b506001612567565b50506040517f9594bd1b0000000000000000000000000000000000000000000000000000000081526001600160a01b0386811660048301528516602482015260448101849052956080925086915060649082905f905af18015611bec575f905f905f905f906127bc575b6125ea975090919291612535565b505050506080843d60801161280f575b816127d96080938361204f565b8101031261001557836127ee6125ea956124d2565b906020810151916060612803604084016124d2565b920151909291906127ae565b3d91506127cc565b505050565b1561282357565b606460405162461bcd60e51b815260206004820152600760248201527f65787069726564000000000000000000000000000000000000000000000000006044820152fd5b1561286e57565b606460405162461bcd60e51b815260206004820152600b60248201527f6c657373207265776172640000000000000000000000000000000000000000006044820152fd5b600311156128bc57565b634e487b7160e01b5f52602160045260245ffd5b916128f9906128eb6120df959360608652606086019061234a565b908482036020860152612410565b91604081840391015261234a565b91908201809211611bf757565b5190811515820361001557565b926001600160a01b036120df95938161294e94168652166020850152608060408501526080840190612410565b91606081840391015261234a565b91908203918211611bf757565b93916040906129c2929461298b5f956001600160a01b03600c5416928461375d565b9183518095819482937fd15a1b41000000000000000000000000000000000000000000000000000000008452338c60048601612921565b03915afa908115611bec575f905f92612ae8575b5015612ae0575b508115612817576001600160a01b03831692835f52601060205260405f206001600160a01b0333165f5260205260405f2091612a1933836131c3565b6001830190612a2a82549186612907565b8110612a9c5784612a4b9185612a4483612a5f985461295c565b905561295c565b9055612a58833383613b70565b33906132e6565b6040519060028252602082015242604082015233917feb42cf637f927243245c50b4bf7fe105fe4f4d26209102240f2ba3d8e27a7df860603093a4565b606460405162461bcd60e51b815260206004820152601960248201527f776974686472657720616d6f756e7420746f6f206c61726765000000000000006044820152fd5b90505f6129dd565b9150506040813d604011612b21575b81612b046040938361204f565b81010312610015576020612b1782612914565b910151905f6129d6565b3d9150612af7565b8054821015612b3e575f5260205f2001905f90565b634e487b7160e01b5f52603260045260245ffd5b90600182811c92168015612b80575b6020831014612b6c57565b634e487b7160e01b5f52602260045260245ffd5b91607f1691612b61565b8051821015612b3e5760209160051b010190565b93612bab9195938361375d565b915f5b84518110156131bb575f5b86518110156131b2576001600160a01b03612bd48388612b8a565b5116906001600160a01b03612be9828a612b8a565b5116825f52601060205260405f206001600160a01b0382165f52602052612c1460405f205484613ce8565b80156131a657612c2482856131c3565b612c6e6080896001600160a01b03600c54168a6040518095819482937fd719606a0000000000000000000000000000000000000000000000000000000084528a8d60048601612921565b03915afa908115611bec575f9161316d575b50612d8b575b50610100837fbbd1b090970f0e970b855e7b10fb629b05c0ea0c6e28e9b67a3573a05b947d31926001955f52601060205260405f206001600160a01b0382165f5260205260405f209060405191612cdc83612033565b805483528781015460208401818152612d1961085b60028501546040880194818652600460038801549760608b01988952015460808a0152612907565b855181811115612d6b5750612d2f90865161295c565b945b5190519151925193604051968752602087015260408601526060850152608084015260a0830152600b60c083015260e0820152a101612bb9565b81811015612d8257612d7c9161295c565b94612d31565b50505f94612d31565b612df0906001600160a01b03600754166020612da78288613d11565b6040517fdd62ed3e0000000000000000000000000000000000000000000000000000000081526001600160a01b0390931660048401523060248401529193849081906044820190565b0381895afa8015611bec5789935f91613135575b50612e14612e2b915f54906124e6565b612e25612e2089613e80565b613d03565b906124f9565b80821161312d575b5060208a6001600160a01b03600e5416865f8a612eb6612e53888a612907565b95612ea46040519b8c98899788967fc59b4d7800000000000000000000000000000000000000000000000000000000885260048801526024870152604486015260a0606486015260a4850190612410565b9060031984830301608485015261234a565b03925af1928315611bec575f936130d2575b509282869282600198877fbbd1b090970f0e970b855e7b10fb629b05c0ea0c6e28e9b67a3573a05b947d319861010098145f14612f9657505050612f1991506001600160a01b03600a541684613b70565b604080516001600160a01b038481168252831660208201527f41e1079eef48308723ea526ccdf110f7d9ce6445e554db20e4fbe261c3a5ac9b9190a1815f52601060205260405f206001600160a01b0382165f526020525f6004604082208281558289820155826002820155826003820155015592509350612c86565b9091928185115f1461303e576130257feb42cf637f927243245c50b4bf7fe105fe4f4d26209102240f2ba3d8e27a7df892613013606093612fed6001600160a01b0360075416612fe6858c61295c565b9089613b70565b61300c89613007856001600160a01b03600a541694612907565b61295c565b9087613b70565b6001600160a01b03600754169661295c565b60405190600882526020820152426040820152a4612f19565b6130b97feb42cf637f927243245c50b4bf7fe105fe4f4d26209102240f2ba3d8e27a7df89294956130a760609361308d6001600160a01b0360075416613084858b61295c565b9030908a613998565b61300c836130078a6001600160a01b03600a541694612907565b6001600160a01b03600754169561295c565b60405190600982526020820152426040820152a4612f19565b92509490926020833d8211613125575b816130ef6020938361204f565b810103126100155791519094919290917fbbd1b090970f0e970b855e7b10fb629b05c0ea0c6e28e9b67a3573a05b947d31612ec8565b3d91506130e2565b90505f612e33565b9350506020833d8211613165575b816131506020938361204f565b81010312610015579151889290612e14612e04565b3d9150613143565b90506080813d821161319e575b816131876080938361204f565b810103126100155761319890612914565b5f612c80565b3d915061317a565b50505050509350505050565b50600101612bae565b509350505050565b7fbbd1b090970f0e970b855e7b10fb629b05c0ea0c6e28e9b67a3573a05b947d31916001600160a01b03610100921690815f52601060205260405f206001600160a01b0382165f5260205260405f20906040519161322083612033565b8054835260018101546020840181815261325e61085b60028501546040880194818652600460038801549760608b01988952015460808a0152612907565b8551818111156132b4575061327c6001600160a01b0391875161295c565b955b519151925193519460405197885216602087015260408601526060850152608084015260a08301525f60c083015260e0820152a1565b90808210156132d5576001600160a01b03916132cf9161295c565b9561327e565b50506001600160a01b035f9561327e565b7fbbd1b090970f0e970b855e7b10fb629b05c0ea0c6e28e9b67a3573a05b947d31916001600160a01b03610100921690815f52601060205260405f206001600160a01b0382165f5260205260405f20906040519161334383612033565b8054835260018101546020840181815261338161085b60028501546040880194818652600460038801549760608b01988952015460808a0152612907565b8551818111156133d8575061339f6001600160a01b0391875161295c565b955b519151925193519460405197885216602087015260408601526060850152608084015260a0830152600a60c083015260e0820152a1565b90808210156133f9576001600160a01b03916133f39161295c565b956133a1565b50506001600160a01b035f956133a1565b6001600160a01b03168015613499576001600160a01b037f9016d09d72d40fdae2fd8ceac6b6234c7706214fd39c1cd1e609a0528c19930054826001600160a01b03198216177f9016d09d72d40fdae2fd8ceac6b6234c7706214fd39c1cd1e609a0528c19930055167f8be0079c531659141344cd1fd0a4f28419497f9722a3daafe3b4186f6b6457e05f80a3565b7f1e4fbdf7000000000000000000000000000000000000000000000000000000005f525f60045260245ffd5b92939091846001600160a01b03821615158061353d575b80613534575b6134ef575b505050505090565b61351e9495508281115f14613528579261350c83600d949561295c565b955b613519858483613b70565b613b19565b5f808080806134e7565b600d9250925f9561350e565b508215156134e2565b508015156134dc565b908160c0910312610015576040519060c082019082821067ffffffffffffffff8311176111275760a0916040528051835260208101516020840152604081015160408401526060810151606084015260808101516080840152015160a082015290565b60405181516001600160a01b0392602091839181908401835e6011908201908152030190205416801561364c5760c0600491604051928380927f639122c90000000000000000000000000000000000000000000000000000000082525afa8015611bec576060915f9161361d575b50015190565b61363f915060c03d60c011613645575b613637818361204f565b810190613546565b5f613617565b503d61362d565b50606490565b60027f9b779b17422d0df92223018b32b4d1fa46e071723d6817e2486d003becc55f0054146136a15760027f9b779b17422d0df92223018b32b4d1fa46e071723d6817e2486d003becc55f0055565b7f3ee5aeb5000000000000000000000000000000000000000000000000000000005f5260045ffd5b9060c06001600160a01b03602080600495604051928184925191829101835e810160118152030190205416604051938480927f639122c90000000000000000000000000000000000000000000000000000000082525afa918215611bec575f9261373c575b506020604083015192015190565b61375691925060c03d60c01161364557613637818361204f565b905f61372e565b9092919283825103613925576137748251346124f9565b908251801561250357340693613789866121b6565b93613797604051958661204f565b868552601f196137a6886121b6565b0136602087013784955f5b825180821015613919575f198101908111611bf7578114613908575b6001600160a01b036020806137e28487612b8a565b51604051928184925191829101835e8101601181520301902054169089811015612b3e578060051b8601357fffffffffffffffffffffffffffffffffffffffffffffffffffffffffffffffe18736030181121561001557860180359067ffffffffffffffff82116100155760200190803603821361001557601f93818a6044602095601f19604051998a97889687947f1af189a40000000000000000000000000000000000000000000000000000000086528b6004870152816024870152868601375f858286010152011681010301925af18015611bec575f906138d6575b600192506138cf828a612b8a565b52016137b1565b506020823d8211613900575b816138ef6020938361204f565b8101031261001557600191516138c1565b3d91506138e2565b948161391391612907565b946137cd565b50505050939450505050565b606460405162461bcd60e51b815260206004820152602060248201527f496e636f6e73697374656e74207072696365206172726179206c656e677468736044820152fd5b3d15613993573d9061397a82612072565b91613988604051938461204f565b82523d5f602084013e565b606090565b90926125496139b3916139ad612e2085613e80565b906124e6565b80151580613b07575b80613af5575b6139cd575b50505050565b5f809493613a9d8295613a8f7fffffffff000000000000000000000000000000000000000000000000000000006025604051613a0a60608261204f565b8181527f7432353629000000000000000000000000000000000000000000000000000000604060208301927f7472616e7366657246726f6d28616464726573732c616464726573732c75696e8452015220169560405194859360208501988952602485016001600160a01b036040929594938160608401971683521660208201520152565b03601f19810183528261204f565b51925af1613aa9613969565b81613abe575b5015610015575f8080806139c7565b8051801592508215613ad3575b50505f613aaf565b8192509060209181010312610015576020613aee9101612914565b5f80613acb565b506001600160a01b03831615156139c2565b506001600160a01b03841615156139bc565b929390936040519260138210156128bc576001600160a01b038080927feb42cf637f927243245c50b4bf7fe105fe4f4d26209102240f2ba3d8e27a7df89560609588526020880152426040880152169616941692a4565b91612549613b84916139ad612e2086613e80565b9182151580613c77575b613b9757505050565b5f928380937fffffffff0000000000000000000000000000000000000000000000000000000060196020604051613bcf60408261204f565b828152017f7472616e7366657228616464726573732c75696e74323536290000000000000081522016926001600160a01b036040519260208401958652166024830152604482015260448152613c2660648261204f565b51925af1613c32613969565b81613c40575b501561001557565b8051801592508215613c55575b50505f613c38565b8192509060209181010312610015576020613c709101612914565b5f80613c4d565b506001600160a01b0382161515613b8e565b6001600160a01b037f9016d09d72d40fdae2fd8ceac6b6234c7706214fd39c1cd1e609a0528c19930054163303613cbc57565b7f118cdaa7000000000000000000000000000000000000000000000000000000005f523360045260245ffd5b613cf3903090613d11565b808211613cfe575090565b905090565b604d8111611bf757600a0a90565b6001600160a01b03604051927f70a082310000000000000000000000000000000000000000000000000000000084521660048301526020826024816001600160a01b0385165afa918215611bec575f92613d82575b50612e25612e20613d7c6120df945f54906124e6565b92613e80565b91506020823d602011613db0575b81613d9d6020938361204f565b8101031261001557905190612e25613d66565b3d9150613d90565b805f52600560205260405f2054155f14613e23576004546801000000000000000081101561112757613e0c613df68260018594016004556004612b29565b819391549060031b91821b915f19901b19161790565b9055600454905f52600560205260405f2055600190565b505f90565b5f828152600182016020526040902054613e7a57805490680100000000000000008210156111275782613e65613df6846001809601855584612b29565b90558054925f520160205260405f2055600190565b50505f90565b60206001600160a01b03916004604051809481937f313ce567000000000000000000000000000000000000000000000000000000008352165afa8015611bec575f90613ecf575b60ff91501690565b506020813d602011613f04575b81613ee96020938361204f565b81010312610015575160ff811681036100155760ff90613ec7565b3d9150613edc565b60ff7ff0c57e16840df040f15088dc2f81fe391c3923bec73e23a9662efc9c229c6a005460401c1615613f3b57565b7fd7e6bcf8000000000000000000000000000000000000000000000000000000005f5260045ffdfea264697066735822122067fc6f0848d184ece60a9a91aad405f8af3131ea8949c1b44a69b9e1bc5aa9ba64736f6c634300081c0033",
  "linkReferences": {},
  "deployedLinkReferences": {}
}