{
  "_format": "hh-sol-artifact-1",
  "contractName": "Perpetual",
  "sourceName": "contracts/Perpetual.sol",
  "abi": [
    {
      "inputs": [],
      "name": "InvalidInitialization",
      "type": "error"
    },
    {
      "inputs": [],
      "name": "NotInitializing",
      "type": "error"
    },
    {
      "inputs": [
        {
          "internalType": "address",
          "name": "owner",
          "type": "address"
        }
      ],
      "name": "OwnableInvalidOwner",
      "type": "error"
    },
    {
      "inputs": [
        {
          "internalType": "address",
          "name": "account",
          "type": "address"
        }
      ],
      "name": "OwnableUnauthorizedAccount",
      "type": "error"
    },
    {
      "inputs": [],
      "name": "ReentrancyGuardReentrantCall",
      "type": "error"
    },
    {
      "anonymous": false,
      "inputs": [
        {
          "indexed": false,
          "internalType": "address",
          "name": "token",
          "type": "address"
        },
        {
          "indexed": false,
          "internalType": "address",
          "name": "holder",
          "type": "address"
        },
        {
          "indexed": false,
          "internalType": "string",
          "name": "name",
          "type": "string"
        },
        {
          "indexed": false,
          "internalType": "enum ICommon.Direct",
          "name": "direct",
          "type": "uint8"
        },
        {
          "indexed": false,
          "internalType": "uint256",
          "name": "value",
          "type": "uint256"
        },
        {
          "indexed": false,
          "internalType": "uint256",
          "name": "size",
          "type": "uint256"
        },
        {
          "indexed": false,
          "internalType": "uint256",
          "name": "margin",
          "type": "uint256"
        },
        {
          "indexed": false,
          "internalType": "uint256",
          "name": "freeze",
          "type": "uint256"
        }
      ],
      "name": "AccountPosition",
      "type": "event"
    },
    {
      "anonymous": false,
      "inputs": [
        {
          "indexed": false,
          "internalType": "address",
          "name": "token",
          "type": "address"
        },
        {
          "indexed": false,
          "internalType": "address",
          "name": "taker",
          "type": "address"
        },
        {
          "indexed": false,
          "internalType": "uint256",
          "name": "amount",
          "type": "uint256"
        },
        {
          "indexed": false,
          "internalType": "uint256",
          "name": "availableAmount",
          "type": "uint256"
        },
        {
          "indexed": false,
          "internalType": "uint256",
          "name": "marginAmount",
          "type": "uint256"
        },
        {
          "indexed": false,
          "internalType": "uint256",
          "name": "locked",
          "type": "uint256"
        },
        {
          "indexed": false,
          "internalType": "uint256",
          "name": "stage",
          "type": "uint256"
        },
        {
          "indexed": false,
          "internalType": "uint256",
          "name": "dif",
          "type": "uint256"
        }
      ],
      "name": "BalanceOfTaker",
      "type": "event"
    },
    {
      "anonymous": false,
      "inputs": [
        {
          "indexed": false,
          "internalType": "string",
          "name": "name",
          "type": "string"
        },
        {
          "indexed": true,
          "internalType": "address",
          "name": "taker",
          "type": "address"
        },
        {
          "indexed": true,
          "internalType": "address",
          "name": "token",
          "type": "address"
        },
        {
          "indexed": false,
          "internalType": "uint256",
          "name": "orderID",
          "type": "uint256"
        },
        {
          "indexed": false,
          "internalType": "enum ICommon.Direct",
          "name": "orderType",
          "type": "uint8"
        },
        {
          "indexed": false,
          "internalType": "enum IPerpetual.OrderState",
          "name": "state",
          "type": "uint8"
        },
        {
          "indexed": false,
          "internalType": "enum ICommon.Offset",
          "name": "offset",
          "type": "uint8"
        },
        {
          "indexed": false,
          "internalType": "uint256",
          "name": "amount",
          "type": "uint256"
        },
        {
          "indexed": false,
          "internalType": "uint256",
          "name": "targetPrice",
          "type": "uint256"
        },
        {
          "indexed": false,
          "internalType": "uint256",
          "name": "margin",
          "type": "uint256"
        },
        {
          "indexed": false,
          "internalType": "uint256",
          "name": "rewardGas",
          "type": "uint256"
        },
        {
          "indexed": false,
          "internalType": "uint256",
          "name": "tradingFee",
          "type": "uint256"
        },
        {
          "indexed": false,
          "internalType": "uint256",
          "name": "startTime",
          "type": "uint256"
        },
        {
          "indexed": false,
          "internalType": "uint256",
          "name": "goodTill",
          "type": "uint256"
        }
      ],
      "name": "CreateLimitedOrder",
      "type": "event"
    },
    {
      "anonymous": false,
      "inputs": [
        {
          "indexed": false,
          "internalType": "uint256",
          "name": "limitOrderID",
          "type": "uint256"
        },
        {
          "indexed": false,
          "internalType": "uint256",
          "name": "openLimitPrice",
          "type": "uint256"
        },
        {
          "indexed": false,
          "internalType": "uint256",
          "name": "gainTriggerPrice",
          "type": "uint256"
        },
        {
          "indexed": false,
          "internalType": "uint256",
          "name": "gainLimitPrice",
          "type": "uint256"
        },
        {
          "indexed": false,
          "internalType": "uint256",
          "name": "lossTriggerPrice",
          "type": "uint256"
        },
        {
          "indexed": false,
          "internalType": "uint256",
          "name": "lossLimitPrice",
          "type": "uint256"
        }
      ],
      "name": "CreateTriggerCondition",
      "type": "event"
    },
    {
      "anonymous": false,
      "inputs": [
        {
          "indexed": false,
          "internalType": "uint256",
          "name": "code",
          "type": "uint256"
        },
        {
          "indexed": false,
          "internalType": "uint256",
          "name": "orderID",
          "type": "uint256"
        },
        {
          "indexed": false,
          "internalType": "string",
          "name": "message",
          "type": "string"
        }
      ],
      "name": "ErrorInfo",
      "type": "event"
    },
    {
      "anonymous": false,
      "inputs": [
        {
          "indexed": false,
          "internalType": "uint256",
          "name": "code",
          "type": "uint256"
        },
        {
          "indexed": false,
          "internalType": "uint256",
          "name": "orderID",
          "type": "uint256"
        },
        {
          "indexed": false,
          "internalType": "bytes",
          "name": "message",
          "type": "bytes"
        }
      ],
      "name": "ExceptErrorInfo",
      "type": "event"
    },
    {
      "anonymous": false,
      "inputs": [
        {
          "indexed": false,
          "internalType": "uint64",
          "name": "version",
          "type": "uint64"
        }
      ],
      "name": "Initialized",
      "type": "event"
    },
    {
      "anonymous": false,
      "inputs": [
        {
          "indexed": false,
          "internalType": "string",
          "name": "name",
          "type": "string"
        },
        {
          "indexed": true,
          "internalType": "address",
          "name": "taker",
          "type": "address"
        },
        {
          "indexed": true,
          "internalType": "address",
          "name": "token",
          "type": "address"
        },
        {
          "indexed": false,
          "internalType": "uint256",
          "name": "orderID",
          "type": "uint256"
        },
        {
          "indexed": false,
          "internalType": "enum ICommon.Direct",
          "name": "orderType",
          "type": "uint8"
        },
        {
          "indexed": false,
          "internalType": "enum IPerpetual.OrderState",
          "name": "state",
          "type": "uint8"
        },
        {
          "indexed": false,
          "internalType": "enum ICommon.Offset",
          "name": "offset",
          "type": "uint8"
        },
        {
          "indexed": false,
          "internalType": "uint256",
          "name": "amount",
          "type": "uint256"
        },
        {
          "indexed": false,
          "internalType": "uint256",
          "name": "targetPrice",
          "type": "uint256"
        },
        {
          "indexed": false,
          "internalType": "uint256",
          "name": "margin",
          "type": "uint256"
        },
        {
          "indexed": false,
          "internalType": "uint256",
          "name": "rewardGas",
          "type": "uint256"
        },
        {
          "indexed": false,
          "internalType": "uint256",
          "name": "tradingFee",
          "type": "uint256"
        },
        {
          "indexed": false,
          "internalType": "uint256",
          "name": "startTime",
          "type": "uint256"
        },
        {
          "indexed": false,
          "internalType": "uint256",
          "name": "goodTill",
          "type": "uint256"
        }
      ],
      "name": "LimitedOrderHistory",
      "type": "event"
    },
    {
      "anonymous": false,
      "inputs": [
        {
          "indexed": true,
          "internalType": "address",
          "name": "taker",
          "type": "address"
        },
        {
          "indexed": false,
          "internalType": "string",
          "name": "name",
          "type": "string"
        },
        {
          "indexed": false,
          "internalType": "address",
          "name": "token",
          "type": "address"
        },
        {
          "indexed": false,
          "internalType": "uint256",
          "name": "orderID",
          "type": "uint256"
        },
        {
          "indexed": false,
          "internalType": "enum ICommon.Direct",
          "name": "direction",
          "type": "uint8"
        },
        {
          "indexed": false,
          "internalType": "enum IPerpetual.OrderType",
          "name": "orderType",
          "type": "uint8"
        },
        {
          "indexed": false,
          "internalType": "uint256",
          "name": "amount",
          "type": "uint256"
        },
        {
          "indexed": false,
          "internalType": "uint256",
          "name": "costPrice",
          "type": "uint256"
        },
        {
          "indexed": false,
          "internalType": "uint256",
          "name": "price",
          "type": "uint256"
        },
        {
          "indexed": false,
          "internalType": "uint256",
          "name": "tradingFee",
          "type": "uint256"
        },
        {
          "indexed": false,
          "internalType": "uint256",
          "name": "leverage",
          "type": "uint256"
        },
        {
          "indexed": false,
          "internalType": "uint256",
          "name": "marginAmount",
          "type": "uint256"
        },
        {
          "indexed": false,
          "internalType": "uint256",
          "name": "limitOrderId",
          "type": "uint256"
        },
        {
          "indexed": false,
          "internalType": "uint256",
          "name": "timestamp",
          "type": "uint256"
        }
      ],
      "name": "OrderHistory",
      "type": "event"
    },
    {
      "anonymous": false,
      "inputs": [
        {
          "indexed": true,
          "internalType": "address",
          "name": "previousOwner",
          "type": "address"
        },
        {
          "indexed": true,
          "internalType": "address",
          "name": "newOwner",
          "type": "address"
        }
      ],
      "name": "OwnershipTransferred",
      "type": "event"
    },
    {
      "anonymous": false,
      "inputs": [
        {
          "indexed": false,
          "internalType": "address",
          "name": "token",
          "type": "address"
        },
        {
          "indexed": false,
          "internalType": "uint256",
          "name": "orderID",
          "type": "uint256"
        },
        {
          "indexed": false,
          "internalType": "uint256",
          "name": "dealID",
          "type": "uint256"
        },
        {
          "indexed": false,
          "internalType": "enum IPerpetual.TradeType",
          "name": "tradeType",
          "type": "uint8"
        },
        {
          "indexed": false,
          "internalType": "uint256",
          "name": "amount",
          "type": "uint256"
        },
        {
          "indexed": false,
          "internalType": "uint256",
          "name": "price",
          "type": "uint256"
        },
        {
          "indexed": false,
          "internalType": "uint256",
          "name": "tradingFee",
          "type": "uint256"
        },
        {
          "indexed": false,
          "internalType": "uint256",
          "name": "leverage",
          "type": "uint256"
        },
        {
          "indexed": false,
          "internalType": "uint256",
          "name": "marginAmount",
          "type": "uint256"
        },
        {
          "indexed": false,
          "internalType": "uint256",
          "name": "profit",
          "type": "uint256"
        },
        {
          "indexed": false,
          "internalType": "uint256",
          "name": "loss",
          "type": "uint256"
        },
        {
          "indexed": false,
          "internalType": "uint256",
          "name": "timestamp",
          "type": "uint256"
        }
      ],
      "name": "TradeHistory",
      "type": "event"
    },
    {
      "anonymous": false,
      "inputs": [
        {
          "indexed": true,
          "internalType": "address",
          "name": "token",
          "type": "address"
        },
        {
          "indexed": true,
          "internalType": "address",
          "name": "sender",
          "type": "address"
        },
        {
          "indexed": true,
          "internalType": "address",
          "name": "received",
          "type": "address"
        },
        {
          "indexed": false,
          "internalType": "enum ICommon.TransactionType",
          "name": "transactionType",
          "type": "uint8"
        },
        {
          "indexed": false,
          "internalType": "uint256",
          "name": "amount",
          "type": "uint256"
        },
        {
          "indexed": false,
          "internalType": "uint256",
          "name": "timestamp",
          "type": "uint256"
        }
      ],
      "name": "TransactionHistory",
      "type": "event"
    },
    {
      "anonymous": false,
      "inputs": [
        {
          "indexed": false,
          "internalType": "address",
          "name": "token",
          "type": "address"
        },
        {
          "indexed": false,
          "internalType": "address",
          "name": "sender",
          "type": "address"
        },
        {
          "indexed": false,
          "internalType": "string",
          "name": "name",
          "type": "string"
        },
        {
          "indexed": false,
          "internalType": "uint256",
          "name": "beforeLeverage",
          "type": "uint256"
        },
        {
          "indexed": false,
          "internalType": "uint256",
          "name": "afterLeverage",
          "type": "uint256"
        }
      ],
      "name": "setLeverage",
      "type": "event"
    },
    {
      "stateMutability": "nonpayable",
      "type": "fallback"
    },
    {
      "inputs": [],
      "name": "buybackAddr",
      "outputs": [
        {
          "internalType": "address",
          "name": "",
          "type": "address"
        }
      ],
      "stateMutability": "view",
      "type": "function"
    },
    {
      "inputs": [
        {
          "internalType": "uint256[]",
          "name": "_orderIDs",
          "type": "uint256[]"
        }
      ],
      "name": "cancelOrders",
      "outputs": [],
      "stateMutability": "nonpayable",
      "type": "function"
    },
    {
      "inputs": [
        {
          "internalType": "address",
          "name": "_token",
          "type": "address"
        },
        {
          "internalType": "uint256",
          "name": "_amount",
          "type": "uint256"
        }
      ],
      "name": "deposit",
      "outputs": [],
      "stateMutability": "nonpayable",
      "type": "function"
    },
    {
      "inputs": [
        {
          "internalType": "address",
          "name": "_token",
          "type": "address"
        },
        {
          "internalType": "address",
          "name": "_taker",
          "type": "address"
        },
        {
          "internalType": "uint256",
          "name": "_stage",
          "type": "uint256"
        }
      ],
      "name": "emitTakerBalance",
      "outputs": [],
      "stateMutability": "nonpayable",
      "type": "function"
    },
    {
      "inputs": [],
      "name": "getTokenList",
      "outputs": [
        {
          "internalType": "address[]",
          "name": "",
          "type": "address[]"
        }
      ],
      "stateMutability": "view",
      "type": "function"
    },
    {
      "inputs": [],
      "name": "getTradingPairs",
      "outputs": [
        {
          "internalType": "string[]",
          "name": "",
          "type": "string[]"
        }
      ],
      "stateMutability": "view",
      "type": "function"
    },
    {
      "inputs": [
        {
          "internalType": "string",
          "name": "_name",
          "type": "string"
        }
      ],
      "name": "getUnderlying",
      "outputs": [
        {
          "internalType": "contract Underlying",
          "name": "",
          "type": "address"
        }
      ],
      "stateMutability": "view",
      "type": "function"
    },
    {
      "inputs": [
        {
          "internalType": "address",
          "name": "_token",
          "type": "address"
        },
        {
          "internalType": "address",
          "name": "_taker",
          "type": "address"
        }
      ],
      "name": "getUserAccount",
      "outputs": [
        {
          "components": [
            {
              "internalType": "uint256",
              "name": "depositAmount",
              "type": "uint256"
            },
            {
              "internalType": "uint256",
              "name": "availableAmount",
              "type": "uint256"
            },
            {
              "internalType": "uint256",
              "name": "marginAmount",
              "type": "uint256"
            },
            {
              "internalType": "uint256",
              "name": "orderLocked",
              "type": "uint256"
            },
            {
              "internalType": "uint256",
              "name": "lastTime",
              "type": "uint256"
            }
          ],
          "internalType": "struct IPerpetual.AccountInfo",
          "name": "user",
          "type": "tuple"
        }
      ],
      "stateMutability": "view",
      "type": "function"
    },
    {
      "inputs": [
        {
          "internalType": "address",
          "name": "_token",
          "type": "address"
        }
      ],
      "name": "getUserAddress",
      "outputs": [
        {
          "internalType": "address[]",
          "name": "",
          "type": "address[]"
        }
      ],
      "stateMutability": "view",
      "type": "function"
    },
    {
      "inputs": [
        {
          "internalType": "address",
          "name": "_token",
          "type": "address"
        },
        {
          "internalType": "address",
          "name": "_user",
          "type": "address"
        },
        {
          "internalType": "string",
          "name": "_name",
          "type": "string"
        }
      ],
      "name": "getUserLeverage",
      "outputs": [
        {
          "internalType": "uint256",
          "name": "",
          "type": "uint256"
        }
      ],
      "stateMutability": "view",
      "type": "function"
    },
    {
      "inputs": [
        {
          "internalType": "address",
          "name": "_priPool",
          "type": "address"
        },
        {
          "internalType": "address",
          "name": "_riskFundAddr",
          "type": "address"
        },
        {
          "internalType": "address",
          "name": "_tradeFeeAddr",
          "type": "address"
        },
        {
          "internalType": "address",
          "name": "_platformTradeFeeAddr",
          "type": "address"
        }
      ],
      "name": "initialize",
      "outputs": [],
      "stateMutability": "nonpayable",
      "type": "function"
    },
    {
      "inputs": [
        {
          "internalType": "uint256[]",
          "name": "_dealIDs",
          "type": "uint256[]"
        },
        {
          "internalType": "string[]",
          "name": "_symbols",
          "type": "string[]"
        },
        {
          "internalType": "bytes[]",
          "name": "_priceUpdate",
          "type": "bytes[]"
        }
      ],
      "name": "liquidateMakerDeals",
      "outputs": [],
      "stateMutability": "payable",
      "type": "function"
    },
    {
      "inputs": [
        {
          "internalType": "address[]",
          "name": "_token",
          "type": "address[]"
        },
        {
          "internalType": "address[]",
          "name": "_taker",
          "type": "address[]"
        },
        {
          "internalType": "string[]",
          "name": "_symbols",
          "type": "string[]"
        },
        {
          "internalType": "bytes[]",
          "name": "_priceUpdate",
          "type": "bytes[]"
        }
      ],
      "name": "liquidateTaker",
      "outputs": [],
      "stateMutability": "payable",
      "type": "function"
    },
    {
      "inputs": [],
      "name": "maintenanceMarginRate",
      "outputs": [
        {
          "internalType": "uint256",
          "name": "",
          "type": "uint256"
        }
      ],
      "stateMutability": "view",
      "type": "function"
    },
    {
      "inputs": [],
      "name": "marketAgent",
      "outputs": [
        {
          "internalType": "contract MarketAgent",
          "name": "",
          "type": "address"
        }
      ],
      "stateMutability": "view",
      "type": "function"
    },
    {
      "inputs": [],
      "name": "orderBook",
      "outputs": [
        {
          "internalType": "contract OrderBook",
          "name": "",
          "type": "address"
        }
      ],
      "stateMutability": "view",
      "type": "function"
    },
    {
      "inputs": [],
      "name": "owner",
      "outputs": [
        {
          "internalType": "address",
          "name": "",
          "type": "address"
        }
      ],
      "stateMutability": "view",
      "type": "function"
    },
    {
      "inputs": [],
      "name": "platformTradeFeeAddr",
      "outputs": [
        {
          "internalType": "address",
          "name": "",
          "type": "address"
        }
      ],
      "stateMutability": "view",
      "type": "function"
    },
    {
      "inputs": [],
      "name": "privatePool",
      "outputs": [
        {
          "internalType": "address",
          "name": "",
          "type": "address"
        }
      ],
      "stateMutability": "view",
      "type": "function"
    },
    {
      "inputs": [],
      "name": "renounceOwnership",
      "outputs": [],
      "stateMutability": "nonpayable",
      "type": "function"
    },
    {
      "inputs": [],
      "name": "riskFundAddr",
      "outputs": [
        {
          "internalType": "address",
          "name": "",
          "type": "address"
        }
      ],
      "stateMutability": "view",
      "type": "function"
    },
    {
      "inputs": [
        {
          "internalType": "address",
          "name": "_buyBack",
          "type": "address"
        },
        {
          "internalType": "address",
          "name": "_orderBook",
          "type": "address"
        },
        {
          "internalType": "address",
          "name": "_tradeAgent",
          "type": "address"
        },
        {
          "internalType": "address",
          "name": "_tradeStation",
          "type": "address"
        },
        {
          "internalType": "address",
          "name": "_marketAgent",
          "type": "address"
        },
        {
          "internalType": "address",
          "name": "_keeper",
          "type": "address"
        }
      ],
      "name": "setKeepers",
      "outputs": [],
      "stateMutability": "nonpayable",
      "type": "function"
    },
    {
      "inputs": [
        {
          "internalType": "address",
          "name": "_platform",
          "type": "address"
        },
        {
          "internalType": "address",
          "name": "_tradeFee",
          "type": "address"
        },
        {
          "internalType": "bool",
          "name": "_mergeRemainingFeeToBuyBack",
          "type": "bool"
        }
      ],
      "name": "setTradeFeeAddr",
      "outputs": [],
      "stateMutability": "nonpayable",
      "type": "function"
    },
    {
      "inputs": [
        {
          "internalType": "string",
          "name": "_name",
          "type": "string"
        },
        {
          "internalType": "address",
          "name": "_underlying",
          "type": "address"
        }
      ],
      "name": "setUnderlying",
      "outputs": [],
      "stateMutability": "nonpayable",
      "type": "function"
    },
    {
      "inputs": [
        {
          "internalType": "address",
          "name": "_token",
          "type": "address"
        },
        {
          "internalType": "string",
          "name": "_name",
          "type": "string"
        },
        {
          "internalType": "uint256",
          "name": "_leverage",
          "type": "uint256"
        }
      ],
      "name": "setUserLeverage",
      "outputs": [],
      "stateMutability": "nonpayable",
      "type": "function"
    },
    {
      "inputs": [
        {
          "internalType": "address",
          "name": "token",
          "type": "address"
        },
        {
          "internalType": "address",
          "name": "takerAddr",
          "type": "address"
        },
        {
          "internalType": "uint256",
          "name": "tradingFee",
          "type": "uint256"
        }
      ],
      "name": "splitTradeFee",
      "outputs": [],
      "stateMutability": "nonpayable",
      "type": "function"
    },
    {
      "inputs": [
        {
          "internalType": "string",
          "name": "_name",
          "type": "string"
        },
        {
          "internalType": "address",
          "name": "_token",
          "type": "address"
        },
        {
          "internalType": "uint256",
          "name": "_amount",
          "type": "uint256"
        },
        {
          "internalType": "enum ICommon.Direct",
          "name": "_type",
          "type": "uint8"
        },
        {
          "internalType": "enum ICommon.Offset",
          "name": "_offset",
          "type": "uint8"
        },
        {
          "internalType": "uint256",
          "name": "_param1",
          "type": "uint256"
        },
        {
          "internalType": "uint256",
          "name": "_param2",
          "type": "uint256"
        },
        {
          "internalType": "uint256",
          "name": "_param3",
          "type": "uint256"
        },
        {
          "internalType": "uint256",
          "name": "_param4",
          "type": "uint256"
        },
        {
          "internalType": "uint256",
          "name": "_goodTill",
          "type": "uint256"
        },
        {
          "internalType": "uint256",
          "name": "_deadline",
          "type": "uint256"
        }
      ],
      "name": "stopTakeOrder",
      "outputs": [],
      "stateMutability": "payable",
      "type": "function"
    },
    {
      "inputs": [
        {
          "internalType": "string",
          "name": "_name",
          "type": "string"
        },
        {
          "internalType": "address",
          "name": "_token",
          "type": "address"
        },
        {
          "internalType": "uint256",
          "name": "_amount",
          "type": "uint256"
        },
        {
          "internalType": "uint256",
          "name": "_price",
          "type": "uint256"
        },
        {
          "internalType": "uint256",
          "name": "_orderType",
          "type": "uint256"
        },
        {
          "internalType": "enum ICommon.Offset",
          "name": "_offset",
          "type": "uint8"
        },
        {
          "internalType": "enum ICommon.Direct",
          "name": "_type",
          "type": "uint8"
        },
        {
          "internalType": "uint256",
          "name": "_goodTill",
          "type": "uint256"
        },
        {
          "internalType": "uint256",
          "name": "_deadline",
          "type": "uint256"
        },
        {
          "internalType": "bytes",
          "name": "_priceUpdate",
          "type": "bytes"
        }
      ],
      "name": "trade",
      "outputs": [],
      "stateMutability": "payable",
      "type": "function"
    },
    {
      "inputs": [],
      "name": "tradeAgent",
      "outputs": [
        {
          "internalType": "contract TradeAgent",
          "name": "",
          "type": "address"
        }
      ],
      "stateMutability": "view",
      "type": "function"
    },
    {
      "inputs": [],
      "name": "tradeFeeAddr",
      "outputs": [
        {
          "internalType": "address",
          "name": "",
          "type": "address"
        }
      ],
      "stateMutability": "view",
      "type": "function"
    },
    {
      "inputs": [],
      "name": "tradeStation",
      "outputs": [
        {
          "internalType": "contract TradeStation",
          "name": "",
          "type": "address"
        }
      ],
      "stateMutability": "view",
      "type": "function"
    },
    {
      "inputs": [
        {
          "internalType": "address",
          "name": "newOwner",
          "type": "address"
        }
      ],
      "name": "transferOwnership",
      "outputs": [],
      "stateMutability": "nonpayable",
      "type": "function"
    },
    {
      "inputs": [
        {
          "internalType": "uint256[]",
          "name": "_orderIDs",
          "type": "uint256[]"
        },
        {
          "internalType": "string[]",
          "name": "_symbols",
          "type": "string[]"
        },
        {
          "internalType": "bytes[]",
          "name": "_priceUpdate",
          "type": "bytes[]"
        }
      ],
      "name": "triggerOrders",
      "outputs": [],
      "stateMutability": "payable",
      "type": "function"
    },
    {
      "inputs": [
        {
          "internalType": "address",
          "name": "_token",
          "type": "address"
        },
        {
          "internalType": "address",
          "name": "_taker",
          "type": "address"
        },
        {
          "components": [
            {
              "internalType": "uint256",
              "name": "depositAmount",
              "type": "uint256"
            },
            {
              "internalType": "uint256",
              "name": "availableAmount",
              "type": "uint256"
            },
            {
              "internalType": "uint256",
              "name": "marginAmount",
              "type": "uint256"
            },
            {
              "internalType": "uint256",
              "name": "orderLocked",
              "type": "uint256"
            },
            {
              "internalType": "uint256",
              "name": "lastTime",
              "type": "uint256"
            }
          ],
          "internalType": "struct IPerpetual.AccountInfo",
          "name": "userInfo",
          "type": "tuple"
        }
      ],
      "name": "updateUserAsset",
      "outputs": [],
      "stateMutability": "nonpayable",
      "type": "function"
    },
    {
      "inputs": [
        {
          "internalType": "string[]",
          "name": "_symbols",
          "type": "string[]"
        },
        {
          "internalType": "bytes[]",
          "name": "_prices",
          "type": "bytes[]"
        }
      ],
      "name": "verifyPrice",
      "outputs": [
        {
          "internalType": "uint256[]",
          "name": "prices",
          "type": "uint256[]"
        }
      ],
      "stateMutability": "payable",
      "type": "function"
    },
    {
      "inputs": [
        {
          "internalType": "address",
          "name": "_token",
          "type": "address"
        },
        {
          "internalType": "uint256",
          "name": "_amount",
          "type": "uint256"
        },
        {
          "internalType": "string[]",
          "name": "_symbols",
          "type": "string[]"
        },
        {
          "internalType": "bytes[]",
          "name": "_priceUpdate",
          "type": "bytes[]"
        }
      ],
      "name": "withdraw",
      "outputs": [],
      "stateMutability": "payable",
      "type": "function"
    }
  ],
  "bytecode": "0x60808060405234601557613fe5908161001a8239f35b5f80fdfe60806040526004361015610019575b3461001557005b5f80fd5b5f5f3560e01c806305ca57cf146120155780630c41899814611fef5780630eed74c014611fbe578063273cbaa014611f4a578063273e763814611c9157806334d57a2014611c6b5780633851969e14611ba6578063402d712c14611afe57806347e7ef241461189f5780634d6849d21461182157806356601435146117fa5780635671c19a1461179557806359b5e75e1461176e5780635c39e3781461142157806369a0eeb8146113fa578063702c2b741461136c578063708b8d86146110f3578063715018a61461105a578063776af5ba1461103357806389f00b6d146110155780638da5cb5b14610fcf5780639c59b33a14610f11578063a70dc3fe14610eea578063b55fb57414610e0e578063b5c926f414610d9f578063b8d771d414610cd2578063ccf1a4b214610c06578063cd2ce4ae14610ae9578063d3c2d8b7146109ae578063e08061b314610987578063e448cc411461089b578063ec4f02b91461069d578063f2fde38b14610670578063f348285b14610649578063f74c3049146105005763f8c8765e146101b0575061000e565b346104fd5760806003193601126104fd576101c9612123565b906101d2612139565b6101da61214f565b906101e3612165565b917ff0c57e16840df040f15088dc2f81fe391c3923bec73e23a9662efc9c229c6a00549460ff8660401c16159567ffffffffffffffff8116801590816104f5575b60011490816104eb575b1590816104e2575b506104ba576001600160a01b0394939192858094838a60017fffffffffffffffffffffffffffffffffffffffffffffffff0000000000000000859716177ff0c57e16840df040f15088dc2f81fe391c3923bec73e23a9662efc9c229c6a0055610465575b506102a3613f58565b6102ab613f58565b6102b433613456565b6102bc613f58565b6102c4613f58565b60017f9b779b17422d0df92223018b32b4d1fa46e071723d6817e2486d003becc55f005516806001600160a01b0319600a541617600a558752600f60205260408720600160ff19825416179055166001600160a01b03196008541617600855166001600160a01b03196007541617600755166001600160a01b03196009541617600955308152600f60205260408120600160ff19825416179055338152600f60205260408120600160ff19825416179055670de0b6b3a7640000815566038d7ea4c6800060015567016345785d8a0000600255506702c68af0bb1400006003557fffffffffffffffffffffff00ffffffffffffffffffffffffffffffffffffffff600e5416600e556103d257005b7fffffffffffffffffffffffffffffffffffffffffffffff00ffffffffffffffff7ff0c57e16840df040f15088dc2f81fe391c3923bec73e23a9662efc9c229c6a0054167ff0c57e16840df040f15088dc2f81fe391c3923bec73e23a9662efc9c229c6a00557fc7f505b2f371ae2175ee4913f4499e1f2633a7b5936321eed1cdaeb6115181d2602060405160018152a1005b7fffffffffffffffffffffffffffffffffffffffffffffff0000000000000000001668010000000000000001177ff0c57e16840df040f15088dc2f81fe391c3923bec73e23a9662efc9c229c6a00555f61029a565b6004867ff92ee8a9000000000000000000000000000000000000000000000000000000008152fd5b9050155f610236565b303b15915061022e565b889150610224565b80fd5b50346104fd5760c06003193601126104fd5761051a612123565b610522612139565b61052a61214f565b91610533612165565b608435926001600160a01b0384168094036106455760a435946001600160a01b038616809603610641576001600160a01b03809492818094610573613cd5565b166001600160a01b0319600654161760065516806001600160a01b0319600b541617600b558752600f60205260408720600160ff1982541617905516806001600160a01b0319600c541617600c558552600f60205260408520600160ff1982541617905516806001600160a01b0319600e541617600e558352600f60205260408320600160ff19825416179055806001600160a01b0319600d541617600d558252600f60205260408220600160ff198254161790558152600f60205260408120600160ff1982541617905580f35b8680fd5b8580fd5b50346104fd57806003193601126104fd5760206001600160a01b0360075416604051908152f35b50346104fd5760206003193601126104fd5761069a61068d612123565b610695613cd5565b613456565b80f35b506101606003193601126104fd5760043567ffffffffffffffff8111610897576106cb903690600401612105565b6106d3612139565b6044359060643592600384101561089357608435906003821015610645576106f961369e565b61070842610144351015612aca565b61071a6509184e72a000850615612b15565b61072381613c41565b9590851061084f576107388796341015612b7e565b6001600160a01b03600e541691823b156106415786946001600160a01b039461079b93604051988997889687967f810c8af6000000000000000000000000000000000000000000000000000000008852610160600489015261016488019061242c565b9416602486015260448501526107b081612b60565b60648401526107be81612b60565b608483015260a43560a483015260c43560c483015260e43560e4830152610104356101048301526101243561012483015233610144830152039134905af180156108445761082f575b5060017f9b779b17422d0df92223018b32b4d1fa46e071723d6817e2486d003becc55f005580f35b8161083991612090565b6104fd57805f610807565b6040513d84823e3d90fd5b606460405162461bcd60e51b815260206004820152601560248201527f6f70656e20616d6f756e7420746f6f20736d616c6c00000000000000000000006044820152fd5b8480fd5b5080fd5b50346104fd5760e06003193601126104fd576108b5612123565b6108bd612139565b9060a07fffffffffffffffffffffffffffffffffffffffffffffffffffffffffffffffbc36011261098357600490604051926108f884612074565b604435845260208401606435815260408501906084358252606086019260a43584526001600160a01b03608088019560c4358752338a52600f60205261094460ff60408c2054166124c8565b42875216885260106020526001600160a01b036040892091165f5260205260405f20955186555160018601555160028501555160038401555191015580f35b8280fd5b50346104fd57806003193601126104fd5760206001600160a01b0360085416604051908152f35b50346104fd577fbbd1b090970f0e970b855e7b10fb629b05c0ea0c6e28e9b67a3573a05b947d316101006001600160a01b036109e93661217b565b92909116918286526010602052604086206001600160a01b0383165f5260205260405f209160405192610a1b84612074565b80548452600181015460208501818152610a61610a5960028501546040890194818652600460038801549760608c01988952015460808b01526128a8565b8451906128a8565b865181811115610ab75750610a7f6001600160a01b039188516128fd565b965b519151925193519460405198895216602088015260408701526060860152608085015260a084015260c083015260e0820152a180f35b9080821015610ad8576001600160a01b0391610ad2916128fd565b96610a81565b50506001600160a01b038a96610a81565b50346104fd57806003193601126104fd57601354610b06816121f7565b90610b146040519283612090565b808252601383527f66de8ffda797e3de9c05e8fc57b3bf0ec28a930d40b0d285d93c06501cf6a0909280602084015b838310610b645760405160208082528190610b6090820188612451565b0390f35b604051828754610b7381612bf2565b8084529060018116908115610be35750600114610bad575b5060019282610b9f85946020940382612090565b815201960192019194610b43565b888552602085208592505b818310610bcd57505081016020016001610b8b565b6001816020925483868801015201920191610bb8565b60ff191660208581019190915291151560051b8401909101915060019050610b8b565b50346104fd5760406003193601126104fd576001600160a01b036040610c2a612123565b9282610c34612139565b948260808551610c4381612074565b8281528260208201528287820152826060820152015216815260106020522091165f5260205260a060405f20604051610c7b81612074565b81549182825260018101546020830190815260028201549060408401918252608060046003850154946060870195865201549401938452604051948552516020850152516040840152516060830152516080820152f35b5060806003193601126104fd5760043567ffffffffffffffff811161089757610cff9036906004016123be565b60243567ffffffffffffffff811161098357610d1f9036906004016123be565b60443567ffffffffffffffff8111610d9b57610d3f90369060040161226c565b916064359267ffffffffffffffff841161089357610d64610d749436906004016122eb565b939092610d6f61369e565b612c3e565b60017f9b779b17422d0df92223018b32b4d1fa46e071723d6817e2486d003becc55f005580f35b8380fd5b5060406003193601126104fd5760043567ffffffffffffffff811161089757610dcc90369060040161226c565b906024359067ffffffffffffffff82116104fd57610b60610dfa84610df436600487016122eb565b91613715565b60405191829160208352602083019061238b565b50346104fd5760206003193601126104fd5760043567ffffffffffffffff811161089757610e4090369060040161220f565b81805b8251811015610ee6576001600160a01b03600c5416610e628285612c2a565b51813b15610d9b5783916064839260405194859384927fc2b3356400000000000000000000000000000000000000000000000000000000845260048401523360248401528160448401525af1908115610edb578391610ec6575b5050600101610e43565b81610ed091612090565b61089757815f610ebc565b6040513d85823e3d90fd5b5080f35b50346104fd57806003193601126104fd5760206001600160a01b0360095416604051908152f35b50346104fd5760606003193601126104fd57610f2b612123565b610f33612139565b60443591821515809303610d9b576001600160a01b038092338652600f602052610f6360ff6040882054166124c8565b166001600160a01b03196008541617600855166001600160a01b031960095416176009557fffffffffffffffffffffff00ffffffffffffffffffffffffffffffffffffffff74ff0000000000000000000000000000000000000000600e549260a01b16911617600e5580f35b50346104fd57806003193601126104fd5760206001600160a01b037f9016d09d72d40fdae2fd8ceac6b6234c7706214fd39c1cd1e609a0528c1993005416604051908152f35b50346104fd57806003193601126104fd576020600254604051908152f35b50346104fd57806003193601126104fd5760206001600160a01b03600b5416604051908152f35b50346104fd57806003193601126104fd57611073613cd5565b806001600160a01b037f9016d09d72d40fdae2fd8ceac6b6234c7706214fd39c1cd1e609a0528c199300546001600160a01b031981167f9016d09d72d40fdae2fd8ceac6b6234c7706214fd39c1cd1e609a0528c19930055167f8be0079c531659141344cd1fd0a4f28419497f9722a3daafe3b4186f6b6457e08280a380f35b50346104fd5760406003193601126104fd5760043567ffffffffffffffff811161089757611125903690600401612105565b9061112e612139565b338252600f60205261114660ff6040842054166124c8565b6040516001600160a01b03845191602081818801948086835e810160118152030190205416156111a6575b6001600160a01b0390602085604051928391518091835e8101601181520301902091166001600160a01b031982541617905580f35b60135468010000000000000000811015611358576001810160135560135481101561134457601384527f66de8ffda797e3de9c05e8fc57b3bf0ec28a930d40b0d285d93c06501cf6a0900193836113315780519467ffffffffffffffff861161131d576112138154612bf2565b601f81116112d8575b50602095601f811160011461126b579081602093926001600160a01b039697985f91611260575b508160011b915f199060031b1c19161790555b9493925050611171565b90508301515f611243565b601f198116825f52875f20905f5b8181106112c05750916001916001600160a01b03979899826020979695106112a8575b5050811b019055611256565b8501515f1960f88460031b161c191690555f8061129c565b858a015183556020998a019960019093019201611279565b815f5260205f20601f880160051c81019160208910611313575b601f0160051c01905b818110611308575061121c565b5f81556001016112fb565b90915081906112f2565b634e487b7160e01b5f52604160045260245ffd5b602484634e487b7160e01b815280600452fd5b602484634e487b7160e01b81526032600452fd5b602484634e487b7160e01b81526041600452fd5b50346104fd5760606003193601126104fd57611386612123565b61138e612139565b60443567ffffffffffffffff8111610d9b5760406020946001600160a01b036113bc81943690600401612105565b95168152601286522091165f5282526113d860405f20826124a9565b549081156113ea575b50604051908152f35b6113f491506135f5565b5f6113e1565b50346104fd57806003193601126104fd5760206001600160a01b03600d5416604051908152f35b506101406003193601126104fd5760043567ffffffffffffffff81116108975761144f903690600401612105565b611457612139565b9060443590606435926084359060a4359260038410156106415760c43591600383101561176a576101243567ffffffffffffffff81116117665736602382011215611766576114b09036906024816004013591016120cf565b6114b861369e565b6114c742610104351015612aca565b876114da6509184e72a000890615612b15565b34906114e585613c41565b9290506114f187612b60565b600187148015611753575b1561170f578b9a886116ac5750505050602061156e916001600160a01b036040518381885180838b01835e81016011815203019020541660405180809581947f1af189a4000000000000000000000000000000000000000000000000000000008352866004840152602483019061242c565b039134905af19081156116a157889161166c575b509187915b6001600160a01b03600e541694853b156116685789976001600160a01b03976115ea966040519b8c9a8b998a987ffb13637b000000000000000000000000000000000000000000000000000000008a5261014060048b01526101448a019061242c565b9616602488015260448701526064860152608485015261160981612b60565b60a484015261161781612b60565b60c483015260e43560e4830152336101048301528261012483015203925af180156108445761082f575060017f9b779b17422d0df92223018b32b4d1fa46e071723d6817e2486d003becc55f005580f35b8980fd5b9750506020873d602011611699575b8161168860209383612090565b81010312610015578796515f611582565b3d915061167b565b6040513d8a823e3d90fd5b9195935093919950156116cb576116c68a99341015612b7e565b611587565b606460405162461bcd60e51b815260206004820152600d60248201527f7072696365206973207a65726f000000000000000000000000000000000000006044820152fd5b606460405162461bcd60e51b815260206004820152600f60248201527f77726f6e6720646972656374696f6e00000000000000000000000000000000006044820152fd5b5061175d87612b60565b600287146114fc565b8880fd5b8780fd5b50346104fd57806003193601126104fd5760206001600160a01b03600a5416604051908152f35b5060806003193601126104fd576117aa612123565b60443567ffffffffffffffff8111610983576117ca90369060040161226c565b6064359167ffffffffffffffff8311610d9b576117ee61069a9336906004016122eb565b9290916024359061290a565b50346104fd57806003193601126104fd5760206001600160a01b03600c5416604051908152f35b50346104fd5760206003193601126104fd576001600160a01b03611843612123565b168152601460205260408120604051918260208354918281520192825260208220915b81811061188957610b608561187d81870382612090565b604051918291826121b5565b8254845260209093019260019283019201611866565b50346104fd5760406003193601126104fd576118b9612123565b6024356001548110611aba5782916118d382303384613950565b6001600160a01b038116918284526010602052604084206001600160a01b0333165f5260205260405f20611907338461320f565b6119128282546128a8565b8155600181016119238382546128a8565b9055838552601460205261194833604087206001915f520160205260405f2054151590565b15611a98575b506119593383613332565b604051906001825260208201524260408201523090837feb42cf637f927243245c50b4bf7fe105fe4f4d26209102240f2ba3d8e27a7df860603393a481835260056020526040832054156119ab575050f35b6119b58392613e04565b506001600160a01b03600a5416827fffffffff00000000000000000000000000000000000000000000000000000000601860206040516119f6604082612090565b828152017f617070726f766528616464726573732c75696e743235362900000000000000008152201691604051906020820193845260248201525f19604482015260448152611a46606482612090565b51925af1611a52613921565b81611a61575b50156104fd5780f35b8051801592508215611a76575b50505f611a58565b8192509060209181010312610897576020611a9191016128b5565b5f80611a6e565b6004429101558284526014602052611ab33360408620613e74565b505f61194e565b606460405162461bcd60e51b815260206004820152601860248201527f6465706f73697420616d6f756e7420746f6f20736d616c6c00000000000000006044820152fd5b5080611b2b611b0c3661231c565b611b189491929461369e565b6001600160a01b03600e54169285613715565b90803b1561089357611b7093858094604051968795869485937fbcef60d700000000000000000000000000000000000000000000000000000000855260048501612871565b03925af180156108445761082f575060017f9b779b17422d0df92223018b32b4d1fa46e071723d6817e2486d003becc55f005580f35b50611bd2611bb33661231c565b611bbf9491929461369e565b6001600160a01b03600c54169285613715565b90803b1561001557611c17935f8094604051968795869485937feb4f2e3600000000000000000000000000000000000000000000000000000000855260048501612871565b03925af18015611c6057611c4d575060017f9b779b17422d0df92223018b32b4d1fa46e071723d6817e2486d003becc55f005580f35b611c5991505f90612090565b5f5f610807565b6040513d5f823e3d90fd5b34610015575f6003193601126100155760206001600160a01b03600e5416604051908152f35b3461001557606060031936011261001557611caa612123565b60243567ffffffffffffffff811161001557611cca903690600401612105565b604435906001600160a01b03604051602081845180838701835e810160118152030190205416611f0657611cfd816135f5565b8215159081611efb575b5015611eb7575f6001600160a01b0380600b54169416905b60028110611dcf57509081611dcc925f52601260205260405f206001600160a01b0333165f526020527f876c9e1723578de812ea7970374a8505b6086b8f573cea692c1e18c2e1c3dc27611d7660405f20846124a9565b54604051809184825233602083015260a06040830152611d9960a083018761242c565b9060608301528760808301520390a15f52601260205260405f206001600160a01b0333165f5260205260405f20906124a9565b55005b6040517f3a0204a90000000000000000000000000000000000000000000000000000000081528260048201523360248201526080604482015260808180611e19608482018861242c565b8560648301520381895afa908115611c60575f91611e83575b50611e3f57600101611d1f565b606460405162461bcd60e51b815260206004820152600b60248201527f65786973742061737365740000000000000000000000000000000000000000006044820152fd5b90506080813d8211611eaf575b81611e9d60809383612090565b81010312610015576020015186611e32565b3d9150611e90565b606460405162461bcd60e51b815260206004820152601560248201527f6c65766572616765206f7574206f6620312d31303000000000000000000000006044820152fd5b905082111584611d07565b606460405162461bcd60e51b815260206004820152600a60248201527f77726f6e67206e616d65000000000000000000000000000000000000000000006044820152fd5b34610015575f6003193601126100155760405180602060045491828152019060045f527f8a35acfbc15ff81a39ae7d344fd709f28e8600b4aa8c65c6b64bfe7fe36bd19b905f5b818110611fa857610b608561187d81870382612090565b8254845260209093019260019283019201611f91565b3461001557611fed611fcf3661217b565b91335f52600f602052611fe860ff60405f2054166124c8565b61256c565b005b34610015575f6003193601126100155760206001600160a01b0360065416604051908152f35b346100155760206003193601126100155760043567ffffffffffffffff8111610015576001600160a01b0360208061205281943690600401612105565b604051928184925191829101835e810160118152030190205416604051908152f35b60a0810190811067ffffffffffffffff82111761131d57604052565b90601f601f19910116810190811067ffffffffffffffff82111761131d57604052565b67ffffffffffffffff811161131d57601f01601f191660200190565b9291926120db826120b3565b916120e96040519384612090565b829481845281830111610015578281602093845f960137010152565b9080601f8301121561001557816020612120933591016120cf565b90565b600435906001600160a01b038216820361001557565b602435906001600160a01b038216820361001557565b604435906001600160a01b038216820361001557565b606435906001600160a01b038216820361001557565b6003196060910112610015576004356001600160a01b038116810361001557906024356001600160a01b0381168103610015579060443590565b60206040818301928281528451809452019201905f5b8181106121d85750505090565b82516001600160a01b03168452602093840193909201916001016121cb565b67ffffffffffffffff811161131d5760051b60200190565b9080601f83011215610015578135612226816121f7565b926122346040519485612090565b81845260208085019260051b82010192831161001557602001905b82821061225c5750505090565b813581526020918201910161224f565b9080601f83011215610015578135612283816121f7565b926122916040519485612090565b81845260208085019260051b820101918383116100155760208201905b8382106122bd57505050505090565b813567ffffffffffffffff8111610015576020916122e087848094880101612105565b8152019101906122ae565b9181601f840112156100155782359167ffffffffffffffff8311610015576020808501948460051b01011161001557565b60606003198201126100155760043567ffffffffffffffff811161001557816123479160040161220f565b9160243567ffffffffffffffff811161001557826123679160040161226c565b916044359067ffffffffffffffff821161001557612387916004016122eb565b9091565b90602080835192838152019201905f5b8181106123a85750505090565b825184526020938401939092019160010161239b565b9080601f83011215610015578135906123d6826121f7565b926123e46040519485612090565b82845260208085019360051b82010191821161001557602001915b81831061240c5750505090565b82356001600160a01b0381168103610015578152602092830192016123ff565b90601f19601f602080948051918291828752018686015e5f8582860101520116010190565b9080602083519182815201916020808360051b8301019401925f915b83831061247c57505050505090565b909192939460208061249a83601f198660019603018752895161242c565b9701930193019193929061246d565b6040518151909260209284929081908501845e82019081520301902090565b156124cf57565b606460405162461bcd60e51b815260206004820152601e60248201527f63616c6c6572206973206e6f742070657270657475616c206b656570657200006044820152fd5b51906001600160a01b038216820361001557565b8181029291811591840414171561253a57565b634e487b7160e01b5f52601160045260245ffd5b8115612558570490565b634e487b7160e01b5f52601260045260245ffd5b90821561286c57600d546001600160a01b0316925f80808087612799575b61263f97506125a661259e60035487612527565b5f549061254e565b949182816001600160a01b038416151580612791575b80612788575b612746575b50505050829080936001600160a01b03841615158061273d575b80612734575b6126f2575b505050506001600160a01b03600954169082908093831515806126e9575b806126e0575b6126a5575b5050505091829160ff600e5460a01c16612642575b8293506001600160a01b036008541691613511565b50565b9150916001600160a01b0360065416818115158061269c575b80612693575b612670575b505090829061262a565b61268c919250600b5f93612685838289613b28565b8587613ad1565b5f80612666565b50801515612661565b5080151561265b565b6126cc93945081115f146126d5576126bf82600e926128fd565b935b612685838289613b28565b5f808080612615565b9050600e5f936126c1565b50801515612610565b5081151561260a565b61272093945081115f146127295761270c82600c926128fd565b935b61271983828a613b28565b8688613ad1565b5f8080806125ec565b9050600c5f9361270e565b508015156125e7565b508115156125e1565b61277493945081115f1461277d57612760826011926128fd565b935b61276d83828c613b28565b888a613ad1565b5f8080806125c7565b905060115f93612762565b508015156125c2565b5060016125bc565b50506040517f9594bd1b0000000000000000000000000000000000000000000000000000000081526001600160a01b0386811660048301528516602482015260448101849052956080925086915060649082905f905af18015611c60575f905f905f905f90612811575b61263f97509091929161258a565b505050506080843d608011612864575b8161282e60809383612090565b81010312610015578361284361263f95612513565b90602081015191606061285860408401612513565b92015190929190612803565b3d9150612821565b505050565b9161289a9061288c612120959360608652606086019061238b565b908482036020860152612451565b91604081840391015261238b565b9190820180921161253a57565b5190811515820361001557565b926001600160a01b036121209593816128ef94168652166020850152608060408501526080840190612451565b91606081840391015261238b565b9190820391821161253a57565b9391604090612963929461292c5f956001600160a01b03600c54169284613715565b9183518095819482937fd15a1b41000000000000000000000000000000000000000000000000000000008452338c600486016128c2565b03915afa908115611c60575f905f92612a89575b5015612a81575b50811561286c576001600160a01b03831692835f52601060205260405f206001600160a01b0333165f5260205260405f20916129ba338361320f565b60018301906129cb825491866128a8565b8110612a3d57846129ec91856129e583612a0098546128fd565b90556128fd565b90556129f9833383613b28565b3390613332565b6040519060028252602082015242604082015233917feb42cf637f927243245c50b4bf7fe105fe4f4d26209102240f2ba3d8e27a7df860603093a4565b606460405162461bcd60e51b815260206004820152601960248201527f776974686472657720616d6f756e7420746f6f206c61726765000000000000006044820152fd5b90505f61297e565b9150506040813d604011612ac2575b81612aa560409383612090565b81010312610015576020612ab8826128b5565b910151905f612977565b3d9150612a98565b15612ad157565b606460405162461bcd60e51b815260206004820152600760248201527f65787069726564000000000000000000000000000000000000000000000000006044820152fd5b15612b1c57565b606460405162461bcd60e51b815260206004820152601660248201527f616d6f756e7420707265636973696f6e206572726f72000000000000000000006044820152fd5b60031115612b6a57565b634e487b7160e01b5f52602160045260245ffd5b15612b8557565b606460405162461bcd60e51b815260206004820152600b60248201527f6c657373207265776172640000000000000000000000000000000000000000006044820152fd5b8054821015612bde575f5260205f2001905f90565b634e487b7160e01b5f52603260045260245ffd5b90600182811c92168015612c20575b6020831014612c0c57565b634e487b7160e01b5f52602260045260245ffd5b91607f1691612c01565b8051821015612bde5760209160051b010190565b93612c4b91959383613715565b915f5b8451811015613207575f5b86518110156131fe576001600160a01b03612c748388612c2a565b5116906001600160a01b03612c89828a612c2a565b5116825f52601060205260405f206001600160a01b0382165f52602052612cb460405f205484613d34565b80156131f257612cc4828561320f565b612d0e6080896001600160a01b03600c54168a6040518095819482937fd719606a0000000000000000000000000000000000000000000000000000000084528a8d600486016128c2565b03915afa908115611c60575f916131b9575b50612e2b575b50610100837fbbd1b090970f0e970b855e7b10fb629b05c0ea0c6e28e9b67a3573a05b947d31926001955f52601060205260405f206001600160a01b0382165f5260205260405f209060405191612d7c83612074565b805483528781015460208401818152612db9610a5960028501546040880194818652600460038801549760608b01988952015460808a01526128a8565b855181811115612e0b5750612dcf9086516128fd565b945b5190519151925193604051968752602087015260408601526060850152608084015260a0830152600b60c083015260e0820152a101612c59565b81811015612e2257612e1c916128fd565b94612dd1565b50505f94612dd1565b6001600160a01b036007541690612e428286613d5d565b604051927fdd62ed3e0000000000000000000000000000000000000000000000000000000084526004840152306024840152602083604481895afa8015611c605789935f91613181575b50612e9c612eb3915f5490612527565b612ead612ea889613ecc565b613d4f565b9061254e565b808211613179575b5060208a6001600160a01b03600e5416865f8a612f3e612edb888a6128a8565b95612f2c6040519b8c98899788967fc59b4d7800000000000000000000000000000000000000000000000000000000885260048801526024870152604486015260a0606486015260a4850190612451565b9060031984830301608485015261238b565b03925af1928315611c60575f9361311e575b509282869282600198877fbbd1b090970f0e970b855e7b10fb629b05c0ea0c6e28e9b67a3573a05b947d319861010098145f14612fe257505050612fa191506001600160a01b03600a541684613b28565b815f52601060205260405f206001600160a01b0382165f526020525f6004604082208281558289820155826002820155826003820155015592509350612d26565b9091928185115f1461308a576130717feb42cf637f927243245c50b4bf7fe105fe4f4d26209102240f2ba3d8e27a7df89261305f6060936130396001600160a01b0360075416613032858c6128fd565b9089613b28565b61305889613053856001600160a01b03600a5416946128a8565b6128fd565b9087613b28565b6001600160a01b0360075416966128fd565b60405190600882526020820152426040820152a4612fa1565b6131057feb42cf637f927243245c50b4bf7fe105fe4f4d26209102240f2ba3d8e27a7df89294956130f36060936130d96001600160a01b03600754166130d0858b6128fd565b9030908a613950565b613058836130538a6001600160a01b03600a5416946128a8565b6001600160a01b0360075416956128fd565b60405190600982526020820152426040820152a4612fa1565b92509490926020833d8211613171575b8161313b60209383612090565b810103126100155791519094919290917fbbd1b090970f0e970b855e7b10fb629b05c0ea0c6e28e9b67a3573a05b947d31612f50565b3d915061312e565b90505f612ebb565b9350506020833d82116131b1575b8161319c60209383612090565b81010312610015579151889290612e9c612e8c565b3d915061318f565b90506080813d82116131ea575b816131d360809383612090565b81010312610015576131e4906128b5565b5f612d20565b3d91506131c6565b50505050509350505050565b50600101612c4e565b509350505050565b7fbbd1b090970f0e970b855e7b10fb629b05c0ea0c6e28e9b67a3573a05b947d31916001600160a01b03610100921690815f52601060205260405f206001600160a01b0382165f5260205260405f20906040519161326c83612074565b805483526001810154602084018181526132aa610a5960028501546040880194818652600460038801549760608b01988952015460808a01526128a8565b85518181111561330057506132c86001600160a01b039187516128fd565b955b519151925193519460405197885216602087015260408601526060850152608084015260a08301525f60c083015260e0820152a1565b9080821015613321576001600160a01b039161331b916128fd565b956132ca565b50506001600160a01b035f956132ca565b7fbbd1b090970f0e970b855e7b10fb629b05c0ea0c6e28e9b67a3573a05b947d31916001600160a01b03610100921690815f52601060205260405f206001600160a01b0382165f5260205260405f20906040519161338f83612074565b805483526001810154602084018181526133cd610a5960028501546040880194818652600460038801549760608b01988952015460808a01526128a8565b85518181111561342457506133eb6001600160a01b039187516128fd565b955b519151925193519460405197885216602087015260408601526060850152608084015260a0830152600a60c083015260e0820152a1565b9080821015613445576001600160a01b039161343f916128fd565b956133ed565b50506001600160a01b035f956133ed565b6001600160a01b031680156134e5576001600160a01b037f9016d09d72d40fdae2fd8ceac6b6234c7706214fd39c1cd1e609a0528c19930054826001600160a01b03198216177f9016d09d72d40fdae2fd8ceac6b6234c7706214fd39c1cd1e609a0528c19930055167f8be0079c531659141344cd1fd0a4f28419497f9722a3daafe3b4186f6b6457e05f80a3565b7f1e4fbdf7000000000000000000000000000000000000000000000000000000005f525f60045260245ffd5b92939091846001600160a01b038216151580613589575b80613580575b61353b575b505050505090565b61356a9495508281115f14613574579261355883600d94956128fd565b955b613565858483613b28565b613ad1565b5f80808080613533565b600d9250925f9561355a565b5082151561352e565b50801515613528565b908160c0910312610015576040519060c082019082821067ffffffffffffffff83111761131d5760a0916040528051835260208101516020840152604081015160408401526060810151606084015260808101516080840152015160a082015290565b60405181516001600160a01b0392602091839181908401835e601190820190815203019020541680156136985760c0600491604051928380927f639122c90000000000000000000000000000000000000000000000000000000082525afa8015611c60576060915f91613669575b50015190565b61368b915060c03d60c011613691575b6136838183612090565b810190613592565b5f613663565b503d613679565b50606490565b60027f9b779b17422d0df92223018b32b4d1fa46e071723d6817e2486d003becc55f0054146136ed5760027f9b779b17422d0df92223018b32b4d1fa46e071723d6817e2486d003becc55f0055565b7f3ee5aeb5000000000000000000000000000000000000000000000000000000005f5260045ffd5b90929192838251036138dd5761372c82513461254e565b908251801561255857340693613741866121f7565b9361374f6040519586612090565b868552601f1961375e886121f7565b0136602087013784955f5b8251808210156138d1575f19810190811161253a5781146138c0575b6001600160a01b0360208061379a8487612c2a565b51604051928184925191829101835e8101601181520301902054169089811015612bde578060051b8601357fffffffffffffffffffffffffffffffffffffffffffffffffffffffffffffffe18736030181121561001557860180359067ffffffffffffffff82116100155760200190803603821361001557601f93818a6044602095601f19604051998a97889687947f1af189a40000000000000000000000000000000000000000000000000000000086528b6004870152816024870152868601375f858286010152011681010301925af18015611c60575f9061388e575b60019250613887828a612c2a565b5201613769565b506020823d82116138b8575b816138a760209383612090565b810103126100155760019151613879565b3d915061389a565b94816138cb916128a8565b94613785565b50505050939450505050565b606460405162461bcd60e51b815260206004820152602060248201527f496e636f6e73697374656e74207072696365206172726179206c656e677468736044820152fd5b3d1561394b573d90613932826120b3565b916139406040519384612090565b82523d5f602084013e565b606090565b909261259e61396b91613965612ea885613ecc565b90612527565b80151580613abf575b80613aad575b613985575b50505050565b5f809493613a558295613a477fffffffff0000000000000000000000000000000000000000000000000000000060256040516139c2606082612090565b8181527f7432353629000000000000000000000000000000000000000000000000000000604060208301927f7472616e7366657246726f6d28616464726573732c616464726573732c75696e8452015220169560405194859360208501988952602485016001600160a01b036040929594938160608401971683521660208201520152565b03601f198101835282612090565b51925af1613a61613921565b81613a76575b5015610015575f80808061397f565b8051801592508215613a8b575b50505f613a67565b8192509060209181010312610015576020613aa691016128b5565b5f80613a83565b506001600160a01b038316151561397a565b506001600160a01b0384161515613974565b92939093604051926013821015612b6a576001600160a01b038080927feb42cf637f927243245c50b4bf7fe105fe4f4d26209102240f2ba3d8e27a7df89560609588526020880152426040880152169616941692a4565b9161259e613b3c91613965612ea886613ecc565b9182151580613c2f575b613b4f57505050565b5f928380937fffffffff0000000000000000000000000000000000000000000000000000000060196020604051613b87604082612090565b828152017f7472616e7366657228616464726573732c75696e74323536290000000000000081522016926001600160a01b036040519260208401958652166024830152604482015260448152613bde606482612090565b51925af1613bea613921565b81613bf8575b501561001557565b8051801592508215613c0d575b50505f613bf0565b8192509060209181010312610015576020613c2891016128b5565b5f80613c05565b506001600160a01b0382161515613b46565b9060c06001600160a01b03602080600495604051928184925191829101835e810160118152030190205416604051938480927f639122c90000000000000000000000000000000000000000000000000000000082525afa918215611c60575f92613cb4575b506020604083015192015190565b613cce91925060c03d60c011613691576136838183612090565b905f613ca6565b6001600160a01b037f9016d09d72d40fdae2fd8ceac6b6234c7706214fd39c1cd1e609a0528c19930054163303613d0857565b7f118cdaa7000000000000000000000000000000000000000000000000000000005f523360045260245ffd5b613d3f903090613d5d565b808211613d4a575090565b905090565b604d811161253a57600a0a90565b6001600160a01b03604051927f70a082310000000000000000000000000000000000000000000000000000000084521660048301526020826024816001600160a01b0385165afa918215611c60575f92613dce575b50612ead612ea8613dc8612120945f5490612527565b92613ecc565b91506020823d602011613dfc575b81613de960209383612090565b8101031261001557905190612ead613db2565b3d9150613ddc565b805f52600560205260405f2054155f14613e6f576004546801000000000000000081101561131d57613e58613e428260018594016004556004612bc9565b819391549060031b91821b915f19901b19161790565b9055600454905f52600560205260405f2055600190565b505f90565b5f828152600182016020526040902054613ec6578054906801000000000000000082101561131d5782613eb1613e42846001809601855584612bc9565b90558054925f520160205260405f2055600190565b50505f90565b60206001600160a01b03916004604051809481937f313ce567000000000000000000000000000000000000000000000000000000008352165afa8015611c60575f90613f1b575b60ff91501690565b506020813d602011613f50575b81613f3560209383612090565b81010312610015575160ff811681036100155760ff90613f13565b3d9150613f28565b60ff7ff0c57e16840df040f15088dc2f81fe391c3923bec73e23a9662efc9c229c6a005460401c1615613f8757565b7fd7e6bcf8000000000000000000000000000000000000000000000000000000005f5260045ffdfea2646970667358221220b490b661f8a51b441e2f8a1576425b1abbd1c1a08c4cb1e9747c2b446871c32664736f6c634300081c0033",
  "linkReferences": {},
  "deployedLinkReferences": {}
}