{
  "_format": "hh-sol-artifact-1",
  "contractName": "Perpetual",
  "sourceName": "contracts/Perpetual.sol",
  "abi": [
    {
      "inputs": [],
      "name": "InvalidInitialization",
      "type": "error"
    },
    {
      "inputs": [],
      "name": "NotInitializing",
      "type": "error"
    },
    {
      "inputs": [
        {
          "internalType": "address",
          "name": "owner",
          "type": "address"
        }
      ],
      "name": "OwnableInvalidOwner",
      "type": "error"
    },
    {
      "inputs": [
        {
          "internalType": "address",
          "name": "account",
          "type": "address"
        }
      ],
      "name": "OwnableUnauthorizedAccount",
      "type": "error"
    },
    {
      "inputs": [],
      "name": "ReentrancyGuardReentrantCall",
      "type": "error"
    },
    {
      "anonymous": false,
      "inputs": [
        {
          "indexed": false,
          "internalType": "address",
          "name": "token",
          "type": "address"
        },
        {
          "indexed": false,
          "internalType": "address",
          "name": "holder",
          "type": "address"
        },
        {
          "indexed": false,
          "internalType": "string",
          "name": "name",
          "type": "string"
        },
        {
          "indexed": false,
          "internalType": "enum ICommon.Direct",
          "name": "direct",
          "type": "uint8"
        },
        {
          "indexed": false,
          "internalType": "uint256",
          "name": "value",
          "type": "uint256"
        },
        {
          "indexed": false,
          "internalType": "uint256",
          "name": "size",
          "type": "uint256"
        },
        {
          "indexed": false,
          "internalType": "uint256",
          "name": "margin",
          "type": "uint256"
        },
        {
          "indexed": false,
          "internalType": "uint256",
          "name": "freeze",
          "type": "uint256"
        }
      ],
      "name": "AccountPosition",
      "type": "event"
    },
    {
      "anonymous": false,
      "inputs": [
        {
          "indexed": false,
          "internalType": "address",
          "name": "token",
          "type": "address"
        },
        {
          "indexed": false,
          "internalType": "address",
          "name": "taker",
          "type": "address"
        },
        {
          "indexed": false,
          "internalType": "uint256",
          "name": "amount",
          "type": "uint256"
        },
        {
          "indexed": false,
          "internalType": "uint256",
          "name": "availableAmount",
          "type": "uint256"
        },
        {
          "indexed": false,
          "internalType": "uint256",
          "name": "marginAmount",
          "type": "uint256"
        },
        {
          "indexed": false,
          "internalType": "uint256",
          "name": "locked",
          "type": "uint256"
        },
        {
          "indexed": false,
          "internalType": "uint256",
          "name": "stage",
          "type": "uint256"
        },
        {
          "indexed": false,
          "internalType": "uint256",
          "name": "dif",
          "type": "uint256"
        }
      ],
      "name": "BalanceOfTaker",
      "type": "event"
    },
    {
      "anonymous": false,
      "inputs": [
        {
          "indexed": false,
          "internalType": "string",
          "name": "name",
          "type": "string"
        },
        {
          "indexed": true,
          "internalType": "address",
          "name": "taker",
          "type": "address"
        },
        {
          "indexed": true,
          "internalType": "address",
          "name": "token",
          "type": "address"
        },
        {
          "indexed": false,
          "internalType": "uint256",
          "name": "orderID",
          "type": "uint256"
        },
        {
          "indexed": false,
          "internalType": "enum ICommon.Direct",
          "name": "direct",
          "type": "uint8"
        },
        {
          "indexed": false,
          "internalType": "enum IPerpetual.OrderState",
          "name": "state",
          "type": "uint8"
        },
        {
          "indexed": false,
          "internalType": "enum ICommon.Offset",
          "name": "offset",
          "type": "uint8"
        },
        {
          "indexed": false,
          "internalType": "uint256",
          "name": "amount",
          "type": "uint256"
        },
        {
          "indexed": false,
          "internalType": "uint256",
          "name": "targetPrice",
          "type": "uint256"
        },
        {
          "indexed": false,
          "internalType": "uint256",
          "name": "margin",
          "type": "uint256"
        },
        {
          "indexed": false,
          "internalType": "uint256",
          "name": "rewardGas",
          "type": "uint256"
        },
        {
          "indexed": false,
          "internalType": "uint256",
          "name": "tradingFee",
          "type": "uint256"
        },
        {
          "indexed": false,
          "internalType": "uint256",
          "name": "startTime",
          "type": "uint256"
        },
        {
          "indexed": false,
          "internalType": "uint256",
          "name": "goodTill",
          "type": "uint256"
        }
      ],
      "name": "CreateLimitedOrder",
      "type": "event"
    },
    {
      "anonymous": false,
      "inputs": [
        {
          "indexed": false,
          "internalType": "uint256",
          "name": "limitOrderID",
          "type": "uint256"
        },
        {
          "indexed": false,
          "internalType": "uint256",
          "name": "openLimitPrice",
          "type": "uint256"
        },
        {
          "indexed": false,
          "internalType": "uint256",
          "name": "gainTriggerPrice",
          "type": "uint256"
        },
        {
          "indexed": false,
          "internalType": "uint256",
          "name": "gainLimitPrice",
          "type": "uint256"
        },
        {
          "indexed": false,
          "internalType": "uint256",
          "name": "lossTriggerPrice",
          "type": "uint256"
        },
        {
          "indexed": false,
          "internalType": "uint256",
          "name": "lossLimitPrice",
          "type": "uint256"
        }
      ],
      "name": "CreateTriggerCondition",
      "type": "event"
    },
    {
      "anonymous": false,
      "inputs": [
        {
          "indexed": false,
          "internalType": "uint256",
          "name": "code",
          "type": "uint256"
        },
        {
          "indexed": false,
          "internalType": "uint256",
          "name": "orderID",
          "type": "uint256"
        },
        {
          "indexed": false,
          "internalType": "string",
          "name": "message",
          "type": "string"
        }
      ],
      "name": "ErrorInfo",
      "type": "event"
    },
    {
      "anonymous": false,
      "inputs": [
        {
          "indexed": false,
          "internalType": "uint256",
          "name": "code",
          "type": "uint256"
        },
        {
          "indexed": false,
          "internalType": "uint256",
          "name": "orderID",
          "type": "uint256"
        },
        {
          "indexed": false,
          "internalType": "bytes",
          "name": "message",
          "type": "bytes"
        }
      ],
      "name": "ExceptErrorInfo",
      "type": "event"
    },
    {
      "anonymous": false,
      "inputs": [
        {
          "indexed": false,
          "internalType": "uint64",
          "name": "version",
          "type": "uint64"
        }
      ],
      "name": "Initialized",
      "type": "event"
    },
    {
      "anonymous": false,
      "inputs": [
        {
          "indexed": false,
          "internalType": "string",
          "name": "name",
          "type": "string"
        },
        {
          "indexed": true,
          "internalType": "address",
          "name": "taker",
          "type": "address"
        },
        {
          "indexed": true,
          "internalType": "address",
          "name": "token",
          "type": "address"
        },
        {
          "indexed": false,
          "internalType": "uint256",
          "name": "orderID",
          "type": "uint256"
        },
        {
          "indexed": false,
          "internalType": "enum ICommon.Direct",
          "name": "orderType",
          "type": "uint8"
        },
        {
          "indexed": false,
          "internalType": "enum IPerpetual.OrderState",
          "name": "state",
          "type": "uint8"
        },
        {
          "indexed": false,
          "internalType": "enum ICommon.Offset",
          "name": "offset",
          "type": "uint8"
        },
        {
          "indexed": false,
          "internalType": "uint256",
          "name": "amount",
          "type": "uint256"
        },
        {
          "indexed": false,
          "internalType": "uint256",
          "name": "targetPrice",
          "type": "uint256"
        },
        {
          "indexed": false,
          "internalType": "uint256",
          "name": "margin",
          "type": "uint256"
        },
        {
          "indexed": false,
          "internalType": "uint256",
          "name": "rewardGas",
          "type": "uint256"
        },
        {
          "indexed": false,
          "internalType": "uint256",
          "name": "tradingFee",
          "type": "uint256"
        },
        {
          "indexed": false,
          "internalType": "uint256",
          "name": "startTime",
          "type": "uint256"
        },
        {
          "indexed": false,
          "internalType": "uint256",
          "name": "goodTill",
          "type": "uint256"
        }
      ],
      "name": "LimitedOrderHistory",
      "type": "event"
    },
    {
      "anonymous": false,
      "inputs": [
        {
          "indexed": false,
          "internalType": "address",
          "name": "token",
          "type": "address"
        },
        {
          "indexed": false,
          "internalType": "address",
          "name": "taker",
          "type": "address"
        }
      ],
      "name": "LiquidateTaker",
      "type": "event"
    },
    {
      "anonymous": false,
      "inputs": [
        {
          "indexed": true,
          "internalType": "address",
          "name": "taker",
          "type": "address"
        },
        {
          "indexed": false,
          "internalType": "string",
          "name": "name",
          "type": "string"
        },
        {
          "indexed": false,
          "internalType": "address",
          "name": "token",
          "type": "address"
        },
        {
          "indexed": false,
          "internalType": "uint256",
          "name": "orderID",
          "type": "uint256"
        },
        {
          "indexed": false,
          "internalType": "enum ICommon.Direct",
          "name": "direction",
          "type": "uint8"
        },
        {
          "indexed": false,
          "internalType": "enum IPerpetual.OrderType",
          "name": "orderType",
          "type": "uint8"
        },
        {
          "indexed": false,
          "internalType": "uint256",
          "name": "amount",
          "type": "uint256"
        },
        {
          "indexed": false,
          "internalType": "uint256",
          "name": "costPrice",
          "type": "uint256"
        },
        {
          "indexed": false,
          "internalType": "uint256",
          "name": "price",
          "type": "uint256"
        },
        {
          "indexed": false,
          "internalType": "uint256",
          "name": "tradingFee",
          "type": "uint256"
        },
        {
          "indexed": false,
          "internalType": "uint256",
          "name": "leverage",
          "type": "uint256"
        },
        {
          "indexed": false,
          "internalType": "uint256",
          "name": "marginAmount",
          "type": "uint256"
        },
        {
          "indexed": false,
          "internalType": "uint256",
          "name": "limitOrderId",
          "type": "uint256"
        },
        {
          "indexed": false,
          "internalType": "uint256",
          "name": "timestamp",
          "type": "uint256"
        }
      ],
      "name": "OrderHistory",
      "type": "event"
    },
    {
      "anonymous": false,
      "inputs": [
        {
          "indexed": true,
          "internalType": "address",
          "name": "previousOwner",
          "type": "address"
        },
        {
          "indexed": true,
          "internalType": "address",
          "name": "newOwner",
          "type": "address"
        }
      ],
      "name": "OwnershipTransferred",
      "type": "event"
    },
    {
      "anonymous": false,
      "inputs": [
        {
          "indexed": false,
          "internalType": "address",
          "name": "token",
          "type": "address"
        },
        {
          "indexed": false,
          "internalType": "uint256",
          "name": "orderID",
          "type": "uint256"
        },
        {
          "indexed": false,
          "internalType": "uint256",
          "name": "dealID",
          "type": "uint256"
        },
        {
          "indexed": false,
          "internalType": "enum IPerpetual.TradeType",
          "name": "tradeType",
          "type": "uint8"
        },
        {
          "indexed": false,
          "internalType": "uint256",
          "name": "amount",
          "type": "uint256"
        },
        {
          "indexed": false,
          "internalType": "uint256",
          "name": "price",
          "type": "uint256"
        },
        {
          "indexed": false,
          "internalType": "uint256",
          "name": "tradingFee",
          "type": "uint256"
        },
        {
          "indexed": false,
          "internalType": "uint256",
          "name": "leverage",
          "type": "uint256"
        },
        {
          "indexed": false,
          "internalType": "uint256",
          "name": "marginAmount",
          "type": "uint256"
        },
        {
          "indexed": false,
          "internalType": "uint256",
          "name": "profit",
          "type": "uint256"
        },
        {
          "indexed": false,
          "internalType": "uint256",
          "name": "loss",
          "type": "uint256"
        },
        {
          "indexed": false,
          "internalType": "uint256",
          "name": "timestamp",
          "type": "uint256"
        }
      ],
      "name": "TradeHistory",
      "type": "event"
    },
    {
      "anonymous": false,
      "inputs": [
        {
          "indexed": true,
          "internalType": "address",
          "name": "token",
          "type": "address"
        },
        {
          "indexed": true,
          "internalType": "address",
          "name": "sender",
          "type": "address"
        },
        {
          "indexed": true,
          "internalType": "address",
          "name": "received",
          "type": "address"
        },
        {
          "indexed": false,
          "internalType": "enum ICommon.TransactionType",
          "name": "transactionType",
          "type": "uint8"
        },
        {
          "indexed": false,
          "internalType": "uint256",
          "name": "amount",
          "type": "uint256"
        },
        {
          "indexed": false,
          "internalType": "uint256",
          "name": "timestamp",
          "type": "uint256"
        }
      ],
      "name": "TransactionHistory",
      "type": "event"
    },
    {
      "anonymous": false,
      "inputs": [
        {
          "indexed": false,
          "internalType": "address",
          "name": "token",
          "type": "address"
        },
        {
          "indexed": false,
          "internalType": "address",
          "name": "sender",
          "type": "address"
        },
        {
          "indexed": false,
          "internalType": "string",
          "name": "name",
          "type": "string"
        },
        {
          "indexed": false,
          "internalType": "uint256",
          "name": "beforeLeverage",
          "type": "uint256"
        },
        {
          "indexed": false,
          "internalType": "uint256",
          "name": "afterLeverage",
          "type": "uint256"
        }
      ],
      "name": "setLeverage",
      "type": "event"
    },
    {
      "stateMutability": "nonpayable",
      "type": "fallback"
    },
    {
      "inputs": [],
      "name": "buybackAddr",
      "outputs": [
        {
          "internalType": "address",
          "name": "",
          "type": "address"
        }
      ],
      "stateMutability": "view",
      "type": "function"
    },
    {
      "inputs": [
        {
          "internalType": "uint256[]",
          "name": "_orderIDs",
          "type": "uint256[]"
        }
      ],
      "name": "cancelOrders",
      "outputs": [],
      "stateMutability": "nonpayable",
      "type": "function"
    },
    {
      "inputs": [
        {
          "internalType": "address",
          "name": "_token",
          "type": "address"
        },
        {
          "internalType": "uint256",
          "name": "_amount",
          "type": "uint256"
        }
      ],
      "name": "deposit",
      "outputs": [],
      "stateMutability": "nonpayable",
      "type": "function"
    },
    {
      "inputs": [
        {
          "internalType": "address",
          "name": "_token",
          "type": "address"
        },
        {
          "internalType": "address",
          "name": "_taker",
          "type": "address"
        },
        {
          "internalType": "uint256",
          "name": "_stage",
          "type": "uint256"
        }
      ],
      "name": "emitTakerBalance",
      "outputs": [],
      "stateMutability": "nonpayable",
      "type": "function"
    },
    {
      "inputs": [],
      "name": "getTokenList",
      "outputs": [
        {
          "internalType": "address[]",
          "name": "",
          "type": "address[]"
        }
      ],
      "stateMutability": "view",
      "type": "function"
    },
    {
      "inputs": [],
      "name": "getTradingPairs",
      "outputs": [
        {
          "internalType": "string[]",
          "name": "",
          "type": "string[]"
        }
      ],
      "stateMutability": "view",
      "type": "function"
    },
    {
      "inputs": [
        {
          "internalType": "string",
          "name": "_name",
          "type": "string"
        }
      ],
      "name": "getUnderlying",
      "outputs": [
        {
          "internalType": "contract Underlying",
          "name": "",
          "type": "address"
        }
      ],
      "stateMutability": "view",
      "type": "function"
    },
    {
      "inputs": [
        {
          "internalType": "address",
          "name": "_token",
          "type": "address"
        },
        {
          "internalType": "address",
          "name": "_taker",
          "type": "address"
        }
      ],
      "name": "getUserAccount",
      "outputs": [
        {
          "components": [
            {
              "internalType": "uint256",
              "name": "depositAmount",
              "type": "uint256"
            },
            {
              "internalType": "uint256",
              "name": "availableAmount",
              "type": "uint256"
            },
            {
              "internalType": "uint256",
              "name": "marginAmount",
              "type": "uint256"
            },
            {
              "internalType": "uint256",
              "name": "orderLocked",
              "type": "uint256"
            },
            {
              "internalType": "uint256",
              "name": "lastTime",
              "type": "uint256"
            }
          ],
          "internalType": "struct IPerpetual.AccountInfo",
          "name": "user",
          "type": "tuple"
        }
      ],
      "stateMutability": "view",
      "type": "function"
    },
    {
      "inputs": [
        {
          "internalType": "address",
          "name": "_token",
          "type": "address"
        }
      ],
      "name": "getUserAddress",
      "outputs": [
        {
          "internalType": "address[]",
          "name": "",
          "type": "address[]"
        }
      ],
      "stateMutability": "view",
      "type": "function"
    },
    {
      "inputs": [
        {
          "internalType": "address",
          "name": "_token",
          "type": "address"
        },
        {
          "internalType": "address",
          "name": "_user",
          "type": "address"
        },
        {
          "internalType": "string",
          "name": "_name",
          "type": "string"
        }
      ],
      "name": "getUserLeverage",
      "outputs": [
        {
          "internalType": "uint256",
          "name": "",
          "type": "uint256"
        }
      ],
      "stateMutability": "view",
      "type": "function"
    },
    {
      "inputs": [
        {
          "internalType": "address",
          "name": "_priPool",
          "type": "address"
        },
        {
          "internalType": "address",
          "name": "_riskFundAddr",
          "type": "address"
        },
        {
          "internalType": "address",
          "name": "_tradeFeeAddr",
          "type": "address"
        },
        {
          "internalType": "address",
          "name": "_platformTradeFeeAddr",
          "type": "address"
        }
      ],
      "name": "initialize",
      "outputs": [],
      "stateMutability": "nonpayable",
      "type": "function"
    },
    {
      "inputs": [
        {
          "internalType": "uint256[]",
          "name": "_dealIDs",
          "type": "uint256[]"
        },
        {
          "internalType": "string[]",
          "name": "_symbols",
          "type": "string[]"
        },
        {
          "internalType": "bytes[]",
          "name": "_priceUpdate",
          "type": "bytes[]"
        }
      ],
      "name": "liquidateMakerDeals",
      "outputs": [],
      "stateMutability": "payable",
      "type": "function"
    },
    {
      "inputs": [
        {
          "internalType": "address[]",
          "name": "_token",
          "type": "address[]"
        },
        {
          "internalType": "address[]",
          "name": "_taker",
          "type": "address[]"
        },
        {
          "internalType": "string[]",
          "name": "_symbols",
          "type": "string[]"
        },
        {
          "internalType": "bytes[]",
          "name": "_priceUpdate",
          "type": "bytes[]"
        }
      ],
      "name": "liquidateTaker",
      "outputs": [],
      "stateMutability": "payable",
      "type": "function"
    },
    {
      "inputs": [],
      "name": "maintenanceMarginRate",
      "outputs": [
        {
          "internalType": "uint256",
          "name": "",
          "type": "uint256"
        }
      ],
      "stateMutability": "view",
      "type": "function"
    },
    {
      "inputs": [],
      "name": "marketAgent",
      "outputs": [
        {
          "internalType": "contract MarketAgent",
          "name": "",
          "type": "address"
        }
      ],
      "stateMutability": "view",
      "type": "function"
    },
    {
      "inputs": [
        {
          "internalType": "string",
          "name": "_name",
          "type": "string"
        },
        {
          "internalType": "address",
          "name": "_token",
          "type": "address"
        },
        {
          "internalType": "uint256",
          "name": "_amount",
          "type": "uint256"
        },
        {
          "internalType": "enum ICommon.Offset",
          "name": "_offset",
          "type": "uint8"
        },
        {
          "internalType": "enum ICommon.Direct",
          "name": "_direct",
          "type": "uint8"
        },
        {
          "internalType": "uint256",
          "name": "_param1",
          "type": "uint256"
        },
        {
          "internalType": "uint256",
          "name": "_param2",
          "type": "uint256"
        },
        {
          "internalType": "uint256",
          "name": "_param3",
          "type": "uint256"
        },
        {
          "internalType": "uint256",
          "name": "_param4",
          "type": "uint256"
        },
        {
          "internalType": "uint256",
          "name": "_goodTill",
          "type": "uint256"
        },
        {
          "internalType": "uint256",
          "name": "_deadline",
          "type": "uint256"
        }
      ],
      "name": "ocoTrade",
      "outputs": [],
      "stateMutability": "payable",
      "type": "function"
    },
    {
      "inputs": [],
      "name": "orderBook",
      "outputs": [
        {
          "internalType": "contract OrderBook",
          "name": "",
          "type": "address"
        }
      ],
      "stateMutability": "view",
      "type": "function"
    },
    {
      "inputs": [],
      "name": "owner",
      "outputs": [
        {
          "internalType": "address",
          "name": "",
          "type": "address"
        }
      ],
      "stateMutability": "view",
      "type": "function"
    },
    {
      "inputs": [],
      "name": "platformTradeFeeAddr",
      "outputs": [
        {
          "internalType": "address",
          "name": "",
          "type": "address"
        }
      ],
      "stateMutability": "view",
      "type": "function"
    },
    {
      "inputs": [],
      "name": "privatePool",
      "outputs": [
        {
          "internalType": "address",
          "name": "",
          "type": "address"
        }
      ],
      "stateMutability": "view",
      "type": "function"
    },
    {
      "inputs": [],
      "name": "renounceOwnership",
      "outputs": [],
      "stateMutability": "nonpayable",
      "type": "function"
    },
    {
      "inputs": [],
      "name": "riskFundAddr",
      "outputs": [
        {
          "internalType": "address",
          "name": "",
          "type": "address"
        }
      ],
      "stateMutability": "view",
      "type": "function"
    },
    {
      "inputs": [
        {
          "internalType": "address",
          "name": "_buyBack",
          "type": "address"
        },
        {
          "internalType": "address",
          "name": "_orderBook",
          "type": "address"
        },
        {
          "internalType": "address",
          "name": "_tradeAgent",
          "type": "address"
        },
        {
          "internalType": "address",
          "name": "_tradeStation",
          "type": "address"
        },
        {
          "internalType": "address",
          "name": "_marketAgent",
          "type": "address"
        },
        {
          "internalType": "address",
          "name": "_keeper",
          "type": "address"
        }
      ],
      "name": "setKeepers",
      "outputs": [],
      "stateMutability": "nonpayable",
      "type": "function"
    },
    {
      "inputs": [
        {
          "internalType": "address",
          "name": "_platform",
          "type": "address"
        },
        {
          "internalType": "address",
          "name": "_tradeFee",
          "type": "address"
        },
        {
          "internalType": "bool",
          "name": "_mergeRemainingFeeToBuyBack",
          "type": "bool"
        }
      ],
      "name": "setTradeFeeAddr",
      "outputs": [],
      "stateMutability": "nonpayable",
      "type": "function"
    },
    {
      "inputs": [
        {
          "internalType": "string",
          "name": "_name",
          "type": "string"
        },
        {
          "internalType": "address",
          "name": "_underlying",
          "type": "address"
        }
      ],
      "name": "setUnderlying",
      "outputs": [],
      "stateMutability": "nonpayable",
      "type": "function"
    },
    {
      "inputs": [
        {
          "internalType": "address",
          "name": "_token",
          "type": "address"
        },
        {
          "internalType": "string",
          "name": "_name",
          "type": "string"
        },
        {
          "internalType": "uint256",
          "name": "_leverage",
          "type": "uint256"
        }
      ],
      "name": "setUserLeverage",
      "outputs": [],
      "stateMutability": "nonpayable",
      "type": "function"
    },
    {
      "inputs": [
        {
          "internalType": "address",
          "name": "token",
          "type": "address"
        },
        {
          "internalType": "address",
          "name": "takerAddr",
          "type": "address"
        },
        {
          "internalType": "uint256",
          "name": "tradingFee",
          "type": "uint256"
        }
      ],
      "name": "splitTradeFee",
      "outputs": [],
      "stateMutability": "nonpayable",
      "type": "function"
    },
    {
      "inputs": [
        {
          "internalType": "string",
          "name": "_name",
          "type": "string"
        },
        {
          "internalType": "address",
          "name": "_token",
          "type": "address"
        },
        {
          "internalType": "uint256",
          "name": "_amount",
          "type": "uint256"
        },
        {
          "internalType": "uint256",
          "name": "_price",
          "type": "uint256"
        },
        {
          "internalType": "uint256",
          "name": "_orderType",
          "type": "uint256"
        },
        {
          "internalType": "enum ICommon.Offset",
          "name": "_offset",
          "type": "uint8"
        },
        {
          "internalType": "enum ICommon.Direct",
          "name": "_type",
          "type": "uint8"
        },
        {
          "internalType": "uint256",
          "name": "_goodTill",
          "type": "uint256"
        },
        {
          "internalType": "uint256",
          "name": "_deadline",
          "type": "uint256"
        },
        {
          "internalType": "bytes",
          "name": "_priceUpdate",
          "type": "bytes"
        }
      ],
      "name": "trade",
      "outputs": [],
      "stateMutability": "payable",
      "type": "function"
    },
    {
      "inputs": [],
      "name": "tradeAgent",
      "outputs": [
        {
          "internalType": "contract TradeAgent",
          "name": "",
          "type": "address"
        }
      ],
      "stateMutability": "view",
      "type": "function"
    },
    {
      "inputs": [],
      "name": "tradeFeeAddr",
      "outputs": [
        {
          "internalType": "address",
          "name": "",
          "type": "address"
        }
      ],
      "stateMutability": "view",
      "type": "function"
    },
    {
      "inputs": [],
      "name": "tradeStation",
      "outputs": [
        {
          "internalType": "contract TradeStation",
          "name": "",
          "type": "address"
        }
      ],
      "stateMutability": "view",
      "type": "function"
    },
    {
      "inputs": [
        {
          "internalType": "address",
          "name": "newOwner",
          "type": "address"
        }
      ],
      "name": "transferOwnership",
      "outputs": [],
      "stateMutability": "nonpayable",
      "type": "function"
    },
    {
      "inputs": [
        {
          "internalType": "uint256[]",
          "name": "_orderIDs",
          "type": "uint256[]"
        },
        {
          "internalType": "string[]",
          "name": "_symbols",
          "type": "string[]"
        },
        {
          "internalType": "bytes[]",
          "name": "_priceUpdate",
          "type": "bytes[]"
        }
      ],
      "name": "triggerOrders",
      "outputs": [],
      "stateMutability": "payable",
      "type": "function"
    },
    {
      "inputs": [
        {
          "internalType": "address",
          "name": "_token",
          "type": "address"
        },
        {
          "internalType": "address",
          "name": "_taker",
          "type": "address"
        },
        {
          "components": [
            {
              "internalType": "uint256",
              "name": "depositAmount",
              "type": "uint256"
            },
            {
              "internalType": "uint256",
              "name": "availableAmount",
              "type": "uint256"
            },
            {
              "internalType": "uint256",
              "name": "marginAmount",
              "type": "uint256"
            },
            {
              "internalType": "uint256",
              "name": "orderLocked",
              "type": "uint256"
            },
            {
              "internalType": "uint256",
              "name": "lastTime",
              "type": "uint256"
            }
          ],
          "internalType": "struct IPerpetual.AccountInfo",
          "name": "userInfo",
          "type": "tuple"
        }
      ],
      "name": "updateUserAsset",
      "outputs": [],
      "stateMutability": "nonpayable",
      "type": "function"
    },
    {
      "inputs": [
        {
          "internalType": "string[]",
          "name": "_symbols",
          "type": "string[]"
        },
        {
          "internalType": "bytes[]",
          "name": "_prices",
          "type": "bytes[]"
        }
      ],
      "name": "verifyPrice",
      "outputs": [
        {
          "internalType": "uint256[]",
          "name": "prices",
          "type": "uint256[]"
        }
      ],
      "stateMutability": "payable",
      "type": "function"
    },
    {
      "inputs": [
        {
          "internalType": "address",
          "name": "_token",
          "type": "address"
        },
        {
          "internalType": "uint256",
          "name": "_amount",
          "type": "uint256"
        },
        {
          "internalType": "string[]",
          "name": "_symbols",
          "type": "string[]"
        },
        {
          "internalType": "bytes[]",
          "name": "_priceUpdate",
          "type": "bytes[]"
        }
      ],
      "name": "withdraw",
      "outputs": [],
      "stateMutability": "payable",
      "type": "function"
    }
  ],
  "bytecode": "0x60808060405234601557614025908161001a8239f35b5f80fdfe60806040526004361015610019575b3461001557005b5f80fd5b5f5f3560e01c806305ca57cf146120155780630c41899814611fef5780630eed74c014611fbe5780631dc1c3a314611da6578063273cbaa014611d31578063273e763814611a6a57806334d57a2014611a435780633851969e146119d1578063402d712c1461192957806347e7ef24146116ca5780634d6849d21461164c57806356601435146116255780635671c19a146115c057806359b5e75e146115995780635c39e3781461122b57806369a0eeb814611204578063702c2b7414611176578063708b8d8614610efd578063715018a614610e64578063776af5ba14610e3d57806389f00b6d14610e1f5780638da5cb5b14610dd95780639c59b33a14610d1b578063a70dc3fe14610cf4578063b55fb57414610c18578063b5c926f414610ba9578063b8d771d414610ad4578063ccf1a4b214610a08578063cd2ce4ae146108eb578063d3c2d8b7146107b0578063e08061b314610789578063e448cc411461069d578063f2fde38b14610670578063f348285b14610649578063f74c3049146105005763f8c8765e146101b0575061000e565b346104fd5760806003193601126104fd576101c9612139565b906101d2612123565b6101da61214f565b906101e3612165565b917ff0c57e16840df040f15088dc2f81fe391c3923bec73e23a9662efc9c229c6a00549460ff8660401c16159567ffffffffffffffff8116801590816104f5575b60011490816104eb575b1590816104e2575b506104ba576001600160a01b0394939192858094838a60017fffffffffffffffffffffffffffffffffffffffffffffffff0000000000000000859716177ff0c57e16840df040f15088dc2f81fe391c3923bec73e23a9662efc9c229c6a0055610465575b506102a3613f98565b6102ab613f98565b6102b433613496565b6102bc613f98565b6102c4613f98565b60017f9b779b17422d0df92223018b32b4d1fa46e071723d6817e2486d003becc55f005516806001600160a01b0319600a541617600a558752600f60205260408720600160ff19825416179055166001600160a01b03196008541617600855166001600160a01b03196007541617600755166001600160a01b03196009541617600955308152600f60205260408120600160ff19825416179055338152600f60205260408120600160ff19825416179055670de0b6b3a7640000815566038d7ea4c6800060015567016345785d8a0000600255506702c68af0bb1400006003557fffffffffffffffffffffff00ffffffffffffffffffffffffffffffffffffffff600e5416600e556103d257005b7fffffffffffffffffffffffffffffffffffffffffffffff00ffffffffffffffff7ff0c57e16840df040f15088dc2f81fe391c3923bec73e23a9662efc9c229c6a0054167ff0c57e16840df040f15088dc2f81fe391c3923bec73e23a9662efc9c229c6a00557fc7f505b2f371ae2175ee4913f4499e1f2633a7b5936321eed1cdaeb6115181d2602060405160018152a1005b7fffffffffffffffffffffffffffffffffffffffffffffff0000000000000000001668010000000000000001177ff0c57e16840df040f15088dc2f81fe391c3923bec73e23a9662efc9c229c6a00555f61029a565b6004867ff92ee8a9000000000000000000000000000000000000000000000000000000008152fd5b9050155f610236565b303b15915061022e565b889150610224565b80fd5b50346104fd5760c06003193601126104fd5761051a612139565b610522612123565b61052a61214f565b91610533612165565b608435926001600160a01b0384168094036106455760a435946001600160a01b038616809603610641576001600160a01b03809492818094610573613d15565b166001600160a01b0319600654161760065516806001600160a01b0319600b541617600b558752600f60205260408720600160ff1982541617905516806001600160a01b0319600c541617600c558552600f60205260408520600160ff1982541617905516806001600160a01b0319600e541617600e558352600f60205260408320600160ff19825416179055806001600160a01b0319600d541617600d558252600f60205260408220600160ff198254161790558152600f60205260408120600160ff1982541617905580f35b8680fd5b8580fd5b50346104fd57806003193601126104fd5760206001600160a01b0360075416604051908152f35b50346104fd5760206003193601126104fd5761069a61068d612139565b610695613d15565b613496565b80f35b50346104fd5760e06003193601126104fd576106b7612139565b6106bf612123565b9060a07fffffffffffffffffffffffffffffffffffffffffffffffffffffffffffffffbc36011261078557600490604051926106fa84612074565b604435845260208401606435815260408501906084358252606086019260a43584526001600160a01b03608088019560c4358752338a52600f60205261074660ff60408c2054166124c8565b42875216885260106020526001600160a01b036040892091165f5260205260405f20955186555160018601555160028501555160038401555191015580f35b8280fd5b50346104fd57806003193601126104fd5760206001600160a01b0360085416604051908152f35b50346104fd577fbbd1b090970f0e970b855e7b10fb629b05c0ea0c6e28e9b67a3573a05b947d316101006001600160a01b036107eb3661217b565b92909116918286526010602052604086206001600160a01b0383165f5260205260405f20916040519261081d84612074565b8054845260018101546020850181815261086361085b60028501546040890194818652600460038801549760608c01988952015460808b0152612993565b845190612993565b8651818111156108b957506108816001600160a01b039188516129e8565b965b519151925193519460405198895216602088015260408701526060860152608085015260a084015260c083015260e0820152a180f35b90808210156108da576001600160a01b03916108d4916129e8565b96610883565b50506001600160a01b038a96610883565b50346104fd57806003193601126104fd57601354610908816121f7565b906109166040519283612090565b808252601383527f66de8ffda797e3de9c05e8fc57b3bf0ec28a930d40b0d285d93c06501cf6a0909280602084015b838310610966576040516020808252819061096290820188612451565b0390f35b60405182875461097581612bde565b80845290600181169081156109e557506001146109af575b50600192826109a185946020940382612090565b815201960192019194610945565b888552602085208592505b8183106109cf5750508101602001600161098d565b60018160209254838688010152019201916109ba565b60ff191660208581019190915291151560051b840190910191506001905061098d565b50346104fd5760406003193601126104fd576001600160a01b036040610a2c612139565b9282610a36612123565b948260808551610a4581612074565b8281528260208201528287820152826060820152015216815260106020522091165f5260205260a060405f20604051610a7d81612074565b81549182825260018101546020830190815260028201549060408401918252608060046003850154946060870195865201549401938452604051948552516020850152516040840152516060830152516080820152f35b5060806003193601126104fd5760043567ffffffffffffffff8111610ba557610b019036906004016123be565b60243567ffffffffffffffff811161078557610b219036906004016123be565b60443567ffffffffffffffff8111610ba157610b4190369060040161226c565b916064359267ffffffffffffffff8411610b9d57610b66610b769436906004016122eb565b939092610b716135d2565b612c2a565b60017f9b779b17422d0df92223018b32b4d1fa46e071723d6817e2486d003becc55f005580f35b8480fd5b8380fd5b5080fd5b5060406003193601126104fd5760043567ffffffffffffffff8111610ba557610bd690369060040161226c565b906024359067ffffffffffffffff82116104fd57610962610c0484610bfe36600487016122eb565b916137e9565b60405191829160208352602083019061238b565b50346104fd5760206003193601126104fd5760043567ffffffffffffffff8111610ba557610c4a90369060040161220f565b81805b8251811015610cf0576001600160a01b03600c5416610c6c8285612c16565b51813b15610ba15783916064839260405194859384927fc2b3356400000000000000000000000000000000000000000000000000000000845260048401523360248401528160448401525af1908115610ce5578391610cd0575b5050600101610c4d565b81610cda91612090565b610ba557815f610cc6565b6040513d85823e3d90fd5b5080f35b50346104fd57806003193601126104fd5760206001600160a01b0360095416604051908152f35b50346104fd5760606003193601126104fd57610d35612139565b610d3d612123565b60443591821515809303610ba1576001600160a01b038092338652600f602052610d6d60ff6040882054166124c8565b166001600160a01b03196008541617600855166001600160a01b031960095416176009557fffffffffffffffffffffff00ffffffffffffffffffffffffffffffffffffffff74ff0000000000000000000000000000000000000000600e549260a01b16911617600e5580f35b50346104fd57806003193601126104fd5760206001600160a01b037f9016d09d72d40fdae2fd8ceac6b6234c7706214fd39c1cd1e609a0528c1993005416604051908152f35b50346104fd57806003193601126104fd576020600254604051908152f35b50346104fd57806003193601126104fd5760206001600160a01b03600b5416604051908152f35b50346104fd57806003193601126104fd57610e7d613d15565b806001600160a01b037f9016d09d72d40fdae2fd8ceac6b6234c7706214fd39c1cd1e609a0528c199300546001600160a01b031981167f9016d09d72d40fdae2fd8ceac6b6234c7706214fd39c1cd1e609a0528c19930055167f8be0079c531659141344cd1fd0a4f28419497f9722a3daafe3b4186f6b6457e08280a380f35b50346104fd5760406003193601126104fd5760043567ffffffffffffffff8111610ba557610f2f903690600401612105565b90610f38612123565b338252600f602052610f5060ff6040842054166124c8565b6040516001600160a01b03845191602081818801948086835e81016011815203019020541615610fb0575b6001600160a01b0390602085604051928391518091835e8101601181520301902091166001600160a01b031982541617905580f35b60135468010000000000000000811015611162576001810160135560135481101561114e57601384527f66de8ffda797e3de9c05e8fc57b3bf0ec28a930d40b0d285d93c06501cf6a09001938361113b5780519467ffffffffffffffff86116111275761101d8154612bde565b601f81116110e2575b50602095601f8111600114611075579081602093926001600160a01b039697985f9161106a575b508160011b915f199060031b1c19161790555b9493925050610f7b565b90508301515f61104d565b601f198116825f52875f20905f5b8181106110ca5750916001916001600160a01b03979899826020979695106110b2575b5050811b019055611060565b8501515f1960f88460031b161c191690555f806110a6565b858a015183556020998a019960019093019201611083565b815f5260205f20601f880160051c8101916020891061111d575b601f0160051c01905b8181106111125750611026565b5f8155600101611105565b90915081906110fc565b634e487b7160e01b5f52604160045260245ffd5b602484634e487b7160e01b815280600452fd5b602484634e487b7160e01b81526032600452fd5b602484634e487b7160e01b81526041600452fd5b50346104fd5760606003193601126104fd57611190612139565b611198612123565b60443567ffffffffffffffff8111610ba15760406020946001600160a01b036111c681943690600401612105565b95168152601286522091165f5282526111e260405f20826124a9565b549081156111f4575b50604051908152f35b6111fe9150613750565b5f6111eb565b50346104fd57806003193601126104fd5760206001600160a01b03600d5416604051908152f35b506101406003193601126104fd5760043567ffffffffffffffff8111610ba557611259903690600401612105565b611261612123565b9060443590606435926084359060a4359260038410156106415760c435916003831015611595576101243567ffffffffffffffff81116115915736602382011215611591576112ba9036906024816004013591016120cf565b6112c26135d2565b6112d14261010435101561285d565b876112e46509184e72a0008906156128a8565b34906112ef856136ac565b9290506112fb8761293e565b60018714801561157e575b1561153a578b9a886114d757505050506020611378916001600160a01b036040518381885180838b01835e81016011815203019020541660405180809581947f1af189a4000000000000000000000000000000000000000000000000000000008352866004840152602483019061242c565b039134905af19081156114cc578891611497575b509187915b6001600160a01b03600e541694853b156114935789976001600160a01b03976113f4966040519b8c9a8b998a987ffb13637b000000000000000000000000000000000000000000000000000000008a5261014060048b01526101448a019061242c565b961660248801526044870152606486015260848501526114138161293e565b60a48401526114218161293e565b60c483015260e43560e4830152336101048301528261012483015203925af1801561148857611473575b5060017f9b779b17422d0df92223018b32b4d1fa46e071723d6817e2486d003becc55f005580f35b8161147d91612090565b6104fd57805f61144b565b6040513d84823e3d90fd5b8980fd5b9750506020873d6020116114c4575b816114b360209383612090565b81010312610015578796515f61138c565b3d91506114a6565b6040513d8a823e3d90fd5b9195935093919950156114f6576114f18a993410156128f3565b611391565b606460405162461bcd60e51b815260206004820152600d60248201527f7072696365206973207a65726f000000000000000000000000000000000000006044820152fd5b606460405162461bcd60e51b815260206004820152600f60248201527f77726f6e6720646972656374696f6e00000000000000000000000000000000006044820152fd5b506115888761293e565b60028714611306565b8880fd5b8780fd5b50346104fd57806003193601126104fd5760206001600160a01b03600a5416604051908152f35b5060806003193601126104fd576115d5612139565b60443567ffffffffffffffff8111610785576115f590369060040161226c565b6064359167ffffffffffffffff8311610ba15761161961069a9336906004016122eb565b929091602435906129f5565b50346104fd57806003193601126104fd5760206001600160a01b03600c5416604051908152f35b50346104fd5760206003193601126104fd576001600160a01b0361166e612139565b168152601460205260408120604051918260208354918281520192825260208220915b8181106116b457610962856116a881870382612090565b604051918291826121b5565b8254845260209093019260019283019201611691565b50346104fd5760406003193601126104fd576116e4612139565b60243560015481106118e55782916116fe82303384613a24565b6001600160a01b038116918284526010602052604084206001600160a01b0333165f5260205260405f20611732338461324f565b61173d828254612993565b81556001810161174e838254612993565b9055838552601460205261177333604087206001915f520160205260405f2054151590565b156118c3575b506117843383613372565b604051906001825260208201524260408201523090837feb42cf637f927243245c50b4bf7fe105fe4f4d26209102240f2ba3d8e27a7df860603393a481835260056020526040832054156117d6575050f35b6117e08392613e44565b506001600160a01b03600a5416827fffffffff0000000000000000000000000000000000000000000000000000000060186020604051611821604082612090565b828152017f617070726f766528616464726573732c75696e743235362900000000000000008152201691604051906020820193845260248201525f19604482015260448152611871606482612090565b51925af161187d6139f5565b8161188c575b50156104fd5780f35b80518015925082156118a1575b50505f611883565b8192509060209181010312610ba55760206118bc91016129a0565b5f80611899565b60044291015582845260146020526118de3360408620613eb4565b505f611779565b606460405162461bcd60e51b815260206004820152601860248201527f6465706f73697420616d6f756e7420746f6f20736d616c6c00000000000000006044820152fd5b50806119566119373661231c565b611943949192946135d2565b6001600160a01b03600e541692856137e9565b90803b15610b9d5761199b93858094604051968795869485937fbcef60d70000000000000000000000000000000000000000000000000000000085526004850161295c565b03925af1801561148857611473575060017f9b779b17422d0df92223018b32b4d1fa46e071723d6817e2486d003becc55f005580f35b50806119fe6119df3661231c565b6119eb949192946135d2565b6001600160a01b03600c541692856137e9565b90803b15610b9d5761199b93858094604051968795869485937feb4f2e360000000000000000000000000000000000000000000000000000000085526004850161295c565b50346104fd57806003193601126104fd5760206001600160a01b03600e5416604051908152f35b50346104fd5760606003193601126104fd57611a84612139565b9060243567ffffffffffffffff8111610ba557611aa5903690600401612105565b604435906001600160a01b03604051602081845180838701835e810160118152030190205416611ced57611ad881613750565b8215159081611ce2575b5015611c9e57826001600160a01b0380600b54169516905b60028110611bab57509081611ba79285526012602052604085206001600160a01b0333165f526020527f876c9e1723578de812ea7970374a8505b6086b8f573cea692c1e18c2e1c3dc27611b5160405f20846124a9565b54604051809184825233602083015260a06040830152611b7460a083018761242c565b9060608301528760808301520390a184526012602052604084206001600160a01b0333165f5260205260405f20906124a9565b5580f35b6040517f3a0204a90000000000000000000000000000000000000000000000000000000081528260048201523360248201526080604482015260808180611bf5608482018861242c565b85606483015203818a5afa908115611c93578691611c5f575b50611c1b57600101611afa565b606460405162461bcd60e51b815260206004820152600b60248201527f65786973742061737365740000000000000000000000000000000000000000006044820152fd5b90506080813d8211611c8b575b81611c7960809383612090565b8101031261064557602001515f611c0e565b3d9150611c6c565b6040513d88823e3d90fd5b606460405162461bcd60e51b815260206004820152601560248201527f6c65766572616765206f7574206f6620312d31303000000000000000000000006044820152fd5b90508211155f611ae2565b606460405162461bcd60e51b815260206004820152600a60248201527f77726f6e67206e616d65000000000000000000000000000000000000000000006044820152fd5b50346104fd57806003193601126104fd5760405180916020600454928381520191600482527f8a35acfbc15ff81a39ae7d344fd709f28e8600b4aa8c65c6b64bfe7fe36bd19b915b818110611d9057610962856116a881870382612090565b8254845260209093019260019283019201611d79565b506101606003193601126100155760043567ffffffffffffffff811161001557611dd4903690600401612105565b611ddc612123565b604435916064359060038210156100155760843591600383101561001557611e026135d2565b611e114261014435101561285d565b611e236509184e72a0008606156128a8565b611e2c826136ac565b908610611f7a578060011b9080820460021490151715611f6657611e52903410156128f3565b6001600160a01b03600e541691823b15610015575f946001600160a01b0394611eb593604051988997889687967f934cb531000000000000000000000000000000000000000000000000000000008852610160600489015261016488019061242c565b941660248601526044850152611eca8161293e565b6064840152611ed88161293e565b608483015260a43560a483015260c43560c483015260e43560e4830152610104356101048301526101243561012483015233610144830152039134905af18015611f5b57611f48575060017f9b779b17422d0df92223018b32b4d1fa46e071723d6817e2486d003becc55f005580f35b611f5491505f90612090565b5f5f61144b565b6040513d5f823e3d90fd5b634e487b7160e01b5f52601160045260245ffd5b606460405162461bcd60e51b815260206004820152601660248201527f6f7264657220616d6f756e7420746f6f20736d616c6c000000000000000000006044820152fd5b3461001557611fed611fcf3661217b565b91335f52600f602052611fe860ff60405f2054166124c8565b612558565b005b34610015575f6003193601126100155760206001600160a01b0360065416604051908152f35b346100155760206003193601126100155760043567ffffffffffffffff8111610015576001600160a01b0360208061205281943690600401612105565b604051928184925191829101835e810160118152030190205416604051908152f35b60a0810190811067ffffffffffffffff82111761112757604052565b90601f601f19910116810190811067ffffffffffffffff82111761112757604052565b67ffffffffffffffff811161112757601f01601f191660200190565b9291926120db826120b3565b916120e96040519384612090565b829481845281830111610015578281602093845f960137010152565b9080601f8301121561001557816020612120933591016120cf565b90565b602435906001600160a01b038216820361001557565b600435906001600160a01b038216820361001557565b604435906001600160a01b038216820361001557565b606435906001600160a01b038216820361001557565b6003196060910112610015576004356001600160a01b038116810361001557906024356001600160a01b0381168103610015579060443590565b60206040818301928281528451809452019201905f5b8181106121d85750505090565b82516001600160a01b03168452602093840193909201916001016121cb565b67ffffffffffffffff81116111275760051b60200190565b9080601f83011215610015578135612226816121f7565b926122346040519485612090565b81845260208085019260051b82010192831161001557602001905b82821061225c5750505090565b813581526020918201910161224f565b9080601f83011215610015578135612283816121f7565b926122916040519485612090565b81845260208085019260051b820101918383116100155760208201905b8382106122bd57505050505090565b813567ffffffffffffffff8111610015576020916122e087848094880101612105565b8152019101906122ae565b9181601f840112156100155782359167ffffffffffffffff8311610015576020808501948460051b01011161001557565b60606003198201126100155760043567ffffffffffffffff811161001557816123479160040161220f565b9160243567ffffffffffffffff811161001557826123679160040161226c565b916044359067ffffffffffffffff821161001557612387916004016122eb565b9091565b90602080835192838152019201905f5b8181106123a85750505090565b825184526020938401939092019160010161239b565b9080601f83011215610015578135906123d6826121f7565b926123e46040519485612090565b82845260208085019360051b82010191821161001557602001915b81831061240c5750505090565b82356001600160a01b0381168103610015578152602092830192016123ff565b90601f19601f602080948051918291828752018686015e5f8582860101520116010190565b9080602083519182815201916020808360051b8301019401925f915b83831061247c57505050505090565b909192939460208061249a83601f198660019603018752895161242c565b9701930193019193929061246d565b6040518151909260209284929081908501845e82019081520301902090565b156124cf57565b606460405162461bcd60e51b815260206004820152601e60248201527f63616c6c6572206973206e6f742070657270657475616c206b656570657200006044820152fd5b51906001600160a01b038216820361001557565b81810292918115918404141715611f6657565b8115612544570490565b634e487b7160e01b5f52601260045260245ffd5b90821561285857600d546001600160a01b0316925f80808087612785575b61262b975061259261258a60035487612527565b5f549061253a565b949182816001600160a01b03841615158061277d575b80612774575b612732575b50505050829080936001600160a01b038416151580612729575b80612720575b6126de575b505050506001600160a01b03600954169082908093831515806126d5575b806126cc575b612691575b5050505091829160ff600e5460a01c1661262e575b8293506001600160a01b036008541691613551565b50565b9150916001600160a01b03600654168181151580612688575b8061267f575b61265c575b5050908290612616565b612678919250600b5f93612671838289613bfc565b8587613ba5565b5f80612652565b5080151561264d565b50801515612647565b6126b893945081115f146126c1576126ab82600e926129e8565b935b612671838289613bfc565b5f808080612601565b9050600e5f936126ad565b508015156125fc565b508115156125f6565b61270c93945081115f14612715576126f882600c926129e8565b935b61270583828a613bfc565b8688613ba5565b5f8080806125d8565b9050600c5f936126fa565b508015156125d3565b508115156125cd565b61276093945081115f146127695761274c826011926129e8565b935b61275983828c613bfc565b888a613ba5565b5f8080806125b3565b905060115f9361274e565b508015156125ae565b5060016125a8565b50506040517f9594bd1b0000000000000000000000000000000000000000000000000000000081526001600160a01b0386811660048301528516602482015260448101849052956080925086915060649082905f905af18015611f5b575f905f905f905f906127fd575b61262b975090919291612576565b505050506080843d608011612850575b8161281a60809383612090565b81010312610015578361282f61262b95612513565b90602081015191606061284460408401612513565b920151909291906127ef565b3d915061280d565b505050565b1561286457565b606460405162461bcd60e51b815260206004820152600760248201527f65787069726564000000000000000000000000000000000000000000000000006044820152fd5b156128af57565b606460405162461bcd60e51b815260206004820152601660248201527f616d6f756e7420707265636973696f6e206572726f72000000000000000000006044820152fd5b156128fa57565b606460405162461bcd60e51b815260206004820152600b60248201527f6c657373207265776172640000000000000000000000000000000000000000006044820152fd5b6003111561294857565b634e487b7160e01b5f52602160045260245ffd5b9161298590612977612120959360608652606086019061238b565b908482036020860152612451565b91604081840391015261238b565b91908201809211611f6657565b5190811515820361001557565b926001600160a01b036121209593816129da94168652166020850152608060408501526080840190612451565b91606081840391015261238b565b91908203918211611f6657565b9391604090612a4e9294612a175f956001600160a01b03600c541692846137e9565b9183518095819482937fd15a1b41000000000000000000000000000000000000000000000000000000008452338c600486016129ad565b03915afa908115611f5b575f905f92612b74575b5015612b6c575b508115612858576001600160a01b03831692835f52601060205260405f206001600160a01b0333165f5260205260405f2091612aa5338361324f565b6001830190612ab682549186612993565b8110612b285784612ad79185612ad083612aeb98546129e8565b90556129e8565b9055612ae4833383613bfc565b3390613372565b6040519060028252602082015242604082015233917feb42cf637f927243245c50b4bf7fe105fe4f4d26209102240f2ba3d8e27a7df860603093a4565b606460405162461bcd60e51b815260206004820152601960248201527f776974686472657720616d6f756e7420746f6f206c61726765000000000000006044820152fd5b90505f612a69565b9150506040813d604011612bad575b81612b9060409383612090565b81010312610015576020612ba3826129a0565b910151905f612a62565b3d9150612b83565b8054821015612bca575f5260205f2001905f90565b634e487b7160e01b5f52603260045260245ffd5b90600182811c92168015612c0c575b6020831014612bf857565b634e487b7160e01b5f52602260045260245ffd5b91607f1691612bed565b8051821015612bca5760209160051b010190565b93612c37919593836137e9565b915f5b8451811015613247575f5b865181101561323e576001600160a01b03612c608388612c16565b5116906001600160a01b03612c75828a612c16565b5116825f52601060205260405f206001600160a01b0382165f52602052612ca060405f205484613d74565b801561323257612cb0828561324f565b612cfa6080896001600160a01b03600c54168a6040518095819482937fd719606a0000000000000000000000000000000000000000000000000000000084528a8d600486016129ad565b03915afa908115611f5b575f916131f9575b50612e17575b50610100837fbbd1b090970f0e970b855e7b10fb629b05c0ea0c6e28e9b67a3573a05b947d31926001955f52601060205260405f206001600160a01b0382165f5260205260405f209060405191612d6883612074565b805483528781015460208401818152612da561085b60028501546040880194818652600460038801549760608b01988952015460808a0152612993565b855181811115612df75750612dbb9086516129e8565b945b5190519151925193604051968752602087015260408601526060850152608084015260a0830152600b60c083015260e0820152a101612c45565b81811015612e0e57612e08916129e8565b94612dbd565b50505f94612dbd565b612e7c906001600160a01b03600754166020612e338288613d9d565b6040517fdd62ed3e0000000000000000000000000000000000000000000000000000000081526001600160a01b0390931660048401523060248401529193849081906044820190565b0381895afa8015611f5b5789935f916131c1575b50612ea0612eb7915f5490612527565b612eb1612eac89613f0c565b613d8f565b9061253a565b8082116131b9575b5060208a6001600160a01b03600e5416865f8a612f42612edf888a612993565b95612f306040519b8c98899788967fc59b4d7800000000000000000000000000000000000000000000000000000000885260048801526024870152604486015260a0606486015260a4850190612451565b9060031984830301608485015261238b565b03925af1928315611f5b575f9361315e575b509282869282600198877fbbd1b090970f0e970b855e7b10fb629b05c0ea0c6e28e9b67a3573a05b947d319861010098145f1461302257505050612fa591506001600160a01b03600a541684613bfc565b604080516001600160a01b038481168252831660208201527f41e1079eef48308723ea526ccdf110f7d9ce6445e554db20e4fbe261c3a5ac9b9190a1815f52601060205260405f206001600160a01b0382165f526020525f6004604082208281558289820155826002820155826003820155015592509350612d12565b9091928185115f146130ca576130b17feb42cf637f927243245c50b4bf7fe105fe4f4d26209102240f2ba3d8e27a7df89261309f6060936130796001600160a01b0360075416613072858c6129e8565b9089613bfc565b61309889613093856001600160a01b03600a541694612993565b6129e8565b9087613bfc565b6001600160a01b0360075416966129e8565b60405190600882526020820152426040820152a4612fa5565b6131457feb42cf637f927243245c50b4bf7fe105fe4f4d26209102240f2ba3d8e27a7df89294956131336060936131196001600160a01b0360075416613110858b6129e8565b9030908a613a24565b613098836130938a6001600160a01b03600a541694612993565b6001600160a01b0360075416956129e8565b60405190600982526020820152426040820152a4612fa5565b92509490926020833d82116131b1575b8161317b60209383612090565b810103126100155791519094919290917fbbd1b090970f0e970b855e7b10fb629b05c0ea0c6e28e9b67a3573a05b947d31612f54565b3d915061316e565b90505f612ebf565b9350506020833d82116131f1575b816131dc60209383612090565b81010312610015579151889290612ea0612e90565b3d91506131cf565b90506080813d821161322a575b8161321360809383612090565b8101031261001557613224906129a0565b5f612d0c565b3d9150613206565b50505050509350505050565b50600101612c3a565b509350505050565b7fbbd1b090970f0e970b855e7b10fb629b05c0ea0c6e28e9b67a3573a05b947d31916001600160a01b03610100921690815f52601060205260405f206001600160a01b0382165f5260205260405f2090604051916132ac83612074565b805483526001810154602084018181526132ea61085b60028501546040880194818652600460038801549760608b01988952015460808a0152612993565b85518181111561334057506133086001600160a01b039187516129e8565b955b519151925193519460405197885216602087015260408601526060850152608084015260a08301525f60c083015260e0820152a1565b9080821015613361576001600160a01b039161335b916129e8565b9561330a565b50506001600160a01b035f9561330a565b7fbbd1b090970f0e970b855e7b10fb629b05c0ea0c6e28e9b67a3573a05b947d31916001600160a01b03610100921690815f52601060205260405f206001600160a01b0382165f5260205260405f2090604051916133cf83612074565b8054835260018101546020840181815261340d61085b60028501546040880194818652600460038801549760608b01988952015460808a0152612993565b855181811115613464575061342b6001600160a01b039187516129e8565b955b519151925193519460405197885216602087015260408601526060850152608084015260a0830152600a60c083015260e0820152a1565b9080821015613485576001600160a01b039161347f916129e8565b9561342d565b50506001600160a01b035f9561342d565b6001600160a01b03168015613525576001600160a01b037f9016d09d72d40fdae2fd8ceac6b6234c7706214fd39c1cd1e609a0528c19930054826001600160a01b03198216177f9016d09d72d40fdae2fd8ceac6b6234c7706214fd39c1cd1e609a0528c19930055167f8be0079c531659141344cd1fd0a4f28419497f9722a3daafe3b4186f6b6457e05f80a3565b7f1e4fbdf7000000000000000000000000000000000000000000000000000000005f525f60045260245ffd5b92939091846001600160a01b0382161515806135c9575b806135c0575b61357b575b505050505090565b6135aa9495508281115f146135b4579261359883600d94956129e8565b955b6135a5858483613bfc565b613ba5565b5f80808080613573565b600d9250925f9561359a565b5082151561356e565b50801515613568565b60027f9b779b17422d0df92223018b32b4d1fa46e071723d6817e2486d003becc55f0054146136215760027f9b779b17422d0df92223018b32b4d1fa46e071723d6817e2486d003becc55f0055565b7f3ee5aeb5000000000000000000000000000000000000000000000000000000005f5260045ffd5b908160c0910312610015576040519060c082019082821067ffffffffffffffff8311176111275760a0916040528051835260208101516020840152604081015160408401526060810151606084015260808101516080840152015160a082015290565b9060c06001600160a01b03602080600495604051928184925191829101835e810160118152030190205416604051938480927f639122c90000000000000000000000000000000000000000000000000000000082525afa918215611f5b575f9261371f575b506020604083015192015190565b61374291925060c03d60c011613749575b61373a8183612090565b810190613649565b905f613711565b503d613730565b60405181516001600160a01b0392602091839181908401835e601190820190815203019020541680156137e35760c0600491604051928380927f639122c90000000000000000000000000000000000000000000000000000000082525afa8015611f5b576060915f916137c4575b50015190565b6137dd915060c03d60c0116137495761373a8183612090565b5f6137be565b50606490565b90929192838251036139b15761380082513461253a565b908251801561254457340693613815866121f7565b936138236040519586612090565b868552601f19613832886121f7565b0136602087013784955f5b8251808210156139a5575f198101908111611f66578114613994575b6001600160a01b0360208061386e8487612c16565b51604051928184925191829101835e8101601181520301902054169089811015612bca578060051b8601357fffffffffffffffffffffffffffffffffffffffffffffffffffffffffffffffe18736030181121561001557860180359067ffffffffffffffff82116100155760200190803603821361001557601f93818a6044602095601f19604051998a97889687947f1af189a40000000000000000000000000000000000000000000000000000000086528b6004870152816024870152868601375f858286010152011681010301925af18015611f5b575f90613962575b6001925061395b828a612c16565b520161383d565b506020823d821161398c575b8161397b60209383612090565b81010312610015576001915161394d565b3d915061396e565b948161399f91612993565b94613859565b50505050939450505050565b606460405162461bcd60e51b815260206004820152602060248201527f496e636f6e73697374656e74207072696365206172726179206c656e677468736044820152fd5b3d15613a1f573d90613a06826120b3565b91613a146040519384612090565b82523d5f602084013e565b606090565b909261258a613a3f91613a39612eac85613f0c565b90612527565b80151580613b93575b80613b81575b613a59575b50505050565b5f809493613b298295613b1b7fffffffff000000000000000000000000000000000000000000000000000000006025604051613a96606082612090565b8181527f7432353629000000000000000000000000000000000000000000000000000000604060208301927f7472616e7366657246726f6d28616464726573732c616464726573732c75696e8452015220169560405194859360208501988952602485016001600160a01b036040929594938160608401971683521660208201520152565b03601f198101835282612090565b51925af1613b356139f5565b81613b4a575b5015610015575f808080613a53565b8051801592508215613b5f575b50505f613b3b565b8192509060209181010312610015576020613b7a91016129a0565b5f80613b57565b506001600160a01b0383161515613a4e565b506001600160a01b0384161515613a48565b92939093604051926013821015612948576001600160a01b038080927feb42cf637f927243245c50b4bf7fe105fe4f4d26209102240f2ba3d8e27a7df89560609588526020880152426040880152169616941692a4565b9161258a613c1091613a39612eac86613f0c565b9182151580613d03575b613c2357505050565b5f928380937fffffffff0000000000000000000000000000000000000000000000000000000060196020604051613c5b604082612090565b828152017f7472616e7366657228616464726573732c75696e74323536290000000000000081522016926001600160a01b036040519260208401958652166024830152604482015260448152613cb2606482612090565b51925af1613cbe6139f5565b81613ccc575b501561001557565b8051801592508215613ce1575b50505f613cc4565b8192509060209181010312610015576020613cfc91016129a0565b5f80613cd9565b506001600160a01b0382161515613c1a565b6001600160a01b037f9016d09d72d40fdae2fd8ceac6b6234c7706214fd39c1cd1e609a0528c19930054163303613d4857565b7f118cdaa7000000000000000000000000000000000000000000000000000000005f523360045260245ffd5b613d7f903090613d9d565b808211613d8a575090565b905090565b604d8111611f6657600a0a90565b6001600160a01b03604051927f70a082310000000000000000000000000000000000000000000000000000000084521660048301526020826024816001600160a01b0385165afa918215611f5b575f92613e0e575b50612eb1612eac613e08612120945f5490612527565b92613f0c565b91506020823d602011613e3c575b81613e2960209383612090565b8101031261001557905190612eb1613df2565b3d9150613e1c565b805f52600560205260405f2054155f14613eaf576004546801000000000000000081101561112757613e98613e828260018594016004556004612bb5565b819391549060031b91821b915f19901b19161790565b9055600454905f52600560205260405f2055600190565b505f90565b5f828152600182016020526040902054613f0657805490680100000000000000008210156111275782613ef1613e82846001809601855584612bb5565b90558054925f520160205260405f2055600190565b50505f90565b60206001600160a01b03916004604051809481937f313ce567000000000000000000000000000000000000000000000000000000008352165afa8015611f5b575f90613f5b575b60ff91501690565b506020813d602011613f90575b81613f7560209383612090565b81010312610015575160ff811681036100155760ff90613f53565b3d9150613f68565b60ff7ff0c57e16840df040f15088dc2f81fe391c3923bec73e23a9662efc9c229c6a005460401c1615613fc757565b7fd7e6bcf8000000000000000000000000000000000000000000000000000000005f5260045ffdfea2646970667358221220b955e35b0646079af2586f11a03cfde7e435fe48a3b03c1567c3a477ede0f68964736f6c634300081c0033",
  "linkReferences": {},
  "deployedLinkReferences": {}
}