{
  "_format": "hh-sol-artifact-1",
  "contractName": "Perpetual",
  "sourceName": "contracts/Perpetual.sol",
  "abi": [
    {
      "inputs": [],
      "name": "InvalidInitialization",
      "type": "error"
    },
    {
      "inputs": [],
      "name": "NotInitializing",
      "type": "error"
    },
    {
      "inputs": [
        {
          "internalType": "address",
          "name": "owner",
          "type": "address"
        }
      ],
      "name": "OwnableInvalidOwner",
      "type": "error"
    },
    {
      "inputs": [
        {
          "internalType": "address",
          "name": "account",
          "type": "address"
        }
      ],
      "name": "OwnableUnauthorizedAccount",
      "type": "error"
    },
    {
      "inputs": [],
      "name": "ReentrancyGuardReentrantCall",
      "type": "error"
    },
    {
      "anonymous": false,
      "inputs": [
        {
          "indexed": false,
          "internalType": "address",
          "name": "token",
          "type": "address"
        },
        {
          "indexed": false,
          "internalType": "address",
          "name": "holder",
          "type": "address"
        },
        {
          "indexed": false,
          "internalType": "string",
          "name": "name",
          "type": "string"
        },
        {
          "indexed": false,
          "internalType": "enum ICommon.Direct",
          "name": "direct",
          "type": "uint8"
        },
        {
          "indexed": false,
          "internalType": "uint256",
          "name": "value",
          "type": "uint256"
        },
        {
          "indexed": false,
          "internalType": "uint256",
          "name": "size",
          "type": "uint256"
        },
        {
          "indexed": false,
          "internalType": "uint256",
          "name": "margin",
          "type": "uint256"
        },
        {
          "indexed": false,
          "internalType": "uint256",
          "name": "freeze",
          "type": "uint256"
        }
      ],
      "name": "AccountPosition",
      "type": "event"
    },
    {
      "anonymous": false,
      "inputs": [
        {
          "indexed": false,
          "internalType": "address",
          "name": "token",
          "type": "address"
        },
        {
          "indexed": false,
          "internalType": "address",
          "name": "taker",
          "type": "address"
        },
        {
          "indexed": false,
          "internalType": "uint256",
          "name": "amount",
          "type": "uint256"
        },
        {
          "indexed": false,
          "internalType": "uint256",
          "name": "availableAmount",
          "type": "uint256"
        },
        {
          "indexed": false,
          "internalType": "uint256",
          "name": "marginAmount",
          "type": "uint256"
        },
        {
          "indexed": false,
          "internalType": "uint256",
          "name": "locked",
          "type": "uint256"
        },
        {
          "indexed": false,
          "internalType": "uint256",
          "name": "stage",
          "type": "uint256"
        },
        {
          "indexed": false,
          "internalType": "uint256",
          "name": "dif",
          "type": "uint256"
        }
      ],
      "name": "BalanceOfTaker",
      "type": "event"
    },
    {
      "anonymous": false,
      "inputs": [
        {
          "indexed": false,
          "internalType": "string",
          "name": "name",
          "type": "string"
        },
        {
          "indexed": true,
          "internalType": "address",
          "name": "taker",
          "type": "address"
        },
        {
          "indexed": true,
          "internalType": "address",
          "name": "token",
          "type": "address"
        },
        {
          "indexed": false,
          "internalType": "uint256",
          "name": "orderID",
          "type": "uint256"
        },
        {
          "indexed": false,
          "internalType": "enum ICommon.Direct",
          "name": "orderType",
          "type": "uint8"
        },
        {
          "indexed": false,
          "internalType": "enum IPerpetual.OrderState",
          "name": "state",
          "type": "uint8"
        },
        {
          "indexed": false,
          "internalType": "enum ICommon.Offset",
          "name": "offset",
          "type": "uint8"
        },
        {
          "indexed": false,
          "internalType": "uint256",
          "name": "amount",
          "type": "uint256"
        },
        {
          "indexed": false,
          "internalType": "uint256",
          "name": "targetPrice",
          "type": "uint256"
        },
        {
          "indexed": false,
          "internalType": "uint256",
          "name": "margin",
          "type": "uint256"
        },
        {
          "indexed": false,
          "internalType": "uint256",
          "name": "rewardGas",
          "type": "uint256"
        },
        {
          "indexed": false,
          "internalType": "uint256",
          "name": "tradingFee",
          "type": "uint256"
        },
        {
          "indexed": false,
          "internalType": "uint256",
          "name": "startTime",
          "type": "uint256"
        },
        {
          "indexed": false,
          "internalType": "uint256",
          "name": "goodTill",
          "type": "uint256"
        }
      ],
      "name": "CreateLimitedOrder",
      "type": "event"
    },
    {
      "anonymous": false,
      "inputs": [
        {
          "indexed": false,
          "internalType": "uint256",
          "name": "limitOrderID",
          "type": "uint256"
        },
        {
          "indexed": false,
          "internalType": "uint256",
          "name": "openLimitPrice",
          "type": "uint256"
        },
        {
          "indexed": false,
          "internalType": "uint256",
          "name": "gainTriggerPrice",
          "type": "uint256"
        },
        {
          "indexed": false,
          "internalType": "uint256",
          "name": "gainLimitPrice",
          "type": "uint256"
        },
        {
          "indexed": false,
          "internalType": "uint256",
          "name": "lossTriggerPrice",
          "type": "uint256"
        },
        {
          "indexed": false,
          "internalType": "uint256",
          "name": "lossLimitPrice",
          "type": "uint256"
        }
      ],
      "name": "CreateTriggerCondition",
      "type": "event"
    },
    {
      "anonymous": false,
      "inputs": [
        {
          "indexed": false,
          "internalType": "uint256",
          "name": "code",
          "type": "uint256"
        },
        {
          "indexed": false,
          "internalType": "uint256",
          "name": "orderID",
          "type": "uint256"
        },
        {
          "indexed": false,
          "internalType": "string",
          "name": "message",
          "type": "string"
        }
      ],
      "name": "ErrorInfo",
      "type": "event"
    },
    {
      "anonymous": false,
      "inputs": [
        {
          "indexed": false,
          "internalType": "uint256",
          "name": "code",
          "type": "uint256"
        },
        {
          "indexed": false,
          "internalType": "uint256",
          "name": "orderID",
          "type": "uint256"
        },
        {
          "indexed": false,
          "internalType": "bytes",
          "name": "message",
          "type": "bytes"
        }
      ],
      "name": "ExceptErrorInfo",
      "type": "event"
    },
    {
      "anonymous": false,
      "inputs": [
        {
          "indexed": false,
          "internalType": "uint64",
          "name": "version",
          "type": "uint64"
        }
      ],
      "name": "Initialized",
      "type": "event"
    },
    {
      "anonymous": false,
      "inputs": [
        {
          "indexed": false,
          "internalType": "string",
          "name": "name",
          "type": "string"
        },
        {
          "indexed": true,
          "internalType": "address",
          "name": "taker",
          "type": "address"
        },
        {
          "indexed": true,
          "internalType": "address",
          "name": "token",
          "type": "address"
        },
        {
          "indexed": false,
          "internalType": "uint256",
          "name": "orderID",
          "type": "uint256"
        },
        {
          "indexed": false,
          "internalType": "enum ICommon.Direct",
          "name": "orderType",
          "type": "uint8"
        },
        {
          "indexed": false,
          "internalType": "enum IPerpetual.OrderState",
          "name": "state",
          "type": "uint8"
        },
        {
          "indexed": false,
          "internalType": "enum ICommon.Offset",
          "name": "offset",
          "type": "uint8"
        },
        {
          "indexed": false,
          "internalType": "uint256",
          "name": "amount",
          "type": "uint256"
        },
        {
          "indexed": false,
          "internalType": "uint256",
          "name": "targetPrice",
          "type": "uint256"
        },
        {
          "indexed": false,
          "internalType": "uint256",
          "name": "margin",
          "type": "uint256"
        },
        {
          "indexed": false,
          "internalType": "uint256",
          "name": "rewardGas",
          "type": "uint256"
        },
        {
          "indexed": false,
          "internalType": "uint256",
          "name": "tradingFee",
          "type": "uint256"
        },
        {
          "indexed": false,
          "internalType": "uint256",
          "name": "startTime",
          "type": "uint256"
        },
        {
          "indexed": false,
          "internalType": "uint256",
          "name": "goodTill",
          "type": "uint256"
        }
      ],
      "name": "LimitedOrderHistory",
      "type": "event"
    },
    {
      "anonymous": false,
      "inputs": [
        {
          "indexed": true,
          "internalType": "address",
          "name": "taker",
          "type": "address"
        },
        {
          "indexed": false,
          "internalType": "string",
          "name": "name",
          "type": "string"
        },
        {
          "indexed": false,
          "internalType": "address",
          "name": "token",
          "type": "address"
        },
        {
          "indexed": false,
          "internalType": "uint256",
          "name": "orderID",
          "type": "uint256"
        },
        {
          "indexed": false,
          "internalType": "enum ICommon.Direct",
          "name": "direction",
          "type": "uint8"
        },
        {
          "indexed": false,
          "internalType": "enum IPerpetual.OrderType",
          "name": "orderType",
          "type": "uint8"
        },
        {
          "indexed": false,
          "internalType": "uint256",
          "name": "amount",
          "type": "uint256"
        },
        {
          "indexed": false,
          "internalType": "uint256",
          "name": "costPrice",
          "type": "uint256"
        },
        {
          "indexed": false,
          "internalType": "uint256",
          "name": "price",
          "type": "uint256"
        },
        {
          "indexed": false,
          "internalType": "uint256",
          "name": "tradingFee",
          "type": "uint256"
        },
        {
          "indexed": false,
          "internalType": "uint256",
          "name": "leverage",
          "type": "uint256"
        },
        {
          "indexed": false,
          "internalType": "uint256",
          "name": "marginAmount",
          "type": "uint256"
        },
        {
          "indexed": false,
          "internalType": "uint256",
          "name": "limitOrderId",
          "type": "uint256"
        },
        {
          "indexed": false,
          "internalType": "uint256",
          "name": "timestamp",
          "type": "uint256"
        }
      ],
      "name": "OrderHistory",
      "type": "event"
    },
    {
      "anonymous": false,
      "inputs": [
        {
          "indexed": true,
          "internalType": "address",
          "name": "previousOwner",
          "type": "address"
        },
        {
          "indexed": true,
          "internalType": "address",
          "name": "newOwner",
          "type": "address"
        }
      ],
      "name": "OwnershipTransferred",
      "type": "event"
    },
    {
      "anonymous": false,
      "inputs": [
        {
          "indexed": false,
          "internalType": "address",
          "name": "token",
          "type": "address"
        },
        {
          "indexed": false,
          "internalType": "uint256",
          "name": "orderID",
          "type": "uint256"
        },
        {
          "indexed": false,
          "internalType": "uint256",
          "name": "dealID",
          "type": "uint256"
        },
        {
          "indexed": false,
          "internalType": "enum IPerpetual.TradeType",
          "name": "tradeType",
          "type": "uint8"
        },
        {
          "indexed": false,
          "internalType": "uint256",
          "name": "amount",
          "type": "uint256"
        },
        {
          "indexed": false,
          "internalType": "uint256",
          "name": "price",
          "type": "uint256"
        },
        {
          "indexed": false,
          "internalType": "uint256",
          "name": "tradingFee",
          "type": "uint256"
        },
        {
          "indexed": false,
          "internalType": "uint256",
          "name": "leverage",
          "type": "uint256"
        },
        {
          "indexed": false,
          "internalType": "uint256",
          "name": "marginAmount",
          "type": "uint256"
        },
        {
          "indexed": false,
          "internalType": "uint256",
          "name": "profit",
          "type": "uint256"
        },
        {
          "indexed": false,
          "internalType": "uint256",
          "name": "loss",
          "type": "uint256"
        },
        {
          "indexed": false,
          "internalType": "uint256",
          "name": "timestamp",
          "type": "uint256"
        }
      ],
      "name": "TradeHistory",
      "type": "event"
    },
    {
      "anonymous": false,
      "inputs": [
        {
          "indexed": true,
          "internalType": "address",
          "name": "token",
          "type": "address"
        },
        {
          "indexed": true,
          "internalType": "address",
          "name": "sender",
          "type": "address"
        },
        {
          "indexed": true,
          "internalType": "address",
          "name": "received",
          "type": "address"
        },
        {
          "indexed": false,
          "internalType": "enum ICommon.TransactionType",
          "name": "transactionType",
          "type": "uint8"
        },
        {
          "indexed": false,
          "internalType": "uint256",
          "name": "amount",
          "type": "uint256"
        },
        {
          "indexed": false,
          "internalType": "uint256",
          "name": "timestamp",
          "type": "uint256"
        }
      ],
      "name": "TransactionHistory",
      "type": "event"
    },
    {
      "anonymous": false,
      "inputs": [
        {
          "indexed": false,
          "internalType": "address",
          "name": "token",
          "type": "address"
        },
        {
          "indexed": false,
          "internalType": "address",
          "name": "sender",
          "type": "address"
        },
        {
          "indexed": false,
          "internalType": "string",
          "name": "name",
          "type": "string"
        },
        {
          "indexed": false,
          "internalType": "uint256",
          "name": "beforeLeverage",
          "type": "uint256"
        },
        {
          "indexed": false,
          "internalType": "uint256",
          "name": "afterLeverage",
          "type": "uint256"
        }
      ],
      "name": "setLeverage",
      "type": "event"
    },
    {
      "stateMutability": "nonpayable",
      "type": "fallback"
    },
    {
      "inputs": [],
      "name": "buybackAddr",
      "outputs": [
        {
          "internalType": "address",
          "name": "",
          "type": "address"
        }
      ],
      "stateMutability": "view",
      "type": "function"
    },
    {
      "inputs": [
        {
          "internalType": "uint256[]",
          "name": "_orderIDs",
          "type": "uint256[]"
        }
      ],
      "name": "cancelOrders",
      "outputs": [],
      "stateMutability": "nonpayable",
      "type": "function"
    },
    {
      "inputs": [
        {
          "internalType": "address",
          "name": "_token",
          "type": "address"
        },
        {
          "internalType": "uint256",
          "name": "_amount",
          "type": "uint256"
        }
      ],
      "name": "deposit",
      "outputs": [],
      "stateMutability": "nonpayable",
      "type": "function"
    },
    {
      "inputs": [
        {
          "internalType": "address",
          "name": "_token",
          "type": "address"
        },
        {
          "internalType": "address",
          "name": "_taker",
          "type": "address"
        },
        {
          "internalType": "uint256",
          "name": "_stage",
          "type": "uint256"
        }
      ],
      "name": "emitTakerBalance",
      "outputs": [],
      "stateMutability": "nonpayable",
      "type": "function"
    },
    {
      "inputs": [],
      "name": "getTokenList",
      "outputs": [
        {
          "internalType": "address[]",
          "name": "",
          "type": "address[]"
        }
      ],
      "stateMutability": "view",
      "type": "function"
    },
    {
      "inputs": [],
      "name": "getTradingPairs",
      "outputs": [
        {
          "internalType": "string[]",
          "name": "",
          "type": "string[]"
        }
      ],
      "stateMutability": "view",
      "type": "function"
    },
    {
      "inputs": [
        {
          "internalType": "string",
          "name": "_name",
          "type": "string"
        }
      ],
      "name": "getUnderlying",
      "outputs": [
        {
          "internalType": "contract Underlying",
          "name": "",
          "type": "address"
        }
      ],
      "stateMutability": "view",
      "type": "function"
    },
    {
      "inputs": [
        {
          "internalType": "address",
          "name": "_token",
          "type": "address"
        },
        {
          "internalType": "address",
          "name": "_taker",
          "type": "address"
        }
      ],
      "name": "getUserAccount",
      "outputs": [
        {
          "components": [
            {
              "internalType": "uint256",
              "name": "depositAmount",
              "type": "uint256"
            },
            {
              "internalType": "uint256",
              "name": "availableAmount",
              "type": "uint256"
            },
            {
              "internalType": "uint256",
              "name": "marginAmount",
              "type": "uint256"
            },
            {
              "internalType": "uint256",
              "name": "orderLocked",
              "type": "uint256"
            },
            {
              "internalType": "uint256",
              "name": "lastTime",
              "type": "uint256"
            }
          ],
          "internalType": "struct IPerpetual.AccountInfo",
          "name": "user",
          "type": "tuple"
        }
      ],
      "stateMutability": "view",
      "type": "function"
    },
    {
      "inputs": [
        {
          "internalType": "address",
          "name": "_token",
          "type": "address"
        }
      ],
      "name": "getUserAddress",
      "outputs": [
        {
          "internalType": "address[]",
          "name": "",
          "type": "address[]"
        }
      ],
      "stateMutability": "view",
      "type": "function"
    },
    {
      "inputs": [
        {
          "internalType": "address",
          "name": "_token",
          "type": "address"
        },
        {
          "internalType": "address",
          "name": "_user",
          "type": "address"
        },
        {
          "internalType": "string",
          "name": "_name",
          "type": "string"
        }
      ],
      "name": "getUserLeverage",
      "outputs": [
        {
          "internalType": "uint256",
          "name": "",
          "type": "uint256"
        }
      ],
      "stateMutability": "view",
      "type": "function"
    },
    {
      "inputs": [
        {
          "internalType": "address",
          "name": "_priPool",
          "type": "address"
        },
        {
          "internalType": "address",
          "name": "_riskFundAddr",
          "type": "address"
        },
        {
          "internalType": "address",
          "name": "_tradeFeeAddr",
          "type": "address"
        },
        {
          "internalType": "address",
          "name": "_platformTradeFeeAddr",
          "type": "address"
        }
      ],
      "name": "initialize",
      "outputs": [],
      "stateMutability": "nonpayable",
      "type": "function"
    },
    {
      "inputs": [
        {
          "internalType": "uint256[]",
          "name": "_dealIDs",
          "type": "uint256[]"
        },
        {
          "internalType": "string[]",
          "name": "_symbols",
          "type": "string[]"
        },
        {
          "internalType": "bytes[]",
          "name": "_priceUpdate",
          "type": "bytes[]"
        }
      ],
      "name": "liquidateMakerDeals",
      "outputs": [],
      "stateMutability": "payable",
      "type": "function"
    },
    {
      "inputs": [
        {
          "internalType": "address[]",
          "name": "_token",
          "type": "address[]"
        },
        {
          "internalType": "address[]",
          "name": "_taker",
          "type": "address[]"
        },
        {
          "internalType": "string[]",
          "name": "_symbols",
          "type": "string[]"
        },
        {
          "internalType": "bytes[]",
          "name": "_priceUpdate",
          "type": "bytes[]"
        }
      ],
      "name": "liquidateTaker",
      "outputs": [],
      "stateMutability": "payable",
      "type": "function"
    },
    {
      "inputs": [],
      "name": "maintenanceMarginRate",
      "outputs": [
        {
          "internalType": "uint256",
          "name": "",
          "type": "uint256"
        }
      ],
      "stateMutability": "view",
      "type": "function"
    },
    {
      "inputs": [],
      "name": "marketAgent",
      "outputs": [
        {
          "internalType": "contract MarketAgent",
          "name": "",
          "type": "address"
        }
      ],
      "stateMutability": "view",
      "type": "function"
    },
    {
      "inputs": [],
      "name": "orderBook",
      "outputs": [
        {
          "internalType": "contract OrderBook",
          "name": "",
          "type": "address"
        }
      ],
      "stateMutability": "view",
      "type": "function"
    },
    {
      "inputs": [],
      "name": "owner",
      "outputs": [
        {
          "internalType": "address",
          "name": "",
          "type": "address"
        }
      ],
      "stateMutability": "view",
      "type": "function"
    },
    {
      "inputs": [],
      "name": "platformTradeFeeAddr",
      "outputs": [
        {
          "internalType": "address",
          "name": "",
          "type": "address"
        }
      ],
      "stateMutability": "view",
      "type": "function"
    },
    {
      "inputs": [],
      "name": "privatePool",
      "outputs": [
        {
          "internalType": "contract IPrivatePool",
          "name": "",
          "type": "address"
        }
      ],
      "stateMutability": "view",
      "type": "function"
    },
    {
      "inputs": [],
      "name": "renounceOwnership",
      "outputs": [],
      "stateMutability": "nonpayable",
      "type": "function"
    },
    {
      "inputs": [],
      "name": "riskFundAddr",
      "outputs": [
        {
          "internalType": "address",
          "name": "",
          "type": "address"
        }
      ],
      "stateMutability": "view",
      "type": "function"
    },
    {
      "inputs": [
        {
          "internalType": "address",
          "name": "_buyBack",
          "type": "address"
        },
        {
          "internalType": "address",
          "name": "_orderBook",
          "type": "address"
        },
        {
          "internalType": "address",
          "name": "_tradeAgent",
          "type": "address"
        },
        {
          "internalType": "address",
          "name": "_tradeStation",
          "type": "address"
        },
        {
          "internalType": "address",
          "name": "_marketAgent",
          "type": "address"
        },
        {
          "internalType": "address",
          "name": "_keeper",
          "type": "address"
        }
      ],
      "name": "setKeepers",
      "outputs": [],
      "stateMutability": "nonpayable",
      "type": "function"
    },
    {
      "inputs": [
        {
          "internalType": "address",
          "name": "_platform",
          "type": "address"
        },
        {
          "internalType": "address",
          "name": "_tradeFee",
          "type": "address"
        },
        {
          "internalType": "bool",
          "name": "_mergeRemainingFeeToBuyBack",
          "type": "bool"
        }
      ],
      "name": "setTradeFeeAddr",
      "outputs": [],
      "stateMutability": "nonpayable",
      "type": "function"
    },
    {
      "inputs": [
        {
          "internalType": "string",
          "name": "_name",
          "type": "string"
        },
        {
          "internalType": "address",
          "name": "_underlying",
          "type": "address"
        }
      ],
      "name": "setUnderlying",
      "outputs": [],
      "stateMutability": "nonpayable",
      "type": "function"
    },
    {
      "inputs": [
        {
          "internalType": "address",
          "name": "_token",
          "type": "address"
        },
        {
          "internalType": "string",
          "name": "_name",
          "type": "string"
        },
        {
          "internalType": "uint256",
          "name": "_leverage",
          "type": "uint256"
        }
      ],
      "name": "setUserLeverage",
      "outputs": [],
      "stateMutability": "nonpayable",
      "type": "function"
    },
    {
      "inputs": [
        {
          "internalType": "address",
          "name": "token",
          "type": "address"
        },
        {
          "internalType": "address",
          "name": "takerAddr",
          "type": "address"
        },
        {
          "internalType": "uint256",
          "name": "tradingFee",
          "type": "uint256"
        }
      ],
      "name": "splitTradeFee",
      "outputs": [],
      "stateMutability": "nonpayable",
      "type": "function"
    },
    {
      "inputs": [
        {
          "internalType": "string",
          "name": "_name",
          "type": "string"
        },
        {
          "internalType": "address",
          "name": "_token",
          "type": "address"
        },
        {
          "internalType": "uint256",
          "name": "_amount",
          "type": "uint256"
        },
        {
          "internalType": "enum ICommon.Direct",
          "name": "_type",
          "type": "uint8"
        },
        {
          "internalType": "enum ICommon.Offset",
          "name": "_offset",
          "type": "uint8"
        },
        {
          "internalType": "uint256",
          "name": "_param1",
          "type": "uint256"
        },
        {
          "internalType": "uint256",
          "name": "_param2",
          "type": "uint256"
        },
        {
          "internalType": "uint256",
          "name": "_param3",
          "type": "uint256"
        },
        {
          "internalType": "uint256",
          "name": "_param4",
          "type": "uint256"
        },
        {
          "internalType": "uint256",
          "name": "_goodTill",
          "type": "uint256"
        },
        {
          "internalType": "uint256",
          "name": "_deadline",
          "type": "uint256"
        }
      ],
      "name": "stopTakeOrder",
      "outputs": [],
      "stateMutability": "payable",
      "type": "function"
    },
    {
      "inputs": [
        {
          "internalType": "string",
          "name": "_name",
          "type": "string"
        },
        {
          "internalType": "address",
          "name": "_token",
          "type": "address"
        },
        {
          "internalType": "uint256",
          "name": "_amount",
          "type": "uint256"
        },
        {
          "internalType": "uint256",
          "name": "_price",
          "type": "uint256"
        },
        {
          "internalType": "uint256",
          "name": "_orderType",
          "type": "uint256"
        },
        {
          "internalType": "enum ICommon.Offset",
          "name": "_offset",
          "type": "uint8"
        },
        {
          "internalType": "enum ICommon.Direct",
          "name": "_type",
          "type": "uint8"
        },
        {
          "internalType": "uint256",
          "name": "_goodTill",
          "type": "uint256"
        },
        {
          "internalType": "uint256",
          "name": "_deadline",
          "type": "uint256"
        },
        {
          "internalType": "bytes",
          "name": "_priceUpdate",
          "type": "bytes"
        }
      ],
      "name": "trade",
      "outputs": [],
      "stateMutability": "payable",
      "type": "function"
    },
    {
      "inputs": [],
      "name": "tradeAgent",
      "outputs": [
        {
          "internalType": "contract TradeAgent",
          "name": "",
          "type": "address"
        }
      ],
      "stateMutability": "view",
      "type": "function"
    },
    {
      "inputs": [],
      "name": "tradeFeeAddr",
      "outputs": [
        {
          "internalType": "address",
          "name": "",
          "type": "address"
        }
      ],
      "stateMutability": "view",
      "type": "function"
    },
    {
      "inputs": [],
      "name": "tradeStation",
      "outputs": [
        {
          "internalType": "contract TradeStation",
          "name": "",
          "type": "address"
        }
      ],
      "stateMutability": "view",
      "type": "function"
    },
    {
      "inputs": [
        {
          "internalType": "address",
          "name": "newOwner",
          "type": "address"
        }
      ],
      "name": "transferOwnership",
      "outputs": [],
      "stateMutability": "nonpayable",
      "type": "function"
    },
    {
      "inputs": [
        {
          "internalType": "uint256[]",
          "name": "_orderIDs",
          "type": "uint256[]"
        },
        {
          "internalType": "string[]",
          "name": "_symbols",
          "type": "string[]"
        },
        {
          "internalType": "bytes[]",
          "name": "_priceUpdate",
          "type": "bytes[]"
        }
      ],
      "name": "triggerOrders",
      "outputs": [],
      "stateMutability": "payable",
      "type": "function"
    },
    {
      "inputs": [
        {
          "internalType": "address",
          "name": "_token",
          "type": "address"
        },
        {
          "internalType": "address",
          "name": "_taker",
          "type": "address"
        },
        {
          "components": [
            {
              "internalType": "uint256",
              "name": "depositAmount",
              "type": "uint256"
            },
            {
              "internalType": "uint256",
              "name": "availableAmount",
              "type": "uint256"
            },
            {
              "internalType": "uint256",
              "name": "marginAmount",
              "type": "uint256"
            },
            {
              "internalType": "uint256",
              "name": "orderLocked",
              "type": "uint256"
            },
            {
              "internalType": "uint256",
              "name": "lastTime",
              "type": "uint256"
            }
          ],
          "internalType": "struct IPerpetual.AccountInfo",
          "name": "userInfo",
          "type": "tuple"
        }
      ],
      "name": "updateUserAsset",
      "outputs": [],
      "stateMutability": "nonpayable",
      "type": "function"
    },
    {
      "inputs": [
        {
          "internalType": "string[]",
          "name": "_symbols",
          "type": "string[]"
        },
        {
          "internalType": "bytes[]",
          "name": "_prices",
          "type": "bytes[]"
        }
      ],
      "name": "verifyPrice",
      "outputs": [
        {
          "internalType": "uint256[]",
          "name": "prices",
          "type": "uint256[]"
        }
      ],
      "stateMutability": "payable",
      "type": "function"
    },
    {
      "inputs": [
        {
          "internalType": "address",
          "name": "_token",
          "type": "address"
        },
        {
          "internalType": "uint256",
          "name": "_amount",
          "type": "uint256"
        },
        {
          "internalType": "string[]",
          "name": "_symbols",
          "type": "string[]"
        },
        {
          "internalType": "bytes[]",
          "name": "_priceUpdate",
          "type": "bytes[]"
        }
      ],
      "name": "withdraw",
      "outputs": [],
      "stateMutability": "payable",
      "type": "function"
    }
  ],
  "bytecode": "0x60808060405234601557614046908161001a8239f35b5f80fdfe60806040526004361015610019575b3461001557005b5f80fd5b5f5f3560e01c806305ca57cf1461207b5780630c418998146120555780630eed74c014612024578063273cbaa014611fb0578063273e763814611cf757806334d57a2014611cd15780633851969e14611c0c578063402d712c14611b6457806347e7ef241461189f5780634d6849d21461182157806356601435146117fa5780635671c19a1461179557806359b5e75e1461176e5780635c39e3781461142157806369a0eeb8146113fa578063702c2b741461136c578063708b8d86146110f3578063715018a61461105a578063776af5ba1461103357806389f00b6d146110155780638da5cb5b14610fcf5780639c59b33a14610f11578063a70dc3fe14610eea578063b55fb57414610e0e578063b5c926f414610d9f578063b8d771d414610cd2578063ccf1a4b214610c06578063cd2ce4ae14610ae9578063d3c2d8b7146109ae578063e08061b314610987578063e448cc411461089b578063ec4f02b91461069d578063f2fde38b14610670578063f348285b14610649578063f74c3049146105005763f8c8765e146101b0575061000e565b346104fd5760806003193601126104fd576101c9612189565b906101d261219f565b6101da6121b5565b906101e36121cb565b917ff0c57e16840df040f15088dc2f81fe391c3923bec73e23a9662efc9c229c6a00549460ff8660401c16159567ffffffffffffffff8116801590816104f5575b60011490816104eb575b1590816104e2575b506104ba576001600160a01b0394939192858094838a60017fffffffffffffffffffffffffffffffffffffffffffffffff0000000000000000859716177ff0c57e16840df040f15088dc2f81fe391c3923bec73e23a9662efc9c229c6a0055610465575b506102a3613fb9565b6102ab613fb9565b6102b4336134b7565b6102bc613fb9565b6102c4613fb9565b60017f9b779b17422d0df92223018b32b4d1fa46e071723d6817e2486d003becc55f005516806001600160a01b0319600a541617600a558752600f60205260408720600160ff19825416179055166001600160a01b03196008541617600855166001600160a01b03196007541617600755166001600160a01b03196009541617600955308152600f60205260408120600160ff19825416179055338152600f60205260408120600160ff19825416179055670de0b6b3a7640000815566038d7ea4c6800060015567016345785d8a0000600255506702c68af0bb1400006003557fffffffffffffffffffffff00ffffffffffffffffffffffffffffffffffffffff600e5416600e556103d257005b7fffffffffffffffffffffffffffffffffffffffffffffff00ffffffffffffffff7ff0c57e16840df040f15088dc2f81fe391c3923bec73e23a9662efc9c229c6a0054167ff0c57e16840df040f15088dc2f81fe391c3923bec73e23a9662efc9c229c6a00557fc7f505b2f371ae2175ee4913f4499e1f2633a7b5936321eed1cdaeb6115181d2602060405160018152a1005b7fffffffffffffffffffffffffffffffffffffffffffffff0000000000000000001668010000000000000001177ff0c57e16840df040f15088dc2f81fe391c3923bec73e23a9662efc9c229c6a00555f61029a565b6004867ff92ee8a9000000000000000000000000000000000000000000000000000000008152fd5b9050155f610236565b303b15915061022e565b889150610224565b80fd5b50346104fd5760c06003193601126104fd5761051a612189565b61052261219f565b61052a6121b5565b916105336121cb565b608435926001600160a01b0384168094036106455760a435946001600160a01b038616809603610641576001600160a01b03809492818094610573613deb565b166001600160a01b0319600654161760065516806001600160a01b0319600b541617600b558752600f60205260408720600160ff1982541617905516806001600160a01b0319600c541617600c558552600f60205260408520600160ff1982541617905516806001600160a01b0319600e541617600e558352600f60205260408320600160ff19825416179055806001600160a01b0319600d541617600d558252600f60205260408220600160ff198254161790558152600f60205260408120600160ff1982541617905580f35b8680fd5b8580fd5b50346104fd57806003193601126104fd5760206001600160a01b0360075416604051908152f35b50346104fd5760206003193601126104fd5761069a61068d612189565b610695613deb565b6134b7565b80f35b506101606003193601126104fd5760043567ffffffffffffffff8111610897576106cb90369060040161216b565b6106d361219f565b6044359060643592600384101561089357608435906003821015610645576106f96136ff565b61070842610144351015612b30565b61071a6509184e72a000850615612b7b565b61072381613d57565b9590851061084f576107388796341015612be4565b6001600160a01b03600e541691823b156106415786946001600160a01b039461079b93604051988997889687967f810c8af60000000000000000000000000000000000000000000000000000000088526101606004890152610164880190612492565b9416602486015260448501526107b081612bc6565b60648401526107be81612bc6565b608483015260a43560a483015260c43560c483015260e43560e4830152610104356101048301526101243561012483015233610144830152039134905af180156108445761082f575b5060017f9b779b17422d0df92223018b32b4d1fa46e071723d6817e2486d003becc55f005580f35b81610839916120f6565b6104fd57805f610807565b6040513d84823e3d90fd5b606460405162461bcd60e51b815260206004820152601560248201527f6f70656e20616d6f756e7420746f6f20736d616c6c00000000000000000000006044820152fd5b8480fd5b5080fd5b50346104fd5760e06003193601126104fd576108b5612189565b6108bd61219f565b9060a07fffffffffffffffffffffffffffffffffffffffffffffffffffffffffffffffbc36011261098357600490604051926108f8846120da565b604435845260208401606435815260408501906084358252606086019260a43584526001600160a01b03608088019560c4358752338a52600f60205261094460ff60408c20541661252e565b42875216885260106020526001600160a01b036040892091165f5260205260405f20955186555160018601555160028501555160038401555191015580f35b8280fd5b50346104fd57806003193601126104fd5760206001600160a01b0360085416604051908152f35b50346104fd577fbbd1b090970f0e970b855e7b10fb629b05c0ea0c6e28e9b67a3573a05b947d316101006001600160a01b036109e9366121e1565b92909116918286526010602052604086206001600160a01b0383165f5260205260405f209160405192610a1b846120da565b80548452600181015460208501818152610a61610a5960028501546040890194818652600460038801549760608c01988952015460808b015261291b565b84519061291b565b865181811115610ab75750610a7f6001600160a01b0391885161290e565b965b519151925193519460405198895216602088015260408701526060860152608085015260a084015260c083015260e0820152a180f35b9080821015610ad8576001600160a01b0391610ad29161290e565b96610a81565b50506001600160a01b038a96610a81565b50346104fd57806003193601126104fd57601354610b068161225d565b90610b1460405192836120f6565b808252601383527f66de8ffda797e3de9c05e8fc57b3bf0ec28a930d40b0d285d93c06501cf6a0909280602084015b838310610b645760405160208082528190610b60908201886124b7565b0390f35b604051828754610b7381612c58565b8084529060018116908115610be35750600114610bad575b5060019282610b9f859460209403826120f6565b815201960192019194610b43565b888552602085208592505b818310610bcd57505081016020016001610b8b565b6001816020925483868801015201920191610bb8565b60ff191660208581019190915291151560051b8401909101915060019050610b8b565b50346104fd5760406003193601126104fd576001600160a01b036040610c2a612189565b9282610c3461219f565b948260808551610c43816120da565b8281528260208201528287820152826060820152015216815260106020522091165f5260205260a060405f20604051610c7b816120da565b81549182825260018101546020830190815260028201549060408401918252608060046003850154946060870195865201549401938452604051948552516020850152516040840152516060830152516080820152f35b5060806003193601126104fd5760043567ffffffffffffffff811161089757610cff903690600401612424565b60243567ffffffffffffffff811161098357610d1f903690600401612424565b60443567ffffffffffffffff8111610d9b57610d3f9036906004016122d2565b916064359267ffffffffffffffff841161089357610d64610d74943690600401612351565b939092610d6f6136ff565b612ca4565b60017f9b779b17422d0df92223018b32b4d1fa46e071723d6817e2486d003becc55f005580f35b8380fd5b5060406003193601126104fd5760043567ffffffffffffffff811161089757610dcc9036906004016122d2565b906024359067ffffffffffffffff82116104fd57610b60610dfa84610df43660048701612351565b91613776565b6040519182916020835260208301906123f1565b50346104fd5760206003193601126104fd5760043567ffffffffffffffff811161089757610e40903690600401612275565b81805b8251811015610ee6576001600160a01b03600c5416610e628285612c90565b51813b15610d9b5783916064839260405194859384927fc2b3356400000000000000000000000000000000000000000000000000000000845260048401523360248401528160448401525af1908115610edb578391610ec6575b5050600101610e43565b81610ed0916120f6565b61089757815f610ebc565b6040513d85823e3d90fd5b5080f35b50346104fd57806003193601126104fd5760206001600160a01b0360095416604051908152f35b50346104fd5760606003193601126104fd57610f2b612189565b610f3361219f565b60443591821515809303610d9b576001600160a01b038092338652600f602052610f6360ff60408820541661252e565b166001600160a01b03196008541617600855166001600160a01b031960095416176009557fffffffffffffffffffffff00ffffffffffffffffffffffffffffffffffffffff74ff0000000000000000000000000000000000000000600e549260a01b16911617600e5580f35b50346104fd57806003193601126104fd5760206001600160a01b037f9016d09d72d40fdae2fd8ceac6b6234c7706214fd39c1cd1e609a0528c1993005416604051908152f35b50346104fd57806003193601126104fd576020600254604051908152f35b50346104fd57806003193601126104fd5760206001600160a01b03600b5416604051908152f35b50346104fd57806003193601126104fd57611073613deb565b806001600160a01b037f9016d09d72d40fdae2fd8ceac6b6234c7706214fd39c1cd1e609a0528c199300546001600160a01b031981167f9016d09d72d40fdae2fd8ceac6b6234c7706214fd39c1cd1e609a0528c19930055167f8be0079c531659141344cd1fd0a4f28419497f9722a3daafe3b4186f6b6457e08280a380f35b50346104fd5760406003193601126104fd5760043567ffffffffffffffff81116108975761112590369060040161216b565b9061112e61219f565b338252600f60205261114660ff60408420541661252e565b6040516001600160a01b03845191602081818801948086835e810160118152030190205416156111a6575b6001600160a01b0390602085604051928391518091835e8101601181520301902091166001600160a01b031982541617905580f35b60135468010000000000000000811015611358576001810160135560135481101561134457601384527f66de8ffda797e3de9c05e8fc57b3bf0ec28a930d40b0d285d93c06501cf6a0900193836113315780519467ffffffffffffffff861161131d576112138154612c58565b601f81116112d8575b50602095601f811160011461126b579081602093926001600160a01b039697985f91611260575b508160011b915f199060031b1c19161790555b9493925050611171565b90508301515f611243565b601f198116825f52875f20905f5b8181106112c05750916001916001600160a01b03979899826020979695106112a8575b5050811b019055611256565b8501515f1960f88460031b161c191690555f8061129c565b858a015183556020998a019960019093019201611279565b815f5260205f20601f880160051c81019160208910611313575b601f0160051c01905b818110611308575061121c565b5f81556001016112fb565b90915081906112f2565b634e487b7160e01b5f52604160045260245ffd5b602484634e487b7160e01b815280600452fd5b602484634e487b7160e01b81526032600452fd5b602484634e487b7160e01b81526041600452fd5b50346104fd5760606003193601126104fd57611386612189565b61138e61219f565b60443567ffffffffffffffff8111610d9b5760406020946001600160a01b036113bc8194369060040161216b565b95168152601286522091165f5282526113d860405f208261250f565b549081156113ea575b50604051908152f35b6113f49150613656565b5f6113e1565b50346104fd57806003193601126104fd5760206001600160a01b03600d5416604051908152f35b506101406003193601126104fd5760043567ffffffffffffffff81116108975761144f90369060040161216b565b61145761219f565b9060443590606435926084359060a4359260038410156106415760c43591600383101561176a576101243567ffffffffffffffff81116117665736602382011215611766576114b0903690602481600401359101612135565b6114b86136ff565b6114c742610104351015612b30565b876114da6509184e72a000890615612b7b565b34906114e585613d57565b9290506114f187612bc6565b600187148015611753575b1561170f578b9a886116ac5750505050602061156e916001600160a01b036040518381885180838b01835e81016011815203019020541660405180809581947f1af189a40000000000000000000000000000000000000000000000000000000083528660048401526024830190612492565b039134905af19081156116a157889161166c575b509187915b6001600160a01b03600e541694853b156116685789976001600160a01b03976115ea966040519b8c9a8b998a987ffb13637b000000000000000000000000000000000000000000000000000000008a5261014060048b01526101448a0190612492565b9616602488015260448701526064860152608485015261160981612bc6565b60a484015261161781612bc6565b60c483015260e43560e4830152336101048301528261012483015203925af180156108445761082f575060017f9b779b17422d0df92223018b32b4d1fa46e071723d6817e2486d003becc55f005580f35b8980fd5b9750506020873d602011611699575b81611688602093836120f6565b81010312610015578796515f611582565b3d915061167b565b6040513d8a823e3d90fd5b9195935093919950156116cb576116c68a99341015612be4565b611587565b606460405162461bcd60e51b815260206004820152600d60248201527f7072696365206973207a65726f000000000000000000000000000000000000006044820152fd5b606460405162461bcd60e51b815260206004820152600f60248201527f77726f6e6720646972656374696f6e00000000000000000000000000000000006044820152fd5b5061175d87612bc6565b600287146114fc565b8880fd5b8780fd5b50346104fd57806003193601126104fd5760206001600160a01b03600a5416604051908152f35b5060806003193601126104fd576117aa612189565b60443567ffffffffffffffff8111610983576117ca9036906004016122d2565b6064359167ffffffffffffffff8311610d9b576117ee61069a933690600401612351565b92909160243590612970565b50346104fd57806003193601126104fd5760206001600160a01b03600c5416604051908152f35b50346104fd5760206003193601126104fd576001600160a01b03611843612189565b168152601460205260408120604051918260208354918281520192825260208220915b81811061188957610b608561187d818703826120f6565b6040519182918261221b565b8254845260209093019260019283019201611866565b50346104fd5760406003193601126104fd576118b9612189565b6024356001548110611b20576118ed6118d23084613990565b6118de83303387613a66565b6118e83085613990565b61290e565b8103611adc57816001600160a01b03849316918284526010602052604084206001600160a01b0333165f5260205260405f206119293384613270565b61193482825461291b565b81556001810161194583825461291b565b9055838552601460205261196a33604087206001915f520160205260405f2054151590565b15611aba575b5061197b3383613393565b604051906001825260208201524260408201523090837feb42cf637f927243245c50b4bf7fe105fe4f4d26209102240f2ba3d8e27a7df860603393a481835260056020526040832054156119cd575050f35b6119d78392613ef1565b506001600160a01b03600a5416827fffffffff0000000000000000000000000000000000000000000000000000000060186020604051611a186040826120f6565b828152017f617070726f766528616464726573732c75696e743235362900000000000000008152201691604051906020820193845260248201525f19604482015260448152611a686064826120f6565b51925af1611a74613a37565b81611a83575b50156104fd5780f35b8051801592508215611a98575b50505f611a7a565b8192509060209181010312610897576020611ab39101612928565b5f80611a90565b6004429101558284526014602052611ad53360408620613f61565b505f611970565b606460405162461bcd60e51b815260206004820152600f60248201527f756e7375697461626c6520636f696e00000000000000000000000000000000006044820152fd5b606460405162461bcd60e51b815260206004820152601860248201527f6465706f73697420616d6f756e7420746f6f20736d616c6c00000000000000006044820152fd5b5080611b91611b7236612382565b611b7e949192946136ff565b6001600160a01b03600e54169285613776565b90803b1561089357611bd693858094604051968795869485937fbcef60d7000000000000000000000000000000000000000000000000000000008552600485016128d7565b03925af180156108445761082f575060017f9b779b17422d0df92223018b32b4d1fa46e071723d6817e2486d003becc55f005580f35b50611c38611c1936612382565b611c25949192946136ff565b6001600160a01b03600c54169285613776565b90803b1561001557611c7d935f8094604051968795869485937feb4f2e36000000000000000000000000000000000000000000000000000000008552600485016128d7565b03925af18015611cc657611cb3575060017f9b779b17422d0df92223018b32b4d1fa46e071723d6817e2486d003becc55f005580f35b611cbf91505f906120f6565b5f5f610807565b6040513d5f823e3d90fd5b34610015575f6003193601126100155760206001600160a01b03600e5416604051908152f35b3461001557606060031936011261001557611d10612189565b60243567ffffffffffffffff811161001557611d3090369060040161216b565b604435906001600160a01b03604051602081845180838701835e810160118152030190205416611f6c57611d6381613656565b8215159081611f61575b5015611f1d575f6001600160a01b0380600b54169416905b60028110611e3557509081611e32925f52601260205260405f206001600160a01b0333165f526020527f876c9e1723578de812ea7970374a8505b6086b8f573cea692c1e18c2e1c3dc27611ddc60405f208461250f565b54604051809184825233602083015260a06040830152611dff60a0830187612492565b9060608301528760808301520390a15f52601260205260405f206001600160a01b0333165f5260205260405f209061250f565b55005b6040517f3a0204a90000000000000000000000000000000000000000000000000000000081528260048201523360248201526080604482015260808180611e7f6084820188612492565b8560648301520381895afa908115611cc6575f91611ee9575b50611ea557600101611d85565b606460405162461bcd60e51b815260206004820152600b60248201527f65786973742061737365740000000000000000000000000000000000000000006044820152fd5b90506080813d8211611f15575b81611f03608093836120f6565b81010312610015576020015186611e98565b3d9150611ef6565b606460405162461bcd60e51b815260206004820152601560248201527f6c65766572616765206f7574206f6620312d31303000000000000000000000006044820152fd5b905082111584611d6d565b606460405162461bcd60e51b815260206004820152600a60248201527f77726f6e67206e616d65000000000000000000000000000000000000000000006044820152fd5b34610015575f6003193601126100155760405180602060045491828152019060045f527f8a35acfbc15ff81a39ae7d344fd709f28e8600b4aa8c65c6b64bfe7fe36bd19b905f5b81811061200e57610b608561187d818703826120f6565b8254845260209093019260019283019201611ff7565b3461001557612053612035366121e1565b91335f52600f60205261204e60ff60405f20541661252e565b6125d2565b005b34610015575f6003193601126100155760206001600160a01b0360065416604051908152f35b346100155760206003193601126100155760043567ffffffffffffffff8111610015576001600160a01b036020806120b88194369060040161216b565b604051928184925191829101835e810160118152030190205416604051908152f35b60a0810190811067ffffffffffffffff82111761131d57604052565b90601f601f19910116810190811067ffffffffffffffff82111761131d57604052565b67ffffffffffffffff811161131d57601f01601f191660200190565b92919261214182612119565b9161214f60405193846120f6565b829481845281830111610015578281602093845f960137010152565b9080601f830112156100155781602061218693359101612135565b90565b600435906001600160a01b038216820361001557565b602435906001600160a01b038216820361001557565b604435906001600160a01b038216820361001557565b606435906001600160a01b038216820361001557565b6003196060910112610015576004356001600160a01b038116810361001557906024356001600160a01b0381168103610015579060443590565b60206040818301928281528451809452019201905f5b81811061223e5750505090565b82516001600160a01b0316845260209384019390920191600101612231565b67ffffffffffffffff811161131d5760051b60200190565b9080601f8301121561001557813561228c8161225d565b9261229a60405194856120f6565b81845260208085019260051b82010192831161001557602001905b8282106122c25750505090565b81358152602091820191016122b5565b9080601f830112156100155781356122e98161225d565b926122f760405194856120f6565b81845260208085019260051b820101918383116100155760208201905b83821061232357505050505090565b813567ffffffffffffffff8111610015576020916123468784809488010161216b565b815201910190612314565b9181601f840112156100155782359167ffffffffffffffff8311610015576020808501948460051b01011161001557565b60606003198201126100155760043567ffffffffffffffff811161001557816123ad91600401612275565b9160243567ffffffffffffffff811161001557826123cd916004016122d2565b916044359067ffffffffffffffff8211610015576123ed91600401612351565b9091565b90602080835192838152019201905f5b81811061240e5750505090565b8251845260209384019390920191600101612401565b9080601f830112156100155781359061243c8261225d565b9261244a60405194856120f6565b82845260208085019360051b82010191821161001557602001915b8183106124725750505090565b82356001600160a01b038116810361001557815260209283019201612465565b90601f19601f602080948051918291828752018686015e5f8582860101520116010190565b9080602083519182815201916020808360051b8301019401925f915b8383106124e257505050505090565b909192939460208061250083601f1986600196030187528951612492565b970193019301919392906124d3565b6040518151909260209284929081908501845e82019081520301902090565b1561253557565b606460405162461bcd60e51b815260206004820152601e60248201527f63616c6c6572206973206e6f742070657270657475616c206b656570657200006044820152fd5b51906001600160a01b038216820361001557565b818102929181159184041417156125a057565b634e487b7160e01b5f52601160045260245ffd5b81156125be570490565b634e487b7160e01b5f52601260045260245ffd5b9082156128d257600d546001600160a01b0316925f808080876127ff575b6126a5975061260c6126046003548761258d565b5f54906125b4565b949182816001600160a01b0384161515806127f7575b806127ee575b6127ac575b50505050829080936001600160a01b0384161515806127a3575b8061279a575b612758575b505050506001600160a01b036009541690829080938315158061274f575b80612746575b61270b575b5050505091829160ff600e5460a01c166126a8575b8293506001600160a01b036008541691613572565b50565b9150916001600160a01b03600654168181151580612702575b806126f9575b6126d6575b5050908290612690565b6126f2919250600b5f936126eb838289613c3e565b8587613be7565b5f806126cc565b508015156126c7565b508015156126c1565b61273293945081115f1461273b5761272582600e9261290e565b935b6126eb838289613c3e565b5f80808061267b565b9050600e5f93612727565b50801515612676565b50811515612670565b61278693945081115f1461278f5761277282600c9261290e565b935b61277f83828a613c3e565b8688613be7565b5f808080612652565b9050600c5f93612774565b5080151561264d565b50811515612647565b6127da93945081115f146127e3576127c68260119261290e565b935b6127d383828c613c3e565b888a613be7565b5f80808061262d565b905060115f936127c8565b50801515612628565b506001612622565b50506040517f9594bd1b0000000000000000000000000000000000000000000000000000000081526001600160a01b0386811660048301528516602482015260448101849052956080925086915060649082905f905af18015611cc6575f905f905f905f90612877575b6126a59750909192916125f0565b505050506080843d6080116128ca575b81612894608093836120f6565b8101031261001557836128a96126a595612579565b9060208101519160606128be60408401612579565b92015190929190612869565b3d9150612887565b505050565b91612900906128f261218695936060865260608601906123f1565b9084820360208601526124b7565b9160408184039101526123f1565b919082039182116125a057565b919082018092116125a057565b5190811515820361001557565b926001600160a01b03612186959381612962941686521660208501526080604085015260808401906124b7565b9160608184039101526123f1565b93916040906129c992946129925f956001600160a01b03600c54169284613776565b9183518095819482937fd15a1b41000000000000000000000000000000000000000000000000000000008452338c60048601612935565b03915afa908115611cc6575f905f92612aef575b5015612ae7575b5081156128d2576001600160a01b03831692835f52601060205260405f206001600160a01b0333165f5260205260405f2091612a203383613270565b6001830190612a318254918661291b565b8110612aa35784612a529185612a4b83612a66985461290e565b905561290e565b9055612a5f833383613c3e565b3390613393565b6040519060028252602082015242604082015233917feb42cf637f927243245c50b4bf7fe105fe4f4d26209102240f2ba3d8e27a7df860603093a4565b606460405162461bcd60e51b815260206004820152601960248201527f776974686472657720616d6f756e7420746f6f206c61726765000000000000006044820152fd5b90505f6129e4565b9150506040813d604011612b28575b81612b0b604093836120f6565b81010312610015576020612b1e82612928565b910151905f6129dd565b3d9150612afe565b15612b3757565b606460405162461bcd60e51b815260206004820152600760248201527f65787069726564000000000000000000000000000000000000000000000000006044820152fd5b15612b8257565b606460405162461bcd60e51b815260206004820152601660248201527f616d6f756e7420707265636973696f6e206572726f72000000000000000000006044820152fd5b60031115612bd057565b634e487b7160e01b5f52602160045260245ffd5b15612beb57565b606460405162461bcd60e51b815260206004820152600b60248201527f6c657373207265776172640000000000000000000000000000000000000000006044820152fd5b8054821015612c44575f5260205f2001905f90565b634e487b7160e01b5f52603260045260245ffd5b90600182811c92168015612c86575b6020831014612c7257565b634e487b7160e01b5f52602260045260245ffd5b91607f1691612c67565b8051821015612c445760209160051b010190565b93612cb191959383613776565b915f5b8451811015613268575f5b865181101561325f576001600160a01b03612cda8388612c90565b5116906001600160a01b03612cef828a612c90565b5116825f52601060205260405f206001600160a01b0382165f52602052612d1a60405f205484613e4a565b801561325357612d2a8285613270565b612d746080896001600160a01b03600c54168a6040518095819482937fd719606a0000000000000000000000000000000000000000000000000000000084528a8d60048601612935565b03915afa908115611cc6575f9161321a575b50612e91575b50610100837fbbd1b090970f0e970b855e7b10fb629b05c0ea0c6e28e9b67a3573a05b947d31926001955f52601060205260405f206001600160a01b0382165f5260205260405f209060405191612de2836120da565b805483528781015460208401818152612e1f610a5960028501546040880194818652600460038801549760608b01988952015460808a015261291b565b855181811115612e715750612e3590865161290e565b945b5190519151925193604051968752602087015260408601526060850152608084015260a0830152600b60c083015260e0820152a101612cbf565b81811015612e8857612e829161290e565b94612e37565b50505f94612e37565b6001600160a01b036007541690612ea88286613990565b604051927fdd62ed3e0000000000000000000000000000000000000000000000000000000084526004840152306024840152602083604481895afa8015611cc65789935f916131e2575b50612f02612f19915f549061258d565b612f13612f0e89613e65565b613982565b906125b4565b8082116131da575b5060208a6001600160a01b03600e5416865f8a612fa4612f41888a61291b565b95612f926040519b8c98899788967fc59b4d7800000000000000000000000000000000000000000000000000000000885260048801526024870152604486015260a0606486015260a48501906124b7565b906003198483030160848501526123f1565b03925af1928315611cc6575f9361317f575b509282869282600198877fbbd1b090970f0e970b855e7b10fb629b05c0ea0c6e28e9b67a3573a05b947d319861010098145f146130485750505061300791506001600160a01b03600a541684613c3e565b815f52601060205260405f206001600160a01b0382165f526020525f6004604082208281558289820155826002820155826003820155015592509350612d8c565b9091928185115f146130eb576130d27feb42cf637f927243245c50b4bf7fe105fe4f4d26209102240f2ba3d8e27a7df8926130c060609361309f6001600160a01b0360075416613098858c61290e565b9089613c3e565b6130b9896118e8856001600160a01b03600a54169461291b565b9087613c3e565b6001600160a01b03600754169661290e565b60405190600882526020820152426040820152a4613007565b6131667feb42cf637f927243245c50b4bf7fe105fe4f4d26209102240f2ba3d8e27a7df892949561315460609361313a6001600160a01b0360075416613131858b61290e565b9030908a613a66565b6130b9836118e88a6001600160a01b03600a54169461291b565b6001600160a01b03600754169561290e565b60405190600982526020820152426040820152a4613007565b92509490926020833d82116131d2575b8161319c602093836120f6565b810103126100155791519094919290917fbbd1b090970f0e970b855e7b10fb629b05c0ea0c6e28e9b67a3573a05b947d31612fb6565b3d915061318f565b90505f612f21565b9350506020833d8211613212575b816131fd602093836120f6565b81010312610015579151889290612f02612ef2565b3d91506131f0565b90506080813d821161324b575b81613234608093836120f6565b810103126100155761324590612928565b5f612d86565b3d9150613227565b50505050509350505050565b50600101612cb4565b509350505050565b7fbbd1b090970f0e970b855e7b10fb629b05c0ea0c6e28e9b67a3573a05b947d31916001600160a01b03610100921690815f52601060205260405f206001600160a01b0382165f5260205260405f2090604051916132cd836120da565b8054835260018101546020840181815261330b610a5960028501546040880194818652600460038801549760608b01988952015460808a015261291b565b85518181111561336157506133296001600160a01b0391875161290e565b955b519151925193519460405197885216602087015260408601526060850152608084015260a08301525f60c083015260e0820152a1565b9080821015613382576001600160a01b039161337c9161290e565b9561332b565b50506001600160a01b035f9561332b565b7fbbd1b090970f0e970b855e7b10fb629b05c0ea0c6e28e9b67a3573a05b947d31916001600160a01b03610100921690815f52601060205260405f206001600160a01b0382165f5260205260405f2090604051916133f0836120da565b8054835260018101546020840181815261342e610a5960028501546040880194818652600460038801549760608b01988952015460808a015261291b565b855181811115613485575061344c6001600160a01b0391875161290e565b955b519151925193519460405197885216602087015260408601526060850152608084015260a0830152600a60c083015260e0820152a1565b90808210156134a6576001600160a01b03916134a09161290e565b9561344e565b50506001600160a01b035f9561344e565b6001600160a01b03168015613546576001600160a01b037f9016d09d72d40fdae2fd8ceac6b6234c7706214fd39c1cd1e609a0528c19930054826001600160a01b03198216177f9016d09d72d40fdae2fd8ceac6b6234c7706214fd39c1cd1e609a0528c19930055167f8be0079c531659141344cd1fd0a4f28419497f9722a3daafe3b4186f6b6457e05f80a3565b7f1e4fbdf7000000000000000000000000000000000000000000000000000000005f525f60045260245ffd5b92939091846001600160a01b0382161515806135ea575b806135e1575b61359c575b505050505090565b6135cb9495508281115f146135d557926135b983600d949561290e565b955b6135c6858483613c3e565b613be7565b5f80808080613594565b600d9250925f956135bb565b5082151561358f565b50801515613589565b908160c0910312610015576040519060c082019082821067ffffffffffffffff83111761131d5760a0916040528051835260208101516020840152604081015160408401526060810151606084015260808101516080840152015160a082015290565b60405181516001600160a01b0392602091839181908401835e601190820190815203019020541680156136f95760c0600491604051928380927f639122c90000000000000000000000000000000000000000000000000000000082525afa8015611cc6576060915f916136ca575b50015190565b6136ec915060c03d60c0116136f2575b6136e481836120f6565b8101906135f3565b5f6136c4565b503d6136da565b50606490565b60027f9b779b17422d0df92223018b32b4d1fa46e071723d6817e2486d003becc55f00541461374e5760027f9b779b17422d0df92223018b32b4d1fa46e071723d6817e2486d003becc55f0055565b7f3ee5aeb5000000000000000000000000000000000000000000000000000000005f5260045ffd5b909291928382510361393e5761378d8251346125b4565b90825180156125be573406936137a28661225d565b936137b060405195866120f6565b868552601f196137bf8861225d565b0136602087013784955f5b825180821015613932575f1981019081116125a0578114613921575b6001600160a01b036020806137fb8487612c90565b51604051928184925191829101835e8101601181520301902054169089811015612c44578060051b8601357fffffffffffffffffffffffffffffffffffffffffffffffffffffffffffffffe18736030181121561001557860180359067ffffffffffffffff82116100155760200190803603821361001557601f93818a6044602095601f19604051998a97889687947f1af189a40000000000000000000000000000000000000000000000000000000086528b6004870152816024870152868601375f858286010152011681010301925af18015611cc6575f906138ef575b600192506138e8828a612c90565b52016137ca565b506020823d8211613919575b81613908602093836120f6565b8101031261001557600191516138da565b3d91506138fb565b948161392c9161291b565b946137e6565b50505050939450505050565b606460405162461bcd60e51b815260206004820152602060248201527f496e636f6e73697374656e74207072696365206172726179206c656e677468736044820152fd5b604d81116125a057600a0a90565b6001600160a01b03604051927f70a082310000000000000000000000000000000000000000000000000000000084521660048301526020826024816001600160a01b0385165afa918215611cc6575f92613a01575b50612f13612f0e6139fb612186945f549061258d565b92613e65565b91506020823d602011613a2f575b81613a1c602093836120f6565b8101031261001557905190612f136139e5565b3d9150613a0f565b3d15613a61573d90613a4882612119565b91613a5660405193846120f6565b82523d5f602084013e565b606090565b9092612604613a8191613a7b612f0e85613e65565b9061258d565b80151580613bd5575b80613bc3575b613a9b575b50505050565b5f809493613b6b8295613b5d7fffffffff000000000000000000000000000000000000000000000000000000006025604051613ad86060826120f6565b8181527f7432353629000000000000000000000000000000000000000000000000000000604060208301927f7472616e7366657246726f6d28616464726573732c616464726573732c75696e8452015220169560405194859360208501988952602485016001600160a01b036040929594938160608401971683521660208201520152565b03601f1981018352826120f6565b51925af1613b77613a37565b81613b8c575b5015610015575f808080613a95565b8051801592508215613ba1575b50505f613b7d565b8192509060209181010312610015576020613bbc9101612928565b5f80613b99565b506001600160a01b0383161515613a90565b506001600160a01b0384161515613a8a565b92939093604051926013821015612bd0576001600160a01b038080927feb42cf637f927243245c50b4bf7fe105fe4f4d26209102240f2ba3d8e27a7df89560609588526020880152426040880152169616941692a4565b91612604613c5291613a7b612f0e86613e65565b9182151580613d45575b613c6557505050565b5f928380937fffffffff0000000000000000000000000000000000000000000000000000000060196020604051613c9d6040826120f6565b828152017f7472616e7366657228616464726573732c75696e74323536290000000000000081522016926001600160a01b036040519260208401958652166024830152604482015260448152613cf46064826120f6565b51925af1613d00613a37565b81613d0e575b501561001557565b8051801592508215613d23575b50505f613d06565b8192509060209181010312610015576020613d3e9101612928565b5f80613d1b565b506001600160a01b0382161515613c5c565b9060c06001600160a01b03602080600495604051928184925191829101835e810160118152030190205416604051938480927f639122c90000000000000000000000000000000000000000000000000000000082525afa918215611cc6575f92613dca575b506020604083015192015190565b613de491925060c03d60c0116136f2576136e481836120f6565b905f613dbc565b6001600160a01b037f9016d09d72d40fdae2fd8ceac6b6234c7706214fd39c1cd1e609a0528c19930054163303613e1e57565b7f118cdaa7000000000000000000000000000000000000000000000000000000005f523360045260245ffd5b613e55903090613990565b808211613e60575090565b905090565b60206001600160a01b03916004604051809481937f313ce567000000000000000000000000000000000000000000000000000000008352165afa8015611cc6575f90613eb4575b60ff91501690565b506020813d602011613ee9575b81613ece602093836120f6565b81010312610015575160ff811681036100155760ff90613eac565b3d9150613ec1565b805f52600560205260405f2054155f14613f5c576004546801000000000000000081101561131d57613f45613f2f8260018594016004556004612c2f565b819391549060031b91821b915f19901b19161790565b9055600454905f52600560205260405f2055600190565b505f90565b5f828152600182016020526040902054613fb3578054906801000000000000000082101561131d5782613f9e613f2f846001809601855584612c2f565b90558054925f520160205260405f2055600190565b50505f90565b60ff7ff0c57e16840df040f15088dc2f81fe391c3923bec73e23a9662efc9c229c6a005460401c1615613fe857565b7fd7e6bcf8000000000000000000000000000000000000000000000000000000005f5260045ffdfea2646970667358221220f24d3f7a8f5c9fc66111ad7cbf66d82f0608ed4b44c45632a0a2079b2d1afb5a64736f6c634300081c0033",
  "linkReferences": {},
  "deployedLinkReferences": {}
}