{
  "_format": "hh-sol-artifact-1",
  "contractName": "PoolAgent",
  "sourceName": "contracts/PoolAgent.sol",
  "abi": [
    {
      "inputs": [],
      "name": "InvalidInitialization",
      "type": "error"
    },
    {
      "inputs": [],
      "name": "NotInitializing",
      "type": "error"
    },
    {
      "inputs": [
        {
          "internalType": "address",
          "name": "owner",
          "type": "address"
        }
      ],
      "name": "OwnableInvalidOwner",
      "type": "error"
    },
    {
      "inputs": [
        {
          "internalType": "address",
          "name": "account",
          "type": "address"
        }
      ],
      "name": "OwnableUnauthorizedAccount",
      "type": "error"
    },
    {
      "anonymous": false,
      "inputs": [
        {
          "indexed": false,
          "internalType": "address",
          "name": "token",
          "type": "address"
        },
        {
          "indexed": false,
          "internalType": "address",
          "name": "holder",
          "type": "address"
        },
        {
          "indexed": false,
          "internalType": "string",
          "name": "name",
          "type": "string"
        },
        {
          "indexed": false,
          "internalType": "enum ICommon.Direct",
          "name": "direct",
          "type": "uint8"
        },
        {
          "indexed": false,
          "internalType": "uint256",
          "name": "value",
          "type": "uint256"
        },
        {
          "indexed": false,
          "internalType": "uint256",
          "name": "size",
          "type": "uint256"
        },
        {
          "indexed": false,
          "internalType": "uint256",
          "name": "margin",
          "type": "uint256"
        },
        {
          "indexed": false,
          "internalType": "uint256",
          "name": "freeze",
          "type": "uint256"
        }
      ],
      "name": "AccountPosition",
      "type": "event"
    },
    {
      "anonymous": false,
      "inputs": [
        {
          "indexed": true,
          "internalType": "address",
          "name": "account",
          "type": "address"
        },
        {
          "indexed": true,
          "internalType": "address",
          "name": "token",
          "type": "address"
        },
        {
          "indexed": false,
          "internalType": "uint256",
          "name": "orderID",
          "type": "uint256"
        },
        {
          "indexed": false,
          "internalType": "uint256",
          "name": "amount",
          "type": "uint256"
        },
        {
          "indexed": false,
          "internalType": "uint256",
          "name": "margin",
          "type": "uint256"
        }
      ],
      "name": "AddMargin",
      "type": "event"
    },
    {
      "anonymous": false,
      "inputs": [
        {
          "indexed": false,
          "internalType": "address",
          "name": "token",
          "type": "address"
        },
        {
          "indexed": false,
          "internalType": "address",
          "name": "maker",
          "type": "address"
        },
        {
          "indexed": false,
          "internalType": "uint256",
          "name": "amount",
          "type": "uint256"
        },
        {
          "indexed": false,
          "internalType": "uint256",
          "name": "availableAmount",
          "type": "uint256"
        },
        {
          "indexed": false,
          "internalType": "uint256",
          "name": "lockedAmount",
          "type": "uint256"
        },
        {
          "indexed": false,
          "internalType": "uint256",
          "name": "maintenanceMargin",
          "type": "uint256"
        },
        {
          "indexed": false,
          "internalType": "uint256",
          "name": "share",
          "type": "uint256"
        },
        {
          "indexed": false,
          "internalType": "uint256",
          "name": "flag",
          "type": "uint256"
        }
      ],
      "name": "BalanceOfMaker",
      "type": "event"
    },
    {
      "anonymous": false,
      "inputs": [
        {
          "indexed": false,
          "internalType": "address",
          "name": "token",
          "type": "address"
        },
        {
          "indexed": false,
          "internalType": "address",
          "name": "taker",
          "type": "address"
        },
        {
          "indexed": false,
          "internalType": "uint256",
          "name": "amount",
          "type": "uint256"
        },
        {
          "indexed": false,
          "internalType": "uint256",
          "name": "availableAmount",
          "type": "uint256"
        },
        {
          "indexed": false,
          "internalType": "uint256",
          "name": "marginAmount",
          "type": "uint256"
        },
        {
          "indexed": false,
          "internalType": "uint256",
          "name": "locked",
          "type": "uint256"
        },
        {
          "indexed": false,
          "internalType": "uint256",
          "name": "stage",
          "type": "uint256"
        },
        {
          "indexed": false,
          "internalType": "uint256",
          "name": "dif",
          "type": "uint256"
        }
      ],
      "name": "BalanceOfTaker",
      "type": "event"
    },
    {
      "anonymous": false,
      "inputs": [
        {
          "indexed": false,
          "internalType": "uint256",
          "name": "dealID",
          "type": "uint256"
        },
        {
          "indexed": false,
          "internalType": "address",
          "name": "token",
          "type": "address"
        },
        {
          "indexed": false,
          "internalType": "address",
          "name": "maker",
          "type": "address"
        },
        {
          "indexed": false,
          "internalType": "uint256",
          "name": "size",
          "type": "uint256"
        },
        {
          "indexed": false,
          "internalType": "uint256",
          "name": "price",
          "type": "uint256"
        },
        {
          "indexed": false,
          "internalType": "uint256",
          "name": "makerID",
          "type": "uint256"
        },
        {
          "indexed": false,
          "internalType": "uint256",
          "name": "makerGain",
          "type": "uint256"
        },
        {
          "indexed": false,
          "internalType": "uint256",
          "name": "makerLoss",
          "type": "uint256"
        },
        {
          "indexed": false,
          "internalType": "uint256",
          "name": "closeFlag",
          "type": "uint256"
        },
        {
          "indexed": false,
          "internalType": "uint256",
          "name": "closeType",
          "type": "uint256"
        }
      ],
      "name": "CloseMakerDealInPool",
      "type": "event"
    },
    {
      "anonymous": false,
      "inputs": [
        {
          "indexed": false,
          "internalType": "string",
          "name": "name",
          "type": "string"
        },
        {
          "indexed": true,
          "internalType": "address",
          "name": "taker",
          "type": "address"
        },
        {
          "indexed": true,
          "internalType": "address",
          "name": "token",
          "type": "address"
        },
        {
          "indexed": false,
          "internalType": "uint256",
          "name": "orderID",
          "type": "uint256"
        },
        {
          "indexed": false,
          "internalType": "enum ICommon.Direct",
          "name": "orderType",
          "type": "uint8"
        },
        {
          "indexed": false,
          "internalType": "enum IPerpetual.OrderState",
          "name": "state",
          "type": "uint8"
        },
        {
          "indexed": false,
          "internalType": "enum ICommon.Offset",
          "name": "offset",
          "type": "uint8"
        },
        {
          "indexed": false,
          "internalType": "uint256",
          "name": "amount",
          "type": "uint256"
        },
        {
          "indexed": false,
          "internalType": "uint256",
          "name": "targetPrice",
          "type": "uint256"
        },
        {
          "indexed": false,
          "internalType": "uint256",
          "name": "margin",
          "type": "uint256"
        },
        {
          "indexed": false,
          "internalType": "uint256",
          "name": "rewardGas",
          "type": "uint256"
        },
        {
          "indexed": false,
          "internalType": "uint256",
          "name": "tradingFee",
          "type": "uint256"
        },
        {
          "indexed": false,
          "internalType": "uint256",
          "name": "startTime",
          "type": "uint256"
        },
        {
          "indexed": false,
          "internalType": "uint256",
          "name": "goodTill",
          "type": "uint256"
        }
      ],
      "name": "CreateLimitedOrder",
      "type": "event"
    },
    {
      "anonymous": false,
      "inputs": [
        {
          "indexed": false,
          "internalType": "uint256",
          "name": "limitOrderID",
          "type": "uint256"
        },
        {
          "indexed": false,
          "internalType": "uint256",
          "name": "openLimitPrice",
          "type": "uint256"
        },
        {
          "indexed": false,
          "internalType": "uint256",
          "name": "gainTriggerPrice",
          "type": "uint256"
        },
        {
          "indexed": false,
          "internalType": "uint256",
          "name": "gainLimitPrice",
          "type": "uint256"
        },
        {
          "indexed": false,
          "internalType": "uint256",
          "name": "lossTriggerPrice",
          "type": "uint256"
        },
        {
          "indexed": false,
          "internalType": "uint256",
          "name": "lossLimitPrice",
          "type": "uint256"
        }
      ],
      "name": "CreateTriggerCondition",
      "type": "event"
    },
    {
      "anonymous": false,
      "inputs": [
        {
          "indexed": false,
          "internalType": "uint256",
          "name": "code",
          "type": "uint256"
        },
        {
          "indexed": false,
          "internalType": "uint256",
          "name": "orderID",
          "type": "uint256"
        },
        {
          "indexed": false,
          "internalType": "string",
          "name": "message",
          "type": "string"
        }
      ],
      "name": "ErrorInfo",
      "type": "event"
    },
    {
      "anonymous": false,
      "inputs": [
        {
          "indexed": false,
          "internalType": "uint256",
          "name": "code",
          "type": "uint256"
        },
        {
          "indexed": false,
          "internalType": "uint256",
          "name": "orderID",
          "type": "uint256"
        },
        {
          "indexed": false,
          "internalType": "bytes",
          "name": "message",
          "type": "bytes"
        }
      ],
      "name": "ExceptErrorInfo",
      "type": "event"
    },
    {
      "anonymous": false,
      "inputs": [
        {
          "indexed": false,
          "internalType": "uint64",
          "name": "version",
          "type": "uint64"
        }
      ],
      "name": "Initialized",
      "type": "event"
    },
    {
      "anonymous": false,
      "inputs": [
        {
          "indexed": false,
          "internalType": "string",
          "name": "name",
          "type": "string"
        },
        {
          "indexed": true,
          "internalType": "address",
          "name": "taker",
          "type": "address"
        },
        {
          "indexed": true,
          "internalType": "address",
          "name": "token",
          "type": "address"
        },
        {
          "indexed": false,
          "internalType": "uint256",
          "name": "orderID",
          "type": "uint256"
        },
        {
          "indexed": false,
          "internalType": "enum ICommon.Direct",
          "name": "orderType",
          "type": "uint8"
        },
        {
          "indexed": false,
          "internalType": "enum IPerpetual.OrderState",
          "name": "state",
          "type": "uint8"
        },
        {
          "indexed": false,
          "internalType": "enum ICommon.Offset",
          "name": "offset",
          "type": "uint8"
        },
        {
          "indexed": false,
          "internalType": "uint256",
          "name": "amount",
          "type": "uint256"
        },
        {
          "indexed": false,
          "internalType": "uint256",
          "name": "targetPrice",
          "type": "uint256"
        },
        {
          "indexed": false,
          "internalType": "uint256",
          "name": "margin",
          "type": "uint256"
        },
        {
          "indexed": false,
          "internalType": "uint256",
          "name": "rewardGas",
          "type": "uint256"
        },
        {
          "indexed": false,
          "internalType": "uint256",
          "name": "tradingFee",
          "type": "uint256"
        },
        {
          "indexed": false,
          "internalType": "uint256",
          "name": "startTime",
          "type": "uint256"
        },
        {
          "indexed": false,
          "internalType": "uint256",
          "name": "goodTill",
          "type": "uint256"
        }
      ],
      "name": "LimitedOrderHistory",
      "type": "event"
    },
    {
      "anonymous": false,
      "inputs": [
        {
          "indexed": false,
          "internalType": "uint256",
          "name": "dealID",
          "type": "uint256"
        },
        {
          "indexed": false,
          "internalType": "address",
          "name": "token",
          "type": "address"
        },
        {
          "indexed": false,
          "internalType": "address",
          "name": "maker",
          "type": "address"
        },
        {
          "indexed": false,
          "internalType": "uint256",
          "name": "size",
          "type": "uint256"
        },
        {
          "indexed": false,
          "internalType": "uint256",
          "name": "price",
          "type": "uint256"
        },
        {
          "indexed": false,
          "internalType": "uint256",
          "name": "makerID",
          "type": "uint256"
        },
        {
          "indexed": false,
          "internalType": "uint256",
          "name": "marginAmount",
          "type": "uint256"
        },
        {
          "indexed": false,
          "internalType": "uint256",
          "name": "maintenanceMargin",
          "type": "uint256"
        },
        {
          "indexed": false,
          "internalType": "uint256",
          "name": "flag",
          "type": "uint256"
        }
      ],
      "name": "LockPoolMargin",
      "type": "event"
    },
    {
      "anonymous": false,
      "inputs": [
        {
          "indexed": true,
          "internalType": "address",
          "name": "taker",
          "type": "address"
        },
        {
          "indexed": false,
          "internalType": "string",
          "name": "name",
          "type": "string"
        },
        {
          "indexed": false,
          "internalType": "address",
          "name": "token",
          "type": "address"
        },
        {
          "indexed": false,
          "internalType": "uint256",
          "name": "orderID",
          "type": "uint256"
        },
        {
          "indexed": false,
          "internalType": "enum ICommon.Direct",
          "name": "direction",
          "type": "uint8"
        },
        {
          "indexed": false,
          "internalType": "enum IPerpetual.OrderType",
          "name": "orderType",
          "type": "uint8"
        },
        {
          "indexed": false,
          "internalType": "uint256",
          "name": "amount",
          "type": "uint256"
        },
        {
          "indexed": false,
          "internalType": "uint256",
          "name": "costPrice",
          "type": "uint256"
        },
        {
          "indexed": false,
          "internalType": "uint256",
          "name": "price",
          "type": "uint256"
        },
        {
          "indexed": false,
          "internalType": "uint256",
          "name": "tradingFee",
          "type": "uint256"
        },
        {
          "indexed": false,
          "internalType": "uint256",
          "name": "leverage",
          "type": "uint256"
        },
        {
          "indexed": false,
          "internalType": "uint256",
          "name": "marginAmount",
          "type": "uint256"
        },
        {
          "indexed": false,
          "internalType": "uint256",
          "name": "limitOrderId",
          "type": "uint256"
        },
        {
          "indexed": false,
          "internalType": "uint256",
          "name": "timestamp",
          "type": "uint256"
        }
      ],
      "name": "OrderHistory",
      "type": "event"
    },
    {
      "anonymous": false,
      "inputs": [
        {
          "indexed": true,
          "internalType": "address",
          "name": "previousOwner",
          "type": "address"
        },
        {
          "indexed": true,
          "internalType": "address",
          "name": "newOwner",
          "type": "address"
        }
      ],
      "name": "OwnershipTransferred",
      "type": "event"
    },
    {
      "anonymous": false,
      "inputs": [
        {
          "indexed": true,
          "internalType": "address",
          "name": "account",
          "type": "address"
        },
        {
          "indexed": true,
          "internalType": "address",
          "name": "token",
          "type": "address"
        },
        {
          "indexed": false,
          "internalType": "uint256",
          "name": "amount",
          "type": "uint256"
        },
        {
          "indexed": false,
          "internalType": "enum ICommon.PoolFlag",
          "name": "poolType",
          "type": "uint8"
        }
      ],
      "name": "Provide",
      "type": "event"
    },
    {
      "anonymous": false,
      "inputs": [
        {
          "indexed": false,
          "internalType": "address",
          "name": "token",
          "type": "address"
        },
        {
          "indexed": false,
          "internalType": "uint256",
          "name": "orderID",
          "type": "uint256"
        },
        {
          "indexed": false,
          "internalType": "uint256",
          "name": "dealID",
          "type": "uint256"
        },
        {
          "indexed": false,
          "internalType": "enum IPerpetual.TradeType",
          "name": "tradeType",
          "type": "uint8"
        },
        {
          "indexed": false,
          "internalType": "uint256",
          "name": "amount",
          "type": "uint256"
        },
        {
          "indexed": false,
          "internalType": "uint256",
          "name": "price",
          "type": "uint256"
        },
        {
          "indexed": false,
          "internalType": "uint256",
          "name": "tradingFee",
          "type": "uint256"
        },
        {
          "indexed": false,
          "internalType": "uint256",
          "name": "leverage",
          "type": "uint256"
        },
        {
          "indexed": false,
          "internalType": "uint256",
          "name": "marginAmount",
          "type": "uint256"
        },
        {
          "indexed": false,
          "internalType": "uint256",
          "name": "profit",
          "type": "uint256"
        },
        {
          "indexed": false,
          "internalType": "uint256",
          "name": "loss",
          "type": "uint256"
        },
        {
          "indexed": false,
          "internalType": "uint256",
          "name": "timestamp",
          "type": "uint256"
        }
      ],
      "name": "TradeHistory",
      "type": "event"
    },
    {
      "anonymous": false,
      "inputs": [
        {
          "indexed": true,
          "internalType": "address",
          "name": "token",
          "type": "address"
        },
        {
          "indexed": true,
          "internalType": "address",
          "name": "sender",
          "type": "address"
        },
        {
          "indexed": true,
          "internalType": "address",
          "name": "received",
          "type": "address"
        },
        {
          "indexed": false,
          "internalType": "enum ICommon.TransactionType",
          "name": "transactionType",
          "type": "uint8"
        },
        {
          "indexed": false,
          "internalType": "uint256",
          "name": "amount",
          "type": "uint256"
        },
        {
          "indexed": false,
          "internalType": "uint256",
          "name": "timestamp",
          "type": "uint256"
        }
      ],
      "name": "TransactionHistory",
      "type": "event"
    },
    {
      "anonymous": false,
      "inputs": [
        {
          "indexed": true,
          "internalType": "address",
          "name": "account",
          "type": "address"
        },
        {
          "indexed": true,
          "internalType": "address",
          "name": "token",
          "type": "address"
        },
        {
          "indexed": false,
          "internalType": "uint256",
          "name": "amount",
          "type": "uint256"
        },
        {
          "indexed": false,
          "internalType": "enum ICommon.PoolFlag",
          "name": "poolType",
          "type": "uint8"
        }
      ],
      "name": "Withdraw",
      "type": "event"
    },
    {
      "anonymous": false,
      "inputs": [
        {
          "indexed": false,
          "internalType": "address",
          "name": "token",
          "type": "address"
        },
        {
          "indexed": false,
          "internalType": "address",
          "name": "sender",
          "type": "address"
        },
        {
          "indexed": false,
          "internalType": "string",
          "name": "name",
          "type": "string"
        },
        {
          "indexed": false,
          "internalType": "uint256",
          "name": "beforeLeverage",
          "type": "uint256"
        },
        {
          "indexed": false,
          "internalType": "uint256",
          "name": "afterLeverage",
          "type": "uint256"
        }
      ],
      "name": "setLeverage",
      "type": "event"
    },
    {
      "stateMutability": "nonpayable",
      "type": "fallback"
    },
    {
      "inputs": [
        {
          "internalType": "uint256",
          "name": "_dealID",
          "type": "uint256"
        },
        {
          "internalType": "uint256",
          "name": "_profit",
          "type": "uint256"
        }
      ],
      "name": "checkMarginRisk",
      "outputs": [
        {
          "internalType": "bool",
          "name": "isRisk",
          "type": "bool"
        }
      ],
      "stateMutability": "view",
      "type": "function"
    },
    {
      "inputs": [
        {
          "internalType": "uint256",
          "name": "_start",
          "type": "uint256"
        },
        {
          "internalType": "uint256",
          "name": "_end",
          "type": "uint256"
        },
        {
          "internalType": "uint256",
          "name": "_count",
          "type": "uint256"
        }
      ],
      "name": "getActiveDeals",
      "outputs": [
        {
          "components": [
            {
              "internalType": "string",
              "name": "name",
              "type": "string"
            },
            {
              "internalType": "address",
              "name": "token",
              "type": "address"
            },
            {
              "internalType": "address",
              "name": "makerAddr",
              "type": "address"
            },
            {
              "internalType": "uint256",
              "name": "takerId",
              "type": "uint256"
            },
            {
              "internalType": "uint256",
              "name": "size",
              "type": "uint256"
            },
            {
              "internalType": "enum ICommon.Direct",
              "name": "direct",
              "type": "uint8"
            },
            {
              "internalType": "uint256",
              "name": "marginAmount",
              "type": "uint256"
            },
            {
              "internalType": "uint256",
              "name": "maintenanceMargin",
              "type": "uint256"
            },
            {
              "internalType": "uint256",
              "name": "price",
              "type": "uint256"
            },
            {
              "internalType": "uint256",
              "name": "time",
              "type": "uint256"
            },
            {
              "internalType": "bool",
              "name": "locked",
              "type": "bool"
            }
          ],
          "internalType": "struct ICommon.MakerDeal[]",
          "name": "info",
          "type": "tuple[]"
        },
        {
          "internalType": "uint256[]",
          "name": "ids",
          "type": "uint256[]"
        },
        {
          "internalType": "uint256",
          "name": "end",
          "type": "uint256"
        }
      ],
      "stateMutability": "view",
      "type": "function"
    },
    {
      "inputs": [
        {
          "internalType": "uint256[]",
          "name": "_ids",
          "type": "uint256[]"
        }
      ],
      "name": "getMakerDeals",
      "outputs": [
        {
          "components": [
            {
              "internalType": "string",
              "name": "name",
              "type": "string"
            },
            {
              "internalType": "address",
              "name": "token",
              "type": "address"
            },
            {
              "internalType": "address",
              "name": "makerAddr",
              "type": "address"
            },
            {
              "internalType": "uint256",
              "name": "takerId",
              "type": "uint256"
            },
            {
              "internalType": "uint256",
              "name": "size",
              "type": "uint256"
            },
            {
              "internalType": "enum ICommon.Direct",
              "name": "direct",
              "type": "uint8"
            },
            {
              "internalType": "uint256",
              "name": "marginAmount",
              "type": "uint256"
            },
            {
              "internalType": "uint256",
              "name": "maintenanceMargin",
              "type": "uint256"
            },
            {
              "internalType": "uint256",
              "name": "price",
              "type": "uint256"
            },
            {
              "internalType": "uint256",
              "name": "time",
              "type": "uint256"
            },
            {
              "internalType": "bool",
              "name": "locked",
              "type": "bool"
            }
          ],
          "internalType": "struct ICommon.MakerDeal[]",
          "name": "deals",
          "type": "tuple[]"
        }
      ],
      "stateMutability": "view",
      "type": "function"
    },
    {
      "inputs": [
        {
          "internalType": "address",
          "name": "_token",
          "type": "address"
        },
        {
          "internalType": "address",
          "name": "_makerAddr",
          "type": "address"
        },
        {
          "internalType": "uint256",
          "name": "_amount",
          "type": "uint256"
        },
        {
          "internalType": "uint256",
          "name": "_price",
          "type": "uint256"
        }
      ],
      "name": "getMatchingMaker",
      "outputs": [
        {
          "internalType": "address",
          "name": "addr",
          "type": "address"
        },
        {
          "internalType": "uint256",
          "name": "marginAmount",
          "type": "uint256"
        },
        {
          "internalType": "uint256",
          "name": "maintenanceMargin",
          "type": "uint256"
        }
      ],
      "stateMutability": "view",
      "type": "function"
    },
    {
      "inputs": [
        {
          "internalType": "address",
          "name": "_token",
          "type": "address"
        }
      ],
      "name": "getPublicPoolAsset",
      "outputs": [
        {
          "internalType": "uint256",
          "name": "share",
          "type": "uint256"
        },
        {
          "internalType": "uint256",
          "name": "amount",
          "type": "uint256"
        },
        {
          "internalType": "uint256",
          "name": "available",
          "type": "uint256"
        }
      ],
      "stateMutability": "view",
      "type": "function"
    },
    {
      "inputs": [
        {
          "internalType": "address",
          "name": "token",
          "type": "address"
        },
        {
          "internalType": "string[]",
          "name": "_symbols",
          "type": "string[]"
        },
        {
          "internalType": "uint256[]",
          "name": "_prices",
          "type": "uint256[]"
        }
      ],
      "name": "getShareNetValue",
      "outputs": [
        {
          "internalType": "uint256",
          "name": "",
          "type": "uint256"
        }
      ],
      "stateMutability": "view",
      "type": "function"
    },
    {
      "inputs": [
        {
          "internalType": "address",
          "name": "_priPool",
          "type": "address"
        },
        {
          "internalType": "address",
          "name": "_perpetual",
          "type": "address"
        }
      ],
      "name": "initialize",
      "outputs": [],
      "stateMutability": "nonpayable",
      "type": "function"
    },
    {
      "inputs": [
        {
          "internalType": "address",
          "name": "_token",
          "type": "address"
        },
        {
          "internalType": "string",
          "name": "_name",
          "type": "string"
        },
        {
          "internalType": "uint256",
          "name": "_id",
          "type": "uint256"
        },
        {
          "internalType": "uint256",
          "name": "_amount",
          "type": "uint256"
        },
        {
          "internalType": "uint256",
          "name": "_tradingFee",
          "type": "uint256"
        },
        {
          "internalType": "uint256",
          "name": "_price",
          "type": "uint256"
        },
        {
          "internalType": "enum ICommon.Direct",
          "name": "_direction",
          "type": "uint8"
        }
      ],
      "name": "matchOrder",
      "outputs": [
        {
          "internalType": "bool",
          "name": "success",
          "type": "bool"
        },
        {
          "internalType": "uint256",
          "name": "remaining",
          "type": "uint256"
        }
      ],
      "stateMutability": "nonpayable",
      "type": "function"
    },
    {
      "inputs": [],
      "name": "owner",
      "outputs": [
        {
          "internalType": "address",
          "name": "",
          "type": "address"
        }
      ],
      "stateMutability": "view",
      "type": "function"
    },
    {
      "inputs": [],
      "name": "renounceOwnership",
      "outputs": [],
      "stateMutability": "nonpayable",
      "type": "function"
    },
    {
      "inputs": [
        {
          "internalType": "address",
          "name": "_orderBook",
          "type": "address"
        },
        {
          "internalType": "address",
          "name": "_tradeAgent",
          "type": "address"
        },
        {
          "internalType": "address",
          "name": "_tradeStation",
          "type": "address"
        },
        {
          "internalType": "address",
          "name": "_keeper",
          "type": "address"
        }
      ],
      "name": "setKeepers",
      "outputs": [],
      "stateMutability": "nonpayable",
      "type": "function"
    },
    {
      "inputs": [
        {
          "internalType": "address",
          "name": "newOwner",
          "type": "address"
        }
      ],
      "name": "transferOwnership",
      "outputs": [],
      "stateMutability": "nonpayable",
      "type": "function"
    }
  ],
  "bytecode": "0x608080604052346015576123c1908161001a8239f35b5f80fdfe60806040526004361015610019575b3461001557005b5f80fd5b5f3560e01c806325737d40146100d8578063485cc955146100d357806370bcbca2146100ce578063715018a6146100c957806381a4f173146100c45780638da5cb5b146100bf578063c3a828b2146100ba578063d112d0e9146100b5578063d3c76d66146100b0578063d5c3df39146100ab578063e771ad72146100a65763f2fde38b0361000e57610e5e565b610cbb565b610bdb565b610aa1565b610a2e565b6109f4565b6109af565b610856565b6107b2565b6106c7565b610426565b610326565b634e487b7160e01b5f52604160045260245ffd5b610160810190811067ffffffffffffffff82111761010e57604052565b6100dd565b90601f601f19910116810190811067ffffffffffffffff82111761010e57604052565b6040519061014661016083610113565b565b6040519061014661014083610113565b67ffffffffffffffff811161010e5760051b60200190565b9080601f8301121561001557813561018781610158565b926101956040519485610113565b81845260208085019260051b82010192831161001557602001905b8282106101bd5750505090565b81358152602091820191016101b0565b90601f19601f602080948051918291828752018686015e5f8582860101520116010190565b634e487b7160e01b5f52602160045260245ffd5b9060038210156102135752565b6101f2565b906102ba9061014080610236855161016085526101608501906101cd565b6020808701516001600160a01b031690850152946040818101516001600160a01b031690850152606081015160608501526080810151608085015261028360a082015160a0860190610206565b60c081015160c085015260e081015160e0850152610100810151610100850152610120810151610120850152015191019015159052565b90565b9080602083519182815201916020808360051b8301019401925f915b8383106102e857505050505090565b909192939460208061030683601f1986600196030187528951610218565b970193019301919392906102d9565b9060206102ba9281815201906102bd565b346100155760206003193601126100155760043567ffffffffffffffff811161001557610357903690600401610170565b805161036281610e8b565b60015490925f916001600160a01b0316915b83811061038d57604051806103898782610315565b0390f35b805f61039c6103bc9385610f1f565b51604051809481926360d32e8d60e01b8352600483019190602083019252565b0381875afa8015610410576001925f916103ee575b506103dc8288610f1f565b526103e78187610f1f565b5001610374565b61040a91503d805f833e6104028183610113565b810190610fb0565b5f6103d1565b611089565b6001600160a01b0381160361001557565b346100155760406003193601126100155760043561044381610415565b6024359061045082610415565b7ff0c57e16840df040f15088dc2f81fe391c3923bec73e23a9662efc9c229c6a00549167ffffffffffffffff61049660ff604086901c16159467ffffffffffffffff1690565b168015908161065d575b6001149081610653575b15908161064a575b5061062257610533918361052a60017fffffffffffffffffffffffffffffffffffffffffffffffff00000000000000007ff0c57e16840df040f15088dc2f81fe391c3923bec73e23a9662efc9c229c6a005416177ff0c57e16840df040f15088dc2f81fe391c3923bec73e23a9662efc9c229c6a0055565b6105bd57611094565b61053957005b61058e68ff0000000000000000197ff0c57e16840df040f15088dc2f81fe391c3923bec73e23a9662efc9c229c6a0054167ff0c57e16840df040f15088dc2f81fe391c3923bec73e23a9662efc9c229c6a0055565b604051600181527fc7f505b2f371ae2175ee4913f4499e1f2633a7b5936321eed1cdaeb6115181d290602090a1005b61061d6801000000000000000068ff0000000000000000197ff0c57e16840df040f15088dc2f81fe391c3923bec73e23a9662efc9c229c6a005416177ff0c57e16840df040f15088dc2f81fe391c3923bec73e23a9662efc9c229c6a0055565b611094565b7ff92ee8a9000000000000000000000000000000000000000000000000000000005f5260045ffd5b9050155f6104b2565b303b1591506104aa565b8491506104a0565b67ffffffffffffffff811161010e57601f01601f191660200190565b81601f820112156100155780359061069882610665565b926106a66040519485610113565b8284526020838301011161001557815f926020809301838601378301015290565b34610015576060600319360112610015576004356106e481610415565b6024359067ffffffffffffffff8211610015573660238301121561001557816004013561071081610158565b9261071e6040519485610113565b8184526024602085019260051b820101903682116100155760248101925b82841061078257856044358667ffffffffffffffff8211610015576103899261076c610772933690600401610170565b91611333565b6040519081529081906020820190565b833567ffffffffffffffff8111610015576020916107a7839260243691870101610681565b81520193019261073c565b34610015575f600319360112610015576107ca611f53565b5f6001600160a01b037f9016d09d72d40fdae2fd8ceac6b6234c7706214fd39c1cd1e609a0528c1993005473ffffffffffffffffffffffffffffffffffffffff1981167f9016d09d72d40fdae2fd8ceac6b6234c7706214fd39c1cd1e609a0528c19930055167f8be0079c531659141344cd1fd0a4f28419497f9722a3daafe3b4186f6b6457e08280a3005b34610015576080600319360112610015576109ad6001600160a01b0360043561087e81610415565b61098360243561088d81610415565b61095a6044359361089d85610415565b61093361090f8780606435946108b286610415565b6108ba611f53565b1695865f52600560205260405f20600160ff198254161790551692835f5260056020526108f160405f20600160ff19825416179055565b61091c61090f896001600160a01b03165f52600560205260405f2090565b600160ff19825416179055565b6001600160a01b03165f52600560205260405f2090565b6001600160a01b031673ffffffffffffffffffffffffffffffffffffffff195f5416175f55565b6001600160a01b031673ffffffffffffffffffffffffffffffffffffffff196003541617600355565b166001600160a01b031673ffffffffffffffffffffffffffffffffffffffff196004541617600455565b005b34610015575f6003193601126100155760206001600160a01b037f9016d09d72d40fdae2fd8ceac6b6234c7706214fd39c1cd1e609a0528c1993005416604051908152f35b34610015576020600319360112610015576060610a1b600435610a1681610415565b61167e565b9060405192835260208301526040820152f35b3461001557608060031936011261001557610a7f600435610a4e81610415565b602435610a5a81610415565b6044359060643592335f526005602052610a7a60ff60405f205416611799565b61180a565b604080516001600160a01b039094168452602084019290925290820152606090f35b3461001557604060031936011261001557600435602435610b1f6020610ae7610ae1610ad56001546001600160a01b031690565b6001600160a01b031690565b946112ae565b604051809381927f36ff6a70000000000000000000000000000000000000000000000000000000008352600483019190602083019252565b0381865afa801561041057610b58935f928392610ba0575b5060405180809681946360d32e8d60e01b8352600483019190602083019252565b03915afa918215610410576103899260c0915f91610b86575b50015160405191101581529081906020820190565b610b9a91503d805f833e6104028183610113565b5f610b71565b610bc391925060203d602011610bca575b610bbb8183610113565b8101906115e1565b905f610b37565b503d610bb1565b6003111561001557565b346100155760e060031936011261001557600435610bf881610415565b6024359067ffffffffffffffff821161001557610c1c610c51923690600401610681565b6044356064359060a4359260c43594610c3486610bd1565b335f526005602052610c4c60ff60405f205416611799565b6119ba565b604080519215158352602083019190915290f35b93929190610c7b906060865260608601906102bd565b908482036020860152602080825193848152019101915f5b818110610ca557505060409150930152565b8351835260209384019390920191600101610c93565b34610015576060600319360112610015576004356024359060443591808290610cef610ad56001546001600160a01b031690565b93604051917ff2da708d000000000000000000000000000000000000000000000000000000008352602083600481895afa928315610410575f93610e3d575b508210610e33575b8110610e2b575b5090915f90610d4b85610e8b565b94610d5581611d17565b935b85811080610e22575b15610dfb576040516360d32e8d60e01b8152600481018290525f81602481875afa908115610410575f91610de1575b50610140810151610daa575b50610da590611d48565b610d57565b84610dda9183610dbe610da595988a610f1f565b52610dc9828b610f1f565b52610dd4818a610f1f565b50611d48565b9390610d9b565b610df591503d805f833e6104028183610113565b5f610d8f565b61038987918587948103610e17575b5060405193849384610c65565b808452845284610e0a565b50818410610d60565b90505f610d3d565b9092508290610d36565b610e5791935060203d602011610bca57610bbb8183610113565b915f610d2e565b34610015576020600319360112610015576109ad600435610e7e81610415565b610e86611f53565b611d56565b90610e9582610158565b610ea26040519182610113565b828152601f19610eb28294610158565b01905f5b828110610ec257505050565b602090604051610ed1816100f1565b606081525f838201525f60408201525f60608201525f60808201525f60a08201525f60c08201525f60e08201525f6101008201525f6101208201525f61014082015282828501015201610eb6565b8051821015610f335760209160051b010190565b634e487b7160e01b5f52603260045260245ffd5b81601f8201121561001557805190610f5e82610665565b92610f6c6040519485610113565b8284526020838301011161001557815f9260208093018386015e8301015290565b519061014682610415565b519061014682610bd1565b5190811515820361001557565b6020818303126100155780519067ffffffffffffffff821161001557016101608183031261001557610fe0610136565b9181519167ffffffffffffffff83116100155761100561014092611080948301610f47565b845261101360208201610f8d565b602085015261102460408201610f8d565b6040850152606081015160608501526080810151608085015261104960a08201610f98565b60a085015260c081015160c085015260e081015160e085015261010081015161010085015261012081015161012085015201610fa3565b61014082015290565b6040513d5f823e3d90fd5b6101469161091c61090f61090f936110aa612334565b6110b2612334565b6110bb33611d56565b305f52600560205260405f20600160ff19825416179055335f5260056020526110ee60405f20600160ff19825416179055565b6001600160a01b03811673ffffffffffffffffffffffffffffffffffffffff1960015416176001556001600160a01b038085161673ffffffffffffffffffffffffffffffffffffffff1960025416176002556001600160a01b03165f52600560205260405f2090565b634e487b7160e01b5f52601160045260245ffd5b90670de0b6b3a7640000820291808304670de0b6b3a7640000149015171561118f57565b611157565b8181029291811591840414171561118f57565b634e487b7160e01b5f52601260045260245ffd5b81156111c5570490565b6111a7565b6020818303126100155780519067ffffffffffffffff821161001557019080601f830112156100155781516111fe81610158565b9261120c6040519485610113565b81845260208085019260051b820101918383116100155760208201905b83821061123857505050505090565b815167ffffffffffffffff81116100155760209161125b87848094880101610f47565b815201910190611229565b805191908290602001825e015f815290565b604051906040820182811067ffffffffffffffff82111761010e576040525f6020838281520152565b9190820180921161118f57565b5f1981019190821161118f57565b9190820391821161118f57565b608460405162461bcd60e51b815260206004820152602160248201527f657363726f77206163636f756e742073686f756c64206265206465746f6e617460448201527f65000000000000000000000000000000000000000000000000000000000000006064820152fd5b91909161133f8161167e565b829491941590811591826115d9575b6115c657851490816115be575b506115ad57946004955f61137a610ad56002546001600160a01b031690565b604051988980927fcd2ce4ae0000000000000000000000000000000000000000000000000000000082525afa968715610410575f97611589575b5090949195935f915f935f965b805188101561154e576113d48882610f1f565b51935f995f5b845181101561153c576113ed8186610f1f565b5160405161141181611403602082018095611266565b03601f198101835282610113565b519020604051602081019061142a81611403848d611266565b5190201461143a576001016113da565b89939c949b50611450908697939b989296610f1f565b5180915b61148c61147e61146c86611466611278565b98611e34565b60208996929601958187528952611194565b670de0b6b3a7640000900490565b855190919080831061151b5750916114c16114b96114b16114cb969461147e966112a1565b8851906112bc565b955b8d611edb565b8092528652611194565b9182815110155f146114fc57916114e96114ee9260019451906112a1565b6112bc565b945b019692919790986113c1565b61150d6001936115159398996112a1565b9051906112bc565b956114f0565b6115366114cb95936114e96114c19361147e9795999f6112a1565b9b6114bb565b509394909895998089939c949b611454565b50505090919495935061156192506112a1565b91808311156115845761157a61157f916102ba946112bc565b61116b565b6111bb565b6112c9565b6115a69197503d805f833e61159e8183610113565b8101906111ca565b955f6113b4565b50916102ba935061157f915061116b565b90505f61135b565b50505050505050670de0b6b3a764000090565b50851561134e565b90816020910312610015575190565b90816101409103126100155761167561012061160a610148565b9261161481610f8d565b84526020810151602085015260408101516040850152606081015160608501526080810151608085015260a081015160a085015260c081015160c085015260e081015160e08501526116696101008201610fa3565b61010085015201610fa3565b61012082015290565b90611694610ad56001546001600160a01b031690565b6040517fd74960600000000000000000000000000000000000000000000000000000000081526001600160a01b038481166004830152821660248201529190602083604481845afa908115610410578061014092611729955f9161177a575b509560405180968194829363859d90a360e01b8452600484019092916001600160a01b0360209181604085019616845216910152565b03915afa918215610410575f92611749575b506040602083015192015190565b61176c9192506101403d8111611773575b6117648183610113565b8101906115f0565b905f61173b565b503d61175a565b611793915060203d602011610bca57610bbb8183610113565b5f6116f3565b156117a057565b606460405162461bcd60e51b815260206004820152601f60248201527f63616c6c6572206973206e6f7420706f6f6c206167656e74206b6565706572006044820152fd5b90611803939291335f526005602052610a7a60ff60405f205416611799565b9192909190565b9261185a9261014083611828610ad56001546001600160a01b031690565b60405163859d90a360e01b81526001600160a01b03988916600482015291909716602482015294859081906044820190565b0381885afa938415610410575f94611999575b5061012084015161198c576040517f2c86d98e000000000000000000000000000000000000000000000000000000008152602081600481895afa918215610410576004936020936118da935f9161196f575b509160a088015180611965575b5061157f9161147e91611194565b94604051928380927f89f00b6d0000000000000000000000000000000000000000000000000000000082525afa80156104105761147e611925916040935f91611946575b5086611194565b92015161193283856112a1565b1115611943575050505f905f905f90565b92565b61195f915060203d602011610bca57610bbb8183610113565b5f61191e565b925061157f6118cc565b6119869150853d8711610bca57610bbb8183610113565b5f6118bf565b50505050505f905f905f90565b6119b39194506101403d8111611773576117648183610113565b925f61186d565b9190929594936119cb8188856120ad565b909391956001600160a01b0387169081155f146119f0575050505050505050505f9190565b60029a939495969798999a99611a11610ad56001546001600160a01b031690565b926001600160a01b03841614611d0e575b5f9392602092611a76611ad393611a618e611a518f611a3f610136565b9687526001600160a01b031689870152565b6001600160a01b03166040850152565b89606084015288608084015260a08301612317565b8960c08201528460e08201528861010082015242610120820152611a9e610140820160019052565b6040519586809481937fcf946a5600000000000000000000000000000000000000000000000000000000835260048301612323565b03925af1958615610410577f2156f6f6f776548a0c2a805aee597ff49b812da0546e64c659347a40c8f3b6e4968896611b60958c955f93611ced575b508b604051998a998a95926001600160a01b0390816101009996939c9b9a97946101208a019d8a521660208901521660408701526060860152608085015260a084015260c083015260e08201520152565b0390a1611b78610ad56001546001600160a01b031690565b60405163859d90a360e01b81526001600160a01b038381166004830152841660248201529361014085604481855afa948515610410575f95611ccc575b506020850151946040810151906080606082015191015190602060405180967fd74960600000000000000000000000000000000000000000000000000000000082528180611c1f8c8c600484019092916001600160a01b0360209181604085019616845216910152565b03915afa928315610410577f55a05fded01868e623bc311ab3e73d3cec2f0871392b36317648452d989ed1ce98611ca1965f95611cab575b50604051988998899491926001600160a01b0360e097949a999895929a8161010089019c16885216602087015260408601526060850152608084015260a083015260c08201520152565b0390a16001905f90565b611cc591955060203d602011610bca57610bbb8183610113565b935f611c57565b611ce69195506101403d8111611773576117648183610113565b935f611bb5565b611d0791935060203d602011610bca57610bbb8183610113565b915f611b0f565b60019a50611a22565b90611d2182610158565b611d2e6040519182610113565b828152601f19611d3e8294610158565b0190602036910137565b5f19811461118f5760010190565b6001600160a01b03168015611df2576001600160a01b037f9016d09d72d40fdae2fd8ceac6b6234c7706214fd39c1cd1e609a0528c199300548273ffffffffffffffffffffffffffffffffffffffff198216177f9016d09d72d40fdae2fd8ceac6b6234c7706214fd39c1cd1e609a0528c19930055167f8be0079c531659141344cd1fd0a4f28419497f9722a3daafe3b4186f6b6457e05f80a3565b7f1e4fbdf7000000000000000000000000000000000000000000000000000000005f525f60045260245ffd5b9190826040910312610015576020825192015190565b611e8d92916040916001600160a01b038060015416918451968794859384937f0c8c35160000000000000000000000000000000000000000000000000000000085521660048401526060602484015260648301906101cd565b5f604483015203915afa918215610410575f905f93611eab57509190565b9050611ed091925060403d604011611ed4575b611ec88183610113565b810190611e1e565b9091565b503d611ebe565b611f3492916040916001600160a01b038060015416918451968794859384937f0c8c35160000000000000000000000000000000000000000000000000000000085521660048401526060602484015260648301906101cd565b6001604483015203915afa918215610410575f905f93611eab57509190565b6001600160a01b037f9016d09d72d40fdae2fd8ceac6b6234c7706214fd39c1cd1e609a0528c19930054163303611f8657565b7f118cdaa7000000000000000000000000000000000000000000000000000000005f523360045260245ffd5b90816020910312610015575160048110156100155790565b6004111561021357565b15611fdb57565b606460405162461bcd60e51b815260206004820152601560248201527f706f6f6c207374617475732069732072656675736500000000000000000000006044820152fd5b6020818303126100155780519067ffffffffffffffff821161001557019080601f8301121561001557815161205381610158565b926120616040519485610113565b81845260208085019260051b82010192831161001557602001905b8282106120895750505090565b60208091835161209881610415565b81520191019061207c565b81156111c5570690565b91906120c4610ad56001546001600160a01b031690565b6040517fc0a148310000000000000000000000000000000000000000000000000000000081526001600160a01b0385166004820152602081602481855afa908115610410575f916122e8575b5061211a81611fca565b6121276003821415611fd4565b6040517fdc8d601c0000000000000000000000000000000000000000000000000000000081526001600160a01b0386166004820152905f82602481865afa918215610410575f926122c4575b5081519161218082611fca565b8115928391841594856122b1575b806122a8575b6121d8575b50506121a482611fca565b916121c4575b506121bb57505050505f905f905f90565b611803936117e4565b600191506121d181611fca565b145f6121aa565b61223282604051602081019061222a8161140342414487917fffffffffffffffffffffffffffffffffffffffff0000000000000000000000009060549492845260601b16602083015260348201520190565b5190206120a3565b915f5b818110612243575050612199565b61227b8a8a8d6122756122686122628861225d898d6112a1565b6120a3565b89610f1f565b516001600160a01b031690565b906117e4565b90916001600160a01b03811661229657505050600101612235565b9d919c509a5098505050505050505050565b50811515612194565b506122bb84611fca565b6002841461218e565b6122e19192503d805f833e6122d98183610113565b81019061201f565b905f612173565b61230a915060203d602011612310575b6123028183610113565b810190611fb2565b5f612110565b503d6122f8565b60038210156102135752565b9060206102ba928181520190610218565b60ff7ff0c57e16840df040f15088dc2f81fe391c3923bec73e23a9662efc9c229c6a005460401c161561236357565b7fd7e6bcf8000000000000000000000000000000000000000000000000000000005f5260045ffdfea2646970667358221220df6b56c94ace3af28505cc636a56a86f0c93dc8ab423dbc42fb858195436ac0064736f6c634300081c0033",
  "linkReferences": {},
  "deployedLinkReferences": {}
}