{
  "_format": "hh-sol-artifact-1",
  "contractName": "PoolAgent",
  "sourceName": "contracts/PoolAgent.sol",
  "abi": [
    {
      "inputs": [],
      "name": "InvalidInitialization",
      "type": "error"
    },
    {
      "inputs": [],
      "name": "NotInitializing",
      "type": "error"
    },
    {
      "inputs": [
        {
          "internalType": "address",
          "name": "owner",
          "type": "address"
        }
      ],
      "name": "OwnableInvalidOwner",
      "type": "error"
    },
    {
      "inputs": [
        {
          "internalType": "address",
          "name": "account",
          "type": "address"
        }
      ],
      "name": "OwnableUnauthorizedAccount",
      "type": "error"
    },
    {
      "anonymous": false,
      "inputs": [
        {
          "indexed": false,
          "internalType": "address",
          "name": "token",
          "type": "address"
        },
        {
          "indexed": false,
          "internalType": "address",
          "name": "holder",
          "type": "address"
        },
        {
          "indexed": false,
          "internalType": "string",
          "name": "name",
          "type": "string"
        },
        {
          "indexed": false,
          "internalType": "enum ICommon.Direct",
          "name": "direct",
          "type": "uint8"
        },
        {
          "indexed": false,
          "internalType": "uint256",
          "name": "value",
          "type": "uint256"
        },
        {
          "indexed": false,
          "internalType": "uint256",
          "name": "size",
          "type": "uint256"
        },
        {
          "indexed": false,
          "internalType": "uint256",
          "name": "margin",
          "type": "uint256"
        },
        {
          "indexed": false,
          "internalType": "uint256",
          "name": "freeze",
          "type": "uint256"
        }
      ],
      "name": "AccountPosition",
      "type": "event"
    },
    {
      "anonymous": false,
      "inputs": [
        {
          "indexed": true,
          "internalType": "address",
          "name": "maker",
          "type": "address"
        },
        {
          "indexed": true,
          "internalType": "address",
          "name": "token",
          "type": "address"
        },
        {
          "indexed": false,
          "internalType": "uint256",
          "name": "makerDealId",
          "type": "uint256"
        },
        {
          "indexed": false,
          "internalType": "uint256",
          "name": "amount",
          "type": "uint256"
        },
        {
          "indexed": false,
          "internalType": "uint256",
          "name": "margin",
          "type": "uint256"
        }
      ],
      "name": "AddMargin",
      "type": "event"
    },
    {
      "anonymous": false,
      "inputs": [
        {
          "indexed": false,
          "internalType": "address",
          "name": "token",
          "type": "address"
        },
        {
          "indexed": false,
          "internalType": "address",
          "name": "maker",
          "type": "address"
        },
        {
          "indexed": false,
          "internalType": "uint256",
          "name": "amount",
          "type": "uint256"
        },
        {
          "indexed": false,
          "internalType": "uint256",
          "name": "availableAmount",
          "type": "uint256"
        },
        {
          "indexed": false,
          "internalType": "uint256",
          "name": "lockedAmount",
          "type": "uint256"
        },
        {
          "indexed": false,
          "internalType": "uint256",
          "name": "maintenanceMargin",
          "type": "uint256"
        },
        {
          "indexed": false,
          "internalType": "uint256",
          "name": "share",
          "type": "uint256"
        },
        {
          "indexed": false,
          "internalType": "uint256",
          "name": "flag",
          "type": "uint256"
        }
      ],
      "name": "BalanceOfMaker",
      "type": "event"
    },
    {
      "anonymous": false,
      "inputs": [
        {
          "indexed": false,
          "internalType": "address",
          "name": "token",
          "type": "address"
        },
        {
          "indexed": false,
          "internalType": "address",
          "name": "taker",
          "type": "address"
        },
        {
          "indexed": false,
          "internalType": "uint256",
          "name": "amount",
          "type": "uint256"
        },
        {
          "indexed": false,
          "internalType": "uint256",
          "name": "availableAmount",
          "type": "uint256"
        },
        {
          "indexed": false,
          "internalType": "uint256",
          "name": "marginAmount",
          "type": "uint256"
        },
        {
          "indexed": false,
          "internalType": "uint256",
          "name": "locked",
          "type": "uint256"
        },
        {
          "indexed": false,
          "internalType": "uint256",
          "name": "stage",
          "type": "uint256"
        },
        {
          "indexed": false,
          "internalType": "uint256",
          "name": "dif",
          "type": "uint256"
        }
      ],
      "name": "BalanceOfTaker",
      "type": "event"
    },
    {
      "anonymous": false,
      "inputs": [
        {
          "indexed": false,
          "internalType": "uint256",
          "name": "dealID",
          "type": "uint256"
        },
        {
          "indexed": false,
          "internalType": "address",
          "name": "token",
          "type": "address"
        },
        {
          "indexed": false,
          "internalType": "address",
          "name": "maker",
          "type": "address"
        },
        {
          "indexed": false,
          "internalType": "enum ICommon.Direct",
          "name": "direct",
          "type": "uint8"
        },
        {
          "indexed": false,
          "internalType": "uint256",
          "name": "size",
          "type": "uint256"
        },
        {
          "indexed": false,
          "internalType": "uint256",
          "name": "price",
          "type": "uint256"
        },
        {
          "indexed": false,
          "internalType": "uint256",
          "name": "makerID",
          "type": "uint256"
        },
        {
          "indexed": false,
          "internalType": "uint256",
          "name": "makerGain",
          "type": "uint256"
        },
        {
          "indexed": false,
          "internalType": "uint256",
          "name": "makerLoss",
          "type": "uint256"
        },
        {
          "indexed": false,
          "internalType": "uint256",
          "name": "closeFlag",
          "type": "uint256"
        },
        {
          "indexed": false,
          "internalType": "uint256",
          "name": "closeType",
          "type": "uint256"
        }
      ],
      "name": "ClosedMakerDeal",
      "type": "event"
    },
    {
      "anonymous": false,
      "inputs": [
        {
          "indexed": false,
          "internalType": "string",
          "name": "name",
          "type": "string"
        },
        {
          "indexed": true,
          "internalType": "address",
          "name": "taker",
          "type": "address"
        },
        {
          "indexed": true,
          "internalType": "address",
          "name": "token",
          "type": "address"
        },
        {
          "indexed": false,
          "internalType": "uint256",
          "name": "orderID",
          "type": "uint256"
        },
        {
          "indexed": false,
          "internalType": "enum ICommon.Direct",
          "name": "direct",
          "type": "uint8"
        },
        {
          "indexed": false,
          "internalType": "enum IPerpetual.OrderState",
          "name": "state",
          "type": "uint8"
        },
        {
          "indexed": false,
          "internalType": "enum ICommon.Offset",
          "name": "offset",
          "type": "uint8"
        },
        {
          "indexed": false,
          "internalType": "uint256",
          "name": "amount",
          "type": "uint256"
        },
        {
          "indexed": false,
          "internalType": "uint256",
          "name": "targetPrice",
          "type": "uint256"
        },
        {
          "indexed": false,
          "internalType": "uint256",
          "name": "margin",
          "type": "uint256"
        },
        {
          "indexed": false,
          "internalType": "uint256",
          "name": "rewardGas",
          "type": "uint256"
        },
        {
          "indexed": false,
          "internalType": "uint256",
          "name": "tradingFee",
          "type": "uint256"
        },
        {
          "indexed": false,
          "internalType": "uint256",
          "name": "startTime",
          "type": "uint256"
        },
        {
          "indexed": false,
          "internalType": "uint256",
          "name": "orderType",
          "type": "uint256"
        }
      ],
      "name": "CreateLimitedOrder",
      "type": "event"
    },
    {
      "anonymous": false,
      "inputs": [
        {
          "indexed": false,
          "internalType": "uint256",
          "name": "limitOrderID",
          "type": "uint256"
        },
        {
          "indexed": false,
          "internalType": "uint256",
          "name": "openLimitPrice",
          "type": "uint256"
        },
        {
          "indexed": false,
          "internalType": "uint256",
          "name": "gainTriggerPrice",
          "type": "uint256"
        },
        {
          "indexed": false,
          "internalType": "uint256",
          "name": "gainLimitPrice",
          "type": "uint256"
        },
        {
          "indexed": false,
          "internalType": "uint256",
          "name": "lossTriggerPrice",
          "type": "uint256"
        },
        {
          "indexed": false,
          "internalType": "uint256",
          "name": "lossLimitPrice",
          "type": "uint256"
        }
      ],
      "name": "CreateTriggerCondition",
      "type": "event"
    },
    {
      "anonymous": false,
      "inputs": [
        {
          "indexed": false,
          "internalType": "uint256",
          "name": "code",
          "type": "uint256"
        },
        {
          "indexed": false,
          "internalType": "uint256",
          "name": "orderID",
          "type": "uint256"
        },
        {
          "indexed": false,
          "internalType": "string",
          "name": "message",
          "type": "string"
        }
      ],
      "name": "ErrorInfo",
      "type": "event"
    },
    {
      "anonymous": false,
      "inputs": [
        {
          "indexed": false,
          "internalType": "uint256",
          "name": "code",
          "type": "uint256"
        },
        {
          "indexed": false,
          "internalType": "uint256",
          "name": "orderID",
          "type": "uint256"
        },
        {
          "indexed": false,
          "internalType": "bytes",
          "name": "message",
          "type": "bytes"
        }
      ],
      "name": "ExceptErrorInfo",
      "type": "event"
    },
    {
      "anonymous": false,
      "inputs": [
        {
          "indexed": false,
          "internalType": "uint64",
          "name": "version",
          "type": "uint64"
        }
      ],
      "name": "Initialized",
      "type": "event"
    },
    {
      "anonymous": false,
      "inputs": [
        {
          "indexed": false,
          "internalType": "string",
          "name": "name",
          "type": "string"
        },
        {
          "indexed": true,
          "internalType": "address",
          "name": "taker",
          "type": "address"
        },
        {
          "indexed": true,
          "internalType": "address",
          "name": "token",
          "type": "address"
        },
        {
          "indexed": false,
          "internalType": "uint256",
          "name": "orderID",
          "type": "uint256"
        },
        {
          "indexed": false,
          "internalType": "enum ICommon.Direct",
          "name": "direct",
          "type": "uint8"
        },
        {
          "indexed": false,
          "internalType": "enum IPerpetual.OrderState",
          "name": "state",
          "type": "uint8"
        },
        {
          "indexed": false,
          "internalType": "enum ICommon.Offset",
          "name": "offset",
          "type": "uint8"
        },
        {
          "indexed": false,
          "internalType": "uint256",
          "name": "amount",
          "type": "uint256"
        },
        {
          "indexed": false,
          "internalType": "uint256",
          "name": "targetPrice",
          "type": "uint256"
        },
        {
          "indexed": false,
          "internalType": "uint256",
          "name": "margin",
          "type": "uint256"
        },
        {
          "indexed": false,
          "internalType": "uint256",
          "name": "rewardGas",
          "type": "uint256"
        },
        {
          "indexed": false,
          "internalType": "uint256",
          "name": "tradingFee",
          "type": "uint256"
        },
        {
          "indexed": false,
          "internalType": "uint256",
          "name": "startTime",
          "type": "uint256"
        },
        {
          "indexed": false,
          "internalType": "uint256",
          "name": "orderType",
          "type": "uint256"
        }
      ],
      "name": "LimitedOrderHistory",
      "type": "event"
    },
    {
      "anonymous": false,
      "inputs": [
        {
          "indexed": false,
          "internalType": "address",
          "name": "token",
          "type": "address"
        },
        {
          "indexed": false,
          "internalType": "address",
          "name": "taker",
          "type": "address"
        }
      ],
      "name": "LiquidateTaker",
      "type": "event"
    },
    {
      "anonymous": false,
      "inputs": [
        {
          "indexed": false,
          "internalType": "uint256",
          "name": "dealID",
          "type": "uint256"
        },
        {
          "indexed": false,
          "internalType": "address",
          "name": "token",
          "type": "address"
        },
        {
          "indexed": false,
          "internalType": "address",
          "name": "maker",
          "type": "address"
        },
        {
          "indexed": false,
          "internalType": "uint256",
          "name": "makerID",
          "type": "uint256"
        }
      ],
      "name": "LiquidatedMakerDeal",
      "type": "event"
    },
    {
      "anonymous": false,
      "inputs": [
        {
          "indexed": false,
          "internalType": "uint256",
          "name": "takerDealID",
          "type": "uint256"
        },
        {
          "indexed": false,
          "internalType": "address",
          "name": "token",
          "type": "address"
        },
        {
          "indexed": false,
          "internalType": "address",
          "name": "maker",
          "type": "address"
        },
        {
          "indexed": false,
          "internalType": "enum ICommon.Direct",
          "name": "direct",
          "type": "uint8"
        },
        {
          "indexed": false,
          "internalType": "uint256",
          "name": "size",
          "type": "uint256"
        },
        {
          "indexed": false,
          "internalType": "uint256",
          "name": "price",
          "type": "uint256"
        },
        {
          "indexed": false,
          "internalType": "uint256",
          "name": "makerDealID",
          "type": "uint256"
        },
        {
          "indexed": false,
          "internalType": "uint256",
          "name": "marginAmount",
          "type": "uint256"
        },
        {
          "indexed": false,
          "internalType": "uint256",
          "name": "maintenanceMargin",
          "type": "uint256"
        },
        {
          "indexed": false,
          "internalType": "uint256",
          "name": "flag",
          "type": "uint256"
        }
      ],
      "name": "LockPoolMargin",
      "type": "event"
    },
    {
      "anonymous": false,
      "inputs": [
        {
          "indexed": true,
          "internalType": "address",
          "name": "taker",
          "type": "address"
        },
        {
          "indexed": false,
          "internalType": "string",
          "name": "name",
          "type": "string"
        },
        {
          "indexed": false,
          "internalType": "address",
          "name": "token",
          "type": "address"
        },
        {
          "indexed": false,
          "internalType": "uint256",
          "name": "orderID",
          "type": "uint256"
        },
        {
          "indexed": false,
          "internalType": "enum ICommon.Direct",
          "name": "direction",
          "type": "uint8"
        },
        {
          "indexed": false,
          "internalType": "enum IPerpetual.OrderType",
          "name": "orderType",
          "type": "uint8"
        },
        {
          "indexed": false,
          "internalType": "uint256",
          "name": "amount",
          "type": "uint256"
        },
        {
          "indexed": false,
          "internalType": "uint256",
          "name": "costPrice",
          "type": "uint256"
        },
        {
          "indexed": false,
          "internalType": "uint256",
          "name": "price",
          "type": "uint256"
        },
        {
          "indexed": false,
          "internalType": "uint256",
          "name": "tradingFee",
          "type": "uint256"
        },
        {
          "indexed": false,
          "internalType": "uint256",
          "name": "leverage",
          "type": "uint256"
        },
        {
          "indexed": false,
          "internalType": "uint256",
          "name": "marginAmount",
          "type": "uint256"
        },
        {
          "indexed": false,
          "internalType": "uint256",
          "name": "limitOrderId",
          "type": "uint256"
        },
        {
          "indexed": false,
          "internalType": "uint256",
          "name": "timestamp",
          "type": "uint256"
        }
      ],
      "name": "OrderHistory",
      "type": "event"
    },
    {
      "anonymous": false,
      "inputs": [
        {
          "indexed": true,
          "internalType": "address",
          "name": "previousOwner",
          "type": "address"
        },
        {
          "indexed": true,
          "internalType": "address",
          "name": "newOwner",
          "type": "address"
        }
      ],
      "name": "OwnershipTransferred",
      "type": "event"
    },
    {
      "anonymous": false,
      "inputs": [
        {
          "indexed": true,
          "internalType": "address",
          "name": "account",
          "type": "address"
        },
        {
          "indexed": true,
          "internalType": "address",
          "name": "token",
          "type": "address"
        },
        {
          "indexed": false,
          "internalType": "uint256",
          "name": "amount",
          "type": "uint256"
        },
        {
          "indexed": false,
          "internalType": "uint256",
          "name": "share",
          "type": "uint256"
        },
        {
          "indexed": false,
          "internalType": "enum ICommon.PoolFlag",
          "name": "poolType",
          "type": "uint8"
        }
      ],
      "name": "Provide",
      "type": "event"
    },
    {
      "anonymous": false,
      "inputs": [
        {
          "indexed": false,
          "internalType": "address",
          "name": "token",
          "type": "address"
        },
        {
          "indexed": false,
          "internalType": "uint256",
          "name": "orderID",
          "type": "uint256"
        },
        {
          "indexed": false,
          "internalType": "uint256",
          "name": "dealID",
          "type": "uint256"
        },
        {
          "indexed": false,
          "internalType": "enum IPerpetual.TradeType",
          "name": "tradeType",
          "type": "uint8"
        },
        {
          "indexed": false,
          "internalType": "uint256",
          "name": "amount",
          "type": "uint256"
        },
        {
          "indexed": false,
          "internalType": "uint256",
          "name": "price",
          "type": "uint256"
        },
        {
          "indexed": false,
          "internalType": "uint256",
          "name": "tradingFee",
          "type": "uint256"
        },
        {
          "indexed": false,
          "internalType": "uint256",
          "name": "leverage",
          "type": "uint256"
        },
        {
          "indexed": false,
          "internalType": "uint256",
          "name": "marginAmount",
          "type": "uint256"
        },
        {
          "indexed": false,
          "internalType": "uint256",
          "name": "profit",
          "type": "uint256"
        },
        {
          "indexed": false,
          "internalType": "uint256",
          "name": "loss",
          "type": "uint256"
        },
        {
          "indexed": false,
          "internalType": "uint256",
          "name": "timestamp",
          "type": "uint256"
        }
      ],
      "name": "TradeHistory",
      "type": "event"
    },
    {
      "anonymous": false,
      "inputs": [
        {
          "indexed": true,
          "internalType": "address",
          "name": "token",
          "type": "address"
        },
        {
          "indexed": true,
          "internalType": "address",
          "name": "sender",
          "type": "address"
        },
        {
          "indexed": true,
          "internalType": "address",
          "name": "received",
          "type": "address"
        },
        {
          "indexed": false,
          "internalType": "enum ICommon.TransactionType",
          "name": "transactionType",
          "type": "uint8"
        },
        {
          "indexed": false,
          "internalType": "uint256",
          "name": "amount",
          "type": "uint256"
        },
        {
          "indexed": false,
          "internalType": "uint256",
          "name": "timestamp",
          "type": "uint256"
        }
      ],
      "name": "TransactionHistory",
      "type": "event"
    },
    {
      "anonymous": false,
      "inputs": [
        {
          "indexed": true,
          "internalType": "address",
          "name": "account",
          "type": "address"
        },
        {
          "indexed": true,
          "internalType": "address",
          "name": "token",
          "type": "address"
        },
        {
          "indexed": false,
          "internalType": "uint256",
          "name": "amount",
          "type": "uint256"
        },
        {
          "indexed": false,
          "internalType": "uint256",
          "name": "share",
          "type": "uint256"
        },
        {
          "indexed": false,
          "internalType": "enum ICommon.PoolFlag",
          "name": "poolType",
          "type": "uint8"
        }
      ],
      "name": "Withdraw",
      "type": "event"
    },
    {
      "anonymous": false,
      "inputs": [
        {
          "indexed": false,
          "internalType": "address",
          "name": "token",
          "type": "address"
        },
        {
          "indexed": false,
          "internalType": "address",
          "name": "sender",
          "type": "address"
        },
        {
          "indexed": false,
          "internalType": "string",
          "name": "name",
          "type": "string"
        },
        {
          "indexed": false,
          "internalType": "uint256",
          "name": "beforeLeverage",
          "type": "uint256"
        },
        {
          "indexed": false,
          "internalType": "uint256",
          "name": "afterLeverage",
          "type": "uint256"
        }
      ],
      "name": "setLeverage",
      "type": "event"
    },
    {
      "stateMutability": "nonpayable",
      "type": "fallback"
    },
    {
      "inputs": [
        {
          "internalType": "uint256",
          "name": "_dealID",
          "type": "uint256"
        },
        {
          "internalType": "uint256",
          "name": "_profit",
          "type": "uint256"
        }
      ],
      "name": "checkMarginRisk",
      "outputs": [
        {
          "internalType": "bool",
          "name": "isRisk",
          "type": "bool"
        }
      ],
      "stateMutability": "view",
      "type": "function"
    },
    {
      "inputs": [
        {
          "internalType": "uint256",
          "name": "_start",
          "type": "uint256"
        },
        {
          "internalType": "uint256",
          "name": "_end",
          "type": "uint256"
        },
        {
          "internalType": "uint256",
          "name": "_count",
          "type": "uint256"
        }
      ],
      "name": "getActiveDeals",
      "outputs": [
        {
          "components": [
            {
              "internalType": "string",
              "name": "name",
              "type": "string"
            },
            {
              "internalType": "address",
              "name": "token",
              "type": "address"
            },
            {
              "internalType": "address",
              "name": "makerAddr",
              "type": "address"
            },
            {
              "internalType": "uint256",
              "name": "takerId",
              "type": "uint256"
            },
            {
              "internalType": "uint256",
              "name": "size",
              "type": "uint256"
            },
            {
              "internalType": "uint256",
              "name": "price",
              "type": "uint256"
            },
            {
              "internalType": "enum ICommon.Direct",
              "name": "direct",
              "type": "uint8"
            },
            {
              "internalType": "enum ICommon.DealState",
              "name": "state",
              "type": "uint8"
            },
            {
              "internalType": "uint256",
              "name": "marginAmount",
              "type": "uint256"
            },
            {
              "internalType": "uint256",
              "name": "maintenanceMargin",
              "type": "uint256"
            },
            {
              "internalType": "uint256",
              "name": "time",
              "type": "uint256"
            }
          ],
          "internalType": "struct ICommon.MakerDeal[]",
          "name": "info",
          "type": "tuple[]"
        },
        {
          "internalType": "uint256[]",
          "name": "ids",
          "type": "uint256[]"
        },
        {
          "internalType": "uint256",
          "name": "end",
          "type": "uint256"
        }
      ],
      "stateMutability": "view",
      "type": "function"
    },
    {
      "inputs": [
        {
          "internalType": "uint256[]",
          "name": "_ids",
          "type": "uint256[]"
        }
      ],
      "name": "getMakerDeals",
      "outputs": [
        {
          "components": [
            {
              "internalType": "string",
              "name": "name",
              "type": "string"
            },
            {
              "internalType": "address",
              "name": "token",
              "type": "address"
            },
            {
              "internalType": "address",
              "name": "makerAddr",
              "type": "address"
            },
            {
              "internalType": "uint256",
              "name": "takerId",
              "type": "uint256"
            },
            {
              "internalType": "uint256",
              "name": "size",
              "type": "uint256"
            },
            {
              "internalType": "uint256",
              "name": "price",
              "type": "uint256"
            },
            {
              "internalType": "enum ICommon.Direct",
              "name": "direct",
              "type": "uint8"
            },
            {
              "internalType": "enum ICommon.DealState",
              "name": "state",
              "type": "uint8"
            },
            {
              "internalType": "uint256",
              "name": "marginAmount",
              "type": "uint256"
            },
            {
              "internalType": "uint256",
              "name": "maintenanceMargin",
              "type": "uint256"
            },
            {
              "internalType": "uint256",
              "name": "time",
              "type": "uint256"
            }
          ],
          "internalType": "struct ICommon.MakerDeal[]",
          "name": "deals",
          "type": "tuple[]"
        }
      ],
      "stateMutability": "view",
      "type": "function"
    },
    {
      "inputs": [
        {
          "internalType": "address",
          "name": "_token",
          "type": "address"
        },
        {
          "internalType": "address",
          "name": "_makerAddr",
          "type": "address"
        },
        {
          "internalType": "uint256",
          "name": "_amount",
          "type": "uint256"
        },
        {
          "internalType": "uint256",
          "name": "_price",
          "type": "uint256"
        }
      ],
      "name": "getMatchingMaker",
      "outputs": [
        {
          "internalType": "address",
          "name": "addr",
          "type": "address"
        },
        {
          "internalType": "uint256",
          "name": "marginAmount",
          "type": "uint256"
        },
        {
          "internalType": "uint256",
          "name": "maintenanceMargin",
          "type": "uint256"
        }
      ],
      "stateMutability": "view",
      "type": "function"
    },
    {
      "inputs": [
        {
          "internalType": "address",
          "name": "_token",
          "type": "address"
        }
      ],
      "name": "getPoolAsset",
      "outputs": [
        {
          "internalType": "uint256",
          "name": "privateAmount",
          "type": "uint256"
        },
        {
          "internalType": "uint256",
          "name": "privateMargin",
          "type": "uint256"
        },
        {
          "internalType": "uint256",
          "name": "share",
          "type": "uint256"
        },
        {
          "internalType": "uint256",
          "name": "publicAmount",
          "type": "uint256"
        },
        {
          "internalType": "uint256",
          "name": "publicMargin",
          "type": "uint256"
        }
      ],
      "stateMutability": "view",
      "type": "function"
    },
    {
      "inputs": [
        {
          "internalType": "address",
          "name": "token",
          "type": "address"
        },
        {
          "internalType": "string[]",
          "name": "_symbols",
          "type": "string[]"
        },
        {
          "internalType": "uint256[]",
          "name": "_prices",
          "type": "uint256[]"
        }
      ],
      "name": "getShareNetValue",
      "outputs": [
        {
          "internalType": "uint256",
          "name": "",
          "type": "uint256"
        }
      ],
      "stateMutability": "view",
      "type": "function"
    },
    {
      "inputs": [
        {
          "internalType": "address",
          "name": "_priPool",
          "type": "address"
        },
        {
          "internalType": "address",
          "name": "_perpetual",
          "type": "address"
        }
      ],
      "name": "initialize",
      "outputs": [],
      "stateMutability": "nonpayable",
      "type": "function"
    },
    {
      "inputs": [
        {
          "internalType": "address",
          "name": "_token",
          "type": "address"
        },
        {
          "internalType": "string",
          "name": "_name",
          "type": "string"
        },
        {
          "internalType": "uint256",
          "name": "_id",
          "type": "uint256"
        },
        {
          "internalType": "uint256",
          "name": "_amount",
          "type": "uint256"
        },
        {
          "internalType": "uint256",
          "name": "_tradingFee",
          "type": "uint256"
        },
        {
          "internalType": "uint256",
          "name": "_price",
          "type": "uint256"
        },
        {
          "internalType": "enum ICommon.Direct",
          "name": "_direction",
          "type": "uint8"
        }
      ],
      "name": "matchOrder",
      "outputs": [
        {
          "internalType": "bool",
          "name": "success",
          "type": "bool"
        },
        {
          "internalType": "uint256",
          "name": "remaining",
          "type": "uint256"
        }
      ],
      "stateMutability": "nonpayable",
      "type": "function"
    },
    {
      "inputs": [],
      "name": "owner",
      "outputs": [
        {
          "internalType": "address",
          "name": "",
          "type": "address"
        }
      ],
      "stateMutability": "view",
      "type": "function"
    },
    {
      "inputs": [],
      "name": "renounceOwnership",
      "outputs": [],
      "stateMutability": "nonpayable",
      "type": "function"
    },
    {
      "inputs": [
        {
          "internalType": "address",
          "name": "_orderBook",
          "type": "address"
        },
        {
          "internalType": "address",
          "name": "_tradeAgent",
          "type": "address"
        },
        {
          "internalType": "address",
          "name": "_tradeStation",
          "type": "address"
        },
        {
          "internalType": "address",
          "name": "_keeper",
          "type": "address"
        }
      ],
      "name": "setKeepers",
      "outputs": [],
      "stateMutability": "nonpayable",
      "type": "function"
    },
    {
      "inputs": [
        {
          "internalType": "address",
          "name": "newOwner",
          "type": "address"
        }
      ],
      "name": "transferOwnership",
      "outputs": [],
      "stateMutability": "nonpayable",
      "type": "function"
    }
  ],
  "bytecode": "0x6080806040523460155761264e908161001a8239f35b5f80fdfe60806040526004361015610019575b3461001557005b5f80fd5b5f3560e01c8063069d0254146100d857806325737d40146100d3578063485cc955146100ce57806370bcbca2146100c9578063715018a6146100c457806381a4f173146100bf5780638da5cb5b146100ba578063d112d0e9146100b5578063d3c76d66146100b0578063d5c3df39146100ab578063e771ad72146100a65763f2fde38b0361000e57610ec1565b610ce2565b610c02565b610ac6565b610a53565b610a0e565b6108b5565b610811565b610726565b610485565b610396565b6100ee565b6001600160a01b0381160361001557565b346100155760206003193601126100155760a0610115600435610110816100dd565b61106d565b926040929192519485526020850152604084015260608301526080820152f35b634e487b7160e01b5f52604160045260245ffd5b610160810190811067ffffffffffffffff82111761016657604052565b610135565b90601f601f19910116810190811067ffffffffffffffff82111761016657604052565b6040519061019e6101408361016b565b565b6040519061019e6101608361016b565b67ffffffffffffffff81116101665760051b60200190565b9080601f830112156100155781356101df816101b0565b926101ed604051948561016b565b81845260208085019260051b82010192831161001557602001905b8282106102155750505090565b8135815260209182019101610208565b90601f19601f602080948051918291828752018686015e5f8582860101520116010190565b634e487b7160e01b5f52602160045260245ffd5b90600382101561026b5752565b61024a565b6006111561026b57565b90600682101561026b5752565b90610140806102a184516101608552610160850190610225565b6020808601516001600160a01b031690850152936040818101516001600160a01b031690850152606081015160608501526080810151608085015260a081015160a08501526102f860c082015160c086019061025e565b61030a60e082015160e086019061027a565b610100810151610100850152610120810151610120850152015191015290565b9080602083519182815201916020808360051b8301019401925f915b83831061035557505050505090565b909192939460208061037383601f1986600196030187528951610287565b97019301930191939290610346565b90602061039392818152019061032a565b90565b346100155760206003193601126100155760043567ffffffffffffffff8111610015576103c79036906004016101c8565b80516103d28161137b565b60015490925f916001600160a01b0316915b8381106103fd57604051806103f98782610382565b0390f35b805f61040c61042c938561140f565b51604051809481926360d32e8d60e01b8352600483019190602083019252565b0381875afa8015610480576001925f9161045e575b5061044c828861140f565b52610457818761140f565b50016103e4565b61047a91503d805f833e610472818361016b565b810190611495565b5f610441565b610f07565b34610015576040600319360112610015576004356104a2816100dd565b602435906104af826100dd565b7ff0c57e16840df040f15088dc2f81fe391c3923bec73e23a9662efc9c229c6a00549167ffffffffffffffff6104f560ff604086901c16159467ffffffffffffffff1690565b16801590816106bc575b60011490816106b2575b1590816106a9575b5061068157610592918361058960017fffffffffffffffffffffffffffffffffffffffffffffffff00000000000000007ff0c57e16840df040f15088dc2f81fe391c3923bec73e23a9662efc9c229c6a005416177ff0c57e16840df040f15088dc2f81fe391c3923bec73e23a9662efc9c229c6a0055565b61061c5761156e565b61059857005b6105ed68ff0000000000000000197ff0c57e16840df040f15088dc2f81fe391c3923bec73e23a9662efc9c229c6a0054167ff0c57e16840df040f15088dc2f81fe391c3923bec73e23a9662efc9c229c6a0055565b604051600181527fc7f505b2f371ae2175ee4913f4499e1f2633a7b5936321eed1cdaeb6115181d290602090a1005b61067c6801000000000000000068ff0000000000000000197ff0c57e16840df040f15088dc2f81fe391c3923bec73e23a9662efc9c229c6a005416177ff0c57e16840df040f15088dc2f81fe391c3923bec73e23a9662efc9c229c6a0055565b61156e565b7ff92ee8a9000000000000000000000000000000000000000000000000000000005f5260045ffd5b9050155f610511565b303b159150610509565b8491506104ff565b67ffffffffffffffff811161016657601f01601f191660200190565b81601f82011215610015578035906106f7826106c4565b92610705604051948561016b565b8284526020838301011161001557815f926020809301838601378301015290565b3461001557606060031936011261001557600435610743816100dd565b6024359067ffffffffffffffff8211610015573660238301121561001557816004013561076f816101b0565b9261077d604051948561016b565b8184526024602085019260051b820101903682116100155760248101925b8284106107e157856044358667ffffffffffffffff8211610015576103f9926107cb6107d19336906004016101c8565b9161177f565b6040519081529081906020820190565b833567ffffffffffffffff8111610015576020916108068392602436918701016106e0565b81520193019261079b565b34610015575f60031936011261001557610829612194565b5f6001600160a01b037f9016d09d72d40fdae2fd8ceac6b6234c7706214fd39c1cd1e609a0528c1993005473ffffffffffffffffffffffffffffffffffffffff1981167f9016d09d72d40fdae2fd8ceac6b6234c7706214fd39c1cd1e609a0528c19930055167f8be0079c531659141344cd1fd0a4f28419497f9722a3daafe3b4186f6b6457e08280a3005b3461001557608060031936011261001557610a0c6001600160a01b036004356108dd816100dd565b6109e26024356108ec816100dd565b6109b9604435936108fc856100dd565b61099261096e878060643594610911866100dd565b610919612194565b1695865f52600560205260405f20600160ff198254161790551692835f52600560205261095060405f20600160ff19825416179055565b61097b61096e896001600160a01b03165f52600560205260405f2090565b600160ff19825416179055565b6001600160a01b03165f52600560205260405f2090565b6001600160a01b031673ffffffffffffffffffffffffffffffffffffffff195f5416175f55565b6001600160a01b031673ffffffffffffffffffffffffffffffffffffffff196003541617600355565b166001600160a01b031673ffffffffffffffffffffffffffffffffffffffff196004541617600455565b005b34610015575f6003193601126100155760206001600160a01b037f9016d09d72d40fdae2fd8ceac6b6234c7706214fd39c1cd1e609a0528c1993005416604051908152f35b3461001557608060031936011261001557610aa4600435610a73816100dd565b602435610a7f816100dd565b6044359060643592335f526005602052610a9f60ff60405f205416611a2f565b611aa0565b604080516001600160a01b039094168452602084019290925290820152606090f35b3461001557604060031936011261001557610b3d600435602435906020610b04610af86001546001600160a01b031690565b6001600160a01b031690565b91604051809581927f36ff6a70000000000000000000000000000000000000000000000000000000008352600483019190602083019252565b0381845afa90811561048057610b5f5f92610b80958491610bc9575b50611052565b9060405180809681946360d32e8d60e01b8352600483019190602083019252565b03915afa918215610480576103f992610100915f91610baf575b50015160405191101581529081906020820190565b610bc391503d805f833e610472818361016b565b5f610b9a565b610beb915060203d602011610bf1575b610be3818361016b565b810190610f12565b5f610b59565b503d610bd9565b6003111561001557565b346100155760e060031936011261001557600435610c1f816100dd565b6024359067ffffffffffffffff821161001557610c43610c789236906004016106e0565b6044356064359060a4359260c43594610c5b86610bf8565b335f526005602052610c7360ff60405f205416611a2f565b611c50565b604080519215158352602083019190915290f35b93929190610ca29060608652606086019061032a565b908482036020860152602080825193848152019101915f5b818110610ccc57505060409150930152565b8351835260209384019390920191600101610cba565b34610015576060600319360112610015576004356024359060443591808290610d16610af86001546001600160a01b031690565b93604051917ff2da708d000000000000000000000000000000000000000000000000000000008352602083600481895afa928315610480575f93610ea0575b508210610e96575b8110610e8e575b5090915f90610d728561137b565b94610d7c81611f58565b935b85811080610e85575b15610e5e576040516360d32e8d60e01b8152600481018290525f81602481875afa908115610480575f91610e44575b5060e0810160018151610dc881610270565b610dd181610270565b14908115610e26575b50610def575b50610dea90611f89565b610d7e565b84610e1f9183610e03610dea95988a61140f565b52610e0e828b61140f565b52610e19818a61140f565b50611f89565b9390610de0565b6002915051610e3481610270565b610e3d81610270565b145f610dda565b610e5891503d805f833e610472818361016b565b5f610db6565b6103f987918587948103610e7a575b5060405193849384610c8c565b808452845284610e6d565b50818410610d87565b90505f610d64565b9092508290610d5d565b610eba91935060203d602011610bf157610be3818361016b565b915f610d55565b3461001557602060031936011261001557610a0c600435610ee1816100dd565b610ee9612194565b611f97565b90816020910312610015575160ff811681036100155790565b6040513d5f823e3d90fd5b90816020910312610015575190565b634e487b7160e01b5f52601160045260245ffd5b90670de0b6b3a7640000820291808304670de0b6b3a76400001490151715610f5957565b610f21565b81810292918115918404141715610f5957565b604d8111610f5957600a0a90565b634e487b7160e01b5f52601260045260245ffd5b8115610f9d570490565b610f7f565b519061019e826100dd565b5190811515820361001557565b90816101409103126100155761103f610120610fd461018e565b92610fde81610fa2565b84526020810151602085015260408101516040850152606081015160608501526080810151608085015260a081015160a085015260c081015160c085015260e081015160e08501526110336101008201610fad565b61010085015201610fad565b61012082015290565b6004111561026b57565b5f19810191908211610f5957565b91908203918211610f5957565b6040517f313ce56700000000000000000000000000000000000000000000000000000000815291906001600160a01b038116602084600481845afa938415610480575f9461134a575b506110cc610af86001546001600160a01b031690565b6040517f70a082310000000000000000000000000000000000000000000000000000000081526001600160a01b038216600482015290949091602090839060249082905afa9182156104805760ff61113261113f94611139935f9161132b575b50610f35565b9216610f71565b90610f93565b6040517fd74960600000000000000000000000000000000000000000000000000000000081526001600160a01b03838116600483015285166024820152909190602081604481885afa908115610480575f9161130c575b5060405163859d90a360e01b81526001600160a01b0383811660048301528616602482015290929061014081604481895afa8015610480576020915f916112dd575b5001516040517f9409b0290000000000000000000000000000000000000000000000000000000081526001600160a01b0384166004820152600160248201529092906020816044818a5afa918215610480576112438561128f946020945f916112c0575b5095611060565b9760405180809581947f9409b0290000000000000000000000000000000000000000000000000000000083526004830160206002919392936001600160a01b0360408201951681520152565b03915afa908115610480575f916112a4575093565b6112bd915060203d602011610bf157610be3818361016b565b93565b6112d79150853d8711610bf157610be3818361016b565b5f61123c565b6112ff91506101403d8111611305575b6112f7818361016b565b810190610fba565b5f6111d8565b503d6112ed565b611325915060203d602011610bf157610be3818361016b565b5f611196565b611344915060203d602011610bf157610be3818361016b565b5f61112c565b61136d91945060203d602011611374575b611365818361016b565b810190610eee565b925f6110b6565b503d61135b565b90611385826101b0565b611392604051918261016b565b828152601f196113a282946101b0565b01905f5b8281106113b257505050565b6020906040516113c181610149565b606081525f838201525f60408201525f60608201525f60808201525f60a08201525f60c08201525f60e08201525f6101008201525f6101208201525f610140820152828285010152016113a6565b80518210156114235760209160051b010190565b634e487b7160e01b5f52603260045260245ffd5b81601f820112156100155780519061144e826106c4565b9261145c604051948561016b565b8284526020838301011161001557815f9260208093018386015e8301015290565b519061019e82610bf8565b5190600682101561001557565b6020818303126100155780519067ffffffffffffffff821161001557019061016082820312610015576114c66101a0565b91805167ffffffffffffffff811161001557610140926114e7918301611437565b83526114f560208201610fa2565b602084015261150660408201610fa2565b6040840152606081015160608401526080810151608084015260a081015160a084015261153560c0820161147d565b60c084015261154660e08201611488565b60e0840152610100810151610100840152610120810151610120840152015161014082015290565b61019e9161097b61096e61096e936115846125c1565b61158c6125c1565b61159533611f97565b305f52600560205260405f20600160ff19825416179055335f5260056020526115c860405f20600160ff19825416179055565b6001600160a01b03811673ffffffffffffffffffffffffffffffffffffffff1960015416176001556001600160a01b038085161673ffffffffffffffffffffffffffffffffffffffff1960025416176002556001600160a01b03165f52600560205260405f2090565b6020818303126100155780519067ffffffffffffffff821161001557019080601f83011215610015578151611665816101b0565b92611673604051948561016b565b81845260208085019260051b820101918383116100155760208201905b83821061169f57505050505090565b815167ffffffffffffffff8111610015576020916116c287848094880101611437565b815201910190611690565b805191908290602001825e015f815290565b604051906040820182811067ffffffffffffffff821117610166576040525f6020838281520152565b91908201809211610f5957565b608460405162461bcd60e51b815260206004820152602160248201527f657363726f77206163636f756e742073686f756c64206265206465746f6e617460448201527f65000000000000000000000000000000000000000000000000000000000000006064820152fd5b91909161178b8161106d565b91935094915082159081159182611a27575b611a1457159081611a0c575b506119fb57946004955f6117c8610af86002546001600160a01b031690565b604051988980927fcd2ce4ae0000000000000000000000000000000000000000000000000000000082525afa968715610480575f976119d7575b5090949195935f915f935f965b805188101561199c57611822888261140f565b51935f995f5b845181101561198a5761183b818661140f565b5160405161185f816118516020820180956116cd565b03601f19810183528261016b565b519020604051602081019061187881611851848d6116cd565b5190201461188857600101611828565b89939c949b5061189e908697939b98929661140f565b5180915b6118da6118cc6118ba866118b46116df565b98612075565b60208996929601958187528952610f5e565b670de0b6b3a7640000900490565b855190919080831061196957509161190f6119076118ff61191996946118cc96611708565b885190611060565b955b8d61211c565b8092528652610f5e565b9182815110155f1461194a579161193761193c926001945190611708565b611060565b945b0196929197909861180f565b61195b600193611963939899611708565b905190611060565b9561193e565b611984611919959361193761190f936118cc9795999f611708565b9b611909565b509394909895998089939c949b6118a2565b5050509091949593506119af9250611708565b91808311156119d2576119c86119cd9161039394611060565b610f35565b610f93565b611715565b6119f49197503d805f833e6119ec818361016b565b810190611631565b955f611802565b509161039393506119cd9150610f35565b90505f6117a9565b50505050505050670de0b6b3a764000090565b50851561179d565b15611a3657565b606460405162461bcd60e51b815260206004820152601f60248201527f63616c6c6572206973206e6f7420706f6f6c206167656e74206b6565706572006044820152fd5b90611a99939291335f526005602052610a9f60ff60405f205416611a2f565b9192909190565b92611af09261014083611abe610af86001546001600160a01b031690565b60405163859d90a360e01b81526001600160a01b03988916600482015291909716602482015294859081906044820190565b0381885afa938415610480575f94611c2f575b50610120840151611c22576040517f2c86d98e000000000000000000000000000000000000000000000000000000008152602081600481895afa91821561048057600493602093611b70935f91611c05575b509160a088015180611bfb575b506119cd916118cc91610f5e565b94604051928380927f89f00b6d0000000000000000000000000000000000000000000000000000000082525afa8015610480576118cc611bbb916040935f91611bdc575b5086610f5e565b920151611bc88385611708565b1115611bd9575050505f905f905f90565b92565b611bf5915060203d602011610bf157610be3818361016b565b5f611bb4565b92506119cd611b62565b611c1c9150853d8711610bf157610be3818361016b565b5f611b55565b50505050505f905f905f90565b611c499194506101403d8111611305576112f7818361016b565b925f611b03565b9195949295939093611c638288856122e4565b906001600160a01b038397931680155f14611c86575050505050505050505f9190565b60029a95969798999a99611ca5610af86001546001600160a01b031690565b916001600160a01b03831614611f4f575b611d585f949392602092611cc86101a0565b9081526001600160a01b038c16848201526001600160a01b038d1660408201528860608201528960808201528a60a0820152611d078860c0830161254e565b600160e08201528461010082015285610120820152426101408201526040519687809481937f249a6ee70000000000000000000000000000000000000000000000000000000083526004830161255a565b03925af18015610480577f2c37a9956018f0a52fe734b1e1b43a0c291a1ca976448780e2105afc28c38d98978997611da1968d965f94611f2e575b508c6040519a8b9a8b61256b565b0390a1611db9610af86001546001600160a01b031690565b60405163859d90a360e01b81526001600160a01b038381166004830152841660248201529361014085604481855afa948515610480575f95611f0d575b506020850151946040810151906080606082015191015190602060405180967fd74960600000000000000000000000000000000000000000000000000000000082528180611e608c8c600484019092916001600160a01b0360209181604085019616845216910152565b03915afa928315610480577f55a05fded01868e623bc311ab3e73d3cec2f0871392b36317648452d989ed1ce98611ee2965f95611eec575b50604051988998899491926001600160a01b0360e097949a999895929a8161010089019c16885216602087015260408601526060850152608084015260a083015260c08201520152565b0390a16001905f90565b611f0691955060203d602011610bf157610be3818361016b565b935f611e98565b611f279195506101403d8111611305576112f7818361016b565b935f611df6565b611f4891945060203d602011610bf157610be3818361016b565b925f611d93565b60019a50611cb6565b90611f62826101b0565b611f6f604051918261016b565b828152601f19611f7f82946101b0565b0190602036910137565b5f198114610f595760010190565b6001600160a01b03168015612033576001600160a01b037f9016d09d72d40fdae2fd8ceac6b6234c7706214fd39c1cd1e609a0528c199300548273ffffffffffffffffffffffffffffffffffffffff198216177f9016d09d72d40fdae2fd8ceac6b6234c7706214fd39c1cd1e609a0528c19930055167f8be0079c531659141344cd1fd0a4f28419497f9722a3daafe3b4186f6b6457e05f80a3565b7f1e4fbdf7000000000000000000000000000000000000000000000000000000005f525f60045260245ffd5b9190826040910312610015576020825192015190565b6120ce92916040916001600160a01b038060015416918451968794859384937f0c8c3516000000000000000000000000000000000000000000000000000000008552166004840152606060248401526064830190610225565b5f604483015203915afa918215610480575f905f936120ec57509190565b905061211191925060403d604011612115575b612109818361016b565b81019061205f565b9091565b503d6120ff565b61217592916040916001600160a01b038060015416918451968794859384937f0c8c3516000000000000000000000000000000000000000000000000000000008552166004840152606060248401526064830190610225565b6001604483015203915afa918215610480575f905f936120ec57509190565b6001600160a01b037f9016d09d72d40fdae2fd8ceac6b6234c7706214fd39c1cd1e609a0528c199300541633036121c757565b7f118cdaa7000000000000000000000000000000000000000000000000000000005f523360045260245ffd5b90816020910312610015575160048110156100155790565b1561221257565b606460405162461bcd60e51b815260206004820152601560248201527f706f6f6c207374617475732069732072656675736500000000000000000000006044820152fd5b6020818303126100155780519067ffffffffffffffff821161001557019080601f8301121561001557815161228a816101b0565b92612298604051948561016b565b81845260208085019260051b82010192831161001557602001905b8282106122c05750505090565b6020809183516122cf816100dd565b8152019101906122b3565b8115610f9d570690565b91906122fb610af86001546001600160a01b031690565b6040517fc0a148310000000000000000000000000000000000000000000000000000000081526001600160a01b0385166004820152602081602481855afa908115610480575f9161251f575b5061235181611048565b61235e600382141561220b565b6040517fdc8d601c0000000000000000000000000000000000000000000000000000000081526001600160a01b0386166004820152905f82602481865afa918215610480575f926124fb575b508151916123b782611048565b8115928391841594856124e8575b806124df575b61240f575b50506123db82611048565b916123fb575b506123f257505050505f905f905f90565b611a9993611a7a565b6001915061240881611048565b145f6123e1565b6124698260405160208101906124618161185142414487917fffffffffffffffffffffffffffffffffffffffff0000000000000000000000009060549492845260601b16602083015260348201520190565b5190206122da565b915f5b81811061247a5750506123d0565b6124b28a8a8d6124ac61249f61249988612494898d611708565b6122da565b8961140f565b516001600160a01b031690565b90611a7a565b90916001600160a01b0381166124cd5750505060010161246c565b9d919c509a5098505050505050505050565b508115156123cb565b506124f284611048565b600284146123c5565b6125189192503d805f833e612510818361016b565b810190612256565b905f6123aa565b612541915060203d602011612547575b612539818361016b565b8101906121f3565b5f612347565b503d61252f565b600382101561026b5752565b906020610393928181520190610287565b96936001600160a01b036125a3929c9b9a9794816101209b98956101408c019f8c521660208b0152166040890152606088019061025e565b608086015260a085015260c084015260e08301526101008201520152565b60ff7ff0c57e16840df040f15088dc2f81fe391c3923bec73e23a9662efc9c229c6a005460401c16156125f057565b7fd7e6bcf8000000000000000000000000000000000000000000000000000000005f5260045ffdfea264697066735822122077fc7a90c3dd95f7495f9c13008c2490b1e649fe91c7100d6fa47e5c40867b1e64736f6c634300081c0033",
  "linkReferences": {},
  "deployedLinkReferences": {}
}