{
  "_format": "hh-sol-artifact-1",
  "contractName": "PoolAgent",
  "sourceName": "contracts/PoolAgent.sol",
  "abi": [
    {
      "inputs": [],
      "name": "InvalidInitialization",
      "type": "error"
    },
    {
      "inputs": [],
      "name": "NotInitializing",
      "type": "error"
    },
    {
      "inputs": [
        {
          "internalType": "address",
          "name": "owner",
          "type": "address"
        }
      ],
      "name": "OwnableInvalidOwner",
      "type": "error"
    },
    {
      "inputs": [
        {
          "internalType": "address",
          "name": "account",
          "type": "address"
        }
      ],
      "name": "OwnableUnauthorizedAccount",
      "type": "error"
    },
    {
      "anonymous": false,
      "inputs": [
        {
          "indexed": false,
          "internalType": "address",
          "name": "token",
          "type": "address"
        },
        {
          "indexed": false,
          "internalType": "address",
          "name": "holder",
          "type": "address"
        },
        {
          "indexed": false,
          "internalType": "string",
          "name": "name",
          "type": "string"
        },
        {
          "indexed": false,
          "internalType": "enum ICommon.Direct",
          "name": "direct",
          "type": "uint8"
        },
        {
          "indexed": false,
          "internalType": "uint256",
          "name": "value",
          "type": "uint256"
        },
        {
          "indexed": false,
          "internalType": "uint256",
          "name": "size",
          "type": "uint256"
        },
        {
          "indexed": false,
          "internalType": "uint256",
          "name": "margin",
          "type": "uint256"
        },
        {
          "indexed": false,
          "internalType": "uint256",
          "name": "freeze",
          "type": "uint256"
        }
      ],
      "name": "AccountPosition",
      "type": "event"
    },
    {
      "anonymous": false,
      "inputs": [
        {
          "indexed": true,
          "internalType": "address",
          "name": "account",
          "type": "address"
        },
        {
          "indexed": true,
          "internalType": "address",
          "name": "token",
          "type": "address"
        },
        {
          "indexed": false,
          "internalType": "uint256",
          "name": "orderID",
          "type": "uint256"
        },
        {
          "indexed": false,
          "internalType": "uint256",
          "name": "amount",
          "type": "uint256"
        },
        {
          "indexed": false,
          "internalType": "uint256",
          "name": "margin",
          "type": "uint256"
        }
      ],
      "name": "AddMargin",
      "type": "event"
    },
    {
      "anonymous": false,
      "inputs": [
        {
          "indexed": false,
          "internalType": "address",
          "name": "token",
          "type": "address"
        },
        {
          "indexed": false,
          "internalType": "address",
          "name": "maker",
          "type": "address"
        },
        {
          "indexed": false,
          "internalType": "uint256",
          "name": "amount",
          "type": "uint256"
        },
        {
          "indexed": false,
          "internalType": "uint256",
          "name": "availableAmount",
          "type": "uint256"
        },
        {
          "indexed": false,
          "internalType": "uint256",
          "name": "lockedAmount",
          "type": "uint256"
        },
        {
          "indexed": false,
          "internalType": "uint256",
          "name": "maintenanceMargin",
          "type": "uint256"
        },
        {
          "indexed": false,
          "internalType": "uint256",
          "name": "share",
          "type": "uint256"
        },
        {
          "indexed": false,
          "internalType": "uint256",
          "name": "flag",
          "type": "uint256"
        }
      ],
      "name": "BalanceOfMaker",
      "type": "event"
    },
    {
      "anonymous": false,
      "inputs": [
        {
          "indexed": false,
          "internalType": "address",
          "name": "token",
          "type": "address"
        },
        {
          "indexed": false,
          "internalType": "address",
          "name": "taker",
          "type": "address"
        },
        {
          "indexed": false,
          "internalType": "uint256",
          "name": "amount",
          "type": "uint256"
        },
        {
          "indexed": false,
          "internalType": "uint256",
          "name": "availableAmount",
          "type": "uint256"
        },
        {
          "indexed": false,
          "internalType": "uint256",
          "name": "marginAmount",
          "type": "uint256"
        },
        {
          "indexed": false,
          "internalType": "uint256",
          "name": "locked",
          "type": "uint256"
        },
        {
          "indexed": false,
          "internalType": "uint256",
          "name": "stage",
          "type": "uint256"
        },
        {
          "indexed": false,
          "internalType": "uint256",
          "name": "dif",
          "type": "uint256"
        }
      ],
      "name": "BalanceOfTaker",
      "type": "event"
    },
    {
      "anonymous": false,
      "inputs": [
        {
          "indexed": false,
          "internalType": "uint256",
          "name": "dealID",
          "type": "uint256"
        },
        {
          "indexed": false,
          "internalType": "address",
          "name": "token",
          "type": "address"
        },
        {
          "indexed": false,
          "internalType": "address",
          "name": "maker",
          "type": "address"
        },
        {
          "indexed": false,
          "internalType": "enum ICommon.Direct",
          "name": "direct",
          "type": "uint8"
        },
        {
          "indexed": false,
          "internalType": "uint256",
          "name": "size",
          "type": "uint256"
        },
        {
          "indexed": false,
          "internalType": "uint256",
          "name": "price",
          "type": "uint256"
        },
        {
          "indexed": false,
          "internalType": "uint256",
          "name": "makerID",
          "type": "uint256"
        },
        {
          "indexed": false,
          "internalType": "uint256",
          "name": "makerGain",
          "type": "uint256"
        },
        {
          "indexed": false,
          "internalType": "uint256",
          "name": "makerLoss",
          "type": "uint256"
        },
        {
          "indexed": false,
          "internalType": "uint256",
          "name": "closeFlag",
          "type": "uint256"
        },
        {
          "indexed": false,
          "internalType": "uint256",
          "name": "closeType",
          "type": "uint256"
        }
      ],
      "name": "ClosedMakerDeal",
      "type": "event"
    },
    {
      "anonymous": false,
      "inputs": [
        {
          "indexed": false,
          "internalType": "string",
          "name": "name",
          "type": "string"
        },
        {
          "indexed": true,
          "internalType": "address",
          "name": "taker",
          "type": "address"
        },
        {
          "indexed": true,
          "internalType": "address",
          "name": "token",
          "type": "address"
        },
        {
          "indexed": false,
          "internalType": "uint256",
          "name": "orderID",
          "type": "uint256"
        },
        {
          "indexed": false,
          "internalType": "enum ICommon.Direct",
          "name": "direct",
          "type": "uint8"
        },
        {
          "indexed": false,
          "internalType": "enum IPerpetual.OrderState",
          "name": "state",
          "type": "uint8"
        },
        {
          "indexed": false,
          "internalType": "enum ICommon.Offset",
          "name": "offset",
          "type": "uint8"
        },
        {
          "indexed": false,
          "internalType": "uint256",
          "name": "amount",
          "type": "uint256"
        },
        {
          "indexed": false,
          "internalType": "uint256",
          "name": "targetPrice",
          "type": "uint256"
        },
        {
          "indexed": false,
          "internalType": "uint256",
          "name": "margin",
          "type": "uint256"
        },
        {
          "indexed": false,
          "internalType": "uint256",
          "name": "rewardGas",
          "type": "uint256"
        },
        {
          "indexed": false,
          "internalType": "uint256",
          "name": "tradingFee",
          "type": "uint256"
        },
        {
          "indexed": false,
          "internalType": "uint256",
          "name": "startTime",
          "type": "uint256"
        },
        {
          "indexed": false,
          "internalType": "uint256",
          "name": "orderType",
          "type": "uint256"
        }
      ],
      "name": "CreateLimitedOrder",
      "type": "event"
    },
    {
      "anonymous": false,
      "inputs": [
        {
          "indexed": false,
          "internalType": "uint256",
          "name": "limitOrderID",
          "type": "uint256"
        },
        {
          "indexed": false,
          "internalType": "uint256",
          "name": "openLimitPrice",
          "type": "uint256"
        },
        {
          "indexed": false,
          "internalType": "uint256",
          "name": "gainTriggerPrice",
          "type": "uint256"
        },
        {
          "indexed": false,
          "internalType": "uint256",
          "name": "gainLimitPrice",
          "type": "uint256"
        },
        {
          "indexed": false,
          "internalType": "uint256",
          "name": "lossTriggerPrice",
          "type": "uint256"
        },
        {
          "indexed": false,
          "internalType": "uint256",
          "name": "lossLimitPrice",
          "type": "uint256"
        }
      ],
      "name": "CreateTriggerCondition",
      "type": "event"
    },
    {
      "anonymous": false,
      "inputs": [
        {
          "indexed": false,
          "internalType": "uint256",
          "name": "code",
          "type": "uint256"
        },
        {
          "indexed": false,
          "internalType": "uint256",
          "name": "orderID",
          "type": "uint256"
        },
        {
          "indexed": false,
          "internalType": "string",
          "name": "message",
          "type": "string"
        }
      ],
      "name": "ErrorInfo",
      "type": "event"
    },
    {
      "anonymous": false,
      "inputs": [
        {
          "indexed": false,
          "internalType": "uint256",
          "name": "code",
          "type": "uint256"
        },
        {
          "indexed": false,
          "internalType": "uint256",
          "name": "orderID",
          "type": "uint256"
        },
        {
          "indexed": false,
          "internalType": "bytes",
          "name": "message",
          "type": "bytes"
        }
      ],
      "name": "ExceptErrorInfo",
      "type": "event"
    },
    {
      "anonymous": false,
      "inputs": [
        {
          "indexed": false,
          "internalType": "uint64",
          "name": "version",
          "type": "uint64"
        }
      ],
      "name": "Initialized",
      "type": "event"
    },
    {
      "anonymous": false,
      "inputs": [
        {
          "indexed": false,
          "internalType": "string",
          "name": "name",
          "type": "string"
        },
        {
          "indexed": true,
          "internalType": "address",
          "name": "taker",
          "type": "address"
        },
        {
          "indexed": true,
          "internalType": "address",
          "name": "token",
          "type": "address"
        },
        {
          "indexed": false,
          "internalType": "uint256",
          "name": "orderID",
          "type": "uint256"
        },
        {
          "indexed": false,
          "internalType": "enum ICommon.Direct",
          "name": "direct",
          "type": "uint8"
        },
        {
          "indexed": false,
          "internalType": "enum IPerpetual.OrderState",
          "name": "state",
          "type": "uint8"
        },
        {
          "indexed": false,
          "internalType": "enum ICommon.Offset",
          "name": "offset",
          "type": "uint8"
        },
        {
          "indexed": false,
          "internalType": "uint256",
          "name": "amount",
          "type": "uint256"
        },
        {
          "indexed": false,
          "internalType": "uint256",
          "name": "targetPrice",
          "type": "uint256"
        },
        {
          "indexed": false,
          "internalType": "uint256",
          "name": "margin",
          "type": "uint256"
        },
        {
          "indexed": false,
          "internalType": "uint256",
          "name": "rewardGas",
          "type": "uint256"
        },
        {
          "indexed": false,
          "internalType": "uint256",
          "name": "tradingFee",
          "type": "uint256"
        },
        {
          "indexed": false,
          "internalType": "uint256",
          "name": "startTime",
          "type": "uint256"
        },
        {
          "indexed": false,
          "internalType": "uint256",
          "name": "orderType",
          "type": "uint256"
        }
      ],
      "name": "LimitedOrderHistory",
      "type": "event"
    },
    {
      "anonymous": false,
      "inputs": [
        {
          "indexed": false,
          "internalType": "address",
          "name": "token",
          "type": "address"
        },
        {
          "indexed": false,
          "internalType": "address",
          "name": "taker",
          "type": "address"
        }
      ],
      "name": "LiquidateTaker",
      "type": "event"
    },
    {
      "anonymous": false,
      "inputs": [
        {
          "indexed": false,
          "internalType": "uint256",
          "name": "dealID",
          "type": "uint256"
        },
        {
          "indexed": false,
          "internalType": "address",
          "name": "token",
          "type": "address"
        },
        {
          "indexed": false,
          "internalType": "address",
          "name": "maker",
          "type": "address"
        },
        {
          "indexed": false,
          "internalType": "uint256",
          "name": "makerID",
          "type": "uint256"
        }
      ],
      "name": "LiquidatedMakerDeal",
      "type": "event"
    },
    {
      "anonymous": false,
      "inputs": [
        {
          "indexed": false,
          "internalType": "uint256",
          "name": "dealID",
          "type": "uint256"
        },
        {
          "indexed": false,
          "internalType": "address",
          "name": "token",
          "type": "address"
        },
        {
          "indexed": false,
          "internalType": "address",
          "name": "maker",
          "type": "address"
        },
        {
          "indexed": false,
          "internalType": "uint256",
          "name": "size",
          "type": "uint256"
        },
        {
          "indexed": false,
          "internalType": "uint256",
          "name": "price",
          "type": "uint256"
        },
        {
          "indexed": false,
          "internalType": "uint256",
          "name": "makerID",
          "type": "uint256"
        },
        {
          "indexed": false,
          "internalType": "uint256",
          "name": "marginAmount",
          "type": "uint256"
        },
        {
          "indexed": false,
          "internalType": "uint256",
          "name": "maintenanceMargin",
          "type": "uint256"
        },
        {
          "indexed": false,
          "internalType": "uint256",
          "name": "flag",
          "type": "uint256"
        }
      ],
      "name": "LockPoolMargin",
      "type": "event"
    },
    {
      "anonymous": false,
      "inputs": [
        {
          "indexed": true,
          "internalType": "address",
          "name": "taker",
          "type": "address"
        },
        {
          "indexed": false,
          "internalType": "string",
          "name": "name",
          "type": "string"
        },
        {
          "indexed": false,
          "internalType": "address",
          "name": "token",
          "type": "address"
        },
        {
          "indexed": false,
          "internalType": "uint256",
          "name": "orderID",
          "type": "uint256"
        },
        {
          "indexed": false,
          "internalType": "enum ICommon.Direct",
          "name": "direction",
          "type": "uint8"
        },
        {
          "indexed": false,
          "internalType": "enum IPerpetual.OrderType",
          "name": "orderType",
          "type": "uint8"
        },
        {
          "indexed": false,
          "internalType": "uint256",
          "name": "amount",
          "type": "uint256"
        },
        {
          "indexed": false,
          "internalType": "uint256",
          "name": "costPrice",
          "type": "uint256"
        },
        {
          "indexed": false,
          "internalType": "uint256",
          "name": "price",
          "type": "uint256"
        },
        {
          "indexed": false,
          "internalType": "uint256",
          "name": "tradingFee",
          "type": "uint256"
        },
        {
          "indexed": false,
          "internalType": "uint256",
          "name": "leverage",
          "type": "uint256"
        },
        {
          "indexed": false,
          "internalType": "uint256",
          "name": "marginAmount",
          "type": "uint256"
        },
        {
          "indexed": false,
          "internalType": "uint256",
          "name": "limitOrderId",
          "type": "uint256"
        },
        {
          "indexed": false,
          "internalType": "uint256",
          "name": "timestamp",
          "type": "uint256"
        }
      ],
      "name": "OrderHistory",
      "type": "event"
    },
    {
      "anonymous": false,
      "inputs": [
        {
          "indexed": true,
          "internalType": "address",
          "name": "previousOwner",
          "type": "address"
        },
        {
          "indexed": true,
          "internalType": "address",
          "name": "newOwner",
          "type": "address"
        }
      ],
      "name": "OwnershipTransferred",
      "type": "event"
    },
    {
      "anonymous": false,
      "inputs": [
        {
          "indexed": true,
          "internalType": "address",
          "name": "account",
          "type": "address"
        },
        {
          "indexed": true,
          "internalType": "address",
          "name": "token",
          "type": "address"
        },
        {
          "indexed": false,
          "internalType": "uint256",
          "name": "amount",
          "type": "uint256"
        },
        {
          "indexed": false,
          "internalType": "enum ICommon.PoolFlag",
          "name": "poolType",
          "type": "uint8"
        }
      ],
      "name": "Provide",
      "type": "event"
    },
    {
      "anonymous": false,
      "inputs": [
        {
          "indexed": false,
          "internalType": "address",
          "name": "token",
          "type": "address"
        },
        {
          "indexed": false,
          "internalType": "uint256",
          "name": "orderID",
          "type": "uint256"
        },
        {
          "indexed": false,
          "internalType": "uint256",
          "name": "dealID",
          "type": "uint256"
        },
        {
          "indexed": false,
          "internalType": "enum IPerpetual.TradeType",
          "name": "tradeType",
          "type": "uint8"
        },
        {
          "indexed": false,
          "internalType": "uint256",
          "name": "amount",
          "type": "uint256"
        },
        {
          "indexed": false,
          "internalType": "uint256",
          "name": "price",
          "type": "uint256"
        },
        {
          "indexed": false,
          "internalType": "uint256",
          "name": "tradingFee",
          "type": "uint256"
        },
        {
          "indexed": false,
          "internalType": "uint256",
          "name": "leverage",
          "type": "uint256"
        },
        {
          "indexed": false,
          "internalType": "uint256",
          "name": "marginAmount",
          "type": "uint256"
        },
        {
          "indexed": false,
          "internalType": "uint256",
          "name": "profit",
          "type": "uint256"
        },
        {
          "indexed": false,
          "internalType": "uint256",
          "name": "loss",
          "type": "uint256"
        },
        {
          "indexed": false,
          "internalType": "uint256",
          "name": "timestamp",
          "type": "uint256"
        }
      ],
      "name": "TradeHistory",
      "type": "event"
    },
    {
      "anonymous": false,
      "inputs": [
        {
          "indexed": true,
          "internalType": "address",
          "name": "token",
          "type": "address"
        },
        {
          "indexed": true,
          "internalType": "address",
          "name": "sender",
          "type": "address"
        },
        {
          "indexed": true,
          "internalType": "address",
          "name": "received",
          "type": "address"
        },
        {
          "indexed": false,
          "internalType": "enum ICommon.TransactionType",
          "name": "transactionType",
          "type": "uint8"
        },
        {
          "indexed": false,
          "internalType": "uint256",
          "name": "amount",
          "type": "uint256"
        },
        {
          "indexed": false,
          "internalType": "uint256",
          "name": "timestamp",
          "type": "uint256"
        }
      ],
      "name": "TransactionHistory",
      "type": "event"
    },
    {
      "anonymous": false,
      "inputs": [
        {
          "indexed": true,
          "internalType": "address",
          "name": "account",
          "type": "address"
        },
        {
          "indexed": true,
          "internalType": "address",
          "name": "token",
          "type": "address"
        },
        {
          "indexed": false,
          "internalType": "uint256",
          "name": "amount",
          "type": "uint256"
        },
        {
          "indexed": false,
          "internalType": "enum ICommon.PoolFlag",
          "name": "poolType",
          "type": "uint8"
        }
      ],
      "name": "Withdraw",
      "type": "event"
    },
    {
      "anonymous": false,
      "inputs": [
        {
          "indexed": false,
          "internalType": "address",
          "name": "token",
          "type": "address"
        },
        {
          "indexed": false,
          "internalType": "address",
          "name": "sender",
          "type": "address"
        },
        {
          "indexed": false,
          "internalType": "string",
          "name": "name",
          "type": "string"
        },
        {
          "indexed": false,
          "internalType": "uint256",
          "name": "beforeLeverage",
          "type": "uint256"
        },
        {
          "indexed": false,
          "internalType": "uint256",
          "name": "afterLeverage",
          "type": "uint256"
        }
      ],
      "name": "setLeverage",
      "type": "event"
    },
    {
      "stateMutability": "nonpayable",
      "type": "fallback"
    },
    {
      "inputs": [
        {
          "internalType": "uint256",
          "name": "_dealID",
          "type": "uint256"
        },
        {
          "internalType": "uint256",
          "name": "_profit",
          "type": "uint256"
        }
      ],
      "name": "checkMarginRisk",
      "outputs": [
        {
          "internalType": "bool",
          "name": "isRisk",
          "type": "bool"
        }
      ],
      "stateMutability": "view",
      "type": "function"
    },
    {
      "inputs": [
        {
          "internalType": "uint256",
          "name": "_start",
          "type": "uint256"
        },
        {
          "internalType": "uint256",
          "name": "_end",
          "type": "uint256"
        },
        {
          "internalType": "uint256",
          "name": "_count",
          "type": "uint256"
        }
      ],
      "name": "getActiveDeals",
      "outputs": [
        {
          "components": [
            {
              "internalType": "string",
              "name": "name",
              "type": "string"
            },
            {
              "internalType": "address",
              "name": "token",
              "type": "address"
            },
            {
              "internalType": "address",
              "name": "makerAddr",
              "type": "address"
            },
            {
              "internalType": "uint256",
              "name": "takerId",
              "type": "uint256"
            },
            {
              "internalType": "uint256",
              "name": "size",
              "type": "uint256"
            },
            {
              "internalType": "enum ICommon.Direct",
              "name": "direct",
              "type": "uint8"
            },
            {
              "internalType": "uint256",
              "name": "marginAmount",
              "type": "uint256"
            },
            {
              "internalType": "uint256",
              "name": "maintenanceMargin",
              "type": "uint256"
            },
            {
              "internalType": "uint256",
              "name": "price",
              "type": "uint256"
            },
            {
              "internalType": "uint256",
              "name": "time",
              "type": "uint256"
            },
            {
              "internalType": "bool",
              "name": "locked",
              "type": "bool"
            }
          ],
          "internalType": "struct ICommon.MakerDeal[]",
          "name": "info",
          "type": "tuple[]"
        },
        {
          "internalType": "uint256[]",
          "name": "ids",
          "type": "uint256[]"
        },
        {
          "internalType": "uint256",
          "name": "end",
          "type": "uint256"
        }
      ],
      "stateMutability": "view",
      "type": "function"
    },
    {
      "inputs": [
        {
          "internalType": "uint256[]",
          "name": "_ids",
          "type": "uint256[]"
        }
      ],
      "name": "getMakerDeals",
      "outputs": [
        {
          "components": [
            {
              "internalType": "string",
              "name": "name",
              "type": "string"
            },
            {
              "internalType": "address",
              "name": "token",
              "type": "address"
            },
            {
              "internalType": "address",
              "name": "makerAddr",
              "type": "address"
            },
            {
              "internalType": "uint256",
              "name": "takerId",
              "type": "uint256"
            },
            {
              "internalType": "uint256",
              "name": "size",
              "type": "uint256"
            },
            {
              "internalType": "enum ICommon.Direct",
              "name": "direct",
              "type": "uint8"
            },
            {
              "internalType": "uint256",
              "name": "marginAmount",
              "type": "uint256"
            },
            {
              "internalType": "uint256",
              "name": "maintenanceMargin",
              "type": "uint256"
            },
            {
              "internalType": "uint256",
              "name": "price",
              "type": "uint256"
            },
            {
              "internalType": "uint256",
              "name": "time",
              "type": "uint256"
            },
            {
              "internalType": "bool",
              "name": "locked",
              "type": "bool"
            }
          ],
          "internalType": "struct ICommon.MakerDeal[]",
          "name": "deals",
          "type": "tuple[]"
        }
      ],
      "stateMutability": "view",
      "type": "function"
    },
    {
      "inputs": [
        {
          "internalType": "address",
          "name": "_token",
          "type": "address"
        },
        {
          "internalType": "address",
          "name": "_makerAddr",
          "type": "address"
        },
        {
          "internalType": "uint256",
          "name": "_amount",
          "type": "uint256"
        },
        {
          "internalType": "uint256",
          "name": "_price",
          "type": "uint256"
        }
      ],
      "name": "getMatchingMaker",
      "outputs": [
        {
          "internalType": "address",
          "name": "addr",
          "type": "address"
        },
        {
          "internalType": "uint256",
          "name": "marginAmount",
          "type": "uint256"
        },
        {
          "internalType": "uint256",
          "name": "maintenanceMargin",
          "type": "uint256"
        }
      ],
      "stateMutability": "view",
      "type": "function"
    },
    {
      "inputs": [
        {
          "internalType": "address",
          "name": "_token",
          "type": "address"
        }
      ],
      "name": "getPoolAsset",
      "outputs": [
        {
          "internalType": "uint256",
          "name": "privateAmount",
          "type": "uint256"
        },
        {
          "internalType": "uint256",
          "name": "privateMargin",
          "type": "uint256"
        },
        {
          "internalType": "uint256",
          "name": "share",
          "type": "uint256"
        },
        {
          "internalType": "uint256",
          "name": "publicAmount",
          "type": "uint256"
        },
        {
          "internalType": "uint256",
          "name": "publicMargin",
          "type": "uint256"
        }
      ],
      "stateMutability": "view",
      "type": "function"
    },
    {
      "inputs": [
        {
          "internalType": "address",
          "name": "token",
          "type": "address"
        },
        {
          "internalType": "string[]",
          "name": "_symbols",
          "type": "string[]"
        },
        {
          "internalType": "uint256[]",
          "name": "_prices",
          "type": "uint256[]"
        }
      ],
      "name": "getShareNetValue",
      "outputs": [
        {
          "internalType": "uint256",
          "name": "",
          "type": "uint256"
        }
      ],
      "stateMutability": "view",
      "type": "function"
    },
    {
      "inputs": [
        {
          "internalType": "address",
          "name": "_priPool",
          "type": "address"
        },
        {
          "internalType": "address",
          "name": "_perpetual",
          "type": "address"
        }
      ],
      "name": "initialize",
      "outputs": [],
      "stateMutability": "nonpayable",
      "type": "function"
    },
    {
      "inputs": [
        {
          "internalType": "address",
          "name": "_token",
          "type": "address"
        },
        {
          "internalType": "string",
          "name": "_name",
          "type": "string"
        },
        {
          "internalType": "uint256",
          "name": "_id",
          "type": "uint256"
        },
        {
          "internalType": "uint256",
          "name": "_amount",
          "type": "uint256"
        },
        {
          "internalType": "uint256",
          "name": "_tradingFee",
          "type": "uint256"
        },
        {
          "internalType": "uint256",
          "name": "_price",
          "type": "uint256"
        },
        {
          "internalType": "enum ICommon.Direct",
          "name": "_direction",
          "type": "uint8"
        }
      ],
      "name": "matchOrder",
      "outputs": [
        {
          "internalType": "bool",
          "name": "success",
          "type": "bool"
        },
        {
          "internalType": "uint256",
          "name": "remaining",
          "type": "uint256"
        }
      ],
      "stateMutability": "nonpayable",
      "type": "function"
    },
    {
      "inputs": [],
      "name": "owner",
      "outputs": [
        {
          "internalType": "address",
          "name": "",
          "type": "address"
        }
      ],
      "stateMutability": "view",
      "type": "function"
    },
    {
      "inputs": [],
      "name": "renounceOwnership",
      "outputs": [],
      "stateMutability": "nonpayable",
      "type": "function"
    },
    {
      "inputs": [
        {
          "internalType": "address",
          "name": "_orderBook",
          "type": "address"
        },
        {
          "internalType": "address",
          "name": "_tradeAgent",
          "type": "address"
        },
        {
          "internalType": "address",
          "name": "_tradeStation",
          "type": "address"
        },
        {
          "internalType": "address",
          "name": "_keeper",
          "type": "address"
        }
      ],
      "name": "setKeepers",
      "outputs": [],
      "stateMutability": "nonpayable",
      "type": "function"
    },
    {
      "inputs": [
        {
          "internalType": "address",
          "name": "newOwner",
          "type": "address"
        }
      ],
      "name": "transferOwnership",
      "outputs": [],
      "stateMutability": "nonpayable",
      "type": "function"
    }
  ],
  "bytecode": "0x608080604052346015576125ea908161001a8239f35b5f80fdfe60806040526004361015610019575b3461001557005b5f80fd5b5f3560e01c8063069d0254146100d857806325737d40146100d3578063485cc955146100ce57806370bcbca2146100c9578063715018a6146100c457806381a4f173146100bf5780638da5cb5b146100ba578063d112d0e9146100b5578063d3c76d66146100b0578063d5c3df39146100ab578063e771ad72146100a65763f2fde38b0361000e57610e6b565b610cc8565b610be8565b610aae565b610a3b565b6109f6565b61089d565b6107f9565b61070e565b61046d565b61037e565b6100ee565b6001600160a01b0381160361001557565b346100155760206003193601126100155760a0610115600435610110816100dd565b611017565b926040929192519485526020850152604084015260608301526080820152f35b634e487b7160e01b5f52604160045260245ffd5b610160810190811067ffffffffffffffff82111761016657604052565b610135565b90601f601f19910116810190811067ffffffffffffffff82111761016657604052565b6040519061019e6101408361016b565b565b6040519061019e6101608361016b565b67ffffffffffffffff81116101665760051b60200190565b9080601f830112156100155781356101df816101b0565b926101ed604051948561016b565b81845260208085019260051b82010192831161001557602001905b8282106102155750505090565b8135815260209182019101610208565b90601f19601f602080948051918291828752018686015e5f8582860101520116010190565b634e487b7160e01b5f52602160045260245ffd5b90600382101561026b5752565b61024a565b90610312906101408061028e85516101608552610160850190610225565b6020808701516001600160a01b031690850152946040818101516001600160a01b03169085015260608101516060850152608081015160808501526102db60a082015160a086019061025e565b60c081015160c085015260e081015160e0850152610100810151610100850152610120810151610120850152015191019015159052565b90565b9080602083519182815201916020808360051b8301019401925f915b83831061034057505050505090565b909192939460208061035e83601f1986600196030187528951610270565b97019301930191939290610331565b906020610312928181520190610315565b346100155760206003193601126100155760043567ffffffffffffffff8111610015576103af9036906004016101c8565b80516103ba81611325565b60015490925f916001600160a01b0316915b8381106103e557604051806103e1878261036d565b0390f35b805f6103f461041493856113b9565b51604051809481926360d32e8d60e01b8352600483019190602083019252565b0381875afa8015610468576001925f91610446575b5061043482886113b9565b5261043f81876113b9565b50016103cc565b61046291503d805f833e61045a818361016b565b810190611432565b5f610429565b610eb1565b346100155760406003193601126100155760043561048a816100dd565b60243590610497826100dd565b7ff0c57e16840df040f15088dc2f81fe391c3923bec73e23a9662efc9c229c6a00549167ffffffffffffffff6104dd60ff604086901c16159467ffffffffffffffff1690565b16801590816106a4575b600114908161069a575b159081610691575b506106695761057a918361057160017fffffffffffffffffffffffffffffffffffffffffffffffff00000000000000007ff0c57e16840df040f15088dc2f81fe391c3923bec73e23a9662efc9c229c6a005416177ff0c57e16840df040f15088dc2f81fe391c3923bec73e23a9662efc9c229c6a0055565b6106045761150b565b61058057005b6105d568ff0000000000000000197ff0c57e16840df040f15088dc2f81fe391c3923bec73e23a9662efc9c229c6a0054167ff0c57e16840df040f15088dc2f81fe391c3923bec73e23a9662efc9c229c6a0055565b604051600181527fc7f505b2f371ae2175ee4913f4499e1f2633a7b5936321eed1cdaeb6115181d290602090a1005b6106646801000000000000000068ff0000000000000000197ff0c57e16840df040f15088dc2f81fe391c3923bec73e23a9662efc9c229c6a005416177ff0c57e16840df040f15088dc2f81fe391c3923bec73e23a9662efc9c229c6a0055565b61150b565b7ff92ee8a9000000000000000000000000000000000000000000000000000000005f5260045ffd5b9050155f6104f9565b303b1591506104f1565b8491506104e7565b67ffffffffffffffff811161016657601f01601f191660200190565b81601f82011215610015578035906106df826106ac565b926106ed604051948561016b565b8284526020838301011161001557815f926020809301838601378301015290565b346100155760606003193601126100155760043561072b816100dd565b6024359067ffffffffffffffff82116100155736602383011215610015578160040135610757816101b0565b92610765604051948561016b565b8184526024602085019260051b820101903682116100155760248101925b8284106107c957856044358667ffffffffffffffff8211610015576103e1926107b36107b99336906004016101c8565b9161171c565b6040519081529081906020820190565b833567ffffffffffffffff8111610015576020916107ee8392602436918701016106c8565b815201930192610783565b34610015575f60031936011261001557610811612186565b5f6001600160a01b037f9016d09d72d40fdae2fd8ceac6b6234c7706214fd39c1cd1e609a0528c1993005473ffffffffffffffffffffffffffffffffffffffff1981167f9016d09d72d40fdae2fd8ceac6b6234c7706214fd39c1cd1e609a0528c19930055167f8be0079c531659141344cd1fd0a4f28419497f9722a3daafe3b4186f6b6457e08280a3005b34610015576080600319360112610015576109f46001600160a01b036004356108c5816100dd565b6109ca6024356108d4816100dd565b6109a1604435936108e4856100dd565b61097a6109568780606435946108f9866100dd565b610901612186565b1695865f52600560205260405f20600160ff198254161790551692835f52600560205261093860405f20600160ff19825416179055565b610963610956896001600160a01b03165f52600560205260405f2090565b600160ff19825416179055565b6001600160a01b03165f52600560205260405f2090565b6001600160a01b031673ffffffffffffffffffffffffffffffffffffffff195f5416175f55565b6001600160a01b031673ffffffffffffffffffffffffffffffffffffffff196003541617600355565b166001600160a01b031673ffffffffffffffffffffffffffffffffffffffff196004541617600455565b005b34610015575f6003193601126100155760206001600160a01b037f9016d09d72d40fdae2fd8ceac6b6234c7706214fd39c1cd1e609a0528c1993005416604051908152f35b3461001557608060031936011261001557610a8c600435610a5b816100dd565b602435610a67816100dd565b6044359060643592335f526005602052610a8760ff60405f2054166119cc565b611a3d565b604080516001600160a01b039094168452602084019290925290820152606090f35b3461001557604060031936011261001557600435602435610b2c6020610af4610aee610ae26001546001600160a01b031690565b6001600160a01b031690565b94610ffc565b604051809381927f36ff6a70000000000000000000000000000000000000000000000000000000008352600483019190602083019252565b0381865afa801561046857610b65935f928392610bad575b5060405180809681946360d32e8d60e01b8352600483019190602083019252565b03915afa918215610468576103e19260c0915f91610b93575b50015160405191101581529081906020820190565b610ba791503d805f833e61045a818361016b565b5f610b7e565b610bd091925060203d602011610bd7575b610bc8818361016b565b810190610ebc565b905f610b44565b503d610bbe565b6003111561001557565b346100155760e060031936011261001557600435610c05816100dd565b6024359067ffffffffffffffff821161001557610c29610c5e9236906004016106c8565b6044356064359060a4359260c43594610c4186610bde565b335f526005602052610c5960ff60405f2054166119cc565b611bed565b604080519215158352602083019190915290f35b93929190610c8890606086526060860190610315565b908482036020860152602080825193848152019101915f5b818110610cb257505060409150930152565b8351835260209384019390920191600101610ca0565b34610015576060600319360112610015576004356024359060443591808290610cfc610ae26001546001600160a01b031690565b93604051917ff2da708d000000000000000000000000000000000000000000000000000000008352602083600481895afa928315610468575f93610e4a575b508210610e40575b8110610e38575b5090915f90610d5885611325565b94610d6281611f4a565b935b85811080610e2f575b15610e08576040516360d32e8d60e01b8152600481018290525f81602481875afa908115610468575f91610dee575b50610140810151610db7575b50610db290611f7b565b610d64565b84610de79183610dcb610db295988a6113b9565b52610dd6828b6113b9565b52610de1818a6113b9565b50611f7b565b9390610da8565b610e0291503d805f833e61045a818361016b565b5f610d9c565b6103e187918587948103610e24575b5060405193849384610c72565b808452845284610e17565b50818410610d6d565b90505f610d4a565b9092508290610d43565b610e6491935060203d602011610bd757610bc8818361016b565b915f610d3b565b34610015576020600319360112610015576109f4600435610e8b816100dd565b610e93612186565b611f89565b90816020910312610015575160ff811681036100155790565b6040513d5f823e3d90fd5b90816020910312610015575190565b634e487b7160e01b5f52601160045260245ffd5b90670de0b6b3a7640000820291808304670de0b6b3a76400001490151715610f0357565b610ecb565b81810292918115918404141715610f0357565b604d8111610f0357600a0a90565b634e487b7160e01b5f52601260045260245ffd5b8115610f47570490565b610f29565b519061019e826100dd565b5190811515820361001557565b908161014091031261001557610fe9610120610f7e61018e565b92610f8881610f4c565b84526020810151602085015260408101516040850152606081015160608501526080810151608085015260a081015160a085015260c081015160c085015260e081015160e0850152610fdd6101008201610f57565b61010085015201610f57565b61012082015290565b6004111561026b57565b5f19810191908211610f0357565b91908203918211610f0357565b6040517f313ce56700000000000000000000000000000000000000000000000000000000815291906001600160a01b038116602084600481845afa938415610468575f946112f4575b50611076610ae26001546001600160a01b031690565b6040517f70a082310000000000000000000000000000000000000000000000000000000081526001600160a01b038216600482015290949091602090839060249082905afa9182156104685760ff6110dc6110e9946110e3935f916112d5575b50610edf565b9216610f1b565b90610f3d565b6040517fd74960600000000000000000000000000000000000000000000000000000000081526001600160a01b03838116600483015285166024820152909190602081604481885afa908115610468575f916112b6575b5060405163859d90a360e01b81526001600160a01b0383811660048301528616602482015290929061014081604481895afa8015610468576020915f91611287575b5001516040517f9409b0290000000000000000000000000000000000000000000000000000000081526001600160a01b0384166004820152600160248201529092906020816044818a5afa918215610468576111ed85611239946020945f9161126a575b509561100a565b9760405180809581947f9409b0290000000000000000000000000000000000000000000000000000000083526004830160206002919392936001600160a01b0360408201951681520152565b03915afa908115610468575f9161124e575093565b611267915060203d602011610bd757610bc8818361016b565b93565b6112819150853d8711610bd757610bc8818361016b565b5f6111e6565b6112a991506101403d81116112af575b6112a1818361016b565b810190610f64565b5f611182565b503d611297565b6112cf915060203d602011610bd757610bc8818361016b565b5f611140565b6112ee915060203d602011610bd757610bc8818361016b565b5f6110d6565b61131791945060203d60201161131e575b61130f818361016b565b810190610e98565b925f611060565b503d611305565b9061132f826101b0565b61133c604051918261016b565b828152601f1961134c82946101b0565b01905f5b82811061135c57505050565b60209060405161136b81610149565b606081525f838201525f60408201525f60608201525f60808201525f60a08201525f60c08201525f60e08201525f6101008201525f6101208201525f61014082015282828501015201611350565b80518210156113cd5760209160051b010190565b634e487b7160e01b5f52603260045260245ffd5b81601f82011215610015578051906113f8826106ac565b92611406604051948561016b565b8284526020838301011161001557815f9260208093018386015e8301015290565b519061019e82610bde565b6020818303126100155780519067ffffffffffffffff8211610015570161016081830312610015576114626101a0565b9181519167ffffffffffffffff831161001557611487610140926115029483016113e1565b845261149560208201610f4c565b60208501526114a660408201610f4c565b604085015260608101516060850152608081015160808501526114cb60a08201611427565b60a085015260c081015160c085015260e081015160e085015261010081015161010085015261012081015161012085015201610f57565b61014082015290565b61019e916109636109566109569361152161255d565b61152961255d565b61153233611f89565b305f52600560205260405f20600160ff19825416179055335f52600560205261156560405f20600160ff19825416179055565b6001600160a01b03811673ffffffffffffffffffffffffffffffffffffffff1960015416176001556001600160a01b038085161673ffffffffffffffffffffffffffffffffffffffff1960025416176002556001600160a01b03165f52600560205260405f2090565b6020818303126100155780519067ffffffffffffffff821161001557019080601f83011215610015578151611602816101b0565b92611610604051948561016b565b81845260208085019260051b820101918383116100155760208201905b83821061163c57505050505090565b815167ffffffffffffffff81116100155760209161165f878480948801016113e1565b81520191019061162d565b805191908290602001825e015f815290565b604051906040820182811067ffffffffffffffff821117610166576040525f6020838281520152565b91908201809211610f0357565b608460405162461bcd60e51b815260206004820152602160248201527f657363726f77206163636f756e742073686f756c64206265206465746f6e617460448201527f65000000000000000000000000000000000000000000000000000000000000006064820152fd5b91909161172881611017565b919350949150821590811591826119c4575b6119b1571590816119a9575b5061199857946004955f611765610ae26002546001600160a01b031690565b604051988980927fcd2ce4ae0000000000000000000000000000000000000000000000000000000082525afa968715610468575f97611974575b5090949195935f915f935f965b8051881015611939576117bf88826113b9565b51935f995f5b8451811015611927576117d881866113b9565b516040516117fc816117ee60208201809561166a565b03601f19810183528261016b565b5190206040516020810190611815816117ee848d61166a565b51902014611825576001016117c5565b89939c949b5061183b908697939b9892966113b9565b5180915b6118776118696118578661185161167c565b98612067565b60208996929601958187528952610f08565b670de0b6b3a7640000900490565b85519091908083106119065750916118ac6118a461189c6118b69694611869966116a5565b88519061100a565b955b8d61210e565b8092528652610f08565b9182815110155f146118e757916118d46118d99260019451906116a5565b61100a565b945b019692919790986117ac565b6118f86001936119009398996116a5565b90519061100a565b956118db565b6119216118b695936118d46118ac936118699795999f6116a5565b9b6118a6565b509394909895998089939c949b61183f565b50505090919495935061194c92506116a5565b918083111561196f5761196561196a916103129461100a565b610edf565b610f3d565b6116b2565b6119919197503d805f833e611989818361016b565b8101906115ce565b955f61179f565b5091610312935061196a9150610edf565b90505f611746565b50505050505050670de0b6b3a764000090565b50851561173a565b156119d357565b606460405162461bcd60e51b815260206004820152601f60248201527f63616c6c6572206973206e6f7420706f6f6c206167656e74206b6565706572006044820152fd5b90611a36939291335f526005602052610a8760ff60405f2054166119cc565b9192909190565b92611a8d9261014083611a5b610ae26001546001600160a01b031690565b60405163859d90a360e01b81526001600160a01b03988916600482015291909716602482015294859081906044820190565b0381885afa938415610468575f94611bcc575b50610120840151611bbf576040517f2c86d98e000000000000000000000000000000000000000000000000000000008152602081600481895afa91821561046857600493602093611b0d935f91611ba2575b509160a088015180611b98575b5061196a9161186991610f08565b94604051928380927f89f00b6d0000000000000000000000000000000000000000000000000000000082525afa801561046857611869611b58916040935f91611b79575b5086610f08565b920151611b6583856116a5565b1115611b76575050505f905f905f90565b92565b611b92915060203d602011610bd757610bc8818361016b565b5f611b51565b925061196a611aff565b611bb99150853d8711610bd757610bc8818361016b565b5f611af2565b50505050505f905f905f90565b611be69194506101403d81116112af576112a1818361016b565b925f611aa0565b919092959493611bfe8188856122d6565b909391956001600160a01b0387169081155f14611c23575050505050505050505f9190565b60029a939495969798999a99611c44610ae26001546001600160a01b031690565b926001600160a01b03841614611f41575b5f9392602092611ca9611d0693611c948e611c848f611c726101a0565b9687526001600160a01b031689870152565b6001600160a01b03166040850152565b89606084015288608084015260a08301612540565b8960c08201528460e08201528861010082015242610120820152611cd1610140820160019052565b6040519586809481937fcf946a560000000000000000000000000000000000000000000000000000000083526004830161254c565b03925af1958615610468577f2156f6f6f776548a0c2a805aee597ff49b812da0546e64c659347a40c8f3b6e4968896611d93958c955f93611f20575b508b604051998a998a95926001600160a01b0390816101009996939c9b9a97946101208a019d8a521660208901521660408701526060860152608085015260a084015260c083015260e08201520152565b0390a1611dab610ae26001546001600160a01b031690565b60405163859d90a360e01b81526001600160a01b038381166004830152841660248201529361014085604481855afa948515610468575f95611eff575b506020850151946040810151906080606082015191015190602060405180967fd74960600000000000000000000000000000000000000000000000000000000082528180611e528c8c600484019092916001600160a01b0360209181604085019616845216910152565b03915afa928315610468577f55a05fded01868e623bc311ab3e73d3cec2f0871392b36317648452d989ed1ce98611ed4965f95611ede575b50604051988998899491926001600160a01b0360e097949a999895929a8161010089019c16885216602087015260408601526060850152608084015260a083015260c08201520152565b0390a16001905f90565b611ef891955060203d602011610bd757610bc8818361016b565b935f611e8a565b611f199195506101403d81116112af576112a1818361016b565b935f611de8565b611f3a91935060203d602011610bd757610bc8818361016b565b915f611d42565b60019a50611c55565b90611f54826101b0565b611f61604051918261016b565b828152601f19611f7182946101b0565b0190602036910137565b5f198114610f035760010190565b6001600160a01b03168015612025576001600160a01b037f9016d09d72d40fdae2fd8ceac6b6234c7706214fd39c1cd1e609a0528c199300548273ffffffffffffffffffffffffffffffffffffffff198216177f9016d09d72d40fdae2fd8ceac6b6234c7706214fd39c1cd1e609a0528c19930055167f8be0079c531659141344cd1fd0a4f28419497f9722a3daafe3b4186f6b6457e05f80a3565b7f1e4fbdf7000000000000000000000000000000000000000000000000000000005f525f60045260245ffd5b9190826040910312610015576020825192015190565b6120c092916040916001600160a01b038060015416918451968794859384937f0c8c3516000000000000000000000000000000000000000000000000000000008552166004840152606060248401526064830190610225565b5f604483015203915afa918215610468575f905f936120de57509190565b905061210391925060403d604011612107575b6120fb818361016b565b810190612051565b9091565b503d6120f1565b61216792916040916001600160a01b038060015416918451968794859384937f0c8c3516000000000000000000000000000000000000000000000000000000008552166004840152606060248401526064830190610225565b6001604483015203915afa918215610468575f905f936120de57509190565b6001600160a01b037f9016d09d72d40fdae2fd8ceac6b6234c7706214fd39c1cd1e609a0528c199300541633036121b957565b7f118cdaa7000000000000000000000000000000000000000000000000000000005f523360045260245ffd5b90816020910312610015575160048110156100155790565b1561220457565b606460405162461bcd60e51b815260206004820152601560248201527f706f6f6c207374617475732069732072656675736500000000000000000000006044820152fd5b6020818303126100155780519067ffffffffffffffff821161001557019080601f8301121561001557815161227c816101b0565b9261228a604051948561016b565b81845260208085019260051b82010192831161001557602001905b8282106122b25750505090565b6020809183516122c1816100dd565b8152019101906122a5565b8115610f47570690565b91906122ed610ae26001546001600160a01b031690565b6040517fc0a148310000000000000000000000000000000000000000000000000000000081526001600160a01b0385166004820152602081602481855afa908115610468575f91612511575b5061234381610ff2565b61235060038214156121fd565b6040517fdc8d601c0000000000000000000000000000000000000000000000000000000081526001600160a01b0386166004820152905f82602481865afa918215610468575f926124ed575b508151916123a982610ff2565b8115928391841594856124da575b806124d1575b612401575b50506123cd82610ff2565b916123ed575b506123e457505050505f905f905f90565b611a3693611a17565b600191506123fa81610ff2565b145f6123d3565b61245b826040516020810190612453816117ee42414487917fffffffffffffffffffffffffffffffffffffffff0000000000000000000000009060549492845260601b16602083015260348201520190565b5190206122cc565b915f5b81811061246c5750506123c2565b6124a48a8a8d61249e61249161248b88612486898d6116a5565b6122cc565b896113b9565b516001600160a01b031690565b90611a17565b90916001600160a01b0381166124bf5750505060010161245e565b9d919c509a5098505050505050505050565b508115156123bd565b506124e484610ff2565b600284146123b7565b61250a9192503d805f833e612502818361016b565b810190612248565b905f61239c565b612533915060203d602011612539575b61252b818361016b565b8101906121e5565b5f612339565b503d612521565b600382101561026b5752565b906020610312928181520190610270565b60ff7ff0c57e16840df040f15088dc2f81fe391c3923bec73e23a9662efc9c229c6a005460401c161561258c57565b7fd7e6bcf8000000000000000000000000000000000000000000000000000000005f5260045ffdfea26469706673582212208a304c39e18bca8e08fdbace484b6d521289591339681f194203e06c76a0520364736f6c634300081c0033",
  "linkReferences": {},
  "deployedLinkReferences": {}
}