{
  "_format": "hh-sol-artifact-1",
  "contractName": "PrivatePool",
  "sourceName": "contracts/PrivatePool.sol",
  "abi": [
    {
      "inputs": [],
      "name": "InvalidInitialization",
      "type": "error"
    },
    {
      "inputs": [],
      "name": "NotInitializing",
      "type": "error"
    },
    {
      "inputs": [
        {
          "internalType": "address",
          "name": "owner",
          "type": "address"
        }
      ],
      "name": "OwnableInvalidOwner",
      "type": "error"
    },
    {
      "inputs": [
        {
          "internalType": "address",
          "name": "account",
          "type": "address"
        }
      ],
      "name": "OwnableUnauthorizedAccount",
      "type": "error"
    },
    {
      "anonymous": false,
      "inputs": [
        {
          "indexed": false,
          "internalType": "address",
          "name": "token",
          "type": "address"
        },
        {
          "indexed": false,
          "internalType": "address",
          "name": "holder",
          "type": "address"
        },
        {
          "indexed": false,
          "internalType": "string",
          "name": "name",
          "type": "string"
        },
        {
          "indexed": false,
          "internalType": "enum ICommon.Direct",
          "name": "direct",
          "type": "uint8"
        },
        {
          "indexed": false,
          "internalType": "uint256",
          "name": "value",
          "type": "uint256"
        },
        {
          "indexed": false,
          "internalType": "uint256",
          "name": "size",
          "type": "uint256"
        },
        {
          "indexed": false,
          "internalType": "uint256",
          "name": "margin",
          "type": "uint256"
        },
        {
          "indexed": false,
          "internalType": "uint256",
          "name": "freeze",
          "type": "uint256"
        }
      ],
      "name": "AccountPosition",
      "type": "event"
    },
    {
      "anonymous": false,
      "inputs": [
        {
          "indexed": true,
          "internalType": "address",
          "name": "account",
          "type": "address"
        },
        {
          "indexed": true,
          "internalType": "address",
          "name": "token",
          "type": "address"
        },
        {
          "indexed": false,
          "internalType": "uint256",
          "name": "makerDealId",
          "type": "uint256"
        },
        {
          "indexed": false,
          "internalType": "uint256",
          "name": "amount",
          "type": "uint256"
        },
        {
          "indexed": false,
          "internalType": "uint256",
          "name": "margin",
          "type": "uint256"
        }
      ],
      "name": "AddMargin",
      "type": "event"
    },
    {
      "anonymous": false,
      "inputs": [
        {
          "indexed": false,
          "internalType": "address",
          "name": "token",
          "type": "address"
        },
        {
          "indexed": false,
          "internalType": "address",
          "name": "maker",
          "type": "address"
        },
        {
          "indexed": false,
          "internalType": "uint256",
          "name": "amount",
          "type": "uint256"
        },
        {
          "indexed": false,
          "internalType": "uint256",
          "name": "availableAmount",
          "type": "uint256"
        },
        {
          "indexed": false,
          "internalType": "uint256",
          "name": "lockedAmount",
          "type": "uint256"
        },
        {
          "indexed": false,
          "internalType": "uint256",
          "name": "maintenanceMargin",
          "type": "uint256"
        },
        {
          "indexed": false,
          "internalType": "uint256",
          "name": "share",
          "type": "uint256"
        },
        {
          "indexed": false,
          "internalType": "uint256",
          "name": "flag",
          "type": "uint256"
        }
      ],
      "name": "BalanceOfMaker",
      "type": "event"
    },
    {
      "anonymous": false,
      "inputs": [
        {
          "indexed": false,
          "internalType": "uint256",
          "name": "dealID",
          "type": "uint256"
        },
        {
          "indexed": false,
          "internalType": "address",
          "name": "token",
          "type": "address"
        },
        {
          "indexed": false,
          "internalType": "address",
          "name": "maker",
          "type": "address"
        },
        {
          "indexed": false,
          "internalType": "enum ICommon.Direct",
          "name": "direct",
          "type": "uint8"
        },
        {
          "indexed": false,
          "internalType": "uint256",
          "name": "size",
          "type": "uint256"
        },
        {
          "indexed": false,
          "internalType": "uint256",
          "name": "price",
          "type": "uint256"
        },
        {
          "indexed": false,
          "internalType": "uint256",
          "name": "makerID",
          "type": "uint256"
        },
        {
          "indexed": false,
          "internalType": "uint256",
          "name": "makerGain",
          "type": "uint256"
        },
        {
          "indexed": false,
          "internalType": "uint256",
          "name": "makerLoss",
          "type": "uint256"
        },
        {
          "indexed": false,
          "internalType": "uint256",
          "name": "closeFlag",
          "type": "uint256"
        },
        {
          "indexed": false,
          "internalType": "uint256",
          "name": "closeType",
          "type": "uint256"
        }
      ],
      "name": "ClosedMakerDeal",
      "type": "event"
    },
    {
      "anonymous": false,
      "inputs": [
        {
          "indexed": false,
          "internalType": "uint64",
          "name": "version",
          "type": "uint64"
        }
      ],
      "name": "Initialized",
      "type": "event"
    },
    {
      "anonymous": false,
      "inputs": [
        {
          "indexed": false,
          "internalType": "address",
          "name": "token",
          "type": "address"
        },
        {
          "indexed": false,
          "internalType": "address",
          "name": "taker",
          "type": "address"
        }
      ],
      "name": "LiquidateTaker",
      "type": "event"
    },
    {
      "anonymous": false,
      "inputs": [
        {
          "indexed": false,
          "internalType": "uint256",
          "name": "dealID",
          "type": "uint256"
        },
        {
          "indexed": false,
          "internalType": "address",
          "name": "token",
          "type": "address"
        },
        {
          "indexed": false,
          "internalType": "address",
          "name": "maker",
          "type": "address"
        },
        {
          "indexed": false,
          "internalType": "uint256",
          "name": "makerID",
          "type": "uint256"
        }
      ],
      "name": "LiquidatedMakerDeal",
      "type": "event"
    },
    {
      "anonymous": false,
      "inputs": [
        {
          "indexed": false,
          "internalType": "uint256",
          "name": "takerDealID",
          "type": "uint256"
        },
        {
          "indexed": false,
          "internalType": "address",
          "name": "token",
          "type": "address"
        },
        {
          "indexed": false,
          "internalType": "address",
          "name": "maker",
          "type": "address"
        },
        {
          "indexed": false,
          "internalType": "uint256",
          "name": "size",
          "type": "uint256"
        },
        {
          "indexed": false,
          "internalType": "uint256",
          "name": "price",
          "type": "uint256"
        },
        {
          "indexed": false,
          "internalType": "uint256",
          "name": "makerDealID",
          "type": "uint256"
        },
        {
          "indexed": false,
          "internalType": "uint256",
          "name": "marginAmount",
          "type": "uint256"
        },
        {
          "indexed": false,
          "internalType": "uint256",
          "name": "maintenanceMargin",
          "type": "uint256"
        },
        {
          "indexed": false,
          "internalType": "uint256",
          "name": "flag",
          "type": "uint256"
        }
      ],
      "name": "LockPoolMargin",
      "type": "event"
    },
    {
      "anonymous": false,
      "inputs": [
        {
          "indexed": true,
          "internalType": "address",
          "name": "previousOwner",
          "type": "address"
        },
        {
          "indexed": true,
          "internalType": "address",
          "name": "newOwner",
          "type": "address"
        }
      ],
      "name": "OwnershipTransferred",
      "type": "event"
    },
    {
      "anonymous": false,
      "inputs": [
        {
          "indexed": true,
          "internalType": "address",
          "name": "account",
          "type": "address"
        },
        {
          "indexed": true,
          "internalType": "address",
          "name": "token",
          "type": "address"
        },
        {
          "indexed": false,
          "internalType": "uint256",
          "name": "amount",
          "type": "uint256"
        },
        {
          "indexed": false,
          "internalType": "uint256",
          "name": "share",
          "type": "uint256"
        },
        {
          "indexed": false,
          "internalType": "enum ICommon.PoolFlag",
          "name": "poolType",
          "type": "uint8"
        }
      ],
      "name": "Provide",
      "type": "event"
    },
    {
      "anonymous": false,
      "inputs": [
        {
          "indexed": true,
          "internalType": "address",
          "name": "token",
          "type": "address"
        },
        {
          "indexed": true,
          "internalType": "address",
          "name": "sender",
          "type": "address"
        },
        {
          "indexed": true,
          "internalType": "address",
          "name": "received",
          "type": "address"
        },
        {
          "indexed": false,
          "internalType": "enum ICommon.TransactionType",
          "name": "transactionType",
          "type": "uint8"
        },
        {
          "indexed": false,
          "internalType": "uint256",
          "name": "amount",
          "type": "uint256"
        },
        {
          "indexed": false,
          "internalType": "uint256",
          "name": "timestamp",
          "type": "uint256"
        }
      ],
      "name": "TransactionHistory",
      "type": "event"
    },
    {
      "anonymous": false,
      "inputs": [
        {
          "indexed": true,
          "internalType": "address",
          "name": "account",
          "type": "address"
        },
        {
          "indexed": true,
          "internalType": "address",
          "name": "token",
          "type": "address"
        },
        {
          "indexed": false,
          "internalType": "uint256",
          "name": "amount",
          "type": "uint256"
        },
        {
          "indexed": false,
          "internalType": "uint256",
          "name": "share",
          "type": "uint256"
        },
        {
          "indexed": false,
          "internalType": "enum ICommon.PoolFlag",
          "name": "poolType",
          "type": "uint8"
        }
      ],
      "name": "Withdraw",
      "type": "event"
    },
    {
      "anonymous": false,
      "inputs": [
        {
          "indexed": false,
          "internalType": "address",
          "name": "token",
          "type": "address"
        },
        {
          "indexed": false,
          "internalType": "address",
          "name": "sender",
          "type": "address"
        },
        {
          "indexed": false,
          "internalType": "string",
          "name": "name",
          "type": "string"
        },
        {
          "indexed": false,
          "internalType": "uint256",
          "name": "beforeLeverage",
          "type": "uint256"
        },
        {
          "indexed": false,
          "internalType": "uint256",
          "name": "afterLeverage",
          "type": "uint256"
        }
      ],
      "name": "setLeverage",
      "type": "event"
    },
    {
      "stateMutability": "nonpayable",
      "type": "fallback"
    },
    {
      "inputs": [
        {
          "internalType": "uint256",
          "name": "_dealID",
          "type": "uint256"
        },
        {
          "internalType": "uint256",
          "name": "_amount",
          "type": "uint256"
        }
      ],
      "name": "addMarginAmount",
      "outputs": [],
      "stateMutability": "nonpayable",
      "type": "function"
    },
    {
      "inputs": [],
      "name": "addMarginRatio",
      "outputs": [
        {
          "internalType": "uint256",
          "name": "",
          "type": "uint256"
        }
      ],
      "stateMutability": "view",
      "type": "function"
    },
    {
      "inputs": [
        {
          "internalType": "uint256",
          "name": "_id",
          "type": "uint256"
        },
        {
          "internalType": "uint8",
          "name": "_type",
          "type": "uint8"
        },
        {
          "internalType": "uint256",
          "name": "_profit",
          "type": "uint256"
        },
        {
          "internalType": "uint256",
          "name": "_loss",
          "type": "uint256"
        },
        {
          "internalType": "uint256",
          "name": "_amount",
          "type": "uint256"
        },
        {
          "internalType": "uint256",
          "name": "_price",
          "type": "uint256"
        },
        {
          "internalType": "bool",
          "name": "_transform",
          "type": "bool"
        }
      ],
      "name": "close",
      "outputs": [
        {
          "internalType": "uint256",
          "name": "makerProfit",
          "type": "uint256"
        },
        {
          "internalType": "uint256",
          "name": "makerLoss",
          "type": "uint256"
        },
        {
          "internalType": "bool",
          "name": "isLiquidated",
          "type": "bool"
        },
        {
          "internalType": "bool",
          "name": "isAgreement",
          "type": "bool"
        }
      ],
      "stateMutability": "nonpayable",
      "type": "function"
    },
    {
      "inputs": [
        {
          "internalType": "address",
          "name": "token",
          "type": "address"
        },
        {
          "internalType": "address",
          "name": "maker",
          "type": "address"
        }
      ],
      "name": "getLP2Account",
      "outputs": [
        {
          "components": [
            {
              "internalType": "address payable",
              "name": "holder",
              "type": "address"
            },
            {
              "internalType": "uint256",
              "name": "amount",
              "type": "uint256"
            },
            {
              "internalType": "uint256",
              "name": "availableAmount",
              "type": "uint256"
            },
            {
              "internalType": "uint256",
              "name": "lockedAmount",
              "type": "uint256"
            },
            {
              "internalType": "uint256",
              "name": "maintenanceMargin",
              "type": "uint256"
            },
            {
              "internalType": "uint256",
              "name": "leverage",
              "type": "uint256"
            },
            {
              "internalType": "uint256",
              "name": "maintenanceMarginRate",
              "type": "uint256"
            },
            {
              "internalType": "uint256",
              "name": "addMarginRate",
              "type": "uint256"
            },
            {
              "internalType": "bool",
              "name": "autoAddMargin",
              "type": "bool"
            },
            {
              "internalType": "bool",
              "name": "isRejectOrder",
              "type": "bool"
            }
          ],
          "internalType": "struct ICommon.LP2Account",
          "name": "",
          "type": "tuple"
        }
      ],
      "stateMutability": "view",
      "type": "function"
    },
    {
      "inputs": [
        {
          "internalType": "address",
          "name": "token",
          "type": "address"
        }
      ],
      "name": "getLP2Accounts",
      "outputs": [
        {
          "internalType": "address[]",
          "name": "",
          "type": "address[]"
        }
      ],
      "stateMutability": "view",
      "type": "function"
    },
    {
      "inputs": [
        {
          "internalType": "address",
          "name": "token",
          "type": "address"
        }
      ],
      "name": "getMakerAddresses",
      "outputs": [
        {
          "internalType": "address[]",
          "name": "",
          "type": "address[]"
        }
      ],
      "stateMutability": "view",
      "type": "function"
    },
    {
      "inputs": [
        {
          "internalType": "uint256",
          "name": "makerDealID",
          "type": "uint256"
        }
      ],
      "name": "getMakerDeal",
      "outputs": [
        {
          "components": [
            {
              "internalType": "string",
              "name": "name",
              "type": "string"
            },
            {
              "internalType": "address",
              "name": "token",
              "type": "address"
            },
            {
              "internalType": "address",
              "name": "makerAddr",
              "type": "address"
            },
            {
              "internalType": "uint256",
              "name": "takerId",
              "type": "uint256"
            },
            {
              "internalType": "uint256",
              "name": "size",
              "type": "uint256"
            },
            {
              "internalType": "uint256",
              "name": "price",
              "type": "uint256"
            },
            {
              "internalType": "enum ICommon.Direct",
              "name": "direct",
              "type": "uint8"
            },
            {
              "internalType": "enum ICommon.DealState",
              "name": "state",
              "type": "uint8"
            },
            {
              "internalType": "uint256",
              "name": "marginAmount",
              "type": "uint256"
            },
            {
              "internalType": "uint256",
              "name": "maintenanceMargin",
              "type": "uint256"
            },
            {
              "internalType": "uint256",
              "name": "time",
              "type": "uint256"
            }
          ],
          "internalType": "struct ICommon.MakerDeal",
          "name": "",
          "type": "tuple"
        }
      ],
      "stateMutability": "view",
      "type": "function"
    },
    {
      "inputs": [],
      "name": "getMakerDealsLength",
      "outputs": [
        {
          "internalType": "uint256",
          "name": "",
          "type": "uint256"
        }
      ],
      "stateMutability": "view",
      "type": "function"
    },
    {
      "inputs": [
        {
          "internalType": "address",
          "name": "token",
          "type": "address"
        }
      ],
      "name": "getShareAddresses",
      "outputs": [
        {
          "internalType": "address[]",
          "name": "",
          "type": "address[]"
        }
      ],
      "stateMutability": "view",
      "type": "function"
    },
    {
      "inputs": [],
      "name": "getTokenList",
      "outputs": [
        {
          "internalType": "address[]",
          "name": "",
          "type": "address[]"
        }
      ],
      "stateMutability": "view",
      "type": "function"
    },
    {
      "inputs": [
        {
          "internalType": "address",
          "name": "token",
          "type": "address"
        },
        {
          "internalType": "address",
          "name": "maker",
          "type": "address"
        }
      ],
      "name": "getUserMakerDealsID",
      "outputs": [
        {
          "internalType": "uint256[]",
          "name": "",
          "type": "uint256[]"
        }
      ],
      "stateMutability": "view",
      "type": "function"
    },
    {
      "inputs": [
        {
          "internalType": "address",
          "name": "token",
          "type": "address"
        },
        {
          "internalType": "address",
          "name": "user",
          "type": "address"
        }
      ],
      "name": "getUserShareAmount",
      "outputs": [
        {
          "internalType": "uint256",
          "name": "",
          "type": "uint256"
        }
      ],
      "stateMutability": "view",
      "type": "function"
    },
    {
      "inputs": [
        {
          "internalType": "address",
          "name": "_riskFundAddr",
          "type": "address"
        }
      ],
      "name": "initialize",
      "outputs": [],
      "stateMutability": "nonpayable",
      "type": "function"
    },
    {
      "inputs": [],
      "name": "leverage",
      "outputs": [
        {
          "internalType": "uint256",
          "name": "",
          "type": "uint256"
        }
      ],
      "stateMutability": "view",
      "type": "function"
    },
    {
      "inputs": [],
      "name": "maintenanceMarginRate",
      "outputs": [
        {
          "internalType": "uint256",
          "name": "",
          "type": "uint256"
        }
      ],
      "stateMutability": "view",
      "type": "function"
    },
    {
      "inputs": [
        {
          "internalType": "uint256",
          "name": "",
          "type": "uint256"
        }
      ],
      "name": "matchIds",
      "outputs": [
        {
          "internalType": "uint256",
          "name": "",
          "type": "uint256"
        }
      ],
      "stateMutability": "view",
      "type": "function"
    },
    {
      "inputs": [
        {
          "components": [
            {
              "internalType": "string",
              "name": "name",
              "type": "string"
            },
            {
              "internalType": "address",
              "name": "token",
              "type": "address"
            },
            {
              "internalType": "address",
              "name": "makerAddr",
              "type": "address"
            },
            {
              "internalType": "uint256",
              "name": "takerId",
              "type": "uint256"
            },
            {
              "internalType": "uint256",
              "name": "size",
              "type": "uint256"
            },
            {
              "internalType": "uint256",
              "name": "price",
              "type": "uint256"
            },
            {
              "internalType": "enum ICommon.Direct",
              "name": "direct",
              "type": "uint8"
            },
            {
              "internalType": "enum ICommon.DealState",
              "name": "state",
              "type": "uint8"
            },
            {
              "internalType": "uint256",
              "name": "marginAmount",
              "type": "uint256"
            },
            {
              "internalType": "uint256",
              "name": "maintenanceMargin",
              "type": "uint256"
            },
            {
              "internalType": "uint256",
              "name": "time",
              "type": "uint256"
            }
          ],
          "internalType": "struct ICommon.MakerDeal",
          "name": "makerDeal",
          "type": "tuple"
        }
      ],
      "name": "newMakerDeal",
      "outputs": [
        {
          "internalType": "uint256",
          "name": "makerDealID",
          "type": "uint256"
        }
      ],
      "stateMutability": "nonpayable",
      "type": "function"
    },
    {
      "inputs": [],
      "name": "owner",
      "outputs": [
        {
          "internalType": "address",
          "name": "",
          "type": "address"
        }
      ],
      "stateMutability": "view",
      "type": "function"
    },
    {
      "inputs": [
        {
          "internalType": "address",
          "name": "",
          "type": "address"
        }
      ],
      "name": "poolType",
      "outputs": [
        {
          "internalType": "enum ICommon.PoolFlag",
          "name": "",
          "type": "uint8"
        }
      ],
      "stateMutability": "view",
      "type": "function"
    },
    {
      "inputs": [
        {
          "internalType": "address",
          "name": "",
          "type": "address"
        },
        {
          "internalType": "string",
          "name": "",
          "type": "string"
        },
        {
          "internalType": "uint256",
          "name": "",
          "type": "uint256"
        }
      ],
      "name": "positions",
      "outputs": [
        {
          "internalType": "uint256",
          "name": "value",
          "type": "uint256"
        },
        {
          "internalType": "uint256",
          "name": "size",
          "type": "uint256"
        }
      ],
      "stateMutability": "view",
      "type": "function"
    },
    {
      "inputs": [],
      "name": "privateMinMintAmount",
      "outputs": [
        {
          "internalType": "uint256",
          "name": "",
          "type": "uint256"
        }
      ],
      "stateMutability": "view",
      "type": "function"
    },
    {
      "inputs": [
        {
          "internalType": "address",
          "name": "_token",
          "type": "address"
        },
        {
          "internalType": "uint256",
          "name": "_amount",
          "type": "uint256"
        },
        {
          "internalType": "enum ICommon.PoolFlag",
          "name": "_priOrPub",
          "type": "uint8"
        },
        {
          "internalType": "string[]",
          "name": "_symbols",
          "type": "string[]"
        },
        {
          "internalType": "bytes[]",
          "name": "_prices",
          "type": "bytes[]"
        }
      ],
      "name": "provide",
      "outputs": [],
      "stateMutability": "payable",
      "type": "function"
    },
    {
      "inputs": [],
      "name": "renounceOwnership",
      "outputs": [],
      "stateMutability": "nonpayable",
      "type": "function"
    },
    {
      "inputs": [
        {
          "internalType": "address",
          "name": "_perpetual",
          "type": "address"
        },
        {
          "internalType": "address",
          "name": "_orderBook",
          "type": "address"
        },
        {
          "internalType": "address",
          "name": "_tradeAgent",
          "type": "address"
        },
        {
          "internalType": "address",
          "name": "_tradeStation",
          "type": "address"
        },
        {
          "internalType": "address",
          "name": "_poolAgent",
          "type": "address"
        },
        {
          "internalType": "address",
          "name": "_keeper",
          "type": "address"
        }
      ],
      "name": "setKeepers",
      "outputs": [],
      "stateMutability": "nonpayable",
      "type": "function"
    },
    {
      "inputs": [
        {
          "internalType": "address",
          "name": "_token",
          "type": "address"
        },
        {
          "internalType": "enum ICommon.PoolFlag",
          "name": "_flag",
          "type": "uint8"
        }
      ],
      "name": "setPoolType",
      "outputs": [],
      "stateMutability": "nonpayable",
      "type": "function"
    },
    {
      "inputs": [
        {
          "internalType": "uint256",
          "name": "_value",
          "type": "uint256"
        }
      ],
      "name": "setPrivateMinMintAmount",
      "outputs": [],
      "stateMutability": "nonpayable",
      "type": "function"
    },
    {
      "inputs": [
        {
          "internalType": "address",
          "name": "_token",
          "type": "address"
        },
        {
          "internalType": "uint256",
          "name": "_leverage",
          "type": "uint256"
        },
        {
          "internalType": "bool",
          "name": "_isRejectOrder",
          "type": "bool"
        },
        {
          "internalType": "bool",
          "name": "_autoAddMargin",
          "type": "bool"
        }
      ],
      "name": "setUserParam",
      "outputs": [],
      "stateMutability": "nonpayable",
      "type": "function"
    },
    {
      "inputs": [
        {
          "internalType": "address",
          "name": "",
          "type": "address"
        },
        {
          "internalType": "enum ICommon.PoolFlag",
          "name": "",
          "type": "uint8"
        }
      ],
      "name": "totalLockedLiquidity",
      "outputs": [
        {
          "internalType": "uint256",
          "name": "",
          "type": "uint256"
        }
      ],
      "stateMutability": "view",
      "type": "function"
    },
    {
      "inputs": [
        {
          "internalType": "address",
          "name": "newOwner",
          "type": "address"
        }
      ],
      "name": "transferOwnership",
      "outputs": [],
      "stateMutability": "nonpayable",
      "type": "function"
    },
    {
      "inputs": [
        {
          "internalType": "address",
          "name": "_token",
          "type": "address"
        },
        {
          "internalType": "uint256",
          "name": "_amount",
          "type": "uint256"
        },
        {
          "internalType": "enum ICommon.PoolFlag",
          "name": "_priOrPub",
          "type": "uint8"
        },
        {
          "internalType": "string[]",
          "name": "_symbols",
          "type": "string[]"
        },
        {
          "internalType": "bytes[]",
          "name": "_prices",
          "type": "bytes[]"
        }
      ],
      "name": "withdraw",
      "outputs": [],
      "stateMutability": "payable",
      "type": "function"
    }
  ],
  "bytecode": "0x6080806040523460155761463b908161001a8239f35b5f80fdfe60806040526004361015610019575b3461001557005b5f80fd5b5f5f3560e01c8063017364e81461190957806302996994146118245780630c8c3516146117915780631f92a4da14611774578063249a6ee7146112ea578063273cbaa0146112765780632c86d98e1461125957806336ff6a701461122f5780633b3de031146111d85780634e091b22146111a75780635a92c628146111295780635baf45fb1461069c57806360d32e8d14610f71578063669e01ee14610f57578063715018a614610ec0578063859d90a314610d5557806389f00b6d14610d385780638da5cb5b14610cf35780639409b02914610cb2578063ba0efe0314610c95578063c0a1483114610c53578063c23e629f14610a38578063c4d66de814610795578063d5e008d2146106ef578063d7496060146106a1578063dc8d601c1461069c578063f26a3e1d14610315578063f2da708d146102f7578063f2fde38b146102ca5763f74c30491461016e575061000e565b346102c75760c06003193601126102c757610187611921565b61018f611937565b90604435906001600160a01b03821680920361001557606435916001600160a01b03831680930361001557608435916001600160a01b0383168093036100155760a435946001600160a01b038616809603610015576001600160a01b0380926101f661321c565b16806001600160a01b031960065416176006558752600e60205260408720600160ff1982541617905516806001600160a01b031960075416176007558552600e60205260408520600160ff19825416179055806001600160a01b031960085416176008558452600e60205260408420600160ff19825416179055806001600160a01b031960095416176009558352600e60205260408320600160ff198254161790558252600e60205260408220600160ff198254161790558152600e60205260408120600160ff1982541617905580f35b80fd5b50346102c75760206003193601126102c7576102f46102e7611921565b6102ef61321c565b612928565b80f35b50346102c757806003193601126102c7576020601254604051908152f35b50346102c75760e06003193601126102c757600435906024359060ff82168092036102c75760c43580151580910361001557338252600e60205261035f60ff60408420541661240d565b838252601860205260408220545f198101908111610688576001600160a01b03600261038a8361247e565b50015416936001600160a01b0360016103a28461247e565b50015416918285526010602052604085206001600160a01b0387165f526020527f55a05fded01868e623bc311ab3e73d3cec2f0871392b36317648452d989ed1ce61010060405f206040516103f68161197e565b6001600160a01b03825416815260018201549182602083015260028101549182604082015260038201549081606082015261012060ff6008600486015495866080860152600581015460a0860152600681015460c0860152600781015460e0860152015481811615158985015260081c161515910152888b52600f60205260408b206001600160a01b038d165f5260205260405f205492604051948a86528d602087015260408601526060850152608084015260a083015260c0820152600a60e0820152a1604051926101a084019184831067ffffffffffffffff841117610674576080987f55a05fded01868e623bc311ab3e73d3cec2f0871392b36317648452d989ed1ce9461010094604052888752602087019789895260408801526060870152828a87015260a086015260c085015260443560e08501526064358285015260843561012085015260a4356101408501526101608401968688526101808501978789526105648661327b565b5197519451151595511515968281526010602052604081206001600160a01b0383165f5260205260405f20906040519061059d8261197e565b6001600160a01b03835416825260018301548060208401526040600285015492838286015260038601549485606082015261012060ff600860048a01549960808b90860152600581015460a0860152600681015460c0860152600781015460e0860152015481811615158d85015260081c161515910152878152600f602052206001600160a01b0386165f5260205260405f2054946040519687526020870152604086015260608501528a84015260a083015260c0820152601460e0820152a1604051938452602084015260408301526060820152f35b634e487b7160e01b5f52604160045260245ffd5b602483634e487b7160e01b81526011600452fd5b611be9565b50346102c75760406003193601126102c7576001600160a01b0360406106c5611921565b92826106cf611937565b94168152600f6020522091165f52602052602060405f2054604051908152f35b50346102c75760406003193601126102c757610709611921565b6001600160a01b03610719611937565b9116825260116020526001600160a01b036040832091165f5260205260405f20604051918260208354918281520192825260208220915b81811061077f5761077b856107678187038261199b565b604051918291602083526020830190611c9a565b0390f35b8254845260209093019260019283019201610750565b34610015576020600319360112610015576107ae611921565b7ff0c57e16840df040f15088dc2f81fe391c3923bec73e23a9662efc9c229c6a005460ff8160401c16159167ffffffffffffffff821680159081610a30575b6001149081610a26575b159081610a1d575b506109f557818360017fffffffffffffffffffffffffffffffffffffffffffffffff00000000000000006001600160a01b039516177ff0c57e16840df040f15088dc2f81fe391c3923bec73e23a9662efc9c229c6a00556109a0575b5061086461398c565b61086c61398c565b61087533612928565b166001600160a01b03196005541617600555306001600160a01b03196014541617601455305f52600e60205260405f20600160ff19825416179055335f52600e60205260405f20600160ff19825416179055600160ff195f5416175f55670de0b6b3a7640000600155670de0b6b3a7640000601555600a60025567016345785d8a000060035567016345785d8a000060045561090d57005b7fffffffffffffffffffffffffffffffffffffffffffffff00ffffffffffffffff7ff0c57e16840df040f15088dc2f81fe391c3923bec73e23a9662efc9c229c6a0054167ff0c57e16840df040f15088dc2f81fe391c3923bec73e23a9662efc9c229c6a00557fc7f505b2f371ae2175ee4913f4499e1f2633a7b5936321eed1cdaeb6115181d2602060405160018152a1005b7fffffffffffffffffffffffffffffffffffffffffffffff0000000000000000001668010000000000000001177ff0c57e16840df040f15088dc2f81fe391c3923bec73e23a9662efc9c229c6a00558361085b565b7ff92ee8a9000000000000000000000000000000000000000000000000000000005f5260045ffd5b905015846107ff565b303b1591506107f7565b8491506107ed565b3461001557604060031936011261001557602435600435610a588161247e565b5060018101906001600160a01b038254165f52601060205260405f206001600160a01b0333165f5260205260405f209160028201336001600160a01b0382541603610c0f576002840193845491878310610bcb5760ff600686015460081c166006811015610bb75760018114908115610bac575b5015610b685760076001600160a01b039560038a947fc8f742aa90a6e6851d2252fa58ed695d3ca295b55bf5f1c2164a360cc8a093e299610b1087610b3c99611d49565b905501610b1e858254611d6a565b905501610b2c838254611d6a565b9055848085541691541690612ce8565b5416926007610b4a8461247e565b500154604080519485526020850192909252908301523391606090a3005b606460405162461bcd60e51b815260206004820152601660248201527f4c6971756964697479207374617475732077726f6e67000000000000000000006044820152fd5b600291501489610acc565b634e487b7160e01b5f52602160045260245ffd5b606460405162461bcd60e51b815260206004820152601060248201527f45786365656420617661696c61626c65000000000000000000000000000000006044820152fd5b606460405162461bcd60e51b815260206004820152600960248201527f4e6f74206d616b657200000000000000000000000000000000000000000000006044820152fd5b34610015576020600319360112610015576001600160a01b03610c74611921565b165f526013602052602060ff60405f205416610c936040518092611c8d565bf35b34610015575f600319360112610015576020600354604051908152f35b34610015576001600160a01b03610cc836611bba565b91165f52601660205260405f20906004811015610bb7575f52602052602060405f2054604051908152f35b34610015575f6003193601126100155760206001600160a01b037f9016d09d72d40fdae2fd8ceac6b6234c7706214fd39c1cd1e609a0528c1993005416604051908152f35b34610015575f600319360112610015576020600454604051908152f35b3461001557604060031936011261001557610d6e611921565b6001600160a01b03610d7e611937565b915f610120604051610d8f8161197e565b8281528260208201528260408201528260608201528260808201528260a08201528260c08201528260e0820152826101008201520152165f5260106020526001600160a01b0360405f2091165f5260205261014060405f2060405190610df48261197e565b6001600160a01b03815416918281526001820154916020820192835260028101546040830190815260038201546060840190815260048301546080850190815260058401549160a0860192835260068501549360c08701948552600860078701549660e0890197885201549760ff6101206101008a0199828c1615158b52019960081c1615158952604051998a525160208a01525160408901525160608801525160808701525160a08601525160c08501525160e0840152511515610100830152511515610120820152f35b34610015575f60031936011261001557610ed861321c565b5f6001600160a01b037f9016d09d72d40fdae2fd8ceac6b6234c7706214fd39c1cd1e609a0528c199300546001600160a01b031981167f9016d09d72d40fdae2fd8ceac6b6234c7706214fd39c1cd1e609a0528c19930055167f8be0079c531659141344cd1fd0a4f28419497f9722a3daafe3b4186f6b6457e08280a3005b610f6f610f6336611a46565b949390939291926125bb565b005b34610015576020600319360112610015575f610140604051610f9281611961565b606081528260208201528260408201528260608201528260808201528260a08201528260c08201528260e082015282610100820152826101208201520152610fdb60043561247e565b5060405190610fe982611961565b610ff2816124d2565b82526001600160a01b03600182015416602083019081526001600160a01b036002830154166040840190815260038301549260608501938452600481015460808601908152600582015460a0870190815260068301549060ff821660c08901926003821015610bb75760ff91845260081c169260e08901936006811015610bb75784526007850154976101008a019889526008860154956101208b0196875260090154966101408b019788526040519a60208c525160208c0161016090526101808c016110be91611c5b565b98516001600160a01b031660408c0152516001600160a01b031660608b01525160808a01525160a08901525160c08801525160e087016110fd91611c80565b51936006851015610bb75785946101008601525161012085015251610140840152516101608301520390f35b34610015576020600319360112610015576001600160a01b0361114a611921565b165f52600c60205260405f206040519081602082549182815201915f5260205f20905f5b8181106111915761077b856111858187038261199b565b60405191829182611b78565b825484526020909301926001928301920161116e565b3461001557602060031936011261001557335f52600e6020526111d060ff60405f20541661240d565b600435601555005b34610015576001600160a01b036111ee36611bba565b9190335f52600e60205261120860ff60405f20541661240d565b165f52601360205260405f20906004811015610bb75760ff60ff1983541691161790555f80f35b34610015576020600319360112610015576004355f526018602052602060405f2054604051908152f35b34610015575f600319360112610015576020600254604051908152f35b34610015575f60031936011261001557604051806020600a54918281520190600a5f527fc65a7bb8d6351c1cf70c95a316cc6a92839c986682d98bc35f958f4883f9d2a8905f5b8181106112d45761077b856111858187038261199b565b82548452602090930192600192830192016112bd565b346100155760206003193601126100155760043567ffffffffffffffff8111610015576101606003198236030112610015576040519061132982611961565b806004013567ffffffffffffffff81116100155761134d9060043691840101611a28565b825261135b6024820161194d565b602083015261136c6044820161194d565b6040830152606481013560608301526084810135608083015260a481013560a083015260c481013560038110156100155760c083015260e4810135906006821015610015576101449160e08401526101048101356101008401526101248101356101208401520135610140820152335f52600e6020526113f260ff60405f20541661240d565b61140761010082015161012083015190611d6a565b61142d816001600160a01b036020850151166001600160a01b0360408601511690612ce8565b601254906001600160a01b036020840151165f52601160205260405f206001600160a01b0380604086015116165f5260205261146c8260405f20612e57565b506012546801000000000000000081101561067457806001611491920160125561247e565b61176157835180519067ffffffffffffffff82116106745781906114b5845461249a565b601f8111611714575b50602090601f83116001146116ad575f926116a2575b50508160011b915f199060031b1c19161781555b6001600160a01b036020850151166001600160a01b036001830191166001600160a01b03198254161790556001600160a01b036040850151166001600160a01b036002830191166001600160a01b0319825416179055606084015160038201556080840151600482015560a084015160058201556006810160c08501516003811015610bb75760ff60ff19835416911617815560e08501516006811015610bb75761ff001961ff0083549260081b16911617905561010084015160078201556101208401516008820155600961014085015191015560125460608401515f52601860205260405f20556001600160a01b036020840151165f52601060205260405f206001600160a01b0380604086015116165f52602052611639600260405f2060038101611617858254611d6a565b90556004810161162e815461012089015190611d6a565b905501918254611d49565b90556001600160a01b036040830151166001600160a01b036014541614611666575b602090604051908152f35b6001600160a01b0360208301511682519060c0840151936003851015610bb75760209461169d9360a0608084015193015193612f86565b61165b565b0151905086806114d4565b9250835f52805f20905f935b601f19841685106116f9576001945083601f198116106116e1575b505050811b0181556114e8565b01515f1960f88460031b161c191690558680806116d4565b818101518355602094850194600190930192909101906116b9565b909150835f5260205f20601f840160051c81016020851061175a575b90849392915b601f830160051c8201811061174c5750506114be565b5f8155859450600101611736565b5080611730565b634e487b7160e01b5f525f60045260245ffd5b34610015575f600319360112610015576020601554604051908152f35b34610015576060600319360112610015576117aa611921565b60243567ffffffffffffffff81116100155760206117cd81923690600401611a28565b6001600160a01b0360443594165f526017825260405f20604051938285935191829101845e82019081520301902060028210156100155760409161181091611b51565b506001815491015482519182526020820152f35b346100155760806003193601126100155761183d611921565b60243590604435801515810361001557606435918215158303610015576001600160a01b03165f52601060205260405f206001600160a01b0333165f5260205260405f20606484116118c557600881610f6f9560056118b39401550191829061ff001961ff00835492151560081b169116179055565b9060ff60ff1983541691151516179055565b606460405162461bcd60e51b815260206004820152600c60248201527f6f7574206f6620302d31303000000000000000000000000000000000000000006044820152fd5b610f6f61191536611a46565b94939093929192611d97565b600435906001600160a01b038216820361001557565b602435906001600160a01b038216820361001557565b35906001600160a01b038216820361001557565b610160810190811067ffffffffffffffff82111761067457604052565b610140810190811067ffffffffffffffff82111761067457604052565b90601f601f19910116810190811067ffffffffffffffff82111761067457604052565b67ffffffffffffffff81116106745760051b60200190565b67ffffffffffffffff811161067457601f01601f191660200190565b9291926119fe826119d6565b91611a0c604051938461199b565b829481845281830111610015578281602093845f960137010152565b9080601f8301121561001557816020611a43933591016119f2565b90565b9060a0600319830112610015576004356001600160a01b03811681036100155791602435916044356004811015610015579160643567ffffffffffffffff81116100155781602382011215610015578060040135611aa3816119be565b91611ab1604051938461199b565b8183526024602084019260051b820101918483116100155760248201905b838210611b2257505050509160843567ffffffffffffffff811161001557826023820112156100155780600401359267ffffffffffffffff84116100155760248460051b83010111610015576024019190565b813567ffffffffffffffff811161001557602091611b468860248594880101611a28565b815201910190611acf565b906002811015611b645760011b01905f90565b634e487b7160e01b5f52603260045260245ffd5b60206040818301928281528451809452019201905f5b818110611b9b5750505090565b82516001600160a01b0316845260209384019390920191600101611b8e565b6003196040910112610015576004356001600160a01b0381168103610015579060243560048110156100155790565b34610015576020600319360112610015576001600160a01b03611c0a611921565b165f52600d60205260405f206040519081602082549182815201915f5260205f20905f5b818110611c455761077b856111858187038261199b565b8254845260209093019260019283019201611c2e565b90601f19601f602080948051918291828752018686015e5f8582860101520116010190565b906003821015610bb75752565b906004821015610bb75752565b90602080835192838152019201905f5b818110611cb75750505090565b8251845260209384019390920191600101611caa565b929192611cd9826119be565b93611ce7604051958661199b565b602085848152019260051b8201918183116100155780935b838510611d0d575050505050565b843567ffffffffffffffff811161001557820183601f8201121561001557602091611d3e85838580953591016119f2565b815201940193611cff565b91908203918211611d5657565b634e487b7160e01b5f52601160045260245ffd5b91908201809211611d5657565b604090611d9593959492956060820196825260208201520190611c8d565b565b9290936001600160a01b03841695865f52601360205260ff60405f2054166004811015610bb7571580156123e3575b1561239f57611de091611dda913691611ccd565b82612a3b565b906004831015610bb7576001830361207657855f52600f60205260405f206001600160a01b0333165f5260205260405f2054851161203257855f52600f60205260405f206001600160a01b0333165f5260205260405f20611e42868254611d49565b9055855f52600f60205260405f206001600160a01b038060145416165f5260205260405f20611e72868254611d49565b9055855f52600f60205260405f206001600160a01b0333165f5260205260405f205460155411611f96575b611eae611ebd92611eb49286613819565b856128f7565b6001549061290a565b92845f52601060205260405f206001600160a01b038060145416165f5260205260405f20926002840193845491828711611f52577fe3f01f60e44135eef0110076e0ac4ed71eb05f55d66bac78629ddec52a56209a95611f3288611f3c956001829601611f2b838254611d49565b9055611d49565b90555b3390612be6565b611f4d604051928392339684611d77565b0390a3565b606460405162461bcd60e51b815260206004820152601c60248201527f776974686472617720616d6f756e7420697320746f6f206c61726765000000006044820152fd5b93611eae611ebd92611fcb611eb493895f52600f60205260405f206001600160a01b0333165f5260205260405f205490611d6a565b5f898152600f60209081526040808320338452909152808220546014546001600160a01b0316835291208054929992909161200591611d49565b9055885f52600f60205260405f206001600160a01b0333165f526020525f60408120559250925050611e9d565b606460405162461bcd60e51b815260206004820152601260248201527f736861726520697320746f6f206c6172676500000000000000000000000000006044820152fd5b50919291506002810361239957835f52601060205260405f206001600160a01b0333165f5260205260405f2091604051926120b08461197e565b6001600160a01b0381541684526001810154906020850191825260028101549060408601828152600382015493606088019485526004830154976080810198895260058401549360a08201948552600681015460c08301908152600860078301549260e0850193845201549561010084019760ff88161515895260ff61012086019860081c16151588528a116123555761214b8a8651611d49565b85526121588a8751611d49565b86528851158061234b575b8061233f575b612329575b84518061221657505050505050505050507fe3f01f60e44135eef0110076e0ac4ed71eb05f55d66bac78629ddec52a56209a9250845f52600d6020526121b73360405f20613754565b50845f52601060205260405f206001600160a01b0333165f526020525f60086040822082815582600182015582600282015582600382015582600482015582600582015582600682015582600782015501555b92611f3c845f92611f35565b601554116122e5577fe3f01f60e44135eef0110076e0ac4ed71eb05f55d66bac78629ddec52a56209a9b6122e0998f976008976122c9995f52601060205260405f206001600160a01b0333165f526020526001600160a01b038060405f20995116166001600160a01b03198954161788555160018801555160028701555160038601555160048501555160058401555160068301555160078201550192511515839060ff60ff1983541691151516179055565b51815461ff00191690151560081b61ff0016179055565b61220a565b606460405162461bcd60e51b815260206004820152601860248201527f7374617920616d6f756e7420697320746f6f20736d616c6c00000000000000006044820152fd5b9861233690855190611d6a565b985f855261216e565b50845160155411612169565b5084511515612163565b606460405162461bcd60e51b815260206004820152601360248201527f616d6f756e7420697320746f6f206c61726765000000000000000000000000006044820152fd5b50505050565b606460405162461bcd60e51b815260206004820152601360248201527f77726f6e6720776974686472617720666c6167000000000000000000000000006044820152fd5b50865f52601360205260ff60405f2054166004851015610bb7576004811015610bb7578414611dc6565b1561241457565b608460405162461bcd60e51b815260206004820152602160248201527f63616c6c6572206973206e6f74207072697661746520706f6f6c206b6565706560448201527f72000000000000000000000000000000000000000000000000000000000000006064820152fd5b601254811015611b645760125f52600a60205f20910201905f90565b90600182811c921680156124c8575b60208310146124b457565b634e487b7160e01b5f52602260045260245ffd5b91607f16916124a9565b9060405191825f8254926124e58461249a565b808452936001811690811561254e575060011461250a575b50611d959250038361199b565b90505f9291925260205f20905f915b818310612532575050906020611d95928201015f6124fd565b6020919350806001915483858901015201910190918492612519565b60209350611d9595925060ff1991501682840152151560051b8201015f6124fd565b1561257757565b606460405162461bcd60e51b815260206004820152600960248201527f746f6f20736d616c6c00000000000000000000000000000000000000000000006044820152fd5b929390935f916001600160a01b03851696875f52601360205260ff60405f2054166004811015610bb7571580156128cd575b156128895761260191611dda913691611ccd565b9161260e863033886130ec565b6004841015610bb757600184036127a5575092612680612686927f8f482ec08235be52bb3abe471d37e58a4a0e31a05eb148064c014f71caa7e5f795612658600154891015612570565b885f52600c60205261266d3360405f20613934565b5061267a600154896128f7565b93613819565b9061290a565b845f52601060205260405f206001600160a01b038060145416165f5260205260405f20600181016126b8868254611d6a565b9055600281016126c9868254611d6a565b9055855f52600f60205260405f206001600160a01b038060145416165f5260205260405f206126f9838254611d6a565b9055855f52600f60205260405f206001600160a01b0333165f5260205260405f20612725838254611d6a565b90556001600160a01b038154161561276c575b505b845f52600b60205260405f20541561275d57611f4d604051928392339684611d77565b612766856138da565b50611f3c565b60088101600160ff19825416179055600a60058201556001600160a01b038060145416166001600160a01b03198254161790555f612738565b9350505060028103612399577f8f482ec08235be52bb3abe471d37e58a4a0e31a05eb148064c014f71caa7e5f7916127e1601554851015612570565b845f52601060205260405f206001600160a01b0333165f52602052600260405f20865f52600d6020526128253360405f206001915f520160205260405f2054151590565b1561284f575b6001810161283a878254611d6a565b905501612848858254611d6a565b905561273a565b865f52600d6020526128643360405f20613934565b5060088101805460ff1916600117905580546001600160a01b0319163317815561282b565b606460405162461bcd60e51b815260206004820152601260248201527f77726f6e67206465706f73697420666c616700000000000000000000000000006044820152fd5b50875f52601360205260ff60405f2054166004861015610bb7576004811015610bb75785146125ed565b81810292918115918404141715611d5657565b8115612914570490565b634e487b7160e01b5f52601260045260245ffd5b6001600160a01b031680156129b7576001600160a01b037f9016d09d72d40fdae2fd8ceac6b6234c7706214fd39c1cd1e609a0528c19930054826001600160a01b03198216177f9016d09d72d40fdae2fd8ceac6b6234c7706214fd39c1cd1e609a0528c19930055167f8be0079c531659141344cd1fd0a4f28419497f9722a3daafe3b4186f6b6457e05f80a3565b7f1e4fbdf7000000000000000000000000000000000000000000000000000000005f525f60045260245ffd5b9080602083519182815201916020808360051b8301019401925f915b838310612a0e57505050505090565b9091929394602080612a2c83601f1986600196030187528951611c5b565b970193019301919392906129ff565b90612a87916001600160a01b0360065416916040519384927fb5c926f40000000000000000000000000000000000000000000000000000000084526040600485015260448401906129e3565b600319838203016024840152815180825260208201916020808360051b8301019401925f915b838310612b6e5750505050509181805f94039134905af1908115612b63575f91612ad5575090565b90503d805f833e612ae6818361199b565b8101906020818303126100155780519067ffffffffffffffff821161001557019080601f83011215610015578151612b1d816119be565b92612b2b604051948561199b565b81845260208085019260051b82010192831161001557602001905b828210612b535750505090565b8151815260209182019101612b46565b6040513d5f823e3d90fd5b919395509193602080612b8d83601f1986600196030187528951611c5b565b97019301930190928795949293612aad565b3d15612bc9573d90612bb0826119d6565b91612bbe604051938461199b565b82523d5f602084013e565b606090565b90816020910312610015575180151581036100155790565b91611eb4612c0591612bff612bfa86613d73565b6138cc565b906128f7565b9182612c1057505050565b5f928380937fffffffff0000000000000000000000000000000000000000000000000000000060196020604051612c4860408261199b565b828152017f7472616e7366657228616464726573732c75696e74323536290000000000000081522016926001600160a01b036040519260208401958652166024830152604482015260448152612c9f60648261199b565b51925af1612cab612b9f565b81612cb9575b501561001557565b8051801592508215612cce575b50505f612cb1565b612ce19250602080918301019101612bce565b5f80612cc6565b906001600160a01b0380601454169116145f14612d44576001600160a01b03612d2a911691825f52601660205260405f2060015f5260205260405f2054611d6a565b905f52601660205260405f2060015f5260205260405f2055565b6001600160a01b03612d6f911691825f52601660205260405f2060025f5260205260405f2054611d6a565b905f52601660205260405f2060025f5260205260405f2055565b905f906001600160a01b0380601454169116145f14612e16578015612dea57612dd36001600160a01b036040931693848352601660205283832060015f52602052835f2054611d6a565b92815260166020522060015f5260205260405f2055565b506001600160a01b03612d2a911691825f52601660205260405f2060015f5260205260405f2054611d49565b506001600160a01b03612d6f911691825f52601660205260405f2060025f5260205260405f2054611d49565b8054821015611b64575f5260205f2001905f90565b906001820191815f528260205260ff60405f205416612f7f575f908054805b808410612f3e57506801000000000000000081101561067457612eb9612ea3826001879401855584612e42565b819391549060031b91821b915f19901b19161790565b905580545f198101908111611d5657908392915b828111612efd5750612ee291612ea391612e42565b90555f5260205260405f20600160ff19825416179055600190565b919250905f198101818111611d5657612f169083612e42565b90549060031b1c612f2a612ea38385612e42565b90558015611d5657839291905f1901612ecd565b92612f498482611d6a565b60011c9085612f588386612e42565b90549060031b1c105f14612f78575060018101809111611d565792612e76565b9350612e76565b5050505f90565b6020916001600160a01b038392969596165f526017825260405f20604051938285935191829101845e820190815203019020906003811015610bb75760ff5f199116019160ff8311611d5657613002612ffa612ff2612fea61300d96600196611b51565b5093876128f7565b84549061290a565b825490611d6a565b815501918254611d6a565b9055565b602092939450906001600160a01b038392165f526017825260405f20604051938285935191829101845e820190815203019020906003811015610bb75760ff5f1991160160ff8111611d565761306691611b51565b50600181019182548082116130a857808203613086575050905f80925555565b82611f2b61300d94546130a28461309d87846128f7565b61290a565b90611d49565b606460405162461bcd60e51b815260206004820152601c60248201527f736861726520616d6f756e7420697320696e73756666696369656e74000000006044820152fd5b909192611eb461310291612bff612bfa85613d73565b928361310e5750505050565b5f80949381946001600160a01b037fffffffff00000000000000000000000000000000000000000000000000000000602560405161314d60608261199b565b8181527f7432353629000000000000000000000000000000000000000000000000000000604060208301927f7472616e7366657246726f6d28616464726573732c616464726573732c75696e845201522016948160405194602086019788521660248501521660448301526064820152606481526131cc60848261199b565b51925af16131d8612b9f565b816131ed575b5015610015575f808080612399565b8051801592508215613202575b50505f6131de565b6132159250602080918301019101612bce565b5f806131fa565b6001600160a01b037f9016d09d72d40fdae2fd8ceac6b6234c7706214fd39c1cd1e609a0528c1993005416330361324f57565b7f118cdaa7000000000000000000000000000000000000000000000000000000005f523360045260245ffd5b60c08101613289815161247e565b509060018201906001600160a01b03825416805f52601060205260405f209060028501906001600160a01b03825416926001600160a01b0384165f5260205260405f20906060880193600160ff865116145f146134205750506132ed9086886139e3565b613418577f181dbc3ad559b63759679084b2e0d8268b879a2556fb002571b357ce36b991619561016095610120820151946002948615613408575b5160ff166133d5576001600160a01b038454166001600160a01b0360145416145f146133cc5760ff60035b16955b6133a360ff60066001600160a01b038060038801549c5416985416950154166101408601519351946101808c880151970151976040519b8c5260208c015260408b015260608a0190611c80565b608088015260a087015260c086015260e0850152610100840152610120830152610140820152a1565b60ff6001613353565b6001600160a01b038454166001600160a01b0360145416145f146133ff5760ff60025b1695613356565b60ff60046133f8565b6004830154965060019550613328565b505050505050565b9195509392506001600160a01b03601497969297541614613715575b6101208501805161367f5750946001600160a01b036134a36134e09388600661349d9a0161030061ff001982541617905560086007820154910154998a92885f52601160205260405f208680895416165f5260205260405f20905190613dff565b50611d6a565b9160028601976134b4848a54611d6a565b8955600387016134c5858254611d49565b90556134d660048801918254611d49565b9055541683612d89565b60e08301805190919015613606578151610180850190808252865481115f146135ba575084935f9360019793889360406020990151613535575b5050500161352b8154835490611d49565b9055558281520152565b61358861359c935161354988548092611d49565b9061355385613ee0565b8083116135a4575b5050613575816001600160a01b03600554163090876130ec565b306001600160a01b036005541685614035565b6001600160a01b0360065416905191612be6565b5f808061351a565b6135b19192508092611d6a565b83525f8061355b565b9050604061300d9594939401516135e9575b50506135df600183519201918254611d49565b9055518254611d49565b6135ff916001600160a01b036006541690612be6565b5f806135cc565b929390506101008401918251908161362057505050505050565b610160946001926040880151613661575b5050016136418154845190611d6a565b90556136508154835190611d6a565b9055519101525f8080808080613418565b613678916001600160a01b036006541630916130ec565b5f80613631565b91509460068601805461ff001916610200179055600786019586549280516136a790856128f7565b6004830191825491826136b99161290a565b956008879501908154908484516136d090846128f7565b906136da9161290a565b9c6136e78e9a8b93611d49565b90556136f291611d49565b9055516136fe91611d49565b90556134a36134e0936001600160a01b0392611d6a565b6101208501518015613749575b6137449060ff6006840154169060058401549161373e856124d2565b87613011565b61343c565b506004810154613722565b906001820191815f528260205260405f20548015155f14613811575f198101818111611d565782545f19810191908211611d56578181036137dc575b505050805480156137c8575f1901906137a98282612e42565b8154905f199060031b1b19169055555f526020525f6040812055600190565b634e487b7160e01b5f52603160045260245ffd5b6137fc6137ec612ea39386612e42565b90549060031b1c92839286612e42565b90555f528360205260405f20555f8080613790565b505050505f90565b90613876926001600160a01b03602093613888826009541693604051978896879586957f70bcbca20000000000000000000000000000000000000000000000000000000087521660048601526060602486015260648501906129e3565b90600319848303016044850152611c9a565b03915afa908115612b63575f9161389d575090565b90506020813d6020116138c4575b816138b86020938361199b565b81010312610015575190565b3d91506138ab565b604d8111611d5657600a0a90565b805f52600b60205260405f2054155f1461392f57600a546801000000000000000081101561067457613918612ea3826001859401600a55600a612e42565b9055600a54905f52600b60205260405f2055600190565b505f90565b5f82815260018201602052604090205461398657805490680100000000000000008210156106745782613971612ea3846001809601855584612e42565b90558054925f520160205260405f2055600190565b50505f90565b60ff7ff0c57e16840df040f15088dc2f81fe391c3923bec73e23a9662efc9c229c6a005460401c16156139bb57565b7fd7e6bcf8000000000000000000000000000000000000000000000000000000005f5260045ffd5b916001600160a01b03600183015416926001600160a01b03600284015416936007840194855490613a1a6008870192835490611d6a565b956002860197613a2b888a54611d6a565b93848a556003880190613a3f8a8354611d49565b8255613a5360048a01918254905490611d49565b905560e08701908151906101808901968288528083115f14613c2757505050613ac4915051613a848a548092611d49565b90613a8e87613ee0565b90818311613c11575b5050613ab1816001600160a01b03600554163090896130ec565b306001600160a01b036005541687614035565b60018601613ad581548a5490611d49565b90555f8855600160208601525b613af3600184519701968754611d49565b8655613b0183518954611d49565b88557f261fffb4b79148ca99a0f130d50296a0a9bf6bee424973781ef0e8c4359b2512608060a08701516001600160a01b03828901511660c08901519060405192835260208301528560408301526060820152a182515f97808210613bf9575b5050613b799085613b73898651611d6a565b916140dd565b15613ba257505050509081613b9282613b9b9454611d49565b90558254611d49565b9055600190565b946135889192939560019786613bbc84613bf49954611d49565b9055613bc9838254611d49565b9055613be1826001600160a01b036005541687612be6565b6001600160a01b03600554169085614089565b525f90565b613b7992985090613c0991611d49565b96905f613b61565b81925090613c1e91611d6a565b85525f80613a97565b90919250613c3784548094611d49565b60088b015460ff81169081613d64575b5080613d5a575b613c5c575050505050613ae2565b7fc8f742aa90a6e6851d2252fa58ed695d3ca295b55bf5f1c2164a360cc8a093e29a50613d47975091613d2694989c6003979c92613d1f9594613cc8613cbb613cb3613cec9f61014060048e0154910151906128f7565b8c54906128f7565b61309d600154809261290a565b9082613cd48383611d6a565b11613d4f57613ce39250611d6a565b9a8b8095611d6a565b8a55613d0284613cfd858454611d49565b611d49565b9055613d1883613d13848454611d6a565b611d6a565b9055611d6a565b888a612ce8565b01549154604051938493846040919493926060820195825260208201520152565b0390a3600190565b50509a8b8095611d6a565b5081811115613c4e565b60ff915060081c16155f613c47565b60206001600160a01b03916004604051809481937f313ce567000000000000000000000000000000000000000000000000000000008352165afa8015612b63575f90613dc2575b60ff91501690565b506020813d602011613df7575b81613ddc6020938361199b565b81010312610015575160ff811681036100155760ff90613dba565b3d9150613dcf565b9060018201815f528060205260ff60405f20541615612f7f578254905f5b828110613e2d5750505050505f90565b83613e388287612e42565b90549060031b1c14613e4c57600101613e1d565b93945f198301928311949093919290855b611d565781811015613e9e576001810190818111611d5657613e8160019289612e42565b90549060031b1c613e95612ea3838b612e42565b90550185613e5d565b50509193909250805480156137c8575f190190613ebb8282612e42565b8154905f199060031b1b19169055555f5260205260405f2060ff198154169055600190565b6001600160a01b0360055416906001600160a01b03811690604051917f70a08231000000000000000000000000000000000000000000000000000000008352836004840152602083602481845afa928315612b63575f93614001575b506020613f5b613f4f60015480966128f7565b612680612bfa86613d73565b946044604051809481937fdd62ed3e00000000000000000000000000000000000000000000000000000000835260048301523060248301525afa908115612b63575f91613fcd575b50612bfa613fb7613fbd94612680936128f7565b92613d73565b808211613fc8575090565b905090565b90506020813d602011613ff9575b81613fe86020938361199b565b810103126100155751612bfa613fa3565b3d9150613fdb565b9092506020813d60201161402d575b8161401d6020938361199b565b810103126100155751915f613f3c565b3d9150614010565b9192909281156123995760606001600160a01b0380807feb42cf637f927243245c50b4bf7fe105fe4f4d26209102240f2ba3d8e27a7df89460405196600988526020880152426040880152169616941692a4565b9192909281156123995760606001600160a01b0380807feb42cf637f927243245c50b4bf7fe105fe4f4d26209102240f2ba3d8e27a7df89460405196600888526020880152426040880152169616941692a4565b909160018201906001600160a01b038254165f52601160205260405f209060028401916001600160a01b0380845416165f5260205260405f209061412760c0870192835190613dff565b506001600160a01b038454166001600160a01b0384541692614160600888019283549561415a60078b0197885490611d6a565b91612d89565b6001600160a01b0386541697885f52601360205260ff60405f2054166004811015610bb75715806145fa575b806145db575b614206575b5050505050600693506001600160a01b039054166001600160a01b0360145416146141d0575b500161040061ff00198254161790555f90565b6001600160a01b0361420091541660ff84840154166004840154906005850154926141fa866124d2565b90613011565b5f6141bd565b6001600160a01b0360095416906001600160a01b0360145416998a92606060048c01936084610140865492019687519460405195869485937fd112d0e90000000000000000000000000000000000000000000000000000000085528960048601526024850152604484015260648301525afa928315612b63575f5f925f95614580575b506001600160a01b03166142a05750505050614197565b889c99889c979b99969a6142b786859b989b611d6a565b945f52601060205260405f20906001600160a01b03165f5260205260405f20946001860193878554906142e991611d6a565b855560028701978854906142fc91611d6a565b60038801978789549061430e91611d6a565b8955600401968388549061432191611d6a565b885561432c91611d49565b885588558c556014546001600160a01b03166001600160a01b031681546001600160a01b03191617815589546001600160a01b03166006890197885460ff16918a85546005820194855492614380906124d2565b61438994612f86565b8b546001600160a01b03165f52601160205260405f2083546001600160a01b03166001600160a01b03165f5260205260405f208d516143c791612e57565b508d8c546001600160a01b03169184546001600160a01b0316915490546143ed91611d6a565b906143f792612ce8565b5499546001600160a01b03169b8c91546001600160a01b031698600301549e8f93549b8d51915492549360405195865260208601528a60408601528c6060860152608085015260a084015260c083015260e08201526101008101600390526101207f2156f6f6f776548a0c2a805aee597ff49b812da0546e64c659347a40c8f3b6e491a15492549154905490895f52600f60205260405f206014546001600160a01b03166001600160a01b03165f5260205260405f205492604051948b865287602087015260408601526060850152608084015260a083015260c082015260e08101600390526101007f55a05fded01868e623bc311ab3e73d3cec2f0871392b36317648452d989ed1ce91a15460ff169151935194604051978852602088015260408701526060860161452991611c80565b608085015260a084015260c08301525f60e0830152610100820152600161012082015260056101408201527f181dbc3ad559b63759679084b2e0d8268b879a2556fb002571b357ce36b991619061016090a1600190565b94505090506060833d6060116145d3575b8161459e6060938361199b565b81010312610015578251906001600160a01b038216820361001557602084015160409094015193916001600160a01b03614289565b3d9150614591565b506001600160a01b038654166001600160a01b03601454161415614192565b5060ff5f541661418c56fea26469706673582212201e76a7a40bd0f95e0d39c031f0b44c705093bce3b4b71af052c800c46832bec364736f6c634300081c0033",
  "linkReferences": {},
  "deployedLinkReferences": {}
}