{
  "_format": "hh-sol-artifact-1",
  "contractName": "PrivatePool",
  "sourceName": "contracts/PrivatePool.sol",
  "abi": [
    {
      "inputs": [],
      "name": "InvalidInitialization",
      "type": "error"
    },
    {
      "inputs": [],
      "name": "NotInitializing",
      "type": "error"
    },
    {
      "inputs": [
        {
          "internalType": "address",
          "name": "owner",
          "type": "address"
        }
      ],
      "name": "OwnableInvalidOwner",
      "type": "error"
    },
    {
      "inputs": [
        {
          "internalType": "address",
          "name": "account",
          "type": "address"
        }
      ],
      "name": "OwnableUnauthorizedAccount",
      "type": "error"
    },
    {
      "anonymous": false,
      "inputs": [
        {
          "indexed": false,
          "internalType": "address",
          "name": "token",
          "type": "address"
        },
        {
          "indexed": false,
          "internalType": "address",
          "name": "holder",
          "type": "address"
        },
        {
          "indexed": false,
          "internalType": "string",
          "name": "name",
          "type": "string"
        },
        {
          "indexed": false,
          "internalType": "enum ICommon.Direct",
          "name": "direct",
          "type": "uint8"
        },
        {
          "indexed": false,
          "internalType": "uint256",
          "name": "value",
          "type": "uint256"
        },
        {
          "indexed": false,
          "internalType": "uint256",
          "name": "size",
          "type": "uint256"
        },
        {
          "indexed": false,
          "internalType": "uint256",
          "name": "margin",
          "type": "uint256"
        },
        {
          "indexed": false,
          "internalType": "uint256",
          "name": "freeze",
          "type": "uint256"
        }
      ],
      "name": "AccountPosition",
      "type": "event"
    },
    {
      "anonymous": false,
      "inputs": [
        {
          "indexed": true,
          "internalType": "address",
          "name": "maker",
          "type": "address"
        },
        {
          "indexed": true,
          "internalType": "address",
          "name": "token",
          "type": "address"
        },
        {
          "indexed": false,
          "internalType": "uint256",
          "name": "makerDealId",
          "type": "uint256"
        },
        {
          "indexed": false,
          "internalType": "uint256",
          "name": "amount",
          "type": "uint256"
        },
        {
          "indexed": false,
          "internalType": "uint256",
          "name": "margin",
          "type": "uint256"
        }
      ],
      "name": "AddMargin",
      "type": "event"
    },
    {
      "anonymous": false,
      "inputs": [
        {
          "indexed": false,
          "internalType": "address",
          "name": "token",
          "type": "address"
        },
        {
          "indexed": false,
          "internalType": "address",
          "name": "maker",
          "type": "address"
        },
        {
          "indexed": false,
          "internalType": "uint256",
          "name": "amount",
          "type": "uint256"
        },
        {
          "indexed": false,
          "internalType": "uint256",
          "name": "availableAmount",
          "type": "uint256"
        },
        {
          "indexed": false,
          "internalType": "uint256",
          "name": "lockedAmount",
          "type": "uint256"
        },
        {
          "indexed": false,
          "internalType": "uint256",
          "name": "maintenanceMargin",
          "type": "uint256"
        },
        {
          "indexed": false,
          "internalType": "uint256",
          "name": "share",
          "type": "uint256"
        },
        {
          "indexed": false,
          "internalType": "uint256",
          "name": "flag",
          "type": "uint256"
        }
      ],
      "name": "BalanceOfMaker",
      "type": "event"
    },
    {
      "anonymous": false,
      "inputs": [
        {
          "indexed": false,
          "internalType": "uint256",
          "name": "dealID",
          "type": "uint256"
        },
        {
          "indexed": false,
          "internalType": "address",
          "name": "token",
          "type": "address"
        },
        {
          "indexed": false,
          "internalType": "address",
          "name": "maker",
          "type": "address"
        },
        {
          "indexed": false,
          "internalType": "enum ICommon.Direct",
          "name": "direct",
          "type": "uint8"
        },
        {
          "indexed": false,
          "internalType": "uint256",
          "name": "size",
          "type": "uint256"
        },
        {
          "indexed": false,
          "internalType": "uint256",
          "name": "price",
          "type": "uint256"
        },
        {
          "indexed": false,
          "internalType": "uint256",
          "name": "makerID",
          "type": "uint256"
        },
        {
          "indexed": false,
          "internalType": "uint256",
          "name": "makerGain",
          "type": "uint256"
        },
        {
          "indexed": false,
          "internalType": "uint256",
          "name": "makerLoss",
          "type": "uint256"
        },
        {
          "indexed": false,
          "internalType": "uint256",
          "name": "closeFlag",
          "type": "uint256"
        },
        {
          "indexed": false,
          "internalType": "uint256",
          "name": "closeType",
          "type": "uint256"
        }
      ],
      "name": "ClosedMakerDeal",
      "type": "event"
    },
    {
      "anonymous": false,
      "inputs": [
        {
          "indexed": false,
          "internalType": "uint64",
          "name": "version",
          "type": "uint64"
        }
      ],
      "name": "Initialized",
      "type": "event"
    },
    {
      "anonymous": false,
      "inputs": [
        {
          "indexed": false,
          "internalType": "address",
          "name": "token",
          "type": "address"
        },
        {
          "indexed": false,
          "internalType": "address",
          "name": "taker",
          "type": "address"
        }
      ],
      "name": "LiquidateTaker",
      "type": "event"
    },
    {
      "anonymous": false,
      "inputs": [
        {
          "indexed": false,
          "internalType": "uint256",
          "name": "dealID",
          "type": "uint256"
        },
        {
          "indexed": false,
          "internalType": "address",
          "name": "token",
          "type": "address"
        },
        {
          "indexed": false,
          "internalType": "address",
          "name": "maker",
          "type": "address"
        },
        {
          "indexed": false,
          "internalType": "uint256",
          "name": "makerID",
          "type": "uint256"
        }
      ],
      "name": "LiquidatedMakerDeal",
      "type": "event"
    },
    {
      "anonymous": false,
      "inputs": [
        {
          "indexed": false,
          "internalType": "uint256",
          "name": "takerDealID",
          "type": "uint256"
        },
        {
          "indexed": false,
          "internalType": "address",
          "name": "token",
          "type": "address"
        },
        {
          "indexed": false,
          "internalType": "address",
          "name": "maker",
          "type": "address"
        },
        {
          "indexed": false,
          "internalType": "enum ICommon.Direct",
          "name": "direct",
          "type": "uint8"
        },
        {
          "indexed": false,
          "internalType": "uint256",
          "name": "size",
          "type": "uint256"
        },
        {
          "indexed": false,
          "internalType": "uint256",
          "name": "price",
          "type": "uint256"
        },
        {
          "indexed": false,
          "internalType": "uint256",
          "name": "makerDealID",
          "type": "uint256"
        },
        {
          "indexed": false,
          "internalType": "uint256",
          "name": "marginAmount",
          "type": "uint256"
        },
        {
          "indexed": false,
          "internalType": "uint256",
          "name": "maintenanceMargin",
          "type": "uint256"
        },
        {
          "indexed": false,
          "internalType": "uint256",
          "name": "flag",
          "type": "uint256"
        }
      ],
      "name": "LockPoolMargin",
      "type": "event"
    },
    {
      "anonymous": false,
      "inputs": [
        {
          "indexed": true,
          "internalType": "address",
          "name": "previousOwner",
          "type": "address"
        },
        {
          "indexed": true,
          "internalType": "address",
          "name": "newOwner",
          "type": "address"
        }
      ],
      "name": "OwnershipTransferred",
      "type": "event"
    },
    {
      "anonymous": false,
      "inputs": [
        {
          "indexed": true,
          "internalType": "address",
          "name": "account",
          "type": "address"
        },
        {
          "indexed": true,
          "internalType": "address",
          "name": "token",
          "type": "address"
        },
        {
          "indexed": false,
          "internalType": "uint256",
          "name": "amount",
          "type": "uint256"
        },
        {
          "indexed": false,
          "internalType": "uint256",
          "name": "share",
          "type": "uint256"
        },
        {
          "indexed": false,
          "internalType": "enum ICommon.PoolFlag",
          "name": "poolType",
          "type": "uint8"
        }
      ],
      "name": "Provide",
      "type": "event"
    },
    {
      "anonymous": false,
      "inputs": [
        {
          "indexed": true,
          "internalType": "address",
          "name": "token",
          "type": "address"
        },
        {
          "indexed": true,
          "internalType": "address",
          "name": "sender",
          "type": "address"
        },
        {
          "indexed": true,
          "internalType": "address",
          "name": "received",
          "type": "address"
        },
        {
          "indexed": false,
          "internalType": "enum ICommon.TransactionType",
          "name": "transactionType",
          "type": "uint8"
        },
        {
          "indexed": false,
          "internalType": "uint256",
          "name": "amount",
          "type": "uint256"
        },
        {
          "indexed": false,
          "internalType": "uint256",
          "name": "timestamp",
          "type": "uint256"
        }
      ],
      "name": "TransactionHistory",
      "type": "event"
    },
    {
      "anonymous": false,
      "inputs": [
        {
          "indexed": true,
          "internalType": "address",
          "name": "account",
          "type": "address"
        },
        {
          "indexed": true,
          "internalType": "address",
          "name": "token",
          "type": "address"
        },
        {
          "indexed": false,
          "internalType": "uint256",
          "name": "amount",
          "type": "uint256"
        },
        {
          "indexed": false,
          "internalType": "uint256",
          "name": "share",
          "type": "uint256"
        },
        {
          "indexed": false,
          "internalType": "enum ICommon.PoolFlag",
          "name": "poolType",
          "type": "uint8"
        }
      ],
      "name": "Withdraw",
      "type": "event"
    },
    {
      "anonymous": false,
      "inputs": [
        {
          "indexed": false,
          "internalType": "address",
          "name": "token",
          "type": "address"
        },
        {
          "indexed": false,
          "internalType": "address",
          "name": "sender",
          "type": "address"
        },
        {
          "indexed": false,
          "internalType": "string",
          "name": "name",
          "type": "string"
        },
        {
          "indexed": false,
          "internalType": "uint256",
          "name": "beforeLeverage",
          "type": "uint256"
        },
        {
          "indexed": false,
          "internalType": "uint256",
          "name": "afterLeverage",
          "type": "uint256"
        }
      ],
      "name": "setLeverage",
      "type": "event"
    },
    {
      "stateMutability": "nonpayable",
      "type": "fallback"
    },
    {
      "inputs": [
        {
          "internalType": "uint256",
          "name": "_dealID",
          "type": "uint256"
        },
        {
          "internalType": "uint256",
          "name": "_amount",
          "type": "uint256"
        }
      ],
      "name": "addMarginAmount",
      "outputs": [],
      "stateMutability": "nonpayable",
      "type": "function"
    },
    {
      "inputs": [],
      "name": "addMarginRatio",
      "outputs": [
        {
          "internalType": "uint256",
          "name": "",
          "type": "uint256"
        }
      ],
      "stateMutability": "view",
      "type": "function"
    },
    {
      "inputs": [
        {
          "internalType": "uint256",
          "name": "_id",
          "type": "uint256"
        },
        {
          "internalType": "uint8",
          "name": "_type",
          "type": "uint8"
        },
        {
          "internalType": "uint256",
          "name": "_profit",
          "type": "uint256"
        },
        {
          "internalType": "uint256",
          "name": "_loss",
          "type": "uint256"
        },
        {
          "internalType": "uint256",
          "name": "_amount",
          "type": "uint256"
        },
        {
          "internalType": "uint256",
          "name": "_price",
          "type": "uint256"
        },
        {
          "internalType": "bool",
          "name": "_transform",
          "type": "bool"
        }
      ],
      "name": "close",
      "outputs": [
        {
          "internalType": "uint256",
          "name": "makerProfit",
          "type": "uint256"
        },
        {
          "internalType": "uint256",
          "name": "makerLoss",
          "type": "uint256"
        },
        {
          "internalType": "bool",
          "name": "isLiquidated",
          "type": "bool"
        },
        {
          "internalType": "bool",
          "name": "isAgreement",
          "type": "bool"
        }
      ],
      "stateMutability": "nonpayable",
      "type": "function"
    },
    {
      "inputs": [
        {
          "internalType": "address",
          "name": "token",
          "type": "address"
        },
        {
          "internalType": "address",
          "name": "maker",
          "type": "address"
        }
      ],
      "name": "getLP2Account",
      "outputs": [
        {
          "components": [
            {
              "internalType": "address payable",
              "name": "holder",
              "type": "address"
            },
            {
              "internalType": "uint256",
              "name": "amount",
              "type": "uint256"
            },
            {
              "internalType": "uint256",
              "name": "availableAmount",
              "type": "uint256"
            },
            {
              "internalType": "uint256",
              "name": "lockedAmount",
              "type": "uint256"
            },
            {
              "internalType": "uint256",
              "name": "maintenanceMargin",
              "type": "uint256"
            },
            {
              "internalType": "uint256",
              "name": "leverage",
              "type": "uint256"
            },
            {
              "internalType": "uint256",
              "name": "maintenanceMarginRate",
              "type": "uint256"
            },
            {
              "internalType": "uint256",
              "name": "addMarginRate",
              "type": "uint256"
            },
            {
              "internalType": "bool",
              "name": "autoAddMargin",
              "type": "bool"
            },
            {
              "internalType": "bool",
              "name": "isRejectOrder",
              "type": "bool"
            }
          ],
          "internalType": "struct ICommon.LP2Account",
          "name": "",
          "type": "tuple"
        }
      ],
      "stateMutability": "view",
      "type": "function"
    },
    {
      "inputs": [
        {
          "internalType": "address",
          "name": "token",
          "type": "address"
        }
      ],
      "name": "getLP2Accounts",
      "outputs": [
        {
          "internalType": "address[]",
          "name": "",
          "type": "address[]"
        }
      ],
      "stateMutability": "view",
      "type": "function"
    },
    {
      "inputs": [
        {
          "internalType": "address",
          "name": "token",
          "type": "address"
        }
      ],
      "name": "getMakerAddresses",
      "outputs": [
        {
          "internalType": "address[]",
          "name": "",
          "type": "address[]"
        }
      ],
      "stateMutability": "view",
      "type": "function"
    },
    {
      "inputs": [
        {
          "internalType": "uint256",
          "name": "makerDealID",
          "type": "uint256"
        }
      ],
      "name": "getMakerDeal",
      "outputs": [
        {
          "components": [
            {
              "internalType": "string",
              "name": "name",
              "type": "string"
            },
            {
              "internalType": "address",
              "name": "token",
              "type": "address"
            },
            {
              "internalType": "address",
              "name": "makerAddr",
              "type": "address"
            },
            {
              "internalType": "uint256",
              "name": "takerId",
              "type": "uint256"
            },
            {
              "internalType": "uint256",
              "name": "size",
              "type": "uint256"
            },
            {
              "internalType": "uint256",
              "name": "price",
              "type": "uint256"
            },
            {
              "internalType": "enum ICommon.Direct",
              "name": "direct",
              "type": "uint8"
            },
            {
              "internalType": "enum ICommon.DealState",
              "name": "state",
              "type": "uint8"
            },
            {
              "internalType": "uint256",
              "name": "marginAmount",
              "type": "uint256"
            },
            {
              "internalType": "uint256",
              "name": "maintenanceMargin",
              "type": "uint256"
            },
            {
              "internalType": "uint256",
              "name": "time",
              "type": "uint256"
            }
          ],
          "internalType": "struct ICommon.MakerDeal",
          "name": "",
          "type": "tuple"
        }
      ],
      "stateMutability": "view",
      "type": "function"
    },
    {
      "inputs": [],
      "name": "getMakerDealsLength",
      "outputs": [
        {
          "internalType": "uint256",
          "name": "",
          "type": "uint256"
        }
      ],
      "stateMutability": "view",
      "type": "function"
    },
    {
      "inputs": [
        {
          "internalType": "address",
          "name": "token",
          "type": "address"
        }
      ],
      "name": "getShareAddresses",
      "outputs": [
        {
          "internalType": "address[]",
          "name": "",
          "type": "address[]"
        }
      ],
      "stateMutability": "view",
      "type": "function"
    },
    {
      "inputs": [],
      "name": "getTokenList",
      "outputs": [
        {
          "internalType": "address[]",
          "name": "",
          "type": "address[]"
        }
      ],
      "stateMutability": "view",
      "type": "function"
    },
    {
      "inputs": [
        {
          "internalType": "address",
          "name": "token",
          "type": "address"
        },
        {
          "internalType": "address",
          "name": "maker",
          "type": "address"
        }
      ],
      "name": "getUserMakerDealsID",
      "outputs": [
        {
          "internalType": "uint256[]",
          "name": "",
          "type": "uint256[]"
        }
      ],
      "stateMutability": "view",
      "type": "function"
    },
    {
      "inputs": [
        {
          "internalType": "address",
          "name": "token",
          "type": "address"
        },
        {
          "internalType": "address",
          "name": "user",
          "type": "address"
        }
      ],
      "name": "getUserShareAmount",
      "outputs": [
        {
          "internalType": "uint256",
          "name": "",
          "type": "uint256"
        }
      ],
      "stateMutability": "view",
      "type": "function"
    },
    {
      "inputs": [
        {
          "internalType": "address",
          "name": "_riskFundAddr",
          "type": "address"
        }
      ],
      "name": "initialize",
      "outputs": [],
      "stateMutability": "nonpayable",
      "type": "function"
    },
    {
      "inputs": [],
      "name": "leverage",
      "outputs": [
        {
          "internalType": "uint256",
          "name": "",
          "type": "uint256"
        }
      ],
      "stateMutability": "view",
      "type": "function"
    },
    {
      "inputs": [],
      "name": "maintenanceMarginRate",
      "outputs": [
        {
          "internalType": "uint256",
          "name": "",
          "type": "uint256"
        }
      ],
      "stateMutability": "view",
      "type": "function"
    },
    {
      "inputs": [
        {
          "internalType": "uint256",
          "name": "",
          "type": "uint256"
        }
      ],
      "name": "matchIds",
      "outputs": [
        {
          "internalType": "uint256",
          "name": "",
          "type": "uint256"
        }
      ],
      "stateMutability": "view",
      "type": "function"
    },
    {
      "inputs": [
        {
          "components": [
            {
              "internalType": "string",
              "name": "name",
              "type": "string"
            },
            {
              "internalType": "address",
              "name": "token",
              "type": "address"
            },
            {
              "internalType": "address",
              "name": "makerAddr",
              "type": "address"
            },
            {
              "internalType": "uint256",
              "name": "takerId",
              "type": "uint256"
            },
            {
              "internalType": "uint256",
              "name": "size",
              "type": "uint256"
            },
            {
              "internalType": "uint256",
              "name": "price",
              "type": "uint256"
            },
            {
              "internalType": "enum ICommon.Direct",
              "name": "direct",
              "type": "uint8"
            },
            {
              "internalType": "enum ICommon.DealState",
              "name": "state",
              "type": "uint8"
            },
            {
              "internalType": "uint256",
              "name": "marginAmount",
              "type": "uint256"
            },
            {
              "internalType": "uint256",
              "name": "maintenanceMargin",
              "type": "uint256"
            },
            {
              "internalType": "uint256",
              "name": "time",
              "type": "uint256"
            }
          ],
          "internalType": "struct ICommon.MakerDeal",
          "name": "makerDeal",
          "type": "tuple"
        }
      ],
      "name": "newMakerDeal",
      "outputs": [
        {
          "internalType": "uint256",
          "name": "makerDealID",
          "type": "uint256"
        }
      ],
      "stateMutability": "nonpayable",
      "type": "function"
    },
    {
      "inputs": [],
      "name": "owner",
      "outputs": [
        {
          "internalType": "address",
          "name": "",
          "type": "address"
        }
      ],
      "stateMutability": "view",
      "type": "function"
    },
    {
      "inputs": [
        {
          "internalType": "address",
          "name": "",
          "type": "address"
        }
      ],
      "name": "poolType",
      "outputs": [
        {
          "internalType": "enum ICommon.PoolFlag",
          "name": "",
          "type": "uint8"
        }
      ],
      "stateMutability": "view",
      "type": "function"
    },
    {
      "inputs": [
        {
          "internalType": "address",
          "name": "",
          "type": "address"
        },
        {
          "internalType": "string",
          "name": "",
          "type": "string"
        },
        {
          "internalType": "uint256",
          "name": "",
          "type": "uint256"
        }
      ],
      "name": "positions",
      "outputs": [
        {
          "internalType": "uint256",
          "name": "value",
          "type": "uint256"
        },
        {
          "internalType": "uint256",
          "name": "size",
          "type": "uint256"
        }
      ],
      "stateMutability": "view",
      "type": "function"
    },
    {
      "inputs": [],
      "name": "privateMinMintAmount",
      "outputs": [
        {
          "internalType": "uint256",
          "name": "",
          "type": "uint256"
        }
      ],
      "stateMutability": "view",
      "type": "function"
    },
    {
      "inputs": [
        {
          "internalType": "address",
          "name": "_token",
          "type": "address"
        },
        {
          "internalType": "uint256",
          "name": "_amount",
          "type": "uint256"
        },
        {
          "internalType": "enum ICommon.PoolFlag",
          "name": "_priOrPub",
          "type": "uint8"
        },
        {
          "internalType": "string[]",
          "name": "_symbols",
          "type": "string[]"
        },
        {
          "internalType": "bytes[]",
          "name": "_prices",
          "type": "bytes[]"
        }
      ],
      "name": "provide",
      "outputs": [],
      "stateMutability": "payable",
      "type": "function"
    },
    {
      "inputs": [],
      "name": "renounceOwnership",
      "outputs": [],
      "stateMutability": "nonpayable",
      "type": "function"
    },
    {
      "inputs": [
        {
          "internalType": "address",
          "name": "_perpetual",
          "type": "address"
        },
        {
          "internalType": "address",
          "name": "_orderBook",
          "type": "address"
        },
        {
          "internalType": "address",
          "name": "_tradeAgent",
          "type": "address"
        },
        {
          "internalType": "address",
          "name": "_tradeStation",
          "type": "address"
        },
        {
          "internalType": "address",
          "name": "_poolAgent",
          "type": "address"
        },
        {
          "internalType": "address",
          "name": "_keeper",
          "type": "address"
        }
      ],
      "name": "setKeepers",
      "outputs": [],
      "stateMutability": "nonpayable",
      "type": "function"
    },
    {
      "inputs": [
        {
          "internalType": "address",
          "name": "_token",
          "type": "address"
        },
        {
          "internalType": "enum ICommon.PoolFlag",
          "name": "_flag",
          "type": "uint8"
        }
      ],
      "name": "setPoolType",
      "outputs": [],
      "stateMutability": "nonpayable",
      "type": "function"
    },
    {
      "inputs": [
        {
          "internalType": "uint256",
          "name": "_value",
          "type": "uint256"
        }
      ],
      "name": "setPrivateMinMintAmount",
      "outputs": [],
      "stateMutability": "nonpayable",
      "type": "function"
    },
    {
      "inputs": [
        {
          "internalType": "address",
          "name": "_token",
          "type": "address"
        },
        {
          "internalType": "uint256",
          "name": "_leverage",
          "type": "uint256"
        },
        {
          "internalType": "bool",
          "name": "_isRejectOrder",
          "type": "bool"
        },
        {
          "internalType": "bool",
          "name": "_autoAddMargin",
          "type": "bool"
        }
      ],
      "name": "setUserParam",
      "outputs": [],
      "stateMutability": "nonpayable",
      "type": "function"
    },
    {
      "inputs": [
        {
          "internalType": "address",
          "name": "",
          "type": "address"
        }
      ],
      "name": "tokenCreatedTime",
      "outputs": [
        {
          "internalType": "uint256",
          "name": "",
          "type": "uint256"
        }
      ],
      "stateMutability": "view",
      "type": "function"
    },
    {
      "inputs": [
        {
          "internalType": "address",
          "name": "",
          "type": "address"
        },
        {
          "internalType": "enum ICommon.PoolFlag",
          "name": "",
          "type": "uint8"
        }
      ],
      "name": "totalLockedLiquidity",
      "outputs": [
        {
          "internalType": "uint256",
          "name": "",
          "type": "uint256"
        }
      ],
      "stateMutability": "view",
      "type": "function"
    },
    {
      "inputs": [
        {
          "internalType": "address",
          "name": "newOwner",
          "type": "address"
        }
      ],
      "name": "transferOwnership",
      "outputs": [],
      "stateMutability": "nonpayable",
      "type": "function"
    },
    {
      "inputs": [
        {
          "internalType": "address",
          "name": "_token",
          "type": "address"
        },
        {
          "internalType": "uint256",
          "name": "_amount",
          "type": "uint256"
        },
        {
          "internalType": "enum ICommon.PoolFlag",
          "name": "_priOrPub",
          "type": "uint8"
        },
        {
          "internalType": "string[]",
          "name": "_symbols",
          "type": "string[]"
        },
        {
          "internalType": "bytes[]",
          "name": "_prices",
          "type": "bytes[]"
        }
      ],
      "name": "withdraw",
      "outputs": [],
      "stateMutability": "payable",
      "type": "function"
    }
  ],
  "bytecode": "0x6080806040523460155761467b908161001a8239f35b5f80fdfe60806040526004361015610019575b3461001557005b5f80fd5b5f5f3560e01c8063017364e8146118a357806302996994146117be5780630c8c35161461172b5780631f92a4da1461170e57806321cf3dd0146116d6578063249a6ee71461124c578063273cbaa0146111d85780632c86d98e146111bb57806336ff6a70146111915780633b3de0311461113a5780634e091b22146111095780635a92c6281461108b5780635baf45fb146106d957806360d32e8d14610ed3578063669e01ee14610eb9578063715018a614610e22578063859d90a314610d8157806389f00b6d14610d645780638da5cb5b14610d1f5780639409b02914610cea578063ba0efe0314610ccd578063c0a1483114610c8b578063c23e629f14610a75578063c4d66de8146107d2578063d5e008d21461072c578063d7496060146106de578063dc8d601c146106d9578063f26a3e1d14610320578063f2da708d14610302578063f2fde38b146102d55763f74c304914610179575061000e565b346102d25760c06003193601126102d2576101926118bb565b61019a6118d1565b90604435906001600160a01b03821680920361001557606435916001600160a01b03831680930361001557608435916001600160a01b0383168093036100155760a435946001600160a01b038616809603610015576001600160a01b038092610201613212565b16806001600160a01b031960065416176006558752600f60205260408720600160ff1982541617905516806001600160a01b031960075416176007558552600f60205260408520600160ff19825416179055806001600160a01b031960085416176008558452600f60205260408420600160ff19825416179055806001600160a01b031960095416176009558352600f60205260408320600160ff198254161790558252600f60205260408220600160ff198254161790558152600f60205260408120600160ff1982541617905580f35b80fd5b50346102d25760206003193601126102d2576102ff6102f26118bb565b6102fa613212565b6129c6565b80f35b50346102d257806003193601126102d2576020601354604051908152f35b50346102d25760e06003193601126102d257600435906024359060ff82168092036102d25760c43580151580910361001557338252600f60205261036a60ff6040842054166123bd565b838252601960205260408220545f1981019081116106c5576001600160a01b0360026103958361242e565b50015416936001600160a01b0360016103ad8461242e565b50015416918285526011602052604085206001600160a01b0387165f5260205260405f2061012060ff6008604051936103e585611918565b6001600160a01b03815416855260018101546020860152600281015460408601526003810154606086015260048101546080860152600581015460a0860152600681015460c0860152600781015460e08601520154818116151561010085015260081c1615159101527f55a05fded01868e623bc311ab3e73d3cec2f0871392b36317648452d989ed1ce61010061047c88866128a7565b6020810151906040810151906080606082015191015190885f52601060205260405f206001600160a01b038d165f5260205260405f205492604051948a86528d602087015260408601526060850152608084015260a083015260c0820152600a60e0820152a1604051926101a084019184831067ffffffffffffffff8411176106b1576080987f55a05fded01868e623bc311ab3e73d3cec2f0871392b36317648452d989ed1ce9461010094604052888752602087019789895260408801526060870152828a87015260a086015260c085015260443560e08501526064358285015260843561012085015260a4356101408501526101608401968688526040610180860198888a5261058d87613271565b5198519551151596511515978381526011602052206001600160a01b0382165f5260205260405f2061012060ff6008604051936105c985611918565b6001600160a01b03815416855260018101546020860152600281015460408601526003810154606086015260048101548e860152600581015460a0860152600681015460c0860152600781015460e0860152015481811615158785015260081c16151591015261063981836128a7565b60208101519060408101518b606083015192015192855f52601060205260405f206001600160a01b0386165f5260205260405f2054946040519687526020870152604086015260608501528a84015260a083015260c0820152601460e0820152a1604051938452602084015260408301526060820152f35b634e487b7160e01b5f52604160045260245ffd5b602483634e487b7160e01b81526011600452fd5b611b83565b50346102d25760406003193601126102d2576001600160a01b0360406107026118bb565b928261070c6118d1565b9416815260106020522091165f52602052602060405f2054604051908152f35b50346102d25760406003193601126102d2576107466118bb565b6001600160a01b036107566118d1565b9116825260126020526001600160a01b036040832091165f5260205260405f20604051918260208354918281520192825260208220915b8181106107bc576107b8856107a481870382611935565b604051918291602083526020830190611c4a565b0390f35b825484526020909301926001928301920161078d565b34610015576020600319360112610015576107eb6118bb565b7ff0c57e16840df040f15088dc2f81fe391c3923bec73e23a9662efc9c229c6a005460ff8160401c16159167ffffffffffffffff821680159081610a6d575b6001149081610a63575b159081610a5a575b50610a3257818360017fffffffffffffffffffffffffffffffffffffffffffffffff00000000000000006001600160a01b039516177ff0c57e16840df040f15088dc2f81fe391c3923bec73e23a9662efc9c229c6a00556109dd575b506108a16139b9565b6108a96139b9565b6108b2336129c6565b166001600160a01b03196005541617600555306001600160a01b03196015541617601555305f52600f60205260405f20600160ff19825416179055335f52600f60205260405f20600160ff19825416179055600160ff195f5416175f55670de0b6b3a7640000600155670de0b6b3a7640000601655600a60025567016345785d8a000060035567016345785d8a000060045561094a57005b7fffffffffffffffffffffffffffffffffffffffffffffff00ffffffffffffffff7ff0c57e16840df040f15088dc2f81fe391c3923bec73e23a9662efc9c229c6a0054167ff0c57e16840df040f15088dc2f81fe391c3923bec73e23a9662efc9c229c6a00557fc7f505b2f371ae2175ee4913f4499e1f2633a7b5936321eed1cdaeb6115181d2602060405160018152a1005b7fffffffffffffffffffffffffffffffffffffffffffffff0000000000000000001668010000000000000001177ff0c57e16840df040f15088dc2f81fe391c3923bec73e23a9662efc9c229c6a005583610898565b7ff92ee8a9000000000000000000000000000000000000000000000000000000005f5260045ffd5b9050158461083c565b303b159150610834565b84915061082a565b3461001557604060031936011261001557602435600435610a958161242e565b5060018101906001600160a01b038254165f52601160205260405f206001600160a01b0333165f5260205260405f20916001600160a01b03600283015416338103610c47576002840193845491878310610c035760ff600686015460081c166006811015610bef5760018114908115610be4575b5015610ba05760076001600160a01b039560038a947fc8f742aa90a6e6851d2252fa58ed695d3ca295b55bf5f1c2164a360cc8a093e299610b4d87610b7499611cf9565b905501610b5b858254611d1a565b905501610b69838254611d1a565b905584845416612d86565b5416926007610b828461242e565b500154604080519485526020850192909252908301523391606090a3005b606460405162461bcd60e51b815260206004820152601660248201527f4c6971756964697479207374617475732077726f6e67000000000000000000006044820152fd5b600291501489610b09565b634e487b7160e01b5f52602160045260245ffd5b606460405162461bcd60e51b815260206004820152601060248201527f45786365656420617661696c61626c65000000000000000000000000000000006044820152fd5b606460405162461bcd60e51b815260206004820152600960248201527f4e6f74206d616b657200000000000000000000000000000000000000000000006044820152fd5b34610015576020600319360112610015576001600160a01b03610cac6118bb565b165f526014602052602060ff60405f205416610ccb6040518092611c3d565bf35b34610015575f600319360112610015576020600354604051908152f35b34610015576020610d166001600160a01b03610d0536611b54565b91165f526017835260405f20611c27565b54604051908152f35b34610015575f6003193601126100155760206001600160a01b037f9016d09d72d40fdae2fd8ceac6b6234c7706214fd39c1cd1e609a0528c1993005416604051908152f35b34610015575f600319360112610015576020600454604051908152f35b3461001557604060031936011261001557610140610dae610da06118bb565b610da86118d1565b906128a7565b610120604051916001600160a01b0381511683526020810151602084015260408101516040840152606081015160608401526080810151608084015260a081015160a084015260c081015160c084015260e081015160e0840152610100810151151561010084015201511515610120820152f35b34610015575f60031936011261001557610e3a613212565b5f6001600160a01b037f9016d09d72d40fdae2fd8ceac6b6234c7706214fd39c1cd1e609a0528c199300546001600160a01b031981167f9016d09d72d40fdae2fd8ceac6b6234c7706214fd39c1cd1e609a0528c19930055167f8be0079c531659141344cd1fd0a4f28419497f9722a3daafe3b4186f6b6457e08280a3005b610ed1610ec5366119e0565b9493909392919261256b565b005b34610015576020600319360112610015575f610140604051610ef4816118fb565b606081528260208201528260408201528260608201528260808201528260a08201528260c08201528260e082015282610100820152826101208201520152610f3d60043561242e565b5060405190610f4b826118fb565b610f5481612482565b82526001600160a01b03600182015416602083019081526001600160a01b036002830154166040840190815260038301549260608501938452600481015460808601908152600582015460a0870190815260068301549060ff821660c08901926003821015610bef5760ff91845260081c169260e08901936006811015610bef5784526007850154976101008a019889526008860154956101208b0196875260090154966101408b019788526040519a60208c525160208c0161016090526101808c0161102091611bf5565b98516001600160a01b031660408c0152516001600160a01b031660608b01525160808a01525160a08901525160c08801525160e0870161105f91611c1a565b51936006851015610bef5785946101008601525161012085015251610140840152516101608301520390f35b34610015576020600319360112610015576001600160a01b036110ac6118bb565b165f52600d60205260405f206040519081602082549182815201915f5260205f20905f5b8181106110f3576107b8856110e781870382611935565b60405191829182611b12565b82548452602090930192600192830192016110d0565b3461001557602060031936011261001557335f52600f60205261113260ff60405f2054166123bd565b600435601655005b34610015576001600160a01b0361115036611b54565b9190335f52600f60205261116a60ff60405f2054166123bd565b165f52601460205260405f20906004811015610bef5760ff60ff1983541691161790555f80f35b34610015576020600319360112610015576004355f526019602052602060405f2054604051908152f35b34610015575f600319360112610015576020600254604051908152f35b34610015575f60031936011261001557604051806020600a54918281520190600a5f527fc65a7bb8d6351c1cf70c95a316cc6a92839c986682d98bc35f958f4883f9d2a8905f5b818110611236576107b8856110e781870382611935565b825484526020909301926001928301920161121f565b346100155760206003193601126100155760043567ffffffffffffffff8111610015576101606003198236030112610015576040519061128b826118fb565b806004013567ffffffffffffffff8111610015576112af90600436918401016119c2565b82526112bd602482016118e7565b60208301526112ce604482016118e7565b6040830152606481013560608301526084810135608083015260a481013560a083015260c481013560038110156100155760c083015260e4810135906006821015610015576101449160e08401526101048101356101008401526101248101356101208401520135610140820152335f52600f60205261135460ff60405f2054166123bd565b61136961010082015161012083015190611d1a565b61138f816001600160a01b036020850151166001600160a01b0360408601511690612d86565b601354906001600160a01b036020840151165f52601260205260405f206001600160a01b0380604086015116165f526020526113ce8260405f20612e4d565b50601354680100000000000000008110156106b1578060016113f3920160135561242e565b6116c357835180519067ffffffffffffffff82116106b1578190611417845461244a565b601f8111611676575b50602090601f831160011461160f575f92611604575b50508160011b915f199060031b1c19161781555b6001600160a01b036020850151166001600160a01b036001830191166001600160a01b03198254161790556001600160a01b036040850151166001600160a01b036002830191166001600160a01b0319825416179055606084015160038201556080840151600482015560a084015160058201556006810160c08501516003811015610bef5760ff60ff19835416911617815560e08501516006811015610bef5761ff001961ff0083549260081b16911617905561010084015160078201556101208401516008820155600961014085015191015560135460608401515f52601960205260405f20556001600160a01b036020840151165f52601160205260405f206001600160a01b0380604086015116165f5260205261159b600260405f2060038101611579858254611d1a565b905560048101611590815461012089015190611d1a565b905501918254611cf9565b90556001600160a01b036040830151166001600160a01b0360155416146115c8575b602090604051908152f35b6001600160a01b0360208301511682519060c0840151936003851015610bef576020946115ff9360a0608084015193015193612f7c565b6115bd565b015190508680611436565b9250835f52805f20905f935b601f198416851061165b576001945083601f19811610611643575b505050811b01815561144a565b01515f1960f88460031b161c19169055868080611636565b8181015183556020948501946001909301929091019061161b565b909150835f5260205f20601f840160051c8101602085106116bc575b90849392915b601f830160051c820181106116ae575050611420565b5f8155859450600101611698565b5080611692565b634e487b7160e01b5f525f60045260245ffd5b34610015576020600319360112610015576001600160a01b036116f76118bb565b165f52600c602052602060405f2054604051908152f35b34610015575f600319360112610015576020601654604051908152f35b34610015576060600319360112610015576117446118bb565b60243567ffffffffffffffff8111610015576020611767819236906004016119c2565b6001600160a01b0360443594165f526018825260405f20604051938285935191829101845e8201908152030190206002821015610015576040916117aa91611aeb565b506001815491015482519182526020820152f35b34610015576080600319360112610015576117d76118bb565b60243590604435801515810361001557606435918215158303610015576001600160a01b03165f52601160205260405f206001600160a01b0333165f5260205260405f206064841161185f57600881610ed195600561184d9401550191829061ff001961ff00835492151560081b169116179055565b9060ff60ff1983541691151516179055565b606460405162461bcd60e51b815260206004820152600c60248201527f6f7574206f6620302d31303000000000000000000000000000000000000000006044820152fd5b610ed16118af366119e0565b94939093929192611d47565b600435906001600160a01b038216820361001557565b602435906001600160a01b038216820361001557565b35906001600160a01b038216820361001557565b610160810190811067ffffffffffffffff8211176106b157604052565b610140810190811067ffffffffffffffff8211176106b157604052565b90601f601f19910116810190811067ffffffffffffffff8211176106b157604052565b67ffffffffffffffff81116106b15760051b60200190565b67ffffffffffffffff81116106b157601f01601f191660200190565b92919261199882611970565b916119a66040519384611935565b829481845281830111610015578281602093845f960137010152565b9080601f83011215610015578160206119dd9335910161198c565b90565b9060a0600319830112610015576004356001600160a01b03811681036100155791602435916044356004811015610015579160643567ffffffffffffffff81116100155781602382011215610015578060040135611a3d81611958565b91611a4b6040519384611935565b8183526024602084019260051b820101918483116100155760248201905b838210611abc57505050509160843567ffffffffffffffff811161001557826023820112156100155780600401359267ffffffffffffffff84116100155760248460051b83010111610015576024019190565b813567ffffffffffffffff811161001557602091611ae088602485948801016119c2565b815201910190611a69565b906002811015611afe5760011b01905f90565b634e487b7160e01b5f52603260045260245ffd5b60206040818301928281528451809452019201905f5b818110611b355750505090565b82516001600160a01b0316845260209384019390920191600101611b28565b6003196040910112610015576004356001600160a01b0381168103610015579060243560048110156100155790565b34610015576020600319360112610015576001600160a01b03611ba46118bb565b165f52600e60205260405f206040519081602082549182815201915f5260205f20905f5b818110611bdf576107b8856110e781870382611935565b8254845260209093019260019283019201611bc8565b90601f19601f602080948051918291828752018686015e5f8582860101520116010190565b906003821015610bef5752565b906004811015610bef575f5260205260405f2090565b906004821015610bef5752565b90602080835192838152019201905f5b818110611c675750505090565b8251845260209384019390920191600101611c5a565b929192611c8982611958565b93611c976040519586611935565b602085848152019260051b8201918183116100155780935b838510611cbd575050505050565b843567ffffffffffffffff811161001557820183601f8201121561001557602091611cee858385809535910161198c565b815201940193611caf565b91908203918211611d0657565b634e487b7160e01b5f52601160045260245ffd5b91908201809211611d0657565b604090611d4593959492956060820196825260208201520190611c3d565b565b9290936001600160a01b03841695865f52601460205260ff60405f2054166004811015610bef57158015612393575b1561234f57611d9091611d8a913691611c7d565b82612ad9565b906004831015610bef576001830361202657855f52601060205260405f206001600160a01b0333165f5260205260405f20548511611fe257855f52601060205260405f206001600160a01b0333165f5260205260405f20611df2868254611cf9565b9055855f52601060205260405f206001600160a01b038060155416165f5260205260405f20611e22868254611cf9565b9055855f52601060205260405f206001600160a01b0333165f5260205260405f205460165411611f46575b611e5e611e6d92611e649286613846565b85612995565b600154906129a8565b92845f52601160205260405f206001600160a01b038060155416165f5260205260405f20926002840193845491828711611f02577fe3f01f60e44135eef0110076e0ac4ed71eb05f55d66bac78629ddec52a56209a95611ee288611eec956001829601611edb838254611cf9565b9055611cf9565b90555b3390612c84565b611efd604051928392339684611d27565b0390a3565b606460405162461bcd60e51b815260206004820152601c60248201527f776974686472617720616d6f756e7420697320746f6f206c61726765000000006044820152fd5b93611e5e611e6d92611f7b611e6493895f52601060205260405f206001600160a01b0333165f5260205260405f205490611d1a565b5f898152601060209081526040808320338452909152808220546015546001600160a01b03168352912080549299929091611fb591611cf9565b9055885f52601060205260405f206001600160a01b0333165f526020525f60408120559250925050611e4d565b606460405162461bcd60e51b815260206004820152601260248201527f736861726520697320746f6f206c6172676500000000000000000000000000006044820152fd5b50919291506002810361234957835f52601160205260405f206001600160a01b0333165f5260205260405f20916040519261206084611918565b6001600160a01b0381541684526001810154906020850191825260028101549060408601828152600382015493606088019485526004830154976080810198895260058401549360a08201948552600681015460c08301908152600860078301549260e0850193845201549561010084019760ff88161515895260ff61012086019860081c16151588528a11612305576120fb8a8651611cf9565b85526121088a8751611cf9565b8652885115806122fb575b806122ef575b6122d9575b8451806121c657505050505050505050507fe3f01f60e44135eef0110076e0ac4ed71eb05f55d66bac78629ddec52a56209a9250845f52600e6020526121673360405f20613781565b50845f52601160205260405f206001600160a01b0333165f526020525f60086040822082815582600182015582600282015582600382015582600482015582600582015582600682015582600782015501555b92611eec845f92611ee5565b60165411612295577fe3f01f60e44135eef0110076e0ac4ed71eb05f55d66bac78629ddec52a56209a9b612290998f97600897612279995f52601160205260405f206001600160a01b0333165f526020526001600160a01b038060405f20995116166001600160a01b03198954161788555160018801555160028701555160038601555160048501555160058401555160068301555160078201550192511515839060ff60ff1983541691151516179055565b51815461ff00191690151560081b61ff0016179055565b6121ba565b606460405162461bcd60e51b815260206004820152601860248201527f7374617920616d6f756e7420697320746f6f20736d616c6c00000000000000006044820152fd5b986122e690855190611d1a565b985f855261211e565b50845160165411612119565b5084511515612113565b606460405162461bcd60e51b815260206004820152601360248201527f616d6f756e7420697320746f6f206c61726765000000000000000000000000006044820152fd5b50505050565b606460405162461bcd60e51b815260206004820152601360248201527f77726f6e6720776974686472617720666c6167000000000000000000000000006044820152fd5b50865f52601460205260ff60405f2054166004851015610bef576004811015610bef578414611d76565b156123c457565b608460405162461bcd60e51b815260206004820152602160248201527f63616c6c6572206973206e6f74207072697661746520706f6f6c206b6565706560448201527f72000000000000000000000000000000000000000000000000000000000000006064820152fd5b601354811015611afe5760135f52600a60205f20910201905f90565b90600182811c92168015612478575b602083101461246457565b634e487b7160e01b5f52602260045260245ffd5b91607f1691612459565b9060405191825f8254926124958461244a565b80845293600181169081156124fe57506001146124ba575b50611d4592500383611935565b90505f9291925260205f20905f915b8183106124e2575050906020611d45928201015f6124ad565b60209193508060019154838589010152019101909184926124c9565b60209350611d4595925060ff1991501682840152151560051b8201015f6124ad565b1561252757565b606460405162461bcd60e51b815260206004820152600960248201527f746f6f20736d616c6c00000000000000000000000000000000000000000000006044820152fd5b929390935f916001600160a01b03851696875f52601460205260ff60405f2054166004811015610bef5715801561287d575b15612839576125b191611d8a913691611c7d565b916125be863033886130e2565b6004841015610bef5760018403612755575092612630612636927f8f482ec08235be52bb3abe471d37e58a4a0e31a05eb148064c014f71caa7e5f795612608600154891015612520565b885f52600d60205261261d3360405f20613961565b5061262a60015489612995565b93613846565b906129a8565b845f52601160205260405f206001600160a01b038060155416165f5260205260405f2060018101612668868254611d1a565b905560028101612679868254611d1a565b9055855f52601060205260405f206001600160a01b038060155416165f5260205260405f206126a9838254611d1a565b9055855f52601060205260405f206001600160a01b0333165f5260205260405f206126d5838254611d1a565b90556001600160a01b038154161561271c575b505b845f52600b60205260405f20541561270d57611efd604051928392339684611d27565b61271685613907565b50611eec565b60088101600160ff19825416179055600a60058201556001600160a01b038060155416166001600160a01b03198254161790555f6126e8565b9350505060028103612349577f8f482ec08235be52bb3abe471d37e58a4a0e31a05eb148064c014f71caa7e5f791612791601654851015612520565b845f52601160205260405f206001600160a01b0333165f52602052600260405f20865f52600e6020526127d53360405f206001915f520160205260405f2054151590565b156127ff575b600181016127ea878254611d1a565b9055016127f8858254611d1a565b90556126ea565b865f52600e6020526128143360405f20613961565b5060088101805460ff1916600117905580546001600160a01b031916331781556127db565b606460405162461bcd60e51b815260206004820152601260248201527f77726f6e67206465706f73697420666c616700000000000000000000000000006044820152fd5b50875f52601460205260ff60405f2054166004861015610bef576004811015610bef57851461259d565b6001600160a01b03905f6101206040516128c081611918565b8281528260208201528260408201528260608201528260808201528260a08201528260c08201528260e0820152826101008201520152165f5260116020526001600160a01b0360405f2091165f5260205260405f2060ff60086040519261292684611918565b6001600160a01b03815416845260018101546020850152600281015460408501526003810154606085015260048101546080850152600581015460a0850152600681015460c0850152600781015460e08501520154818116151561010084015260081c16151561012082015290565b81810292918115918404141715611d0657565b81156129b2570490565b634e487b7160e01b5f52601260045260245ffd5b6001600160a01b03168015612a55576001600160a01b037f9016d09d72d40fdae2fd8ceac6b6234c7706214fd39c1cd1e609a0528c19930054826001600160a01b03198216177f9016d09d72d40fdae2fd8ceac6b6234c7706214fd39c1cd1e609a0528c19930055167f8be0079c531659141344cd1fd0a4f28419497f9722a3daafe3b4186f6b6457e05f80a3565b7f1e4fbdf7000000000000000000000000000000000000000000000000000000005f525f60045260245ffd5b9080602083519182815201916020808360051b8301019401925f915b838310612aac57505050505090565b9091929394602080612aca83601f1986600196030187528951611bf5565b97019301930191939290612a9d565b90612b25916001600160a01b0360065416916040519384927fb5c926f4000000000000000000000000000000000000000000000000000000008452604060048501526044840190612a81565b600319838203016024840152815180825260208201916020808360051b8301019401925f915b838310612c0c5750505050509181805f94039134905af1908115612c01575f91612b73575090565b90503d805f833e612b848183611935565b8101906020818303126100155780519067ffffffffffffffff821161001557019080601f83011215610015578151612bbb81611958565b92612bc96040519485611935565b81845260208085019260051b82010192831161001557602001905b828210612bf15750505090565b8151815260209182019101612be4565b6040513d5f823e3d90fd5b919395509193602080612c2b83601f1986600196030187528951611bf5565b97019301930190928795949293612b4b565b3d15612c67573d90612c4e82611970565b91612c5c6040519384611935565b82523d5f602084013e565b606090565b90816020910312610015575180151581036100155790565b91611e64612ca391612c9d612c9886613df0565b6138f9565b90612995565b9182612cae57505050565b5f928380937fffffffff0000000000000000000000000000000000000000000000000000000060196020604051612ce6604082611935565b828152017f7472616e7366657228616464726573732c75696e74323536290000000000000081522016926001600160a01b036040519260208401958652166024830152604482015260448152612d3d606482611935565b51925af1612d49612c3d565b81612d57575b501561001557565b8051801592508215612d6c575b50505f612d4f565b612d7f9250602080918301019101612c6c565b5f80612d64565b90612ddd916002916001600160a01b038060155416911614612de0575b6001600160a01b03612dcc911693845f526017602052612dc68360405f20611c27565b54611d1a565b925f52601760205260405f20611c27565b55565b60019150612da3565b90612ddd916002916001600160a01b038060155416911614612e2f575b6001600160a01b03612dcc911693845f526017602052612e298360405f20611c27565b54611cf9565b60019150612e06565b8054821015611afe575f5260205f2001905f90565b906001820191815f528260205260ff60405f205416612f75575f908054805b808410612f345750680100000000000000008110156106b157612eaf612e99826001879401855584612e38565b819391549060031b91821b915f19901b19161790565b905580545f198101908111611d0657908392915b828111612ef35750612ed891612e9991612e38565b90555f5260205260405f20600160ff19825416179055600190565b919250905f198101818111611d0657612f0c9083612e38565b90549060031b1c612f20612e998385612e38565b90558015611d0657839291905f1901612ec3565b92612f3f8482611d1a565b60011c9085612f4e8386612e38565b90549060031b1c105f14612f6e575060018101809111611d065792612e6c565b9350612e6c565b5050505f90565b6020916001600160a01b038392969596165f526018825260405f20604051938285935191829101845e820190815203019020906003811015610bef5760ff5f199116019160ff8311611d0657612ff8612ff0612fe8612fe061300396600196611aeb565b509387612995565b8454906129a8565b825490611d1a565b815501918254611d1a565b9055565b602092939450906001600160a01b038392165f526018825260405f20604051938285935191829101845e820190815203019020906003811015610bef5760ff5f1991160160ff8111611d065761305c91611aeb565b506001810191825480821161309e5780820361307c575050905f80925555565b82611edb6130039454613098846130938784612995565b6129a8565b90611cf9565b606460405162461bcd60e51b815260206004820152601c60248201527f736861726520616d6f756e7420697320696e73756666696369656e74000000006044820152fd5b909192611e646130f891612c9d612c9885613df0565b92836131045750505050565b5f80949381946001600160a01b037fffffffff000000000000000000000000000000000000000000000000000000006025604051613143606082611935565b8181527f7432353629000000000000000000000000000000000000000000000000000000604060208301927f7472616e7366657246726f6d28616464726573732c616464726573732c75696e845201522016948160405194602086019788521660248501521660448301526064820152606481526131c2608482611935565b51925af16131ce612c3d565b816131e3575b5015610015575f808080612349565b80518015925082156131f8575b50505f6131d4565b61320b9250602080918301019101612c6c565b5f806131f0565b6001600160a01b037f9016d09d72d40fdae2fd8ceac6b6234c7706214fd39c1cd1e609a0528c1993005416330361324557565b7f118cdaa7000000000000000000000000000000000000000000000000000000005f523360045260245ffd5b61327e60c082015161242e565b50906001600160a01b03600183015416805f52601160205260405f20906001600160a01b03600285015416916001600160a01b0383165f5260205260405f2091600160ff606086015116145f1461341e5750506132dc908383613a10565b61341a577f181dbc3ad559b63759679084b2e0d8268b879a2556fb002571b357ce36b9916191610160915b610120810151916002906001600160a01b036002820154169260048201548086148015613412575b613406575b50606081015160ff166133df576015546001600160a01b031684036133d65760ff60035b16935b60038301549560ff60066001600160a01b0360018701541695015416906133ad6101408501519260c0860151946101808c880151970151976040519b8c5260208c015260408b015260608a0190611c1a565b608088015260a087015260c086015260e0850152610100840152610120830152610140820152a1565b60ff6001613358565b6015546001600160a01b031684036133fd5760ff60025b169361335b565b60ff60046133f6565b9450600192505f613334565b50851561332f565b5050565b907f181dbc3ad559b63759679084b2e0d8268b879a2556fb002571b357ce36b99161949261016094926001600160a01b036015541614613742575b6101208301516136b2576006840161030061ff00198254161790556007840154916135086134c060088701548095845f52601260205260405f206001600160a01b038060028c015416165f526020526134ba60405f2060c08a015190613e7c565b50611d1a565b60028401946134d0828754611d1a565b8655600385016134e1838254611cf9565b90556134f260048601918254611cf9565b90556001600160a01b0360028801541683612de9565b60e08401805190919015613639578151610180860190808252855481115f146135e75750915f9493916001936040880151613562575b5050500161354f8154835490611cf9565b9055556001815260016020820152613307565b6135b56135c9935161357688548092611cf9565b9061358085613f5d565b8083116135d1575b50506135a2816001600160a01b03600554163090876130e2565b306001600160a01b0360055416856140b2565b6001600160a01b0360065416905191612c84565b5f808061353e565b6135de9192508092611d1a565b83525f80613588565b61361594929150604087015161361c575b505061360b600183519201918254611cf9565b9055518254611cf9565b9055613307565b613632916001600160a01b036006541690612c84565b5f806135f8565b905061010084939293019283519182613657575b5050505050613307565b6001926040870151613694575b5050016136748154845190611d1a565b90556136838154835190611d1a565b905551838201525f8080808061364d565b6136ab916001600160a01b036006541630916130e2565b5f80613664565b61371f916006850161020061ff00198254161790556135086134c061372760078801546137386136e76101208a015183612995565b6136f660048c015480926129a8565b9384938b8d600761371586613093610120600886015496015186612995565b9d8e998a95611cf9565b910155611cf9565b60088c01556101208a015190611cf9565b60048a0155611d1a565b6101208301518015613776575b6137719060ff6006870154169060058701549161376b88612482565b86613007565b613459565b50600484015461374f565b906001820191815f528260205260405f20548015155f1461383e575f198101818111611d065782545f19810191908211611d0657818103613809575b505050805480156137f5575f1901906137d68282612e38565b8154905f199060031b1b19169055555f526020525f6040812055600190565b634e487b7160e01b5f52603160045260245ffd5b613829613819612e999386612e38565b90549060031b1c92839286612e38565b90555f528360205260405f20555f80806137bd565b505050505f90565b906138a3926001600160a01b036020936138b5826009541693604051978896879586957f70bcbca2000000000000000000000000000000000000000000000000000000008752166004860152606060248601526064850190612a81565b90600319848303016044850152611c4a565b03915afa908115612c01575f916138ca575090565b90506020813d6020116138f1575b816138e560209383611935565b81010312610015575190565b3d91506138d8565b604d8111611d0657600a0a90565b805f52600b60205260405f2054155f1461395c57600a54680100000000000000008110156106b157613945612e99826001859401600a55600a612e38565b9055600a54905f52600b60205260405f2055600190565b505f90565b5f8281526001820160205260409020546139b357805490680100000000000000008210156106b1578261399e612e99846001809601855584612e38565b90558054925f520160205260405f2055600190565b50505f90565b60ff7ff0c57e16840df040f15088dc2f81fe391c3923bec73e23a9662efc9c229c6a005460401c16156139e857565b7fd7e6bcf8000000000000000000000000000000000000000000000000000000005f5260045ffd5b9190915f6001600160a01b03600185015416936001600160a01b036002820154169360078201928354600884019188835496613a4c8885611d1a565b9360e08a019182516101808c019a818c5260028a0196875492613a6f8a85611d1a565b1015613bca575050505050608094845f85613b108c613b839d9e9f9997600497613ace613ac37f261fffb4b79148ca99a0f130d50296a0a9bf6bee424973781ef0e8c4359b25129f9c9b613b489c54611d1a565b809281885551611cf9565b92613ad883613f5d565b91828511613bb0575b505050613afc826001600160a01b03600554163090846130e2565b30906001600160a01b0360055416906140b2565b60018701613b218154835490611cf9565b905555600160208d01525b613b3b60038601918254611cf9565b9055549201918254611cf9565b905560a0870151906001600160a01b0383890151169060c089015191604051938452602084015260408301526060820152a18383519161415a565b15613b9057505050600190565b600192613bab916001600160a01b0360065416905191612c84565b525f90565b8293945091613bbf9192611d1a565b9052908f805f613ae1565b613be0859e979399949d9692989a958351611cf9565b9760088c015460ff81169081613de1575b5080613dd8575b15613ce2575050505050505093600393613c8887948694613c66613c59613c51613cd19b7fc8f742aa90a6e6851d2252fa58ed695d3ca295b55bf5f1c2164a360cc8a093e29f9e9d600461014091015491015190612995565b885490612995565b61309360015480926129a8565b9082613c728383611d1a565b11613cd957613c819250611d1a565b8099611d1a565b8755613c95888254611cf9565b905501613ca3868254611d1a565b9055613cb085888a612d86565b01549154604051938493846040919493926060820195825260208201520152565b0390a3600190565b50508099611d1a565b613b48979f9990879f50613b839e5096613d9d9360809c95936004997f261fffb4b79148ca99a0f130d50296a0a9bf6bee424973781ef0e8c4359b25129f9c858110155f14613da457505050613d4a613d7691613d42613d8b958a611d1a565b905190611cf9565b80945b613d63826001600160a01b036005541683612c84565b8d6001600160a01b036005541691614106565b60018a01613d9084613d8b8354855190611cf9565b611cf9565b9055613d42868654611d1a565b9055613b2c565b909194501115613dbe575b50613d7682613d8b9394613d4d565b613d8b9250613dd1613d76915188611cf9565b9250613daf565b50898910613bf8565b60ff915060081c16155f613bf1565b60206001600160a01b03916004604051809481937f313ce567000000000000000000000000000000000000000000000000000000008352165afa8015612c01575f90613e3f575b60ff91501690565b506020813d602011613e74575b81613e5960209383611935565b81010312610015575160ff811681036100155760ff90613e37565b3d9150613e4c565b9060018201815f528060205260ff60405f20541615612f75578254905f5b828110613eaa5750505050505f90565b83613eb58287612e38565b90549060031b1c14613ec957600101613e9a565b93945f198301928311949093919290855b611d065781811015613f1b576001810190818111611d0657613efe60019289612e38565b90549060031b1c613f12612e99838b612e38565b90550185613eda565b50509193909250805480156137f5575f190190613f388282612e38565b8154905f199060031b1b19169055555f5260205260405f2060ff198154169055600190565b6001600160a01b0360055416906001600160a01b03811690604051917f70a08231000000000000000000000000000000000000000000000000000000008352836004840152602083602481845afa928315612c01575f9361407e575b506020613fd8613fcc6001548096612995565b612630612c9886613df0565b946044604051809481937fdd62ed3e00000000000000000000000000000000000000000000000000000000835260048301523060248301525afa908115612c01575f9161404a575b50612c9861403461403a9461263093612995565b92613df0565b808211614045575090565b905090565b90506020813d602011614076575b8161406560209383611935565b810103126100155751612c98614020565b3d9150614058565b9092506020813d6020116140aa575b8161409a60209383611935565b810103126100155751915f613fb9565b3d915061408d565b9192909281156123495760606001600160a01b0380807feb42cf637f927243245c50b4bf7fe105fe4f4d26209102240f2ba3d8e27a7df89460405196600988526020880152426040880152169616941692a4565b9192909281156123495760606001600160a01b0380807feb42cf637f927243245c50b4bf7fe105fe4f4d26209102240f2ba3d8e27a7df89460405196600888526020880152426040880152169616941692a4565b909160018201906001600160a01b038254165f52601260205260405f209360028401946001600160a01b0380875416165f5260205260405f20906141a460c0820192835190613e7c565b506001600160a01b038454166001600160a01b03875416916141dd60088801928354946141d760078b0196875490611d1a565b91612de9565b6001600160a01b0386541691825f52601460205260ff60405f2054166004811015610bef57158061463a575b8061461b575b614282575b5050505050506001600160a01b0360069354166001600160a01b03601554161461424c575b500161040061ff00198254161790555f90565b6001600160a01b0361427c91541660ff848401541660048401549060058501549261427686612482565b90613007565b5f614239565b6001600160a01b03600954166001600160a01b03601554169060048a019460606101408754960195608487519160405195869384927fd112d0e9000000000000000000000000000000000000000000000000000000008452876004850152896024850152604484015260648301525afa928315612c01575f5f935f956145c0575b506001600160a01b031661431a5750505050614214565b60ff809b88967f181dbc3ad559b63759679084b2e0d8268b879a2556fb002571b357ce36b991619f9b9a996101609f976001600160a01b038f928f8f908f61458f9f9c614481938f61443e907f2c37a9956018f0a52fe734b1e1b43a0c291a1ca976448780e2105afc28c38d989f996101409f9460039c6143fc8c9d614464986143a48686611d1a565b915f5260116020528e60405f2091165f5260205260405f20600181016143cb858254611d1a565b905560046143de60028301958654611d1a565b91600381016143ee858254611d1a565b905501611edb878254611d1a565b905586558c55888060155416166001600160a01b0319875416178655888d541697600682019e8f541690549060058301996144388b5494612482565b90612f7c565b868b54165f52601260205260405f208780865416165f5260205260405f20905190612e4d565b5061447b85808b5416935416918954905490611d1a565b91612d86565b549454169d54169701549d8e9354169754998b5190549154926040519485528d60208601528860408601526144b9606086018b611c1a565b8b608086015260a085015260c084015260e08301526101008201526003610120820152a17f55a05fded01868e623bc311ab3e73d3cec2f0871392b36317648452d989ed1ce6101008861450c85826128a7565b6020810151906040810151906080606082015191015191845f52601060205260405f206001600160a01b038a165f5260205260405f20549360405195865289602087015260408601526060850152608084015260a083015260c0820152600360e0820152a151945195604051988952602089015260408801526060870190611c1a565b608085015260a084015260c08301525f60e083015261010082015260016101208201526005610140820152a1600190565b94505091506060833d606011614613575b816145de60609383611935565b81010312610015578251916001600160a01b038316830361001557602084015160409094015193926001600160a01b03614303565b3d91506145d1565b506001600160a01b038954166001600160a01b0360155416141561420f565b5060ff5f541661420956fea2646970667358221220818d2d3f2a099509c3ed2b2c6ab98311c1e231d06bc04f5f588c03d2937b10a364736f6c634300081c0033",
  "linkReferences": {},
  "deployedLinkReferences": {}
}