{
  "_format": "hh-sol-artifact-1",
  "contractName": "PrivatePool",
  "sourceName": "contracts/PrivatePool.sol",
  "abi": [
    {
      "inputs": [],
      "name": "InvalidInitialization",
      "type": "error"
    },
    {
      "inputs": [],
      "name": "NotInitializing",
      "type": "error"
    },
    {
      "inputs": [
        {
          "internalType": "address",
          "name": "owner",
          "type": "address"
        }
      ],
      "name": "OwnableInvalidOwner",
      "type": "error"
    },
    {
      "inputs": [
        {
          "internalType": "address",
          "name": "account",
          "type": "address"
        }
      ],
      "name": "OwnableUnauthorizedAccount",
      "type": "error"
    },
    {
      "anonymous": false,
      "inputs": [
        {
          "indexed": false,
          "internalType": "address",
          "name": "token",
          "type": "address"
        },
        {
          "indexed": false,
          "internalType": "address",
          "name": "holder",
          "type": "address"
        },
        {
          "indexed": false,
          "internalType": "string",
          "name": "name",
          "type": "string"
        },
        {
          "indexed": false,
          "internalType": "enum ICommon.Direct",
          "name": "direct",
          "type": "uint8"
        },
        {
          "indexed": false,
          "internalType": "uint256",
          "name": "value",
          "type": "uint256"
        },
        {
          "indexed": false,
          "internalType": "uint256",
          "name": "size",
          "type": "uint256"
        },
        {
          "indexed": false,
          "internalType": "uint256",
          "name": "margin",
          "type": "uint256"
        },
        {
          "indexed": false,
          "internalType": "uint256",
          "name": "freeze",
          "type": "uint256"
        }
      ],
      "name": "AccountPosition",
      "type": "event"
    },
    {
      "anonymous": false,
      "inputs": [
        {
          "indexed": true,
          "internalType": "address",
          "name": "account",
          "type": "address"
        },
        {
          "indexed": true,
          "internalType": "address",
          "name": "token",
          "type": "address"
        },
        {
          "indexed": false,
          "internalType": "uint256",
          "name": "orderID",
          "type": "uint256"
        },
        {
          "indexed": false,
          "internalType": "uint256",
          "name": "amount",
          "type": "uint256"
        },
        {
          "indexed": false,
          "internalType": "uint256",
          "name": "margin",
          "type": "uint256"
        }
      ],
      "name": "AddMargin",
      "type": "event"
    },
    {
      "anonymous": false,
      "inputs": [
        {
          "indexed": false,
          "internalType": "address",
          "name": "token",
          "type": "address"
        },
        {
          "indexed": false,
          "internalType": "address",
          "name": "maker",
          "type": "address"
        },
        {
          "indexed": false,
          "internalType": "uint256",
          "name": "amount",
          "type": "uint256"
        },
        {
          "indexed": false,
          "internalType": "uint256",
          "name": "availableAmount",
          "type": "uint256"
        },
        {
          "indexed": false,
          "internalType": "uint256",
          "name": "lockedAmount",
          "type": "uint256"
        },
        {
          "indexed": false,
          "internalType": "uint256",
          "name": "maintenanceMargin",
          "type": "uint256"
        },
        {
          "indexed": false,
          "internalType": "uint256",
          "name": "share",
          "type": "uint256"
        },
        {
          "indexed": false,
          "internalType": "uint256",
          "name": "flag",
          "type": "uint256"
        }
      ],
      "name": "BalanceOfMaker",
      "type": "event"
    },
    {
      "anonymous": false,
      "inputs": [
        {
          "indexed": false,
          "internalType": "uint256",
          "name": "dealID",
          "type": "uint256"
        },
        {
          "indexed": false,
          "internalType": "address",
          "name": "token",
          "type": "address"
        },
        {
          "indexed": false,
          "internalType": "address",
          "name": "maker",
          "type": "address"
        },
        {
          "indexed": false,
          "internalType": "uint256",
          "name": "size",
          "type": "uint256"
        },
        {
          "indexed": false,
          "internalType": "uint256",
          "name": "price",
          "type": "uint256"
        },
        {
          "indexed": false,
          "internalType": "uint256",
          "name": "makerID",
          "type": "uint256"
        },
        {
          "indexed": false,
          "internalType": "uint256",
          "name": "makerGain",
          "type": "uint256"
        },
        {
          "indexed": false,
          "internalType": "uint256",
          "name": "makerLoss",
          "type": "uint256"
        },
        {
          "indexed": false,
          "internalType": "uint256",
          "name": "closeFlag",
          "type": "uint256"
        },
        {
          "indexed": false,
          "internalType": "uint256",
          "name": "closeType",
          "type": "uint256"
        }
      ],
      "name": "CloseMakerDealInPool",
      "type": "event"
    },
    {
      "anonymous": false,
      "inputs": [
        {
          "indexed": false,
          "internalType": "uint64",
          "name": "version",
          "type": "uint64"
        }
      ],
      "name": "Initialized",
      "type": "event"
    },
    {
      "anonymous": false,
      "inputs": [
        {
          "indexed": false,
          "internalType": "uint256",
          "name": "dealID",
          "type": "uint256"
        },
        {
          "indexed": false,
          "internalType": "address",
          "name": "token",
          "type": "address"
        },
        {
          "indexed": false,
          "internalType": "address",
          "name": "maker",
          "type": "address"
        },
        {
          "indexed": false,
          "internalType": "uint256",
          "name": "size",
          "type": "uint256"
        },
        {
          "indexed": false,
          "internalType": "uint256",
          "name": "price",
          "type": "uint256"
        },
        {
          "indexed": false,
          "internalType": "uint256",
          "name": "makerID",
          "type": "uint256"
        },
        {
          "indexed": false,
          "internalType": "uint256",
          "name": "marginAmount",
          "type": "uint256"
        },
        {
          "indexed": false,
          "internalType": "uint256",
          "name": "maintenanceMargin",
          "type": "uint256"
        },
        {
          "indexed": false,
          "internalType": "uint256",
          "name": "flag",
          "type": "uint256"
        }
      ],
      "name": "LockPoolMargin",
      "type": "event"
    },
    {
      "anonymous": false,
      "inputs": [
        {
          "indexed": true,
          "internalType": "address",
          "name": "previousOwner",
          "type": "address"
        },
        {
          "indexed": true,
          "internalType": "address",
          "name": "newOwner",
          "type": "address"
        }
      ],
      "name": "OwnershipTransferred",
      "type": "event"
    },
    {
      "anonymous": false,
      "inputs": [
        {
          "indexed": true,
          "internalType": "address",
          "name": "account",
          "type": "address"
        },
        {
          "indexed": true,
          "internalType": "address",
          "name": "token",
          "type": "address"
        },
        {
          "indexed": false,
          "internalType": "uint256",
          "name": "amount",
          "type": "uint256"
        },
        {
          "indexed": false,
          "internalType": "enum ICommon.PoolFlag",
          "name": "poolType",
          "type": "uint8"
        }
      ],
      "name": "Provide",
      "type": "event"
    },
    {
      "anonymous": false,
      "inputs": [
        {
          "indexed": true,
          "internalType": "address",
          "name": "token",
          "type": "address"
        },
        {
          "indexed": true,
          "internalType": "address",
          "name": "sender",
          "type": "address"
        },
        {
          "indexed": true,
          "internalType": "address",
          "name": "received",
          "type": "address"
        },
        {
          "indexed": false,
          "internalType": "enum ICommon.TransactionType",
          "name": "transactionType",
          "type": "uint8"
        },
        {
          "indexed": false,
          "internalType": "uint256",
          "name": "amount",
          "type": "uint256"
        },
        {
          "indexed": false,
          "internalType": "uint256",
          "name": "timestamp",
          "type": "uint256"
        }
      ],
      "name": "TransactionHistory",
      "type": "event"
    },
    {
      "anonymous": false,
      "inputs": [
        {
          "indexed": true,
          "internalType": "address",
          "name": "account",
          "type": "address"
        },
        {
          "indexed": true,
          "internalType": "address",
          "name": "token",
          "type": "address"
        },
        {
          "indexed": false,
          "internalType": "uint256",
          "name": "amount",
          "type": "uint256"
        },
        {
          "indexed": false,
          "internalType": "enum ICommon.PoolFlag",
          "name": "poolType",
          "type": "uint8"
        }
      ],
      "name": "Withdraw",
      "type": "event"
    },
    {
      "anonymous": false,
      "inputs": [
        {
          "indexed": false,
          "internalType": "address",
          "name": "token",
          "type": "address"
        },
        {
          "indexed": false,
          "internalType": "address",
          "name": "sender",
          "type": "address"
        },
        {
          "indexed": false,
          "internalType": "string",
          "name": "name",
          "type": "string"
        },
        {
          "indexed": false,
          "internalType": "uint256",
          "name": "beforeLeverage",
          "type": "uint256"
        },
        {
          "indexed": false,
          "internalType": "uint256",
          "name": "afterLeverage",
          "type": "uint256"
        }
      ],
      "name": "setLeverage",
      "type": "event"
    },
    {
      "stateMutability": "nonpayable",
      "type": "fallback"
    },
    {
      "inputs": [
        {
          "internalType": "uint256",
          "name": "_dealID",
          "type": "uint256"
        },
        {
          "internalType": "uint256",
          "name": "_amount",
          "type": "uint256"
        }
      ],
      "name": "addMarginAmount",
      "outputs": [],
      "stateMutability": "nonpayable",
      "type": "function"
    },
    {
      "inputs": [],
      "name": "addMarginRatio",
      "outputs": [
        {
          "internalType": "uint256",
          "name": "",
          "type": "uint256"
        }
      ],
      "stateMutability": "view",
      "type": "function"
    },
    {
      "inputs": [
        {
          "internalType": "uint256",
          "name": "_id",
          "type": "uint256"
        },
        {
          "internalType": "uint8",
          "name": "_type",
          "type": "uint8"
        },
        {
          "internalType": "uint256",
          "name": "_profit",
          "type": "uint256"
        },
        {
          "internalType": "uint256",
          "name": "_loss",
          "type": "uint256"
        },
        {
          "internalType": "uint256",
          "name": "_amount",
          "type": "uint256"
        },
        {
          "internalType": "uint256",
          "name": "_price",
          "type": "uint256"
        },
        {
          "internalType": "bool",
          "name": "_transform",
          "type": "bool"
        }
      ],
      "name": "close",
      "outputs": [
        {
          "internalType": "uint256",
          "name": "makerProfit",
          "type": "uint256"
        },
        {
          "internalType": "uint256",
          "name": "makerLoss",
          "type": "uint256"
        },
        {
          "internalType": "bool",
          "name": "isLiquidated",
          "type": "bool"
        },
        {
          "internalType": "bool",
          "name": "isAgreement",
          "type": "bool"
        }
      ],
      "stateMutability": "nonpayable",
      "type": "function"
    },
    {
      "inputs": [
        {
          "internalType": "address",
          "name": "token",
          "type": "address"
        },
        {
          "internalType": "address",
          "name": "maker",
          "type": "address"
        }
      ],
      "name": "getLP2Account",
      "outputs": [
        {
          "components": [
            {
              "internalType": "address payable",
              "name": "holder",
              "type": "address"
            },
            {
              "internalType": "uint256",
              "name": "amount",
              "type": "uint256"
            },
            {
              "internalType": "uint256",
              "name": "availableAmount",
              "type": "uint256"
            },
            {
              "internalType": "uint256",
              "name": "lockedAmount",
              "type": "uint256"
            },
            {
              "internalType": "uint256",
              "name": "maintenanceMargin",
              "type": "uint256"
            },
            {
              "internalType": "uint256",
              "name": "leverage",
              "type": "uint256"
            },
            {
              "internalType": "uint256",
              "name": "maintenanceMarginRate",
              "type": "uint256"
            },
            {
              "internalType": "uint256",
              "name": "addMarginRate",
              "type": "uint256"
            },
            {
              "internalType": "bool",
              "name": "autoAddMargin",
              "type": "bool"
            },
            {
              "internalType": "bool",
              "name": "isRejectOrder",
              "type": "bool"
            }
          ],
          "internalType": "struct ICommon.LP2Account",
          "name": "",
          "type": "tuple"
        }
      ],
      "stateMutability": "view",
      "type": "function"
    },
    {
      "inputs": [
        {
          "internalType": "address",
          "name": "token",
          "type": "address"
        }
      ],
      "name": "getLP2Accounts",
      "outputs": [
        {
          "internalType": "address[]",
          "name": "",
          "type": "address[]"
        }
      ],
      "stateMutability": "view",
      "type": "function"
    },
    {
      "inputs": [
        {
          "internalType": "address",
          "name": "token",
          "type": "address"
        }
      ],
      "name": "getMakerAddresses",
      "outputs": [
        {
          "internalType": "address[]",
          "name": "",
          "type": "address[]"
        }
      ],
      "stateMutability": "view",
      "type": "function"
    },
    {
      "inputs": [
        {
          "internalType": "uint256",
          "name": "makerDealID",
          "type": "uint256"
        }
      ],
      "name": "getMakerDeal",
      "outputs": [
        {
          "components": [
            {
              "internalType": "string",
              "name": "name",
              "type": "string"
            },
            {
              "internalType": "address",
              "name": "token",
              "type": "address"
            },
            {
              "internalType": "address",
              "name": "makerAddr",
              "type": "address"
            },
            {
              "internalType": "uint256",
              "name": "takerId",
              "type": "uint256"
            },
            {
              "internalType": "uint256",
              "name": "size",
              "type": "uint256"
            },
            {
              "internalType": "enum ICommon.Direct",
              "name": "direct",
              "type": "uint8"
            },
            {
              "internalType": "uint256",
              "name": "marginAmount",
              "type": "uint256"
            },
            {
              "internalType": "uint256",
              "name": "maintenanceMargin",
              "type": "uint256"
            },
            {
              "internalType": "uint256",
              "name": "price",
              "type": "uint256"
            },
            {
              "internalType": "uint256",
              "name": "time",
              "type": "uint256"
            },
            {
              "internalType": "bool",
              "name": "locked",
              "type": "bool"
            }
          ],
          "internalType": "struct ICommon.MakerDeal",
          "name": "",
          "type": "tuple"
        }
      ],
      "stateMutability": "view",
      "type": "function"
    },
    {
      "inputs": [],
      "name": "getMakerDealsLength",
      "outputs": [
        {
          "internalType": "uint256",
          "name": "",
          "type": "uint256"
        }
      ],
      "stateMutability": "view",
      "type": "function"
    },
    {
      "inputs": [
        {
          "internalType": "address",
          "name": "token",
          "type": "address"
        },
        {
          "internalType": "address",
          "name": "maker",
          "type": "address"
        }
      ],
      "name": "getMakerUserDeals",
      "outputs": [
        {
          "internalType": "uint256[]",
          "name": "",
          "type": "uint256[]"
        }
      ],
      "stateMutability": "view",
      "type": "function"
    },
    {
      "inputs": [
        {
          "internalType": "address",
          "name": "token",
          "type": "address"
        }
      ],
      "name": "getShareAddresses",
      "outputs": [
        {
          "internalType": "address[]",
          "name": "",
          "type": "address[]"
        }
      ],
      "stateMutability": "view",
      "type": "function"
    },
    {
      "inputs": [],
      "name": "getTokenList",
      "outputs": [
        {
          "internalType": "address[]",
          "name": "",
          "type": "address[]"
        }
      ],
      "stateMutability": "view",
      "type": "function"
    },
    {
      "inputs": [
        {
          "internalType": "address",
          "name": "token",
          "type": "address"
        },
        {
          "internalType": "address",
          "name": "user",
          "type": "address"
        }
      ],
      "name": "getUserShareAmount",
      "outputs": [
        {
          "internalType": "uint256",
          "name": "",
          "type": "uint256"
        }
      ],
      "stateMutability": "view",
      "type": "function"
    },
    {
      "inputs": [
        {
          "internalType": "address",
          "name": "_riskFundAddr",
          "type": "address"
        }
      ],
      "name": "initialize",
      "outputs": [],
      "stateMutability": "nonpayable",
      "type": "function"
    },
    {
      "inputs": [],
      "name": "leverage",
      "outputs": [
        {
          "internalType": "uint256",
          "name": "",
          "type": "uint256"
        }
      ],
      "stateMutability": "view",
      "type": "function"
    },
    {
      "inputs": [],
      "name": "maintenanceMarginRate",
      "outputs": [
        {
          "internalType": "uint256",
          "name": "",
          "type": "uint256"
        }
      ],
      "stateMutability": "view",
      "type": "function"
    },
    {
      "inputs": [
        {
          "internalType": "uint256",
          "name": "",
          "type": "uint256"
        }
      ],
      "name": "matchIds",
      "outputs": [
        {
          "internalType": "uint256",
          "name": "",
          "type": "uint256"
        }
      ],
      "stateMutability": "view",
      "type": "function"
    },
    {
      "inputs": [
        {
          "components": [
            {
              "internalType": "string",
              "name": "name",
              "type": "string"
            },
            {
              "internalType": "address",
              "name": "token",
              "type": "address"
            },
            {
              "internalType": "address",
              "name": "makerAddr",
              "type": "address"
            },
            {
              "internalType": "uint256",
              "name": "takerId",
              "type": "uint256"
            },
            {
              "internalType": "uint256",
              "name": "size",
              "type": "uint256"
            },
            {
              "internalType": "enum ICommon.Direct",
              "name": "direct",
              "type": "uint8"
            },
            {
              "internalType": "uint256",
              "name": "marginAmount",
              "type": "uint256"
            },
            {
              "internalType": "uint256",
              "name": "maintenanceMargin",
              "type": "uint256"
            },
            {
              "internalType": "uint256",
              "name": "price",
              "type": "uint256"
            },
            {
              "internalType": "uint256",
              "name": "time",
              "type": "uint256"
            },
            {
              "internalType": "bool",
              "name": "locked",
              "type": "bool"
            }
          ],
          "internalType": "struct ICommon.MakerDeal",
          "name": "makerDeal",
          "type": "tuple"
        }
      ],
      "name": "newMakerDeal",
      "outputs": [
        {
          "internalType": "uint256",
          "name": "makerDealID",
          "type": "uint256"
        }
      ],
      "stateMutability": "nonpayable",
      "type": "function"
    },
    {
      "inputs": [],
      "name": "owner",
      "outputs": [
        {
          "internalType": "address",
          "name": "",
          "type": "address"
        }
      ],
      "stateMutability": "view",
      "type": "function"
    },
    {
      "inputs": [
        {
          "internalType": "address",
          "name": "",
          "type": "address"
        }
      ],
      "name": "poolType",
      "outputs": [
        {
          "internalType": "enum ICommon.PoolFlag",
          "name": "",
          "type": "uint8"
        }
      ],
      "stateMutability": "view",
      "type": "function"
    },
    {
      "inputs": [
        {
          "internalType": "address",
          "name": "",
          "type": "address"
        },
        {
          "internalType": "string",
          "name": "",
          "type": "string"
        },
        {
          "internalType": "uint256",
          "name": "",
          "type": "uint256"
        }
      ],
      "name": "positions",
      "outputs": [
        {
          "internalType": "uint256",
          "name": "value",
          "type": "uint256"
        },
        {
          "internalType": "uint256",
          "name": "size",
          "type": "uint256"
        }
      ],
      "stateMutability": "view",
      "type": "function"
    },
    {
      "inputs": [],
      "name": "privateMinMintAmount",
      "outputs": [
        {
          "internalType": "uint256",
          "name": "",
          "type": "uint256"
        }
      ],
      "stateMutability": "view",
      "type": "function"
    },
    {
      "inputs": [
        {
          "internalType": "address",
          "name": "_token",
          "type": "address"
        },
        {
          "internalType": "uint256",
          "name": "_amount",
          "type": "uint256"
        },
        {
          "internalType": "enum ICommon.PoolFlag",
          "name": "_priOrPub",
          "type": "uint8"
        },
        {
          "internalType": "string[]",
          "name": "_symbols",
          "type": "string[]"
        },
        {
          "internalType": "bytes[]",
          "name": "_prices",
          "type": "bytes[]"
        }
      ],
      "name": "provide",
      "outputs": [],
      "stateMutability": "payable",
      "type": "function"
    },
    {
      "inputs": [],
      "name": "renounceOwnership",
      "outputs": [],
      "stateMutability": "nonpayable",
      "type": "function"
    },
    {
      "inputs": [
        {
          "internalType": "address",
          "name": "_perpetual",
          "type": "address"
        },
        {
          "internalType": "address",
          "name": "_orderBook",
          "type": "address"
        },
        {
          "internalType": "address",
          "name": "_tradeAgent",
          "type": "address"
        },
        {
          "internalType": "address",
          "name": "_tradeStation",
          "type": "address"
        },
        {
          "internalType": "address",
          "name": "_poolAgent",
          "type": "address"
        },
        {
          "internalType": "address",
          "name": "_keeper",
          "type": "address"
        }
      ],
      "name": "setKeepers",
      "outputs": [],
      "stateMutability": "nonpayable",
      "type": "function"
    },
    {
      "inputs": [
        {
          "internalType": "address",
          "name": "_token",
          "type": "address"
        },
        {
          "internalType": "enum ICommon.PoolFlag",
          "name": "_flag",
          "type": "uint8"
        }
      ],
      "name": "setPoolType",
      "outputs": [],
      "stateMutability": "nonpayable",
      "type": "function"
    },
    {
      "inputs": [
        {
          "internalType": "uint256",
          "name": "_value",
          "type": "uint256"
        }
      ],
      "name": "setPrivateMinMintAmount",
      "outputs": [],
      "stateMutability": "nonpayable",
      "type": "function"
    },
    {
      "inputs": [
        {
          "internalType": "address",
          "name": "_token",
          "type": "address"
        },
        {
          "internalType": "uint256",
          "name": "_leverage",
          "type": "uint256"
        },
        {
          "internalType": "bool",
          "name": "_isRejectOrder",
          "type": "bool"
        },
        {
          "internalType": "bool",
          "name": "_autoAddMargin",
          "type": "bool"
        }
      ],
      "name": "setUserParam",
      "outputs": [],
      "stateMutability": "nonpayable",
      "type": "function"
    },
    {
      "inputs": [
        {
          "internalType": "address",
          "name": "",
          "type": "address"
        },
        {
          "internalType": "enum ICommon.PoolFlag",
          "name": "",
          "type": "uint8"
        }
      ],
      "name": "totalLockedLiquidity",
      "outputs": [
        {
          "internalType": "uint256",
          "name": "",
          "type": "uint256"
        }
      ],
      "stateMutability": "view",
      "type": "function"
    },
    {
      "inputs": [
        {
          "internalType": "address",
          "name": "newOwner",
          "type": "address"
        }
      ],
      "name": "transferOwnership",
      "outputs": [],
      "stateMutability": "nonpayable",
      "type": "function"
    },
    {
      "inputs": [
        {
          "internalType": "address",
          "name": "_token",
          "type": "address"
        },
        {
          "internalType": "uint256",
          "name": "_amount",
          "type": "uint256"
        },
        {
          "internalType": "enum ICommon.PoolFlag",
          "name": "_priOrPub",
          "type": "uint8"
        },
        {
          "internalType": "string[]",
          "name": "_symbols",
          "type": "string[]"
        },
        {
          "internalType": "bytes[]",
          "name": "_prices",
          "type": "bytes[]"
        }
      ],
      "name": "withdraw",
      "outputs": [],
      "stateMutability": "payable",
      "type": "function"
    }
  ],
  "bytecode": "0x608080604052346015576145f6908161001a8239f35b5f80fdfe60806040526004361015610019575b3461001557005b5f80fd5b5f5f3560e01c8063017364e81461192957806302996994146118445780630c8c3516146117b15780631f92a4da14611794578063273cbaa0146117205780632c86d98e1461170357806336ff6a70146116d95780633b3de031146116825780634e091b22146116515780635a92c628146115d35780635baf45fb1461069c57806360d32e8d1461142b578063669e01ee146114115780636768a2721461136b578063715018a6146112d4578063859d90a31461116957806389f00b6d1461114c5780638da5cb5b146111075780639409b029146110b2578063ba0efe0314611095578063c0a1483114611053578063c23e629f14610e6c578063c4d66de814610bc9578063cf946a56146106ef578063d7496060146106a1578063dc8d601c1461069c578063f26a3e1d14610315578063f2da708d146102f7578063f2fde38b146102ca5763f74c30491461016e575061000e565b346102c75760c06003193601126102c757610187611941565b61018f611957565b90604435906001600160a01b03821680920361001557606435916001600160a01b03831680930361001557608435916001600160a01b0383168093036100155760a435946001600160a01b038616809603610015576001600160a01b0380926101f6612ef4565b16806001600160a01b031960065416176006558752600e60205260408720600160ff1982541617905516806001600160a01b031960075416176007558552600e60205260408520600160ff19825416179055806001600160a01b031960085416176008558452600e60205260408420600160ff19825416179055806001600160a01b031960095416176009558352600e60205260408320600160ff198254161790558252600e60205260408220600160ff198254161790558152600e60205260408120600160ff1982541617905580f35b80fd5b50346102c75760206003193601126102c7576102f46102e7611941565b6102ef612ef4565b61294e565b80f35b50346102c757806003193601126102c7576020601254604051908152f35b50346102c75760e06003193601126102c757600435906024359060ff82168092036102c75760c43580151580910361001557338252600e60205261035f60ff6040842054166123e4565b838252601860205260408220545f198101908111610688576001600160a01b03600261038a83612455565b50015416936001600160a01b0360016103a284612455565b50015416918285526010602052604085206001600160a01b0387165f526020527f55a05fded01868e623bc311ab3e73d3cec2f0871392b36317648452d989ed1ce61010060405f206040516103f68161199e565b6001600160a01b03825416815260018201549182602083015260028101549182604082015260038201549081606082015261012060ff6008600486015495866080860152600581015460a0860152600681015460c0860152600781015460e0860152015481811615158985015260081c161515910152888b52600f60205260408b206001600160a01b038d165f5260205260405f205492604051948a86528d602087015260408601526060850152608084015260a083015260c0820152600a60e0820152a1604051926101a084019184831067ffffffffffffffff841117610674576080987f55a05fded01868e623bc311ab3e73d3cec2f0871392b36317648452d989ed1ce9461010094604052888752602087019789895260408801526060870152828a87015260a086015260c085015260443560e08501526064358285015260843561012085015260a43561014085015261016084019686885261018085019787895261056486613357565b5197519451151595511515968281526010602052604081206001600160a01b0383165f5260205260405f20906040519061059d8261199e565b6001600160a01b03835416825260018301548060208401526040600285015492838286015260038601549485606082015261012060ff600860048a01549960808b90860152600581015460a0860152600681015460c0860152600781015460e0860152015481811615158d85015260081c161515910152878152600f602052206001600160a01b0386165f5260205260405f2054946040519687526020870152604086015260608501528a84015260a083015260c0820152601460e0820152a1604051938452602084015260408301526060820152f35b634e487b7160e01b5f52604160045260245ffd5b602483634e487b7160e01b81526011600452fd5b611c09565b50346102c75760406003193601126102c7576001600160a01b0360406106c5611941565b92826106cf611957565b94168152600f6020522091165f52602052602060405f2054604051908152f35b50346102c75760206003193601126102c75760043567ffffffffffffffff8111610bc5576101606003198236030112610bc5576040519161072f83611981565b816004013567ffffffffffffffff8111610bc5576107539060043691850101611a48565b83526107616024830161196d565b60208401526107726044830161196d565b6040840152606482013560608401526084820135608084015260a48201356003811015610bc55760a084015260c482013560c084015260e482013560e0840152610100830190610104830135825261014461012085019361012481013585520135801515810361001557610140850152338152600e6020526107fa60ff6040832054166123e4565b61080d60c085015160e086015190611d7d565b610833816001600160a01b036020880151166001600160a01b0360408901511690612f53565b601254936001600160a01b0360208701511683526011602052604083206001600160a01b0380604089015116165f526020526108728560405f206130c2565b5060125468010000000000000000811015610bb1578060016108979201601255612455565b919091610b9e57865180519067ffffffffffffffff8211610b8a5781906108be8554612471565b601f8111610b3a575b50602090601f8311600114610ada578792610acf575b50508160011b915f199060031b1c19161782555b6001600160a01b036020880151166001600160a01b036001840191166001600160a01b03198254161790556001600160a01b036040880151166001600160a01b036002840191166001600160a01b031982541617905560608701516003830155608087015160048301556005820160a08801516003811015610abb57906109c093929160ff60ff19835416911617905560c0880151600683015560e0880151600783015585516008830155516009820155600a610140880151151591019060ff60ff1983541691151516179055565b60125460608601518352601860205260408320556001600160a01b0360208601511682526010602052604082206001600160a01b0380604088015116165f52602052610a3b600260405f2060038101610a1a858254611d7d565b905560048101610a30815460e08b015190611d7d565b905501918254611d5c565b90556001600160a01b036040850151166001600160a01b036014541614610a68575b602083604051908152f35b6001600160a01b036020850151169380519060a0810151926003841015610aa7575091610aa0939160806020979401519251936131f1565b5f80610a5d565b80634e487b7160e01b602492526021600452fd5b602486634e487b7160e01b81526021600452fd5b015190505f806108dd565b85885281882092601f1916885b818110610b225750908460019594939210610b0a575b505050811b0182556108f1565b01515f1960f88460031b161c191690555f8080610afd565b92936020600181928786015181550195019301610ae7565b90915084875260208720601f840160051c81019160208510610b80575b90601f859493920160051c01905b818110610b7257506108c7565b5f8155849350600101610b65565b9091508190610b57565b602486634e487b7160e01b81526041600452fd5b602484634e487b7160e01b815280600452fd5b602484634e487b7160e01b81526041600452fd5b5080fd5b3461001557602060031936011261001557610be2611941565b7ff0c57e16840df040f15088dc2f81fe391c3923bec73e23a9662efc9c229c6a005460ff8160401c16159167ffffffffffffffff821680159081610e64575b6001149081610e5a575b159081610e51575b50610e2957818360017fffffffffffffffffffffffffffffffffffffffffffffffff00000000000000006001600160a01b039516177ff0c57e16840df040f15088dc2f81fe391c3923bec73e23a9662efc9c229c6a0055610dd4575b50610c98613ad9565b610ca0613ad9565b610ca93361294e565b166001600160a01b03196005541617600555306001600160a01b03196014541617601455305f52600e60205260405f20600160ff19825416179055335f52600e60205260405f20600160ff19825416179055600160ff195f5416175f55670de0b6b3a7640000600155670de0b6b3a7640000601555600a60025567016345785d8a000060035567016345785d8a0000600455610d4157005b7fffffffffffffffffffffffffffffffffffffffffffffff00ffffffffffffffff7ff0c57e16840df040f15088dc2f81fe391c3923bec73e23a9662efc9c229c6a0054167ff0c57e16840df040f15088dc2f81fe391c3923bec73e23a9662efc9c229c6a00557fc7f505b2f371ae2175ee4913f4499e1f2633a7b5936321eed1cdaeb6115181d2602060405160018152a1005b7fffffffffffffffffffffffffffffffffffffffffffffff0000000000000000001668010000000000000001177ff0c57e16840df040f15088dc2f81fe391c3923bec73e23a9662efc9c229c6a005583610c8f565b7ff92ee8a9000000000000000000000000000000000000000000000000000000005f5260045ffd5b90501584610c33565b303b159150610c2b565b849150610c21565b3461001557604060031936011261001557602435600435610e8c81612455565b5060018101906001600160a01b038254165f52601060205260405f206001600160a01b0333165f5260205260405f209160028201336001600160a01b038254160361100f576002840193845491878310610fcb57600160ff600a87015416151503610f875760066001600160a01b039560038a947fc8f742aa90a6e6851d2252fa58ed695d3ca295b55bf5f1c2164a360cc8a093e299610f2f87610f5b99611d5c565b905501610f3d858254611d7d565b905501610f4b838254611d7d565b9055848085541691541690612f53565b5416926006610f6984612455565b500154604080519485526020850192909252908301523391606090a3005b606460405162461bcd60e51b815260206004820152601660248201527f4c6971756964697479207374617475732077726f6e67000000000000000000006044820152fd5b606460405162461bcd60e51b815260206004820152601060248201527f45786365656420617661696c61626c65000000000000000000000000000000006044820152fd5b606460405162461bcd60e51b815260206004820152600960248201527f4e6f74206d616b657200000000000000000000000000000000000000000000006044820152fd5b34610015576020600319360112610015576001600160a01b03611074611941565b165f526013602052602060ff60405f2054166110936040518092611cd3565bf35b34610015575f600319360112610015576020600354604051908152f35b34610015576001600160a01b036110c836611bda565b91165f52601660205260405f209060048110156110f3575f52602052602060405f2054604051908152f35b634e487b7160e01b5f52602160045260245ffd5b34610015575f6003193601126100155760206001600160a01b037f9016d09d72d40fdae2fd8ceac6b6234c7706214fd39c1cd1e609a0528c1993005416604051908152f35b34610015575f600319360112610015576020600454604051908152f35b3461001557604060031936011261001557611182611941565b6001600160a01b03611192611957565b915f6101206040516111a38161199e565b8281528260208201528260408201528260608201528260808201528260a08201528260c08201528260e0820152826101008201520152165f5260106020526001600160a01b0360405f2091165f5260205261014060405f20604051906112088261199e565b6001600160a01b03815416918281526001820154916020820192835260028101546040830190815260038201546060840190815260048301546080850190815260058401549160a0860192835260068501549360c08701948552600860078701549660e0890197885201549760ff6101206101008a0199828c1615158b52019960081c1615158952604051998a525160208a01525160408901525160608801525160808701525160a08601525160c08501525160e0840152511515610100830152511515610120820152f35b34610015575f600319360112610015576112ec612ef4565b5f6001600160a01b037f9016d09d72d40fdae2fd8ceac6b6234c7706214fd39c1cd1e609a0528c199300546001600160a01b031981167f9016d09d72d40fdae2fd8ceac6b6234c7706214fd39c1cd1e609a0528c19930055167f8be0079c531659141344cd1fd0a4f28419497f9722a3daafe3b4186f6b6457e08280a3005b3461001557604060031936011261001557611384611941565b6001600160a01b03611394611957565b91165f5260116020526001600160a01b0360405f2091165f5260205260405f206040519081602082549182815201915f5260205f20905f5b8181106113fb576113f7856113e3818703826119bb565b604051918291602083526020830190611ca0565b0390f35b82548452602090930192600192830192016113cc565b61142961141d36611a66565b94939093929192612594565b005b34610015576020600319360112610015575f61014060405161144c81611981565b606081528260208201528260408201528260608201528260808201528260a08201528260c08201528260e082015282610100820152826101208201520152611495600435612455565b506040516114a281611981565b6114ab826124a9565b81526001600160a01b03600183015416602082019081526001600160a01b036002840154169160408101928352600384015492606082019384526004850154946080830195865260ff6005820154169160a0840160038410156110f357610180978594825260068401549760c086019889526001600160a01b0360078601549460e088019586528161157e60ff600a60088b01549a6101008d019b8c5261012060098201549d019c8d520154169a61014081019b15158c526040519e8f9160208352519161016060208201520190611c7b565b9a511660408d0152511660608b01525160808a01525160a0890152519560038710156110f357879660c08801525160e08701525161010086015251610120850152516101408401525115156101608301520390f35b34610015576020600319360112610015576001600160a01b036115f4611941565b165f52600c60205260405f206040519081602082549182815201915f5260205f20905f5b81811061163b576113f78561162f818703826119bb565b60405191829182611b98565b8254845260209093019260019283019201611618565b3461001557602060031936011261001557335f52600e60205261167a60ff60405f2054166123e4565b600435601555005b34610015576001600160a01b0361169836611bda565b9190335f52600e6020526116b260ff60405f2054166123e4565b165f52601360205260405f209060048110156110f35760ff60ff1983541691161790555f80f35b34610015576020600319360112610015576004355f526018602052602060405f2054604051908152f35b34610015575f600319360112610015576020600254604051908152f35b34610015575f60031936011261001557604051806020600a54918281520190600a5f527fc65a7bb8d6351c1cf70c95a316cc6a92839c986682d98bc35f958f4883f9d2a8905f5b81811061177e576113f78561162f818703826119bb565b8254845260209093019260019283019201611767565b34610015575f600319360112610015576020601554604051908152f35b34610015576060600319360112610015576117ca611941565b60243567ffffffffffffffff81116100155760206117ed81923690600401611a48565b6001600160a01b0360443594165f526017825260405f20604051938285935191829101845e82019081520301902060028210156100155760409161183091611b71565b506001815491015482519182526020820152f35b346100155760806003193601126100155761185d611941565b60243590604435801515810361001557606435918215158303610015576001600160a01b03165f52601060205260405f206001600160a01b0333165f5260205260405f20606484116118e5576008816114299560056118d39401550191829061ff001961ff00835492151560081b169116179055565b9060ff60ff1983541691151516179055565b606460405162461bcd60e51b815260206004820152600c60248201527f6f7574206f6620302d31303000000000000000000000000000000000000000006044820152fd5b61142961193536611a66565b94939093929192611d8a565b600435906001600160a01b038216820361001557565b602435906001600160a01b038216820361001557565b35906001600160a01b038216820361001557565b610160810190811067ffffffffffffffff82111761067457604052565b610140810190811067ffffffffffffffff82111761067457604052565b90601f601f19910116810190811067ffffffffffffffff82111761067457604052565b67ffffffffffffffff81116106745760051b60200190565b67ffffffffffffffff811161067457601f01601f191660200190565b929192611a1e826119f6565b91611a2c60405193846119bb565b829481845281830111610015578281602093845f960137010152565b9080601f8301121561001557816020611a6393359101611a12565b90565b9060a0600319830112610015576004356001600160a01b03811681036100155791602435916044356004811015610015579160643567ffffffffffffffff81116100155781602382011215610015578060040135611ac3816119de565b91611ad160405193846119bb565b8183526024602084019260051b820101918483116100155760248201905b838210611b4257505050509160843567ffffffffffffffff811161001557826023820112156100155780600401359267ffffffffffffffff84116100155760248460051b83010111610015576024019190565b813567ffffffffffffffff811161001557602091611b668860248594880101611a48565b815201910190611aef565b906002811015611b845760011b01905f90565b634e487b7160e01b5f52603260045260245ffd5b60206040818301928281528451809452019201905f5b818110611bbb5750505090565b82516001600160a01b0316845260209384019390920191600101611bae565b6003196040910112610015576004356001600160a01b0381168103610015579060243560048110156100155790565b34610015576020600319360112610015576001600160a01b03611c2a611941565b165f52600d60205260405f206040519081602082549182815201915f5260205f20905f5b818110611c65576113f78561162f818703826119bb565b8254845260209093019260019283019201611c4e565b90601f19601f602080948051918291828752018686015e5f8582860101520116010190565b90602080835192838152019201905f5b818110611cbd5750505090565b8251845260209384019390920191600101611cb0565b9060048210156110f35752565b929192611cec826119de565b93611cfa60405195866119bb565b602085848152019260051b8201918183116100155780935b838510611d20575050505050565b843567ffffffffffffffff811161001557820183601f8201121561001557602091611d518583858095359101611a12565b815201940193611d12565b91908203918211611d6957565b634e487b7160e01b5f52601160045260245ffd5b91908201809211611d6957565b9290936001600160a01b03841695865f52601360205260ff60405f20541660048110156110f3571580156123ba575b1561237657611dd391611dcd913691611ce0565b82612a61565b9060048310156110f3576001830361206b57855f52600f60205260405f206001600160a01b0333165f5260205260405f2054851161202757855f52600f60205260405f206001600160a01b0333165f5260205260405f20611e35868254611d5c565b9055855f52600f60205260405f206001600160a01b038060145416165f5260205260405f20611e65868254611d5c565b9055855f52600f60205260405f206001600160a01b0333165f5260205260405f205460155411611f8b575b611ea1611eb092611ea792866138e8565b8561291d565b60015490612930565b845f52601060205260405f206001600160a01b038060145416165f5260205260405f20926002840190815491828411611f4757611f05611f0f9488946001611f1f9901611efe838254611d5c565b9055611d5c565b90555b3390612c0c565b6040519283526020830190611cd3565b7fb9da3f3df62c28aca604806cc6ee9678189d7591ef511a77bb040fa8361e9e0260403392a3565b606460405162461bcd60e51b815260206004820152601c60248201527f776974686472617720616d6f756e7420697320746f6f206c61726765000000006044820152fd5b93611ea1611eb092611fc0611ea793895f52600f60205260405f206001600160a01b0333165f5260205260405f205490611d7d565b5f898152600f60209081526040808320338452909152808220546014546001600160a01b03168352912080549299929091611ffa91611d5c565b9055885f52600f60205260405f206001600160a01b0333165f526020525f60408120559250925050611e90565b606460405162461bcd60e51b815260206004820152601260248201527f736861726520697320746f6f206c6172676500000000000000000000000000006044820152fd5b50509190600283145f1461237057835f52601060205260405f206001600160a01b0333165f5260205260405f2092604051936120a68561199e565b6001600160a01b0381541685526001810154602086019081526002820154906040870182815287600385015493606082019485526004860154936080830194855260058701549560a0840196875260068801549760c08501988952600860078201549160e0870192835201549360ff61012061010088019782881615158952019560081c16151585528c1161232c576121408c8451611d5c565b835261214d8c8751611d5c565b865281511580612322575b80612316575b6122fc575b9b8b9c839c9a9b9c5180155f146121f3575050505050505050505050611f0f90611f1f93865f52600d60205261219c3360405f20613823565b50865f52601060205260405f206001600160a01b0333165f526020525f6008604082208281558260018201558260028201558260038201558260048201558260058201558260068201558260078201550155611f08565b9091929394959697999c989a50601554116122b857611f1f9b611f0f9a8f9a8f9b956122b39a61229c986008985f52601060205260405f206001600160a01b0333165f526020526001600160a01b038060405f20995116166001600160a01b03198954161788555160018801555160028701555160038601555160048501555160058401555160068301555160078201550192511515839060ff60ff1983541691151516179055565b51815461ff00191690151560081b61ff0016179055565b611f08565b606460405162461bcd60e51b815260206004820152601860248201527f7374617920616d6f756e7420697320746f6f20736d616c6c00000000000000006044820152fd5b98999a61230b90835190611d7d565b5f83529a9998612163565b5082516015541161215e565b5082511515612158565b606460405162461bcd60e51b815260206004820152601360248201527f616d6f756e7420697320746f6f206c61726765000000000000000000000000006044820152fd5b50505050565b606460405162461bcd60e51b815260206004820152601360248201527f77726f6e6720776974686472617720666c6167000000000000000000000000006044820152fd5b50865f52601360205260ff60405f20541660048510156110f35760048110156110f3578414611db9565b156123eb57565b608460405162461bcd60e51b815260206004820152602160248201527f63616c6c6572206973206e6f74207072697661746520706f6f6c206b6565706560448201527f72000000000000000000000000000000000000000000000000000000000000006064820152fd5b601254811015611b845760125f52600b60205f20910201905f90565b90600182811c9216801561249f575b602083101461248b57565b634e487b7160e01b5f52602260045260245ffd5b91607f1691612480565b9060405191825f8254926124bc84612471565b808452936001811690811561252757506001146124e3575b506124e1925003836119bb565b565b90505f9291925260205f20905f915b81831061250b5750509060206124e1928201015f6124d4565b60209193508060019154838589010152019101909184926124f2565b602093506124e195925060ff1991501682840152151560051b8201015f6124d4565b1561255057565b606460405162461bcd60e51b815260206004820152600960248201527f746f6f20736d616c6c00000000000000000000000000000000000000000000006044820152fd5b919290936001600160a01b03831695865f52601360205260ff60405f20541660048110156110f3571580156128f3575b156128af576125d891611dcd913691611ce0565b906126016125e63085612d1c565b6125f287303388612dc4565b6125fc3086612d1c565b611d5c565b850361286b5760048410156110f357600184036127a1579161265b612661926127389594612633600154891015612549565b885f52600c6020526126483360405f20613a81565b506126556001548961291d565b936138e8565b90612930565b845f52601060205260405f206001600160a01b038060145416165f5260205260405f209060018201612694868254611d7d565b9055600282016126a5868254611d7d565b9055855f52600f60205260405f206001600160a01b038060145416165f5260205260405f206126d5828254611d7d565b9055855f52600f60205260405f206001600160a01b0333165f5260205261270160405f20918254611d7d565b90556001600160a01b038154161561276f575b505b835f52600b60205260405f205415612760576040519283526020830190611cd3565b7ff0a113f51f7b2533b02cec05d7c882e65dae3fe08550753b743335926b6c0ab160403392a3565b61276984613a27565b50611f0f565b60088101600160ff198254161790556001600160a01b038060145416166001600160a01b03198254161790555f612714565b5050506002810361286657612738906127be601554841015612549565b835f52601060205260405f206001600160a01b0333165f52602052600260405f20855f52600d6020526128023360405f206001915f520160205260405f2054151590565b1561282c575b60018101612817868254611d7d565b905501612825848254611d7d565b9055612716565b855f52600d6020526128413360405f20613a81565b5060088101805460ff1916600117905580546001600160a01b03191633178155612808565b505050565b606460405162461bcd60e51b815260206004820152600f60248201527f756e7375697461626c6520636f696e00000000000000000000000000000000006044820152fd5b606460405162461bcd60e51b815260206004820152601260248201527f77726f6e67206465706f73697420666c616700000000000000000000000000006044820152fd5b50865f52601360205260ff60405f20541660048610156110f35760048110156110f35785146125c4565b81810292918115918404141715611d6957565b811561293a570490565b634e487b7160e01b5f52601260045260245ffd5b6001600160a01b031680156129dd576001600160a01b037f9016d09d72d40fdae2fd8ceac6b6234c7706214fd39c1cd1e609a0528c19930054826001600160a01b03198216177f9016d09d72d40fdae2fd8ceac6b6234c7706214fd39c1cd1e609a0528c19930055167f8be0079c531659141344cd1fd0a4f28419497f9722a3daafe3b4186f6b6457e05f80a3565b7f1e4fbdf7000000000000000000000000000000000000000000000000000000005f525f60045260245ffd5b9080602083519182815201916020808360051b8301019401925f915b838310612a3457505050505090565b9091929394602080612a5283601f1986600196030187528951611c7b565b97019301930191939290612a25565b90612aad916001600160a01b0360065416916040519384927fb5c926f4000000000000000000000000000000000000000000000000000000008452604060048501526044840190612a09565b600319838203016024840152815180825260208201916020808360051b8301019401925f915b838310612b945750505050509181805f94039134905af1908115612b89575f91612afb575090565b90503d805f833e612b0c81836119bb565b8101906020818303126100155780519067ffffffffffffffff821161001557019080601f83011215610015578151612b43816119de565b92612b5160405194856119bb565b81845260208085019260051b82010192831161001557602001905b828210612b795750505090565b8151815260209182019101612b6c565b6040513d5f823e3d90fd5b919395509193602080612bb383601f1986600196030187528951611c7b565b97019301930190928795949293612ad3565b3d15612bef573d90612bd6826119f6565b91612be460405193846119bb565b82523d5f602084013e565b606090565b90816020910312610015575180151581036100155790565b91611ea7612c2b91612c25612c208661399b565b612d0e565b9061291d565b9182612c3657505050565b5f928380937fffffffff0000000000000000000000000000000000000000000000000000000060196020604051612c6e6040826119bb565b828152017f7472616e7366657228616464726573732c75696e74323536290000000000000081522016926001600160a01b036040519260208401958652166024830152604482015260448152612cc56064826119bb565b51925af1612cd1612bc5565b81612cdf575b501561001557565b8051801592508215612cf4575b50505f612cd7565b612d079250602080918301019101612bf4565b5f80612cec565b604d8111611d6957600a0a90565b6001600160a01b03604051927f70a082310000000000000000000000000000000000000000000000000000000084521660048301526020826024816001600160a01b0385165afa918215612b89575f92612d8e575b5061265b612c20612d88611a63946001549061291d565b9261399b565b91506020823d602011612dbc575b81612da9602093836119bb565b810103126100155790519061265b612d71565b3d9150612d9c565b909192611ea7612dda91612c25612c208561399b565b9283612de65750505050565b5f80949381946001600160a01b037fffffffff000000000000000000000000000000000000000000000000000000006025604051612e256060826119bb565b8181527f7432353629000000000000000000000000000000000000000000000000000000604060208301927f7472616e7366657246726f6d28616464726573732c616464726573732c75696e84520152201694816040519460208601978852166024850152166044830152606482015260648152612ea46084826119bb565b51925af1612eb0612bc5565b81612ec5575b5015610015575f808080612370565b8051801592508215612eda575b50505f612eb6565b612eed9250602080918301019101612bf4565b5f80612ed2565b6001600160a01b037f9016d09d72d40fdae2fd8ceac6b6234c7706214fd39c1cd1e609a0528c19930054163303612f2757565b7f118cdaa7000000000000000000000000000000000000000000000000000000005f523360045260245ffd5b906001600160a01b0380601454169116145f14612faf576001600160a01b03612f95911691825f52601660205260405f2060015f5260205260405f2054611d7d565b905f52601660205260405f2060015f5260205260405f2055565b6001600160a01b03612fda911691825f52601660205260405f2060025f5260205260405f2054611d7d565b905f52601660205260405f2060025f5260205260405f2055565b905f906001600160a01b0380601454169116145f146130815780156130555761303e6001600160a01b036040931693848352601660205283832060015f52602052835f2054611d7d565b92815260166020522060015f5260205260405f2055565b506001600160a01b03612f95911691825f52601660205260405f2060015f5260205260405f2054611d5c565b506001600160a01b03612fda911691825f52601660205260405f2060025f5260205260405f2054611d5c565b8054821015611b84575f5260205f2001905f90565b906001820191815f528260205260ff60405f2054166131ea575f908054805b8084106131a95750680100000000000000008110156106745761312461310e8260018794018555846130ad565b819391549060031b91821b915f19901b19161790565b905580545f198101908111611d6957908392915b828111613168575061314d9161310e916130ad565b90555f5260205260405f20600160ff19825416179055600190565b919250905f198101818111611d695761318190836130ad565b90549060031b1c61319561310e83856130ad565b90558015611d6957839291905f1901613138565b926131b48482611d7d565b60011c90856131c383866130ad565b90549060031b1c105f146131e3575060018101809111611d6957926130e1565b93506130e1565b5050505f90565b6020916001600160a01b038392969596165f526017825260405f20604051938285935191829101845e8201908152030190209060038110156110f35760ff5f199116019160ff8311611d695761326d61326561325d61325561327896600196611b71565b50938761291d565b845490612930565b825490611d7d565b815501918254611d7d565b9055565b602092939450906001600160a01b038392165f526017825260405f20604051938285935191829101845e8201908152030190209060038110156110f35760ff5f1991160160ff8111611d69576132d191611b71565b5060018101918254808211613313578082036132f1575050905f80925555565b82611efe613278945461330d84613308878461291d565b612930565b90611d5c565b606460405162461bcd60e51b815260206004820152601c60248201527f736861726520616d6f756e7420697320696e73756666696369656e74000000006044820152fd5b60c081016133658151612455565b5060018101906001600160a01b03825416805f52601060205260405f209060028301906001600160a01b03825416926001600160a01b0384165f5260205260405f20906060880193600160ff865116145f146135055750506133c8908488613b30565b6134fd577fbfad1a61f82cb671c3dea6c7a473b76cd9e73e3b3f286edda763e46095d0434b95610140956101208201519060029482156134ed575b5160ff166134a4576001600160a01b038454166001600160a01b0360145416145f14613490576001600160a01b0380600360ff815b16985b0154985416945416918884015191519261018061016086015195015195604051998a5260208a015260408901526060880152608087015260a086015260c085015260e0840152610100830152610120820152a1565b6001600160a01b0380600360ff6001613438565b6001600160a01b038454166001600160a01b0360145416145f146134d9576001600160a01b0380600360ff60025b169861343b565b6001600160a01b0380600360ff60046134d2565b6004870154600196509250613403565b505050505050565b9195509391969592506001600160a01b0360145416146137e4575b6101208501805180613760575050946001600160a01b036135846135c19388600a61357e9a0160ff19815416905560076006820154910154998a92885f52601160205260405f208680895416165f5260205260405f20905190613e69565b50611d7d565b916002860197613595848a54611d7d565b8955600387016135a6858254611d5c565b90556135b760048801918254611d5c565b9055541683612ff4565b60e083018051909190156136e7578151610180850190808252865481115f1461369b575084935f9360019793889360406020990151613616575b5050500161360c8154835490611d5c565b9055558281520152565b61366961367d935161362a88548092611d5c565b9061363485613f4a565b808311613685575b5050613656816001600160a01b0360055416309087612dc4565b306001600160a01b036005541685614010565b6001600160a01b0360065416905191612c0c565b5f80806135fb565b6136929192508092611d7d565b83525f8061363c565b905060406132789594939401516136ca575b50506136c0600183519201918254611d5c565b9055518254611d5c565b6136e0916001600160a01b036006541690612c0c565b5f806136ad565b929390506101008401918251908161370157505050505050565b610160946001926040880151613742575b5050016137228154845190611d7d565b90556137318154835190611d7d565b9055519101525f80808080806134fd565b613759916001600160a01b03600654163091612dc4565b5f80613712565b925095906006810196875493613776908561291d565b60048301918254918261378891612930565b9560078795019081549084845161379f908461291d565b906137a991612930565b9c6137b68e9a8b93611d5c565b90556137c191611d5c565b9055516137cd91611d5c565b90556135846135c1936001600160a01b0392611d7d565b6101208501518015613818575b6138139060ff6005840154169060088401549161380d856124a9565b8761327c565b613520565b5060048101546137f1565b906001820191815f528260205260405f20548015155f146138e0575f198101818111611d695782545f19810191908211611d69578181036138ab575b50505080548015613897575f19019061387882826130ad565b8154905f199060031b1b19169055555f526020525f6040812055600190565b634e487b7160e01b5f52603160045260245ffd5b6138cb6138bb61310e93866130ad565b90549060031b1c928392866130ad565b90555f528360205260405f20555f808061385f565b505050505f90565b90613945926001600160a01b03602093613957826009541693604051978896879586957f70bcbca2000000000000000000000000000000000000000000000000000000008752166004860152606060248601526064850190612a09565b90600319848303016044850152611ca0565b03915afa908115612b89575f9161396c575090565b90506020813d602011613993575b81613987602093836119bb565b81010312610015575190565b3d915061397a565b60206001600160a01b03916004604051809481937f313ce567000000000000000000000000000000000000000000000000000000008352165afa8015612b89575f906139ea575b60ff91501690565b506020813d602011613a1f575b81613a04602093836119bb565b81010312610015575160ff811681036100155760ff906139e2565b3d91506139f7565b805f52600b60205260405f2054155f14613a7c57600a546801000000000000000081101561067457613a6561310e826001859401600a55600a6130ad565b9055600a54905f52600b60205260405f2055600190565b505f90565b5f828152600182016020526040902054613ad357805490680100000000000000008210156106745782613abe61310e8460018096018555846130ad565b90558054925f520160205260405f2055600190565b50505f90565b60ff7ff0c57e16840df040f15088dc2f81fe391c3923bec73e23a9662efc9c229c6a005460401c1615613b0857565b7fd7e6bcf8000000000000000000000000000000000000000000000000000000005f5260045ffd5b916001600160a01b03600183015416926001600160a01b03600284015416936006840194855490613b676007870192835490611d7d565b956002860197613b78888a54611d7d565b93848a556003880190613b8c8a8354611d5c565b8255613ba060048a01918254905490611d5c565b905560e08701908151906101808901968288528083115f14613d2257505050613c11915051613bd18a548092611d5c565b90613bdb87613f4a565b90818311613d0c575b5050613bfe816001600160a01b0360055416309089612dc4565b306001600160a01b036005541687614010565b60018601613c2281548a5490611d5c565b90555f8855600160208601525b613c40600184519701968754611d5c565b8655613c4e83518954611d5c565b885582515f97808210613cf4575b5050613c749085613c6e898651611d7d565b916140b8565b15613c9d57505050509081613c8d82613c969454611d5c565b90558254611d5c565b9055600190565b946136699192939560019786613cb784613cef9954611d5c565b9055613cc4838254611d5c565b9055613cdc826001600160a01b036005541687612c0c565b6001600160a01b03600554169085614064565b525f90565b613c7492985090613d0491611d5c565b96905f613c5c565b81925090613d1991611d7d565b85525f80613be4565b90919250613d3284548094611d5c565b60088b015460ff81169081613e5a575b5080613e50575b613d57575050505050613c2f565b7fc8f742aa90a6e6851d2252fa58ed695d3ca295b55bf5f1c2164a360cc8a093e29a50613e3d975091613e1c94989c6003979c92613e159594613dc3613db6613dae613de79f61014060048e01549101519061291d565b8c549061291d565b6133086001548092612930565b9082613dcf8383611d7d565b11613e4557613dde9250611d7d565b9a8b8095611d7d565b8a55613df8846125fc858454611d5c565b9055613e0e83613e09848454611d7d565b611d7d565b9055611d7d565b888a612f53565b01549154604051938493846040919493926060820195825260208201520152565b0390a3600190565b50509a8b8095611d7d565b5081811115613d49565b60ff915060081c16155f613d42565b9060018201815f528060205260ff60405f205416156131ea578254905f5b828110613e975750505050505f90565b83613ea282876130ad565b90549060031b1c14613eb657600101613e87565b93945f198301928311949093919290855b611d695781811015613f08576001810190818111611d6957613eeb600192896130ad565b90549060031b1c613eff61310e838b6130ad565b90550185613ec7565b5050919390925080548015613897575f190190613f2582826130ad565b8154905f199060031b1b19169055555f5260205260405f2060ff198154169055600190565b6001600160a01b0360055416613f608183612d1c565b91604051917fdd62ed3e00000000000000000000000000000000000000000000000000000000835260048301523060248301526020826044816001600160a01b0385165afa918215612b89575f92613fda575b5061265b612c20612d88613fca946001549061291d565b808211613fd5575090565b905090565b91506020823d602011614008575b81613ff5602093836119bb565b810103126100155790519061265b613fb3565b3d9150613fe8565b9192909281156123705760606001600160a01b0380807feb42cf637f927243245c50b4bf7fe105fe4f4d26209102240f2ba3d8e27a7df89460405196600988526020880152426040880152169616941692a4565b9192909281156123705760606001600160a01b0380807feb42cf637f927243245c50b4bf7fe105fe4f4d26209102240f2ba3d8e27a7df89460405196600888526020880152426040880152169616941692a4565b909160018201926001600160a01b038454165f52601160205260405f209160028401926001600160a01b0380855416165f5260205260405f2061410160c0840191825190613e69565b506001600160a01b03865416926001600160a01b038554169061413b600788019586549361413560068b0195865490611d7d565b91612ff4565b6001600160a01b03885416805f52601360205260ff60405f20541660048110156110f35715806145b5575b80614596575b6141dc575b505050505050916001600160a01b03600a9354166001600160a01b0360145416146141a5575b500160ff1981541690555f90565b6001600160a01b036141d691541660ff6005840154166004840154906008850154926141d0866124a9565b9061327c565b5f614197565b6001600160a01b0360095416906001600160a01b036014541660048a0160606101408254960195608487519160405197889384927fd112d0e9000000000000000000000000000000000000000000000000000000008452896004850152886024850152604484015260648301525afa918215612b89575f5f955f9461453b575b506001600160a01b03166142735750505050614171565b614285838697989a9d999b9e96611d7d565b935f52601060205260405f20906001600160a01b03165f5260205260405f209360018501928c8454906142b791611d7d565b845560028601968d8854906142cb91611d7d565b6003880197878954906142dd91611d7d565b895560040196838854906142f091611d7d565b88556142fb91611d5c565b88558a558d556014546001600160a01b03166001600160a01b03168b546001600160a01b031916178b5580546001600160a01b0316600589015460ff169083549160088b019283549161434d8d6124a9565b614356946131f1565b81546001600160a01b03165f52601160205260405f208c546001600160a01b03166001600160a01b03165f5260205260405f208b51614394916130c2565b508d82546001600160a01b0316908d546001600160a01b031690548c546143ba91611d7d565b906143c492612f53565b5490546001600160a01b03169a546001600160a01b031697600301549c8d9254998b5190549154926040519485528d60208601528a60408601528b6060860152608085015260a084015260c083015260e08201526101008101600390526101207f2156f6f6f776548a0c2a805aee597ff49b812da0546e64c659347a40c8f3b6e491a15492549154905490885f52600f60205260405f206014546001600160a01b03166001600160a01b03165f5260205260405f205492604051948a865287602087015260408601526060850152608084015260a083015260c082015260e08101600390526101007f55a05fded01868e623bc311ab3e73d3cec2f0871392b36317648452d989ed1ce91a151925193604051968752602087015260408601526060850152608084015260a083015260c082015f905260e08201526101008101600190526101208101600590526101407fbfad1a61f82cb671c3dea6c7a473b76cd9e73e3b3f286edda763e46095d0434b91a1600190565b93505093506060823d60601161458e575b81614559606093836119bb565b81010312610015578151936001600160a01b038516850361001557602083015160409093015192946001600160a01b0361425c565b3d915061454c565b506001600160a01b038754166001600160a01b0360145416141561416c565b5060ff5f541661416656fea26469706673582212203d289d0aee892f7738fdf66ac426f4ed25786504f5c5d2464d8dd251c80489e064736f6c634300081c0033",
  "linkReferences": {},
  "deployedLinkReferences": {}
}