{
  "_format": "hh-sol-artifact-1",
  "contractName": "PrivatePool",
  "sourceName": "contracts/PrivatePool.sol",
  "abi": [
    {
      "inputs": [],
      "name": "InvalidInitialization",
      "type": "error"
    },
    {
      "inputs": [],
      "name": "NotInitializing",
      "type": "error"
    },
    {
      "inputs": [
        {
          "internalType": "address",
          "name": "owner",
          "type": "address"
        }
      ],
      "name": "OwnableInvalidOwner",
      "type": "error"
    },
    {
      "inputs": [
        {
          "internalType": "address",
          "name": "account",
          "type": "address"
        }
      ],
      "name": "OwnableUnauthorizedAccount",
      "type": "error"
    },
    {
      "anonymous": false,
      "inputs": [
        {
          "indexed": false,
          "internalType": "address",
          "name": "token",
          "type": "address"
        },
        {
          "indexed": false,
          "internalType": "address",
          "name": "holder",
          "type": "address"
        },
        {
          "indexed": false,
          "internalType": "string",
          "name": "name",
          "type": "string"
        },
        {
          "indexed": false,
          "internalType": "enum ICommon.Direct",
          "name": "direct",
          "type": "uint8"
        },
        {
          "indexed": false,
          "internalType": "uint256",
          "name": "value",
          "type": "uint256"
        },
        {
          "indexed": false,
          "internalType": "uint256",
          "name": "size",
          "type": "uint256"
        },
        {
          "indexed": false,
          "internalType": "uint256",
          "name": "margin",
          "type": "uint256"
        },
        {
          "indexed": false,
          "internalType": "uint256",
          "name": "freeze",
          "type": "uint256"
        }
      ],
      "name": "AccountPosition",
      "type": "event"
    },
    {
      "anonymous": false,
      "inputs": [
        {
          "indexed": true,
          "internalType": "address",
          "name": "maker",
          "type": "address"
        },
        {
          "indexed": true,
          "internalType": "address",
          "name": "token",
          "type": "address"
        },
        {
          "indexed": false,
          "internalType": "uint256",
          "name": "makerDealId",
          "type": "uint256"
        },
        {
          "indexed": false,
          "internalType": "uint256",
          "name": "amount",
          "type": "uint256"
        },
        {
          "indexed": false,
          "internalType": "uint256",
          "name": "margin",
          "type": "uint256"
        }
      ],
      "name": "AddMargin",
      "type": "event"
    },
    {
      "anonymous": false,
      "inputs": [
        {
          "indexed": false,
          "internalType": "address",
          "name": "token",
          "type": "address"
        },
        {
          "indexed": false,
          "internalType": "address",
          "name": "maker",
          "type": "address"
        },
        {
          "indexed": false,
          "internalType": "uint256",
          "name": "amount",
          "type": "uint256"
        },
        {
          "indexed": false,
          "internalType": "uint256",
          "name": "availableAmount",
          "type": "uint256"
        },
        {
          "indexed": false,
          "internalType": "uint256",
          "name": "lockedAmount",
          "type": "uint256"
        },
        {
          "indexed": false,
          "internalType": "uint256",
          "name": "maintenanceMargin",
          "type": "uint256"
        },
        {
          "indexed": false,
          "internalType": "uint256",
          "name": "share",
          "type": "uint256"
        },
        {
          "indexed": false,
          "internalType": "uint256",
          "name": "flag",
          "type": "uint256"
        }
      ],
      "name": "BalanceOfMaker",
      "type": "event"
    },
    {
      "anonymous": false,
      "inputs": [
        {
          "indexed": false,
          "internalType": "uint256",
          "name": "dealID",
          "type": "uint256"
        },
        {
          "indexed": false,
          "internalType": "address",
          "name": "token",
          "type": "address"
        },
        {
          "indexed": false,
          "internalType": "address",
          "name": "maker",
          "type": "address"
        },
        {
          "indexed": false,
          "internalType": "enum ICommon.Direct",
          "name": "direct",
          "type": "uint8"
        },
        {
          "indexed": false,
          "internalType": "uint256",
          "name": "size",
          "type": "uint256"
        },
        {
          "indexed": false,
          "internalType": "uint256",
          "name": "price",
          "type": "uint256"
        },
        {
          "indexed": false,
          "internalType": "uint256",
          "name": "makerID",
          "type": "uint256"
        },
        {
          "indexed": false,
          "internalType": "uint256",
          "name": "makerGain",
          "type": "uint256"
        },
        {
          "indexed": false,
          "internalType": "uint256",
          "name": "makerLoss",
          "type": "uint256"
        },
        {
          "indexed": false,
          "internalType": "uint256",
          "name": "closeFlag",
          "type": "uint256"
        },
        {
          "indexed": false,
          "internalType": "uint256",
          "name": "closeType",
          "type": "uint256"
        }
      ],
      "name": "ClosedMakerDeal",
      "type": "event"
    },
    {
      "anonymous": false,
      "inputs": [
        {
          "indexed": false,
          "internalType": "uint64",
          "name": "version",
          "type": "uint64"
        }
      ],
      "name": "Initialized",
      "type": "event"
    },
    {
      "anonymous": false,
      "inputs": [
        {
          "indexed": false,
          "internalType": "address",
          "name": "token",
          "type": "address"
        },
        {
          "indexed": false,
          "internalType": "address",
          "name": "taker",
          "type": "address"
        }
      ],
      "name": "LiquidateTaker",
      "type": "event"
    },
    {
      "anonymous": false,
      "inputs": [
        {
          "indexed": false,
          "internalType": "uint256",
          "name": "dealID",
          "type": "uint256"
        },
        {
          "indexed": false,
          "internalType": "address",
          "name": "token",
          "type": "address"
        },
        {
          "indexed": false,
          "internalType": "address",
          "name": "maker",
          "type": "address"
        },
        {
          "indexed": false,
          "internalType": "uint256",
          "name": "makerID",
          "type": "uint256"
        }
      ],
      "name": "LiquidatedMakerDeal",
      "type": "event"
    },
    {
      "anonymous": false,
      "inputs": [
        {
          "indexed": false,
          "internalType": "uint256",
          "name": "takerDealID",
          "type": "uint256"
        },
        {
          "indexed": false,
          "internalType": "address",
          "name": "token",
          "type": "address"
        },
        {
          "indexed": false,
          "internalType": "address",
          "name": "maker",
          "type": "address"
        },
        {
          "indexed": false,
          "internalType": "enum ICommon.Direct",
          "name": "direct",
          "type": "uint8"
        },
        {
          "indexed": false,
          "internalType": "uint256",
          "name": "size",
          "type": "uint256"
        },
        {
          "indexed": false,
          "internalType": "uint256",
          "name": "price",
          "type": "uint256"
        },
        {
          "indexed": false,
          "internalType": "uint256",
          "name": "makerDealID",
          "type": "uint256"
        },
        {
          "indexed": false,
          "internalType": "uint256",
          "name": "marginAmount",
          "type": "uint256"
        },
        {
          "indexed": false,
          "internalType": "uint256",
          "name": "maintenanceMargin",
          "type": "uint256"
        },
        {
          "indexed": false,
          "internalType": "uint256",
          "name": "flag",
          "type": "uint256"
        }
      ],
      "name": "LockPoolMargin",
      "type": "event"
    },
    {
      "anonymous": false,
      "inputs": [
        {
          "indexed": true,
          "internalType": "address",
          "name": "previousOwner",
          "type": "address"
        },
        {
          "indexed": true,
          "internalType": "address",
          "name": "newOwner",
          "type": "address"
        }
      ],
      "name": "OwnershipTransferred",
      "type": "event"
    },
    {
      "anonymous": false,
      "inputs": [
        {
          "indexed": true,
          "internalType": "address",
          "name": "account",
          "type": "address"
        },
        {
          "indexed": true,
          "internalType": "address",
          "name": "token",
          "type": "address"
        },
        {
          "indexed": false,
          "internalType": "uint256",
          "name": "amount",
          "type": "uint256"
        },
        {
          "indexed": false,
          "internalType": "uint256",
          "name": "share",
          "type": "uint256"
        },
        {
          "indexed": false,
          "internalType": "enum ICommon.PoolFlag",
          "name": "poolType",
          "type": "uint8"
        }
      ],
      "name": "Provide",
      "type": "event"
    },
    {
      "anonymous": false,
      "inputs": [
        {
          "indexed": true,
          "internalType": "address",
          "name": "token",
          "type": "address"
        },
        {
          "indexed": true,
          "internalType": "address",
          "name": "sender",
          "type": "address"
        },
        {
          "indexed": true,
          "internalType": "address",
          "name": "received",
          "type": "address"
        },
        {
          "indexed": false,
          "internalType": "enum ICommon.TransactionType",
          "name": "transactionType",
          "type": "uint8"
        },
        {
          "indexed": false,
          "internalType": "uint256",
          "name": "amount",
          "type": "uint256"
        },
        {
          "indexed": false,
          "internalType": "uint256",
          "name": "timestamp",
          "type": "uint256"
        }
      ],
      "name": "TransactionHistory",
      "type": "event"
    },
    {
      "anonymous": false,
      "inputs": [
        {
          "indexed": true,
          "internalType": "address",
          "name": "account",
          "type": "address"
        },
        {
          "indexed": true,
          "internalType": "address",
          "name": "token",
          "type": "address"
        },
        {
          "indexed": false,
          "internalType": "uint256",
          "name": "amount",
          "type": "uint256"
        },
        {
          "indexed": false,
          "internalType": "uint256",
          "name": "share",
          "type": "uint256"
        },
        {
          "indexed": false,
          "internalType": "enum ICommon.PoolFlag",
          "name": "poolType",
          "type": "uint8"
        }
      ],
      "name": "Withdraw",
      "type": "event"
    },
    {
      "anonymous": false,
      "inputs": [
        {
          "indexed": false,
          "internalType": "address",
          "name": "token",
          "type": "address"
        },
        {
          "indexed": false,
          "internalType": "address",
          "name": "sender",
          "type": "address"
        },
        {
          "indexed": false,
          "internalType": "string",
          "name": "name",
          "type": "string"
        },
        {
          "indexed": false,
          "internalType": "uint256",
          "name": "beforeLeverage",
          "type": "uint256"
        },
        {
          "indexed": false,
          "internalType": "uint256",
          "name": "afterLeverage",
          "type": "uint256"
        }
      ],
      "name": "setLeverage",
      "type": "event"
    },
    {
      "stateMutability": "nonpayable",
      "type": "fallback"
    },
    {
      "inputs": [
        {
          "internalType": "uint256",
          "name": "_dealID",
          "type": "uint256"
        },
        {
          "internalType": "uint256",
          "name": "_amount",
          "type": "uint256"
        }
      ],
      "name": "addMarginAmount",
      "outputs": [],
      "stateMutability": "nonpayable",
      "type": "function"
    },
    {
      "inputs": [],
      "name": "addMarginRatio",
      "outputs": [
        {
          "internalType": "uint256",
          "name": "",
          "type": "uint256"
        }
      ],
      "stateMutability": "view",
      "type": "function"
    },
    {
      "inputs": [
        {
          "internalType": "uint256",
          "name": "_id",
          "type": "uint256"
        },
        {
          "internalType": "uint8",
          "name": "_type",
          "type": "uint8"
        },
        {
          "internalType": "uint256",
          "name": "_profit",
          "type": "uint256"
        },
        {
          "internalType": "uint256",
          "name": "_loss",
          "type": "uint256"
        },
        {
          "internalType": "uint256",
          "name": "_amount",
          "type": "uint256"
        },
        {
          "internalType": "uint256",
          "name": "_price",
          "type": "uint256"
        },
        {
          "internalType": "bool",
          "name": "_transform",
          "type": "bool"
        }
      ],
      "name": "close",
      "outputs": [
        {
          "internalType": "uint256",
          "name": "makerProfit",
          "type": "uint256"
        },
        {
          "internalType": "uint256",
          "name": "makerLoss",
          "type": "uint256"
        },
        {
          "internalType": "bool",
          "name": "isLiquidated",
          "type": "bool"
        },
        {
          "internalType": "bool",
          "name": "isAgreement",
          "type": "bool"
        }
      ],
      "stateMutability": "nonpayable",
      "type": "function"
    },
    {
      "inputs": [
        {
          "internalType": "address",
          "name": "token",
          "type": "address"
        },
        {
          "internalType": "address",
          "name": "maker",
          "type": "address"
        }
      ],
      "name": "getLP2Account",
      "outputs": [
        {
          "components": [
            {
              "internalType": "address payable",
              "name": "holder",
              "type": "address"
            },
            {
              "internalType": "uint256",
              "name": "amount",
              "type": "uint256"
            },
            {
              "internalType": "uint256",
              "name": "availableAmount",
              "type": "uint256"
            },
            {
              "internalType": "uint256",
              "name": "lockedAmount",
              "type": "uint256"
            },
            {
              "internalType": "uint256",
              "name": "maintenanceMargin",
              "type": "uint256"
            },
            {
              "internalType": "uint256",
              "name": "leverage",
              "type": "uint256"
            },
            {
              "internalType": "uint256",
              "name": "maintenanceMarginRate",
              "type": "uint256"
            },
            {
              "internalType": "uint256",
              "name": "addMarginRate",
              "type": "uint256"
            },
            {
              "internalType": "bool",
              "name": "autoAddMargin",
              "type": "bool"
            },
            {
              "internalType": "bool",
              "name": "isRejectOrder",
              "type": "bool"
            }
          ],
          "internalType": "struct ICommon.LP2Account",
          "name": "",
          "type": "tuple"
        }
      ],
      "stateMutability": "view",
      "type": "function"
    },
    {
      "inputs": [
        {
          "internalType": "address",
          "name": "token",
          "type": "address"
        }
      ],
      "name": "getMakerAddresses",
      "outputs": [
        {
          "internalType": "address[]",
          "name": "",
          "type": "address[]"
        }
      ],
      "stateMutability": "view",
      "type": "function"
    },
    {
      "inputs": [
        {
          "internalType": "uint256",
          "name": "makerDealID",
          "type": "uint256"
        }
      ],
      "name": "getMakerDeal",
      "outputs": [
        {
          "components": [
            {
              "internalType": "string",
              "name": "name",
              "type": "string"
            },
            {
              "internalType": "address",
              "name": "token",
              "type": "address"
            },
            {
              "internalType": "address",
              "name": "makerAddr",
              "type": "address"
            },
            {
              "internalType": "uint256",
              "name": "takerId",
              "type": "uint256"
            },
            {
              "internalType": "uint256",
              "name": "size",
              "type": "uint256"
            },
            {
              "internalType": "uint256",
              "name": "price",
              "type": "uint256"
            },
            {
              "internalType": "enum ICommon.Direct",
              "name": "direct",
              "type": "uint8"
            },
            {
              "internalType": "enum ICommon.DealState",
              "name": "state",
              "type": "uint8"
            },
            {
              "internalType": "uint256",
              "name": "marginAmount",
              "type": "uint256"
            },
            {
              "internalType": "uint256",
              "name": "maintenanceMargin",
              "type": "uint256"
            },
            {
              "internalType": "uint256",
              "name": "time",
              "type": "uint256"
            }
          ],
          "internalType": "struct ICommon.MakerDeal",
          "name": "",
          "type": "tuple"
        }
      ],
      "stateMutability": "view",
      "type": "function"
    },
    {
      "inputs": [],
      "name": "getMakerDealsLength",
      "outputs": [
        {
          "internalType": "uint256",
          "name": "",
          "type": "uint256"
        }
      ],
      "stateMutability": "view",
      "type": "function"
    },
    {
      "inputs": [
        {
          "internalType": "address",
          "name": "token",
          "type": "address"
        }
      ],
      "name": "getShareAddresses",
      "outputs": [
        {
          "internalType": "address[]",
          "name": "",
          "type": "address[]"
        }
      ],
      "stateMutability": "view",
      "type": "function"
    },
    {
      "inputs": [],
      "name": "getTokenList",
      "outputs": [
        {
          "internalType": "address[]",
          "name": "",
          "type": "address[]"
        }
      ],
      "stateMutability": "view",
      "type": "function"
    },
    {
      "inputs": [
        {
          "internalType": "address",
          "name": "token",
          "type": "address"
        },
        {
          "internalType": "address",
          "name": "maker",
          "type": "address"
        }
      ],
      "name": "getUserMakerDealsID",
      "outputs": [
        {
          "internalType": "uint256[]",
          "name": "",
          "type": "uint256[]"
        }
      ],
      "stateMutability": "view",
      "type": "function"
    },
    {
      "inputs": [
        {
          "internalType": "address",
          "name": "token",
          "type": "address"
        },
        {
          "internalType": "address",
          "name": "user",
          "type": "address"
        }
      ],
      "name": "getUserShareAmount",
      "outputs": [
        {
          "internalType": "uint256",
          "name": "",
          "type": "uint256"
        }
      ],
      "stateMutability": "view",
      "type": "function"
    },
    {
      "inputs": [
        {
          "internalType": "address",
          "name": "_riskFundAddr",
          "type": "address"
        }
      ],
      "name": "initialize",
      "outputs": [],
      "stateMutability": "nonpayable",
      "type": "function"
    },
    {
      "inputs": [],
      "name": "leverage",
      "outputs": [
        {
          "internalType": "uint256",
          "name": "",
          "type": "uint256"
        }
      ],
      "stateMutability": "view",
      "type": "function"
    },
    {
      "inputs": [],
      "name": "maintenanceMarginRate",
      "outputs": [
        {
          "internalType": "uint256",
          "name": "",
          "type": "uint256"
        }
      ],
      "stateMutability": "view",
      "type": "function"
    },
    {
      "inputs": [
        {
          "internalType": "uint256",
          "name": "",
          "type": "uint256"
        }
      ],
      "name": "matchIds",
      "outputs": [
        {
          "internalType": "uint256",
          "name": "",
          "type": "uint256"
        }
      ],
      "stateMutability": "view",
      "type": "function"
    },
    {
      "inputs": [
        {
          "components": [
            {
              "internalType": "string",
              "name": "name",
              "type": "string"
            },
            {
              "internalType": "address",
              "name": "token",
              "type": "address"
            },
            {
              "internalType": "address",
              "name": "makerAddr",
              "type": "address"
            },
            {
              "internalType": "uint256",
              "name": "takerId",
              "type": "uint256"
            },
            {
              "internalType": "uint256",
              "name": "size",
              "type": "uint256"
            },
            {
              "internalType": "uint256",
              "name": "price",
              "type": "uint256"
            },
            {
              "internalType": "enum ICommon.Direct",
              "name": "direct",
              "type": "uint8"
            },
            {
              "internalType": "enum ICommon.DealState",
              "name": "state",
              "type": "uint8"
            },
            {
              "internalType": "uint256",
              "name": "marginAmount",
              "type": "uint256"
            },
            {
              "internalType": "uint256",
              "name": "maintenanceMargin",
              "type": "uint256"
            },
            {
              "internalType": "uint256",
              "name": "time",
              "type": "uint256"
            }
          ],
          "internalType": "struct ICommon.MakerDeal",
          "name": "makerDeal",
          "type": "tuple"
        }
      ],
      "name": "newMakerDeal",
      "outputs": [
        {
          "internalType": "uint256",
          "name": "makerDealID",
          "type": "uint256"
        }
      ],
      "stateMutability": "nonpayable",
      "type": "function"
    },
    {
      "inputs": [],
      "name": "owner",
      "outputs": [
        {
          "internalType": "address",
          "name": "",
          "type": "address"
        }
      ],
      "stateMutability": "view",
      "type": "function"
    },
    {
      "inputs": [
        {
          "internalType": "address",
          "name": "",
          "type": "address"
        }
      ],
      "name": "poolType",
      "outputs": [
        {
          "internalType": "enum ICommon.PoolFlag",
          "name": "",
          "type": "uint8"
        }
      ],
      "stateMutability": "view",
      "type": "function"
    },
    {
      "inputs": [
        {
          "internalType": "address",
          "name": "",
          "type": "address"
        },
        {
          "internalType": "string",
          "name": "",
          "type": "string"
        },
        {
          "internalType": "uint256",
          "name": "",
          "type": "uint256"
        }
      ],
      "name": "positions",
      "outputs": [
        {
          "internalType": "uint256",
          "name": "value",
          "type": "uint256"
        },
        {
          "internalType": "uint256",
          "name": "size",
          "type": "uint256"
        }
      ],
      "stateMutability": "view",
      "type": "function"
    },
    {
      "inputs": [],
      "name": "privateMinMintAmount",
      "outputs": [
        {
          "internalType": "uint256",
          "name": "",
          "type": "uint256"
        }
      ],
      "stateMutability": "view",
      "type": "function"
    },
    {
      "inputs": [
        {
          "internalType": "address",
          "name": "_token",
          "type": "address"
        },
        {
          "internalType": "uint256",
          "name": "_amount",
          "type": "uint256"
        },
        {
          "internalType": "enum ICommon.PoolFlag",
          "name": "_priOrPub",
          "type": "uint8"
        },
        {
          "internalType": "string[]",
          "name": "_symbols",
          "type": "string[]"
        },
        {
          "internalType": "bytes[]",
          "name": "_prices",
          "type": "bytes[]"
        }
      ],
      "name": "provide",
      "outputs": [],
      "stateMutability": "payable",
      "type": "function"
    },
    {
      "inputs": [],
      "name": "renounceOwnership",
      "outputs": [],
      "stateMutability": "nonpayable",
      "type": "function"
    },
    {
      "inputs": [
        {
          "internalType": "address",
          "name": "_perpetual",
          "type": "address"
        },
        {
          "internalType": "address",
          "name": "_orderBook",
          "type": "address"
        },
        {
          "internalType": "address",
          "name": "_tradeAgent",
          "type": "address"
        },
        {
          "internalType": "address",
          "name": "_tradeStation",
          "type": "address"
        },
        {
          "internalType": "address",
          "name": "_poolAgent",
          "type": "address"
        },
        {
          "internalType": "address",
          "name": "_keeper",
          "type": "address"
        }
      ],
      "name": "setKeepers",
      "outputs": [],
      "stateMutability": "nonpayable",
      "type": "function"
    },
    {
      "inputs": [
        {
          "internalType": "address",
          "name": "_token",
          "type": "address"
        },
        {
          "internalType": "enum ICommon.PoolFlag",
          "name": "_flag",
          "type": "uint8"
        }
      ],
      "name": "setPoolType",
      "outputs": [],
      "stateMutability": "nonpayable",
      "type": "function"
    },
    {
      "inputs": [
        {
          "internalType": "uint256",
          "name": "_value",
          "type": "uint256"
        }
      ],
      "name": "setPrivateMinMintAmount",
      "outputs": [],
      "stateMutability": "nonpayable",
      "type": "function"
    },
    {
      "inputs": [
        {
          "internalType": "address",
          "name": "_token",
          "type": "address"
        },
        {
          "internalType": "uint256",
          "name": "_leverage",
          "type": "uint256"
        },
        {
          "internalType": "bool",
          "name": "_isRejectOrder",
          "type": "bool"
        },
        {
          "internalType": "bool",
          "name": "_autoAddMargin",
          "type": "bool"
        }
      ],
      "name": "setUserParam",
      "outputs": [],
      "stateMutability": "nonpayable",
      "type": "function"
    },
    {
      "inputs": [
        {
          "internalType": "address",
          "name": "",
          "type": "address"
        }
      ],
      "name": "tokenCreatedTime",
      "outputs": [
        {
          "internalType": "uint256",
          "name": "",
          "type": "uint256"
        }
      ],
      "stateMutability": "view",
      "type": "function"
    },
    {
      "inputs": [
        {
          "internalType": "address",
          "name": "",
          "type": "address"
        },
        {
          "internalType": "enum ICommon.PoolFlag",
          "name": "",
          "type": "uint8"
        }
      ],
      "name": "totalLockedLiquidity",
      "outputs": [
        {
          "internalType": "uint256",
          "name": "",
          "type": "uint256"
        }
      ],
      "stateMutability": "view",
      "type": "function"
    },
    {
      "inputs": [
        {
          "internalType": "address",
          "name": "newOwner",
          "type": "address"
        }
      ],
      "name": "transferOwnership",
      "outputs": [],
      "stateMutability": "nonpayable",
      "type": "function"
    },
    {
      "inputs": [
        {
          "internalType": "address",
          "name": "_token",
          "type": "address"
        },
        {
          "internalType": "uint256",
          "name": "_amount",
          "type": "uint256"
        },
        {
          "internalType": "enum ICommon.PoolFlag",
          "name": "_priOrPub",
          "type": "uint8"
        },
        {
          "internalType": "string[]",
          "name": "_symbols",
          "type": "string[]"
        },
        {
          "internalType": "bytes[]",
          "name": "_prices",
          "type": "bytes[]"
        }
      ],
      "name": "withdraw",
      "outputs": [],
      "stateMutability": "payable",
      "type": "function"
    }
  ],
  "bytecode": "0x6080806040523460155761466b908161001a8239f35b5f80fdfe60806040526004361015610019575b3461001557005b5f80fd5b5f5f3560e01c8063017364e81461190557806302996994146118205780630c8c35161461178d5780631f92a4da1461177057806321cf3dd014611738578063249a6ee7146112ae578063273cbaa01461123a5780632c86d98e1461121d57806336ff6a70146111f35780633b3de0311461119c5780634e091b221461116b5780635a92c628146110f95780635baf45fb1461107b57806360d32e8d14610ec3578063669e01ee14610ea9578063715018a614610e12578063859d90a314610d7157806389f00b6d14610d545780638da5cb5b14610d0f5780639409b02914610cda578063ba0efe0314610cbd578063c0a1483114610c7b578063c23e629f14610a65578063c4d66de8146107c2578063d5e008d21461071c578063d7496060146106ce578063f26a3e1d14610315578063f2da708d146102f7578063f2fde38b146102ca5763f74c30491461016e575061000e565b346102c75760c06003193601126102c75761018761191d565b61018f611933565b90604435906001600160a01b03821680920361001557606435916001600160a01b03831680930361001557608435916001600160a01b0383168093036100155760a435946001600160a01b038616809603610015576001600160a01b0380926101f6613202565b16806001600160a01b031960065416176006558752600f60205260408720600160ff1982541617905516806001600160a01b031960075416176007558552600f60205260408520600160ff19825416179055806001600160a01b031960085416176008558452600f60205260408420600160ff19825416179055806001600160a01b031960095416176009558352600f60205260408320600160ff198254161790558252600f60205260408220600160ff198254161790558152600f60205260408120600160ff1982541617905580f35b80fd5b50346102c75760206003193601126102c7576102f46102e761191d565b6102ef613202565b6129b6565b80f35b50346102c757806003193601126102c7576020601354604051908152f35b50346102c75760e06003193601126102c757600435906024359060ff82168092036102c75760c43580151580910361001557338252600f60205261035f60ff6040842054166123ad565b838252601960205260408220545f1981019081116106ba576001600160a01b03600261038a8361241e565b50015416936001600160a01b0360016103a28461241e565b50015416918285526011602052604085206001600160a01b0387165f5260205260405f2061012060ff6008604051936103da8561197a565b6001600160a01b03815416855260018101546020860152600281015460408601526003810154606086015260048101546080860152600581015460a0860152600681015460c0860152600781015460e08601520154818116151561010085015260081c1615159101527f55a05fded01868e623bc311ab3e73d3cec2f0871392b36317648452d989ed1ce6101006104718886612897565b6020810151906040810151906080606082015191015190885f52601060205260405f206001600160a01b038d165f5260205260405f205492604051948a86528d602087015260408601526060850152608084015260a083015260c0820152600a60e0820152a1604051926101a084019184831067ffffffffffffffff8411176106a6576080987f55a05fded01868e623bc311ab3e73d3cec2f0871392b36317648452d989ed1ce9461010094604052888752602087019789895260408801526060870152828a87015260a086015260c085015260443560e08501526064358285015260843561012085015260a4356101408501526101608401968688526040610180860198888a5261058287613261565b5198519551151596511515978381526011602052206001600160a01b0382165f5260205260405f2061012060ff6008604051936105be8561197a565b6001600160a01b03815416855260018101546020860152600281015460408601526003810154606086015260048101548e860152600581015460a0860152600681015460c0860152600781015460e0860152015481811615158785015260081c16151591015261062e8183612897565b60208101519060408101518b606083015192015192855f52601060205260405f206001600160a01b0386165f5260205260405f2054946040519687526020870152604086015260608501528a84015260a083015260c0820152601460e0820152a1604051938452602084015260408301526060820152f35b634e487b7160e01b5f52604160045260245ffd5b602483634e487b7160e01b81526011600452fd5b50346102c75760406003193601126102c7576001600160a01b0360406106f261191d565b92826106fc611933565b9416815260106020522091165f52602052602060405f2054604051908152f35b50346102c75760406003193601126102c75761073661191d565b6001600160a01b03610746611933565b9116825260126020526001600160a01b036040832091165f5260205260405f20604051918260208354918281520192825260208220915b8181106107ac576107a88561079481870382611997565b604051918291602083526020830190611c3a565b0390f35b825484526020909301926001928301920161077d565b34610015576020600319360112610015576107db61191d565b7ff0c57e16840df040f15088dc2f81fe391c3923bec73e23a9662efc9c229c6a005460ff8160401c16159167ffffffffffffffff821680159081610a5d575b6001149081610a53575b159081610a4a575b50610a2257818360017fffffffffffffffffffffffffffffffffffffffffffffffff00000000000000006001600160a01b039516177ff0c57e16840df040f15088dc2f81fe391c3923bec73e23a9662efc9c229c6a00556109cd575b506108916139a9565b6108996139a9565b6108a2336129b6565b166001600160a01b03196005541617600555306001600160a01b03196015541617601555305f52600f60205260405f20600160ff19825416179055335f52600f60205260405f20600160ff19825416179055600160ff195f5416175f55670de0b6b3a7640000600155670de0b6b3a7640000601655600a60025567016345785d8a000060035567016345785d8a000060045561093a57005b7fffffffffffffffffffffffffffffffffffffffffffffff00ffffffffffffffff7ff0c57e16840df040f15088dc2f81fe391c3923bec73e23a9662efc9c229c6a0054167ff0c57e16840df040f15088dc2f81fe391c3923bec73e23a9662efc9c229c6a00557fc7f505b2f371ae2175ee4913f4499e1f2633a7b5936321eed1cdaeb6115181d2602060405160018152a1005b7fffffffffffffffffffffffffffffffffffffffffffffff0000000000000000001668010000000000000001177ff0c57e16840df040f15088dc2f81fe391c3923bec73e23a9662efc9c229c6a005583610888565b7ff92ee8a9000000000000000000000000000000000000000000000000000000005f5260045ffd5b9050158461082c565b303b159150610824565b84915061081a565b3461001557604060031936011261001557602435600435610a858161241e565b5060018101906001600160a01b038254165f52601160205260405f206001600160a01b0333165f5260205260405f20916001600160a01b03600283015416338103610c37576002840193845491878310610bf35760ff600686015460081c166006811015610bdf5760018114908115610bd4575b5015610b905760076001600160a01b039560038a947fc8f742aa90a6e6851d2252fa58ed695d3ca295b55bf5f1c2164a360cc8a093e299610b3d87610b6499611ce9565b905501610b4b858254611d0a565b905501610b59838254611d0a565b905584845416612d76565b5416926007610b728461241e565b500154604080519485526020850192909252908301523391606090a3005b606460405162461bcd60e51b815260206004820152601660248201527f4c6971756964697479207374617475732077726f6e67000000000000000000006044820152fd5b600291501489610af9565b634e487b7160e01b5f52602160045260245ffd5b606460405162461bcd60e51b815260206004820152601060248201527f45786365656420617661696c61626c65000000000000000000000000000000006044820152fd5b606460405162461bcd60e51b815260206004820152600960248201527f4e6f74206d616b657200000000000000000000000000000000000000000000006044820152fd5b34610015576020600319360112610015576001600160a01b03610c9c61191d565b165f526014602052602060ff60405f205416610cbb6040518092611c2d565bf35b34610015575f600319360112610015576020600354604051908152f35b34610015576020610d066001600160a01b03610cf536611bb6565b91165f526017835260405f20611c17565b54604051908152f35b34610015575f6003193601126100155760206001600160a01b037f9016d09d72d40fdae2fd8ceac6b6234c7706214fd39c1cd1e609a0528c1993005416604051908152f35b34610015575f600319360112610015576020600454604051908152f35b3461001557604060031936011261001557610140610d9e610d9061191d565b610d98611933565b90612897565b610120604051916001600160a01b0381511683526020810151602084015260408101516040840152606081015160608401526080810151608084015260a081015160a084015260c081015160c084015260e081015160e0840152610100810151151561010084015201511515610120820152f35b34610015575f60031936011261001557610e2a613202565b5f6001600160a01b037f9016d09d72d40fdae2fd8ceac6b6234c7706214fd39c1cd1e609a0528c199300546001600160a01b031981167f9016d09d72d40fdae2fd8ceac6b6234c7706214fd39c1cd1e609a0528c19930055167f8be0079c531659141344cd1fd0a4f28419497f9722a3daafe3b4186f6b6457e08280a3005b610ec1610eb536611a42565b9493909392919261255b565b005b34610015576020600319360112610015575f610140604051610ee48161195d565b606081528260208201528260408201528260608201528260808201528260a08201528260c08201528260e082015282610100820152826101208201520152610f2d60043561241e565b5060405190610f3b8261195d565b610f4481612472565b82526001600160a01b03600182015416602083019081526001600160a01b036002830154166040840190815260038301549260608501938452600481015460808601908152600582015460a0870190815260068301549060ff821660c08901926003821015610bdf5760ff91845260081c169260e08901936006811015610bdf5784526007850154976101008a019889526008860154956101208b0196875260090154966101408b019788526040519a60208c525160208c0161016090526101808c0161101091611be5565b98516001600160a01b031660408c0152516001600160a01b031660608b01525160808a01525160a08901525160c08801525160e0870161104f91611c0a565b51936006851015610bdf5785946101008601525161012085015251610140840152516101608301520390f35b34610015576020600319360112610015576001600160a01b0361109c61191d565b165f52600e60205260405f206040519081602082549182815201915f5260205f20905f5b8181106110e3576107a8856110d781870382611997565b60405191829182611b74565b82548452602090930192600192830192016110c0565b34610015576020600319360112610015576001600160a01b0361111a61191d565b165f52600d60205260405f206040519081602082549182815201915f5260205f20905f5b818110611155576107a8856110d781870382611997565b825484526020909301926001928301920161113e565b3461001557602060031936011261001557335f52600f60205261119460ff60405f2054166123ad565b600435601655005b34610015576001600160a01b036111b236611bb6565b9190335f52600f6020526111cc60ff60405f2054166123ad565b165f52601460205260405f20906004811015610bdf5760ff60ff1983541691161790555f80f35b34610015576020600319360112610015576004355f526019602052602060405f2054604051908152f35b34610015575f600319360112610015576020600254604051908152f35b34610015575f60031936011261001557604051806020600a54918281520190600a5f527fc65a7bb8d6351c1cf70c95a316cc6a92839c986682d98bc35f958f4883f9d2a8905f5b818110611298576107a8856110d781870382611997565b8254845260209093019260019283019201611281565b346100155760206003193601126100155760043567ffffffffffffffff811161001557610160600319823603011261001557604051906112ed8261195d565b806004013567ffffffffffffffff8111610015576113119060043691840101611a24565b825261131f60248201611949565b602083015261133060448201611949565b6040830152606481013560608301526084810135608083015260a481013560a083015260c481013560038110156100155760c083015260e4810135906006821015610015576101449160e08401526101048101356101008401526101248101356101208401520135610140820152335f52600f6020526113b660ff60405f2054166123ad565b6113cb61010082015161012083015190611d0a565b6113f1816001600160a01b036020850151166001600160a01b0360408601511690612d76565b601354906001600160a01b036020840151165f52601260205260405f206001600160a01b0380604086015116165f526020526114308260405f20612e3d565b50601354680100000000000000008110156106a657806001611455920160135561241e565b61172557835180519067ffffffffffffffff82116106a6578190611479845461243a565b601f81116116d8575b50602090601f8311600114611671575f92611666575b50508160011b915f199060031b1c19161781555b6001600160a01b036020850151166001600160a01b036001830191166001600160a01b03198254161790556001600160a01b036040850151166001600160a01b036002830191166001600160a01b0319825416179055606084015160038201556080840151600482015560a084015160058201556006810160c08501516003811015610bdf5760ff60ff19835416911617815560e08501516006811015610bdf5761ff001961ff0083549260081b16911617905561010084015160078201556101208401516008820155600961014085015191015560135460608401515f52601960205260405f20556001600160a01b036020840151165f52601160205260405f206001600160a01b0380604086015116165f526020526115fd600260405f20600381016115db858254611d0a565b9055600481016115f2815461012089015190611d0a565b905501918254611ce9565b90556001600160a01b036040830151166001600160a01b03601554161461162a575b602090604051908152f35b6001600160a01b0360208301511682519060c0840151936003851015610bdf576020946116619360a0608084015193015193612f6c565b61161f565b015190508680611498565b9250835f52805f20905f935b601f19841685106116bd576001945083601f198116106116a5575b505050811b0181556114ac565b01515f1960f88460031b161c19169055868080611698565b8181015183556020948501946001909301929091019061167d565b909150835f5260205f20601f840160051c81016020851061171e575b90849392915b601f830160051c82018110611710575050611482565b5f81558594506001016116fa565b50806116f4565b634e487b7160e01b5f525f60045260245ffd5b34610015576020600319360112610015576001600160a01b0361175961191d565b165f52600c602052602060405f2054604051908152f35b34610015575f600319360112610015576020601654604051908152f35b34610015576060600319360112610015576117a661191d565b60243567ffffffffffffffff81116100155760206117c981923690600401611a24565b6001600160a01b0360443594165f526018825260405f20604051938285935191829101845e82019081520301902060028210156100155760409161180c91611b4d565b506001815491015482519182526020820152f35b346100155760806003193601126100155761183961191d565b60243590604435801515810361001557606435918215158303610015576001600160a01b03165f52601160205260405f206001600160a01b0333165f5260205260405f20606484116118c157600881610ec19560056118af9401550191829061ff001961ff00835492151560081b169116179055565b9060ff60ff1983541691151516179055565b606460405162461bcd60e51b815260206004820152600c60248201527f6f7574206f6620302d31303000000000000000000000000000000000000000006044820152fd5b610ec161191136611a42565b94939093929192611d37565b600435906001600160a01b038216820361001557565b602435906001600160a01b038216820361001557565b35906001600160a01b038216820361001557565b610160810190811067ffffffffffffffff8211176106a657604052565b610140810190811067ffffffffffffffff8211176106a657604052565b90601f601f19910116810190811067ffffffffffffffff8211176106a657604052565b67ffffffffffffffff81116106a65760051b60200190565b67ffffffffffffffff81116106a657601f01601f191660200190565b9291926119fa826119d2565b91611a086040519384611997565b829481845281830111610015578281602093845f960137010152565b9080601f8301121561001557816020611a3f933591016119ee565b90565b9060a0600319830112610015576004356001600160a01b03811681036100155791602435916044356004811015610015579160643567ffffffffffffffff81116100155781602382011215610015578060040135611a9f816119ba565b91611aad6040519384611997565b8183526024602084019260051b820101918483116100155760248201905b838210611b1e57505050509160843567ffffffffffffffff811161001557826023820112156100155780600401359267ffffffffffffffff84116100155760248460051b83010111610015576024019190565b813567ffffffffffffffff811161001557602091611b428860248594880101611a24565b815201910190611acb565b906002811015611b605760011b01905f90565b634e487b7160e01b5f52603260045260245ffd5b60206040818301928281528451809452019201905f5b818110611b975750505090565b82516001600160a01b0316845260209384019390920191600101611b8a565b6003196040910112610015576004356001600160a01b0381168103610015579060243560048110156100155790565b90601f19601f602080948051918291828752018686015e5f8582860101520116010190565b906003821015610bdf5752565b906004811015610bdf575f5260205260405f2090565b906004821015610bdf5752565b90602080835192838152019201905f5b818110611c575750505090565b8251845260209384019390920191600101611c4a565b929192611c79826119ba565b93611c876040519586611997565b602085848152019260051b8201918183116100155780935b838510611cad575050505050565b843567ffffffffffffffff811161001557820183601f8201121561001557602091611cde85838580953591016119ee565b815201940193611c9f565b91908203918211611cf657565b634e487b7160e01b5f52601160045260245ffd5b91908201809211611cf657565b604090611d3593959492956060820196825260208201520190611c2d565b565b9290936001600160a01b03841695865f52601460205260ff60405f2054166004811015610bdf57158015612383575b1561233f57611d8091611d7a913691611c6d565b82612ac9565b906004831015610bdf576001830361201657855f52601060205260405f206001600160a01b0333165f5260205260405f20548511611fd257855f52601060205260405f206001600160a01b0333165f5260205260405f20611de2868254611ce9565b9055855f52601060205260405f206001600160a01b038060155416165f5260205260405f20611e12868254611ce9565b9055855f52601060205260405f206001600160a01b0333165f5260205260405f205460165411611f36575b611e4e611e5d92611e549286613836565b85612985565b60015490612998565b92845f52601160205260405f206001600160a01b038060155416165f5260205260405f20926002840193845491828711611ef2577fe3f01f60e44135eef0110076e0ac4ed71eb05f55d66bac78629ddec52a56209a95611ed288611edc956001829601611ecb838254611ce9565b9055611ce9565b90555b3390612c74565b611eed604051928392339684611d17565b0390a3565b606460405162461bcd60e51b815260206004820152601c60248201527f776974686472617720616d6f756e7420697320746f6f206c61726765000000006044820152fd5b93611e4e611e5d92611f6b611e5493895f52601060205260405f206001600160a01b0333165f5260205260405f205490611d0a565b5f898152601060209081526040808320338452909152808220546015546001600160a01b03168352912080549299929091611fa591611ce9565b9055885f52601060205260405f206001600160a01b0333165f526020525f60408120559250925050611e3d565b606460405162461bcd60e51b815260206004820152601260248201527f736861726520697320746f6f206c6172676500000000000000000000000000006044820152fd5b50919291506002810361233957835f52601160205260405f206001600160a01b0333165f5260205260405f2091604051926120508461197a565b6001600160a01b0381541684526001810154906020850191825260028101549060408601828152600382015493606088019485526004830154976080810198895260058401549360a08201948552600681015460c08301908152600860078301549260e0850193845201549561010084019760ff88161515895260ff61012086019860081c16151588528a116122f5576120eb8a8651611ce9565b85526120f88a8751611ce9565b8652885115806122eb575b806122df575b6122c9575b8451806121b657505050505050505050507fe3f01f60e44135eef0110076e0ac4ed71eb05f55d66bac78629ddec52a56209a9250845f52600e6020526121573360405f20613771565b50845f52601160205260405f206001600160a01b0333165f526020525f60086040822082815582600182015582600282015582600382015582600482015582600582015582600682015582600782015501555b92611edc845f92611ed5565b60165411612285577fe3f01f60e44135eef0110076e0ac4ed71eb05f55d66bac78629ddec52a56209a9b612280998f97600897612269995f52601160205260405f206001600160a01b0333165f526020526001600160a01b038060405f20995116166001600160a01b03198954161788555160018801555160028701555160038601555160048501555160058401555160068301555160078201550192511515839060ff60ff1983541691151516179055565b51815461ff00191690151560081b61ff0016179055565b6121aa565b606460405162461bcd60e51b815260206004820152601860248201527f7374617920616d6f756e7420697320746f6f20736d616c6c00000000000000006044820152fd5b986122d690855190611d0a565b985f855261210e565b50845160165411612109565b5084511515612103565b606460405162461bcd60e51b815260206004820152601360248201527f616d6f756e7420697320746f6f206c61726765000000000000000000000000006044820152fd5b50505050565b606460405162461bcd60e51b815260206004820152601360248201527f77726f6e6720776974686472617720666c6167000000000000000000000000006044820152fd5b50865f52601460205260ff60405f2054166004851015610bdf576004811015610bdf578414611d66565b156123b457565b608460405162461bcd60e51b815260206004820152602160248201527f63616c6c6572206973206e6f74207072697661746520706f6f6c206b6565706560448201527f72000000000000000000000000000000000000000000000000000000000000006064820152fd5b601354811015611b605760135f52600a60205f20910201905f90565b90600182811c92168015612468575b602083101461245457565b634e487b7160e01b5f52602260045260245ffd5b91607f1691612449565b9060405191825f8254926124858461243a565b80845293600181169081156124ee57506001146124aa575b50611d3592500383611997565b90505f9291925260205f20905f915b8183106124d2575050906020611d35928201015f61249d565b60209193508060019154838589010152019101909184926124b9565b60209350611d3595925060ff1991501682840152151560051b8201015f61249d565b1561251757565b606460405162461bcd60e51b815260206004820152600960248201527f746f6f20736d616c6c00000000000000000000000000000000000000000000006044820152fd5b929390935f916001600160a01b03851696875f52601460205260ff60405f2054166004811015610bdf5715801561286d575b15612829576125a191611d7a913691611c6d565b916125ae863033886130d2565b6004841015610bdf5760018403612745575092612620612626927f8f482ec08235be52bb3abe471d37e58a4a0e31a05eb148064c014f71caa7e5f7956125f8600154891015612510565b885f52600d60205261260d3360405f20613951565b5061261a60015489612985565b93613836565b90612998565b845f52601160205260405f206001600160a01b038060155416165f5260205260405f2060018101612658868254611d0a565b905560028101612669868254611d0a565b9055855f52601060205260405f206001600160a01b038060155416165f5260205260405f20612699838254611d0a565b9055855f52601060205260405f206001600160a01b0333165f5260205260405f206126c5838254611d0a565b90556001600160a01b038154161561270c575b505b845f52600b60205260405f2054156126fd57611eed604051928392339684611d17565b612706856138f7565b50611edc565b60088101600160ff19825416179055600a60058201556001600160a01b038060155416166001600160a01b03198254161790555f6126d8565b9350505060028103612339577f8f482ec08235be52bb3abe471d37e58a4a0e31a05eb148064c014f71caa7e5f791612781601654851015612510565b845f52601160205260405f206001600160a01b0333165f52602052600260405f20865f52600e6020526127c53360405f206001915f520160205260405f2054151590565b156127ef575b600181016127da878254611d0a565b9055016127e8858254611d0a565b90556126da565b865f52600e6020526128043360405f20613951565b5060088101805460ff1916600117905580546001600160a01b031916331781556127cb565b606460405162461bcd60e51b815260206004820152601260248201527f77726f6e67206465706f73697420666c616700000000000000000000000000006044820152fd5b50875f52601460205260ff60405f2054166004861015610bdf576004811015610bdf57851461258d565b6001600160a01b03905f6101206040516128b08161197a565b8281528260208201528260408201528260608201528260808201528260a08201528260c08201528260e0820152826101008201520152165f5260116020526001600160a01b0360405f2091165f5260205260405f2060ff6008604051926129168461197a565b6001600160a01b03815416845260018101546020850152600281015460408501526003810154606085015260048101546080850152600581015460a0850152600681015460c0850152600781015460e08501520154818116151561010084015260081c16151561012082015290565b81810292918115918404141715611cf657565b81156129a2570490565b634e487b7160e01b5f52601260045260245ffd5b6001600160a01b03168015612a45576001600160a01b037f9016d09d72d40fdae2fd8ceac6b6234c7706214fd39c1cd1e609a0528c19930054826001600160a01b03198216177f9016d09d72d40fdae2fd8ceac6b6234c7706214fd39c1cd1e609a0528c19930055167f8be0079c531659141344cd1fd0a4f28419497f9722a3daafe3b4186f6b6457e05f80a3565b7f1e4fbdf7000000000000000000000000000000000000000000000000000000005f525f60045260245ffd5b9080602083519182815201916020808360051b8301019401925f915b838310612a9c57505050505090565b9091929394602080612aba83601f1986600196030187528951611be5565b97019301930191939290612a8d565b90612b15916001600160a01b0360065416916040519384927fb5c926f4000000000000000000000000000000000000000000000000000000008452604060048501526044840190612a71565b600319838203016024840152815180825260208201916020808360051b8301019401925f915b838310612bfc5750505050509181805f94039134905af1908115612bf1575f91612b63575090565b90503d805f833e612b748183611997565b8101906020818303126100155780519067ffffffffffffffff821161001557019080601f83011215610015578151612bab816119ba565b92612bb96040519485611997565b81845260208085019260051b82010192831161001557602001905b828210612be15750505090565b8151815260209182019101612bd4565b6040513d5f823e3d90fd5b919395509193602080612c1b83601f1986600196030187528951611be5565b97019301930190928795949293612b3b565b3d15612c57573d90612c3e826119d2565b91612c4c6040519384611997565b82523d5f602084013e565b606090565b90816020910312610015575180151581036100155790565b91611e54612c9391612c8d612c8886613de0565b6138e9565b90612985565b9182612c9e57505050565b5f928380937fffffffff0000000000000000000000000000000000000000000000000000000060196020604051612cd6604082611997565b828152017f7472616e7366657228616464726573732c75696e74323536290000000000000081522016926001600160a01b036040519260208401958652166024830152604482015260448152612d2d606482611997565b51925af1612d39612c2d565b81612d47575b501561001557565b8051801592508215612d5c575b50505f612d3f565b612d6f9250602080918301019101612c5c565b5f80612d54565b90612dcd916002916001600160a01b038060155416911614612dd0575b6001600160a01b03612dbc911693845f526017602052612db68360405f20611c17565b54611d0a565b925f52601760205260405f20611c17565b55565b60019150612d93565b90612dcd916002916001600160a01b038060155416911614612e1f575b6001600160a01b03612dbc911693845f526017602052612e198360405f20611c17565b54611ce9565b60019150612df6565b8054821015611b60575f5260205f2001905f90565b906001820191815f528260205260ff60405f205416612f65575f908054805b808410612f245750680100000000000000008110156106a657612e9f612e89826001879401855584612e28565b819391549060031b91821b915f19901b19161790565b905580545f198101908111611cf657908392915b828111612ee35750612ec891612e8991612e28565b90555f5260205260405f20600160ff19825416179055600190565b919250905f198101818111611cf657612efc9083612e28565b90549060031b1c612f10612e898385612e28565b90558015611cf657839291905f1901612eb3565b92612f2f8482611d0a565b60011c9085612f3e8386612e28565b90549060031b1c105f14612f5e575060018101809111611cf65792612e5c565b9350612e5c565b5050505f90565b6020916001600160a01b038392969596165f526018825260405f20604051938285935191829101845e820190815203019020906003811015610bdf5760ff5f199116019160ff8311611cf657612fe8612fe0612fd8612fd0612ff396600196611b4d565b509387612985565b845490612998565b825490611d0a565b815501918254611d0a565b9055565b602092939450906001600160a01b038392165f526018825260405f20604051938285935191829101845e820190815203019020906003811015610bdf5760ff5f1991160160ff8111611cf65761304c91611b4d565b506001810191825480821161308e5780820361306c575050905f80925555565b82611ecb612ff39454613088846130838784612985565b612998565b90611ce9565b606460405162461bcd60e51b815260206004820152601c60248201527f736861726520616d6f756e7420697320696e73756666696369656e74000000006044820152fd5b909192611e546130e891612c8d612c8885613de0565b92836130f45750505050565b5f80949381946001600160a01b037fffffffff000000000000000000000000000000000000000000000000000000006025604051613133606082611997565b8181527f7432353629000000000000000000000000000000000000000000000000000000604060208301927f7472616e7366657246726f6d28616464726573732c616464726573732c75696e845201522016948160405194602086019788521660248501521660448301526064820152606481526131b2608482611997565b51925af16131be612c2d565b816131d3575b5015610015575f808080612339565b80518015925082156131e8575b50505f6131c4565b6131fb9250602080918301019101612c5c565b5f806131e0565b6001600160a01b037f9016d09d72d40fdae2fd8ceac6b6234c7706214fd39c1cd1e609a0528c1993005416330361323557565b7f118cdaa7000000000000000000000000000000000000000000000000000000005f523360045260245ffd5b61326e60c082015161241e565b50906001600160a01b03600183015416805f52601160205260405f20906001600160a01b03600285015416916001600160a01b0383165f5260205260405f2091600160ff606086015116145f1461340e5750506132cc908383613a00565b61340a577f181dbc3ad559b63759679084b2e0d8268b879a2556fb002571b357ce36b9916191610160915b610120810151916002906001600160a01b036002820154169260048201548086148015613402575b6133f6575b50606081015160ff166133cf576015546001600160a01b031684036133c65760ff60035b16935b60038301549560ff60066001600160a01b03600187015416950154169061339d6101408501519260c0860151946101808c880151970151976040519b8c5260208c015260408b015260608a0190611c0a565b608088015260a087015260c086015260e0850152610100840152610120830152610140820152a1565b60ff6001613348565b6015546001600160a01b031684036133ed5760ff60025b169361334b565b60ff60046133e6565b9450600192505f613324565b50851561331f565b5050565b907f181dbc3ad559b63759679084b2e0d8268b879a2556fb002571b357ce36b99161949261016094926001600160a01b036015541614613732575b6101208301516136a2576006840161030061ff00198254161790556007840154916134f86134b060088701548095845f52601260205260405f206001600160a01b038060028c015416165f526020526134aa60405f2060c08a015190613e6c565b50611d0a565b60028401946134c0828754611d0a565b8655600385016134d1838254611ce9565b90556134e260048601918254611ce9565b90556001600160a01b0360028801541683612dd9565b60e08401805190919015613629578151610180860190808252855481115f146135d75750915f9493916001936040880151613552575b5050500161353f8154835490611ce9565b90555560018152600160208201526132f7565b6135a56135b9935161356688548092611ce9565b9061357085613f4d565b8083116135c1575b5050613592816001600160a01b03600554163090876130d2565b306001600160a01b0360055416856140a2565b6001600160a01b0360065416905191612c74565b5f808061352e565b6135ce9192508092611d0a565b83525f80613578565b61360594929150604087015161360c575b50506135fb600183519201918254611ce9565b9055518254611ce9565b90556132f7565b613622916001600160a01b036006541690612c74565b5f806135e8565b905061010084939293019283519182613647575b50505050506132f7565b6001926040870151613684575b5050016136648154845190611d0a565b90556136738154835190611d0a565b905551838201525f8080808061363d565b61369b916001600160a01b036006541630916130d2565b5f80613654565b61370f916006850161020061ff00198254161790556134f86134b061371760078801546137286136d76101208a015183612985565b6136e660048c01548092612998565b9384938b8d600761370586613083610120600886015496015186612985565b9d8e998a95611ce9565b910155611ce9565b60088c01556101208a015190611ce9565b60048a0155611d0a565b6101208301518015613766575b6137619060ff6006870154169060058701549161375b88612472565b86612ff7565b613449565b50600484015461373f565b906001820191815f528260205260405f20548015155f1461382e575f198101818111611cf65782545f19810191908211611cf6578181036137f9575b505050805480156137e5575f1901906137c68282612e28565b8154905f199060031b1b19169055555f526020525f6040812055600190565b634e487b7160e01b5f52603160045260245ffd5b613819613809612e899386612e28565b90549060031b1c92839286612e28565b90555f528360205260405f20555f80806137ad565b505050505f90565b90613893926001600160a01b036020936138a5826009541693604051978896879586957f70bcbca2000000000000000000000000000000000000000000000000000000008752166004860152606060248601526064850190612a71565b90600319848303016044850152611c3a565b03915afa908115612bf1575f916138ba575090565b90506020813d6020116138e1575b816138d560209383611997565b81010312610015575190565b3d91506138c8565b604d8111611cf657600a0a90565b805f52600b60205260405f2054155f1461394c57600a54680100000000000000008110156106a657613935612e89826001859401600a55600a612e28565b9055600a54905f52600b60205260405f2055600190565b505f90565b5f8281526001820160205260409020546139a357805490680100000000000000008210156106a6578261398e612e89846001809601855584612e28565b90558054925f520160205260405f2055600190565b50505f90565b60ff7ff0c57e16840df040f15088dc2f81fe391c3923bec73e23a9662efc9c229c6a005460401c16156139d857565b7fd7e6bcf8000000000000000000000000000000000000000000000000000000005f5260045ffd5b9190915f6001600160a01b03600185015416936001600160a01b036002820154169360078201928354600884019188835496613a3c8885611d0a565b9360e08a019182516101808c019a818c5260028a0196875492613a5f8a85611d0a565b1015613bba575050505050608094845f85613b008c613b739d9e9f9997600497613abe613ab37f261fffb4b79148ca99a0f130d50296a0a9bf6bee424973781ef0e8c4359b25129f9c9b613b389c54611d0a565b809281885551611ce9565b92613ac883613f4d565b91828511613ba0575b505050613aec826001600160a01b03600554163090846130d2565b30906001600160a01b0360055416906140a2565b60018701613b118154835490611ce9565b905555600160208d01525b613b2b60038601918254611ce9565b9055549201918254611ce9565b905560a0870151906001600160a01b0383890151169060c089015191604051938452602084015260408301526060820152a18383519161414a565b15613b8057505050600190565b600192613b9b916001600160a01b0360065416905191612c74565b525f90565b8293945091613baf9192611d0a565b9052908f805f613ad1565b613bd0859e979399949d9692989a958351611ce9565b9760088c015460ff81169081613dd1575b5080613dc8575b15613cd2575050505050505093600393613c7887948694613c56613c49613c41613cc19b7fc8f742aa90a6e6851d2252fa58ed695d3ca295b55bf5f1c2164a360cc8a093e29f9e9d600461014091015491015190612985565b885490612985565b6130836001548092612998565b9082613c628383611d0a565b11613cc957613c719250611d0a565b8099611d0a565b8755613c85888254611ce9565b905501613c93868254611d0a565b9055613ca085888a612d76565b01549154604051938493846040919493926060820195825260208201520152565b0390a3600190565b50508099611d0a565b613b38979f9990879f50613b739e5096613d8d9360809c95936004997f261fffb4b79148ca99a0f130d50296a0a9bf6bee424973781ef0e8c4359b25129f9c858110155f14613d9457505050613d3a613d6691613d32613d7b958a611d0a565b905190611ce9565b80945b613d53826001600160a01b036005541683612c74565b8d6001600160a01b0360055416916140f6565b60018a01613d8084613d7b8354855190611ce9565b611ce9565b9055613d32868654611d0a565b9055613b1c565b909194501115613dae575b50613d6682613d7b9394613d3d565b613d7b9250613dc1613d66915188611ce9565b9250613d9f565b50898910613be8565b60ff915060081c16155f613be1565b60206001600160a01b03916004604051809481937f313ce567000000000000000000000000000000000000000000000000000000008352165afa8015612bf1575f90613e2f575b60ff91501690565b506020813d602011613e64575b81613e4960209383611997565b81010312610015575160ff811681036100155760ff90613e27565b3d9150613e3c565b9060018201815f528060205260ff60405f20541615612f65578254905f5b828110613e9a5750505050505f90565b83613ea58287612e28565b90549060031b1c14613eb957600101613e8a565b93945f198301928311949093919290855b611cf65781811015613f0b576001810190818111611cf657613eee60019289612e28565b90549060031b1c613f02612e89838b612e28565b90550185613eca565b50509193909250805480156137e5575f190190613f288282612e28565b8154905f199060031b1b19169055555f5260205260405f2060ff198154169055600190565b6001600160a01b0360055416906001600160a01b03811690604051917f70a08231000000000000000000000000000000000000000000000000000000008352836004840152602083602481845afa928315612bf1575f9361406e575b506020613fc8613fbc6001548096612985565b612620612c8886613de0565b946044604051809481937fdd62ed3e00000000000000000000000000000000000000000000000000000000835260048301523060248301525afa908115612bf1575f9161403a575b50612c8861402461402a9461262093612985565b92613de0565b808211614035575090565b905090565b90506020813d602011614066575b8161405560209383611997565b810103126100155751612c88614010565b3d9150614048565b9092506020813d60201161409a575b8161408a60209383611997565b810103126100155751915f613fa9565b3d915061407d565b9192909281156123395760606001600160a01b0380807feb42cf637f927243245c50b4bf7fe105fe4f4d26209102240f2ba3d8e27a7df89460405196600988526020880152426040880152169616941692a4565b9192909281156123395760606001600160a01b0380807feb42cf637f927243245c50b4bf7fe105fe4f4d26209102240f2ba3d8e27a7df89460405196600888526020880152426040880152169616941692a4565b909160018201906001600160a01b038254165f52601260205260405f209360028401946001600160a01b0380875416165f5260205260405f209061419460c0820192835190613e6c565b506001600160a01b038454166001600160a01b03875416916141cd60088801928354946141c760078b0196875490611d0a565b91612dd9565b6001600160a01b0386541691825f52601460205260ff60405f2054166004811015610bdf57158061462a575b8061460b575b614272575b5050505050506001600160a01b0360069354166001600160a01b03601554161461423c575b500161040061ff00198254161790555f90565b6001600160a01b0361426c91541660ff848401541660048401549060058501549261426686612472565b90612ff7565b5f614229565b6001600160a01b03600954166001600160a01b03601554169060048a019460606101408754960195608487519160405195869384927fd112d0e9000000000000000000000000000000000000000000000000000000008452876004850152896024850152604484015260648301525afa928315612bf1575f5f935f956145b0575b506001600160a01b031661430a5750505050614204565b60ff809b88967f181dbc3ad559b63759679084b2e0d8268b879a2556fb002571b357ce36b991619f9b9a996101609f976001600160a01b038f928f8f908f61457f9f9c614471938f61442e907f2c37a9956018f0a52fe734b1e1b43a0c291a1ca976448780e2105afc28c38d989f996101409f9460039c6143ec8c9d614454986143948686611d0a565b915f5260116020528e60405f2091165f5260205260405f20600181016143bb858254611d0a565b905560046143ce60028301958654611d0a565b91600381016143de858254611d0a565b905501611ecb878254611d0a565b905586558c55888060155416166001600160a01b0319875416178655888d541697600682019e8f541690549060058301996144288b5494612472565b90612f6c565b868b54165f52601260205260405f208780865416165f5260205260405f20905190612e3d565b5061446b85808b5416935416918954905490611d0a565b91612d76565b549454169d54169701549d8e9354169754998b5190549154926040519485528d60208601528860408601526144a9606086018b611c0a565b8b608086015260a085015260c084015260e08301526101008201526003610120820152a17f55a05fded01868e623bc311ab3e73d3cec2f0871392b36317648452d989ed1ce610100886144fc8582612897565b6020810151906040810151906080606082015191015191845f52601060205260405f206001600160a01b038a165f5260205260405f20549360405195865289602087015260408601526060850152608084015260a083015260c0820152600360e0820152a151945195604051988952602089015260408801526060870190611c0a565b608085015260a084015260c08301525f60e083015261010082015260016101208201526005610140820152a1600190565b94505091506060833d606011614603575b816145ce60609383611997565b81010312610015578251916001600160a01b038316830361001557602084015160409094015193926001600160a01b036142f3565b3d91506145c1565b506001600160a01b038954166001600160a01b036015541614156141ff565b5060ff5f54166141f956fea2646970667358221220acf42f43bf219bb671ec443b5d6c1580cdb906c54a84824fb2694cfead57713064736f6c634300081c0033",
  "linkReferences": {},
  "deployedLinkReferences": {}
}