{
  "_format": "hh-sol-artifact-1",
  "contractName": "PrivatePool",
  "sourceName": "contracts/PrivatePool.sol",
  "abi": [
    {
      "inputs": [],
      "name": "InvalidInitialization",
      "type": "error"
    },
    {
      "inputs": [],
      "name": "NotInitializing",
      "type": "error"
    },
    {
      "inputs": [
        {
          "internalType": "address",
          "name": "owner",
          "type": "address"
        }
      ],
      "name": "OwnableInvalidOwner",
      "type": "error"
    },
    {
      "inputs": [
        {
          "internalType": "address",
          "name": "account",
          "type": "address"
        }
      ],
      "name": "OwnableUnauthorizedAccount",
      "type": "error"
    },
    {
      "anonymous": false,
      "inputs": [
        {
          "indexed": false,
          "internalType": "address",
          "name": "token",
          "type": "address"
        },
        {
          "indexed": false,
          "internalType": "address",
          "name": "holder",
          "type": "address"
        },
        {
          "indexed": false,
          "internalType": "string",
          "name": "name",
          "type": "string"
        },
        {
          "indexed": false,
          "internalType": "enum ICommon.Direct",
          "name": "direct",
          "type": "uint8"
        },
        {
          "indexed": false,
          "internalType": "uint256",
          "name": "value",
          "type": "uint256"
        },
        {
          "indexed": false,
          "internalType": "uint256",
          "name": "size",
          "type": "uint256"
        },
        {
          "indexed": false,
          "internalType": "uint256",
          "name": "margin",
          "type": "uint256"
        },
        {
          "indexed": false,
          "internalType": "uint256",
          "name": "freeze",
          "type": "uint256"
        }
      ],
      "name": "AccountPosition",
      "type": "event"
    },
    {
      "anonymous": false,
      "inputs": [
        {
          "indexed": true,
          "internalType": "address",
          "name": "account",
          "type": "address"
        },
        {
          "indexed": true,
          "internalType": "address",
          "name": "token",
          "type": "address"
        },
        {
          "indexed": false,
          "internalType": "uint256",
          "name": "orderID",
          "type": "uint256"
        },
        {
          "indexed": false,
          "internalType": "uint256",
          "name": "amount",
          "type": "uint256"
        },
        {
          "indexed": false,
          "internalType": "uint256",
          "name": "margin",
          "type": "uint256"
        }
      ],
      "name": "AddMargin",
      "type": "event"
    },
    {
      "anonymous": false,
      "inputs": [
        {
          "indexed": false,
          "internalType": "address",
          "name": "token",
          "type": "address"
        },
        {
          "indexed": false,
          "internalType": "address",
          "name": "maker",
          "type": "address"
        },
        {
          "indexed": false,
          "internalType": "uint256",
          "name": "amount",
          "type": "uint256"
        },
        {
          "indexed": false,
          "internalType": "uint256",
          "name": "availableAmount",
          "type": "uint256"
        },
        {
          "indexed": false,
          "internalType": "uint256",
          "name": "lockedAmount",
          "type": "uint256"
        },
        {
          "indexed": false,
          "internalType": "uint256",
          "name": "maintenanceMargin",
          "type": "uint256"
        },
        {
          "indexed": false,
          "internalType": "uint256",
          "name": "share",
          "type": "uint256"
        },
        {
          "indexed": false,
          "internalType": "uint256",
          "name": "flag",
          "type": "uint256"
        }
      ],
      "name": "BalanceOfMaker",
      "type": "event"
    },
    {
      "anonymous": false,
      "inputs": [
        {
          "indexed": false,
          "internalType": "uint256",
          "name": "dealID",
          "type": "uint256"
        },
        {
          "indexed": false,
          "internalType": "address",
          "name": "token",
          "type": "address"
        },
        {
          "indexed": false,
          "internalType": "address",
          "name": "maker",
          "type": "address"
        },
        {
          "indexed": false,
          "internalType": "enum ICommon.Direct",
          "name": "direct",
          "type": "uint8"
        },
        {
          "indexed": false,
          "internalType": "uint256",
          "name": "size",
          "type": "uint256"
        },
        {
          "indexed": false,
          "internalType": "uint256",
          "name": "price",
          "type": "uint256"
        },
        {
          "indexed": false,
          "internalType": "uint256",
          "name": "makerID",
          "type": "uint256"
        },
        {
          "indexed": false,
          "internalType": "uint256",
          "name": "makerGain",
          "type": "uint256"
        },
        {
          "indexed": false,
          "internalType": "uint256",
          "name": "makerLoss",
          "type": "uint256"
        },
        {
          "indexed": false,
          "internalType": "uint256",
          "name": "closeFlag",
          "type": "uint256"
        },
        {
          "indexed": false,
          "internalType": "uint256",
          "name": "closeType",
          "type": "uint256"
        }
      ],
      "name": "ClosedMakerDeal",
      "type": "event"
    },
    {
      "anonymous": false,
      "inputs": [
        {
          "indexed": false,
          "internalType": "uint64",
          "name": "version",
          "type": "uint64"
        }
      ],
      "name": "Initialized",
      "type": "event"
    },
    {
      "anonymous": false,
      "inputs": [
        {
          "indexed": false,
          "internalType": "address",
          "name": "token",
          "type": "address"
        },
        {
          "indexed": false,
          "internalType": "address",
          "name": "taker",
          "type": "address"
        }
      ],
      "name": "LiquidateTaker",
      "type": "event"
    },
    {
      "anonymous": false,
      "inputs": [
        {
          "indexed": false,
          "internalType": "uint256",
          "name": "dealID",
          "type": "uint256"
        },
        {
          "indexed": false,
          "internalType": "address",
          "name": "token",
          "type": "address"
        },
        {
          "indexed": false,
          "internalType": "address",
          "name": "maker",
          "type": "address"
        },
        {
          "indexed": false,
          "internalType": "uint256",
          "name": "makerID",
          "type": "uint256"
        }
      ],
      "name": "LiquidatedMakerDeal",
      "type": "event"
    },
    {
      "anonymous": false,
      "inputs": [
        {
          "indexed": false,
          "internalType": "uint256",
          "name": "dealID",
          "type": "uint256"
        },
        {
          "indexed": false,
          "internalType": "address",
          "name": "token",
          "type": "address"
        },
        {
          "indexed": false,
          "internalType": "address",
          "name": "maker",
          "type": "address"
        },
        {
          "indexed": false,
          "internalType": "uint256",
          "name": "size",
          "type": "uint256"
        },
        {
          "indexed": false,
          "internalType": "uint256",
          "name": "price",
          "type": "uint256"
        },
        {
          "indexed": false,
          "internalType": "uint256",
          "name": "makerID",
          "type": "uint256"
        },
        {
          "indexed": false,
          "internalType": "uint256",
          "name": "marginAmount",
          "type": "uint256"
        },
        {
          "indexed": false,
          "internalType": "uint256",
          "name": "maintenanceMargin",
          "type": "uint256"
        },
        {
          "indexed": false,
          "internalType": "uint256",
          "name": "flag",
          "type": "uint256"
        }
      ],
      "name": "LockPoolMargin",
      "type": "event"
    },
    {
      "anonymous": false,
      "inputs": [
        {
          "indexed": true,
          "internalType": "address",
          "name": "previousOwner",
          "type": "address"
        },
        {
          "indexed": true,
          "internalType": "address",
          "name": "newOwner",
          "type": "address"
        }
      ],
      "name": "OwnershipTransferred",
      "type": "event"
    },
    {
      "anonymous": false,
      "inputs": [
        {
          "indexed": true,
          "internalType": "address",
          "name": "account",
          "type": "address"
        },
        {
          "indexed": true,
          "internalType": "address",
          "name": "token",
          "type": "address"
        },
        {
          "indexed": false,
          "internalType": "uint256",
          "name": "amount",
          "type": "uint256"
        },
        {
          "indexed": false,
          "internalType": "enum ICommon.PoolFlag",
          "name": "poolType",
          "type": "uint8"
        }
      ],
      "name": "Provide",
      "type": "event"
    },
    {
      "anonymous": false,
      "inputs": [
        {
          "indexed": true,
          "internalType": "address",
          "name": "token",
          "type": "address"
        },
        {
          "indexed": true,
          "internalType": "address",
          "name": "sender",
          "type": "address"
        },
        {
          "indexed": true,
          "internalType": "address",
          "name": "received",
          "type": "address"
        },
        {
          "indexed": false,
          "internalType": "enum ICommon.TransactionType",
          "name": "transactionType",
          "type": "uint8"
        },
        {
          "indexed": false,
          "internalType": "uint256",
          "name": "amount",
          "type": "uint256"
        },
        {
          "indexed": false,
          "internalType": "uint256",
          "name": "timestamp",
          "type": "uint256"
        }
      ],
      "name": "TransactionHistory",
      "type": "event"
    },
    {
      "anonymous": false,
      "inputs": [
        {
          "indexed": true,
          "internalType": "address",
          "name": "account",
          "type": "address"
        },
        {
          "indexed": true,
          "internalType": "address",
          "name": "token",
          "type": "address"
        },
        {
          "indexed": false,
          "internalType": "uint256",
          "name": "amount",
          "type": "uint256"
        },
        {
          "indexed": false,
          "internalType": "enum ICommon.PoolFlag",
          "name": "poolType",
          "type": "uint8"
        }
      ],
      "name": "Withdraw",
      "type": "event"
    },
    {
      "anonymous": false,
      "inputs": [
        {
          "indexed": false,
          "internalType": "address",
          "name": "token",
          "type": "address"
        },
        {
          "indexed": false,
          "internalType": "address",
          "name": "sender",
          "type": "address"
        },
        {
          "indexed": false,
          "internalType": "string",
          "name": "name",
          "type": "string"
        },
        {
          "indexed": false,
          "internalType": "uint256",
          "name": "beforeLeverage",
          "type": "uint256"
        },
        {
          "indexed": false,
          "internalType": "uint256",
          "name": "afterLeverage",
          "type": "uint256"
        }
      ],
      "name": "setLeverage",
      "type": "event"
    },
    {
      "stateMutability": "nonpayable",
      "type": "fallback"
    },
    {
      "inputs": [
        {
          "internalType": "uint256",
          "name": "_dealID",
          "type": "uint256"
        },
        {
          "internalType": "uint256",
          "name": "_amount",
          "type": "uint256"
        }
      ],
      "name": "addMarginAmount",
      "outputs": [],
      "stateMutability": "nonpayable",
      "type": "function"
    },
    {
      "inputs": [],
      "name": "addMarginRatio",
      "outputs": [
        {
          "internalType": "uint256",
          "name": "",
          "type": "uint256"
        }
      ],
      "stateMutability": "view",
      "type": "function"
    },
    {
      "inputs": [
        {
          "internalType": "uint256",
          "name": "_id",
          "type": "uint256"
        },
        {
          "internalType": "uint8",
          "name": "_type",
          "type": "uint8"
        },
        {
          "internalType": "uint256",
          "name": "_profit",
          "type": "uint256"
        },
        {
          "internalType": "uint256",
          "name": "_loss",
          "type": "uint256"
        },
        {
          "internalType": "uint256",
          "name": "_amount",
          "type": "uint256"
        },
        {
          "internalType": "uint256",
          "name": "_price",
          "type": "uint256"
        },
        {
          "internalType": "bool",
          "name": "_transform",
          "type": "bool"
        }
      ],
      "name": "close",
      "outputs": [
        {
          "internalType": "uint256",
          "name": "makerProfit",
          "type": "uint256"
        },
        {
          "internalType": "uint256",
          "name": "makerLoss",
          "type": "uint256"
        },
        {
          "internalType": "bool",
          "name": "isLiquidated",
          "type": "bool"
        },
        {
          "internalType": "bool",
          "name": "isAgreement",
          "type": "bool"
        }
      ],
      "stateMutability": "nonpayable",
      "type": "function"
    },
    {
      "inputs": [
        {
          "internalType": "address",
          "name": "token",
          "type": "address"
        },
        {
          "internalType": "address",
          "name": "maker",
          "type": "address"
        }
      ],
      "name": "getLP2Account",
      "outputs": [
        {
          "components": [
            {
              "internalType": "address payable",
              "name": "holder",
              "type": "address"
            },
            {
              "internalType": "uint256",
              "name": "amount",
              "type": "uint256"
            },
            {
              "internalType": "uint256",
              "name": "availableAmount",
              "type": "uint256"
            },
            {
              "internalType": "uint256",
              "name": "lockedAmount",
              "type": "uint256"
            },
            {
              "internalType": "uint256",
              "name": "maintenanceMargin",
              "type": "uint256"
            },
            {
              "internalType": "uint256",
              "name": "leverage",
              "type": "uint256"
            },
            {
              "internalType": "uint256",
              "name": "maintenanceMarginRate",
              "type": "uint256"
            },
            {
              "internalType": "uint256",
              "name": "addMarginRate",
              "type": "uint256"
            },
            {
              "internalType": "bool",
              "name": "autoAddMargin",
              "type": "bool"
            },
            {
              "internalType": "bool",
              "name": "isRejectOrder",
              "type": "bool"
            }
          ],
          "internalType": "struct ICommon.LP2Account",
          "name": "",
          "type": "tuple"
        }
      ],
      "stateMutability": "view",
      "type": "function"
    },
    {
      "inputs": [
        {
          "internalType": "address",
          "name": "token",
          "type": "address"
        }
      ],
      "name": "getLP2Accounts",
      "outputs": [
        {
          "internalType": "address[]",
          "name": "",
          "type": "address[]"
        }
      ],
      "stateMutability": "view",
      "type": "function"
    },
    {
      "inputs": [
        {
          "internalType": "address",
          "name": "token",
          "type": "address"
        }
      ],
      "name": "getMakerAddresses",
      "outputs": [
        {
          "internalType": "address[]",
          "name": "",
          "type": "address[]"
        }
      ],
      "stateMutability": "view",
      "type": "function"
    },
    {
      "inputs": [
        {
          "internalType": "uint256",
          "name": "makerDealID",
          "type": "uint256"
        }
      ],
      "name": "getMakerDeal",
      "outputs": [
        {
          "components": [
            {
              "internalType": "string",
              "name": "name",
              "type": "string"
            },
            {
              "internalType": "address",
              "name": "token",
              "type": "address"
            },
            {
              "internalType": "address",
              "name": "makerAddr",
              "type": "address"
            },
            {
              "internalType": "uint256",
              "name": "takerId",
              "type": "uint256"
            },
            {
              "internalType": "uint256",
              "name": "size",
              "type": "uint256"
            },
            {
              "internalType": "enum ICommon.Direct",
              "name": "direct",
              "type": "uint8"
            },
            {
              "internalType": "uint256",
              "name": "marginAmount",
              "type": "uint256"
            },
            {
              "internalType": "uint256",
              "name": "maintenanceMargin",
              "type": "uint256"
            },
            {
              "internalType": "uint256",
              "name": "price",
              "type": "uint256"
            },
            {
              "internalType": "uint256",
              "name": "time",
              "type": "uint256"
            },
            {
              "internalType": "bool",
              "name": "locked",
              "type": "bool"
            }
          ],
          "internalType": "struct ICommon.MakerDeal",
          "name": "",
          "type": "tuple"
        }
      ],
      "stateMutability": "view",
      "type": "function"
    },
    {
      "inputs": [],
      "name": "getMakerDealsLength",
      "outputs": [
        {
          "internalType": "uint256",
          "name": "",
          "type": "uint256"
        }
      ],
      "stateMutability": "view",
      "type": "function"
    },
    {
      "inputs": [
        {
          "internalType": "address",
          "name": "token",
          "type": "address"
        }
      ],
      "name": "getShareAddresses",
      "outputs": [
        {
          "internalType": "address[]",
          "name": "",
          "type": "address[]"
        }
      ],
      "stateMutability": "view",
      "type": "function"
    },
    {
      "inputs": [],
      "name": "getTokenList",
      "outputs": [
        {
          "internalType": "address[]",
          "name": "",
          "type": "address[]"
        }
      ],
      "stateMutability": "view",
      "type": "function"
    },
    {
      "inputs": [
        {
          "internalType": "address",
          "name": "token",
          "type": "address"
        },
        {
          "internalType": "address",
          "name": "maker",
          "type": "address"
        }
      ],
      "name": "getUserMakerDealsID",
      "outputs": [
        {
          "internalType": "uint256[]",
          "name": "",
          "type": "uint256[]"
        }
      ],
      "stateMutability": "view",
      "type": "function"
    },
    {
      "inputs": [
        {
          "internalType": "address",
          "name": "token",
          "type": "address"
        },
        {
          "internalType": "address",
          "name": "user",
          "type": "address"
        }
      ],
      "name": "getUserShareAmount",
      "outputs": [
        {
          "internalType": "uint256",
          "name": "",
          "type": "uint256"
        }
      ],
      "stateMutability": "view",
      "type": "function"
    },
    {
      "inputs": [
        {
          "internalType": "address",
          "name": "_riskFundAddr",
          "type": "address"
        }
      ],
      "name": "initialize",
      "outputs": [],
      "stateMutability": "nonpayable",
      "type": "function"
    },
    {
      "inputs": [],
      "name": "leverage",
      "outputs": [
        {
          "internalType": "uint256",
          "name": "",
          "type": "uint256"
        }
      ],
      "stateMutability": "view",
      "type": "function"
    },
    {
      "inputs": [],
      "name": "maintenanceMarginRate",
      "outputs": [
        {
          "internalType": "uint256",
          "name": "",
          "type": "uint256"
        }
      ],
      "stateMutability": "view",
      "type": "function"
    },
    {
      "inputs": [
        {
          "internalType": "uint256",
          "name": "",
          "type": "uint256"
        }
      ],
      "name": "matchIds",
      "outputs": [
        {
          "internalType": "uint256",
          "name": "",
          "type": "uint256"
        }
      ],
      "stateMutability": "view",
      "type": "function"
    },
    {
      "inputs": [
        {
          "components": [
            {
              "internalType": "string",
              "name": "name",
              "type": "string"
            },
            {
              "internalType": "address",
              "name": "token",
              "type": "address"
            },
            {
              "internalType": "address",
              "name": "makerAddr",
              "type": "address"
            },
            {
              "internalType": "uint256",
              "name": "takerId",
              "type": "uint256"
            },
            {
              "internalType": "uint256",
              "name": "size",
              "type": "uint256"
            },
            {
              "internalType": "enum ICommon.Direct",
              "name": "direct",
              "type": "uint8"
            },
            {
              "internalType": "uint256",
              "name": "marginAmount",
              "type": "uint256"
            },
            {
              "internalType": "uint256",
              "name": "maintenanceMargin",
              "type": "uint256"
            },
            {
              "internalType": "uint256",
              "name": "price",
              "type": "uint256"
            },
            {
              "internalType": "uint256",
              "name": "time",
              "type": "uint256"
            },
            {
              "internalType": "bool",
              "name": "locked",
              "type": "bool"
            }
          ],
          "internalType": "struct ICommon.MakerDeal",
          "name": "makerDeal",
          "type": "tuple"
        }
      ],
      "name": "newMakerDeal",
      "outputs": [
        {
          "internalType": "uint256",
          "name": "makerDealID",
          "type": "uint256"
        }
      ],
      "stateMutability": "nonpayable",
      "type": "function"
    },
    {
      "inputs": [],
      "name": "owner",
      "outputs": [
        {
          "internalType": "address",
          "name": "",
          "type": "address"
        }
      ],
      "stateMutability": "view",
      "type": "function"
    },
    {
      "inputs": [
        {
          "internalType": "address",
          "name": "",
          "type": "address"
        }
      ],
      "name": "poolType",
      "outputs": [
        {
          "internalType": "enum ICommon.PoolFlag",
          "name": "",
          "type": "uint8"
        }
      ],
      "stateMutability": "view",
      "type": "function"
    },
    {
      "inputs": [
        {
          "internalType": "address",
          "name": "",
          "type": "address"
        },
        {
          "internalType": "string",
          "name": "",
          "type": "string"
        },
        {
          "internalType": "uint256",
          "name": "",
          "type": "uint256"
        }
      ],
      "name": "positions",
      "outputs": [
        {
          "internalType": "uint256",
          "name": "value",
          "type": "uint256"
        },
        {
          "internalType": "uint256",
          "name": "size",
          "type": "uint256"
        }
      ],
      "stateMutability": "view",
      "type": "function"
    },
    {
      "inputs": [],
      "name": "privateMinMintAmount",
      "outputs": [
        {
          "internalType": "uint256",
          "name": "",
          "type": "uint256"
        }
      ],
      "stateMutability": "view",
      "type": "function"
    },
    {
      "inputs": [
        {
          "internalType": "address",
          "name": "_token",
          "type": "address"
        },
        {
          "internalType": "uint256",
          "name": "_amount",
          "type": "uint256"
        },
        {
          "internalType": "enum ICommon.PoolFlag",
          "name": "_priOrPub",
          "type": "uint8"
        },
        {
          "internalType": "string[]",
          "name": "_symbols",
          "type": "string[]"
        },
        {
          "internalType": "bytes[]",
          "name": "_prices",
          "type": "bytes[]"
        }
      ],
      "name": "provide",
      "outputs": [],
      "stateMutability": "payable",
      "type": "function"
    },
    {
      "inputs": [],
      "name": "renounceOwnership",
      "outputs": [],
      "stateMutability": "nonpayable",
      "type": "function"
    },
    {
      "inputs": [
        {
          "internalType": "address",
          "name": "_perpetual",
          "type": "address"
        },
        {
          "internalType": "address",
          "name": "_orderBook",
          "type": "address"
        },
        {
          "internalType": "address",
          "name": "_tradeAgent",
          "type": "address"
        },
        {
          "internalType": "address",
          "name": "_tradeStation",
          "type": "address"
        },
        {
          "internalType": "address",
          "name": "_poolAgent",
          "type": "address"
        },
        {
          "internalType": "address",
          "name": "_keeper",
          "type": "address"
        }
      ],
      "name": "setKeepers",
      "outputs": [],
      "stateMutability": "nonpayable",
      "type": "function"
    },
    {
      "inputs": [
        {
          "internalType": "address",
          "name": "_token",
          "type": "address"
        },
        {
          "internalType": "enum ICommon.PoolFlag",
          "name": "_flag",
          "type": "uint8"
        }
      ],
      "name": "setPoolType",
      "outputs": [],
      "stateMutability": "nonpayable",
      "type": "function"
    },
    {
      "inputs": [
        {
          "internalType": "uint256",
          "name": "_value",
          "type": "uint256"
        }
      ],
      "name": "setPrivateMinMintAmount",
      "outputs": [],
      "stateMutability": "nonpayable",
      "type": "function"
    },
    {
      "inputs": [
        {
          "internalType": "address",
          "name": "_token",
          "type": "address"
        },
        {
          "internalType": "uint256",
          "name": "_leverage",
          "type": "uint256"
        },
        {
          "internalType": "bool",
          "name": "_isRejectOrder",
          "type": "bool"
        },
        {
          "internalType": "bool",
          "name": "_autoAddMargin",
          "type": "bool"
        }
      ],
      "name": "setUserParam",
      "outputs": [],
      "stateMutability": "nonpayable",
      "type": "function"
    },
    {
      "inputs": [
        {
          "internalType": "address",
          "name": "",
          "type": "address"
        },
        {
          "internalType": "enum ICommon.PoolFlag",
          "name": "",
          "type": "uint8"
        }
      ],
      "name": "totalLockedLiquidity",
      "outputs": [
        {
          "internalType": "uint256",
          "name": "",
          "type": "uint256"
        }
      ],
      "stateMutability": "view",
      "type": "function"
    },
    {
      "inputs": [
        {
          "internalType": "address",
          "name": "newOwner",
          "type": "address"
        }
      ],
      "name": "transferOwnership",
      "outputs": [],
      "stateMutability": "nonpayable",
      "type": "function"
    },
    {
      "inputs": [
        {
          "internalType": "address",
          "name": "_token",
          "type": "address"
        },
        {
          "internalType": "uint256",
          "name": "_amount",
          "type": "uint256"
        },
        {
          "internalType": "enum ICommon.PoolFlag",
          "name": "_priOrPub",
          "type": "uint8"
        },
        {
          "internalType": "string[]",
          "name": "_symbols",
          "type": "string[]"
        },
        {
          "internalType": "bytes[]",
          "name": "_prices",
          "type": "bytes[]"
        }
      ],
      "name": "withdraw",
      "outputs": [],
      "stateMutability": "payable",
      "type": "function"
    }
  ],
  "bytecode": "0x608080604052346015576145f6908161001a8239f35b5f80fdfe60806040526004361015610019575b3461001557005b5f80fd5b5f5f3560e01c8063017364e81461192957806302996994146118445780630c8c3516146117b15780631f92a4da14611794578063273cbaa0146117205780632c86d98e1461170357806336ff6a70146116d95780633b3de031146116825780634e091b22146116515780635a92c628146115d35780635baf45fb1461069c57806360d32e8d1461142b578063669e01ee14611411578063715018a61461137a578063859d90a31461120f57806389f00b6d146111f25780638da5cb5b146111ad5780639409b02914611158578063ba0efe031461113b578063c0a14831146110f9578063c23e629f14610f12578063c4d66de814610c6f578063cf946a5614610795578063d5e008d2146106ef578063d7496060146106a1578063dc8d601c1461069c578063f26a3e1d14610315578063f2da708d146102f7578063f2fde38b146102ca5763f74c30491461016e575061000e565b346102c75760c06003193601126102c757610187611941565b61018f611957565b90604435906001600160a01b03821680920361001557606435916001600160a01b03831680930361001557608435916001600160a01b0383168093036100155760a435946001600160a01b038616809603610015576001600160a01b0380926101f6612dec565b16806001600160a01b031960065416176006558752600e60205260408720600160ff1982541617905516806001600160a01b031960075416176007558552600e60205260408520600160ff19825416179055806001600160a01b031960085416176008558452600e60205260408420600160ff19825416179055806001600160a01b031960095416176009558352600e60205260408320600160ff198254161790558252600e60205260408220600160ff198254161790558152600e60205260408120600160ff1982541617905580f35b80fd5b50346102c75760206003193601126102c7576102f46102e7611941565b6102ef612dec565b6128fc565b80f35b50346102c757806003193601126102c7576020601254604051908152f35b50346102c75760e06003193601126102c757600435906024359060ff82168092036102c75760c43580151580910361001557338252600e60205261035f60ff6040842054166123f1565b838252601860205260408220545f198101908111610688576001600160a01b03600261038a83612462565b50015416936001600160a01b0360016103a284612462565b50015416918285526010602052604085206001600160a01b0387165f526020527f55a05fded01868e623bc311ab3e73d3cec2f0871392b36317648452d989ed1ce61010060405f206040516103f68161199e565b6001600160a01b03825416815260018201549182602083015260028101549182604082015260038201549081606082015261012060ff6008600486015495866080860152600581015460a0860152600681015460c0860152600781015460e0860152015481811615158985015260081c161515910152888b52600f60205260408b206001600160a01b038d165f5260205260405f205492604051948a86528d602087015260408601526060850152608084015260a083015260c0820152600a60e0820152a1604051926101a084019184831067ffffffffffffffff841117610674576080987f55a05fded01868e623bc311ab3e73d3cec2f0871392b36317648452d989ed1ce9461010094604052888752602087019789895260408801526060870152828a87015260a086015260c085015260443560e08501526064358285015260843561012085015260a4356101408501526101608401968688526101808501978789526105648661324f565b5197519451151595511515968281526010602052604081206001600160a01b0383165f5260205260405f20906040519061059d8261199e565b6001600160a01b03835416825260018301548060208401526040600285015492838286015260038601549485606082015261012060ff600860048a01549960808b90860152600581015460a0860152600681015460c0860152600781015460e0860152015481811615158d85015260081c161515910152878152600f602052206001600160a01b0386165f5260205260405f2054946040519687526020870152604086015260608501528a84015260a083015260c0820152601460e0820152a1604051938452602084015260408301526060820152f35b634e487b7160e01b5f52604160045260245ffd5b602483634e487b7160e01b81526011600452fd5b611c09565b50346102c75760406003193601126102c7576001600160a01b0360406106c5611941565b92826106cf611957565b94168152600f6020522091165f52602052602060405f2054604051908152f35b50346102c75760406003193601126102c757610709611941565b6001600160a01b03610719611957565b9116825260116020526001600160a01b036040832091165f5260205260405f20604051918260208354918281520192825260208220915b81811061077f5761077b85610767818703826119bb565b604051918291602083526020830190611cba565b0390f35b8254845260209093019260019283019201610750565b50346102c75760206003193601126102c75760043567ffffffffffffffff8111610c6b576101606003198236030112610c6b57604051916107d583611981565b816004013567ffffffffffffffff8111610c6b576107f99060043691850101611a48565b83526108076024830161196d565b60208401526108186044830161196d565b6040840152606482013560608401526084820135608084015260a48201356003811015610c6b5760a084015260c482013560c084015260e482013560e0840152610100830190610104830135825261014461012085019361012481013585520135801515810361001557610140850152338152600e6020526108a060ff6040832054166123f1565b6108b360c085015160e086015190611d8a565b6108d9816001600160a01b036020880151166001600160a01b0360408901511690612e4b565b601254936001600160a01b0360208701511683526011602052604083206001600160a01b0380604089015116165f526020526109188560405f20612fba565b5060125468010000000000000000811015610c575780600161093d9201601255612462565b919091610c4457865180519067ffffffffffffffff8211610c30578190610964855461247e565b601f8111610be0575b50602090601f8311600114610b80578792610b75575b50508160011b915f199060031b1c19161782555b6001600160a01b036020880151166001600160a01b036001840191166001600160a01b03198254161790556001600160a01b036040880151166001600160a01b036002840191166001600160a01b031982541617905560608701516003830155608087015160048301556005820160a08801516003811015610b615790610a6693929160ff60ff19835416911617905560c0880151600683015560e0880151600783015585516008830155516009820155600a610140880151151591019060ff60ff1983541691151516179055565b60125460608601518352601860205260408320556001600160a01b0360208601511682526010602052604082206001600160a01b0380604088015116165f52602052610ae1600260405f2060038101610ac0858254611d8a565b905560048101610ad6815460e08b015190611d8a565b905501918254611d69565b90556001600160a01b036040850151166001600160a01b036014541614610b0e575b602083604051908152f35b6001600160a01b036020850151169380519060a0810151926003841015610b4d575091610b46939160806020979401519251936130e9565b5f80610b03565b80634e487b7160e01b602492526021600452fd5b602486634e487b7160e01b81526021600452fd5b015190505f80610983565b85885281882092601f1916885b818110610bc85750908460019594939210610bb0575b505050811b018255610997565b01515f1960f88460031b161c191690555f8080610ba3565b92936020600181928786015181550195019301610b8d565b90915084875260208720601f840160051c81019160208510610c26575b90601f859493920160051c01905b818110610c18575061096d565b5f8155849350600101610c0b565b9091508190610bfd565b602486634e487b7160e01b81526041600452fd5b602484634e487b7160e01b815280600452fd5b602484634e487b7160e01b81526041600452fd5b5080fd5b3461001557602060031936011261001557610c88611941565b7ff0c57e16840df040f15088dc2f81fe391c3923bec73e23a9662efc9c229c6a005460ff8160401c16159167ffffffffffffffff821680159081610f0a575b6001149081610f00575b159081610ef7575b50610ecf57818360017fffffffffffffffffffffffffffffffffffffffffffffffff00000000000000006001600160a01b039516177ff0c57e16840df040f15088dc2f81fe391c3923bec73e23a9662efc9c229c6a0055610e7a575b50610d3e61394b565b610d4661394b565b610d4f336128fc565b166001600160a01b03196005541617600555306001600160a01b03196014541617601455305f52600e60205260405f20600160ff19825416179055335f52600e60205260405f20600160ff19825416179055600160ff195f5416175f55670de0b6b3a7640000600155670de0b6b3a7640000601555600a60025567016345785d8a000060035567016345785d8a0000600455610de757005b7fffffffffffffffffffffffffffffffffffffffffffffff00ffffffffffffffff7ff0c57e16840df040f15088dc2f81fe391c3923bec73e23a9662efc9c229c6a0054167ff0c57e16840df040f15088dc2f81fe391c3923bec73e23a9662efc9c229c6a00557fc7f505b2f371ae2175ee4913f4499e1f2633a7b5936321eed1cdaeb6115181d2602060405160018152a1005b7fffffffffffffffffffffffffffffffffffffffffffffff0000000000000000001668010000000000000001177ff0c57e16840df040f15088dc2f81fe391c3923bec73e23a9662efc9c229c6a005583610d35565b7ff92ee8a9000000000000000000000000000000000000000000000000000000005f5260045ffd5b90501584610cd9565b303b159150610cd1565b849150610cc7565b3461001557604060031936011261001557602435600435610f3281612462565b5060018101906001600160a01b038254165f52601060205260405f206001600160a01b0333165f5260205260405f209160028201336001600160a01b03825416036110b557600284019384549187831061107157600160ff600a8701541615150361102d5760066001600160a01b039560038a947fc8f742aa90a6e6851d2252fa58ed695d3ca295b55bf5f1c2164a360cc8a093e299610fd58761100199611d69565b905501610fe3858254611d8a565b905501610ff1838254611d8a565b9055848085541691541690612e4b565b541692600661100f84612462565b500154604080519485526020850192909252908301523391606090a3005b606460405162461bcd60e51b815260206004820152601660248201527f4c6971756964697479207374617475732077726f6e67000000000000000000006044820152fd5b606460405162461bcd60e51b815260206004820152601060248201527f45786365656420617661696c61626c65000000000000000000000000000000006044820152fd5b606460405162461bcd60e51b815260206004820152600960248201527f4e6f74206d616b657200000000000000000000000000000000000000000000006044820152fd5b34610015576020600319360112610015576001600160a01b0361111a611941565b165f526013602052602060ff60405f2054166111396040518092611cad565bf35b34610015575f600319360112610015576020600354604051908152f35b34610015576001600160a01b0361116e36611bda565b91165f52601660205260405f20906004811015611199575f52602052602060405f2054604051908152f35b634e487b7160e01b5f52602160045260245ffd5b34610015575f6003193601126100155760206001600160a01b037f9016d09d72d40fdae2fd8ceac6b6234c7706214fd39c1cd1e609a0528c1993005416604051908152f35b34610015575f600319360112610015576020600454604051908152f35b3461001557604060031936011261001557611228611941565b6001600160a01b03611238611957565b915f6101206040516112498161199e565b8281528260208201528260408201528260608201528260808201528260a08201528260c08201528260e0820152826101008201520152165f5260106020526001600160a01b0360405f2091165f5260205261014060405f20604051906112ae8261199e565b6001600160a01b03815416918281526001820154916020820192835260028101546040830190815260038201546060840190815260048301546080850190815260058401549160a0860192835260068501549360c08701948552600860078701549660e0890197885201549760ff6101206101008a0199828c1615158b52019960081c1615158952604051998a525160208a01525160408901525160608801525160808701525160a08601525160c08501525160e0840152511515610100830152511515610120820152f35b34610015575f60031936011261001557611392612dec565b5f6001600160a01b037f9016d09d72d40fdae2fd8ceac6b6234c7706214fd39c1cd1e609a0528c199300546001600160a01b031981167f9016d09d72d40fdae2fd8ceac6b6234c7706214fd39c1cd1e609a0528c19930055167f8be0079c531659141344cd1fd0a4f28419497f9722a3daafe3b4186f6b6457e08280a3005b61142961141d36611a66565b949390939291926125a1565b005b34610015576020600319360112610015575f61014060405161144c81611981565b606081528260208201528260408201528260608201528260808201528260a08201528260c08201528260e082015282610100820152826101208201520152611495600435612462565b506040516114a281611981565b6114ab826124b6565b81526001600160a01b03600183015416602082019081526001600160a01b0360028401541692604083019384526003810154906060840191825260048101546080850190815260ff60058301541660a08601906003811015611199578152600683015460c0870190815260078401549160e0880192835260088501549361010089019485526009860154956101208a01968752600a015460ff16966101408a0197151588526040519a8b9a60208c525160208c0161016090526101808c0161157291611c7b565b99516001600160a01b031660408c0152516001600160a01b031660608b01525160808a01525160a08901525160c088016115ab91611ca0565b5160e08701525161010086015251610120850152516101408401525115156101608301520390f35b34610015576020600319360112610015576001600160a01b036115f4611941565b165f52600c60205260405f206040519081602082549182815201915f5260205f20905f5b81811061163b5761077b8561162f818703826119bb565b60405191829182611b98565b8254845260209093019260019283019201611618565b3461001557602060031936011261001557335f52600e60205261167a60ff60405f2054166123f1565b600435601555005b34610015576001600160a01b0361169836611bda565b9190335f52600e6020526116b260ff60405f2054166123f1565b165f52601360205260405f209060048110156111995760ff60ff1983541691161790555f80f35b34610015576020600319360112610015576004355f526018602052602060405f2054604051908152f35b34610015575f600319360112610015576020600254604051908152f35b34610015575f60031936011261001557604051806020600a54918281520190600a5f527fc65a7bb8d6351c1cf70c95a316cc6a92839c986682d98bc35f958f4883f9d2a8905f5b81811061177e5761077b8561162f818703826119bb565b8254845260209093019260019283019201611767565b34610015575f600319360112610015576020601554604051908152f35b34610015576060600319360112610015576117ca611941565b60243567ffffffffffffffff81116100155760206117ed81923690600401611a48565b6001600160a01b0360443594165f526017825260405f20604051938285935191829101845e82019081520301902060028210156100155760409161183091611b71565b506001815491015482519182526020820152f35b346100155760806003193601126100155761185d611941565b60243590604435801515810361001557606435918215158303610015576001600160a01b03165f52601060205260405f206001600160a01b0333165f5260205260405f20606484116118e5576008816114299560056118d39401550191829061ff001961ff00835492151560081b169116179055565b9060ff60ff1983541691151516179055565b606460405162461bcd60e51b815260206004820152600c60248201527f6f7574206f6620302d31303000000000000000000000000000000000000000006044820152fd5b61142961193536611a66565b94939093929192611d97565b600435906001600160a01b038216820361001557565b602435906001600160a01b038216820361001557565b35906001600160a01b038216820361001557565b610160810190811067ffffffffffffffff82111761067457604052565b610140810190811067ffffffffffffffff82111761067457604052565b90601f601f19910116810190811067ffffffffffffffff82111761067457604052565b67ffffffffffffffff81116106745760051b60200190565b67ffffffffffffffff811161067457601f01601f191660200190565b929192611a1e826119f6565b91611a2c60405193846119bb565b829481845281830111610015578281602093845f960137010152565b9080601f8301121561001557816020611a6393359101611a12565b90565b9060a0600319830112610015576004356001600160a01b03811681036100155791602435916044356004811015610015579160643567ffffffffffffffff81116100155781602382011215610015578060040135611ac3816119de565b91611ad160405193846119bb565b8183526024602084019260051b820101918483116100155760248201905b838210611b4257505050509160843567ffffffffffffffff811161001557826023820112156100155780600401359267ffffffffffffffff84116100155760248460051b83010111610015576024019190565b813567ffffffffffffffff811161001557602091611b668860248594880101611a48565b815201910190611aef565b906002811015611b845760011b01905f90565b634e487b7160e01b5f52603260045260245ffd5b60206040818301928281528451809452019201905f5b818110611bbb5750505090565b82516001600160a01b0316845260209384019390920191600101611bae565b6003196040910112610015576004356001600160a01b0381168103610015579060243560048110156100155790565b34610015576020600319360112610015576001600160a01b03611c2a611941565b165f52600d60205260405f206040519081602082549182815201915f5260205f20905f5b818110611c655761077b8561162f818703826119bb565b8254845260209093019260019283019201611c4e565b90601f19601f602080948051918291828752018686015e5f8582860101520116010190565b9060038210156111995752565b9060048210156111995752565b90602080835192838152019201905f5b818110611cd75750505090565b8251845260209384019390920191600101611cca565b929192611cf9826119de565b93611d0760405195866119bb565b602085848152019260051b8201918183116100155780935b838510611d2d575050505050565b843567ffffffffffffffff811161001557820183601f8201121561001557602091611d5e8583858095359101611a12565b815201940193611d1f565b91908203918211611d7657565b634e487b7160e01b5f52601160045260245ffd5b91908201809211611d7657565b9290936001600160a01b03841695865f52601360205260ff60405f2054166004811015611199571580156123c7575b1561238357611de091611dda913691611ced565b82612a0f565b906004831015611199576001830361207857855f52600f60205260405f206001600160a01b0333165f5260205260405f2054851161203457855f52600f60205260405f206001600160a01b0333165f5260205260405f20611e42868254611d69565b9055855f52600f60205260405f206001600160a01b038060145416165f5260205260405f20611e72868254611d69565b9055855f52600f60205260405f206001600160a01b0333165f5260205260405f205460155411611f98575b611eae611ebd92611eb492866137d8565b856128cb565b600154906128de565b845f52601060205260405f206001600160a01b038060145416165f5260205260405f20926002840190815491828411611f5457611f12611f1c9488946001611f2c9901611f0b838254611d69565b9055611d69565b90555b3390612bba565b6040519283526020830190611cad565b7fb9da3f3df62c28aca604806cc6ee9678189d7591ef511a77bb040fa8361e9e0260403392a3565b606460405162461bcd60e51b815260206004820152601c60248201527f776974686472617720616d6f756e7420697320746f6f206c61726765000000006044820152fd5b93611eae611ebd92611fcd611eb493895f52600f60205260405f206001600160a01b0333165f5260205260405f205490611d8a565b5f898152600f60209081526040808320338452909152808220546014546001600160a01b0316835291208054929992909161200791611d69565b9055885f52600f60205260405f206001600160a01b0333165f526020525f60408120559250925050611e9d565b606460405162461bcd60e51b815260206004820152601260248201527f736861726520697320746f6f206c6172676500000000000000000000000000006044820152fd5b50509190600283145f1461237d57835f52601060205260405f206001600160a01b0333165f5260205260405f2092604051936120b38561199e565b6001600160a01b0381541685526001810154602086019081526002820154906040870182815287600385015493606082019485526004860154936080830194855260058701549560a0840196875260068801549760c08501988952600860078201549160e0870192835201549360ff61012061010088019782881615158952019560081c16151585528c116123395761214d8c8451611d69565b835261215a8c8751611d69565b86528151158061232f575b80612323575b612309575b9b8b9c839c9a9b9c5180155f14612200575050505050505050505050611f1c90611f2c93865f52600d6020526121a93360405f20613713565b50865f52601060205260405f206001600160a01b0333165f526020525f6008604082208281558260018201558260028201558260038201558260048201558260058201558260068201558260078201550155611f15565b9091929394959697999c989a50601554116122c557611f2c9b611f1c9a8f9a8f9b956122c09a6122a9986008985f52601060205260405f206001600160a01b0333165f526020526001600160a01b038060405f20995116166001600160a01b03198954161788555160018801555160028701555160038601555160048501555160058401555160068301555160078201550192511515839060ff60ff1983541691151516179055565b51815461ff00191690151560081b61ff0016179055565b611f15565b606460405162461bcd60e51b815260206004820152601860248201527f7374617920616d6f756e7420697320746f6f20736d616c6c00000000000000006044820152fd5b98999a61231890835190611d8a565b5f83529a9998612170565b5082516015541161216b565b5082511515612165565b606460405162461bcd60e51b815260206004820152601360248201527f616d6f756e7420697320746f6f206c61726765000000000000000000000000006044820152fd5b50505050565b606460405162461bcd60e51b815260206004820152601360248201527f77726f6e6720776974686472617720666c6167000000000000000000000000006044820152fd5b50865f52601360205260ff60405f2054166004851015611199576004811015611199578414611dc6565b156123f857565b608460405162461bcd60e51b815260206004820152602160248201527f63616c6c6572206973206e6f74207072697661746520706f6f6c206b6565706560448201527f72000000000000000000000000000000000000000000000000000000000000006064820152fd5b601254811015611b845760125f52600b60205f20910201905f90565b90600182811c921680156124ac575b602083101461249857565b634e487b7160e01b5f52602260045260245ffd5b91607f169161248d565b9060405191825f8254926124c98461247e565b808452936001811690811561253457506001146124f0575b506124ee925003836119bb565b565b90505f9291925260205f20905f915b8183106125185750509060206124ee928201015f6124e1565b60209193508060019154838589010152019101909184926124ff565b602093506124ee95925060ff1991501682840152151560051b8201015f6124e1565b1561255d57565b606460405162461bcd60e51b815260206004820152600960248201527f746f6f20736d616c6c00000000000000000000000000000000000000000000006044820152fd5b919290936001600160a01b03831695865f52601360205260ff60405f2054166004811015611199571580156128a1575b1561285d576125e591611dda913691611ced565b906125f285303386612cbc565b60048410156111995760018403612793579161264661264c92612723959461261e600154891015612556565b885f52600c6020526126333360405f206138f3565b50612640600154896128cb565b936137d8565b906128de565b845f52601060205260405f206001600160a01b038060145416165f5260205260405f20906001820161267f868254611d8a565b905560028201612690868254611d8a565b9055855f52600f60205260405f206001600160a01b038060145416165f5260205260405f206126c0828254611d8a565b9055855f52600f60205260405f206001600160a01b0333165f526020526126ec60405f20918254611d8a565b90556001600160a01b038154161561275a575b505b835f52600b60205260405f20541561274b576040519283526020830190611cad565b7ff0a113f51f7b2533b02cec05d7c882e65dae3fe08550753b743335926b6c0ab160403392a3565b61275484613899565b50611f1c565b60088101600160ff19825416179055600a60058201556001600160a01b038060145416166001600160a01b03198254161790555f6126ff565b5050506002810361285857612723906127b0601554841015612556565b835f52601060205260405f206001600160a01b0333165f52602052600260405f20855f52600d6020526127f43360405f206001915f520160205260405f2054151590565b1561281e575b60018101612809868254611d8a565b905501612817848254611d8a565b9055612701565b855f52600d6020526128333360405f206138f3565b5060088101805460ff1916600117905580546001600160a01b031916331781556127fa565b505050565b606460405162461bcd60e51b815260206004820152601260248201527f77726f6e67206465706f73697420666c616700000000000000000000000000006044820152fd5b50865f52601360205260ff60405f20541660048610156111995760048110156111995785146125d1565b81810292918115918404141715611d7657565b81156128e8570490565b634e487b7160e01b5f52601260045260245ffd5b6001600160a01b0316801561298b576001600160a01b037f9016d09d72d40fdae2fd8ceac6b6234c7706214fd39c1cd1e609a0528c19930054826001600160a01b03198216177f9016d09d72d40fdae2fd8ceac6b6234c7706214fd39c1cd1e609a0528c19930055167f8be0079c531659141344cd1fd0a4f28419497f9722a3daafe3b4186f6b6457e05f80a3565b7f1e4fbdf7000000000000000000000000000000000000000000000000000000005f525f60045260245ffd5b9080602083519182815201916020808360051b8301019401925f915b8383106129e257505050505090565b9091929394602080612a0083601f1986600196030187528951611c7b565b970193019301919392906129d3565b90612a5b916001600160a01b0360065416916040519384927fb5c926f40000000000000000000000000000000000000000000000000000000084526040600485015260448401906129b7565b600319838203016024840152815180825260208201916020808360051b8301019401925f915b838310612b425750505050509181805f94039134905af1908115612b37575f91612aa9575090565b90503d805f833e612aba81836119bb565b8101906020818303126100155780519067ffffffffffffffff821161001557019080601f83011215610015578151612af1816119de565b92612aff60405194856119bb565b81845260208085019260051b82010192831161001557602001905b828210612b275750505090565b8151815260209182019101612b1a565b6040513d5f823e3d90fd5b919395509193602080612b6183601f1986600196030187528951611c7b565b97019301930190928795949293612a81565b3d15612b9d573d90612b84826119f6565b91612b9260405193846119bb565b82523d5f602084013e565b606090565b90816020910312610015575180151581036100155790565b91611eb4612bd991612bd3612bce86613d32565b61388b565b906128cb565b9182612be457505050565b5f928380937fffffffff0000000000000000000000000000000000000000000000000000000060196020604051612c1c6040826119bb565b828152017f7472616e7366657228616464726573732c75696e74323536290000000000000081522016926001600160a01b036040519260208401958652166024830152604482015260448152612c736064826119bb565b51925af1612c7f612b73565b81612c8d575b501561001557565b8051801592508215612ca2575b50505f612c85565b612cb59250602080918301019101612ba2565b5f80612c9a565b909192611eb4612cd291612bd3612bce85613d32565b9283612cde5750505050565b5f80949381946001600160a01b037fffffffff000000000000000000000000000000000000000000000000000000006025604051612d1d6060826119bb565b8181527f7432353629000000000000000000000000000000000000000000000000000000604060208301927f7472616e7366657246726f6d28616464726573732c616464726573732c75696e84520152201694816040519460208601978852166024850152166044830152606482015260648152612d9c6084826119bb565b51925af1612da8612b73565b81612dbd575b5015610015575f80808061237d565b8051801592508215612dd2575b50505f612dae565b612de59250602080918301019101612ba2565b5f80612dca565b6001600160a01b037f9016d09d72d40fdae2fd8ceac6b6234c7706214fd39c1cd1e609a0528c19930054163303612e1f57565b7f118cdaa7000000000000000000000000000000000000000000000000000000005f523360045260245ffd5b906001600160a01b0380601454169116145f14612ea7576001600160a01b03612e8d911691825f52601660205260405f2060015f5260205260405f2054611d8a565b905f52601660205260405f2060015f5260205260405f2055565b6001600160a01b03612ed2911691825f52601660205260405f2060025f5260205260405f2054611d8a565b905f52601660205260405f2060025f5260205260405f2055565b905f906001600160a01b0380601454169116145f14612f79578015612f4d57612f366001600160a01b036040931693848352601660205283832060015f52602052835f2054611d8a565b92815260166020522060015f5260205260405f2055565b506001600160a01b03612e8d911691825f52601660205260405f2060015f5260205260405f2054611d69565b506001600160a01b03612ed2911691825f52601660205260405f2060025f5260205260405f2054611d69565b8054821015611b84575f5260205f2001905f90565b906001820191815f528260205260ff60405f2054166130e2575f908054805b8084106130a15750680100000000000000008110156106745761301c613006826001879401855584612fa5565b819391549060031b91821b915f19901b19161790565b905580545f198101908111611d7657908392915b82811161306057506130459161300691612fa5565b90555f5260205260405f20600160ff19825416179055600190565b919250905f198101818111611d76576130799083612fa5565b90549060031b1c61308d6130068385612fa5565b90558015611d7657839291905f1901613030565b926130ac8482611d8a565b60011c90856130bb8386612fa5565b90549060031b1c105f146130db575060018101809111611d765792612fd9565b9350612fd9565b5050505f90565b6020916001600160a01b038392969596165f526017825260405f20604051938285935191829101845e8201908152030190209060038110156111995760ff5f199116019160ff8311611d765761316561315d61315561314d61317096600196611b71565b5093876128cb565b8454906128de565b825490611d8a565b815501918254611d8a565b9055565b602092939450906001600160a01b038392165f526017825260405f20604051938285935191829101845e8201908152030190209060038110156111995760ff5f1991160160ff8111611d76576131c991611b71565b506001810191825480821161320b578082036131e9575050905f80925555565b82611f0b61317094546132058461320087846128cb565b6128de565b90611d69565b606460405162461bcd60e51b815260206004820152601c60248201527f736861726520616d6f756e7420697320696e73756666696369656e74000000006044820152fd5b60c0810161325d8151612462565b509060018201906001600160a01b03825416805f52601060205260405f209060028501906001600160a01b03825416926001600160a01b0384165f5260205260405f20906060880193600160ff865116145f146133f45750506132c19086886139a2565b6133ec577f181dbc3ad559b63759679084b2e0d8268b879a2556fb002571b357ce36b9916195610160956101208201519460029486156133dc575b5160ff166133a9576001600160a01b038454166001600160a01b0360145416145f146133a05760ff60035b16955b61337760ff60056001600160a01b038060038801549c5416985416950154166101408601519351946101808c880151970151976040519b8c5260208c015260408b015260608a0190611ca0565b608088015260a087015260c086015260e0850152610100840152610120830152610140820152a1565b60ff6001613327565b6001600160a01b038454166001600160a01b0360145416145f146133d35760ff60025b169561332a565b60ff60046133cc565b60048301549650600195506132fc565b505050505050565b9195509392506001600160a01b036014979692975416146136d4575b6101208501805180613650575050946001600160a01b036134746134b19388600a61346e9a0160ff19815416905560076006820154910154998a92885f52601160205260405f208680895416165f5260205260405f20905190613dbe565b50611d8a565b916002860197613485848a54611d8a565b895560038701613496858254611d69565b90556134a760048801918254611d69565b9055541683612eec565b60e083018051909190156135d7578151610180850190808252865481115f1461358b575084935f9360019793889360406020990151613506575b505050016134fc8154835490611d69565b9055558281520152565b61355961356d935161351a88548092611d69565b9061352485613e9f565b808311613575575b5050613546816001600160a01b0360055416309087612cbc565b306001600160a01b036005541685613ff4565b6001600160a01b0360065416905191612bba565b5f80806134eb565b6135829192508092611d8a565b83525f8061352c565b905060406131709594939401516135ba575b50506135b0600183519201918254611d69565b9055518254611d69565b6135d0916001600160a01b036006541690612bba565b5f8061359d565b92939050610100840191825190816135f157505050505050565b610160946001926040880151613632575b5050016136128154845190611d8a565b90556136218154835190611d8a565b9055519101525f80808080806133ec565b613649916001600160a01b03600654163091612cbc565b5f80613602565b92509590600681019687549361366690856128cb565b600483019182549182613678916128de565b9560078795019081549084845161368f90846128cb565b90613699916128de565b9c6136a68e9a8b93611d69565b90556136b191611d69565b9055516136bd91611d69565b90556134746134b1936001600160a01b0392611d8a565b6101208501518015613708575b6137039060ff600584015416906008840154916136fd856124b6565b87613174565b613410565b5060048101546136e1565b906001820191815f528260205260405f20548015155f146137d0575f198101818111611d765782545f19810191908211611d765781810361379b575b50505080548015613787575f1901906137688282612fa5565b8154905f199060031b1b19169055555f526020525f6040812055600190565b634e487b7160e01b5f52603160045260245ffd5b6137bb6137ab6130069386612fa5565b90549060031b1c92839286612fa5565b90555f528360205260405f20555f808061374f565b505050505f90565b90613835926001600160a01b03602093613847826009541693604051978896879586957f70bcbca20000000000000000000000000000000000000000000000000000000087521660048601526060602486015260648501906129b7565b90600319848303016044850152611cba565b03915afa908115612b37575f9161385c575090565b90506020813d602011613883575b81613877602093836119bb565b81010312610015575190565b3d915061386a565b604d8111611d7657600a0a90565b805f52600b60205260405f2054155f146138ee57600a5468010000000000000000811015610674576138d7613006826001859401600a55600a612fa5565b9055600a54905f52600b60205260405f2055600190565b505f90565b5f82815260018201602052604090205461394557805490680100000000000000008210156106745782613930613006846001809601855584612fa5565b90558054925f520160205260405f2055600190565b50505f90565b60ff7ff0c57e16840df040f15088dc2f81fe391c3923bec73e23a9662efc9c229c6a005460401c161561397a57565b7fd7e6bcf8000000000000000000000000000000000000000000000000000000005f5260045ffd5b916001600160a01b03600183015416926001600160a01b036002840154169360068401948554906139d96007870192835490611d8a565b9560028601976139ea888a54611d8a565b93848a5560038801906139fe8a8354611d69565b8255613a1260048a01918254905490611d69565b905560e08701908151906101808901968288528083115f14613be657505050613a83915051613a438a548092611d69565b90613a4d87613e9f565b90818311613bd0575b5050613a70816001600160a01b0360055416309089612cbc565b306001600160a01b036005541687613ff4565b60018601613a9481548a5490611d69565b90555f8855600160208601525b613ab2600184519701968754611d69565b8655613ac083518954611d69565b88557f261fffb4b79148ca99a0f130d50296a0a9bf6bee424973781ef0e8c4359b2512608060a08701516001600160a01b03828901511660c08901519060405192835260208301528560408301526060820152a182515f97808210613bb8575b5050613b389085613b32898651611d8a565b9161409c565b15613b6157505050509081613b5182613b5a9454611d69565b90558254611d69565b9055600190565b946135599192939560019786613b7b84613bb39954611d69565b9055613b88838254611d69565b9055613ba0826001600160a01b036005541687612bba565b6001600160a01b03600554169085614048565b525f90565b613b3892985090613bc891611d69565b96905f613b20565b81925090613bdd91611d8a565b85525f80613a56565b90919250613bf684548094611d69565b60088b015460ff81169081613d23575b5080613d19575b613c1b575050505050613aa1565b7fc8f742aa90a6e6851d2252fa58ed695d3ca295b55bf5f1c2164a360cc8a093e29a50613d06975091613ce594989c6003979c92613cde9594613c87613c7a613c72613cab9f61014060048e0154910151906128cb565b8c54906128cb565b61320060015480926128de565b9082613c938383611d8a565b11613d0e57613ca29250611d8a565b9a8b8095611d8a565b8a55613cc184613cbc858454611d69565b611d69565b9055613cd783613cd2848454611d8a565b611d8a565b9055611d8a565b888a612e4b565b01549154604051938493846040919493926060820195825260208201520152565b0390a3600190565b50509a8b8095611d8a565b5081811115613c0d565b60ff915060081c16155f613c06565b60206001600160a01b03916004604051809481937f313ce567000000000000000000000000000000000000000000000000000000008352165afa8015612b37575f90613d81575b60ff91501690565b506020813d602011613db6575b81613d9b602093836119bb565b81010312610015575160ff811681036100155760ff90613d79565b3d9150613d8e565b9060018201815f528060205260ff60405f205416156130e2578254905f5b828110613dec5750505050505f90565b83613df78287612fa5565b90549060031b1c14613e0b57600101613ddc565b93945f198301928311949093919290855b611d765781811015613e5d576001810190818111611d7657613e4060019289612fa5565b90549060031b1c613e54613006838b612fa5565b90550185613e1c565b5050919390925080548015613787575f190190613e7a8282612fa5565b8154905f199060031b1b19169055555f5260205260405f2060ff198154169055600190565b6001600160a01b0360055416906001600160a01b03811690604051917f70a08231000000000000000000000000000000000000000000000000000000008352836004840152602083602481845afa928315612b37575f93613fc0575b506020613f1a613f0e60015480966128cb565b612646612bce86613d32565b946044604051809481937fdd62ed3e00000000000000000000000000000000000000000000000000000000835260048301523060248301525afa908115612b37575f91613f8c575b50612bce613f76613f7c94612646936128cb565b92613d32565b808211613f87575090565b905090565b90506020813d602011613fb8575b81613fa7602093836119bb565b810103126100155751612bce613f62565b3d9150613f9a565b9092506020813d602011613fec575b81613fdc602093836119bb565b810103126100155751915f613efb565b3d9150613fcf565b91929092811561237d5760606001600160a01b0380807feb42cf637f927243245c50b4bf7fe105fe4f4d26209102240f2ba3d8e27a7df89460405196600988526020880152426040880152169616941692a4565b91929092811561237d5760606001600160a01b0380807feb42cf637f927243245c50b4bf7fe105fe4f4d26209102240f2ba3d8e27a7df89460405196600888526020880152426040880152169616941692a4565b909160018201906001600160a01b038254165f52601160205260405f209060028401916001600160a01b0380845416165f5260205260405f20906140e660c0870192835190613dbe565b506001600160a01b038454166001600160a01b038454169261411f600788019283549561411960068b0197885490611d8a565b91612eec565b6001600160a01b0386541697885f52601360205260ff60405f20541660048110156111995715806145b5575b80614596575b6141c1575b5050505050600a93506001600160a01b039054166001600160a01b03601454161461418a575b500160ff1981541690555f90565b6001600160a01b036141bb91541660ff6005840154166004840154906008850154926141b5866124b6565b90613174565b5f61417c565b6001600160a01b0360095416906001600160a01b0360145416998a92606060048c01936084610140865492019687519460405195869485937fd112d0e90000000000000000000000000000000000000000000000000000000085528960048601526024850152604484015260648301525afa928315612b37575f5f925f9561453b575b506001600160a01b031661425b5750505050614156565b889c99889c979b99969a61427286859b989b611d8a565b945f52601060205260405f20906001600160a01b03165f5260205260405f20946001860193878554906142a491611d8a565b855560028701978854906142b791611d8a565b6003880197878954906142c991611d8a565b895560040196838854906142dc91611d8a565b88556142e791611d69565b885588558c556014546001600160a01b03166001600160a01b031681546001600160a01b03191617815589546001600160a01b03166005890197885460ff16918a8554600882019485549261433b906124b6565b614344946130e9565b8b546001600160a01b03165f52601160205260405f2083546001600160a01b03166001600160a01b03165f5260205260405f208d5161438291612fba565b508d8c546001600160a01b03169184546001600160a01b0316915490546143a891611d8a565b906143b292612e4b565b5499546001600160a01b03169b8c91546001600160a01b031698600301549e8f93549b8d51915492549360405195865260208601528a60408601528c6060860152608085015260a084015260c083015260e08201526101008101600390526101207f2156f6f6f776548a0c2a805aee597ff49b812da0546e64c659347a40c8f3b6e491a15492549154905490895f52600f60205260405f206014546001600160a01b03166001600160a01b03165f5260205260405f205492604051948b865287602087015260408601526060850152608084015260a083015260c082015260e08101600390526101007f55a05fded01868e623bc311ab3e73d3cec2f0871392b36317648452d989ed1ce91a15460ff16915193519460405197885260208801526040870152606086016144e491611ca0565b608085015260a084015260c08301525f60e0830152610100820152600161012082015260056101408201527f181dbc3ad559b63759679084b2e0d8268b879a2556fb002571b357ce36b991619061016090a1600190565b94505090506060833d60601161458e575b81614559606093836119bb565b81010312610015578251906001600160a01b038216820361001557602084015160409094015193916001600160a01b03614244565b3d915061454c565b506001600160a01b038654166001600160a01b03601454161415614151565b5060ff5f541661414b56fea2646970667358221220a48764894f78619f6475ed1c4b884cea4403d99190f5d52e6c5ea2699f8b503764736f6c634300081c0033",
  "linkReferences": {},
  "deployedLinkReferences": {}
}