{
  "_format": "hh-sol-artifact-1",
  "contractName": "PrivatePool",
  "sourceName": "contracts/PrivatePool.sol",
  "abi": [
    {
      "inputs": [],
      "name": "InvalidInitialization",
      "type": "error"
    },
    {
      "inputs": [],
      "name": "NotInitializing",
      "type": "error"
    },
    {
      "inputs": [
        {
          "internalType": "address",
          "name": "owner",
          "type": "address"
        }
      ],
      "name": "OwnableInvalidOwner",
      "type": "error"
    },
    {
      "inputs": [
        {
          "internalType": "address",
          "name": "account",
          "type": "address"
        }
      ],
      "name": "OwnableUnauthorizedAccount",
      "type": "error"
    },
    {
      "anonymous": false,
      "inputs": [
        {
          "indexed": false,
          "internalType": "address",
          "name": "token",
          "type": "address"
        },
        {
          "indexed": false,
          "internalType": "address",
          "name": "holder",
          "type": "address"
        },
        {
          "indexed": false,
          "internalType": "string",
          "name": "name",
          "type": "string"
        },
        {
          "indexed": false,
          "internalType": "enum ICommon.Direct",
          "name": "direct",
          "type": "uint8"
        },
        {
          "indexed": false,
          "internalType": "uint256",
          "name": "value",
          "type": "uint256"
        },
        {
          "indexed": false,
          "internalType": "uint256",
          "name": "size",
          "type": "uint256"
        },
        {
          "indexed": false,
          "internalType": "uint256",
          "name": "margin",
          "type": "uint256"
        },
        {
          "indexed": false,
          "internalType": "uint256",
          "name": "freeze",
          "type": "uint256"
        }
      ],
      "name": "AccountPosition",
      "type": "event"
    },
    {
      "anonymous": false,
      "inputs": [
        {
          "indexed": true,
          "internalType": "address",
          "name": "account",
          "type": "address"
        },
        {
          "indexed": true,
          "internalType": "address",
          "name": "token",
          "type": "address"
        },
        {
          "indexed": false,
          "internalType": "uint256",
          "name": "orderID",
          "type": "uint256"
        },
        {
          "indexed": false,
          "internalType": "uint256",
          "name": "amount",
          "type": "uint256"
        },
        {
          "indexed": false,
          "internalType": "uint256",
          "name": "margin",
          "type": "uint256"
        }
      ],
      "name": "AddMargin",
      "type": "event"
    },
    {
      "anonymous": false,
      "inputs": [
        {
          "indexed": false,
          "internalType": "address",
          "name": "token",
          "type": "address"
        },
        {
          "indexed": false,
          "internalType": "address",
          "name": "maker",
          "type": "address"
        },
        {
          "indexed": false,
          "internalType": "uint256",
          "name": "amount",
          "type": "uint256"
        },
        {
          "indexed": false,
          "internalType": "uint256",
          "name": "availableAmount",
          "type": "uint256"
        },
        {
          "indexed": false,
          "internalType": "uint256",
          "name": "lockedAmount",
          "type": "uint256"
        },
        {
          "indexed": false,
          "internalType": "uint256",
          "name": "maintenanceMargin",
          "type": "uint256"
        },
        {
          "indexed": false,
          "internalType": "uint256",
          "name": "share",
          "type": "uint256"
        },
        {
          "indexed": false,
          "internalType": "uint256",
          "name": "flag",
          "type": "uint256"
        }
      ],
      "name": "BalanceOfMaker",
      "type": "event"
    },
    {
      "anonymous": false,
      "inputs": [
        {
          "indexed": false,
          "internalType": "uint256",
          "name": "dealID",
          "type": "uint256"
        },
        {
          "indexed": false,
          "internalType": "address",
          "name": "token",
          "type": "address"
        },
        {
          "indexed": false,
          "internalType": "address",
          "name": "maker",
          "type": "address"
        },
        {
          "indexed": false,
          "internalType": "uint256",
          "name": "size",
          "type": "uint256"
        },
        {
          "indexed": false,
          "internalType": "uint256",
          "name": "price",
          "type": "uint256"
        },
        {
          "indexed": false,
          "internalType": "uint256",
          "name": "makerID",
          "type": "uint256"
        },
        {
          "indexed": false,
          "internalType": "uint256",
          "name": "makerGain",
          "type": "uint256"
        },
        {
          "indexed": false,
          "internalType": "uint256",
          "name": "makerLoss",
          "type": "uint256"
        },
        {
          "indexed": false,
          "internalType": "uint256",
          "name": "closeFlag",
          "type": "uint256"
        },
        {
          "indexed": false,
          "internalType": "uint256",
          "name": "closeType",
          "type": "uint256"
        }
      ],
      "name": "CloseMakerDealInPool",
      "type": "event"
    },
    {
      "anonymous": false,
      "inputs": [
        {
          "indexed": false,
          "internalType": "uint64",
          "name": "version",
          "type": "uint64"
        }
      ],
      "name": "Initialized",
      "type": "event"
    },
    {
      "anonymous": false,
      "inputs": [
        {
          "indexed": false,
          "internalType": "uint256",
          "name": "dealID",
          "type": "uint256"
        },
        {
          "indexed": false,
          "internalType": "address",
          "name": "token",
          "type": "address"
        },
        {
          "indexed": false,
          "internalType": "address",
          "name": "maker",
          "type": "address"
        },
        {
          "indexed": false,
          "internalType": "uint256",
          "name": "size",
          "type": "uint256"
        },
        {
          "indexed": false,
          "internalType": "uint256",
          "name": "price",
          "type": "uint256"
        },
        {
          "indexed": false,
          "internalType": "uint256",
          "name": "makerID",
          "type": "uint256"
        },
        {
          "indexed": false,
          "internalType": "uint256",
          "name": "marginAmount",
          "type": "uint256"
        },
        {
          "indexed": false,
          "internalType": "uint256",
          "name": "maintenanceMargin",
          "type": "uint256"
        },
        {
          "indexed": false,
          "internalType": "uint256",
          "name": "flag",
          "type": "uint256"
        }
      ],
      "name": "LockPoolMargin",
      "type": "event"
    },
    {
      "anonymous": false,
      "inputs": [
        {
          "indexed": true,
          "internalType": "address",
          "name": "previousOwner",
          "type": "address"
        },
        {
          "indexed": true,
          "internalType": "address",
          "name": "newOwner",
          "type": "address"
        }
      ],
      "name": "OwnershipTransferred",
      "type": "event"
    },
    {
      "anonymous": false,
      "inputs": [
        {
          "indexed": true,
          "internalType": "address",
          "name": "account",
          "type": "address"
        },
        {
          "indexed": true,
          "internalType": "address",
          "name": "token",
          "type": "address"
        },
        {
          "indexed": false,
          "internalType": "uint256",
          "name": "amount",
          "type": "uint256"
        },
        {
          "indexed": false,
          "internalType": "enum ICommon.PoolFlag",
          "name": "poolType",
          "type": "uint8"
        }
      ],
      "name": "Provide",
      "type": "event"
    },
    {
      "anonymous": false,
      "inputs": [
        {
          "indexed": true,
          "internalType": "address",
          "name": "token",
          "type": "address"
        },
        {
          "indexed": true,
          "internalType": "address",
          "name": "sender",
          "type": "address"
        },
        {
          "indexed": true,
          "internalType": "address",
          "name": "received",
          "type": "address"
        },
        {
          "indexed": false,
          "internalType": "enum ICommon.TransactionType",
          "name": "transactionType",
          "type": "uint8"
        },
        {
          "indexed": false,
          "internalType": "uint256",
          "name": "amount",
          "type": "uint256"
        },
        {
          "indexed": false,
          "internalType": "uint256",
          "name": "timestamp",
          "type": "uint256"
        }
      ],
      "name": "TransactionHistory",
      "type": "event"
    },
    {
      "anonymous": false,
      "inputs": [
        {
          "indexed": true,
          "internalType": "address",
          "name": "account",
          "type": "address"
        },
        {
          "indexed": true,
          "internalType": "address",
          "name": "token",
          "type": "address"
        },
        {
          "indexed": false,
          "internalType": "uint256",
          "name": "amount",
          "type": "uint256"
        },
        {
          "indexed": false,
          "internalType": "enum ICommon.PoolFlag",
          "name": "poolType",
          "type": "uint8"
        }
      ],
      "name": "Withdraw",
      "type": "event"
    },
    {
      "anonymous": false,
      "inputs": [
        {
          "indexed": false,
          "internalType": "address",
          "name": "token",
          "type": "address"
        },
        {
          "indexed": false,
          "internalType": "address",
          "name": "sender",
          "type": "address"
        },
        {
          "indexed": false,
          "internalType": "string",
          "name": "name",
          "type": "string"
        },
        {
          "indexed": false,
          "internalType": "uint256",
          "name": "beforeLeverage",
          "type": "uint256"
        },
        {
          "indexed": false,
          "internalType": "uint256",
          "name": "afterLeverage",
          "type": "uint256"
        }
      ],
      "name": "setLeverage",
      "type": "event"
    },
    {
      "stateMutability": "nonpayable",
      "type": "fallback"
    },
    {
      "inputs": [
        {
          "internalType": "uint256",
          "name": "_dealID",
          "type": "uint256"
        },
        {
          "internalType": "uint256",
          "name": "_amount",
          "type": "uint256"
        }
      ],
      "name": "addMarginAmount",
      "outputs": [],
      "stateMutability": "nonpayable",
      "type": "function"
    },
    {
      "inputs": [
        {
          "internalType": "uint256",
          "name": "_dealID",
          "type": "uint256"
        },
        {
          "internalType": "uint256",
          "name": "_profit",
          "type": "uint256"
        }
      ],
      "name": "checkMarginRisk",
      "outputs": [
        {
          "internalType": "bool",
          "name": "isRisk",
          "type": "bool"
        }
      ],
      "stateMutability": "view",
      "type": "function"
    },
    {
      "inputs": [
        {
          "internalType": "uint256",
          "name": "_id",
          "type": "uint256"
        },
        {
          "internalType": "uint8",
          "name": "_type",
          "type": "uint8"
        },
        {
          "internalType": "uint256",
          "name": "_profit",
          "type": "uint256"
        },
        {
          "internalType": "uint256",
          "name": "_loss",
          "type": "uint256"
        },
        {
          "internalType": "uint256",
          "name": "_amount",
          "type": "uint256"
        },
        {
          "internalType": "uint256",
          "name": "_price",
          "type": "uint256"
        },
        {
          "internalType": "bool",
          "name": "_transform",
          "type": "bool"
        }
      ],
      "name": "close",
      "outputs": [
        {
          "internalType": "uint256",
          "name": "makerProfit",
          "type": "uint256"
        },
        {
          "internalType": "uint256",
          "name": "makerLoss",
          "type": "uint256"
        },
        {
          "internalType": "bool",
          "name": "isLiquidated",
          "type": "bool"
        },
        {
          "internalType": "bool",
          "name": "isAgreement",
          "type": "bool"
        }
      ],
      "stateMutability": "nonpayable",
      "type": "function"
    },
    {
      "inputs": [
        {
          "internalType": "uint256",
          "name": "_start",
          "type": "uint256"
        },
        {
          "internalType": "uint256",
          "name": "_end",
          "type": "uint256"
        },
        {
          "internalType": "uint256",
          "name": "_count",
          "type": "uint256"
        }
      ],
      "name": "getActiveDeals",
      "outputs": [
        {
          "components": [
            {
              "internalType": "bool",
              "name": "locked",
              "type": "bool"
            },
            {
              "internalType": "address",
              "name": "token",
              "type": "address"
            },
            {
              "internalType": "address",
              "name": "makerAddr",
              "type": "address"
            },
            {
              "internalType": "uint256",
              "name": "takerId",
              "type": "uint256"
            },
            {
              "internalType": "uint256",
              "name": "size",
              "type": "uint256"
            },
            {
              "internalType": "uint256",
              "name": "marginAmount",
              "type": "uint256"
            },
            {
              "internalType": "uint256",
              "name": "maintenanceMargin",
              "type": "uint256"
            },
            {
              "internalType": "uint256",
              "name": "pubPriFlag",
              "type": "uint256"
            },
            {
              "internalType": "uint256",
              "name": "movePrice",
              "type": "uint256"
            },
            {
              "internalType": "uint256",
              "name": "time",
              "type": "uint256"
            }
          ],
          "internalType": "struct IPool.MakerDeal[]",
          "name": "info",
          "type": "tuple[]"
        },
        {
          "internalType": "uint256[]",
          "name": "ids",
          "type": "uint256[]"
        },
        {
          "internalType": "uint256",
          "name": "end",
          "type": "uint256"
        }
      ],
      "stateMutability": "view",
      "type": "function"
    },
    {
      "inputs": [
        {
          "internalType": "address",
          "name": "token",
          "type": "address"
        },
        {
          "internalType": "address",
          "name": "maker",
          "type": "address"
        }
      ],
      "name": "getLP2Account",
      "outputs": [
        {
          "components": [
            {
              "internalType": "address payable",
              "name": "holder",
              "type": "address"
            },
            {
              "internalType": "uint256",
              "name": "amount",
              "type": "uint256"
            },
            {
              "internalType": "uint256",
              "name": "availableAmount",
              "type": "uint256"
            },
            {
              "internalType": "uint256",
              "name": "lockedAmount",
              "type": "uint256"
            },
            {
              "internalType": "uint256",
              "name": "maintenanceMargin",
              "type": "uint256"
            },
            {
              "internalType": "uint256",
              "name": "leverage",
              "type": "uint256"
            },
            {
              "internalType": "uint256",
              "name": "maintenanceMarginRate",
              "type": "uint256"
            },
            {
              "internalType": "uint256",
              "name": "addMarginRate",
              "type": "uint256"
            },
            {
              "internalType": "bool",
              "name": "autoAddMargin",
              "type": "bool"
            },
            {
              "internalType": "bool",
              "name": "isRejectOrder",
              "type": "bool"
            }
          ],
          "internalType": "struct IPool.LP2Account",
          "name": "",
          "type": "tuple"
        }
      ],
      "stateMutability": "view",
      "type": "function"
    },
    {
      "inputs": [
        {
          "internalType": "address",
          "name": "token",
          "type": "address"
        }
      ],
      "name": "getMakerAddresses",
      "outputs": [
        {
          "internalType": "address[]",
          "name": "",
          "type": "address[]"
        }
      ],
      "stateMutability": "view",
      "type": "function"
    },
    {
      "inputs": [
        {
          "internalType": "uint256",
          "name": "makerDealID",
          "type": "uint256"
        }
      ],
      "name": "getMakerDeal",
      "outputs": [
        {
          "components": [
            {
              "internalType": "bool",
              "name": "locked",
              "type": "bool"
            },
            {
              "internalType": "address",
              "name": "token",
              "type": "address"
            },
            {
              "internalType": "address",
              "name": "makerAddr",
              "type": "address"
            },
            {
              "internalType": "uint256",
              "name": "takerId",
              "type": "uint256"
            },
            {
              "internalType": "uint256",
              "name": "size",
              "type": "uint256"
            },
            {
              "internalType": "uint256",
              "name": "marginAmount",
              "type": "uint256"
            },
            {
              "internalType": "uint256",
              "name": "maintenanceMargin",
              "type": "uint256"
            },
            {
              "internalType": "uint256",
              "name": "pubPriFlag",
              "type": "uint256"
            },
            {
              "internalType": "uint256",
              "name": "movePrice",
              "type": "uint256"
            },
            {
              "internalType": "uint256",
              "name": "time",
              "type": "uint256"
            }
          ],
          "internalType": "struct IPool.MakerDeal",
          "name": "",
          "type": "tuple"
        }
      ],
      "stateMutability": "view",
      "type": "function"
    },
    {
      "inputs": [
        {
          "internalType": "uint256[]",
          "name": "_ids",
          "type": "uint256[]"
        }
      ],
      "name": "getMakerDeals",
      "outputs": [
        {
          "components": [
            {
              "internalType": "bool",
              "name": "locked",
              "type": "bool"
            },
            {
              "internalType": "address",
              "name": "token",
              "type": "address"
            },
            {
              "internalType": "address",
              "name": "makerAddr",
              "type": "address"
            },
            {
              "internalType": "uint256",
              "name": "takerId",
              "type": "uint256"
            },
            {
              "internalType": "uint256",
              "name": "size",
              "type": "uint256"
            },
            {
              "internalType": "uint256",
              "name": "marginAmount",
              "type": "uint256"
            },
            {
              "internalType": "uint256",
              "name": "maintenanceMargin",
              "type": "uint256"
            },
            {
              "internalType": "uint256",
              "name": "pubPriFlag",
              "type": "uint256"
            },
            {
              "internalType": "uint256",
              "name": "movePrice",
              "type": "uint256"
            },
            {
              "internalType": "uint256",
              "name": "time",
              "type": "uint256"
            }
          ],
          "internalType": "struct IPool.MakerDeal[]",
          "name": "deals",
          "type": "tuple[]"
        }
      ],
      "stateMutability": "view",
      "type": "function"
    },
    {
      "inputs": [],
      "name": "getMakerDealsLength",
      "outputs": [
        {
          "internalType": "uint256",
          "name": "lpLen",
          "type": "uint256"
        }
      ],
      "stateMutability": "view",
      "type": "function"
    },
    {
      "inputs": [
        {
          "internalType": "address",
          "name": "token",
          "type": "address"
        },
        {
          "internalType": "address",
          "name": "maker",
          "type": "address"
        }
      ],
      "name": "getMakerUserDeals",
      "outputs": [
        {
          "internalType": "uint256[]",
          "name": "",
          "type": "uint256[]"
        }
      ],
      "stateMutability": "view",
      "type": "function"
    },
    {
      "inputs": [
        {
          "internalType": "address",
          "name": "_token",
          "type": "address"
        }
      ],
      "name": "getPublicPoolAsset",
      "outputs": [
        {
          "internalType": "uint256",
          "name": "share",
          "type": "uint256"
        },
        {
          "internalType": "uint256",
          "name": "amount",
          "type": "uint256"
        },
        {
          "internalType": "uint256",
          "name": "available",
          "type": "uint256"
        }
      ],
      "stateMutability": "view",
      "type": "function"
    },
    {
      "inputs": [
        {
          "internalType": "address",
          "name": "token",
          "type": "address"
        }
      ],
      "name": "getShareAddresses",
      "outputs": [
        {
          "internalType": "address[]",
          "name": "",
          "type": "address[]"
        }
      ],
      "stateMutability": "view",
      "type": "function"
    },
    {
      "inputs": [
        {
          "internalType": "address",
          "name": "token",
          "type": "address"
        }
      ],
      "name": "getTokenLP2Accounts",
      "outputs": [
        {
          "internalType": "address[]",
          "name": "",
          "type": "address[]"
        }
      ],
      "stateMutability": "view",
      "type": "function"
    },
    {
      "inputs": [],
      "name": "getTokenList",
      "outputs": [
        {
          "internalType": "address[]",
          "name": "",
          "type": "address[]"
        }
      ],
      "stateMutability": "view",
      "type": "function"
    },
    {
      "inputs": [
        {
          "internalType": "address",
          "name": "_riskFundAddr",
          "type": "address"
        }
      ],
      "name": "initialize",
      "outputs": [],
      "stateMutability": "nonpayable",
      "type": "function"
    },
    {
      "inputs": [
        {
          "internalType": "uint256",
          "name": "",
          "type": "uint256"
        }
      ],
      "name": "matchIds",
      "outputs": [
        {
          "internalType": "uint256",
          "name": "",
          "type": "uint256"
        }
      ],
      "stateMutability": "view",
      "type": "function"
    },
    {
      "inputs": [
        {
          "internalType": "address",
          "name": "_token",
          "type": "address"
        },
        {
          "internalType": "string",
          "name": "_name",
          "type": "string"
        },
        {
          "internalType": "uint256",
          "name": "_id",
          "type": "uint256"
        },
        {
          "internalType": "uint256",
          "name": "_amount",
          "type": "uint256"
        },
        {
          "internalType": "uint256",
          "name": "_tradingFee",
          "type": "uint256"
        },
        {
          "internalType": "uint256",
          "name": "_price",
          "type": "uint256"
        },
        {
          "internalType": "enum ICommon.Direct",
          "name": "_direction",
          "type": "uint8"
        }
      ],
      "name": "matchOrder",
      "outputs": [
        {
          "internalType": "bool",
          "name": "success",
          "type": "bool"
        },
        {
          "internalType": "uint256",
          "name": "remaining",
          "type": "uint256"
        }
      ],
      "stateMutability": "nonpayable",
      "type": "function"
    },
    {
      "inputs": [],
      "name": "owner",
      "outputs": [
        {
          "internalType": "address",
          "name": "",
          "type": "address"
        }
      ],
      "stateMutability": "view",
      "type": "function"
    },
    {
      "inputs": [
        {
          "internalType": "address",
          "name": "",
          "type": "address"
        }
      ],
      "name": "poolType",
      "outputs": [
        {
          "internalType": "enum ICommon.PoolFlag",
          "name": "",
          "type": "uint8"
        }
      ],
      "stateMutability": "view",
      "type": "function"
    },
    {
      "inputs": [
        {
          "internalType": "address",
          "name": "",
          "type": "address"
        },
        {
          "internalType": "string",
          "name": "",
          "type": "string"
        },
        {
          "internalType": "uint256",
          "name": "",
          "type": "uint256"
        }
      ],
      "name": "positions",
      "outputs": [
        {
          "internalType": "uint256",
          "name": "value",
          "type": "uint256"
        },
        {
          "internalType": "uint256",
          "name": "size",
          "type": "uint256"
        }
      ],
      "stateMutability": "view",
      "type": "function"
    },
    {
      "inputs": [],
      "name": "privateMinMintAmount",
      "outputs": [
        {
          "internalType": "uint256",
          "name": "",
          "type": "uint256"
        }
      ],
      "stateMutability": "view",
      "type": "function"
    },
    {
      "inputs": [
        {
          "internalType": "address",
          "name": "_token",
          "type": "address"
        },
        {
          "internalType": "uint256",
          "name": "_amount",
          "type": "uint256"
        },
        {
          "internalType": "enum ICommon.PoolFlag",
          "name": "_priOrPub",
          "type": "uint8"
        },
        {
          "internalType": "string[]",
          "name": "_symbols",
          "type": "string[]"
        },
        {
          "internalType": "bytes[]",
          "name": "prices",
          "type": "bytes[]"
        }
      ],
      "name": "provide",
      "outputs": [],
      "stateMutability": "payable",
      "type": "function"
    },
    {
      "inputs": [],
      "name": "renounceOwnership",
      "outputs": [],
      "stateMutability": "nonpayable",
      "type": "function"
    },
    {
      "inputs": [
        {
          "internalType": "address",
          "name": "_perpetual",
          "type": "address"
        },
        {
          "internalType": "address",
          "name": "_orderBook",
          "type": "address"
        },
        {
          "internalType": "address",
          "name": "_tradeAgent",
          "type": "address"
        },
        {
          "internalType": "address",
          "name": "_tradeStation",
          "type": "address"
        },
        {
          "internalType": "address",
          "name": "_poolAgent",
          "type": "address"
        },
        {
          "internalType": "address",
          "name": "_keeper",
          "type": "address"
        }
      ],
      "name": "setKeepers",
      "outputs": [],
      "stateMutability": "nonpayable",
      "type": "function"
    },
    {
      "inputs": [
        {
          "internalType": "address",
          "name": "_token",
          "type": "address"
        },
        {
          "internalType": "enum ICommon.PoolFlag",
          "name": "_flag",
          "type": "uint8"
        }
      ],
      "name": "setPoolType",
      "outputs": [],
      "stateMutability": "nonpayable",
      "type": "function"
    },
    {
      "inputs": [
        {
          "internalType": "uint256",
          "name": "_value",
          "type": "uint256"
        }
      ],
      "name": "setPrivateMinMintAmount",
      "outputs": [],
      "stateMutability": "nonpayable",
      "type": "function"
    },
    {
      "inputs": [
        {
          "internalType": "address",
          "name": "_token",
          "type": "address"
        },
        {
          "internalType": "uint256",
          "name": "_leverage",
          "type": "uint256"
        },
        {
          "internalType": "bool",
          "name": "_isRejectOrder",
          "type": "bool"
        },
        {
          "internalType": "bool",
          "name": "_autoAddMargin",
          "type": "bool"
        }
      ],
      "name": "setUserParam",
      "outputs": [],
      "stateMutability": "nonpayable",
      "type": "function"
    },
    {
      "inputs": [],
      "name": "totalLockedLiquidity",
      "outputs": [
        {
          "internalType": "uint256",
          "name": "",
          "type": "uint256"
        }
      ],
      "stateMutability": "view",
      "type": "function"
    },
    {
      "inputs": [
        {
          "internalType": "address",
          "name": "newOwner",
          "type": "address"
        }
      ],
      "name": "transferOwnership",
      "outputs": [],
      "stateMutability": "nonpayable",
      "type": "function"
    },
    {
      "inputs": [
        {
          "internalType": "address",
          "name": "_token",
          "type": "address"
        },
        {
          "internalType": "uint256",
          "name": "_amount",
          "type": "uint256"
        },
        {
          "internalType": "enum ICommon.PoolFlag",
          "name": "_priOrPub",
          "type": "uint8"
        },
        {
          "internalType": "string[]",
          "name": "_symbols",
          "type": "string[]"
        },
        {
          "internalType": "bytes[]",
          "name": "prices",
          "type": "bytes[]"
        }
      ],
      "name": "withdraw",
      "outputs": [],
      "stateMutability": "payable",
      "type": "function"
    }
  ],
  "bytecode": "0x60808060405234601557615897908161001b8239f35b600080fdfe6080604052600436101561001a575b3461001557005b600080fd5b60003560e01c8063017364e8146101f557806302996994146101f05780630c8c3516146101eb5780631f92a4da146101e657806325737d40146101e1578063273cbaa0146101dc57806336ff6a70146101d75780633b3de031146101d25780634e091b22146101cd5780635a92c628146101c85780635baf45fb146101af57806360d32e8d146101c3578063669e01ee146101be5780636768a272146101b9578063715018a6146101b45780638359a610146101af578063859d90a3146101aa5780638da5cb5b146101a5578063a8ece51a146101a0578063c0a148311461019b578063c23e629f14610196578063c3a828b214610191578063c4d66de81461018c578063d3c76d6614610187578063d5c3df3914610182578063e771ad721461017d578063f26a3e1d14610178578063f2da708d14610173578063f2fde38b1461016e5763f74c30490361000e57611ffb565b611fce565b611fb0565b611ca9565b611b76565b611abc565b611a5e565b61182a565b611758565b6115d9565b611593565b611548565b611502565b61140b565b610dd6565b6112ea565b611256565b610e8e565b610e4e565b610d5b565b610d28565b610cb1565b610c85565b610c02565b610b28565b610a3b565b610990565b610823565b610410565b6001600160a01b0381160361001557565b60243590600482101561001557565b3590600482101561001557565b634e487b7160e01b600052604160045260246000fd5b90601f601f19910116810190811067ffffffffffffffff82111761026057604052565b610227565b604051906102756101408361023d565b565b604051906102756101a08361023d565b67ffffffffffffffff81116102605760051b60200190565b67ffffffffffffffff811161026057601f01601f191660200190565b81601f82011215610015578035906102d28261029f565b926102e0604051948561023d565b8284526020838301011161001557816000926020809301838601378301015290565b9181601f840112156100155782359167ffffffffffffffff8311610015576020808501948460051b01011161001557565b60a06003198201126100155760043561034b816101fa565b916024359161035a604461021a565b9160643567ffffffffffffffff8111610015578260238201121561001557806004013561038681610287565b91610394604051938461023d565b8183526024602084019260051b820101918583116100155760248201905b8382106103e15750505050916084359067ffffffffffffffff8211610015576103dd91600401610302565b9091565b813567ffffffffffffffff81116100155760209161040589602485948801016102bb565b8152019101906103b2565b61041936610333565b505050918161044561043e836001600160a01b03166000526013602052604060002090565b5460ff1690565b61044e8161157c565b1580156107da575b61045f9061217b565b6104688461157c565b6001840361062457506001600160a01b03816104a5847fb9da3f3df62c28aca604806cc6ee9678189d7591ef511a77bb040fa8361e9e0294612de4565b60026104eb6104c7846001600160a01b03166000526010602052604060002090565b6014546001600160a01b03165b6001600160a01b0316600052602052604060002090565b0154851115806105f5575b6104ff90612218565b61053761051f836001600160a01b0316600052600f602052604060002090565b336001600160a01b0316600052602052604060002090565b610542868254612288565b90556105646104c7836001600160a01b0316600052600f602052604060002090565b61056f868254612288565b905560016105936104c7846001600160a01b03166000526010602052604060002090565b0161059f828254612288565b90556105cf60026105c66104c7856001600160a01b03166000526010602052604060002090565b01918254612288565b90555b6105dd843383612e51565b6105f060405192839216953395836123da565b0390a3005b506104ff61061961051f846001600160a01b0316600052600f602052604060002090565b5486111590506104f6565b61062d8461157c565b600284036107d55761065d61065861051f846001600160a01b03166000526010602052604060002090565b612182565b906040820161066f8151831115612218565b61068b6020840192610682818551612288565b84528251612288565b9052606082015115806107cb575b806107bf575b6107b2575b916001600160a01b03917fb9da3f3df62c28aca604806cc6ee9678189d7591ef511a77bb040fa8361e9e02935190811560001461077b575050610703336106fe836001600160a01b0316600052600d602052604060002090565b612dd1565b5061077661074033610728846001600160a01b03166000526010602052604060002090565b906001600160a01b0316600052602052604060002090565b60086000918281558260018201558260028201558260038201558260048201558260058201558260068201558260078201550155565b6105d2565b61078c610776926015541115612295565b6107ad33610728856001600160a01b03166000526010602052604060002090565b6122f6565b80516000825293506106a4565b5080516015541161069f565b5080511515610699565b612137565b5061045f846107ff61043e856001600160a01b03166000526013602052604060002090565b6108088261157c565b6108118161157c565b149050610456565b8015150361001557565b3461001557608060031936011261001557600435610840816101fa565b6024359060443561085081610819565b6001600160a01b036064359261086584610819565b16600052601060205261088e6040600020336001600160a01b0316600052602052604060002090565b606484116108d4576008816108d29560056108c09401550191829061ff001961ff00835492151560081b169116179055565b9060ff60ff1983541691151516179055565b005b606460405162461bcd60e51b815260206004820152600c60248201527f6f7574206f6620302d31303000000000000000000000000000000000000000006044820152fd5b60005b83811061092b5750506000910152565b818101518382015260200161091b565b602090610955928260405194838680955193849201610918565b82019081520301902090565b634e487b7160e01b600052603260045260246000fd5b90600281101561098b5760011b0190600090565b610961565b34610015576060600319360112610015576004356109ad816101fa565b60243567ffffffffffffffff81116100155760206109d26109fe9236906004016102bb565b6001600160a01b0360443594166000526017825260406000208260405194838680955193849201610918565b82019081520301902090600281101561001557610a1a91610977565b508054600190910154604080519283526020830191909152819081015b0390f35b34610015576000600319360112610015576020601554604051908152f35b6101208091610a6a84825115159052565b6020818101516001600160a01b0316908501526040818101516001600160a01b031690850152606081015160608501526080810151608085015260a081015160a085015260c081015160c085015260e081015160e08501526101008101516101008501520151910152565b906020808351928381520192019060005b818110610af35750505090565b909192602061014082610b096001948851610a59565b019401929101610ae6565b906020610b25928181520190610ad5565b90565b346100155760206003193601126100155760043567ffffffffffffffff8111610015573660238201121561001557806004013590610b6582610287565b91610b73604051938461023d565b8083526024602084019160051b8301019136831161001557602401905b828210610baf57610a37610ba385612583565b60405191829182610b14565b8135815260209182019101610b90565b602060408183019282815284518094520192019060005b818110610be35750505090565b82516001600160a01b0316845260209384019390920191600101610bd6565b3461001557600060031936011261001557604051806020600a54918281520190600a6000527fc65a7bb8d6351c1cf70c95a316cc6a92839c986682d98bc35f958f4883f9d2a89060005b818110610c6f57610a3785610c638187038261023d565b60405191829182610bbf565b8254845260209093019260019283019201610c4c565b346100155760206003193601126100155760043560005260186020526020604060002054604051908152f35b3461001557604060031936011261001557600435610cce816101fa565b6001600160a01b03610cde61020b565b9133600052600e602052610cf960ff604060002054166125d4565b1660005260136020526040600020906004811015610d235760ff60ff198354169116179055600080f35b611566565b346100155760206003193601126100155760043533600052600e602052610d5660ff604060002054166125d4565b601555005b34610015576020600319360112610015576001600160a01b03600435610d80816101fa565b16600052600c602052604060002060405190816020825491828152019160005260206000209060005b818110610dc057610a3785610c638187038261023d565b8254845260209093019260019283019201610da9565b3461001557602060031936011261001557600435610df3816101fa565b6001600160a01b03600091168152600d60205260408120604051918260208354918281520192825260208220915b818110610e3857610a3785610c638187038261023d565b8254845260209093019260019283019201610e21565b3461001557602060031936011261001557610140610e7f610e79600435610e736123f0565b506124b0565b506124cf565b610e8c6040518092610a59565bf35b610e9736610333565b505050919080610ebd61043e846001600160a01b03166000526013602052604060002090565b610ec68161157c565b1580156111ad575b610ed790612689565b610ee13084612f7c565b90610eee81303387613031565b610ef78561157c565b600185036110995750610f4a6001600160a01b0391610f3b7ff0a113f51f7b2533b02cec05d7c882e65dae3fe08550753b743335926b6c0ab1946001541115612690565b610f453086612f7c565b612288565b92610f7133610f6c836001600160a01b0316600052600c602052604060002090565b61313f565b50610f7c8482613152565b6001610f9e6104c7846001600160a01b03166000526010602052604060002090565b01610faa8682546126e9565b90556002610fce6104c7846001600160a01b03166000526010602052604060002090565b01610fda8682546126e9565b9055610ffc6104c7836001600160a01b0316600052600f602052604060002090565b6110078282546126e9565b905561103561102d33610728856001600160a01b0316600052600f602052604060002090565b9182546126e9565b90555b6110526001600160a01b0382165b6001600160a01b031690565b61107061106c82600052600b602052604060002054151590565b1590565b611089575b506105f060405192839216953395836123da565b61109290613a96565b5038611075565b91506110a48461157c565b600284036111a8576110e76001600160a01b0391610f3b7ff0a113f51f7b2533b02cec05d7c882e65dae3fe08550753b743335926b6c0ab1946015541115612690565b92600261110b33610728846001600160a01b03166000526010602052604060002090565b61113461106c3361112f866001600160a01b0316600052600d602052604060002090565b61311c565b61115d575b600181016111488782546126e9565b9055016111568582546126e9565b9055611038565b61117e33610f6c856001600160a01b0316600052600d602052604060002090565b5061119360088201600160ff19825416179055565b80546001600160a01b03191633178155611139565b612645565b50610ed7846111d261043e866001600160a01b03166000526013602052604060002090565b6111db8261157c565b6111e48161157c565b149050610ece565b600319604091011261001557600435611204816101fa565b90602435610b25816101fa565b906020808351928381520192019060005b81811061122f5750505090565b8251845260209384019390920191600101611222565b906020610b25928181520190611211565b34610015576112966001600160a01b0361126f366111ec565b911660005260116020526040600020906001600160a01b0316600052602052604060002090565b60405190816020825491828152019160005260206000209060005b8181106112d457610a37856112c88187038261023d565b60405191829182611245565b82548452602090930192600192830192016112b1565b3461001557600060031936011261001557611303613169565b60006001600160a01b037f9016d09d72d40fdae2fd8ceac6b6234c7706214fd39c1cd1e609a0528c199300546001600160a01b031981167f9016d09d72d40fdae2fd8ceac6b6234c7706214fd39c1cd1e609a0528c19930055167f8be0079c531659141344cd1fd0a4f28419497f9722a3daafe3b4186f6b6457e08280a3005b61027590929192610120806101408301956113a78482516001600160a01b03169052565b6020810151602085015260408101516040850152606081015160608501526080810151608085015260a081015160a085015260c081015160c085015260e081015160e085015261140261010082015161010086019015159052565b01511515910152565b3461001557610a376114586001600160a01b03611427366111ec565b91906114316123f0565b501660005260106020526040600020906001600160a01b0316600052602052604060002090565b6114f66114ec6008611468610265565b9361148a61147d82546001600160a01b031690565b6001600160a01b03168652565b60018101546020860152600281015460408601526003810154606086015260048101546080860152600581015460a0860152600681015460c0860152600781015460e086015201546114e360ff82161515610100860152565b60081c60ff1690565b1515610120830152565b60405191829182611383565b346100155760006003193601126100155760206001600160a01b037f9016d09d72d40fdae2fd8ceac6b6234c7706214fd39c1cd1e609a0528c1993005416604051908152f35b34610015576000600319360112610015576020601654604051908152f35b634e487b7160e01b600052602160045260246000fd5b60041115610d2357565b906004821015610d235752565b34610015576020600319360112610015576001600160a01b036004356115b8816101fa565b166000526013602052602060ff60406000205416610e8c6040518092611586565b34610015576040600319360112610015576024356004357fc8f742aa90a6e6851d2252fa58ed695d3ca295b55bf5f1c2164a360cc8a093e26001600160a01b03611726611628610e79856124b0565b611719602082019161170161166661065861051f61164d87516001600160a01b031690565b6001600160a01b03166000526010602052604060002090565b91611687338861168060408501516001600160a01b031690565b16146126f6565b604083016116988b82511015612741565b6116af60016116a78451151590565b15151461278c565b6116ba8b8251612288565b9052606083016116cb8b82516126e9565b905260a081016116dc8b82516126e9565b90526116f26116ed8b6016546126e9565b601655565b6116fb896124b0565b906127d7565b6107ad3361072861164d86516001600160a01b031690565b516001600160a01b031690565b6105f06004611734866124b0565b50015460405193849316963396846040919493926060820195825260208201520152565b34610015576020600319360112610015576001600160a01b0360043561177d816101fa565b1680600052600f6020526040600020610a37600261180b60145460016117eb6117c36001600160a01b0384168098906001600160a01b0316600052602052604060002090565b54968860005260106020526040600020906001600160a01b0316600052602052604060002090565b01549560005260106020526104d46040600020916001600160a01b031690565b0154604051938493846040919493926060820195825260208201520152565b3461001557602060031936011261001557600435611847816101fa565b7ff0c57e16840df040f15088dc2f81fe391c3923bec73e23a9662efc9c229c6a00549067ffffffffffffffff61188d60ff604085901c16159367ffffffffffffffff1690565b1680159081611a56575b6001149081611a4c575b159081611a43575b50611a195761192a908261192160017fffffffffffffffffffffffffffffffffffffffffffffffff00000000000000007ff0c57e16840df040f15088dc2f81fe391c3923bec73e23a9662efc9c229c6a005416177ff0c57e16840df040f15088dc2f81fe391c3923bec73e23a9662efc9c229c6a0055565b6119b457612915565b61193057005b61198568ff0000000000000000197ff0c57e16840df040f15088dc2f81fe391c3923bec73e23a9662efc9c229c6a0054167ff0c57e16840df040f15088dc2f81fe391c3923bec73e23a9662efc9c229c6a0055565b604051600181527fc7f505b2f371ae2175ee4913f4499e1f2633a7b5936321eed1cdaeb6115181d290602090a1005b611a146801000000000000000068ff0000000000000000197ff0c57e16840df040f15088dc2f81fe391c3923bec73e23a9662efc9c229c6a005416177ff0c57e16840df040f15088dc2f81fe391c3923bec73e23a9662efc9c229c6a0055565b612915565b7ff92ee8a90000000000000000000000000000000000000000000000000000000060005260046000fd5b905015386118a9565b303b1591506118a1565b839150611897565b3461001557604060031936011261001557600435602435906000526018602052604060002054906000198201918211611aad5760a0611aa1610e796020946124b0565b01511115604051908152f35b612263565b6003111561001557565b346100155760e060031936011261001557600435611ad9816101fa565b6024359067ffffffffffffffff821161001557611afd611b349236906004016102bb565b6044356064359060a4359260c43594611b1586611ab2565b33600052600e602052611b2f60ff604060002054166125d4565b6129ff565b604080519215158352602083019190915290f35b939291611b7190611b63604093606088526060880190610ad5565b908682036020880152611211565b930152565b346100155760606003193601126100155760043560243560443581928092600091601254809211611c94575b8110611c8c575b50929192611bb68261244d565b91611bc081610287565b94611bce604051968761023d565b818652601f19611bdd83610287565b013660208801375b84811080611c83575b15611c5d57611c07611bff826124b0565b505460ff1690565b611c1a575b611c1590612d03565b611be5565b91611c558184611c2d611c15948a61249c565b52611c3a610e79866124b0565b611c44828861249c565b52611c4f818761249c565b50612d03565b929050611c0c565b859392610a37928103611c78575b5060405193849384611b48565b808452845284611c6b565b50818310611bee565b925038611ba9565b9094508490611ba2565b60ff81160361001557565b346100155760e060031936011261001557611e4b600435610a37602435611ccf81611c9e565b60c43560a435608435606435604435611ce785610819565b33600052600e602052611d0160ff604060002054166125d4565b611d1e611d18896000526018602052604060002090565b54612279565b611d3b6001611d2c836124b0565b5001546001600160a01b031690565b98611e55611d5c611d4b846124b0565b505460081c6001600160a01b031690565b987f55a05fded01868e623bc311ab3e73d3cec2f0871392b36317648452d989ed1ce8c8b611e29611da761065884610728856001600160a01b03166000526010602052604060002090565b6020810151906040810151906080606082015191015191611ddf87610728886001600160a01b0316600052600f602052604060002090565b5493604051978897889360e095919897936001600160a01b03600a98948161010089019c16885216602087015260408601526060850152608084015260a083015260c08201520152565b0390a1611e34610277565b60008082526020820190815299151560408201529c565b60ff1660608d0152565b6001600160a01b03881660808c015260a08b015260c08a015260e08901526101008801526101208701526101408601527f55a05fded01868e623bc311ab3e73d3cec2f0871392b36317648452d989ed1ce61016086019460008652611eda611ed361018089019760008952611ec98a61358e565b5197519851151590565b9351151590565b93611f84611f0261065884610728856001600160a01b03166000526010602052604060002090565b6020810151906040810151906080606082015191015191611f3a87610728886001600160a01b0316600052600f602052604060002090565b5493604051978897889360e095919897936001600160a01b03601498948161010089019c16885216602087015260408601526060850152608084015260a083015260c08201520152565b0390a1604051948594859260609295949195608085019685526020850152151560408401521515910152565b34610015576000600319360112610015576020601254604051908152f35b34610015576020600319360112610015576108d2600435611fee816101fa565b611ff6613169565b612d12565b346100155760c0600319360112610015576108d26120ea61207e6120d16120ea600435612027816101fa565b6120d16120ea6024359261203a846101fa565b6121176120ea60443561204c816101fa565b6120f76120ea6064359861205f8a6101fa565b6001600160a01b0360843597612074896101fa565b60a4359e8f6101fa565b612086613169565b16806001600160a01b03196006541617600655600052600e6020526040600020600160ff198254161790556120d1816001600160a01b03166001600160a01b03196007541617600755565b6001600160a01b0316600052600e602052604060002090565b600160ff19825416179055565b6120d1816001600160a01b03166001600160a01b03196008541617600855565b6120d1816001600160a01b03166001600160a01b03196009541617600955565b606460405162461bcd60e51b815260206004820152601360248201527f77726f6e6720776974686472617720666c6167000000000000000000000000006044820152fd5b1561213757565b9061027561220e6008612193610265565b946121b56121a882546001600160a01b031690565b6001600160a01b03168752565b60018101546020870152600281015460408701526003810154606087015260048101546080870152600581015460a0870152600681015460c0870152600781015460e087015201546114e360ff82161515610100870152565b1515610120840152565b1561221f57565b606460405162461bcd60e51b815260206004820152601360248201527f616d6f756e7420697320746f6f206c61726765000000000000000000000000006044820152fd5b634e487b7160e01b600052601160045260246000fd5b906000198201918211611aad57565b91908203918211611aad57565b1561229c57565b606460405162461bcd60e51b815260206004820152601860248201527f7374617920616d6f756e7420697320746f6f20736d616c6c00000000000000006044820152fd5b634e487b7160e01b600052600060045260246000fd5b906123a661012060086102759461233361231786516001600160a01b031690565b82906001600160a01b03166001600160a01b0319825416179055565b6020850151600182015560408501516002820155606085015160038201556080850151600482015560a0850151600582015560c0850151600682015560e08501516007820155019261239f61238c610100830151151590565b859060ff60ff1983541691151516179055565b0151151590565b815461ff00191690151560081b61ff0016179055565b916123d6918354906000199060031b92831b921b19161790565b9055565b9081526040810192916102759160200190611586565b60405190610140820182811067ffffffffffffffff821117610260576040526000610120838281528260208201528260408201528260608201528260808201528260a08201528260c08201528260e0820152826101008201520152565b9061245782610287565b612464604051918261023d565b828152601f196124748294610287565b019060005b82811061248557505050565b6020906124906123f0565b82828501015201612479565b805182101561098b5760209160051b010190565b60125481101561098b5760126000526009602060002091020190600090565b9060086124da610265565b9261251561250582546124f66124f08260ff1690565b15158852565b60081c6001600160a01b031690565b6001600160a01b03166020860152565b61253c61252c60018301546001600160a01b031690565b6001600160a01b03166040860152565b6002810154606085015260038101546080850152600481015460a0850152600581015460c0850152600681015460e085015260078101546101008501520154610120830152565b90815161258f8161244d565b9260005b82811061259f57505050565b806125b8610e796125b26001948661249c565b516124b0565b6125c2828861249c565b526125cd818761249c565b5001612593565b156125db57565b608460405162461bcd60e51b815260206004820152602160248201527f63616c6c6572206973206e6f74207072697661746520706f6f6c206b6565706560448201527f72000000000000000000000000000000000000000000000000000000000000006064820152fd5b606460405162461bcd60e51b815260206004820152601260248201527f77726f6e67206465706f73697420666c616700000000000000000000000000006044820152fd5b1561264557565b1561269757565b606460405162461bcd60e51b815260206004820152600960248201527f746f6f20736d616c6c00000000000000000000000000000000000000000000006044820152fd5b9060018201809211611aad57565b91908201809211611aad57565b156126fd57565b606460405162461bcd60e51b815260206004820152600960248201527f4e6f74206d616b657200000000000000000000000000000000000000000000006044820152fd5b1561274857565b606460405162461bcd60e51b815260206004820152601060248201527f45786365656420617661696c61626c65000000000000000000000000000000006044820152fd5b1561279357565b606460405162461bcd60e51b815260206004820152601660248201527f4c6971756964697479207374617475732077726f6e67000000000000000000006044820152fd5b91906128c757610120816127f061238c60089451151590565b61284d61280760208301516001600160a01b031690565b85547fffffffffffffffffffffff0000000000000000000000000000000000000000ff1660089190911b74ffffffffffffffffffffffffffffffffffffffff0016178555565b61288361286460408301516001600160a01b031690565b60018601906001600160a01b03166001600160a01b0319825416179055565b606081015160028501556080810151600385015560a0810151600485015560c0810151600585015560e0810151600685015561010081015160078501550151910155565b6122e0565b9081600a0291600a830403611aad57565b81810292918115918404141715611aad57565b634e487b7160e01b600052601260045260246000fd5b8115612910570490565b6128f0565b6001600160a01b0390612926613b65565b61292e613b65565b61293733612d12565b166001600160a01b03196005541617600555306001600160a01b0319601454161760145561297b6120ea306001600160a01b0316600052600e602052604060002090565b61299b6120ea336001600160a01b0316600052600e602052604060002090565b60ff1960005416600055670de0b6b3a76400006001556129c2670de0b6b3a7640000601555565b6129cc600a600255565b6129e96129e46129dd6001546128cc565b6064900490565b600355565b6102756129fa6129dd6001546128cc565b600455565b9392959491612a0f84888761321f565b6001600160a01b03831693919084612a305750505050505050505060009190565b7f55a05fded01868e623bc311ab3e73d3cec2f0871392b36317648452d989ed1ce9392899a9b989992612cbc926002928b8d8789612a796110466014546001600160a01b031690565b8d14612cfa575b612ba793929185612b4a8a898b7f2156f6f6f776548a0c2a805aee597ff49b812da0546e64c659347a40c8f3b6e496612ac76116ed84612ac2856016546126e9565b6126e9565b612af4612aeb826107288a6001600160a01b03166000526011602052604060002090565b60125490613cbd565b50888a60125492604051998a998a95926001600160a01b0390816101009996939c9b9a97946101208a019d8a521660208901521660408701526060860152608085015260a084015260c083015260e08201520152565b0390a1612b55610265565b60018152916001600160a01b038a1660208401526001600160a01b038b16604084015284606084015260808301528560a08301528460c08301528660e0830152610100820152426101208201526133db565b612bbe601254916000526018602052604060002090565b55612be361065887610728886001600160a01b03166000526010602052604060002090565b9060206060830192612bfa83612ac28787516126e9565b8452612c206080820193612c0f8186516126e9565b8552610f4560408401978851612288565b8552612c47816107ad8b6107288c6001600160a01b03166000526010602052604060002090565b015192519151905191612c7188610728896001600160a01b0316600052600f602052604060002090565b5493604051988998899491926001600160a01b0360e097949a999895929a8161010089019c16885216602087015260408601526060850152608084015260a083015260c08201520152565b0390a1612cd46110466014546001600160a01b031690565b14612ce7575b5050505050600190600090565b612cf094613453565b3880808080612cda565b60019750612a80565b6000198114611aad5760010190565b6001600160a01b03168015612da2576001600160a01b037f9016d09d72d40fdae2fd8ceac6b6234c7706214fd39c1cd1e609a0528c19930054826001600160a01b03198216177f9016d09d72d40fdae2fd8ceac6b6234c7706214fd39c1cd1e609a0528c19930055167f8be0079c531659141344cd1fd0a4f28419497f9722a3daafe3b4186f6b6457e0600080a3565b7f1e4fbdf700000000000000000000000000000000000000000000000000000000600052600060045260246000fd5b6001600160a01b03610b25921690613884565b90612df1612df79261393f565b906128dd565b600154908115612910570490565b3d15612e30573d90612e168261029f565b91612e24604051938461023d565b82523d6000602084013e565b606090565b908160209103126100155751610b2581610819565b1561001557565b91612e5c90836139af565b80612e6657505050565b61027592600092838093612f0c604093612efe7fffffffff00000000000000000000000000000000000000000000000000000000601960208851612eaa8a8261023d565b828152017f7472616e7366657228616464726573732c75696e7432353629000000000000008152201695519384926020840197885260248401602090939291936001600160a01b0360408201951681520152565b03601f19810183528261023d565b51925af1612f18612e05565b81612f24575b50612e4a565b8051801592508215612f39575b505038612f1e565b612f4c9250602080918301019101612e35565b3880612f31565b90816020910312610015575190565b6040513d6000823e3d90fd5b604d8111611aad57600a0a90565b906001600160a01b03604051917f70a082310000000000000000000000000000000000000000000000000000000083521660048201526020816024816001600160a01b0386165afa801561302c57612fe7612fed91612ff293600091612ffd575b50600154906128dd565b92613a0a565b612f6e565b908115612910570490565b61301f915060203d602011613025575b613017818361023d565b810190612f53565b38612fdd565b503d61300d565b612f62565b9261303f90929192846139af565b928361304c575b50505050565b613113936000809493612f0c8295612efe7fffffffff00000000000000000000000000000000000000000000000000000000602560405161308e60608261023d565b8181527f7432353629000000000000000000000000000000000000000000000000000000604060208301927f7472616e7366657246726f6d28616464726573732c616464726573732c75696e8452015220169560405194859360208501988952602485016001600160a01b036040929594938160608401971683521660208201520152565b38808080613046565b6001600160a01b03610b2592169060019160005201602052604060002054151590565b6001600160a01b03610b25921690613b09565b90613163612ff291600154906128dd565b9161393f565b6001600160a01b037f9016d09d72d40fdae2fd8ceac6b6234c7706214fd39c1cd1e609a0528c1993005416330361319c57565b7f118cdaa7000000000000000000000000000000000000000000000000000000006000523360045260246000fd5b156131d157565b606460405162461bcd60e51b815260206004820152601560248201527f706f6f6c207374617475732069732072656675736500000000000000000000006044820152fd5b8115612910570690565b919061324161043e846001600160a01b03166000526013602052604060002090565b61324a8161157c565b61325760038214156131ca565b61327c613277856001600160a01b0316600052600d602052604060002090565b6139bf565b908151916132898261157c565b8115928391841594856133c8575b806133bf575b6132fd575b50506132ad8261157c565b916132e9575b506132c657505050600090600090600090565b6132e2926132dc6014546001600160a01b031690565b90613bbe565b9192909190565b600191506132f68161157c565b14386132b3565b61335782604051602081019061334f81612efe42414487917fffffffffffffffffffffffffffffffffffffffff0000000000000000000000009060549492845260601b16602083015260348201520190565b519020613215565b9160005b8181106133695750506132a2565b613393898961338d61171961338787613382888c6126e9565b613215565b8861249c565b8d613bbe565b90916001600160a01b0381166133ae5750505060010161335b565b9c919b509950975050505050505050565b5081151561329d565b506133d28461157c565b60028414613297565b6012549068010000000000000000821015610260576001820160125560125482101561098b5760126000908152610275926009027fbb8a6a4669ba250d26cd7a459eca9d215f8307e33aebe50379bc5a3617ec3444016127d7565b60031115610d2357565b60ff6000199116019060ff8211611aad57565b9161349661348761349c936134816134a4969897986001600160a01b03166000526017602052604060002090565b9061093b565b9161349181613436565b613440565b90610977565b5091836128dd565b60015490811561291057049080548201809211611aad576001918155018054918201809211611aad5755565b6134fa93945061349691613481613487926001600160a01b03166000526017602052604060002090565b50906001820190815480821161354a5780820361351b575050600080925555565b909280549161352a85846128dd565b811561291057048203918211611aad57558054918203918211611aad5755565b606460405162461bcd60e51b815260206004820152601c60248201527f736861726520616d6f756e7420697320696e73756666696369656e74000000006044820152fd5b60c0810161359c81516124b0565b506135b461164d60808501516001600160a01b031690565b9160018201926135e86135ce85546001600160a01b031690565b8092906001600160a01b0316600052602052604060002090565b6060860191600160ff6135fc855160ff1690565b1603613790575061361660048501546005860154906126e9565b60e087018051806101808a01526136316002850154846126e9565b10156137435750613643918588614b1d565b61373c577fbfad1a61f82cb671c3dea6c7a473b76cd9e73e3b3f286edda763e46095d0434b9461371e925b61012082015191600292600294811561372c575b5160ff1615613723575b600287015496546136b19060081c6001600160a01b031698546001600160a01b031690565b92610140830151905191610180610160850151940151946040519a8b9a8b9693909a999895926001600160a01b0390816101209a97946101408b019e8b521660208a01521660408801526060870152608086015260a085015260c084015260e08301526101008201520152565b0390a1565b6001945061368c565b6003880154600195509150613682565b5050505050565b5181101561378557613756918588614966565b61373c577fbfad1a61f82cb671c3dea6c7a473b76cd9e73e3b3f286edda763e46095d0434b9461371e9261366e565b61375691858861468a565b927fbfad1a61f82cb671c3dea6c7a473b76cd9e73e3b3f286edda763e46095d0434b969161371e946001600160a01b036137d56110466014546001600160a01b031690565b911614613802575b6101208301516137f7576137f2908684614309565b61366e565b6137f2908684613fcf565b61381b60a0840151610120850151600389015491613ef4565b6137dd565b805482101561098b5760005260206000200190600090565b634e487b7160e01b600052603160045260246000fd5b8054801561387f57600019019061387a6138688383613820565b81929154906000199060031b1b191690565b905555565b613838565b6001810191806000528260205260406000205492831515600014613936576000198401848111611aad578354936000198501948511611aad5760009585836138e7976138d895036138ed575b50505061384e565b90600052602052604060002090565b55600190565b61391d6139179161390e61390461392d9588613820565b90549060031b1c90565b92839187613820565b906123bc565b8590600052602052604060002090565b553880806138d0565b50505050600090565b60206001600160a01b03602481600854169360405194859384927f459bb6730000000000000000000000000000000000000000000000000000000084521660048301525afa90811561302c57600091613996575090565b610b25915060203d60201161302557613017818361023d565b90612df1612fed612df793613a0a565b906040519182815491828252602082019060005260206000209260005b8181106139f15750506102759250038361023d565b84548352600194850194879450602090930192016139dc565b60206001600160a01b03916004604051809481937f313ce567000000000000000000000000000000000000000000000000000000008352165afa801561302c57600090613a5a575b60ff91501690565b506020813d602011613a8e575b81613a746020938361023d565b810103126100155760ff9051613a8981611c9e565b613a52565b3d9150613a67565b6000818152600b6020526040902054613b0357600a546801000000000000000081101561026057613aea613ad3826001859401600a55600a613820565b81939154906000199060031b92831b921b19161790565b9055600a5490600052600b602052604060002055600190565b50600090565b6000828152600182016020526040902054613b5e57805490680100000000000000008210156102605782613b47613ad3846001809601855584613820565b905580549260005201602052604060002055600190565b5050600090565b60ff7ff0c57e16840df040f15088dc2f81fe391c3923bec73e23a9662efc9c229c6a005460401c1615613b9457565b7fd7e6bcf80000000000000000000000000000000000000000000000000000000060005260046000fd5b6001600160a01b0390939293166000526010602052613bf7610658826040600020906001600160a01b0316600052602052604060002090565b91613c06610120840151151590565b613c7a576002549360a084015180613c70575b50613c3f613c2c604093613c4c936128dd565b95613c3a6001548098612906565b612906565b94613c3a600454876128dd565b920151613c5983856126e9565b1115613c6d57505050600090600090600090565b92565b9450613c3f613c19565b50505050600090600090600090565b805490680100000000000000008210156102605781613ad39160016123d694018155613820565b8015611aad576000190190565b919060018301816000528060205260ff60406000205416613d8f57600084545b808210613d4d5750613cef8386613c89565b613cf98554612279565b818111613d1d5750906138d8836139176120ea9594613d189798613820565b600190565b80613d43613d39613904613d33613d4895612279565b8a613820565b613917838a613820565b613cb0565b613cf9565b90818101808211611aad5760011c9084613d678389613820565b90549060031b1c10600014613d88575060018101809111611aad5790613cdd565b9150613cdd565b506000925050565b5190610275826101fa565b519061027582611ab2565b5190600682101561001557565b81601f82011215610015578051613dd08161029f565b92613dde604051948561023d565b8184526020828401011161001557610b259160208085019101610918565b6020818303126100155780519067ffffffffffffffff82116100155701906101a08282031261001557613e2d610277565b91613e3781613d97565b8352613e4560208201613d97565b6020840152613e5660408201613da2565b6040840152613e6760608201613dad565b6060840152613e7860808201613da2565b608084015260a081015160a084015260c081015167ffffffffffffffff81116100155761018092613eaa918301613dba565b60c084015260e081015160e0840152610100810151610100840152610120810151610120840152610140810151610140840152610160810151610160840152015161018082015290565b916000613f4c93613f136110466110466007546001600160a01b031690565b60405180809781947f82fd5bac000000000000000000000000000000000000000000000000000000008352600483019190602083019252565b03915afa91821561302c5761027593600093613fac575b5080613fa1575060e08201525b80516001600160a01b03169060c0810151604082015190613f9082613436565b61010060e0840151930151936134d0565b60e083015250613f70565b613fc891933d8091833e613fc0818361023d565b810190613dfc565b9138613f63565b916123d691926141b260048501928354936141a9613ff46101208601968751906128dd565b9460038901986140068a548098612906565b9161401c6005830198613c3a8a548c51906128dd565b9561402787856126e9565b9260038201614037858254612288565b905560048201614048898254612288565b90556140596116ed85601654612288565b60e08301805190949015614287578451610180850190815260018552938551600285019182549161408a83866126e9565b10156141c85750506140a18261419f969751612288565b936140ae82548096612288565b936140c481546001600160a01b039060081c1690565b956140ce87614c9c565b8087116141be575b50856001939261410a612ac2989961417b946141046140fd6006546001600160a01b031690565b918b6126e9565b91612e51565b6141418261412383546001600160a01b039060081c1690565b6005546001600160a01b03166006546001600160a01b031691613031565b805460081c6001600160a01b031690614175866141666005546001600160a01b031690565b9201546001600160a01b031690565b91614d4b565b0161419261418a848354612288565b835490612288565b90556000815554906126e9565b90525b8254612288565b90558254612288565b90558254905190612288565b955061417b6140d6565b90919396955087865184811160001461423a575050505061421a9261423595926141f86141a26001948851612288565b9055016142088154855190612288565b90555460081c6001600160a01b031690565b9061422d6006546001600160a01b031690565b905191612e51565b6141a2565b111561426357505061421a9261423595926141f861425c600194885190612288565b82546126e9565b926141f861427f60019461421a979460006142359b98526126e9565b875190612288565b935090610100830192835115156000146142ef576142d992916142359560019261016087519101526142c96142c1600284019283546126e9565b8751906126e9565b90550161420881548551906126e9565b6006546001600160a01b03169151913091613031565b50614302925060029150019182546126e9565b90556141a2565b815460ff19168255906004810180549261432960058401948554906126e9565b9260038601614339858254612288565b90556004860161434c8154875490612288565b905561435d6116ed85601654612288565b80546143899060081c6001600160a01b03165b6001600160a01b03166000526011602052604060002090565b906143b16143a660018301936104d485546001600160a01b031690565b60c085015190614de7565b5060e083018051909490156145e25784519661018085019488865260028a01988954906143de828b6126e9565b10156145145750926001959260009a9592614400604061387a9a970151151590565b61441a575b5050505050500191610f458354855490612288565b61442e614436926144e19751905490612288565b905490612288565b926144438a548095612288565b938961445a84546001600160a01b039060081c1690565b9261446484614c9c565b8088116144ec575b5050506144bd92916144949161410461448d6006546001600160a01b031690565b918d6126e9565b6144ad8461412383546001600160a01b039060081c1690565b5460081c6001600160a01b031690565b906141756144d36005546001600160a01b031690565b91546001600160a01b031690565b388080808080614405565b6144bd95949297509061450882612ac28661449497959b6126e9565b9052918b91939461446c565b9399955096935050508184511160001461458957506141a9916123d6959661454c60406145446001958851612288565b970151151590565b61455e575b5001918254905190612288565b546145839060081c6001600160a01b03166006546001600160a01b0316865191612e51565b38614551565b91604093956145a96145a16001946145c298966126e9565b885190612288565b9055016145b98154865190612288565b90550151151590565b6145ca575050565b61421a61027592546001600160a01b039060081c1690565b509395925050925061010083019182511515600014614677576146396002859693614641936146176040610160990151151590565b614649575b506001810161462e81548851906126e9565b9055019283546126e9565b8351906126e9565b905551910152565b546146719060081c6001600160a01b03166006546001600160a01b0316908851913091613031565b3861461c565b506123d6925060029150019182546126e9565b91929092600881015461469d8160ff1690565b9081614951575b506147f2575b806001600492016146bc848254612288565b9055600381016146cd848254612288565b9055016146e08154600586015490612288565b90556146f16116ed82601654612288565b82546147089060081c6001600160a01b0316614370565b6147246143a660018601926104d484546001600160a01b031690565b50614730828486614ea9565b1561473e5750505050600190565b836147e0926147da6147bf6147b16147646147ed99546001600160a01b039060081c1690565b9461478861477a6006546001600160a01b031690565b9660e08b0197885191612e51565b80546144ad9060081c6001600160a01b03166005546001600160a01b0316614104895189612288565b94546001600160a01b031690565b916147d26005546001600160a01b031690565b935190612288565b92614d99565b6001602082015260019052565b600090565b60e083015160048501805491828110614945578261480f91612288565b6002840190815490818111156148295750505050506146aa565b7fc8f742aa90a6e6851d2252fa58ed695d3ca295b55bf5f1c2164a360cc8a093e296506001600160a01b039592916148b19161488f61488261487a6003989c6101408f9b9f8b0154910151906128dd565b8854906128dd565b613c3a6001548092612906565b908261489b83836126e9565b1161493c576148aa92506126e9565b80996126e9565b87556148be888254612288565b9055016148cc8682546126e9565b90556148dd6116ed866016546126e9565b6149346148f460018301546001600160a01b031690565b95600261490c84546001600160a01b039060081c1690565b9301549554908460405195869516981696846040919493926060820195825260208201520152565b0390a3600190565b505080996126e9565b50505050505050600190565b614960915060081c60ff161590565b386146a4565b9192909260e0830180516004860161498081548093612288565b600885015460ff81169081614b08575b5080614afa575b614a7b575050509160046116ed926149b383614a059651612288565b600182016149c682610f45878454612288565b90556149d760028301918254612288565b9055600381016149e8848254612288565b9055016149fb8154600588015490612288565b9055601654612288565b614a41614a36614a2361437085546001600160a01b039060081c1690565b60018501546001600160a01b03166104d4565b60c083015190614de7565b50610180810191614a5483518383615212565b15614a6157505050600190565b546147ed926147e09160081c6001600160a01b031661421a565b7fc8f742aa90a6e6851d2252fa58ed695d3ca295b55bf5f1c2164a360cc8a093e295508793506148b1614ad3614882614acb6001600160a01b0398959a610140600380999e0154910151906128dd565b8654906128dd565b614add81846126e9565b90600285019384548093111560001461493c576148aa92506126e9565b506002850154811115614997565b614b17915060081c60ff161590565b38614990565b9190926116ed614bb791600460e08601946000614b3b848851612288565b89614b4c6002850192835490612288565b60808b0199614b6a614b658c516001600160a01b031690565b614c9c565b90818311614c7f575b505080614c26575b505060018301614b9286610f458354855490612288565b90555560038101614ba4848254612288565b9055016149fb8154600589015490612288565b614bef614be4614bd161437084516001600160a01b031690565b60018601546001600160a01b03166104d4565b60c084015190614de7565b50614c026101808301938385519161543d565b15614c0f57505050600190565b516147ed926147e0916001600160a01b031661421a565b614c5581614c42614c7894546001600160a01b039060081c1690565b6005546001600160a01b03163091613031565b89516001600160a01b03168c61417560016141666005546001600160a01b031690565b8938614b7b565b91610f4582614c8f9394516126e9565b6101808c01523880614b73565b614d016001600160a01b0360055416916020614cb88483612f7c565b6040517fdd62ed3e0000000000000000000000000000000000000000000000000000000081526001600160a01b0390951660048601523060248601529392839081906044820190565b03816001600160a01b0385165afa91821561302c57612fed612fe7614d3b94614d3593600091612ffd5750600154906128dd565b90612906565b808211614d46575090565b905090565b9160606001600160a01b0380807feb42cf637f927243245c50b4bf7fe105fe4f4d26209102240f2ba3d8e27a7df89497959760405196600988526020880152426040880152169616941692a4565b9160606001600160a01b0380807feb42cf637f927243245c50b4bf7fe105fe4f4d26209102240f2ba3d8e27a7df89497959760405196600888526020880152426040880152169616941692a4565b906001820190614e0761106c61043e838590600052602052604060002090565b614ea15782549060005b828110614e22575050505050600090565b81614e306139048388613820565b14614e3d57600101614e11565b9492909193945b614e4d85612279565b811015614e8457600181614e7c614e72613904614e6c614e4d966126db565b8b613820565b613917838b613820565b019050614e44565b50613d1893506138d8614e97939561384e565b60ff198154169055565b505050600090565b90614f07926000614ec86110466110466007546001600160a01b031690565b60028501549060405180809881947f82fd5bac000000000000000000000000000000000000000000000000000000008352600483019190602083019252565b03915afa93841561302c576000946151f7575b50614f4b61043e614f3286516001600160a01b031690565b6001600160a01b03166000526013602052604060002090565b614f548161157c565b15806151eb575b806151b6575b614fef575b50506147ed91614f8060018301546001600160a01b031690565b6001600160a01b03614f9d6110466014546001600160a01b031690565b911614614fb0575b5060ff198154169055565b8154614fe9919060081c6001600160a01b03169060c0810151604082015190614fd882613436565b6101006003870154930151936134d0565b38614fa5565b825460081c6001600160a01b0316916001600160a01b03615023846001600160a01b03166000526010602052604060002090565b9361505661065861503c6014546001600160a01b031690565b8097906001600160a01b0316600052602052604060002090565b94602086016150668682516126e9565b9052604086016150778682516126e9565b905260038701918254916150946101408701938451908385613bbe565b9391969096166150aa5750505050505050614f66565b936151ae613d189b6104c7999561164d99956150e66107ad9d9e9a966107286144ad9b6001600160a01b03166000526010602052604060002090565b95600387016150fa83612ac28484546126e9565b90556004870161510b8382546126e9565b90556002870161512083610f45848454612288565b905560048b015560058a015561516261514361104687546001600160a01b031690565b60018b01906001600160a01b03166001600160a01b0319825416179055565b600b60068a0155885460ff191660011789555b516007890155875460081c6001600160a01b03169060c0810151936101006040830151916151a283613436565b54920194855193613453565b519185615668565b5060018301546001600160a01b03166001600160a01b036151e26110466014546001600160a01b031690565b91161415614f61565b5060005460ff16614f5b565b61520b91943d8091833e613fc0818361023d565b9238614f1a565b90615231926000614ec86110466110466007546001600160a01b031690565b03915afa93841561302c57600094615422575b5061525c61043e614f3286516001600160a01b031690565b6152658161157c565b1580615416575b806153e1575b6152905750506147ed91614f8060018301546001600160a01b031690565b825460081c6001600160a01b0316916001600160a01b036152c4846001600160a01b03166000526010602052604060002090565b936152dd61065861503c6014546001600160a01b031690565b94602086016152ed8682516126e9565b9052604086016152fe8682516126e9565b9052600387019182549161531b6101408701938451908385613bbe565b9391969096166153315750505050505050614f66565b936151ae613d189b6104c7999561164d999561536d6107ad9d9e9a966107286144ad9b6001600160a01b03166000526010602052604060002090565b956003870161538183612ac28484546126e9565b9055600487016153928382546126e9565b9055600287016153a783610f45848454612288565b905560048b015560058a01556153ca61514361104687546001600160a01b031690565b600c60068a0155885460ff19166001178955615175565b5060018301546001600160a01b03166001600160a01b0361540d6110466014546001600160a01b031690565b91161415615272565b5060005460ff1661526c565b61543691943d8091833e613fc0818361023d565b9238615244565b9061545c926000614ec86110466110466007546001600160a01b031690565b03915afa93841561302c5760009461564d575b5061548761043e614f3286516001600160a01b031690565b6154908161157c565b1580615641575b8061560c575b6154bb5750506147ed91614f8060018301546001600160a01b031690565b825460081c6001600160a01b0316916001600160a01b036154ef846001600160a01b03166000526010602052604060002090565b9361550861065861503c6014546001600160a01b031690565b94602086016155188682516126e9565b9052604086016155298682516126e9565b905260038701918254916155466101408701938451908385613bbe565b93919690961661555c5750505050505050614f66565b936151ae613d189b6104c7999561164d99956155986107ad9d9e9a966107286144ad9b6001600160a01b03166000526010602052604060002090565b95600387016155ac83612ac28484546126e9565b9055600487016155bd8382546126e9565b9055600287016155d283610f45848454612288565b905560048b015560058a01556155f561514361104687546001600160a01b031690565b600d60068a0155885460ff19166001178955615175565b5060018301546001600160a01b03166001600160a01b036156386110466014546001600160a01b031690565b9116141561549d565b5060005460ff16615497565b61566191943d8091833e613fc0818361023d565b923861546f565b9361371e9192615801947fbfad1a61f82cb671c3dea6c7a473b76cd9e73e3b3f286edda763e46095d0434b966101406002820154967f55a05fded01868e623bc311ab3e73d3cec2f0871392b36317648452d989ed1ce886156d485546001600160a01b039060081c1690565b809b81987f2156f6f6f776548a0c2a805aee597ff49b812da0546e64c659347a40c8f3b6e461570d60018a01546001600160a01b031690565b9a8b9561577d60038c0154809c60c08c019e8f519060056004840154930154938c6040519889988994909897936001600160a01b03600398948161010099956101208a019d8a521660208901521660408701526060860152608085015260a084015260c083015260e08201520152565b0390a160018101549060028101549060046003820154910154916157b76104c7876001600160a01b0316600052600f602052604060002090565b5493604051978897889360e095919897936001600160a01b03600398948161010089019c16885216602087015260408601526060850152608084015260a083015260c08201520152565b0390a1015191519260405197889788936001600160a01b036101209692999894816005999561014089019c89521660208801521660408601526060850152608084015260a0830152600060c083015260e08201526001610100820152015256fea264697066735822122033de870b5e5cf9f9117197fb2163e79fa67f9dec211f2535ca30255919d7fc2b64736f6c634300081c0033",
  "linkReferences": {},
  "deployedLinkReferences": {}
}