{
  "_format": "hh-sol-artifact-1",
  "contractName": "ProxyFactory",
  "sourceName": "contracts/deploy/ProxyFactory.sol",
  "abi": [
    {
      "inputs": [],
      "name": "InvalidInitialization",
      "type": "error"
    },
    {
      "inputs": [],
      "name": "NotInitializing",
      "type": "error"
    },
    {
      "inputs": [
        {
          "internalType": "address",
          "name": "owner",
          "type": "address"
        }
      ],
      "name": "OwnableInvalidOwner",
      "type": "error"
    },
    {
      "inputs": [
        {
          "internalType": "address",
          "name": "account",
          "type": "address"
        }
      ],
      "name": "OwnableUnauthorizedAccount",
      "type": "error"
    },
    {
      "anonymous": false,
      "inputs": [
        {
          "indexed": false,
          "internalType": "address",
          "name": "token",
          "type": "address"
        },
        {
          "indexed": false,
          "internalType": "address",
          "name": "holder",
          "type": "address"
        },
        {
          "indexed": false,
          "internalType": "string",
          "name": "name",
          "type": "string"
        },
        {
          "indexed": false,
          "internalType": "enum ICommon.Direct",
          "name": "direct",
          "type": "uint8"
        },
        {
          "indexed": false,
          "internalType": "uint256",
          "name": "value",
          "type": "uint256"
        },
        {
          "indexed": false,
          "internalType": "uint256",
          "name": "size",
          "type": "uint256"
        },
        {
          "indexed": false,
          "internalType": "uint256",
          "name": "margin",
          "type": "uint256"
        },
        {
          "indexed": false,
          "internalType": "uint256",
          "name": "freeze",
          "type": "uint256"
        }
      ],
      "name": "AccountPosition",
      "type": "event"
    },
    {
      "anonymous": false,
      "inputs": [
        {
          "indexed": true,
          "internalType": "address",
          "name": "newImplementation",
          "type": "address"
        },
        {
          "indexed": false,
          "internalType": "string",
          "name": "agentDesc",
          "type": "string"
        }
      ],
      "name": "ImplementationUpdated",
      "type": "event"
    },
    {
      "anonymous": false,
      "inputs": [
        {
          "indexed": false,
          "internalType": "uint64",
          "name": "version",
          "type": "uint64"
        }
      ],
      "name": "Initialized",
      "type": "event"
    },
    {
      "anonymous": false,
      "inputs": [
        {
          "indexed": true,
          "internalType": "address",
          "name": "previousOwner",
          "type": "address"
        },
        {
          "indexed": true,
          "internalType": "address",
          "name": "newOwner",
          "type": "address"
        }
      ],
      "name": "OwnershipTransferred",
      "type": "event"
    },
    {
      "anonymous": false,
      "inputs": [
        {
          "indexed": false,
          "internalType": "address",
          "name": "addr",
          "type": "address"
        },
        {
          "indexed": false,
          "internalType": "address",
          "name": "created",
          "type": "address"
        },
        {
          "indexed": false,
          "internalType": "address",
          "name": "settle",
          "type": "address"
        },
        {
          "indexed": false,
          "internalType": "string",
          "name": "name",
          "type": "string"
        }
      ],
      "name": "TradeStationCreated",
      "type": "event"
    },
    {
      "anonymous": false,
      "inputs": [
        {
          "indexed": true,
          "internalType": "address",
          "name": "token",
          "type": "address"
        },
        {
          "indexed": true,
          "internalType": "address",
          "name": "sender",
          "type": "address"
        },
        {
          "indexed": true,
          "internalType": "address",
          "name": "received",
          "type": "address"
        },
        {
          "indexed": false,
          "internalType": "enum ICommon.TransactionType",
          "name": "transactionType",
          "type": "uint8"
        },
        {
          "indexed": false,
          "internalType": "uint256",
          "name": "amount",
          "type": "uint256"
        },
        {
          "indexed": false,
          "internalType": "uint256",
          "name": "timestamp",
          "type": "uint256"
        }
      ],
      "name": "TransactionHistory",
      "type": "event"
    },
    {
      "anonymous": false,
      "inputs": [
        {
          "indexed": false,
          "internalType": "address",
          "name": "addr",
          "type": "address"
        },
        {
          "indexed": false,
          "internalType": "address",
          "name": "created",
          "type": "address"
        },
        {
          "indexed": false,
          "internalType": "address",
          "name": "oracle",
          "type": "address"
        },
        {
          "indexed": false,
          "internalType": "string",
          "name": "name",
          "type": "string"
        }
      ],
      "name": "UnderlyingCreated",
      "type": "event"
    },
    {
      "anonymous": false,
      "inputs": [
        {
          "indexed": false,
          "internalType": "address",
          "name": "creator",
          "type": "address"
        },
        {
          "indexed": false,
          "internalType": "address",
          "name": "buyBack",
          "type": "address"
        },
        {
          "indexed": false,
          "internalType": "address",
          "name": "marketAgent",
          "type": "address"
        },
        {
          "indexed": false,
          "internalType": "address",
          "name": "perpetual",
          "type": "address"
        },
        {
          "indexed": false,
          "internalType": "address",
          "name": "privatePool",
          "type": "address"
        },
        {
          "indexed": false,
          "internalType": "address",
          "name": "orderBook",
          "type": "address"
        },
        {
          "indexed": false,
          "internalType": "address",
          "name": "tradeAgent",
          "type": "address"
        },
        {
          "indexed": false,
          "internalType": "address",
          "name": "tradeStation",
          "type": "address"
        },
        {
          "indexed": false,
          "internalType": "address",
          "name": "poolAgent",
          "type": "address"
        }
      ],
      "name": "createTradePools",
      "type": "event"
    },
    {
      "anonymous": false,
      "inputs": [
        {
          "indexed": false,
          "internalType": "address",
          "name": "token",
          "type": "address"
        },
        {
          "indexed": false,
          "internalType": "address",
          "name": "sender",
          "type": "address"
        },
        {
          "indexed": false,
          "internalType": "string",
          "name": "name",
          "type": "string"
        },
        {
          "indexed": false,
          "internalType": "uint256",
          "name": "beforeLeverage",
          "type": "uint256"
        },
        {
          "indexed": false,
          "internalType": "uint256",
          "name": "afterLeverage",
          "type": "uint256"
        }
      ],
      "name": "setLeverage",
      "type": "event"
    },
    {
      "stateMutability": "nonpayable",
      "type": "fallback"
    },
    {
      "inputs": [],
      "name": "buyBack",
      "outputs": [
        {
          "internalType": "address",
          "name": "",
          "type": "address"
        }
      ],
      "stateMutability": "view",
      "type": "function"
    },
    {
      "inputs": [],
      "name": "buyBackImpl",
      "outputs": [
        {
          "internalType": "address",
          "name": "",
          "type": "address"
        }
      ],
      "stateMutability": "view",
      "type": "function"
    },
    {
      "inputs": [],
      "name": "createTradePool",
      "outputs": [],
      "stateMutability": "nonpayable",
      "type": "function"
    },
    {
      "inputs": [
        {
          "internalType": "string",
          "name": "_tradePairName",
          "type": "string"
        },
        {
          "internalType": "address",
          "name": "_oracleAddr",
          "type": "address"
        }
      ],
      "name": "createUnderlying",
      "outputs": [
        {
          "internalType": "address",
          "name": "",
          "type": "address"
        }
      ],
      "stateMutability": "nonpayable",
      "type": "function"
    },
    {
      "inputs": [],
      "name": "getUnderlying",
      "outputs": [
        {
          "internalType": "string[]",
          "name": "names",
          "type": "string[]"
        },
        {
          "internalType": "address[]",
          "name": "addresses",
          "type": "address[]"
        }
      ],
      "stateMutability": "view",
      "type": "function"
    },
    {
      "inputs": [
        {
          "internalType": "address",
          "name": "initialOwner",
          "type": "address"
        },
        {
          "internalType": "address",
          "name": "_riskAddr",
          "type": "address"
        },
        {
          "internalType": "address",
          "name": "_platformToken",
          "type": "address"
        },
        {
          "internalType": "address",
          "name": "_tradeFeeAddr",
          "type": "address"
        },
        {
          "internalType": "address",
          "name": "_platformTradeFeeAddr",
          "type": "address"
        }
      ],
      "name": "initialize",
      "outputs": [],
      "stateMutability": "nonpayable",
      "type": "function"
    },
    {
      "inputs": [],
      "name": "marketAgent",
      "outputs": [
        {
          "internalType": "address",
          "name": "",
          "type": "address"
        }
      ],
      "stateMutability": "view",
      "type": "function"
    },
    {
      "inputs": [],
      "name": "marketAgentImpl",
      "outputs": [
        {
          "internalType": "address",
          "name": "",
          "type": "address"
        }
      ],
      "stateMutability": "view",
      "type": "function"
    },
    {
      "inputs": [],
      "name": "orderBook",
      "outputs": [
        {
          "internalType": "address",
          "name": "",
          "type": "address"
        }
      ],
      "stateMutability": "view",
      "type": "function"
    },
    {
      "inputs": [],
      "name": "orderBookImpl",
      "outputs": [
        {
          "internalType": "address",
          "name": "",
          "type": "address"
        }
      ],
      "stateMutability": "view",
      "type": "function"
    },
    {
      "inputs": [],
      "name": "owner",
      "outputs": [
        {
          "internalType": "address",
          "name": "",
          "type": "address"
        }
      ],
      "stateMutability": "view",
      "type": "function"
    },
    {
      "inputs": [],
      "name": "perpetual",
      "outputs": [
        {
          "internalType": "address",
          "name": "",
          "type": "address"
        }
      ],
      "stateMutability": "view",
      "type": "function"
    },
    {
      "inputs": [],
      "name": "perpetualImpl",
      "outputs": [
        {
          "internalType": "address",
          "name": "",
          "type": "address"
        }
      ],
      "stateMutability": "view",
      "type": "function"
    },
    {
      "inputs": [],
      "name": "platformToken",
      "outputs": [
        {
          "internalType": "address",
          "name": "",
          "type": "address"
        }
      ],
      "stateMutability": "view",
      "type": "function"
    },
    {
      "inputs": [],
      "name": "platformTradeFeeAddr",
      "outputs": [
        {
          "internalType": "address",
          "name": "",
          "type": "address"
        }
      ],
      "stateMutability": "view",
      "type": "function"
    },
    {
      "inputs": [],
      "name": "poolAgent",
      "outputs": [
        {
          "internalType": "address",
          "name": "",
          "type": "address"
        }
      ],
      "stateMutability": "view",
      "type": "function"
    },
    {
      "inputs": [],
      "name": "poolAgentImpl",
      "outputs": [
        {
          "internalType": "address",
          "name": "",
          "type": "address"
        }
      ],
      "stateMutability": "view",
      "type": "function"
    },
    {
      "inputs": [],
      "name": "privatePool",
      "outputs": [
        {
          "internalType": "address",
          "name": "",
          "type": "address"
        }
      ],
      "stateMutability": "view",
      "type": "function"
    },
    {
      "inputs": [],
      "name": "privatePoolImpl",
      "outputs": [
        {
          "internalType": "address",
          "name": "",
          "type": "address"
        }
      ],
      "stateMutability": "view",
      "type": "function"
    },
    {
      "inputs": [],
      "name": "proxyAdminOwner",
      "outputs": [
        {
          "internalType": "address",
          "name": "",
          "type": "address"
        }
      ],
      "stateMutability": "view",
      "type": "function"
    },
    {
      "inputs": [],
      "name": "renounceOwnership",
      "outputs": [],
      "stateMutability": "nonpayable",
      "type": "function"
    },
    {
      "inputs": [],
      "name": "riskAddr",
      "outputs": [
        {
          "internalType": "address",
          "name": "",
          "type": "address"
        }
      ],
      "stateMutability": "view",
      "type": "function"
    },
    {
      "inputs": [
        {
          "internalType": "address",
          "name": "newImpl",
          "type": "address"
        }
      ],
      "name": "setBuyBackImpl",
      "outputs": [],
      "stateMutability": "nonpayable",
      "type": "function"
    },
    {
      "inputs": [
        {
          "internalType": "address",
          "name": "newImpl",
          "type": "address"
        }
      ],
      "name": "setMarketAgentImpl",
      "outputs": [],
      "stateMutability": "nonpayable",
      "type": "function"
    },
    {
      "inputs": [
        {
          "internalType": "address",
          "name": "newImpl",
          "type": "address"
        }
      ],
      "name": "setOrderBookImpl",
      "outputs": [],
      "stateMutability": "nonpayable",
      "type": "function"
    },
    {
      "inputs": [
        {
          "internalType": "address",
          "name": "newImpl",
          "type": "address"
        }
      ],
      "name": "setPerpetualImpl",
      "outputs": [],
      "stateMutability": "nonpayable",
      "type": "function"
    },
    {
      "inputs": [
        {
          "internalType": "address",
          "name": "_addr",
          "type": "address"
        }
      ],
      "name": "setPlatformToken",
      "outputs": [],
      "stateMutability": "nonpayable",
      "type": "function"
    },
    {
      "inputs": [
        {
          "internalType": "address",
          "name": "_addr",
          "type": "address"
        }
      ],
      "name": "setPlatformTradeFeeAddr",
      "outputs": [],
      "stateMutability": "nonpayable",
      "type": "function"
    },
    {
      "inputs": [
        {
          "internalType": "address",
          "name": "newImpl",
          "type": "address"
        }
      ],
      "name": "setPoolAgentImpl",
      "outputs": [],
      "stateMutability": "nonpayable",
      "type": "function"
    },
    {
      "inputs": [
        {
          "internalType": "address",
          "name": "newImpl",
          "type": "address"
        }
      ],
      "name": "setPrivatePoolImpl",
      "outputs": [],
      "stateMutability": "nonpayable",
      "type": "function"
    },
    {
      "inputs": [
        {
          "internalType": "address",
          "name": "_addr",
          "type": "address"
        }
      ],
      "name": "setRiskAddr",
      "outputs": [],
      "stateMutability": "nonpayable",
      "type": "function"
    },
    {
      "inputs": [
        {
          "internalType": "address",
          "name": "newImpl",
          "type": "address"
        }
      ],
      "name": "setTradeAgentImpl",
      "outputs": [],
      "stateMutability": "nonpayable",
      "type": "function"
    },
    {
      "inputs": [
        {
          "internalType": "address",
          "name": "_addr",
          "type": "address"
        }
      ],
      "name": "setTradeFeeAddr",
      "outputs": [],
      "stateMutability": "nonpayable",
      "type": "function"
    },
    {
      "inputs": [
        {
          "internalType": "address",
          "name": "newImpl",
          "type": "address"
        }
      ],
      "name": "setTradeStationImpl",
      "outputs": [],
      "stateMutability": "nonpayable",
      "type": "function"
    },
    {
      "inputs": [
        {
          "internalType": "address",
          "name": "newImpl",
          "type": "address"
        }
      ],
      "name": "setUnderlyingImpl",
      "outputs": [],
      "stateMutability": "nonpayable",
      "type": "function"
    },
    {
      "inputs": [],
      "name": "tradeAgent",
      "outputs": [
        {
          "internalType": "address",
          "name": "",
          "type": "address"
        }
      ],
      "stateMutability": "view",
      "type": "function"
    },
    {
      "inputs": [],
      "name": "tradeAgentImpl",
      "outputs": [
        {
          "internalType": "address",
          "name": "",
          "type": "address"
        }
      ],
      "stateMutability": "view",
      "type": "function"
    },
    {
      "inputs": [],
      "name": "tradeFeeAddr",
      "outputs": [
        {
          "internalType": "address",
          "name": "",
          "type": "address"
        }
      ],
      "stateMutability": "view",
      "type": "function"
    },
    {
      "inputs": [],
      "name": "tradeStation",
      "outputs": [
        {
          "internalType": "address",
          "name": "",
          "type": "address"
        }
      ],
      "stateMutability": "view",
      "type": "function"
    },
    {
      "inputs": [],
      "name": "tradeStationImpl",
      "outputs": [
        {
          "internalType": "address",
          "name": "",
          "type": "address"
        }
      ],
      "stateMutability": "view",
      "type": "function"
    },
    {
      "inputs": [
        {
          "internalType": "address",
          "name": "newOwner",
          "type": "address"
        }
      ],
      "name": "transferOwnership",
      "outputs": [],
      "stateMutability": "nonpayable",
      "type": "function"
    },
    {
      "inputs": [],
      "name": "underlyingImpl",
      "outputs": [
        {
          "internalType": "address",
          "name": "",
          "type": "address"
        }
      ],
      "stateMutability": "view",
      "type": "function"
    },
    {
      "inputs": [],
      "name": "version",
      "outputs": [
        {
          "internalType": "uint256",
          "name": "",
          "type": "uint256"
        }
      ],
      "stateMutability": "view",
      "type": "function"
    }
  ],
  "bytecode": "0x60808060405234601557613d29908161001a8239f35b5f80fdfe60806040526004361015610019575b3461001557005b5f80fd5b5f5f3560e01c80630255a03b14612c9d578063032d2e3214612c14578063086b21ec14612b285780630e4b1d9114612b025780631459457a1461283857806319e67d75146128125780631ed6cd47146127ec57806323353a03146127025780632ba5cc04146126dc57806334d57a20146126b6578063513e2d29146125b057806354fd4d5014612594578063566014351461256e57806359b5e75e146125485780635cd9dee7146120cc57806361f5565214611fc55780636335579314611ebd5780636444079614611e96578063645b3fd014611e57578063685a020e14611d6957806369a0eeb814611d42578063715018a614611ca9578063776af5ba14611c825780637ba3fa7414611b945780638da5cb5b14611b4e5780639816f473146119785780639f0937cc14611951578063a4d302ca1461192a578063a70dc3fe14611903578063acdf4f18146118dc578063b14f18ec146117d4578063b94bb64b14611795578063bbebb8a51461046c578063bf75448714610445578063c10147921461041e578063c7286c68146103f7578063d148a30e146103d0578063d1b812cd146103a9578063dad544e014610382578063e08061b31461035b578063f2fde38b1461032e578063f5852039146103075763fc62d834146101fd575061000e565b34610304576020600319360112610304576001600160a01b0361021e612cdc565b610226612f47565b16801561029a57806001600160a01b0319600f541617600f557fbc873d134a6a2180535a76a95274afd8ae5a0d5d52ee41f1b026a478fe6b4d0d606060405160208152600c60208201527f6d61726b6574206167656e7400000000000000000000000000000000000000006040820152a280f35b608460405162461bcd60e51b815260206004820152602560248201527f6e6577206d61726b6574206167656e7420696d706c206973207a65726f20616460448201527f64726573730000000000000000000000000000000000000000000000000000006064820152fd5b80fd5b503461030457806003193601126103045760206001600160a01b0360025416604051908152f35b50346103045760206003193601126103045761035861034b612cdc565b610353612f47565b612e8c565b80f35b503461030457806003193601126103045760206001600160a01b0360045416604051908152f35b503461030457806003193601126103045760206001600160a01b0360015416604051908152f35b503461030457806003193601126103045760206001600160a01b0360035416604051908152f35b503461030457806003193601126103045760206001600160a01b0360125416604051908152f35b503461030457806003193601126103045760206001600160a01b0360165416604051908152f35b503461030457806003193601126103045760206001600160a01b03600f5416604051908152f35b503461030457806003193601126103045760206001600160a01b0360135416604051908152f35b5034610304578060031936011261030457610485612f47565b6001600160a01b0360095416611751576001600160a01b0360035416906001600160a01b03600e541691821561170d57604051907fc4d66de80000000000000000000000000000000000000000000000000000000060208301526024820152602481526104f3604482612d08565b6001600160a01b03600154169060405190610cf6928383019583871067ffffffffffffffff8811176116f95791610533918493612ffe98878a8739612d50565b039083f080156110b5576001600160a01b03166001600160a01b031960065416176006556001600160a01b03600f541680156116ab576040517f8129fc1c000000000000000000000000000000000000000000000000000000006020820152600481526105a1602482612d08565b6001600160a01b03600154166040519284840184811067ffffffffffffffff8211176114cf57918493916105d893878a8739612d50565b039083f080156110b5576001600160a01b03166001600160a01b031960075416176007556001600160a01b0360135416801561165d576001600160a01b0360025416604051907fc4d66de8000000000000000000000000000000000000000000000000000000006020830152602482015260248152610658604482612d08565b6001600160a01b03600154166040519284840184811067ffffffffffffffff8211176114cf579184939161068f93878a8739612d50565b039083f080156110b5576001600160a01b0316806001600160a01b031960085416176008556001600160a01b0360155416908115611619576002546004546005546040517ff8c8765e0000000000000000000000000000000000000000000000000000000060208201526001600160a01b0394851660248201529284166044840152908316606483015290911660848201526107388160a481015b03601f198101835282612d08565b6001600160a01b03600154166040519284840184811067ffffffffffffffff8211176114cf579184939161076f93878a8739612d50565b039083f080156110b5576001600160a01b0316806001600160a01b031960095416176009556001600160a01b03601454169081156115d55760085460405163485cc95560e01b60208201526001600160a01b039182166024820152911660448201526107de816064810161072a565b6001600160a01b03600154166040519284840184811067ffffffffffffffff8211176114cf579184939161081593878a8739612d50565b039083f080156110b5576001600160a01b03166001600160a01b0319600a541617600a556001600160a01b036011541680156115915760085460095460405163485cc95560e01b60208201526001600160a01b03928316602482015291166044820152610885816064810161072a565b6001600160a01b03600154166040519284840184811067ffffffffffffffff8211176114cf57918493916108bc93878a8739612d50565b039083f080156110b5576001600160a01b03166001600160a01b0319600b541617600b556001600160a01b036010541680156115275760085460095460405163485cc95560e01b60208201526001600160a01b0392831660248201529116604482015261092c816064810161072a565b6001600160a01b03600154166040519284840184811067ffffffffffffffff8211176114cf579184939161096393878a8739612d50565b039083f080156110b5576001600160a01b03166001600160a01b0319600c541617600c556001600160a01b03601254169283156114e35760085460095460405163485cc95560e01b60208201526001600160a01b03928316602482015291166044808301919091528152936109d9606486612d08565b6001600160a01b036001541691604051938085019185831067ffffffffffffffff8411176114cf5792869792869592610a13958739612d50565b039082f080156114c2576001600160a01b0316806001600160a01b0319600d541617600d557f2a37c436fe5ea931e667ff0da40caad04fefb0429325643c1b5604dc4d161c8b6101206001600160a01b0360065416926001600160a01b0360075416906001600160a01b03600954166001600160a01b03600854166001600160a01b03600a54166001600160a01b03600b5416916001600160a01b03600c541693604051963388528a602089015260408801526060870152608086015260a085015260c084015260e0830152610100820152a16001600160a01b0360015416813b156113765782916024839260405194859384927f537fb74800000000000000000000000000000000000000000000000000000000845260048401525af180156110b5576114ad575b506001600160a01b03600954166001600160a01b03600654166001600160a01b03600a5416916001600160a01b03600b5416906001600160a01b03600c5416936001600160a01b0360075416936001600160a01b036001541690833b15611455576040517ff74c30490000000000000000000000000000000000000000000000000000000081526001600160a01b0391821660048201529281166024840152938416604483015294831660648201529282166084840152921660a4820152908290829060c490829084905af180156110b557611498575b506001600160a01b03600a54166001600160a01b03600b54166001600160a01b03600c5416916001600160a01b03600d5416906001600160a01b036001541693813b1561143c576040516381a4f17360e01b81526001600160a01b039485166004820152908416602482015291831660448301529290911660648201529082908290608490829084905af180156110b557611483575b506001600160a01b03600b54166001600160a01b03600a54166001600160a01b03600c5416916001600160a01b03600d5416906001600160a01b036001541693813b1561143c576040516381a4f17360e01b81526001600160a01b039485166004820152908416602482015291831660448301529290911660648201529082908290608490829084905af180156110b55761146e575b506001600160a01b03600c54166001600160a01b03600a54166001600160a01b03600b5416916001600160a01b03600d5416906001600160a01b036001541693813b1561143c576040516381a4f17360e01b81526001600160a01b039485166004820152908416602482015291831660448301529290911660648201529082908290608490829084905af180156110b557611459575b506001600160a01b03600854166001600160a01b03600954166001600160a01b03600a5416916001600160a01b03600b5416906001600160a01b03600c5416936001600160a01b03600d5416936001600160a01b036001541690833b15611455576040517ff74c30490000000000000000000000000000000000000000000000000000000081526001600160a01b0391821660048201529281166024840152938416604483015294831660648201529282166084840152921660a4820152908290829060c490829084905af180156110b557611440575b506001600160a01b03600d54166001600160a01b03600a54166001600160a01b03600b5416916001600160a01b03600c5416906001600160a01b036001541693813b1561143c576040516381a4f17360e01b81526001600160a01b039485166004820152908416602482015291831660448301529290911660648201529082908290608490829084905af180156110b557611427575b506001600160a01b03600754166001600160a01b03600954166001600160a01b0360015416823b15611422576040517f2b0002060000000000000000000000000000000000000000000000000000000081526001600160a01b039283166004820152911660248201529082908290604490829084905af180156110b55761140d575b505b60175481101561111257816001600160a01b0360095416610fe683612d7a565b5090610ff184612d7a565b5060405190849080549061100482612da6565b91600181169081156110fa57506001146110c4575b5050601881528190036020019020546001600160a01b031691813b156110c057839161107d91836040518096819582947f708b8d86000000000000000000000000000000000000000000000000000000008452604060048501526044840190612df6565b90602483015203925af180156110b55761109c575b5050600101610fc6565b816110a691612d08565b6110b157815f611092565b5080fd5b6040513d84823e3d90fd5b8380fd5b90915085526020852085905b8282106110e35750508101602082611019565b8054828501528896506020909101906001016110d0565b60ff1916855250508015150282019050602082611019565b50806001600160a01b03600654166001600160a01b0360015416813b1561137657829160248392604051948593849263f2fde38b60e01b845260048401525af180156110b5576113f8575b506001600160a01b03600754166001600160a01b0360015416813b1561137657829160248392604051948593849263f2fde38b60e01b845260048401525af180156110b5576113e3575b506001600160a01b03600954166001600160a01b0360015416813b1561137657829160248392604051948593849263f2fde38b60e01b845260048401525af180156110b5576113ce575b506001600160a01b03600a54166001600160a01b0360015416813b1561137657829160248392604051948593849263f2fde38b60e01b845260048401525af180156110b5576113b9575b506001600160a01b03600b54166001600160a01b0360015416813b1561137657829160248392604051948593849263f2fde38b60e01b845260048401525af180156110b5576113a4575b506001600160a01b03600c54166001600160a01b0360015416813b1561137657829160248392604051948593849263f2fde38b60e01b845260048401525af180156110b55761138f575b506001600160a01b03600854166001600160a01b0360015416813b1561137657829160248392604051948593849263f2fde38b60e01b845260048401525af180156110b55761137a575b506001600160a01b03600d54166001600160a01b0360015416813b1561137657829160248392604051948593849263f2fde38b60e01b845260048401525af180156110b5576113655750f35b8161136f91612d08565b6103045780f35b5050fd5b8161138491612d08565b61030457805f611319565b8161139991612d08565b61030457805f6112cf565b816113ae91612d08565b61030457805f611285565b816113c391612d08565b61030457805f61123b565b816113d891612d08565b61030457805f6111f1565b816113ed91612d08565b61030457805f6111a7565b8161140291612d08565b61030457805f61115d565b8161141791612d08565b61030457805f610fc4565b505050fd5b8161143191612d08565b61030457805f610f42565b8580fd5b8161144a91612d08565b61030457805f610eac565b8780fd5b8161146391612d08565b61030457805f610dd5565b8161147891612d08565b61030457805f610d3f565b8161148d91612d08565b61030457805f610ca9565b816114a291612d08565b61030457805f610c13565b816114b791612d08565b61030457805f610b3c565b50604051903d90823e3d90fd5b602487634e487b7160e01b81526041600452fd5b606460405162461bcd60e51b815260206004820152601f60248201527f706f6f6c206167656e7420696d706c206973207a65726f2061646472657373006044820152fd5b608460405162461bcd60e51b815260206004820152602260248201527f74726164652073746174696f6e20696d706c206973207a65726f20616464726560448201527f73730000000000000000000000000000000000000000000000000000000000006064820152fd5b606460405162461bcd60e51b815260206004820152602060248201527f7472616465206167656e7420696d706c206973207a65726f20616464726573736044820152fd5b606460405162461bcd60e51b815260206004820152601f60248201527f6f7264657220626f6f6b20696d706c206973207a65726f2061646472657373006044820152fd5b606460405162461bcd60e51b815260206004820152601e60248201527f70657270657475616c20696d706c206973207a65726f206164647265737300006044820152fd5b608460405162461bcd60e51b815260206004820152602160248201527f7072697661746520706f6f6c20696d706c206973207a65726f206164647265736044820152607360f81b6064820152fd5b608460405162461bcd60e51b815260206004820152602160248201527f6d61726b6574206167656e7420696d706c206973207a65726f206164647265736044820152607360f81b6064820152fd5b602486634e487b7160e01b81526041600452fd5b606460405162461bcd60e51b815260206004820152601d60248201527f627579206261636b20696d706c206973207a65726f20616464726573730000006044820152fd5b606460405162461bcd60e51b815260206004820152601260248201527f616c7265616479206465706c6f796d656e7400000000000000000000000000006044820152fd5b5034610304576020600319360112610304576001600160a01b036117b7612cdc565b6117bf612f47565b166001600160a01b0319600554161760055580f35b5034610304576020600319360112610304576001600160a01b036117f6612cdc565b6117fe612f47565b16801561187257806001600160a01b031960105416176010557fbc873d134a6a2180535a76a95274afd8ae5a0d5d52ee41f1b026a478fe6b4d0d606060405160208152600d60208201527f74726164652073746174696f6e000000000000000000000000000000000000006040820152a280f35b608460405162461bcd60e51b815260206004820152602660248201527f6e65772074726164652073746174696f6e20696d706c206973207a65726f206160448201527f64647265737300000000000000000000000000000000000000000000000000006064820152fd5b503461030457806003193601126103045760206001600160a01b0360065416604051908152f35b503461030457806003193601126103045760206001600160a01b0360055416604051908152f35b503461030457806003193601126103045760206001600160a01b0360145416604051908152f35b503461030457806003193601126103045760206001600160a01b0360155416604051908152f35b50346103045780600319360112610304576017549061199682612dde565b916119a46040519384612d08565b8083526017825260208301917fc624b66cc0138b8fabc209247f72d758e1cf3343756d543badbf24212bed8c1581845b848210611b2257505050611a006119ea83612dde565b926119f86040519485612d08565b808452612dde565b601f19602084019101368237815b8551811015611a5b57806001600160a01b03602080611a2f6001958b612e78565b51604051928184925191829101835e810160188152030190205416611a548287612e78565b5201611a0e565b5091939260405194859460408601906040875251809152606086019060608160051b880101939185905b828210611ad357505050506020908583038287015251918281520192915b818110611ab1575050500390f35b82516001600160a01b0316845285945060209384019390920191600101611aa3565b9193946020611b10827fffffffffffffffffffffffffffffffffffffffffffffffffffffffffffffffa0600195979b9c8495030186528a51612d2b565b98019201920188979694939192611a85565b600160208192604051611b4081611b39818a612df6565b0382612d08565b8152019301910190916119d4565b503461030457806003193601126103045760206001600160a01b037f9016d09d72d40fdae2fd8ceac6b6234c7706214fd39c1cd1e609a0528c1993005416604051908152f35b5034610304576020600319360112610304576001600160a01b03611bb6612cdc565b611bbe612f47565b168015611c3257806001600160a01b031960125416176012557fbc873d134a6a2180535a76a95274afd8ae5a0d5d52ee41f1b026a478fe6b4d0d606060405160208152600a60208201527f706f6f6c206167656e74000000000000000000000000000000000000000000006040820152a280f35b608460405162461bcd60e51b815260206004820152602360248201527f6e657720706f6f6c206167656e7420696d706c206973207a65726f206164647260448201526265737360e81b6064820152fd5b503461030457806003193601126103045760206001600160a01b03600a5416604051908152f35b5034610304578060031936011261030457611cc2612f47565b806001600160a01b037f9016d09d72d40fdae2fd8ceac6b6234c7706214fd39c1cd1e609a0528c199300546001600160a01b031981167f9016d09d72d40fdae2fd8ceac6b6234c7706214fd39c1cd1e609a0528c19930055167f8be0079c531659141344cd1fd0a4f28419497f9722a3daafe3b4186f6b6457e08280a380f35b503461030457806003193601126103045760206001600160a01b0360075416604051908152f35b5034610304576020600319360112610304576001600160a01b03611d8b612cdc565b611d93612f47565b168015611e0757806001600160a01b031960165416176016557fbc873d134a6a2180535a76a95274afd8ae5a0d5d52ee41f1b026a478fe6b4d0d606060405160208152600f60208201527f756e6465726c79696e6720696d706c00000000000000000000000000000000006040820152a280f35b608460405162461bcd60e51b815260206004820152602360248201527f6e657720756e6465726c79696e6720696d706c206973207a65726f206164647260448201526265737360e81b6064820152fd5b5034610304576020600319360112610304576001600160a01b03611e79612cdc565b611e81612f47565b166001600160a01b0319600454161760045580f35b503461030457806003193601126103045760206001600160a01b0360115416604051908152f35b5034610304576020600319360112610304576001600160a01b03611edf612cdc565b611ee7612f47565b168015611f5b57806001600160a01b031960155416176015557fbc873d134a6a2180535a76a95274afd8ae5a0d5d52ee41f1b026a478fe6b4d0d606060405160208152600960208201527f70657270657475616c00000000000000000000000000000000000000000000006040820152a280f35b608460405162461bcd60e51b815260206004820152602260248201527f6e65772070657270657475616c20696d706c206973207a65726f20616464726560448201527f73730000000000000000000000000000000000000000000000000000000000006064820152fd5b5034610304576020600319360112610304576001600160a01b03611fe7612cdc565b611fef612f47565b16801561206357806001600160a01b031960115416176011557fbc873d134a6a2180535a76a95274afd8ae5a0d5d52ee41f1b026a478fe6b4d0d606060405160208152600b60208201527f7472616465206167656e740000000000000000000000000000000000000000006040820152a280f35b608460405162461bcd60e51b8152602060048201526024808201527f6e6577207472616465206167656e7420696d706c206973207a65726f2061646460448201527f72657373000000000000000000000000000000000000000000000000000000006064820152fd5b50346100155760406003193601126100155760043567ffffffffffffffff811161001557366023820112156100155780600401359167ffffffffffffffff831161252157604051926121286020601f19601f8401160185612d08565b8084526020840192366024838301011161001557815f92602460209301863785010152612153612cf2565b9061215c612f47565b6001600160a01b03604051927ff399e22e0000000000000000000000000000000000000000000000000000000060208501521691826024820152604060448201526121ae8161072a6064820188612d2b565b6001600160a01b03601654166001600160a01b036001541660405192610cf6918285019385851067ffffffffffffffff8611176125215785946121f594612ffe8739612d50565b03905ff080156123ec576001600160a01b0316926001600160a01b0360405160208188518086835e810160188152030190205416156123f7575b6020604051809287518091835e81016018815203019020836001600160a01b03198254161790556001600160a01b0360015416833b1561001557604051907f748747e600000000000000000000000000000000000000000000000000000000825260048201525f8160248183885af180156123ec576123d9575b506001600160a01b0360015416833b156110b1576040519063f2fde38b60e01b82526004820152818160248183885af180156110b5579082916123c4575b50506001600160a01b036009541680612353575b6020847fae8e2b7deec9b08defea34ed88a6585b908bc826fa9c767b7ec37ffb828d2f1b878661234860405192839286845233888501526040840152608060608401526080830190612d2b565b0390a1604051908152f35b803b156110b1578160405180927f708b8d860000000000000000000000000000000000000000000000000000000082526040600483015281838161239a604482018c612d2b565b8a602483015203925af180156110b557156122fb576123ba828092612d08565b61030457806122fb565b816123ce91612d08565b61030457805f6122e7565b6123e591505f90612d08565b5f5f6122a9565b6040513d5f823e3d90fd5b601754680100000000000000008110156125215780600161241b9201601755612d7a565b61253557855167ffffffffffffffff81116125215761243a8254612da6565b601f81116124dc575b50806020601f821160011461247b575f91612470575b508160011b915f199060031b1c191617905561222f565b90508701515f612459565b5f84815281812092601f1916905b8a8282106124c457505090836001949392106124ac575b5050811b01905561222f565b8901515f1960f88460031b161c191690555f806124a0565b60018495602093958493015181550194019201612489565b825f5260205f20601f830160051c81019160208410612517575b601f0160051c01905b81811061250c5750612443565b5f81556001016124ff565b90915081906124f6565b634e487b7160e01b5f52604160045260245ffd5b634e487b7160e01b5f525f60045260245ffd5b34610015575f6003193601126100155760206001600160a01b0360085416604051908152f35b34610015575f6003193601126100155760206001600160a01b03600b5416604051908152f35b34610015575f6003193601126100155760205f54604051908152f35b34610015576020600319360112610015576001600160a01b036125d1612cdc565b6125d9612f47565b16801561264c57806001600160a01b031960135416176013557fbc873d134a6a2180535a76a95274afd8ae5a0d5d52ee41f1b026a478fe6b4d0d606060405160208152600c60208201527f7072697661746520706f6f6c00000000000000000000000000000000000000006040820152a2005b608460405162461bcd60e51b815260206004820152602560248201527f6e6577207072697661746520706f6f6c20696d706c206973207a65726f20616460448201527f64726573730000000000000000000000000000000000000000000000000000006064820152fd5b34610015575f6003193601126100155760206001600160a01b03600c5416604051908152f35b34610015575f6003193601126100155760206001600160a01b0360105416604051908152f35b34610015576020600319360112610015576001600160a01b03612723612cdc565b61272b612f47565b16801561279e57806001600160a01b0319600e541617600e557fbc873d134a6a2180535a76a95274afd8ae5a0d5d52ee41f1b026a478fe6b4d0d606060405160208152600760208201527f6275794261636b000000000000000000000000000000000000000000000000006040820152a2005b608460405162461bcd60e51b815260206004820152602160248201527f6e657720627579206261636b20696d706c206973207a65726f206164647265736044820152607360f81b6064820152fd5b34610015575f6003193601126100155760206001600160a01b03600d5416604051908152f35b34610015575f6003193601126100155760206001600160a01b0360095416604051908152f35b346100155760a060031936011261001557612851612cdc565b612859612cf2565b906044356001600160a01b03811680910361001557606435906001600160a01b03821680920361001557608435926001600160a01b038416809403610015577ff0c57e16840df040f15088dc2f81fe391c3923bec73e23a9662efc9c229c6a00549460ff8660401c16159567ffffffffffffffff811680159081612afa575b6001149081612af0575b159081612ae7575b50612abf576001600160a01b0392818860017fffffffffffffffffffffffffffffffffffffffffffffffff0000000000000000879516177ff0c57e16840df040f15088dc2f81fe391c3923bec73e23a9662efc9c229c6a0055612a6a575b50612951612fa6565b612959612fa6565b61296233612e8c565b61296a612f47565b61297381612e8c565b166001600160a01b03196001541617600155166001600160a01b031960025416176002556001600160a01b031960035416176003556001600160a01b031960045416176004556001600160a01b0319600554161760055563013525055f556129d757005b7fffffffffffffffffffffffffffffffffffffffffffffff00ffffffffffffffff7ff0c57e16840df040f15088dc2f81fe391c3923bec73e23a9662efc9c229c6a0054167ff0c57e16840df040f15088dc2f81fe391c3923bec73e23a9662efc9c229c6a00557fc7f505b2f371ae2175ee4913f4499e1f2633a7b5936321eed1cdaeb6115181d2602060405160018152a1005b7fffffffffffffffffffffffffffffffffffffffffffffff0000000000000000001668010000000000000001177ff0c57e16840df040f15088dc2f81fe391c3923bec73e23a9662efc9c229c6a005588612948565b7ff92ee8a9000000000000000000000000000000000000000000000000000000005f5260045ffd5b905015886128ea565b303b1591506128e2565b8891506128d8565b34610015575f6003193601126100155760206001600160a01b03600e5416604051908152f35b34610015576020600319360112610015576001600160a01b03612b49612cdc565b612b51612f47565b168015612bc457806001600160a01b031960145416176014557fbc873d134a6a2180535a76a95274afd8ae5a0d5d52ee41f1b026a478fe6b4d0d606060405160208152600a60208201527f6f7264657220626f6f6b000000000000000000000000000000000000000000006040820152a2005b608460405162461bcd60e51b815260206004820152602360248201527f6e6577206f7264657220626f6f6b20696d706c206973207a65726f206164647260448201526265737360e81b6064820152fd5b34610015576020600319360112610015576001600160a01b03612c35612cdc565b612c3d612f47565b168015612c59576001600160a01b031960025416176002555f80f35b606460405162461bcd60e51b815260206004820152601460248201527f7269736b2061646472657373206973207a65726f0000000000000000000000006044820152fd5b34610015576020600319360112610015576001600160a01b03612cbe612cdc565b612cc6612f47565b166001600160a01b031960035416176003555f80f35b600435906001600160a01b038216820361001557565b602435906001600160a01b038216820361001557565b90601f601f19910116810190811067ffffffffffffffff82111761252157604052565b90601f19601f602080948051918291828752018686015e5f8582860101520116010190565b6001600160a01b03612d779493816060941683521660208201528160408201520190612d2b565b90565b601754811015612d925760175f5260205f2001905f90565b634e487b7160e01b5f52603260045260245ffd5b90600182811c92168015612dd4575b6020831014612dc057565b634e487b7160e01b5f52602260045260245ffd5b91607f1691612db5565b67ffffffffffffffff81116125215760051b60200190565b5f9291815491612e0583612da6565b8083529260018116908115612e5a5750600114612e2157505050565b5f9081526020812093945091925b838310612e40575060209250010190565b600181602092949394548385870101520191019190612e2f565b9050602094955060ff1991509291921683830152151560051b010190565b8051821015612d925760209160051b010190565b6001600160a01b03168015612f1b576001600160a01b037f9016d09d72d40fdae2fd8ceac6b6234c7706214fd39c1cd1e609a0528c19930054826001600160a01b03198216177f9016d09d72d40fdae2fd8ceac6b6234c7706214fd39c1cd1e609a0528c19930055167f8be0079c531659141344cd1fd0a4f28419497f9722a3daafe3b4186f6b6457e05f80a3565b7f1e4fbdf7000000000000000000000000000000000000000000000000000000005f525f60045260245ffd5b6001600160a01b037f9016d09d72d40fdae2fd8ceac6b6234c7706214fd39c1cd1e609a0528c19930054163303612f7a57565b7f118cdaa7000000000000000000000000000000000000000000000000000000005f523360045260245ffd5b60ff7ff0c57e16840df040f15088dc2f81fe391c3923bec73e23a9662efc9c229c6a005460401c1615612fd557565b7fd7e6bcf8000000000000000000000000000000000000000000000000000000005f5260045ffdfe60a0604052610cf6803803806100148161026b565b92833981016060828203126102675761002c82610290565b61003860208401610290565b604084015190936001600160401b03821161026757019180601f8401121561026757825161006d610068826102a4565b61026b565b9381855260208501926020838301011161026757815f926020809301855e85010152813b15610246577f360894a13ba1a3210667c828492db98dca3e2076cc3735a920a3ca505d382bbc80546001600160a01b0319166001600160a01b0384169081179091557fbc7cd75a20ee27fd9adebab32041f755214dbc6bffa90cc0225b39da2e5c2d3b5f80a282511561022e575f809161012d945190845af43d15610226573d9161011e610068846102a4565b9283523d5f602085013e6102bf565b505b604051906105438083016001600160401b0381118482101761021257602092849261079384396001600160a01b031681520301905ff080156102075760018060a01b0316806080525f516020610cd65f395f51905f52547f7e644d79422f17c01e4894b5f4f588d331ebfa28653d42ae832dc59e38c9798f6040805160018060a01b0384168152846020820152a181156101f4576001600160a01b031916175f516020610cd65f395f51905f5255604051610475908161031e82396080518160070152f35b633173bdd160e11b5f525f60045260245ffd5b6040513d5f823e3d90fd5b634e487b7160e01b5f52604160045260245ffd5b6060916102bf565b505050341561012f5763b398979f60e01b5f5260045ffd5b50634c9c8ce360e01b5f9081526001600160a01b0391909116600452602490fd5b5f80fd5b6040519190601f01601f191682016001600160401b0381118382101761021257604052565b51906001600160a01b038216820361026757565b6001600160401b03811161021257601f01601f191660200190565b906102e357508051156102d457602081519101fd5b63d6bda27560e01b5f5260045ffd5b81511580610314575b6102f4575090565b639996b31560e01b5f9081526001600160a01b0391909116600452602490fd5b50803b156102ec56fe6080604052337f000000000000000000000000000000000000000000000000000000000000000073ffffffffffffffffffffffffffffffffffffffff16036100bd575f357fffffffff00000000000000000000000000000000000000000000000000000000167f4f1ef28600000000000000000000000000000000000000000000000000000000146100b3577fd2b576ec000000000000000000000000000000000000000000000000000000005f5260045ffd5b6100bb610185565b005b5f8073ffffffffffffffffffffffffffffffffffffffff7f360894a13ba1a3210667c828492db98dca3e2076cc3735a920a3ca505d382bbc5416368280378136915af43d5f803e1561010d573d5ff35b3d5ffd5b7f4e487b71000000000000000000000000000000000000000000000000000000005f52604160045260245ffd5b90601f19601f604051930116820182811067ffffffffffffffff82111761016457604052565b610111565b67ffffffffffffffff811161016457601f01601f191660200190565b366004116102385760407ffffffffffffffffffffffffffffffffffffffffffffffffffffffffffffffffc3601126102385760043573ffffffffffffffffffffffffffffffffffffffff8116809103610238576024359067ffffffffffffffff821161023857366023830112156102385781600401359061020d61020883610169565b61013e565b918083523660248286010111610238576020815f9260246102369701838701378401015261023c565b565b5f80fd5b90813b1561032b5773ffffffffffffffffffffffffffffffffffffffff8216807fffffffffffffffffffffffff00000000000000000000000000000000000000007f360894a13ba1a3210667c828492db98dca3e2076cc3735a920a3ca505d382bbc5416177f360894a13ba1a3210667c828492db98dca3e2076cc3735a920a3ca505d382bbc557fbc7cd75a20ee27fd9adebab32041f755214dbc6bffa90cc0225b39da2e5c2d3b5f80a28051156102fa576102f79161036d565b50565b50503461030357565b7fb398979f000000000000000000000000000000000000000000000000000000005f5260045ffd5b73ffffffffffffffffffffffffffffffffffffffff827f4c9c8ce3000000000000000000000000000000000000000000000000000000005f521660045260245ffd5b5f8061039f93602081519101845af43d156103a2573d9161039061020884610169565b9283523d5f602085013e6103a6565b90565b6060915b906103e357508051156103bb57602081519101fd5b7fd6bda275000000000000000000000000000000000000000000000000000000005f5260045ffd5b81511580610436575b6103f4575090565b73ffffffffffffffffffffffffffffffffffffffff907f9996b315000000000000000000000000000000000000000000000000000000005f521660045260245ffd5b50803b156103ec56fea264697066735822122055f713f70cea6fe114bfc1e835bdb4da5b0ece4bc985dd1765a476f9141a747d64736f6c634300081c003360803460b857601f61054338819003918201601f19168301916001600160401b0383118484101760bc5780849260209460405283398101031260b857516001600160a01b0381169081900360b857801560a5575f80546001600160a01b031981168317825560405192916001600160a01b03909116907f8be0079c531659141344cd1fd0a4f28419497f9722a3daafe3b4186f6b6457e09080a361047290816100d18239f35b631e4fbdf760e01b5f525f60045260245ffd5b5f80fd5b634e487b7160e01b5f52604160045260245ffdfe60806040526004361015610011575f80fd5b5f5f3560e01c8063715018a61461032c5780638da5cb5b146102fa5780639623609d1461018d578063ad3cb1cc146101285763f2fde38b14610051575f80fd5b346101255760206003193601126101255760043573ffffffffffffffffffffffffffffffffffffffff81168091036101235761008b6103f0565b80156100f75773ffffffffffffffffffffffffffffffffffffffff8254827fffffffffffffffffffffffff00000000000000000000000000000000000000008216178455167f8be0079c531659141344cd1fd0a4f28419497f9722a3daafe3b4186f6b6457e08380a380f35b6024827f1e4fbdf700000000000000000000000000000000000000000000000000000000815280600452fd5b505b80fd5b50346101255780600319360112610125575061018960405161014b6040826103a8565b600581527f352e302e3000000000000000000000000000000000000000000000000000000060208201526040519182916020835260208301906103cb565b0390f35b5060606003193601126102c95760043573ffffffffffffffffffffffffffffffffffffffff81168091036102c95760243573ffffffffffffffffffffffffffffffffffffffff81168091036102c95760443567ffffffffffffffff81116102c957366023820112156102c957806004013567ffffffffffffffff81116102cd5760405191610225601f8301601f1916602001846103a8565b81835236602483830101116102c957815f92602460209301838601378301015261024d6103f0565b823b156102c95761029c925f926040518095819482937f4f1ef28600000000000000000000000000000000000000000000000000000000845260048401526040602484015260448301906103cb565b039134905af180156102be576102b0575080f35b6102bc91505f906103a8565b005b6040513d5f823e3d90fd5b5f80fd5b7f4e487b71000000000000000000000000000000000000000000000000000000005f52604160045260245ffd5b346102c9575f6003193601126102c957602073ffffffffffffffffffffffffffffffffffffffff5f5416604051908152f35b346102c9575f6003193601126102c9576103446103f0565b5f73ffffffffffffffffffffffffffffffffffffffff81547fffffffffffffffffffffffff000000000000000000000000000000000000000081168355167f8be0079c531659141344cd1fd0a4f28419497f9722a3daafe3b4186f6b6457e08280a3005b90601f601f19910116810190811067ffffffffffffffff8211176102cd57604052565b90601f19601f602080948051918291828752018686015e5f8582860101520116010190565b73ffffffffffffffffffffffffffffffffffffffff5f5416330361041057565b7f118cdaa7000000000000000000000000000000000000000000000000000000005f523360045260245ffdfea2646970667358221220c7b94e4cfb2fe38fd06a253ad82aa077b593a44f95e009b27c517f31e305e1fb64736f6c634300081c0033b53127684a568b3173ae13b9f8a6016e243e63b6e8ee1178d6a717850b5d6103a2646970667358221220a12e3ee1148cb56f393e428c5ef1d8af61b263e922c437d53cf968b0dc539fae64736f6c634300081c0033",
  "linkReferences": {},
  "deployedLinkReferences": {}
}