{
  "_format": "hh-sol-artifact-1",
  "contractName": "TradeStation",
  "sourceName": "contracts/TradeStation.sol",
  "abi": [
    {
      "inputs": [],
      "name": "InvalidInitialization",
      "type": "error"
    },
    {
      "inputs": [],
      "name": "NotInitializing",
      "type": "error"
    },
    {
      "inputs": [
        {
          "internalType": "address",
          "name": "owner",
          "type": "address"
        }
      ],
      "name": "OwnableInvalidOwner",
      "type": "error"
    },
    {
      "inputs": [
        {
          "internalType": "address",
          "name": "account",
          "type": "address"
        }
      ],
      "name": "OwnableUnauthorizedAccount",
      "type": "error"
    },
    {
      "anonymous": false,
      "inputs": [
        {
          "indexed": false,
          "internalType": "address",
          "name": "token",
          "type": "address"
        },
        {
          "indexed": false,
          "internalType": "address",
          "name": "holder",
          "type": "address"
        },
        {
          "indexed": false,
          "internalType": "string",
          "name": "name",
          "type": "string"
        },
        {
          "indexed": false,
          "internalType": "enum ICommon.Direct",
          "name": "direct",
          "type": "uint8"
        },
        {
          "indexed": false,
          "internalType": "uint256",
          "name": "value",
          "type": "uint256"
        },
        {
          "indexed": false,
          "internalType": "uint256",
          "name": "size",
          "type": "uint256"
        },
        {
          "indexed": false,
          "internalType": "uint256",
          "name": "margin",
          "type": "uint256"
        },
        {
          "indexed": false,
          "internalType": "uint256",
          "name": "freeze",
          "type": "uint256"
        }
      ],
      "name": "AccountPosition",
      "type": "event"
    },
    {
      "anonymous": false,
      "inputs": [
        {
          "indexed": false,
          "internalType": "address",
          "name": "token",
          "type": "address"
        },
        {
          "indexed": false,
          "internalType": "address",
          "name": "taker",
          "type": "address"
        },
        {
          "indexed": false,
          "internalType": "uint256",
          "name": "amount",
          "type": "uint256"
        },
        {
          "indexed": false,
          "internalType": "uint256",
          "name": "availableAmount",
          "type": "uint256"
        },
        {
          "indexed": false,
          "internalType": "uint256",
          "name": "marginAmount",
          "type": "uint256"
        },
        {
          "indexed": false,
          "internalType": "uint256",
          "name": "locked",
          "type": "uint256"
        },
        {
          "indexed": false,
          "internalType": "uint256",
          "name": "stage",
          "type": "uint256"
        },
        {
          "indexed": false,
          "internalType": "uint256",
          "name": "dif",
          "type": "uint256"
        }
      ],
      "name": "BalanceOfTaker",
      "type": "event"
    },
    {
      "anonymous": false,
      "inputs": [
        {
          "indexed": false,
          "internalType": "string",
          "name": "name",
          "type": "string"
        },
        {
          "indexed": true,
          "internalType": "address",
          "name": "taker",
          "type": "address"
        },
        {
          "indexed": true,
          "internalType": "address",
          "name": "token",
          "type": "address"
        },
        {
          "indexed": false,
          "internalType": "uint256",
          "name": "orderID",
          "type": "uint256"
        },
        {
          "indexed": false,
          "internalType": "enum ICommon.Direct",
          "name": "direct",
          "type": "uint8"
        },
        {
          "indexed": false,
          "internalType": "enum IPerpetual.OrderState",
          "name": "state",
          "type": "uint8"
        },
        {
          "indexed": false,
          "internalType": "enum ICommon.Offset",
          "name": "offset",
          "type": "uint8"
        },
        {
          "indexed": false,
          "internalType": "uint256",
          "name": "amount",
          "type": "uint256"
        },
        {
          "indexed": false,
          "internalType": "uint256",
          "name": "targetPrice",
          "type": "uint256"
        },
        {
          "indexed": false,
          "internalType": "uint256",
          "name": "margin",
          "type": "uint256"
        },
        {
          "indexed": false,
          "internalType": "uint256",
          "name": "rewardGas",
          "type": "uint256"
        },
        {
          "indexed": false,
          "internalType": "uint256",
          "name": "tradingFee",
          "type": "uint256"
        },
        {
          "indexed": false,
          "internalType": "uint256",
          "name": "startTime",
          "type": "uint256"
        },
        {
          "indexed": false,
          "internalType": "uint256",
          "name": "goodTill",
          "type": "uint256"
        }
      ],
      "name": "CreateLimitedOrder",
      "type": "event"
    },
    {
      "anonymous": false,
      "inputs": [
        {
          "indexed": false,
          "internalType": "uint256",
          "name": "limitOrderID",
          "type": "uint256"
        },
        {
          "indexed": false,
          "internalType": "uint256",
          "name": "openLimitPrice",
          "type": "uint256"
        },
        {
          "indexed": false,
          "internalType": "uint256",
          "name": "gainTriggerPrice",
          "type": "uint256"
        },
        {
          "indexed": false,
          "internalType": "uint256",
          "name": "gainLimitPrice",
          "type": "uint256"
        },
        {
          "indexed": false,
          "internalType": "uint256",
          "name": "lossTriggerPrice",
          "type": "uint256"
        },
        {
          "indexed": false,
          "internalType": "uint256",
          "name": "lossLimitPrice",
          "type": "uint256"
        }
      ],
      "name": "CreateTriggerCondition",
      "type": "event"
    },
    {
      "anonymous": false,
      "inputs": [
        {
          "indexed": false,
          "internalType": "uint256",
          "name": "code",
          "type": "uint256"
        },
        {
          "indexed": false,
          "internalType": "uint256",
          "name": "orderID",
          "type": "uint256"
        },
        {
          "indexed": false,
          "internalType": "string",
          "name": "message",
          "type": "string"
        }
      ],
      "name": "ErrorInfo",
      "type": "event"
    },
    {
      "anonymous": false,
      "inputs": [
        {
          "indexed": false,
          "internalType": "uint256",
          "name": "code",
          "type": "uint256"
        },
        {
          "indexed": false,
          "internalType": "uint256",
          "name": "orderID",
          "type": "uint256"
        },
        {
          "indexed": false,
          "internalType": "bytes",
          "name": "message",
          "type": "bytes"
        }
      ],
      "name": "ExceptErrorInfo",
      "type": "event"
    },
    {
      "anonymous": false,
      "inputs": [
        {
          "indexed": false,
          "internalType": "uint64",
          "name": "version",
          "type": "uint64"
        }
      ],
      "name": "Initialized",
      "type": "event"
    },
    {
      "anonymous": false,
      "inputs": [
        {
          "indexed": false,
          "internalType": "string",
          "name": "name",
          "type": "string"
        },
        {
          "indexed": true,
          "internalType": "address",
          "name": "taker",
          "type": "address"
        },
        {
          "indexed": true,
          "internalType": "address",
          "name": "token",
          "type": "address"
        },
        {
          "indexed": false,
          "internalType": "uint256",
          "name": "orderID",
          "type": "uint256"
        },
        {
          "indexed": false,
          "internalType": "enum ICommon.Direct",
          "name": "orderType",
          "type": "uint8"
        },
        {
          "indexed": false,
          "internalType": "enum IPerpetual.OrderState",
          "name": "state",
          "type": "uint8"
        },
        {
          "indexed": false,
          "internalType": "enum ICommon.Offset",
          "name": "offset",
          "type": "uint8"
        },
        {
          "indexed": false,
          "internalType": "uint256",
          "name": "amount",
          "type": "uint256"
        },
        {
          "indexed": false,
          "internalType": "uint256",
          "name": "targetPrice",
          "type": "uint256"
        },
        {
          "indexed": false,
          "internalType": "uint256",
          "name": "margin",
          "type": "uint256"
        },
        {
          "indexed": false,
          "internalType": "uint256",
          "name": "rewardGas",
          "type": "uint256"
        },
        {
          "indexed": false,
          "internalType": "uint256",
          "name": "tradingFee",
          "type": "uint256"
        },
        {
          "indexed": false,
          "internalType": "uint256",
          "name": "startTime",
          "type": "uint256"
        },
        {
          "indexed": false,
          "internalType": "uint256",
          "name": "goodTill",
          "type": "uint256"
        }
      ],
      "name": "LimitedOrderHistory",
      "type": "event"
    },
    {
      "anonymous": false,
      "inputs": [
        {
          "indexed": false,
          "internalType": "address",
          "name": "token",
          "type": "address"
        },
        {
          "indexed": false,
          "internalType": "address",
          "name": "taker",
          "type": "address"
        }
      ],
      "name": "LiquidateTaker",
      "type": "event"
    },
    {
      "anonymous": false,
      "inputs": [
        {
          "indexed": true,
          "internalType": "address",
          "name": "taker",
          "type": "address"
        },
        {
          "indexed": false,
          "internalType": "string",
          "name": "name",
          "type": "string"
        },
        {
          "indexed": false,
          "internalType": "address",
          "name": "token",
          "type": "address"
        },
        {
          "indexed": false,
          "internalType": "uint256",
          "name": "orderID",
          "type": "uint256"
        },
        {
          "indexed": false,
          "internalType": "enum ICommon.Direct",
          "name": "direction",
          "type": "uint8"
        },
        {
          "indexed": false,
          "internalType": "enum IPerpetual.OrderType",
          "name": "orderType",
          "type": "uint8"
        },
        {
          "indexed": false,
          "internalType": "uint256",
          "name": "amount",
          "type": "uint256"
        },
        {
          "indexed": false,
          "internalType": "uint256",
          "name": "costPrice",
          "type": "uint256"
        },
        {
          "indexed": false,
          "internalType": "uint256",
          "name": "price",
          "type": "uint256"
        },
        {
          "indexed": false,
          "internalType": "uint256",
          "name": "tradingFee",
          "type": "uint256"
        },
        {
          "indexed": false,
          "internalType": "uint256",
          "name": "leverage",
          "type": "uint256"
        },
        {
          "indexed": false,
          "internalType": "uint256",
          "name": "marginAmount",
          "type": "uint256"
        },
        {
          "indexed": false,
          "internalType": "uint256",
          "name": "limitOrderId",
          "type": "uint256"
        },
        {
          "indexed": false,
          "internalType": "uint256",
          "name": "timestamp",
          "type": "uint256"
        }
      ],
      "name": "OrderHistory",
      "type": "event"
    },
    {
      "anonymous": false,
      "inputs": [
        {
          "indexed": true,
          "internalType": "address",
          "name": "previousOwner",
          "type": "address"
        },
        {
          "indexed": true,
          "internalType": "address",
          "name": "newOwner",
          "type": "address"
        }
      ],
      "name": "OwnershipTransferred",
      "type": "event"
    },
    {
      "anonymous": false,
      "inputs": [
        {
          "indexed": false,
          "internalType": "address",
          "name": "token",
          "type": "address"
        },
        {
          "indexed": false,
          "internalType": "uint256",
          "name": "orderID",
          "type": "uint256"
        },
        {
          "indexed": false,
          "internalType": "uint256",
          "name": "dealID",
          "type": "uint256"
        },
        {
          "indexed": false,
          "internalType": "enum IPerpetual.TradeType",
          "name": "tradeType",
          "type": "uint8"
        },
        {
          "indexed": false,
          "internalType": "uint256",
          "name": "amount",
          "type": "uint256"
        },
        {
          "indexed": false,
          "internalType": "uint256",
          "name": "price",
          "type": "uint256"
        },
        {
          "indexed": false,
          "internalType": "uint256",
          "name": "tradingFee",
          "type": "uint256"
        },
        {
          "indexed": false,
          "internalType": "uint256",
          "name": "leverage",
          "type": "uint256"
        },
        {
          "indexed": false,
          "internalType": "uint256",
          "name": "marginAmount",
          "type": "uint256"
        },
        {
          "indexed": false,
          "internalType": "uint256",
          "name": "profit",
          "type": "uint256"
        },
        {
          "indexed": false,
          "internalType": "uint256",
          "name": "loss",
          "type": "uint256"
        },
        {
          "indexed": false,
          "internalType": "uint256",
          "name": "timestamp",
          "type": "uint256"
        }
      ],
      "name": "TradeHistory",
      "type": "event"
    },
    {
      "anonymous": false,
      "inputs": [
        {
          "indexed": true,
          "internalType": "address",
          "name": "token",
          "type": "address"
        },
        {
          "indexed": true,
          "internalType": "address",
          "name": "sender",
          "type": "address"
        },
        {
          "indexed": true,
          "internalType": "address",
          "name": "received",
          "type": "address"
        },
        {
          "indexed": false,
          "internalType": "enum ICommon.TransactionType",
          "name": "transactionType",
          "type": "uint8"
        },
        {
          "indexed": false,
          "internalType": "uint256",
          "name": "amount",
          "type": "uint256"
        },
        {
          "indexed": false,
          "internalType": "uint256",
          "name": "timestamp",
          "type": "uint256"
        }
      ],
      "name": "TransactionHistory",
      "type": "event"
    },
    {
      "anonymous": false,
      "inputs": [
        {
          "indexed": false,
          "internalType": "address",
          "name": "token",
          "type": "address"
        },
        {
          "indexed": false,
          "internalType": "address",
          "name": "sender",
          "type": "address"
        },
        {
          "indexed": false,
          "internalType": "string",
          "name": "name",
          "type": "string"
        },
        {
          "indexed": false,
          "internalType": "uint256",
          "name": "beforeLeverage",
          "type": "uint256"
        },
        {
          "indexed": false,
          "internalType": "uint256",
          "name": "afterLeverage",
          "type": "uint256"
        }
      ],
      "name": "setLeverage",
      "type": "event"
    },
    {
      "stateMutability": "nonpayable",
      "type": "fallback"
    },
    {
      "inputs": [
        {
          "internalType": "address",
          "name": "_token",
          "type": "address"
        },
        {
          "internalType": "address",
          "name": "_taker",
          "type": "address"
        },
        {
          "internalType": "uint256",
          "name": "_deposit",
          "type": "uint256"
        },
        {
          "internalType": "string[]",
          "name": "_pairs",
          "type": "string[]"
        },
        {
          "internalType": "uint256[]",
          "name": "_prices",
          "type": "uint256[]"
        }
      ],
      "name": "clearingTaker",
      "outputs": [
        {
          "internalType": "uint256",
          "name": "remainingDeposit",
          "type": "uint256"
        }
      ],
      "stateMutability": "nonpayable",
      "type": "function"
    },
    {
      "inputs": [
        {
          "internalType": "address",
          "name": "_token",
          "type": "address"
        },
        {
          "internalType": "address",
          "name": "_taker",
          "type": "address"
        },
        {
          "internalType": "string",
          "name": "_name",
          "type": "string"
        },
        {
          "internalType": "uint256",
          "name": "_amount",
          "type": "uint256"
        },
        {
          "internalType": "uint256",
          "name": "_price",
          "type": "uint256"
        },
        {
          "internalType": "enum ICommon.Direct",
          "name": "_type",
          "type": "uint8"
        },
        {
          "internalType": "uint256",
          "name": "_limitID",
          "type": "uint256"
        }
      ],
      "name": "closeOrder",
      "outputs": [],
      "stateMutability": "nonpayable",
      "type": "function"
    },
    {
      "inputs": [
        {
          "internalType": "address",
          "name": "_priPool",
          "type": "address"
        },
        {
          "internalType": "address",
          "name": "_perpetual",
          "type": "address"
        }
      ],
      "name": "initialize",
      "outputs": [],
      "stateMutability": "nonpayable",
      "type": "function"
    },
    {
      "inputs": [
        {
          "internalType": "address",
          "name": "_token",
          "type": "address"
        },
        {
          "internalType": "address",
          "name": "_taker",
          "type": "address"
        },
        {
          "internalType": "string",
          "name": "_name",
          "type": "string"
        },
        {
          "internalType": "uint256",
          "name": "_amount",
          "type": "uint256"
        },
        {
          "internalType": "uint256",
          "name": "_price",
          "type": "uint256"
        },
        {
          "internalType": "enum ICommon.Direct",
          "name": "_type",
          "type": "uint8"
        },
        {
          "internalType": "uint256",
          "name": "_goodTill",
          "type": "uint256"
        },
        {
          "internalType": "uint256",
          "name": "_rewardsGas",
          "type": "uint256"
        }
      ],
      "name": "makeOpenLimitOrder",
      "outputs": [],
      "stateMutability": "nonpayable",
      "type": "function"
    },
    {
      "inputs": [
        {
          "internalType": "string",
          "name": "_name",
          "type": "string"
        },
        {
          "internalType": "address",
          "name": "_token",
          "type": "address"
        },
        {
          "internalType": "uint256",
          "name": "_amount",
          "type": "uint256"
        },
        {
          "internalType": "enum ICommon.Offset",
          "name": "_offset",
          "type": "uint8"
        },
        {
          "internalType": "enum ICommon.Direct",
          "name": "_direct",
          "type": "uint8"
        },
        {
          "internalType": "uint256",
          "name": "_param1",
          "type": "uint256"
        },
        {
          "internalType": "uint256",
          "name": "_param2",
          "type": "uint256"
        },
        {
          "internalType": "uint256",
          "name": "_param3",
          "type": "uint256"
        },
        {
          "internalType": "uint256",
          "name": "_param4",
          "type": "uint256"
        },
        {
          "internalType": "uint256",
          "name": "_goodTill",
          "type": "uint256"
        },
        {
          "internalType": "address",
          "name": "_taker",
          "type": "address"
        }
      ],
      "name": "ocoTrade",
      "outputs": [],
      "stateMutability": "payable",
      "type": "function"
    },
    {
      "inputs": [
        {
          "internalType": "address",
          "name": "_token",
          "type": "address"
        },
        {
          "internalType": "address",
          "name": "_taker",
          "type": "address"
        },
        {
          "internalType": "string",
          "name": "_name",
          "type": "string"
        },
        {
          "internalType": "uint256",
          "name": "_amount",
          "type": "uint256"
        },
        {
          "internalType": "uint256",
          "name": "_price",
          "type": "uint256"
        },
        {
          "internalType": "enum ICommon.Direct",
          "name": "_type",
          "type": "uint8"
        },
        {
          "internalType": "uint256",
          "name": "_limitOrderID",
          "type": "uint256"
        },
        {
          "internalType": "uint256",
          "name": "_freezeAmount",
          "type": "uint256"
        }
      ],
      "name": "openOrder",
      "outputs": [],
      "stateMutability": "nonpayable",
      "type": "function"
    },
    {
      "inputs": [],
      "name": "owner",
      "outputs": [
        {
          "internalType": "address",
          "name": "",
          "type": "address"
        }
      ],
      "stateMutability": "view",
      "type": "function"
    },
    {
      "inputs": [],
      "name": "renounceOwnership",
      "outputs": [],
      "stateMutability": "nonpayable",
      "type": "function"
    },
    {
      "inputs": [
        {
          "internalType": "address",
          "name": "_orderBook",
          "type": "address"
        },
        {
          "internalType": "address",
          "name": "_agent",
          "type": "address"
        },
        {
          "internalType": "address",
          "name": "_poolAgent",
          "type": "address"
        },
        {
          "internalType": "address",
          "name": "_keeper",
          "type": "address"
        }
      ],
      "name": "setKeepers",
      "outputs": [],
      "stateMutability": "nonpayable",
      "type": "function"
    },
    {
      "inputs": [
        {
          "internalType": "string",
          "name": "_name",
          "type": "string"
        },
        {
          "internalType": "address",
          "name": "_token",
          "type": "address"
        },
        {
          "internalType": "uint256",
          "name": "_amount",
          "type": "uint256"
        },
        {
          "internalType": "uint256",
          "name": "_price",
          "type": "uint256"
        },
        {
          "internalType": "uint256",
          "name": "_orderType",
          "type": "uint256"
        },
        {
          "internalType": "enum ICommon.Offset",
          "name": "_offset",
          "type": "uint8"
        },
        {
          "internalType": "enum ICommon.Direct",
          "name": "_type",
          "type": "uint8"
        },
        {
          "internalType": "uint256",
          "name": "_goodTill",
          "type": "uint256"
        },
        {
          "internalType": "address",
          "name": "_taker",
          "type": "address"
        },
        {
          "internalType": "uint256",
          "name": "_rewardGas",
          "type": "uint256"
        }
      ],
      "name": "trade",
      "outputs": [],
      "stateMutability": "payable",
      "type": "function"
    },
    {
      "inputs": [
        {
          "internalType": "address",
          "name": "newOwner",
          "type": "address"
        }
      ],
      "name": "transferOwnership",
      "outputs": [],
      "stateMutability": "nonpayable",
      "type": "function"
    },
    {
      "inputs": [
        {
          "internalType": "uint256[]",
          "name": "_orderID",
          "type": "uint256[]"
        },
        {
          "internalType": "string[]",
          "name": "_symbols",
          "type": "string[]"
        },
        {
          "internalType": "uint256[]",
          "name": "_prices",
          "type": "uint256[]"
        }
      ],
      "name": "triggerOrders",
      "outputs": [],
      "stateMutability": "nonpayable",
      "type": "function"
    }
  ],
  "bytecode": "0x60808060405234601557613db6908161001a8239f35b5f80fdfe60806040526004361015610019575b3461001557005b5f80fd5b5f5f3560e01c8063068c9c261461199257806307e7148514611733578063485cc9551461147b5780636332d72614611225578063715018a61461117f57806381a4f173146110665780638da5cb5b14611020578063934cb53114610de0578063bcef60d714610bae578063c59b4d78146109d1578063f2fde38b146109a75763fb13637b146100a8575061000e565b6101406003193601126109a45760043567ffffffffffffffff8111610370576100d5903690600401611ae5565b6100dd611a43565b90600360a435101561034c57600360c435101561034c5761010435906001600160a01b03821682036109a257338452600560205261012160ff604086205416611c93565b61012b828461256d565b61013660a435611d77565b60a4356001036104ca576084356103db57338452600560205261015f60ff604086205416611c93565b610170606435604435838587611fe7565b9061017b8385612241565b9060208201918251906060850191825111610397578051936101a36040870195865190611cde565b82526101b28151845190611cde565b90526101d860408201918251926101cf6020890194855190611cff565b905287896122fa565b6001600160a01b0360025416803b1561039357610246604051947fcc5bc7410000000000000000000000000000000000000000000000000000000086526001600160a01b038a1660048701526001600160a01b03891660248701526101c060448701526101c4860190611d52565b9161025260c435611d77565b60c43560648601528985809460e0839a84988496600160848701525f1960a4870152825160c48701525160e48601528b5161010486015251610124850152608081015161014485015260a081015161016485015260c081015161018485015201516101a483015203925af190811561037457839161035b575b50506001600160a01b0360015416905190803b1561034c57604051623bb5d360e61b81526001600160a01b03808716600483015285166024820152604481019290925282908290818381606481015b03925af1801561035057610337575b5050610334916125e0565b80f35b8161034191611aa6565b61034c57825f610329565b8280fd5b6040513d84823e3d90fd5b8161036591611aa6565b61037057815f6102cb565b5080fd5b6040513d85823e3d90fd5b634e487b7160e01b5f52602160045260245ffd5b8880fd5b606460405162461bcd60e51b815260206004820152601160248201527f6f70656e20696e73756666696369656e740000000000000000000000000000006044820152fd5b9133845260056020526103f460ff604086205416611c93565b610405606435604435858585611fe7565b61040f8383612241565b93602085019182519260608201938451116104865761033496610481948261043d61045a9451835190611cde565b905261045160608301918251905190611cff565b905286866122fa565b6040810151916101243592602060e43593015191606435906044359060c435908a8a61239f565b6125e0565b606460405162461bcd60e51b815260206004820152601760248201527f6f70656e206c696d697420696e73756666696369656e740000000000000000006044820152fd5b6040516104d681611a59565b8481528460208201528460408201526060808201528460808201528460a08201528460c08201528460e08201526001600160a01b03600254169061051b60c435611d77565b60ff60c43581165f19011161098e57608060405180937f3a0204a90000000000000000000000000000000000000000000000000000000082526001600160a01b03881660048301526001600160a01b038716602483015282604483015281806105876084820189611d52565b60ff5f198160c435160116606483015203915afa908115610983578687918893610938575b6105c3945083604082015282602082015252611cde565b604435116108f45783906084356108195761064160a09133845260056020526105f260ff604086205416611c93565b6001600160a01b0360035416906040519485809481936307e7148560e01b83526001600160a01b038b1660048401526001600160a01b038a16602484015260e0604484015260e4830190611d52565b6044356064830152606435608483015261065c60c435611d77565b60c43560a48301525f1960c483015203925af190811561080e5784916107d1575b506106888284612241565b90602082018051926106ec6106a36020850195865190611cff565b886106b46060870192835190611cff565b946106ca60406080890151980197885190611cff565b9586908181106107c9576106df929350611cde565b90525b8251905190611cff565b91808310610785578794610704869261072295611cde565b835260408301805191519091818111610773575050525b84866122fa565b6001600160a01b0360015416905190803b1561034c57604051623bb5d360e61b81526001600160a01b038087166004830152851660248201526044810192909252829082908183816064810161031a565b61077e929350611cde565b905261071b565b606460405162461bcd60e51b815260206004820152601260248201527f73686f756c64206265206465746f6e61746500000000000000000000000000006044820152fd5b5050526106e2565b905060a03d60a011610807575b6107e88183611aa6565b810160a082820312610803576107fd91611d0c565b5f61067d565b8480fd5b503d6107de565b6040513d86823e3d90fd5b6001600160a01b0360025416803b1561034c57610875918391604051808095819463308b99cb60e21b83526001600160a01b038b1660048401526001600160a01b038a1660248401526101a060448401526101a4830190611d52565b61088060c435611d77565b60c435606483015261089360a435611d77565b60a435608483015260443560a483015260643560c48301528560e4830152856101048301528561012483015260e4356101448301528561016483015261012435610184830152039134905af1801561035057610337575050610334916125e0565b606460405162461bcd60e51b815260206004820152601660248201527f636c6f736520616d6f756e7420746f6f206c61726765000000000000000000006044820152fd5b925050506080823d60801161097b575b8161095560809383611aa6565b8101031261097757816105c392519060606020820151910151919091926105ac565b8580fd5b3d9150610948565b6040513d88823e3d90fd5b602486634e487b7160e01b81526011600452fd5b835b80fd5b50346109a45760206003193601126109a4576103346109c4611a2d565b6109cc61250e565b611f1f565b50346109a45760a06003193601126109a4576109eb611a2d565b906109f4611a43565b9160643567ffffffffffffffff811161034c57610a15903690600401611c14565b60843567ffffffffffffffff81116109a257610a35903690600401611bb7565b3384526005602052610a4d60ff604086205416611c93565b604435946001600160a01b03808695169116915b8351851015610ba35785965b60ff8816906002821015610b96576001600160a01b0360025416906001610a948989611d8b565b51930160ff8111610b825791868a878b610b0b9795610ac260ff6020991692610abc84611d77565b8b611d8b565b51604051998a98899788967f509423550000000000000000000000000000000000000000000000000000000088526004880152602487015260c0604487015260c4860190611d52565b92610b1581611d77565b6064850152608484015260a483015203925af1908115610b77578791610b45575b50600160ff9198011696610a6d565b90506020813d8211610b6f575b81610b5f60209383611aa6565b8101031261001557516001610b36565b3d9150610b52565b6040513d89823e3d90fd5b60248a634e487b7160e01b81526011600452fd5b9750509360010193610a61565b602087604051908152f35b50346109a45760606003193601126109a45760043567ffffffffffffffff811161037057610be0903690600401611bb7565b60243567ffffffffffffffff811161034c57610c00903690600401611c14565b9060443567ffffffffffffffff81116109a25783610c2384923690600401611bb7565b903381526005602052610c3c60ff604083205416611c93565b80915b8451831015610ddc5790602491610c568487611d8b565b5190826001600160a01b0360025416604051958680927f0c3fc6b90000000000000000000000000000000000000000000000000000000082528660048301525afa938415610374578394610db8575b506001600160a01b0384511692610ccb60208601946001600160a01b038651169061256d565b8096815b8151811015610da657610ce28183611d8b565b51604051610d0f6020828180820195805191829101875e810188838201520301601f198101835282611aa6565b51902060a0880151604051610d436020828180820195805191829101875e810189838201520301601f198101835282611aa6565b51902014610d5357600101610ccf565b60019592999794919850610d6990849794611d8b565b515b8015610d9d57610d9493610d896001600160a01b03939284936127b5565b5116915116906125e0565b01919390610c3f565b50505050610d94565b50969260019491989693959295610d6b565b610dd59194503d8085833e610dcd8183611aa6565b810190611df9565b9287610ca5565b5080f35b506101606003193601126109a4578060043567ffffffffffffffff811161101d57610e0f903690600401611ae5565b610e17611a43565b60643590600382101561101a576084359060038210156108035760a4359260e4359161014435936001600160a01b038516809503611016573388526005602052610e6760ff60408a205416611c93565b610e7083611d77565b60018314610fc3575b610e8283611d77565b60028314610f5e575b6001600160a01b036002541693843b156103935788966001600160a01b0394610edf6040519a8b998a98899863308b99cb60e21b8a5216600489015260248801526101a060448801526101a4870190611d52565b93610ee981611d77565b6064860152610ef781611d77565b608485015260443560a485015260c484015260c43560e48401526101048301526101043561012483015261012435610144830152600161016483015234610184830152039134905af1801561035057610f4d5750f35b81610f5791611aa6565b6109a45780f35b96508415801590610fba575b15610f76578796610e8b565b606460405162461bcd60e51b815260206004820152601b60248201527f636c6f73652074726967676572207072696365206973207a65726f00000000006044820152fd5b50821515610f6a565b96508415610fd2578796610e79565b606460405162461bcd60e51b815260206004820152601a60248201527f6f70656e2074726967676572207072696365206973207a65726f0000000000006044820152fd5b8780fd5b50505b50fd5b50346109a457806003193601126109a45760206001600160a01b037f9016d09d72d40fdae2fd8ceac6b6234c7706214fd39c1cd1e609a0528c1993005416604051908152f35b50346109a45760806003193601126109a457611080611a2d565b611088611a43565b90604435916001600160a01b0383168093036109a2576064356001600160a01b038116809103610803576001600160a01b0380936110c461250e565b1690818652600560205260408620600160ff19825416179055818652600560205260408620600160ff19825416179055848652600560205260408620600160ff198254161790558552600560205260408520600160ff1982541617905573ffffffffffffffffffffffffffffffffffffffff1960025416176002551673ffffffffffffffffffffffffffffffffffffffff19600354161760035573ffffffffffffffffffffffffffffffffffffffff19600454161760045580f35b50346109a457806003193601126109a45761119861250e565b806001600160a01b037f9016d09d72d40fdae2fd8ceac6b6234c7706214fd39c1cd1e609a0528c1993005473ffffffffffffffffffffffffffffffffffffffff1981167f9016d09d72d40fdae2fd8ceac6b6234c7706214fd39c1cd1e609a0528c19930055167f8be0079c531659141344cd1fd0a4f28419497f9722a3daafe3b4186f6b6457e08280a380f35b50346109a45761126061123736611b2b565b949290979193969596338a52600560205261125860ff60408c205416611c93565b838888611fe7565b9060019261126e8787612241565b946001890161144e575b5060208501948551906060850191825111610397578a998151976112a260408801998a5190611cde565b83526112b18151855190611cde565b90526112d760408301928351936112ce60208a0195865190611cff565b90528b8b6122fa565b6001600160a01b036002541693843b1561144a578b968b9488948c946040519b8c9a8b998a987fcc5bc741000000000000000000000000000000000000000000000000000000008a526001600160a01b031660048a01526001600160a01b03166024890152604488016101c090526101c4880161135391611d52565b9561135d81611d77565b606488015261136b81611d81565b608487015260a4860152825160c48601525160e48501528a5161010485015251610124840152608081015161014484015260a081015161016484015260c081015161018484015260e001516101a483015203925af190811561143f57859161142a575b50506001600160a01b0360015416905190803b1561080357604051623bb5d360e61b81526001600160a01b039384166004820152939092166024840152604483015282908290606490829084905af1801561035057610f4d5750f35b8161143491611aa6565b61101a57835f6113ce565b6040513d87823e3d90fd5b8b80fd5b935060029360208601611462828251611cff565b905261147360608701918251611cde565b90525f611278565b50346109a45760406003193601126109a457611495611a2d565b61149d611a43565b7ff0c57e16840df040f15088dc2f81fe391c3923bec73e23a9662efc9c229c6a00549160ff8360401c16159267ffffffffffffffff81168015908161172b575b6001149081611721575b159081611718575b506116f0576001600160a01b039291818560017fffffffffffffffffffffffffffffffffffffffffffffffff0000000000000000879516177ff0c57e16840df040f15088dc2f81fe391c3923bec73e23a9662efc9c229c6a005561169b575b50611557613c41565b61155f613c41565b61156833611f1f565b168073ffffffffffffffffffffffffffffffffffffffff198654161785558452600560205260408420600160ff19825416179055168073ffffffffffffffffffffffffffffffffffffffff1960015416176001558252600560205260408220600160ff19825416179055338252600560205260408220600160ff19825416179055308252600560205260408220600160ff198254161790556116075780f35b7fffffffffffffffffffffffffffffffffffffffffffffff00ffffffffffffffff7ff0c57e16840df040f15088dc2f81fe391c3923bec73e23a9662efc9c229c6a0054167ff0c57e16840df040f15088dc2f81fe391c3923bec73e23a9662efc9c229c6a00557fc7f505b2f371ae2175ee4913f4499e1f2633a7b5936321eed1cdaeb6115181d2602060405160018152a180f35b7fffffffffffffffffffffffffffffffffffffffffffffff0000000000000000001668010000000000000001177ff0c57e16840df040f15088dc2f81fe391c3923bec73e23a9662efc9c229c6a00555f61154e565b6004857ff92ee8a9000000000000000000000000000000000000000000000000000000008152fd5b9050155f6114ef565b303b1591506114e7565b8591506114dd565b50346100155760e06003193601126100155761174d611a2d565b611755611a43565b9060443567ffffffffffffffff811161001557611776903690600401611ae5565b60a435906003821015610015576117f160a091335f5260056020526117a160ff60405f205416611c93565b6001600160a01b0360035416905f6040518096819582946307e7148560e01b84526001600160a01b038b1660048501526001600160a01b038c16602485015260e0604485015260e4840190611d52565b906064356064840152608435608484015261180b81611d77565b60a483015260c43560c483015203925af1908115611933575f91611959575b506118358383612241565b6020810190815161189661184f6020860192835190611cff565b61185f6060870191825190611cff565b9461187560406080890151980197885190611cff565b95869081811061194f579061188991611cde565b90525b8351905190611cff565b838110610785576118ca936118aa91611cde565b82526040820180519151909181811161193e5750505f90525b84846122fa565b6001600160a01b0360015416905190803b1561001557604051623bb5d360e61b81526001600160a01b03938416600482015293909216602484015260448301525f908290606490829084905af1801561193357611925575080f35b61193191505f90611aa6565b005b6040513d5f823e3d90fd5b9061194891611cde565b90526118c3565b50505f905261188c565b905060a03d60a01161198b575b6119708183611aa6565b810160a0828203126100155761198591611d0c565b5f61182a565b503d611966565b34610015576119a036611b2b565b95969390949291335f5260056020526119bf60ff60405f205416611c93565b6119cc8383868b89611fe7565b936119d78987612241565b9860208a0180519a606088019b8c5111610486576119319b82611a00611a1d9451835190611cde565b9052611a1460608301918251905190611cff565b905282896122fa565b602060408701519601519661239f565b600435906001600160a01b038216820361001557565b602435906001600160a01b038216820361001557565b610100810190811067ffffffffffffffff821117611a7657604052565b634e487b7160e01b5f52604160045260245ffd5b60a0810190811067ffffffffffffffff821117611a7657604052565b90601f601f19910116810190811067ffffffffffffffff821117611a7657604052565b67ffffffffffffffff8111611a7657601f01601f191660200190565b81601f8201121561001557803590611afc82611ac9565b92611b0a6040519485611aa6565b8284526020838301011161001557815f926020809301838601378301015290565b610100600319820112610015576004356001600160a01b038116810361001557916024356001600160a01b038116810361001557916044359067ffffffffffffffff821161001557611b7f91600401611ae5565b90606435906084359060a4356003811015610015579060c4359060e43590565b67ffffffffffffffff8111611a765760051b60200190565b9080601f83011215610015578135611bce81611b9f565b92611bdc6040519485611aa6565b81845260208085019260051b82010192831161001557602001905b828210611c045750505090565b8135815260209182019101611bf7565b9080601f83011215610015578135611c2b81611b9f565b92611c396040519485611aa6565b81845260208085019260051b820101918383116100155760208201905b838210611c6557505050505090565b813567ffffffffffffffff811161001557602091611c8887848094880101611ae5565b815201910190611c56565b15611c9a57565b606460405162461bcd60e51b815260206004820152601c60248201527f63616c6c6572206973206e6f742073746174696f6e206b6565706572000000006044820152fd5b91908203918211611ceb57565b634e487b7160e01b5f52601160045260245ffd5b91908201809211611ceb57565b91908260a091031261001557604051611d2481611a8a565b6080808294805184526020810151602085015260408101516040850152606081015160608501520151910152565b90601f19601f602080948051918291828752018686015e5f8582860101520116010190565b6003111561037f57565b6008111561037f57565b8051821015611d9f5760209160051b010190565b634e487b7160e01b5f52603260045260245ffd5b81601f8201121561001557805190611dca82611ac9565b92611dd86040519485611aa6565b8284526020838301011161001557815f9260208093018386015e8301015290565b6020818303126100155780519067ffffffffffffffff82116100155701906101a08282031261001557604051916101a0830183811067ffffffffffffffff821117611a765760405280516001600160a01b038116810361001557835260208101516001600160a01b038116810361001557602084015260408101516003811015610015576040840152606081015160088110156100155760608401526080810151600381101561001557608084015260a081015167ffffffffffffffff81116100155761018092611ecb918301611db3565b60a084015260c081015160c084015260e081015160e0840152610100810151610100840152610120810151610120840152610140810151610140840152610160810151610160840152015161018082015290565b6001600160a01b03168015611fbb576001600160a01b037f9016d09d72d40fdae2fd8ceac6b6234c7706214fd39c1cd1e609a0528c199300548273ffffffffffffffffffffffffffffffffffffffff198216177f9016d09d72d40fdae2fd8ceac6b6234c7706214fd39c1cd1e609a0528c19930055167f8be0079c531659141344cd1fd0a4f28419497f9722a3daafe3b4186f6b6457e05f80a3565b7f1e4fbdf7000000000000000000000000000000000000000000000000000000005f525f60045260245ffd5b9391905f60e0604051611ff981611a59565b8281528260208201528260408201528260608201528260808201528260a08201528260c082015201526001600160a01b0380600154169181604051977f702c2b74000000000000000000000000000000000000000000000000000000008952166004880152166024860152606060448601526020858061207c6064820186611d52565b0381845afa948515611933575f9561220b575b506120d29160209160405180809581947f05ca57cf0000000000000000000000000000000000000000000000000000000083528660048401526024830190611d52565b03915afa908115611933575f916121c7575b50610100926001600160a01b0360649260405196879586947f32a84502000000000000000000000000000000000000000000000000000000008652600486015260248501526044840152165afa908115611933575f91612142575090565b9050610100813d82116121bf575b8161215e6101009383611aa6565b810103126100155760e06040519161217583611a59565b805183526020810151602084015260408101516040840152606081015160608401526080810151608084015260a081015160a084015260c081015160c0840152015160e082015290565b3d9150612150565b90506020813d602011612203575b816121e260209383611aa6565b8101031261001557516001600160a01b0381168103610015576101006120e4565b3d91506121d5565b9094506020813d602011612239575b8161222760209383611aa6565b810103126100155751936120d261208f565b3d915061221a565b6001600160a01b03604460a0925f608060405161225d81611a8a565b828152826020820152826040820152826060820152015282600154168360405196879586947fccf1a4b20000000000000000000000000000000000000000000000000000000086521660048501521660248301525afa908115611933575f916122c4575090565b905060a03d60a0116122f3575b6122db8183611aa6565b810160a082820312610015576122f091611d0c565b90565b503d6122d1565b90916001600160a01b0360015416803b15610015575f928360e49260806001600160a01b039586604051998a9889977fe448cc41000000000000000000000000000000000000000000000000000000008952166004880152166024860152805160448601526020810151606486015260408101516084860152606081015160a4860152015160c48401525af18015611933576123935750565b5f61239d91611aa6565b565b9891959697906001600160a01b036002541696873b15610015576001600160a01b036123f692819c60046040519e8f9263308b99cb60e21b8452169101521660248c01526101a060448c01526101a48b0190611d52565b9261240081611d77565b60648a01525f978997889687966001608489015260a488015260c487015260e48601528861010486015261012485015261014484015286610164840152610184830152039134905af18015611933576123935750565b979094939291946001600160a01b036002541695863b15610015576001600160a01b036124ac928163308b99cb60e21b9c6040519d8e521660048d01521660248b01526101a060448b01526101a48a0190611d52565b916124b681611d77565b60648901525f968896879586956002608488015260a487015260c48601528860e4860152610104850152876101248501526101448401526001610164840152610184830152039134905af18015611933576123935750565b6001600160a01b037f9016d09d72d40fdae2fd8ceac6b6234c7706214fd39c1cd1e609a0528c1993005416330361254157565b7f118cdaa7000000000000000000000000000000000000000000000000000000005f523360045260245ffd5b906001600160a01b036001541690813b15610015576040517fd3c2d8b70000000000000000000000000000000000000000000000000000000081526001600160a01b039384166004820152921660248301525f60448301819052908290606490829084905af18015611933576123935750565b906001600160a01b036001541690813b15610015576040517fd3c2d8b70000000000000000000000000000000000000000000000000000000081526001600160a01b03938416600482015292166024830152600a60448301525f908290606490829084905af18015611933576123935750565b5f9060033d1161265f57565b905060045f803e5f5160e01c90565b5f60443d106122f0576040516003193d016004823e8051913d602484011167ffffffffffffffff8411176126dc578282019283519167ffffffffffffffff83116126d4576003193d850101602084870101116126d457506122f092910160200190611aa6565b949350505050565b92915050565b3d1561270c573d906126f382611ac9565b916127016040519384611aa6565b82523d5f602084013e565b606090565b93979695926001600160a01b0360c09693816127419416875216602086015260e0604086015260e0850190611d52565b966060840152608083015261275581611d77565b60a08201520152565b9491926001600160a01b0360e0979481612793949c9b9a979c1688521660208701526101006040870152610100860190611d52565b97606085015260808401526127a781611d77565b60a083015260c08201520152565b906002546001600160a01b035f911691604051927f0c3fc6b90000000000000000000000000000000000000000000000000000000084528460048501525f84602481845afa908115611933576024945f92613c23575b505f90604051958680927f0187703f0000000000000000000000000000000000000000000000000000000082528960048301525afa938415611933575f94613b67575b506020840191600183511480613b47575b6134af5761018082018051421161349057604460206001600160a01b0360035416604051928380927fe6b34c690000000000000000000000000000000000000000000000000000000082528c60048301528760248301525afa908115610983578691613455575b506128d5575b50505050505050565b6001845114612da0575060e0820190815260808201600181516128f781611d77565b61290081611d77565b03612bc6575061291b61010083015161012084015190611cff565b6001600160a01b0383511660208401966001600160a01b038851169160a086019283519160c0880195865197519760408a019889519161295a83611d77565b303b15612bc257928f8e9694936129a2938897956040519a8b9889987f6332d726000000000000000000000000000000000000000000000000000000008a5260048a0161275e565b038183305af19182612bad575b5050612ace575050505050506001906129c6612653565b6308c379a014612a51575b506129e6575b50505b5f8080808080806128cc565b7f4c94adf18d8bfad12d476c7b93150b992bfa3fb9a83d713dd8a97359b7413f8291612a246001600160a01b03612a1b6126e2565b93511682613d13565b612a47604051928392600584526020840152606060408401526060830190611d52565b0390a15f806129d7565b612a5961266e565b9081612a66575b506129d1565b7f356c1ed0403936d05af0abea05fbda16720ce964f55d7010cee1ba6cd8e1f60a919250612ac49092612aa36001600160a01b0386511687613d13565b60405191829160058352876020840152606060408401526060830190611d52565b0390a15f80612a60565b61014085979a999698939495019360028551995114612b02575b5050505050508461239d9495505060036060830152613c98565b6060820190815115801590612ba0575b612b1d575b50612ae8565b90919293949598612b339060011c809751611cde565b9860a06001600160a01b03808b51169751169551915192612b5384611d77565b519351940151946312cc0300420196874211612b8c5791612b7f9795939161239d9d9e99979593612456565b94935f8080808080612b17565b60248e634e487b7160e01b81526011600452fd5b5060a08301511515612b12565b81612bb791611aa6565b61101657875f6129af565b8d80fd5b909450600291925051612bd881611d77565b612be181611d77565b14612bf0575b505050506129da565b6001600160a01b038151169260208201936001600160a01b038551169060a08401519260c08501519051604086015191612c2983611d77565b303b156110165789889593869593612c5693604051998a9788976307e7148560e01b895260048901612711565b038183305af19182612d8b575b5050612d705750600190612c75612653565b6308c379a014612cf3575b50612c91575b50505f808080612be7565b7f4c94adf18d8bfad12d476c7b93150b992bfa3fb9a83d713dd8a97359b7413f8291612cc66001600160a01b03612a1b6126e2565b612ce9604051928392600684526020840152606060408401526060830190611d52565b0390a15f80612c86565b612cfb61266e565b9081612d08575b50612c80565b7f356c1ed0403936d05af0abea05fbda16720ce964f55d7010cee1ba6cd8e1f60a919250612d669092612d456001600160a01b0386511687613d13565b60405191829160068352876020840152606060408401526060830190611d52565b0390a15f80612d02565b9061239d939250506003606082015261014081015191613c98565b81612d9591611aa6565b61034c57825f612c63565b9250610140820180519360016080850151612dba81611d77565b612dc381611d77565b14612dd3575b5050505050505050565b604087019081518015908115613447575b50801561341b575b80156133ef575b156130b15750508160e08401526001600160a01b0383511660208401966001600160a01b038851169160a086019283519060c0880192835160408a0198895190612e3c82611d77565b303b15612bc257918f8e959392869593612e97604051998a9788977f6332d726000000000000000000000000000000000000000000000000000000008952600489015260248801526101006044880152610104870190611d52565b9360648601526084850152612eab81611d77565b60a484015260c48301528360e4830152038183305af1918261309c575b5050612fe05750505050505050600190612ee0612653565b6308c379a014612f63575b50612f01575b50505b5f80808080808080612dc9565b7f4c94adf18d8bfad12d476c7b93150b992bfa3fb9a83d713dd8a97359b7413f8291612f366001600160a01b03612a1b6126e2565b612f59604051928392600384526020840152606060408401526060830190611d52565b0390a15f80612ef1565b612f6b61266e565b9081612f78575b50612eeb565b7f356c1ed0403936d05af0abea05fbda16720ce964f55d7010cee1ba6cd8e1f60a919250612fd69092612fb56001600160a01b0386511687613d13565b60405191829160038352876020840152606060408401526060830190611d52565b0390a15f80612f72565b6060829b9a9799949596989b019081511580159061308f575b61301e575b50505050505050846130199495505060036060830152613c98565b612ef4565b9091929394959850613036865160011c809751611cde565b9860a06001600160a01b03808b5116975116955191519261305684611d77565b519351940151946312cc0300420196874211612b8c5791613082979593916130199d9e99979593612456565b94935f8080808080612ffe565b5060a08301511515612ff9565b816130a691611aa6565b61039357885f612ec8565b916130c8919550809793505160011c809751611cde565b936001600160a01b0384511660208501976001600160a01b038951169260a08701519460c0880151915160408901519161310183611d77565b5192303b1561144a579261314a928c9795928897956040519a8b9889987f068c9c26000000000000000000000000000000000000000000000000000000008a5260048a0161275e565b038183305af191826133da575b50506132625750505060019061316b612653565b6308c379a0146131e5575b50613183575b5050612ef4565b7f4c94adf18d8bfad12d476c7b93150b992bfa3fb9a83d713dd8a97359b7413f82916131b86001600160a01b03612a1b6126e2565b6131db604051928392600484526020840152606060408401526060830190611d52565b0390a15f8061317c565b6131ed61266e565b90816131fa575b50613176565b7f356c1ed0403936d05af0abea05fbda16720ce964f55d7010cee1ba6cd8e1f60a91925061325890926132376001600160a01b0386511687613d13565b60405191829160048352876020840152606060408401526060830190611d52565b0390a15f806131f4565b9092959491935060608101908151158015906133cd575b613293575b50506003606083015292935061301992613c98565b6001600160a01b0360025416604051927f49138690000000000000000000000000000000000000000000000000000000008452602084600481855afa9384156133c257899461338e575b505f19840193841161337a579060a08993925192015193813b156109a2578360e49260405196879586947fbe63309e000000000000000000000000000000000000000000000000000000008652600486015260026024860152836044860152606485015282608485015260a48401528160c48401525af1801561098357613365575b8061327e565b613370868092611aa6565b610803575f61335f565b602489634e487b7160e01b81526011600452fd5b9093506020813d6020116133ba575b816133aa60209383611aa6565b810103126100155751925f6132dd565b3d915061339d565b6040513d8b823e3d90fd5b5060a08101511515613279565b816133e491611aa6565b61080357845f613157565b506002604086015161340081611d77565b61340981611d77565b148015612df357508151841015612df3565b506001604086015161342c81611d77565b61343581611d77565b148015612dec57508151841115612dec565b905060e0860151145f612de4565b90506020813d602011613488575b8161347060209383611aa6565b8101031261097757518015158103610977575f6128c6565b3d9150613463565b505061239d9493506001600160a01b0392506020915001511690613d13565b93909150606081019384511580613b3b575b8015613b2d575b8015613ae4575b613ac75780945f928151151580613a5c575b1561393757608001918251801592831561392c575b505081156138f9575b81156138c3575b50156138ba5750506001905b6101408101805192156136bd57506001600160a01b038151169360208201946001600160a01b038651169060a08401519260c08501519060408601519161355883611d77565b303b15610393578a89959386959361358593604051998a9788976307e7148560e01b895260048901612711565b038183305af191826136a8575b50506136935750506001906135a5612653565b6308c379a014613616575b506135b9575050565b7f4c94adf18d8bfad12d476c7b93150b992bfa3fb9a83d713dd8a97359b7413f82916135ee6001600160a01b03612a1b6126e2565b613611604051928392600184526020840152606060408401526060830190611d52565b0390a1565b61361e61266e565b908161362b575b506135b0565b7f356c1ed0403936d05af0abea05fbda16720ce964f55d7010cee1ba6cd8e1f60a91925061368990926136686001600160a01b0386511687613d13565b60405191829160018352876020840152606060408401526060830190611d52565b0390a15f80613625565b9161239d949193505060036060830152613c98565b816136b291611aa6565b6109a257835f613592565b916136cd9060011c809351611cde565b916001600160a01b0360025416946001600160a01b0383511660208401966001600160a01b0388511660a08601519260408701519061370b82611d77565b60c08801519161018089015197853b1561001557613758985f9889956040519b8c9a8b998a9863308b99cb60e21b8a5260048a015260248901526101a060448901526101a4880190611d52565b9461376281611d77565b60648701526002608487015260a486015260c48501528460e485015284610104850152846101248501526101448401528361016484015261018483015203925af190816138a5575b506136935750506001906137bc612653565b6308c379a014613828575b506137d0575050565b7f4c94adf18d8bfad12d476c7b93150b992bfa3fb9a83d713dd8a97359b7413f82916138056001600160a01b03612a1b6126e2565b613611604051928392600284526020840152606060408401526060830190611d52565b61383061266e565b908161383d575b506137c7565b7f356c1ed0403936d05af0abea05fbda16720ce964f55d7010cee1ba6cd8e1f60a91925061389b909261387a6001600160a01b0386511687613d13565b60405191829160028352876020840152606060408401526060830190611d52565b0390a15f80613837565b6138b29194505f90611aa6565b5f925f6137aa565b51935090613512565b9050600260408501516138d581611d77565b6138de81611d77565b1490816138ed575b505f613506565b9050815110155f6138e6565b90506001604085015161390b81611d77565b61391481611d77565b1480613921575b906134ff565b50808251111561391b565b511491505f806134f6565b905060a081019081511515806139f1575b15612dc95760c00191825180159283156139e6575b505081156139b3575b811561397d575b50156138ba575050600190613512565b90506002604085015161398f81611d77565b61399881611d77565b1490816139a7575b505f61396d565b9050815111155f6139a0565b9050600160408501516139c581611d77565b6139ce81611d77565b14806139db575b90613966565b5080825110156139d5565b511491505f8061395d565b506040850160018151613a0381611d77565b613a0c81611d77565b149081613a50575b8115613a21575b50613948565b6002915051613a2f81611d77565b613a3881611d77565b1480613a45575b5f613a1b565b508151831015613a3f565b83518511159150613a14565b506040850160018151613a6e81611d77565b613a7781611d77565b149081613abb575b8115613a8c575b506134e1565b6002915051613a9a81611d77565b613aa381611d77565b1480613ab0575b5f613a86565b508151831115613aaa565b83518510159150613a7f565b5050905061239d9291506003606082015261014081015191613c98565b506060830160018151613af681611d81565b613aff81611d81565b14159081613b0e575b506134cf565b6002915051613b1c81611d81565b613b2581611d81565b14155f613b08565b5061018083015142116134c8565b5060a0820151156134c1565b5060026080830151613b5881611d77565b613b6181611d77565b1461285f565b9093503d805f833e613b798183611aa6565b8101906020818303126100155780519067ffffffffffffffff821161001557019060e082820312610015576040519160e0830183811067ffffffffffffffff821117611a7657604052805167ffffffffffffffff81116100155760c092613be1918301611db3565b83526020810151602084015260408101516040840152606081015160608401526080810151608084015260a081015160a0840152015160c0820152925f61284e565b5f919250613c3a903d8084833e610dcd8183611aa6565b919061280b565b60ff7ff0c57e16840df040f15088dc2f81fe391c3923bec73e23a9662efc9c229c6a005460401c1615613c7057565b7fd7e6bcf8000000000000000000000000000000000000000000000000000000005f5260045ffd5b9060606001600160a01b036002541691015190613cb482611d81565b803b15610015575f928360649260405196879586947fac89c7980000000000000000000000000000000000000000000000000000000086526004860152613cfa81611d81565b602485015260448401525af18015611933576123935750565b6001600160a01b036003541691823b156100155760645f92836001600160a01b039560405196879586947fc2b3356400000000000000000000000000000000000000000000000000000000865260048601521660248401528160448401525af1801561193357612393575056fea2646970667358221220dda89b780c79e56ae2f4fa55517c8b0a2c860f96a90c338beb520a2ab28570f864736f6c634300081c0033",
  "linkReferences": {},
  "deployedLinkReferences": {}
}