{
  "_format": "hh-sol-artifact-1",
  "contractName": "TradeAgent",
  "sourceName": "contracts/TradeAgent.sol",
  "abi": [
    {
      "inputs": [],
      "name": "InvalidInitialization",
      "type": "error"
    },
    {
      "inputs": [],
      "name": "NotInitializing",
      "type": "error"
    },
    {
      "inputs": [
        {
          "internalType": "address",
          "name": "owner",
          "type": "address"
        }
      ],
      "name": "OwnableInvalidOwner",
      "type": "error"
    },
    {
      "inputs": [
        {
          "internalType": "address",
          "name": "account",
          "type": "address"
        }
      ],
      "name": "OwnableUnauthorizedAccount",
      "type": "error"
    },
    {
      "anonymous": false,
      "inputs": [
        {
          "indexed": false,
          "internalType": "address",
          "name": "token",
          "type": "address"
        },
        {
          "indexed": false,
          "internalType": "address",
          "name": "holder",
          "type": "address"
        },
        {
          "indexed": false,
          "internalType": "string",
          "name": "name",
          "type": "string"
        },
        {
          "indexed": false,
          "internalType": "enum ICommon.Direct",
          "name": "direct",
          "type": "uint8"
        },
        {
          "indexed": false,
          "internalType": "uint256",
          "name": "value",
          "type": "uint256"
        },
        {
          "indexed": false,
          "internalType": "uint256",
          "name": "size",
          "type": "uint256"
        },
        {
          "indexed": false,
          "internalType": "uint256",
          "name": "margin",
          "type": "uint256"
        },
        {
          "indexed": false,
          "internalType": "uint256",
          "name": "freeze",
          "type": "uint256"
        }
      ],
      "name": "AccountPosition",
      "type": "event"
    },
    {
      "anonymous": false,
      "inputs": [
        {
          "indexed": false,
          "internalType": "address",
          "name": "token",
          "type": "address"
        },
        {
          "indexed": false,
          "internalType": "address",
          "name": "taker",
          "type": "address"
        },
        {
          "indexed": false,
          "internalType": "uint256",
          "name": "amount",
          "type": "uint256"
        },
        {
          "indexed": false,
          "internalType": "uint256",
          "name": "availableAmount",
          "type": "uint256"
        },
        {
          "indexed": false,
          "internalType": "uint256",
          "name": "marginAmount",
          "type": "uint256"
        },
        {
          "indexed": false,
          "internalType": "uint256",
          "name": "locked",
          "type": "uint256"
        },
        {
          "indexed": false,
          "internalType": "uint256",
          "name": "stage",
          "type": "uint256"
        },
        {
          "indexed": false,
          "internalType": "uint256",
          "name": "dif",
          "type": "uint256"
        }
      ],
      "name": "BalanceOfTaker",
      "type": "event"
    },
    {
      "anonymous": false,
      "inputs": [
        {
          "indexed": false,
          "internalType": "string",
          "name": "name",
          "type": "string"
        },
        {
          "indexed": true,
          "internalType": "address",
          "name": "taker",
          "type": "address"
        },
        {
          "indexed": true,
          "internalType": "address",
          "name": "token",
          "type": "address"
        },
        {
          "indexed": false,
          "internalType": "uint256",
          "name": "orderID",
          "type": "uint256"
        },
        {
          "indexed": false,
          "internalType": "enum ICommon.Direct",
          "name": "orderType",
          "type": "uint8"
        },
        {
          "indexed": false,
          "internalType": "enum IPerpetual.OrderState",
          "name": "state",
          "type": "uint8"
        },
        {
          "indexed": false,
          "internalType": "enum ICommon.Offset",
          "name": "offset",
          "type": "uint8"
        },
        {
          "indexed": false,
          "internalType": "uint256",
          "name": "amount",
          "type": "uint256"
        },
        {
          "indexed": false,
          "internalType": "uint256",
          "name": "targetPrice",
          "type": "uint256"
        },
        {
          "indexed": false,
          "internalType": "uint256",
          "name": "margin",
          "type": "uint256"
        },
        {
          "indexed": false,
          "internalType": "uint256",
          "name": "rewardGas",
          "type": "uint256"
        },
        {
          "indexed": false,
          "internalType": "uint256",
          "name": "tradingFee",
          "type": "uint256"
        },
        {
          "indexed": false,
          "internalType": "uint256",
          "name": "startTime",
          "type": "uint256"
        },
        {
          "indexed": false,
          "internalType": "uint256",
          "name": "goodTill",
          "type": "uint256"
        }
      ],
      "name": "CreateLimitedOrder",
      "type": "event"
    },
    {
      "anonymous": false,
      "inputs": [
        {
          "indexed": false,
          "internalType": "uint256",
          "name": "limitOrderID",
          "type": "uint256"
        },
        {
          "indexed": false,
          "internalType": "uint256",
          "name": "openLimitPrice",
          "type": "uint256"
        },
        {
          "indexed": false,
          "internalType": "uint256",
          "name": "gainTriggerPrice",
          "type": "uint256"
        },
        {
          "indexed": false,
          "internalType": "uint256",
          "name": "gainLimitPrice",
          "type": "uint256"
        },
        {
          "indexed": false,
          "internalType": "uint256",
          "name": "lossTriggerPrice",
          "type": "uint256"
        },
        {
          "indexed": false,
          "internalType": "uint256",
          "name": "lossLimitPrice",
          "type": "uint256"
        }
      ],
      "name": "CreateTriggerCondition",
      "type": "event"
    },
    {
      "anonymous": false,
      "inputs": [
        {
          "indexed": false,
          "internalType": "uint256",
          "name": "code",
          "type": "uint256"
        },
        {
          "indexed": false,
          "internalType": "uint256",
          "name": "orderID",
          "type": "uint256"
        },
        {
          "indexed": false,
          "internalType": "string",
          "name": "message",
          "type": "string"
        }
      ],
      "name": "ErrorInfo",
      "type": "event"
    },
    {
      "anonymous": false,
      "inputs": [
        {
          "indexed": false,
          "internalType": "uint256",
          "name": "code",
          "type": "uint256"
        },
        {
          "indexed": false,
          "internalType": "uint256",
          "name": "orderID",
          "type": "uint256"
        },
        {
          "indexed": false,
          "internalType": "bytes",
          "name": "message",
          "type": "bytes"
        }
      ],
      "name": "ExceptErrorInfo",
      "type": "event"
    },
    {
      "anonymous": false,
      "inputs": [
        {
          "indexed": false,
          "internalType": "uint64",
          "name": "version",
          "type": "uint64"
        }
      ],
      "name": "Initialized",
      "type": "event"
    },
    {
      "anonymous": false,
      "inputs": [
        {
          "indexed": false,
          "internalType": "string",
          "name": "name",
          "type": "string"
        },
        {
          "indexed": true,
          "internalType": "address",
          "name": "taker",
          "type": "address"
        },
        {
          "indexed": true,
          "internalType": "address",
          "name": "token",
          "type": "address"
        },
        {
          "indexed": false,
          "internalType": "uint256",
          "name": "orderID",
          "type": "uint256"
        },
        {
          "indexed": false,
          "internalType": "enum ICommon.Direct",
          "name": "orderType",
          "type": "uint8"
        },
        {
          "indexed": false,
          "internalType": "enum IPerpetual.OrderState",
          "name": "state",
          "type": "uint8"
        },
        {
          "indexed": false,
          "internalType": "enum ICommon.Offset",
          "name": "offset",
          "type": "uint8"
        },
        {
          "indexed": false,
          "internalType": "uint256",
          "name": "amount",
          "type": "uint256"
        },
        {
          "indexed": false,
          "internalType": "uint256",
          "name": "targetPrice",
          "type": "uint256"
        },
        {
          "indexed": false,
          "internalType": "uint256",
          "name": "margin",
          "type": "uint256"
        },
        {
          "indexed": false,
          "internalType": "uint256",
          "name": "rewardGas",
          "type": "uint256"
        },
        {
          "indexed": false,
          "internalType": "uint256",
          "name": "tradingFee",
          "type": "uint256"
        },
        {
          "indexed": false,
          "internalType": "uint256",
          "name": "startTime",
          "type": "uint256"
        },
        {
          "indexed": false,
          "internalType": "uint256",
          "name": "goodTill",
          "type": "uint256"
        }
      ],
      "name": "LimitedOrderHistory",
      "type": "event"
    },
    {
      "anonymous": false,
      "inputs": [
        {
          "indexed": true,
          "internalType": "address",
          "name": "taker",
          "type": "address"
        },
        {
          "indexed": false,
          "internalType": "string",
          "name": "name",
          "type": "string"
        },
        {
          "indexed": false,
          "internalType": "address",
          "name": "token",
          "type": "address"
        },
        {
          "indexed": false,
          "internalType": "uint256",
          "name": "orderID",
          "type": "uint256"
        },
        {
          "indexed": false,
          "internalType": "enum ICommon.Direct",
          "name": "direction",
          "type": "uint8"
        },
        {
          "indexed": false,
          "internalType": "enum IPerpetual.OrderType",
          "name": "orderType",
          "type": "uint8"
        },
        {
          "indexed": false,
          "internalType": "uint256",
          "name": "amount",
          "type": "uint256"
        },
        {
          "indexed": false,
          "internalType": "uint256",
          "name": "costPrice",
          "type": "uint256"
        },
        {
          "indexed": false,
          "internalType": "uint256",
          "name": "price",
          "type": "uint256"
        },
        {
          "indexed": false,
          "internalType": "uint256",
          "name": "tradingFee",
          "type": "uint256"
        },
        {
          "indexed": false,
          "internalType": "uint256",
          "name": "leverage",
          "type": "uint256"
        },
        {
          "indexed": false,
          "internalType": "uint256",
          "name": "marginAmount",
          "type": "uint256"
        },
        {
          "indexed": false,
          "internalType": "uint256",
          "name": "limitOrderId",
          "type": "uint256"
        },
        {
          "indexed": false,
          "internalType": "uint256",
          "name": "timestamp",
          "type": "uint256"
        }
      ],
      "name": "OrderHistory",
      "type": "event"
    },
    {
      "anonymous": false,
      "inputs": [
        {
          "indexed": true,
          "internalType": "address",
          "name": "previousOwner",
          "type": "address"
        },
        {
          "indexed": true,
          "internalType": "address",
          "name": "newOwner",
          "type": "address"
        }
      ],
      "name": "OwnershipTransferred",
      "type": "event"
    },
    {
      "anonymous": false,
      "inputs": [
        {
          "indexed": false,
          "internalType": "address",
          "name": "token",
          "type": "address"
        },
        {
          "indexed": false,
          "internalType": "uint256",
          "name": "orderID",
          "type": "uint256"
        },
        {
          "indexed": false,
          "internalType": "uint256",
          "name": "dealID",
          "type": "uint256"
        },
        {
          "indexed": false,
          "internalType": "enum IPerpetual.TradeType",
          "name": "tradeType",
          "type": "uint8"
        },
        {
          "indexed": false,
          "internalType": "uint256",
          "name": "amount",
          "type": "uint256"
        },
        {
          "indexed": false,
          "internalType": "uint256",
          "name": "price",
          "type": "uint256"
        },
        {
          "indexed": false,
          "internalType": "uint256",
          "name": "tradingFee",
          "type": "uint256"
        },
        {
          "indexed": false,
          "internalType": "uint256",
          "name": "leverage",
          "type": "uint256"
        },
        {
          "indexed": false,
          "internalType": "uint256",
          "name": "marginAmount",
          "type": "uint256"
        },
        {
          "indexed": false,
          "internalType": "uint256",
          "name": "profit",
          "type": "uint256"
        },
        {
          "indexed": false,
          "internalType": "uint256",
          "name": "loss",
          "type": "uint256"
        },
        {
          "indexed": false,
          "internalType": "uint256",
          "name": "timestamp",
          "type": "uint256"
        }
      ],
      "name": "TradeHistory",
      "type": "event"
    },
    {
      "anonymous": false,
      "inputs": [
        {
          "indexed": true,
          "internalType": "address",
          "name": "token",
          "type": "address"
        },
        {
          "indexed": true,
          "internalType": "address",
          "name": "sender",
          "type": "address"
        },
        {
          "indexed": true,
          "internalType": "address",
          "name": "received",
          "type": "address"
        },
        {
          "indexed": false,
          "internalType": "enum ICommon.TransactionType",
          "name": "transactionType",
          "type": "uint8"
        },
        {
          "indexed": false,
          "internalType": "uint256",
          "name": "amount",
          "type": "uint256"
        },
        {
          "indexed": false,
          "internalType": "uint256",
          "name": "timestamp",
          "type": "uint256"
        }
      ],
      "name": "TransactionHistory",
      "type": "event"
    },
    {
      "anonymous": false,
      "inputs": [
        {
          "indexed": false,
          "internalType": "address",
          "name": "token",
          "type": "address"
        },
        {
          "indexed": false,
          "internalType": "address",
          "name": "sender",
          "type": "address"
        },
        {
          "indexed": false,
          "internalType": "string",
          "name": "name",
          "type": "string"
        },
        {
          "indexed": false,
          "internalType": "uint256",
          "name": "beforeLeverage",
          "type": "uint256"
        },
        {
          "indexed": false,
          "internalType": "uint256",
          "name": "afterLeverage",
          "type": "uint256"
        }
      ],
      "name": "setLeverage",
      "type": "event"
    },
    {
      "stateMutability": "nonpayable",
      "type": "fallback"
    },
    {
      "inputs": [
        {
          "internalType": "enum ICommon.Direct",
          "name": "_type",
          "type": "uint8"
        },
        {
          "internalType": "uint256",
          "name": "_currentPrice",
          "type": "uint256"
        },
        {
          "internalType": "uint256",
          "name": "_dealPrice",
          "type": "uint256"
        },
        {
          "internalType": "uint256",
          "name": "_amount",
          "type": "uint256"
        },
        {
          "internalType": "uint256",
          "name": "_willClose",
          "type": "uint256"
        }
      ],
      "name": "calDealPNL",
      "outputs": [
        {
          "internalType": "uint256",
          "name": "profit",
          "type": "uint256"
        },
        {
          "internalType": "uint256",
          "name": "loss",
          "type": "uint256"
        }
      ],
      "stateMutability": "pure",
      "type": "function"
    },
    {
      "inputs": [
        {
          "internalType": "uint256",
          "name": "_orderID",
          "type": "uint256"
        },
        {
          "internalType": "address",
          "name": "_taker",
          "type": "address"
        },
        {
          "internalType": "bool",
          "name": "_status",
          "type": "bool"
        }
      ],
      "name": "cancelOrder",
      "outputs": [],
      "stateMutability": "nonpayable",
      "type": "function"
    },
    {
      "inputs": [
        {
          "internalType": "uint256",
          "name": "_oID",
          "type": "uint256"
        },
        {
          "internalType": "uint256",
          "name": "_price",
          "type": "uint256"
        }
      ],
      "name": "checkLimitOrder",
      "outputs": [
        {
          "internalType": "bool",
          "name": "success",
          "type": "bool"
        }
      ],
      "stateMutability": "view",
      "type": "function"
    },
    {
      "inputs": [
        {
          "internalType": "uint256[]",
          "name": "_orders",
          "type": "uint256[]"
        },
        {
          "internalType": "uint256[]",
          "name": "_prices",
          "type": "uint256[]"
        }
      ],
      "name": "checkLimitOrders",
      "outputs": [
        {
          "internalType": "bool[]",
          "name": "result",
          "type": "bool[]"
        }
      ],
      "stateMutability": "view",
      "type": "function"
    },
    {
      "inputs": [
        {
          "internalType": "uint256[]",
          "name": "_deal",
          "type": "uint256[]"
        },
        {
          "internalType": "uint256[]",
          "name": "_price",
          "type": "uint256[]"
        }
      ],
      "name": "checkMakerDealsRiskStatus",
      "outputs": [
        {
          "internalType": "bool[]",
          "name": "riskStatus",
          "type": "bool[]"
        }
      ],
      "stateMutability": "view",
      "type": "function"
    },
    {
      "inputs": [
        {
          "internalType": "address",
          "name": "_token",
          "type": "address"
        },
        {
          "internalType": "address",
          "name": "_taker",
          "type": "address"
        },
        {
          "internalType": "string[]",
          "name": "_symbols",
          "type": "string[]"
        },
        {
          "internalType": "uint256[]",
          "name": "_prices",
          "type": "uint256[]"
        }
      ],
      "name": "checkTakerRiskStatus",
      "outputs": [
        {
          "internalType": "bool",
          "name": "isRisk",
          "type": "bool"
        },
        {
          "internalType": "uint256",
          "name": "netLoss",
          "type": "uint256"
        },
        {
          "internalType": "uint256",
          "name": "overLoss",
          "type": "uint256"
        },
        {
          "internalType": "uint256",
          "name": "loss",
          "type": "uint256"
        }
      ],
      "stateMutability": "view",
      "type": "function"
    },
    {
      "inputs": [
        {
          "internalType": "address[]",
          "name": "_tokens",
          "type": "address[]"
        },
        {
          "internalType": "address[]",
          "name": "_takers",
          "type": "address[]"
        },
        {
          "internalType": "string[]",
          "name": "_symbols",
          "type": "string[]"
        },
        {
          "internalType": "uint256[]",
          "name": "_prices",
          "type": "uint256[]"
        }
      ],
      "name": "checkTakersRiskStatus",
      "outputs": [
        {
          "internalType": "bool[]",
          "name": "riskStatus",
          "type": "bool[]"
        }
      ],
      "stateMutability": "view",
      "type": "function"
    },
    {
      "inputs": [
        {
          "internalType": "address",
          "name": "_token",
          "type": "address"
        },
        {
          "internalType": "address",
          "name": "_taker",
          "type": "address"
        },
        {
          "internalType": "string",
          "name": "_pair",
          "type": "string"
        },
        {
          "internalType": "enum ICommon.Direct",
          "name": "_type",
          "type": "uint8"
        },
        {
          "internalType": "uint256",
          "name": "_currentPrice",
          "type": "uint256"
        },
        {
          "internalType": "uint256",
          "name": "_deposit",
          "type": "uint256"
        }
      ],
      "name": "clearingTakerPosition",
      "outputs": [
        {
          "internalType": "uint256",
          "name": "remainingDeposit",
          "type": "uint256"
        },
        {
          "internalType": "bool",
          "name": "clear",
          "type": "bool"
        }
      ],
      "stateMutability": "nonpayable",
      "type": "function"
    },
    {
      "inputs": [
        {
          "internalType": "address",
          "name": "_token",
          "type": "address"
        },
        {
          "internalType": "address",
          "name": "_taker",
          "type": "address"
        },
        {
          "internalType": "uint256",
          "name": "_dealID",
          "type": "uint256"
        },
        {
          "internalType": "uint256",
          "name": "_amount",
          "type": "uint256"
        },
        {
          "internalType": "enum IPerpetual.TradeType",
          "name": "_tradeType",
          "type": "uint8"
        },
        {
          "internalType": "uint256",
          "name": "_currentPrice",
          "type": "uint256"
        },
        {
          "internalType": "uint256",
          "name": "_leverage",
          "type": "uint256"
        },
        {
          "internalType": "uint256",
          "name": "_margin",
          "type": "uint256"
        },
        {
          "internalType": "uint256",
          "name": "_tradeFeeRate",
          "type": "uint256"
        },
        {
          "internalType": "uint256",
          "name": "_profit",
          "type": "uint256"
        },
        {
          "internalType": "uint256",
          "name": "_loss",
          "type": "uint256"
        }
      ],
      "name": "closeDealEvent",
      "outputs": [],
      "stateMutability": "nonpayable",
      "type": "function"
    },
    {
      "inputs": [
        {
          "internalType": "address",
          "name": "_token",
          "type": "address"
        },
        {
          "internalType": "address",
          "name": "_taker",
          "type": "address"
        },
        {
          "internalType": "string",
          "name": "_name",
          "type": "string"
        },
        {
          "internalType": "uint256",
          "name": "_amount",
          "type": "uint256"
        },
        {
          "internalType": "uint256",
          "name": "_currentPrice",
          "type": "uint256"
        },
        {
          "internalType": "enum ICommon.Direct",
          "name": "_type",
          "type": "uint8"
        },
        {
          "internalType": "uint256",
          "name": "_limitID",
          "type": "uint256"
        }
      ],
      "name": "closeOrder",
      "outputs": [
        {
          "components": [
            {
              "internalType": "uint256",
              "name": "costPrice",
              "type": "uint256"
            },
            {
              "internalType": "uint256",
              "name": "totalMargin",
              "type": "uint256"
            },
            {
              "internalType": "uint256",
              "name": "tradingFee",
              "type": "uint256"
            },
            {
              "internalType": "uint256",
              "name": "gain",
              "type": "uint256"
            },
            {
              "internalType": "uint256",
              "name": "loss",
              "type": "uint256"
            }
          ],
          "internalType": "struct ICommon.CloseOrderResult",
          "name": "bulk",
          "type": "tuple"
        }
      ],
      "stateMutability": "nonpayable",
      "type": "function"
    },
    {
      "inputs": [
        {
          "internalType": "address",
          "name": "_token",
          "type": "address"
        },
        {
          "internalType": "address",
          "name": "_user",
          "type": "address"
        },
        {
          "internalType": "string",
          "name": "_name",
          "type": "string"
        },
        {
          "internalType": "uint256",
          "name": "_price",
          "type": "uint256"
        }
      ],
      "name": "getMaxOpenAmount",
      "outputs": [
        {
          "internalType": "uint256",
          "name": "amount",
          "type": "uint256"
        }
      ],
      "stateMutability": "view",
      "type": "function"
    },
    {
      "inputs": [
        {
          "internalType": "address",
          "name": "_token",
          "type": "address"
        },
        {
          "internalType": "address",
          "name": "_user",
          "type": "address"
        },
        {
          "internalType": "string[]",
          "name": "_symbols",
          "type": "string[]"
        },
        {
          "internalType": "uint256[]",
          "name": "_prices",
          "type": "uint256[]"
        }
      ],
      "name": "getMaxWithdrawableAmount",
      "outputs": [
        {
          "internalType": "uint256",
          "name": "_amount",
          "type": "uint256"
        }
      ],
      "stateMutability": "view",
      "type": "function"
    },
    {
      "inputs": [
        {
          "internalType": "address",
          "name": "_token",
          "type": "address"
        },
        {
          "internalType": "address",
          "name": "_user",
          "type": "address"
        },
        {
          "internalType": "string[]",
          "name": "_symbols",
          "type": "string[]"
        },
        {
          "internalType": "uint256[]",
          "name": "_prices",
          "type": "uint256[]"
        }
      ],
      "name": "getPNL",
      "outputs": [
        {
          "internalType": "bool",
          "name": "flag",
          "type": "bool"
        },
        {
          "internalType": "uint256",
          "name": "amount",
          "type": "uint256"
        }
      ],
      "stateMutability": "view",
      "type": "function"
    },
    {
      "inputs": [
        {
          "internalType": "address",
          "name": "_token",
          "type": "address"
        },
        {
          "internalType": "address",
          "name": "_taker",
          "type": "address"
        },
        {
          "internalType": "string",
          "name": "_name",
          "type": "string"
        },
        {
          "internalType": "uint256",
          "name": "_price",
          "type": "uint256"
        },
        {
          "internalType": "uint8",
          "name": "_direction",
          "type": "uint8"
        }
      ],
      "name": "getPNLByCertainPosition",
      "outputs": [
        {
          "internalType": "uint256",
          "name": "profit",
          "type": "uint256"
        },
        {
          "internalType": "uint256",
          "name": "loss",
          "type": "uint256"
        }
      ],
      "stateMutability": "view",
      "type": "function"
    },
    {
      "inputs": [
        {
          "internalType": "address",
          "name": "_token",
          "type": "address"
        },
        {
          "internalType": "address",
          "name": "_taker",
          "type": "address"
        },
        {
          "internalType": "string[]",
          "name": "_symbols",
          "type": "string[]"
        },
        {
          "internalType": "uint256[]",
          "name": "_prices",
          "type": "uint256[]"
        }
      ],
      "name": "getPNLByPosition",
      "outputs": [
        {
          "internalType": "uint256",
          "name": "totalProfit",
          "type": "uint256"
        },
        {
          "internalType": "uint256",
          "name": "totalLoss",
          "type": "uint256"
        }
      ],
      "stateMutability": "view",
      "type": "function"
    },
    {
      "inputs": [
        {
          "internalType": "address",
          "name": "token",
          "type": "address"
        }
      ],
      "name": "getShareNetValue",
      "outputs": [
        {
          "internalType": "uint256",
          "name": "",
          "type": "uint256"
        }
      ],
      "stateMutability": "view",
      "type": "function"
    },
    {
      "inputs": [
        {
          "internalType": "address",
          "name": "_priPool",
          "type": "address"
        },
        {
          "internalType": "address",
          "name": "_perpetual",
          "type": "address"
        }
      ],
      "name": "initialize",
      "outputs": [],
      "stateMutability": "nonpayable",
      "type": "function"
    },
    {
      "inputs": [
        {
          "internalType": "uint256",
          "name": "_dealID",
          "type": "uint256"
        },
        {
          "internalType": "uint256",
          "name": "_price",
          "type": "uint256"
        }
      ],
      "name": "liquidateMakerDeal",
      "outputs": [
        {
          "internalType": "bool",
          "name": "isLiquidated",
          "type": "bool"
        },
        {
          "internalType": "bool",
          "name": "isAgreement",
          "type": "bool"
        },
        {
          "internalType": "uint256",
          "name": "userProfit",
          "type": "uint256"
        }
      ],
      "stateMutability": "nonpayable",
      "type": "function"
    },
    {
      "inputs": [
        {
          "internalType": "uint256[]",
          "name": "_dealIDs",
          "type": "uint256[]"
        },
        {
          "internalType": "string[]",
          "name": "_symbols",
          "type": "string[]"
        },
        {
          "internalType": "uint256[]",
          "name": "_prices",
          "type": "uint256[]"
        }
      ],
      "name": "liquidateMakerDeals",
      "outputs": [],
      "stateMutability": "nonpayable",
      "type": "function"
    },
    {
      "inputs": [],
      "name": "owner",
      "outputs": [
        {
          "internalType": "address",
          "name": "",
          "type": "address"
        }
      ],
      "stateMutability": "view",
      "type": "function"
    },
    {
      "inputs": [],
      "name": "renounceOwnership",
      "outputs": [],
      "stateMutability": "nonpayable",
      "type": "function"
    },
    {
      "inputs": [
        {
          "internalType": "address",
          "name": "_orderBook",
          "type": "address"
        },
        {
          "internalType": "address",
          "name": "_station",
          "type": "address"
        },
        {
          "internalType": "address",
          "name": "keeper",
          "type": "address"
        }
      ],
      "name": "setKeepers",
      "outputs": [],
      "stateMutability": "nonpayable",
      "type": "function"
    },
    {
      "inputs": [
        {
          "internalType": "address",
          "name": "newOwner",
          "type": "address"
        }
      ],
      "name": "transferOwnership",
      "outputs": [],
      "stateMutability": "nonpayable",
      "type": "function"
    },
    {
      "inputs": [
        {
          "internalType": "string",
          "name": "_name",
          "type": "string"
        },
        {
          "internalType": "enum ICommon.Direct",
          "name": "_type",
          "type": "uint8"
        }
      ],
      "name": "verifyTradeStatus",
      "outputs": [],
      "stateMutability": "view",
      "type": "function"
    }
  ],
  "bytecode": "0x60808060405234601557614585908161001b8239f35b600080fdfe60c0604052600436101561001a575b3461001557005b600080fd5b60003560e01c8063016f4dcb14611a345780630414065b1461191457806307e71485146113af57806310881a73146112d85780633ca1451a146111b1578063459bb6731461118e578063485cc95514610ecd5780635094235514610e43578063642bcd1814610dd8578063715018a614610d325780638da5cb5b14610cec578063c1d159d214610c0f578063c2b3356414610aea578063ca6ec37214610989578063d0e3d0dc146107be578063d15a1b4114610794578063d719606a1461075e578063e6b34c691461073b578063ea270eb2146106db578063eb4f2e3614610312578063f10f4fa0146102ea578063f1257f84146101c0578063f2fde38b146101955763f69ef33b0361000e57346100155761013536611d50565b81519061014182612406565b9260005b83811061015e576040518061015a8782611d14565b0390f35b8061018061016e60019385612437565b516101798387612437565b519061396c565b61018a8288612437565b901515905201610145565b34610015576020600319360112610015576101be6101b1611b3b565b6101b96140ba565b6138a0565b005b3461001557610160600319360112610015576101da611b3b565b6101e2611b51565b608435906064356005831015610015577f85a6bfd765950245f4f456c74db06ee8bad5a7ea04b80581aa7563d196421f6661018060a435946101243593610144359633600052600460205261023e60ff60406000205416611e13565b670de0b6b3a76400008061025e836102598661010435611ff0565b611ff0565b040491610269613cf7565b93604051946001600160a01b038c168652602086015260443560408601526060850152608084015260a083015260c082015260c43560e082015260e435610100820152836101208201528561014082015242610160820152a1806102d9575b50816102d057005b6101be926143a8565b6102e490828561435d565b836102c8565b346100155760406103066102fd36611d9f565b92919091613819565b82519182526020820152f35b346100155760606003193601126100155760043567ffffffffffffffff811161001557610343903690600401611cb7565b60243567ffffffffffffffff811161001557610363903690600401611c38565b9060443567ffffffffffffffff811161001557610384903690600401611cb7565b9033600052600460205261039f60ff60406000205416611e13565b805191600090602085019060208101925b8581106103b957005b6001600160a01b0360025416906103d08187612437565b519160405180937fdcee347500000000000000000000000000000000000000000000000000000000825260648201906004830152606060248301528a51809152608482019060848160051b84010191889160005b81811061069057505050506003198282030160448301526020865191828152019088906000905b80821061067457505050918160008160c09503925af180156105d457600080808092819682956105f9575b50816105f1575b50610490575b50505060019150016103b0565b6001600160a01b036001541694853b1561001557604051927fd3c2d8b70000000000000000000000000000000000000000000000000000000084526001600160a01b03811694856004860152600085606481836001600160a01b0388169c8d60248401528160448401525af19485156105d457610555956105e0575b50610517838361411b565b93610523818651612023565b855261053d8261053860208801938451612023565b612023565b905261054e60408501918251611fe3565b9052614441565b6001600160a01b036001541692833b156100155760646000928360405196879485937fd3c2d8b700000000000000000000000000000000000000000000000000000000855260048501526024840152600a60448401525af19182156105d4576001926105c3575b8080610483565b60006105ce91611b00565b886105bc565b6040513d6000823e3d90fd5b60006105eb91611b00565b8e61050c565b90508c61047d565b9650509250505060c0833d821161066c575b8161061860c09383611b00565b81010312610669575061062a826137e7565b91610637602082016137e7565b9060408101519161064a60608301611e5e565b9060a061065960808501611e5e565b930151959093919295938d610476565b80fd5b3d915061060b565b919350916020806001928651815201940192018693929161044b565b919360206106cb827fffffffffffffffffffffffffffffffffffffffffffffffffffffffffffffff7c600195979984950301885288516137f4565b9601940191019187949392610424565b346100155760a0600319360112610015576106f4611b3b565b6106fc611b51565b60443567ffffffffffffffff81116100155761071c903690600401611bf1565b916084359060ff8216820361001557604093610306936064359261374a565b3461001557602061075461074e36611a7e565b9061333d565b6040519015158152f35b3461001557608061077a61077136611d9f565b92919091613293565b916040519315158452602084015260408301526060820152f35b346100155760406107b06107a736611d9f565b92919091613262565b825191151582526020820152f35b346100155760406003193601126100155760043567ffffffffffffffff8111610015576107ef903690600401611bf1565b6024359060038210156100155761080d6001600160a01b03916141e8565b1680156109455760c0600491604051928380927f639122c90000000000000000000000000000000000000000000000000000000082525afa80156105d45760a091600091610916575b5001516108d25761086681611fd9565b600181149081156108be575b501561087a57005b606460405162461bcd60e51b815260206004820152600a60248201527f77726f6e672074797065000000000000000000000000000000000000000000006044820152fd5b600291506108cb81611fd9565b1481610872565b606460405162461bcd60e51b815260206004820152601360248201527f446f206e6f7420747261646520737461747573000000000000000000000000006044820152fd5b610938915060c03d60c01161093e575b6109308183611b00565b8101906131ff565b83610856565b503d610926565b606460405162461bcd60e51b815260206004820152600960248201527f756e537570706f727400000000000000000000000000000000000000000000006044820152fd5b346100155760a060031936011261001557600435600381101561001557602435604435906064356084359360016000916109c281611fd9565b03610a9a57509192909190838310610a7257670de0b6b3a7640000936109f8836109f36109fe94610a049796611ff0565b612003565b92611fe3565b90611ff0565b046000905b80158015610a6a575b15610a265760409182519182526020820152f35b606460405162461bcd60e51b815260206004820152600960248201527f504e4c206572726f7200000000000000000000000000000000000000000000006044820152fd5b508115610a12565b926109fe670de0b6b3a7640000936109f8610a93946109f360009882611ff0565b0490610a09565b838311610aca5750610ac192916109f8826109f3670de0b6b3a7640000976109fe95611ff0565b04600090610a09565b670de0b6b3a7640000936109f8610a9394936109f36109fe949882611ff0565b3461001557606060031936011261001557610b03611b51565b604435908115158092036100155760406000923384526004602052610b2d60ff8386205416611e13565b60646001600160a01b036002541691835195869384927fc2b3356400000000000000000000000000000000000000000000000000000000845260043560048501526001600160a01b038816602485015260448401525af19081156105d4576000928392610bcc575b5081610b9d57005b82610bab826101be9561411b565b9260208401610bbb828251612023565b905261054e60608501918251611fe3565b929091506040833d604011610c07575b81610be960409383611b00565b8101031261066957506020610bfd83611e5e565b9201519083610b95565b3d9150610bdc565b3461001557610c36610c2036611d9f565b60009491610c2e848661411b565b938695613262565b9015610ce4575b50604081015192610c4c6143f3565b670de0b6b3a764000003670de0b6b3a76400008111610cce57610c7a670de0b6b3a764000091602096611ff0565b04818110610c9257505082915001515b604051908152f35b9091840182610ca2838351612023565b1015610cb1575b505050610c8a565b610cc6935090610cc19151612023565b611fe3565b828080610ca9565b634e487b7160e01b600052601160045260246000fd5b925083610c3d565b346100155760006003193601126100155760206001600160a01b037f9016d09d72d40fdae2fd8ceac6b6234c7706214fd39c1cd1e609a0528c1993005416604051908152f35b3461001557600060031936011261001557610d4b6140ba565b60006001600160a01b037f9016d09d72d40fdae2fd8ceac6b6234c7706214fd39c1cd1e609a0528c1993005473ffffffffffffffffffffffffffffffffffffffff1981167f9016d09d72d40fdae2fd8ceac6b6234c7706214fd39c1cd1e609a0528c19930055167f8be0079c531659141344cd1fd0a4f28419497f9722a3daafe3b4186f6b6457e08280a3005b3461001557610de636611d50565b90610df18151612406565b9160005b8251811015610e355780610e20610e0e60019386612437565b51610e198386612437565b519061333d565b610e2a8287612437565b901515905201610df5565b6040518061015a8682611d14565b346100155760c060031936011261001557610e5c611b3b565b610e64611b51565b60443567ffffffffffffffff811161001557610e84903690600401611bf1565b9060643592600384101561001557604093610ebf93336000526004602052610eb260ff876000205416611e13565b60a4359360843593612b28565b825191825215156020820152f35b3461001557604060031936011261001557610ee6611b3b565b610eee611b51565b907ff0c57e16840df040f15088dc2f81fe391c3923bec73e23a9662efc9c229c6a00549160ff8360401c16159267ffffffffffffffff811680159081611186575b600114908161117c575b159081611173575b50611149576001600160a01b0392818560017fffffffffffffffffffffffffffffffffffffffffffffffff0000000000000000879516177ff0c57e16840df040f15088dc2f81fe391c3923bec73e23a9662efc9c229c6a00556110f4575b50610fa86144f6565b610fb06144f6565b610fb9336138a0565b168073ffffffffffffffffffffffffffffffffffffffff19600054161760005560005260046020526040600020600160ff19825416179055168073ffffffffffffffffffffffffffffffffffffffff19600154161760015560005260046020526040600020600160ff198254161790553360005260046020526040600020600160ff198254161790553060005260046020526040600020600160ff1982541617905561106157005b7fffffffffffffffffffffffffffffffffffffffffffffff00ffffffffffffffff7ff0c57e16840df040f15088dc2f81fe391c3923bec73e23a9662efc9c229c6a0054167ff0c57e16840df040f15088dc2f81fe391c3923bec73e23a9662efc9c229c6a00557fc7f505b2f371ae2175ee4913f4499e1f2633a7b5936321eed1cdaeb6115181d2602060405160018152a1005b7fffffffffffffffffffffffffffffffffffffffffffffff0000000000000000001668010000000000000001177ff0c57e16840df040f15088dc2f81fe391c3923bec73e23a9662efc9c229c6a005585610f9f565b7ff92ee8a90000000000000000000000000000000000000000000000000000000060005260046000fd5b90501585610f41565b303b159150610f39565b859150610f2f565b34610015576020600319360112610015576020610c8a6111ac611b3b565b61250c565b34610015576080600319360112610015576111ca611b3b565b6111d2611b51565b9060443567ffffffffffffffff8111610015576001600160a01b0361121c611216611204610100943690600401611bf1565b8661121082988861411b565b96613c51565b946141e8565b16926064604051809581937f32a845020000000000000000000000000000000000000000000000000000000083526402540be40060048401528335602484015260448301525afa9182156105d4576000926112a4575b5060200151906402540be4008202918083046402540be4001490151715610cce576020916060610c8a92015190612003565b60209192506112ca906101003d81116112d1575b6112c28183611b00565b81019061248c565b9190611272565b503d6112b8565b34610015576060600319360112610015576112f1611b3b565b6112f9611b51565b604435916001600160a01b038316809303610015576001600160a01b0380916113206140ba565b16918260005260046020526040600020600160ff1982541617905516918260005260046020526040600020600160ff1982541617905560005260046020526040600020600160ff1982541617905573ffffffffffffffffffffffffffffffffffffffff19600254161760025573ffffffffffffffffffffffffffffffffffffffff196003541617600355600080f35b346100155760e0600319360112610015576113c8611b3b565b6113d0611b51565b9060443567ffffffffffffffff8111610015576113f1903690600401611bf1565b90600360a43510156100155760c43590611409612461565b5033600052600460205261142460ff60406000205416611e13565b61142c612461565b608052611437612ae7565b9361144360a435611fd9565b61145961145160a435612b15565b85838561428a565b979192905060208201926060830198895283528152600060e060405161147e81611a94565b8281528260208201528260408201528260608201528260808201528260a08201528260c082015201526114b2868486613c51565b80602060805101526101006001600160a01b036114ce896141e8565b16916064604051809481937f32a8450200000000000000000000000000000000000000000000000000000000835283356004840152608435602484015260448301525afa80156105d4576040916000916118f5575b5001516080516040019081529660001986036118a7578251905161154691611fe3565b60643511611863575b51670de0b6b3a7640000810290808204670de0b6b3a76400001490151715610cce57815161157c91612003565b6080515261158b60a435611fd9565b6115a461159960a435612b15565b60843587858761374a565b6080809392935101528160606080510152805160643510611820575b505060009182958360808051015283606060805101526115e460a435878585613d95565b60a052835b60a0515181101561181557600061160160a435611fd9565b60a4356001036117d457506116188160a051612437565b515b6064358610156116a7576000198103611637575b506001016115e9565b9061169a8661168861167c61166c8b6001976116769f9c61165a90606435611fe3565b90602060805101519160843591613ea8565b90929f9195612023565b9a612023565b9b608080510151612023565b60808051015260606080510151612023565b606060805101529061162e565b505093909492505b6116b7613cf7565b916080515191602060805101519551936001600160a01b036116e6604051976101a089526101a08901906137f4565b9816602087015260408601526116fd60a435611fd9565b60a43560608601527f52e38618358c614d6c859d2d6481831837d95cf94ee1be20b2243cbb5f69addc9585946001600160a01b03946003608088015260643560a088015260c087015260843560e0870152610100860152610120850152876101408501526101608401524261018084015216930390a261177b613d45565b506020608051015260a06040516117bc8160805160808091805184526020810151602085015260408101516040850152606081015160608501520151910152565bf35b634e487b7160e01b600052602160045260246000fd5b6117e18260a05151611fe3565b90600019820191821161180157506117fb9060a051612437565b5161161a565b80634e487b7160e01b602492526011600452fd5b5093909492506116af565b61183b61183361185b9360643590611ff0565b825190612003565b60606080510152611853606435608080510151611ff0565b905190612003565b5085806115c0565b606460405162461bcd60e51b815260206004820152601360248201527f636c6f736520616d6f756e7420657863656564000000000000000000000000006044820152fd5b51606435111561154f57606460405162461bcd60e51b815260206004820152601b60248201527f616d6f756e74206973206772656174207468656e20667265657a6500000000006044820152fd5b61190e91506101003d81116112d1576112c28183611b00565b89611523565b346100155760806003193601126100155760043567ffffffffffffffff811161001557611945903690600401611b67565b60243567ffffffffffffffff811161001557611965903690600401611b67565b9060443567ffffffffffffffff811161001557611986903690600401611c38565b60643567ffffffffffffffff8111610015576119a6903690600401611cb7565b906119bc6119b78551855190611ff0565b612406565b916000915b8451831015610e355760005b8651811015611a29579560018097611a0e85856001600160a01b036119f28a8d612437565b51166001600160a01b03611a068689612437565b511690613293565b505050611a1b8789612437565b9015159052019096506119cd565b5091600101916119c1565b34610015576060611a67611a4736611a7e565b90336000526004602052611a6260ff60406000205416611e13565b612030565b906040519215158352151560208301526040820152f35b6003196040910112610015576004359060243590565b610100810190811067ffffffffffffffff821117611ab157604052565b634e487b7160e01b600052604160045260246000fd5b6101a0810190811067ffffffffffffffff821117611ab157604052565b60a0810190811067ffffffffffffffff821117611ab157604052565b90601f601f19910116810190811067ffffffffffffffff821117611ab157604052565b67ffffffffffffffff8111611ab15760051b60200190565b600435906001600160a01b038216820361001557565b602435906001600160a01b038216820361001557565b9080601f8301121561001557813590611b7f82611b23565b92611b8d6040519485611b00565b82845260208085019360051b82010191821161001557602001915b818310611bb55750505090565b82356001600160a01b038116810361001557815260209283019201611ba8565b67ffffffffffffffff8111611ab157601f01601f191660200190565b81601f8201121561001557803590611c0882611bd5565b92611c166040519485611b00565b8284526020838301011161001557816000926020809301838601378301015290565b9080601f83011215610015578135611c4f81611b23565b92611c5d6040519485611b00565b81845260208085019260051b820101918383116100155760208201905b838210611c8957505050505090565b813567ffffffffffffffff811161001557602091611cac87848094880101611bf1565b815201910190611c7a565b9080601f83011215610015578135611cce81611b23565b92611cdc6040519485611b00565b81845260208085019260051b82010192831161001557602001905b828210611d045750505090565b8135815260209182019101611cf7565b602060408183019282815284518094520192019060005b818110611d385750505090565b82511515845260209384019390920191600101611d2b565b9060406003198301126100155760043567ffffffffffffffff81116100155782611d7c91600401611cb7565b916024359067ffffffffffffffff821161001557611d9c91600401611cb7565b90565b906080600319830112610015576004356001600160a01b038116810361001557916024356001600160a01b0381168103610015579160443567ffffffffffffffff81116100155782611df391600401611c38565b916064359067ffffffffffffffff821161001557611d9c91600401611cb7565b15611e1a57565b606460405162461bcd60e51b815260206004820152601a60248201527f63616c6c6572206973206e6f74206167656e74206b65657065720000000000006044820152fd5b51906001600160a01b038216820361001557565b60005b838110611e855750506000910152565b8181015183820152602001611e75565b81601f82011215610015578051611eab81611bd5565b92611eb96040519485611b00565b8184526020828401011161001557611d9c9160208085019101611e72565b6020818303126100155780519067ffffffffffffffff82116100155701906101a0828203126100155760405191611f0d83611ac7565b611f1681611e5e565b8352611f2460208201611e5e565b602084015260408101516003811015610015576040840152606081015160068110156100155760608401526080810151600381101561001557608084015260a081015160a084015260c081015167ffffffffffffffff81116100155761018092611f8f918301611e95565b60c084015260e081015160e0840152610100810151610100840152610120810151610120840152610140810151610140840152610160810151610160840152015161018082015290565b600311156117be57565b91908203918211610cce57565b81810292918115918404141715610cce57565b811561200d570490565b634e487b7160e01b600052601260045260246000fd5b91908201809211610cce57565b9160249060006001600160a01b0360025416604051938480926320bf56eb60e21b82528860048301525afa9182156105d4576000926123e3575b50612075838561396c565b156123d757604082016001815161208b81611fd9565b61209481611fd9565b14806123c9575b156122e15760e0830193845195670de0b6b3a76400006120c56101008701986109fe8a5186611fe3565b04946120d2838784613b74565b909a925098908a156122ce57808903612271575b5050505b6001600160a01b038151169060208101936121176001600160a01b038651169360c0840194855191613c51565b916001600160a01b0380825116965116935196612132613cf7565b90519161213e83611fd9565b60e08101958651996101008301519061014084019586519561216d604051936101a085526101a08501906137f4565b9c6020840152604083015261218181611fd9565b6060820152806101809b6001600160a01b03967f52e38618358c614d6c859d2d6481831837d95cf94ee1be20b2243cbb5f69addc947f85a6bfd765950245f4f456c74db06ee8bad5a7ea04b80581aa7563d196421f669f6005608086015260a085015260c08401528960e084015260006101008401528a610120840152610140830152600019610160830152428d8301520390a2511694612220613d45565b94519151946040519687526020870152604086015260036060860152608085015260a0840152600060c084015260e083015261010082015284610120820152600061014082015242610160820152a1565b90929450612299919750670de0b6b3a764000061229382998551905190611ff0565b04612023565b670de0b6b3a7640000810290808204670de0b6b3a76400001490151715610cce576122c5915190612003565b913880806120e6565b5060009950899850889750505050505050565b600281516122ee81611fd9565b6122f781611fd9565b14806123bb575b156123ae5760e0830193845195670de0b6b3a76400006123286101008701986109fe858b51611fe3565b0494612335838784613b74565b909a925098908a156122ce57808903612351575b5050506120ea565b90929450612379919750670de0b6b3a764000061237382998551905190611ff0565b04611fe3565b670de0b6b3a7640000810290808204670de0b6b3a76400001490151715610cce576123a5915190612003565b91388080612349565b5060009350839250829150565b5083610100840151116122fe565b50610100830151841161209b565b60009350839250829150565b6123ff91923d8091833e6123f78183611b00565b810190611ed7565b903861206a565b9061241082611b23565b61241d6040519182611b00565b828152601f1961242d8294611b23565b0190602036910137565b805182101561244b5760209160051b010190565b634e487b7160e01b600052603260045260246000fd5b6040519061246e82611ae4565b60006080838281528260208201528260408201528260608201520152565b90816101009103126100155760e0604051916124a783611a94565b805183526020810151602084015260408101516040840152606081015160608401526080810151608084015260a081015160a084015260c081015160c0840152015160e082015290565b90816060910312610015578051916040602083015192015190565b906001600160a01b0360608160005416936024604051809481937fc3a828b200000000000000000000000000000000000000000000000000000000835216968760048301525afa9081156105d45760009182918391612ab5575b5082159081159182612aad575b612a9c5782149081612a94575b50612a675760049360006001600160a01b0360015416604051968780927fcd2ce4ae0000000000000000000000000000000000000000000000000000000082525afa9485156105d4576000956129a6575b5060009392919391829183946001600160a01b03855416926001600160a01b03865416955b89518810156128ec57612609888b612437565b5190600460206001600160a01b03612620856141e8565b16604051928380927f98d5fdca0000000000000000000000000000000000000000000000000000000082525afa9081156105d4576000916128bb575b5080156128b057604051926040840184811067ffffffffffffffff821117611ab157604052600084526020840192600084526000604051907f0c8c3516000000000000000000000000000000000000000000000000000000008252896004830152606060248301526040828c81806126d7606482018a6137f4565b86604483015203915afa9182156128a35790859291818093612862575b50508187528752670de0b6b3a76400009161270e91611ff0565b0490855180831015600014612848575061272f612781939261273792612023565b865190611fe3565b935b60406000928d8b83518097819482937f0c8c351600000000000000000000000000000000000000000000000000000000845260048401526060602484015260648301906137f4565b6001604483015203915afa92831561283d578280946127fd575b50508290528452670de0b6b3a7640000916127b591611ff0565b049182815110156000146127de5791610cc16127d5926001945190612023565b975b01966125f6565b6127ef6001936127f7939b99612023565b905190611fe3565b956127d7565b91935091506040823d8211612835575b8161281a60409383611b00565b810103126106695750805160209091015191816127b561279b565b3d915061280d565b6040513d84823e3d90fd5b91610cc1612781949361285c93979d612023565b99612739565b92509250506040823d821161289b575b8161287f60409383611b00565b810103126106695750805160209091015184918061270e6126f4565b3d9150612872565b50604051903d90823e3d90fd5b5097600191506127d7565b906020823d82116128e4575b816128d460209383611b00565b810103126106695750513861265c565b3d91506128c7565b9496509692509650506128ff9250612023565b908082111561293c5761291191611fe3565b90670de0b6b3a7640000820291808304670de0b6b3a76400001490151715610cce57611d9c91612003565b608460405162461bcd60e51b815260206004820152602160248201527f657363726f77206163636f756e742073686f756c64206265206465746f6e617460448201527f65000000000000000000000000000000000000000000000000000000000000006064820152fd5b9490943d8083833e6129b88183611b00565b810190602081830312612a635780519067ffffffffffffffff8211612a5b570181601f82011215612a635780516129ee81611b23565b936129fc6040519586611b00565b81855260208086019260051b84010192848411612a5f5760208101925b848410612a2d5750505050505093386125d1565b835167ffffffffffffffff8111612a5b57602091612a5088848094870101611e95565b815201930192612a19565b8380fd5b5080fd5b8280fd5b919250670de0b6b3a7640000820291808304670de0b6b3a76400001490151715610cce57611d9c91612003565b905038612580565b50670de0b6b3a76400009450505050565b508215612573565b915050612ada915060603d606011612ae0575b612ad28183611b00565b8101906124f1565b38612566565b503d612ac8565b60405190612af482611ae4565b60606080836000815260006020820152600060408201526000838201520152565b60ff6000199116019060ff8211610cce57565b9293919490612b35612ae7565b9195612b4086611fd9565b612b54612b4c87612b15565b82848861428a565b94926020879993929901986040880196606089015286528189528652612b8257505050505050505090600090565b612b948383839c9a9c9b98999b613c51565b98612b9d613cf7565b9080519651670de0b6b3a7640000810290808204670de0b6b3a76400001490151715610cce57612bce915190612003565b9451956040516101a08152612be76101a08201876137f4565b926001600160a01b03851660208301526040820152612c058d611fd9565b606081018d9052612c86978d999d977f52e38618358c614d6c859d2d6481831837d95cf94ee1be20b2243cbb5f69addc936004608085015260a084015260c08301528a60e083015260006101008301528c61012083015261014082015260001961016082015242610180820152806001600160a01b038616930390a2613d95565b946000915b86518310156131e957600092612ca082611fd9565b600182149384156131bf5750612cb68189612437565b51935b602460006001600160a01b0360025416604051928380926320bf56eb60e21b82528a60048301525afa9081156105d4576000916131a6575b506060810180519060068210156117be5760016000921490811561317d575b50612d23575b5050506001019250612c8b565b9091948196828998612d3488611fd9565b888061316e575b156130695750612d6e670de0b6b3a7640000612d668c6109fe60e08a0151916101008b015190611fe3565b048094612023565b978885612f97575b505080608061010087015160e46001600160a01b038454169160405194859384927ff26a3e1d0000000000000000000000000000000000000000000000000000000084528960048501528260248501528a60448501528b606485015282608485015260a48401528160c48401525af1801561283d578291839284918593612f41575b50505050838103612efb575b5060019697987f85a6bfd765950245f4f456c74db06ee8bad5a7ea04b80581aa7563d196421f6692610180926001600160a01b0388511692612e44613cf7565b9260e08a0151906101408b0151946040519687526020870152604086015260036060860152608085015260a084015260c08301528d60e0830152610100820152836101208201528461014082015242610160820152a180612ed2575b5080612eaf575b859493612d16565b816001600160a01b03602081612ecb95511692015116906143a8565b3880612ea7565b612ef5906001600160a01b038451166001600160a01b036020860151169061435d565b38612ea0565b987f85a6bfd765950245f4f456c74db06ee8bad5a7ea04b80581aa7563d196421f6692612f338b610538610180959760019c9d611fe3565b9a9492509250989796612e04565b93505050506080813d8211612f8f575b81612f5e60809383611b00565b81010312612a5f578051602082015190612f866060612f7f604086016137e7565b94016137e7565b91929038612df8565b3d9150612f51565b919891858310612fb657505083612fad91611fe3565b965b3880612d76565b989950899891945081612fd157505061010084015197612faf565b612fda88611fd9565b156130475761300160e0860191670de0b6b3a764000061229384516101008a015190611ff0565b90670de0b6b3a7640000820291808304670de0b6b3a76400001490151715613033575161302d91612003565b97612faf565b60248a634e487b7160e01b81526011600452fd5b61300160e0860191670de0b6b3a764000061237384516101008a015190611ff0565b929361307488611fd9565b888061315f575b156130ad5750612d6e83670de0b6b3a76400006130a68d6109fe60e08b0151916101008c0151611fe3565b0495612023565b93926130b888611fd9565b600288148080613150575b156130ee575050612d6e670de0b6b3a7640000612d668c6109fe60e08a0151916101008b0151611fe3565b9093906130fa89611fd9565b80613141575b61310f575b83612d6e91612023565b9350612d6e83670de0b6b3a76400006131378d6109fe60e08b0151916101008c015190611fe3565b0495915050613105565b506101008601518b1015613100565b506101008701518c11156130c3565b506101008601518b111561307b565b506101008601518b1015612d3b565b90505160068110156131925760021438612d10565b602482634e487b7160e01b81526021600452fd5b6131b9913d8091833e6123f78183611b00565b38612cf1565b6131ca828a51611fe3565b90600019820191821161180157506131e29089612437565b5193612cb9565b509350505091506131f8613d45565b5090600190565b908160c0910312610015576040519060c082019082821067ffffffffffffffff831117611ab15760a0916040528051835260208101516020840152604081015160408401526060810151606084015260808101516080840152015160a082015290565b9061326e939291613819565b90818110613285579061328091611fe3565b600191565b61328e91611fe3565b600091565b93926132c591926132a4848761411b565b93670de0b6b3a76400006132be60408701516109fe6143f3565b0496613819565b9081928282106132e4575b505050509050600090600090600090600090565b906132fe6132f793925193849284611fe3565b9687612023565b101561330a57806132d0565b81851115613326575061331d9084611fe3565b91600193929190565b9150506001929160009190565b600811156117be57565b60006001600160a01b0360025416916024604051809481937f0c3fc6b900000000000000000000000000000000000000000000000000000000835260048301525afa9081156105d45760009161353f575b5090610180820151421180156134f6575b6134ef5760808201600181516133b481611fd9565b6133bd81611fd9565b148061347e575b61347657600290516133d581611fd9565b6133de81611fd9565b1491826133f6575b50506133f157600090565b600190565b90915060408101916001835161340b81611fd9565b61341481611fd9565b149283613467575b831561342d575b50505038806133e6565b6002919293505161343d81611fd9565b61344681611fd9565b149182613458575b5050388080613423565b60e0015110159050388061344e565b60e0830151821015935061341c565b505050600190565b50604083016001815161349081611fd9565b61349981611fd9565b1490816134e0575b81156134ae575b506133c4565b60029150516134bc81611fd9565b6134c581611fd9565b14806134d2575b386134a8565b5060e08301518210156134cc565b60e085015184111591506134a1565b5050600090565b50606082016001815161350881613333565b61351181613333565b14159081613520575b5061339f565b600291505161352e81613333565b61353781613333565b14153861351a565b3d8083833e61354e8183611b00565b810190602081830312612a635780519067ffffffffffffffff8211612a5b5701906101a082820312612a63576040519261358784611ac7565b61359083611e5e565b845261359e60208401611e5e565b602085015260408301516003811015612a5f57604085015260608301516008811015612a5f57606085015260808301516003811015612a5f57608085015260a08301519067ffffffffffffffff821161066957508291613602916101809401611e95565b60a084015260c081015160c084015260e081015160e084015261010081015161010084015261012081015161012084015261014081015161014084015261016081015161016084015201516101808201523861338e565b91909280156136c85761369b670de0b6b3a764000091613686600080958198613680612ae7565b9861428a565b50604088015260208701819052908652611ff0565b04908251808310156000146136ba5750506136b7915190611fe3565b91565b90949350611d9c9250611fe3565b50505050600090600090565b939290919360009180156137415761371b670de0b6b3a764000091613706600186998798613700612ae7565b9761428a565b50604087015260208601819052908552611ff0565b825191900492508211613735576136b79293945051611fe3565b611d9c92505190611fe3565b50509250508190565b929391909380156137da57670de0b6b3a764000061379160ff9261377c8660009660009a613776612ae7565b9a61428a565b5060408a015260208901819052908852611ff0565b0492166137c05782518083106137b057506136b792916127ef91612023565b611d9c9350610cc1919594612023565b825190949392908211613735576136b79293945051611fe3565b5050505050600090600090565b5190811515820361001557565b90601f19601f60209361381281518092818752878088019101611e72565b0116010190565b600094938592835b85518510156138965761388d866105388761388760019561053861387f8b8b8b61387888613871613869613855838f612437565b516138608488612437565b51908689613659565b9b909d612437565b5193612437565b51926136d4565b969092612023565b9b612023565b94019396613821565b9695945050505050565b6001600160a01b0316801561393d576001600160a01b037f9016d09d72d40fdae2fd8ceac6b6234c7706214fd39c1cd1e609a0528c199300548273ffffffffffffffffffffffffffffffffffffffff198216177f9016d09d72d40fdae2fd8ceac6b6234c7706214fd39c1cd1e609a0528c19930055167f8be0079c531659141344cd1fd0a4f28419497f9722a3daafe3b4186f6b6457e0600080a3565b7f1e4fbdf700000000000000000000000000000000000000000000000000000000600052600060045260246000fd5b60249160006001600160a01b0360025416604051948580926320bf56eb60e21b82528660048301525afa9283156105d457600093613b59575b50606083019283519360068510156117be57600160009514159081613b2f575b508015613b27575b613b055760408101600181516139e281611fd9565b6139eb81611fd9565b1480613b19575b15613abd5750613a228160e0613a19602095610100670de0b6b3a764000096015190611fe3565b91015190611ff0565b045b60446001600160a01b038554169360405194859384927fd3c76d66000000000000000000000000000000000000000000000000000000008452600484015260248301525afa918215613ab1578092613a7b57505090565b9091506020823d602011613aa9575b81613a9760209383611b00565b810103126106695750611d9c906137e7565b3d9150613a8a565b604051903d90823e3d90fd5b60029051613aca81611fd9565b613ad381611fd9565b1480613b0b575b15613b0557613aff8160e0613a19602095610100670de0b6b3a7640000960151611fe3565b04613a24565b50505090565b506101008101518210613ada565b5061010082015183116139f2565b5081156139cd565b9050516006811015613b455760021415386139c5565b602485634e487b7160e01b81526021600452fd5b613b6d91933d8091833e6123f78183611b00565b91386139a5565b9060e460809260006001600160a01b0381541660405196879586947ff26a3e1d000000000000000000000000000000000000000000000000000000008652600486015260016024860152604485015282606485015282608485015260a4840152600160c48401525af180156105d4576000928380938193613bf7575b5093929190565b9450915091506080833d608011613c49575b81613c1660809383611b00565b810103126106695750815190602083015190613c406060613c39604087016137e7565b95016137e7565b91939238613bf0565b3d9150613c09565b906001600160a01b039283602093613cb2826001541693604051978896879586957f702c2b740000000000000000000000000000000000000000000000000000000087521660048601521660248401526060604484015260648301906137f4565b03915afa9081156105d457600091613cc8575090565b90506020813d602011613cef575b81613ce360209383611b00565b81010312610015575190565b3d9150613cd6565b600460206001600160a01b0360025416604051928380927fc3710f250000000000000000000000000000000000000000000000000000000082525afa9081156105d457600091613cc8575090565b600060206001600160a01b03600254166004604051809481937fb99ac9270000000000000000000000000000000000000000000000000000000083525af19081156105d457600091613cc8575090565b916001600160a01b036000938195613df6836002541694604051988997889687967fec4082910000000000000000000000000000000000000000000000000000000088521660048701521660248501526080604485015260848401906137f4565b90613e0081611fd9565b606483015203915afa9081156105d457600091613e1b575090565b3d8083833e613e2a8183611b00565b810190602081830312612a635780519067ffffffffffffffff8211612a5b570181601f82011215612a6357805190613e6182611b23565b93613e6f6040519586611b00565b82855260208086019360051b8301019384116106695750602001905b828210613e985750505090565b8151815260209182019101613e8b565b949391949290926001600160a01b03600254166040516320bf56eb60e21b8152826004820152600081602481855afa9081156105d4576000916140a1575b50606081019586519660068810156117be57600160009814159081614077575b50614067578691600460c06001600160a01b03613f25828501516141e8565b16604051928380927f639122c90000000000000000000000000000000000000000000000000000000082525afa90811561405c579260e495926000196060999896938c96879161403d575b505160e0830151909381811061403557509a5b0361402d575b6040015196613f9788611fd9565b6040519c8d9889977f17900de000000000000000000000000000000000000000000000000000000000895260048901528b6024890152613fd681611fd9565b60448801526064870152608486015260a485015260c48401525af1801561283d5782948391614006575b50919392565b91945050614023915060603d606011612ae057612ad28183611b00565b9193909138614000565b899250613f89565b90509a613f83565b614056915060c03d60c01161093e576109308183611b00565b38613f70565b6040513d8b823e3d90fd5b5050505050508092509180918190565b905051600681101561408d576002141538613f06565b602488634e487b7160e01b81526021600452fd5b6140b4913d8091833e6123f78183611b00565b38613ee6565b6001600160a01b037f9016d09d72d40fdae2fd8ceac6b6234c7706214fd39c1cd1e609a0528c199300541633036140ed57565b7f118cdaa7000000000000000000000000000000000000000000000000000000006000523360045260246000fd5b6001600160a01b03604460a092614130612461565b5082600154168360405196879586947fccf1a4b20000000000000000000000000000000000000000000000000000000086521660048501521660248301525afa9081156105d457600091614182575090565b905060a0813d60a0116141e0575b8161419d60a09383611b00565b81010312610015576080604051916141b483611ae4565b805183526020810151602084015260408101516040840152606081015160608401520151608082015290565b3d9150614190565b6020614235916001600160a01b036001541660405180809581947f05ca57cf00000000000000000000000000000000000000000000000000000000835286600484015260248301906137f4565b03915afa9081156105d45760009161424b575090565b6020813d602011614282575b8161426460209383611b00565b81010312612a5f5751906001600160a01b0382168203610669575090565b3d9150614257565b916001600160a01b03608093819560ff6142ec846002541695604051998a98899788977f3a0204a900000000000000000000000000000000000000000000000000000000895216600488015216602486015288604486015260848501906137f4565b9116606483015203915afa80156105d4576000928380938193614310575093929190565b9450915091506080833d608011614355575b8161432f60809383611b00565b810103126106695750815160208301516040840151606090940151909392909138613bf0565b3d9150614322565b90917feb42cf637f927243245c50b4bf7fe105fe4f4d26209102240f2ba3d8e27a7df860606001600160a01b03806000966040519560048752602087015242604087015216941692a4565b90917feb42cf637f927243245c50b4bf7fe105fe4f4d26209102240f2ba3d8e27a7df860606001600160a01b03806000966040519560058752602087015242604087015216941692a4565b600460206001600160a01b0360015416604051928380927f89f00b6d0000000000000000000000000000000000000000000000000000000082525afa9081156105d457600091613cc8575090565b600154926001600160a01b036000941690813b156144f2578492836001600160a01b03936144d560e49486604051998a9889977fe448cc41000000000000000000000000000000000000000000000000000000008952166004880152166024860152604485019060808091805184526020810151602085015260408101516040850152606081015160608501520151910152565b5af1801561283d576144e5575050565b816144ef91611b00565b50565b8480fd5b60ff7ff0c57e16840df040f15088dc2f81fe391c3923bec73e23a9662efc9c229c6a005460401c161561452557565b7fd7e6bcf80000000000000000000000000000000000000000000000000000000060005260046000fdfea264697066735822122098da74e35d7506125efcd37ed230759f67cdb91d2d7235591802f154cdc86ef364736f6c634300081c0033",
  "linkReferences": {},
  "deployedLinkReferences": {}
}