{
  "_format": "hh-sol-artifact-1",
  "contractName": "TradeStation",
  "sourceName": "contracts/TradeStation.sol",
  "abi": [
    {
      "inputs": [],
      "name": "InvalidInitialization",
      "type": "error"
    },
    {
      "inputs": [],
      "name": "NotInitializing",
      "type": "error"
    },
    {
      "inputs": [
        {
          "internalType": "address",
          "name": "owner",
          "type": "address"
        }
      ],
      "name": "OwnableInvalidOwner",
      "type": "error"
    },
    {
      "inputs": [
        {
          "internalType": "address",
          "name": "account",
          "type": "address"
        }
      ],
      "name": "OwnableUnauthorizedAccount",
      "type": "error"
    },
    {
      "anonymous": false,
      "inputs": [
        {
          "indexed": false,
          "internalType": "address",
          "name": "token",
          "type": "address"
        },
        {
          "indexed": false,
          "internalType": "address",
          "name": "holder",
          "type": "address"
        },
        {
          "indexed": false,
          "internalType": "string",
          "name": "name",
          "type": "string"
        },
        {
          "indexed": false,
          "internalType": "enum ICommon.Direct",
          "name": "direct",
          "type": "uint8"
        },
        {
          "indexed": false,
          "internalType": "uint256",
          "name": "value",
          "type": "uint256"
        },
        {
          "indexed": false,
          "internalType": "uint256",
          "name": "size",
          "type": "uint256"
        },
        {
          "indexed": false,
          "internalType": "uint256",
          "name": "margin",
          "type": "uint256"
        },
        {
          "indexed": false,
          "internalType": "uint256",
          "name": "freeze",
          "type": "uint256"
        }
      ],
      "name": "AccountPosition",
      "type": "event"
    },
    {
      "anonymous": false,
      "inputs": [
        {
          "indexed": false,
          "internalType": "address",
          "name": "token",
          "type": "address"
        },
        {
          "indexed": false,
          "internalType": "address",
          "name": "taker",
          "type": "address"
        },
        {
          "indexed": false,
          "internalType": "uint256",
          "name": "amount",
          "type": "uint256"
        },
        {
          "indexed": false,
          "internalType": "uint256",
          "name": "availableAmount",
          "type": "uint256"
        },
        {
          "indexed": false,
          "internalType": "uint256",
          "name": "marginAmount",
          "type": "uint256"
        },
        {
          "indexed": false,
          "internalType": "uint256",
          "name": "locked",
          "type": "uint256"
        },
        {
          "indexed": false,
          "internalType": "uint256",
          "name": "stage",
          "type": "uint256"
        },
        {
          "indexed": false,
          "internalType": "uint256",
          "name": "dif",
          "type": "uint256"
        }
      ],
      "name": "BalanceOfTaker",
      "type": "event"
    },
    {
      "anonymous": false,
      "inputs": [
        {
          "indexed": false,
          "internalType": "string",
          "name": "name",
          "type": "string"
        },
        {
          "indexed": true,
          "internalType": "address",
          "name": "taker",
          "type": "address"
        },
        {
          "indexed": true,
          "internalType": "address",
          "name": "token",
          "type": "address"
        },
        {
          "indexed": false,
          "internalType": "uint256",
          "name": "orderID",
          "type": "uint256"
        },
        {
          "indexed": false,
          "internalType": "enum ICommon.Direct",
          "name": "direct",
          "type": "uint8"
        },
        {
          "indexed": false,
          "internalType": "enum IPerpetual.OrderState",
          "name": "state",
          "type": "uint8"
        },
        {
          "indexed": false,
          "internalType": "enum ICommon.Offset",
          "name": "offset",
          "type": "uint8"
        },
        {
          "indexed": false,
          "internalType": "uint256",
          "name": "amount",
          "type": "uint256"
        },
        {
          "indexed": false,
          "internalType": "uint256",
          "name": "targetPrice",
          "type": "uint256"
        },
        {
          "indexed": false,
          "internalType": "uint256",
          "name": "margin",
          "type": "uint256"
        },
        {
          "indexed": false,
          "internalType": "uint256",
          "name": "rewardGas",
          "type": "uint256"
        },
        {
          "indexed": false,
          "internalType": "uint256",
          "name": "tradingFee",
          "type": "uint256"
        },
        {
          "indexed": false,
          "internalType": "uint256",
          "name": "startTime",
          "type": "uint256"
        },
        {
          "indexed": false,
          "internalType": "uint256",
          "name": "orderType",
          "type": "uint256"
        }
      ],
      "name": "CreateLimitedOrder",
      "type": "event"
    },
    {
      "anonymous": false,
      "inputs": [
        {
          "indexed": false,
          "internalType": "uint256",
          "name": "limitOrderID",
          "type": "uint256"
        },
        {
          "indexed": false,
          "internalType": "uint256",
          "name": "openLimitPrice",
          "type": "uint256"
        },
        {
          "indexed": false,
          "internalType": "uint256",
          "name": "gainTriggerPrice",
          "type": "uint256"
        },
        {
          "indexed": false,
          "internalType": "uint256",
          "name": "gainLimitPrice",
          "type": "uint256"
        },
        {
          "indexed": false,
          "internalType": "uint256",
          "name": "lossTriggerPrice",
          "type": "uint256"
        },
        {
          "indexed": false,
          "internalType": "uint256",
          "name": "lossLimitPrice",
          "type": "uint256"
        }
      ],
      "name": "CreateTriggerCondition",
      "type": "event"
    },
    {
      "anonymous": false,
      "inputs": [
        {
          "indexed": false,
          "internalType": "uint256",
          "name": "code",
          "type": "uint256"
        },
        {
          "indexed": false,
          "internalType": "uint256",
          "name": "orderID",
          "type": "uint256"
        },
        {
          "indexed": false,
          "internalType": "string",
          "name": "message",
          "type": "string"
        }
      ],
      "name": "ErrorInfo",
      "type": "event"
    },
    {
      "anonymous": false,
      "inputs": [
        {
          "indexed": false,
          "internalType": "uint256",
          "name": "code",
          "type": "uint256"
        },
        {
          "indexed": false,
          "internalType": "uint256",
          "name": "orderID",
          "type": "uint256"
        },
        {
          "indexed": false,
          "internalType": "bytes",
          "name": "message",
          "type": "bytes"
        }
      ],
      "name": "ExceptErrorInfo",
      "type": "event"
    },
    {
      "anonymous": false,
      "inputs": [
        {
          "indexed": false,
          "internalType": "uint64",
          "name": "version",
          "type": "uint64"
        }
      ],
      "name": "Initialized",
      "type": "event"
    },
    {
      "anonymous": false,
      "inputs": [
        {
          "indexed": false,
          "internalType": "string",
          "name": "name",
          "type": "string"
        },
        {
          "indexed": true,
          "internalType": "address",
          "name": "taker",
          "type": "address"
        },
        {
          "indexed": true,
          "internalType": "address",
          "name": "token",
          "type": "address"
        },
        {
          "indexed": false,
          "internalType": "uint256",
          "name": "orderID",
          "type": "uint256"
        },
        {
          "indexed": false,
          "internalType": "enum ICommon.Direct",
          "name": "direct",
          "type": "uint8"
        },
        {
          "indexed": false,
          "internalType": "enum IPerpetual.OrderState",
          "name": "state",
          "type": "uint8"
        },
        {
          "indexed": false,
          "internalType": "enum ICommon.Offset",
          "name": "offset",
          "type": "uint8"
        },
        {
          "indexed": false,
          "internalType": "uint256",
          "name": "amount",
          "type": "uint256"
        },
        {
          "indexed": false,
          "internalType": "uint256",
          "name": "targetPrice",
          "type": "uint256"
        },
        {
          "indexed": false,
          "internalType": "uint256",
          "name": "margin",
          "type": "uint256"
        },
        {
          "indexed": false,
          "internalType": "uint256",
          "name": "rewardGas",
          "type": "uint256"
        },
        {
          "indexed": false,
          "internalType": "uint256",
          "name": "tradingFee",
          "type": "uint256"
        },
        {
          "indexed": false,
          "internalType": "uint256",
          "name": "startTime",
          "type": "uint256"
        },
        {
          "indexed": false,
          "internalType": "uint256",
          "name": "orderType",
          "type": "uint256"
        }
      ],
      "name": "LimitedOrderHistory",
      "type": "event"
    },
    {
      "anonymous": false,
      "inputs": [
        {
          "indexed": false,
          "internalType": "address",
          "name": "token",
          "type": "address"
        },
        {
          "indexed": false,
          "internalType": "address",
          "name": "taker",
          "type": "address"
        }
      ],
      "name": "LiquidateTaker",
      "type": "event"
    },
    {
      "anonymous": false,
      "inputs": [
        {
          "indexed": true,
          "internalType": "address",
          "name": "taker",
          "type": "address"
        },
        {
          "indexed": false,
          "internalType": "string",
          "name": "name",
          "type": "string"
        },
        {
          "indexed": false,
          "internalType": "address",
          "name": "token",
          "type": "address"
        },
        {
          "indexed": false,
          "internalType": "uint256",
          "name": "orderID",
          "type": "uint256"
        },
        {
          "indexed": false,
          "internalType": "enum ICommon.Direct",
          "name": "direction",
          "type": "uint8"
        },
        {
          "indexed": false,
          "internalType": "enum IPerpetual.OrderType",
          "name": "orderType",
          "type": "uint8"
        },
        {
          "indexed": false,
          "internalType": "uint256",
          "name": "amount",
          "type": "uint256"
        },
        {
          "indexed": false,
          "internalType": "uint256",
          "name": "costPrice",
          "type": "uint256"
        },
        {
          "indexed": false,
          "internalType": "uint256",
          "name": "price",
          "type": "uint256"
        },
        {
          "indexed": false,
          "internalType": "uint256",
          "name": "tradingFee",
          "type": "uint256"
        },
        {
          "indexed": false,
          "internalType": "uint256",
          "name": "leverage",
          "type": "uint256"
        },
        {
          "indexed": false,
          "internalType": "uint256",
          "name": "marginAmount",
          "type": "uint256"
        },
        {
          "indexed": false,
          "internalType": "uint256",
          "name": "limitOrderId",
          "type": "uint256"
        },
        {
          "indexed": false,
          "internalType": "uint256",
          "name": "timestamp",
          "type": "uint256"
        }
      ],
      "name": "OrderHistory",
      "type": "event"
    },
    {
      "anonymous": false,
      "inputs": [
        {
          "indexed": true,
          "internalType": "address",
          "name": "previousOwner",
          "type": "address"
        },
        {
          "indexed": true,
          "internalType": "address",
          "name": "newOwner",
          "type": "address"
        }
      ],
      "name": "OwnershipTransferred",
      "type": "event"
    },
    {
      "anonymous": false,
      "inputs": [
        {
          "indexed": false,
          "internalType": "address",
          "name": "token",
          "type": "address"
        },
        {
          "indexed": false,
          "internalType": "uint256",
          "name": "orderID",
          "type": "uint256"
        },
        {
          "indexed": false,
          "internalType": "uint256",
          "name": "dealID",
          "type": "uint256"
        },
        {
          "indexed": false,
          "internalType": "enum IPerpetual.TradeType",
          "name": "tradeType",
          "type": "uint8"
        },
        {
          "indexed": false,
          "internalType": "uint256",
          "name": "amount",
          "type": "uint256"
        },
        {
          "indexed": false,
          "internalType": "uint256",
          "name": "price",
          "type": "uint256"
        },
        {
          "indexed": false,
          "internalType": "uint256",
          "name": "tradingFee",
          "type": "uint256"
        },
        {
          "indexed": false,
          "internalType": "uint256",
          "name": "leverage",
          "type": "uint256"
        },
        {
          "indexed": false,
          "internalType": "uint256",
          "name": "marginAmount",
          "type": "uint256"
        },
        {
          "indexed": false,
          "internalType": "uint256",
          "name": "profit",
          "type": "uint256"
        },
        {
          "indexed": false,
          "internalType": "uint256",
          "name": "loss",
          "type": "uint256"
        },
        {
          "indexed": false,
          "internalType": "uint256",
          "name": "timestamp",
          "type": "uint256"
        }
      ],
      "name": "TradeHistory",
      "type": "event"
    },
    {
      "anonymous": false,
      "inputs": [
        {
          "indexed": true,
          "internalType": "address",
          "name": "token",
          "type": "address"
        },
        {
          "indexed": true,
          "internalType": "address",
          "name": "sender",
          "type": "address"
        },
        {
          "indexed": true,
          "internalType": "address",
          "name": "received",
          "type": "address"
        },
        {
          "indexed": false,
          "internalType": "enum ICommon.TransactionType",
          "name": "transactionType",
          "type": "uint8"
        },
        {
          "indexed": false,
          "internalType": "uint256",
          "name": "amount",
          "type": "uint256"
        },
        {
          "indexed": false,
          "internalType": "uint256",
          "name": "timestamp",
          "type": "uint256"
        }
      ],
      "name": "TransactionHistory",
      "type": "event"
    },
    {
      "anonymous": false,
      "inputs": [
        {
          "indexed": false,
          "internalType": "address",
          "name": "token",
          "type": "address"
        },
        {
          "indexed": false,
          "internalType": "address",
          "name": "sender",
          "type": "address"
        },
        {
          "indexed": false,
          "internalType": "string",
          "name": "name",
          "type": "string"
        },
        {
          "indexed": false,
          "internalType": "uint256",
          "name": "beforeLeverage",
          "type": "uint256"
        },
        {
          "indexed": false,
          "internalType": "uint256",
          "name": "afterLeverage",
          "type": "uint256"
        }
      ],
      "name": "setLeverage",
      "type": "event"
    },
    {
      "stateMutability": "nonpayable",
      "type": "fallback"
    },
    {
      "inputs": [
        {
          "internalType": "address",
          "name": "_token",
          "type": "address"
        },
        {
          "internalType": "address",
          "name": "_taker",
          "type": "address"
        },
        {
          "internalType": "uint256",
          "name": "_deposit",
          "type": "uint256"
        },
        {
          "internalType": "string[]",
          "name": "_pairs",
          "type": "string[]"
        },
        {
          "internalType": "uint256[]",
          "name": "_prices",
          "type": "uint256[]"
        }
      ],
      "name": "clearingTaker",
      "outputs": [
        {
          "internalType": "uint256",
          "name": "remainingDeposit",
          "type": "uint256"
        }
      ],
      "stateMutability": "nonpayable",
      "type": "function"
    },
    {
      "inputs": [
        {
          "internalType": "address",
          "name": "_token",
          "type": "address"
        },
        {
          "internalType": "address",
          "name": "_taker",
          "type": "address"
        },
        {
          "internalType": "string",
          "name": "_name",
          "type": "string"
        },
        {
          "internalType": "uint256",
          "name": "_amount",
          "type": "uint256"
        },
        {
          "internalType": "uint256",
          "name": "_price",
          "type": "uint256"
        },
        {
          "internalType": "enum ICommon.Direct",
          "name": "_direct",
          "type": "uint8"
        },
        {
          "internalType": "uint256",
          "name": "_limitID",
          "type": "uint256"
        }
      ],
      "name": "closeOrder",
      "outputs": [],
      "stateMutability": "nonpayable",
      "type": "function"
    },
    {
      "inputs": [
        {
          "internalType": "address",
          "name": "_priPool",
          "type": "address"
        },
        {
          "internalType": "address",
          "name": "_perpetual",
          "type": "address"
        }
      ],
      "name": "initialize",
      "outputs": [],
      "stateMutability": "nonpayable",
      "type": "function"
    },
    {
      "inputs": [
        {
          "internalType": "address",
          "name": "_token",
          "type": "address"
        },
        {
          "internalType": "address",
          "name": "_taker",
          "type": "address"
        },
        {
          "internalType": "string",
          "name": "_name",
          "type": "string"
        },
        {
          "internalType": "uint256",
          "name": "_amount",
          "type": "uint256"
        },
        {
          "internalType": "uint256",
          "name": "_price",
          "type": "uint256"
        },
        {
          "internalType": "enum ICommon.Direct",
          "name": "_type",
          "type": "uint8"
        },
        {
          "internalType": "uint256",
          "name": "_orderType2",
          "type": "uint256"
        },
        {
          "internalType": "uint256",
          "name": "_rewardsGas",
          "type": "uint256"
        }
      ],
      "name": "makeOpenLimitOrder",
      "outputs": [],
      "stateMutability": "nonpayable",
      "type": "function"
    },
    {
      "inputs": [
        {
          "internalType": "string",
          "name": "_name",
          "type": "string"
        },
        {
          "internalType": "address",
          "name": "_token",
          "type": "address"
        },
        {
          "internalType": "uint256",
          "name": "_amount",
          "type": "uint256"
        },
        {
          "internalType": "enum ICommon.Offset",
          "name": "_offset",
          "type": "uint8"
        },
        {
          "internalType": "enum ICommon.Direct",
          "name": "_direct",
          "type": "uint8"
        },
        {
          "internalType": "uint256",
          "name": "_param1",
          "type": "uint256"
        },
        {
          "internalType": "uint256",
          "name": "_param2",
          "type": "uint256"
        },
        {
          "internalType": "uint256",
          "name": "_param3",
          "type": "uint256"
        },
        {
          "internalType": "uint256",
          "name": "_param4",
          "type": "uint256"
        },
        {
          "internalType": "uint256",
          "name": "_goodTill",
          "type": "uint256"
        },
        {
          "internalType": "address",
          "name": "_taker",
          "type": "address"
        }
      ],
      "name": "ocoTrade",
      "outputs": [],
      "stateMutability": "payable",
      "type": "function"
    },
    {
      "inputs": [
        {
          "internalType": "address",
          "name": "_token",
          "type": "address"
        },
        {
          "internalType": "address",
          "name": "_taker",
          "type": "address"
        },
        {
          "internalType": "string",
          "name": "_name",
          "type": "string"
        },
        {
          "internalType": "uint256",
          "name": "_amount",
          "type": "uint256"
        },
        {
          "internalType": "uint256",
          "name": "_price",
          "type": "uint256"
        },
        {
          "internalType": "enum ICommon.Direct",
          "name": "_direct",
          "type": "uint8"
        },
        {
          "internalType": "uint256",
          "name": "_limitOrderID",
          "type": "uint256"
        },
        {
          "internalType": "uint256",
          "name": "_freezeAmount",
          "type": "uint256"
        }
      ],
      "name": "openOrder",
      "outputs": [],
      "stateMutability": "nonpayable",
      "type": "function"
    },
    {
      "inputs": [],
      "name": "owner",
      "outputs": [
        {
          "internalType": "address",
          "name": "",
          "type": "address"
        }
      ],
      "stateMutability": "view",
      "type": "function"
    },
    {
      "inputs": [],
      "name": "renounceOwnership",
      "outputs": [],
      "stateMutability": "nonpayable",
      "type": "function"
    },
    {
      "inputs": [
        {
          "internalType": "address",
          "name": "_orderBook",
          "type": "address"
        },
        {
          "internalType": "address",
          "name": "_agent",
          "type": "address"
        },
        {
          "internalType": "address",
          "name": "_poolAgent",
          "type": "address"
        },
        {
          "internalType": "address",
          "name": "_keeper",
          "type": "address"
        }
      ],
      "name": "setKeepers",
      "outputs": [],
      "stateMutability": "nonpayable",
      "type": "function"
    },
    {
      "inputs": [
        {
          "internalType": "string",
          "name": "_name",
          "type": "string"
        },
        {
          "internalType": "address",
          "name": "_token",
          "type": "address"
        },
        {
          "internalType": "uint256",
          "name": "_amount",
          "type": "uint256"
        },
        {
          "internalType": "uint256",
          "name": "_price",
          "type": "uint256"
        },
        {
          "internalType": "uint256",
          "name": "_orderType",
          "type": "uint256"
        },
        {
          "internalType": "enum ICommon.Offset",
          "name": "_offset",
          "type": "uint8"
        },
        {
          "internalType": "enum ICommon.Direct",
          "name": "_direct",
          "type": "uint8"
        },
        {
          "internalType": "uint256",
          "name": "_orderType2",
          "type": "uint256"
        },
        {
          "internalType": "address",
          "name": "_taker",
          "type": "address"
        },
        {
          "internalType": "uint256",
          "name": "_rewardGas",
          "type": "uint256"
        }
      ],
      "name": "trade",
      "outputs": [],
      "stateMutability": "payable",
      "type": "function"
    },
    {
      "inputs": [
        {
          "internalType": "address",
          "name": "newOwner",
          "type": "address"
        }
      ],
      "name": "transferOwnership",
      "outputs": [],
      "stateMutability": "nonpayable",
      "type": "function"
    },
    {
      "inputs": [
        {
          "internalType": "uint256[]",
          "name": "_orderID",
          "type": "uint256[]"
        },
        {
          "internalType": "string[]",
          "name": "_symbols",
          "type": "string[]"
        },
        {
          "internalType": "uint256[]",
          "name": "_prices",
          "type": "uint256[]"
        }
      ],
      "name": "triggerOrders",
      "outputs": [],
      "stateMutability": "nonpayable",
      "type": "function"
    }
  ],
  "bytecode": "0x6080806040523460155761432a908161001a8239f35b5f80fdfe60806040526004361015610019575b3461001557005b5f80fd5b5f5f3560e01c8063068c9c2614611f6c57806307e7148514611a00578063485cc955146117485780636332d726146114fb578063715018a61461145557806381a4f1731461133c5780638da5cb5b146112f6578063934cb531146110b8578063bcef60d714610ea7578063c59b4d7814610cca578063f2fde38b14610ca05763fb13637b146100a8575061000e565b610140600319360112610c9d5760043567ffffffffffffffff8111610370576100d59036906004016120c1565b6100dd61201f565b90608435906044359060a4356064356003821015610ac25760c435936003851015610c9b578760e43561010435976001600160a01b03891695868a03610c975761013960ff60406101243596338152600560205220541661226f565b6101438a8c612bd0565b61014c81612353565b600181036104ba57506103db5750509061018091338952600560205261017860ff60408b20541661226f565b84878961262f565b9261018b8587612889565b9060208201938451926060870193845111610397578051956101b360408901978851906122ba565b82526101c281518651906122ba565b90526101e860408201918251926101df60208b01948551906122db565b9052898b61295b565b6001600160a01b036002541691823b156103935761024e90604051967fcc5bc7410000000000000000000000000000000000000000000000000000000088526001600160a01b038c16600489015260248801526101c060448801526101c487019061232e565b9261025881612353565b60648601528985809460e0839a84988496600160848701525f1960a4870152825160c48701525160e48601528b5161010486015251610124850152608081015161014485015260a081015161016485015260c081015161018485015201516101a483015203925af190811561037457839161035b575b50506001600160a01b0360015416905190803b1561034c57604051623bb5d360e61b81526001600160a01b03868116600483015285166024820152604481019290925282908290606490829084905af1801561035057610337575b505061033491612c43565b80f35b8161034191612082565b61034c57825f610329565b8280fd5b6040513d84823e3d90fd5b8161036591612082565b61037057815f6102ce565b5080fd5b6040513d85823e3d90fd5b634e487b7160e01b5f52602160045260245ffd5b8a80fd5b606460405162461bcd60e51b815260206004820152601160248201527f6f70656e20696e73756666696369656e740000000000000000000000000000006044820152fd5b92909350969493909633895260056020526103fc60ff60408b20541661226f565b6104098189848a8a61262f565b906104148888612889565b9860208a01968751976060850198895111610476576103349b610471998261044261045f94518351906122ba565b9052610456606083019182519051906122db565b90528b8b61295b565b60206040850151940151948a8a612a00565b612c43565b606460405162461bcd60e51b815260206004820152601760248201527f6f70656e206c696d697420696e73756666696369656e740000000000000000006044820152fd5b909289898d8d60409b999a9b516104d081612035565b82815260808b6020830195858752604084019786895260608086015286848601528660a08601528660c08601528660e08601526105216001600160a01b03600254169261051c81612353565b6125c3565b9561055b604051978895869485947f3a0204a9000000000000000000000000000000000000000000000000000000008652600486016125f7565b03915afa938415610374576105809584938596610c69575b50908585925252526122ba565b8511610c25578b93610b5d575050505033885260056020526105a860ff60408a20541661226f565b60a06001600160a01b038060035416898b6040518096819582946307e7148560e01b845216998a60048401528b602484015260e060448401526105ee60e484018b61232e565b91606484015260848301526106028c612353565b8b60a48301525f1960c483015203925af1908115610a64578891610b24575b5061062c8688612889565b906020820180519261069061064760208501958651906122db565b8c61065860608701928351906122db565b9461066e604060808901519801978851906122db565b958690818110610b1c576106839293506122ba565b90525b82519051906122db565b91808310610ad8578b946106a886926106c6956122ba565b835260408301805191519091818111610ac6575050525b888a61295b565b6001600160a01b0360015416905190803b1561034c57604051623bb5d360e61b81526001600160a01b038a8116600483015289166024820152604481019290925282908290606490829084905af1801561035057610aad575b50506001600160a01b03600254169361073781612353565b816080878961077c610748866125c3565b60405195869485947f3a0204a9000000000000000000000000000000000000000000000000000000008652600486016125f7565b0381895afa908115610aa2578991610a6f575b50156107a4575b505050505061033491612c43565b90919293948760405180977f982edc3c00000000000000000000000000000000000000000000000000000000825281806107fa868d600484019092916001600160a01b0360209181604085019616845216910152565b03915afa958615610a645788966109c9575b50875b86518110156109b6576001600160a01b03600254169089610830828a612367565b51602460405180958193630c3fc6b960e01b835260048301525afa80156109ab576001928b91610989575b5060208101906001600160a01b0382511689149081610975575b81610905575b816108db575b816108ba575b50610894575b500161080f565b6108b4906001600160a01b036108aa848c612367565b51915116906141b5565b5f61088d565b60029150608001516108cb81612353565b6108d481612353565b145f610887565b905060408101516108eb81612353565b6108f481612353565b6108fd87612353565b861490610881565b90508b60405161093560208281810194828d805191829101885e820190838201520301601f198101835282612082565b51902060a08201518d61096b602060405180938280830196805191829101885e820190838201520301601f198101835282612082565b519020149061087b565b80516001600160a01b031689149150610875565b6109a591503d808d833e61099d8183612082565b8101906123d5565b5f61085b565b6040513d8c823e3d90fd5b509450505050506103345f808080610796565b9095503d8089833e6109db8183612082565b810190602081830312610a5c5780519067ffffffffffffffff8211610a6057019080601f83011215610a5c578151610a128161217b565b92610a206040519485612082565b81845260208085019260051b82010192831161039357602001905b828210610a4c57505050945f61080c565b8151815260209182019101610a3b565b8880fd5b8980fd5b6040513d8a823e3d90fd5b610a91915060803d608011610a9b575b610a898183612082565b8101906125d5565b505090505f61078f565b503d610a7f565b6040513d8b823e3d90fd5b81610ab791612082565b610ac257865f61071f565b8680fd5b610ad19293506122ba565b90526106bf565b606460405162461bcd60e51b815260206004820152601260248201527f73686f756c64206265206465746f6e61746500000000000000000000000000006044820152fd5b505052610686565b905060a03d60a011610b56575b610b3b8183612082565b810160a082820312610a5c57610b50916122e8565b5f610621565b503d610b31565b6001600160a01b036002999293959499989698541694853b15610a605789976001600160a01b03958d95610bbc6040519c8d9b8c9a8b9a63308b99cb60e21b8c521660048b015260248a01526101a060448a01526101a489019061232e565b95610bc681612353565b6064880152610bd481612353565b608487015260a486015260c48501528760e4850152876101048501528761012485015261014484015286610164840152610184830152039134905af180156103505761033757505061033491612c43565b606460405162461bcd60e51b815260206004820152601660248201527f636c6f736520616d6f756e7420746f6f206c61726765000000000000000000006044820152fd5b9194509450610c8891925060803d608011610a9b57610a898183612082565b95919492939291905084610573565b8380fd5b875b80fd5b5034610c9d576020600319360112610c9d57610334610cbd612009565b610cc5612b71565b6124fb565b5034610c9d5760a0600319360112610c9d57610ce4612009565b90610ced61201f565b9160643567ffffffffffffffff811161034c57610d0e9036906004016121f0565b60843567ffffffffffffffff8111610c9757610d2e903690600401612193565b3384526005602052610d4660ff60408620541661226f565b604435946001600160a01b03808695169116915b8351851015610e9c5785965b60ff8816906002821015610e8f576001600160a01b0360025416906001610d8d8989612367565b51930160ff8111610e7b5791868a878b610e049795610dbb60ff6020991692610db584612353565b8b612367565b51604051998a98899788967f509423550000000000000000000000000000000000000000000000000000000088526004880152602487015260c0604487015260c486019061232e565b92610e0e81612353565b6064850152608484015260a483015203925af1908115610e70578791610e3e575b50600160ff9198011696610d66565b90506020813d8211610e68575b81610e5860209383612082565b8101031261001557516001610e2f565b3d9150610e4b565b6040513d89823e3d90fd5b60248a634e487b7160e01b81526011600452fd5b9750509360010193610d5a565b602087604051908152f35b5034610c9d576060600319360112610c9d5760043567ffffffffffffffff811161037057610ed9903690600401612193565b60243567ffffffffffffffff811161034c57610ef99036906004016121f0565b9060443567ffffffffffffffff8111610c975783610f1c84923690600401612193565b903381526005602052610f3560ff60408320541661226f565b80915b84518310156110b45790602491610f4f8487612367565b5190826001600160a01b036002541660405195868092630c3fc6b960e01b82528660048301525afa938415610374578394611098575b506001600160a01b0384511692610fab60208601946001600160a01b0386511690612bd0565b8096815b815181101561108657610fc28183612367565b51604051610fef6020828180820195805191829101875e810188838201520301601f198101835282612082565b51902060a08801516040516110236020828180820195805191829101875e810189838201520301601f198101835282612082565b5190201461103357600101610faf565b6001959299979491985061104990849794612367565b515b801561107d57611074936110696001600160a01b0393928493612e18565b511691511690612c43565b01919390610f38565b50505050611074565b5096926001949198969395929561104b565b6110ad9194503d8085833e61099d8183612082565b9287610f85565b5080f35b50610160600319360112610c9d578060043567ffffffffffffffff81116112f3576110e79036906004016120c1565b6110ef61201f565b6064359060038210156112f0576084359060038210156112ec5760a4359260e4359161014435936001600160a01b038516809503610c9b57338852600560205261113f60ff60408a20541661226f565b61114883612353565b60018314611299575b61115a83612353565b60028314611234575b6001600160a01b036002541693843b15610a5c5788966001600160a01b03946111b76040519a8b998a98899863308b99cb60e21b8a5216600489015260248801526101a060448801526101a487019061232e565b936111c181612353565b60648601526111cf81612353565b608485015260443560a485015260c484015260c43560e484015261010483015261010435610124830152600b610144830152600161016483015234610184830152039134905af18015610350576112235750f35b8161122d91612082565b610c9d5780f35b96508415801590611290575b1561124c578796611163565b606460405162461bcd60e51b815260206004820152601b60248201527f636c6f73652074726967676572207072696365206973207a65726f00000000006044820152fd5b50821515611240565b965084156112a8578796611151565b606460405162461bcd60e51b815260206004820152601a60248201527f6f70656e2074726967676572207072696365206973207a65726f0000000000006044820152fd5b8480fd5b50505b50fd5b5034610c9d5780600319360112610c9d5760206001600160a01b037f9016d09d72d40fdae2fd8ceac6b6234c7706214fd39c1cd1e609a0528c1993005416604051908152f35b5034610c9d576080600319360112610c9d57611356612009565b61135e61201f565b90604435916001600160a01b038316809303610c97576064356001600160a01b0381168091036112ec576001600160a01b03809361139a612b71565b1690818652600560205260408620600160ff19825416179055818652600560205260408620600160ff19825416179055848652600560205260408620600160ff198254161790558552600560205260408520600160ff1982541617905573ffffffffffffffffffffffffffffffffffffffff1960025416176002551673ffffffffffffffffffffffffffffffffffffffff19600354161760035573ffffffffffffffffffffffffffffffffffffffff19600454161760045580f35b5034610c9d5780600319360112610c9d5761146e612b71565b806001600160a01b037f9016d09d72d40fdae2fd8ceac6b6234c7706214fd39c1cd1e609a0528c1993005473ffffffffffffffffffffffffffffffffffffffff1981167f9016d09d72d40fdae2fd8ceac6b6234c7706214fd39c1cd1e609a0528c19930055167f8be0079c531659141344cd1fd0a4f28419497f9722a3daafe3b4186f6b6457e08280a380f35b5034610c9d5761153661150d36612107565b949290979193969596338a52600560205261152e60ff60408c20541661226f565b83888861262f565b906001926115448787612889565b946001890161171b575b5060208501948551906060850191825111610397578a9981519761157860408801998a51906122ba565b835261158781518551906122ba565b90526115a4604083019283519361045660208a01958651906122db565b6001600160a01b036002541693843b15611717578b968b9488948c946040519b8c9a8b998a987fcc5bc741000000000000000000000000000000000000000000000000000000008a526001600160a01b031660048a01526001600160a01b03166024890152604488016101c090526101c488016116209161232e565b9561162a81612353565b60648801526116388161235d565b608487015260a4860152825160c48601525160e48501528a5161010485015251610124840152608081015161014484015260a081015161016484015260c081015161018484015260e001516101a483015203925af190811561170c5785916116f7575b50506001600160a01b0360015416905190803b156112ec57604051623bb5d360e61b81526001600160a01b039384166004820152939092166024840152604483015282908290606490829084905af18015610350576112235750f35b8161170191612082565b6112f057835f61169b565b6040513d87823e3d90fd5b8b80fd5b93506002936020860161172f8282516122db565b9052611740606087019182516122ba565b90525f61154e565b5034610c9d576040600319360112610c9d57611762612009565b61176a61201f565b7ff0c57e16840df040f15088dc2f81fe391c3923bec73e23a9662efc9c229c6a00549160ff8360401c16159267ffffffffffffffff8116801590816119f8575b60011490816119ee575b1590816119e5575b506119bd576001600160a01b039291818560017fffffffffffffffffffffffffffffffffffffffffffffffff0000000000000000879516177ff0c57e16840df040f15088dc2f81fe391c3923bec73e23a9662efc9c229c6a0055611968575b50611824614222565b61182c614222565b611835336124fb565b168073ffffffffffffffffffffffffffffffffffffffff198654161785558452600560205260408420600160ff19825416179055168073ffffffffffffffffffffffffffffffffffffffff1960015416176001558252600560205260408220600160ff19825416179055338252600560205260408220600160ff19825416179055308252600560205260408220600160ff198254161790556118d45780f35b7fffffffffffffffffffffffffffffffffffffffffffffff00ffffffffffffffff7ff0c57e16840df040f15088dc2f81fe391c3923bec73e23a9662efc9c229c6a0054167ff0c57e16840df040f15088dc2f81fe391c3923bec73e23a9662efc9c229c6a00557fc7f505b2f371ae2175ee4913f4499e1f2633a7b5936321eed1cdaeb6115181d2602060405160018152a180f35b7fffffffffffffffffffffffffffffffffffffffffffffff0000000000000000001668010000000000000001177ff0c57e16840df040f15088dc2f81fe391c3923bec73e23a9662efc9c229c6a00555f61181b565b6004857ff92ee8a9000000000000000000000000000000000000000000000000000000008152fd5b9050155f6117bc565b303b1591506117b4565b8591506117aa565b50346100155760e060031936011261001557611a1a612009565b611a2261201f565b9060443567ffffffffffffffff811161001557611a439036906004016120c1565b60a43592600384101561001557335f526005602052611a6860ff60405f20541661226f565b6001600160a01b036003541691604051916307e7148560e01b83526001600160a01b0385169283600482015260a0816001600160a01b0384169687602483015260e06044830152815f818c611ad9611ac360e484018c61232e565b9160643560648501526084356084850152612353565b8d60a483015260c43560c483015203925af1908115611f0d575f91611f33575b50611b048287612889565b60208101908151611b65611b1e60208601928351906122db565b611b2e60608701918251906122db565b94611b44604060808901519801978851906122db565b958690818110611f295790611b58916122ba565b90525b83519051906122db565b838110610ad857611b9993611b79916122ba565b825260408201805191519091818111611f185750505f90525b838861295b565b6001600160a01b0360015416905190803b1561001557604051623bb5d360e61b81526001600160a01b0388811660048301528416602482015260448101929092525f908290606490829084905af18015611f0d57611ef8575b5086906001600160a01b0360025416611c0a88612353565b8360808389611c1b6107488d6125c3565b0381855afa908115611eed578491611eca575b5015611c38578280f35b6040517f982edc3c0000000000000000000000000000000000000000000000000000000081526001600160a01b03978816600482015291909616602482015294859060449082905afa938415611ebf578694611e2c575b50855b8451811015611e1a576001600160a01b03600254169087611cb38288612367565b51602460405180958193630c3fc6b960e01b835260048301525afa8015610a64576001928991611e00575b5060208101906001600160a01b0382511687149081611dec575b81611d7e575b81611d54575b81611d33575b50611d17575b5001611c92565b611d2d906001600160a01b036108aa848a612367565b5f611d10565b6002915060800151611d4481612353565b611d4d81612353565b145f611d0a565b90506040810151611d6481612353565b611d6d81612353565b611d768a612353565b891490611d04565b905089604051611dac602082818101948a5180848d01885e820190838201520301601f198101835282612082565b51902060a08201518b611de2602060405180938280830196805191829101885e820190838201520301601f198101835282612082565b5190201490611cfe565b80516001600160a01b031687149150611cf8565b611e1491503d808b833e61099d8183612082565b5f611cde565b5050505050505f808080808581808280f35b9093503d8087833e611e3e8183612082565b810190602081830312610ac25780519067ffffffffffffffff8211610c9b57019080601f83011215610ac2578151611e758161217b565b92611e836040519485612082565b81845260208085019260051b820101928311610a5c57602001905b828210611eaf57505050925f611c8f565b8151815260209182019101611e9e565b6040513d88823e3d90fd5b611ee3915060803d608011610a9b57610a898183612082565b505090505f611c2e565b6040513d86823e3d90fd5b611f059197505f90612082565b5f955f611bf2565b6040513d5f823e3d90fd5b90611f22916122ba565b9052611b92565b50505f9052611b5b565b905060a03d60a011611f65575b611f4a8183612082565b810160a08282031261001557611f5f916122e8565b5f611af9565b503d611f40565b3461001557611f7a36612107565b95969390949291335f526005602052611f9960ff60405f20541661226f565b611fa68383868b8961262f565b93611fb18987612889565b9860208a0180519a606088019b8c5111610476576120079b82611fda611ff794518351906122ba565b9052611fee606083019182519051906122db565b9052828961295b565b6020604087015196015196612a00565b005b600435906001600160a01b038216820361001557565b602435906001600160a01b038216820361001557565b610100810190811067ffffffffffffffff82111761205257604052565b634e487b7160e01b5f52604160045260245ffd5b60a0810190811067ffffffffffffffff82111761205257604052565b90601f601f19910116810190811067ffffffffffffffff82111761205257604052565b67ffffffffffffffff811161205257601f01601f191660200190565b81601f82011215610015578035906120d8826120a5565b926120e66040519485612082565b8284526020838301011161001557815f926020809301838601378301015290565b610100600319820112610015576004356001600160a01b038116810361001557916024356001600160a01b038116810361001557916044359067ffffffffffffffff82116100155761215b916004016120c1565b90606435906084359060a4356003811015610015579060c4359060e43590565b67ffffffffffffffff81116120525760051b60200190565b9080601f830112156100155781356121aa8161217b565b926121b86040519485612082565b81845260208085019260051b82010192831161001557602001905b8282106121e05750505090565b81358152602091820191016121d3565b9080601f830112156100155781356122078161217b565b926122156040519485612082565b81845260208085019260051b820101918383116100155760208201905b83821061224157505050505090565b813567ffffffffffffffff811161001557602091612264878480948801016120c1565b815201910190612232565b1561227657565b606460405162461bcd60e51b815260206004820152601c60248201527f63616c6c6572206973206e6f742073746174696f6e206b6565706572000000006044820152fd5b919082039182116122c757565b634e487b7160e01b5f52601160045260245ffd5b919082018092116122c757565b91908260a09103126100155760405161230081612066565b6080808294805184526020810151602085015260408101516040850152606081015160608501520151910152565b90601f19601f602080948051918291828752018686015e5f8582860101520116010190565b6003111561037f57565b6008111561037f57565b805182101561237b5760209160051b010190565b634e487b7160e01b5f52603260045260245ffd5b81601f82011215610015578051906123a6826120a5565b926123b46040519485612082565b8284526020838301011161001557815f9260208093018386015e8301015290565b6020818303126100155780519067ffffffffffffffff82116100155701906101a08282031261001557604051916101a0830183811067ffffffffffffffff8211176120525760405280516001600160a01b038116810361001557835260208101516001600160a01b038116810361001557602084015260408101516003811015610015576040840152606081015160088110156100155760608401526080810151600381101561001557608084015260a081015167ffffffffffffffff811161001557610180926124a791830161238f565b60a084015260c081015160c084015260e081015160e0840152610100810151610100840152610120810151610120840152610140810151610140840152610160810151610160840152015161018082015290565b6001600160a01b03168015612597576001600160a01b037f9016d09d72d40fdae2fd8ceac6b6234c7706214fd39c1cd1e609a0528c199300548273ffffffffffffffffffffffffffffffffffffffff198216177f9016d09d72d40fdae2fd8ceac6b6234c7706214fd39c1cd1e609a0528c19930055167f8be0079c531659141344cd1fd0a4f28419497f9722a3daafe3b4186f6b6457e05f80a3565b7f1e4fbdf7000000000000000000000000000000000000000000000000000000005f525f60045260245ffd5b60ff5f199116019060ff82116122c757565b9190826080910312610015578151916020810151916060604083015192015190565b92612628906001600160a01b036060948160ff9599989916875216602086015260806040860152608085019061232e565b9416910152565b9391905f60e060405161264181612035565b8281528260208201528260408201528260608201528260808201528260a08201528260c082015201526001600160a01b0380600154169181604051977f702c2b7400000000000000000000000000000000000000000000000000000000895216600488015216602486015260606044860152602085806126c4606482018661232e565b0381845afa948515611f0d575f95612853575b5061271a9160209160405180809581947f05ca57cf000000000000000000000000000000000000000000000000000000008352866004840152602483019061232e565b03915afa908115611f0d575f9161280f575b50610100926001600160a01b0360649260405196879586947f32a84502000000000000000000000000000000000000000000000000000000008652600486015260248501526044840152165afa908115611f0d575f9161278a575090565b9050610100813d8211612807575b816127a66101009383612082565b810103126100155760e0604051916127bd83612035565b805183526020810151602084015260408101516040840152606081015160608401526080810151608084015260a081015160a084015260c081015160c0840152015160e082015290565b3d9150612798565b90506020813d60201161284b575b8161282a60209383612082565b8101031261001557516001600160a01b03811681036100155761010061272c565b3d915061281d565b9094506020813d602011612881575b8161286f60209383612082565b8101031261001557519361271a6126d7565b3d9150612862565b6129109160a0915f608060405161289f81612066565b82815282602082015282604082015282606082015201526001600160a01b0360015416906040518095819482937fccf1a4b2000000000000000000000000000000000000000000000000000000008452600484019092916001600160a01b0360209181604085019616845216910152565b03915afa908115611f0d575f91612925575090565b905060a03d60a011612954575b61293c8183612082565b810160a08282031261001557612951916122e8565b90565b503d612932565b90916001600160a01b0360015416803b15610015575f928360e49260806001600160a01b039586604051998a9889977fe448cc41000000000000000000000000000000000000000000000000000000008952166004880152166024860152805160448601526020810151606486015260408101516084860152606081015160a4860152015160c48401525af18015611f0d576129f45750565b5f6129fe91612082565b565b9891959697906001600160a01b036002541696873b15610015576001600160a01b03612a5792819c60046040519e8f9263308b99cb60e21b8452169101521660248c01526101a060448c01526101a48b019061232e565b92612a6181612353565b60648a01525f978997889687966001608489015260a488015260c487015260e48601528861010486015261012485015261014484015286610164840152610184830152039134905af18015611f0d576129f45750565b96959492909391936001600160a01b036002541694853b15610015576001600160a01b03612b0d92816040519b63308b99cb60e21b8d521660048c01521660248a01526101a060448a01526101a489019061232e565b90612b1781612353565b60648801525f958795869485946002608487015260a486015260c48501528760e485015261010484015286610124840152600b6101448401526001610164840152610184830152039134905af18015611f0d576129f45750565b6001600160a01b037f9016d09d72d40fdae2fd8ceac6b6234c7706214fd39c1cd1e609a0528c19930054163303612ba457565b7f118cdaa7000000000000000000000000000000000000000000000000000000005f523360045260245ffd5b906001600160a01b036001541690813b15610015576040517fd3c2d8b70000000000000000000000000000000000000000000000000000000081526001600160a01b039384166004820152921660248301525f60448301819052908290606490829084905af18015611f0d576129f45750565b906001600160a01b036001541690813b15610015576040517fd3c2d8b70000000000000000000000000000000000000000000000000000000081526001600160a01b03938416600482015292166024830152600a60448301525f908290606490829084905af18015611f0d576129f45750565b5f9060033d11612cc257565b905060045f803e5f5160e01c90565b5f60443d10612951576040516003193d016004823e8051913d602484011167ffffffffffffffff841117612d3f578282019283519167ffffffffffffffff8311612d37576003193d85010160208487010111612d37575061295192910160200190612082565b949350505050565b92915050565b3d15612d6f573d90612d56826120a5565b91612d646040519384612082565b82523d5f602084013e565b606090565b93979695926001600160a01b0360c0969381612da49416875216602086015260e0604086015260e085019061232e565b9660608401526080830152612db881612353565b60a08201520152565b9491926001600160a01b0360e0979481612df6949c9b9a979c168852166020870152610100604087015261010086019061232e565b9760608501526080840152612e0a81612353565b60a083015260c08201520152565b906002546001600160a01b035f911660405190630c3fc6b960e01b82528460048301525f82602481845afa908115611f0d576024925f92614197575b505f90604051938480927f0187703f0000000000000000000000000000000000000000000000000000000082528960048301525afa918215611f0d575f926140db575b5060208201916001835114806140bb575b613a2f57604460206001600160a01b0360035416604051928380927fe6b34c690000000000000000000000000000000000000000000000000000000082528b60048301528a60248301525afa90811561170c5785916139f4575b50612f10575b505050505050565b600183511461339c5760e082019485526080820160018151612f3181612353565b612f3a81612353565b036131c35750612f55610100830151610120840151906122db565b6001600160a01b038351169160208401966001600160a01b038851169360a086019485519160c0880195865194519460408a0195865191612f9583612353565b303b156131bf57928f8e969493612fdd938897956040519a8b9889987f6332d726000000000000000000000000000000000000000000000000000000008a5260048a01612dc1565b038183305af191826131aa575b505061310857505050505050600190613001612cb6565b6308c379a01461308b575b50613020575b50505b5f8080808080612f08565b7f4c94adf18d8bfad12d476c7b93150b992bfa3fb9a83d713dd8a97359b7413f829161305e6001600160a01b03613055612d45565b935116826141b5565b61308160405192839260058452602084015260606040840152606083019061232e565b0390a15f80613012565b613093612cd1565b90816130a0575b5061300c565b7f356c1ed0403936d05af0abea05fbda16720ce964f55d7010cee1ba6cd8e1f60a9192506130fe90926130dd6001600160a01b03865116876141b5565b6040519182916005835287602084015260606040840152606083019061232e565b0390a15f8061309a565b906129fe989597916101408698960193600285519a5114613137575b5050505050505060036060830152614279565b606083019182511580159061319d575b613152575b50613124565b613165613191979b60011c8097516122ba565b9a60a06001600160a01b03808d5116975116915192519361318585612353565b51945195015195612ab7565b5f80808080808061314c565b5060a08401511515613147565b816131b491612082565b610c9b57875f612fea565b8d80fd5b90506002919250516131d481612353565b6131dd81612353565b146131ec575b50505050613015565b6001600160a01b038151169260208201936001600160a01b038551169060a08401519260c0850151905160408601519161322583612353565b303b15610c9b578988959386959361325293604051998a9788976307e7148560e01b895260048901612d74565b038183305af19182613387575b505061336c5750600190613271612cb6565b6308c379a0146132ef575b5061328d575b50505f8080806131e3565b7f4c94adf18d8bfad12d476c7b93150b992bfa3fb9a83d713dd8a97359b7413f82916132c26001600160a01b03613055612d45565b6132e560405192839260068452602084015260606040840152606083019061232e565b0390a15f80613282565b6132f7612cd1565b9081613304575b5061327c565b7f356c1ed0403936d05af0abea05fbda16720ce964f55d7010cee1ba6cd8e1f60a91925061336290926133416001600160a01b03865116876141b5565b6040519182916006835287602084015260606040840152606083019061232e565b0390a15f806132fe565b906129fe939250506003606082015261014081015191614279565b8161339191612082565b61034c57825f61325f565b9150610140810191825192600160808401516133b781612353565b6133c081612353565b146133cf575b50505050505050565b60408201805180159081156139e6575b5080156139ba575b801561398e575b1561365857508560e08401526001600160a01b038351169160208401966001600160a01b038851169360a086019485519060c0880192835160408a019586519061343782612353565b303b156131bf57918f8e959392869593613492604051998a9788977f6332d72600000000000000000000000000000000000000000000000000000000895260048901526024880152610100604488015261010487019061232e565b93606486015260848501526134a681612353565b60a484015260c48301528360e4830152038183305af19182613643575b50506135da57505050505050506001906134db612cb6565b6308c379a01461355d575b506134fb575b50505b5f8080808080806133c6565b7f4c94adf18d8bfad12d476c7b93150b992bfa3fb9a83d713dd8a97359b7413f82916135306001600160a01b03613055612d45565b61355360405192839260038452602084015260606040840152606083019061232e565b0390a15f806134ec565b613565612cd1565b9081613572575b506134e6565b7f356c1ed0403936d05af0abea05fbda16720ce964f55d7010cee1ba6cd8e1f60a9192506135d090926135af6001600160a01b03865116876141b5565b6040519182916003835287602084015260606040840152606083019061232e565b0390a15f8061356c565b908291606061360f9b989a949997990191825115801590613636575b613614575b505050505050505060036060830152614279565b6134ef565b61362a969a50613165865160011c8097516122ba565b5f8080808080806135fb565b5060a084015115156135f6565b8161364d91612082565b610a5c57885f6134c3565b9350945061366c855160011c8096516122ba565b926001600160a01b038351169560208401966001600160a01b038851169160a08601519360c087015190516040880151906136a682612353565b61018089015192303b1561171757926136f4928c9795928897956040519a8b9889987f068c9c26000000000000000000000000000000000000000000000000000000008a5260048a01612dc1565b038183305af19182613979575b505061380c57505050600190613715612cb6565b6308c379a01461378f575b5061372d575b50506134ef565b7f4c94adf18d8bfad12d476c7b93150b992bfa3fb9a83d713dd8a97359b7413f82916137626001600160a01b03613055612d45565b61378560405192839260048452602084015260606040840152606083019061232e565b0390a15f80613726565b613797612cd1565b90816137a4575b50613720565b7f356c1ed0403936d05af0abea05fbda16720ce964f55d7010cee1ba6cd8e1f60a91925061380290926137e16001600160a01b03865116876141b5565b6040519182916004835287602084015260606040840152606083019061232e565b0390a15f8061379e565b90929594919350606081019081511580159061396c575b61383d575b50506003606083015292935061360f92614279565b6001600160a01b0360025416604051927f49138690000000000000000000000000000000000000000000000000000000008452602084600481855afa938415610aa2578994613938575b505f198401938411613924579060a08993925192015193813b15610c97578360e49260405196879586947fbe63309e000000000000000000000000000000000000000000000000000000008652600486015260026024860152836044860152606485015282608485015260a48401528160c48401525af18015611ebf5761390f575b80613828565b61391a868092612082565b6112ec575f613909565b602489634e487b7160e01b81526011600452fd5b9093506020813d602011613964575b8161395460209383612082565b810103126100155751925f613887565b3d9150613947565b5060a08101511515613823565b8161398391612082565b6112ec57845f613701565b506002604085015161399f81612353565b6139a881612353565b1480156133ee575080518710156133ee565b50600160408501516139cb81612353565b6139d481612353565b1480156133e7575080518711156133e7565b905060e0850151145f6133df565b90506020813d602011613a27575b81613a0f60209383612082565b810103126112ec575180151581036112ec575f612f02565b3d9150613a02565b9091506060810193845115806140af575b8015614066575b6140495780945f928151151580613fde575b15613eaf576080019182518015928315613ea4575b50508115613e71575b8115613e3b575b5015613e325750506001905b610140810180519215613c3557506001600160a01b038151169360208201946001600160a01b038651169060a08401519260c085015190604086015191613ad083612353565b303b15610a5c578a899593869593613afd93604051998a9788976307e7148560e01b895260048901612d74565b038183305af19182613c20575b5050613c0b575050600190613b1d612cb6565b6308c379a014613b8e575b50613b31575050565b7f4c94adf18d8bfad12d476c7b93150b992bfa3fb9a83d713dd8a97359b7413f8291613b666001600160a01b03613055612d45565b613b8960405192839260018452602084015260606040840152606083019061232e565b0390a1565b613b96612cd1565b9081613ba3575b50613b28565b7f356c1ed0403936d05af0abea05fbda16720ce964f55d7010cee1ba6cd8e1f60a919250613c019092613be06001600160a01b03865116876141b5565b6040519182916001835287602084015260606040840152606083019061232e565b0390a15f80613b9d565b916129fe949193505060036060830152614279565b81613c2a91612082565b610c9757835f613b0a565b91613c459060011c8093516122ba565b916001600160a01b0360025416946001600160a01b0383511660208401966001600160a01b0388511660a086015192604087015190613c8382612353565b60c08801519161018089015197853b1561001557613cd0985f9889956040519b8c9a8b998a9863308b99cb60e21b8a5260048a015260248901526101a060448901526101a488019061232e565b94613cda81612353565b60648701526002608487015260a486015260c48501528460e485015284610104850152846101248501526101448401528361016484015261018483015203925af19081613e1d575b50613c0b575050600190613d34612cb6565b6308c379a014613da0575b50613d48575050565b7f4c94adf18d8bfad12d476c7b93150b992bfa3fb9a83d713dd8a97359b7413f8291613d7d6001600160a01b03613055612d45565b613b8960405192839260028452602084015260606040840152606083019061232e565b613da8612cd1565b9081613db5575b50613d3f565b7f356c1ed0403936d05af0abea05fbda16720ce964f55d7010cee1ba6cd8e1f60a919250613e139092613df26001600160a01b03865116876141b5565b6040519182916002835287602084015260606040840152606083019061232e565b0390a15f80613daf565b613e2a9194505f90612082565b5f925f613d22565b51935090613a8a565b905060026040850151613e4d81612353565b613e5681612353565b149081613e65575b505f613a7e565b9050815110155f613e5e565b905060016040850151613e8381612353565b613e8c81612353565b1480613e99575b90613a77565b508082511115613e93565b511491505f80613a6e565b905060a08101908151151580613f73575b15613f695760c0019182518015928315613f5e575b50508115613f2b575b8115613ef5575b5015613e32575050600190613a8a565b905060026040850151613f0781612353565b613f1081612353565b149081613f1f575b505f613ee5565b9050815111155f613f18565b905060016040850151613f3d81612353565b613f4681612353565b1480613f53575b90613ede565b508082511015613f4d565b511491505f80613ed5565b5050505050505050565b506040850160018151613f8581612353565b613f8e81612353565b149081613fd2575b8115613fa3575b50613ec0565b6002915051613fb181612353565b613fba81612353565b1480613fc7575b5f613f9d565b508151831015613fc1565b83518511159150613f96565b506040850160018151613ff081612353565b613ff981612353565b14908161403d575b811561400e575b50613a59565b600291505161401c81612353565b61402581612353565b1480614032575b5f614008565b50815183111561402c565b83518510159150614001565b505090506129fe9291506003606082015261014081015191614279565b5060608301600181516140788161235d565b6140818161235d565b14159081614090575b50613a47565b600291505161409e8161235d565b6140a78161235d565b14155f61408a565b5060a082015115613a40565b50600260808301516140cc81612353565b6140d581612353565b14612ea8565b9091503d805f833e6140ed8183612082565b8101906020818303126100155780519067ffffffffffffffff821161001557019060e082820312610015576040519160e0830183811067ffffffffffffffff82111761205257604052805167ffffffffffffffff81116100155760c09261415591830161238f565b83526020810151602084015260408101516040840152606081015160608401526080810151608084015260a081015160a0840152015160c0820152905f612e97565b5f9192506141ae903d8084833e61099d8183612082565b9190612e54565b6001600160a01b036003541691823b156100155760645f92836001600160a01b039560405196879586947fc2b3356400000000000000000000000000000000000000000000000000000000865260048601521660248401528160448401525af18015611f0d576129f45750565b60ff7ff0c57e16840df040f15088dc2f81fe391c3923bec73e23a9662efc9c229c6a005460401c161561425157565b7fd7e6bcf8000000000000000000000000000000000000000000000000000000005f5260045ffd5b9060606001600160a01b0360025416910151906142958261235d565b803b15610015575f928360649260405196879586947fac89c79800000000000000000000000000000000000000000000000000000000865260048601526142db8161235d565b602485015260448401525af18015611f0d576129f4575056fea2646970667358221220d1365642d01029d5e97e5e8c377b4deb42c11c523f34a39f50ab6e222647691a64736f6c634300081c0033",
  "linkReferences": {},
  "deployedLinkReferences": {}
}