{
  "_format": "hh-sol-artifact-1",
  "contractName": "TradeAgent",
  "sourceName": "contracts/TradeAgent.sol",
  "abi": [
    {
      "inputs": [],
      "name": "InvalidInitialization",
      "type": "error"
    },
    {
      "inputs": [],
      "name": "NotInitializing",
      "type": "error"
    },
    {
      "inputs": [
        {
          "internalType": "address",
          "name": "owner",
          "type": "address"
        }
      ],
      "name": "OwnableInvalidOwner",
      "type": "error"
    },
    {
      "inputs": [
        {
          "internalType": "address",
          "name": "account",
          "type": "address"
        }
      ],
      "name": "OwnableUnauthorizedAccount",
      "type": "error"
    },
    {
      "anonymous": false,
      "inputs": [
        {
          "indexed": false,
          "internalType": "address",
          "name": "token",
          "type": "address"
        },
        {
          "indexed": false,
          "internalType": "address",
          "name": "holder",
          "type": "address"
        },
        {
          "indexed": false,
          "internalType": "string",
          "name": "name",
          "type": "string"
        },
        {
          "indexed": false,
          "internalType": "enum ICommon.Direct",
          "name": "direct",
          "type": "uint8"
        },
        {
          "indexed": false,
          "internalType": "uint256",
          "name": "value",
          "type": "uint256"
        },
        {
          "indexed": false,
          "internalType": "uint256",
          "name": "size",
          "type": "uint256"
        },
        {
          "indexed": false,
          "internalType": "uint256",
          "name": "margin",
          "type": "uint256"
        },
        {
          "indexed": false,
          "internalType": "uint256",
          "name": "freeze",
          "type": "uint256"
        }
      ],
      "name": "AccountPosition",
      "type": "event"
    },
    {
      "anonymous": false,
      "inputs": [
        {
          "indexed": false,
          "internalType": "address",
          "name": "token",
          "type": "address"
        },
        {
          "indexed": false,
          "internalType": "address",
          "name": "taker",
          "type": "address"
        },
        {
          "indexed": false,
          "internalType": "uint256",
          "name": "amount",
          "type": "uint256"
        },
        {
          "indexed": false,
          "internalType": "uint256",
          "name": "availableAmount",
          "type": "uint256"
        },
        {
          "indexed": false,
          "internalType": "uint256",
          "name": "marginAmount",
          "type": "uint256"
        },
        {
          "indexed": false,
          "internalType": "uint256",
          "name": "locked",
          "type": "uint256"
        },
        {
          "indexed": false,
          "internalType": "uint256",
          "name": "stage",
          "type": "uint256"
        },
        {
          "indexed": false,
          "internalType": "uint256",
          "name": "dif",
          "type": "uint256"
        }
      ],
      "name": "BalanceOfTaker",
      "type": "event"
    },
    {
      "anonymous": false,
      "inputs": [
        {
          "indexed": false,
          "internalType": "string",
          "name": "name",
          "type": "string"
        },
        {
          "indexed": true,
          "internalType": "address",
          "name": "taker",
          "type": "address"
        },
        {
          "indexed": true,
          "internalType": "address",
          "name": "token",
          "type": "address"
        },
        {
          "indexed": false,
          "internalType": "uint256",
          "name": "orderID",
          "type": "uint256"
        },
        {
          "indexed": false,
          "internalType": "enum ICommon.Direct",
          "name": "direct",
          "type": "uint8"
        },
        {
          "indexed": false,
          "internalType": "enum IPerpetual.OrderState",
          "name": "state",
          "type": "uint8"
        },
        {
          "indexed": false,
          "internalType": "enum ICommon.Offset",
          "name": "offset",
          "type": "uint8"
        },
        {
          "indexed": false,
          "internalType": "uint256",
          "name": "amount",
          "type": "uint256"
        },
        {
          "indexed": false,
          "internalType": "uint256",
          "name": "targetPrice",
          "type": "uint256"
        },
        {
          "indexed": false,
          "internalType": "uint256",
          "name": "margin",
          "type": "uint256"
        },
        {
          "indexed": false,
          "internalType": "uint256",
          "name": "rewardGas",
          "type": "uint256"
        },
        {
          "indexed": false,
          "internalType": "uint256",
          "name": "tradingFee",
          "type": "uint256"
        },
        {
          "indexed": false,
          "internalType": "uint256",
          "name": "startTime",
          "type": "uint256"
        },
        {
          "indexed": false,
          "internalType": "uint256",
          "name": "orderType",
          "type": "uint256"
        }
      ],
      "name": "CreateLimitedOrder",
      "type": "event"
    },
    {
      "anonymous": false,
      "inputs": [
        {
          "indexed": false,
          "internalType": "uint256",
          "name": "limitOrderID",
          "type": "uint256"
        },
        {
          "indexed": false,
          "internalType": "uint256",
          "name": "openLimitPrice",
          "type": "uint256"
        },
        {
          "indexed": false,
          "internalType": "uint256",
          "name": "gainTriggerPrice",
          "type": "uint256"
        },
        {
          "indexed": false,
          "internalType": "uint256",
          "name": "gainLimitPrice",
          "type": "uint256"
        },
        {
          "indexed": false,
          "internalType": "uint256",
          "name": "lossTriggerPrice",
          "type": "uint256"
        },
        {
          "indexed": false,
          "internalType": "uint256",
          "name": "lossLimitPrice",
          "type": "uint256"
        }
      ],
      "name": "CreateTriggerCondition",
      "type": "event"
    },
    {
      "anonymous": false,
      "inputs": [
        {
          "indexed": false,
          "internalType": "uint256",
          "name": "code",
          "type": "uint256"
        },
        {
          "indexed": false,
          "internalType": "uint256",
          "name": "orderID",
          "type": "uint256"
        },
        {
          "indexed": false,
          "internalType": "string",
          "name": "message",
          "type": "string"
        }
      ],
      "name": "ErrorInfo",
      "type": "event"
    },
    {
      "anonymous": false,
      "inputs": [
        {
          "indexed": false,
          "internalType": "uint256",
          "name": "code",
          "type": "uint256"
        },
        {
          "indexed": false,
          "internalType": "uint256",
          "name": "orderID",
          "type": "uint256"
        },
        {
          "indexed": false,
          "internalType": "bytes",
          "name": "message",
          "type": "bytes"
        }
      ],
      "name": "ExceptErrorInfo",
      "type": "event"
    },
    {
      "anonymous": false,
      "inputs": [
        {
          "indexed": false,
          "internalType": "uint64",
          "name": "version",
          "type": "uint64"
        }
      ],
      "name": "Initialized",
      "type": "event"
    },
    {
      "anonymous": false,
      "inputs": [
        {
          "indexed": false,
          "internalType": "string",
          "name": "name",
          "type": "string"
        },
        {
          "indexed": true,
          "internalType": "address",
          "name": "taker",
          "type": "address"
        },
        {
          "indexed": true,
          "internalType": "address",
          "name": "token",
          "type": "address"
        },
        {
          "indexed": false,
          "internalType": "uint256",
          "name": "orderID",
          "type": "uint256"
        },
        {
          "indexed": false,
          "internalType": "enum ICommon.Direct",
          "name": "direct",
          "type": "uint8"
        },
        {
          "indexed": false,
          "internalType": "enum IPerpetual.OrderState",
          "name": "state",
          "type": "uint8"
        },
        {
          "indexed": false,
          "internalType": "enum ICommon.Offset",
          "name": "offset",
          "type": "uint8"
        },
        {
          "indexed": false,
          "internalType": "uint256",
          "name": "amount",
          "type": "uint256"
        },
        {
          "indexed": false,
          "internalType": "uint256",
          "name": "targetPrice",
          "type": "uint256"
        },
        {
          "indexed": false,
          "internalType": "uint256",
          "name": "margin",
          "type": "uint256"
        },
        {
          "indexed": false,
          "internalType": "uint256",
          "name": "rewardGas",
          "type": "uint256"
        },
        {
          "indexed": false,
          "internalType": "uint256",
          "name": "tradingFee",
          "type": "uint256"
        },
        {
          "indexed": false,
          "internalType": "uint256",
          "name": "startTime",
          "type": "uint256"
        },
        {
          "indexed": false,
          "internalType": "uint256",
          "name": "orderType",
          "type": "uint256"
        }
      ],
      "name": "LimitedOrderHistory",
      "type": "event"
    },
    {
      "anonymous": false,
      "inputs": [
        {
          "indexed": false,
          "internalType": "address",
          "name": "token",
          "type": "address"
        },
        {
          "indexed": false,
          "internalType": "address",
          "name": "taker",
          "type": "address"
        }
      ],
      "name": "LiquidateTaker",
      "type": "event"
    },
    {
      "anonymous": false,
      "inputs": [
        {
          "indexed": true,
          "internalType": "address",
          "name": "taker",
          "type": "address"
        },
        {
          "indexed": false,
          "internalType": "string",
          "name": "name",
          "type": "string"
        },
        {
          "indexed": false,
          "internalType": "address",
          "name": "token",
          "type": "address"
        },
        {
          "indexed": false,
          "internalType": "uint256",
          "name": "orderID",
          "type": "uint256"
        },
        {
          "indexed": false,
          "internalType": "enum ICommon.Direct",
          "name": "direction",
          "type": "uint8"
        },
        {
          "indexed": false,
          "internalType": "enum IPerpetual.OrderType",
          "name": "orderType",
          "type": "uint8"
        },
        {
          "indexed": false,
          "internalType": "uint256",
          "name": "amount",
          "type": "uint256"
        },
        {
          "indexed": false,
          "internalType": "uint256",
          "name": "costPrice",
          "type": "uint256"
        },
        {
          "indexed": false,
          "internalType": "uint256",
          "name": "price",
          "type": "uint256"
        },
        {
          "indexed": false,
          "internalType": "uint256",
          "name": "tradingFee",
          "type": "uint256"
        },
        {
          "indexed": false,
          "internalType": "uint256",
          "name": "leverage",
          "type": "uint256"
        },
        {
          "indexed": false,
          "internalType": "uint256",
          "name": "marginAmount",
          "type": "uint256"
        },
        {
          "indexed": false,
          "internalType": "uint256",
          "name": "limitOrderId",
          "type": "uint256"
        },
        {
          "indexed": false,
          "internalType": "uint256",
          "name": "timestamp",
          "type": "uint256"
        }
      ],
      "name": "OrderHistory",
      "type": "event"
    },
    {
      "anonymous": false,
      "inputs": [
        {
          "indexed": true,
          "internalType": "address",
          "name": "previousOwner",
          "type": "address"
        },
        {
          "indexed": true,
          "internalType": "address",
          "name": "newOwner",
          "type": "address"
        }
      ],
      "name": "OwnershipTransferred",
      "type": "event"
    },
    {
      "anonymous": false,
      "inputs": [
        {
          "indexed": false,
          "internalType": "address",
          "name": "token",
          "type": "address"
        },
        {
          "indexed": false,
          "internalType": "uint256",
          "name": "orderID",
          "type": "uint256"
        },
        {
          "indexed": false,
          "internalType": "uint256",
          "name": "dealID",
          "type": "uint256"
        },
        {
          "indexed": false,
          "internalType": "enum IPerpetual.TradeType",
          "name": "tradeType",
          "type": "uint8"
        },
        {
          "indexed": false,
          "internalType": "uint256",
          "name": "amount",
          "type": "uint256"
        },
        {
          "indexed": false,
          "internalType": "uint256",
          "name": "price",
          "type": "uint256"
        },
        {
          "indexed": false,
          "internalType": "uint256",
          "name": "tradingFee",
          "type": "uint256"
        },
        {
          "indexed": false,
          "internalType": "uint256",
          "name": "leverage",
          "type": "uint256"
        },
        {
          "indexed": false,
          "internalType": "uint256",
          "name": "marginAmount",
          "type": "uint256"
        },
        {
          "indexed": false,
          "internalType": "uint256",
          "name": "profit",
          "type": "uint256"
        },
        {
          "indexed": false,
          "internalType": "uint256",
          "name": "loss",
          "type": "uint256"
        },
        {
          "indexed": false,
          "internalType": "uint256",
          "name": "timestamp",
          "type": "uint256"
        }
      ],
      "name": "TradeHistory",
      "type": "event"
    },
    {
      "anonymous": false,
      "inputs": [
        {
          "indexed": true,
          "internalType": "address",
          "name": "token",
          "type": "address"
        },
        {
          "indexed": true,
          "internalType": "address",
          "name": "sender",
          "type": "address"
        },
        {
          "indexed": true,
          "internalType": "address",
          "name": "received",
          "type": "address"
        },
        {
          "indexed": false,
          "internalType": "enum ICommon.TransactionType",
          "name": "transactionType",
          "type": "uint8"
        },
        {
          "indexed": false,
          "internalType": "uint256",
          "name": "amount",
          "type": "uint256"
        },
        {
          "indexed": false,
          "internalType": "uint256",
          "name": "timestamp",
          "type": "uint256"
        }
      ],
      "name": "TransactionHistory",
      "type": "event"
    },
    {
      "anonymous": false,
      "inputs": [
        {
          "indexed": false,
          "internalType": "address",
          "name": "token",
          "type": "address"
        },
        {
          "indexed": false,
          "internalType": "address",
          "name": "sender",
          "type": "address"
        },
        {
          "indexed": false,
          "internalType": "string",
          "name": "name",
          "type": "string"
        },
        {
          "indexed": false,
          "internalType": "uint256",
          "name": "beforeLeverage",
          "type": "uint256"
        },
        {
          "indexed": false,
          "internalType": "uint256",
          "name": "afterLeverage",
          "type": "uint256"
        }
      ],
      "name": "setLeverage",
      "type": "event"
    },
    {
      "stateMutability": "nonpayable",
      "type": "fallback"
    },
    {
      "inputs": [
        {
          "internalType": "enum ICommon.Direct",
          "name": "_type",
          "type": "uint8"
        },
        {
          "internalType": "uint256",
          "name": "_currentPrice",
          "type": "uint256"
        },
        {
          "internalType": "uint256",
          "name": "_dealPrice",
          "type": "uint256"
        },
        {
          "internalType": "uint256",
          "name": "_amount",
          "type": "uint256"
        },
        {
          "internalType": "uint256",
          "name": "_willClose",
          "type": "uint256"
        }
      ],
      "name": "calDealPNL",
      "outputs": [
        {
          "internalType": "uint256",
          "name": "profit",
          "type": "uint256"
        },
        {
          "internalType": "uint256",
          "name": "loss",
          "type": "uint256"
        }
      ],
      "stateMutability": "pure",
      "type": "function"
    },
    {
      "inputs": [
        {
          "internalType": "uint256",
          "name": "_orderID",
          "type": "uint256"
        },
        {
          "internalType": "address",
          "name": "_taker",
          "type": "address"
        },
        {
          "internalType": "bool",
          "name": "_status",
          "type": "bool"
        }
      ],
      "name": "cancelOrder",
      "outputs": [],
      "stateMutability": "nonpayable",
      "type": "function"
    },
    {
      "inputs": [
        {
          "internalType": "uint256",
          "name": "_oID",
          "type": "uint256"
        },
        {
          "internalType": "uint256",
          "name": "_price",
          "type": "uint256"
        }
      ],
      "name": "checkLimitOrder",
      "outputs": [
        {
          "internalType": "bool",
          "name": "success",
          "type": "bool"
        }
      ],
      "stateMutability": "view",
      "type": "function"
    },
    {
      "inputs": [
        {
          "internalType": "uint256[]",
          "name": "_orders",
          "type": "uint256[]"
        },
        {
          "internalType": "uint256[]",
          "name": "_prices",
          "type": "uint256[]"
        }
      ],
      "name": "checkLimitOrders",
      "outputs": [
        {
          "internalType": "bool[]",
          "name": "result",
          "type": "bool[]"
        }
      ],
      "stateMutability": "view",
      "type": "function"
    },
    {
      "inputs": [
        {
          "internalType": "uint256[]",
          "name": "_deal",
          "type": "uint256[]"
        },
        {
          "internalType": "uint256[]",
          "name": "_price",
          "type": "uint256[]"
        }
      ],
      "name": "checkMakerDealsRiskStatus",
      "outputs": [
        {
          "internalType": "bool[]",
          "name": "riskStatus",
          "type": "bool[]"
        }
      ],
      "stateMutability": "view",
      "type": "function"
    },
    {
      "inputs": [
        {
          "internalType": "address",
          "name": "_token",
          "type": "address"
        },
        {
          "internalType": "address",
          "name": "_taker",
          "type": "address"
        },
        {
          "internalType": "string[]",
          "name": "_symbols",
          "type": "string[]"
        },
        {
          "internalType": "uint256[]",
          "name": "_prices",
          "type": "uint256[]"
        }
      ],
      "name": "checkTakerRiskStatus",
      "outputs": [
        {
          "internalType": "bool",
          "name": "isRisk",
          "type": "bool"
        },
        {
          "internalType": "uint256",
          "name": "netLoss",
          "type": "uint256"
        },
        {
          "internalType": "uint256",
          "name": "overLoss",
          "type": "uint256"
        },
        {
          "internalType": "uint256",
          "name": "loss",
          "type": "uint256"
        }
      ],
      "stateMutability": "view",
      "type": "function"
    },
    {
      "inputs": [
        {
          "internalType": "address[]",
          "name": "_tokens",
          "type": "address[]"
        },
        {
          "internalType": "address[]",
          "name": "_takers",
          "type": "address[]"
        },
        {
          "internalType": "string[]",
          "name": "_symbols",
          "type": "string[]"
        },
        {
          "internalType": "uint256[]",
          "name": "_prices",
          "type": "uint256[]"
        }
      ],
      "name": "checkTakersRiskStatus",
      "outputs": [
        {
          "internalType": "bool[]",
          "name": "riskStatus",
          "type": "bool[]"
        }
      ],
      "stateMutability": "view",
      "type": "function"
    },
    {
      "inputs": [
        {
          "internalType": "address",
          "name": "_token",
          "type": "address"
        },
        {
          "internalType": "address",
          "name": "_taker",
          "type": "address"
        },
        {
          "internalType": "string",
          "name": "_pair",
          "type": "string"
        },
        {
          "internalType": "enum ICommon.Direct",
          "name": "_type",
          "type": "uint8"
        },
        {
          "internalType": "uint256",
          "name": "_currentPrice",
          "type": "uint256"
        },
        {
          "internalType": "uint256",
          "name": "_deposit",
          "type": "uint256"
        }
      ],
      "name": "clearingTakerPosition",
      "outputs": [
        {
          "internalType": "uint256",
          "name": "remainingDeposit",
          "type": "uint256"
        },
        {
          "internalType": "bool",
          "name": "clear",
          "type": "bool"
        }
      ],
      "stateMutability": "nonpayable",
      "type": "function"
    },
    {
      "inputs": [
        {
          "internalType": "address",
          "name": "_token",
          "type": "address"
        },
        {
          "internalType": "address",
          "name": "_taker",
          "type": "address"
        },
        {
          "internalType": "uint256",
          "name": "_dealID",
          "type": "uint256"
        },
        {
          "internalType": "uint256",
          "name": "_amount",
          "type": "uint256"
        },
        {
          "internalType": "enum IPerpetual.TradeType",
          "name": "_tradeType",
          "type": "uint8"
        },
        {
          "internalType": "uint256",
          "name": "_currentPrice",
          "type": "uint256"
        },
        {
          "internalType": "uint256",
          "name": "_leverage",
          "type": "uint256"
        },
        {
          "internalType": "uint256",
          "name": "_margin",
          "type": "uint256"
        },
        {
          "internalType": "uint256",
          "name": "_tradeFeeRate",
          "type": "uint256"
        },
        {
          "internalType": "uint256",
          "name": "_profit",
          "type": "uint256"
        },
        {
          "internalType": "uint256",
          "name": "_loss",
          "type": "uint256"
        }
      ],
      "name": "closeDealEvent",
      "outputs": [],
      "stateMutability": "nonpayable",
      "type": "function"
    },
    {
      "inputs": [
        {
          "internalType": "address",
          "name": "_token",
          "type": "address"
        },
        {
          "internalType": "address",
          "name": "_taker",
          "type": "address"
        },
        {
          "internalType": "string",
          "name": "_name",
          "type": "string"
        },
        {
          "internalType": "uint256",
          "name": "_amount",
          "type": "uint256"
        },
        {
          "internalType": "uint256",
          "name": "_currentPrice",
          "type": "uint256"
        },
        {
          "internalType": "enum ICommon.Direct",
          "name": "_direct",
          "type": "uint8"
        },
        {
          "internalType": "uint256",
          "name": "_limitID",
          "type": "uint256"
        }
      ],
      "name": "closeOrder",
      "outputs": [
        {
          "components": [
            {
              "internalType": "uint256",
              "name": "costPrice",
              "type": "uint256"
            },
            {
              "internalType": "uint256",
              "name": "totalMargin",
              "type": "uint256"
            },
            {
              "internalType": "uint256",
              "name": "tradingFee",
              "type": "uint256"
            },
            {
              "internalType": "uint256",
              "name": "gain",
              "type": "uint256"
            },
            {
              "internalType": "uint256",
              "name": "loss",
              "type": "uint256"
            }
          ],
          "internalType": "struct ICommon.CloseOrderResult",
          "name": "bulk",
          "type": "tuple"
        }
      ],
      "stateMutability": "nonpayable",
      "type": "function"
    },
    {
      "inputs": [
        {
          "internalType": "uint256",
          "name": "_start",
          "type": "uint256"
        },
        {
          "internalType": "uint256",
          "name": "_end",
          "type": "uint256"
        },
        {
          "internalType": "uint256",
          "name": "_count",
          "type": "uint256"
        }
      ],
      "name": "getActiveDeals",
      "outputs": [
        {
          "components": [
            {
              "internalType": "address",
              "name": "token",
              "type": "address"
            },
            {
              "internalType": "address payable",
              "name": "taker",
              "type": "address"
            },
            {
              "internalType": "enum ICommon.Direct",
              "name": "direct",
              "type": "uint8"
            },
            {
              "internalType": "enum ICommon.DealState",
              "name": "state",
              "type": "uint8"
            },
            {
              "internalType": "uint256",
              "name": "orderID",
              "type": "uint256"
            },
            {
              "internalType": "string",
              "name": "name",
              "type": "string"
            },
            {
              "internalType": "uint256",
              "name": "amount",
              "type": "uint256"
            },
            {
              "internalType": "uint256",
              "name": "price",
              "type": "uint256"
            },
            {
              "internalType": "uint256",
              "name": "leverage",
              "type": "uint256"
            },
            {
              "internalType": "uint256",
              "name": "margin",
              "type": "uint256"
            },
            {
              "internalType": "uint256",
              "name": "tradingFee",
              "type": "uint256"
            },
            {
              "internalType": "uint256",
              "name": "timestamp",
              "type": "uint256"
            }
          ],
          "internalType": "struct ICommon.Deal[]",
          "name": "info",
          "type": "tuple[]"
        },
        {
          "internalType": "uint256[]",
          "name": "ids",
          "type": "uint256[]"
        },
        {
          "internalType": "uint256",
          "name": "end",
          "type": "uint256"
        }
      ],
      "stateMutability": "view",
      "type": "function"
    },
    {
      "inputs": [
        {
          "internalType": "uint256",
          "name": "_start",
          "type": "uint256"
        },
        {
          "internalType": "uint256",
          "name": "_end",
          "type": "uint256"
        },
        {
          "internalType": "uint256",
          "name": "_count",
          "type": "uint256"
        }
      ],
      "name": "getActiveLimitedOrders",
      "outputs": [
        {
          "components": [
            {
              "internalType": "address",
              "name": "token",
              "type": "address"
            },
            {
              "internalType": "address payable",
              "name": "taker",
              "type": "address"
            },
            {
              "internalType": "enum ICommon.Direct",
              "name": "direct",
              "type": "uint8"
            },
            {
              "internalType": "enum IPerpetual.OrderState",
              "name": "state",
              "type": "uint8"
            },
            {
              "internalType": "enum ICommon.Offset",
              "name": "offset",
              "type": "uint8"
            },
            {
              "internalType": "string",
              "name": "name",
              "type": "string"
            },
            {
              "internalType": "uint256",
              "name": "amount",
              "type": "uint256"
            },
            {
              "internalType": "uint256",
              "name": "targetPrice",
              "type": "uint256"
            },
            {
              "internalType": "uint256",
              "name": "margin",
              "type": "uint256"
            },
            {
              "internalType": "uint256",
              "name": "tradingFee",
              "type": "uint256"
            },
            {
              "internalType": "uint256",
              "name": "rewardGas",
              "type": "uint256"
            },
            {
              "internalType": "uint256",
              "name": "startTime",
              "type": "uint256"
            },
            {
              "internalType": "uint256",
              "name": "orderType",
              "type": "uint256"
            }
          ],
          "internalType": "struct IPerpetual.LimitedOrder[]",
          "name": "info",
          "type": "tuple[]"
        },
        {
          "internalType": "uint256[]",
          "name": "ids",
          "type": "uint256[]"
        },
        {
          "internalType": "uint256",
          "name": "end",
          "type": "uint256"
        }
      ],
      "stateMutability": "view",
      "type": "function"
    },
    {
      "inputs": [
        {
          "internalType": "uint256[]",
          "name": "_ids",
          "type": "uint256[]"
        }
      ],
      "name": "getDeals",
      "outputs": [
        {
          "components": [
            {
              "internalType": "address",
              "name": "token",
              "type": "address"
            },
            {
              "internalType": "address payable",
              "name": "taker",
              "type": "address"
            },
            {
              "internalType": "enum ICommon.Direct",
              "name": "direct",
              "type": "uint8"
            },
            {
              "internalType": "enum ICommon.DealState",
              "name": "state",
              "type": "uint8"
            },
            {
              "internalType": "uint256",
              "name": "orderID",
              "type": "uint256"
            },
            {
              "internalType": "string",
              "name": "name",
              "type": "string"
            },
            {
              "internalType": "uint256",
              "name": "amount",
              "type": "uint256"
            },
            {
              "internalType": "uint256",
              "name": "price",
              "type": "uint256"
            },
            {
              "internalType": "uint256",
              "name": "leverage",
              "type": "uint256"
            },
            {
              "internalType": "uint256",
              "name": "margin",
              "type": "uint256"
            },
            {
              "internalType": "uint256",
              "name": "tradingFee",
              "type": "uint256"
            },
            {
              "internalType": "uint256",
              "name": "timestamp",
              "type": "uint256"
            }
          ],
          "internalType": "struct ICommon.Deal[]",
          "name": "info",
          "type": "tuple[]"
        }
      ],
      "stateMutability": "view",
      "type": "function"
    },
    {
      "inputs": [
        {
          "internalType": "uint256[]",
          "name": "_ids",
          "type": "uint256[]"
        }
      ],
      "name": "getLimitOrders",
      "outputs": [
        {
          "components": [
            {
              "internalType": "address",
              "name": "token",
              "type": "address"
            },
            {
              "internalType": "address payable",
              "name": "taker",
              "type": "address"
            },
            {
              "internalType": "enum ICommon.Direct",
              "name": "direct",
              "type": "uint8"
            },
            {
              "internalType": "enum IPerpetual.OrderState",
              "name": "state",
              "type": "uint8"
            },
            {
              "internalType": "enum ICommon.Offset",
              "name": "offset",
              "type": "uint8"
            },
            {
              "internalType": "string",
              "name": "name",
              "type": "string"
            },
            {
              "internalType": "uint256",
              "name": "amount",
              "type": "uint256"
            },
            {
              "internalType": "uint256",
              "name": "targetPrice",
              "type": "uint256"
            },
            {
              "internalType": "uint256",
              "name": "margin",
              "type": "uint256"
            },
            {
              "internalType": "uint256",
              "name": "tradingFee",
              "type": "uint256"
            },
            {
              "internalType": "uint256",
              "name": "rewardGas",
              "type": "uint256"
            },
            {
              "internalType": "uint256",
              "name": "startTime",
              "type": "uint256"
            },
            {
              "internalType": "uint256",
              "name": "orderType",
              "type": "uint256"
            }
          ],
          "internalType": "struct IPerpetual.LimitedOrder[]",
          "name": "info",
          "type": "tuple[]"
        }
      ],
      "stateMutability": "view",
      "type": "function"
    },
    {
      "inputs": [
        {
          "internalType": "address",
          "name": "_token",
          "type": "address"
        },
        {
          "internalType": "address",
          "name": "_user",
          "type": "address"
        },
        {
          "internalType": "string",
          "name": "_name",
          "type": "string"
        },
        {
          "internalType": "uint256",
          "name": "_price",
          "type": "uint256"
        }
      ],
      "name": "getMaxOpenAmount",
      "outputs": [
        {
          "internalType": "uint256",
          "name": "amount",
          "type": "uint256"
        }
      ],
      "stateMutability": "view",
      "type": "function"
    },
    {
      "inputs": [
        {
          "internalType": "address",
          "name": "_token",
          "type": "address"
        },
        {
          "internalType": "address",
          "name": "_user",
          "type": "address"
        },
        {
          "internalType": "string[]",
          "name": "_symbols",
          "type": "string[]"
        },
        {
          "internalType": "uint256[]",
          "name": "_prices",
          "type": "uint256[]"
        }
      ],
      "name": "getMaxWithdrawableAmount",
      "outputs": [
        {
          "internalType": "uint256",
          "name": "_amount",
          "type": "uint256"
        }
      ],
      "stateMutability": "view",
      "type": "function"
    },
    {
      "inputs": [
        {
          "internalType": "address",
          "name": "_token",
          "type": "address"
        },
        {
          "internalType": "address",
          "name": "_user",
          "type": "address"
        },
        {
          "internalType": "string[]",
          "name": "_symbols",
          "type": "string[]"
        },
        {
          "internalType": "uint256[]",
          "name": "_prices",
          "type": "uint256[]"
        }
      ],
      "name": "getPNL",
      "outputs": [
        {
          "internalType": "bool",
          "name": "flag",
          "type": "bool"
        },
        {
          "internalType": "uint256",
          "name": "amount",
          "type": "uint256"
        }
      ],
      "stateMutability": "view",
      "type": "function"
    },
    {
      "inputs": [
        {
          "internalType": "address",
          "name": "_token",
          "type": "address"
        },
        {
          "internalType": "address",
          "name": "_taker",
          "type": "address"
        },
        {
          "internalType": "string",
          "name": "_name",
          "type": "string"
        },
        {
          "internalType": "uint256",
          "name": "_price",
          "type": "uint256"
        },
        {
          "internalType": "uint8",
          "name": "_direction",
          "type": "uint8"
        }
      ],
      "name": "getPNLByCertainPosition",
      "outputs": [
        {
          "internalType": "uint256",
          "name": "profit",
          "type": "uint256"
        },
        {
          "internalType": "uint256",
          "name": "loss",
          "type": "uint256"
        }
      ],
      "stateMutability": "view",
      "type": "function"
    },
    {
      "inputs": [
        {
          "internalType": "address",
          "name": "_token",
          "type": "address"
        },
        {
          "internalType": "address",
          "name": "_taker",
          "type": "address"
        },
        {
          "internalType": "string[]",
          "name": "_symbols",
          "type": "string[]"
        },
        {
          "internalType": "uint256[]",
          "name": "_prices",
          "type": "uint256[]"
        }
      ],
      "name": "getPNLByPosition",
      "outputs": [
        {
          "internalType": "uint256",
          "name": "totalProfit",
          "type": "uint256"
        },
        {
          "internalType": "uint256",
          "name": "totalLoss",
          "type": "uint256"
        }
      ],
      "stateMutability": "view",
      "type": "function"
    },
    {
      "inputs": [
        {
          "internalType": "uint256[]",
          "name": "_ids",
          "type": "uint256[]"
        }
      ],
      "name": "getTriggerConditions",
      "outputs": [
        {
          "components": [
            {
              "internalType": "string",
              "name": "remark",
              "type": "string"
            },
            {
              "internalType": "uint256",
              "name": "mean",
              "type": "uint256"
            },
            {
              "internalType": "uint256",
              "name": "openLimitPrice",
              "type": "uint256"
            },
            {
              "internalType": "uint256",
              "name": "gainTriggerPrice",
              "type": "uint256"
            },
            {
              "internalType": "uint256",
              "name": "gainLimitPrice",
              "type": "uint256"
            },
            {
              "internalType": "uint256",
              "name": "lossTriggerPrice",
              "type": "uint256"
            },
            {
              "internalType": "uint256",
              "name": "lossLimitPrice",
              "type": "uint256"
            }
          ],
          "internalType": "struct IPerpetual.TriggerCondition[]",
          "name": "info",
          "type": "tuple[]"
        }
      ],
      "stateMutability": "view",
      "type": "function"
    },
    {
      "inputs": [
        {
          "internalType": "address",
          "name": "_priPool",
          "type": "address"
        },
        {
          "internalType": "address",
          "name": "_perpetual",
          "type": "address"
        }
      ],
      "name": "initialize",
      "outputs": [],
      "stateMutability": "nonpayable",
      "type": "function"
    },
    {
      "inputs": [
        {
          "internalType": "uint256",
          "name": "_dealID",
          "type": "uint256"
        },
        {
          "internalType": "uint256",
          "name": "_price",
          "type": "uint256"
        }
      ],
      "name": "liquidateMakerDeal",
      "outputs": [
        {
          "internalType": "bool",
          "name": "isLiquidated",
          "type": "bool"
        },
        {
          "internalType": "bool",
          "name": "isAgreement",
          "type": "bool"
        },
        {
          "internalType": "uint256",
          "name": "userProfit",
          "type": "uint256"
        }
      ],
      "stateMutability": "nonpayable",
      "type": "function"
    },
    {
      "inputs": [
        {
          "internalType": "uint256[]",
          "name": "_dealIDs",
          "type": "uint256[]"
        },
        {
          "internalType": "string[]",
          "name": "_symbols",
          "type": "string[]"
        },
        {
          "internalType": "uint256[]",
          "name": "_prices",
          "type": "uint256[]"
        }
      ],
      "name": "liquidateMakerDeals",
      "outputs": [],
      "stateMutability": "nonpayable",
      "type": "function"
    },
    {
      "inputs": [],
      "name": "owner",
      "outputs": [
        {
          "internalType": "address",
          "name": "",
          "type": "address"
        }
      ],
      "stateMutability": "view",
      "type": "function"
    },
    {
      "inputs": [],
      "name": "renounceOwnership",
      "outputs": [],
      "stateMutability": "nonpayable",
      "type": "function"
    },
    {
      "inputs": [
        {
          "internalType": "address",
          "name": "_orderBook",
          "type": "address"
        },
        {
          "internalType": "address",
          "name": "_station",
          "type": "address"
        },
        {
          "internalType": "address",
          "name": "_poolAgent",
          "type": "address"
        },
        {
          "internalType": "address",
          "name": "keeper",
          "type": "address"
        }
      ],
      "name": "setKeepers",
      "outputs": [],
      "stateMutability": "nonpayable",
      "type": "function"
    },
    {
      "inputs": [
        {
          "internalType": "address",
          "name": "newOwner",
          "type": "address"
        }
      ],
      "name": "transferOwnership",
      "outputs": [],
      "stateMutability": "nonpayable",
      "type": "function"
    }
  ],
  "bytecode": "0x60808060405234601557614c99908161001a8239f35b5f80fdfe60806040526004361015610019575b3461001557005b5f80fd5b5f3560e01c8063016f4dcb146101c85780630374c555146101c35780630414065b146101be57806307e71485146101b95780633ca1451a146101b4578063485cc955146101af57806350942355146101aa57806352e282a7146101a5578063642bcd18146101a0578063715018a61461019b57806375ffb53d1461019657806381a4f173146101915780638da5cb5b1461018c578063ac6b96a214610187578063c1d159d214610182578063c2b335641461017d578063ca6ec37214610178578063d15a1b4114610173578063d719606a1461016e578063e6b34c6914610169578063e771ad7214610164578063ea270eb21461015f578063eb4f2e361461015a578063f10f4fa014610155578063f1257f8414610150578063f2fde38b1461014b5763f69ef33b0361000e5761204d565b612020565b611fb9565b611f9f565b611cb0565b611c3a565b611a83565b611a3d565b611a07565b6119dd565b6118ea565b6117b7565b6116d5565b6115ac565b611556565b6113fc565b611211565b610fca565b610f56565b610e3f565b610c55565b610a0d565b6108bb565b610838565b610748565b6104bb565b3461001557604060031936011261001557606061020260043560243590335f5260056020526101fd60ff60405f2054166120b6565b6122eb565b906040519215158352151560208301526040820152f35b634e487b7160e01b5f52604160045260245ffd5b60e0810190811067ffffffffffffffff82111761024957604052565b610219565b60a0810190811067ffffffffffffffff82111761024957604052565b610100810190811067ffffffffffffffff82111761024957604052565b610180810190811067ffffffffffffffff82111761024957604052565b6101a0810190811067ffffffffffffffff82111761024957604052565b60c0810190811067ffffffffffffffff82111761024957604052565b90601f601f19910116810190811067ffffffffffffffff82111761024957604052565b60405190610310610180836102dd565b565b6040519061031060e0836102dd565b604051906103106101a0836102dd565b67ffffffffffffffff81116102495760051b60200190565b9080601f8301121561001557813561036081610331565b9261036e60405194856102dd565b81845260208085019260051b82010192831161001557602001905b8282106103965750505090565b8135815260209182019101610389565b6020600319820112610015576004359067ffffffffffffffff8211610015576103d191600401610349565b90565b90601f19601f602080948051918291828752018686015e5f8582860101520116010190565b602081016020825282518091526040820191602060408360051b8301019401925f915b83831061042b57505050505090565b9091929394602080827fffffffffffffffffffffffffffffffffffffffffffffffffffffffffffffffc0856001950301865288519060c080610476845160e0855260e08501906103d4565b93858101518685015260408101516040850152606081015160608501526080810151608085015260a081015160a085015201519101529701930193019193929061041c565b34610015576104c9366103a6565b80516104d48161257e565b915f906104f86104ec6002546001600160a01b031690565b6001600160a01b031690565b915b838110610513576040518061050f87826103f9565b0390f35b805f61052261055b93856125f7565b51604051809481927f0187703f000000000000000000000000000000000000000000000000000000008352600483019190602083019252565b0381875afa80156105af576001925f9161058d575b5061057b82886125f7565b5261058681876125f7565b50016104fa565b6105a991503d805f833e6105a181836102dd565b81019061261f565b5f610570565b61224f565b6001600160a01b0381160361001557565b9080601f830112156100155781356105dc81610331565b926105ea60405194856102dd565b81845260208085019260051b82010192831161001557602001905b8282106106125750505090565b602080918335610621816105b4565b815201910190610605565b67ffffffffffffffff811161024957601f01601f191660200190565b81601f820112156100155780359061065f8261062c565b9261066d60405194856102dd565b8284526020838301011161001557815f926020809301838601378301015290565b9080601f830112156100155781356106a581610331565b926106b360405194856102dd565b81845260208085019260051b820101918383116100155760208201905b8382106106df57505050505090565b813567ffffffffffffffff81116100155760209161070287848094880101610648565b8152019101906106d0565b60206040818301928281528451809452019201905f5b8181106107305750505090565b82511515845260209384019390920191600101610723565b346100155760806003193601126100155760043567ffffffffffffffff8111610015576107799036906004016105c5565b60243567ffffffffffffffff8111610015576107999036906004016105c5565b9060443567ffffffffffffffff8111610015576107ba90369060040161068e565b906064359167ffffffffffffffff83116100155761050f936107e36107e9943690600401610349565b926126de565b6040519182918261070d565b6003111561001557565b6103109092919260a081019360808091805184526020810151602085015260408101516040850152606081015160608501520151910152565b346100155760e060031936011261001557600435610855816105b4565b60243590610862826105b4565b6044359067ffffffffffffffff82116100155761050f9261088a6108af933690600401610648565b6064356084359160a4359361089e856107f5565b60c435956108aa61274e565b612778565b604051918291826107ff565b34610015576080600319360112610015576004356108d8816105b4565b6024356108e4816105b4565b6044359067ffffffffffffffff82116100155761010061090b61098c933690600401610648565b91610924836064359261091e818961466a565b97614736565b906001600160a01b03610943604061093b876147fc565b0151956148a4565b16906040518096819482937f32a8450200000000000000000000000000000000000000000000000000000000845288600485016040919493926060820195825260208201520152565b03915afa9081156105af5761050f936109c0935f936109d0575b5060609160206109b79201516122ad565b910151906122c0565b6040519081529081906020820190565b6109b79193509160206109fc6060946101003d8111610a06575b6109f481836102dd565b81019061297e565b94925050916109a6565b503d6109ea565b3461001557604060031936011261001557600435610a2a816105b4565b60243590610a37826105b4565b7ff0c57e16840df040f15088dc2f81fe391c3923bec73e23a9662efc9c229c6a00549167ffffffffffffffff610a8660ff604086901c1615610a78565b1590565b9467ffffffffffffffff1690565b1680159081610c4d575b6001149081610c43575b159081610c3a575b50610c1257610b239183610b1a60017fffffffffffffffffffffffffffffffffffffffffffffffff00000000000000007ff0c57e16840df040f15088dc2f81fe391c3923bec73e23a9662efc9c229c6a005416177ff0c57e16840df040f15088dc2f81fe391c3923bec73e23a9662efc9c229c6a0055565b610bad576129e3565b610b2957005b610b7e68ff0000000000000000197ff0c57e16840df040f15088dc2f81fe391c3923bec73e23a9662efc9c229c6a0054167ff0c57e16840df040f15088dc2f81fe391c3923bec73e23a9662efc9c229c6a0055565b604051600181527fc7f505b2f371ae2175ee4913f4499e1f2633a7b5936321eed1cdaeb6115181d290602090a1005b610c0d6801000000000000000068ff0000000000000000197ff0c57e16840df040f15088dc2f81fe391c3923bec73e23a9662efc9c229c6a005416177ff0c57e16840df040f15088dc2f81fe391c3923bec73e23a9662efc9c229c6a0055565b6129e3565b7ff92ee8a9000000000000000000000000000000000000000000000000000000005f5260045ffd5b9050155f610aa2565b303b159150610a9a565b849150610a90565b346100155760c060031936011261001557600435610c72816105b4565b60243590610c7f826105b4565b6044359167ffffffffffffffff831161001557610ca3610cd5933690600401610648565b60643590610cb0826107f5565b6084359260a43594335f526005602052610cd060ff60405f2054166120b6565b612af7565b60408051928352901515602083015290f35b634e487b7160e01b5f52602160045260245ffd5b60031115610d0557565b610ce7565b90610d1482610cfb565b52565b60061115610d0557565b906006821015610d055752565b9080602083519182815201916020808360051b8301019401925f915b838310610d5957505050505090565b909192939460208082601f198560019503018652885190610d838183516001600160a01b03169052565b818301516001600160a01b031681840152610da660408301516040830190610d0a565b610db860608301516060830190610d21565b6080820151608082015261016080610de160a085015161018060a08601526101808501906103d4565b9360c081015160c085015260e081015160e0850152610100810151610100850152610120810151610120850152610140810151610140850152015191015297019301930191939290610d4a565b9060206103d1928181520190610d2e565b3461001557610e4d366103a6565b8051610e5881612f7f565b915f90610e706104ec6002546001600160a01b031690565b915b838110610e87576040518061050f8782610e2e565b805f610e96610eb693856125f7565b51604051809481926320bf56eb60e21b8352600483019190602083019252565b0381875afa80156105af576001925f91610ee8575b50610ed682886125f7565b52610ee181876125f7565b5001610e72565b610f0491503d805f833e610efc81836102dd565b81019061216a565b5f610ecb565b9060406003198301126100155760043567ffffffffffffffff81116100155782610f3691600401610349565b916024359067ffffffffffffffff8211610015576103d191600401610349565b3461001557610f6436610f0a565b90610f6f81516126ad565b915f5b8251811015610fb25780610f9d610f8b600193866125f7565b51610f9683866125f7565b519061330f565b610fa782876125f7565b901515905201610f72565b6040518061050f868261070d565b5f91031261001557565b34610015575f60031936011261001557610fe2614ab6565b5f6001600160a01b037f9016d09d72d40fdae2fd8ceac6b6234c7706214fd39c1cd1e609a0528c1993005473ffffffffffffffffffffffffffffffffffffffff1981167f9016d09d72d40fdae2fd8ceac6b6234c7706214fd39c1cd1e609a0528c19930055167f8be0079c531659141344cd1fd0a4f28419497f9722a3daafe3b4186f6b6457e08280a3005b600319606091011261001557600435906024359060443590565b60081115610d0557565b90610d1482611088565b9080602083519182815201916020808360051b8301019401925f915b8383106110c757505050505090565b909192939460208082601f1985600195030186528851906110f18183516001600160a01b03169052565b818301516001600160a01b03168184015261111460408301516040830190610d0a565b61112660608301516060830190611092565b61113860808301516080830190610d0a565b6101808061115760a08501516101a060a08601526101a08501906103d4565b9360c081015160c085015260e081015160e08501526101008101516101008501526101208101516101208501526101408101516101408501526101608101516101608501520151910152970193019301919392906110b8565b90602080835192838152019201905f5b8181106111cd5750505090565b82518452602093840193909201916001016111c0565b93929161120c906111fe60409360608852606088019061109c565b9086820360208801526111b0565b930152565b346100155761121f3661106e565b91908082906112396104ec6002546001600160a01b031690565b93604051917f49138690000000000000000000000000000000000000000000000000000000008352602083600481895afa9283156105af575f936113cb575b5082106113c1575b81106113b9575b5090915f9061129585613029565b9461129f816126ad565b935b858110806113b0575b1561138957604051630c3fc6b960e01b8152600481018290525f81602481875afa9081156105af575f91611367575b5060608101600181516112eb81611088565b6112f481611088565b14908115611349575b50611312575b5061130d906131d0565b6112a1565b84611342918361132661130d95988a6125f7565b52611331828b6125f7565b5261133c818a6125f7565b506131d0565b9390611303565b600291505161135781611088565b61136081611088565b145f6112fd565b61138391503d805f833e61137b81836102dd565b8101906130d8565b5f6112d9565b61050f879185879481036113a5575b50604051938493846111e3565b808452845284611398565b508184106112aa565b90505f611287565b9092508290611280565b6113ee91935060203d6020116113f5575b6113e681836102dd565b81019061301a565b915f611278565b503d6113dc565b34610015576080600319360112610015576115546001600160a01b03600435611424816105b4565b61152a82602435611434816105b4565b6115008260443595611445876105b4565b81606435611452816105b4565b61145a614ab6565b165f52600560205260405f20600160ff1982541617905516805f52600560205261148e60405f20600160ff19825416179055565b6114b96114ac846001600160a01b03165f52600560205260405f2090565b600160ff19825416179055565b6114d76114ac876001600160a01b03165f52600560205260405f2090565b6001600160a01b031673ffffffffffffffffffffffffffffffffffffffff196002541617600255565b166001600160a01b031673ffffffffffffffffffffffffffffffffffffffff196003541617600355565b166001600160a01b031673ffffffffffffffffffffffffffffffffffffffff196004541617600455565b005b34610015575f6003193601126100155760206001600160a01b037f9016d09d72d40fdae2fd8ceac6b6234c7706214fd39c1cd1e609a0528c1993005416604051908152f35b9060206103d192818152019061109c565b34610015576115ba366103a6565b80516115c581613029565b915f906115dd6104ec6002546001600160a01b031690565b915b8381106115f4576040518061050f878261159b565b805f61160361162393856125f7565b5160405180948192630c3fc6b960e01b8352600483019190602083019252565b0381875afa80156105af576001925f91611655575b5061164382886125f7565b5261164e81876125f7565b50016115df565b61166991503d805f833e61137b81836102dd565b5f611638565b90608060031983011261001557600435611688816105b4565b91602435611695816105b4565b9160443567ffffffffffffffff811161001557826116b59160040161068e565b916064359067ffffffffffffffff8211610015576103d191600401610349565b34610015576116fe6116e63661166f565b919390916116f4858561466a565b925f955f95613248565b90156117a5575b50604081015192611714614b15565b670de0b6b3a764000003670de0b6b3a764000081116117a057611743670de0b6b3a76400009161050f966122ad565b048181106117635750506020915001516040519081529081906020820190565b9091602001826117748383516122de565b1015611783575b5050506109c0565b61179893509061179391516122de565b61227c565b5f808061177b565b61225a565b92505f611705565b8015150361001557565b346100155760606003193601126100155761186460243560406004356117dc836105b4565b604435906117e9826117ad565b335f52600560205261180060ff845f2054166120b6565b60025484905f906001600160a01b0316928551978895869485937fc2b335640000000000000000000000000000000000000000000000000000000085526004850191926001600160a01b036040929594606085019685521660208401521515910152565b03925af19081156105af575f925f926118b6575b508161188057005b8261188e826115549561466a565b926020840161189e8282516122de565b90526118af6060850191825161227c565b9052614b62565b9092506118db915060403d6040116118e3575b6118d381836102dd565b8101906131de565b90915f611878565b503d6118c9565b346100155760a060031936011261001557600435611907816107f5565b602435604435916064359060016084359161192181610cfb565b036119b357838310611993576119659361194b836119466119519461195797966122ad565b6122c0565b9261227c565b906122ad565b670de0b6b3a7640000900490565b5f905b8015801561198b575b61197a906131fd565b604080519182526020820192909252f35b508115611971565b926119516119ad9361194b611957946119465f98826122ad565b90611968565b919291828411611993576119d69361194b836119466119519461195797966122ad565b5f90611968565b346100155760406119f96119f03661166f565b92919091613248565b825191151582526020820152f35b34610015576080611a23611a1a3661166f565b9291909161327c565b916040519315158452602084015260408301526060820152f35b34610015576040600319360112610015576020611a5e60243560043561330f565b6040519015158152f35b93929161120c906111fe604093606088526060880190610d2e565b3461001557611a913661106e565b9190808290611aab6104ec6002546001600160a01b031690565b93604051917fb8119888000000000000000000000000000000000000000000000000000000008352602083600481895afa9283156105af575f93611c19575b508210611c0f575b8110611c07575b5090915f90611b0785612f7f565b94611b11816126ad565b935b85811080611bfe575b15611bd7576040516320bf56eb60e21b8152600481018290525f81602481875afa9081156105af575f91611bbd575b506060810160018151611b5d81610d17565b611b6681610d17565b14908115611b9f575b50611b84575b50611b7f906131d0565b611b13565b84611b989183611326611b7f95988a6125f7565b9390611b75565b6002915051611bad81610d17565b611bb681610d17565b145f611b6f565b611bd191503d805f833e610efc81836102dd565b5f611b4b565b61050f87918587948103611bf3575b5060405193849384611a68565b808452845284611be6565b50818410611b1c565b90505f611af9565b9092508290611af2565b611c3391935060203d6020116113f5576113e681836102dd565b915f611aea565b346100155760a060031936011261001557600435611c57816105b4565b602435611c63816105b4565b60443567ffffffffffffffff811161001557611c83903690600401610648565b606435906084359260ff8416840361001557611c9e94613623565b60408051928352602083019190915290f35b346100155760606003193601126100155760043567ffffffffffffffff811161001557611ce1903690600401610349565b60243567ffffffffffffffff811161001557611d0190369060040161068e565b60443567ffffffffffffffff811161001557611d21903690600401610349565b90335f526005602052611d3a60ff60405f2054166120b6565b8251915f5b838110611d4857005b611da79060c083611d646104ec6002546001600160a01b031690565b865f611d70868c6125f7565b51604051978895869485937fdcee34750000000000000000000000000000000000000000000000000000000085526004850161370d565b03925af180156105af575f905f915f905f935f965f94611f61575b5081611f59575b50611ddc575b5050506001915001611d3f565b611df16104ec6001546001600160a01b031690565b91823b15610015576040517fd3c2d8b70000000000000000000000000000000000000000000000000000000081526001600160a01b038581166004830152871660248201525f6044820181905290938490606490829084905af19283156105af57611ea693611f45575b50611e66868561466a565b91611e728184516122de565b8352611e8c82611e87602086019384516122de565b6122de565b9052611e9d6040830191825161227c565b90528483614b62565b611ebb6104ec6001546001600160a01b031690565b92833b15610015576040517fd3c2d8b70000000000000000000000000000000000000000000000000000000081526001600160a01b03928316600482015291166024820152600a6044820152915f908390606490829084905af19182156105af57600192611f2b575b8080611dcf565b80611f395f611f3f936102dd565b80610fc0565b5f611f24565b80611f395f611f53936102dd565b5f611e5b565b90505f611dc9565b945050505050611f8991925060c03d8111611f98575b611f8181836102dd565b8101906136c1565b9095949193909291905f611dc2565b503d611f77565b3461001557611c9e611fb03661166f565b9291909161379f565b346100155761016060031936011261001557600435611fd7816105b4565b60243590611fe4826105b4565b608435916044356064356005851015610015576115549460a43560c4359160e4359361010435956120156101243590565b97610144359961382d565b3461001557602060031936011261001557611554600435612040816105b4565b612048614ab6565b613906565b346100155761205b36610f0a565b815190612067826126ad565b925f5b83811061207f576040518061050f878261070d565b806120a161208f600193856125f7565b5161209a83876125f7565b51906139e3565b6120ab82886125f7565b90151590520161206a565b156120bd57565b606460405162461bcd60e51b815260206004820152601a60248201527f63616c6c6572206973206e6f74206167656e74206b65657065720000000000006044820152fd5b5190610310826105b4565b5190610310826107f5565b5190600682101561001557565b81601f820112156100155780519061213b8261062c565b9261214960405194856102dd565b8284526020838301011161001557815f9260208093018386015e8301015290565b6020818303126100155780519067ffffffffffffffff8211610015570190610180828203126100155761219b610300565b916121a581612101565b83526121b360208201612101565b60208401526121c46040820161210c565b60408401526121d560608201612117565b60608401526080810151608084015260a081015167ffffffffffffffff81116100155761016092612207918301612124565b60a084015260c081015160c084015260e081015160e0840152610100810151610100840152610120810151610120840152610140810151610140840152015161016082015290565b6040513d5f823e3d90fd5b634e487b7160e01b5f52601160045260245ffd5b5f198101919082116117a057565b919082039182116117a057565b90670de0b6b3a7640000820291808304670de0b6b3a764000014901517156117a057565b818102929181159184041417156117a057565b81156122ca570490565b634e487b7160e01b5f52601260045260245ffd5b919082018092116117a057565b906123016104ec6002546001600160a01b031690565b925f60405180956320bf56eb60e21b8252818061232688600483019190602083019252565b03915afa9384156105af575f94612562575b50612346610a7483856139e3565b6125575760408401926001845161235c81610cfb565b61236581610cfb565b148061254a575b156124965760c085019384519561238f61195760e08301986119518a518961227c565b9461239b818786613c21565b909a925098908a1561248457808903612448575b505050908592915b81516001600160a01b03169160208101516123d8906001600160a01b031690565b9060a0810151936123e7613d5b565b9551926123f384610cfb565b60c083019685885160e08601519061010087019788519461012089019b8c51976001600160a01b031661242599613dc1565b516001600160a01b031695612438613f8d565b9451915193519461031097613fdb565b611957985061247a929594935061246d81611e87612472939b8c9986519051906122ad565b612289565b9051906122c0565b9091925f806123af565b505f9950899850889750505050505050565b600284516124a381610cfb565b6124ac81610cfb565b148061253d575b156125315760c08501938451956124d661195760e0830198611951888b5161227c565b946124e2818786613c21565b909a925098908a1561248457808903612502575b505050908592916123b7565b6119579850612527929594935061246d81611793612472939b8c9986519051906122ad565b9091925f806124f6565b505f9350839250829150565b508260e0860151116124b3565b5060e0850151831161236c565b5f9350839250829150565b6125779194503d805f833e610efc81836102dd565b925f612338565b9061258882610331565b61259560405191826102dd565b828152601f196125a58294610331565b01905f5b8281106125b557505050565b6020906040516125c48161022d565b606081525f838201525f60408201525f60608201525f60808201525f60a08201525f60c0820152828285010152016125a9565b805182101561260b5760209160051b010190565b634e487b7160e01b5f52603260045260245ffd5b6020818303126100155780519067ffffffffffffffff821161001557019060e0828203126100155761264f610312565b91805167ffffffffffffffff81116100155760c09261266f918301612124565b83526020810151602084015260408101516040840152606081015160608401526080810151608084015260a081015160a0840152015160c082015290565b906126b782610331565b6126c460405191826102dd565b828152601f196126d48294610331565b0190602036910137565b939290918451926126ee846126ad565b955f5b85811061270057505050505050565b8061273686866001600160a01b0361271a600196886125f7565b51166001600160a01b0361272e868a6125f7565b51169061327c565b505050612743828b6125f7565b9015159052016126f1565b6040519061275b8261024e565b5f6080838281528260208201528260408201528260608201520152565b509495939195929092335f52600560205261279960ff60405f2054166120b6565b6127ae6104ec6002546001600160a01b031690565b5f60405180927f0187703f00000000000000000000000000000000000000000000000000000000825281806127eb8b600483019190602083019252565b03915afa80156105af576020915f91612964575b5001511590811591612959575b61281b828286868c8a8d6141a8565b935f955f975f608088015260608701995f8b5261283a858d858461435e565b9b5f5b8d518110156129405761284f87610cfb565b8d816001890361291d57612862916125f7565b515b898c10156128dd576001810161287e575b5060010161283d565b888b888e9f9e61288e908e61227c565b91602001519161289d946144c2565b6128aa919e92939f6122de565b9c6128b4916122de565b9c60808c0151906128c4916122de565b60808c01528d51906128d5916122de565b8d525f612875565b505092999a509590969a5061291097508994508a935b6128fb613d5b565b855193602087019b60408d5198015199613e6e565b612918613f8d565b505290565b9061293461292f61293a93835161227c565b61226e565b906125f7565b51612864565b5092999a509590969a5061291097508994508a936128f3565b5f198614915061280c565b61297891503d805f833e6105a181836102dd565b5f6127ff565b90816101009103126100155760e0604051916129998361026a565b805183526020810151602084015260408101516040840152606081015160608401526080810151608084015260a081015160a084015260c081015160c0840152015160e082015290565b612a7f916001600160a01b036114ac926129fb614c0c565b612a03614c0c565b612a0c33613906565b168073ffffffffffffffffffffffffffffffffffffffff195f5416175f555f52600560205260405f20600160ff198254161790556001600160a01b03811673ffffffffffffffffffffffffffffffffffffffff1960015416176001556001600160a01b03165f52600560205260405f2090565b612a9d6114ac336001600160a01b03165f52600560205260405f2090565b6103106114ac306001600160a01b03165f52600560205260405f2090565b60405190612ac88261024e565b60606080835f81525f60208201525f60408201525f838201520152565b60ff5f199116019060ff82116117a057565b93929190959495612b06612abb565b9694612b1184610cfb565b612b25612b1d85612ae5565b84848461495d565b60608c015260408b0190815260208b01828152928b529990612b505750505050505050909150905f90565b91612b8f8492869489612b68612b94998b9987614736565b9d8e9289612b84612b77613d5b565b9661247281519451612289565b9251958a8a8a613f18565b61435e565b925f5b8451811015612f6957612ba983610cfb565b600183148015612f4c57612bbd82876125f7565b515b612bd46104ec6002546001600160a01b031690565b5f60405180926320bf56eb60e21b82528180612bf887600483019190602083019252565b03915afa9081156105af575f91612f32575b506060810160018151612c1c81610d17565b612c2581610d17565b14908115612f14575b50612c3f575b505050600101612b97565b91935f9290918a8885612c518a610cfb565b8880612f06575b15612e1b5750612c83612c7c6119578c61195160c08901519160e08a01519061227c565b80966122de565b978887612d92575b5050612c9d60e0850151878786613cdb565b50509050858103612d53575b50612d3684612cf68888612d4b99976001600160a01b0397612d4497612cda60019f9e9c516001600160a01b031690565b92612ce3613d5b565b9060c0890151916101208a015195614059565b612d29612d0a82516001600160a01b031690565b95602083019686612d2289516001600160a01b031690565b1690614a11565b516001600160a01b031690565b92516001600160a01b031690565b1690614a66565b905f80612c34565b978694612cf660019998612d44946001600160a01b039697612d7f8e611e87612d4b9d612d369961227c565b9d9a509796509450505094969750612ca9565b919891878310612db157505085612da89161227c565b965b5f80612c8b565b5f995091965081612dc957505060e08301515b612daa565b612dd28a610cfb565b15612df957612dc49061247261246d60c0870192611e87611957855160e08b0151906122ad565b612dc49061247261246d60c0870192611793611957855160e08b0151906122ad565b9495612e268a610cfb565b8880612ef8575b15612e575750612c8385612e516119578d61195160c08a01519160e08b015161227c565b976122de565b9594612e628a610cfb565b60028a148080612eea575b15612e91575050612c83612c7c6119578c61195160c08901519160e08a015161227c565b612e9d8b979297610cfb565b80612edc575b612eb2575b85612c83916122de565b9550612c8385612ed36119578d61195160c08a01519160e08b01519061227c565b97915050612ea8565b5060e08501518b1015612ea3565b5060e08601518c1115612e6d565b5060e08501518b1115612e2d565b5060e08501518b1015612c58565b6002915051612f2281610d17565b612f2b81610d17565b145f612c2e565b612f4691503d805f833e610efc81836102dd565b5f612c0a565b612f63612f5d61292f84895161227c565b876125f7565b51612bbf565b50939450505050612f78613f8d565b5090600190565b90612f8982610331565b612f9660405191826102dd565b828152601f19612fa68294610331565b01905f5b828110612fb657505050565b602090604051612fc581610287565b5f81525f838201525f60408201525f60608201525f6080820152606060a08201525f60c08201525f60e08201525f6101008201525f6101208201525f6101408201525f61016082015282828501015201612faa565b90816020910312610015575190565b9061303382610331565b61304060405191826102dd565b828152601f196130508294610331565b01905f5b82811061306057505050565b60209060405161306f816102a4565b5f81525f838201525f60408201525f60608201525f6080820152606060a08201525f60c08201525f60e08201525f6101008201525f6101208201525f6101408201525f6101608201525f61018082015282828501015201613054565b5190600882101561001557565b6020818303126100155780519067ffffffffffffffff82116100155701906101a08282031261001557613109610321565b9161311381612101565b835261312160208201612101565b60208401526131326040820161210c565b6040840152613143606082016130cb565b60608401526131546080820161210c565b608084015260a081015167ffffffffffffffff8111610015576101809261317c918301612124565b60a084015260c081015160c084015260e081015160e0840152610100810151610100840152610120810151610120840152610140810151610140840152610160810151610160840152015161018082015290565b5f1981146117a05760010190565b919082604091031261001557602082516131f7816105b4565b92015190565b1561320457565b606460405162461bcd60e51b815260206004820152600960248201527f504e4c206572726f7200000000000000000000000000000000000000000000006044820152fd5b9061325493929161379f565b90919080831061326d5782039182116117a05760019190565b9182039182116117a0575f9190565b93926132ae919261328d848761466a565b93670de0b6b3a76400006132a76040870151611951614b15565b049661379f565b80928183106132c8575b5050505090505f905f905f905f90565b51918103908082116117a057819582018083116117a05783116132b857828211156133015750508303918383116117a057600193929190565b9250935050600192915f9190565b905f61334a9261332a6104ec6002546001600160a01b031690565b6040518080968194630c3fc6b960e01b8352600483019190602083019252565b03915afa9182156105af575f92613509575b50606082016001815161336e81611088565b61337781611088565b141590816134ea575b506134e4576015610180830151146134dd5760808201600181516133a381610cfb565b6133ac81610cfb565b148061346c575b61346457600290516133c481610cfb565b6133cd81610cfb565b1491826133e4575b50506133df575f90565b600190565b9091506040810191600183516133f981610cfb565b61340281610cfb565b149283613455575b831561341b575b5050505f806133d5565b6002919293505161342b81610cfb565b61343481610cfb565b149182613446575b50505f8080613411565b60e00151101590505f8061343c565b60e0830151821015935061340a565b505050600190565b50604083016001815161347e81610cfb565b61348781610cfb565b1490816134ce575b811561349c575b506133b3565b60029150516134aa81610cfb565b6134b381610cfb565b14806134c0575b5f613496565b5060e08301518210156134ba565b60e0850151841115915061348f565b5050600190565b50505f90565b60029150516134f881611088565b61350181611088565b14155f613380565b61351e9192503d805f833e61137b81836102dd565b905f61335c565b9092915f9280156135a157613568670de0b6b3a7640000916135535f8095819961354d612abb565b9861495d565b506040880152602087018190529086526122ad565b04908251808310155f1461358e57505082018092116117a0575181039081116117a05791565b9350949350905081039081116117a05790565b50505050505f905f90565b90928015613619576135ed670de0b6b3a7640000916135d860015f965f986135d2612abb565b9761495d565b506040870152602086018190529085526122ad565b049181518311155f146136095750519081039081116117a05791565b9392505181039081116117a05790565b505050505f905f90565b929391909380156135a15761366261195760ff9261364d865f965f9a613647612abb565b9a61495d565b5060408a0152602089018190529088526122ad565b921661369b57825180831061368b57506136889291613680916122de565b90519061227c565b91565b6103d193506117939195946122de565b8251909493929082116136b557613688929394505161227c565b6103d19250519061227c565b91908260c09103126100155781516136d8816117ad565b9160208101516136e7816117ad565b9160408201519160608101516136fc816105b4565b9160a060808301516131f7816105b4565b93929093606081019481526060602082015282518095526080810194602060808260051b8401019401905f5b818110613756575050506103d193945060408184039101526111b0565b909194602080613790837fffffffffffffffffffffffffffffffffffffffffffffffffffffffffffffff808860019603018c5289516103d4565b97019801910196919096613739565b5f94938592835b8551881015613823576137d06137bc89886125f7565b516137c78a866125f7565b51908487613525565b956137f26137de8b8a6125f7565b516137e98c886125f7565b519086896135ac565b9282018092116117a05781018091116117a0579582018092116117a05781018091116117a0576001909701966137a6565b9594505050509250565b969097670de0b6b3a764000061386887613863879a9e9d999a8495999899335f52600560205261386360ff60405f2054166120b6565b6122ad565b040499613873613d5b565b92604051936001600160a01b038a168552602085015260408401526005841015610d05576103109a613901977f85a6bfd765950245f4f456c74db06ee8bad5a7ea04b80581aa7563d196421f6696610180966060870152608086015260a085015260c084015260e0830152610100820152836101208201528761014082015242610160820152a18383614a11565b614a66565b6001600160a01b031680156139a2576001600160a01b037f9016d09d72d40fdae2fd8ceac6b6234c7706214fd39c1cd1e609a0528c199300548273ffffffffffffffffffffffffffffffffffffffff198216177f9016d09d72d40fdae2fd8ceac6b6234c7706214fd39c1cd1e609a0528c19930055167f8be0079c531659141344cd1fd0a4f28419497f9722a3daafe3b4186f6b6457e05f80a3565b7f1e4fbdf7000000000000000000000000000000000000000000000000000000005f525f60045260245ffd5b9081602091031261001557516103d1816117ad565b6139f86104ec6002546001600160a01b031690565b915f60405180946320bf56eb60e21b82528180613a1d87600483019190602083019252565b03915afa9283156105af575f93613bd4575b506060830160018151613a4181610d17565b613a4a81610d17565b14159081613bb5575b508015613bad575b613b8c576040830160018151613a7081610cfb565b613a7981610cfb565b1480613ba0575b15613b45575090613aad6119578460c0613aa460209660e0613b079901519061227c565b910151906122ad565b905b613ac46104ec6004546001600160a01b031690565b906040518095819482937fd3c76d660000000000000000000000000000000000000000000000000000000084526004840160209093929193604081019481520152565b03915afa9081156105af575f91613b1c575090565b6103d1915060203d602011613b3e575b613b3681836102dd565b8101906139ce565b503d613b2c565b60029092919251613b5581610cfb565b613b5e81610cfb565b1480613b93575b15613b8c57613b866119578460c0613aa460209660e0613b0799015161227c565b90613aaf565b5050505f90565b5060e08301518210613b65565b5060e08401518211613a80565b508015613a5b565b6002915051613bc381610d17565b613bcc81610d17565b14155f613a53565b613be99193503d805f833e610efc81836102dd565b915f613a2f565b91908260809103126100155781519160208101519160606040830151613c15816117ad565b9201516103d1816117ad565b9060e46080925f6001600160a01b0381541660405196879586947ff26a3e1d000000000000000000000000000000000000000000000000000000008652600486015260016024860152604485015282606485015282608485015260a4840152600160c48401525af180156105af575f925f935f935f93613ca3575b5093929190565b9250509250613cca915060803d608011613cd4575b613cc281836102dd565b810190613bf0565b919390925f613c9c565b503d613cb8565b60e4905f608094956001600160a01b038254169060405197889687957ff26a3e1d00000000000000000000000000000000000000000000000000000000875260048701528460248701526044860152606485015282608485015260a48401528160c48401525af180156105af575f925f935f935f93613ca3575093929190565b600460206001600160a01b0360025416604051928380927fc3710f250000000000000000000000000000000000000000000000000000000082525afa9081156105af575f91613da8575090565b6103d1915060203d6020116113f5576113e681836102dd565b9892956001600160a01b0395613e0e9892957f52e38618358c614d6c859d2d6481831837d95cf94ee1be20b2243cbb5f69addc9a9498886040519b8c9b6101a08d526101a08d01906103d4565b9d1660208b015260408a0152613e2381610cfb565b6060890152613e36608089016005611092565b60a088015260c087015260e08601525f6101008601526101208501526101408401525f196101608401524261018084015216930390a2565b9a94956001600160a01b039791967f52e38618358c614d6c859d2d6481831837d95cf94ee1be20b2243cbb5f69addc9b939a956101a09a958a613ebb6040519e8f9e8f81815201906103d4565b9f1660208d015260408c0152613ed081610cfb565b60608b0152613ee360808b016003611092565b60a08a015260c089015260e08801526101008701526101208601526101408501526101608401524261018084015216930390a2565b9892956001600160a01b0395613f659892957f52e38618358c614d6c859d2d6481831837d95cf94ee1be20b2243cbb5f69addc9a9498886040519b8c9b6101a08d526101a08d01906103d4565b9d1660208b015260408a0152613f7a81610cfb565b6060890152613e36608089016004611092565b5f60206001600160a01b03600254166004604051809481937fb99ac9270000000000000000000000000000000000000000000000000000000083525af19081156105af575f91613da8575090565b94919261018096937f85a6bfd765950245f4f456c74db06ee8bad5a7ea04b80581aa7563d196421f669895926001600160a01b03604051981688526020880152604087015260036060870152608086015260a08501525f60c085015260e08401526101008301526101208201525f61014082015242610160820152a1565b95927f85a6bfd765950245f4f456c74db06ee8bad5a7ea04b80581aa7563d196421f669895926101809895926001600160a01b03604051991689526020890152604088015260036060880152608087015260a08601525f60c086015260e085015261010084015261012083015261014082015242610160820152a1565b604051906140e38261026a565b5f60e0838281528260208201528260408201528260608201528260808201528260a08201528260c08201520152565b1561411957565b606460405162461bcd60e51b815260206004820152601b60248201527f616d6f756e74206973206772656174207468656e20667265657a6500000000006044820152fd5b1561416457565b606460405162461bcd60e51b815260206004820152601360248201527f636c6f736520616d6f756e7420657863656564000000000000000000000000006044820152fd5b9195929390956141b661274e565b9661426a6141c2612abb565b976141cc81610cfb565b6141e06141d882612ae5565b85858961495d565b9992905060208c929c019b606083019a8b528c5281526141fe6140d6565b5061010060208d61421089898d614736565b91829101526142216104ec896148a4565b898d604051988994859384937f32a84502000000000000000000000000000000000000000000000000000000008552600485016040919493926060820195825260208201520152565b03915afa9081156105af576142d9998c6142c3948f6040806142bb976142d39b5f9161433f575b5001519101521561432c576142b5916142ad915190519061227c565b8c111561415d565b51612289565b8a51906122c0565b8a526142ce81610cfb565b612ae5565b93613623565b9290606085019260808601948552818452825181106142fb575b505050505090565b6143209361431761430f83612472956122ad565b8551906122c0565b905284516122ad565b90525f808080806142f3565b5061433a90518c1115614112565b6142b5565b61435891506101003d8111610a06576109f481836102dd565b5f614291565b916001600160a01b035f9381956143be836002541694604051988997889687967fec4082910000000000000000000000000000000000000000000000000000000088521660048701521660248501526080604485015260848401906103d4565b906143c881610cfb565b606483015203915afa9081156105af575f916143e2575090565b90503d805f833e6143f381836102dd565b8101906020818303126100155780519067ffffffffffffffff821161001557019080601f8301121561001557815161442a81610331565b9261443860405194856102dd565b81845260208085019260051b82010192831161001557602001905b8282106144605750505090565b8151815260209182019101614453565b90816060910312610015578051916040602083015192015190565b93909796959260c0959260e0860199865260208601526144aa81610cfb565b60408501526060840152608083015260a08201520152565b9094939291926144dd6104ec6002546001600160a01b031690565b91604051966320bf56eb60e21b88525f888061450185600483019190602083019252565b0381875afa9788156105af575f9861464e575b50606088016001815161452681610d17565b61452f81610d17565b1415908161462f575b5061461d576060949392916145b85f92839061455760a08d01516147fc565b519060c08d01519081811015871461461357509b8c965b1561460b575b604001519761458289610cfb565b6040519a8b998a9889977f17900de00000000000000000000000000000000000000000000000000000000089526004890161448b565b03925af19283156105af575f935f925f916145d4575b50919392565b919450506145fa915060603d606011614604575b6145f281836102dd565b810190614470565b919390915f6145ce565b503d6145e8565b869250614574565b90509b8c9661456e565b50505050505090505f905f905f905f90565b600291505161463d81610d17565b61464681610d17565b14155f614538565b6146639198503d805f833e610efc81836102dd565b965f614514565b6001600160a01b03604460a09261467f61274e565b5082600154168360405196879586947fccf1a4b20000000000000000000000000000000000000000000000000000000086521660048501521660248301525afa9081156105af575f916146d0575090565b905060a0813d60a01161472e575b816146eb60a093836102dd565b81010312610015576080604051916147028361024e565b805183526020810151602084015260408101516040840152606081015160608401520151608082015290565b3d91506146de565b906001600160a01b039283602093614797826001541693604051978896879586957f702c2b740000000000000000000000000000000000000000000000000000000087521660048601521660248401526060604484015260648301906103d4565b03915afa9081156105af575f91613da8575090565b908160c09103126100155760a0604051916147c6836102c1565b8051835260208101516020840152604081015160408401526060810151606084015260808101516080840152015160a082015290565b60c06001600160a01b0361483d6004935f60a060405161481b816102c1565b82815282602082015282604082015282606082015282608082015201526148a4565b16604051928380927f639122c90000000000000000000000000000000000000000000000000000000082525afa9081156105af575f9161487b575090565b6103d1915060c03d60c01161489d575b61489581836102dd565b8101906147ac565b503d61488b565b60206148f1916001600160a01b036001541660405180809581947f05ca57cf00000000000000000000000000000000000000000000000000000000835286600484015260248301906103d4565b03915afa9081156105af575f91614906575090565b90506020813d602011614933575b81614921602093836102dd565b8101031261001557516103d1816105b4565b3d9150614914565b9190826080910312610015578151916020810151916060604083015192015190565b916001600160a01b03608093819560ff6149bf846002541695604051998a98899788977f3a0204a900000000000000000000000000000000000000000000000000000000895216600488015216602486015288604486015260848501906103d4565b9116606483015203915afa80156105af575f925f935f935f936149e3575093929190565b9250509250613cca915060803d608011614a0a575b614a0281836102dd565b81019061493b565b503d6149f8565b90918015614a61577feb42cf637f927243245c50b4bf7fe105fe4f4d26209102240f2ba3d8e27a7df860606001600160a01b03805f966040519560048752602087015242604087015216941692a4565b505050565b90918015614a61577feb42cf637f927243245c50b4bf7fe105fe4f4d26209102240f2ba3d8e27a7df860606001600160a01b03805f966040519560058752602087015242604087015216941692a4565b6001600160a01b037f9016d09d72d40fdae2fd8ceac6b6234c7706214fd39c1cd1e609a0528c19930054163303614ae957565b7f118cdaa7000000000000000000000000000000000000000000000000000000005f523360045260245ffd5b600460206001600160a01b0360015416604051928380927f89f00b6d0000000000000000000000000000000000000000000000000000000082525afa9081156105af575f91613da8575090565b90916001600160a01b0360015416803b15610015575f928360e492614bf36001600160a01b039586604051998a9889977fe448cc41000000000000000000000000000000000000000000000000000000008952166004880152166024860152604485019060808091805184526020810151602085015260408101516040850152606081015160608501520151910152565b5af180156105af57614c025750565b5f610310916102dd565b60ff7ff0c57e16840df040f15088dc2f81fe391c3923bec73e23a9662efc9c229c6a005460401c1615614c3b57565b7fd7e6bcf8000000000000000000000000000000000000000000000000000000005f5260045ffdfea2646970667358221220bfe9fe8a8654a4e97ed5a73dcbad5b86ae6a46f185b09d0b2ebeb77fbe81dff164736f6c634300081c0033",
  "linkReferences": {},
  "deployedLinkReferences": {}
}