{
  "_format": "hh-sol-artifact-1",
  "contractName": "TradeAgent",
  "sourceName": "contracts/TradeAgent.sol",
  "abi": [
    {
      "inputs": [],
      "name": "InvalidInitialization",
      "type": "error"
    },
    {
      "inputs": [],
      "name": "NotInitializing",
      "type": "error"
    },
    {
      "inputs": [
        {
          "internalType": "address",
          "name": "owner",
          "type": "address"
        }
      ],
      "name": "OwnableInvalidOwner",
      "type": "error"
    },
    {
      "inputs": [
        {
          "internalType": "address",
          "name": "account",
          "type": "address"
        }
      ],
      "name": "OwnableUnauthorizedAccount",
      "type": "error"
    },
    {
      "anonymous": false,
      "inputs": [
        {
          "indexed": false,
          "internalType": "address",
          "name": "token",
          "type": "address"
        },
        {
          "indexed": false,
          "internalType": "address",
          "name": "holder",
          "type": "address"
        },
        {
          "indexed": false,
          "internalType": "string",
          "name": "name",
          "type": "string"
        },
        {
          "indexed": false,
          "internalType": "enum ICommon.Direct",
          "name": "direct",
          "type": "uint8"
        },
        {
          "indexed": false,
          "internalType": "uint256",
          "name": "value",
          "type": "uint256"
        },
        {
          "indexed": false,
          "internalType": "uint256",
          "name": "size",
          "type": "uint256"
        },
        {
          "indexed": false,
          "internalType": "uint256",
          "name": "margin",
          "type": "uint256"
        },
        {
          "indexed": false,
          "internalType": "uint256",
          "name": "freeze",
          "type": "uint256"
        }
      ],
      "name": "AccountPosition",
      "type": "event"
    },
    {
      "anonymous": false,
      "inputs": [
        {
          "indexed": false,
          "internalType": "address",
          "name": "token",
          "type": "address"
        },
        {
          "indexed": false,
          "internalType": "address",
          "name": "taker",
          "type": "address"
        },
        {
          "indexed": false,
          "internalType": "uint256",
          "name": "amount",
          "type": "uint256"
        },
        {
          "indexed": false,
          "internalType": "uint256",
          "name": "availableAmount",
          "type": "uint256"
        },
        {
          "indexed": false,
          "internalType": "uint256",
          "name": "marginAmount",
          "type": "uint256"
        },
        {
          "indexed": false,
          "internalType": "uint256",
          "name": "locked",
          "type": "uint256"
        },
        {
          "indexed": false,
          "internalType": "uint256",
          "name": "stage",
          "type": "uint256"
        },
        {
          "indexed": false,
          "internalType": "uint256",
          "name": "dif",
          "type": "uint256"
        }
      ],
      "name": "BalanceOfTaker",
      "type": "event"
    },
    {
      "anonymous": false,
      "inputs": [
        {
          "indexed": false,
          "internalType": "string",
          "name": "name",
          "type": "string"
        },
        {
          "indexed": true,
          "internalType": "address",
          "name": "taker",
          "type": "address"
        },
        {
          "indexed": true,
          "internalType": "address",
          "name": "token",
          "type": "address"
        },
        {
          "indexed": false,
          "internalType": "uint256",
          "name": "orderID",
          "type": "uint256"
        },
        {
          "indexed": false,
          "internalType": "enum ICommon.Direct",
          "name": "direct",
          "type": "uint8"
        },
        {
          "indexed": false,
          "internalType": "enum IPerpetual.OrderState",
          "name": "state",
          "type": "uint8"
        },
        {
          "indexed": false,
          "internalType": "enum ICommon.Offset",
          "name": "offset",
          "type": "uint8"
        },
        {
          "indexed": false,
          "internalType": "uint256",
          "name": "amount",
          "type": "uint256"
        },
        {
          "indexed": false,
          "internalType": "uint256",
          "name": "targetPrice",
          "type": "uint256"
        },
        {
          "indexed": false,
          "internalType": "uint256",
          "name": "margin",
          "type": "uint256"
        },
        {
          "indexed": false,
          "internalType": "uint256",
          "name": "rewardGas",
          "type": "uint256"
        },
        {
          "indexed": false,
          "internalType": "uint256",
          "name": "tradingFee",
          "type": "uint256"
        },
        {
          "indexed": false,
          "internalType": "uint256",
          "name": "startTime",
          "type": "uint256"
        },
        {
          "indexed": false,
          "internalType": "uint256",
          "name": "orderType",
          "type": "uint256"
        }
      ],
      "name": "CreateLimitedOrder",
      "type": "event"
    },
    {
      "anonymous": false,
      "inputs": [
        {
          "indexed": false,
          "internalType": "uint256",
          "name": "limitOrderID",
          "type": "uint256"
        },
        {
          "indexed": false,
          "internalType": "uint256",
          "name": "openLimitPrice",
          "type": "uint256"
        },
        {
          "indexed": false,
          "internalType": "uint256",
          "name": "gainTriggerPrice",
          "type": "uint256"
        },
        {
          "indexed": false,
          "internalType": "uint256",
          "name": "gainLimitPrice",
          "type": "uint256"
        },
        {
          "indexed": false,
          "internalType": "uint256",
          "name": "lossTriggerPrice",
          "type": "uint256"
        },
        {
          "indexed": false,
          "internalType": "uint256",
          "name": "lossLimitPrice",
          "type": "uint256"
        }
      ],
      "name": "CreateTriggerCondition",
      "type": "event"
    },
    {
      "anonymous": false,
      "inputs": [
        {
          "indexed": false,
          "internalType": "uint256",
          "name": "code",
          "type": "uint256"
        },
        {
          "indexed": false,
          "internalType": "uint256",
          "name": "orderID",
          "type": "uint256"
        },
        {
          "indexed": false,
          "internalType": "string",
          "name": "message",
          "type": "string"
        }
      ],
      "name": "ErrorInfo",
      "type": "event"
    },
    {
      "anonymous": false,
      "inputs": [
        {
          "indexed": false,
          "internalType": "uint256",
          "name": "code",
          "type": "uint256"
        },
        {
          "indexed": false,
          "internalType": "uint256",
          "name": "orderID",
          "type": "uint256"
        },
        {
          "indexed": false,
          "internalType": "bytes",
          "name": "message",
          "type": "bytes"
        }
      ],
      "name": "ExceptErrorInfo",
      "type": "event"
    },
    {
      "anonymous": false,
      "inputs": [
        {
          "indexed": false,
          "internalType": "uint64",
          "name": "version",
          "type": "uint64"
        }
      ],
      "name": "Initialized",
      "type": "event"
    },
    {
      "anonymous": false,
      "inputs": [
        {
          "indexed": false,
          "internalType": "string",
          "name": "name",
          "type": "string"
        },
        {
          "indexed": true,
          "internalType": "address",
          "name": "taker",
          "type": "address"
        },
        {
          "indexed": true,
          "internalType": "address",
          "name": "token",
          "type": "address"
        },
        {
          "indexed": false,
          "internalType": "uint256",
          "name": "orderID",
          "type": "uint256"
        },
        {
          "indexed": false,
          "internalType": "enum ICommon.Direct",
          "name": "direct",
          "type": "uint8"
        },
        {
          "indexed": false,
          "internalType": "enum IPerpetual.OrderState",
          "name": "state",
          "type": "uint8"
        },
        {
          "indexed": false,
          "internalType": "enum ICommon.Offset",
          "name": "offset",
          "type": "uint8"
        },
        {
          "indexed": false,
          "internalType": "uint256",
          "name": "amount",
          "type": "uint256"
        },
        {
          "indexed": false,
          "internalType": "uint256",
          "name": "targetPrice",
          "type": "uint256"
        },
        {
          "indexed": false,
          "internalType": "uint256",
          "name": "margin",
          "type": "uint256"
        },
        {
          "indexed": false,
          "internalType": "uint256",
          "name": "rewardGas",
          "type": "uint256"
        },
        {
          "indexed": false,
          "internalType": "uint256",
          "name": "tradingFee",
          "type": "uint256"
        },
        {
          "indexed": false,
          "internalType": "uint256",
          "name": "startTime",
          "type": "uint256"
        },
        {
          "indexed": false,
          "internalType": "uint256",
          "name": "orderType",
          "type": "uint256"
        }
      ],
      "name": "LimitedOrderHistory",
      "type": "event"
    },
    {
      "anonymous": false,
      "inputs": [
        {
          "indexed": false,
          "internalType": "address",
          "name": "token",
          "type": "address"
        },
        {
          "indexed": false,
          "internalType": "address",
          "name": "taker",
          "type": "address"
        }
      ],
      "name": "LiquidateTaker",
      "type": "event"
    },
    {
      "anonymous": false,
      "inputs": [
        {
          "indexed": true,
          "internalType": "address",
          "name": "taker",
          "type": "address"
        },
        {
          "indexed": false,
          "internalType": "string",
          "name": "name",
          "type": "string"
        },
        {
          "indexed": false,
          "internalType": "address",
          "name": "token",
          "type": "address"
        },
        {
          "indexed": false,
          "internalType": "uint256",
          "name": "orderID",
          "type": "uint256"
        },
        {
          "indexed": false,
          "internalType": "enum ICommon.Direct",
          "name": "direction",
          "type": "uint8"
        },
        {
          "indexed": false,
          "internalType": "enum IPerpetual.OrderType",
          "name": "orderType",
          "type": "uint8"
        },
        {
          "indexed": false,
          "internalType": "uint256",
          "name": "amount",
          "type": "uint256"
        },
        {
          "indexed": false,
          "internalType": "uint256",
          "name": "costPrice",
          "type": "uint256"
        },
        {
          "indexed": false,
          "internalType": "uint256",
          "name": "price",
          "type": "uint256"
        },
        {
          "indexed": false,
          "internalType": "uint256",
          "name": "tradingFee",
          "type": "uint256"
        },
        {
          "indexed": false,
          "internalType": "uint256",
          "name": "leverage",
          "type": "uint256"
        },
        {
          "indexed": false,
          "internalType": "uint256",
          "name": "marginAmount",
          "type": "uint256"
        },
        {
          "indexed": false,
          "internalType": "uint256",
          "name": "limitOrderId",
          "type": "uint256"
        },
        {
          "indexed": false,
          "internalType": "uint256",
          "name": "timestamp",
          "type": "uint256"
        }
      ],
      "name": "OrderHistory",
      "type": "event"
    },
    {
      "anonymous": false,
      "inputs": [
        {
          "indexed": true,
          "internalType": "address",
          "name": "previousOwner",
          "type": "address"
        },
        {
          "indexed": true,
          "internalType": "address",
          "name": "newOwner",
          "type": "address"
        }
      ],
      "name": "OwnershipTransferred",
      "type": "event"
    },
    {
      "anonymous": false,
      "inputs": [
        {
          "indexed": false,
          "internalType": "address",
          "name": "token",
          "type": "address"
        },
        {
          "indexed": false,
          "internalType": "uint256",
          "name": "orderID",
          "type": "uint256"
        },
        {
          "indexed": false,
          "internalType": "uint256",
          "name": "dealID",
          "type": "uint256"
        },
        {
          "indexed": false,
          "internalType": "enum IPerpetual.TradeType",
          "name": "tradeType",
          "type": "uint8"
        },
        {
          "indexed": false,
          "internalType": "uint256",
          "name": "amount",
          "type": "uint256"
        },
        {
          "indexed": false,
          "internalType": "uint256",
          "name": "price",
          "type": "uint256"
        },
        {
          "indexed": false,
          "internalType": "uint256",
          "name": "tradingFee",
          "type": "uint256"
        },
        {
          "indexed": false,
          "internalType": "uint256",
          "name": "leverage",
          "type": "uint256"
        },
        {
          "indexed": false,
          "internalType": "uint256",
          "name": "marginAmount",
          "type": "uint256"
        },
        {
          "indexed": false,
          "internalType": "uint256",
          "name": "profit",
          "type": "uint256"
        },
        {
          "indexed": false,
          "internalType": "uint256",
          "name": "loss",
          "type": "uint256"
        },
        {
          "indexed": false,
          "internalType": "uint256",
          "name": "timestamp",
          "type": "uint256"
        }
      ],
      "name": "TradeHistory",
      "type": "event"
    },
    {
      "anonymous": false,
      "inputs": [
        {
          "indexed": true,
          "internalType": "address",
          "name": "token",
          "type": "address"
        },
        {
          "indexed": true,
          "internalType": "address",
          "name": "sender",
          "type": "address"
        },
        {
          "indexed": true,
          "internalType": "address",
          "name": "received",
          "type": "address"
        },
        {
          "indexed": false,
          "internalType": "enum ICommon.TransactionType",
          "name": "transactionType",
          "type": "uint8"
        },
        {
          "indexed": false,
          "internalType": "uint256",
          "name": "amount",
          "type": "uint256"
        },
        {
          "indexed": false,
          "internalType": "uint256",
          "name": "timestamp",
          "type": "uint256"
        }
      ],
      "name": "TransactionHistory",
      "type": "event"
    },
    {
      "anonymous": false,
      "inputs": [
        {
          "indexed": false,
          "internalType": "address",
          "name": "token",
          "type": "address"
        },
        {
          "indexed": false,
          "internalType": "address",
          "name": "sender",
          "type": "address"
        },
        {
          "indexed": false,
          "internalType": "string",
          "name": "name",
          "type": "string"
        },
        {
          "indexed": false,
          "internalType": "uint256",
          "name": "beforeLeverage",
          "type": "uint256"
        },
        {
          "indexed": false,
          "internalType": "uint256",
          "name": "afterLeverage",
          "type": "uint256"
        }
      ],
      "name": "setLeverage",
      "type": "event"
    },
    {
      "stateMutability": "nonpayable",
      "type": "fallback"
    },
    {
      "inputs": [
        {
          "internalType": "enum ICommon.Direct",
          "name": "_type",
          "type": "uint8"
        },
        {
          "internalType": "uint256",
          "name": "_currentPrice",
          "type": "uint256"
        },
        {
          "internalType": "uint256",
          "name": "_dealPrice",
          "type": "uint256"
        },
        {
          "internalType": "uint256",
          "name": "_amount",
          "type": "uint256"
        },
        {
          "internalType": "uint256",
          "name": "_willClose",
          "type": "uint256"
        }
      ],
      "name": "calDealPNL",
      "outputs": [
        {
          "internalType": "uint256",
          "name": "profit",
          "type": "uint256"
        },
        {
          "internalType": "uint256",
          "name": "loss",
          "type": "uint256"
        }
      ],
      "stateMutability": "pure",
      "type": "function"
    },
    {
      "inputs": [
        {
          "internalType": "uint256",
          "name": "_orderID",
          "type": "uint256"
        },
        {
          "internalType": "address",
          "name": "_taker",
          "type": "address"
        },
        {
          "internalType": "bool",
          "name": "_status",
          "type": "bool"
        }
      ],
      "name": "cancelOrder",
      "outputs": [],
      "stateMutability": "nonpayable",
      "type": "function"
    },
    {
      "inputs": [
        {
          "internalType": "uint256",
          "name": "_oID",
          "type": "uint256"
        },
        {
          "internalType": "uint256",
          "name": "_price",
          "type": "uint256"
        }
      ],
      "name": "checkLimitOrder",
      "outputs": [
        {
          "internalType": "bool",
          "name": "success",
          "type": "bool"
        }
      ],
      "stateMutability": "view",
      "type": "function"
    },
    {
      "inputs": [
        {
          "internalType": "uint256[]",
          "name": "_orders",
          "type": "uint256[]"
        },
        {
          "internalType": "uint256[]",
          "name": "_prices",
          "type": "uint256[]"
        }
      ],
      "name": "checkLimitOrders",
      "outputs": [
        {
          "internalType": "bool[]",
          "name": "result",
          "type": "bool[]"
        }
      ],
      "stateMutability": "view",
      "type": "function"
    },
    {
      "inputs": [
        {
          "internalType": "uint256[]",
          "name": "_deal",
          "type": "uint256[]"
        },
        {
          "internalType": "uint256[]",
          "name": "_price",
          "type": "uint256[]"
        }
      ],
      "name": "checkMakerDealsRiskStatus",
      "outputs": [
        {
          "internalType": "bool[]",
          "name": "riskStatus",
          "type": "bool[]"
        }
      ],
      "stateMutability": "view",
      "type": "function"
    },
    {
      "inputs": [
        {
          "internalType": "address",
          "name": "_token",
          "type": "address"
        },
        {
          "internalType": "address",
          "name": "_taker",
          "type": "address"
        },
        {
          "internalType": "string[]",
          "name": "_symbols",
          "type": "string[]"
        },
        {
          "internalType": "uint256[]",
          "name": "_prices",
          "type": "uint256[]"
        }
      ],
      "name": "checkTakerRiskStatus",
      "outputs": [
        {
          "internalType": "bool",
          "name": "isRisk",
          "type": "bool"
        },
        {
          "internalType": "uint256",
          "name": "netLoss",
          "type": "uint256"
        },
        {
          "internalType": "uint256",
          "name": "overLoss",
          "type": "uint256"
        },
        {
          "internalType": "uint256",
          "name": "loss",
          "type": "uint256"
        }
      ],
      "stateMutability": "view",
      "type": "function"
    },
    {
      "inputs": [
        {
          "internalType": "address[]",
          "name": "_tokens",
          "type": "address[]"
        },
        {
          "internalType": "address[]",
          "name": "_takers",
          "type": "address[]"
        },
        {
          "internalType": "string[]",
          "name": "_symbols",
          "type": "string[]"
        },
        {
          "internalType": "uint256[]",
          "name": "_prices",
          "type": "uint256[]"
        }
      ],
      "name": "checkTakersRiskStatus",
      "outputs": [
        {
          "internalType": "bool[]",
          "name": "riskStatus",
          "type": "bool[]"
        }
      ],
      "stateMutability": "view",
      "type": "function"
    },
    {
      "inputs": [
        {
          "internalType": "address",
          "name": "_token",
          "type": "address"
        },
        {
          "internalType": "address",
          "name": "_taker",
          "type": "address"
        },
        {
          "internalType": "string",
          "name": "_pair",
          "type": "string"
        },
        {
          "internalType": "enum ICommon.Direct",
          "name": "_type",
          "type": "uint8"
        },
        {
          "internalType": "uint256",
          "name": "_currentPrice",
          "type": "uint256"
        },
        {
          "internalType": "uint256",
          "name": "_deposit",
          "type": "uint256"
        }
      ],
      "name": "clearingTakerPosition",
      "outputs": [
        {
          "internalType": "uint256",
          "name": "remainingDeposit",
          "type": "uint256"
        },
        {
          "internalType": "bool",
          "name": "clear",
          "type": "bool"
        }
      ],
      "stateMutability": "nonpayable",
      "type": "function"
    },
    {
      "inputs": [
        {
          "internalType": "address",
          "name": "_token",
          "type": "address"
        },
        {
          "internalType": "address",
          "name": "_taker",
          "type": "address"
        },
        {
          "internalType": "uint256",
          "name": "_dealID",
          "type": "uint256"
        },
        {
          "internalType": "uint256",
          "name": "_amount",
          "type": "uint256"
        },
        {
          "internalType": "enum IPerpetual.TradeType",
          "name": "_tradeType",
          "type": "uint8"
        },
        {
          "internalType": "uint256",
          "name": "_currentPrice",
          "type": "uint256"
        },
        {
          "internalType": "uint256",
          "name": "_leverage",
          "type": "uint256"
        },
        {
          "internalType": "uint256",
          "name": "_margin",
          "type": "uint256"
        },
        {
          "internalType": "uint256",
          "name": "_tradeFeeRate",
          "type": "uint256"
        },
        {
          "internalType": "uint256",
          "name": "_profit",
          "type": "uint256"
        },
        {
          "internalType": "uint256",
          "name": "_loss",
          "type": "uint256"
        }
      ],
      "name": "closeDealEvent",
      "outputs": [],
      "stateMutability": "nonpayable",
      "type": "function"
    },
    {
      "inputs": [
        {
          "internalType": "address",
          "name": "_token",
          "type": "address"
        },
        {
          "internalType": "address",
          "name": "_taker",
          "type": "address"
        },
        {
          "internalType": "string",
          "name": "_name",
          "type": "string"
        },
        {
          "internalType": "uint256",
          "name": "_amount",
          "type": "uint256"
        },
        {
          "internalType": "uint256",
          "name": "_currentPrice",
          "type": "uint256"
        },
        {
          "internalType": "enum ICommon.Direct",
          "name": "_direct",
          "type": "uint8"
        },
        {
          "internalType": "uint256",
          "name": "_limitID",
          "type": "uint256"
        }
      ],
      "name": "closeOrder",
      "outputs": [
        {
          "components": [
            {
              "internalType": "uint256",
              "name": "costPrice",
              "type": "uint256"
            },
            {
              "internalType": "uint256",
              "name": "totalMargin",
              "type": "uint256"
            },
            {
              "internalType": "uint256",
              "name": "tradingFee",
              "type": "uint256"
            },
            {
              "internalType": "uint256",
              "name": "gain",
              "type": "uint256"
            },
            {
              "internalType": "uint256",
              "name": "loss",
              "type": "uint256"
            }
          ],
          "internalType": "struct ICommon.CloseOrderResult",
          "name": "bulk",
          "type": "tuple"
        }
      ],
      "stateMutability": "nonpayable",
      "type": "function"
    },
    {
      "inputs": [
        {
          "internalType": "uint256",
          "name": "_start",
          "type": "uint256"
        },
        {
          "internalType": "uint256",
          "name": "_end",
          "type": "uint256"
        },
        {
          "internalType": "uint256",
          "name": "_count",
          "type": "uint256"
        }
      ],
      "name": "getActiveDeals",
      "outputs": [
        {
          "components": [
            {
              "internalType": "address",
              "name": "token",
              "type": "address"
            },
            {
              "internalType": "address payable",
              "name": "taker",
              "type": "address"
            },
            {
              "internalType": "enum ICommon.Direct",
              "name": "direct",
              "type": "uint8"
            },
            {
              "internalType": "enum ICommon.DealState",
              "name": "state",
              "type": "uint8"
            },
            {
              "internalType": "uint256",
              "name": "orderID",
              "type": "uint256"
            },
            {
              "internalType": "string",
              "name": "name",
              "type": "string"
            },
            {
              "internalType": "uint256",
              "name": "amount",
              "type": "uint256"
            },
            {
              "internalType": "uint256",
              "name": "price",
              "type": "uint256"
            },
            {
              "internalType": "uint256",
              "name": "leverage",
              "type": "uint256"
            },
            {
              "internalType": "uint256",
              "name": "margin",
              "type": "uint256"
            },
            {
              "internalType": "uint256",
              "name": "tradingFee",
              "type": "uint256"
            },
            {
              "internalType": "uint256",
              "name": "timestamp",
              "type": "uint256"
            }
          ],
          "internalType": "struct ICommon.Deal[]",
          "name": "info",
          "type": "tuple[]"
        },
        {
          "internalType": "uint256[]",
          "name": "ids",
          "type": "uint256[]"
        },
        {
          "internalType": "uint256",
          "name": "end",
          "type": "uint256"
        }
      ],
      "stateMutability": "view",
      "type": "function"
    },
    {
      "inputs": [
        {
          "internalType": "uint256",
          "name": "_start",
          "type": "uint256"
        },
        {
          "internalType": "uint256",
          "name": "_end",
          "type": "uint256"
        },
        {
          "internalType": "uint256",
          "name": "_count",
          "type": "uint256"
        }
      ],
      "name": "getActiveLimitedOrders",
      "outputs": [
        {
          "components": [
            {
              "internalType": "address",
              "name": "token",
              "type": "address"
            },
            {
              "internalType": "address payable",
              "name": "taker",
              "type": "address"
            },
            {
              "internalType": "enum ICommon.Direct",
              "name": "direct",
              "type": "uint8"
            },
            {
              "internalType": "enum IPerpetual.OrderState",
              "name": "state",
              "type": "uint8"
            },
            {
              "internalType": "enum ICommon.Offset",
              "name": "offset",
              "type": "uint8"
            },
            {
              "internalType": "string",
              "name": "name",
              "type": "string"
            },
            {
              "internalType": "uint256",
              "name": "amount",
              "type": "uint256"
            },
            {
              "internalType": "uint256",
              "name": "targetPrice",
              "type": "uint256"
            },
            {
              "internalType": "uint256",
              "name": "margin",
              "type": "uint256"
            },
            {
              "internalType": "uint256",
              "name": "tradingFee",
              "type": "uint256"
            },
            {
              "internalType": "uint256",
              "name": "rewardGas",
              "type": "uint256"
            },
            {
              "internalType": "uint256",
              "name": "startTime",
              "type": "uint256"
            },
            {
              "internalType": "uint256",
              "name": "orderType",
              "type": "uint256"
            }
          ],
          "internalType": "struct IPerpetual.LimitedOrder[]",
          "name": "info",
          "type": "tuple[]"
        },
        {
          "internalType": "uint256[]",
          "name": "ids",
          "type": "uint256[]"
        },
        {
          "internalType": "uint256",
          "name": "end",
          "type": "uint256"
        }
      ],
      "stateMutability": "view",
      "type": "function"
    },
    {
      "inputs": [
        {
          "internalType": "uint256[]",
          "name": "_ids",
          "type": "uint256[]"
        }
      ],
      "name": "getDeals",
      "outputs": [
        {
          "components": [
            {
              "internalType": "address",
              "name": "token",
              "type": "address"
            },
            {
              "internalType": "address payable",
              "name": "taker",
              "type": "address"
            },
            {
              "internalType": "enum ICommon.Direct",
              "name": "direct",
              "type": "uint8"
            },
            {
              "internalType": "enum ICommon.DealState",
              "name": "state",
              "type": "uint8"
            },
            {
              "internalType": "uint256",
              "name": "orderID",
              "type": "uint256"
            },
            {
              "internalType": "string",
              "name": "name",
              "type": "string"
            },
            {
              "internalType": "uint256",
              "name": "amount",
              "type": "uint256"
            },
            {
              "internalType": "uint256",
              "name": "price",
              "type": "uint256"
            },
            {
              "internalType": "uint256",
              "name": "leverage",
              "type": "uint256"
            },
            {
              "internalType": "uint256",
              "name": "margin",
              "type": "uint256"
            },
            {
              "internalType": "uint256",
              "name": "tradingFee",
              "type": "uint256"
            },
            {
              "internalType": "uint256",
              "name": "timestamp",
              "type": "uint256"
            }
          ],
          "internalType": "struct ICommon.Deal[]",
          "name": "info",
          "type": "tuple[]"
        }
      ],
      "stateMutability": "view",
      "type": "function"
    },
    {
      "inputs": [
        {
          "internalType": "uint256[]",
          "name": "_ids",
          "type": "uint256[]"
        }
      ],
      "name": "getLimitOrders",
      "outputs": [
        {
          "components": [
            {
              "internalType": "address",
              "name": "token",
              "type": "address"
            },
            {
              "internalType": "address payable",
              "name": "taker",
              "type": "address"
            },
            {
              "internalType": "enum ICommon.Direct",
              "name": "direct",
              "type": "uint8"
            },
            {
              "internalType": "enum IPerpetual.OrderState",
              "name": "state",
              "type": "uint8"
            },
            {
              "internalType": "enum ICommon.Offset",
              "name": "offset",
              "type": "uint8"
            },
            {
              "internalType": "string",
              "name": "name",
              "type": "string"
            },
            {
              "internalType": "uint256",
              "name": "amount",
              "type": "uint256"
            },
            {
              "internalType": "uint256",
              "name": "targetPrice",
              "type": "uint256"
            },
            {
              "internalType": "uint256",
              "name": "margin",
              "type": "uint256"
            },
            {
              "internalType": "uint256",
              "name": "tradingFee",
              "type": "uint256"
            },
            {
              "internalType": "uint256",
              "name": "rewardGas",
              "type": "uint256"
            },
            {
              "internalType": "uint256",
              "name": "startTime",
              "type": "uint256"
            },
            {
              "internalType": "uint256",
              "name": "orderType",
              "type": "uint256"
            }
          ],
          "internalType": "struct IPerpetual.LimitedOrder[]",
          "name": "info",
          "type": "tuple[]"
        }
      ],
      "stateMutability": "view",
      "type": "function"
    },
    {
      "inputs": [
        {
          "internalType": "address",
          "name": "_token",
          "type": "address"
        },
        {
          "internalType": "address",
          "name": "_user",
          "type": "address"
        },
        {
          "internalType": "string",
          "name": "_name",
          "type": "string"
        },
        {
          "internalType": "uint256",
          "name": "_price",
          "type": "uint256"
        }
      ],
      "name": "getMaxOpenAmount",
      "outputs": [
        {
          "internalType": "uint256",
          "name": "amount",
          "type": "uint256"
        }
      ],
      "stateMutability": "view",
      "type": "function"
    },
    {
      "inputs": [
        {
          "internalType": "address",
          "name": "_token",
          "type": "address"
        },
        {
          "internalType": "address",
          "name": "_user",
          "type": "address"
        },
        {
          "internalType": "string[]",
          "name": "_symbols",
          "type": "string[]"
        },
        {
          "internalType": "uint256[]",
          "name": "_prices",
          "type": "uint256[]"
        }
      ],
      "name": "getMaxWithdrawableAmount",
      "outputs": [
        {
          "internalType": "uint256",
          "name": "_amount",
          "type": "uint256"
        }
      ],
      "stateMutability": "view",
      "type": "function"
    },
    {
      "inputs": [
        {
          "internalType": "address",
          "name": "_token",
          "type": "address"
        },
        {
          "internalType": "address",
          "name": "_user",
          "type": "address"
        },
        {
          "internalType": "string[]",
          "name": "_symbols",
          "type": "string[]"
        },
        {
          "internalType": "uint256[]",
          "name": "_prices",
          "type": "uint256[]"
        }
      ],
      "name": "getPNL",
      "outputs": [
        {
          "internalType": "bool",
          "name": "flag",
          "type": "bool"
        },
        {
          "internalType": "uint256",
          "name": "amount",
          "type": "uint256"
        }
      ],
      "stateMutability": "view",
      "type": "function"
    },
    {
      "inputs": [
        {
          "internalType": "address",
          "name": "_token",
          "type": "address"
        },
        {
          "internalType": "address",
          "name": "_taker",
          "type": "address"
        },
        {
          "internalType": "string",
          "name": "_name",
          "type": "string"
        },
        {
          "internalType": "uint256",
          "name": "_price",
          "type": "uint256"
        },
        {
          "internalType": "uint8",
          "name": "_direction",
          "type": "uint8"
        }
      ],
      "name": "getPNLByCertainPosition",
      "outputs": [
        {
          "internalType": "uint256",
          "name": "profit",
          "type": "uint256"
        },
        {
          "internalType": "uint256",
          "name": "loss",
          "type": "uint256"
        }
      ],
      "stateMutability": "view",
      "type": "function"
    },
    {
      "inputs": [
        {
          "internalType": "address",
          "name": "_token",
          "type": "address"
        },
        {
          "internalType": "address",
          "name": "_taker",
          "type": "address"
        },
        {
          "internalType": "string[]",
          "name": "_symbols",
          "type": "string[]"
        },
        {
          "internalType": "uint256[]",
          "name": "_prices",
          "type": "uint256[]"
        }
      ],
      "name": "getPNLByPosition",
      "outputs": [
        {
          "internalType": "uint256",
          "name": "totalProfit",
          "type": "uint256"
        },
        {
          "internalType": "uint256",
          "name": "totalLoss",
          "type": "uint256"
        }
      ],
      "stateMutability": "view",
      "type": "function"
    },
    {
      "inputs": [
        {
          "internalType": "uint256[]",
          "name": "_ids",
          "type": "uint256[]"
        }
      ],
      "name": "getTriggerConditions",
      "outputs": [
        {
          "components": [
            {
              "internalType": "string",
              "name": "remark",
              "type": "string"
            },
            {
              "internalType": "uint256",
              "name": "mean",
              "type": "uint256"
            },
            {
              "internalType": "uint256",
              "name": "openLimitPrice",
              "type": "uint256"
            },
            {
              "internalType": "uint256",
              "name": "gainTriggerPrice",
              "type": "uint256"
            },
            {
              "internalType": "uint256",
              "name": "gainLimitPrice",
              "type": "uint256"
            },
            {
              "internalType": "uint256",
              "name": "lossTriggerPrice",
              "type": "uint256"
            },
            {
              "internalType": "uint256",
              "name": "lossLimitPrice",
              "type": "uint256"
            }
          ],
          "internalType": "struct IPerpetual.TriggerCondition[]",
          "name": "info",
          "type": "tuple[]"
        }
      ],
      "stateMutability": "view",
      "type": "function"
    },
    {
      "inputs": [
        {
          "internalType": "address",
          "name": "_priPool",
          "type": "address"
        },
        {
          "internalType": "address",
          "name": "_perpetual",
          "type": "address"
        }
      ],
      "name": "initialize",
      "outputs": [],
      "stateMutability": "nonpayable",
      "type": "function"
    },
    {
      "inputs": [
        {
          "internalType": "uint256",
          "name": "_dealID",
          "type": "uint256"
        },
        {
          "internalType": "uint256",
          "name": "_price",
          "type": "uint256"
        }
      ],
      "name": "liquidateMakerDeal",
      "outputs": [
        {
          "internalType": "bool",
          "name": "isLiquidated",
          "type": "bool"
        },
        {
          "internalType": "bool",
          "name": "isAgreement",
          "type": "bool"
        },
        {
          "internalType": "uint256",
          "name": "userProfit",
          "type": "uint256"
        }
      ],
      "stateMutability": "nonpayable",
      "type": "function"
    },
    {
      "inputs": [
        {
          "internalType": "uint256[]",
          "name": "_dealIDs",
          "type": "uint256[]"
        },
        {
          "internalType": "string[]",
          "name": "_symbols",
          "type": "string[]"
        },
        {
          "internalType": "uint256[]",
          "name": "_prices",
          "type": "uint256[]"
        }
      ],
      "name": "liquidateMakerDeals",
      "outputs": [],
      "stateMutability": "nonpayable",
      "type": "function"
    },
    {
      "inputs": [],
      "name": "owner",
      "outputs": [
        {
          "internalType": "address",
          "name": "",
          "type": "address"
        }
      ],
      "stateMutability": "view",
      "type": "function"
    },
    {
      "inputs": [],
      "name": "renounceOwnership",
      "outputs": [],
      "stateMutability": "nonpayable",
      "type": "function"
    },
    {
      "inputs": [
        {
          "internalType": "address",
          "name": "_orderBook",
          "type": "address"
        },
        {
          "internalType": "address",
          "name": "_station",
          "type": "address"
        },
        {
          "internalType": "address",
          "name": "_poolAgent",
          "type": "address"
        },
        {
          "internalType": "address",
          "name": "keeper",
          "type": "address"
        }
      ],
      "name": "setKeepers",
      "outputs": [],
      "stateMutability": "nonpayable",
      "type": "function"
    },
    {
      "inputs": [
        {
          "internalType": "address",
          "name": "newOwner",
          "type": "address"
        }
      ],
      "name": "transferOwnership",
      "outputs": [],
      "stateMutability": "nonpayable",
      "type": "function"
    }
  ],
  "bytecode": "0x60808060405234601557614c75908161001a8239f35b5f80fdfe60806040526004361015610019575b3461001557005b5f80fd5b5f3560e01c8063016f4dcb146101c85780630374c555146101c35780630414065b146101be57806307e71485146101b95780633ca1451a146101b4578063485cc955146101af57806350942355146101aa57806352e282a7146101a5578063642bcd18146101a0578063715018a61461019b57806375ffb53d1461019657806381a4f173146101915780638da5cb5b1461018c578063ac6b96a214610187578063c1d159d214610182578063c2b335641461017d578063ca6ec37214610178578063d15a1b4114610173578063d719606a1461016e578063e6b34c6914610169578063e771ad7214610164578063ea270eb21461015f578063eb4f2e361461015a578063f10f4fa014610155578063f1257f8414610150578063f2fde38b1461014b5763f69ef33b0361000e57612012565b611fe5565b611f7e565b611f64565b611c75565b611bff565b611a48565b611a02565b6119cc565b6119a2565b6118af565b61177c565b61169a565b611571565b61151b565b6113c1565b6111d6565b610f8f565b610f1b565b610e04565b610c1a565b6109d2565b61089f565b61081c565b61072c565b61049f565b3461001557604060031936011261001557606061020260043560243590335f5260056020526101fd60ff60405f20541661207b565b6122ce565b906040519215158352151560208301526040820152f35b634e487b7160e01b5f52604160045260245ffd5b60e0810190811067ffffffffffffffff82111761024957604052565b610219565b60a0810190811067ffffffffffffffff82111761024957604052565b610100810190811067ffffffffffffffff82111761024957604052565b610180810190811067ffffffffffffffff82111761024957604052565b6101a0810190811067ffffffffffffffff82111761024957604052565b90601f601f19910116810190811067ffffffffffffffff82111761024957604052565b604051906102f4610180836102c1565b565b604051906102f460e0836102c1565b604051906102f46101a0836102c1565b67ffffffffffffffff81116102495760051b60200190565b9080601f8301121561001557813561034481610315565b9261035260405194856102c1565b81845260208085019260051b82010192831161001557602001905b82821061037a5750505090565b813581526020918201910161036d565b6020600319820112610015576004359067ffffffffffffffff8211610015576103b59160040161032d565b90565b90601f19601f602080948051918291828752018686015e5f8582860101520116010190565b602081016020825282518091526040820191602060408360051b8301019401925f915b83831061040f57505050505090565b9091929394602080827fffffffffffffffffffffffffffffffffffffffffffffffffffffffffffffffc0856001950301865288519060c08061045a845160e0855260e08501906103b8565b93858101518685015260408101516040850152606081015160608501526080810151608085015260a081015160a0850152015191015297019301930191939290610400565b34610015576104ad3661038a565b80516104b881612561565b915f906104dc6104d06002546001600160a01b031690565b6001600160a01b031690565b915b8381106104f757604051806104f387826103dd565b0390f35b805f61050661053f93856125da565b51604051809481927f0187703f000000000000000000000000000000000000000000000000000000008352600483019190602083019252565b0381875afa8015610593576001925f91610571575b5061055f82886125da565b5261056a81876125da565b50016104de565b61058d91503d805f833e61058581836102c1565b810190612602565b5f610554565b612214565b6001600160a01b0381160361001557565b9080601f830112156100155781356105c081610315565b926105ce60405194856102c1565b81845260208085019260051b82010192831161001557602001905b8282106105f65750505090565b60208091833561060581610598565b8152019101906105e9565b67ffffffffffffffff811161024957601f01601f191660200190565b81601f820112156100155780359061064382610610565b9261065160405194856102c1565b8284526020838301011161001557815f926020809301838601378301015290565b9080601f8301121561001557813561068981610315565b9261069760405194856102c1565b81845260208085019260051b820101918383116100155760208201905b8382106106c357505050505090565b813567ffffffffffffffff8111610015576020916106e68784809488010161062c565b8152019101906106b4565b60206040818301928281528451809452019201905f5b8181106107145750505090565b82511515845260209384019390920191600101610707565b346100155760806003193601126100155760043567ffffffffffffffff81116100155761075d9036906004016105a9565b60243567ffffffffffffffff81116100155761077d9036906004016105a9565b9060443567ffffffffffffffff81116100155761079e903690600401610672565b906064359167ffffffffffffffff8311610015576104f3936107c76107cd94369060040161032d565b926126c1565b604051918291826106f1565b6003111561001557565b6102f49092919260a081019360808091805184526020810151602085015260408101516040850152606081015160608501520151910152565b346100155760e06003193601126100155760043561083981610598565b6024359061084682610598565b6044359067ffffffffffffffff8211610015576104f39261086e61089393369060040161062c565b6064356084359160a43593610882856107d9565b60c4359561088e612752565b61277c565b604051918291826107e3565b34610015576080600319360112610015576004356108bc81610598565b6024356108c881610598565b60443567ffffffffffffffff8111610015576108eb61010091369060040161062c565b60646001600160a01b0361091561090f84843597610909818b614740565b9961480c565b93614882565b169360405194859384927f32a845020000000000000000000000000000000000000000000000000000000084526402540be4006004850152602484015260448301525afa8015610593576104f392610987925f92610997575b5061097e6020606092015161224e565b910151906122a3565b6040519081529081906020820190565b606091925060206109c261097e926101003d81116109cb575b6109ba81836102c1565b810190612982565b9392505061096e565b503d6109b0565b34610015576040600319360112610015576004356109ef81610598565b602435906109fc82610598565b7ff0c57e16840df040f15088dc2f81fe391c3923bec73e23a9662efc9c229c6a00549167ffffffffffffffff610a4b60ff604086901c1615610a3d565b1590565b9467ffffffffffffffff1690565b1680159081610c12575b6001149081610c08575b159081610bff575b50610bd757610ae89183610adf60017fffffffffffffffffffffffffffffffffffffffffffffffff00000000000000007ff0c57e16840df040f15088dc2f81fe391c3923bec73e23a9662efc9c229c6a005416177ff0c57e16840df040f15088dc2f81fe391c3923bec73e23a9662efc9c229c6a0055565b610b72576129e7565b610aee57005b610b4368ff0000000000000000197ff0c57e16840df040f15088dc2f81fe391c3923bec73e23a9662efc9c229c6a0054167ff0c57e16840df040f15088dc2f81fe391c3923bec73e23a9662efc9c229c6a0055565b604051600181527fc7f505b2f371ae2175ee4913f4499e1f2633a7b5936321eed1cdaeb6115181d290602090a1005b610bd26801000000000000000068ff0000000000000000197ff0c57e16840df040f15088dc2f81fe391c3923bec73e23a9662efc9c229c6a005416177ff0c57e16840df040f15088dc2f81fe391c3923bec73e23a9662efc9c229c6a0055565b6129e7565b7ff92ee8a9000000000000000000000000000000000000000000000000000000005f5260045ffd5b9050155f610a67565b303b159150610a5f565b849150610a55565b346100155760c060031936011261001557600435610c3781610598565b60243590610c4482610598565b6044359167ffffffffffffffff831161001557610c68610c9a93369060040161062c565b60643590610c75826107d9565b6084359260a43594335f526005602052610c9560ff60405f20541661207b565b612afb565b60408051928352901515602083015290f35b634e487b7160e01b5f52602160045260245ffd5b60031115610cca57565b610cac565b90610cd982610cc0565b52565b60061115610cca57565b906006821015610cca5752565b9080602083519182815201916020808360051b8301019401925f915b838310610d1e57505050505090565b909192939460208082601f198560019503018652885190610d488183516001600160a01b03169052565b818301516001600160a01b031681840152610d6b60408301516040830190610ccf565b610d7d60608301516060830190610ce6565b6080820151608082015261016080610da660a085015161018060a08601526101808501906103b8565b9360c081015160c085015260e081015160e0850152610100810151610100850152610120810151610120850152610140810151610140850152015191015297019301930191939290610d0f565b9060206103b5928181520190610cf3565b3461001557610e123661038a565b8051610e1d81612f83565b915f90610e356104d06002546001600160a01b031690565b915b838110610e4c57604051806104f38782610df3565b805f610e5b610e7b93856125da565b51604051809481926320bf56eb60e21b8352600483019190602083019252565b0381875afa8015610593576001925f91610ead575b50610e9b82886125da565b52610ea681876125da565b5001610e37565b610ec991503d805f833e610ec181836102c1565b81019061212f565b5f610e90565b9060406003198301126100155760043567ffffffffffffffff81116100155782610efb9160040161032d565b916024359067ffffffffffffffff8211610015576103b59160040161032d565b3461001557610f2936610ecf565b90610f348151612690565b915f5b8251811015610f775780610f62610f50600193866125da565b51610f5b83866125da565b5190613313565b610f6c82876125da565b901515905201610f37565b604051806104f386826106f1565b5f91031261001557565b34610015575f60031936011261001557610fa7614a92565b5f6001600160a01b037f9016d09d72d40fdae2fd8ceac6b6234c7706214fd39c1cd1e609a0528c1993005473ffffffffffffffffffffffffffffffffffffffff1981167f9016d09d72d40fdae2fd8ceac6b6234c7706214fd39c1cd1e609a0528c19930055167f8be0079c531659141344cd1fd0a4f28419497f9722a3daafe3b4186f6b6457e08280a3005b600319606091011261001557600435906024359060443590565b60081115610cca57565b90610cd98261104d565b9080602083519182815201916020808360051b8301019401925f915b83831061108c57505050505090565b909192939460208082601f1985600195030186528851906110b68183516001600160a01b03169052565b818301516001600160a01b0316818401526110d960408301516040830190610ccf565b6110eb60608301516060830190611057565b6110fd60808301516080830190610ccf565b6101808061111c60a08501516101a060a08601526101a08501906103b8565b9360c081015160c085015260e081015160e085015261010081015161010085015261012081015161012085015261014081015161014085015261016081015161016085015201519101529701930193019193929061107d565b90602080835192838152019201905f5b8181106111925750505090565b8251845260209384019390920191600101611185565b9392916111d1906111c3604093606088526060880190611061565b908682036020880152611175565b930152565b34610015576111e436611033565b91908082906111fe6104d06002546001600160a01b031690565b93604051917f49138690000000000000000000000000000000000000000000000000000000008352602083600481895afa928315610593575f93611390575b508210611386575b811061137e575b5090915f9061125a8561302d565b9461126481612690565b935b85811080611375575b1561134e57604051630c3fc6b960e01b8152600481018290525f81602481875afa908115610593575f9161132c575b5060608101600181516112b08161104d565b6112b98161104d565b1490811561130e575b506112d7575b506112d2906131d4565b611266565b8461130791836112eb6112d295988a6125da565b526112f6828b6125da565b52611301818a6125da565b506131d4565b93906112c8565b600291505161131c8161104d565b6113258161104d565b145f6112c2565b61134891503d805f833e61134081836102c1565b8101906130dc565b5f61129e565b6104f38791858794810361136a575b50604051938493846111a8565b80845284528461135d565b5081841061126f565b90505f61124c565b9092508290611245565b6113b391935060203d6020116113ba575b6113ab81836102c1565b81019061301e565b915f61123d565b503d6113a1565b34610015576080600319360112610015576115196001600160a01b036004356113e981610598565b6114ef826024356113f981610598565b6114c5826044359561140a87610598565b8160643561141781610598565b61141f614a92565b165f52600560205260405f20600160ff1982541617905516805f52600560205261145360405f20600160ff19825416179055565b61147e611471846001600160a01b03165f52600560205260405f2090565b600160ff19825416179055565b61149c611471876001600160a01b03165f52600560205260405f2090565b6001600160a01b031673ffffffffffffffffffffffffffffffffffffffff196002541617600255565b166001600160a01b031673ffffffffffffffffffffffffffffffffffffffff196003541617600355565b166001600160a01b031673ffffffffffffffffffffffffffffffffffffffff196004541617600455565b005b34610015575f6003193601126100155760206001600160a01b037f9016d09d72d40fdae2fd8ceac6b6234c7706214fd39c1cd1e609a0528c1993005416604051908152f35b9060206103b5928181520190611061565b346100155761157f3661038a565b805161158a8161302d565b915f906115a26104d06002546001600160a01b031690565b915b8381106115b957604051806104f38782611560565b805f6115c86115e893856125da565b5160405180948192630c3fc6b960e01b8352600483019190602083019252565b0381875afa8015610593576001925f9161161a575b5061160882886125da565b5261161381876125da565b50016115a4565b61162e91503d805f833e61134081836102c1565b5f6115fd565b9060806003198301126100155760043561164d81610598565b9160243561165a81610598565b9160443567ffffffffffffffff8111610015578261167a91600401610672565b916064359067ffffffffffffffff8211610015576103b59160040161032d565b34610015576116c36116ab36611634565b919390916116b98585614740565b925f955f9561324c565b901561176a575b506040810151926116d9614af1565b670de0b6b3a764000003670de0b6b3a7640000811161176557611708670de0b6b3a7640000916104f396612290565b048181106117285750506020915001516040519081529081906020820190565b9091602001826117398383516122c1565b1015611748575b505050610987565b61175d93509061175891516122c1565b612241565b5f8080611740565b61221f565b92505f6116ca565b8015150361001557565b346100155760606003193601126100155761182960243560406004356117a183610598565b604435906117ae82611772565b335f5260056020526117c560ff845f20541661207b565b60025484905f906001600160a01b0316928551978895869485937fc2b335640000000000000000000000000000000000000000000000000000000085526004850191926001600160a01b036040929594606085019685521660208401521515910152565b03925af1908115610593575f925f9261187b575b508161184557005b826118538261151995614740565b92602084016118638282516122c1565b905261187460608501918251612241565b9052614b3e565b9092506118a0915060403d6040116118a8575b61189881836102c1565b8101906131e2565b90915f61183d565b503d61188e565b346100155760a0600319360112610015576004356118cc816107d9565b60243560443591606435906001608435916118e681610cc0565b03611978578383106119585761192a936119108361190b6119169461191c9796612290565b6122a3565b92612241565b90612290565b670de0b6b3a7640000900490565b5f905b80158015611950575b61193f90613201565b604080519182526020820192909252f35b508115611936565b926119166119729361191061191c9461190b5f9882612290565b9061192d565b9192918284116119585761199b936119108361190b6119169461191c9796612290565b5f9061192d565b346100155760406119be6119b536611634565b9291909161324c565b825191151582526020820152f35b346100155760806119e86119df36611634565b92919091613280565b916040519315158452602084015260408301526060820152f35b34610015576040600319360112610015576020611a23602435600435613313565b6040519015158152f35b9392916111d1906111c3604093606088526060880190610cf3565b3461001557611a5636611033565b9190808290611a706104d06002546001600160a01b031690565b93604051917fb8119888000000000000000000000000000000000000000000000000000000008352602083600481895afa928315610593575f93611bde575b508210611bd4575b8110611bcc575b5090915f90611acc85612f83565b94611ad681612690565b935b85811080611bc3575b15611b9c576040516320bf56eb60e21b8152600481018290525f81602481875afa908115610593575f91611b82575b506060810160018151611b2281610cdc565b611b2b81610cdc565b14908115611b64575b50611b49575b50611b44906131d4565b611ad8565b84611b5d91836112eb611b4495988a6125da565b9390611b3a565b6002915051611b7281610cdc565b611b7b81610cdc565b145f611b34565b611b9691503d805f833e610ec181836102c1565b5f611b10565b6104f387918587948103611bb8575b5060405193849384611a2d565b808452845284611bab565b50818410611ae1565b90505f611abe565b9092508290611ab7565b611bf891935060203d6020116113ba576113ab81836102c1565b915f611aaf565b346100155760a060031936011261001557600435611c1c81610598565b602435611c2881610598565b60443567ffffffffffffffff811161001557611c4890369060040161062c565b606435906084359260ff8416840361001557611c6394613627565b60408051928352602083019190915290f35b346100155760606003193601126100155760043567ffffffffffffffff811161001557611ca690369060040161032d565b60243567ffffffffffffffff811161001557611cc6903690600401610672565b60443567ffffffffffffffff811161001557611ce690369060040161032d565b90335f526005602052611cff60ff60405f20541661207b565b8251915f5b838110611d0d57005b611d6c9060c083611d296104d06002546001600160a01b031690565b865f611d35868c6125da565b51604051978895869485937fdcee347500000000000000000000000000000000000000000000000000000000855260048501613711565b03925af18015610593575f905f915f905f935f965f94611f26575b5081611f1e575b50611da1575b5050506001915001611d04565b611db66104d06001546001600160a01b031690565b91823b15610015576040517fd3c2d8b70000000000000000000000000000000000000000000000000000000081526001600160a01b038581166004830152871660248201525f6044820181905290938490606490829084905af192831561059357611e6b93611f0a575b50611e2b8685614740565b91611e378184516122c1565b8352611e5182611e4c602086019384516122c1565b6122c1565b9052611e6260408301918251612241565b90528483614b3e565b611e806104d06001546001600160a01b031690565b92833b15610015576040517fd3c2d8b70000000000000000000000000000000000000000000000000000000081526001600160a01b03928316600482015291166024820152600a6044820152915f908390606490829084905af191821561059357600192611ef0575b8080611d94565b80611efe5f611f04936102c1565b80610f85565b5f611ee9565b80611efe5f611f18936102c1565b5f611e20565b90505f611d8e565b945050505050611f4e91925060c03d8111611f5d575b611f4681836102c1565b8101906136c5565b9095949193909291905f611d87565b503d611f3c565b3461001557611c63611f7536611634565b929190916137a3565b346100155761016060031936011261001557600435611f9c81610598565b60243590611fa982610598565b608435916044356064356005851015610015576115199460a43560c4359160e435936101043595611fda6101243590565b976101443599613831565b346100155760206003193601126100155761151960043561200581610598565b61200d614a92565b61390a565b346100155761202036610ecf565b81519061202c82612690565b925f5b83811061204457604051806104f387826106f1565b80612066612054600193856125da565b5161205f83876125da565b51906139e7565b61207082886125da565b90151590520161202f565b1561208257565b606460405162461bcd60e51b815260206004820152601a60248201527f63616c6c6572206973206e6f74206167656e74206b65657065720000000000006044820152fd5b51906102f482610598565b51906102f4826107d9565b5190600682101561001557565b81601f820112156100155780519061210082610610565b9261210e60405194856102c1565b8284526020838301011161001557815f9260208093018386015e8301015290565b6020818303126100155780519067ffffffffffffffff821161001557019061018082820312610015576121606102e4565b9161216a816120c6565b8352612178602082016120c6565b6020840152612189604082016120d1565b604084015261219a606082016120dc565b60608401526080810151608084015260a081015167ffffffffffffffff811161001557610160926121cc9183016120e9565b60a084015260c081015160c084015260e081015160e0840152610100810151610100840152610120810151610120840152610140810151610140840152015161016082015290565b6040513d5f823e3d90fd5b634e487b7160e01b5f52601160045260245ffd5b5f1981019190821161176557565b9190820391821161176557565b906402540be4008202918083046402540be400149015171561176557565b90670de0b6b3a7640000820291808304670de0b6b3a7640000149015171561176557565b8181029291811591840414171561176557565b81156122ad570490565b634e487b7160e01b5f52601260045260245ffd5b9190820180921161176557565b906122e46104d06002546001600160a01b031690565b925f60405180956320bf56eb60e21b8252818061230988600483019190602083019252565b03915afa938415610593575f94612545575b50612329610a3983856139e7565b61253a5760408401926001845161233f81610cc0565b61234881610cc0565b148061252d575b156124795760c085019384519561237261191c60e08301986119168a5189612241565b9461237e818786613c25565b909a925098908a156124675780890361242b575b505050908592915b81516001600160a01b03169160208101516123bb906001600160a01b031690565b9060a0810151936123ca613d5f565b9551926123d684610cc0565b60c083019685885160e08601519061010087019788519461012089019b8c51976001600160a01b031661240899613dc5565b516001600160a01b03169561241b613f91565b945191519351946102f497613fdf565b61191c985061245d929594935061245081611e4c612455939b8c998651905190612290565b61226c565b9051906122a3565b9091925f80612392565b505f9950899850889750505050505050565b6002845161248681610cc0565b61248f81610cc0565b1480612520575b156125145760c08501938451956124b961191c60e0830198611916888b51612241565b946124c5818786613c25565b909a925098908a15612467578089036124e5575b5050509085929161239a565b61191c985061250a929594935061245081611758612455939b8c998651905190612290565b9091925f806124d9565b505f9350839250829150565b508260e086015111612496565b5060e0850151831161234f565b5f9350839250829150565b61255a9194503d805f833e610ec181836102c1565b925f61231b565b9061256b82610315565b61257860405191826102c1565b828152601f196125888294610315565b01905f5b82811061259857505050565b6020906040516125a78161022d565b606081525f838201525f60408201525f60608201525f60808201525f60a08201525f60c08201528282850101520161258c565b80518210156125ee5760209160051b010190565b634e487b7160e01b5f52603260045260245ffd5b6020818303126100155780519067ffffffffffffffff821161001557019060e082820312610015576126326102f6565b91805167ffffffffffffffff81116100155760c0926126529183016120e9565b83526020810151602084015260408101516040840152606081015160608401526080810151608084015260a081015160a0840152015160c082015290565b9061269a82610315565b6126a760405191826102c1565b828152601f196126b78294610315565b0190602036910137565b929390936126da6126d58651865190612290565b612690565b925f925b8551841015612749575f5b8787815183101561273c57858584936001600160a01b0361271c600197826127148e612724996125da565b5116936125da565b511690613280565b50505061273187896125da565b9015159052016126e9565b50505092600101926126de565b94505050509150565b6040519061275f8261024e565b5f6080838281528260208201528260408201528260608201520152565b509495939195929092335f52600560205261279d60ff60405f20541661207b565b6127b26104d06002546001600160a01b031690565b5f60405180927f0187703f00000000000000000000000000000000000000000000000000000000825281806127ef8b600483019190602083019252565b03915afa8015610593576020915f91612968575b500151159081159161295d575b61281f828286868c8a8d6141ac565b935f955f975f608088015260608701995f8b5261283e858d8584614362565b9b5f5b8d518110156129445761285387610cc0565b8d816001890361292157612866916125da565b515b898c10156128e15760018101612882575b50600101612841565b888b888e9f9e612892908e612241565b9160200151916128a194614529565b6128ae919e92939f6122c1565b9c6128b8916122c1565b9c60808c0151906128c8916122c1565b60808c01528d51906128d9916122c1565b8d525f612879565b505092999a509590969a5061291497508994508a935b6128ff613d5f565b855193602087019b60408d5198015199613e72565b61291c613f91565b505290565b9061293861293361293e938351612241565b612233565b906125da565b51612868565b5092999a509590969a5061291497508994508a936128f7565b5f1986149150612810565b61297c91503d805f833e61058581836102c1565b5f612803565b90816101009103126100155760e06040519161299d8361026a565b805183526020810151602084015260408101516040840152606081015160608401526080810151608084015260a081015160a084015260c081015160c0840152015160e082015290565b612a83916001600160a01b03611471926129ff614be8565b612a07614be8565b612a103361390a565b168073ffffffffffffffffffffffffffffffffffffffff195f5416175f555f52600560205260405f20600160ff198254161790556001600160a01b03811673ffffffffffffffffffffffffffffffffffffffff1960015416176001556001600160a01b03165f52600560205260405f2090565b612aa1611471336001600160a01b03165f52600560205260405f2090565b6102f4611471306001600160a01b03165f52600560205260405f2090565b60405190612acc8261024e565b60606080835f81525f60208201525f60408201525f838201520152565b60ff5f199116019060ff821161176557565b93929190959495612b0a612abf565b9694612b1584610cc0565b612b29612b2185612ae9565b84848461493b565b60608c015260408b0190815260208b01828152928b529990612b545750505050505050909150905f90565b91612b938492869489612b6c612b98998b998761480c565b9d8e9289612b88612b7b613d5f565b966124558151945161226c565b9251958a8a8a613f1c565b614362565b925f5b8451811015612f6d57612bad83610cc0565b600183148015612f5057612bc182876125da565b515b612bd86104d06002546001600160a01b031690565b5f60405180926320bf56eb60e21b82528180612bfc87600483019190602083019252565b03915afa908115610593575f91612f36575b506060810160018151612c2081610cdc565b612c2981610cdc565b14908115612f18575b50612c43575b505050600101612b9b565b91935f9290918a8885612c558a610cc0565b8880612f0a575b15612e1f5750612c87612c8061191c8c61191660c08901519160e08a015190612241565b80966122c1565b978887612d96575b5050612ca160e0850151878786613cdf565b50509050858103612d57575b50612d3a84612cfa8888612d4f99976001600160a01b0397612d4897612cde60019f9e9c516001600160a01b031690565b92612ce7613d5f565b9060c0890151916101208a01519561405d565b612d2d612d0e82516001600160a01b031690565b95602083019686612d2689516001600160a01b031690565b16906149ef565b516001600160a01b031690565b92516001600160a01b031690565b1690614a43565b905f80612c38565b978694612cfa60019998612d48946001600160a01b039697612d838e611e4c612d4f9d612d3a99612241565b9d9a509796509450505094969750612cad565b919891878310612db557505085612dac91612241565b965b5f80612c8f565b5f995091965081612dcd57505060e08301515b612dae565b612dd68a610cc0565b15612dfd57612dc89061245561245060c0870192611e4c61191c855160e08b015190612290565b612dc89061245561245060c087019261175861191c855160e08b015190612290565b9495612e2a8a610cc0565b8880612efc575b15612e5b5750612c8785612e5561191c8d61191660c08a01519160e08b0151612241565b976122c1565b9594612e668a610cc0565b60028a148080612eee575b15612e95575050612c87612c8061191c8c61191660c08901519160e08a0151612241565b612ea18b979297610cc0565b80612ee0575b612eb6575b85612c87916122c1565b9550612c8785612ed761191c8d61191660c08a01519160e08b015190612241565b97915050612eac565b5060e08501518b1015612ea7565b5060e08601518c1115612e71565b5060e08501518b1115612e31565b5060e08501518b1015612c5c565b6002915051612f2681610cdc565b612f2f81610cdc565b145f612c32565b612f4a91503d805f833e610ec181836102c1565b5f612c0e565b612f67612f61612933848951612241565b876125da565b51612bc3565b50939450505050612f7c613f91565b5090600190565b90612f8d82610315565b612f9a60405191826102c1565b828152601f19612faa8294610315565b01905f5b828110612fba57505050565b602090604051612fc981610287565b5f81525f838201525f60408201525f60608201525f6080820152606060a08201525f60c08201525f60e08201525f6101008201525f6101208201525f6101408201525f61016082015282828501015201612fae565b90816020910312610015575190565b9061303782610315565b61304460405191826102c1565b828152601f196130548294610315565b01905f5b82811061306457505050565b602090604051613073816102a4565b5f81525f838201525f60408201525f60608201525f6080820152606060a08201525f60c08201525f60e08201525f6101008201525f6101208201525f6101408201525f6101608201525f61018082015282828501015201613058565b5190600882101561001557565b6020818303126100155780519067ffffffffffffffff82116100155701906101a0828203126100155761310d610305565b91613117816120c6565b8352613125602082016120c6565b6020840152613136604082016120d1565b6040840152613147606082016130cf565b6060840152613158608082016120d1565b608084015260a081015167ffffffffffffffff811161001557610180926131809183016120e9565b60a084015260c081015160c084015260e081015160e0840152610100810151610100840152610120810151610120840152610140810151610140840152610160810151610160840152015161018082015290565b5f1981146117655760010190565b919082604091031261001557602082516131fb81610598565b92015190565b1561320857565b606460405162461bcd60e51b815260206004820152600960248201527f504e4c206572726f7200000000000000000000000000000000000000000000006044820152fd5b906132589392916137a3565b9091908083106132715782039182116117655760019190565b918203918211611765575f9190565b93926132b291926132918487614740565b93670de0b6b3a76400006132ab6040870151611916614af1565b04966137a3565b80928183106132cc575b5050505090505f905f905f905f90565b519181039080821161176557819582018083116117655783116132bc578282111561330557505083039183831161176557600193929190565b9250935050600192915f9190565b905f61334e9261332e6104d06002546001600160a01b031690565b6040518080968194630c3fc6b960e01b8352600483019190602083019252565b03915afa918215610593575f9261350d575b5060608201600181516133728161104d565b61337b8161104d565b141590816134ee575b506134e8576015610180830151146134e15760808201600181516133a781610cc0565b6133b081610cc0565b1480613470575b61346857600290516133c881610cc0565b6133d181610cc0565b1491826133e8575b50506133e3575f90565b600190565b9091506040810191600183516133fd81610cc0565b61340681610cc0565b149283613459575b831561341f575b5050505f806133d9565b6002919293505161342f81610cc0565b61343881610cc0565b14918261344a575b50505f8080613415565b60e00151101590505f80613440565b60e0830151821015935061340e565b505050600190565b50604083016001815161348281610cc0565b61348b81610cc0565b1490816134d2575b81156134a0575b506133b7565b60029150516134ae81610cc0565b6134b781610cc0565b14806134c4575b5f61349a565b5060e08301518210156134be565b60e08501518411159150613493565b5050600190565b50505f90565b60029150516134fc8161104d565b6135058161104d565b14155f613384565b6135229192503d805f833e61134081836102c1565b905f613360565b9092915f9280156135a55761356c670de0b6b3a7640000916135575f80958199613551612abf565b9861493b565b50604088015260208701819052908652612290565b04908251808310155f146135925750508201809211611765575181039081116117655791565b9350949350905081039081116117655790565b50505050505f905f90565b9092801561361d576135f1670de0b6b3a7640000916135dc60015f965f986135d6612abf565b9761493b565b50604087015260208601819052908552612290565b049181518311155f1461360d5750519081039081116117655791565b9392505181039081116117655790565b505050505f905f90565b929391909380156135a55761366661191c60ff92613651865f965f9a61364b612abf565b9a61493b565b5060408a015260208901819052908852612290565b921661369f57825180831061368f575061368c9291613684916122c1565b905190612241565b91565b6103b593506117589195946122c1565b8251909493929082116136b95761368c9293945051612241565b6103b592505190612241565b91908260c09103126100155781516136dc81611772565b9160208101516136eb81611772565b91604082015191606081015161370081610598565b9160a060808301516131fb81610598565b93929093606081019481526060602082015282518095526080810194602060808260051b8401019401905f5b81811061375a575050506103b59394506040818403910152611175565b909194602080613794837fffffffffffffffffffffffffffffffffffffffffffffffffffffffffffffff808860019603018c5289516103b8565b9701980191019691909661373d565b5f94938592835b8551881015613827576137d46137c089886125da565b516137cb8a866125da565b51908487613529565b956137f66137e28b8a6125da565b516137ed8c886125da565b519086896135b0565b92820180921161176557810180911161176557958201809211611765578101809111611765576001909701966137aa565b9594505050509250565b969097670de0b6b3a764000061386c87613867879a9e9d999a8495999899335f52600560205261386760ff60405f20541661207b565b612290565b040499613877613d5f565b92604051936001600160a01b038a168552602085015260408401526005841015610cca576102f49a613905977f85a6bfd765950245f4f456c74db06ee8bad5a7ea04b80581aa7563d196421f6696610180966060870152608086015260a085015260c084015260e0830152610100820152836101208201528761014082015242610160820152a183836149ef565b614a43565b6001600160a01b031680156139a6576001600160a01b037f9016d09d72d40fdae2fd8ceac6b6234c7706214fd39c1cd1e609a0528c199300548273ffffffffffffffffffffffffffffffffffffffff198216177f9016d09d72d40fdae2fd8ceac6b6234c7706214fd39c1cd1e609a0528c19930055167f8be0079c531659141344cd1fd0a4f28419497f9722a3daafe3b4186f6b6457e05f80a3565b7f1e4fbdf7000000000000000000000000000000000000000000000000000000005f525f60045260245ffd5b9081602091031261001557516103b581611772565b6139fc6104d06002546001600160a01b031690565b915f60405180946320bf56eb60e21b82528180613a2187600483019190602083019252565b03915afa928315610593575f93613bd8575b506060830160018151613a4581610cdc565b613a4e81610cdc565b14159081613bb9575b508015613bb1575b613b90576040830160018151613a7481610cc0565b613a7d81610cc0565b1480613ba4575b15613b49575090613ab161191c8460c0613aa860209660e0613b0b99015190612241565b91015190612290565b905b613ac86104d06004546001600160a01b031690565b906040518095819482937fd3c76d660000000000000000000000000000000000000000000000000000000084526004840160209093929193604081019481520152565b03915afa908115610593575f91613b20575090565b6103b5915060203d602011613b42575b613b3a81836102c1565b8101906139d2565b503d613b30565b60029092919251613b5981610cc0565b613b6281610cc0565b1480613b97575b15613b9057613b8a61191c8460c0613aa860209660e0613b0b990151612241565b90613ab3565b5050505f90565b5060e08301518210613b69565b5060e08401518211613a84565b508015613a5f565b6002915051613bc781610cdc565b613bd081610cdc565b14155f613a57565b613bed9193503d805f833e610ec181836102c1565b915f613a33565b91908260809103126100155781519160208101519160606040830151613c1981611772565b9201516103b581611772565b9060e46080925f6001600160a01b0381541660405196879586947ff26a3e1d000000000000000000000000000000000000000000000000000000008652600486015260016024860152604485015282606485015282608485015260a4840152600160c48401525af18015610593575f925f935f935f93613ca7575b5093929190565b9250509250613cce915060803d608011613cd8575b613cc681836102c1565b810190613bf4565b919390925f613ca0565b503d613cbc565b60e4905f608094956001600160a01b038254169060405197889687957ff26a3e1d00000000000000000000000000000000000000000000000000000000875260048701528460248701526044860152606485015282608485015260a48401528160c48401525af18015610593575f925f935f935f93613ca7575093929190565b600460206001600160a01b0360025416604051928380927fc3710f250000000000000000000000000000000000000000000000000000000082525afa908115610593575f91613dac575090565b6103b5915060203d6020116113ba576113ab81836102c1565b9892956001600160a01b0395613e129892957f52e38618358c614d6c859d2d6481831837d95cf94ee1be20b2243cbb5f69addc9a9498886040519b8c9b6101a08d526101a08d01906103b8565b9d1660208b015260408a0152613e2781610cc0565b6060890152613e3a608089016005611057565b60a088015260c087015260e08601525f6101008601526101208501526101408401525f196101608401524261018084015216930390a2565b9a94956001600160a01b039791967f52e38618358c614d6c859d2d6481831837d95cf94ee1be20b2243cbb5f69addc9b939a956101a09a958a613ebf6040519e8f9e8f81815201906103b8565b9f1660208d015260408c0152613ed481610cc0565b60608b0152613ee760808b016003611057565b60a08a015260c089015260e08801526101008701526101208601526101408501526101608401524261018084015216930390a2565b9892956001600160a01b0395613f699892957f52e38618358c614d6c859d2d6481831837d95cf94ee1be20b2243cbb5f69addc9a9498886040519b8c9b6101a08d526101a08d01906103b8565b9d1660208b015260408a0152613f7e81610cc0565b6060890152613e3a608089016004611057565b5f60206001600160a01b03600254166004604051809481937fb99ac9270000000000000000000000000000000000000000000000000000000083525af1908115610593575f91613dac575090565b94919261018096937f85a6bfd765950245f4f456c74db06ee8bad5a7ea04b80581aa7563d196421f669895926001600160a01b03604051981688526020880152604087015260036060870152608086015260a08501525f60c085015260e08401526101008301526101208201525f61014082015242610160820152a1565b95927f85a6bfd765950245f4f456c74db06ee8bad5a7ea04b80581aa7563d196421f669895926101809895926001600160a01b03604051991689526020890152604088015260036060880152608087015260a08601525f60c086015260e085015261010084015261012083015261014082015242610160820152a1565b604051906140e78261026a565b5f60e0838281528260208201528260408201528260608201528260808201528260a08201528260c08201520152565b1561411d57565b606460405162461bcd60e51b815260206004820152601b60248201527f616d6f756e74206973206772656174207468656e20667265657a6500000000006044820152fd5b1561416857565b606460405162461bcd60e51b815260206004820152601360248201527f636c6f736520616d6f756e7420657863656564000000000000000000000000006044820152fd5b9195929390956141ba612752565b9661426e6141c6612abf565b976141d081610cc0565b6141e46141dc82612ae9565b85858961493b565b9992905060208c929c019b606083019a8b528c5281526142026140da565b5061010060208d61421489898d61480c565b91829101526142256104d089614882565b898d604051988994859384937f32a84502000000000000000000000000000000000000000000000000000000008552600485016040919493926060820195825260208201520152565b03915afa908115610593576142dd998c6142c7948f6040806142bf976142d79b5f91614343575b50015191015215614330576142b9916142b19151905190612241565b8c1115614161565b5161226c565b8a51906122a3565b8a526142d281610cc0565b612ae9565b93613627565b9290606085019260808601948552818452825181106142ff575b505050505090565b6143249361431b6143138361245595612290565b8551906122a3565b90528451612290565b90525f808080806142f7565b5061433e90518c1115614116565b6142b9565b61435c91506101003d81116109cb576109ba81836102c1565b5f614295565b916001600160a01b035f9381956143c2836002541694604051988997889687967fec4082910000000000000000000000000000000000000000000000000000000088521660048701521660248501526080604485015260848401906103b8565b906143cc81610cc0565b606483015203915afa908115610593575f916143e6575090565b90503d805f833e6143f781836102c1565b8101906020818303126100155780519067ffffffffffffffff821161001557019080601f8301121561001557815161442e81610315565b9261443c60405194856102c1565b81845260208085019260051b82010192831161001557602001905b8282106144645750505090565b8151815260209182019101614457565b908160c0910312610015576040519060c082019082821067ffffffffffffffff8311176102495760a0916040528051835260208101516020840152604081015160408401526060810151606084015260808101516080840152015160a082015290565b90816060910312610015578051916040602083015192015190565b93909796959260c0959260e08601998652602086015261451181610cc0565b60408501526060840152608083015260a08201520152565b9493929091926145446104d06002546001600160a01b031690565b90604051966320bf56eb60e21b88525f888061456884600483019190602083019252565b0381865afa978815610593575f98614724575b50606088016001815161458d81610cdc565b61459681610cdc565b14159081614705575b506146f3575f90600460c06145ba6104d060a08d0151614882565b604051928380927f639122c90000000000000000000000000000000000000000000000000000000082525afa928315610593576060975f9461465f9386916146c4575b50519060c08d0151908181101587146146ba57509b8c965b156146b2575b604001519761462989610cc0565b6040519a8b998a9889977f17900de0000000000000000000000000000000000000000000000000000000008952600489016144f2565b03925af1928315610593575f935f925f9161467b575b50919392565b919450506146a1915060603d6060116146ab575b61469981836102c1565b8101906144d7565b919390915f614675565b503d61468f565b86925061461b565b90509b8c96614615565b6146e6915060c03d60c0116146ec575b6146de81836102c1565b810190614474565b5f6145fd565b503d6146d4565b50505050505090505f905f905f905f90565b600291505161471381610cdc565b61471c81610cdc565b14155f61459f565b6147399198503d805f833e610ec181836102c1565b965f61457b565b6001600160a01b03604460a092614755612752565b5082600154168360405196879586947fccf1a4b20000000000000000000000000000000000000000000000000000000086521660048501521660248301525afa908115610593575f916147a6575090565b905060a0813d60a011614804575b816147c160a093836102c1565b81010312610015576080604051916147d88361024e565b805183526020810151602084015260408101516040840152606081015160608401520151608082015290565b3d91506147b4565b906001600160a01b03928360209361486d826001541693604051978896879586957f702c2b740000000000000000000000000000000000000000000000000000000087521660048601521660248401526060604484015260648301906103b8565b03915afa908115610593575f91613dac575090565b60206148cf916001600160a01b036001541660405180809581947f05ca57cf00000000000000000000000000000000000000000000000000000000835286600484015260248301906103b8565b03915afa908115610593575f916148e4575090565b90506020813d602011614911575b816148ff602093836102c1565b8101031261001557516103b581610598565b3d91506148f2565b9190826080910312610015578151916020810151916060604083015192015190565b916001600160a01b03608093819560ff61499d846002541695604051998a98899788977f3a0204a900000000000000000000000000000000000000000000000000000000895216600488015216602486015288604486015260848501906103b8565b9116606483015203915afa8015610593575f925f935f935f936149c1575093929190565b9250509250613cce915060803d6080116149e8575b6149e081836102c1565b810190614919565b503d6149d6565b909180614a3e577feb42cf637f927243245c50b4bf7fe105fe4f4d26209102240f2ba3d8e27a7df860606001600160a01b03805f966040519560048752602087015242604087015216941692a4565b505050565b909180614a3e577feb42cf637f927243245c50b4bf7fe105fe4f4d26209102240f2ba3d8e27a7df860606001600160a01b03805f966040519560058752602087015242604087015216941692a4565b6001600160a01b037f9016d09d72d40fdae2fd8ceac6b6234c7706214fd39c1cd1e609a0528c19930054163303614ac557565b7f118cdaa7000000000000000000000000000000000000000000000000000000005f523360045260245ffd5b600460206001600160a01b0360015416604051928380927f89f00b6d0000000000000000000000000000000000000000000000000000000082525afa908115610593575f91613dac575090565b90916001600160a01b0360015416803b15610015575f928360e492614bcf6001600160a01b039586604051998a9889977fe448cc41000000000000000000000000000000000000000000000000000000008952166004880152166024860152604485019060808091805184526020810151602085015260408101516040850152606081015160608501520151910152565b5af1801561059357614bde5750565b5f6102f4916102c1565b60ff7ff0c57e16840df040f15088dc2f81fe391c3923bec73e23a9662efc9c229c6a005460401c1615614c1757565b7fd7e6bcf8000000000000000000000000000000000000000000000000000000005f5260045ffdfea26469706673582212204494caa474b44acb16c3b5543f680ccb5fd159ef5366c68a7cd8348b6c6483a164736f6c634300081c0033",
  "linkReferences": {},
  "deployedLinkReferences": {}
}