{
  "_format": "hh-sol-artifact-1",
  "contractName": "TradeAgent",
  "sourceName": "contracts/TradeAgent.sol",
  "abi": [
    {
      "inputs": [],
      "name": "InvalidInitialization",
      "type": "error"
    },
    {
      "inputs": [],
      "name": "NotInitializing",
      "type": "error"
    },
    {
      "inputs": [
        {
          "internalType": "address",
          "name": "owner",
          "type": "address"
        }
      ],
      "name": "OwnableInvalidOwner",
      "type": "error"
    },
    {
      "inputs": [
        {
          "internalType": "address",
          "name": "account",
          "type": "address"
        }
      ],
      "name": "OwnableUnauthorizedAccount",
      "type": "error"
    },
    {
      "anonymous": false,
      "inputs": [
        {
          "indexed": false,
          "internalType": "address",
          "name": "token",
          "type": "address"
        },
        {
          "indexed": false,
          "internalType": "address",
          "name": "holder",
          "type": "address"
        },
        {
          "indexed": false,
          "internalType": "string",
          "name": "name",
          "type": "string"
        },
        {
          "indexed": false,
          "internalType": "enum ICommon.Direct",
          "name": "direct",
          "type": "uint8"
        },
        {
          "indexed": false,
          "internalType": "uint256",
          "name": "value",
          "type": "uint256"
        },
        {
          "indexed": false,
          "internalType": "uint256",
          "name": "size",
          "type": "uint256"
        },
        {
          "indexed": false,
          "internalType": "uint256",
          "name": "margin",
          "type": "uint256"
        },
        {
          "indexed": false,
          "internalType": "uint256",
          "name": "freeze",
          "type": "uint256"
        }
      ],
      "name": "AccountPosition",
      "type": "event"
    },
    {
      "anonymous": false,
      "inputs": [
        {
          "indexed": false,
          "internalType": "address",
          "name": "token",
          "type": "address"
        },
        {
          "indexed": false,
          "internalType": "address",
          "name": "taker",
          "type": "address"
        },
        {
          "indexed": false,
          "internalType": "uint256",
          "name": "amount",
          "type": "uint256"
        },
        {
          "indexed": false,
          "internalType": "uint256",
          "name": "availableAmount",
          "type": "uint256"
        },
        {
          "indexed": false,
          "internalType": "uint256",
          "name": "marginAmount",
          "type": "uint256"
        },
        {
          "indexed": false,
          "internalType": "uint256",
          "name": "locked",
          "type": "uint256"
        },
        {
          "indexed": false,
          "internalType": "uint256",
          "name": "stage",
          "type": "uint256"
        },
        {
          "indexed": false,
          "internalType": "uint256",
          "name": "dif",
          "type": "uint256"
        }
      ],
      "name": "BalanceOfTaker",
      "type": "event"
    },
    {
      "anonymous": false,
      "inputs": [
        {
          "indexed": false,
          "internalType": "string",
          "name": "name",
          "type": "string"
        },
        {
          "indexed": true,
          "internalType": "address",
          "name": "taker",
          "type": "address"
        },
        {
          "indexed": true,
          "internalType": "address",
          "name": "token",
          "type": "address"
        },
        {
          "indexed": false,
          "internalType": "uint256",
          "name": "orderID",
          "type": "uint256"
        },
        {
          "indexed": false,
          "internalType": "enum ICommon.Direct",
          "name": "orderType",
          "type": "uint8"
        },
        {
          "indexed": false,
          "internalType": "enum IPerpetual.OrderState",
          "name": "state",
          "type": "uint8"
        },
        {
          "indexed": false,
          "internalType": "enum ICommon.Offset",
          "name": "offset",
          "type": "uint8"
        },
        {
          "indexed": false,
          "internalType": "uint256",
          "name": "amount",
          "type": "uint256"
        },
        {
          "indexed": false,
          "internalType": "uint256",
          "name": "targetPrice",
          "type": "uint256"
        },
        {
          "indexed": false,
          "internalType": "uint256",
          "name": "margin",
          "type": "uint256"
        },
        {
          "indexed": false,
          "internalType": "uint256",
          "name": "rewardGas",
          "type": "uint256"
        },
        {
          "indexed": false,
          "internalType": "uint256",
          "name": "tradingFee",
          "type": "uint256"
        },
        {
          "indexed": false,
          "internalType": "uint256",
          "name": "startTime",
          "type": "uint256"
        },
        {
          "indexed": false,
          "internalType": "uint256",
          "name": "goodTill",
          "type": "uint256"
        }
      ],
      "name": "CreateLimitedOrder",
      "type": "event"
    },
    {
      "anonymous": false,
      "inputs": [
        {
          "indexed": false,
          "internalType": "uint256",
          "name": "limitOrderID",
          "type": "uint256"
        },
        {
          "indexed": false,
          "internalType": "uint256",
          "name": "openLimitPrice",
          "type": "uint256"
        },
        {
          "indexed": false,
          "internalType": "uint256",
          "name": "gainTriggerPrice",
          "type": "uint256"
        },
        {
          "indexed": false,
          "internalType": "uint256",
          "name": "gainLimitPrice",
          "type": "uint256"
        },
        {
          "indexed": false,
          "internalType": "uint256",
          "name": "lossTriggerPrice",
          "type": "uint256"
        },
        {
          "indexed": false,
          "internalType": "uint256",
          "name": "lossLimitPrice",
          "type": "uint256"
        }
      ],
      "name": "CreateTriggerCondition",
      "type": "event"
    },
    {
      "anonymous": false,
      "inputs": [
        {
          "indexed": false,
          "internalType": "uint256",
          "name": "code",
          "type": "uint256"
        },
        {
          "indexed": false,
          "internalType": "uint256",
          "name": "orderID",
          "type": "uint256"
        },
        {
          "indexed": false,
          "internalType": "string",
          "name": "message",
          "type": "string"
        }
      ],
      "name": "ErrorInfo",
      "type": "event"
    },
    {
      "anonymous": false,
      "inputs": [
        {
          "indexed": false,
          "internalType": "uint256",
          "name": "code",
          "type": "uint256"
        },
        {
          "indexed": false,
          "internalType": "uint256",
          "name": "orderID",
          "type": "uint256"
        },
        {
          "indexed": false,
          "internalType": "bytes",
          "name": "message",
          "type": "bytes"
        }
      ],
      "name": "ExceptErrorInfo",
      "type": "event"
    },
    {
      "anonymous": false,
      "inputs": [
        {
          "indexed": false,
          "internalType": "uint64",
          "name": "version",
          "type": "uint64"
        }
      ],
      "name": "Initialized",
      "type": "event"
    },
    {
      "anonymous": false,
      "inputs": [
        {
          "indexed": false,
          "internalType": "string",
          "name": "name",
          "type": "string"
        },
        {
          "indexed": true,
          "internalType": "address",
          "name": "taker",
          "type": "address"
        },
        {
          "indexed": true,
          "internalType": "address",
          "name": "token",
          "type": "address"
        },
        {
          "indexed": false,
          "internalType": "uint256",
          "name": "orderID",
          "type": "uint256"
        },
        {
          "indexed": false,
          "internalType": "enum ICommon.Direct",
          "name": "orderType",
          "type": "uint8"
        },
        {
          "indexed": false,
          "internalType": "enum IPerpetual.OrderState",
          "name": "state",
          "type": "uint8"
        },
        {
          "indexed": false,
          "internalType": "enum ICommon.Offset",
          "name": "offset",
          "type": "uint8"
        },
        {
          "indexed": false,
          "internalType": "uint256",
          "name": "amount",
          "type": "uint256"
        },
        {
          "indexed": false,
          "internalType": "uint256",
          "name": "targetPrice",
          "type": "uint256"
        },
        {
          "indexed": false,
          "internalType": "uint256",
          "name": "margin",
          "type": "uint256"
        },
        {
          "indexed": false,
          "internalType": "uint256",
          "name": "rewardGas",
          "type": "uint256"
        },
        {
          "indexed": false,
          "internalType": "uint256",
          "name": "tradingFee",
          "type": "uint256"
        },
        {
          "indexed": false,
          "internalType": "uint256",
          "name": "startTime",
          "type": "uint256"
        },
        {
          "indexed": false,
          "internalType": "uint256",
          "name": "goodTill",
          "type": "uint256"
        }
      ],
      "name": "LimitedOrderHistory",
      "type": "event"
    },
    {
      "anonymous": false,
      "inputs": [
        {
          "indexed": true,
          "internalType": "address",
          "name": "taker",
          "type": "address"
        },
        {
          "indexed": false,
          "internalType": "string",
          "name": "name",
          "type": "string"
        },
        {
          "indexed": false,
          "internalType": "address",
          "name": "token",
          "type": "address"
        },
        {
          "indexed": false,
          "internalType": "uint256",
          "name": "orderID",
          "type": "uint256"
        },
        {
          "indexed": false,
          "internalType": "enum ICommon.Direct",
          "name": "direction",
          "type": "uint8"
        },
        {
          "indexed": false,
          "internalType": "enum IPerpetual.OrderType",
          "name": "orderType",
          "type": "uint8"
        },
        {
          "indexed": false,
          "internalType": "uint256",
          "name": "amount",
          "type": "uint256"
        },
        {
          "indexed": false,
          "internalType": "uint256",
          "name": "costPrice",
          "type": "uint256"
        },
        {
          "indexed": false,
          "internalType": "uint256",
          "name": "price",
          "type": "uint256"
        },
        {
          "indexed": false,
          "internalType": "uint256",
          "name": "tradingFee",
          "type": "uint256"
        },
        {
          "indexed": false,
          "internalType": "uint256",
          "name": "leverage",
          "type": "uint256"
        },
        {
          "indexed": false,
          "internalType": "uint256",
          "name": "marginAmount",
          "type": "uint256"
        },
        {
          "indexed": false,
          "internalType": "uint256",
          "name": "limitOrderId",
          "type": "uint256"
        },
        {
          "indexed": false,
          "internalType": "uint256",
          "name": "timestamp",
          "type": "uint256"
        }
      ],
      "name": "OrderHistory",
      "type": "event"
    },
    {
      "anonymous": false,
      "inputs": [
        {
          "indexed": true,
          "internalType": "address",
          "name": "previousOwner",
          "type": "address"
        },
        {
          "indexed": true,
          "internalType": "address",
          "name": "newOwner",
          "type": "address"
        }
      ],
      "name": "OwnershipTransferred",
      "type": "event"
    },
    {
      "anonymous": false,
      "inputs": [
        {
          "indexed": false,
          "internalType": "address",
          "name": "token",
          "type": "address"
        },
        {
          "indexed": false,
          "internalType": "uint256",
          "name": "orderID",
          "type": "uint256"
        },
        {
          "indexed": false,
          "internalType": "uint256",
          "name": "dealID",
          "type": "uint256"
        },
        {
          "indexed": false,
          "internalType": "enum IPerpetual.TradeType",
          "name": "tradeType",
          "type": "uint8"
        },
        {
          "indexed": false,
          "internalType": "uint256",
          "name": "amount",
          "type": "uint256"
        },
        {
          "indexed": false,
          "internalType": "uint256",
          "name": "price",
          "type": "uint256"
        },
        {
          "indexed": false,
          "internalType": "uint256",
          "name": "tradingFee",
          "type": "uint256"
        },
        {
          "indexed": false,
          "internalType": "uint256",
          "name": "leverage",
          "type": "uint256"
        },
        {
          "indexed": false,
          "internalType": "uint256",
          "name": "marginAmount",
          "type": "uint256"
        },
        {
          "indexed": false,
          "internalType": "uint256",
          "name": "profit",
          "type": "uint256"
        },
        {
          "indexed": false,
          "internalType": "uint256",
          "name": "loss",
          "type": "uint256"
        },
        {
          "indexed": false,
          "internalType": "uint256",
          "name": "timestamp",
          "type": "uint256"
        }
      ],
      "name": "TradeHistory",
      "type": "event"
    },
    {
      "anonymous": false,
      "inputs": [
        {
          "indexed": true,
          "internalType": "address",
          "name": "token",
          "type": "address"
        },
        {
          "indexed": true,
          "internalType": "address",
          "name": "sender",
          "type": "address"
        },
        {
          "indexed": true,
          "internalType": "address",
          "name": "received",
          "type": "address"
        },
        {
          "indexed": false,
          "internalType": "enum ICommon.TransactionType",
          "name": "transactionType",
          "type": "uint8"
        },
        {
          "indexed": false,
          "internalType": "uint256",
          "name": "amount",
          "type": "uint256"
        },
        {
          "indexed": false,
          "internalType": "uint256",
          "name": "timestamp",
          "type": "uint256"
        }
      ],
      "name": "TransactionHistory",
      "type": "event"
    },
    {
      "anonymous": false,
      "inputs": [
        {
          "indexed": false,
          "internalType": "address",
          "name": "token",
          "type": "address"
        },
        {
          "indexed": false,
          "internalType": "address",
          "name": "sender",
          "type": "address"
        },
        {
          "indexed": false,
          "internalType": "string",
          "name": "name",
          "type": "string"
        },
        {
          "indexed": false,
          "internalType": "uint256",
          "name": "beforeLeverage",
          "type": "uint256"
        },
        {
          "indexed": false,
          "internalType": "uint256",
          "name": "afterLeverage",
          "type": "uint256"
        }
      ],
      "name": "setLeverage",
      "type": "event"
    },
    {
      "stateMutability": "nonpayable",
      "type": "fallback"
    },
    {
      "inputs": [
        {
          "internalType": "enum ICommon.Direct",
          "name": "_type",
          "type": "uint8"
        },
        {
          "internalType": "uint256",
          "name": "_currentPrice",
          "type": "uint256"
        },
        {
          "internalType": "uint256",
          "name": "_dealPrice",
          "type": "uint256"
        },
        {
          "internalType": "uint256",
          "name": "_amount",
          "type": "uint256"
        },
        {
          "internalType": "uint256",
          "name": "_willClose",
          "type": "uint256"
        }
      ],
      "name": "calDealPNL",
      "outputs": [
        {
          "internalType": "uint256",
          "name": "profit",
          "type": "uint256"
        },
        {
          "internalType": "uint256",
          "name": "loss",
          "type": "uint256"
        }
      ],
      "stateMutability": "pure",
      "type": "function"
    },
    {
      "inputs": [
        {
          "internalType": "uint256",
          "name": "_orderID",
          "type": "uint256"
        },
        {
          "internalType": "address",
          "name": "_taker",
          "type": "address"
        },
        {
          "internalType": "bool",
          "name": "_status",
          "type": "bool"
        }
      ],
      "name": "cancelOrder",
      "outputs": [],
      "stateMutability": "nonpayable",
      "type": "function"
    },
    {
      "inputs": [
        {
          "internalType": "uint256",
          "name": "_oID",
          "type": "uint256"
        },
        {
          "internalType": "uint256",
          "name": "_price",
          "type": "uint256"
        }
      ],
      "name": "checkLimitOrder",
      "outputs": [
        {
          "internalType": "bool",
          "name": "success",
          "type": "bool"
        }
      ],
      "stateMutability": "view",
      "type": "function"
    },
    {
      "inputs": [
        {
          "internalType": "uint256[]",
          "name": "_orders",
          "type": "uint256[]"
        },
        {
          "internalType": "uint256[]",
          "name": "_prices",
          "type": "uint256[]"
        }
      ],
      "name": "checkLimitOrders",
      "outputs": [
        {
          "internalType": "bool[]",
          "name": "result",
          "type": "bool[]"
        }
      ],
      "stateMutability": "view",
      "type": "function"
    },
    {
      "inputs": [
        {
          "internalType": "uint256[]",
          "name": "_deal",
          "type": "uint256[]"
        },
        {
          "internalType": "uint256[]",
          "name": "_price",
          "type": "uint256[]"
        }
      ],
      "name": "checkMakerDealsRiskStatus",
      "outputs": [
        {
          "internalType": "bool[]",
          "name": "riskStatus",
          "type": "bool[]"
        }
      ],
      "stateMutability": "view",
      "type": "function"
    },
    {
      "inputs": [
        {
          "internalType": "address",
          "name": "_token",
          "type": "address"
        },
        {
          "internalType": "address",
          "name": "_taker",
          "type": "address"
        },
        {
          "internalType": "string[]",
          "name": "_symbols",
          "type": "string[]"
        },
        {
          "internalType": "uint256[]",
          "name": "_prices",
          "type": "uint256[]"
        }
      ],
      "name": "checkTakerRiskStatus",
      "outputs": [
        {
          "internalType": "bool",
          "name": "isRisk",
          "type": "bool"
        },
        {
          "internalType": "uint256",
          "name": "netLoss",
          "type": "uint256"
        },
        {
          "internalType": "uint256",
          "name": "overLoss",
          "type": "uint256"
        },
        {
          "internalType": "uint256",
          "name": "loss",
          "type": "uint256"
        }
      ],
      "stateMutability": "view",
      "type": "function"
    },
    {
      "inputs": [
        {
          "internalType": "address[]",
          "name": "_tokens",
          "type": "address[]"
        },
        {
          "internalType": "address[]",
          "name": "_takers",
          "type": "address[]"
        },
        {
          "internalType": "string[]",
          "name": "_symbols",
          "type": "string[]"
        },
        {
          "internalType": "uint256[]",
          "name": "_prices",
          "type": "uint256[]"
        }
      ],
      "name": "checkTakersRiskStatus",
      "outputs": [
        {
          "internalType": "bool[]",
          "name": "riskStatus",
          "type": "bool[]"
        }
      ],
      "stateMutability": "view",
      "type": "function"
    },
    {
      "inputs": [
        {
          "internalType": "address",
          "name": "_token",
          "type": "address"
        },
        {
          "internalType": "address",
          "name": "_taker",
          "type": "address"
        },
        {
          "internalType": "string",
          "name": "_pair",
          "type": "string"
        },
        {
          "internalType": "enum ICommon.Direct",
          "name": "_type",
          "type": "uint8"
        },
        {
          "internalType": "uint256",
          "name": "_currentPrice",
          "type": "uint256"
        },
        {
          "internalType": "uint256",
          "name": "_deposit",
          "type": "uint256"
        }
      ],
      "name": "clearingTakerPosition",
      "outputs": [
        {
          "internalType": "uint256",
          "name": "remainingDeposit",
          "type": "uint256"
        },
        {
          "internalType": "bool",
          "name": "clear",
          "type": "bool"
        }
      ],
      "stateMutability": "nonpayable",
      "type": "function"
    },
    {
      "inputs": [
        {
          "internalType": "address",
          "name": "_token",
          "type": "address"
        },
        {
          "internalType": "address",
          "name": "_taker",
          "type": "address"
        },
        {
          "internalType": "uint256",
          "name": "_dealID",
          "type": "uint256"
        },
        {
          "internalType": "uint256",
          "name": "_amount",
          "type": "uint256"
        },
        {
          "internalType": "enum IPerpetual.TradeType",
          "name": "_tradeType",
          "type": "uint8"
        },
        {
          "internalType": "uint256",
          "name": "_currentPrice",
          "type": "uint256"
        },
        {
          "internalType": "uint256",
          "name": "_leverage",
          "type": "uint256"
        },
        {
          "internalType": "uint256",
          "name": "_margin",
          "type": "uint256"
        },
        {
          "internalType": "uint256",
          "name": "_tradeFeeRate",
          "type": "uint256"
        },
        {
          "internalType": "uint256",
          "name": "_profit",
          "type": "uint256"
        },
        {
          "internalType": "uint256",
          "name": "_loss",
          "type": "uint256"
        }
      ],
      "name": "closeDealEvent",
      "outputs": [],
      "stateMutability": "nonpayable",
      "type": "function"
    },
    {
      "inputs": [
        {
          "internalType": "address",
          "name": "_token",
          "type": "address"
        },
        {
          "internalType": "address",
          "name": "_taker",
          "type": "address"
        },
        {
          "internalType": "string",
          "name": "_name",
          "type": "string"
        },
        {
          "internalType": "uint256",
          "name": "_amount",
          "type": "uint256"
        },
        {
          "internalType": "uint256",
          "name": "_currentPrice",
          "type": "uint256"
        },
        {
          "internalType": "enum ICommon.Direct",
          "name": "_type",
          "type": "uint8"
        },
        {
          "internalType": "uint256",
          "name": "_limitID",
          "type": "uint256"
        }
      ],
      "name": "closeOrder",
      "outputs": [
        {
          "components": [
            {
              "internalType": "uint256",
              "name": "costPrice",
              "type": "uint256"
            },
            {
              "internalType": "uint256",
              "name": "totalMargin",
              "type": "uint256"
            },
            {
              "internalType": "uint256",
              "name": "tradingFee",
              "type": "uint256"
            },
            {
              "internalType": "uint256",
              "name": "gain",
              "type": "uint256"
            },
            {
              "internalType": "uint256",
              "name": "loss",
              "type": "uint256"
            }
          ],
          "internalType": "struct ICommon.CloseOrderResult",
          "name": "bulk",
          "type": "tuple"
        }
      ],
      "stateMutability": "nonpayable",
      "type": "function"
    },
    {
      "inputs": [
        {
          "internalType": "address",
          "name": "_token",
          "type": "address"
        },
        {
          "internalType": "address",
          "name": "_user",
          "type": "address"
        },
        {
          "internalType": "string",
          "name": "_name",
          "type": "string"
        },
        {
          "internalType": "uint256",
          "name": "_price",
          "type": "uint256"
        }
      ],
      "name": "getMaxOpenAmount",
      "outputs": [
        {
          "internalType": "uint256",
          "name": "amount",
          "type": "uint256"
        }
      ],
      "stateMutability": "view",
      "type": "function"
    },
    {
      "inputs": [
        {
          "internalType": "address",
          "name": "_token",
          "type": "address"
        },
        {
          "internalType": "address",
          "name": "_user",
          "type": "address"
        },
        {
          "internalType": "string[]",
          "name": "_symbols",
          "type": "string[]"
        },
        {
          "internalType": "uint256[]",
          "name": "_prices",
          "type": "uint256[]"
        }
      ],
      "name": "getMaxWithdrawableAmount",
      "outputs": [
        {
          "internalType": "uint256",
          "name": "_amount",
          "type": "uint256"
        }
      ],
      "stateMutability": "view",
      "type": "function"
    },
    {
      "inputs": [
        {
          "internalType": "address",
          "name": "_token",
          "type": "address"
        },
        {
          "internalType": "address",
          "name": "_user",
          "type": "address"
        },
        {
          "internalType": "string[]",
          "name": "_symbols",
          "type": "string[]"
        },
        {
          "internalType": "uint256[]",
          "name": "_prices",
          "type": "uint256[]"
        }
      ],
      "name": "getPNL",
      "outputs": [
        {
          "internalType": "bool",
          "name": "flag",
          "type": "bool"
        },
        {
          "internalType": "uint256",
          "name": "amount",
          "type": "uint256"
        }
      ],
      "stateMutability": "view",
      "type": "function"
    },
    {
      "inputs": [
        {
          "internalType": "address",
          "name": "_token",
          "type": "address"
        },
        {
          "internalType": "address",
          "name": "_taker",
          "type": "address"
        },
        {
          "internalType": "string",
          "name": "_name",
          "type": "string"
        },
        {
          "internalType": "uint256",
          "name": "_price",
          "type": "uint256"
        },
        {
          "internalType": "uint8",
          "name": "_direction",
          "type": "uint8"
        }
      ],
      "name": "getPNLByCertainPosition",
      "outputs": [
        {
          "internalType": "uint256",
          "name": "profit",
          "type": "uint256"
        },
        {
          "internalType": "uint256",
          "name": "loss",
          "type": "uint256"
        }
      ],
      "stateMutability": "view",
      "type": "function"
    },
    {
      "inputs": [
        {
          "internalType": "address",
          "name": "_token",
          "type": "address"
        },
        {
          "internalType": "address",
          "name": "_taker",
          "type": "address"
        },
        {
          "internalType": "string[]",
          "name": "_symbols",
          "type": "string[]"
        },
        {
          "internalType": "uint256[]",
          "name": "_prices",
          "type": "uint256[]"
        }
      ],
      "name": "getPNLByPosition",
      "outputs": [
        {
          "internalType": "uint256",
          "name": "totalProfit",
          "type": "uint256"
        },
        {
          "internalType": "uint256",
          "name": "totalLoss",
          "type": "uint256"
        }
      ],
      "stateMutability": "view",
      "type": "function"
    },
    {
      "inputs": [
        {
          "internalType": "address",
          "name": "_priPool",
          "type": "address"
        },
        {
          "internalType": "address",
          "name": "_perpetual",
          "type": "address"
        }
      ],
      "name": "initialize",
      "outputs": [],
      "stateMutability": "nonpayable",
      "type": "function"
    },
    {
      "inputs": [
        {
          "internalType": "uint256",
          "name": "_dealID",
          "type": "uint256"
        },
        {
          "internalType": "uint256",
          "name": "_price",
          "type": "uint256"
        }
      ],
      "name": "liquidateMakerDeal",
      "outputs": [
        {
          "internalType": "bool",
          "name": "isLiquidated",
          "type": "bool"
        },
        {
          "internalType": "bool",
          "name": "isAgreement",
          "type": "bool"
        },
        {
          "internalType": "uint256",
          "name": "userProfit",
          "type": "uint256"
        }
      ],
      "stateMutability": "nonpayable",
      "type": "function"
    },
    {
      "inputs": [
        {
          "internalType": "uint256[]",
          "name": "_dealIDs",
          "type": "uint256[]"
        },
        {
          "internalType": "string[]",
          "name": "_symbols",
          "type": "string[]"
        },
        {
          "internalType": "uint256[]",
          "name": "_prices",
          "type": "uint256[]"
        }
      ],
      "name": "liquidateMakerDeals",
      "outputs": [],
      "stateMutability": "nonpayable",
      "type": "function"
    },
    {
      "inputs": [],
      "name": "owner",
      "outputs": [
        {
          "internalType": "address",
          "name": "",
          "type": "address"
        }
      ],
      "stateMutability": "view",
      "type": "function"
    },
    {
      "inputs": [],
      "name": "renounceOwnership",
      "outputs": [],
      "stateMutability": "nonpayable",
      "type": "function"
    },
    {
      "inputs": [
        {
          "internalType": "address",
          "name": "_orderBook",
          "type": "address"
        },
        {
          "internalType": "address",
          "name": "_station",
          "type": "address"
        },
        {
          "internalType": "address",
          "name": "_poolAgent",
          "type": "address"
        },
        {
          "internalType": "address",
          "name": "keeper",
          "type": "address"
        }
      ],
      "name": "setKeepers",
      "outputs": [],
      "stateMutability": "nonpayable",
      "type": "function"
    },
    {
      "inputs": [
        {
          "internalType": "address",
          "name": "newOwner",
          "type": "address"
        }
      ],
      "name": "transferOwnership",
      "outputs": [],
      "stateMutability": "nonpayable",
      "type": "function"
    }
  ],
  "bytecode": "0x60808060405234601557613c4c908161001a8239f35b5f80fdfe60806040526004361015610019575b3461001557005b5f80fd5b5f3560e01c8063016f4dcb146117c95780630414065b146116ab57806307e71485146111895780633ca1451a14611063578063485cc95514610dae5780635094235514610d26578063642bcd1814610cbc578063715018a614610c1857806381a4f17314610afe5780638da5cb5b14610ab9578063c1d159d2146109dc578063c2b33564146108ba578063ca6ec37214610782578063d15a1b4114610758578063d719606a14610722578063e6b34c69146106ff578063ea270eb21461069f578063eb4f2e36146102e4578063f10f4fa0146102bc578063f1257f84146101a7578063f2fde38b1461017c5763f69ef33b0361000e57346100155761011d36611adf565b81519061012982612157565b925f5b83811061014557604051806101418782611aa4565b0390f35b8061016761015560019385612188565b516101608387612188565b5190612ff0565b6101718288612188565b90151590520161012c565b34610015576020600319360112610015576101a56101986118cc565b6101a0613a69565b612f28565b005b3461001557610160600319360112610015576101c16118cc565b6101c96118e2565b9060643591608435916005831015610015576102b76101a5947f85a6bfd765950245f4f456c74db06ee8bad5a7ea04b80581aa7563d196421f6661018060a4359661012435936101443598335f52600560205261022c60ff60405f205416611ba2565b670de0b6b3a76400008061024c836102478661010435611d60565b611d60565b0404916102576132aa565b93604051946001600160a01b038b168652602086015260443560408601526060850152608084015260a083015260c082015260c43560e082015260e435610100820152836101208201528761014082015242610160820152a183836139c6565b613a1a565b346100155760406102d86102cf36611b2e565b92919091612ea2565b82519182526020820152f35b346100155760606003193601126100155760043567ffffffffffffffff811161001557610315903690600401611a47565b60243567ffffffffffffffff8111610015576103359036906004016119c8565b9060443567ffffffffffffffff811161001557610356903690600401611a47565b90335f52600560205261036f60ff60405f205416611ba2565b8051915f90602085019060208101925b85811061038857005b6001600160a01b03600254169061039f8187612188565b519160405180937fdcee347500000000000000000000000000000000000000000000000000000000825260648201906004830152606060248301528a51809152608482019060848160051b8401019188915f5b81811061065457505050506003198282030160448301526020865191828152019088905f905b8082106106385750505091815f8160c09503925af1801561059e575f5f905f905f925f965f956105c1575b50816105b9575b5061045d575b505050600191500161037f565b6001600160a01b036001541694853b1561001557604051927fd3c2d8b70000000000000000000000000000000000000000000000000000000084526001600160a01b038116948560048601525f85606481836001600160a01b0388169c8d60248401528160448401525af194851561059e57610521956105a9575b506104e38383613711565b936104ef818651611d91565b85526105098261050460208801938451611d91565b611d91565b905261051a60408501918251611d53565b9052613b15565b6001600160a01b036001541692833b156100155760645f928360405196879485937fd3c2d8b700000000000000000000000000000000000000000000000000000000855260048501526024840152600a60448401525af191821561059e5760019261058e575b8080610450565b5f61059891611891565b88610587565b6040513d5f823e3d90fd5b5f6105b391611891565b8e6104d8565b90508c61044a565b9650505050505060c0823d8211610630575b816105e060c09383611891565b81010312610015576105f182612e70565b916105fe60208201612e70565b9060408101519161061160608301611bed565b9060a061062060808501611bed565b930151959093919295938d610443565b3d91506105d3565b9193509160208060019286518152019401920186939291610418565b9193602061068f827fffffffffffffffffffffffffffffffffffffffffffffffffffffffffffffff7c60019597998495030188528851612e7d565b96019401910191879493926103f2565b346100155760a0600319360112610015576106b86118cc565b6106c06118e2565b60443567ffffffffffffffff8111610015576106e0903690600401611982565b916084359060ff82168203610015576040936102d89360643592612dcd565b3461001557602061071861071236611811565b906129c9565b6040519015158152f35b3461001557608061073e61073536611b2e565b92919091612924565b916040519315158452602084015260408301526060820152f35b3461001557604061077461076b36611b2e565b929190916128f4565b825191151582526020820152f35b346100155760a06003193601126100155760043560038110156100155760243560443591606435906001608435916107b981611d49565b036108895783831061086257670de0b6b3a7640000936107e9836107e46107ef946107f59796611d60565b611d73565b92611d53565b90611d60565b045f905b8015801561085a575b156108165760409182519182526020820152f35b606460405162461bcd60e51b815260206004820152600960248201527f504e4c206572726f7200000000000000000000000000000000000000000000006044820152fd5b508115610802565b926107ef670de0b6b3a7640000936107e9610882946107e45f9882611d60565b04906107f9565b91929182841161086257670de0b6b3a7640000936107e9836107e46107ef946108b29796611d60565b045f906107f9565b34610015576060600319360112610015576108d36118e2565b604435908115158092036100155760405f9233845260056020526108fc60ff8386205416611ba2565b60646001600160a01b036002541691835195869384927fc2b3356400000000000000000000000000000000000000000000000000000000845260043560048501526001600160a01b038816602485015260448401525af190811561059e575f925f9261099a575b508161096b57005b82610979826101a595613711565b9260208401610989828251611d91565b905261051a60608501918251611d53565b925090506040823d6040116109d4575b816109b760409383611891565b810103126100155760206109ca83611bed565b9201519083610963565b3d91506109aa565b3461001557610a056109ed36611b2e565b919390916109fb8585613711565b925f955f956128f4565b9015610ab1575b50604081015192610a1b613ac8565b670de0b6b3a764000003670de0b6b3a76400008111610a9d57610a49670de0b6b3a764000091602096611d60565b04818110610a6157505082915001515b604051908152f35b9091840182610a71838351611d91565b1015610a80575b505050610a59565b610a95935090610a909151611d91565b611d53565b828080610a78565b634e487b7160e01b5f52601160045260245ffd5b925083610a0c565b34610015575f6003193601126100155760206001600160a01b037f9016d09d72d40fdae2fd8ceac6b6234c7706214fd39c1cd1e609a0528c1993005416604051908152f35b3461001557608060031936011261001557610b176118cc565b610b1f6118e2565b604435916001600160a01b038316809303610015576064356001600160a01b038116809103610015576001600160a01b03918291610b5b613a69565b5f52600560205260405f20600160ff198254161790551691825f52600560205260405f20600160ff198254161790551690815f52600560205260405f20600160ff19825416179055825f52600560205260405f20600160ff1982541617905573ffffffffffffffffffffffffffffffffffffffff19600254161760025573ffffffffffffffffffffffffffffffffffffffff19600354161760035573ffffffffffffffffffffffffffffffffffffffff1960045416176004555f80f35b34610015575f60031936011261001557610c30613a69565b5f6001600160a01b037f9016d09d72d40fdae2fd8ceac6b6234c7706214fd39c1cd1e609a0528c1993005473ffffffffffffffffffffffffffffffffffffffff1981167f9016d09d72d40fdae2fd8ceac6b6234c7706214fd39c1cd1e609a0528c19930055167f8be0079c531659141344cd1fd0a4f28419497f9722a3daafe3b4186f6b6457e08280a3005b3461001557610cca36611adf565b90610cd58151612157565b915f5b8251811015610d185780610d03610cf160019386612188565b51610cfc8386612188565b51906129c9565b610d0d8287612188565b901515905201610cd8565b604051806101418682611aa4565b346100155760c060031936011261001557610d3f6118cc565b610d476118e2565b60443567ffffffffffffffff811161001557610d67903690600401611982565b9060643592600384101561001557604093610da093335f526005602052610d9360ff875f205416611ba2565b60a435936084359361227b565b825191825215156020820152f35b3461001557604060031936011261001557610dc76118cc565b610dcf6118e2565b907ff0c57e16840df040f15088dc2f81fe391c3923bec73e23a9662efc9c229c6a00549160ff8360401c16159267ffffffffffffffff81168015908161105b575b6001149081611051575b159081611048575b50611020576001600160a01b0392818560017fffffffffffffffffffffffffffffffffffffffffffffffff0000000000000000879516177ff0c57e16840df040f15088dc2f81fe391c3923bec73e23a9662efc9c229c6a0055610fcb575b50610e89613bbf565b610e91613bbf565b610e9a33612f28565b168073ffffffffffffffffffffffffffffffffffffffff195f5416175f555f52600560205260405f20600160ff19825416179055168073ffffffffffffffffffffffffffffffffffffffff1960015416176001555f52600560205260405f20600160ff19825416179055335f52600560205260405f20600160ff19825416179055305f52600560205260405f20600160ff19825416179055610f3857005b7fffffffffffffffffffffffffffffffffffffffffffffff00ffffffffffffffff7ff0c57e16840df040f15088dc2f81fe391c3923bec73e23a9662efc9c229c6a0054167ff0c57e16840df040f15088dc2f81fe391c3923bec73e23a9662efc9c229c6a00557fc7f505b2f371ae2175ee4913f4499e1f2633a7b5936321eed1cdaeb6115181d2602060405160018152a1005b7fffffffffffffffffffffffffffffffffffffffffffffff0000000000000000001668010000000000000001177ff0c57e16840df040f15088dc2f81fe391c3923bec73e23a9662efc9c229c6a005585610e80565b7ff92ee8a9000000000000000000000000000000000000000000000000000000005f5260045ffd5b90501585610e22565b303b159150610e1a565b859150610e10565b346100155760806003193601126100155761107c6118cc565b6110846118e2565b9060443567ffffffffffffffff8111610015576001600160a01b036110ce6110c86110b6610100943690600401611982565b866110c2829888613711565b966137dd565b94613853565b16926064604051809581937f32a845020000000000000000000000000000000000000000000000000000000083526402540be40060048401528335602484015260448301525afa91821561059e575f92611155575b5060200151906402540be4008202918083046402540be4001490151715610a9d576020916060610a5992015190611d73565b602091925061117b906101003d8111611182575b6111738183611891565b8101906121da565b9190611123565b503d611169565b346100155760e0600319360112610015576111a26118cc565b6111aa6118e2565b60443567ffffffffffffffff8111610015576111ca903690600401611982565b90600360a43510156100155760c435906111e26121b0565b50335f5260056020526111fb60ff60405f205416611ba2565b6112036121b0565b9161120c61223f565b9461121860a435611d49565b61122e61122660a435612269565b8685846138f4565b9891929050602082019260608301998a52835281525f60e060405161125281611827565b8281528260208201528260408201528260608201528260808201528260a08201528260c082015201526112868786856137dd565b8060208801526101006001600160a01b036112a08a613853565b16916064604051809481937f32a8450200000000000000000000000000000000000000000000000000000000835283356004840152608435602484015260448301525afa801561059e576040915f9161168c575b50015160408701908152975f19850361163e578251905161131491611d53565b606435116115fa575b51670de0b6b3a7640000810290808204670de0b6b3a76400001490151715610a9d57815161134a91611d73565b855261135760a435611d49565b61137061136560a435612269565b608435888786612dcd565b60808793929301528160608701528051606435106115ba575b50505f905f965f60808701525f60608701526113a960a435888785613374565b60a43560011497905f5b81518110156115ab576113c760a435611d49565b8915611585576113d78183612188565b515b60643587101561145e57600181016113f5575b506001016113b3565b959a95876114058d606435611d53565b60208c0151906084359061141894613486565b611425919992939e611d91565b9761142f91611d91565b9b60808b01519061143f91611d91565b60808b015260608a01519061145391611d91565b60608a01528b6113ec565b50505092509296949550925b6114726132aa565b9086519060208801519451926001600160a01b0361149d604051966101a088526101a0880190612e7d565b9716602086015260408501526114b460a435611d49565b60a435606085015260a0987f52e38618358c614d6c859d2d6481831837d95cf94ee1be20b2243cbb5f69addc9585946001600160a01b0394600360808801526064358d88015260c087015260843560e0870152610100860152610120850152876101408501526101608401524261018084015216930390a2611534613326565b50602082015261156f604051809260808091805184526020810151602085015260408101516040850152606081015160608501520151910152565bf35b634e487b7160e01b5f52602160045260245ffd5b611590818351611d53565b5f198101908111610a9d576115a59083612188565b516113d9565b5050925092969495509261146a565b6115d56115cd6115f29360643590611d60565b825190611d73565b60608701526115ea6064356080880151611d60565b905190611d73565b508680611389565b606460405162461bcd60e51b815260206004820152601360248201527f636c6f736520616d6f756e7420657863656564000000000000000000000000006044820152fd5b51606435111561131d57606460405162461bcd60e51b815260206004820152601b60248201527f616d6f756e74206973206772656174207468656e20667265657a6500000000006044820152fd5b6116a591506101003d8111611182576111738183611891565b8a6112f4565b346100155760806003193601126100155760043567ffffffffffffffff8111610015576116dc9036906004016118f8565b60243567ffffffffffffffff8111610015576116fc9036906004016118f8565b9060443567ffffffffffffffff81116100155761171d9036906004016119c8565b60643567ffffffffffffffff81116100155761173d903690600401611a47565b9061175361174e8551855190611d60565b612157565b915f915b8451831015610d18575f5b86518110156117be5795600180976117a385856001600160a01b036117878a8d612188565b51166001600160a01b0361179b8689612188565b511690612924565b5050506117b08789612188565b901515905201909650611762565b509160010191611757565b346100155760606117fa6117dc36611811565b90335f5260056020526117f560ff60405f205416611ba2565b611d9e565b906040519215158352151560208301526040820152f35b6003196040910112610015576004359060243590565b610100810190811067ffffffffffffffff82111761184457604052565b634e487b7160e01b5f52604160045260245ffd5b6101a0810190811067ffffffffffffffff82111761184457604052565b60a0810190811067ffffffffffffffff82111761184457604052565b90601f601f19910116810190811067ffffffffffffffff82111761184457604052565b67ffffffffffffffff81116118445760051b60200190565b600435906001600160a01b038216820361001557565b602435906001600160a01b038216820361001557565b9080601f8301121561001557813590611910826118b4565b9261191e6040519485611891565b82845260208085019360051b82010191821161001557602001915b8183106119465750505090565b82356001600160a01b038116810361001557815260209283019201611939565b67ffffffffffffffff811161184457601f01601f191660200190565b81601f820112156100155780359061199982611966565b926119a76040519485611891565b8284526020838301011161001557815f926020809301838601378301015290565b9080601f830112156100155781356119df816118b4565b926119ed6040519485611891565b81845260208085019260051b820101918383116100155760208201905b838210611a1957505050505090565b813567ffffffffffffffff811161001557602091611a3c87848094880101611982565b815201910190611a0a565b9080601f83011215610015578135611a5e816118b4565b92611a6c6040519485611891565b81845260208085019260051b82010192831161001557602001905b828210611a945750505090565b8135815260209182019101611a87565b60206040818301928281528451809452019201905f5b818110611ac75750505090565b82511515845260209384019390920191600101611aba565b9060406003198301126100155760043567ffffffffffffffff81116100155782611b0b91600401611a47565b916024359067ffffffffffffffff821161001557611b2b91600401611a47565b90565b906080600319830112610015576004356001600160a01b038116810361001557916024356001600160a01b0381168103610015579160443567ffffffffffffffff81116100155782611b82916004016119c8565b916064359067ffffffffffffffff821161001557611b2b91600401611a47565b15611ba957565b606460405162461bcd60e51b815260206004820152601a60248201527f63616c6c6572206973206e6f74206167656e74206b65657065720000000000006044820152fd5b51906001600160a01b038216820361001557565b81601f8201121561001557805190611c1882611966565b92611c266040519485611891565b8284526020838301011161001557815f9260208093018386015e8301015290565b6020818303126100155780519067ffffffffffffffff82116100155701906101a0828203126100155760405191611c7d83611858565b611c8681611bed565b8352611c9460208201611bed565b602084015260408101516003811015610015576040840152606081015160068110156100155760608401526080810151600381101561001557608084015260a081015160a084015260c081015167ffffffffffffffff81116100155761018092611cff918301611c01565b60c084015260e081015160e0840152610100810151610100840152610120810151610120840152610140810151610140840152610160810151610160840152015161018082015290565b6003111561157157565b91908203918211610a9d57565b81810292918115918404141715610a9d57565b8115611d7d570490565b634e487b7160e01b5f52601260045260245ffd5b91908201809211610a9d57565b916024905f6001600160a01b0360025416604051938480926320bf56eb60e21b82528860048301525afa91821561059e575f92612133575b50611de18385612ff0565b1561212857604082019260018451611df881611d49565b611e0181611d49565b148061211a575b156120335760e0830193845195670de0b6b3a7640000611e326101008701986107ef8a5187611d53565b0494611e3f8487846131cf565b909a925098908a1561202157808903611fc4575b5050505b6001600160a01b03815116936001600160a01b036020830151169060c0830151611e7f6132aa565b955192611e8b84611d49565b60e085019485519161010082015161012083019485519461014085019889519c611ec2604051946101a086526101a0860190612e7d565b9e60208501526040840152611ed681611d49565b60608301527f85a6bfd765950245f4f456c74db06ee8bad5a7ea04b80581aa7563d196421f669c6101809c6001600160a01b03977f52e38618358c614d6c859d2d6481831837d95cf94ee1be20b2243cbb5f69addc9585946005608087015260a086015260c08501528a60e08501525f6101008501526101208401526101408301525f19610160830152428d8301520390a2511694611f73613326565b945191519351946040519687526020870152604086015260036060860152608085015260a08401525f60c084015260e0830152610100820152846101208201525f61014082015242610160820152a1565b90929550611fec919750670de0b6b3a7640000611fe682998551905190611d60565b04611d91565b670de0b6b3a7640000810290808204670de0b6b3a76400001490151715610a9d57612018915190611d73565b925f8080611e53565b505f9950899850889750505050505050565b6002845161204081611d49565b61204981611d49565b148061210c575b156121005760e0830193845195670de0b6b3a764000061207a6101008701986107ef868b51611d53565b04946120878487846131cf565b909a925098908a15612021578089036120a3575b505050611e57565b909295506120cb919750670de0b6b3a76400006120c582998551905190611d60565b04611d53565b670de0b6b3a7640000810290808204670de0b6b3a76400001490151715610a9d576120f7915190611d73565b925f808061209b565b505f9350839250829150565b508061010084015111612050565b506101008301518111611e08565b5f9350839250829150565b6121509192503d805f833e6121488183611891565b810190611c47565b905f611dd6565b90612161826118b4565b61216e6040519182611891565b828152601f1961217e82946118b4565b0190602036910137565b805182101561219c5760209160051b010190565b634e487b7160e01b5f52603260045260245ffd5b604051906121bd82611875565b5f6080838281528260208201528260408201528260608201520152565b90816101009103126100155760e0604051916121f583611827565b805183526020810151602084015260408101516040840152606081015160608401526080810151608084015260a081015160a084015260c081015160c0840152015160e082015290565b6040519061224c82611875565b60606080835f81525f60208201525f60408201525f838201520152565b60ff5f199116019060ff8211610a9d57565b919395949061228861223f565b919461229385611d49565b6122a761229f86612269565b8284876138f4565b949260208798939298019760408801966060890152865281885286526122d65750505050505050909150905f90565b6122e18383836137dd565b956122ea6132aa565b9080519651670de0b6b3a7640000810290808204670de0b6b3a76400001490151715610a9d5761231b915190611d73565b9451956040516101a081526123346101a0820187612e7d565b926001600160a01b038516602083015260408201526123528a611d49565b606081018a90526123cf978a977f52e38618358c614d6c859d2d6481831837d95cf94ee1be20b2243cbb5f69addc936004608085015260a084015260c08301528d60e08301525f610100830152896101208301526101408201525f1961016082015242610180820152806001600160a01b038616930390a2613374565b915f5b83518110156128de576123e482611d49565b6001821480156128b8576123f88286612188565b515b60245f6001600160a01b0360025416604051928380926320bf56eb60e21b82528660048301525afa90811561059e575f9161289e575b50606081018051600681101561157157600114908115612889575b5061245c575b5050506001016123d2565b5f979192975f938b809261246f89611d49565b8b8061287a575b156127715750670de0b6b3a76400006124a16124a9926107ef60e08801519161010089015190611d53565b048095611d91565b998a866126b3575b50505f608061010085015160e46001600160a01b038454169160405194859384927ff26a3e1d0000000000000000000000000000000000000000000000000000000084528860048501528260248501528b60448501528c606485015282608485015260a48401528160c48401525af1801561059e575f915f925f915f9361265d575b50505050848103612606575b506001600160a01b03837f85a6bfd765950245f4f456c74db06ee8bad5a7ea04b80581aa7563d196421f666101806125fe979584958560019c9b995116916125856132aa565b9160e087015190610140880151936040519586526020860152604085015260036060850152608084015260a08301525f60c08301528d60e0830152610100820152866101208201528761014082015242610160820152a16125f38282511694602083019584875116906139c6565b511691511690613a1a565b905f80612451565b9960019695937f85a6bfd765950245f4f456c74db06ee8bad5a7ea04b80581aa7563d196421f666101806001600160a01b03949561264c8f6105046125fe9b8998611d53565b9e985095945050509395965061253f565b93505050506080813d82116126ab575b8161267a60809383611891565b810103126100155780516020820151906126a2606061269b60408601612e70565b9401612e70565b9192905f612533565b3d915061266d565b919a918683106126d2575050846126c991611d53565b985b5f806124b1565b5f9b929650919250816126ed575050610100820151906126cb565b6126f688611d49565b1561274f5761271d60e0840191670de0b6b3a7640000611fe6845161010088015190611d60565b670de0b6b3a7640000810290808204670de0b6b3a76400001490151715610a9d57612749915190611d73565b906126cb565b61271d60e0840191670de0b6b3a76400006120c5845161010088015190611d60565b949561277c89611d49565b8b8061286b575b156127b5575084670de0b6b3a76400006127ae6124a9936107ef60e0890151916101008a0151611d53565b0496611d91565b95946127c089611d49565b60028914808061285c575b156127f6575050670de0b6b3a76400006124a16124a9926107ef60e088015191610100890151611d53565b909591906128038a611d49565b8061284d575b612819575b50846124a991611d91565b6124a9919650670de0b6b3a764000061284287926107ef60e0890151916101008a015190611d53565b04969150508c61280e565b50610100850151811015612809565b506101008601518311156127cb565b50610100850151821115612783565b50610100850151821015612476565b9050516006811015611571576002145f61244b565b6128b291503d805f833e6121488183611891565b5f612430565b6128c3828651611d53565b5f198101908111610a9d576128d89086612188565b516123fa565b505050509091506128ed613326565b5090600190565b90612900939291612ea2565b90818110612917579061291291611d53565b600191565b61292091611d53565b5f91565b939261295691926129358487613711565b93670de0b6b3a764000061294f60408701516107ef613ac8565b0496612ea2565b908192828210612971575b5050505090505f905f905f905f90565b9061298b61298493925193849284611d53565b9687611d91565b10156129975780612961565b818511156129b357506129aa9084611d53565b91600193929190565b915050600192915f9190565b6008111561157157565b905f6001600160a01b0360025416926024604051809581937f0c3fc6b900000000000000000000000000000000000000000000000000000000835260048301525afa91821561059e575f92612bc7575b5061018082015142118015612b7e575b612b78576080820160018151612a3e81611d49565b612a4781611d49565b1480612b07575b612aff5760029051612a5f81611d49565b612a6881611d49565b149182612a7f575b5050612a7a575f90565b600190565b909150604081019160018351612a9481611d49565b612a9d81611d49565b149283612af0575b8315612ab6575b5050505f80612a70565b60029192935051612ac681611d49565b612acf81611d49565b149182612ae1575b50505f8080612aac565b60e00151101590505f80612ad7565b60e08301518210159350612aa5565b505050600190565b506040830160018151612b1981611d49565b612b2281611d49565b149081612b69575b8115612b37575b50612a4e565b6002915051612b4581611d49565b612b4e81611d49565b1480612b5b575b5f612b31565b5060e0830151821015612b55565b60e08501518411159150612b2a565b50505f90565b506060820160018151612b90816129bf565b612b99816129bf565b14159081612ba8575b50612a29565b6002915051612bb6816129bf565b612bbf816129bf565b14155f612ba2565b9091503d805f833e612bd98183611891565b8101906020818303126100155780519067ffffffffffffffff82116100155701906101a0828203126100155760405191612c1283611858565b612c1b81611bed565b8352612c2960208201611bed565b602084015260408101516003811015610015576040840152606081015160088110156100155760608401526080810151600381101561001557608084015260a081015167ffffffffffffffff81116100155761018092612c8a918301611c01565b60a084015260c081015160c084015260e081015160e08401526101008101516101008401526101208101516101208401526101408101516101408401526101608101516101608401520151610180820152905f612a19565b9190928015612d4f57612d23670de0b6b3a764000091612d0e5f80958198612d0861223f565b986138f4565b50604088015260208701819052908652611d60565b04908251808310155f14612d41575050612d3e915190611d53565b91565b90949350611b2b9250611d53565b505050505f905f90565b909193928015612dc257612d9c670de0b6b3a764000091612d8760015f985f97612d8161223f565b976138f4565b50604087015260208601819052908552611d60565b049080518211155f14612db657612d3e9293945051611d53565b611b2b92505190611d53565b50505090505f905f90565b92939190938015612e6557670de0b6b3a7640000612e1260ff92612dfd865f965f9a612df761223f565b9a6138f4565b5060408a015260208901819052908852611d60565b049216612e4b578251808310612e3b5750612d3e9291612e3191611d91565b905190611d53565b565b611b2b9350610a90919594611d91565b825190949392908211612db657612d3e9293945051611d53565b50505050505f905f90565b5190811515820361001557565b90601f19601f602080948051918291828752018686015e5f8582860101520116010190565b5f94938592835b8551851015612f1e57612f158661050487612f0f600195610504612f078b8b8b612f0088612ef9612ef1612edd838f612188565b51612ee88488612188565b51908689612ce2565b9b909d612188565b5193612188565b5192612d59565b969092611d91565b9b611d91565b94019396612ea9565b9695945050505050565b6001600160a01b03168015612fc4576001600160a01b037f9016d09d72d40fdae2fd8ceac6b6234c7706214fd39c1cd1e609a0528c199300548273ffffffffffffffffffffffffffffffffffffffff198216177f9016d09d72d40fdae2fd8ceac6b6234c7706214fd39c1cd1e609a0528c19930055167f8be0079c531659141344cd1fd0a4f28419497f9722a3daafe3b4186f6b6457e05f80a3565b7f1e4fbdf7000000000000000000000000000000000000000000000000000000005f525f60045260245ffd5b9060245f6001600160a01b0360025416604051928380926320bf56eb60e21b82528760048301525afa90811561059e575f916131b5575b5060608101805160068110156115715760011415908161319f575b508015613197575b61317457604081016001815161305f81611d49565b61306881611d49565b1480613189575b1561312c575061309f8160e0613096602095610100670de0b6b3a764000096015190611d53565b91015190611d60565b045b60446001600160a01b03600454169360405194859384927fd3c76d66000000000000000000000000000000000000000000000000000000008452600484015260248301525afa90811561059e575f916130f8575090565b90506020813d602011613124575b8161311360209383611891565b8101031261001557611b2b90612e70565b3d9150613106565b6002905161313981611d49565b61314281611d49565b148061317b575b156131745761316e8160e0613096602095610100670de0b6b3a7640000960151611d53565b046130a1565b5050505f90565b506101008101518210613149565b50610100820151831161306f565b50811561304a565b905051600681101561157157600214155f613042565b6131c991503d805f833e6121488183611891565b5f613027565b9060e46080925f6001600160a01b0381541660405196879586947ff26a3e1d000000000000000000000000000000000000000000000000000000008652600486015260016024860152604485015282606485015282608485015260a4840152600160c48401525af1801561059e575f925f935f935f93613251575b5093929190565b9450509150506080823d6080116132a2575b8161327060809383611891565b8101031261001557815190602083015190613299606061329260408701612e70565b9501612e70565b9193925f61324a565b3d9150613263565b600460206001600160a01b0360025416604051928380927fc3710f250000000000000000000000000000000000000000000000000000000082525afa90811561059e575f916132f7575090565b90506020813d60201161331e575b8161331260209383611891565b81010312610015575190565b3d9150613305565b5f60206001600160a01b03600254166004604051809481937fb99ac9270000000000000000000000000000000000000000000000000000000083525af190811561059e575f916132f7575090565b916001600160a01b035f9381956133d4836002541694604051988997889687967fec408291000000000000000000000000000000000000000000000000000000008852166004870152166024850152608060448501526084840190612e7d565b906133de81611d49565b606483015203915afa90811561059e575f916133f8575090565b90503d805f833e6134098183611891565b8101906020818303126100155780519067ffffffffffffffff821161001557019080601f83011215610015578151613440816118b4565b9261344e6040519485611891565b81845260208085019260051b82010192831161001557602001905b8282106134765750505090565b8151815260209182019101613469565b949394929091926001600160a01b036002541692604051906320bf56eb60e21b82528260048301525f82602481885afa91821561059e575f926136f5575b506060820180516006811015611571576001141590816136df575b506136cd575f91600460c06001600160a01b036134fe82850151613853565b16604051928380927f639122c90000000000000000000000000000000000000000000000000000000082525afa90811561059e575f91613636575b50925f926060979260e49695519160e08201519081811015871461362e57509b5b851903613626575b604001519661357088611d49565b604051998a9889977f17900de000000000000000000000000000000000000000000000000000000000895260048901528d60248901526135af81611d49565b60448801526064870152608486015260a485015260c48401525af192831561059e575f935f925f916135e2575b50919392565b94505090506060833d60601161361e575b8161360060609383611891565b8101031261001557825190604060208501519401519193915f6135dc565b3d91506135f3565b8b9250613562565b90509b61355a565b9296919493905060c0833d60c0116136c5575b8161365660c09383611891565b81010312610015576040519660c088019588871067ffffffffffffffff8811176118445760609860a05f9660e4996040528051835260208101516020840152604081015160408401528b8101518c84015260808101516080840152015160a08201529295965092975092613539565b3d9150613649565b50505050505090505f905f905f905f90565b905051600681101561157157600214155f6134df565b61370a9192503d805f833e6121488183611891565b905f6134c4565b6001600160a01b03604460a0926137266121b0565b5082600154168360405196879586947fccf1a4b20000000000000000000000000000000000000000000000000000000086521660048501521660248301525afa90811561059e575f91613777575090565b905060a0813d60a0116137d5575b8161379260a09383611891565b81010312610015576080604051916137a983611875565b805183526020810151602084015260408101516040840152606081015160608401520151608082015290565b3d9150613785565b906001600160a01b03928360209361383e826001541693604051978896879586957f702c2b74000000000000000000000000000000000000000000000000000000008752166004860152166024840152606060448401526064830190612e7d565b03915afa90811561059e575f916132f7575090565b60206138a0916001600160a01b036001541660405180809581947f05ca57cf0000000000000000000000000000000000000000000000000000000083528660048401526024830190612e7d565b03915afa90811561059e575f916138b5575090565b90506020813d6020116138ec575b816138d060209383611891565b8101031261001557516001600160a01b03811681036100155790565b3d91506138c3565b916001600160a01b03608093819560ff613956846002541695604051998a98899788977f3a0204a90000000000000000000000000000000000000000000000000000000089521660048801521660248601528860448601526084850190612e7d565b9116606483015203915afa801561059e575f925f935f935f9361397a575093929190565b9450509150506080823d6080116139be575b8161399960809383611891565b810103126100155781516020830151604084015160609094015190939290915f61324a565b3d915061398c565b909180613a15577feb42cf637f927243245c50b4bf7fe105fe4f4d26209102240f2ba3d8e27a7df860606001600160a01b03805f966040519560048752602087015242604087015216941692a4565b505050565b909180613a15577feb42cf637f927243245c50b4bf7fe105fe4f4d26209102240f2ba3d8e27a7df860606001600160a01b03805f966040519560058752602087015242604087015216941692a4565b6001600160a01b037f9016d09d72d40fdae2fd8ceac6b6234c7706214fd39c1cd1e609a0528c19930054163303613a9c57565b7f118cdaa7000000000000000000000000000000000000000000000000000000005f523360045260245ffd5b600460206001600160a01b0360015416604051928380927f89f00b6d0000000000000000000000000000000000000000000000000000000082525afa90811561059e575f916132f7575090565b90916001600160a01b0360015416803b15610015575f928360e492613ba66001600160a01b039586604051998a9889977fe448cc41000000000000000000000000000000000000000000000000000000008952166004880152166024860152604485019060808091805184526020810151602085015260408101516040850152606081015160608501520151910152565b5af1801561059e57613bb55750565b5f612e3991611891565b60ff7ff0c57e16840df040f15088dc2f81fe391c3923bec73e23a9662efc9c229c6a005460401c1615613bee57565b7fd7e6bcf8000000000000000000000000000000000000000000000000000000005f5260045ffdfea264697066735822122061b3ae61d2588ad01a49181579df01e2631adfb4e1be090c9a23f443f274987f64736f6c634300081c0033",
  "linkReferences": {},
  "deployedLinkReferences": {}
}