{
  "_format": "hh-sol-artifact-1",
  "contractName": "TradeStation",
  "sourceName": "contracts/TradeStation.sol",
  "abi": [
    {
      "inputs": [],
      "name": "InvalidInitialization",
      "type": "error"
    },
    {
      "inputs": [],
      "name": "NotInitializing",
      "type": "error"
    },
    {
      "inputs": [
        {
          "internalType": "address",
          "name": "owner",
          "type": "address"
        }
      ],
      "name": "OwnableInvalidOwner",
      "type": "error"
    },
    {
      "inputs": [
        {
          "internalType": "address",
          "name": "account",
          "type": "address"
        }
      ],
      "name": "OwnableUnauthorizedAccount",
      "type": "error"
    },
    {
      "anonymous": false,
      "inputs": [
        {
          "indexed": false,
          "internalType": "address",
          "name": "token",
          "type": "address"
        },
        {
          "indexed": false,
          "internalType": "address",
          "name": "holder",
          "type": "address"
        },
        {
          "indexed": false,
          "internalType": "string",
          "name": "name",
          "type": "string"
        },
        {
          "indexed": false,
          "internalType": "enum ICommon.Direct",
          "name": "direct",
          "type": "uint8"
        },
        {
          "indexed": false,
          "internalType": "uint256",
          "name": "value",
          "type": "uint256"
        },
        {
          "indexed": false,
          "internalType": "uint256",
          "name": "size",
          "type": "uint256"
        },
        {
          "indexed": false,
          "internalType": "uint256",
          "name": "margin",
          "type": "uint256"
        },
        {
          "indexed": false,
          "internalType": "uint256",
          "name": "freeze",
          "type": "uint256"
        }
      ],
      "name": "AccountPosition",
      "type": "event"
    },
    {
      "anonymous": false,
      "inputs": [
        {
          "indexed": false,
          "internalType": "address",
          "name": "token",
          "type": "address"
        },
        {
          "indexed": false,
          "internalType": "address",
          "name": "taker",
          "type": "address"
        },
        {
          "indexed": false,
          "internalType": "uint256",
          "name": "amount",
          "type": "uint256"
        },
        {
          "indexed": false,
          "internalType": "uint256",
          "name": "availableAmount",
          "type": "uint256"
        },
        {
          "indexed": false,
          "internalType": "uint256",
          "name": "marginAmount",
          "type": "uint256"
        },
        {
          "indexed": false,
          "internalType": "uint256",
          "name": "locked",
          "type": "uint256"
        },
        {
          "indexed": false,
          "internalType": "uint256",
          "name": "stage",
          "type": "uint256"
        },
        {
          "indexed": false,
          "internalType": "uint256",
          "name": "dif",
          "type": "uint256"
        }
      ],
      "name": "BalanceOfTaker",
      "type": "event"
    },
    {
      "anonymous": false,
      "inputs": [
        {
          "indexed": false,
          "internalType": "string",
          "name": "name",
          "type": "string"
        },
        {
          "indexed": true,
          "internalType": "address",
          "name": "taker",
          "type": "address"
        },
        {
          "indexed": true,
          "internalType": "address",
          "name": "token",
          "type": "address"
        },
        {
          "indexed": false,
          "internalType": "uint256",
          "name": "orderID",
          "type": "uint256"
        },
        {
          "indexed": false,
          "internalType": "enum ICommon.Direct",
          "name": "orderType",
          "type": "uint8"
        },
        {
          "indexed": false,
          "internalType": "enum IPerpetual.OrderState",
          "name": "state",
          "type": "uint8"
        },
        {
          "indexed": false,
          "internalType": "enum ICommon.Offset",
          "name": "offset",
          "type": "uint8"
        },
        {
          "indexed": false,
          "internalType": "uint256",
          "name": "amount",
          "type": "uint256"
        },
        {
          "indexed": false,
          "internalType": "uint256",
          "name": "targetPrice",
          "type": "uint256"
        },
        {
          "indexed": false,
          "internalType": "uint256",
          "name": "margin",
          "type": "uint256"
        },
        {
          "indexed": false,
          "internalType": "uint256",
          "name": "rewardGas",
          "type": "uint256"
        },
        {
          "indexed": false,
          "internalType": "uint256",
          "name": "tradingFee",
          "type": "uint256"
        },
        {
          "indexed": false,
          "internalType": "uint256",
          "name": "startTime",
          "type": "uint256"
        },
        {
          "indexed": false,
          "internalType": "uint256",
          "name": "goodTill",
          "type": "uint256"
        }
      ],
      "name": "CreateLimitedOrder",
      "type": "event"
    },
    {
      "anonymous": false,
      "inputs": [
        {
          "indexed": false,
          "internalType": "uint256",
          "name": "limitOrderID",
          "type": "uint256"
        },
        {
          "indexed": false,
          "internalType": "uint256",
          "name": "openLimitPrice",
          "type": "uint256"
        },
        {
          "indexed": false,
          "internalType": "uint256",
          "name": "gainTriggerPrice",
          "type": "uint256"
        },
        {
          "indexed": false,
          "internalType": "uint256",
          "name": "gainLimitPrice",
          "type": "uint256"
        },
        {
          "indexed": false,
          "internalType": "uint256",
          "name": "lossTriggerPrice",
          "type": "uint256"
        },
        {
          "indexed": false,
          "internalType": "uint256",
          "name": "lossLimitPrice",
          "type": "uint256"
        }
      ],
      "name": "CreateTriggerCondition",
      "type": "event"
    },
    {
      "anonymous": false,
      "inputs": [
        {
          "indexed": false,
          "internalType": "uint256",
          "name": "code",
          "type": "uint256"
        },
        {
          "indexed": false,
          "internalType": "uint256",
          "name": "orderID",
          "type": "uint256"
        },
        {
          "indexed": false,
          "internalType": "string",
          "name": "message",
          "type": "string"
        }
      ],
      "name": "ErrorInfo",
      "type": "event"
    },
    {
      "anonymous": false,
      "inputs": [
        {
          "indexed": false,
          "internalType": "uint256",
          "name": "code",
          "type": "uint256"
        },
        {
          "indexed": false,
          "internalType": "uint256",
          "name": "orderID",
          "type": "uint256"
        },
        {
          "indexed": false,
          "internalType": "bytes",
          "name": "message",
          "type": "bytes"
        }
      ],
      "name": "ExceptErrorInfo",
      "type": "event"
    },
    {
      "anonymous": false,
      "inputs": [
        {
          "indexed": false,
          "internalType": "uint64",
          "name": "version",
          "type": "uint64"
        }
      ],
      "name": "Initialized",
      "type": "event"
    },
    {
      "anonymous": false,
      "inputs": [
        {
          "indexed": false,
          "internalType": "string",
          "name": "name",
          "type": "string"
        },
        {
          "indexed": true,
          "internalType": "address",
          "name": "taker",
          "type": "address"
        },
        {
          "indexed": true,
          "internalType": "address",
          "name": "token",
          "type": "address"
        },
        {
          "indexed": false,
          "internalType": "uint256",
          "name": "orderID",
          "type": "uint256"
        },
        {
          "indexed": false,
          "internalType": "enum ICommon.Direct",
          "name": "orderType",
          "type": "uint8"
        },
        {
          "indexed": false,
          "internalType": "enum IPerpetual.OrderState",
          "name": "state",
          "type": "uint8"
        },
        {
          "indexed": false,
          "internalType": "enum ICommon.Offset",
          "name": "offset",
          "type": "uint8"
        },
        {
          "indexed": false,
          "internalType": "uint256",
          "name": "amount",
          "type": "uint256"
        },
        {
          "indexed": false,
          "internalType": "uint256",
          "name": "targetPrice",
          "type": "uint256"
        },
        {
          "indexed": false,
          "internalType": "uint256",
          "name": "margin",
          "type": "uint256"
        },
        {
          "indexed": false,
          "internalType": "uint256",
          "name": "rewardGas",
          "type": "uint256"
        },
        {
          "indexed": false,
          "internalType": "uint256",
          "name": "tradingFee",
          "type": "uint256"
        },
        {
          "indexed": false,
          "internalType": "uint256",
          "name": "startTime",
          "type": "uint256"
        },
        {
          "indexed": false,
          "internalType": "uint256",
          "name": "goodTill",
          "type": "uint256"
        }
      ],
      "name": "LimitedOrderHistory",
      "type": "event"
    },
    {
      "anonymous": false,
      "inputs": [
        {
          "indexed": true,
          "internalType": "address",
          "name": "taker",
          "type": "address"
        },
        {
          "indexed": false,
          "internalType": "string",
          "name": "name",
          "type": "string"
        },
        {
          "indexed": false,
          "internalType": "address",
          "name": "token",
          "type": "address"
        },
        {
          "indexed": false,
          "internalType": "uint256",
          "name": "orderID",
          "type": "uint256"
        },
        {
          "indexed": false,
          "internalType": "enum ICommon.Direct",
          "name": "direction",
          "type": "uint8"
        },
        {
          "indexed": false,
          "internalType": "enum IPerpetual.OrderType",
          "name": "orderType",
          "type": "uint8"
        },
        {
          "indexed": false,
          "internalType": "uint256",
          "name": "amount",
          "type": "uint256"
        },
        {
          "indexed": false,
          "internalType": "uint256",
          "name": "costPrice",
          "type": "uint256"
        },
        {
          "indexed": false,
          "internalType": "uint256",
          "name": "price",
          "type": "uint256"
        },
        {
          "indexed": false,
          "internalType": "uint256",
          "name": "tradingFee",
          "type": "uint256"
        },
        {
          "indexed": false,
          "internalType": "uint256",
          "name": "leverage",
          "type": "uint256"
        },
        {
          "indexed": false,
          "internalType": "uint256",
          "name": "marginAmount",
          "type": "uint256"
        },
        {
          "indexed": false,
          "internalType": "uint256",
          "name": "limitOrderId",
          "type": "uint256"
        },
        {
          "indexed": false,
          "internalType": "uint256",
          "name": "timestamp",
          "type": "uint256"
        }
      ],
      "name": "OrderHistory",
      "type": "event"
    },
    {
      "anonymous": false,
      "inputs": [
        {
          "indexed": true,
          "internalType": "address",
          "name": "previousOwner",
          "type": "address"
        },
        {
          "indexed": true,
          "internalType": "address",
          "name": "newOwner",
          "type": "address"
        }
      ],
      "name": "OwnershipTransferred",
      "type": "event"
    },
    {
      "anonymous": false,
      "inputs": [
        {
          "indexed": false,
          "internalType": "address",
          "name": "token",
          "type": "address"
        },
        {
          "indexed": false,
          "internalType": "uint256",
          "name": "orderID",
          "type": "uint256"
        },
        {
          "indexed": false,
          "internalType": "uint256",
          "name": "dealID",
          "type": "uint256"
        },
        {
          "indexed": false,
          "internalType": "enum IPerpetual.TradeType",
          "name": "tradeType",
          "type": "uint8"
        },
        {
          "indexed": false,
          "internalType": "uint256",
          "name": "amount",
          "type": "uint256"
        },
        {
          "indexed": false,
          "internalType": "uint256",
          "name": "price",
          "type": "uint256"
        },
        {
          "indexed": false,
          "internalType": "uint256",
          "name": "tradingFee",
          "type": "uint256"
        },
        {
          "indexed": false,
          "internalType": "uint256",
          "name": "leverage",
          "type": "uint256"
        },
        {
          "indexed": false,
          "internalType": "uint256",
          "name": "marginAmount",
          "type": "uint256"
        },
        {
          "indexed": false,
          "internalType": "uint256",
          "name": "profit",
          "type": "uint256"
        },
        {
          "indexed": false,
          "internalType": "uint256",
          "name": "loss",
          "type": "uint256"
        },
        {
          "indexed": false,
          "internalType": "uint256",
          "name": "timestamp",
          "type": "uint256"
        }
      ],
      "name": "TradeHistory",
      "type": "event"
    },
    {
      "anonymous": false,
      "inputs": [
        {
          "indexed": true,
          "internalType": "address",
          "name": "token",
          "type": "address"
        },
        {
          "indexed": true,
          "internalType": "address",
          "name": "sender",
          "type": "address"
        },
        {
          "indexed": true,
          "internalType": "address",
          "name": "received",
          "type": "address"
        },
        {
          "indexed": false,
          "internalType": "enum ICommon.TransactionType",
          "name": "transactionType",
          "type": "uint8"
        },
        {
          "indexed": false,
          "internalType": "uint256",
          "name": "amount",
          "type": "uint256"
        },
        {
          "indexed": false,
          "internalType": "uint256",
          "name": "timestamp",
          "type": "uint256"
        }
      ],
      "name": "TransactionHistory",
      "type": "event"
    },
    {
      "anonymous": false,
      "inputs": [
        {
          "indexed": false,
          "internalType": "address",
          "name": "token",
          "type": "address"
        },
        {
          "indexed": false,
          "internalType": "address",
          "name": "sender",
          "type": "address"
        },
        {
          "indexed": false,
          "internalType": "string",
          "name": "name",
          "type": "string"
        },
        {
          "indexed": false,
          "internalType": "uint256",
          "name": "beforeLeverage",
          "type": "uint256"
        },
        {
          "indexed": false,
          "internalType": "uint256",
          "name": "afterLeverage",
          "type": "uint256"
        }
      ],
      "name": "setLeverage",
      "type": "event"
    },
    {
      "stateMutability": "nonpayable",
      "type": "fallback"
    },
    {
      "inputs": [
        {
          "internalType": "address",
          "name": "_token",
          "type": "address"
        },
        {
          "internalType": "address",
          "name": "_taker",
          "type": "address"
        },
        {
          "internalType": "uint256",
          "name": "_deposit",
          "type": "uint256"
        },
        {
          "internalType": "string[]",
          "name": "_pairs",
          "type": "string[]"
        },
        {
          "internalType": "uint256[]",
          "name": "_prices",
          "type": "uint256[]"
        }
      ],
      "name": "clearingTaker",
      "outputs": [
        {
          "internalType": "uint256",
          "name": "remainingDeposit",
          "type": "uint256"
        }
      ],
      "stateMutability": "nonpayable",
      "type": "function"
    },
    {
      "inputs": [
        {
          "internalType": "address",
          "name": "_token",
          "type": "address"
        },
        {
          "internalType": "address",
          "name": "_taker",
          "type": "address"
        },
        {
          "internalType": "string",
          "name": "_name",
          "type": "string"
        },
        {
          "internalType": "uint256",
          "name": "_amount",
          "type": "uint256"
        },
        {
          "internalType": "uint256",
          "name": "_price",
          "type": "uint256"
        },
        {
          "internalType": "enum ICommon.Direct",
          "name": "_type",
          "type": "uint8"
        },
        {
          "internalType": "uint256",
          "name": "_limitID",
          "type": "uint256"
        }
      ],
      "name": "closeOrder",
      "outputs": [],
      "stateMutability": "nonpayable",
      "type": "function"
    },
    {
      "inputs": [
        {
          "internalType": "address",
          "name": "_priPool",
          "type": "address"
        },
        {
          "internalType": "address",
          "name": "_perpetual",
          "type": "address"
        }
      ],
      "name": "initialize",
      "outputs": [],
      "stateMutability": "nonpayable",
      "type": "function"
    },
    {
      "inputs": [
        {
          "internalType": "address",
          "name": "_token",
          "type": "address"
        },
        {
          "internalType": "address",
          "name": "_taker",
          "type": "address"
        },
        {
          "internalType": "string",
          "name": "_name",
          "type": "string"
        },
        {
          "internalType": "uint256",
          "name": "_amount",
          "type": "uint256"
        },
        {
          "internalType": "uint256",
          "name": "_price",
          "type": "uint256"
        },
        {
          "internalType": "enum ICommon.Direct",
          "name": "_type",
          "type": "uint8"
        },
        {
          "internalType": "uint256",
          "name": "_goodTill",
          "type": "uint256"
        },
        {
          "internalType": "uint256",
          "name": "_rewardsGas",
          "type": "uint256"
        }
      ],
      "name": "makeOpenLimitOrder",
      "outputs": [],
      "stateMutability": "nonpayable",
      "type": "function"
    },
    {
      "inputs": [
        {
          "internalType": "address",
          "name": "_token",
          "type": "address"
        },
        {
          "internalType": "address",
          "name": "_taker",
          "type": "address"
        },
        {
          "internalType": "string",
          "name": "_name",
          "type": "string"
        },
        {
          "internalType": "uint256",
          "name": "_amount",
          "type": "uint256"
        },
        {
          "internalType": "uint256",
          "name": "_price",
          "type": "uint256"
        },
        {
          "internalType": "enum ICommon.Direct",
          "name": "_type",
          "type": "uint8"
        },
        {
          "internalType": "uint256",
          "name": "_limitOrderID",
          "type": "uint256"
        },
        {
          "internalType": "uint256",
          "name": "_freezeAmount",
          "type": "uint256"
        }
      ],
      "name": "openOrder",
      "outputs": [],
      "stateMutability": "nonpayable",
      "type": "function"
    },
    {
      "inputs": [],
      "name": "owner",
      "outputs": [
        {
          "internalType": "address",
          "name": "",
          "type": "address"
        }
      ],
      "stateMutability": "view",
      "type": "function"
    },
    {
      "inputs": [],
      "name": "renounceOwnership",
      "outputs": [],
      "stateMutability": "nonpayable",
      "type": "function"
    },
    {
      "inputs": [
        {
          "internalType": "address",
          "name": "_orderBook",
          "type": "address"
        },
        {
          "internalType": "address",
          "name": "_agent",
          "type": "address"
        },
        {
          "internalType": "address",
          "name": "_poolAgent",
          "type": "address"
        },
        {
          "internalType": "address",
          "name": "_keeper",
          "type": "address"
        }
      ],
      "name": "setKeepers",
      "outputs": [],
      "stateMutability": "nonpayable",
      "type": "function"
    },
    {
      "inputs": [
        {
          "internalType": "string",
          "name": "_name",
          "type": "string"
        },
        {
          "internalType": "address",
          "name": "_token",
          "type": "address"
        },
        {
          "internalType": "uint256",
          "name": "_amount",
          "type": "uint256"
        },
        {
          "internalType": "enum ICommon.Direct",
          "name": "_type",
          "type": "uint8"
        },
        {
          "internalType": "enum ICommon.Offset",
          "name": "_offset",
          "type": "uint8"
        },
        {
          "internalType": "uint256",
          "name": "_param1",
          "type": "uint256"
        },
        {
          "internalType": "uint256",
          "name": "_param2",
          "type": "uint256"
        },
        {
          "internalType": "uint256",
          "name": "_param3",
          "type": "uint256"
        },
        {
          "internalType": "uint256",
          "name": "_param4",
          "type": "uint256"
        },
        {
          "internalType": "uint256",
          "name": "_goodTill",
          "type": "uint256"
        },
        {
          "internalType": "address",
          "name": "_taker",
          "type": "address"
        }
      ],
      "name": "stopTakeOrder",
      "outputs": [],
      "stateMutability": "payable",
      "type": "function"
    },
    {
      "inputs": [
        {
          "internalType": "string",
          "name": "_name",
          "type": "string"
        },
        {
          "internalType": "address",
          "name": "_token",
          "type": "address"
        },
        {
          "internalType": "uint256",
          "name": "_amount",
          "type": "uint256"
        },
        {
          "internalType": "uint256",
          "name": "_price",
          "type": "uint256"
        },
        {
          "internalType": "uint256",
          "name": "_orderType",
          "type": "uint256"
        },
        {
          "internalType": "enum ICommon.Offset",
          "name": "_offset",
          "type": "uint8"
        },
        {
          "internalType": "enum ICommon.Direct",
          "name": "_type",
          "type": "uint8"
        },
        {
          "internalType": "uint256",
          "name": "_goodTill",
          "type": "uint256"
        },
        {
          "internalType": "address",
          "name": "_taker",
          "type": "address"
        },
        {
          "internalType": "uint256",
          "name": "_rewardGas",
          "type": "uint256"
        }
      ],
      "name": "trade",
      "outputs": [],
      "stateMutability": "payable",
      "type": "function"
    },
    {
      "inputs": [
        {
          "internalType": "address",
          "name": "newOwner",
          "type": "address"
        }
      ],
      "name": "transferOwnership",
      "outputs": [],
      "stateMutability": "nonpayable",
      "type": "function"
    },
    {
      "inputs": [
        {
          "internalType": "uint256[]",
          "name": "_orderID",
          "type": "uint256[]"
        },
        {
          "internalType": "string[]",
          "name": "_symbols",
          "type": "string[]"
        },
        {
          "internalType": "uint256[]",
          "name": "_prices",
          "type": "uint256[]"
        }
      ],
      "name": "triggerOrders",
      "outputs": [],
      "stateMutability": "nonpayable",
      "type": "function"
    }
  ],
  "bytecode": "0x60808060405234601557613e1f908161001a8239f35b5f80fdfe60806040526004361015610019575b3461001557005b5f80fd5b5f5f3560e01c8063068c9c261461199157806307e7148514611732578063485cc9551461147a5780636332d72614611224578063715018a61461117e578063810c8af614610f3f57806381a4f17314610e265780638da5cb5b14610de0578063bcef60d714610bae578063c59b4d78146109d1578063f2fde38b146109a75763fb13637b146100a8575061000e565b6101406003193601126109a45760043567ffffffffffffffff8111610370576100d5903690600401611ae4565b6100dd611a42565b90600360a435101561034c57600360c435101561034c5761010435906001600160a01b03821682036109a257338452600560205261012160ff604086205416611c92565b61012b828461256c565b61013660a435611d76565b60a4356001036104ca576084356103db57338452600560205261015f60ff604086205416611c92565b610170606435604435838587611fe6565b9061017b8385612240565b9060208201918251906060850191825111610397578051936101a36040870195865190611cdd565b82526101b28151845190611cdd565b90526101d860408201918251926101cf6020890194855190611cfe565b905287896122f9565b6001600160a01b0360025416803b1561039357610246604051947fcc5bc7410000000000000000000000000000000000000000000000000000000086526001600160a01b038a1660048701526001600160a01b03891660248701526101c060448701526101c4860190611d51565b9161025260c435611d76565b60c43560648601528985809460e0839a84988496600160848701525f1960a4870152825160c48701525160e48601528b5161010486015251610124850152608081015161014485015260a081015161016485015260c081015161018485015201516101a483015203925af190811561037457839161035b575b50506001600160a01b0360015416905190803b1561034c57604051623bb5d360e61b81526001600160a01b03808716600483015285166024820152604481019290925282908290818381606481015b03925af1801561035057610337575b5050610334916125df565b80f35b8161034191611aa5565b61034c57825f610329565b8280fd5b6040513d84823e3d90fd5b8161036591611aa5565b61037057815f6102cb565b5080fd5b6040513d85823e3d90fd5b634e487b7160e01b5f52602160045260245ffd5b8880fd5b606460405162461bcd60e51b815260206004820152601160248201527f6f70656e20696e73756666696369656e740000000000000000000000000000006044820152fd5b9133845260056020526103f460ff604086205416611c92565b610405606435604435858585611fe6565b61040f8383612240565b93602085019182519260608201938451116104865761033496610481948261043d61045a9451835190611cdd565b905261045160608301918251905190611cfe565b905286866122f9565b6040810151916101243592602060e43593015191606435906044359060c435908a8a61239e565b6125df565b606460405162461bcd60e51b815260206004820152601760248201527f6f70656e206c696d697420696e73756666696369656e740000000000000000006044820152fd5b6040516104d681611a58565b8481528460208201528460408201526060808201528460808201528460a08201528460c08201528460e08201526001600160a01b03600254169061051b60c435611d76565b60ff60c43581165f19011161098e57608060405180937f3a0204a90000000000000000000000000000000000000000000000000000000082526001600160a01b03881660048301526001600160a01b038716602483015282604483015281806105876084820189611d51565b60ff5f198160c435160116606483015203915afa908115610983578687918893610938575b6105c3945083604082015282602082015252611cdd565b604435116108f45783906084356108195761064160a09133845260056020526105f260ff604086205416611c92565b6001600160a01b0360035416906040519485809481936307e7148560e01b83526001600160a01b038b1660048401526001600160a01b038a16602484015260e0604484015260e4830190611d51565b6044356064830152606435608483015261065c60c435611d76565b60c43560a48301525f1960c483015203925af190811561080e5784916107d1575b506106888284612240565b90602082018051926106ec6106a36020850195865190611cfe565b886106b46060870192835190611cfe565b946106ca60406080890151980197885190611cfe565b9586908181106107c9576106df929350611cdd565b90525b8251905190611cfe565b91808310610785578794610704869261072295611cdd565b835260408301805191519091818111610773575050525b84866122f9565b6001600160a01b0360015416905190803b1561034c57604051623bb5d360e61b81526001600160a01b038087166004830152851660248201526044810192909252829082908183816064810161031a565b61077e929350611cdd565b905261071b565b606460405162461bcd60e51b815260206004820152601260248201527f73686f756c64206265206465746f6e61746500000000000000000000000000006044820152fd5b5050526106e2565b905060a03d60a011610807575b6107e88183611aa5565b810160a082820312610803576107fd91611d0b565b5f61067d565b8480fd5b503d6107de565b6040513d86823e3d90fd5b6001600160a01b0360025416803b1561034c57610875918391604051808095819463308b99cb60e21b83526001600160a01b038b1660048401526001600160a01b038a1660248401526101a060448401526101a4830190611d51565b61088060c435611d76565b60c435606483015261089360a435611d76565b60a435608483015260443560a483015260643560c48301528560e4830152856101048301528561012483015260e4356101448301528561016483015261012435610184830152039134905af1801561035057610337575050610334916125df565b606460405162461bcd60e51b815260206004820152601660248201527f636c6f736520616d6f756e7420746f6f206c61726765000000000000000000006044820152fd5b925050506080823d60801161097b575b8161095560809383611aa5565b8101031261097757816105c392519060606020820151910151919091926105ac565b8580fd5b3d9150610948565b6040513d88823e3d90fd5b602486634e487b7160e01b81526011600452fd5b835b80fd5b50346109a45760206003193601126109a4576103346109c4611a2c565b6109cc61250d565b611f1e565b50346109a45760a06003193601126109a4576109eb611a2c565b906109f4611a42565b9160643567ffffffffffffffff811161034c57610a15903690600401611c13565b60843567ffffffffffffffff81116109a257610a35903690600401611bb6565b3384526005602052610a4d60ff604086205416611c92565b604435946001600160a01b03808695169116915b8351851015610ba35785965b60ff8816906002821015610b96576001600160a01b0360025416906001610a948989611d8a565b51930160ff8111610b825791868a878b610b0b9795610ac260ff6020991692610abc84611d76565b8b611d8a565b51604051998a98899788967f509423550000000000000000000000000000000000000000000000000000000088526004880152602487015260c0604487015260c4860190611d51565b92610b1581611d76565b6064850152608484015260a483015203925af1908115610b77578791610b45575b50600160ff9198011696610a6d565b90506020813d8211610b6f575b81610b5f60209383611aa5565b8101031261001557516001610b36565b3d9150610b52565b6040513d89823e3d90fd5b60248a634e487b7160e01b81526011600452fd5b9750509360010193610a61565b602087604051908152f35b50346109a45760606003193601126109a45760043567ffffffffffffffff811161037057610be0903690600401611bb6565b60243567ffffffffffffffff811161034c57610c00903690600401611c13565b9060443567ffffffffffffffff81116109a25783610c2384923690600401611bb6565b903381526005602052610c3c60ff604083205416611c92565b80915b8451831015610ddc5790602491610c568487611d8a565b5190826001600160a01b0360025416604051958680927f0c3fc6b90000000000000000000000000000000000000000000000000000000082528660048301525afa938415610374578394610db8575b506001600160a01b0384511692610ccb60208601946001600160a01b038651169061256c565b8096815b8151811015610da657610ce28183611d8a565b51604051610d0f6020828180820195805191829101875e810188838201520301601f198101835282611aa5565b51902060a0880151604051610d436020828180820195805191829101875e810189838201520301601f198101835282611aa5565b51902014610d5357600101610ccf565b60019592999794919850610d6990849794611d8a565b515b8015610d9d57610d9493610d896001600160a01b03939284936127b4565b5116915116906125df565b01919390610c3f565b50505050610d94565b50969260019491989693959295610d6b565b610dd59194503d8085833e610dcd8183611aa5565b810190611df8565b9287610ca5565b5080f35b50346109a457806003193601126109a45760206001600160a01b037f9016d09d72d40fdae2fd8ceac6b6234c7706214fd39c1cd1e609a0528c1993005416604051908152f35b50346109a45760806003193601126109a457610e40611a2c565b610e48611a42565b90604435916001600160a01b0383168093036109a2576064356001600160a01b038116809103610803576001600160a01b038093610e8461250d565b1690818652600560205260408620600160ff19825416179055818652600560205260408620600160ff19825416179055848652600560205260408620600160ff198254161790558552600560205260408520600160ff1982541617905573ffffffffffffffffffffffffffffffffffffffff1960025416176002551673ffffffffffffffffffffffffffffffffffffffff19600354161760035573ffffffffffffffffffffffffffffffffffffffff19600454161760045580f35b506101606003193601126109a4578060043567ffffffffffffffff811161117b57610f6e903690600401611ae4565b610f76611a42565b6064356003811015611178576084359160038310156108035760a4359260e4359161014435936001600160a01b038516809503611174573388526005602052610fc560ff60408a205416611c92565b610fce83611d76565b60018314611121575b610fe083611d76565b600283146110bc575b6001600160a01b036002541693843b156103935788966001600160a01b039461103d6040519a8b998a98899863308b99cb60e21b8a5216600489015260248801526101a060448801526101a4870190611d51565b9361104781611d76565b606486015261105581611d76565b608485015260443560a485015260c484015260c43560e48401526101048301526101043561012483015261012435610144830152600161016483015285610184830152039134905af18015610350576110ab5750f35b816110b591611aa5565b6109a45780f35b96508415801590611118575b156110d4578796610fe9565b606460405162461bcd60e51b815260206004820152601b60248201527f636c6f73652074726967676572207072696365206973207a65726f00000000006044820152fd5b508215156110c8565b96508415611130578796610fd7565b606460405162461bcd60e51b815260206004820152601a60248201527f6f70656e2074726967676572207072696365206973207a65726f0000000000006044820152fd5b8780fd5b50505b50fd5b50346109a457806003193601126109a45761119761250d565b806001600160a01b037f9016d09d72d40fdae2fd8ceac6b6234c7706214fd39c1cd1e609a0528c1993005473ffffffffffffffffffffffffffffffffffffffff1981167f9016d09d72d40fdae2fd8ceac6b6234c7706214fd39c1cd1e609a0528c19930055167f8be0079c531659141344cd1fd0a4f28419497f9722a3daafe3b4186f6b6457e08280a380f35b50346109a45761125f61123636611b2a565b949290979193969596338a52600560205261125760ff60408c205416611c92565b838888611fe6565b9060019261126d8787612240565b946001890161144d575b5060208501948551906060850191825111610397578a998151976112a160408801998a5190611cdd565b83526112b08151855190611cdd565b90526112d660408301928351936112cd60208a0195865190611cfe565b90528b8b6122f9565b6001600160a01b036002541693843b15611449578b968b9488948c946040519b8c9a8b998a987fcc5bc741000000000000000000000000000000000000000000000000000000008a526001600160a01b031660048a01526001600160a01b03166024890152604488016101c090526101c4880161135291611d51565b9561135c81611d76565b606488015261136a81611d80565b608487015260a4860152825160c48601525160e48501528a5161010485015251610124840152608081015161014484015260a081015161016484015260c081015161018484015260e001516101a483015203925af190811561143e578591611429575b50506001600160a01b0360015416905190803b1561080357604051623bb5d360e61b81526001600160a01b039384166004820152939092166024840152604483015282908290606490829084905af18015610350576110ab5750f35b8161143391611aa5565b61117857835f6113cd565b6040513d87823e3d90fd5b8b80fd5b935060029360208601611461828251611cfe565b905261147260608701918251611cdd565b90525f611277565b50346109a45760406003193601126109a457611494611a2c565b61149c611a42565b7ff0c57e16840df040f15088dc2f81fe391c3923bec73e23a9662efc9c229c6a00549160ff8360401c16159267ffffffffffffffff81168015908161172a575b6001149081611720575b159081611717575b506116ef576001600160a01b039291818560017fffffffffffffffffffffffffffffffffffffffffffffffff0000000000000000879516177ff0c57e16840df040f15088dc2f81fe391c3923bec73e23a9662efc9c229c6a005561169a575b50611556613caa565b61155e613caa565b61156733611f1e565b168073ffffffffffffffffffffffffffffffffffffffff198654161785558452600560205260408420600160ff19825416179055168073ffffffffffffffffffffffffffffffffffffffff1960015416176001558252600560205260408220600160ff19825416179055338252600560205260408220600160ff19825416179055308252600560205260408220600160ff198254161790556116065780f35b7fffffffffffffffffffffffffffffffffffffffffffffff00ffffffffffffffff7ff0c57e16840df040f15088dc2f81fe391c3923bec73e23a9662efc9c229c6a0054167ff0c57e16840df040f15088dc2f81fe391c3923bec73e23a9662efc9c229c6a00557fc7f505b2f371ae2175ee4913f4499e1f2633a7b5936321eed1cdaeb6115181d2602060405160018152a180f35b7fffffffffffffffffffffffffffffffffffffffffffffff0000000000000000001668010000000000000001177ff0c57e16840df040f15088dc2f81fe391c3923bec73e23a9662efc9c229c6a00555f61154d565b6004857ff92ee8a9000000000000000000000000000000000000000000000000000000008152fd5b9050155f6114ee565b303b1591506114e6565b8591506114dc565b50346100155760e06003193601126100155761174c611a2c565b611754611a42565b9060443567ffffffffffffffff811161001557611775903690600401611ae4565b60a435906003821015610015576117f060a091335f5260056020526117a060ff60405f205416611c92565b6001600160a01b0360035416905f6040518096819582946307e7148560e01b84526001600160a01b038b1660048501526001600160a01b038c16602485015260e0604485015260e4840190611d51565b906064356064840152608435608484015261180a81611d76565b60a483015260c43560c483015203925af1908115611932575f91611958575b506118348383612240565b6020810190815161189561184e6020860192835190611cfe565b61185e6060870191825190611cfe565b9461187460406080890151980197885190611cfe565b95869081811061194e579061188891611cdd565b90525b8351905190611cfe565b838110610785576118c9936118a991611cdd565b82526040820180519151909181811161193d5750505f90525b84846122f9565b6001600160a01b0360015416905190803b1561001557604051623bb5d360e61b81526001600160a01b03938416600482015293909216602484015260448301525f908290606490829084905af1801561193257611924575080f35b61193091505f90611aa5565b005b6040513d5f823e3d90fd5b9061194791611cdd565b90526118c2565b50505f905261188b565b905060a03d60a01161198a575b61196f8183611aa5565b810160a0828203126100155761198491611d0b565b5f611829565b503d611965565b346100155761199f36611b2a565b95969390949291335f5260056020526119be60ff60405f205416611c92565b6119cb8383868b89611fe6565b936119d68987612240565b9860208a0180519a606088019b8c5111610486576119309b826119ff611a1c9451835190611cdd565b9052611a1360608301918251905190611cfe565b905282896122f9565b602060408701519601519661239e565b600435906001600160a01b038216820361001557565b602435906001600160a01b038216820361001557565b610100810190811067ffffffffffffffff821117611a7557604052565b634e487b7160e01b5f52604160045260245ffd5b60a0810190811067ffffffffffffffff821117611a7557604052565b90601f601f19910116810190811067ffffffffffffffff821117611a7557604052565b67ffffffffffffffff8111611a7557601f01601f191660200190565b81601f8201121561001557803590611afb82611ac8565b92611b096040519485611aa5565b8284526020838301011161001557815f926020809301838601378301015290565b610100600319820112610015576004356001600160a01b038116810361001557916024356001600160a01b038116810361001557916044359067ffffffffffffffff821161001557611b7e91600401611ae4565b90606435906084359060a4356003811015610015579060c4359060e43590565b67ffffffffffffffff8111611a755760051b60200190565b9080601f83011215610015578135611bcd81611b9e565b92611bdb6040519485611aa5565b81845260208085019260051b82010192831161001557602001905b828210611c035750505090565b8135815260209182019101611bf6565b9080601f83011215610015578135611c2a81611b9e565b92611c386040519485611aa5565b81845260208085019260051b820101918383116100155760208201905b838210611c6457505050505090565b813567ffffffffffffffff811161001557602091611c8787848094880101611ae4565b815201910190611c55565b15611c9957565b606460405162461bcd60e51b815260206004820152601c60248201527f63616c6c6572206973206e6f742073746174696f6e206b6565706572000000006044820152fd5b91908203918211611cea57565b634e487b7160e01b5f52601160045260245ffd5b91908201809211611cea57565b91908260a091031261001557604051611d2381611a89565b6080808294805184526020810151602085015260408101516040850152606081015160608501520151910152565b90601f19601f602080948051918291828752018686015e5f8582860101520116010190565b6003111561037f57565b6008111561037f57565b8051821015611d9e5760209160051b010190565b634e487b7160e01b5f52603260045260245ffd5b81601f8201121561001557805190611dc982611ac8565b92611dd76040519485611aa5565b8284526020838301011161001557815f9260208093018386015e8301015290565b6020818303126100155780519067ffffffffffffffff82116100155701906101a08282031261001557604051916101a0830183811067ffffffffffffffff821117611a755760405280516001600160a01b038116810361001557835260208101516001600160a01b038116810361001557602084015260408101516003811015610015576040840152606081015160088110156100155760608401526080810151600381101561001557608084015260a081015167ffffffffffffffff81116100155761018092611eca918301611db2565b60a084015260c081015160c084015260e081015160e0840152610100810151610100840152610120810151610120840152610140810151610140840152610160810151610160840152015161018082015290565b6001600160a01b03168015611fba576001600160a01b037f9016d09d72d40fdae2fd8ceac6b6234c7706214fd39c1cd1e609a0528c199300548273ffffffffffffffffffffffffffffffffffffffff198216177f9016d09d72d40fdae2fd8ceac6b6234c7706214fd39c1cd1e609a0528c19930055167f8be0079c531659141344cd1fd0a4f28419497f9722a3daafe3b4186f6b6457e05f80a3565b7f1e4fbdf7000000000000000000000000000000000000000000000000000000005f525f60045260245ffd5b9391905f60e0604051611ff881611a58565b8281528260208201528260408201528260608201528260808201528260a08201528260c082015201526001600160a01b0380600154169181604051977f702c2b74000000000000000000000000000000000000000000000000000000008952166004880152166024860152606060448601526020858061207b6064820186611d51565b0381845afa948515611932575f9561220a575b506120d19160209160405180809581947f05ca57cf0000000000000000000000000000000000000000000000000000000083528660048401526024830190611d51565b03915afa908115611932575f916121c6575b50610100926001600160a01b0360649260405196879586947f32a84502000000000000000000000000000000000000000000000000000000008652600486015260248501526044840152165afa908115611932575f91612141575090565b9050610100813d82116121be575b8161215d6101009383611aa5565b810103126100155760e06040519161217483611a58565b805183526020810151602084015260408101516040840152606081015160608401526080810151608084015260a081015160a084015260c081015160c0840152015160e082015290565b3d915061214f565b90506020813d602011612202575b816121e160209383611aa5565b8101031261001557516001600160a01b0381168103610015576101006120e3565b3d91506121d4565b9094506020813d602011612238575b8161222660209383611aa5565b810103126100155751936120d161208e565b3d9150612219565b6001600160a01b03604460a0925f608060405161225c81611a89565b828152826020820152826040820152826060820152015282600154168360405196879586947fccf1a4b20000000000000000000000000000000000000000000000000000000086521660048501521660248301525afa908115611932575f916122c3575090565b905060a03d60a0116122f2575b6122da8183611aa5565b810160a082820312610015576122ef91611d0b565b90565b503d6122d0565b90916001600160a01b0360015416803b15610015575f928360e49260806001600160a01b039586604051998a9889977fe448cc41000000000000000000000000000000000000000000000000000000008952166004880152166024860152805160448601526020810151606486015260408101516084860152606081015160a4860152015160c48401525af18015611932576123925750565b5f61239c91611aa5565b565b9891959697906001600160a01b036002541696873b15610015576001600160a01b036123f592819c60046040519e8f9263308b99cb60e21b8452169101521660248c01526101a060448c01526101a48b0190611d51565b926123ff81611d76565b60648a01525f978997889687966001608489015260a488015260c487015260e48601528861010486015261012485015261014484015286610164840152610184830152039134905af18015611932576123925750565b979094939291946001600160a01b036002541695863b15610015576001600160a01b036124ab928163308b99cb60e21b9c6040519d8e521660048d01521660248b01526101a060448b01526101a48a0190611d51565b916124b581611d76565b60648901525f968896879586956002608488015260a487015260c48601528860e4860152610104850152876101248501526101448401526001610164840152610184830152039134905af18015611932576123925750565b6001600160a01b037f9016d09d72d40fdae2fd8ceac6b6234c7706214fd39c1cd1e609a0528c1993005416330361254057565b7f118cdaa7000000000000000000000000000000000000000000000000000000005f523360045260245ffd5b906001600160a01b036001541690813b15610015576040517fd3c2d8b70000000000000000000000000000000000000000000000000000000081526001600160a01b039384166004820152921660248301525f60448301819052908290606490829084905af18015611932576123925750565b906001600160a01b036001541690813b15610015576040517fd3c2d8b70000000000000000000000000000000000000000000000000000000081526001600160a01b03938416600482015292166024830152600a60448301525f908290606490829084905af18015611932576123925750565b5f9060033d1161265e57565b905060045f803e5f5160e01c90565b5f60443d106122ef576040516003193d016004823e8051913d602484011167ffffffffffffffff8411176126db578282019283519167ffffffffffffffff83116126d3576003193d850101602084870101116126d357506122ef92910160200190611aa5565b949350505050565b92915050565b3d1561270b573d906126f282611ac8565b916127006040519384611aa5565b82523d5f602084013e565b606090565b93979695926001600160a01b0360c09693816127409416875216602086015260e0604086015260e0850190611d51565b966060840152608083015261275481611d76565b60a08201520152565b9491926001600160a01b0360e0979481612792949c9b9a979c1688521660208701526101006040870152610100860190611d51565b97606085015260808401526127a681611d76565b60a083015260c08201520152565b906002546001600160a01b035f911691604051927f0c3fc6b90000000000000000000000000000000000000000000000000000000084528460048501525f84602481845afa908115611932576024945f92613c8c575b505f90604051958680927f0187703f0000000000000000000000000000000000000000000000000000000082528960048301525afa938415611932575f94613bd0575b506020840191600183511480613bb0575b613518576101808201805142116134f957604460206001600160a01b0360035416604051928380927fe6b34c690000000000000000000000000000000000000000000000000000000082528c60048301528760248301525afa9081156109835786916134be575b506128d4575b50505050505050565b6001845114612d9f575060e0820190815260808201600181516128f681611d76565b6128ff81611d76565b03612bc5575061291a61010083015161012084015190611cfe565b6001600160a01b0383511660208401966001600160a01b038851169160a086019283519160c0880195865197519760408a019889519161295983611d76565b303b15612bc157928f8e9694936129a1938897956040519a8b9889987f6332d726000000000000000000000000000000000000000000000000000000008a5260048a0161275d565b038183305af19182612bac575b5050612acd575050505050506001906129c5612652565b6308c379a014612a50575b506129e5575b50505b5f8080808080806128cb565b7f4c94adf18d8bfad12d476c7b93150b992bfa3fb9a83d713dd8a97359b7413f8291612a236001600160a01b03612a1a6126e1565b93511682613d7c565b612a46604051928392600584526020840152606060408401526060830190611d51565b0390a15f806129d6565b612a5861266d565b9081612a65575b506129d0565b7f356c1ed0403936d05af0abea05fbda16720ce964f55d7010cee1ba6cd8e1f60a919250612ac39092612aa26001600160a01b0386511687613d7c565b60405191829160058352876020840152606060408401526060830190611d51565b0390a15f80612a5f565b61014085979a999698939495019360028551995114612b01575b5050505050508461239c9495505060036060830152613d01565b6060820190815115801590612b9f575b612b1c575b50612ae7565b90919293949598612b329060011c809751611cdd565b9860a06001600160a01b03808b51169751169551915192612b5284611d76565b519351940151946312cc0300420196874211612b8b5791612b7e9795939161239c9d9e99979593612455565b94935f8080808080612b16565b60248e634e487b7160e01b81526011600452fd5b5060a08301511515612b11565b81612bb691611aa5565b61117457875f6129ae565b8d80fd5b909450600291925051612bd781611d76565b612be081611d76565b14612bef575b505050506129d9565b6001600160a01b038151169260208201936001600160a01b038551169060a08401519260c08501519051604086015191612c2883611d76565b303b156111745789889593869593612c5593604051998a9788976307e7148560e01b895260048901612710565b038183305af19182612d8a575b5050612d6f5750600190612c74612652565b6308c379a014612cf2575b50612c90575b50505f808080612be6565b7f4c94adf18d8bfad12d476c7b93150b992bfa3fb9a83d713dd8a97359b7413f8291612cc56001600160a01b03612a1a6126e1565b612ce8604051928392600684526020840152606060408401526060830190611d51565b0390a15f80612c85565b612cfa61266d565b9081612d07575b50612c7f565b7f356c1ed0403936d05af0abea05fbda16720ce964f55d7010cee1ba6cd8e1f60a919250612d659092612d446001600160a01b0386511687613d7c565b60405191829160068352876020840152606060408401526060830190611d51565b0390a15f80612d01565b9061239c939250506003606082015261014081015191613d01565b81612d9491611aa5565b61034c57825f612c62565b90925061014082019081519060016080850151612dbb81611d76565b612dc481611d76565b14612dd4575b5050505050505050565b60408701805180159081156134b0575b508015613484575b8015613458575b156130ac575050508260e08301526001600160a01b038251169260208301956001600160a01b038751169160a085019283519060c087019788516040890194855190612e3e82611d76565b303b156130a857918e8d959392869593612e99604051998a9788977f6332d726000000000000000000000000000000000000000000000000000000008952600489015260248801526101006044880152610104870190611d51565b9360648601526084850152612ead81611d76565b60a484015260c48301528360e4830152038183305af19182613093575b5050612fe157505050505050600190612ee1612652565b6308c379a014612f64575b50612f02575b50505b5f80808080808080612dca565b7f4c94adf18d8bfad12d476c7b93150b992bfa3fb9a83d713dd8a97359b7413f8291612f376001600160a01b03612a1a6126e1565b612f5a604051928392600384526020840152606060408401526060830190611d51565b0390a15f80612ef2565b612f6c61266d565b9081612f79575b50612eec565b7f356c1ed0403936d05af0abea05fbda16720ce964f55d7010cee1ba6cd8e1f60a919250612fd79092612fb66001600160a01b0386511687613d7c565b60405191829160038352876020840152606060408401526060830190611d51565b0390a15f80612f73565b612ff88495979a999698945160011c809651611cdd565b976060830191825115801590613086575b61302e575b50505050505050846130299495505060036060830152613d01565b612ef5565b60a06001600160a01b03808b5116975116955191519261304d84611d76565b519351940151946312cc0300420196874211612b8b5791613079979593916130299d9e99979593612455565b94935f808080808061300e565b5060a08401511515613009565b8161309d91611aa5565b61117457875f612eca565b8c80fd5b9196938095506001600160a01b03919350511660208501966001600160a01b038851169260a08701519460c088015191516040890151916130ec83611d76565b5192303b156134545792613135928b9795928897956040519a8b9889987f068c9c26000000000000000000000000000000000000000000000000000000008a5260048a0161275d565b038183305af1918261343f575b505061324c575050600190613155612652565b6308c379a0146131cf575b5061316d575b5050612ef5565b7f4c94adf18d8bfad12d476c7b93150b992bfa3fb9a83d713dd8a97359b7413f82916131a26001600160a01b03612a1a6126e1565b6131c5604051928392600484526020840152606060408401526060830190611d51565b0390a15f80613166565b6131d761266d565b90816131e4575b50613160565b7f356c1ed0403936d05af0abea05fbda16720ce964f55d7010cee1ba6cd8e1f60a91925061324290926132216001600160a01b0386511687613d7c565b60405191829160048352876020840152606060408401526060830190611d51565b0390a15f806131de565b90919392506060810190815115801590613432575b613301575b505060600190600382526001600160a01b036002541691519061328882611d80565b823b156109a25790606484928360405195869485937fac89c79800000000000000000000000000000000000000000000000000000000855260048501526132ce81611d80565b60248401528160448401525af18015610350576132ec575050612ef5565b6132f7828092611aa5565b6109a45780613166565b6001600160a01b036002541691604051907f49138690000000000000000000000000000000000000000000000000000000008252602082600481875afa918215610b775787926133fe575b505f1982019182116133ea5760a0905192015192803b156133e6578692918360e49260405196879586947fbe63309e000000000000000000000000000000000000000000000000000000008652600486015260026024860152836044860152606485015282608485015260a48401528160c48401525af1801561080e579084911561326657816133db91611aa5565b61034c57825f613266565b8680fd5b602487634e487b7160e01b81526011600452fd5b9091506020813d60201161342a575b8161341a60209383611aa5565b810103126100155751905f61334c565b3d915061340d565b5060a08101511515613261565b8161344991611aa5565b6109a257835f613142565b8a80fd5b506002604086015161346981611d76565b61347281611d76565b148015612df357508051861015612df3565b506001604086015161349581611d76565b61349e81611d76565b148015612dec57508051861115612dec565b905060e0860151145f612de4565b90506020813d6020116134f1575b816134d960209383611aa5565b8101031261097757518015158103610977575f6128c5565b3d91506134cc565b505061239c9493506001600160a01b0392506020915001511690613d7c565b93909150606081019384511580613ba4575b8015613b96575b8015613b4d575b613b305780945f928151151580613ac5575b156139a0576080019182518015928315613995575b50508115613962575b811561392c575b50156139235750506001905b61014081018051921561372657506001600160a01b038151169360208201946001600160a01b038651169060a08401519260c0850151906040860151916135c183611d76565b303b15610393578a8995938695936135ee93604051998a9788976307e7148560e01b895260048901612710565b038183305af19182613711575b50506136fc57505060019061360e612652565b6308c379a01461367f575b50613622575050565b7f4c94adf18d8bfad12d476c7b93150b992bfa3fb9a83d713dd8a97359b7413f82916136576001600160a01b03612a1a6126e1565b61367a604051928392600184526020840152606060408401526060830190611d51565b0390a1565b61368761266d565b9081613694575b50613619565b7f356c1ed0403936d05af0abea05fbda16720ce964f55d7010cee1ba6cd8e1f60a9192506136f290926136d16001600160a01b0386511687613d7c565b60405191829160018352876020840152606060408401526060830190611d51565b0390a15f8061368e565b9161239c949193505060036060830152613d01565b8161371b91611aa5565b6109a257835f6135fb565b916137369060011c809351611cdd565b916001600160a01b0360025416946001600160a01b0383511660208401966001600160a01b0388511660a08601519260408701519061377482611d76565b60c08801519161018089015197853b15610015576137c1985f9889956040519b8c9a8b998a9863308b99cb60e21b8a5260048a015260248901526101a060448901526101a4880190611d51565b946137cb81611d76565b60648701526002608487015260a486015260c48501528460e485015284610104850152846101248501526101448401528361016484015261018483015203925af1908161390e575b506136fc575050600190613825612652565b6308c379a014613891575b50613839575050565b7f4c94adf18d8bfad12d476c7b93150b992bfa3fb9a83d713dd8a97359b7413f829161386e6001600160a01b03612a1a6126e1565b61367a604051928392600284526020840152606060408401526060830190611d51565b61389961266d565b90816138a6575b50613830565b7f356c1ed0403936d05af0abea05fbda16720ce964f55d7010cee1ba6cd8e1f60a91925061390490926138e36001600160a01b0386511687613d7c565b60405191829160028352876020840152606060408401526060830190611d51565b0390a15f806138a0565b61391b9194505f90611aa5565b5f925f613813565b5193509061357b565b90506002604085015161393e81611d76565b61394781611d76565b149081613956575b505f61356f565b9050815110155f61394f565b90506001604085015161397481611d76565b61397d81611d76565b148061398a575b90613568565b508082511115613984565b511491505f8061355f565b905060a08101908151151580613a5a575b15612dca5760c0019182518015928315613a4f575b50508115613a1c575b81156139e6575b501561392357505060019061357b565b9050600260408501516139f881611d76565b613a0181611d76565b149081613a10575b505f6139d6565b9050815110155f613a09565b905060016040850151613a2e81611d76565b613a3781611d76565b1480613a44575b906139cf565b508082511115613a3e565b511491505f806139c6565b506040850160018151613a6c81611d76565b613a7581611d76565b149081613ab9575b8115613a8a575b506139b1565b6002915051613a9881611d76565b613aa181611d76565b1480613aae575b5f613a84565b508151831015613aa8565b83518511159150613a7d565b506040850160018151613ad781611d76565b613ae081611d76565b149081613b24575b8115613af5575b5061354a565b6002915051613b0381611d76565b613b0c81611d76565b1480613b19575b5f613aef565b508151831115613b13565b83518510159150613ae8565b5050905061239c9291506003606082015261014081015191613d01565b506060830160018151613b5f81611d80565b613b6881611d80565b14159081613b77575b50613538565b6002915051613b8581611d80565b613b8e81611d80565b14155f613b71565b506101808301514211613531565b5060a08201511561352a565b5060026080830151613bc181611d76565b613bca81611d76565b1461285e565b9093503d805f833e613be28183611aa5565b8101906020818303126100155780519067ffffffffffffffff821161001557019060e082820312610015576040519160e0830183811067ffffffffffffffff821117611a7557604052805167ffffffffffffffff81116100155760c092613c4a918301611db2565b83526020810151602084015260408101516040840152606081015160608401526080810151608084015260a081015160a0840152015160c0820152925f61284d565b5f919250613ca3903d8084833e610dcd8183611aa5565b919061280a565b60ff7ff0c57e16840df040f15088dc2f81fe391c3923bec73e23a9662efc9c229c6a005460401c1615613cd957565b7fd7e6bcf8000000000000000000000000000000000000000000000000000000005f5260045ffd5b9060606001600160a01b036002541691015190613d1d82611d80565b803b15610015575f928360649260405196879586947fac89c7980000000000000000000000000000000000000000000000000000000086526004860152613d6381611d80565b602485015260448401525af18015611932576123925750565b6001600160a01b036003541691823b156100155760645f92836001600160a01b039560405196879586947fc2b3356400000000000000000000000000000000000000000000000000000000865260048601521660248401528160448401525af1801561193257612392575056fea264697066735822122061fb25611a5e8ad8d4eaa8b4ca787e363475371b12205e3a28574095a46a309564736f6c634300081c0033",
  "linkReferences": {},
  "deployedLinkReferences": {}
}