{
  "_format": "hh-sol-artifact-1",
  "contractName": "TradeStation",
  "sourceName": "contracts/TradeStation.sol",
  "abi": [
    {
      "inputs": [],
      "name": "InvalidInitialization",
      "type": "error"
    },
    {
      "inputs": [],
      "name": "NotInitializing",
      "type": "error"
    },
    {
      "inputs": [
        {
          "internalType": "address",
          "name": "owner",
          "type": "address"
        }
      ],
      "name": "OwnableInvalidOwner",
      "type": "error"
    },
    {
      "inputs": [
        {
          "internalType": "address",
          "name": "account",
          "type": "address"
        }
      ],
      "name": "OwnableUnauthorizedAccount",
      "type": "error"
    },
    {
      "anonymous": false,
      "inputs": [
        {
          "indexed": false,
          "internalType": "address",
          "name": "token",
          "type": "address"
        },
        {
          "indexed": false,
          "internalType": "address",
          "name": "holder",
          "type": "address"
        },
        {
          "indexed": false,
          "internalType": "string",
          "name": "name",
          "type": "string"
        },
        {
          "indexed": false,
          "internalType": "enum ICommon.Direct",
          "name": "direct",
          "type": "uint8"
        },
        {
          "indexed": false,
          "internalType": "uint256",
          "name": "value",
          "type": "uint256"
        },
        {
          "indexed": false,
          "internalType": "uint256",
          "name": "size",
          "type": "uint256"
        },
        {
          "indexed": false,
          "internalType": "uint256",
          "name": "margin",
          "type": "uint256"
        },
        {
          "indexed": false,
          "internalType": "uint256",
          "name": "freeze",
          "type": "uint256"
        }
      ],
      "name": "AccountPosition",
      "type": "event"
    },
    {
      "anonymous": false,
      "inputs": [
        {
          "indexed": false,
          "internalType": "address",
          "name": "token",
          "type": "address"
        },
        {
          "indexed": false,
          "internalType": "address",
          "name": "taker",
          "type": "address"
        },
        {
          "indexed": false,
          "internalType": "uint256",
          "name": "amount",
          "type": "uint256"
        },
        {
          "indexed": false,
          "internalType": "uint256",
          "name": "availableAmount",
          "type": "uint256"
        },
        {
          "indexed": false,
          "internalType": "uint256",
          "name": "marginAmount",
          "type": "uint256"
        },
        {
          "indexed": false,
          "internalType": "uint256",
          "name": "locked",
          "type": "uint256"
        },
        {
          "indexed": false,
          "internalType": "uint256",
          "name": "stage",
          "type": "uint256"
        },
        {
          "indexed": false,
          "internalType": "uint256",
          "name": "dif",
          "type": "uint256"
        }
      ],
      "name": "BalanceOfTaker",
      "type": "event"
    },
    {
      "anonymous": false,
      "inputs": [
        {
          "indexed": false,
          "internalType": "string",
          "name": "name",
          "type": "string"
        },
        {
          "indexed": true,
          "internalType": "address",
          "name": "taker",
          "type": "address"
        },
        {
          "indexed": true,
          "internalType": "address",
          "name": "token",
          "type": "address"
        },
        {
          "indexed": false,
          "internalType": "uint256",
          "name": "orderID",
          "type": "uint256"
        },
        {
          "indexed": false,
          "internalType": "enum ICommon.Direct",
          "name": "orderType",
          "type": "uint8"
        },
        {
          "indexed": false,
          "internalType": "enum IPerpetual.OrderState",
          "name": "state",
          "type": "uint8"
        },
        {
          "indexed": false,
          "internalType": "enum ICommon.Offset",
          "name": "offset",
          "type": "uint8"
        },
        {
          "indexed": false,
          "internalType": "uint256",
          "name": "amount",
          "type": "uint256"
        },
        {
          "indexed": false,
          "internalType": "uint256",
          "name": "targetPrice",
          "type": "uint256"
        },
        {
          "indexed": false,
          "internalType": "uint256",
          "name": "margin",
          "type": "uint256"
        },
        {
          "indexed": false,
          "internalType": "uint256",
          "name": "rewardGas",
          "type": "uint256"
        },
        {
          "indexed": false,
          "internalType": "uint256",
          "name": "tradingFee",
          "type": "uint256"
        },
        {
          "indexed": false,
          "internalType": "uint256",
          "name": "startTime",
          "type": "uint256"
        },
        {
          "indexed": false,
          "internalType": "uint256",
          "name": "goodTill",
          "type": "uint256"
        }
      ],
      "name": "CreateLimitedOrder",
      "type": "event"
    },
    {
      "anonymous": false,
      "inputs": [
        {
          "indexed": false,
          "internalType": "uint256",
          "name": "limitOrderID",
          "type": "uint256"
        },
        {
          "indexed": false,
          "internalType": "uint256",
          "name": "openLimitPrice",
          "type": "uint256"
        },
        {
          "indexed": false,
          "internalType": "uint256",
          "name": "gainTriggerPrice",
          "type": "uint256"
        },
        {
          "indexed": false,
          "internalType": "uint256",
          "name": "gainLimitPrice",
          "type": "uint256"
        },
        {
          "indexed": false,
          "internalType": "uint256",
          "name": "lossTriggerPrice",
          "type": "uint256"
        },
        {
          "indexed": false,
          "internalType": "uint256",
          "name": "lossLimitPrice",
          "type": "uint256"
        }
      ],
      "name": "CreateTriggerCondition",
      "type": "event"
    },
    {
      "anonymous": false,
      "inputs": [
        {
          "indexed": false,
          "internalType": "uint256",
          "name": "code",
          "type": "uint256"
        },
        {
          "indexed": false,
          "internalType": "uint256",
          "name": "orderID",
          "type": "uint256"
        },
        {
          "indexed": false,
          "internalType": "string",
          "name": "message",
          "type": "string"
        }
      ],
      "name": "ErrorInfo",
      "type": "event"
    },
    {
      "anonymous": false,
      "inputs": [
        {
          "indexed": false,
          "internalType": "uint256",
          "name": "code",
          "type": "uint256"
        },
        {
          "indexed": false,
          "internalType": "uint256",
          "name": "orderID",
          "type": "uint256"
        },
        {
          "indexed": false,
          "internalType": "bytes",
          "name": "message",
          "type": "bytes"
        }
      ],
      "name": "ExceptErrorInfo",
      "type": "event"
    },
    {
      "anonymous": false,
      "inputs": [
        {
          "indexed": false,
          "internalType": "uint64",
          "name": "version",
          "type": "uint64"
        }
      ],
      "name": "Initialized",
      "type": "event"
    },
    {
      "anonymous": false,
      "inputs": [
        {
          "indexed": false,
          "internalType": "string",
          "name": "name",
          "type": "string"
        },
        {
          "indexed": true,
          "internalType": "address",
          "name": "taker",
          "type": "address"
        },
        {
          "indexed": true,
          "internalType": "address",
          "name": "token",
          "type": "address"
        },
        {
          "indexed": false,
          "internalType": "uint256",
          "name": "orderID",
          "type": "uint256"
        },
        {
          "indexed": false,
          "internalType": "enum ICommon.Direct",
          "name": "orderType",
          "type": "uint8"
        },
        {
          "indexed": false,
          "internalType": "enum IPerpetual.OrderState",
          "name": "state",
          "type": "uint8"
        },
        {
          "indexed": false,
          "internalType": "enum ICommon.Offset",
          "name": "offset",
          "type": "uint8"
        },
        {
          "indexed": false,
          "internalType": "uint256",
          "name": "amount",
          "type": "uint256"
        },
        {
          "indexed": false,
          "internalType": "uint256",
          "name": "targetPrice",
          "type": "uint256"
        },
        {
          "indexed": false,
          "internalType": "uint256",
          "name": "margin",
          "type": "uint256"
        },
        {
          "indexed": false,
          "internalType": "uint256",
          "name": "rewardGas",
          "type": "uint256"
        },
        {
          "indexed": false,
          "internalType": "uint256",
          "name": "tradingFee",
          "type": "uint256"
        },
        {
          "indexed": false,
          "internalType": "uint256",
          "name": "startTime",
          "type": "uint256"
        },
        {
          "indexed": false,
          "internalType": "uint256",
          "name": "goodTill",
          "type": "uint256"
        }
      ],
      "name": "LimitedOrderHistory",
      "type": "event"
    },
    {
      "anonymous": false,
      "inputs": [
        {
          "indexed": true,
          "internalType": "address",
          "name": "taker",
          "type": "address"
        },
        {
          "indexed": false,
          "internalType": "string",
          "name": "name",
          "type": "string"
        },
        {
          "indexed": false,
          "internalType": "address",
          "name": "token",
          "type": "address"
        },
        {
          "indexed": false,
          "internalType": "uint256",
          "name": "orderID",
          "type": "uint256"
        },
        {
          "indexed": false,
          "internalType": "enum ICommon.Direct",
          "name": "direction",
          "type": "uint8"
        },
        {
          "indexed": false,
          "internalType": "enum IPerpetual.OrderType",
          "name": "orderType",
          "type": "uint8"
        },
        {
          "indexed": false,
          "internalType": "uint256",
          "name": "amount",
          "type": "uint256"
        },
        {
          "indexed": false,
          "internalType": "uint256",
          "name": "costPrice",
          "type": "uint256"
        },
        {
          "indexed": false,
          "internalType": "uint256",
          "name": "price",
          "type": "uint256"
        },
        {
          "indexed": false,
          "internalType": "uint256",
          "name": "tradingFee",
          "type": "uint256"
        },
        {
          "indexed": false,
          "internalType": "uint256",
          "name": "leverage",
          "type": "uint256"
        },
        {
          "indexed": false,
          "internalType": "uint256",
          "name": "marginAmount",
          "type": "uint256"
        },
        {
          "indexed": false,
          "internalType": "uint256",
          "name": "limitOrderId",
          "type": "uint256"
        },
        {
          "indexed": false,
          "internalType": "uint256",
          "name": "timestamp",
          "type": "uint256"
        }
      ],
      "name": "OrderHistory",
      "type": "event"
    },
    {
      "anonymous": false,
      "inputs": [
        {
          "indexed": true,
          "internalType": "address",
          "name": "previousOwner",
          "type": "address"
        },
        {
          "indexed": true,
          "internalType": "address",
          "name": "newOwner",
          "type": "address"
        }
      ],
      "name": "OwnershipTransferred",
      "type": "event"
    },
    {
      "anonymous": false,
      "inputs": [
        {
          "indexed": false,
          "internalType": "address",
          "name": "token",
          "type": "address"
        },
        {
          "indexed": false,
          "internalType": "uint256",
          "name": "orderID",
          "type": "uint256"
        },
        {
          "indexed": false,
          "internalType": "uint256",
          "name": "dealID",
          "type": "uint256"
        },
        {
          "indexed": false,
          "internalType": "enum IPerpetual.TradeType",
          "name": "tradeType",
          "type": "uint8"
        },
        {
          "indexed": false,
          "internalType": "uint256",
          "name": "amount",
          "type": "uint256"
        },
        {
          "indexed": false,
          "internalType": "uint256",
          "name": "price",
          "type": "uint256"
        },
        {
          "indexed": false,
          "internalType": "uint256",
          "name": "tradingFee",
          "type": "uint256"
        },
        {
          "indexed": false,
          "internalType": "uint256",
          "name": "leverage",
          "type": "uint256"
        },
        {
          "indexed": false,
          "internalType": "uint256",
          "name": "marginAmount",
          "type": "uint256"
        },
        {
          "indexed": false,
          "internalType": "uint256",
          "name": "profit",
          "type": "uint256"
        },
        {
          "indexed": false,
          "internalType": "uint256",
          "name": "loss",
          "type": "uint256"
        },
        {
          "indexed": false,
          "internalType": "uint256",
          "name": "timestamp",
          "type": "uint256"
        }
      ],
      "name": "TradeHistory",
      "type": "event"
    },
    {
      "anonymous": false,
      "inputs": [
        {
          "indexed": true,
          "internalType": "address",
          "name": "token",
          "type": "address"
        },
        {
          "indexed": true,
          "internalType": "address",
          "name": "sender",
          "type": "address"
        },
        {
          "indexed": true,
          "internalType": "address",
          "name": "received",
          "type": "address"
        },
        {
          "indexed": false,
          "internalType": "enum ICommon.TransactionType",
          "name": "transactionType",
          "type": "uint8"
        },
        {
          "indexed": false,
          "internalType": "uint256",
          "name": "amount",
          "type": "uint256"
        },
        {
          "indexed": false,
          "internalType": "uint256",
          "name": "timestamp",
          "type": "uint256"
        }
      ],
      "name": "TransactionHistory",
      "type": "event"
    },
    {
      "anonymous": false,
      "inputs": [
        {
          "indexed": false,
          "internalType": "address",
          "name": "token",
          "type": "address"
        },
        {
          "indexed": false,
          "internalType": "address",
          "name": "sender",
          "type": "address"
        },
        {
          "indexed": false,
          "internalType": "string",
          "name": "name",
          "type": "string"
        },
        {
          "indexed": false,
          "internalType": "uint256",
          "name": "beforeLeverage",
          "type": "uint256"
        },
        {
          "indexed": false,
          "internalType": "uint256",
          "name": "afterLeverage",
          "type": "uint256"
        }
      ],
      "name": "setLeverage",
      "type": "event"
    },
    {
      "stateMutability": "nonpayable",
      "type": "fallback"
    },
    {
      "inputs": [
        {
          "internalType": "address",
          "name": "_token",
          "type": "address"
        },
        {
          "internalType": "address",
          "name": "_taker",
          "type": "address"
        },
        {
          "internalType": "uint256",
          "name": "_deposit",
          "type": "uint256"
        },
        {
          "internalType": "string[]",
          "name": "_pairs",
          "type": "string[]"
        },
        {
          "internalType": "uint256[]",
          "name": "_prices",
          "type": "uint256[]"
        }
      ],
      "name": "clearingTaker",
      "outputs": [
        {
          "internalType": "uint256",
          "name": "remainingDeposit",
          "type": "uint256"
        }
      ],
      "stateMutability": "nonpayable",
      "type": "function"
    },
    {
      "inputs": [
        {
          "internalType": "address",
          "name": "_token",
          "type": "address"
        },
        {
          "internalType": "address",
          "name": "_taker",
          "type": "address"
        },
        {
          "internalType": "string",
          "name": "_name",
          "type": "string"
        },
        {
          "internalType": "uint256",
          "name": "_amount",
          "type": "uint256"
        },
        {
          "internalType": "uint256",
          "name": "_price",
          "type": "uint256"
        },
        {
          "internalType": "enum ICommon.Direct",
          "name": "_type",
          "type": "uint8"
        },
        {
          "internalType": "uint256",
          "name": "_limitID",
          "type": "uint256"
        }
      ],
      "name": "closeOrder",
      "outputs": [],
      "stateMutability": "nonpayable",
      "type": "function"
    },
    {
      "inputs": [
        {
          "internalType": "string",
          "name": "_name",
          "type": "string"
        },
        {
          "internalType": "address",
          "name": "_token",
          "type": "address"
        },
        {
          "internalType": "uint256",
          "name": "_amount",
          "type": "uint256"
        },
        {
          "internalType": "uint256",
          "name": "_orderType",
          "type": "uint256"
        },
        {
          "internalType": "uint256",
          "name": "_price",
          "type": "uint256"
        },
        {
          "internalType": "enum ICommon.Direct",
          "name": "_type",
          "type": "uint8"
        },
        {
          "internalType": "uint256",
          "name": "_goodTill",
          "type": "uint256"
        },
        {
          "internalType": "address",
          "name": "_taker",
          "type": "address"
        },
        {
          "internalType": "uint256",
          "name": "_rewardGas",
          "type": "uint256"
        }
      ],
      "name": "closePosition",
      "outputs": [],
      "stateMutability": "payable",
      "type": "function"
    },
    {
      "inputs": [
        {
          "internalType": "address",
          "name": "_priPool",
          "type": "address"
        },
        {
          "internalType": "address",
          "name": "_perpetual",
          "type": "address"
        }
      ],
      "name": "initialize",
      "outputs": [],
      "stateMutability": "nonpayable",
      "type": "function"
    },
    {
      "inputs": [
        {
          "internalType": "address",
          "name": "_token",
          "type": "address"
        },
        {
          "internalType": "address",
          "name": "_taker",
          "type": "address"
        },
        {
          "internalType": "string",
          "name": "_name",
          "type": "string"
        },
        {
          "internalType": "uint256",
          "name": "_amount",
          "type": "uint256"
        },
        {
          "internalType": "uint256",
          "name": "_price",
          "type": "uint256"
        },
        {
          "internalType": "enum ICommon.Direct",
          "name": "_type",
          "type": "uint8"
        },
        {
          "internalType": "uint256",
          "name": "_goodTill",
          "type": "uint256"
        },
        {
          "internalType": "uint256",
          "name": "_rewardsGas",
          "type": "uint256"
        }
      ],
      "name": "makeOpenLimitOrder",
      "outputs": [],
      "stateMutability": "nonpayable",
      "type": "function"
    },
    {
      "inputs": [
        {
          "internalType": "address",
          "name": "_token",
          "type": "address"
        },
        {
          "internalType": "address",
          "name": "_taker",
          "type": "address"
        },
        {
          "internalType": "string",
          "name": "_name",
          "type": "string"
        },
        {
          "internalType": "uint256",
          "name": "_amount",
          "type": "uint256"
        },
        {
          "internalType": "uint256",
          "name": "_price",
          "type": "uint256"
        },
        {
          "internalType": "enum ICommon.Direct",
          "name": "_type",
          "type": "uint8"
        },
        {
          "internalType": "uint256",
          "name": "_limitOrderID",
          "type": "uint256"
        },
        {
          "internalType": "uint256",
          "name": "_freezeAmount",
          "type": "uint256"
        }
      ],
      "name": "openOrder",
      "outputs": [],
      "stateMutability": "nonpayable",
      "type": "function"
    },
    {
      "inputs": [],
      "name": "owner",
      "outputs": [
        {
          "internalType": "address",
          "name": "",
          "type": "address"
        }
      ],
      "stateMutability": "view",
      "type": "function"
    },
    {
      "inputs": [],
      "name": "renounceOwnership",
      "outputs": [],
      "stateMutability": "nonpayable",
      "type": "function"
    },
    {
      "inputs": [
        {
          "internalType": "address",
          "name": "_orderBook",
          "type": "address"
        },
        {
          "internalType": "address",
          "name": "_agent",
          "type": "address"
        },
        {
          "internalType": "address",
          "name": "_keeper",
          "type": "address"
        }
      ],
      "name": "setKeepers",
      "outputs": [],
      "stateMutability": "nonpayable",
      "type": "function"
    },
    {
      "inputs": [
        {
          "internalType": "string",
          "name": "_name",
          "type": "string"
        },
        {
          "internalType": "address",
          "name": "_token",
          "type": "address"
        },
        {
          "internalType": "uint256",
          "name": "_amount",
          "type": "uint256"
        },
        {
          "internalType": "enum ICommon.Direct",
          "name": "_type",
          "type": "uint8"
        },
        {
          "internalType": "enum ICommon.Offset",
          "name": "_offset",
          "type": "uint8"
        },
        {
          "internalType": "uint256",
          "name": "_param1",
          "type": "uint256"
        },
        {
          "internalType": "uint256",
          "name": "_param2",
          "type": "uint256"
        },
        {
          "internalType": "uint256",
          "name": "_param3",
          "type": "uint256"
        },
        {
          "internalType": "uint256",
          "name": "_param4",
          "type": "uint256"
        },
        {
          "internalType": "uint256",
          "name": "_goodTill",
          "type": "uint256"
        },
        {
          "internalType": "address",
          "name": "_taker",
          "type": "address"
        }
      ],
      "name": "stopTakeOrder",
      "outputs": [],
      "stateMutability": "payable",
      "type": "function"
    },
    {
      "inputs": [
        {
          "internalType": "string",
          "name": "_name",
          "type": "string"
        },
        {
          "internalType": "address",
          "name": "_token",
          "type": "address"
        },
        {
          "internalType": "uint256",
          "name": "_amount",
          "type": "uint256"
        },
        {
          "internalType": "uint256",
          "name": "_price",
          "type": "uint256"
        },
        {
          "internalType": "uint256",
          "name": "_orderType",
          "type": "uint256"
        },
        {
          "internalType": "enum ICommon.Direct",
          "name": "_type",
          "type": "uint8"
        },
        {
          "internalType": "uint256",
          "name": "_goodTill",
          "type": "uint256"
        },
        {
          "internalType": "address",
          "name": "_taker",
          "type": "address"
        },
        {
          "internalType": "uint256",
          "name": "_rewardGas",
          "type": "uint256"
        }
      ],
      "name": "tradeFutures",
      "outputs": [],
      "stateMutability": "payable",
      "type": "function"
    },
    {
      "inputs": [
        {
          "internalType": "address",
          "name": "newOwner",
          "type": "address"
        }
      ],
      "name": "transferOwnership",
      "outputs": [],
      "stateMutability": "nonpayable",
      "type": "function"
    },
    {
      "inputs": [
        {
          "internalType": "uint256[]",
          "name": "_orderID",
          "type": "uint256[]"
        },
        {
          "internalType": "string[]",
          "name": "_symbols",
          "type": "string[]"
        },
        {
          "internalType": "uint256[]",
          "name": "_prices",
          "type": "uint256[]"
        }
      ],
      "name": "triggerOrders",
      "outputs": [],
      "stateMutability": "nonpayable",
      "type": "function"
    }
  ],
  "bytecode": "0x60808060405234601557613e78908161001b8239f35b600080fdfe6080604052600436101561001a575b3461001557005b600080fd5b6000803560e01c8063068c9c26146118a557806307e714851461168f57806310881a73146115c15780631f3085fb146110ed578063485cc95514610e355780636332d72614610be7578063715018a614610b41578063810c8af6146108fa57806387ebfcfa146105635780638da5cb5b1461051d578063bcef60d7146102cb578063c59b4d78146100e45763f2fde38b146100b5575061000e565b346100e15760206003193601126100e1576100de6100d1611941565b6100d96124f4565b611ecb565b80f35b80fd5b50346100e15760a06003193601126100e1576100fe611941565b90610107611957565b9160643567ffffffffffffffff81116102c757610128903690600401611ba4565b60843567ffffffffffffffff81116102c357610148903690600401611b47565b338452600460205261016060ff604086205416611c23565b604435946001600160a01b03808695169116915b83518510156102b85785965b60ff88169060028210156102ab576001600160a01b03600254169060016101a78989611d40565b51930160ff81116102975791868a878b61021e97956101d560ff60209916926101cf84611d2c565b8b611d40565b51604051998a98899788967f509423550000000000000000000000000000000000000000000000000000000088526004880152602487015260c0604487015260c4860190611d07565b9261022881611d2c565b6064850152608484015260a483015203925af190811561028c578791610258575b50600160ff9198011696610180565b905060203d8111610285575b61026e81836119bc565b602082600092810103126100e15750516001610249565b503d610264565b6040513d89823e3d90fd5b60248a634e487b7160e01b81526011600452fd5b9750509360010193610174565b602087604051908152f35b8380fd5b8280fd5b50346100e15760606003193601126100e15760043567ffffffffffffffff8111610519576102fd903690600401611b47565b9060243567ffffffffffffffff81116105195761031e903690600401611ba4565b60443567ffffffffffffffff81116102c7579061034084923690600401611b47565b92338152600460205261035960ff604083205416611c23565b80915b835183101561051557906024916103738486611d40565b5190826001600160a01b0360025416604051958680927f0c3fc6b90000000000000000000000000000000000000000000000000000000082528660048301525afa93841561050a5783946104e6575b5060a08401906103e182516040870151906103dc82611d2c565b612555565b6001600160a01b038551169361040660208701956001600160a01b03875116906125d2565b8097815b83518110156104d45761041d8185611d40565b5160405161044c6020828161043b8183019687815193849201611ce4565b81010301601f1981018352826119bc565b519020855160405161046e6020828161043b8183019687815193849201611ce4565b5190201461047e5760010161040a565b6001969398959299508a610495929b989550611d40565b515b80156104cb576104c0936104b56001600160a01b0393928493612826565b511691511690612648565b01919392909361035c565b505050506104c0565b50989592509692600194919693610497565b6105039194503d8085833e6104fb81836119bc565b810190611d6a565b92876103c2565b6040513d85823e3d90fd5b5080f35b5080fd5b50346100e157806003193601126100e15760206001600160a01b037f9016d09d72d40fdae2fd8ceac6b6234c7706214fd39c1cd1e609a0528c1993005416604051908152f35b5061056d36611ab6565b9190969795929493338a52600460205261058d60ff60408c205416611c23565b6105978688612555565b6105a1888a6125d2565b61081f575050906105cc9133885260046020526105c460ff60408a205416611c23565b848688611f97565b916105d78486612203565b602081019283519160608601928351116107db578051946105fe6040880196875190611c6e565b825261060d8151855190611c6e565b9052610633604082019182519261062a60208a0194855190611c91565b9052888a6122be565b6001600160a01b036002541690813b156107d7576106a2604051957fcc5bc7410000000000000000000000000000000000000000000000000000000087526001600160a01b038b1660048801526001600160a01b038a1660248801526101c060448801526101c4870190611d07565b926106ac81611d2c565b60648601528985809460e0839a849884966001608487015260001960a4870152825160c48701525160e48601528b5161010486015251610124850152608081015161014485015260a081015161016485015260c081015161018485015201516101a483015203925af190811561050a5783916107ac575b50506001600160a01b0360015416905190803b156102c757604051623bb5d360e61b81526001600160a01b03808716600483015285166024820152604481019290925282908290818381606481015b03925af180156107a15761078c575b50506100de91612648565b81610796916119bc565b6102c7578238610781565b6040513d84823e3d90fd5b816107b6916119bc565b610519578138610723565b634e487b7160e01b600052602160045260246000fd5b8980fd5b606460405162461bcd60e51b815260206004820152601160248201527f6f70656e20696e73756666696369656e740000000000000000000000000000006044820152fd5b9196949092338952600460205261083c60ff60408b205416611c23565b6108498189848a8a611f97565b906108548888612203565b9860208a019687519760608501988951116108b6576100de9b6108b1998261088261089f9451835190611c6e565b905261089660608301918251905190611c91565b90528b8b6122be565b60206040850151940151948a8a612368565b612648565b606460405162461bcd60e51b815260206004820152601760248201527f6f70656e206c696d697420696e73756666696369656e740000000000000000006044820152fd5b506101606003193601126100e1578060043567ffffffffffffffff8111610b3e576109299036906004016119fb565b610931611957565b6064356003811015610b3b57608435916003831015610b375760a4359260e4359161014435936001600160a01b038516809503610b3357338852600460205261098060ff60408a205416611c23565b61098983611d2c565b60018314610ae0575b61099b83611d2c565b60028314610a7b575b6001600160a01b036002541693843b15610a775788966001600160a01b03946109f86040519a8b998a98899863308b99cb60e21b8a5216600489015260248801526101a060448801526101a4870190611d07565b93610a0281611d2c565b6064860152610a1081611d2c565b608485015260443560a485015260c484015260c43560e48401526101048301526101043561012483015261012435610144830152600161016483015285610184830152039134905af180156107a157610a665750f35b81610a70916119bc565b6100e15780f35b8880fd5b96508415801590610ad7575b15610a935787966109a4565b606460405162461bcd60e51b815260206004820152601b60248201527f636c6f73652074726967676572207072696365206973207a65726f00000000006044820152fd5b50821515610a87565b96508415610aef578796610992565b606460405162461bcd60e51b815260206004820152601a60248201527f6f70656e2074726967676572207072696365206973207a65726f0000000000006044820152fd5b8780fd5b8480fd5b50505b50fd5b50346100e157806003193601126100e157610b5a6124f4565b806001600160a01b037f9016d09d72d40fdae2fd8ceac6b6234c7706214fd39c1cd1e609a0528c1993005473ffffffffffffffffffffffffffffffffffffffff1981167f9016d09d72d40fdae2fd8ceac6b6234c7706214fd39c1cd1e609a0528c19930055167f8be0079c531659141344cd1fd0a4f28419497f9722a3daafe3b4186f6b6457e08280a380f35b50346100e157610c22610bf936611a42565b949290979193969596338a526004602052610c1a60ff60408c205416611c23565b838888611f97565b90600192610c308787612203565b946000198903610e08575b50602085019485519060608501918251116107db578a99815197610c6560408801998a5190611c6e565b8352610c748151855190611c6e565b9052610c91604083019283519361089660208a0195865190611c91565b6001600160a01b036002541693843b15610e04578b968b9488948c946040519b8c9a8b998a987fcc5bc741000000000000000000000000000000000000000000000000000000008a526001600160a01b031660048a01526001600160a01b03166024890152604488016101c090526101c48801610d0d91611d07565b95610d1781611d2c565b6064880152610d2581611d36565b608487015260a4860152825160c48601525160e48501528a5161010485015251610124840152608081015161014484015260a081015161016484015260c081015161018484015260e001516101a483015203925af1908115610df9578591610de4575b50506001600160a01b0360015416905190803b15610b3757604051623bb5d360e61b81526001600160a01b039384166004820152939092166024840152604483015282908290606490829084905af180156107a157610a665750f35b81610dee916119bc565b610b3b578338610d88565b6040513d87823e3d90fd5b8b80fd5b935060029360208601610e1c828251611c91565b9052610e2d60608701918251611c6e565b905238610c3b565b50346100e15760406003193601126100e157610e4f611941565b610e57611957565b7ff0c57e16840df040f15088dc2f81fe391c3923bec73e23a9662efc9c229c6a00549160ff8360401c16159267ffffffffffffffff8116801590816110e5575b60011490816110db575b1590816110d2575b506110aa576001600160a01b039291818560017fffffffffffffffffffffffffffffffffffffffffffffffff0000000000000000879516177ff0c57e16840df040f15088dc2f81fe391c3923bec73e23a9662efc9c229c6a0055611055575b50610f11613cf5565b610f19613cf5565b610f2233611ecb565b168073ffffffffffffffffffffffffffffffffffffffff198654161785558452600460205260408420600160ff19825416179055168073ffffffffffffffffffffffffffffffffffffffff1960015416176001558252600460205260408220600160ff19825416179055338252600460205260408220600160ff19825416179055308252600460205260408220600160ff19825416179055610fc15780f35b7fffffffffffffffffffffffffffffffffffffffffffffff00ffffffffffffffff7ff0c57e16840df040f15088dc2f81fe391c3923bec73e23a9662efc9c229c6a0054167ff0c57e16840df040f15088dc2f81fe391c3923bec73e23a9662efc9c229c6a00557fc7f505b2f371ae2175ee4913f4499e1f2633a7b5936321eed1cdaeb6115181d2602060405160018152a180f35b7fffffffffffffffffffffffffffffffffffffffffffffff0000000000000000001668010000000000000001177ff0c57e16840df040f15088dc2f81fe391c3923bec73e23a9662efc9c229c6a005538610f08565b6004857ff92ee8a9000000000000000000000000000000000000000000000000000000008152fd5b90501538610ea9565b303b159150610ea1565b859150610e97565b506110f736611ab6565b90969794929591338a52600460205261111660ff60408c205416611c23565b6111208787612555565b60405161112c8161196d565b8a8152602081018b815260408201908c82526060808401528c60808401528c60a08401528c60c08401528c60e08401526001600160a01b0360025416906111728b611d2c565b60001960ff8c16019160ff83116115ad578c9694928f91928f938d9b9a989694604051809481927f3a0204a90000000000000000000000000000000000000000000000000000000083526001600160a01b03169c8d60048401526001600160a01b03169e8f60248401526044830160809052608483016111f191611d07565b9060ff16606483015203815a93608094fa93841561050a5783928495611560575b506112239591858592525252611c6e565b831161151c578b946112358b8d6125d2565b6114665750509060a0959493929161129b97338452600460205261125f60ff604086205416611c23565b6001600160a01b036003541695604051998a98899788966307e7148560e01b88526004880152602487015260e0604487015260e4860190611d07565b92606485015260848401526112af81611d2c565b60a483015260001960c483015203925af190811561145b578491611422575b506112d98284612203565b906020820180519261133d6112f46020850195865190611c91565b886113056060870192835190611c91565b9461131b60406080890151980197885190611c91565b95869081811061141a57611330929350611c6e565b90525b8251905190611c91565b918083106113d6578794611355869261137395611c6e565b8352604083018051915190918181116113c4575050525b84866122be565b6001600160a01b0360015416905190803b156102c757604051623bb5d360e61b81526001600160a01b0380871660048301528516602482015260448101929092528290829081838160648101610772565b6113cf929350611c6e565b905261136c565b606460405162461bcd60e51b815260206004820152601260248201527f73686f756c64206265206465746f6e61746500000000000000000000000000006044820152fd5b505052611333565b905060a03d60a011611454575b61143981836119bc565b810160a082820312610b375761144e91611c9e565b386112ce565b503d61142f565b6040513d86823e3d90fd5b949095929693506001600160a01b036002541693843b15610e04576114b0916040519863308b99cb60e21b8a5260048a015260248901526101a060448901526101a4880190611d07565b966114ba81611d2c565b6064870152899687958795869485946002608487015260a486015260c48501528760e4850152876101048501528761012485015261014484015286610164840152610184830152039134905af180156107a15761078c5750506100de91612648565b606460405162461bcd60e51b815260206004820152601660248201527f636c6f736520616d6f756e7420746f6f206c61726765000000000000000000006044820152fd5b9250935091506080813d6080116115a5575b8161157f608093836119bc565b810103126115a157805160208201516060909201519391929091611223611212565b8f80fd5b3d9150611572565b60248f634e487b7160e01b81526011600452fd5b50346100e15760606003193601126100e1576115db611941565b6115e3611957565b6044356001600160a01b0381168091036102c3576001600160a01b0380936116096124f4565b1690818552600460205260408520600160ff19825416179055818552600460205260408520600160ff198254161790558452600460205260408420600160ff1982541617905573ffffffffffffffffffffffffffffffffffffffff1960025416176002551673ffffffffffffffffffffffffffffffffffffffff19600354161760035580f35b50346100e15760e06003193601126100e1576116a9611941565b6116b1611957565b9060443567ffffffffffffffff81116102c3576116d29036906004016119fb565b9060a435916003831015610b375761174e60a09133875260046020526116fe60ff604089205416611c23565b6001600160a01b036003541690876040518097819582946307e7148560e01b84526001600160a01b038a1660048501526001600160a01b038c16602485015260e0604485015260e4840190611d07565b906064356064840152608435608484015261176881611d2c565b60a483015260c43560c483015203925af191821561145b57849261186a575b506117928382612203565b91602083018051936117ad6112f46020850196875190611c91565b918083106113d65787956117c587926117e395611c6e565b835260408301805191519091818111611858575050525b85846122be565b6001600160a01b0360015416905190803b156102c357604051623bb5d360e61b81526001600160a01b039384166004820152949092166024850152604484015281908390606490829084905af1801561184b5761183d5780f35b611846916119bc565b388180f35b50604051903d90823e3d90fd5b611863929350611c6e565b90526117dc565b90915060a03d60a01161189e575b61188281836119bc565b810160a082820312610b375761189791611c9e565b9038611787565b503d611878565b50346100e1576118b436611a42565b9596939094929133895260046020526118d360ff60408b205416611c23565b6118e08383868b89611f97565b936118eb8987612203565b9860208a0180519a606088019b8c51116108b6576100de9b826119146119319451835190611c6e565b905261192860608301918251905190611c91565b905282896122be565b6020604087015196015196612368565b600435906001600160a01b038216820361001557565b602435906001600160a01b038216820361001557565b610100810190811067ffffffffffffffff82111761198a57604052565b634e487b7160e01b600052604160045260246000fd5b60a0810190811067ffffffffffffffff82111761198a57604052565b90601f601f19910116810190811067ffffffffffffffff82111761198a57604052565b67ffffffffffffffff811161198a57601f01601f191660200190565b81601f8201121561001557803590611a12826119df565b92611a2060405194856119bc565b8284526020838301011161001557816000926020809301838601378301015290565b610100600319820112610015576004356001600160a01b038116810361001557916024356001600160a01b038116810361001557916044359067ffffffffffffffff821161001557611a96916004016119fb565b90606435906084359060a4356003811015610015579060c4359060e43590565b610120600319820112610015576004359067ffffffffffffffff821161001557611ae2916004016119fb565b906024356001600160a01b0381168103610015579060443590606435906084359060a4356003811015610015579060c4359060e4356001600160a01b038116810361001557906101043590565b67ffffffffffffffff811161198a5760051b60200190565b9080601f83011215610015578135611b5e81611b2f565b92611b6c60405194856119bc565b81845260208085019260051b82010192831161001557602001905b828210611b945750505090565b8135815260209182019101611b87565b9080601f83011215610015578135611bbb81611b2f565b92611bc960405194856119bc565b81845260208085019260051b820101918383116100155760208201905b838210611bf557505050505090565b813567ffffffffffffffff811161001557602091611c18878480948801016119fb565b815201910190611be6565b15611c2a57565b606460405162461bcd60e51b815260206004820152601c60248201527f63616c6c6572206973206e6f742073746174696f6e206b6565706572000000006044820152fd5b91908203918211611c7b57565b634e487b7160e01b600052601160045260246000fd5b91908201809211611c7b57565b91908260a091031261001557604051611cb6816119a0565b6080808294805184526020810151602085015260408101516040850152606081015160608501520151910152565b60005b838110611cf75750506000910152565b8181015183820152602001611ce7565b90601f19601f602093611d2581518092818752878088019101611ce4565b0116010190565b600311156107c157565b600811156107c157565b8051821015611d545760209160051b010190565b634e487b7160e01b600052603260045260246000fd5b6020818303126100155780519067ffffffffffffffff82116100155701906101a08282031261001557604051916101a0830183811067ffffffffffffffff82111761198a5760405280516001600160a01b038116810361001557835260208101516001600160a01b038116810361001557602084015260408101516003811015610015576040840152606081015160088110156100155760608401526080810151600381101561001557608084015260a081015167ffffffffffffffff81116100155781019180601f8401121561001557825192611e47846119df565b91611e5560405193846119bc565b848352602085830101116100155761018093611e779160208085019101611ce4565b60a084015260c081015160c084015260e081015160e0840152610100810151610100840152610120810151610120840152610140810151610140840152610160810151610160840152015161018082015290565b6001600160a01b03168015611f68576001600160a01b037f9016d09d72d40fdae2fd8ceac6b6234c7706214fd39c1cd1e609a0528c199300548273ffffffffffffffffffffffffffffffffffffffff198216177f9016d09d72d40fdae2fd8ceac6b6234c7706214fd39c1cd1e609a0528c19930055167f8be0079c531659141344cd1fd0a4f28419497f9722a3daafe3b4186f6b6457e0600080a3565b7f1e4fbdf700000000000000000000000000000000000000000000000000000000600052600060045260246000fd5b93929190600060e0604051611fab8161196d565b8281528260208201528260408201528260608201528260808201528260a08201528260c082015201526001600160a01b0380600154169181604051977f702c2b74000000000000000000000000000000000000000000000000000000008952166004880152166024860152606060448601526020858061202e6064820186611d07565b0381845afa94851561217d576000956121cd575b506120859160209160405180809581947f05ca57cf0000000000000000000000000000000000000000000000000000000083528660048401526024830190611d07565b03915afa90811561217d57600091612189575b5061010092916001600160a01b0360649260405196879586947f32a84502000000000000000000000000000000000000000000000000000000008652600486015260248501526044840152165afa90811561217d576000916120f8575090565b9050610100813d8211612175575b8161211461010093836119bc565b810103126100155760e06040519161212b8361196d565b805183526020810151602084015260408101516040840152606081015160608401526080810151608084015260a081015160a084015260c081015160c0840152015160e082015290565b3d9150612106565b6040513d6000823e3d90fd5b6020813d6020116121c5575b816121a2602093836119bc565b810103126105195751906001600160a01b03821682036100e15750610100612098565b3d9150612195565b9094506020813d6020116121fb575b816121e9602093836119bc565b81010312610015575193612085612042565b3d91506121dc565b6001600160a01b03604460a09260006080604051612220816119a0565b828152826020820152826040820152826060820152015282600154168360405196879586947fccf1a4b20000000000000000000000000000000000000000000000000000000086521660048501521660248301525afa90811561217d57600091612288575090565b905060a03d60a0116122b7575b61229f81836119bc565b810160a082820312610015576122b491611c9e565b90565b503d612295565b600154926001600160a01b036000941690813b15610b37578492836001600160a01b0393608060e49486604051998a9889977fe448cc41000000000000000000000000000000000000000000000000000000008952166004880152166024860152805160448601526020810151606486015260408101516084860152606081015160a4860152015160c48401525af180156107a15761235b575050565b81612365916119bc565b50565b969295919998949097936000986001600160a01b036002541698893b1561242c579b6001600160a01b036123c992819c9d9e60046040519e8f9263308b99cb60e21b8452169101521660248c01526101a060448c01526101a48b0190611d07565b966123d381611d2c565b60648a0152600160848a015260a489015260c488015260e4870152610104860187905261012486015261014485015261016484018590526101848401528391839182900390829034905af180156107a15761235b575050565b8a80fd5b959198979396929490966000976001600160a01b036002541697883b156107d7579a6001600160a01b0361248f928163308b99cb60e21b9c9d9e6040519d8e521660048d01521660248b01526101a060448b01526101a48a0190611d07565b9561249981611d2c565b60648901526002608489015260a488015260c487015260e48601879052610104860152610124850186905261014485015260016101648501526101848401528391839182900390829034905af180156107a15761235b575050565b6001600160a01b037f9016d09d72d40fdae2fd8ceac6b6234c7706214fd39c1cd1e609a0528c1993005416330361252757565b7f118cdaa7000000000000000000000000000000000000000000000000000000006000523360045260246000fd5b90600354916001600160a01b036000931690813b156102c35783916125b1916040518095819482937fd0e3d0dc000000000000000000000000000000000000000000000000000000008452604060048501526044840190611d07565b906125bb81611d2c565b602483015203915afa80156107a15761235b575050565b6000916001600160a01b036001541690813b156102c3576040517fd3c2d8b70000000000000000000000000000000000000000000000000000000081526001600160a01b039384166004820152921660248301526044820183905282908290606490829084905af180156107a15761235b575050565b600154916001600160a01b036000931690813b156102c3576040517fd3c2d8b70000000000000000000000000000000000000000000000000000000081526001600160a01b03938416600482015292166024830152600a604483015282908290606490829084905af180156107a15761235b575050565b60009060033d116126cc57565b905060046000803e60005160e01c90565b600060443d106122b4576040516003193d016004823e8051913d602484011167ffffffffffffffff84111761274c578282019283519167ffffffffffffffff8311612744576003193d8501016020848701011161274457506122b4929101602001906119bc565b949350505050565b92915050565b3d1561277d573d90612763826119df565b9161277160405193846119bc565b82523d6000602084013e565b606090565b93979695926001600160a01b0360c09693816127b29416875216602086015260e0604086015260e0850190611d07565b96606084015260808301526127c681611d2c565b60a08201520152565b9491926001600160a01b0360e0979481612804949c9b9a979c1688521660208701526101006040870152610100860190611d07565b976060850152608084015261281881611d2c565b60a083015260c08201520152565b6002546040517f0c3fc6b90000000000000000000000000000000000000000000000000000000081526004810183905293926000916001600160a01b03168286602481845afa90811561050a5760249495968492613cd6575b5060c090604051958680927f0187703f0000000000000000000000000000000000000000000000000000000082528960048301525afa93841561050a578394613c3a575b50600184511480613c1a575b61357e5761018081018051421161356057604460206001600160a01b0360035416604051928380927fe6b34c690000000000000000000000000000000000000000000000000000000082528b60048301528860248301525afa908115610df9578591613525575b50612944575b505050505050565b6001855114612e14575060e08101918252608081016001815161296681611d2c565b61296f81611d2c565b03612c3c575061298a61010082015161012083015190611c91565b916001600160a01b038251169460208301956001600160a01b038751169060a085019182519160c0870197885196519660408901978851916129cb83611d2c565b303b15612c3857928e8d969493612a13938897956040519a8b9889987f6332d726000000000000000000000000000000000000000000000000000000008a5260048a016127cf565b038183305af19182612c1f575b5050612b3d575050505050600190612a366126bf565b6308c379a014612ac0575b50612a55575b50505b38808080808061293c565b7f4c94adf18d8bfad12d476c7b93150b992bfa3fb9a83d713dd8a97359b7413f8291612a936001600160a01b03612a8a612752565b93511682613dd0565b612ab6604051928392600584526020840152606060408401526060830190611d07565b0390a13880612a47565b612ac86126dd565b9081612ad5575b50612a41565b7f356c1ed0403936d05af0abea05fbda16720ce964f55d7010cee1ba6cd8e1f60a919250612b339092612b126001600160a01b0386511687613dd0565b60405191829160058352876020840152606060408401526060830190611d07565b0390a13880612acf565b61014084969998959792939401928351976002825114612b74575b50505050505084612b729495505060036060830152613d4e565b565b6040820190815115801590612c12575b612b8f575b50612b58565b90919293949598612ba59060011c809751611c6e565b9860806001600160a01b03808b51169751169551915192612bc584611d2c565b519351940151946312cc0300420196874211612bfe5791612bf197959391612b729d9e99979593612430565b9493388080808080612b89565b60248e634e487b7160e01b81526011600452fd5b5060808301511515612b84565b81612c29916119bc565b612c34578638612a20565b8680fd5b8c80fd5b60029192945051612c4c81611d2c565b612c5581611d2c565b14612c64575b50505050612a4a565b6001600160a01b038151169260208201936001600160a01b038551169060a08401519260c08501519051604086015191612c9d83611d2c565b303b15610b335789889593869593612cca93604051998a9788976307e7148560e01b895260048901612782565b038183305af19182612dff575b5050612de45750600190612ce96126bf565b6308c379a014612d67575b50612d05575b505038808080612c5b565b7f4c94adf18d8bfad12d476c7b93150b992bfa3fb9a83d713dd8a97359b7413f8291612d3a6001600160a01b03612a8a612752565b612d5d604051928392600684526020840152606060408401526060830190611d07565b0390a13880612cfa565b612d6f6126dd565b9081612d7c575b50612cf4565b7f356c1ed0403936d05af0abea05fbda16720ce964f55d7010cee1ba6cd8e1f60a919250612dda9092612db96001600160a01b0386511687613dd0565b60405191829160068352876020840152606060408401526060830190611d07565b0390a13880612d76565b90612b72939250506003606082015261014081015191613d4e565b81612e09916119bc565b6102c7578238612cd7565b61014082019081519060016080850151612e2d81611d2c565b612e3681611d2c565b14612e46575b5050505050505050565b6020870180518015908115613517575b5080156134eb575b80156134bf575b1561311a575050508260e08301526001600160a01b038251169260208301956001600160a01b038751169160a085019283519060c087019788516040890194855190612eb082611d2c565b303b15612c3857918e8d959392869593612f0b604051998a9788977f6332d726000000000000000000000000000000000000000000000000000000008952600489015260248801526101006044880152610104870190611d07565b9360648601526084850152612f1f81611d2c565b60a484015260c48301528360e4830152038183305af19182613105575b505061305357505050505050600190612f536126bf565b6308c379a014612fd6575b50612f74575b50505b3880808080808080612e3c565b7f4c94adf18d8bfad12d476c7b93150b992bfa3fb9a83d713dd8a97359b7413f8291612fa96001600160a01b03612a8a612752565b612fcc604051928392600384526020840152606060408401526060830190611d07565b0390a13880612f64565b612fde6126dd565b9081612feb575b50612f5e565b7f356c1ed0403936d05af0abea05fbda16720ce964f55d7010cee1ba6cd8e1f60a91925061304990926130286001600160a01b0386511687613dd0565b60405191829160038352876020840152606060408401526060830190611d07565b0390a13880612fe5565b61306a8495979a999698945160011c809651611c6e565b9760408301918251158015906130f8575b6130a0575b505050505050508461309b9495505060036060830152613d4e565b612f67565b60806001600160a01b03808b511697511695519151926130bf84611d2c565b519351940151946312cc0300420196874211612bfe57916130eb9795939161309b9d9e99979593612430565b9493388080808080613080565b506080840151151561307b565b8161310f916119bc565b610b33578738612f3c565b9196938095506001600160a01b03919350511660208501966001600160a01b038851169260a08701519460c0880151915160408901519161315a83611d2c565b5192303b1561242c57926131a3928b9795928897956040519a8b9889987f068c9c26000000000000000000000000000000000000000000000000000000008a5260048a016127cf565b038183305af191826134aa575b50506132ba5750506001906131c36126bf565b6308c379a01461323d575b506131db575b5050612f67565b7f4c94adf18d8bfad12d476c7b93150b992bfa3fb9a83d713dd8a97359b7413f82916132106001600160a01b03612a8a612752565b613233604051928392600484526020840152606060408401526060830190611d07565b0390a138806131d4565b6132456126dd565b9081613252575b506131ce565b7f356c1ed0403936d05af0abea05fbda16720ce964f55d7010cee1ba6cd8e1f60a9192506132b0909261328f6001600160a01b0386511687613dd0565b60405191829160048352876020840152606060408401526060830190611d07565b0390a1388061324c565b9091939250604081019081511580159061349d575b61336f575b505060600190600382526001600160a01b03600254169151906132f682611d36565b823b156102c35790606484928360405195869485937fac89c798000000000000000000000000000000000000000000000000000000008552600485015261333c81611d36565b60248401528160448401525af180156107a15761335a575050612f67565b6133658280926119bc565b6100e157806131d4565b6001600160a01b036002541691604051907f49138690000000000000000000000000000000000000000000000000000000008252602082600481875afa91821561028c578792613469575b506000198201918211613455576080905192015192803b15612c34578692918360e49260405196879586947fbe63309e000000000000000000000000000000000000000000000000000000008652600486015260026024860152836044860152606485015282608485015260a48401528160c48401525af1801561145b57908491156132d4578161344a916119bc565b6102c75782386132d4565b602487634e487b7160e01b81526011600452fd5b9091506020813d602011613495575b81613485602093836119bc565b81010312610015575190386133ba565b3d9150613478565b50608081015115156132cf565b816134b4916119bc565b6102c35783386131b0565b50600260408601516134d081611d2c565b6134d981611d2c565b148015612e6557508051861015612e65565b50600160408601516134fc81611d2c565b61350581611d2c565b148015612e5e57508051861115612e5e565b905060e08601511438612e56565b90506020813d602011613558575b81613540602093836119bc565b81010312610b3757518015158103610b375738612936565b3d9150613533565b50612b729493506001600160a01b0392506020915001511690613dd0565b9092604081019384511580613c0e575b8015613c00575b8015613bb7575b613b9a57809484928151151580613b2f575b15613a0a5760600191825180159283156139ff575b505081156139cc575b8115613996575b501561398d5750506001905b61014081018051921561378a57506001600160a01b038151169360208201946001600160a01b038651169060a08401519260c08501519060408601519161362583611d2c565b303b15610a77578a89959386959361365293604051998a9788976307e7148560e01b895260048901612782565b038183305af19182613775575b50506137605750506001906136726126bf565b6308c379a0146136e3575b50613686575050565b7f4c94adf18d8bfad12d476c7b93150b992bfa3fb9a83d713dd8a97359b7413f82916136bb6001600160a01b03612a8a612752565b6136de604051928392600184526020840152606060408401526060830190611d07565b0390a1565b6136eb6126dd565b90816136f8575b5061367d565b7f356c1ed0403936d05af0abea05fbda16720ce964f55d7010cee1ba6cd8e1f60a91925061375690926137356001600160a01b0386511687613dd0565b60405191829160018352876020840152606060408401526060830190611d07565b0390a138806136f2565b91612b72949193505060036060830152613d4e565b8161377f916119bc565b6102c357833861365f565b9161379a9060011c809351611c6e565b916001600160a01b03600254166001600160a01b038351169560208401966001600160a01b038851169160a0860151946040870151916137d983611d2c565b60c08801519061018089015191873b15610e0457928b97959261382c9997959289956040519b8c9a8b998a9863308b99cb60e21b8a5260048a015260248901526101a060448901526101a4880190611d07565b9461383681611d2c565b60648701526002608487015260a486015260c48501528460e485015284610104850152846101248501526101448401528361016484015261018483015203925af19081613979575b506137605750506001906138906126bf565b6308c379a0146138fc575b506138a4575050565b7f4c94adf18d8bfad12d476c7b93150b992bfa3fb9a83d713dd8a97359b7413f82916138d96001600160a01b03612a8a612752565b6136de604051928392600284526020840152606060408401526060830190611d07565b6139046126dd565b9081613911575b5061389b565b7f356c1ed0403936d05af0abea05fbda16720ce964f55d7010cee1ba6cd8e1f60a91925061396f909261394e6001600160a01b0386511687613dd0565b60405191829160028352876020840152606060408401526060830190611d07565b0390a1388061390b565b84613986919592956119bc565b923861387e565b519350906135df565b9050600260408501516139a881611d2c565b6139b181611d2c565b1490816139c0575b50386135d3565b905081511015386139b9565b9050600160408501516139de81611d2c565b6139e781611d2c565b14806139f4575b906135cc565b5080825111156139ee565b5114915038806135c3565b905060808101908151151580613ac4575b15612e3c5760a0019182518015928315613ab9575b50508115613a86575b8115613a50575b501561398d5750506001906135df565b905060026040850151613a6281611d2c565b613a6b81611d2c565b149081613a7a575b5038613a40565b90508151101538613a73565b905060016040850151613a9881611d2c565b613aa181611d2c565b1480613aae575b90613a39565b508082511115613aa8565b511491503880613a30565b506040850160018151613ad681611d2c565b613adf81611d2c565b149081613b23575b8115613af4575b50613a1b565b6002915051613b0281611d2c565b613b0b81611d2c565b1480613b18575b38613aee565b508151831015613b12565b83518511159150613ae7565b506040850160018151613b4181611d2c565b613b4a81611d2c565b149081613b8e575b8115613b5f575b506135ae565b6002915051613b6d81611d2c565b613b7681611d2c565b1480613b83575b38613b59565b508151831115613b7d565b83518510159150613b52565b505090612b72939250506003606082015261014081015191613d4e565b506060830160018151613bc981611d36565b613bd281611d36565b14159081613be1575b5061359c565b6002915051613bef81611d36565b613bf881611d36565b141538613bdb565b506101808301514211613595565b5060808201511561358e565b5060026080820151613c2b81611d2c565b613c3481611d2c565b146128cf565b90935060c0813d60c011613cce575b81613c5660c093836119bc565b810103126102c7576040519060c0820182811067ffffffffffffffff821117613cba579060a0916040528051835260208101516020840152604081015160408401526060810151606084015260808101516080840152015160a082015292386128c3565b602485634e487b7160e01b81526041600452fd5b3d9150613c49565b60c0919250613cee903d8087833e6104fb81836119bc565b919061287f565b60ff7ff0c57e16840df040f15088dc2f81fe391c3923bec73e23a9662efc9c229c6a005460401c1615613d2457565b7fd7e6bcf80000000000000000000000000000000000000000000000000000000060005260046000fd5b91906002549260606001600160a01b036000951692015191613d6f83611d36565b803b15610b37578492918360649260405196879586947fac89c7980000000000000000000000000000000000000000000000000000000086526004860152613db681611d36565b602485015260448401525af180156107a15761235b575050565b906000916001600160a01b0360035416803b156102c3579160648492836001600160a01b039560405196879586947fc2b3356400000000000000000000000000000000000000000000000000000000865260048601521660248401528160448401525af180156107a15761235b57505056fea2646970667358221220d677cda018f06f4a3ad9dc4113178676785093c180088ca01c5c8b5c2857029d64736f6c634300081c0033",
  "linkReferences": {},
  "deployedLinkReferences": {}
}