{
  "_format": "hh-sol-artifact-1",
  "contractName": "BManager",
  "sourceName": "contracts/deploy/BManager.sol",
  "abi": [
    {
      "inputs": [],
      "name": "InvalidInitialization",
      "type": "error"
    },
    {
      "inputs": [],
      "name": "NotInitializing",
      "type": "error"
    },
    {
      "inputs": [
        {
          "internalType": "address",
          "name": "owner",
          "type": "address"
        }
      ],
      "name": "OwnableInvalidOwner",
      "type": "error"
    },
    {
      "inputs": [
        {
          "internalType": "address",
          "name": "account",
          "type": "address"
        }
      ],
      "name": "OwnableUnauthorizedAccount",
      "type": "error"
    },
    {
      "anonymous": false,
      "inputs": [
        {
          "indexed": false,
          "internalType": "uint64",
          "name": "version",
          "type": "uint64"
        }
      ],
      "name": "Initialized",
      "type": "event"
    },
    {
      "anonymous": false,
      "inputs": [
        {
          "indexed": true,
          "internalType": "address",
          "name": "previousOwner",
          "type": "address"
        },
        {
          "indexed": true,
          "internalType": "address",
          "name": "newOwner",
          "type": "address"
        }
      ],
      "name": "OwnershipTransferred",
      "type": "event"
    },
    {
      "anonymous": false,
      "inputs": [
        {
          "indexed": false,
          "internalType": "address",
          "name": "creator",
          "type": "address"
        },
        {
          "indexed": false,
          "internalType": "address",
          "name": "settle",
          "type": "address"
        },
        {
          "indexed": false,
          "internalType": "address",
          "name": "perpetual",
          "type": "address"
        },
        {
          "indexed": false,
          "internalType": "address",
          "name": "privatePool",
          "type": "address"
        },
        {
          "indexed": false,
          "internalType": "address",
          "name": "orderBook",
          "type": "address"
        },
        {
          "indexed": false,
          "internalType": "address",
          "name": "tradeAgent",
          "type": "address"
        },
        {
          "indexed": false,
          "internalType": "address",
          "name": "tradeStation",
          "type": "address"
        }
      ],
      "name": "createTradePool",
      "type": "event"
    },
    {
      "inputs": [],
      "name": "buyBack",
      "outputs": [
        {
          "internalType": "contract BuyBack",
          "name": "",
          "type": "address"
        }
      ],
      "stateMutability": "view",
      "type": "function"
    },
    {
      "inputs": [
        {
          "internalType": "address",
          "name": "_settle",
          "type": "address"
        },
        {
          "internalType": "uint256",
          "name": "_multi",
          "type": "uint256"
        }
      ],
      "name": "createPerpetualTradeContract",
      "outputs": [],
      "stateMutability": "nonpayable",
      "type": "function"
    },
    {
      "inputs": [
        {
          "internalType": "address",
          "name": "_settle",
          "type": "address"
        }
      ],
      "name": "createPerpetualTradeContract",
      "outputs": [],
      "stateMutability": "nonpayable",
      "type": "function"
    },
    {
      "inputs": [
        {
          "internalType": "string",
          "name": "_tradePairName",
          "type": "string"
        },
        {
          "internalType": "address",
          "name": "_oracleAddr",
          "type": "address"
        }
      ],
      "name": "createUnderlying",
      "outputs": [],
      "stateMutability": "nonpayable",
      "type": "function"
    },
    {
      "inputs": [
        {
          "internalType": "address",
          "name": "_settle",
          "type": "address"
        }
      ],
      "name": "deletePerpetualTradeContract",
      "outputs": [],
      "stateMutability": "nonpayable",
      "type": "function"
    },
    {
      "inputs": [],
      "name": "getSettleList",
      "outputs": [
        {
          "internalType": "address[]",
          "name": "",
          "type": "address[]"
        }
      ],
      "stateMutability": "view",
      "type": "function"
    },
    {
      "inputs": [
        {
          "internalType": "address",
          "name": "_settle",
          "type": "address"
        }
      ],
      "name": "getTradePair",
      "outputs": [
        {
          "internalType": "string[]",
          "name": "pairs",
          "type": "string[]"
        }
      ],
      "stateMutability": "view",
      "type": "function"
    },
    {
      "inputs": [],
      "name": "getTradePoolUnit",
      "outputs": [
        {
          "components": [
            {
              "internalType": "address",
              "name": "creator",
              "type": "address"
            },
            {
              "internalType": "address",
              "name": "settle",
              "type": "address"
            },
            {
              "internalType": "uint256",
              "name": "decimals",
              "type": "uint256"
            },
            {
              "internalType": "string",
              "name": "settleName",
              "type": "string"
            },
            {
              "internalType": "string",
              "name": "symbol",
              "type": "string"
            },
            {
              "internalType": "contract PrivatePool",
              "name": "privatePool",
              "type": "address"
            },
            {
              "internalType": "contract Perpetual",
              "name": "perpetual",
              "type": "address"
            },
            {
              "internalType": "contract OrderBook",
              "name": "orderBook",
              "type": "address"
            },
            {
              "internalType": "contract TradeAgent",
              "name": "tradeAgent",
              "type": "address"
            },
            {
              "internalType": "contract TradeStation",
              "name": "tradeStation",
              "type": "address"
            }
          ],
          "internalType": "struct BManager.TradePoolUnit[]",
          "name": "",
          "type": "tuple[]"
        }
      ],
      "stateMutability": "view",
      "type": "function"
    },
    {
      "inputs": [
        {
          "internalType": "address",
          "name": "_settle",
          "type": "address"
        }
      ],
      "name": "getTradePoolUnit",
      "outputs": [
        {
          "components": [
            {
              "internalType": "address",
              "name": "creator",
              "type": "address"
            },
            {
              "internalType": "address",
              "name": "settle",
              "type": "address"
            },
            {
              "internalType": "uint256",
              "name": "decimals",
              "type": "uint256"
            },
            {
              "internalType": "string",
              "name": "settleName",
              "type": "string"
            },
            {
              "internalType": "string",
              "name": "symbol",
              "type": "string"
            },
            {
              "internalType": "contract PrivatePool",
              "name": "privatePool",
              "type": "address"
            },
            {
              "internalType": "contract Perpetual",
              "name": "perpetual",
              "type": "address"
            },
            {
              "internalType": "contract OrderBook",
              "name": "orderBook",
              "type": "address"
            },
            {
              "internalType": "contract TradeAgent",
              "name": "tradeAgent",
              "type": "address"
            },
            {
              "internalType": "contract TradeStation",
              "name": "tradeStation",
              "type": "address"
            }
          ],
          "internalType": "struct BManager.TradePoolUnit",
          "name": "pool",
          "type": "tuple"
        }
      ],
      "stateMutability": "view",
      "type": "function"
    },
    {
      "inputs": [],
      "name": "getUnderlying",
      "outputs": [
        {
          "internalType": "string[]",
          "name": "names",
          "type": "string[]"
        },
        {
          "internalType": "address[]",
          "name": "addresses",
          "type": "address[]"
        }
      ],
      "stateMutability": "view",
      "type": "function"
    },
    {
      "inputs": [
        {
          "internalType": "address",
          "name": "_initialOwner",
          "type": "address"
        },
        {
          "internalType": "address",
          "name": "_riskAddr",
          "type": "address"
        },
        {
          "internalType": "address",
          "name": "_platformToken",
          "type": "address"
        },
        {
          "internalType": "address",
          "name": "_tradeFee",
          "type": "address"
        }
      ],
      "name": "initialize",
      "outputs": [],
      "stateMutability": "nonpayable",
      "type": "function"
    },
    {
      "inputs": [],
      "name": "marketAgent",
      "outputs": [
        {
          "internalType": "contract MarketAgent",
          "name": "",
          "type": "address"
        }
      ],
      "stateMutability": "view",
      "type": "function"
    },
    {
      "inputs": [],
      "name": "owner",
      "outputs": [
        {
          "internalType": "address",
          "name": "",
          "type": "address"
        }
      ],
      "stateMutability": "view",
      "type": "function"
    },
    {
      "inputs": [],
      "name": "platformToken",
      "outputs": [
        {
          "internalType": "address",
          "name": "",
          "type": "address"
        }
      ],
      "stateMutability": "view",
      "type": "function"
    },
    {
      "inputs": [],
      "name": "proxyFactory",
      "outputs": [
        {
          "internalType": "contract ProxyFactory",
          "name": "",
          "type": "address"
        }
      ],
      "stateMutability": "view",
      "type": "function"
    },
    {
      "inputs": [],
      "name": "renounceOwnership",
      "outputs": [],
      "stateMutability": "nonpayable",
      "type": "function"
    },
    {
      "inputs": [],
      "name": "riskAddr",
      "outputs": [
        {
          "internalType": "address",
          "name": "",
          "type": "address"
        }
      ],
      "stateMutability": "view",
      "type": "function"
    },
    {
      "inputs": [
        {
          "internalType": "address",
          "name": "_addr",
          "type": "address"
        }
      ],
      "name": "setPlatformToken",
      "outputs": [],
      "stateMutability": "nonpayable",
      "type": "function"
    },
    {
      "inputs": [
        {
          "internalType": "address",
          "name": "_factory",
          "type": "address"
        }
      ],
      "name": "setProxyFactory",
      "outputs": [],
      "stateMutability": "nonpayable",
      "type": "function"
    },
    {
      "inputs": [
        {
          "internalType": "address",
          "name": "_addr",
          "type": "address"
        }
      ],
      "name": "setRiskAddr",
      "outputs": [],
      "stateMutability": "nonpayable",
      "type": "function"
    },
    {
      "inputs": [
        {
          "internalType": "address",
          "name": "_addr",
          "type": "address"
        }
      ],
      "name": "setTradeFeeAddr",
      "outputs": [],
      "stateMutability": "nonpayable",
      "type": "function"
    },
    {
      "inputs": [
        {
          "internalType": "address",
          "name": "_settle",
          "type": "address"
        },
        {
          "internalType": "string[]",
          "name": "_pairs",
          "type": "string[]"
        },
        {
          "internalType": "uint256",
          "name": "_opCode",
          "type": "uint256"
        }
      ],
      "name": "setTradePair",
      "outputs": [],
      "stateMutability": "nonpayable",
      "type": "function"
    },
    {
      "inputs": [
        {
          "internalType": "uint256",
          "name": "",
          "type": "uint256"
        }
      ],
      "name": "settleList",
      "outputs": [
        {
          "internalType": "address",
          "name": "",
          "type": "address"
        }
      ],
      "stateMutability": "view",
      "type": "function"
    },
    {
      "inputs": [],
      "name": "tradeFeeAddr",
      "outputs": [
        {
          "internalType": "address",
          "name": "",
          "type": "address"
        }
      ],
      "stateMutability": "view",
      "type": "function"
    },
    {
      "inputs": [
        {
          "internalType": "address",
          "name": "newOwner",
          "type": "address"
        }
      ],
      "name": "transferOwnership",
      "outputs": [],
      "stateMutability": "nonpayable",
      "type": "function"
    }
  ],
  "bytecode": "0x6080806040523460155761420d908161001b8239f35b600080fdfe6080604052600436101561001257600080fd5b6000803560e01c80630255a03b146139c757806302d72f9514612a52578063032d2e32146129cb5780631789682a14612988578063534ec750146126005780635a4327d3146124465780635cd9dee714612020578063645b3fd014611f9757806369a0eeb814611f70578063715018a614611ed75780638187880514611e45578063873fd3c314611d685780638da5cb5b14611d225780639360e33a14611be55780639816f47314611a9e578063a6447d9714610a1e578063acdf4f18146109f7578063c10f1a75146109d0578063d1b812cd146109a9578063e08061b314610982578063eaa1606d14610449578063f2fde38b14610429578063f585203914610403578063f8c8765e146101715763fbddd7511461013057600080fd5b3461016e57602060031936011261016e576001600160a01b03610151613a50565b61015961411d565b166001600160a01b0319600654161760065580f35b80fd5b503461016e57608060031936011261016e5761018b613a50565b610193613a6b565b6044356001600160a01b0381168091036103ff57606435916001600160a01b0383168093036103fb577ff0c57e16840df040f15088dc2f81fe391c3923bec73e23a9662efc9c229c6a00549360ff8560401c16159467ffffffffffffffff8116801590816103f3575b60011490816103e9575b1590816103e0575b506103b8576001600160a01b039291818760017fffffffffffffffffffffffffffffffffffffffffffffffff00000000000000006102969516177ff0c57e16840df040f15088dc2f81fe391c3923bec73e23a9662efc9c229c6a0055610363575b5061027861417e565b61028061417e565b6102893361405e565b61029161411d565b61405e565b166001600160a01b03198554161784556001600160a01b031960015416176001556001600160a01b031960025416176002556102cf5780f35b7fffffffffffffffffffffffffffffffffffffffffffffff00ffffffffffffffff7ff0c57e16840df040f15088dc2f81fe391c3923bec73e23a9662efc9c229c6a0054167ff0c57e16840df040f15088dc2f81fe391c3923bec73e23a9662efc9c229c6a00557fc7f505b2f371ae2175ee4913f4499e1f2633a7b5936321eed1cdaeb6115181d2602060405160018152a180f35b7fffffffffffffffffffffffffffffffffffffffffffffff0000000000000000001668010000000000000001177ff0c57e16840df040f15088dc2f81fe391c3923bec73e23a9662efc9c229c6a00553861026f565b6004877ff92ee8a9000000000000000000000000000000000000000000000000000000008152fd5b9050153861020e565b303b159150610206565b8791506101fc565b8480fd5b8380fd5b503461016e578060031936011261016e576001600160a01b036020915416604051908152f35b503461016e57602060031936011261016e57610446610289613a50565b80f35b503461016e57602060031936011261016e576001600160a01b0361046b613a50565b16808252600760205260408220610490826001600160a01b0360018401541614613f78565b6001600160a01b03815416330361093e57826001600160a01b036006600493015416604051928380927fcd2ce4ae0000000000000000000000000000000000000000000000000000000082525afa908115610933578391610911575b506104f561411d565b818352600760205282604081206040519061050f82613ab2565b6001600160a01b0381541682526001600160a01b0360018201541691602081019283526002820154604082015261054860038301613eb6565b606082015261055960048301613eb6565b60808201526001600160a01b036005830154169160a082019283526001600160a01b036006820154169360c083019485526001600160a01b036007830154169660e084019788526101206001600160a01b0360098160088701541695610100880196875201541694019384526105da896001600160a01b0384511614613f78565b865b81518110156107d9576105ef8183613e7b565b516001600160a01b03600654166001600160a01b038551166001600160a01b038a51166001600160a01b03885116928d6001600160a01b03808d51169151166001600160a01b038c511691833b156107d5578f956106729387938a936040519a8b998a988997631afa745960e11b895261010060048a0152610104890190613ba6565b9560248801528760448801526064870152608486015260a485015260c484015260e483015203925af19081156107ca578a916107b1575b50506001600160a01b03885116906001600160a01b036006541690602060405180936305ca57cf60e01b825282600483015281806106ea6024820187613ba6565b03915afa9182156107a6578b92610776575b50823b1561077257610732926001600160a01b038c809460405196879586948593633845c6c360e11b8552169060048401613e8f565b03925af190811561076757899161074e575b50506001016105dc565b8161075891613ae5565b610763578738610744565b8780fd5b6040513d8b823e3d90fd5b8a80fd5b61079891925060203d811161079f575b6107908183613ae5565b810190613d04565b90386106fc565b503d610786565b6040513d8d823e3d90fd5b816107bb91613ae5565b6107c65788386106a9565b8880fd5b6040513d8c823e3d90fd5b8f80fd5b878a8082526007602052816009604082208281558260018201558260028201556108056003820161400f565b6108116004820161400f565b8260058201558260068201558260078201558260088201550155815b6003548082101561090b576001600160a01b0361084983613a81565b90549060031b1c168314610860575060010161082d565b90915060001981019081116108f757906108956001600160a01b036108876108b494613a81565b90549060031b1c1691613a81565b9091906001600160a01b038084549260031b9316831b921b1916179055565b60035480156108e357600019016108ca81613a81565b6001600160a01b0382549160031b1b1916905560035580f35b602482634e487b7160e01b81526031600452fd5b602483634e487b7160e01b81526011600452fd5b50505080f35b61092d91503d8085833e6109258183613ae5565b810190613ddf565b386104ec565b6040513d85823e3d90fd5b606460405162461bcd60e51b815260206004820152601660248201527f466f7262696464656e2c206e6f742063726561746f72000000000000000000006044820152fd5b503461016e578060031936011261016e5760206001600160a01b0360025416604051908152f35b503461016e578060031936011261016e5760206001600160a01b0360015416604051908152f35b503461016e578060031936011261016e5760206001600160a01b0360065416604051908152f35b503461016e578060031936011261016e5760206001600160a01b0360045416604051908152f35b503461016e57602060031936011261016e57610a38613a50565b906001600160a01b0360045416156119d8575b6001600160a01b036005541615611865575b6001600160a01b03821691828252600760205260408220926001840190806001600160a01b0383541614611821576003546801000000000000000081101561180d5790610ab584610895846001899601600355613a81565b60065482546040517f45d4b4510000000000000000000000000000000000000000000000000000000081526001600160a01b038781166004830152918216602482015293602092859260449284929091165af19182156118025785926117be575b506001600160a01b03806006541692169160206001600160a01b0387541660846001600160a01b0360025416918960405195869485937f0de6b1230000000000000000000000000000000000000000000000000000000085528a6004860152602485015288604485015260648401525af19081156113e757869161177c575b506006546040517f047fd0d50000000000000000000000000000000000000000000000000000000081526001600160a01b0385811660048301529283166024820181905287841660448301529590929091602091849160649183918c91165af191821561177157879261172d575b506006546040517f649031820000000000000000000000000000000000000000000000000000000081526001600160a01b03868116600483015287811660248301528881166044830152909791602091899160649183918d91165af19687156113895790889493929185986116de575b506006546040517fa55d4ec80000000000000000000000000000000000000000000000000000000081526001600160a01b038881166004830152898116602483015292831660448201529560209287921690829081606481015b03925af193841561138957889461169a575b50826001600160a01b03198254161790556001600160a01b0333166001600160a01b031989541617885560058801846001600160a01b0319825416179055600988016001600160a01b0384166001600160a01b0319825416179055600888016001600160a01b0387166001600160a01b0319825416179055600788016001600160a01b0382166001600160a01b031982541617905560068801856001600160a01b03198254161790556040517f06fdde030000000000000000000000000000000000000000000000000000000081528781600481865afa908115611389578891611680575b50805160038a019167ffffffffffffffff821161166c57610de58354613d8e565b601f811161163c575b50602090601f83116001146115d957610e1e92918b91836114a8575b50506000198260011b9260031b1c19161790565b90555b6040517f313ce567000000000000000000000000000000000000000000000000000000008152602081600481865afa801561138957889061159c575b60ff1660028a0155506040517f95d89b41000000000000000000000000000000000000000000000000000000008152978789600481865afa988915611389578899611575575b50600401885167ffffffffffffffff811161156157610ec28254613d8e565b601f8111611526575b506020601f82116001146114b357926001600160a01b039392610f0c8386959486958e9f8f9d9e9f926114a85750506000198260011b9260031b1c19161790565b90555b16971692167fe34d8fa001b04475d221b96a007a245b5ce7381c8fa9a9bf4b8fb5ffecbca93e60e06040513381528460208201528860408201528660608201528960808201528560a08201528360c0820152a16001600160a01b03600454166001600160a01b036005541690873b156113855760405163f6ef183960e01b81526001600160a01b03918216600482015289821660248201528582166044820152838216606482015291166084820152858160a481838b5af19081156113e7578691611493575b5050863b156103fb57604051631580010360e11b81526001600160a01b038481166004830152821660248201528581604481838c5af19081156113e757869161147e575b5050823b156103fb57604051631580010360e11b81526001600160a01b03888116600483015282166024820152858160448183885af19081156113e7578691611469575b5050803b156103fb57604051631580010360e11b81526001600160a01b03888116600483015284166024820152858160448183865af19081156113e7578691611454575b5050600460206001600160a01b0360065416604051928380926306d6aa2760e51b82525afa9081156113e7578691611435575b50843b156114075760405163f6ef183960e01b81526001600160a01b038881166004830152898116602483015285811660448301528381166064830152919091166084820152858160a48183895af19081156113e7578691611420575b50506001600160a01b0360055416803b156114075785809160446040518094819363226dc99760e21b83528c6004840152600160248401525af19081156113e757869161140b575b50506001600160a01b0360045416803b156114075785809160a4604051809481937fcc317b0b000000000000000000000000000000000000000000000000000000008352886004840152670de0b6b3a764000060248401528160448401528160648401528160848401525af19081156113e75786916113f2575b50936004946001600160a01b03600654166040519687809262c1fbd760e51b82525afa9485156113e75786956113cb575b50855b85518110156113c7576001600160a01b03600654166112468288613e7b565b5190803b156107c6578a899161127f838d9560405196879586948593631afa745960e11b85526101006004860152610104850190613ba6565b918d6024850152670de0b6b3a7640000604485015260648401528d60848401528a60a484015260c48301528a60e483015203925af19081156113895788916113b2575b50506112ce8187613e7b565b5161130e60206001600160a01b03600654166112ea858b613e7b565b519060405180809581946305ca57cf60e01b83528660048401526024830190613ba6565b03915afa908115610767578991611394575b50893b156107c6576001600160a01b0389916113526040519485938493633845c6c360e11b8552169060048401613e8f565b0381838d5af1908115611389578891611370575b5050600101611227565b8161137a91613ae5565b611385578638611366565b8680fd5b6040513d8a823e3d90fd5b6113ac915060203d811161079f576107908183613ae5565b38611320565b816113bc91613ae5565b6113855786386112c2565b8680f35b6113e09195503d8088833e6109258183613ae5565b9338611224565b6040513d88823e3d90fd5b816113fc91613ae5565b6103fb5784386111f3565b8580fd5b8161141591613ae5565b6103fb578438611179565b8161142a91613ae5565b6103fb578438611131565b61144e915060203d60201161079f576107908183613ae5565b386110d4565b8161145e91613ae5565b6103fb5784386110a1565b8161147391613ae5565b6103fb57843861105d565b8161148891613ae5565b6103fb578438611019565b8161149d91613ae5565b6103fb578438610fd5565b015190503880610e0a565b828a52808a209a601f1983168b5b81811061150e5750838c9d6001600160a01b0397948897949d9e9c9d8897600195106114f5575b505050811b019055610f0f565b015160001960f88460031b161c191690553880806114e8565b838301518e556001909d019c602093840193016114c1565b61155190838b5260208b20601f840160051c81019160208510611557575b601f0160051c0190613dc8565b38610ecb565b9091508190611544565b602489634e487b7160e01b81526041600452fd5b6004919950611595903d808b833e61158d8183613ae5565b810190613d68565b9890610ea3565b506020813d6020116115d1575b816115b660209383613ae5565b81010312610763575160ff811681036107635760ff90610e5d565b3d91506115a9565b838b52818b209190601f1984168c5b818110611624575090846001959493921061160b575b505050811b019055610e21565b015160001960f88460031b161c191690553880806115fe565b929360206001819287860151815501950193016115e8565b61166690848c5260208c20601f850160051c8101916020861061155757601f0160051c0190613dc8565b38610dee565b60248a634e487b7160e01b81526041600452fd5b61169491503d808a833e61158d8183613ae5565b38610dc4565b9093506020813d6020116116d6575b816116b660209383613ae5565b8101031261076357516001600160a01b0381168103610763579238610cdf565b3d91506116a9565b919293945096506020813d602011611725575b816116fe60209383613ae5565b8101031261076357516001600160a01b038116810361076357958793929190610ccd610c73565b3d91506116f1565b9091506020813d602011611769575b8161174960209383613ae5565b8101031261138557516001600160a01b0381168103611385579038610c03565b3d915061173c565b6040513d89823e3d90fd5b90506020813d6020116117b6575b8161179760209383613ae5565b8101031261140757516001600160a01b03811681036114075738610b95565b3d915061178a565b9091506020813d6020116117fa575b816117da60209383613ae5565b810103126103fb57516001600160a01b03811681036103fb579038610b16565b3d91506117cd565b6040513d87823e3d90fd5b602485634e487b7160e01b81526041600452fd5b606460405162461bcd60e51b815260206004820152600e60248201527f616c7265616479206578697374730000000000000000000000000000000000006044820152fd5b8060206001600160a01b03600654166004604051809481937f91f1cfc10000000000000000000000000000000000000000000000000000000083525af1801561195d57829061198b575b6001600160a01b03915016806001600160a01b03196005541617600555600460206001600160a01b0360065416604051928380926306d6aa2760e51b82525afa90811561093357839161196c575b50813b15611968576001600160a01b036044849283604051958694859363226dc99760e21b8552166004840152600160248401525af1801561195d57908291611948575b5050610a5d565b8161195291613ae5565b61016e578038611941565b6040513d84823e3d90fd5b8280fd5b611985915060203d60201161079f576107908183613ae5565b386118fd565b506020813d6020116119d0575b816119a560209383613ae5565b810103126119cc57516001600160a01b03811681036119cc576001600160a01b03906118af565b5080fd5b3d9150611998565b8060206001600160a01b036006541660246001600160a01b036001541660405194859384927f57d475ef00000000000000000000000000000000000000000000000000000000845260048401525af1801561195d578290611a55575b6001600160a01b039150166001600160a01b03196004541617600455610a4b565b506020813d602011611a96575b81611a6f60209383613ae5565b810103126119cc57516001600160a01b03811681036119cc576001600160a01b0390611a34565b3d9150611a62565b503461016e578060031936011261016e576001600160a01b03600654166040519062c1fbd760e51b82528282600481845afa918215610933578392611bc9575b50815190601f19611b07611af184613b08565b93611aff6040519586613ae5565b808552613b08565b01366020840137835b8351811015611b9b57806020611b29611b4b9387613e7b565b51604051809481926305ca57cf60e01b83528460048401526024830190613ba6565b0381865afa9182156113e7576001926001600160a01b03918891611b7d575b5016611b768286613e7b565b5201611b10565b611b95915060203d811161079f576107908183613ae5565b38611b6a565b611bb784611bc585604051938493604085526040850190613cab565b908382036020850152613c6e565b0390f35b611bde9192503d8085833e6109258183613ae5565b9038611ade565b503461016e57602060031936011261016e576004816001600160a01b0380611c0b613a50565b168083526007602052611cb1604084209183604051611c2981613ab2565b81855416815281600186015416906020810191825260028601546040820152611c5460038701613eb6565b6060820152611c64898701613eb6565b60808201528260058701541660a08201526101208360098160068a0154169860c08501998a528260078201541660e086015282600882015416610100860152015416910152511614613f78565b5116604051928380927fcd2ce4ae0000000000000000000000000000000000000000000000000000000082525afa90811561195d5782611bc59392611d07575b5050604051918291602083526020830190613cab565b611d1b92503d8091833e6109258183613ae5565b3880611cf1565b503461016e578060031936011261016e5760206001600160a01b037f9016d09d72d40fdae2fd8ceac6b6234c7706214fd39c1cd1e609a0528c1993005416604051908152f35b503461016e57602060031936011261016e576040611bc5916001600160a01b03611d90613a50565b611d98613fc3565b501681526007602052206001600160a01b03600960405192611db984613ab2565b82815416845282600182015416602085015260028101546040850152611de160038201613eb6565b6060850152611df260048201613eb6565b60808501528260058201541660a08501528260068201541660c08501528260078201541660e085015282600882015416610100850152015416610120820152604051918291602083526020830190613bcb565b503461016e578060031936011261016e5760405180916020600354928381520191600382527fc2575a0e9e593c00f959f8c92f12db2869c3395a3b0502d05e2516446f71f85b915b818110611eb857611bc585611ea481870382613ae5565b604051918291602083526020830190613c6e565b82546001600160a01b0316845260209093019260019283019201611e8d565b503461016e578060031936011261016e57611ef061411d565b806001600160a01b037f9016d09d72d40fdae2fd8ceac6b6234c7706214fd39c1cd1e609a0528c199300546001600160a01b031981167f9016d09d72d40fdae2fd8ceac6b6234c7706214fd39c1cd1e609a0528c19930055167f8be0079c531659141344cd1fd0a4f28419497f9722a3daafe3b4186f6b6457e08280a380f35b503461016e578060031936011261016e5760206001600160a01b0360055416604051908152f35b503461016e57602060031936011261016e576001600160a01b03611fb9613a50565b611fc161411d565b168015611fdc576001600160a01b0319600254161760025580f35b606460405162461bcd60e51b815260206004820152601960248201527f5472616465204665652041646472657373206973207a65726f000000000000006044820152fd5b503461016e57604060031936011261016e5760043567ffffffffffffffff81116119cc57612052903690600401613b3c565b61205a613a6b565b61206261411d565b6001600160a01b03600654169081156124025760206120b4859384936040519485809481937f5cd9dee70000000000000000000000000000000000000000000000000000000083528a60048401613e8f565b03925af1801561195d576001600160a01b039183916123e3575b5016600460206001600160a01b0360065416604051928380926306d6aa2760e51b82525afa9081156109335783916123c4575b50813b15611968576001600160a01b03602484928360405195869485937f748747e60000000000000000000000000000000000000000000000000000000085521660048401525af1801561195d576123af575b505b6003548110156123ab576001600160a01b0361217182613a81565b90549060031b1c168352600760205282604081206040519061219282613ab2565b6001600160a01b0381541682526001600160a01b036001820154169160208101928352600282015460408201526121cb60038301613eb6565b60608201526121dc60048301613eb6565b608082015260058201546001600160a01b0390811660a08301819052600680850154831660c085018181526007870154851660e0870181905260088801548616610100880181905260099098015486166101209097018790529254975190979196670de0b6b3a7640000959283169492909116843b156123a75789966122879488948e946040519b8c9a8b998a98631afa745960e11b8a5261010060048b01526101048a0190613ba6565b96602489015260448801526064870152608486015260a485015260c484015260e483015203925af1908115610933578391612392575b50506001600160a01b039051166001600160a01b036006541690602060405180936305ca57cf60e01b825282600483015281806122fd602482018b613ba6565b03915afa918215610933578392612372575b50803b15611968576001600160a01b0383916123449383604051809681958294633845c6c360e11b8452168b60048401613e8f565b03925af1801561195d5761235d575b5050600101612156565b8161236791613ae5565b611968578238612353565b61238b91925060203d811161079f576107908183613ae5565b903861230f565b8161239c91613ae5565b6119cc5781386122bd565b8980fd5b8280f35b816123b991613ae5565b6119cc578138612154565b6123dd915060203d60201161079f576107908183613ae5565b38612101565b6123fc915060203d60201161079f576107908183613ae5565b386120ce565b606460405162461bcd60e51b815260206004820152601a60248201527f696e76616c696420756e6465726c79696e6720666163746f72790000000000006044820152fd5b503461016e578060031936011261016e5760035461246381613b08565b906124716040519283613ae5565b808252601f1961248082613b08565b01835b8181106125e9575050825b8181106125185782846040519182916020830160208452825180915260408401602060408360051b870101940192905b8282106124cd57505050500390f35b91936020612508827fffffffffffffffffffffffffffffffffffffffffffffffffffffffffffffffc060019597998495030186528851613bcb565b96019201920185949391926124be565b806001600160a01b0361252c600193613a81565b90549060031b1c1685526007602052604085206001600160a01b0360096040519261255684613ab2565b82815416845282868201541660208501526002810154604085015261257d60038201613eb6565b606085015261258e60048201613eb6565b60808501528260058201541660a08501528260068201541660c08501528260078201541660e0850152826008820154166101008501520154166101208201526125d78286613e7b565b526125e28185613e7b565b500161248e565b6020906125f4613fc3565b82828701015201612483565b503461016e57606060031936011261016e5761261a613a50565b6024359067ffffffffffffffff821161196857366023830112156119685781600401359161264783613b08565b926126556040519485613ae5565b80845260051b8101602401602084013682116114075760248301905b8282106129585786866001600160a01b038761268b61411d565b1680835260076020528260408120604051906126a682613ab2565b6001600160a01b0381541682526001600160a01b036001820154169160208101928352600282015460408201526126df60038301613eb6565b60608201526126f060048301613eb6565b60808201526001600160a01b036005830154169160a082019283526001600160a01b036006820154169360c083019485526127706001600160a01b036007840154169760e085019889526101206001600160a01b0360098160088801541696610100890197885201541695019485526001600160a01b0383511614613f78565b855b88518110156113c757612785818a613e7b565b516001600160a01b03600654166001600160a01b038451169060016044351460001461295257670de0b6b3a76400005b6001600160a01b038a5116918c6001600160a01b038951166001600160a01b03808d5116925116946001600160a01b038c511696843b156107d5578f969767ffffffffffffffff9861282c9589958c956040519c8d9b8c9a8b99631afa745960e11b8b5261010060048c01526101048b0190613ba6565b9760248a01521660448801526064870152608486015260a485015260c484015260e483015203925af190811561076757899161293d575b50506001600160a01b03875116906001600160a01b036006541690602060405180936305ca57cf60e01b825282600483015281806128a46024820187613ba6565b03915afa9182156107ca578a9261291d575b50823b156123a7576128ec926001600160a01b038b809460405196879586948593633845c6c360e11b8552169060048401613e8f565b03925af1908115611389578891612908575b5050600101612772565b8161291291613ae5565b61138557868b6128fe565b61293691925060203d811161079f576107908183613ae5565b908d6128b6565b8161294791613ae5565b61076357878c612863565b896127b5565b813567ffffffffffffffff81116107635760209161297d839260243691890101613b3c565b815201910190612671565b503461016e57602060031936011261016e576004359060035482101561016e5760206001600160a01b036129bb84613a81565b90549060031b1c16604051908152f35b503461016e57602060031936011261016e576001600160a01b036129ed613a50565b6129f561411d565b168015612a0e576001600160a01b031982541617815580f35b606460405162461bcd60e51b815260206004820152601460248201527f7269736b2061646472657373206973207a65726f0000000000000000000000006044820152fd5b503461016e57604060031936011261016e57612a6c613a50565b90602435906001600160a01b036004541615613901575b6001600160a01b0360055416156137a7575b6001600160a01b03831692838252600760205260408220926001840194806001600160a01b0387541614611821576003546801000000000000000081101561180d5783610895826001612aeb9401600355613a81565b60065484546040517f45d4b4510000000000000000000000000000000000000000000000000000000081526001600160a01b038681166004830152918216602482015291602091839160449183918a91165af1908115611802578591613765575b506001600160a01b03806006541691169260206001600160a01b0387541660846001600160a01b0360025416918960405196879485937f0de6b1230000000000000000000000000000000000000000000000000000000085528b6004860152602485015289604485015260648401525af19182156113e7578692613721575b506006546040517f047fd0d50000000000000000000000000000000000000000000000000000000081526001600160a01b0386811660048301529384166024820181905287851660448301529690939091602091859160649183918c91165af19081156117715787916136d9575b6006546040517f649031820000000000000000000000000000000000000000000000000000000081526001600160a01b03888116600483015289811660248301528084166044830152909550602091869116818b81606481015b03925af1938415611389578894613692575b506006546040517fa55d4ec80000000000000000000000000000000000000000000000000000000081526001600160a01b03888116600483015289811660248301529283166044820152999a989998916020918a9160649183918e91165af197881561076757899861364e575b50846001600160a01b03198254161790556001600160a01b0333166001600160a01b03198a541617895560058901856001600160a01b0319825416179055600989016001600160a01b0388166001600160a01b0319825416179055600889016001600160a01b0384166001600160a01b0319825416179055600789016001600160a01b0382166001600160a01b031982541617905560068901866001600160a01b03198254161790556040517f06fdde030000000000000000000000000000000000000000000000000000000081528881600481885afa908115610767578991613634575b50805160038b019167ffffffffffffffff821161362057612e188354613d8e565b601f81116135f0575b50602090601f831160011461358d57612e5092918c91836114a85750506000198260011b9260031b1c19161790565b90555b6040517f313ce567000000000000000000000000000000000000000000000000000000008152602081600481885afa8015610767578990613550575b60ff1660028b0155506040517f95d89b4100000000000000000000000000000000000000000000000000000000815298888a600481885afa998a1561076757899a613531575b50600401895167ffffffffffffffff811161166c57612ef48254613d8e565b601f8111613501575b5060209a601f821160011461348e57926001600160a01b039392612f40838695948e9f8f9d9e9f968897926114a85750506000198260011b9260031b1c19161790565b90555b1693169716927fe34d8fa001b04475d221b96a007a245b5ce7381c8fa9a9bf4b8fb5ffecbca93e60e06040513381528360208201528960408201528760608201528560808201528a60a08201528660c0820152a16001600160a01b03600454166001600160a01b036005541690883b156107635760405163f6ef183960e01b81526001600160a01b03918216600482015285821660248201528a82166044820152868216606482015291166084820152868160a481838c5af1908115611771578791613479575b5050823b1561140757604051631580010360e11b81526001600160a01b03898116600483015285166024820152868160448183885af1908115611771578791613464575b5050873b1561140757604051631580010360e11b81526001600160a01b038481166004830152851660248201528681604481838d5af190811561177157879161344f575b5050833b1561140757604051631580010360e11b81526001600160a01b03848116600483015289166024820152868160448183895af190811561177157879161343a575b5050600460206001600160a01b0360065416604051928380926306d6aa2760e51b82525afa90811561177157879161341b575b50853b156113855760405163f6ef183960e01b81526001600160a01b03898116600483015285811660248301528a811660448301528681166064830152919091166084820152868160a481838a5af1908115611771578791613406575b50506001600160a01b0360055416803b156113855786809160446040518094819363226dc99760e21b83528d6004840152600160248401525af19081156117715787916133f1575b50506001600160a01b0360045416803b156113855786809160a4604051809481937fcc317b0b0000000000000000000000000000000000000000000000000000000083528760048401528860248401528160448401528160648401528160848401525af19081156117715787916133dc575b50946004956001600160a01b03600654166040519788809262c1fbd760e51b82525afa9586156117715787966133c0575b50865b86518110156133bc576001600160a01b03600654166132738289613e7b565b5190803b156123a7578b8a916132ac838e9560405196879586948593631afa745960e11b85526101006004860152610104850190613ba6565b918c60248501528d6044850152606484015260848301528960a48301528c60c48301528d60e483015203925af19081156107675789916133a7575b50506132f38188613e7b565b5161330f60206001600160a01b03600654166112ea858c613e7b565b03915afa9081156107ca578a91613389575b508a3b156123a757613358918b6001600160a01b038c809460405196879586948593633845c6c360e11b8552169060048401613e8f565b03925af1908115610767578991613374575b5050600101613254565b8161337e91613ae5565b61076357873861336a565b6133a1915060203d811161079f576107908183613ae5565b38613321565b816133b191613ae5565b6107635787386132e7565b8780f35b6133d59196503d8089833e6109258183613ae5565b9438613251565b816133e691613ae5565b611407578538613220565b816133fb91613ae5565b6114075785386131ae565b8161341091613ae5565b611407578538613166565b613434915060203d60201161079f576107908183613ae5565b38613109565b8161344491613ae5565b6114075785386130d6565b8161345991613ae5565b611407578538613092565b8161346e91613ae5565b61140757853861304e565b8161348391613ae5565b61140757853861300a565b828b528b8b2090601f1983168c5b8181106134e95750836001600160a01b0396938e9f9d9e9c9d8897948897600195106134d0575b505050811b019055612f43565b015160001960f88460031b161c191690553880806134c3565b828f0151845560209e8f019e6001909401930161349c565b61352b90838c5260208c20601f840160051c8101916020851061155757601f0160051c0190613dc8565b38612efd565b6004919a50613549903d808c833e61158d8183613ae5565b9990612ed5565b506020813d602011613585575b8161356a60209383613ae5565b810103126107c6575160ff811681036107c65760ff90612e8f565b3d915061355d565b838c52818c209190601f1984168d5b8181106135d857509084600195949392106135bf575b505050811b019055612e53565b015160001960f88460031b161c191690553880806135b2565b9293602060018192878601518155019501930161359c565b61361a90848d5260208d20601f850160051c8101916020861061155757601f0160051c0190613dc8565b38612e21565b60248b634e487b7160e01b81526041600452fd5b61364891503d808b833e61158d8183613ae5565b38612df7565b9097506020813d60201161368a575b8161366a60209383613ae5565b810103126107c657516001600160a01b03811681036107c6579638612d12565b3d915061365d565b9093506020813d6020116136d1575b816136ae60209383613ae5565b810103126107635751986001600160a01b038a168a036107635798926020612ca5565b3d91506136a1565b919290506020813d602011613719575b816136f660209383613ae5565b8101031261138557516001600160a01b038116810361138557612c939291612c39565b3d91506136e9565b9091506020813d60201161375d575b8161373d60209383613ae5565b8101031261140757516001600160a01b0381168103611407579038612bcb565b3d9150613730565b90506020813d60201161379f575b8161378060209383613ae5565b810103126103fb57516001600160a01b03811681036103fb5738612b4c565b3d9150613773565b8060206001600160a01b03600654166004604051809481937f91f1cfc10000000000000000000000000000000000000000000000000000000083525af1801561195d5782906138b8575b6001600160a01b03915016806001600160a01b03196005541617600555600460206001600160a01b0360065416604051928380926306d6aa2760e51b82525afa908115610933578391613899575b50813b15611968576001600160a01b036044849283604051958694859363226dc99760e21b8552166004840152600160248401525af1801561195d578290613889575b5050612a95565b61389291613ae5565b3881613882565b6138b2915060203d60201161079f576107908183613ae5565b3861383f565b506020813d6020116138f9575b816138d260209383613ae5565b810103126119cc57516001600160a01b03811681036119cc576001600160a01b03906137f1565b3d91506138c5565b8060206001600160a01b036006541660246001600160a01b036001541660405194859384927f57d475ef00000000000000000000000000000000000000000000000000000000845260048401525af1801561195d57829061397e575b6001600160a01b039150166001600160a01b03196004541617600455612a83565b506020813d6020116139bf575b8161399860209383613ae5565b810103126119cc57516001600160a01b03811681036119cc576001600160a01b039061395d565b3d915061398b565b503461016e57602060031936011261016e576001600160a01b036139e9613a50565b6139f161411d565b168015613a0c576001600160a01b0319600154161760015580f35b606460405162461bcd60e51b815260206004820152601e60248201527f506c6174666f726d20546f6b656e2041646472657373206973207a65726f00006044820152fd5b600435906001600160a01b0382168203613a6657565b600080fd5b602435906001600160a01b0382168203613a6657565b600354811015613a9c57600360005260206000200190600090565b634e487b7160e01b600052603260045260246000fd5b610140810190811067ffffffffffffffff821117613acf57604052565b634e487b7160e01b600052604160045260246000fd5b90601f601f19910116810190811067ffffffffffffffff821117613acf57604052565b67ffffffffffffffff8111613acf5760051b60200190565b67ffffffffffffffff8111613acf57601f01601f191660200190565b81601f82011215613a6657803590613b5382613b20565b92613b616040519485613ae5565b82845260208383010111613a6657816000926020809301838601378301015290565b60005b838110613b965750506000910152565b8181015183820152602001613b86565b90601f19601f602093613bc481518092818752878088019101613b83565b0116010190565b906001600160a01b0382511681526001600160a01b036020830151166020820152604082015160408201526101206001600160a01b0381613c32613c2060608701516101406060880152610140870190613ba6565b60808701518682036080880152613ba6565b948260a08201511660a08601528260c08201511660c08601528260e08201511660e0860152826101008201511661010086015201511691015290565b906020808351928381520192019060005b818110613c8c5750505090565b82516001600160a01b0316845260209384019390920191600101613c7f565b9080602083519182815201916020808360051b8301019401926000915b838310613cd757505050505090565b9091929394602080613cf583601f1986600196030187528951613ba6565b97019301930191939290613cc8565b90816020910312613a6657516001600160a01b0381168103613a665790565b81601f82011215613a66578051613d3981613b20565b92613d476040519485613ae5565b81845260208284010111613a6657613d659160208085019101613b83565b90565b90602082820312613a6657815167ffffffffffffffff8111613a6657613d659201613d23565b90600182811c92168015613dbe575b6020831014613da857565b634e487b7160e01b600052602260045260246000fd5b91607f1691613d9d565b818110613dd3575050565b60008155600101613dc8565b602081830312613a665780519067ffffffffffffffff8211613a6657019080601f83011215613a66578151613e1381613b08565b92613e216040519485613ae5565b81845260208085019260051b82010191838311613a665760208201905b838210613e4d57505050505090565b815167ffffffffffffffff8111613a6657602091613e7087848094880101613d23565b815201910190613e3e565b8051821015613a9c5760209160051b010190565b906001600160a01b03613eaf602092959495604085526040850190613ba6565b9416910152565b9060405191826000825492613eca84613d8e565b8084529360018116908115613f385750600114613ef1575b50613eef92500383613ae5565b565b90506000929192526020600020906000915b818310613f1c575050906020613eef9282010138613ee2565b6020919350806001915483858901015201910190918492613f03565b60209350613eef9592507fffffffffffffffffffffffffffffffffffffffffffffffffffffffffffffff0091501682840152151560051b82010138613ee2565b15613f7f57565b606460405162461bcd60e51b815260206004820152600f60248201527f736574746c65206d69736d6174636800000000000000000000000000000000006044820152fd5b60405190613fd082613ab2565b600061012083828152826020820152826040820152606080820152606060808201528260a08201528260c08201528260e0820152826101008201520152565b6140198154613d8e565b9081614023575050565b81601f60009311600114614035575055565b8183526020832061405191601f0160051c810190600101613dc8565b8082528160208120915555565b6001600160a01b031680156140ee576001600160a01b037f9016d09d72d40fdae2fd8ceac6b6234c7706214fd39c1cd1e609a0528c19930054826001600160a01b03198216177f9016d09d72d40fdae2fd8ceac6b6234c7706214fd39c1cd1e609a0528c19930055167f8be0079c531659141344cd1fd0a4f28419497f9722a3daafe3b4186f6b6457e0600080a3565b7f1e4fbdf700000000000000000000000000000000000000000000000000000000600052600060045260246000fd5b6001600160a01b037f9016d09d72d40fdae2fd8ceac6b6234c7706214fd39c1cd1e609a0528c1993005416330361415057565b7f118cdaa7000000000000000000000000000000000000000000000000000000006000523360045260246000fd5b60ff7ff0c57e16840df040f15088dc2f81fe391c3923bec73e23a9662efc9c229c6a005460401c16156141ad57565b7fd7e6bcf80000000000000000000000000000000000000000000000000000000060005260046000fdfea26469706673582212203b6d76b33ffdc7f94790f0557eed569fab8b9bd91d327cb847eac36e73362f7264736f6c634300081c0033",
  "linkReferences": {},
  "deployedLinkReferences": {}
}