{
  "_format": "hh-sol-artifact-1",
  "contractName": "BManager",
  "sourceName": "contracts/deploy/BManager.sol",
  "abi": [
    {
      "inputs": [],
      "name": "InvalidInitialization",
      "type": "error"
    },
    {
      "inputs": [],
      "name": "NotInitializing",
      "type": "error"
    },
    {
      "inputs": [
        {
          "internalType": "address",
          "name": "owner",
          "type": "address"
        }
      ],
      "name": "OwnableInvalidOwner",
      "type": "error"
    },
    {
      "inputs": [
        {
          "internalType": "address",
          "name": "account",
          "type": "address"
        }
      ],
      "name": "OwnableUnauthorizedAccount",
      "type": "error"
    },
    {
      "anonymous": false,
      "inputs": [
        {
          "indexed": false,
          "internalType": "uint64",
          "name": "version",
          "type": "uint64"
        }
      ],
      "name": "Initialized",
      "type": "event"
    },
    {
      "anonymous": false,
      "inputs": [
        {
          "indexed": true,
          "internalType": "address",
          "name": "previousOwner",
          "type": "address"
        },
        {
          "indexed": true,
          "internalType": "address",
          "name": "newOwner",
          "type": "address"
        }
      ],
      "name": "OwnershipTransferred",
      "type": "event"
    },
    {
      "anonymous": false,
      "inputs": [
        {
          "indexed": false,
          "internalType": "address",
          "name": "creator",
          "type": "address"
        },
        {
          "indexed": false,
          "internalType": "address",
          "name": "settle",
          "type": "address"
        },
        {
          "indexed": false,
          "internalType": "address",
          "name": "perpetual",
          "type": "address"
        },
        {
          "indexed": false,
          "internalType": "address",
          "name": "privatePool",
          "type": "address"
        },
        {
          "indexed": false,
          "internalType": "address",
          "name": "orderBook",
          "type": "address"
        },
        {
          "indexed": false,
          "internalType": "address",
          "name": "tradeAgent",
          "type": "address"
        },
        {
          "indexed": false,
          "internalType": "address",
          "name": "tradeStation",
          "type": "address"
        }
      ],
      "name": "createTradePool",
      "type": "event"
    },
    {
      "inputs": [],
      "name": "buyBack",
      "outputs": [
        {
          "internalType": "contract BuyBack",
          "name": "",
          "type": "address"
        }
      ],
      "stateMutability": "view",
      "type": "function"
    },
    {
      "inputs": [
        {
          "internalType": "address",
          "name": "_settle",
          "type": "address"
        },
        {
          "internalType": "uint256",
          "name": "_multi",
          "type": "uint256"
        }
      ],
      "name": "createPerpetualTradeContract",
      "outputs": [],
      "stateMutability": "nonpayable",
      "type": "function"
    },
    {
      "inputs": [
        {
          "internalType": "address",
          "name": "_settle",
          "type": "address"
        }
      ],
      "name": "createPerpetualTradeContract",
      "outputs": [],
      "stateMutability": "nonpayable",
      "type": "function"
    },
    {
      "inputs": [
        {
          "internalType": "string",
          "name": "_tradePairName",
          "type": "string"
        },
        {
          "internalType": "address",
          "name": "_oracleAddr",
          "type": "address"
        }
      ],
      "name": "createUnderlying",
      "outputs": [],
      "stateMutability": "nonpayable",
      "type": "function"
    },
    {
      "inputs": [
        {
          "internalType": "address",
          "name": "_settle",
          "type": "address"
        }
      ],
      "name": "deletePerpetualTradeContract",
      "outputs": [],
      "stateMutability": "nonpayable",
      "type": "function"
    },
    {
      "inputs": [],
      "name": "getSettleList",
      "outputs": [
        {
          "internalType": "address[]",
          "name": "",
          "type": "address[]"
        }
      ],
      "stateMutability": "view",
      "type": "function"
    },
    {
      "inputs": [
        {
          "internalType": "address",
          "name": "_settle",
          "type": "address"
        }
      ],
      "name": "getTradePair",
      "outputs": [
        {
          "internalType": "string[]",
          "name": "pairs",
          "type": "string[]"
        }
      ],
      "stateMutability": "view",
      "type": "function"
    },
    {
      "inputs": [],
      "name": "getTradePoolUnit",
      "outputs": [
        {
          "components": [
            {
              "internalType": "address",
              "name": "creator",
              "type": "address"
            },
            {
              "internalType": "address",
              "name": "settle",
              "type": "address"
            },
            {
              "internalType": "uint256",
              "name": "decimals",
              "type": "uint256"
            },
            {
              "internalType": "string",
              "name": "settleName",
              "type": "string"
            },
            {
              "internalType": "string",
              "name": "symbol",
              "type": "string"
            },
            {
              "internalType": "contract PrivatePool",
              "name": "privatePool",
              "type": "address"
            },
            {
              "internalType": "contract Perpetual",
              "name": "perpetual",
              "type": "address"
            },
            {
              "internalType": "contract OrderBook",
              "name": "orderBook",
              "type": "address"
            },
            {
              "internalType": "contract TradeAgent",
              "name": "tradeAgent",
              "type": "address"
            },
            {
              "internalType": "contract TradeStation",
              "name": "tradeStation",
              "type": "address"
            }
          ],
          "internalType": "struct BManager.TradePoolUnit[]",
          "name": "",
          "type": "tuple[]"
        }
      ],
      "stateMutability": "view",
      "type": "function"
    },
    {
      "inputs": [
        {
          "internalType": "address",
          "name": "_settle",
          "type": "address"
        }
      ],
      "name": "getTradePoolUnit",
      "outputs": [
        {
          "components": [
            {
              "internalType": "address",
              "name": "creator",
              "type": "address"
            },
            {
              "internalType": "address",
              "name": "settle",
              "type": "address"
            },
            {
              "internalType": "uint256",
              "name": "decimals",
              "type": "uint256"
            },
            {
              "internalType": "string",
              "name": "settleName",
              "type": "string"
            },
            {
              "internalType": "string",
              "name": "symbol",
              "type": "string"
            },
            {
              "internalType": "contract PrivatePool",
              "name": "privatePool",
              "type": "address"
            },
            {
              "internalType": "contract Perpetual",
              "name": "perpetual",
              "type": "address"
            },
            {
              "internalType": "contract OrderBook",
              "name": "orderBook",
              "type": "address"
            },
            {
              "internalType": "contract TradeAgent",
              "name": "tradeAgent",
              "type": "address"
            },
            {
              "internalType": "contract TradeStation",
              "name": "tradeStation",
              "type": "address"
            }
          ],
          "internalType": "struct BManager.TradePoolUnit",
          "name": "pool",
          "type": "tuple"
        }
      ],
      "stateMutability": "view",
      "type": "function"
    },
    {
      "inputs": [],
      "name": "getUnderlying",
      "outputs": [
        {
          "internalType": "string[]",
          "name": "names",
          "type": "string[]"
        },
        {
          "internalType": "address[]",
          "name": "addresses",
          "type": "address[]"
        }
      ],
      "stateMutability": "view",
      "type": "function"
    },
    {
      "inputs": [
        {
          "internalType": "address",
          "name": "_initialOwner",
          "type": "address"
        },
        {
          "internalType": "address",
          "name": "_riskAddr",
          "type": "address"
        },
        {
          "internalType": "address",
          "name": "_platformToken",
          "type": "address"
        },
        {
          "internalType": "address",
          "name": "_tradeFee",
          "type": "address"
        }
      ],
      "name": "initialize",
      "outputs": [],
      "stateMutability": "nonpayable",
      "type": "function"
    },
    {
      "inputs": [],
      "name": "marketAgent",
      "outputs": [
        {
          "internalType": "contract MarketAgent",
          "name": "",
          "type": "address"
        }
      ],
      "stateMutability": "view",
      "type": "function"
    },
    {
      "inputs": [],
      "name": "owner",
      "outputs": [
        {
          "internalType": "address",
          "name": "",
          "type": "address"
        }
      ],
      "stateMutability": "view",
      "type": "function"
    },
    {
      "inputs": [],
      "name": "platformToken",
      "outputs": [
        {
          "internalType": "address",
          "name": "",
          "type": "address"
        }
      ],
      "stateMutability": "view",
      "type": "function"
    },
    {
      "inputs": [],
      "name": "proxyFactory",
      "outputs": [
        {
          "internalType": "contract ProxyFactory",
          "name": "",
          "type": "address"
        }
      ],
      "stateMutability": "view",
      "type": "function"
    },
    {
      "inputs": [],
      "name": "renounceOwnership",
      "outputs": [],
      "stateMutability": "nonpayable",
      "type": "function"
    },
    {
      "inputs": [],
      "name": "riskAddr",
      "outputs": [
        {
          "internalType": "address",
          "name": "",
          "type": "address"
        }
      ],
      "stateMutability": "view",
      "type": "function"
    },
    {
      "inputs": [
        {
          "internalType": "address",
          "name": "_addr",
          "type": "address"
        }
      ],
      "name": "setPlatformToken",
      "outputs": [],
      "stateMutability": "nonpayable",
      "type": "function"
    },
    {
      "inputs": [
        {
          "internalType": "address",
          "name": "_factory",
          "type": "address"
        }
      ],
      "name": "setProxyFactory",
      "outputs": [],
      "stateMutability": "nonpayable",
      "type": "function"
    },
    {
      "inputs": [
        {
          "internalType": "address",
          "name": "_addr",
          "type": "address"
        }
      ],
      "name": "setRiskAddr",
      "outputs": [],
      "stateMutability": "nonpayable",
      "type": "function"
    },
    {
      "inputs": [
        {
          "internalType": "address",
          "name": "_addr",
          "type": "address"
        }
      ],
      "name": "setTradeFeeAddr",
      "outputs": [],
      "stateMutability": "nonpayable",
      "type": "function"
    },
    {
      "inputs": [
        {
          "internalType": "address",
          "name": "_settle",
          "type": "address"
        },
        {
          "internalType": "string[]",
          "name": "_pairs",
          "type": "string[]"
        },
        {
          "internalType": "uint256",
          "name": "_opCode",
          "type": "uint256"
        }
      ],
      "name": "setTradePair",
      "outputs": [],
      "stateMutability": "nonpayable",
      "type": "function"
    },
    {
      "inputs": [
        {
          "internalType": "uint256",
          "name": "",
          "type": "uint256"
        }
      ],
      "name": "settleList",
      "outputs": [
        {
          "internalType": "address",
          "name": "",
          "type": "address"
        }
      ],
      "stateMutability": "view",
      "type": "function"
    },
    {
      "inputs": [],
      "name": "tradeFeeAddr",
      "outputs": [
        {
          "internalType": "address",
          "name": "",
          "type": "address"
        }
      ],
      "stateMutability": "view",
      "type": "function"
    },
    {
      "inputs": [
        {
          "internalType": "address",
          "name": "newOwner",
          "type": "address"
        }
      ],
      "name": "transferOwnership",
      "outputs": [],
      "stateMutability": "nonpayable",
      "type": "function"
    }
  ],
  "bytecode": "0x608080604052346015576140ab908161001b8239f35b600080fdfe6080604052600436101561001257600080fd5b6000803560e01c80630255a03b1461386557806302d72f95146129ba578063032d2e32146129335780631789682a146128f0578063534ec750146125685780635a4327d3146123ae5780635cd9dee714611f48578063645b3fd014611ebf57806369a0eeb814611e98578063715018a614611dff5780638187880514611d6d578063873fd3c314611c905780638da5cb5b14611c4a5780639360e33a14611b0d5780639816f473146119c6578063a6447d9714610a1e578063acdf4f18146109f7578063c10f1a75146109d0578063d1b812cd146109a9578063e08061b314610982578063eaa1606d14610449578063f2fde38b14610429578063f585203914610403578063f8c8765e146101715763fbddd7511461013057600080fd5b3461016e57602060031936011261016e576001600160a01b036101516138ee565b610159613fbb565b166001600160a01b0319600654161760065580f35b80fd5b503461016e57608060031936011261016e5761018b6138ee565b610193613909565b6044356001600160a01b0381168091036103ff57606435916001600160a01b0383168093036103fb577ff0c57e16840df040f15088dc2f81fe391c3923bec73e23a9662efc9c229c6a00549360ff8560401c16159467ffffffffffffffff8116801590816103f3575b60011490816103e9575b1590816103e0575b506103b8576001600160a01b039291818760017fffffffffffffffffffffffffffffffffffffffffffffffff00000000000000006102969516177ff0c57e16840df040f15088dc2f81fe391c3923bec73e23a9662efc9c229c6a0055610363575b5061027861401c565b61028061401c565b61028933613efc565b610291613fbb565b613efc565b166001600160a01b03198554161784556001600160a01b031960015416176001556001600160a01b031960025416176002556102cf5780f35b7fffffffffffffffffffffffffffffffffffffffffffffff00ffffffffffffffff7ff0c57e16840df040f15088dc2f81fe391c3923bec73e23a9662efc9c229c6a0054167ff0c57e16840df040f15088dc2f81fe391c3923bec73e23a9662efc9c229c6a00557fc7f505b2f371ae2175ee4913f4499e1f2633a7b5936321eed1cdaeb6115181d2602060405160018152a180f35b7fffffffffffffffffffffffffffffffffffffffffffffff0000000000000000001668010000000000000001177ff0c57e16840df040f15088dc2f81fe391c3923bec73e23a9662efc9c229c6a00553861026f565b6004877ff92ee8a9000000000000000000000000000000000000000000000000000000008152fd5b9050153861020e565b303b159150610206565b8791506101fc565b8480fd5b8380fd5b503461016e578060031936011261016e576001600160a01b036020915416604051908152f35b503461016e57602060031936011261016e576104466102896138ee565b80f35b503461016e57602060031936011261016e576001600160a01b0361046b6138ee565b16808252600760205260408220610490826001600160a01b0360018401541614613e16565b6001600160a01b03815416330361093e57826001600160a01b036006600493015416604051928380927fcd2ce4ae0000000000000000000000000000000000000000000000000000000082525afa908115610933578391610911575b506104f5613fbb565b818352600760205282604081206040519061050f82613950565b6001600160a01b0381541682526001600160a01b0360018201541691602081019283526002820154604082015261054860038301613d54565b606082015261055960048301613d54565b60808201526001600160a01b036005830154169160a082019283526001600160a01b036006820154169360c083019485526001600160a01b036007830154169660e084019788526101206001600160a01b0360098160088701541695610100880196875201541694019384526105da896001600160a01b0384511614613e16565b865b81518110156107d9576105ef8183613cfa565b516001600160a01b03600654166001600160a01b038551166001600160a01b038a51166001600160a01b03885116928d6001600160a01b03808d51169151166001600160a01b038c511691833b156107d5578f956106729387938a936040519a8b998a988997631afa745960e11b895261010060048a0152610104890190613a44565b9560248801528760448801526064870152608486015260a485015260c484015260e483015203925af19081156107ca578a916107b1575b50506001600160a01b03885116906001600160a01b036006541690602060405180936305ca57cf60e01b825282600483015281806106ea6024820187613a44565b03915afa9182156107a6578b92610776575b50823b1561077257610732926001600160a01b038c809460405196879586948593633845c6c360e11b8552169060048401613d2d565b03925af190811561076757899161074e575b50506001016105dc565b8161075891613983565b610763578738610744565b8780fd5b6040513d8b823e3d90fd5b8a80fd5b61079891925060203d811161079f575b6107908183613983565b810190613d0e565b90386106fc565b503d610786565b6040513d8d823e3d90fd5b816107bb91613983565b6107c65788386106a9565b8880fd5b6040513d8c823e3d90fd5b8f80fd5b878a80825260076020528160096040822082815582600182015582600282015561080560038201613ead565b61081160048201613ead565b8260058201558260068201558260078201558260088201550155815b6003548082101561090b576001600160a01b036108498361391f565b90549060031b1c168314610860575060010161082d565b90915060001981019081116108f757906108956001600160a01b036108876108b49461391f565b90549060031b1c169161391f565b9091906001600160a01b038084549260031b9316831b921b1916179055565b60035480156108e357600019016108ca8161391f565b6001600160a01b0382549160031b1b1916905560035580f35b602482634e487b7160e01b81526031600452fd5b602483634e487b7160e01b81526011600452fd5b50505080f35b61092d91503d8085833e6109258183613983565b810190613c5e565b386104ec565b6040513d85823e3d90fd5b606460405162461bcd60e51b815260206004820152601660248201527f466f7262696464656e2c206e6f742063726561746f72000000000000000000006044820152fd5b503461016e578060031936011261016e5760206001600160a01b0360025416604051908152f35b503461016e578060031936011261016e5760206001600160a01b0360015416604051908152f35b503461016e578060031936011261016e5760206001600160a01b0360065416604051908152f35b503461016e578060031936011261016e5760206001600160a01b0360045416604051908152f35b503461016e57602060031936011261016e57610a386138ee565b906001600160a01b036004541615611900575b6001600160a01b03600554161561183d575b6001600160a01b03821691828252600760205260408220926001840190806001600160a01b03835416146117f957600354680100000000000000008110156117e55790610ab58461089584600189960160035561391f565b60065482546040517f45d4b4510000000000000000000000000000000000000000000000000000000081526001600160a01b038781166004830152918216602482015293602092859260449284929091165af19182156117da578592611796575b5060065485546002546040517f0de6b1230000000000000000000000000000000000000000000000000000000081526001600160a01b039586166004820181905292861660248201528786166044820152908516606482015290939091602091839160849183918b91165af19081156113de578691611754575b506006546040517f047fd0d50000000000000000000000000000000000000000000000000000000081526001600160a01b0385811660048301529283166024820181905287841660448301529590929091602091849160649183918c91165af1918215611749578792611705575b506006546040517f649031820000000000000000000000000000000000000000000000000000000081526001600160a01b03868116600483015287811660248301528881166044830152909791602091899160649183918d91165af19687156113805790889493929185986116b6575b506006546040517fa55d4ec80000000000000000000000000000000000000000000000000000000081526001600160a01b038881166004830152898116602483015292831660448201529560209287921690829081606481015b03925af1938415611380578894611672575b50826001600160a01b03198254161790556001600160a01b0333166001600160a01b031989541617885560058801846001600160a01b0319825416179055600988016001600160a01b0384166001600160a01b0319825416179055600888016001600160a01b0387166001600160a01b0319825416179055600788016001600160a01b0382166001600160a01b031982541617905560068801856001600160a01b03198254161790556040517f06fdde030000000000000000000000000000000000000000000000000000000081528781600481865afa908115611380578891611658575b50805160038a019167ffffffffffffffff821161164457610de08354613c0d565b601f8111611614575b50602090601f83116001146115b157610e1992918b9183611480575b50506000198260011b9260031b1c19161790565b90555b6040517f313ce567000000000000000000000000000000000000000000000000000000008152602081600481865afa8015611380578890611574575b60ff1660028a0155506040517f95d89b41000000000000000000000000000000000000000000000000000000008152978789600481865afa98891561138057889961154d575b50600401885167ffffffffffffffff811161153957610ebd8254613c0d565b601f81116114fe575b506020601f821160011461148b57926001600160a01b039392610f078386959486958e9f8f9d9e9f926114805750506000198260011b9260031b1c19161790565b90555b16971692167fe34d8fa001b04475d221b96a007a245b5ce7381c8fa9a9bf4b8fb5ffecbca93e60e06040513381528460208201528860408201528660608201528960808201528560a08201528360c0820152a16001600160a01b03600454166001600160a01b0360055416873b1561137c57604051917ff6ef183900000000000000000000000000000000000000000000000000000000835260048301528860248301528460448301528260648301526084820152858160a481838b5af19081156113de57869161146b575b5050863b156103fb57604051631580010360e11b81526001600160a01b038481166004830152821660248201528581604481838c5af19081156113de578691611456575b5050823b156103fb57604051631580010360e11b81526001600160a01b03888116600483015282166024820152858160448183885af19081156113de578691611441575b5050803b156103fb57604051631580010360e11b81526001600160a01b03888116600483015284166024820152858160448183865af19081156113de57869161142c575b5050833b156103fb576040517f81a4f1730000000000000000000000000000000000000000000000000000000081526001600160a01b0387811660048301528881166024830152848116604483015282166064820152858160848183895af19081156113de578691611417575b50506001600160a01b0360055416803b156113fe578580916044604051809481937f89b7265c0000000000000000000000000000000000000000000000000000000083528c6004840152600160248401525af19081156113de578691611402575b50506001600160a01b0360045416803b156113fe5785809160a4604051809481937fcc317b0b000000000000000000000000000000000000000000000000000000008352886004840152670de0b6b3a764000060248401528160448401528160648401528160848401525af19081156113de5786916113e9575b50936004946001600160a01b03600654166040519687809262c1fbd760e51b82525afa9485156113de5786956113c2575b50855b85518110156113be576001600160a01b036006541661123d8288613cfa565b5190803b156107c6578a8991611276838d9560405196879586948593631afa745960e11b85526101006004860152610104850190613a44565b918d6024850152670de0b6b3a7640000604485015260648401528d60848401528a60a484015260c48301528a60e483015203925af19081156113805788916113a9575b50506112c58187613cfa565b5161130560206001600160a01b03600654166112e1858b613cfa565b519060405180809581946305ca57cf60e01b83528660048401526024830190613a44565b03915afa90811561076757899161138b575b50893b156107c6576001600160a01b0389916113496040519485938493633845c6c360e11b8552169060048401613d2d565b0381838d5af1908115611380578891611367575b505060010161121e565b8161137191613983565b61137c57863861135d565b8680fd5b6040513d8a823e3d90fd5b6113a3915060203d811161079f576107908183613983565b38611317565b816113b391613983565b61137c5786386112b9565b8680f35b6113d79195503d8088833e6109258183613983565b933861121b565b6040513d88823e3d90fd5b816113f391613983565b6103fb5784386111ea565b8580fd5b8161140c91613983565b6103fb578438611170565b8161142191613983565b6103fb57843861110f565b8161143691613983565b6103fb5784386110a2565b8161144b91613983565b6103fb57843861105e565b8161146091613983565b6103fb57843861101a565b8161147591613983565b6103fb578438610fd6565b015190503880610e05565b828a52808a209a601f1983168b5b8181106114e65750838c9d6001600160a01b0397948897949d9e9c9d8897600195106114cd575b505050811b019055610f0a565b015160001960f88460031b161c191690553880806114c0565b838301518e556001909d019c60209384019301611499565b61152990838b5260208b20601f840160051c8101916020851061152f575b601f0160051c0190613c47565b38610ec6565b909150819061151c565b602489634e487b7160e01b81526041600452fd5b600491995061156d903d808b833e6115658183613983565b810190613be7565b9890610e9e565b506020813d6020116115a9575b8161158e60209383613983565b81010312610763575160ff811681036107635760ff90610e58565b3d9150611581565b838b52818b209190601f1984168c5b8181106115fc57509084600195949392106115e3575b505050811b019055610e1c565b015160001960f88460031b161c191690553880806115d6565b929360206001819287860151815501950193016115c0565b61163e90848c5260208c20601f850160051c8101916020861061152f57601f0160051c0190613c47565b38610de9565b60248a634e487b7160e01b81526041600452fd5b61166c91503d808a833e6115658183613983565b38610dbf565b9093506020813d6020116116ae575b8161168e60209383613983565b8101031261076357516001600160a01b0381168103610763579238610cda565b3d9150611681565b919293945096506020813d6020116116fd575b816116d660209383613983565b8101031261076357516001600160a01b038116810361076357958793929190610cc8610c6e565b3d91506116c9565b9091506020813d602011611741575b8161172160209383613983565b8101031261137c57516001600160a01b038116810361137c579038610bfe565b3d9150611714565b6040513d89823e3d90fd5b90506020813d60201161178e575b8161176f60209383613983565b810103126113fe57516001600160a01b03811681036113fe5738610b90565b3d9150611762565b9091506020813d6020116117d2575b816117b260209383613983565b810103126103fb57516001600160a01b03811681036103fb579038610b16565b3d91506117a5565b6040513d87823e3d90fd5b602485634e487b7160e01b81526041600452fd5b606460405162461bcd60e51b815260206004820152600e60248201527f616c7265616479206578697374730000000000000000000000000000000000006044820152fd5b8060206001600160a01b03600654166004604051809481937f91f1cfc10000000000000000000000000000000000000000000000000000000083525af180156118f55782906118a8575b6001600160a01b039150166001600160a01b03196005541617600555610a5d565b506020813d6020116118ed575b816118c260209383613983565b810103126118e957516001600160a01b03811681036118e9576001600160a01b0390611887565b5080fd5b3d91506118b5565b6040513d84823e3d90fd5b8060206001600160a01b036006541660246001600160a01b036001541660405194859384927f57d475ef00000000000000000000000000000000000000000000000000000000845260048401525af180156118f557829061197d575b6001600160a01b039150166001600160a01b03196004541617600455610a4b565b506020813d6020116119be575b8161199760209383613983565b810103126118e957516001600160a01b03811681036118e9576001600160a01b039061195c565b3d915061198a565b503461016e578060031936011261016e576001600160a01b03600654166040519062c1fbd760e51b82528282600481845afa918215610933578392611af1575b50815190601f19611a2f611a19846139a6565b93611a276040519586613983565b8085526139a6565b01366020840137835b8351811015611ac357806020611a51611a739387613cfa565b51604051809481926305ca57cf60e01b83528460048401526024830190613a44565b0381865afa9182156113de576001926001600160a01b03918891611aa5575b5016611a9e8286613cfa565b5201611a38565b611abd915060203d811161079f576107908183613983565b38611a92565b611adf84611aed85604051938493604085526040850190613b49565b908382036020850152613b0c565b0390f35b611b069192503d8085833e6109258183613983565b9038611a06565b503461016e57602060031936011261016e576004816001600160a01b0380611b336138ee565b168083526007602052611bd9604084209183604051611b5181613950565b81855416815281600186015416906020810191825260028601546040820152611b7c60038701613d54565b6060820152611b8c898701613d54565b60808201528260058701541660a08201526101208360098160068a0154169860c08501998a528260078201541660e086015282600882015416610100860152015416910152511614613e16565b5116604051928380927fcd2ce4ae0000000000000000000000000000000000000000000000000000000082525afa9081156118f55782611aed9392611c2f575b5050604051918291602083526020830190613b49565b611c4392503d8091833e6109258183613983565b3880611c19565b503461016e578060031936011261016e5760206001600160a01b037f9016d09d72d40fdae2fd8ceac6b6234c7706214fd39c1cd1e609a0528c1993005416604051908152f35b503461016e57602060031936011261016e576040611aed916001600160a01b03611cb86138ee565b611cc0613e61565b501681526007602052206001600160a01b03600960405192611ce184613950565b82815416845282600182015416602085015260028101546040850152611d0960038201613d54565b6060850152611d1a60048201613d54565b60808501528260058201541660a08501528260068201541660c08501528260078201541660e085015282600882015416610100850152015416610120820152604051918291602083526020830190613a69565b503461016e578060031936011261016e5760405180916020600354928381520191600382527fc2575a0e9e593c00f959f8c92f12db2869c3395a3b0502d05e2516446f71f85b915b818110611de057611aed85611dcc81870382613983565b604051918291602083526020830190613b0c565b82546001600160a01b0316845260209093019260019283019201611db5565b503461016e578060031936011261016e57611e18613fbb565b806001600160a01b037f9016d09d72d40fdae2fd8ceac6b6234c7706214fd39c1cd1e609a0528c199300546001600160a01b031981167f9016d09d72d40fdae2fd8ceac6b6234c7706214fd39c1cd1e609a0528c19930055167f8be0079c531659141344cd1fd0a4f28419497f9722a3daafe3b4186f6b6457e08280a380f35b503461016e578060031936011261016e5760206001600160a01b0360055416604051908152f35b503461016e57602060031936011261016e576001600160a01b03611ee16138ee565b611ee9613fbb565b168015611f04576001600160a01b0319600254161760025580f35b606460405162461bcd60e51b815260206004820152601960248201527f5472616465204665652041646472657373206973207a65726f000000000000006044820152fd5b503461016e57604060031936011261016e5760043567ffffffffffffffff81116118e957611f7a9036906004016139da565b611f82613909565b611f8a613fbb565b6001600160a01b036006541690811561236a576020611fdc859384936040519485809481937f5cd9dee70000000000000000000000000000000000000000000000000000000083528a60048401613d2d565b03925af180156118f5576001600160a01b0391839161234b575b5016600460206001600160a01b0360065416604051928380927fdad544e00000000000000000000000000000000000000000000000000000000082525afa908115610933578391612309575b50813b156122b3576001600160a01b03602484928360405195869485937f748747e60000000000000000000000000000000000000000000000000000000085521660048401525af180156118f5576122f4575b505b6003548110156122f0576001600160a01b036120b28261391f565b90549060031b1c16835260076020528260408120604051906120d382613950565b6001600160a01b0381541682526001600160a01b0360018201541691602081019283526002820154604082015261210c60038301613d54565b606082015261211d60048301613d54565b608082015260058201546001600160a01b0390811660a08301819052600680850154831660c085018181526007870154851660e0870181905260088801548616610100880181905260099098015486166101209097018790529254975190979196670de0b6b3a7640000959283169492909116843b156122ec5789966121c89488948e946040519b8c9a8b998a98631afa745960e11b8a5261010060048b01526101048a0190613a44565b96602489015260448801526064870152608486015260a485015260c484015260e483015203925af19081156109335783916122d7575b50506001600160a01b039051166001600160a01b036006541690602060405180936305ca57cf60e01b8252826004830152818061223e602482018b613a44565b03915afa9182156109335783926122b7575b50803b156122b3576001600160a01b0383916122859383604051809681958294633845c6c360e11b8452168b60048401613d2d565b03925af180156118f55761229e575b5050600101612097565b816122a891613983565b6122b3578238612294565b8280fd5b6122d091925060203d811161079f576107908183613983565b9038612250565b816122e191613983565b6118e95781386121fe565b8980fd5b8280f35b816122fe91613983565b6118e9578138612095565b90506020813d602011612343575b8161232460209383613983565b810103126122b357516001600160a01b03811681036122b35738612042565b3d9150612317565b612364915060203d60201161079f576107908183613983565b38611ff6565b606460405162461bcd60e51b815260206004820152601a60248201527f696e76616c696420756e6465726c79696e6720666163746f72790000000000006044820152fd5b503461016e578060031936011261016e576003546123cb816139a6565b906123d96040519283613983565b808252601f196123e8826139a6565b01835b818110612551575050825b8181106124805782846040519182916020830160208452825180915260408401602060408360051b870101940192905b82821061243557505050500390f35b91936020612470827fffffffffffffffffffffffffffffffffffffffffffffffffffffffffffffffc060019597998495030186528851613a69565b9601920192018594939192612426565b806001600160a01b0361249460019361391f565b90549060031b1c1685526007602052604085206001600160a01b036009604051926124be84613950565b8281541684528286820154166020850152600281015460408501526124e560038201613d54565b60608501526124f660048201613d54565b60808501528260058201541660a08501528260068201541660c08501528260078201541660e08501528260088201541661010085015201541661012082015261253f8286613cfa565b5261254a8185613cfa565b50016123f6565b60209061255c613e61565b828287010152016123eb565b503461016e57606060031936011261016e576125826138ee565b6024359067ffffffffffffffff82116122b357366023830112156122b3578160040135916125af836139a6565b926125bd6040519485613983565b80845260051b8101602401602084013682116113fe5760248301905b8282106128c05786866001600160a01b03876125f3613fbb565b16808352600760205282604081206040519061260e82613950565b6001600160a01b0381541682526001600160a01b0360018201541691602081019283526002820154604082015261264760038301613d54565b606082015261265860048301613d54565b60808201526001600160a01b036005830154169160a082019283526001600160a01b036006820154169360c083019485526126d86001600160a01b036007840154169760e085019889526101206001600160a01b0360098160088801541696610100890197885201541695019485526001600160a01b0383511614613e16565b855b88518110156113be576126ed818a613cfa565b516001600160a01b03600654166001600160a01b03845116906001604435146000146128ba57670de0b6b3a76400005b6001600160a01b038a5116918c6001600160a01b038951166001600160a01b03808d5116925116946001600160a01b038c511696843b156107d5578f969767ffffffffffffffff986127949589958c956040519c8d9b8c9a8b99631afa745960e11b8b5261010060048c01526101048b0190613a44565b9760248a01521660448801526064870152608486015260a485015260c484015260e483015203925af19081156107675789916128a5575b50506001600160a01b03875116906001600160a01b036006541690602060405180936305ca57cf60e01b8252826004830152818061280c6024820187613a44565b03915afa9182156107ca578a92612885575b50823b156122ec57612854926001600160a01b038b809460405196879586948593633845c6c360e11b8552169060048401613d2d565b03925af1908115611380578891612870575b50506001016126da565b8161287a91613983565b61137c57868b612866565b61289e91925060203d811161079f576107908183613983565b908d61281e565b816128af91613983565b61076357878c6127cb565b8961271d565b813567ffffffffffffffff8111610763576020916128e58392602436918901016139da565b8152019101906125d9565b503461016e57602060031936011261016e576004359060035482101561016e5760206001600160a01b036129238461391f565b90549060031b1c16604051908152f35b503461016e57602060031936011261016e576001600160a01b036129556138ee565b61295d613fbb565b168015612976576001600160a01b031982541617815580f35b606460405162461bcd60e51b815260206004820152601460248201527f7269736b2061646472657373206973207a65726f0000000000000000000000006044820152fd5b503461016e57604060031936011261016e576129d46138ee565b90602435906001600160a01b03600454161561379f575b6001600160a01b0360055416156136eb575b6001600160a01b03831691828252600760205260408220906001820194846001600160a01b03875416146117f957600354680100000000000000008110156117e55790612a56816108958460018997960160035561391f565b60065483546040517f45d4b4510000000000000000000000000000000000000000000000000000000081526001600160a01b038481166004830152918216602482015294602092869260449284929091165af19283156117da5785936136a7575b5060065485546002546040517f0de6b1230000000000000000000000000000000000000000000000000000000081526001600160a01b039687166004820181905292871660248201528487166044820152908616606482015290949091602091839160849183918b91165af19081156113de578691613665575b506006546040517f047fd0d50000000000000000000000000000000000000000000000000000000081526001600160a01b0386811660048301529283166024820181905284841660448301529690929091602091849160649183918c91165af191821561174957879261361f575b506006546040517f649031820000000000000000000000000000000000000000000000000000000081526001600160a01b03878116600483015288811660248301528086166044830152909491602091869116818b81606481015b03925af19384156113805788946135d8575b506006546040517fa55d4ec80000000000000000000000000000000000000000000000000000000081526001600160a01b03888116600483015289811660248301529283166044820152999a989998916020918a9160649183918e91165af1978815610767578998613594575b50896001600160a01b03198254161790556001600160a01b0333166001600160a01b031982541617815560058101856001600160a01b0319825416179055600981016001600160a01b0388166001600160a01b0319825416179055600881016001600160a01b0384166001600160a01b0319825416179055600781016001600160a01b0383166001600160a01b031982541617905560068101866001600160a01b03198254161790556040517f06fdde0300000000000000000000000000000000000000000000000000000000815288816004818d5afa90811561076757899161357a575b508051600383019167ffffffffffffffff821161356657612d7f8354613c0d565b601f8111613536575b50602090601f83116001146134d357612db792918c91836114805750506000198260011b9260031b1c19161790565b90555b6040517f313ce5670000000000000000000000000000000000000000000000000000000081526020816004818d5afa8015610767578990613496575b60ff166002830155506040517f95d89b410000000000000000000000000000000000000000000000000000000081529088826004818d5afa918215610767578992613477575b506004019080519067ffffffffffffffff821161164457612e5d8354613c0d565b601f8111613447575b506020908a601f84116001146133d757836001600160a01b03969394879693958796612ea594926114805750506000198260011b9260031b1c19161790565b90555b1692169516917fe34d8fa001b04475d221b96a007a245b5ce7381c8fa9a9bf4b8fb5ffecbca93e60e06040513381528a60208201528760408201528660608201528460808201528860a08201528560c0820152a16001600160a01b0360045416976001600160a01b0360055416863b156107c657604051997ff6ef1839000000000000000000000000000000000000000000000000000000008b5260048b01528360248b01528760448b01528460648b015260848a0152878960a481838a5af18015611380576133be575b87985082979596973b156113fe57604051631580010360e11b81526001600160a01b03898116600483015285166024820152868160448183885af19081156117495787916133a9575b5050873b156113fe57604051631580010360e11b81526001600160a01b038481166004830152851660248201528681604481838d5af1908115611749578791613394575b5050833b156113fe57604051631580010360e11b81526001600160a01b03848116600483015289166024820152868160448183895af190811561174957879161337f575b5050843b156113fe576040517f81a4f1730000000000000000000000000000000000000000000000000000000081526001600160a01b03888116600483015284811660248301528981166044830152851660648201528681608481838a5af190811561174957879161336a575b50506001600160a01b0360055416803b1561137c578680916044604051809481937f89b7265c0000000000000000000000000000000000000000000000000000000083528d6004840152600160248401525af1908115611749578791613355575b50506001600160a01b0360045416803b1561137c5786809160a4604051809481937fcc317b0b0000000000000000000000000000000000000000000000000000000083528760048401528860248401528160448401528160648401528160848401525af1908115611749578791613340575b50946004956001600160a01b03600654166040519788809262c1fbd760e51b82525afa958615611749578796613324575b50865b8651811015613320576001600160a01b03600654166131d78289613cfa565b5190803b156122ec578b8a91613210838e9560405196879586948593631afa745960e11b85526101006004860152610104850190613a44565b918c60248501528d6044850152606484015260848301528960a48301528c60c48301528d60e483015203925af190811561076757899161330b575b50506132578188613cfa565b5161327360206001600160a01b03600654166112e1858c613cfa565b03915afa9081156107ca578a916132ed575b508a3b156122ec576132bc918b6001600160a01b038c809460405196879586948593633845c6c360e11b8552169060048401613d2d565b03925af19081156107675789916132d8575b50506001016131b8565b816132e291613983565b6107635787386132ce565b613305915060203d811161079f576107908183613983565b38613285565b8161331591613983565b61076357873861324b565b8780f35b6133399196503d8089833e6109258183613983565b94386131b5565b8161334a91613983565b6113fe578538613184565b8161335f91613983565b6113fe578538613112565b8161337491613983565b6113fe5785386130b1565b8161338991613983565b6113fe578538613044565b8161339e91613983565b6113fe578538613000565b816133b391613983565b6113fe578538612fbc565b9495969097816133cd91613983565b9594938790612f73565b50838b52818b209190601f1984168c5b81811061342f5750936001600160a01b03969387969360019383899810613416575b505050811b019055612ea8565b015160001960f88460031b161c19169055388080613409565b929360206001819287860151815501950193016133e7565b61347190848c5260208c20601f850160051c8101916020861061152f57601f0160051c0190613c47565b38612e66565b600491925061348f903d808c833e6115658183613983565b9190612e3c565b506020813d6020116134cb575b816134b060209383613983565b810103126107c6575160ff811681036107c65760ff90612df6565b3d91506134a3565b838c52818c209190601f1984168d5b81811061351e5750908460019594939210613505575b505050811b019055612dba565b015160001960f88460031b161c191690553880806134f8565b929360206001819287860151815501950193016134e2565b61356090848d5260208d20601f850160051c8101916020861061152f57601f0160051c0190613c47565b38612d88565b60248b634e487b7160e01b81526041600452fd5b61358e91503d808b833e6115658183613983565b38612d5e565b9097506020813d6020116135d0575b816135b060209383613983565b810103126107c657516001600160a01b03811681036107c6579638612c79565b3d91506135a3565b9093506020813d602011613617575b816135f460209383613983565b810103126107635751986001600160a01b038a168a036107635798926020612c0c565b3d91506135e7565b9091506020813d60201161365d575b8161363b60209383613983565b8101031261137c57516001600160a01b038116810361137c5790612bfa612b9f565b3d915061362e565b90506020813d60201161369f575b8161368060209383613983565b810103126113fe57516001600160a01b03811681036113fe5738612b31565b3d9150613673565b9092506020813d6020116136e3575b816136c360209383613983565b810103126103fb57516001600160a01b03811681036103fb579138612ab7565b3d91506136b6565b8060206001600160a01b03600654166004604051809481937f91f1cfc10000000000000000000000000000000000000000000000000000000083525af180156118f5578290613756575b6001600160a01b039150166001600160a01b031960055416176005556129fd565b506020813d602011613797575b8161377060209383613983565b810103126118e957516001600160a01b03811681036118e9576001600160a01b0390613735565b3d9150613763565b8060206001600160a01b036006541660246001600160a01b036001541660405194859384927f57d475ef00000000000000000000000000000000000000000000000000000000845260048401525af180156118f557829061381c575b6001600160a01b039150166001600160a01b031960045416176004556129eb565b506020813d60201161385d575b8161383660209383613983565b810103126118e957516001600160a01b03811681036118e9576001600160a01b03906137fb565b3d9150613829565b503461016e57602060031936011261016e576001600160a01b036138876138ee565b61388f613fbb565b1680156138aa576001600160a01b0319600154161760015580f35b606460405162461bcd60e51b815260206004820152601e60248201527f506c6174666f726d20546f6b656e2041646472657373206973207a65726f00006044820152fd5b600435906001600160a01b038216820361390457565b600080fd5b602435906001600160a01b038216820361390457565b60035481101561393a57600360005260206000200190600090565b634e487b7160e01b600052603260045260246000fd5b610140810190811067ffffffffffffffff82111761396d57604052565b634e487b7160e01b600052604160045260246000fd5b90601f601f19910116810190811067ffffffffffffffff82111761396d57604052565b67ffffffffffffffff811161396d5760051b60200190565b67ffffffffffffffff811161396d57601f01601f191660200190565b81601f82011215613904578035906139f1826139be565b926139ff6040519485613983565b8284526020838301011161390457816000926020809301838601378301015290565b60005b838110613a345750506000910152565b8181015183820152602001613a24565b90601f19601f602093613a6281518092818752878088019101613a21565b0116010190565b906001600160a01b0382511681526001600160a01b036020830151166020820152604082015160408201526101206001600160a01b0381613ad0613abe60608701516101406060880152610140870190613a44565b60808701518682036080880152613a44565b948260a08201511660a08601528260c08201511660c08601528260e08201511660e0860152826101008201511661010086015201511691015290565b906020808351928381520192019060005b818110613b2a5750505090565b82516001600160a01b0316845260209384019390920191600101613b1d565b9080602083519182815201916020808360051b8301019401926000915b838310613b7557505050505090565b9091929394602080613b9383601f1986600196030187528951613a44565b97019301930191939290613b66565b81601f82011215613904578051613bb8816139be565b92613bc66040519485613983565b8184526020828401011161390457613be49160208085019101613a21565b90565b9060208282031261390457815167ffffffffffffffff811161390457613be49201613ba2565b90600182811c92168015613c3d575b6020831014613c2757565b634e487b7160e01b600052602260045260246000fd5b91607f1691613c1c565b818110613c52575050565b60008155600101613c47565b6020818303126139045780519067ffffffffffffffff821161390457019080601f83011215613904578151613c92816139a6565b92613ca06040519485613983565b81845260208085019260051b820101918383116139045760208201905b838210613ccc57505050505090565b815167ffffffffffffffff811161390457602091613cef87848094880101613ba2565b815201910190613cbd565b805182101561393a5760209160051b010190565b9081602091031261390457516001600160a01b03811681036139045790565b906001600160a01b03613d4d602092959495604085526040850190613a44565b9416910152565b9060405191826000825492613d6884613c0d565b8084529360018116908115613dd65750600114613d8f575b50613d8d92500383613983565b565b90506000929192526020600020906000915b818310613dba575050906020613d8d9282010138613d80565b6020919350806001915483858901015201910190918492613da1565b60209350613d8d9592507fffffffffffffffffffffffffffffffffffffffffffffffffffffffffffffff0091501682840152151560051b82010138613d80565b15613e1d57565b606460405162461bcd60e51b815260206004820152600f60248201527f736574746c65206d69736d6174636800000000000000000000000000000000006044820152fd5b60405190613e6e82613950565b600061012083828152826020820152826040820152606080820152606060808201528260a08201528260c08201528260e0820152826101008201520152565b613eb78154613c0d565b9081613ec1575050565b81601f60009311600114613ed3575055565b81835260208320613eef91601f0160051c810190600101613c47565b8082528160208120915555565b6001600160a01b03168015613f8c576001600160a01b037f9016d09d72d40fdae2fd8ceac6b6234c7706214fd39c1cd1e609a0528c19930054826001600160a01b03198216177f9016d09d72d40fdae2fd8ceac6b6234c7706214fd39c1cd1e609a0528c19930055167f8be0079c531659141344cd1fd0a4f28419497f9722a3daafe3b4186f6b6457e0600080a3565b7f1e4fbdf700000000000000000000000000000000000000000000000000000000600052600060045260246000fd5b6001600160a01b037f9016d09d72d40fdae2fd8ceac6b6234c7706214fd39c1cd1e609a0528c19930054163303613fee57565b7f118cdaa7000000000000000000000000000000000000000000000000000000006000523360045260246000fd5b60ff7ff0c57e16840df040f15088dc2f81fe391c3923bec73e23a9662efc9c229c6a005460401c161561404b57565b7fd7e6bcf80000000000000000000000000000000000000000000000000000000060005260046000fdfea2646970667358221220dd64047cf52e16d542eef0c94b5b542c9b63dfc968da123762815d7dcdea093864736f6c634300081c0033",
  "linkReferences": {},
  "deployedLinkReferences": {}
}