{
  "_format": "hh-sol-artifact-1",
  "contractName": "BManager",
  "sourceName": "contracts/deploy/BManager.sol",
  "abi": [
    {
      "inputs": [],
      "name": "InvalidInitialization",
      "type": "error"
    },
    {
      "inputs": [],
      "name": "NotInitializing",
      "type": "error"
    },
    {
      "inputs": [
        {
          "internalType": "address",
          "name": "owner",
          "type": "address"
        }
      ],
      "name": "OwnableInvalidOwner",
      "type": "error"
    },
    {
      "inputs": [
        {
          "internalType": "address",
          "name": "account",
          "type": "address"
        }
      ],
      "name": "OwnableUnauthorizedAccount",
      "type": "error"
    },
    {
      "anonymous": false,
      "inputs": [
        {
          "indexed": false,
          "internalType": "uint64",
          "name": "version",
          "type": "uint64"
        }
      ],
      "name": "Initialized",
      "type": "event"
    },
    {
      "anonymous": false,
      "inputs": [
        {
          "indexed": true,
          "internalType": "address",
          "name": "previousOwner",
          "type": "address"
        },
        {
          "indexed": true,
          "internalType": "address",
          "name": "newOwner",
          "type": "address"
        }
      ],
      "name": "OwnershipTransferred",
      "type": "event"
    },
    {
      "anonymous": false,
      "inputs": [
        {
          "indexed": false,
          "internalType": "address",
          "name": "creator",
          "type": "address"
        },
        {
          "indexed": false,
          "internalType": "address",
          "name": "settle",
          "type": "address"
        },
        {
          "indexed": false,
          "internalType": "address",
          "name": "perpetual",
          "type": "address"
        },
        {
          "indexed": false,
          "internalType": "address",
          "name": "privatePool",
          "type": "address"
        },
        {
          "indexed": false,
          "internalType": "address",
          "name": "orderBook",
          "type": "address"
        },
        {
          "indexed": false,
          "internalType": "address",
          "name": "tradeAgent",
          "type": "address"
        },
        {
          "indexed": false,
          "internalType": "address",
          "name": "tradeStation",
          "type": "address"
        }
      ],
      "name": "createTradePool",
      "type": "event"
    },
    {
      "inputs": [],
      "name": "buyBack",
      "outputs": [
        {
          "internalType": "contract BuyBack",
          "name": "",
          "type": "address"
        }
      ],
      "stateMutability": "view",
      "type": "function"
    },
    {
      "inputs": [
        {
          "internalType": "address",
          "name": "_settle",
          "type": "address"
        },
        {
          "internalType": "uint256",
          "name": "_multi",
          "type": "uint256"
        }
      ],
      "name": "createPerpetualTradeContract",
      "outputs": [],
      "stateMutability": "nonpayable",
      "type": "function"
    },
    {
      "inputs": [
        {
          "internalType": "address",
          "name": "_settle",
          "type": "address"
        }
      ],
      "name": "createPerpetualTradeContract",
      "outputs": [],
      "stateMutability": "nonpayable",
      "type": "function"
    },
    {
      "inputs": [
        {
          "internalType": "string",
          "name": "_tradePairName",
          "type": "string"
        },
        {
          "internalType": "address",
          "name": "_oracleAddr",
          "type": "address"
        }
      ],
      "name": "createUnderlying",
      "outputs": [],
      "stateMutability": "nonpayable",
      "type": "function"
    },
    {
      "inputs": [
        {
          "internalType": "address",
          "name": "_settle",
          "type": "address"
        }
      ],
      "name": "deletePerpetualTradeContract",
      "outputs": [],
      "stateMutability": "nonpayable",
      "type": "function"
    },
    {
      "inputs": [],
      "name": "getSettleList",
      "outputs": [
        {
          "internalType": "address[]",
          "name": "",
          "type": "address[]"
        }
      ],
      "stateMutability": "view",
      "type": "function"
    },
    {
      "inputs": [
        {
          "internalType": "address",
          "name": "_settle",
          "type": "address"
        }
      ],
      "name": "getTradePair",
      "outputs": [
        {
          "internalType": "string[]",
          "name": "pairs",
          "type": "string[]"
        }
      ],
      "stateMutability": "view",
      "type": "function"
    },
    {
      "inputs": [],
      "name": "getTradePoolUnit",
      "outputs": [
        {
          "components": [
            {
              "internalType": "address",
              "name": "creator",
              "type": "address"
            },
            {
              "internalType": "address",
              "name": "settle",
              "type": "address"
            },
            {
              "internalType": "uint256",
              "name": "decimals",
              "type": "uint256"
            },
            {
              "internalType": "string",
              "name": "settleName",
              "type": "string"
            },
            {
              "internalType": "string",
              "name": "symbol",
              "type": "string"
            },
            {
              "internalType": "contract PrivatePool",
              "name": "privatePool",
              "type": "address"
            },
            {
              "internalType": "contract Perpetual",
              "name": "perpetual",
              "type": "address"
            },
            {
              "internalType": "contract OrderBook",
              "name": "orderBook",
              "type": "address"
            },
            {
              "internalType": "contract TradeAgent",
              "name": "tradeAgent",
              "type": "address"
            },
            {
              "internalType": "contract TradeStation",
              "name": "tradeStation",
              "type": "address"
            }
          ],
          "internalType": "struct BManager.TradePoolUnit[]",
          "name": "",
          "type": "tuple[]"
        }
      ],
      "stateMutability": "view",
      "type": "function"
    },
    {
      "inputs": [
        {
          "internalType": "address",
          "name": "_settle",
          "type": "address"
        }
      ],
      "name": "getTradePoolUnit",
      "outputs": [
        {
          "components": [
            {
              "internalType": "address",
              "name": "creator",
              "type": "address"
            },
            {
              "internalType": "address",
              "name": "settle",
              "type": "address"
            },
            {
              "internalType": "uint256",
              "name": "decimals",
              "type": "uint256"
            },
            {
              "internalType": "string",
              "name": "settleName",
              "type": "string"
            },
            {
              "internalType": "string",
              "name": "symbol",
              "type": "string"
            },
            {
              "internalType": "contract PrivatePool",
              "name": "privatePool",
              "type": "address"
            },
            {
              "internalType": "contract Perpetual",
              "name": "perpetual",
              "type": "address"
            },
            {
              "internalType": "contract OrderBook",
              "name": "orderBook",
              "type": "address"
            },
            {
              "internalType": "contract TradeAgent",
              "name": "tradeAgent",
              "type": "address"
            },
            {
              "internalType": "contract TradeStation",
              "name": "tradeStation",
              "type": "address"
            }
          ],
          "internalType": "struct BManager.TradePoolUnit",
          "name": "pool",
          "type": "tuple"
        }
      ],
      "stateMutability": "view",
      "type": "function"
    },
    {
      "inputs": [],
      "name": "getUnderlying",
      "outputs": [
        {
          "internalType": "string[]",
          "name": "names",
          "type": "string[]"
        },
        {
          "internalType": "address[]",
          "name": "addresses",
          "type": "address[]"
        }
      ],
      "stateMutability": "view",
      "type": "function"
    },
    {
      "inputs": [
        {
          "internalType": "address",
          "name": "_initialOwner",
          "type": "address"
        },
        {
          "internalType": "address",
          "name": "_riskAddr",
          "type": "address"
        },
        {
          "internalType": "address",
          "name": "_platformToken",
          "type": "address"
        },
        {
          "internalType": "address",
          "name": "_tradeFee",
          "type": "address"
        }
      ],
      "name": "initialize",
      "outputs": [],
      "stateMutability": "nonpayable",
      "type": "function"
    },
    {
      "inputs": [],
      "name": "marketAgent",
      "outputs": [
        {
          "internalType": "contract MarketAgent",
          "name": "",
          "type": "address"
        }
      ],
      "stateMutability": "view",
      "type": "function"
    },
    {
      "inputs": [],
      "name": "owner",
      "outputs": [
        {
          "internalType": "address",
          "name": "",
          "type": "address"
        }
      ],
      "stateMutability": "view",
      "type": "function"
    },
    {
      "inputs": [],
      "name": "platformToken",
      "outputs": [
        {
          "internalType": "address",
          "name": "",
          "type": "address"
        }
      ],
      "stateMutability": "view",
      "type": "function"
    },
    {
      "inputs": [
        {
          "internalType": "address",
          "name": "",
          "type": "address"
        }
      ],
      "name": "poolUnits",
      "outputs": [
        {
          "internalType": "address",
          "name": "creator",
          "type": "address"
        },
        {
          "internalType": "address",
          "name": "settle",
          "type": "address"
        },
        {
          "internalType": "uint256",
          "name": "decimals",
          "type": "uint256"
        },
        {
          "internalType": "string",
          "name": "settleName",
          "type": "string"
        },
        {
          "internalType": "string",
          "name": "symbol",
          "type": "string"
        },
        {
          "internalType": "contract PrivatePool",
          "name": "privatePool",
          "type": "address"
        },
        {
          "internalType": "contract Perpetual",
          "name": "perpetual",
          "type": "address"
        },
        {
          "internalType": "contract OrderBook",
          "name": "orderBook",
          "type": "address"
        },
        {
          "internalType": "contract TradeAgent",
          "name": "tradeAgent",
          "type": "address"
        },
        {
          "internalType": "contract TradeStation",
          "name": "tradeStation",
          "type": "address"
        }
      ],
      "stateMutability": "view",
      "type": "function"
    },
    {
      "inputs": [],
      "name": "proxyFactory",
      "outputs": [
        {
          "internalType": "contract ProxyFactory",
          "name": "",
          "type": "address"
        }
      ],
      "stateMutability": "view",
      "type": "function"
    },
    {
      "inputs": [],
      "name": "renounceOwnership",
      "outputs": [],
      "stateMutability": "nonpayable",
      "type": "function"
    },
    {
      "inputs": [],
      "name": "riskAddr",
      "outputs": [
        {
          "internalType": "address",
          "name": "",
          "type": "address"
        }
      ],
      "stateMutability": "view",
      "type": "function"
    },
    {
      "inputs": [
        {
          "internalType": "address",
          "name": "_addr",
          "type": "address"
        }
      ],
      "name": "setPlatformToken",
      "outputs": [],
      "stateMutability": "nonpayable",
      "type": "function"
    },
    {
      "inputs": [
        {
          "internalType": "address",
          "name": "_factory",
          "type": "address"
        }
      ],
      "name": "setProxyFactory",
      "outputs": [],
      "stateMutability": "nonpayable",
      "type": "function"
    },
    {
      "inputs": [
        {
          "internalType": "address",
          "name": "_addr",
          "type": "address"
        }
      ],
      "name": "setRiskAddr",
      "outputs": [],
      "stateMutability": "nonpayable",
      "type": "function"
    },
    {
      "inputs": [
        {
          "internalType": "address",
          "name": "_addr",
          "type": "address"
        }
      ],
      "name": "setTradeFeeAddr",
      "outputs": [],
      "stateMutability": "nonpayable",
      "type": "function"
    },
    {
      "inputs": [
        {
          "internalType": "address",
          "name": "_settle",
          "type": "address"
        },
        {
          "internalType": "string[]",
          "name": "_pairs",
          "type": "string[]"
        },
        {
          "internalType": "uint256",
          "name": "_opCode",
          "type": "uint256"
        }
      ],
      "name": "setTradePair",
      "outputs": [],
      "stateMutability": "nonpayable",
      "type": "function"
    },
    {
      "inputs": [
        {
          "internalType": "uint256",
          "name": "",
          "type": "uint256"
        }
      ],
      "name": "settleList",
      "outputs": [
        {
          "internalType": "address",
          "name": "",
          "type": "address"
        }
      ],
      "stateMutability": "view",
      "type": "function"
    },
    {
      "inputs": [],
      "name": "tradeFeeAddr",
      "outputs": [
        {
          "internalType": "address",
          "name": "",
          "type": "address"
        }
      ],
      "stateMutability": "view",
      "type": "function"
    },
    {
      "inputs": [
        {
          "internalType": "address",
          "name": "newOwner",
          "type": "address"
        }
      ],
      "name": "transferOwnership",
      "outputs": [],
      "stateMutability": "nonpayable",
      "type": "function"
    }
  ],
  "bytecode": "0x6080806040523460155761408b908161001b8239f35b600080fdfe6080604052600436101561001257600080fd5b6000803560e01c80630255a03b1461384557806302d72f95146129ad578063032d2e32146129265780631789682a146128e3578063534ec7501461255b5780635a4327d3146123a15780635cd9dee71461203e578063645b3fd014611fb557806369a0eeb814611f8e578063715018a614611ef55780638187880514611e63578063873fd3c314611d865780638da5cb5b14611d405780639360e33a14611c035780639816f47314611abc578063a6447d9714610b2c578063acdf4f1814610b05578063c10f1a7514610ade578063d1b812cd14610ab7578063e08061b314610a90578063eaa1606d14610557578063eb91cc1b14610454578063f2fde38b14610434578063f58520391461040e578063f8c8765e1461017c5763fbddd7511461013b57600080fd5b34610179576020600319360112610179576001600160a01b0361015c6138ce565b610164613f9b565b166001600160a01b0319600654161760065580f35b80fd5b5034610179576080600319360112610179576101966138ce565b61019e6138e9565b6044356001600160a01b03811680910361040a57606435916001600160a01b038316809303610406577ff0c57e16840df040f15088dc2f81fe391c3923bec73e23a9662efc9c229c6a00549360ff8560401c16159467ffffffffffffffff8116801590816103fe575b60011490816103f4575b1590816103eb575b506103c3576001600160a01b039291818760017fffffffffffffffffffffffffffffffffffffffffffffffff00000000000000006102a19516177ff0c57e16840df040f15088dc2f81fe391c3923bec73e23a9662efc9c229c6a005561036e575b50610283613ffc565b61028b613ffc565b61029433613edc565b61029c613f9b565b613edc565b166001600160a01b03198554161784556001600160a01b031960015416176001556001600160a01b031960025416176002556102da5780f35b7fffffffffffffffffffffffffffffffffffffffffffffff00ffffffffffffffff7ff0c57e16840df040f15088dc2f81fe391c3923bec73e23a9662efc9c229c6a0054167ff0c57e16840df040f15088dc2f81fe391c3923bec73e23a9662efc9c229c6a00557fc7f505b2f371ae2175ee4913f4499e1f2633a7b5936321eed1cdaeb6115181d2602060405160018152a180f35b7fffffffffffffffffffffffffffffffffffffffffffffff0000000000000000001668010000000000000001177ff0c57e16840df040f15088dc2f81fe391c3923bec73e23a9662efc9c229c6a00553861027a565b6004877ff92ee8a9000000000000000000000000000000000000000000000000000000008152fd5b90501538610219565b303b159150610211565b879150610207565b8480fd5b8380fd5b50346101795780600319360112610179576001600160a01b036020915416604051908152f35b5034610179576020600319360112610179576104516102946138ce565b80f35b5034610179576020600319360112610179576040906001600160a01b036104796138ce565b1681526007602052206001600160a01b038154166001600160a01b036001830154169160028101546104ad60038301613bbc565b916104ba60048201613bbc565b926001600160a01b03600583015416936105376001600160a01b03600685015416916105296001600160a01b03600787015416946001600160a01b0360098160088a01541698015416976040519b8c9b8c5260208c015260408b015261014060608b01526101408a0190613a24565b9088820360808a0152613a24565b9460a087015260c086015260e08501526101008401526101208301520390f35b5034610179576020600319360112610179576001600160a01b036105796138ce565b1680825260076020526040822061059e826001600160a01b0360018401541614613df6565b6001600160a01b038154163303610a4c57826001600160a01b036006600493015416604051928380927fcd2ce4ae0000000000000000000000000000000000000000000000000000000082525afa908115610a41578391610a1f575b50610603613f9b565b818352600760205282604081206040519061061d82613930565b6001600160a01b0381541682526001600160a01b0360018201541691602081019283526002820154604082015261065660038301613bbc565b606082015261066760048301613bbc565b60808201526001600160a01b036005830154169160a082019283526001600160a01b036006820154169360c083019485526001600160a01b036007830154169660e084019788526101206001600160a01b0360098160088701541695610100880196875201541694019384526106e8896001600160a01b0384511614613df6565b865b81518110156108e7576106fd8183613d9c565b516001600160a01b03600654166001600160a01b038551166001600160a01b038a51166001600160a01b03885116928d6001600160a01b03808d51169151166001600160a01b038c511691833b156108e3578f956107809387938a936040519a8b998a988997631afa745960e11b895261010060048a0152610104890190613a24565b9560248801528760448801526064870152608486015260a485015260c484015260e483015203925af19081156108d8578a916108bf575b50506001600160a01b03885116906001600160a01b036006541690602060405180936305ca57cf60e01b825282600483015281806107f86024820187613a24565b03915afa9182156108b4578b92610884575b50823b1561088057610840926001600160a01b038c809460405196879586948593633845c6c360e11b8552169060048401613dcf565b03925af190811561087557899161085c575b50506001016106ea565b8161086691613963565b610871578738610852565b8780fd5b6040513d8b823e3d90fd5b8a80fd5b6108a691925060203d81116108ad575b61089e8183613963565b810190613db0565b903861080a565b503d610894565b6040513d8d823e3d90fd5b816108c991613963565b6108d45788386107b7565b8880fd5b6040513d8c823e3d90fd5b8f80fd5b878a80825260076020528160096040822082815582600182015582600282015561091360038201613e8d565b61091f60048201613e8d565b8260058201558260068201558260078201558260088201550155815b60035480821015610a19576001600160a01b03610957836138ff565b90549060031b1c16831461096e575060010161093b565b9091506000198101908111610a0557906109a36001600160a01b036109956109c2946138ff565b90549060031b1c16916138ff565b9091906001600160a01b038084549260031b9316831b921b1916179055565b60035480156109f157600019016109d8816138ff565b6001600160a01b0382549160031b1b1916905560035580f35b602482634e487b7160e01b81526031600452fd5b602483634e487b7160e01b81526011600452fd5b50505080f35b610a3b91503d8085833e610a338183613963565b810190613d00565b386105fa565b6040513d85823e3d90fd5b606460405162461bcd60e51b815260206004820152601660248201527f466f7262696464656e2c206e6f742063726561746f72000000000000000000006044820152fd5b503461017957806003193601126101795760206001600160a01b0360025416604051908152f35b503461017957806003193601126101795760206001600160a01b0360015416604051908152f35b503461017957806003193601126101795760206001600160a01b0360065416604051908152f35b503461017957806003193601126101795760206001600160a01b0360045416604051908152f35b503461017957602060031936011261017957610b466138ce565b906001600160a01b0360045416156119f6575b6001600160a01b036005541615611933575b6001600160a01b03821690818152600760205260408120916001830193816001600160a01b03865416146118ef57600354680100000000000000008110156118db5790610bc3816109a38460018896016003556138ff565b60065482546040517f45d4b4510000000000000000000000000000000000000000000000000000000081526001600160a01b038481166004830152918216602482015293602092859260449284929091165af19182156118d0578492611889575b5060065484546002546040517f0de6b1230000000000000000000000000000000000000000000000000000000081526001600160a01b039586166004820181905292861660248201529385166044850152841660648401529596949591949192602091869160849183918a91165af193841561187e57859461183a575b506006546040517fb5c3ad390000000000000000000000000000000000000000000000000000000081526001600160a01b038481166004830152958616602482018190529095909491602091879160449183918b91165af19485156114cf5786956117f6575b506006546040517f484793fc0000000000000000000000000000000000000000000000000000000081526001600160a01b0385811660048301528681166024830152909691602091889160449183918c91165af19586156117eb5787966117a7575b506006546040517fa2c6a49e0000000000000000000000000000000000000000000000000000000081526001600160a01b0386811660048301528781166024830152909491602091869160449183918d91165af1938415611471578894611763575b50826001600160a01b03198254161790556001600160a01b0333166001600160a01b031989541617885560058801846001600160a01b0319825416179055600988016001600160a01b0384166001600160a01b0319825416179055600888016001600160a01b0387166001600160a01b0319825416179055600788016001600160a01b0382166001600160a01b031982541617905560068801856001600160a01b03198254161790556040517f06fdde030000000000000000000000000000000000000000000000000000000081528781600481865afa908115611471578891611749575b50805160038a019167ffffffffffffffff821161173557610ed18354613b82565b601f8111611705575b50602090601f83116001146116a257610f0a92918b9183611571575b50506000198260011b9260031b1c19161790565b90555b6040517f313ce567000000000000000000000000000000000000000000000000000000008152602081600481865afa8015611471578890611665575b60ff1660028a0155506040517f95d89b41000000000000000000000000000000000000000000000000000000008152978789600481865afa98891561147157889961163e575b50600401885167ffffffffffffffff811161162a57610fae8254613b82565b601f81116115ef575b506020601f821160011461157c57926001600160a01b039392610ff88386959486958e9f8f9d9e9f926115715750506000198260011b9260031b1c19161790565b90555b16971692167fe34d8fa001b04475d221b96a007a245b5ce7381c8fa9a9bf4b8fb5ffecbca93e60e06040513381528460208201528860408201528660608201528960808201528560a08201528360c0820152a16001600160a01b03600454166001600160a01b0360055416873b1561146d57604051917ff6ef183900000000000000000000000000000000000000000000000000000000835260048301528860248301528460448301528260648301526084820152858160a481838b5af19081156114cf57869161155c575b5050863b1561040657604051631580010360e11b81526001600160a01b038481166004830152821660248201528581604481838c5af19081156114cf578691611547575b5050823b1561040657604051631580010360e11b81526001600160a01b03888116600483015282166024820152858160448183885af19081156114cf578691611532575b5050803b1561040657604051631580010360e11b81526001600160a01b03888116600483015284166024820152858160448183865af19081156114cf57869161151d575b5050833b15610406576040517f81a4f1730000000000000000000000000000000000000000000000000000000081526001600160a01b0387811660048301528881166024830152848116604483015282166064820152858160848183895af19081156114cf578691611508575b50506001600160a01b0360055416803b156114ef578580916044604051809481937f89b7265c0000000000000000000000000000000000000000000000000000000083528c6004840152600160248401525af19081156114cf5786916114f3575b50506001600160a01b0360045416803b156114ef5785809160a4604051809481937fcc317b0b000000000000000000000000000000000000000000000000000000008352886004840152670de0b6b3a764000060248401528160448401528160648401528160848401525af19081156114cf5786916114da575b50936004946001600160a01b03600654166040519687809262c1fbd760e51b82525afa9485156114cf5786956114b3575b50855b85518110156114af576001600160a01b036006541661132e8288613d9c565b5190803b156108d4578a8991611367838d9560405196879586948593631afa745960e11b85526101006004860152610104850190613a24565b918d6024850152670de0b6b3a7640000604485015260648401528d60848401528a60a484015260c48301528a60e483015203925af190811561147157889161149a575b50506113b68187613d9c565b516113f660206001600160a01b03600654166113d2858b613d9c565b519060405180809581946305ca57cf60e01b83528660048401526024830190613a24565b03915afa90811561087557899161147c575b50893b156108d4576001600160a01b03899161143a6040519485938493633845c6c360e11b8552169060048401613dcf565b0381838d5af1908115611471578891611458575b505060010161130f565b8161146291613963565b61146d57863861144e565b8680fd5b6040513d8a823e3d90fd5b611494915060203d81116108ad5761089e8183613963565b38611408565b816114a491613963565b61146d5786386113aa565b8680f35b6114c89195503d8088833e610a338183613963565b933861130c565b6040513d88823e3d90fd5b816114e491613963565b6104065784386112db565b8580fd5b816114fd91613963565b610406578438611261565b8161151291613963565b610406578438611200565b8161152791613963565b610406578438611193565b8161153c91613963565b61040657843861114f565b8161155191613963565b61040657843861110b565b8161156691613963565b6104065784386110c7565b015190503880610ef6565b828a52808a209a601f1983168b5b8181106115d75750838c9d6001600160a01b0397948897949d9e9c9d8897600195106115be575b505050811b019055610ffb565b015160001960f88460031b161c191690553880806115b1565b838301518e556001909d019c6020938401930161158a565b61161a90838b5260208b20601f840160051c81019160208510611620575b601f0160051c0190613ce9565b38610fb7565b909150819061160d565b602489634e487b7160e01b81526041600452fd5b600491995061165e903d808b833e6116568183613963565b810190613cc3565b9890610f8f565b506020813d60201161169a575b8161167f60209383613963565b81010312610871575160ff811681036108715760ff90610f49565b3d9150611672565b838b52818b209190601f1984168c5b8181106116ed57509084600195949392106116d4575b505050811b019055610f0d565b015160001960f88460031b161c191690553880806116c7565b929360206001819287860151815501950193016116b1565b61172f90848c5260208c20601f850160051c8101916020861061162057601f0160051c0190613ce9565b38610eda565b60248a634e487b7160e01b81526041600452fd5b61175d91503d808a833e6116568183613963565b38610eb0565b9093506020813d60201161179f575b8161177f60209383613963565b8101031261087157516001600160a01b0381168103610871579238610dcb565b3d9150611772565b9095506020813d6020116117e3575b816117c360209383613963565b8101031261146d57516001600160a01b038116810361146d579438610d69565b3d91506117b6565b6040513d89823e3d90fd5b9094506020813d602011611832575b8161181260209383613963565b810103126114ef57516001600160a01b03811681036114ef579338610d07565b3d9150611805565b9093506020813d602011611876575b8161185660209383613963565b8101031261040657516001600160a01b0381168103610406579238610ca1565b3d9150611849565b6040513d87823e3d90fd5b9091506020813d6020116118c8575b816118a560209383613963565b8101031261040a5751946001600160a01b038616860361040a5794906020610c24565b3d9150611898565b6040513d86823e3d90fd5b602484634e487b7160e01b81526041600452fd5b606460405162461bcd60e51b815260206004820152600e60248201527f616c7265616479206578697374730000000000000000000000000000000000006044820152fd5b8060206001600160a01b03600654166004604051809481937f91f1cfc10000000000000000000000000000000000000000000000000000000083525af180156119eb57829061199e575b6001600160a01b039150166001600160a01b03196005541617600555610b6b565b506020813d6020116119e3575b816119b860209383613963565b810103126119df57516001600160a01b03811681036119df576001600160a01b039061197d565b5080fd5b3d91506119ab565b6040513d84823e3d90fd5b8060206001600160a01b036006541660246001600160a01b036001541660405194859384927f57d475ef00000000000000000000000000000000000000000000000000000000845260048401525af180156119eb578290611a73575b6001600160a01b039150166001600160a01b03196004541617600455610b59565b506020813d602011611ab4575b81611a8d60209383613963565b810103126119df57516001600160a01b03811681036119df576001600160a01b0390611a52565b3d9150611a80565b50346101795780600319360112610179576001600160a01b03600654166040519062c1fbd760e51b82528282600481845afa918215610a41578392611be7575b50815190601f19611b25611b0f84613986565b93611b1d6040519586613963565b808552613986565b01366020840137835b8351811015611bb957806020611b47611b699387613d9c565b51604051809481926305ca57cf60e01b83528460048401526024830190613a24565b0381865afa9182156114cf576001926001600160a01b03918891611b9b575b5016611b948286613d9c565b5201611b2e565b611bb3915060203d81116108ad5761089e8183613963565b38611b88565b611bd584611be385604051938493604085526040850190613b29565b908382036020850152613aec565b0390f35b611bfc9192503d8085833e610a338183613963565b9038611afc565b5034610179576020600319360112610179576004816001600160a01b0380611c296138ce565b168083526007602052611ccf604084209183604051611c4781613930565b81855416815281600186015416906020810191825260028601546040820152611c7260038701613bbc565b6060820152611c82898701613bbc565b60808201528260058701541660a08201526101208360098160068a0154169860c08501998a528260078201541660e086015282600882015416610100860152015416910152511614613df6565b5116604051928380927fcd2ce4ae0000000000000000000000000000000000000000000000000000000082525afa9081156119eb5782611be39392611d25575b5050604051918291602083526020830190613b29565b611d3992503d8091833e610a338183613963565b3880611d0f565b503461017957806003193601126101795760206001600160a01b037f9016d09d72d40fdae2fd8ceac6b6234c7706214fd39c1cd1e609a0528c1993005416604051908152f35b5034610179576020600319360112610179576040611be3916001600160a01b03611dae6138ce565b611db6613e41565b501681526007602052206001600160a01b03600960405192611dd784613930565b82815416845282600182015416602085015260028101546040850152611dff60038201613bbc565b6060850152611e1060048201613bbc565b60808501528260058201541660a08501528260068201541660c08501528260078201541660e085015282600882015416610100850152015416610120820152604051918291602083526020830190613a49565b503461017957806003193601126101795760405180916020600354928381520191600382527fc2575a0e9e593c00f959f8c92f12db2869c3395a3b0502d05e2516446f71f85b915b818110611ed657611be385611ec281870382613963565b604051918291602083526020830190613aec565b82546001600160a01b0316845260209093019260019283019201611eab565b5034610179578060031936011261017957611f0e613f9b565b806001600160a01b037f9016d09d72d40fdae2fd8ceac6b6234c7706214fd39c1cd1e609a0528c199300546001600160a01b031981167f9016d09d72d40fdae2fd8ceac6b6234c7706214fd39c1cd1e609a0528c19930055167f8be0079c531659141344cd1fd0a4f28419497f9722a3daafe3b4186f6b6457e08280a380f35b503461017957806003193601126101795760206001600160a01b0360055416604051908152f35b5034610179576020600319360112610179576001600160a01b03611fd76138ce565b611fdf613f9b565b168015611ffa576001600160a01b0319600254161760025580f35b606460405162461bcd60e51b815260206004820152601960248201527f5472616465204665652041646472657373206973207a65726f000000000000006044820152fd5b50346101795760406003193601126101795760043567ffffffffffffffff81116119df576120709036906004016139ba565b6120786138e9565b612080613f9b565b6001600160a01b036006541690811561235d578184923b15612307576120da83929183926040519485809481937f5cd9dee70000000000000000000000000000000000000000000000000000000083528a60048401613dcf565b03925af180156119eb57612348575b505b600354811015612344576001600160a01b03612106826138ff565b90549060031b1c168352600760205282604081206040519061212782613930565b6001600160a01b0381541682526001600160a01b0360018201541691602081019283526002820154604082015261216060038301613bbc565b606082015261217160048301613bbc565b608082015260058201546001600160a01b0390811660a08301819052600680850154831660c085018181526007870154851660e0870181905260088801548616610100880181905260099098015486166101209097018790529254975190979196670de0b6b3a7640000959283169492909116843b1561234057899661221c9488948e946040519b8c9a8b998a98631afa745960e11b8a5261010060048b01526101048a0190613a24565b96602489015260448801526064870152608486015260a485015260c484015260e483015203925af1908115610a4157839161232b575b50506001600160a01b039051166001600160a01b036006541690602060405180936305ca57cf60e01b82528260048301528180612292602482018b613a24565b03915afa918215610a4157839261230b575b50803b15612307576001600160a01b0383916122d99383604051809681958294633845c6c360e11b8452168b60048401613dcf565b03925af180156119eb576122f2575b50506001016120eb565b816122fc91613963565b6123075782386122e8565b8280fd5b61232491925060203d81116108ad5761089e8183613963565b90386122a4565b8161233591613963565b6119df578138612252565b8980fd5b8280f35b8161235291613963565b6119df5781386120e9565b606460405162461bcd60e51b815260206004820152601a60248201527f696e76616c696420756e6465726c79696e6720666163746f72790000000000006044820152fd5b50346101795780600319360112610179576003546123be81613986565b906123cc6040519283613963565b808252601f196123db82613986565b01835b818110612544575050825b8181106124735782846040519182916020830160208452825180915260408401602060408360051b870101940192905b82821061242857505050500390f35b91936020612463827fffffffffffffffffffffffffffffffffffffffffffffffffffffffffffffffc060019597998495030186528851613a49565b9601920192018594939192612419565b806001600160a01b036124876001936138ff565b90549060031b1c1685526007602052604085206001600160a01b036009604051926124b184613930565b8281541684528286820154166020850152600281015460408501526124d860038201613bbc565b60608501526124e960048201613bbc565b60808501528260058201541660a08501528260068201541660c08501528260078201541660e0850152826008820154166101008501520154166101208201526125328286613d9c565b5261253d8185613d9c565b50016123e9565b60209061254f613e41565b828287010152016123de565b5034610179576060600319360112610179576125756138ce565b6024359067ffffffffffffffff82116123075736602383011215612307578160040135916125a283613986565b926125b06040519485613963565b80845260051b8101602401602084013682116114ef5760248301905b8282106128b35786866001600160a01b03876125e6613f9b565b16808352600760205282604081206040519061260182613930565b6001600160a01b0381541682526001600160a01b0360018201541691602081019283526002820154604082015261263a60038301613bbc565b606082015261264b60048301613bbc565b60808201526001600160a01b036005830154169160a082019283526001600160a01b036006820154169360c083019485526126cb6001600160a01b036007840154169760e085019889526101206001600160a01b0360098160088801541696610100890197885201541695019485526001600160a01b0383511614613df6565b855b88518110156114af576126e0818a613d9c565b516001600160a01b03600654166001600160a01b03845116906001604435146000146128ad57670de0b6b3a76400005b6001600160a01b038a5116918c6001600160a01b038951166001600160a01b03808d5116925116946001600160a01b038c511696843b156108e3578f969767ffffffffffffffff986127879589958c956040519c8d9b8c9a8b99631afa745960e11b8b5261010060048c01526101048b0190613a24565b9760248a01521660448801526064870152608486015260a485015260c484015260e483015203925af1908115610875578991612898575b50506001600160a01b03875116906001600160a01b036006541690602060405180936305ca57cf60e01b825282600483015281806127ff6024820187613a24565b03915afa9182156108d8578a92612878575b50823b1561234057612847926001600160a01b038b809460405196879586948593633845c6c360e11b8552169060048401613dcf565b03925af1908115611471578891612863575b50506001016126cd565b8161286d91613963565b61146d57868b612859565b61289191925060203d81116108ad5761089e8183613963565b908d612811565b816128a291613963565b61087157878c6127be565b89612710565b813567ffffffffffffffff8111610871576020916128d88392602436918901016139ba565b8152019101906125cc565b503461017957602060031936011261017957600435906003548210156101795760206001600160a01b03612916846138ff565b90549060031b1c16604051908152f35b5034610179576020600319360112610179576001600160a01b036129486138ce565b612950613f9b565b168015612969576001600160a01b031982541617815580f35b606460405162461bcd60e51b815260206004820152601460248201527f7269736b2061646472657373206973207a65726f0000000000000000000000006044820152fd5b5034610179576040600319360112610179576129c76138ce565b906024356001600160a01b03600454161561377f575b6001600160a01b0360055416156136cb575b6001600160a01b03831692838352600760205260408320916001830192856001600160a01b03855416146118ef57600354680100000000000000008110156136b75790612a48846109a38460018a9796016003556138ff565b60065483546040517f45d4b4510000000000000000000000000000000000000000000000000000000081526001600160a01b038781166004830152918216602482015294602092869260449284929091165af19283156114cf578693613670575b5060065486546002546040517f0de6b1230000000000000000000000000000000000000000000000000000000081526001600160a01b0396871660048201819052928716602482015296861660448801528516606487015293602091869160849183918b91165af19384156114cf57869461362c575b506006546040517fb5c3ad390000000000000000000000000000000000000000000000000000000081526001600160a01b03858116600483015295861660248201819052959091602091839160449183918c91165af19081156117eb5787916135ea575b506006546040517f484793fc0000000000000000000000000000000000000000000000000000000081526001600160a01b0386811660048301528781166024830152909391602091859160449183918d91165af19283156114715788936135a6575b506006546040517fa2c6a49e0000000000000000000000000000000000000000000000000000000081526001600160a01b03878116600483015288811660248301529098916020918a9160449183918e91165af1978815610875578998613562575b50896001600160a01b03198254161790556001600160a01b0333166001600160a01b031982541617815560058101856001600160a01b0319825416179055600981016001600160a01b0388166001600160a01b0319825416179055600881016001600160a01b0384166001600160a01b0319825416179055600781016001600160a01b0383166001600160a01b031982541617905560068101866001600160a01b03198254161790556040517f06fdde0300000000000000000000000000000000000000000000000000000000815288816004818d5afa908115610875578991613548575b508051600383019167ffffffffffffffff821161353457612d4d8354613b82565b601f8111613504575b50602090601f83116001146134a157612d8592918c91836115715750506000198260011b9260031b1c19161790565b90555b6040517f313ce5670000000000000000000000000000000000000000000000000000000081526020816004818d5afa8015610875578990613464575b60ff166002830155506040517f95d89b410000000000000000000000000000000000000000000000000000000081529088826004818d5afa918215610875578992613445575b506004019080519067ffffffffffffffff821161173557612e2b8354613b82565b601f8111613415575b506020908a601f84116001146133a557836001600160a01b03969394879693958796612e7394926115715750506000198260011b9260031b1c19161790565b90555b1692169516917fe34d8fa001b04475d221b96a007a245b5ce7381c8fa9a9bf4b8fb5ffecbca93e60e06040513381528a60208201528760408201528660608201528460808201528860a08201528560c0820152a16001600160a01b0360045416976001600160a01b0360055416863b156108d457604051997ff6ef1839000000000000000000000000000000000000000000000000000000008b5260048b01528360248b01528760448b01528460648b015260848a0152878960a481838a5af180156114715761338c575b87985082979596973b156114ef57604051631580010360e11b81526001600160a01b03898116600483015285166024820152868160448183885af19081156117eb578791613377575b5050873b156114ef57604051631580010360e11b81526001600160a01b038481166004830152851660248201528681604481838d5af19081156117eb578791613362575b5050833b156114ef57604051631580010360e11b81526001600160a01b03848116600483015289166024820152868160448183895af19081156117eb57879161334d575b5050843b156114ef576040517f81a4f1730000000000000000000000000000000000000000000000000000000081526001600160a01b03888116600483015284811660248301528981166044830152851660648201528681608481838a5af19081156117eb578791613338575b50506001600160a01b0360055416803b1561146d578680916044604051809481937f89b7265c0000000000000000000000000000000000000000000000000000000083528d6004840152600160248401525af19081156117eb578791613323575b50506001600160a01b0360045416803b1561146d5786809160a4604051809481937fcc317b0b0000000000000000000000000000000000000000000000000000000083528760048401528860248401528160448401528160648401528160848401525af19081156117eb57879161330e575b50946004956001600160a01b03600654166040519788809262c1fbd760e51b82525afa9586156117eb5787966132f2575b50865b86518110156132ee576001600160a01b03600654166131a58289613d9c565b5190803b15612340578b8a916131de838e9560405196879586948593631afa745960e11b85526101006004860152610104850190613a24565b918c60248501528d6044850152606484015260848301528960a48301528c60c48301528d60e483015203925af19081156108755789916132d9575b50506132258188613d9c565b5161324160206001600160a01b03600654166113d2858c613d9c565b03915afa9081156108d8578a916132bb575b508a3b156123405761328a918b6001600160a01b038c809460405196879586948593633845c6c360e11b8552169060048401613dcf565b03925af19081156108755789916132a6575b5050600101613186565b816132b091613963565b61087157873861329c565b6132d3915060203d81116108ad5761089e8183613963565b38613253565b816132e391613963565b610871578738613219565b8780f35b6133079196503d8089833e610a338183613963565b9438613183565b8161331891613963565b6114ef578538613152565b8161332d91613963565b6114ef5785386130e0565b8161334291613963565b6114ef57853861307f565b8161335791613963565b6114ef578538613012565b8161336c91613963565b6114ef578538612fce565b8161338191613963565b6114ef578538612f8a565b94959690978161339b91613963565b9594938790612f41565b50838b52818b209190601f1984168c5b8181106133fd5750936001600160a01b039693879693600193838998106133e4575b505050811b019055612e76565b015160001960f88460031b161c191690553880806133d7565b929360206001819287860151815501950193016133b5565b61343f90848c5260208c20601f850160051c8101916020861061162057601f0160051c0190613ce9565b38612e34565b600491925061345d903d808c833e6116568183613963565b9190612e0a565b506020813d602011613499575b8161347e60209383613963565b810103126108d4575160ff811681036108d45760ff90612dc4565b3d9150613471565b838c52818c209190601f1984168d5b8181106134ec57509084600195949392106134d3575b505050811b019055612d88565b015160001960f88460031b161c191690553880806134c6565b929360206001819287860151815501950193016134b0565b61352e90848d5260208d20601f850160051c8101916020861061162057601f0160051c0190613ce9565b38612d56565b60248b634e487b7160e01b81526041600452fd5b61355c91503d808b833e6116568183613963565b38612d2c565b9097506020813d60201161359e575b8161357e60209383613963565b810103126108d457516001600160a01b03811681036108d4579638612c47565b3d9150613571565b9092506020813d6020116135e2575b816135c260209383613963565b8101031261087157516001600160a01b0381168103610871579138612be5565b3d91506135b5565b90506020813d602011613624575b8161360560209383613963565b8101031261146d57516001600160a01b038116810361146d5738612b83565b3d91506135f8565b9093506020813d602011613668575b8161364860209383613963565b810103126114ef57516001600160a01b03811681036114ef579238612b1f565b3d915061363b565b909192506020813d6020116136af575b8161368d60209383613963565b810103126114ef57516001600160a01b03811681036114ef5791906020612aa9565b3d9150613680565b602486634e487b7160e01b81526041600452fd5b8160206001600160a01b03600654166004604051809481937f91f1cfc10000000000000000000000000000000000000000000000000000000083525af18015610a41578390613736575b6001600160a01b039150166001600160a01b031960055416176005556129ef565b506020813d602011613777575b8161375060209383613963565b8101031261230757516001600160a01b0381168103612307576001600160a01b0390613715565b3d9150613743565b8160206001600160a01b036006541660246001600160a01b036001541660405194859384927f57d475ef00000000000000000000000000000000000000000000000000000000845260048401525af18015610a415783906137fc575b6001600160a01b039150166001600160a01b031960045416176004556129dd565b506020813d60201161383d575b8161381660209383613963565b8101031261230757516001600160a01b0381168103612307576001600160a01b03906137db565b3d9150613809565b5034610179576020600319360112610179576001600160a01b036138676138ce565b61386f613f9b565b16801561388a576001600160a01b0319600154161760015580f35b606460405162461bcd60e51b815260206004820152601e60248201527f506c6174666f726d20546f6b656e2041646472657373206973207a65726f00006044820152fd5b600435906001600160a01b03821682036138e457565b600080fd5b602435906001600160a01b03821682036138e457565b60035481101561391a57600360005260206000200190600090565b634e487b7160e01b600052603260045260246000fd5b610140810190811067ffffffffffffffff82111761394d57604052565b634e487b7160e01b600052604160045260246000fd5b90601f601f19910116810190811067ffffffffffffffff82111761394d57604052565b67ffffffffffffffff811161394d5760051b60200190565b67ffffffffffffffff811161394d57601f01601f191660200190565b81601f820112156138e4578035906139d18261399e565b926139df6040519485613963565b828452602083830101116138e457816000926020809301838601378301015290565b60005b838110613a145750506000910152565b8181015183820152602001613a04565b90601f19601f602093613a4281518092818752878088019101613a01565b0116010190565b906001600160a01b0382511681526001600160a01b036020830151166020820152604082015160408201526101206001600160a01b0381613ab0613a9e60608701516101406060880152610140870190613a24565b60808701518682036080880152613a24565b948260a08201511660a08601528260c08201511660c08601528260e08201511660e0860152826101008201511661010086015201511691015290565b906020808351928381520192019060005b818110613b0a5750505090565b82516001600160a01b0316845260209384019390920191600101613afd565b9080602083519182815201916020808360051b8301019401926000915b838310613b5557505050505090565b9091929394602080613b7383601f1986600196030187528951613a24565b97019301930191939290613b46565b90600182811c92168015613bb2575b6020831014613b9c57565b634e487b7160e01b600052602260045260246000fd5b91607f1691613b91565b9060405191826000825492613bd084613b82565b8084529360018116908115613c3e5750600114613bf7575b50613bf592500383613963565b565b90506000929192526020600020906000915b818310613c22575050906020613bf59282010138613be8565b6020919350806001915483858901015201910190918492613c09565b60209350613bf59592507fffffffffffffffffffffffffffffffffffffffffffffffffffffffffffffff0091501682840152151560051b82010138613be8565b81601f820112156138e4578051613c948161399e565b92613ca26040519485613963565b818452602082840101116138e457613cc09160208085019101613a01565b90565b906020828203126138e457815167ffffffffffffffff81116138e457613cc09201613c7e565b818110613cf4575050565b60008155600101613ce9565b6020818303126138e45780519067ffffffffffffffff82116138e457019080601f830112156138e4578151613d3481613986565b92613d426040519485613963565b81845260208085019260051b820101918383116138e45760208201905b838210613d6e57505050505090565b815167ffffffffffffffff81116138e457602091613d9187848094880101613c7e565b815201910190613d5f565b805182101561391a5760209160051b010190565b908160209103126138e457516001600160a01b03811681036138e45790565b906001600160a01b03613def602092959495604085526040850190613a24565b9416910152565b15613dfd57565b606460405162461bcd60e51b815260206004820152600f60248201527f736574746c65206d69736d6174636800000000000000000000000000000000006044820152fd5b60405190613e4e82613930565b600061012083828152826020820152826040820152606080820152606060808201528260a08201528260c08201528260e0820152826101008201520152565b613e978154613b82565b9081613ea1575050565b81601f60009311600114613eb3575055565b81835260208320613ecf91601f0160051c810190600101613ce9565b8082528160208120915555565b6001600160a01b03168015613f6c576001600160a01b037f9016d09d72d40fdae2fd8ceac6b6234c7706214fd39c1cd1e609a0528c19930054826001600160a01b03198216177f9016d09d72d40fdae2fd8ceac6b6234c7706214fd39c1cd1e609a0528c19930055167f8be0079c531659141344cd1fd0a4f28419497f9722a3daafe3b4186f6b6457e0600080a3565b7f1e4fbdf700000000000000000000000000000000000000000000000000000000600052600060045260246000fd5b6001600160a01b037f9016d09d72d40fdae2fd8ceac6b6234c7706214fd39c1cd1e609a0528c19930054163303613fce57565b7f118cdaa7000000000000000000000000000000000000000000000000000000006000523360045260246000fd5b60ff7ff0c57e16840df040f15088dc2f81fe391c3923bec73e23a9662efc9c229c6a005460401c161561402b57565b7fd7e6bcf80000000000000000000000000000000000000000000000000000000060005260046000fdfea2646970667358221220a1ccaa04aac3d66e8732e6144b4fffb5b3809910635d436ae47b75ff44e6f71f64736f6c634300081c0033",
  "linkReferences": {},
  "deployedLinkReferences": {}
}