{
  "_format": "hh-sol-artifact-1",
  "contractName": "BManager",
  "sourceName": "contracts/deploy/BManager.sol",
  "abi": [
    {
      "inputs": [],
      "name": "InvalidInitialization",
      "type": "error"
    },
    {
      "inputs": [],
      "name": "NotInitializing",
      "type": "error"
    },
    {
      "inputs": [
        {
          "internalType": "address",
          "name": "owner",
          "type": "address"
        }
      ],
      "name": "OwnableInvalidOwner",
      "type": "error"
    },
    {
      "inputs": [
        {
          "internalType": "address",
          "name": "account",
          "type": "address"
        }
      ],
      "name": "OwnableUnauthorizedAccount",
      "type": "error"
    },
    {
      "anonymous": false,
      "inputs": [
        {
          "indexed": false,
          "internalType": "uint64",
          "name": "version",
          "type": "uint64"
        }
      ],
      "name": "Initialized",
      "type": "event"
    },
    {
      "anonymous": false,
      "inputs": [
        {
          "indexed": true,
          "internalType": "address",
          "name": "previousOwner",
          "type": "address"
        },
        {
          "indexed": true,
          "internalType": "address",
          "name": "newOwner",
          "type": "address"
        }
      ],
      "name": "OwnershipTransferred",
      "type": "event"
    },
    {
      "anonymous": false,
      "inputs": [
        {
          "indexed": false,
          "internalType": "address",
          "name": "creator",
          "type": "address"
        },
        {
          "indexed": false,
          "internalType": "address",
          "name": "settle",
          "type": "address"
        },
        {
          "indexed": false,
          "internalType": "address",
          "name": "perpetual",
          "type": "address"
        },
        {
          "indexed": false,
          "internalType": "address",
          "name": "privatePool",
          "type": "address"
        },
        {
          "indexed": false,
          "internalType": "address",
          "name": "orderBook",
          "type": "address"
        },
        {
          "indexed": false,
          "internalType": "address",
          "name": "tradeAgent",
          "type": "address"
        },
        {
          "indexed": false,
          "internalType": "address",
          "name": "tradeStation",
          "type": "address"
        }
      ],
      "name": "createTradePool",
      "type": "event"
    },
    {
      "inputs": [],
      "name": "buyBack",
      "outputs": [
        {
          "internalType": "contract BuyBack",
          "name": "",
          "type": "address"
        }
      ],
      "stateMutability": "view",
      "type": "function"
    },
    {
      "inputs": [
        {
          "internalType": "address",
          "name": "_settle",
          "type": "address"
        },
        {
          "internalType": "uint256",
          "name": "_multi",
          "type": "uint256"
        }
      ],
      "name": "createPerpetualTradeContract",
      "outputs": [],
      "stateMutability": "nonpayable",
      "type": "function"
    },
    {
      "inputs": [
        {
          "internalType": "address",
          "name": "_settle",
          "type": "address"
        }
      ],
      "name": "createPerpetualTradeContract",
      "outputs": [],
      "stateMutability": "nonpayable",
      "type": "function"
    },
    {
      "inputs": [
        {
          "internalType": "string",
          "name": "_tradePairName",
          "type": "string"
        },
        {
          "internalType": "address",
          "name": "_oracleAddr",
          "type": "address"
        }
      ],
      "name": "createUnderlying",
      "outputs": [],
      "stateMutability": "nonpayable",
      "type": "function"
    },
    {
      "inputs": [
        {
          "internalType": "address",
          "name": "_settle",
          "type": "address"
        }
      ],
      "name": "deletePerpetualTradeContract",
      "outputs": [],
      "stateMutability": "nonpayable",
      "type": "function"
    },
    {
      "inputs": [],
      "name": "getSettleList",
      "outputs": [
        {
          "internalType": "address[]",
          "name": "",
          "type": "address[]"
        }
      ],
      "stateMutability": "view",
      "type": "function"
    },
    {
      "inputs": [
        {
          "internalType": "address",
          "name": "_settle",
          "type": "address"
        }
      ],
      "name": "getTradePair",
      "outputs": [
        {
          "internalType": "string[]",
          "name": "pairs",
          "type": "string[]"
        }
      ],
      "stateMutability": "view",
      "type": "function"
    },
    {
      "inputs": [],
      "name": "getTradePoolUnit",
      "outputs": [
        {
          "components": [
            {
              "internalType": "address",
              "name": "creator",
              "type": "address"
            },
            {
              "internalType": "address",
              "name": "settle",
              "type": "address"
            },
            {
              "internalType": "uint256",
              "name": "decimals",
              "type": "uint256"
            },
            {
              "internalType": "string",
              "name": "settleName",
              "type": "string"
            },
            {
              "internalType": "string",
              "name": "symbol",
              "type": "string"
            },
            {
              "internalType": "contract PrivatePool",
              "name": "privatePool",
              "type": "address"
            },
            {
              "internalType": "contract Perpetual",
              "name": "perpetual",
              "type": "address"
            },
            {
              "internalType": "contract OrderBook",
              "name": "orderBook",
              "type": "address"
            },
            {
              "internalType": "contract TradeAgent",
              "name": "tradeAgent",
              "type": "address"
            },
            {
              "internalType": "contract TradeStation",
              "name": "tradeStation",
              "type": "address"
            }
          ],
          "internalType": "struct BManager.TradePoolUnit[]",
          "name": "",
          "type": "tuple[]"
        }
      ],
      "stateMutability": "view",
      "type": "function"
    },
    {
      "inputs": [
        {
          "internalType": "address",
          "name": "_settle",
          "type": "address"
        }
      ],
      "name": "getTradePoolUnit",
      "outputs": [
        {
          "components": [
            {
              "internalType": "address",
              "name": "creator",
              "type": "address"
            },
            {
              "internalType": "address",
              "name": "settle",
              "type": "address"
            },
            {
              "internalType": "uint256",
              "name": "decimals",
              "type": "uint256"
            },
            {
              "internalType": "string",
              "name": "settleName",
              "type": "string"
            },
            {
              "internalType": "string",
              "name": "symbol",
              "type": "string"
            },
            {
              "internalType": "contract PrivatePool",
              "name": "privatePool",
              "type": "address"
            },
            {
              "internalType": "contract Perpetual",
              "name": "perpetual",
              "type": "address"
            },
            {
              "internalType": "contract OrderBook",
              "name": "orderBook",
              "type": "address"
            },
            {
              "internalType": "contract TradeAgent",
              "name": "tradeAgent",
              "type": "address"
            },
            {
              "internalType": "contract TradeStation",
              "name": "tradeStation",
              "type": "address"
            }
          ],
          "internalType": "struct BManager.TradePoolUnit",
          "name": "pool",
          "type": "tuple"
        }
      ],
      "stateMutability": "view",
      "type": "function"
    },
    {
      "inputs": [],
      "name": "getUnderlying",
      "outputs": [
        {
          "internalType": "string[]",
          "name": "names",
          "type": "string[]"
        },
        {
          "internalType": "address[]",
          "name": "addresses",
          "type": "address[]"
        }
      ],
      "stateMutability": "view",
      "type": "function"
    },
    {
      "inputs": [],
      "name": "initBuyBackOrMarketAgent",
      "outputs": [],
      "stateMutability": "nonpayable",
      "type": "function"
    },
    {
      "inputs": [
        {
          "internalType": "address",
          "name": "_initialOwner",
          "type": "address"
        },
        {
          "internalType": "address",
          "name": "_riskAddr",
          "type": "address"
        },
        {
          "internalType": "address",
          "name": "_platformToken",
          "type": "address"
        },
        {
          "internalType": "address",
          "name": "_tradeFee",
          "type": "address"
        },
        {
          "internalType": "address",
          "name": "_platformTradeFee",
          "type": "address"
        }
      ],
      "name": "initialize",
      "outputs": [],
      "stateMutability": "nonpayable",
      "type": "function"
    },
    {
      "inputs": [],
      "name": "marketAgent",
      "outputs": [
        {
          "internalType": "contract MarketAgent",
          "name": "",
          "type": "address"
        }
      ],
      "stateMutability": "view",
      "type": "function"
    },
    {
      "inputs": [],
      "name": "owner",
      "outputs": [
        {
          "internalType": "address",
          "name": "",
          "type": "address"
        }
      ],
      "stateMutability": "view",
      "type": "function"
    },
    {
      "inputs": [],
      "name": "platformToken",
      "outputs": [
        {
          "internalType": "address",
          "name": "",
          "type": "address"
        }
      ],
      "stateMutability": "view",
      "type": "function"
    },
    {
      "inputs": [],
      "name": "platformTradeFeeAccount",
      "outputs": [
        {
          "internalType": "address",
          "name": "",
          "type": "address"
        }
      ],
      "stateMutability": "view",
      "type": "function"
    },
    {
      "inputs": [],
      "name": "proxyFactory",
      "outputs": [
        {
          "internalType": "contract ProxyFactory",
          "name": "",
          "type": "address"
        }
      ],
      "stateMutability": "view",
      "type": "function"
    },
    {
      "inputs": [],
      "name": "renounceOwnership",
      "outputs": [],
      "stateMutability": "nonpayable",
      "type": "function"
    },
    {
      "inputs": [],
      "name": "riskAddr",
      "outputs": [
        {
          "internalType": "address",
          "name": "",
          "type": "address"
        }
      ],
      "stateMutability": "view",
      "type": "function"
    },
    {
      "inputs": [
        {
          "internalType": "address",
          "name": "_addr",
          "type": "address"
        }
      ],
      "name": "setPlatformToken",
      "outputs": [],
      "stateMutability": "nonpayable",
      "type": "function"
    },
    {
      "inputs": [
        {
          "internalType": "address",
          "name": "_addr",
          "type": "address"
        }
      ],
      "name": "setPlatformTradeFeeAccount",
      "outputs": [],
      "stateMutability": "nonpayable",
      "type": "function"
    },
    {
      "inputs": [
        {
          "internalType": "address",
          "name": "_factory",
          "type": "address"
        }
      ],
      "name": "setProxyFactory",
      "outputs": [],
      "stateMutability": "nonpayable",
      "type": "function"
    },
    {
      "inputs": [
        {
          "internalType": "address",
          "name": "_addr",
          "type": "address"
        }
      ],
      "name": "setRiskAddr",
      "outputs": [],
      "stateMutability": "nonpayable",
      "type": "function"
    },
    {
      "inputs": [
        {
          "internalType": "address",
          "name": "_addr",
          "type": "address"
        }
      ],
      "name": "setTradeFeeAddr",
      "outputs": [],
      "stateMutability": "nonpayable",
      "type": "function"
    },
    {
      "inputs": [
        {
          "internalType": "address",
          "name": "_settle",
          "type": "address"
        },
        {
          "internalType": "string[]",
          "name": "_pairs",
          "type": "string[]"
        },
        {
          "internalType": "uint256",
          "name": "_opCode",
          "type": "uint256"
        }
      ],
      "name": "setTradePair",
      "outputs": [],
      "stateMutability": "nonpayable",
      "type": "function"
    },
    {
      "inputs": [
        {
          "internalType": "uint256",
          "name": "",
          "type": "uint256"
        }
      ],
      "name": "settleList",
      "outputs": [
        {
          "internalType": "address",
          "name": "",
          "type": "address"
        }
      ],
      "stateMutability": "view",
      "type": "function"
    },
    {
      "inputs": [],
      "name": "tradeFeeAddr",
      "outputs": [
        {
          "internalType": "address",
          "name": "",
          "type": "address"
        }
      ],
      "stateMutability": "view",
      "type": "function"
    },
    {
      "inputs": [
        {
          "internalType": "address",
          "name": "newOwner",
          "type": "address"
        }
      ],
      "name": "transferOwnership",
      "outputs": [],
      "stateMutability": "nonpayable",
      "type": "function"
    }
  ],
  "bytecode": "0x60808060405234601557614217908161001b8239f35b600080fdfe6080604052600436101561001257600080fd5b6000803560e01c80630255a03b1461379157806302d72f95146129cd578063032d2e32146129465780631459457a1461269f5780631789682a1461265c57806323f1fcbf14612635578063297ead8b14612586578063534ec750146121fe5780635a4327d3146120445780635cd9dee714611c13578063645b3fd014611b8a57806369a0eeb814611b63578063715018a614611aca5780638187880514611a38578063873fd3c31461195b5780638da5cb5b146119155780639360e33a146117cd5780639816f473146116865780639a999fdb1461166d578063a6447d97146107ba578063acdf4f1814610793578063c10f1a751461076c578063d1b812cd14610745578063e08061b31461071e578063eaa1606d146101e5578063f2fde38b146101b8578063f5852039146101925763fbddd7511461015157600080fd5b3461018f57602060031936011261018f576001600160a01b0361017261381a565b61017a614127565b166001600160a01b0319600754161760075580f35b80fd5b503461018f578060031936011261018f576001600160a01b036020915416604051908152f35b503461018f57602060031936011261018f576101e26101d561381a565b6101dd614127565b614068565b80f35b503461018f57602060031936011261018f576001600160a01b0361020761381a565b1680825260086020526040822061022c826001600160a01b0360018401541614613d42565b6001600160a01b0381541633036106da57826001600160a01b036006600493015416604051928380927fcd2ce4ae0000000000000000000000000000000000000000000000000000000082525afa9081156106cf5783916106ad575b50610291614127565b81835260086020528260408120604051906102ab8261387c565b6001600160a01b0381541682526001600160a01b036001820154169160208101928352600282015460408201526102e460038301613c80565b60608201526102f560048301613c80565b60808201526001600160a01b036005830154169160a082019283526001600160a01b036006820154169360c083019485526001600160a01b036007830154169660e084019788526101206001600160a01b036009816008870154169561010088019687520154169401938452610376896001600160a01b0384511614613d42565b865b81518110156105755761038b8183613c45565b516001600160a01b03600754166001600160a01b038551166001600160a01b038a51166001600160a01b03885116928d6001600160a01b03808d51169151166001600160a01b038c511691833b15610571578f9561040e9387938a936040519a8b998a988997631afa745960e11b895261010060048a0152610104890190613970565b9560248801528760448801526064870152608486015260a485015260c484015260e483015203925af1908115610566578a9161054d575b50506001600160a01b03885116906001600160a01b036007541690602060405180936305ca57cf60e01b825282600483015281806104866024820187613970565b03915afa918215610542578b92610512575b50823b1561050e576104ce926001600160a01b038c809460405196879586948593633845c6c360e11b8552169060048401613c59565b03925af19081156105035789916104ea575b5050600101610378565b816104f4916138af565b6104ff5787386104e0565b8780fd5b6040513d8b823e3d90fd5b8a80fd5b61053491925060203d811161053b575b61052c81836138af565b810190613b8a565b9038610498565b503d610522565b6040513d8d823e3d90fd5b81610557916138af565b610562578838610445565b8880fd5b6040513d8c823e3d90fd5b8f80fd5b878a8082526008602052816009604082208281558260018201558260028201556105a160038201614019565b6105ad60048201614019565b8260058201558260068201558260078201558260088201550155815b600454808210156106a7576001600160a01b036105e58361384b565b90549060031b1c1683146105fc57506001016105c9565b909150600019810190811161069357906106316001600160a01b036106236106509461384b565b90549060031b1c169161384b565b9091906001600160a01b038084549260031b9316831b921b1916179055565b600454801561067f57600019016106668161384b565b6001600160a01b0382549160031b1b1916905560045580f35b602482634e487b7160e01b81526031600452fd5b602483634e487b7160e01b81526011600452fd5b50505080f35b6106c991503d8085833e6106c181836138af565b810190613ba9565b38610288565b6040513d85823e3d90fd5b606460405162461bcd60e51b815260206004820152601660248201527f466f7262696464656e2c206e6f742063726561746f72000000000000000000006044820152fd5b503461018f578060031936011261018f5760206001600160a01b0360025416604051908152f35b503461018f578060031936011261018f5760206001600160a01b0360015416604051908152f35b503461018f578060031936011261018f5760206001600160a01b0360075416604051908152f35b503461018f578060031936011261018f5760206001600160a01b0360055416604051908152f35b503461018f57602060031936011261018f576107d461381a565b906107dd613dd9565b6001600160a01b03821691828252600860205260408220926001840190806001600160a01b0383541614611629576004546801000000000000000081101561161557906108358461063184600189960160045561384b565b60075482546040517f45d4b4510000000000000000000000000000000000000000000000000000000081526001600160a01b038781166004830152918216602482015293602092859260449284929091165af191821561160a5785926115c6575b5060075485546002546003546040517f1a9a95870000000000000000000000000000000000000000000000000000000081526001600160a01b03968716600482018190529387166024820152888716604482015291861660648301528516608482015290939091602091839160a49183918b91165af19081156111cc578691611584575b506007546040517f047fd0d50000000000000000000000000000000000000000000000000000000081526001600160a01b0385811660048301529283166024820181905287841660448301529590929091602091849160649183918c91165af1918215611579578792611535575b506007546040517f649031820000000000000000000000000000000000000000000000000000000081526001600160a01b03868116600483015287811660248301528881166044830152909791602091899160649183918d91165af196871561116e5790889493929185986114e6575b506007546040517fa55d4ec80000000000000000000000000000000000000000000000000000000081526001600160a01b038881166004830152898116602483015292831660448201529560209287921690829081606481015b03925af193841561116e5788946114a2575b50826001600160a01b03198254161790556001600160a01b0333166001600160a01b031989541617885560058801846001600160a01b0319825416179055600988016001600160a01b0384166001600160a01b0319825416179055600888016001600160a01b0387166001600160a01b0319825416179055600788016001600160a01b0382166001600160a01b031982541617905560068801856001600160a01b03198254161790556040517f06fdde030000000000000000000000000000000000000000000000000000000081528781600481865afa90811561116e578891611488575b50805160038a019167ffffffffffffffff821161147457610b6a8354613b39565b601f8111611444575b50602090601f83116001146113e157610ba392918b91836112b0575b50506000198260011b9260031b1c19161790565b90555b6040517f313ce567000000000000000000000000000000000000000000000000000000008152602081600481865afa801561116e5788906113a4575b60ff1660028a0155506040517f95d89b41000000000000000000000000000000000000000000000000000000008152978789600481865afa98891561116e57889961137d575b50600401885167ffffffffffffffff811161136957610c478254613b39565b601f811161132e575b506020601f82116001146112bb57926001600160a01b039392610c918386959486958e9f8f9d9e9f926112b05750506000198260011b9260031b1c19161790565b90555b16971692167fe34d8fa001b04475d221b96a007a245b5ce7381c8fa9a9bf4b8fb5ffecbca93e60e06040513381528460208201528860408201528660608201528960808201528560a08201528360c0820152a16001600160a01b03600554166001600160a01b0360065416600460206001600160a01b0360075416604051928380926306d6aa2760e51b82525afa90811561116e578891611291575b50883b156104ff576001600160a01b0391604051937ff74c304900000000000000000000000000000000000000000000000000000000855260048501528a602485015286604485015284606485015260848401521660a4820152858160c481838b5af19081156111cc57869161127c575b5050863b156111ec57604051631580010360e11b81526001600160a01b038481166004830152821660248201528581604481838c5af19081156111cc578691611267575b5050823b156111ec57604051631580010360e11b81526001600160a01b03888116600483015282166024820152858160448183885af19081156111cc578691611252575b5050803b156111ec57604051631580010360e11b81526001600160a01b03888116600483015284166024820152858160448183865af19081156111cc57869161123d575b5050600460206001600160a01b0360075416604051928380926306d6aa2760e51b82525afa9081156111cc57869161121e575b50843b156111f0576040517ff6ef18390000000000000000000000000000000000000000000000000000000081526001600160a01b038881166004830152898116602483015285811660448301528381166064830152919091166084820152858160a48183895af19081156111cc578691611209575b50506001600160a01b0360065416803b156111f05785809160446040518094819363226dc99760e21b83528c6004840152600160248401525af19081156111cc5786916111f4575b50506001600160a01b0360055416803b156111f05785809160a4604051809481937fcc317b0b000000000000000000000000000000000000000000000000000000008352886004840152670de0b6b3a764000060248401528160448401528160648401528160848401525af19081156111cc5786916111d7575b50936004946001600160a01b03600754166040519687809262c1fbd760e51b82525afa9485156111cc5786956111b0575b50855b85518110156111ac576001600160a01b036007541661102b8288613c45565b5190803b15610562578a8991611064838d9560405196879586948593631afa745960e11b85526101006004860152610104850190613970565b918d6024850152670de0b6b3a7640000604485015260648401528d60848401528a60a484015260c48301528a60e483015203925af190811561116e578891611197575b50506110b38187613c45565b516110f360206001600160a01b03600754166110cf858b613c45565b519060405180809581946305ca57cf60e01b83528660048401526024830190613970565b03915afa908115610503578991611179575b50893b15610562576001600160a01b0389916111376040519485938493633845c6c360e11b8552169060048401613c59565b0381838d5af190811561116e578891611155575b505060010161100c565b8161115f916138af565b61116a57863861114b565b8680fd5b6040513d8a823e3d90fd5b611191915060203d811161053b5761052c81836138af565b38611105565b816111a1916138af565b61116a5786386110a7565b8680f35b6111c59195503d8088833e6106c181836138af565b9338611009565b6040513d88823e3d90fd5b816111e1916138af565b6111ec578438610fd8565b8480fd5b8580fd5b816111fe916138af565b6111ec578438610f5e565b81611213916138af565b6111ec578438610f16565b611237915060203d60201161053b5761052c81836138af565b38610ea0565b81611247916138af565b6111ec578438610e6d565b8161125c916138af565b6111ec578438610e29565b81611271916138af565b6111ec578438610de5565b81611286916138af565b6111ec578438610da1565b6112aa915060203d60201161053b5761052c81836138af565b38610d30565b015190503880610b8f565b828a52808a209a601f1983168b5b8181106113165750838c9d6001600160a01b0397948897949d9e9c9d8897600195106112fd575b505050811b019055610c94565b015160001960f88460031b161c191690553880806112f0565b838301518e556001909d019c602093840193016112c9565b61135990838b5260208b20601f840160051c8101916020851061135f575b601f0160051c0190613b73565b38610c50565b909150819061134c565b602489634e487b7160e01b81526041600452fd5b600491995061139d903d808b833e61139581836138af565b810190613b13565b9890610c28565b506020813d6020116113d9575b816113be602093836138af565b810103126104ff575160ff811681036104ff5760ff90610be2565b3d91506113b1565b838b52818b209190601f1984168c5b81811061142c5750908460019594939210611413575b505050811b019055610ba6565b015160001960f88460031b161c19169055388080611406565b929360206001819287860151815501950193016113f0565b61146e90848c5260208c20601f850160051c8101916020861061135f57601f0160051c0190613b73565b38610b73565b60248a634e487b7160e01b81526041600452fd5b61149c91503d808a833e61139581836138af565b38610b49565b9093506020813d6020116114de575b816114be602093836138af565b810103126104ff57516001600160a01b03811681036104ff579238610a64565b3d91506114b1565b919293945096506020813d60201161152d575b81611506602093836138af565b810103126104ff57516001600160a01b03811681036104ff57958793929190610a526109f8565b3d91506114f9565b9091506020813d602011611571575b81611551602093836138af565b8101031261116a57516001600160a01b038116810361116a579038610988565b3d9150611544565b6040513d89823e3d90fd5b90506020813d6020116115be575b8161159f602093836138af565b810103126111f057516001600160a01b03811681036111f0573861091a565b3d9150611592565b9091506020813d602011611602575b816115e2602093836138af565b810103126111ec57516001600160a01b03811681036111ec579038610896565b3d91506115d5565b6040513d87823e3d90fd5b602485634e487b7160e01b81526041600452fd5b606460405162461bcd60e51b815260206004820152600e60248201527f616c7265616479206578697374730000000000000000000000000000000000006044820152fd5b503461018f578060031936011261018f576101e2613dd9565b503461018f578060031936011261018f576001600160a01b03600754166040519062c1fbd760e51b82528282600481845afa9182156106cf5783926117b1575b50815190601f196116ef6116d9846138d2565b936116e760405195866138af565b8085526138d2565b01366020840137835b8351811015611783578060206117116117339387613c45565b51604051809481926305ca57cf60e01b83528460048401526024830190613970565b0381865afa9182156111cc576001926001600160a01b03918891611765575b501661175e8286613c45565b52016116f8565b61177d915060203d811161053b5761052c81836138af565b38611752565b61179f846117ad85604051938493604085526040850190613a75565b908382036020850152613a38565b0390f35b6117c69192503d8085833e6106c181836138af565b90386116c6565b503461018f57602060031936011261018f576004816001600160a01b03806117f361381a565b1680835260086020526118996040842091836040516118118161387c565b8185541681528160018601541690602081019182526002860154604082015261183c60038701613c80565b606082015261184c898701613c80565b60808201528260058701541660a08201526101208360098160068a0154169860c08501998a528260078201541660e086015282600882015416610100860152015416910152511614613d42565b5116604051928380927fcd2ce4ae0000000000000000000000000000000000000000000000000000000082525afa90811561190a57826117ad93926118ef575b5050604051918291602083526020830190613a75565b61190392503d8091833e6106c181836138af565b38806118d9565b6040513d84823e3d90fd5b503461018f578060031936011261018f5760206001600160a01b037f9016d09d72d40fdae2fd8ceac6b6234c7706214fd39c1cd1e609a0528c1993005416604051908152f35b503461018f57602060031936011261018f5760406117ad916001600160a01b0361198361381a565b61198b613d8d565b501681526008602052206001600160a01b036009604051926119ac8461387c565b828154168452826001820154166020850152600281015460408501526119d460038201613c80565b60608501526119e560048201613c80565b60808501528260058201541660a08501528260068201541660c08501528260078201541660e085015282600882015416610100850152015416610120820152604051918291602083526020830190613995565b503461018f578060031936011261018f5760405180916020600454928381520191600482527f8a35acfbc15ff81a39ae7d344fd709f28e8600b4aa8c65c6b64bfe7fe36bd19b915b818110611aab576117ad85611a97818703826138af565b604051918291602083526020830190613a38565b82546001600160a01b0316845260209093019260019283019201611a80565b503461018f578060031936011261018f57611ae3614127565b806001600160a01b037f9016d09d72d40fdae2fd8ceac6b6234c7706214fd39c1cd1e609a0528c199300546001600160a01b031981167f9016d09d72d40fdae2fd8ceac6b6234c7706214fd39c1cd1e609a0528c19930055167f8be0079c531659141344cd1fd0a4f28419497f9722a3daafe3b4186f6b6457e08280a380f35b503461018f578060031936011261018f5760206001600160a01b0360065416604051908152f35b503461018f57602060031936011261018f576001600160a01b03611bac61381a565b611bb4614127565b168015611bcf576001600160a01b0319600254161760025580f35b606460405162461bcd60e51b815260206004820152601960248201527f5472616465204665652041646472657373206973207a65726f000000000000006044820152fd5b503461018f57604060031936011261018f5760043567ffffffffffffffff8111611fa157611c45903690600401613906565b611c4d613835565b611c55614127565b6001600160a01b0360075416908115612000576020611ca7859384936040519485809481937f5cd9dee70000000000000000000000000000000000000000000000000000000083528a60048401613c59565b03925af1801561190a576001600160a01b03918391611fe1575b5016600460206001600160a01b0360075416604051928380926306d6aa2760e51b82525afa9081156106cf578391611fc2575b50813b15611f68576001600160a01b03602484928360405195869485937f748747e60000000000000000000000000000000000000000000000000000000085521660048401525af1801561190a57611fad575b505b600454811015611fa9576001600160a01b03611d648261384b565b90549060031b1c1683526008602052826040812060405190611d858261387c565b6001600160a01b0381541682526001600160a01b03600182015416916020810192835260028201546040820152611dbe60038301613c80565b6060820152611dcf60048301613c80565b608082015260058201546001600160a01b0390811660a083018190526006840154821660c08401818152600780870154851660e0870181905260088801548616610100880181905260099098015486166101209097018790529054975191979296670de0b6b3a7640000959384169491939192909116843b15611fa5578996611e7d9488948e946040519b8c9a8b998a98631afa745960e11b8a5261010060048b01526101048a0190613970565b96602489015260448801526064870152608486015260a485015260c484015260e483015203925af19081156106cf578391611f8c575b50506001600160a01b039051166001600160a01b036007541690602060405180936305ca57cf60e01b82528260048301528180611ef3602482018b613970565b03915afa9182156106cf578392611f6c575b50803b15611f68576001600160a01b038391611f3a9383604051809681958294633845c6c360e11b8452168b60048401613c59565b03925af1801561190a57611f53575b5050600101611d49565b81611f5d916138af565b611f68578238611f49565b8280fd5b611f8591925060203d811161053b5761052c81836138af565b9038611f05565b81611f96916138af565b611fa1578138611eb3565b5080fd5b8980fd5b8280f35b81611fb7916138af565b611fa1578138611d47565b611fdb915060203d60201161053b5761052c81836138af565b38611cf4565b611ffa915060203d60201161053b5761052c81836138af565b38611cc1565b606460405162461bcd60e51b815260206004820152601a60248201527f696e76616c696420756e6465726c79696e6720666163746f72790000000000006044820152fd5b503461018f578060031936011261018f57600454612061816138d2565b9061206f60405192836138af565b808252601f1961207e826138d2565b01835b8181106121e7575050825b8181106121165782846040519182916020830160208452825180915260408401602060408360051b870101940192905b8282106120cb57505050500390f35b91936020612106827fffffffffffffffffffffffffffffffffffffffffffffffffffffffffffffffc060019597998495030186528851613995565b96019201920185949391926120bc565b806001600160a01b0361212a60019361384b565b90549060031b1c1685526008602052604085206001600160a01b036009604051926121548461387c565b82815416845282868201541660208501526002810154604085015261217b60038201613c80565b606085015261218c60048201613c80565b60808501528260058201541660a08501528260068201541660c08501528260078201541660e0850152826008820154166101008501520154166101208201526121d58286613c45565b526121e08185613c45565b500161208c565b6020906121f2613d8d565b82828701015201612081565b503461018f57606060031936011261018f5761221861381a565b6024359067ffffffffffffffff8211611f685736602383011215611f6857816004013591612245836138d2565b9261225360405194856138af565b80845260051b8101602401602084013682116111f05760248301905b8282106125565786866001600160a01b0387612289614127565b1680835260086020528260408120604051906122a48261387c565b6001600160a01b0381541682526001600160a01b036001820154169160208101928352600282015460408201526122dd60038301613c80565b60608201526122ee60048301613c80565b60808201526001600160a01b036005830154169160a082019283526001600160a01b036006820154169360c0830194855261236e6001600160a01b036007840154169760e085019889526101206001600160a01b0360098160088801541696610100890197885201541695019485526001600160a01b0383511614613d42565b855b88518110156111ac57612383818a613c45565b516001600160a01b03600754166001600160a01b038451169060016044351460001461255057670de0b6b3a76400005b6001600160a01b038a5116918c6001600160a01b038951166001600160a01b03808d5116925116946001600160a01b038c511696843b15610571578f969767ffffffffffffffff9861242a9589958c956040519c8d9b8c9a8b99631afa745960e11b8b5261010060048c01526101048b0190613970565b9760248a01521660448801526064870152608486015260a485015260c484015260e483015203925af190811561050357899161253b575b50506001600160a01b03875116906001600160a01b036007541690602060405180936305ca57cf60e01b825282600483015281806124a26024820187613970565b03915afa918215610566578a9261251b575b50823b15611fa5576124ea926001600160a01b038b809460405196879586948593633845c6c360e11b8552169060048401613c59565b03925af190811561116e578891612506575b5050600101612370565b81612510916138af565b61116a57868b6124fc565b61253491925060203d811161053b5761052c81836138af565b908d6124b4565b81612545916138af565b6104ff57878c612461565b896123b3565b813567ffffffffffffffff81116104ff5760209161257b839260243691890101613906565b81520191019061226f565b503461018f57602060031936011261018f576001600160a01b036125a861381a565b6125b0614127565b1680156125cb576001600160a01b0319600354161760035580f35b608460405162461bcd60e51b815260206004820152602260248201527f506c6174666f726d207472616465206665652041646472657373206973207a6560448201527f726f0000000000000000000000000000000000000000000000000000000000006064820152fd5b503461018f578060031936011261018f5760206001600160a01b0360035416604051908152f35b503461018f57602060031936011261018f576004359060045482101561018f5760206001600160a01b0361268f8461384b565b90549060031b1c16604051908152f35b503461018f5760a060031936011261018f576126b961381a565b6126c1613835565b6044356001600160a01b03811680910361294257606435906001600160a01b0382168092036111ec57608435926001600160a01b0384168094036111f0577ff0c57e16840df040f15088dc2f81fe391c3923bec73e23a9662efc9c229c6a00549460ff8660401c16159567ffffffffffffffff81168015908161293a575b6001149081612930575b159081612927575b506128ff576001600160a01b039291818860017fffffffffffffffffffffffffffffffffffffffffffffffff00000000000000006127cc9516177ff0c57e16840df040f15088dc2f81fe391c3923bec73e23a9662efc9c229c6a00556128aa575b506127bb614188565b6127c3614188565b6101d533614068565b166001600160a01b03198654161785556001600160a01b031960015416176001556001600160a01b031960025416176002556001600160a01b031960035416176003556128165780f35b7fffffffffffffffffffffffffffffffffffffffffffffff00ffffffffffffffff7ff0c57e16840df040f15088dc2f81fe391c3923bec73e23a9662efc9c229c6a0054167ff0c57e16840df040f15088dc2f81fe391c3923bec73e23a9662efc9c229c6a00557fc7f505b2f371ae2175ee4913f4499e1f2633a7b5936321eed1cdaeb6115181d2602060405160018152a180f35b7fffffffffffffffffffffffffffffffffffffffffffffff0000000000000000001668010000000000000001177ff0c57e16840df040f15088dc2f81fe391c3923bec73e23a9662efc9c229c6a0055386127b2565b6004887ff92ee8a9000000000000000000000000000000000000000000000000000000008152fd5b90501538612751565b303b159150612749565b88915061273f565b8380fd5b503461018f57602060031936011261018f576001600160a01b0361296861381a565b612970614127565b168015612989576001600160a01b031982541617815580f35b606460405162461bcd60e51b815260206004820152601460248201527f7269736b2061646472657373206973207a65726f0000000000000000000000006044820152fd5b503461018f57604060031936011261018f576129e761381a565b90602435906129f4613dd9565b6001600160a01b03831691828252600860205260408220906001820194846001600160a01b038754161461162957600454680100000000000000008110156116155790612a4d816106318460018997960160045561384b565b60075483546040517f45d4b4510000000000000000000000000000000000000000000000000000000081526001600160a01b038481166004830152918216602482015294602092869260449284929091165af192831561160a57859361374d575b5060075485546002546003546040517f1a9a95870000000000000000000000000000000000000000000000000000000081526001600160a01b03978816600482018190529388166024820152858816604482015291871660648301528616608482015290949091602091839160a49183918b91165af19081156111cc57869161370b575b506007546040517f047fd0d50000000000000000000000000000000000000000000000000000000081526001600160a01b0386811660048301529283166024820181905284841660448301529690929091602091849160649183918c91165af19182156115795787926136c5575b506007546040517f649031820000000000000000000000000000000000000000000000000000000081526001600160a01b03878116600483015288811660248301528086166044830152909491602091869116818b81606481015b03925af193841561116e57889461367e575b506007546040517fa55d4ec80000000000000000000000000000000000000000000000000000000081526001600160a01b03888116600483015289811660248301529283166044820152999a989998916020918a9160649183918e91165af197881561050357899861363a575b50896001600160a01b03198254161790556001600160a01b0333166001600160a01b031982541617815560058101856001600160a01b0319825416179055600981016001600160a01b0388166001600160a01b0319825416179055600881016001600160a01b0384166001600160a01b0319825416179055600781016001600160a01b0383166001600160a01b031982541617905560068101866001600160a01b03198254161790556040517f06fdde0300000000000000000000000000000000000000000000000000000000815288816004818d5afa908115610503578991613620575b508051600383019167ffffffffffffffff821161360c57612d808354613b39565b601f81116135dc575b50602090601f831160011461357957612db892918c91836112b05750506000198260011b9260031b1c19161790565b90555b6040517f313ce5670000000000000000000000000000000000000000000000000000000081526020816004818d5afa801561050357899061353c575b60ff166002830155506040517f95d89b410000000000000000000000000000000000000000000000000000000081529088826004818d5afa91821561050357899261351d575b506004019080519067ffffffffffffffff821161147457612e5e8354613b39565b601f81116134ed575b506020908a601f841160011461347d57836001600160a01b03969394879693958796612ea694926112b05750506000198260011b9260031b1c19161790565b90555b1692169516917fe34d8fa001b04475d221b96a007a245b5ce7381c8fa9a9bf4b8fb5ffecbca93e60e06040513381528a60208201528760408201528660608201528460808201528860a08201528560c0820152a16001600160a01b03600554169760046001600160a01b036006541660206001600160a01b0360075416604051938480926306d6aa2760e51b82525afa918215610566578a9261345c575b50873b15611fa557906001600160a01b03916040519b7ff74c3049000000000000000000000000000000000000000000000000000000008d5260048d01528560248d01528960448d01528660648d015260848c01521660a48a0152878960c481838a5af1801561116e57613443575b87985082979596973b156111f057604051631580010360e11b81526001600160a01b03898116600483015285166024820152868160448183885af190811561157957879161342e575b5050873b156111f057604051631580010360e11b81526001600160a01b038481166004830152851660248201528681604481838d5af1908115611579578791613419575b5050833b156111f057604051631580010360e11b81526001600160a01b03848116600483015289166024820152868160448183895af1908115611579578791613404575b5050600460206001600160a01b0360075416604051928380926306d6aa2760e51b82525afa9081156115795787916133e5575b50853b1561116a576040517ff6ef18390000000000000000000000000000000000000000000000000000000081526001600160a01b03898116600483015285811660248301528a811660448301528681166064830152919091166084820152868160a481838a5af19081156115795787916133d0575b50506001600160a01b0360065416803b1561116a5786809160446040518094819363226dc99760e21b83528d6004840152600160248401525af19081156115795787916133bb575b50506001600160a01b0360055416803b1561116a5786809160a4604051809481937fcc317b0b0000000000000000000000000000000000000000000000000000000083528760048401528860248401528160448401528160648401528160848401525af19081156115795787916133a6575b50946004956001600160a01b03600754166040519788809262c1fbd760e51b82525afa95861561157957879661338a575b50865b8651811015613386576001600160a01b036007541661323d8289613c45565b5190803b15611fa5578b8a91613276838e9560405196879586948593631afa745960e11b85526101006004860152610104850190613970565b918c60248501528d6044850152606484015260848301528960a48301528c60c48301528d60e483015203925af1908115610503578991613371575b50506132bd8188613c45565b516132d960206001600160a01b03600754166110cf858c613c45565b03915afa908115610566578a91613353575b508a3b15611fa557613322918b6001600160a01b038c809460405196879586948593633845c6c360e11b8552169060048401613c59565b03925af190811561050357899161333e575b505060010161321e565b81613348916138af565b6104ff578738613334565b61336b915060203d811161053b5761052c81836138af565b386132eb565b8161337b916138af565b6104ff5787386132b1565b8780f35b61339f9196503d8089833e6106c181836138af565b943861321b565b816133b0916138af565b6111f05785386131ea565b816133c5916138af565b6111f0578538613178565b816133da916138af565b6111f0578538613130565b6133fe915060203d60201161053b5761052c81836138af565b386130ba565b8161340e916138af565b6111f0578538613087565b81613423916138af565b6111f0578538613043565b81613438916138af565b6111f0578538612fff565b949596909781613452916138af565b9594938790612fb6565b61347691925060203d60201161053b5761052c81836138af565b9038612f47565b50838b52818b209190601f1984168c5b8181106134d55750936001600160a01b039693879693600193838998106134bc575b505050811b019055612ea9565b015160001960f88460031b161c191690553880806134af565b9293602060018192878601518155019501930161348d565b61351790848c5260208c20601f850160051c8101916020861061135f57601f0160051c0190613b73565b38612e67565b6004919250613535903d808c833e61139581836138af565b9190612e3d565b506020813d602011613571575b81613556602093836138af565b81010312610562575160ff811681036105625760ff90612df7565b3d9150613549565b838c52818c209190601f1984168d5b8181106135c457509084600195949392106135ab575b505050811b019055612dbb565b015160001960f88460031b161c1916905538808061359e565b92936020600181928786015181550195019301613588565b61360690848d5260208d20601f850160051c8101916020861061135f57601f0160051c0190613b73565b38612d89565b60248b634e487b7160e01b81526041600452fd5b61363491503d808b833e61139581836138af565b38612d5f565b9097506020813d602011613676575b81613656602093836138af565b8101031261056257516001600160a01b0381168103610562579638612c7a565b3d9150613649565b9093506020813d6020116136bd575b8161369a602093836138af565b810103126104ff5751986001600160a01b038a168a036104ff5798926020612c0d565b3d915061368d565b9091506020813d602011613703575b816136e1602093836138af565b8101031261116a57516001600160a01b038116810361116a5790612bfb612ba0565b3d91506136d4565b90506020813d602011613745575b81613726602093836138af565b810103126111f057516001600160a01b03811681036111f05738612b32565b3d9150613719565b9092506020813d602011613789575b81613769602093836138af565b810103126111ec57516001600160a01b03811681036111ec579138612aae565b3d915061375c565b503461018f57602060031936011261018f576001600160a01b036137b361381a565b6137bb614127565b1680156137d6576001600160a01b0319600154161760015580f35b606460405162461bcd60e51b815260206004820152601e60248201527f506c6174666f726d20546f6b656e2041646472657373206973207a65726f00006044820152fd5b600435906001600160a01b038216820361383057565b600080fd5b602435906001600160a01b038216820361383057565b60045481101561386657600460005260206000200190600090565b634e487b7160e01b600052603260045260246000fd5b610140810190811067ffffffffffffffff82111761389957604052565b634e487b7160e01b600052604160045260246000fd5b90601f601f19910116810190811067ffffffffffffffff82111761389957604052565b67ffffffffffffffff81116138995760051b60200190565b67ffffffffffffffff811161389957601f01601f191660200190565b81601f820112156138305780359061391d826138ea565b9261392b60405194856138af565b8284526020838301011161383057816000926020809301838601378301015290565b60005b8381106139605750506000910152565b8181015183820152602001613950565b90601f19601f60209361398e8151809281875287808801910161394d565b0116010190565b906001600160a01b0382511681526001600160a01b036020830151166020820152604082015160408201526101206001600160a01b03816139fc6139ea60608701516101406060880152610140870190613970565b60808701518682036080880152613970565b948260a08201511660a08601528260c08201511660c08601528260e08201511660e0860152826101008201511661010086015201511691015290565b906020808351928381520192019060005b818110613a565750505090565b82516001600160a01b0316845260209384019390920191600101613a49565b9080602083519182815201916020808360051b8301019401926000915b838310613aa157505050505090565b9091929394602080613abf83601f1986600196030187528951613970565b97019301930191939290613a92565b81601f82011215613830578051613ae4816138ea565b92613af260405194856138af565b8184526020828401011161383057613b10916020808501910161394d565b90565b9060208282031261383057815167ffffffffffffffff811161383057613b109201613ace565b90600182811c92168015613b69575b6020831014613b5357565b634e487b7160e01b600052602260045260246000fd5b91607f1691613b48565b818110613b7e575050565b60008155600101613b73565b9081602091031261383057516001600160a01b03811681036138305790565b6020818303126138305780519067ffffffffffffffff821161383057019080601f83011215613830578151613bdd816138d2565b92613beb60405194856138af565b81845260208085019260051b820101918383116138305760208201905b838210613c1757505050505090565b815167ffffffffffffffff811161383057602091613c3a87848094880101613ace565b815201910190613c08565b80518210156138665760209160051b010190565b906001600160a01b03613c79602092959495604085526040850190613970565b9416910152565b9060405191826000825492613c9484613b39565b8084529360018116908115613d025750600114613cbb575b50613cb9925003836138af565b565b90506000929192526020600020906000915b818310613ce6575050906020613cb99282010138613cac565b6020919350806001915483858901015201910190918492613ccd565b60209350613cb99592507fffffffffffffffffffffffffffffffffffffffffffffffffffffffffffffff0091501682840152151560051b82010138613cac565b15613d4957565b606460405162461bcd60e51b815260206004820152600f60248201527f736574746c65206d69736d6174636800000000000000000000000000000000006044820152fd5b60405190613d9a8261387c565b600061012083828152826020820152826040820152606080820152606060808201528260a08201528260c08201528260e0820152826101008201520152565b6005546001600160a01b036000911615613f53575b6001600160a01b036006541615613e025750565b8060206001600160a01b03600754166004604051809481937f91f1cfc10000000000000000000000000000000000000000000000000000000083525af1801561190a578290613f0a575b6001600160a01b03915016806001600160a01b03196006541617600655600460206001600160a01b0360075416604051928380926306d6aa2760e51b82525afa9081156106cf578391613eeb575b50813b15611f68576001600160a01b036044849283604051958694859363226dc99760e21b8552166004840152600160248401525af1801561190a57613ede575050565b81613ee8916138af565b50565b613f04915060203d60201161053b5761052c81836138af565b38613e9a565b506020813d602011613f4b575b81613f24602093836138af565b81010312611fa157516001600160a01b0381168103611fa1576001600160a01b0390613e4c565b3d9150613f17565b8060206001600160a01b036007541660246001600160a01b036001541660405194859384927f57d475ef00000000000000000000000000000000000000000000000000000000845260048401525af1801561190a578290613fd0575b6001600160a01b039150166001600160a01b03196005541617600555613dee565b506020813d602011614011575b81613fea602093836138af565b81010312611fa157516001600160a01b0381168103611fa1576001600160a01b0390613faf565b3d9150613fdd565b6140238154613b39565b908161402d575050565b81601f6000931160011461403f575055565b8183526020832061405b91601f0160051c810190600101613b73565b8082528160208120915555565b6001600160a01b031680156140f8576001600160a01b037f9016d09d72d40fdae2fd8ceac6b6234c7706214fd39c1cd1e609a0528c19930054826001600160a01b03198216177f9016d09d72d40fdae2fd8ceac6b6234c7706214fd39c1cd1e609a0528c19930055167f8be0079c531659141344cd1fd0a4f28419497f9722a3daafe3b4186f6b6457e0600080a3565b7f1e4fbdf700000000000000000000000000000000000000000000000000000000600052600060045260246000fd5b6001600160a01b037f9016d09d72d40fdae2fd8ceac6b6234c7706214fd39c1cd1e609a0528c1993005416330361415a57565b7f118cdaa7000000000000000000000000000000000000000000000000000000006000523360045260246000fd5b60ff7ff0c57e16840df040f15088dc2f81fe391c3923bec73e23a9662efc9c229c6a005460401c16156141b757565b7fd7e6bcf80000000000000000000000000000000000000000000000000000000060005260046000fdfea26469706673582212202bf105c10b21353a746c037ef5a1adc5f1399778f799df5b8e88dc17486e8c1864736f6c634300081c0033",
  "linkReferences": {},
  "deployedLinkReferences": {}
}