{
  "_format": "hh-sol-artifact-1",
  "contractName": "MarketAgent",
  "sourceName": "contracts/MarketAgent.sol",
  "abi": [
    {
      "inputs": [],
      "name": "InvalidInitialization",
      "type": "error"
    },
    {
      "inputs": [],
      "name": "NotInitializing",
      "type": "error"
    },
    {
      "inputs": [
        {
          "internalType": "address",
          "name": "owner",
          "type": "address"
        }
      ],
      "name": "OwnableInvalidOwner",
      "type": "error"
    },
    {
      "inputs": [
        {
          "internalType": "address",
          "name": "account",
          "type": "address"
        }
      ],
      "name": "OwnableUnauthorizedAccount",
      "type": "error"
    },
    {
      "anonymous": false,
      "inputs": [
        {
          "indexed": false,
          "internalType": "uint64",
          "name": "version",
          "type": "uint64"
        }
      ],
      "name": "Initialized",
      "type": "event"
    },
    {
      "anonymous": false,
      "inputs": [
        {
          "indexed": true,
          "internalType": "address",
          "name": "previousOwner",
          "type": "address"
        },
        {
          "indexed": true,
          "internalType": "address",
          "name": "newOwner",
          "type": "address"
        }
      ],
      "name": "OwnershipTransferred",
      "type": "event"
    },
    {
      "anonymous": false,
      "inputs": [
        {
          "indexed": false,
          "internalType": "address",
          "name": "token",
          "type": "address"
        },
        {
          "indexed": false,
          "internalType": "address",
          "name": "inviter",
          "type": "address"
        },
        {
          "indexed": false,
          "internalType": "address",
          "name": "invitee",
          "type": "address"
        }
      ],
      "name": "addInviterRelation",
      "type": "event"
    },
    {
      "anonymous": false,
      "inputs": [
        {
          "indexed": false,
          "internalType": "address",
          "name": "token",
          "type": "address"
        },
        {
          "indexed": false,
          "internalType": "address",
          "name": "inviter",
          "type": "address"
        },
        {
          "indexed": false,
          "internalType": "address",
          "name": "invitee",
          "type": "address"
        },
        {
          "indexed": false,
          "internalType": "address",
          "name": "originalInviter",
          "type": "address"
        }
      ],
      "name": "setInviterRelation",
      "type": "event"
    },
    {
      "stateMutability": "nonpayable",
      "type": "fallback"
    },
    {
      "inputs": [
        {
          "internalType": "address",
          "name": "_type",
          "type": "address"
        },
        {
          "internalType": "address",
          "name": "_token",
          "type": "address"
        },
        {
          "internalType": "address",
          "name": "_inviter",
          "type": "address"
        },
        {
          "internalType": "address",
          "name": "_invitee",
          "type": "address"
        },
        {
          "internalType": "uint256",
          "name": "_tradeFee",
          "type": "uint256"
        }
      ],
      "name": "addInviteRelationAndCalc",
      "outputs": [
        {
          "internalType": "address",
          "name": "",
          "type": "address"
        },
        {
          "internalType": "uint256",
          "name": "",
          "type": "uint256"
        }
      ],
      "stateMutability": "nonpayable",
      "type": "function"
    },
    {
      "inputs": [],
      "name": "calcNoAgentFee",
      "outputs": [
        {
          "internalType": "bool",
          "name": "",
          "type": "bool"
        }
      ],
      "stateMutability": "view",
      "type": "function"
    },
    {
      "inputs": [],
      "name": "commonCommissionRate",
      "outputs": [
        {
          "internalType": "uint256",
          "name": "",
          "type": "uint256"
        }
      ],
      "stateMutability": "view",
      "type": "function"
    },
    {
      "inputs": [
        {
          "internalType": "address",
          "name": "_token",
          "type": "address"
        },
        {
          "internalType": "address",
          "name": "_inviter",
          "type": "address"
        },
        {
          "internalType": "address",
          "name": "_invitee",
          "type": "address"
        }
      ],
      "name": "forceSetRelationship",
      "outputs": [],
      "stateMutability": "nonpayable",
      "type": "function"
    },
    {
      "inputs": [
        {
          "internalType": "address",
          "name": "token",
          "type": "address"
        },
        {
          "internalType": "uint256",
          "name": "gradeNumber",
          "type": "uint256"
        }
      ],
      "name": "getAgentGrade",
      "outputs": [
        {
          "internalType": "uint256",
          "name": "gearTop",
          "type": "uint256"
        },
        {
          "internalType": "uint256",
          "name": "rate",
          "type": "uint256"
        }
      ],
      "stateMutability": "view",
      "type": "function"
    },
    {
      "inputs": [
        {
          "internalType": "address",
          "name": "token",
          "type": "address"
        }
      ],
      "name": "getAgentGrade",
      "outputs": [
        {
          "internalType": "uint256",
          "name": "",
          "type": "uint256"
        }
      ],
      "stateMutability": "view",
      "type": "function"
    },
    {
      "inputs": [],
      "name": "getAgents",
      "outputs": [
        {
          "internalType": "address[]",
          "name": "",
          "type": "address[]"
        }
      ],
      "stateMutability": "view",
      "type": "function"
    },
    {
      "inputs": [
        {
          "internalType": "address",
          "name": "_inviter",
          "type": "address"
        },
        {
          "internalType": "address",
          "name": "_token",
          "type": "address"
        }
      ],
      "name": "getCommissionByInviter",
      "outputs": [
        {
          "internalType": "uint256",
          "name": "",
          "type": "uint256"
        }
      ],
      "stateMutability": "view",
      "type": "function"
    },
    {
      "inputs": [
        {
          "internalType": "address",
          "name": "_inviter",
          "type": "address"
        },
        {
          "internalType": "address",
          "name": "_invitee",
          "type": "address"
        },
        {
          "internalType": "address",
          "name": "_token",
          "type": "address"
        }
      ],
      "name": "getCommissionByInviterAndInvitee",
      "outputs": [
        {
          "internalType": "uint256",
          "name": "",
          "type": "uint256"
        }
      ],
      "stateMutability": "view",
      "type": "function"
    },
    {
      "inputs": [
        {
          "internalType": "address",
          "name": "_inviter",
          "type": "address"
        }
      ],
      "name": "getInviter",
      "outputs": [
        {
          "internalType": "address",
          "name": "",
          "type": "address"
        },
        {
          "internalType": "address[]",
          "name": "",
          "type": "address[]"
        }
      ],
      "stateMutability": "view",
      "type": "function"
    },
    {
      "inputs": [
        {
          "internalType": "address",
          "name": "initialOwner",
          "type": "address"
        }
      ],
      "name": "initialize",
      "outputs": [],
      "stateMutability": "nonpayable",
      "type": "function"
    },
    {
      "inputs": [],
      "name": "owner",
      "outputs": [
        {
          "internalType": "address",
          "name": "",
          "type": "address"
        }
      ],
      "stateMutability": "view",
      "type": "function"
    },
    {
      "inputs": [
        {
          "internalType": "address",
          "name": "",
          "type": "address"
        }
      ],
      "name": "relationShip",
      "outputs": [
        {
          "internalType": "address",
          "name": "",
          "type": "address"
        }
      ],
      "stateMutability": "view",
      "type": "function"
    },
    {
      "inputs": [],
      "name": "renounceOwnership",
      "outputs": [],
      "stateMutability": "nonpayable",
      "type": "function"
    },
    {
      "inputs": [
        {
          "internalType": "address",
          "name": "_addr",
          "type": "address"
        },
        {
          "internalType": "bool",
          "name": "_status",
          "type": "bool"
        }
      ],
      "name": "setAddressParam",
      "outputs": [],
      "stateMutability": "nonpayable",
      "type": "function"
    },
    {
      "inputs": [
        {
          "internalType": "address",
          "name": "token",
          "type": "address"
        },
        {
          "internalType": "uint256",
          "name": "gearTop",
          "type": "uint256"
        },
        {
          "internalType": "uint256",
          "name": "commissionRate",
          "type": "uint256"
        }
      ],
      "name": "setAgentGrade",
      "outputs": [],
      "stateMutability": "nonpayable",
      "type": "function"
    },
    {
      "inputs": [
        {
          "internalType": "bool",
          "name": "value",
          "type": "bool"
        }
      ],
      "name": "setCalcNoAgentFee",
      "outputs": [],
      "stateMutability": "nonpayable",
      "type": "function"
    },
    {
      "inputs": [
        {
          "internalType": "uint256",
          "name": "rate",
          "type": "uint256"
        }
      ],
      "name": "setCommonCommissionRate",
      "outputs": [],
      "stateMutability": "nonpayable",
      "type": "function"
    },
    {
      "inputs": [
        {
          "internalType": "address",
          "name": "newOwner",
          "type": "address"
        }
      ],
      "name": "transferOwnership",
      "outputs": [],
      "stateMutability": "nonpayable",
      "type": "function"
    }
  ],
  "bytecode": "0x60808060405234601557611885908161001b8239f35b600080fdfe608080604052600436101561001c575b503461001757005b600080fd5b600090813560e01c908163147df8871461096f575080632a46570d14610951578063345d5475146108fc5780634056b6b9146108bc57806360653c8e1461084d578063715018a6146107a7578063770ef39f1461075a5780637aee0a6a1461072657806389b7265c146106725780638da5cb5b1461062c57806391ef86e0146105e1578063a98209a11461059f578063a9c6aa181461057c578063c4d66de814610303578063cecf78d014610288578063d216ce6f146101d8578063eac3fda41461015d578063f2fde38b146101305763fa559d990361000f573461012d57602060031936011261012d5760406020916001600160a01b0361011c6109a6565b168152600383522054604051908152f35b80fd5b503461012d57602060031936011261012d5761015a61014d6109a6565b610155611795565b6116c9565b80f35b503461012d578060031936011261012d576040516001548082526020820190600160005260206000209060005b8181106101b9576101b5856101a181870382610b45565b6040519182916020835260208301906109e8565b0390f35b82546001600160a01b031684526020909301926001928301920161018a565b503461012d57602060031936011261012d576040906001600160a01b036101fd6109a6565b16815260046020522060026001600160a01b036001830154169101906040519182815491828252602082019060005260206000209260005b81811061026657505061024a92500383610b45565b6101b560405192839283526040602084015260408301906109e8565b84546001600160a01b0316835260019485019487945060209093019201610235565b503461012d5760a060031936011261012d576102a26109a6565b906102ab6109bc565b916102b46109d2565b606435906001600160a01b0382168203610017576040946102e560ff876102ee973381526002602052205416610a25565b60843593611324565b6001600160a01b038351921682526020820152f35b503461012d57602060031936011261012d5761031d6109a6565b907ff0c57e16840df040f15088dc2f81fe391c3923bec73e23a9662efc9c229c6a00549160ff8360401c16159267ffffffffffffffff811680159081610574575b600114908161056a575b159081610561575b506105395790818460017fffffffffffffffffffffffffffffffffffffffffffffffff00000000000000006001600160a01b039516177ff0c57e16840df040f15088dc2f81fe391c3923bec73e23a9662efc9c229c6a00556104e4575b506103d66117f6565b6103de6117f6565b6103e7336116c9565b6103ef611795565b6103f8816116c9565b338352600260205260408320600160ff19825416179055168152600260205260408120600160ff19825416179055670de0b6b3a764000081555067016345785d8a0000600655600160ff19600754161760075561045157005b7fffffffffffffffffffffffffffffffffffffffffffffff00ffffffffffffffff7ff0c57e16840df040f15088dc2f81fe391c3923bec73e23a9662efc9c229c6a0054167ff0c57e16840df040f15088dc2f81fe391c3923bec73e23a9662efc9c229c6a00557fc7f505b2f371ae2175ee4913f4499e1f2633a7b5936321eed1cdaeb6115181d2602060405160018152a1005b7fffffffffffffffffffffffffffffffffffffffffffffff0000000000000000001668010000000000000001177ff0c57e16840df040f15088dc2f81fe391c3923bec73e23a9662efc9c229c6a0055386103cd565b6004837ff92ee8a9000000000000000000000000000000000000000000000000000000008152fd5b90501538610370565b303b159150610368565b85915061035e565b503461012d578060031936011261012d57602060ff600754166040519015158152f35b503461012d57606060031936011261012d5761015a6105bc6109a6565b33835260026020526105d460ff604085205416610a25565b604435906024359061109a565b503461012d57606060031936011261012d5761015a6105fe6109a6565b6106066109bc565b61060e6109d2565b91338552600260205261062760ff604087205416610a25565b610cb6565b503461012d578060031936011261012d5760206001600160a01b037f9016d09d72d40fdae2fd8ceac6b6234c7706214fd39c1cd1e609a0528c1993005416604051908152f35b503461012d57604060031936011261012d5761068c6109a6565b60243590811515809203610722576001600160a01b039033845260026020526106bb60ff604086205416610a25565b1680156106de5782526002602052604082209060ff60ff19835416911617905580f35b606460405162461bcd60e51b815260206004820152600460248201527f7a65726f000000000000000000000000000000000000000000000000000000006044820152fd5b8280fd5b503461012d57604060031936011261012d57604061074e6107456109a6565b60243590610ba4565b82519182526020820152f35b503461012d57602060031936011261012d576004358015158091036107a357338252600260205261079160ff604084205416610a25565b60ff60ff196007541691161760075580f35b5080fd5b503461012d578060031936011261012d576107c0611795565b806001600160a01b037f9016d09d72d40fdae2fd8ceac6b6234c7706214fd39c1cd1e609a0528c1993005473ffffffffffffffffffffffffffffffffffffffff1981167f9016d09d72d40fdae2fd8ceac6b6234c7706214fd39c1cd1e609a0528c19930055167f8be0079c531659141344cd1fd0a4f28419497f9722a3daafe3b4186f6b6457e08280a380f35b503461012d57606060031936011261012d57604060209161086c6109a6565b6108746109bc565b906001600160a01b036108856109d2565b91168352600485526001600160a01b036004858520019116835284526001600160a01b038383209116825283522054604051908152f35b503461012d57602060031936011261012d5760043533825260026020526108e960ff604084205416610a25565b6108f68254821115610a96565b60065580f35b503461012d57604060031936011261012d57604060209161091b6109a6565b6001600160a01b0361092b6109bc565b91168252600484526001600160a01b036005848420019116825283522054604051908152f35b503461012d578060031936011261012d576020600654604051908152f35b9050346107a35760206003193601126107a3576001600160a01b036040602093826109986109a6565b168152600585522054168152f35b600435906001600160a01b038216820361001757565b602435906001600160a01b038216820361001757565b604435906001600160a01b038216820361001757565b906020808351928381520192019060005b818110610a065750505090565b82516001600160a01b03168452602093840193909201916001016109f9565b15610a2c57565b608460405162461bcd60e51b815260206004820152602160248201527f63616c6c6572206973206e6f74206d61726b6574206167656e74206b6565706560448201527f72000000000000000000000000000000000000000000000000000000000000006064820152fd5b15610a9d57565b606460405162461bcd60e51b815260206004820152600d60248201527f72617465206973206c61726765000000000000000000000000000000000000006044820152fd5b8054821015610afd5760005260206000209060011b0190600090565b634e487b7160e01b600052603260045260246000fd5b6040810190811067ffffffffffffffff821117610b2f57604052565b634e487b7160e01b600052604160045260246000fd5b90601f7fffffffffffffffffffffffffffffffffffffffffffffffffffffffffffffffe0910116810190811067ffffffffffffffff821117610b2f57604052565b90604051610b9381610b13565b602060018294805484520154910152565b6001600160a01b0316806000526003602052604060002054821015610bee57610be391610bdd9160005260036020526040600020610ae1565b50610b86565b906020825192015190565b5050600090600090565b8054821015610afd5760005260206000200190600090565b9060018201916000600184129112908015821691151617610c2d57565b634e487b7160e01b600052601160045260246000fd5b6001549068010000000000000000821015610b2f57610c6d826001610c8c94016001556001610bf8565b9091906001600160a01b038084549260031b9316831b921b1916179055565b565b9081549168010000000000000000831015610b2f5782610c6d916001610c8c95018155610bf8565b916001600160a01b038116908115610fdc576001600160a01b03831690828214610fd5578260005260056020526001600160a01b03604060002054169384610e69575b917fb74ad65b0fa570e2511a147b2698b1d29a6b6625c63ae585d1c4430e9b32103995939160809593821515600014610e375782600052600460205260406000209081549060ff821615610de1575b50506003810191846000528260205260ff6040600020541615610d8b575b5050505b6001600160a01b0360405194168452602084015260408301526060820152a1565b6002610d979201610c8e565b826000526020526040600020600160ff1982541617905581600052600560205260406000208173ffffffffffffffffffffffffffffffffffffffff19825416179055388080610d66565b7fffffffffffffffffffffff000000000000000000000000000000000000000000909116600882901b74ffffffffffffffffffffffffffffffffffffffff0016176001178255610e3090610c43565b3880610d48565b505081600052600560205260406000208173ffffffffffffffffffffffffffffffffffffffff19825416179055610d6a565b84600052600460205260406000206003810190856000528160205260ff60406000205416610e99575b5050610cf9565b600201805460001960005b828110610fa5575b506000198113610ed9575b505050600085815260209190915260409020805460ff19169055816080610e92565b610eeb90999795939896949299610c10565b818110610f685750508754968715610f52577fb74ad65b0fa570e2511a147b2698b1d29a6b6625c63ae585d1c4430e9b321039986000196080990190610f318282610bf8565b6001600160a01b0382549160031b1b19169055559193959781939597610eb7565b634e487b7160e01b600052603160045260246000fd5b6001600160a01b03610f7a828c610bf8565b90549060031b1c16906000198101818111610c2d57600192610c6d610f9f928e610bf8565b01610eeb565b886001600160a01b03610fb88387610bf8565b90549060031b1c1614610fcd57600101610ea4565b905038610eac565b5050505050565b606460405162461bcd60e51b815260206004820152601760248201527f696e76616c696420696e766974656520616464726573730000000000000000006044820152fd5b919061104057808203611031575050565b60018181925484550154910155565b634e487b7160e01b600052600060045260246000fd5b9190611040576020816001925184550151910155565b9081549168010000000000000000831015610b2f5782611094916001610c8c95018155610ae1565b90611056565b6001600160a01b03906110b1600054851115610a96565b16600052600360205260406000208054831561121657806110ea5750610c8c92604051926110de84610b13565b8352602083015261106c565b91600092835b8181106111f3575b50816111048585610ae1565b50540361111e57505060019161111991610ae1565b500155565b6000198194929401908111610c2d578114806111df575b1561114c5750610c8c92604051926110de84610b13565b9192815468010000000000000000811015610b2f57600181018084556111728285610ae1565b50508111610c2d575b8381116111a657509161109491610c8c94936040519461119a86610b13565b85526020850152610ae1565b6000198101818111610c2d576111bf6111d09185610ae1565b506111ca8386610ae1565b90611020565b8015610c2d576000190161117b565b50826111eb8284610ae1565b505410611135565b935083826112018286610ae1565b50541015611211576001016110f0565b6110f8565b8092919350156112cb576000199060005b8381106112a7575b5050600019811361123f57505050565b61124890610c10565b81811061127957505080548015610f525760001901906112688282610ae1565b611040576001816000809355015555565b6112838184610ae1565b50906000198101818111610c2d576001926111ca6112a19287610ae1565b01611248565b816112b28287610ae1565b5054146112c157600101611227565b915050388061122f565b505050565b81810292918115918404141715610c2d57565b81156112ed570490565b634e487b7160e01b600052601260045260246000fd5b8051821015610afd5760209160051b010190565b91908201809211610c2d57565b9492936001600160a01b03851695861515806116b7575b15611673576001600160a01b038416878114611665576000888152600560205260408120546006549891906001600160a01b031680611650575050811561162257816113cb6060927fe66486be5ed1d152eae7e1b2956d4b81071d0b994ee0037c801facba641126bc94600052600460205260406000209889549060ff8216156115cc575b505060028901610c8e565b89600052600387016020526040600020600160ff1982541617905589600052600560205260406000208173ffffffffffffffffffffffffffffffffffffffff19825416179055604051906001600160a01b03871682526020820152896040820152a15b81156115b3576001600160a01b03166000526003602052604060002090815467ffffffffffffffff8111610b2f576040519261147060208360051b0185610b45565b818452602084019060005260206000206000915b838310611595575050505060058401916001600160a01b0384166000528260205260406000205460005b825181101561157c57816114c28285611303565b515110156114d2576001016114ae565b6001600160a01b039798506115049391506114f26020916114fb94611303565b510151906112d0565b600054906112e3565b9560048401908584166000528160205260406000208160005260205261152f88604060002054611317565b91868516600052602052604060002090600052602052604060002055838216600052806020528361156587604060002054611317565b92166000526020526040600020555460081c169190565b5050506114fb6001600160a01b039596611504926112d0565b600260206001926115a585610b86565b815201920192019190611484565b5050905460081c6001600160a01b031693506000925050565b7fffffffffffffffffffffff000000000000000000000000000000000000000000909116600882901b74ffffffffffffffffffffffffffffffffffffffff0016176001178a5561161b90610c43565b38806113c0565b5050509194505060ff6007939293541660001461164957611646916114fb916112d0565b90565b5050600090565b8152600460205260409020955061142e915050565b506000965086955050505050565b606460405162461bcd60e51b815260206004820152600f60248201527f61646472657373206973207a65726f00000000000000000000000000000000006044820152fd5b506001600160a01b038316151561133b565b6001600160a01b03168015611766576001600160a01b037f9016d09d72d40fdae2fd8ceac6b6234c7706214fd39c1cd1e609a0528c199300548273ffffffffffffffffffffffffffffffffffffffff198216177f9016d09d72d40fdae2fd8ceac6b6234c7706214fd39c1cd1e609a0528c19930055167f8be0079c531659141344cd1fd0a4f28419497f9722a3daafe3b4186f6b6457e0600080a3565b7f1e4fbdf700000000000000000000000000000000000000000000000000000000600052600060045260246000fd5b6001600160a01b037f9016d09d72d40fdae2fd8ceac6b6234c7706214fd39c1cd1e609a0528c199300541633036117c857565b7f118cdaa7000000000000000000000000000000000000000000000000000000006000523360045260246000fd5b60ff7ff0c57e16840df040f15088dc2f81fe391c3923bec73e23a9662efc9c229c6a005460401c161561182557565b7fd7e6bcf80000000000000000000000000000000000000000000000000000000060005260046000fdfea2646970667358221220531b90797cd116ce19cf4eb3d705dce33e510dc0a228c658aa8bd5acba5c7aed64736f6c634300081c0033",
  "linkReferences": {},
  "deployedLinkReferences": {}
}