{
  "_format": "hh-sol-artifact-1",
  "contractName": "MarketAgent",
  "sourceName": "contracts/MarketAgent.sol",
  "abi": [
    {
      "inputs": [],
      "name": "InvalidInitialization",
      "type": "error"
    },
    {
      "inputs": [],
      "name": "NotInitializing",
      "type": "error"
    },
    {
      "inputs": [
        {
          "internalType": "address",
          "name": "owner",
          "type": "address"
        }
      ],
      "name": "OwnableInvalidOwner",
      "type": "error"
    },
    {
      "inputs": [
        {
          "internalType": "address",
          "name": "account",
          "type": "address"
        }
      ],
      "name": "OwnableUnauthorizedAccount",
      "type": "error"
    },
    {
      "anonymous": false,
      "inputs": [
        {
          "indexed": false,
          "internalType": "uint64",
          "name": "version",
          "type": "uint64"
        }
      ],
      "name": "Initialized",
      "type": "event"
    },
    {
      "anonymous": false,
      "inputs": [
        {
          "indexed": true,
          "internalType": "address",
          "name": "previousOwner",
          "type": "address"
        },
        {
          "indexed": true,
          "internalType": "address",
          "name": "newOwner",
          "type": "address"
        }
      ],
      "name": "OwnershipTransferred",
      "type": "event"
    },
    {
      "anonymous": false,
      "inputs": [
        {
          "indexed": false,
          "internalType": "address",
          "name": "token",
          "type": "address"
        },
        {
          "indexed": false,
          "internalType": "address",
          "name": "inviter",
          "type": "address"
        },
        {
          "indexed": false,
          "internalType": "address",
          "name": "invitee",
          "type": "address"
        }
      ],
      "name": "addInviterRelation",
      "type": "event"
    },
    {
      "anonymous": false,
      "inputs": [
        {
          "indexed": false,
          "internalType": "address",
          "name": "token",
          "type": "address"
        },
        {
          "indexed": false,
          "internalType": "address",
          "name": "inviter",
          "type": "address"
        },
        {
          "indexed": false,
          "internalType": "address",
          "name": "invitee",
          "type": "address"
        },
        {
          "indexed": false,
          "internalType": "address",
          "name": "originalInviter",
          "type": "address"
        }
      ],
      "name": "setInviterRelation",
      "type": "event"
    },
    {
      "stateMutability": "nonpayable",
      "type": "fallback"
    },
    {
      "inputs": [
        {
          "internalType": "address",
          "name": "_token",
          "type": "address"
        },
        {
          "internalType": "address",
          "name": "_inviter",
          "type": "address"
        },
        {
          "internalType": "address",
          "name": "_invitee",
          "type": "address"
        },
        {
          "internalType": "uint256",
          "name": "_tradeFee",
          "type": "uint256"
        }
      ],
      "name": "addInviteRelationAndCalc",
      "outputs": [
        {
          "internalType": "address",
          "name": "",
          "type": "address"
        },
        {
          "internalType": "uint256",
          "name": "",
          "type": "uint256"
        },
        {
          "internalType": "address",
          "name": "",
          "type": "address"
        },
        {
          "internalType": "uint256",
          "name": "",
          "type": "uint256"
        }
      ],
      "stateMutability": "nonpayable",
      "type": "function"
    },
    {
      "inputs": [],
      "name": "commonCommissionRate",
      "outputs": [
        {
          "internalType": "uint256",
          "name": "",
          "type": "uint256"
        }
      ],
      "stateMutability": "view",
      "type": "function"
    },
    {
      "inputs": [
        {
          "internalType": "address",
          "name": "token",
          "type": "address"
        },
        {
          "internalType": "uint256",
          "name": "gradeNumber",
          "type": "uint256"
        }
      ],
      "name": "getAgentGrade",
      "outputs": [
        {
          "internalType": "uint256",
          "name": "gearTop",
          "type": "uint256"
        },
        {
          "internalType": "uint256",
          "name": "rate",
          "type": "uint256"
        }
      ],
      "stateMutability": "view",
      "type": "function"
    },
    {
      "inputs": [
        {
          "internalType": "address",
          "name": "token",
          "type": "address"
        }
      ],
      "name": "getAgentGrade",
      "outputs": [
        {
          "internalType": "uint256",
          "name": "",
          "type": "uint256"
        }
      ],
      "stateMutability": "view",
      "type": "function"
    },
    {
      "inputs": [],
      "name": "getAgents",
      "outputs": [
        {
          "internalType": "address[]",
          "name": "",
          "type": "address[]"
        }
      ],
      "stateMutability": "view",
      "type": "function"
    },
    {
      "inputs": [
        {
          "internalType": "address",
          "name": "_inviter",
          "type": "address"
        },
        {
          "internalType": "address",
          "name": "_token",
          "type": "address"
        }
      ],
      "name": "getCommissionByInviter",
      "outputs": [
        {
          "internalType": "uint256",
          "name": "",
          "type": "uint256"
        }
      ],
      "stateMutability": "view",
      "type": "function"
    },
    {
      "inputs": [
        {
          "internalType": "address",
          "name": "_inviter",
          "type": "address"
        },
        {
          "internalType": "address",
          "name": "_invitee",
          "type": "address"
        },
        {
          "internalType": "address",
          "name": "_token",
          "type": "address"
        }
      ],
      "name": "getCommissionByInviterAndInvitee",
      "outputs": [
        {
          "internalType": "uint256",
          "name": "",
          "type": "uint256"
        }
      ],
      "stateMutability": "view",
      "type": "function"
    },
    {
      "inputs": [
        {
          "internalType": "address",
          "name": "_inviter",
          "type": "address"
        }
      ],
      "name": "getInviter",
      "outputs": [
        {
          "internalType": "address",
          "name": "",
          "type": "address"
        },
        {
          "internalType": "address[]",
          "name": "",
          "type": "address[]"
        }
      ],
      "stateMutability": "view",
      "type": "function"
    },
    {
      "inputs": [
        {
          "internalType": "address",
          "name": "initialOwner",
          "type": "address"
        }
      ],
      "name": "initialize",
      "outputs": [],
      "stateMutability": "nonpayable",
      "type": "function"
    },
    {
      "inputs": [],
      "name": "owner",
      "outputs": [
        {
          "internalType": "address",
          "name": "",
          "type": "address"
        }
      ],
      "stateMutability": "view",
      "type": "function"
    },
    {
      "inputs": [
        {
          "internalType": "address",
          "name": "",
          "type": "address"
        }
      ],
      "name": "relationShip",
      "outputs": [
        {
          "internalType": "address",
          "name": "",
          "type": "address"
        }
      ],
      "stateMutability": "view",
      "type": "function"
    },
    {
      "inputs": [],
      "name": "renounceOwnership",
      "outputs": [],
      "stateMutability": "nonpayable",
      "type": "function"
    },
    {
      "inputs": [
        {
          "internalType": "address",
          "name": "_addr",
          "type": "address"
        },
        {
          "internalType": "bool",
          "name": "_status",
          "type": "bool"
        }
      ],
      "name": "setAddressParam",
      "outputs": [],
      "stateMutability": "nonpayable",
      "type": "function"
    },
    {
      "inputs": [
        {
          "internalType": "address",
          "name": "token",
          "type": "address"
        },
        {
          "internalType": "uint256",
          "name": "gearTop",
          "type": "uint256"
        },
        {
          "internalType": "uint256",
          "name": "commissionRate",
          "type": "uint256"
        },
        {
          "internalType": "uint256",
          "name": "topRate",
          "type": "uint256"
        }
      ],
      "name": "setAgentGrade",
      "outputs": [],
      "stateMutability": "nonpayable",
      "type": "function"
    },
    {
      "inputs": [
        {
          "internalType": "uint256",
          "name": "commonRate",
          "type": "uint256"
        },
        {
          "internalType": "uint256",
          "name": "topRate",
          "type": "uint256"
        }
      ],
      "name": "setCommissionRate",
      "outputs": [],
      "stateMutability": "nonpayable",
      "type": "function"
    },
    {
      "inputs": [],
      "name": "topCommissionRate",
      "outputs": [
        {
          "internalType": "uint256",
          "name": "",
          "type": "uint256"
        }
      ],
      "stateMutability": "view",
      "type": "function"
    },
    {
      "inputs": [
        {
          "internalType": "address",
          "name": "newOwner",
          "type": "address"
        }
      ],
      "name": "transferOwnership",
      "outputs": [],
      "stateMutability": "nonpayable",
      "type": "function"
    }
  ],
  "bytecode": "0x6080806040523460155761159e908161001b8239f35b600080fdfe608080604052600436101561001c575b503461001757005b600080fd5b600090813560e01c908163147df887146108d1575080632a46570d146108b3578063345d54751461085e578063392f86ce1461081857806358c7eaa7146107c857806360653c8e14610759578063715018a6146106b35780637aee0a6a1461067f57806389b7265c146105cb5780638da5cb5b14610585578063b5f101de14610567578063c4d66de8146102ea578063d216ce6f14610239578063eac3fda4146101be578063f1a78eff14610147578063f2fde38b1461011a5763fa559d990361000f57346101175760206003193601126101175760406020916001600160a01b0361010661090c565b168152600383522054604051908152f35b80fd5b50346101175760206003193601126101175761014461013761090c565b61013f6114ae565b6113e2565b80f35b5034610117576080600319360112610117576001600160a01b036101a160809261016f61090c565b90610178610922565b61019860ff6040610187610938565b94338152600260205220541661098b565b60643592610eea565b929391826040519516855260208501521660408301526060820152f35b50346101175780600319360112610117576040516001548082526020820190600160005260206000209060005b81811061021a576102168561020281870382610aeb565b60405191829160208352602083019061094e565b0390f35b82546001600160a01b03168452602090930192600192830192016101eb565b50346101175760206003193601126101175760016001600160a01b0360408161026061090c565b1693848152600460205281812094815260056020522054169101906040519182815491828252602082019060005260206000209260005b8181106102c85750506102ac92500383610aeb565b610216604051928392835260406020840152604083019061094e565b84546001600160a01b0316835260019485019487945060209093019201610297565b50346101175760206003193601126101175761030461090c565b907ff0c57e16840df040f15088dc2f81fe391c3923bec73e23a9662efc9c229c6a00549160ff8360401c16159267ffffffffffffffff81168015908161055f575b6001149081610555575b15908161054c575b506105245790818460017fffffffffffffffffffffffffffffffffffffffffffffffff00000000000000006001600160a01b039516177ff0c57e16840df040f15088dc2f81fe391c3923bec73e23a9662efc9c229c6a00556104cf575b506103bd61150f565b6103c561150f565b6103ce336113e2565b6103d66114ae565b6103df816113e2565b338352600260205260408320600160ff19825416179055168152600260205260408120600160ff19825416179055670de0b6b3a764000081555067016345785d8a00006006556000906706f05b59d3b2000060075561043b5780f35b7fffffffffffffffffffffffffffffffffffffffffffffff00ffffffffffffffff7ff0c57e16840df040f15088dc2f81fe391c3923bec73e23a9662efc9c229c6a0054167ff0c57e16840df040f15088dc2f81fe391c3923bec73e23a9662efc9c229c6a00557fc7f505b2f371ae2175ee4913f4499e1f2633a7b5936321eed1cdaeb6115181d2602060405160018152a180f35b7fffffffffffffffffffffffffffffffffffffffffffffff0000000000000000001668010000000000000001177ff0c57e16840df040f15088dc2f81fe391c3923bec73e23a9662efc9c229c6a0055386103b4565b6004837ff92ee8a9000000000000000000000000000000000000000000000000000000008152fd5b90501538610357565b303b15915061034f565b859150610345565b50346101175780600319360112610117576020600754604051908152f35b503461011757806003193601126101175760206001600160a01b037f9016d09d72d40fdae2fd8ceac6b6234c7706214fd39c1cd1e609a0528c1993005416604051908152f35b5034610117576040600319360112610117576105e561090c565b6024359081151580920361067b576001600160a01b0390338452600260205261061460ff60408620541661098b565b1680156106375782526002602052604082209060ff60ff19835416911617905580f35b606460405162461bcd60e51b815260206004820152600460248201527f7a65726f000000000000000000000000000000000000000000000000000000006044820152fd5b8280fd5b50346101175760406003193601126101175760406106a761069e61090c565b60243590610e4f565b82519182526020820152f35b50346101175780600319360112610117576106cc6114ae565b806001600160a01b037f9016d09d72d40fdae2fd8ceac6b6234c7706214fd39c1cd1e609a0528c1993005473ffffffffffffffffffffffffffffffffffffffff1981167f9016d09d72d40fdae2fd8ceac6b6234c7706214fd39c1cd1e609a0528c19930055167f8be0079c531659141344cd1fd0a4f28419497f9722a3daafe3b4186f6b6457e08280a380f35b503461011757606060031936011261011757604060209161077861090c565b610780610922565b906001600160a01b03610791610938565b91168352600485526001600160a01b036003858520019116835284526001600160a01b038383209116825283522054604051908152f35b5034610117576040600319360112610117576004356024359033835260026020526107f960ff60408520541661098b565b61080f6108068383610e1a565b845410156109fc565b60065560075580f35b50346101175760806003193601126101175761014461083561090c565b338352600260205261084d60ff60408520541661098b565b606435906044359060243590610b7c565b503461011757604060031936011261011757604060209161087d61090c565b6001600160a01b0361088d610922565b91168252600484526001600160a01b036004848420019116825283522054604051908152f35b50346101175780600319360112610117576020600654604051908152f35b905034610908576020600319360112610908576001600160a01b036040602093826108fa61090c565b168152600585522054168152f35b5080fd5b600435906001600160a01b038216820361001757565b602435906001600160a01b038216820361001757565b604435906001600160a01b038216820361001757565b906020808351928381520192019060005b81811061096c5750505090565b82516001600160a01b031684526020938401939092019160010161095f565b1561099257565b608460405162461bcd60e51b815260206004820152602160248201527f63616c6c6572206973206e6f74206d61726b6574206167656e74206b6565706560448201527f72000000000000000000000000000000000000000000000000000000000000006064820152fd5b15610a0357565b606460405162461bcd60e51b815260206004820152600d60248201527f72617465206973206c61726765000000000000000000000000000000000000006044820152fd5b8054821015610a63576000526003602060002091020190600090565b634e487b7160e01b600052603260045260246000fd5b9190610aa357808203610a8a575050565b6002818192548455600181015460018501550154910155565b634e487b7160e01b600052600060045260246000fd5b6060810190811067ffffffffffffffff821117610ad557604052565b634e487b7160e01b600052604160045260246000fd5b90601f7fffffffffffffffffffffffffffffffffffffffffffffffffffffffffffffffe0910116810190811067ffffffffffffffff821117610ad557604052565b9190610aa357604081600292518455602081015160018501550151910155565b9081549168010000000000000000831015610ad55782610b74916001610b7a95018155610a47565b90610b2c565b565b6001600160a01b0390929192610b966000548411156109fc565b16600052600360205260406000209081548115610d315780610bd6575092610b7a9360405193610bc585610ab9565b845260208401526040830152610b4c565b92600093845b818110610d0e575b5081610bf08686610a47565b505403610c1a57505091816002936001610c0d84610c1596610a47565b500155610a47565b500155565b6000198196939695929501908111610ce457811480610cfa575b15610c4b5750610b7a9360405193610bc585610ab9565b9293825468010000000000000000811015610ad55760018101808555610c718286610a47565b50508111610ce4575b848111610cab575091610b7a949391610b749360405195610c9a87610ab9565b865260208601526040850152610a47565b6000198101818111610ce457610cc4610cd59186610a47565b50610ccf8387610a47565b90610a79565b8015610ce45760001901610c7a565b634e487b7160e01b600052601160045260246000fd5b5083610d068285610a47565b505410610c34565b94508482610d1c8287610a47565b50541015610d2c57600101610bdc565b610be4565b92919350508115610e15576000199060005b838110610df1575b50506000198113610d5b57505050565b60018101906000600183129112908015821691151617610ce4575b818110610dc357505080548015610dad576000190190610d968282610a47565b610aa3576002816000809355826001820155015555565b634e487b7160e01b600052603160045260246000fd5b610dcd8184610a47565b50906000198101818111610ce457600192610ccf610deb9287610a47565b01610d76565b81610dfc8287610a47565b505414610e0b57600101610d43565b9150503880610d4b565b505050565b91908201809211610ce457565b90604051610e3481610ab9565b60406002829480548452600181015460208501520154910152565b6001600160a01b0316806000526003602052604060002054821015610e9957610e8e91610e889160005260036020526040600020610a47565b50610e27565b906020825192015190565b5050600090600090565b81810292918115918404141715610ce457565b8115610ec0570490565b634e487b7160e01b600052601260045260246000fd5b8051821015610a635760209160051b010190565b929093916001600160a01b031691821515806113d0575b1561138c576001600160a01b03851683811461137c578360005260056020526001600160a01b036040600020541690600654956007546000841560001461136a5750821561135a57826000526004602052604060002098895460ff8116156112e3575b5060018a0180549068010000000000000000821015610ad55760018201808255821015610a63576000526020600020018873ffffffffffffffffffffffffffffffffffffffff198254161790558760005260028a016020526040600020600160ff1982541617905587600052600560205260406000208473ffffffffffffffffffffffffffffffffffffffff198254161790557fe66486be5ed1d152eae7e1b2956d4b81071d0b994ee0037c801facba641126bc60606040516001600160a01b03861681528660208201528a6040820152a15b86156112d157506001600160a01b0382166000526003602052604060002096875467ffffffffffffffff8111610ad5576040519861107b60208360051b018b610aeb565b818a5260208a019060005260206000206000915b8383106112b3575050505060048a01916001600160a01b038416600052826020526040600020549060005b8a5181101561129857826110ce828d610ed6565b515110156110de576001016110ba565b8a9b50611123925061111a915061110f816020611106604094600398999a9b9c9d9e9f610ed6565b5101519d610ed6565b5101519a5b8a610ea3565b60005490610eb6565b9901906001600160a01b038416600052816020526040600020816000526020526111528a604060002054610e1a565b916001600160a01b0385166000526020526040600020906000526020526040600020556001600160a01b0382166000528060205261119588604060002054610e1a565b906001600160a01b03831660005260205260406000205560009483865260056020526001600160a01b03604087205416968787526004602052604087209160ff8354166111e8575b505050505093929190565b966111fa611202926004959699610ea3565b905490610eb6565b9560038201906001600160a01b038516600052816020526040600020816000526020526112348a604060002054610e1a565b916001600160a01b038616600052602052604060002090600052602052604060002055016001600160a01b038216600052806020526001600160a01b0361128088604060002054610e1a565b921660005260205260406000205538808080806111dd565b50996003929394959697989950611123915061111a90611114565b600360206001926112c385610e27565b81520192019201919061108f565b98506000975087965086955050505050565b60ff1960019116178a5560015468010000000000000000811015610ad5576001810180600155811015610a635760016000527fb10e2d527612073b26eecdfd717e6a320cf44b4afac2b0732d9fcbe2b7fa0cf601805473ffffffffffffffffffffffffffffffffffffffff19168517905538610f64565b5060009650869550859450505050565b80856040925260046020522098611037565b5060009450849350839250829150565b606460405162461bcd60e51b815260206004820152600f60248201527f61646472657373206973207a65726f00000000000000000000000000000000006044820152fd5b506001600160a01b0384161515610f01565b6001600160a01b0316801561147f576001600160a01b037f9016d09d72d40fdae2fd8ceac6b6234c7706214fd39c1cd1e609a0528c199300548273ffffffffffffffffffffffffffffffffffffffff198216177f9016d09d72d40fdae2fd8ceac6b6234c7706214fd39c1cd1e609a0528c19930055167f8be0079c531659141344cd1fd0a4f28419497f9722a3daafe3b4186f6b6457e0600080a3565b7f1e4fbdf700000000000000000000000000000000000000000000000000000000600052600060045260246000fd5b6001600160a01b037f9016d09d72d40fdae2fd8ceac6b6234c7706214fd39c1cd1e609a0528c199300541633036114e157565b7f118cdaa7000000000000000000000000000000000000000000000000000000006000523360045260246000fd5b60ff7ff0c57e16840df040f15088dc2f81fe391c3923bec73e23a9662efc9c229c6a005460401c161561153e57565b7fd7e6bcf80000000000000000000000000000000000000000000000000000000060005260046000fdfea2646970667358221220965b65c287647908e6ef14ef91cb53d8a527cd5027dabd832080db2c6f74e70164736f6c634300081c0033",
  "linkReferences": {},
  "deployedLinkReferences": {}
}