{
  "_format": "hh-sol-artifact-1",
  "contractName": "MarketAgent",
  "sourceName": "contracts/MarketAgent.sol",
  "abi": [
    {
      "inputs": [],
      "name": "InvalidInitialization",
      "type": "error"
    },
    {
      "inputs": [],
      "name": "NotInitializing",
      "type": "error"
    },
    {
      "inputs": [
        {
          "internalType": "address",
          "name": "owner",
          "type": "address"
        }
      ],
      "name": "OwnableInvalidOwner",
      "type": "error"
    },
    {
      "inputs": [
        {
          "internalType": "address",
          "name": "account",
          "type": "address"
        }
      ],
      "name": "OwnableUnauthorizedAccount",
      "type": "error"
    },
    {
      "anonymous": false,
      "inputs": [
        {
          "indexed": false,
          "internalType": "uint64",
          "name": "version",
          "type": "uint64"
        }
      ],
      "name": "Initialized",
      "type": "event"
    },
    {
      "anonymous": false,
      "inputs": [
        {
          "indexed": true,
          "internalType": "address",
          "name": "previousOwner",
          "type": "address"
        },
        {
          "indexed": true,
          "internalType": "address",
          "name": "newOwner",
          "type": "address"
        }
      ],
      "name": "OwnershipTransferred",
      "type": "event"
    },
    {
      "anonymous": false,
      "inputs": [
        {
          "indexed": false,
          "internalType": "address",
          "name": "token",
          "type": "address"
        },
        {
          "indexed": false,
          "internalType": "address",
          "name": "inviter",
          "type": "address"
        },
        {
          "indexed": false,
          "internalType": "address",
          "name": "invitee",
          "type": "address"
        }
      ],
      "name": "addInviterRelation",
      "type": "event"
    },
    {
      "stateMutability": "nonpayable",
      "type": "fallback"
    },
    {
      "inputs": [
        {
          "internalType": "address",
          "name": "_token",
          "type": "address"
        },
        {
          "internalType": "address",
          "name": "_inviter",
          "type": "address"
        },
        {
          "internalType": "address",
          "name": "_invitee",
          "type": "address"
        },
        {
          "internalType": "uint256",
          "name": "_tradeFee",
          "type": "uint256"
        }
      ],
      "name": "addInviteRelationAndCalc",
      "outputs": [
        {
          "internalType": "address",
          "name": "",
          "type": "address"
        },
        {
          "internalType": "uint256",
          "name": "",
          "type": "uint256"
        },
        {
          "internalType": "address",
          "name": "",
          "type": "address"
        },
        {
          "internalType": "uint256",
          "name": "",
          "type": "uint256"
        }
      ],
      "stateMutability": "nonpayable",
      "type": "function"
    },
    {
      "inputs": [],
      "name": "commonCommissionRate",
      "outputs": [
        {
          "internalType": "uint256",
          "name": "",
          "type": "uint256"
        }
      ],
      "stateMutability": "view",
      "type": "function"
    },
    {
      "inputs": [],
      "name": "getAgents",
      "outputs": [
        {
          "internalType": "address[]",
          "name": "",
          "type": "address[]"
        }
      ],
      "stateMutability": "view",
      "type": "function"
    },
    {
      "inputs": [
        {
          "internalType": "address",
          "name": "_inviter",
          "type": "address"
        },
        {
          "internalType": "address",
          "name": "_token",
          "type": "address"
        }
      ],
      "name": "getCommissionByInviter",
      "outputs": [
        {
          "internalType": "uint256",
          "name": "",
          "type": "uint256"
        }
      ],
      "stateMutability": "view",
      "type": "function"
    },
    {
      "inputs": [
        {
          "internalType": "address",
          "name": "_inviter",
          "type": "address"
        },
        {
          "internalType": "address",
          "name": "_invitee",
          "type": "address"
        },
        {
          "internalType": "address",
          "name": "_token",
          "type": "address"
        }
      ],
      "name": "getCommissionByInviterAndInvitee",
      "outputs": [
        {
          "internalType": "uint256",
          "name": "",
          "type": "uint256"
        }
      ],
      "stateMutability": "view",
      "type": "function"
    },
    {
      "inputs": [
        {
          "internalType": "address",
          "name": "_inviter",
          "type": "address"
        }
      ],
      "name": "getInviter",
      "outputs": [
        {
          "internalType": "address",
          "name": "",
          "type": "address"
        },
        {
          "internalType": "address[]",
          "name": "",
          "type": "address[]"
        }
      ],
      "stateMutability": "view",
      "type": "function"
    },
    {
      "inputs": [
        {
          "internalType": "address",
          "name": "initialOwner",
          "type": "address"
        }
      ],
      "name": "initialize",
      "outputs": [],
      "stateMutability": "nonpayable",
      "type": "function"
    },
    {
      "inputs": [],
      "name": "owner",
      "outputs": [
        {
          "internalType": "address",
          "name": "",
          "type": "address"
        }
      ],
      "stateMutability": "view",
      "type": "function"
    },
    {
      "inputs": [
        {
          "internalType": "address",
          "name": "_inviter",
          "type": "address"
        },
        {
          "internalType": "address",
          "name": "_invitee",
          "type": "address"
        }
      ],
      "name": "relateInviteeToInviter",
      "outputs": [],
      "stateMutability": "nonpayable",
      "type": "function"
    },
    {
      "inputs": [
        {
          "internalType": "address",
          "name": "",
          "type": "address"
        }
      ],
      "name": "relationShip",
      "outputs": [
        {
          "internalType": "address",
          "name": "",
          "type": "address"
        }
      ],
      "stateMutability": "view",
      "type": "function"
    },
    {
      "inputs": [],
      "name": "renounceOwnership",
      "outputs": [],
      "stateMutability": "nonpayable",
      "type": "function"
    },
    {
      "inputs": [
        {
          "internalType": "address",
          "name": "_addr",
          "type": "address"
        },
        {
          "internalType": "bool",
          "name": "_status",
          "type": "bool"
        }
      ],
      "name": "setAddressParam",
      "outputs": [],
      "stateMutability": "nonpayable",
      "type": "function"
    },
    {
      "inputs": [
        {
          "internalType": "uint256",
          "name": "commonRate",
          "type": "uint256"
        },
        {
          "internalType": "uint256",
          "name": "topRate",
          "type": "uint256"
        }
      ],
      "name": "setCommissionRate",
      "outputs": [],
      "stateMutability": "nonpayable",
      "type": "function"
    },
    {
      "inputs": [
        {
          "internalType": "address",
          "name": "_token",
          "type": "address"
        },
        {
          "internalType": "address",
          "name": "_topAgent",
          "type": "address"
        },
        {
          "internalType": "bool",
          "name": "_approval",
          "type": "bool"
        }
      ],
      "name": "setTokenTopAgentCommission",
      "outputs": [],
      "stateMutability": "nonpayable",
      "type": "function"
    },
    {
      "inputs": [
        {
          "internalType": "address",
          "name": "",
          "type": "address"
        },
        {
          "internalType": "address",
          "name": "",
          "type": "address"
        }
      ],
      "name": "topAgentTokens",
      "outputs": [
        {
          "internalType": "bool",
          "name": "",
          "type": "bool"
        }
      ],
      "stateMutability": "view",
      "type": "function"
    },
    {
      "inputs": [],
      "name": "topCommissionRate",
      "outputs": [
        {
          "internalType": "uint256",
          "name": "",
          "type": "uint256"
        }
      ],
      "stateMutability": "view",
      "type": "function"
    },
    {
      "inputs": [
        {
          "internalType": "address",
          "name": "newOwner",
          "type": "address"
        }
      ],
      "name": "transferOwnership",
      "outputs": [],
      "stateMutability": "nonpayable",
      "type": "function"
    }
  ],
  "bytecode": "0x608080604052346015576112c6908161001b8239f35b600080fdfe608080604052600436101561001c575b503461001757005b600080fd5b600090813560e01c908163147df887146109ad575080632a46570d1461098f578063345d54751461093a5780633f80ac0b146108e357806351aeb08c146108b857806358c7eaa71461082957806360653c8e146107ba578063715018a61461071457806389b7265c1461065b5780638da5cb5b14610615578063b5f101de146105f7578063c4d66de81461037a578063d216ce6f146102b5578063eac3fda41461020c578063f0ebe46e14610186578063f1a78eff1461010f5763f2fde38b0361000f573461010c57602060031936011261010c576101096100fc6109e8565b6101046111d6565b61110a565b80f35b80fd5b503461010c57608060031936011261010c576001600160a01b036101696080926101376109e8565b906101406109fe565b61016060ff604061014f610a14565b943381526002602052205416610cae565b60643592610d75565b929391826040519516855260208501521660408301526060820152f35b503461010c57606060031936011261010c576101a06109e8565b6101a86109fe565b604435908115158203610017576001600160a01b036101099333865260026020526101d960ff604088205416610cae565b16845260046020526001600160a01b0360408520911660005260205260406000209060ff60ff1983541691151516179055565b503461010c578060031936011261010c57604051806001548082526020820190600160005260206000209060005b81811061029357848403601f01601f191685018567ffffffffffffffff82118183101761027d5760408290526020808352829161027991830190610a2a565b0390f35b634e487b7160e01b600052604160045260246000fd5b82546001600160a01b031684528594506020909301926001928301920161023a565b503461010c57602060031936011261010c5760016001600160a01b036040816102dc6109e8565b16938481526003602052818120948152600560205220541691019060405180928054808352602083019160005260206000209060005b8181106103585750505003601f01601f1916820167ffffffffffffffff81118382101761027d576040526102796040519283928352604060208401526040830190610a2a565b82546001600160a01b0316845286945060209093019260019283019201610312565b503461010c57602060031936011261010c576103946109e8565b907ff0c57e16840df040f15088dc2f81fe391c3923bec73e23a9662efc9c229c6a00549160ff8360401c16159267ffffffffffffffff8116801590816105ef575b60011490816105e5575b1590816105dc575b506105b45790818460017fffffffffffffffffffffffffffffffffffffffffffffffff00000000000000006001600160a01b039516177ff0c57e16840df040f15088dc2f81fe391c3923bec73e23a9662efc9c229c6a005561055f575b5061044d611237565b610455611237565b61045e3361110a565b6104666111d6565b61046f8161110a565b338352600260205260408320600160ff19825416179055168152600260205260408120600160ff19825416179055670de0b6b3a764000081555067016345785d8a00006006556000906706f05b59d3b200006007556104cb5780f35b7fffffffffffffffffffffffffffffffffffffffffffffff00ffffffffffffffff7ff0c57e16840df040f15088dc2f81fe391c3923bec73e23a9662efc9c229c6a0054167ff0c57e16840df040f15088dc2f81fe391c3923bec73e23a9662efc9c229c6a00557fc7f505b2f371ae2175ee4913f4499e1f2633a7b5936321eed1cdaeb6115181d2602060405160018152a180f35b7fffffffffffffffffffffffffffffffffffffffffffffff0000000000000000001668010000000000000001177ff0c57e16840df040f15088dc2f81fe391c3923bec73e23a9662efc9c229c6a005538610444565b6004837ff92ee8a9000000000000000000000000000000000000000000000000000000008152fd5b905015386103e7565b303b1591506103df565b8591506103d5565b503461010c578060031936011261010c576020600754604051908152f35b503461010c578060031936011261010c5760206001600160a01b037f9016d09d72d40fdae2fd8ceac6b6234c7706214fd39c1cd1e609a0528c1993005416604051908152f35b503461010c57604060031936011261010c576106756109e8565b602435908115158203610710576001600160a01b039033845260026020526106a360ff604086205416610cae565b169081156106cc576101099183526002602052604083209060ff60ff1983541691151516179055565b606460405162461bcd60e51b815260206004820152600460248201527f7a65726f000000000000000000000000000000000000000000000000000000006044820152fd5b8280fd5b503461010c578060031936011261010c5761072d6111d6565b806001600160a01b037f9016d09d72d40fdae2fd8ceac6b6234c7706214fd39c1cd1e609a0528c1993005473ffffffffffffffffffffffffffffffffffffffff1981167f9016d09d72d40fdae2fd8ceac6b6234c7706214fd39c1cd1e609a0528c19930055167f8be0079c531659141344cd1fd0a4f28419497f9722a3daafe3b4186f6b6457e08280a380f35b503461010c57606060031936011261010c5760406020916107d96109e8565b6107e16109fe565b906001600160a01b036107f2610a14565b91168352600385526001600160a01b036003858520019116835284526001600160a01b038383209116825283522054604051908152f35b503461010c57604060031936011261010c5760043560243590338352600260205261085a60ff604085205416610cae565b6108648282610d1f565b8354106108745760065560075580f35b606460405162461bcd60e51b815260206004820152600d60248201527f72617465206973206c61726765000000000000000000000000000000000000006044820152fd5b503461010c57604060031936011261010c576101096108d56109e8565b6108dd6109fe565b90610b27565b503461010c57604060031936011261010c5760ff60406020926109046109e8565b6001600160a01b036109146109fe565b91168252600485526001600160a01b038383209116825284522054166040519015158152f35b503461010c57604060031936011261010c5760406020916109596109e8565b6001600160a01b036109696109fe565b91168252600384526001600160a01b036004848420019116825283522054604051908152f35b503461010c578060031936011261010c576020600654604051908152f35b9050346109e45760206003193601126109e4576001600160a01b036040602093826109d66109e8565b168152600585522054168152f35b5080fd5b600435906001600160a01b038216820361001757565b602435906001600160a01b038216820361001757565b604435906001600160a01b038216820361001757565b906020808351928381520192019060005b818110610a485750505090565b82516001600160a01b0316845260209384019390920191600101610a3b565b6001546801000000000000000081101561027d576001810180600155811015610abe576001600160a01b03906001600052602060002001911673ffffffffffffffffffffffffffffffffffffffff19825416179055565b634e487b7160e01b600052603260045260246000fd5b80546801000000000000000081101561027d5760018101808355811015610abe576001600160a01b0391600052602060002001911673ffffffffffffffffffffffffffffffffffffffff19825416179055565b6001600160a01b03811680151580610c9c575b15610c58576001600160a01b038316808214610c52578060005260056020526001600160a01b0360406000205416610c52577fe66486be5ed1d152eae7e1b2956d4b81071d0b994ee0037c801facba641126bc9360609383600052600360205260406000209081549060ff821615610c39575b50506002810191836000528260205260ff6040600020541615610be3575b505050604051916000835260208301526040820152a1565b6001610bef9201610ad4565b816000526020526040600020600160ff1982541617905580600052600560205260406000208273ffffffffffffffffffffffffffffffffffffffff19825416179055388080610bcb565b600160ff19610c4b9316178355610a67565b3880610bad565b50505050565b606460405162461bcd60e51b815260206004820152601760248201527f696e76616c696420696e766974656520616464726573730000000000000000006044820152fd5b506001600160a01b0383161515610b3a565b15610cb557565b608460405162461bcd60e51b815260206004820152602160248201527f63616c6c6572206973206e6f74206d61726b6574206167656e74206b6565706560448201527f72000000000000000000000000000000000000000000000000000000000000006064820152fd5b91908201809211610d2c57565b634e487b7160e01b600052601160045260246000fd5b81810292918115918404141715610d2c57565b8115610d5f570490565b634e487b7160e01b600052601260045260246000fd5b91929390936001600160a01b03841694851515806110f8575b156110b4576001600160a01b0381169086821461109f578660005260056020526001600160a01b0360406000205416926000841560001461108c5750821561106357826000526003602052610df8604060002097885460ff811615611074575b5060018901610ad4565b87600052600287016020526040600020600160ff1982541617905587600052600560205260406000208373ffffffffffffffffffffffffffffffffffffffff198254161790557fe66486be5ed1d152eae7e1b2956d4b81071d0b994ee0037c801facba641126bc60606040516001600160a01b03891681528560208201528a6040820152a15b801561106357600460065497610ea3610e9a6007549a85610d42565b60005490610d55565b9960038201906001600160a01b038a1660005281602052604060002081600052602052610ed58c604060002054610d1f565b916001600160a01b038b16600052602052604060002090600052602052604060002055016001600160a01b03871660005280602052610f1989604060002054610d1f565b906001600160a01b0388166000526020526040600020556001600160a01b03600096169182875260046020526040872084885260205260ff60408820541660001461104657965b6001600160a01b0388168752600360205260408720918388526004602052604088206001600160a01b038a16895260205260ff6040892054168061103b575b610faf575b505050505093929190565b96610fc1610fc9926004959699610d42565b905490610d55565b9560038201908460005281602052604060002081600052602052610ff288604060002054610d1f565b918560005260205260406000209060005260205260406000205501816000528060205261102485604060002054610d1f565b916000526020526040600020553880808080610fa4565b5060ff835416610f9f565b5083865260056020526001600160a01b0360408720541696610f60565b509550600094508493508392915050565b60ff1916600117895561108684610a67565b38610dee565b8481526003602052604090209650610e7e565b50505092505050600090600090600090600090565b606460405162461bcd60e51b815260206004820152600f60248201527f61646472657373206973207a65726f00000000000000000000000000000000006044820152fd5b506001600160a01b0384161515610d8e565b6001600160a01b031680156111a7576001600160a01b037f9016d09d72d40fdae2fd8ceac6b6234c7706214fd39c1cd1e609a0528c199300548273ffffffffffffffffffffffffffffffffffffffff198216177f9016d09d72d40fdae2fd8ceac6b6234c7706214fd39c1cd1e609a0528c19930055167f8be0079c531659141344cd1fd0a4f28419497f9722a3daafe3b4186f6b6457e0600080a3565b7f1e4fbdf700000000000000000000000000000000000000000000000000000000600052600060045260246000fd5b6001600160a01b037f9016d09d72d40fdae2fd8ceac6b6234c7706214fd39c1cd1e609a0528c1993005416330361120957565b7f118cdaa7000000000000000000000000000000000000000000000000000000006000523360045260246000fd5b60ff7ff0c57e16840df040f15088dc2f81fe391c3923bec73e23a9662efc9c229c6a005460401c161561126657565b7fd7e6bcf80000000000000000000000000000000000000000000000000000000060005260046000fdfea26469706673582212200fad41fe81d887b235ebc3bca0d19118d5de814238365d572ec74a6cd24de3da64736f6c634300081c0033",
  "linkReferences": {},
  "deployedLinkReferences": {}
}