{
  "_format": "hh-sol-artifact-1",
  "contractName": "OrderBook",
  "sourceName": "contracts/OrderBook.sol",
  "abi": [
    {
      "inputs": [],
      "name": "InvalidInitialization",
      "type": "error"
    },
    {
      "inputs": [],
      "name": "NotInitializing",
      "type": "error"
    },
    {
      "inputs": [
        {
          "internalType": "address",
          "name": "owner",
          "type": "address"
        }
      ],
      "name": "OwnableInvalidOwner",
      "type": "error"
    },
    {
      "inputs": [
        {
          "internalType": "address",
          "name": "account",
          "type": "address"
        }
      ],
      "name": "OwnableUnauthorizedAccount",
      "type": "error"
    },
    {
      "anonymous": false,
      "inputs": [
        {
          "indexed": false,
          "internalType": "address",
          "name": "taker",
          "type": "address"
        },
        {
          "indexed": false,
          "internalType": "uint256",
          "name": "amount",
          "type": "uint256"
        },
        {
          "indexed": false,
          "internalType": "uint256",
          "name": "availableAmount",
          "type": "uint256"
        },
        {
          "indexed": false,
          "internalType": "uint256",
          "name": "marginAmount",
          "type": "uint256"
        },
        {
          "indexed": false,
          "internalType": "uint256",
          "name": "locked",
          "type": "uint256"
        },
        {
          "indexed": false,
          "internalType": "uint256",
          "name": "stage",
          "type": "uint256"
        },
        {
          "indexed": false,
          "internalType": "uint256",
          "name": "dif",
          "type": "uint256"
        }
      ],
      "name": "BalanceOfTaker",
      "type": "event"
    },
    {
      "anonymous": false,
      "inputs": [
        {
          "indexed": false,
          "internalType": "string",
          "name": "name",
          "type": "string"
        },
        {
          "indexed": true,
          "internalType": "address",
          "name": "taker",
          "type": "address"
        },
        {
          "indexed": true,
          "internalType": "address",
          "name": "token",
          "type": "address"
        },
        {
          "indexed": false,
          "internalType": "uint256",
          "name": "orderID",
          "type": "uint256"
        },
        {
          "indexed": false,
          "internalType": "enum ICommon.Direct",
          "name": "orderType",
          "type": "uint8"
        },
        {
          "indexed": false,
          "internalType": "enum IPerpetual.OrderState",
          "name": "state",
          "type": "uint8"
        },
        {
          "indexed": false,
          "internalType": "enum ICommon.Offset",
          "name": "offset",
          "type": "uint8"
        },
        {
          "indexed": false,
          "internalType": "uint256",
          "name": "amount",
          "type": "uint256"
        },
        {
          "indexed": false,
          "internalType": "uint256",
          "name": "targetPrice",
          "type": "uint256"
        },
        {
          "indexed": false,
          "internalType": "uint256",
          "name": "margin",
          "type": "uint256"
        },
        {
          "indexed": false,
          "internalType": "uint256",
          "name": "rewardGas",
          "type": "uint256"
        },
        {
          "indexed": false,
          "internalType": "uint256",
          "name": "tradingFee",
          "type": "uint256"
        },
        {
          "indexed": false,
          "internalType": "uint256",
          "name": "startTime",
          "type": "uint256"
        },
        {
          "indexed": false,
          "internalType": "uint256",
          "name": "goodTill",
          "type": "uint256"
        }
      ],
      "name": "CreateLimitedOrder",
      "type": "event"
    },
    {
      "anonymous": false,
      "inputs": [
        {
          "indexed": false,
          "internalType": "uint256",
          "name": "limitOrderID",
          "type": "uint256"
        },
        {
          "indexed": false,
          "internalType": "uint256",
          "name": "openLimitPrice",
          "type": "uint256"
        },
        {
          "indexed": false,
          "internalType": "uint256",
          "name": "gainTriggerPrice",
          "type": "uint256"
        },
        {
          "indexed": false,
          "internalType": "uint256",
          "name": "gainLimitPrice",
          "type": "uint256"
        },
        {
          "indexed": false,
          "internalType": "uint256",
          "name": "lossTriggerPrice",
          "type": "uint256"
        },
        {
          "indexed": false,
          "internalType": "uint256",
          "name": "lossLimitPrice",
          "type": "uint256"
        }
      ],
      "name": "CreateTriggerCondition",
      "type": "event"
    },
    {
      "anonymous": false,
      "inputs": [
        {
          "indexed": false,
          "internalType": "uint256",
          "name": "code",
          "type": "uint256"
        },
        {
          "indexed": false,
          "internalType": "uint256",
          "name": "orderID",
          "type": "uint256"
        },
        {
          "indexed": false,
          "internalType": "string",
          "name": "message",
          "type": "string"
        }
      ],
      "name": "ErrorInfo",
      "type": "event"
    },
    {
      "anonymous": false,
      "inputs": [
        {
          "indexed": false,
          "internalType": "uint256",
          "name": "code",
          "type": "uint256"
        },
        {
          "indexed": false,
          "internalType": "uint256",
          "name": "orderID",
          "type": "uint256"
        },
        {
          "indexed": false,
          "internalType": "bytes",
          "name": "message",
          "type": "bytes"
        }
      ],
      "name": "ExceptErrorInfo",
      "type": "event"
    },
    {
      "anonymous": false,
      "inputs": [
        {
          "indexed": false,
          "internalType": "uint64",
          "name": "version",
          "type": "uint64"
        }
      ],
      "name": "Initialized",
      "type": "event"
    },
    {
      "anonymous": false,
      "inputs": [
        {
          "indexed": true,
          "internalType": "address",
          "name": "taker",
          "type": "address"
        },
        {
          "indexed": false,
          "internalType": "string",
          "name": "name",
          "type": "string"
        },
        {
          "indexed": false,
          "internalType": "address",
          "name": "token",
          "type": "address"
        },
        {
          "indexed": false,
          "internalType": "uint256",
          "name": "orderID",
          "type": "uint256"
        },
        {
          "indexed": false,
          "internalType": "enum ICommon.Direct",
          "name": "direction",
          "type": "uint8"
        },
        {
          "indexed": false,
          "internalType": "enum IPerpetual.OrderType",
          "name": "orderType",
          "type": "uint8"
        },
        {
          "indexed": false,
          "internalType": "uint256",
          "name": "amount",
          "type": "uint256"
        },
        {
          "indexed": false,
          "internalType": "uint256",
          "name": "costPrice",
          "type": "uint256"
        },
        {
          "indexed": false,
          "internalType": "uint256",
          "name": "price",
          "type": "uint256"
        },
        {
          "indexed": false,
          "internalType": "uint256",
          "name": "tradingFee",
          "type": "uint256"
        },
        {
          "indexed": false,
          "internalType": "uint256",
          "name": "limitOrderId",
          "type": "uint256"
        },
        {
          "indexed": false,
          "internalType": "uint256",
          "name": "timestamp",
          "type": "uint256"
        }
      ],
      "name": "OrderHistory",
      "type": "event"
    },
    {
      "anonymous": false,
      "inputs": [
        {
          "indexed": true,
          "internalType": "address",
          "name": "previousOwner",
          "type": "address"
        },
        {
          "indexed": true,
          "internalType": "address",
          "name": "newOwner",
          "type": "address"
        }
      ],
      "name": "OwnershipTransferred",
      "type": "event"
    },
    {
      "anonymous": false,
      "inputs": [
        {
          "indexed": false,
          "internalType": "address",
          "name": "",
          "type": "address"
        },
        {
          "indexed": false,
          "internalType": "bool",
          "name": "",
          "type": "bool"
        }
      ],
      "name": "SetKeeper",
      "type": "event"
    },
    {
      "anonymous": false,
      "inputs": [
        {
          "indexed": false,
          "internalType": "address",
          "name": "token",
          "type": "address"
        },
        {
          "indexed": false,
          "internalType": "uint256",
          "name": "orderID",
          "type": "uint256"
        },
        {
          "indexed": false,
          "internalType": "uint256",
          "name": "dealID",
          "type": "uint256"
        },
        {
          "indexed": false,
          "internalType": "enum IPerpetual.TradeType",
          "name": "tradeType",
          "type": "uint8"
        },
        {
          "indexed": false,
          "internalType": "uint256",
          "name": "amount",
          "type": "uint256"
        },
        {
          "indexed": false,
          "internalType": "uint256",
          "name": "price",
          "type": "uint256"
        },
        {
          "indexed": false,
          "internalType": "uint256",
          "name": "tradingFee",
          "type": "uint256"
        },
        {
          "indexed": false,
          "internalType": "uint256",
          "name": "profit",
          "type": "uint256"
        },
        {
          "indexed": false,
          "internalType": "uint256",
          "name": "loss",
          "type": "uint256"
        },
        {
          "indexed": false,
          "internalType": "uint256",
          "name": "timestamp",
          "type": "uint256"
        }
      ],
      "name": "TradeHistory",
      "type": "event"
    },
    {
      "anonymous": false,
      "inputs": [
        {
          "indexed": true,
          "internalType": "address",
          "name": "taker",
          "type": "address"
        },
        {
          "indexed": true,
          "internalType": "address",
          "name": "token",
          "type": "address"
        },
        {
          "indexed": false,
          "internalType": "enum ICommon.TransactionType",
          "name": "transactionType",
          "type": "uint8"
        },
        {
          "indexed": false,
          "internalType": "uint256",
          "name": "amount",
          "type": "uint256"
        },
        {
          "indexed": false,
          "internalType": "uint256",
          "name": "timestamp",
          "type": "uint256"
        }
      ],
      "name": "TransactionHistory",
      "type": "event"
    },
    {
      "anonymous": false,
      "inputs": [
        {
          "indexed": false,
          "internalType": "address",
          "name": "sender",
          "type": "address"
        },
        {
          "indexed": false,
          "internalType": "address",
          "name": "received",
          "type": "address"
        },
        {
          "indexed": false,
          "internalType": "enum ICommon.TransactionType",
          "name": "transactionType",
          "type": "uint8"
        },
        {
          "indexed": false,
          "internalType": "uint256",
          "name": "amount",
          "type": "uint256"
        },
        {
          "indexed": false,
          "internalType": "uint256",
          "name": "timestamp",
          "type": "uint256"
        }
      ],
      "name": "TransferFee",
      "type": "event"
    },
    {
      "anonymous": false,
      "inputs": [
        {
          "indexed": false,
          "internalType": "uint8",
          "name": "direct",
          "type": "uint8"
        },
        {
          "indexed": false,
          "internalType": "uint256",
          "name": "price",
          "type": "uint256"
        },
        {
          "indexed": false,
          "internalType": "uint256",
          "name": "value",
          "type": "uint256"
        }
      ],
      "name": "indexPosition",
      "type": "event"
    },
    {
      "anonymous": false,
      "inputs": [
        {
          "indexed": false,
          "internalType": "address",
          "name": "sender",
          "type": "address"
        },
        {
          "indexed": false,
          "internalType": "uint256",
          "name": "beforeLeverage",
          "type": "uint256"
        },
        {
          "indexed": false,
          "internalType": "uint256",
          "name": "afterLeverage",
          "type": "uint256"
        }
      ],
      "name": "setLeverage",
      "type": "event"
    },
    {
      "stateMutability": "nonpayable",
      "type": "fallback"
    },
    {
      "inputs": [
        {
          "internalType": "uint256",
          "name": "_oid",
          "type": "uint256"
        },
        {
          "internalType": "address",
          "name": "_holder",
          "type": "address"
        },
        {
          "internalType": "bool",
          "name": "liquidated",
          "type": "bool"
        }
      ],
      "name": "cancelOrder",
      "outputs": [
        {
          "internalType": "uint256",
          "name": "lockedAmount",
          "type": "uint256"
        }
      ],
      "stateMutability": "nonpayable",
      "type": "function"
    },
    {
      "inputs": [
        {
          "internalType": "address",
          "name": "_taker",
          "type": "address"
        },
        {
          "internalType": "string",
          "name": "_pair",
          "type": "string"
        },
        {
          "internalType": "enum ICommon.Direct",
          "name": "_type",
          "type": "uint8"
        },
        {
          "internalType": "uint256",
          "name": "_currentPrice",
          "type": "uint256"
        },
        {
          "internalType": "uint256",
          "name": "_deposit",
          "type": "uint256"
        }
      ],
      "name": "clearingTakerPosition",
      "outputs": [
        {
          "internalType": "uint256",
          "name": "deposit",
          "type": "uint256"
        },
        {
          "internalType": "bool",
          "name": "forced",
          "type": "bool"
        }
      ],
      "stateMutability": "nonpayable",
      "type": "function"
    },
    {
      "inputs": [
        {
          "internalType": "address",
          "name": "_taker",
          "type": "address"
        },
        {
          "internalType": "uint256",
          "name": "_dealID",
          "type": "uint256"
        },
        {
          "internalType": "uint256",
          "name": "_amount",
          "type": "uint256"
        },
        {
          "internalType": "enum ICommon.Direct",
          "name": "_type",
          "type": "uint8"
        },
        {
          "internalType": "uint256",
          "name": "_currentPrice",
          "type": "uint256"
        },
        {
          "internalType": "uint256",
          "name": "tradeFeeRate",
          "type": "uint256"
        },
        {
          "internalType": "uint256",
          "name": "releaseSize",
          "type": "uint256"
        }
      ],
      "name": "closeDeal",
      "outputs": [
        {
          "internalType": "uint256",
          "name": "profit",
          "type": "uint256"
        },
        {
          "internalType": "uint256",
          "name": "loss",
          "type": "uint256"
        },
        {
          "internalType": "uint256",
          "name": "margin",
          "type": "uint256"
        }
      ],
      "stateMutability": "nonpayable",
      "type": "function"
    },
    {
      "inputs": [
        {
          "internalType": "uint256",
          "name": "",
          "type": "uint256"
        }
      ],
      "name": "doneLimitOrders",
      "outputs": [
        {
          "internalType": "address",
          "name": "trigger",
          "type": "address"
        },
        {
          "internalType": "address",
          "name": "caller",
          "type": "address"
        },
        {
          "internalType": "uint256",
          "name": "openBlockNumber",
          "type": "uint256"
        },
        {
          "internalType": "uint256",
          "name": "closeBlockNumber",
          "type": "uint256"
        },
        {
          "internalType": "bytes4",
          "name": "method",
          "type": "bytes4"
        }
      ],
      "stateMutability": "view",
      "type": "function"
    },
    {
      "inputs": [
        {
          "internalType": "uint256",
          "name": "_start",
          "type": "uint256"
        },
        {
          "internalType": "uint256",
          "name": "_end",
          "type": "uint256"
        },
        {
          "internalType": "uint256",
          "name": "_count",
          "type": "uint256"
        }
      ],
      "name": "getActiveDeals",
      "outputs": [
        {
          "components": [
            {
              "internalType": "address payable",
              "name": "taker",
              "type": "address"
            },
            {
              "internalType": "enum ICommon.Direct",
              "name": "direct",
              "type": "uint8"
            },
            {
              "internalType": "enum ICommon.DealState",
              "name": "state",
              "type": "uint8"
            },
            {
              "internalType": "enum ICommon.Offset",
              "name": "offset",
              "type": "uint8"
            },
            {
              "internalType": "uint256",
              "name": "orderID",
              "type": "uint256"
            },
            {
              "internalType": "string",
              "name": "name",
              "type": "string"
            },
            {
              "internalType": "uint256",
              "name": "amount",
              "type": "uint256"
            },
            {
              "internalType": "uint256",
              "name": "price",
              "type": "uint256"
            },
            {
              "internalType": "uint256",
              "name": "margin",
              "type": "uint256"
            },
            {
              "internalType": "uint256",
              "name": "tradingFee",
              "type": "uint256"
            },
            {
              "internalType": "uint256",
              "name": "timestamp",
              "type": "uint256"
            }
          ],
          "internalType": "struct ICommon.Deal[]",
          "name": "info",
          "type": "tuple[]"
        },
        {
          "internalType": "uint256[]",
          "name": "ids",
          "type": "uint256[]"
        },
        {
          "internalType": "uint256",
          "name": "end",
          "type": "uint256"
        }
      ],
      "stateMutability": "view",
      "type": "function"
    },
    {
      "inputs": [
        {
          "internalType": "uint256",
          "name": "_start",
          "type": "uint256"
        },
        {
          "internalType": "uint256",
          "name": "_end",
          "type": "uint256"
        },
        {
          "internalType": "uint256",
          "name": "_count",
          "type": "uint256"
        }
      ],
      "name": "getActiveLimitedOrders",
      "outputs": [
        {
          "components": [
            {
              "internalType": "address payable",
              "name": "taker",
              "type": "address"
            },
            {
              "internalType": "enum ICommon.Direct",
              "name": "direct",
              "type": "uint8"
            },
            {
              "internalType": "enum IPerpetual.OrderState",
              "name": "state",
              "type": "uint8"
            },
            {
              "internalType": "enum ICommon.Offset",
              "name": "offset",
              "type": "uint8"
            },
            {
              "internalType": "string",
              "name": "name",
              "type": "string"
            },
            {
              "internalType": "uint256",
              "name": "amount",
              "type": "uint256"
            },
            {
              "internalType": "uint256",
              "name": "targetPrice",
              "type": "uint256"
            },
            {
              "internalType": "uint256",
              "name": "margin",
              "type": "uint256"
            },
            {
              "internalType": "uint256",
              "name": "tradingFee",
              "type": "uint256"
            },
            {
              "internalType": "uint256",
              "name": "rewardGas",
              "type": "uint256"
            },
            {
              "internalType": "uint256",
              "name": "startTime",
              "type": "uint256"
            },
            {
              "internalType": "uint256",
              "name": "goodTill",
              "type": "uint256"
            }
          ],
          "internalType": "struct IPerpetual.LimitedOrder[]",
          "name": "info",
          "type": "tuple[]"
        },
        {
          "internalType": "uint256[]",
          "name": "ids",
          "type": "uint256[]"
        },
        {
          "internalType": "uint256",
          "name": "end",
          "type": "uint256"
        }
      ],
      "stateMutability": "view",
      "type": "function"
    },
    {
      "inputs": [],
      "name": "getAndIncreaseOrderID",
      "outputs": [
        {
          "internalType": "uint256",
          "name": "length",
          "type": "uint256"
        }
      ],
      "stateMutability": "nonpayable",
      "type": "function"
    },
    {
      "inputs": [
        {
          "internalType": "uint256",
          "name": "id",
          "type": "uint256"
        }
      ],
      "name": "getDeal",
      "outputs": [
        {
          "components": [
            {
              "internalType": "address payable",
              "name": "taker",
              "type": "address"
            },
            {
              "internalType": "enum ICommon.Direct",
              "name": "direct",
              "type": "uint8"
            },
            {
              "internalType": "enum ICommon.DealState",
              "name": "state",
              "type": "uint8"
            },
            {
              "internalType": "enum ICommon.Offset",
              "name": "offset",
              "type": "uint8"
            },
            {
              "internalType": "uint256",
              "name": "orderID",
              "type": "uint256"
            },
            {
              "internalType": "string",
              "name": "name",
              "type": "string"
            },
            {
              "internalType": "uint256",
              "name": "amount",
              "type": "uint256"
            },
            {
              "internalType": "uint256",
              "name": "price",
              "type": "uint256"
            },
            {
              "internalType": "uint256",
              "name": "margin",
              "type": "uint256"
            },
            {
              "internalType": "uint256",
              "name": "tradingFee",
              "type": "uint256"
            },
            {
              "internalType": "uint256",
              "name": "timestamp",
              "type": "uint256"
            }
          ],
          "internalType": "struct ICommon.Deal",
          "name": "",
          "type": "tuple"
        }
      ],
      "stateMutability": "view",
      "type": "function"
    },
    {
      "inputs": [],
      "name": "getDealLength",
      "outputs": [
        {
          "internalType": "uint256",
          "name": "length",
          "type": "uint256"
        }
      ],
      "stateMutability": "view",
      "type": "function"
    },
    {
      "inputs": [
        {
          "internalType": "uint256[]",
          "name": "_ids",
          "type": "uint256[]"
        }
      ],
      "name": "getDeals",
      "outputs": [
        {
          "components": [
            {
              "internalType": "address payable",
              "name": "taker",
              "type": "address"
            },
            {
              "internalType": "enum ICommon.Direct",
              "name": "direct",
              "type": "uint8"
            },
            {
              "internalType": "enum ICommon.DealState",
              "name": "state",
              "type": "uint8"
            },
            {
              "internalType": "enum ICommon.Offset",
              "name": "offset",
              "type": "uint8"
            },
            {
              "internalType": "uint256",
              "name": "orderID",
              "type": "uint256"
            },
            {
              "internalType": "string",
              "name": "name",
              "type": "string"
            },
            {
              "internalType": "uint256",
              "name": "amount",
              "type": "uint256"
            },
            {
              "internalType": "uint256",
              "name": "price",
              "type": "uint256"
            },
            {
              "internalType": "uint256",
              "name": "margin",
              "type": "uint256"
            },
            {
              "internalType": "uint256",
              "name": "tradingFee",
              "type": "uint256"
            },
            {
              "internalType": "uint256",
              "name": "timestamp",
              "type": "uint256"
            }
          ],
          "internalType": "struct ICommon.Deal[]",
          "name": "info",
          "type": "tuple[]"
        }
      ],
      "stateMutability": "view",
      "type": "function"
    },
    {
      "inputs": [
        {
          "internalType": "address",
          "name": "_taker",
          "type": "address"
        },
        {
          "internalType": "string",
          "name": "_name",
          "type": "string"
        },
        {
          "internalType": "enum ICommon.Direct",
          "name": "_type",
          "type": "uint8"
        }
      ],
      "name": "getDealsByPosition",
      "outputs": [
        {
          "internalType": "uint256[]",
          "name": "_deals",
          "type": "uint256[]"
        }
      ],
      "stateMutability": "view",
      "type": "function"
    },
    {
      "inputs": [
        {
          "internalType": "uint256[]",
          "name": "_ids",
          "type": "uint256[]"
        }
      ],
      "name": "getLimitOrders",
      "outputs": [
        {
          "components": [
            {
              "internalType": "address payable",
              "name": "taker",
              "type": "address"
            },
            {
              "internalType": "enum ICommon.Direct",
              "name": "direct",
              "type": "uint8"
            },
            {
              "internalType": "enum IPerpetual.OrderState",
              "name": "state",
              "type": "uint8"
            },
            {
              "internalType": "enum ICommon.Offset",
              "name": "offset",
              "type": "uint8"
            },
            {
              "internalType": "string",
              "name": "name",
              "type": "string"
            },
            {
              "internalType": "uint256",
              "name": "amount",
              "type": "uint256"
            },
            {
              "internalType": "uint256",
              "name": "targetPrice",
              "type": "uint256"
            },
            {
              "internalType": "uint256",
              "name": "margin",
              "type": "uint256"
            },
            {
              "internalType": "uint256",
              "name": "tradingFee",
              "type": "uint256"
            },
            {
              "internalType": "uint256",
              "name": "rewardGas",
              "type": "uint256"
            },
            {
              "internalType": "uint256",
              "name": "startTime",
              "type": "uint256"
            },
            {
              "internalType": "uint256",
              "name": "goodTill",
              "type": "uint256"
            }
          ],
          "internalType": "struct IPerpetual.LimitedOrder[]",
          "name": "info",
          "type": "tuple[]"
        }
      ],
      "stateMutability": "view",
      "type": "function"
    },
    {
      "inputs": [
        {
          "internalType": "uint256",
          "name": "id",
          "type": "uint256"
        }
      ],
      "name": "getLimitedOrder",
      "outputs": [
        {
          "components": [
            {
              "internalType": "address payable",
              "name": "taker",
              "type": "address"
            },
            {
              "internalType": "enum ICommon.Direct",
              "name": "direct",
              "type": "uint8"
            },
            {
              "internalType": "enum IPerpetual.OrderState",
              "name": "state",
              "type": "uint8"
            },
            {
              "internalType": "enum ICommon.Offset",
              "name": "offset",
              "type": "uint8"
            },
            {
              "internalType": "string",
              "name": "name",
              "type": "string"
            },
            {
              "internalType": "uint256",
              "name": "amount",
              "type": "uint256"
            },
            {
              "internalType": "uint256",
              "name": "targetPrice",
              "type": "uint256"
            },
            {
              "internalType": "uint256",
              "name": "margin",
              "type": "uint256"
            },
            {
              "internalType": "uint256",
              "name": "tradingFee",
              "type": "uint256"
            },
            {
              "internalType": "uint256",
              "name": "rewardGas",
              "type": "uint256"
            },
            {
              "internalType": "uint256",
              "name": "startTime",
              "type": "uint256"
            },
            {
              "internalType": "uint256",
              "name": "goodTill",
              "type": "uint256"
            }
          ],
          "internalType": "struct IPerpetual.LimitedOrder",
          "name": "",
          "type": "tuple"
        }
      ],
      "stateMutability": "view",
      "type": "function"
    },
    {
      "inputs": [],
      "name": "getLimitedOrderLength",
      "outputs": [
        {
          "internalType": "uint256",
          "name": "length",
          "type": "uint256"
        }
      ],
      "stateMutability": "view",
      "type": "function"
    },
    {
      "inputs": [],
      "name": "getOrderID",
      "outputs": [
        {
          "internalType": "uint256",
          "name": "length",
          "type": "uint256"
        }
      ],
      "stateMutability": "view",
      "type": "function"
    },
    {
      "inputs": [
        {
          "internalType": "uint256",
          "name": "_id",
          "type": "uint256"
        }
      ],
      "name": "getTriggerCondition",
      "outputs": [
        {
          "components": [
            {
              "internalType": "uint256",
              "name": "mean",
              "type": "uint256"
            },
            {
              "internalType": "uint256",
              "name": "openLimitPrice",
              "type": "uint256"
            },
            {
              "internalType": "uint256",
              "name": "gainTriggerPrice",
              "type": "uint256"
            },
            {
              "internalType": "uint256",
              "name": "gainLimitPrice",
              "type": "uint256"
            },
            {
              "internalType": "uint256",
              "name": "lossTriggerPrice",
              "type": "uint256"
            },
            {
              "internalType": "uint256",
              "name": "lossLimitPrice",
              "type": "uint256"
            }
          ],
          "internalType": "struct IPerpetual.TriggerCondition",
          "name": "",
          "type": "tuple"
        }
      ],
      "stateMutability": "view",
      "type": "function"
    },
    {
      "inputs": [
        {
          "internalType": "uint256[]",
          "name": "_ids",
          "type": "uint256[]"
        }
      ],
      "name": "getTriggerConditions",
      "outputs": [
        {
          "components": [
            {
              "internalType": "uint256",
              "name": "mean",
              "type": "uint256"
            },
            {
              "internalType": "uint256",
              "name": "openLimitPrice",
              "type": "uint256"
            },
            {
              "internalType": "uint256",
              "name": "gainTriggerPrice",
              "type": "uint256"
            },
            {
              "internalType": "uint256",
              "name": "gainLimitPrice",
              "type": "uint256"
            },
            {
              "internalType": "uint256",
              "name": "lossTriggerPrice",
              "type": "uint256"
            },
            {
              "internalType": "uint256",
              "name": "lossLimitPrice",
              "type": "uint256"
            }
          ],
          "internalType": "struct IPerpetual.TriggerCondition[]",
          "name": "info",
          "type": "tuple[]"
        }
      ],
      "stateMutability": "view",
      "type": "function"
    },
    {
      "inputs": [
        {
          "internalType": "address",
          "name": "user",
          "type": "address"
        }
      ],
      "name": "getUserDealsID",
      "outputs": [
        {
          "internalType": "uint256[]",
          "name": "",
          "type": "uint256[]"
        }
      ],
      "stateMutability": "view",
      "type": "function"
    },
    {
      "inputs": [
        {
          "internalType": "address",
          "name": "user",
          "type": "address"
        }
      ],
      "name": "getUserLimitOrdersID",
      "outputs": [
        {
          "internalType": "uint256[]",
          "name": "",
          "type": "uint256[]"
        }
      ],
      "stateMutability": "view",
      "type": "function"
    },
    {
      "inputs": [
        {
          "internalType": "address",
          "name": "initialOwner",
          "type": "address"
        },
        {
          "internalType": "address",
          "name": "_priPool",
          "type": "address"
        },
        {
          "internalType": "address",
          "name": "_perpetual",
          "type": "address"
        },
        {
          "internalType": "address",
          "name": "_settle",
          "type": "address"
        }
      ],
      "name": "initialize",
      "outputs": [],
      "stateMutability": "nonpayable",
      "type": "function"
    },
    {
      "inputs": [
        {
          "internalType": "uint256",
          "name": "_dealID",
          "type": "uint256"
        },
        {
          "internalType": "string[]",
          "name": "_symbols",
          "type": "string[]"
        },
        {
          "internalType": "uint256[]",
          "name": "_prices",
          "type": "uint256[]"
        }
      ],
      "name": "liquidateMakerDeal",
      "outputs": [
        {
          "internalType": "bool",
          "name": "isLiquidated",
          "type": "bool"
        },
        {
          "internalType": "bool",
          "name": "isAgreement",
          "type": "bool"
        },
        {
          "internalType": "uint256",
          "name": "userProfit",
          "type": "uint256"
        },
        {
          "internalType": "address",
          "name": "taker",
          "type": "address"
        },
        {
          "internalType": "uint256",
          "name": "margin",
          "type": "uint256"
        }
      ],
      "stateMutability": "nonpayable",
      "type": "function"
    },
    {
      "inputs": [
        {
          "internalType": "address",
          "name": "_taker",
          "type": "address"
        },
        {
          "internalType": "string",
          "name": "_name",
          "type": "string"
        },
        {
          "internalType": "enum ICommon.Direct",
          "name": "_type",
          "type": "uint8"
        },
        {
          "internalType": "enum ICommon.Offset",
          "name": "_offset",
          "type": "uint8"
        },
        {
          "internalType": "uint256",
          "name": "_amount",
          "type": "uint256"
        },
        {
          "internalType": "uint256",
          "name": "_price",
          "type": "uint256"
        },
        {
          "internalType": "uint256",
          "name": "_tradingFee",
          "type": "uint256"
        },
        {
          "internalType": "uint256",
          "name": "_rewardGas",
          "type": "uint256"
        },
        {
          "internalType": "uint256",
          "name": "_marginAmount",
          "type": "uint256"
        },
        {
          "internalType": "uint256",
          "name": "_goodTill",
          "type": "uint256"
        },
        {
          "internalType": "bool",
          "name": "condition",
          "type": "bool"
        },
        {
          "internalType": "uint256",
          "name": "_dueGas",
          "type": "uint256"
        }
      ],
      "name": "makeLimitedOrder",
      "outputs": [],
      "stateMutability": "payable",
      "type": "function"
    },
    {
      "inputs": [
        {
          "internalType": "address",
          "name": "_taker",
          "type": "address"
        },
        {
          "internalType": "string",
          "name": "_name",
          "type": "string"
        },
        {
          "internalType": "enum ICommon.Direct",
          "name": "_type",
          "type": "uint8"
        },
        {
          "internalType": "enum IPerpetual.OrderType",
          "name": "_orderType",
          "type": "uint8"
        },
        {
          "internalType": "uint256",
          "name": "_amount",
          "type": "uint256"
        },
        {
          "internalType": "uint256",
          "name": "_total",
          "type": "uint256"
        },
        {
          "internalType": "uint256",
          "name": "_tradingFee",
          "type": "uint256"
        },
        {
          "internalType": "uint256",
          "name": "_marginAmount",
          "type": "uint256"
        },
        {
          "internalType": "uint256",
          "name": "_currentPrice",
          "type": "uint256"
        },
        {
          "internalType": "uint256",
          "name": "_limitID",
          "type": "uint256"
        }
      ],
      "name": "openOrder",
      "outputs": [],
      "stateMutability": "nonpayable",
      "type": "function"
    },
    {
      "inputs": [],
      "name": "owner",
      "outputs": [
        {
          "internalType": "address",
          "name": "",
          "type": "address"
        }
      ],
      "stateMutability": "view",
      "type": "function"
    },
    {
      "inputs": [
        {
          "internalType": "address",
          "name": "",
          "type": "address"
        },
        {
          "internalType": "string",
          "name": "",
          "type": "string"
        },
        {
          "internalType": "uint256",
          "name": "",
          "type": "uint256"
        }
      ],
      "name": "positions",
      "outputs": [
        {
          "internalType": "uint256",
          "name": "value",
          "type": "uint256"
        },
        {
          "internalType": "uint256",
          "name": "size",
          "type": "uint256"
        },
        {
          "internalType": "uint256",
          "name": "margin",
          "type": "uint256"
        },
        {
          "internalType": "uint256",
          "name": "freeze",
          "type": "uint256"
        }
      ],
      "stateMutability": "view",
      "type": "function"
    },
    {
      "inputs": [],
      "name": "renounceOwnership",
      "outputs": [],
      "stateMutability": "nonpayable",
      "type": "function"
    },
    {
      "inputs": [
        {
          "internalType": "address",
          "name": "_agent",
          "type": "address"
        },
        {
          "internalType": "address",
          "name": "_station",
          "type": "address"
        }
      ],
      "name": "setKeepers",
      "outputs": [],
      "stateMutability": "nonpayable",
      "type": "function"
    },
    {
      "inputs": [
        {
          "internalType": "address",
          "name": "newOwner",
          "type": "address"
        }
      ],
      "name": "transferOwnership",
      "outputs": [],
      "stateMutability": "nonpayable",
      "type": "function"
    },
    {
      "inputs": [
        {
          "internalType": "uint256",
          "name": "limitID",
          "type": "uint256"
        },
        {
          "internalType": "enum IPerpetual.OrderState",
          "name": "state",
          "type": "uint8"
        },
        {
          "internalType": "uint256",
          "name": "rewardGas",
          "type": "uint256"
        }
      ],
      "name": "updateLimitOrder",
      "outputs": [],
      "stateMutability": "nonpayable",
      "type": "function"
    },
    {
      "inputs": [
        {
          "internalType": "uint256",
          "name": "limitOrderID",
          "type": "uint256"
        },
        {
          "internalType": "uint256",
          "name": "_mean",
          "type": "uint256"
        },
        {
          "internalType": "uint256",
          "name": "_openLimitPrice",
          "type": "uint256"
        },
        {
          "internalType": "uint256",
          "name": "_gainTriggerPrice",
          "type": "uint256"
        },
        {
          "internalType": "uint256",
          "name": "_gainLimitPrice",
          "type": "uint256"
        },
        {
          "internalType": "uint256",
          "name": "_lossTriggerPrice",
          "type": "uint256"
        },
        {
          "internalType": "uint256",
          "name": "_lossLimitPrice",
          "type": "uint256"
        }
      ],
      "name": "updateTriggerCondition",
      "outputs": [],
      "stateMutability": "nonpayable",
      "type": "function"
    }
  ],
  "bytecode": "0x608080604052346015576149f1908161001b8239f35b600080fdfe6080604052600436101561001a575b3461001557005b600080fd5b60003560e01c80630187703f146101fa5780630374c555146101f55780630c3fc6b9146101f05780630c8c3516146101eb5780630f12fb59146101e65780631b31c071146101e15780632b000206146101dc57806349138690146101d757806352e282a7146101d2578063530e011e146101cd578063620de4da146101c85780636f4907cb146101c3578063715018a6146101be5780637207584d146101b957806375ffb53d146101b457806382fd5bac146101af5780638da5cb5b146101aa5780639324b549146101a5578063ac6b96a2146101a0578063ac89c7981461019b578063b811988814610196578063b99ac92714610191578063be63309e1461018c578063bfffc8bb14610187578063c2b3356414610182578063c3710f251461017d578063dcee347514610178578063e771ad7214610173578063f2fde38b1461016e5763f8c8765e0361000e57611b5c565b611b33565b611a2c565b61190b565b6118ed565b6118a1565b611825565b61179d565b61177a565b61175c565b61164b565b6115dc565b61155a565b611514565b6114d5565b6113a8565b611278565b6111df565b6111a5565b611157565b6110e1565b61106c565b610f3c565b610e88565b6109bd565b61090b565b6107fc565b610677565b610481565b610244565b6102429092919260c081019360a0809180518452602081015160208501526040810151604085015260608101516060850152608081015160808501520151910152565b565b3461001557602060031936011261001557600435610260611db2565b50600052600d6020526102bf6040600020600560405191610280836102d9565b8054835260018101546020840152600281015460408401526003810154606084015260048101546080840152015460a0820152604051918291826101ff565b0390f35b634e487b7160e01b600052604160045260246000fd5b60c0810190811067ffffffffffffffff8211176102f557604052565b6102c3565b60a0810190811067ffffffffffffffff8211176102f557604052565b90601f601f19910116810190811067ffffffffffffffff8211176102f557604052565b6040519061024261018083610316565b6040519061024261016083610316565b6040519061024260c083610316565b67ffffffffffffffff81116102f55760051b60200190565b9080601f8301121561001557813561039781610368565b926103a56040519485610316565b81845260208085019260051b82010192831161001557602001905b8282106103cd5750505090565b81358152602091820191016103c0565b6020600319820112610015576004359067ffffffffffffffff82116100155761040891600401610380565b90565b602060408183019282815284518094520192019060005b81811061042f5750505090565b909192602060c082610476600194885160a0809180518452602081015160208501526040810151604085015260608101516060850152608081015160808501520151910152565b019401929101610422565b346100155761048f366103dd565b805161049a81610368565b916104a86040519384610316565b818352601f196104b783610368565b0160005b81811061052157505060005b8281106104dc57604051806102bf868261040b565b806105056105006104ef60019486611e36565b51600052600d602052604060002090565b611de3565b61050f8287611e36565b5261051a8186611e36565b50016104c7565b60209061052c611db2565b828288010152016104bb565b634e487b7160e01b600052602160045260246000fd5b6003111561055857565b610538565b906105678261054e565b52565b6007111561055857565b9060078210156105585752565b60005b8381106105945750506000910152565b8181015183820152602001610584565b90601f19601f6020936105c281518092818752878088019101610581565b0116010190565b80516001600160a01b03168252906105e96020830151602083019061055d565b6105fb60408301516040830190610574565b61060d6060830151606083019061055d565b6101608061062c608085015161018060808601526101808501906105a4565b9360a081015160a085015260c081015160c085015260e081015160e0850152610100810151610100850152610120810151610120850152610140810151610140850152015191015290565b34610015576020600319360112610015576102bf6106a86106a260043561069c611e4a565b50611eb6565b50611fc6565b6040519182916020835260208301906105c9565b600435906001600160a01b038216820361001557565b602435906001600160a01b038216820361001557565b604435906001600160a01b038216820361001557565b606435906001600160a01b038216820361001557565b67ffffffffffffffff81116102f557601f01601f191660200190565b81601f820112156100155780359061074782610714565b926107556040519485610316565b8284526020838301011161001557816000926020809301838601378301015290565b6001600160a01b03166000526008602052604060002090565b906107a360209282815194859201610581565b0190565b6020906107c1928260405194838680955193849201610581565b82019081520301902090565b634e487b7160e01b600052603260045260246000fd5b9060028110156107f7576005020190600090565b6107cd565b34610015576060600319360112610015576108156106bc565b60243567ffffffffffffffff811161001557602061083a610866923690600401610730565b6001600160a01b036044359416600052600c825260406000208260405194838680955193849201610581565b82019081520301902090600281101561001557610882916107e3565b5080546102bf6001830154926003600282015491015490604051948594859094939260609260808301968352602083015260408201520152565b6003111561001557565b906020808351928381520192019060005b8181106108e45750505090565b82518452602093840193909201916001016108d7565b9060206104089281815201906108c6565b34610015576060600319360112610015576109246106bc565b60243567ffffffffffffffff81116100155760046109aa6102bf936109a461098c60206109576109b19736908801610730565b6001600160a01b036044359561096c876108bc565b16600052600c825260406000208260405194838680955193849201610581565b8201908152030190209161099f8161054e565b6120a5565b906107e3565b50016120bd565b604051918291826108fa565b346100155760e0600319360112610015576109d66106bc565b602435604435916064356109e9816108bc565b60843560a4359060c4359133600052600a602052610a0e60ff60406000205416612108565b600096610a1a87612153565b5091610a39876001600160a01b0316600052600c602052604060002090565b98610a8e610a86610a67610a51600288019d8e612172565b87546109a49060a01c60ff165b61099f8161054e565b5097610a7860038a0191825461220a565b90819055600189015461220a565b841115612217565b82158015610e7b575b15610d0a5750825460a01c60ff166004840191610ac08684549360038801549485928392613eec565b919092610ae4610ad86003546001600160a01b031690565b6001600160a01b031690565b91823b15610015576040517ff5a4bc660000000000000000000000000000000000000000000000000000000081526001600160a01b038d166004820152602481018e9052604481019290925260036064830152608482019890985260a481019790975260c4870183905260e4870182905286610104815a6000948591f1928315610d0557600496610b7d94610cea575b5054918a614092565b5050939094610bd7600585015494610bb18b610bac8c6001600160a01b03166000526009602052604060002090565b614119565b50750300000000000000000000000000000000000000000060ff60a81b19825416179055565b0194610be2866120bd565b9660005b8851811015610cce5789610bfa828b611e36565b5114610c0857600101610be6565b87989950610c32610c2282610c379495969798999a6122ff565b60001982549160031b1b19169055565b612317565b8851811015610c8d5780610c87610c5d610c536001948c6122ff565b90549060031b1c90565b610c6f610c69846121fb565b8c6122ff565b90919060001983549160031b92831b921b1916179055565b01610c37565b50610cb1949750610cab849699610ca66102bf99612332565b611f24565b90614241565b604051938493846040919493926060820195825260208201520152565b509091929550859397506102bf9650610cab610cb19599611f24565b80610cf96000610cff93610316565b80610f31565b38610b74565b612262565b94509582610d22819a959793945460ff9060a01c1690565b96610d3c85600484019960038b5495019484865492613eec565b9a9099610d54610ad86003546001600160a01b031690565b90813b15610e77576040517ff5a4bc660000000000000000000000000000000000000000000000000000000081526001600160a01b03871660048083019190915260248201859052604482018a90526064820152608481019490945260a484015260c483018b905260e483018c90528890839061010490829084905af18015610d0557610e5b9b6102bf9b610cab9b610cb19b610dfb968b95610e63575b50505493613fd2565b505099909a6005810192835493610e27610e20610e188a88612292565b8454906122a5565b809661220a565b9055610e3487825461220a565b9055750200000000000000000000000000000000000000000060ff60a81b19825416179055565b958694611f24565b610cf9610e709282610316565b3880610df2565b8980fd5b5060038401548314610a97565b3461001557604060031936011261001557610f2f610ea46106bc565b610f136001600160a01b0380610eb86106d2565b93610ec1614365565b169283600052600a6020526040600020600160ff19825416179055169182600052600a6020526040600020600160ff198254161790556001600160a01b03166001600160a01b03196003541617600355565b6001600160a01b03166001600160a01b03196004541617600455565b005b600091031261001557565b34610015576000600319360112610015576020600754604051908152f35b6006111561055857565b9060068210156105585752565b80516001600160a01b0316825290610f916020830151602083019061055d565b610fa360408301516040830190610f64565b610fb56060830151606083019061055d565b6080820151608082015261014080610fde60a085015161016060a08601526101608501906105a4565b9360c081015160c085015260e081015160e0850152610100810151610100850152610120810151610120850152015191015290565b9080602083519182815201916020808360051b8301019401926000915b83831061103f57505050505090565b909192939460208061105d83601f1986600196030187528951610f71565b97019301930191939290611030565b346100155761107a366103dd565b8051611085816123ca565b9160005b8281106110a657604051602080825281906102bf90820187611013565b806110c56110bf6110b960019486611e36565b51612153565b50612425565b6110cf8287611e36565b526110da8186611e36565b5001611089565b3461001557610140600319360112610015576110fb6106bc565b60243567ffffffffffffffff81116100155761111b903690600401610730565b9060443591611129836108bc565b60643592600884101561001557610f2f9360a43560843560c4359260e43594610104359661012435986124bf565b34610015576020600319360112610015576001600160a01b036111786106bc565b1660005260096020526102bf61119160406000206120bd565b6040519182916020835260208301906108c6565b34610015576020600319360112610015576001600160a01b036111c66106bc565b1660005260086020526102bf61119160406000206120bd565b34610015576000600319360112610015576111f8614365565b60006001600160a01b037f9016d09d72d40fdae2fd8ceac6b6234c7706214fd39c1cd1e609a0528c199300546001600160a01b031981167f9016d09d72d40fdae2fd8ceac6b6234c7706214fd39c1cd1e609a0528c19930055167f8be0079c531659141344cd1fd0a4f28419497f9722a3daafe3b4186f6b6457e08280a3005b3461001557602060031936011261001557600435600052600b60205260a060406000207fffffffff000000000000000000000000000000000000000000000000000000006001600160a01b03825416916001600160a01b036001820154169060028101546004600383015492015460e01b92604051958652602086015260408501526060840152166080820152f35b600319606091011261001557600435906024359060443590565b9080602083519182815201916020808360051b8301019401926000915b83831061134d57505050505090565b909192939460208061136b83601f19866001960301875289516105c9565b9701930193019193929061133e565b9392916113a390611395604093606088526060880190611321565b9086820360208801526108c6565b930152565b34610015576113b636611307565b819280926000916007548092116114cb575b81106114c3575b509291926113dc82612bfd565b916113e681612c4c565b945b848110806114ba575b1561149457600161140f61140483611eb6565b505460a81c60ff1690565b6114188161056a565b148015611476575b611433575b61142e90612c7d565b6113e8565b9161146e818461144661142e948a611e36565b526114536106a286611eb6565b61145d8288611e36565b526114688187611e36565b50612c7d565b929050611425565b50600261148561140483611eb6565b61148e8161056a565b14611420565b8593926102bf9281036114af575b506040519384938461137a565b8084528452846114a2565b508183106113f1565b9250386113cf565b90945084906113c8565b34610015576020600319360112610015576102bf6115006110bf6004356114fa612365565b50612153565b604051918291602083526020830190610f71565b346100155760006003193601126100155760206001600160a01b037f9016d09d72d40fdae2fd8ceac6b6234c7706214fd39c1cd1e609a0528c1993005416604051908152f35b346100155760a0600319360112610015576115736106bc565b6024359067ffffffffffffffff8211610015576115976115ca923690600401610730565b6044356115a3816108bc565b606435916084359333600052600a6020526115c560ff60406000205416612108565b612dda565b60408051928352901515602083015290f35b34610015576115ea366103dd565b80516115f581612bfd565b9160005b82811061161657604051602080825281906102bf90820187611321565b8061162f6106a261162960019486611e36565b51611eb6565b6116398287611e36565b526116448186611e36565b50016115f9565b34610015576060600319360112610015576024356004356007821015610015576001600160a01b03610f2f9261168060443590565b33600052600a60205261169a60ff60406000205416612108565b6116ae6116a685611eb6565b50928361300a565b42600883015580600683015580151580611752575b611732575b50541660005260086020526116e1816040600020614119565b506000908152600b6020526040902080546001600160a01b031916321781556004906001810180546001600160a01b031916331790554360038201550160003560e01c63ffffffff19825416179055565b600080808061174c94325af1611746613040565b50613070565b386116c8565b50804710156116c3565b34610015576000600319360112610015576020600654604051908152f35b346100155760006003193601126100155760206117956130bb565b604051908152f35b346100155760e06003193601126100155760043560056024356044356064356084359060a4359260c4359633600052600a6020526117e260ff60406000205416612108565b600052600d602052604060002094855560018501556002840155600383015560048201550155600080f35b8015150361001557565b61014435906102428261180d565b6101806003193601126100155761183a6106bc565b6024359067ffffffffffffffff82116100155761185e610f2f923690600401610730565b60443561186a816108bc565b606435611876816108bc565b60843560a43560c4359060e4359261010435946101243596611896611817565b98610164359a6130e9565b346100155760606003193601126100155760206117956004356118c26106d2565b604435916118cf8361180d565b33600052600a85526118e860ff60406000205416612108565b6137f2565b34610015576000600319360112610015576020600554604051908152f35b346100155760606003193601126100155760243560043567ffffffffffffffff8211610015573660238301121561001557816004013561194a81610368565b926119586040519485610316565b8184526024602085019260051b820101903682116100155760248101925b8284106119e157856044358667ffffffffffffffff8211610015576102bf926119a66119ac933690600401610380565b91613b22565b6040805195151586529315156020860152928401919091526001600160a01b03166060830152608082015290819060a0820190565b833567ffffffffffffffff811161001557602091611a06839260243691870101610730565b815201930192611976565b9392916113a390611395604093606088526060880190611013565b3461001557611a3a36611307565b81928092600091600654809211611b29575b8110611b21575b50929192611a60826123ca565b91611a6a81612c4c565b945b84811080611b18575b15611af2576001611a8861140483612153565b611a9181610f5a565b148015611ad4575b611aac575b611aa790612c7d565b611a6c565b91611acc8184611abf611aa7948a611e36565b526114536110bf86612153565b929050611a9e565b506002611ae361140483612153565b611aec81610f5a565b14611a99565b8593926102bf928103611b0d575b5060405193849384611a11565b808452845284611b00565b50818310611a75565b925038611a53565b9094508490611a4c565b3461001557602060031936011261001557610f2f611b4f6106bc565b611b57614365565b613d60565b3461001557608060031936011261001557611b756106bc565b611b7d6106d2565b90611b866106e8565b611b8e6106fe565b907ff0c57e16840df040f15088dc2f81fe391c3923bec73e23a9662efc9c229c6a00549367ffffffffffffffff611be1611bd3611bcf8860ff9060401c1690565b1590565b9667ffffffffffffffff1690565b1680159081611daa575b6001149081611da0575b159081611d97575b50611d6d57611c7e9385611c7560017fffffffffffffffffffffffffffffffffffffffffffffffff00000000000000007ff0c57e16840df040f15088dc2f81fe391c3923bec73e23a9662efc9c229c6a005416177ff0c57e16840df040f15088dc2f81fe391c3923bec73e23a9662efc9c229c6a0055565b611d0857613e1f565b611c8457005b611cd968ff0000000000000000197ff0c57e16840df040f15088dc2f81fe391c3923bec73e23a9662efc9c229c6a0054167ff0c57e16840df040f15088dc2f81fe391c3923bec73e23a9662efc9c229c6a0055565b604051600181527fc7f505b2f371ae2175ee4913f4499e1f2633a7b5936321eed1cdaeb6115181d290602090a1005b611d686801000000000000000068ff0000000000000000197ff0c57e16840df040f15088dc2f81fe391c3923bec73e23a9662efc9c229c6a005416177ff0c57e16840df040f15088dc2f81fe391c3923bec73e23a9662efc9c229c6a0055565b613e1f565b7ff92ee8a90000000000000000000000000000000000000000000000000000000060005260046000fd5b90501538611bfd565b303b159150611bf5565b869150611beb565b60405190611dbf826102d9565b600060a0838281528260208201528260408201528260608201528260808201520152565b90604051611df0816102d9565b60a06005829480548452600181015460208501526002810154604085015260038101546060850152600481015460808501520154910152565b8051156107f75760200190565b80518210156107f75760209160051b010190565b60405190610180820182811067ffffffffffffffff8211176102f557604052600061016083828152826020820152826040820152826060820152606060808201528260a08201528260c08201528260e08201528261010082015282610120820152826101408201520152565b6007548110156107f75760076000526009602060002091020190600090565b6105678261054e565b60078210156105585752565b90600182811c92168015611f1a575b6020831014611f0457565b634e487b7160e01b600052602260045260246000fd5b91607f1691611ef9565b9060405191826000825492611f3884611eea565b8084529360018116908115611fa45750600114611f5d575b5061024292500383610316565b90506000929192526020600020906000915b818310611f885750509060206102429282010138611f50565b6020919350806001915483858901015201910190918492611f6f565b6020935061024295925060ff1991501682840152151560051b82010138611f50565b906008611fd1610339565b9261203561202c8254611ffa611fed826001600160a01b031690565b6001600160a01b03168852565b61200f60a082901c60ff165b60208901611ed5565b61202360a882901c60ff1660408901611ede565b60b01c60ff1690565b60608601611ed5565b61204160018201611f24565b6080850152600281015460a0850152600381015460c0850152600481015460e08501526005810154610100850152600681015461012085015260078101546101408501520154610160830152565b634e487b7160e01b600052601160045260246000fd5b60ff6000199116019060ff82116120b857565b61208f565b906040519182815491828252602082019060005260206000209260005b8181106120ef57505061024292500383610316565b84548352600194850194879450602090930192016120da565b1561210f57565b606460405162461bcd60e51b815260206004820152601f60248201527f63616c6c6572206973206e6f74206f7264657220626f6f6b206b6565706572006044820152fd5b6006548110156107f757600660005260206000209060031b0190600090565b90604051809260009080549061218782611eea565b91600181169081156121e357506001146121aa575b505060209281520301902090565b90915060005260206000206000905b8282106121cc575050810160203861219c565b8054828701528593506020909101906001016121b9565b60ff191685525050801515028201905060203861219c565b9060001982019182116120b857565b919082039182116120b857565b1561221e57565b606460405162461bcd60e51b815260206004820152601d60248201527f617661696c61626c6520616d6f756e7420696e73756666696369656e740000006044820152fd5b6040513d6000823e3d90fd5b90670de0b6b3a7640000820291808304670de0b6b3a764000014901517156120b857565b818102929181159184041417156120b857565b81156122af570490565b634e487b7160e01b600052601260045260246000fd5b90600681101561055857815460ff60a81b191660a89190911b75ff00000000000000000000000000000000000000000016179055565b9055565b80548210156107f75760005260206000200190600090565b90600182018092116120b857565b919082018092116120b857565b8054801561234f57600019019061234c610c2283836122ff565b55565b634e487b7160e01b600052603160045260246000fd5b60405190610160820182811067ffffffffffffffff8211176102f557604052600061014083828152826020820152826040820152826060820152826080820152606060a08201528260c08201528260e082015282610100820152826101208201520152565b906123d482610368565b6123e16040519182610316565b828152601f196123f18294610368565b019060005b82811061240257505050565b60209061240d612365565b828285010152016123f6565b60068210156105585752565b906007612430610349565b9261247061202c825461244c611fed826001600160a01b031690565b61245c60a082901c60ff16612006565b61202360a882901c60ff1660408901612419565b6001810154608085015261248660028201611f24565b60a0850152600381015460c0850152600481015460e0850152600581015461010085015260068101546101208501520154610140830152565b948695999897929193949933600052600a60205260406000205460ff166124e590612108565b6001546001600160a01b03166001600160a01b03168b60065487868d6040519c8d9586957f8e3a0e92000000000000000000000000000000000000000000000000000000008752600487019561253a96612788565b03815a604094600091f1918215610d05576125608c938b99600091612739575b506127c5565b61256e9085848689866142e3565b6125778361054e565b612580836120a5565b87600654906125909288856143fb565b6125ad816001600160a01b03166000526009602052604060002090565b6006546125b991614607565b506001600160a01b0316938493600554906125d2610349565b6001600160a01b0387168152916125ec8660208501611ed5565b600160408401526001606084015260808301528260a08301528360c08301528860e0830152610100820152886101208201524261014082015261262e90612ac1565b6000546001600160a01b0316809a896005549b8c958a6040519889984297612656998b612b33565b037f3174923aee4fc7c29de893ec1a82807b9f70eea78b57219cce0e76a78350dd4791a260408051600381526020810186905242918101919091526001600160a01b03871691907ffe1040c72b0fa917ba66cc39f1adcb8ea8a3d05c3848f202db07ddb406f7c96090606090a36001906126cf81612b1c565b6002149561272b957fc136432a1484e156abdd300674f3ca1991800b1936e60da2b47c69dda822f75a9461024298612730575b6127239293946127136006546121fb565b946040519687968a429689612ba4565b0390a1612317565b600555565b60029350612702565b61275b915060403d604011612762575b6127538183610316565b810190612769565b503861255a565b503d612749565b919082604091031261001557602082516127828161180d565b92015190565b926127a360a09592989796939860c0865260c08601906105a4565b9760208501526040840152606083015260808201526127c18361054e565b0152565b156127cc57565b606460405162461bcd60e51b815260206004820152601760248201527f6c6971756964697479206973206e6f7420656e6f7567680000000000000000006044820152fd5b634e487b7160e01b600052600060045260246000fd5b906128308161054e565b7fffffffffffffffffffffff00ffffffffffffffffffffffffffffffffffffffff74ff000000000000000000000000000000000000000083549260a01b169116179055565b9061287f8161054e565b7fffffffffffffffffff00ffffffffffffffffffffffffffffffffffffffffffff76ff0000000000000000000000000000000000000000000083549260b01b169116179055565b8181106128d1575050565b600081556001016128c6565b9190601f81116128ec57505050565b610242926000526020600020906020601f840160051c83019310612918575b601f0160051c01906128c6565b909150819061290b565b919091825167ffffffffffffffff81116102f55761294a816129448454611eea565b846128dd565b6020601f82116001146129865781906122fb93949560009261297b575b50506000198260011b9260031b1c19161790565b015190503880612967565b601f1982169061299b84600052602060002090565b9160005b8181106129d7575095836001959697106129be575b505050811b019055565b015160001960f88460031b161c191690553880806129b4565b9192602060018192868b01518155019401920161299f565b9190612abc5761014081612a2b612a0f600794516001600160a01b031690565b85906001600160a01b03166001600160a01b0319825416179055565b612a426020820151612a3c8161054e565b85612826565b612a596040820151612a5381610f5a565b856122c5565b612a706060820151612a6a8161054e565b85612875565b60808101516001850155612a8b60a082015160028601612922565b60c0810151600385015560e08101516004850155610100810151600585015561012081015160068501550151910155565b612810565b60065490680100000000000000008210156102f557600182016006556006548210156107f757600660009081526102429260031b7ff652222313e28459528d920b65115c16c04f3efc82aaedc97be59f3f377c0d3f016129ef565b6008111561055857565b9060088210156105585752565b9693612b83929b9a9996936001600160a01b03612b5f6101409b98946101608c526101608c01906105a4565b9d1660208a01526040890152612b748161054e565b60608801526080870190612b26565b60a0850152600060c085015260e08401526101008301526101208201520152565b949198979693959290986001600160a01b0361014087019a16865260208601526040850152600585101561055857610120946060850152608084015260a083015260c0820152600060e082015260006101008201520152565b90612c0782610368565b612c146040519182610316565b828152601f19612c248294610368565b019060005b828110612c3557505050565b602090612c40611e4a565b82828501015201612c29565b90612c5682610368565b612c636040519182610316565b828152601f19612c738294610368565b0190602036910137565b60001981146120b85760010190565b90604051612c99816102fa565b6080612cca6004839580548552600181015460208601526002810154604086015260038101546060860152016120bd565b910152565b919082604091031261001557602082519201516104088161180d565b91612d13906001600160a01b036080959897969316845260a0602085015260a08401906105a4565b95612d1d8161054e565b604083015260608201520152565b90612abc57600460809183518155602084015160018201556040840151600282015560608401516003820155019101519081519167ffffffffffffffff83116102f5576801000000000000000083116102f5576020908254848455808510612dbd575b500190600052602060002060005b838110612da95750505050565b600190602084519401938184015501612d9c565b612dd49084600052858460002091820191016128c6565b38612d8e565b94929394919091612e25612e1f612e0d612e07846001600160a01b0316600052600c602052604060002090565b866107a7565b612e168561054e565b6109a4856120a5565b50612c8c565b6020810195865115612fff57612e889697604091612e4e610ad86003546001600160a01b031690565b9060008451809b819582947f9324b5490000000000000000000000000000000000000000000000000000000084528b8d8c60048701612ceb565b03925af1968715610d0557600096600098612fc8575b50879697612eae575b5050505050565b6000908183999497969895995252600060408201526000606082015260009660808201975b88518051821015612f1d5790612f17612ef16110b983600195611e36565b50750400000000000000000000000000000000000000000060ff60a81b19825416179055565b01612ed3565b50506109a4612f58612f62939496986060612f6897999b52612f528b6001600160a01b0316600052600c602052604060002090565b906107a7565b9161099f8161054e565b90612d2b565b612f8d612f88856001600160a01b03166000526008602052604060002090565b6120bd565b9160005b8351811015612fb85780612fb187612fab60019488611e36565b5161365c565b5001612f91565b5092915092503880808080612ea7565b909750612fee91965060403d604011612ff8575b612fe68183610316565b810190612ccf565b9590959638612e9e565b503d612fdc565b506000955050505050565b90600781101561055857815460ff60a81b191660a89190911b75ff00000000000000000000000000000000000000000016179055565b3d1561306b573d9061305182610714565b9161305f6040519384610316565b82523d6000602084013e565b606090565b1561307757565b606460405162461bcd60e51b815260206004820152600f60248201527f7472616e73666572206661696c656400000000000000000000000000000000006044820152fd5b33600052600a6020526130d560ff60406000205416612108565b600554600181018082116120b85760055590565b9887859c848897878d8f97878e9f9e99829e9a9c9b9c33600052600a60205260406000205460ff1661311a90612108565b88994360075461313490600052600b602052604060002090565b600201556000546001600160a01b031695600754936001600160a01b03169d8e99604051996001600160a01b038b9a169c42976131719a8c613494565b037f052d8cb39abc1bd624ecd7027fd1b94ded9c7704f379055adcbab77044ec255b91a3159c61333b9c61334c9e61348c575b1561338557906132239392916131ca6131bb610339565b6001600160a01b039095168552565b6131d78760208601611ed5565b600160408501526131eb8660608601611ed5565b88608085015260a08401528660c0840152600060e08401526000610100840152610120830152426101408301526101608201526135b6565b61322c8161054e565b6001810361334f575050505061331f7f68cbb1c862d9d961359025e53792aa8be48fcf01d4712cf5dfd194d2a184a769936132e3613268610359565b6001815285602082015284604082015260006060820152826080820152600060a08201526132aa61329a6007546121fb565b600052600d602052604060002090565b9060a060059180518455602081015160018501556040810151600285015560608101516003850155608081015160048501550151910155565b6132ee6007546121fb565b926040519485948590949360009360a09360c084019784526020840152604083015283606083015260808201520152565b0390a16001600160a01b03166000526008602052604060002090565b6133466007546121fb565b90614607565b50565b8061335f6002929897959861054e565b14613370575b505050505050610777565b61337a9587614750565b388080808080613365565b996002979850613404959991929394966133af6133a0610339565b6001600160a01b039097168752565b6133bc8b60208801611ed5565b600160408701526133d08860608801611ed5565b8960808701528b60a087015260c086015260e0850152610100840152610120830152426101408301526101608201526135b6565b61340d8161054e565b1461342f575b5050506001600160a01b03166000526008602052604060002090565b613482916109a4612f5861345a93612f52886001600160a01b0316600052600c602052604060002090565b50916003600184015493019261347d6134758554809361220a565b831115613611565b612325565b9055388080613413565b3492506131a4565b9794919b9a999693989592906134b4906101808a526101808a01906105a4565b9b60208901526134c38161054e565b604088015261016097600160608901526134dc8161054e565b608088015260a087015260c086015260e08501526101008401526101208301526101408201520152565b9190612abc5761016081613526612a0f600894516001600160a01b031690565b6135376020820151612a3c8161054e565b61354e60408201516135488161056a565b8561300a565b61355f6060820151612a6a8161054e565b613570608082015160018601612922565b60a0810151600285015560c0810151600385015560e081015160048501556101008101516005850155610120810151600685015561014081015160078501550151910155565b60075490680100000000000000008210156102f557600182016007556007548210156107f75760076000908152610242926009027fa66cc928b5edb82af9bd49922954155ab7b0942694bea4ce44661d9a8736c68801613506565b1561361857565b606460405162461bcd60e51b815260206004820152601960248201527f6c696d697420636c6f736520616d6f756e7420657863656564000000000000006044820152fd5b6104089160019133600052600a6020526118e860ff60406000205416612108565b1561368457565b606460405162461bcd60e51b815260206004820152601860248201527f57726f6e6720737461746520696e2063616e63656c696e6700000000000000006044820152fd5b156136cf57565b606460405162461bcd60e51b815260206004820152600a60248201527f4e6f7420686f6c646572000000000000000000000000000000000000000000006044820152fd5b949592906137396001600160a01b03919a999895939a61016088526101608801906105a4565b99166020860152604085015261374e8161054e565b6060840152610140936007608085015260a0840152600060c084015260e083015260006101008301526101208201520152565b1561378857565b608460405162461bcd60e51b815260206004820152602260248201527f63616e63656c20616d6f756e74206973206772656174207468616e206672656560448201527f7a650000000000000000000000000000000000000000000000000000000000006064820152fd5b6138c792916138036106a283611eb6565b908315613a975750604081016001815161381c8161056a565b6138258161056a565b148015613a7a575b613a69575b505b6138478161384184611eb6565b90613506565b61012081015180151580613a5f575b613a32575b5080516001600160a01b03169260808201928351947f3174923aee4fc7c29de893ec1a82807b9f70eea78b57219cce0e76a78350dd476001600160a01b036138ab6000546001600160a01b031690565b926138e56138b76130bb565b998660208a019b8c519d8e61054e565b60a08b019d8e519060c08d015192604051988998169a429689613713565b0390a261390081610bac61077786516001600160a01b031690565b50613955816000908152600b6020526040902080546001600160a01b031916321781556004906001810180546001600160a01b031916331790554360038201550160003560e01c63ffffffff19825416179055565b8115613a12575b50613a0957600260608201516139718161054e565b61397a8161054e565b036139f057916109a46139c16139cc936139ba6139a16139e997516001600160a01b031690565b6001600160a01b0316600052600c602052604060002090565b90516107a7565b9151610a5e8161054e565b50600383519101926139e2845480931115613781565b519061220a565b9055600090565b915050610408915061010060e082015191015190612325565b50505050600090565b60019150613a2a90600052600d602052604060002090565b54143861395c565b6000808080613a5994613a4f610ad888516001600160a01b031690565b5af1611746613040565b3861385b565b5080471015613856565b600490524261016082015238613832565b5060028151613a888161056a565b613a918161056a565b1461382d565b613af490613aee604084019160018351613ab08161056a565b613ab98161056a565b148015613b00575b613aca9061367d565b6001600160a01b0380613ae487516001600160a01b031690565b92169116146136c8565b60049052565b42610160820152613834565b50613aca60028451613b118161056a565b613b1a8161056a565b149050613ac1565b9092919233600052600a602052613b4060ff60406000205416612108565b613b4c6110bf83612153565b9260009460009260a08601935b8151811015613d2d57613b6c8183611e36565b51604051613b9081613b82602082018095610790565b03601f198101835282610316565b5190208551604051613baa81613b82602082018095610790565b51902014613bba57600101613b59565b905060009650613bc991611e36565b51915b613be0610ad886516001600160a01b031690565b936101008601916060613c48845196613c04610ad86003546001600160a01b031690565b906040519b8c809481937f016f4dcb000000000000000000000000000000000000000000000000000000008352896004840160209093929193604081019481520152565b03925af1968715610d0557600093600099600099613cf0575b5084613c73575b505050509493929190565b613c9682613c90613ce796613c8b6040840160059052565b612153565b906129ef565b81516001600160a01b03169251602083015190613cb28261054e565b6001600160a01b03613ce0613cd260e060c0880151965197015186612292565b670de0b6b3a7640000900490565b951661434a565b38808080613c68565b9194509750613d1891985060603d606011613d26575b613d108183610316565b810190613d39565b909890979193909184613c61565b503d613d06565b50505060009491613bcc565b90816060910312610015578051613d4f8161180d565b91604060208301516127828161180d565b6001600160a01b03168015613df0576001600160a01b037f9016d09d72d40fdae2fd8ceac6b6234c7706214fd39c1cd1e609a0528c19930054826001600160a01b03198216177f9016d09d72d40fdae2fd8ceac6b6234c7706214fd39c1cd1e609a0528c19930055167f8be0079c531659141344cd1fd0a4f28419497f9722a3daafe3b4186f6b6457e0600080a3565b7f1e4fbdf700000000000000000000000000000000000000000000000000000000600052600060045260246000fd5b6001600160a01b03939284613eb893613e4e613eab94613e3d614962565b613e45614962565b611b4f33613d60565b16806001600160a01b03196001541617600155600052600a602052613e7e6040600020600160ff19825416179055565b8481166001600160a01b031960025416176002556001600160a01b0316600052600a602052604060002090565b600160ff19825416179055565b613ed8613eab306001600160a01b0316600052600a602052604060002090565b166001600160a01b03196000541617600055565b60409360a4929396956001600160a01b036003541691865198899687957fca6ec372000000000000000000000000000000000000000000000000000000008752613f358161054e565b600487015260248601526044850152606484015260848301525afa918215610d05576000908193613f6557509190565b9092506040813d604011613f99575b81613f8160409383610316565b81010312613f955760209080519350015190565b8280fd5b3d9150613f74565b91908260809103126100155781519160208101519160606040830151613fc68161180d565b9201516104088161180d565b600060809460e49394966001600160a01b03600154169160405198899788967ff26a3e1d000000000000000000000000000000000000000000000000000000008852600488015285602488015260448701526064860152608485015260a4840152600160c48401525af18015610d055760009260009360009360009361405a575b5093929190565b9250509250614081915060803d60801161408b575b6140798183610316565b810190613fa1565b9193909238614053565b503d61406f565b60e4906000608094956001600160a01b03600154169060405197889687957ff26a3e1d00000000000000000000000000000000000000000000000000000000875260048701528460248701526044860152606485015282608485015260a4840152600160c48401525af18015610d055760009260009360009360009361405a575093929190565b906001820190614140611bcf614139838590600052602052604060002090565b5460ff1690565b6141ee5782549060005b82811061415b575050505050600090565b81614169610c5383886122ff565b146141765760010161414a565b9492909193945b614186856121fb565b8110156141bd576001816141b56141ab610c536141a561418696612317565b8b6122ff565b610c6f838b6122ff565b01905061417d565b506141e993506141d06141df9395612332565b90600052602052604060002090565b60ff198154169055565b600190565b505050600090565b156141fd57565b606460405162461bcd60e51b815260206004820152601160248201527f496e76616c696420646972656374696f6e0000000000000000000000000000006044820152fd5b92916109a4612f5861427093612f5260009761425c8661054e565b6001861480156142d0575b6139a1906141f6565b5090815492831560001461428d5760029350825560018201550155565b50906142998284612292565b6142a960018301918254906122a5565b84039384116120b8576142c56002936122fb958455825461220a565b90550191825461220a565b506142da8661054e565b60028614614267565b612f586142ff9392612f526109a4939896979861425c8661054e565b509081541560001461431a5791600292825560018201550155565b9080549182018092116120b8576122fb92600292825561433f60018301918254612325565b905501918254612325565b612f586142709392612f526109a49398979861425c8661054e565b6001600160a01b037f9016d09d72d40fdae2fd8ceac6b6234c7706214fd39c1cd1e609a0528c1993005416330361439857565b7f118cdaa7000000000000000000000000000000000000000000000000000000006000523360045260246000fd5b90815491680100000000000000008310156102f55782610c6f916001610242950181556122ff565b80156120b8576000190190565b9161442661442b92612f52600495989697986001600160a01b0316600052600c602052604060002090565b6107e3565b500192835461443981612c4c565b9060005b8181106145955750156145885760005b8151811080614575575b1561446a5761446590612c7d565b61444d565b9192935050835481148061455c575b61452c5780151580614543575b61452c578354811080614515575b614507576144b76144b1610c536144ab87546121fb565b876122ff565b856143c6565b6144c184546121fb565b8181116144d75750610c6f9061024293946122ff565b806144fd6144f3610c536144ed614502956121fb565b896122ff565b610c6f83896122ff565b6143ee565b6144c1565b610c6f9061024293946122ff565b50600019614526610c5383876122ff565b14614494565b610242929361453d610c6f926121fb565b906122ff565b50600019614556610c536144ab846121fb565b14614486565b5060001961456f610c536144ab846121fb565b14614479565b506145808183611e36565b518511614457565b50909261024292506143c6565b806000196145a8610c536001948b6122ff565b146145d45760046145bf613c8b610c53848c6122ff565b5001546145cc8286611e36565b525b0161443d565b806145ea5760006145e485611e29565b526145ce565b6145fc6145f6826121fb565b85611e36565b516145e48286611e36565b919060018301816000528060205260ff604060002054166146cf57600084545b80821061468d575061463983866143c6565b61464385546121fb565b8181116146625750906141d083610c6f613eab95946141e997986122ff565b806144fd61467e610c53614678614688956121fb565b8a6122ff565b610c6f838a6122ff565b614643565b908181018082116120b85760011c90846146a783896122ff565b90549060031b1c106000146146c85750600181018091116120b85790614627565b9150614627565b506000925050565b604051906146e4826102fa565b60606080836000815260006020820152600060408201526000838201520152565b1561470c57565b606460405162461bcd60e51b815260206004820152601560248201527f706f736974696f6e2073697a65206973207a65726f00000000000000000000006044820152fd5b612e1f6147a57f68cbb1c862d9d961359025e53792aa8be48fcf01d4712cf5dfd194d2a184a7699895979493612f526147b79461478b6146d7565b506001600160a01b0316600052600c602052604060002090565b6147ae8461054e565b6109a4846120a5565b90602082016147c881511515614705565b8615928315938461495a575b614861575b505050509061485c9161481e6147ed610359565b60018152600060208201528660408201528560608201528260808201528360a08201526132aa61329a6007546121fb565b6148296007546121fb565b9360405195869586919260a093969594919660c08401978452600060208501526040840152606083015260808201520152565b0390a1565b9061486f614877925161226e565b9051906122a5565b918061491b575b1561489b57505050509061485c60009283925b90913880806147d9565b82151591826148c2575b50506148b6575b9061485c91614891565b925090506000806148ac565b9091506148ce8261054e565b600182149182614911575b82156148e9575b505038806148a5565b60029192506148f78161054e565b149081614907575b5038806148e0565b90508110386148ff565b81841192506148d9565b506149258161054e565b6001811480614951575b8061487e575061493e8161054e565b60028114801561487e575081861161487e565b5081861061492f565b5084156147d4565b60ff7ff0c57e16840df040f15088dc2f81fe391c3923bec73e23a9662efc9c229c6a005460401c161561499157565b7fd7e6bcf80000000000000000000000000000000000000000000000000000000060005260046000fdfea26469706673582212201fa65b8fae313ddd3d70ebac8184f326560bc564960072785a0d3e1d4482a7b464736f6c634300081c0033",
  "linkReferences": {},
  "deployedLinkReferences": {}
}