{
  "_format": "hh-sol-artifact-1",
  "contractName": "OrderBook",
  "sourceName": "contracts/OrderBook.sol",
  "abi": [
    {
      "inputs": [],
      "name": "InvalidInitialization",
      "type": "error"
    },
    {
      "inputs": [],
      "name": "NotInitializing",
      "type": "error"
    },
    {
      "inputs": [
        {
          "internalType": "address",
          "name": "owner",
          "type": "address"
        }
      ],
      "name": "OwnableInvalidOwner",
      "type": "error"
    },
    {
      "inputs": [
        {
          "internalType": "address",
          "name": "account",
          "type": "address"
        }
      ],
      "name": "OwnableUnauthorizedAccount",
      "type": "error"
    },
    {
      "anonymous": false,
      "inputs": [
        {
          "indexed": false,
          "internalType": "address",
          "name": "taker",
          "type": "address"
        },
        {
          "indexed": false,
          "internalType": "uint256",
          "name": "amount",
          "type": "uint256"
        },
        {
          "indexed": false,
          "internalType": "uint256",
          "name": "availableAmount",
          "type": "uint256"
        },
        {
          "indexed": false,
          "internalType": "uint256",
          "name": "marginAmount",
          "type": "uint256"
        },
        {
          "indexed": false,
          "internalType": "uint256",
          "name": "locked",
          "type": "uint256"
        },
        {
          "indexed": false,
          "internalType": "uint256",
          "name": "stage",
          "type": "uint256"
        },
        {
          "indexed": false,
          "internalType": "uint256",
          "name": "dif",
          "type": "uint256"
        }
      ],
      "name": "BalanceOfTaker",
      "type": "event"
    },
    {
      "anonymous": false,
      "inputs": [
        {
          "indexed": false,
          "internalType": "string",
          "name": "name",
          "type": "string"
        },
        {
          "indexed": true,
          "internalType": "address",
          "name": "taker",
          "type": "address"
        },
        {
          "indexed": false,
          "internalType": "uint256",
          "name": "orderID",
          "type": "uint256"
        },
        {
          "indexed": false,
          "internalType": "enum ICommon.Direct",
          "name": "orderType",
          "type": "uint8"
        },
        {
          "indexed": false,
          "internalType": "enum IPerpetual.OrderState",
          "name": "state",
          "type": "uint8"
        },
        {
          "indexed": false,
          "internalType": "enum ICommon.Offset",
          "name": "offset",
          "type": "uint8"
        },
        {
          "indexed": false,
          "internalType": "uint256",
          "name": "amount",
          "type": "uint256"
        },
        {
          "indexed": false,
          "internalType": "uint256",
          "name": "targetPrice",
          "type": "uint256"
        },
        {
          "indexed": false,
          "internalType": "uint256",
          "name": "margin",
          "type": "uint256"
        },
        {
          "indexed": false,
          "internalType": "uint256",
          "name": "extraFee",
          "type": "uint256"
        },
        {
          "indexed": false,
          "internalType": "uint256",
          "name": "tradingFee",
          "type": "uint256"
        },
        {
          "indexed": false,
          "internalType": "uint256",
          "name": "goodTill",
          "type": "uint256"
        }
      ],
      "name": "CreateLimitedOrder",
      "type": "event"
    },
    {
      "anonymous": false,
      "inputs": [
        {
          "indexed": false,
          "internalType": "uint256",
          "name": "limitOrderID",
          "type": "uint256"
        },
        {
          "indexed": false,
          "internalType": "uint256",
          "name": "openLimitPrice",
          "type": "uint256"
        },
        {
          "indexed": false,
          "internalType": "uint256",
          "name": "gainTriggerPrice",
          "type": "uint256"
        },
        {
          "indexed": false,
          "internalType": "uint256",
          "name": "gainLimitPrice",
          "type": "uint256"
        },
        {
          "indexed": false,
          "internalType": "uint256",
          "name": "lossTriggerPrice",
          "type": "uint256"
        },
        {
          "indexed": false,
          "internalType": "uint256",
          "name": "lossLimitPrice",
          "type": "uint256"
        }
      ],
      "name": "CreateTriggerCondition",
      "type": "event"
    },
    {
      "anonymous": false,
      "inputs": [
        {
          "indexed": false,
          "internalType": "uint256",
          "name": "code",
          "type": "uint256"
        },
        {
          "indexed": false,
          "internalType": "uint256",
          "name": "orderID",
          "type": "uint256"
        },
        {
          "indexed": false,
          "internalType": "string",
          "name": "message",
          "type": "string"
        }
      ],
      "name": "ErrorInfo",
      "type": "event"
    },
    {
      "anonymous": false,
      "inputs": [
        {
          "indexed": false,
          "internalType": "uint256",
          "name": "code",
          "type": "uint256"
        },
        {
          "indexed": false,
          "internalType": "uint256",
          "name": "orderID",
          "type": "uint256"
        },
        {
          "indexed": false,
          "internalType": "bytes",
          "name": "message",
          "type": "bytes"
        }
      ],
      "name": "ExceptErrorInfo",
      "type": "event"
    },
    {
      "anonymous": false,
      "inputs": [
        {
          "indexed": false,
          "internalType": "uint64",
          "name": "version",
          "type": "uint64"
        }
      ],
      "name": "Initialized",
      "type": "event"
    },
    {
      "anonymous": false,
      "inputs": [
        {
          "indexed": true,
          "internalType": "address",
          "name": "taker",
          "type": "address"
        },
        {
          "indexed": false,
          "internalType": "string",
          "name": "name",
          "type": "string"
        },
        {
          "indexed": false,
          "internalType": "uint256",
          "name": "orderID",
          "type": "uint256"
        },
        {
          "indexed": false,
          "internalType": "enum ICommon.Direct",
          "name": "direction",
          "type": "uint8"
        },
        {
          "indexed": false,
          "internalType": "enum IPerpetual.OrderType",
          "name": "orderType",
          "type": "uint8"
        },
        {
          "indexed": false,
          "internalType": "uint256",
          "name": "amount",
          "type": "uint256"
        },
        {
          "indexed": false,
          "internalType": "uint256",
          "name": "costPrice",
          "type": "uint256"
        },
        {
          "indexed": false,
          "internalType": "uint256",
          "name": "price",
          "type": "uint256"
        },
        {
          "indexed": false,
          "internalType": "uint256",
          "name": "tradingFee",
          "type": "uint256"
        },
        {
          "indexed": false,
          "internalType": "uint256",
          "name": "limitOrderId",
          "type": "uint256"
        },
        {
          "indexed": false,
          "internalType": "uint256",
          "name": "timestamp",
          "type": "uint256"
        }
      ],
      "name": "OrderHistory",
      "type": "event"
    },
    {
      "anonymous": false,
      "inputs": [
        {
          "indexed": true,
          "internalType": "address",
          "name": "previousOwner",
          "type": "address"
        },
        {
          "indexed": true,
          "internalType": "address",
          "name": "newOwner",
          "type": "address"
        }
      ],
      "name": "OwnershipTransferred",
      "type": "event"
    },
    {
      "anonymous": false,
      "inputs": [
        {
          "indexed": false,
          "internalType": "address",
          "name": "",
          "type": "address"
        },
        {
          "indexed": false,
          "internalType": "bool",
          "name": "",
          "type": "bool"
        }
      ],
      "name": "SetKeeper",
      "type": "event"
    },
    {
      "anonymous": false,
      "inputs": [
        {
          "indexed": false,
          "internalType": "uint256",
          "name": "orderID",
          "type": "uint256"
        },
        {
          "indexed": false,
          "internalType": "uint256",
          "name": "dealID",
          "type": "uint256"
        },
        {
          "indexed": false,
          "internalType": "enum IPerpetual.TradeType",
          "name": "tradeType",
          "type": "uint8"
        },
        {
          "indexed": false,
          "internalType": "uint256",
          "name": "amount",
          "type": "uint256"
        },
        {
          "indexed": false,
          "internalType": "uint256",
          "name": "price",
          "type": "uint256"
        },
        {
          "indexed": false,
          "internalType": "uint256",
          "name": "tradingFee",
          "type": "uint256"
        },
        {
          "indexed": false,
          "internalType": "uint256",
          "name": "profit",
          "type": "uint256"
        },
        {
          "indexed": false,
          "internalType": "uint256",
          "name": "loss",
          "type": "uint256"
        },
        {
          "indexed": false,
          "internalType": "uint256",
          "name": "timestamp",
          "type": "uint256"
        }
      ],
      "name": "TradeHistory",
      "type": "event"
    },
    {
      "anonymous": false,
      "inputs": [
        {
          "indexed": true,
          "internalType": "address",
          "name": "taker",
          "type": "address"
        },
        {
          "indexed": false,
          "internalType": "enum ICommon.TransactionType",
          "name": "transactionType",
          "type": "uint8"
        },
        {
          "indexed": false,
          "internalType": "uint256",
          "name": "amount",
          "type": "uint256"
        },
        {
          "indexed": false,
          "internalType": "uint256",
          "name": "timestamp",
          "type": "uint256"
        }
      ],
      "name": "TransactionHistory",
      "type": "event"
    },
    {
      "anonymous": false,
      "inputs": [
        {
          "indexed": false,
          "internalType": "address",
          "name": "sender",
          "type": "address"
        },
        {
          "indexed": false,
          "internalType": "address",
          "name": "received",
          "type": "address"
        },
        {
          "indexed": false,
          "internalType": "enum ICommon.TransactionType",
          "name": "transactionType",
          "type": "uint8"
        },
        {
          "indexed": false,
          "internalType": "uint256",
          "name": "amount",
          "type": "uint256"
        },
        {
          "indexed": false,
          "internalType": "uint256",
          "name": "timestamp",
          "type": "uint256"
        }
      ],
      "name": "TransferFee",
      "type": "event"
    },
    {
      "anonymous": false,
      "inputs": [
        {
          "indexed": false,
          "internalType": "uint8",
          "name": "direct",
          "type": "uint8"
        },
        {
          "indexed": false,
          "internalType": "uint256",
          "name": "price",
          "type": "uint256"
        },
        {
          "indexed": false,
          "internalType": "uint256",
          "name": "value",
          "type": "uint256"
        }
      ],
      "name": "indexPosition",
      "type": "event"
    },
    {
      "stateMutability": "nonpayable",
      "type": "fallback"
    },
    {
      "inputs": [
        {
          "internalType": "uint256",
          "name": "_oid",
          "type": "uint256"
        },
        {
          "internalType": "address",
          "name": "_holder",
          "type": "address"
        },
        {
          "internalType": "bool",
          "name": "liquidated",
          "type": "bool"
        }
      ],
      "name": "cancelOrder",
      "outputs": [
        {
          "internalType": "uint256",
          "name": "lockedAmount",
          "type": "uint256"
        }
      ],
      "stateMutability": "nonpayable",
      "type": "function"
    },
    {
      "inputs": [
        {
          "internalType": "address",
          "name": "_taker",
          "type": "address"
        },
        {
          "internalType": "string",
          "name": "_pair",
          "type": "string"
        },
        {
          "internalType": "enum ICommon.Direct",
          "name": "_type",
          "type": "uint8"
        },
        {
          "internalType": "uint256",
          "name": "_currentPrice",
          "type": "uint256"
        },
        {
          "internalType": "uint256",
          "name": "_deposit",
          "type": "uint256"
        }
      ],
      "name": "clearingTakerPosition",
      "outputs": [
        {
          "internalType": "uint256",
          "name": "deposit",
          "type": "uint256"
        },
        {
          "internalType": "bool",
          "name": "forced",
          "type": "bool"
        }
      ],
      "stateMutability": "nonpayable",
      "type": "function"
    },
    {
      "inputs": [
        {
          "internalType": "address",
          "name": "_taker",
          "type": "address"
        },
        {
          "internalType": "uint256",
          "name": "_dealID",
          "type": "uint256"
        },
        {
          "internalType": "uint256",
          "name": "_amount",
          "type": "uint256"
        },
        {
          "internalType": "enum ICommon.Direct",
          "name": "_type",
          "type": "uint8"
        },
        {
          "internalType": "uint256",
          "name": "_currentPrice",
          "type": "uint256"
        },
        {
          "internalType": "uint256",
          "name": "tradeFeeRate",
          "type": "uint256"
        },
        {
          "internalType": "uint256",
          "name": "releaseSize",
          "type": "uint256"
        }
      ],
      "name": "closeDeal",
      "outputs": [
        {
          "internalType": "uint256",
          "name": "profit",
          "type": "uint256"
        },
        {
          "internalType": "uint256",
          "name": "loss",
          "type": "uint256"
        },
        {
          "internalType": "uint256",
          "name": "margin",
          "type": "uint256"
        }
      ],
      "stateMutability": "nonpayable",
      "type": "function"
    },
    {
      "inputs": [
        {
          "internalType": "uint256",
          "name": "",
          "type": "uint256"
        }
      ],
      "name": "doneLimitOrders",
      "outputs": [
        {
          "internalType": "address",
          "name": "trigger",
          "type": "address"
        },
        {
          "internalType": "address",
          "name": "caller",
          "type": "address"
        },
        {
          "internalType": "uint256",
          "name": "openBlockNumber",
          "type": "uint256"
        },
        {
          "internalType": "uint256",
          "name": "closeBlockNumber",
          "type": "uint256"
        },
        {
          "internalType": "bytes4",
          "name": "method",
          "type": "bytes4"
        }
      ],
      "stateMutability": "view",
      "type": "function"
    },
    {
      "inputs": [
        {
          "internalType": "uint256",
          "name": "_start",
          "type": "uint256"
        },
        {
          "internalType": "uint256",
          "name": "_end",
          "type": "uint256"
        },
        {
          "internalType": "uint256",
          "name": "_count",
          "type": "uint256"
        }
      ],
      "name": "getActiveDeals",
      "outputs": [
        {
          "components": [
            {
              "internalType": "address payable",
              "name": "taker",
              "type": "address"
            },
            {
              "internalType": "enum ICommon.Direct",
              "name": "direct",
              "type": "uint8"
            },
            {
              "internalType": "enum ICommon.DealState",
              "name": "state",
              "type": "uint8"
            },
            {
              "internalType": "enum ICommon.Offset",
              "name": "offset",
              "type": "uint8"
            },
            {
              "internalType": "uint256",
              "name": "orderID",
              "type": "uint256"
            },
            {
              "internalType": "string",
              "name": "name",
              "type": "string"
            },
            {
              "internalType": "uint256",
              "name": "amount",
              "type": "uint256"
            },
            {
              "internalType": "uint256",
              "name": "price",
              "type": "uint256"
            },
            {
              "internalType": "uint256",
              "name": "margin",
              "type": "uint256"
            },
            {
              "internalType": "uint256",
              "name": "tradingFee",
              "type": "uint256"
            },
            {
              "internalType": "uint256",
              "name": "timestamp",
              "type": "uint256"
            }
          ],
          "internalType": "struct ICommon.Deal[]",
          "name": "info",
          "type": "tuple[]"
        },
        {
          "internalType": "uint256[]",
          "name": "ids",
          "type": "uint256[]"
        },
        {
          "internalType": "uint256",
          "name": "end",
          "type": "uint256"
        }
      ],
      "stateMutability": "view",
      "type": "function"
    },
    {
      "inputs": [
        {
          "internalType": "uint256",
          "name": "_start",
          "type": "uint256"
        },
        {
          "internalType": "uint256",
          "name": "_end",
          "type": "uint256"
        },
        {
          "internalType": "uint256",
          "name": "_count",
          "type": "uint256"
        }
      ],
      "name": "getActiveLimitedOrders",
      "outputs": [
        {
          "components": [
            {
              "internalType": "address payable",
              "name": "taker",
              "type": "address"
            },
            {
              "internalType": "enum ICommon.Direct",
              "name": "direct",
              "type": "uint8"
            },
            {
              "internalType": "enum IPerpetual.OrderState",
              "name": "state",
              "type": "uint8"
            },
            {
              "internalType": "enum ICommon.Offset",
              "name": "offset",
              "type": "uint8"
            },
            {
              "internalType": "string",
              "name": "name",
              "type": "string"
            },
            {
              "internalType": "uint256",
              "name": "amount",
              "type": "uint256"
            },
            {
              "internalType": "uint256",
              "name": "targetPrice",
              "type": "uint256"
            },
            {
              "internalType": "uint256",
              "name": "margin",
              "type": "uint256"
            },
            {
              "internalType": "uint256",
              "name": "tradingFee",
              "type": "uint256"
            },
            {
              "internalType": "uint256",
              "name": "rewardGas",
              "type": "uint256"
            },
            {
              "internalType": "uint256",
              "name": "goodTill",
              "type": "uint256"
            }
          ],
          "internalType": "struct IPerpetual.LimitedOrder[]",
          "name": "info",
          "type": "tuple[]"
        },
        {
          "internalType": "uint256[]",
          "name": "ids",
          "type": "uint256[]"
        },
        {
          "internalType": "uint256",
          "name": "end",
          "type": "uint256"
        }
      ],
      "stateMutability": "view",
      "type": "function"
    },
    {
      "inputs": [],
      "name": "getAndIncreaseOrderID",
      "outputs": [
        {
          "internalType": "uint256",
          "name": "length",
          "type": "uint256"
        }
      ],
      "stateMutability": "nonpayable",
      "type": "function"
    },
    {
      "inputs": [
        {
          "internalType": "uint256",
          "name": "id",
          "type": "uint256"
        }
      ],
      "name": "getDeal",
      "outputs": [
        {
          "components": [
            {
              "internalType": "address payable",
              "name": "taker",
              "type": "address"
            },
            {
              "internalType": "enum ICommon.Direct",
              "name": "direct",
              "type": "uint8"
            },
            {
              "internalType": "enum ICommon.DealState",
              "name": "state",
              "type": "uint8"
            },
            {
              "internalType": "enum ICommon.Offset",
              "name": "offset",
              "type": "uint8"
            },
            {
              "internalType": "uint256",
              "name": "orderID",
              "type": "uint256"
            },
            {
              "internalType": "string",
              "name": "name",
              "type": "string"
            },
            {
              "internalType": "uint256",
              "name": "amount",
              "type": "uint256"
            },
            {
              "internalType": "uint256",
              "name": "price",
              "type": "uint256"
            },
            {
              "internalType": "uint256",
              "name": "margin",
              "type": "uint256"
            },
            {
              "internalType": "uint256",
              "name": "tradingFee",
              "type": "uint256"
            },
            {
              "internalType": "uint256",
              "name": "timestamp",
              "type": "uint256"
            }
          ],
          "internalType": "struct ICommon.Deal",
          "name": "",
          "type": "tuple"
        }
      ],
      "stateMutability": "view",
      "type": "function"
    },
    {
      "inputs": [],
      "name": "getDealLength",
      "outputs": [
        {
          "internalType": "uint256",
          "name": "length",
          "type": "uint256"
        }
      ],
      "stateMutability": "view",
      "type": "function"
    },
    {
      "inputs": [
        {
          "internalType": "uint256[]",
          "name": "_ids",
          "type": "uint256[]"
        }
      ],
      "name": "getDeals",
      "outputs": [
        {
          "components": [
            {
              "internalType": "address payable",
              "name": "taker",
              "type": "address"
            },
            {
              "internalType": "enum ICommon.Direct",
              "name": "direct",
              "type": "uint8"
            },
            {
              "internalType": "enum ICommon.DealState",
              "name": "state",
              "type": "uint8"
            },
            {
              "internalType": "enum ICommon.Offset",
              "name": "offset",
              "type": "uint8"
            },
            {
              "internalType": "uint256",
              "name": "orderID",
              "type": "uint256"
            },
            {
              "internalType": "string",
              "name": "name",
              "type": "string"
            },
            {
              "internalType": "uint256",
              "name": "amount",
              "type": "uint256"
            },
            {
              "internalType": "uint256",
              "name": "price",
              "type": "uint256"
            },
            {
              "internalType": "uint256",
              "name": "margin",
              "type": "uint256"
            },
            {
              "internalType": "uint256",
              "name": "tradingFee",
              "type": "uint256"
            },
            {
              "internalType": "uint256",
              "name": "timestamp",
              "type": "uint256"
            }
          ],
          "internalType": "struct ICommon.Deal[]",
          "name": "info",
          "type": "tuple[]"
        }
      ],
      "stateMutability": "view",
      "type": "function"
    },
    {
      "inputs": [
        {
          "internalType": "address",
          "name": "_taker",
          "type": "address"
        },
        {
          "internalType": "string",
          "name": "_name",
          "type": "string"
        },
        {
          "internalType": "enum ICommon.Direct",
          "name": "_type",
          "type": "uint8"
        }
      ],
      "name": "getDealsByPosition",
      "outputs": [
        {
          "internalType": "uint256[]",
          "name": "_deals",
          "type": "uint256[]"
        }
      ],
      "stateMutability": "view",
      "type": "function"
    },
    {
      "inputs": [
        {
          "internalType": "uint256[]",
          "name": "_ids",
          "type": "uint256[]"
        }
      ],
      "name": "getLimitOrders",
      "outputs": [
        {
          "components": [
            {
              "internalType": "address payable",
              "name": "taker",
              "type": "address"
            },
            {
              "internalType": "enum ICommon.Direct",
              "name": "direct",
              "type": "uint8"
            },
            {
              "internalType": "enum IPerpetual.OrderState",
              "name": "state",
              "type": "uint8"
            },
            {
              "internalType": "enum ICommon.Offset",
              "name": "offset",
              "type": "uint8"
            },
            {
              "internalType": "string",
              "name": "name",
              "type": "string"
            },
            {
              "internalType": "uint256",
              "name": "amount",
              "type": "uint256"
            },
            {
              "internalType": "uint256",
              "name": "targetPrice",
              "type": "uint256"
            },
            {
              "internalType": "uint256",
              "name": "margin",
              "type": "uint256"
            },
            {
              "internalType": "uint256",
              "name": "tradingFee",
              "type": "uint256"
            },
            {
              "internalType": "uint256",
              "name": "rewardGas",
              "type": "uint256"
            },
            {
              "internalType": "uint256",
              "name": "goodTill",
              "type": "uint256"
            }
          ],
          "internalType": "struct IPerpetual.LimitedOrder[]",
          "name": "info",
          "type": "tuple[]"
        }
      ],
      "stateMutability": "view",
      "type": "function"
    },
    {
      "inputs": [
        {
          "internalType": "uint256",
          "name": "id",
          "type": "uint256"
        }
      ],
      "name": "getLimitedOrder",
      "outputs": [
        {
          "components": [
            {
              "internalType": "address payable",
              "name": "taker",
              "type": "address"
            },
            {
              "internalType": "enum ICommon.Direct",
              "name": "direct",
              "type": "uint8"
            },
            {
              "internalType": "enum IPerpetual.OrderState",
              "name": "state",
              "type": "uint8"
            },
            {
              "internalType": "enum ICommon.Offset",
              "name": "offset",
              "type": "uint8"
            },
            {
              "internalType": "string",
              "name": "name",
              "type": "string"
            },
            {
              "internalType": "uint256",
              "name": "amount",
              "type": "uint256"
            },
            {
              "internalType": "uint256",
              "name": "targetPrice",
              "type": "uint256"
            },
            {
              "internalType": "uint256",
              "name": "margin",
              "type": "uint256"
            },
            {
              "internalType": "uint256",
              "name": "tradingFee",
              "type": "uint256"
            },
            {
              "internalType": "uint256",
              "name": "rewardGas",
              "type": "uint256"
            },
            {
              "internalType": "uint256",
              "name": "goodTill",
              "type": "uint256"
            }
          ],
          "internalType": "struct IPerpetual.LimitedOrder",
          "name": "",
          "type": "tuple"
        }
      ],
      "stateMutability": "view",
      "type": "function"
    },
    {
      "inputs": [],
      "name": "getLimitedOrderLength",
      "outputs": [
        {
          "internalType": "uint256",
          "name": "length",
          "type": "uint256"
        }
      ],
      "stateMutability": "view",
      "type": "function"
    },
    {
      "inputs": [],
      "name": "getOrderID",
      "outputs": [
        {
          "internalType": "uint256",
          "name": "length",
          "type": "uint256"
        }
      ],
      "stateMutability": "view",
      "type": "function"
    },
    {
      "inputs": [
        {
          "internalType": "address",
          "name": "user",
          "type": "address"
        }
      ],
      "name": "getUserDealsID",
      "outputs": [
        {
          "internalType": "uint256[]",
          "name": "",
          "type": "uint256[]"
        }
      ],
      "stateMutability": "view",
      "type": "function"
    },
    {
      "inputs": [
        {
          "internalType": "address",
          "name": "user",
          "type": "address"
        }
      ],
      "name": "getUserLimitOrdersID",
      "outputs": [
        {
          "internalType": "uint256[]",
          "name": "",
          "type": "uint256[]"
        }
      ],
      "stateMutability": "view",
      "type": "function"
    },
    {
      "inputs": [
        {
          "internalType": "address",
          "name": "initialOwner",
          "type": "address"
        },
        {
          "internalType": "address",
          "name": "_priPool",
          "type": "address"
        },
        {
          "internalType": "address",
          "name": "_perpetual",
          "type": "address"
        }
      ],
      "name": "initialize",
      "outputs": [],
      "stateMutability": "nonpayable",
      "type": "function"
    },
    {
      "inputs": [
        {
          "internalType": "uint256",
          "name": "_dealID",
          "type": "uint256"
        },
        {
          "internalType": "string[]",
          "name": "_symbols",
          "type": "string[]"
        },
        {
          "internalType": "uint256[]",
          "name": "_prices",
          "type": "uint256[]"
        }
      ],
      "name": "liquidateMakerDeal",
      "outputs": [
        {
          "internalType": "bool",
          "name": "isLiquidated",
          "type": "bool"
        },
        {
          "internalType": "bool",
          "name": "isAgreement",
          "type": "bool"
        },
        {
          "internalType": "uint256",
          "name": "userProfit",
          "type": "uint256"
        },
        {
          "internalType": "address",
          "name": "taker",
          "type": "address"
        },
        {
          "internalType": "uint256",
          "name": "margin",
          "type": "uint256"
        }
      ],
      "stateMutability": "nonpayable",
      "type": "function"
    },
    {
      "inputs": [
        {
          "internalType": "address",
          "name": "_taker",
          "type": "address"
        },
        {
          "internalType": "string",
          "name": "_name",
          "type": "string"
        },
        {
          "internalType": "enum ICommon.Direct",
          "name": "_type",
          "type": "uint8"
        },
        {
          "internalType": "enum ICommon.Offset",
          "name": "_offset",
          "type": "uint8"
        },
        {
          "internalType": "uint256",
          "name": "_amount",
          "type": "uint256"
        },
        {
          "internalType": "uint256",
          "name": "_price",
          "type": "uint256"
        },
        {
          "internalType": "uint256",
          "name": "_tradingFee",
          "type": "uint256"
        },
        {
          "internalType": "uint256",
          "name": "_rewardGas",
          "type": "uint256"
        },
        {
          "internalType": "uint256",
          "name": "_marginAmount",
          "type": "uint256"
        },
        {
          "internalType": "uint256",
          "name": "_goodTill",
          "type": "uint256"
        },
        {
          "internalType": "bool",
          "name": "condition",
          "type": "bool"
        },
        {
          "internalType": "uint256",
          "name": "_dueGas",
          "type": "uint256"
        }
      ],
      "name": "makeLimitedOrder",
      "outputs": [],
      "stateMutability": "payable",
      "type": "function"
    },
    {
      "inputs": [
        {
          "internalType": "address",
          "name": "_taker",
          "type": "address"
        },
        {
          "internalType": "string",
          "name": "_name",
          "type": "string"
        },
        {
          "internalType": "enum ICommon.Direct",
          "name": "_type",
          "type": "uint8"
        },
        {
          "internalType": "enum IPerpetual.OrderType",
          "name": "_orderType",
          "type": "uint8"
        },
        {
          "internalType": "uint256",
          "name": "_amount",
          "type": "uint256"
        },
        {
          "internalType": "uint256",
          "name": "_total",
          "type": "uint256"
        },
        {
          "internalType": "uint256",
          "name": "_tradingFee",
          "type": "uint256"
        },
        {
          "internalType": "uint256",
          "name": "_marginAmount",
          "type": "uint256"
        },
        {
          "internalType": "uint256",
          "name": "_currentPrice",
          "type": "uint256"
        },
        {
          "internalType": "uint256",
          "name": "_limitID",
          "type": "uint256"
        }
      ],
      "name": "openOrder",
      "outputs": [],
      "stateMutability": "nonpayable",
      "type": "function"
    },
    {
      "inputs": [],
      "name": "owner",
      "outputs": [
        {
          "internalType": "address",
          "name": "",
          "type": "address"
        }
      ],
      "stateMutability": "view",
      "type": "function"
    },
    {
      "inputs": [
        {
          "internalType": "address",
          "name": "",
          "type": "address"
        },
        {
          "internalType": "string",
          "name": "",
          "type": "string"
        },
        {
          "internalType": "uint256",
          "name": "",
          "type": "uint256"
        }
      ],
      "name": "positions",
      "outputs": [
        {
          "internalType": "uint256",
          "name": "value",
          "type": "uint256"
        },
        {
          "internalType": "uint256",
          "name": "size",
          "type": "uint256"
        },
        {
          "internalType": "uint256",
          "name": "margin",
          "type": "uint256"
        },
        {
          "internalType": "uint256",
          "name": "freeze",
          "type": "uint256"
        }
      ],
      "stateMutability": "view",
      "type": "function"
    },
    {
      "inputs": [],
      "name": "renounceOwnership",
      "outputs": [],
      "stateMutability": "nonpayable",
      "type": "function"
    },
    {
      "inputs": [
        {
          "internalType": "address",
          "name": "_agent",
          "type": "address"
        },
        {
          "internalType": "address",
          "name": "_station",
          "type": "address"
        }
      ],
      "name": "setKeepers",
      "outputs": [],
      "stateMutability": "nonpayable",
      "type": "function"
    },
    {
      "inputs": [
        {
          "internalType": "address",
          "name": "newOwner",
          "type": "address"
        }
      ],
      "name": "transferOwnership",
      "outputs": [],
      "stateMutability": "nonpayable",
      "type": "function"
    },
    {
      "inputs": [
        {
          "internalType": "uint256",
          "name": "",
          "type": "uint256"
        }
      ],
      "name": "triggerParam",
      "outputs": [
        {
          "internalType": "uint256",
          "name": "mean",
          "type": "uint256"
        },
        {
          "internalType": "uint256",
          "name": "openLimitPrice",
          "type": "uint256"
        },
        {
          "internalType": "uint256",
          "name": "gainTriggerPrice",
          "type": "uint256"
        },
        {
          "internalType": "uint256",
          "name": "gainLimitPrice",
          "type": "uint256"
        },
        {
          "internalType": "uint256",
          "name": "lossTriggerPrice",
          "type": "uint256"
        },
        {
          "internalType": "uint256",
          "name": "lossLimitPrice",
          "type": "uint256"
        }
      ],
      "stateMutability": "view",
      "type": "function"
    },
    {
      "inputs": [
        {
          "internalType": "uint256",
          "name": "limitID",
          "type": "uint256"
        },
        {
          "internalType": "enum IPerpetual.OrderState",
          "name": "state",
          "type": "uint8"
        },
        {
          "internalType": "uint256",
          "name": "rewardGas",
          "type": "uint256"
        }
      ],
      "name": "updateLimitOrder",
      "outputs": [],
      "stateMutability": "nonpayable",
      "type": "function"
    },
    {
      "inputs": [
        {
          "internalType": "uint256",
          "name": "limitOrderID",
          "type": "uint256"
        },
        {
          "internalType": "uint256",
          "name": "_mean",
          "type": "uint256"
        },
        {
          "internalType": "uint256",
          "name": "_openLimitPrice",
          "type": "uint256"
        },
        {
          "internalType": "uint256",
          "name": "_gainTriggerPrice",
          "type": "uint256"
        },
        {
          "internalType": "uint256",
          "name": "_gainLimitPrice",
          "type": "uint256"
        },
        {
          "internalType": "uint256",
          "name": "_lossTriggerPrice",
          "type": "uint256"
        },
        {
          "internalType": "uint256",
          "name": "_lossLimitPrice",
          "type": "uint256"
        }
      ],
      "name": "updateTriggerCondition",
      "outputs": [],
      "stateMutability": "nonpayable",
      "type": "function"
    }
  ],
  "bytecode": "0x608080604052346015576145e8908161001b8239f35b600080fdfe6080604052600436101561001a575b3461001557005b600080fd5b60003560e01c80630c3fc6b9146101ea5780630c8c3516146101e55780630f12fb59146101e05780631b31c071146101db5780632b000206146101d657806349138690146101d157806352e282a7146101cc578063530e011e146101c7578063620de4da146101c25780636f4907cb146101bd578063715018a6146101b85780637207584d146101b357806375ffb53d146101ae57806382fd5bac146101a95780638da5cb5b146101a45780639324b5491461019f578063ac6b96a21461019a578063ac89c79814610195578063b811988814610190578063b99ac9271461018b578063be63309e14610186578063bfffc8bb14610181578063c0c53b8b1461017c578063c2b3356414610177578063c3710f2514610172578063dcee34751461016d578063e771ad7214610168578063ee32aa2f146101635763f2fde38b0361000e57611bb4565b611b51565b611a4a565b611929565b61190b565b6118bf565b611675565b6115f9565b611571565b61154e565b611530565b61141f565b6113b0565b61132e565b6112e8565b6112a9565b61117c565b61104c565b610fb3565b610f79565b610f2b565b610eb5565b610e40565b610c70565b610bbc565b6106f1565b61063f565b61052d565b610322565b634e487b7160e01b600052602160045260246000fd5b6003111561020f57565b6101ef565b9061021e82610205565b52565b6007111561020f57565b90600782101561020f5752565b60005b83811061024b5750506000910152565b818101518382015260200161023b565b90601f19601f60209361027981518092818752878088019101610238565b0116010190565b80516001600160a01b03168252906102a060208301516020830190610214565b6102b26040830151604083019061022b565b6102c460608301516060830190610214565b610140806102e36080850151610160608086015261016085019061025b565b9360a081015160a085015260c081015160c085015260e081015160e0850152610100810151610100850152610120810151610120850152015191015290565b346100155760206003193601126100155761036761035361034d600435610347611bdd565b50611c30565b50611d7b565b604051918291602083526020830190610280565b0390f35b600435906001600160a01b038216820361001557565b602435906001600160a01b038216820361001557565b604435906001600160a01b038216820361001557565b634e487b7160e01b600052604160045260246000fd5b610160810190811067ffffffffffffffff8211176103e057604052565b6103ad565b60a0810190811067ffffffffffffffff8211176103e057604052565b90601f601f19910116810190811067ffffffffffffffff8211176103e057604052565b6040519061043461016083610401565b565b6040519061043460c083610401565b67ffffffffffffffff81116103e057601f01601f191660200190565b81601f820112156100155780359061047882610445565b926104866040519485610401565b8284526020838301011161001557816000926020809301838601378301015290565b6001600160a01b03166000526007602052604060002090565b906104d460209282815194859201610238565b0190565b6020906104f2928260405194838680955193849201610238565b82019081520301902090565b634e487b7160e01b600052603260045260246000fd5b906002811015610528576005020190600090565b6104fe565b346100155760606003193601126100155761054661036b565b60243567ffffffffffffffff811161001557602061056b610597923690600401610461565b6001600160a01b036044359416600052600b825260406000208260405194838680955193849201610238565b820190815203019020906002811015610015576105b391610514565b5080546103676001830154926003600282015491015490604051948594859094939260609260808301968352602083015260408201520152565b6003111561001557565b906020808351928381520192019060005b8181106106155750505090565b8251845260209384019390920191600101610608565b90602061063c9281815201906105f7565b90565b346100155760606003193601126100155761065861036b565b60243567ffffffffffffffff81116100155760046106de610367936106d86106c0602061068b6106e59736908801610461565b6001600160a01b03604435956106a0876105ed565b16600052600b825260406000208260405194838680955193849201610238565b820190815203019020916106d381610205565b611e4f565b90610514565b5001611e67565b6040519182918261062b565b346100155760e06003193601126100155761070a61036b565b6024356044359160643561071d816105ed565b60843560a4359060c4359133600052600960205261074260ff60406000205416611eb2565b60009661074e87611c4f565b509161076d876001600160a01b0316600052600b602052604060002090565b986107c26107ba61079b610785600288019d8e611efd565b87546106d89060a01c60ff165b6106d381610205565b50976107ac60038a01918254611f95565b908190556001890154611f95565b841115611fa2565b82158015610baf575b15610a3e5750825460a01c60ff1660048401916107f48684549360038801549485928392613af7565b91909261081861080c6002546001600160a01b031690565b6001600160a01b031690565b91823b15610015576040517ff5a4bc660000000000000000000000000000000000000000000000000000000081526001600160a01b038d166004820152602481018e9052604481019290925260036064830152608482019890985260a481019790975260c4870183905260e4870182905286610104815a6000948591f1928315610a39576004966108b194610a1e575b5054918a613c9c565b505093909461090b6005850154946108e58b6108e08c6001600160a01b03166000526008602052604060002090565b613d22565b50750300000000000000000000000000000000000000000060ff60a81b19825416179055565b019461091686611e67565b9660005b8851811015610a02578961092e828b612097565b511461093c5760010161091a565b879899506109666109568261096b9495969798999a6120ab565b60001982549160031b1b19169055565b6120c3565b88518110156109c157806109bb6109916109876001948c6120ab565b90549060031b1c90565b6109a361099d84611f86565b8c6120ab565b90919060001983549160031b92831b921b1916179055565b0161096b565b506109e59497506109df8496996109da610367996120de565b611cd9565b90613e4a565b604051938493846040919493926060820195825260208201520152565b5090919295508593975061036796506109df6109e59599611cd9565b80610a2d6000610a3393610401565b80610c65565b386108a8565b611fed565b94509582610a56819a959793945460ff9060a01c1690565b96610a7085600484019960038b5495019484865492613af7565b9a9099610a8861080c6002546001600160a01b031690565b90813b15610bab576040517ff5a4bc660000000000000000000000000000000000000000000000000000000081526001600160a01b03871660048083019190915260248201859052604482018a90526064820152608481019490945260a484015260c483018b905260e483018c90528890839061010490829084905af18015610a3957610b8f9b6103679b6109df9b6109e59b610b2f968b95610b97575b50505493613bdd565b505099909a6005810192835493610b5b610b54610b4c8a8861201d565b845490612030565b8096611f95565b9055610b68878254611f95565b9055750200000000000000000000000000000000000000000060ff60a81b19825416179055565b958694611cd9565b610a2d610ba49282610401565b3880610b26565b8980fd5b50600384015483146107cb565b3461001557604060031936011261001557610c63610bd861036b565b610c476001600160a01b0380610bec610381565b93610bf5613f6e565b16928360005260096020526040600020600160ff1982541617905516918260005260096020526040600020600160ff198254161790556001600160a01b03166001600160a01b03196002541617600255565b6001600160a01b03166001600160a01b03196003541617600355565b005b600091031261001557565b34610015576000600319360112610015576020600654604051908152f35b67ffffffffffffffff81116103e05760051b60200190565b9080601f83011215610015578135610cbd81610c8e565b92610ccb6040519485610401565b81845260208085019260051b82010192831161001557602001905b828210610cf35750505090565b8135815260209182019101610ce6565b6020600319820112610015576004359067ffffffffffffffff82116100155761063c91600401610ca6565b6006111561020f57565b90600682101561020f5752565b80516001600160a01b0316825290610d6560208301516020830190610214565b610d7760408301516040830190610d38565b610d8960608301516060830190610214565b6080820151608082015261014080610db260a085015161016060a086015261016085019061025b565b9360c081015160c085015260e081015160e0850152610100810151610100850152610120810151610120850152015191015290565b9080602083519182815201916020808360051b8301019401926000915b838310610e1357505050505090565b9091929394602080610e3183601f1986600196030187528951610d45565b97019301930191939290610e04565b3461001557610e4e36610d03565b8051610e5981612164565b9160005b828110610e7a576040516020808252819061036790820187610de7565b80610e99610e93610e8d60019486612097565b51611c4f565b506121bf565b610ea38287612097565b52610eae8186612097565b5001610e5d565b346100155761014060031936011261001557610ecf61036b565b60243567ffffffffffffffff811161001557610eef903690600401610461565b9060443591610efd836105ed565b60643592600884101561001557610c639360a43560843560c4359260e4359461010435966101243598612259565b34610015576020600319360112610015576001600160a01b03610f4c61036b565b166000526008602052610367610f656040600020611e67565b6040519182916020835260208301906105f7565b34610015576020600319360112610015576001600160a01b03610f9a61036b565b166000526007602052610367610f656040600020611e67565b3461001557600060031936011261001557610fcc613f6e565b60006001600160a01b037f9016d09d72d40fdae2fd8ceac6b6234c7706214fd39c1cd1e609a0528c199300546001600160a01b031981167f9016d09d72d40fdae2fd8ceac6b6234c7706214fd39c1cd1e609a0528c19930055167f8be0079c531659141344cd1fd0a4f28419497f9722a3daafe3b4186f6b6457e08280a3005b3461001557602060031936011261001557600435600052600a60205260a060406000207fffffffff000000000000000000000000000000000000000000000000000000006001600160a01b03825416916001600160a01b036001820154169060028101546004600383015492015460e01b92604051958652602086015260408501526060840152166080820152f35b600319606091011261001557600435906024359060443590565b9080602083519182815201916020808360051b8301019401926000915b83831061112157505050505090565b909192939460208061113f83601f1986600196030187528951610280565b97019301930191939290611112565b939291611177906111696040936060885260608801906110f5565b9086820360208801526105f7565b930152565b346100155761118a366110db565b8192809260009160065480921161129f575b8110611297575b509291926111b08261292b565b916111ba8161297a565b945b8481108061128e575b156112685760016111e36111d883611c30565b505460a81c60ff1690565b6111ec81610221565b14801561124a575b611207575b611202906129ab565b6111bc565b91611242818461121a611202948a612097565b5261122761034d86611c30565b6112318288612097565b5261123c8187612097565b506129ab565b9290506111f9565b5060026112596111d883611c30565b61126281610221565b146111f4565b859392610367928103611283575b506040519384938461114e565b808452845284611276565b508183106111c5565b9250386111a3565b909450849061119c565b34610015576020600319360112610015576103676112d4610e936004356112ce612111565b50611c4f565b604051918291602083526020830190610d45565b346100155760006003193601126100155760206001600160a01b037f9016d09d72d40fdae2fd8ceac6b6234c7706214fd39c1cd1e609a0528c1993005416604051908152f35b346100155760a06003193601126100155761134761036b565b6024359067ffffffffffffffff82116100155761136b61139e923690600401610461565b604435611377816105ed565b606435916084359333600052600960205261139960ff60406000205416611eb2565b612b08565b60408051928352901515602083015290f35b34610015576113be36610d03565b80516113c98161292b565b9160005b8281106113ea5760405160208082528190610367908201876110f5565b8061140361034d6113fd60019486612097565b51611c30565b61140d8287612097565b526114188186612097565b50016113cd565b34610015576060600319360112610015576024356004356007821015610015576001600160a01b03610c639261145460443590565b33600052600960205261146e60ff60406000205416611eb2565b61148261147a85611c30565b509283612ce0565b42600783015580600683015580151580611526575b611506575b50541660005260076020526114b5816040600020613d22565b506000908152600a6020526040902080546001600160a01b031916321781556004906001810180546001600160a01b031916331790554360038201550160003560e01c63ffffffff19825416179055565b600080808061152094325af161151a612d16565b50612d46565b3861149c565b5080471015611497565b34610015576000600319360112610015576020600554604051908152f35b34610015576000600319360112610015576020611569612d91565b604051908152f35b346100155760e06003193601126100155760043560056024356044356064356084359060a4359260c435963360005260096020526115b660ff60406000205416611eb2565b600052600c602052604060002094855560018501556002840155600383015560048201550155600080f35b8015150361001557565b6101443590610434826115e1565b6101806003193601126100155761160e61036b565b6024359067ffffffffffffffff821161001557611632610c63923690600401610461565b60443561163e816105ed565b60643561164a816105ed565b60843560a43560c4359060e435926101043594610124359661166a6115eb565b98610164359a612dbf565b346100155760606003193601126100155761168e61036b565b611696610381565b9061169f610397565b7ff0c57e16840df040f15088dc2f81fe391c3923bec73e23a9662efc9c229c6a00549267ffffffffffffffff6116ee60ff604087901c16156116e0565b1590565b9567ffffffffffffffff1690565b16801590816118b7575b60011490816118ad575b1590816118a4575b5061187a5761178b928461178260017fffffffffffffffffffffffffffffffffffffffffffffffff00000000000000007ff0c57e16840df040f15088dc2f81fe391c3923bec73e23a9662efc9c229c6a005416177ff0c57e16840df040f15088dc2f81fe391c3923bec73e23a9662efc9c229c6a0055565b611815576132d0565b61179157005b6117e668ff0000000000000000197ff0c57e16840df040f15088dc2f81fe391c3923bec73e23a9662efc9c229c6a0054167ff0c57e16840df040f15088dc2f81fe391c3923bec73e23a9662efc9c229c6a0055565b604051600181527fc7f505b2f371ae2175ee4913f4499e1f2633a7b5936321eed1cdaeb6115181d290602090a1005b6118756801000000000000000068ff0000000000000000197ff0c57e16840df040f15088dc2f81fe391c3923bec73e23a9662efc9c229c6a005416177ff0c57e16840df040f15088dc2f81fe391c3923bec73e23a9662efc9c229c6a0055565b6132d0565b7ff92ee8a90000000000000000000000000000000000000000000000000000000060005260046000fd5b9050153861170a565b303b159150611702565b8591506116f8565b346100155760606003193601126100155760206115696004356118e0610381565b604435916118ed836115e1565b336000526009855261190660ff60406000205416611eb2565b6134ec565b34610015576000600319360112610015576020600454604051908152f35b346100155760606003193601126100155760243560043567ffffffffffffffff8211610015573660238301121561001557816004013561196881610c8e565b926119766040519485610401565b8184526024602085019260051b820101903682116100155760248101925b8284106119ff57856044358667ffffffffffffffff821161001557610367926119c46119ca933690600401610ca6565b91613800565b6040805195151586529315156020860152928401919091526001600160a01b03166060830152608082015290819060a0820190565b833567ffffffffffffffff811161001557602091611a24839260243691870101610461565b815201930192611994565b93929161117790611169604093606088526060880190610de7565b3461001557611a58366110db565b81928092600091600554809211611b47575b8110611b3f575b50929192611a7e82612164565b91611a888161297a565b945b84811080611b36575b15611b10576001611aa66111d883611c4f565b611aaf81610d2e565b148015611af2575b611aca575b611ac5906129ab565b611a8a565b91611aea8184611add611ac5948a612097565b52611227610e9386611c4f565b929050611abc565b506002611b016111d883611c4f565b611b0a81610d2e565b14611ab7565b859392610367928103611b2b575b5060405193849384611a2f565b808452845284611b1e565b50818310611a93565b925038611a71565b9094508490611a6a565b3461001557602060031936011261001557600435600052600c60205260c0604060002080549060018101549060028101546003820154906005600484015493015493604051958652602086015260408501526060840152608083015260a0820152f35b3461001557602060031936011261001557610c63611bd061036b565b611bd8613f6e565b613a38565b60405190611bea826103c3565b600061014083828152826020820152826040820152826060820152606060808201528260a08201528260c08201528260e082015282610100820152826101208201520152565b60065481101561052857600660005260206000209060031b0190600090565b60055481101561052857600560005260206000209060031b0190600090565b80548210156105285760005260206000209060031b0190600090565b61021e82610205565b600782101561020f5752565b90600182811c92168015611ccf575b6020831014611cb957565b634e487b7160e01b600052602260045260246000fd5b91607f1691611cae565b9060405191826000825492611ced84611c9f565b8084529360018116908115611d595750600114611d12575b5061043492500383610401565b90506000929192526020600020906000915b818310611d3d5750509060206104349282010138611d05565b6020919350806001915483858901015201910190918492611d24565b6020935061043495925060ff1991501682840152151560051b82010138611d05565b906007611d86610424565b92611dea611de18254611daf611da2826001600160a01b031690565b6001600160a01b03168852565b611dc460a082901c60ff165b60208901611c8a565b611dd860a882901c60ff1660408901611c93565b60b01c60ff1690565b60608601611c8a565b611df660018201611cd9565b6080850152600281015460a0850152600381015460c0850152600481015460e0850152600581015461010085015260068101546101208501520154610140830152565b634e487b7160e01b600052601160045260246000fd5b60ff6000199116019060ff8211611e6257565b611e39565b906040519182815491828252602082019060005260206000209260005b818110611e9957505061043492500383610401565b8454835260019485019487945060209093019201611e84565b15611eb957565b606460405162461bcd60e51b815260206004820152601f60248201527f63616c6c6572206973206e6f74206f7264657220626f6f6b206b6565706572006044820152fd5b906040518092600090805490611f1282611c9f565b9160018116908115611f6e5750600114611f35575b505060209281520301902090565b90915060005260206000206000905b828210611f575750508101602038611f27565b805482870152859350602090910190600101611f44565b60ff1916855250508015150282019050602038611f27565b906000198201918211611e6257565b91908203918211611e6257565b15611fa957565b606460405162461bcd60e51b815260206004820152601d60248201527f617661696c61626c6520616d6f756e7420696e73756666696369656e740000006044820152fd5b6040513d6000823e3d90fd5b90670de0b6b3a7640000820291808304670de0b6b3a76400001490151715611e6257565b81810292918115918404141715611e6257565b811561203a570490565b634e487b7160e01b600052601260045260246000fd5b90600681101561020f57815460ff60a81b191660a89190911b75ff00000000000000000000000000000000000000000016179055565b9055565b8051156105285760200190565b80518210156105285760209160051b010190565b80548210156105285760005260206000200190600090565b9060018201809211611e6257565b91908201809211611e6257565b805480156120fb5760001901906120f861095683836120ab565b55565b634e487b7160e01b600052603160045260246000fd5b6040519061211e826103c3565b600061014083828152826020820152826040820152826060820152826080820152606060a08201528260c08201528260e082015282610100820152826101208201520152565b9061216e82610c8e565b61217b6040519182610401565b828152601f1961218b8294610c8e565b019060005b82811061219c57505050565b6020906121a7612111565b82828501015201612190565b600682101561020f5752565b9060076121ca610424565b9261220a611de182546121e6611da2826001600160a01b031690565b6121f660a082901c60ff16611dbb565b611dd860a882901c60ff16604089016121b3565b6001810154608085015261222060028201611cd9565b60a0850152600381015460c0850152600481015460e0850152600581015461010085015260068101546101208501520154610140830152565b9593949684919798929833600052600960205261227d60ff60406000205416611eb2565b60408761229561080c6000546001600160a01b031690565b8c60008d6122d6600554938b88519b8c98899788967f8e3a0e920000000000000000000000000000000000000000000000000000000088526004880161250a565b03925af1998a15610a39576104349b6001600160a01b037febbb264ee0a0ae96eb7f0d3178c3d7cfed75dcb46bf54fb70fa43000eb77d76e9a6123597f878cac0b879164d8647426da983e248a51ef8192a43e4d3bb5b586ca2017ed54956124ad9f8f878f916123538c9461240c9e6000916124bb575b50612547565b86613eec565b61236284610205565b61237a8d8961237087611e4f565b6005549285614004565b6123a361239a826001600160a01b03166000526008602052604060002090565b60055490614210565b5016948594600454906123b4610424565b6001600160a01b0388168152916123ce8660208501611c8a565b600160408401526001606084015260808301528d60a08301528b60c08301528860e08301526101008201528961012082015242610140820152612843565b6124276004549b8c928a898d8c60405198899842978a61287d565b0390a27f3d1da8320fcddb1c370f0c5ec1c37483e5301a7c02bd7478d62c7514643ceb1d6040518061246e4288836040909392919360608101946003825260208201520152565b0390a2600260019261247f81612873565b146124b2575b6124a59192612495600554611f86565b9160405195869542948a886128e3565b0390a16120c3565b600455565b60029150612485565b6124dd915060403d6040116124e4575b6124d58183610401565b8101906124eb565b503861234d565b503d6124cb565b91908260409103126100155760208251612504816115e1565b92015190565b9261252560a09592989796939860c0865260c086019061025b565b97602085015260408401526060830152608082015261254383610205565b0152565b1561254e57565b606460405162461bcd60e51b815260206004820152601760248201527f6c6971756964697479206973206e6f7420656e6f7567680000000000000000006044820152fd5b634e487b7160e01b600052600060045260246000fd5b906125b281610205565b7fffffffffffffffffffffff00ffffffffffffffffffffffffffffffffffffffff74ff000000000000000000000000000000000000000083549260a01b169116179055565b9061260181610205565b7fffffffffffffffffff00ffffffffffffffffffffffffffffffffffffffffffff76ff0000000000000000000000000000000000000000000083549260b01b169116179055565b818110612653575050565b60008155600101612648565b9190601f811161266e57505050565b610434926000526020600020906020601f840160051c8301931061269a575b601f0160051c0190612648565b909150819061268d565b919091825167ffffffffffffffff81116103e0576126cc816126c68454611c9f565b8461265f565b6020601f82116001146127085781906120869394956000926126fd575b50506000198260011b9260031b1c19161790565b0151905038806126e9565b601f1982169061271d84600052602060002090565b9160005b81811061275957509583600195969710612740575b505050811b019055565b015160001960f88460031b161c19169055388080612736565b9192602060018192868b015181550194019201612721565b919061283e57610140816127ad612791600794516001600160a01b031690565b85906001600160a01b03166001600160a01b0319825416179055565b6127c460208201516127be81610205565b856125a8565b6127db60408201516127d581610d2e565b85612050565b6127f260608201516127ec81610205565b856125f7565b6080810151600185015561280d60a0820151600286016126a4565b60c0810151600385015560e08101516004850155610100810151600585015561012081015160068501550151910155565b612592565b60055490680100000000000000008210156103e05761286d82600161043494016005556005611c6e565b90612771565b6008111561020f57565b95929061289d909a999895929a979497610140885261014088019061025b565b9960208701526128ac81610205565b6040860152600886101561020f576101209560608601526080850152600060a085015260c084015260e08301526101008201520152565b939097969592949161012085019885526020850152600585101561020f576101009460408501526060840152608083015260a0820152600060c0820152600060e08201520152565b9061293582610c8e565b6129426040519182610401565b828152601f196129528294610c8e565b019060005b82811061296357505050565b60209061296e611bdd565b82828501015201612957565b9061298482610c8e565b6129916040519182610401565b828152601f196129a18294610c8e565b0190602036910137565b6000198114611e625760010190565b906040516129c7816103e5565b60806129f8600483958054855260018101546020860152600281015460408601526003810154606086015201611e67565b910152565b9190826040910312610015576020825192015161063c816115e1565b91612a41906001600160a01b036080959897969316845260a0602085015260a084019061025b565b95612a4b81610205565b604083015260608201520152565b9061283e57600460809183518155602084015160018201556040840151600282015560608401516003820155019101519081519167ffffffffffffffff83116103e0576801000000000000000083116103e0576020908254848455808510612aeb575b500190600052602060002060005b838110612ad75750505050565b600190602084519401938184015501612aca565b612b02908460005285846000209182019101612648565b38612abc565b9194929394612b51612b4b612b39612b33866001600160a01b0316600052600b602052604060002090565b856104d8565b612b4284610205565b6106d884611e4f565b506129ba565b906020820196875115612cd4578160409185600088612bb4612b7e61080c6002546001600160a01b031690565b9487519d8e97889687957f9324b54900000000000000000000000000000000000000000000000000000000875260048701612a19565b03925af1968715610a3957600096600098612c9d575b50879697612bda575b5050505050565b6000908184999795999896985252600060408301526000606083015260009660808301975b88518051821015612c495790612c43612c1d610e8d83600195612097565b50750400000000000000000000000000000000000000000060ff60a81b19825416179055565b01612bff565b5050612c836106d891612c7d612c9397996060612c8d97989a9c526001600160a01b0316600052600b602052604060002090565b906104d8565b916106d381610205565b90612a59565b3880808080612bd3565b909750612cc391965060403d604011612ccd575b612cbb8183610401565b8101906129fd565b9590959638612bca565b503d612cb1565b96506000955050505050565b90600781101561020f57815460ff60a81b191660a89190911b75ff00000000000000000000000000000000000000000016179055565b3d15612d41573d90612d2782610445565b91612d356040519384610401565b82523d6000602084013e565b606090565b15612d4d57565b606460405162461bcd60e51b815260206004820152600f60248201527f7472616e73666572206661696c656400000000000000000000000000000000006044820152fd5b336000526009602052612dab60ff60406000205416611eb2565b60045460018101808211611e625760045590565b9885859c85858d86868f9d9e9d8f908f909e9d9a9e9c9b9c33600052600960205260406000205460ff16612df290611eb2565b889943600654612e0c90600052600a602052604060002090565b60020155600654966001600160a01b03169c8d99604051998a99612e30998b613145565b037fda35074466487646f217346f3a768c696f37ce010b6634229c9a8200e4f7e68b91a2159c612ff39c6130049e61313d575b1561303d5790612edb939291612e89612e7a610424565b6001600160a01b039095168552565b612e968760208601611c8a565b60016040850152612eaa8660608601611c8a565b88608085015260a08401528660c0840152600060e08401526000610100840152610120830152610140820152613255565b612ee481610205565b600181036130075750505050612fd77f68cbb1c862d9d961359025e53792aa8be48fcf01d4712cf5dfd194d2a184a76993612f9b612f20610436565b6001815285602082015284604082015260006060820152826080820152600060a0820152612f62612f52600654611f86565b600052600c602052604060002090565b9060a060059180518455602081015160018501556040810151600285015560608101516003850155608081015160048501550151910155565b612fa6600654611f86565b926040519485948590949360009360a09360c084019784526020840152604083015283606083015260808201520152565b0390a16001600160a01b03166000526007602052604060002090565b612ffe600654611f86565b90614210565b50565b8061301760029298979598610205565b14613028575b5050505050506104a8565b6130329587614359565b38808080808061301d565b9960029798506130b595999192939496613067613058610424565b6001600160a01b039097168752565b6130748b60208801611c8a565b600160408701526130888860608801611c8a565b8960808701528b60a087015260c086015260e0850152610100840152610120830152610140820152613255565b6130be81610205565b146130e0575b5050506001600160a01b03166000526007602052604060002090565b613133916106d8612c8361310b93612c7d886001600160a01b0316600052600b602052604060002090565b50916003600184015493019261312e61312685548093611f95565b831115613285565b6120d1565b90553880806130c4565b349250612e63565b96939794919a999895929061316490610160895261016089019061025b565b9a602088015261317381610205565b6040870152610140966001606088015261318c81610205565b608087015260a086015260c085015260e08401526101008301526101208201520152565b919061283e57610140816131d0612791600794516001600160a01b031690565b6131e160208201516127be81610205565b6131f860408201516131f281610221565b85612ce0565b61320960608201516127ec81610205565b61321a6080820151600186016126a4565b60a0810151600285015560c0810151600385015560e08101516004850155610100810151600585015561012081015160068501550151910155565b60065490680100000000000000008210156103e05761327f82600161043494016006556006611c6e565b906131b0565b1561328c57565b606460405162461bcd60e51b815260206004820152601960248201527f6c696d697420636c6f736520616d6f756e7420657863656564000000000000006044820152fd5b916001600160a01b0361335c926132fd613369956132ec614559565b6132f4614559565b611bd033613a38565b16806001600160a01b0319600054161760005560005260096020526040600020600160ff198254161790556001600160a01b0381166001600160a01b031960015416176001556001600160a01b03166000526009602052604060002090565b600160ff19825416179055565b61043461335c306001600160a01b03166000526009602052604060002090565b1561339057565b606460405162461bcd60e51b815260206004820152601860248201527f57726f6e6720737461746520696e2063616e63656c696e6700000000000000006044820152fd5b156133db57565b606460405162461bcd60e51b815260206004820152600a60248201527f4e6f7420686f6c646572000000000000000000000000000000000000000000006044820152fd5b93909261343e610120969399989794610140875261014087019061025b565b98602086015261344d81610205565b6040850152600760608501526080840152600060a084015260c0830152600060e08301526101008201520152565b1561348257565b608460405162461bcd60e51b815260206004820152602260248201527f63616e63656c20616d6f756e74206973206772656174207468616e206672656560448201527f7a650000000000000000000000000000000000000000000000000000000000006064820152fd5b916134f961034d84611c30565b9181156137755750604082016001815161351281610221565b61351b81610221565b148015613758575b613747575b505b6135378261327f85611c30565b6101208201518015158061373d575b613710575b5081516001600160a01b0316916080810191825194613568612d91565b7f878cac0b879164d8647426da983e248a51ef8192a43e4d3bb5b586ca2017ed546001600160a01b0360208601976135c389519a6135a58c610205565b8660a08a019c8d5160c08c015191604051978897169942958861341f565b0390a26135de816108e06104a886516001600160a01b031690565b50613633816000908152600a6020526040902080546001600160a01b031916321781556004906001810180546001600160a01b031916331790554360038201550160003560e01c63ffffffff19825416179055565b81156136f0575b506136e7576002606082015161364f81610205565b61365881610205565b036136ce57916106d861369f6136aa9361369861367f6136c797516001600160a01b031690565b6001600160a01b0316600052600b602052604060002090565b90516104d8565b915161079281610205565b50600383519101926136c084548093111561347b565b5190611f95565b9055600090565b91505061063c915061010060e0820151910151906120d1565b50505050600090565b6001915061370890600052600c602052604060002090565b54143861363a565b60008080806137379461372d61080c89516001600160a01b031690565b5af161151a612d16565b3861354b565b5080471015613546565b600490524261014083015238613528565b506002815161376681610221565b61376f81610221565b14613523565b6137d2906137cc60408501916001835161378e81610221565b61379781610221565b1480156137de575b6137a890613389565b6001600160a01b03806137c288516001600160a01b031690565b92169116146133d4565b60049052565b4261014083015261352a565b506137a8600284516137ef81610221565b6137f881610221565b14905061379f565b9092919233600052600960205261381e60ff60406000205416611eb2565b61382a610e9383611c4f565b9260009460009260a08601935b8151811015613a055761384a8183612097565b5160405161386e816138606020820180956104c1565b03601f198101835282610401565b5190208551604051613888816138606020820180956104c1565b5190201461389857600101613837565b9050600096506138a791612097565b51915b6138be61080c86516001600160a01b031690565b9361010086019160606139268451966138e261080c6002546001600160a01b031690565b906040519b8c809481937f016f4dcb000000000000000000000000000000000000000000000000000000008352896004840160209093929193604081019481520152565b03925af1968715610a39576000936000996000996139c8575b5084613951575b505050509493929190565b61396e8261286d6139bf966139696040840160059052565b611c4f565b81516001600160a01b0316925160208301519061398a82610205565b6001600160a01b036139b86139aa60e060c088015196519701518661201d565b670de0b6b3a7640000900490565b9516613f53565b38808080613946565b91945097506139f091985060603d6060116139fe575b6139e88183610401565b810190613a11565b90989097919390918461393f565b503d6139de565b505050600094916138aa565b90816060910312610015578051613a27816115e1565b9160406020830151612504816115e1565b6001600160a01b03168015613ac8576001600160a01b037f9016d09d72d40fdae2fd8ceac6b6234c7706214fd39c1cd1e609a0528c19930054826001600160a01b03198216177f9016d09d72d40fdae2fd8ceac6b6234c7706214fd39c1cd1e609a0528c19930055167f8be0079c531659141344cd1fd0a4f28419497f9722a3daafe3b4186f6b6457e0600080a3565b7f1e4fbdf700000000000000000000000000000000000000000000000000000000600052600060045260246000fd5b60409360a4929396956001600160a01b036002541691865198899687957fca6ec372000000000000000000000000000000000000000000000000000000008752613b4081610205565b600487015260248601526044850152606484015260848301525afa918215610a39576000908193613b7057509190565b9092506040813d604011613ba4575b81613b8c60409383610401565b81010312613ba05760209080519350015190565b8280fd5b3d9150613b7f565b91908260809103126100155781519160208101519160606040830151613bd1816115e1565b92015161063c816115e1565b600060809460e49394966001600160a01b038354169160405198899788967ff26a3e1d000000000000000000000000000000000000000000000000000000008852600488015285602488015260448701526064860152608485015260a4840152600160c48401525af18015610a3957600092600093600093600093613c64575b5093929190565b9250509250613c8b915060803d608011613c95575b613c838183610401565b810190613bac565b9193909238613c5d565b503d613c79565b60e4906000608094956001600160a01b038254169060405197889687957ff26a3e1d00000000000000000000000000000000000000000000000000000000875260048701528460248701526044860152606485015282608485015260a4840152600160c48401525af18015610a3957600092600093600093600093613c64575093929190565b906001820190613d496116dc613d42838590600052602052604060002090565b5460ff1690565b613df75782549060005b828110613d64575050505050600090565b81613d7261098783886120ab565b14613d7f57600101613d53565b9492909193945b613d8f85611f86565b811015613dc657600181613dbe613db4610987613dae613d8f966120c3565b8b6120ab565b6109a3838b6120ab565b019050613d86565b50613df29350613dd9613de893956120de565b90600052602052604060002090565b60ff198154169055565b600190565b505050600090565b15613e0657565b606460405162461bcd60e51b815260206004820152601160248201527f496e76616c696420646972656374696f6e0000000000000000000000000000006044820152fd5b92916106d8612c83613e7993612c7d600097613e6586610205565b600186148015613ed9575b61367f90613dff565b50908154928315600014613e965760029350825560018201550155565b5090613ea2828461201d565b613eb26001830191825490612030565b8403938411611e6257613ece6002936120869584558254611f95565b905501918254611f95565b50613ee386610205565b60028614613e70565b612c83613f089392612c7d6106d89398969798613e6586610205565b5090815415600014613f235791600292825560018201550155565b908054918201809211611e6257612086926002928255613f48600183019182546120d1565b9055019182546120d1565b612c83613e799392612c7d6106d893989798613e6586610205565b6001600160a01b037f9016d09d72d40fdae2fd8ceac6b6234c7706214fd39c1cd1e609a0528c19930054163303613fa157565b7f118cdaa7000000000000000000000000000000000000000000000000000000006000523360045260246000fd5b90815491680100000000000000008310156103e057826109a3916001610434950181556120ab565b8015611e62576000190190565b9161402f61403492612c7d600495989697986001600160a01b0316600052600b602052604060002090565b610514565b50019283546140428161297a565b9060005b81811061419e5750156141915760005b815181108061417e575b156140735761406e906129ab565b614056565b91929350508354811480614165575b614135578015158061414c575b61413557835481108061411e575b614110576140c06140ba6109876140b48754611f86565b876120ab565b85613fcf565b6140ca8454611f86565b8181116140e057506109a39061043493946120ab565b806141066140fc6109876140f661410b95611f86565b896120ab565b6109a383896120ab565b613ff7565b6140ca565b6109a39061043493946120ab565b5060001961412f61098783876120ab565b1461409d565b61043492936141466109a392611f86565b906120ab565b5060001961415f6109876140b484611f86565b1461408f565b506000196141786109876140b484611f86565b14614082565b506141898183612097565b518511614060565b5090926104349250613fcf565b806000196141b16109876001948b6120ab565b146141dd5760046141c8613969610987848c6120ab565b5001546141d58286612097565b525b01614046565b806141f35760006141ed8561208a565b526141d7565b6142056141ff82611f86565b85612097565b516141ed8286612097565b919060018301816000528060205260ff604060002054166142d857600084545b80821061429657506142428386613fcf565b61424c8554611f86565b81811161426b575090613dd9836109a361335c9594613df297986120ab565b8061410661428761098761428161429195611f86565b8a6120ab565b6109a3838a6120ab565b61424c565b90818101808211611e625760011c90846142b083896120ab565b90549060031b1c106000146142d1575060018101809111611e625790614230565b9150614230565b506000925050565b604051906142ed826103e5565b60606080836000815260006020820152600060408201526000838201520152565b1561431557565b606460405162461bcd60e51b815260206004820152601560248201527f706f736974696f6e2073697a65206973207a65726f00000000000000000000006044820152fd5b612b4b612b397f68cbb1c862d9d961359025e53792aa8be48fcf01d4712cf5dfd194d2a184a7699895979493612c7d6143ae946143946142e0565b506001600160a01b0316600052600b602052604060002090565b90602082016143bf8151151561430e565b86159283159384614551575b614458575b5050505090614453916144156143e4610436565b60018152600060208201528660408201528560608201528260808201528360a0820152612f62612f52600654611f86565b614420600654611f86565b9360405195869586919260a093969594919660c08401978452600060208501526040840152606083015260808201520152565b0390a1565b9061446661446e9251611ff9565b905190612030565b9180614512575b1561449257505050509061445360009283925b90913880806143d0565b82151591826144b9575b50506144ad575b9061445391614488565b925090506000806144a3565b9091506144c582610205565b600182149182614508575b82156144e0575b5050388061449c565b60029192506144ee81610205565b1490816144fe575b5038806144d7565b90508110386144f6565b81841192506144d0565b5061451c81610205565b6001811480614548575b80614475575061453581610205565b6002811480156144755750818611614475565b50818610614526565b5084156143cb565b60ff7ff0c57e16840df040f15088dc2f81fe391c3923bec73e23a9662efc9c229c6a005460401c161561458857565b7fd7e6bcf80000000000000000000000000000000000000000000000000000000060005260046000fdfea2646970667358221220b76ec11e25fe8b22a8c98b4030540b5df79676780d78dd703b76439222afc0b964736f6c634300081c0033",
  "linkReferences": {},
  "deployedLinkReferences": {}
}