{
  "_format": "hh-sol-artifact-1",
  "contractName": "OrderBook",
  "sourceName": "contracts/OrderBook.sol",
  "abi": [
    {
      "inputs": [],
      "name": "InvalidInitialization",
      "type": "error"
    },
    {
      "inputs": [],
      "name": "NotInitializing",
      "type": "error"
    },
    {
      "inputs": [
        {
          "internalType": "address",
          "name": "owner",
          "type": "address"
        }
      ],
      "name": "OwnableInvalidOwner",
      "type": "error"
    },
    {
      "inputs": [
        {
          "internalType": "address",
          "name": "account",
          "type": "address"
        }
      ],
      "name": "OwnableUnauthorizedAccount",
      "type": "error"
    },
    {
      "anonymous": false,
      "inputs": [
        {
          "indexed": false,
          "internalType": "address",
          "name": "taker",
          "type": "address"
        },
        {
          "indexed": false,
          "internalType": "uint256",
          "name": "amount",
          "type": "uint256"
        },
        {
          "indexed": false,
          "internalType": "uint256",
          "name": "availableAmount",
          "type": "uint256"
        },
        {
          "indexed": false,
          "internalType": "uint256",
          "name": "marginAmount",
          "type": "uint256"
        },
        {
          "indexed": false,
          "internalType": "uint256",
          "name": "locked",
          "type": "uint256"
        },
        {
          "indexed": false,
          "internalType": "uint256",
          "name": "stage",
          "type": "uint256"
        },
        {
          "indexed": false,
          "internalType": "uint256",
          "name": "dif",
          "type": "uint256"
        }
      ],
      "name": "BalanceOfTaker",
      "type": "event"
    },
    {
      "anonymous": false,
      "inputs": [
        {
          "indexed": false,
          "internalType": "string",
          "name": "name",
          "type": "string"
        },
        {
          "indexed": true,
          "internalType": "address",
          "name": "taker",
          "type": "address"
        },
        {
          "indexed": true,
          "internalType": "address",
          "name": "token",
          "type": "address"
        },
        {
          "indexed": false,
          "internalType": "uint256",
          "name": "orderID",
          "type": "uint256"
        },
        {
          "indexed": false,
          "internalType": "enum ICommon.Direct",
          "name": "orderType",
          "type": "uint8"
        },
        {
          "indexed": false,
          "internalType": "enum IPerpetual.OrderState",
          "name": "state",
          "type": "uint8"
        },
        {
          "indexed": false,
          "internalType": "enum ICommon.Offset",
          "name": "offset",
          "type": "uint8"
        },
        {
          "indexed": false,
          "internalType": "uint256",
          "name": "amount",
          "type": "uint256"
        },
        {
          "indexed": false,
          "internalType": "uint256",
          "name": "targetPrice",
          "type": "uint256"
        },
        {
          "indexed": false,
          "internalType": "uint256",
          "name": "margin",
          "type": "uint256"
        },
        {
          "indexed": false,
          "internalType": "uint256",
          "name": "rewardGas",
          "type": "uint256"
        },
        {
          "indexed": false,
          "internalType": "uint256",
          "name": "tradingFee",
          "type": "uint256"
        },
        {
          "indexed": false,
          "internalType": "uint256",
          "name": "startTime",
          "type": "uint256"
        },
        {
          "indexed": false,
          "internalType": "uint256",
          "name": "goodTill",
          "type": "uint256"
        }
      ],
      "name": "CreateLimitedOrder",
      "type": "event"
    },
    {
      "anonymous": false,
      "inputs": [
        {
          "indexed": false,
          "internalType": "uint256",
          "name": "limitOrderID",
          "type": "uint256"
        },
        {
          "indexed": false,
          "internalType": "uint256",
          "name": "openLimitPrice",
          "type": "uint256"
        },
        {
          "indexed": false,
          "internalType": "uint256",
          "name": "gainTriggerPrice",
          "type": "uint256"
        },
        {
          "indexed": false,
          "internalType": "uint256",
          "name": "gainLimitPrice",
          "type": "uint256"
        },
        {
          "indexed": false,
          "internalType": "uint256",
          "name": "lossTriggerPrice",
          "type": "uint256"
        },
        {
          "indexed": false,
          "internalType": "uint256",
          "name": "lossLimitPrice",
          "type": "uint256"
        }
      ],
      "name": "CreateTriggerCondition",
      "type": "event"
    },
    {
      "anonymous": false,
      "inputs": [
        {
          "indexed": false,
          "internalType": "uint256",
          "name": "code",
          "type": "uint256"
        },
        {
          "indexed": false,
          "internalType": "uint256",
          "name": "orderID",
          "type": "uint256"
        },
        {
          "indexed": false,
          "internalType": "string",
          "name": "message",
          "type": "string"
        }
      ],
      "name": "ErrorInfo",
      "type": "event"
    },
    {
      "anonymous": false,
      "inputs": [
        {
          "indexed": false,
          "internalType": "uint256",
          "name": "code",
          "type": "uint256"
        },
        {
          "indexed": false,
          "internalType": "uint256",
          "name": "orderID",
          "type": "uint256"
        },
        {
          "indexed": false,
          "internalType": "bytes",
          "name": "message",
          "type": "bytes"
        }
      ],
      "name": "ExceptErrorInfo",
      "type": "event"
    },
    {
      "anonymous": false,
      "inputs": [
        {
          "indexed": false,
          "internalType": "uint64",
          "name": "version",
          "type": "uint64"
        }
      ],
      "name": "Initialized",
      "type": "event"
    },
    {
      "anonymous": false,
      "inputs": [
        {
          "indexed": false,
          "internalType": "string",
          "name": "name",
          "type": "string"
        },
        {
          "indexed": true,
          "internalType": "address",
          "name": "taker",
          "type": "address"
        },
        {
          "indexed": true,
          "internalType": "address",
          "name": "token",
          "type": "address"
        },
        {
          "indexed": false,
          "internalType": "uint256",
          "name": "orderID",
          "type": "uint256"
        },
        {
          "indexed": false,
          "internalType": "enum ICommon.Direct",
          "name": "orderType",
          "type": "uint8"
        },
        {
          "indexed": false,
          "internalType": "enum IPerpetual.OrderState",
          "name": "state",
          "type": "uint8"
        },
        {
          "indexed": false,
          "internalType": "enum ICommon.Offset",
          "name": "offset",
          "type": "uint8"
        },
        {
          "indexed": false,
          "internalType": "uint256",
          "name": "amount",
          "type": "uint256"
        },
        {
          "indexed": false,
          "internalType": "uint256",
          "name": "targetPrice",
          "type": "uint256"
        },
        {
          "indexed": false,
          "internalType": "uint256",
          "name": "margin",
          "type": "uint256"
        },
        {
          "indexed": false,
          "internalType": "uint256",
          "name": "rewardGas",
          "type": "uint256"
        },
        {
          "indexed": false,
          "internalType": "uint256",
          "name": "tradingFee",
          "type": "uint256"
        },
        {
          "indexed": false,
          "internalType": "uint256",
          "name": "startTime",
          "type": "uint256"
        },
        {
          "indexed": false,
          "internalType": "uint256",
          "name": "goodTill",
          "type": "uint256"
        }
      ],
      "name": "LimitedOrderHistory",
      "type": "event"
    },
    {
      "anonymous": false,
      "inputs": [
        {
          "indexed": true,
          "internalType": "address",
          "name": "taker",
          "type": "address"
        },
        {
          "indexed": false,
          "internalType": "string",
          "name": "name",
          "type": "string"
        },
        {
          "indexed": false,
          "internalType": "address",
          "name": "token",
          "type": "address"
        },
        {
          "indexed": false,
          "internalType": "uint256",
          "name": "orderID",
          "type": "uint256"
        },
        {
          "indexed": false,
          "internalType": "enum ICommon.Direct",
          "name": "direction",
          "type": "uint8"
        },
        {
          "indexed": false,
          "internalType": "enum IPerpetual.OrderType",
          "name": "orderType",
          "type": "uint8"
        },
        {
          "indexed": false,
          "internalType": "uint256",
          "name": "amount",
          "type": "uint256"
        },
        {
          "indexed": false,
          "internalType": "uint256",
          "name": "costPrice",
          "type": "uint256"
        },
        {
          "indexed": false,
          "internalType": "uint256",
          "name": "price",
          "type": "uint256"
        },
        {
          "indexed": false,
          "internalType": "uint256",
          "name": "tradingFee",
          "type": "uint256"
        },
        {
          "indexed": false,
          "internalType": "uint256",
          "name": "limitOrderId",
          "type": "uint256"
        },
        {
          "indexed": false,
          "internalType": "uint256",
          "name": "timestamp",
          "type": "uint256"
        }
      ],
      "name": "OrderHistory",
      "type": "event"
    },
    {
      "anonymous": false,
      "inputs": [
        {
          "indexed": true,
          "internalType": "address",
          "name": "previousOwner",
          "type": "address"
        },
        {
          "indexed": true,
          "internalType": "address",
          "name": "newOwner",
          "type": "address"
        }
      ],
      "name": "OwnershipTransferred",
      "type": "event"
    },
    {
      "anonymous": false,
      "inputs": [
        {
          "indexed": false,
          "internalType": "address",
          "name": "",
          "type": "address"
        },
        {
          "indexed": false,
          "internalType": "bool",
          "name": "",
          "type": "bool"
        }
      ],
      "name": "SetKeeper",
      "type": "event"
    },
    {
      "anonymous": false,
      "inputs": [
        {
          "indexed": false,
          "internalType": "address",
          "name": "token",
          "type": "address"
        },
        {
          "indexed": false,
          "internalType": "uint256",
          "name": "orderID",
          "type": "uint256"
        },
        {
          "indexed": false,
          "internalType": "uint256",
          "name": "dealID",
          "type": "uint256"
        },
        {
          "indexed": false,
          "internalType": "enum IPerpetual.TradeType",
          "name": "tradeType",
          "type": "uint8"
        },
        {
          "indexed": false,
          "internalType": "uint256",
          "name": "amount",
          "type": "uint256"
        },
        {
          "indexed": false,
          "internalType": "uint256",
          "name": "price",
          "type": "uint256"
        },
        {
          "indexed": false,
          "internalType": "uint256",
          "name": "tradingFee",
          "type": "uint256"
        },
        {
          "indexed": false,
          "internalType": "uint256",
          "name": "profit",
          "type": "uint256"
        },
        {
          "indexed": false,
          "internalType": "uint256",
          "name": "loss",
          "type": "uint256"
        },
        {
          "indexed": false,
          "internalType": "uint256",
          "name": "timestamp",
          "type": "uint256"
        }
      ],
      "name": "TradeHistory",
      "type": "event"
    },
    {
      "anonymous": false,
      "inputs": [
        {
          "indexed": true,
          "internalType": "address",
          "name": "token",
          "type": "address"
        },
        {
          "indexed": true,
          "internalType": "address",
          "name": "sender",
          "type": "address"
        },
        {
          "indexed": true,
          "internalType": "address",
          "name": "received",
          "type": "address"
        },
        {
          "indexed": false,
          "internalType": "enum ICommon.TransactionType",
          "name": "transactionType",
          "type": "uint8"
        },
        {
          "indexed": false,
          "internalType": "uint256",
          "name": "amount",
          "type": "uint256"
        },
        {
          "indexed": false,
          "internalType": "uint256",
          "name": "timestamp",
          "type": "uint256"
        }
      ],
      "name": "TransactionHistory",
      "type": "event"
    },
    {
      "anonymous": false,
      "inputs": [
        {
          "indexed": false,
          "internalType": "address",
          "name": "token",
          "type": "address"
        },
        {
          "indexed": false,
          "internalType": "address",
          "name": "sender",
          "type": "address"
        },
        {
          "indexed": false,
          "internalType": "address",
          "name": "received",
          "type": "address"
        },
        {
          "indexed": false,
          "internalType": "enum ICommon.TransactionType",
          "name": "transactionType",
          "type": "uint8"
        },
        {
          "indexed": false,
          "internalType": "uint256",
          "name": "amount",
          "type": "uint256"
        },
        {
          "indexed": false,
          "internalType": "uint256",
          "name": "timestamp",
          "type": "uint256"
        }
      ],
      "name": "TransferFee",
      "type": "event"
    },
    {
      "anonymous": false,
      "inputs": [
        {
          "indexed": false,
          "internalType": "uint8",
          "name": "direct",
          "type": "uint8"
        },
        {
          "indexed": false,
          "internalType": "uint256",
          "name": "price",
          "type": "uint256"
        },
        {
          "indexed": false,
          "internalType": "uint256",
          "name": "value",
          "type": "uint256"
        }
      ],
      "name": "indexPosition",
      "type": "event"
    },
    {
      "anonymous": false,
      "inputs": [
        {
          "indexed": false,
          "internalType": "address",
          "name": "sender",
          "type": "address"
        },
        {
          "indexed": false,
          "internalType": "uint256",
          "name": "beforeLeverage",
          "type": "uint256"
        },
        {
          "indexed": false,
          "internalType": "uint256",
          "name": "afterLeverage",
          "type": "uint256"
        }
      ],
      "name": "setLeverage",
      "type": "event"
    },
    {
      "stateMutability": "nonpayable",
      "type": "fallback"
    },
    {
      "inputs": [
        {
          "internalType": "uint256",
          "name": "_oid",
          "type": "uint256"
        },
        {
          "internalType": "address",
          "name": "_holder",
          "type": "address"
        },
        {
          "internalType": "bool",
          "name": "liquidated",
          "type": "bool"
        }
      ],
      "name": "cancelOrder",
      "outputs": [
        {
          "internalType": "uint256",
          "name": "lockedAmount",
          "type": "uint256"
        }
      ],
      "stateMutability": "nonpayable",
      "type": "function"
    },
    {
      "inputs": [
        {
          "internalType": "address",
          "name": "_taker",
          "type": "address"
        },
        {
          "internalType": "string",
          "name": "_pair",
          "type": "string"
        },
        {
          "internalType": "enum ICommon.Direct",
          "name": "_type",
          "type": "uint8"
        },
        {
          "internalType": "uint256",
          "name": "_currentPrice",
          "type": "uint256"
        },
        {
          "internalType": "uint256",
          "name": "_deposit",
          "type": "uint256"
        }
      ],
      "name": "clearingTakerPosition",
      "outputs": [
        {
          "internalType": "uint256",
          "name": "deposit",
          "type": "uint256"
        }
      ],
      "stateMutability": "nonpayable",
      "type": "function"
    },
    {
      "inputs": [
        {
          "internalType": "address",
          "name": "_taker",
          "type": "address"
        },
        {
          "internalType": "uint256",
          "name": "_dealID",
          "type": "uint256"
        },
        {
          "internalType": "uint256",
          "name": "_amount",
          "type": "uint256"
        },
        {
          "internalType": "enum ICommon.Direct",
          "name": "_type",
          "type": "uint8"
        },
        {
          "internalType": "uint256",
          "name": "_currentPrice",
          "type": "uint256"
        },
        {
          "internalType": "uint256",
          "name": "tradeFeeRate",
          "type": "uint256"
        },
        {
          "internalType": "uint256",
          "name": "releaseSize",
          "type": "uint256"
        }
      ],
      "name": "closeDeal",
      "outputs": [
        {
          "internalType": "uint256",
          "name": "profit",
          "type": "uint256"
        },
        {
          "internalType": "uint256",
          "name": "loss",
          "type": "uint256"
        },
        {
          "internalType": "uint256",
          "name": "margin",
          "type": "uint256"
        }
      ],
      "stateMutability": "nonpayable",
      "type": "function"
    },
    {
      "inputs": [
        {
          "internalType": "uint256",
          "name": "_start",
          "type": "uint256"
        },
        {
          "internalType": "uint256",
          "name": "_end",
          "type": "uint256"
        },
        {
          "internalType": "uint256",
          "name": "_count",
          "type": "uint256"
        }
      ],
      "name": "getActiveDeals",
      "outputs": [
        {
          "components": [
            {
              "internalType": "address payable",
              "name": "taker",
              "type": "address"
            },
            {
              "internalType": "enum ICommon.Direct",
              "name": "direct",
              "type": "uint8"
            },
            {
              "internalType": "enum ICommon.DealState",
              "name": "state",
              "type": "uint8"
            },
            {
              "internalType": "enum ICommon.Offset",
              "name": "offset",
              "type": "uint8"
            },
            {
              "internalType": "uint256",
              "name": "orderID",
              "type": "uint256"
            },
            {
              "internalType": "string",
              "name": "name",
              "type": "string"
            },
            {
              "internalType": "uint256",
              "name": "amount",
              "type": "uint256"
            },
            {
              "internalType": "uint256",
              "name": "price",
              "type": "uint256"
            },
            {
              "internalType": "uint256",
              "name": "margin",
              "type": "uint256"
            },
            {
              "internalType": "uint256",
              "name": "tradingFee",
              "type": "uint256"
            },
            {
              "internalType": "uint256",
              "name": "timestamp",
              "type": "uint256"
            }
          ],
          "internalType": "struct ICommon.Deal[]",
          "name": "info",
          "type": "tuple[]"
        },
        {
          "internalType": "uint256[]",
          "name": "ids",
          "type": "uint256[]"
        },
        {
          "internalType": "uint256",
          "name": "end",
          "type": "uint256"
        }
      ],
      "stateMutability": "view",
      "type": "function"
    },
    {
      "inputs": [
        {
          "internalType": "uint256",
          "name": "_start",
          "type": "uint256"
        },
        {
          "internalType": "uint256",
          "name": "_end",
          "type": "uint256"
        },
        {
          "internalType": "uint256",
          "name": "_count",
          "type": "uint256"
        }
      ],
      "name": "getActiveLimitedOrders",
      "outputs": [
        {
          "components": [
            {
              "internalType": "address payable",
              "name": "taker",
              "type": "address"
            },
            {
              "internalType": "enum ICommon.Direct",
              "name": "direct",
              "type": "uint8"
            },
            {
              "internalType": "enum IPerpetual.OrderState",
              "name": "state",
              "type": "uint8"
            },
            {
              "internalType": "enum ICommon.Offset",
              "name": "offset",
              "type": "uint8"
            },
            {
              "internalType": "string",
              "name": "name",
              "type": "string"
            },
            {
              "internalType": "uint256",
              "name": "amount",
              "type": "uint256"
            },
            {
              "internalType": "uint256",
              "name": "targetPrice",
              "type": "uint256"
            },
            {
              "internalType": "uint256",
              "name": "margin",
              "type": "uint256"
            },
            {
              "internalType": "uint256",
              "name": "tradingFee",
              "type": "uint256"
            },
            {
              "internalType": "uint256",
              "name": "rewardGas",
              "type": "uint256"
            },
            {
              "internalType": "uint256",
              "name": "startTime",
              "type": "uint256"
            },
            {
              "internalType": "uint256",
              "name": "goodTill",
              "type": "uint256"
            }
          ],
          "internalType": "struct IPerpetual.LimitedOrder[]",
          "name": "info",
          "type": "tuple[]"
        },
        {
          "internalType": "uint256[]",
          "name": "ids",
          "type": "uint256[]"
        },
        {
          "internalType": "uint256",
          "name": "end",
          "type": "uint256"
        }
      ],
      "stateMutability": "view",
      "type": "function"
    },
    {
      "inputs": [],
      "name": "getAndIncreaseOrderID",
      "outputs": [
        {
          "internalType": "uint256",
          "name": "length",
          "type": "uint256"
        }
      ],
      "stateMutability": "nonpayable",
      "type": "function"
    },
    {
      "inputs": [
        {
          "internalType": "uint256",
          "name": "id",
          "type": "uint256"
        }
      ],
      "name": "getDeal",
      "outputs": [
        {
          "components": [
            {
              "internalType": "address payable",
              "name": "taker",
              "type": "address"
            },
            {
              "internalType": "enum ICommon.Direct",
              "name": "direct",
              "type": "uint8"
            },
            {
              "internalType": "enum ICommon.DealState",
              "name": "state",
              "type": "uint8"
            },
            {
              "internalType": "enum ICommon.Offset",
              "name": "offset",
              "type": "uint8"
            },
            {
              "internalType": "uint256",
              "name": "orderID",
              "type": "uint256"
            },
            {
              "internalType": "string",
              "name": "name",
              "type": "string"
            },
            {
              "internalType": "uint256",
              "name": "amount",
              "type": "uint256"
            },
            {
              "internalType": "uint256",
              "name": "price",
              "type": "uint256"
            },
            {
              "internalType": "uint256",
              "name": "margin",
              "type": "uint256"
            },
            {
              "internalType": "uint256",
              "name": "tradingFee",
              "type": "uint256"
            },
            {
              "internalType": "uint256",
              "name": "timestamp",
              "type": "uint256"
            }
          ],
          "internalType": "struct ICommon.Deal",
          "name": "",
          "type": "tuple"
        }
      ],
      "stateMutability": "view",
      "type": "function"
    },
    {
      "inputs": [],
      "name": "getDealLength",
      "outputs": [
        {
          "internalType": "uint256",
          "name": "length",
          "type": "uint256"
        }
      ],
      "stateMutability": "view",
      "type": "function"
    },
    {
      "inputs": [
        {
          "internalType": "uint256[]",
          "name": "_ids",
          "type": "uint256[]"
        }
      ],
      "name": "getDeals",
      "outputs": [
        {
          "components": [
            {
              "internalType": "address payable",
              "name": "taker",
              "type": "address"
            },
            {
              "internalType": "enum ICommon.Direct",
              "name": "direct",
              "type": "uint8"
            },
            {
              "internalType": "enum ICommon.DealState",
              "name": "state",
              "type": "uint8"
            },
            {
              "internalType": "enum ICommon.Offset",
              "name": "offset",
              "type": "uint8"
            },
            {
              "internalType": "uint256",
              "name": "orderID",
              "type": "uint256"
            },
            {
              "internalType": "string",
              "name": "name",
              "type": "string"
            },
            {
              "internalType": "uint256",
              "name": "amount",
              "type": "uint256"
            },
            {
              "internalType": "uint256",
              "name": "price",
              "type": "uint256"
            },
            {
              "internalType": "uint256",
              "name": "margin",
              "type": "uint256"
            },
            {
              "internalType": "uint256",
              "name": "tradingFee",
              "type": "uint256"
            },
            {
              "internalType": "uint256",
              "name": "timestamp",
              "type": "uint256"
            }
          ],
          "internalType": "struct ICommon.Deal[]",
          "name": "info",
          "type": "tuple[]"
        }
      ],
      "stateMutability": "view",
      "type": "function"
    },
    {
      "inputs": [
        {
          "internalType": "address",
          "name": "_taker",
          "type": "address"
        },
        {
          "internalType": "string",
          "name": "_name",
          "type": "string"
        },
        {
          "internalType": "enum ICommon.Direct",
          "name": "_type",
          "type": "uint8"
        }
      ],
      "name": "getDealsByPosition",
      "outputs": [
        {
          "internalType": "uint256[]",
          "name": "_deals",
          "type": "uint256[]"
        }
      ],
      "stateMutability": "view",
      "type": "function"
    },
    {
      "inputs": [
        {
          "internalType": "uint256[]",
          "name": "_ids",
          "type": "uint256[]"
        }
      ],
      "name": "getLimitOrders",
      "outputs": [
        {
          "components": [
            {
              "internalType": "address payable",
              "name": "taker",
              "type": "address"
            },
            {
              "internalType": "enum ICommon.Direct",
              "name": "direct",
              "type": "uint8"
            },
            {
              "internalType": "enum IPerpetual.OrderState",
              "name": "state",
              "type": "uint8"
            },
            {
              "internalType": "enum ICommon.Offset",
              "name": "offset",
              "type": "uint8"
            },
            {
              "internalType": "string",
              "name": "name",
              "type": "string"
            },
            {
              "internalType": "uint256",
              "name": "amount",
              "type": "uint256"
            },
            {
              "internalType": "uint256",
              "name": "targetPrice",
              "type": "uint256"
            },
            {
              "internalType": "uint256",
              "name": "margin",
              "type": "uint256"
            },
            {
              "internalType": "uint256",
              "name": "tradingFee",
              "type": "uint256"
            },
            {
              "internalType": "uint256",
              "name": "rewardGas",
              "type": "uint256"
            },
            {
              "internalType": "uint256",
              "name": "startTime",
              "type": "uint256"
            },
            {
              "internalType": "uint256",
              "name": "goodTill",
              "type": "uint256"
            }
          ],
          "internalType": "struct IPerpetual.LimitedOrder[]",
          "name": "info",
          "type": "tuple[]"
        }
      ],
      "stateMutability": "view",
      "type": "function"
    },
    {
      "inputs": [
        {
          "internalType": "uint256",
          "name": "id",
          "type": "uint256"
        }
      ],
      "name": "getLimitedOrder",
      "outputs": [
        {
          "components": [
            {
              "internalType": "address payable",
              "name": "taker",
              "type": "address"
            },
            {
              "internalType": "enum ICommon.Direct",
              "name": "direct",
              "type": "uint8"
            },
            {
              "internalType": "enum IPerpetual.OrderState",
              "name": "state",
              "type": "uint8"
            },
            {
              "internalType": "enum ICommon.Offset",
              "name": "offset",
              "type": "uint8"
            },
            {
              "internalType": "string",
              "name": "name",
              "type": "string"
            },
            {
              "internalType": "uint256",
              "name": "amount",
              "type": "uint256"
            },
            {
              "internalType": "uint256",
              "name": "targetPrice",
              "type": "uint256"
            },
            {
              "internalType": "uint256",
              "name": "margin",
              "type": "uint256"
            },
            {
              "internalType": "uint256",
              "name": "tradingFee",
              "type": "uint256"
            },
            {
              "internalType": "uint256",
              "name": "rewardGas",
              "type": "uint256"
            },
            {
              "internalType": "uint256",
              "name": "startTime",
              "type": "uint256"
            },
            {
              "internalType": "uint256",
              "name": "goodTill",
              "type": "uint256"
            }
          ],
          "internalType": "struct IPerpetual.LimitedOrder",
          "name": "",
          "type": "tuple"
        }
      ],
      "stateMutability": "view",
      "type": "function"
    },
    {
      "inputs": [],
      "name": "getLimitedOrderLength",
      "outputs": [
        {
          "internalType": "uint256",
          "name": "length",
          "type": "uint256"
        }
      ],
      "stateMutability": "view",
      "type": "function"
    },
    {
      "inputs": [],
      "name": "getOrderID",
      "outputs": [
        {
          "internalType": "uint256",
          "name": "length",
          "type": "uint256"
        }
      ],
      "stateMutability": "view",
      "type": "function"
    },
    {
      "inputs": [
        {
          "internalType": "uint256",
          "name": "_id",
          "type": "uint256"
        }
      ],
      "name": "getTriggerCondition",
      "outputs": [
        {
          "components": [
            {
              "internalType": "uint256",
              "name": "mean",
              "type": "uint256"
            },
            {
              "internalType": "uint256",
              "name": "openLimitPrice",
              "type": "uint256"
            },
            {
              "internalType": "uint256",
              "name": "gainTriggerPrice",
              "type": "uint256"
            },
            {
              "internalType": "uint256",
              "name": "gainLimitPrice",
              "type": "uint256"
            },
            {
              "internalType": "uint256",
              "name": "lossTriggerPrice",
              "type": "uint256"
            },
            {
              "internalType": "uint256",
              "name": "lossLimitPrice",
              "type": "uint256"
            }
          ],
          "internalType": "struct IPerpetual.TriggerCondition",
          "name": "",
          "type": "tuple"
        }
      ],
      "stateMutability": "view",
      "type": "function"
    },
    {
      "inputs": [
        {
          "internalType": "uint256[]",
          "name": "_ids",
          "type": "uint256[]"
        }
      ],
      "name": "getTriggerConditions",
      "outputs": [
        {
          "components": [
            {
              "internalType": "uint256",
              "name": "mean",
              "type": "uint256"
            },
            {
              "internalType": "uint256",
              "name": "openLimitPrice",
              "type": "uint256"
            },
            {
              "internalType": "uint256",
              "name": "gainTriggerPrice",
              "type": "uint256"
            },
            {
              "internalType": "uint256",
              "name": "gainLimitPrice",
              "type": "uint256"
            },
            {
              "internalType": "uint256",
              "name": "lossTriggerPrice",
              "type": "uint256"
            },
            {
              "internalType": "uint256",
              "name": "lossLimitPrice",
              "type": "uint256"
            }
          ],
          "internalType": "struct IPerpetual.TriggerCondition[]",
          "name": "info",
          "type": "tuple[]"
        }
      ],
      "stateMutability": "view",
      "type": "function"
    },
    {
      "inputs": [
        {
          "internalType": "address",
          "name": "user",
          "type": "address"
        }
      ],
      "name": "getUserDealsID",
      "outputs": [
        {
          "internalType": "uint256[]",
          "name": "",
          "type": "uint256[]"
        }
      ],
      "stateMutability": "view",
      "type": "function"
    },
    {
      "inputs": [
        {
          "internalType": "address",
          "name": "user",
          "type": "address"
        }
      ],
      "name": "getUserLimitOrdersID",
      "outputs": [
        {
          "internalType": "uint256[]",
          "name": "",
          "type": "uint256[]"
        }
      ],
      "stateMutability": "view",
      "type": "function"
    },
    {
      "inputs": [
        {
          "internalType": "address",
          "name": "initialOwner",
          "type": "address"
        },
        {
          "internalType": "address",
          "name": "_priPool",
          "type": "address"
        },
        {
          "internalType": "address",
          "name": "_perpetual",
          "type": "address"
        },
        {
          "internalType": "address",
          "name": "_settle",
          "type": "address"
        }
      ],
      "name": "initialize",
      "outputs": [],
      "stateMutability": "nonpayable",
      "type": "function"
    },
    {
      "inputs": [
        {
          "internalType": "uint256",
          "name": "_dealID",
          "type": "uint256"
        },
        {
          "internalType": "string[]",
          "name": "_symbols",
          "type": "string[]"
        },
        {
          "internalType": "uint256[]",
          "name": "_prices",
          "type": "uint256[]"
        }
      ],
      "name": "liquidateMakerDeal",
      "outputs": [
        {
          "internalType": "bool",
          "name": "isLiquidated",
          "type": "bool"
        },
        {
          "internalType": "bool",
          "name": "isAgreement",
          "type": "bool"
        },
        {
          "internalType": "uint256",
          "name": "userProfit",
          "type": "uint256"
        },
        {
          "internalType": "address",
          "name": "taker",
          "type": "address"
        },
        {
          "internalType": "uint256",
          "name": "margin",
          "type": "uint256"
        }
      ],
      "stateMutability": "nonpayable",
      "type": "function"
    },
    {
      "inputs": [
        {
          "internalType": "address",
          "name": "_taker",
          "type": "address"
        },
        {
          "internalType": "string",
          "name": "_name",
          "type": "string"
        },
        {
          "internalType": "enum ICommon.Direct",
          "name": "_type",
          "type": "uint8"
        },
        {
          "internalType": "enum ICommon.Offset",
          "name": "_offset",
          "type": "uint8"
        },
        {
          "internalType": "uint256",
          "name": "_amount",
          "type": "uint256"
        },
        {
          "internalType": "uint256",
          "name": "_price",
          "type": "uint256"
        },
        {
          "internalType": "uint256",
          "name": "_tradingFee",
          "type": "uint256"
        },
        {
          "internalType": "uint256",
          "name": "_rewardGas",
          "type": "uint256"
        },
        {
          "internalType": "uint256",
          "name": "_marginAmount",
          "type": "uint256"
        },
        {
          "internalType": "uint256",
          "name": "_goodTill",
          "type": "uint256"
        },
        {
          "internalType": "bool",
          "name": "condition",
          "type": "bool"
        },
        {
          "internalType": "uint256",
          "name": "_dueGas",
          "type": "uint256"
        }
      ],
      "name": "makeLimitedOrder",
      "outputs": [],
      "stateMutability": "payable",
      "type": "function"
    },
    {
      "inputs": [
        {
          "internalType": "address",
          "name": "_taker",
          "type": "address"
        },
        {
          "internalType": "string",
          "name": "_name",
          "type": "string"
        },
        {
          "internalType": "enum ICommon.Direct",
          "name": "_type",
          "type": "uint8"
        },
        {
          "internalType": "enum IPerpetual.OrderType",
          "name": "_orderType",
          "type": "uint8"
        },
        {
          "internalType": "uint256",
          "name": "_amount",
          "type": "uint256"
        },
        {
          "internalType": "uint256",
          "name": "_total",
          "type": "uint256"
        },
        {
          "internalType": "uint256",
          "name": "_tradingFee",
          "type": "uint256"
        },
        {
          "internalType": "uint256",
          "name": "_marginAmount",
          "type": "uint256"
        },
        {
          "internalType": "uint256",
          "name": "_currentPrice",
          "type": "uint256"
        },
        {
          "internalType": "uint256",
          "name": "_limitID",
          "type": "uint256"
        }
      ],
      "name": "openOrder",
      "outputs": [],
      "stateMutability": "nonpayable",
      "type": "function"
    },
    {
      "inputs": [],
      "name": "owner",
      "outputs": [
        {
          "internalType": "address",
          "name": "",
          "type": "address"
        }
      ],
      "stateMutability": "view",
      "type": "function"
    },
    {
      "inputs": [
        {
          "internalType": "address",
          "name": "",
          "type": "address"
        },
        {
          "internalType": "string",
          "name": "",
          "type": "string"
        },
        {
          "internalType": "uint256",
          "name": "",
          "type": "uint256"
        }
      ],
      "name": "positions",
      "outputs": [
        {
          "internalType": "uint256",
          "name": "value",
          "type": "uint256"
        },
        {
          "internalType": "uint256",
          "name": "size",
          "type": "uint256"
        },
        {
          "internalType": "uint256",
          "name": "margin",
          "type": "uint256"
        },
        {
          "internalType": "uint256",
          "name": "freeze",
          "type": "uint256"
        }
      ],
      "stateMutability": "view",
      "type": "function"
    },
    {
      "inputs": [],
      "name": "renounceOwnership",
      "outputs": [],
      "stateMutability": "nonpayable",
      "type": "function"
    },
    {
      "inputs": [
        {
          "internalType": "address",
          "name": "_agent",
          "type": "address"
        },
        {
          "internalType": "address",
          "name": "_station",
          "type": "address"
        }
      ],
      "name": "setKeepers",
      "outputs": [],
      "stateMutability": "nonpayable",
      "type": "function"
    },
    {
      "inputs": [
        {
          "internalType": "address",
          "name": "newOwner",
          "type": "address"
        }
      ],
      "name": "transferOwnership",
      "outputs": [],
      "stateMutability": "nonpayable",
      "type": "function"
    },
    {
      "inputs": [
        {
          "internalType": "uint256",
          "name": "limitID",
          "type": "uint256"
        },
        {
          "internalType": "enum IPerpetual.OrderState",
          "name": "state",
          "type": "uint8"
        },
        {
          "internalType": "uint256",
          "name": "rewardGas",
          "type": "uint256"
        }
      ],
      "name": "updateLimitOrder",
      "outputs": [],
      "stateMutability": "nonpayable",
      "type": "function"
    },
    {
      "inputs": [
        {
          "internalType": "uint256",
          "name": "limitOrderID",
          "type": "uint256"
        },
        {
          "internalType": "uint256",
          "name": "_mean",
          "type": "uint256"
        },
        {
          "internalType": "uint256",
          "name": "_openLimitPrice",
          "type": "uint256"
        },
        {
          "internalType": "uint256",
          "name": "_gainTriggerPrice",
          "type": "uint256"
        },
        {
          "internalType": "uint256",
          "name": "_gainLimitPrice",
          "type": "uint256"
        },
        {
          "internalType": "uint256",
          "name": "_lossTriggerPrice",
          "type": "uint256"
        },
        {
          "internalType": "uint256",
          "name": "_lossLimitPrice",
          "type": "uint256"
        }
      ],
      "name": "updateTriggerCondition",
      "outputs": [],
      "stateMutability": "nonpayable",
      "type": "function"
    }
  ],
  "bytecode": "0x60808060405234601557614b17908161001b8239f35b600080fdfe6080604052600436101561001a575b3461001557005b600080fd5b60003560e01c80630187703f146101ea5780630374c555146101e55780630c3fc6b9146101e05780630c8c3516146101db5780630f12fb59146101d65780631b31c071146101d15780632b000206146101cc57806349138690146101c757806352e282a7146101c2578063530e011e146101bd578063620de4da146101b85780636f4907cb146101b3578063715018a6146101ae57806375ffb53d146101a957806382fd5bac146101a45780638da5cb5b1461019f5780639324b5491461019a578063ac6b96a214610195578063ac89c79814610190578063b81198881461018b578063b99ac92714610186578063be63309e14610181578063bfffc8bb1461017c578063c2b3356414610177578063c3710f2514610172578063dcee34751461016d578063e771ad7214610168578063f2fde38b146101635763f8c8765e0361000e57611b7b565b611b52565b611a4b565b61192a565b61190c565b6118b8565b61183c565b6117b4565b611767565b611749565b6115df565b611570565b6114ed565b6114a7565b611468565b61133b565b6111f4565b6111ba565b61116c565b6110f2565b611073565b610f43565b610e75565b6109aa565b6108f8565b6107e9565b610664565b610471565b610234565b6102329092919260c081019360a0809180518452602081015160208501526040810151604085015260608101516060850152608081015160808501520151910152565b565b3461001557602060031936011261001557600435610250611dd1565b50600052600c6020526102af6040600020600560405191610270836102c9565b8054835260018101546020840152600281015460408401526003810154606084015260048101546080840152015460a0820152604051918291826101ef565b0390f35b634e487b7160e01b600052604160045260246000fd5b60c0810190811067ffffffffffffffff8211176102e557604052565b6102b3565b60a0810190811067ffffffffffffffff8211176102e557604052565b90601f601f19910116810190811067ffffffffffffffff8211176102e557604052565b6040519061023261018083610306565b6040519061023261016083610306565b6040519061023260c083610306565b67ffffffffffffffff81116102e55760051b60200190565b9080601f8301121561001557813561038781610358565b926103956040519485610306565b81845260208085019260051b82010192831161001557602001905b8282106103bd5750505090565b81358152602091820191016103b0565b6020600319820112610015576004359067ffffffffffffffff8211610015576103f891600401610370565b90565b602060408183019282815284518094520192019060005b81811061041f5750505090565b909192602060c082610466600194885160a0809180518452602081015160208501526040810151604085015260608101516060850152608081015160808501520151910152565b019401929101610412565b346100155761047f366103cd565b805161048a81610358565b916104986040519384610306565b818352601f196104a783610358565b0160005b81811061051157505060005b8281106104cc57604051806102af86826103fb565b806104f56104f06104df60019486611e55565b51600052600c602052604060002090565b611e02565b6104ff8287611e55565b5261050a8186611e55565b50016104b7565b60209061051c611dd1565b828288010152016104ab565b634e487b7160e01b600052602160045260246000fd5b6003111561054857565b610528565b906105578261053e565b52565b6008111561054857565b906105578261055a565b60005b8381106105815750506000910152565b8181015183820152602001610571565b90601f19601f6020936105af8151809281875287808801910161056e565b0116010190565b80516001600160a01b03168252906105d66020830151602083019061054d565b6105e860408301516040830190610564565b6105fa6060830151606083019061054d565b6101608061061960808501516101806080860152610180850190610591565b9360a081015160a085015260c081015160c085015260e081015160e0850152610100810151610100850152610120810151610120850152610140810151610140850152015191015290565b34610015576020600319360112610015576102af61069561068f600435610689611e69565b50611ed5565b50611fdf565b6040519182916020835260208301906105b6565b600435906001600160a01b038216820361001557565b602435906001600160a01b038216820361001557565b604435906001600160a01b038216820361001557565b606435906001600160a01b038216820361001557565b67ffffffffffffffff81116102e557601f01601f191660200190565b81601f820112156100155780359061073482610701565b926107426040519485610306565b8284526020838301011161001557816000926020809301838601378301015290565b6001600160a01b03166000526008602052604060002090565b906107906020928281519485920161056e565b0190565b6020906107ae92826040519483868095519384920161056e565b82019081520301902090565b634e487b7160e01b600052603260045260246000fd5b9060028110156107e4576005020190600090565b6107ba565b34610015576060600319360112610015576108026106a9565b60243567ffffffffffffffff811161001557602061082761085392369060040161071d565b6001600160a01b036044359416600052600b82526040600020826040519483868095519384920161056e565b8201908152030190209060028110156100155761086f916107d0565b5080546102af6001830154926003600282015491015490604051948594859094939260609260808301968352602083015260408201520152565b6003111561001557565b906020808351928381520192019060005b8181106108d15750505090565b82518452602093840193909201916001016108c4565b9060206103f89281815201906108b3565b34610015576060600319360112610015576109116106a9565b60243567ffffffffffffffff81116100155760046109976102af93610991610979602061094461099e973690880161071d565b6001600160a01b0360443595610959876108a9565b16600052600b82526040600020826040519483868095519384920161056e565b8201908152030190209161098c8161053e565b6120be565b906107d0565b50016120d1565b604051918291826108e7565b346100155760e0600319360112610015576109c36106a9565b602435604435916064356109d6816108a9565b60843560a4359060c4359133600052600a6020526109fb60ff6040600020541661211c565b600096610a0787612167565b5091610a26876001600160a01b0316600052600b602052604060002090565b98610a7b610a73610a54610a3e600288019d8e612186565b87546109919060a01c60ff165b61098c8161053e565b5097610a6560038a0191825461221e565b90819055600189015461221e565b84111561222b565b82158015610e68575b15610cf75750825460a01c60ff166004840191610aad868454936003880154948592839261400d565b919092610ad1610ac56003546001600160a01b031690565b6001600160a01b031690565b91823b15610015576040517ff5a4bc660000000000000000000000000000000000000000000000000000000081526001600160a01b038d166004820152602481018e9052604481019290925260036064830152608482019890985260a481019790975260c4870183905260e4870182905286610104815a6000948591f1928315610cf257600496610b6a94610cd7575b5054918a6141b3565b5050939094610bc4600585015494610b9e8b610b998c6001600160a01b03166000526009602052604060002090565b61423a565b50750300000000000000000000000000000000000000000060ff60a81b19825416179055565b0194610bcf866120d1565b9660005b8851811015610cbb5789610be7828b611e55565b5114610bf557600101610bd3565b87989950610c1f610c0f82610c249495969798999a612313565b60001982549160031b1b19169055565b61232b565b8851811015610c7a5780610c74610c4a610c406001948c612313565b90549060031b1c90565b610c5c610c568461220f565b8c612313565b90919060001983549160031b92831b921b1916179055565b01610c24565b50610c9e949750610c98849699610c936102af99612346565b611fc4565b90614362565b604051938493846040919493926060820195825260208201520152565b509091929550859397506102af9650610c98610c9e9599611fc4565b80610ce66000610cec93610306565b80610f38565b38610b61565b612276565b94509582610d0f819a959793945460ff9060a01c1690565b96610d2985600484019960038b549501948486549261400d565b9a9099610d41610ac56003546001600160a01b031690565b90813b15610e64576040517ff5a4bc660000000000000000000000000000000000000000000000000000000081526001600160a01b03871660048083019190915260248201859052604482018a90526064820152608481019490945260a484015260c483018b905260e483018c90528890839061010490829084905af18015610cf257610e489b6102af9b610c989b610c9e9b610de8968b95610e50575b505054936140f3565b505099909a6005810192835493610e14610e0d610e058a886122a6565b8454906122b9565b809661221e565b9055610e2187825461221e565b9055750200000000000000000000000000000000000000000060ff60a81b19825416179055565b958694611fc4565b610ce6610e5d9282610306565b3880610ddf565b8980fd5b5060038401548314610a84565b3461001557604060031936011261001557610f36610e916106a9565b610f0d6001600160a01b0380610ea56106bf565b93610eae614486565b169283600052600a6020526040600020600160ff19825416179055169182600052600a6020526040600020600160ff198254161790556001600160a01b031673ffffffffffffffffffffffffffffffffffffffff196003541617600355565b6001600160a01b031673ffffffffffffffffffffffffffffffffffffffff196004541617600455565b005b600091031261001557565b34610015576000600319360112610015576020600754604051908152f35b6006111561054857565b9060068210156105485752565b80516001600160a01b0316825290610f986020830151602083019061054d565b610faa60408301516040830190610f6b565b610fbc6060830151606083019061054d565b6080820151608082015261014080610fe560a085015161016060a0860152610160850190610591565b9360c081015160c085015260e081015160e0850152610100810151610100850152610120810151610120850152015191015290565b9080602083519182815201916020808360051b8301019401926000915b83831061104657505050505090565b909192939460208061106483601f1986600196030187528951610f78565b97019301930191939290611037565b3461001557611081366103cd565b805161108c816123de565b9160005b8281106110ad57604051602080825281906102af9082018761101a565b806110cc6110c66110c060019486611e55565b51612167565b50612439565b6110d68287611e55565b526110e18186611e55565b5001611090565b6008111561001557565b34610015576101406003193601126100155761110c6106a9565b6024359067ffffffffffffffff821161001557611130610f3692369060040161071d565b60443561113c816108a9565b606435611148816110e8565b60843560a4359060c4359260e4359461010435966111666101243590565b986124d3565b34610015576020600319360112610015576001600160a01b0361118d6106a9565b1660005260096020526102af6111a660406000206120d1565b6040519182916020835260208301906108b3565b34610015576020600319360112610015576001600160a01b036111db6106a9565b1660005260086020526102af6111a660406000206120d1565b346100155760006003193601126100155761120d614486565b60006001600160a01b037f9016d09d72d40fdae2fd8ceac6b6234c7706214fd39c1cd1e609a0528c1993005473ffffffffffffffffffffffffffffffffffffffff1981167f9016d09d72d40fdae2fd8ceac6b6234c7706214fd39c1cd1e609a0528c19930055167f8be0079c531659141344cd1fd0a4f28419497f9722a3daafe3b4186f6b6457e08280a3005b600319606091011261001557600435906024359060443590565b9080602083519182815201916020808360051b8301019401926000915b8383106112e057505050505090565b90919293946020806112fe83601f19866001960301875289516105b6565b970193019301919392906112d1565b939291611336906113286040936060885260608801906112b4565b9086820360208801526108b3565b930152565b34610015576113493661129a565b8192809260009160075480921161145e575b8110611456575b5092919261136f82612c0c565b9161137981612c5b565b945b8481108061144d575b156114275760016113a261139783611ed5565b505460a81c60ff1690565b6113ab8161055a565b148015611409575b6113c6575b6113c190612c8c565b61137b565b9161140181846113d96113c1948a611e55565b526113e661068f86611ed5565b6113f08288611e55565b526113fb8187611e55565b50612c8c565b9290506113b8565b50600261141861139783611ed5565b6114218161055a565b146113b3565b8593926102af928103611442575b506040519384938461130d565b808452845284611435565b50818310611384565b925038611362565b909450849061135b565b34610015576020600319360112610015576102af6114936110c660043561148d612379565b50612167565b604051918291602083526020830190610f78565b346100155760006003193601126100155760206001600160a01b037f9016d09d72d40fdae2fd8ceac6b6234c7706214fd39c1cd1e609a0528c1993005416604051908152f35b346100155760a0600319360112610015576115066106a9565b60243567ffffffffffffffff8111610015576102af9161152d61156092369060040161071d565b604435611539816108a9565b606435916084359333600052600a60205261155b60ff6040600020541661211c565b612de9565b6040519081529081906020820190565b346100155761157e366103cd565b805161158981612c0c565b9160005b8281106115aa57604051602080825281906102af908201876112b4565b806115c361068f6115bd60019486611e55565b51611ed5565b6115cd8287611e55565b526115d88186611e55565b500161158d565b34610015576060600319360112610015576004356024356115ff816110e8565b6044359033600052600a60205261161d60ff6040600020541661211c565b61163161162984611ed5565b50918261303f565b60068101828155918015158061173f575b61171f575b508054906001600160a01b0382169283928560005461166c906001600160a01b031690565b9160a081901c60ff169360a882901c60ff169160b01c60ff1690600287015490600388015490600489015490549160058a01549360078b01549560088c0154976040519b6001600160a01b038d9c169e6001600160a01b03169d6001019a6116d49b8d6130f3565b037f7d0616460a0a454bdf3e48a4f63e79ef1e23eb2a336bc7869d81c0dd7d2a99de91a3611715906001600160a01b03166000526008602052604060002090565b90610f369161423a565b600080808061173994325af1611733613078565b506130a8565b38611647565b5080471015611642565b34610015576000600319360112610015576020600654604051908152f35b346100155760006003193601126100155733600052600a60205261179260ff6040600020541661211c565b60055460018101908181116117af57602091600555604051908152f35b6120a8565b346100155760e06003193601126100155760043560056024356044356064356084359060a4359260c4359633600052600a6020526117f960ff6040600020541661211c565b600052600c602052604060002094855560018501556002840155600383015560048201550155600080f35b8015150361001557565b610144359061023282611824565b610180600319360112610015576118516106a9565b6024359067ffffffffffffffff821161001557611875610f3692369060040161071d565b604435611881816108a9565b60643561188d816108a9565b60843560a43560c4359060e43592610104359461012435966118ad61182e565b98610164359a61316c565b346100155760606003193601126100155760206119046004356118d96106bf565b604435916118e683611824565b33600052600a85526118ff60ff6040600020541661211c565b6137ec565b604051908152f35b34610015576000600319360112610015576020600554604051908152f35b346100155760606003193601126100155760243560043567ffffffffffffffff8211610015573660238301121561001557816004013561196981610358565b926119776040519485610306565b8184526024602085019260051b820101903682116100155760248101925b828410611a0057856044358667ffffffffffffffff8211610015576102af926119c56119cb933690600401610370565b91613b0e565b6040805195151586529315156020860152928401919091526001600160a01b03166060830152608082015290819060a0820190565b833567ffffffffffffffff811161001557602091611a2583926024369187010161071d565b815201930192611995565b9392916113369061132860409360608852606088019061101a565b3461001557611a593661129a565b81928092600091600654809211611b48575b8110611b40575b50929192611a7f826123de565b91611a8981612c5b565b945b84811080611b37575b15611b11576001611aa761139783612167565b611ab081610f61565b148015611af3575b611acb575b611ac690612c8c565b611a8b565b91611aeb8184611ade611ac6948a611e55565b526113e66110c686612167565b929050611abd565b506002611b0261139783612167565b611b0b81610f61565b14611ab8565b8593926102af928103611b2c575b5060405193849384611a30565b808452845284611b1f565b50818310611a94565b925038611a72565b9094508490611a6b565b3461001557602060031936011261001557610f36611b6e6106a9565b611b76614486565b613e4d565b3461001557608060031936011261001557611b946106a9565b611b9c6106bf565b90611ba56106d5565b611bad6106eb565b907ff0c57e16840df040f15088dc2f81fe391c3923bec73e23a9662efc9c229c6a00549367ffffffffffffffff611c00611bf2611bee8860ff9060401c1690565b1590565b9667ffffffffffffffff1690565b1680159081611dc9575b6001149081611dbf575b159081611db6575b50611d8c57611c9d9385611c9460017fffffffffffffffffffffffffffffffffffffffffffffffff00000000000000007ff0c57e16840df040f15088dc2f81fe391c3923bec73e23a9662efc9c229c6a005416177ff0c57e16840df040f15088dc2f81fe391c3923bec73e23a9662efc9c229c6a0055565b611d2757613f19565b611ca357005b611cf868ff0000000000000000197ff0c57e16840df040f15088dc2f81fe391c3923bec73e23a9662efc9c229c6a0054167ff0c57e16840df040f15088dc2f81fe391c3923bec73e23a9662efc9c229c6a0055565b604051600181527fc7f505b2f371ae2175ee4913f4499e1f2633a7b5936321eed1cdaeb6115181d290602090a1005b611d876801000000000000000068ff0000000000000000197ff0c57e16840df040f15088dc2f81fe391c3923bec73e23a9662efc9c229c6a005416177ff0c57e16840df040f15088dc2f81fe391c3923bec73e23a9662efc9c229c6a0055565b613f19565b7ff92ee8a90000000000000000000000000000000000000000000000000000000060005260046000fd5b90501538611c1c565b303b159150611c14565b869150611c0a565b60405190611dde826102c9565b600060a0838281528260208201528260408201528260608201528260808201520152565b90604051611e0f816102c9565b60a06005829480548452600181015460208501526002810154604085015260038101546060850152600481015460808501520154910152565b8051156107e45760200190565b80518210156107e45760209160051b010190565b60405190610180820182811067ffffffffffffffff8211176102e557604052600061016083828152826020820152826040820152826060820152606060808201528260a08201528260c08201528260e08201528261010082015282610120820152826101408201520152565b6007548110156107e45760076000526009602060002091020190600090565b6105578261053e565b6105578261055a565b90600182811c92168015611f36575b6020831014611f2057565b634e487b7160e01b600052602260045260246000fd5b91607f1691611f15565b60009291815491611f5083611f06565b8083529260018116908115611fa65750600114611f6c57505050565b60009081526020812093945091925b838310611f8c575060209250010190565b600181602092949394548385870101520191019190611f7b565b9050602094955060ff1991509291921683830152151560051b010190565b90610232611fd89260405193848092611f40565b0383610306565b906008611fea610329565b9261204e6120458254612013612006826001600160a01b031690565b6001600160a01b03168852565b61202860a082901c60ff165b60208901611ef4565b61203c60a882901c60ff1660408901611efd565b60b01c60ff1690565b60608601611ef4565b61205a60018201611fc4565b6080850152600281015460a0850152600381015460c0850152600481015460e08501526005810154610100850152600681015461012085015260078101546101408501520154610160830152565b634e487b7160e01b600052601160045260246000fd5b60ff6000199116019060ff82116117af57565b906040519182815491828252602082019060005260206000209260005b81811061210357505061023292500383610306565b84548352600194850194879450602090930192016120ee565b1561212357565b606460405162461bcd60e51b815260206004820152601f60248201527f63616c6c6572206973206e6f74206f7264657220626f6f6b206b6565706572006044820152fd5b6006548110156107e457600660005260206000209060031b0190600090565b90604051809260009080549061219b82611f06565b91600181169081156121f757506001146121be575b505060209281520301902090565b90915060005260206000206000905b8282106121e057505081016020386121b0565b8054828701528593506020909101906001016121cd565b60ff19168552505080151502820190506020386121b0565b9060001982019182116117af57565b919082039182116117af57565b1561223257565b606460405162461bcd60e51b815260206004820152601d60248201527f617661696c61626c6520616d6f756e7420696e73756666696369656e740000006044820152fd5b6040513d6000823e3d90fd5b90670de0b6b3a7640000820291808304670de0b6b3a764000014901517156117af57565b818102929181159184041417156117af57565b81156122c3570490565b634e487b7160e01b600052601260045260246000fd5b90600681101561054857815460ff60a81b191660a89190911b75ff00000000000000000000000000000000000000000016179055565b9055565b80548210156107e45760005260206000200190600090565b90600182018092116117af57565b919082018092116117af57565b80548015612363576000190190612360610c0f8383612313565b55565b634e487b7160e01b600052603160045260246000fd5b60405190610160820182811067ffffffffffffffff8211176102e557604052600061014083828152826020820152826040820152826060820152826080820152606060a08201528260c08201528260e082015282610100820152826101208201520152565b906123e882610358565b6123f56040519182610306565b828152601f196124058294610358565b019060005b82811061241657505050565b602090612421612379565b8282850101520161240a565b60068210156105485752565b906007612444610339565b926124846120458254612460612006826001600160a01b031690565b61247060a082901c60ff1661201f565b61203c60a882901c60ff166040890161242d565b6001810154608085015261249a60028201611fc4565b60a0850152600381015460c0850152600481015460e0850152600581015461010085015260068101546101208501520154610140830152565b948695999897929193949933600052600a60205260406000205460ff166124f99061211c565b6001546001600160a01b03166001600160a01b03168b60065487868d6040519c8d9586957f8e3a0e92000000000000000000000000000000000000000000000000000000008752600487019561254e9661279f565b03815a604094600091f1918215610cf2576125748c938b99600091612750575b506127dc565b612582908584868986614404565b61258b8361053e565b612594836120be565b87600654906125a492888561451c565b6125c1816001600160a01b03166000526009602052604060002090565b6006546125cd9161472d565b506001600160a01b0316938493600554906125e6610339565b6001600160a01b0387168152916126008660208501611ef4565b600160408401526001606084015260808301528260a08301528360c08301528860e0830152610100820152886101208201524261014082015261264290612ae5565b6000546001600160a01b0316809a896005549b8c958a604051988998429761266a998b612b40565b037f3174923aee4fc7c29de893ec1a82807b9f70eea78b57219cce0e76a78350dd4791a26040805160038152602081018690524291810191909152600091906001600160a01b038816907feb42cf637f927243245c50b4bf7fe105fe4f4d26209102240f2ba3d8e27a7df890606090a46001906126e68161055a565b60021495612742957fc136432a1484e156abdd300674f3ca1991800b1936e60da2b47c69dda822f75a9461023298612747575b61273a92939461272a60065461220f565b946040519687968a429689612bb3565b0390a161232b565b600555565b60029350612719565b612772915060403d604011612779575b61276a8183610306565b810190612780565b503861256e565b503d612760565b9190826040910312610015576020825161279981611824565b92015190565b926127ba60a09592989796939860c0865260c0860190610591565b9760208501526040840152606083015260808201526127d88361053e565b0152565b156127e357565b606460405162461bcd60e51b815260206004820152601760248201527f6c6971756964697479206973206e6f7420656e6f7567680000000000000000006044820152fd5b634e487b7160e01b600052600060045260246000fd5b906128478161053e565b7fffffffffffffffffffffff00ffffffffffffffffffffffffffffffffffffffff74ff000000000000000000000000000000000000000083549260a01b169116179055565b906128968161053e565b7fffffffffffffffffff00ffffffffffffffffffffffffffffffffffffffffffff76ff0000000000000000000000000000000000000000000083549260b01b169116179055565b8181106128e8575050565b600081556001016128dd565b9190601f811161290357505050565b610232926000526020600020906020601f840160051c8301931061292f575b601f0160051c01906128dd565b9091508190612922565b919091825167ffffffffffffffff81116102e5576129618161295b8454611f06565b846128f4565b6020601f821160011461299d57819061230f939495600092612992575b50506000198260011b9260031b1c19161790565b01519050388061297e565b601f198216906129b284600052602060002090565b9160005b8181106129ee575095836001959697106129d5575b505050811b019055565b015160001960f88460031b161c191690553880806129cb565b9192602060018192868b0151815501940192016129b6565b9190612ae05761014081612a4f612a26600794516001600160a01b031690565b85906001600160a01b031673ffffffffffffffffffffffffffffffffffffffff19825416179055565b612a666020820151612a608161053e565b8561283d565b612a7d6040820151612a7781610f61565b856122d9565b612a946060820151612a8e8161053e565b8561288c565b60808101516001850155612aaf60a082015160028601612939565b60c0810151600385015560e08101516004850155610100810151600585015561012081015160068501550151910155565b612827565b60065490680100000000000000008210156102e557600182016006556006548210156107e457600660009081526102329260031b7ff652222313e28459528d920b65115c16c04f3efc82aaedc97be59f3f377c0d3f01612a06565b969390926001600160a01b03612b6a6101409a97949d9c9b98956101608b526101608b0190610591565b9c1660208901526040880152612b7f8161053e565b6060870152612b8d8161055a565b608086015260a0850152600060c085015260e08401526101008301526101208201520152565b949198979693959290986001600160a01b0361014087019a16865260208601526040850152600585101561054857610120946060850152608084015260a083015260c0820152600060e082015260006101008201520152565b90612c1682610358565b612c236040519182610306565b828152601f19612c338294610358565b019060005b828110612c4457505050565b602090612c4f611e69565b82828501015201612c38565b90612c6582610358565b612c726040519182610306565b828152601f19612c828294610358565b0190602036910137565b60001981146117af5760010190565b90604051612ca8816102ea565b6080612cd96004839580548552600181015460208601526002810154604086015260038101546060860152016120d1565b910152565b919082604091031261001557602082519201516103f881611824565b91612d22906001600160a01b036080959897969316845260a0602085015260a0840190610591565b95612d2c8161053e565b604083015260608201520152565b90612ae057600460809183518155602084015160018201556040840151600282015560608401516003820155019101519081519167ffffffffffffffff83116102e5576801000000000000000083116102e5576020908254848455808510612dcc575b500190600052602060002060005b838110612db85750505050565b600190602084519401938184015501612dab565b612de39084600052858460002091820191016128dd565b38612d9d565b9294939190612e32612e2c612e1a612e14876001600160a01b0316600052600b602052604060002090565b84610794565b612e238561053e565b610991856120be565b50612c9b565b926020840190815115613036578360409184600089612e95612e5f610ac56003546001600160a01b031690565b9487519e8f97889687957f9324b54900000000000000000000000000000000000000000000000000000000875260048701612cfa565b03925af1968715610cf257600090600098613002575b5096612eb9575b5050505050565b6000908185969893959794975252600060408501526000606085015260009360808101945b85518051821015612f5b5790612f22612efc6110c083600195611e55565b50750400000000000000000000000000000000000000000060ff60a81b19825416179055565b612f54612f428a6001600160a01b03166000526009602052604060002090565b612f4d838a51611e55565b519061423a565b5001612ede565b50509194610991612f94612fa4956060612f9e959852612f8e8a6001600160a01b0316600052600b602052604060002090565b90610794565b9161098c8161053e565b90612d3a565b612fc9612fc4846001600160a01b03166000526008602052604060002090565b6120d1565b9060005b8251811015612ff45780612fed86612fe760019487611e55565b516136c4565b5001612fcd565b509250503880808080612eb2565b905061302791975060403d60401161302f575b61301f8183610306565b810190612cde565b969038612eab565b503d613015565b96505050505050565b9061230f9061304d8161055a565b82549075ff00000000000000000000000000000000000000000060ff60a81b199160a81b1691161790565b3d156130a3573d9061308982610701565b916130976040519384610306565b82523d6000602084013e565b606090565b156130af57565b606460405162461bcd60e51b815260206004820152600f60248201527f7472616e73666572206661696c656400000000000000000000000000000000006044820152fd5b9895926131176101609b9895929e9d9c9996939e6101808c526101808c0190611f40565b9d60208b01526131268161053e565b60408a01526131348161055a565b60608901526131428161053e565b608088015260a087015260c086015260e08501526101008401526101208301526101408201520152565b9887859c848897878d8f97878e9f9e99829e9a9c9b9c33600052600a60205260406000205460ff1661319d9061211c565b88996000546131b2906001600160a01b031690565b95600754936001600160a01b03169d8e99604051996001600160a01b038b9a169c42976131df9a8c613502565b037f052d8cb39abc1bd624ecd7027fd1b94ded9c7704f379055adcbab77044ec255b91a3159c6133a99c6133ba9e6134fa575b156133f35790613291939291613238613229610329565b6001600160a01b039095168552565b6132458760208601611ef4565b600160408501526132598660608601611ef4565b88608085015260a08401528660c0840152600060e084015260006101008401526101208301524261014083015261016082015261361e565b61329a8161053e565b600181036133bd575050505061338d7f68cbb1c862d9d961359025e53792aa8be48fcf01d4712cf5dfd194d2a184a769936133516132d6610349565b6001815285602082015284604082015260006060820152826080820152600060a082015261331861330860075461220f565b600052600c602052604060002090565b9060a060059180518455602081015160018501556040810151600285015560608101516003850155608081015160048501550151910155565b61335c60075461220f565b926040519485948590949360009360a09360c084019784526020840152604083015283606083015260808201520152565b0390a16001600160a01b03166000526008602052604060002090565b6133b460075461220f565b9061472d565b50565b806133cd6002929897959861053e565b146133de575b505050505050610764565b6133e89587614876565b3880808080806133d3565b9960029798506134729599919293949661341d61340e610329565b6001600160a01b039097168752565b61342a8b60208801611ef4565b6001604087015261343e8860608801611ef4565b8960808701528b60a087015260c086015260e08501526101008401526101208301524261014083015261016082015261361e565b61347b8161053e565b1461349d575b5050506001600160a01b03166000526008602052604060002090565b6134f091610991612f946134c893612f8e886001600160a01b0316600052600b602052604060002090565b5091600360018401549301926134eb6134e38554809361221e565b831115613679565b612339565b9055388080613481565b349250613212565b9794919b9a99969398959290613522906101808a526101808a0190610591565b9b60208901526135318161053e565b604088015261016097600160608901526131428161053e565b9895926131176101609b9895929e9d9c9996939e6101808c526101808c0190610591565b9190612ae0576101608161358e612a26600894516001600160a01b031690565b61359f6020820151612a608161053e565b6135b660408201516135b08161055a565b8561303f565b6135c76060820151612a8e8161053e565b6135d8608082015160018601612939565b60a0810151600285015560c0810151600385015560e081015160048501556101008101516005850155610120810151600685015561014081015160078501550151910155565b60075490680100000000000000008210156102e557600182016007556007548210156107e45760076000908152610232926009027fa66cc928b5edb82af9bd49922954155ab7b0942694bea4ce44661d9a8736c6880161356e565b1561368057565b606460405162461bcd60e51b815260206004820152601960248201527f6c696d697420636c6f736520616d6f756e7420657863656564000000000000006044820152fd5b6103f89160019133600052600a6020526118ff60ff6040600020541661211c565b156136ec57565b606460405162461bcd60e51b815260206004820152601860248201527f57726f6e6720737461746520696e2063616e63656c696e6700000000000000006044820152fd5b1561373757565b606460405162461bcd60e51b815260206004820152600a60248201527f4e6f7420686f6c646572000000000000000000000000000000000000000000006044820152fd5b1561378257565b608460405162461bcd60e51b815260206004820152602260248201527f63616e63656c20616d6f756e74206973206772656174207468616e206672656560448201527f7a650000000000000000000000000000000000000000000000000000000000006064820152fd5b916137f961068f84611ed5565b60408101926001845161380b8161055a565b6138148161055a565b148015613af1575b8015613aea575b61382c906136e5565b6001600160a01b038061384684516001600160a01b031690565b92169116148015613ae3575b61385b90613730565b8115613a7a57600583525b6138798161387386611ed5565b9061356e565b610120810193845180151580613a70575b613a56575b50608082019283519183516138aa906001600160a01b031690565b60005482906001600160a01b03169760208701988951916138ca8361053e565b51966138d58861055a565b60608901978989516138e68161053e565b60a082019e8f519060c084015160e085015191519261010086015194610140870151966101600151976040519b6001600160a01b038d9c169e6001600160a01b03169d6139339b8d61354a565b037f7d0616460a0a454bdf3e48a4f63e79ef1e23eb2a336bc7869d81c0dd7d2a99de91a383516001600160a01b031660009081526008602052604090208161397a9161423a565b508115613a36575b50613a2c57600290516139948161053e565b61399d8161053e565b03613a1357916109916139e46139ef936139dd6139c4613a0c97516001600160a01b031690565b6001600160a01b0316600052600b602052604060002090565b9051610794565b9151610a4b8161053e565b5060038351910192613a0584548093111561377b565b519061221e565b9055600090565b9150506103f8915061010060e082015191015190612339565b5050505050600090565b60019150613a4e90600052600c602052604060002090565b541438613982565b6000808080613a6a94325af1611733613078565b3861388f565b508047101561388a565b60018351613a878161055a565b613a908161055a565b141580613ac5575b15613aa65760078352613866565b610160810151421115613abc5760068352613866565b60048352613866565b5060028351613ad38161055a565b613adc8161055a565b1415613a98565b5081613852565b5082613823565b5060028451613aff8161055a565b613b088161055a565b1461381c565b90919233600052600a602052613b2b60ff6040600020541661211c565b613b376110c683612167565b9060009460009460a08401955b8151811015613e1a57613b578183611e55565b51604051613b7b81613b6d60208201809561077d565b03601f198101835282610306565b5190208751604051613b9581613b6d60208201809561077d565b51902014613ba557600101613b44565b905060009650613bb491611e55565b51915b613bcb610ac582516001600160a01b031690565b9361010082016060613c32825196613bee610ac56003546001600160a01b031690565b906040519b8c809481937f016f4dcb000000000000000000000000000000000000000000000000000000008352896004840160209093929193604081019481520152565b03925af1968715610cf257600093600099600099613ddd575b5084613c5d575b505050509493929190565b916109916139e4613d35936139dd6139c487899e9b9f9c99613ccb909b9e9b613c8b604060049c0160059052565b613c9e83613c9883612167565b90612a06565b610b99613cb284516001600160a01b031690565b6001600160a01b03166000526009602052604060002090565b50613d28613ce082516001600160a01b031690565b855160208401998a51613cf28161053e565b60c08601519151926001600160a01b03613d21613d1360e08a0151866122a6565b670de0b6b3a7640000900490565b951661446b565b516001600160a01b031690565b500196613d41886120d1565b9560005b8751811015613dce5788613d59828a611e55565b5114613d6757600101613d45565b613d80919293949596979850610c1f610c0f828c612313565b8751811015613db45780613dae613d9c610c406001948d612313565b610c5c613da88461220f565b8d612313565b01613d80565b5091939550919395613dc590612346565b38808080613c52565b50929550929550929550613dc5565b9194509750613e0591985060603d606011613e13575b613dfd8183610306565b810190613e26565b909890979193909184613c4b565b503d613df3565b50505060009491613bb7565b90816060910312610015578051613e3c81611824565b916040602083015161279981611824565b6001600160a01b03168015613eea576001600160a01b037f9016d09d72d40fdae2fd8ceac6b6234c7706214fd39c1cd1e609a0528c199300548273ffffffffffffffffffffffffffffffffffffffff198216177f9016d09d72d40fdae2fd8ceac6b6234c7706214fd39c1cd1e609a0528c19930055167f8be0079c531659141344cd1fd0a4f28419497f9722a3daafe3b4186f6b6457e0600080a3565b7f1e4fbdf700000000000000000000000000000000000000000000000000000000600052600060045260246000fd5b6001600160a01b03939284613fcc93613f48613fbf94613f37614a88565b613f3f614a88565b611b6e33613e4d565b168073ffffffffffffffffffffffffffffffffffffffff196001541617600155600052600a602052613f856040600020600160ff19825416179055565b84811673ffffffffffffffffffffffffffffffffffffffff1960025416176002556001600160a01b0316600052600a602052604060002090565b600160ff19825416179055565b613fec613fbf306001600160a01b0316600052600a602052604060002090565b1673ffffffffffffffffffffffffffffffffffffffff196000541617600055565b60409360a4929396956001600160a01b036003541691865198899687957fca6ec3720000000000000000000000000000000000000000000000000000000087526140568161053e565b600487015260248601526044850152606484015260848301525afa918215610cf257600090819361408657509190565b9092506040813d6040116140ba575b816140a260409383610306565b810103126140b65760209080519350015190565b8280fd5b3d9150614095565b919082608091031261001557815191602081015191606060408301516140e781611824565b9201516103f881611824565b600060809460e49394966001600160a01b03600154169160405198899788967ff26a3e1d000000000000000000000000000000000000000000000000000000008852600488015285602488015260448701526064860152608485015260a4840152600160c48401525af18015610cf25760009260009360009360009361417b575b5093929190565b92505092506141a2915060803d6080116141ac575b61419a8183610306565b8101906140c2565b9193909238614174565b503d614190565b60e4906000608094956001600160a01b03600154169060405197889687957ff26a3e1d00000000000000000000000000000000000000000000000000000000875260048701528460248701526044860152606485015282608485015260a4840152600160c48401525af18015610cf25760009260009360009360009361417b575093929190565b906001820190614261611bee61425a838590600052602052604060002090565b5460ff1690565b61430f5782549060005b82811061427c575050505050600090565b8161428a610c408388612313565b146142975760010161426b565b9492909193945b6142a78561220f565b8110156142de576001816142d66142cc610c406142c66142a79661232b565b8b612313565b610c5c838b612313565b01905061429e565b5061430a93506142f16143009395612346565b90600052602052604060002090565b60ff198154169055565b600190565b505050600090565b1561431e57565b606460405162461bcd60e51b815260206004820152601160248201527f496e76616c696420646972656374696f6e0000000000000000000000000000006044820152fd5b9291610991612f9461439193612f8e60009761437d8661053e565b6001861480156143f1575b6139c490614317565b509081549283156000146143ae5760029350825560018201550155565b50906143ba82846122a6565b6143ca60018301918254906122b9565b84039384116117af576143e660029361230f958455825461221e565b90550191825461221e565b506143fb8661053e565b60028614614388565b612f946144209392612f8e610991939896979861437d8661053e565b509081541560001461443b5791600292825560018201550155565b9080549182018092116117af5761230f92600292825561446060018301918254612339565b905501918254612339565b612f946143919392612f8e6109919398979861437d8661053e565b6001600160a01b037f9016d09d72d40fdae2fd8ceac6b6234c7706214fd39c1cd1e609a0528c199300541633036144b957565b7f118cdaa7000000000000000000000000000000000000000000000000000000006000523360045260246000fd5b90815491680100000000000000008310156102e55782610c5c91600161023295018155612313565b80156117af576000190190565b9161454761454c92612f8e600495989697986001600160a01b0316600052600b602052604060002090565b6107d0565b500192835461455a81612c5b565b9060005b8181106146b65750156146a95760005b8151811080614696575b1561458b5761458690612c8c565b61456e565b9192935050835481148061467d575b61464d5780151580614664575b61464d578354811080614636575b614628576145d86145d2610c406145cc875461220f565b87612313565b856144e7565b6145e2845461220f565b8181116145f85750610c5c906102329394612313565b8061461e614614610c4061460e6146239561220f565b89612313565b610c5c8389612313565b61450f565b6145e2565b610c5c906102329394612313565b50600019614647610c408387612313565b146145b5565b610232929361465e610c5c9261220f565b90612313565b50600019614677610c406145cc8461220f565b146145a7565b50600019614690610c406145cc8461220f565b1461459a565b506146a18183611e55565b518511614578565b50909261023292506144e7565b806000196146c9610c406001948b612313565b146146fa5760046146e56146e0610c40848c612313565b612167565b5001546146f28286611e55565b525b0161455e565b8061471057600061470a85611e48565b526146f4565b61472261471c8261220f565b85611e55565b5161470a8286611e55565b919060018301816000528060205260ff604060002054166147f557600084545b8082106147b3575061475f83866144e7565b614769855461220f565b8181116147885750906142f183610c5c613fbf959461430a9798612313565b8061461e6147a4610c4061479e6147ae9561220f565b8a612313565b610c5c838a612313565b614769565b908181018082116117af5760011c90846147cd8389612313565b90549060031b1c106000146147ee5750600181018091116117af579061474d565b915061474d565b506000925050565b6040519061480a826102ea565b60606080836000815260006020820152600060408201526000838201520152565b1561483257565b606460405162461bcd60e51b815260206004820152601560248201527f706f736974696f6e2073697a65206973207a65726f00000000000000000000006044820152fd5b612e2c6148cb7f68cbb1c862d9d961359025e53792aa8be48fcf01d4712cf5dfd194d2a184a7699895979493612f8e6148dd946148b16147fd565b506001600160a01b0316600052600b602052604060002090565b6148d48461053e565b610991846120be565b90602082016148ee8151151561482b565b86159283159384614a80575b614987575b505050509061498291614944614913610349565b60018152600060208201528660408201528560608201528260808201528360a082015261331861330860075461220f565b61494f60075461220f565b9360405195869586919260a093969594919660c08401978452600060208501526040840152606083015260808201520152565b0390a1565b9061499561499d9251612282565b9051906122b9565b9180614a41575b156149c157505050509061498260009283925b90913880806148ff565b82151591826149e8575b50506149dc575b90614982916149b7565b925090506000806149d2565b9091506149f48261053e565b600182149182614a37575b8215614a0f575b505038806149cb565b6002919250614a1d8161053e565b149081614a2d575b503880614a06565b9050811038614a25565b81841192506149ff565b50614a4b8161053e565b6001811480614a77575b806149a45750614a648161053e565b6002811480156149a457508186116149a4565b50818610614a55565b5084156148fa565b60ff7ff0c57e16840df040f15088dc2f81fe391c3923bec73e23a9662efc9c229c6a005460401c1615614ab757565b7fd7e6bcf80000000000000000000000000000000000000000000000000000000060005260046000fdfea2646970667358221220afa89489523719cc9c955359bc679e412d234f9b790ab3be52d566bc90352f0d64736f6c634300081c0033",
  "linkReferences": {},
  "deployedLinkReferences": {}
}