{
  "_format": "hh-sol-artifact-1",
  "contractName": "OrderBook",
  "sourceName": "contracts/OrderBook.sol",
  "abi": [
    {
      "inputs": [],
      "name": "InvalidInitialization",
      "type": "error"
    },
    {
      "inputs": [],
      "name": "NotInitializing",
      "type": "error"
    },
    {
      "inputs": [
        {
          "internalType": "address",
          "name": "owner",
          "type": "address"
        }
      ],
      "name": "OwnableInvalidOwner",
      "type": "error"
    },
    {
      "inputs": [
        {
          "internalType": "address",
          "name": "account",
          "type": "address"
        }
      ],
      "name": "OwnableUnauthorizedAccount",
      "type": "error"
    },
    {
      "anonymous": false,
      "inputs": [
        {
          "indexed": false,
          "internalType": "address",
          "name": "taker",
          "type": "address"
        },
        {
          "indexed": false,
          "internalType": "uint256",
          "name": "amount",
          "type": "uint256"
        },
        {
          "indexed": false,
          "internalType": "uint256",
          "name": "availableAmount",
          "type": "uint256"
        },
        {
          "indexed": false,
          "internalType": "uint256",
          "name": "marginAmount",
          "type": "uint256"
        },
        {
          "indexed": false,
          "internalType": "uint256",
          "name": "locked",
          "type": "uint256"
        },
        {
          "indexed": false,
          "internalType": "uint256",
          "name": "stage",
          "type": "uint256"
        },
        {
          "indexed": false,
          "internalType": "uint256",
          "name": "dif",
          "type": "uint256"
        }
      ],
      "name": "BalanceOfTaker",
      "type": "event"
    },
    {
      "anonymous": false,
      "inputs": [
        {
          "indexed": false,
          "internalType": "string",
          "name": "name",
          "type": "string"
        },
        {
          "indexed": true,
          "internalType": "address",
          "name": "taker",
          "type": "address"
        },
        {
          "indexed": false,
          "internalType": "uint256",
          "name": "orderID",
          "type": "uint256"
        },
        {
          "indexed": false,
          "internalType": "enum ICommon.Direct",
          "name": "orderType",
          "type": "uint8"
        },
        {
          "indexed": false,
          "internalType": "enum IPerpetual.OrderState",
          "name": "state",
          "type": "uint8"
        },
        {
          "indexed": false,
          "internalType": "enum ICommon.Offset",
          "name": "offset",
          "type": "uint8"
        },
        {
          "indexed": false,
          "internalType": "uint256",
          "name": "amount",
          "type": "uint256"
        },
        {
          "indexed": false,
          "internalType": "uint256",
          "name": "targetPrice",
          "type": "uint256"
        },
        {
          "indexed": false,
          "internalType": "uint256",
          "name": "margin",
          "type": "uint256"
        },
        {
          "indexed": false,
          "internalType": "uint256",
          "name": "rewardGas",
          "type": "uint256"
        },
        {
          "indexed": false,
          "internalType": "uint256",
          "name": "tradingFee",
          "type": "uint256"
        },
        {
          "indexed": false,
          "internalType": "uint256",
          "name": "startTime",
          "type": "uint256"
        },
        {
          "indexed": false,
          "internalType": "uint256",
          "name": "goodTill",
          "type": "uint256"
        }
      ],
      "name": "CreateLimitedOrder",
      "type": "event"
    },
    {
      "anonymous": false,
      "inputs": [
        {
          "indexed": false,
          "internalType": "uint256",
          "name": "limitOrderID",
          "type": "uint256"
        },
        {
          "indexed": false,
          "internalType": "uint256",
          "name": "openLimitPrice",
          "type": "uint256"
        },
        {
          "indexed": false,
          "internalType": "uint256",
          "name": "gainTriggerPrice",
          "type": "uint256"
        },
        {
          "indexed": false,
          "internalType": "uint256",
          "name": "gainLimitPrice",
          "type": "uint256"
        },
        {
          "indexed": false,
          "internalType": "uint256",
          "name": "lossTriggerPrice",
          "type": "uint256"
        },
        {
          "indexed": false,
          "internalType": "uint256",
          "name": "lossLimitPrice",
          "type": "uint256"
        }
      ],
      "name": "CreateTriggerCondition",
      "type": "event"
    },
    {
      "anonymous": false,
      "inputs": [
        {
          "indexed": false,
          "internalType": "uint256",
          "name": "code",
          "type": "uint256"
        },
        {
          "indexed": false,
          "internalType": "uint256",
          "name": "orderID",
          "type": "uint256"
        },
        {
          "indexed": false,
          "internalType": "string",
          "name": "message",
          "type": "string"
        }
      ],
      "name": "ErrorInfo",
      "type": "event"
    },
    {
      "anonymous": false,
      "inputs": [
        {
          "indexed": false,
          "internalType": "uint256",
          "name": "code",
          "type": "uint256"
        },
        {
          "indexed": false,
          "internalType": "uint256",
          "name": "orderID",
          "type": "uint256"
        },
        {
          "indexed": false,
          "internalType": "bytes",
          "name": "message",
          "type": "bytes"
        }
      ],
      "name": "ExceptErrorInfo",
      "type": "event"
    },
    {
      "anonymous": false,
      "inputs": [
        {
          "indexed": false,
          "internalType": "uint64",
          "name": "version",
          "type": "uint64"
        }
      ],
      "name": "Initialized",
      "type": "event"
    },
    {
      "anonymous": false,
      "inputs": [
        {
          "indexed": true,
          "internalType": "address",
          "name": "taker",
          "type": "address"
        },
        {
          "indexed": false,
          "internalType": "string",
          "name": "name",
          "type": "string"
        },
        {
          "indexed": false,
          "internalType": "uint256",
          "name": "orderID",
          "type": "uint256"
        },
        {
          "indexed": false,
          "internalType": "enum ICommon.Direct",
          "name": "direction",
          "type": "uint8"
        },
        {
          "indexed": false,
          "internalType": "enum IPerpetual.OrderType",
          "name": "orderType",
          "type": "uint8"
        },
        {
          "indexed": false,
          "internalType": "uint256",
          "name": "amount",
          "type": "uint256"
        },
        {
          "indexed": false,
          "internalType": "uint256",
          "name": "costPrice",
          "type": "uint256"
        },
        {
          "indexed": false,
          "internalType": "uint256",
          "name": "price",
          "type": "uint256"
        },
        {
          "indexed": false,
          "internalType": "uint256",
          "name": "tradingFee",
          "type": "uint256"
        },
        {
          "indexed": false,
          "internalType": "uint256",
          "name": "limitOrderId",
          "type": "uint256"
        },
        {
          "indexed": false,
          "internalType": "uint256",
          "name": "timestamp",
          "type": "uint256"
        }
      ],
      "name": "OrderHistory",
      "type": "event"
    },
    {
      "anonymous": false,
      "inputs": [
        {
          "indexed": true,
          "internalType": "address",
          "name": "previousOwner",
          "type": "address"
        },
        {
          "indexed": true,
          "internalType": "address",
          "name": "newOwner",
          "type": "address"
        }
      ],
      "name": "OwnershipTransferred",
      "type": "event"
    },
    {
      "anonymous": false,
      "inputs": [
        {
          "indexed": false,
          "internalType": "address",
          "name": "",
          "type": "address"
        },
        {
          "indexed": false,
          "internalType": "bool",
          "name": "",
          "type": "bool"
        }
      ],
      "name": "SetKeeper",
      "type": "event"
    },
    {
      "anonymous": false,
      "inputs": [
        {
          "indexed": false,
          "internalType": "uint256",
          "name": "orderID",
          "type": "uint256"
        },
        {
          "indexed": false,
          "internalType": "uint256",
          "name": "dealID",
          "type": "uint256"
        },
        {
          "indexed": false,
          "internalType": "enum IPerpetual.TradeType",
          "name": "tradeType",
          "type": "uint8"
        },
        {
          "indexed": false,
          "internalType": "uint256",
          "name": "amount",
          "type": "uint256"
        },
        {
          "indexed": false,
          "internalType": "uint256",
          "name": "price",
          "type": "uint256"
        },
        {
          "indexed": false,
          "internalType": "uint256",
          "name": "tradingFee",
          "type": "uint256"
        },
        {
          "indexed": false,
          "internalType": "uint256",
          "name": "profit",
          "type": "uint256"
        },
        {
          "indexed": false,
          "internalType": "uint256",
          "name": "loss",
          "type": "uint256"
        },
        {
          "indexed": false,
          "internalType": "uint256",
          "name": "timestamp",
          "type": "uint256"
        }
      ],
      "name": "TradeHistory",
      "type": "event"
    },
    {
      "anonymous": false,
      "inputs": [
        {
          "indexed": true,
          "internalType": "address",
          "name": "taker",
          "type": "address"
        },
        {
          "indexed": false,
          "internalType": "enum ICommon.TransactionType",
          "name": "transactionType",
          "type": "uint8"
        },
        {
          "indexed": false,
          "internalType": "uint256",
          "name": "amount",
          "type": "uint256"
        },
        {
          "indexed": false,
          "internalType": "uint256",
          "name": "timestamp",
          "type": "uint256"
        }
      ],
      "name": "TransactionHistory",
      "type": "event"
    },
    {
      "anonymous": false,
      "inputs": [
        {
          "indexed": false,
          "internalType": "address",
          "name": "sender",
          "type": "address"
        },
        {
          "indexed": false,
          "internalType": "address",
          "name": "received",
          "type": "address"
        },
        {
          "indexed": false,
          "internalType": "enum ICommon.TransactionType",
          "name": "transactionType",
          "type": "uint8"
        },
        {
          "indexed": false,
          "internalType": "uint256",
          "name": "amount",
          "type": "uint256"
        },
        {
          "indexed": false,
          "internalType": "uint256",
          "name": "timestamp",
          "type": "uint256"
        }
      ],
      "name": "TransferFee",
      "type": "event"
    },
    {
      "anonymous": false,
      "inputs": [
        {
          "indexed": false,
          "internalType": "uint8",
          "name": "direct",
          "type": "uint8"
        },
        {
          "indexed": false,
          "internalType": "uint256",
          "name": "price",
          "type": "uint256"
        },
        {
          "indexed": false,
          "internalType": "uint256",
          "name": "value",
          "type": "uint256"
        }
      ],
      "name": "indexPosition",
      "type": "event"
    },
    {
      "anonymous": false,
      "inputs": [
        {
          "indexed": false,
          "internalType": "address",
          "name": "sender",
          "type": "address"
        },
        {
          "indexed": false,
          "internalType": "uint256",
          "name": "beforeLeverage",
          "type": "uint256"
        },
        {
          "indexed": false,
          "internalType": "uint256",
          "name": "afterLeverage",
          "type": "uint256"
        }
      ],
      "name": "setLeverage",
      "type": "event"
    },
    {
      "stateMutability": "nonpayable",
      "type": "fallback"
    },
    {
      "inputs": [
        {
          "internalType": "uint256",
          "name": "_oid",
          "type": "uint256"
        },
        {
          "internalType": "address",
          "name": "_holder",
          "type": "address"
        },
        {
          "internalType": "bool",
          "name": "liquidated",
          "type": "bool"
        }
      ],
      "name": "cancelOrder",
      "outputs": [
        {
          "internalType": "uint256",
          "name": "lockedAmount",
          "type": "uint256"
        }
      ],
      "stateMutability": "nonpayable",
      "type": "function"
    },
    {
      "inputs": [
        {
          "internalType": "address",
          "name": "_taker",
          "type": "address"
        },
        {
          "internalType": "string",
          "name": "_pair",
          "type": "string"
        },
        {
          "internalType": "enum ICommon.Direct",
          "name": "_type",
          "type": "uint8"
        },
        {
          "internalType": "uint256",
          "name": "_currentPrice",
          "type": "uint256"
        },
        {
          "internalType": "uint256",
          "name": "_deposit",
          "type": "uint256"
        }
      ],
      "name": "clearingTakerPosition",
      "outputs": [
        {
          "internalType": "uint256",
          "name": "deposit",
          "type": "uint256"
        },
        {
          "internalType": "bool",
          "name": "forced",
          "type": "bool"
        }
      ],
      "stateMutability": "nonpayable",
      "type": "function"
    },
    {
      "inputs": [
        {
          "internalType": "address",
          "name": "_taker",
          "type": "address"
        },
        {
          "internalType": "uint256",
          "name": "_dealID",
          "type": "uint256"
        },
        {
          "internalType": "uint256",
          "name": "_amount",
          "type": "uint256"
        },
        {
          "internalType": "enum ICommon.Direct",
          "name": "_type",
          "type": "uint8"
        },
        {
          "internalType": "uint256",
          "name": "_currentPrice",
          "type": "uint256"
        },
        {
          "internalType": "uint256",
          "name": "tradeFeeRate",
          "type": "uint256"
        },
        {
          "internalType": "uint256",
          "name": "releaseSize",
          "type": "uint256"
        }
      ],
      "name": "closeDeal",
      "outputs": [
        {
          "internalType": "uint256",
          "name": "profit",
          "type": "uint256"
        },
        {
          "internalType": "uint256",
          "name": "loss",
          "type": "uint256"
        },
        {
          "internalType": "uint256",
          "name": "margin",
          "type": "uint256"
        }
      ],
      "stateMutability": "nonpayable",
      "type": "function"
    },
    {
      "inputs": [
        {
          "internalType": "uint256",
          "name": "",
          "type": "uint256"
        }
      ],
      "name": "doneLimitOrders",
      "outputs": [
        {
          "internalType": "address",
          "name": "trigger",
          "type": "address"
        },
        {
          "internalType": "address",
          "name": "caller",
          "type": "address"
        },
        {
          "internalType": "uint256",
          "name": "openBlockNumber",
          "type": "uint256"
        },
        {
          "internalType": "uint256",
          "name": "closeBlockNumber",
          "type": "uint256"
        },
        {
          "internalType": "bytes4",
          "name": "method",
          "type": "bytes4"
        }
      ],
      "stateMutability": "view",
      "type": "function"
    },
    {
      "inputs": [
        {
          "internalType": "uint256",
          "name": "_start",
          "type": "uint256"
        },
        {
          "internalType": "uint256",
          "name": "_end",
          "type": "uint256"
        },
        {
          "internalType": "uint256",
          "name": "_count",
          "type": "uint256"
        }
      ],
      "name": "getActiveDeals",
      "outputs": [
        {
          "components": [
            {
              "internalType": "address payable",
              "name": "taker",
              "type": "address"
            },
            {
              "internalType": "enum ICommon.Direct",
              "name": "direct",
              "type": "uint8"
            },
            {
              "internalType": "enum ICommon.DealState",
              "name": "state",
              "type": "uint8"
            },
            {
              "internalType": "enum ICommon.Offset",
              "name": "offset",
              "type": "uint8"
            },
            {
              "internalType": "uint256",
              "name": "orderID",
              "type": "uint256"
            },
            {
              "internalType": "string",
              "name": "name",
              "type": "string"
            },
            {
              "internalType": "uint256",
              "name": "amount",
              "type": "uint256"
            },
            {
              "internalType": "uint256",
              "name": "price",
              "type": "uint256"
            },
            {
              "internalType": "uint256",
              "name": "margin",
              "type": "uint256"
            },
            {
              "internalType": "uint256",
              "name": "tradingFee",
              "type": "uint256"
            },
            {
              "internalType": "uint256",
              "name": "timestamp",
              "type": "uint256"
            }
          ],
          "internalType": "struct ICommon.Deal[]",
          "name": "info",
          "type": "tuple[]"
        },
        {
          "internalType": "uint256[]",
          "name": "ids",
          "type": "uint256[]"
        },
        {
          "internalType": "uint256",
          "name": "end",
          "type": "uint256"
        }
      ],
      "stateMutability": "view",
      "type": "function"
    },
    {
      "inputs": [
        {
          "internalType": "uint256",
          "name": "_start",
          "type": "uint256"
        },
        {
          "internalType": "uint256",
          "name": "_end",
          "type": "uint256"
        },
        {
          "internalType": "uint256",
          "name": "_count",
          "type": "uint256"
        }
      ],
      "name": "getActiveLimitedOrders",
      "outputs": [
        {
          "components": [
            {
              "internalType": "address payable",
              "name": "taker",
              "type": "address"
            },
            {
              "internalType": "enum ICommon.Direct",
              "name": "direct",
              "type": "uint8"
            },
            {
              "internalType": "enum IPerpetual.OrderState",
              "name": "state",
              "type": "uint8"
            },
            {
              "internalType": "enum ICommon.Offset",
              "name": "offset",
              "type": "uint8"
            },
            {
              "internalType": "string",
              "name": "name",
              "type": "string"
            },
            {
              "internalType": "uint256",
              "name": "amount",
              "type": "uint256"
            },
            {
              "internalType": "uint256",
              "name": "targetPrice",
              "type": "uint256"
            },
            {
              "internalType": "uint256",
              "name": "margin",
              "type": "uint256"
            },
            {
              "internalType": "uint256",
              "name": "tradingFee",
              "type": "uint256"
            },
            {
              "internalType": "uint256",
              "name": "rewardGas",
              "type": "uint256"
            },
            {
              "internalType": "uint256",
              "name": "startTime",
              "type": "uint256"
            },
            {
              "internalType": "uint256",
              "name": "goodTill",
              "type": "uint256"
            }
          ],
          "internalType": "struct IPerpetual.LimitedOrder[]",
          "name": "info",
          "type": "tuple[]"
        },
        {
          "internalType": "uint256[]",
          "name": "ids",
          "type": "uint256[]"
        },
        {
          "internalType": "uint256",
          "name": "end",
          "type": "uint256"
        }
      ],
      "stateMutability": "view",
      "type": "function"
    },
    {
      "inputs": [],
      "name": "getAndIncreaseOrderID",
      "outputs": [
        {
          "internalType": "uint256",
          "name": "length",
          "type": "uint256"
        }
      ],
      "stateMutability": "nonpayable",
      "type": "function"
    },
    {
      "inputs": [
        {
          "internalType": "uint256",
          "name": "id",
          "type": "uint256"
        }
      ],
      "name": "getDeal",
      "outputs": [
        {
          "components": [
            {
              "internalType": "address payable",
              "name": "taker",
              "type": "address"
            },
            {
              "internalType": "enum ICommon.Direct",
              "name": "direct",
              "type": "uint8"
            },
            {
              "internalType": "enum ICommon.DealState",
              "name": "state",
              "type": "uint8"
            },
            {
              "internalType": "enum ICommon.Offset",
              "name": "offset",
              "type": "uint8"
            },
            {
              "internalType": "uint256",
              "name": "orderID",
              "type": "uint256"
            },
            {
              "internalType": "string",
              "name": "name",
              "type": "string"
            },
            {
              "internalType": "uint256",
              "name": "amount",
              "type": "uint256"
            },
            {
              "internalType": "uint256",
              "name": "price",
              "type": "uint256"
            },
            {
              "internalType": "uint256",
              "name": "margin",
              "type": "uint256"
            },
            {
              "internalType": "uint256",
              "name": "tradingFee",
              "type": "uint256"
            },
            {
              "internalType": "uint256",
              "name": "timestamp",
              "type": "uint256"
            }
          ],
          "internalType": "struct ICommon.Deal",
          "name": "",
          "type": "tuple"
        }
      ],
      "stateMutability": "view",
      "type": "function"
    },
    {
      "inputs": [],
      "name": "getDealLength",
      "outputs": [
        {
          "internalType": "uint256",
          "name": "length",
          "type": "uint256"
        }
      ],
      "stateMutability": "view",
      "type": "function"
    },
    {
      "inputs": [
        {
          "internalType": "uint256[]",
          "name": "_ids",
          "type": "uint256[]"
        }
      ],
      "name": "getDeals",
      "outputs": [
        {
          "components": [
            {
              "internalType": "address payable",
              "name": "taker",
              "type": "address"
            },
            {
              "internalType": "enum ICommon.Direct",
              "name": "direct",
              "type": "uint8"
            },
            {
              "internalType": "enum ICommon.DealState",
              "name": "state",
              "type": "uint8"
            },
            {
              "internalType": "enum ICommon.Offset",
              "name": "offset",
              "type": "uint8"
            },
            {
              "internalType": "uint256",
              "name": "orderID",
              "type": "uint256"
            },
            {
              "internalType": "string",
              "name": "name",
              "type": "string"
            },
            {
              "internalType": "uint256",
              "name": "amount",
              "type": "uint256"
            },
            {
              "internalType": "uint256",
              "name": "price",
              "type": "uint256"
            },
            {
              "internalType": "uint256",
              "name": "margin",
              "type": "uint256"
            },
            {
              "internalType": "uint256",
              "name": "tradingFee",
              "type": "uint256"
            },
            {
              "internalType": "uint256",
              "name": "timestamp",
              "type": "uint256"
            }
          ],
          "internalType": "struct ICommon.Deal[]",
          "name": "info",
          "type": "tuple[]"
        }
      ],
      "stateMutability": "view",
      "type": "function"
    },
    {
      "inputs": [
        {
          "internalType": "address",
          "name": "_taker",
          "type": "address"
        },
        {
          "internalType": "string",
          "name": "_name",
          "type": "string"
        },
        {
          "internalType": "enum ICommon.Direct",
          "name": "_type",
          "type": "uint8"
        }
      ],
      "name": "getDealsByPosition",
      "outputs": [
        {
          "internalType": "uint256[]",
          "name": "_deals",
          "type": "uint256[]"
        }
      ],
      "stateMutability": "view",
      "type": "function"
    },
    {
      "inputs": [
        {
          "internalType": "uint256[]",
          "name": "_ids",
          "type": "uint256[]"
        }
      ],
      "name": "getLimitOrders",
      "outputs": [
        {
          "components": [
            {
              "internalType": "address payable",
              "name": "taker",
              "type": "address"
            },
            {
              "internalType": "enum ICommon.Direct",
              "name": "direct",
              "type": "uint8"
            },
            {
              "internalType": "enum IPerpetual.OrderState",
              "name": "state",
              "type": "uint8"
            },
            {
              "internalType": "enum ICommon.Offset",
              "name": "offset",
              "type": "uint8"
            },
            {
              "internalType": "string",
              "name": "name",
              "type": "string"
            },
            {
              "internalType": "uint256",
              "name": "amount",
              "type": "uint256"
            },
            {
              "internalType": "uint256",
              "name": "targetPrice",
              "type": "uint256"
            },
            {
              "internalType": "uint256",
              "name": "margin",
              "type": "uint256"
            },
            {
              "internalType": "uint256",
              "name": "tradingFee",
              "type": "uint256"
            },
            {
              "internalType": "uint256",
              "name": "rewardGas",
              "type": "uint256"
            },
            {
              "internalType": "uint256",
              "name": "startTime",
              "type": "uint256"
            },
            {
              "internalType": "uint256",
              "name": "goodTill",
              "type": "uint256"
            }
          ],
          "internalType": "struct IPerpetual.LimitedOrder[]",
          "name": "info",
          "type": "tuple[]"
        }
      ],
      "stateMutability": "view",
      "type": "function"
    },
    {
      "inputs": [
        {
          "internalType": "uint256",
          "name": "id",
          "type": "uint256"
        }
      ],
      "name": "getLimitedOrder",
      "outputs": [
        {
          "components": [
            {
              "internalType": "address payable",
              "name": "taker",
              "type": "address"
            },
            {
              "internalType": "enum ICommon.Direct",
              "name": "direct",
              "type": "uint8"
            },
            {
              "internalType": "enum IPerpetual.OrderState",
              "name": "state",
              "type": "uint8"
            },
            {
              "internalType": "enum ICommon.Offset",
              "name": "offset",
              "type": "uint8"
            },
            {
              "internalType": "string",
              "name": "name",
              "type": "string"
            },
            {
              "internalType": "uint256",
              "name": "amount",
              "type": "uint256"
            },
            {
              "internalType": "uint256",
              "name": "targetPrice",
              "type": "uint256"
            },
            {
              "internalType": "uint256",
              "name": "margin",
              "type": "uint256"
            },
            {
              "internalType": "uint256",
              "name": "tradingFee",
              "type": "uint256"
            },
            {
              "internalType": "uint256",
              "name": "rewardGas",
              "type": "uint256"
            },
            {
              "internalType": "uint256",
              "name": "startTime",
              "type": "uint256"
            },
            {
              "internalType": "uint256",
              "name": "goodTill",
              "type": "uint256"
            }
          ],
          "internalType": "struct IPerpetual.LimitedOrder",
          "name": "",
          "type": "tuple"
        }
      ],
      "stateMutability": "view",
      "type": "function"
    },
    {
      "inputs": [],
      "name": "getLimitedOrderLength",
      "outputs": [
        {
          "internalType": "uint256",
          "name": "length",
          "type": "uint256"
        }
      ],
      "stateMutability": "view",
      "type": "function"
    },
    {
      "inputs": [],
      "name": "getOrderID",
      "outputs": [
        {
          "internalType": "uint256",
          "name": "length",
          "type": "uint256"
        }
      ],
      "stateMutability": "view",
      "type": "function"
    },
    {
      "inputs": [
        {
          "internalType": "address",
          "name": "user",
          "type": "address"
        }
      ],
      "name": "getUserDealsID",
      "outputs": [
        {
          "internalType": "uint256[]",
          "name": "",
          "type": "uint256[]"
        }
      ],
      "stateMutability": "view",
      "type": "function"
    },
    {
      "inputs": [
        {
          "internalType": "address",
          "name": "user",
          "type": "address"
        }
      ],
      "name": "getUserLimitOrdersID",
      "outputs": [
        {
          "internalType": "uint256[]",
          "name": "",
          "type": "uint256[]"
        }
      ],
      "stateMutability": "view",
      "type": "function"
    },
    {
      "inputs": [
        {
          "internalType": "address",
          "name": "initialOwner",
          "type": "address"
        },
        {
          "internalType": "address",
          "name": "_priPool",
          "type": "address"
        },
        {
          "internalType": "address",
          "name": "_perpetual",
          "type": "address"
        }
      ],
      "name": "initialize",
      "outputs": [],
      "stateMutability": "nonpayable",
      "type": "function"
    },
    {
      "inputs": [
        {
          "internalType": "uint256",
          "name": "_dealID",
          "type": "uint256"
        },
        {
          "internalType": "string[]",
          "name": "_symbols",
          "type": "string[]"
        },
        {
          "internalType": "uint256[]",
          "name": "_prices",
          "type": "uint256[]"
        }
      ],
      "name": "liquidateMakerDeal",
      "outputs": [
        {
          "internalType": "bool",
          "name": "isLiquidated",
          "type": "bool"
        },
        {
          "internalType": "bool",
          "name": "isAgreement",
          "type": "bool"
        },
        {
          "internalType": "uint256",
          "name": "userProfit",
          "type": "uint256"
        },
        {
          "internalType": "address",
          "name": "taker",
          "type": "address"
        },
        {
          "internalType": "uint256",
          "name": "margin",
          "type": "uint256"
        }
      ],
      "stateMutability": "nonpayable",
      "type": "function"
    },
    {
      "inputs": [
        {
          "internalType": "address",
          "name": "_taker",
          "type": "address"
        },
        {
          "internalType": "string",
          "name": "_name",
          "type": "string"
        },
        {
          "internalType": "enum ICommon.Direct",
          "name": "_type",
          "type": "uint8"
        },
        {
          "internalType": "enum ICommon.Offset",
          "name": "_offset",
          "type": "uint8"
        },
        {
          "internalType": "uint256",
          "name": "_amount",
          "type": "uint256"
        },
        {
          "internalType": "uint256",
          "name": "_price",
          "type": "uint256"
        },
        {
          "internalType": "uint256",
          "name": "_tradingFee",
          "type": "uint256"
        },
        {
          "internalType": "uint256",
          "name": "_rewardGas",
          "type": "uint256"
        },
        {
          "internalType": "uint256",
          "name": "_marginAmount",
          "type": "uint256"
        },
        {
          "internalType": "uint256",
          "name": "_goodTill",
          "type": "uint256"
        },
        {
          "internalType": "bool",
          "name": "condition",
          "type": "bool"
        },
        {
          "internalType": "uint256",
          "name": "_dueGas",
          "type": "uint256"
        }
      ],
      "name": "makeLimitedOrder",
      "outputs": [],
      "stateMutability": "payable",
      "type": "function"
    },
    {
      "inputs": [
        {
          "internalType": "address",
          "name": "_taker",
          "type": "address"
        },
        {
          "internalType": "string",
          "name": "_name",
          "type": "string"
        },
        {
          "internalType": "enum ICommon.Direct",
          "name": "_type",
          "type": "uint8"
        },
        {
          "internalType": "enum IPerpetual.OrderType",
          "name": "_orderType",
          "type": "uint8"
        },
        {
          "internalType": "uint256",
          "name": "_amount",
          "type": "uint256"
        },
        {
          "internalType": "uint256",
          "name": "_total",
          "type": "uint256"
        },
        {
          "internalType": "uint256",
          "name": "_tradingFee",
          "type": "uint256"
        },
        {
          "internalType": "uint256",
          "name": "_marginAmount",
          "type": "uint256"
        },
        {
          "internalType": "uint256",
          "name": "_currentPrice",
          "type": "uint256"
        },
        {
          "internalType": "uint256",
          "name": "_limitID",
          "type": "uint256"
        }
      ],
      "name": "openOrder",
      "outputs": [],
      "stateMutability": "nonpayable",
      "type": "function"
    },
    {
      "inputs": [],
      "name": "owner",
      "outputs": [
        {
          "internalType": "address",
          "name": "",
          "type": "address"
        }
      ],
      "stateMutability": "view",
      "type": "function"
    },
    {
      "inputs": [
        {
          "internalType": "address",
          "name": "",
          "type": "address"
        },
        {
          "internalType": "string",
          "name": "",
          "type": "string"
        },
        {
          "internalType": "uint256",
          "name": "",
          "type": "uint256"
        }
      ],
      "name": "positions",
      "outputs": [
        {
          "internalType": "uint256",
          "name": "value",
          "type": "uint256"
        },
        {
          "internalType": "uint256",
          "name": "size",
          "type": "uint256"
        },
        {
          "internalType": "uint256",
          "name": "margin",
          "type": "uint256"
        },
        {
          "internalType": "uint256",
          "name": "freeze",
          "type": "uint256"
        }
      ],
      "stateMutability": "view",
      "type": "function"
    },
    {
      "inputs": [],
      "name": "renounceOwnership",
      "outputs": [],
      "stateMutability": "nonpayable",
      "type": "function"
    },
    {
      "inputs": [
        {
          "internalType": "address",
          "name": "_agent",
          "type": "address"
        },
        {
          "internalType": "address",
          "name": "_station",
          "type": "address"
        }
      ],
      "name": "setKeepers",
      "outputs": [],
      "stateMutability": "nonpayable",
      "type": "function"
    },
    {
      "inputs": [
        {
          "internalType": "address",
          "name": "newOwner",
          "type": "address"
        }
      ],
      "name": "transferOwnership",
      "outputs": [],
      "stateMutability": "nonpayable",
      "type": "function"
    },
    {
      "inputs": [
        {
          "internalType": "uint256",
          "name": "",
          "type": "uint256"
        }
      ],
      "name": "triggerParam",
      "outputs": [
        {
          "internalType": "uint256",
          "name": "mean",
          "type": "uint256"
        },
        {
          "internalType": "uint256",
          "name": "openLimitPrice",
          "type": "uint256"
        },
        {
          "internalType": "uint256",
          "name": "gainTriggerPrice",
          "type": "uint256"
        },
        {
          "internalType": "uint256",
          "name": "gainLimitPrice",
          "type": "uint256"
        },
        {
          "internalType": "uint256",
          "name": "lossTriggerPrice",
          "type": "uint256"
        },
        {
          "internalType": "uint256",
          "name": "lossLimitPrice",
          "type": "uint256"
        }
      ],
      "stateMutability": "view",
      "type": "function"
    },
    {
      "inputs": [
        {
          "internalType": "uint256",
          "name": "limitID",
          "type": "uint256"
        },
        {
          "internalType": "enum IPerpetual.OrderState",
          "name": "state",
          "type": "uint8"
        },
        {
          "internalType": "uint256",
          "name": "rewardGas",
          "type": "uint256"
        }
      ],
      "name": "updateLimitOrder",
      "outputs": [],
      "stateMutability": "nonpayable",
      "type": "function"
    },
    {
      "inputs": [
        {
          "internalType": "uint256",
          "name": "limitOrderID",
          "type": "uint256"
        },
        {
          "internalType": "uint256",
          "name": "_mean",
          "type": "uint256"
        },
        {
          "internalType": "uint256",
          "name": "_openLimitPrice",
          "type": "uint256"
        },
        {
          "internalType": "uint256",
          "name": "_gainTriggerPrice",
          "type": "uint256"
        },
        {
          "internalType": "uint256",
          "name": "_gainLimitPrice",
          "type": "uint256"
        },
        {
          "internalType": "uint256",
          "name": "_lossTriggerPrice",
          "type": "uint256"
        },
        {
          "internalType": "uint256",
          "name": "_lossLimitPrice",
          "type": "uint256"
        }
      ],
      "name": "updateTriggerCondition",
      "outputs": [],
      "stateMutability": "nonpayable",
      "type": "function"
    }
  ],
  "bytecode": "0x60808060405234601557614683908161001b8239f35b600080fdfe6080604052600436101561001a575b3461001557005b600080fd5b60003560e01c80630c3fc6b9146101ea5780630c8c3516146101e55780630f12fb59146101e05780631b31c071146101db5780632b000206146101d657806349138690146101d157806352e282a7146101cc578063530e011e146101c7578063620de4da146101c25780636f4907cb146101bd578063715018a6146101b85780637207584d146101b357806375ffb53d146101ae57806382fd5bac146101a95780638da5cb5b146101a45780639324b5491461019f578063ac6b96a21461019a578063ac89c79814610195578063b811988814610190578063b99ac9271461018b578063be63309e14610186578063bfffc8bb14610181578063c0c53b8b1461017c578063c2b3356414610177578063c3710f2514610172578063dcee34751461016d578063e771ad7214610168578063ee32aa2f146101635763f2fde38b0361000e57611bb3565b611b50565b611a49565b611928565b61190a565b6118be565b611674565b6115f8565b611570565b61154d565b61152f565b61141e565b6113af565b61132d565b6112e7565b6112a8565b61117b565b61104b565b610fb2565b610f78565b610f2a565b610eb4565b610e3f565b610c6f565b610bbb565b6106f0565b61063e565b61052c565b61032e565b634e487b7160e01b600052602160045260246000fd5b6003111561020f57565b6101ef565b9061021e82610205565b52565b6007111561020f57565b90600782101561020f5752565b60005b83811061024b5750506000910152565b818101518382015260200161023b565b90601f19601f60209361027981518092818752878088019101610238565b0116010190565b80516001600160a01b03168252906102a060208301516020830190610214565b6102b26040830151604083019061022b565b6102c460608301516060830190610214565b610160806102e36080850151610180608086015261018085019061025b565b9360a081015160a085015260c081015160c085015260e081015160e0850152610100810151610100850152610120810151610120850152610140810151610140850152015191015290565b346100155760206003193601126100155761037361035f610359600435610353611bdc565b50611c48565b50611d58565b604051918291602083526020830190610280565b0390f35b600435906001600160a01b038216820361001557565b602435906001600160a01b038216820361001557565b604435906001600160a01b038216820361001557565b634e487b7160e01b600052604160045260246000fd5b60a0810190811067ffffffffffffffff8211176103eb57604052565b6103b9565b90601f601f19910116810190811067ffffffffffffffff8211176103eb57604052565b60405190610423610180836103f0565b565b60405190610423610160836103f0565b6040519061042360c0836103f0565b67ffffffffffffffff81116103eb57601f01601f191660200190565b81601f820112156100155780359061047782610444565b9261048560405194856103f0565b8284526020838301011161001557816000926020809301838601378301015290565b6001600160a01b03166000526007602052604060002090565b906104d360209282815194859201610238565b0190565b6020906104f1928260405194838680955193849201610238565b82019081520301902090565b634e487b7160e01b600052603260045260246000fd5b906002811015610527576005020190600090565b6104fd565b3461001557606060031936011261001557610545610377565b60243567ffffffffffffffff811161001557602061056a610596923690600401610460565b6001600160a01b036044359416600052600b825260406000208260405194838680955193849201610238565b820190815203019020906002811015610015576105b291610513565b5080546103736001830154926003600282015491015490604051948594859094939260609260808301968352602083015260408201520152565b6003111561001557565b906020808351928381520192019060005b8181106106145750505090565b8251845260209384019390920191600101610607565b90602061063b9281815201906105f6565b90565b3461001557606060031936011261001557610657610377565b60243567ffffffffffffffff81116100155760046106dd610373936106d76106bf602061068a6106e49736908801610460565b6001600160a01b036044359561069f876105ec565b16600052600b825260406000208260405194838680955193849201610238565b820190815203019020916106d281610205565b611e37565b90610513565b5001611e4f565b6040519182918261062a565b346100155760e060031936011261001557610709610377565b6024356044359160643561071c816105ec565b60843560a4359060c4359133600052600960205261074160ff60406000205416611e9a565b60009661074d87611ee5565b509161076c876001600160a01b0316600052600b602052604060002090565b986107c16107b961079a610784600288019d8e611f04565b87546106d79060a01c60ff165b6106d281610205565b50976107ab60038a01918254611f9c565b908190556001890154611f9c565b841115611fa9565b82158015610bae575b15610a3d5750825460a01c60ff1660048401916107f38684549360038801549485928392613b92565b91909261081761080b6002546001600160a01b031690565b6001600160a01b031690565b91823b15610015576040517ff5a4bc660000000000000000000000000000000000000000000000000000000081526001600160a01b038d166004820152602481018e9052604481019290925260036064830152608482019890985260a481019790975260c4870183905260e4870182905286610104815a6000948591f1928315610a38576004966108b094610a1d575b5054918a613d37565b505093909461090a6005850154946108e48b6108df8c6001600160a01b03166000526008602052604060002090565b613dbd565b50750300000000000000000000000000000000000000000060ff60a81b19825416179055565b019461091586611e4f565b9660005b8851811015610a01578961092d828b61209e565b511461093b57600101610919565b879899506109656109558261096a9495969798999a6120b2565b60001982549160031b1b19169055565b6120ca565b88518110156109c057806109ba6109906109866001948c6120b2565b90549060031b1c90565b6109a261099c84611f8d565b8c6120b2565b90919060001983549160031b92831b921b1916179055565b0161096a565b506109e49497506109de8496996109d9610373996120e5565b611cb6565b90613ee5565b604051938493846040919493926060820195825260208201520152565b5090919295508593975061037396506109de6109e49599611cb6565b80610a2c6000610a32936103f0565b80610c64565b386108a7565b611ff4565b94509582610a55819a959793945460ff9060a01c1690565b96610a6f85600484019960038b5495019484865492613b92565b9a9099610a8761080b6002546001600160a01b031690565b90813b15610baa576040517ff5a4bc660000000000000000000000000000000000000000000000000000000081526001600160a01b03871660048083019190915260248201859052604482018a90526064820152608481019490945260a484015260c483018b905260e483018c90528890839061010490829084905af18015610a3857610b8e9b6103739b6109de9b6109e49b610b2e968b95610b96575b50505493613c78565b505099909a6005810192835493610b5a610b53610b4b8a88612024565b845490612037565b8096611f9c565b9055610b67878254611f9c565b9055750200000000000000000000000000000000000000000060ff60a81b19825416179055565b958694611cb6565b610a2c610ba392826103f0565b3880610b25565b8980fd5b50600384015483146107ca565b3461001557604060031936011261001557610c62610bd7610377565b610c466001600160a01b0380610beb61038d565b93610bf4614009565b16928360005260096020526040600020600160ff1982541617905516918260005260096020526040600020600160ff198254161790556001600160a01b03166001600160a01b03196002541617600255565b6001600160a01b03166001600160a01b03196003541617600355565b005b600091031261001557565b34610015576000600319360112610015576020600654604051908152f35b67ffffffffffffffff81116103eb5760051b60200190565b9080601f83011215610015578135610cbc81610c8d565b92610cca60405194856103f0565b81845260208085019260051b82010192831161001557602001905b828210610cf25750505090565b8135815260209182019101610ce5565b6020600319820112610015576004359067ffffffffffffffff82116100155761063b91600401610ca5565b6006111561020f57565b90600682101561020f5752565b80516001600160a01b0316825290610d6460208301516020830190610214565b610d7660408301516040830190610d37565b610d8860608301516060830190610214565b6080820151608082015261014080610db160a085015161016060a086015261016085019061025b565b9360c081015160c085015260e081015160e0850152610100810151610100850152610120810151610120850152015191015290565b9080602083519182815201916020808360051b8301019401926000915b838310610e1257505050505090565b9091929394602080610e3083601f1986600196030187528951610d44565b97019301930191939290610e03565b3461001557610e4d36610d02565b8051610e588161217d565b9160005b828110610e79576040516020808252819061037390820187610de6565b80610e98610e92610e8c6001948661209e565b51611ee5565b506121d8565b610ea2828761209e565b52610ead818661209e565b5001610e5c565b346100155761014060031936011261001557610ece610377565b60243567ffffffffffffffff811161001557610eee903690600401610460565b9060443591610efc836105ec565b60643592600884101561001557610c629360a43560843560c4359260e4359461010435966101243598612272565b34610015576020600319360112610015576001600160a01b03610f4b610377565b166000526008602052610373610f646040600020611e4f565b6040519182916020835260208301906105f6565b34610015576020600319360112610015576001600160a01b03610f99610377565b166000526007602052610373610f646040600020611e4f565b3461001557600060031936011261001557610fcb614009565b60006001600160a01b037f9016d09d72d40fdae2fd8ceac6b6234c7706214fd39c1cd1e609a0528c199300546001600160a01b031981167f9016d09d72d40fdae2fd8ceac6b6234c7706214fd39c1cd1e609a0528c19930055167f8be0079c531659141344cd1fd0a4f28419497f9722a3daafe3b4186f6b6457e08280a3005b3461001557602060031936011261001557600435600052600a60205260a060406000207fffffffff000000000000000000000000000000000000000000000000000000006001600160a01b03825416916001600160a01b036001820154169060028101546004600383015492015460e01b92604051958652602086015260408501526060840152166080820152f35b600319606091011261001557600435906024359060443590565b9080602083519182815201916020808360051b8301019401926000915b83831061112057505050505090565b909192939460208061113e83601f1986600196030187528951610280565b97019301930191939290611111565b939291611176906111686040936060885260608801906110f4565b9086820360208801526105f6565b930152565b3461001557611189366110da565b8192809260009160065480921161129e575b8110611296575b509291926111af8261296f565b916111b9816129be565b945b8481108061128d575b156112675760016111e26111d783611c48565b505460a81c60ff1690565b6111eb81610221565b148015611249575b611206575b611201906129ef565b6111bb565b916112418184611219611201948a61209e565b5261122661035986611c48565b611230828861209e565b5261123b818761209e565b506129ef565b9290506111f8565b5060026112586111d783611c48565b61126181610221565b146111f3565b859392610373928103611282575b506040519384938461114d565b808452845284611275565b508183106111c4565b9250386111a2565b909450849061119b565b34610015576020600319360112610015576103736112d3610e926004356112cd612118565b50611ee5565b604051918291602083526020830190610d44565b346100155760006003193601126100155760206001600160a01b037f9016d09d72d40fdae2fd8ceac6b6234c7706214fd39c1cd1e609a0528c1993005416604051908152f35b346100155760a060031936011261001557611346610377565b6024359067ffffffffffffffff82116100155761136a61139d923690600401610460565b604435611376816105ec565b606435916084359333600052600960205261139860ff60406000205416611e9a565b612b4c565b60408051928352901515602083015290f35b34610015576113bd36610d02565b80516113c88161296f565b9160005b8281106113e95760405160208082528190610373908201876110f4565b806114026103596113fc6001948661209e565b51611c48565b61140c828761209e565b52611417818661209e565b50016113cc565b34610015576060600319360112610015576024356004356007821015610015576001600160a01b03610c629261145360443590565b33600052600960205261146d60ff60406000205416611e9a565b61148161147985611c48565b509283612d24565b42600883015580600683015580151580611525575b611505575b50541660005260076020526114b4816040600020613dbd565b506000908152600a6020526040902080546001600160a01b031916321781556004906001810180546001600160a01b031916331790554360038201550160003560e01c63ffffffff19825416179055565b600080808061151f94325af1611519612d5a565b50612d8a565b3861149b565b5080471015611496565b34610015576000600319360112610015576020600554604051908152f35b34610015576000600319360112610015576020611568612dd5565b604051908152f35b346100155760e06003193601126100155760043560056024356044356064356084359060a4359260c435963360005260096020526115b560ff60406000205416611e9a565b600052600c602052604060002094855560018501556002840155600383015560048201550155600080f35b8015150361001557565b6101443590610423826115e0565b6101806003193601126100155761160d610377565b6024359067ffffffffffffffff821161001557611631610c62923690600401610460565b60443561163d816105ec565b606435611649816105ec565b60843560a43560c4359060e43592610104359461012435966116696115ea565b98610164359a612e03565b346100155760606003193601126100155761168d610377565b61169561038d565b9061169e6103a3565b7ff0c57e16840df040f15088dc2f81fe391c3923bec73e23a9662efc9c229c6a00549267ffffffffffffffff6116ed60ff604087901c16156116df565b1590565b9567ffffffffffffffff1690565b16801590816118b6575b60011490816118ac575b1590816118a3575b506118795761178a928461178160017fffffffffffffffffffffffffffffffffffffffffffffffff00000000000000007ff0c57e16840df040f15088dc2f81fe391c3923bec73e23a9662efc9c229c6a005416177ff0c57e16840df040f15088dc2f81fe391c3923bec73e23a9662efc9c229c6a0055565b6118145761335f565b61179057005b6117e568ff0000000000000000197ff0c57e16840df040f15088dc2f81fe391c3923bec73e23a9662efc9c229c6a0054167ff0c57e16840df040f15088dc2f81fe391c3923bec73e23a9662efc9c229c6a0055565b604051600181527fc7f505b2f371ae2175ee4913f4499e1f2633a7b5936321eed1cdaeb6115181d290602090a1005b6118746801000000000000000068ff0000000000000000197ff0c57e16840df040f15088dc2f81fe391c3923bec73e23a9662efc9c229c6a005416177ff0c57e16840df040f15088dc2f81fe391c3923bec73e23a9662efc9c229c6a0055565b61335f565b7ff92ee8a90000000000000000000000000000000000000000000000000000000060005260046000fd5b90501538611709565b303b159150611701565b8591506116f7565b346100155760606003193601126100155760206115686004356118df61038d565b604435916118ec836115e0565b336000526009855261190560ff60406000205416611e9a565b61357b565b34610015576000600319360112610015576020600454604051908152f35b346100155760606003193601126100155760243560043567ffffffffffffffff8211610015573660238301121561001557816004013561196781610c8d565b9261197560405194856103f0565b8184526024602085019260051b820101903682116100155760248101925b8284106119fe57856044358667ffffffffffffffff821161001557610373926119c36119c9933690600401610ca5565b91613895565b6040805195151586529315156020860152928401919091526001600160a01b03166060830152608082015290819060a0820190565b833567ffffffffffffffff811161001557602091611a23839260243691870101610460565b815201930192611993565b93929161117690611168604093606088526060880190610de6565b3461001557611a57366110da565b81928092600091600554809211611b46575b8110611b3e575b50929192611a7d8261217d565b91611a87816129be565b945b84811080611b35575b15611b0f576001611aa56111d783611ee5565b611aae81610d2d565b148015611af1575b611ac9575b611ac4906129ef565b611a89565b91611ae98184611adc611ac4948a61209e565b52611226610e9286611ee5565b929050611abb565b506002611b006111d783611ee5565b611b0981610d2d565b14611ab6565b859392610373928103611b2a575b5060405193849384611a2e565b808452845284611b1d565b50818310611a92565b925038611a70565b9094508490611a69565b3461001557602060031936011261001557600435600052600c60205260c0604060002080549060018101549060028101546003820154906005600484015493015493604051958652602086015260408501526060840152608083015260a0820152f35b3461001557602060031936011261001557610c62611bcf610377565b611bd7614009565b613ad3565b60405190610180820182811067ffffffffffffffff8211176103eb57604052600061016083828152826020820152826040820152826060820152606060808201528260a08201528260c08201528260e08201528261010082015282610120820152826101408201520152565b6006548110156105275760066000526009602060002091020190600090565b61021e82610205565b600782101561020f5752565b90600182811c92168015611cac575b6020831014611c9657565b634e487b7160e01b600052602260045260246000fd5b91607f1691611c8b565b9060405191826000825492611cca84611c7c565b8084529360018116908115611d365750600114611cef575b50610423925003836103f0565b90506000929192526020600020906000915b818310611d1a5750509060206104239282010138611ce2565b6020919350806001915483858901015201910190918492611d01565b6020935061042395925060ff1991501682840152151560051b82010138611ce2565b906008611d63610413565b92611dc7611dbe8254611d8c611d7f826001600160a01b031690565b6001600160a01b03168852565b611da160a082901c60ff165b60208901611c67565b611db560a882901c60ff1660408901611c70565b60b01c60ff1690565b60608601611c67565b611dd360018201611cb6565b6080850152600281015460a0850152600381015460c0850152600481015460e08501526005810154610100850152600681015461012085015260078101546101408501520154610160830152565b634e487b7160e01b600052601160045260246000fd5b60ff6000199116019060ff8211611e4a57565b611e21565b906040519182815491828252602082019060005260206000209260005b818110611e81575050610423925003836103f0565b8454835260019485019487945060209093019201611e6c565b15611ea157565b606460405162461bcd60e51b815260206004820152601f60248201527f63616c6c6572206973206e6f74206f7264657220626f6f6b206b6565706572006044820152fd5b60055481101561052757600560005260206000209060031b0190600090565b906040518092600090805490611f1982611c7c565b9160018116908115611f755750600114611f3c575b505060209281520301902090565b90915060005260206000206000905b828210611f5e5750508101602038611f2e565b805482870152859350602090910190600101611f4b565b60ff1916855250508015150282019050602038611f2e565b906000198201918211611e4a57565b91908203918211611e4a57565b15611fb057565b606460405162461bcd60e51b815260206004820152601d60248201527f617661696c61626c6520616d6f756e7420696e73756666696369656e740000006044820152fd5b6040513d6000823e3d90fd5b90670de0b6b3a7640000820291808304670de0b6b3a76400001490151715611e4a57565b81810292918115918404141715611e4a57565b8115612041570490565b634e487b7160e01b600052601260045260246000fd5b90600681101561020f57815460ff60a81b191660a89190911b75ff00000000000000000000000000000000000000000016179055565b9055565b8051156105275760200190565b80518210156105275760209160051b010190565b80548210156105275760005260206000200190600090565b9060018201809211611e4a57565b91908201809211611e4a57565b805480156121025760001901906120ff61095583836120b2565b55565b634e487b7160e01b600052603160045260246000fd5b60405190610160820182811067ffffffffffffffff8211176103eb57604052600061014083828152826020820152826040820152826060820152826080820152606060a08201528260c08201528260e082015282610100820152826101208201520152565b9061218782610c8d565b61219460405191826103f0565b828152601f196121a48294610c8d565b019060005b8281106121b557505050565b6020906121c0612118565b828285010152016121a9565b600682101561020f5752565b9060076121e3610425565b92612223611dbe82546121ff611d7f826001600160a01b031690565b61220f60a082901c60ff16611d98565b611db560a882901c60ff16604089016121cc565b6001810154608085015261223960028201611cb6565b60a0850152600381015460c0850152600481015460e0850152600581015461010085015260068101546101208501520154610140830152565b9593949684919798929833600052600960205261229660ff60406000205416611e9a565b6040876122ae61080b6000546001600160a01b031690565b8c60008d6122ef600554938b88519b8c98899788967f8e3a0e9200000000000000000000000000000000000000000000000000000000885260048801612523565b03925af1998a15610a38576104239b6001600160a01b037febbb264ee0a0ae96eb7f0d3178c3d7cfed75dcb46bf54fb70fa43000eb77d76e9a6123727f878cac0b879164d8647426da983e248a51ef8192a43e4d3bb5b586ca2017ed54956124c69f8f878f9161236c8c946124259e6000916124d4575b50612560565b86613f87565b61237b84610205565b6123938d8961238987611e37565b600554928561409f565b6123bc6123b3826001600160a01b03166000526008602052604060002090565b600554906142ab565b5016948594600454906123cd610425565b6001600160a01b0388168152916123e78660208501611c67565b600160408401526001606084015260808301528d60a08301528b60c08301528860e0830152610100820152896101208201524261014082015261285c565b6124406004549b8c928a898d8c60405198899842978a6128c1565b0390a27f3d1da8320fcddb1c370f0c5ec1c37483e5301a7c02bd7478d62c7514643ceb1d604051806124874288836040909392919360608101946003825260208201520152565b0390a26002600192612498816128b7565b146124cb575b6124be91926124ae600554611f8d565b9160405195869542948a88612927565b0390a16120ca565b600455565b6002915061249e565b6124f6915060403d6040116124fd575b6124ee81836103f0565b810190612504565b5038612366565b503d6124e4565b9190826040910312610015576020825161251d816115e0565b92015190565b9261253e60a09592989796939860c0865260c086019061025b565b97602085015260408401526060830152608082015261255c83610205565b0152565b1561256757565b606460405162461bcd60e51b815260206004820152601760248201527f6c6971756964697479206973206e6f7420656e6f7567680000000000000000006044820152fd5b634e487b7160e01b600052600060045260246000fd5b906125cb81610205565b7fffffffffffffffffffffff00ffffffffffffffffffffffffffffffffffffffff74ff000000000000000000000000000000000000000083549260a01b169116179055565b9061261a81610205565b7fffffffffffffffffff00ffffffffffffffffffffffffffffffffffffffffffff76ff0000000000000000000000000000000000000000000083549260b01b169116179055565b81811061266c575050565b60008155600101612661565b9190601f811161268757505050565b610423926000526020600020906020601f840160051c830193106126b3575b601f0160051c0190612661565b90915081906126a6565b919091825167ffffffffffffffff81116103eb576126e5816126df8454611c7c565b84612678565b6020601f821160011461272157819061208d939495600092612716575b50506000198260011b9260031b1c19161790565b015190503880612702565b601f1982169061273684600052602060002090565b9160005b81811061277257509583600195969710612759575b505050811b019055565b015160001960f88460031b161c1916905538808061274f565b9192602060018192868b01518155019401920161273a565b919061285757610140816127c66127aa600794516001600160a01b031690565b85906001600160a01b03166001600160a01b0319825416179055565b6127dd60208201516127d781610205565b856125c1565b6127f460408201516127ee81610d2d565b85612057565b61280b606082015161280581610205565b85612610565b6080810151600185015561282660a0820151600286016126bd565b60c0810151600385015560e08101516004850155610100810151600585015561012081015160068501550151910155565b6125ab565b60055490680100000000000000008210156103eb576001820160055560055482101561052757600560009081526104239260031b7f036b6384b5eca791c62761152d0c79bb0604c104a5fb6f4eb0703f3154bb3db00161278a565b6008111561020f57565b9592906128e1909a999895929a979497610140885261014088019061025b565b9960208701526128f081610205565b6040860152600886101561020f576101209560608601526080850152600060a085015260c084015260e08301526101008201520152565b939097969592949161012085019885526020850152600585101561020f576101009460408501526060840152608083015260a0820152600060c0820152600060e08201520152565b9061297982610c8d565b61298660405191826103f0565b828152601f196129968294610c8d565b019060005b8281106129a757505050565b6020906129b2611bdc565b8282850101520161299b565b906129c882610c8d565b6129d560405191826103f0565b828152601f196129e58294610c8d565b0190602036910137565b6000198114611e4a5760010190565b90604051612a0b816103cf565b6080612a3c600483958054855260018101546020860152600281015460408601526003810154606086015201611e4f565b910152565b9190826040910312610015576020825192015161063b816115e0565b91612a85906001600160a01b036080959897969316845260a0602085015260a084019061025b565b95612a8f81610205565b604083015260608201520152565b9061285757600460809183518155602084015160018201556040840151600282015560608401516003820155019101519081519167ffffffffffffffff83116103eb576801000000000000000083116103eb576020908254848455808510612b2f575b500190600052602060002060005b838110612b1b5750505050565b600190602084519401938184015501612b0e565b612b46908460005285846000209182019101612661565b38612b00565b9194929394612b95612b8f612b7d612b77866001600160a01b0316600052600b602052604060002090565b856104d7565b612b8684610205565b6106d784611e37565b506129fe565b906020820196875115612d18578160409185600088612bf8612bc261080b6002546001600160a01b031690565b9487519d8e97889687957f9324b54900000000000000000000000000000000000000000000000000000000875260048701612a5d565b03925af1968715610a3857600096600098612ce1575b50879697612c1e575b5050505050565b6000908184999795999896985252600060408301526000606083015260009660808301975b88518051821015612c8d5790612c87612c61610e8c8360019561209e565b50750400000000000000000000000000000000000000000060ff60a81b19825416179055565b01612c43565b5050612cc76106d791612cc1612cd797996060612cd197989a9c526001600160a01b0316600052600b602052604060002090565b906104d7565b916106d281610205565b90612a9d565b3880808080612c17565b909750612d0791965060403d604011612d11575b612cff81836103f0565b810190612a41565b9590959638612c0e565b503d612cf5565b96506000955050505050565b90600781101561020f57815460ff60a81b191660a89190911b75ff00000000000000000000000000000000000000000016179055565b3d15612d85573d90612d6b82610444565b91612d7960405193846103f0565b82523d6000602084013e565b606090565b15612d9157565b606460405162461bcd60e51b815260206004820152600f60248201527f7472616e73666572206661696c656400000000000000000000000000000000006044820152fd5b336000526009602052612def60ff60406000205416611e9a565b60045460018101808211611e4a5760045590565b9888859c87968686868f87908e9f9e8f9e9a9e9c9b9c33600052600960205260406000205460ff16612e3490611e9a565b889943600654612e4e90600052600a602052604060002090565b60020155600654936001600160a01b03169c8d99604051998a994297612e749a8c613197565b037fb897e8efba831026a1f4addd3667387f974827eaa6d019fc20c1e4fdf50f64bf91a2159c61303e9c61304f9e61318f575b156130885790612f26939291612ecd612ebe610413565b6001600160a01b039095168552565b612eda8760208601611c67565b60016040850152612eee8660608601611c67565b88608085015260a08401528660c0840152600060e08401526000610100840152610120830152426101408301526101608201526132b9565b612f2f81610205565b6001810361305257505050506130227f68cbb1c862d9d961359025e53792aa8be48fcf01d4712cf5dfd194d2a184a76993612fe6612f6b610435565b6001815285602082015284604082015260006060820152826080820152600060a0820152612fad612f9d600654611f8d565b600052600c602052604060002090565b9060a060059180518455602081015160018501556040810151600285015560608101516003850155608081015160048501550151910155565b612ff1600654611f8d565b926040519485948590949360009360a09360c084019784526020840152604083015283606083015260808201520152565b0390a16001600160a01b03166000526007602052604060002090565b613049600654611f8d565b906142ab565b50565b8061306260029298979598610205565b14613073575b5050505050506104a7565b61307d95876143f4565b388080808080613068565b996002979850613107959991929394966130b26130a3610413565b6001600160a01b039097168752565b6130bf8b60208801611c67565b600160408701526130d38860608801611c67565b8960808701528b60a087015260c086015260e0850152610100840152610120830152426101408301526101608201526132b9565b61311081610205565b14613132575b5050506001600160a01b03166000526007602052604060002090565b613185916106d7612cc761315d93612cc1886001600160a01b0316600052600b602052604060002090565b50916003600184015493019261318061317885548093611f9c565b831115613314565b6120d8565b9055388080613116565b349250612ea7565b9794919b9a999693989592906131b7906101808a526101808a019061025b565b9b60208901526131c681610205565b604088015261016097600160608901526131df81610205565b608088015260a087015260c086015260e08501526101008401526101208301526101408201520152565b919061285757610160816132296127aa600894516001600160a01b031690565b61323a60208201516127d781610205565b613251604082015161324b81610221565b85612d24565b613262606082015161280581610205565b6132736080820151600186016126bd565b60a0810151600285015560c0810151600385015560e081015160048501556101008101516005850155610120810151600685015561014081015160078501550151910155565b60065490680100000000000000008210156103eb57600182016006556006548210156105275760066000908152610423926009027ff652222313e28459528d920b65115c16c04f3efc82aaedc97be59f3f377c0d3f01613209565b1561331b57565b606460405162461bcd60e51b815260206004820152601960248201527f6c696d697420636c6f736520616d6f756e7420657863656564000000000000006044820152fd5b916001600160a01b036133eb9261338c6133f89561337b6145f4565b6133836145f4565b611bcf33613ad3565b16806001600160a01b0319600054161760005560005260096020526040600020600160ff198254161790556001600160a01b0381166001600160a01b031960015416176001556001600160a01b03166000526009602052604060002090565b600160ff19825416179055565b6104236133eb306001600160a01b03166000526009602052604060002090565b1561341f57565b606460405162461bcd60e51b815260206004820152601860248201527f57726f6e6720737461746520696e2063616e63656c696e6700000000000000006044820152fd5b1561346a57565b606460405162461bcd60e51b815260206004820152600a60248201527f4e6f7420686f6c646572000000000000000000000000000000000000000000006044820152fd5b9390926134cd610120969399989794610140875261014087019061025b565b9860208601526134dc81610205565b6040850152600760608501526080840152600060a084015260c0830152600060e08301526101008201520152565b1561351157565b608460405162461bcd60e51b815260206004820152602260248201527f63616e63656c20616d6f756e74206973206772656174207468616e206672656560448201527f7a650000000000000000000000000000000000000000000000000000000000006064820152fd5b9161358861035984611c48565b91811561380a575060408201600181516135a181610221565b6135aa81610221565b1480156137ed575b6137dc575b505b6135cc826135c685611c48565b90613209565b610120820151801515806137d2575b6137a5575b5081516001600160a01b03169160808101918251946135fd612dd5565b7f878cac0b879164d8647426da983e248a51ef8192a43e4d3bb5b586ca2017ed546001600160a01b03602086019761365889519a61363a8c610205565b8660a08a019c8d5160c08c01519160405197889716994295886134ae565b0390a2613673816108df6104a786516001600160a01b031690565b506136c8816000908152600a6020526040902080546001600160a01b031916321781556004906001810180546001600160a01b031916331790554360038201550160003560e01c63ffffffff19825416179055565b8115613785575b5061377c57600260608201516136e481610205565b6136ed81610205565b0361376357916106d761373461373f9361372d61371461375c97516001600160a01b031690565b6001600160a01b0316600052600b602052604060002090565b90516104d7565b915161079181610205565b506003835191019261375584548093111561350a565b5190611f9c565b9055600090565b91505061063b915061010060e0820151910151906120d8565b50505050600090565b6001915061379d90600052600c602052604060002090565b5414386136cf565b60008080806137cc946137c261080b89516001600160a01b031690565b5af1611519612d5a565b386135e0565b50804710156135db565b6004905242610160830152386135b7565b50600281516137fb81610221565b61380481610221565b146135b2565b6138679061386160408501916001835161382381610221565b61382c81610221565b148015613873575b61383d90613418565b6001600160a01b038061385788516001600160a01b031690565b9216911614613463565b60049052565b426101608301526135b9565b5061383d6002845161388481610221565b61388d81610221565b149050613834565b909291923360005260096020526138b360ff60406000205416611e9a565b6138bf610e9283611ee5565b9260009460009260a08601935b8151811015613aa0576138df818361209e565b51604051613903816138f56020820180956104c0565b03601f1981018352826103f0565b519020855160405161391d816138f56020820180956104c0565b5190201461392d576001016138cc565b90506000965061393c9161209e565b51915b61395361080b86516001600160a01b031690565b9361010086019160606139bb84519661397761080b6002546001600160a01b031690565b906040519b8c809481937f016f4dcb000000000000000000000000000000000000000000000000000000008352896004840160209093929193604081019481520152565b03925af1968715610a3857600093600099600099613a63575b50846139e6575b505050509493929190565b613a0982613a03613a5a966139fe6040840160059052565b611ee5565b9061278a565b81516001600160a01b03169251602083015190613a2582610205565b6001600160a01b03613a53613a4560e060c0880151965197015186612024565b670de0b6b3a7640000900490565b9516613fee565b388080806139db565b9194509750613a8b91985060603d606011613a99575b613a8381836103f0565b810190613aac565b9098909791939091846139d4565b503d613a79565b5050506000949161393f565b90816060910312610015578051613ac2816115e0565b916040602083015161251d816115e0565b6001600160a01b03168015613b63576001600160a01b037f9016d09d72d40fdae2fd8ceac6b6234c7706214fd39c1cd1e609a0528c19930054826001600160a01b03198216177f9016d09d72d40fdae2fd8ceac6b6234c7706214fd39c1cd1e609a0528c19930055167f8be0079c531659141344cd1fd0a4f28419497f9722a3daafe3b4186f6b6457e0600080a3565b7f1e4fbdf700000000000000000000000000000000000000000000000000000000600052600060045260246000fd5b60409360a4929396956001600160a01b036002541691865198899687957fca6ec372000000000000000000000000000000000000000000000000000000008752613bdb81610205565b600487015260248601526044850152606484015260848301525afa918215610a38576000908193613c0b57509190565b9092506040813d604011613c3f575b81613c27604093836103f0565b81010312613c3b5760209080519350015190565b8280fd5b3d9150613c1a565b91908260809103126100155781519160208101519160606040830151613c6c816115e0565b92015161063b816115e0565b600060809460e49394966001600160a01b038354169160405198899788967ff26a3e1d000000000000000000000000000000000000000000000000000000008852600488015285602488015260448701526064860152608485015260a4840152600160c48401525af18015610a3857600092600093600093600093613cff575b5093929190565b9250509250613d26915060803d608011613d30575b613d1e81836103f0565b810190613c47565b9193909238613cf8565b503d613d14565b60e4906000608094956001600160a01b038254169060405197889687957ff26a3e1d00000000000000000000000000000000000000000000000000000000875260048701528460248701526044860152606485015282608485015260a4840152600160c48401525af18015610a3857600092600093600093600093613cff575093929190565b906001820190613de46116db613ddd838590600052602052604060002090565b5460ff1690565b613e925782549060005b828110613dff575050505050600090565b81613e0d61098683886120b2565b14613e1a57600101613dee565b9492909193945b613e2a85611f8d565b811015613e6157600181613e59613e4f610986613e49613e2a966120ca565b8b6120b2565b6109a2838b6120b2565b019050613e21565b50613e8d9350613e74613e8393956120e5565b90600052602052604060002090565b60ff198154169055565b600190565b505050600090565b15613ea157565b606460405162461bcd60e51b815260206004820152601160248201527f496e76616c696420646972656374696f6e0000000000000000000000000000006044820152fd5b92916106d7612cc7613f1493612cc1600097613f0086610205565b600186148015613f74575b61371490613e9a565b50908154928315600014613f315760029350825560018201550155565b5090613f3d8284612024565b613f4d6001830191825490612037565b8403938411611e4a57613f6960029361208d9584558254611f9c565b905501918254611f9c565b50613f7e86610205565b60028614613f0b565b612cc7613fa39392612cc16106d79398969798613f0086610205565b5090815415600014613fbe5791600292825560018201550155565b908054918201809211611e4a5761208d926002928255613fe3600183019182546120d8565b9055019182546120d8565b612cc7613f149392612cc16106d793989798613f0086610205565b6001600160a01b037f9016d09d72d40fdae2fd8ceac6b6234c7706214fd39c1cd1e609a0528c1993005416330361403c57565b7f118cdaa7000000000000000000000000000000000000000000000000000000006000523360045260246000fd5b90815491680100000000000000008310156103eb57826109a2916001610423950181556120b2565b8015611e4a576000190190565b916140ca6140cf92612cc1600495989697986001600160a01b0316600052600b602052604060002090565b610513565b50019283546140dd816129be565b9060005b81811061423957501561422c5760005b8151811080614219575b1561410e57614109906129ef565b6140f1565b91929350508354811480614200575b6141d057801515806141e7575b6141d05783548110806141b9575b6141ab5761415b61415561098661414f8754611f8d565b876120b2565b8561406a565b6141658454611f8d565b81811161417b57506109a29061042393946120b2565b806141a16141976109866141916141a695611f8d565b896120b2565b6109a283896120b2565b614092565b614165565b6109a29061042393946120b2565b506000196141ca61098683876120b2565b14614138565b61042392936141e16109a292611f8d565b906120b2565b506000196141fa61098661414f84611f8d565b1461412a565b5060001961421361098661414f84611f8d565b1461411d565b50614224818361209e565b5185116140fb565b509092610423925061406a565b8060001961424c6109866001948b6120b2565b146142785760046142636139fe610986848c6120b2565b500154614270828661209e565b525b016140e1565b8061428e57600061428885612091565b52614272565b6142a061429a82611f8d565b8561209e565b51614288828661209e565b919060018301816000528060205260ff6040600020541661437357600084545b80821061433157506142dd838661406a565b6142e78554611f8d565b818111614306575090613e74836109a26133eb9594613e8d97986120b2565b806141a161432261098661431c61432c95611f8d565b8a6120b2565b6109a2838a6120b2565b6142e7565b90818101808211611e4a5760011c908461434b83896120b2565b90549060031b1c1060001461436c575060018101809111611e4a57906142cb565b91506142cb565b506000925050565b60405190614388826103cf565b60606080836000815260006020820152600060408201526000838201520152565b156143b057565b606460405162461bcd60e51b815260206004820152601560248201527f706f736974696f6e2073697a65206973207a65726f00000000000000000000006044820152fd5b612b8f612b7d7f68cbb1c862d9d961359025e53792aa8be48fcf01d4712cf5dfd194d2a184a7699895979493612cc16144499461442f61437b565b506001600160a01b0316600052600b602052604060002090565b906020820161445a815115156143a9565b861592831593846145ec575b6144f3575b50505050906144ee916144b061447f610435565b60018152600060208201528660408201528560608201528260808201528360a0820152612fad612f9d600654611f8d565b6144bb600654611f8d565b9360405195869586919260a093969594919660c08401978452600060208501526040840152606083015260808201520152565b0390a1565b906145016145099251612000565b905190612037565b91806145ad575b1561452d5750505050906144ee60009283925b909138808061446b565b8215159182614554575b5050614548575b906144ee91614523565b9250905060008061453e565b90915061456082610205565b6001821491826145a3575b821561457b575b50503880614537565b600291925061458981610205565b149081614599575b503880614572565b9050811038614591565b818411925061456b565b506145b781610205565b60018114806145e3575b8061451057506145d081610205565b6002811480156145105750818611614510565b508186106145c1565b508415614466565b60ff7ff0c57e16840df040f15088dc2f81fe391c3923bec73e23a9662efc9c229c6a005460401c161561462357565b7fd7e6bcf80000000000000000000000000000000000000000000000000000000060005260046000fdfea2646970667358221220675fdc5f962a6b3b0ec47ad3c10d822e30c5d21ba89e21120eb88961f39cf8c264736f6c634300081c0033",
  "linkReferences": {},
  "deployedLinkReferences": {}
}