{
  "_format": "hh-sol-artifact-1",
  "contractName": "OrderBook",
  "sourceName": "contracts/OrderBook.sol",
  "abi": [
    {
      "inputs": [],
      "name": "InvalidInitialization",
      "type": "error"
    },
    {
      "inputs": [],
      "name": "NotInitializing",
      "type": "error"
    },
    {
      "inputs": [
        {
          "internalType": "address",
          "name": "owner",
          "type": "address"
        }
      ],
      "name": "OwnableInvalidOwner",
      "type": "error"
    },
    {
      "inputs": [
        {
          "internalType": "address",
          "name": "account",
          "type": "address"
        }
      ],
      "name": "OwnableUnauthorizedAccount",
      "type": "error"
    },
    {
      "anonymous": false,
      "inputs": [
        {
          "indexed": false,
          "internalType": "address",
          "name": "taker",
          "type": "address"
        },
        {
          "indexed": false,
          "internalType": "uint256",
          "name": "amount",
          "type": "uint256"
        },
        {
          "indexed": false,
          "internalType": "uint256",
          "name": "availableAmount",
          "type": "uint256"
        },
        {
          "indexed": false,
          "internalType": "uint256",
          "name": "marginAmount",
          "type": "uint256"
        },
        {
          "indexed": false,
          "internalType": "uint256",
          "name": "locked",
          "type": "uint256"
        },
        {
          "indexed": false,
          "internalType": "uint256",
          "name": "stage",
          "type": "uint256"
        },
        {
          "indexed": false,
          "internalType": "uint256",
          "name": "dif",
          "type": "uint256"
        }
      ],
      "name": "BalanceOfTaker",
      "type": "event"
    },
    {
      "anonymous": false,
      "inputs": [
        {
          "indexed": false,
          "internalType": "string",
          "name": "name",
          "type": "string"
        },
        {
          "indexed": true,
          "internalType": "address",
          "name": "taker",
          "type": "address"
        },
        {
          "indexed": true,
          "internalType": "address",
          "name": "token",
          "type": "address"
        },
        {
          "indexed": false,
          "internalType": "uint256",
          "name": "orderID",
          "type": "uint256"
        },
        {
          "indexed": false,
          "internalType": "enum ICommon.Direct",
          "name": "orderType",
          "type": "uint8"
        },
        {
          "indexed": false,
          "internalType": "enum IPerpetual.OrderState",
          "name": "state",
          "type": "uint8"
        },
        {
          "indexed": false,
          "internalType": "enum ICommon.Offset",
          "name": "offset",
          "type": "uint8"
        },
        {
          "indexed": false,
          "internalType": "uint256",
          "name": "amount",
          "type": "uint256"
        },
        {
          "indexed": false,
          "internalType": "uint256",
          "name": "targetPrice",
          "type": "uint256"
        },
        {
          "indexed": false,
          "internalType": "uint256",
          "name": "margin",
          "type": "uint256"
        },
        {
          "indexed": false,
          "internalType": "uint256",
          "name": "rewardGas",
          "type": "uint256"
        },
        {
          "indexed": false,
          "internalType": "uint256",
          "name": "tradingFee",
          "type": "uint256"
        },
        {
          "indexed": false,
          "internalType": "uint256",
          "name": "startTime",
          "type": "uint256"
        },
        {
          "indexed": false,
          "internalType": "uint256",
          "name": "goodTill",
          "type": "uint256"
        }
      ],
      "name": "CreateLimitedOrder",
      "type": "event"
    },
    {
      "anonymous": false,
      "inputs": [
        {
          "indexed": false,
          "internalType": "uint256",
          "name": "limitOrderID",
          "type": "uint256"
        },
        {
          "indexed": false,
          "internalType": "uint256",
          "name": "openLimitPrice",
          "type": "uint256"
        },
        {
          "indexed": false,
          "internalType": "uint256",
          "name": "gainTriggerPrice",
          "type": "uint256"
        },
        {
          "indexed": false,
          "internalType": "uint256",
          "name": "gainLimitPrice",
          "type": "uint256"
        },
        {
          "indexed": false,
          "internalType": "uint256",
          "name": "lossTriggerPrice",
          "type": "uint256"
        },
        {
          "indexed": false,
          "internalType": "uint256",
          "name": "lossLimitPrice",
          "type": "uint256"
        }
      ],
      "name": "CreateTriggerCondition",
      "type": "event"
    },
    {
      "anonymous": false,
      "inputs": [
        {
          "indexed": false,
          "internalType": "uint256",
          "name": "code",
          "type": "uint256"
        },
        {
          "indexed": false,
          "internalType": "uint256",
          "name": "orderID",
          "type": "uint256"
        },
        {
          "indexed": false,
          "internalType": "string",
          "name": "message",
          "type": "string"
        }
      ],
      "name": "ErrorInfo",
      "type": "event"
    },
    {
      "anonymous": false,
      "inputs": [
        {
          "indexed": false,
          "internalType": "uint256",
          "name": "code",
          "type": "uint256"
        },
        {
          "indexed": false,
          "internalType": "uint256",
          "name": "orderID",
          "type": "uint256"
        },
        {
          "indexed": false,
          "internalType": "bytes",
          "name": "message",
          "type": "bytes"
        }
      ],
      "name": "ExceptErrorInfo",
      "type": "event"
    },
    {
      "anonymous": false,
      "inputs": [
        {
          "indexed": false,
          "internalType": "uint64",
          "name": "version",
          "type": "uint64"
        }
      ],
      "name": "Initialized",
      "type": "event"
    },
    {
      "anonymous": false,
      "inputs": [
        {
          "indexed": true,
          "internalType": "address",
          "name": "taker",
          "type": "address"
        },
        {
          "indexed": false,
          "internalType": "string",
          "name": "name",
          "type": "string"
        },
        {
          "indexed": false,
          "internalType": "address",
          "name": "token",
          "type": "address"
        },
        {
          "indexed": false,
          "internalType": "uint256",
          "name": "orderID",
          "type": "uint256"
        },
        {
          "indexed": false,
          "internalType": "enum ICommon.Direct",
          "name": "direction",
          "type": "uint8"
        },
        {
          "indexed": false,
          "internalType": "enum IPerpetual.OrderType",
          "name": "orderType",
          "type": "uint8"
        },
        {
          "indexed": false,
          "internalType": "uint256",
          "name": "amount",
          "type": "uint256"
        },
        {
          "indexed": false,
          "internalType": "uint256",
          "name": "costPrice",
          "type": "uint256"
        },
        {
          "indexed": false,
          "internalType": "uint256",
          "name": "price",
          "type": "uint256"
        },
        {
          "indexed": false,
          "internalType": "uint256",
          "name": "tradingFee",
          "type": "uint256"
        },
        {
          "indexed": false,
          "internalType": "uint256",
          "name": "limitOrderId",
          "type": "uint256"
        },
        {
          "indexed": false,
          "internalType": "uint256",
          "name": "timestamp",
          "type": "uint256"
        }
      ],
      "name": "OrderHistory",
      "type": "event"
    },
    {
      "anonymous": false,
      "inputs": [
        {
          "indexed": true,
          "internalType": "address",
          "name": "previousOwner",
          "type": "address"
        },
        {
          "indexed": true,
          "internalType": "address",
          "name": "newOwner",
          "type": "address"
        }
      ],
      "name": "OwnershipTransferred",
      "type": "event"
    },
    {
      "anonymous": false,
      "inputs": [
        {
          "indexed": false,
          "internalType": "address",
          "name": "",
          "type": "address"
        },
        {
          "indexed": false,
          "internalType": "bool",
          "name": "",
          "type": "bool"
        }
      ],
      "name": "SetKeeper",
      "type": "event"
    },
    {
      "anonymous": false,
      "inputs": [
        {
          "indexed": false,
          "internalType": "address",
          "name": "token",
          "type": "address"
        },
        {
          "indexed": false,
          "internalType": "uint256",
          "name": "orderID",
          "type": "uint256"
        },
        {
          "indexed": false,
          "internalType": "uint256",
          "name": "dealID",
          "type": "uint256"
        },
        {
          "indexed": false,
          "internalType": "enum IPerpetual.TradeType",
          "name": "tradeType",
          "type": "uint8"
        },
        {
          "indexed": false,
          "internalType": "uint256",
          "name": "amount",
          "type": "uint256"
        },
        {
          "indexed": false,
          "internalType": "uint256",
          "name": "price",
          "type": "uint256"
        },
        {
          "indexed": false,
          "internalType": "uint256",
          "name": "tradingFee",
          "type": "uint256"
        },
        {
          "indexed": false,
          "internalType": "uint256",
          "name": "profit",
          "type": "uint256"
        },
        {
          "indexed": false,
          "internalType": "uint256",
          "name": "loss",
          "type": "uint256"
        },
        {
          "indexed": false,
          "internalType": "uint256",
          "name": "timestamp",
          "type": "uint256"
        }
      ],
      "name": "TradeHistory",
      "type": "event"
    },
    {
      "anonymous": false,
      "inputs": [
        {
          "indexed": true,
          "internalType": "address",
          "name": "taker",
          "type": "address"
        },
        {
          "indexed": true,
          "internalType": "address",
          "name": "token",
          "type": "address"
        },
        {
          "indexed": false,
          "internalType": "enum ICommon.TransactionType",
          "name": "transactionType",
          "type": "uint8"
        },
        {
          "indexed": false,
          "internalType": "uint256",
          "name": "amount",
          "type": "uint256"
        },
        {
          "indexed": false,
          "internalType": "uint256",
          "name": "timestamp",
          "type": "uint256"
        }
      ],
      "name": "TransactionHistory",
      "type": "event"
    },
    {
      "anonymous": false,
      "inputs": [
        {
          "indexed": false,
          "internalType": "address",
          "name": "sender",
          "type": "address"
        },
        {
          "indexed": false,
          "internalType": "address",
          "name": "received",
          "type": "address"
        },
        {
          "indexed": false,
          "internalType": "enum ICommon.TransactionType",
          "name": "transactionType",
          "type": "uint8"
        },
        {
          "indexed": false,
          "internalType": "uint256",
          "name": "amount",
          "type": "uint256"
        },
        {
          "indexed": false,
          "internalType": "uint256",
          "name": "timestamp",
          "type": "uint256"
        }
      ],
      "name": "TransferFee",
      "type": "event"
    },
    {
      "anonymous": false,
      "inputs": [
        {
          "indexed": false,
          "internalType": "uint8",
          "name": "direct",
          "type": "uint8"
        },
        {
          "indexed": false,
          "internalType": "uint256",
          "name": "price",
          "type": "uint256"
        },
        {
          "indexed": false,
          "internalType": "uint256",
          "name": "value",
          "type": "uint256"
        }
      ],
      "name": "indexPosition",
      "type": "event"
    },
    {
      "anonymous": false,
      "inputs": [
        {
          "indexed": false,
          "internalType": "address",
          "name": "sender",
          "type": "address"
        },
        {
          "indexed": false,
          "internalType": "uint256",
          "name": "beforeLeverage",
          "type": "uint256"
        },
        {
          "indexed": false,
          "internalType": "uint256",
          "name": "afterLeverage",
          "type": "uint256"
        }
      ],
      "name": "setLeverage",
      "type": "event"
    },
    {
      "stateMutability": "nonpayable",
      "type": "fallback"
    },
    {
      "inputs": [
        {
          "internalType": "uint256",
          "name": "_oid",
          "type": "uint256"
        },
        {
          "internalType": "address",
          "name": "_holder",
          "type": "address"
        },
        {
          "internalType": "bool",
          "name": "liquidated",
          "type": "bool"
        }
      ],
      "name": "cancelOrder",
      "outputs": [
        {
          "internalType": "uint256",
          "name": "lockedAmount",
          "type": "uint256"
        }
      ],
      "stateMutability": "nonpayable",
      "type": "function"
    },
    {
      "inputs": [
        {
          "internalType": "address",
          "name": "_taker",
          "type": "address"
        },
        {
          "internalType": "string",
          "name": "_pair",
          "type": "string"
        },
        {
          "internalType": "enum ICommon.Direct",
          "name": "_type",
          "type": "uint8"
        },
        {
          "internalType": "uint256",
          "name": "_currentPrice",
          "type": "uint256"
        },
        {
          "internalType": "uint256",
          "name": "_deposit",
          "type": "uint256"
        }
      ],
      "name": "clearingTakerPosition",
      "outputs": [
        {
          "internalType": "uint256",
          "name": "deposit",
          "type": "uint256"
        }
      ],
      "stateMutability": "nonpayable",
      "type": "function"
    },
    {
      "inputs": [
        {
          "internalType": "address",
          "name": "_taker",
          "type": "address"
        },
        {
          "internalType": "uint256",
          "name": "_dealID",
          "type": "uint256"
        },
        {
          "internalType": "uint256",
          "name": "_amount",
          "type": "uint256"
        },
        {
          "internalType": "enum ICommon.Direct",
          "name": "_type",
          "type": "uint8"
        },
        {
          "internalType": "uint256",
          "name": "_currentPrice",
          "type": "uint256"
        },
        {
          "internalType": "uint256",
          "name": "tradeFeeRate",
          "type": "uint256"
        },
        {
          "internalType": "uint256",
          "name": "releaseSize",
          "type": "uint256"
        }
      ],
      "name": "closeDeal",
      "outputs": [
        {
          "internalType": "uint256",
          "name": "profit",
          "type": "uint256"
        },
        {
          "internalType": "uint256",
          "name": "loss",
          "type": "uint256"
        },
        {
          "internalType": "uint256",
          "name": "margin",
          "type": "uint256"
        }
      ],
      "stateMutability": "nonpayable",
      "type": "function"
    },
    {
      "inputs": [
        {
          "internalType": "uint256",
          "name": "",
          "type": "uint256"
        }
      ],
      "name": "doneLimitOrders",
      "outputs": [
        {
          "internalType": "address",
          "name": "trigger",
          "type": "address"
        },
        {
          "internalType": "address",
          "name": "caller",
          "type": "address"
        },
        {
          "internalType": "uint256",
          "name": "openBlockNumber",
          "type": "uint256"
        },
        {
          "internalType": "uint256",
          "name": "closeBlockNumber",
          "type": "uint256"
        },
        {
          "internalType": "bytes4",
          "name": "method",
          "type": "bytes4"
        }
      ],
      "stateMutability": "view",
      "type": "function"
    },
    {
      "inputs": [
        {
          "internalType": "uint256",
          "name": "_start",
          "type": "uint256"
        },
        {
          "internalType": "uint256",
          "name": "_end",
          "type": "uint256"
        },
        {
          "internalType": "uint256",
          "name": "_count",
          "type": "uint256"
        }
      ],
      "name": "getActiveDeals",
      "outputs": [
        {
          "components": [
            {
              "internalType": "address payable",
              "name": "taker",
              "type": "address"
            },
            {
              "internalType": "enum ICommon.Direct",
              "name": "direct",
              "type": "uint8"
            },
            {
              "internalType": "enum ICommon.DealState",
              "name": "state",
              "type": "uint8"
            },
            {
              "internalType": "enum ICommon.Offset",
              "name": "offset",
              "type": "uint8"
            },
            {
              "internalType": "uint256",
              "name": "orderID",
              "type": "uint256"
            },
            {
              "internalType": "string",
              "name": "name",
              "type": "string"
            },
            {
              "internalType": "uint256",
              "name": "amount",
              "type": "uint256"
            },
            {
              "internalType": "uint256",
              "name": "price",
              "type": "uint256"
            },
            {
              "internalType": "uint256",
              "name": "margin",
              "type": "uint256"
            },
            {
              "internalType": "uint256",
              "name": "tradingFee",
              "type": "uint256"
            },
            {
              "internalType": "uint256",
              "name": "timestamp",
              "type": "uint256"
            }
          ],
          "internalType": "struct ICommon.Deal[]",
          "name": "info",
          "type": "tuple[]"
        },
        {
          "internalType": "uint256[]",
          "name": "ids",
          "type": "uint256[]"
        },
        {
          "internalType": "uint256",
          "name": "end",
          "type": "uint256"
        }
      ],
      "stateMutability": "view",
      "type": "function"
    },
    {
      "inputs": [
        {
          "internalType": "uint256",
          "name": "_start",
          "type": "uint256"
        },
        {
          "internalType": "uint256",
          "name": "_end",
          "type": "uint256"
        },
        {
          "internalType": "uint256",
          "name": "_count",
          "type": "uint256"
        }
      ],
      "name": "getActiveLimitedOrders",
      "outputs": [
        {
          "components": [
            {
              "internalType": "address payable",
              "name": "taker",
              "type": "address"
            },
            {
              "internalType": "enum ICommon.Direct",
              "name": "direct",
              "type": "uint8"
            },
            {
              "internalType": "enum IPerpetual.OrderState",
              "name": "state",
              "type": "uint8"
            },
            {
              "internalType": "enum ICommon.Offset",
              "name": "offset",
              "type": "uint8"
            },
            {
              "internalType": "string",
              "name": "name",
              "type": "string"
            },
            {
              "internalType": "uint256",
              "name": "amount",
              "type": "uint256"
            },
            {
              "internalType": "uint256",
              "name": "targetPrice",
              "type": "uint256"
            },
            {
              "internalType": "uint256",
              "name": "margin",
              "type": "uint256"
            },
            {
              "internalType": "uint256",
              "name": "tradingFee",
              "type": "uint256"
            },
            {
              "internalType": "uint256",
              "name": "rewardGas",
              "type": "uint256"
            },
            {
              "internalType": "uint256",
              "name": "startTime",
              "type": "uint256"
            },
            {
              "internalType": "uint256",
              "name": "goodTill",
              "type": "uint256"
            }
          ],
          "internalType": "struct IPerpetual.LimitedOrder[]",
          "name": "info",
          "type": "tuple[]"
        },
        {
          "internalType": "uint256[]",
          "name": "ids",
          "type": "uint256[]"
        },
        {
          "internalType": "uint256",
          "name": "end",
          "type": "uint256"
        }
      ],
      "stateMutability": "view",
      "type": "function"
    },
    {
      "inputs": [],
      "name": "getAndIncreaseOrderID",
      "outputs": [
        {
          "internalType": "uint256",
          "name": "length",
          "type": "uint256"
        }
      ],
      "stateMutability": "nonpayable",
      "type": "function"
    },
    {
      "inputs": [
        {
          "internalType": "uint256",
          "name": "id",
          "type": "uint256"
        }
      ],
      "name": "getDeal",
      "outputs": [
        {
          "components": [
            {
              "internalType": "address payable",
              "name": "taker",
              "type": "address"
            },
            {
              "internalType": "enum ICommon.Direct",
              "name": "direct",
              "type": "uint8"
            },
            {
              "internalType": "enum ICommon.DealState",
              "name": "state",
              "type": "uint8"
            },
            {
              "internalType": "enum ICommon.Offset",
              "name": "offset",
              "type": "uint8"
            },
            {
              "internalType": "uint256",
              "name": "orderID",
              "type": "uint256"
            },
            {
              "internalType": "string",
              "name": "name",
              "type": "string"
            },
            {
              "internalType": "uint256",
              "name": "amount",
              "type": "uint256"
            },
            {
              "internalType": "uint256",
              "name": "price",
              "type": "uint256"
            },
            {
              "internalType": "uint256",
              "name": "margin",
              "type": "uint256"
            },
            {
              "internalType": "uint256",
              "name": "tradingFee",
              "type": "uint256"
            },
            {
              "internalType": "uint256",
              "name": "timestamp",
              "type": "uint256"
            }
          ],
          "internalType": "struct ICommon.Deal",
          "name": "",
          "type": "tuple"
        }
      ],
      "stateMutability": "view",
      "type": "function"
    },
    {
      "inputs": [],
      "name": "getDealLength",
      "outputs": [
        {
          "internalType": "uint256",
          "name": "length",
          "type": "uint256"
        }
      ],
      "stateMutability": "view",
      "type": "function"
    },
    {
      "inputs": [
        {
          "internalType": "uint256[]",
          "name": "_ids",
          "type": "uint256[]"
        }
      ],
      "name": "getDeals",
      "outputs": [
        {
          "components": [
            {
              "internalType": "address payable",
              "name": "taker",
              "type": "address"
            },
            {
              "internalType": "enum ICommon.Direct",
              "name": "direct",
              "type": "uint8"
            },
            {
              "internalType": "enum ICommon.DealState",
              "name": "state",
              "type": "uint8"
            },
            {
              "internalType": "enum ICommon.Offset",
              "name": "offset",
              "type": "uint8"
            },
            {
              "internalType": "uint256",
              "name": "orderID",
              "type": "uint256"
            },
            {
              "internalType": "string",
              "name": "name",
              "type": "string"
            },
            {
              "internalType": "uint256",
              "name": "amount",
              "type": "uint256"
            },
            {
              "internalType": "uint256",
              "name": "price",
              "type": "uint256"
            },
            {
              "internalType": "uint256",
              "name": "margin",
              "type": "uint256"
            },
            {
              "internalType": "uint256",
              "name": "tradingFee",
              "type": "uint256"
            },
            {
              "internalType": "uint256",
              "name": "timestamp",
              "type": "uint256"
            }
          ],
          "internalType": "struct ICommon.Deal[]",
          "name": "info",
          "type": "tuple[]"
        }
      ],
      "stateMutability": "view",
      "type": "function"
    },
    {
      "inputs": [
        {
          "internalType": "address",
          "name": "_taker",
          "type": "address"
        },
        {
          "internalType": "string",
          "name": "_name",
          "type": "string"
        },
        {
          "internalType": "enum ICommon.Direct",
          "name": "_type",
          "type": "uint8"
        }
      ],
      "name": "getDealsByPosition",
      "outputs": [
        {
          "internalType": "uint256[]",
          "name": "_deals",
          "type": "uint256[]"
        }
      ],
      "stateMutability": "view",
      "type": "function"
    },
    {
      "inputs": [
        {
          "internalType": "uint256[]",
          "name": "_ids",
          "type": "uint256[]"
        }
      ],
      "name": "getLimitOrders",
      "outputs": [
        {
          "components": [
            {
              "internalType": "address payable",
              "name": "taker",
              "type": "address"
            },
            {
              "internalType": "enum ICommon.Direct",
              "name": "direct",
              "type": "uint8"
            },
            {
              "internalType": "enum IPerpetual.OrderState",
              "name": "state",
              "type": "uint8"
            },
            {
              "internalType": "enum ICommon.Offset",
              "name": "offset",
              "type": "uint8"
            },
            {
              "internalType": "string",
              "name": "name",
              "type": "string"
            },
            {
              "internalType": "uint256",
              "name": "amount",
              "type": "uint256"
            },
            {
              "internalType": "uint256",
              "name": "targetPrice",
              "type": "uint256"
            },
            {
              "internalType": "uint256",
              "name": "margin",
              "type": "uint256"
            },
            {
              "internalType": "uint256",
              "name": "tradingFee",
              "type": "uint256"
            },
            {
              "internalType": "uint256",
              "name": "rewardGas",
              "type": "uint256"
            },
            {
              "internalType": "uint256",
              "name": "startTime",
              "type": "uint256"
            },
            {
              "internalType": "uint256",
              "name": "goodTill",
              "type": "uint256"
            }
          ],
          "internalType": "struct IPerpetual.LimitedOrder[]",
          "name": "info",
          "type": "tuple[]"
        }
      ],
      "stateMutability": "view",
      "type": "function"
    },
    {
      "inputs": [
        {
          "internalType": "uint256",
          "name": "id",
          "type": "uint256"
        }
      ],
      "name": "getLimitedOrder",
      "outputs": [
        {
          "components": [
            {
              "internalType": "address payable",
              "name": "taker",
              "type": "address"
            },
            {
              "internalType": "enum ICommon.Direct",
              "name": "direct",
              "type": "uint8"
            },
            {
              "internalType": "enum IPerpetual.OrderState",
              "name": "state",
              "type": "uint8"
            },
            {
              "internalType": "enum ICommon.Offset",
              "name": "offset",
              "type": "uint8"
            },
            {
              "internalType": "string",
              "name": "name",
              "type": "string"
            },
            {
              "internalType": "uint256",
              "name": "amount",
              "type": "uint256"
            },
            {
              "internalType": "uint256",
              "name": "targetPrice",
              "type": "uint256"
            },
            {
              "internalType": "uint256",
              "name": "margin",
              "type": "uint256"
            },
            {
              "internalType": "uint256",
              "name": "tradingFee",
              "type": "uint256"
            },
            {
              "internalType": "uint256",
              "name": "rewardGas",
              "type": "uint256"
            },
            {
              "internalType": "uint256",
              "name": "startTime",
              "type": "uint256"
            },
            {
              "internalType": "uint256",
              "name": "goodTill",
              "type": "uint256"
            }
          ],
          "internalType": "struct IPerpetual.LimitedOrder",
          "name": "",
          "type": "tuple"
        }
      ],
      "stateMutability": "view",
      "type": "function"
    },
    {
      "inputs": [],
      "name": "getLimitedOrderLength",
      "outputs": [
        {
          "internalType": "uint256",
          "name": "length",
          "type": "uint256"
        }
      ],
      "stateMutability": "view",
      "type": "function"
    },
    {
      "inputs": [],
      "name": "getOrderID",
      "outputs": [
        {
          "internalType": "uint256",
          "name": "length",
          "type": "uint256"
        }
      ],
      "stateMutability": "view",
      "type": "function"
    },
    {
      "inputs": [
        {
          "internalType": "uint256",
          "name": "_id",
          "type": "uint256"
        }
      ],
      "name": "getTriggerCondition",
      "outputs": [
        {
          "components": [
            {
              "internalType": "uint256",
              "name": "mean",
              "type": "uint256"
            },
            {
              "internalType": "uint256",
              "name": "openLimitPrice",
              "type": "uint256"
            },
            {
              "internalType": "uint256",
              "name": "gainTriggerPrice",
              "type": "uint256"
            },
            {
              "internalType": "uint256",
              "name": "gainLimitPrice",
              "type": "uint256"
            },
            {
              "internalType": "uint256",
              "name": "lossTriggerPrice",
              "type": "uint256"
            },
            {
              "internalType": "uint256",
              "name": "lossLimitPrice",
              "type": "uint256"
            }
          ],
          "internalType": "struct IPerpetual.TriggerCondition",
          "name": "",
          "type": "tuple"
        }
      ],
      "stateMutability": "view",
      "type": "function"
    },
    {
      "inputs": [
        {
          "internalType": "uint256[]",
          "name": "_ids",
          "type": "uint256[]"
        }
      ],
      "name": "getTriggerConditions",
      "outputs": [
        {
          "components": [
            {
              "internalType": "uint256",
              "name": "mean",
              "type": "uint256"
            },
            {
              "internalType": "uint256",
              "name": "openLimitPrice",
              "type": "uint256"
            },
            {
              "internalType": "uint256",
              "name": "gainTriggerPrice",
              "type": "uint256"
            },
            {
              "internalType": "uint256",
              "name": "gainLimitPrice",
              "type": "uint256"
            },
            {
              "internalType": "uint256",
              "name": "lossTriggerPrice",
              "type": "uint256"
            },
            {
              "internalType": "uint256",
              "name": "lossLimitPrice",
              "type": "uint256"
            }
          ],
          "internalType": "struct IPerpetual.TriggerCondition[]",
          "name": "info",
          "type": "tuple[]"
        }
      ],
      "stateMutability": "view",
      "type": "function"
    },
    {
      "inputs": [
        {
          "internalType": "address",
          "name": "user",
          "type": "address"
        }
      ],
      "name": "getUserDealsID",
      "outputs": [
        {
          "internalType": "uint256[]",
          "name": "",
          "type": "uint256[]"
        }
      ],
      "stateMutability": "view",
      "type": "function"
    },
    {
      "inputs": [
        {
          "internalType": "address",
          "name": "user",
          "type": "address"
        }
      ],
      "name": "getUserLimitOrdersID",
      "outputs": [
        {
          "internalType": "uint256[]",
          "name": "",
          "type": "uint256[]"
        }
      ],
      "stateMutability": "view",
      "type": "function"
    },
    {
      "inputs": [
        {
          "internalType": "address",
          "name": "initialOwner",
          "type": "address"
        },
        {
          "internalType": "address",
          "name": "_priPool",
          "type": "address"
        },
        {
          "internalType": "address",
          "name": "_perpetual",
          "type": "address"
        },
        {
          "internalType": "address",
          "name": "_settle",
          "type": "address"
        }
      ],
      "name": "initialize",
      "outputs": [],
      "stateMutability": "nonpayable",
      "type": "function"
    },
    {
      "inputs": [
        {
          "internalType": "uint256",
          "name": "_dealID",
          "type": "uint256"
        },
        {
          "internalType": "string[]",
          "name": "_symbols",
          "type": "string[]"
        },
        {
          "internalType": "uint256[]",
          "name": "_prices",
          "type": "uint256[]"
        }
      ],
      "name": "liquidateMakerDeal",
      "outputs": [
        {
          "internalType": "bool",
          "name": "isLiquidated",
          "type": "bool"
        },
        {
          "internalType": "bool",
          "name": "isAgreement",
          "type": "bool"
        },
        {
          "internalType": "uint256",
          "name": "userProfit",
          "type": "uint256"
        },
        {
          "internalType": "address",
          "name": "taker",
          "type": "address"
        },
        {
          "internalType": "uint256",
          "name": "margin",
          "type": "uint256"
        }
      ],
      "stateMutability": "nonpayable",
      "type": "function"
    },
    {
      "inputs": [
        {
          "internalType": "address",
          "name": "_taker",
          "type": "address"
        },
        {
          "internalType": "string",
          "name": "_name",
          "type": "string"
        },
        {
          "internalType": "enum ICommon.Direct",
          "name": "_type",
          "type": "uint8"
        },
        {
          "internalType": "enum ICommon.Offset",
          "name": "_offset",
          "type": "uint8"
        },
        {
          "internalType": "uint256",
          "name": "_amount",
          "type": "uint256"
        },
        {
          "internalType": "uint256",
          "name": "_price",
          "type": "uint256"
        },
        {
          "internalType": "uint256",
          "name": "_tradingFee",
          "type": "uint256"
        },
        {
          "internalType": "uint256",
          "name": "_rewardGas",
          "type": "uint256"
        },
        {
          "internalType": "uint256",
          "name": "_marginAmount",
          "type": "uint256"
        },
        {
          "internalType": "uint256",
          "name": "_goodTill",
          "type": "uint256"
        },
        {
          "internalType": "bool",
          "name": "condition",
          "type": "bool"
        },
        {
          "internalType": "uint256",
          "name": "_dueGas",
          "type": "uint256"
        }
      ],
      "name": "makeLimitedOrder",
      "outputs": [],
      "stateMutability": "payable",
      "type": "function"
    },
    {
      "inputs": [
        {
          "internalType": "address",
          "name": "_taker",
          "type": "address"
        },
        {
          "internalType": "string",
          "name": "_name",
          "type": "string"
        },
        {
          "internalType": "enum ICommon.Direct",
          "name": "_type",
          "type": "uint8"
        },
        {
          "internalType": "enum IPerpetual.OrderType",
          "name": "_orderType",
          "type": "uint8"
        },
        {
          "internalType": "uint256",
          "name": "_amount",
          "type": "uint256"
        },
        {
          "internalType": "uint256",
          "name": "_total",
          "type": "uint256"
        },
        {
          "internalType": "uint256",
          "name": "_tradingFee",
          "type": "uint256"
        },
        {
          "internalType": "uint256",
          "name": "_marginAmount",
          "type": "uint256"
        },
        {
          "internalType": "uint256",
          "name": "_currentPrice",
          "type": "uint256"
        },
        {
          "internalType": "uint256",
          "name": "_limitID",
          "type": "uint256"
        }
      ],
      "name": "openOrder",
      "outputs": [],
      "stateMutability": "nonpayable",
      "type": "function"
    },
    {
      "inputs": [],
      "name": "owner",
      "outputs": [
        {
          "internalType": "address",
          "name": "",
          "type": "address"
        }
      ],
      "stateMutability": "view",
      "type": "function"
    },
    {
      "inputs": [
        {
          "internalType": "address",
          "name": "",
          "type": "address"
        },
        {
          "internalType": "string",
          "name": "",
          "type": "string"
        },
        {
          "internalType": "uint256",
          "name": "",
          "type": "uint256"
        }
      ],
      "name": "positions",
      "outputs": [
        {
          "internalType": "uint256",
          "name": "value",
          "type": "uint256"
        },
        {
          "internalType": "uint256",
          "name": "size",
          "type": "uint256"
        },
        {
          "internalType": "uint256",
          "name": "margin",
          "type": "uint256"
        },
        {
          "internalType": "uint256",
          "name": "freeze",
          "type": "uint256"
        }
      ],
      "stateMutability": "view",
      "type": "function"
    },
    {
      "inputs": [],
      "name": "renounceOwnership",
      "outputs": [],
      "stateMutability": "nonpayable",
      "type": "function"
    },
    {
      "inputs": [
        {
          "internalType": "address",
          "name": "_agent",
          "type": "address"
        },
        {
          "internalType": "address",
          "name": "_station",
          "type": "address"
        }
      ],
      "name": "setKeepers",
      "outputs": [],
      "stateMutability": "nonpayable",
      "type": "function"
    },
    {
      "inputs": [
        {
          "internalType": "address",
          "name": "newOwner",
          "type": "address"
        }
      ],
      "name": "transferOwnership",
      "outputs": [],
      "stateMutability": "nonpayable",
      "type": "function"
    },
    {
      "inputs": [
        {
          "internalType": "uint256",
          "name": "limitID",
          "type": "uint256"
        },
        {
          "internalType": "enum IPerpetual.OrderState",
          "name": "state",
          "type": "uint8"
        },
        {
          "internalType": "uint256",
          "name": "rewardGas",
          "type": "uint256"
        }
      ],
      "name": "updateLimitOrder",
      "outputs": [],
      "stateMutability": "nonpayable",
      "type": "function"
    },
    {
      "inputs": [
        {
          "internalType": "uint256",
          "name": "limitOrderID",
          "type": "uint256"
        },
        {
          "internalType": "uint256",
          "name": "_mean",
          "type": "uint256"
        },
        {
          "internalType": "uint256",
          "name": "_openLimitPrice",
          "type": "uint256"
        },
        {
          "internalType": "uint256",
          "name": "_gainTriggerPrice",
          "type": "uint256"
        },
        {
          "internalType": "uint256",
          "name": "_gainLimitPrice",
          "type": "uint256"
        },
        {
          "internalType": "uint256",
          "name": "_lossTriggerPrice",
          "type": "uint256"
        },
        {
          "internalType": "uint256",
          "name": "_lossLimitPrice",
          "type": "uint256"
        }
      ],
      "name": "updateTriggerCondition",
      "outputs": [],
      "stateMutability": "nonpayable",
      "type": "function"
    }
  ],
  "bytecode": "0x60808060405234601557614a01908161001b8239f35b600080fdfe6080604052600436101561001a575b3461001557005b600080fd5b60003560e01c80630187703f146101fa5780630374c555146101f55780630c3fc6b9146101f05780630c8c3516146101eb5780630f12fb59146101e65780631b31c071146101e15780632b000206146101dc57806349138690146101d757806352e282a7146101d2578063530e011e146101cd578063620de4da146101c85780636f4907cb146101c3578063715018a6146101be5780637207584d146101b957806375ffb53d146101b457806382fd5bac146101af5780638da5cb5b146101aa5780639324b549146101a5578063ac6b96a2146101a0578063ac89c7981461019b578063b811988814610196578063b99ac92714610191578063be63309e1461018c578063bfffc8bb14610187578063c2b3356414610182578063c3710f251461017d578063dcee347514610178578063e771ad7214610173578063f2fde38b1461016e5763f8c8765e0361000e57611b8b565b611b62565b611a5b565b61193a565b61191c565b6118d0565b611854565b6117cc565b6117a9565b61178b565b611657565b6115e8565b611565565b61151f565b6114e0565b6113b3565b611283565b6111ea565b6111b0565b611162565b6110e8565b611069565b610f39565b610e85565b6109ba565b610908565b6107f9565b610674565b610481565b610244565b6102429092919260c081019360a0809180518452602081015160208501526040810151604085015260608101516060850152608081015160808501520151910152565b565b3461001557602060031936011261001557600435610260611de1565b50600052600d6020526102bf6040600020600560405191610280836102d9565b8054835260018101546020840152600281015460408401526003810154606084015260048101546080840152015460a0820152604051918291826101ff565b0390f35b634e487b7160e01b600052604160045260246000fd5b60c0810190811067ffffffffffffffff8211176102f557604052565b6102c3565b60a0810190811067ffffffffffffffff8211176102f557604052565b90601f601f19910116810190811067ffffffffffffffff8211176102f557604052565b6040519061024261018083610316565b6040519061024261016083610316565b6040519061024260c083610316565b67ffffffffffffffff81116102f55760051b60200190565b9080601f8301121561001557813561039781610368565b926103a56040519485610316565b81845260208085019260051b82010192831161001557602001905b8282106103cd5750505090565b81358152602091820191016103c0565b6020600319820112610015576004359067ffffffffffffffff82116100155761040891600401610380565b90565b602060408183019282815284518094520192019060005b81811061042f5750505090565b909192602060c082610476600194885160a0809180518452602081015160208501526040810151604085015260608101516060850152608081015160808501520151910152565b019401929101610422565b346100155761048f366103dd565b805161049a81610368565b916104a86040519384610316565b818352601f196104b783610368565b0160005b81811061052157505060005b8281106104dc57604051806102bf868261040b565b806105056105006104ef60019486611e65565b51600052600d602052604060002090565b611e12565b61050f8287611e65565b5261051a8186611e65565b50016104c7565b60209061052c611de1565b828288010152016104bb565b634e487b7160e01b600052602160045260246000fd5b6003111561055857565b610538565b906105678261054e565b52565b6008111561055857565b906105678261056a565b60005b8381106105915750506000910152565b8181015183820152602001610581565b90601f19601f6020936105bf8151809281875287808801910161057e565b0116010190565b80516001600160a01b03168252906105e66020830151602083019061055d565b6105f860408301516040830190610574565b61060a6060830151606083019061055d565b61016080610629608085015161018060808601526101808501906105a1565b9360a081015160a085015260c081015160c085015260e081015160e0850152610100810151610100850152610120810151610120850152610140810151610140850152015191015290565b34610015576020600319360112610015576102bf6106a561069f600435610699611e79565b50611ee5565b50611ff2565b6040519182916020835260208301906105c6565b600435906001600160a01b038216820361001557565b602435906001600160a01b038216820361001557565b604435906001600160a01b038216820361001557565b606435906001600160a01b038216820361001557565b67ffffffffffffffff81116102f557601f01601f191660200190565b81601f820112156100155780359061074482610711565b926107526040519485610316565b8284526020838301011161001557816000926020809301838601378301015290565b6001600160a01b03166000526008602052604060002090565b906107a06020928281519485920161057e565b0190565b6020906107be92826040519483868095519384920161057e565b82019081520301902090565b634e487b7160e01b600052603260045260246000fd5b9060028110156107f4576005020190600090565b6107ca565b34610015576060600319360112610015576108126106b9565b60243567ffffffffffffffff811161001557602061083761086392369060040161072d565b6001600160a01b036044359416600052600c82526040600020826040519483868095519384920161057e565b8201908152030190209060028110156100155761087f916107e0565b5080546102bf6001830154926003600282015491015490604051948594859094939260609260808301968352602083015260408201520152565b6003111561001557565b906020808351928381520192019060005b8181106108e15750505090565b82518452602093840193909201916001016108d4565b9060206104089281815201906108c3565b34610015576060600319360112610015576109216106b9565b60243567ffffffffffffffff81116100155760046109a76102bf936109a161098960206109546109ae973690880161072d565b6001600160a01b0360443595610969876108b9565b16600052600c82526040600020826040519483868095519384920161057e565b8201908152030190209161099c8161054e565b6120d1565b906107e0565b50016120e9565b604051918291826108f7565b346100155760e0600319360112610015576109d36106b9565b602435604435916064356109e6816108b9565b60843560a4359060c4359133600052600a602052610a0b60ff60406000205416612134565b600096610a178761217f565b5091610a36876001600160a01b0316600052600c602052604060002090565b98610a8b610a83610a64610a4e600288019d8e61219e565b87546109a19060a01c60ff165b61099c8161054e565b5097610a7560038a01918254612236565b908190556001890154612236565b841115612243565b82158015610e78575b15610d075750825460a01c60ff166004840191610abd8684549360038801549485928392613efc565b919092610ae1610ad56003546001600160a01b031690565b6001600160a01b031690565b91823b15610015576040517ff5a4bc660000000000000000000000000000000000000000000000000000000081526001600160a01b038d166004820152602481018e9052604481019290925260036064830152608482019890985260a481019790975260c4870183905260e4870182905286610104815a6000948591f1928315610d0257600496610b7a94610ce7575b5054918a6140a2565b5050939094610bd4600585015494610bae8b610ba98c6001600160a01b03166000526009602052604060002090565b614129565b50750300000000000000000000000000000000000000000060ff60a81b19825416179055565b0194610bdf866120e9565b9660005b8851811015610ccb5789610bf7828b611e65565b5114610c0557600101610be3565b87989950610c2f610c1f82610c349495969798999a61232b565b60001982549160031b1b19169055565b612343565b8851811015610c8a5780610c84610c5a610c506001948c61232b565b90549060031b1c90565b610c6c610c6684612227565b8c61232b565b90919060001983549160031b92831b921b1916179055565b01610c34565b50610cae949750610ca8849699610ca36102bf9961235e565b611f50565b90614251565b604051938493846040919493926060820195825260208201520152565b509091929550859397506102bf9650610ca8610cae9599611f50565b80610cf66000610cfc93610316565b80610f2e565b38610b71565b61228e565b94509582610d1f819a959793945460ff9060a01c1690565b96610d3985600484019960038b5495019484865492613efc565b9a9099610d51610ad56003546001600160a01b031690565b90813b15610e74576040517ff5a4bc660000000000000000000000000000000000000000000000000000000081526001600160a01b03871660048083019190915260248201859052604482018a90526064820152608481019490945260a484015260c483018b905260e483018c90528890839061010490829084905af18015610d0257610e589b6102bf9b610ca89b610cae9b610df8968b95610e60575b50505493613fe2565b505099909a6005810192835493610e24610e1d610e158a886122be565b8454906122d1565b8096612236565b9055610e31878254612236565b9055750200000000000000000000000000000000000000000060ff60a81b19825416179055565b958694611f50565b610cf6610e6d9282610316565b3880610def565b8980fd5b5060038401548314610a94565b3461001557604060031936011261001557610f2c610ea16106b9565b610f106001600160a01b0380610eb56106cf565b93610ebe614375565b169283600052600a6020526040600020600160ff19825416179055169182600052600a6020526040600020600160ff198254161790556001600160a01b03166001600160a01b03196003541617600355565b6001600160a01b03166001600160a01b03196004541617600455565b005b600091031261001557565b34610015576000600319360112610015576020600754604051908152f35b6006111561055857565b9060068210156105585752565b80516001600160a01b0316825290610f8e6020830151602083019061055d565b610fa060408301516040830190610f61565b610fb26060830151606083019061055d565b6080820151608082015261014080610fdb60a085015161016060a08601526101608501906105a1565b9360c081015160c085015260e081015160e0850152610100810151610100850152610120810151610120850152015191015290565b9080602083519182815201916020808360051b8301019401926000915b83831061103c57505050505090565b909192939460208061105a83601f1986600196030187528951610f6e565b9701930193019193929061102d565b3461001557611077366103dd565b8051611082816123f6565b9160005b8281106110a357604051602080825281906102bf90820187611010565b806110c26110bc6110b660019486611e65565b5161217f565b50612451565b6110cc8287611e65565b526110d78186611e65565b5001611086565b6008111561001557565b3461001557610140600319360112610015576111026106b9565b6024359067ffffffffffffffff821161001557611126610f2c92369060040161072d565b604435611132816108b9565b60643561113e816110de565b60843560a4359060c4359260e43594610104359661115c6101243590565b986124eb565b34610015576020600319360112610015576001600160a01b036111836106b9565b1660005260096020526102bf61119c60406000206120e9565b6040519182916020835260208301906108c3565b34610015576020600319360112610015576001600160a01b036111d16106b9565b1660005260086020526102bf61119c60406000206120e9565b3461001557600060031936011261001557611203614375565b60006001600160a01b037f9016d09d72d40fdae2fd8ceac6b6234c7706214fd39c1cd1e609a0528c199300546001600160a01b031981167f9016d09d72d40fdae2fd8ceac6b6234c7706214fd39c1cd1e609a0528c19930055167f8be0079c531659141344cd1fd0a4f28419497f9722a3daafe3b4186f6b6457e08280a3005b3461001557602060031936011261001557600435600052600b60205260a060406000207fffffffff000000000000000000000000000000000000000000000000000000006001600160a01b03825416916001600160a01b036001820154169060028101546004600383015492015460e01b92604051958652602086015260408501526060840152166080820152f35b600319606091011261001557600435906024359060443590565b9080602083519182815201916020808360051b8301019401926000915b83831061135857505050505090565b909192939460208061137683601f19866001960301875289516105c6565b97019301930191939290611349565b9392916113ae906113a060409360608852606088019061132c565b9086820360208801526108c3565b930152565b34610015576113c136611312565b819280926000916007548092116114d6575b81106114ce575b509291926113e782612c14565b916113f181612c63565b945b848110806114c5575b1561149f57600161141a61140f83611ee5565b505460a81c60ff1690565b6114238161056a565b148015611481575b61143e575b61143990612c94565b6113f3565b916114798184611451611439948a611e65565b5261145e61069f86611ee5565b6114688288611e65565b526114738187611e65565b50612c94565b929050611430565b50600261149061140f83611ee5565b6114998161056a565b1461142b565b8593926102bf9281036114ba575b5060405193849384611385565b8084528452846114ad565b508183106113fc565b9250386113da565b90945084906113d3565b34610015576020600319360112610015576102bf61150b6110bc600435611505612391565b5061217f565b604051918291602083526020830190610f6e565b346100155760006003193601126100155760206001600160a01b037f9016d09d72d40fdae2fd8ceac6b6234c7706214fd39c1cd1e609a0528c1993005416604051908152f35b346100155760a06003193601126100155761157e6106b9565b60243567ffffffffffffffff8111610015576102bf916115a56115d892369060040161072d565b6044356115b1816108b9565b606435916084359333600052600a6020526115d360ff60406000205416612134565b612df1565b6040519081529081906020820190565b34610015576115f6366103dd565b805161160181612c14565b9160005b82811061162257604051602080825281906102bf9082018761132c565b8061163b61069f61163560019486611e65565b51611ee5565b6116458287611e65565b526116508186611e65565b5001611605565b3461001557606060031936011261001557610f2c6004356001600160a01b03602435611682816110de565b60443533600052600a60205261169f60ff60406000205416612134565b6116e16116ab85611ee5565b50926116b68161056a565b83549075ff00000000000000000000000000000000000000000060ff60a81b199160a81b1691161790565b825580600683015580151580611781575b611761575b5054166000526008602052611710816040600020614129565b506000908152600b6020526040902080546001600160a01b031916321781556004906001810180546001600160a01b031916331790554360038201550160003560e01c63ffffffff19825416179055565b600080808061177b94325af161177561304b565b5061307b565b386116f7565b50804710156116f2565b34610015576000600319360112610015576020600654604051908152f35b346100155760006003193601126100155760206117c46130c6565b604051908152f35b346100155760e06003193601126100155760043560056024356044356064356084359060a4359260c4359633600052600a60205261181160ff60406000205416612134565b600052600d602052604060002094855560018501556002840155600383015560048201550155600080f35b8015150361001557565b61014435906102428261183c565b610180600319360112610015576118696106b9565b6024359067ffffffffffffffff82116100155761188d610f2c92369060040161072d565b604435611899816108b9565b6064356118a5816108b9565b60843560a43560c4359060e43592610104359461012435966118c5611846565b98610164359a6130f4565b346100155760606003193601126100155760206117c46004356118f16106cf565b604435916118fe8361183c565b33600052600a855261191760ff60406000205416612134565b6137fd565b34610015576000600319360112610015576020600554604051908152f35b346100155760606003193601126100155760243560043567ffffffffffffffff8211610015573660238301121561001557816004013561197981610368565b926119876040519485610316565b8184526024602085019260051b820101903682116100155760248101925b828410611a1057856044358667ffffffffffffffff8211610015576102bf926119d56119db933690600401610380565b91613b32565b6040805195151586529315156020860152928401919091526001600160a01b03166060830152608082015290819060a0820190565b833567ffffffffffffffff811161001557602091611a3583926024369187010161072d565b8152019301926119a5565b9392916113ae906113a0604093606088526060880190611010565b3461001557611a6936611312565b81928092600091600654809211611b58575b8110611b50575b50929192611a8f826123f6565b91611a9981612c63565b945b84811080611b47575b15611b21576001611ab761140f8361217f565b611ac081610f57565b148015611b03575b611adb575b611ad690612c94565b611a9b565b91611afb8184611aee611ad6948a611e65565b5261145e6110bc8661217f565b929050611acd565b506002611b1261140f8361217f565b611b1b81610f57565b14611ac8565b8593926102bf928103611b3c575b5060405193849384611a40565b808452845284611b2f565b50818310611aa4565b925038611a82565b9094508490611a7b565b3461001557602060031936011261001557610f2c611b7e6106b9565b611b86614375565b613d70565b3461001557608060031936011261001557611ba46106b9565b611bac6106cf565b90611bb56106e5565b611bbd6106fb565b907ff0c57e16840df040f15088dc2f81fe391c3923bec73e23a9662efc9c229c6a00549367ffffffffffffffff611c10611c02611bfe8860ff9060401c1690565b1590565b9667ffffffffffffffff1690565b1680159081611dd9575b6001149081611dcf575b159081611dc6575b50611d9c57611cad9385611ca460017fffffffffffffffffffffffffffffffffffffffffffffffff00000000000000007ff0c57e16840df040f15088dc2f81fe391c3923bec73e23a9662efc9c229c6a005416177ff0c57e16840df040f15088dc2f81fe391c3923bec73e23a9662efc9c229c6a0055565b611d3757613e2f565b611cb357005b611d0868ff0000000000000000197ff0c57e16840df040f15088dc2f81fe391c3923bec73e23a9662efc9c229c6a0054167ff0c57e16840df040f15088dc2f81fe391c3923bec73e23a9662efc9c229c6a0055565b604051600181527fc7f505b2f371ae2175ee4913f4499e1f2633a7b5936321eed1cdaeb6115181d290602090a1005b611d976801000000000000000068ff0000000000000000197ff0c57e16840df040f15088dc2f81fe391c3923bec73e23a9662efc9c229c6a005416177ff0c57e16840df040f15088dc2f81fe391c3923bec73e23a9662efc9c229c6a0055565b613e2f565b7ff92ee8a90000000000000000000000000000000000000000000000000000000060005260046000fd5b90501538611c2c565b303b159150611c24565b869150611c1a565b60405190611dee826102d9565b600060a0838281528260208201528260408201528260608201528260808201520152565b90604051611e1f816102d9565b60a06005829480548452600181015460208501526002810154604085015260038101546060850152600481015460808501520154910152565b8051156107f45760200190565b80518210156107f45760209160051b010190565b60405190610180820182811067ffffffffffffffff8211176102f557604052600061016083828152826020820152826040820152826060820152606060808201528260a08201528260c08201528260e08201528261010082015282610120820152826101408201520152565b6007548110156107f45760076000526009602060002091020190600090565b6105678261054e565b6105678261056a565b90600182811c92168015611f46575b6020831014611f3057565b634e487b7160e01b600052602260045260246000fd5b91607f1691611f25565b9060405191826000825492611f6484611f16565b8084529360018116908115611fd05750600114611f89575b5061024292500383610316565b90506000929192526020600020906000915b818310611fb45750509060206102429282010138611f7c565b6020919350806001915483858901015201910190918492611f9b565b6020935061024295925060ff1991501682840152151560051b82010138611f7c565b906008611ffd610339565b926120616120588254612026612019826001600160a01b031690565b6001600160a01b03168852565b61203b60a082901c60ff165b60208901611f04565b61204f60a882901c60ff1660408901611f0d565b60b01c60ff1690565b60608601611f04565b61206d60018201611f50565b6080850152600281015460a0850152600381015460c0850152600481015460e08501526005810154610100850152600681015461012085015260078101546101408501520154610160830152565b634e487b7160e01b600052601160045260246000fd5b60ff6000199116019060ff82116120e457565b6120bb565b906040519182815491828252602082019060005260206000209260005b81811061211b57505061024292500383610316565b8454835260019485019487945060209093019201612106565b1561213b57565b606460405162461bcd60e51b815260206004820152601f60248201527f63616c6c6572206973206e6f74206f7264657220626f6f6b206b6565706572006044820152fd5b6006548110156107f457600660005260206000209060031b0190600090565b9060405180926000908054906121b382611f16565b916001811690811561220f57506001146121d6575b505060209281520301902090565b90915060005260206000206000905b8282106121f857505081016020386121c8565b8054828701528593506020909101906001016121e5565b60ff19168552505080151502820190506020386121c8565b9060001982019182116120e457565b919082039182116120e457565b1561224a57565b606460405162461bcd60e51b815260206004820152601d60248201527f617661696c61626c6520616d6f756e7420696e73756666696369656e740000006044820152fd5b6040513d6000823e3d90fd5b90670de0b6b3a7640000820291808304670de0b6b3a764000014901517156120e457565b818102929181159184041417156120e457565b81156122db570490565b634e487b7160e01b600052601260045260246000fd5b90600681101561055857815460ff60a81b191660a89190911b75ff00000000000000000000000000000000000000000016179055565b9055565b80548210156107f45760005260206000200190600090565b90600182018092116120e457565b919082018092116120e457565b8054801561237b576000190190612378610c1f838361232b565b55565b634e487b7160e01b600052603160045260246000fd5b60405190610160820182811067ffffffffffffffff8211176102f557604052600061014083828152826020820152826040820152826060820152826080820152606060a08201528260c08201528260e082015282610100820152826101208201520152565b9061240082610368565b61240d6040519182610316565b828152601f1961241d8294610368565b019060005b82811061242e57505050565b602090612439612391565b82828501015201612422565b60068210156105585752565b90600761245c610349565b9261249c6120588254612478612019826001600160a01b031690565b61248860a082901c60ff16612032565b61204f60a882901c60ff1660408901612445565b600181015460808501526124b260028201611f50565b60a0850152600381015460c0850152600481015460e0850152600581015461010085015260068101546101208501520154610140830152565b948695999897929193949933600052600a60205260406000205460ff1661251190612134565b6001546001600160a01b03166001600160a01b03168b60065487868d6040519c8d9586957f8e3a0e920000000000000000000000000000000000000000000000000000000087526004870195612566966127b4565b03815a604094600091f1918215610d025761258c8c938b99600091612765575b506127f1565b61259a9085848689866142f3565b6125a38361054e565b6125ac836120d1565b87600654906125bc92888561440b565b6125d9816001600160a01b03166000526009602052604060002090565b6006546125e591614617565b506001600160a01b0316938493600554906125fe610349565b6001600160a01b0387168152916126188660208501611f04565b600160408401526001606084015260808301528260a08301528360c08301528860e0830152610100820152886101208201524261014082015261265a90612aed565b6000546001600160a01b0316809a896005549b8c958a6040519889984297612682998b612b48565b037f3174923aee4fc7c29de893ec1a82807b9f70eea78b57219cce0e76a78350dd4791a260408051600381526020810186905242918101919091526001600160a01b03871691907ffe1040c72b0fa917ba66cc39f1adcb8ea8a3d05c3848f202db07ddb406f7c96090606090a36001906126fb8161056a565b60021495612757957fc136432a1484e156abdd300674f3ca1991800b1936e60da2b47c69dda822f75a946102429861275c575b61274f92939461273f600654612227565b946040519687968a429689612bbb565b0390a1612343565b600555565b6002935061272e565b612787915060403d60401161278e575b61277f8183610316565b810190612795565b5038612586565b503d612775565b919082604091031261001557602082516127ae8161183c565b92015190565b926127cf60a09592989796939860c0865260c08601906105a1565b9760208501526040840152606083015260808201526127ed8361054e565b0152565b156127f857565b606460405162461bcd60e51b815260206004820152601760248201527f6c6971756964697479206973206e6f7420656e6f7567680000000000000000006044820152fd5b634e487b7160e01b600052600060045260246000fd5b9061285c8161054e565b7fffffffffffffffffffffff00ffffffffffffffffffffffffffffffffffffffff74ff000000000000000000000000000000000000000083549260a01b169116179055565b906128ab8161054e565b7fffffffffffffffffff00ffffffffffffffffffffffffffffffffffffffffffff76ff0000000000000000000000000000000000000000000083549260b01b169116179055565b8181106128fd575050565b600081556001016128f2565b9190601f811161291857505050565b610242926000526020600020906020601f840160051c83019310612944575b601f0160051c01906128f2565b9091508190612937565b919091825167ffffffffffffffff81116102f557612976816129708454611f16565b84612909565b6020601f82116001146129b25781906123279394956000926129a7575b50506000198260011b9260031b1c19161790565b015190503880612993565b601f198216906129c784600052602060002090565b9160005b818110612a03575095836001959697106129ea575b505050811b019055565b015160001960f88460031b161c191690553880806129e0565b9192602060018192868b0151815501940192016129cb565b9190612ae85761014081612a57612a3b600794516001600160a01b031690565b85906001600160a01b03166001600160a01b0319825416179055565b612a6e6020820151612a688161054e565b85612852565b612a856040820151612a7f81610f57565b856122f1565b612a9c6060820151612a968161054e565b856128a1565b60808101516001850155612ab760a08201516002860161294e565b60c0810151600385015560e08101516004850155610100810151600585015561012081015160068501550151910155565b61283c565b60065490680100000000000000008210156102f557600182016006556006548210156107f457600660009081526102429260031b7ff652222313e28459528d920b65115c16c04f3efc82aaedc97be59f3f377c0d3f01612a1b565b969390926001600160a01b03612b726101409a97949d9c9b98956101608b526101608b01906105a1565b9c1660208901526040880152612b878161054e565b6060870152612b958161056a565b608086015260a0850152600060c085015260e08401526101008301526101208201520152565b949198979693959290986001600160a01b0361014087019a16865260208601526040850152600585101561055857610120946060850152608084015260a083015260c0820152600060e082015260006101008201520152565b90612c1e82610368565b612c2b6040519182610316565b828152601f19612c3b8294610368565b019060005b828110612c4c57505050565b602090612c57611e79565b82828501015201612c40565b90612c6d82610368565b612c7a6040519182610316565b828152601f19612c8a8294610368565b0190602036910137565b60001981146120e45760010190565b90604051612cb0816102fa565b6080612ce16004839580548552600181015460208601526002810154604086015260038101546060860152016120e9565b910152565b919082604091031261001557602082519201516104088161183c565b91612d2a906001600160a01b036080959897969316845260a0602085015260a08401906105a1565b95612d348161054e565b604083015260608201520152565b90612ae857600460809183518155602084015160018201556040840151600282015560608401516003820155019101519081519167ffffffffffffffff83116102f5576801000000000000000083116102f5576020908254848455808510612dd4575b500190600052602060002060005b838110612dc05750505050565b600190602084519401938184015501612db3565b612deb9084600052858460002091820191016128f2565b38612da5565b9092949394612e3a612e34612e22612e1c856001600160a01b0316600052600c602052604060002090565b876107a4565b612e2b8661054e565b6109a1866120d1565b50612ca3565b90602082019081511561300a57604090612e5f610ad56003546001600160a01b031690565b86600089612e9c86519d8e96879586947f9324b5490000000000000000000000000000000000000000000000000000000086528d60048701612d02565b03925af1968715610d0257600090600098612fd6575b5096612ec0575b5050505050565b60009081839894969795985252600060408201526000606082015260009560808201965b87518051821015612f2e5790612f28612f026110b683600195611e65565b50750400000000000000000000000000000000000000000060ff60a81b19825416179055565b01612ee4565b50506109a1612f68612f7895976060612f729596989a52612f628a6001600160a01b0316600052600c602052604060002090565b906107a4565b9161099c8161054e565b90612d42565b612f9d612f98846001600160a01b03166000526008602052604060002090565b6120e9565b9060005b8251811015612fc85780612fc186612fbb60019487611e65565b51613667565b5001612fa1565b509250503880808080612eb9565b9050612ffb91975060403d604011613003575b612ff38183610316565b810190612ce6565b969038612eb2565b503d612fe9565b505050505050565b90612327906130208161056a565b82549075ff00000000000000000000000000000000000000000060ff60a81b199160a81b1691161790565b3d15613076573d9061305c82610711565b9161306a6040519384610316565b82523d6000602084013e565b606090565b1561308257565b606460405162461bcd60e51b815260206004820152600f60248201527f7472616e73666572206661696c656400000000000000000000000000000000006044820152fd5b33600052600a6020526130e060ff60406000205416612134565b600554600181018082116120e45760055590565b9887859c848897878d8f97878e9f9e99829e9a9c9b9c33600052600a60205260406000205460ff1661312590612134565b88994360075461313f90600052600b602052604060002090565b600201556000546001600160a01b031695600754936001600160a01b03169d8e99604051996001600160a01b038b9a169c429761317c9a8c61349f565b037f052d8cb39abc1bd624ecd7027fd1b94ded9c7704f379055adcbab77044ec255b91a3159c6133469c6133579e613497575b15613390579061322e9392916131d56131c6610339565b6001600160a01b039095168552565b6131e28760208601611f04565b600160408501526131f68660608601611f04565b88608085015260a08401528660c0840152600060e08401526000610100840152610120830152426101408301526101608201526135c1565b6132378161054e565b6001810361335a575050505061332a7f68cbb1c862d9d961359025e53792aa8be48fcf01d4712cf5dfd194d2a184a769936132ee613273610359565b6001815285602082015284604082015260006060820152826080820152600060a08201526132b56132a5600754612227565b600052600d602052604060002090565b9060a060059180518455602081015160018501556040810151600285015560608101516003850155608081015160048501550151910155565b6132f9600754612227565b926040519485948590949360009360a09360c084019784526020840152604083015283606083015260808201520152565b0390a16001600160a01b03166000526008602052604060002090565b613351600754612227565b90614617565b50565b8061336a6002929897959861054e565b1461337b575b505050505050610774565b6133859587614760565b388080808080613370565b99600297985061340f959991929394966133ba6133ab610339565b6001600160a01b039097168752565b6133c78b60208801611f04565b600160408701526133db8860608801611f04565b8960808701528b60a087015260c086015260e0850152610100840152610120830152426101408301526101608201526135c1565b6134188161054e565b1461343a575b5050506001600160a01b03166000526008602052604060002090565b61348d916109a1612f6861346593612f62886001600160a01b0316600052600c602052604060002090565b50916003600184015493019261348861348085548093612236565b83111561361c565b612351565b905538808061341e565b3492506131af565b9794919b9a999693989592906134bf906101808a526101808a01906105a1565b9b60208901526134ce8161054e565b604088015261016097600160608901526134e78161054e565b608088015260a087015260c086015260e08501526101008401526101208301526101408201520152565b9190612ae85761016081613531612a3b600894516001600160a01b031690565b6135426020820151612a688161054e565b61355960408201516135538161056a565b85613012565b61356a6060820151612a968161054e565b61357b60808201516001860161294e565b60a0810151600285015560c0810151600385015560e081015160048501556101008101516005850155610120810151600685015561014081015160078501550151910155565b60075490680100000000000000008210156102f557600182016007556007548210156107f45760076000908152610242926009027fa66cc928b5edb82af9bd49922954155ab7b0942694bea4ce44661d9a8736c68801613511565b1561362357565b606460405162461bcd60e51b815260206004820152601960248201527f6c696d697420636c6f736520616d6f756e7420657863656564000000000000006044820152fd5b6104089160019133600052600a60205261191760ff60406000205416612134565b1561368f57565b606460405162461bcd60e51b815260206004820152601860248201527f57726f6e6720737461746520696e2063616e63656c696e6700000000000000006044820152fd5b156136da57565b606460405162461bcd60e51b815260206004820152600a60248201527f4e6f7420686f6c646572000000000000000000000000000000000000000000006044820152fd5b949592906137446001600160a01b03919a999895939a61016088526101608801906105a1565b9916602086015260408501526137598161054e565b6060840152610140936007608085015260a0840152600060c084015260e083015260006101008301526101208201520152565b1561379357565b608460405162461bcd60e51b815260206004820152602260248201527f63616e63656c20616d6f756e74206973206772656174207468616e206672656560448201527f7a650000000000000000000000000000000000000000000000000000000000006064820152fd5b61390f929161380e61069f83611ee5565b906040820190600182516138218161056a565b61382a8161056a565b148015613b15575b8015613b0e575b61384290613688565b6001600160a01b038061385c85516001600160a01b031690565b92169116148015613b07575b613871906136d3565b8315613a9e57600590525b61388f8161388984611ee5565b90613511565b61012081015180151580613a94575b613a7a575b5080516001600160a01b03169260808201928351947f3174923aee4fc7c29de893ec1a82807b9f70eea78b57219cce0e76a78350dd476001600160a01b036138f36000546001600160a01b031690565b9261392d6138ff6130c6565b998660208a019b8c519d8e61054e565b60a08b019d8e519060c08d015192604051988998169a42968961371e565b0390a261394881610ba961077486516001600160a01b031690565b5061399d816000908152600b6020526040902080546001600160a01b031916321781556004906001810180546001600160a01b031916331790554360038201550160003560e01c63ffffffff19825416179055565b8115613a5a575b50613a5157600260608201516139b98161054e565b6139c28161054e565b03613a3857916109a1613a09613a1493613a026139e9613a3197516001600160a01b031690565b6001600160a01b0316600052600c602052604060002090565b90516107a4565b9151610a5b8161054e565b5060038351910192613a2a84548093111561378c565b5190612236565b9055600090565b915050610408915061010060e082015191015190612351565b50505050600090565b60019150613a7290600052600d602052604060002090565b5414386139a4565b6000808080613a8e94325af161177561304b565b386138a3565b508047101561389e565b60018151613aab8161056a565b613ab48161056a565b141580613ae9575b15613aca576007905261387c565b610160820151421115613ae0576006905261387c565b6004905261387c565b5060028151613af78161056a565b613b008161056a565b1415613abc565b5083613868565b5084613839565b5060028251613b238161056a565b613b2c8161056a565b14613832565b9092919233600052600a602052613b5060ff60406000205416612134565b613b5c6110bc8361217f565b9260009460009260a08601935b8151811015613d3d57613b7c8183611e65565b51604051613ba081613b9260208201809561078d565b03601f198101835282610316565b5190208551604051613bba81613b9260208201809561078d565b51902014613bca57600101613b69565b905060009650613bd991611e65565b51915b613bf0610ad586516001600160a01b031690565b936101008601916060613c58845196613c14610ad56003546001600160a01b031690565b906040519b8c809481937f016f4dcb000000000000000000000000000000000000000000000000000000008352896004840160209093929193604081019481520152565b03925af1968715610d0257600093600099600099613d00575b5084613c83575b505050509493929190565b613ca682613ca0613cf796613c9b6040840160059052565b61217f565b90612a1b565b81516001600160a01b03169251602083015190613cc28261054e565b6001600160a01b03613cf0613ce260e060c08801519651970151866122be565b670de0b6b3a7640000900490565b951661435a565b38808080613c78565b9194509750613d2891985060603d606011613d36575b613d208183610316565b810190613d49565b909890979193909184613c71565b503d613d16565b50505060009491613bdc565b90816060910312610015578051613d5f8161183c565b91604060208301516127ae8161183c565b6001600160a01b03168015613e00576001600160a01b037f9016d09d72d40fdae2fd8ceac6b6234c7706214fd39c1cd1e609a0528c19930054826001600160a01b03198216177f9016d09d72d40fdae2fd8ceac6b6234c7706214fd39c1cd1e609a0528c19930055167f8be0079c531659141344cd1fd0a4f28419497f9722a3daafe3b4186f6b6457e0600080a3565b7f1e4fbdf700000000000000000000000000000000000000000000000000000000600052600060045260246000fd5b6001600160a01b03939284613ec893613e5e613ebb94613e4d614972565b613e55614972565b611b7e33613d70565b16806001600160a01b03196001541617600155600052600a602052613e8e6040600020600160ff19825416179055565b8481166001600160a01b031960025416176002556001600160a01b0316600052600a602052604060002090565b600160ff19825416179055565b613ee8613ebb306001600160a01b0316600052600a602052604060002090565b166001600160a01b03196000541617600055565b60409360a4929396956001600160a01b036003541691865198899687957fca6ec372000000000000000000000000000000000000000000000000000000008752613f458161054e565b600487015260248601526044850152606484015260848301525afa918215610d02576000908193613f7557509190565b9092506040813d604011613fa9575b81613f9160409383610316565b81010312613fa55760209080519350015190565b8280fd5b3d9150613f84565b91908260809103126100155781519160208101519160606040830151613fd68161183c565b9201516104088161183c565b600060809460e49394966001600160a01b03600154169160405198899788967ff26a3e1d000000000000000000000000000000000000000000000000000000008852600488015285602488015260448701526064860152608485015260a4840152600160c48401525af18015610d025760009260009360009360009361406a575b5093929190565b9250509250614091915060803d60801161409b575b6140898183610316565b810190613fb1565b9193909238614063565b503d61407f565b60e4906000608094956001600160a01b03600154169060405197889687957ff26a3e1d00000000000000000000000000000000000000000000000000000000875260048701528460248701526044860152606485015282608485015260a4840152600160c48401525af18015610d025760009260009360009360009361406a575093929190565b906001820190614150611bfe614149838590600052602052604060002090565b5460ff1690565b6141fe5782549060005b82811061416b575050505050600090565b81614179610c50838861232b565b146141865760010161415a565b9492909193945b61419685612227565b8110156141cd576001816141c56141bb610c506141b561419696612343565b8b61232b565b610c6c838b61232b565b01905061418d565b506141f993506141e06141ef939561235e565b90600052602052604060002090565b60ff198154169055565b600190565b505050600090565b1561420d57565b606460405162461bcd60e51b815260206004820152601160248201527f496e76616c696420646972656374696f6e0000000000000000000000000000006044820152fd5b92916109a1612f6861428093612f6260009761426c8661054e565b6001861480156142e0575b6139e990614206565b5090815492831560001461429d5760029350825560018201550155565b50906142a982846122be565b6142b960018301918254906122d1565b84039384116120e4576142d56002936123279584558254612236565b905501918254612236565b506142ea8661054e565b60028614614277565b612f6861430f9392612f626109a1939896979861426c8661054e565b509081541560001461432a5791600292825560018201550155565b9080549182018092116120e45761232792600292825561434f60018301918254612351565b905501918254612351565b612f686142809392612f626109a19398979861426c8661054e565b6001600160a01b037f9016d09d72d40fdae2fd8ceac6b6234c7706214fd39c1cd1e609a0528c199300541633036143a857565b7f118cdaa7000000000000000000000000000000000000000000000000000000006000523360045260246000fd5b90815491680100000000000000008310156102f55782610c6c9160016102429501815561232b565b80156120e4576000190190565b9161443661443b92612f62600495989697986001600160a01b0316600052600c602052604060002090565b6107e0565b500192835461444981612c63565b9060005b8181106145a55750156145985760005b8151811080614585575b1561447a5761447590612c94565b61445d565b9192935050835481148061456c575b61453c5780151580614553575b61453c578354811080614525575b614517576144c76144c1610c506144bb8754612227565b8761232b565b856143d6565b6144d18454612227565b8181116144e75750610c6c90610242939461232b565b8061450d614503610c506144fd61451295612227565b8961232b565b610c6c838961232b565b6143fe565b6144d1565b610c6c90610242939461232b565b50600019614536610c50838761232b565b146144a4565b610242929361454d610c6c92612227565b9061232b565b50600019614566610c506144bb84612227565b14614496565b5060001961457f610c506144bb84612227565b14614489565b506145908183611e65565b518511614467565b50909261024292506143d6565b806000196145b8610c506001948b61232b565b146145e45760046145cf613c9b610c50848c61232b565b5001546145dc8286611e65565b525b0161444d565b806145fa5760006145f485611e58565b526145de565b61460c61460682612227565b85611e65565b516145f48286611e65565b919060018301816000528060205260ff604060002054166146df57600084545b80821061469d575061464983866143d6565b6146538554612227565b8181116146725750906141e083610c6c613ebb95946141f9979861232b565b8061450d61468e610c5061468861469895612227565b8a61232b565b610c6c838a61232b565b614653565b908181018082116120e45760011c90846146b7838961232b565b90549060031b1c106000146146d85750600181018091116120e45790614637565b9150614637565b506000925050565b604051906146f4826102fa565b60606080836000815260006020820152600060408201526000838201520152565b1561471c57565b606460405162461bcd60e51b815260206004820152601560248201527f706f736974696f6e2073697a65206973207a65726f00000000000000000000006044820152fd5b612e346147b57f68cbb1c862d9d961359025e53792aa8be48fcf01d4712cf5dfd194d2a184a7699895979493612f626147c79461479b6146e7565b506001600160a01b0316600052600c602052604060002090565b6147be8461054e565b6109a1846120d1565b90602082016147d881511515614715565b8615928315938461496a575b614871575b505050509061486c9161482e6147fd610359565b60018152600060208201528660408201528560608201528260808201528360a08201526132b56132a5600754612227565b614839600754612227565b9360405195869586919260a093969594919660c08401978452600060208501526040840152606083015260808201520152565b0390a1565b9061487f614887925161229a565b9051906122d1565b918061492b575b156148ab57505050509061486c60009283925b90913880806147e9565b82151591826148d2575b50506148c6575b9061486c916148a1565b925090506000806148bc565b9091506148de8261054e565b600182149182614921575b82156148f9575b505038806148b5565b60029192506149078161054e565b149081614917575b5038806148f0565b905081103861490f565b81841192506148e9565b506149358161054e565b6001811480614961575b8061488e575061494e8161054e565b60028114801561488e575081861161488e565b5081861061493f565b5084156147e4565b60ff7ff0c57e16840df040f15088dc2f81fe391c3923bec73e23a9662efc9c229c6a005460401c16156149a157565b7fd7e6bcf80000000000000000000000000000000000000000000000000000000060005260046000fdfea2646970667358221220c5ba299cafe9e58054b179763cbf879fdb15973cdaed49778ee14b71b3813a7164736f6c634300081c0033",
  "linkReferences": {},
  "deployedLinkReferences": {}
}