{
  "_format": "hh-sol-artifact-1",
  "contractName": "Perpetual",
  "sourceName": "contracts/Perpetual.sol",
  "abi": [
    {
      "inputs": [],
      "name": "InvalidInitialization",
      "type": "error"
    },
    {
      "inputs": [],
      "name": "NotInitializing",
      "type": "error"
    },
    {
      "inputs": [
        {
          "internalType": "address",
          "name": "owner",
          "type": "address"
        }
      ],
      "name": "OwnableInvalidOwner",
      "type": "error"
    },
    {
      "inputs": [
        {
          "internalType": "address",
          "name": "account",
          "type": "address"
        }
      ],
      "name": "OwnableUnauthorizedAccount",
      "type": "error"
    },
    {
      "inputs": [],
      "name": "ReentrancyGuardReentrantCall",
      "type": "error"
    },
    {
      "anonymous": false,
      "inputs": [
        {
          "indexed": false,
          "internalType": "address",
          "name": "taker",
          "type": "address"
        },
        {
          "indexed": false,
          "internalType": "uint256",
          "name": "amount",
          "type": "uint256"
        },
        {
          "indexed": false,
          "internalType": "uint256",
          "name": "availableAmount",
          "type": "uint256"
        },
        {
          "indexed": false,
          "internalType": "uint256",
          "name": "marginAmount",
          "type": "uint256"
        },
        {
          "indexed": false,
          "internalType": "uint256",
          "name": "locked",
          "type": "uint256"
        },
        {
          "indexed": false,
          "internalType": "uint256",
          "name": "stage",
          "type": "uint256"
        },
        {
          "indexed": false,
          "internalType": "uint256",
          "name": "dif",
          "type": "uint256"
        }
      ],
      "name": "BalanceOfTaker",
      "type": "event"
    },
    {
      "anonymous": false,
      "inputs": [
        {
          "indexed": false,
          "internalType": "string",
          "name": "name",
          "type": "string"
        },
        {
          "indexed": true,
          "internalType": "address",
          "name": "taker",
          "type": "address"
        },
        {
          "indexed": true,
          "internalType": "address",
          "name": "token",
          "type": "address"
        },
        {
          "indexed": false,
          "internalType": "uint256",
          "name": "orderID",
          "type": "uint256"
        },
        {
          "indexed": false,
          "internalType": "enum ICommon.Direct",
          "name": "orderType",
          "type": "uint8"
        },
        {
          "indexed": false,
          "internalType": "enum IPerpetual.OrderState",
          "name": "state",
          "type": "uint8"
        },
        {
          "indexed": false,
          "internalType": "enum ICommon.Offset",
          "name": "offset",
          "type": "uint8"
        },
        {
          "indexed": false,
          "internalType": "uint256",
          "name": "amount",
          "type": "uint256"
        },
        {
          "indexed": false,
          "internalType": "uint256",
          "name": "targetPrice",
          "type": "uint256"
        },
        {
          "indexed": false,
          "internalType": "uint256",
          "name": "margin",
          "type": "uint256"
        },
        {
          "indexed": false,
          "internalType": "uint256",
          "name": "rewardGas",
          "type": "uint256"
        },
        {
          "indexed": false,
          "internalType": "uint256",
          "name": "tradingFee",
          "type": "uint256"
        },
        {
          "indexed": false,
          "internalType": "uint256",
          "name": "startTime",
          "type": "uint256"
        },
        {
          "indexed": false,
          "internalType": "uint256",
          "name": "goodTill",
          "type": "uint256"
        }
      ],
      "name": "CreateLimitedOrder",
      "type": "event"
    },
    {
      "anonymous": false,
      "inputs": [
        {
          "indexed": false,
          "internalType": "uint256",
          "name": "limitOrderID",
          "type": "uint256"
        },
        {
          "indexed": false,
          "internalType": "uint256",
          "name": "openLimitPrice",
          "type": "uint256"
        },
        {
          "indexed": false,
          "internalType": "uint256",
          "name": "gainTriggerPrice",
          "type": "uint256"
        },
        {
          "indexed": false,
          "internalType": "uint256",
          "name": "gainLimitPrice",
          "type": "uint256"
        },
        {
          "indexed": false,
          "internalType": "uint256",
          "name": "lossTriggerPrice",
          "type": "uint256"
        },
        {
          "indexed": false,
          "internalType": "uint256",
          "name": "lossLimitPrice",
          "type": "uint256"
        }
      ],
      "name": "CreateTriggerCondition",
      "type": "event"
    },
    {
      "anonymous": false,
      "inputs": [
        {
          "indexed": false,
          "internalType": "uint256",
          "name": "code",
          "type": "uint256"
        },
        {
          "indexed": false,
          "internalType": "uint256",
          "name": "orderID",
          "type": "uint256"
        },
        {
          "indexed": false,
          "internalType": "string",
          "name": "message",
          "type": "string"
        }
      ],
      "name": "ErrorInfo",
      "type": "event"
    },
    {
      "anonymous": false,
      "inputs": [
        {
          "indexed": false,
          "internalType": "uint256",
          "name": "code",
          "type": "uint256"
        },
        {
          "indexed": false,
          "internalType": "uint256",
          "name": "orderID",
          "type": "uint256"
        },
        {
          "indexed": false,
          "internalType": "bytes",
          "name": "message",
          "type": "bytes"
        }
      ],
      "name": "ExceptErrorInfo",
      "type": "event"
    },
    {
      "anonymous": false,
      "inputs": [
        {
          "indexed": false,
          "internalType": "uint64",
          "name": "version",
          "type": "uint64"
        }
      ],
      "name": "Initialized",
      "type": "event"
    },
    {
      "anonymous": false,
      "inputs": [
        {
          "indexed": true,
          "internalType": "address",
          "name": "taker",
          "type": "address"
        },
        {
          "indexed": false,
          "internalType": "string",
          "name": "name",
          "type": "string"
        },
        {
          "indexed": false,
          "internalType": "address",
          "name": "token",
          "type": "address"
        },
        {
          "indexed": false,
          "internalType": "uint256",
          "name": "orderID",
          "type": "uint256"
        },
        {
          "indexed": false,
          "internalType": "enum ICommon.Direct",
          "name": "direction",
          "type": "uint8"
        },
        {
          "indexed": false,
          "internalType": "enum IPerpetual.OrderType",
          "name": "orderType",
          "type": "uint8"
        },
        {
          "indexed": false,
          "internalType": "uint256",
          "name": "amount",
          "type": "uint256"
        },
        {
          "indexed": false,
          "internalType": "uint256",
          "name": "costPrice",
          "type": "uint256"
        },
        {
          "indexed": false,
          "internalType": "uint256",
          "name": "price",
          "type": "uint256"
        },
        {
          "indexed": false,
          "internalType": "uint256",
          "name": "tradingFee",
          "type": "uint256"
        },
        {
          "indexed": false,
          "internalType": "uint256",
          "name": "limitOrderId",
          "type": "uint256"
        },
        {
          "indexed": false,
          "internalType": "uint256",
          "name": "timestamp",
          "type": "uint256"
        }
      ],
      "name": "OrderHistory",
      "type": "event"
    },
    {
      "anonymous": false,
      "inputs": [
        {
          "indexed": true,
          "internalType": "address",
          "name": "previousOwner",
          "type": "address"
        },
        {
          "indexed": true,
          "internalType": "address",
          "name": "newOwner",
          "type": "address"
        }
      ],
      "name": "OwnershipTransferred",
      "type": "event"
    },
    {
      "anonymous": false,
      "inputs": [
        {
          "indexed": false,
          "internalType": "address",
          "name": "token",
          "type": "address"
        },
        {
          "indexed": false,
          "internalType": "uint256",
          "name": "orderID",
          "type": "uint256"
        },
        {
          "indexed": false,
          "internalType": "uint256",
          "name": "dealID",
          "type": "uint256"
        },
        {
          "indexed": false,
          "internalType": "enum IPerpetual.TradeType",
          "name": "tradeType",
          "type": "uint8"
        },
        {
          "indexed": false,
          "internalType": "uint256",
          "name": "amount",
          "type": "uint256"
        },
        {
          "indexed": false,
          "internalType": "uint256",
          "name": "price",
          "type": "uint256"
        },
        {
          "indexed": false,
          "internalType": "uint256",
          "name": "tradingFee",
          "type": "uint256"
        },
        {
          "indexed": false,
          "internalType": "uint256",
          "name": "profit",
          "type": "uint256"
        },
        {
          "indexed": false,
          "internalType": "uint256",
          "name": "loss",
          "type": "uint256"
        },
        {
          "indexed": false,
          "internalType": "uint256",
          "name": "timestamp",
          "type": "uint256"
        }
      ],
      "name": "TradeHistory",
      "type": "event"
    },
    {
      "anonymous": false,
      "inputs": [
        {
          "indexed": true,
          "internalType": "address",
          "name": "taker",
          "type": "address"
        },
        {
          "indexed": true,
          "internalType": "address",
          "name": "token",
          "type": "address"
        },
        {
          "indexed": false,
          "internalType": "enum ICommon.TransactionType",
          "name": "transactionType",
          "type": "uint8"
        },
        {
          "indexed": false,
          "internalType": "uint256",
          "name": "amount",
          "type": "uint256"
        },
        {
          "indexed": false,
          "internalType": "uint256",
          "name": "timestamp",
          "type": "uint256"
        }
      ],
      "name": "TransactionHistory",
      "type": "event"
    },
    {
      "anonymous": false,
      "inputs": [
        {
          "indexed": false,
          "internalType": "address",
          "name": "sender",
          "type": "address"
        },
        {
          "indexed": false,
          "internalType": "address",
          "name": "received",
          "type": "address"
        },
        {
          "indexed": false,
          "internalType": "enum ICommon.TransactionType",
          "name": "transactionType",
          "type": "uint8"
        },
        {
          "indexed": false,
          "internalType": "uint256",
          "name": "amount",
          "type": "uint256"
        },
        {
          "indexed": false,
          "internalType": "uint256",
          "name": "timestamp",
          "type": "uint256"
        }
      ],
      "name": "TransferFee",
      "type": "event"
    },
    {
      "anonymous": false,
      "inputs": [
        {
          "indexed": false,
          "internalType": "address",
          "name": "sender",
          "type": "address"
        },
        {
          "indexed": false,
          "internalType": "uint256",
          "name": "beforeLeverage",
          "type": "uint256"
        },
        {
          "indexed": false,
          "internalType": "uint256",
          "name": "afterLeverage",
          "type": "uint256"
        }
      ],
      "name": "setLeverage",
      "type": "event"
    },
    {
      "stateMutability": "nonpayable",
      "type": "fallback"
    },
    {
      "inputs": [],
      "name": "buybackAddr",
      "outputs": [
        {
          "internalType": "address",
          "name": "",
          "type": "address"
        }
      ],
      "stateMutability": "view",
      "type": "function"
    },
    {
      "inputs": [
        {
          "internalType": "uint256[]",
          "name": "_orderIDs",
          "type": "uint256[]"
        }
      ],
      "name": "cancelOrders",
      "outputs": [],
      "stateMutability": "nonpayable",
      "type": "function"
    },
    {
      "inputs": [
        {
          "internalType": "string",
          "name": "_name",
          "type": "string"
        },
        {
          "internalType": "uint256",
          "name": "_amount",
          "type": "uint256"
        },
        {
          "internalType": "uint256",
          "name": "_orderType",
          "type": "uint256"
        },
        {
          "internalType": "uint256",
          "name": "_price",
          "type": "uint256"
        },
        {
          "internalType": "enum ICommon.Direct",
          "name": "_type",
          "type": "uint8"
        },
        {
          "internalType": "uint256",
          "name": "_goodTill",
          "type": "uint256"
        },
        {
          "internalType": "uint256",
          "name": "_deadline",
          "type": "uint256"
        },
        {
          "internalType": "bytes",
          "name": "_priceUpdate",
          "type": "bytes"
        }
      ],
      "name": "closePosition",
      "outputs": [],
      "stateMutability": "payable",
      "type": "function"
    },
    {
      "inputs": [
        {
          "internalType": "uint256",
          "name": "_amount",
          "type": "uint256"
        }
      ],
      "name": "deposit",
      "outputs": [],
      "stateMutability": "nonpayable",
      "type": "function"
    },
    {
      "inputs": [
        {
          "internalType": "address",
          "name": "_takerAddress",
          "type": "address"
        },
        {
          "internalType": "uint256",
          "name": "_stage",
          "type": "uint256"
        }
      ],
      "name": "emitTakerBalance",
      "outputs": [],
      "stateMutability": "nonpayable",
      "type": "function"
    },
    {
      "inputs": [],
      "name": "fiatTokenAddr",
      "outputs": [
        {
          "internalType": "address",
          "name": "",
          "type": "address"
        }
      ],
      "stateMutability": "view",
      "type": "function"
    },
    {
      "inputs": [],
      "name": "getTradingPairs",
      "outputs": [
        {
          "internalType": "string[]",
          "name": "",
          "type": "string[]"
        }
      ],
      "stateMutability": "view",
      "type": "function"
    },
    {
      "inputs": [
        {
          "internalType": "string",
          "name": "_name",
          "type": "string"
        }
      ],
      "name": "getUnderlying",
      "outputs": [
        {
          "internalType": "contract Underlying",
          "name": "",
          "type": "address"
        }
      ],
      "stateMutability": "view",
      "type": "function"
    },
    {
      "inputs": [
        {
          "internalType": "address",
          "name": "_taker",
          "type": "address"
        }
      ],
      "name": "getUserAccount",
      "outputs": [
        {
          "components": [
            {
              "internalType": "uint256",
              "name": "depositAmount",
              "type": "uint256"
            },
            {
              "internalType": "uint256",
              "name": "availableAmount",
              "type": "uint256"
            },
            {
              "internalType": "uint256",
              "name": "marginAmount",
              "type": "uint256"
            },
            {
              "internalType": "uint256",
              "name": "orderLocked",
              "type": "uint256"
            },
            {
              "internalType": "uint256",
              "name": "lastTime",
              "type": "uint256"
            }
          ],
          "internalType": "struct IPerpetual.AccountInfo",
          "name": "user",
          "type": "tuple"
        }
      ],
      "stateMutability": "view",
      "type": "function"
    },
    {
      "inputs": [],
      "name": "getUserAddress",
      "outputs": [
        {
          "internalType": "address[]",
          "name": "",
          "type": "address[]"
        }
      ],
      "stateMutability": "view",
      "type": "function"
    },
    {
      "inputs": [
        {
          "internalType": "address",
          "name": "_user",
          "type": "address"
        },
        {
          "internalType": "string",
          "name": "_name",
          "type": "string"
        }
      ],
      "name": "getUserLeverage",
      "outputs": [
        {
          "internalType": "uint256",
          "name": "",
          "type": "uint256"
        }
      ],
      "stateMutability": "view",
      "type": "function"
    },
    {
      "inputs": [
        {
          "internalType": "address",
          "name": "initialOwner",
          "type": "address"
        },
        {
          "internalType": "address",
          "name": "_priPool",
          "type": "address"
        },
        {
          "internalType": "address",
          "name": "_riskFundAddr",
          "type": "address"
        },
        {
          "internalType": "address",
          "name": "_fiatTokenAddr",
          "type": "address"
        },
        {
          "internalType": "address",
          "name": "_tradeFeeAddr",
          "type": "address"
        }
      ],
      "name": "initialize",
      "outputs": [],
      "stateMutability": "nonpayable",
      "type": "function"
    },
    {
      "inputs": [
        {
          "internalType": "uint256[]",
          "name": "_dealIDs",
          "type": "uint256[]"
        },
        {
          "internalType": "string[]",
          "name": "_symbols",
          "type": "string[]"
        },
        {
          "internalType": "bytes[]",
          "name": "_priceUpdate",
          "type": "bytes[]"
        }
      ],
      "name": "liquidateMakerDeals",
      "outputs": [],
      "stateMutability": "payable",
      "type": "function"
    },
    {
      "inputs": [
        {
          "internalType": "address[]",
          "name": "_taker",
          "type": "address[]"
        },
        {
          "internalType": "string[]",
          "name": "_symbols",
          "type": "string[]"
        },
        {
          "internalType": "bytes[]",
          "name": "_priceUpdate",
          "type": "bytes[]"
        }
      ],
      "name": "liquidateTaker",
      "outputs": [],
      "stateMutability": "payable",
      "type": "function"
    },
    {
      "inputs": [],
      "name": "maintenanceMarginRate",
      "outputs": [
        {
          "internalType": "uint256",
          "name": "",
          "type": "uint256"
        }
      ],
      "stateMutability": "view",
      "type": "function"
    },
    {
      "inputs": [],
      "name": "owner",
      "outputs": [
        {
          "internalType": "address",
          "name": "",
          "type": "address"
        }
      ],
      "stateMutability": "view",
      "type": "function"
    },
    {
      "inputs": [],
      "name": "renounceOwnership",
      "outputs": [],
      "stateMutability": "nonpayable",
      "type": "function"
    },
    {
      "inputs": [],
      "name": "riskFundAddr",
      "outputs": [
        {
          "internalType": "address",
          "name": "",
          "type": "address"
        }
      ],
      "stateMutability": "view",
      "type": "function"
    },
    {
      "inputs": [
        {
          "internalType": "address",
          "name": "_buyBack",
          "type": "address"
        },
        {
          "internalType": "address",
          "name": "_orderBook",
          "type": "address"
        },
        {
          "internalType": "address",
          "name": "_tradeAgent",
          "type": "address"
        },
        {
          "internalType": "address",
          "name": "_tradeStation",
          "type": "address"
        },
        {
          "internalType": "address",
          "name": "_marketAgent",
          "type": "address"
        }
      ],
      "name": "setKeepers",
      "outputs": [],
      "stateMutability": "nonpayable",
      "type": "function"
    },
    {
      "inputs": [
        {
          "internalType": "address",
          "name": "_addr",
          "type": "address"
        }
      ],
      "name": "setTradeFeeAddr",
      "outputs": [],
      "stateMutability": "nonpayable",
      "type": "function"
    },
    {
      "inputs": [
        {
          "internalType": "string",
          "name": "_name",
          "type": "string"
        },
        {
          "internalType": "address",
          "name": "_underlying",
          "type": "address"
        }
      ],
      "name": "setUnderlying",
      "outputs": [],
      "stateMutability": "nonpayable",
      "type": "function"
    },
    {
      "inputs": [
        {
          "internalType": "string",
          "name": "_name",
          "type": "string"
        },
        {
          "internalType": "uint256",
          "name": "_leverage",
          "type": "uint256"
        }
      ],
      "name": "setUserLeverage",
      "outputs": [],
      "stateMutability": "nonpayable",
      "type": "function"
    },
    {
      "inputs": [
        {
          "internalType": "address",
          "name": "takerAddr",
          "type": "address"
        },
        {
          "internalType": "uint256",
          "name": "tradingFee",
          "type": "uint256"
        }
      ],
      "name": "splitTradeFee",
      "outputs": [],
      "stateMutability": "nonpayable",
      "type": "function"
    },
    {
      "inputs": [
        {
          "internalType": "string",
          "name": "_name",
          "type": "string"
        },
        {
          "internalType": "uint256",
          "name": "_amount",
          "type": "uint256"
        },
        {
          "internalType": "enum ICommon.Direct",
          "name": "_type",
          "type": "uint8"
        },
        {
          "internalType": "enum ICommon.Offset",
          "name": "_offset",
          "type": "uint8"
        },
        {
          "internalType": "uint256",
          "name": "_param1",
          "type": "uint256"
        },
        {
          "internalType": "uint256",
          "name": "_param2",
          "type": "uint256"
        },
        {
          "internalType": "uint256",
          "name": "_param3",
          "type": "uint256"
        },
        {
          "internalType": "uint256",
          "name": "_param4",
          "type": "uint256"
        },
        {
          "internalType": "uint256",
          "name": "_goodTill",
          "type": "uint256"
        },
        {
          "internalType": "uint256",
          "name": "_deadline",
          "type": "uint256"
        }
      ],
      "name": "stopTakeOrder",
      "outputs": [],
      "stateMutability": "payable",
      "type": "function"
    },
    {
      "inputs": [],
      "name": "tradeFeeAddr",
      "outputs": [
        {
          "internalType": "address",
          "name": "",
          "type": "address"
        }
      ],
      "stateMutability": "view",
      "type": "function"
    },
    {
      "inputs": [
        {
          "internalType": "string",
          "name": "_name",
          "type": "string"
        },
        {
          "internalType": "uint256",
          "name": "_amount",
          "type": "uint256"
        },
        {
          "internalType": "uint256",
          "name": "_price",
          "type": "uint256"
        },
        {
          "internalType": "uint256",
          "name": "_orderType",
          "type": "uint256"
        },
        {
          "internalType": "enum ICommon.Direct",
          "name": "_type",
          "type": "uint8"
        },
        {
          "internalType": "address",
          "name": "_inviter",
          "type": "address"
        },
        {
          "internalType": "uint256",
          "name": "_goodTill",
          "type": "uint256"
        },
        {
          "internalType": "uint256",
          "name": "_deadline",
          "type": "uint256"
        },
        {
          "internalType": "bytes",
          "name": "_priceUpdate",
          "type": "bytes"
        }
      ],
      "name": "tradeFutures",
      "outputs": [],
      "stateMutability": "payable",
      "type": "function"
    },
    {
      "inputs": [
        {
          "internalType": "address",
          "name": "newOwner",
          "type": "address"
        }
      ],
      "name": "transferOwnership",
      "outputs": [],
      "stateMutability": "nonpayable",
      "type": "function"
    },
    {
      "inputs": [
        {
          "internalType": "uint256[]",
          "name": "_orderIDs",
          "type": "uint256[]"
        },
        {
          "internalType": "string[]",
          "name": "_symbols",
          "type": "string[]"
        },
        {
          "internalType": "bytes[]",
          "name": "_priceUpdate",
          "type": "bytes[]"
        }
      ],
      "name": "triggerOrders",
      "outputs": [],
      "stateMutability": "payable",
      "type": "function"
    },
    {
      "inputs": [
        {
          "internalType": "address",
          "name": "_taker",
          "type": "address"
        },
        {
          "components": [
            {
              "internalType": "uint256",
              "name": "depositAmount",
              "type": "uint256"
            },
            {
              "internalType": "uint256",
              "name": "availableAmount",
              "type": "uint256"
            },
            {
              "internalType": "uint256",
              "name": "marginAmount",
              "type": "uint256"
            },
            {
              "internalType": "uint256",
              "name": "orderLocked",
              "type": "uint256"
            },
            {
              "internalType": "uint256",
              "name": "lastTime",
              "type": "uint256"
            }
          ],
          "internalType": "struct IPerpetual.AccountInfo",
          "name": "userInfo",
          "type": "tuple"
        }
      ],
      "name": "updateUserAsset",
      "outputs": [],
      "stateMutability": "nonpayable",
      "type": "function"
    },
    {
      "inputs": [
        {
          "internalType": "uint256",
          "name": "_amount",
          "type": "uint256"
        },
        {
          "internalType": "string[]",
          "name": "_symbols",
          "type": "string[]"
        },
        {
          "internalType": "bytes[]",
          "name": "_priceUpdate",
          "type": "bytes[]"
        }
      ],
      "name": "withdraw",
      "outputs": [],
      "stateMutability": "payable",
      "type": "function"
    }
  ],
  "bytecode": "0x60808060405234601557613985908161001b8239f35b600080fdfe6080604052600436101561001a575b3461001557005b600080fd5b6000803560e01c806305ca57cf14611e0f5780630c41899814611de85780631459457a146119c15780632ca430511461199a5780632f1cc4d0146117a45780633851969e146116e057806338a1398614611595578063402d712c14611523578063645b3fd0146114e4578063708b8d861461126c578063715018a6146111d357806389f00b6d146111b55780638da5cb5b1461116f5780639048f2e014611096578063a40cb4ca14610e8c578063b55fb57414610db0578063b6b55f2514610bf9578063c8f5ede21461096a578063c9f35c39146108a0578063cd2ce4ae14610783578063d1937e3d14610745578063d895797814610635578063e08061b31461060e578063e1fb28b81461058f578063e597868614610428578063ebc3eee814610360578063f2fde38b14610333578063f348285b1461030c578063f6ef1839146102295763fb47e01614610170575061000e565b3461022657602060031936011261022657604060a0916001600160a01b03610196611f16565b82608085516101a481611e76565b82815282602082015282878201528260608201520152168152600a602052206040516101cf81611e76565b81549182825260018101546020830190815260028201549060408401918252608060046003850154946060870195865201549401938452604051948552516020850152516040840152516060830152516080820152f35b80fd5b5034610226576001600160a01b038080808061024436611f2c565b97929193610253969196613372565b166001600160a01b0319601054161760105516806001600160a01b031960055416176005558752600960205260408720600160ff1982541617905516806001600160a01b031960065416176006558552600960205260408520600160ff1982541617905516806001600160a01b031960085416176008558352600960205260408320600160ff1982541617905516806001600160a01b031960075416176007558152600960205260408120600160ff1982541617905580f35b503461022657806003193601126102265760206001600160a01b0360115416604051908152f35b50346102265760206003193601126102265761035d610350611f16565b610358613372565b612dce565b80f35b5034610226578060031936011261022657604051806020600e5491828152018091600e85527fbb7b4a454dc3493923482f07822329ed19e8244eff582cc204f8554c3620c3fd90855b81811061040957505050826103bf910383611e92565b604051928392602084019060208552518091526040840192915b8181106103e7575050500390f35b82516001600160a01b03168452859450602093840193909201916001016103d9565b82546001600160a01b03168452602090930192600192830192016103a9565b50610100600319360112610226578060043567ffffffffffffffff811161058c57610457903690600401611ed1565b604435906084359060643560038310156105885760e43567ffffffffffffffff81116105845761048b903690600401611ed1565b906104946130da565b6104a24260c4351015612267565b34818661056f575050506104b690826137a0565b9184905b6001600160a01b036008541691823b1561056b57869461051482604051988997889687957f274889e1000000000000000000000000000000000000000000000000000000008752339360a435936024359060048a01612581565b03925af180156105605761054b575b5060017f9b779b17422d0df92223018b32b4d1fa46e071723d6817e2486d003becc55f005580f35b8161055591611e92565b610226578038610523565b6040513d84823e3d90fd5b8680fd5b61057f9193509491941515612536565b6104ba565b8580fd5b8480fd5b50fd5b5034610226576040600319360112610226576105a9611f16565b60243567ffffffffffffffff811161060a5760406020936001600160a01b036105d96105e8943690600401611ed1565b94168152600c855220826121d3565b549081156105fa575b50604051908152f35b6106049150612ebd565b386105f1565b8280fd5b503461022657806003193601126102265760206001600160a01b0360125416604051908152f35b5060606003193601126102265760043567ffffffffffffffff8111610741573660238201121561074157806004013561066d81611f9e565b9161067b6040519384611e92565b8183526024602084019260051b8201019036821161058857602401915b8183106107215750505060243567ffffffffffffffff811161060a576106c2903690600401612013565b6044359167ffffffffffffffff831161071d576106e66106f6933690600401612092565b9290916106f16130da565b612a19565b60017f9b779b17422d0df92223018b32b4d1fa46e071723d6817e2486d003becc55f005580f35b8380fd5b82356001600160a01b038116810361001557815260209283019201610698565b5080fd5b50346102265760406003193601126102265761035d610762611f16565b338352600960205261077a60ff6040852054166125d5565b60243590612653565b5034610226578060031936011261022657600d546107a081611f9e565b906107ae6040519283611e92565b808252600d83527fd7b6990105719101dabeb77144f2a3385c8033acd3af97e9423a695e81ad1eb59280602084015b8383106107fe57604051602080825281906107fa9082018861217a565b0390f35b60405182875461080d816122bc565b808452906001811690811561087d5750600114610847575b506001928261083985946020940382611e92565b8152019601920191946107dd565b888552602085208592505b81831061086757505081016020016001610825565b6001816020925483868801015201920191610852565b60ff191660208581019190915291151560051b8401909101915060019050610825565b50346102265760c0600319360112610226576108ba611f16565b60a07fffffffffffffffffffffffffffffffffffffffffffffffffffffffffffffffdc360112610741576004604051916108f383611e76565b6024358352602083016044358152604084016064358152606085019160843583526001600160a01b03608087019460a4358652338952600960205261093e60ff60408b2054166125d5565b428652168752600a60205260408720955186555160018601555160028501555160038401555191015580f35b50610120600319360112610226578060043567ffffffffffffffff811161058c57610999903690600401611ed1565b608435906064359060443560038410156105885760a4356001600160a01b038116809103610584576101043567ffffffffffffffff811161056b576109e2903690600401611ed1565b916109eb6130da565b6109f94260e4351015612267565b80916001600160a01b03600754169081151580610bf0575b80610b4d575b610aa9575b505034908515600014610a9457505050610a3690826137a0565b9284905b6001600160a01b036008541691823b1561056b57869461051482604051988997889687957fdcac2e88000000000000000000000000000000000000000000000000000000008752339360c435936024359060048a01612581565b610aa49193509591951515612536565b610a3a565b60409060a46001600160a01b03600f54168b845195869485937fcecf78d0000000000000000000000000000000000000000000000000000000008552806004860152602485015260448401523360648401528160848401525af18015610b4257610b14575b80610a1c565b610b359060403d604011610b3b575b610b2d8183611e92565b810190612519565b50610b0e565b503d610b23565b6040513d8a823e3d90fd5b506040517f147df887000000000000000000000000000000000000000000000000000000008152336004820152602081602481865afa8015610be5578a90610ba1575b6001600160a01b0391501615610a17565b506020813d602011610bdd575b81610bbb60209383611e92565b81010312610bd957610bd46001600160a01b0391612505565b610b90565b8980fd5b3d9150610bae565b6040513d8c823e3d90fd5b50801515610a11565b5034610226576020600319360112610226576004356001548110610d6c57610c4b90610c3d610c273061350a565b916001600160a01b03600f54163090339061363d565b610c463061350a565b612319565b338252600a602052600460408320610c6233612326565b610c6d8382546122f6565b815560018101610c7e8482546122f6565b905501805415610cf4575b50610c93336123e7565b600f546040516001600160a01b0391909116916001825260208201524260408201527ffe1040c72b0fa917ba66cc39f1adcb8ea8a3d05c3848f202db07ddb406f7c96060603392a380f35b634e487b7160e01b600052602160045260246000fd5b429055600e5468010000000000000000811015610d585760018101600e55600e54811015610d4457600e8352602083200180548360031b906001600160a01b0333831b921b191617905538610c89565b602483634e487b7160e01b81526032600452fd5b602483634e487b7160e01b81526041600452fd5b606460405162461bcd60e51b815260206004820152601860248201527f6465706f73697420616d6f756e7420746f6f20736d616c6c00000000000000006044820152fd5b50346102265760206003193601126102265760043567ffffffffffffffff811161074157610de2903690600401611fb6565b81805b8251811015610e88576001600160a01b0360065416610e0482856124db565b51813b1561071d5783916064839260405194859384927fc2b3356400000000000000000000000000000000000000000000000000000000845260048401523360248401528160448401525af1908115610e7d578391610e68575b5050600101610de5565b81610e7291611e92565b610741578138610e5e565b6040513d85823e3d90fd5b5080f35b5060606003193601126102265760043560243567ffffffffffffffff811161060a57610ebc903690600401612013565b60443567ffffffffffffffff811161071d57610f3e610ee16040923690600401612092565b929093338752600a60205281872094610f0888956001600160a01b03600654169284613153565b9183518095819482937f9aa59c6500000000000000000000000000000000000000000000000000000000845233600485016124b5565b03915afa90811561108b578590869261104a575b5015611042575b50610f6333612326565b6001820191610f74835492856122f6565b8210610ffe57610f929181610f8b86809454612319565b9055612319565b9055610faa81336001600160a01b03600f54166133d3565b610fb3336123e7565b600f546040516001600160a01b0391909116916002825260208201524260408201527ffe1040c72b0fa917ba66cc39f1adcb8ea8a3d05c3848f202db07ddb406f7c96060603392a380f35b606460405162461bcd60e51b815260206004820152601960248201527f776974686472657720616d6f756e7420746f6f206c61726765000000000000006044820152fd5b905038610f59565b9150506040813d604011611083575b8161106660409383611e92565b81010312610588576020611079826124a8565b9101519038610f52565b3d9150611059565b6040513d87823e3d90fd5b5034610226576040600319360112610226577f978f5a06b7f22ed0a8d1bfc4c6d9d44b320a6f206eb9dde65c1de4dc27f48cc060e06001600160a01b036110db611f16565b16808452600a60205260408420600181015460028201546110fc81836122f6565b9161110c600385015480946122f6565b9354938085111561114e576111219085612319565b935b604051958652602086015260408501526060840152608083015260243560a083015260c0820152a180f35b84818110156111665761116091612319565b93611123565b50508793611123565b503461022657806003193601126102265760206001600160a01b037f9016d09d72d40fdae2fd8ceac6b6234c7706214fd39c1cd1e609a0528c1993005416604051908152f35b50346102265780600319360112610226576020600254604051908152f35b50346102265780600319360112610226576111ec613372565b806001600160a01b037f9016d09d72d40fdae2fd8ceac6b6234c7706214fd39c1cd1e609a0528c199300546001600160a01b031981167f9016d09d72d40fdae2fd8ceac6b6234c7706214fd39c1cd1e609a0528c19930055167f8be0079c531659141344cd1fd0a4f28419497f9722a3daafe3b4186f6b6457e08280a380f35b50346102265760406003193601126102265760043567ffffffffffffffff81116107415761129e903690600401611ed1565b602435906001600160a01b03821680920361060a576112bb613372565b604051906001600160a01b03815192602081818501956112dc818389612132565b8101600b815203019020541615611323575b61130691602091604051938492839251928391612132565b8101600b815203019020906001600160a01b031982541617905580f35b600d54680100000000000000008110156114d05760018101600d55600d548110156114bc57600d85527fd7b6990105719101dabeb77144f2a3385c8033acd3af97e9423a695e81ad1eb501846114a957815167ffffffffffffffff81116114935761138e82546122bc565b601f811161144b575b506020601f82116001146113df5791816020949261130696946000916113d4575b506000198260011b9260031b1c19161790555b915091506112ee565b9050830151386113b8565b601f1982169083600052806000209160005b81811061143357509261130696949260019282602098961061141a575b5050811b0190556113cb565b85015160001960f88460031b161c19169055388061140e565b9192602060018192868a0151815501940192016113f1565b826000526020600020601f830160051c81019160208410611489575b601f0160051c01905b81811061147d5750611397565b60008155600101611470565b9091508190611467565b634e487b7160e01b600052604160045260246000fd5b602485634e487b7160e01b815280600452fd5b602485634e487b7160e01b81526032600452fd5b602485634e487b7160e01b81526041600452fd5b5034610226576020600319360112610226576001600160a01b03611506611f16565b61150e613372565b166001600160a01b0319601254161760125580f35b5080611550611531366120c3565b61153d949192946130da565b6001600160a01b03600854169285613153565b90803b156105885761051493858094604051968795869485937fbcef60d70000000000000000000000000000000000000000000000000000000085526004850161222d565b50610140600319360112610226578060043567ffffffffffffffff811161058c576115c4903690600401611ed1565b6044359060038210156116dc5760643560038110156116da576115e56130da565b6115f442610124351015612267565b6001600160a01b0360085416803b156105885761164c8593604051958694859384937feff6d7c30000000000000000000000000000000000000000000000000000000085526101406004860152610144850190612155565b91602435602485015261165e816122b2565b604484015261166c816122b2565b6064830152608435608483015260a43560a483015260c43560c483015260e43560e48301526101043561010483015233610124830152039134905af180156105605761054b575060017f9b779b17422d0df92223018b32b4d1fa46e071723d6817e2486d003becc55f005580f35b505b5050fd5b5061170d816116ee366120c3565b6116fa959192956130da565b6001600160a01b03600654169286613153565b90803b1561071d5761175294848094604051978895869485937feb4f2e360000000000000000000000000000000000000000000000000000000085526004850161222d565b03925af18015611797576117875760017f9b779b17422d0df92223018b32b4d1fa46e071723d6817e2486d003becc55f005580f35b61179091611e92565b38816106f6565b50604051903d90823e3d90fd5b50346102265760406003193601126102265760043567ffffffffffffffff8111610741576117d6903690600401611ed1565b60243590338352600a60205260408320604051906117f382611e76565b805482526001810154602083015260806002820154926040810193845260046003840154936060830194855201549182910152156119565761183483612ebd565b841515908161194b575b501561190757511590816118fd575b50156118b9576118b590338452600c6020527f19c868b153d63e547ff3dad93423e37b035588be801b6c0e1b91e98de7eccc61606061188f60408720846121d3565b54604051903382526020820152856040820152a1338452600c60205260408420906121d3565b5580f35b606460405162461bcd60e51b815260206004820152600960248201527f68617320617373657400000000000000000000000000000000000000000000006044820152fd5b905051153861184d565b606460405162461bcd60e51b815260206004820152601560248201527f6c65766572616765206f7574206f6620312d31303000000000000000000000006044820152fd5b90508411153861183e565b606460405162461bcd60e51b815260206004820152601260248201527f75736572206973206e6f742065786973747300000000000000000000000000006044820152fd5b503461022657806003193601126102265760206001600160a01b03600f5416604051908152f35b5034610226576119d036611f2c565b7ff0c57e16840df040f15088dc2f81fe391c3923bec73e23a9662efc9c229c6a0094929194549360ff8560401c16159467ffffffffffffffff811680159081611de0575b6001149081611dd6575b159081611dcd575b50611da557916001600160a01b0380949392838860017fffffffffffffffffffffffffffffffffffffffffffffffff0000000000000000859716177ff0c57e16840df040f15088dc2f81fe391c3923bec73e23a9662efc9c229c6a0055611d50575b50611a91613874565b611a99613874565b611aa233612dce565b611aaa613874565b611ab2613874565b60017f9b779b17422d0df92223018b32b4d1fa46e071723d6817e2486d003becc55f0055611ade613372565b611ae787612dce565b16806001600160a01b031960045416176004558852600960205260408820600160ff19825416179055166001600160a01b03196012541617601255166001600160a01b031960115416176011556001600160a01b0383166001600160a01b0319600f541617600f5583806001600160a01b036004541694604095827fffffffff00000000000000000000000000000000000000000000000000000000601860208a51611b938c82611e92565b828152017f617070726f766528616464726573732c75696e743235362900000000000000008152201691885190602082019384526024820152600019604482015260448152611be3606482611e92565b51925af1611bef612e8d565b81611d19575b501561071d576001600160a01b03903085526009602052838520600160ff198254161790551683526009602052818320600160ff19825416179055670de0b6b3a7640000835566038d7ea4c6800060015567016345785d8a0000600255826003557fffffffffffffffffffffff00ffffffffffffffffffffffffffffffffffffffff60085416600855611c86575080f35b60207fc7f505b2f371ae2175ee4913f4499e1f2633a7b5936321eed1cdaeb6115181d2917fffffffffffffffffffffffffffffffffffffffffffffff00ffffffffffffffff7ff0c57e16840df040f15088dc2f81fe391c3923bec73e23a9662efc9c229c6a0054167ff0c57e16840df040f15088dc2f81fe391c3923bec73e23a9662efc9c229c6a00555160018152a180f35b8051801592508215611d2e575b505038611bf5565b8192509060209181010312610588576020611d4991016124a8565b3880611d26565b7fffffffffffffffffffffffffffffffffffffffffffffff0000000000000000001668010000000000000001177ff0c57e16840df040f15088dc2f81fe391c3923bec73e23a9662efc9c229c6a005538611a88565b6004887ff92ee8a9000000000000000000000000000000000000000000000000000000008152fd5b90501538611a26565b303b159150611a1e565b879150611a14565b503461022657806003193601126102265760206001600160a01b0360105416604051908152f35b5034610226576020600319360112610226576004359067ffffffffffffffff82116102265760206001600160a01b03611e6282611e4f3660048801611ed1565b8160405193828580945193849201612132565b8101600b8152030190205416604051908152f35b60a0810190811067ffffffffffffffff82111761149357604052565b90601f601f19910116810190811067ffffffffffffffff82111761149357604052565b67ffffffffffffffff811161149357601f01601f191660200190565b81601f8201121561001557602081359101611eeb82611eb5565b92611ef96040519485611e92565b828452828201116100155781600092602092838601378301015290565b600435906001600160a01b038216820361001557565b60031960a0910112610015576004356001600160a01b038116810361001557906024356001600160a01b038116810361001557906044356001600160a01b038116810361001557906064356001600160a01b038116810361001557906084356001600160a01b03811681036100155790565b67ffffffffffffffff81116114935760051b60200190565b9080601f83011215610015578135611fcd81611f9e565b92611fdb6040519485611e92565b81845260208085019260051b82010192831161001557602001905b8282106120035750505090565b8135815260209182019101611ff6565b9080601f8301121561001557813561202a81611f9e565b926120386040519485611e92565b81845260208085019260051b820101918383116100155760208201905b83821061206457505050505090565b813567ffffffffffffffff81116100155760209161208787848094880101611ed1565b815201910190612055565b9181601f840112156100155782359167ffffffffffffffff8311610015576020808501948460051b01011161001557565b60606003198201126100155760043567ffffffffffffffff811161001557816120ee91600401611fb6565b9160243567ffffffffffffffff8111610015578261210e91600401612013565b916044359067ffffffffffffffff82116100155761212e91600401612092565b9091565b60005b8381106121455750506000910152565b8181015183820152602001612135565b90601f19601f60209361217381518092818752878088019101612132565b0116010190565b9080602083519182815201916020808360051b8301019401926000915b8383106121a657505050505090565b90919293946020806121c483601f1986600196030187528951612155565b97019301930191939290612197565b6020906121ed928260405194838680955193849201612132565b82019081520301902090565b906020808351928381520192019060005b8181106122175750505090565b825184526020938401939092019160010161220a565b916122569061224861226495936060865260608601906121f9565b90848203602086015261217a565b9160408184039101526121f9565b90565b1561226e57565b606460405162461bcd60e51b815260206004820152600760248201527f65787069726564000000000000000000000000000000000000000000000000006044820152fd5b60031115610cde57565b90600182811c921680156122ec575b60208310146122d657565b634e487b7160e01b600052602260045260246000fd5b91607f16916122cb565b9190820180921161230357565b634e487b7160e01b600052601160045260246000fd5b9190820391821161230357565b60e06001600160a01b037f978f5a06b7f22ed0a8d1bfc4c6d9d44b320a6f206eb9dde65c1de4dc27f48cc0921680600052600a60205260406000206001810154600282015461237581836122f6565b91612385600385015480946122f6565b935493808511156123c55761239a9085612319565b935b6040519586526020860152604085015260608401526080830152600060a083015260c0820152a1565b84818110156123dd576123d791612319565b9361239c565b505060009361239c565b60e06001600160a01b037f978f5a06b7f22ed0a8d1bfc4c6d9d44b320a6f206eb9dde65c1de4dc27f48cc0921680600052600a60205260406000206001810154600282015461243681836122f6565b91612446600385015480946122f6565b935493808511156124865761245b9085612319565b935b6040519586526020860152604085015260608401526080830152600a60a083015260c0820152a1565b848181101561249e5761249891612319565b9361245d565b505060009361245d565b5190811515820361001557565b91612256906001600160a01b03612264959316845260606020850152606084019061217a565b80518210156124ef5760209160051b010190565b634e487b7160e01b600052603260045260246000fd5b51906001600160a01b038216820361001557565b919082604091031261001557602061253083612505565b92015190565b1561253d57565b606460405162461bcd60e51b815260206004820152600d60248201527f7072696365206973207a65726f000000000000000000000000000000000000006044820152fd5b94909360e09692999897936125a86001600160a01b03966101008952610100890190612155565b9a6020880152604087015260608601526125c1816122b2565b608085015260a08401521660c08201520152565b156125dc57565b606460405162461bcd60e51b815260206004820152601e60248201527f63616c6c6572206973206e6f742070657270657475616c206b656570657200006044820152fd5b8181029291811591840414171561230357565b811561263d570490565b634e487b7160e01b600052601260045260246000fd5b908015612a155761267261266960035483612620565b60005490612633565b60009081926001600160a01b036007541680612965575b508360ff60085460a01c1680612954575b8061294b575b61293a575b506001600160a01b03601054168291809382151580612932575b80612929575b61289b575b505050509180836001600160a01b0384169283151580612892575b80612889575b6127f3575b50505050506001600160a01b0360125416908091801515806127ea575b806127e1575b612767575b50509081612724575050565b6001600160a01b031680600052600a60205260406000206127468382546122f6565b9055600052600a60205261276360016040600020019182546122f6565b9055565b9091506127748280612319565b9161278b81836001600160a01b03600f54166133d3565b6040516001600160a01b038516815260208101929092528160a091600360407fb941ac817f7372254f8b361eba8c11916dc5b2d11042579bb054d79246bb89319501526060820152426080820152a13880612718565b50811515612713565b5081151561270d565b9394509192909190811061287b578161280f8161282293612319565b945b6001600160a01b03600f54166133d3565b6040516001600160a01b038516815260208101929092528160a091600c60407fb941ac817f7372254f8b361eba8c11916dc5b2d11042579bb054d79246bb89319501526060820152426080820152a138808080806126f0565b905061282281600094612811565b508015156126eb565b508115156126e5565b9293509091811061292057826128b091612319565b915b6128c881836001600160a01b03600f54166133d3565b6040516001600160a01b038716815260208101929092528160a091600b60407fb941ac817f7372254f8b361eba8c11916dc5b2d11042579bb054d79246bb89319501526060820152426080820152a1388080806126ca565b600092506128b2565b508015156126c5565b5060016126bf565b61294491926122f6565b90836126a5565b508015156126a0565b506001600160a01b0384161561269a565b83945060409060a46001600160a01b03600f9694965416835194859384927fcecf78d000000000000000000000000000000000000000000000000000000000845280600485015260248401528160448401526001600160a01b038b1660648401528860848401525af1908115612a0a5784916129e5575b50929138612689565b9050612a0191935060403d604011610b3b57610b2d8183611e92565b929092386129dc565b6040513d86823e3d90fd5b5050565b9293919360005b8451811015612dc6576001600160a01b03612a3b82876124db565b51169081600052600a602052612a5560406000205461385b565b8015612dbc57612a6483612326565b612a6f848987613153565b6001600160a01b0360065416608060405180927fc254878b0000000000000000000000000000000000000000000000000000000082528180612ab6878d8c600485016124b5565b03915afa908115612d7757600091612d83575b50612adb575b50506001915001612a20565b612b5c602087612af56001600160a01b036011541661350a565b936001600160a01b036008541690600089612b6e612b13898b6122f6565b93604051988997889687957f7295751b0000000000000000000000000000000000000000000000000000000087526004870152602486015260806044860152608485019061217a565b906003198483030160648501526121f9565b03925af1908115612d7757600091612d46575b50808203612be257505091612bb06001936001600160a01b03600f54166001600160a01b0360045416906133d3565b600052600a60205260406000206000838201556000815560006002820155600060038201556004429101553880612acf565b81811115612c9657610c46612c4393612c1c6001600160a01b03600f54166001600160a01b0360115416612c168787612319565b916133d3565b6001600160a01b03600f541690612c1684610c46876001600160a01b0360045416946122f6565b600f54604051600894926001600160a01b0392909216916060827ffe1040c72b0fa917ba66cc39f1adcb8ea8a3d05c3848f202db07ddb406f7c960926001988795526020820152426040820152a3612bb0565b90610c46612cf393612ccc6001600160a01b03600f54166001600160a01b036011541690612cc48787612319565b91309161363d565b6001600160a01b03600f541690612c1685610c46866001600160a01b0360045416946122f6565b600f54604051600994926001600160a01b0392909216916060827ffe1040c72b0fa917ba66cc39f1adcb8ea8a3d05c3848f202db07ddb406f7c960926001988795526020820152426040820152a3612bb0565b906020823d8211612d6f575b81612d5f60209383611e92565b8101031261022657505138612b81565b3d9150612d52565b6040513d6000823e3d90fd5b906080823d8211612db4575b81612d9c60809383611e92565b810103126102265750612dae906124a8565b38612ac9565b3d9150612d8f565b5050505050915050565b505050915050565b6001600160a01b03168015612e5e576001600160a01b037f9016d09d72d40fdae2fd8ceac6b6234c7706214fd39c1cd1e609a0528c19930054826001600160a01b03198216177f9016d09d72d40fdae2fd8ceac6b6234c7706214fd39c1cd1e609a0528c19930055167f8be0079c531659141344cd1fd0a4f28419497f9722a3daafe3b4186f6b6457e0600080a3565b7f1e4fbdf700000000000000000000000000000000000000000000000000000000600052600060045260246000fd5b3d15612eb8573d90612e9e82611eb5565b91612eac6040519384611e92565b82523d6000602084013e565b606090565b612ede60206001600160a01b03928160405193828580945193849201612132565b8101600b815203019020541680612ef6575b50606490565b6000602491604051928380927fa666200f0000000000000000000000000000000000000000000000000000000082523060048301525afa908115612d7757600091612f47575b506101600151612ef0565b3d8083833e612f568183611e92565b81019060208183031261060a5780519067ffffffffffffffff821161071d5701906101e08282031261060a57604051926101e0840184811067ffffffffffffffff8211176130c657604052825167ffffffffffffffff811161074157830182601f8201121561074157805191612fcb83611eb5565b93612fd96040519586611e92565b838552602084840101116102265750916130026101609594926101c09460208085019101612132565b83526020810151602084015261301a60408201612505565b604084015261302b60608201612505565b606084015261303c60808201612505565b608084015261304d60a08201612505565b60a084015261305e60c08201612505565b60c084015261306f60e08201612505565b60e084015261010081015161010084015261012081015161012084015261014081015161014084015283810151848401526101808101516101808401526101a08101516101a084015201516101c082015290612f3c565b602482634e487b7160e01b81526041600452fd5b60027f9b779b17422d0df92223018b32b4d1fa46e071723d6817e2486d003becc55f0054146131295760027f9b779b17422d0df92223018b32b4d1fa46e071723d6817e2486d003becc55f0055565b7f3ee5aeb50000000000000000000000000000000000000000000000000000000060005260046000fd5b909291928382510361332e5761316a825134612633565b908251801561263d5734069361317f86611f9e565b9361318d6040519586611e92565b868552601f1961319c88611f9e565b01366020870137849560005b825180821015613322576000198101908111612303578114613311575b6001600160a01b036131f060206131dc84876124db565b518160405193828580945193849201612132565b8101600b8152030190205416898210156124ef578160051b8601357fffffffffffffffffffffffffffffffffffffffffffffffffffffffffffffffe18736030181121561001557860180359067ffffffffffffffff82116100155760200190803603821361001557601f92818a6064602095601f19604051988997889687947fb3d316c100000000000000000000000000000000000000000000000000000000865260406004870152816044870152868601376000858286010152306024850152011681010301925af1908115612d77576000916132df575b50906001916132d8828a6124db565b52016131a8565b906020823d8211613309575b816132f860209383611e92565b8101031261022657505160016132c9565b3d91506132eb565b948161331c916122f6565b946131c5565b50505050939450505050565b606460405162461bcd60e51b815260206004820152602060248201527f496e636f6e73697374656e74207072696365206172726179206c656e677468736044820152fd5b6001600160a01b037f9016d09d72d40fdae2fd8ceac6b6234c7706214fd39c1cd1e609a0528c199300541633036133a557565b7f118cdaa7000000000000000000000000000000000000000000000000000000006000523360045260246000fd5b916133de90836138cd565b91821515806134d1575b6133f157505050565b6000928380936040926001600160a01b037fffffffff000000000000000000000000000000000000000000000000000000006019602087516134338982611e92565b828152017f7472616e7366657228616464726573732c75696e7432353629000000000000008152201694519260208401958652166024830152604482015260448152613480606482611e92565b51925af161348c612e8d565b8161349a575b501561001557565b80518015925082156134af575b505038613492565b81925090602091810103126100155760206134ca91016124a8565b38806134a7565b506001600160a01b03821615156133e8565b90816020910312610015575160ff811681036100155790565b604d811161230357600a0a90565b6001600160a01b03600f541690604051907f313ce567000000000000000000000000000000000000000000000000000000008252602082600481865afa918215612d77576000926135ff575b506001600160a01b03602460209260405195869384927f70a082310000000000000000000000000000000000000000000000000000000084521660048301525afa918215612d77576000926135c9575b506135c360ff6135bc6122649460005490612620565b92166134fc565b90612633565b91506020823d6020116135f7575b816135e460209383611e92565b81010312610015579051906135c36135a6565b3d91506135d7565b6020919250602461362d6001600160a01b0392843d8611613636575b6136258183611e92565b8101906134e3565b93925050613556565b503d61361b565b90919261364a90826138cd565b928315158061378e575b8061377c575b613665575b50505050565b600080949381946001600160a01b037fffffffff0000000000000000000000000000000000000000000000000000000060256040516136a5606082611e92565b8181527f7432353629000000000000000000000000000000000000000000000000000000604060208301927f7472616e7366657246726f6d28616464726573732c616464726573732c75696e84520152201694816040519460208601978852166024850152166044830152606482015260648152613724608482611e92565b51925af1613730612e8d565b81613745575b5015610015573880808061365f565b805180159250821561375a575b505038613736565b819250906020918101031261001557602061377591016124a8565b3880613752565b506001600160a01b038116151561365a565b506001600160a01b0383161515613654565b61380e916001600160a01b036137c6602080948160405193828580945193849201612132565b8101600b815203019020541660405180809581947fb3d316c1000000000000000000000000000000000000000000000000000000008352604060048401526044830190612155565b306024830152039134905af1908115612d775760009161382c575090565b90506020813d602011613853575b8161384760209383611e92565b81010312610015575190565b3d915061383a565b6138643061350a565b80821161386f575090565b905090565b60ff7ff0c57e16840df040f15088dc2f81fe391c3923bec73e23a9662efc9c229c6a005460401c16156138a357565b7fd7e6bcf80000000000000000000000000000000000000000000000000000000060005260046000fd5b60206001600160a01b03916004604051809481937f313ce567000000000000000000000000000000000000000000000000000000008352165afa918215612d775761392a60ff6122649461266994600091613930575b50166134fc565b90612620565b613949915060203d602011613636576136258183611e92565b3861392356fea2646970667358221220e45bdeb8de01ada2a6159892b8101094a1a8e3ca82c0eefc9f931bf171b0675a64736f6c634300081c0033",
  "linkReferences": {},
  "deployedLinkReferences": {}
}