{
  "_format": "hh-sol-artifact-1",
  "contractName": "Perpetual",
  "sourceName": "contracts/Perpetual.sol",
  "abi": [
    {
      "inputs": [],
      "name": "InvalidInitialization",
      "type": "error"
    },
    {
      "inputs": [],
      "name": "NotInitializing",
      "type": "error"
    },
    {
      "inputs": [
        {
          "internalType": "address",
          "name": "owner",
          "type": "address"
        }
      ],
      "name": "OwnableInvalidOwner",
      "type": "error"
    },
    {
      "inputs": [
        {
          "internalType": "address",
          "name": "account",
          "type": "address"
        }
      ],
      "name": "OwnableUnauthorizedAccount",
      "type": "error"
    },
    {
      "inputs": [],
      "name": "ReentrancyGuardReentrantCall",
      "type": "error"
    },
    {
      "anonymous": false,
      "inputs": [
        {
          "indexed": false,
          "internalType": "address",
          "name": "taker",
          "type": "address"
        },
        {
          "indexed": false,
          "internalType": "uint256",
          "name": "amount",
          "type": "uint256"
        },
        {
          "indexed": false,
          "internalType": "uint256",
          "name": "availableAmount",
          "type": "uint256"
        },
        {
          "indexed": false,
          "internalType": "uint256",
          "name": "marginAmount",
          "type": "uint256"
        },
        {
          "indexed": false,
          "internalType": "uint256",
          "name": "locked",
          "type": "uint256"
        },
        {
          "indexed": false,
          "internalType": "uint256",
          "name": "stage",
          "type": "uint256"
        },
        {
          "indexed": false,
          "internalType": "uint256",
          "name": "dif",
          "type": "uint256"
        }
      ],
      "name": "BalanceOfTaker",
      "type": "event"
    },
    {
      "anonymous": false,
      "inputs": [
        {
          "indexed": false,
          "internalType": "string",
          "name": "name",
          "type": "string"
        },
        {
          "indexed": true,
          "internalType": "address",
          "name": "taker",
          "type": "address"
        },
        {
          "indexed": false,
          "internalType": "uint256",
          "name": "orderID",
          "type": "uint256"
        },
        {
          "indexed": false,
          "internalType": "enum ICommon.Direct",
          "name": "orderType",
          "type": "uint8"
        },
        {
          "indexed": false,
          "internalType": "enum IPerpetual.OrderState",
          "name": "state",
          "type": "uint8"
        },
        {
          "indexed": false,
          "internalType": "enum ICommon.Offset",
          "name": "offset",
          "type": "uint8"
        },
        {
          "indexed": false,
          "internalType": "uint256",
          "name": "amount",
          "type": "uint256"
        },
        {
          "indexed": false,
          "internalType": "uint256",
          "name": "targetPrice",
          "type": "uint256"
        },
        {
          "indexed": false,
          "internalType": "uint256",
          "name": "margin",
          "type": "uint256"
        },
        {
          "indexed": false,
          "internalType": "uint256",
          "name": "extraFee",
          "type": "uint256"
        },
        {
          "indexed": false,
          "internalType": "uint256",
          "name": "tradingFee",
          "type": "uint256"
        },
        {
          "indexed": false,
          "internalType": "uint256",
          "name": "goodTill",
          "type": "uint256"
        }
      ],
      "name": "CreateLimitedOrder",
      "type": "event"
    },
    {
      "anonymous": false,
      "inputs": [
        {
          "indexed": false,
          "internalType": "uint256",
          "name": "limitOrderID",
          "type": "uint256"
        },
        {
          "indexed": false,
          "internalType": "uint256",
          "name": "openLimitPrice",
          "type": "uint256"
        },
        {
          "indexed": false,
          "internalType": "uint256",
          "name": "gainTriggerPrice",
          "type": "uint256"
        },
        {
          "indexed": false,
          "internalType": "uint256",
          "name": "gainLimitPrice",
          "type": "uint256"
        },
        {
          "indexed": false,
          "internalType": "uint256",
          "name": "lossTriggerPrice",
          "type": "uint256"
        },
        {
          "indexed": false,
          "internalType": "uint256",
          "name": "lossLimitPrice",
          "type": "uint256"
        }
      ],
      "name": "CreateTriggerCondition",
      "type": "event"
    },
    {
      "anonymous": false,
      "inputs": [
        {
          "indexed": false,
          "internalType": "uint256",
          "name": "code",
          "type": "uint256"
        },
        {
          "indexed": false,
          "internalType": "uint256",
          "name": "orderID",
          "type": "uint256"
        },
        {
          "indexed": false,
          "internalType": "string",
          "name": "message",
          "type": "string"
        }
      ],
      "name": "ErrorInfo",
      "type": "event"
    },
    {
      "anonymous": false,
      "inputs": [
        {
          "indexed": false,
          "internalType": "uint256",
          "name": "code",
          "type": "uint256"
        },
        {
          "indexed": false,
          "internalType": "uint256",
          "name": "orderID",
          "type": "uint256"
        },
        {
          "indexed": false,
          "internalType": "bytes",
          "name": "message",
          "type": "bytes"
        }
      ],
      "name": "ExceptErrorInfo",
      "type": "event"
    },
    {
      "anonymous": false,
      "inputs": [
        {
          "indexed": false,
          "internalType": "uint64",
          "name": "version",
          "type": "uint64"
        }
      ],
      "name": "Initialized",
      "type": "event"
    },
    {
      "anonymous": false,
      "inputs": [
        {
          "indexed": true,
          "internalType": "address",
          "name": "taker",
          "type": "address"
        },
        {
          "indexed": false,
          "internalType": "string",
          "name": "name",
          "type": "string"
        },
        {
          "indexed": false,
          "internalType": "uint256",
          "name": "orderID",
          "type": "uint256"
        },
        {
          "indexed": false,
          "internalType": "enum ICommon.Direct",
          "name": "direction",
          "type": "uint8"
        },
        {
          "indexed": false,
          "internalType": "enum IPerpetual.OrderType",
          "name": "orderType",
          "type": "uint8"
        },
        {
          "indexed": false,
          "internalType": "uint256",
          "name": "amount",
          "type": "uint256"
        },
        {
          "indexed": false,
          "internalType": "uint256",
          "name": "costPrice",
          "type": "uint256"
        },
        {
          "indexed": false,
          "internalType": "uint256",
          "name": "price",
          "type": "uint256"
        },
        {
          "indexed": false,
          "internalType": "uint256",
          "name": "tradingFee",
          "type": "uint256"
        },
        {
          "indexed": false,
          "internalType": "uint256",
          "name": "limitOrderId",
          "type": "uint256"
        },
        {
          "indexed": false,
          "internalType": "uint256",
          "name": "timestamp",
          "type": "uint256"
        }
      ],
      "name": "OrderHistory",
      "type": "event"
    },
    {
      "anonymous": false,
      "inputs": [
        {
          "indexed": true,
          "internalType": "address",
          "name": "previousOwner",
          "type": "address"
        },
        {
          "indexed": true,
          "internalType": "address",
          "name": "newOwner",
          "type": "address"
        }
      ],
      "name": "OwnershipTransferred",
      "type": "event"
    },
    {
      "anonymous": false,
      "inputs": [
        {
          "indexed": false,
          "internalType": "uint256",
          "name": "orderID",
          "type": "uint256"
        },
        {
          "indexed": false,
          "internalType": "uint256",
          "name": "dealID",
          "type": "uint256"
        },
        {
          "indexed": false,
          "internalType": "enum IPerpetual.TradeType",
          "name": "tradeType",
          "type": "uint8"
        },
        {
          "indexed": false,
          "internalType": "uint256",
          "name": "amount",
          "type": "uint256"
        },
        {
          "indexed": false,
          "internalType": "uint256",
          "name": "price",
          "type": "uint256"
        },
        {
          "indexed": false,
          "internalType": "uint256",
          "name": "tradingFee",
          "type": "uint256"
        },
        {
          "indexed": false,
          "internalType": "uint256",
          "name": "profit",
          "type": "uint256"
        },
        {
          "indexed": false,
          "internalType": "uint256",
          "name": "loss",
          "type": "uint256"
        },
        {
          "indexed": false,
          "internalType": "uint256",
          "name": "timestamp",
          "type": "uint256"
        }
      ],
      "name": "TradeHistory",
      "type": "event"
    },
    {
      "anonymous": false,
      "inputs": [
        {
          "indexed": true,
          "internalType": "address",
          "name": "taker",
          "type": "address"
        },
        {
          "indexed": false,
          "internalType": "enum ICommon.TransactionType",
          "name": "transactionType",
          "type": "uint8"
        },
        {
          "indexed": false,
          "internalType": "uint256",
          "name": "amount",
          "type": "uint256"
        },
        {
          "indexed": false,
          "internalType": "uint256",
          "name": "timestamp",
          "type": "uint256"
        }
      ],
      "name": "TransactionHistory",
      "type": "event"
    },
    {
      "anonymous": false,
      "inputs": [
        {
          "indexed": false,
          "internalType": "address",
          "name": "sender",
          "type": "address"
        },
        {
          "indexed": false,
          "internalType": "address",
          "name": "received",
          "type": "address"
        },
        {
          "indexed": false,
          "internalType": "enum ICommon.TransactionType",
          "name": "transactionType",
          "type": "uint8"
        },
        {
          "indexed": false,
          "internalType": "uint256",
          "name": "amount",
          "type": "uint256"
        },
        {
          "indexed": false,
          "internalType": "uint256",
          "name": "timestamp",
          "type": "uint256"
        }
      ],
      "name": "TransferFee",
      "type": "event"
    },
    {
      "stateMutability": "nonpayable",
      "type": "fallback"
    },
    {
      "inputs": [],
      "name": "buybackAddr",
      "outputs": [
        {
          "internalType": "address",
          "name": "",
          "type": "address"
        }
      ],
      "stateMutability": "view",
      "type": "function"
    },
    {
      "inputs": [
        {
          "internalType": "uint256[]",
          "name": "_orderIDs",
          "type": "uint256[]"
        }
      ],
      "name": "cancelOrders",
      "outputs": [],
      "stateMutability": "nonpayable",
      "type": "function"
    },
    {
      "inputs": [
        {
          "internalType": "uint256",
          "name": "_dealID",
          "type": "uint256"
        },
        {
          "internalType": "uint256",
          "name": "_price",
          "type": "uint256"
        }
      ],
      "name": "checkMakerMarginRisk",
      "outputs": [
        {
          "internalType": "bool",
          "name": "isRisk",
          "type": "bool"
        }
      ],
      "stateMutability": "view",
      "type": "function"
    },
    {
      "inputs": [
        {
          "internalType": "address",
          "name": "_taker",
          "type": "address"
        },
        {
          "internalType": "string[]",
          "name": "_pairs",
          "type": "string[]"
        },
        {
          "internalType": "uint256[]",
          "name": "_prices",
          "type": "uint256[]"
        }
      ],
      "name": "checkTakerMarginRisk",
      "outputs": [
        {
          "internalType": "bool",
          "name": "isRisk",
          "type": "bool"
        }
      ],
      "stateMutability": "view",
      "type": "function"
    },
    {
      "inputs": [
        {
          "internalType": "string",
          "name": "_name",
          "type": "string"
        },
        {
          "internalType": "uint256",
          "name": "_amount",
          "type": "uint256"
        },
        {
          "internalType": "uint256",
          "name": "_orderType",
          "type": "uint256"
        },
        {
          "internalType": "uint256",
          "name": "_price",
          "type": "uint256"
        },
        {
          "internalType": "enum ICommon.Direct",
          "name": "_type",
          "type": "uint8"
        },
        {
          "internalType": "uint256",
          "name": "_goodTill",
          "type": "uint256"
        },
        {
          "internalType": "uint256",
          "name": "_deadline",
          "type": "uint256"
        },
        {
          "internalType": "bytes",
          "name": "_priceUpdate",
          "type": "bytes"
        }
      ],
      "name": "closePosition",
      "outputs": [],
      "stateMutability": "payable",
      "type": "function"
    },
    {
      "inputs": [
        {
          "internalType": "uint256",
          "name": "_amount",
          "type": "uint256"
        }
      ],
      "name": "deposit",
      "outputs": [],
      "stateMutability": "nonpayable",
      "type": "function"
    },
    {
      "inputs": [
        {
          "internalType": "address",
          "name": "_takerAddress",
          "type": "address"
        },
        {
          "internalType": "uint256",
          "name": "_stage",
          "type": "uint256"
        }
      ],
      "name": "emitTakerBalance",
      "outputs": [],
      "stateMutability": "nonpayable",
      "type": "function"
    },
    {
      "inputs": [],
      "name": "fiatTokenAddr",
      "outputs": [
        {
          "internalType": "address",
          "name": "",
          "type": "address"
        }
      ],
      "stateMutability": "view",
      "type": "function"
    },
    {
      "inputs": [
        {
          "internalType": "address",
          "name": "_user",
          "type": "address"
        },
        {
          "internalType": "string",
          "name": "_name",
          "type": "string"
        },
        {
          "internalType": "uint256",
          "name": "_price",
          "type": "uint256"
        },
        {
          "internalType": "enum ICommon.Direct",
          "name": "_type",
          "type": "uint8"
        }
      ],
      "name": "getMaxOpenAmount",
      "outputs": [
        {
          "internalType": "uint256",
          "name": "amount",
          "type": "uint256"
        }
      ],
      "stateMutability": "view",
      "type": "function"
    },
    {
      "inputs": [
        {
          "internalType": "address",
          "name": "_user",
          "type": "address"
        },
        {
          "internalType": "string[]",
          "name": "_symbols",
          "type": "string[]"
        },
        {
          "internalType": "uint256[]",
          "name": "_prices",
          "type": "uint256[]"
        }
      ],
      "name": "getMaxWithdrawableAmount",
      "outputs": [
        {
          "internalType": "uint256",
          "name": "_amount",
          "type": "uint256"
        }
      ],
      "stateMutability": "view",
      "type": "function"
    },
    {
      "inputs": [
        {
          "internalType": "address",
          "name": "_user",
          "type": "address"
        },
        {
          "internalType": "string[]",
          "name": "_symbols",
          "type": "string[]"
        },
        {
          "internalType": "uint256[]",
          "name": "_prices",
          "type": "uint256[]"
        }
      ],
      "name": "getPNL",
      "outputs": [
        {
          "internalType": "bool",
          "name": "flag",
          "type": "bool"
        },
        {
          "internalType": "uint256",
          "name": "amount",
          "type": "uint256"
        }
      ],
      "stateMutability": "view",
      "type": "function"
    },
    {
      "inputs": [],
      "name": "getTradingPairs",
      "outputs": [
        {
          "internalType": "string[]",
          "name": "",
          "type": "string[]"
        }
      ],
      "stateMutability": "view",
      "type": "function"
    },
    {
      "inputs": [
        {
          "internalType": "string",
          "name": "_name",
          "type": "string"
        }
      ],
      "name": "getUnderlying",
      "outputs": [
        {
          "internalType": "contract Underlying",
          "name": "",
          "type": "address"
        }
      ],
      "stateMutability": "view",
      "type": "function"
    },
    {
      "inputs": [
        {
          "internalType": "address",
          "name": "_taker",
          "type": "address"
        }
      ],
      "name": "getUserAccount",
      "outputs": [
        {
          "components": [
            {
              "internalType": "uint256",
              "name": "depositAmount",
              "type": "uint256"
            },
            {
              "internalType": "uint256",
              "name": "availableAmount",
              "type": "uint256"
            },
            {
              "internalType": "uint256",
              "name": "marginAmount",
              "type": "uint256"
            },
            {
              "internalType": "uint256",
              "name": "orderLocked",
              "type": "uint256"
            },
            {
              "internalType": "uint256",
              "name": "lastTime",
              "type": "uint256"
            }
          ],
          "internalType": "struct IPerpetual.AccountInfo",
          "name": "user",
          "type": "tuple"
        }
      ],
      "stateMutability": "view",
      "type": "function"
    },
    {
      "inputs": [],
      "name": "getUserAddress",
      "outputs": [
        {
          "internalType": "address[]",
          "name": "",
          "type": "address[]"
        }
      ],
      "stateMutability": "view",
      "type": "function"
    },
    {
      "inputs": [
        {
          "internalType": "address",
          "name": "_user",
          "type": "address"
        },
        {
          "internalType": "string",
          "name": "_name",
          "type": "string"
        }
      ],
      "name": "getUserLeverage",
      "outputs": [
        {
          "internalType": "uint256",
          "name": "",
          "type": "uint256"
        }
      ],
      "stateMutability": "view",
      "type": "function"
    },
    {
      "inputs": [
        {
          "internalType": "address",
          "name": "initialOwner",
          "type": "address"
        },
        {
          "internalType": "address",
          "name": "_priPool",
          "type": "address"
        },
        {
          "internalType": "address",
          "name": "_riskFundAddr",
          "type": "address"
        },
        {
          "internalType": "address",
          "name": "_fiatTokenAddr",
          "type": "address"
        },
        {
          "internalType": "address",
          "name": "_tradeFeeAddr",
          "type": "address"
        }
      ],
      "name": "initialize",
      "outputs": [],
      "stateMutability": "nonpayable",
      "type": "function"
    },
    {
      "inputs": [
        {
          "internalType": "uint256[]",
          "name": "_dealIDs",
          "type": "uint256[]"
        },
        {
          "internalType": "string[]",
          "name": "_symbols",
          "type": "string[]"
        },
        {
          "internalType": "bytes[]",
          "name": "_priceUpdate",
          "type": "bytes[]"
        }
      ],
      "name": "liquidateMakerDeals",
      "outputs": [],
      "stateMutability": "payable",
      "type": "function"
    },
    {
      "inputs": [
        {
          "internalType": "address",
          "name": "_taker",
          "type": "address"
        },
        {
          "internalType": "uint256[]",
          "name": "_orders",
          "type": "uint256[]"
        },
        {
          "internalType": "string[]",
          "name": "_symbols",
          "type": "string[]"
        },
        {
          "internalType": "bytes[]",
          "name": "_priceUpdate",
          "type": "bytes[]"
        }
      ],
      "name": "liquidateTaker",
      "outputs": [],
      "stateMutability": "payable",
      "type": "function"
    },
    {
      "inputs": [],
      "name": "owner",
      "outputs": [
        {
          "internalType": "address",
          "name": "",
          "type": "address"
        }
      ],
      "stateMutability": "view",
      "type": "function"
    },
    {
      "inputs": [],
      "name": "renounceOwnership",
      "outputs": [],
      "stateMutability": "nonpayable",
      "type": "function"
    },
    {
      "inputs": [],
      "name": "riskFundAddr",
      "outputs": [
        {
          "internalType": "address",
          "name": "",
          "type": "address"
        }
      ],
      "stateMutability": "view",
      "type": "function"
    },
    {
      "inputs": [
        {
          "internalType": "address",
          "name": "_buyBack",
          "type": "address"
        },
        {
          "internalType": "address",
          "name": "_orderBook",
          "type": "address"
        },
        {
          "internalType": "address",
          "name": "_tradeAgent",
          "type": "address"
        },
        {
          "internalType": "address",
          "name": "_tradeStation",
          "type": "address"
        },
        {
          "internalType": "address",
          "name": "_marketAgent",
          "type": "address"
        }
      ],
      "name": "setKeepers",
      "outputs": [],
      "stateMutability": "nonpayable",
      "type": "function"
    },
    {
      "inputs": [
        {
          "internalType": "address",
          "name": "_addr",
          "type": "address"
        }
      ],
      "name": "setTradeFeeAddr",
      "outputs": [],
      "stateMutability": "nonpayable",
      "type": "function"
    },
    {
      "inputs": [
        {
          "internalType": "string",
          "name": "_name",
          "type": "string"
        },
        {
          "internalType": "address",
          "name": "_underlying",
          "type": "address"
        }
      ],
      "name": "setUnderlying",
      "outputs": [],
      "stateMutability": "nonpayable",
      "type": "function"
    },
    {
      "inputs": [
        {
          "internalType": "string",
          "name": "_name",
          "type": "string"
        },
        {
          "internalType": "uint256",
          "name": "_leverage",
          "type": "uint256"
        }
      ],
      "name": "setUserLeverage",
      "outputs": [],
      "stateMutability": "nonpayable",
      "type": "function"
    },
    {
      "inputs": [
        {
          "internalType": "address",
          "name": "takerAddr",
          "type": "address"
        },
        {
          "internalType": "uint256",
          "name": "tradingFee",
          "type": "uint256"
        }
      ],
      "name": "splitTradeFee",
      "outputs": [],
      "stateMutability": "nonpayable",
      "type": "function"
    },
    {
      "inputs": [
        {
          "internalType": "string",
          "name": "_name",
          "type": "string"
        },
        {
          "internalType": "uint256",
          "name": "_amount",
          "type": "uint256"
        },
        {
          "internalType": "enum ICommon.Direct",
          "name": "_type",
          "type": "uint8"
        },
        {
          "internalType": "enum ICommon.Offset",
          "name": "_offset",
          "type": "uint8"
        },
        {
          "internalType": "uint256",
          "name": "_param1",
          "type": "uint256"
        },
        {
          "internalType": "uint256",
          "name": "_param2",
          "type": "uint256"
        },
        {
          "internalType": "uint256",
          "name": "_param3",
          "type": "uint256"
        },
        {
          "internalType": "uint256",
          "name": "_param4",
          "type": "uint256"
        },
        {
          "internalType": "uint256",
          "name": "_goodTill",
          "type": "uint256"
        },
        {
          "internalType": "uint256",
          "name": "_deadline",
          "type": "uint256"
        }
      ],
      "name": "stopTakeOrder",
      "outputs": [],
      "stateMutability": "payable",
      "type": "function"
    },
    {
      "inputs": [],
      "name": "tradeFeeAddr",
      "outputs": [
        {
          "internalType": "address",
          "name": "",
          "type": "address"
        }
      ],
      "stateMutability": "view",
      "type": "function"
    },
    {
      "inputs": [
        {
          "internalType": "string",
          "name": "_name",
          "type": "string"
        },
        {
          "internalType": "uint256",
          "name": "_amount",
          "type": "uint256"
        },
        {
          "internalType": "uint256",
          "name": "_price",
          "type": "uint256"
        },
        {
          "internalType": "uint256",
          "name": "_orderType",
          "type": "uint256"
        },
        {
          "internalType": "enum ICommon.Direct",
          "name": "_type",
          "type": "uint8"
        },
        {
          "internalType": "address",
          "name": "_inviter",
          "type": "address"
        },
        {
          "internalType": "uint256",
          "name": "_goodTill",
          "type": "uint256"
        },
        {
          "internalType": "uint256",
          "name": "_deadline",
          "type": "uint256"
        },
        {
          "internalType": "bytes",
          "name": "_priceUpdate",
          "type": "bytes"
        }
      ],
      "name": "tradeFutures",
      "outputs": [],
      "stateMutability": "payable",
      "type": "function"
    },
    {
      "inputs": [
        {
          "internalType": "address",
          "name": "newOwner",
          "type": "address"
        }
      ],
      "name": "transferOwnership",
      "outputs": [],
      "stateMutability": "nonpayable",
      "type": "function"
    },
    {
      "inputs": [
        {
          "internalType": "uint256[]",
          "name": "_orderIDs",
          "type": "uint256[]"
        },
        {
          "internalType": "string[]",
          "name": "_symbols",
          "type": "string[]"
        },
        {
          "internalType": "bytes[]",
          "name": "_priceUpdate",
          "type": "bytes[]"
        }
      ],
      "name": "triggerOrders",
      "outputs": [],
      "stateMutability": "payable",
      "type": "function"
    },
    {
      "inputs": [
        {
          "internalType": "address",
          "name": "_taker",
          "type": "address"
        },
        {
          "components": [
            {
              "internalType": "uint256",
              "name": "depositAmount",
              "type": "uint256"
            },
            {
              "internalType": "uint256",
              "name": "availableAmount",
              "type": "uint256"
            },
            {
              "internalType": "uint256",
              "name": "marginAmount",
              "type": "uint256"
            },
            {
              "internalType": "uint256",
              "name": "orderLocked",
              "type": "uint256"
            },
            {
              "internalType": "uint256",
              "name": "lastTime",
              "type": "uint256"
            }
          ],
          "internalType": "struct IPerpetual.AccountInfo",
          "name": "userInfo",
          "type": "tuple"
        }
      ],
      "name": "updateUserAsset",
      "outputs": [],
      "stateMutability": "nonpayable",
      "type": "function"
    },
    {
      "inputs": [
        {
          "internalType": "uint256",
          "name": "_amount",
          "type": "uint256"
        },
        {
          "internalType": "string[]",
          "name": "_symbols",
          "type": "string[]"
        },
        {
          "internalType": "bytes[]",
          "name": "_priceUpdate",
          "type": "bytes[]"
        }
      ],
      "name": "withdraw",
      "outputs": [],
      "stateMutability": "payable",
      "type": "function"
    }
  ],
  "bytecode": "0x60808060405234601a576001600055613cb890816100208239f35b600080fdfe6080604052600436101561001a575b3461001557005b600080fd5b6000803560e01c806305ca57cf146120505780630c418998146120295780631459457a14611c355780632ca4305114611c0e5780632f1cc4d014611a655780633851969e146119ce57806338a13986146118a3578063402d712c1461183157806341cdf4ef1461175c57806346a22704146116a5578063645b3fd014611666578063708b8d86146113ee578063715018a614611355578063879b31e01461127a5780638da5cb5b146112345780639048f2e01461115b5780639aa59c65146110b3578063a40cb4ca14610ec7578063b55fb57414610deb578063b6b55f2514610c43578063c2b0cfcd14610bae578063c8f5ede21461091f578063c9f35c3914610851578063ca2afc4e1461079c578063cd2ce4ae1461067f578063d1937e3d14610641578063e08061b31461061a578063e1fb28b81461059b578063e597868614610454578063ebc3eee81461038c578063f2fde38b1461035f578063f348285b14610338578063f6ef1839146102555763fb47e0161461019c575061000e565b3461025257602060031936011261025257604060a0916001600160a01b036101c2612157565b82608085516101d0816120b7565b82815282602082015282878201528260608201520152168152600b602052206040516101fb816120b7565b81549182825260018101546020830190815260028201549060408401918252608060046003850154946060870195865201549401938452604051948552516020850152516040840152516060830152516080820152f35b80fd5b5034610252576001600160a01b03808080806102703661216d565b9792919361027f9691966136a5565b166001600160a01b0319601154161760115516806001600160a01b031960065416176006558752600a60205260408720600160ff1982541617905516806001600160a01b031960075416176007558552600a60205260408520600160ff1982541617905516806001600160a01b031960095416176009558352600a60205260408320600160ff1982541617905516806001600160a01b031960085416176008558152600a60205260408120600160ff1982541617905580f35b503461025257806003193601126102525760206001600160a01b0360125416604051908152f35b50346102525760206003193601126102525761038961037c612157565b6103846136a5565b61313f565b80f35b5034610252578060031936011261025257604051806020600f5491828152018091600f85527f8d1108e10bcb7c27dddfc02ed9d693a074039d026cf4ea4240b40f7d581ac80290855b81811061043557505050826103eb9103836120d3565b604051928392602084019060208552518091526040840192915b818110610413575050500390f35b82516001600160a01b0316845285945060209384019390920191600101610405565b82546001600160a01b03168452602090930192600192830192016103d5565b50610100600319360112610252578060043567ffffffffffffffff811161059857610483903690600401612112565b604435906084359060643560038310156105945760e43567ffffffffffffffff8111610590576104b7903690600401612112565b906104c061344b565b6104ce4260c4351015612507565b34818661057b575050506104e29082613aec565b9184905b6001600160a01b036009541691823b1561057757869461054082604051988997889687957f274889e1000000000000000000000000000000000000000000000000000000008752339360a435936024359060048a01612ce3565b03925af1801561056c57610557575b506001905580f35b81610561916120d3565b61025257803861054f565b6040513d84823e3d90fd5b8680fd5b61058b9193509491941515612c98565b6104e6565b8580fd5b8480fd5b50fd5b5034610252576040600319360112610252576105b5612157565b60243567ffffffffffffffff81116106165760406020936001600160a01b036105e56105f4943690600401612112565b94168152600d85522082612476565b54908115610606575b50604051908152f35b610610915061322e565b386105fd565b8280fd5b503461025257806003193601126102525760206001600160a01b0360135416604051908152f35b50346102525760406003193601126102525761038961065e612157565b338352600a60205261067660ff604085205416612d37565b60243590612d82565b5034610252578060031936011261025257600e5461069c816121df565b906106aa60405192836120d3565b808252600e83527fbb7b4a454dc3493923482f07822329ed19e8244eff582cc204f8554c3620c3fd9280602084015b8383106106fa57604051602080825281906106f69082018861241d565b0390f35b60405182875461070981612578565b80845290600181169081156107795750600114610743575b5060019282610735859460209403826120d3565b8152019601920191946106d9565b888552602085208592505b81831061076357505081016020016001610721565b600181602092548386880101520192019161074e565b60ff191660208581019190915291151560051b8401909101915060019050610721565b5034610252576107f69060206107b136612373565b91906001600160a01b036007541691604051968794859384937fca2afc4e00000000000000000000000000000000000000000000000000000000855260048501612816565b03915afa9081156108455790610812575b602090604051908152f35b506020813d60201161083d575b8161082c602093836120d3565b810103126100155760209051610807565b3d915061081f565b604051903d90823e3d90fd5b50346102525760c06003193601126102525761086b612157565b60a07fffffffffffffffffffffffffffffffffffffffffffffffffffffffffffffffdc36011261091b576004604051916108a4836120b7565b6024358352602083016044358152604084016064358152606085019160843583526001600160a01b03608087019460a4358652338952600a6020526108ef60ff60408b205416612d37565b428652168752600b60205260408720955186555160018601555160028501555160038401555191015580f35b5080fd5b50610120600319360112610252578060043567ffffffffffffffff81116105985761094e903690600401612112565b608435906064359060443560038410156105945760a4356001600160a01b038116809103610590576101043567ffffffffffffffff811161057757610997903690600401612112565b916109a061344b565b6109ae4260e4351015612507565b80916001600160a01b03600854169081151580610ba5575b80610b02575b610a5e575b505034908515600014610a49575050506109eb9082613aec565b9284905b6001600160a01b036009541691823b1561057757869461054082604051988997889687957fdcac2e88000000000000000000000000000000000000000000000000000000008752339360c435936024359060048a01612ce3565b610a599193509591951515612c98565b6109ef565b60409060a46001600160a01b03601054168b845195869485937fcecf78d0000000000000000000000000000000000000000000000000000000008552806004860152602485015260448401523360648401528160848401525af18015610af757610ac9575b806109d1565b610aea9060403d604011610af0575b610ae281836120d3565b810190612c81565b50610ac3565b503d610ad8565b6040513d8a823e3d90fd5b506040517f147df887000000000000000000000000000000000000000000000000000000008152336004820152602081602481865afa8015610b9a578a90610b56575b6001600160a01b03915016156109cc565b506020813d602011610b92575b81610b70602093836120d3565b81010312610b8e57610b896001600160a01b0391612c6d565b610b45565b8980fd5b3d9150610b63565b6040513d8c823e3d90fd5b508015156109c6565b50608060031936011261025257610bc3612157565b60243567ffffffffffffffff811161061657610be39036906004016121f7565b60443567ffffffffffffffff8111610c3f57610c03903690600401612254565b916064359267ffffffffffffffff841161059457610c28610c389436906004016122d3565b939092610c3361344b565b612866565b6001815580f35b8380fd5b5034610252576020600319360112610252576004356002548110610da757610c9590610c87610c713061383d565b916001600160a01b036010541630903390613970565b610c903061383d565b61266a565b338252600b602052600460408320610cac33612677565b610cb783825461265d565b815560018101610cc884825461265d565b905501805415610d2f575b50610cdd33612738565b604051906001825260208201524260408201527f3d1da8320fcddb1c370f0c5ec1c37483e5301a7c02bd7478d62c7514643ceb1d60603392a280f35b634e487b7160e01b600052602160045260246000fd5b429055600f5468010000000000000000811015610d935760018101600f55600f54811015610d7f57600f8352602083200180548360031b906001600160a01b0333831b921b191617905538610cd3565b602483634e487b7160e01b81526032600452fd5b602483634e487b7160e01b81526041600452fd5b606460405162461bcd60e51b815260206004820152601860248201527f6465706f73697420616d6f756e7420746f6f20736d616c6c00000000000000006044820152fd5b50346102525760206003193601126102525760043567ffffffffffffffff811161091b57610e1d9036906004016121f7565b81805b8251811015610ec3576001600160a01b0360075416610e3f828561283c565b51813b15610c3f5783916064839260405194859384927fc2b3356400000000000000000000000000000000000000000000000000000000845260048401523360248401528160448401525af1908115610eb8578391610ea3575b5050600101610e20565b81610ead916120d3565b61091b578138610e99565b6040513d85823e3d90fd5b5080f35b5060606003193601126102525760043560243567ffffffffffffffff811161061657610ef7903690600401612254565b60443567ffffffffffffffff8111610c3f57610f79610f1c60409236906004016122d3565b929093338752600b60205281872094610f4388956001600160a01b03600754169284613486565b9183518095819482937f9aa59c650000000000000000000000000000000000000000000000000000000084523360048501612816565b03915afa9081156110a85785908692611076575b501561106e575b50610f9e33612677565b6001820191610faf8354928561265d565b821061102a57610fcd9181610fc68680945461266a565b905561266a565b9055610fe581336001600160a01b0360105416613706565b610fee33612738565b604051906002825260208201524260408201527f3d1da8320fcddb1c370f0c5ec1c37483e5301a7c02bd7478d62c7514643ceb1d60603392a280f35b606460405162461bcd60e51b815260206004820152601960248201527f776974686472657720616d6f756e7420746f6f206c61726765000000000000006044820152fd5b905038610f94565b905061109a915060403d6040116110a1575b61109281836120d3565b8101906127f9565b9038610f8d565b503d611088565b6040513d87823e3d90fd5b50346102525761110c9060406110c836612373565b91906001600160a01b0360075416918451968794859384937f9aa59c6500000000000000000000000000000000000000000000000000000000855260048501612816565b03915afa801561114e57604092829161112f575b50825191151582526020820152f35b90506111489150823d84116110a15761109281836120d3565b38611120565b50604051903d90823e3d90fd5b5034610252576040600319360112610252577f978f5a06b7f22ed0a8d1bfc4c6d9d44b320a6f206eb9dde65c1de4dc27f48cc060e06001600160a01b036111a0612157565b16808452600b60205260408420600181015460028201546111c1818361265d565b916111d16003850154809461265d565b93549380851115611213576111e6908561266a565b935b604051958652602086015260408501526060840152608083015260243560a083015260c0820152a180f35b848181101561122b576112259161266a565b936111e8565b505087936111e8565b503461025257806003193601126102525760206001600160a01b037f9016d09d72d40fdae2fd8ceac6b6234c7706214fd39c1cd1e609a0528c1993005416604051908152f35b503461025257608061128b36612373565b92916001600160a01b0381168552600b6020526112be6112b56002604088200154600354906125b2565b600154906125db565b6001600160a01b036007541691611304604051968795869485947fdaacb51d00000000000000000000000000000000000000000000000000000000865260048601612624565b03915afa90811561056c5760209291611323575b506040519015158152f35b611345915060803d60801161134e575b61133d81836120d3565b8101906125fb565b50505038611318565b503d611333565b503461025257806003193601126102525761136e6136a5565b806001600160a01b037f9016d09d72d40fdae2fd8ceac6b6234c7706214fd39c1cd1e609a0528c199300546001600160a01b031981167f9016d09d72d40fdae2fd8ceac6b6234c7706214fd39c1cd1e609a0528c19930055167f8be0079c531659141344cd1fd0a4f28419497f9722a3daafe3b4186f6b6457e08280a380f35b50346102525760406003193601126102525760043567ffffffffffffffff811161091b57611420903690600401612112565b602435906001600160a01b0382168092036106165761143d6136a5565b604051906001600160a01b038151926020818185019561145e8183896123d5565b8101600c8152030190205416156114a5575b611488916020916040519384928392519283916123d5565b8101600c815203019020906001600160a01b031982541617905580f35b600e54680100000000000000008110156116525760018101600e55600e5481101561163e57600e85527fbb7b4a454dc3493923482f07822329ed19e8244eff582cc204f8554c3620c3fd018461162b57815167ffffffffffffffff8111611615576115108254612578565b601f81116115cd575b506020601f8211600114611561579181602094926114889694600091611556575b506000198260011b9260031b1c19161790555b91509150611470565b90508301513861153a565b601f1982169083600052806000209160005b8181106115b557509261148896949260019282602098961061159c575b5050811b01905561154d565b85015160001960f88460031b161c191690553880611590565b9192602060018192868a015181550194019201611573565b826000526020600020601f830160051c8101916020841061160b575b601f0160051c01905b8181106115ff5750611519565b600081556001016115f2565b90915081906115e9565b634e487b7160e01b600052604160045260246000fd5b602485634e487b7160e01b815280600452fd5b602485634e487b7160e01b81526032600452fd5b602485634e487b7160e01b81526041600452fd5b5034610252576020600319360112610252576001600160a01b03611688612157565b6116906136a5565b166001600160a01b0319601354161760135580f35b50346102525760406003193601126102525760449060206001600160a01b0360075416604051938480927f46a22704000000000000000000000000000000000000000000000000000000008252600435600483015260243560248301525afa90811561084557809161171f575b6020826040519015158152f35b90506020823d602011611754575b8161173a602093836120d3565b81010312610252575061174e60209161256b565b38611712565b3d915061172d565b503461025257608060031936011261025257611776612157565b60243567ffffffffffffffff811161061657611796903690600401612112565b90606435906003821015610c3f57916020916001600160a01b036117ff9594816007541692604051978895869485947f41cdf4ef0000000000000000000000000000000000000000000000000000000086521660048501526080602485015260848401906123f8565b90604435604484015261181181612552565b606483015203915afa908115610845579061081257602090604051908152f35b508061185e61183f36612304565b61184b9491929461344b565b6001600160a01b03600954169285613486565b90803b156105945761054093858094604051968795869485937fbcef60d7000000000000000000000000000000000000000000000000000000008552600485016124d0565b50610140600319360112610252578060043567ffffffffffffffff8111610598576118d2903690600401612112565b6044359060038210156119ca5760643560038110156119c8576118f361344b565b61190242610124351015612507565b6001600160a01b0360095416803b156105945761195a8593604051958694859384937feff6d7c300000000000000000000000000000000000000000000000000000000855261014060048601526101448501906123f8565b91602435602485015261196c81612552565b604484015261197a81612552565b6064830152608435608483015260a43560a483015260c43560c483015260e43560e48301526101043561010483015233610124830152039134905af1801561056c5761055757506001905580f35b505b5050fd5b506119fb816119dc36612304565b6119e89591929561344b565b6001600160a01b03600754169286613486565b90803b15610c3f57611a4094848094604051978895869485937feb4f2e36000000000000000000000000000000000000000000000000000000008552600485016124d0565b03925af1801561114e57611a55576001815580f35b611a5e916120d3565b3881610c38565b50346102525760406003193601126102525760043567ffffffffffffffff811161091b57611a97903690600401612112565b60243590338352600b6020526040832060405190611ab4826120b7565b80548252600181015460208301526080600282015492604081019384526004600384015493606083019485520154918291015215611bca57611af58361322e565b8415159081611bbf575b5015611b7b5751159081611b71575b5015611b2d57338352600d60205260408320611b2991612476565b5580f35b606460405162461bcd60e51b815260206004820152600960248201527f68617320617373657400000000000000000000000000000000000000000000006044820152fd5b9050511538611b0e565b606460405162461bcd60e51b815260206004820152601560248201527f6c65766572616765206f7574206f6620312d31303000000000000000000000006044820152fd5b905084111538611aff565b606460405162461bcd60e51b815260206004820152601260248201527f75736572206973206e6f742065786973747300000000000000000000000000006044820152fd5b503461025257806003193601126102525760206001600160a01b0360105416604051908152f35b503461025257611c443661216d565b7ff0c57e16840df040f15088dc2f81fe391c3923bec73e23a9662efc9c229c6a0094929194549360ff8560401c16159467ffffffffffffffff811680159081612021575b6001149081612017575b15908161200e575b50611fe657916001600160a01b0380949392838860017fffffffffffffffffffffffffffffffffffffffffffffffff0000000000000000859716177ff0c57e16840df040f15088dc2f81fe391c3923bec73e23a9662efc9c229c6a0055611f91575b50611d05613ba7565b611d0d613ba7565b611d163361313f565b611d1e6136a5565b611d278761313f565b16806001600160a01b031960055416176005558852600a60205260408820600160ff19825416179055166001600160a01b03196013541617601355166001600160a01b031960125416176012556001600160a01b0383166001600160a01b0319601054161760105583806001600160a01b036005541694604095827fffffffff00000000000000000000000000000000000000000000000000000000601860208a51611dd38c826120d3565b828152017f617070726f766528616464726573732c75696e743235362900000000000000008152201691885190602082019384526024820152600019604482015260448152611e236064826120d3565b51925af1611e2f6131fe565b81611f5a575b5015610c3f576001600160a01b0390308552600a602052838520600160ff19825416179055168352600a602052818320600160ff19825416179055670de0b6b3a764000060015566038d7ea4c6800060025567016345785d8a0000600355826004557fffffffffffffffffffffff00ffffffffffffffffffffffffffffffffffffffff60095416600955611ec7575080f35b60207fc7f505b2f371ae2175ee4913f4499e1f2633a7b5936321eed1cdaeb6115181d2917fffffffffffffffffffffffffffffffffffffffffffffff00ffffffffffffffff7ff0c57e16840df040f15088dc2f81fe391c3923bec73e23a9662efc9c229c6a0054167ff0c57e16840df040f15088dc2f81fe391c3923bec73e23a9662efc9c229c6a00555160018152a180f35b8051801592508215611f6f575b505038611e35565b8192509060209181010312610594576020611f8a910161256b565b3880611f67565b7fffffffffffffffffffffffffffffffffffffffffffffff0000000000000000001668010000000000000001177ff0c57e16840df040f15088dc2f81fe391c3923bec73e23a9662efc9c229c6a005538611cfc565b6004887ff92ee8a9000000000000000000000000000000000000000000000000000000008152fd5b90501538611c9a565b303b159150611c92565b879150611c88565b503461025257806003193601126102525760206001600160a01b0360115416604051908152f35b5034610252576020600319360112610252576004359067ffffffffffffffff82116102525760206001600160a01b036120a3826120903660048801612112565b81604051938285809451938492016123d5565b8101600c8152030190205416604051908152f35b60a0810190811067ffffffffffffffff82111761161557604052565b90601f601f19910116810190811067ffffffffffffffff82111761161557604052565b67ffffffffffffffff811161161557601f01601f191660200190565b81601f820112156100155760208135910161212c826120f6565b9261213a60405194856120d3565b828452828201116100155781600092602092838601378301015290565b600435906001600160a01b038216820361001557565b60031960a0910112610015576004356001600160a01b038116810361001557906024356001600160a01b038116810361001557906044356001600160a01b038116810361001557906064356001600160a01b038116810361001557906084356001600160a01b03811681036100155790565b67ffffffffffffffff81116116155760051b60200190565b9080601f8301121561001557813561220e816121df565b9261221c60405194856120d3565b81845260208085019260051b82010192831161001557602001905b8282106122445750505090565b8135815260209182019101612237565b9080601f8301121561001557813561226b816121df565b9261227960405194856120d3565b81845260208085019260051b820101918383116100155760208201905b8382106122a557505050505090565b813567ffffffffffffffff8111610015576020916122c887848094880101612112565b815201910190612296565b9181601f840112156100155782359167ffffffffffffffff8311610015576020808501948460051b01011161001557565b60606003198201126100155760043567ffffffffffffffff8111610015578161232f916004016121f7565b9160243567ffffffffffffffff8111610015578261234f91600401612254565b916044359067ffffffffffffffff82116100155761236f916004016122d3565b9091565b6060600319820112610015576004356001600160a01b0381168103610015579160243567ffffffffffffffff811161001557826123b291600401612254565b916044359067ffffffffffffffff8211610015576123d2916004016121f7565b90565b60005b8381106123e85750506000910152565b81810151838201526020016123d8565b90601f19601f602093612416815180928187528780880191016123d5565b0116010190565b9080602083519182815201916020808360051b8301019401926000915b83831061244957505050505090565b909192939460208061246783601f19866001960301875289516123f8565b9701930193019193929061243a565b6020906124909282604051948386809551938492016123d5565b82019081520301902090565b906020808351928381520192019060005b8181106124ba5750505090565b82518452602093840193909201916001016124ad565b916124f9906124eb6123d2959360608652606086019061249c565b90848203602086015261241d565b91604081840391015261249c565b1561250e57565b606460405162461bcd60e51b815260206004820152600760248201527f65787069726564000000000000000000000000000000000000000000000000006044820152fd5b60031115610d1957565b90816020910312610015575190565b5190811515820361001557565b90600182811c921680156125a8575b602083101461259257565b634e487b7160e01b600052602260045260246000fd5b91607f1691612587565b818102929181159184041417156125c557565b634e487b7160e01b600052601160045260246000fd5b81156125e5570490565b634e487b7160e01b600052601260045260246000fd5b9190826080910312610015576126108261256b565b916020810151916060604083015192015190565b926123d294926001600160a01b0361264f93168552602085015260806040850152608084019061241d565b91606081840391015261249c565b919082018092116125c557565b919082039182116125c557565b60e06001600160a01b037f978f5a06b7f22ed0a8d1bfc4c6d9d44b320a6f206eb9dde65c1de4dc27f48cc0921680600052600b6020526040600020600181015460028201546126c6818361265d565b916126d66003850154809461265d565b93549380851115612716576126eb908561266a565b935b6040519586526020860152604085015260608401526080830152600060a083015260c0820152a1565b848181101561272e576127289161266a565b936126ed565b50506000936126ed565b60e06001600160a01b037f978f5a06b7f22ed0a8d1bfc4c6d9d44b320a6f206eb9dde65c1de4dc27f48cc0921680600052600b602052604060002060018101546002820154612787818361265d565b916127976003850154809461265d565b935493808511156127d7576127ac908561266a565b935b6040519586526020860152604085015260608401526080830152600a60a083015260c0820152a1565b84818110156127ef576127e99161266a565b936127ae565b50506000936127ae565b91908260409103126100155760206128108361256b565b92015190565b916124f9906001600160a01b036123d2959316845260606020850152606084019061241d565b80518210156128505760209160051b010190565b634e487b7160e01b600052603260045260246000fd5b90949391926001600160a01b0382169384600052600b60205261288d604060002054613ad3565b938415612c635760806128ce612915926128a687612677565b88600052600b6020526128c76112b5600260406000200154600354906125b2565b9585613486565b8094846001600160a01b036007541691604051958694859384937fdaacb51d0000000000000000000000000000000000000000000000000000000085528c60048601612624565b03915afa908115612a8e57600091612c41575b50612937575b50505050509050565b60209061294e6001600160a01b036012541661383d565b936001600160a01b0360095416906000612968878961265d565b916129a2604051978896879586947f7295751b00000000000000000000000000000000000000000000000000000000865260048601612624565b03925af1908115612a8e57600091612c0f575b50808203612ad55750506129e1906001600160a01b03601054166001600160a01b036005541690613706565b60005b8351811015612a9a5760009060206001600160a01b03600654166064612a0a848961283c565b5160405195869384927fc2b335640000000000000000000000000000000000000000000000000000000084526004840152886024840152600160448401525af1918215612a8e57600192612a60575b50016129e4565b612a809060203d8111612a87575b612a7881836120d3565b81019061255c565b5038612a59565b503d612a6e565b6040513d6000823e3d90fd5b50909150600052600b60205260406000206000600182015560008155600060028201556000600382015560044291015580388080808061292e565b81811115612b7457610c90612b3693612b0f6001600160a01b03601054166001600160a01b0360125416612b09878761266a565b91613706565b6001600160a01b036010541690612b0984610c90876001600160a01b03600554169461265d565b604051606081849360087f3d1da8320fcddb1c370f0c5ec1c37483e5301a7c02bd7478d62c7514643ceb1d94526020820152426040820152a26129e1565b90610c90612bd193612baa6001600160a01b03601054166001600160a01b036012541690612ba2878761266a565b913091613970565b6001600160a01b036010541690612b0985610c90866001600160a01b03600554169461265d565b604051606081849360097f3d1da8320fcddb1c370f0c5ec1c37483e5301a7c02bd7478d62c7514643ceb1d94526020820152426040820152a26129e1565b906020823d602011612c39575b81612c29602093836120d3565b81010312610252575051386129b5565b3d9150612c1c565b612c5a915060803d60801161134e5761133d81836120d3565b50505038612928565b5050505050509050565b51906001600160a01b038216820361001557565b919082604091031261001557602061281083612c6d565b15612c9f57565b606460405162461bcd60e51b815260206004820152600d60248201527f7072696365206973207a65726f000000000000000000000000000000000000006044820152fd5b94909360e0969299989793612d0a6001600160a01b039661010089526101008901906123f8565b9a602088015260408701526060860152612d2381612552565b608085015260a08401521660c08201520152565b15612d3e57565b606460405162461bcd60e51b815260206004820152601e60248201527f63616c6c6572206973206e6f742070657270657475616c206b656570657200006044820152fd5b90801561313b57612d986112b5600454836125b2565b60009081926001600160a01b03600854168061308b575b508360ff60095460a01c168061307a575b80613071575b613060575b506001600160a01b03601154168291809382151580613058575b8061304f575b612fc1575b505050509180836001600160a01b0384169283151580612fb8575b80612faf575b612f19575b50505050506001600160a01b036013541690809180151580612f10575b80612f07575b612e8d575b50509081612e4a575050565b6001600160a01b031680600052600b6020526040600020612e6c83825461265d565b9055600052600b602052612e89600160406000200191825461265d565b9055565b909150612e9a828061266a565b91612eb181836001600160a01b0360105416613706565b6040516001600160a01b038516815260208101929092528160a091600360407fb941ac817f7372254f8b361eba8c11916dc5b2d11042579bb054d79246bb89319501526060820152426080820152a13880612e3e565b50811515612e39565b50811515612e33565b93945091929091908110612fa15781612f3581612f489361266a565b945b6001600160a01b0360105416613706565b6040516001600160a01b038516815260208101929092528160a091600c60407fb941ac817f7372254f8b361eba8c11916dc5b2d11042579bb054d79246bb89319501526060820152426080820152a13880808080612e16565b9050612f4881600094612f37565b50801515612e11565b50811515612e0b565b929350909181106130465782612fd69161266a565b915b612fee81836001600160a01b0360105416613706565b6040516001600160a01b038716815260208101929092528160a091600b60407fb941ac817f7372254f8b361eba8c11916dc5b2d11042579bb054d79246bb89319501526060820152426080820152a138808080612df0565b60009250612fd8565b50801515612deb565b506001612de5565b61306a919261265d565b9083612dcb565b50801515612dc6565b506001600160a01b03841615612dc0565b83945060409060a46001600160a01b0360109694965416835194859384927fcecf78d000000000000000000000000000000000000000000000000000000000845280600485015260248401528160448401526001600160a01b038b1660648401528860848401525af190811561313057849161310b575b50929138612daf565b905061312791935060403d604011610af057610ae281836120d3565b92909238613102565b6040513d86823e3d90fd5b5050565b6001600160a01b031680156131cf576001600160a01b037f9016d09d72d40fdae2fd8ceac6b6234c7706214fd39c1cd1e609a0528c19930054826001600160a01b03198216177f9016d09d72d40fdae2fd8ceac6b6234c7706214fd39c1cd1e609a0528c19930055167f8be0079c531659141344cd1fd0a4f28419497f9722a3daafe3b4186f6b6457e0600080a3565b7f1e4fbdf700000000000000000000000000000000000000000000000000000000600052600060045260246000fd5b3d15613229573d9061320f826120f6565b9161321d60405193846120d3565b82523d6000602084013e565b606090565b61324f60206001600160a01b039281604051938285809451938492016123d5565b8101600c815203019020541680613267575b50606490565b6000602491604051928380927fa666200f0000000000000000000000000000000000000000000000000000000082523060048301525afa908115612a8e576000916132b8575b506101600151613261565b3d8083833e6132c781836120d3565b8101906020818303126106165780519067ffffffffffffffff8211610c3f5701906101e08282031261061657604051926101e0840184811067ffffffffffffffff82111761343757604052825167ffffffffffffffff811161091b57830182601f8201121561091b5780519161333c836120f6565b9361334a60405195866120d3565b838552602084840101116102525750916133736101609594926101c094602080850191016123d5565b83526020810151602084015261338b60408201612c6d565b604084015261339c60608201612c6d565b60608401526133ad60808201612c6d565b60808401526133be60a08201612c6d565b60a08401526133cf60c08201612c6d565b60c08401526133e060e08201612c6d565b60e084015261010081015161010084015261012081015161012084015261014081015161014084015283810151848401526101808101516101808401526101a08101516101a084015201516101c0820152906132ad565b602482634e487b7160e01b81526041600452fd5b60026000541461345c576002600055565b7f3ee5aeb50000000000000000000000000000000000000000000000000000000060005260046000fd5b90929192838251036136615761349d8251346125db565b90825180156125e5573406936134b2866121df565b936134c060405195866120d3565b868552601f196134cf886121df565b01366020870137849560005b8251808210156136555760001981019081116125c5578114613644575b6001600160a01b03613523602061350f848761283c565b5181604051938285809451938492016123d5565b8101600c815203019020541689821015612850578160051b8601357fffffffffffffffffffffffffffffffffffffffffffffffffffffffffffffffe18736030181121561001557860180359067ffffffffffffffff82116100155760200190803603821361001557601f92818a6064602095601f19604051988997889687947fb3d316c100000000000000000000000000000000000000000000000000000000865260406004870152816044870152868601376000858286010152306024850152011681010301925af1908115612a8e57600091613612575b509060019161360b828a61283c565b52016134db565b906020823d821161363c575b8161362b602093836120d3565b8101031261025257505160016135fc565b3d915061361e565b948161364f9161265d565b946134f8565b50505050939450505050565b606460405162461bcd60e51b815260206004820152602060248201527f496e636f6e73697374656e74207072696365206172726179206c656e677468736044820152fd5b6001600160a01b037f9016d09d72d40fdae2fd8ceac6b6234c7706214fd39c1cd1e609a0528c199300541633036136d857565b7f118cdaa7000000000000000000000000000000000000000000000000000000006000523360045260246000fd5b916137119083613c00565b9182151580613804575b61372457505050565b6000928380936040926001600160a01b037fffffffff0000000000000000000000000000000000000000000000000000000060196020875161376689826120d3565b828152017f7472616e7366657228616464726573732c75696e74323536290000000000000081522016945192602084019586521660248301526044820152604481526137b36064826120d3565b51925af16137bf6131fe565b816137cd575b501561001557565b80518015925082156137e2575b5050386137c5565b81925090602091810103126100155760206137fd910161256b565b38806137da565b506001600160a01b038216151561371b565b90816020910312610015575160ff811681036100155790565b604d81116125c557600a0a90565b6001600160a01b036010541690604051907f313ce567000000000000000000000000000000000000000000000000000000008252602082600481865afa918215612a8e57600092613932575b506001600160a01b03602460209260405195869384927f70a082310000000000000000000000000000000000000000000000000000000084521660048301525afa918215612a8e576000926138fc575b506138f660ff6138ef6123d294600154906125b2565b921661382f565b906125db565b91506020823d60201161392a575b81613917602093836120d3565b81010312610015579051906138f66138d9565b3d915061390a565b602091925060246139606001600160a01b0392843d8611613969575b61395881836120d3565b810190613816565b93925050613889565b503d61394e565b90919261397d9082613c00565b9283151580613ac1575b80613aaf575b613998575b50505050565b600080949381946001600160a01b037fffffffff0000000000000000000000000000000000000000000000000000000060256040516139d86060826120d3565b8181527f7432353629000000000000000000000000000000000000000000000000000000604060208301927f7472616e7366657246726f6d28616464726573732c616464726573732c75696e84520152201694816040519460208601978852166024850152166044830152606482015260648152613a576084826120d3565b51925af1613a636131fe565b81613a78575b50156100155738808080613992565b8051801592508215613a8d575b505038613a69565b8192509060209181010312610015576020613aa8910161256b565b3880613a85565b506001600160a01b038116151561398d565b506001600160a01b0383161515613987565b613adc3061383d565b808211613ae7575090565b905090565b613b5a916001600160a01b03613b126020809481604051938285809451938492016123d5565b8101600c815203019020541660405180809581947fb3d316c10000000000000000000000000000000000000000000000000000000083526040600484015260448301906123f8565b306024830152039134905af1908115612a8e57600091613b78575090565b90506020813d602011613b9f575b81613b93602093836120d3565b81010312610015575190565b3d9150613b86565b60ff7ff0c57e16840df040f15088dc2f81fe391c3923bec73e23a9662efc9c229c6a005460401c1615613bd657565b7fd7e6bcf80000000000000000000000000000000000000000000000000000000060005260046000fd5b60206001600160a01b03916004604051809481937f313ce567000000000000000000000000000000000000000000000000000000008352165afa918215612a8e57613c5d60ff6123d2946112b594600091613c63575b501661382f565b906125b2565b613c7c915060203d6020116139695761395881836120d3565b38613c5656fea264697066735822122011466baef54a645d4db1a878694b98b8bf0de24fc06328bda711cdadcc8bdd5e64736f6c634300081c0033",
  "linkReferences": {},
  "deployedLinkReferences": {}
}