{
  "_format": "hh-sol-artifact-1",
  "contractName": "Perpetual",
  "sourceName": "contracts/Perpetual.sol",
  "abi": [
    {
      "inputs": [],
      "name": "InvalidInitialization",
      "type": "error"
    },
    {
      "inputs": [],
      "name": "NotInitializing",
      "type": "error"
    },
    {
      "inputs": [
        {
          "internalType": "address",
          "name": "owner",
          "type": "address"
        }
      ],
      "name": "OwnableInvalidOwner",
      "type": "error"
    },
    {
      "inputs": [
        {
          "internalType": "address",
          "name": "account",
          "type": "address"
        }
      ],
      "name": "OwnableUnauthorizedAccount",
      "type": "error"
    },
    {
      "inputs": [],
      "name": "ReentrancyGuardReentrantCall",
      "type": "error"
    },
    {
      "anonymous": false,
      "inputs": [
        {
          "indexed": false,
          "internalType": "address",
          "name": "taker",
          "type": "address"
        },
        {
          "indexed": false,
          "internalType": "uint256",
          "name": "amount",
          "type": "uint256"
        },
        {
          "indexed": false,
          "internalType": "uint256",
          "name": "availableAmount",
          "type": "uint256"
        },
        {
          "indexed": false,
          "internalType": "uint256",
          "name": "marginAmount",
          "type": "uint256"
        },
        {
          "indexed": false,
          "internalType": "uint256",
          "name": "locked",
          "type": "uint256"
        },
        {
          "indexed": false,
          "internalType": "uint256",
          "name": "stage",
          "type": "uint256"
        },
        {
          "indexed": false,
          "internalType": "uint256",
          "name": "dif",
          "type": "uint256"
        }
      ],
      "name": "BalanceOfTaker",
      "type": "event"
    },
    {
      "anonymous": false,
      "inputs": [
        {
          "indexed": false,
          "internalType": "string",
          "name": "name",
          "type": "string"
        },
        {
          "indexed": true,
          "internalType": "address",
          "name": "taker",
          "type": "address"
        },
        {
          "indexed": true,
          "internalType": "address",
          "name": "token",
          "type": "address"
        },
        {
          "indexed": false,
          "internalType": "uint256",
          "name": "orderID",
          "type": "uint256"
        },
        {
          "indexed": false,
          "internalType": "enum ICommon.Direct",
          "name": "orderType",
          "type": "uint8"
        },
        {
          "indexed": false,
          "internalType": "enum IPerpetual.OrderState",
          "name": "state",
          "type": "uint8"
        },
        {
          "indexed": false,
          "internalType": "enum ICommon.Offset",
          "name": "offset",
          "type": "uint8"
        },
        {
          "indexed": false,
          "internalType": "uint256",
          "name": "amount",
          "type": "uint256"
        },
        {
          "indexed": false,
          "internalType": "uint256",
          "name": "targetPrice",
          "type": "uint256"
        },
        {
          "indexed": false,
          "internalType": "uint256",
          "name": "margin",
          "type": "uint256"
        },
        {
          "indexed": false,
          "internalType": "uint256",
          "name": "rewardGas",
          "type": "uint256"
        },
        {
          "indexed": false,
          "internalType": "uint256",
          "name": "tradingFee",
          "type": "uint256"
        },
        {
          "indexed": false,
          "internalType": "uint256",
          "name": "startTime",
          "type": "uint256"
        },
        {
          "indexed": false,
          "internalType": "uint256",
          "name": "goodTill",
          "type": "uint256"
        }
      ],
      "name": "CreateLimitedOrder",
      "type": "event"
    },
    {
      "anonymous": false,
      "inputs": [
        {
          "indexed": false,
          "internalType": "uint256",
          "name": "limitOrderID",
          "type": "uint256"
        },
        {
          "indexed": false,
          "internalType": "uint256",
          "name": "openLimitPrice",
          "type": "uint256"
        },
        {
          "indexed": false,
          "internalType": "uint256",
          "name": "gainTriggerPrice",
          "type": "uint256"
        },
        {
          "indexed": false,
          "internalType": "uint256",
          "name": "gainLimitPrice",
          "type": "uint256"
        },
        {
          "indexed": false,
          "internalType": "uint256",
          "name": "lossTriggerPrice",
          "type": "uint256"
        },
        {
          "indexed": false,
          "internalType": "uint256",
          "name": "lossLimitPrice",
          "type": "uint256"
        }
      ],
      "name": "CreateTriggerCondition",
      "type": "event"
    },
    {
      "anonymous": false,
      "inputs": [
        {
          "indexed": false,
          "internalType": "uint256",
          "name": "code",
          "type": "uint256"
        },
        {
          "indexed": false,
          "internalType": "uint256",
          "name": "orderID",
          "type": "uint256"
        },
        {
          "indexed": false,
          "internalType": "string",
          "name": "message",
          "type": "string"
        }
      ],
      "name": "ErrorInfo",
      "type": "event"
    },
    {
      "anonymous": false,
      "inputs": [
        {
          "indexed": false,
          "internalType": "uint256",
          "name": "code",
          "type": "uint256"
        },
        {
          "indexed": false,
          "internalType": "uint256",
          "name": "orderID",
          "type": "uint256"
        },
        {
          "indexed": false,
          "internalType": "bytes",
          "name": "message",
          "type": "bytes"
        }
      ],
      "name": "ExceptErrorInfo",
      "type": "event"
    },
    {
      "anonymous": false,
      "inputs": [
        {
          "indexed": false,
          "internalType": "uint64",
          "name": "version",
          "type": "uint64"
        }
      ],
      "name": "Initialized",
      "type": "event"
    },
    {
      "anonymous": false,
      "inputs": [
        {
          "indexed": false,
          "internalType": "string",
          "name": "name",
          "type": "string"
        },
        {
          "indexed": true,
          "internalType": "address",
          "name": "taker",
          "type": "address"
        },
        {
          "indexed": true,
          "internalType": "address",
          "name": "token",
          "type": "address"
        },
        {
          "indexed": false,
          "internalType": "uint256",
          "name": "orderID",
          "type": "uint256"
        },
        {
          "indexed": false,
          "internalType": "enum ICommon.Direct",
          "name": "orderType",
          "type": "uint8"
        },
        {
          "indexed": false,
          "internalType": "enum IPerpetual.OrderState",
          "name": "state",
          "type": "uint8"
        },
        {
          "indexed": false,
          "internalType": "enum ICommon.Offset",
          "name": "offset",
          "type": "uint8"
        },
        {
          "indexed": false,
          "internalType": "uint256",
          "name": "amount",
          "type": "uint256"
        },
        {
          "indexed": false,
          "internalType": "uint256",
          "name": "targetPrice",
          "type": "uint256"
        },
        {
          "indexed": false,
          "internalType": "uint256",
          "name": "margin",
          "type": "uint256"
        },
        {
          "indexed": false,
          "internalType": "uint256",
          "name": "rewardGas",
          "type": "uint256"
        },
        {
          "indexed": false,
          "internalType": "uint256",
          "name": "tradingFee",
          "type": "uint256"
        },
        {
          "indexed": false,
          "internalType": "uint256",
          "name": "startTime",
          "type": "uint256"
        },
        {
          "indexed": false,
          "internalType": "uint256",
          "name": "goodTill",
          "type": "uint256"
        }
      ],
      "name": "LimitedOrderHistory",
      "type": "event"
    },
    {
      "anonymous": false,
      "inputs": [
        {
          "indexed": true,
          "internalType": "address",
          "name": "taker",
          "type": "address"
        },
        {
          "indexed": false,
          "internalType": "string",
          "name": "name",
          "type": "string"
        },
        {
          "indexed": false,
          "internalType": "address",
          "name": "token",
          "type": "address"
        },
        {
          "indexed": false,
          "internalType": "uint256",
          "name": "orderID",
          "type": "uint256"
        },
        {
          "indexed": false,
          "internalType": "enum ICommon.Direct",
          "name": "direction",
          "type": "uint8"
        },
        {
          "indexed": false,
          "internalType": "enum IPerpetual.OrderType",
          "name": "orderType",
          "type": "uint8"
        },
        {
          "indexed": false,
          "internalType": "uint256",
          "name": "amount",
          "type": "uint256"
        },
        {
          "indexed": false,
          "internalType": "uint256",
          "name": "costPrice",
          "type": "uint256"
        },
        {
          "indexed": false,
          "internalType": "uint256",
          "name": "price",
          "type": "uint256"
        },
        {
          "indexed": false,
          "internalType": "uint256",
          "name": "tradingFee",
          "type": "uint256"
        },
        {
          "indexed": false,
          "internalType": "uint256",
          "name": "limitOrderId",
          "type": "uint256"
        },
        {
          "indexed": false,
          "internalType": "uint256",
          "name": "timestamp",
          "type": "uint256"
        }
      ],
      "name": "OrderHistory",
      "type": "event"
    },
    {
      "anonymous": false,
      "inputs": [
        {
          "indexed": true,
          "internalType": "address",
          "name": "previousOwner",
          "type": "address"
        },
        {
          "indexed": true,
          "internalType": "address",
          "name": "newOwner",
          "type": "address"
        }
      ],
      "name": "OwnershipTransferred",
      "type": "event"
    },
    {
      "anonymous": false,
      "inputs": [
        {
          "indexed": false,
          "internalType": "address",
          "name": "token",
          "type": "address"
        },
        {
          "indexed": false,
          "internalType": "uint256",
          "name": "orderID",
          "type": "uint256"
        },
        {
          "indexed": false,
          "internalType": "uint256",
          "name": "dealID",
          "type": "uint256"
        },
        {
          "indexed": false,
          "internalType": "enum IPerpetual.TradeType",
          "name": "tradeType",
          "type": "uint8"
        },
        {
          "indexed": false,
          "internalType": "uint256",
          "name": "amount",
          "type": "uint256"
        },
        {
          "indexed": false,
          "internalType": "uint256",
          "name": "price",
          "type": "uint256"
        },
        {
          "indexed": false,
          "internalType": "uint256",
          "name": "tradingFee",
          "type": "uint256"
        },
        {
          "indexed": false,
          "internalType": "uint256",
          "name": "profit",
          "type": "uint256"
        },
        {
          "indexed": false,
          "internalType": "uint256",
          "name": "loss",
          "type": "uint256"
        },
        {
          "indexed": false,
          "internalType": "uint256",
          "name": "timestamp",
          "type": "uint256"
        }
      ],
      "name": "TradeHistory",
      "type": "event"
    },
    {
      "anonymous": false,
      "inputs": [
        {
          "indexed": true,
          "internalType": "address",
          "name": "token",
          "type": "address"
        },
        {
          "indexed": true,
          "internalType": "address",
          "name": "sender",
          "type": "address"
        },
        {
          "indexed": true,
          "internalType": "address",
          "name": "received",
          "type": "address"
        },
        {
          "indexed": false,
          "internalType": "enum ICommon.TransactionType",
          "name": "transactionType",
          "type": "uint8"
        },
        {
          "indexed": false,
          "internalType": "uint256",
          "name": "amount",
          "type": "uint256"
        },
        {
          "indexed": false,
          "internalType": "uint256",
          "name": "timestamp",
          "type": "uint256"
        }
      ],
      "name": "TransactionHistory",
      "type": "event"
    },
    {
      "anonymous": false,
      "inputs": [
        {
          "indexed": false,
          "internalType": "address",
          "name": "token",
          "type": "address"
        },
        {
          "indexed": false,
          "internalType": "address",
          "name": "sender",
          "type": "address"
        },
        {
          "indexed": false,
          "internalType": "address",
          "name": "received",
          "type": "address"
        },
        {
          "indexed": false,
          "internalType": "enum ICommon.TransactionType",
          "name": "transactionType",
          "type": "uint8"
        },
        {
          "indexed": false,
          "internalType": "uint256",
          "name": "amount",
          "type": "uint256"
        },
        {
          "indexed": false,
          "internalType": "uint256",
          "name": "timestamp",
          "type": "uint256"
        }
      ],
      "name": "TransferFee",
      "type": "event"
    },
    {
      "anonymous": false,
      "inputs": [
        {
          "indexed": false,
          "internalType": "address",
          "name": "sender",
          "type": "address"
        },
        {
          "indexed": false,
          "internalType": "string",
          "name": "name",
          "type": "string"
        },
        {
          "indexed": false,
          "internalType": "uint256",
          "name": "beforeLeverage",
          "type": "uint256"
        },
        {
          "indexed": false,
          "internalType": "uint256",
          "name": "afterLeverage",
          "type": "uint256"
        }
      ],
      "name": "setLeverage",
      "type": "event"
    },
    {
      "stateMutability": "nonpayable",
      "type": "fallback"
    },
    {
      "inputs": [],
      "name": "buybackAddr",
      "outputs": [
        {
          "internalType": "address",
          "name": "",
          "type": "address"
        }
      ],
      "stateMutability": "view",
      "type": "function"
    },
    {
      "inputs": [
        {
          "internalType": "uint256[]",
          "name": "_orderIDs",
          "type": "uint256[]"
        }
      ],
      "name": "cancelOrders",
      "outputs": [],
      "stateMutability": "nonpayable",
      "type": "function"
    },
    {
      "inputs": [
        {
          "internalType": "string",
          "name": "_name",
          "type": "string"
        },
        {
          "internalType": "uint256",
          "name": "_amount",
          "type": "uint256"
        },
        {
          "internalType": "uint256",
          "name": "_orderType",
          "type": "uint256"
        },
        {
          "internalType": "uint256",
          "name": "_price",
          "type": "uint256"
        },
        {
          "internalType": "enum ICommon.Direct",
          "name": "_type",
          "type": "uint8"
        },
        {
          "internalType": "uint256",
          "name": "_goodTill",
          "type": "uint256"
        },
        {
          "internalType": "uint256",
          "name": "_deadline",
          "type": "uint256"
        },
        {
          "internalType": "bytes",
          "name": "_priceUpdate",
          "type": "bytes"
        }
      ],
      "name": "closePosition",
      "outputs": [],
      "stateMutability": "payable",
      "type": "function"
    },
    {
      "inputs": [
        {
          "internalType": "uint256",
          "name": "_amount",
          "type": "uint256"
        }
      ],
      "name": "deposit",
      "outputs": [],
      "stateMutability": "nonpayable",
      "type": "function"
    },
    {
      "inputs": [
        {
          "internalType": "address",
          "name": "_takerAddress",
          "type": "address"
        },
        {
          "internalType": "uint256",
          "name": "_stage",
          "type": "uint256"
        }
      ],
      "name": "emitTakerBalance",
      "outputs": [],
      "stateMutability": "nonpayable",
      "type": "function"
    },
    {
      "inputs": [],
      "name": "fiatTokenAddr",
      "outputs": [
        {
          "internalType": "address",
          "name": "",
          "type": "address"
        }
      ],
      "stateMutability": "view",
      "type": "function"
    },
    {
      "inputs": [],
      "name": "getTradingPairs",
      "outputs": [
        {
          "internalType": "string[]",
          "name": "",
          "type": "string[]"
        }
      ],
      "stateMutability": "view",
      "type": "function"
    },
    {
      "inputs": [
        {
          "internalType": "string",
          "name": "_name",
          "type": "string"
        }
      ],
      "name": "getUnderlying",
      "outputs": [
        {
          "internalType": "contract Underlying",
          "name": "",
          "type": "address"
        }
      ],
      "stateMutability": "view",
      "type": "function"
    },
    {
      "inputs": [
        {
          "internalType": "address",
          "name": "_taker",
          "type": "address"
        }
      ],
      "name": "getUserAccount",
      "outputs": [
        {
          "components": [
            {
              "internalType": "uint256",
              "name": "depositAmount",
              "type": "uint256"
            },
            {
              "internalType": "uint256",
              "name": "availableAmount",
              "type": "uint256"
            },
            {
              "internalType": "uint256",
              "name": "marginAmount",
              "type": "uint256"
            },
            {
              "internalType": "uint256",
              "name": "orderLocked",
              "type": "uint256"
            },
            {
              "internalType": "uint256",
              "name": "lastTime",
              "type": "uint256"
            }
          ],
          "internalType": "struct IPerpetual.AccountInfo",
          "name": "user",
          "type": "tuple"
        }
      ],
      "stateMutability": "view",
      "type": "function"
    },
    {
      "inputs": [],
      "name": "getUserAddress",
      "outputs": [
        {
          "internalType": "address[]",
          "name": "",
          "type": "address[]"
        }
      ],
      "stateMutability": "view",
      "type": "function"
    },
    {
      "inputs": [
        {
          "internalType": "address",
          "name": "_user",
          "type": "address"
        },
        {
          "internalType": "string",
          "name": "_name",
          "type": "string"
        }
      ],
      "name": "getUserLeverage",
      "outputs": [
        {
          "internalType": "uint256",
          "name": "",
          "type": "uint256"
        }
      ],
      "stateMutability": "view",
      "type": "function"
    },
    {
      "inputs": [
        {
          "internalType": "address",
          "name": "initialOwner",
          "type": "address"
        },
        {
          "internalType": "address",
          "name": "_priPool",
          "type": "address"
        },
        {
          "internalType": "address",
          "name": "_riskFundAddr",
          "type": "address"
        },
        {
          "internalType": "address",
          "name": "_fiatTokenAddr",
          "type": "address"
        },
        {
          "internalType": "address",
          "name": "_tradeFeeAddr",
          "type": "address"
        }
      ],
      "name": "initialize",
      "outputs": [],
      "stateMutability": "nonpayable",
      "type": "function"
    },
    {
      "inputs": [
        {
          "internalType": "uint256[]",
          "name": "_dealIDs",
          "type": "uint256[]"
        },
        {
          "internalType": "string[]",
          "name": "_symbols",
          "type": "string[]"
        },
        {
          "internalType": "bytes[]",
          "name": "_priceUpdate",
          "type": "bytes[]"
        }
      ],
      "name": "liquidateMakerDeals",
      "outputs": [],
      "stateMutability": "payable",
      "type": "function"
    },
    {
      "inputs": [
        {
          "internalType": "address[]",
          "name": "_taker",
          "type": "address[]"
        },
        {
          "internalType": "string[]",
          "name": "_symbols",
          "type": "string[]"
        },
        {
          "internalType": "bytes[]",
          "name": "_priceUpdate",
          "type": "bytes[]"
        }
      ],
      "name": "liquidateTaker",
      "outputs": [],
      "stateMutability": "payable",
      "type": "function"
    },
    {
      "inputs": [],
      "name": "maintenanceMarginRate",
      "outputs": [
        {
          "internalType": "uint256",
          "name": "",
          "type": "uint256"
        }
      ],
      "stateMutability": "view",
      "type": "function"
    },
    {
      "inputs": [],
      "name": "owner",
      "outputs": [
        {
          "internalType": "address",
          "name": "",
          "type": "address"
        }
      ],
      "stateMutability": "view",
      "type": "function"
    },
    {
      "inputs": [],
      "name": "renounceOwnership",
      "outputs": [],
      "stateMutability": "nonpayable",
      "type": "function"
    },
    {
      "inputs": [],
      "name": "riskFundAddr",
      "outputs": [
        {
          "internalType": "address",
          "name": "",
          "type": "address"
        }
      ],
      "stateMutability": "view",
      "type": "function"
    },
    {
      "inputs": [
        {
          "internalType": "address",
          "name": "_buyBack",
          "type": "address"
        },
        {
          "internalType": "address",
          "name": "_orderBook",
          "type": "address"
        },
        {
          "internalType": "address",
          "name": "_tradeAgent",
          "type": "address"
        },
        {
          "internalType": "address",
          "name": "_tradeStation",
          "type": "address"
        },
        {
          "internalType": "address",
          "name": "_marketAgent",
          "type": "address"
        }
      ],
      "name": "setKeepers",
      "outputs": [],
      "stateMutability": "nonpayable",
      "type": "function"
    },
    {
      "inputs": [
        {
          "internalType": "address",
          "name": "_addr",
          "type": "address"
        }
      ],
      "name": "setTradeFeeAddr",
      "outputs": [],
      "stateMutability": "nonpayable",
      "type": "function"
    },
    {
      "inputs": [
        {
          "internalType": "string",
          "name": "_name",
          "type": "string"
        },
        {
          "internalType": "address",
          "name": "_underlying",
          "type": "address"
        }
      ],
      "name": "setUnderlying",
      "outputs": [],
      "stateMutability": "nonpayable",
      "type": "function"
    },
    {
      "inputs": [
        {
          "internalType": "string",
          "name": "_name",
          "type": "string"
        },
        {
          "internalType": "uint256",
          "name": "_leverage",
          "type": "uint256"
        }
      ],
      "name": "setUserLeverage",
      "outputs": [],
      "stateMutability": "nonpayable",
      "type": "function"
    },
    {
      "inputs": [
        {
          "internalType": "address",
          "name": "takerAddr",
          "type": "address"
        },
        {
          "internalType": "uint256",
          "name": "tradingFee",
          "type": "uint256"
        }
      ],
      "name": "splitTradeFee",
      "outputs": [],
      "stateMutability": "nonpayable",
      "type": "function"
    },
    {
      "inputs": [
        {
          "internalType": "string",
          "name": "_name",
          "type": "string"
        },
        {
          "internalType": "uint256",
          "name": "_amount",
          "type": "uint256"
        },
        {
          "internalType": "enum ICommon.Direct",
          "name": "_type",
          "type": "uint8"
        },
        {
          "internalType": "enum ICommon.Offset",
          "name": "_offset",
          "type": "uint8"
        },
        {
          "internalType": "uint256",
          "name": "_param1",
          "type": "uint256"
        },
        {
          "internalType": "uint256",
          "name": "_param2",
          "type": "uint256"
        },
        {
          "internalType": "uint256",
          "name": "_param3",
          "type": "uint256"
        },
        {
          "internalType": "uint256",
          "name": "_param4",
          "type": "uint256"
        },
        {
          "internalType": "uint256",
          "name": "_goodTill",
          "type": "uint256"
        },
        {
          "internalType": "uint256",
          "name": "_deadline",
          "type": "uint256"
        }
      ],
      "name": "stopTakeOrder",
      "outputs": [],
      "stateMutability": "payable",
      "type": "function"
    },
    {
      "inputs": [],
      "name": "tradeFeeAddr",
      "outputs": [
        {
          "internalType": "address",
          "name": "",
          "type": "address"
        }
      ],
      "stateMutability": "view",
      "type": "function"
    },
    {
      "inputs": [
        {
          "internalType": "string",
          "name": "_name",
          "type": "string"
        },
        {
          "internalType": "uint256",
          "name": "_amount",
          "type": "uint256"
        },
        {
          "internalType": "uint256",
          "name": "_price",
          "type": "uint256"
        },
        {
          "internalType": "uint256",
          "name": "_orderType",
          "type": "uint256"
        },
        {
          "internalType": "enum ICommon.Direct",
          "name": "_type",
          "type": "uint8"
        },
        {
          "internalType": "address",
          "name": "_inviter",
          "type": "address"
        },
        {
          "internalType": "uint256",
          "name": "_goodTill",
          "type": "uint256"
        },
        {
          "internalType": "uint256",
          "name": "_deadline",
          "type": "uint256"
        },
        {
          "internalType": "bytes",
          "name": "_priceUpdate",
          "type": "bytes"
        }
      ],
      "name": "tradeFutures",
      "outputs": [],
      "stateMutability": "payable",
      "type": "function"
    },
    {
      "inputs": [
        {
          "internalType": "address",
          "name": "newOwner",
          "type": "address"
        }
      ],
      "name": "transferOwnership",
      "outputs": [],
      "stateMutability": "nonpayable",
      "type": "function"
    },
    {
      "inputs": [
        {
          "internalType": "uint256[]",
          "name": "_orderIDs",
          "type": "uint256[]"
        },
        {
          "internalType": "string[]",
          "name": "_symbols",
          "type": "string[]"
        },
        {
          "internalType": "bytes[]",
          "name": "_priceUpdate",
          "type": "bytes[]"
        }
      ],
      "name": "triggerOrders",
      "outputs": [],
      "stateMutability": "payable",
      "type": "function"
    },
    {
      "inputs": [
        {
          "internalType": "address",
          "name": "_taker",
          "type": "address"
        },
        {
          "components": [
            {
              "internalType": "uint256",
              "name": "depositAmount",
              "type": "uint256"
            },
            {
              "internalType": "uint256",
              "name": "availableAmount",
              "type": "uint256"
            },
            {
              "internalType": "uint256",
              "name": "marginAmount",
              "type": "uint256"
            },
            {
              "internalType": "uint256",
              "name": "orderLocked",
              "type": "uint256"
            },
            {
              "internalType": "uint256",
              "name": "lastTime",
              "type": "uint256"
            }
          ],
          "internalType": "struct IPerpetual.AccountInfo",
          "name": "userInfo",
          "type": "tuple"
        }
      ],
      "name": "updateUserAsset",
      "outputs": [],
      "stateMutability": "nonpayable",
      "type": "function"
    },
    {
      "inputs": [
        {
          "internalType": "uint256",
          "name": "_amount",
          "type": "uint256"
        },
        {
          "internalType": "string[]",
          "name": "_symbols",
          "type": "string[]"
        },
        {
          "internalType": "bytes[]",
          "name": "_priceUpdate",
          "type": "bytes[]"
        }
      ],
      "name": "withdraw",
      "outputs": [],
      "stateMutability": "payable",
      "type": "function"
    }
  ],
  "bytecode": "0x60808060405234601557613b3c908161001b8239f35b600080fdfe6080604052600436101561001a575b3461001557005b600080fd5b6000803560e01c806305ca57cf14611eaf5780630c41899814611e885780631459457a14611a605780632ca4305114611a395780632f1cc4d01461178b5780633851969e146116c757806338a139861461157c578063402d712c1461150a578063645b3fd0146114cb578063708b8d8614611253578063715018a6146111ba57806389f00b6d1461119c5780638da5cb5b146111565780639048f2e01461107d578063a40cb4ca14610e73578063b55fb57414610d97578063b6b55f2514610bf6578063c8f5ede21461096a578063c9f35c39146108a0578063cd2ce4ae14610783578063d1937e3d14610745578063d895797814610635578063e08061b31461060e578063e1fb28b81461058f578063e597868614610428578063ebc3eee814610360578063f2fde38b14610333578063f348285b1461030c578063f6ef1839146102295763fb47e01614610170575061000e565b3461022657602060031936011261022657604060a0916001600160a01b03610196611fb6565b82608085516101a481611f16565b82815282602082015282878201528260608201520152168152600a602052206040516101cf81611f16565b81549182825260018101546020830190815260028201549060408401918252608060046003850154946060870195865201549401938452604051948552516020850152516040840152516060830152516080820152f35b80fd5b5034610226576001600160a01b038080808061024436611fcc565b979291936102539691966134c1565b166001600160a01b0319601054161760105516806001600160a01b031960055416176005558752600960205260408720600160ff1982541617905516806001600160a01b031960065416176006558552600960205260408520600160ff1982541617905516806001600160a01b031960085416176008558352600960205260408320600160ff1982541617905516806001600160a01b031960075416176007558152600960205260408120600160ff1982541617905580f35b503461022657806003193601126102265760206001600160a01b0360115416604051908152f35b50346102265760206003193601126102265761035d610350611fb6565b6103586134c1565b612f1d565b80f35b5034610226578060031936011261022657604051806020600e5491828152018091600e85527fbb7b4a454dc3493923482f07822329ed19e8244eff582cc204f8554c3620c3fd90855b81811061040957505050826103bf910383611f32565b604051928392602084019060208552518091526040840192915b8181106103e7575050500390f35b82516001600160a01b03168452859450602093840193909201916001016103d9565b82546001600160a01b03168452602090930192600192830192016103a9565b50610100600319360112610226578060043567ffffffffffffffff811161058c57610457903690600401611f71565b604435906084359060643560038310156105885760e43567ffffffffffffffff81116105845761048b903690600401611f71565b90610494613229565b6104a24260c4351015612307565b34818661056f575050506104b6908261394e565b9184905b6001600160a01b036008541691823b1561056b57869461051482604051988997889687957f274889e1000000000000000000000000000000000000000000000000000000008752339360a435936024359060048a0161264a565b03925af180156105605761054b575b5060017f9b779b17422d0df92223018b32b4d1fa46e071723d6817e2486d003becc55f005580f35b8161055591611f32565b610226578038610523565b6040513d84823e3d90fd5b8680fd5b61057f91935094919415156125ff565b6104ba565b8580fd5b8480fd5b50fd5b5034610226576040600319360112610226576105a9611fb6565b60243567ffffffffffffffff811161060a5760406020936001600160a01b036105d96105e8943690600401611f71565b94168152600c85522082612273565b549081156105fa575b50604051908152f35b610604915061300c565b386105f1565b8280fd5b503461022657806003193601126102265760206001600160a01b0360125416604051908152f35b5060606003193601126102265760043567ffffffffffffffff8111610741573660238201121561074157806004013561066d8161203e565b9161067b6040519384611f32565b8183526024602084019260051b8201019036821161058857602401915b8183106107215750505060243567ffffffffffffffff811161060a576106c29036906004016120b3565b6044359167ffffffffffffffff831161071d576106e66106f6933690600401612132565b9290916106f1613229565b612a65565b60017f9b779b17422d0df92223018b32b4d1fa46e071723d6817e2486d003becc55f005580f35b8380fd5b82356001600160a01b038116810361001557815260209283019201610698565b5080fd5b50346102265760406003193601126102265761035d610762611fb6565b338352600960205261077a60ff60408520541661269e565b6024359061271c565b5034610226578060031936011261022657600d546107a08161203e565b906107ae6040519283611f32565b808252600d83527fd7b6990105719101dabeb77144f2a3385c8033acd3af97e9423a695e81ad1eb59280602084015b8383106107fe57604051602080825281906107fa9082018861221a565b0390f35b60405182875461080d81612372565b808452906001811690811561087d5750600114610847575b506001928261083985946020940382611f32565b8152019601920191946107dd565b888552602085208592505b81831061086757505081016020016001610825565b6001816020925483868801015201920191610852565b60ff191660208581019190915291151560051b8401909101915060019050610825565b50346102265760c0600319360112610226576108ba611fb6565b60a07fffffffffffffffffffffffffffffffffffffffffffffffffffffffffffffffdc360112610741576004604051916108f383611f16565b6024358352602083016044358152604084016064358152606085019160843583526001600160a01b03608087019460a4358652338952600960205261093e60ff60408b20541661269e565b428652168752600a60205260408720955186555160018601555160028501555160038401555191015580f35b50610120600319360112610226578060043567ffffffffffffffff811161058c57610999903690600401611f71565b608435906064359060443560038410156105885760a4356001600160a01b038116809103610584576101043567ffffffffffffffff811161056b576109e2903690600401611f71565b916109eb613229565b6109f94260e4351015612307565b80916001600160a01b03600754169081151580610bed575b80610b4a575b610aa9575b505034908515600014610a9457505050610a36908261394e565b9284905b6001600160a01b036008541691823b1561056b57869461051482604051988997889687957fdcac2e88000000000000000000000000000000000000000000000000000000008752339360c435936024359060048a0161264a565b610aa491935095919515156125ff565b610a3a565b60809060846001600160a01b03600f54168b60405195869485937ff1a78eff000000000000000000000000000000000000000000000000000000008552600485015260248401523360448401528160648401525af18015610b3f57610b0f575b80610a1c565b610b309060803d608011610b38575b610b288183611f32565b8101906125cf565b505050610b09565b503d610b1e565b6040513d8a823e3d90fd5b506040517f147df887000000000000000000000000000000000000000000000000000000008152336004820152602081602481865afa8015610be2578a90610b9e575b6001600160a01b0391501615610a17565b506020813d602011610bda575b81610bb860209383611f32565b81010312610bd657610bd16001600160a01b03916125bb565b610b8d565b8980fd5b3d9150610bab565b6040513d8c823e3d90fd5b50801515610a11565b5034610226576020600319360112610226576004356001548110610d5357610c4890610c3a610c24306136b8565b916001600160a01b03600f5416309033906137eb565b610c43306136b8565b6123cf565b338252600a602052600460408320610c5f336123dc565b610c6a8382546123ac565b815560018101610c7b8482546123ac565b905501805415610cdb575b50610c903361249d565b600f546040519160018352602083015242604083015230917feb42cf637f927243245c50b4bf7fe105fe4f4d26209102240f2ba3d8e27a7df860606001600160a01b0333941692a480f35b429055600e5468010000000000000000811015610d3f5760018101600e55600e54811015610d2b57600e8352602083200180548360031b906001600160a01b0333831b921b191617905538610c86565b602483634e487b7160e01b81526032600452fd5b602483634e487b7160e01b81526041600452fd5b606460405162461bcd60e51b815260206004820152601860248201527f6465706f73697420616d6f756e7420746f6f20736d616c6c00000000000000006044820152fd5b50346102265760206003193601126102265760043567ffffffffffffffff811161074157610dc9903690600401612056565b81805b8251811015610e6f576001600160a01b0360065416610deb8285612591565b51813b1561071d5783916064839260405194859384927fc2b3356400000000000000000000000000000000000000000000000000000000845260048401523360248401528160448401525af1908115610e64578391610e4f575b5050600101610dcc565b81610e5991611f32565b610741578138610e45565b6040513d85823e3d90fd5b5080f35b5060606003193601126102265760043560243567ffffffffffffffff811161060a57610ea39036906004016120b3565b60443567ffffffffffffffff811161071d57610f25610ec86040923690600401612132565b929093338752600a60205281872094610eef88956001600160a01b036006541692846132a2565b9183518095819482937f9aa59c65000000000000000000000000000000000000000000000000000000008452336004850161256b565b03915afa9081156110725785908692611031575b5015611029575b50610f4a336123dc565b6001820191610f5b835492856123ac565b8210610fe557610f799181610f72868094546123cf565b90556123cf565b9055610f9181336001600160a01b03600f5416613522565b610f9a3361249d565b600f546040519160028352602083015242604083015233917feb42cf637f927243245c50b4bf7fe105fe4f4d26209102240f2ba3d8e27a7df860606001600160a01b0330941692a480f35b606460405162461bcd60e51b815260206004820152601960248201527f776974686472657720616d6f756e7420746f6f206c61726765000000000000006044820152fd5b905038610f40565b9150506040813d60401161106a575b8161104d60409383611f32565b810103126105885760206110608261255e565b9101519038610f39565b3d9150611040565b6040513d87823e3d90fd5b5034610226576040600319360112610226577f978f5a06b7f22ed0a8d1bfc4c6d9d44b320a6f206eb9dde65c1de4dc27f48cc060e06001600160a01b036110c2611fb6565b16808452600a60205260408420600181015460028201546110e381836123ac565b916110f3600385015480946123ac565b935493808511156111355761110890856123cf565b935b604051958652602086015260408501526060840152608083015260243560a083015260c0820152a180f35b848181101561114d57611147916123cf565b9361110a565b5050879361110a565b503461022657806003193601126102265760206001600160a01b037f9016d09d72d40fdae2fd8ceac6b6234c7706214fd39c1cd1e609a0528c1993005416604051908152f35b50346102265780600319360112610226576020600254604051908152f35b50346102265780600319360112610226576111d36134c1565b806001600160a01b037f9016d09d72d40fdae2fd8ceac6b6234c7706214fd39c1cd1e609a0528c199300546001600160a01b031981167f9016d09d72d40fdae2fd8ceac6b6234c7706214fd39c1cd1e609a0528c19930055167f8be0079c531659141344cd1fd0a4f28419497f9722a3daafe3b4186f6b6457e08280a380f35b50346102265760406003193601126102265760043567ffffffffffffffff811161074157611285903690600401611f71565b602435906001600160a01b03821680920361060a576112a26134c1565b604051906001600160a01b03815192602081818501956112c38183896121d2565b8101600b81520301902054161561130a575b6112ed916020916040519384928392519283916121d2565b8101600b815203019020906001600160a01b031982541617905580f35b600d54680100000000000000008110156114b75760018101600d55600d548110156114a357600d85527fd7b6990105719101dabeb77144f2a3385c8033acd3af97e9423a695e81ad1eb5018461149057815167ffffffffffffffff811161147a576113758254612372565b601f8111611432575b506020601f82116001146113c6579181602094926112ed96946000916113bb575b506000198260011b9260031b1c19161790555b915091506112d5565b90508301513861139f565b601f1982169083600052806000209160005b81811061141a5750926112ed969492600192826020989610611401575b5050811b0190556113b2565b85015160001960f88460031b161c1916905538806113f5565b9192602060018192868a0151815501940192016113d8565b826000526020600020601f830160051c81019160208410611470575b601f0160051c01905b818110611464575061137e565b60008155600101611457565b909150819061144e565b634e487b7160e01b600052604160045260246000fd5b602485634e487b7160e01b815280600452fd5b602485634e487b7160e01b81526032600452fd5b602485634e487b7160e01b81526041600452fd5b5034610226576020600319360112610226576001600160a01b036114ed611fb6565b6114f56134c1565b166001600160a01b0319601254161760125580f35b508061153761151836612163565b61152494919294613229565b6001600160a01b036008541692856132a2565b90803b156105885761051493858094604051968795869485937fbcef60d7000000000000000000000000000000000000000000000000000000008552600485016122cd565b50610140600319360112610226578060043567ffffffffffffffff811161058c576115ab903690600401611f71565b6044359060038210156116c35760643560038110156116c1576115cc613229565b6115db42610124351015612307565b6001600160a01b0360085416803b15610588576116338593604051958694859384937feff6d7c300000000000000000000000000000000000000000000000000000000855261014060048601526101448501906121f5565b91602435602485015261164581612352565b604484015261165381612352565b6064830152608435608483015260a43560a483015260c43560c483015260e43560e48301526101043561010483015233610124830152039134905af180156105605761054b575060017f9b779b17422d0df92223018b32b4d1fa46e071723d6817e2486d003becc55f005580f35b505b5050fd5b506116f4816116d536612163565b6116e195919295613229565b6001600160a01b036006541692866132a2565b90803b1561071d5761173994848094604051978895869485937feb4f2e36000000000000000000000000000000000000000000000000000000008552600485016122cd565b03925af1801561177e5761176e5760017f9b779b17422d0df92223018b32b4d1fa46e071723d6817e2486d003becc55f005580f35b61177791611f32565b38816106f6565b50604051903d90823e3d90fd5b50346102265760406003193601126102265760043567ffffffffffffffff8111610741576117bd903690600401611f71565b60243590338352600a6020526080604084206004604051916117de83611f16565b8054835260018101546020840152600281015460408401526003810154606084015201549182910152156119f5576118158161300c565b82151590816119ea575b50156119a6576005546001600160a01b0316835b600281106118b95750506118b590338452600c6020527f5f8b52a1e1daf1e1c1964bd91dcd938674bfde2807e4278de95a2f3e94d58ad96118776040862083612273565b5460405180913382526080602083015261189460808301866121f5565b9060408301528660608301520390a1338452600c6020526040842090612273565b5580f35b6040517f0c8c351600000000000000000000000000000000000000000000000000000000815233600482015260606024820152608081806118fd60648201886121f5565b8560448301520381865afa90811561199b578691611967575b5061192357600101611833565b606460405162461bcd60e51b815260206004820152600960248201527f68617320617373657400000000000000000000000000000000000000000000006044820152fd5b90506080813d8211611993575b8161198160809383611f32565b81010312610584576020015138611916565b3d9150611974565b6040513d88823e3d90fd5b606460405162461bcd60e51b815260206004820152601560248201527f6c65766572616765206f7574206f6620312d31303000000000000000000000006044820152fd5b90508211153861181f565b606460405162461bcd60e51b815260206004820152601260248201527f75736572206973206e6f742065786973747300000000000000000000000000006044820152fd5b503461022657806003193601126102265760206001600160a01b03600f5416604051908152f35b503461022657611a6f36611fcc565b7ff0c57e16840df040f15088dc2f81fe391c3923bec73e23a9662efc9c229c6a0094929194549360ff8560401c16159467ffffffffffffffff811680159081611e80575b6001149081611e76575b159081611e6d575b50611e4557916001600160a01b0380949392838860017fffffffffffffffffffffffffffffffffffffffffffffffff0000000000000000859716177ff0c57e16840df040f15088dc2f81fe391c3923bec73e23a9662efc9c229c6a0055611df0575b50611b30613a22565b611b38613a22565b611b4133612f1d565b611b49613a22565b611b51613a22565b60017f9b779b17422d0df92223018b32b4d1fa46e071723d6817e2486d003becc55f0055611b7d6134c1565b611b8687612f1d565b16806001600160a01b031960045416176004558852600960205260408820600160ff19825416179055166001600160a01b03196012541617601255166001600160a01b031960115416176011556001600160a01b0383166001600160a01b0319600f541617600f5583806001600160a01b036004541694604095827fffffffff00000000000000000000000000000000000000000000000000000000601860208a51611c328c82611f32565b828152017f617070726f766528616464726573732c75696e743235362900000000000000008152201691885190602082019384526024820152600019604482015260448152611c82606482611f32565b51925af1611c8e612fdc565b81611db9575b501561071d576001600160a01b03903085526009602052838520600160ff198254161790551683526009602052818320600160ff19825416179055670de0b6b3a7640000835566038d7ea4c6800060015567016345785d8a000060025560146003557fffffffffffffffffffffff00ffffffffffffffffffffffffffffffffffffffff60085416600855611d26575080f35b60207fc7f505b2f371ae2175ee4913f4499e1f2633a7b5936321eed1cdaeb6115181d2917fffffffffffffffffffffffffffffffffffffffffffffff00ffffffffffffffff7ff0c57e16840df040f15088dc2f81fe391c3923bec73e23a9662efc9c229c6a0054167ff0c57e16840df040f15088dc2f81fe391c3923bec73e23a9662efc9c229c6a00555160018152a180f35b8051801592508215611dce575b505038611c94565b8192509060209181010312610588576020611de9910161255e565b3880611dc6565b7fffffffffffffffffffffffffffffffffffffffffffffff0000000000000000001668010000000000000001177ff0c57e16840df040f15088dc2f81fe391c3923bec73e23a9662efc9c229c6a005538611b27565b6004887ff92ee8a9000000000000000000000000000000000000000000000000000000008152fd5b90501538611ac5565b303b159150611abd565b879150611ab3565b503461022657806003193601126102265760206001600160a01b0360105416604051908152f35b5034610226576020600319360112610226576004359067ffffffffffffffff82116102265760206001600160a01b03611f0282611eef3660048801611f71565b81604051938285809451938492016121d2565b8101600b8152030190205416604051908152f35b60a0810190811067ffffffffffffffff82111761147a57604052565b90601f601f19910116810190811067ffffffffffffffff82111761147a57604052565b67ffffffffffffffff811161147a57601f01601f191660200190565b81601f8201121561001557602081359101611f8b82611f55565b92611f996040519485611f32565b828452828201116100155781600092602092838601378301015290565b600435906001600160a01b038216820361001557565b60031960a0910112610015576004356001600160a01b038116810361001557906024356001600160a01b038116810361001557906044356001600160a01b038116810361001557906064356001600160a01b038116810361001557906084356001600160a01b03811681036100155790565b67ffffffffffffffff811161147a5760051b60200190565b9080601f8301121561001557813561206d8161203e565b9261207b6040519485611f32565b81845260208085019260051b82010192831161001557602001905b8282106120a35750505090565b8135815260209182019101612096565b9080601f830112156100155781356120ca8161203e565b926120d86040519485611f32565b81845260208085019260051b820101918383116100155760208201905b83821061210457505050505090565b813567ffffffffffffffff81116100155760209161212787848094880101611f71565b8152019101906120f5565b9181601f840112156100155782359167ffffffffffffffff8311610015576020808501948460051b01011161001557565b60606003198201126100155760043567ffffffffffffffff8111610015578161218e91600401612056565b9160243567ffffffffffffffff811161001557826121ae916004016120b3565b916044359067ffffffffffffffff8211610015576121ce91600401612132565b9091565b60005b8381106121e55750506000910152565b81810151838201526020016121d5565b90601f19601f602093612213815180928187528780880191016121d2565b0116010190565b9080602083519182815201916020808360051b8301019401926000915b83831061224657505050505090565b909192939460208061226483601f19866001960301875289516121f5565b97019301930191939290612237565b60209061228d9282604051948386809551938492016121d2565b82019081520301902090565b906020808351928381520192019060005b8181106122b75750505090565b82518452602093840193909201916001016122aa565b916122f6906122e86123049593606086526060860190612299565b90848203602086015261221a565b916040818403910152612299565b90565b1561230e57565b606460405162461bcd60e51b815260206004820152600760248201527f65787069726564000000000000000000000000000000000000000000000000006044820152fd5b6003111561235c57565b634e487b7160e01b600052602160045260246000fd5b90600182811c921680156123a2575b602083101461238c57565b634e487b7160e01b600052602260045260246000fd5b91607f1691612381565b919082018092116123b957565b634e487b7160e01b600052601160045260246000fd5b919082039182116123b957565b60e06001600160a01b037f978f5a06b7f22ed0a8d1bfc4c6d9d44b320a6f206eb9dde65c1de4dc27f48cc0921680600052600a60205260406000206001810154600282015461242b81836123ac565b9161243b600385015480946123ac565b9354938085111561247b5761245090856123cf565b935b6040519586526020860152604085015260608401526080830152600060a083015260c0820152a1565b84818110156124935761248d916123cf565b93612452565b5050600093612452565b60e06001600160a01b037f978f5a06b7f22ed0a8d1bfc4c6d9d44b320a6f206eb9dde65c1de4dc27f48cc0921680600052600a6020526040600020600181015460028201546124ec81836123ac565b916124fc600385015480946123ac565b9354938085111561253c5761251190856123cf565b935b6040519586526020860152604085015260608401526080830152600a60a083015260c0820152a1565b84818110156125545761254e916123cf565b93612513565b5050600093612513565b5190811515820361001557565b916122f6906001600160a01b03612304959316845260606020850152606084019061221a565b80518210156125a55760209160051b010190565b634e487b7160e01b600052603260045260246000fd5b51906001600160a01b038216820361001557565b9190826080910312610015576125e4826125bb565b9160208101519160606125f9604084016125bb565b92015190565b1561260657565b606460405162461bcd60e51b815260206004820152600d60248201527f7072696365206973207a65726f000000000000000000000000000000000000006044820152fd5b94909360e09692999897936126716001600160a01b039661010089526101008901906121f5565b9a60208801526040870152606086015261268a81612352565b608085015260a08401521660c08201520152565b156126a557565b606460405162461bcd60e51b815260206004820152601e60248201527f63616c6c6572206973206e6f742070657270657475616c206b656570657200006044820152fd5b818102929181159184041417156123b957565b8115612706570490565b634e487b7160e01b600052601260045260246000fd5b908015612a6157600080809181906001600160a01b0360075416806129b1575b50606461274b600354876126e9565b04949182816001600160a01b0384161515806129a9575b806129a0575b612954575b50505050829080936001600160a01b03841615158061294b575b80612942575b6128f6575b505050506001600160a01b03601254169082908093831515806128ed575b806128e4575b6128a0575b50505050908160ff60085460a01c1680612897575b612822575b50816127df575050565b6001600160a01b031680600052600a60205260406000206128018382546123ac565b9055600052600a60205261281e60016040600020019182546123ac565b9055565b9091506001600160a01b0360105416818115158061288e575b80612885575b61284f575b505090386127d5565b61287e919250600b61286182806123cf565b9361287883826001600160a01b03600f5416613522565b85613632565b3880612846565b50801515612841565b5080151561283b565b508015156127d0565b9293506128cf9281106128d85761286182600d926123cf565b61287883826001600160a01b03600f5416613522565b388080806127bb565b9050600d6000936128b9565b508015156127b6565b508115156127b0565b92935061292d9281106129365761290f82600c926123cf565b935b61292783826001600160a01b03600f5416613522565b86613632565b38808080612792565b9050600c600093612911565b5080151561278d565b50811515612787565b92935061298b9281106129945761296d826011926123cf565b935b61298583826001600160a01b03600f5416613522565b88613632565b3880808061276d565b9050601160009361296f565b50801515612768565b506001612762565b90508293506080915060846001600160a01b03600f541660405194859384927ff1a78eff00000000000000000000000000000000000000000000000000000000845260048401528160248401526001600160a01b038a1660448401528860648401525af1918215612a5557809281928291612a32575b50909192913861273c565b92505050612a4f915060803d608011610b3857610b288183611f32565b38612a27565b604051903d90823e3d90fd5b5050565b9293919360005b8451811015612f15576001600160a01b03612a878287612591565b511680600052600a602052612aa0604060002054613a09565b8015612f0b57612aaf826123dc565b612aba8489876132a2565b6001600160a01b0360065416608060405180927fc254878b0000000000000000000000000000000000000000000000000000000082528180612b01878d8b6004850161256b565b03915afa908115612ec657600091612ed2575b50612bda575b5050907f978f5a06b7f22ed0a8d1bfc4c6d9d44b320a6f206eb9dde65c1de4dc27f48cc060e083600194600052600a6020526040600020858101546002820154612b6481836123ac565b91612b74600385015480946123ac565b93549380851115612bb857612b8990856123cf565b935b6040519586526020860152604085015260608401526080830152600b60a083015260c0820152a101612a6c565b8481811015612bd057612bca916123cf565b93612b8b565b5050600093612b8b565b90612c5d91602087612bf66001600160a01b03601154166136b8565b926001600160a01b036008541690600088612c6f612c14888a6123ac565b936040519a8b97889687957f7295751b0000000000000000000000000000000000000000000000000000000087526004870152602486015260806044860152608485019061221a565b90600319848303016064850152612299565b03925af1928315612ec657600093612e92575b50928260e0928286600198977f978f5a06b7f22ed0a8d1bfc4c6d9d44b320a6f206eb9dde65c1de4dc27f48cc09714600014612d11575050612cdd91506001600160a01b03600f54166001600160a01b036004541690613522565b80600052600a6020526040600020600086820155600081556000600282015560006003820155600442910155929350612b1a565b909181841115612dd45790612d75612d8792612d4e6001600160a01b03600f54166001600160a01b0360115416612d48868a6123cf565b91613522565b6001600160a01b03600f541690612d4887610c43866001600160a01b0360045416946123ac565b6001600160a01b0360115416936123cf565b7feb42cf637f927243245c50b4bf7fe105fe4f4d26209102240f2ba3d8e27a7df860606001600160a01b03600f5460009460405195506008865260208601524260408601521692a4612cdd565b92612e33612e45929394612e0c6001600160a01b03600f54166001600160a01b036011541690612e0486896123cf565b9130916137eb565b6001600160a01b03600f541690612d4884610c43886001600160a01b0360045416946123ac565b6001600160a01b0360115416926123cf565b7feb42cf637f927243245c50b4bf7fe105fe4f4d26209102240f2ba3d8e27a7df860606001600160a01b03600f5460009460405195506009865260208601524260408601521692a4612cdd565b90926020823d8211612ebe575b81612eac60209383611f32565b81010312610226575051916001612c82565b3d9150612e9f565b6040513d6000823e3d90fd5b906080823d8211612f03575b81612eeb60809383611f32565b810103126102265750612efd9061255e565b38612b14565b3d9150612ede565b5050505050915050565b505050915050565b6001600160a01b03168015612fad576001600160a01b037f9016d09d72d40fdae2fd8ceac6b6234c7706214fd39c1cd1e609a0528c19930054826001600160a01b03198216177f9016d09d72d40fdae2fd8ceac6b6234c7706214fd39c1cd1e609a0528c19930055167f8be0079c531659141344cd1fd0a4f28419497f9722a3daafe3b4186f6b6457e0600080a3565b7f1e4fbdf700000000000000000000000000000000000000000000000000000000600052600060045260246000fd5b3d15613007573d90612fed82611f55565b91612ffb6040519384611f32565b82523d6000602084013e565b606090565b61302d60206001600160a01b039281604051938285809451938492016121d2565b8101600b815203019020541680613045575b50606490565b6000602491604051928380927fa666200f0000000000000000000000000000000000000000000000000000000082523060048301525afa908115612ec657600091613096575b50610160015161303f565b3d8083833e6130a58183611f32565b81019060208183031261060a5780519067ffffffffffffffff821161071d5701906101e08282031261060a57604051926101e0840184811067ffffffffffffffff82111761321557604052825167ffffffffffffffff811161074157830182601f820112156107415780519161311a83611f55565b936131286040519586611f32565b838552602084840101116102265750916131516101609594926101c094602080850191016121d2565b835260208101516020840152613169604082016125bb565b604084015261317a606082016125bb565b606084015261318b608082016125bb565b608084015261319c60a082016125bb565b60a08401526131ad60c082016125bb565b60c08401526131be60e082016125bb565b60e084015261010081015161010084015261012081015161012084015261014081015161014084015283810151848401526101808101516101808401526101a08101516101a084015201516101c08201529061308b565b602482634e487b7160e01b81526041600452fd5b60027f9b779b17422d0df92223018b32b4d1fa46e071723d6817e2486d003becc55f0054146132785760027f9b779b17422d0df92223018b32b4d1fa46e071723d6817e2486d003becc55f0055565b7f3ee5aeb50000000000000000000000000000000000000000000000000000000060005260046000fd5b909291928382510361347d576132b98251346126fc565b9082518015612706573406936132ce8661203e565b936132dc6040519586611f32565b868552601f196132eb8861203e565b01366020870137849560005b8251808210156134715760001981019081116123b9578114613460575b6001600160a01b0361333f602061332b8487612591565b5181604051938285809451938492016121d2565b8101600b8152030190205416898210156125a5578160051b8601357fffffffffffffffffffffffffffffffffffffffffffffffffffffffffffffffe18736030181121561001557860180359067ffffffffffffffff82116100155760200190803603821361001557601f92818a6064602095601f19604051988997889687947fb3d316c100000000000000000000000000000000000000000000000000000000865260406004870152816044870152868601376000858286010152306024850152011681010301925af1908115612ec65760009161342e575b5090600191613427828a612591565b52016132f7565b906020823d8211613458575b8161344760209383611f32565b810103126102265750516001613418565b3d915061343a565b948161346b916123ac565b94613314565b50505050939450505050565b606460405162461bcd60e51b815260206004820152602060248201527f496e636f6e73697374656e74207072696365206172726179206c656e677468736044820152fd5b6001600160a01b037f9016d09d72d40fdae2fd8ceac6b6234c7706214fd39c1cd1e609a0528c199300541633036134f457565b7f118cdaa7000000000000000000000000000000000000000000000000000000006000523360045260246000fd5b9161352d9083613a7b565b9182151580613620575b61354057505050565b6000928380936040926001600160a01b037fffffffff000000000000000000000000000000000000000000000000000000006019602087516135828982611f32565b828152017f7472616e7366657228616464726573732c75696e74323536290000000000000081522016945192602084019586521660248301526044820152604481526135cf606482611f32565b51925af16135db612fdc565b816135e9575b501561001557565b80518015925082156135fe575b5050386135e1565b8192509060209181010312610015576020613619910161255e565b38806135f6565b506001600160a01b0382161515613537565b92916001600160a01b03600f54169160405193601383101561235c576001600160a01b0360609281927feb42cf637f927243245c50b4bf7fe105fe4f4d26209102240f2ba3d8e27a7df8958852602088015242604088015216951693a4565b90816020910312610015575160ff811681036100155790565b604d81116123b957600a0a90565b6001600160a01b03600f541690604051907f313ce567000000000000000000000000000000000000000000000000000000008252602082600481865afa918215612ec6576000926137ad575b506001600160a01b03602460209260405195869384927f70a082310000000000000000000000000000000000000000000000000000000084521660048301525afa918215612ec657600092613777575b5061377160ff61376a61230494600054906126e9565b92166136aa565b906126fc565b91506020823d6020116137a5575b8161379260209383611f32565b8101031261001557905190613771613754565b3d9150613785565b602091925060246137db6001600160a01b0392843d86116137e4575b6137d38183611f32565b810190613691565b93925050613704565b503d6137c9565b9091926137f89082613a7b565b928315158061393c575b8061392a575b613813575b50505050565b600080949381946001600160a01b037fffffffff000000000000000000000000000000000000000000000000000000006025604051613853606082611f32565b8181527f7432353629000000000000000000000000000000000000000000000000000000604060208301927f7472616e7366657246726f6d28616464726573732c616464726573732c75696e845201522016948160405194602086019788521660248501521660448301526064820152606481526138d2608482611f32565b51925af16138de612fdc565b816138f3575b5015610015573880808061380d565b8051801592508215613908575b5050386138e4565b8192509060209181010312610015576020613923910161255e565b3880613900565b506001600160a01b0381161515613808565b506001600160a01b0383161515613802565b6139bc916001600160a01b036139746020809481604051938285809451938492016121d2565b8101600b815203019020541660405180809581947fb3d316c10000000000000000000000000000000000000000000000000000000083526040600484015260448301906121f5565b306024830152039134905af1908115612ec6576000916139da575090565b90506020813d602011613a01575b816139f560209383611f32565b81010312610015575190565b3d91506139e8565b613a12306136b8565b808211613a1d575090565b905090565b60ff7ff0c57e16840df040f15088dc2f81fe391c3923bec73e23a9662efc9c229c6a005460401c1615613a5157565b7fd7e6bcf80000000000000000000000000000000000000000000000000000000060005260046000fd5b60206001600160a01b03916004604051809481937f313ce567000000000000000000000000000000000000000000000000000000008352165afa918215612ec657613ad860ff61230494613ade94600091613ae7575b50166136aa565b906126e9565b600054906126fc565b613b00915060203d6020116137e4576137d38183611f32565b38613ad156fea2646970667358221220e1525cd75dd733bd7058debe00345c9079bf6cd1fb6da6543283040dc17c4d3564736f6c634300081c0033",
  "linkReferences": {},
  "deployedLinkReferences": {}
}