{
  "_format": "hh-sol-artifact-1",
  "contractName": "Perpetual",
  "sourceName": "contracts/Perpetual.sol",
  "abi": [
    {
      "inputs": [],
      "name": "InvalidInitialization",
      "type": "error"
    },
    {
      "inputs": [],
      "name": "NotInitializing",
      "type": "error"
    },
    {
      "inputs": [
        {
          "internalType": "address",
          "name": "owner",
          "type": "address"
        }
      ],
      "name": "OwnableInvalidOwner",
      "type": "error"
    },
    {
      "inputs": [
        {
          "internalType": "address",
          "name": "account",
          "type": "address"
        }
      ],
      "name": "OwnableUnauthorizedAccount",
      "type": "error"
    },
    {
      "inputs": [],
      "name": "ReentrancyGuardReentrantCall",
      "type": "error"
    },
    {
      "anonymous": false,
      "inputs": [
        {
          "indexed": false,
          "internalType": "address",
          "name": "taker",
          "type": "address"
        },
        {
          "indexed": false,
          "internalType": "uint256",
          "name": "amount",
          "type": "uint256"
        },
        {
          "indexed": false,
          "internalType": "uint256",
          "name": "availableAmount",
          "type": "uint256"
        },
        {
          "indexed": false,
          "internalType": "uint256",
          "name": "marginAmount",
          "type": "uint256"
        },
        {
          "indexed": false,
          "internalType": "uint256",
          "name": "locked",
          "type": "uint256"
        },
        {
          "indexed": false,
          "internalType": "uint256",
          "name": "stage",
          "type": "uint256"
        },
        {
          "indexed": false,
          "internalType": "uint256",
          "name": "dif",
          "type": "uint256"
        }
      ],
      "name": "BalanceOfTaker",
      "type": "event"
    },
    {
      "anonymous": false,
      "inputs": [
        {
          "indexed": false,
          "internalType": "string",
          "name": "name",
          "type": "string"
        },
        {
          "indexed": true,
          "internalType": "address",
          "name": "taker",
          "type": "address"
        },
        {
          "indexed": true,
          "internalType": "address",
          "name": "token",
          "type": "address"
        },
        {
          "indexed": false,
          "internalType": "uint256",
          "name": "orderID",
          "type": "uint256"
        },
        {
          "indexed": false,
          "internalType": "enum ICommon.Direct",
          "name": "orderType",
          "type": "uint8"
        },
        {
          "indexed": false,
          "internalType": "enum IPerpetual.OrderState",
          "name": "state",
          "type": "uint8"
        },
        {
          "indexed": false,
          "internalType": "enum ICommon.Offset",
          "name": "offset",
          "type": "uint8"
        },
        {
          "indexed": false,
          "internalType": "uint256",
          "name": "amount",
          "type": "uint256"
        },
        {
          "indexed": false,
          "internalType": "uint256",
          "name": "targetPrice",
          "type": "uint256"
        },
        {
          "indexed": false,
          "internalType": "uint256",
          "name": "margin",
          "type": "uint256"
        },
        {
          "indexed": false,
          "internalType": "uint256",
          "name": "rewardGas",
          "type": "uint256"
        },
        {
          "indexed": false,
          "internalType": "uint256",
          "name": "tradingFee",
          "type": "uint256"
        },
        {
          "indexed": false,
          "internalType": "uint256",
          "name": "startTime",
          "type": "uint256"
        },
        {
          "indexed": false,
          "internalType": "uint256",
          "name": "goodTill",
          "type": "uint256"
        }
      ],
      "name": "CreateLimitedOrder",
      "type": "event"
    },
    {
      "anonymous": false,
      "inputs": [
        {
          "indexed": false,
          "internalType": "uint256",
          "name": "limitOrderID",
          "type": "uint256"
        },
        {
          "indexed": false,
          "internalType": "uint256",
          "name": "openLimitPrice",
          "type": "uint256"
        },
        {
          "indexed": false,
          "internalType": "uint256",
          "name": "gainTriggerPrice",
          "type": "uint256"
        },
        {
          "indexed": false,
          "internalType": "uint256",
          "name": "gainLimitPrice",
          "type": "uint256"
        },
        {
          "indexed": false,
          "internalType": "uint256",
          "name": "lossTriggerPrice",
          "type": "uint256"
        },
        {
          "indexed": false,
          "internalType": "uint256",
          "name": "lossLimitPrice",
          "type": "uint256"
        }
      ],
      "name": "CreateTriggerCondition",
      "type": "event"
    },
    {
      "anonymous": false,
      "inputs": [
        {
          "indexed": false,
          "internalType": "uint256",
          "name": "code",
          "type": "uint256"
        },
        {
          "indexed": false,
          "internalType": "uint256",
          "name": "orderID",
          "type": "uint256"
        },
        {
          "indexed": false,
          "internalType": "string",
          "name": "message",
          "type": "string"
        }
      ],
      "name": "ErrorInfo",
      "type": "event"
    },
    {
      "anonymous": false,
      "inputs": [
        {
          "indexed": false,
          "internalType": "uint256",
          "name": "code",
          "type": "uint256"
        },
        {
          "indexed": false,
          "internalType": "uint256",
          "name": "orderID",
          "type": "uint256"
        },
        {
          "indexed": false,
          "internalType": "bytes",
          "name": "message",
          "type": "bytes"
        }
      ],
      "name": "ExceptErrorInfo",
      "type": "event"
    },
    {
      "anonymous": false,
      "inputs": [
        {
          "indexed": false,
          "internalType": "uint64",
          "name": "version",
          "type": "uint64"
        }
      ],
      "name": "Initialized",
      "type": "event"
    },
    {
      "anonymous": false,
      "inputs": [
        {
          "indexed": false,
          "internalType": "string",
          "name": "name",
          "type": "string"
        },
        {
          "indexed": true,
          "internalType": "address",
          "name": "taker",
          "type": "address"
        },
        {
          "indexed": true,
          "internalType": "address",
          "name": "token",
          "type": "address"
        },
        {
          "indexed": false,
          "internalType": "uint256",
          "name": "orderID",
          "type": "uint256"
        },
        {
          "indexed": false,
          "internalType": "enum ICommon.Direct",
          "name": "orderType",
          "type": "uint8"
        },
        {
          "indexed": false,
          "internalType": "enum IPerpetual.OrderState",
          "name": "state",
          "type": "uint8"
        },
        {
          "indexed": false,
          "internalType": "enum ICommon.Offset",
          "name": "offset",
          "type": "uint8"
        },
        {
          "indexed": false,
          "internalType": "uint256",
          "name": "amount",
          "type": "uint256"
        },
        {
          "indexed": false,
          "internalType": "uint256",
          "name": "targetPrice",
          "type": "uint256"
        },
        {
          "indexed": false,
          "internalType": "uint256",
          "name": "margin",
          "type": "uint256"
        },
        {
          "indexed": false,
          "internalType": "uint256",
          "name": "rewardGas",
          "type": "uint256"
        },
        {
          "indexed": false,
          "internalType": "uint256",
          "name": "tradingFee",
          "type": "uint256"
        },
        {
          "indexed": false,
          "internalType": "uint256",
          "name": "startTime",
          "type": "uint256"
        },
        {
          "indexed": false,
          "internalType": "uint256",
          "name": "goodTill",
          "type": "uint256"
        }
      ],
      "name": "LimitedOrderHistory",
      "type": "event"
    },
    {
      "anonymous": false,
      "inputs": [
        {
          "indexed": true,
          "internalType": "address",
          "name": "taker",
          "type": "address"
        },
        {
          "indexed": false,
          "internalType": "string",
          "name": "name",
          "type": "string"
        },
        {
          "indexed": false,
          "internalType": "address",
          "name": "token",
          "type": "address"
        },
        {
          "indexed": false,
          "internalType": "uint256",
          "name": "orderID",
          "type": "uint256"
        },
        {
          "indexed": false,
          "internalType": "enum ICommon.Direct",
          "name": "direction",
          "type": "uint8"
        },
        {
          "indexed": false,
          "internalType": "enum IPerpetual.OrderType",
          "name": "orderType",
          "type": "uint8"
        },
        {
          "indexed": false,
          "internalType": "uint256",
          "name": "amount",
          "type": "uint256"
        },
        {
          "indexed": false,
          "internalType": "uint256",
          "name": "costPrice",
          "type": "uint256"
        },
        {
          "indexed": false,
          "internalType": "uint256",
          "name": "price",
          "type": "uint256"
        },
        {
          "indexed": false,
          "internalType": "uint256",
          "name": "tradingFee",
          "type": "uint256"
        },
        {
          "indexed": false,
          "internalType": "uint256",
          "name": "limitOrderId",
          "type": "uint256"
        },
        {
          "indexed": false,
          "internalType": "uint256",
          "name": "timestamp",
          "type": "uint256"
        }
      ],
      "name": "OrderHistory",
      "type": "event"
    },
    {
      "anonymous": false,
      "inputs": [
        {
          "indexed": true,
          "internalType": "address",
          "name": "previousOwner",
          "type": "address"
        },
        {
          "indexed": true,
          "internalType": "address",
          "name": "newOwner",
          "type": "address"
        }
      ],
      "name": "OwnershipTransferred",
      "type": "event"
    },
    {
      "anonymous": false,
      "inputs": [
        {
          "indexed": false,
          "internalType": "address",
          "name": "token",
          "type": "address"
        },
        {
          "indexed": false,
          "internalType": "uint256",
          "name": "orderID",
          "type": "uint256"
        },
        {
          "indexed": false,
          "internalType": "uint256",
          "name": "dealID",
          "type": "uint256"
        },
        {
          "indexed": false,
          "internalType": "enum IPerpetual.TradeType",
          "name": "tradeType",
          "type": "uint8"
        },
        {
          "indexed": false,
          "internalType": "uint256",
          "name": "amount",
          "type": "uint256"
        },
        {
          "indexed": false,
          "internalType": "uint256",
          "name": "price",
          "type": "uint256"
        },
        {
          "indexed": false,
          "internalType": "uint256",
          "name": "tradingFee",
          "type": "uint256"
        },
        {
          "indexed": false,
          "internalType": "uint256",
          "name": "profit",
          "type": "uint256"
        },
        {
          "indexed": false,
          "internalType": "uint256",
          "name": "loss",
          "type": "uint256"
        },
        {
          "indexed": false,
          "internalType": "uint256",
          "name": "timestamp",
          "type": "uint256"
        }
      ],
      "name": "TradeHistory",
      "type": "event"
    },
    {
      "anonymous": false,
      "inputs": [
        {
          "indexed": true,
          "internalType": "address",
          "name": "token",
          "type": "address"
        },
        {
          "indexed": true,
          "internalType": "address",
          "name": "sender",
          "type": "address"
        },
        {
          "indexed": true,
          "internalType": "address",
          "name": "received",
          "type": "address"
        },
        {
          "indexed": false,
          "internalType": "enum ICommon.TransactionType",
          "name": "transactionType",
          "type": "uint8"
        },
        {
          "indexed": false,
          "internalType": "uint256",
          "name": "amount",
          "type": "uint256"
        },
        {
          "indexed": false,
          "internalType": "uint256",
          "name": "timestamp",
          "type": "uint256"
        }
      ],
      "name": "TransactionHistory",
      "type": "event"
    },
    {
      "anonymous": false,
      "inputs": [
        {
          "indexed": false,
          "internalType": "address",
          "name": "token",
          "type": "address"
        },
        {
          "indexed": false,
          "internalType": "address",
          "name": "sender",
          "type": "address"
        },
        {
          "indexed": false,
          "internalType": "address",
          "name": "received",
          "type": "address"
        },
        {
          "indexed": false,
          "internalType": "enum ICommon.TransactionType",
          "name": "transactionType",
          "type": "uint8"
        },
        {
          "indexed": false,
          "internalType": "uint256",
          "name": "amount",
          "type": "uint256"
        },
        {
          "indexed": false,
          "internalType": "uint256",
          "name": "timestamp",
          "type": "uint256"
        }
      ],
      "name": "TransferFee",
      "type": "event"
    },
    {
      "anonymous": false,
      "inputs": [
        {
          "indexed": false,
          "internalType": "address",
          "name": "sender",
          "type": "address"
        },
        {
          "indexed": false,
          "internalType": "string",
          "name": "name",
          "type": "string"
        },
        {
          "indexed": false,
          "internalType": "uint256",
          "name": "beforeLeverage",
          "type": "uint256"
        },
        {
          "indexed": false,
          "internalType": "uint256",
          "name": "afterLeverage",
          "type": "uint256"
        }
      ],
      "name": "setLeverage",
      "type": "event"
    },
    {
      "stateMutability": "nonpayable",
      "type": "fallback"
    },
    {
      "inputs": [],
      "name": "buybackAddr",
      "outputs": [
        {
          "internalType": "address",
          "name": "",
          "type": "address"
        }
      ],
      "stateMutability": "view",
      "type": "function"
    },
    {
      "inputs": [
        {
          "internalType": "uint256[]",
          "name": "_orderIDs",
          "type": "uint256[]"
        }
      ],
      "name": "cancelOrders",
      "outputs": [],
      "stateMutability": "nonpayable",
      "type": "function"
    },
    {
      "inputs": [
        {
          "internalType": "string",
          "name": "_name",
          "type": "string"
        },
        {
          "internalType": "uint256",
          "name": "_amount",
          "type": "uint256"
        },
        {
          "internalType": "uint256",
          "name": "_orderType",
          "type": "uint256"
        },
        {
          "internalType": "uint256",
          "name": "_price",
          "type": "uint256"
        },
        {
          "internalType": "enum ICommon.Direct",
          "name": "_type",
          "type": "uint8"
        },
        {
          "internalType": "uint256",
          "name": "_goodTill",
          "type": "uint256"
        },
        {
          "internalType": "uint256",
          "name": "_deadline",
          "type": "uint256"
        },
        {
          "internalType": "bytes",
          "name": "_priceUpdate",
          "type": "bytes"
        }
      ],
      "name": "closePosition",
      "outputs": [],
      "stateMutability": "payable",
      "type": "function"
    },
    {
      "inputs": [
        {
          "internalType": "uint256",
          "name": "_amount",
          "type": "uint256"
        }
      ],
      "name": "deposit",
      "outputs": [],
      "stateMutability": "nonpayable",
      "type": "function"
    },
    {
      "inputs": [
        {
          "internalType": "address",
          "name": "_takerAddress",
          "type": "address"
        },
        {
          "internalType": "uint256",
          "name": "_stage",
          "type": "uint256"
        }
      ],
      "name": "emitTakerBalance",
      "outputs": [],
      "stateMutability": "nonpayable",
      "type": "function"
    },
    {
      "inputs": [],
      "name": "fiatTokenAddr",
      "outputs": [
        {
          "internalType": "address",
          "name": "",
          "type": "address"
        }
      ],
      "stateMutability": "view",
      "type": "function"
    },
    {
      "inputs": [],
      "name": "getTradingPairs",
      "outputs": [
        {
          "internalType": "string[]",
          "name": "",
          "type": "string[]"
        }
      ],
      "stateMutability": "view",
      "type": "function"
    },
    {
      "inputs": [
        {
          "internalType": "string",
          "name": "_name",
          "type": "string"
        }
      ],
      "name": "getUnderlying",
      "outputs": [
        {
          "internalType": "contract Underlying",
          "name": "",
          "type": "address"
        }
      ],
      "stateMutability": "view",
      "type": "function"
    },
    {
      "inputs": [
        {
          "internalType": "address",
          "name": "_taker",
          "type": "address"
        }
      ],
      "name": "getUserAccount",
      "outputs": [
        {
          "components": [
            {
              "internalType": "uint256",
              "name": "depositAmount",
              "type": "uint256"
            },
            {
              "internalType": "uint256",
              "name": "availableAmount",
              "type": "uint256"
            },
            {
              "internalType": "uint256",
              "name": "marginAmount",
              "type": "uint256"
            },
            {
              "internalType": "uint256",
              "name": "orderLocked",
              "type": "uint256"
            },
            {
              "internalType": "uint256",
              "name": "lastTime",
              "type": "uint256"
            }
          ],
          "internalType": "struct IPerpetual.AccountInfo",
          "name": "user",
          "type": "tuple"
        }
      ],
      "stateMutability": "view",
      "type": "function"
    },
    {
      "inputs": [],
      "name": "getUserAddress",
      "outputs": [
        {
          "internalType": "address[]",
          "name": "",
          "type": "address[]"
        }
      ],
      "stateMutability": "view",
      "type": "function"
    },
    {
      "inputs": [
        {
          "internalType": "address",
          "name": "_user",
          "type": "address"
        },
        {
          "internalType": "string",
          "name": "_name",
          "type": "string"
        }
      ],
      "name": "getUserLeverage",
      "outputs": [
        {
          "internalType": "uint256",
          "name": "",
          "type": "uint256"
        }
      ],
      "stateMutability": "view",
      "type": "function"
    },
    {
      "inputs": [
        {
          "internalType": "address",
          "name": "initialOwner",
          "type": "address"
        },
        {
          "internalType": "address",
          "name": "_priPool",
          "type": "address"
        },
        {
          "internalType": "address",
          "name": "_riskFundAddr",
          "type": "address"
        },
        {
          "internalType": "address",
          "name": "_fiatTokenAddr",
          "type": "address"
        },
        {
          "internalType": "address",
          "name": "_tradeFeeAddr",
          "type": "address"
        },
        {
          "internalType": "address",
          "name": "_platformTradeFeeAddr",
          "type": "address"
        }
      ],
      "name": "initialize",
      "outputs": [],
      "stateMutability": "nonpayable",
      "type": "function"
    },
    {
      "inputs": [
        {
          "internalType": "uint256[]",
          "name": "_dealIDs",
          "type": "uint256[]"
        },
        {
          "internalType": "string[]",
          "name": "_symbols",
          "type": "string[]"
        },
        {
          "internalType": "bytes[]",
          "name": "_priceUpdate",
          "type": "bytes[]"
        }
      ],
      "name": "liquidateMakerDeals",
      "outputs": [],
      "stateMutability": "payable",
      "type": "function"
    },
    {
      "inputs": [
        {
          "internalType": "address[]",
          "name": "_taker",
          "type": "address[]"
        },
        {
          "internalType": "string[]",
          "name": "_symbols",
          "type": "string[]"
        },
        {
          "internalType": "bytes[]",
          "name": "_priceUpdate",
          "type": "bytes[]"
        }
      ],
      "name": "liquidateTaker",
      "outputs": [],
      "stateMutability": "payable",
      "type": "function"
    },
    {
      "inputs": [],
      "name": "maintenanceMarginRate",
      "outputs": [
        {
          "internalType": "uint256",
          "name": "",
          "type": "uint256"
        }
      ],
      "stateMutability": "view",
      "type": "function"
    },
    {
      "inputs": [],
      "name": "owner",
      "outputs": [
        {
          "internalType": "address",
          "name": "",
          "type": "address"
        }
      ],
      "stateMutability": "view",
      "type": "function"
    },
    {
      "inputs": [],
      "name": "platformTradeFeeAddr",
      "outputs": [
        {
          "internalType": "address",
          "name": "",
          "type": "address"
        }
      ],
      "stateMutability": "view",
      "type": "function"
    },
    {
      "inputs": [],
      "name": "renounceOwnership",
      "outputs": [],
      "stateMutability": "nonpayable",
      "type": "function"
    },
    {
      "inputs": [],
      "name": "riskFundAddr",
      "outputs": [
        {
          "internalType": "address",
          "name": "",
          "type": "address"
        }
      ],
      "stateMutability": "view",
      "type": "function"
    },
    {
      "inputs": [
        {
          "internalType": "address",
          "name": "_buyBack",
          "type": "address"
        },
        {
          "internalType": "address",
          "name": "_orderBook",
          "type": "address"
        },
        {
          "internalType": "address",
          "name": "_tradeAgent",
          "type": "address"
        },
        {
          "internalType": "address",
          "name": "_tradeStation",
          "type": "address"
        },
        {
          "internalType": "address",
          "name": "_marketAgent",
          "type": "address"
        },
        {
          "internalType": "address",
          "name": "_keeper1",
          "type": "address"
        }
      ],
      "name": "setKeepers",
      "outputs": [],
      "stateMutability": "nonpayable",
      "type": "function"
    },
    {
      "inputs": [
        {
          "internalType": "address",
          "name": "_platform",
          "type": "address"
        },
        {
          "internalType": "address",
          "name": "_tradeFee",
          "type": "address"
        },
        {
          "internalType": "bool",
          "name": "_mergeRemainingFeeToBuyBack",
          "type": "bool"
        }
      ],
      "name": "setTradeFeeAddr",
      "outputs": [],
      "stateMutability": "nonpayable",
      "type": "function"
    },
    {
      "inputs": [
        {
          "internalType": "string",
          "name": "_name",
          "type": "string"
        },
        {
          "internalType": "address",
          "name": "_underlying",
          "type": "address"
        }
      ],
      "name": "setUnderlying",
      "outputs": [],
      "stateMutability": "nonpayable",
      "type": "function"
    },
    {
      "inputs": [
        {
          "internalType": "string",
          "name": "_name",
          "type": "string"
        },
        {
          "internalType": "uint256",
          "name": "_leverage",
          "type": "uint256"
        }
      ],
      "name": "setUserLeverage",
      "outputs": [],
      "stateMutability": "nonpayable",
      "type": "function"
    },
    {
      "inputs": [
        {
          "internalType": "address",
          "name": "takerAddr",
          "type": "address"
        },
        {
          "internalType": "uint256",
          "name": "tradingFee",
          "type": "uint256"
        }
      ],
      "name": "splitTradeFee",
      "outputs": [],
      "stateMutability": "nonpayable",
      "type": "function"
    },
    {
      "inputs": [
        {
          "internalType": "string",
          "name": "_name",
          "type": "string"
        },
        {
          "internalType": "uint256",
          "name": "_amount",
          "type": "uint256"
        },
        {
          "internalType": "enum ICommon.Direct",
          "name": "_type",
          "type": "uint8"
        },
        {
          "internalType": "enum ICommon.Offset",
          "name": "_offset",
          "type": "uint8"
        },
        {
          "internalType": "uint256",
          "name": "_param1",
          "type": "uint256"
        },
        {
          "internalType": "uint256",
          "name": "_param2",
          "type": "uint256"
        },
        {
          "internalType": "uint256",
          "name": "_param3",
          "type": "uint256"
        },
        {
          "internalType": "uint256",
          "name": "_param4",
          "type": "uint256"
        },
        {
          "internalType": "uint256",
          "name": "_goodTill",
          "type": "uint256"
        },
        {
          "internalType": "uint256",
          "name": "_deadline",
          "type": "uint256"
        }
      ],
      "name": "stopTakeOrder",
      "outputs": [],
      "stateMutability": "payable",
      "type": "function"
    },
    {
      "inputs": [],
      "name": "tradeFeeAddr",
      "outputs": [
        {
          "internalType": "address",
          "name": "",
          "type": "address"
        }
      ],
      "stateMutability": "view",
      "type": "function"
    },
    {
      "inputs": [
        {
          "internalType": "string",
          "name": "_name",
          "type": "string"
        },
        {
          "internalType": "uint256",
          "name": "_amount",
          "type": "uint256"
        },
        {
          "internalType": "uint256",
          "name": "_price",
          "type": "uint256"
        },
        {
          "internalType": "uint256",
          "name": "_orderType",
          "type": "uint256"
        },
        {
          "internalType": "enum ICommon.Direct",
          "name": "_type",
          "type": "uint8"
        },
        {
          "internalType": "address",
          "name": "_inviter",
          "type": "address"
        },
        {
          "internalType": "uint256",
          "name": "_goodTill",
          "type": "uint256"
        },
        {
          "internalType": "uint256",
          "name": "_deadline",
          "type": "uint256"
        },
        {
          "internalType": "bytes",
          "name": "_priceUpdate",
          "type": "bytes"
        }
      ],
      "name": "tradeFutures",
      "outputs": [],
      "stateMutability": "payable",
      "type": "function"
    },
    {
      "inputs": [
        {
          "internalType": "address",
          "name": "newOwner",
          "type": "address"
        }
      ],
      "name": "transferOwnership",
      "outputs": [],
      "stateMutability": "nonpayable",
      "type": "function"
    },
    {
      "inputs": [
        {
          "internalType": "uint256[]",
          "name": "_orderIDs",
          "type": "uint256[]"
        },
        {
          "internalType": "string[]",
          "name": "_symbols",
          "type": "string[]"
        },
        {
          "internalType": "bytes[]",
          "name": "_priceUpdate",
          "type": "bytes[]"
        }
      ],
      "name": "triggerOrders",
      "outputs": [],
      "stateMutability": "payable",
      "type": "function"
    },
    {
      "inputs": [
        {
          "internalType": "address",
          "name": "_taker",
          "type": "address"
        },
        {
          "components": [
            {
              "internalType": "uint256",
              "name": "depositAmount",
              "type": "uint256"
            },
            {
              "internalType": "uint256",
              "name": "availableAmount",
              "type": "uint256"
            },
            {
              "internalType": "uint256",
              "name": "marginAmount",
              "type": "uint256"
            },
            {
              "internalType": "uint256",
              "name": "orderLocked",
              "type": "uint256"
            },
            {
              "internalType": "uint256",
              "name": "lastTime",
              "type": "uint256"
            }
          ],
          "internalType": "struct IPerpetual.AccountInfo",
          "name": "userInfo",
          "type": "tuple"
        }
      ],
      "name": "updateUserAsset",
      "outputs": [],
      "stateMutability": "nonpayable",
      "type": "function"
    },
    {
      "inputs": [
        {
          "internalType": "uint256",
          "name": "_amount",
          "type": "uint256"
        },
        {
          "internalType": "string[]",
          "name": "_symbols",
          "type": "string[]"
        },
        {
          "internalType": "bytes[]",
          "name": "_priceUpdate",
          "type": "bytes[]"
        }
      ],
      "name": "withdraw",
      "outputs": [],
      "stateMutability": "payable",
      "type": "function"
    }
  ],
  "bytecode": "0x60808060405234601557613ce8908161001b8239f35b600080fdfe6080604052600436101561001a575b3461001557005b600080fd5b6000803560e01c806305ca57cf14611fd45780630c41899814611fad5780632ca4305114611f865780632f1cc4d014611cd85780633851969e14611c2157806338a1398614611ad6578063402d712c14611a64578063708b8d86146117ce578063715018a61461173557806389f00b6d146117175780638da5cb5b146116d15780639048f2e0146115f85780639c59b33a1461153a578063a40cb4ca14611330578063a70dc3fe14611309578063b55fb5741461122d578063b6b55f251461108c578063c8f5ede214610da2578063c9f35c3914610cd8578063cc2a9a5b1461089c578063cd2ce4ae1461077f578063d1937e3d14610741578063d895797814610660578063e08061b314610639578063e1fb28b8146105ba578063e59786861461044d578063ebc3eee814610385578063f2fde38b14610358578063f348285b14610331578063f74c3049146102345763fb47e0161461017b575061000e565b3461023157602060031936011261023157604060a0916001600160a01b036101a1612285565b82608085516101af8161203b565b82815282602082015282878201528260608201520152168152600a602052206040516101da8161203b565b81549182825260018101546020830190815260028201549060408401918252608060046003850154946060870195865201549401938452604051948552516020850152516040840152516060830152516080820152f35b80fd5b5034610231576001600160a01b0380808080806102503661229b565b9994610261989394929691986135b2565b166001600160a01b0319601054161760105516806001600160a01b031960055416176005558952600960205260408920600160ff1982541617905516806001600160a01b031960065416176006558752600960205260408720600160ff1982541617905516806001600160a01b031960085416176008558552600960205260408520600160ff1982541617905516806001600160a01b031960075416176007558352600960205260408320600160ff19825416179055168152600960205260408120600160ff1982541617905580f35b503461023157806003193601126102315760206001600160a01b0360115416604051908152f35b503461023157602060031936011261023157610382610375612285565b61037d6135b2565b61303e565b80f35b5034610231578060031936011261023157604051806020600e5491828152018091600e85527fbb7b4a454dc3493923482f07822329ed19e8244eff582cc204f8554c3620c3fd90855b81811061042e57505050826103e4910383612057565b604051928392602084019060208552518091526040840192915b81811061040c575050500390f35b82516001600160a01b03168452859450602093840193909201916001016103fe565b82546001600160a01b03168452602090930192600192830192016103ce565b506101006003193601126102315760043567ffffffffffffffff81116105b65761047b903690600401612096565b8160443591606435906084359160038310156105b25760e43567ffffffffffffffff81116105ae576104b1903690600401612096565b906104ba61331a565b6104c84260c4351015612456565b348187610599575050506104dc9082613a6f565b9183905b6001600160a01b036008541691823b1561059557859461053a82604051998a97889687957f274889e1000000000000000000000000000000000000000000000000000000008752339360a435936024359060048a016127e4565b03925af1801561058857610570575b60017f9b779b17422d0df92223018b32b4d1fa46e071723d6817e2486d003becc55f005580f35b61057991612057565b80600012610231573881610549565b50604051903d90823e3d90fd5b8580fd5b6105a99193509491941515612799565b6104e0565b8480fd5b8380fd5b5080fd5b5034610231576040600319360112610231576105d4612285565b60243567ffffffffffffffff81116106355760406020936001600160a01b03610604610613943690600401612096565b94168152600c855220826123c2565b54908115610625575b50604051908152f35b61062f91506130fd565b3861061c565b8280fd5b503461023157806003193601126102315760206001600160a01b0360125416604051908152f35b5060606003193601126102315760043567ffffffffffffffff81116105b657366023820112156105b6578060040135610698816120db565b916106a66040519384612057565b8183526024602084019260051b820101903682116105ae57602401915b8183106107215750505060243567ffffffffffffffff8111610635576106ed903690600401612150565b6044359167ffffffffffffffff83116105b2576107116105499336906004016121cf565b92909161071c61331a565b612b86565b82356001600160a01b0381168103610015578152602092830192016106c3565b50346102315760406003193601126102315761038261075e612285565b338352600960205261077660ff6040852054166124c1565b6024359061286b565b5034610231578060031936011261023157600d5461079c816120db565b906107aa6040519283612057565b808252600d83527fd7b6990105719101dabeb77144f2a3385c8033acd3af97e9423a695e81ad1eb59280602084015b8383106107fa57604051602080825281906107f690820188612369565b0390f35b6040518287546108098161250c565b80845290600181169081156108795750600114610843575b506001928261083585946020940382612057565b8152019601920191946107d9565b888552602085208592505b81831061086357505081016020016001610821565b600181602092548386880101520192019161084e565b60ff191660208581019190915291151560051b8401909101915060019050610821565b5034610231576108ab3661229b565b9195939492907ff0c57e16840df040f15088dc2f81fe391c3923bec73e23a9662efc9c229c6a00549560ff8760401c16159667ffffffffffffffff811680159081610cd0575b6001149081610cc6575b159081610cbd575b50610c95576001600160a01b0394939192858094838b60017fffffffffffffffffffffffffffffffffffffffffffffffff0000000000000000859716177ff0c57e16840df040f15088dc2f81fe391c3923bec73e23a9662efc9c229c6a0055610c40575b50610970613c59565b610978613c59565b6109813361303e565b610989613c59565b610991613c59565b60017f9b779b17422d0df92223018b32b4d1fa46e071723d6817e2486d003becc55f00556109bd6135b2565b6109c68961303e565b16806001600160a01b031960045416176004558852600960205260408820600160ff19825416179055166001600160a01b03196012541617601255166001600160a01b031960115416176011558186166001600160a01b0319600f541617600f55166001600160a01b0319601354161760135581806001600160a01b036004541695604096827fffffffff00000000000000000000000000000000000000000000000000000000601860208b51610a7d8d82612057565b828152017f617070726f766528616464726573732c75696e743235362900000000000000008152201691895190602082019384526024820152600019604482015260448152610acd606482612057565b51925af1610ad9613613565b81610c09575b50156105b6576001600160a01b03903083526009602052848320600160ff198254161790551681526009602052828120600160ff19825416179055670de0b6b3a7640000815566038d7ea4c6800060015567016345785d8a0000600255506702c68af0bb1400006003557fffffffffffffffffffffff00ffffffffffffffffffffffffffffffffffffffff60085416600855610b7757005b60207fc7f505b2f371ae2175ee4913f4499e1f2633a7b5936321eed1cdaeb6115181d2917fffffffffffffffffffffffffffffffffffffffffffffff00ffffffffffffffff7ff0c57e16840df040f15088dc2f81fe391c3923bec73e23a9662efc9c229c6a0054167ff0c57e16840df040f15088dc2f81fe391c3923bec73e23a9662efc9c229c6a00555160018152a1005b8051801592508215610c1e575b505038610adf565b8192509060209181010312610635576020610c3991016126f8565b3880610c16565b7fffffffffffffffffffffffffffffffffffffffffffffff0000000000000000001668010000000000000001177ff0c57e16840df040f15088dc2f81fe391c3923bec73e23a9662efc9c229c6a005538610967565b6004877ff92ee8a9000000000000000000000000000000000000000000000000000000008152fd5b90501538610903565b303b1591506108fb565b8991506108f1565b50346102315760c060031936011261023157610cf2612285565b60a07fffffffffffffffffffffffffffffffffffffffffffffffffffffffffffffffdc3601126105b657600460405191610d2b8361203b565b6024358352602083016044358152604084016064358152606085019160843583526001600160a01b03608087019460a43586523389526009602052610d7660ff60408b2054166124c1565b428652168752600a60205260408720955186555160018601555160028501555160038401555191015580f35b50610120600319360112610231578060043567ffffffffffffffff811161108957610dd1903690600401612096565b608435906064359060443560038410156105ae5760a4356001600160a01b038116809103610595576101043567ffffffffffffffff8111610f2357610e1a903690600401612096565b91610e2361331a565b610e314260e4351015612456565b80916001600160a01b03600754169081151580611080575b80610fdd575b610f3c575b505034908515600014610f2757505050610e6e9082613a6f565b9284905b6001600160a01b036008541691823b15610f23578694610ecc82604051988997889687957fdcac2e88000000000000000000000000000000000000000000000000000000008752339360c435936024359060048a016127e4565b03925af18015610f1857610f03575b5060017f9b779b17422d0df92223018b32b4d1fa46e071723d6817e2486d003becc55f005580f35b81610f0d91612057565b610231578038610edb565b6040513d84823e3d90fd5b8680fd5b610f379193509591951515612799565b610e72565b60809060846001600160a01b03600f54168b60405195869485937ff1a78eff000000000000000000000000000000000000000000000000000000008552600485015260248401523360448401528160648401525af18015610fd257610fa2575b80610e54565b610fc39060803d608011610fcb575b610fbb8183612057565b810190612769565b505050610f9c565b503d610fb1565b6040513d8a823e3d90fd5b506040517f147df887000000000000000000000000000000000000000000000000000000008152336004820152602081602481865afa8015611075578a90611031575b6001600160a01b0391501615610e4f565b506020813d60201161106d575b8161104b60209383612057565b81010312611069576110646001600160a01b0391612755565b611020565b8980fd5b3d915061103e565b6040513d8c823e3d90fd5b50801515610e49565b50fd5b50346102315760206003193601126102315760043560015481106111e9576110de906110d06110ba306137d9565b916001600160a01b03600f54163090339061390c565b6110d9306137d9565b612569565b338252600a6020526004604083206110f533612576565b611100838254612546565b815560018101611111848254612546565b905501805415611171575b5061112633612637565b600f546040519160018352602083015242604083015230917feb42cf637f927243245c50b4bf7fe105fe4f4d26209102240f2ba3d8e27a7df860606001600160a01b0333941692a480f35b429055600e54680100000000000000008110156111d55760018101600e55600e548110156111c157600e8352602083200180548360031b906001600160a01b0333831b921b19161790553861111c565b602483634e487b7160e01b81526032600452fd5b602483634e487b7160e01b81526041600452fd5b606460405162461bcd60e51b815260206004820152601860248201527f6465706f73697420616d6f756e7420746f6f20736d616c6c00000000000000006044820152fd5b50346102315760206003193601126102315760043567ffffffffffffffff81116105b65761125f9036906004016120f3565b81805b8251811015611305576001600160a01b0360065416611281828561272b565b51813b156105b25783916064839260405194859384927fc2b3356400000000000000000000000000000000000000000000000000000000845260048401523360248401528160448401525af19081156112fa5783916112e5575b5050600101611262565b816112ef91612057565b6105b65781386112db565b6040513d85823e3d90fd5b5080f35b503461023157806003193601126102315760206001600160a01b0360135416604051908152f35b5060606003193601126102315760043560243567ffffffffffffffff811161063557611360903690600401612150565b60443567ffffffffffffffff81116105b2576113e261138560409236906004016121cf565b929093338752600a602052818720946113ac88956001600160a01b03600654169284613393565b9183518095819482937f9aa59c650000000000000000000000000000000000000000000000000000000084523360048501612705565b03915afa90811561152f57859086926114ee575b50156114e6575b5061140733612576565b600182019161141883549285612546565b82106114a257611436918161142f86809454612569565b9055612569565b905561144e81336001600160a01b03600f5416613643565b61145733612637565b600f546040519160028352602083015242604083015233917feb42cf637f927243245c50b4bf7fe105fe4f4d26209102240f2ba3d8e27a7df860606001600160a01b0330941692a480f35b606460405162461bcd60e51b815260206004820152601960248201527f776974686472657720616d6f756e7420746f6f206c61726765000000000000006044820152fd5b9050386113fd565b9150506040813d604011611527575b8161150a60409383612057565b810103126105ae57602061151d826126f8565b91015190386113f6565b3d91506114fd565b6040513d87823e3d90fd5b503461023157606060031936011261023157611554612285565b61155c61226f565b604435918215158093036105b2576001600160a01b038092338652600960205261158c60ff6040882054166124c1565b166001600160a01b03196012541617601255166001600160a01b031960135416176013557fffffffffffffffffffffff00ffffffffffffffffffffffffffffffffffffffff74ff00000000000000000000000000000000000000006008549260a01b1691161760085580f35b5034610231576040600319360112610231577f978f5a06b7f22ed0a8d1bfc4c6d9d44b320a6f206eb9dde65c1de4dc27f48cc060e06001600160a01b0361163d612285565b16808452600a602052604084206001810154600282015461165e8183612546565b9161166e60038501548094612546565b935493808511156116b0576116839085612569565b935b604051958652602086015260408501526060840152608083015260243560a083015260c0820152a180f35b84818110156116c8576116c291612569565b93611685565b50508793611685565b503461023157806003193601126102315760206001600160a01b037f9016d09d72d40fdae2fd8ceac6b6234c7706214fd39c1cd1e609a0528c1993005416604051908152f35b50346102315780600319360112610231576020600254604051908152f35b503461023157806003193601126102315761174e6135b2565b806001600160a01b037f9016d09d72d40fdae2fd8ceac6b6234c7706214fd39c1cd1e609a0528c199300546001600160a01b031981167f9016d09d72d40fdae2fd8ceac6b6234c7706214fd39c1cd1e609a0528c19930055167f8be0079c531659141344cd1fd0a4f28419497f9722a3daafe3b4186f6b6457e08280a380f35b50346102315760406003193601126102315760043567ffffffffffffffff81116105b657611800903690600401612096565b61180861226f565b90338352600960205261182160ff6040852054166124c1565b604051906001600160a01b0381519260208181850195611842818389612321565b8101600b815203019020541615611892575b60206001600160a01b039261187492604051938492839251928391612321565b8101600b81520301902091166001600160a01b031982541617905580f35b600d5468010000000000000000811015611a505760018101600d55600d54811015611a3c57600d85527fd7b6990105719101dabeb77144f2a3385c8033acd3af97e9423a695e81ad1eb50184611a2957815167ffffffffffffffff8111611a13576118fd825461250c565b601f81116119cb575b506020601f82116001146119575792602092826001600160a01b0396936118749660009161194c575b506000198260011b9260031b1c19161790555b9250925050611854565b90508301513861192f565b601f1982169083600052806000209160005b8181106119b35750836118749693602096936001600160a01b0399966001941061199a575b5050811b019055611942565b85015160001960f88460031b161c19169055388061198e565b9192602060018192868a015181550194019201611969565b826000526020600020601f830160051c81019160208410611a09575b601f0160051c01905b8181106119fd5750611906565b600081556001016119f0565b90915081906119e7565b634e487b7160e01b600052604160045260246000fd5b602485634e487b7160e01b815280600452fd5b602485634e487b7160e01b81526032600452fd5b602485634e487b7160e01b81526041600452fd5b5080611a91611a7236612200565b611a7e9491929461331a565b6001600160a01b03600854169285613393565b90803b156105ae57610ecc93858094604051968795869485937fbcef60d70000000000000000000000000000000000000000000000000000000085526004850161241c565b50610140600319360112610231578060043567ffffffffffffffff811161108957611b05903690600401612096565b604435906003821015611c1d576064356003811015611c1b57611b2661331a565b611b3542610124351015612456565b6001600160a01b0360085416803b156105ae57611b8d8593604051958694859384937feff6d7c30000000000000000000000000000000000000000000000000000000085526101406004860152610144850190612344565b916024356024850152611b9f816124a1565b6044840152611bad816124a1565b6064830152608435608483015260a43560a483015260c43560c483015260e43560e48301526101043561010483015233610124830152039134905af18015610f1857610f03575060017f9b779b17422d0df92223018b32b4d1fa46e071723d6817e2486d003becc55f005580f35b505b5050fd5b50611c4e81611c2f36612200565b611c3b9591929561331a565b6001600160a01b03600654169286613393565b90803b156105b257611c9394848094604051978895869485937feb4f2e360000000000000000000000000000000000000000000000000000000085526004850161241c565b03925af1801561058857611cc85760017f9b779b17422d0df92223018b32b4d1fa46e071723d6817e2486d003becc55f005580f35b611cd191612057565b3881610549565b50346102315760406003193601126102315760043567ffffffffffffffff81116105b657611d0a903690600401612096565b60243590338352600a602052608060408420600460405191611d2b8361203b565b805483526001810154602084015260028101546040840152600381015460608401520154918291015215611f4257611d62816130fd565b8215159081611f37575b5015611ef3576005546001600160a01b0316835b60028110611e06575050611e0290338452600c6020527f5f8b52a1e1daf1e1c1964bd91dcd938674bfde2807e4278de95a2f3e94d58ad9611dc460408620836123c2565b54604051809133825260806020830152611de16080830186612344565b9060408301528660608301520390a1338452600c60205260408420906123c2565b5580f35b6040517f0c8c35160000000000000000000000000000000000000000000000000000000081523360048201526060602482015260808180611e4a6064820188612344565b8560448301520381865afa908115611ee8578691611eb4575b50611e7057600101611d80565b606460405162461bcd60e51b815260206004820152600960248201527f68617320617373657400000000000000000000000000000000000000000000006044820152fd5b90506080813d8211611ee0575b81611ece60809383612057565b81010312610595576020015138611e63565b3d9150611ec1565b6040513d88823e3d90fd5b606460405162461bcd60e51b815260206004820152601560248201527f6c65766572616765206f7574206f6620312d31303000000000000000000000006044820152fd5b905082111538611d6c565b606460405162461bcd60e51b815260206004820152601260248201527f75736572206973206e6f742065786973747300000000000000000000000000006044820152fd5b503461023157806003193601126102315760206001600160a01b03600f5416604051908152f35b503461023157806003193601126102315760206001600160a01b0360105416604051908152f35b5034610231576020600319360112610231576004359067ffffffffffffffff82116102315760206001600160a01b03612027826120143660048801612096565b8160405193828580945193849201612321565b8101600b8152030190205416604051908152f35b60a0810190811067ffffffffffffffff821117611a1357604052565b90601f601f19910116810190811067ffffffffffffffff821117611a1357604052565b67ffffffffffffffff8111611a1357601f01601f191660200190565b81601f82011215610015576020813591016120b08261207a565b926120be6040519485612057565b828452828201116100155781600092602092838601378301015290565b67ffffffffffffffff8111611a135760051b60200190565b9080601f8301121561001557813561210a816120db565b926121186040519485612057565b81845260208085019260051b82010192831161001557602001905b8282106121405750505090565b8135815260209182019101612133565b9080601f83011215610015578135612167816120db565b926121756040519485612057565b81845260208085019260051b820101918383116100155760208201905b8382106121a157505050505090565b813567ffffffffffffffff8111610015576020916121c487848094880101612096565b815201910190612192565b9181601f840112156100155782359167ffffffffffffffff8311610015576020808501948460051b01011161001557565b60606003198201126100155760043567ffffffffffffffff8111610015578161222b916004016120f3565b9160243567ffffffffffffffff8111610015578261224b91600401612150565b916044359067ffffffffffffffff82116100155761226b916004016121cf565b9091565b602435906001600160a01b038216820361001557565b600435906001600160a01b038216820361001557565b60031960c0910112610015576004356001600160a01b038116810361001557906024356001600160a01b038116810361001557906044356001600160a01b038116810361001557906064356001600160a01b038116810361001557906084356001600160a01b0381168103610015579060a4356001600160a01b03811681036100155790565b60005b8381106123345750506000910152565b8181015183820152602001612324565b90601f19601f60209361236281518092818752878088019101612321565b0116010190565b9080602083519182815201916020808360051b8301019401926000915b83831061239557505050505090565b90919293946020806123b383601f1986600196030187528951612344565b97019301930191939290612386565b6020906123dc928260405194838680955193849201612321565b82019081520301902090565b906020808351928381520192019060005b8181106124065750505090565b82518452602093840193909201916001016123f9565b916124459061243761245395936060865260608601906123e8565b908482036020860152612369565b9160408184039101526123e8565b90565b1561245d57565b606460405162461bcd60e51b815260206004820152600760248201527f65787069726564000000000000000000000000000000000000000000000000006044820152fd5b600311156124ab57565b634e487b7160e01b600052602160045260246000fd5b156124c857565b606460405162461bcd60e51b815260206004820152601e60248201527f63616c6c6572206973206e6f742070657270657475616c206b656570657200006044820152fd5b90600182811c9216801561253c575b602083101461252657565b634e487b7160e01b600052602260045260246000fd5b91607f169161251b565b9190820180921161255357565b634e487b7160e01b600052601160045260246000fd5b9190820391821161255357565b60e06001600160a01b037f978f5a06b7f22ed0a8d1bfc4c6d9d44b320a6f206eb9dde65c1de4dc27f48cc0921680600052600a6020526040600020600181015460028201546125c58183612546565b916125d560038501548094612546565b93549380851115612615576125ea9085612569565b935b6040519586526020860152604085015260608401526080830152600060a083015260c0820152a1565b848181101561262d5761262791612569565b936125ec565b50506000936125ec565b60e06001600160a01b037f978f5a06b7f22ed0a8d1bfc4c6d9d44b320a6f206eb9dde65c1de4dc27f48cc0921680600052600a6020526040600020600181015460028201546126868183612546565b9161269660038501548094612546565b935493808511156126d6576126ab9085612569565b935b6040519586526020860152604085015260608401526080830152600a60a083015260c0820152a1565b84818110156126ee576126e891612569565b936126ad565b50506000936126ad565b5190811515820361001557565b91612445906001600160a01b036124539593168452606060208501526060840190612369565b805182101561273f5760209160051b010190565b634e487b7160e01b600052603260045260246000fd5b51906001600160a01b038216820361001557565b91908260809103126100155761277e82612755565b91602081015191606061279360408401612755565b92015190565b156127a057565b606460405162461bcd60e51b815260206004820152600d60248201527f7072696365206973207a65726f000000000000000000000000000000000000006044820152fd5b94909360e096929998979361280b6001600160a01b03966101008952610100890190612344565b9a602088015260408701526060860152612824816124a1565b608085015260a08401521660c08201520152565b8181029291811591840414171561255357565b8115612855570490565b634e487b7160e01b600052601260045260246000fd5b91909160008315612b80576007546001600160a01b0316938180808088612ad4575b6129439798506128aa6128a260035487612838565b87549061284b565b949182816001600160a01b038416151580612acc575b80612ac3575b612a76575b50505050829080936001600160a01b038416151580612a6d575b80612a64575b612a17575b505050506001600160a01b0360135416908290809383151580612a0e575b80612a05575b6129b8575b50505050908160ff60085460a01c16612946575b505080916001600160a01b036012541690613b2a565b50565b9091506001600160a01b0360105416908092821515806129af575b806129a6575b612976575b505050388061292d565b61299e92935050600b60009361299883826001600160a01b03600f5416613643565b85613753565b38808061296c565b50811515612967565b50811515612961565b6129f193945081116000146129fa576129d382600e92612569565b935b6129eb83826001600160a01b03600f5416613643565b86613753565b38808080612919565b9050600e84936129d5565b50801515612914565b5081151561290e565b612a509394508111600014612a5957612a3282600c92612569565b935b612a4a83826001600160a01b03600f5416613643565b87613753565b388080806128f0565b9050600c8593612a34565b508015156128eb565b508115156128e5565b612aaf9394508111600014612ab857612a9182601192612569565b935b612aa983826001600160a01b03600f5416613643565b89613753565b388080806128cb565b905060118793612a93565b508015156128c6565b5060016128c0565b505050506080829560846001600160a01b03600f541660405198899384927ff1a78eff00000000000000000000000000000000000000000000000000000000845260048401528160248401526001600160a01b03891660448401528660648401525af1948515610f185761294394958391849185918691612b5d575b509091929188975061288d565b92505050612b7a915060803d608011610fcb57610fbb8183612057565b38612b50565b50509050565b9293919360005b8451811015613036576001600160a01b03612ba8828761272b565b511680600052600a602052612bc1604060002054613bb5565b801561302c57612bd082612576565b612bdb848987613393565b6001600160a01b0360065416608060405180927fc254878b0000000000000000000000000000000000000000000000000000000082528180612c22878d8b60048501612705565b03915afa908115612fe757600091612ff3575b50612cfb575b5050907f978f5a06b7f22ed0a8d1bfc4c6d9d44b320a6f206eb9dde65c1de4dc27f48cc060e083600194600052600a6020526040600020858101546002820154612c858183612546565b91612c9560038501548094612546565b93549380851115612cd957612caa9085612569565b935b6040519586526020860152604085015260608401526080830152600b60a083015260c0820152a101612b8d565b8481811015612cf157612ceb91612569565b93612cac565b5050600093612cac565b90612d7e91602087612d176001600160a01b03601154166137d9565b926001600160a01b036008541690600088612d90612d35888a612546565b936040519a8b97889687957f7295751b00000000000000000000000000000000000000000000000000000000875260048701526024860152608060448601526084850190612369565b906003198483030160648501526123e8565b03925af1928315612fe757600093612fb3575b50928260e0928286600198977f978f5a06b7f22ed0a8d1bfc4c6d9d44b320a6f206eb9dde65c1de4dc27f48cc09714600014612e32575050612dfe91506001600160a01b03600f54166001600160a01b036004541690613643565b80600052600a6020526040600020600086820155600081556000600282015560006003820155600442910155929350612c3b565b909181841115612ef55790612e96612ea892612e6f6001600160a01b03600f54166001600160a01b0360115416612e69868a612569565b91613643565b6001600160a01b03600f541690612e69876110d9866001600160a01b036004541694612546565b6001600160a01b036011541693612569565b7feb42cf637f927243245c50b4bf7fe105fe4f4d26209102240f2ba3d8e27a7df860606001600160a01b03600f5460009460405195506008865260208601524260408601521692a4612dfe565b92612f54612f66929394612f2d6001600160a01b03600f54166001600160a01b036011541690612f258689612569565b91309161390c565b6001600160a01b03600f541690612e69846110d9886001600160a01b036004541694612546565b6001600160a01b036011541692612569565b7feb42cf637f927243245c50b4bf7fe105fe4f4d26209102240f2ba3d8e27a7df860606001600160a01b03600f5460009460405195506009865260208601524260408601521692a4612dfe565b90926020823d8211612fdf575b81612fcd60209383612057565b81010312610231575051916001612da3565b3d9150612fc0565b6040513d6000823e3d90fd5b906080823d8211613024575b8161300c60809383612057565b81010312610231575061301e906126f8565b38612c35565b3d9150612fff565b5050505050915050565b505050915050565b6001600160a01b031680156130ce576001600160a01b037f9016d09d72d40fdae2fd8ceac6b6234c7706214fd39c1cd1e609a0528c19930054826001600160a01b03198216177f9016d09d72d40fdae2fd8ceac6b6234c7706214fd39c1cd1e609a0528c19930055167f8be0079c531659141344cd1fd0a4f28419497f9722a3daafe3b4186f6b6457e0600080a3565b7f1e4fbdf700000000000000000000000000000000000000000000000000000000600052600060045260246000fd5b61311e60206001600160a01b03928160405193828580945193849201612321565b8101600b815203019020541680613136575b50606490565b6000602491604051928380927fa666200f0000000000000000000000000000000000000000000000000000000082523060048301525afa908115612fe757600091613187575b506101600151613130565b3d8083833e6131968183612057565b8101906020818303126106355780519067ffffffffffffffff82116105b25701906101e08282031261063557604051926101e0840184811067ffffffffffffffff82111761330657604052825167ffffffffffffffff81116105b657830182601f820112156105b65780519161320b8361207a565b936132196040519586612057565b838552602084840101116102315750916132426101609594926101c09460208085019101612321565b83526020810151602084015261325a60408201612755565b604084015261326b60608201612755565b606084015261327c60808201612755565b608084015261328d60a08201612755565b60a084015261329e60c08201612755565b60c08401526132af60e08201612755565b60e084015261010081015161010084015261012081015161012084015261014081015161014084015283810151848401526101808101516101808401526101a08101516101a084015201516101c08201529061317c565b602482634e487b7160e01b81526041600452fd5b60027f9b779b17422d0df92223018b32b4d1fa46e071723d6817e2486d003becc55f0054146133695760027f9b779b17422d0df92223018b32b4d1fa46e071723d6817e2486d003becc55f0055565b7f3ee5aeb50000000000000000000000000000000000000000000000000000000060005260046000fd5b909291928382510361356e576133aa82513461284b565b9082518015612855573406936133bf866120db565b936133cd6040519586612057565b868552601f196133dc886120db565b01366020870137849560005b825180821015613562576000198101908111612553578114613551575b6001600160a01b03613430602061341c848761272b565b518160405193828580945193849201612321565b8101600b81520301902054168982101561273f578160051b8601357fffffffffffffffffffffffffffffffffffffffffffffffffffffffffffffffe18736030181121561001557860180359067ffffffffffffffff82116100155760200190803603821361001557601f92818a6064602095601f19604051988997889687947fb3d316c100000000000000000000000000000000000000000000000000000000865260406004870152816044870152868601376000858286010152306024850152011681010301925af1908115612fe75760009161351f575b5090600191613518828a61272b565b52016133e8565b906020823d8211613549575b8161353860209383612057565b810103126102315750516001613509565b3d915061352b565b948161355c91612546565b94613405565b50505050939450505050565b606460405162461bcd60e51b815260206004820152602060248201527f496e636f6e73697374656e74207072696365206172726179206c656e677468736044820152fd5b6001600160a01b037f9016d09d72d40fdae2fd8ceac6b6234c7706214fd39c1cd1e609a0528c199300541633036135e557565b7f118cdaa7000000000000000000000000000000000000000000000000000000006000523360045260246000fd5b3d1561363e573d906136248261207a565b916136326040519384612057565b82523d6000602084013e565b606090565b9161364e9083613bce565b9182151580613741575b61366157505050565b6000928380936040926001600160a01b037fffffffff000000000000000000000000000000000000000000000000000000006019602087516136a38982612057565b828152017f7472616e7366657228616464726573732c75696e74323536290000000000000081522016945192602084019586521660248301526044820152604481526136f0606482612057565b51925af16136fc613613565b8161370a575b501561001557565b805180159250821561371f575b505038613702565b819250906020918101031261001557602061373a91016126f8565b3880613717565b506001600160a01b0382161515613658565b92916001600160a01b03600f5416916040519360138310156124ab576001600160a01b0360609281927feb42cf637f927243245c50b4bf7fe105fe4f4d26209102240f2ba3d8e27a7df8958852602088015242604088015216951693a4565b90816020910312610015575160ff811681036100155790565b604d811161255357600a0a90565b6001600160a01b03600f541690604051907f313ce567000000000000000000000000000000000000000000000000000000008252602082600481865afa918215612fe7576000926138ce575b506001600160a01b03602460209260405195869384927f70a082310000000000000000000000000000000000000000000000000000000084521660048301525afa918215612fe757600092613898575b5061389260ff61388b6124539460005490612838565b92166137cb565b9061284b565b91506020823d6020116138c6575b816138b360209383612057565b8101031261001557905190613892613875565b3d91506138a6565b602091925060246138fc6001600160a01b0392843d8611613905575b6138f48183612057565b8101906137b2565b93925050613825565b503d6138ea565b9091926139199082613bce565b9283151580613a5d575b80613a4b575b613934575b50505050565b600080949381946001600160a01b037fffffffff000000000000000000000000000000000000000000000000000000006025604051613974606082612057565b8181527f7432353629000000000000000000000000000000000000000000000000000000604060208301927f7472616e7366657246726f6d28616464726573732c616464726573732c75696e845201522016948160405194602086019788521660248501521660448301526064820152606481526139f3608482612057565b51925af16139ff613613565b81613a14575b5015610015573880808061392e565b8051801592508215613a29575b505038613a05565b8192509060209181010312610015576020613a4491016126f8565b3880613a21565b506001600160a01b0381161515613929565b506001600160a01b0383161515613923565b613add916001600160a01b03613a95602080948160405193828580945193849201612321565b8101600b815203019020541660405180809581947fb3d316c1000000000000000000000000000000000000000000000000000000008352604060048401526044830190612344565b306024830152039134905af1908115612fe757600091613afb575090565b90506020813d602011613b22575b81613b1660209383612057565b81010312610015575190565b3d9150613b09565b919290836001600160a01b038216151580613bac575b80613ba3575b613b52575b5050505090565b613b8c939450828111600014613b955790613b6f83600d93612569565b945b613b8784836001600160a01b03600f5416613643565b613753565b38808080613b4b565b600d91925091600094613b71565b50821515613b46565b50801515613b40565b613bbe306137d9565b808211613bc9575090565b905090565b60206001600160a01b03916004604051809481937f313ce567000000000000000000000000000000000000000000000000000000008352165afa918215612fe757613c2b60ff61245394613c3194600091613c3a575b50166137cb565b90612838565b6000549061284b565b613c53915060203d602011613905576138f48183612057565b38613c24565b60ff7ff0c57e16840df040f15088dc2f81fe391c3923bec73e23a9662efc9c229c6a005460401c1615613c8857565b7fd7e6bcf80000000000000000000000000000000000000000000000000000000060005260046000fdfea264697066735822122088566cafd07eb588e5c0b6d9e5a02bd07dd1aa60b25e6636880b555c2ba451a364736f6c634300081c0033",
  "linkReferences": {},
  "deployedLinkReferences": {}
}