{
  "_format": "hh-sol-artifact-1",
  "contractName": "Perpetual",
  "sourceName": "contracts/Perpetual.sol",
  "abi": [
    {
      "inputs": [],
      "name": "InvalidInitialization",
      "type": "error"
    },
    {
      "inputs": [],
      "name": "NotInitializing",
      "type": "error"
    },
    {
      "inputs": [
        {
          "internalType": "address",
          "name": "owner",
          "type": "address"
        }
      ],
      "name": "OwnableInvalidOwner",
      "type": "error"
    },
    {
      "inputs": [
        {
          "internalType": "address",
          "name": "account",
          "type": "address"
        }
      ],
      "name": "OwnableUnauthorizedAccount",
      "type": "error"
    },
    {
      "inputs": [],
      "name": "ReentrancyGuardReentrantCall",
      "type": "error"
    },
    {
      "anonymous": false,
      "inputs": [
        {
          "indexed": false,
          "internalType": "address",
          "name": "taker",
          "type": "address"
        },
        {
          "indexed": false,
          "internalType": "uint256",
          "name": "amount",
          "type": "uint256"
        },
        {
          "indexed": false,
          "internalType": "uint256",
          "name": "availableAmount",
          "type": "uint256"
        },
        {
          "indexed": false,
          "internalType": "uint256",
          "name": "marginAmount",
          "type": "uint256"
        },
        {
          "indexed": false,
          "internalType": "uint256",
          "name": "locked",
          "type": "uint256"
        },
        {
          "indexed": false,
          "internalType": "uint256",
          "name": "stage",
          "type": "uint256"
        },
        {
          "indexed": false,
          "internalType": "uint256",
          "name": "dif",
          "type": "uint256"
        }
      ],
      "name": "BalanceOfTaker",
      "type": "event"
    },
    {
      "anonymous": false,
      "inputs": [
        {
          "indexed": false,
          "internalType": "string",
          "name": "name",
          "type": "string"
        },
        {
          "indexed": true,
          "internalType": "address",
          "name": "taker",
          "type": "address"
        },
        {
          "indexed": false,
          "internalType": "uint256",
          "name": "orderID",
          "type": "uint256"
        },
        {
          "indexed": false,
          "internalType": "enum ICommon.Direct",
          "name": "orderType",
          "type": "uint8"
        },
        {
          "indexed": false,
          "internalType": "enum IPerpetual.OrderState",
          "name": "state",
          "type": "uint8"
        },
        {
          "indexed": false,
          "internalType": "enum ICommon.Offset",
          "name": "offset",
          "type": "uint8"
        },
        {
          "indexed": false,
          "internalType": "uint256",
          "name": "amount",
          "type": "uint256"
        },
        {
          "indexed": false,
          "internalType": "uint256",
          "name": "targetPrice",
          "type": "uint256"
        },
        {
          "indexed": false,
          "internalType": "uint256",
          "name": "margin",
          "type": "uint256"
        },
        {
          "indexed": false,
          "internalType": "uint256",
          "name": "rewardGas",
          "type": "uint256"
        },
        {
          "indexed": false,
          "internalType": "uint256",
          "name": "tradingFee",
          "type": "uint256"
        },
        {
          "indexed": false,
          "internalType": "uint256",
          "name": "goodTill",
          "type": "uint256"
        }
      ],
      "name": "CreateLimitedOrder",
      "type": "event"
    },
    {
      "anonymous": false,
      "inputs": [
        {
          "indexed": false,
          "internalType": "uint256",
          "name": "limitOrderID",
          "type": "uint256"
        },
        {
          "indexed": false,
          "internalType": "uint256",
          "name": "openLimitPrice",
          "type": "uint256"
        },
        {
          "indexed": false,
          "internalType": "uint256",
          "name": "gainTriggerPrice",
          "type": "uint256"
        },
        {
          "indexed": false,
          "internalType": "uint256",
          "name": "gainLimitPrice",
          "type": "uint256"
        },
        {
          "indexed": false,
          "internalType": "uint256",
          "name": "lossTriggerPrice",
          "type": "uint256"
        },
        {
          "indexed": false,
          "internalType": "uint256",
          "name": "lossLimitPrice",
          "type": "uint256"
        }
      ],
      "name": "CreateTriggerCondition",
      "type": "event"
    },
    {
      "anonymous": false,
      "inputs": [
        {
          "indexed": false,
          "internalType": "uint256",
          "name": "code",
          "type": "uint256"
        },
        {
          "indexed": false,
          "internalType": "uint256",
          "name": "orderID",
          "type": "uint256"
        },
        {
          "indexed": false,
          "internalType": "string",
          "name": "message",
          "type": "string"
        }
      ],
      "name": "ErrorInfo",
      "type": "event"
    },
    {
      "anonymous": false,
      "inputs": [
        {
          "indexed": false,
          "internalType": "uint256",
          "name": "code",
          "type": "uint256"
        },
        {
          "indexed": false,
          "internalType": "uint256",
          "name": "orderID",
          "type": "uint256"
        },
        {
          "indexed": false,
          "internalType": "bytes",
          "name": "message",
          "type": "bytes"
        }
      ],
      "name": "ExceptErrorInfo",
      "type": "event"
    },
    {
      "anonymous": false,
      "inputs": [
        {
          "indexed": false,
          "internalType": "uint64",
          "name": "version",
          "type": "uint64"
        }
      ],
      "name": "Initialized",
      "type": "event"
    },
    {
      "anonymous": false,
      "inputs": [
        {
          "indexed": true,
          "internalType": "address",
          "name": "taker",
          "type": "address"
        },
        {
          "indexed": false,
          "internalType": "string",
          "name": "name",
          "type": "string"
        },
        {
          "indexed": false,
          "internalType": "uint256",
          "name": "orderID",
          "type": "uint256"
        },
        {
          "indexed": false,
          "internalType": "enum ICommon.Direct",
          "name": "direction",
          "type": "uint8"
        },
        {
          "indexed": false,
          "internalType": "enum IPerpetual.OrderType",
          "name": "orderType",
          "type": "uint8"
        },
        {
          "indexed": false,
          "internalType": "uint256",
          "name": "amount",
          "type": "uint256"
        },
        {
          "indexed": false,
          "internalType": "uint256",
          "name": "costPrice",
          "type": "uint256"
        },
        {
          "indexed": false,
          "internalType": "uint256",
          "name": "price",
          "type": "uint256"
        },
        {
          "indexed": false,
          "internalType": "uint256",
          "name": "tradingFee",
          "type": "uint256"
        },
        {
          "indexed": false,
          "internalType": "uint256",
          "name": "limitOrderId",
          "type": "uint256"
        },
        {
          "indexed": false,
          "internalType": "uint256",
          "name": "timestamp",
          "type": "uint256"
        }
      ],
      "name": "OrderHistory",
      "type": "event"
    },
    {
      "anonymous": false,
      "inputs": [
        {
          "indexed": true,
          "internalType": "address",
          "name": "previousOwner",
          "type": "address"
        },
        {
          "indexed": true,
          "internalType": "address",
          "name": "newOwner",
          "type": "address"
        }
      ],
      "name": "OwnershipTransferred",
      "type": "event"
    },
    {
      "anonymous": false,
      "inputs": [
        {
          "indexed": false,
          "internalType": "uint256",
          "name": "orderID",
          "type": "uint256"
        },
        {
          "indexed": false,
          "internalType": "uint256",
          "name": "dealID",
          "type": "uint256"
        },
        {
          "indexed": false,
          "internalType": "enum IPerpetual.TradeType",
          "name": "tradeType",
          "type": "uint8"
        },
        {
          "indexed": false,
          "internalType": "uint256",
          "name": "amount",
          "type": "uint256"
        },
        {
          "indexed": false,
          "internalType": "uint256",
          "name": "price",
          "type": "uint256"
        },
        {
          "indexed": false,
          "internalType": "uint256",
          "name": "tradingFee",
          "type": "uint256"
        },
        {
          "indexed": false,
          "internalType": "uint256",
          "name": "profit",
          "type": "uint256"
        },
        {
          "indexed": false,
          "internalType": "uint256",
          "name": "loss",
          "type": "uint256"
        },
        {
          "indexed": false,
          "internalType": "uint256",
          "name": "timestamp",
          "type": "uint256"
        }
      ],
      "name": "TradeHistory",
      "type": "event"
    },
    {
      "anonymous": false,
      "inputs": [
        {
          "indexed": true,
          "internalType": "address",
          "name": "taker",
          "type": "address"
        },
        {
          "indexed": false,
          "internalType": "enum ICommon.TransactionType",
          "name": "transactionType",
          "type": "uint8"
        },
        {
          "indexed": false,
          "internalType": "uint256",
          "name": "amount",
          "type": "uint256"
        },
        {
          "indexed": false,
          "internalType": "uint256",
          "name": "timestamp",
          "type": "uint256"
        }
      ],
      "name": "TransactionHistory",
      "type": "event"
    },
    {
      "anonymous": false,
      "inputs": [
        {
          "indexed": false,
          "internalType": "address",
          "name": "sender",
          "type": "address"
        },
        {
          "indexed": false,
          "internalType": "address",
          "name": "received",
          "type": "address"
        },
        {
          "indexed": false,
          "internalType": "enum ICommon.TransactionType",
          "name": "transactionType",
          "type": "uint8"
        },
        {
          "indexed": false,
          "internalType": "uint256",
          "name": "amount",
          "type": "uint256"
        },
        {
          "indexed": false,
          "internalType": "uint256",
          "name": "timestamp",
          "type": "uint256"
        }
      ],
      "name": "TransferFee",
      "type": "event"
    },
    {
      "anonymous": false,
      "inputs": [
        {
          "indexed": false,
          "internalType": "address",
          "name": "sender",
          "type": "address"
        },
        {
          "indexed": false,
          "internalType": "uint256",
          "name": "beforeLeverage",
          "type": "uint256"
        },
        {
          "indexed": false,
          "internalType": "uint256",
          "name": "afterLeverage",
          "type": "uint256"
        }
      ],
      "name": "setLeverage",
      "type": "event"
    },
    {
      "stateMutability": "nonpayable",
      "type": "fallback"
    },
    {
      "inputs": [],
      "name": "buybackAddr",
      "outputs": [
        {
          "internalType": "address",
          "name": "",
          "type": "address"
        }
      ],
      "stateMutability": "view",
      "type": "function"
    },
    {
      "inputs": [
        {
          "internalType": "uint256[]",
          "name": "_orderIDs",
          "type": "uint256[]"
        }
      ],
      "name": "cancelOrders",
      "outputs": [],
      "stateMutability": "nonpayable",
      "type": "function"
    },
    {
      "inputs": [
        {
          "internalType": "string",
          "name": "_name",
          "type": "string"
        },
        {
          "internalType": "uint256",
          "name": "_amount",
          "type": "uint256"
        },
        {
          "internalType": "uint256",
          "name": "_orderType",
          "type": "uint256"
        },
        {
          "internalType": "uint256",
          "name": "_price",
          "type": "uint256"
        },
        {
          "internalType": "enum ICommon.Direct",
          "name": "_type",
          "type": "uint8"
        },
        {
          "internalType": "uint256",
          "name": "_goodTill",
          "type": "uint256"
        },
        {
          "internalType": "uint256",
          "name": "_deadline",
          "type": "uint256"
        },
        {
          "internalType": "bytes",
          "name": "_priceUpdate",
          "type": "bytes"
        }
      ],
      "name": "closePosition",
      "outputs": [],
      "stateMutability": "payable",
      "type": "function"
    },
    {
      "inputs": [
        {
          "internalType": "uint256",
          "name": "_amount",
          "type": "uint256"
        }
      ],
      "name": "deposit",
      "outputs": [],
      "stateMutability": "nonpayable",
      "type": "function"
    },
    {
      "inputs": [
        {
          "internalType": "address",
          "name": "_takerAddress",
          "type": "address"
        },
        {
          "internalType": "uint256",
          "name": "_stage",
          "type": "uint256"
        }
      ],
      "name": "emitTakerBalance",
      "outputs": [],
      "stateMutability": "nonpayable",
      "type": "function"
    },
    {
      "inputs": [],
      "name": "fiatTokenAddr",
      "outputs": [
        {
          "internalType": "address",
          "name": "",
          "type": "address"
        }
      ],
      "stateMutability": "view",
      "type": "function"
    },
    {
      "inputs": [],
      "name": "getTradingPairs",
      "outputs": [
        {
          "internalType": "string[]",
          "name": "",
          "type": "string[]"
        }
      ],
      "stateMutability": "view",
      "type": "function"
    },
    {
      "inputs": [
        {
          "internalType": "string",
          "name": "_name",
          "type": "string"
        }
      ],
      "name": "getUnderlying",
      "outputs": [
        {
          "internalType": "contract Underlying",
          "name": "",
          "type": "address"
        }
      ],
      "stateMutability": "view",
      "type": "function"
    },
    {
      "inputs": [
        {
          "internalType": "address",
          "name": "_taker",
          "type": "address"
        }
      ],
      "name": "getUserAccount",
      "outputs": [
        {
          "components": [
            {
              "internalType": "uint256",
              "name": "depositAmount",
              "type": "uint256"
            },
            {
              "internalType": "uint256",
              "name": "availableAmount",
              "type": "uint256"
            },
            {
              "internalType": "uint256",
              "name": "marginAmount",
              "type": "uint256"
            },
            {
              "internalType": "uint256",
              "name": "orderLocked",
              "type": "uint256"
            },
            {
              "internalType": "uint256",
              "name": "lastTime",
              "type": "uint256"
            }
          ],
          "internalType": "struct IPerpetual.AccountInfo",
          "name": "user",
          "type": "tuple"
        }
      ],
      "stateMutability": "view",
      "type": "function"
    },
    {
      "inputs": [],
      "name": "getUserAddress",
      "outputs": [
        {
          "internalType": "address[]",
          "name": "",
          "type": "address[]"
        }
      ],
      "stateMutability": "view",
      "type": "function"
    },
    {
      "inputs": [
        {
          "internalType": "address",
          "name": "_user",
          "type": "address"
        },
        {
          "internalType": "string",
          "name": "_name",
          "type": "string"
        }
      ],
      "name": "getUserLeverage",
      "outputs": [
        {
          "internalType": "uint256",
          "name": "",
          "type": "uint256"
        }
      ],
      "stateMutability": "view",
      "type": "function"
    },
    {
      "inputs": [
        {
          "internalType": "address",
          "name": "initialOwner",
          "type": "address"
        },
        {
          "internalType": "address",
          "name": "_priPool",
          "type": "address"
        },
        {
          "internalType": "address",
          "name": "_riskFundAddr",
          "type": "address"
        },
        {
          "internalType": "address",
          "name": "_fiatTokenAddr",
          "type": "address"
        },
        {
          "internalType": "address",
          "name": "_tradeFeeAddr",
          "type": "address"
        }
      ],
      "name": "initialize",
      "outputs": [],
      "stateMutability": "nonpayable",
      "type": "function"
    },
    {
      "inputs": [
        {
          "internalType": "uint256[]",
          "name": "_dealIDs",
          "type": "uint256[]"
        },
        {
          "internalType": "string[]",
          "name": "_symbols",
          "type": "string[]"
        },
        {
          "internalType": "bytes[]",
          "name": "_priceUpdate",
          "type": "bytes[]"
        }
      ],
      "name": "liquidateMakerDeals",
      "outputs": [],
      "stateMutability": "payable",
      "type": "function"
    },
    {
      "inputs": [
        {
          "internalType": "address[]",
          "name": "_taker",
          "type": "address[]"
        },
        {
          "internalType": "uint256[]",
          "name": "_orders",
          "type": "uint256[]"
        },
        {
          "internalType": "string[]",
          "name": "_symbols",
          "type": "string[]"
        },
        {
          "internalType": "bytes[]",
          "name": "_priceUpdate",
          "type": "bytes[]"
        }
      ],
      "name": "liquidateTaker",
      "outputs": [],
      "stateMutability": "payable",
      "type": "function"
    },
    {
      "inputs": [],
      "name": "maintenanceMarginRate",
      "outputs": [
        {
          "internalType": "uint256",
          "name": "",
          "type": "uint256"
        }
      ],
      "stateMutability": "view",
      "type": "function"
    },
    {
      "inputs": [],
      "name": "owner",
      "outputs": [
        {
          "internalType": "address",
          "name": "",
          "type": "address"
        }
      ],
      "stateMutability": "view",
      "type": "function"
    },
    {
      "inputs": [],
      "name": "renounceOwnership",
      "outputs": [],
      "stateMutability": "nonpayable",
      "type": "function"
    },
    {
      "inputs": [],
      "name": "riskFundAddr",
      "outputs": [
        {
          "internalType": "address",
          "name": "",
          "type": "address"
        }
      ],
      "stateMutability": "view",
      "type": "function"
    },
    {
      "inputs": [
        {
          "internalType": "address",
          "name": "_buyBack",
          "type": "address"
        },
        {
          "internalType": "address",
          "name": "_orderBook",
          "type": "address"
        },
        {
          "internalType": "address",
          "name": "_tradeAgent",
          "type": "address"
        },
        {
          "internalType": "address",
          "name": "_tradeStation",
          "type": "address"
        },
        {
          "internalType": "address",
          "name": "_marketAgent",
          "type": "address"
        }
      ],
      "name": "setKeepers",
      "outputs": [],
      "stateMutability": "nonpayable",
      "type": "function"
    },
    {
      "inputs": [
        {
          "internalType": "address",
          "name": "_addr",
          "type": "address"
        }
      ],
      "name": "setTradeFeeAddr",
      "outputs": [],
      "stateMutability": "nonpayable",
      "type": "function"
    },
    {
      "inputs": [
        {
          "internalType": "string",
          "name": "_name",
          "type": "string"
        },
        {
          "internalType": "address",
          "name": "_underlying",
          "type": "address"
        }
      ],
      "name": "setUnderlying",
      "outputs": [],
      "stateMutability": "nonpayable",
      "type": "function"
    },
    {
      "inputs": [
        {
          "internalType": "string",
          "name": "_name",
          "type": "string"
        },
        {
          "internalType": "uint256",
          "name": "_leverage",
          "type": "uint256"
        }
      ],
      "name": "setUserLeverage",
      "outputs": [],
      "stateMutability": "nonpayable",
      "type": "function"
    },
    {
      "inputs": [
        {
          "internalType": "address",
          "name": "takerAddr",
          "type": "address"
        },
        {
          "internalType": "uint256",
          "name": "tradingFee",
          "type": "uint256"
        }
      ],
      "name": "splitTradeFee",
      "outputs": [],
      "stateMutability": "nonpayable",
      "type": "function"
    },
    {
      "inputs": [
        {
          "internalType": "string",
          "name": "_name",
          "type": "string"
        },
        {
          "internalType": "uint256",
          "name": "_amount",
          "type": "uint256"
        },
        {
          "internalType": "enum ICommon.Direct",
          "name": "_type",
          "type": "uint8"
        },
        {
          "internalType": "enum ICommon.Offset",
          "name": "_offset",
          "type": "uint8"
        },
        {
          "internalType": "uint256",
          "name": "_param1",
          "type": "uint256"
        },
        {
          "internalType": "uint256",
          "name": "_param2",
          "type": "uint256"
        },
        {
          "internalType": "uint256",
          "name": "_param3",
          "type": "uint256"
        },
        {
          "internalType": "uint256",
          "name": "_param4",
          "type": "uint256"
        },
        {
          "internalType": "uint256",
          "name": "_goodTill",
          "type": "uint256"
        },
        {
          "internalType": "uint256",
          "name": "_deadline",
          "type": "uint256"
        }
      ],
      "name": "stopTakeOrder",
      "outputs": [],
      "stateMutability": "payable",
      "type": "function"
    },
    {
      "inputs": [],
      "name": "tradeFeeAddr",
      "outputs": [
        {
          "internalType": "address",
          "name": "",
          "type": "address"
        }
      ],
      "stateMutability": "view",
      "type": "function"
    },
    {
      "inputs": [
        {
          "internalType": "string",
          "name": "_name",
          "type": "string"
        },
        {
          "internalType": "uint256",
          "name": "_amount",
          "type": "uint256"
        },
        {
          "internalType": "uint256",
          "name": "_price",
          "type": "uint256"
        },
        {
          "internalType": "uint256",
          "name": "_orderType",
          "type": "uint256"
        },
        {
          "internalType": "enum ICommon.Direct",
          "name": "_type",
          "type": "uint8"
        },
        {
          "internalType": "address",
          "name": "_inviter",
          "type": "address"
        },
        {
          "internalType": "uint256",
          "name": "_goodTill",
          "type": "uint256"
        },
        {
          "internalType": "uint256",
          "name": "_deadline",
          "type": "uint256"
        },
        {
          "internalType": "bytes",
          "name": "_priceUpdate",
          "type": "bytes"
        }
      ],
      "name": "tradeFutures",
      "outputs": [],
      "stateMutability": "payable",
      "type": "function"
    },
    {
      "inputs": [
        {
          "internalType": "address",
          "name": "newOwner",
          "type": "address"
        }
      ],
      "name": "transferOwnership",
      "outputs": [],
      "stateMutability": "nonpayable",
      "type": "function"
    },
    {
      "inputs": [
        {
          "internalType": "uint256[]",
          "name": "_orderIDs",
          "type": "uint256[]"
        },
        {
          "internalType": "string[]",
          "name": "_symbols",
          "type": "string[]"
        },
        {
          "internalType": "bytes[]",
          "name": "_priceUpdate",
          "type": "bytes[]"
        }
      ],
      "name": "triggerOrders",
      "outputs": [],
      "stateMutability": "payable",
      "type": "function"
    },
    {
      "inputs": [
        {
          "internalType": "address",
          "name": "_taker",
          "type": "address"
        },
        {
          "components": [
            {
              "internalType": "uint256",
              "name": "depositAmount",
              "type": "uint256"
            },
            {
              "internalType": "uint256",
              "name": "availableAmount",
              "type": "uint256"
            },
            {
              "internalType": "uint256",
              "name": "marginAmount",
              "type": "uint256"
            },
            {
              "internalType": "uint256",
              "name": "orderLocked",
              "type": "uint256"
            },
            {
              "internalType": "uint256",
              "name": "lastTime",
              "type": "uint256"
            }
          ],
          "internalType": "struct IPerpetual.AccountInfo",
          "name": "userInfo",
          "type": "tuple"
        }
      ],
      "name": "updateUserAsset",
      "outputs": [],
      "stateMutability": "nonpayable",
      "type": "function"
    },
    {
      "inputs": [
        {
          "internalType": "uint256",
          "name": "_amount",
          "type": "uint256"
        },
        {
          "internalType": "string[]",
          "name": "_symbols",
          "type": "string[]"
        },
        {
          "internalType": "bytes[]",
          "name": "_priceUpdate",
          "type": "bytes[]"
        }
      ],
      "name": "withdraw",
      "outputs": [],
      "stateMutability": "payable",
      "type": "function"
    }
  ],
  "bytecode": "0x60808060405234601a57600160005561393590816100208239f35b600080fdfe6080604052600436101561001a575b3461001557005b600080fd5b6000803560e01c806305ca57cf14611d595780630c41899814611d325780631459457a1461193e5780631607e35f1461183c5780632ca43051146118155780632f1cc4d01461161f5780633851969e1461157a57806338a139861461144f578063402d712c146113dd578063645b3fd01461139e578063708b8d8614611126578063715018a61461108d57806389f00b6d1461106f5780638da5cb5b146110295780639048f2e014610f50578063a40cb4ca14610d55578063b55fb57414610c75578063b6b55f2514610acd578063c8f5ede21461083e578063c9f35c3914610770578063cd2ce4ae14610653578063d1937e3d14610615578063e08061b3146105ee578063e1fb28b81461056f578063e597868614610428578063ebc3eee814610360578063f2fde38b14610333578063f348285b1461030c578063f6ef1839146102295763fb47e01614610170575061000e565b3461022657602060031936011261022657604060a0916001600160a01b03610196611e60565b82608085516101a481611dc0565b82815282602082015282878201528260608201520152168152600b602052206040516101cf81611dc0565b81549182825260018101546020830190815260028201549060408401918252608060046003850154946060870195865201549401938452604051948552516020850152516040840152516060830152516080820152f35b80fd5b5034610226576001600160a01b038080808061024436611e76565b97929193610253969196613495565b166001600160a01b0319601154161760115516806001600160a01b031960065416176006558752600a60205260408720600160ff1982541617905516806001600160a01b031960075416176007558552600a60205260408520600160ff1982541617905516806001600160a01b031960095416176009558352600a60205260408320600160ff1982541617905516806001600160a01b031960085416176008558152600a60205260408120600160ff1982541617905580f35b503461022657806003193601126102265760206001600160a01b0360125416604051908152f35b50346102265760206003193601126102265761035d610350611e60565b610358613495565b612dbc565b80f35b5034610226578060031936011261022657604051806020600f5491828152018091600f85527f8d1108e10bcb7c27dddfc02ed9d693a074039d026cf4ea4240b40f7d581ac80290855b81811061040957505050826103bf910383611ddc565b604051928392602084019060208552518091526040840192915b8181106103e7575050500390f35b82516001600160a01b03168452859450602093840193909201916001016103d9565b82546001600160a01b03168452602090930192600192830192016103a9565b50610100600319360112610226578060043567ffffffffffffffff811161056c57610457903690600401611e1b565b604435906084359060643560038310156105685760e43567ffffffffffffffff81116105645761048b903690600401611e1b565b90610494612eab565b6104a24260c435101561268a565b34818661054f575050506104b69082613769565b9184905b6001600160a01b036009541691823b1561054b57869461051482604051988997889687957f274889e1000000000000000000000000000000000000000000000000000000008752339360a435936024359060048a01612924565b03925af180156105405761052b575b506001905580f35b8161053591611ddc565b610226578038610523565b6040513d84823e3d90fd5b8680fd5b61055f91935094919415156128d9565b6104ba565b8580fd5b8480fd5b50fd5b503461022657604060031936011261022657610589611e60565b60243567ffffffffffffffff81116105ea5760406020936001600160a01b036105b96105c8943690600401611e1b565b94168152600d8552208261211d565b549081156105da575b50604051908152f35b6105e49150613278565b386105d1565b8280fd5b503461022657806003193601126102265760206001600160a01b0360135416604051908152f35b50346102265760406003193601126102265761035d610632611e60565b338352600a60205261064a60ff604085205416612978565b602435906129f6565b5034610226578060031936011261022657600e5461067081611ee8565b9061067e6040519283611ddc565b808252600e83527fbb7b4a454dc3493923482f07822329ed19e8244eff582cc204f8554c3620c3fd9280602084015b8383106106ce57604051602080825281906106ca908201886120c4565b0390f35b6040518287546106dd816126df565b808452906001811690811561074d5750600114610717575b506001928261070985946020940382611ddc565b8152019601920191946106ad565b888552602085208592505b818310610737575050810160200160016106f5565b6001816020925483868801015201920191610722565b60ff191660208581019190915291151560051b84019091019150600190506106f5565b50346102265760c06003193601126102265761078a611e60565b60a07fffffffffffffffffffffffffffffffffffffffffffffffffffffffffffffffdc36011261083a576004604051916107c383611dc0565b6024358352602083016044358152604084016064358152606085019160843583526001600160a01b03608087019460a4358652338952600a60205261080e60ff60408b205416612978565b428652168752600b60205260408720955186555160018601555160028501555160038401555191015580f35b5080fd5b50610120600319360112610226578060043567ffffffffffffffff811161056c5761086d903690600401611e1b565b608435906064359060443560038410156105685760a4356001600160a01b038116809103610564576101043567ffffffffffffffff811161054b576108b6903690600401611e1b565b916108bf612eab565b6108cd4260e435101561268a565b80916001600160a01b03600854169081151580610ac4575b80610a21575b61097d575b5050349085156000146109685750505061090a9082613769565b9284905b6001600160a01b036009541691823b1561054b57869461051482604051988997889687957fdcac2e88000000000000000000000000000000000000000000000000000000008752339360c435936024359060048a01612924565b61097891935095919515156128d9565b61090e565b60409060a46001600160a01b03601054168b845195869485937fcecf78d0000000000000000000000000000000000000000000000000000000008552806004860152602485015260448401523360648401528160848401525af18015610a16576109e8575b806108f0565b610a099060403d604011610a0f575b610a018183611ddc565b8101906128bc565b506109e2565b503d6109f7565b6040513d8a823e3d90fd5b506040517f147df887000000000000000000000000000000000000000000000000000000008152336004820152602081602481865afa8015610ab9578a90610a75575b6001600160a01b03915016156108eb565b506020813d602011610ab1575b81610a8f60209383611ddc565b81010312610aad57610aa86001600160a01b03916128a8565b610a64565b8980fd5b3d9150610a82565b6040513d8c823e3d90fd5b508015156108e5565b5034610226576020600319360112610226576004356002548110610c3157610b1f90610b11610afb30613145565b916001600160a01b036010541630903390613606565b610b1a30613145565b612719565b338252600b602052600460408320610b3633612726565b610b418382546121e5565b815560018101610b528482546121e5565b905501805415610bb9575b50610b67336127e7565b604051906001825260208201524260408201527f3d1da8320fcddb1c370f0c5ec1c37483e5301a7c02bd7478d62c7514643ceb1d60603392a280f35b634e487b7160e01b600052602160045260246000fd5b429055600f5468010000000000000000811015610c1d5760018101600f55600f54811015610c0957600f8352602083200180548360031b906001600160a01b0333831b921b191617905538610b5d565b602483634e487b7160e01b81526032600452fd5b602483634e487b7160e01b81526041600452fd5b606460405162461bcd60e51b815260206004820152601860248201527f6465706f73697420616d6f756e7420746f6f20736d616c6c00000000000000006044820152fd5b50346102265760206003193601126102265760043567ffffffffffffffff811161083a57610ca7903690600401611f00565b81805b8251811015610d51576001600160a01b0360075416610cc98285612143565b51813b15610d4d5783916064839260405194859384927fc2b3356400000000000000000000000000000000000000000000000000000000845260048401523360248401528160448401525af1908115610d42578391610d2d575b5050600101610caa565b81610d3791611ddc565b61083a578138610d23565b6040513d85823e3d90fd5b8380fd5b5080f35b5060606003193601126102265760043560243567ffffffffffffffff81116105ea57610d85903690600401611f5d565b60443567ffffffffffffffff8111610d4d57610e07610daa6040923690600401611fdc565b929093338752600b60205281872094610dd188956001600160a01b03600754169284612eff565b9183518095819482937f9aa59c6500000000000000000000000000000000000000000000000000000000845233600485016121ae565b03915afa908115610f455785908692610f04575b5015610efc575b50610e2c33612726565b6001820191610e3d835492856121e5565b8210610eb857610e5b9181610e5486809454612719565b9055612719565b9055610e7381336001600160a01b03601054166134f6565b610e7c336127e7565b604051906002825260208201524260408201527f3d1da8320fcddb1c370f0c5ec1c37483e5301a7c02bd7478d62c7514643ceb1d60603392a280f35b606460405162461bcd60e51b815260206004820152601960248201527f776974686472657720616d6f756e7420746f6f206c61726765000000000000006044820152fd5b905038610e22565b9150506040813d604011610f3d575b81610f2060409383611ddc565b81010312610568576020610f338261216d565b9101519038610e1b565b3d9150610f13565b6040513d87823e3d90fd5b5034610226576040600319360112610226577f978f5a06b7f22ed0a8d1bfc4c6d9d44b320a6f206eb9dde65c1de4dc27f48cc060e06001600160a01b03610f95611e60565b16808452600b6020526040842060018101546002820154610fb681836121e5565b91610fc6600385015480946121e5565b9354938085111561100857610fdb9085612719565b935b604051958652602086015260408501526060840152608083015260243560a083015260c0820152a180f35b84818110156110205761101a91612719565b93610fdd565b50508793610fdd565b503461022657806003193601126102265760206001600160a01b037f9016d09d72d40fdae2fd8ceac6b6234c7706214fd39c1cd1e609a0528c1993005416604051908152f35b50346102265780600319360112610226576020600354604051908152f35b50346102265780600319360112610226576110a6613495565b806001600160a01b037f9016d09d72d40fdae2fd8ceac6b6234c7706214fd39c1cd1e609a0528c199300546001600160a01b031981167f9016d09d72d40fdae2fd8ceac6b6234c7706214fd39c1cd1e609a0528c19930055167f8be0079c531659141344cd1fd0a4f28419497f9722a3daafe3b4186f6b6457e08280a380f35b50346102265760406003193601126102265760043567ffffffffffffffff811161083a57611158903690600401611e1b565b602435906001600160a01b0382168092036105ea57611175613495565b604051906001600160a01b038151926020818185019561119681838961207c565b8101600c8152030190205416156111dd575b6111c09160209160405193849283925192839161207c565b8101600c815203019020906001600160a01b031982541617905580f35b600e546801000000000000000081101561138a5760018101600e55600e5481101561137657600e85527fbb7b4a454dc3493923482f07822329ed19e8244eff582cc204f8554c3620c3fd018461136357815167ffffffffffffffff811161134d5761124882546126df565b601f8111611305575b506020601f8211600114611299579181602094926111c0969460009161128e575b506000198260011b9260031b1c19161790555b915091506111a8565b905083015138611272565b601f1982169083600052806000209160005b8181106112ed5750926111c09694926001928260209896106112d4575b5050811b019055611285565b85015160001960f88460031b161c1916905538806112c8565b9192602060018192868a0151815501940192016112ab565b826000526020600020601f830160051c81019160208410611343575b601f0160051c01905b8181106113375750611251565b6000815560010161132a565b9091508190611321565b634e487b7160e01b600052604160045260246000fd5b602485634e487b7160e01b815280600452fd5b602485634e487b7160e01b81526032600452fd5b602485634e487b7160e01b81526041600452fd5b5034610226576020600319360112610226576001600160a01b036113c0611e60565b6113c8613495565b166001600160a01b0319601354161760135580f35b508061140a6113eb3661200d565b6113f794919294612eab565b6001600160a01b03600954169285612eff565b90803b156105685761051493858094604051968795869485937fbcef60d700000000000000000000000000000000000000000000000000000000855260048501612661565b50610140600319360112610226578060043567ffffffffffffffff811161056c5761147e903690600401611e1b565b6044359060038210156115765760643560038110156115745761149f612eab565b6114ae4261012435101561268a565b6001600160a01b0360095416803b15610568576115068593604051958694859384937feff6d7c3000000000000000000000000000000000000000000000000000000008552610140600486015261014485019061209f565b916024356024850152611518816126d5565b6044840152611526816126d5565b6064830152608435608483015260a43560a483015260c43560c483015260e43560e48301526101043561010483015233610124830152039134905af180156105405761052b57506001905580f35b505b5050fd5b506115a7816115883661200d565b61159495919295612eab565b6001600160a01b03600754169286612eff565b90803b15610d4d576115ec94848094604051978895869485937feb4f2e3600000000000000000000000000000000000000000000000000000000855260048501612661565b03925af1801561161257611602575b6001815580f35b61160b91611ddc565b38816115fb565b50604051903d90823e3d90fd5b50346102265760406003193601126102265760043567ffffffffffffffff811161083a57611651903690600401611e1b565b60243590338352600b602052604083206040519061166e82611dc0565b805482526001810154602083015260806002820154926040810193845260046003840154936060830194855201549182910152156117d1576116af83613278565b84151590816117c6575b50156117825751159081611778575b50156117345761173090338452600d6020527f19c868b153d63e547ff3dad93423e37b035588be801b6c0e1b91e98de7eccc61606061170a604087208461211d565b54604051903382526020820152856040820152a1338452600d602052604084209061211d565b5580f35b606460405162461bcd60e51b815260206004820152600960248201527f68617320617373657400000000000000000000000000000000000000000000006044820152fd5b90505115386116c8565b606460405162461bcd60e51b815260206004820152601560248201527f6c65766572616765206f7574206f6620312d31303000000000000000000000006044820152fd5b9050841115386116b9565b606460405162461bcd60e51b815260206004820152601260248201527f75736572206973206e6f742065786973747300000000000000000000000000006044820152fd5b503461022657806003193601126102265760206001600160a01b0360105416604051908152f35b5060806003193601126102265760043567ffffffffffffffff811161083a573660238201121561083a57806004013561187481611ee8565b916118826040519384611ddc565b8183526024602084019260051b8201019036821161056857602401915b81831061191e5750505060243567ffffffffffffffff81116105ea576118c9903690600401611f00565b60443567ffffffffffffffff8111610d4d576118e9903690600401611f5d565b916064359267ffffffffffffffff84116105685761190e6115fb943690600401611fdc565b939092611919612eab565b612217565b82356001600160a01b03811681036105645781526020928301920161189f565b50346102265761194d36611e76565b7ff0c57e16840df040f15088dc2f81fe391c3923bec73e23a9662efc9c229c6a0094929194549360ff8560401c16159467ffffffffffffffff811680159081611d2a575b6001149081611d20575b159081611d17575b50611cef57916001600160a01b0380949392838860017fffffffffffffffffffffffffffffffffffffffffffffffff0000000000000000859716177ff0c57e16840df040f15088dc2f81fe391c3923bec73e23a9662efc9c229c6a0055611c9a575b50611a0e613824565b611a16613824565b611a1f33612dbc565b611a27613495565b611a3087612dbc565b16806001600160a01b031960055416176005558852600a60205260408820600160ff19825416179055166001600160a01b03196013541617601355166001600160a01b031960125416176012556001600160a01b0383166001600160a01b0319601054161760105583806001600160a01b036005541694604095827fffffffff00000000000000000000000000000000000000000000000000000000601860208a51611adc8c82611ddc565b828152017f617070726f766528616464726573732c75696e743235362900000000000000008152201691885190602082019384526024820152600019604482015260448152611b2c606482611ddc565b51925af1611b38612e7b565b81611c63575b5015610d4d576001600160a01b0390308552600a602052838520600160ff19825416179055168352600a602052818320600160ff19825416179055670de0b6b3a764000060015566038d7ea4c6800060025567016345785d8a0000600355826004557fffffffffffffffffffffff00ffffffffffffffffffffffffffffffffffffffff60095416600955611bd0575080f35b60207fc7f505b2f371ae2175ee4913f4499e1f2633a7b5936321eed1cdaeb6115181d2917fffffffffffffffffffffffffffffffffffffffffffffff00ffffffffffffffff7ff0c57e16840df040f15088dc2f81fe391c3923bec73e23a9662efc9c229c6a0054167ff0c57e16840df040f15088dc2f81fe391c3923bec73e23a9662efc9c229c6a00555160018152a180f35b8051801592508215611c78575b505038611b3e565b8192509060209181010312610568576020611c93910161216d565b3880611c70565b7fffffffffffffffffffffffffffffffffffffffffffffff0000000000000000001668010000000000000001177ff0c57e16840df040f15088dc2f81fe391c3923bec73e23a9662efc9c229c6a005538611a05565b6004887ff92ee8a9000000000000000000000000000000000000000000000000000000008152fd5b905015386119a3565b303b15915061199b565b879150611991565b503461022657806003193601126102265760206001600160a01b0360115416604051908152f35b5034610226576020600319360112610226576004359067ffffffffffffffff82116102265760206001600160a01b03611dac82611d993660048801611e1b565b816040519382858094519384920161207c565b8101600c8152030190205416604051908152f35b60a0810190811067ffffffffffffffff82111761134d57604052565b90601f601f19910116810190811067ffffffffffffffff82111761134d57604052565b67ffffffffffffffff811161134d57601f01601f191660200190565b81601f8201121561001557602081359101611e3582611dff565b92611e436040519485611ddc565b828452828201116100155781600092602092838601378301015290565b600435906001600160a01b038216820361001557565b60031960a0910112610015576004356001600160a01b038116810361001557906024356001600160a01b038116810361001557906044356001600160a01b038116810361001557906064356001600160a01b038116810361001557906084356001600160a01b03811681036100155790565b67ffffffffffffffff811161134d5760051b60200190565b9080601f83011215610015578135611f1781611ee8565b92611f256040519485611ddc565b81845260208085019260051b82010192831161001557602001905b828210611f4d5750505090565b8135815260209182019101611f40565b9080601f83011215610015578135611f7481611ee8565b92611f826040519485611ddc565b81845260208085019260051b820101918383116100155760208201905b838210611fae57505050505090565b813567ffffffffffffffff811161001557602091611fd187848094880101611e1b565b815201910190611f9f565b9181601f840112156100155782359167ffffffffffffffff8311610015576020808501948460051b01011161001557565b60606003198201126100155760043567ffffffffffffffff8111610015578161203891600401611f00565b9160243567ffffffffffffffff8111610015578261205891600401611f5d565b916044359067ffffffffffffffff82116100155761207891600401611fdc565b9091565b60005b83811061208f5750506000910152565b818101518382015260200161207f565b90601f19601f6020936120bd8151809281875287808801910161207c565b0116010190565b9080602083519182815201916020808360051b8301019401926000915b8383106120f057505050505090565b909192939460208061210e83601f198660019603018752895161209f565b970193019301919392906120e1565b60209061213792826040519483868095519384920161207c565b82019081520301902090565b80518210156121575760209160051b010190565b634e487b7160e01b600052603260045260246000fd5b5190811515820361001557565b906020808351928381520192019060005b8181106121985750505090565b825184526020938401939092019160010161218b565b916121d4906001600160a01b036121e295931684526060602085015260608401906120c4565b91604081840391015261217a565b90565b919082018092116121f257565b634e487b7160e01b600052601160045260246000fd5b90816020910312610015575190565b939491909460005b8551811015612658576001600160a01b0361223a8288612143565b511680600052600b602052612253604060002054612ee6565b801561264d5761226282612726565b61226d848887612eff565b6001600160a01b0360075416608060405180927f879b31e000000000000000000000000000000000000000000000000000000000825281806122b4878d8b600485016121ae565b03915afa90811561245d57600091612614575b506122d8575b50505060010161221f565b61237060206122f96001600160a01b0360129c99969b989a979c5416613145565b926001600160a01b036009541661231085876121e5565b60008d604051968795869485937f7295751b000000000000000000000000000000000000000000000000000000008552600485015260248401526080604484015261235e608484018d6120c4565b9060031984830301606485015261217a565b03925af190811561245d576000916125e3575b508082036124a55750506123af906001600160a01b03601054166001600160a01b0360055416906134f6565b60005b8851811015612469578060208a60646123d96000956001600160a01b036006541693612143565b5160405195869384927fc2b3356400000000000000000000000000000000000000000000000000000000845260048401528d6024840152600160448401525af191821561245d5760019261242f575b50016123b2565b61244f9060203d8111612456575b6124478183611ddc565b810190612208565b5038612428565b503d61243d565b6040513d6000823e3d90fd5b509295600191949295600052600b60205260406000206000838201556000815560006002820155600060038201556004429101559038806122cd565b8181111561254657610b1a612506936124df6001600160a01b03601054166001600160a01b03601254166124d98787612719565b916134f6565b6001600160a01b0360105416906124d984610b1a876001600160a01b0360055416946121e5565b604051906008827f3d1da8320fcddb1c370f0c5ec1c37483e5301a7c02bd7478d62c7514643ceb1d926060928b95526020820152426040820152a26123af565b90610b1a6125a39361257c6001600160a01b03601054166001600160a01b0360125416906125748787612719565b913091613606565b6001600160a01b0360105416906124d985610b1a866001600160a01b0360055416946121e5565b604051906009827f3d1da8320fcddb1c370f0c5ec1c37483e5301a7c02bd7478d62c7514643ceb1d926060928b95526020820152426040820152a26123af565b906020823d821161260c575b816125fc60209383611ddc565b8101031261022657505138612383565b3d91506125ef565b906080823d8211612645575b8161262d60809383611ddc565b81010312610226575061263f9061216d565b386122c7565b3d9150612620565b505050505092505050565b50505092505050565b916121d49061267c6121e2959360608652606086019061217a565b9084820360208601526120c4565b1561269157565b606460405162461bcd60e51b815260206004820152600760248201527f65787069726564000000000000000000000000000000000000000000000000006044820152fd5b60031115610ba357565b90600182811c9216801561270f575b60208310146126f957565b634e487b7160e01b600052602260045260246000fd5b91607f16916126ee565b919082039182116121f257565b60e06001600160a01b037f978f5a06b7f22ed0a8d1bfc4c6d9d44b320a6f206eb9dde65c1de4dc27f48cc0921680600052600b60205260406000206001810154600282015461277581836121e5565b91612785600385015480946121e5565b935493808511156127c55761279a9085612719565b935b6040519586526020860152604085015260608401526080830152600060a083015260c0820152a1565b84818110156127dd576127d791612719565b9361279c565b505060009361279c565b60e06001600160a01b037f978f5a06b7f22ed0a8d1bfc4c6d9d44b320a6f206eb9dde65c1de4dc27f48cc0921680600052600b60205260406000206001810154600282015461283681836121e5565b91612846600385015480946121e5565b935493808511156128865761285b9085612719565b935b6040519586526020860152604085015260608401526080830152600a60a083015260c0820152a1565b848181101561289e5761289891612719565b9361285d565b505060009361285d565b51906001600160a01b038216820361001557565b91908260409103126100155760206128d3836128a8565b92015190565b156128e057565b606460405162461bcd60e51b815260206004820152600d60248201527f7072696365206973207a65726f000000000000000000000000000000000000006044820152fd5b94909360e096929998979361294b6001600160a01b0396610100895261010089019061209f565b9a602088015260408701526060860152612964816126d5565b608085015260a08401521660c08201520152565b1561297f57565b606460405162461bcd60e51b815260206004820152601e60248201527f63616c6c6572206973206e6f742070657270657475616c206b656570657200006044820152fd5b818102929181159184041417156121f257565b81156129e0570490565b634e487b7160e01b600052601260045260246000fd5b908015612db857612a15612a0c600454836129c3565b600154906129d6565b60009081926001600160a01b036008541680612d08575b508360ff60095460a01c1680612cf7575b80612cee575b612cdd575b506001600160a01b03601154168291809382151580612cd5575b80612ccc575b612c3e575b505050509180836001600160a01b0384169283151580612c35575b80612c2c575b612b96575b50505050506001600160a01b036013541690809180151580612b8d575b80612b84575b612b0a575b50509081612ac7575050565b6001600160a01b031680600052600b6020526040600020612ae98382546121e5565b9055600052600b602052612b0660016040600020019182546121e5565b9055565b909150612b178280612719565b91612b2e81836001600160a01b03601054166134f6565b6040516001600160a01b038516815260208101929092528160a091600360407fb941ac817f7372254f8b361eba8c11916dc5b2d11042579bb054d79246bb89319501526060820152426080820152a13880612abb565b50811515612ab6565b50811515612ab0565b93945091929091908110612c1e5781612bb281612bc593612719565b945b6001600160a01b03601054166134f6565b6040516001600160a01b038516815260208101929092528160a091600c60407fb941ac817f7372254f8b361eba8c11916dc5b2d11042579bb054d79246bb89319501526060820152426080820152a13880808080612a93565b9050612bc581600094612bb4565b50801515612a8e565b50811515612a88565b92935090918110612cc35782612c5391612719565b915b612c6b81836001600160a01b03601054166134f6565b6040516001600160a01b038716815260208101929092528160a091600b60407fb941ac817f7372254f8b361eba8c11916dc5b2d11042579bb054d79246bb89319501526060820152426080820152a138808080612a6d565b60009250612c55565b50801515612a68565b506001612a62565b612ce791926121e5565b9083612a48565b50801515612a43565b506001600160a01b03841615612a3d565b83945060409060a46001600160a01b0360109694965416835194859384927fcecf78d000000000000000000000000000000000000000000000000000000000845280600485015260248401528160448401526001600160a01b038b1660648401528860848401525af1908115612dad578491612d88575b50929138612a2c565b9050612da491935060403d604011610a0f57610a018183611ddc565b92909238612d7f565b6040513d86823e3d90fd5b5050565b6001600160a01b03168015612e4c576001600160a01b037f9016d09d72d40fdae2fd8ceac6b6234c7706214fd39c1cd1e609a0528c19930054826001600160a01b03198216177f9016d09d72d40fdae2fd8ceac6b6234c7706214fd39c1cd1e609a0528c19930055167f8be0079c531659141344cd1fd0a4f28419497f9722a3daafe3b4186f6b6457e0600080a3565b7f1e4fbdf700000000000000000000000000000000000000000000000000000000600052600060045260246000fd5b3d15612ea6573d90612e8c82611dff565b91612e9a6040519384611ddc565b82523d6000602084013e565b606090565b600260005414612ebc576002600055565b7f3ee5aeb50000000000000000000000000000000000000000000000000000000060005260046000fd5b612eef30613145565b808211612efa575090565b905090565b90929192838251036130da57612f168251346129d6565b90825180156129e057340693612f2b86611ee8565b93612f396040519586611ddc565b868552601f19612f4888611ee8565b01366020870137849560005b8251808210156130ce5760001981019081116121f25781146130bd575b6001600160a01b03612f9c6020612f888487612143565b51816040519382858094519384920161207c565b8101600c815203019020541689821015612157578160051b8601357fffffffffffffffffffffffffffffffffffffffffffffffffffffffffffffffe18736030181121561001557860180359067ffffffffffffffff82116100155760200190803603821361001557601f92818a6064602095601f19604051988997889687947fb3d316c100000000000000000000000000000000000000000000000000000000865260406004870152816044870152868601376000858286010152306024850152011681010301925af190811561245d5760009161308b575b5090600191613084828a612143565b5201612f54565b906020823d82116130b5575b816130a460209383611ddc565b810103126102265750516001613075565b3d9150613097565b94816130c8916121e5565b94612f71565b50505050939450505050565b606460405162461bcd60e51b815260206004820152602060248201527f496e636f6e73697374656e74207072696365206172726179206c656e677468736044820152fd5b90816020910312610015575160ff811681036100155790565b604d81116121f257600a0a90565b6001600160a01b036010541690604051907f313ce567000000000000000000000000000000000000000000000000000000008252602082600481865afa91821561245d5760009261323a575b506001600160a01b03602460209260405195869384927f70a082310000000000000000000000000000000000000000000000000000000084521660048301525afa91821561245d57600092613204575b506131fe60ff6131f76121e294600154906129c3565b9216613137565b906129d6565b91506020823d602011613232575b8161321f60209383611ddc565b81010312610015579051906131fe6131e1565b3d9150613212565b602091925060246132686001600160a01b0392843d8611613271575b6132608183611ddc565b81019061311e565b93925050613191565b503d613256565b61329960206001600160a01b0392816040519382858094519384920161207c565b8101600c8152030190205416806132b1575b50606490565b6000602491604051928380927fa666200f0000000000000000000000000000000000000000000000000000000082523060048301525afa90811561245d57600091613302575b5061016001516132ab565b3d8083833e6133118183611ddc565b8101906020818303126105ea5780519067ffffffffffffffff8211610d4d5701906101e0828203126105ea57604051926101e0840184811067ffffffffffffffff82111761348157604052825167ffffffffffffffff811161083a57830182601f8201121561083a5780519161338683611dff565b936133946040519586611ddc565b838552602084840101116102265750916133bd6101609594926101c0946020808501910161207c565b8352602081015160208401526133d5604082016128a8565b60408401526133e6606082016128a8565b60608401526133f7608082016128a8565b608084015261340860a082016128a8565b60a084015261341960c082016128a8565b60c084015261342a60e082016128a8565b60e084015261010081015161010084015261012081015161012084015261014081015161014084015283810151848401526101808101516101808401526101a08101516101a084015201516101c0820152906132f7565b602482634e487b7160e01b81526041600452fd5b6001600160a01b037f9016d09d72d40fdae2fd8ceac6b6234c7706214fd39c1cd1e609a0528c199300541633036134c857565b7f118cdaa7000000000000000000000000000000000000000000000000000000006000523360045260246000fd5b91613501908361387d565b91821515806135f4575b61351457505050565b6000928380936040926001600160a01b037fffffffff000000000000000000000000000000000000000000000000000000006019602087516135568982611ddc565b828152017f7472616e7366657228616464726573732c75696e74323536290000000000000081522016945192602084019586521660248301526044820152604481526135a3606482611ddc565b51925af16135af612e7b565b816135bd575b501561001557565b80518015925082156135d2575b5050386135b5565b81925090602091810103126100155760206135ed910161216d565b38806135ca565b506001600160a01b038216151561350b565b909192613613908261387d565b9283151580613757575b80613745575b61362e575b50505050565b600080949381946001600160a01b037fffffffff00000000000000000000000000000000000000000000000000000000602560405161366e606082611ddc565b8181527f7432353629000000000000000000000000000000000000000000000000000000604060208301927f7472616e7366657246726f6d28616464726573732c616464726573732c75696e845201522016948160405194602086019788521660248501521660448301526064820152606481526136ed608482611ddc565b51925af16136f9612e7b565b8161370e575b50156100155738808080613628565b8051801592508215613723575b5050386136ff565b819250906020918101031261001557602061373e910161216d565b388061371b565b506001600160a01b0381161515613623565b506001600160a01b038316151561361d565b6137d7916001600160a01b0361378f60208094816040519382858094519384920161207c565b8101600c815203019020541660405180809581947fb3d316c100000000000000000000000000000000000000000000000000000000835260406004840152604483019061209f565b306024830152039134905af190811561245d576000916137f5575090565b90506020813d60201161381c575b8161381060209383611ddc565b81010312610015575190565b3d9150613803565b60ff7ff0c57e16840df040f15088dc2f81fe391c3923bec73e23a9662efc9c229c6a005460401c161561385357565b7fd7e6bcf80000000000000000000000000000000000000000000000000000000060005260046000fd5b60206001600160a01b03916004604051809481937f313ce567000000000000000000000000000000000000000000000000000000008352165afa91821561245d576138da60ff6121e294612a0c946000916138e0575b5016613137565b906129c3565b6138f9915060203d602011613271576132608183611ddc565b386138d356fea26469706673582212205a3ab64eedb1fe3485035c4a38b436cdd8b730742548fbea6873de0ca3be35b864736f6c634300081c0033",
  "linkReferences": {},
  "deployedLinkReferences": {}
}