{
  "_format": "hh-sol-artifact-1",
  "contractName": "PrivatePool",
  "sourceName": "contracts/PrivatePool.sol",
  "abi": [
    {
      "inputs": [],
      "name": "InvalidInitialization",
      "type": "error"
    },
    {
      "inputs": [],
      "name": "NotInitializing",
      "type": "error"
    },
    {
      "inputs": [
        {
          "internalType": "address",
          "name": "owner",
          "type": "address"
        }
      ],
      "name": "OwnableInvalidOwner",
      "type": "error"
    },
    {
      "inputs": [
        {
          "internalType": "address",
          "name": "account",
          "type": "address"
        }
      ],
      "name": "OwnableUnauthorizedAccount",
      "type": "error"
    },
    {
      "anonymous": false,
      "inputs": [
        {
          "indexed": true,
          "internalType": "address",
          "name": "account",
          "type": "address"
        },
        {
          "indexed": true,
          "internalType": "address",
          "name": "token",
          "type": "address"
        },
        {
          "indexed": false,
          "internalType": "uint256",
          "name": "orderID",
          "type": "uint256"
        },
        {
          "indexed": false,
          "internalType": "uint256",
          "name": "amount",
          "type": "uint256"
        },
        {
          "indexed": false,
          "internalType": "uint256",
          "name": "margin",
          "type": "uint256"
        }
      ],
      "name": "AddMargin",
      "type": "event"
    },
    {
      "anonymous": false,
      "inputs": [
        {
          "indexed": false,
          "internalType": "address",
          "name": "maker",
          "type": "address"
        },
        {
          "indexed": false,
          "internalType": "uint256",
          "name": "amount",
          "type": "uint256"
        },
        {
          "indexed": false,
          "internalType": "uint256",
          "name": "availableAmount",
          "type": "uint256"
        },
        {
          "indexed": false,
          "internalType": "uint256",
          "name": "lockedAmount",
          "type": "uint256"
        },
        {
          "indexed": false,
          "internalType": "uint256",
          "name": "maintenanceMargin",
          "type": "uint256"
        },
        {
          "indexed": false,
          "internalType": "uint256",
          "name": "share",
          "type": "uint256"
        },
        {
          "indexed": false,
          "internalType": "uint256",
          "name": "flag",
          "type": "uint256"
        }
      ],
      "name": "BalanceOfMaker",
      "type": "event"
    },
    {
      "anonymous": false,
      "inputs": [
        {
          "indexed": false,
          "internalType": "uint256",
          "name": "dealID",
          "type": "uint256"
        },
        {
          "indexed": false,
          "internalType": "address",
          "name": "maker",
          "type": "address"
        },
        {
          "indexed": false,
          "internalType": "uint256",
          "name": "size",
          "type": "uint256"
        },
        {
          "indexed": false,
          "internalType": "uint256",
          "name": "price",
          "type": "uint256"
        },
        {
          "indexed": false,
          "internalType": "uint256",
          "name": "makerID",
          "type": "uint256"
        },
        {
          "indexed": false,
          "internalType": "uint256",
          "name": "makerGain",
          "type": "uint256"
        },
        {
          "indexed": false,
          "internalType": "uint256",
          "name": "makerLoss",
          "type": "uint256"
        },
        {
          "indexed": false,
          "internalType": "uint256",
          "name": "closeFlag",
          "type": "uint256"
        },
        {
          "indexed": false,
          "internalType": "uint256",
          "name": "closeType",
          "type": "uint256"
        }
      ],
      "name": "CloseMakerDealInPool",
      "type": "event"
    },
    {
      "anonymous": false,
      "inputs": [
        {
          "indexed": false,
          "internalType": "uint64",
          "name": "version",
          "type": "uint64"
        }
      ],
      "name": "Initialized",
      "type": "event"
    },
    {
      "anonymous": false,
      "inputs": [
        {
          "indexed": false,
          "internalType": "uint256",
          "name": "dealID",
          "type": "uint256"
        },
        {
          "indexed": false,
          "internalType": "address",
          "name": "maker",
          "type": "address"
        },
        {
          "indexed": false,
          "internalType": "uint256",
          "name": "value",
          "type": "uint256"
        },
        {
          "indexed": false,
          "internalType": "uint256",
          "name": "price",
          "type": "uint256"
        },
        {
          "indexed": false,
          "internalType": "uint256",
          "name": "makerID",
          "type": "uint256"
        },
        {
          "indexed": false,
          "internalType": "uint256",
          "name": "marginAmount",
          "type": "uint256"
        },
        {
          "indexed": false,
          "internalType": "uint256",
          "name": "maintenanceMargin",
          "type": "uint256"
        }
      ],
      "name": "LockInPrivatePool",
      "type": "event"
    },
    {
      "anonymous": false,
      "inputs": [
        {
          "indexed": false,
          "internalType": "uint256",
          "name": "dealID",
          "type": "uint256"
        },
        {
          "indexed": false,
          "internalType": "address",
          "name": "maker",
          "type": "address"
        },
        {
          "indexed": false,
          "internalType": "uint256",
          "name": "size",
          "type": "uint256"
        },
        {
          "indexed": false,
          "internalType": "uint256",
          "name": "price",
          "type": "uint256"
        },
        {
          "indexed": false,
          "internalType": "uint256",
          "name": "makerID",
          "type": "uint256"
        },
        {
          "indexed": false,
          "internalType": "uint256",
          "name": "marginAmount",
          "type": "uint256"
        },
        {
          "indexed": false,
          "internalType": "uint256",
          "name": "maintenanceMargin",
          "type": "uint256"
        },
        {
          "indexed": false,
          "internalType": "uint256",
          "name": "flag",
          "type": "uint256"
        }
      ],
      "name": "LockPoolMargin",
      "type": "event"
    },
    {
      "anonymous": false,
      "inputs": [
        {
          "indexed": true,
          "internalType": "address",
          "name": "previousOwner",
          "type": "address"
        },
        {
          "indexed": true,
          "internalType": "address",
          "name": "newOwner",
          "type": "address"
        }
      ],
      "name": "OwnershipTransferred",
      "type": "event"
    },
    {
      "anonymous": false,
      "inputs": [
        {
          "indexed": true,
          "internalType": "address",
          "name": "account",
          "type": "address"
        },
        {
          "indexed": true,
          "internalType": "address",
          "name": "token",
          "type": "address"
        },
        {
          "indexed": false,
          "internalType": "uint256",
          "name": "amount",
          "type": "uint256"
        },
        {
          "indexed": false,
          "internalType": "uint256",
          "name": "poolType",
          "type": "uint256"
        }
      ],
      "name": "Provide",
      "type": "event"
    },
    {
      "anonymous": false,
      "inputs": [
        {
          "indexed": true,
          "internalType": "address",
          "name": "token",
          "type": "address"
        },
        {
          "indexed": true,
          "internalType": "address",
          "name": "sender",
          "type": "address"
        },
        {
          "indexed": true,
          "internalType": "address",
          "name": "received",
          "type": "address"
        },
        {
          "indexed": false,
          "internalType": "enum ICommon.TransactionType",
          "name": "transactionType",
          "type": "uint8"
        },
        {
          "indexed": false,
          "internalType": "uint256",
          "name": "amount",
          "type": "uint256"
        },
        {
          "indexed": false,
          "internalType": "uint256",
          "name": "timestamp",
          "type": "uint256"
        }
      ],
      "name": "TransactionHistory",
      "type": "event"
    },
    {
      "anonymous": false,
      "inputs": [
        {
          "indexed": false,
          "internalType": "address",
          "name": "token",
          "type": "address"
        },
        {
          "indexed": false,
          "internalType": "address",
          "name": "sender",
          "type": "address"
        },
        {
          "indexed": false,
          "internalType": "address",
          "name": "received",
          "type": "address"
        },
        {
          "indexed": false,
          "internalType": "enum ICommon.TransactionType",
          "name": "transactionType",
          "type": "uint8"
        },
        {
          "indexed": false,
          "internalType": "uint256",
          "name": "amount",
          "type": "uint256"
        },
        {
          "indexed": false,
          "internalType": "uint256",
          "name": "timestamp",
          "type": "uint256"
        }
      ],
      "name": "TransferFee",
      "type": "event"
    },
    {
      "anonymous": false,
      "inputs": [
        {
          "indexed": true,
          "internalType": "address",
          "name": "account",
          "type": "address"
        },
        {
          "indexed": true,
          "internalType": "address",
          "name": "token",
          "type": "address"
        },
        {
          "indexed": false,
          "internalType": "uint256",
          "name": "amount",
          "type": "uint256"
        },
        {
          "indexed": false,
          "internalType": "uint256",
          "name": "poolType",
          "type": "uint256"
        }
      ],
      "name": "Withdraw",
      "type": "event"
    },
    {
      "anonymous": false,
      "inputs": [
        {
          "indexed": false,
          "internalType": "address",
          "name": "sender",
          "type": "address"
        },
        {
          "indexed": false,
          "internalType": "string",
          "name": "name",
          "type": "string"
        },
        {
          "indexed": false,
          "internalType": "uint256",
          "name": "beforeLeverage",
          "type": "uint256"
        },
        {
          "indexed": false,
          "internalType": "uint256",
          "name": "afterLeverage",
          "type": "uint256"
        }
      ],
      "name": "setLeverage",
      "type": "event"
    },
    {
      "stateMutability": "nonpayable",
      "type": "fallback"
    },
    {
      "inputs": [
        {
          "internalType": "uint256",
          "name": "_dealID",
          "type": "uint256"
        },
        {
          "internalType": "uint256",
          "name": "_amount",
          "type": "uint256"
        }
      ],
      "name": "addMarginAmount",
      "outputs": [],
      "stateMutability": "nonpayable",
      "type": "function"
    },
    {
      "inputs": [
        {
          "internalType": "uint256",
          "name": "_dealID",
          "type": "uint256"
        },
        {
          "internalType": "uint256",
          "name": "_profit",
          "type": "uint256"
        }
      ],
      "name": "checkMarginRisk",
      "outputs": [
        {
          "internalType": "bool",
          "name": "isRisk",
          "type": "bool"
        }
      ],
      "stateMutability": "view",
      "type": "function"
    },
    {
      "inputs": [
        {
          "internalType": "uint256",
          "name": "_id",
          "type": "uint256"
        },
        {
          "internalType": "uint8",
          "name": "_type",
          "type": "uint8"
        },
        {
          "internalType": "uint256",
          "name": "_profit",
          "type": "uint256"
        },
        {
          "internalType": "uint256",
          "name": "_loss",
          "type": "uint256"
        },
        {
          "internalType": "uint256",
          "name": "_amount",
          "type": "uint256"
        },
        {
          "internalType": "uint256",
          "name": "_price",
          "type": "uint256"
        },
        {
          "internalType": "bool",
          "name": "_transform",
          "type": "bool"
        }
      ],
      "name": "close",
      "outputs": [
        {
          "internalType": "uint256",
          "name": "makerProfit",
          "type": "uint256"
        },
        {
          "internalType": "uint256",
          "name": "makerLoss",
          "type": "uint256"
        },
        {
          "internalType": "bool",
          "name": "isLiquidated",
          "type": "bool"
        },
        {
          "internalType": "bool",
          "name": "isAgreement",
          "type": "bool"
        }
      ],
      "stateMutability": "nonpayable",
      "type": "function"
    },
    {
      "inputs": [],
      "name": "escrowAccount",
      "outputs": [
        {
          "internalType": "address",
          "name": "",
          "type": "address"
        }
      ],
      "stateMutability": "view",
      "type": "function"
    },
    {
      "inputs": [
        {
          "internalType": "uint256",
          "name": "_start",
          "type": "uint256"
        },
        {
          "internalType": "uint256",
          "name": "_end",
          "type": "uint256"
        },
        {
          "internalType": "uint256",
          "name": "_count",
          "type": "uint256"
        }
      ],
      "name": "getActiveDeals",
      "outputs": [
        {
          "components": [
            {
              "internalType": "address",
              "name": "makerAddr",
              "type": "address"
            },
            {
              "internalType": "bool",
              "name": "locked",
              "type": "bool"
            },
            {
              "internalType": "uint256",
              "name": "takerId",
              "type": "uint256"
            },
            {
              "internalType": "uint256",
              "name": "size",
              "type": "uint256"
            },
            {
              "internalType": "uint256",
              "name": "marginAmount",
              "type": "uint256"
            },
            {
              "internalType": "uint256",
              "name": "maintenanceMargin",
              "type": "uint256"
            },
            {
              "internalType": "uint256",
              "name": "pubPriFlag",
              "type": "uint256"
            },
            {
              "internalType": "uint256",
              "name": "movePrice",
              "type": "uint256"
            },
            {
              "internalType": "uint256",
              "name": "time",
              "type": "uint256"
            }
          ],
          "internalType": "struct IPool.MakerDeal[]",
          "name": "info",
          "type": "tuple[]"
        },
        {
          "internalType": "uint256[]",
          "name": "ids",
          "type": "uint256[]"
        },
        {
          "internalType": "uint256",
          "name": "end",
          "type": "uint256"
        }
      ],
      "stateMutability": "view",
      "type": "function"
    },
    {
      "inputs": [
        {
          "internalType": "address",
          "name": "maker",
          "type": "address"
        }
      ],
      "name": "getLP2Account",
      "outputs": [
        {
          "components": [
            {
              "internalType": "address payable",
              "name": "holder",
              "type": "address"
            },
            {
              "internalType": "uint256",
              "name": "amount",
              "type": "uint256"
            },
            {
              "internalType": "uint256",
              "name": "availableAmount",
              "type": "uint256"
            },
            {
              "internalType": "uint256",
              "name": "lockedAmount",
              "type": "uint256"
            },
            {
              "internalType": "uint256",
              "name": "maintenanceMargin",
              "type": "uint256"
            },
            {
              "internalType": "uint256",
              "name": "leverage",
              "type": "uint256"
            },
            {
              "internalType": "uint256",
              "name": "maintenanceMarginRate",
              "type": "uint256"
            },
            {
              "internalType": "uint256",
              "name": "addMarginRate",
              "type": "uint256"
            },
            {
              "internalType": "bool",
              "name": "autoAddMargin",
              "type": "bool"
            },
            {
              "internalType": "bool",
              "name": "isRejectOrder",
              "type": "bool"
            }
          ],
          "internalType": "struct IPool.LP2Account",
          "name": "",
          "type": "tuple"
        }
      ],
      "stateMutability": "view",
      "type": "function"
    },
    {
      "inputs": [],
      "name": "getMakerAddresses",
      "outputs": [
        {
          "internalType": "address[]",
          "name": "",
          "type": "address[]"
        }
      ],
      "stateMutability": "view",
      "type": "function"
    },
    {
      "inputs": [
        {
          "internalType": "uint256",
          "name": "makerDealID",
          "type": "uint256"
        }
      ],
      "name": "getMakerDeal",
      "outputs": [
        {
          "components": [
            {
              "internalType": "address",
              "name": "makerAddr",
              "type": "address"
            },
            {
              "internalType": "bool",
              "name": "locked",
              "type": "bool"
            },
            {
              "internalType": "uint256",
              "name": "takerId",
              "type": "uint256"
            },
            {
              "internalType": "uint256",
              "name": "size",
              "type": "uint256"
            },
            {
              "internalType": "uint256",
              "name": "marginAmount",
              "type": "uint256"
            },
            {
              "internalType": "uint256",
              "name": "maintenanceMargin",
              "type": "uint256"
            },
            {
              "internalType": "uint256",
              "name": "pubPriFlag",
              "type": "uint256"
            },
            {
              "internalType": "uint256",
              "name": "movePrice",
              "type": "uint256"
            },
            {
              "internalType": "uint256",
              "name": "time",
              "type": "uint256"
            }
          ],
          "internalType": "struct IPool.MakerDeal",
          "name": "",
          "type": "tuple"
        }
      ],
      "stateMutability": "view",
      "type": "function"
    },
    {
      "inputs": [
        {
          "internalType": "uint256[]",
          "name": "_ids",
          "type": "uint256[]"
        }
      ],
      "name": "getMakerDeals",
      "outputs": [
        {
          "components": [
            {
              "internalType": "address",
              "name": "makerAddr",
              "type": "address"
            },
            {
              "internalType": "bool",
              "name": "locked",
              "type": "bool"
            },
            {
              "internalType": "uint256",
              "name": "takerId",
              "type": "uint256"
            },
            {
              "internalType": "uint256",
              "name": "size",
              "type": "uint256"
            },
            {
              "internalType": "uint256",
              "name": "marginAmount",
              "type": "uint256"
            },
            {
              "internalType": "uint256",
              "name": "maintenanceMargin",
              "type": "uint256"
            },
            {
              "internalType": "uint256",
              "name": "pubPriFlag",
              "type": "uint256"
            },
            {
              "internalType": "uint256",
              "name": "movePrice",
              "type": "uint256"
            },
            {
              "internalType": "uint256",
              "name": "time",
              "type": "uint256"
            }
          ],
          "internalType": "struct IPool.MakerDeal[]",
          "name": "deals",
          "type": "tuple[]"
        }
      ],
      "stateMutability": "view",
      "type": "function"
    },
    {
      "inputs": [],
      "name": "getMakerDealsLength",
      "outputs": [
        {
          "internalType": "uint256",
          "name": "lpLen",
          "type": "uint256"
        }
      ],
      "stateMutability": "view",
      "type": "function"
    },
    {
      "inputs": [
        {
          "internalType": "address",
          "name": "maker",
          "type": "address"
        }
      ],
      "name": "getMakerUserDeals",
      "outputs": [
        {
          "internalType": "uint256[]",
          "name": "",
          "type": "uint256[]"
        }
      ],
      "stateMutability": "view",
      "type": "function"
    },
    {
      "inputs": [],
      "name": "getShareAddresses",
      "outputs": [
        {
          "internalType": "address[]",
          "name": "",
          "type": "address[]"
        }
      ],
      "stateMutability": "view",
      "type": "function"
    },
    {
      "inputs": [
        {
          "internalType": "address",
          "name": "initialOwner",
          "type": "address"
        },
        {
          "internalType": "address",
          "name": "_tokenAddress",
          "type": "address"
        },
        {
          "internalType": "address",
          "name": "_riskFundAddr",
          "type": "address"
        }
      ],
      "name": "initialize",
      "outputs": [],
      "stateMutability": "nonpayable",
      "type": "function"
    },
    {
      "inputs": [
        {
          "internalType": "uint256",
          "name": "",
          "type": "uint256"
        }
      ],
      "name": "matchIds",
      "outputs": [
        {
          "internalType": "uint256",
          "name": "",
          "type": "uint256"
        }
      ],
      "stateMutability": "view",
      "type": "function"
    },
    {
      "inputs": [
        {
          "internalType": "string",
          "name": "_name",
          "type": "string"
        },
        {
          "internalType": "uint256",
          "name": "_id",
          "type": "uint256"
        },
        {
          "internalType": "uint256",
          "name": "_amount",
          "type": "uint256"
        },
        {
          "internalType": "uint256",
          "name": "_tradingFee",
          "type": "uint256"
        },
        {
          "internalType": "uint256",
          "name": "_price",
          "type": "uint256"
        },
        {
          "internalType": "enum ICommon.Direct",
          "name": "_direction",
          "type": "uint8"
        }
      ],
      "name": "matchOrder",
      "outputs": [
        {
          "internalType": "bool",
          "name": "success",
          "type": "bool"
        },
        {
          "internalType": "uint256",
          "name": "remaining",
          "type": "uint256"
        }
      ],
      "stateMutability": "nonpayable",
      "type": "function"
    },
    {
      "inputs": [],
      "name": "owner",
      "outputs": [
        {
          "internalType": "address",
          "name": "",
          "type": "address"
        }
      ],
      "stateMutability": "view",
      "type": "function"
    },
    {
      "inputs": [],
      "name": "poolType",
      "outputs": [
        {
          "internalType": "enum ICommon.PoolFlag",
          "name": "",
          "type": "uint8"
        }
      ],
      "stateMutability": "view",
      "type": "function"
    },
    {
      "inputs": [
        {
          "internalType": "address",
          "name": "",
          "type": "address"
        },
        {
          "internalType": "string",
          "name": "",
          "type": "string"
        },
        {
          "internalType": "uint256",
          "name": "",
          "type": "uint256"
        }
      ],
      "name": "positions",
      "outputs": [
        {
          "internalType": "uint256",
          "name": "value",
          "type": "uint256"
        },
        {
          "internalType": "uint256",
          "name": "size",
          "type": "uint256"
        }
      ],
      "stateMutability": "view",
      "type": "function"
    },
    {
      "inputs": [],
      "name": "privateMinMintAmount",
      "outputs": [
        {
          "internalType": "uint256",
          "name": "",
          "type": "uint256"
        }
      ],
      "stateMutability": "view",
      "type": "function"
    },
    {
      "inputs": [
        {
          "internalType": "uint256",
          "name": "_amount",
          "type": "uint256"
        },
        {
          "internalType": "uint256",
          "name": "_priOrPub",
          "type": "uint256"
        }
      ],
      "name": "provide",
      "outputs": [],
      "stateMutability": "nonpayable",
      "type": "function"
    },
    {
      "inputs": [],
      "name": "renounceOwnership",
      "outputs": [],
      "stateMutability": "nonpayable",
      "type": "function"
    },
    {
      "inputs": [
        {
          "internalType": "address",
          "name": "_perpetual",
          "type": "address"
        },
        {
          "internalType": "address",
          "name": "_orderBook",
          "type": "address"
        },
        {
          "internalType": "address",
          "name": "_tradeAgent",
          "type": "address"
        },
        {
          "internalType": "address",
          "name": "_tradeStation",
          "type": "address"
        },
        {
          "internalType": "address",
          "name": "_keeper",
          "type": "address"
        }
      ],
      "name": "setKeepers",
      "outputs": [],
      "stateMutability": "nonpayable",
      "type": "function"
    },
    {
      "inputs": [
        {
          "internalType": "uint256",
          "name": "_value",
          "type": "uint256"
        }
      ],
      "name": "setPrivateMinMintAmount",
      "outputs": [],
      "stateMutability": "nonpayable",
      "type": "function"
    },
    {
      "inputs": [
        {
          "internalType": "uint256",
          "name": "_leverage",
          "type": "uint256"
        },
        {
          "internalType": "bool",
          "name": "_isRejectOrder",
          "type": "bool"
        },
        {
          "internalType": "bool",
          "name": "_autoAddMargin",
          "type": "bool"
        }
      ],
      "name": "setUserParam",
      "outputs": [],
      "stateMutability": "nonpayable",
      "type": "function"
    },
    {
      "inputs": [],
      "name": "totalLockedLiquidity",
      "outputs": [
        {
          "internalType": "uint256",
          "name": "",
          "type": "uint256"
        }
      ],
      "stateMutability": "view",
      "type": "function"
    },
    {
      "inputs": [
        {
          "internalType": "address",
          "name": "newOwner",
          "type": "address"
        }
      ],
      "name": "transferOwnership",
      "outputs": [],
      "stateMutability": "nonpayable",
      "type": "function"
    },
    {
      "inputs": [
        {
          "internalType": "uint256",
          "name": "_amount",
          "type": "uint256"
        },
        {
          "internalType": "uint256",
          "name": "_priOrPub",
          "type": "uint256"
        }
      ],
      "name": "withdraw",
      "outputs": [],
      "stateMutability": "nonpayable",
      "type": "function"
    }
  ],
  "bytecode": "0x608080604052346015576155c4908161001b8239f35b600080fdfe6080604052600436101561001a575b3461001557005b600080fd5b60003560e01c80630c8c3516146101ca5780631f92a4da146101c557806325737d40146101c057806336ff6a70146101bb578063441a3e70146101b657806346ceec98146101b15780634e091b22146101ac57806354b3b018146101a757806360d32e8d146101a2578063715018a61461019d578063880a1a77146101985780638da5cb5b146101935780638e3a0e921461018e578063a8ece51a14610189578063b1951cfd14610184578063b1dd61b61461017f578063bc1c1c6c1461017a578063c0c53b8b14610175578063c229894214610170578063c23e629f1461016b578063d3c76d6614610166578063e771ad7214610161578063e8c3c54f1461015c578063f26a3e1d14610157578063f2da708d14610152578063f2fde38b1461014d5763f6ef18390361000e57611b1c565b611aef565b611ad1565b611a47565b611788565b611668565b6115e6565b611416565b61138f565b6110f4565b611074565b61104a565b610f36565b610f0e565b610e90565b610e40565b610db4565b610cd8565b610c3c565b610c12565b610bdf565b610ab8565b61059b565b61056f565b6104d8565b6103f3565b610348565b6001600160a01b0381160361001557565b634e487b7160e01b600052604160045260246000fd5b610140810190811067ffffffffffffffff82111761021357604052565b6101e0565b90601f601f19910116810190811067ffffffffffffffff82111761021357604052565b6040519061024b61014083610218565b565b6040519061024b61012083610218565b6040519061024b61016083610218565b67ffffffffffffffff811161021357601f01601f191660200190565b81601f82011215610015578035906102a08261026d565b926102ae6040519485610218565b8284526020838301011161001557816000926020809301838601378301015290565b60005b8381106102e35750506000910152565b81810151838201526020016102d3565b60209061030d9282604051948386809551938492016102d0565b82019081520301902090565b634e487b7160e01b600052603260045260246000fd5b9060028110156103435760011b0190600090565b610319565b3461001557606060031936011261001557600435610365816101cf565b60243567ffffffffffffffff811161001557602061038a6103b6923690600401610289565b6001600160a01b03604435941660005260168252604060002082604051948386809551938492016102d0565b820190815203019020906002811015610015576103d29161032f565b508054600190910154604080519283526020830191909152819081015b0390f35b34610015576000600319360112610015576020601454604051908152f35b67ffffffffffffffff81116102135760051b60200190565b906020808351928381520192019060005b8181106104475750505090565b9091926020610120826104b9600194885161010080916001600160a01b03815116845260208101511515602085015260408101516040850152606081015160608501526080810151608085015260a081015160a085015260c081015160c085015260e081015160e08501520151910152565b01940192910161043a565b9060206104d5928181520190610429565b90565b346100155760206003193601126100155760043567ffffffffffffffff811161001557366023820112156100155780600401359061051582610411565b916105236040519384610218565b8083526024602084019160051b8301019136831161001557602401905b82821061055f576103ef61055385611dad565b604051918291826104c4565b8135815260209182019101610540565b346100155760206003193601126100155760043560005260176020526020604060002054604051908152f35b34610015576040600319360112610015576024356004358080151580610a09575b6105c590611dfe565b6105f16105d460135460ff1690565b6105dd8161103b565b84600382149182156109e3575b5050611e8d565b600183036107c5575061060381613c6e565b600261063761061e6013546001600160a01b039060081c1690565b6001600160a01b03166000526010602052604060002090565b015482111580610799575b61064b90611f2a565b336000908152600f60205260409020610665838254611f9a565b90556013546106949060081c6001600160a01b03165b6001600160a01b0316600052600f602052604060002090565b61069f838254611f9a565b905560016106bc61061e6013546001600160a01b039060081c1690565b016106c8828254611f9a565b90556106f160026106e861061e6013546001600160a01b039060081c1690565b01918254611f9a565b9055336000908152600f602052604090205415610784575b6107268161071f6005546001600160a01b031690565b3390613cda565b7ff341246adaac6f497bc2a656f546ab9e182111d630394f0c57c710a59a2cb56761077f6001600160a01b036107646005546001600160a01b031690565b60408051958652602086019690965216933393918291820190565b0390a3005b336000908152600f6020526040812055610709565b5061064b6107ba336001600160a01b0316600052600f602052604060002090565b548311159050610642565b600283036109de576107f26107ed336001600160a01b03166000526010602052604060002090565b611e94565b90604082016108048151831115611f2a565b6108206020840192610817818551611f9a565b84528251611f9a565b9052606082015115806109d4575b806109c8575b6109bb575b51908161099157505060005b600b54908181101561098a57610877610883610860836120ce565b9290923393546001600160a01b039160031b1c1690565b6001600160a01b031690565b14610892576001915001610845565b61089b82611f8b565b8103610931575b50506108ce6108c4336001600160a01b0316600052600c602052604060002090565b60ff198154169055565b6109246108ee336001600160a01b03166000526010602052604060002090565b60086000918281558260018201558260028201558260038201558260048201558260058201558260068201558260078201550155565b61092c612117565b610709565b61096461095e61094b61094661098395611f8b565b6120ce565b90546001600160a01b039160031b1c1690565b916120ce565b9091906001600160a01b038084549260031b9316831b921b1916179055565b38806108a2565b5050610709565b6109a261092c926014541115611fa7565b336000908152601060205260409020612008565b612008565b8051600082529250610839565b50805160145411610834565b508051151561082e565b611e49565b9091506109ef8261103b565b6109f88261103b565b610a018161103b565b1484386105ea565b506105c5610a266108776013546001600160a01b039060081c1690565b33141590506105bc565b61024b9092919261012080610140830195610a548482516001600160a01b03169052565b6020810151602085015260408101516040850152606081015160608501526080810151608085015260a081015160a085015260c081015160c085015260e081015160e0850152610aaf61010082015161010086019015159052565b01511515910152565b34610015576020600319360112610015576001600160a01b03600435610add816101cf565b6000610120604051610aee816101f6565b8281528260208201528260408201528260608201528260808201528260a08201528260c08201528260e08201528261010082015201521660005260106020526103ef6040600020610bd3610bc96008610b4561023b565b93610b67610b5a82546001600160a01b031690565b6001600160a01b03168652565b60018101546020860152600281015460408601526003810154606086015260048101546080860152600581015460a0860152600681015460c0860152600781015460e08601520154610bc060ff82161515610100860152565b60081c60ff1690565b1515610120830152565b60405191829182610a30565b346100155760206003193601126100155760043533600052600e602052610c0d60ff60406000205416612171565b601455005b346100155760006003193601126100155760206001600160a01b0360135460081c16604051908152f35b3461001557602060031936011261001557610120610c6d610c67600435610c61611c2d565b50611ce6565b50611d21565b610cd6604051809261010080916001600160a01b03815116845260208101511515602085015260408101516040850152606081015160608501526080810151608085015260a081015160a085015260c081015160c085015260e081015160e08501520151910152565bf35b3461001557600060031936011261001557610cf1613ddc565b60006001600160a01b037f9016d09d72d40fdae2fd8ceac6b6234c7706214fd39c1cd1e609a0528c199300546001600160a01b031981167f9016d09d72d40fdae2fd8ceac6b6234c7706214fd39c1cd1e609a0528c19930055167f8be0079c531659141344cd1fd0a4f28419497f9722a3daafe3b4186f6b6457e08280a3005b602060408183019282815284518094520192019060005b818110610d955750505090565b82516001600160a01b0316845260209384019390920191600101610d88565b3461001557600060031936011261001557604051806020600a54918281520190600a6000527fc65a7bb8d6351c1cf70c95a316cc6a92839c986682d98bc35f958f4883f9d2a89060005b818110610e21576103ef85610e1581870382610218565b60405191829182610d71565b82546001600160a01b0316845260209093019260019283019201610dfe565b346100155760006003193601126100155760206001600160a01b037f9016d09d72d40fdae2fd8ceac6b6234c7706214fd39c1cd1e609a0528c1993005416604051908152f35b6003111561001557565b346100155760c06003193601126100155760043567ffffffffffffffff811161001557610ec4610efa913690600401610289565b6024356044356084359160a43593610edb85610e86565b33600052600e602052610ef560ff60406000205416612171565b6121e2565b604080519215158352602083019190915290f35b34610015576000600319360112610015576020601554604051908152f35b8015150361001557565b3461001557606060031936011261001557600435602435610f5681610f2c565b60443590610f6382610f2c565b33600052600c60205260ff6040600020541615610fe157610fcd6008610fdf94610fa0336001600160a01b03166000526010602052604060002090565b90610fae6064821115612495565b600582015501805461ff00191692151560081b61ff0016929092178255565b9060ff60ff1983541691151516179055565b005b606460405162461bcd60e51b815260206004820152601260248201527f75736572206973206e6f742065786973747300000000000000000000000000006044820152fd5b634e487b7160e01b600052602160045260246000fd5b6005111561104557565b611025565b346100155760006003193601126100155760ff601354166040516005821015611045576020918152f35b3461001557600060031936011261001557604051806020600b54918281520190600b6000527f0175b7a638427703f0dbe7bb9bbf987a2551717b34e79f33b5b1008d1fa01db99060005b8181106110d5576103ef85610e1581870382610218565b82546001600160a01b03168452602090930192600192830192016110be565b3461001557606060031936011261001557600435611111816101cf565b6024359061111e826101cf565b60443561112a816101cf565b7ff0c57e16840df040f15088dc2f81fe391c3923bec73e23a9662efc9c229c6a00549267ffffffffffffffff61117960ff604087901c161561116b565b1590565b9567ffffffffffffffff1690565b1680159081611342575b6001149081611338575b15908161132f575b5061130557611216928461120d60017fffffffffffffffffffffffffffffffffffffffffffffffff00000000000000007ff0c57e16840df040f15088dc2f81fe391c3923bec73e23a9662efc9c229c6a005416177ff0c57e16840df040f15088dc2f81fe391c3923bec73e23a9662efc9c229c6a0055565b6112a057612529565b61121c57005b61127168ff0000000000000000197ff0c57e16840df040f15088dc2f81fe391c3923bec73e23a9662efc9c229c6a0054167ff0c57e16840df040f15088dc2f81fe391c3923bec73e23a9662efc9c229c6a0055565b604051600181527fc7f505b2f371ae2175ee4913f4499e1f2633a7b5936321eed1cdaeb6115181d290602090a1005b6113006801000000000000000068ff0000000000000000197ff0c57e16840df040f15088dc2f81fe391c3923bec73e23a9662efc9c229c6a005416177ff0c57e16840df040f15088dc2f81fe391c3923bec73e23a9662efc9c229c6a0055565b612529565b7ff92ee8a90000000000000000000000000000000000000000000000000000000060005260046000fd5b90501538611195565b303b15915061118d565b859150611183565b906020808351928381520192019060005b8181106113685750505090565b825184526020938401939092019160010161135b565b9060206104d592818152019061134a565b34610015576020600319360112610015576001600160a01b036004356113b4816101cf565b166000526011602052604060002060405190816020825491828152019160005260206000209060005b818110611400576103ef856113f481870382610218565b6040519182918261137e565b82548452602090930192600192830192016113dd565b346100155760406003193601126100155760243560043561145a61144a61143c83611ce6565b50546001600160a01b031690565b6001600160a01b03163314612719565b61148682600261147d336001600160a01b03166000526010602052604060002090565b01541015612764565b6114aa60016114a261149784611ce6565b505460a01c60ff1690565b1515146127af565b6114d48260026114cd336001600160a01b03166000526010602052604060002090565b0154611f9a565b60026114f3336001600160a01b03166000526010602052604060002090565b015561151f826003611518336001600160a01b03166000526010602052604060002090565b0154612808565b600361153e336001600160a01b03166000526010602052604060002090565b015561155782600361154f84611ce6565b500154612808565b600361156283611ce6565b50015561157961157483601554612808565b601555565b7fc8f742aa90a6e6851d2252fa58ed695d3ca295b55bf5f1c2164a360cc8a093e26001600160a01b036115b46005546001600160a01b031690565b61077f60036115c286611ce6565b50015460405193849316963396846040919493926060820195825260208201520152565b3461001557604060031936011261001557600435602435906000526017602052604060002054906000198201918211611635576080611629610c67602094611ce6565b01511115604051908152f35b611f75565b93929161166390611655604093606088526060880190610429565b90868203602088015261134a565b930152565b34610015576060600319360112610015576004356024356044358192809260009160125480921161177e575b8110611776575b509291926116a882611c83565b916116b281610411565b946116c06040519687610218565b818652601f196116cf83610411565b013660208801375b8481108061176d575b15611747576116f161149782611ce6565b611704575b6116ff90612815565b6116d7565b9161173f81846117176116ff948a611cd2565b52611724610c6786611ce6565b61172e8288611cd2565b526117398187611cd2565b50612815565b9290506116f6565b8593926103ef928103611762575b506040519384938461163a565b808452845284611755565b508183106116e0565b92503861169b565b9094508490611694565b346100155760406003193601126100155760043560243590806117ee6117e66108776013546117d76117ba8260ff1690565b6117c38161103b565b8860038214918215611a16575b5050612868565b60081c6001600160a01b031690565b33141561286f565b6117f7306142b4565b906118158130336118106005546001600160a01b031690565b6143d5565b60018403611990575061182f61183d9260015411156128ba565b611838306142b4565b611f9a565b611867611167611860336001600160a01b0316600052600d602052604060002090565b5460ff1690565b611955575b61187581614591565b600161189061061e6013546001600160a01b039060081c1690565b0161189c838254612808565b905560026118b961061e6013546001600160a01b039060081c1690565b016118c5838254612808565b90556013546118df9060081c6001600160a01b031661067b565b6118ea828254612808565b905561191461190c336001600160a01b0316600052600f602052604060002090565b918254612808565b90555b7f9675a307d5dddc49aefd66964913e794711b6c69e23cfe1fa44406ab2bbaeae861077f6001600160a01b036107646005546001600160a01b031690565b611982611975336001600160a01b0316600052600d602052604060002090565b600160ff19825416179055565b61198b33612905565b61186c565b915060028303611a115761182f6119ab9260145411156128ba565b6119b36144c0565b611a0c6119d66107ed336001600160a01b03166000526010602052604060002090565b602081016119e5848251612808565b9052604081016119f6848251612808565b9052336000908152601060205260409020612008565b611917565b612824565b909150611a228261103b565b611a2b8261103b565b611a348161103b565b1488386117d0565b60ff81160361001557565b346100155760e0600319360112610015576103ef611aa7600435602435611a6d81611a3c565b6044356064356084359160a4359360c43595611a8887610f2c565b33600052600e602052611aa260ff60406000205416612171565b612ac7565b60408051948552602085019390935290151591830191909152151560608201529081906080820190565b34610015576000600319360112610015576020601254604051908152f35b3461001557602060031936011261001557610fdf600435611b0f816101cf565b611b17613ddc565b613baf565b346100155760a060031936011261001557610fdf611975600435611b3f816101cf565b611c1461197560243592611b52846101cf565b611c1461197560443592611b65846101cf565b611bf461197560643595611b78876101cf565b6001600160a01b036084359a611b8d8c6101cf565b611b95613ddc565b16806001600160a01b03196008541617600855600052600e6020526040600020600160ff198254161790556001600160a01b0381166001600160a01b031960095416176009556001600160a01b0316600052600e602052604060002090565b611c14816001600160a01b03166001600160a01b03196007541617600755565b6001600160a01b0316600052600e602052604060002090565b60405190610120820182811067ffffffffffffffff821117610213576040526000610100838281528260208201528260408201528260608201528260808201528260a08201528260c08201528260e08201520152565b90611c8d82610411565b611c9a6040519182610218565b828152601f19611caa8294610411565b019060005b828110611cbb57505050565b602090611cc6611c2d565b82828501015201611caf565b80518210156103435760209160051b010190565b60125481101561034357601260005260206000209060031b0190600090565b80548210156103435760005260206000209060031b0190600090565b906007611d2c61024d565b92611d67611d5e8254611d55611d48826001600160a01b031690565b6001600160a01b03168852565b60a01c60ff1690565b15156020860152565b600181015460408501526002810154606085015260038101546080850152600481015460a0850152600581015460c0850152600681015460e08501520154610100830152565b908151611db981611c83565b9260005b828110611dc957505050565b80611de2610c67611ddc60019486611cd2565b51611ce6565b611dec8288611cd2565b52611df78187611cd2565b5001611dbd565b15611e0557565b606460405162461bcd60e51b815260206004820152600e60248201527f646f206e6f7420616c6c6f7765640000000000000000000000000000000000006044820152fd5b606460405162461bcd60e51b815260206004820152601360248201527f77726f6e6720776974686472617720666c6167000000000000000000000000006044820152fd5b15611e4957565b9061024b611f206008611ea561023b565b94611ec7611eba82546001600160a01b031690565b6001600160a01b03168752565b60018101546020870152600281015460408701526003810154606087015260048101546080870152600581015460a0870152600681015460c0870152600781015460e08701520154610bc060ff82161515610100870152565b1515610120840152565b15611f3157565b606460405162461bcd60e51b815260206004820152601060248201527f6c6f7765722074686520616d6f756e74000000000000000000000000000000006044820152fd5b634e487b7160e01b600052601160045260246000fd5b90600019820191821161163557565b9190820391821161163557565b15611fae57565b606460405162461bcd60e51b815260206004820152601860248201527f7374617920616d6f756e7420697320746f6f20736d616c6c00000000000000006044820152fd5b634e487b7160e01b600052600060045260246000fd5b906120b8610120600861024b9461204561202986516001600160a01b031690565b82906001600160a01b03166001600160a01b0319825416179055565b6020850151600182015560408501516002820155606085015160038201556080850151600482015560a0850151600582015560c0850151600682015560e0850151600782015501926120b161209e610100830151151590565b859060ff60ff1983541691151516179055565b0151151590565b815461ff00191690151560081b61ff0016179055565b600b5481101561034357600b60005260206000200190600090565b80548210156103435760005260206000200190600090565b634e487b7160e01b600052603160045260246000fd5b600b54801561216c57600019810190600090600b5483101561034357600b918290527f0175b7a638427703f0dbe7bb9bbf987a2551717b34e79f33b5b1008d1fa01db80180546001600160a01b031916905555565b612101565b1561217857565b608460405162461bcd60e51b815260206004820152602160248201527f63616c6c6572206973206e6f74207072697661746520706f6f6c206b6565706560448201527f72000000000000000000000000000000000000000000000000000000000000006064820152fd5b92919493906121f18387613e92565b926001600160a01b038392931693841560001461221657505050505050505060009190565b7f9a5787718e945183fe431d089b46b9ee2c5cd3ffbb79ca1a9b117fc29b31c6aa93929161244d9160029b98999a9b918985878d6122636108776013546001600160a01b039060081c1690565b8c1461248c575b868683612322936122ac611574846122a77f5e16b3b6e0a15f63fe16c5b5705c03147211e204ce01e5197d2a699c087e167b9b9a99601554612808565b612808565b6122d56122cc876001600160a01b03166000526011602052604060002090565b60125490615460565b50601254906040519788978b899491926001600160a01b0360e097949a999895929a61010088019b885216602087015260408601526060850152608084015260a083015260c08201520152565b0390a161237361233061024d565b6001600160a01b0387168152600160208201528260408201528b60608201528760808201528360a08201528460c08201528c60e082015242610100820152614019565b61238a601254916000526017602052604060002090565b556123a8846001600160a01b03166000526010602052604060002090565b90600160038301926123bf836122a78a8754612808565b84556123e560048201936123d4818654612808565b8555611838600284019a8b54611f9a565b885501549554915490549061240d866001600160a01b0316600052600f602052604060002090565b54926040519788978893909796959260c095926001600160a01b0360e087019a168652602086015260408501526060840152608083015260a08201520152565b0390a16013546124689060081c6001600160a01b0316610877565b1461247a575b50505050600190600090565b6124839361412d565b3880808061246e565b6001965061226a565b1561249c57565b606460405162461bcd60e51b815260206004820152600c60248201527f6f7574206f6620302d31303000000000000000000000000000000000000000006044820152fd5b9081600a0291600a83040361163557565b8181029291811591840414171561163557565b634e487b7160e01b600052601260045260246000fd5b8115612524570490565b612504565b612594611975926001600160a01b0361267995612544615535565b61254c615535565b61255533613baf565b61255d613ddc565b61256685613baf565b166001600160a01b031960065416176006556001600160a01b03166001600160a01b03196005541617600555565b601380547fffffffffffffffffffffff0000000000000000000000000000000000000000ff163360081b74ffffffffffffffffffffffffffffffffffffffff001617905560135461262d9060081c6001600160a01b03166126126001600160a01b038216916001600160a01b03166000526010602052604060002090565b906001600160a01b03166001600160a01b0319825416179055565b612659600861264b61061e6013546001600160a01b039060081c1690565b01600160ff19825416179055565b611c14611975306001600160a01b0316600052600e602052604060002090565b612699611975336001600160a01b0316600052600e602052604060002090565b6126ab600260ff196013541617601355565b6126ba60ff1960005416600055565b6126cb670de0b6b3a7640000600155565b6126dc670de0b6b3a7640000601455565b6126e6600a600255565b6127036126fe6126f76001546124e0565b6064900490565b600355565b61024b6127146126f76001546124e0565b600455565b1561272057565b606460405162461bcd60e51b815260206004820152600960248201527f4e6f74206d616b657200000000000000000000000000000000000000000000006044820152fd5b1561276b57565b606460405162461bcd60e51b815260206004820152601060248201527f45786365656420617661696c61626c65000000000000000000000000000000006044820152fd5b156127b657565b606460405162461bcd60e51b815260206004820152601660248201527f4c6971756964697479207374617475732077726f6e67000000000000000000006044820152fd5b906001820180921161163557565b9190820180921161163557565b60001981146116355760010190565b606460405162461bcd60e51b815260206004820152601260248201527f77726f6e67206465706f73697420666c616700000000000000000000000000006044820152fd5b1561282457565b1561287657565b606460405162461bcd60e51b815260206004820152601860248201527f77616c6c657420697320657363726f77206163636f756e7400000000000000006044820152fd5b156128c157565b606460405162461bcd60e51b815260206004820152600960248201527f746f6f20736d616c6c00000000000000000000000000000000000000000000006044820152fd5b600a5490680100000000000000008210156102135760018201600a55600a5482101561034357600a6000527fc65a7bb8d6351c1cf70c95a316cc6a92839c986682d98bc35f958f4883f9d2a890910180546001600160a01b0319166001600160a01b03909216919091179055565b519061024b826101cf565b519061024b82610e86565b5190600682101561001557565b81601f820112156100155780516129ac8161026d565b926129ba6040519485610218565b81845260208284010111610015576104d591602080850191016102d0565b6020818303126100155780519067ffffffffffffffff82116100155701906101608282031261001557612a0961025d565b91612a1381612973565b8352612a216020820161297e565b6020840152612a3260408201612989565b6040840152612a436060820161297e565b60608401526080810151608084015260a081015167ffffffffffffffff81116100155761014092612a75918301612996565b60a084015260c081015160c084015260e081015160e0840152610100810151610100840152610120810151610120840152015161014082015290565b6040513d6000823e3d90fd5b6003111561104557565b96939091959460009360008098600098612aeb8c6000526017602052604060002090565b54612af590611f8b565b93612aff85611ce6565b50938454612b13906001600160a01b031690565b98612b318a6001600160a01b03166000526010602052604060002090565b9e8f60018101548c60028301549260038101549060040154612b66836001600160a01b0316600052600f602052604060002090565b54604080516001600160a01b039590951685526020850195909552938301949094526060820152608081019290925260a0820152600a60c08201527f9a5787718e945183fe431d089b46b9ee2c5cd3ffbb79ca1a9b117fc29b31c6aa9060e090a160ff821615809b819c613b83575b50613aa2575b5060ff166001036132cb5750505060038201549a612bfd60048401548d612808565b90829c6002820154612c0f8185612808565b851115612e635750509091612c32612c278483611f9a565b600284015490611f9a565b90612c3b6145b0565b90818311612e3f575b5050916115749183612caa94612ded575b50612c6d826118386001840154600285015490611f9a565b600182015560006002820155612c87826003830154611f9a565b60038201556004612c9f818301548288015490611f9a565b910155601554611f9a565b612ce082612cdb612cc284546001600160a01b031690565b6001600160a01b03166000526011602052604060002090565b614733565b50612cec838b83615013565b15612cfc57505050505093929190565b90919295949897507fa9fda2d0d572da79a3bb128a2cd337112b06538bd638e802d7f392879dde36a8939650612d5088612d3e6005546001600160a01b031690565b6007546001600160a01b031690613cda565b60019586975b898b839560029360029515612ddd575b97612dcf969798612dd4575b600188015497546001600160a01b031698604051998a998a95926001600160a01b036101009895929b9a99969361012089019c895216602088015260408701526060860152608085015260a084015260c083015260e08201520152565b0390a1565b60019550612d72565b6002870154975060019450612d66565b80612e1b612e3992612e076005546001600160a01b031690565b6006546001600160a01b03165b30916143d5565b6006546001600160a01b031687546001600160a01b03165b9061466f565b38612c55565b819e50612caa94926118386115749593612e5893612808565b9d9193819350612c44565b838511156130d657505090916003840154612e7e8183611f9a565b600884015460ff811690816130c1575b50806130b3575b612f645750509161157491612ed1612eb083612ee496611f9a565b612ec281611838866001870154611f9a565b60018401556002830154611f9a565b6002820155612c87826003830154611f9a565b612efc82612cdb612cc284546001600160a01b031690565b50612f08838b83614d7e565b15612f1857505050505093929190565b90919295949897507fa9fda2d0d572da79a3bb128a2cd337112b06538bd638e802d7f392879dde36a8939650612f5a88612d3e6005546001600160a01b031690565b6001958697612d56565b97509a509b5096505095975050612fda9250612fa0612fb291600354906007870154806130a9575b50612f9b9060028901546124f1565b6124f1565b612fad600154809261251a565b61251a565b612fbc8183612808565b6002850154929083106130a057612fd39250612808565b8094612808565b6003830155612fed836002830154611f9a565b600282015560036130018482840154612808565b91015561301361157483601554612808565b7fc8f742aa90a6e6851d2252fa58ed695d3ca295b55bf5f1c2164a360cc8a093e26001600160a01b0361304d83546001600160a01b031690565b936130916130636005546001600160a01b031690565b9160036001870154960154908460405195869516981696846040919493926060820195825260208201520152565b0390a360009190600090600090565b50508094612808565b9150612f9b612f8c565b506002840154811115612e95565b6130d0915060081c60ff161590565b38612e8e565b600883015460ff811690816132b6575b50613219575b50506130fc826001830154611f9a565b600182015561310f826003830154611f9a565b60038201556004613127818301548287015490611f9a565b91015561313961157482601554611f9a565b61315184612cdb612cc286546001600160a01b031690565b5061315d858285614821565b1561316f575050505050505093929190565b612f5a9293949598979b9a507fa9fda2d0d572da79a3bb128a2cd337112b06538bd638e802d7f392879dde36a89699506131b582612d3e6005546001600160a01b031690565b6131e66131ca6005546001600160a01b031690565b6006546001600160a01b03166131e08585611f9a565b91613cda565b6132136131fa85546001600160a01b031690565b9261320d6006546001600160a01b031690565b92611f9a565b916146bd565b81851061329b5761322a8286611f9a565b8181111561323c5750505038806130ec565b97949e5097509a50975050612fa091979950612fda9550613276925060035490600788015480613291575b50612f9b9060028a01546124f1565b90826132828383612808565b116130a057612fd39250612808565b9150612f9b613267565b50505050995050505050505091505060009190600090600090565b6132c5915060081c60ff161590565b386130e6565b87949596979d9b999d9c9a989391929c156000146136bc5785547fffffffffffffffffffffff00ffffffffffffffffffffffffffffffffffffffff1686558b929190600387019081549361332560048a0195865490612808565b95613334876003830154611f9a565b6003820155600461334a81830154885490611f9a565b91015561335c61157487601554611f9a565b6133748a612cdb612cc28c546001600160a01b031690565b5083156135eb5750508c9d6002839e015461338f8187612808565b84111561351157506133eb575b50505060028b6133df6000936118387fa9fda2d0d572da79a3bb128a2cd337112b06538bd638e802d7f392879dde36a89b9c9d9e9f600101548585015490611f9a565b60018201550155612d56565b61340392916133fb915490611f9a565b905490611f9a565b61341260028d01548092611f9a565b9061341b6145b0565b8083116134e8575b509b6133df6000936134da7fa9fda2d0d572da79a3bb128a2cd337112b06538bd638e802d7f392879dde36a89b9c9d9e9f9461348a60029661346d6005546001600160a01b031690565b906131e06134836007546001600160a01b031690565b9187612808565b6134be816134a06005546001600160a01b031690565b6006546001600160a01b03166007546001600160a01b0316916143d5565b6006546001600160a01b03168a546001600160a01b0316612e33565b9350819d9c9b9a995061339c565b9298999a9b509050816134fb828a612808565b9061350591612808565b9a999897919038613423565b909350847fa9fda2d0d572da79a3bb128a2cd337112b06538bd638e802d7f392879dde36a89b9c9d9e9f959250831160001461359d57509161356c8261355c60029561357a95611f9a565b92613582575b6001860154611f9a565b600185015582840154611f9a565b910155612d56565b61359881612d3e6005546001600160a01b031690565b613562565b916118386135ad92829694612808565b600282015560016135c18482840154611f9a565b9101556135cf575b50612d56565b6135e590612d3e6005546001600160a01b031690565b386135c9565b959e909d9493509150508315613684577fa9fda2d0d572da79a3bb128a2cd337112b06538bd638e802d7f392879dde36a898999a9b9c9d50836122a760029361364f93613658575b613641836001880154612808565b600187015584860154612808565b91015599612d56565b61367f8361366e6005546001600160a01b031690565b6007546001600160a01b0316612e14565b613633565b507fa9fda2d0d572da79a3bb128a2cd337112b06538bd638e802d7f392879dde36a89798999a9b925061357a60029182840154612808565b8b9c506136f79b919a6136d38660038901546124f1565b936136fe6136e660028a0154809761251a565b9e8f96612fad8a60048d01546124f1565b8096612808565b9361370d856003830154611f9a565b600382015560046137218782840154611f9a565b91015561373361157485601554611f9a565b8c156139e757505050899b60019a60028201546137508185612808565b82111561388057507fa9fda2d0d572da79a3bb128a2cd337112b06538bd638e802d7f392879dde36a8999a9b9c9d508261384b9261379561385a969561383f94611f9a565b916137a560028301548094611f9a565b916137ae6145b0565b808411613877575b506002906137d46122a7949561346d6005546001600160a01b031690565b6137ea856134a06005546001600160a01b031690565b613812858d612e336138046006546001600160a01b031690565b91546001600160a01b031690565b61382d613823846001840154611f9a565b8383015490611f9a565b60018201556000910181905590612808565b9c5b6003870154611f9a565b60038601556004850154611f9a565b600484015561386d826002850154611f9a565b6002840155612d56565b925060026137b6565b838294929e959e116000146139065750926139018361384b937fa9fda2d0d572da79a3bb128a2cd337112b06538bd638e802d7f392879dde36a89c9d9e9f956138cf61385a986138d992611f9a565b6002830154611f9a565b600282015560016138ed8382840154611f9a565b9101556005546001600160a01b0316612d3e565b613841565b848411156139585750926139018361384b937fa9fda2d0d572da79a3bb128a2cd337112b06538bd638e802d7f392879dde36a89c9d9e9f9561394e6138d99161385a99611f9a565b6002830154612808565b83919d9a9b9c5060009d61396b91612808565b9061397591611f9a565b60028201558160018201549061398a91611f9a565b6001909101556005546001600160a01b0316906007546139b0906001600160a01b031690565b6139b992613cda565b7fa9fda2d0d572da79a3bb128a2cd337112b06538bd638e802d7f392879dde36a89661384b61385a92613841565b929e919d909c9a9b5098999298908215613a5e575081809e600283015490613a0e91612808565b90613a1891612808565b600282015581600182015490613a2d91612808565b6001909101556005546001600160a01b031690600754613a53906001600160a01b031690565b30906139b9936143d5565b9d7fa9fda2d0d572da79a3bb128a2cd337112b06538bd638e802d7f392879dde36a899925092816002613a9a61385a968261384b960154612808565b910155613841565b906000613afa92613ac16108776108776008546001600160a01b031690565b60405180809681947f82fd5bac000000000000000000000000000000000000000000000000000000008352600483019190602083019252565b03915afa908115613b7e57613b4b60ff92600194600091613b5d575b508c613b525760028a015460c08201525b60a0810151906020810151613b3b81612abd565b60e060c0830151920151926141b8565b9150612bdb565b8c60c0820152613b27565b613b78913d8091833e613b708183610218565b8101906129d8565b38613b16565b612ab1565b90506001600160a01b03613ba66108776013546001600160a01b039060081c1690565b91161438612bd5565b6001600160a01b03168015613c3f576001600160a01b037f9016d09d72d40fdae2fd8ceac6b6234c7706214fd39c1cd1e609a0528c19930054826001600160a01b03198216177f9016d09d72d40fdae2fd8ceac6b6234c7706214fd39c1cd1e609a0528c19930055167f8be0079c531659141344cd1fd0a4f28419497f9722a3daafe3b4186f6b6457e0600080a3565b7f1e4fbdf700000000000000000000000000000000000000000000000000000000600052600060045260246000fd5b613c8090613c7a6152a8565b906124f1565b600154908115612524570490565b3d15613cb9573d90613c9f8261026d565b91613cad6040519384610218565b82523d6000602084013e565b606090565b9081602091031261001557516104d581610f2c565b1561001557565b91613ce5908361530f565b80613cef57505050565b61024b92600092838093613d95604093613d877fffffffff00000000000000000000000000000000000000000000000000000000601960208851613d338a82610218565b828152017f7472616e7366657228616464726573732c75696e7432353629000000000000008152201695519384926020840197885260248401602090939291936001600160a01b0360408201951681520152565b03601f198101835282610218565b51925af1613da1613c8e565b81613dad575b50613cd3565b8051801592508215613dc2575b505038613da7565b613dd59250602080918301019101613cbe565b3880613dba565b6001600160a01b037f9016d09d72d40fdae2fd8ceac6b6234c7706214fd39c1cd1e609a0528c19930054163303613e0f57565b7f118cdaa7000000000000000000000000000000000000000000000000000000006000523360045260246000fd5b15613e4457565b606460405162461bcd60e51b815260206004820152601560248201527f706f6f6c207374617475732069732072656675736500000000000000000000006044820152fd5b8115612524570690565b601354919060ff8316613ea48161103b565b600481141580614007575b613eb890613e3d565b600b5490613ec58161103b565b600381148015928184613ff4575b80613feb575b613f36575b50613ee88261103b565b91613f22575b50613f0157505050600090600090600090565b613f1b9260081c6001600160a01b031661536f565b61536f565b9192909190565b60019150613f2f8161103b565b1438613eee565b613f90816040516020810190613f8881613d8742414487917fffffffffffffffffffffffffffffffffffffffff0000000000000000000000009060549492845260601b16602083015260348201520190565b519020613e88565b9060005b818110613fa2575050613ede565b613fc08888613f1661094b61094687613fbb888b612808565b613e88565b90916001600160a01b038116613fdb57505050600101613f94565b9b919a5098509650505050505050565b50801515613ed9565b50613ffe8361103b565b60028314613ed3565b506140118161103b565b801515613eaf565b601254680100000000000000008110156102135780600161403f92016012556012611d05565b919091614115576101008161407c614060600794516001600160a01b031690565b85906001600160a01b03166001600160a01b0319825416179055565b6140d261408c6020830151151590565b85547fffffffffffffffffffffff00ffffffffffffffffffffffffffffffffffffffff1690151560a01b74ff000000000000000000000000000000000000000016178555565b60408101516001850155606081015160028501556080810151600385015560a0810151600485015560c0810151600585015560e081015160068501550151910155565b611ff2565b60ff6000199116019060ff821161163557565b61418c9161417e61416f614184939695966141696001600160a01b0360135460081c166001600160a01b03166000526016602052604060002090565b906102f3565b9161417981612abd565b61411a565b9061032f565b5091836124f1565b600154908115612524570490805482018092116116355760019181550180549182018092116116355755565b6141f092935061416f61417e916141696001600160a01b0360135460081c166001600160a01b03166000526016602052604060002090565b506001810191825480821161423e5780820361421157505090600080925555565b82549061421e83836124f1565b8115612524570481039081116116355761423a92558254611f9a565b9055565b606460405162461bcd60e51b815260206004820152601c60248201527f736861726520616d6f756e7420697320696e73756666696369656e74000000006044820152fd5b9081602091031261001557516104d581611a3c565b90816020910312610015575190565b604d811161163557600a0a90565b6142cc6108776108776005546001600160a01b031690565b6040519163313ce56760e01b8352602083600481855afa908115613b7e5761433f936000926143a5575b506020919260405180809681947f70a08231000000000000000000000000000000000000000000000000000000008352600483019190916001600160a01b036020820193169052565b03915afa918215613b7e5760ff6143696104d59461437093600091614376575b50600154906124f1565b92166142a6565b9061251a565b614398915060203d60201161439e575b6143908183610218565b810190614297565b3861435f565b503d614386565b602092506143c890833d85116143ce575b6143c08183610218565b810190614282565b916142f6565b503d6143b6565b926143e3909291928461530f565b92836143f0575b50505050565b6144b7936000809493613d958295613d877fffffffff000000000000000000000000000000000000000000000000000000006025604051614432606082610218565b8181527f7432353629000000000000000000000000000000000000000000000000000000604060208301927f7472616e7366657246726f6d28616464726573732c616464726573732c75696e8452015220169560405194859360208501988952602485016001600160a01b036040929594938160608401971683521660208201520152565b388080806143ea565b33600052600c60205260ff60406000205416156144d957565b33600052600c6020526040600020600160ff19825416179055600b54680100000000000000008110156102135760018101600b55600b5481101561034357600b6000527f0175b7a638427703f0dbe7bb9bbf987a2551717b34e79f33b5b1008d1fa01db90180546001600160a01b03191633179055614570600861264b336001600160a01b03166000526010602052604060002090565b61024b33612612336001600160a01b03166000526010602052604060002090565b60015461459d916124f1565b6145a56152a8565b908115612524570490565b6145c86108776108776005546001600160a01b031690565b6040519063313ce56760e01b8252602082600481845afa908115613b7e5761433f9260009261464d575b506020906146086006546001600160a01b031690565b9060405180809681947f70a08231000000000000000000000000000000000000000000000000000000008352600483019190916001600160a01b036020820193169052565b602091925061466890823d84116143ce576143c08183610218565b91906145f2565b91907feb42cf637f927243245c50b4bf7fe105fe4f4d26209102240f2ba3d8e27a7df860606001600160a01b03808060055416946040519660098852602088015242604088015216951693a4565b91907feb42cf637f927243245c50b4bf7fe105fe4f4d26209102240f2ba3d8e27a7df860606001600160a01b03808060055416946040519660088852602088015242604088015216951693a4565b8054801561216c57600019019061472282826120e9565b60001982549160031b1b1916905555565b906001820190614753611167611860838590600052602052604060002090565b6148195782549060005b82811061476e575050505050600090565b8161478661477c83886120e9565b90549060031b1c90565b146147935760010161475d565b9492909193945b6147a385611f8b565b8110156147f2576001816147ea6147c861477c6147c26147a3966127fa565b8b6120e9565b6147d2838b6120e9565b90919060001983549160031b92831b921b1916179055565b01905061479a565b5061481493506148056108c4939561470b565b90600052602052604060002090565b600190565b505050600090565b90916148829061483f6108776108776008546001600160a01b031690565b6000600185019182549060405180809781947f82fd5bac000000000000000000000000000000000000000000000000000000008352600483019190602083019252565b03915afa928315613b7e57600093614d63575b50601354600360ff82166148a88161103b565b1480614d57575b80614d2b575b614958575b50505061492592506148d382546001600160a01b031690565b6001600160a01b036148f46108776013546001600160a01b039060081c1690565b91161461492a575b507fffffffffffffffffffffff00ffffffffffffffffffffffffffffffffffffffff8154169055565b600090565b8060a061495292015190602081015161494281612abd565b60e06002860154920151926141b8565b386148fc565b6001600160a01b03919060081c8216956149886107ed886001600160a01b03166000526010602052604060002090565b9660016149ca6149b08483611518866001600160a01b03166000526010602052604060002090565b926001600160a01b03166000526010602052604060002090565b015560135460081c6001600160a01b03166002614a026149b08483611518866001600160a01b03166000526010602052604060002090565b015560135460081c6001600160a01b0316936002870192614a258285548861536f565b979196909616614a5e5750505050505050614a56614925936109b661061e6013546001600160a01b039060081c1690565b3880806148ba565b614a8591929497939699509794976001600160a01b03166000526010602052604060002090565b9060038201918989845490614a9991612808565b90614aa391612808565b835560048101938a855490614ab791612808565b855560028201928b8b855490614acc91611f9a565b90614ad691611f9a565b84558a60038901558b60048901558254614af6906001600160a01b031690565b8854600b60058b01556001600160a01b03919091167fffffffffffffffffffffff00000000000000000000000000000000000000000090911617740100000000000000000000000000000000000000001788555b86600689015560a08201516020830151614b6381612abd565b8b549360e00193845191614b769361412d565b549889614b8d816000526017602052604060002090565b54614b9790611f8b565b9c8d9954614bab906001600160a01b031690565b92549351604080519384526001600160a01b038516602085015283018590526060830152608082019d909d5260a081019b909b5260c08b019b909b52600360e08b015299987f5e16b3b6e0a15f63fe16c5b5705c03147211e204ce01e5197d2a699c087e167b9061010090a16001015490549154925460135460081c6001600160a01b0316614c4d906001600160a01b0316600052600f602052604060002090565b54604080516001600160a01b038c16815260208101949094528301939093526060820193909352608081019290925260a0820152600360c08201527f9a5787718e945183fe431d089b46b9ee2c5cd3ffbb79ca1a9b117fc29b31c6aa9060e090a1604051958695614d0295879293610100946001600160a01b036005979399989461012087019a8752166020860152604085015260608401526080830152600060a083015260c0820152600160e08201520152565b037fa9fda2d0d572da79a3bb128a2cd337112b06538bd638e802d7f392879dde36a891a1600190565b5084546001600160a01b03166001600160a01b03614d4e600884901c8216610877565b911614156148b5565b5060005460ff166148af565b614d7791933d8091833e613b708183610218565b9138614895565b9091614d9c9061483f6108776108776008546001600160a01b031690565b03915afa928315613b7e57600093614ff8575b50601354600360ff8216614dc28161103b565b1480614fec575b80614fc0575b614dec5750505061492592506148d382546001600160a01b031690565b6001600160a01b03919060081c821695614e1c6107ed886001600160a01b03166000526010602052604060002090565b966001614e446149b08483611518866001600160a01b03166000526010602052604060002090565b015560135460081c6001600160a01b03166002614e7c6149b08483611518866001600160a01b03166000526010602052604060002090565b015560135460081c6001600160a01b0316936002870192614e9f8285548861536f565b979196909616614ed05750505050505050614a56614925936109b661061e6013546001600160a01b039060081c1690565b614ef791929497939699509794976001600160a01b03166000526010602052604060002090565b9060038201918989845490614f0b91612808565b90614f1591612808565b835560048101938a855490614f2991612808565b855560028201928b8b855490614f3e91611f9a565b90614f4891611f9a565b84558a60038901558b60048901558254614f68906001600160a01b031690565b8854600c60058b01556001600160a01b03919091167fffffffffffffffffffffff0000000000000000000000000000000000000000009091161774010000000000000000000000000000000000000000178855614b4a565b5084546001600160a01b03166001600160a01b03614fe3600884901c8216610877565b91161415614dcf565b5060005460ff16614dc9565b61500c91933d8091833e613b708183610218565b9138614daf565b90916150319061483f6108776108776008546001600160a01b031690565b03915afa928315613b7e5760009361528d575b50601354600360ff82166150578161103b565b1480615281575b80615255575b6150815750505061492592506148d382546001600160a01b031690565b6001600160a01b03919060081c8216956150b16107ed886001600160a01b03166000526010602052604060002090565b9660016150d96149b08483611518866001600160a01b03166000526010602052604060002090565b015560135460081c6001600160a01b031660026151116149b08483611518866001600160a01b03166000526010602052604060002090565b015560135460081c6001600160a01b03169360028701926151348285548861536f565b9791969096166151655750505050505050614a56614925936109b661061e6013546001600160a01b039060081c1690565b61518c91929497939699509794976001600160a01b03166000526010602052604060002090565b90600382019189898454906151a091612808565b906151aa91612808565b835560048101938a8554906151be91612808565b855560028201928b8b8554906151d391611f9a565b906151dd91611f9a565b84558a60038901558b600489015582546151fd906001600160a01b031690565b8854600d60058b01556001600160a01b03919091167fffffffffffffffffffffff0000000000000000000000000000000000000000009091161774010000000000000000000000000000000000000000178855614b4a565b5084546001600160a01b03166001600160a01b03615278600884901c8216610877565b91161415615064565b5060005460ff1661505e565b6152a191933d8091833e613b708183610218565b9138615044565b600460206001600160a01b0360095416604051928380927f3b1e6a590000000000000000000000000000000000000000000000000000000082525afa908115613b7e576000916152f6575090565b6104d5915060203d60201161439e576143908183610218565b9060206001600160a01b039260046040518095819363313ce56760e01b8352165afa8015613b7e5760ff613c7a91613c8094600091615350575b50166142a6565b615369915060203d6020116143ce576143c08183610218565b38615349565b9190916153926107ed826001600160a01b03166000526010602052604060002090565b9161012083015161541c576002549360a084015180615412575b506153cd6153bf6040936153e6936124f1565b95612fad600154809861251a565b94612fad60045460c08701518061540a575b50876124f1565b9201516153f38385612808565b111561540757505050600090600090600090565b92565b9050386153df565b94506153cd6153ac565b50505050600090600090600090565b908154916801000000000000000083101561021357826147d291600161024b950181556120e9565b8015611635576000190190565b919060018301816000528060205260ff6040600020541661552d57600084545b8082106154eb5750615492838661542b565b61549c8554611f8b565b8181116154bb575090614805836147d2611975959461481497986120e9565b806154e16154d761477c6154d16154e695611f8b565b8a6120e9565b6147d2838a6120e9565b615453565b61549c565b908181018082116116355760011c908461550583896120e9565b90549060031b1c106000146155265750600181018091116116355790615480565b9150615480565b506000925050565b60ff7ff0c57e16840df040f15088dc2f81fe391c3923bec73e23a9662efc9c229c6a005460401c161561556457565b7fd7e6bcf80000000000000000000000000000000000000000000000000000000060005260046000fdfea2646970667358221220eb5ca1a6129dd03756528388abd01e0abccd857b6920261b3a04f5e6a984157d64736f6c634300081c0033",
  "linkReferences": {},
  "deployedLinkReferences": {}
}