{
  "_format": "hh-sol-artifact-1",
  "contractName": "PrivatePool",
  "sourceName": "contracts/PrivatePool.sol",
  "abi": [
    {
      "inputs": [],
      "name": "InvalidInitialization",
      "type": "error"
    },
    {
      "inputs": [],
      "name": "NotInitializing",
      "type": "error"
    },
    {
      "inputs": [
        {
          "internalType": "address",
          "name": "owner",
          "type": "address"
        }
      ],
      "name": "OwnableInvalidOwner",
      "type": "error"
    },
    {
      "inputs": [
        {
          "internalType": "address",
          "name": "account",
          "type": "address"
        }
      ],
      "name": "OwnableUnauthorizedAccount",
      "type": "error"
    },
    {
      "anonymous": false,
      "inputs": [
        {
          "indexed": true,
          "internalType": "address",
          "name": "account",
          "type": "address"
        },
        {
          "indexed": true,
          "internalType": "address",
          "name": "token",
          "type": "address"
        },
        {
          "indexed": false,
          "internalType": "uint256",
          "name": "orderID",
          "type": "uint256"
        },
        {
          "indexed": false,
          "internalType": "uint256",
          "name": "amount",
          "type": "uint256"
        },
        {
          "indexed": false,
          "internalType": "uint256",
          "name": "margin",
          "type": "uint256"
        }
      ],
      "name": "AddMargin",
      "type": "event"
    },
    {
      "anonymous": false,
      "inputs": [
        {
          "indexed": false,
          "internalType": "address",
          "name": "maker",
          "type": "address"
        },
        {
          "indexed": false,
          "internalType": "uint256",
          "name": "amount",
          "type": "uint256"
        },
        {
          "indexed": false,
          "internalType": "uint256",
          "name": "availableAmount",
          "type": "uint256"
        },
        {
          "indexed": false,
          "internalType": "uint256",
          "name": "lockedAmount",
          "type": "uint256"
        },
        {
          "indexed": false,
          "internalType": "uint256",
          "name": "maintenanceMargin",
          "type": "uint256"
        },
        {
          "indexed": false,
          "internalType": "uint256",
          "name": "share",
          "type": "uint256"
        },
        {
          "indexed": false,
          "internalType": "uint256",
          "name": "flag",
          "type": "uint256"
        }
      ],
      "name": "BalanceOfMaker",
      "type": "event"
    },
    {
      "anonymous": false,
      "inputs": [
        {
          "indexed": false,
          "internalType": "uint64",
          "name": "version",
          "type": "uint64"
        }
      ],
      "name": "Initialized",
      "type": "event"
    },
    {
      "anonymous": false,
      "inputs": [
        {
          "indexed": false,
          "internalType": "uint256",
          "name": "dealID",
          "type": "uint256"
        },
        {
          "indexed": false,
          "internalType": "address",
          "name": "maker",
          "type": "address"
        },
        {
          "indexed": false,
          "internalType": "uint256",
          "name": "value",
          "type": "uint256"
        },
        {
          "indexed": false,
          "internalType": "uint256",
          "name": "price",
          "type": "uint256"
        },
        {
          "indexed": false,
          "internalType": "uint256",
          "name": "makerID",
          "type": "uint256"
        },
        {
          "indexed": false,
          "internalType": "uint256",
          "name": "marginAmount",
          "type": "uint256"
        },
        {
          "indexed": false,
          "internalType": "uint256",
          "name": "maintenanceMargin",
          "type": "uint256"
        }
      ],
      "name": "LockInPrivatePool",
      "type": "event"
    },
    {
      "anonymous": false,
      "inputs": [
        {
          "indexed": false,
          "internalType": "uint256",
          "name": "dealID",
          "type": "uint256"
        },
        {
          "indexed": false,
          "internalType": "address",
          "name": "maker",
          "type": "address"
        },
        {
          "indexed": false,
          "internalType": "uint256",
          "name": "value",
          "type": "uint256"
        },
        {
          "indexed": false,
          "internalType": "uint256",
          "name": "price",
          "type": "uint256"
        },
        {
          "indexed": false,
          "internalType": "uint256",
          "name": "makerID",
          "type": "uint256"
        },
        {
          "indexed": false,
          "internalType": "uint256",
          "name": "marginAmount",
          "type": "uint256"
        },
        {
          "indexed": false,
          "internalType": "uint256",
          "name": "maintenanceMargin",
          "type": "uint256"
        },
        {
          "indexed": false,
          "internalType": "uint256",
          "name": "flag",
          "type": "uint256"
        }
      ],
      "name": "LockPoolMargin",
      "type": "event"
    },
    {
      "anonymous": false,
      "inputs": [
        {
          "indexed": true,
          "internalType": "address",
          "name": "previousOwner",
          "type": "address"
        },
        {
          "indexed": true,
          "internalType": "address",
          "name": "newOwner",
          "type": "address"
        }
      ],
      "name": "OwnershipTransferred",
      "type": "event"
    },
    {
      "anonymous": false,
      "inputs": [
        {
          "indexed": true,
          "internalType": "address",
          "name": "account",
          "type": "address"
        },
        {
          "indexed": true,
          "internalType": "address",
          "name": "token",
          "type": "address"
        },
        {
          "indexed": false,
          "internalType": "uint256",
          "name": "amount",
          "type": "uint256"
        },
        {
          "indexed": false,
          "internalType": "uint256",
          "name": "poolType",
          "type": "uint256"
        }
      ],
      "name": "Provide",
      "type": "event"
    },
    {
      "anonymous": false,
      "inputs": [
        {
          "indexed": false,
          "internalType": "address",
          "name": "sender",
          "type": "address"
        },
        {
          "indexed": false,
          "internalType": "address",
          "name": "received",
          "type": "address"
        },
        {
          "indexed": false,
          "internalType": "enum ICommon.TransactionType",
          "name": "transactionType",
          "type": "uint8"
        },
        {
          "indexed": false,
          "internalType": "uint256",
          "name": "amount",
          "type": "uint256"
        },
        {
          "indexed": false,
          "internalType": "uint256",
          "name": "timestamp",
          "type": "uint256"
        }
      ],
      "name": "TransferFee",
      "type": "event"
    },
    {
      "anonymous": false,
      "inputs": [
        {
          "indexed": true,
          "internalType": "address",
          "name": "account",
          "type": "address"
        },
        {
          "indexed": true,
          "internalType": "address",
          "name": "token",
          "type": "address"
        },
        {
          "indexed": false,
          "internalType": "uint256",
          "name": "amount",
          "type": "uint256"
        },
        {
          "indexed": false,
          "internalType": "uint256",
          "name": "poolType",
          "type": "uint256"
        }
      ],
      "name": "Withdraw",
      "type": "event"
    },
    {
      "anonymous": false,
      "inputs": [
        {
          "indexed": false,
          "internalType": "address",
          "name": "sender",
          "type": "address"
        },
        {
          "indexed": false,
          "internalType": "uint256",
          "name": "beforeLeverage",
          "type": "uint256"
        },
        {
          "indexed": false,
          "internalType": "uint256",
          "name": "afterLeverage",
          "type": "uint256"
        }
      ],
      "name": "setLeverage",
      "type": "event"
    },
    {
      "stateMutability": "nonpayable",
      "type": "fallback"
    },
    {
      "inputs": [
        {
          "internalType": "uint256",
          "name": "_orderID",
          "type": "uint256"
        },
        {
          "internalType": "uint256",
          "name": "_amount",
          "type": "uint256"
        }
      ],
      "name": "addMarginAmount",
      "outputs": [],
      "stateMutability": "nonpayable",
      "type": "function"
    },
    {
      "inputs": [
        {
          "internalType": "uint256",
          "name": "_dealID",
          "type": "uint256"
        },
        {
          "internalType": "uint256",
          "name": "_profit",
          "type": "uint256"
        }
      ],
      "name": "checkMarginRisk",
      "outputs": [
        {
          "internalType": "bool",
          "name": "isRisk",
          "type": "bool"
        }
      ],
      "stateMutability": "view",
      "type": "function"
    },
    {
      "inputs": [
        {
          "internalType": "uint256",
          "name": "_id",
          "type": "uint256"
        },
        {
          "internalType": "uint8",
          "name": "_type",
          "type": "uint8"
        },
        {
          "internalType": "uint256",
          "name": "_profit",
          "type": "uint256"
        },
        {
          "internalType": "uint256",
          "name": "_loss",
          "type": "uint256"
        },
        {
          "internalType": "uint256",
          "name": "_amount",
          "type": "uint256"
        },
        {
          "internalType": "uint256",
          "name": "_price",
          "type": "uint256"
        },
        {
          "internalType": "bool",
          "name": "_transform",
          "type": "bool"
        }
      ],
      "name": "close",
      "outputs": [
        {
          "internalType": "uint256",
          "name": "makerProfit",
          "type": "uint256"
        },
        {
          "internalType": "uint256",
          "name": "makerLoss",
          "type": "uint256"
        },
        {
          "internalType": "bool",
          "name": "isLiquidated",
          "type": "bool"
        },
        {
          "internalType": "bool",
          "name": "isAgreement",
          "type": "bool"
        }
      ],
      "stateMutability": "nonpayable",
      "type": "function"
    },
    {
      "inputs": [],
      "name": "escrowAccount",
      "outputs": [
        {
          "internalType": "address",
          "name": "",
          "type": "address"
        }
      ],
      "stateMutability": "view",
      "type": "function"
    },
    {
      "inputs": [
        {
          "internalType": "address",
          "name": "maker",
          "type": "address"
        }
      ],
      "name": "getLP2Account",
      "outputs": [
        {
          "components": [
            {
              "internalType": "address payable",
              "name": "holder",
              "type": "address"
            },
            {
              "internalType": "uint256",
              "name": "amount",
              "type": "uint256"
            },
            {
              "internalType": "uint256",
              "name": "availableAmount",
              "type": "uint256"
            },
            {
              "internalType": "uint256",
              "name": "lockedAmount",
              "type": "uint256"
            },
            {
              "internalType": "uint256",
              "name": "maintenanceMargin",
              "type": "uint256"
            },
            {
              "internalType": "uint256",
              "name": "marginRate",
              "type": "uint256"
            },
            {
              "internalType": "uint256",
              "name": "maintenanceMarginRate",
              "type": "uint256"
            },
            {
              "internalType": "uint256",
              "name": "addMarginRate",
              "type": "uint256"
            },
            {
              "internalType": "bool",
              "name": "autoAddMargin",
              "type": "bool"
            },
            {
              "internalType": "bool",
              "name": "isRejectOrder",
              "type": "bool"
            }
          ],
          "internalType": "struct IPool.LP2Account",
          "name": "",
          "type": "tuple"
        }
      ],
      "stateMutability": "view",
      "type": "function"
    },
    {
      "inputs": [],
      "name": "getMakerAddresses",
      "outputs": [
        {
          "internalType": "address[]",
          "name": "",
          "type": "address[]"
        }
      ],
      "stateMutability": "view",
      "type": "function"
    },
    {
      "inputs": [
        {
          "internalType": "uint256",
          "name": "makerDealID",
          "type": "uint256"
        }
      ],
      "name": "getMakerDeal",
      "outputs": [
        {
          "components": [
            {
              "internalType": "address",
              "name": "makerAddr",
              "type": "address"
            },
            {
              "internalType": "bool",
              "name": "locked",
              "type": "bool"
            },
            {
              "internalType": "uint256",
              "name": "takerId",
              "type": "uint256"
            },
            {
              "internalType": "uint256",
              "name": "size",
              "type": "uint256"
            },
            {
              "internalType": "uint256",
              "name": "marginAmount",
              "type": "uint256"
            },
            {
              "internalType": "uint256",
              "name": "maintenanceMargin",
              "type": "uint256"
            },
            {
              "internalType": "uint256",
              "name": "pubPriFlag",
              "type": "uint256"
            },
            {
              "internalType": "uint256",
              "name": "movePrice",
              "type": "uint256"
            },
            {
              "internalType": "uint256",
              "name": "time",
              "type": "uint256"
            }
          ],
          "internalType": "struct IPool.MakerDeal",
          "name": "",
          "type": "tuple"
        }
      ],
      "stateMutability": "view",
      "type": "function"
    },
    {
      "inputs": [],
      "name": "getMakerDealsLength",
      "outputs": [
        {
          "internalType": "uint256",
          "name": "lpLen",
          "type": "uint256"
        }
      ],
      "stateMutability": "view",
      "type": "function"
    },
    {
      "inputs": [],
      "name": "getShareAddresses",
      "outputs": [
        {
          "internalType": "address[]",
          "name": "",
          "type": "address[]"
        }
      ],
      "stateMutability": "view",
      "type": "function"
    },
    {
      "inputs": [
        {
          "internalType": "address",
          "name": "initialOwner",
          "type": "address"
        },
        {
          "internalType": "address",
          "name": "_tokenAddress",
          "type": "address"
        },
        {
          "internalType": "address",
          "name": "_riskFundAddr",
          "type": "address"
        }
      ],
      "name": "initialize",
      "outputs": [],
      "stateMutability": "nonpayable",
      "type": "function"
    },
    {
      "inputs": [
        {
          "internalType": "uint256",
          "name": "",
          "type": "uint256"
        }
      ],
      "name": "matchIds",
      "outputs": [
        {
          "internalType": "uint256",
          "name": "",
          "type": "uint256"
        }
      ],
      "stateMutability": "view",
      "type": "function"
    },
    {
      "inputs": [
        {
          "internalType": "string",
          "name": "_name",
          "type": "string"
        },
        {
          "internalType": "uint256",
          "name": "_id",
          "type": "uint256"
        },
        {
          "internalType": "uint256",
          "name": "_amount",
          "type": "uint256"
        },
        {
          "internalType": "uint256",
          "name": "_tradingFee",
          "type": "uint256"
        },
        {
          "internalType": "uint256",
          "name": "_price",
          "type": "uint256"
        },
        {
          "internalType": "enum ICommon.Direct",
          "name": "_direction",
          "type": "uint8"
        }
      ],
      "name": "matchOrder",
      "outputs": [
        {
          "internalType": "bool",
          "name": "success",
          "type": "bool"
        },
        {
          "internalType": "uint256",
          "name": "remaining",
          "type": "uint256"
        }
      ],
      "stateMutability": "nonpayable",
      "type": "function"
    },
    {
      "inputs": [],
      "name": "owner",
      "outputs": [
        {
          "internalType": "address",
          "name": "",
          "type": "address"
        }
      ],
      "stateMutability": "view",
      "type": "function"
    },
    {
      "inputs": [],
      "name": "poolType",
      "outputs": [
        {
          "internalType": "enum ICommon.PoolFlag",
          "name": "",
          "type": "uint8"
        }
      ],
      "stateMutability": "view",
      "type": "function"
    },
    {
      "inputs": [
        {
          "internalType": "address",
          "name": "",
          "type": "address"
        },
        {
          "internalType": "string",
          "name": "",
          "type": "string"
        },
        {
          "internalType": "uint256",
          "name": "",
          "type": "uint256"
        }
      ],
      "name": "positions",
      "outputs": [
        {
          "internalType": "uint256",
          "name": "value",
          "type": "uint256"
        },
        {
          "internalType": "uint256",
          "name": "size",
          "type": "uint256"
        }
      ],
      "stateMutability": "view",
      "type": "function"
    },
    {
      "inputs": [
        {
          "internalType": "uint256",
          "name": "_amount",
          "type": "uint256"
        },
        {
          "internalType": "uint256",
          "name": "_priOrPub",
          "type": "uint256"
        }
      ],
      "name": "provide",
      "outputs": [],
      "stateMutability": "nonpayable",
      "type": "function"
    },
    {
      "inputs": [],
      "name": "renounceOwnership",
      "outputs": [],
      "stateMutability": "nonpayable",
      "type": "function"
    },
    {
      "inputs": [
        {
          "internalType": "address",
          "name": "_perpetual",
          "type": "address"
        },
        {
          "internalType": "address",
          "name": "_orderBook",
          "type": "address"
        },
        {
          "internalType": "address",
          "name": "_tradeAgent",
          "type": "address"
        },
        {
          "internalType": "address",
          "name": "_tradeStation",
          "type": "address"
        }
      ],
      "name": "setKeepers",
      "outputs": [],
      "stateMutability": "nonpayable",
      "type": "function"
    },
    {
      "inputs": [
        {
          "internalType": "uint256",
          "name": "_marginRate",
          "type": "uint256"
        },
        {
          "internalType": "uint256",
          "name": "_maintenanceMarginRate",
          "type": "uint256"
        },
        {
          "internalType": "uint256",
          "name": "_addMarginRate",
          "type": "uint256"
        },
        {
          "internalType": "bool",
          "name": "_isRejectOrder",
          "type": "bool"
        },
        {
          "internalType": "bool",
          "name": "_autoAddMargin",
          "type": "bool"
        }
      ],
      "name": "setUserParam",
      "outputs": [],
      "stateMutability": "nonpayable",
      "type": "function"
    },
    {
      "inputs": [
        {
          "internalType": "address",
          "name": "newOwner",
          "type": "address"
        }
      ],
      "name": "transferOwnership",
      "outputs": [],
      "stateMutability": "nonpayable",
      "type": "function"
    },
    {
      "inputs": [
        {
          "internalType": "uint256",
          "name": "_amount",
          "type": "uint256"
        },
        {
          "internalType": "uint256",
          "name": "_priOrPub",
          "type": "uint256"
        }
      ],
      "name": "withdraw",
      "outputs": [],
      "stateMutability": "nonpayable",
      "type": "function"
    }
  ],
  "bytecode": "0x60808060405234601557614552908161001b8239f35b600080fdfe6080604052600436101561001a575b3461001557005b600080fd5b6000803560e01c80630c8c35161461191057806336ff6a70146118e6578063441a3e701461131f57806346ceec98146111d157806354b3b018146111a757806360d32e8d146110e0578063715018a61461104757806381a4f17314610f5a578063880a1a7714610edc5780638da5cb5b14610e965780638e3a0e9214610e12578063b1dd61b614610dd2578063bc1c1c6c14610d44578063c0c53b8b146109cd578063c23e629f146107d8578063d048f590146106fb578063d3c76d661461069b578063e8c3c54f146101d8578063f26a3e1d1461015a578063f2da708d1461013c5763f2fde38b1461010d575061000e565b34610139576020600319360112610139576101366101296119ad565b610131612f91565b612d9c565b80f35b80fd5b50346101395780600319360112610139576020601154604051908152f35b50346101395760e0600319360112610139576024359060ff821682036101395760c4358015158103610015576080926101a460ff60406101bc95338152600e602052205416611c87565b60a435906084359060643590604435906004356121de565b9160405193845260208401521515604083015215156060820152f35b5034610139576101e736611afc565b908060125460ff811660058110156106875760038114908115610674575b50156105ec576001600160a01b039060081c1633146106305761022730613370565b9061023f8130336001600160a01b0360055416613493565b600184036103e9575061025961026792600154111561205a565b61026230613370565b611ba0565b338352600d60205260ff60408420541615610370575b61029a61028c6001548361201a565b61029461428e565b9061202d565b6001600160a01b0360125460081c1684526010602052600160408520016102c283825461204d565b90556001600160a01b0360125460081c1684526010602052600260408520016102ec83825461204d565b90556001600160a01b0360125460081c168452600f6020526040842061031382825461204d565b9055338452600f60205261032c6040852091825461204d565b90555b6001600160a01b03600554169160405191825260208201527f9675a307d5dddc49aefd66964913e794711b6c69e23cfe1fa44406ab2bbaeae860403392a380f35b338352600d60205260408320600160ff19825416179055600a54680100000000000000008110156103d3576103b08160016103ce9301600a55600a611bde565b33906001600160a01b038084549260031b9316831b921b1916179055565b61027d565b634e487b7160e01b600052604160045260246000fd5b9150600283036105ec5761025961040492600154111561205a565b338352600c60205260ff60408420541615610568575b33835260106020526040832060405190610433826119ef565b80546001600160a01b03168252600181015491602081019183835260028101546040830190815260038201546060840190815260048301546080850190815260058401549160a0860192835260068501549360c0870194855260078601549560e08801968752600801549761010088019960ff8a1615158b528b6101208a019a60081c60ff1615158b526104c69161204d565b81528a8251906104d59161204d565b8252338d52601060205260408d2097516001600160a01b03166001600160a01b031688546001600160a01b0319161788555160018801555160028701555160038601555160048501555160058401555160068301555160078201556008019151151561054e90839060ff60ff1983541691151516179055565b51815461ff00191690151560081b61ff001617905561032f565b338352600c60205260408320600160ff19825416179055600b54680100000000000000008110156103d3576103b08160016105a89301600b55600b611bde565b338352601060205260086040842001600160ff198254161790553383526010602052604083206001600160a01b0333166001600160a01b031982541617905561041a565b606460405162461bcd60e51b815260206004820152601260248201527f77726f6e67206465706f73697420666c616700000000000000000000000000006044820152fd5b606460405162461bcd60e51b815260206004820152601860248201527f77616c6c657420697320657363726f77206163636f756e7400000000000000006044820152fd5b9050600585101561068757841438610205565b602486634e487b7160e01b81526021600452fd5b5034610139576106aa36611afc565b908252601460205260408220549160001983019283116106e7575060806106db6106d5602094611bf6565b50611c15565b01511115604051908152f35b80634e487b7160e01b602492526011600452fd5b50346101395760a060031936011261013957606435801515810361001557608435801515810361001557338352600c60205260ff60408420541615610794576101369133845260106020526107826008604086206004356005820155602435600682015560443560078201550191829061ff001961ff00835492151560081b169116179055565b9060ff60ff1983541691151516179055565b606460405162461bcd60e51b815260206004820152601260248201527f75736572206973206e6f742065786973747300000000000000000000000000006044820152fd5b5034610139576107e736611afc565b906001600160a01b036107f982611bf6565b50541633036109895733835260106020528160026040852001541061094557600160ff61082583611bf6565b505460a01c1615150361090157338352601060205261084b826002604086200154611ba0565b33845260106020526002604085200155338352601060205261087482600360408620015461204d565b3384526010602052600360408520015561089b82600361089384611bf6565b50015461204d565b60036108a683611bf6565b5001557fc8f742aa90a6e6851d2252fa58ed695d3ca295b55bf5f1c2164a360cc8a093e26001600160a01b03600554169260036108e284611bf6565b500154604080519485526020850192909252908301523391606090a380f35b606460405162461bcd60e51b815260206004820152601660248201527f4c6971756964697479207374617475732077726f6e67000000000000000000006044820152fd5b606460405162461bcd60e51b815260206004820152601060248201527f45786365656420617661696c61626c65000000000000000000000000000000006044820152fd5b606460405162461bcd60e51b815260206004820152600960248201527f4e6f74206d616b657200000000000000000000000000000000000000000000006044820152fd5b5034610139576060600319360112610139576109e76119ad565b906109f06119c3565b916109f96119d9565b927ff0c57e16840df040f15088dc2f81fe391c3923bec73e23a9662efc9c229c6a00549360ff8560401c16159467ffffffffffffffff811680159081610d3c575b6001149081610d32575b159081610d29575b50610d0157916001600160a01b0380949392838860017fffffffffffffffffffffffffffffffffffffffffffffffff0000000000000000859716177ff0c57e16840df040f15088dc2f81fe391c3923bec73e23a9662efc9c229c6a0055610cac575b50610ab76144c3565b610abf6144c3565b610ac833612d9c565b610ad0612f91565b610ad985612d9c565b166001600160a01b03196006541617600655166001600160a01b03196005541617600555816012547fffffffffffffffffffffff0000000000000000000000000000000000000000ff74ffffffffffffffffffffffffffffffffffffffff003360081b169116178060125560081c168084526010602052826040852091166001600160a01b03198254161790558160125460081c168352601060205260086040842001600160ff19825416179055308352600e60205260408320600160ff19825416179055168152600e60205260408120600160ff19825416179055338152600e60205260408120600160ff19825416179055600260ff19601254161760125560ff198154168155670de0b6b3a764000060015550662386f26fc10000600255600067016345785d8a00006003555066071afd498d0000600455610c1957005b7fffffffffffffffffffffffffffffffffffffffffffffff00ffffffffffffffff7ff0c57e16840df040f15088dc2f81fe391c3923bec73e23a9662efc9c229c6a0054167ff0c57e16840df040f15088dc2f81fe391c3923bec73e23a9662efc9c229c6a00557fc7f505b2f371ae2175ee4913f4499e1f2633a7b5936321eed1cdaeb6115181d2602060405160018152a1005b7fffffffffffffffffffffffffffffffffffffffffffffff0000000000000000001668010000000000000001177ff0c57e16840df040f15088dc2f81fe391c3923bec73e23a9662efc9c229c6a005538610aae565b6004857ff92ee8a9000000000000000000000000000000000000000000000000000000008152fd5b90501538610a4c565b303b159150610a44565b879150610a3a565b503461013957806003193601126101395760405180916020600b54928381520191600b82527f0175b7a638427703f0dbe7bb9bbf987a2551717b34e79f33b5b1008d1fa01db9915b818110610db357610daf85610da381870382611a29565b60405191829182611b12565b0390f35b82546001600160a01b0316845260209093019260019283019201610d8c565b503461013957806003193601126101395760ff60125416604051906005811015610dfe57602092508152f35b602483634e487b7160e01b81526021600452fd5b50346101395760c06003193601126101395760043567ffffffffffffffff8111610e9257610e44903690600401611a68565b60a435906003821015610e8e5790610e8091610e6f60ff60408096338152600e602052205416611c87565b608435906044359060243590611cf8565b825191151582526020820152f35b8280fd5b5080fd5b503461013957806003193601126101395760206001600160a01b037f9016d09d72d40fdae2fd8ceac6b6234c7706214fd39c1cd1e609a0528c1993005416604051908152f35b503461013957806003193601126101395760405180916020600a54928381520191600a82527fc65a7bb8d6351c1cf70c95a316cc6a92839c986682d98bc35f958f4883f9d2a8915b818110610f3b57610daf85610da381870382611a29565b82546001600160a01b0316845260209093019260019283019201610f24565b503461013957608060031936011261013957610f746119ad565b610f7c6119c3565b90610f856119d9565b90606435926001600160a01b038416809403611043576001600160a01b0392838092610faf612f91565b16806001600160a01b031960085416176008558652600e60205260408620600160ff1982541617905516806001600160a01b031960095416176009558452600e60205260408420600160ff1982541617905516806001600160a01b031960075416176007558252600e60205260408220600160ff198254161790558152600e60205260408120600160ff1982541617905580f35b8480fd5b5034610139578060031936011261013957611060612f91565b806001600160a01b037f9016d09d72d40fdae2fd8ceac6b6234c7706214fd39c1cd1e609a0528c199300546001600160a01b031981167f9016d09d72d40fdae2fd8ceac6b6234c7706214fd39c1cd1e609a0528c19930055167f8be0079c531659141344cd1fd0a4f28419497f9722a3daafe3b4186f6b6457e08280a380f35b50346101395760206003193601126101395761010060405161110181611a0c565b8281528260208201528260408201528260608201528260808201528260a08201528260c08201528260e082015201526101206111416106d5600435611bf6565b610100604051916001600160a01b03815116835260208101511515602084015260408101516040840152606081015160608401526080810151608084015260a081015160a084015260c081015160c084015260e081015160e08401520151610100820152f35b503461013957806003193601126101395760206001600160a01b0360125460081c16604051908152f35b5034610139576020600319360112610139576040610140916001600160a01b036111f96119ad565b826101208551611208816119ef565b82815282602082015282878201528260608201528260808201528260a08201528260c08201528260e082015282610100820152015216815260106020522060405190611253826119ef565b6001600160a01b03815416918281526001820154916020820192835260028101546040830190815260038201546060840190815260048301546080850190815260058401549160a0860192835260068501549360c08701948552600860078701549660e0890197885201549760ff6101206101008a0199828c1615158b52019960081c1615158952604051998a525160208a01525160408901525160608801525160808701525160a08601525160c08501525160e0840152511515610100830152511515610120820152f35b50346101395761132e36611afc565b9080801515806118ce575b1561188a5760ff6012541660058110156118765760038114908115611863575b501561181f57600183036114dd575061138561137c61137661428e565b8361201a565b6001549061202d565b6001600160a01b0360125460081c16845260106020526002604085200154821115806114c7575b6113b590611b55565b338452600f602052604084206113cc838254611ba0565b90556001600160a01b0360125460081c168452600f602052604084206113f3838254611ba0565b90556001600160a01b0360125460081c16845260106020526001604085200161141d828254611ba0565b90556001600160a01b0360125460081c168452601060205261144760026040862001918254611ba0565b9055338352600f6020526040832054156114b4575b611473816001600160a01b03600554163390612ea3565b6001600160a01b03600554169160405191825260208201527ff341246adaac6f497bc2a656f546ab9e182111d630394f0c57c710a59a2cb56760403392a380f35b338352600f60205282604081205561145c565b50338452600f60205260408420548211156113ac565b6002830361181f5733845260106020526040842090604051906114ff826119ef565b6001600160a01b03835416825260018301549160208101928352600284015492604082019184835260038601549560608201968752600481015460808301908152600582015460a0840190815260068301549160c085019283526115ab600860078601549560e0880196875201549861159761010088019b60ff8c1615158d5260ff6101208a019c60081c1615158c52821115611b55565b6115a2818951611ba0565b88528851611ba0565b875289511580611815575b80611809575b6117fd575b85518061172457505050505050505050505090825b600b548082101561171c576001600160a01b036115f283611bc3565b905460039190911b1c16331461160b57506001016115d6565b906000198294939401918211611708578181036116bd575b5050338352600c6020526040832060ff1981541690553383526010602052826008604082208281558260018201558260028201558260038201558260048201558260058201558260068201558260078201550155600b5480156116a9576000190161168d81611bc3565b6001600160a01b0382549160031b1b19169055600b555b61145c565b602484634e487b7160e01b81526031600452fd5b6116e26001600160a01b036116d461170194611bc3565b90549060031b1c1691611bc3565b9091906001600160a01b038084549260031b9316831b921b1916179055565b3880611623565b602485634e487b7160e01b81526011600452fd5b50509061145c565b600154116117b9576116a4996117a2976008978f6001600160a01b0360408192338152601060205220995116166001600160a01b03198954161788555160018801555160028701555160038601555160048501555160058401555160068301555160078201550192511515839060ff60ff1983541691151516179055565b51815461ff00191690151560081b61ff0016179055565b606460405162461bcd60e51b815260206004820152601860248201527f7374617920616d6f756e7420697320746f6f20736d616c6c00000000000000006044820152fd5b85518d87529a506115c1565b508551600154116115bc565b50855115156115b6565b606460405162461bcd60e51b815260206004820152601360248201527f77726f6e6720776974686472617720666c6167000000000000000000000000006044820152fd5b9050600584101561187657831438611359565b602485634e487b7160e01b81526021600452fd5b606460405162461bcd60e51b815260206004820152600e60248201527f646f206e6f7420616c6c6f7765640000000000000000000000000000000000006044820152fd5b506001600160a01b0360125460081c16331415611339565b50346101395760206003193601126101395760406020916004358152601483522054604051908152f35b50346101395760606003193601126101395761192a6119ad565b9060243567ffffffffffffffff8111610e9257602061195061197a923690600401611a68565b6001600160a01b036044359516845260138252604084208260405194838680955193849201611aaf565b8201908152030190209060028310156101395760406119998484611ad2565b506001815491015482519182526020820152f35b600435906001600160a01b038216820361001557565b602435906001600160a01b038216820361001557565b604435906001600160a01b038216820361001557565b610140810190811067ffffffffffffffff8211176103d357604052565b610120810190811067ffffffffffffffff8211176103d357604052565b90601f601f19910116810190811067ffffffffffffffff8211176103d357604052565b67ffffffffffffffff81116103d357601f01601f191660200190565b81601f8201121561001557803590611a7f82611a4c565b92611a8d6040519485611a29565b8284526020838301011161001557816000926020809301838601378301015290565b60005b838110611ac25750506000910152565b8181015183820152602001611ab2565b906002811015611ae65760011b0190600090565b634e487b7160e01b600052603260045260246000fd5b6003196040910112610015576004359060243590565b602060408183019282815284518094520192019060005b818110611b365750505090565b82516001600160a01b0316845260209384019390920191600101611b29565b15611b5c57565b606460405162461bcd60e51b815260206004820152601060248201527f6c6f7765722074686520616d6f756e74000000000000000000000000000000006044820152fd5b91908203918211611bad57565b634e487b7160e01b600052601160045260246000fd5b600b54811015611ae657600b60005260206000200190600090565b8054821015611ae65760005260206000200190600090565b601154811015611ae657601160005260206000209060031b0190600090565b90604051611c2281611a0c565b6101006007829460ff81546001600160a01b038116865260a01c1615156020850152600181015460408501526002810154606085015260038101546080850152600481015460a0850152600581015460c0850152600681015460e08501520154910152565b15611c8e57565b608460405162461bcd60e51b815260206004820152602160248201527f63616c6c6572206973206e6f74207072697661746520706f6f6c206b6565706560448201527f72000000000000000000000000000000000000000000000000000000000000006064820152fd5b92919493906001600160a01b03611d0f8488612ffc565b9290911680611d25575050505050505060009190565b601198959697985460018101809111611bad5784600052601460205260406000205560026001600160a01b0360125460081c168214612012575b604051611d6b81611a0c565b828152602081016001815260408201878152606083018a81526080840187815260a085019089825260c086019287845260e087019460008652610100880196428852601154680100000000000000008110156103d357806001611dd19201601155611bf6565b999099611ffc57516001600160a01b03166001600160a01b031689546001600160a01b03191617895551151588549060a01b74ff0000000000000000000000000000000000000000169060ff60a01b19161788555160018801555160028701555160038601555160048501555160058401555160068301555190600701558160005260106020526040600020600381018585825490611e6f9161204d565b90611e799161204d565b809155600482019086825490611e8e9161204d565b8092558460028401938888865490611ea591611ba0565b90611eaf91611ba0565b8095558c8c60125460081c6001600160a01b031684149b8c159b60e09b6001967f5e16b3b6e0a15f63fe16c5b5705c03147211e204ce01e5197d2a699c087e167b957f9a5787718e945183fe431d089b46b9ee2c5cd3ffbb79ca1a9b117fc29b31c6aa9f9561010096611fa6575b60115492604051968752602087015260408601526060850152608084015260a083015260c0820152888b820152a101549285600052600f60205260406000205493604051968752602087015260408601526060850152608084015260a083015260c0820152a1611f94575b50505050600190600090565b611f9d936131ae565b38808080611f88565b8f7fa3a1bfbb9bdc25103a35116c7acb34f9f4b89a4932e0fd8fd52303e9ef74debd906011546040519089825286602083015284604083015285606083015260808201528660a08201528760c0820152a1611f1d565b634e487b7160e01b600052600060045260246000fd5b506001611d5f565b81810292918115918404141715611bad57565b8115612037570490565b634e487b7160e01b600052601260045260246000fd5b91908201809211611bad57565b1561206157565b606460405162461bcd60e51b815260206004820152600960248201527f746f6f20736d616c6c00000000000000000000000000000000000000000000006044820152fd5b6020818303126100155780519067ffffffffffffffff8211610015570190610160828203126100155760405191610160830183811067ffffffffffffffff8211176103d35760405280516001600160a01b03811681036100155783526020810151600381101561001557602084015260408101516006811015610015576040840152606081015160038110156100155760608401526080810151608084015260a081015167ffffffffffffffff81116100155781019180601f840112156100155782519261217284611a4c565b916121806040519384611a29565b8483526020858301011161001557610140936121a29160208085019101611aaf565b60a084015260c081015160c084015260e081015160e0840152610100810151610100840152610120810151610120840152015161014082015290565b9096929491956000908190829083988498868652601460205260408620546000198101908111612d885761221190611bf6565b50966001600160a01b0388541690818852601060205260ff604089209f169182159081612d70575b50612caa575b506001036127065750505050506003820197885498600484019261226484548c61204d565b91600284019b8c54612276818661204d565b8d111561238c575050508961229661228e8483611ba0565b8d5490611ba0565b9061229f6135bc565b9081831161235a575b50506122ff9695938b95936122f89383600494612331575b50809e600184016122d8846102628354855490611ba0565b9055556122ea60038301918254611ba0565b905501918254905490611ba0565b9055613eeb565b1561230657565b91505061232b826001600160a01b03600554166001600160a01b036007541690612ea3565b60018091565b612354906001600160a01b03600554166001600160a01b03600654163091613493565b386122c0565b6122f8939c5093612379600493610262846122ff9c9b99959a9861204d565b9c8d9793509350939581959798506122a8565b848d99989796959e9d1160001461257657505080546123ab8189611ba0565b600885015460ff81169081612567575b508061255c575b6124495750505091612414600461241b96959388959d869d6124036123e7838a611ba0565b600185016123fa82610262878454611ba0565b90558254611ba0565b90556122ea60038301918254611ba0565b9055613b48565b156124235750565b90925061232b91506001600160a01b03600554166001600160a01b036007541690612ea3565b959950957fc8f742aa90a6e6851d2252fa58ed695d3ca295b55bf5f1c2164a360cc8a093e2979c506124b5929a506124a391989b93945060035490600786015480612552575b5061249e9060028c015461201a565b61201a565b6124b0600154809261202d565b61202d565b6124bf818561204d565b8254101561253c575b506124d6836003949561204d565b86556124e3848254611ba0565b9055016124f182825461204d565b90556001600160a01b038454169261253260016001600160a01b03600554169601549154604051938493846040919493926060820195825260208201520152565b0390a38092918190565b61254b6124d69160039561204d565b93506124c8565b915061249e61248f565b508c548111156123c2565b60ff915060081c1615386123bb565b849c60088f99979f96989598015460ff811690816126f7575b50612628575b505050506125cc939a6125c56004889c600181016125b4878254611ba0565b9055600381016122ea878254611ba0565b9055613672565b156125d5575050565b9091935061232b9250612600826001600160a01b03600554166001600160a01b036007541690612ea3565b6126226001600160a01b0360055416926001600160a01b036006541692611ba0565b91612ea3565b9091809394969795508910156000146126e257612645838a611ba0565b91808311156126635750505050506125cc9291849193388080612595565b93999c959a50939a50947fc8f742aa90a6e6851d2252fa58ed695d3ca295b55bf5f1c2164a360cc8a093e2979c506126b99196506124a390600354906007870154806126d8575b5061249e9060028d015461201a565b906126c4828661204d565b111561253c57506124d6836003949561204d565b915061249e6126aa565b50505050965050505094509250508092918190565b60ff915060081c16153861258f565b80919597509b939b9a9195929a156000146129a1575060ff60a01b198254168255600382019961273e60048c5494019384549061204d565b946003850161274e878254611ba0565b9055600485016127618154865490611ba0565b9055821561292157505080996002840195865461277e818861204d565b84111561287257506127a8575b50505060016127a39101916102628354855490611ba0565b905555565b6127c092916127b8915490611ba0565b905490611ba0565b6127cc84548092611ba0565b906127d56135bc565b808311612840575b509161283960019261280f6127a3956001600160a01b0360055416906126226001600160a01b0360075416918a61204d565b6001600160a01b03600554166001600160a01b03600654166001600160a01b036007541691613493565b913861278b565b816127a394929b506001935061280f6128668361286161283995948a61204d565b61204d565b9c9395505092506127dd565b92959350959650508184116000146128d457506001839261289a6123fa936128a99796611ba0565b946128ad575b01918254611ba0565b9055565b6128cf846001600160a01b03600554166001600160a01b036007541690612ea3565b6128a0565b8361026260019597936128e69361204d565b9055016128f4838254611ba0565b90556128fd5750565b61291f906001600160a01b03600554166001600160a01b036007541690612ea3565b565b979b93959496509950505084151560001461298e57506128616002612961938693612966575b6001810161295685825461204d565b90550193845461204d565b905593565b612989846001600160a01b03600554166001600160a01b03600754163091613493565b612947565b9793505060026128a9910191825461204d565b94509260049899956003839493019a6129bb878d5461201a565b9560028601986129ea6129e36129d38c54809b61202d565b9e8f9901996124b08c8c5461201a565b809861204d565b94600387016129fa878254611ba0565b905560048701612a0b898254611ba0565b90558215612c2a575060028601928354612a25818861204d565b841115612af95750505092612ae2926123fa9592612a49836128a99b9a9997611ba0565b93612a5682548096611ba0565b94612a5f6135bc565b808711612af1575b50839291612a946001926001600160a01b0360055416906126226001600160a01b0360075416918a61204d565b612ac2876001600160a01b03600554166001600160a01b03600654166001600160a01b036007541691613493565b01612ad9612ad1868354611ba0565b835490611ba0565b9055555061204d565b996123fa60019a5b8254611ba0565b955083612a67565b929695939450909183871115612b66575050506128a9969594928492612b27612aea6001946123fa98611ba0565b905501612b35828254611ba0565b9055612b59816001600160a01b03600554166001600160a01b036007541690612ea3565b996123fa60019a5b612aea565b8d879f9711600014612bd4575050506128a9969594926123fa9492612b97612b908f600195611ba0565b825461204d565b905501612ba58c8254611ba0565b9055612bc98b6001600160a01b03600554166001600160a01b036007541690612ea3565b6123fa60019a612aea565b9d6001612b61929e939f966123fa9896612bfc846102626128a99f9e9d9b996123fa9a61204d565b905501612c0a828254611ba0565b90556001600160a01b03600554166001600160a01b036007541690612ea3565b6128a999989795919e94506123fa939d92506123fa96811515600014612c935780612b6193612c648461286160026001960193845461204d565b905501612c7282825461204d565b90556001600160a01b03600554166001600160a01b03600754163091613493565b612ca3915060020191825461204d565b9055612aea565b876001600160a01b0360085416916024604051809481936320bf56eb60e21b835260048301525afa908115612d65578891612d43575b5082612d3857600289015460c08201525b60a08101519060208101516003811015612d245791816001949360e060c0612d1e95015192015192613244565b9061223f565b60248a634e487b7160e01b81526021600452fd5b8260c0820152612cf1565b612d5f91503d808a833e612d578183611a29565b8101906120a5565b38612ce0565b6040513d8a823e3d90fd5b90506001600160a01b0360125460081c161438612239565b602487634e487b7160e01b81526011600452fd5b6001600160a01b03168015612e2c576001600160a01b037f9016d09d72d40fdae2fd8ceac6b6234c7706214fd39c1cd1e609a0528c19930054826001600160a01b03198216177f9016d09d72d40fdae2fd8ceac6b6234c7706214fd39c1cd1e609a0528c19930055167f8be0079c531659141344cd1fd0a4f28419497f9722a3daafe3b4186f6b6457e0600080a3565b7f1e4fbdf700000000000000000000000000000000000000000000000000000000600052600060045260246000fd5b3d15612e86573d90612e6c82611a4c565b91612e7a6040519384611a29565b82523d6000602084013e565b606090565b90816020910312610015575180151581036100155790565b91612eae908361430b565b9182612eb957505050565b6000928380936040926001600160a01b037fffffffff00000000000000000000000000000000000000000000000000000000601960208751612efb8982611a29565b828152017f7472616e7366657228616464726573732c75696e7432353629000000000000008152201694519260208401958652166024830152604482015260448152612f48606482611a29565b51925af1612f54612e5b565b81612f62575b501561001557565b8051801592508215612f77575b505038612f5a565b612f8a9250602080918301019101612e8b565b3880612f6f565b6001600160a01b037f9016d09d72d40fdae2fd8ceac6b6234c7706214fd39c1cd1e609a0528c19930054163303612fc457565b7f118cdaa7000000000000000000000000000000000000000000000000000000006000523360045260246000fd5b8115612037570690565b906012549160ff831660058110159081613088576004811415806131a1575b1561315d57600b548261308857600382149283918415948561314f575b80613146575b61309e575b50613088579161307d575b5061306157505050600090600090600090565b6001600160a01b036130769360081c16614374565b9192909190565b60019150143861304e565b634e487b7160e01b600052602160045260246000fd5b6130d38160405160208101904482524160601b6040820152426054820152605481526130cb607482611a29565b519020612ff2565b9060005b8181106130e5575050613043565b61311a89896001600160a01b0361310d61310887613103888b61204d565b612ff2565b611bc3565b90549060031b1c16614374565b90916001600160a01b038116613135575050506001016130d7565b9c919b509950975050505050505050565b5080151561303e565b506000915060028414613038565b606460405162461bcd60e51b815260206004820152601560248201527f706f6f6c207374617475732069732072656675736500000000000000000000006044820152fd5b506000915080151561301b565b60206131e5919493946001600160a01b0360125460081c166000526013825260406000208260405194838680955193849201611aaf565b8201908152030190209060038110156130885760ff6000199116019160ff8311611bad576132396132316132296132216128a996600196611ad2565b50938761201a565b84549061202d565b82549061204d565b81550191825461204d565b91925061327c6020601254936001600160a01b0360009560081c16855260138252604085208260405194838680955193849201611aaf565b820190815203019020906003811015610dfe5760ff6000199116019060ff821161333557906132aa91611ad2565b509050600181019182548082116132f1578082036132cd57505090600080925555565b826132ea6128a994546132e4846124b0878461201a565b90611ba0565b9055611ba0565b606460405162461bcd60e51b815260206004820152601c60248201527f736861726520616d6f756e7420697320696e73756666696369656e74000000006044820152fd5b602483634e487b7160e01b81526011600452fd5b90816020910312610015575160ff811681036100155790565b604d8111611bad57600a0a90565b6001600160a01b0360055416906040519063313ce56760e01b8252602082600481865afa91821561344957600092613455575b506001600160a01b03602460209260405195869384927f70a082310000000000000000000000000000000000000000000000000000000084521660048301525afa91821561344957600092613413575b5061029460ff613409613410946001549061201a565b9216613362565b90565b91506020823d602011613441575b8161342e60209383611a29565b81010312610015579051906102946133f3565b3d9150613421565b6040513d6000823e3d90fd5b602091925060246134836001600160a01b0392843d861161348c575b61347b8183611a29565b810190613349565b939250506133a3565b503d613471565b9091926134a0908261430b565b92836134ad575b50505050565b600080949381946001600160a01b037fffffffff0000000000000000000000000000000000000000000000000000000060256040516134ed606082611a29565b8181527f7432353629000000000000000000000000000000000000000000000000000000604060208301927f7472616e7366657246726f6d28616464726573732c616464726573732c75696e8452015220169481604051946020860197885216602485015216604483015260648201526064815261356c608482611a29565b51925af1613578612e5b565b8161358d575b501561001557388080806134a7565b80518015925082156135a2575b50503861357e565b6135b59250602080918301019101612e8b565b388061359a565b6001600160a01b036005541660405163313ce56760e01b8152602081600481855afa90811561344957600091613653575b5060206001600160a01b03600654166024604051809581937f70a0823100000000000000000000000000000000000000000000000000000000835260048301525afa91821561344957600092613413575061029460ff613409613410946001549061201a565b61366c915060203d60201161348c5761347b8183611a29565b386135ed565b91906001600160a01b03600854169160018401600081546024604051809781936320bf56eb60e21b835260048301525afa93841561344957600094613b2d575b5060125460ff811660058110156130885760031480613b21575b80613b01575b61373a575b505050506001600160a01b038254166001600160a01b0360125460081c161461370c575b5060ff60a01b198154169055600090565b60a08101516020820151916003831015613088576137349260e0600286015492015192613244565b386136fb565b60081c6001600160a01b03169182600052601060205260406000209060405192613763846119ef565b82546001600160a01b03168452600183015460208501908152600284015460408601908152600385015490606087019182526004860154926080880193845260058701549460a089019586528c60068901549760c08b0198895260078a01549960e08c019a8b52600801549c8d9c6101008d019e8f9060ff16151590526101208d01809e60081c60ff1615159052806000526010602052816040600020600101549061380e9161204d565b90600052601060205260406000206001015560125460081c6001600160a01b0316908160005260106020526040600020600201549061384c9161204d565b90600052601060205260406000206002015560125460081c6001600160a01b03169160020190808254906138809185614374565b95909490916001600160a01b031661392c5750505050505092600895926139239a999895926117a298956001600160a01b036012548a1c1660005260106020526001600160a01b03806040600020995116166001600160a01b03198954161788555160018801555160028701555160038601555160048501555160058401555160068301555160078201550192511515839060ff60ff1983541691151516179055565b388080806136d7565b99509a509b509b509b98509b95505050505060005260106020526040600020600381019361395f896128618a885461204d565b855560048201936139718a865461204d565b855560028301966139878b6102628c8b54611ba0565b88558960038601558a60048601556001600160a01b0380855416166001600160a01b0319865416178555600b60058601557401000000000000000000000000000000000000000060ff60a01b19865416178555600685015560a082015191602081015192600384101561308857613a079160e08b549101948551926131ae565b5492836000526014602052604060002054936000198501948511611bad577f9a5787718e945183fe431d089b46b9ee2c5cd3ffbb79ca1a9b117fc29b31c6aa9a60e09a6001967f5e16b3b6e0a15f63fe16c5b5705c03147211e204ce01e5197d2a699c087e167b956001600160a01b036101009654169c549051906040519586528d602087015260408601526060850152608084015260a083015260c082015260038a820152a10154925491549054916001600160a01b0360125460081c16600052600f60205260406000205493604051958652602086015260408501526060840152608083015260a0820152600360c0820152a1600190565b506001600160a01b038654166001600160a01b038260081c1614156136d2565b5060ff600054166136cc565b613b4191943d8091833e612d578183611a29565b92386136b2565b91906001600160a01b03600854169160018401600081546024604051809781936320bf56eb60e21b835260048301525afa93841561344957600094613ed0575b5060125460ff811660058110156130885760031480613ec4575b80613ea4575b613be057505050506001600160a01b038254166001600160a01b0360125460081c161461370c575060ff60a01b198154169055600090565b60081c6001600160a01b03169182600052601060205260406000209060405192613c09846119ef565b82546001600160a01b03168452600183015460208501908152600284015460408601908152600385015490606087019182526004860154926080880193845260058701549460a089019586528c60068901549760c08b0198895260078a01549960e08c019a8b52600801549c8d9c6101008d019e8f9060ff16151590526101208d01809e60081c60ff16151590528060005260106020528160406000206001015490613cb49161204d565b90600052601060205260406000206001015560125460081c6001600160a01b03169081600052601060205260406000206002015490613cf29161204d565b90600052601060205260406000206002015560125460081c6001600160a01b0316916002019080825490613d269185614374565b95909490916001600160a01b0316613dc95750505050505092600895926139239a999895926117a298956001600160a01b036012548a1c1660005260106020526001600160a01b03806040600020995116166001600160a01b03198954161788555160018801555160028701555160038601555160048501555160058401555160068301555160078201550192511515839060ff60ff1983541691151516179055565b99509a509b509b509b98509b955050505050600052601060205260406000206003810193613dfc896128618a885461204d565b85556004820193613e0e8a865461204d565b85556002830196613e248b6102628c8b54611ba0565b88558960038601558a60048601556001600160a01b0380855416166001600160a01b0319865416178555600c60058601557401000000000000000000000000000000000000000060ff60a01b19865416178555600685015560a082015191602081015192600384101561308857613a079160e08b549101948551926131ae565b506001600160a01b038654166001600160a01b038260081c161415613ba8565b5060ff60005416613ba2565b613ee491943d8091833e612d578183611a29565b9238613b88565b91906001600160a01b03600854169160018401600081546024604051809781936320bf56eb60e21b835260048301525afa93841561344957600094614273575b5060125460ff811660058110156130885760031480614267575b80614247575b613f8357505050506001600160a01b038254166001600160a01b0360125460081c161461370c575060ff60a01b198154169055600090565b60081c6001600160a01b03169182600052601060205260406000209060405192613fac846119ef565b82546001600160a01b03168452600183015460208501908152600284015460408601908152600385015490606087019182526004860154926080880193845260058701549460a089019586528c60068901549760c08b0198895260078a01549960e08c019a8b52600801549c8d9c6101008d019e8f9060ff16151590526101208d01809e60081c60ff161515905280600052601060205281604060002060010154906140579161204d565b90600052601060205260406000206001015560125460081c6001600160a01b031690816000526010602052604060002060020154906140959161204d565b90600052601060205260406000206002015560125460081c6001600160a01b03169160020190808254906140c99185614374565b95909490916001600160a01b031661416c5750505050505092600895926139239a999895926117a298956001600160a01b036012548a1c1660005260106020526001600160a01b03806040600020995116166001600160a01b03198954161788555160018801555160028701555160038601555160048501555160058401555160068301555160078201550192511515839060ff60ff1983541691151516179055565b99509a509b509b509b98509b95505050505060005260106020526040600020600381019361419f896128618a885461204d565b855560048201936141b18a865461204d565b855560028301966141c78b6102628c8b54611ba0565b88558960038601558a60048601556001600160a01b0380855416166001600160a01b0319865416178555600d60058601557401000000000000000000000000000000000000000060ff60a01b19865416178555600685015560a082015191602081015192600384101561308857613a079160e08b549101948551926131ae565b506001600160a01b038654166001600160a01b038260081c161415613f4b565b5060ff60005416613f45565b61428791943d8091833e612d578183611a29565b9238613f2b565b600460206001600160a01b0360095416604051928380927f3b1e6a590000000000000000000000000000000000000000000000000000000082525afa908115613449576000916142dc575090565b90506020813d602011614303575b816142f760209383611a29565b81010312610015575190565b3d91506142ea565b60206001600160a01b039160046040518094819363313ce56760e01b8352165afa9182156134495761434f60ff6134109461137c94600091614355575b5016613362565b9061201a565b61436e915060203d60201161348c5761347b8183611a29565b38614348565b6001600160a01b038116600052601060205260406000209260405192614399846119ef565b6001600160a01b03855416845260018501546020850152600285015493604081019485526003860154606082015260048601546080820152600586015461012060a083019282845260ff600860068b01549a60c084019b8c52600781015460e08501520154818116151561010084015260081c16151591829101526144b15761449a57506144366124a361442d848461201a565b6002549061201a565b945b805161447c575061444f614458926124a39261201a565b6004549061201a565b915b51614465838561204d565b111561447957505050600090600090600090565b92565b61448c614494936124a39361201a565b90519061201a565b9161445a565b6124a36144ab9161448c858561201a565b94614438565b50505050505050600090600090600090565b60ff7ff0c57e16840df040f15088dc2f81fe391c3923bec73e23a9662efc9c229c6a005460401c16156144f257565b7fd7e6bcf80000000000000000000000000000000000000000000000000000000060005260046000fdfea2646970667358221220e96ef32ecd5ec4a00132ab414ec7cfee1ce0182ef06f641a4fed887204398bc064736f6c634300081c0033",
  "linkReferences": {},
  "deployedLinkReferences": {}
}