{
  "_format": "hh-sol-artifact-1",
  "contractName": "PrivatePool",
  "sourceName": "contracts/PrivatePool.sol",
  "abi": [
    {
      "inputs": [],
      "name": "InvalidInitialization",
      "type": "error"
    },
    {
      "inputs": [],
      "name": "NotInitializing",
      "type": "error"
    },
    {
      "inputs": [
        {
          "internalType": "address",
          "name": "owner",
          "type": "address"
        }
      ],
      "name": "OwnableInvalidOwner",
      "type": "error"
    },
    {
      "inputs": [
        {
          "internalType": "address",
          "name": "account",
          "type": "address"
        }
      ],
      "name": "OwnableUnauthorizedAccount",
      "type": "error"
    },
    {
      "anonymous": false,
      "inputs": [
        {
          "indexed": true,
          "internalType": "address",
          "name": "account",
          "type": "address"
        },
        {
          "indexed": true,
          "internalType": "address",
          "name": "token",
          "type": "address"
        },
        {
          "indexed": false,
          "internalType": "uint256",
          "name": "orderID",
          "type": "uint256"
        },
        {
          "indexed": false,
          "internalType": "uint256",
          "name": "amount",
          "type": "uint256"
        },
        {
          "indexed": false,
          "internalType": "uint256",
          "name": "margin",
          "type": "uint256"
        }
      ],
      "name": "AddMargin",
      "type": "event"
    },
    {
      "anonymous": false,
      "inputs": [
        {
          "indexed": false,
          "internalType": "address",
          "name": "maker",
          "type": "address"
        },
        {
          "indexed": false,
          "internalType": "uint256",
          "name": "amount",
          "type": "uint256"
        },
        {
          "indexed": false,
          "internalType": "uint256",
          "name": "availableAmount",
          "type": "uint256"
        },
        {
          "indexed": false,
          "internalType": "uint256",
          "name": "lockedAmount",
          "type": "uint256"
        },
        {
          "indexed": false,
          "internalType": "uint256",
          "name": "maintenanceMargin",
          "type": "uint256"
        },
        {
          "indexed": false,
          "internalType": "uint256",
          "name": "share",
          "type": "uint256"
        },
        {
          "indexed": false,
          "internalType": "uint256",
          "name": "flag",
          "type": "uint256"
        }
      ],
      "name": "BalanceOfMaker",
      "type": "event"
    },
    {
      "anonymous": false,
      "inputs": [
        {
          "indexed": false,
          "internalType": "uint256",
          "name": "dealID",
          "type": "uint256"
        },
        {
          "indexed": false,
          "internalType": "address",
          "name": "maker",
          "type": "address"
        },
        {
          "indexed": false,
          "internalType": "uint256",
          "name": "size",
          "type": "uint256"
        },
        {
          "indexed": false,
          "internalType": "uint256",
          "name": "price",
          "type": "uint256"
        },
        {
          "indexed": false,
          "internalType": "uint256",
          "name": "makerID",
          "type": "uint256"
        },
        {
          "indexed": false,
          "internalType": "uint256",
          "name": "makerGain",
          "type": "uint256"
        },
        {
          "indexed": false,
          "internalType": "uint256",
          "name": "makerLoss",
          "type": "uint256"
        },
        {
          "indexed": false,
          "internalType": "uint256",
          "name": "closeFlag",
          "type": "uint256"
        },
        {
          "indexed": false,
          "internalType": "uint256",
          "name": "flag",
          "type": "uint256"
        }
      ],
      "name": "CloseMakerDealInPool",
      "type": "event"
    },
    {
      "anonymous": false,
      "inputs": [
        {
          "indexed": false,
          "internalType": "uint64",
          "name": "version",
          "type": "uint64"
        }
      ],
      "name": "Initialized",
      "type": "event"
    },
    {
      "anonymous": false,
      "inputs": [
        {
          "indexed": false,
          "internalType": "uint256",
          "name": "dealID",
          "type": "uint256"
        },
        {
          "indexed": false,
          "internalType": "address",
          "name": "maker",
          "type": "address"
        },
        {
          "indexed": false,
          "internalType": "uint256",
          "name": "value",
          "type": "uint256"
        },
        {
          "indexed": false,
          "internalType": "uint256",
          "name": "price",
          "type": "uint256"
        },
        {
          "indexed": false,
          "internalType": "uint256",
          "name": "makerID",
          "type": "uint256"
        },
        {
          "indexed": false,
          "internalType": "uint256",
          "name": "marginAmount",
          "type": "uint256"
        },
        {
          "indexed": false,
          "internalType": "uint256",
          "name": "maintenanceMargin",
          "type": "uint256"
        }
      ],
      "name": "LockInPrivatePool",
      "type": "event"
    },
    {
      "anonymous": false,
      "inputs": [
        {
          "indexed": false,
          "internalType": "uint256",
          "name": "dealID",
          "type": "uint256"
        },
        {
          "indexed": false,
          "internalType": "address",
          "name": "maker",
          "type": "address"
        },
        {
          "indexed": false,
          "internalType": "uint256",
          "name": "size",
          "type": "uint256"
        },
        {
          "indexed": false,
          "internalType": "uint256",
          "name": "price",
          "type": "uint256"
        },
        {
          "indexed": false,
          "internalType": "uint256",
          "name": "makerID",
          "type": "uint256"
        },
        {
          "indexed": false,
          "internalType": "uint256",
          "name": "marginAmount",
          "type": "uint256"
        },
        {
          "indexed": false,
          "internalType": "uint256",
          "name": "maintenanceMargin",
          "type": "uint256"
        },
        {
          "indexed": false,
          "internalType": "uint256",
          "name": "flag",
          "type": "uint256"
        }
      ],
      "name": "LockPoolMargin",
      "type": "event"
    },
    {
      "anonymous": false,
      "inputs": [
        {
          "indexed": true,
          "internalType": "address",
          "name": "previousOwner",
          "type": "address"
        },
        {
          "indexed": true,
          "internalType": "address",
          "name": "newOwner",
          "type": "address"
        }
      ],
      "name": "OwnershipTransferred",
      "type": "event"
    },
    {
      "anonymous": false,
      "inputs": [
        {
          "indexed": true,
          "internalType": "address",
          "name": "account",
          "type": "address"
        },
        {
          "indexed": true,
          "internalType": "address",
          "name": "token",
          "type": "address"
        },
        {
          "indexed": false,
          "internalType": "uint256",
          "name": "amount",
          "type": "uint256"
        },
        {
          "indexed": false,
          "internalType": "uint256",
          "name": "poolType",
          "type": "uint256"
        }
      ],
      "name": "Provide",
      "type": "event"
    },
    {
      "anonymous": false,
      "inputs": [
        {
          "indexed": false,
          "internalType": "address",
          "name": "sender",
          "type": "address"
        },
        {
          "indexed": false,
          "internalType": "address",
          "name": "received",
          "type": "address"
        },
        {
          "indexed": false,
          "internalType": "enum ICommon.TransactionType",
          "name": "transactionType",
          "type": "uint8"
        },
        {
          "indexed": false,
          "internalType": "uint256",
          "name": "amount",
          "type": "uint256"
        },
        {
          "indexed": false,
          "internalType": "uint256",
          "name": "timestamp",
          "type": "uint256"
        }
      ],
      "name": "TransferFee",
      "type": "event"
    },
    {
      "anonymous": false,
      "inputs": [
        {
          "indexed": true,
          "internalType": "address",
          "name": "account",
          "type": "address"
        },
        {
          "indexed": true,
          "internalType": "address",
          "name": "token",
          "type": "address"
        },
        {
          "indexed": false,
          "internalType": "uint256",
          "name": "amount",
          "type": "uint256"
        },
        {
          "indexed": false,
          "internalType": "uint256",
          "name": "poolType",
          "type": "uint256"
        }
      ],
      "name": "Withdraw",
      "type": "event"
    },
    {
      "anonymous": false,
      "inputs": [
        {
          "indexed": false,
          "internalType": "address",
          "name": "sender",
          "type": "address"
        },
        {
          "indexed": false,
          "internalType": "uint256",
          "name": "beforeLeverage",
          "type": "uint256"
        },
        {
          "indexed": false,
          "internalType": "uint256",
          "name": "afterLeverage",
          "type": "uint256"
        }
      ],
      "name": "setLeverage",
      "type": "event"
    },
    {
      "stateMutability": "nonpayable",
      "type": "fallback"
    },
    {
      "inputs": [
        {
          "internalType": "uint256",
          "name": "_dealID",
          "type": "uint256"
        },
        {
          "internalType": "uint256",
          "name": "_amount",
          "type": "uint256"
        }
      ],
      "name": "addMarginAmount",
      "outputs": [],
      "stateMutability": "nonpayable",
      "type": "function"
    },
    {
      "inputs": [
        {
          "internalType": "uint256",
          "name": "_dealID",
          "type": "uint256"
        },
        {
          "internalType": "uint256",
          "name": "_profit",
          "type": "uint256"
        }
      ],
      "name": "checkMarginRisk",
      "outputs": [
        {
          "internalType": "bool",
          "name": "isRisk",
          "type": "bool"
        }
      ],
      "stateMutability": "view",
      "type": "function"
    },
    {
      "inputs": [
        {
          "internalType": "uint256",
          "name": "_id",
          "type": "uint256"
        },
        {
          "internalType": "uint8",
          "name": "_type",
          "type": "uint8"
        },
        {
          "internalType": "uint256",
          "name": "_profit",
          "type": "uint256"
        },
        {
          "internalType": "uint256",
          "name": "_loss",
          "type": "uint256"
        },
        {
          "internalType": "uint256",
          "name": "_amount",
          "type": "uint256"
        },
        {
          "internalType": "uint256",
          "name": "_price",
          "type": "uint256"
        },
        {
          "internalType": "bool",
          "name": "_transform",
          "type": "bool"
        }
      ],
      "name": "close",
      "outputs": [
        {
          "internalType": "uint256",
          "name": "makerProfit",
          "type": "uint256"
        },
        {
          "internalType": "uint256",
          "name": "makerLoss",
          "type": "uint256"
        },
        {
          "internalType": "bool",
          "name": "isLiquidated",
          "type": "bool"
        },
        {
          "internalType": "bool",
          "name": "isAgreement",
          "type": "bool"
        }
      ],
      "stateMutability": "nonpayable",
      "type": "function"
    },
    {
      "inputs": [],
      "name": "escrowAccount",
      "outputs": [
        {
          "internalType": "address",
          "name": "",
          "type": "address"
        }
      ],
      "stateMutability": "view",
      "type": "function"
    },
    {
      "inputs": [
        {
          "internalType": "uint256",
          "name": "_start",
          "type": "uint256"
        },
        {
          "internalType": "uint256",
          "name": "_end",
          "type": "uint256"
        },
        {
          "internalType": "uint256",
          "name": "_count",
          "type": "uint256"
        }
      ],
      "name": "getActiveDeals",
      "outputs": [
        {
          "components": [
            {
              "internalType": "address",
              "name": "makerAddr",
              "type": "address"
            },
            {
              "internalType": "bool",
              "name": "locked",
              "type": "bool"
            },
            {
              "internalType": "uint256",
              "name": "takerId",
              "type": "uint256"
            },
            {
              "internalType": "uint256",
              "name": "size",
              "type": "uint256"
            },
            {
              "internalType": "uint256",
              "name": "marginAmount",
              "type": "uint256"
            },
            {
              "internalType": "uint256",
              "name": "maintenanceMargin",
              "type": "uint256"
            },
            {
              "internalType": "uint256",
              "name": "pubPriFlag",
              "type": "uint256"
            },
            {
              "internalType": "uint256",
              "name": "movePrice",
              "type": "uint256"
            },
            {
              "internalType": "uint256",
              "name": "time",
              "type": "uint256"
            }
          ],
          "internalType": "struct IPool.MakerDeal[]",
          "name": "info",
          "type": "tuple[]"
        },
        {
          "internalType": "uint256[]",
          "name": "ids",
          "type": "uint256[]"
        },
        {
          "internalType": "uint256",
          "name": "end",
          "type": "uint256"
        }
      ],
      "stateMutability": "view",
      "type": "function"
    },
    {
      "inputs": [
        {
          "internalType": "address",
          "name": "maker",
          "type": "address"
        }
      ],
      "name": "getLP2Account",
      "outputs": [
        {
          "components": [
            {
              "internalType": "address payable",
              "name": "holder",
              "type": "address"
            },
            {
              "internalType": "uint256",
              "name": "amount",
              "type": "uint256"
            },
            {
              "internalType": "uint256",
              "name": "availableAmount",
              "type": "uint256"
            },
            {
              "internalType": "uint256",
              "name": "lockedAmount",
              "type": "uint256"
            },
            {
              "internalType": "uint256",
              "name": "maintenanceMargin",
              "type": "uint256"
            },
            {
              "internalType": "uint256",
              "name": "marginRate",
              "type": "uint256"
            },
            {
              "internalType": "uint256",
              "name": "maintenanceMarginRate",
              "type": "uint256"
            },
            {
              "internalType": "uint256",
              "name": "addMarginRate",
              "type": "uint256"
            },
            {
              "internalType": "bool",
              "name": "autoAddMargin",
              "type": "bool"
            },
            {
              "internalType": "bool",
              "name": "isRejectOrder",
              "type": "bool"
            }
          ],
          "internalType": "struct IPool.LP2Account",
          "name": "",
          "type": "tuple"
        }
      ],
      "stateMutability": "view",
      "type": "function"
    },
    {
      "inputs": [],
      "name": "getMakerAddresses",
      "outputs": [
        {
          "internalType": "address[]",
          "name": "",
          "type": "address[]"
        }
      ],
      "stateMutability": "view",
      "type": "function"
    },
    {
      "inputs": [
        {
          "internalType": "uint256",
          "name": "makerDealID",
          "type": "uint256"
        }
      ],
      "name": "getMakerDeal",
      "outputs": [
        {
          "components": [
            {
              "internalType": "address",
              "name": "makerAddr",
              "type": "address"
            },
            {
              "internalType": "bool",
              "name": "locked",
              "type": "bool"
            },
            {
              "internalType": "uint256",
              "name": "takerId",
              "type": "uint256"
            },
            {
              "internalType": "uint256",
              "name": "size",
              "type": "uint256"
            },
            {
              "internalType": "uint256",
              "name": "marginAmount",
              "type": "uint256"
            },
            {
              "internalType": "uint256",
              "name": "maintenanceMargin",
              "type": "uint256"
            },
            {
              "internalType": "uint256",
              "name": "pubPriFlag",
              "type": "uint256"
            },
            {
              "internalType": "uint256",
              "name": "movePrice",
              "type": "uint256"
            },
            {
              "internalType": "uint256",
              "name": "time",
              "type": "uint256"
            }
          ],
          "internalType": "struct IPool.MakerDeal",
          "name": "",
          "type": "tuple"
        }
      ],
      "stateMutability": "view",
      "type": "function"
    },
    {
      "inputs": [
        {
          "internalType": "uint256[]",
          "name": "_ids",
          "type": "uint256[]"
        }
      ],
      "name": "getMakerDeals",
      "outputs": [
        {
          "components": [
            {
              "internalType": "address",
              "name": "makerAddr",
              "type": "address"
            },
            {
              "internalType": "bool",
              "name": "locked",
              "type": "bool"
            },
            {
              "internalType": "uint256",
              "name": "takerId",
              "type": "uint256"
            },
            {
              "internalType": "uint256",
              "name": "size",
              "type": "uint256"
            },
            {
              "internalType": "uint256",
              "name": "marginAmount",
              "type": "uint256"
            },
            {
              "internalType": "uint256",
              "name": "maintenanceMargin",
              "type": "uint256"
            },
            {
              "internalType": "uint256",
              "name": "pubPriFlag",
              "type": "uint256"
            },
            {
              "internalType": "uint256",
              "name": "movePrice",
              "type": "uint256"
            },
            {
              "internalType": "uint256",
              "name": "time",
              "type": "uint256"
            }
          ],
          "internalType": "struct IPool.MakerDeal[]",
          "name": "deals",
          "type": "tuple[]"
        }
      ],
      "stateMutability": "view",
      "type": "function"
    },
    {
      "inputs": [],
      "name": "getMakerDealsLength",
      "outputs": [
        {
          "internalType": "uint256",
          "name": "lpLen",
          "type": "uint256"
        }
      ],
      "stateMutability": "view",
      "type": "function"
    },
    {
      "inputs": [
        {
          "internalType": "address",
          "name": "maker",
          "type": "address"
        }
      ],
      "name": "getMakerUserDeals",
      "outputs": [
        {
          "internalType": "uint256[]",
          "name": "",
          "type": "uint256[]"
        }
      ],
      "stateMutability": "view",
      "type": "function"
    },
    {
      "inputs": [],
      "name": "getShareAddresses",
      "outputs": [
        {
          "internalType": "address[]",
          "name": "",
          "type": "address[]"
        }
      ],
      "stateMutability": "view",
      "type": "function"
    },
    {
      "inputs": [
        {
          "internalType": "address",
          "name": "initialOwner",
          "type": "address"
        },
        {
          "internalType": "address",
          "name": "_tokenAddress",
          "type": "address"
        },
        {
          "internalType": "address",
          "name": "_riskFundAddr",
          "type": "address"
        }
      ],
      "name": "initialize",
      "outputs": [],
      "stateMutability": "nonpayable",
      "type": "function"
    },
    {
      "inputs": [
        {
          "internalType": "uint256",
          "name": "",
          "type": "uint256"
        }
      ],
      "name": "matchIds",
      "outputs": [
        {
          "internalType": "uint256",
          "name": "",
          "type": "uint256"
        }
      ],
      "stateMutability": "view",
      "type": "function"
    },
    {
      "inputs": [
        {
          "internalType": "string",
          "name": "_name",
          "type": "string"
        },
        {
          "internalType": "uint256",
          "name": "_id",
          "type": "uint256"
        },
        {
          "internalType": "uint256",
          "name": "_amount",
          "type": "uint256"
        },
        {
          "internalType": "uint256",
          "name": "_tradingFee",
          "type": "uint256"
        },
        {
          "internalType": "uint256",
          "name": "_price",
          "type": "uint256"
        },
        {
          "internalType": "enum ICommon.Direct",
          "name": "_direction",
          "type": "uint8"
        }
      ],
      "name": "matchOrder",
      "outputs": [
        {
          "internalType": "bool",
          "name": "success",
          "type": "bool"
        },
        {
          "internalType": "uint256",
          "name": "remaining",
          "type": "uint256"
        }
      ],
      "stateMutability": "nonpayable",
      "type": "function"
    },
    {
      "inputs": [],
      "name": "owner",
      "outputs": [
        {
          "internalType": "address",
          "name": "",
          "type": "address"
        }
      ],
      "stateMutability": "view",
      "type": "function"
    },
    {
      "inputs": [],
      "name": "poolType",
      "outputs": [
        {
          "internalType": "enum ICommon.PoolFlag",
          "name": "",
          "type": "uint8"
        }
      ],
      "stateMutability": "view",
      "type": "function"
    },
    {
      "inputs": [
        {
          "internalType": "address",
          "name": "",
          "type": "address"
        },
        {
          "internalType": "string",
          "name": "",
          "type": "string"
        },
        {
          "internalType": "uint256",
          "name": "",
          "type": "uint256"
        }
      ],
      "name": "positions",
      "outputs": [
        {
          "internalType": "uint256",
          "name": "value",
          "type": "uint256"
        },
        {
          "internalType": "uint256",
          "name": "size",
          "type": "uint256"
        }
      ],
      "stateMutability": "view",
      "type": "function"
    },
    {
      "inputs": [],
      "name": "privateMinMintAmount",
      "outputs": [
        {
          "internalType": "uint256",
          "name": "",
          "type": "uint256"
        }
      ],
      "stateMutability": "view",
      "type": "function"
    },
    {
      "inputs": [
        {
          "internalType": "uint256",
          "name": "_amount",
          "type": "uint256"
        },
        {
          "internalType": "uint256",
          "name": "_priOrPub",
          "type": "uint256"
        }
      ],
      "name": "provide",
      "outputs": [],
      "stateMutability": "nonpayable",
      "type": "function"
    },
    {
      "inputs": [],
      "name": "renounceOwnership",
      "outputs": [],
      "stateMutability": "nonpayable",
      "type": "function"
    },
    {
      "inputs": [
        {
          "internalType": "bool",
          "name": "_flag",
          "type": "bool"
        }
      ],
      "name": "setIsRejectOrder",
      "outputs": [],
      "stateMutability": "nonpayable",
      "type": "function"
    },
    {
      "inputs": [
        {
          "internalType": "address",
          "name": "_perpetual",
          "type": "address"
        },
        {
          "internalType": "address",
          "name": "_orderBook",
          "type": "address"
        },
        {
          "internalType": "address",
          "name": "_tradeAgent",
          "type": "address"
        },
        {
          "internalType": "address",
          "name": "_tradeStation",
          "type": "address"
        },
        {
          "internalType": "address",
          "name": "_keeper",
          "type": "address"
        }
      ],
      "name": "setKeepers",
      "outputs": [],
      "stateMutability": "nonpayable",
      "type": "function"
    },
    {
      "inputs": [
        {
          "internalType": "uint256",
          "name": "_value",
          "type": "uint256"
        }
      ],
      "name": "setPrivateMinMintAmount",
      "outputs": [],
      "stateMutability": "nonpayable",
      "type": "function"
    },
    {
      "inputs": [
        {
          "internalType": "uint256",
          "name": "_marginRate",
          "type": "uint256"
        },
        {
          "internalType": "uint256",
          "name": "_maintenanceMarginRate",
          "type": "uint256"
        },
        {
          "internalType": "uint256",
          "name": "_addMarginRate",
          "type": "uint256"
        },
        {
          "internalType": "bool",
          "name": "_isRejectOrder",
          "type": "bool"
        },
        {
          "internalType": "bool",
          "name": "_autoAddMargin",
          "type": "bool"
        }
      ],
      "name": "setUserParam",
      "outputs": [],
      "stateMutability": "nonpayable",
      "type": "function"
    },
    {
      "inputs": [],
      "name": "totalLockedLiquidity",
      "outputs": [
        {
          "internalType": "uint256",
          "name": "",
          "type": "uint256"
        }
      ],
      "stateMutability": "view",
      "type": "function"
    },
    {
      "inputs": [
        {
          "internalType": "address",
          "name": "newOwner",
          "type": "address"
        }
      ],
      "name": "transferOwnership",
      "outputs": [],
      "stateMutability": "nonpayable",
      "type": "function"
    },
    {
      "inputs": [
        {
          "internalType": "uint256",
          "name": "_amount",
          "type": "uint256"
        },
        {
          "internalType": "uint256",
          "name": "_priOrPub",
          "type": "uint256"
        }
      ],
      "name": "withdraw",
      "outputs": [],
      "stateMutability": "nonpayable",
      "type": "function"
    }
  ],
  "bytecode": "0x608080604052346015576155b5908161001b8239f35b600080fdfe6080604052600436101561001a575b3461001557005b600080fd5b60003560e01c80630c8c3516146101da5780631f92a4da146101d557806325737d40146101d057806336ff6a70146101cb578063441a3e70146101c657806346ceec98146101c15780634e091b22146101bc57806354b3b018146101b757806360d32e8d146101b2578063715018a6146101ad578063728f855e146101a8578063880a1a77146101a35780638da5cb5b1461019e5780638e3a0e9214610199578063a8ece51a14610194578063b1dd61b61461018f578063bc1c1c6c1461018a578063c0c53b8b14610185578063c229894214610180578063c23e629f1461017b578063d048f59014610176578063d3c76d6614610171578063e771ad721461016c578063e8c3c54f14610167578063f26a3e1d14610162578063f2da708d1461015d578063f2fde38b146101585763f6ef18390361000e57611bd7565b611baa565b611b8c565b611b02565b611843565b611723565b6116a1565b6115ae565b6113de565b611357565b6110bc565b61103c565b611012565b610fcf565b610f51565b610f01565b610e75565b610d8b565b610ce8565b610c4c565b610c22565b610bef565b610ac8565b6105ab565b61057f565b6104e8565b610403565b610358565b6001600160a01b0381160361001557565b634e487b7160e01b600052604160045260246000fd5b610140810190811067ffffffffffffffff82111761022357604052565b6101f0565b90601f601f19910116810190811067ffffffffffffffff82111761022357604052565b6040519061025b61014083610228565b565b6040519061025b61012083610228565b6040519061025b61016083610228565b67ffffffffffffffff811161022357601f01601f191660200190565b81601f82011215610015578035906102b08261027d565b926102be6040519485610228565b8284526020838301011161001557816000926020809301838601378301015290565b60005b8381106102f35750506000910152565b81810151838201526020016102e3565b60209061031d9282604051948386809551938492016102e0565b82019081520301902090565b634e487b7160e01b600052603260045260246000fd5b9060028110156103535760011b0190600090565b610329565b3461001557606060031936011261001557600435610375816101df565b60243567ffffffffffffffff811161001557602061039a6103c6923690600401610299565b6001600160a01b03604435941660005260168252604060002082604051948386809551938492016102e0565b820190815203019020906002811015610015576103e29161033f565b508054600190910154604080519283526020830191909152819081015b0390f35b34610015576000600319360112610015576020601454604051908152f35b67ffffffffffffffff81116102235760051b60200190565b906020808351928381520192019060005b8181106104575750505090565b9091926020610120826104c9600194885161010080916001600160a01b03815116845260208101511515602085015260408101516040850152606081015160608501526080810151608085015260a081015160a085015260c081015160c085015260e081015160e08501520151910152565b01940192910161044a565b9060206104e5928181520190610439565b90565b346100155760206003193601126100155760043567ffffffffffffffff811161001557366023820112156100155780600401359061052582610421565b916105336040519384610228565b8083526024602084019160051b8301019136831161001557602401905b82821061056f576103ff61056385611e68565b604051918291826104d4565b8135815260209182019101610550565b346100155760206003193601126100155760043560005260176020526020604060002054604051908152f35b34610015576040600319360112610015576024356004358080151580610a19575b6105d590611eb9565b6106016105e460135460ff1690565b6105ed81611003565b84600382149182156109f3575b5050611f48565b600183036107d5575061061381613cc7565b600261064761062e6013546001600160a01b039060081c1690565b6001600160a01b03166000526010602052604060002090565b0154821115806107a9575b61065b90611fe5565b336000908152600f60205260409020610675838254612055565b90556013546106a49060081c6001600160a01b03165b6001600160a01b0316600052600f602052604060002090565b6106af838254612055565b905560016106cc61062e6013546001600160a01b039060081c1690565b016106d8828254612055565b905561070160026106f861062e6013546001600160a01b039060081c1690565b01918254612055565b9055336000908152600f602052604090205415610794575b6107368161072f6005546001600160a01b031690565b3390613d33565b7ff341246adaac6f497bc2a656f546ab9e182111d630394f0c57c710a59a2cb56761078f6001600160a01b036107746005546001600160a01b031690565b60408051958652602086019690965216933393918291820190565b0390a3005b336000908152600f6020526040812055610719565b5061065b6107ca336001600160a01b0316600052600f602052604060002090565b548311159050610652565b600283036109ee576108026107fd336001600160a01b03166000526010602052604060002090565b611f4f565b90604082016108148151831115611fe5565b6108306020840192610827818551612055565b84528251612055565b9052606082015115806109e4575b806109d8575b6109cb575b5190816109a157505060005b600b54908181101561099a5761088761089361087083612189565b9290923393546001600160a01b039160031b1c1690565b6001600160a01b031690565b146108a2576001915001610855565b6108ab82612046565b8103610941575b50506108de6108d4336001600160a01b0316600052600c602052604060002090565b60ff198154169055565b6109346108fe336001600160a01b03166000526010602052604060002090565b60086000918281558260018201558260028201558260038201558260048201558260058201558260068201558260078201550155565b61093c6121d2565b610719565b61097461096e61095b61095661099395612046565b612189565b90546001600160a01b039160031b1c1690565b91612189565b9091906001600160a01b038084549260031b9316831b921b1916179055565b38806108b2565b5050610719565b6109b261093c926014541115612062565b3360009081526010602052604090206120c3565b6120c3565b8051600082529250610849565b50805160145411610844565b508051151561083e565b611f04565b9091506109ff82611003565b610a0882611003565b610a1181611003565b1484386105fa565b506105d5610a366108876013546001600160a01b039060081c1690565b33141590506105cc565b61025b9092919261012080610140830195610a648482516001600160a01b03169052565b6020810151602085015260408101516040850152606081015160608501526080810151608085015260a081015160a085015260c081015160c085015260e081015160e0850152610abf61010082015161010086019015159052565b01511515910152565b34610015576020600319360112610015576001600160a01b03600435610aed816101df565b6000610120604051610afe81610206565b8281528260208201528260408201528260608201528260808201528260a08201528260c08201528260e08201528261010082015201521660005260106020526103ff6040600020610be3610bd96008610b5561024b565b93610b77610b6a82546001600160a01b031690565b6001600160a01b03168652565b60018101546020860152600281015460408601526003810154606086015260048101546080860152600581015460a0860152600681015460c0860152600781015460e08601520154610bd060ff82161515610100860152565b60081c60ff1690565b1515610120830152565b60405191829182610a40565b346100155760206003193601126100155760043533600052600e602052610c1d60ff6040600020541661222c565b601455005b346100155760006003193601126100155760206001600160a01b0360135460081c16604051908152f35b3461001557602060031936011261001557610120610c7d610c77600435610c71611ce8565b50611da1565b50611ddc565b610ce6604051809261010080916001600160a01b03815116845260208101511515602085015260408101516040850152606081015160608501526080810151608085015260a081015160a085015260c081015160c085015260e081015160e08501520151910152565bf35b3461001557600060031936011261001557610d01613e35565b60006001600160a01b037f9016d09d72d40fdae2fd8ceac6b6234c7706214fd39c1cd1e609a0528c199300546001600160a01b031981167f9016d09d72d40fdae2fd8ceac6b6234c7706214fd39c1cd1e609a0528c19930055167f8be0079c531659141344cd1fd0a4f28419497f9722a3daafe3b4186f6b6457e08280a3005b8015150361001557565b3461001557602060031936011261001557600435610da881610d81565b33600052600c60205260ff6040600020541615610dee57610dec9033600052601060205260086040600020019061ff001961ff00835492151560081b169116179055565b005b606460405162461bcd60e51b815260206004820152600c60248201527f6e656564206465706f73697400000000000000000000000000000000000000006044820152fd5b602060408183019282815284518094520192019060005b818110610e565750505090565b82516001600160a01b0316845260209384019390920191600101610e49565b3461001557600060031936011261001557604051806020600a54918281520190600a6000527fc65a7bb8d6351c1cf70c95a316cc6a92839c986682d98bc35f958f4883f9d2a89060005b818110610ee2576103ff85610ed681870382610228565b60405191829182610e32565b82546001600160a01b0316845260209093019260019283019201610ebf565b346100155760006003193601126100155760206001600160a01b037f9016d09d72d40fdae2fd8ceac6b6234c7706214fd39c1cd1e609a0528c1993005416604051908152f35b6003111561001557565b346100155760c06003193601126100155760043567ffffffffffffffff811161001557610f85610fbb913690600401610299565b6024356044356084359160a43593610f9c85610f47565b33600052600e602052610fb660ff6040600020541661222c565b61229d565b604080519215158352602083019190915290f35b34610015576000600319360112610015576020601554604051908152f35b634e487b7160e01b600052602160045260246000fd5b6005111561100d57565b610fed565b346100155760006003193601126100155760ff60135416604051600582101561100d576020918152f35b3461001557600060031936011261001557604051806020600b54918281520190600b6000527f0175b7a638427703f0dbe7bb9bbf987a2551717b34e79f33b5b1008d1fa01db99060005b81811061109d576103ff85610ed681870382610228565b82546001600160a01b0316845260209093019260019283019201611086565b34610015576060600319360112610015576004356110d9816101df565b602435906110e6826101df565b6044356110f2816101df565b7ff0c57e16840df040f15088dc2f81fe391c3923bec73e23a9662efc9c229c6a00549267ffffffffffffffff61114160ff604087901c1615611133565b1590565b9567ffffffffffffffff1690565b168015908161130a575b6001149081611300575b1590816112f7575b506112cd576111de92846111d560017fffffffffffffffffffffffffffffffffffffffffffffffff00000000000000007ff0c57e16840df040f15088dc2f81fe391c3923bec73e23a9662efc9c229c6a005416177ff0c57e16840df040f15088dc2f81fe391c3923bec73e23a9662efc9c229c6a0055565b611268576125c9565b6111e457005b61123968ff0000000000000000197ff0c57e16840df040f15088dc2f81fe391c3923bec73e23a9662efc9c229c6a0054167ff0c57e16840df040f15088dc2f81fe391c3923bec73e23a9662efc9c229c6a0055565b604051600181527fc7f505b2f371ae2175ee4913f4499e1f2633a7b5936321eed1cdaeb6115181d290602090a1005b6112c86801000000000000000068ff0000000000000000197ff0c57e16840df040f15088dc2f81fe391c3923bec73e23a9662efc9c229c6a005416177ff0c57e16840df040f15088dc2f81fe391c3923bec73e23a9662efc9c229c6a0055565b6125c9565b7ff92ee8a90000000000000000000000000000000000000000000000000000000060005260046000fd5b9050153861115d565b303b159150611155565b85915061114b565b906020808351928381520192019060005b8181106113305750505090565b8251845260209384019390920191600101611323565b9060206104e5928181520190611312565b34610015576020600319360112610015576001600160a01b0360043561137c816101df565b166000526011602052604060002060405190816020825491828152019160005260206000209060005b8181106113c8576103ff856113bc81870382610228565b60405191829182611346565b82548452602090930192600192830192016113a5565b346100155760406003193601126100155760243560043561142261141261140483611da1565b50546001600160a01b031690565b6001600160a01b031633146127ca565b61144e826002611445336001600160a01b03166000526010602052604060002090565b01541015612815565b611472600161146a61145f84611da1565b505460a01c60ff1690565b151514612860565b61149c826002611495336001600160a01b03166000526010602052604060002090565b0154612055565b60026114bb336001600160a01b03166000526010602052604060002090565b01556114e78260036114e0336001600160a01b03166000526010602052604060002090565b01546128b9565b6003611506336001600160a01b03166000526010602052604060002090565b015561151f82600361151784611da1565b5001546128b9565b600361152a83611da1565b50015561154161153c836015546128b9565b601555565b7fc8f742aa90a6e6851d2252fa58ed695d3ca295b55bf5f1c2164a360cc8a093e26001600160a01b0361157c6005546001600160a01b031690565b61078f600361158a86611da1565b50015460405193849316963396846040919493926060820195825260208201520152565b346100155760a0600319360112610015576004356024356064356044356115d482610d81565b608435926115e184610d81565b33600052600c60205260ff604060002054161561165d57610dec9461164b92600892611620336001600160a01b03166000526010602052604060002090565b926005840155600683015560078201550191829061ff001961ff00835492151560081b169116179055565b9060ff60ff1983541691151516179055565b606460405162461bcd60e51b815260206004820152601260248201527f75736572206973206e6f742065786973747300000000000000000000000000006044820152fd5b34610015576040600319360112610015576004356024359060005260176020526040600020549060001982019182116116f05760806116e4610c77602094611da1565b01511115604051908152f35b612030565b93929161171e90611710604093606088526060880190610439565b908682036020880152611312565b930152565b346100155760606003193601126100155760043560243560443581928092600091601254809211611839575b8110611831575b5092919261176382611d3e565b9161176d81610421565b9461177b6040519687610228565b818652601f1961178a83610421565b013660208801375b84811080611828575b15611802576117ac61145f82611da1565b6117bf575b6117ba906128c6565b611792565b916117fa81846117d26117ba948a611d8d565b526117df610c7786611da1565b6117e98288611d8d565b526117f48187611d8d565b506128c6565b9290506117b1565b8593926103ff92810361181d575b50604051938493846116f5565b808452845284611810565b5081831061179b565b925038611756565b909450849061174f565b346100155760406003193601126100155760043560243590806118a96118a16108876013546118926118758260ff1690565b61187e81611003565b8860038214918215611ad1575b5050612919565b60081c6001600160a01b031690565b331415612920565b6118b23061430d565b906118d08130336118cb6005546001600160a01b031690565b61442e565b60018403611a4b57506118ea6118f892600154111561296b565b6118f33061430d565b612055565b61192261112f61191b336001600160a01b0316600052600d602052604060002090565b5460ff1690565b611a10575b611930816145ea565b600161194b61062e6013546001600160a01b039060081c1690565b016119578382546128b9565b9055600261197461062e6013546001600160a01b039060081c1690565b016119808382546128b9565b905560135461199a9060081c6001600160a01b031661068b565b6119a58282546128b9565b90556119cf6119c7336001600160a01b0316600052600f602052604060002090565b9182546128b9565b90555b7f9675a307d5dddc49aefd66964913e794711b6c69e23cfe1fa44406ab2bbaeae861078f6001600160a01b036107746005546001600160a01b031690565b611a3d611a30336001600160a01b0316600052600d602052604060002090565b600160ff19825416179055565b611a46336129b6565b611927565b915060028303611acc576118ea611a6692601454111561296b565b611a6e614519565b611ac7611a916107fd336001600160a01b03166000526010602052604060002090565b60208101611aa08482516128b9565b905260408101611ab18482516128b9565b90523360009081526010602052604090206120c3565b6119d2565b6128d5565b909150611add82611003565b611ae682611003565b611aef81611003565b14883861188b565b60ff81160361001557565b346100155760e0600319360112610015576103ff611b62600435602435611b2881611af7565b6044356064356084359160a4359360c43595611b4387610d81565b33600052600e602052611b5d60ff6040600020541661222c565b612b78565b60408051948552602085019390935290151591830191909152151560608201529081906080820190565b34610015576000600319360112610015576020601254604051908152f35b3461001557602060031936011261001557610dec600435611bca816101df565b611bd2613e35565b613c08565b346100155760a060031936011261001557610dec611a30600435611bfa816101df565b611ccf611a3060243592611c0d846101df565b611ccf611a3060443592611c20846101df565b611caf611a3060643595611c33876101df565b6001600160a01b036084359a611c488c6101df565b611c50613e35565b16806001600160a01b03196008541617600855600052600e6020526040600020600160ff198254161790556001600160a01b0381166001600160a01b031960095416176009556001600160a01b0316600052600e602052604060002090565b611ccf816001600160a01b03166001600160a01b03196007541617600755565b6001600160a01b0316600052600e602052604060002090565b60405190610120820182811067ffffffffffffffff821117610223576040526000610100838281528260208201528260408201528260608201528260808201528260a08201528260c08201528260e08201520152565b90611d4882610421565b611d556040519182610228565b828152601f19611d658294610421565b019060005b828110611d7657505050565b602090611d81611ce8565b82828501015201611d6a565b80518210156103535760209160051b010190565b60125481101561035357601260005260206000209060031b0190600090565b80548210156103535760005260206000209060031b0190600090565b906007611de761025d565b92611e22611e198254611e10611e03826001600160a01b031690565b6001600160a01b03168852565b60a01c60ff1690565b15156020860152565b600181015460408501526002810154606085015260038101546080850152600481015460a0850152600581015460c0850152600681015460e08501520154610100830152565b908151611e7481611d3e565b9260005b828110611e8457505050565b80611e9d610c77611e9760019486611d8d565b51611da1565b611ea78288611d8d565b52611eb28187611d8d565b5001611e78565b15611ec057565b606460405162461bcd60e51b815260206004820152600e60248201527f646f206e6f7420616c6c6f7765640000000000000000000000000000000000006044820152fd5b606460405162461bcd60e51b815260206004820152601360248201527f77726f6e6720776974686472617720666c6167000000000000000000000000006044820152fd5b15611f0457565b9061025b611fdb6008611f6061024b565b94611f82611f7582546001600160a01b031690565b6001600160a01b03168752565b60018101546020870152600281015460408701526003810154606087015260048101546080870152600581015460a0870152600681015460c0870152600781015460e08701520154610bd060ff82161515610100870152565b1515610120840152565b15611fec57565b606460405162461bcd60e51b815260206004820152601060248201527f6c6f7765722074686520616d6f756e74000000000000000000000000000000006044820152fd5b634e487b7160e01b600052601160045260246000fd5b9060001982019182116116f057565b919082039182116116f057565b1561206957565b606460405162461bcd60e51b815260206004820152601860248201527f7374617920616d6f756e7420697320746f6f20736d616c6c00000000000000006044820152fd5b634e487b7160e01b600052600060045260246000fd5b90612173610120600861025b946121006120e486516001600160a01b031690565b82906001600160a01b03166001600160a01b0319825416179055565b6020850151600182015560408501516002820155606085015160038201556080850151600482015560a0850151600582015560c0850151600682015560e08501516007820155019261216c612159610100830151151590565b859060ff60ff1983541691151516179055565b0151151590565b815461ff00191690151560081b61ff0016179055565b600b5481101561035357600b60005260206000200190600090565b80548210156103535760005260206000200190600090565b634e487b7160e01b600052603160045260246000fd5b600b54801561222757600019810190600090600b5483101561035357600b918290527f0175b7a638427703f0dbe7bb9bbf987a2551717b34e79f33b5b1008d1fa01db80180546001600160a01b031916905555565b6121bc565b1561223357565b608460405162461bcd60e51b815260206004820152602160248201527f63616c6c6572206973206e6f74207072697661746520706f6f6c206b6565706560448201527f72000000000000000000000000000000000000000000000000000000000000006064820152fd5b92919493906122ac8387613eeb565b926001600160a01b03839293169384156000146122d157505050505050505060009190565b7f9a5787718e945183fe431d089b46b9ee2c5cd3ffbb79ca1a9b117fc29b31c6aa9392916125089160029b98999a9b918985878d61231e6108876013546001600160a01b039060081c1690565b8c14612547575b8686836123dd9361236761153c846123627f5e16b3b6e0a15f63fe16c5b5705c03147211e204ce01e5197d2a699c087e167b9b9a996015546128b9565b6128b9565b612390612387876001600160a01b03166000526011602052604060002090565b60125490615451565b50601254906040519788978b899491926001600160a01b0360e097949a999895929a61010088019b885216602087015260408601526060850152608084015260a083015260c08201520152565b0390a161242e6123eb61025d565b6001600160a01b0387168152600160208201528260408201528b60608201528760808201528360a08201528460c08201528c60e082015242610100820152614072565b612445601254916000526017602052604060002090565b55612463846001600160a01b03166000526010602052604060002090565b906001600383019261247a836123628a87546128b9565b84556124a0600482019361248f8186546128b9565b85556118f3600284019a8b54612055565b88550154955491549054906124c8866001600160a01b0316600052600f602052604060002090565b54926040519788978893909796959260c095926001600160a01b0360e087019a168652602086015260408501526060840152608083015260a08201520152565b0390a16013546125239060081c6001600160a01b0316610887565b14612535575b50505050600190600090565b61253e93614186565b38808080612529565b60019650612325565b9081600a0291600a8304036116f057565b908160011b917f7fffffffffffffffffffffffffffffffffffffffffffffffffffffffffffffff8116036116f057565b818102929181159184041417156116f057565b634e487b7160e01b600052601260045260246000fd5b81156125c4570490565b6125a4565b612631611a3092612615612716956125df615526565b6125e7615526565b6125f033613c08565b6125f985613bfc565b6001600160a01b03166001600160a01b03196006541617600655565b6001600160a01b03166001600160a01b03196005541617600555565b601380547fffffffffffffffffffffff0000000000000000000000000000000000000000ff163360081b74ffffffffffffffffffffffffffffffffffffffff00161790556013546126ca9060081c6001600160a01b03166126af6001600160a01b038216916001600160a01b03166000526010602052604060002090565b906001600160a01b03166001600160a01b0319825416179055565b6126f660086126e861062e6013546001600160a01b039060081c1690565b01600160ff19825416179055565b611ccf611a30306001600160a01b0316600052600e602052604060002090565b612736611a30336001600160a01b0316600052600e602052604060002090565b612748600260ff196013541617601355565b61275760ff1960005416600055565b612768670de0b6b3a7640000600155565b612779670de0b6b3a7640000601455565b61279661279161278a600154612550565b6064900490565b600255565b6127ac6127a761278a600154612550565b600355565b61025b6127c56127bd600154612561565b6103e8900490565b600455565b156127d157565b606460405162461bcd60e51b815260206004820152600960248201527f4e6f74206d616b657200000000000000000000000000000000000000000000006044820152fd5b1561281c57565b606460405162461bcd60e51b815260206004820152601060248201527f45786365656420617661696c61626c65000000000000000000000000000000006044820152fd5b1561286757565b606460405162461bcd60e51b815260206004820152601660248201527f4c6971756964697479207374617475732077726f6e67000000000000000000006044820152fd5b90600182018092116116f057565b919082018092116116f057565b60001981146116f05760010190565b606460405162461bcd60e51b815260206004820152601260248201527f77726f6e67206465706f73697420666c616700000000000000000000000000006044820152fd5b156128d557565b1561292757565b606460405162461bcd60e51b815260206004820152601860248201527f77616c6c657420697320657363726f77206163636f756e7400000000000000006044820152fd5b1561297257565b606460405162461bcd60e51b815260206004820152600960248201527f746f6f20736d616c6c00000000000000000000000000000000000000000000006044820152fd5b600a5490680100000000000000008210156102235760018201600a55600a5482101561035357600a6000527fc65a7bb8d6351c1cf70c95a316cc6a92839c986682d98bc35f958f4883f9d2a890910180546001600160a01b0319166001600160a01b03909216919091179055565b519061025b826101df565b519061025b82610f47565b5190600682101561001557565b81601f82011215610015578051612a5d8161027d565b92612a6b6040519485610228565b81845260208284010111610015576104e591602080850191016102e0565b6020818303126100155780519067ffffffffffffffff82116100155701906101608282031261001557612aba61026d565b91612ac481612a24565b8352612ad260208201612a2f565b6020840152612ae360408201612a3a565b6040840152612af460608201612a2f565b60608401526080810151608084015260a081015167ffffffffffffffff81116100155761014092612b26918301612a47565b60a084015260c081015160c084015260e081015160e0840152610100810151610100840152610120810151610120840152015161014082015290565b6040513d6000823e3d90fd5b6003111561100d57565b9196939092959460009660008098600098612ba6612ba0886000526017602052604060002090565b54612046565b93612bb085611da1565b5093612bc385546001600160a01b031690565b9860ff612be38b6001600160a01b03166000526010602052604060002090565b9b168015809b819c613bd0575b50613af4575b60011415905061333057505050506003810180549660048301908c612c1c83548b6128b9565b93600283019a8b5490612c2f82886128b9565b841115612e59575050509c612c4f612c478583612055565b8b5490612055565b90612c58614609565b90818311612e32575b505091612cb26004612cbc95938561153c96612e02575b506000809d60018301612c92886118f38354855490612055565b90555560038101612ca4868254612055565b905501918254905490612055565b9055601554612055565b612cf282612ced612cd484546001600160a01b031690565b6001600160a01b03166000526011602052604060002090565b6146f0565b50612cfe838b83614fd0565b15612d1157505050505050600093929190565b90919295949897507fa9fda2d0d572da79a3bb128a2cd337112b06538bd638e802d7f392879dde36a8939650612d6588612d536005546001600160a01b031690565b6007546001600160a01b031690613d33565b60019586975b898b839560029360029515612df2575b97612de4969798612de9575b600188015497546001600160a01b031698604051998a998a95926001600160a01b036101009895929b9a99969361012089019c895216602088015260408701526060860152608085015260a084015260c083015260e08201520152565b0390a1565b60019550612d87565b6002870154975060019450612d7b565b612e2c90612e186005546001600160a01b031690565b6006546001600160a01b03165b309161442e565b38612c78565b819f5090612e4391959394956128b9565b90612e4d91612055565b9c388094939294612c61565b86849d949c9b9a9998979c11600014613139575050805490612e7b828d612055565b916008850154612e8b8160ff1690565b9081613124575b5080613119575b612fa3575050509088929160009a809a612eb291612055565b600183018186825490612ec491612055565b90612ece91612055565b9055815490612edc91612055565b90556003810183815490612eef91612055565b90556004019081549054612f0291612055565b905560155490612f1191612055565b60155580546001600160a01b0316600090815260116020526040902082612f37916146f0565b50612f43838c83614d3b565b15612f575750505050505050600093929190565b91939750919594987fa9fda2d0d572da79a3bb128a2cd337112b06538bd638e802d7f392879dde36a8949850612f9990612d536005546001600160a01b031690565b6001958697612d6b565b98509b9d509b509650965050955050612fdc612fee916003549060078701548061310f575b50612fd7906002890154612591565b612591565b612fe960015480926125ba565b6125ba565b612ff881886128b9565b835410156130c6575b506001600160a01b03927fc8f742aa90a6e6851d2252fa58ed695d3ca295b55bf5f1c2164a360cc8a093e2949261303a886003946128b9565b8755613047888254612055565b9055016130558682546128b9565b905561306661153c866015546128b9565b6130b761307a82546001600160a01b031690565b95600161308f6005546001600160a01b031690565b9301549554908460405195869516981696846040919493926060820195825260208201520152565b0390a360009190600090600090565b927fc8f742aa90a6e6851d2252fa58ed695d3ca295b55bf5f1c2164a360cc8a093e2949261303a6131026001600160a01b03966003959a6128b9565b9893505092945092613001565b9150612fd7612fc8565b508354831115612e99565b613133915060081c60ff161590565b38612e92565b6008859c9695949294015461314e8160ff1690565b908161331b575b5061324d575b50505050613188600460009a9960018101613177868254612055565b905560038101612ca4868254612055565b905561319961153c82601554612055565b6131b183612ced612cd485546001600160a01b031690565b506131bd8482846147de565b156131d2575050505050505050600093929190565b7fa9fda2d0d572da79a3bb128a2cd337112b06538bd638e802d7f392879dde36a8969a508b9193959950613219612f99939599989c612d536005546001600160a01b031690565b61324761322e6005546001600160a01b031690565b926132416006546001600160a01b031690565b92612055565b91613d33565b808d106132ff5761325e818e612055565b93808511156132755750505050503880808061315b565b989550985098509a9c509a5050612fdc9197506132ab9250600354906007880154806132f5575b50612fd79060028a0154612591565b906132b682896128b9565b11156130c657506001600160a01b03927fc8f742aa90a6e6851d2252fa58ed695d3ca295b55bf5f1c2164a360cc8a093e2949261303a886003946128b9565b9150612fd761329c565b5050505050505050505050505091505060009190600090600090565b61332a915060081c60ff161590565b38613155565b87949596979d9b9991929c9a98939d156000146136e65785547fffffffffffffffffffffff00ffffffffffffffffffffffffffffffffffffffff168655600386019b8c549161338560048901938454906128b9565b9460038501613395878254612055565b9055600485016133a88154865490612055565b90556133b961153c87601554612055565b6133d18a612ced612cd48c546001600160a01b031690565b50821561361a575050809c600284019e8f546133ed81886128b9565b84111561354a5750613443575b5050509a60009161343b60017fa9fda2d0d572da79a3bb128a2cd337112b06538bd638e802d7f392879dde36a89a9b9c9d9e01916118f38354855490612055565b905555612d6b565b61345b9291613453915490612055565b905490612055565b6134678d548092612055565b90613470614609565b808311613519575b5060017fa9fda2d0d572da79a3bb128a2cd337112b06538bd638e802d7f392879dde36a89a9b9c9d9e9361350a600096946134df61343b956134c26005546001600160a01b031690565b906132476134d86007546001600160a01b031690565b918a6128b9565b6005546001600160a01b03165b6006546001600160a01b03166007546001600160a01b03169161442e565b939e9d9c9b9a508294506133fa565b819e939a9b9c9d5080919492509361353190836128b9565b9061353b916128b9565b9b9a9998919c38939193613478565b90949293507fa9fda2d0d572da79a3bb128a2cd337112b06538bd638e802d7f392879dde36a89b9c9d9e9f9580925084116000146135d15750600183926135986135a6936135af9796612055565b946135b65701918254612055565b90558254612055565b9055612d6b565b6135cc84612d536005546001600160a01b031690565b6106f8565b836118f360019597936135e3936128b9565b9055016135f1838254612055565b90556135fe575b50612d6b565b61361490612d536005546001600160a01b031690565b386135f8565b959e909d5091505083156136ae577fa9fda2d0d572da79a3bb128a2cd337112b06538bd638e802d7f392879dde36a898999a9b9c9d50612362600261367a938693613682575b6001810161366f8582546128b9565b9055019384546128b9565b905599612d6b565b6136a9846136986005546001600160a01b031690565b6007546001600160a01b0316612e25565b613660565b507fa9fda2d0d572da79a3bb128a2cd337112b06538bd638e802d7f392879dde36a89798999a9b925060026135af91019182546128b9565b8b9c506137219a61372a9c936137008760038a0154612591565b9461371060028a015480976125ba565b9d8e96612fe98a60048d0154612591565b9e8f80976128b9565b956003860161373a888254612055565b905561374b60048701918254612055565b905561375c61153c87601554612055565b15613a11575060028301548e61377282876128b9565b1015613896575050508161384f916137b2613870947fa9fda2d0d572da79a3bb128a2cd337112b06538bd638e802d7f392879dde36a89b9c9d9e9f612055565b916137c260028301548094612055565b916137cb614609565b80841161388d575b5060029061380e61236294956137f16005546001600160a01b031690565b906132476138076007546001600160a01b031690565b91876128b9565b613824856134ec6005546001600160a01b031690565b60018101613840613836858354612055565b8484015490612055565b905560009101819055906128b9565b9a61386160019b5b6003870154612055565b60038601556004850154612055565b6004840155613883826002850154612055565b6002840155612d6b565b925060026137d3565b848f95939f1160001461391f5750507fa9fda2d0d572da79a3bb128a2cd337112b06538bd638e802d7f392879dde36a898999a9b9c5082916138ea6138e060019361387096612055565b6002830154612055565b6002820155016138fb828254612055565b905561391381612d536005546001600160a01b031690565b9a61386160019b613857565b8c859e95116000146139a65750508b9c5061387092916139726139687fa9fda2d0d572da79a3bb128a2cd337112b06538bd638e802d7f392879dde36a89b9c9d9e600194612055565b60028301546128b9565b6002820155016139838d8254612055565b905561399b8c612d536005546001600160a01b031690565b61386160019b613857565b8d60017fa9fda2d0d572da79a3bb128a2cd337112b06538bd638e802d7f392879dde36a89c9d9e939f956139e861387098976118f361386198613a0c976128b9565b6002820155016139f9828254612055565b90556005546001600160a01b0316612d53565b613857565b939e919d509b999a9899989291908215613ab15750819d826002830191825490613a3a916128b9565b90613a44916128b9565b905560010181815490613a56916128b9565b90556005546001600160a01b031690600754613a78906001600160a01b031690565b3090613a839361442e565b7fa9fda2d0d572da79a3bb128a2cd337112b06538bd638e802d7f392879dde36a89661386161387092613857565b9d7fa9fda2d0d572da79a3bb128a2cd337112b06538bd638e802d7f392879dde36a89992509261387093613aed600261386194019182546128b9565b9055613857565b6000613b4b92613b126108876108876008546001600160a01b031690565b60405180809681947f82fd5bac000000000000000000000000000000000000000000000000000000008352600483019190602083019252565b03915afa918215613bcb57600192613b9a91600091613baa575b508b613b9f57600289015460c08201525b60a0810151906020810151613b8a81612b6e565b60e060c083015192015192614211565b612bf6565b8b60c0820152613b76565b613bc5913d8091833e613bbd8183610228565b810190612a89565b38613b65565b612b62565b90506001600160a01b03613bf36108876013546001600160a01b039060081c1690565b91161438612bf0565b61025b90611bd2613e35565b6001600160a01b03168015613c98576001600160a01b037f9016d09d72d40fdae2fd8ceac6b6234c7706214fd39c1cd1e609a0528c19930054826001600160a01b03198216177f9016d09d72d40fdae2fd8ceac6b6234c7706214fd39c1cd1e609a0528c19930055167f8be0079c531659141344cd1fd0a4f28419497f9722a3daafe3b4186f6b6457e0600080a3565b7f1e4fbdf700000000000000000000000000000000000000000000000000000000600052600060045260246000fd5b613cd990613cd3615265565b90612591565b6001549081156125c4570490565b3d15613d12573d90613cf88261027d565b91613d066040519384610228565b82523d6000602084013e565b606090565b9081602091031261001557516104e581610d81565b1561001557565b91613d3e90836152cc565b80613d4857505050565b61025b92600092838093613dee604093613de07fffffffff00000000000000000000000000000000000000000000000000000000601960208851613d8c8a82610228565b828152017f7472616e7366657228616464726573732c75696e7432353629000000000000008152201695519384926020840197885260248401602090939291936001600160a01b0360408201951681520152565b03601f198101835282610228565b51925af1613dfa613ce7565b81613e06575b50613d2c565b8051801592508215613e1b575b505038613e00565b613e2e9250602080918301019101613d17565b3880613e13565b6001600160a01b037f9016d09d72d40fdae2fd8ceac6b6234c7706214fd39c1cd1e609a0528c19930054163303613e6857565b7f118cdaa7000000000000000000000000000000000000000000000000000000006000523360045260246000fd5b15613e9d57565b606460405162461bcd60e51b815260206004820152601560248201527f706f6f6c207374617475732069732072656675736500000000000000000000006044820152fd5b81156125c4570690565b601354919060ff8316613efd81611003565b600481141580614060575b613f1190613e96565b600b5490613f1e81611003565b60038114801592818461404d575b80614044575b613f8f575b50613f4182611003565b91613f7b575b50613f5a57505050600090600090600090565b613f749260081c6001600160a01b031661532c565b61532c565b9192909190565b60019150613f8881611003565b1438613f47565b613fe9816040516020810190613fe181613de042414487917fffffffffffffffffffffffffffffffffffffffff0000000000000000000000009060549492845260601b16602083015260348201520190565b519020613ee1565b9060005b818110613ffb575050613f37565b6140198888613f6f61095b61095687614014888b6128b9565b613ee1565b90916001600160a01b03811661403457505050600101613fed565b9b919a5098509650505050505050565b50801515613f32565b5061405783611003565b60028314613f2c565b5061406a81611003565b801515613f08565b601254680100000000000000008110156102235780600161409892016012556012611dc0565b91909161416e57610100816140d56140b9600794516001600160a01b031690565b85906001600160a01b03166001600160a01b0319825416179055565b61412b6140e56020830151151590565b85547fffffffffffffffffffffff00ffffffffffffffffffffffffffffffffffffffff1690151560a01b74ff000000000000000000000000000000000000000016178555565b60408101516001850155606081015160028501556080810151600385015560a0810151600485015560c0810151600585015560e081015160068501550151910155565b6120ad565b60ff6000199116019060ff82116116f057565b6141e5916141d76141c86141dd939695966141c26001600160a01b0360135460081c166001600160a01b03166000526016602052604060002090565b90610303565b916141d281612b6e565b614173565b9061033f565b509183612591565b6001549081156125c4570490805482018092116116f05760019181550180549182018092116116f05755565b6142499293506141c86141d7916141c26001600160a01b0360135460081c166001600160a01b03166000526016602052604060002090565b50600181019182548082116142975780820361426a57505090600080925555565b8254906142778383612591565b81156125c4570481039081116116f05761429392558254612055565b9055565b606460405162461bcd60e51b815260206004820152601c60248201527f736861726520616d6f756e7420697320696e73756666696369656e74000000006044820152fd5b9081602091031261001557516104e581611af7565b90816020910312610015575190565b604d81116116f057600a0a90565b6143256108876108876005546001600160a01b031690565b6040519163313ce56760e01b8352602083600481855afa908115613bcb57614398936000926143fe575b506020919260405180809681947f70a08231000000000000000000000000000000000000000000000000000000008352600483019190916001600160a01b036020820193169052565b03915afa918215613bcb5760ff6143c26104e5946143c9936000916143cf575b5060015490612591565b92166142ff565b906125ba565b6143f1915060203d6020116143f7575b6143e98183610228565b8101906142f0565b386143b8565b503d6143df565b6020925061442190833d8511614427575b6144198183610228565b8101906142db565b9161434f565b503d61440f565b9261443c90929192846152cc565b9283614449575b50505050565b614510936000809493613dee8295613de07fffffffff00000000000000000000000000000000000000000000000000000000602560405161448b606082610228565b8181527f7432353629000000000000000000000000000000000000000000000000000000604060208301927f7472616e7366657246726f6d28616464726573732c616464726573732c75696e8452015220169560405194859360208501988952602485016001600160a01b036040929594938160608401971683521660208201520152565b38808080614443565b33600052600c60205260ff604060002054161561453257565b33600052600c6020526040600020600160ff19825416179055600b54680100000000000000008110156102235760018101600b55600b5481101561035357600b6000527f0175b7a638427703f0dbe7bb9bbf987a2551717b34e79f33b5b1008d1fa01db90180546001600160a01b031916331790556145c960086126e8336001600160a01b03166000526010602052604060002090565b61025b336126af336001600160a01b03166000526010602052604060002090565b6001546145f691612591565b6145fe615265565b9081156125c4570490565b6146216108876108876005546001600160a01b031690565b6040519063313ce56760e01b8252602082600481845afa908115613bcb57614398926000926146a6575b506020906146616006546001600160a01b031690565b9060405180809681947f70a08231000000000000000000000000000000000000000000000000000000008352600483019190916001600160a01b036020820193169052565b60209192506146c190823d8411614427576144198183610228565b919061464b565b805480156122275760001901906146df82826121a4565b60001982549160031b1b1916905555565b90600182019061471061112f61191b838590600052602052604060002090565b6147d65782549060005b82811061472b575050505050600090565b8161474361473983886121a4565b90549060031b1c90565b146147505760010161471a565b9492909193945b61476085612046565b8110156147af576001816147a761478561473961477f614760966128ab565b8b6121a4565b61478f838b6121a4565b90919060001983549160031b92831b921b1916179055565b019050614757565b506147d193506147c26108d493956146c8565b90600052602052604060002090565b600190565b505050600090565b909161483f906147fc6108876108876008546001600160a01b031690565b6000600185019182549060405180809781947f82fd5bac000000000000000000000000000000000000000000000000000000008352600483019190602083019252565b03915afa928315613bcb57600093614d20575b50601354600360ff821661486581611003565b1480614d14575b80614ce8575b614915575b5050506148e2925061489082546001600160a01b031690565b6001600160a01b036148b16108876013546001600160a01b039060081c1690565b9116146148e7575b507fffffffffffffffffffffff00ffffffffffffffffffffffffffffffffffffffff8154169055565b600090565b8060a061490f9201519060208101516148ff81612b6e565b60e0600286015492015192614211565b386148b9565b6001600160a01b03919060081c8216956149456107fd886001600160a01b03166000526010602052604060002090565b96600161498761496d84836114e0866001600160a01b03166000526010602052604060002090565b926001600160a01b03166000526010602052604060002090565b015560135460081c6001600160a01b031660026149bf61496d84836114e0866001600160a01b03166000526010602052604060002090565b015560135460081c6001600160a01b03169360028701926149e28285548861532c565b979196909616614a1b5750505050505050614a136148e2936109c661062e6013546001600160a01b039060081c1690565b388080614877565b614a4291929497939699509794976001600160a01b03166000526010602052604060002090565b9060038201918989845490614a56916128b9565b90614a60916128b9565b835560048101938a855490614a74916128b9565b855560028201928b8b855490614a8991612055565b90614a9391612055565b84558a60038901558b60048901558254614ab3906001600160a01b031690565b8854600b60058b01556001600160a01b03919091167fffffffffffffffffffffff00000000000000000000000000000000000000000090911617740100000000000000000000000000000000000000001788555b86600689015560a08201516020830151614b2081612b6e565b8b549360e00193845191614b3393614186565b549889614b4a816000526017602052604060002090565b54614b5490612046565b9c8d9954614b68906001600160a01b031690565b92549351604080519384526001600160a01b038516602085015283018590526060830152608082019d909d5260a081019b909b5260c08b019b909b52600360e08b015299987f5e16b3b6e0a15f63fe16c5b5705c03147211e204ce01e5197d2a699c087e167b9061010090a16001015490549154925460135460081c6001600160a01b0316614c0a906001600160a01b0316600052600f602052604060002090565b54604080516001600160a01b038c16815260208101949094528301939093526060820193909352608081019290925260a0820152600360c08201527f9a5787718e945183fe431d089b46b9ee2c5cd3ffbb79ca1a9b117fc29b31c6aa9060e090a1604051958695614cbf95879293610100946001600160a01b036005979399989461012087019a8752166020860152604085015260608401526080830152600060a083015260c0820152600160e08201520152565b037fa9fda2d0d572da79a3bb128a2cd337112b06538bd638e802d7f392879dde36a891a1600190565b5084546001600160a01b03166001600160a01b03614d0b600884901c8216610887565b91161415614872565b5060005460ff1661486c565b614d3491933d8091833e613bbd8183610228565b9138614852565b9091614d59906147fc6108876108876008546001600160a01b031690565b03915afa928315613bcb57600093614fb5575b50601354600360ff8216614d7f81611003565b1480614fa9575b80614f7d575b614da9575050506148e2925061489082546001600160a01b031690565b6001600160a01b03919060081c821695614dd96107fd886001600160a01b03166000526010602052604060002090565b966001614e0161496d84836114e0866001600160a01b03166000526010602052604060002090565b015560135460081c6001600160a01b03166002614e3961496d84836114e0866001600160a01b03166000526010602052604060002090565b015560135460081c6001600160a01b0316936002870192614e5c8285548861532c565b979196909616614e8d5750505050505050614a136148e2936109c661062e6013546001600160a01b039060081c1690565b614eb491929497939699509794976001600160a01b03166000526010602052604060002090565b9060038201918989845490614ec8916128b9565b90614ed2916128b9565b835560048101938a855490614ee6916128b9565b855560028201928b8b855490614efb91612055565b90614f0591612055565b84558a60038901558b60048901558254614f25906001600160a01b031690565b8854600c60058b01556001600160a01b03919091167fffffffffffffffffffffff0000000000000000000000000000000000000000009091161774010000000000000000000000000000000000000000178855614b07565b5084546001600160a01b03166001600160a01b03614fa0600884901c8216610887565b91161415614d8c565b5060005460ff16614d86565b614fc991933d8091833e613bbd8183610228565b9138614d6c565b9091614fee906147fc6108876108876008546001600160a01b031690565b03915afa928315613bcb5760009361524a575b50601354600360ff821661501481611003565b148061523e575b80615212575b61503e575050506148e2925061489082546001600160a01b031690565b6001600160a01b03919060081c82169561506e6107fd886001600160a01b03166000526010602052604060002090565b96600161509661496d84836114e0866001600160a01b03166000526010602052604060002090565b015560135460081c6001600160a01b031660026150ce61496d84836114e0866001600160a01b03166000526010602052604060002090565b015560135460081c6001600160a01b03169360028701926150f18285548861532c565b9791969096166151225750505050505050614a136148e2936109c661062e6013546001600160a01b039060081c1690565b61514991929497939699509794976001600160a01b03166000526010602052604060002090565b906003820191898984549061515d916128b9565b90615167916128b9565b835560048101938a85549061517b916128b9565b855560028201928b8b85549061519091612055565b9061519a91612055565b84558a60038901558b600489015582546151ba906001600160a01b031690565b8854600d60058b01556001600160a01b03919091167fffffffffffffffffffffff0000000000000000000000000000000000000000009091161774010000000000000000000000000000000000000000178855614b07565b5084546001600160a01b03166001600160a01b03615235600884901c8216610887565b91161415615021565b5060005460ff1661501b565b61525e91933d8091833e613bbd8183610228565b9138615001565b600460206001600160a01b0360095416604051928380927f3b1e6a590000000000000000000000000000000000000000000000000000000082525afa908115613bcb576000916152b3575090565b6104e5915060203d6020116143f7576143e98183610228565b9060206001600160a01b039260046040518095819363313ce56760e01b8352165afa8015613bcb5760ff613cd391613cd99460009161530d575b50166142ff565b615326915060203d602011614427576144198183610228565b38615306565b91909161534f6107fd826001600160a01b03166000526010602052604060002090565b9161535e610120840151151590565b61540d5760409060a084018051156000146153f6575061538d612fdc6153848388612591565b60025490612591565b945b60c0850180516153d857506153aa6153b392612fdc92612591565b60045490612591565b925b01516153c183856128b9565b11156153d557505050600090600090600090565b92565b6153e86153f093612fdc93612591565b905190612591565b926153b5565b612fdc615407916153e88489612591565b9461538f565b50505050600090600090600090565b9081549168010000000000000000831015610223578261478f91600161025b950181556121a4565b80156116f0576000190190565b919060018301816000528060205260ff6040600020541661551e57600084545b8082106154dc5750615483838661541c565b61548d8554612046565b8181116154ac5750906147c28361478f611a3095946147d197986121a4565b806154d26154c86147396154c26154d795612046565b8a6121a4565b61478f838a6121a4565b615444565b61548d565b908181018082116116f05760011c90846154f683896121a4565b90549060031b1c106000146155175750600181018091116116f05790615471565b9150615471565b506000925050565b60ff7ff0c57e16840df040f15088dc2f81fe391c3923bec73e23a9662efc9c229c6a005460401c161561555557565b7fd7e6bcf80000000000000000000000000000000000000000000000000000000060005260046000fdfea26469706673582212208b473c3d2005e5b7cbc89efac021c77afc817f0cdfb4147b44fb1c47282d68e164736f6c634300081c0033",
  "linkReferences": {},
  "deployedLinkReferences": {}
}