{
  "_format": "hh-sol-artifact-1",
  "contractName": "PrivatePool",
  "sourceName": "contracts/PrivatePool.sol",
  "abi": [
    {
      "inputs": [],
      "name": "InvalidInitialization",
      "type": "error"
    },
    {
      "inputs": [],
      "name": "NotInitializing",
      "type": "error"
    },
    {
      "inputs": [
        {
          "internalType": "address",
          "name": "owner",
          "type": "address"
        }
      ],
      "name": "OwnableInvalidOwner",
      "type": "error"
    },
    {
      "inputs": [
        {
          "internalType": "address",
          "name": "account",
          "type": "address"
        }
      ],
      "name": "OwnableUnauthorizedAccount",
      "type": "error"
    },
    {
      "anonymous": false,
      "inputs": [
        {
          "indexed": true,
          "internalType": "address",
          "name": "account",
          "type": "address"
        },
        {
          "indexed": true,
          "internalType": "address",
          "name": "token",
          "type": "address"
        },
        {
          "indexed": false,
          "internalType": "uint256",
          "name": "orderID",
          "type": "uint256"
        },
        {
          "indexed": false,
          "internalType": "uint256",
          "name": "amount",
          "type": "uint256"
        },
        {
          "indexed": false,
          "internalType": "uint256",
          "name": "margin",
          "type": "uint256"
        }
      ],
      "name": "AddMargin",
      "type": "event"
    },
    {
      "anonymous": false,
      "inputs": [
        {
          "indexed": false,
          "internalType": "address",
          "name": "maker",
          "type": "address"
        },
        {
          "indexed": false,
          "internalType": "uint256",
          "name": "amount",
          "type": "uint256"
        },
        {
          "indexed": false,
          "internalType": "uint256",
          "name": "availableAmount",
          "type": "uint256"
        },
        {
          "indexed": false,
          "internalType": "uint256",
          "name": "lockedAmount",
          "type": "uint256"
        },
        {
          "indexed": false,
          "internalType": "uint256",
          "name": "maintenanceMargin",
          "type": "uint256"
        },
        {
          "indexed": false,
          "internalType": "uint256",
          "name": "share",
          "type": "uint256"
        },
        {
          "indexed": false,
          "internalType": "uint256",
          "name": "flag",
          "type": "uint256"
        }
      ],
      "name": "BalanceOfMaker",
      "type": "event"
    },
    {
      "anonymous": false,
      "inputs": [
        {
          "indexed": false,
          "internalType": "uint256",
          "name": "dealID",
          "type": "uint256"
        },
        {
          "indexed": false,
          "internalType": "address",
          "name": "maker",
          "type": "address"
        },
        {
          "indexed": false,
          "internalType": "uint256",
          "name": "size",
          "type": "uint256"
        },
        {
          "indexed": false,
          "internalType": "uint256",
          "name": "price",
          "type": "uint256"
        },
        {
          "indexed": false,
          "internalType": "uint256",
          "name": "makerID",
          "type": "uint256"
        },
        {
          "indexed": false,
          "internalType": "uint256",
          "name": "makerGain",
          "type": "uint256"
        },
        {
          "indexed": false,
          "internalType": "uint256",
          "name": "makerLoss",
          "type": "uint256"
        },
        {
          "indexed": false,
          "internalType": "uint256",
          "name": "closeFlag",
          "type": "uint256"
        },
        {
          "indexed": false,
          "internalType": "uint256",
          "name": "flag",
          "type": "uint256"
        }
      ],
      "name": "CloseMakerDealInPool",
      "type": "event"
    },
    {
      "anonymous": false,
      "inputs": [
        {
          "indexed": false,
          "internalType": "uint64",
          "name": "version",
          "type": "uint64"
        }
      ],
      "name": "Initialized",
      "type": "event"
    },
    {
      "anonymous": false,
      "inputs": [
        {
          "indexed": false,
          "internalType": "uint256",
          "name": "dealID",
          "type": "uint256"
        },
        {
          "indexed": false,
          "internalType": "address",
          "name": "maker",
          "type": "address"
        },
        {
          "indexed": false,
          "internalType": "uint256",
          "name": "value",
          "type": "uint256"
        },
        {
          "indexed": false,
          "internalType": "uint256",
          "name": "price",
          "type": "uint256"
        },
        {
          "indexed": false,
          "internalType": "uint256",
          "name": "makerID",
          "type": "uint256"
        },
        {
          "indexed": false,
          "internalType": "uint256",
          "name": "marginAmount",
          "type": "uint256"
        },
        {
          "indexed": false,
          "internalType": "uint256",
          "name": "maintenanceMargin",
          "type": "uint256"
        }
      ],
      "name": "LockInPrivatePool",
      "type": "event"
    },
    {
      "anonymous": false,
      "inputs": [
        {
          "indexed": false,
          "internalType": "uint256",
          "name": "dealID",
          "type": "uint256"
        },
        {
          "indexed": false,
          "internalType": "address",
          "name": "maker",
          "type": "address"
        },
        {
          "indexed": false,
          "internalType": "uint256",
          "name": "size",
          "type": "uint256"
        },
        {
          "indexed": false,
          "internalType": "uint256",
          "name": "price",
          "type": "uint256"
        },
        {
          "indexed": false,
          "internalType": "uint256",
          "name": "makerID",
          "type": "uint256"
        },
        {
          "indexed": false,
          "internalType": "uint256",
          "name": "marginAmount",
          "type": "uint256"
        },
        {
          "indexed": false,
          "internalType": "uint256",
          "name": "maintenanceMargin",
          "type": "uint256"
        },
        {
          "indexed": false,
          "internalType": "uint256",
          "name": "flag",
          "type": "uint256"
        }
      ],
      "name": "LockPoolMargin",
      "type": "event"
    },
    {
      "anonymous": false,
      "inputs": [
        {
          "indexed": true,
          "internalType": "address",
          "name": "previousOwner",
          "type": "address"
        },
        {
          "indexed": true,
          "internalType": "address",
          "name": "newOwner",
          "type": "address"
        }
      ],
      "name": "OwnershipTransferred",
      "type": "event"
    },
    {
      "anonymous": false,
      "inputs": [
        {
          "indexed": true,
          "internalType": "address",
          "name": "account",
          "type": "address"
        },
        {
          "indexed": true,
          "internalType": "address",
          "name": "token",
          "type": "address"
        },
        {
          "indexed": false,
          "internalType": "uint256",
          "name": "amount",
          "type": "uint256"
        },
        {
          "indexed": false,
          "internalType": "uint256",
          "name": "poolType",
          "type": "uint256"
        }
      ],
      "name": "Provide",
      "type": "event"
    },
    {
      "anonymous": false,
      "inputs": [
        {
          "indexed": false,
          "internalType": "address",
          "name": "sender",
          "type": "address"
        },
        {
          "indexed": false,
          "internalType": "address",
          "name": "received",
          "type": "address"
        },
        {
          "indexed": false,
          "internalType": "enum ICommon.TransactionType",
          "name": "transactionType",
          "type": "uint8"
        },
        {
          "indexed": false,
          "internalType": "uint256",
          "name": "amount",
          "type": "uint256"
        },
        {
          "indexed": false,
          "internalType": "uint256",
          "name": "timestamp",
          "type": "uint256"
        }
      ],
      "name": "TransferFee",
      "type": "event"
    },
    {
      "anonymous": false,
      "inputs": [
        {
          "indexed": true,
          "internalType": "address",
          "name": "account",
          "type": "address"
        },
        {
          "indexed": true,
          "internalType": "address",
          "name": "token",
          "type": "address"
        },
        {
          "indexed": false,
          "internalType": "uint256",
          "name": "amount",
          "type": "uint256"
        },
        {
          "indexed": false,
          "internalType": "uint256",
          "name": "poolType",
          "type": "uint256"
        }
      ],
      "name": "Withdraw",
      "type": "event"
    },
    {
      "anonymous": false,
      "inputs": [
        {
          "indexed": false,
          "internalType": "address",
          "name": "sender",
          "type": "address"
        },
        {
          "indexed": false,
          "internalType": "uint256",
          "name": "beforeLeverage",
          "type": "uint256"
        },
        {
          "indexed": false,
          "internalType": "uint256",
          "name": "afterLeverage",
          "type": "uint256"
        }
      ],
      "name": "setLeverage",
      "type": "event"
    },
    {
      "stateMutability": "nonpayable",
      "type": "fallback"
    },
    {
      "inputs": [
        {
          "internalType": "uint256",
          "name": "_dealID",
          "type": "uint256"
        },
        {
          "internalType": "uint256",
          "name": "_amount",
          "type": "uint256"
        }
      ],
      "name": "addMarginAmount",
      "outputs": [],
      "stateMutability": "nonpayable",
      "type": "function"
    },
    {
      "inputs": [
        {
          "internalType": "uint256",
          "name": "_dealID",
          "type": "uint256"
        },
        {
          "internalType": "uint256",
          "name": "_profit",
          "type": "uint256"
        }
      ],
      "name": "checkMarginRisk",
      "outputs": [
        {
          "internalType": "bool",
          "name": "isRisk",
          "type": "bool"
        }
      ],
      "stateMutability": "view",
      "type": "function"
    },
    {
      "inputs": [
        {
          "internalType": "uint256",
          "name": "_id",
          "type": "uint256"
        },
        {
          "internalType": "uint8",
          "name": "_type",
          "type": "uint8"
        },
        {
          "internalType": "uint256",
          "name": "_profit",
          "type": "uint256"
        },
        {
          "internalType": "uint256",
          "name": "_loss",
          "type": "uint256"
        },
        {
          "internalType": "uint256",
          "name": "_amount",
          "type": "uint256"
        },
        {
          "internalType": "uint256",
          "name": "_price",
          "type": "uint256"
        },
        {
          "internalType": "bool",
          "name": "_transform",
          "type": "bool"
        }
      ],
      "name": "close",
      "outputs": [
        {
          "internalType": "uint256",
          "name": "makerProfit",
          "type": "uint256"
        },
        {
          "internalType": "uint256",
          "name": "makerLoss",
          "type": "uint256"
        },
        {
          "internalType": "bool",
          "name": "isLiquidated",
          "type": "bool"
        },
        {
          "internalType": "bool",
          "name": "isAgreement",
          "type": "bool"
        }
      ],
      "stateMutability": "nonpayable",
      "type": "function"
    },
    {
      "inputs": [],
      "name": "escrowAccount",
      "outputs": [
        {
          "internalType": "address",
          "name": "",
          "type": "address"
        }
      ],
      "stateMutability": "view",
      "type": "function"
    },
    {
      "inputs": [
        {
          "internalType": "uint256",
          "name": "_start",
          "type": "uint256"
        },
        {
          "internalType": "uint256",
          "name": "_end",
          "type": "uint256"
        },
        {
          "internalType": "uint256",
          "name": "_count",
          "type": "uint256"
        }
      ],
      "name": "getActiveDeals",
      "outputs": [
        {
          "components": [
            {
              "internalType": "address",
              "name": "makerAddr",
              "type": "address"
            },
            {
              "internalType": "bool",
              "name": "locked",
              "type": "bool"
            },
            {
              "internalType": "uint256",
              "name": "takerId",
              "type": "uint256"
            },
            {
              "internalType": "uint256",
              "name": "size",
              "type": "uint256"
            },
            {
              "internalType": "uint256",
              "name": "marginAmount",
              "type": "uint256"
            },
            {
              "internalType": "uint256",
              "name": "maintenanceMargin",
              "type": "uint256"
            },
            {
              "internalType": "uint256",
              "name": "pubPriFlag",
              "type": "uint256"
            },
            {
              "internalType": "uint256",
              "name": "movePrice",
              "type": "uint256"
            },
            {
              "internalType": "uint256",
              "name": "time",
              "type": "uint256"
            }
          ],
          "internalType": "struct IPool.MakerDeal[]",
          "name": "info",
          "type": "tuple[]"
        },
        {
          "internalType": "uint256[]",
          "name": "ids",
          "type": "uint256[]"
        },
        {
          "internalType": "uint256",
          "name": "end",
          "type": "uint256"
        }
      ],
      "stateMutability": "view",
      "type": "function"
    },
    {
      "inputs": [
        {
          "internalType": "address",
          "name": "maker",
          "type": "address"
        }
      ],
      "name": "getLP2Account",
      "outputs": [
        {
          "components": [
            {
              "internalType": "address payable",
              "name": "holder",
              "type": "address"
            },
            {
              "internalType": "uint256",
              "name": "amount",
              "type": "uint256"
            },
            {
              "internalType": "uint256",
              "name": "availableAmount",
              "type": "uint256"
            },
            {
              "internalType": "uint256",
              "name": "lockedAmount",
              "type": "uint256"
            },
            {
              "internalType": "uint256",
              "name": "maintenanceMargin",
              "type": "uint256"
            },
            {
              "internalType": "uint256",
              "name": "leverage",
              "type": "uint256"
            },
            {
              "internalType": "uint256",
              "name": "maintenanceMarginRate",
              "type": "uint256"
            },
            {
              "internalType": "uint256",
              "name": "addMarginRate",
              "type": "uint256"
            },
            {
              "internalType": "bool",
              "name": "autoAddMargin",
              "type": "bool"
            },
            {
              "internalType": "bool",
              "name": "isRejectOrder",
              "type": "bool"
            }
          ],
          "internalType": "struct IPool.LP2Account",
          "name": "",
          "type": "tuple"
        }
      ],
      "stateMutability": "view",
      "type": "function"
    },
    {
      "inputs": [],
      "name": "getLeverage",
      "outputs": [
        {
          "internalType": "uint256",
          "name": "",
          "type": "uint256"
        }
      ],
      "stateMutability": "view",
      "type": "function"
    },
    {
      "inputs": [],
      "name": "getMakerAddresses",
      "outputs": [
        {
          "internalType": "address[]",
          "name": "",
          "type": "address[]"
        }
      ],
      "stateMutability": "view",
      "type": "function"
    },
    {
      "inputs": [
        {
          "internalType": "uint256",
          "name": "makerDealID",
          "type": "uint256"
        }
      ],
      "name": "getMakerDeal",
      "outputs": [
        {
          "components": [
            {
              "internalType": "address",
              "name": "makerAddr",
              "type": "address"
            },
            {
              "internalType": "bool",
              "name": "locked",
              "type": "bool"
            },
            {
              "internalType": "uint256",
              "name": "takerId",
              "type": "uint256"
            },
            {
              "internalType": "uint256",
              "name": "size",
              "type": "uint256"
            },
            {
              "internalType": "uint256",
              "name": "marginAmount",
              "type": "uint256"
            },
            {
              "internalType": "uint256",
              "name": "maintenanceMargin",
              "type": "uint256"
            },
            {
              "internalType": "uint256",
              "name": "pubPriFlag",
              "type": "uint256"
            },
            {
              "internalType": "uint256",
              "name": "movePrice",
              "type": "uint256"
            },
            {
              "internalType": "uint256",
              "name": "time",
              "type": "uint256"
            }
          ],
          "internalType": "struct IPool.MakerDeal",
          "name": "",
          "type": "tuple"
        }
      ],
      "stateMutability": "view",
      "type": "function"
    },
    {
      "inputs": [
        {
          "internalType": "uint256[]",
          "name": "_ids",
          "type": "uint256[]"
        }
      ],
      "name": "getMakerDeals",
      "outputs": [
        {
          "components": [
            {
              "internalType": "address",
              "name": "makerAddr",
              "type": "address"
            },
            {
              "internalType": "bool",
              "name": "locked",
              "type": "bool"
            },
            {
              "internalType": "uint256",
              "name": "takerId",
              "type": "uint256"
            },
            {
              "internalType": "uint256",
              "name": "size",
              "type": "uint256"
            },
            {
              "internalType": "uint256",
              "name": "marginAmount",
              "type": "uint256"
            },
            {
              "internalType": "uint256",
              "name": "maintenanceMargin",
              "type": "uint256"
            },
            {
              "internalType": "uint256",
              "name": "pubPriFlag",
              "type": "uint256"
            },
            {
              "internalType": "uint256",
              "name": "movePrice",
              "type": "uint256"
            },
            {
              "internalType": "uint256",
              "name": "time",
              "type": "uint256"
            }
          ],
          "internalType": "struct IPool.MakerDeal[]",
          "name": "deals",
          "type": "tuple[]"
        }
      ],
      "stateMutability": "view",
      "type": "function"
    },
    {
      "inputs": [],
      "name": "getMakerDealsLength",
      "outputs": [
        {
          "internalType": "uint256",
          "name": "lpLen",
          "type": "uint256"
        }
      ],
      "stateMutability": "view",
      "type": "function"
    },
    {
      "inputs": [
        {
          "internalType": "address",
          "name": "maker",
          "type": "address"
        }
      ],
      "name": "getMakerUserDeals",
      "outputs": [
        {
          "internalType": "uint256[]",
          "name": "",
          "type": "uint256[]"
        }
      ],
      "stateMutability": "view",
      "type": "function"
    },
    {
      "inputs": [],
      "name": "getShareAddresses",
      "outputs": [
        {
          "internalType": "address[]",
          "name": "",
          "type": "address[]"
        }
      ],
      "stateMutability": "view",
      "type": "function"
    },
    {
      "inputs": [
        {
          "internalType": "address",
          "name": "initialOwner",
          "type": "address"
        },
        {
          "internalType": "address",
          "name": "_tokenAddress",
          "type": "address"
        },
        {
          "internalType": "address",
          "name": "_riskFundAddr",
          "type": "address"
        }
      ],
      "name": "initialize",
      "outputs": [],
      "stateMutability": "nonpayable",
      "type": "function"
    },
    {
      "inputs": [
        {
          "internalType": "uint256",
          "name": "",
          "type": "uint256"
        }
      ],
      "name": "matchIds",
      "outputs": [
        {
          "internalType": "uint256",
          "name": "",
          "type": "uint256"
        }
      ],
      "stateMutability": "view",
      "type": "function"
    },
    {
      "inputs": [
        {
          "internalType": "string",
          "name": "_name",
          "type": "string"
        },
        {
          "internalType": "uint256",
          "name": "_id",
          "type": "uint256"
        },
        {
          "internalType": "uint256",
          "name": "_amount",
          "type": "uint256"
        },
        {
          "internalType": "uint256",
          "name": "_tradingFee",
          "type": "uint256"
        },
        {
          "internalType": "uint256",
          "name": "_price",
          "type": "uint256"
        },
        {
          "internalType": "enum ICommon.Direct",
          "name": "_direction",
          "type": "uint8"
        }
      ],
      "name": "matchOrder",
      "outputs": [
        {
          "internalType": "bool",
          "name": "success",
          "type": "bool"
        },
        {
          "internalType": "uint256",
          "name": "remaining",
          "type": "uint256"
        }
      ],
      "stateMutability": "nonpayable",
      "type": "function"
    },
    {
      "inputs": [],
      "name": "owner",
      "outputs": [
        {
          "internalType": "address",
          "name": "",
          "type": "address"
        }
      ],
      "stateMutability": "view",
      "type": "function"
    },
    {
      "inputs": [],
      "name": "poolType",
      "outputs": [
        {
          "internalType": "enum ICommon.PoolFlag",
          "name": "",
          "type": "uint8"
        }
      ],
      "stateMutability": "view",
      "type": "function"
    },
    {
      "inputs": [
        {
          "internalType": "address",
          "name": "",
          "type": "address"
        },
        {
          "internalType": "string",
          "name": "",
          "type": "string"
        },
        {
          "internalType": "uint256",
          "name": "",
          "type": "uint256"
        }
      ],
      "name": "positions",
      "outputs": [
        {
          "internalType": "uint256",
          "name": "value",
          "type": "uint256"
        },
        {
          "internalType": "uint256",
          "name": "size",
          "type": "uint256"
        }
      ],
      "stateMutability": "view",
      "type": "function"
    },
    {
      "inputs": [],
      "name": "privateMinMintAmount",
      "outputs": [
        {
          "internalType": "uint256",
          "name": "",
          "type": "uint256"
        }
      ],
      "stateMutability": "view",
      "type": "function"
    },
    {
      "inputs": [
        {
          "internalType": "uint256",
          "name": "_amount",
          "type": "uint256"
        },
        {
          "internalType": "uint256",
          "name": "_priOrPub",
          "type": "uint256"
        }
      ],
      "name": "provide",
      "outputs": [],
      "stateMutability": "nonpayable",
      "type": "function"
    },
    {
      "inputs": [],
      "name": "renounceOwnership",
      "outputs": [],
      "stateMutability": "nonpayable",
      "type": "function"
    },
    {
      "inputs": [],
      "name": "setDefaultLeverage",
      "outputs": [],
      "stateMutability": "nonpayable",
      "type": "function"
    },
    {
      "inputs": [
        {
          "internalType": "bool",
          "name": "_flag",
          "type": "bool"
        }
      ],
      "name": "setIsRejectOrder",
      "outputs": [],
      "stateMutability": "nonpayable",
      "type": "function"
    },
    {
      "inputs": [
        {
          "internalType": "address",
          "name": "_perpetual",
          "type": "address"
        },
        {
          "internalType": "address",
          "name": "_orderBook",
          "type": "address"
        },
        {
          "internalType": "address",
          "name": "_tradeAgent",
          "type": "address"
        },
        {
          "internalType": "address",
          "name": "_tradeStation",
          "type": "address"
        },
        {
          "internalType": "address",
          "name": "_keeper",
          "type": "address"
        }
      ],
      "name": "setKeepers",
      "outputs": [],
      "stateMutability": "nonpayable",
      "type": "function"
    },
    {
      "inputs": [
        {
          "internalType": "uint256",
          "name": "_value",
          "type": "uint256"
        }
      ],
      "name": "setPrivateMinMintAmount",
      "outputs": [],
      "stateMutability": "nonpayable",
      "type": "function"
    },
    {
      "inputs": [
        {
          "internalType": "uint256",
          "name": "_leverage",
          "type": "uint256"
        },
        {
          "internalType": "bool",
          "name": "_isRejectOrder",
          "type": "bool"
        },
        {
          "internalType": "bool",
          "name": "_autoAddMargin",
          "type": "bool"
        }
      ],
      "name": "setUserParam",
      "outputs": [],
      "stateMutability": "nonpayable",
      "type": "function"
    },
    {
      "inputs": [],
      "name": "totalLockedLiquidity",
      "outputs": [
        {
          "internalType": "uint256",
          "name": "",
          "type": "uint256"
        }
      ],
      "stateMutability": "view",
      "type": "function"
    },
    {
      "inputs": [
        {
          "internalType": "address",
          "name": "newOwner",
          "type": "address"
        }
      ],
      "name": "transferOwnership",
      "outputs": [],
      "stateMutability": "nonpayable",
      "type": "function"
    },
    {
      "inputs": [
        {
          "internalType": "uint256",
          "name": "_amount",
          "type": "uint256"
        },
        {
          "internalType": "uint256",
          "name": "_priOrPub",
          "type": "uint256"
        }
      ],
      "name": "withdraw",
      "outputs": [],
      "stateMutability": "nonpayable",
      "type": "function"
    }
  ],
  "bytecode": "0x6080806040523460155761561a908161001b8239f35b600080fdfe6080604052600436101561001a575b3461001557005b600080fd5b60003560e01c80630c8c3516146101fa5780631f92a4da146101f557806325737d40146101f057806330288d45146101eb57806336ff6a70146101e6578063441a3e70146101e157806346ceec98146101dc5780634e091b22146101d757806354b3b018146101d257806360d32e8d146101cd578063715018a6146101c8578063728f855e146101c3578063880a1a77146101be5780638da5cb5b146101b95780638e3a0e92146101b4578063a8ece51a146101af578063b1951cfd146101aa578063b1dd61b6146101a5578063baba68de146101a0578063bc1c1c6c1461019b578063c0c53b8b14610196578063c229894214610191578063c23e629f1461018c578063d3c76d6614610187578063e771ad7214610182578063e8c3c54f1461017d578063f26a3e1d14610178578063f2da708d14610173578063f2fde38b1461016e5763f6ef18390361000e57611c27565b611bfa565b611bdc565b611b52565b611893565b611773565b6116f1565b611521565b61149a565b6111ff565b61117f565b611161565b611137565b611025565b611007565b610f89565b610f39565b610ead565b610dc3565b610d20565b610c84565b610c5a565b610c27565b610b00565b6105e3565b6105b7565b61059f565b610508565b610423565b610378565b6001600160a01b0381160361001557565b634e487b7160e01b600052604160045260246000fd5b610140810190811067ffffffffffffffff82111761024357604052565b610210565b90601f601f19910116810190811067ffffffffffffffff82111761024357604052565b6040519061027b61014083610248565b565b6040519061027b61012083610248565b6040519061027b61016083610248565b67ffffffffffffffff811161024357601f01601f191660200190565b81601f82011215610015578035906102d08261029d565b926102de6040519485610248565b8284526020838301011161001557816000926020809301838601378301015290565b60005b8381106103135750506000910152565b8181015183820152602001610303565b60209061033d928260405194838680955193849201610300565b82019081520301902090565b634e487b7160e01b600052603260045260246000fd5b9060028110156103735760011b0190600090565b610349565b3461001557606060031936011261001557600435610395816101ff565b60243567ffffffffffffffff81116100155760206103ba6103e69236906004016102b9565b6001600160a01b0360443594166000526016825260406000208260405194838680955193849201610300565b820190815203019020906002811015610015576104029161035f565b508054600190910154604080519283526020830191909152819081015b0390f35b34610015576000600319360112610015576020601454604051908152f35b67ffffffffffffffff81116102435760051b60200190565b906020808351928381520192019060005b8181106104775750505090565b9091926020610120826104e9600194885161010080916001600160a01b03815116845260208101511515602085015260408101516040850152606081015160608501526080810151608085015260a081015160a085015260c081015160c085015260e081015160e08501520151910152565b01940192910161046a565b906020610505928181520190610459565b90565b346100155760206003193601126100155760043567ffffffffffffffff811161001557366023820112156100155780600401359061054582610441565b916105536040519384610248565b8083526024602084019160051b8301019136831161001557602401905b82821061058f5761041f61058385611eb8565b604051918291826104f4565b8135815260209182019101610570565b34610015576000600319360112610015576064600255005b346100155760206003193601126100155760043560005260176020526020604060002054604051908152f35b34610015576040600319360112610015576024356004358080151580610a51575b61060d90611f09565b61063961061c60135460ff1690565b61062581611128565b8460038214918215610a2b575b5050611f98565b6001830361080d575061064b81613d4d565b600261067f6106666013546001600160a01b039060081c1690565b6001600160a01b03166000526010602052604060002090565b0154821115806107e1575b61069390612035565b336000908152600f602052604090206106ad8382546120a5565b90556013546106dc9060081c6001600160a01b03165b6001600160a01b0316600052600f602052604060002090565b6106e78382546120a5565b905560016107046106666013546001600160a01b039060081c1690565b016107108282546120a5565b905561073960026107306106666013546001600160a01b039060081c1690565b019182546120a5565b9055336000908152600f6020526040902054156107cc575b61076e816107676005546001600160a01b031690565b3390613db9565b7ff341246adaac6f497bc2a656f546ab9e182111d630394f0c57c710a59a2cb5676107c76001600160a01b036107ac6005546001600160a01b031690565b60408051958652602086019690965216933393918291820190565b0390a3005b336000908152600f6020526040812055610751565b50610693610802336001600160a01b0316600052600f602052604060002090565b54831115905061068a565b60028303610a265761083a610835336001600160a01b03166000526010602052604060002090565b611f9f565b906040820161084c8151831115612035565b610868602084019261085f8185516120a5565b845282516120a5565b905260608201511580610a1c575b80610a10575b610a03575b5190816109d957505060005b600b5490818110156109d2576108bf6108cb6108a8836121d9565b9290923393546001600160a01b039160031b1c1690565b6001600160a01b031690565b146108da57600191500161088d565b6108e382612096565b8103610979575b505061091661090c336001600160a01b0316600052600c602052604060002090565b60ff198154169055565b61096c610936336001600160a01b03166000526010602052604060002090565b60086000918281558260018201558260028201558260038201558260048201558260058201558260068201558260078201550155565b610974612222565b610751565b6109ac6109a661099361098e6109cb95612096565b6121d9565b90546001600160a01b039160031b1c1690565b916121d9565b9091906001600160a01b038084549260031b9316831b921b1916179055565b38806108ea565b5050610751565b6109ea6109749260145411156120b2565b336000908152601060205260409020612113565b612113565b8051600082529250610881565b5080516014541161087c565b5080511515610876565b611f54565b909150610a3782611128565b610a4082611128565b610a4981611128565b148438610632565b5061060d610a6e6108bf6013546001600160a01b039060081c1690565b3314159050610604565b61027b9092919261012080610140830195610a9c8482516001600160a01b03169052565b6020810151602085015260408101516040850152606081015160608501526080810151608085015260a081015160a085015260c081015160c085015260e081015160e0850152610af761010082015161010086019015159052565b01511515910152565b34610015576020600319360112610015576001600160a01b03600435610b25816101ff565b6000610120604051610b3681610226565b8281528260208201528260408201528260608201528260808201528260a08201528260c08201528260e082015282610100820152015216600052601060205261041f6040600020610c1b610c116008610b8d61026b565b93610baf610ba282546001600160a01b031690565b6001600160a01b03168652565b60018101546020860152600281015460408601526003810154606086015260048101546080860152600581015460a0860152600681015460c0860152600781015460e08601520154610c0860ff82161515610100860152565b60081c60ff1690565b1515610120830152565b60405191829182610a78565b346100155760206003193601126100155760043533600052600e602052610c5560ff6040600020541661227c565b601455005b346100155760006003193601126100155760206001600160a01b0360135460081c16604051908152f35b3461001557602060031936011261001557610120610cb5610caf600435610ca9611d38565b50611df1565b50611e2c565b610d1e604051809261010080916001600160a01b03815116845260208101511515602085015260408101516040850152606081015160608501526080810151608085015260a081015160a085015260c081015160c085015260e081015160e08501520151910152565bf35b3461001557600060031936011261001557610d39613ebb565b60006001600160a01b037f9016d09d72d40fdae2fd8ceac6b6234c7706214fd39c1cd1e609a0528c199300546001600160a01b031981167f9016d09d72d40fdae2fd8ceac6b6234c7706214fd39c1cd1e609a0528c19930055167f8be0079c531659141344cd1fd0a4f28419497f9722a3daafe3b4186f6b6457e08280a3005b8015150361001557565b3461001557602060031936011261001557600435610de081610db9565b33600052600c60205260ff6040600020541615610e2657610e249033600052601060205260086040600020019061ff001961ff00835492151560081b169116179055565b005b606460405162461bcd60e51b815260206004820152600c60248201527f6e656564206465706f73697400000000000000000000000000000000000000006044820152fd5b602060408183019282815284518094520192019060005b818110610e8e5750505090565b82516001600160a01b0316845260209384019390920191600101610e81565b3461001557600060031936011261001557604051806020600a54918281520190600a6000527fc65a7bb8d6351c1cf70c95a316cc6a92839c986682d98bc35f958f4883f9d2a89060005b818110610f1a5761041f85610f0e81870382610248565b60405191829182610e6a565b82546001600160a01b0316845260209093019260019283019201610ef7565b346100155760006003193601126100155760206001600160a01b037f9016d09d72d40fdae2fd8ceac6b6234c7706214fd39c1cd1e609a0528c1993005416604051908152f35b6003111561001557565b346100155760c06003193601126100155760043567ffffffffffffffff811161001557610fbd610ff39136906004016102b9565b6024356044356084359160a43593610fd485610f7f565b33600052600e602052610fee60ff6040600020541661227c565b6122ed565b604080519215158352602083019190915290f35b34610015576000600319360112610015576020601554604051908152f35b346100155760606003193601126100155760043560243561104581610db9565b6044359061105282610db9565b33600052600c60205260ff60406000205416156110ce576110bc6008610e249461108f336001600160a01b03166000526010602052604060002090565b9061109d60648211156125a0565b600582015501805461ff00191692151560081b61ff0016929092178255565b9060ff60ff1983541691151516179055565b606460405162461bcd60e51b815260206004820152601260248201527f75736572206973206e6f742065786973747300000000000000000000000000006044820152fd5b634e487b7160e01b600052602160045260246000fd5b6005111561113257565b611112565b346100155760006003193601126100155760ff601354166040516005821015611132576020918152f35b34610015576000600319360112610015576020600254604051908152f35b3461001557600060031936011261001557604051806020600b54918281520190600b6000527f0175b7a638427703f0dbe7bb9bbf987a2551717b34e79f33b5b1008d1fa01db99060005b8181106111e05761041f85610f0e81870382610248565b82546001600160a01b03168452602090930192600192830192016111c9565b346100155760606003193601126100155760043561121c816101ff565b60243590611229826101ff565b604435611235816101ff565b7ff0c57e16840df040f15088dc2f81fe391c3923bec73e23a9662efc9c229c6a00549267ffffffffffffffff61128460ff604087901c1615611276565b1590565b9567ffffffffffffffff1690565b168015908161144d575b6001149081611443575b15908161143a575b5061141057611321928461131860017fffffffffffffffffffffffffffffffffffffffffffffffff00000000000000007ff0c57e16840df040f15088dc2f81fe391c3923bec73e23a9662efc9c229c6a005416177ff0c57e16840df040f15088dc2f81fe391c3923bec73e23a9662efc9c229c6a0055565b6113ab57612664565b61132757005b61137c68ff0000000000000000197ff0c57e16840df040f15088dc2f81fe391c3923bec73e23a9662efc9c229c6a0054167ff0c57e16840df040f15088dc2f81fe391c3923bec73e23a9662efc9c229c6a0055565b604051600181527fc7f505b2f371ae2175ee4913f4499e1f2633a7b5936321eed1cdaeb6115181d290602090a1005b61140b6801000000000000000068ff0000000000000000197ff0c57e16840df040f15088dc2f81fe391c3923bec73e23a9662efc9c229c6a005416177ff0c57e16840df040f15088dc2f81fe391c3923bec73e23a9662efc9c229c6a0055565b612664565b7ff92ee8a90000000000000000000000000000000000000000000000000000000060005260046000fd5b905015386112a0565b303b159150611298565b85915061128e565b906020808351928381520192019060005b8181106114735750505090565b8251845260209384019390920191600101611466565b906020610505928181520190611455565b34610015576020600319360112610015576001600160a01b036004356114bf816101ff565b166000526011602052604060002060405190816020825491828152019160005260206000209060005b81811061150b5761041f856114ff81870382610248565b60405191829182611489565b82548452602090930192600192830192016114e8565b346100155760406003193601126100155760243560043561156561155561154783611df1565b50546001600160a01b031690565b6001600160a01b0316331461285c565b611591826002611588336001600160a01b03166000526010602052604060002090565b015410156128a7565b6115b560016115ad6115a284611df1565b505460a01c60ff1690565b1515146128f2565b6115df8260026115d8336001600160a01b03166000526010602052604060002090565b01546120a5565b60026115fe336001600160a01b03166000526010602052604060002090565b015561162a826003611623336001600160a01b03166000526010602052604060002090565b015461294b565b6003611649336001600160a01b03166000526010602052604060002090565b015561166282600361165a84611df1565b50015461294b565b600361166d83611df1565b50015561168461167f8360155461294b565b601555565b7fc8f742aa90a6e6851d2252fa58ed695d3ca295b55bf5f1c2164a360cc8a093e26001600160a01b036116bf6005546001600160a01b031690565b6107c760036116cd86611df1565b50015460405193849316963396846040919493926060820195825260208201520152565b3461001557604060031936011261001557600435602435906000526017602052604060002054906000198201918211611740576080611734610caf602094611df1565b01511115604051908152f35b612080565b93929161176e90611760604093606088526060880190610459565b908682036020880152611455565b930152565b346100155760606003193601126100155760043560243560443581928092600091601254809211611889575b8110611881575b509291926117b382611d8e565b916117bd81610441565b946117cb6040519687610248565b818652601f196117da83610441565b013660208801375b84811080611878575b15611852576117fc6115a282611df1565b61180f575b61180a90612958565b6117e2565b9161184a818461182261180a948a611ddd565b5261182f610caf86611df1565b6118398288611ddd565b526118448187611ddd565b50612958565b929050611801565b85939261041f92810361186d575b5060405193849384611745565b808452845284611860565b508183106117eb565b9250386117a6565b909450849061179f565b346100155760406003193601126100155760043560243590806118f96118f16108bf6013546118e26118c58260ff1690565b6118ce81611128565b8860038214918215611b21575b50506129ab565b60081c6001600160a01b031690565b3314156129b2565b61190230614393565b9061192081303361191b6005546001600160a01b031690565b6144b4565b60018403611a9b575061193a6119489260015411156129fd565b61194330614393565b6120a5565b61197261127261196b336001600160a01b0316600052600d602052604060002090565b5460ff1690565b611a60575b61198081614670565b600161199b6106666013546001600160a01b039060081c1690565b016119a783825461294b565b905560026119c46106666013546001600160a01b039060081c1690565b016119d083825461294b565b90556013546119ea9060081c6001600160a01b03166106c3565b6119f582825461294b565b9055611a1f611a17336001600160a01b0316600052600f602052604060002090565b91825461294b565b90555b7f9675a307d5dddc49aefd66964913e794711b6c69e23cfe1fa44406ab2bbaeae86107c76001600160a01b036107ac6005546001600160a01b031690565b611a8d611a80336001600160a01b0316600052600d602052604060002090565b600160ff19825416179055565b611a9633612a48565b611977565b915060028303611b1c5761193a611ab69260145411156129fd565b611abe61459f565b611b17611ae1610835336001600160a01b03166000526010602052604060002090565b60208101611af084825161294b565b905260408101611b0184825161294b565b9052336000908152601060205260409020612113565b611a22565b612967565b909150611b2d82611128565b611b3682611128565b611b3f81611128565b1488386118db565b60ff81160361001557565b346100155760e06003193601126100155761041f611bb2600435602435611b7881611b47565b6044356064356084359160a4359360c43595611b9387610db9565b33600052600e602052611bad60ff6040600020541661227c565b612c0a565b60408051948552602085019390935290151591830191909152151560608201529081906080820190565b34610015576000600319360112610015576020601254604051908152f35b3461001557602060031936011261001557610e24600435611c1a816101ff565b611c22613ebb565b613c8e565b346100155760a060031936011261001557610e24611a80600435611c4a816101ff565b611d1f611a8060243592611c5d846101ff565b611d1f611a8060443592611c70846101ff565b611cff611a8060643595611c83876101ff565b6001600160a01b036084359a611c988c6101ff565b611ca0613ebb565b16806001600160a01b03196008541617600855600052600e6020526040600020600160ff198254161790556001600160a01b0381166001600160a01b031960095416176009556001600160a01b0316600052600e602052604060002090565b611d1f816001600160a01b03166001600160a01b03196007541617600755565b6001600160a01b0316600052600e602052604060002090565b60405190610120820182811067ffffffffffffffff821117610243576040526000610100838281528260208201528260408201528260608201528260808201528260a08201528260c08201528260e08201520152565b90611d9882610441565b611da56040519182610248565b828152601f19611db58294610441565b019060005b828110611dc657505050565b602090611dd1611d38565b82828501015201611dba565b80518210156103735760209160051b010190565b60125481101561037357601260005260206000209060031b0190600090565b80548210156103735760005260206000209060031b0190600090565b906007611e3761027d565b92611e72611e698254611e60611e53826001600160a01b031690565b6001600160a01b03168852565b60a01c60ff1690565b15156020860152565b600181015460408501526002810154606085015260038101546080850152600481015460a0850152600581015460c0850152600681015460e08501520154610100830152565b908151611ec481611d8e565b9260005b828110611ed457505050565b80611eed610caf611ee760019486611ddd565b51611df1565b611ef78288611ddd565b52611f028187611ddd565b5001611ec8565b15611f1057565b606460405162461bcd60e51b815260206004820152600e60248201527f646f206e6f7420616c6c6f7765640000000000000000000000000000000000006044820152fd5b606460405162461bcd60e51b815260206004820152601360248201527f77726f6e6720776974686472617720666c6167000000000000000000000000006044820152fd5b15611f5457565b9061027b61202b6008611fb061026b565b94611fd2611fc582546001600160a01b031690565b6001600160a01b03168752565b60018101546020870152600281015460408701526003810154606087015260048101546080870152600581015460a0870152600681015460c0870152600781015460e08701520154610c0860ff82161515610100870152565b1515610120840152565b1561203c57565b606460405162461bcd60e51b815260206004820152601060248201527f6c6f7765722074686520616d6f756e74000000000000000000000000000000006044820152fd5b634e487b7160e01b600052601160045260246000fd5b90600019820191821161174057565b9190820391821161174057565b156120b957565b606460405162461bcd60e51b815260206004820152601860248201527f7374617920616d6f756e7420697320746f6f20736d616c6c00000000000000006044820152fd5b634e487b7160e01b600052600060045260246000fd5b906121c3610120600861027b9461215061213486516001600160a01b031690565b82906001600160a01b03166001600160a01b0319825416179055565b6020850151600182015560408501516002820155606085015160038201556080850151600482015560a0850151600582015560c0850151600682015560e0850151600782015501926121bc6121a9610100830151151590565b859060ff60ff1983541691151516179055565b0151151590565b815461ff00191690151560081b61ff0016179055565b600b5481101561037357600b60005260206000200190600090565b80548210156103735760005260206000200190600090565b634e487b7160e01b600052603160045260246000fd5b600b54801561227757600019810190600090600b5483101561037357600b918290527f0175b7a638427703f0dbe7bb9bbf987a2551717b34e79f33b5b1008d1fa01db80180546001600160a01b031916905555565b61220c565b1561228357565b608460405162461bcd60e51b815260206004820152602160248201527f63616c6c6572206973206e6f74207072697661746520706f6f6c206b6565706560448201527f72000000000000000000000000000000000000000000000000000000000000006064820152fd5b92919493906122fc8387613f71565b926001600160a01b038392931693841560001461232157505050505050505060009190565b7f9a5787718e945183fe431d089b46b9ee2c5cd3ffbb79ca1a9b117fc29b31c6aa9392916125589160029b98999a9b918985878d61236e6108bf6013546001600160a01b039060081c1690565b8c14612597575b86868361242d936123b761167f846123b27f5e16b3b6e0a15f63fe16c5b5705c03147211e204ce01e5197d2a699c087e167b9b9a9960155461294b565b61294b565b6123e06123d7876001600160a01b03166000526011602052604060002090565b601254906154b6565b50601254906040519788978b899491926001600160a01b0360e097949a999895929a61010088019b885216602087015260408601526060850152608084015260a083015260c08201520152565b0390a161247e61243b61027d565b6001600160a01b0387168152600160208201528260408201528b60608201528760808201528360a08201528460c08201528c60e0820152426101008201526140f8565b612495601254916000526017602052604060002090565b556124b3846001600160a01b03166000526010602052604060002090565b90600160038301926124ca836123b28a875461294b565b84556124f060048201936124df81865461294b565b8555611943600284019a8b546120a5565b8855015495549154905490612518866001600160a01b0316600052600f602052604060002090565b54926040519788978893909796959260c095926001600160a01b0360e087019a168652602086015260408501526060840152608083015260a08201520152565b0390a16013546125739060081c6001600160a01b03166108bf565b14612585575b50505050600190600090565b61258e9361420c565b38808080612579565b60019650612375565b156125a757565b606460405162461bcd60e51b815260206004820152600c60248201527f6f7574206f6620302d31303000000000000000000000000000000000000000006044820152fd5b9081600a0291600a83040361174057565b908160011b917f7fffffffffffffffffffffffffffffffffffffffffffffffffffffffffffffff81160361174057565b8181029291811591840414171561174057565b634e487b7160e01b600052601260045260246000fd5b811561265f570490565b61263f565b6126cf611a80926001600160a01b036127b49561267f61558b565b61268761558b565b61269033613c8e565b612698613ebb565b6126a185613c8e565b166001600160a01b031960065416176006556001600160a01b03166001600160a01b03196005541617600555565b601380547fffffffffffffffffffffff0000000000000000000000000000000000000000ff163360081b74ffffffffffffffffffffffffffffffffffffffff00161790556013546127689060081c6001600160a01b031661274d6001600160a01b038216916001600160a01b03166000526010602052604060002090565b906001600160a01b03166001600160a01b0319825416179055565b61279460086127866106666013546001600160a01b039060081c1690565b01600160ff19825416179055565b611d1f611a80306001600160a01b0316600052600e602052604060002090565b6127d4611a80336001600160a01b0316600052600e602052604060002090565b6127e6600260ff196013541617601355565b6127f560ff1960005416600055565b612806670de0b6b3a7640000600155565b612817670de0b6b3a7640000601455565b612821600a600255565b61283e6128396128326001546125eb565b6064900490565b600355565b61027b61285761284f6001546125fc565b6103e8900490565b600455565b1561286357565b606460405162461bcd60e51b815260206004820152600960248201527f4e6f74206d616b657200000000000000000000000000000000000000000000006044820152fd5b156128ae57565b606460405162461bcd60e51b815260206004820152601060248201527f45786365656420617661696c61626c65000000000000000000000000000000006044820152fd5b156128f957565b606460405162461bcd60e51b815260206004820152601660248201527f4c6971756964697479207374617475732077726f6e67000000000000000000006044820152fd5b906001820180921161174057565b9190820180921161174057565b60001981146117405760010190565b606460405162461bcd60e51b815260206004820152601260248201527f77726f6e67206465706f73697420666c616700000000000000000000000000006044820152fd5b1561296757565b156129b957565b606460405162461bcd60e51b815260206004820152601860248201527f77616c6c657420697320657363726f77206163636f756e7400000000000000006044820152fd5b15612a0457565b606460405162461bcd60e51b815260206004820152600960248201527f746f6f20736d616c6c00000000000000000000000000000000000000000000006044820152fd5b600a5490680100000000000000008210156102435760018201600a55600a5482101561037357600a6000527fc65a7bb8d6351c1cf70c95a316cc6a92839c986682d98bc35f958f4883f9d2a890910180546001600160a01b0319166001600160a01b03909216919091179055565b519061027b826101ff565b519061027b82610f7f565b5190600682101561001557565b81601f82011215610015578051612aef8161029d565b92612afd6040519485610248565b81845260208284010111610015576105059160208085019101610300565b6020818303126100155780519067ffffffffffffffff82116100155701906101608282031261001557612b4c61028d565b91612b5681612ab6565b8352612b6460208201612ac1565b6020840152612b7560408201612acc565b6040840152612b8660608201612ac1565b60608401526080810151608084015260a081015167ffffffffffffffff81116100155761014092612bb8918301612ad9565b60a084015260c081015160c084015260e081015160e0840152610100810151610100840152610120810151610120840152015161014082015290565b6040513d6000823e3d90fd5b6003111561113257565b9196939092959460009660008098600098612c38612c32886000526017602052604060002090565b54612096565b93612c4285611df1565b5093612c5585546001600160a01b031690565b9860ff612c758b6001600160a01b03166000526010602052604060002090565b9b168015809b819c613c62575b50613b86575b6001141590506133c257505050506003810180549660048301908c612cae83548b61294b565b93600283019a8b5490612cc1828861294b565b841115612eeb575050509c612ce1612cd985836120a5565b8b54906120a5565b90612cea61468f565b90818311612ec4575b505091612d446004612d4e95938561167f96612e94575b506000809d60018301612d248861194383548554906120a5565b90555560038101612d368682546120a5565b9055019182549054906120a5565b90556015546120a5565b612d8482612d7f612d6684546001600160a01b031690565b6001600160a01b03166000526011602052604060002090565b614776565b50612d90838b83615056565b15612da357505050505050600093929190565b90919295949897507fa9fda2d0d572da79a3bb128a2cd337112b06538bd638e802d7f392879dde36a8939650612df788612de56005546001600160a01b031690565b6007546001600160a01b031690613db9565b60019586975b898b839560029360029515612e84575b97612e76969798612e7b575b600188015497546001600160a01b031698604051998a998a95926001600160a01b036101009895929b9a99969361012089019c895216602088015260408701526060860152608085015260a084015260c083015260e08201520152565b0390a1565b60019550612e19565b6002870154975060019450612e0d565b612ebe90612eaa6005546001600160a01b031690565b6006546001600160a01b03165b30916144b4565b38612d0a565b819f5090612ed5919593949561294b565b90612edf916120a5565b9c388094939294612cf3565b86849d949c9b9a9998979c116000146131cb575050805490612f0d828d6120a5565b916008850154612f1d8160ff1690565b90816131b6575b50806131ab575b613035575050509088929160009a809a612f44916120a5565b600183018186825490612f56916120a5565b90612f60916120a5565b9055815490612f6e916120a5565b90556003810183815490612f81916120a5565b90556004019081549054612f94916120a5565b905560155490612fa3916120a5565b60155580546001600160a01b0316600090815260116020526040902082612fc991614776565b50612fd5838c83614dc1565b15612fe95750505050505050600093929190565b91939750919594987fa9fda2d0d572da79a3bb128a2cd337112b06538bd638e802d7f392879dde36a894985061302b90612de56005546001600160a01b031690565b6001958697612dfd565b98509b9d509b50965096505095505061306e61308091600354906007870154806131a1575b5061306990600289015461262c565b61262c565b61307b6001548092612655565b612655565b61308a818861294b565b83541015613158575b506001600160a01b03927fc8f742aa90a6e6851d2252fa58ed695d3ca295b55bf5f1c2164a360cc8a093e294926130cc8860039461294b565b87556130d98882546120a5565b9055016130e786825461294b565b90556130f861167f8660155461294b565b61314961310c82546001600160a01b031690565b9560016131216005546001600160a01b031690565b9301549554908460405195869516981696846040919493926060820195825260208201520152565b0390a360009190600090600090565b927fc8f742aa90a6e6851d2252fa58ed695d3ca295b55bf5f1c2164a360cc8a093e294926130cc6131946001600160a01b03966003959a61294b565b9893505092945092613093565b915061306961305a565b508354831115612f2b565b6131c5915060081c60ff161590565b38612f24565b6008859c969594929401546131e08160ff1690565b90816133ad575b506132df575b5050505061321a600460009a99600181016132098682546120a5565b905560038101612d368682546120a5565b905561322b61167f826015546120a5565b61324383612d7f612d6685546001600160a01b031690565b5061324f848284614864565b15613264575050505050505050600093929190565b7fa9fda2d0d572da79a3bb128a2cd337112b06538bd638e802d7f392879dde36a8969a508b91939599506132ab61302b939599989c612de56005546001600160a01b031690565b6132d96132c06005546001600160a01b031690565b926132d36006546001600160a01b031690565b926120a5565b91613db9565b808d10613391576132f0818e6120a5565b9380851115613307575050505050388080806131ed565b989550985098509a9c509a505061306e91975061333d925060035490600788015480613387575b506130699060028a015461262c565b90613348828961294b565b111561315857506001600160a01b03927fc8f742aa90a6e6851d2252fa58ed695d3ca295b55bf5f1c2164a360cc8a093e294926130cc8860039461294b565b915061306961332e565b5050505050505050505050505091505060009190600090600090565b6133bc915060081c60ff161590565b386131e7565b87949596979d9b9991929c9a98939d156000146137785785547fffffffffffffffffffffff00ffffffffffffffffffffffffffffffffffffffff168655600386019b8c5491613417600489019384549061294b565b94600385016134278782546120a5565b90556004850161343a81548654906120a5565b905561344b61167f876015546120a5565b6134638a612d7f612d668c546001600160a01b031690565b5082156136ac575050809c600284019e8f5461347f818861294b565b8411156135dc57506134d5575b5050509a6000916134cd60017fa9fda2d0d572da79a3bb128a2cd337112b06538bd638e802d7f392879dde36a89a9b9c9d9e019161194383548554906120a5565b905555612dfd565b6134ed92916134e59154906120a5565b9054906120a5565b6134f98d5480926120a5565b9061350261468f565b8083116135ab575b5060017fa9fda2d0d572da79a3bb128a2cd337112b06538bd638e802d7f392879dde36a89a9b9c9d9e9361359c600096946135716134cd956135546005546001600160a01b031690565b906132d961356a6007546001600160a01b031690565b918a61294b565b6005546001600160a01b03165b6006546001600160a01b03166007546001600160a01b0316916144b4565b939e9d9c9b9a5082945061348c565b819e939a9b9c9d508091949250936135c3908361294b565b906135cd9161294b565b9b9a9998919c3893919361350a565b90949293507fa9fda2d0d572da79a3bb128a2cd337112b06538bd638e802d7f392879dde36a89b9c9d9e9f95809250841160001461366357506001839261362a6136389361364197966120a5565b9461364857019182546120a5565b905582546120a5565b9055612dfd565b61365e84612de56005546001600160a01b031690565b610730565b8361194360019597936136759361294b565b9055016136838382546120a5565b9055613690575b50612dfd565b6136a690612de56005546001600160a01b031690565b3861368a565b959e909d509150508315613740577fa9fda2d0d572da79a3bb128a2cd337112b06538bd638e802d7f392879dde36a898999a9b9c9d506123b2600261370c938693613714575b6001810161370185825461294b565b90550193845461294b565b905599612dfd565b61373b8461372a6005546001600160a01b031690565b6007546001600160a01b0316612eb7565b6136f2565b507fa9fda2d0d572da79a3bb128a2cd337112b06538bd638e802d7f392879dde36a89798999a9b92506002613641910191825461294b565b8b9c506137b39a6137bc9c936137928760038a015461262c565b946137a260028a01548097612655565b9d8e9661307b8a60048d015461262c565b9e8f809761294b565b95600386016137cc8882546120a5565b90556137dd600487019182546120a5565b90556137ee61167f876015546120a5565b15613aa3575060028301548e613804828761294b565b101561392857505050816138e191613844613902947fa9fda2d0d572da79a3bb128a2cd337112b06538bd638e802d7f392879dde36a89b9c9d9e9f6120a5565b91613854600283015480946120a5565b9161385d61468f565b80841161391f575b506002906138a06123b294956138836005546001600160a01b031690565b906132d96138996007546001600160a01b031690565b918761294b565b6138b68561357e6005546001600160a01b031690565b600181016138d26138c88583546120a5565b84840154906120a5565b9055600091018190559061294b565b9a6138f360019b5b60038701546120a5565b600386015560048501546120a5565b60048401556139158260028501546120a5565b6002840155612dfd565b92506002613865565b848f95939f116000146139b15750507fa9fda2d0d572da79a3bb128a2cd337112b06538bd638e802d7f392879dde36a898999a9b9c50829161397c613972600193613902966120a5565b60028301546120a5565b60028201550161398d8282546120a5565b90556139a581612de56005546001600160a01b031690565b9a6138f360019b6138e9565b8c859e9511600014613a385750508b9c506139029291613a046139fa7fa9fda2d0d572da79a3bb128a2cd337112b06538bd638e802d7f392879dde36a89b9c9d9e6001946120a5565b600283015461294b565b600282015501613a158d82546120a5565b9055613a2d8c612de56005546001600160a01b031690565b6138f360019b6138e9565b8d60017fa9fda2d0d572da79a3bb128a2cd337112b06538bd638e802d7f392879dde36a89c9d9e939f95613a7a61390298976119436138f398613a9e9761294b565b600282015501613a8b8282546120a5565b90556005546001600160a01b0316612de5565b6138e9565b939e919d509b999a9899989291908215613b435750819d826002830191825490613acc9161294b565b90613ad69161294b565b905560010181815490613ae89161294b565b90556005546001600160a01b031690600754613b0a906001600160a01b031690565b3090613b15936144b4565b7fa9fda2d0d572da79a3bb128a2cd337112b06538bd638e802d7f392879dde36a8966138f3613902926138e9565b9d7fa9fda2d0d572da79a3bb128a2cd337112b06538bd638e802d7f392879dde36a89992509261390293613b7f60026138f3940191825461294b565b90556138e9565b6000613bdd92613ba46108bf6108bf6008546001600160a01b031690565b60405180809681947f82fd5bac000000000000000000000000000000000000000000000000000000008352600483019190602083019252565b03915afa918215613c5d57600192613c2c91600091613c3c575b508b613c3157600289015460c08201525b60a0810151906020810151613c1c81612c00565b60e060c083015192015192614297565b612c88565b8b60c0820152613c08565b613c57913d8091833e613c4f8183610248565b810190612b1b565b38613bf7565b612bf4565b90506001600160a01b03613c856108bf6013546001600160a01b039060081c1690565b91161438612c82565b6001600160a01b03168015613d1e576001600160a01b037f9016d09d72d40fdae2fd8ceac6b6234c7706214fd39c1cd1e609a0528c19930054826001600160a01b03198216177f9016d09d72d40fdae2fd8ceac6b6234c7706214fd39c1cd1e609a0528c19930055167f8be0079c531659141344cd1fd0a4f28419497f9722a3daafe3b4186f6b6457e0600080a3565b7f1e4fbdf700000000000000000000000000000000000000000000000000000000600052600060045260246000fd5b613d5f90613d596152eb565b9061262c565b60015490811561265f570490565b3d15613d98573d90613d7e8261029d565b91613d8c6040519384610248565b82523d6000602084013e565b606090565b90816020910312610015575161050581610db9565b1561001557565b91613dc49083615352565b80613dce57505050565b61027b92600092838093613e74604093613e667fffffffff00000000000000000000000000000000000000000000000000000000601960208851613e128a82610248565b828152017f7472616e7366657228616464726573732c75696e7432353629000000000000008152201695519384926020840197885260248401602090939291936001600160a01b0360408201951681520152565b03601f198101835282610248565b51925af1613e80613d6d565b81613e8c575b50613db2565b8051801592508215613ea1575b505038613e86565b613eb49250602080918301019101613d9d565b3880613e99565b6001600160a01b037f9016d09d72d40fdae2fd8ceac6b6234c7706214fd39c1cd1e609a0528c19930054163303613eee57565b7f118cdaa7000000000000000000000000000000000000000000000000000000006000523360045260246000fd5b15613f2357565b606460405162461bcd60e51b815260206004820152601560248201527f706f6f6c207374617475732069732072656675736500000000000000000000006044820152fd5b811561265f570690565b601354919060ff8316613f8381611128565b6004811415806140e6575b613f9790613f1c565b600b5490613fa481611128565b6003811480159281846140d3575b806140ca575b614015575b50613fc782611128565b91614001575b50613fe057505050600090600090600090565b613ffa9260081c6001600160a01b03166153b2565b6153b2565b9192909190565b6001915061400e81611128565b1438613fcd565b61406f81604051602081019061406781613e6642414487917fffffffffffffffffffffffffffffffffffffffff0000000000000000000000009060549492845260601b16602083015260348201520190565b519020613f67565b9060005b818110614081575050613fbd565b61409f8888613ff561099361098e8761409a888b61294b565b613f67565b90916001600160a01b0381166140ba57505050600101614073565b9b919a5098509650505050505050565b50801515613fb8565b506140dd83611128565b60028314613fb2565b506140f081611128565b801515613f8e565b601254680100000000000000008110156102435780600161411e92016012556012611e10565b9190916141f4576101008161415b61413f600794516001600160a01b031690565b85906001600160a01b03166001600160a01b0319825416179055565b6141b161416b6020830151151590565b85547fffffffffffffffffffffff00ffffffffffffffffffffffffffffffffffffffff1690151560a01b74ff000000000000000000000000000000000000000016178555565b60408101516001850155606081015160028501556080810151600385015560a0810151600485015560c0810151600585015560e081015160068501550151910155565b6120fd565b60ff6000199116019060ff821161174057565b61426b9161425d61424e614263939695966142486001600160a01b0360135460081c166001600160a01b03166000526016602052604060002090565b90610323565b9161425881612c00565b6141f9565b9061035f565b50918361262c565b60015490811561265f570490805482018092116117405760019181550180549182018092116117405755565b6142cf92935061424e61425d916142486001600160a01b0360135460081c166001600160a01b03166000526016602052604060002090565b506001810191825480821161431d578082036142f057505090600080925555565b8254906142fd838361262c565b811561265f5704810390811161174057614319925582546120a5565b9055565b606460405162461bcd60e51b815260206004820152601c60248201527f736861726520616d6f756e7420697320696e73756666696369656e74000000006044820152fd5b90816020910312610015575161050581611b47565b90816020910312610015575190565b604d811161174057600a0a90565b6143ab6108bf6108bf6005546001600160a01b031690565b6040519163313ce56760e01b8352602083600481855afa908115613c5d5761441e93600092614484575b506020919260405180809681947f70a08231000000000000000000000000000000000000000000000000000000008352600483019190916001600160a01b036020820193169052565b03915afa918215613c5d5760ff6144486105059461444f93600091614455575b506001549061262c565b9216614385565b90612655565b614477915060203d60201161447d575b61446f8183610248565b810190614376565b3861443e565b503d614465565b602092506144a790833d85116144ad575b61449f8183610248565b810190614361565b916143d5565b503d614495565b926144c29092919284615352565b92836144cf575b50505050565b614596936000809493613e748295613e667fffffffff000000000000000000000000000000000000000000000000000000006025604051614511606082610248565b8181527f7432353629000000000000000000000000000000000000000000000000000000604060208301927f7472616e7366657246726f6d28616464726573732c616464726573732c75696e8452015220169560405194859360208501988952602485016001600160a01b036040929594938160608401971683521660208201520152565b388080806144c9565b33600052600c60205260ff60406000205416156145b857565b33600052600c6020526040600020600160ff19825416179055600b54680100000000000000008110156102435760018101600b55600b5481101561037357600b6000527f0175b7a638427703f0dbe7bb9bbf987a2551717b34e79f33b5b1008d1fa01db90180546001600160a01b0319163317905561464f6008612786336001600160a01b03166000526010602052604060002090565b61027b3361274d336001600160a01b03166000526010602052604060002090565b60015461467c9161262c565b6146846152eb565b90811561265f570490565b6146a76108bf6108bf6005546001600160a01b031690565b6040519063313ce56760e01b8252602082600481845afa908115613c5d5761441e9260009261472c575b506020906146e76006546001600160a01b031690565b9060405180809681947f70a08231000000000000000000000000000000000000000000000000000000008352600483019190916001600160a01b036020820193169052565b602091925061474790823d84116144ad5761449f8183610248565b91906146d1565b8054801561227757600019019061476582826121f4565b60001982549160031b1b1916905555565b90600182019061479661127261196b838590600052602052604060002090565b61485c5782549060005b8281106147b1575050505050600090565b816147c96147bf83886121f4565b90549060031b1c90565b146147d6576001016147a0565b9492909193945b6147e685612096565b8110156148355760018161482d61480b6147bf6148056147e69661293d565b8b6121f4565b614815838b6121f4565b90919060001983549160031b92831b921b1916179055565b0190506147dd565b50614857935061484861090c939561474e565b90600052602052604060002090565b600190565b505050600090565b90916148c5906148826108bf6108bf6008546001600160a01b031690565b6000600185019182549060405180809781947f82fd5bac000000000000000000000000000000000000000000000000000000008352600483019190602083019252565b03915afa928315613c5d57600093614da6575b50601354600360ff82166148eb81611128565b1480614d9a575b80614d6e575b61499b575b505050614968925061491682546001600160a01b031690565b6001600160a01b036149376108bf6013546001600160a01b039060081c1690565b91161461496d575b507fffffffffffffffffffffff00ffffffffffffffffffffffffffffffffffffffff8154169055565b600090565b8060a061499592015190602081015161498581612c00565b60e0600286015492015192614297565b3861493f565b6001600160a01b03919060081c8216956149cb610835886001600160a01b03166000526010602052604060002090565b966001614a0d6149f38483611623866001600160a01b03166000526010602052604060002090565b926001600160a01b03166000526010602052604060002090565b015560135460081c6001600160a01b03166002614a456149f38483611623866001600160a01b03166000526010602052604060002090565b015560135460081c6001600160a01b0316936002870192614a68828554886153b2565b979196909616614aa15750505050505050614a99614968936109fe6106666013546001600160a01b039060081c1690565b3880806148fd565b614ac891929497939699509794976001600160a01b03166000526010602052604060002090565b9060038201918989845490614adc9161294b565b90614ae69161294b565b835560048101938a855490614afa9161294b565b855560028201928b8b855490614b0f916120a5565b90614b19916120a5565b84558a60038901558b60048901558254614b39906001600160a01b031690565b8854600b60058b01556001600160a01b03919091167fffffffffffffffffffffff00000000000000000000000000000000000000000090911617740100000000000000000000000000000000000000001788555b86600689015560a08201516020830151614ba681612c00565b8b549360e00193845191614bb99361420c565b549889614bd0816000526017602052604060002090565b54614bda90612096565b9c8d9954614bee906001600160a01b031690565b92549351604080519384526001600160a01b038516602085015283018590526060830152608082019d909d5260a081019b909b5260c08b019b909b52600360e08b015299987f5e16b3b6e0a15f63fe16c5b5705c03147211e204ce01e5197d2a699c087e167b9061010090a16001015490549154925460135460081c6001600160a01b0316614c90906001600160a01b0316600052600f602052604060002090565b54604080516001600160a01b038c16815260208101949094528301939093526060820193909352608081019290925260a0820152600360c08201527f9a5787718e945183fe431d089b46b9ee2c5cd3ffbb79ca1a9b117fc29b31c6aa9060e090a1604051958695614d4595879293610100946001600160a01b036005979399989461012087019a8752166020860152604085015260608401526080830152600060a083015260c0820152600160e08201520152565b037fa9fda2d0d572da79a3bb128a2cd337112b06538bd638e802d7f392879dde36a891a1600190565b5084546001600160a01b03166001600160a01b03614d91600884901c82166108bf565b911614156148f8565b5060005460ff166148f2565b614dba91933d8091833e613c4f8183610248565b91386148d8565b9091614ddf906148826108bf6108bf6008546001600160a01b031690565b03915afa928315613c5d5760009361503b575b50601354600360ff8216614e0581611128565b148061502f575b80615003575b614e2f57505050614968925061491682546001600160a01b031690565b6001600160a01b03919060081c821695614e5f610835886001600160a01b03166000526010602052604060002090565b966001614e876149f38483611623866001600160a01b03166000526010602052604060002090565b015560135460081c6001600160a01b03166002614ebf6149f38483611623866001600160a01b03166000526010602052604060002090565b015560135460081c6001600160a01b0316936002870192614ee2828554886153b2565b979196909616614f135750505050505050614a99614968936109fe6106666013546001600160a01b039060081c1690565b614f3a91929497939699509794976001600160a01b03166000526010602052604060002090565b9060038201918989845490614f4e9161294b565b90614f589161294b565b835560048101938a855490614f6c9161294b565b855560028201928b8b855490614f81916120a5565b90614f8b916120a5565b84558a60038901558b60048901558254614fab906001600160a01b031690565b8854600c60058b01556001600160a01b03919091167fffffffffffffffffffffff0000000000000000000000000000000000000000009091161774010000000000000000000000000000000000000000178855614b8d565b5084546001600160a01b03166001600160a01b03615026600884901c82166108bf565b91161415614e12565b5060005460ff16614e0c565b61504f91933d8091833e613c4f8183610248565b9138614df2565b9091615074906148826108bf6108bf6008546001600160a01b031690565b03915afa928315613c5d576000936152d0575b50601354600360ff821661509a81611128565b14806152c4575b80615298575b6150c457505050614968925061491682546001600160a01b031690565b6001600160a01b03919060081c8216956150f4610835886001600160a01b03166000526010602052604060002090565b96600161511c6149f38483611623866001600160a01b03166000526010602052604060002090565b015560135460081c6001600160a01b031660026151546149f38483611623866001600160a01b03166000526010602052604060002090565b015560135460081c6001600160a01b0316936002870192615177828554886153b2565b9791969096166151a85750505050505050614a99614968936109fe6106666013546001600160a01b039060081c1690565b6151cf91929497939699509794976001600160a01b03166000526010602052604060002090565b90600382019189898454906151e39161294b565b906151ed9161294b565b835560048101938a8554906152019161294b565b855560028201928b8b855490615216916120a5565b90615220916120a5565b84558a60038901558b60048901558254615240906001600160a01b031690565b8854600d60058b01556001600160a01b03919091167fffffffffffffffffffffff0000000000000000000000000000000000000000009091161774010000000000000000000000000000000000000000178855614b8d565b5084546001600160a01b03166001600160a01b036152bb600884901c82166108bf565b911614156150a7565b5060005460ff166150a1565b6152e491933d8091833e613c4f8183610248565b9138615087565b600460206001600160a01b0360095416604051928380927f3b1e6a590000000000000000000000000000000000000000000000000000000082525afa908115613c5d57600091615339575090565b610505915060203d60201161447d5761446f8183610248565b9060206001600160a01b039260046040518095819363313ce56760e01b8352165afa8015613c5d5760ff613d5991613d5f94600091615393575b5016614385565b6153ac915060203d6020116144ad5761449f8183610248565b3861538c565b6153d2610835826001600160a01b03166000526010602052604060002090565b916153e1610120840151151590565b6154725761543a61307b61307b6040936002549060a088015180615468575b508061541f6154128b61307b9461262c565b9360015496878096612655565b996004549060c08b01518061545e575b50613069919261262c565b920151615447838561294b565b111561545b57505050600090600090600090565b92565b915061306961542f565b915061307b615400565b50505050600090600090600090565b9081549168010000000000000000831015610243578261481591600161027b950181556121f4565b8015611740576000190190565b919060018301816000528060205260ff6040600020541661558357600084545b80821061554157506154e88386615481565b6154f28554612096565b81811161551157509061484883614815611a80959461485797986121f4565b8061553761552d6147bf61552761553c95612096565b8a6121f4565b614815838a6121f4565b6154a9565b6154f2565b908181018082116117405760011c908461555b83896121f4565b90549060031b1c1060001461557c57506001810180911161174057906154d6565b91506154d6565b506000925050565b60ff7ff0c57e16840df040f15088dc2f81fe391c3923bec73e23a9662efc9c229c6a005460401c16156155ba57565b7fd7e6bcf80000000000000000000000000000000000000000000000000000000060005260046000fdfea264697066735822122050fba40e8d03928e1f662a0aab91127f74260622629677761a8fa328a1575bd164736f6c634300081c0033",
  "linkReferences": {},
  "deployedLinkReferences": {}
}