{
  "_format": "hh-sol-artifact-1",
  "contractName": "PrivatePool",
  "sourceName": "contracts/PrivatePool.sol",
  "abi": [
    {
      "inputs": [],
      "name": "InvalidInitialization",
      "type": "error"
    },
    {
      "inputs": [],
      "name": "NotInitializing",
      "type": "error"
    },
    {
      "inputs": [
        {
          "internalType": "address",
          "name": "owner",
          "type": "address"
        }
      ],
      "name": "OwnableInvalidOwner",
      "type": "error"
    },
    {
      "inputs": [
        {
          "internalType": "address",
          "name": "account",
          "type": "address"
        }
      ],
      "name": "OwnableUnauthorizedAccount",
      "type": "error"
    },
    {
      "anonymous": false,
      "inputs": [
        {
          "indexed": true,
          "internalType": "address",
          "name": "account",
          "type": "address"
        },
        {
          "indexed": true,
          "internalType": "address",
          "name": "token",
          "type": "address"
        },
        {
          "indexed": false,
          "internalType": "uint256",
          "name": "orderID",
          "type": "uint256"
        },
        {
          "indexed": false,
          "internalType": "uint256",
          "name": "amount",
          "type": "uint256"
        },
        {
          "indexed": false,
          "internalType": "uint256",
          "name": "margin",
          "type": "uint256"
        }
      ],
      "name": "AddMargin",
      "type": "event"
    },
    {
      "anonymous": false,
      "inputs": [
        {
          "indexed": false,
          "internalType": "address",
          "name": "maker",
          "type": "address"
        },
        {
          "indexed": false,
          "internalType": "uint256",
          "name": "amount",
          "type": "uint256"
        },
        {
          "indexed": false,
          "internalType": "uint256",
          "name": "availableAmount",
          "type": "uint256"
        },
        {
          "indexed": false,
          "internalType": "uint256",
          "name": "lockedAmount",
          "type": "uint256"
        },
        {
          "indexed": false,
          "internalType": "uint256",
          "name": "maintenanceMargin",
          "type": "uint256"
        },
        {
          "indexed": false,
          "internalType": "uint256",
          "name": "share",
          "type": "uint256"
        },
        {
          "indexed": false,
          "internalType": "uint256",
          "name": "flag",
          "type": "uint256"
        }
      ],
      "name": "BalanceOfMaker",
      "type": "event"
    },
    {
      "anonymous": false,
      "inputs": [
        {
          "indexed": false,
          "internalType": "uint256",
          "name": "dealID",
          "type": "uint256"
        },
        {
          "indexed": false,
          "internalType": "address",
          "name": "maker",
          "type": "address"
        },
        {
          "indexed": false,
          "internalType": "uint256",
          "name": "size",
          "type": "uint256"
        },
        {
          "indexed": false,
          "internalType": "uint256",
          "name": "price",
          "type": "uint256"
        },
        {
          "indexed": false,
          "internalType": "uint256",
          "name": "makerID",
          "type": "uint256"
        },
        {
          "indexed": false,
          "internalType": "uint256",
          "name": "makerGain",
          "type": "uint256"
        },
        {
          "indexed": false,
          "internalType": "uint256",
          "name": "makerLoss",
          "type": "uint256"
        },
        {
          "indexed": false,
          "internalType": "uint256",
          "name": "closeFlag",
          "type": "uint256"
        },
        {
          "indexed": false,
          "internalType": "uint256",
          "name": "flag",
          "type": "uint256"
        }
      ],
      "name": "CloseMakerDealInPool",
      "type": "event"
    },
    {
      "anonymous": false,
      "inputs": [
        {
          "indexed": false,
          "internalType": "uint64",
          "name": "version",
          "type": "uint64"
        }
      ],
      "name": "Initialized",
      "type": "event"
    },
    {
      "anonymous": false,
      "inputs": [
        {
          "indexed": false,
          "internalType": "uint256",
          "name": "dealID",
          "type": "uint256"
        },
        {
          "indexed": false,
          "internalType": "address",
          "name": "maker",
          "type": "address"
        },
        {
          "indexed": false,
          "internalType": "uint256",
          "name": "value",
          "type": "uint256"
        },
        {
          "indexed": false,
          "internalType": "uint256",
          "name": "price",
          "type": "uint256"
        },
        {
          "indexed": false,
          "internalType": "uint256",
          "name": "makerID",
          "type": "uint256"
        },
        {
          "indexed": false,
          "internalType": "uint256",
          "name": "marginAmount",
          "type": "uint256"
        },
        {
          "indexed": false,
          "internalType": "uint256",
          "name": "maintenanceMargin",
          "type": "uint256"
        }
      ],
      "name": "LockInPrivatePool",
      "type": "event"
    },
    {
      "anonymous": false,
      "inputs": [
        {
          "indexed": false,
          "internalType": "uint256",
          "name": "dealID",
          "type": "uint256"
        },
        {
          "indexed": false,
          "internalType": "address",
          "name": "maker",
          "type": "address"
        },
        {
          "indexed": false,
          "internalType": "uint256",
          "name": "size",
          "type": "uint256"
        },
        {
          "indexed": false,
          "internalType": "uint256",
          "name": "price",
          "type": "uint256"
        },
        {
          "indexed": false,
          "internalType": "uint256",
          "name": "makerID",
          "type": "uint256"
        },
        {
          "indexed": false,
          "internalType": "uint256",
          "name": "marginAmount",
          "type": "uint256"
        },
        {
          "indexed": false,
          "internalType": "uint256",
          "name": "maintenanceMargin",
          "type": "uint256"
        },
        {
          "indexed": false,
          "internalType": "uint256",
          "name": "flag",
          "type": "uint256"
        }
      ],
      "name": "LockPoolMargin",
      "type": "event"
    },
    {
      "anonymous": false,
      "inputs": [
        {
          "indexed": true,
          "internalType": "address",
          "name": "previousOwner",
          "type": "address"
        },
        {
          "indexed": true,
          "internalType": "address",
          "name": "newOwner",
          "type": "address"
        }
      ],
      "name": "OwnershipTransferred",
      "type": "event"
    },
    {
      "anonymous": false,
      "inputs": [
        {
          "indexed": true,
          "internalType": "address",
          "name": "account",
          "type": "address"
        },
        {
          "indexed": true,
          "internalType": "address",
          "name": "token",
          "type": "address"
        },
        {
          "indexed": false,
          "internalType": "uint256",
          "name": "amount",
          "type": "uint256"
        },
        {
          "indexed": false,
          "internalType": "uint256",
          "name": "poolType",
          "type": "uint256"
        }
      ],
      "name": "Provide",
      "type": "event"
    },
    {
      "anonymous": false,
      "inputs": [
        {
          "indexed": true,
          "internalType": "address",
          "name": "token",
          "type": "address"
        },
        {
          "indexed": true,
          "internalType": "address",
          "name": "sender",
          "type": "address"
        },
        {
          "indexed": true,
          "internalType": "address",
          "name": "received",
          "type": "address"
        },
        {
          "indexed": false,
          "internalType": "enum ICommon.TransactionType",
          "name": "transactionType",
          "type": "uint8"
        },
        {
          "indexed": false,
          "internalType": "uint256",
          "name": "amount",
          "type": "uint256"
        },
        {
          "indexed": false,
          "internalType": "uint256",
          "name": "timestamp",
          "type": "uint256"
        }
      ],
      "name": "TransactionHistory",
      "type": "event"
    },
    {
      "anonymous": false,
      "inputs": [
        {
          "indexed": false,
          "internalType": "address",
          "name": "token",
          "type": "address"
        },
        {
          "indexed": false,
          "internalType": "address",
          "name": "sender",
          "type": "address"
        },
        {
          "indexed": false,
          "internalType": "address",
          "name": "received",
          "type": "address"
        },
        {
          "indexed": false,
          "internalType": "enum ICommon.TransactionType",
          "name": "transactionType",
          "type": "uint8"
        },
        {
          "indexed": false,
          "internalType": "uint256",
          "name": "amount",
          "type": "uint256"
        },
        {
          "indexed": false,
          "internalType": "uint256",
          "name": "timestamp",
          "type": "uint256"
        }
      ],
      "name": "TransferFee",
      "type": "event"
    },
    {
      "anonymous": false,
      "inputs": [
        {
          "indexed": true,
          "internalType": "address",
          "name": "account",
          "type": "address"
        },
        {
          "indexed": true,
          "internalType": "address",
          "name": "token",
          "type": "address"
        },
        {
          "indexed": false,
          "internalType": "uint256",
          "name": "amount",
          "type": "uint256"
        },
        {
          "indexed": false,
          "internalType": "uint256",
          "name": "poolType",
          "type": "uint256"
        }
      ],
      "name": "Withdraw",
      "type": "event"
    },
    {
      "anonymous": false,
      "inputs": [
        {
          "indexed": false,
          "internalType": "address",
          "name": "sender",
          "type": "address"
        },
        {
          "indexed": false,
          "internalType": "uint256",
          "name": "beforeLeverage",
          "type": "uint256"
        },
        {
          "indexed": false,
          "internalType": "uint256",
          "name": "afterLeverage",
          "type": "uint256"
        }
      ],
      "name": "setLeverage",
      "type": "event"
    },
    {
      "stateMutability": "nonpayable",
      "type": "fallback"
    },
    {
      "inputs": [
        {
          "internalType": "uint256",
          "name": "_dealID",
          "type": "uint256"
        },
        {
          "internalType": "uint256",
          "name": "_amount",
          "type": "uint256"
        }
      ],
      "name": "addMarginAmount",
      "outputs": [],
      "stateMutability": "nonpayable",
      "type": "function"
    },
    {
      "inputs": [
        {
          "internalType": "uint256",
          "name": "_dealID",
          "type": "uint256"
        },
        {
          "internalType": "uint256",
          "name": "_profit",
          "type": "uint256"
        }
      ],
      "name": "checkMarginRisk",
      "outputs": [
        {
          "internalType": "bool",
          "name": "isRisk",
          "type": "bool"
        }
      ],
      "stateMutability": "view",
      "type": "function"
    },
    {
      "inputs": [
        {
          "internalType": "uint256",
          "name": "_id",
          "type": "uint256"
        },
        {
          "internalType": "uint8",
          "name": "_type",
          "type": "uint8"
        },
        {
          "internalType": "uint256",
          "name": "_profit",
          "type": "uint256"
        },
        {
          "internalType": "uint256",
          "name": "_loss",
          "type": "uint256"
        },
        {
          "internalType": "uint256",
          "name": "_amount",
          "type": "uint256"
        },
        {
          "internalType": "uint256",
          "name": "_price",
          "type": "uint256"
        },
        {
          "internalType": "bool",
          "name": "_transform",
          "type": "bool"
        }
      ],
      "name": "close",
      "outputs": [
        {
          "internalType": "uint256",
          "name": "makerProfit",
          "type": "uint256"
        },
        {
          "internalType": "uint256",
          "name": "makerLoss",
          "type": "uint256"
        },
        {
          "internalType": "bool",
          "name": "isLiquidated",
          "type": "bool"
        },
        {
          "internalType": "bool",
          "name": "isAgreement",
          "type": "bool"
        }
      ],
      "stateMutability": "nonpayable",
      "type": "function"
    },
    {
      "inputs": [],
      "name": "escrowAccount",
      "outputs": [
        {
          "internalType": "address",
          "name": "",
          "type": "address"
        }
      ],
      "stateMutability": "view",
      "type": "function"
    },
    {
      "inputs": [
        {
          "internalType": "uint256",
          "name": "_start",
          "type": "uint256"
        },
        {
          "internalType": "uint256",
          "name": "_end",
          "type": "uint256"
        },
        {
          "internalType": "uint256",
          "name": "_count",
          "type": "uint256"
        }
      ],
      "name": "getActiveDeals",
      "outputs": [
        {
          "components": [
            {
              "internalType": "address",
              "name": "makerAddr",
              "type": "address"
            },
            {
              "internalType": "bool",
              "name": "locked",
              "type": "bool"
            },
            {
              "internalType": "uint256",
              "name": "takerId",
              "type": "uint256"
            },
            {
              "internalType": "uint256",
              "name": "size",
              "type": "uint256"
            },
            {
              "internalType": "uint256",
              "name": "marginAmount",
              "type": "uint256"
            },
            {
              "internalType": "uint256",
              "name": "maintenanceMargin",
              "type": "uint256"
            },
            {
              "internalType": "uint256",
              "name": "pubPriFlag",
              "type": "uint256"
            },
            {
              "internalType": "uint256",
              "name": "movePrice",
              "type": "uint256"
            },
            {
              "internalType": "uint256",
              "name": "time",
              "type": "uint256"
            }
          ],
          "internalType": "struct IPool.MakerDeal[]",
          "name": "info",
          "type": "tuple[]"
        },
        {
          "internalType": "uint256[]",
          "name": "ids",
          "type": "uint256[]"
        },
        {
          "internalType": "uint256",
          "name": "end",
          "type": "uint256"
        }
      ],
      "stateMutability": "view",
      "type": "function"
    },
    {
      "inputs": [
        {
          "internalType": "address",
          "name": "maker",
          "type": "address"
        }
      ],
      "name": "getLP2Account",
      "outputs": [
        {
          "components": [
            {
              "internalType": "address payable",
              "name": "holder",
              "type": "address"
            },
            {
              "internalType": "uint256",
              "name": "amount",
              "type": "uint256"
            },
            {
              "internalType": "uint256",
              "name": "availableAmount",
              "type": "uint256"
            },
            {
              "internalType": "uint256",
              "name": "lockedAmount",
              "type": "uint256"
            },
            {
              "internalType": "uint256",
              "name": "maintenanceMargin",
              "type": "uint256"
            },
            {
              "internalType": "uint256",
              "name": "leverage",
              "type": "uint256"
            },
            {
              "internalType": "uint256",
              "name": "maintenanceMarginRate",
              "type": "uint256"
            },
            {
              "internalType": "uint256",
              "name": "addMarginRate",
              "type": "uint256"
            },
            {
              "internalType": "bool",
              "name": "autoAddMargin",
              "type": "bool"
            },
            {
              "internalType": "bool",
              "name": "isRejectOrder",
              "type": "bool"
            }
          ],
          "internalType": "struct IPool.LP2Account",
          "name": "",
          "type": "tuple"
        }
      ],
      "stateMutability": "view",
      "type": "function"
    },
    {
      "inputs": [],
      "name": "getMakerAddresses",
      "outputs": [
        {
          "internalType": "address[]",
          "name": "",
          "type": "address[]"
        }
      ],
      "stateMutability": "view",
      "type": "function"
    },
    {
      "inputs": [
        {
          "internalType": "uint256",
          "name": "makerDealID",
          "type": "uint256"
        }
      ],
      "name": "getMakerDeal",
      "outputs": [
        {
          "components": [
            {
              "internalType": "address",
              "name": "makerAddr",
              "type": "address"
            },
            {
              "internalType": "bool",
              "name": "locked",
              "type": "bool"
            },
            {
              "internalType": "uint256",
              "name": "takerId",
              "type": "uint256"
            },
            {
              "internalType": "uint256",
              "name": "size",
              "type": "uint256"
            },
            {
              "internalType": "uint256",
              "name": "marginAmount",
              "type": "uint256"
            },
            {
              "internalType": "uint256",
              "name": "maintenanceMargin",
              "type": "uint256"
            },
            {
              "internalType": "uint256",
              "name": "pubPriFlag",
              "type": "uint256"
            },
            {
              "internalType": "uint256",
              "name": "movePrice",
              "type": "uint256"
            },
            {
              "internalType": "uint256",
              "name": "time",
              "type": "uint256"
            }
          ],
          "internalType": "struct IPool.MakerDeal",
          "name": "",
          "type": "tuple"
        }
      ],
      "stateMutability": "view",
      "type": "function"
    },
    {
      "inputs": [
        {
          "internalType": "uint256[]",
          "name": "_ids",
          "type": "uint256[]"
        }
      ],
      "name": "getMakerDeals",
      "outputs": [
        {
          "components": [
            {
              "internalType": "address",
              "name": "makerAddr",
              "type": "address"
            },
            {
              "internalType": "bool",
              "name": "locked",
              "type": "bool"
            },
            {
              "internalType": "uint256",
              "name": "takerId",
              "type": "uint256"
            },
            {
              "internalType": "uint256",
              "name": "size",
              "type": "uint256"
            },
            {
              "internalType": "uint256",
              "name": "marginAmount",
              "type": "uint256"
            },
            {
              "internalType": "uint256",
              "name": "maintenanceMargin",
              "type": "uint256"
            },
            {
              "internalType": "uint256",
              "name": "pubPriFlag",
              "type": "uint256"
            },
            {
              "internalType": "uint256",
              "name": "movePrice",
              "type": "uint256"
            },
            {
              "internalType": "uint256",
              "name": "time",
              "type": "uint256"
            }
          ],
          "internalType": "struct IPool.MakerDeal[]",
          "name": "deals",
          "type": "tuple[]"
        }
      ],
      "stateMutability": "view",
      "type": "function"
    },
    {
      "inputs": [],
      "name": "getMakerDealsLength",
      "outputs": [
        {
          "internalType": "uint256",
          "name": "lpLen",
          "type": "uint256"
        }
      ],
      "stateMutability": "view",
      "type": "function"
    },
    {
      "inputs": [
        {
          "internalType": "address",
          "name": "maker",
          "type": "address"
        }
      ],
      "name": "getMakerUserDeals",
      "outputs": [
        {
          "internalType": "uint256[]",
          "name": "",
          "type": "uint256[]"
        }
      ],
      "stateMutability": "view",
      "type": "function"
    },
    {
      "inputs": [],
      "name": "getShareAddresses",
      "outputs": [
        {
          "internalType": "address[]",
          "name": "",
          "type": "address[]"
        }
      ],
      "stateMutability": "view",
      "type": "function"
    },
    {
      "inputs": [
        {
          "internalType": "address",
          "name": "initialOwner",
          "type": "address"
        },
        {
          "internalType": "address",
          "name": "_tokenAddress",
          "type": "address"
        },
        {
          "internalType": "address",
          "name": "_riskFundAddr",
          "type": "address"
        }
      ],
      "name": "initialize",
      "outputs": [],
      "stateMutability": "nonpayable",
      "type": "function"
    },
    {
      "inputs": [
        {
          "internalType": "uint256",
          "name": "",
          "type": "uint256"
        }
      ],
      "name": "matchIds",
      "outputs": [
        {
          "internalType": "uint256",
          "name": "",
          "type": "uint256"
        }
      ],
      "stateMutability": "view",
      "type": "function"
    },
    {
      "inputs": [
        {
          "internalType": "string",
          "name": "_name",
          "type": "string"
        },
        {
          "internalType": "uint256",
          "name": "_id",
          "type": "uint256"
        },
        {
          "internalType": "uint256",
          "name": "_amount",
          "type": "uint256"
        },
        {
          "internalType": "uint256",
          "name": "_tradingFee",
          "type": "uint256"
        },
        {
          "internalType": "uint256",
          "name": "_price",
          "type": "uint256"
        },
        {
          "internalType": "enum ICommon.Direct",
          "name": "_direction",
          "type": "uint8"
        }
      ],
      "name": "matchOrder",
      "outputs": [
        {
          "internalType": "bool",
          "name": "success",
          "type": "bool"
        },
        {
          "internalType": "uint256",
          "name": "remaining",
          "type": "uint256"
        }
      ],
      "stateMutability": "nonpayable",
      "type": "function"
    },
    {
      "inputs": [],
      "name": "owner",
      "outputs": [
        {
          "internalType": "address",
          "name": "",
          "type": "address"
        }
      ],
      "stateMutability": "view",
      "type": "function"
    },
    {
      "inputs": [],
      "name": "poolType",
      "outputs": [
        {
          "internalType": "enum ICommon.PoolFlag",
          "name": "",
          "type": "uint8"
        }
      ],
      "stateMutability": "view",
      "type": "function"
    },
    {
      "inputs": [
        {
          "internalType": "address",
          "name": "",
          "type": "address"
        },
        {
          "internalType": "string",
          "name": "",
          "type": "string"
        },
        {
          "internalType": "uint256",
          "name": "",
          "type": "uint256"
        }
      ],
      "name": "positions",
      "outputs": [
        {
          "internalType": "uint256",
          "name": "value",
          "type": "uint256"
        },
        {
          "internalType": "uint256",
          "name": "size",
          "type": "uint256"
        }
      ],
      "stateMutability": "view",
      "type": "function"
    },
    {
      "inputs": [],
      "name": "privateMinMintAmount",
      "outputs": [
        {
          "internalType": "uint256",
          "name": "",
          "type": "uint256"
        }
      ],
      "stateMutability": "view",
      "type": "function"
    },
    {
      "inputs": [
        {
          "internalType": "uint256",
          "name": "_amount",
          "type": "uint256"
        },
        {
          "internalType": "uint256",
          "name": "_priOrPub",
          "type": "uint256"
        }
      ],
      "name": "provide",
      "outputs": [],
      "stateMutability": "nonpayable",
      "type": "function"
    },
    {
      "inputs": [],
      "name": "renounceOwnership",
      "outputs": [],
      "stateMutability": "nonpayable",
      "type": "function"
    },
    {
      "inputs": [
        {
          "internalType": "bool",
          "name": "_flag",
          "type": "bool"
        }
      ],
      "name": "setIsRejectOrder",
      "outputs": [],
      "stateMutability": "nonpayable",
      "type": "function"
    },
    {
      "inputs": [
        {
          "internalType": "address",
          "name": "_perpetual",
          "type": "address"
        },
        {
          "internalType": "address",
          "name": "_orderBook",
          "type": "address"
        },
        {
          "internalType": "address",
          "name": "_tradeAgent",
          "type": "address"
        },
        {
          "internalType": "address",
          "name": "_tradeStation",
          "type": "address"
        },
        {
          "internalType": "address",
          "name": "_keeper",
          "type": "address"
        }
      ],
      "name": "setKeepers",
      "outputs": [],
      "stateMutability": "nonpayable",
      "type": "function"
    },
    {
      "inputs": [
        {
          "internalType": "uint256",
          "name": "_value",
          "type": "uint256"
        }
      ],
      "name": "setPrivateMinMintAmount",
      "outputs": [],
      "stateMutability": "nonpayable",
      "type": "function"
    },
    {
      "inputs": [
        {
          "internalType": "uint256",
          "name": "_leverage",
          "type": "uint256"
        },
        {
          "internalType": "bool",
          "name": "_isRejectOrder",
          "type": "bool"
        },
        {
          "internalType": "bool",
          "name": "_autoAddMargin",
          "type": "bool"
        }
      ],
      "name": "setUserParam",
      "outputs": [],
      "stateMutability": "nonpayable",
      "type": "function"
    },
    {
      "inputs": [],
      "name": "totalLockedLiquidity",
      "outputs": [
        {
          "internalType": "uint256",
          "name": "",
          "type": "uint256"
        }
      ],
      "stateMutability": "view",
      "type": "function"
    },
    {
      "inputs": [
        {
          "internalType": "address",
          "name": "newOwner",
          "type": "address"
        }
      ],
      "name": "transferOwnership",
      "outputs": [],
      "stateMutability": "nonpayable",
      "type": "function"
    },
    {
      "inputs": [
        {
          "internalType": "uint256",
          "name": "_amount",
          "type": "uint256"
        },
        {
          "internalType": "uint256",
          "name": "_priOrPub",
          "type": "uint256"
        }
      ],
      "name": "withdraw",
      "outputs": [],
      "stateMutability": "nonpayable",
      "type": "function"
    }
  ],
  "bytecode": "0x608080604052346015576157a3908161001b8239f35b600080fdfe6080604052600436101561001a575b3461001557005b600080fd5b60003560e01c80630c8c3516146101da5780631f92a4da146101d557806325737d40146101d057806336ff6a70146101cb578063441a3e70146101c657806346ceec98146101c15780634e091b22146101bc57806354b3b018146101b757806360d32e8d146101b2578063715018a6146101ad578063728f855e146101a8578063880a1a77146101a35780638da5cb5b1461019e5780638e3a0e9214610199578063a8ece51a14610194578063b1951cfd1461018f578063b1dd61b61461018a578063bc1c1c6c14610185578063c0c53b8b14610180578063c22989421461017b578063c23e629f14610176578063d3c76d6614610171578063e771ad721461016c578063e8c3c54f14610167578063f26a3e1d14610162578063f2da708d1461015d578063f2fde38b146101585763f6ef18390361000e57611bd1565b611ba4565b611b86565b611afc565b61183d565b61171d565b61169b565b6114cb565b611444565b6111a9565b611129565b6110ff565b610fed565b610fcf565b610f51565b610f01565b610e75565b610d8b565b610ce8565b610c4c565b610c22565b610bef565b610ac8565b6105ab565b61057f565b6104e8565b610403565b610358565b6001600160a01b0381160361001557565b634e487b7160e01b600052604160045260246000fd5b610140810190811067ffffffffffffffff82111761022357604052565b6101f0565b90601f601f19910116810190811067ffffffffffffffff82111761022357604052565b6040519061025b61014083610228565b565b6040519061025b61012083610228565b6040519061025b61016083610228565b67ffffffffffffffff811161022357601f01601f191660200190565b81601f82011215610015578035906102b08261027d565b926102be6040519485610228565b8284526020838301011161001557816000926020809301838601378301015290565b60005b8381106102f35750506000910152565b81810151838201526020016102e3565b60209061031d9282604051948386809551938492016102e0565b82019081520301902090565b634e487b7160e01b600052603260045260246000fd5b9060028110156103535760011b0190600090565b610329565b3461001557606060031936011261001557600435610375816101df565b60243567ffffffffffffffff811161001557602061039a6103c6923690600401610299565b6001600160a01b03604435941660005260168252604060002082604051948386809551938492016102e0565b820190815203019020906002811015610015576103e29161033f565b508054600190910154604080519283526020830191909152819081015b0390f35b34610015576000600319360112610015576020601454604051908152f35b67ffffffffffffffff81116102235760051b60200190565b906020808351928381520192019060005b8181106104575750505090565b9091926020610120826104c9600194885161010080916001600160a01b03815116845260208101511515602085015260408101516040850152606081015160608501526080810151608085015260a081015160a085015260c081015160c085015260e081015160e08501520151910152565b01940192910161044a565b9060206104e5928181520190610439565b90565b346100155760206003193601126100155760043567ffffffffffffffff811161001557366023820112156100155780600401359061052582610421565b916105336040519384610228565b8083526024602084019160051b8301019136831161001557602401905b82821061056f576103ff61056385611e62565b604051918291826104d4565b8135815260209182019101610550565b346100155760206003193601126100155760043560005260176020526020604060002054604051908152f35b34610015576040600319360112610015576024356004358080151580610a19575b6105d590611eb3565b6106016105e460135460ff1690565b6105ed816110f0565b84600382149182156109f3575b5050611f42565b600183036107d5575061061381613e3a565b600261064761062e6013546001600160a01b039060081c1690565b6001600160a01b03166000526010602052604060002090565b0154821115806107a9575b61065b90611fdf565b336000908152600f6020526040902061067583825461204f565b90556013546106a49060081c6001600160a01b03165b6001600160a01b0316600052600f602052604060002090565b6106af83825461204f565b905560016106cc61062e6013546001600160a01b039060081c1690565b016106d882825461204f565b905561070160026106f861062e6013546001600160a01b039060081c1690565b0191825461204f565b9055336000908152600f602052604090205415610794575b6107368161072f6005546001600160a01b031690565b3390613ea6565b7ff341246adaac6f497bc2a656f546ab9e182111d630394f0c57c710a59a2cb56761078f6001600160a01b036107746005546001600160a01b031690565b60408051958652602086019690965216933393918291820190565b0390a3005b336000908152600f6020526040812055610719565b5061065b6107ca336001600160a01b0316600052600f602052604060002090565b548311159050610652565b600283036109ee576108026107fd336001600160a01b03166000526010602052604060002090565b611f49565b90604082016108148151831115611fdf565b610830602084019261082781855161204f565b8452825161204f565b9052606082015115806109e4575b806109d8575b6109cb575b5190816109a157505060005b600b54908181101561099a5761088761089361087083612183565b9290923393546001600160a01b039160031b1c1690565b6001600160a01b031690565b146108a2576001915001610855565b6108ab82612040565b8103610941575b50506108de6108d4336001600160a01b0316600052600c602052604060002090565b60ff198154169055565b6109346108fe336001600160a01b03166000526010602052604060002090565b60086000918281558260018201558260028201558260038201558260048201558260058201558260068201558260078201550155565b61093c6121cc565b610719565b61097461096e61095b61095661099395612040565b612183565b90546001600160a01b039160031b1c1690565b91612183565b9091906001600160a01b038084549260031b9316831b921b1916179055565b38806108b2565b5050610719565b6109b261093c92601454111561205c565b3360009081526010602052604090206120bd565b6120bd565b8051600082529250610849565b50805160145411610844565b508051151561083e565b611efe565b9091506109ff826110f0565b610a08826110f0565b610a11816110f0565b1484386105fa565b506105d5610a366108876013546001600160a01b039060081c1690565b33141590506105cc565b61025b9092919261012080610140830195610a648482516001600160a01b03169052565b6020810151602085015260408101516040850152606081015160608501526080810151608085015260a081015160a085015260c081015160c085015260e081015160e0850152610abf61010082015161010086019015159052565b01511515910152565b34610015576020600319360112610015576001600160a01b03600435610aed816101df565b6000610120604051610afe81610206565b8281528260208201528260408201528260608201528260808201528260a08201528260c08201528260e08201528261010082015201521660005260106020526103ff6040600020610be3610bd96008610b5561024b565b93610b77610b6a82546001600160a01b031690565b6001600160a01b03168652565b60018101546020860152600281015460408601526003810154606086015260048101546080860152600581015460a0860152600681015460c0860152600781015460e08601520154610bd060ff82161515610100860152565b60081c60ff1690565b1515610120830152565b60405191829182610a40565b346100155760206003193601126100155760043533600052600e602052610c1d60ff60406000205416612226565b601455005b346100155760006003193601126100155760206001600160a01b0360135460081c16604051908152f35b3461001557602060031936011261001557610120610c7d610c77600435610c71611ce2565b50611d9b565b50611dd6565b610ce6604051809261010080916001600160a01b03815116845260208101511515602085015260408101516040850152606081015160608501526080810151608085015260a081015160a085015260c081015160c085015260e081015160e08501520151910152565bf35b3461001557600060031936011261001557610d01613fa8565b60006001600160a01b037f9016d09d72d40fdae2fd8ceac6b6234c7706214fd39c1cd1e609a0528c199300546001600160a01b031981167f9016d09d72d40fdae2fd8ceac6b6234c7706214fd39c1cd1e609a0528c19930055167f8be0079c531659141344cd1fd0a4f28419497f9722a3daafe3b4186f6b6457e08280a3005b8015150361001557565b3461001557602060031936011261001557600435610da881610d81565b33600052600c60205260ff6040600020541615610dee57610dec9033600052601060205260086040600020019061ff001961ff00835492151560081b169116179055565b005b606460405162461bcd60e51b815260206004820152600c60248201527f6e656564206465706f73697400000000000000000000000000000000000000006044820152fd5b602060408183019282815284518094520192019060005b818110610e565750505090565b82516001600160a01b0316845260209384019390920191600101610e49565b3461001557600060031936011261001557604051806020600a54918281520190600a6000527fc65a7bb8d6351c1cf70c95a316cc6a92839c986682d98bc35f958f4883f9d2a89060005b818110610ee2576103ff85610ed681870382610228565b60405191829182610e32565b82546001600160a01b0316845260209093019260019283019201610ebf565b346100155760006003193601126100155760206001600160a01b037f9016d09d72d40fdae2fd8ceac6b6234c7706214fd39c1cd1e609a0528c1993005416604051908152f35b6003111561001557565b346100155760c06003193601126100155760043567ffffffffffffffff811161001557610f85610fbb913690600401610299565b6024356044356084359160a43593610f9c85610f47565b33600052600e602052610fb660ff60406000205416612226565b612297565b604080519215158352602083019190915290f35b34610015576000600319360112610015576020601554604051908152f35b346100155760606003193601126100155760043560243561100d81610d81565b6044359061101a82610d81565b33600052600c60205260ff6040600020541615611096576110846008610dec94611057336001600160a01b03166000526010602052604060002090565b90611065606482111561254a565b600582015501805461ff00191692151560081b61ff0016929092178255565b9060ff60ff1983541691151516179055565b606460405162461bcd60e51b815260206004820152601260248201527f75736572206973206e6f742065786973747300000000000000000000000000006044820152fd5b634e487b7160e01b600052602160045260246000fd5b600511156110fa57565b6110da565b346100155760006003193601126100155760ff6013541660405160058210156110fa576020918152f35b3461001557600060031936011261001557604051806020600b54918281520190600b6000527f0175b7a638427703f0dbe7bb9bbf987a2551717b34e79f33b5b1008d1fa01db99060005b81811061118a576103ff85610ed681870382610228565b82546001600160a01b0316845260209093019260019283019201611173565b34610015576060600319360112610015576004356111c6816101df565b602435906111d3826101df565b6044356111df816101df565b7ff0c57e16840df040f15088dc2f81fe391c3923bec73e23a9662efc9c229c6a00549267ffffffffffffffff61122e60ff604087901c1615611220565b1590565b9567ffffffffffffffff1690565b16801590816113f7575b60011490816113ed575b1590816113e4575b506113ba576112cb92846112c260017fffffffffffffffffffffffffffffffffffffffffffffffff00000000000000007ff0c57e16840df040f15088dc2f81fe391c3923bec73e23a9662efc9c229c6a005416177ff0c57e16840df040f15088dc2f81fe391c3923bec73e23a9662efc9c229c6a0055565b6113555761260e565b6112d157005b61132668ff0000000000000000197ff0c57e16840df040f15088dc2f81fe391c3923bec73e23a9662efc9c229c6a0054167ff0c57e16840df040f15088dc2f81fe391c3923bec73e23a9662efc9c229c6a0055565b604051600181527fc7f505b2f371ae2175ee4913f4499e1f2633a7b5936321eed1cdaeb6115181d290602090a1005b6113b56801000000000000000068ff0000000000000000197ff0c57e16840df040f15088dc2f81fe391c3923bec73e23a9662efc9c229c6a005416177ff0c57e16840df040f15088dc2f81fe391c3923bec73e23a9662efc9c229c6a0055565b61260e565b7ff92ee8a90000000000000000000000000000000000000000000000000000000060005260046000fd5b9050153861124a565b303b159150611242565b859150611238565b906020808351928381520192019060005b81811061141d5750505090565b8251845260209384019390920191600101611410565b9060206104e59281815201906113ff565b34610015576020600319360112610015576001600160a01b03600435611469816101df565b166000526011602052604060002060405190816020825491828152019160005260206000209060005b8181106114b5576103ff856114a981870382610228565b60405191829182611433565b8254845260209093019260019283019201611492565b346100155760406003193601126100155760243560043561150f6114ff6114f183611d9b565b50546001600160a01b031690565b6001600160a01b03163314612806565b61153b826002611532336001600160a01b03166000526010602052604060002090565b01541015612851565b61155f600161155761154c84611d9b565b505460a01c60ff1690565b15151461289c565b611589826002611582336001600160a01b03166000526010602052604060002090565b015461204f565b60026115a8336001600160a01b03166000526010602052604060002090565b01556115d48260036115cd336001600160a01b03166000526010602052604060002090565b01546128f5565b60036115f3336001600160a01b03166000526010602052604060002090565b015561160c82600361160484611d9b565b5001546128f5565b600361161783611d9b565b50015561162e611629836015546128f5565b601555565b7fc8f742aa90a6e6851d2252fa58ed695d3ca295b55bf5f1c2164a360cc8a093e26001600160a01b036116696005546001600160a01b031690565b61078f600361167786611d9b565b50015460405193849316963396846040919493926060820195825260208201520152565b34610015576040600319360112610015576004356024359060005260176020526040600020549060001982019182116116ea5760806116de610c77602094611d9b565b01511115604051908152f35b61202a565b9392916117189061170a604093606088526060880190610439565b9086820360208801526113ff565b930152565b346100155760606003193601126100155760043560243560443581928092600091601254809211611833575b811061182b575b5092919261175d82611d38565b9161176781610421565b946117756040519687610228565b818652601f1961178483610421565b013660208801375b84811080611822575b156117fc576117a661154c82611d9b565b6117b9575b6117b490612902565b61178c565b916117f481846117cc6117b4948a611d87565b526117d9610c7786611d9b565b6117e38288611d87565b526117ee8187611d87565b50612902565b9290506117ab565b8593926103ff928103611817575b50604051938493846116ef565b80845284528461180a565b50818310611795565b925038611750565b9094508490611749565b346100155760406003193601126100155760043560243590806118a361189b61088760135461188c61186f8260ff1690565b611878816110f0565b8860038214918215611acb575b5050612955565b60081c6001600160a01b031690565b33141561295c565b6118ac30614480565b906118ca8130336118c56005546001600160a01b031690565b6145a1565b60018403611a4557506118e46118f29260015411156129a7565b6118ed30614480565b61204f565b61191c61121c611915336001600160a01b0316600052600d602052604060002090565b5460ff1690565b611a0a575b61192a8161475d565b600161194561062e6013546001600160a01b039060081c1690565b016119518382546128f5565b9055600261196e61062e6013546001600160a01b039060081c1690565b0161197a8382546128f5565b90556013546119949060081c6001600160a01b031661068b565b61199f8282546128f5565b90556119c96119c1336001600160a01b0316600052600f602052604060002090565b9182546128f5565b90555b7f9675a307d5dddc49aefd66964913e794711b6c69e23cfe1fa44406ab2bbaeae861078f6001600160a01b036107746005546001600160a01b031690565b611a37611a2a336001600160a01b0316600052600d602052604060002090565b600160ff19825416179055565b611a40336129f2565b611921565b915060028303611ac6576118e4611a609260145411156129a7565b611a6861468c565b611ac1611a8b6107fd336001600160a01b03166000526010602052604060002090565b60208101611a9a8482516128f5565b905260408101611aab8482516128f5565b90523360009081526010602052604090206120bd565b6119cc565b612911565b909150611ad7826110f0565b611ae0826110f0565b611ae9816110f0565b148838611885565b60ff81160361001557565b346100155760e0600319360112610015576103ff611b5c600435602435611b2281611af1565b6044356064356084359160a4359360c43595611b3d87610d81565b33600052600e602052611b5760ff60406000205416612226565b612bb4565b60408051948552602085019390935290151591830191909152151560608201529081906080820190565b34610015576000600319360112610015576020601254604051908152f35b3461001557602060031936011261001557610dec600435611bc4816101df565b611bcc613fa8565b613d7b565b346100155760a060031936011261001557610dec611a2a600435611bf4816101df565b611cc9611a2a60243592611c07846101df565b611cc9611a2a60443592611c1a846101df565b611ca9611a2a60643595611c2d876101df565b6001600160a01b036084359a611c428c6101df565b611c4a613fa8565b16806001600160a01b03196008541617600855600052600e6020526040600020600160ff198254161790556001600160a01b0381166001600160a01b031960095416176009556001600160a01b0316600052600e602052604060002090565b611cc9816001600160a01b03166001600160a01b03196007541617600755565b6001600160a01b0316600052600e602052604060002090565b60405190610120820182811067ffffffffffffffff821117610223576040526000610100838281528260208201528260408201528260608201528260808201528260a08201528260c08201528260e08201520152565b90611d4282610421565b611d4f6040519182610228565b828152601f19611d5f8294610421565b019060005b828110611d7057505050565b602090611d7b611ce2565b82828501015201611d64565b80518210156103535760209160051b010190565b60125481101561035357601260005260206000209060031b0190600090565b80548210156103535760005260206000209060031b0190600090565b906007611de161025d565b92611e1c611e138254611e0a611dfd826001600160a01b031690565b6001600160a01b03168852565b60a01c60ff1690565b15156020860152565b600181015460408501526002810154606085015260038101546080850152600481015460a0850152600581015460c0850152600681015460e08501520154610100830152565b908151611e6e81611d38565b9260005b828110611e7e57505050565b80611e97610c77611e9160019486611d87565b51611d9b565b611ea18288611d87565b52611eac8187611d87565b5001611e72565b15611eba57565b606460405162461bcd60e51b815260206004820152600e60248201527f646f206e6f7420616c6c6f7765640000000000000000000000000000000000006044820152fd5b606460405162461bcd60e51b815260206004820152601360248201527f77726f6e6720776974686472617720666c6167000000000000000000000000006044820152fd5b15611efe57565b9061025b611fd56008611f5a61024b565b94611f7c611f6f82546001600160a01b031690565b6001600160a01b03168752565b60018101546020870152600281015460408701526003810154606087015260048101546080870152600581015460a0870152600681015460c0870152600781015460e08701520154610bd060ff82161515610100870152565b1515610120840152565b15611fe657565b606460405162461bcd60e51b815260206004820152601060248201527f6c6f7765722074686520616d6f756e74000000000000000000000000000000006044820152fd5b634e487b7160e01b600052601160045260246000fd5b9060001982019182116116ea57565b919082039182116116ea57565b1561206357565b606460405162461bcd60e51b815260206004820152601860248201527f7374617920616d6f756e7420697320746f6f20736d616c6c00000000000000006044820152fd5b634e487b7160e01b600052600060045260246000fd5b9061216d610120600861025b946120fa6120de86516001600160a01b031690565b82906001600160a01b03166001600160a01b0319825416179055565b6020850151600182015560408501516002820155606085015160038201556080850151600482015560a0850151600582015560c0850151600682015560e085015160078201550192612166612153610100830151151590565b859060ff60ff1983541691151516179055565b0151151590565b815461ff00191690151560081b61ff0016179055565b600b5481101561035357600b60005260206000200190600090565b80548210156103535760005260206000200190600090565b634e487b7160e01b600052603160045260246000fd5b600b54801561222157600019810190600090600b5483101561035357600b918290527f0175b7a638427703f0dbe7bb9bbf987a2551717b34e79f33b5b1008d1fa01db80180546001600160a01b031916905555565b6121b6565b1561222d57565b608460405162461bcd60e51b815260206004820152602160248201527f63616c6c6572206973206e6f74207072697661746520706f6f6c206b6565706560448201527f72000000000000000000000000000000000000000000000000000000000000006064820152fd5b92919493906122a6838761405e565b926001600160a01b03839293169384156000146122cb57505050505050505060009190565b7f9a5787718e945183fe431d089b46b9ee2c5cd3ffbb79ca1a9b117fc29b31c6aa9392916125029160029b98999a9b918985878d6123186108876013546001600160a01b039060081c1690565b8c14612541575b8686836123d7936123616116298461235c7f5e16b3b6e0a15f63fe16c5b5705c03147211e204ce01e5197d2a699c087e167b9b9a996015546128f5565b6128f5565b61238a612381876001600160a01b03166000526011602052604060002090565b6012549061563f565b50601254906040519788978b899491926001600160a01b0360e097949a999895929a61010088019b885216602087015260408601526060850152608084015260a083015260c08201520152565b0390a16124286123e561025d565b6001600160a01b0387168152600160208201528260408201528b60608201528760808201528360a08201528460c08201528c60e0820152426101008201526141e5565b61243f601254916000526017602052604060002090565b5561245d846001600160a01b03166000526010602052604060002090565b90600160038301926124748361235c8a87546128f5565b845561249a60048201936124898186546128f5565b85556118ed600284019a8b5461204f565b88550154955491549054906124c2866001600160a01b0316600052600f602052604060002090565b54926040519788978893909796959260c095926001600160a01b0360e087019a168652602086015260408501526060840152608083015260a08201520152565b0390a160135461251d9060081c6001600160a01b0316610887565b1461252f575b50505050600190600090565b612538936142f9565b38808080612523565b6001965061231f565b1561255157565b606460405162461bcd60e51b815260206004820152600c60248201527f6f7574206f6620302d31303000000000000000000000000000000000000000006044820152fd5b9081600a0291600a8304036116ea57565b908160011b917f7fffffffffffffffffffffffffffffffffffffffffffffffffffffffffffffff8116036116ea57565b818102929181159184041417156116ea57565b634e487b7160e01b600052601260045260246000fd5b8115612609570490565b6125e9565b612679611a2a926001600160a01b0361275e95612629615714565b612631615714565b61263a33613d7b565b612642613fa8565b61264b85613d7b565b166001600160a01b031960065416176006556001600160a01b03166001600160a01b03196005541617600555565b601380547fffffffffffffffffffffff0000000000000000000000000000000000000000ff163360081b74ffffffffffffffffffffffffffffffffffffffff00161790556013546127129060081c6001600160a01b03166126f76001600160a01b038216916001600160a01b03166000526010602052604060002090565b906001600160a01b03166001600160a01b0319825416179055565b61273e600861273061062e6013546001600160a01b039060081c1690565b01600160ff19825416179055565b611cc9611a2a306001600160a01b0316600052600e602052604060002090565b61277e611a2a336001600160a01b0316600052600e602052604060002090565b612790600260ff196013541617601355565b61279f60ff1960005416600055565b6127b0670de0b6b3a7640000600155565b6127c1670de0b6b3a7640000601455565b6127cb600a600255565b6127e86127e36127dc600154612595565b6064900490565b600355565b61025b6128016127f96001546125a6565b6103e8900490565b600455565b1561280d57565b606460405162461bcd60e51b815260206004820152600960248201527f4e6f74206d616b657200000000000000000000000000000000000000000000006044820152fd5b1561285857565b606460405162461bcd60e51b815260206004820152601060248201527f45786365656420617661696c61626c65000000000000000000000000000000006044820152fd5b156128a357565b606460405162461bcd60e51b815260206004820152601660248201527f4c6971756964697479207374617475732077726f6e67000000000000000000006044820152fd5b90600182018092116116ea57565b919082018092116116ea57565b60001981146116ea5760010190565b606460405162461bcd60e51b815260206004820152601260248201527f77726f6e67206465706f73697420666c616700000000000000000000000000006044820152fd5b1561291157565b1561296357565b606460405162461bcd60e51b815260206004820152601860248201527f77616c6c657420697320657363726f77206163636f756e7400000000000000006044820152fd5b156129ae57565b606460405162461bcd60e51b815260206004820152600960248201527f746f6f20736d616c6c00000000000000000000000000000000000000000000006044820152fd5b600a5490680100000000000000008210156102235760018201600a55600a5482101561035357600a6000527fc65a7bb8d6351c1cf70c95a316cc6a92839c986682d98bc35f958f4883f9d2a890910180546001600160a01b0319166001600160a01b03909216919091179055565b519061025b826101df565b519061025b82610f47565b5190600682101561001557565b81601f82011215610015578051612a998161027d565b92612aa76040519485610228565b81845260208284010111610015576104e591602080850191016102e0565b6020818303126100155780519067ffffffffffffffff82116100155701906101608282031261001557612af661026d565b91612b0081612a60565b8352612b0e60208201612a6b565b6020840152612b1f60408201612a76565b6040840152612b3060608201612a6b565b60608401526080810151608084015260a081015167ffffffffffffffff81116100155761014092612b62918301612a83565b60a084015260c081015160c084015260e081015160e0840152610100810151610100840152610120810151610120840152015161014082015290565b6040513d6000823e3d90fd5b600311156110fa57565b929594969390919660009660008098600098612be3612bdd896000526017602052604060002090565b54612040565b93612bed85611d9b565b5093612c0085546001600160a01b031690565b98612c1e8a6001600160a01b03166000526010602052604060002090565b9a7f9a5787718e945183fe431d089b46b9ee2c5cd3ffbb79ca1a9b117fc29b31c6aa8c8c612cbb6001830154926002810154906004600382015491015490612c79856001600160a01b0316600052600f602052604060002090565b549260405196879687929360c094600a96929897936001600160a01b0360e087019a168652602086015260408501526060840152608083015260a08201520152565b0390a160ff821615809b819c613d4f575b50613c6e575b5060ff166001036134425750505050908160038b9695949301805490612cfc6004840154836128f5565b9160028a015490612d0d82856128f5565b8a1115612f6a575050509091929394959a612d36612d2b838361204f565b60028a01549061204f565b90612d3f61477c565b90818311612f48575b5050612db0918161162992612ef6575b50600098612d73826118ed600184015460028501549061204f565b600182015560006002820155612d8d82600383015461204f565b60038201556004612da581830154828801549061204f565b91015560155461204f565b612de682612de1612dc884546001600160a01b031690565b6001600160a01b03166000526011602052604060002090565b6148ff565b50612df2838b836151df565b15612e0557505050505050600093929190565b90919295949897507fa9fda2d0d572da79a3bb128a2cd337112b06538bd638e802d7f392879dde36a8939650612e5988612e476005546001600160a01b031690565b6007546001600160a01b031690613ea6565b60019586975b898b839560029360029515612ee6575b97612ed8969798612edd575b600188015497546001600160a01b031698604051998a998a95926001600160a01b036101009895929b9a99969361012089019c895216602088015260408701526060860152608085015260a084015260c083015260e08201520152565b0390a1565b60019550612e7b565b6002870154975060019450612e6f565b80612f24612f4292612f106005546001600160a01b031690565b6006546001600160a01b03165b30916145a1565b6006546001600160a01b031686546001600160a01b03165b9061483b565b38612d58565b819d50611629926118ed612db09593612f60936128f5565b9c91819350612d48565b838a1115613212575050805490612f81828a61204f565b9160088b0154612f918160ff1690565b90816131fd575b50806131ef575b61307557505050611629612ff191600099612fde612fbd838c61204f565b612fcf816118ed86600187015461204f565b6001840155600283015461204f565b6002820155612d8d82600383015461204f565b61300982612de1612dc884546001600160a01b031690565b50613015838c83614f4a565b156130295750505050505050600093929190565b91939750919594987fa9fda2d0d572da79a3bb128a2cd337112b06538bd638e802d7f392879dde36a894985061306b90612e476005546001600160a01b031690565b6001958697612e5f565b9750999b50995050959450506130bf91506130ad90600354906007860154806131e5575b506130a89060028801546125d6565b6125d6565b6130ba60015480926125ff565b6125ff565b6130c981876128f5565b600284015410156131a1575b50916001600160a01b039161310b867fc8f742aa90a6e6851d2252fa58ed695d3ca295b55bf5f1c2164a360cc8a093e2956128f5565b855561311b86600283015461204f565b6002820155600361312f87828401546128f5565b910155613141611629866015546128f5565b61319261315582546001600160a01b031690565b95600161316a6005546001600160a01b031690565b9301549554908460405195869516981696846040919493926060820195825260208201520152565b0390a360009190600090600090565b9161310b6131da6001600160a01b03947fc8f742aa90a6e6851d2252fa58ed695d3ca295b55bf5f1c2164a360cc8a093e29694986128f5565b9692945050916130d5565b91506130a8613099565b5060028b0154831115612f9f565b61320c915060081c60ff161590565b38612f98565b909299985060088901546132268160ff1690565b908161342d575b5061336a575b5050506000968b9661324982600183015461204f565b600182015561325c82600383015461204f565b6003820155600461327481830154828601549061204f565b9101556132866116298260155461204f565b61329e83612de1612dc885546001600160a01b031690565b506132aa8482846149ed565b156132bf575050505050505050600093929190565b7fa9fda2d0d572da79a3bb128a2cd337112b06538bd638e802d7f392879dde36a8969a508b919395995061330661306b939599989c612e476005546001600160a01b031690565b61333761331b6005546001600160a01b031690565b6006546001600160a01b0316613331858561204f565b91613ea6565b61336461334b85546001600160a01b031690565b9261335e6006546001600160a01b031690565b9261204f565b91614889565b8d818110613413578161337c9161204f565b92808411156133915750505050388080613233565b96509650989a5098509550506130ad6133c29160035490600787015480613409575b506130a89060028901546125d6565b906133cd82886128f5565b11156131a15750916001600160a01b039161310b867fc8f742aa90a6e6851d2252fa58ed695d3ca295b55bf5f1c2164a360cc8a093e2956128f5565b91506130a86133b3565b505050505050505050505091505060009190600090600090565b61343c915060081c60ff161590565b3861322d565b87949596979d91929c9a98939d9b999b156000146138335785547fffffffffffffffffffffff00ffffffffffffffffffffffffffffffffffffffff1686558b929190600387019081549361349c60048a01958654906128f5565b956134ab87600383015461204f565b600382015560046134c18183015488549061204f565b9101556134d36116298760155461204f565b6134eb8a612de1612dc88c546001600160a01b031690565b5083156137625750508c9d6002839e015461350681876128f5565b8411156136885750613562575b50505060028b6135566000936118ed7fa9fda2d0d572da79a3bb128a2cd337112b06538bd638e802d7f392879dde36a89b9c9d9e9f60010154858501549061204f565b60018201550155612e5f565b61357a929161357291549061204f565b90549061204f565b61358960028d0154809261204f565b9061359261477c565b80831161365f575b509b6135566000936136517fa9fda2d0d572da79a3bb128a2cd337112b06538bd638e802d7f392879dde36a89b9c9d9e9f946136016002966135e46005546001600160a01b031690565b906133316135fa6007546001600160a01b031690565b91876128f5565b613635816136176005546001600160a01b031690565b6006546001600160a01b03166007546001600160a01b0316916145a1565b6006546001600160a01b03168a546001600160a01b0316612f3c565b9350819d9c9b9a9950613513565b9298999a9b50905081613672828a6128f5565b9061367c916128f5565b9a99989791903861359a565b909350847fa9fda2d0d572da79a3bb128a2cd337112b06538bd638e802d7f392879dde36a89b9c9d9e9f95925083116000146137145750916136e3826136d36002956136f19561204f565b926136f9575b600186015461204f565b60018501558284015461204f565b910155612e5f565b61370f81612e476005546001600160a01b031690565b6136d9565b916118ed613724928296946128f5565b60028201556001613738848284015461204f565b910155613746575b50612e5f565b61375c90612e476005546001600160a01b031690565b38613740565b959e909d94935091505083156137fb577fa9fda2d0d572da79a3bb128a2cd337112b06538bd638e802d7f392879dde36a898999a9b9c9d508361235c6002936137c6936137cf575b6137b88360018801546128f5565b6001870155848601546128f5565b91015599612e5f565b6137f6836137e56005546001600160a01b031690565b6007546001600160a01b0316612f1d565b6137aa565b507fa9fda2d0d572da79a3bb128a2cd337112b06538bd638e802d7f392879dde36a89798999a9b92506136f1600291828401546128f5565b8b9c50846003879c949c015490613849916125d6565b926002870154938461385a916125ff565b9b8c948760048a01549061386d916125d6565b90613877916125ff565b9d6138838f80976128f5565b95866003830154906138949161204f565b60038301556004820154906138a89161204f565b906004015584601554906138bb9161204f565b6015558315613b84575060028e01546138d481866128f5565b841115613a0457505050817fa9fda2d0d572da79a3bb128a2cd337112b06538bd638e802d7f392879dde36a898999a9b9c6139156139de946139bd9461204f565b916139256002830154809461204f565b9161392e61477c565b8084116139fb575b5060029061395461235c94956135e46005546001600160a01b031690565b61396a856136176005546001600160a01b031690565b613990856139806006546001600160a01b031690565b8c546001600160a01b0316612f3c565b6139ab6139a184600184015461204f565b838301549061204f565b600182015560009101819055906128f5565b9a6139cf60019b5b600387015461204f565b6003860155600485015461204f565b60048401556139f182600285015461204f565b6002840155612e5f565b92506002613936565b8484959411600014613a8d57505050907fa9fda2d0d572da79a3bb128a2cd337112b06538bd638e802d7f392879dde36a89798999a9b613a54613a4a6139de948461204f565b600283015461204f565b60028201556001613a68838284015461204f565b910155613a8181612e476005546001600160a01b031690565b9a6139cf60019b6139c5565b8c859e9511600014613b1657505050908a9b6001613af28d613ae47fa9fda2d0d572da79a3bb128a2cd337112b06538bd638e802d7f392879dde36a89c9d9e9f613ada906139de9861204f565b60028601546128f5565b60028501558284015461204f565b910155613b0b8c612e476005546001600160a01b031690565b6139cf60019b6139c5565b8d6139cf939f7fa9fda2d0d572da79a3bb128a2cd337112b06538bd638e802d7f392879dde36a89c9d9e939f613b57906118ed6139de9998613b7f966128f5565b60028201556001613b6b838284015461204f565b9101556005546001600160a01b0316612e47565b6139c5565b939e919d909c9a9b999a99939250908215613c2a575081809e600283015490613bac916128f5565b90613bb6916128f5565b600282015581600182015490613bcb916128f5565b6001909101556005546001600160a01b031690600754613bf1906001600160a01b031690565b3090613bfc936145a1565b7fa9fda2d0d572da79a3bb128a2cd337112b06538bd638e802d7f392879dde36a8966139cf6139de926139c5565b9d7fa9fda2d0d572da79a3bb128a2cd337112b06538bd638e802d7f392879dde36a899925092816002613c666139de96826139cf9601546128f5565b9101556139c5565b906000613cc692613c8d6108876108876008546001600160a01b031690565b60405180809681947f82fd5bac000000000000000000000000000000000000000000000000000000008352600483019190602083019252565b03915afa908115613d4a57613d1760ff92600194600091613d29575b508c613d1e5760028a015460c08201525b60a0810151906020810151613d0781612baa565b60e060c083015192015192614384565b9150612cd2565b8c60c0820152613cf3565b613d44913d8091833e613d3c8183610228565b810190612ac5565b38613ce2565b612b9e565b90506001600160a01b03613d726108876013546001600160a01b039060081c1690565b91161438612ccc565b6001600160a01b03168015613e0b576001600160a01b037f9016d09d72d40fdae2fd8ceac6b6234c7706214fd39c1cd1e609a0528c19930054826001600160a01b03198216177f9016d09d72d40fdae2fd8ceac6b6234c7706214fd39c1cd1e609a0528c19930055167f8be0079c531659141344cd1fd0a4f28419497f9722a3daafe3b4186f6b6457e0600080a3565b7f1e4fbdf700000000000000000000000000000000000000000000000000000000600052600060045260246000fd5b613e4c90613e46615474565b906125d6565b600154908115612609570490565b3d15613e85573d90613e6b8261027d565b91613e796040519384610228565b82523d6000602084013e565b606090565b9081602091031261001557516104e581610d81565b1561001557565b91613eb190836154db565b80613ebb57505050565b61025b92600092838093613f61604093613f537fffffffff00000000000000000000000000000000000000000000000000000000601960208851613eff8a82610228565b828152017f7472616e7366657228616464726573732c75696e7432353629000000000000008152201695519384926020840197885260248401602090939291936001600160a01b0360408201951681520152565b03601f198101835282610228565b51925af1613f6d613e5a565b81613f79575b50613e9f565b8051801592508215613f8e575b505038613f73565b613fa19250602080918301019101613e8a565b3880613f86565b6001600160a01b037f9016d09d72d40fdae2fd8ceac6b6234c7706214fd39c1cd1e609a0528c19930054163303613fdb57565b7f118cdaa7000000000000000000000000000000000000000000000000000000006000523360045260246000fd5b1561401057565b606460405162461bcd60e51b815260206004820152601560248201527f706f6f6c207374617475732069732072656675736500000000000000000000006044820152fd5b8115612609570690565b601354919060ff8316614070816110f0565b6004811415806141d3575b61408490614009565b600b5490614091816110f0565b6003811480159281846141c0575b806141b7575b614102575b506140b4826110f0565b916140ee575b506140cd57505050600090600090600090565b6140e79260081c6001600160a01b031661553b565b61553b565b9192909190565b600191506140fb816110f0565b14386140ba565b61415c81604051602081019061415481613f5342414487917fffffffffffffffffffffffffffffffffffffffff0000000000000000000000009060549492845260601b16602083015260348201520190565b519020614054565b9060005b81811061416e5750506140aa565b61418c88886140e261095b61095687614187888b6128f5565b614054565b90916001600160a01b0381166141a757505050600101614160565b9b919a5098509650505050505050565b508015156140a5565b506141ca836110f0565b6002831461409f565b506141dd816110f0565b80151561407b565b601254680100000000000000008110156102235780600161420b92016012556012611dba565b9190916142e1576101008161424861422c600794516001600160a01b031690565b85906001600160a01b03166001600160a01b0319825416179055565b61429e6142586020830151151590565b85547fffffffffffffffffffffff00ffffffffffffffffffffffffffffffffffffffff1690151560a01b74ff000000000000000000000000000000000000000016178555565b60408101516001850155606081015160028501556080810151600385015560a0810151600485015560c0810151600585015560e081015160068501550151910155565b6120a7565b60ff6000199116019060ff82116116ea57565b6143589161434a61433b614350939695966143356001600160a01b0360135460081c166001600160a01b03166000526016602052604060002090565b90610303565b9161434581612baa565b6142e6565b9061033f565b5091836125d6565b600154908115612609570490805482018092116116ea5760019181550180549182018092116116ea5755565b6143bc92935061433b61434a916143356001600160a01b0360135460081c166001600160a01b03166000526016602052604060002090565b506001810191825480821161440a578082036143dd57505090600080925555565b8254906143ea83836125d6565b8115612609570481039081116116ea576144069255825461204f565b9055565b606460405162461bcd60e51b815260206004820152601c60248201527f736861726520616d6f756e7420697320696e73756666696369656e74000000006044820152fd5b9081602091031261001557516104e581611af1565b90816020910312610015575190565b604d81116116ea57600a0a90565b6144986108876108876005546001600160a01b031690565b6040519163313ce56760e01b8352602083600481855afa908115613d4a5761450b93600092614571575b506020919260405180809681947f70a08231000000000000000000000000000000000000000000000000000000008352600483019190916001600160a01b036020820193169052565b03915afa918215613d4a5760ff6145356104e59461453c93600091614542575b50600154906125d6565b9216614472565b906125ff565b614564915060203d60201161456a575b61455c8183610228565b810190614463565b3861452b565b503d614552565b6020925061459490833d851161459a575b61458c8183610228565b81019061444e565b916144c2565b503d614582565b926145af90929192846154db565b92836145bc575b50505050565b614683936000809493613f618295613f537fffffffff0000000000000000000000000000000000000000000000000000000060256040516145fe606082610228565b8181527f7432353629000000000000000000000000000000000000000000000000000000604060208301927f7472616e7366657246726f6d28616464726573732c616464726573732c75696e8452015220169560405194859360208501988952602485016001600160a01b036040929594938160608401971683521660208201520152565b388080806145b6565b33600052600c60205260ff60406000205416156146a557565b33600052600c6020526040600020600160ff19825416179055600b54680100000000000000008110156102235760018101600b55600b5481101561035357600b6000527f0175b7a638427703f0dbe7bb9bbf987a2551717b34e79f33b5b1008d1fa01db90180546001600160a01b0319163317905561473c6008612730336001600160a01b03166000526010602052604060002090565b61025b336126f7336001600160a01b03166000526010602052604060002090565b600154614769916125d6565b614771615474565b908115612609570490565b6147946108876108876005546001600160a01b031690565b6040519063313ce56760e01b8252602082600481845afa908115613d4a5761450b92600092614819575b506020906147d46006546001600160a01b031690565b9060405180809681947f70a08231000000000000000000000000000000000000000000000000000000008352600483019190916001600160a01b036020820193169052565b602091925061483490823d841161459a5761458c8183610228565b91906147be565b91907feb42cf637f927243245c50b4bf7fe105fe4f4d26209102240f2ba3d8e27a7df860606001600160a01b03808060055416946040519660098852602088015242604088015216951693a4565b91907feb42cf637f927243245c50b4bf7fe105fe4f4d26209102240f2ba3d8e27a7df860606001600160a01b03808060055416946040519660088852602088015242604088015216951693a4565b805480156122215760001901906148ee828261219e565b60001982549160031b1b1916905555565b90600182019061491f61121c611915838590600052602052604060002090565b6149e55782549060005b82811061493a575050505050600090565b81614952614948838861219e565b90549060031b1c90565b1461495f57600101614929565b9492909193945b61496f85612040565b8110156149be576001816149b661499461494861498e61496f966128e7565b8b61219e565b61499e838b61219e565b90919060001983549160031b92831b921b1916179055565b019050614966565b506149e093506149d16108d493956148d7565b90600052602052604060002090565b600190565b505050600090565b9091614a4e90614a0b6108876108876008546001600160a01b031690565b6000600185019182549060405180809781947f82fd5bac000000000000000000000000000000000000000000000000000000008352600483019190602083019252565b03915afa928315613d4a57600093614f2f575b50601354600360ff8216614a74816110f0565b1480614f23575b80614ef7575b614b24575b505050614af19250614a9f82546001600160a01b031690565b6001600160a01b03614ac06108876013546001600160a01b039060081c1690565b911614614af6575b507fffffffffffffffffffffff00ffffffffffffffffffffffffffffffffffffffff8154169055565b600090565b8060a0614b1e920151906020810151614b0e81612baa565b60e0600286015492015192614384565b38614ac8565b6001600160a01b03919060081c821695614b546107fd886001600160a01b03166000526010602052604060002090565b966001614b96614b7c84836115cd866001600160a01b03166000526010602052604060002090565b926001600160a01b03166000526010602052604060002090565b015560135460081c6001600160a01b03166002614bce614b7c84836115cd866001600160a01b03166000526010602052604060002090565b015560135460081c6001600160a01b0316936002870192614bf18285548861553b565b979196909616614c2a5750505050505050614c22614af1936109c661062e6013546001600160a01b039060081c1690565b388080614a86565b614c5191929497939699509794976001600160a01b03166000526010602052604060002090565b9060038201918989845490614c65916128f5565b90614c6f916128f5565b835560048101938a855490614c83916128f5565b855560028201928b8b855490614c989161204f565b90614ca29161204f565b84558a60038901558b60048901558254614cc2906001600160a01b031690565b8854600b60058b01556001600160a01b03919091167fffffffffffffffffffffff00000000000000000000000000000000000000000090911617740100000000000000000000000000000000000000001788555b86600689015560a08201516020830151614d2f81612baa565b8b549360e00193845191614d42936142f9565b549889614d59816000526017602052604060002090565b54614d6390612040565b9c8d9954614d77906001600160a01b031690565b92549351604080519384526001600160a01b038516602085015283018590526060830152608082019d909d5260a081019b909b5260c08b019b909b52600360e08b015299987f5e16b3b6e0a15f63fe16c5b5705c03147211e204ce01e5197d2a699c087e167b9061010090a16001015490549154925460135460081c6001600160a01b0316614e19906001600160a01b0316600052600f602052604060002090565b54604080516001600160a01b038c16815260208101949094528301939093526060820193909352608081019290925260a0820152600360c08201527f9a5787718e945183fe431d089b46b9ee2c5cd3ffbb79ca1a9b117fc29b31c6aa9060e090a1604051958695614ece95879293610100946001600160a01b036005979399989461012087019a8752166020860152604085015260608401526080830152600060a083015260c0820152600160e08201520152565b037fa9fda2d0d572da79a3bb128a2cd337112b06538bd638e802d7f392879dde36a891a1600190565b5084546001600160a01b03166001600160a01b03614f1a600884901c8216610887565b91161415614a81565b5060005460ff16614a7b565b614f4391933d8091833e613d3c8183610228565b9138614a61565b9091614f6890614a0b6108876108876008546001600160a01b031690565b03915afa928315613d4a576000936151c4575b50601354600360ff8216614f8e816110f0565b14806151b8575b8061518c575b614fb857505050614af19250614a9f82546001600160a01b031690565b6001600160a01b03919060081c821695614fe86107fd886001600160a01b03166000526010602052604060002090565b966001615010614b7c84836115cd866001600160a01b03166000526010602052604060002090565b015560135460081c6001600160a01b03166002615048614b7c84836115cd866001600160a01b03166000526010602052604060002090565b015560135460081c6001600160a01b031693600287019261506b8285548861553b565b97919690961661509c5750505050505050614c22614af1936109c661062e6013546001600160a01b039060081c1690565b6150c391929497939699509794976001600160a01b03166000526010602052604060002090565b90600382019189898454906150d7916128f5565b906150e1916128f5565b835560048101938a8554906150f5916128f5565b855560028201928b8b85549061510a9161204f565b906151149161204f565b84558a60038901558b60048901558254615134906001600160a01b031690565b8854600c60058b01556001600160a01b03919091167fffffffffffffffffffffff0000000000000000000000000000000000000000009091161774010000000000000000000000000000000000000000178855614d16565b5084546001600160a01b03166001600160a01b036151af600884901c8216610887565b91161415614f9b565b5060005460ff16614f95565b6151d891933d8091833e613d3c8183610228565b9138614f7b565b90916151fd90614a0b6108876108876008546001600160a01b031690565b03915afa928315613d4a57600093615459575b50601354600360ff8216615223816110f0565b148061544d575b80615421575b61524d57505050614af19250614a9f82546001600160a01b031690565b6001600160a01b03919060081c82169561527d6107fd886001600160a01b03166000526010602052604060002090565b9660016152a5614b7c84836115cd866001600160a01b03166000526010602052604060002090565b015560135460081c6001600160a01b031660026152dd614b7c84836115cd866001600160a01b03166000526010602052604060002090565b015560135460081c6001600160a01b03169360028701926153008285548861553b565b9791969096166153315750505050505050614c22614af1936109c661062e6013546001600160a01b039060081c1690565b61535891929497939699509794976001600160a01b03166000526010602052604060002090565b906003820191898984549061536c916128f5565b90615376916128f5565b835560048101938a85549061538a916128f5565b855560028201928b8b85549061539f9161204f565b906153a99161204f565b84558a60038901558b600489015582546153c9906001600160a01b031690565b8854600d60058b01556001600160a01b03919091167fffffffffffffffffffffff0000000000000000000000000000000000000000009091161774010000000000000000000000000000000000000000178855614d16565b5084546001600160a01b03166001600160a01b03615444600884901c8216610887565b91161415615230565b5060005460ff1661522a565b61546d91933d8091833e613d3c8183610228565b9138615210565b600460206001600160a01b0360095416604051928380927f3b1e6a590000000000000000000000000000000000000000000000000000000082525afa908115613d4a576000916154c2575090565b6104e5915060203d60201161456a5761455c8183610228565b9060206001600160a01b039260046040518095819363313ce56760e01b8352165afa8015613d4a5760ff613e4691613e4c9460009161551c575b5016614472565b615535915060203d60201161459a5761458c8183610228565b38615515565b61555b6107fd826001600160a01b03166000526010602052604060002090565b9161556a610120840151151590565b6155fb576155c36130ba6130ba6040936002549060a0880151806155f1575b50806155a861559b8b6130ba946125d6565b93600154968780966125ff565b996004549060c08b0151806155e7575b506130a891926125d6565b9201516155d083856128f5565b11156155e457505050600090600090600090565b92565b91506130a86155b8565b91506130ba615589565b50505050600090600090600090565b9081549168010000000000000000831015610223578261499e91600161025b9501815561219e565b80156116ea576000190190565b919060018301816000528060205260ff6040600020541661570c57600084545b8082106156ca5750615671838661560a565b61567b8554612040565b81811161569a5750906149d18361499e611a2a95946149e0979861219e565b806156c06156b66149486156b06156c595612040565b8a61219e565b61499e838a61219e565b615632565b61567b565b908181018082116116ea5760011c90846156e4838961219e565b90549060031b1c106000146157055750600181018091116116ea579061565f565b915061565f565b506000925050565b60ff7ff0c57e16840df040f15088dc2f81fe391c3923bec73e23a9662efc9c229c6a005460401c161561574357565b7fd7e6bcf80000000000000000000000000000000000000000000000000000000060005260046000fdfea2646970667358221220a8ef2c7a8b84fe8a971413412871398b755e5fac886d71a4612f38b94fa7424464736f6c634300081c0033",
  "linkReferences": {},
  "deployedLinkReferences": {}
}