{
  "_format": "hh-sol-artifact-1",
  "contractName": "PrivatePool",
  "sourceName": "contracts/PrivatePool.sol",
  "abi": [
    {
      "inputs": [],
      "name": "InvalidInitialization",
      "type": "error"
    },
    {
      "inputs": [],
      "name": "NotInitializing",
      "type": "error"
    },
    {
      "inputs": [
        {
          "internalType": "address",
          "name": "owner",
          "type": "address"
        }
      ],
      "name": "OwnableInvalidOwner",
      "type": "error"
    },
    {
      "inputs": [
        {
          "internalType": "address",
          "name": "account",
          "type": "address"
        }
      ],
      "name": "OwnableUnauthorizedAccount",
      "type": "error"
    },
    {
      "anonymous": false,
      "inputs": [
        {
          "indexed": true,
          "internalType": "address",
          "name": "account",
          "type": "address"
        },
        {
          "indexed": true,
          "internalType": "address",
          "name": "token",
          "type": "address"
        },
        {
          "indexed": false,
          "internalType": "uint256",
          "name": "orderID",
          "type": "uint256"
        },
        {
          "indexed": false,
          "internalType": "uint256",
          "name": "amount",
          "type": "uint256"
        },
        {
          "indexed": false,
          "internalType": "uint256",
          "name": "margin",
          "type": "uint256"
        }
      ],
      "name": "AddMargin",
      "type": "event"
    },
    {
      "anonymous": false,
      "inputs": [
        {
          "indexed": false,
          "internalType": "address",
          "name": "maker",
          "type": "address"
        },
        {
          "indexed": false,
          "internalType": "uint256",
          "name": "amount",
          "type": "uint256"
        },
        {
          "indexed": false,
          "internalType": "uint256",
          "name": "availableAmount",
          "type": "uint256"
        },
        {
          "indexed": false,
          "internalType": "uint256",
          "name": "lockedAmount",
          "type": "uint256"
        },
        {
          "indexed": false,
          "internalType": "uint256",
          "name": "maintenanceMargin",
          "type": "uint256"
        },
        {
          "indexed": false,
          "internalType": "uint256",
          "name": "share",
          "type": "uint256"
        },
        {
          "indexed": false,
          "internalType": "uint256",
          "name": "flag",
          "type": "uint256"
        }
      ],
      "name": "BalanceOfMaker",
      "type": "event"
    },
    {
      "anonymous": false,
      "inputs": [
        {
          "indexed": false,
          "internalType": "uint256",
          "name": "dealID",
          "type": "uint256"
        },
        {
          "indexed": false,
          "internalType": "address",
          "name": "maker",
          "type": "address"
        },
        {
          "indexed": false,
          "internalType": "uint256",
          "name": "size",
          "type": "uint256"
        },
        {
          "indexed": false,
          "internalType": "uint256",
          "name": "price",
          "type": "uint256"
        },
        {
          "indexed": false,
          "internalType": "uint256",
          "name": "makerID",
          "type": "uint256"
        },
        {
          "indexed": false,
          "internalType": "uint256",
          "name": "makerGain",
          "type": "uint256"
        },
        {
          "indexed": false,
          "internalType": "uint256",
          "name": "makerLoss",
          "type": "uint256"
        },
        {
          "indexed": false,
          "internalType": "uint256",
          "name": "closeFlag",
          "type": "uint256"
        },
        {
          "indexed": false,
          "internalType": "uint256",
          "name": "flag",
          "type": "uint256"
        }
      ],
      "name": "CloseMakerDealInPool",
      "type": "event"
    },
    {
      "anonymous": false,
      "inputs": [
        {
          "indexed": false,
          "internalType": "uint64",
          "name": "version",
          "type": "uint64"
        }
      ],
      "name": "Initialized",
      "type": "event"
    },
    {
      "anonymous": false,
      "inputs": [
        {
          "indexed": false,
          "internalType": "uint256",
          "name": "dealID",
          "type": "uint256"
        },
        {
          "indexed": false,
          "internalType": "address",
          "name": "maker",
          "type": "address"
        },
        {
          "indexed": false,
          "internalType": "uint256",
          "name": "value",
          "type": "uint256"
        },
        {
          "indexed": false,
          "internalType": "uint256",
          "name": "price",
          "type": "uint256"
        },
        {
          "indexed": false,
          "internalType": "uint256",
          "name": "makerID",
          "type": "uint256"
        },
        {
          "indexed": false,
          "internalType": "uint256",
          "name": "marginAmount",
          "type": "uint256"
        },
        {
          "indexed": false,
          "internalType": "uint256",
          "name": "maintenanceMargin",
          "type": "uint256"
        }
      ],
      "name": "LockInPrivatePool",
      "type": "event"
    },
    {
      "anonymous": false,
      "inputs": [
        {
          "indexed": false,
          "internalType": "uint256",
          "name": "dealID",
          "type": "uint256"
        },
        {
          "indexed": false,
          "internalType": "address",
          "name": "maker",
          "type": "address"
        },
        {
          "indexed": false,
          "internalType": "uint256",
          "name": "size",
          "type": "uint256"
        },
        {
          "indexed": false,
          "internalType": "uint256",
          "name": "price",
          "type": "uint256"
        },
        {
          "indexed": false,
          "internalType": "uint256",
          "name": "makerID",
          "type": "uint256"
        },
        {
          "indexed": false,
          "internalType": "uint256",
          "name": "marginAmount",
          "type": "uint256"
        },
        {
          "indexed": false,
          "internalType": "uint256",
          "name": "maintenanceMargin",
          "type": "uint256"
        },
        {
          "indexed": false,
          "internalType": "uint256",
          "name": "flag",
          "type": "uint256"
        }
      ],
      "name": "LockPoolMargin",
      "type": "event"
    },
    {
      "anonymous": false,
      "inputs": [
        {
          "indexed": true,
          "internalType": "address",
          "name": "previousOwner",
          "type": "address"
        },
        {
          "indexed": true,
          "internalType": "address",
          "name": "newOwner",
          "type": "address"
        }
      ],
      "name": "OwnershipTransferred",
      "type": "event"
    },
    {
      "anonymous": false,
      "inputs": [
        {
          "indexed": true,
          "internalType": "address",
          "name": "account",
          "type": "address"
        },
        {
          "indexed": true,
          "internalType": "address",
          "name": "token",
          "type": "address"
        },
        {
          "indexed": false,
          "internalType": "uint256",
          "name": "amount",
          "type": "uint256"
        },
        {
          "indexed": false,
          "internalType": "uint256",
          "name": "poolType",
          "type": "uint256"
        }
      ],
      "name": "Provide",
      "type": "event"
    },
    {
      "anonymous": false,
      "inputs": [
        {
          "indexed": false,
          "internalType": "address",
          "name": "sender",
          "type": "address"
        },
        {
          "indexed": false,
          "internalType": "address",
          "name": "received",
          "type": "address"
        },
        {
          "indexed": false,
          "internalType": "enum ICommon.TransactionType",
          "name": "transactionType",
          "type": "uint8"
        },
        {
          "indexed": false,
          "internalType": "uint256",
          "name": "amount",
          "type": "uint256"
        },
        {
          "indexed": false,
          "internalType": "uint256",
          "name": "timestamp",
          "type": "uint256"
        }
      ],
      "name": "TransferFee",
      "type": "event"
    },
    {
      "anonymous": false,
      "inputs": [
        {
          "indexed": true,
          "internalType": "address",
          "name": "account",
          "type": "address"
        },
        {
          "indexed": true,
          "internalType": "address",
          "name": "token",
          "type": "address"
        },
        {
          "indexed": false,
          "internalType": "uint256",
          "name": "amount",
          "type": "uint256"
        },
        {
          "indexed": false,
          "internalType": "uint256",
          "name": "poolType",
          "type": "uint256"
        }
      ],
      "name": "Withdraw",
      "type": "event"
    },
    {
      "anonymous": false,
      "inputs": [
        {
          "indexed": false,
          "internalType": "address",
          "name": "sender",
          "type": "address"
        },
        {
          "indexed": false,
          "internalType": "uint256",
          "name": "beforeLeverage",
          "type": "uint256"
        },
        {
          "indexed": false,
          "internalType": "uint256",
          "name": "afterLeverage",
          "type": "uint256"
        }
      ],
      "name": "setLeverage",
      "type": "event"
    },
    {
      "stateMutability": "nonpayable",
      "type": "fallback"
    },
    {
      "inputs": [
        {
          "internalType": "uint256",
          "name": "_dealID",
          "type": "uint256"
        },
        {
          "internalType": "uint256",
          "name": "_amount",
          "type": "uint256"
        }
      ],
      "name": "addMarginAmount",
      "outputs": [],
      "stateMutability": "nonpayable",
      "type": "function"
    },
    {
      "inputs": [
        {
          "internalType": "uint256",
          "name": "_dealID",
          "type": "uint256"
        },
        {
          "internalType": "uint256",
          "name": "_profit",
          "type": "uint256"
        }
      ],
      "name": "checkMarginRisk",
      "outputs": [
        {
          "internalType": "bool",
          "name": "isRisk",
          "type": "bool"
        }
      ],
      "stateMutability": "view",
      "type": "function"
    },
    {
      "inputs": [
        {
          "internalType": "uint256",
          "name": "_id",
          "type": "uint256"
        },
        {
          "internalType": "uint8",
          "name": "_type",
          "type": "uint8"
        },
        {
          "internalType": "uint256",
          "name": "_profit",
          "type": "uint256"
        },
        {
          "internalType": "uint256",
          "name": "_loss",
          "type": "uint256"
        },
        {
          "internalType": "uint256",
          "name": "_amount",
          "type": "uint256"
        },
        {
          "internalType": "uint256",
          "name": "_price",
          "type": "uint256"
        },
        {
          "internalType": "bool",
          "name": "_transform",
          "type": "bool"
        }
      ],
      "name": "close",
      "outputs": [
        {
          "internalType": "uint256",
          "name": "makerProfit",
          "type": "uint256"
        },
        {
          "internalType": "uint256",
          "name": "makerLoss",
          "type": "uint256"
        },
        {
          "internalType": "bool",
          "name": "isLiquidated",
          "type": "bool"
        },
        {
          "internalType": "bool",
          "name": "isAgreement",
          "type": "bool"
        }
      ],
      "stateMutability": "nonpayable",
      "type": "function"
    },
    {
      "inputs": [],
      "name": "escrowAccount",
      "outputs": [
        {
          "internalType": "address",
          "name": "",
          "type": "address"
        }
      ],
      "stateMutability": "view",
      "type": "function"
    },
    {
      "inputs": [
        {
          "internalType": "uint256",
          "name": "_start",
          "type": "uint256"
        },
        {
          "internalType": "uint256",
          "name": "_end",
          "type": "uint256"
        },
        {
          "internalType": "uint256",
          "name": "_count",
          "type": "uint256"
        }
      ],
      "name": "getActiveDeals",
      "outputs": [
        {
          "components": [
            {
              "internalType": "address",
              "name": "makerAddr",
              "type": "address"
            },
            {
              "internalType": "bool",
              "name": "locked",
              "type": "bool"
            },
            {
              "internalType": "uint256",
              "name": "takerId",
              "type": "uint256"
            },
            {
              "internalType": "uint256",
              "name": "size",
              "type": "uint256"
            },
            {
              "internalType": "uint256",
              "name": "marginAmount",
              "type": "uint256"
            },
            {
              "internalType": "uint256",
              "name": "maintenanceMargin",
              "type": "uint256"
            },
            {
              "internalType": "uint256",
              "name": "pubPriFlag",
              "type": "uint256"
            },
            {
              "internalType": "uint256",
              "name": "movePrice",
              "type": "uint256"
            },
            {
              "internalType": "uint256",
              "name": "time",
              "type": "uint256"
            }
          ],
          "internalType": "struct IPool.MakerDeal[]",
          "name": "info",
          "type": "tuple[]"
        },
        {
          "internalType": "uint256[]",
          "name": "ids",
          "type": "uint256[]"
        },
        {
          "internalType": "uint256",
          "name": "end",
          "type": "uint256"
        }
      ],
      "stateMutability": "view",
      "type": "function"
    },
    {
      "inputs": [
        {
          "internalType": "address",
          "name": "maker",
          "type": "address"
        }
      ],
      "name": "getLP2Account",
      "outputs": [
        {
          "components": [
            {
              "internalType": "address payable",
              "name": "holder",
              "type": "address"
            },
            {
              "internalType": "uint256",
              "name": "amount",
              "type": "uint256"
            },
            {
              "internalType": "uint256",
              "name": "availableAmount",
              "type": "uint256"
            },
            {
              "internalType": "uint256",
              "name": "lockedAmount",
              "type": "uint256"
            },
            {
              "internalType": "uint256",
              "name": "maintenanceMargin",
              "type": "uint256"
            },
            {
              "internalType": "uint256",
              "name": "marginRate",
              "type": "uint256"
            },
            {
              "internalType": "uint256",
              "name": "maintenanceMarginRate",
              "type": "uint256"
            },
            {
              "internalType": "uint256",
              "name": "addMarginRate",
              "type": "uint256"
            },
            {
              "internalType": "bool",
              "name": "autoAddMargin",
              "type": "bool"
            },
            {
              "internalType": "bool",
              "name": "isRejectOrder",
              "type": "bool"
            }
          ],
          "internalType": "struct IPool.LP2Account",
          "name": "",
          "type": "tuple"
        }
      ],
      "stateMutability": "view",
      "type": "function"
    },
    {
      "inputs": [],
      "name": "getMakerAddresses",
      "outputs": [
        {
          "internalType": "address[]",
          "name": "",
          "type": "address[]"
        }
      ],
      "stateMutability": "view",
      "type": "function"
    },
    {
      "inputs": [
        {
          "internalType": "uint256",
          "name": "makerDealID",
          "type": "uint256"
        }
      ],
      "name": "getMakerDeal",
      "outputs": [
        {
          "components": [
            {
              "internalType": "address",
              "name": "makerAddr",
              "type": "address"
            },
            {
              "internalType": "bool",
              "name": "locked",
              "type": "bool"
            },
            {
              "internalType": "uint256",
              "name": "takerId",
              "type": "uint256"
            },
            {
              "internalType": "uint256",
              "name": "size",
              "type": "uint256"
            },
            {
              "internalType": "uint256",
              "name": "marginAmount",
              "type": "uint256"
            },
            {
              "internalType": "uint256",
              "name": "maintenanceMargin",
              "type": "uint256"
            },
            {
              "internalType": "uint256",
              "name": "pubPriFlag",
              "type": "uint256"
            },
            {
              "internalType": "uint256",
              "name": "movePrice",
              "type": "uint256"
            },
            {
              "internalType": "uint256",
              "name": "time",
              "type": "uint256"
            }
          ],
          "internalType": "struct IPool.MakerDeal",
          "name": "",
          "type": "tuple"
        }
      ],
      "stateMutability": "view",
      "type": "function"
    },
    {
      "inputs": [
        {
          "internalType": "uint256[]",
          "name": "_ids",
          "type": "uint256[]"
        }
      ],
      "name": "getMakerDeals",
      "outputs": [
        {
          "components": [
            {
              "internalType": "address",
              "name": "makerAddr",
              "type": "address"
            },
            {
              "internalType": "bool",
              "name": "locked",
              "type": "bool"
            },
            {
              "internalType": "uint256",
              "name": "takerId",
              "type": "uint256"
            },
            {
              "internalType": "uint256",
              "name": "size",
              "type": "uint256"
            },
            {
              "internalType": "uint256",
              "name": "marginAmount",
              "type": "uint256"
            },
            {
              "internalType": "uint256",
              "name": "maintenanceMargin",
              "type": "uint256"
            },
            {
              "internalType": "uint256",
              "name": "pubPriFlag",
              "type": "uint256"
            },
            {
              "internalType": "uint256",
              "name": "movePrice",
              "type": "uint256"
            },
            {
              "internalType": "uint256",
              "name": "time",
              "type": "uint256"
            }
          ],
          "internalType": "struct IPool.MakerDeal[]",
          "name": "deals",
          "type": "tuple[]"
        }
      ],
      "stateMutability": "view",
      "type": "function"
    },
    {
      "inputs": [],
      "name": "getMakerDealsLength",
      "outputs": [
        {
          "internalType": "uint256",
          "name": "lpLen",
          "type": "uint256"
        }
      ],
      "stateMutability": "view",
      "type": "function"
    },
    {
      "inputs": [
        {
          "internalType": "address",
          "name": "maker",
          "type": "address"
        }
      ],
      "name": "getMakerUserDeals",
      "outputs": [
        {
          "internalType": "uint256[]",
          "name": "",
          "type": "uint256[]"
        }
      ],
      "stateMutability": "view",
      "type": "function"
    },
    {
      "inputs": [],
      "name": "getShareAddresses",
      "outputs": [
        {
          "internalType": "address[]",
          "name": "",
          "type": "address[]"
        }
      ],
      "stateMutability": "view",
      "type": "function"
    },
    {
      "inputs": [
        {
          "internalType": "address",
          "name": "initialOwner",
          "type": "address"
        },
        {
          "internalType": "address",
          "name": "_tokenAddress",
          "type": "address"
        },
        {
          "internalType": "address",
          "name": "_riskFundAddr",
          "type": "address"
        }
      ],
      "name": "initialize",
      "outputs": [],
      "stateMutability": "nonpayable",
      "type": "function"
    },
    {
      "inputs": [
        {
          "internalType": "uint256",
          "name": "",
          "type": "uint256"
        }
      ],
      "name": "matchIds",
      "outputs": [
        {
          "internalType": "uint256",
          "name": "",
          "type": "uint256"
        }
      ],
      "stateMutability": "view",
      "type": "function"
    },
    {
      "inputs": [
        {
          "internalType": "string",
          "name": "_name",
          "type": "string"
        },
        {
          "internalType": "uint256",
          "name": "_id",
          "type": "uint256"
        },
        {
          "internalType": "uint256",
          "name": "_amount",
          "type": "uint256"
        },
        {
          "internalType": "uint256",
          "name": "_tradingFee",
          "type": "uint256"
        },
        {
          "internalType": "uint256",
          "name": "_price",
          "type": "uint256"
        },
        {
          "internalType": "enum ICommon.Direct",
          "name": "_direction",
          "type": "uint8"
        }
      ],
      "name": "matchOrder",
      "outputs": [
        {
          "internalType": "bool",
          "name": "success",
          "type": "bool"
        },
        {
          "internalType": "uint256",
          "name": "remaining",
          "type": "uint256"
        }
      ],
      "stateMutability": "nonpayable",
      "type": "function"
    },
    {
      "inputs": [],
      "name": "owner",
      "outputs": [
        {
          "internalType": "address",
          "name": "",
          "type": "address"
        }
      ],
      "stateMutability": "view",
      "type": "function"
    },
    {
      "inputs": [],
      "name": "poolType",
      "outputs": [
        {
          "internalType": "enum ICommon.PoolFlag",
          "name": "",
          "type": "uint8"
        }
      ],
      "stateMutability": "view",
      "type": "function"
    },
    {
      "inputs": [
        {
          "internalType": "address",
          "name": "",
          "type": "address"
        },
        {
          "internalType": "string",
          "name": "",
          "type": "string"
        },
        {
          "internalType": "uint256",
          "name": "",
          "type": "uint256"
        }
      ],
      "name": "positions",
      "outputs": [
        {
          "internalType": "uint256",
          "name": "value",
          "type": "uint256"
        },
        {
          "internalType": "uint256",
          "name": "size",
          "type": "uint256"
        }
      ],
      "stateMutability": "view",
      "type": "function"
    },
    {
      "inputs": [
        {
          "internalType": "uint256",
          "name": "_amount",
          "type": "uint256"
        },
        {
          "internalType": "uint256",
          "name": "_priOrPub",
          "type": "uint256"
        }
      ],
      "name": "provide",
      "outputs": [],
      "stateMutability": "nonpayable",
      "type": "function"
    },
    {
      "inputs": [],
      "name": "renounceOwnership",
      "outputs": [],
      "stateMutability": "nonpayable",
      "type": "function"
    },
    {
      "inputs": [
        {
          "internalType": "address",
          "name": "_perpetual",
          "type": "address"
        },
        {
          "internalType": "address",
          "name": "_orderBook",
          "type": "address"
        },
        {
          "internalType": "address",
          "name": "_tradeAgent",
          "type": "address"
        },
        {
          "internalType": "address",
          "name": "_tradeStation",
          "type": "address"
        }
      ],
      "name": "setKeepers",
      "outputs": [],
      "stateMutability": "nonpayable",
      "type": "function"
    },
    {
      "inputs": [
        {
          "internalType": "uint256",
          "name": "_marginRate",
          "type": "uint256"
        },
        {
          "internalType": "uint256",
          "name": "_maintenanceMarginRate",
          "type": "uint256"
        },
        {
          "internalType": "uint256",
          "name": "_addMarginRate",
          "type": "uint256"
        },
        {
          "internalType": "bool",
          "name": "_isRejectOrder",
          "type": "bool"
        },
        {
          "internalType": "bool",
          "name": "_autoAddMargin",
          "type": "bool"
        }
      ],
      "name": "setUserParam",
      "outputs": [],
      "stateMutability": "nonpayable",
      "type": "function"
    },
    {
      "inputs": [],
      "name": "totalLockedLiquidity",
      "outputs": [
        {
          "internalType": "uint256",
          "name": "",
          "type": "uint256"
        }
      ],
      "stateMutability": "view",
      "type": "function"
    },
    {
      "inputs": [
        {
          "internalType": "address",
          "name": "newOwner",
          "type": "address"
        }
      ],
      "name": "transferOwnership",
      "outputs": [],
      "stateMutability": "nonpayable",
      "type": "function"
    },
    {
      "inputs": [
        {
          "internalType": "uint256",
          "name": "_amount",
          "type": "uint256"
        },
        {
          "internalType": "uint256",
          "name": "_priOrPub",
          "type": "uint256"
        }
      ],
      "name": "withdraw",
      "outputs": [],
      "stateMutability": "nonpayable",
      "type": "function"
    }
  ],
  "bytecode": "0x6080806040523460155761545c908161001b8239f35b600080fdfe6080604052600436101561001a575b3461001557005b600080fd5b60003560e01c80630c8c3516146101aa57806325737d40146101a557806336ff6a70146101a0578063441a3e701461019b57806346ceec981461019657806354b3b0181461019157806360d32e8d1461018c578063715018a61461018757806381a4f17314610182578063880a1a771461017d5780638da5cb5b146101785780638e3a0e9214610173578063a8ece51a1461016e578063b1dd61b614610169578063bc1c1c6c14610164578063c0c53b8b1461015f578063c22989421461015a578063c23e629f14610155578063d048f59014610150578063d3c76d661461014b578063e771ad7214610146578063e8c3c54f14610141578063f26a3e1d1461013c578063f2da708d146101375763f2fde38b0361000e57611b81565b611b63565b611ad9565b611827565b611707565b611685565b611592565b6113b8565b611331565b611096565b611016565b610fec565b610fa9565b610f2b565b610edb565b610e4f565b610d00565b610c67565b610bcb565b610ba1565b610a7a565b61055d565b610531565b61049a565b610328565b6001600160a01b0381160361001557565b634e487b7160e01b600052604160045260246000fd5b610140810190811067ffffffffffffffff8211176101f357604052565b6101c0565b90601f601f19910116810190811067ffffffffffffffff8211176101f357604052565b6040519061022b610140836101f8565b565b6040519061022b610120836101f8565b6040519061022b610160836101f8565b67ffffffffffffffff81116101f357601f01601f191660200190565b81601f82011215610015578035906102808261024d565b9261028e60405194856101f8565b8284526020838301011161001557816000926020809301838601378301015290565b60005b8381106102c35750506000910152565b81810151838201526020016102b3565b6020906102ed9282604051948386809551938492016102b0565b82019081520301902090565b634e487b7160e01b600052603260045260246000fd5b9060028110156103235760011b0190600090565b6102f9565b3461001557606060031936011261001557600435610345816101af565b60243567ffffffffffffffff811161001557602061036a610396923690600401610269565b6001600160a01b03604435941660005260158252604060002082604051948386809551938492016102b0565b820190815203019020906002811015610015576103b29161030f565b508054600190910154604080519283526020830191909152819081015b0390f35b67ffffffffffffffff81116101f35760051b60200190565b906020808351928381520192019060005b8181106104095750505090565b90919260206101208261047b600194885161010080916001600160a01b03815116845260208101511515602085015260408101516040850152606081015160608501526080810151608085015260a081015160a085015260c081015160c085015260e081015160e08501520151910152565b0194019291016103fc565b9060206104979281815201906103eb565b90565b346100155760206003193601126100155760043567ffffffffffffffff81116100155736602382011215610015578060040135906104d7826103d3565b916104e560405193846101f8565b8083526024602084019160051b8301019136831161001557602401905b828210610521576103cf61051585611d2e565b60405191829182610486565b8135815260209182019101610502565b346100155760206003193601126100155760043560005260166020526020604060002054604051908152f35b346100155760406003193601126100155760243560043580801515806109cb575b61058790611d7f565b6105b361059660135460ff1690565b61059f81610fdd565b84600382149182156109a5575b5050611e0e565b6001830361078757506105c581613b6e565b60026105f96105e06013546001600160a01b039060081c1690565b6001600160a01b03166000526010602052604060002090565b01548211158061075b575b61060d90611eab565b336000908152600f60205260409020610627838254611f1b565b90556013546106569060081c6001600160a01b03165b6001600160a01b0316600052600f602052604060002090565b610661838254611f1b565b9055600161067e6105e06013546001600160a01b039060081c1690565b0161068a828254611f1b565b90556106b360026106aa6105e06013546001600160a01b039060081c1690565b01918254611f1b565b9055336000908152600f602052604090205415610746575b6106e8816106e16005546001600160a01b031690565b3390613bda565b7ff341246adaac6f497bc2a656f546ab9e182111d630394f0c57c710a59a2cb5676107416001600160a01b036107266005546001600160a01b031690565b60408051958652602086019690965216933393918291820190565b0390a3005b336000908152600f60205260408120556106cb565b5061060d61077c336001600160a01b0316600052600f602052604060002090565b548311159050610604565b600283036109a0576107b46107af336001600160a01b03166000526010602052604060002090565b611e15565b90604082016107c68151831115611eab565b6107e260208401926107d9818551611f1b565b84528251611f1b565b905260608201511580610996575b8061098a575b61097d575b51908161095357505060005b600b54908181101561094c576108396108456108228361204f565b9290923393546001600160a01b039160031b1c1690565b6001600160a01b031690565b14610854576001915001610807565b61085d82611f0c565b81036108f3575b5050610890610886336001600160a01b0316600052600c602052604060002090565b60ff198154169055565b6108e66108b0336001600160a01b03166000526010602052604060002090565b60086000918281558260018201558260028201558260038201558260048201558260058201558260068201558260078201550155565b6108ee612098565b6106cb565b61092661092061090d61090861094595611f0c565b61204f565b90546001600160a01b039160031b1c1690565b9161204f565b9091906001600160a01b038084549260031b9316831b921b1916179055565b3880610864565b50506106cb565b6109646108ee926001541115611f28565b336000908152601060205260409020611f89565b611f89565b80516000825292506107fb565b508051600154116107f6565b50805115156107f0565b611dca565b9091506109b182610fdd565b6109ba82610fdd565b6109c381610fdd565b1484386105ac565b506105876109e86108396013546001600160a01b039060081c1690565b331415905061057e565b61022b9092919261012080610140830195610a168482516001600160a01b03169052565b6020810151602085015260408101516040850152606081015160608501526080810151608085015260a081015160a085015260c081015160c085015260e081015160e0850152610a7161010082015161010086019015159052565b01511515910152565b34610015576020600319360112610015576001600160a01b03600435610a9f816101af565b6000610120604051610ab0816101d6565b8281528260208201528260408201528260608201528260808201528260a08201528260c08201528260e08201528261010082015201521660005260106020526103cf6040600020610b95610b8b6008610b0761021b565b93610b29610b1c82546001600160a01b031690565b6001600160a01b03168652565b60018101546020860152600281015460408601526003810154606086015260048101546080860152600581015460a0860152600681015460c0860152600781015460e08601520154610b8260ff82161515610100860152565b60081c60ff1690565b1515610120830152565b604051918291826109f2565b346100155760006003193601126100155760206001600160a01b0360135460081c16604051908152f35b3461001557602060031936011261001557610120610bfc610bf6600435610bf0611bae565b50611c67565b50611ca2565b610c65604051809261010080916001600160a01b03815116845260208101511515602085015260408101516040850152606081015160608501526080810151608085015260a081015160a085015260c081015160c085015260e081015160e08501520151910152565bf35b3461001557600060031936011261001557610c80613cdc565b60006001600160a01b037f9016d09d72d40fdae2fd8ceac6b6234c7706214fd39c1cd1e609a0528c199300546001600160a01b031981167f9016d09d72d40fdae2fd8ceac6b6234c7706214fd39c1cd1e609a0528c19930055167f8be0079c531659141344cd1fd0a4f28419497f9722a3daafe3b4186f6b6457e08280a3005b3461001557608060031936011261001557610e0a610dc4600435610d23816101af565b610df1610dc460243592610d36846101af565b610dd1610dc4604435610d48816101af565b6001600160a01b0360643597610d5d896101af565b610d65613cdc565b16806001600160a01b03196008541617600855600052600e6020526040600020600160ff198254161790556001600160a01b0381166001600160a01b031960095416176009556001600160a01b0316600052600e602052604060002090565b600160ff19825416179055565b610df1816001600160a01b03166001600160a01b03196007541617600755565b6001600160a01b0316600052600e602052604060002090565b005b602060408183019282815284518094520192019060005b818110610e305750505090565b82516001600160a01b0316845260209384019390920191600101610e23565b3461001557600060031936011261001557604051806020600a54918281520190600a6000527fc65a7bb8d6351c1cf70c95a316cc6a92839c986682d98bc35f958f4883f9d2a89060005b818110610ebc576103cf85610eb0818703826101f8565b60405191829182610e0c565b82546001600160a01b0316845260209093019260019283019201610e99565b346100155760006003193601126100155760206001600160a01b037f9016d09d72d40fdae2fd8ceac6b6234c7706214fd39c1cd1e609a0528c1993005416604051908152f35b6003111561001557565b346100155760c06003193601126100155760043567ffffffffffffffff811161001557610f5f610f95913690600401610269565b6024356044356084359160a43593610f7685610f21565b33600052600e602052610f9060ff604060002054166120f2565b612163565b604080519215158352602083019190915290f35b34610015576000600319360112610015576020601454604051908152f35b634e487b7160e01b600052602160045260246000fd5b60051115610fe757565b610fc7565b346100155760006003193601126100155760ff601354166040516005821015610fe7576020918152f35b3461001557600060031936011261001557604051806020600b54918281520190600b6000527f0175b7a638427703f0dbe7bb9bbf987a2551717b34e79f33b5b1008d1fa01db99060005b818110611077576103cf85610eb0818703826101f8565b82546001600160a01b0316845260209093019260019283019201611060565b34610015576060600319360112610015576004356110b3816101af565b602435906110c0826101af565b6044356110cc816101af565b7ff0c57e16840df040f15088dc2f81fe391c3923bec73e23a9662efc9c229c6a00549267ffffffffffffffff61111b60ff604087901c161561110d565b1590565b9567ffffffffffffffff1690565b16801590816112e4575b60011490816112da575b1590816112d1575b506112a7576111b892846111af60017fffffffffffffffffffffffffffffffffffffffffffffffff00000000000000007ff0c57e16840df040f15088dc2f81fe391c3923bec73e23a9662efc9c229c6a005416177ff0c57e16840df040f15088dc2f81fe391c3923bec73e23a9662efc9c229c6a0055565b6112425761248f565b6111be57005b61121368ff0000000000000000197ff0c57e16840df040f15088dc2f81fe391c3923bec73e23a9662efc9c229c6a0054167ff0c57e16840df040f15088dc2f81fe391c3923bec73e23a9662efc9c229c6a0055565b604051600181527fc7f505b2f371ae2175ee4913f4499e1f2633a7b5936321eed1cdaeb6115181d290602090a1005b6112a26801000000000000000068ff0000000000000000197ff0c57e16840df040f15088dc2f81fe391c3923bec73e23a9662efc9c229c6a005416177ff0c57e16840df040f15088dc2f81fe391c3923bec73e23a9662efc9c229c6a0055565b61248f565b7ff92ee8a90000000000000000000000000000000000000000000000000000000060005260046000fd5b90501538611137565b303b15915061112f565b859150611125565b906020808351928381520192019060005b81811061130a5750505090565b82518452602093840193909201916001016112fd565b9060206104979281815201906112ec565b34610015576020600319360112610015576001600160a01b03600435611356816101af565b166000526011602052604060002060405190816020825491828152019160005260206000209060005b8181106113a2576103cf85611396818703826101f8565b60405191829182611320565b825484526020909301926001928301920161137f565b34610015576040600319360112610015576024356004356113fc6113ec6113de83611c67565b50546001600160a01b031690565b6001600160a01b0316331461267f565b61142882600261141f336001600160a01b03166000526010602052604060002090565b015410156126ca565b61144c600161144461143984611c67565b505460a01c60ff1690565b151514612715565b61147682600261146f336001600160a01b03166000526010602052604060002090565b0154611f1b565b6002611495336001600160a01b03166000526010602052604060002090565b01556114c18260036114ba336001600160a01b03166000526010602052604060002090565b015461276e565b60036114e0336001600160a01b03166000526010602052604060002090565b01556114f98260036114f184611c67565b50015461276e565b600361150483611c67565b50015561151b6115168360145461276e565b601455565b7fc8f742aa90a6e6851d2252fa58ed695d3ca295b55bf5f1c2164a360cc8a093e26001600160a01b036115566005546001600160a01b031690565b610741600361156486611c67565b50015460405193849316963396846040919493926060820195825260208201520152565b8015150361001557565b346100155760a0600319360112610015576004356024356064356044356115b882611588565b608435926115c584611588565b33600052600c60205260ff604060002054161561164157610e0a9461162f92600892611604336001600160a01b03166000526010602052604060002090565b926005840155600683015560078201550191829061ff001961ff00835492151560081b169116179055565b9060ff60ff1983541691151516179055565b606460405162461bcd60e51b815260206004820152601260248201527f75736572206973206e6f742065786973747300000000000000000000000000006044820152fd5b34610015576040600319360112610015576004356024359060005260166020526040600020549060001982019182116116d45760806116c8610bf6602094611c67565b01511115604051908152f35b611ef6565b939291611702906116f46040936060885260608801906103eb565b9086820360208801526112ec565b930152565b34610015576060600319360112610015576004356024356044358192809260009160125480921161181d575b8110611815575b5092919261174782611c04565b91611751816103d3565b9461175f60405196876101f8565b818652601f1961176e836103d3565b013660208801375b8481108061180c575b156117e65761179061143982611c67565b6117a3575b61179e9061277b565b611776565b916117de81846117b661179e948a611c53565b526117c3610bf686611c67565b6117cd8288611c53565b526117d88187611c53565b5061277b565b929050611795565b8593926103cf928103611801575b50604051938493846116d9565b8084528452846117f4565b5081831061177f565b92503861173a565b9094508490611733565b3461001557604060031936011261001557600435602435908061188d6118856108396013546118766118598260ff1690565b61186281610fdd565b8860038214918215611aa8575b50506127ce565b60081c6001600160a01b031690565b3314156127d5565b611896306141b4565b906118b48130336118af6005546001600160a01b031690565b6142d5565b60018403611a2257506118ce6118dc926001541115612820565b6118d7306141b4565b611f1b565b6119066111096118ff336001600160a01b0316600052600d602052604060002090565b5460ff1690565b6119f4575b61191481614491565b600161192f6105e06013546001600160a01b039060081c1690565b0161193b83825461276e565b905560026119586105e06013546001600160a01b039060081c1690565b0161196483825461276e565b905560135461197e9060081c6001600160a01b031661063d565b61198982825461276e565b90556119b36119ab336001600160a01b0316600052600f602052604060002090565b91825461276e565b90555b7f9675a307d5dddc49aefd66964913e794711b6c69e23cfe1fa44406ab2bbaeae86107416001600160a01b036107266005546001600160a01b031690565b611a14610dc4336001600160a01b0316600052600d602052604060002090565b611a1d3361286b565b61190b565b915060028303611aa3576118ce611a3d926001541115612820565b611a456143c0565b611a9e611a686107af336001600160a01b03166000526010602052604060002090565b60208101611a7784825161276e565b905260408101611a8884825161276e565b9052336000908152601060205260409020611f89565b6119b6565b61278a565b909150611ab482610fdd565b611abd82610fdd565b611ac681610fdd565b14883861186f565b60ff81160361001557565b346100155760e0600319360112610015576103cf611b39600435602435611aff81611ace565b6044356064356084359160a4359360c43595611b1a87611588565b33600052600e602052611b3460ff604060002054166120f2565b612a2d565b60408051948552602085019390935290151591830191909152151560608201529081906080820190565b34610015576000600319360112610015576020601254604051908152f35b3461001557602060031936011261001557610e0a600435611ba1816101af565b611ba9613cdc565b613aaf565b60405190610120820182811067ffffffffffffffff8211176101f3576040526000610100838281528260208201528260408201528260608201528260808201528260a08201528260c08201528260e08201520152565b90611c0e826103d3565b611c1b60405191826101f8565b828152601f19611c2b82946103d3565b019060005b828110611c3c57505050565b602090611c47611bae565b82828501015201611c30565b80518210156103235760209160051b010190565b60125481101561032357601260005260206000209060031b0190600090565b80548210156103235760005260206000209060031b0190600090565b906007611cad61022d565b92611ce8611cdf8254611cd6611cc9826001600160a01b031690565b6001600160a01b03168852565b60a01c60ff1690565b15156020860152565b600181015460408501526002810154606085015260038101546080850152600481015460a0850152600581015460c0850152600681015460e08501520154610100830152565b908151611d3a81611c04565b9260005b828110611d4a57505050565b80611d63610bf6611d5d60019486611c53565b51611c67565b611d6d8288611c53565b52611d788187611c53565b5001611d3e565b15611d8657565b606460405162461bcd60e51b815260206004820152600e60248201527f646f206e6f7420616c6c6f7765640000000000000000000000000000000000006044820152fd5b606460405162461bcd60e51b815260206004820152601360248201527f77726f6e6720776974686472617720666c6167000000000000000000000000006044820152fd5b15611dca57565b9061022b611ea16008611e2661021b565b94611e48611e3b82546001600160a01b031690565b6001600160a01b03168752565b60018101546020870152600281015460408701526003810154606087015260048101546080870152600581015460a0870152600681015460c0870152600781015460e08701520154610b8260ff82161515610100870152565b1515610120840152565b15611eb257565b606460405162461bcd60e51b815260206004820152601060248201527f6c6f7765722074686520616d6f756e74000000000000000000000000000000006044820152fd5b634e487b7160e01b600052601160045260246000fd5b9060001982019182116116d457565b919082039182116116d457565b15611f2f57565b606460405162461bcd60e51b815260206004820152601860248201527f7374617920616d6f756e7420697320746f6f20736d616c6c00000000000000006044820152fd5b634e487b7160e01b600052600060045260246000fd5b90612039610120600861022b94611fc6611faa86516001600160a01b031690565b82906001600160a01b03166001600160a01b0319825416179055565b6020850151600182015560408501516002820155606085015160038201556080850151600482015560a0850151600582015560c0850151600682015560e08501516007820155019261203261201f610100830151151590565b859060ff60ff1983541691151516179055565b0151151590565b815461ff00191690151560081b61ff0016179055565b600b5481101561032357600b60005260206000200190600090565b80548210156103235760005260206000200190600090565b634e487b7160e01b600052603160045260246000fd5b600b5480156120ed57600019810190600090600b5483101561032357600b918290527f0175b7a638427703f0dbe7bb9bbf987a2551717b34e79f33b5b1008d1fa01db80180546001600160a01b031916905555565b612082565b156120f957565b608460405162461bcd60e51b815260206004820152602160248201527f63616c6c6572206973206e6f74207072697661746520706f6f6c206b6565706560448201527f72000000000000000000000000000000000000000000000000000000000000006064820152fd5b92919493906121728387613d92565b926001600160a01b038392931693841560001461219757505050505050505060009190565b7f9a5787718e945183fe431d089b46b9ee2c5cd3ffbb79ca1a9b117fc29b31c6aa9392916123ce9160029b98999a9b918985878d6121e46108396013546001600160a01b039060081c1690565b8c1461240d575b8686836122a39361222d611516846122287f5e16b3b6e0a15f63fe16c5b5705c03147211e204ce01e5197d2a699c087e167b9b9a9960145461276e565b61276e565b61225661224d876001600160a01b03166000526011602052604060002090565b601254906152f8565b50601254906040519788978b899491926001600160a01b0360e097949a999895929a61010088019b885216602087015260408601526060850152608084015260a083015260c08201520152565b0390a16122f46122b161022d565b6001600160a01b0387168152600160208201528260408201528b60608201528760808201528360a08201528460c08201528c60e082015242610100820152613f19565b61230b601254916000526016602052604060002090565b55612329846001600160a01b03166000526010602052604060002090565b9060016003830192612340836122288a875461276e565b8455612366600482019361235581865461276e565b85556118d7600284019a8b54611f1b565b885501549554915490549061238e866001600160a01b0316600052600f602052604060002090565b54926040519788978893909796959260c095926001600160a01b0360e087019a168652602086015260408501526060840152608083015260a08201520152565b0390a16013546123e99060081c6001600160a01b0316610839565b146123fb575b50505050600190600090565b6124049361402d565b388080806123ef565b600196506121eb565b908160011b917f7fffffffffffffffffffffffffffffffffffffffffffffffffffffffffffffff8116036116d457565b9081600a0291600a8304036116d457565b818102929181159184041417156116d457565b634e487b7160e01b600052601260045260246000fd5b811561248a570490565b61246a565b6124f7610dc4926124db6125dc956124a56153cd565b6124ad6153cd565b6124b633613aaf565b6124bf85613aa3565b6001600160a01b03166001600160a01b03196006541617600655565b6001600160a01b03166001600160a01b03196005541617600555565b601380547fffffffffffffffffffffff0000000000000000000000000000000000000000ff163360081b74ffffffffffffffffffffffffffffffffffffffff00161790556013546125909060081c6001600160a01b03166125756001600160a01b038216916001600160a01b03166000526010602052604060002090565b906001600160a01b03166001600160a01b0319825416179055565b6125bc60086125ae6105e06013546001600160a01b039060081c1690565b01600160ff19825416179055565b610df1610dc4306001600160a01b0316600052600e602052604060002090565b6125fc610dc4336001600160a01b0316600052600e602052604060002090565b61260e600260ff196013541617601355565b61261d60ff1960005416600055565b61262e670de0b6b3a7640000600155565b61264b61264661263f600154612416565b6064900490565b600255565b61266161265c61263f600154612446565b600355565b61022b61267a612672600154612416565b6103e8900490565b600455565b1561268657565b606460405162461bcd60e51b815260206004820152600960248201527f4e6f74206d616b657200000000000000000000000000000000000000000000006044820152fd5b156126d157565b606460405162461bcd60e51b815260206004820152601060248201527f45786365656420617661696c61626c65000000000000000000000000000000006044820152fd5b1561271c57565b606460405162461bcd60e51b815260206004820152601660248201527f4c6971756964697479207374617475732077726f6e67000000000000000000006044820152fd5b90600182018092116116d457565b919082018092116116d457565b60001981146116d45760010190565b606460405162461bcd60e51b815260206004820152601260248201527f77726f6e67206465706f73697420666c616700000000000000000000000000006044820152fd5b1561278a57565b156127dc57565b606460405162461bcd60e51b815260206004820152601860248201527f77616c6c657420697320657363726f77206163636f756e7400000000000000006044820152fd5b1561282757565b606460405162461bcd60e51b815260206004820152600960248201527f746f6f20736d616c6c00000000000000000000000000000000000000000000006044820152fd5b600a5490680100000000000000008210156101f35760018201600a55600a5482101561032357600a6000527fc65a7bb8d6351c1cf70c95a316cc6a92839c986682d98bc35f958f4883f9d2a890910180546001600160a01b0319166001600160a01b03909216919091179055565b519061022b826101af565b519061022b82610f21565b5190600682101561001557565b81601f820112156100155780516129128161024d565b9261292060405194856101f8565b818452602082840101116100155761049791602080850191016102b0565b6020818303126100155780519067ffffffffffffffff8211610015570190610160828203126100155761296f61023d565b91612979816128d9565b8352612987602082016128e4565b6020840152612998604082016128ef565b60408401526129a9606082016128e4565b60608401526080810151608084015260a081015167ffffffffffffffff811161001557610140926129db9183016128fc565b60a084015260c081015160c084015260e081015160e0840152610100810151610100840152610120810151610120840152015161014082015290565b6040513d6000823e3d90fd5b60031115610fe757565b969290969593949195600095600091600097600097612a5f612a59846000526016602052604060002090565b54611f0c565b95612a6987611c67565b5095612a7c87546001600160a01b031690565b9460ff612a9c876001600160a01b03166000526010602052604060002090565b9f16801580978198613a77575b5061399b575b6001141590506131e05750505050896003840180549a8b916002612ad9600489019485549061276e565b94019c8d5490612ae9828761276e565b841115612cfb575050509b8c612b0d8d9e9d612b058684611f1b565b905490611f1b565b90612b166144b0565b90818311612ce2575b505080612cb2575b5060009c600182018481548354612b3d91611f1b565b90612b4791611f1b565b9055600090556003810183815490612b5e91611f1b565b90556004019081549054612b7191611f1b565b905560145490612b8091611f1b565b60145582546001600160a01b0316600090815260116020526040902084612ba691614597565b50612bb2858a85614e77565b15612c7557907fa9fda2d0d572da79a3bb128a2cd337112b06538bd638e802d7f392879dde36a8949392915b898b839560029360029515612c65575b97612c57969798612c5c575b600188015497546001600160a01b031698604051998a998a95926001600160a01b036101009895929b9a99969361012089019c895216602088015260408701526060860152608085015260a084015260c083015260e08201520152565b0390a1565b60019550612bfa565b6002870154975060019450612bee565b50505050509293505050612ca782612c956005546001600160a01b031690565b6007546001600160a01b031690613bda565b600091906001908190565b612cdc90612cc86005546001600160a01b031690565b6006546001600160a01b03165b30916142d5565b38612b27565b819e50612cf392916118d79161276e565b9b3880612b1f565b858496959411600014612fc7575050808d8f9254906008612d1c8389611f1b565b9401549060ff82169182612faf575b5081612fa3575b50612e2c5750505060009c839c612d498486611f1b565b600183018186825490612d5b91611f1b565b90612d6591611f1b565b9055815490612d7391611f1b565b90556003810183815490612d8691611f1b565b90556004019081549054612d9991611f1b565b905560145490612da891611f1b565b60145583546001600160a01b0316600090815260116020526040902085612dce91614597565b50612dda868286614be2565b15612e0b5750907fa9fda2d0d572da79a3bb128a2cd337112b06538bd638e802d7f392879dde36a894939291612bde565b9950505050505092505050612ca782612c956005546001600160a01b031690565b979a9d98509a509a5050509994612e789250612e66915060035490600787015480612f99575b50612e61906002890154612457565b612457565b612e736001548092612480565b612480565b612e82818861276e565b83541015612f50575b506001600160a01b03927fc8f742aa90a6e6851d2252fa58ed695d3ca295b55bf5f1c2164a360cc8a093e29492612ec48860039461276e565b8755612ed1888254611f1b565b905501612edf86825461276e565b9055612ef06115168660145461276e565b612f41612f0482546001600160a01b031690565b956001612f196005546001600160a01b031690565b9301549554908460405195869516981696846040919493926060820195825260208201520152565b0390a360009190600090600090565b927fc8f742aa90a6e6851d2252fa58ed695d3ca295b55bf5f1c2164a360cc8a093e29492612ec4612f8c6001600160a01b03966003959a61276e565b9893505092945092612e8b565b9150612e61612e52565b9050548311158f612d32565b909150612fc09060081c60ff161590565b9038612d2b565b8f9e91939f60080154612fda8160ff1690565b90816131cb575b506130ff575b5050505060009b6130236004849d60018101613004868254611f1b565b905560038101613015868254611f1b565b905501918254905490611f1b565b905561303461151682601454611f1b565b61306a8661306561304c88546001600160a01b031690565b6001600160a01b03166000526011602052604060002090565b614597565b50613079611109888388614685565b6130aa575050907fa9fda2d0d572da79a3bb128a2cd337112b06538bd638e802d7f392879dde36a894939291612bde565b9750995050505050509250612ca791506130d084612c956005546001600160a01b031690565b6005546001600160a01b0316906130f9856130f36006546001600160a01b031690565b92611f1b565b91613bda565b8086106131b2576131108187611f1b565b938085111561312757505050505038808080612fe7565b9750979a9d999350975099509950612e66919b5061315e9250600354906007880154806131a8575b50612e619060028a0154612457565b90613169828961276e565b1115612f5057506001600160a01b03927fc8f742aa90a6e6851d2252fa58ed695d3ca295b55bf5f1c2164a360cc8a093e29492612ec48860039461276e565b9150612e6161314f565b5060009e50939c508d9b508b9a50505050505050505050565b6131da915060081c60ff161590565b38612fe1565b8594939d91929c9b9a99989796951560001461358d5785547fffffffffffffffffffffff00ffffffffffffffffffffffffffffffffffffffff168655600386019b8c5491613234600489019384549061276e565b9460038501613244878254611f1b565b9055600485016132578154865490611f1b565b905561326861151687601454611f1b565b6132808a61306561304c8c546001600160a01b031690565b5082156134c1575050809c600284019e8f5461329c818861276e565b8411156133f157506132f2575b5050509a6000916132ea60017fa9fda2d0d572da79a3bb128a2cd337112b06538bd638e802d7f392879dde36a89a9b9c9d9e01916118d78354855490611f1b565b905555612bde565b6133029291612b05915490611f1b565b61330e8d548092611f1b565b906133176144b0565b8083116133c0575b5060017fa9fda2d0d572da79a3bb128a2cd337112b06538bd638e802d7f392879dde36a89a9b9c9d9e936133b1600096946133866132ea956133696005546001600160a01b031690565b906130f961337f6007546001600160a01b031690565b918a61276e565b6005546001600160a01b03165b6006546001600160a01b03166007546001600160a01b0316916142d5565b939e9d9c9b9a508294506132a9565b819e939a9b9c9d508091949250936133d8908361276e565b906133e29161276e565b9b9a9998919c3893919361331f565b90949293507fa9fda2d0d572da79a3bb128a2cd337112b06538bd638e802d7f392879dde36a89b9c9d9e9f95809250841160001461347857506001839261343f61344d936134569796611f1b565b9461345d5701918254611f1b565b90558254611f1b565b9055612bde565b61347384612c956005546001600160a01b031690565b6106aa565b836118d7600195979361348a9361276e565b905501613498838254611f1b565b90556134a5575b50612bde565b6134bb90612c956005546001600160a01b031690565b3861349f565b959e909d509150508315613555577fa9fda2d0d572da79a3bb128a2cd337112b06538bd638e802d7f392879dde36a898999a9b9c9d506122286002613521938693613529575b6001810161351685825461276e565b90550193845461276e565b905599612bde565b6135508461353f6005546001600160a01b031690565b6007546001600160a01b0316612cd5565b613507565b507fa9fda2d0d572da79a3bb128a2cd337112b06538bd638e802d7f392879dde36a89798999a9b92506002613456910191825461276e565b8b9c506135c89a6135d19c936135a78760038a0154612457565b946135b760028a01548097612480565b9d8e96612e738a60048d0154612457565b9e8f809761276e565b95600386016135e1888254611f1b565b90556135f260048701918254611f1b565b905561360361151687601454611f1b565b156138b8575060028301548e613619828761276e565b101561373d57505050816136f691613659613717947fa9fda2d0d572da79a3bb128a2cd337112b06538bd638e802d7f392879dde36a89b9c9d9e9f611f1b565b9161366960028301548094611f1b565b916136726144b0565b808411613734575b506002906136b561222894956136986005546001600160a01b031690565b906130f96136ae6007546001600160a01b031690565b918761276e565b6136cb856133936005546001600160a01b031690565b600181016136e76136dd858354611f1b565b8484015490611f1b565b9055600091018190559061276e565b9a61370860019b5b6003870154611f1b565b60038601556004850154611f1b565b600484015561372a826002850154611f1b565b6002840155612bde565b9250600261367a565b848f95939f116000146137c65750507fa9fda2d0d572da79a3bb128a2cd337112b06538bd638e802d7f392879dde36a898999a9b9c50829161379161378760019361371796611f1b565b6002830154611f1b565b6002820155016137a2828254611f1b565b90556137ba81612c956005546001600160a01b031690565b9a61370860019b6136fe565b8c859e951160001461384d5750508b9c50613717929161381961380f7fa9fda2d0d572da79a3bb128a2cd337112b06538bd638e802d7f392879dde36a89b9c9d9e600194611f1b565b600283015461276e565b60028201550161382a8d8254611f1b565b90556138428c612c956005546001600160a01b031690565b61370860019b6136fe565b8d60017fa9fda2d0d572da79a3bb128a2cd337112b06538bd638e802d7f392879dde36a89c9d9e939f9561388f61371798976118d7613708986138b39761276e565b6002820155016138a0828254611f1b565b90556005546001600160a01b0316612c95565b6136fe565b939e919d509b999a98999892919082156139585750819d8260028301918254906138e19161276e565b906138eb9161276e565b9055600101818154906138fd9161276e565b90556005546001600160a01b03169060075461391f906001600160a01b031690565b309061392a936142d5565b7fa9fda2d0d572da79a3bb128a2cd337112b06538bd638e802d7f392879dde36a896613708613717926136fe565b9d7fa9fda2d0d572da79a3bb128a2cd337112b06538bd638e802d7f392879dde36a899925092613717936139946002613708940191825461276e565b90556136fe565b60006139f2926139b96108396108396008546001600160a01b031690565b60405180809681947f82fd5bac000000000000000000000000000000000000000000000000000000008352600483019190602083019252565b03915afa918215613a7257600192613a4191600091613a51575b5089613a465760028b015460c08201525b60a0810151906020810151613a3181612a23565b60e060c0830151920151926140b8565b612aaf565b8960c0820152613a1d565b613a6c913d8091833e613a6481836101f8565b81019061293e565b38613a0c565b612a17565b90506001600160a01b03613a9a6108396013546001600160a01b039060081c1690565b91161438612aa9565b61022b90611ba9613cdc565b6001600160a01b03168015613b3f576001600160a01b037f9016d09d72d40fdae2fd8ceac6b6234c7706214fd39c1cd1e609a0528c19930054826001600160a01b03198216177f9016d09d72d40fdae2fd8ceac6b6234c7706214fd39c1cd1e609a0528c19930055167f8be0079c531659141344cd1fd0a4f28419497f9722a3daafe3b4186f6b6457e0600080a3565b7f1e4fbdf700000000000000000000000000000000000000000000000000000000600052600060045260246000fd5b613b8090613b7a61510c565b90612457565b60015490811561248a570490565b3d15613bb9573d90613b9f8261024d565b91613bad60405193846101f8565b82523d6000602084013e565b606090565b90816020910312610015575161049781611588565b1561001557565b91613be59083615173565b80613bef57505050565b61022b92600092838093613c95604093613c877fffffffff00000000000000000000000000000000000000000000000000000000601960208851613c338a826101f8565b828152017f7472616e7366657228616464726573732c75696e7432353629000000000000008152201695519384926020840197885260248401602090939291936001600160a01b0360408201951681520152565b03601f1981018352826101f8565b51925af1613ca1613b8e565b81613cad575b50613bd3565b8051801592508215613cc2575b505038613ca7565b613cd59250602080918301019101613bbe565b3880613cba565b6001600160a01b037f9016d09d72d40fdae2fd8ceac6b6234c7706214fd39c1cd1e609a0528c19930054163303613d0f57565b7f118cdaa7000000000000000000000000000000000000000000000000000000006000523360045260246000fd5b15613d4457565b606460405162461bcd60e51b815260206004820152601560248201527f706f6f6c207374617475732069732072656675736500000000000000000000006044820152fd5b811561248a570690565b601354919060ff8316613da481610fdd565b600481141580613f07575b613db890613d3d565b600b5490613dc581610fdd565b600381148015928184613ef4575b80613eeb575b613e36575b50613de882610fdd565b91613e22575b50613e0157505050600090600090600090565b613e1b9260081c6001600160a01b03166151d3565b6151d3565b9192909190565b60019150613e2f81610fdd565b1438613dee565b613e90816040516020810190613e8881613c8742414487917fffffffffffffffffffffffffffffffffffffffff0000000000000000000000009060549492845260601b16602083015260348201520190565b519020613d88565b9060005b818110613ea2575050613dde565b613ec08888613e1661090d61090887613ebb888b61276e565b613d88565b90916001600160a01b038116613edb57505050600101613e94565b9b919a5098509650505050505050565b50801515613dd9565b50613efe83610fdd565b60028314613dd3565b50613f1181610fdd565b801515613daf565b601254680100000000000000008110156101f357806001613f3f92016012556012611c86565b9190916140155761010081613f7c613f60600794516001600160a01b031690565b85906001600160a01b03166001600160a01b0319825416179055565b613fd2613f8c6020830151151590565b85547fffffffffffffffffffffff00ffffffffffffffffffffffffffffffffffffffff1690151560a01b74ff000000000000000000000000000000000000000016178555565b60408101516001850155606081015160028501556080810151600385015560a0810151600485015560c0810151600585015560e081015160068501550151910155565b611f73565b60ff6000199116019060ff82116116d457565b61408c9161407e61406f614084939695966140696001600160a01b0360135460081c166001600160a01b03166000526015602052604060002090565b906102d3565b9161407981612a23565b61401a565b9061030f565b509183612457565b60015490811561248a570490805482018092116116d45760019181550180549182018092116116d45755565b6140f092935061406f61407e916140696001600160a01b0360135460081c166001600160a01b03166000526015602052604060002090565b506001810191825480821161413e5780820361411157505090600080925555565b82549061411e8383612457565b811561248a570481039081116116d45761413a92558254611f1b565b9055565b606460405162461bcd60e51b815260206004820152601c60248201527f736861726520616d6f756e7420697320696e73756666696369656e74000000006044820152fd5b90816020910312610015575161049781611ace565b90816020910312610015575190565b604d81116116d457600a0a90565b6141cc6108396108396005546001600160a01b031690565b6040519163313ce56760e01b8352602083600481855afa908115613a725761423f936000926142a5575b506020919260405180809681947f70a08231000000000000000000000000000000000000000000000000000000008352600483019190916001600160a01b036020820193169052565b03915afa918215613a725760ff6142696104979461427093600091614276575b5060015490612457565b92166141a6565b90612480565b614298915060203d60201161429e575b61429081836101f8565b810190614197565b3861425f565b503d614286565b602092506142c890833d85116142ce575b6142c081836101f8565b810190614182565b916141f6565b503d6142b6565b926142e39092919284615173565b92836142f0575b50505050565b6143b7936000809493613c958295613c877fffffffff0000000000000000000000000000000000000000000000000000000060256040516143326060826101f8565b8181527f7432353629000000000000000000000000000000000000000000000000000000604060208301927f7472616e7366657246726f6d28616464726573732c616464726573732c75696e8452015220169560405194859360208501988952602485016001600160a01b036040929594938160608401971683521660208201520152565b388080806142ea565b33600052600c60205260ff60406000205416156143d957565b33600052600c6020526040600020600160ff19825416179055600b54680100000000000000008110156101f35760018101600b55600b5481101561032357600b6000527f0175b7a638427703f0dbe7bb9bbf987a2551717b34e79f33b5b1008d1fa01db90180546001600160a01b0319163317905561447060086125ae336001600160a01b03166000526010602052604060002090565b61022b33612575336001600160a01b03166000526010602052604060002090565b60015461449d91612457565b6144a561510c565b90811561248a570490565b6144c86108396108396005546001600160a01b031690565b6040519063313ce56760e01b8252602082600481845afa908115613a725761423f9260009261454d575b506020906145086006546001600160a01b031690565b9060405180809681947f70a08231000000000000000000000000000000000000000000000000000000008352600483019190916001600160a01b036020820193169052565b602091925061456890823d84116142ce576142c081836101f8565b91906144f2565b805480156120ed576000190190614586828261206a565b60001982549160031b1b1916905555565b9060018201906145b76111096118ff838590600052602052604060002090565b61467d5782549060005b8281106145d2575050505050600090565b816145ea6145e0838861206a565b90549060031b1c90565b146145f7576001016145c1565b9492909193945b61460785611f0c565b8110156146565760018161464e61462c6145e061462661460796612760565b8b61206a565b614636838b61206a565b90919060001983549160031b92831b921b1916179055565b0190506145fe565b506146789350614669610886939561456f565b90600052602052604060002090565b600190565b505050600090565b90916146e6906146a36108396108396008546001600160a01b031690565b6000600185019182549060405180809781947f82fd5bac000000000000000000000000000000000000000000000000000000008352600483019190602083019252565b03915afa928315613a7257600093614bc7575b50601354600360ff821661470c81610fdd565b1480614bbb575b80614b8f575b6147bc575b505050614789925061473782546001600160a01b031690565b6001600160a01b036147586108396013546001600160a01b039060081c1690565b91161461478e575b507fffffffffffffffffffffff00ffffffffffffffffffffffffffffffffffffffff8154169055565b600090565b8060a06147b69201519060208101516147a681612a23565b60e06002860154920151926140b8565b38614760565b6001600160a01b03919060081c8216956147ec6107af886001600160a01b03166000526010602052604060002090565b96600161482e61481484836114ba866001600160a01b03166000526010602052604060002090565b926001600160a01b03166000526010602052604060002090565b015560135460081c6001600160a01b0316600261486661481484836114ba866001600160a01b03166000526010602052604060002090565b015560135460081c6001600160a01b0316936002870192614889828554886151d3565b9791969096166148c257505050505050506148ba614789936109786105e06013546001600160a01b039060081c1690565b38808061471e565b6148e991929497939699509794976001600160a01b03166000526010602052604060002090565b90600382019189898454906148fd9161276e565b906149079161276e565b835560048101938a85549061491b9161276e565b855560028201928b8b85549061493091611f1b565b9061493a91611f1b565b84558a60038901558b6004890155825461495a906001600160a01b031690565b8854600b60058b01556001600160a01b03919091167fffffffffffffffffffffff00000000000000000000000000000000000000000090911617740100000000000000000000000000000000000000001788555b86600689015560a082015160208301516149c781612a23565b8b549360e001938451916149da9361402d565b5498896149f1816000526016602052604060002090565b546149fb90611f0c565b9c8d9954614a0f906001600160a01b031690565b92549351604080519384526001600160a01b038516602085015283018590526060830152608082019d909d5260a081019b909b5260c08b019b909b52600360e08b015299987f5e16b3b6e0a15f63fe16c5b5705c03147211e204ce01e5197d2a699c087e167b9061010090a16001015490549154925460135460081c6001600160a01b0316614ab1906001600160a01b0316600052600f602052604060002090565b54604080516001600160a01b038c16815260208101949094528301939093526060820193909352608081019290925260a0820152600360c08201527f9a5787718e945183fe431d089b46b9ee2c5cd3ffbb79ca1a9b117fc29b31c6aa9060e090a1604051958695614b6695879293610100946001600160a01b036005979399989461012087019a8752166020860152604085015260608401526080830152600060a083015260c0820152600160e08201520152565b037fa9fda2d0d572da79a3bb128a2cd337112b06538bd638e802d7f392879dde36a891a1600190565b5084546001600160a01b03166001600160a01b03614bb2600884901c8216610839565b91161415614719565b5060005460ff16614713565b614bdb91933d8091833e613a6481836101f8565b91386146f9565b9091614c00906146a36108396108396008546001600160a01b031690565b03915afa928315613a7257600093614e5c575b50601354600360ff8216614c2681610fdd565b1480614e50575b80614e24575b614c5057505050614789925061473782546001600160a01b031690565b6001600160a01b03919060081c821695614c806107af886001600160a01b03166000526010602052604060002090565b966001614ca861481484836114ba866001600160a01b03166000526010602052604060002090565b015560135460081c6001600160a01b03166002614ce061481484836114ba866001600160a01b03166000526010602052604060002090565b015560135460081c6001600160a01b0316936002870192614d03828554886151d3565b979196909616614d3457505050505050506148ba614789936109786105e06013546001600160a01b039060081c1690565b614d5b91929497939699509794976001600160a01b03166000526010602052604060002090565b9060038201918989845490614d6f9161276e565b90614d799161276e565b835560048101938a855490614d8d9161276e565b855560028201928b8b855490614da291611f1b565b90614dac91611f1b565b84558a60038901558b60048901558254614dcc906001600160a01b031690565b8854600c60058b01556001600160a01b03919091167fffffffffffffffffffffff00000000000000000000000000000000000000000090911617740100000000000000000000000000000000000000001788556149ae565b5084546001600160a01b03166001600160a01b03614e47600884901c8216610839565b91161415614c33565b5060005460ff16614c2d565b614e7091933d8091833e613a6481836101f8565b9138614c13565b9091614e95906146a36108396108396008546001600160a01b031690565b03915afa928315613a72576000936150f1575b50601354600360ff8216614ebb81610fdd565b14806150e5575b806150b9575b614ee557505050614789925061473782546001600160a01b031690565b6001600160a01b03919060081c821695614f156107af886001600160a01b03166000526010602052604060002090565b966001614f3d61481484836114ba866001600160a01b03166000526010602052604060002090565b015560135460081c6001600160a01b03166002614f7561481484836114ba866001600160a01b03166000526010602052604060002090565b015560135460081c6001600160a01b0316936002870192614f98828554886151d3565b979196909616614fc957505050505050506148ba614789936109786105e06013546001600160a01b039060081c1690565b614ff091929497939699509794976001600160a01b03166000526010602052604060002090565b90600382019189898454906150049161276e565b9061500e9161276e565b835560048101938a8554906150229161276e565b855560028201928b8b85549061503791611f1b565b9061504191611f1b565b84558a60038901558b60048901558254615061906001600160a01b031690565b8854600d60058b01556001600160a01b03919091167fffffffffffffffffffffff00000000000000000000000000000000000000000090911617740100000000000000000000000000000000000000001788556149ae565b5084546001600160a01b03166001600160a01b036150dc600884901c8216610839565b91161415614ec8565b5060005460ff16614ec2565b61510591933d8091833e613a6481836101f8565b9138614ea8565b600460206001600160a01b0360095416604051928380927f3b1e6a590000000000000000000000000000000000000000000000000000000082525afa908115613a725760009161515a575090565b610497915060203d60201161429e5761429081836101f8565b9060206001600160a01b039260046040518095819363313ce56760e01b8352165afa8015613a725760ff613b7a91613b80946000916151b4575b50166141a6565b6151cd915060203d6020116142ce576142c081836101f8565b386151ad565b9190916151f66107af826001600160a01b03166000526010602052604060002090565b91615205610120840151151590565b6152b45760409060a0840180511560001461529d5750615234612e6661522b8388612457565b60025490612457565b945b60c08501805161527f575061525161525a92612e6692612457565b60045490612457565b925b0151615268838561276e565b111561527c57505050600090600090600090565b92565b61528f61529793612e6693612457565b905190612457565b9261525c565b612e666152ae9161528f8489612457565b94615236565b50505050600090600090600090565b90815491680100000000000000008310156101f3578261463691600161022b9501815561206a565b80156116d4576000190190565b919060018301816000528060205260ff604060002054166153c557600084545b808210615383575061532a83866152c3565b6153348554611f0c565b81811161535357509061466983614636610dc49594614678979861206a565b8061537961536f6145e061536961537e95611f0c565b8a61206a565b614636838a61206a565b6152eb565b615334565b908181018082116116d45760011c908461539d838961206a565b90549060031b1c106000146153be5750600181018091116116d45790615318565b9150615318565b506000925050565b60ff7ff0c57e16840df040f15088dc2f81fe391c3923bec73e23a9662efc9c229c6a005460401c16156153fc57565b7fd7e6bcf80000000000000000000000000000000000000000000000000000000060005260046000fdfea2646970667358221220fb7ab60105136294c3403249124986381eeccae7fdb599514254684be954ae2f64736f6c634300081c0033",
  "linkReferences": {},
  "deployedLinkReferences": {}
}