{
  "_format": "hh-sol-artifact-1",
  "contractName": "PrivatePool",
  "sourceName": "contracts/PrivatePool.sol",
  "abi": [
    {
      "inputs": [],
      "name": "InvalidInitialization",
      "type": "error"
    },
    {
      "inputs": [],
      "name": "NotInitializing",
      "type": "error"
    },
    {
      "inputs": [
        {
          "internalType": "address",
          "name": "owner",
          "type": "address"
        }
      ],
      "name": "OwnableInvalidOwner",
      "type": "error"
    },
    {
      "inputs": [
        {
          "internalType": "address",
          "name": "account",
          "type": "address"
        }
      ],
      "name": "OwnableUnauthorizedAccount",
      "type": "error"
    },
    {
      "anonymous": false,
      "inputs": [
        {
          "indexed": true,
          "internalType": "address",
          "name": "account",
          "type": "address"
        },
        {
          "indexed": false,
          "internalType": "uint256",
          "name": "orderID",
          "type": "uint256"
        },
        {
          "indexed": false,
          "internalType": "uint256",
          "name": "amount",
          "type": "uint256"
        },
        {
          "indexed": false,
          "internalType": "uint256",
          "name": "margin",
          "type": "uint256"
        }
      ],
      "name": "AddMargin",
      "type": "event"
    },
    {
      "anonymous": false,
      "inputs": [
        {
          "indexed": false,
          "internalType": "address",
          "name": "maker",
          "type": "address"
        },
        {
          "indexed": false,
          "internalType": "uint256",
          "name": "amount",
          "type": "uint256"
        },
        {
          "indexed": false,
          "internalType": "uint256",
          "name": "availableAmount",
          "type": "uint256"
        },
        {
          "indexed": false,
          "internalType": "uint256",
          "name": "lockedAmount",
          "type": "uint256"
        },
        {
          "indexed": false,
          "internalType": "uint256",
          "name": "maintenanceMargin",
          "type": "uint256"
        },
        {
          "indexed": false,
          "internalType": "uint256",
          "name": "share",
          "type": "uint256"
        },
        {
          "indexed": false,
          "internalType": "uint256",
          "name": "flag",
          "type": "uint256"
        }
      ],
      "name": "BalanceOfMaker",
      "type": "event"
    },
    {
      "anonymous": false,
      "inputs": [
        {
          "indexed": false,
          "internalType": "uint64",
          "name": "version",
          "type": "uint64"
        }
      ],
      "name": "Initialized",
      "type": "event"
    },
    {
      "anonymous": false,
      "inputs": [
        {
          "indexed": false,
          "internalType": "uint256",
          "name": "dealID",
          "type": "uint256"
        },
        {
          "indexed": false,
          "internalType": "address",
          "name": "maker",
          "type": "address"
        },
        {
          "indexed": false,
          "internalType": "uint256",
          "name": "value",
          "type": "uint256"
        },
        {
          "indexed": false,
          "internalType": "uint256",
          "name": "price",
          "type": "uint256"
        },
        {
          "indexed": false,
          "internalType": "uint256",
          "name": "makerID",
          "type": "uint256"
        },
        {
          "indexed": false,
          "internalType": "uint256",
          "name": "marginAmount",
          "type": "uint256"
        },
        {
          "indexed": false,
          "internalType": "uint256",
          "name": "maintenanceMargin",
          "type": "uint256"
        }
      ],
      "name": "LockInPrivatePool",
      "type": "event"
    },
    {
      "anonymous": false,
      "inputs": [
        {
          "indexed": false,
          "internalType": "uint256",
          "name": "dealID",
          "type": "uint256"
        },
        {
          "indexed": false,
          "internalType": "address",
          "name": "maker",
          "type": "address"
        },
        {
          "indexed": false,
          "internalType": "uint256",
          "name": "value",
          "type": "uint256"
        },
        {
          "indexed": false,
          "internalType": "uint256",
          "name": "price",
          "type": "uint256"
        },
        {
          "indexed": false,
          "internalType": "uint256",
          "name": "makerID",
          "type": "uint256"
        },
        {
          "indexed": false,
          "internalType": "uint256",
          "name": "marginAmount",
          "type": "uint256"
        },
        {
          "indexed": false,
          "internalType": "uint256",
          "name": "maintenanceMargin",
          "type": "uint256"
        },
        {
          "indexed": false,
          "internalType": "uint256",
          "name": "flag",
          "type": "uint256"
        }
      ],
      "name": "LockPoolMargin",
      "type": "event"
    },
    {
      "anonymous": false,
      "inputs": [
        {
          "indexed": true,
          "internalType": "address",
          "name": "previousOwner",
          "type": "address"
        },
        {
          "indexed": true,
          "internalType": "address",
          "name": "newOwner",
          "type": "address"
        }
      ],
      "name": "OwnershipTransferred",
      "type": "event"
    },
    {
      "anonymous": false,
      "inputs": [
        {
          "indexed": true,
          "internalType": "address",
          "name": "account",
          "type": "address"
        },
        {
          "indexed": false,
          "internalType": "uint256",
          "name": "amount",
          "type": "uint256"
        },
        {
          "indexed": false,
          "internalType": "uint256",
          "name": "poolType",
          "type": "uint256"
        }
      ],
      "name": "Provide",
      "type": "event"
    },
    {
      "anonymous": false,
      "inputs": [
        {
          "indexed": false,
          "internalType": "address",
          "name": "sender",
          "type": "address"
        },
        {
          "indexed": false,
          "internalType": "address",
          "name": "received",
          "type": "address"
        },
        {
          "indexed": false,
          "internalType": "enum ICommon.TransactionType",
          "name": "transactionType",
          "type": "uint8"
        },
        {
          "indexed": false,
          "internalType": "uint256",
          "name": "amount",
          "type": "uint256"
        },
        {
          "indexed": false,
          "internalType": "uint256",
          "name": "timestamp",
          "type": "uint256"
        }
      ],
      "name": "TransferFee",
      "type": "event"
    },
    {
      "anonymous": false,
      "inputs": [
        {
          "indexed": true,
          "internalType": "address",
          "name": "account",
          "type": "address"
        },
        {
          "indexed": false,
          "internalType": "uint256",
          "name": "amount",
          "type": "uint256"
        },
        {
          "indexed": false,
          "internalType": "uint256",
          "name": "poolType",
          "type": "uint256"
        }
      ],
      "name": "Withdraw",
      "type": "event"
    },
    {
      "stateMutability": "nonpayable",
      "type": "fallback"
    },
    {
      "inputs": [
        {
          "internalType": "uint256",
          "name": "_orderID",
          "type": "uint256"
        },
        {
          "internalType": "uint256",
          "name": "_amount",
          "type": "uint256"
        }
      ],
      "name": "addMarginAmount",
      "outputs": [],
      "stateMutability": "nonpayable",
      "type": "function"
    },
    {
      "inputs": [
        {
          "internalType": "uint256",
          "name": "_dealID",
          "type": "uint256"
        },
        {
          "internalType": "uint256",
          "name": "_profit",
          "type": "uint256"
        }
      ],
      "name": "checkMarginRisk",
      "outputs": [
        {
          "internalType": "bool",
          "name": "isRisk",
          "type": "bool"
        }
      ],
      "stateMutability": "view",
      "type": "function"
    },
    {
      "inputs": [
        {
          "internalType": "uint256",
          "name": "_id",
          "type": "uint256"
        },
        {
          "internalType": "uint8",
          "name": "_type",
          "type": "uint8"
        },
        {
          "internalType": "uint256",
          "name": "_profit",
          "type": "uint256"
        },
        {
          "internalType": "uint256",
          "name": "_loss",
          "type": "uint256"
        },
        {
          "internalType": "uint256",
          "name": "_amount",
          "type": "uint256"
        },
        {
          "internalType": "uint256",
          "name": "_price",
          "type": "uint256"
        },
        {
          "internalType": "bool",
          "name": "_transform",
          "type": "bool"
        }
      ],
      "name": "close",
      "outputs": [
        {
          "internalType": "uint256",
          "name": "makerProfit",
          "type": "uint256"
        },
        {
          "internalType": "uint256",
          "name": "makerLoss",
          "type": "uint256"
        },
        {
          "internalType": "bool",
          "name": "isLiquidated",
          "type": "bool"
        },
        {
          "internalType": "bool",
          "name": "isAgreement",
          "type": "bool"
        }
      ],
      "stateMutability": "nonpayable",
      "type": "function"
    },
    {
      "inputs": [],
      "name": "escrowAccount",
      "outputs": [
        {
          "internalType": "address",
          "name": "",
          "type": "address"
        }
      ],
      "stateMutability": "view",
      "type": "function"
    },
    {
      "inputs": [
        {
          "internalType": "address",
          "name": "maker",
          "type": "address"
        }
      ],
      "name": "getLP2Account",
      "outputs": [
        {
          "components": [
            {
              "internalType": "address payable",
              "name": "holder",
              "type": "address"
            },
            {
              "internalType": "uint256",
              "name": "amount",
              "type": "uint256"
            },
            {
              "internalType": "uint256",
              "name": "availableAmount",
              "type": "uint256"
            },
            {
              "internalType": "uint256",
              "name": "lockedAmount",
              "type": "uint256"
            },
            {
              "internalType": "uint256",
              "name": "maintenanceMargin",
              "type": "uint256"
            },
            {
              "internalType": "uint256",
              "name": "marginRate",
              "type": "uint256"
            },
            {
              "internalType": "uint256",
              "name": "maintenanceMarginRate",
              "type": "uint256"
            },
            {
              "internalType": "uint256",
              "name": "addMarginRate",
              "type": "uint256"
            },
            {
              "internalType": "bool",
              "name": "autoAddMargin",
              "type": "bool"
            },
            {
              "internalType": "bool",
              "name": "isRejectOrder",
              "type": "bool"
            }
          ],
          "internalType": "struct IPool.LP2Account",
          "name": "",
          "type": "tuple"
        }
      ],
      "stateMutability": "view",
      "type": "function"
    },
    {
      "inputs": [],
      "name": "getMakerAddresses",
      "outputs": [
        {
          "internalType": "address[]",
          "name": "",
          "type": "address[]"
        }
      ],
      "stateMutability": "view",
      "type": "function"
    },
    {
      "inputs": [
        {
          "internalType": "uint256",
          "name": "makerDealID",
          "type": "uint256"
        }
      ],
      "name": "getMakerDeal",
      "outputs": [
        {
          "components": [
            {
              "internalType": "address",
              "name": "makerAddr",
              "type": "address"
            },
            {
              "internalType": "bool",
              "name": "locked",
              "type": "bool"
            },
            {
              "internalType": "uint256",
              "name": "takerId",
              "type": "uint256"
            },
            {
              "internalType": "uint256",
              "name": "size",
              "type": "uint256"
            },
            {
              "internalType": "uint256",
              "name": "marginAmount",
              "type": "uint256"
            },
            {
              "internalType": "uint256",
              "name": "maintenanceMargin",
              "type": "uint256"
            },
            {
              "internalType": "uint256",
              "name": "pubPriFlag",
              "type": "uint256"
            },
            {
              "internalType": "uint256",
              "name": "movePrice",
              "type": "uint256"
            },
            {
              "internalType": "uint256",
              "name": "time",
              "type": "uint256"
            }
          ],
          "internalType": "struct IPool.MakerDeal",
          "name": "",
          "type": "tuple"
        }
      ],
      "stateMutability": "view",
      "type": "function"
    },
    {
      "inputs": [],
      "name": "getMakerDealsLength",
      "outputs": [
        {
          "internalType": "uint256",
          "name": "lpLen",
          "type": "uint256"
        }
      ],
      "stateMutability": "view",
      "type": "function"
    },
    {
      "inputs": [],
      "name": "getShareAddresses",
      "outputs": [
        {
          "internalType": "address[]",
          "name": "",
          "type": "address[]"
        }
      ],
      "stateMutability": "view",
      "type": "function"
    },
    {
      "inputs": [
        {
          "internalType": "address",
          "name": "initialOwner",
          "type": "address"
        },
        {
          "internalType": "address",
          "name": "_tokenAddress",
          "type": "address"
        },
        {
          "internalType": "address",
          "name": "_riskFundAddr",
          "type": "address"
        }
      ],
      "name": "initialize",
      "outputs": [],
      "stateMutability": "nonpayable",
      "type": "function"
    },
    {
      "inputs": [
        {
          "internalType": "uint256",
          "name": "",
          "type": "uint256"
        }
      ],
      "name": "matchIds",
      "outputs": [
        {
          "internalType": "uint256",
          "name": "",
          "type": "uint256"
        }
      ],
      "stateMutability": "view",
      "type": "function"
    },
    {
      "inputs": [
        {
          "internalType": "string",
          "name": "_name",
          "type": "string"
        },
        {
          "internalType": "uint256",
          "name": "_id",
          "type": "uint256"
        },
        {
          "internalType": "uint256",
          "name": "_amount",
          "type": "uint256"
        },
        {
          "internalType": "uint256",
          "name": "_tradingFee",
          "type": "uint256"
        },
        {
          "internalType": "uint256",
          "name": "_price",
          "type": "uint256"
        },
        {
          "internalType": "enum ICommon.Direct",
          "name": "_direction",
          "type": "uint8"
        }
      ],
      "name": "matchOrder",
      "outputs": [
        {
          "internalType": "bool",
          "name": "success",
          "type": "bool"
        },
        {
          "internalType": "uint256",
          "name": "remaining",
          "type": "uint256"
        }
      ],
      "stateMutability": "nonpayable",
      "type": "function"
    },
    {
      "inputs": [],
      "name": "owner",
      "outputs": [
        {
          "internalType": "address",
          "name": "",
          "type": "address"
        }
      ],
      "stateMutability": "view",
      "type": "function"
    },
    {
      "inputs": [],
      "name": "poolType",
      "outputs": [
        {
          "internalType": "enum ICommon.PoolFlag",
          "name": "",
          "type": "uint8"
        }
      ],
      "stateMutability": "view",
      "type": "function"
    },
    {
      "inputs": [
        {
          "internalType": "address",
          "name": "",
          "type": "address"
        },
        {
          "internalType": "string",
          "name": "",
          "type": "string"
        },
        {
          "internalType": "uint256",
          "name": "",
          "type": "uint256"
        }
      ],
      "name": "positions",
      "outputs": [
        {
          "internalType": "uint256",
          "name": "value",
          "type": "uint256"
        },
        {
          "internalType": "uint256",
          "name": "size",
          "type": "uint256"
        }
      ],
      "stateMutability": "view",
      "type": "function"
    },
    {
      "inputs": [
        {
          "internalType": "uint256",
          "name": "_amount",
          "type": "uint256"
        },
        {
          "internalType": "uint256",
          "name": "_priOrPub",
          "type": "uint256"
        }
      ],
      "name": "provide",
      "outputs": [],
      "stateMutability": "nonpayable",
      "type": "function"
    },
    {
      "inputs": [],
      "name": "renounceOwnership",
      "outputs": [],
      "stateMutability": "nonpayable",
      "type": "function"
    },
    {
      "inputs": [
        {
          "internalType": "bool",
          "name": "_flag",
          "type": "bool"
        }
      ],
      "name": "setIsRejectOrder",
      "outputs": [],
      "stateMutability": "nonpayable",
      "type": "function"
    },
    {
      "inputs": [
        {
          "internalType": "address",
          "name": "_perpetual",
          "type": "address"
        },
        {
          "internalType": "address",
          "name": "_orderBook",
          "type": "address"
        },
        {
          "internalType": "address",
          "name": "_tradeAgent",
          "type": "address"
        },
        {
          "internalType": "address",
          "name": "_tradeStation",
          "type": "address"
        }
      ],
      "name": "setKeepers",
      "outputs": [],
      "stateMutability": "nonpayable",
      "type": "function"
    },
    {
      "inputs": [
        {
          "internalType": "uint256",
          "name": "mean",
          "type": "uint256"
        },
        {
          "internalType": "uint256",
          "name": "value",
          "type": "uint256"
        },
        {
          "internalType": "bool",
          "name": "vBool",
          "type": "bool"
        }
      ],
      "name": "setUserParam",
      "outputs": [],
      "stateMutability": "nonpayable",
      "type": "function"
    },
    {
      "inputs": [
        {
          "internalType": "address",
          "name": "newOwner",
          "type": "address"
        }
      ],
      "name": "transferOwnership",
      "outputs": [],
      "stateMutability": "nonpayable",
      "type": "function"
    },
    {
      "inputs": [
        {
          "internalType": "uint256",
          "name": "_amount",
          "type": "uint256"
        },
        {
          "internalType": "uint256",
          "name": "_priOrPub",
          "type": "uint256"
        }
      ],
      "name": "withdraw",
      "outputs": [],
      "stateMutability": "nonpayable",
      "type": "function"
    }
  ],
  "bytecode": "0x60808060405234601557614636908161001b8239f35b600080fdfe6080604052600436101561001a575b3461001557005b600080fd5b6000803560e01c80630c8c3516146119f957806336ff6a70146119cf578063441a3e701461141657806346ceec98146112c857806354b3b0181461129e57806360d32e8d146111d7578063715018a61461113e578063728f855e1461109c57806381a4f17314610faf578063880a1a7714610f315780638da5cb5b14610eeb5780638e3a0e9214610e67578063a2d6f7bb14610d28578063b1dd61b614610ce8578063bc1c1c6c14610c5a578063c0c53b8b146108e3578063c23e629f146106fb578063d3c76d661461069b578063e8c3c54f146101e3578063f26a3e1d14610165578063f2da708d146101475763f2fde38b14610118575061000e565b3461014457602060031936011261014457610141610134611a96565b61013c613075565b612e80565b80f35b80fd5b50346101445780600319360112610144576020601154604051908152f35b50346101445760e0600319360112610144576024359060ff821682036101445760c4358015158103610015576080926101af60ff60406101c795338152600e602052205416611d70565b60a435906084359060643590604435906004356122c7565b9160405193845260208401521515604083015215156060820152f35b5034610144576101f236611be5565b908060125460ff811660058110156106875760038114908115610674575b50156105ec576001600160a01b039060081c1633146106305761023230613454565b9061024a8130336001600160a01b0360055416613577565b600184036103e85750610264610272926001541115612143565b61026d30613454565b611c89565b90338352600d60205260ff6040842054161561036f575b6102a661029860015484612103565b6102a0614372565b90612116565b6001600160a01b0360125460081c1684526010602052600160408520016102ce848254612136565b90556001600160a01b0360125460081c1684526010602052600260408520016102f8848254612136565b90556001600160a01b0360125460081c168452600f6020526040842061031f828254612136565b9055338452600f60205261033860408520918254612136565b90555b60405191825260208201527f4089141ea5e4c16575f5ebf65f1786497ea07c175846fc7745ef8d8986a4ff6560403392a280f35b338352600d60205260408320600160ff19825416179055600a54680100000000000000008110156103d2576103af8160016103cd9301600a55600a611cc7565b33906001600160a01b038084549260031b9316831b921b1916179055565b610289565b634e487b7160e01b600052604160045260246000fd5b9150600283036105ec57610264610403926001541115612143565b90338352600c60205260ff60408420541615610568575b3383526010602052604083206040519061043382611ad8565b80546001600160a01b03168252600181015491602081019183835260028101546040830190815260038201546060840190815260048301546080850190815260058401549160a0860192835260068501549360c0870194855260078601549560e08801968752600801549761010088019960ff8a1615158b528c6101208a019a60081c60ff1615158b526104c691612136565b81528b8251906104d591612136565b8252338d52601060205260408d2097516001600160a01b03166001600160a01b031688546001600160a01b0319161788555160018801555160028701555160038601555160048501555160058401555160068301555160078201556008019151151561054e90839060ff60ff1983541691151516179055565b51815461ff00191690151560081b61ff001617905561033b565b338352600c60205260408320600160ff19825416179055600b54680100000000000000008110156103d2576103af8160016105a89301600b55600b611cc7565b338352601060205260086040842001600160ff198254161790553383526010602052604083206001600160a01b0333166001600160a01b031982541617905561041a565b606460405162461bcd60e51b815260206004820152601260248201527f77726f6e67206465706f73697420666c616700000000000000000000000000006044820152fd5b606460405162461bcd60e51b815260206004820152601860248201527f77616c6c657420697320657363726f77206163636f756e7400000000000000006044820152fd5b9050600585101561068757841438610210565b602486634e487b7160e01b81526021600452fd5b5034610144576106aa36611be5565b908252601460205260408220549160001983019283116106e7575060806106db6106d5602094611cdf565b50611cfe565b01511115604051908152f35b80634e487b7160e01b602492526011600452fd5b50346101445761070a36611be5565b6001600160a01b0361071b83611cdf565b505416330361089f5733835260106020528060026040852001541061085b57600160ff61074784611cdf565b505460a01c16151503610817577f019130f8a77fdc9232eb5d783470b2d267700b2455be05b92254f5387861fbdd90338452601060205261078f816002604087200154611c89565b3385526010602052600260408620015533845260106020526107b8816003604087200154612136565b338552601060205260036040862001556107df8160036107d786611cdf565b500154612136565b60036107ea85611cdf565b50015560036107f884611cdf565b500154604080519485526020850192909252908301523391606090a280f35b606460405162461bcd60e51b815260206004820152601660248201527f4c6971756964697479207374617475732077726f6e67000000000000000000006044820152fd5b606460405162461bcd60e51b815260206004820152601060248201527f45786365656420617661696c61626c65000000000000000000000000000000006044820152fd5b606460405162461bcd60e51b815260206004820152600960248201527f4e6f74206d616b657200000000000000000000000000000000000000000000006044820152fd5b5034610144576060600319360112610144576108fd611a96565b90610906611aac565b9161090f611ac2565b927ff0c57e16840df040f15088dc2f81fe391c3923bec73e23a9662efc9c229c6a00549360ff8560401c16159467ffffffffffffffff811680159081610c52575b6001149081610c48575b159081610c3f575b50610c1757916001600160a01b0380949392838860017fffffffffffffffffffffffffffffffffffffffffffffffff0000000000000000859716177ff0c57e16840df040f15088dc2f81fe391c3923bec73e23a9662efc9c229c6a0055610bc2575b506109cd6145a7565b6109d56145a7565b6109de33612e80565b6109e6613075565b6109ef85612e80565b166001600160a01b03196006541617600655166001600160a01b03196005541617600555816012547fffffffffffffffffffffff0000000000000000000000000000000000000000ff74ffffffffffffffffffffffffffffffffffffffff003360081b169116178060125560081c168084526010602052826040852091166001600160a01b03198254161790558160125460081c168352601060205260086040842001600160ff19825416179055308352600e60205260408320600160ff19825416179055168152600e60205260408120600160ff19825416179055338152600e60205260408120600160ff19825416179055600260ff19601254161760125560ff198154168155670de0b6b3a764000060015550662386f26fc10000600255600067016345785d8a00006003555066071afd498d0000600455610b2f57005b7fffffffffffffffffffffffffffffffffffffffffffffff00ffffffffffffffff7ff0c57e16840df040f15088dc2f81fe391c3923bec73e23a9662efc9c229c6a0054167ff0c57e16840df040f15088dc2f81fe391c3923bec73e23a9662efc9c229c6a00557fc7f505b2f371ae2175ee4913f4499e1f2633a7b5936321eed1cdaeb6115181d2602060405160018152a1005b7fffffffffffffffffffffffffffffffffffffffffffffff0000000000000000001668010000000000000001177ff0c57e16840df040f15088dc2f81fe391c3923bec73e23a9662efc9c229c6a0055386109c4565b6004857ff92ee8a9000000000000000000000000000000000000000000000000000000008152fd5b90501538610962565b303b15915061095a565b879150610950565b503461014457806003193601126101445760405180916020600b54928381520191600b82527f0175b7a638427703f0dbe7bb9bbf987a2551717b34e79f33b5b1008d1fa01db9915b818110610cc957610cc585610cb981870382611b12565b60405191829182611bfb565b0390f35b82546001600160a01b0316845260209093019260019283019201610ca2565b503461014457806003193601126101445760ff60125416604051906005811015610d1457602092508152f35b602483634e487b7160e01b81526021600452fd5b5034610144576060600319360112610144576024356044356004358115158203610e6357338452600c60205260ff60408520541615610e1f5760018103610d7e5750503382526010602052600560408320015580f35b60028103610d9b5750503382526010602052600660408320015580f35b60038103610db85750503382526010602052600760408320015580f35b909150600a8103610def5750610141903383526010602052600860408420019061ff001961ff00835492151560081b169116179055565b600b14610dfa575080f35b610141903383526010602052600860408420019060ff60ff1983541691151516179055565b606460405162461bcd60e51b815260206004820152601260248201527f75736572206973206e6f742065786973747300000000000000000000000000006044820152fd5b8380fd5b50346101445760c06003193601126101445760043567ffffffffffffffff8111610ee757610e99903690600401611b51565b60a435906003821015610ee35790610ed591610ec460ff60408096338152600e602052205416611d70565b608435906044359060243590611de1565b825191151582526020820152f35b8280fd5b5080fd5b503461014457806003193601126101445760206001600160a01b037f9016d09d72d40fdae2fd8ceac6b6234c7706214fd39c1cd1e609a0528c1993005416604051908152f35b503461014457806003193601126101445760405180916020600a54928381520191600a82527fc65a7bb8d6351c1cf70c95a316cc6a92839c986682d98bc35f958f4883f9d2a8915b818110610f9057610cc585610cb981870382611b12565b82546001600160a01b0316845260209093019260019283019201610f79565b503461014457608060031936011261014457610fc9611a96565b610fd1611aac565b90610fda611ac2565b90606435926001600160a01b038416809403611098576001600160a01b0392838092611004613075565b16806001600160a01b031960085416176008558652600e60205260408620600160ff1982541617905516806001600160a01b031960095416176009558452600e60205260408420600160ff1982541617905516806001600160a01b031960075416176007558252600e60205260408220600160ff198254161790558152600e60205260408120600160ff1982541617905580f35b8480fd5b5034610144576020600319360112610144576004358015158103610ee757338252600c60205260ff604083205416156110fa57610141903383526010602052600860408420019061ff001961ff00835492151560081b169116179055565b606460405162461bcd60e51b815260206004820152600c60248201527f6e656564206465706f73697400000000000000000000000000000000000000006044820152fd5b5034610144578060031936011261014457611157613075565b806001600160a01b037f9016d09d72d40fdae2fd8ceac6b6234c7706214fd39c1cd1e609a0528c199300546001600160a01b031981167f9016d09d72d40fdae2fd8ceac6b6234c7706214fd39c1cd1e609a0528c19930055167f8be0079c531659141344cd1fd0a4f28419497f9722a3daafe3b4186f6b6457e08280a380f35b5034610144576020600319360112610144576101006040516111f881611af5565b8281528260208201528260408201528260608201528260808201528260a08201528260c08201528260e082015201526101206112386106d5600435611cdf565b610100604051916001600160a01b03815116835260208101511515602084015260408101516040840152606081015160608401526080810151608084015260a081015160a084015260c081015160c084015260e081015160e08401520151610100820152f35b503461014457806003193601126101445760206001600160a01b0360125460081c16604051908152f35b5034610144576020600319360112610144576040610140916001600160a01b036112f0611a96565b8261012085516112ff81611ad8565b82815282602082015282878201528260608201528260808201528260a08201528260c08201528260e08201528261010082015201521681526010602052206040519061134a82611ad8565b6001600160a01b03815416918281526001820154916020820192835260028101546040830190815260038201546060840190815260048301546080850190815260058401549160a0860192835260068501549360c08701948552600860078701549660e0890197885201549760ff6101206101008a0199828c1615158b52019960081c1615158952604051998a525160208a01525160408901525160608801525160808701525160a08601525160c08501525160e0840152511515610100830152511515610120820152f35b50346101445761142536611be5565b81801515806119b7575b156119735760ff60125416600581101561195f576003811490811561194c575b501561190857600182036115c6575061147b61147261146c614372565b84612103565b60015490612116565b6001600160a01b0360125460081c16845260106020526002604085200154831115806115b0575b6114ab90611c3e565b338452600f602052604084206114c2848254611c89565b90556001600160a01b0360125460081c168452600f602052604084206114e9848254611c89565b90556001600160a01b0360125460081c168452601060205260016040852001611513828254611c89565b90556001600160a01b0360125460081c168452601060205261153d60026040862001918254611c89565b9055338352600f60205260408320541561159d575b611569826001600160a01b03600554163390612f87565b60405191825260208201527ff279e6a1f5e320cca91135676d9cb6e44ca8a08c0b88342bcdb1144f6511b56860403392a280f35b338352600f602052826040812055611552565b50338452600f60205260408420548311156114a2565b600282036119085733845260106020526040842090604051906115e882611ad8565b6001600160a01b03835416825260018301549160208101928352600284015492604082019184835260038601549560608201968752600481015460808301908152600582015460a0840190815260068301549160c08501928352611694600860078601549560e0880196875201549861168061010088019b60ff8c1615158d5260ff6101208a019c60081c1615158c52821115611c3e565b61168b818951611c89565b88528851611c89565b8752895115806118fe575b806118f2575b6118e6575b85518061180d57505050505050505050505090825b600b5480821015611805576001600160a01b036116db83611cac565b905460039190911b1c1633146116f457506001016116bf565b9060001982949394019182116117f1578181036117a6575b5050338352600c6020526040832060ff1981541690553383526010602052826008604082208281558260018201558260028201558260038201558260048201558260058201558260068201558260078201550155600b548015611792576000190161177681611cac565b6001600160a01b0382549160031b1b19169055600b555b611552565b602484634e487b7160e01b81526031600452fd5b6117cb6001600160a01b036117bd6117ea94611cac565b90549060031b1c1691611cac565b9091906001600160a01b038084549260031b9316831b921b1916179055565b388061170c565b602485634e487b7160e01b81526011600452fd5b505090611552565b600154116118a25761178d9961188b976008978f6001600160a01b0360408192338152601060205220995116166001600160a01b03198954161788555160018801555160028701555160038601555160048501555160058401555160068301555160078201550192511515839060ff60ff1983541691151516179055565b51815461ff00191690151560081b61ff0016179055565b606460405162461bcd60e51b815260206004820152601860248201527f7374617920616d6f756e7420697320746f6f20736d616c6c00000000000000006044820152fd5b85518d87529b506116aa565b508551600154116116a5565b508551151561169f565b606460405162461bcd60e51b815260206004820152601360248201527f77726f6e6720776974686472617720666c6167000000000000000000000000006044820152fd5b9050600583101561195f5782143861144f565b602485634e487b7160e01b81526021600452fd5b606460405162461bcd60e51b815260206004820152600e60248201527f646f206e6f7420616c6c6f7765640000000000000000000000000000000000006044820152fd5b506001600160a01b0360125460081c1633141561142f565b50346101445760206003193601126101445760406020916004358152601483522054604051908152f35b503461014457606060031936011261014457611a13611a96565b9060243567ffffffffffffffff8111610ee7576020611a39611a63923690600401611b51565b6001600160a01b036044359516845260138252604084208260405194838680955193849201611b98565b820190815203019020906002831015610144576040611a828484611bbb565b506001815491015482519182526020820152f35b600435906001600160a01b038216820361001557565b602435906001600160a01b038216820361001557565b604435906001600160a01b038216820361001557565b610140810190811067ffffffffffffffff8211176103d257604052565b610120810190811067ffffffffffffffff8211176103d257604052565b90601f601f19910116810190811067ffffffffffffffff8211176103d257604052565b67ffffffffffffffff81116103d257601f01601f191660200190565b81601f8201121561001557803590611b6882611b35565b92611b766040519485611b12565b8284526020838301011161001557816000926020809301838601378301015290565b60005b838110611bab5750506000910152565b8181015183820152602001611b9b565b906002811015611bcf5760011b0190600090565b634e487b7160e01b600052603260045260246000fd5b6003196040910112610015576004359060243590565b602060408183019282815284518094520192019060005b818110611c1f5750505090565b82516001600160a01b0316845260209384019390920191600101611c12565b15611c4557565b606460405162461bcd60e51b815260206004820152601060248201527f6c6f7765722074686520616d6f756e74000000000000000000000000000000006044820152fd5b91908203918211611c9657565b634e487b7160e01b600052601160045260246000fd5b600b54811015611bcf57600b60005260206000200190600090565b8054821015611bcf5760005260206000200190600090565b601154811015611bcf57601160005260206000209060031b0190600090565b90604051611d0b81611af5565b6101006007829460ff81546001600160a01b038116865260a01c1615156020850152600181015460408501526002810154606085015260038101546080850152600481015460a0850152600581015460c0850152600681015460e08501520154910152565b15611d7757565b608460405162461bcd60e51b815260206004820152602160248201527f63616c6c6572206973206e6f74207072697661746520706f6f6c206b6565706560448201527f72000000000000000000000000000000000000000000000000000000000000006064820152fd5b92919493906001600160a01b03611df884886130e0565b9290911680611e0e575050505050505060009190565b601198959697985460018101809111611c965784600052601460205260406000205560026001600160a01b0360125460081c1682146120fb575b604051611e5481611af5565b828152602081016001815260408201878152606083018a81526080840187815260a085019089825260c086019287845260e087019460008652610100880196428852601154680100000000000000008110156103d257806001611eba9201601155611cdf565b9990996120e557516001600160a01b03166001600160a01b031689546001600160a01b03191617895551151588549060a01b74ff0000000000000000000000000000000000000000169060ff60a01b19161788555160018801555160028701555160038601555160048501555160058401555160068301555190600701558160005260106020526040600020600381018585825490611f5891612136565b90611f6291612136565b809155600482019086825490611f7791612136565b8092558460028401938888865490611f8e91611c89565b90611f9891611c89565b8095558c8c60125460081c6001600160a01b031684149b8c159b60e09b6001967f5e16b3b6e0a15f63fe16c5b5705c03147211e204ce01e5197d2a699c087e167b957f9a5787718e945183fe431d089b46b9ee2c5cd3ffbb79ca1a9b117fc29b31c6aa9f956101009661208f575b60115492604051968752602087015260408601526060850152608084015260a083015260c0820152888b820152a101549285600052600f60205260406000205493604051968752602087015260408601526060850152608084015260a083015260c0820152a161207d575b50505050600190600090565b61208693613292565b38808080612071565b8f7fa3a1bfbb9bdc25103a35116c7acb34f9f4b89a4932e0fd8fd52303e9ef74debd906011546040519089825286602083015284604083015285606083015260808201528660a08201528760c0820152a1612006565b634e487b7160e01b600052600060045260246000fd5b506001611e48565b81810292918115918404141715611c9657565b8115612120570490565b634e487b7160e01b600052601260045260246000fd5b91908201809211611c9657565b1561214a57565b606460405162461bcd60e51b815260206004820152600960248201527f746f6f20736d616c6c00000000000000000000000000000000000000000000006044820152fd5b6020818303126100155780519067ffffffffffffffff8211610015570190610160828203126100155760405191610160830183811067ffffffffffffffff8211176103d25760405280516001600160a01b03811681036100155783526020810151600381101561001557602084015260408101516006811015610015576040840152606081015160038110156100155760608401526080810151608084015260a081015167ffffffffffffffff81116100155781019180601f840112156100155782519261225b84611b35565b916122696040519384611b12565b84835260208583010111610015576101409361228b9160208085019101611b98565b60a084015260c081015160c084015260e081015160e0840152610100810151610100840152610120810151610120840152015161014082015290565b9096929491956000908190829083988498868652601460205260408620546000198101908111612e6c576122fa90611cdf565b50966001600160a01b0388541690818852601060205260ff604089209f169182159081612e54575b50612d8e575b506001036127ea5750505050506003820197885498600484019261234d84548c612136565b91600284019b8c5461235f8186612136565b8d1115612475575050508961237f6123778483611c89565b8d5490611c89565b906123886136a0565b90818311612443575b50506123e89695938b95936123e1938360049461241a575b50809e600184016123c18461026d8354855490611c89565b9055556123d360038301918254611c89565b905501918254905490611c89565b9055613fcf565b156123ef57565b915050612414826001600160a01b03600554166001600160a01b036007541690612f87565b60018091565b61243d906001600160a01b03600554166001600160a01b03600654163091613577565b386123a9565b6123e1939c509361246260049361026d846123e89c9b99959a98612136565b9c8d979350935093958195979850612391565b848d99989796959e9d116000146126575750508054906124958289611c89565b90600885015460ff81169081612648575b508061263d575b61253457505050916124ff600461250696959388959d869d6124ee6124d2838a611c89565b600185016124e58261026d878454611c89565b90558254611c89565b90556123d360038301918254611c89565b9055613c2c565b1561250e5750565b90925061241491506001600160a01b03600554166001600160a01b036007541690612f87565b9599509561258e91979c506125a0929a507f019130f8a77fdc9232eb5d783470b2d267700b2455be05b92254f5387861fbdd989b93945060035490600786015480612633575b506125899060028c0154612103565b612103565b61259b6001548092612116565b612116565b6125aa8186612136565b8254101561261b575b506125c2846003949596612136565b84556125cf858254611c89565b9055016125dd838254612136565b905561261160016001600160a01b038654169501549154604051938493846040919493926060820195825260208201520152565b0390a28092918190565b61262b6125c29160039596612136565b9493506125b3565b915061258961257a565b508c548211156124ad565b60ff915060081c1615386124a6565b9091849c60088f99979f96989598015460ff811690816127db575b5061270b575b505050506126af939a6126a86004889c60018101612697878254611c89565b9055600381016123d3878254611c89565b9055613756565b156126b8575050565b9091935061241492506126e3826001600160a01b03600554166001600160a01b036007541690612f87565b6127056001600160a01b0360055416926001600160a01b036006541692611c89565b91612f87565b9091928094969795508910156000146127c657612728848a611c89565b92808411156127465750505050506126af9291849193388080612678565b93989d50939a50947f019130f8a77fdc9232eb5d783470b2d267700b2455be05b92254f5387861fbdd989b94995061279c91965061258e90600354906007870154806127bc575b506125899060028d0154612103565b906127a78287612136565b111561261b57506125c2846003949596612136565b915061258961278d565b50505050965050505094509250508092918190565b60ff915060081c161538612672565b80919597509b939b9a9195929a15600014612a85575060ff60a01b198254168255600382019961282260048c54940193845490612136565b9460038501612832878254611c89565b9055600485016128458154865490611c89565b90558215612a055750508099600284019586546128628188612136565b841115612956575061288c575b505050600161288791019161026d8354855490611c89565b905555565b6128a4929161289c915490611c89565b905490611c89565b6128b084548092611c89565b906128b96136a0565b808311612924575b509161291d6001926128f3612887956001600160a01b0360055416906127056001600160a01b0360075416918a612136565b6001600160a01b03600554166001600160a01b03600654166001600160a01b036007541691613577565b913861286f565b8161288794929b50600193506128f361294a8361294561291d95948a612136565b612136565b9c9395505092506128c1565b92959350959650508184116000146129b857506001839261297e6124e59361298d9796611c89565b94612991575b01918254611c89565b9055565b6129b3846001600160a01b03600554166001600160a01b036007541690612f87565b612984565b8361026d60019597936129ca93612136565b9055016129d8838254611c89565b90556129e15750565b612a03906001600160a01b03600554166001600160a01b036007541690612f87565b565b979b939594965099505050841515600014612a7257506129456002612a45938693612a4a575b60018101612a3a858254612136565b905501938454612136565b905593565b612a6d846001600160a01b03600554166001600160a01b03600754163091613577565b612a2b565b97935050600261298d9101918254612136565b94509260049899956003839493019a612a9f878d54612103565b956002860198612ace612ac7612ab78c54809b612116565b9e8f99019961259b8c8c54612103565b8098612136565b9460038701612ade878254611c89565b905560048701612aef898254611c89565b90558215612d0e575060028601928354612b098188612136565b841115612bdd5750505092612bc6926124e59592612b2d8361298d9b9a9997611c89565b93612b3a82548096611c89565b94612b436136a0565b808711612bd5575b50839291612b786001926001600160a01b0360055416906127056001600160a01b0360075416918a612136565b612ba6876001600160a01b03600554166001600160a01b03600654166001600160a01b036007541691613577565b01612bbd612bb5868354611c89565b835490611c89565b90555550612136565b996124e560019a5b8254611c89565b955083612b4b565b929695939450909183871115612c4a5750505061298d969594928492612c0b612bce6001946124e598611c89565b905501612c19828254611c89565b9055612c3d816001600160a01b03600554166001600160a01b036007541690612f87565b996124e560019a5b612bce565b8d879f9711600014612cb85750505061298d969594926124e59492612c7b612c748f600195611c89565b8254612136565b905501612c898c8254611c89565b9055612cad8b6001600160a01b03600554166001600160a01b036007541690612f87565b6124e560019a612bce565b9d6001612c45929e939f966124e59896612ce08461026d61298d9f9e9d9b996124e59a612136565b905501612cee828254611c89565b90556001600160a01b03600554166001600160a01b036007541690612f87565b61298d99989795919e94506124e5939d92506124e596811515600014612d775780612c4593612d4884612945600260019601938454612136565b905501612d56828254612136565b90556001600160a01b03600554166001600160a01b03600754163091613577565b612d879150600201918254612136565b9055612bce565b876001600160a01b0360085416916024604051809481936320bf56eb60e21b835260048301525afa908115612e49578891612e27575b5082612e1c57600289015460c08201525b60a08101519060208101516003811015612e085791816001949360e060c0612e0295015192015192613328565b90612328565b60248a634e487b7160e01b81526021600452fd5b8260c0820152612dd5565b612e4391503d808a833e612e3b8183611b12565b81019061218e565b38612dc4565b6040513d8a823e3d90fd5b90506001600160a01b0360125460081c161438612322565b602487634e487b7160e01b81526011600452fd5b6001600160a01b03168015612f10576001600160a01b037f9016d09d72d40fdae2fd8ceac6b6234c7706214fd39c1cd1e609a0528c19930054826001600160a01b03198216177f9016d09d72d40fdae2fd8ceac6b6234c7706214fd39c1cd1e609a0528c19930055167f8be0079c531659141344cd1fd0a4f28419497f9722a3daafe3b4186f6b6457e0600080a3565b7f1e4fbdf700000000000000000000000000000000000000000000000000000000600052600060045260246000fd5b3d15612f6a573d90612f5082611b35565b91612f5e6040519384611b12565b82523d6000602084013e565b606090565b90816020910312610015575180151581036100155790565b91612f9290836143ef565b9182612f9d57505050565b6000928380936040926001600160a01b037fffffffff00000000000000000000000000000000000000000000000000000000601960208751612fdf8982611b12565b828152017f7472616e7366657228616464726573732c75696e743235362900000000000000815220169451926020840195865216602483015260448201526044815261302c606482611b12565b51925af1613038612f3f565b81613046575b501561001557565b805180159250821561305b575b50503861303e565b61306e9250602080918301019101612f6f565b3880613053565b6001600160a01b037f9016d09d72d40fdae2fd8ceac6b6234c7706214fd39c1cd1e609a0528c199300541633036130a857565b7f118cdaa7000000000000000000000000000000000000000000000000000000006000523360045260246000fd5b8115612120570690565b906012549160ff83166005811015908161316c57600481141580613285575b1561324157600b548261316c576003821492839184159485613233575b8061322a575b613182575b5061316c5791613161575b5061314557505050600090600090600090565b6001600160a01b0361315a9360081c16614458565b9192909190565b600191501438613132565b634e487b7160e01b600052602160045260246000fd5b6131b78160405160208101904482524160601b6040820152426054820152605481526131af607482611b12565b5190206130d6565b9060005b8181106131c9575050613127565b6131fe89896001600160a01b036131f16131ec876131e7888b612136565b6130d6565b611cac565b90549060031b1c16614458565b90916001600160a01b038116613219575050506001016131bb565b9c919b509950975050505050505050565b50801515613122565b50600091506002841461311c565b606460405162461bcd60e51b815260206004820152601560248201527f706f6f6c207374617475732069732072656675736500000000000000000000006044820152fd5b50600091508015156130ff565b60206132c9919493946001600160a01b0360125460081c166000526013825260406000208260405194838680955193849201611b98565b82019081520301902090600381101561316c5760ff6000199116019160ff8311611c965761331d61331561330d61330561298d96600196611bbb565b509387612103565b845490612116565b825490612136565b815501918254612136565b9192506133606020601254936001600160a01b0360009560081c16855260138252604085208260405194838680955193849201611b98565b820190815203019020906003811015610d145760ff6000199116019060ff8211613419579061338e91611bbb565b509050600181019182548082116133d5578082036133b157505090600080925555565b826133ce61298d94546133c88461259b8784612103565b90611c89565b9055611c89565b606460405162461bcd60e51b815260206004820152601c60248201527f736861726520616d6f756e7420697320696e73756666696369656e74000000006044820152fd5b602483634e487b7160e01b81526011600452fd5b90816020910312610015575160ff811681036100155790565b604d8111611c9657600a0a90565b6001600160a01b0360055416906040519063313ce56760e01b8252602082600481865afa91821561352d57600092613539575b506001600160a01b03602460209260405195869384927f70a082310000000000000000000000000000000000000000000000000000000084521660048301525afa91821561352d576000926134f7575b506102a060ff6134ed6134f49460015490612103565b9216613446565b90565b91506020823d602011613525575b8161351260209383611b12565b81010312610015579051906102a06134d7565b3d9150613505565b6040513d6000823e3d90fd5b602091925060246135676001600160a01b0392843d8611613570575b61355f8183611b12565b81019061342d565b93925050613487565b503d613555565b90919261358490826143ef565b9283613591575b50505050565b600080949381946001600160a01b037fffffffff0000000000000000000000000000000000000000000000000000000060256040516135d1606082611b12565b8181527f7432353629000000000000000000000000000000000000000000000000000000604060208301927f7472616e7366657246726f6d28616464726573732c616464726573732c75696e84520152201694816040519460208601978852166024850152166044830152606482015260648152613650608482611b12565b51925af161365c612f3f565b81613671575b5015610015573880808061358b565b8051801592508215613686575b505038613662565b6136999250602080918301019101612f6f565b388061367e565b6001600160a01b036005541660405163313ce56760e01b8152602081600481855afa90811561352d57600091613737575b5060206001600160a01b03600654166024604051809581937f70a0823100000000000000000000000000000000000000000000000000000000835260048301525afa91821561352d576000926134f757506102a060ff6134ed6134f49460015490612103565b613750915060203d6020116135705761355f8183611b12565b386136d1565b91906001600160a01b03600854169160018401600081546024604051809781936320bf56eb60e21b835260048301525afa93841561352d57600094613c11575b5060125460ff8116600581101561316c5760031480613c05575b80613be5575b61381e575b505050506001600160a01b038254166001600160a01b0360125460081c16146137f0575b5060ff60a01b198154169055600090565b60a0810151602082015191600383101561316c576138189260e0600286015492015192613328565b386137df565b60081c6001600160a01b0316918260005260106020526040600020906040519261384784611ad8565b82546001600160a01b03168452600183015460208501908152600284015460408601908152600385015490606087019182526004860154926080880193845260058701549460a089019586528c60068901549760c08b0198895260078a01549960e08c019a8b52600801549c8d9c6101008d019e8f9060ff16151590526101208d01809e60081c60ff161515905280600052601060205281604060002060010154906138f291612136565b90600052601060205260406000206001015560125460081c6001600160a01b0316908160005260106020526040600020600201549061393091612136565b90600052601060205260406000206002015560125460081c6001600160a01b03169160020190808254906139649185614458565b95909490916001600160a01b0316613a10575050505050509260089592613a079a9998959261188b98956001600160a01b036012548a1c1660005260106020526001600160a01b03806040600020995116166001600160a01b03198954161788555160018801555160028701555160038601555160048501555160058401555160068301555160078201550192511515839060ff60ff1983541691151516179055565b388080806137bb565b99509a509b509b509b98509b955050505050600052601060205260406000206003810193613a43896129458a8854612136565b85556004820193613a558a8654612136565b85556002830196613a6b8b61026d8c8b54611c89565b88558960038601558a60048601556001600160a01b0380855416166001600160a01b0319865416178555600b60058601557401000000000000000000000000000000000000000060ff60a01b19865416178555600685015560a082015191602081015192600384101561316c57613aeb9160e08b54910194855192613292565b5492836000526014602052604060002054936000198501948511611c96577f9a5787718e945183fe431d089b46b9ee2c5cd3ffbb79ca1a9b117fc29b31c6aa9a60e09a6001967f5e16b3b6e0a15f63fe16c5b5705c03147211e204ce01e5197d2a699c087e167b956001600160a01b036101009654169c549051906040519586528d602087015260408601526060850152608084015260a083015260c082015260038a820152a10154925491549054916001600160a01b0360125460081c16600052600f60205260406000205493604051958652602086015260408501526060840152608083015260a0820152600360c0820152a1600190565b506001600160a01b038654166001600160a01b038260081c1614156137b6565b5060ff600054166137b0565b613c2591943d8091833e612e3b8183611b12565b9238613796565b91906001600160a01b03600854169160018401600081546024604051809781936320bf56eb60e21b835260048301525afa93841561352d57600094613fb4575b5060125460ff8116600581101561316c5760031480613fa8575b80613f88575b613cc457505050506001600160a01b038254166001600160a01b0360125460081c16146137f0575060ff60a01b198154169055600090565b60081c6001600160a01b03169182600052601060205260406000209060405192613ced84611ad8565b82546001600160a01b03168452600183015460208501908152600284015460408601908152600385015490606087019182526004860154926080880193845260058701549460a089019586528c60068901549760c08b0198895260078a01549960e08c019a8b52600801549c8d9c6101008d019e8f9060ff16151590526101208d01809e60081c60ff16151590528060005260106020528160406000206001015490613d9891612136565b90600052601060205260406000206001015560125460081c6001600160a01b03169081600052601060205260406000206002015490613dd691612136565b90600052601060205260406000206002015560125460081c6001600160a01b0316916002019080825490613e0a9185614458565b95909490916001600160a01b0316613ead575050505050509260089592613a079a9998959261188b98956001600160a01b036012548a1c1660005260106020526001600160a01b03806040600020995116166001600160a01b03198954161788555160018801555160028701555160038601555160048501555160058401555160068301555160078201550192511515839060ff60ff1983541691151516179055565b99509a509b509b509b98509b955050505050600052601060205260406000206003810193613ee0896129458a8854612136565b85556004820193613ef28a8654612136565b85556002830196613f088b61026d8c8b54611c89565b88558960038601558a60048601556001600160a01b0380855416166001600160a01b0319865416178555600c60058601557401000000000000000000000000000000000000000060ff60a01b19865416178555600685015560a082015191602081015192600384101561316c57613aeb9160e08b54910194855192613292565b506001600160a01b038654166001600160a01b038260081c161415613c8c565b5060ff60005416613c86565b613fc891943d8091833e612e3b8183611b12565b9238613c6c565b91906001600160a01b03600854169160018401600081546024604051809781936320bf56eb60e21b835260048301525afa93841561352d57600094614357575b5060125460ff8116600581101561316c576003148061434b575b8061432b575b61406757505050506001600160a01b038254166001600160a01b0360125460081c16146137f0575060ff60a01b198154169055600090565b60081c6001600160a01b0316918260005260106020526040600020906040519261409084611ad8565b82546001600160a01b03168452600183015460208501908152600284015460408601908152600385015490606087019182526004860154926080880193845260058701549460a089019586528c60068901549760c08b0198895260078a01549960e08c019a8b52600801549c8d9c6101008d019e8f9060ff16151590526101208d01809e60081c60ff1615159052806000526010602052816040600020600101549061413b91612136565b90600052601060205260406000206001015560125460081c6001600160a01b0316908160005260106020526040600020600201549061417991612136565b90600052601060205260406000206002015560125460081c6001600160a01b03169160020190808254906141ad9185614458565b95909490916001600160a01b0316614250575050505050509260089592613a079a9998959261188b98956001600160a01b036012548a1c1660005260106020526001600160a01b03806040600020995116166001600160a01b03198954161788555160018801555160028701555160038601555160048501555160058401555160068301555160078201550192511515839060ff60ff1983541691151516179055565b99509a509b509b509b98509b955050505050600052601060205260406000206003810193614283896129458a8854612136565b855560048201936142958a8654612136565b855560028301966142ab8b61026d8c8b54611c89565b88558960038601558a60048601556001600160a01b0380855416166001600160a01b0319865416178555600d60058601557401000000000000000000000000000000000000000060ff60a01b19865416178555600685015560a082015191602081015192600384101561316c57613aeb9160e08b54910194855192613292565b506001600160a01b038654166001600160a01b038260081c16141561402f565b5060ff60005416614029565b61436b91943d8091833e612e3b8183611b12565b923861400f565b600460206001600160a01b0360095416604051928380927f3b1e6a590000000000000000000000000000000000000000000000000000000082525afa90811561352d576000916143c0575090565b90506020813d6020116143e7575b816143db60209383611b12565b81010312610015575190565b3d91506143ce565b60206001600160a01b039160046040518094819363313ce56760e01b8352165afa91821561352d5761443360ff6134f49461147294600091614439575b5016613446565b90612103565b614452915060203d6020116135705761355f8183611b12565b3861442c565b6001600160a01b03811660005260106020526040600020926040519261447d84611ad8565b6001600160a01b03855416845260018501546020850152600285015493604081019485526003860154606082015260048601546080820152600586015461012060a083019282845260ff600860068b01549a60c084019b8c52600781015460e08501520154818116151561010084015260081c16151591829101526145955761457e575061451a61258e6145118484612103565b60025490612103565b945b8051614560575061453361453c9261258e92612103565b60045490612103565b915b516145498385612136565b111561455d57505050600090600090600090565b92565b6145706145789361258e93612103565b905190612103565b9161453e565b61258e61458f916145708585612103565b9461451c565b50505050505050600090600090600090565b60ff7ff0c57e16840df040f15088dc2f81fe391c3923bec73e23a9662efc9c229c6a005460401c16156145d657565b7fd7e6bcf80000000000000000000000000000000000000000000000000000000060005260046000fdfea264697066735822122064aea3a6f77d0fd1ed149c218a0da1fafa171a0c56c7215b23c7c10483a5e70064736f6c634300081c0033",
  "linkReferences": {},
  "deployedLinkReferences": {}
}