{
  "_format": "hh-sol-artifact-1",
  "contractName": "PrivatePool",
  "sourceName": "contracts/PrivatePool.sol",
  "abi": [
    {
      "inputs": [],
      "name": "InvalidInitialization",
      "type": "error"
    },
    {
      "inputs": [],
      "name": "NotInitializing",
      "type": "error"
    },
    {
      "inputs": [
        {
          "internalType": "address",
          "name": "owner",
          "type": "address"
        }
      ],
      "name": "OwnableInvalidOwner",
      "type": "error"
    },
    {
      "inputs": [
        {
          "internalType": "address",
          "name": "account",
          "type": "address"
        }
      ],
      "name": "OwnableUnauthorizedAccount",
      "type": "error"
    },
    {
      "anonymous": false,
      "inputs": [
        {
          "indexed": true,
          "internalType": "address",
          "name": "account",
          "type": "address"
        },
        {
          "indexed": true,
          "internalType": "address",
          "name": "token",
          "type": "address"
        },
        {
          "indexed": false,
          "internalType": "uint256",
          "name": "orderID",
          "type": "uint256"
        },
        {
          "indexed": false,
          "internalType": "uint256",
          "name": "amount",
          "type": "uint256"
        },
        {
          "indexed": false,
          "internalType": "uint256",
          "name": "margin",
          "type": "uint256"
        }
      ],
      "name": "AddMargin",
      "type": "event"
    },
    {
      "anonymous": false,
      "inputs": [
        {
          "indexed": false,
          "internalType": "address",
          "name": "maker",
          "type": "address"
        },
        {
          "indexed": false,
          "internalType": "uint256",
          "name": "amount",
          "type": "uint256"
        },
        {
          "indexed": false,
          "internalType": "uint256",
          "name": "availableAmount",
          "type": "uint256"
        },
        {
          "indexed": false,
          "internalType": "uint256",
          "name": "lockedAmount",
          "type": "uint256"
        },
        {
          "indexed": false,
          "internalType": "uint256",
          "name": "maintenanceMargin",
          "type": "uint256"
        },
        {
          "indexed": false,
          "internalType": "uint256",
          "name": "share",
          "type": "uint256"
        },
        {
          "indexed": false,
          "internalType": "uint256",
          "name": "flag",
          "type": "uint256"
        }
      ],
      "name": "BalanceOfMaker",
      "type": "event"
    },
    {
      "anonymous": false,
      "inputs": [
        {
          "indexed": false,
          "internalType": "uint256",
          "name": "dealID",
          "type": "uint256"
        },
        {
          "indexed": false,
          "internalType": "address",
          "name": "maker",
          "type": "address"
        },
        {
          "indexed": false,
          "internalType": "uint256",
          "name": "size",
          "type": "uint256"
        },
        {
          "indexed": false,
          "internalType": "uint256",
          "name": "price",
          "type": "uint256"
        },
        {
          "indexed": false,
          "internalType": "uint256",
          "name": "makerID",
          "type": "uint256"
        },
        {
          "indexed": false,
          "internalType": "uint256",
          "name": "makerGain",
          "type": "uint256"
        },
        {
          "indexed": false,
          "internalType": "uint256",
          "name": "makerLoss",
          "type": "uint256"
        },
        {
          "indexed": false,
          "internalType": "uint256",
          "name": "closeFlag",
          "type": "uint256"
        },
        {
          "indexed": false,
          "internalType": "uint256",
          "name": "flag",
          "type": "uint256"
        }
      ],
      "name": "CloseMakerDealInPool",
      "type": "event"
    },
    {
      "anonymous": false,
      "inputs": [
        {
          "indexed": false,
          "internalType": "uint64",
          "name": "version",
          "type": "uint64"
        }
      ],
      "name": "Initialized",
      "type": "event"
    },
    {
      "anonymous": false,
      "inputs": [
        {
          "indexed": false,
          "internalType": "uint256",
          "name": "dealID",
          "type": "uint256"
        },
        {
          "indexed": false,
          "internalType": "address",
          "name": "maker",
          "type": "address"
        },
        {
          "indexed": false,
          "internalType": "uint256",
          "name": "value",
          "type": "uint256"
        },
        {
          "indexed": false,
          "internalType": "uint256",
          "name": "price",
          "type": "uint256"
        },
        {
          "indexed": false,
          "internalType": "uint256",
          "name": "makerID",
          "type": "uint256"
        },
        {
          "indexed": false,
          "internalType": "uint256",
          "name": "marginAmount",
          "type": "uint256"
        },
        {
          "indexed": false,
          "internalType": "uint256",
          "name": "maintenanceMargin",
          "type": "uint256"
        }
      ],
      "name": "LockInPrivatePool",
      "type": "event"
    },
    {
      "anonymous": false,
      "inputs": [
        {
          "indexed": false,
          "internalType": "uint256",
          "name": "dealID",
          "type": "uint256"
        },
        {
          "indexed": false,
          "internalType": "address",
          "name": "maker",
          "type": "address"
        },
        {
          "indexed": false,
          "internalType": "uint256",
          "name": "value",
          "type": "uint256"
        },
        {
          "indexed": false,
          "internalType": "uint256",
          "name": "price",
          "type": "uint256"
        },
        {
          "indexed": false,
          "internalType": "uint256",
          "name": "makerID",
          "type": "uint256"
        },
        {
          "indexed": false,
          "internalType": "uint256",
          "name": "marginAmount",
          "type": "uint256"
        },
        {
          "indexed": false,
          "internalType": "uint256",
          "name": "maintenanceMargin",
          "type": "uint256"
        },
        {
          "indexed": false,
          "internalType": "uint256",
          "name": "flag",
          "type": "uint256"
        }
      ],
      "name": "LockPoolMargin",
      "type": "event"
    },
    {
      "anonymous": false,
      "inputs": [
        {
          "indexed": true,
          "internalType": "address",
          "name": "previousOwner",
          "type": "address"
        },
        {
          "indexed": true,
          "internalType": "address",
          "name": "newOwner",
          "type": "address"
        }
      ],
      "name": "OwnershipTransferred",
      "type": "event"
    },
    {
      "anonymous": false,
      "inputs": [
        {
          "indexed": true,
          "internalType": "address",
          "name": "account",
          "type": "address"
        },
        {
          "indexed": true,
          "internalType": "address",
          "name": "token",
          "type": "address"
        },
        {
          "indexed": false,
          "internalType": "uint256",
          "name": "amount",
          "type": "uint256"
        },
        {
          "indexed": false,
          "internalType": "uint256",
          "name": "poolType",
          "type": "uint256"
        }
      ],
      "name": "Provide",
      "type": "event"
    },
    {
      "anonymous": false,
      "inputs": [
        {
          "indexed": false,
          "internalType": "address",
          "name": "sender",
          "type": "address"
        },
        {
          "indexed": false,
          "internalType": "address",
          "name": "received",
          "type": "address"
        },
        {
          "indexed": false,
          "internalType": "enum ICommon.TransactionType",
          "name": "transactionType",
          "type": "uint8"
        },
        {
          "indexed": false,
          "internalType": "uint256",
          "name": "amount",
          "type": "uint256"
        },
        {
          "indexed": false,
          "internalType": "uint256",
          "name": "timestamp",
          "type": "uint256"
        }
      ],
      "name": "TransferFee",
      "type": "event"
    },
    {
      "anonymous": false,
      "inputs": [
        {
          "indexed": true,
          "internalType": "address",
          "name": "account",
          "type": "address"
        },
        {
          "indexed": true,
          "internalType": "address",
          "name": "token",
          "type": "address"
        },
        {
          "indexed": false,
          "internalType": "uint256",
          "name": "amount",
          "type": "uint256"
        },
        {
          "indexed": false,
          "internalType": "uint256",
          "name": "poolType",
          "type": "uint256"
        }
      ],
      "name": "Withdraw",
      "type": "event"
    },
    {
      "anonymous": false,
      "inputs": [
        {
          "indexed": false,
          "internalType": "address",
          "name": "sender",
          "type": "address"
        },
        {
          "indexed": false,
          "internalType": "uint256",
          "name": "beforeLeverage",
          "type": "uint256"
        },
        {
          "indexed": false,
          "internalType": "uint256",
          "name": "afterLeverage",
          "type": "uint256"
        }
      ],
      "name": "setLeverage",
      "type": "event"
    },
    {
      "stateMutability": "nonpayable",
      "type": "fallback"
    },
    {
      "inputs": [
        {
          "internalType": "uint256",
          "name": "_orderID",
          "type": "uint256"
        },
        {
          "internalType": "uint256",
          "name": "_amount",
          "type": "uint256"
        }
      ],
      "name": "addMarginAmount",
      "outputs": [],
      "stateMutability": "nonpayable",
      "type": "function"
    },
    {
      "inputs": [
        {
          "internalType": "uint256",
          "name": "_dealID",
          "type": "uint256"
        },
        {
          "internalType": "uint256",
          "name": "_profit",
          "type": "uint256"
        }
      ],
      "name": "checkMarginRisk",
      "outputs": [
        {
          "internalType": "bool",
          "name": "isRisk",
          "type": "bool"
        }
      ],
      "stateMutability": "view",
      "type": "function"
    },
    {
      "inputs": [
        {
          "internalType": "uint256",
          "name": "_id",
          "type": "uint256"
        },
        {
          "internalType": "uint8",
          "name": "_type",
          "type": "uint8"
        },
        {
          "internalType": "uint256",
          "name": "_profit",
          "type": "uint256"
        },
        {
          "internalType": "uint256",
          "name": "_loss",
          "type": "uint256"
        },
        {
          "internalType": "uint256",
          "name": "_amount",
          "type": "uint256"
        },
        {
          "internalType": "uint256",
          "name": "_price",
          "type": "uint256"
        },
        {
          "internalType": "bool",
          "name": "_transform",
          "type": "bool"
        }
      ],
      "name": "close",
      "outputs": [
        {
          "internalType": "uint256",
          "name": "makerProfit",
          "type": "uint256"
        },
        {
          "internalType": "uint256",
          "name": "makerLoss",
          "type": "uint256"
        },
        {
          "internalType": "bool",
          "name": "isLiquidated",
          "type": "bool"
        },
        {
          "internalType": "bool",
          "name": "isAgreement",
          "type": "bool"
        }
      ],
      "stateMutability": "nonpayable",
      "type": "function"
    },
    {
      "inputs": [],
      "name": "escrowAccount",
      "outputs": [
        {
          "internalType": "address",
          "name": "",
          "type": "address"
        }
      ],
      "stateMutability": "view",
      "type": "function"
    },
    {
      "inputs": [
        {
          "internalType": "address",
          "name": "maker",
          "type": "address"
        }
      ],
      "name": "getLP2Account",
      "outputs": [
        {
          "components": [
            {
              "internalType": "address payable",
              "name": "holder",
              "type": "address"
            },
            {
              "internalType": "uint256",
              "name": "amount",
              "type": "uint256"
            },
            {
              "internalType": "uint256",
              "name": "availableAmount",
              "type": "uint256"
            },
            {
              "internalType": "uint256",
              "name": "lockedAmount",
              "type": "uint256"
            },
            {
              "internalType": "uint256",
              "name": "maintenanceMargin",
              "type": "uint256"
            },
            {
              "internalType": "uint256",
              "name": "marginRate",
              "type": "uint256"
            },
            {
              "internalType": "uint256",
              "name": "maintenanceMarginRate",
              "type": "uint256"
            },
            {
              "internalType": "uint256",
              "name": "addMarginRate",
              "type": "uint256"
            },
            {
              "internalType": "bool",
              "name": "autoAddMargin",
              "type": "bool"
            },
            {
              "internalType": "bool",
              "name": "isRejectOrder",
              "type": "bool"
            }
          ],
          "internalType": "struct IPool.LP2Account",
          "name": "",
          "type": "tuple"
        }
      ],
      "stateMutability": "view",
      "type": "function"
    },
    {
      "inputs": [],
      "name": "getMakerAddresses",
      "outputs": [
        {
          "internalType": "address[]",
          "name": "",
          "type": "address[]"
        }
      ],
      "stateMutability": "view",
      "type": "function"
    },
    {
      "inputs": [
        {
          "internalType": "uint256",
          "name": "makerDealID",
          "type": "uint256"
        }
      ],
      "name": "getMakerDeal",
      "outputs": [
        {
          "components": [
            {
              "internalType": "address",
              "name": "makerAddr",
              "type": "address"
            },
            {
              "internalType": "bool",
              "name": "locked",
              "type": "bool"
            },
            {
              "internalType": "uint256",
              "name": "takerId",
              "type": "uint256"
            },
            {
              "internalType": "uint256",
              "name": "size",
              "type": "uint256"
            },
            {
              "internalType": "uint256",
              "name": "marginAmount",
              "type": "uint256"
            },
            {
              "internalType": "uint256",
              "name": "maintenanceMargin",
              "type": "uint256"
            },
            {
              "internalType": "uint256",
              "name": "pubPriFlag",
              "type": "uint256"
            },
            {
              "internalType": "uint256",
              "name": "movePrice",
              "type": "uint256"
            },
            {
              "internalType": "uint256",
              "name": "time",
              "type": "uint256"
            }
          ],
          "internalType": "struct IPool.MakerDeal",
          "name": "",
          "type": "tuple"
        }
      ],
      "stateMutability": "view",
      "type": "function"
    },
    {
      "inputs": [
        {
          "internalType": "uint256[]",
          "name": "_ids",
          "type": "uint256[]"
        }
      ],
      "name": "getMakerDeals",
      "outputs": [
        {
          "components": [
            {
              "internalType": "address",
              "name": "makerAddr",
              "type": "address"
            },
            {
              "internalType": "bool",
              "name": "locked",
              "type": "bool"
            },
            {
              "internalType": "uint256",
              "name": "takerId",
              "type": "uint256"
            },
            {
              "internalType": "uint256",
              "name": "size",
              "type": "uint256"
            },
            {
              "internalType": "uint256",
              "name": "marginAmount",
              "type": "uint256"
            },
            {
              "internalType": "uint256",
              "name": "maintenanceMargin",
              "type": "uint256"
            },
            {
              "internalType": "uint256",
              "name": "pubPriFlag",
              "type": "uint256"
            },
            {
              "internalType": "uint256",
              "name": "movePrice",
              "type": "uint256"
            },
            {
              "internalType": "uint256",
              "name": "time",
              "type": "uint256"
            }
          ],
          "internalType": "struct IPool.MakerDeal[]",
          "name": "deals",
          "type": "tuple[]"
        }
      ],
      "stateMutability": "view",
      "type": "function"
    },
    {
      "inputs": [],
      "name": "getMakerDealsLength",
      "outputs": [
        {
          "internalType": "uint256",
          "name": "lpLen",
          "type": "uint256"
        }
      ],
      "stateMutability": "view",
      "type": "function"
    },
    {
      "inputs": [
        {
          "internalType": "address",
          "name": "maker",
          "type": "address"
        }
      ],
      "name": "getMakerUserDeals",
      "outputs": [
        {
          "internalType": "uint256[]",
          "name": "",
          "type": "uint256[]"
        }
      ],
      "stateMutability": "view",
      "type": "function"
    },
    {
      "inputs": [],
      "name": "getShareAddresses",
      "outputs": [
        {
          "internalType": "address[]",
          "name": "",
          "type": "address[]"
        }
      ],
      "stateMutability": "view",
      "type": "function"
    },
    {
      "inputs": [
        {
          "internalType": "address",
          "name": "initialOwner",
          "type": "address"
        },
        {
          "internalType": "address",
          "name": "_tokenAddress",
          "type": "address"
        },
        {
          "internalType": "address",
          "name": "_riskFundAddr",
          "type": "address"
        }
      ],
      "name": "initialize",
      "outputs": [],
      "stateMutability": "nonpayable",
      "type": "function"
    },
    {
      "inputs": [
        {
          "internalType": "uint256",
          "name": "",
          "type": "uint256"
        }
      ],
      "name": "matchIds",
      "outputs": [
        {
          "internalType": "uint256",
          "name": "",
          "type": "uint256"
        }
      ],
      "stateMutability": "view",
      "type": "function"
    },
    {
      "inputs": [
        {
          "internalType": "string",
          "name": "_name",
          "type": "string"
        },
        {
          "internalType": "uint256",
          "name": "_id",
          "type": "uint256"
        },
        {
          "internalType": "uint256",
          "name": "_amount",
          "type": "uint256"
        },
        {
          "internalType": "uint256",
          "name": "_tradingFee",
          "type": "uint256"
        },
        {
          "internalType": "uint256",
          "name": "_price",
          "type": "uint256"
        },
        {
          "internalType": "enum ICommon.Direct",
          "name": "_direction",
          "type": "uint8"
        }
      ],
      "name": "matchOrder",
      "outputs": [
        {
          "internalType": "bool",
          "name": "success",
          "type": "bool"
        },
        {
          "internalType": "uint256",
          "name": "remaining",
          "type": "uint256"
        }
      ],
      "stateMutability": "nonpayable",
      "type": "function"
    },
    {
      "inputs": [],
      "name": "owner",
      "outputs": [
        {
          "internalType": "address",
          "name": "",
          "type": "address"
        }
      ],
      "stateMutability": "view",
      "type": "function"
    },
    {
      "inputs": [],
      "name": "poolType",
      "outputs": [
        {
          "internalType": "enum ICommon.PoolFlag",
          "name": "",
          "type": "uint8"
        }
      ],
      "stateMutability": "view",
      "type": "function"
    },
    {
      "inputs": [
        {
          "internalType": "address",
          "name": "",
          "type": "address"
        },
        {
          "internalType": "string",
          "name": "",
          "type": "string"
        },
        {
          "internalType": "uint256",
          "name": "",
          "type": "uint256"
        }
      ],
      "name": "positions",
      "outputs": [
        {
          "internalType": "uint256",
          "name": "value",
          "type": "uint256"
        },
        {
          "internalType": "uint256",
          "name": "size",
          "type": "uint256"
        }
      ],
      "stateMutability": "view",
      "type": "function"
    },
    {
      "inputs": [
        {
          "internalType": "uint256",
          "name": "_amount",
          "type": "uint256"
        },
        {
          "internalType": "uint256",
          "name": "_priOrPub",
          "type": "uint256"
        }
      ],
      "name": "provide",
      "outputs": [],
      "stateMutability": "nonpayable",
      "type": "function"
    },
    {
      "inputs": [],
      "name": "renounceOwnership",
      "outputs": [],
      "stateMutability": "nonpayable",
      "type": "function"
    },
    {
      "inputs": [
        {
          "internalType": "address",
          "name": "_perpetual",
          "type": "address"
        },
        {
          "internalType": "address",
          "name": "_orderBook",
          "type": "address"
        },
        {
          "internalType": "address",
          "name": "_tradeAgent",
          "type": "address"
        },
        {
          "internalType": "address",
          "name": "_tradeStation",
          "type": "address"
        }
      ],
      "name": "setKeepers",
      "outputs": [],
      "stateMutability": "nonpayable",
      "type": "function"
    },
    {
      "inputs": [
        {
          "internalType": "uint256",
          "name": "_marginRate",
          "type": "uint256"
        },
        {
          "internalType": "uint256",
          "name": "_maintenanceMarginRate",
          "type": "uint256"
        },
        {
          "internalType": "uint256",
          "name": "_addMarginRate",
          "type": "uint256"
        },
        {
          "internalType": "bool",
          "name": "_isRejectOrder",
          "type": "bool"
        },
        {
          "internalType": "bool",
          "name": "_autoAddMargin",
          "type": "bool"
        }
      ],
      "name": "setUserParam",
      "outputs": [],
      "stateMutability": "nonpayable",
      "type": "function"
    },
    {
      "inputs": [],
      "name": "totalLockedLiquidity",
      "outputs": [
        {
          "internalType": "uint256",
          "name": "",
          "type": "uint256"
        }
      ],
      "stateMutability": "view",
      "type": "function"
    },
    {
      "inputs": [
        {
          "internalType": "address",
          "name": "newOwner",
          "type": "address"
        }
      ],
      "name": "transferOwnership",
      "outputs": [],
      "stateMutability": "nonpayable",
      "type": "function"
    },
    {
      "inputs": [
        {
          "internalType": "uint256",
          "name": "_amount",
          "type": "uint256"
        },
        {
          "internalType": "uint256",
          "name": "_priOrPub",
          "type": "uint256"
        }
      ],
      "name": "withdraw",
      "outputs": [],
      "stateMutability": "nonpayable",
      "type": "function"
    }
  ],
  "bytecode": "0x60808060405234601557614ef7908161001b8239f35b600080fdfe6080604052600436101561001a575b3461001557005b600080fd5b6000803560e01c80630c8c351614611b8e57806325737d40146119d457806336ff6a70146119aa578063441a3e70146113e357806346ceec981461129557806354b3b0181461126b57806360d32e8d146111d4578063715018a61461113b57806381a4f1731461104e578063880a1a7714610fd05780638da5cb5b14610f8a5780638e3a0e9214610f06578063a8ece51a14610ee8578063b1dd61b614610ea8578063bc1c1c6c14610e1a578063c0c53b8b14610aa3578063c2298942146109ee578063c23e629f146107f9578063d048f5901461071c578063d3c76d66146106bc578063e8c3c54f146101f9578063f26a3e1d1461017b578063f2da708d1461015d5763f2fde38b1461012e575061000e565b3461015a57602060031936011261015a5761015761014a611c2b565b610152613668565b613473565b80f35b80fd5b503461015a578060031936011261015a576020601254604051908152f35b503461015a5760e060031936011261015a576024359060ff8216820361015a5760c4358015158103610015576080926101c560ff60406101dd95338152600e602052205416611f75565b60a435906084359060643590604435906004356124a1565b9160405193845260208401521515604083015215156060820152f35b503461015a5761020836611d92565b908060135460ff811660058110156106a85760038114908115610695575b501561060d576001600160a01b039060081c1633146106515761024830613a4b565b906102608130336001600160a01b0360055416613b6e565b6001840361040a575061027a61028892600154111561231d565b61028330613a4b565b611f1f565b338352600d60205260ff60408420541615610391575b6102bb6102ad600154836122dd565b6102b5614b21565b906122f0565b6001600160a01b0360135460081c1684526010602052600160408520016102e3838254612310565b90556001600160a01b0360135460081c16845260106020526002604085200161030d838254612310565b90556001600160a01b0360135460081c168452600f60205260408420610334828254612310565b9055338452600f60205261034d60408520918254612310565b90555b6001600160a01b03600554169160405191825260208201527f9675a307d5dddc49aefd66964913e794711b6c69e23cfe1fa44406ab2bbaeae860403392a380f35b338352600d60205260408320600160ff19825416179055600a54680100000000000000008110156103f4576103d18160016103ef9301600a55600a611f5d565b33906001600160a01b038084549260031b9316831b921b1916179055565b61029e565b634e487b7160e01b600052604160045260246000fd5b91506002830361060d5761027a61042592600154111561231d565b338352600c60205260ff60408420541615610589575b3383526010602052604083206040519061045482611c6d565b80546001600160a01b03168252600181015491602081019183835260028101546040830190815260038201546060840190815260048301546080850190815260058401549160a0860192835260068501549360c0870194855260078601549560e08801968752600801549761010088019960ff8a1615158b528b6101208a019a60081c60ff1615158b526104e791612310565b81528a8251906104f691612310565b8252338d52601060205260408d2097516001600160a01b03166001600160a01b031688546001600160a01b0319161788555160018801555160028701555160038601555160048501555160058401555160068301555160078201556008019151151561056f90839060ff60ff1983541691151516179055565b51815461ff00191690151560081b61ff0016179055610350565b338352600c60205260408320600160ff19825416179055600b54680100000000000000008110156103f4576103d18160016105c99301600b55600b611f5d565b338352601060205260086040842001600160ff198254161790553383526010602052604083206001600160a01b0333166001600160a01b031982541617905561043b565b606460405162461bcd60e51b815260206004820152601260248201527f77726f6e67206465706f73697420666c616700000000000000000000000000006044820152fd5b606460405162461bcd60e51b815260206004820152601860248201527f77616c6c657420697320657363726f77206163636f756e7400000000000000006044820152fd5b905060058510156106a857841438610226565b602486634e487b7160e01b81526021600452fd5b503461015a576106cb36611d92565b90825260166020526040822054916000198301928311610708575060806106fc6106f6602094611e43565b50611e62565b01511115604051908152f35b80634e487b7160e01b602492526011600452fd5b503461015a5760a060031936011261015a57606435801515810361001557608435801515810361001557338352600c60205260ff604084205416156107b5576101579133845260106020526107a36008604086206004356005820155602435600682015560443560078201550191829061ff001961ff00835492151560081b169116179055565b9060ff60ff1983541691151516179055565b606460405162461bcd60e51b815260206004820152601260248201527f75736572206973206e6f742065786973747300000000000000000000000000006044820152fd5b503461015a5761080836611d92565b906001600160a01b0361081a82611e43565b50541633036109aa5733835260106020528160026040852001541061096657600160ff61084683611e43565b505460a01c1615150361092257338352601060205261086c826002604086200154611f1f565b338452601060205260026040852001553383526010602052610895826003604086200154612310565b338452601060205260036040852001556108bc8260036108b484611e43565b500154612310565b60036108c783611e43565b5001557fc8f742aa90a6e6851d2252fa58ed695d3ca295b55bf5f1c2164a360cc8a093e26001600160a01b036005541692600361090384611e43565b500154604080519485526020850192909252908301523391606090a380f35b606460405162461bcd60e51b815260206004820152601660248201527f4c6971756964697479207374617475732077726f6e67000000000000000000006044820152fd5b606460405162461bcd60e51b815260206004820152601060248201527f45786365656420617661696c61626c65000000000000000000000000000000006044820152fd5b606460405162461bcd60e51b815260206004820152600960248201527f4e6f74206d616b657200000000000000000000000000000000000000000000006044820152fd5b503461015a57602060031936011261015a576001600160a01b03610a10611c2b565b168152601160205260408120604051908160208254918281520190819285526020852090855b818110610a8d5750505082610a4c910383611ca7565b604051928392602084019060208552518091526040840192915b818110610a74575050500390f35b8251845285945060209384019390920191600101610a66565b8254845260209093019260019283019201610a36565b503461015a57606060031936011261015a57610abd611c2b565b90610ac6611c41565b91610acf611c57565b927ff0c57e16840df040f15088dc2f81fe391c3923bec73e23a9662efc9c229c6a00549360ff8560401c16159467ffffffffffffffff811680159081610e12575b6001149081610e08575b159081610dff575b50610dd757916001600160a01b0380949392838860017fffffffffffffffffffffffffffffffffffffffffffffffff0000000000000000859716177ff0c57e16840df040f15088dc2f81fe391c3923bec73e23a9662efc9c229c6a0055610d82575b50610b8d614e68565b610b95614e68565b610b9e33613473565b610ba6613668565b610baf85613473565b166001600160a01b03196006541617600655166001600160a01b03196005541617600555816013547fffffffffffffffffffffff0000000000000000000000000000000000000000ff74ffffffffffffffffffffffffffffffffffffffff003360081b169116178060135560081c168084526010602052826040852091166001600160a01b03198254161790558160135460081c168352601060205260086040842001600160ff19825416179055308352600e60205260408320600160ff19825416179055168152600e60205260408120600160ff19825416179055338152600e60205260408120600160ff19825416179055600260ff19601354161760135560ff198154168155670de0b6b3a76400006001555066470de4df820000600255600067016345785d8a00006003555066071afd498d0000600455610cef57005b7fffffffffffffffffffffffffffffffffffffffffffffff00ffffffffffffffff7ff0c57e16840df040f15088dc2f81fe391c3923bec73e23a9662efc9c229c6a0054167ff0c57e16840df040f15088dc2f81fe391c3923bec73e23a9662efc9c229c6a00557fc7f505b2f371ae2175ee4913f4499e1f2633a7b5936321eed1cdaeb6115181d2602060405160018152a1005b7fffffffffffffffffffffffffffffffffffffffffffffff0000000000000000001668010000000000000001177ff0c57e16840df040f15088dc2f81fe391c3923bec73e23a9662efc9c229c6a005538610b84565b6004857ff92ee8a9000000000000000000000000000000000000000000000000000000008152fd5b90501538610b22565b303b159150610b1a565b879150610b10565b503461015a578060031936011261015a5760405180916020600b54928381520191600b82527f0175b7a638427703f0dbe7bb9bbf987a2551717b34e79f33b5b1008d1fa01db9915b818110610e8957610e8585610e7981870382611ca7565b60405191829182611da8565b0390f35b82546001600160a01b0316845260209093019260019283019201610e62565b503461015a578060031936011261015a5760ff60135416604051906005811015610ed457602092508152f35b602483634e487b7160e01b81526021600452fd5b503461015a578060031936011261015a576020601454604051908152f35b503461015a5760c060031936011261015a5760043567ffffffffffffffff8111610f8657610f38903690600401611ce6565b60a435906003821015610f825790610f7491610f6360ff60408096338152600e602052205416611f75565b608435906044359060243590611fe6565b825191151582526020820152f35b8280fd5b5080fd5b503461015a578060031936011261015a5760206001600160a01b037f9016d09d72d40fdae2fd8ceac6b6234c7706214fd39c1cd1e609a0528c1993005416604051908152f35b503461015a578060031936011261015a5760405180916020600a54928381520191600a82527fc65a7bb8d6351c1cf70c95a316cc6a92839c986682d98bc35f958f4883f9d2a8915b81811061102f57610e8585610e7981870382611ca7565b82546001600160a01b0316845260209093019260019283019201611018565b503461015a57608060031936011261015a57611068611c2b565b611070611c41565b90611079611c57565b90606435926001600160a01b038416809403611137576001600160a01b03928380926110a3613668565b16806001600160a01b031960085416176008558652600e60205260408620600160ff1982541617905516806001600160a01b031960095416176009558452600e60205260408420600160ff1982541617905516806001600160a01b031960075416176007558252600e60205260408220600160ff198254161790558152600e60205260408120600160ff1982541617905580f35b8480fd5b503461015a578060031936011261015a57611154613668565b806001600160a01b037f9016d09d72d40fdae2fd8ceac6b6234c7706214fd39c1cd1e609a0528c199300546001600160a01b031981167f9016d09d72d40fdae2fd8ceac6b6234c7706214fd39c1cd1e609a0528c19930055167f8be0079c531659141344cd1fd0a4f28419497f9722a3daafe3b4186f6b6457e08280a380f35b503461015a57602060031936011261015a576111ee611deb565b506101206112006106f6600435611e43565b611269604051809261010080916001600160a01b03815116845260208101511515602085015260408101516040850152606081015160608501526080810151608085015260a081015160a085015260c081015160c085015260e081015160e08501520151910152565bf35b503461015a578060031936011261015a5760206001600160a01b0360135460081c16604051908152f35b503461015a57602060031936011261015a576040610140916001600160a01b036112bd611c2b565b8261012085516112cc81611c6d565b82815282602082015282878201528260608201528260808201528260a08201528260c08201528260e08201528261010082015201521681526010602052206040519061131782611c6d565b6001600160a01b03815416918281526001820154916020820192835260028101546040830190815260038201546060840190815260048301546080850190815260058401549160a0860192835260068501549360c08701948552600860078701549660e0890197885201549760ff6101206101008a0199828c1615158b52019960081c1615158952604051998a525160208a01525160408901525160608801525160808701525160a08601525160c08501525160e0840152511515610100830152511515610120820152f35b503461015a576113f236611d92565b908080151580611992575b1561194e5760ff60135416600581101561193a5760038114908115611927575b50156118e357600183036115a1575061144961144061143a614b21565b836122dd565b600154906122f0565b6001600160a01b0360135460081c168452601060205260026040852001548211158061158b575b61147990611ed4565b338452600f60205260408420611490838254611f1f565b90556001600160a01b0360135460081c168452600f602052604084206114b7838254611f1f565b90556001600160a01b0360135460081c1684526010602052600160408520016114e1828254611f1f565b90556001600160a01b0360135460081c168452601060205261150b60026040862001918254611f1f565b9055338352600f602052604083205415611578575b611537816001600160a01b0360055416339061357a565b6001600160a01b03600554169160405191825260208201527ff341246adaac6f497bc2a656f546ab9e182111d630394f0c57c710a59a2cb56760403392a380f35b338352600f602052826040812055611520565b50338452600f6020526040842054821115611470565b600283036118e35733845260106020526040842090604051906115c382611c6d565b6001600160a01b03835416825260018301549160208101928352600284015492604082019184835260038601549560608201968752600481015460808301908152600582015460a0840190815260068301549160c0850192835261166f600860078601549560e0880196875201549861165b61010088019b60ff8c1615158d5260ff6101208a019c60081c1615158c52821115611ed4565b611666818951611f1f565b88528851611f1f565b8752895115806118d9575b806118cd575b6118c1575b8551806117e857505050505050505050505090825b600b54808210156117e0576001600160a01b036116b683611f42565b905460039190911b1c1633146116cf575060010161169a565b9060001982949394019182116117cc57818103611781575b5050338352600c6020526040832060ff1981541690553383526010602052826008604082208281558260018201558260028201558260038201558260048201558260058201558260068201558260078201550155600b54801561176d576000190161175181611f42565b6001600160a01b0382549160031b1b19169055600b555b611520565b602484634e487b7160e01b81526031600452fd5b6117a66001600160a01b036117986117c594611f42565b90549060031b1c1691611f42565b9091906001600160a01b038084549260031b9316831b921b1916179055565b38806116e7565b602485634e487b7160e01b81526011600452fd5b505090611520565b6001541161187d5761176899611866976008978f6001600160a01b0360408192338152601060205220995116166001600160a01b03198954161788555160018801555160028701555160038601555160048501555160058401555160068301555160078201550192511515839060ff60ff1983541691151516179055565b51815461ff00191690151560081b61ff0016179055565b606460405162461bcd60e51b815260206004820152601860248201527f7374617920616d6f756e7420697320746f6f20736d616c6c00000000000000006044820152fd5b85518d87529a50611685565b50855160015411611680565b508551151561167a565b606460405162461bcd60e51b815260206004820152601360248201527f77726f6e6720776974686472617720666c6167000000000000000000000000006044820152fd5b9050600584101561193a5783143861141d565b602485634e487b7160e01b81526021600452fd5b606460405162461bcd60e51b815260206004820152600e60248201527f646f206e6f7420616c6c6f7765640000000000000000000000000000000000006044820152fd5b506001600160a01b0360135460081c163314156113fd565b503461015a57602060031936011261015a5760406020916004358152601683522054604051908152f35b503461015a57602060031936011261015a5760043567ffffffffffffffff8111610f865736602382011215610f8657806004013590611a1282611d7a565b91611a206040519384611ca7565b8083526024602084019160051b8301019136831161113757602401905b828210611b7e575050508051611a5281611d7a565b91611a606040519384611ca7565b818352601f19611a6f83611d7a565b01845b818110611b67575050835b828110611b32578385604051918291602083016020845282518091526020604085019301915b818110611ab1575050500390f35b91935091602061012082611b24600194885161010080916001600160a01b03815116845260208101511515602085015260408101516040850152606081015160608501526080810151608085015260a081015160a085015260c081015160c085015260e081015160e08501520151910152565b019401910191849392611aa3565b80611b4b6106f6611b4560019486611e2f565b51611e43565b611b558287611e2f565b52611b608186611e2f565b5001611a7d565b602090611b72611deb565b82828801015201611a72565b8135815260209182019101611a3d565b503461015a57606060031936011261015a57611ba8611c2b565b9060243567ffffffffffffffff8111610f86576020611bce611bf8923690600401611ce6565b6001600160a01b036044359516845260158252604084208260405194838680955193849201611d2d565b82019081520301902090600283101561015a576040611c178484611d50565b506001815491015482519182526020820152f35b600435906001600160a01b038216820361001557565b602435906001600160a01b038216820361001557565b604435906001600160a01b038216820361001557565b610140810190811067ffffffffffffffff8211176103f457604052565b610120810190811067ffffffffffffffff8211176103f457604052565b90601f601f19910116810190811067ffffffffffffffff8211176103f457604052565b67ffffffffffffffff81116103f457601f01601f191660200190565b81601f8201121561001557803590611cfd82611cca565b92611d0b6040519485611ca7565b8284526020838301011161001557816000926020809301838601378301015290565b60005b838110611d405750506000910152565b8181015183820152602001611d30565b906002811015611d645760011b0190600090565b634e487b7160e01b600052603260045260246000fd5b67ffffffffffffffff81116103f45760051b60200190565b6003196040910112610015576004359060243590565b602060408183019282815284518094520192019060005b818110611dcc5750505090565b82516001600160a01b0316845260209384019390920191600101611dbf565b60405190611df882611c8a565b6000610100838281528260208201528260408201528260608201528260808201528260a08201528260c08201528260e08201520152565b8051821015611d645760209160051b010190565b601254811015611d6457601260005260206000209060031b0190600090565b90604051611e6f81611c8a565b6101006007829460ff81546001600160a01b038116865260a01c1615156020850152600181015460408501526002810154606085015260038101546080850152600481015460a0850152600581015460c0850152600681015460e08501520154910152565b15611edb57565b606460405162461bcd60e51b815260206004820152601060248201527f6c6f7765722074686520616d6f756e74000000000000000000000000000000006044820152fd5b91908203918211611f2c57565b634e487b7160e01b600052601160045260246000fd5b600b54811015611d6457600b60005260206000200190600090565b8054821015611d645760005260206000200190600090565b15611f7c57565b608460405162461bcd60e51b815260206004820152602160248201527f63616c6c6572206973206e6f74207072697661746520706f6f6c206b6565706560448201527f72000000000000000000000000000000000000000000000000000000000000006064820152fd5b92919493906001600160a01b0390611ffe84886136d3565b919093169283612015575050505050505060009190565b601298959697985460018101809111611f2c578360005260166020526040600020556002916001600160a01b0360135460081c1685146122d4575b6120658161206084601454612310565b612310565b601455846000526011602052612082604060002060125490614d56565b5060405161208f81611c8a565b858152602081016001815260408201868152606083018a81526080840186815260a085019086825260c086019289845260e087019460008652610100880196428852601254680100000000000000008110156103f4578060016120f59201601255611e43565b9990996122be57516001600160a01b03166001600160a01b031689546001600160a01b03191617895551151588549060a01b74ff0000000000000000000000000000000000000000169060ff60a01b191617885551600188015551600287015551600386015551600485015551600584015551600683015551906007015584600052601060205260406000206003810194828487549061219491612310565b9061219e91612310565b8096556004820192808454906121b391612310565b809455600283019481818754906121c991611f1f565b906121d391611f1f565b8096556012546040519384528960208501528b60408501528c6060850152608084015260a083015260c08201528460e08201526101007f5e16b3b6e0a15f63fe16c5b5705c03147211e204ce01e5197d2a699c087e167b91a1600101549385600052600f6020526040600020549260405195878752602087015260408601526060850152608084015260a083015260c082015260e07f9a5787718e945183fe431d089b46b9ee2c5cd3ffbb79ca1a9b117fc29b31c6aa91a160135460081c6001600160a01b0316146122ac575b50505050600190600090565b6122b593613885565b388080806122a0565b634e487b7160e01b600052600060045260246000fd5b60019250612050565b81810292918115918404141715611f2c57565b81156122fa570490565b634e487b7160e01b600052601260045260246000fd5b91908201809211611f2c57565b1561232457565b606460405162461bcd60e51b815260206004820152600960248201527f746f6f20736d616c6c00000000000000000000000000000000000000000000006044820152fd5b6020818303126100155780519067ffffffffffffffff8211610015570190610160828203126100155760405191610160830183811067ffffffffffffffff8211176103f45760405280516001600160a01b03811681036100155783526020810151600381101561001557602084015260408101516006811015610015576040840152606081015160038110156100155760608401526080810151608084015260a081015167ffffffffffffffff81116100155781019180601f840112156100155782519261243584611cca565b916124436040519384611ca7565b8483526020858301011161001557610140936124659160208085019101611d2d565b60a084015260c081015160c084015260e081015160e0840152610100810151610100840152610120810151610120840152015161014082015290565b919692949095936000928396848098819884835260166020526040832054938460001981011161345f576124d86000198601611e43565b50986001600160a01b038a541696878652601060205260ff604087209f169081158099819a613447575b50613381575b50600103612b5357505050506003860154600487019b6125298d5483612310565b9160028d01546125398185612310565b8311156127275750509b8c61255f8d9e9d60026125568685611f1f565b91015490611f1f565b90612568613c97565b90818311612707575b505090816125ce93926126de575b506125c46004859f6001810161259f866102838354600286015490611f1f565b9055866002820155600381016125b6868254611f1f565b905501918254905490611f1f565b9055601454611f1f565b6014556001600160a01b03865416815260116020526125f4600019830160408320613d4d565b50612600858b8861476b565b156126a757509161012093917fa9fda2d0d572da79a3bb128a2cd337112b06538bd638e802d7f392879dde36a895935b829360029260029415612697575b61268e575b6000199293946001600160a01b0360018801549754166040519788526020880152604087015260608601520160808401528960a08401528860c084015260e0830152610100820152a1565b60019350612643565b600287015495506001935061263e565b97505050505050928094506126d591506001600160a01b03600554166001600160a01b03600754169061357a565b91906001908190565b612701906001600160a01b03600554166001600160a01b03600654163091613b6e565b3861257f565b819e509161028361271d926125ce969594612310565b9c90919238612571565b8d8484969594116000146129995750505060038801546127478185611f1f565b8d60088101549060ff8216918261298a575b508161297b575b506128495750506127b490829d6125c46004869f6127a0612781868a611f1f565b60018301612794826102838a8454611f1f565b90556002830154611f1f565b6002820155600381016125b6868254611f1f565b6014556001600160a01b03875416815260116020526127da600019840160408320613d4d565b506127e68683896143b5565b1561281b5750509161012093917fa9fda2d0d572da79a3bb128a2cd337112b06538bd638e802d7f392879dde36a89593612630565b9850995050505050509250506126d5836001600160a01b03600554166001600160a01b03600754169061357a565b989a50989b96935050985099506128959250612883915060035490600785015480612971575b5061287e9060028901546122dd565b6122dd565b61289060015480926122f0565b6122f0565b61289f8184612310565b6002830154101561295b575b506128b98260039394612310565b828501556128cb836002830154611f1f565b6002820155016128dc828254612310565b90556128ea81601454612310565b6014557fc8f742aa90a6e6851d2252fa58ed695d3ca295b55bf5f1c2164a360cc8a093e26001600160a01b03835416916001600160a01b03600554169361295160036001830154920154604051938493846040919493926060820195825260208201520152565b0390a38092918190565b61296a6128b991600394612310565b92506128ab565b915061287e61286f565b6002915001548111158e612760565b60081c60ff1615915038612759565b6008015460ff81169081612b44575b50612aab575b5050819c6129d96004859e600181016129c8868254611f1f565b9055600381016125b6868254611f1f565b90556129e781601454611f1f565b6014556001600160a01b0388541682526011602052612a0d600019850160408420613d4d565b50612a1987828a613e6a565b15612a4f575050509161012093917fa9fda2d0d572da79a3bb128a2cd337112b06538bd638e802d7f392879dde36a89593612630565b979a509850995050505050506126d59150612a82856001600160a01b03600554166001600160a01b03600754169061357a565b6001600160a01b036005541690612aa5866001600160a01b036006541692611f1f565b9161357a565b818510612b2e57612abc8286611f1f565b9080821115612acf5750505038806129ae565b9750989a50989b96929c50509850612b059250612883915060035490600786015480612b24575b5061287e9060028a01546122dd565b90612b108285612310565b111561295b57506128b98260039394612310565b915061287e612af6565b5050509850995050505050509250508092918190565b60ff915060081c1615386129a8565b879e9d9192939e15600014612f205760ff60a01b198a54168a5560038a019d8e5491612b8560048d0193845490612310565b9460038501612b95878254611f1f565b905560048501612ba88154865490611f1f565b9055612bb686601454611f1f565b6014556001600160a01b038d541688526011602052612bdc6000198a0160408a20613d4d565b508215612e47575050809e60028401958654612bf88188612310565b841115612d585750612c51575b5050509161012097959391612c4960017fa9fda2d0d572da79a3bb128a2cd337112b06538bd638e802d7f392879dde36a89b99979501916102838354855490611f1f565b905555612630565b612c699291612c61915490611f1f565b905490611f1f565b612c7584548092611f1f565b90612c7e613c97565b808311612d1f575b5060017fa9fda2d0d572da79a3bb128a2cd337112b06538bd638e802d7f392879dde36a89b99979593612d0e6101209c9a989694612ce4612c49956001600160a01b036005541690612aa56001600160a01b0360075416918a612310565b6001600160a01b03600554166001600160a01b03600654166001600160a01b036007541691613b6e565b939597999b50829496989a50612c05565b819f5080919a98969492509a989694929a99612d3b9083612310565b90612d4591612310565b9d389a929496989a999193959799612c86565b90949293506101209b999750857fa9fda2d0d572da79a3bb128a2cd337112b06538bd638e802d7f392879dde36a89d9b99979692508411600014612df2575060018392612dac612dbb93612dc49796611f1f565b94612dcb575b01918254611f1f565b90558254611f1f565b9055612630565b612ded846001600160a01b03600554166001600160a01b03600754169061357a565b612db2565b836102836001959793612e0493612310565b905501612e12838254611f1f565b9055612e1f575b50612630565b612e41906001600160a01b03600554166001600160a01b03600754169061357a565b38612e19565b979f509e9f92949395505050841515600014612ee2575091612eb28461206060027fa9fda2d0d572da79a3bb128a2cd337112b06538bd638e802d7f392879dde36a89b9997956101209b9997612eba575b60018101612ea7858254612310565b905501938454612310565b90559a612630565b612edd846001600160a01b03600554166001600160a01b03600754163091613b6e565b612e98565b9c917fa9fda2d0d572da79a3bb128a2cd337112b06538bd638e802d7f392879dde36a89896945061012097959391506002612dc49101918254612310565b925092909b8660038a015490612f35916122dd565b9260028a01549384612f46916122f0565b9c8d948960048d015490612f59916122dd565b90612f63916122f0565b9e8f9586612f7091612310565b956003880187815490612f8291611f1f565b90556004880190815490612f9591611f1f565b90558560145490612fa591611f1f565b601455831561329b57506002860154612fbe8187612310565b8411156130eb57505050610120979593836130c6936130047fa9fda2d0d572da79a3bb128a2cd337112b06538bd638e802d7f392879dde36a89c9a98966130a595611f1f565b9261301460028201548095611f1f565b9361301d613c97565b8086116130e3575b5082916130516002926001600160a01b036005541690612aa56001600160a01b03600754169189612310565b61307f866001600160a01b03600554166001600160a01b03600654166001600160a01b036007541691613b6e565b6001810161309b613091878354611f1f565b8484015490611f1f565b9055015550612310565b9b6130b760019c5b6003890154611f1f565b60038801556004870154611f1f565b60048601556130d9836002870154611f1f565b6002860155612630565b945082613025565b9295949350909183861115613185575050508260017fa9fda2d0d572da79a3bb128a2cd337112b06538bd638e802d7f392879dde36a89997959361314461313a6130c6956101209c9a98611f1f565b6002830154611f1f565b600282015501613155828254611f1f565b9055613179816001600160a01b03600554166001600160a01b03600754169061357a565b9b6130b760019c6130ad565b8d869f961160001461321c575050506101209694928c6131ed60017fa9fda2d0d572da79a3bb128a2cd337112b06538bd638e802d7f392879dde36a89b9997956131df6131d5856130c698611f1f565b6002830154612310565b600282015501918254611f1f565b90556132118d6001600160a01b03600554166001600160a01b03600754169061357a565b6130b760019c6130ad565b9c6132966101209a9896939f6130b7939f7fa9fda2d0d572da79a3bb128a2cd337112b06538bd638e802d7f392879dde36a89d9b9997613265836102836130c69a600195612310565b600282015501613276828254611f1f565b90556001600160a01b03600554166001600160a01b03600754169061357a565b6130ad565b93509c98969491509c989694929d82151560001461333b5750819d8260028301918254906132c891612310565b906132d291612310565b9055600101818154906132e491612310565b90556005546001600160a01b0316906007546001600160a01b0316309061330a93613b6e565b6130c67fa9fda2d0d572da79a3bb128a2cd337112b06538bd638e802d7f392879dde36a8976130b7610120986130ad565b9d6130c69250610120986130b79161337a60027fa9fda2d0d572da79a3bb128a2cd337112b06538bd638e802d7f392879dde36a89d9501918254612310565b90556130ad565b866001600160a01b0360085416916024604051809481936320bf56eb60e21b835260048301525afa90811561343c57879161341a575b508961340f5760028c015460c08201525b60a081015190602081015160038110156133fb5791816001949360e060c06133f59501519201519261391f565b90612508565b602489634e487b7160e01b81526021600452fd5b8960c08201526133c8565b61343691503d8089833e61342e8183611ca7565b810190612368565b386133b7565b6040513d89823e3d90fd5b90506001600160a01b0360135460081c161438612502565b602484634e487b7160e01b81526011600452fd5b6001600160a01b03168015613503576001600160a01b037f9016d09d72d40fdae2fd8ceac6b6234c7706214fd39c1cd1e609a0528c19930054826001600160a01b03198216177f9016d09d72d40fdae2fd8ceac6b6234c7706214fd39c1cd1e609a0528c19930055167f8be0079c531659141344cd1fd0a4f28419497f9722a3daafe3b4186f6b6457e0600080a3565b7f1e4fbdf700000000000000000000000000000000000000000000000000000000600052600060045260246000fd5b3d1561355d573d9061354382611cca565b916135516040519384611ca7565b82523d6000602084013e565b606090565b90816020910312610015575180151581036100155790565b916135859083614b9e565b918261359057505050565b6000928380936040926001600160a01b037fffffffff000000000000000000000000000000000000000000000000000000006019602087516135d28982611ca7565b828152017f7472616e7366657228616464726573732c75696e743235362900000000000000815220169451926020840195865216602483015260448201526044815261361f606482611ca7565b51925af161362b613532565b81613639575b501561001557565b805180159250821561364e575b505038613631565b6136619250602080918301019101613562565b3880613646565b6001600160a01b037f9016d09d72d40fdae2fd8ceac6b6234c7706214fd39c1cd1e609a0528c1993005416330361369b57565b7f118cdaa7000000000000000000000000000000000000000000000000000000006000523360045260246000fd5b81156122fa570690565b906013549160ff83166005811015908161375f57600481141580613878575b1561383457600b548261375f576003821492839184159485613826575b8061381d575b613775575b5061375f5791613754575b5061373857505050600090600090600090565b6001600160a01b0361374d9360081c16614c07565b9192909190565b600191501438613725565b634e487b7160e01b600052602160045260246000fd5b6137aa8160405160208101904482524160601b6040820152426054820152605481526137a2607482611ca7565b5190206136c9565b9060005b8181106137bc57505061371a565b6137f189896001600160a01b036137e46137df876137da888b612310565b6136c9565b611f42565b90549060031b1c16614c07565b90916001600160a01b03811661380c575050506001016137ae565b9c919b509950975050505050505050565b50801515613715565b50600091506002841461370f565b606460405162461bcd60e51b815260206004820152601560248201527f706f6f6c207374617475732069732072656675736500000000000000000000006044820152fd5b50600091508015156136f2565b60206138bc919493946001600160a01b0360135460081c166000526015825260406000208260405194838680955193849201611d2d565b82019081520301902090600381101561375f5760ff6000199116019160ff8311611f2c576139106139086139006138f861391b96600196611d50565b5093876122dd565b8454906122f0565b825490612310565b815501918254612310565b9055565b9192506139576020601354936001600160a01b0360009560081c16855260158252604085208260405194838680955193849201611d2d565b820190815203019020906003811015610ed45760ff6000199116019060ff8211613a10579061398591611d50565b509050600181019182548082116139cc578082036139a857505090600080925555565b826139c561391b94546139bf8461289087846122dd565b90611f1f565b9055611f1f565b606460405162461bcd60e51b815260206004820152601c60248201527f736861726520616d6f756e7420697320696e73756666696369656e74000000006044820152fd5b602483634e487b7160e01b81526011600452fd5b90816020910312610015575160ff811681036100155790565b604d8111611f2c57600a0a90565b6001600160a01b0360055416906040519063313ce56760e01b8252602082600481865afa918215613b2457600092613b30575b506001600160a01b03602460209260405195869384927f70a082310000000000000000000000000000000000000000000000000000000084521660048301525afa918215613b2457600092613aee575b506102b560ff613ae4613aeb94600154906122dd565b9216613a3d565b90565b91506020823d602011613b1c575b81613b0960209383611ca7565b81010312610015579051906102b5613ace565b3d9150613afc565b6040513d6000823e3d90fd5b60209192506024613b5e6001600160a01b0392843d8611613b67575b613b568183611ca7565b810190613a24565b93925050613a7e565b503d613b4c565b909192613b7b9082614b9e565b9283613b88575b50505050565b600080949381946001600160a01b037fffffffff000000000000000000000000000000000000000000000000000000006025604051613bc8606082611ca7565b8181527f7432353629000000000000000000000000000000000000000000000000000000604060208301927f7472616e7366657246726f6d28616464726573732c616464726573732c75696e84520152201694816040519460208601978852166024850152166044830152606482015260648152613c47608482611ca7565b51925af1613c53613532565b81613c68575b50156100155738808080613b82565b8051801592508215613c7d575b505038613c59565b613c909250602080918301019101613562565b3880613c75565b6001600160a01b036005541660405163313ce56760e01b8152602081600481855afa908115613b2457600091613d2e575b5060206001600160a01b03600654166024604051809581937f70a0823100000000000000000000000000000000000000000000000000000000835260048301525afa918215613b2457600092613aee57506102b560ff613ae4613aeb94600154906122dd565b613d47915060203d602011613b6757613b568183611ca7565b38613cc8565b9060018201816000528060205260ff6040600020541615613e625782549060005b828110613d7f575050505050600090565b83613d8a8287611f5d565b90549060031b1c14613d9e57600101613d6e565b94929091939493600019810190811194855b611f2c5781811015613e07576001810190818111611f2c57613e00613dd76001938a611f5d565b90549060031b1c613de8838b611f5d565b90919060001983549160031b92831b921b1916179055565b0185613db0565b5050919390925080548015613e4c576000190190613e258282611f5d565b60001982549160031b1b1916905555600052602052604060002060ff198154169055600190565b634e487b7160e01b600052603160045260246000fd5b505050600090565b91906001600160a01b0360085416916001840191600083546024604051809781936320bf56eb60e21b835260048301525afa938415613b245760009461439a575b5060135460ff8116600581101561375f576003148061438e575b8061436e575b613f33575b505050506001600160a01b038254166001600160a01b0360135460081c1614613f05575b5060ff60a01b198154169055600090565b60a0810151602082015191600383101561375f57613f2d9260e060028601549201519261391f565b38613ef4565b60081c6001600160a01b03169182600052601060205260406000209060405192613f5c84611c6d565b82546001600160a01b0316845260018301546020850190815260028401546040860190815260038501549060608701918252600486015492608088019384528b60058801549560a08a0196875260068901549760c08b0198895260078a01549960e08c019a8b52600801549c8d9c6101008d019e8f9060ff16151590526101208d01809e60081c60ff1615159052806000526010602052836040600020600101549061400791612310565b90600052601060205260406000206001015560135460081c6001600160a01b0316806000526010602052836040600020600201549061404591612310565b90600052601060205260406000206002015560135460081c6001600160a01b03169360020190828254906140799187614c07565b9690916001600160a01b03166141245750505050505050926008959261411b9a9998959261186698956001600160a01b036013548a1c1660005260106020526001600160a01b03806040600020995116166001600160a01b03198954161788555160018801555160028701555160038601555160048501555160058401555160068301555160078201550192511515839060ff60ff1983541691151516179055565b38808080613ed0565b99509950995099509a509b98509b9950505050600052601060205260406000209060038201916141598a612060848654612310565b8355600481019161416b8b8454612310565b835560028201946141818c610283848954611f1f565b865560038a810183905560048b018d905583548b54600b60058e01557fffffffffffffffffffffff000000000000000000000000000000000000000000166001600160a01b03919091161774010000000000000000000000000000000000000000178b5560068b018a905560a089015160208a015199918a101561375f576142129160e08a5491019a8b5192613885565b549a8b6000526016602052604060002054996000198b019a8b11611f2c57546001600160a01b03169654975191604051928d845288602085015289604085015260608401528a608084015260a083015260c082015260e08101600390526101007f5e16b3b6e0a15f63fe16c5b5705c03147211e204ce01e5197d2a699c087e167b91a1600101549254915490549060135460081c6001600160a01b0316600052600f6020526040600020549260405194868652602086015260408501526060840152608083015260a082015260c081016003905260e07f9a5787718e945183fe431d089b46b9ee2c5cd3ffbb79ca1a9b117fc29b31c6aa91a1604051958652602086015260408501526060840152608083015260a082016000905260c082015260e08101600190526101008101600590526101207fa9fda2d0d572da79a3bb128a2cd337112b06538bd638e802d7f392879dde36a891a1600190565b506001600160a01b038654166001600160a01b038260081c161415613ecb565b5060ff60005416613ec5565b6143ae91943d8091833e61342e8183611ca7565b9238613eab565b91906001600160a01b0360085416916001840191600083546024604051809781936320bf56eb60e21b835260048301525afa938415613b2457600094614750575b5060135460ff8116600581101561375f5760031480614744575b80614724575b61444e57505050506001600160a01b038254166001600160a01b0360135460081c1614613f05575060ff60a01b198154169055600090565b60081c6001600160a01b0316918260005260106020526040600020906040519261447784611c6d565b82546001600160a01b0316845260018301546020850190815260028401546040860190815260038501549060608701918252600486015492608088019384528b60058801549560a08a0196875260068901549760c08b0198895260078a01549960e08c019a8b52600801549c8d9c6101008d019e8f9060ff16151590526101208d01809e60081c60ff1615159052806000526010602052836040600020600101549061452291612310565b90600052601060205260406000206001015560135460081c6001600160a01b0316806000526010602052836040600020600201549061456091612310565b90600052601060205260406000206002015560135460081c6001600160a01b03169360020190828254906145949187614c07565b9690916001600160a01b03166146365750505050505050926008959261411b9a9998959261186698956001600160a01b036013548a1c1660005260106020526001600160a01b03806040600020995116166001600160a01b03198954161788555160018801555160028701555160038601555160048501555160058401555160068301555160078201550192511515839060ff60ff1983541691151516179055565b99509950995099509a509b98509b99505050506000526010602052604060002090600382019161466b8a612060848654612310565b8355600481019161467d8b8454612310565b835560028201946146938c610283848954611f1f565b865560038a810183905560048b018d905583548b54600c60058e01557fffffffffffffffffffffff000000000000000000000000000000000000000000166001600160a01b03919091161774010000000000000000000000000000000000000000178b5560068b018a905560a089015160208a015199918a101561375f576142129160e08a5491019a8b5192613885565b506001600160a01b038654166001600160a01b038260081c161415614416565b5060ff60005416614410565b61476491943d8091833e61342e8183611ca7565b92386143f6565b91906001600160a01b0360085416916001840191600083546024604051809781936320bf56eb60e21b835260048301525afa938415613b2457600094614b06575b5060135460ff8116600581101561375f5760031480614afa575b80614ada575b61480457505050506001600160a01b038254166001600160a01b0360135460081c1614613f05575060ff60a01b198154169055600090565b60081c6001600160a01b0316918260005260106020526040600020906040519261482d84611c6d565b82546001600160a01b0316845260018301546020850190815260028401546040860190815260038501549060608701918252600486015492608088019384528b60058801549560a08a0196875260068901549760c08b0198895260078a01549960e08c019a8b52600801549c8d9c6101008d019e8f9060ff16151590526101208d01809e60081c60ff161515905280600052601060205283604060002060010154906148d891612310565b90600052601060205260406000206001015560135460081c6001600160a01b0316806000526010602052836040600020600201549061491691612310565b90600052601060205260406000206002015560135460081c6001600160a01b031693600201908282549061494a9187614c07565b9690916001600160a01b03166149ec5750505050505050926008959261411b9a9998959261186698956001600160a01b036013548a1c1660005260106020526001600160a01b03806040600020995116166001600160a01b03198954161788555160018801555160028701555160038601555160048501555160058401555160068301555160078201550192511515839060ff60ff1983541691151516179055565b99509950995099509a509b98509b995050505060005260106020526040600020906003820191614a218a612060848654612310565b83556004810191614a338b8454612310565b83556002820194614a498c610283848954611f1f565b865560038a810183905560048b018d905583548b54600d60058e01557fffffffffffffffffffffff000000000000000000000000000000000000000000166001600160a01b03919091161774010000000000000000000000000000000000000000178b5560068b018a905560a089015160208a015199918a101561375f576142129160e08a5491019a8b5192613885565b506001600160a01b038654166001600160a01b038260081c1614156147cc565b5060ff600054166147c6565b614b1a91943d8091833e61342e8183611ca7565b92386147ac565b600460206001600160a01b0360095416604051928380927f3b1e6a590000000000000000000000000000000000000000000000000000000082525afa908115613b2457600091614b6f575090565b90506020813d602011614b96575b81614b8a60209383611ca7565b81010312610015575190565b3d9150614b7d565b60206001600160a01b039160046040518094819363313ce56760e01b8352165afa918215613b2457614be260ff613aeb9461144094600091614be8575b5016613a3d565b906122dd565b614c01915060203d602011613b6757613b568183611ca7565b38614bdb565b6001600160a01b038116600052601060205260406000209260405192614c2c84611c6d565b6001600160a01b03855416845260018501546020850152600285015493604081019485526003860154606082015260048601546080820152600586015461012060a083019282845260ff600860068b01549a60c084019b8c52600781015460e08501520154818116151561010084015260081c1615159182910152614d4457614d2d5750614cc9612883614cc084846122dd565b600254906122dd565b945b8051614d0f5750614ce2614ceb92612883926122dd565b600454906122dd565b915b51614cf88385612310565b1115614d0c57505050600090600090600090565b92565b614d1f614d2793612883936122dd565b9051906122dd565b91614ced565b612883614d3e91614d1f85856122dd565b94614ccb565b50505050505050600090600090600090565b906001820191816000528260205260ff60406000205416613e62576000908054805b808410614e265750680100000000000000008110156103f45783613de8826001614da59401855584611f5d565b80546000198101908111611f2c579083915b838111614de75750614dcc92613de891611f5d565b6000526020526040600020600160ff19825416179055600190565b9091506000198101818111611f2c57614e03614e149184611f5d565b90549060031b1c613de88385611f5d565b8015611f2c5760001901908391614db7565b92614e318482612310565b60011c9085614e408386611f5d565b90549060031b1c10600014614e61575060018101809111611f2c5792614d78565b9350614d78565b60ff7ff0c57e16840df040f15088dc2f81fe391c3923bec73e23a9662efc9c229c6a005460401c1615614e9757565b7fd7e6bcf80000000000000000000000000000000000000000000000000000000060005260046000fdfea2646970667358221220627b9015ff0931eb0450367a1ee222018d0382b7eaa2298cb6c7702dc244372264736f6c634300081c0033",
  "linkReferences": {},
  "deployedLinkReferences": {}
}