{
  "_format": "hh-sol-artifact-1",
  "contractName": "TradeStation",
  "sourceName": "contracts/TradeStation.sol",
  "abi": [
    {
      "inputs": [],
      "name": "InvalidInitialization",
      "type": "error"
    },
    {
      "inputs": [],
      "name": "NotInitializing",
      "type": "error"
    },
    {
      "inputs": [
        {
          "internalType": "address",
          "name": "owner",
          "type": "address"
        }
      ],
      "name": "OwnableInvalidOwner",
      "type": "error"
    },
    {
      "inputs": [
        {
          "internalType": "address",
          "name": "account",
          "type": "address"
        }
      ],
      "name": "OwnableUnauthorizedAccount",
      "type": "error"
    },
    {
      "anonymous": false,
      "inputs": [
        {
          "indexed": false,
          "internalType": "address",
          "name": "taker",
          "type": "address"
        },
        {
          "indexed": false,
          "internalType": "uint256",
          "name": "amount",
          "type": "uint256"
        },
        {
          "indexed": false,
          "internalType": "uint256",
          "name": "availableAmount",
          "type": "uint256"
        },
        {
          "indexed": false,
          "internalType": "uint256",
          "name": "marginAmount",
          "type": "uint256"
        },
        {
          "indexed": false,
          "internalType": "uint256",
          "name": "locked",
          "type": "uint256"
        },
        {
          "indexed": false,
          "internalType": "uint256",
          "name": "stage",
          "type": "uint256"
        },
        {
          "indexed": false,
          "internalType": "uint256",
          "name": "dif",
          "type": "uint256"
        }
      ],
      "name": "BalanceOfTaker",
      "type": "event"
    },
    {
      "anonymous": false,
      "inputs": [
        {
          "indexed": false,
          "internalType": "string",
          "name": "name",
          "type": "string"
        },
        {
          "indexed": true,
          "internalType": "address",
          "name": "taker",
          "type": "address"
        },
        {
          "indexed": false,
          "internalType": "uint256",
          "name": "orderID",
          "type": "uint256"
        },
        {
          "indexed": false,
          "internalType": "enum ICommon.Direct",
          "name": "orderType",
          "type": "uint8"
        },
        {
          "indexed": false,
          "internalType": "enum IPerpetual.OrderState",
          "name": "state",
          "type": "uint8"
        },
        {
          "indexed": false,
          "internalType": "enum ICommon.Offset",
          "name": "offset",
          "type": "uint8"
        },
        {
          "indexed": false,
          "internalType": "uint256",
          "name": "amount",
          "type": "uint256"
        },
        {
          "indexed": false,
          "internalType": "uint256",
          "name": "targetPrice",
          "type": "uint256"
        },
        {
          "indexed": false,
          "internalType": "uint256",
          "name": "margin",
          "type": "uint256"
        },
        {
          "indexed": false,
          "internalType": "uint256",
          "name": "extraFee",
          "type": "uint256"
        },
        {
          "indexed": false,
          "internalType": "uint256",
          "name": "tradingFee",
          "type": "uint256"
        },
        {
          "indexed": false,
          "internalType": "uint256",
          "name": "goodTill",
          "type": "uint256"
        }
      ],
      "name": "CreateLimitedOrder",
      "type": "event"
    },
    {
      "anonymous": false,
      "inputs": [
        {
          "indexed": false,
          "internalType": "uint256",
          "name": "limitOrderID",
          "type": "uint256"
        },
        {
          "indexed": false,
          "internalType": "uint256",
          "name": "openLimitPrice",
          "type": "uint256"
        },
        {
          "indexed": false,
          "internalType": "uint256",
          "name": "gainTriggerPrice",
          "type": "uint256"
        },
        {
          "indexed": false,
          "internalType": "uint256",
          "name": "gainLimitPrice",
          "type": "uint256"
        },
        {
          "indexed": false,
          "internalType": "uint256",
          "name": "lossTriggerPrice",
          "type": "uint256"
        },
        {
          "indexed": false,
          "internalType": "uint256",
          "name": "lossLimitPrice",
          "type": "uint256"
        }
      ],
      "name": "CreateTriggerCondition",
      "type": "event"
    },
    {
      "anonymous": false,
      "inputs": [
        {
          "indexed": false,
          "internalType": "uint256",
          "name": "code",
          "type": "uint256"
        },
        {
          "indexed": false,
          "internalType": "uint256",
          "name": "orderID",
          "type": "uint256"
        },
        {
          "indexed": false,
          "internalType": "string",
          "name": "message",
          "type": "string"
        }
      ],
      "name": "ErrorInfo",
      "type": "event"
    },
    {
      "anonymous": false,
      "inputs": [
        {
          "indexed": false,
          "internalType": "uint256",
          "name": "code",
          "type": "uint256"
        },
        {
          "indexed": false,
          "internalType": "uint256",
          "name": "orderID",
          "type": "uint256"
        },
        {
          "indexed": false,
          "internalType": "bytes",
          "name": "message",
          "type": "bytes"
        }
      ],
      "name": "ExceptErrorInfo",
      "type": "event"
    },
    {
      "anonymous": false,
      "inputs": [
        {
          "indexed": false,
          "internalType": "uint64",
          "name": "version",
          "type": "uint64"
        }
      ],
      "name": "Initialized",
      "type": "event"
    },
    {
      "anonymous": false,
      "inputs": [
        {
          "indexed": true,
          "internalType": "address",
          "name": "taker",
          "type": "address"
        },
        {
          "indexed": false,
          "internalType": "string",
          "name": "name",
          "type": "string"
        },
        {
          "indexed": false,
          "internalType": "uint256",
          "name": "orderID",
          "type": "uint256"
        },
        {
          "indexed": false,
          "internalType": "enum ICommon.Direct",
          "name": "direction",
          "type": "uint8"
        },
        {
          "indexed": false,
          "internalType": "enum IPerpetual.OrderType",
          "name": "orderType",
          "type": "uint8"
        },
        {
          "indexed": false,
          "internalType": "uint256",
          "name": "amount",
          "type": "uint256"
        },
        {
          "indexed": false,
          "internalType": "uint256",
          "name": "costPrice",
          "type": "uint256"
        },
        {
          "indexed": false,
          "internalType": "uint256",
          "name": "price",
          "type": "uint256"
        },
        {
          "indexed": false,
          "internalType": "uint256",
          "name": "tradingFee",
          "type": "uint256"
        },
        {
          "indexed": false,
          "internalType": "uint256",
          "name": "limitOrderId",
          "type": "uint256"
        },
        {
          "indexed": false,
          "internalType": "uint256",
          "name": "timestamp",
          "type": "uint256"
        }
      ],
      "name": "OrderHistory",
      "type": "event"
    },
    {
      "anonymous": false,
      "inputs": [
        {
          "indexed": true,
          "internalType": "address",
          "name": "previousOwner",
          "type": "address"
        },
        {
          "indexed": true,
          "internalType": "address",
          "name": "newOwner",
          "type": "address"
        }
      ],
      "name": "OwnershipTransferred",
      "type": "event"
    },
    {
      "anonymous": false,
      "inputs": [
        {
          "indexed": false,
          "internalType": "uint256",
          "name": "orderID",
          "type": "uint256"
        },
        {
          "indexed": false,
          "internalType": "uint256",
          "name": "dealID",
          "type": "uint256"
        },
        {
          "indexed": false,
          "internalType": "enum IPerpetual.TradeType",
          "name": "tradeType",
          "type": "uint8"
        },
        {
          "indexed": false,
          "internalType": "uint256",
          "name": "amount",
          "type": "uint256"
        },
        {
          "indexed": false,
          "internalType": "uint256",
          "name": "price",
          "type": "uint256"
        },
        {
          "indexed": false,
          "internalType": "uint256",
          "name": "tradingFee",
          "type": "uint256"
        },
        {
          "indexed": false,
          "internalType": "uint256",
          "name": "profit",
          "type": "uint256"
        },
        {
          "indexed": false,
          "internalType": "uint256",
          "name": "loss",
          "type": "uint256"
        },
        {
          "indexed": false,
          "internalType": "uint256",
          "name": "timestamp",
          "type": "uint256"
        }
      ],
      "name": "TradeHistory",
      "type": "event"
    },
    {
      "anonymous": false,
      "inputs": [
        {
          "indexed": true,
          "internalType": "address",
          "name": "taker",
          "type": "address"
        },
        {
          "indexed": false,
          "internalType": "enum ICommon.TransactionType",
          "name": "transactionType",
          "type": "uint8"
        },
        {
          "indexed": false,
          "internalType": "uint256",
          "name": "amount",
          "type": "uint256"
        },
        {
          "indexed": false,
          "internalType": "uint256",
          "name": "timestamp",
          "type": "uint256"
        }
      ],
      "name": "TransactionHistory",
      "type": "event"
    },
    {
      "anonymous": false,
      "inputs": [
        {
          "indexed": false,
          "internalType": "address",
          "name": "sender",
          "type": "address"
        },
        {
          "indexed": false,
          "internalType": "address",
          "name": "received",
          "type": "address"
        },
        {
          "indexed": false,
          "internalType": "enum ICommon.TransactionType",
          "name": "transactionType",
          "type": "uint8"
        },
        {
          "indexed": false,
          "internalType": "uint256",
          "name": "amount",
          "type": "uint256"
        },
        {
          "indexed": false,
          "internalType": "uint256",
          "name": "timestamp",
          "type": "uint256"
        }
      ],
      "name": "TransferFee",
      "type": "event"
    },
    {
      "stateMutability": "nonpayable",
      "type": "fallback"
    },
    {
      "inputs": [
        {
          "internalType": "address",
          "name": "_taker",
          "type": "address"
        },
        {
          "internalType": "uint256",
          "name": "_deposit",
          "type": "uint256"
        },
        {
          "internalType": "string[]",
          "name": "_pairs",
          "type": "string[]"
        },
        {
          "internalType": "uint256[]",
          "name": "_prices",
          "type": "uint256[]"
        }
      ],
      "name": "clearingTaker",
      "outputs": [
        {
          "internalType": "uint256",
          "name": "remainingDeposit",
          "type": "uint256"
        }
      ],
      "stateMutability": "nonpayable",
      "type": "function"
    },
    {
      "inputs": [
        {
          "internalType": "address",
          "name": "_taker",
          "type": "address"
        },
        {
          "internalType": "string",
          "name": "_name",
          "type": "string"
        },
        {
          "internalType": "uint256",
          "name": "_amount",
          "type": "uint256"
        },
        {
          "internalType": "uint256",
          "name": "_price",
          "type": "uint256"
        },
        {
          "internalType": "enum ICommon.Direct",
          "name": "_type",
          "type": "uint8"
        },
        {
          "internalType": "uint256",
          "name": "_limitID",
          "type": "uint256"
        }
      ],
      "name": "closeOrder",
      "outputs": [],
      "stateMutability": "nonpayable",
      "type": "function"
    },
    {
      "inputs": [
        {
          "internalType": "string",
          "name": "_name",
          "type": "string"
        },
        {
          "internalType": "uint256",
          "name": "_amount",
          "type": "uint256"
        },
        {
          "internalType": "uint256",
          "name": "_orderType",
          "type": "uint256"
        },
        {
          "internalType": "uint256",
          "name": "_price",
          "type": "uint256"
        },
        {
          "internalType": "enum ICommon.Direct",
          "name": "_type",
          "type": "uint8"
        },
        {
          "internalType": "uint256",
          "name": "_goodTill",
          "type": "uint256"
        },
        {
          "internalType": "address",
          "name": "_taker",
          "type": "address"
        },
        {
          "internalType": "uint256",
          "name": "_rewardGas",
          "type": "uint256"
        }
      ],
      "name": "closePosition",
      "outputs": [],
      "stateMutability": "payable",
      "type": "function"
    },
    {
      "inputs": [
        {
          "internalType": "address",
          "name": "initialOwner",
          "type": "address"
        },
        {
          "internalType": "address",
          "name": "_priPool",
          "type": "address"
        },
        {
          "internalType": "address",
          "name": "_perpetual",
          "type": "address"
        }
      ],
      "name": "initialize",
      "outputs": [],
      "stateMutability": "nonpayable",
      "type": "function"
    },
    {
      "inputs": [
        {
          "internalType": "address",
          "name": "_taker",
          "type": "address"
        },
        {
          "internalType": "string",
          "name": "_name",
          "type": "string"
        },
        {
          "internalType": "uint256",
          "name": "_amount",
          "type": "uint256"
        },
        {
          "internalType": "uint256",
          "name": "_price",
          "type": "uint256"
        },
        {
          "internalType": "enum ICommon.Direct",
          "name": "_type",
          "type": "uint8"
        },
        {
          "internalType": "uint256",
          "name": "_goodTill",
          "type": "uint256"
        },
        {
          "internalType": "uint256",
          "name": "_rewardsGas",
          "type": "uint256"
        }
      ],
      "name": "makeOpenLimitOrder",
      "outputs": [],
      "stateMutability": "nonpayable",
      "type": "function"
    },
    {
      "inputs": [
        {
          "internalType": "address",
          "name": "_taker",
          "type": "address"
        },
        {
          "internalType": "string",
          "name": "_name",
          "type": "string"
        },
        {
          "internalType": "uint256",
          "name": "_amount",
          "type": "uint256"
        },
        {
          "internalType": "uint256",
          "name": "_price",
          "type": "uint256"
        },
        {
          "internalType": "enum ICommon.Direct",
          "name": "_type",
          "type": "uint8"
        },
        {
          "internalType": "uint256",
          "name": "limitOrderID",
          "type": "uint256"
        }
      ],
      "name": "openOrder",
      "outputs": [],
      "stateMutability": "nonpayable",
      "type": "function"
    },
    {
      "inputs": [],
      "name": "owner",
      "outputs": [
        {
          "internalType": "address",
          "name": "",
          "type": "address"
        }
      ],
      "stateMutability": "view",
      "type": "function"
    },
    {
      "inputs": [],
      "name": "renounceOwnership",
      "outputs": [],
      "stateMutability": "nonpayable",
      "type": "function"
    },
    {
      "inputs": [
        {
          "internalType": "address",
          "name": "_orderBook",
          "type": "address"
        },
        {
          "internalType": "address",
          "name": "_agent",
          "type": "address"
        }
      ],
      "name": "setKeepers",
      "outputs": [],
      "stateMutability": "nonpayable",
      "type": "function"
    },
    {
      "inputs": [
        {
          "internalType": "string",
          "name": "_name",
          "type": "string"
        },
        {
          "internalType": "uint256",
          "name": "_amount",
          "type": "uint256"
        },
        {
          "internalType": "enum ICommon.Direct",
          "name": "_type",
          "type": "uint8"
        },
        {
          "internalType": "enum ICommon.Offset",
          "name": "_offset",
          "type": "uint8"
        },
        {
          "internalType": "uint256",
          "name": "_param1",
          "type": "uint256"
        },
        {
          "internalType": "uint256",
          "name": "_param2",
          "type": "uint256"
        },
        {
          "internalType": "uint256",
          "name": "_param3",
          "type": "uint256"
        },
        {
          "internalType": "uint256",
          "name": "_param4",
          "type": "uint256"
        },
        {
          "internalType": "uint256",
          "name": "_goodTill",
          "type": "uint256"
        },
        {
          "internalType": "address",
          "name": "_taker",
          "type": "address"
        }
      ],
      "name": "stopTakeOrder",
      "outputs": [],
      "stateMutability": "payable",
      "type": "function"
    },
    {
      "inputs": [
        {
          "internalType": "string",
          "name": "_name",
          "type": "string"
        },
        {
          "internalType": "uint256",
          "name": "_amount",
          "type": "uint256"
        },
        {
          "internalType": "uint256",
          "name": "_price",
          "type": "uint256"
        },
        {
          "internalType": "uint256",
          "name": "_orderType",
          "type": "uint256"
        },
        {
          "internalType": "enum ICommon.Direct",
          "name": "_type",
          "type": "uint8"
        },
        {
          "internalType": "uint256",
          "name": "_goodTill",
          "type": "uint256"
        },
        {
          "internalType": "address",
          "name": "_taker",
          "type": "address"
        },
        {
          "internalType": "uint256",
          "name": "_rewardGas",
          "type": "uint256"
        }
      ],
      "name": "tradeFutures",
      "outputs": [],
      "stateMutability": "payable",
      "type": "function"
    },
    {
      "inputs": [
        {
          "internalType": "address",
          "name": "newOwner",
          "type": "address"
        }
      ],
      "name": "transferOwnership",
      "outputs": [],
      "stateMutability": "nonpayable",
      "type": "function"
    },
    {
      "inputs": [
        {
          "internalType": "uint256",
          "name": "_id",
          "type": "uint256"
        },
        {
          "internalType": "uint256",
          "name": "_currentPrice",
          "type": "uint256"
        }
      ],
      "name": "triggerOrder",
      "outputs": [],
      "stateMutability": "nonpayable",
      "type": "function"
    },
    {
      "inputs": [
        {
          "internalType": "uint256[]",
          "name": "_orderID",
          "type": "uint256[]"
        },
        {
          "internalType": "string[]",
          "name": "_symbols",
          "type": "string[]"
        },
        {
          "internalType": "uint256[]",
          "name": "_prices",
          "type": "uint256[]"
        }
      ],
      "name": "triggerOrders",
      "outputs": [],
      "stateMutability": "nonpayable",
      "type": "function"
    }
  ],
  "bytecode": "0x60808060405234601557614054908161001b8239f35b600080fdfe6080604052600436101561001a575b3461001557005b600080fd5b6000803560e01c8063274889e11461165a57806327a11972146116225780632b0002061461157f578063715018a6146114d95780637295751b146112fc5780638da5cb5b146112b6578063ad4a8e3b146110da578063bcef60d714610e9b578063c0c53b8b14610be0578063c3eea55914610b02578063cd3fd617146108a8578063dcac2e8814610326578063eff6d7c3146100ef5763f2fde38b146100c0575061000e565b346100ec5760206003193601126100ec576100e96100dc611bdf565b6100e4613b05565b6135f0565b80f35b80fd5b506101406003193601126100ec578060043567ffffffffffffffff81116103235761011e903690600401611b98565b6044359060038210156103215760643591600383101561031f576084359060c43592610124356001600160a01b03811680910361031b57338752600460205261016d60ff604089205416611dbf565b61017686611e0a565b600186146102c8575b61018886611e0a565b60028614610263575b6001600160a01b036002541692833b1561025f5787956101d7956040519889978896879663bfffc8bb60e01b885260048801526101806024880152610184870190611e37565b936101e181611e0a565b60448601526101ef81611e0a565b6064850152602435608485015260a484015260a43560c484015260e483015260e43561010483015261010435610124830152600161014483015285610164830152039134905af18015610254576102435750f35b8161024d91611b59565b6100ec5780f35b6040513d84823e3d90fd5b8780fd5b955082158015906102bf575b1561027b578695610191565b606460405162461bcd60e51b815260206004820152601b60248201527f636c6f73652074726967676572207072696365206973207a65726f00000000006044820152fd5b5083151561026f565b955082156102d757869561017f565b606460405162461bcd60e51b815260206004820152601a60248201527f6f70656e2074726967676572207072696365206973207a65726f0000000000006044820152fd5b8680fd5b505b505b50fd5b5061033036611c0b565b9190969395949295338952600460205261035060ff60408b205416611dbf565b61035a87866136bc565b6001600160a01b0361036b86613eb1565b16896001600160a01b03600154166024604051809481937fa666200f00000000000000000000000000000000000000000000000000000000835260048301525afa801561089d578a9061073f575b6101409150015186106106fb576103cf88613739565b610620575050836103fa9133885260046020526103f260ff60408a205416611dbf565b848488613b66565b9161040485613d38565b92602084019384519460608301958651116105dc5761043b82519661042f6040860198895190611e5c565b84528251905190611e5c565b9052610460604082019182519261045860208601948551906120d8565b905288613e1c565b6001600160a01b036002541690825160a08751925194015194833b156105d8576104cc604051977f530e011e0000000000000000000000000000000000000000000000000000000089526001600160a01b038c1660048a015261014060248a0152610144890190611e37565b986104d681611e0a565b60448801528a988996889687958995879560016064880152608487015260a486015260c485015260e484015261010483015260001961012483015203925af19081156105b75783916105a2575b50506001600160a01b0360015416905190803b1561059e5760405163d1937e3d60e01b81526001600160a01b0385166004820152602481019290925282908290818381604481015b03925af1801561025457610585575b50506100e9906137a4565b8161058f91611b59565b61059a57813861057a565b5080fd5b8280fd5b816105ac91611b59565b61059a578138610523565b6040513d85823e3d90fd5b634e487b7160e01b600052602160045260246000fd5b8a80fd5b606460405162461bcd60e51b815260206004820152601160248201527f6f70656e20696e73756666696369656e740000000000000000000000000000006044820152fd5b9195949395929092338852600460205261064060ff60408a205416611dbf565b61064d858289858a613b66565b9061065787613d38565b97602089019687519760608501988951116106b7576100e99a6106b299826106856106a19451835190611e5c565b9052610699606083019182519051906120d8565b90528a613e1c565b602060408501519401519489613811565b6137a4565b606460405162461bcd60e51b815260206004820152601760248201527f6f70656e206c696d697420696e73756666696369656e740000000000000000006044820152fd5b606460405162461bcd60e51b815260206004820152601560248201527f6f70656e20616d6f756e7420746f6f20736d616c6c00000000000000000000006044820152fd5b503d808b833e61074f8183611b59565b8101906020818303126105d85780519067ffffffffffffffff82116108995701906101e0828203126105d857604051906101e0820182811067ffffffffffffffff8211176108855760405282519267ffffffffffffffff8411610881576107be6101c092610140958301611e7f565b8352602081015160208401526107d6604082016135dc565b60408401526107e7606082016135dc565b60608401526107f8608082016135dc565b608084015261080960a082016135dc565b60a084015261081a60c082016135dc565b60c084015261082b60e082016135dc565b60e084015261010081015161010084015261012081015161012084015283810151848401526101608101516101608401526101808101516101808401526101a08101516101a084015201516101c08201526103b9565b8c80fd5b60248d634e487b7160e01b81526041600452fd5b8b80fd5b6040513d8c823e3d90fd5b50346100ec5761091e8160806108bd36611d63565b939097929691949633835260046020526108dd60ff604085205416611dbf565b6001600160a01b036003541694604051998a978896879563cd3fd61760e01b87526001600160a01b038d16600488015260c0602488015260c4870190611e37565b936044860152606485015261093281611e0a565b608484015260a483015203925af19182156105b7578392610aa1575b5061095881613d38565b90602082019161096b83518551906120d8565b906109b961097f60408701938451906120d8565b928760608801519661099760208a01988951906120d8565b958690818110610a99576109ac929350611e5c565b90525b82519051906120d8565b91808310610a555786956109d187926109ee95611e5c565b835260408301805191519091818111610a43575050525b82613e1c565b6001600160a01b03600154169151823b1561031f5760405163d1937e3d60e01b81526001600160a01b03909216600483015260248201529082908290818381604481015b03925af18015610254576102435750f35b610a4e929350611e5c565b90526109e8565b606460405162461bcd60e51b815260206004820152601260248201527f73686f756c64206265206465746f6e61746500000000000000000000000000006044820152fd5b5050526109af565b9091506080813d608011610afa575b81610abd60809383611b59565b8101031261059e57606060405191610ad483611aef565b80518352602081015160208401526040810151604084015201516060820152903861094e565b3d9150610ab0565b50346100ec5760e06003193601126100ec57610b1c611bdf565b60243567ffffffffffffffff811161059e57610b3c903690600401611b98565b60443591606435906084356003811015610bdc573386526004602052610b6860ff604088205416611dbf565b610b758184878786613b66565b92610b7f83613d38565b956020870180519760608701988951116106b7576100e99882610ba8610bc49451835190611e5c565b9052610bbc606083019182519051906120d8565b905285613e1c565b60408501519260c43596602060a43597015195613811565b8580fd5b50346100ec5760606003193601126100ec57610bfa611bdf565b610c02611bf5565b604435906001600160a01b038216809203610e97577ff0c57e16840df040f15088dc2f81fe391c3923bec73e23a9662efc9c229c6a00549260ff8460401c16159367ffffffffffffffff811680159081610e8f575b6001149081610e85575b159081610e7c575b50610e54576001600160a01b039291818660017fffffffffffffffffffffffffffffffffffffffffffffffff0000000000000000610ce49516177ff0c57e16840df040f15088dc2f81fe391c3923bec73e23a9662efc9c229c6a0055610dff575b50610cd3613fc5565b610cdb613fc5565b6100dc336135f0565b168073ffffffffffffffffffffffffffffffffffffffff198554161784558352600460205260408320600160ff198254161790558073ffffffffffffffffffffffffffffffffffffffff1960015416176001558252600460205260408220600160ff19825416179055308252600460205260408220600160ff19825416179055610d6b5780f35b7fffffffffffffffffffffffffffffffffffffffffffffff00ffffffffffffffff7ff0c57e16840df040f15088dc2f81fe391c3923bec73e23a9662efc9c229c6a0054167ff0c57e16840df040f15088dc2f81fe391c3923bec73e23a9662efc9c229c6a00557fc7f505b2f371ae2175ee4913f4499e1f2633a7b5936321eed1cdaeb6115181d2602060405160018152a180f35b7fffffffffffffffffffffffffffffffffffffffffffffff0000000000000000001668010000000000000001177ff0c57e16840df040f15088dc2f81fe391c3923bec73e23a9662efc9c229c6a005538610cca565b6004867ff92ee8a9000000000000000000000000000000000000000000000000000000008152fd5b90501538610c69565b303b159150610c61565b869150610c57565b8380fd5b50346100ec5760606003193601126100ec5760043567ffffffffffffffff811161059a57610ecd903690600401611d06565b9060243567ffffffffffffffff811161059a57610eee903690600401611c87565b9060443567ffffffffffffffff811161059a57610f0f903690600401611d06565b903381526004602052610f2860ff604083205416611dbf565b80915b84518310156110d6576024610f4084876135a5565b5191836001600160a01b0360025416604051938480927f0c3fc6b90000000000000000000000000000000000000000000000000000000082528760048301525afa9182156110cb5784926110a7575b5060808201610fad8151602085015190610fa882611e0a565b6136bc565b610fc06001600160a01b03845116613739565b8496855b815181101561109857610fd781836135a5565b5160405161100660208281610ff58183019687815193849201611e14565b81010301601f198101835282611b59565b519020835160405161102860208281610ff58183019687815193849201611e14565b5190201461103857600101610fc4565b61104c9198508360019694989593506135a5565b51905b8115611090576110826001600160a01b039261108994338952600460205261107d60ff60408b205416611dbf565b6120e5565b51166137a4565b0191610f2b565b505050611089565b5096905060019391959261104f565b6110c49192503d8086833e6110bc8183611b59565b810190611ec4565b9038610f8f565b6040513d86823e3d90fd5b5080f35b50346100ec576111126110ec36611d63565b949395908092338952600460205261110a60ff60408b205416611dbf565b848887613b66565b9060019061111f85613d38565b96602088019788519760608601988951116105dc578a9961115883519a61114c60408a019c8d5190611e5c565b85528251905190611e5c565b9052604082019182519261117260208901948551906120d8565b905260001982036112ad575b6111889089613e1c565b6001600160a01b03600254169386519160a08b519451980151863b15610881578c9889958c956040519c8d9b8c9a8b997f530e011e000000000000000000000000000000000000000000000000000000008b526001600160a01b031660048b015260248a0161014090526101448a0161120091611e37565b9761120a81611e0a565b60448a01526064890161121c916135cf565b608488015260a487015260c486015260e485015261010484015261012483015203925af19081156110cb578491611298575b50506001600160a01b03600154169151823b1561031f5760405163d1937e3d60e01b81526001600160a01b0390921660048301526024820152908290829081838160448101610a32565b816112a291611b59565b61032157823861124e565b6002955061117e565b50346100ec57806003193601126100ec5760206001600160a01b037f9016d09d72d40fdae2fd8ceac6b6234c7706214fd39c1cd1e609a0528c1993005416604051908152f35b50346100ec5760806003193601126100ec57611316611bdf565b9060443567ffffffffffffffff811161059a57611337903690600401611c87565b9160643567ffffffffffffffff811161059e57611358903690600401611d06565b92338352600460205261137160ff604085205416611dbf565b602435916001600160a01b038491165b82518210156114ce5784935b60ff851660028110156114c1576001600160a01b03600254169060016113b386886135a5565b51910160ff81116114ad5791611423898b936113de8960ff60409816966113d988611e0a565b6135a5565b51948651978896879586947f9324b5490000000000000000000000000000000000000000000000000000000086528c600487015260a0602487015260a4860190611e37565b9261142d81611e0a565b60448501526064840152608483015203925af19081156114a257869161145d575b50600160ff919501169361138d565b90506040813d821161149a575b8161147760409383611b59565b81010312610bdc57600181611492602060ff945192016120cb565b50915061144e565b3d915061146a565b6040513d88823e3d90fd5b602489634e487b7160e01b81526011600452fd5b5093509060010190611381565b602084604051908152f35b50346100ec57806003193601126100ec576114f2613b05565b806001600160a01b037f9016d09d72d40fdae2fd8ceac6b6234c7706214fd39c1cd1e609a0528c1993005473ffffffffffffffffffffffffffffffffffffffff1981167f9016d09d72d40fdae2fd8ceac6b6234c7706214fd39c1cd1e609a0528c19930055167f8be0079c531659141344cd1fd0a4f28419497f9722a3daafe3b4186f6b6457e08280a380f35b50346100ec5760406003193601126100ec576001600160a01b036115a1611bdf565b816115aa611bf5565b916115b3613b05565b16808452600460205260408420600160ff19825416179055808452600460205260408420600160ff1982541617905573ffffffffffffffffffffffffffffffffffffffff1960025416176002551673ffffffffffffffffffffffffffffffffffffffff19600354161760035580f35b50346100ec5760406003193601126100ec57338152600460205261164c60ff604083205416611dbf565b6100e96024356004356120e5565b5061166436611c0b565b909695929491338952600460205261168260ff60408b205416611dbf565b61168c86886136bc565b604051610100810181811067ffffffffffffffff821117611adb5760405289815260208101908a82528a60408201526060808201528a60808201528a60a08201528a60c08201528a60e08201526001600160a01b03600254166116ee89611e0a565b60ff600019818b160111611ac75761175860808b8e936001600160a01b038f8e60ff60001981604051998a98899788977f0c8c3516000000000000000000000000000000000000000000000000000000008952166004880152606060248801526064870190611e37565b93160116604483015203915afa9283156102545782918394611a82575b5082611788958560408401525252611e5c565b8411611a3e57889261179989613739565b61196b575050611800906080949533825260046020526117bf60ff604084205416611dbf565b6001600160a01b0360035416936040519788968795869463cd3fd61760e01b86526001600160a01b038d16600487015260c0602487015260c4860190611e37565b926044850152606484015261181481611e0a565b608483015260001960a483015203925af19081156105b757839161190c575b5061183d82613d38565b602081019061184f82518451906120d8565b9061187b61186360408601938451906120d8565b928760608701519561099760208901978851906120d8565b91808310610a5557869461189386926118b095611e5c565b8352604083018051915190918181116118fa575050525b84613e1c565b6001600160a01b0360015416905190803b1561059e5760405163d1937e3d60e01b81526001600160a01b03851660048201526024810192909252829082908183816044810161056b565b611905929350611e5c565b90526118aa565b90506080813d608011611963575b8161192760809383611b59565b8101031261059e5760606040519161193e83611aef565b8051835260208101516020840152604081015160408401520151606082015238611833565b3d915061191a565b91509193926001600160a01b036002541694853b15611a3a576119b76040519763bfffc8bb60e01b89526001600160a01b038a1660048a015261018060248a0152610184890190611e37565b946119c181611e0a565b604488015293889593879593869493859460026064870152608486015260a48501528760c48501528760e48501528761010485015261012484015286610144840152610164830152039134905af180156105b757611a24575b506100e9906137a4565b91611a33816100e99394611b59565b9190611a1a565b8880fd5b606460405162461bcd60e51b815260206004820152601660248201527f636c6f736520616d6f756e7420746f6f206c61726765000000000000000000006044820152fd5b9493509150506080833d608011611abf575b81611aa160809383611b59565b81010312610899578251602084015160609094015192939182611775565b3d9150611a94565b60248c634e487b7160e01b81526011600452fd5b60248b634e487b7160e01b81526041600452fd5b6080810190811067ffffffffffffffff821117611b0b57604052565b634e487b7160e01b600052604160045260246000fd5b60e0810190811067ffffffffffffffff821117611b0b57604052565b60a0810190811067ffffffffffffffff821117611b0b57604052565b90601f601f19910116810190811067ffffffffffffffff821117611b0b57604052565b67ffffffffffffffff8111611b0b57601f01601f191660200190565b81601f8201121561001557803590611baf82611b7c565b92611bbd6040519485611b59565b8284526020838301011161001557816000926020809301838601378301015290565b600435906001600160a01b038216820361001557565b602435906001600160a01b038216820361001557565b610100600319820112610015576004359067ffffffffffffffff821161001557611c3791600401611b98565b906024359060443590606435906084356003811015610015579060a4359060c4356001600160a01b0381168103610015579060e43590565b67ffffffffffffffff8111611b0b5760051b60200190565b9080601f83011215610015578135611c9e81611c6f565b92611cac6040519485611b59565b81845260208085019260051b820101918383116100155760208201905b838210611cd857505050505090565b813567ffffffffffffffff811161001557602091611cfb87848094880101611b98565b815201910190611cc9565b9080601f83011215610015578135611d1d81611c6f565b92611d2b6040519485611b59565b81845260208085019260051b82010192831161001557602001905b828210611d535750505090565b8135815260209182019101611d46565b9060c0600319830112610015576004356001600160a01b038116810361001557916024359067ffffffffffffffff821161001557611da391600401611b98565b9060443590606435906084356003811015610015579060a43590565b15611dc657565b606460405162461bcd60e51b815260206004820152601c60248201527f63616c6c6572206973206e6f742073746174696f6e206b6565706572000000006044820152fd5b600311156105c257565b60005b838110611e275750506000910152565b8181015183820152602001611e17565b90601f19601f602093611e5581518092818752878088019101611e14565b0116010190565b91908203918211611e6957565b634e487b7160e01b600052601160045260246000fd5b81601f82011215610015578051611e9581611b7c565b92611ea36040519485611b59565b8184526020828401011161001557611ec19160208085019101611e14565b90565b6020818303126100155780519067ffffffffffffffff8211610015570190610160828203126100155760405191610160830183811067ffffffffffffffff821117611b0b5760405280516001600160a01b0381168103610015578352602081015160038110156100155760208401526040810151600781101561001557604084015260608101516003811015610015576060840152608081015167ffffffffffffffff81116100155761014092611f7c918301611e7f565b608084015260a081015160a084015260c081015160c084015260e081015160e0840152610100810151610100840152610120810151610120840152015161014082015290565b60009060033d11611fcf57565b905060046000803e60005160e01c90565b600060443d10611ec1576040516003193d016004823e8051913d602484011167ffffffffffffffff84111761204f578282019283519167ffffffffffffffff8311612047576003193d850101602084870101116120475750611ec192910160200190611b59565b949350505050565b92915050565b3d15612080573d9061206682611b7c565b916120746040519384611b59565b82523d6000602084013e565b606090565b92969594916120ae906001600160a01b0360a0969316855260c0602086015260c0850190611e37565b96604084015260608301526120c281611e0a565b60808201520152565b5190811515820361001557565b91908201809211611e6957565b906002546001600160a01b0360009116604051927f0c3fc6b90000000000000000000000000000000000000000000000000000000084528460048501528284602481855afa9384156105b7578394613589575b506040519060c0820182811067ffffffffffffffff82111761357557604052838252602082019284845260408301938585526060840191868352608085019287845260a086019188835260c08b6024604051809481937fee32aa2f00000000000000000000000000000000000000000000000000000000835260048301525afa801561356a5789908a908b908c80918190613516575b600196508852895285528a52855280885214806134f6575b612dc7575050604460206001600160a01b0360035416604051928380927f7a549fa20000000000000000000000000000000000000000000000000000000082528d60048301528860248301525afa908115612dbc578791612d82575b50612252575b5050505050505050565b6001845114612706575060c08601918252606086016001815161227481611e0a565b61227d81611e0a565b0361254c57506122d66001600160a01b0387511660e0880151906122af6101008a01516122a983613d38565b936120d8565b602083016122be8282516120d8565b90526122cf60608401918251611e5c565b9052613e1c565b6001600160a01b0386511693608087019283519060a0890191825191519760208b019889519061230582611e0a565b303b15610899579161234a8e8d9593869560405198899687967fad4a8e3b00000000000000000000000000000000000000000000000000000000885260048801612085565b038183305af19182612537575b50506124775750505050505060019061236e611fc2565b6308c379a0146123fa575b5061238f575b50505b3880808080808080612248565b7f4c94adf18d8bfad12d476c7b93150b992bfa3fb9a83d713dd8a97359b7413f82916123cd6001600160a01b036123c4612055565b93511682613f53565b6123f0604051928392600584526020840152606060408401526060830190611e37565b0390a1388061237f565b612402611fe0565b908161240f575b50612379565b7f356c1ed0403936d05af0abea05fbda16720ce964f55d7010cee1ba6cd8e1f60a91925061246d909261244c6001600160a01b0386511687613f53565b60405191829160058352876020840152606060408401526060830190611e37565b0390a13880612409565b61012088969a99979598019960028b519951146124a3575b505050505050506124a1929350613a9f565b565b82511580159061252d575b1561248f57909192939495976124d16001600160a01b039160011c809c51611e5c565b98511694519051916124e283611e0a565b5192519351946312cc03004201968742116125195750916124a1999a95939161250c9795936138c6565b839238808080808061248f565b80634e487b7160e01b602492526011600452fd5b50835115156124ae565b8161254191611b59565b61025f578738612357565b91935050600291505161255e81611e0a565b61256781611e0a565b14612576575b50505050612382565b6001600160a01b0383511660808401519060a0850151925160208601519061259d82611e0a565b303b15610bdc57916125c9888795938695604051988996879663cd3fd61760e01b885260048801612085565b038183305af191826126f1575b50506126e2576001906125e7611fc2565b6308c379a014612665575b50612603575b50503880808061256d565b7f4c94adf18d8bfad12d476c7b93150b992bfa3fb9a83d713dd8a97359b7413f82916126386001600160a01b036123c4612055565b61265b604051928392600684526020840152606060408401526060830190611e37565b0390a138806125f8565b61266d611fe0565b908161267a575b506125f2565b7f356c1ed0403936d05af0abea05fbda16720ce964f55d7010cee1ba6cd8e1f60a9192506126d890926126b76001600160a01b0386511687613f53565b60405191829160068352876020840152606060408401526060830190611e37565b0390a13880612674565b5061012001516124a191613a9f565b816126fb91611b59565b61059a5781386125d6565b959397969492506001600160a01b0384511697608085019261273b8785519b602089019c8d519161273683611e0a565b613981565b6101208601998a51986001606089015161275481611e0a565b61275d81611e0a565b14612776575b50505050505050506124a1929350613a9f565b80518015908115612d74575b508015612d4b575b8015612d22575b156129e057508160c08801526001600160a01b0387511691855160a08901938451928451906127bf82611e0a565b303b156105d857916128048d8c9593869560405198899687967fad4a8e3b00000000000000000000000000000000000000000000000000000000885260048801612085565b038183305af191826129cb575b50506129365750505050506124a194955060019061282d611fc2565b6308c379a0146128b9575b5061284e575b505b839238808080808080612763565b6128b07f4c94adf18d8bfad12d476c7b93150b992bfa3fb9a83d713dd8a97359b7413f829161288f6001600160a01b03612886612055565b92511685613f53565b60405191829160038352856020840152606060408401526060830190611e37565b0390a13861283e565b6128c1611fe0565b90816128ce575b50612838565b7f356c1ed0403936d05af0abea05fbda16720ce964f55d7010cee1ba6cd8e1f60a91925061292c909261290b6001600160a01b0386511687613f53565b60405191829160038352876020840152606060408401526060830190611e37565b0390a138806128c8565b909192939495975061294e8a5160011c809b51611e5c565b978351158015906129c1575b612971575b505050505050506124a1929350612840565b6001600160a01b03905116945190519161298a83611e0a565b5192519351946312cc03004201968742116125195750916124a1999a9593916129b49795936138c6565b839238808080808061295f565b508451151561295a565b816129d591611b59565b61031b578638612811565b93959a5090508991936001600160a01b0387511690519060a08801519451925194612a0a86611e0a565b610140890151303b15610bdc57612a5e96869560405198899687967fc3eea559000000000000000000000000000000000000000000000000000000008852600488015260e0602488015260e4870190611e37565b9360448601526064850152612a7281611e0a565b608484015260a48301528a60c4830152038183305af19182612d0d575b5050612b9d5750506124a19394600190612aa7611fc2565b6308c379a014612b20575b50612abe575b50612840565b612b177f4c94adf18d8bfad12d476c7b93150b992bfa3fb9a83d713dd8a97359b7413f8291612af66001600160a01b03612886612055565b60405191829160048352856020840152606060408401526060830190611e37565b0390a138612ab8565b612b28611fe0565b9081612b35575b50612ab2565b7f356c1ed0403936d05af0abea05fbda16720ce964f55d7010cee1ba6cd8e1f60a919250612b939092612b726001600160a01b0386511687613f53565b60405191829160048352876020840152606060408401526060830190611e37565b0390a13880612b2f565b915092508492815115801590612d03575b612bc0575b50506124a1929350612840565b6001600160a01b0360025416604051927f49138690000000000000000000000000000000000000000000000000000000008452602084600481855afa938415612cf8578894612cc4575b506000198401938411612cb0579087929151915193813b15610e97578360e49260405196879586947fbe63309e000000000000000000000000000000000000000000000000000000008652600486015260026024860152836044860152606485015282608485015260a48401528160c48401525af18015612ca557612c90575b80612bb3565b612c9b858092611b59565b610e975783612c8a565b6040513d87823e3d90fd5b602488634e487b7160e01b81526011600452fd5b9093506020813d602011612cf0575b81612ce060209383611b59565b8101031261001557519238612c0a565b3d9150612cd3565b6040513d8a823e3d90fd5b5080511515612bae565b81612d1791611b59565b61025f578738612a8f565b5060028251612d3081611e0a565b612d3981611e0a565b14801561279157508051831015612791565b5060018251612d5981611e0a565b612d6281611e0a565b14801561278a5750805183111561278a565b905060c08901511438612782565b90506020813d602011612db4575b81612d9d60209383611b59565b8101031261031b57612dae906120cb565b38612242565b3d9150612d90565b6040513d89823e3d90fd5b939150969480929450989795985115806134ed575b80156134df575b8015613480575b6133db57809689948351151580613370575b156132475750508251801592831561323c575b50508115613209575b81156131d3575b50156131ca5750506001925b856001600160a01b038351169160808401612e5486825195602088019687519161273683611e0a565b610120850180519715612fe257506001600160a01b0385511690519160a0860151945190612e8182611e0a565b303b15612fde57612ea9918891604051978896879663cd3fd61760e01b885260048801612085565b038183305af19081612fc9575b5093946124a194612fc257600190612ecc611fc2565b6308c379a014612f45575b50612ee3575b50613a9f565b612f3c7f4c94adf18d8bfad12d476c7b93150b992bfa3fb9a83d713dd8a97359b7413f8291612f1b6001600160a01b03612886612055565b60405191829160018352856020840152606060408401526060830190611e37565b0390a138612edd565b612f4d611fe0565b9081612f5a575b50612ed7565b7f356c1ed0403936d05af0abea05fbda16720ce964f55d7010cee1ba6cd8e1f60a919250612fb89092612f976001600160a01b0386511687613f53565b60405191829160018352876020840152606060408401526060830190611e37565b0390a13880612f54565b5050613a9f565b612fd4878092611b59565b610bdc5738612eb6565b8480fd5b91909396612ff59060011c809351611e5c565b966001600160a01b0360025416916001600160a01b03875116955191519561301c87611e0a565b60a08801519661014089015195853b1561025f576130629688946040519a8b998a98899763bfffc8bb60e01b895260048901526101806024890152610184880190611e37565b9461306c81611e0a565b604487015260026064870152608486015260a48501528460c48501528460e4850152846101048501526101248401528361014484015261016483015203925af190816131b5575b5093946124a194612fc2576001906130c9611fc2565b6308c379a014613138575b506130df5750613a9f565b612f3c7f4c94adf18d8bfad12d476c7b93150b992bfa3fb9a83d713dd8a97359b7413f82916131176001600160a01b03612886612055565b60405191829160028352856020840152606060408401526060830190611e37565b613140611fe0565b908161314d575b506130d4565b7f356c1ed0403936d05af0abea05fbda16720ce964f55d7010cee1ba6cd8e1f60a9192506131ab909261318a6001600160a01b0386511687613f53565b60405191829160028352876020840152606060408401526060830190611e37565b0390a13880613147565b6131c0878092611b59565b610bdc57386130b3565b90935051612e2b565b9050600260208501516131e581611e0a565b6131ee81611e0a565b1490816131fd575b5038612e1f565b905081511015386131f6565b90506001602085015161321b81611e0a565b61322481611e0a565b1480613231575b90612e18565b50808251111561322b565b511491503880612e0f565b925092508151151580613305575b156132fa57825180159283156132ef575b505081156132bc575b8115613286575b50156131ca575050600192612e2b565b90506002602085015161329881611e0a565b6132a181611e0a565b1490816132b0575b5038613276565b905081511015386132a9565b9050600160208501516132ce81611e0a565b6132d781611e0a565b14806132e4575b9061326f565b5080825111156132de565b511491503880613266565b505050505050509050565b50602085016001815161331781611e0a565b61332081611e0a565b149081613364575b8115613335575b50613255565b600291505161334381611e0a565b61334c81611e0a565b1480613359575b3861332f565b508151811015613353565b83518311159150613328565b50602087016001815161338281611e0a565b61338b81611e0a565b1490816133cf575b81156133a0575b50612dfc565b60029150516133ae81611e0a565b6133b781611e0a565b14806133c4575b3861339a565b5083518311156133be565b85518510159150613393565b5050505081925061340b610120926001600160a01b03839796975116608084015160208501519161273683611e0a565b01516001600160a01b036002541691823b15610e975790606484928360405195869485937fac89c79800000000000000000000000000000000000000000000000000000000855260048501526006602485015260448401525af1801561025457613473575050565b8161347d91611b59565b50565b5060408501805160078110156134cb576001141590816134a1575b50612dea565b90505160078110156134b757600214153861349b565b60248a634e487b7160e01b81526021600452fd5b60248b634e487b7160e01b81526021600452fd5b506101408501514211612de3565b50835115612ddc565b50600260608a015161350781611e0a565b61351081611e0a565b146121e6565b50505050505060c0813d60c011613562575b8161353560c09383611b59565b81010312611a3a578051602082015160408301516060840151608085015160a090950151600195906121ce565b3d9150613528565b6040513d8b823e3d90fd5b602485634e487b7160e01b81526041600452fd5b61359e9194503d8085833e6110bc8183611b59565b9238612138565b80518210156135b95760209160051b010190565b634e487b7160e01b600052603260045260246000fd5b9060088210156105c25752565b51906001600160a01b038216820361001557565b6001600160a01b0316801561368d576001600160a01b037f9016d09d72d40fdae2fd8ceac6b6234c7706214fd39c1cd1e609a0528c199300548273ffffffffffffffffffffffffffffffffffffffff198216177f9016d09d72d40fdae2fd8ceac6b6234c7706214fd39c1cd1e609a0528c19930055167f8be0079c531659141344cd1fd0a4f28419497f9722a3daafe3b4186f6b6457e0600080a3565b7f1e4fbdf700000000000000000000000000000000000000000000000000000000600052600060045260246000fd5b90600354916001600160a01b036000931690813b15610e97578391613718916040518095819482937fd0e3d0dc000000000000000000000000000000000000000000000000000000008452604060048501526044840190611e37565b9061372281611e0a565b602483015203915afa801561025457613473575050565b6000906001600160a01b036001541690813b1561059e576001600160a01b03604484928360405195869485937f9048f2e00000000000000000000000000000000000000000000000000000000085521660048401528160248401525af1801561025457613473575050565b600154906001600160a01b036000921690813b1561059e576001600160a01b03604484928360405195869485937f9048f2e0000000000000000000000000000000000000000000000000000000008552166004840152600a60248401525af1801561025457613473575050565b9692979395919490956000986001600160a01b036002541697883b156105d857613864906001600160a01b036040519b63bfffc8bb60e01b8d521660048c015261018060248c01526101848b0190611e37565b9661386e81611e0a565b60448a0152600160648a0152608489015260a488015260c487015260e4860187905261010486015261012485015261014484018590526101648401528391839182900390829034905af1801561025457613473575050565b9591939692969490946000976001600160a01b036002541696873b1561397d57613919906001600160a01b036040519a63bfffc8bb60e01b8c521660048b015261018060248b01526101848a0190611e37565b9561392381611e0a565b604489015260026064890152608488015260a487015260c4860187905260e4860152610104850186905261012485015260016101448501526101648401528391839182900390829034905af1801561025457613473575050565b8980fd5b6000939260206001600160a01b03600254166004604051809881937fb99ac9270000000000000000000000000000000000000000000000000000000083525af1948515613a9357600095613a5f575b506139e8604051936101408552610140850190611e37565b9460208401526139f781611e0a565b60408301526001600160a01b0382917f878cac0b879164d8647426da983e248a51ef8192a43e4d3bb5b586ca2017ed54946006606085015260006080850152600060a0850152600060c0850152600060e08501526101008401524261012084015216930390a2565b9094506020813d602011613a8b575b81613a7b60209383611b59565b81010312610015575193386139d0565b3d9150613a6e565b6040513d6000823e3d90fd5b6001600160a01b036002541691823b1561001557604051917fac89c79800000000000000000000000000000000000000000000000000000000835260048301526003602483015260448201525a81606481600080968195f1801561025457613473575050565b6001600160a01b037f9016d09d72d40fdae2fd8ceac6b6234c7706214fd39c1cd1e609a0528c19930054163303613b3857565b7f118cdaa7000000000000000000000000000000000000000000000000000000006000523360045260246000fd5b600060c0604051613b7681611b21565b8281528260208201528260408201528260608201528260808201528260a082015201526001600160a01b0360015416916001600160a01b03604051927fe1fb28b80000000000000000000000000000000000000000000000000000000084521660048301526040602483015260208280613bf36044820185611e37565b0381865afa918215613a9357600092613cfd575b509360a492916001600160a01b03613c2060e097613eb1565b169160405197889687957fad74dc7f00000000000000000000000000000000000000000000000000000000875260048701526024860152613c6081611e0a565b6044850152606484015260848301525afa908115613a9357600091613c83575090565b905060e0813d60e011613cf5575b81613c9e60e09383611b59565b810103126100155760c060405191613cb583611b21565b805183526020810151602084015260408101516040840152606081015160608401526080810151608084015260a081015160a0840152015160c082015290565b3d9150613c91565b929150936020833d602011613d30575b81613d1a60209383611b59565b81010312610015579151919390919060e0613c07565b3d9150613d0d565b60006080604051613d4881611b3d565b828152826020820152826040820152826060820152015260a06001600160a01b03602481600154169360405194859384927ffb47e0160000000000000000000000000000000000000000000000000000000084521660048301525afa908115613a9357600091613db6575090565b905060a0813d60a011613e14575b81613dd160a09383611b59565b8101031261001557608060405191613de883611b3d565b805183526020810151602084015260408101516040840152606081015160608401520151608082015290565b3d9150613dc4565b90600154916001600160a01b0360009316803b15610e975760c48492836001600160a01b0393608060405197889687957fc9f35c3900000000000000000000000000000000000000000000000000000000875216600486015280516024860152602081015160448601526040810151606486015260608101516084860152015160a48401525af1801561025457613473575050565b6020613efe916001600160a01b036001541660405180809581947f05ca57cf0000000000000000000000000000000000000000000000000000000083528660048401526024830190611e37565b03915afa908115613a9357600091613f14575090565b6020813d602011613f4b575b81613f2d60209383611b59565b8101031261059a5751906001600160a01b03821682036100ec575090565b3d9150613f20565b906000916001600160a01b0360035416803b15610e97579160648492836001600160a01b039560405196879586947fc2b3356400000000000000000000000000000000000000000000000000000000865260048601521660248401528160448401525af1801561025457613473575050565b60ff7ff0c57e16840df040f15088dc2f81fe391c3923bec73e23a9662efc9c229c6a005460401c1615613ff457565b7fd7e6bcf80000000000000000000000000000000000000000000000000000000060005260046000fdfea2646970667358221220ec8ba032c16e5afd20418fe622b4c9b0e997894f451a099c34d48e9abc8d93e164736f6c634300081c0033",
  "linkReferences": {},
  "deployedLinkReferences": {}
}