{
  "_format": "hh-sol-artifact-1",
  "contractName": "TradeAgent",
  "sourceName": "contracts/TradeAgent.sol",
  "abi": [
    {
      "inputs": [],
      "name": "InvalidInitialization",
      "type": "error"
    },
    {
      "inputs": [],
      "name": "NotInitializing",
      "type": "error"
    },
    {
      "inputs": [
        {
          "internalType": "address",
          "name": "owner",
          "type": "address"
        }
      ],
      "name": "OwnableInvalidOwner",
      "type": "error"
    },
    {
      "inputs": [
        {
          "internalType": "address",
          "name": "account",
          "type": "address"
        }
      ],
      "name": "OwnableUnauthorizedAccount",
      "type": "error"
    },
    {
      "anonymous": false,
      "inputs": [
        {
          "indexed": false,
          "internalType": "address",
          "name": "taker",
          "type": "address"
        },
        {
          "indexed": false,
          "internalType": "uint256",
          "name": "amount",
          "type": "uint256"
        },
        {
          "indexed": false,
          "internalType": "uint256",
          "name": "availableAmount",
          "type": "uint256"
        },
        {
          "indexed": false,
          "internalType": "uint256",
          "name": "marginAmount",
          "type": "uint256"
        },
        {
          "indexed": false,
          "internalType": "uint256",
          "name": "locked",
          "type": "uint256"
        },
        {
          "indexed": false,
          "internalType": "uint256",
          "name": "stage",
          "type": "uint256"
        },
        {
          "indexed": false,
          "internalType": "uint256",
          "name": "dif",
          "type": "uint256"
        }
      ],
      "name": "BalanceOfTaker",
      "type": "event"
    },
    {
      "anonymous": false,
      "inputs": [
        {
          "indexed": false,
          "internalType": "string",
          "name": "name",
          "type": "string"
        },
        {
          "indexed": true,
          "internalType": "address",
          "name": "taker",
          "type": "address"
        },
        {
          "indexed": false,
          "internalType": "uint256",
          "name": "orderID",
          "type": "uint256"
        },
        {
          "indexed": false,
          "internalType": "enum ICommon.Direct",
          "name": "orderType",
          "type": "uint8"
        },
        {
          "indexed": false,
          "internalType": "enum IPerpetual.OrderState",
          "name": "state",
          "type": "uint8"
        },
        {
          "indexed": false,
          "internalType": "enum ICommon.Offset",
          "name": "offset",
          "type": "uint8"
        },
        {
          "indexed": false,
          "internalType": "uint256",
          "name": "amount",
          "type": "uint256"
        },
        {
          "indexed": false,
          "internalType": "uint256",
          "name": "targetPrice",
          "type": "uint256"
        },
        {
          "indexed": false,
          "internalType": "uint256",
          "name": "margin",
          "type": "uint256"
        },
        {
          "indexed": false,
          "internalType": "uint256",
          "name": "rewardGas",
          "type": "uint256"
        },
        {
          "indexed": false,
          "internalType": "uint256",
          "name": "tradingFee",
          "type": "uint256"
        },
        {
          "indexed": false,
          "internalType": "uint256",
          "name": "goodTill",
          "type": "uint256"
        }
      ],
      "name": "CreateLimitedOrder",
      "type": "event"
    },
    {
      "anonymous": false,
      "inputs": [
        {
          "indexed": false,
          "internalType": "uint256",
          "name": "limitOrderID",
          "type": "uint256"
        },
        {
          "indexed": false,
          "internalType": "uint256",
          "name": "openLimitPrice",
          "type": "uint256"
        },
        {
          "indexed": false,
          "internalType": "uint256",
          "name": "gainTriggerPrice",
          "type": "uint256"
        },
        {
          "indexed": false,
          "internalType": "uint256",
          "name": "gainLimitPrice",
          "type": "uint256"
        },
        {
          "indexed": false,
          "internalType": "uint256",
          "name": "lossTriggerPrice",
          "type": "uint256"
        },
        {
          "indexed": false,
          "internalType": "uint256",
          "name": "lossLimitPrice",
          "type": "uint256"
        }
      ],
      "name": "CreateTriggerCondition",
      "type": "event"
    },
    {
      "anonymous": false,
      "inputs": [
        {
          "indexed": false,
          "internalType": "uint256",
          "name": "code",
          "type": "uint256"
        },
        {
          "indexed": false,
          "internalType": "uint256",
          "name": "orderID",
          "type": "uint256"
        },
        {
          "indexed": false,
          "internalType": "string",
          "name": "message",
          "type": "string"
        }
      ],
      "name": "ErrorInfo",
      "type": "event"
    },
    {
      "anonymous": false,
      "inputs": [
        {
          "indexed": false,
          "internalType": "uint256",
          "name": "code",
          "type": "uint256"
        },
        {
          "indexed": false,
          "internalType": "uint256",
          "name": "orderID",
          "type": "uint256"
        },
        {
          "indexed": false,
          "internalType": "bytes",
          "name": "message",
          "type": "bytes"
        }
      ],
      "name": "ExceptErrorInfo",
      "type": "event"
    },
    {
      "anonymous": false,
      "inputs": [
        {
          "indexed": false,
          "internalType": "uint64",
          "name": "version",
          "type": "uint64"
        }
      ],
      "name": "Initialized",
      "type": "event"
    },
    {
      "anonymous": false,
      "inputs": [
        {
          "indexed": true,
          "internalType": "address",
          "name": "taker",
          "type": "address"
        },
        {
          "indexed": false,
          "internalType": "string",
          "name": "name",
          "type": "string"
        },
        {
          "indexed": false,
          "internalType": "uint256",
          "name": "orderID",
          "type": "uint256"
        },
        {
          "indexed": false,
          "internalType": "enum ICommon.Direct",
          "name": "direction",
          "type": "uint8"
        },
        {
          "indexed": false,
          "internalType": "enum IPerpetual.OrderType",
          "name": "orderType",
          "type": "uint8"
        },
        {
          "indexed": false,
          "internalType": "uint256",
          "name": "amount",
          "type": "uint256"
        },
        {
          "indexed": false,
          "internalType": "uint256",
          "name": "costPrice",
          "type": "uint256"
        },
        {
          "indexed": false,
          "internalType": "uint256",
          "name": "price",
          "type": "uint256"
        },
        {
          "indexed": false,
          "internalType": "uint256",
          "name": "tradingFee",
          "type": "uint256"
        },
        {
          "indexed": false,
          "internalType": "uint256",
          "name": "limitOrderId",
          "type": "uint256"
        },
        {
          "indexed": false,
          "internalType": "uint256",
          "name": "timestamp",
          "type": "uint256"
        }
      ],
      "name": "OrderHistory",
      "type": "event"
    },
    {
      "anonymous": false,
      "inputs": [
        {
          "indexed": true,
          "internalType": "address",
          "name": "previousOwner",
          "type": "address"
        },
        {
          "indexed": true,
          "internalType": "address",
          "name": "newOwner",
          "type": "address"
        }
      ],
      "name": "OwnershipTransferred",
      "type": "event"
    },
    {
      "anonymous": false,
      "inputs": [
        {
          "indexed": false,
          "internalType": "uint256",
          "name": "orderID",
          "type": "uint256"
        },
        {
          "indexed": false,
          "internalType": "uint256",
          "name": "dealID",
          "type": "uint256"
        },
        {
          "indexed": false,
          "internalType": "enum IPerpetual.TradeType",
          "name": "tradeType",
          "type": "uint8"
        },
        {
          "indexed": false,
          "internalType": "uint256",
          "name": "amount",
          "type": "uint256"
        },
        {
          "indexed": false,
          "internalType": "uint256",
          "name": "price",
          "type": "uint256"
        },
        {
          "indexed": false,
          "internalType": "uint256",
          "name": "tradingFee",
          "type": "uint256"
        },
        {
          "indexed": false,
          "internalType": "uint256",
          "name": "profit",
          "type": "uint256"
        },
        {
          "indexed": false,
          "internalType": "uint256",
          "name": "loss",
          "type": "uint256"
        },
        {
          "indexed": false,
          "internalType": "uint256",
          "name": "timestamp",
          "type": "uint256"
        }
      ],
      "name": "TradeHistory",
      "type": "event"
    },
    {
      "anonymous": false,
      "inputs": [
        {
          "indexed": true,
          "internalType": "address",
          "name": "taker",
          "type": "address"
        },
        {
          "indexed": false,
          "internalType": "enum ICommon.TransactionType",
          "name": "transactionType",
          "type": "uint8"
        },
        {
          "indexed": false,
          "internalType": "uint256",
          "name": "amount",
          "type": "uint256"
        },
        {
          "indexed": false,
          "internalType": "uint256",
          "name": "timestamp",
          "type": "uint256"
        }
      ],
      "name": "TransactionHistory",
      "type": "event"
    },
    {
      "anonymous": false,
      "inputs": [
        {
          "indexed": false,
          "internalType": "address",
          "name": "sender",
          "type": "address"
        },
        {
          "indexed": false,
          "internalType": "address",
          "name": "received",
          "type": "address"
        },
        {
          "indexed": false,
          "internalType": "enum ICommon.TransactionType",
          "name": "transactionType",
          "type": "uint8"
        },
        {
          "indexed": false,
          "internalType": "uint256",
          "name": "amount",
          "type": "uint256"
        },
        {
          "indexed": false,
          "internalType": "uint256",
          "name": "timestamp",
          "type": "uint256"
        }
      ],
      "name": "TransferFee",
      "type": "event"
    },
    {
      "anonymous": false,
      "inputs": [
        {
          "indexed": false,
          "internalType": "address",
          "name": "sender",
          "type": "address"
        },
        {
          "indexed": false,
          "internalType": "uint256",
          "name": "beforeLeverage",
          "type": "uint256"
        },
        {
          "indexed": false,
          "internalType": "uint256",
          "name": "afterLeverage",
          "type": "uint256"
        }
      ],
      "name": "setLeverage",
      "type": "event"
    },
    {
      "stateMutability": "nonpayable",
      "type": "fallback"
    },
    {
      "inputs": [
        {
          "internalType": "enum ICommon.Direct",
          "name": "_type",
          "type": "uint8"
        },
        {
          "internalType": "uint256",
          "name": "_currentPrice",
          "type": "uint256"
        },
        {
          "internalType": "uint256",
          "name": "_dealPrice",
          "type": "uint256"
        },
        {
          "internalType": "uint256",
          "name": "_amount",
          "type": "uint256"
        },
        {
          "internalType": "uint256",
          "name": "_willClose",
          "type": "uint256"
        }
      ],
      "name": "calDealPNL",
      "outputs": [
        {
          "internalType": "uint256",
          "name": "profit",
          "type": "uint256"
        },
        {
          "internalType": "uint256",
          "name": "loss",
          "type": "uint256"
        }
      ],
      "stateMutability": "pure",
      "type": "function"
    },
    {
      "inputs": [
        {
          "internalType": "uint256",
          "name": "_orderID",
          "type": "uint256"
        },
        {
          "internalType": "address",
          "name": "_taker",
          "type": "address"
        },
        {
          "internalType": "bool",
          "name": "_status",
          "type": "bool"
        }
      ],
      "name": "cancelOrder",
      "outputs": [],
      "stateMutability": "nonpayable",
      "type": "function"
    },
    {
      "inputs": [
        {
          "internalType": "uint256",
          "name": "_oID",
          "type": "uint256"
        },
        {
          "internalType": "uint256",
          "name": "_price",
          "type": "uint256"
        }
      ],
      "name": "checkLimitOrder",
      "outputs": [
        {
          "internalType": "bool",
          "name": "success",
          "type": "bool"
        }
      ],
      "stateMutability": "view",
      "type": "function"
    },
    {
      "inputs": [
        {
          "internalType": "uint256[]",
          "name": "_orders",
          "type": "uint256[]"
        },
        {
          "internalType": "uint256[]",
          "name": "_prices",
          "type": "uint256[]"
        }
      ],
      "name": "checkLimitOrders",
      "outputs": [
        {
          "internalType": "bool[]",
          "name": "result",
          "type": "bool[]"
        }
      ],
      "stateMutability": "view",
      "type": "function"
    },
    {
      "inputs": [
        {
          "internalType": "uint256[]",
          "name": "_deal",
          "type": "uint256[]"
        },
        {
          "internalType": "uint256[]",
          "name": "_price",
          "type": "uint256[]"
        }
      ],
      "name": "checkMakerDealRiskStatus",
      "outputs": [
        {
          "internalType": "bool[]",
          "name": "riskStatus",
          "type": "bool[]"
        }
      ],
      "stateMutability": "view",
      "type": "function"
    },
    {
      "inputs": [
        {
          "internalType": "address",
          "name": "_taker",
          "type": "address"
        },
        {
          "internalType": "string[]",
          "name": "_symbols",
          "type": "string[]"
        },
        {
          "internalType": "uint256[]",
          "name": "_prices",
          "type": "uint256[]"
        }
      ],
      "name": "checkTakerMarginRisk",
      "outputs": [
        {
          "internalType": "bool",
          "name": "isRisk",
          "type": "bool"
        },
        {
          "internalType": "uint256",
          "name": "netLoss",
          "type": "uint256"
        },
        {
          "internalType": "uint256",
          "name": "overLoss",
          "type": "uint256"
        },
        {
          "internalType": "uint256",
          "name": "loss",
          "type": "uint256"
        }
      ],
      "stateMutability": "view",
      "type": "function"
    },
    {
      "inputs": [
        {
          "internalType": "address",
          "name": "_taker",
          "type": "address"
        },
        {
          "internalType": "string",
          "name": "_pair",
          "type": "string"
        },
        {
          "internalType": "enum ICommon.Direct",
          "name": "_type",
          "type": "uint8"
        },
        {
          "internalType": "uint256",
          "name": "_currentPrice",
          "type": "uint256"
        },
        {
          "internalType": "uint256",
          "name": "_deposit",
          "type": "uint256"
        }
      ],
      "name": "clearingTakerPosition",
      "outputs": [
        {
          "internalType": "uint256",
          "name": "remainingDeposit",
          "type": "uint256"
        },
        {
          "internalType": "bool",
          "name": "clear",
          "type": "bool"
        }
      ],
      "stateMutability": "nonpayable",
      "type": "function"
    },
    {
      "inputs": [
        {
          "internalType": "address",
          "name": "_taker",
          "type": "address"
        },
        {
          "internalType": "uint256",
          "name": "_dealID",
          "type": "uint256"
        },
        {
          "internalType": "uint256",
          "name": "_amount",
          "type": "uint256"
        },
        {
          "internalType": "enum IPerpetual.TradeType",
          "name": "_tradeType",
          "type": "uint8"
        },
        {
          "internalType": "uint256",
          "name": "_currentPrice",
          "type": "uint256"
        },
        {
          "internalType": "uint256",
          "name": "_tradeFeeRate",
          "type": "uint256"
        },
        {
          "internalType": "uint256",
          "name": "_profit",
          "type": "uint256"
        },
        {
          "internalType": "uint256",
          "name": "_loss",
          "type": "uint256"
        }
      ],
      "name": "closeDealEvent",
      "outputs": [],
      "stateMutability": "nonpayable",
      "type": "function"
    },
    {
      "inputs": [
        {
          "internalType": "address",
          "name": "_taker",
          "type": "address"
        },
        {
          "internalType": "string",
          "name": "_name",
          "type": "string"
        },
        {
          "internalType": "uint256",
          "name": "_amount",
          "type": "uint256"
        },
        {
          "internalType": "uint256",
          "name": "_currentPrice",
          "type": "uint256"
        },
        {
          "internalType": "enum ICommon.Direct",
          "name": "_type",
          "type": "uint8"
        },
        {
          "internalType": "uint256",
          "name": "_limitID",
          "type": "uint256"
        }
      ],
      "name": "closeOrder",
      "outputs": [
        {
          "components": [
            {
              "internalType": "uint256",
              "name": "totalMargin",
              "type": "uint256"
            },
            {
              "internalType": "uint256",
              "name": "tradingFee",
              "type": "uint256"
            },
            {
              "internalType": "uint256",
              "name": "gain",
              "type": "uint256"
            },
            {
              "internalType": "uint256",
              "name": "loss",
              "type": "uint256"
            }
          ],
          "internalType": "struct ICommon.CloseOrderResult",
          "name": "bulk",
          "type": "tuple"
        }
      ],
      "stateMutability": "nonpayable",
      "type": "function"
    },
    {
      "inputs": [
        {
          "internalType": "address",
          "name": "_user",
          "type": "address"
        },
        {
          "internalType": "string",
          "name": "_name",
          "type": "string"
        },
        {
          "internalType": "uint256",
          "name": "_price",
          "type": "uint256"
        }
      ],
      "name": "getMaxOpenAmount",
      "outputs": [
        {
          "internalType": "uint256",
          "name": "amount",
          "type": "uint256"
        }
      ],
      "stateMutability": "view",
      "type": "function"
    },
    {
      "inputs": [
        {
          "internalType": "address",
          "name": "_user",
          "type": "address"
        },
        {
          "internalType": "string[]",
          "name": "_symbols",
          "type": "string[]"
        },
        {
          "internalType": "uint256[]",
          "name": "_prices",
          "type": "uint256[]"
        }
      ],
      "name": "getMaxWithdrawableAmount",
      "outputs": [
        {
          "internalType": "uint256",
          "name": "_amount",
          "type": "uint256"
        }
      ],
      "stateMutability": "view",
      "type": "function"
    },
    {
      "inputs": [
        {
          "internalType": "address",
          "name": "_user",
          "type": "address"
        },
        {
          "internalType": "string[]",
          "name": "_symbols",
          "type": "string[]"
        },
        {
          "internalType": "uint256[]",
          "name": "_prices",
          "type": "uint256[]"
        }
      ],
      "name": "getPNL",
      "outputs": [
        {
          "internalType": "bool",
          "name": "flag",
          "type": "bool"
        },
        {
          "internalType": "uint256",
          "name": "amount",
          "type": "uint256"
        }
      ],
      "stateMutability": "view",
      "type": "function"
    },
    {
      "inputs": [
        {
          "internalType": "address",
          "name": "_taker",
          "type": "address"
        },
        {
          "internalType": "string",
          "name": "_name",
          "type": "string"
        },
        {
          "internalType": "uint256",
          "name": "_price",
          "type": "uint256"
        },
        {
          "internalType": "uint8",
          "name": "_direction",
          "type": "uint8"
        }
      ],
      "name": "getPNLByCertainPosition",
      "outputs": [
        {
          "internalType": "uint256",
          "name": "profit",
          "type": "uint256"
        },
        {
          "internalType": "uint256",
          "name": "loss",
          "type": "uint256"
        }
      ],
      "stateMutability": "view",
      "type": "function"
    },
    {
      "inputs": [
        {
          "internalType": "address",
          "name": "_taker",
          "type": "address"
        },
        {
          "internalType": "string[]",
          "name": "_symbols",
          "type": "string[]"
        },
        {
          "internalType": "uint256[]",
          "name": "_prices",
          "type": "uint256[]"
        }
      ],
      "name": "getPNLByPosition",
      "outputs": [
        {
          "internalType": "uint256",
          "name": "totalProfit",
          "type": "uint256"
        },
        {
          "internalType": "uint256",
          "name": "totalLoss",
          "type": "uint256"
        }
      ],
      "stateMutability": "view",
      "type": "function"
    },
    {
      "inputs": [],
      "name": "getShareNetValue",
      "outputs": [
        {
          "internalType": "uint256",
          "name": "",
          "type": "uint256"
        }
      ],
      "stateMutability": "view",
      "type": "function"
    },
    {
      "inputs": [
        {
          "internalType": "address",
          "name": "initialOwner",
          "type": "address"
        },
        {
          "internalType": "address",
          "name": "_priPool",
          "type": "address"
        },
        {
          "internalType": "address",
          "name": "_perpetual",
          "type": "address"
        }
      ],
      "name": "initialize",
      "outputs": [],
      "stateMutability": "nonpayable",
      "type": "function"
    },
    {
      "inputs": [
        {
          "internalType": "uint256",
          "name": "_dealID",
          "type": "uint256"
        },
        {
          "internalType": "uint256",
          "name": "_price",
          "type": "uint256"
        }
      ],
      "name": "liquidateMakerDeal",
      "outputs": [
        {
          "internalType": "bool",
          "name": "isLiquidated",
          "type": "bool"
        },
        {
          "internalType": "bool",
          "name": "isAgreement",
          "type": "bool"
        },
        {
          "internalType": "uint256",
          "name": "userProfit",
          "type": "uint256"
        }
      ],
      "stateMutability": "nonpayable",
      "type": "function"
    },
    {
      "inputs": [
        {
          "internalType": "uint256[]",
          "name": "_dealIDs",
          "type": "uint256[]"
        },
        {
          "internalType": "string[]",
          "name": "_symbols",
          "type": "string[]"
        },
        {
          "internalType": "uint256[]",
          "name": "_prices",
          "type": "uint256[]"
        }
      ],
      "name": "liquidateMakerDeals",
      "outputs": [],
      "stateMutability": "nonpayable",
      "type": "function"
    },
    {
      "inputs": [],
      "name": "owner",
      "outputs": [
        {
          "internalType": "address",
          "name": "",
          "type": "address"
        }
      ],
      "stateMutability": "view",
      "type": "function"
    },
    {
      "inputs": [],
      "name": "renounceOwnership",
      "outputs": [],
      "stateMutability": "nonpayable",
      "type": "function"
    },
    {
      "inputs": [
        {
          "internalType": "address",
          "name": "_orderBook",
          "type": "address"
        },
        {
          "internalType": "address",
          "name": "_station",
          "type": "address"
        }
      ],
      "name": "setKeepers",
      "outputs": [],
      "stateMutability": "nonpayable",
      "type": "function"
    },
    {
      "inputs": [
        {
          "internalType": "address",
          "name": "newOwner",
          "type": "address"
        }
      ],
      "name": "transferOwnership",
      "outputs": [],
      "stateMutability": "nonpayable",
      "type": "function"
    },
    {
      "inputs": [
        {
          "internalType": "string",
          "name": "_name",
          "type": "string"
        },
        {
          "internalType": "enum ICommon.Direct",
          "name": "_type",
          "type": "uint8"
        }
      ],
      "name": "verifyTradeStatus",
      "outputs": [],
      "stateMutability": "view",
      "type": "function"
    }
  ],
  "bytecode": "0x608080604052346015576143b4908161001b8239f35b600080fdfe6080604052600436101561001a575b3461001557005b600080fd5b60003560e01c8063016f4dcb146119055780632b0002061461185b5780633b1e6a5914611840578063642bcd18146117d5578063715018a61461172f578063721db562146116d9578063879b31e0146116a65780638da5cb5b146116605780638fdf20fb146115f25780639324b549146115715780639aa59c651461154a578063b7288fdd146113af578063c0c53b8b146110f1578063c2b3356414610fe0578063ca2afc4e14610f21578063ca6ec37214610dc0578063cd3fd61714610878578063d0e3d0dc146106a8578063e6b34c6914610685578063eb4f2e36146102e4578063ede13d8c146102bf578063f2fde38b146102945763f5a4bc660361000e57346100155761010060031936011261001557610136611965565b60443560643591600583101561001557608435917febbb264ee0a0ae96eb7f0d3178c3d7cfed75dcb46bf54fb70fa43000eb77d76e61012060c4359260e4359533600052600460205261019060ff60406000205416611c60565b670de0b6b3a7640000806101af836101aa8660a435611e34565b611e34565b0404906101ba613bc0565b92604051938452602435602085015260009960408501526060840152608083015260a08201528360c08201528560e082015242610100820152a18061024c575b5081610204578280f35b60606001600160a01b037f3d1da8320fcddb1c370f0c5ec1c37483e5301a7c02bd7478d62c7514643ceb1d92604051946005865260208601524260408601521692a238808280f35b604051906004825260208201524260408201527f3d1da8320fcddb1c370f0c5ec1c37483e5301a7c02bd7478d62c7514643ceb1d60606001600160a01b03841692a2386101fa565b34610015576020600319360112610015576102bd6102b0611965565b6102b8613c8d565b6137ec565b005b346100155760406102d86102d236611c01565b91613767565b82519182526020820152f35b346100155760606003193601126100155760043567ffffffffffffffff811161001557610315903690600401611a37565b60243567ffffffffffffffff811161001557610335903690600401611b82565b9060443567ffffffffffffffff811161001557610356903690600401611a37565b9033600052600460205261037160ff60406000205416611c60565b805191600090602085019060208101925b85811061038b57005b6001600160a01b0360025416906103a28187612324565b519160405180937fdcee347500000000000000000000000000000000000000000000000000000000825260648201906004830152606060248301528a51809152608482019060848160051b84010191889160005b81811061063a57505050506003198282030160448301526020865191828152019088906000905b80821061061e57505050918160008160a09503925af1801561058d576000808091819582946105b2575b50816105aa575b50610460575b50506001915001610382565b6001600160a01b036001541693843b1561001557604051927f9048f2e0000000000000000000000000000000000000000000000000000000008452600084604481836001600160a01b0387169a8b60048401528160248401525af193841561058d5761051394610599575b506104d582613da2565b926104e1818551611e67565b84526104fb826104f660208701938451611e67565b611e67565b905261050c60408401918251611e27565b9052614034565b6001600160a01b036001541691823b15610015576000926044849260405195869384927f9048f2e00000000000000000000000000000000000000000000000000000000084526004840152600a60248401525af191821561058d5760019261057c575b80610454565b6000610587916119fc565b88610576565b6040513d6000823e3d90fd5b60006105a4916119fc565b8c6104cb565b90508b61044e565b95505091505060a0833d8211610616575b816105d060a093836119fc565b8101031261061357506105e2826122c8565b916105ef602082016122c8565b90604081015191608061060460608401611cab565b9201519490929194928c610447565b80fd5b3d91506105c3565b919350916020806001928651815201940192018693929161041d565b91936020610675827fffffffffffffffffffffffffffffffffffffffffffffffffffffffffffffff7c6001959799849503018852885161327a565b96019401910191879493926103f6565b3461001557602061069e6106983661194f565b9061347c565b6040519015158152f35b346100155760406003193601126100155760043567ffffffffffffffff8111610015576106d9903690600401611b3b565b602435906003821015610015576106f76001600160a01b0391613f92565b1680156108345760006001600160a01b03600154166024604051809481937fa666200f00000000000000000000000000000000000000000000000000000000835260048301525afa801561058d576101c091600091610811575b5001516107cd5761076181611e07565b600181149081156107b9575b501561077557005b606460405162461bcd60e51b815260206004820152600a60248201527f77726f6e672074797065000000000000000000000000000000000000000000006044820152fd5b600291506107c681611e07565b148161076d565b606460405162461bcd60e51b815260206004820152601360248201527f446f206e6f7420747261646520737461747573000000000000000000000000006044820152fd5b61082e91503d806000833e61082681836119fc565b81019061334f565b83610751565b606460405162461bcd60e51b815260206004820152600960248201527f756e537570706f727400000000000000000000000000000000000000000000006044820152fd5b346100155760c060031936011261001557610891611965565b60243567ffffffffffffffff8111610015576108b1903690600401611b3b565b604435606435906084359260038410156100155760a435946108d1613319565b503360005260046020526108ec60ff60406000205416611c60565b6108f4613319565b956108fd6129bf565b9461090787611e07565b61091a61091388612c28565b8585613cee565b929050602089929901986060830193845289528152600060c060405161093f81611991565b8281528260208201528260408201528260608201528260808201528260a082015201526001600160a01b03600154166040517fe1fb28b8000000000000000000000000000000000000000000000000000000008152602081806109a68b8b6004840161329f565b0381855afa801561058d57600090610d8d575b60e0915060846001600160a01b036109d08b613f92565b169360405194859384927f07ec446600000000000000000000000000000000000000000000000000000000845260048401528d602484015289604484015260648301525afa801561058d57604091600091610d5e575b50015160208b01908152916000198503610d125788519051610a4791611e27565b8711610cce575b51670de0b6b3a7640000810290808204670de0b6b3a76400001490151715610cb8578751610a7b91611e47565b7f878cac0b879164d8647426da983e248a51ef8192a43e4d3bb5b586ca2017ed54610aa4613bc0565b918351604051916101408352610abe61014084018b61327a565b946020840152610acd8d611e07565b8c6040840152600360608401528a608084015260a08301528560c083015260e08201528561010082015242610120820152806001600160a01b038816930390a2610b1688611e07565b610b2a610b2289612c28565b838787612ad8565b949060408b019860608c01968752818a528881518110610c82575b505050610b5c896000978893898952898c52613e86565b60018a149990875b8151811015610c6d576000610b7884611e07565b8c15610c305750610b898183612324565b515b8a8a1015610bfa578a6000198203610ba8575b5050600101610b64565b8a610be8610be0610bd08c610bda9a9f60019897610bca8f92610bf199611e27565b906140d6565b90929b9195611e67565b9e611e67565b978c51611e67565b8b528d51611e67565b8c52908a610b9e565b50505050975093505050929150836080955b610c14613c3d565b5052604051938452516020840152516040830152516060820152f35b610c3b828451611e27565b906000198201918211610c595750610c539083612324565b51610b8b565b80634e487b7160e01b602492526011600452fd5b50505097509350505092915083608095610c0c565b610c92610c9a91610caf94611e34565b825190611e47565b8a52610ca7898851611e34565b905190611e47565b508a8088610b45565b634e487b7160e01b600052601160045260246000fd5b606460405162461bcd60e51b815260206004820152601360248201527f636c6f736520616d6f756e7420657863656564000000000000000000000000006044820152fd5b51871115610a4e57606460405162461bcd60e51b815260206004820152601b60248201527f616d6f756e74206973206772656174207468656e20667265657a6500000000006044820152fd5b610d80915060e03d60e011610d86575b610d7881836119fc565b8101906132bf565b8c610a26565b503d610d6e565b506020813d602011610db8575b81610da7602093836119fc565b810103126100155760e090516109b9565b3d9150610d9a565b346100155760a06003193601126100155760043560038110156100155760243560443590606435608435936001600091610df981611e07565b03610ed157509192909190838310610ea957670de0b6b3a764000093610e2f83610e2a610e3594610e3b9796611e34565b611e47565b92611e27565b90611e34565b046000905b80158015610ea1575b15610e5d5760409182519182526020820152f35b606460405162461bcd60e51b815260206004820152600960248201527f504e4c206572726f7200000000000000000000000000000000000000000000006044820152fd5b508115610e49565b92610e35670de0b6b3a764000093610e2f610eca94610e2a60009882611e34565b0490610e40565b838311610f015750610ef89291610e2f82610e2a670de0b6b3a764000097610e3595611e34565b04600090610e40565b670de0b6b3a764000093610e2f610eca9493610e2a610e35949882611e34565b3461001557610f2f36611c01565b9190610f48600093610f4084613da2565b92859461324a565b9015610fd8575b50604081015192670c7d713b49da0000840293808504670c7d713b49da00001490151715610cb857602093670de0b6b3a76400009004818110610f9c57505082915001515b604051908152f35b9091840182610fac838351611e67565b1015610fbb575b505050610f94565b610fd0935090610fcb9151611e67565b611e27565b828080610fb3565b925083610f4f565b3461001557606060031936011261001557610ff961197b565b6044358015158091036100155760206000913383526004825261102260ff604085205416611c60565b60646001600160a01b03600254169160405194859384927fc2b3356400000000000000000000000000000000000000000000000000000000845260043560048501526001600160a01b038916602485015260448401525af190811561058d576000916110bf575b508061109157005b8161109e6102bd93613da2565b91602083016110ae828251611e67565b905261050c60608401918251611e27565b906020823d6020116110e9575b816110d9602093836119fc565b8101031261061357505182611089565b3d91506110cc565b346100155760606003193601126100155761110a611965565b61111261197b565b90604435906001600160a01b038216809203610015577ff0c57e16840df040f15088dc2f81fe391c3923bec73e23a9662efc9c229c6a00549260ff8460401c16159367ffffffffffffffff8116801590816113a7575b600114908161139d575b159081611394575b5061136a576001600160a01b0392818660017fffffffffffffffffffffffffffffffffffffffffffffffff00000000000000006111f49516177ff0c57e16840df040f15088dc2f81fe391c3923bec73e23a9662efc9c229c6a0055611315575b506111e3614325565b6111eb614325565b6102b0336137ec565b168073ffffffffffffffffffffffffffffffffffffffff19600054161760005560005260046020526040600020600160ff198254161790558073ffffffffffffffffffffffffffffffffffffffff19600154161760015560005260046020526040600020600160ff198254161790553060005260046020526040600020600160ff1982541617905561128257005b7fffffffffffffffffffffffffffffffffffffffffffffff00ffffffffffffffff7ff0c57e16840df040f15088dc2f81fe391c3923bec73e23a9662efc9c229c6a0054167ff0c57e16840df040f15088dc2f81fe391c3923bec73e23a9662efc9c229c6a00557fc7f505b2f371ae2175ee4913f4499e1f2633a7b5936321eed1cdaeb6115181d2602060405160018152a1005b7fffffffffffffffffffffffffffffffffffffffffffffff0000000000000000001668010000000000000001177ff0c57e16840df040f15088dc2f81fe391c3923bec73e23a9662efc9c229c6a0055866111da565b7ff92ee8a90000000000000000000000000000000000000000000000000000000060005260046000fd5b9050158661117a565b303b159150611172565b869150611168565b34610015576060600319360112610015576113c8611965565b60243567ffffffffffffffff8111610015576113e8903690600401611b3b565b6114396113f483613da2565b916020816001600160a01b03600154169560405194859283927fe1fb28b80000000000000000000000000000000000000000000000000000000084526004840161329f565b0381875afa91821561058d57600092611515575b509060846001600160a01b0361146460e094613f92565b169460405195869384927f07ec446600000000000000000000000000000000000000000000000000000000845260048401526402540be4006024840152604435604484015260648301525afa91821561058d576000926114f1575b5060200151906402540be4008202918083046402540be4001490151715610cb8576020916060610f9492015190611e47565b602091925061150e9060e03d60e011610d8657610d7881836119fc565b91906114bf565b91506020823d602011611542575b81611530602093836119fc565b8101031261001557905190608461144d565b3d9150611523565b3461001557604061156361155d36611c01565b9161324a565b825191151582526020820152f35b346100155760a06003193601126100155761158a611965565b60243567ffffffffffffffff8111610015576115aa903690600401611b3b565b604435906003821015610015576040926115e4923360005260046020526115d760ff866000205416611c60565b6084359260643592612c3b565b825191825215156020820152f35b346100155761160036611a94565b81519061160c8261298e565b9260005b83811061162957604051806116258782611ae3565b0390f35b8061164b61163960019385612324565b516116448387612324565b51906138b8565b6116558288612324565b901515905201611610565b346100155760006003193601126100155760206001600160a01b037f9016d09d72d40fdae2fd8ceac6b6234c7706214fd39c1cd1e609a0528c1993005416604051908152f35b346100155760806116bf6116b936611c01565b91612b72565b916040519315158452602084015260408301526060820152f35b34610015576080600319360112610015576116f2611965565b60243567ffffffffffffffff811161001557611712903690600401611b3b565b60643560ff81168103610015576040926102d89260443591612ad8565b3461001557600060031936011261001557611748613c8d565b60006001600160a01b037f9016d09d72d40fdae2fd8ceac6b6234c7706214fd39c1cd1e609a0528c1993005473ffffffffffffffffffffffffffffffffffffffff1981167f9016d09d72d40fdae2fd8ceac6b6234c7706214fd39c1cd1e609a0528c19930055167f8be0079c531659141344cd1fd0a4f28419497f9722a3daafe3b4186f6b6457e08280a3005b34610015576117e336611a94565b906117ee815161298e565b9160005b8251811015611832578061181d61180b60019386612324565b516118168386612324565b519061347c565b6118278287612324565b9015159052016117f2565b604051806116258682611ae3565b34610015576000600319360112610015576020610f9461234e565b3461001557604060031936011261001557611874611965565b6001600160a01b038061188561197b565b9261188e613c8d565b16918260005260046020526040600020600160ff1982541617905516908160005260046020526040600020600160ff1982541617905573ffffffffffffffffffffffffffffffffffffffff19600254161760025573ffffffffffffffffffffffffffffffffffffffff196003541617600355600080f35b346100155760606119386119183661194f565b9033600052600460205261193360ff60406000205416611c60565b611e74565b906040519215158352151560208301526040820152f35b6003196040910112610015576004359060243590565b600435906001600160a01b038216820361001557565b602435906001600160a01b038216820361001557565b60e0810190811067ffffffffffffffff8211176119ad57604052565b634e487b7160e01b600052604160045260246000fd5b610160810190811067ffffffffffffffff8211176119ad57604052565b60a0810190811067ffffffffffffffff8211176119ad57604052565b90601f601f19910116810190811067ffffffffffffffff8211176119ad57604052565b67ffffffffffffffff81116119ad5760051b60200190565b9080601f83011215610015578135611a4e81611a1f565b92611a5c60405194856119fc565b81845260208085019260051b82010192831161001557602001905b828210611a845750505090565b8135815260209182019101611a77565b9060406003198301126100155760043567ffffffffffffffff81116100155782611ac091600401611a37565b916024359067ffffffffffffffff821161001557611ae091600401611a37565b90565b602060408183019282815284518094520192019060005b818110611b075750505090565b82511515845260209384019390920191600101611afa565b67ffffffffffffffff81116119ad57601f01601f191660200190565b81601f8201121561001557803590611b5282611b1f565b92611b6060405194856119fc565b8284526020838301011161001557816000926020809301838601378301015290565b9080601f83011215610015578135611b9981611a1f565b92611ba760405194856119fc565b81845260208085019260051b820101918383116100155760208201905b838210611bd357505050505090565b813567ffffffffffffffff811161001557602091611bf687848094880101611b3b565b815201910190611bc4565b6060600319820112610015576004356001600160a01b0381168103610015579160243567ffffffffffffffff81116100155782611c4091600401611b82565b916044359067ffffffffffffffff821161001557611ae091600401611a37565b15611c6757565b606460405162461bcd60e51b815260206004820152601a60248201527f63616c6c6572206973206e6f74206167656e74206b65657065720000000000006044820152fd5b51906001600160a01b038216820361001557565b60005b838110611cd25750506000910152565b8181015183820152602001611cc2565b81601f82011215610015578051611cf881611b1f565b92611d0660405194856119fc565b8184526020828401011161001557611ae09160208085019101611cbf565b6020818303126100155780519067ffffffffffffffff8211610015570190610160828203126100155760405191611d5a836119c3565b611d6381611cab565b83526020810151600381101561001557602084015260408101516006811015610015576040840152606081015160038110156100155760608401526080810151608084015260a081015167ffffffffffffffff81116100155761014092611dcb918301611ce2565b60a084015260c081015160c084015260e081015160e0840152610100810151610100840152610120810151610120840152015161014082015290565b60031115611e1157565b634e487b7160e01b600052602160045260246000fd5b91908203918211610cb857565b81810292918115918404141715610cb857565b8115611e51570490565b634e487b7160e01b600052601260045260246000fd5b91908201809211610cb857565b919060249160006001600160a01b0360025416604051948580926320bf56eb60e21b82528860048301525afa92831561058d576000936122a5575b5060408301928351936006851015611e115760016000951415908161227b575b50612271578293611ee084876138b8565b1561226657602082019360018551611ef781611e07565b611f0081611e07565b1480612259575b1561211d575060c0820194855196670de0b6b3a7640000611f3160e0860199610e358b5186611e27565b0495611f3e838884613ae3565b909b925099908b1561210b57808a0361206f575b5050509161012093917febbb264ee0a0ae96eb7f0d3178c3d7cfed75dcb46bf54fb70fa43000eb77d76e95935b7f878cac0b879164d8647426da983e248a51ef8192a43e4d3bb5b586ca2017ed54611feb6001600160a01b038751169260a088015190611fbd613bc0565b9051611fc881611e07565b60c08a019960e08b5191015191604051958695610140875261014087019061327a565b936020860152611ffa81611e07565b604085015260056060850152608084015260a08301528660c08301528760e0830152600019610100830152428a8301520390a2612035613c3d565b935190604051948552602085015260036040850152606084015260808301528060a08301528560c083015260e082015242610100820152a1565b90929450612097919850670de0b6b3a7640000612091829a8551905190611e34565b04611e67565b90670de0b6b3a7640000820291808304670de0b6b3a764000014901517156120f757916120ed7febbb264ee0a0ae96eb7f0d3178c3d7cfed75dcb46bf54fb70fa43000eb77d76e96949261012096945190611e47565b9395819395611f52565b602485634e487b7160e01b81526011600452fd5b50505050505093505092505080918190565b946002855161212b81611e07565b61213481611e07565b148061224c575b1561224057859660c0849796970196612173670de0b6b3a764000061216a8a51610e3560e08a019d8e51611e27565b04978884613ae3565b909b925099908b1561210b57808a036121b8575b5050509161012093917febbb264ee0a0ae96eb7f0d3178c3d7cfed75dcb46bf54fb70fa43000eb77d76e9593611f7f565b909294506121e0919850670de0b6b3a76400006121da829a8551905190611e34565b04611e27565b90670de0b6b3a7640000820291808304670de0b6b3a764000014901517156120f757916122367febbb264ee0a0ae96eb7f0d3178c3d7cfed75dcb46bf54fb70fa43000eb77d76e96949261012096945190611e47565b9395819395612187565b50945084935083925050565b508560e08401511161213b565b5060e08301518111611f07565b945084935083925050565b5092505080918190565b9050516006811015612291576002141538611ecf565b602485634e487b7160e01b81526021600452fd5b6122c191933d8091833e6122b981836119fc565b810190611d24565b9138611eaf565b5190811515820361001557565b919060a083820312610015576122ea836122c8565b9260208101519260408201519260608301519067ffffffffffffffff82116100155761231d608091611ae0938601611ce2565b9301611cab565b80518210156123385760209160051b010190565b634e487b7160e01b600052603260045260246000fd5b6001600160a01b036000541690604051917fcf5bd3770000000000000000000000000000000000000000000000000000000083526017600484015260006024840152600083604481845afa90811561058d5760449360009261296a575b50600090604051948580927fcf5bd377000000000000000000000000000000000000000000000000000000008252600e60048301528460248301525afa92831561058d5760009081908295612940575b5082159081159182612938575b612927578214908161291f575b506128f2576001600160a01b0360015416936040517fcd2ce4ae000000000000000000000000000000000000000000000000000000008152600081600481895afa90811561058d57600091612835575b509060009493929492839284956001600160a01b03865416926001600160a01b03875416965b835189101561277a5761249e8985612324565b51906001600160a01b036124b183613f92565b169060208d6024604051809581937f41976e0900000000000000000000000000000000000000000000000000000000835260048301525afa91821561058d57600092612747575b50811561273b57604051926040840184811067ffffffffffffffff8211176119ad57604052600084526020840190600082526000926040516306461a8b60e11b81526001600160a01b038c1694856004830152606060248301526040828d8180612565606482018a61327a565b86604483015203915afa91821561272e57908f979695949392918180936126e3575b50508185528852670de0b6b3a7640000906125a3908790611e34565b04908751808310156000146126c45750916125d06125c86040936125fd979695611e67565b895190611e27565b965b60009483518097819482936306461a8b60e11b8452600484015260606024840152606483019061327a565b6001604483015203915afa9283156126b957828094612679575b50508290528452670de0b6b3a76400009161263191611e34565b0491828151101560001461265a5791610fcb612651926001945190611e67565b985b019761248b565b61266b600193612673939c9a611e67565b905190611e27565b96612653565b91935091506040823d82116126b1575b81612696604093836119fc565b81010312610613575080516020909101519181612631612617565b3d9150612689565b6040513d84823e3d90fd5b6040926125fd96959492989f6126dd92610fcb91611e67565b9d6125d2565b925092939495969750506040823d8211612726575b81612705604093836119fc565b81010312610613575080516020909101518e969594939291866125a3612587565b3d91506126f8565b50604051903d90823e3d90fd5b99905060019150612653565b90916020823d8211612772575b81612761602093836119fc565b8101031261061357505190386124f8565b3d9150612754565b9597509793509750505061278e9250611e67565b90808211156127cb576127a091611e27565b90670de0b6b3a7640000820291808304670de0b6b3a76400001490151715610cb857611ae091611e47565b608460405162461bcd60e51b815260206004820152602160248201527f657363726f77206163636f756e742073686f756c64206265206465746f6e617460448201527f65000000000000000000000000000000000000000000000000000000000000006064820152fd5b3d8083833e61284481836119fc565b8101906020818303126128ee5780519067ffffffffffffffff82116128e6570181601f820112156128ee57805161287a81611a1f565b9361288860405195866119fc565b81855260208086019260051b840101928484116128ea5760208101925b8484106128b85750505050505038612465565b835167ffffffffffffffff81116128e6576020916128db88848094870101611ce2565b8152019301926128a5565b8380fd5b5080fd5b8280fd5b919250670de0b6b3a7640000820291808304670de0b6b3a76400001490151715610cb857611ae091611e47565b905038612415565b50670de0b6b3a76400009450505050565b508215612408565b9190506129609294503d8091833e61295881836119fc565b8101906122d5565b95935050386123fb565b6000919250612982903d8084833e61295881836119fc565b505091505091906123ab565b9061299882611a1f565b6129a560405191826119fc565b828152601f196129b58294611a1f565b0190602036910137565b604051906129cc826119e0565b60606080836000815260006020820152600060408201526000838201520152565b90918015612a5b57670de0b6b3a7640000612a2e600092612a1960008097612a136129bf565b97613cee565b50604088015260208701819052908652611e34565b0490825180831015600014612a4d575050612a4a915190611e27565b91565b90949350611ae09250611e27565b505050600090600090565b9291926000908415612ad057670de0b6b3a7640000612aaa8396612a9560018697612a8f6129bf565b96613cee565b50604087015260208601819052908552611e34565b825191900492508211612ac457612a4a9293945051611e27565b611ae092505190611e27565b509250508190565b919290928015612b665760ff670de0b6b3a7640000612b1d600093612b0886600099612b026129bf565b99613cee565b5060408a015260208901819052908852611e34565b049216612b4c578251808310612b3c5750612a4a929161266b91611e67565b611ae09350610fcb919594611e67565b825190949392908211612ac457612a4a9293945051611e27565b50505050600090600090565b92919092612b7f81613da2565b9160408301519467016345785d8a000086029580870467016345785d8a00001490151715610cb857612bb092613767565b908192828210612bcf575b505050509050600090600090600090600090565b90612bf3670de0b6b3a7640000612beb94935194859385611e27565b970487611e67565b1015612bff5780612bbb565b81851115612c1b5750612c129084611e27565b91600193929190565b9150506001929160009190565b60ff6000199116019060ff8211610cb857565b939093929192612c496129bf565b9194612c5485611e07565b612c67612c6086612c28565b8284613cee565b9492906020870195606088015260408701528185528552612c8e5750505050505090600090565b612c9a97959697613bc0565b83519451670de0b6b3a7640000810290808204670de0b6b3a76400001490151715610cb857612d5f95612cf17f878cac0b879164d8647426da983e248a51ef8192a43e4d3bb5b586ca2017ed54928b975190611e47565b604051916101408352612d0861014084018861327a565b946020840152612d1788611e07565b87604084015260046060840152608083015260a08201528760c0820152600060e082015260001961010082015242610120820152806001600160a01b038516930390a2613e86565b9360005b8551811015613235576000612d7786611e07565b6001861490811561320a57506024612d8f8389612324565b515b60006001600160a01b0360025416604051938480926320bf56eb60e21b82528560048301525afa91821561058d576000926131ef575b50604082018051906006821015611e11576001600092149081156131c6575b50612df8575b50505050600101612d63565b80959192939581938891612e0b8c611e07565b88806131b8575b156130ba5750612e43670de0b6b3a7640000612e3b60c0890151610e358d60e08c015190611e27565b048095611e67565b978886612fe7575b505082608060e088015160e46001600160a01b038454169160405194859384927ff26a3e1d0000000000000000000000000000000000000000000000000000000084528860048501528260248501528b60448501528c606485015282608485015260a48401528160c48401525af1908115612fdc5784859086928794612f4c575b50927febbb264ee0a0ae96eb7f0d3178c3d7cfed75dcb46bf54fb70fa43000eb77d76e98959261012098959260019c9b98955050505060c0612f0c613bc0565b960151906040519687526020870152600360408701526060860152608085015260a084015260c083015260e082015242610100820152a190388080612dec565b93505050506080813d8211612fd4575b81612f69608093836119fc565b810103126128e657927febbb264ee0a0ae96eb7f0d3178c3d7cfed75dcb46bf54fb70fa43000eb77d76e959261012095928560019a999651602082015191612fbf6060612fb8604084016122c8565b92016122c8565b9192909195989b9c5092959850929598612ecc565b3d9150612f5c565b6040513d86823e3d90fd5b91989186831061300657505084612ffd91611e27565b965b3880612e4b565b9550979150938297811560001461302457505060e085015190612fff565b61302d8c611e07565b156130995761305360c0870191670de0b6b3a7640000612091845160e08b015190611e34565b90670de0b6b3a7640000820291808304670de0b6b3a76400001490151715613085575161307f91611e47565b90612fff565b602484634e487b7160e01b81526011600452fd5b61305360c0870191670de0b6b3a76400006121da845160e08b015190611e34565b93946130c58c611e07565b88806131aa575b156130fd5750612e4384670de0b6b3a76400006130f68c610e3560c08c01519160e08d0151611e27565b0496611e67565b94936131088c611e07565b60028c14808061319c575b1561313c575050612e43670de0b6b3a7640000612e3b60c0890151610e358d60e08c0151611e27565b9094906131488d611e07565b8061318e575b61315d575b84612e4391611e67565b9450612e4384670de0b6b3a76400006131848c610e3560c08c01519160e08d015190611e27565b0496915050613153565b5060e08701518a101561314e565b5060e08801518b1115613113565b5060e08701518a11156130cc565b5060e08701518a1015612e12565b90505160068110156131db5760021438612de6565b602482634e487b7160e01b81526021600452fd5b61320391923d8091833e6122b981836119fc565b9038612dc7565b613215838951611e27565b906000198201918211610c59575061322f60249189612324565b51612d91565b509250509150613243613c3d565b5090600190565b906132559291613767565b9081811061326c579061326791611e27565b600191565b61327591611e27565b600091565b90601f19601f60209361329881518092818752878088019101611cbf565b0116010190565b6040906001600160a01b03611ae09493168152816020820152019061327a565b908160e09103126100155760c0604051916132d983611991565b805183526020810151602084015260408101516040840152606081015160608401526080810151608084015260a081015160a0840152015160c082015290565b604051906080820182811067ffffffffffffffff8211176119ad5760405260006060838281528260208201528260408201520152565b6020818303126100155780519067ffffffffffffffff82116100155701906101e08282031261001557604051916101e0830183811067ffffffffffffffff8211176119ad57604052805167ffffffffffffffff8111610015576101c0926133b7918301611ce2565b8352602081015160208401526133cf60408201611cab565b60408401526133e060608201611cab565b60608401526133f160808201611cab565b608084015261340260a08201611cab565b60a084015261341360c08201611cab565b60c084015261342460e08201611cab565b60e08401526101008101516101008401526101208101516101208401526101408101516101408401526101608101516101608401526101808101516101808401526101a08101516101a084015201516101c082015290565b60006001600160a01b0360025416916024604051809481937f0c3fc6b900000000000000000000000000000000000000000000000000000000835260048301525afa90811561058d5760009161366c575b509061014082015142118015613635575b61362e5760608201600181516134f381611e07565b6134fc81611e07565b14806135bd575b6135b5576002905161351481611e07565b61351d81611e07565b149182613535575b505061353057600090565b600190565b90915060208101916001835161354a81611e07565b61355381611e07565b1492836135a6575b831561356c575b5050503880613525565b6002919293505161357c81611e07565b61358581611e07565b149182613597575b5050388080613562565b60c0015110159050388061358d565b60c0830151821015935061355b565b505050600190565b5060208301600181516135cf81611e07565b6135d881611e07565b14908161361f575b81156135ed575b50613503565b60029150516135fb81611e07565b61360481611e07565b1480613611575b386135e7565b5060c083015182101561360b565b60c085015184111591506135e0565b5050600090565b506040820180516007811015611e1157600114159081613656575b506134de565b9050516007811015611e11576002141538613650565b3d8083833e61367b81836119fc565b8101906020818303126128ee5780519067ffffffffffffffff82116128e6570190610160828203126128ee57604051926136b4846119c3565b6136bd83611cab565b8452602083015160038110156128ea576020850152604083015160078110156128ea576040850152606083015160038110156128ea57606085015260808301519067ffffffffffffffff82116106135750829161371e916101409401611ce2565b608084015260a081015160a084015260c081015160c084015260e081015160e08401526101008101516101008401526101208101516101208401520151610140820152386134cd565b60009392849190825b84518410156137e3576137da856104f6866137d46001956104f66137cc6137b96137b18c8c6137aa896137a3818e612324565b5192612324565b51916129ed565b969098612324565b516137c48d8c612324565b51908c612a66565b969092611e67565b9a611e67565b93019295613770565b95949350505050565b6001600160a01b03168015613889576001600160a01b037f9016d09d72d40fdae2fd8ceac6b6234c7706214fd39c1cd1e609a0528c199300548273ffffffffffffffffffffffffffffffffffffffff198216177f9016d09d72d40fdae2fd8ceac6b6234c7706214fd39c1cd1e609a0528c19930055167f8be0079c531659141344cd1fd0a4f28419497f9722a3daafe3b4186f6b6457e0600080a3565b7f1e4fbdf700000000000000000000000000000000000000000000000000000000600052600060045260246000fd5b60249160006001600160a01b0360025416604051948580926320bf56eb60e21b82528660048301525afa92831561058d57600093613ac8575b5060408301928351936006851015611e1157600160009514908115613ab3575b5015613a6f578115613a4f57602081016001815161392e81611e07565b61393781611e07565b1480613a62575b15613a08575061396d8160c061396460209560e0670de0b6b3a764000096015190611e27565b91015190611e34565b045b60446001600160a01b038554169360405194859384927fd3c76d66000000000000000000000000000000000000000000000000000000008452600484015260248301525afa9182156139fc5780926139c657505090565b9091506020823d6020116139f4575b816139e2602093836119fc565b810103126106135750611ae0906122c8565b3d91506139d5565b604051903d90823e3d90fd5b60029051613a1581611e07565b613a1e81611e07565b1480613a55575b15613a4f57613a498160c061396460209560e0670de0b6b3a7640000960151611e27565b0461396f565b50505090565b5060e08101518210613a25565b5060e0820151831161393e565b606460405162461bcd60e51b815260206004820152600d60248201527f496e76616c6964207374617465000000000000000000000000000000000000006044820152fd5b90505160068110156122915760021438613911565b613adc91933d8091833e6122b981836119fc565b91386138f1565b9060e460809260006001600160a01b0381541660405196879586947ff26a3e1d000000000000000000000000000000000000000000000000000000008652600486015260016024860152604485015282606485015282608485015260a4840152600160c48401525af1801561058d576000928380938193613b66575b5093929190565b9450915091506080833d608011613bb8575b81613b85608093836119fc565b810103126106135750815190602083015190613baf6060613ba8604087016122c8565b95016122c8565b91939238613b5f565b3d9150613b78565b600460206001600160a01b0360025416604051928380927fc3710f250000000000000000000000000000000000000000000000000000000082525afa90811561058d57600091613c0e575090565b90506020813d602011613c35575b81613c29602093836119fc565b81010312610015575190565b3d9150613c1c565b600060206001600160a01b03600254166004604051809481937fb99ac9270000000000000000000000000000000000000000000000000000000083525af190811561058d57600091613c0e575090565b6001600160a01b037f9016d09d72d40fdae2fd8ceac6b6234c7706214fd39c1cd1e609a0528c19930054163303613cc057565b7f118cdaa7000000000000000000000000000000000000000000000000000000006000523360045260246000fd5b90613d31926001600160a01b0360809381600254169260ff604051978896879586956306461a8b60e11b875216600486015260606024860152606485019061327a565b9116604483015203915afa801561058d576000928380938193613d55575093929190565b9450915091506080833d608011613d9a575b81613d74608093836119fc565b810103126106135750815160208301516040840151606090940151909392909138613b5f565b3d9150613d67565b60006080604051613db2816119e0565b828152826020820152826040820152826060820152015260a06001600160a01b03602481600154169360405194859384927ffb47e0160000000000000000000000000000000000000000000000000000000084521660048301525afa90811561058d57600091613e20575090565b905060a0813d60a011613e7e575b81613e3b60a093836119fc565b8101031261001557608060405191613e52836119e0565b805183526020810151602084015260408101516040840152606081015160608401520151608082015290565b3d9150613e2e565b90613ee0926001600160a01b03600093816002541692604051968795869485947f0f12fb5900000000000000000000000000000000000000000000000000000000865216600485015260606024850152606484019061327a565b90613eea81611e07565b604483015203915afa90811561058d57600091613f05575090565b3d8083833e613f1481836119fc565b8101906020818303126128ee5780519067ffffffffffffffff82116128e6570181601f820112156128ee57805190613f4b82611a1f565b93613f5960405195866119fc565b82855260208086019360051b8301019384116106135750602001905b828210613f825750505090565b8151815260209182019101613f75565b6020613fdf916001600160a01b036001541660405180809581947f05ca57cf000000000000000000000000000000000000000000000000000000008352866004840152602483019061327a565b03915afa90811561058d57600091613ff5575090565b6020813d60201161402c575b8161400e602093836119fc565b810103126128ea5751906001600160a01b0382168203610613575090565b3d9150614001565b90600154916001600160a01b0360009316803b156128e65760c48492836001600160a01b0393608060405197889687957fc9f35c3900000000000000000000000000000000000000000000000000000000875216600486015280516024860152602081015160448601526040810151606486015260608101516084860152015160a48401525af180156126b9576140c9575050565b816140d3916119fc565b50565b93929091936001600160a01b0360025416604051906320bf56eb60e21b8252826004830152600082602481845afa91821561058d5760009261430a575b5060408201948551956006871015611e11576001600097141590816142e0575b506142d15785906001600160a01b0361414f60a0860151613f92565b16876001600160a01b03600154166024604051809481937fa666200f00000000000000000000000000000000000000000000000000000000835260048301525afa9081156142c65792889260001961010060e4979460609a999787916142ac575b50015160c087015190928181106142a45750995b0361429c575b60206001600160a01b038651169501519b6141e48d611e07565b6040519c8d9889977f1b31c071000000000000000000000000000000000000000000000000000000008952600489015260248801528a604488015261422881611e07565b6064870152608486015260a485015260c48401525af180156126b9578294838092614255575b5050919392565b9293509450506060843d606011614294575b81614274606093836119fc565b81010312610613575082519060406020850151940151919391388061424e565b3d9150614267565b8891506141ca565b9050996141c4565b6142c091503d8089833e61082681836119fc565b386141b0565b6040513d8a823e3d90fd5b50505050508092509180918190565b90505160068110156142f6576002141538614133565b602487634e487b7160e01b81526021600452fd5b61431e91923d8091833e6122b981836119fc565b9038614113565b60ff7ff0c57e16840df040f15088dc2f81fe391c3923bec73e23a9662efc9c229c6a005460401c161561435457565b7fd7e6bcf80000000000000000000000000000000000000000000000000000000060005260046000fdfea2646970667358221220970323cd29aaae49b0e6d217c3871bea822e9dbd81bcda60e2602ab680fc81b664736f6c634300081c0033",
  "linkReferences": {},
  "deployedLinkReferences": {}
}