{
  "_format": "hh-sol-artifact-1",
  "contractName": "TradeAgent",
  "sourceName": "contracts/TradeAgent.sol",
  "abi": [
    {
      "inputs": [],
      "name": "InvalidInitialization",
      "type": "error"
    },
    {
      "inputs": [],
      "name": "NotInitializing",
      "type": "error"
    },
    {
      "inputs": [
        {
          "internalType": "address",
          "name": "owner",
          "type": "address"
        }
      ],
      "name": "OwnableInvalidOwner",
      "type": "error"
    },
    {
      "inputs": [
        {
          "internalType": "address",
          "name": "account",
          "type": "address"
        }
      ],
      "name": "OwnableUnauthorizedAccount",
      "type": "error"
    },
    {
      "anonymous": false,
      "inputs": [
        {
          "indexed": false,
          "internalType": "address",
          "name": "taker",
          "type": "address"
        },
        {
          "indexed": false,
          "internalType": "uint256",
          "name": "amount",
          "type": "uint256"
        },
        {
          "indexed": false,
          "internalType": "uint256",
          "name": "availableAmount",
          "type": "uint256"
        },
        {
          "indexed": false,
          "internalType": "uint256",
          "name": "marginAmount",
          "type": "uint256"
        },
        {
          "indexed": false,
          "internalType": "uint256",
          "name": "locked",
          "type": "uint256"
        },
        {
          "indexed": false,
          "internalType": "uint256",
          "name": "stage",
          "type": "uint256"
        },
        {
          "indexed": false,
          "internalType": "uint256",
          "name": "dif",
          "type": "uint256"
        }
      ],
      "name": "BalanceOfTaker",
      "type": "event"
    },
    {
      "anonymous": false,
      "inputs": [
        {
          "indexed": false,
          "internalType": "string",
          "name": "name",
          "type": "string"
        },
        {
          "indexed": true,
          "internalType": "address",
          "name": "taker",
          "type": "address"
        },
        {
          "indexed": true,
          "internalType": "address",
          "name": "token",
          "type": "address"
        },
        {
          "indexed": false,
          "internalType": "uint256",
          "name": "orderID",
          "type": "uint256"
        },
        {
          "indexed": false,
          "internalType": "enum ICommon.Direct",
          "name": "orderType",
          "type": "uint8"
        },
        {
          "indexed": false,
          "internalType": "enum IPerpetual.OrderState",
          "name": "state",
          "type": "uint8"
        },
        {
          "indexed": false,
          "internalType": "enum ICommon.Offset",
          "name": "offset",
          "type": "uint8"
        },
        {
          "indexed": false,
          "internalType": "uint256",
          "name": "amount",
          "type": "uint256"
        },
        {
          "indexed": false,
          "internalType": "uint256",
          "name": "targetPrice",
          "type": "uint256"
        },
        {
          "indexed": false,
          "internalType": "uint256",
          "name": "margin",
          "type": "uint256"
        },
        {
          "indexed": false,
          "internalType": "uint256",
          "name": "rewardGas",
          "type": "uint256"
        },
        {
          "indexed": false,
          "internalType": "uint256",
          "name": "tradingFee",
          "type": "uint256"
        },
        {
          "indexed": false,
          "internalType": "uint256",
          "name": "startTime",
          "type": "uint256"
        },
        {
          "indexed": false,
          "internalType": "uint256",
          "name": "goodTill",
          "type": "uint256"
        }
      ],
      "name": "CreateLimitedOrder",
      "type": "event"
    },
    {
      "anonymous": false,
      "inputs": [
        {
          "indexed": false,
          "internalType": "uint256",
          "name": "limitOrderID",
          "type": "uint256"
        },
        {
          "indexed": false,
          "internalType": "uint256",
          "name": "openLimitPrice",
          "type": "uint256"
        },
        {
          "indexed": false,
          "internalType": "uint256",
          "name": "gainTriggerPrice",
          "type": "uint256"
        },
        {
          "indexed": false,
          "internalType": "uint256",
          "name": "gainLimitPrice",
          "type": "uint256"
        },
        {
          "indexed": false,
          "internalType": "uint256",
          "name": "lossTriggerPrice",
          "type": "uint256"
        },
        {
          "indexed": false,
          "internalType": "uint256",
          "name": "lossLimitPrice",
          "type": "uint256"
        }
      ],
      "name": "CreateTriggerCondition",
      "type": "event"
    },
    {
      "anonymous": false,
      "inputs": [
        {
          "indexed": false,
          "internalType": "uint256",
          "name": "code",
          "type": "uint256"
        },
        {
          "indexed": false,
          "internalType": "uint256",
          "name": "orderID",
          "type": "uint256"
        },
        {
          "indexed": false,
          "internalType": "string",
          "name": "message",
          "type": "string"
        }
      ],
      "name": "ErrorInfo",
      "type": "event"
    },
    {
      "anonymous": false,
      "inputs": [
        {
          "indexed": false,
          "internalType": "uint256",
          "name": "code",
          "type": "uint256"
        },
        {
          "indexed": false,
          "internalType": "uint256",
          "name": "orderID",
          "type": "uint256"
        },
        {
          "indexed": false,
          "internalType": "bytes",
          "name": "message",
          "type": "bytes"
        }
      ],
      "name": "ExceptErrorInfo",
      "type": "event"
    },
    {
      "anonymous": false,
      "inputs": [
        {
          "indexed": false,
          "internalType": "uint64",
          "name": "version",
          "type": "uint64"
        }
      ],
      "name": "Initialized",
      "type": "event"
    },
    {
      "anonymous": false,
      "inputs": [
        {
          "indexed": false,
          "internalType": "string",
          "name": "name",
          "type": "string"
        },
        {
          "indexed": true,
          "internalType": "address",
          "name": "taker",
          "type": "address"
        },
        {
          "indexed": true,
          "internalType": "address",
          "name": "token",
          "type": "address"
        },
        {
          "indexed": false,
          "internalType": "uint256",
          "name": "orderID",
          "type": "uint256"
        },
        {
          "indexed": false,
          "internalType": "enum ICommon.Direct",
          "name": "orderType",
          "type": "uint8"
        },
        {
          "indexed": false,
          "internalType": "enum IPerpetual.OrderState",
          "name": "state",
          "type": "uint8"
        },
        {
          "indexed": false,
          "internalType": "enum ICommon.Offset",
          "name": "offset",
          "type": "uint8"
        },
        {
          "indexed": false,
          "internalType": "uint256",
          "name": "amount",
          "type": "uint256"
        },
        {
          "indexed": false,
          "internalType": "uint256",
          "name": "targetPrice",
          "type": "uint256"
        },
        {
          "indexed": false,
          "internalType": "uint256",
          "name": "margin",
          "type": "uint256"
        },
        {
          "indexed": false,
          "internalType": "uint256",
          "name": "rewardGas",
          "type": "uint256"
        },
        {
          "indexed": false,
          "internalType": "uint256",
          "name": "tradingFee",
          "type": "uint256"
        },
        {
          "indexed": false,
          "internalType": "uint256",
          "name": "startTime",
          "type": "uint256"
        },
        {
          "indexed": false,
          "internalType": "uint256",
          "name": "goodTill",
          "type": "uint256"
        }
      ],
      "name": "LimitedOrderHistory",
      "type": "event"
    },
    {
      "anonymous": false,
      "inputs": [
        {
          "indexed": true,
          "internalType": "address",
          "name": "taker",
          "type": "address"
        },
        {
          "indexed": false,
          "internalType": "string",
          "name": "name",
          "type": "string"
        },
        {
          "indexed": false,
          "internalType": "address",
          "name": "token",
          "type": "address"
        },
        {
          "indexed": false,
          "internalType": "uint256",
          "name": "orderID",
          "type": "uint256"
        },
        {
          "indexed": false,
          "internalType": "enum ICommon.Direct",
          "name": "direction",
          "type": "uint8"
        },
        {
          "indexed": false,
          "internalType": "enum IPerpetual.OrderType",
          "name": "orderType",
          "type": "uint8"
        },
        {
          "indexed": false,
          "internalType": "uint256",
          "name": "amount",
          "type": "uint256"
        },
        {
          "indexed": false,
          "internalType": "uint256",
          "name": "costPrice",
          "type": "uint256"
        },
        {
          "indexed": false,
          "internalType": "uint256",
          "name": "price",
          "type": "uint256"
        },
        {
          "indexed": false,
          "internalType": "uint256",
          "name": "tradingFee",
          "type": "uint256"
        },
        {
          "indexed": false,
          "internalType": "uint256",
          "name": "limitOrderId",
          "type": "uint256"
        },
        {
          "indexed": false,
          "internalType": "uint256",
          "name": "timestamp",
          "type": "uint256"
        }
      ],
      "name": "OrderHistory",
      "type": "event"
    },
    {
      "anonymous": false,
      "inputs": [
        {
          "indexed": true,
          "internalType": "address",
          "name": "previousOwner",
          "type": "address"
        },
        {
          "indexed": true,
          "internalType": "address",
          "name": "newOwner",
          "type": "address"
        }
      ],
      "name": "OwnershipTransferred",
      "type": "event"
    },
    {
      "anonymous": false,
      "inputs": [
        {
          "indexed": false,
          "internalType": "address",
          "name": "token",
          "type": "address"
        },
        {
          "indexed": false,
          "internalType": "uint256",
          "name": "orderID",
          "type": "uint256"
        },
        {
          "indexed": false,
          "internalType": "uint256",
          "name": "dealID",
          "type": "uint256"
        },
        {
          "indexed": false,
          "internalType": "enum IPerpetual.TradeType",
          "name": "tradeType",
          "type": "uint8"
        },
        {
          "indexed": false,
          "internalType": "uint256",
          "name": "amount",
          "type": "uint256"
        },
        {
          "indexed": false,
          "internalType": "uint256",
          "name": "price",
          "type": "uint256"
        },
        {
          "indexed": false,
          "internalType": "uint256",
          "name": "tradingFee",
          "type": "uint256"
        },
        {
          "indexed": false,
          "internalType": "uint256",
          "name": "profit",
          "type": "uint256"
        },
        {
          "indexed": false,
          "internalType": "uint256",
          "name": "loss",
          "type": "uint256"
        },
        {
          "indexed": false,
          "internalType": "uint256",
          "name": "timestamp",
          "type": "uint256"
        }
      ],
      "name": "TradeHistory",
      "type": "event"
    },
    {
      "anonymous": false,
      "inputs": [
        {
          "indexed": true,
          "internalType": "address",
          "name": "token",
          "type": "address"
        },
        {
          "indexed": true,
          "internalType": "address",
          "name": "sender",
          "type": "address"
        },
        {
          "indexed": true,
          "internalType": "address",
          "name": "received",
          "type": "address"
        },
        {
          "indexed": false,
          "internalType": "enum ICommon.TransactionType",
          "name": "transactionType",
          "type": "uint8"
        },
        {
          "indexed": false,
          "internalType": "uint256",
          "name": "amount",
          "type": "uint256"
        },
        {
          "indexed": false,
          "internalType": "uint256",
          "name": "timestamp",
          "type": "uint256"
        }
      ],
      "name": "TransactionHistory",
      "type": "event"
    },
    {
      "anonymous": false,
      "inputs": [
        {
          "indexed": false,
          "internalType": "address",
          "name": "token",
          "type": "address"
        },
        {
          "indexed": false,
          "internalType": "address",
          "name": "sender",
          "type": "address"
        },
        {
          "indexed": false,
          "internalType": "address",
          "name": "received",
          "type": "address"
        },
        {
          "indexed": false,
          "internalType": "enum ICommon.TransactionType",
          "name": "transactionType",
          "type": "uint8"
        },
        {
          "indexed": false,
          "internalType": "uint256",
          "name": "amount",
          "type": "uint256"
        },
        {
          "indexed": false,
          "internalType": "uint256",
          "name": "timestamp",
          "type": "uint256"
        }
      ],
      "name": "TransferFee",
      "type": "event"
    },
    {
      "anonymous": false,
      "inputs": [
        {
          "indexed": false,
          "internalType": "address",
          "name": "sender",
          "type": "address"
        },
        {
          "indexed": false,
          "internalType": "string",
          "name": "name",
          "type": "string"
        },
        {
          "indexed": false,
          "internalType": "uint256",
          "name": "beforeLeverage",
          "type": "uint256"
        },
        {
          "indexed": false,
          "internalType": "uint256",
          "name": "afterLeverage",
          "type": "uint256"
        }
      ],
      "name": "setLeverage",
      "type": "event"
    },
    {
      "stateMutability": "nonpayable",
      "type": "fallback"
    },
    {
      "inputs": [
        {
          "internalType": "enum ICommon.Direct",
          "name": "_type",
          "type": "uint8"
        },
        {
          "internalType": "uint256",
          "name": "_currentPrice",
          "type": "uint256"
        },
        {
          "internalType": "uint256",
          "name": "_dealPrice",
          "type": "uint256"
        },
        {
          "internalType": "uint256",
          "name": "_amount",
          "type": "uint256"
        },
        {
          "internalType": "uint256",
          "name": "_willClose",
          "type": "uint256"
        }
      ],
      "name": "calDealPNL",
      "outputs": [
        {
          "internalType": "uint256",
          "name": "profit",
          "type": "uint256"
        },
        {
          "internalType": "uint256",
          "name": "loss",
          "type": "uint256"
        }
      ],
      "stateMutability": "pure",
      "type": "function"
    },
    {
      "inputs": [
        {
          "internalType": "uint256",
          "name": "_orderID",
          "type": "uint256"
        },
        {
          "internalType": "address",
          "name": "_taker",
          "type": "address"
        },
        {
          "internalType": "bool",
          "name": "_status",
          "type": "bool"
        }
      ],
      "name": "cancelOrder",
      "outputs": [],
      "stateMutability": "nonpayable",
      "type": "function"
    },
    {
      "inputs": [
        {
          "internalType": "uint256",
          "name": "_oID",
          "type": "uint256"
        },
        {
          "internalType": "uint256",
          "name": "_price",
          "type": "uint256"
        }
      ],
      "name": "checkLimitOrder",
      "outputs": [
        {
          "internalType": "bool",
          "name": "success",
          "type": "bool"
        }
      ],
      "stateMutability": "view",
      "type": "function"
    },
    {
      "inputs": [
        {
          "internalType": "uint256[]",
          "name": "_orders",
          "type": "uint256[]"
        },
        {
          "internalType": "uint256[]",
          "name": "_prices",
          "type": "uint256[]"
        }
      ],
      "name": "checkLimitOrders",
      "outputs": [
        {
          "internalType": "bool[]",
          "name": "result",
          "type": "bool[]"
        }
      ],
      "stateMutability": "view",
      "type": "function"
    },
    {
      "inputs": [
        {
          "internalType": "uint256[]",
          "name": "_deal",
          "type": "uint256[]"
        },
        {
          "internalType": "uint256[]",
          "name": "_price",
          "type": "uint256[]"
        }
      ],
      "name": "checkMakerDealsRiskStatus",
      "outputs": [
        {
          "internalType": "bool[]",
          "name": "riskStatus",
          "type": "bool[]"
        }
      ],
      "stateMutability": "view",
      "type": "function"
    },
    {
      "inputs": [
        {
          "internalType": "address",
          "name": "_taker",
          "type": "address"
        },
        {
          "internalType": "string[]",
          "name": "_symbols",
          "type": "string[]"
        },
        {
          "internalType": "uint256[]",
          "name": "_prices",
          "type": "uint256[]"
        }
      ],
      "name": "checkTakerRiskStatus",
      "outputs": [
        {
          "internalType": "bool",
          "name": "isRisk",
          "type": "bool"
        },
        {
          "internalType": "uint256",
          "name": "netLoss",
          "type": "uint256"
        },
        {
          "internalType": "uint256",
          "name": "overLoss",
          "type": "uint256"
        },
        {
          "internalType": "uint256",
          "name": "loss",
          "type": "uint256"
        }
      ],
      "stateMutability": "view",
      "type": "function"
    },
    {
      "inputs": [
        {
          "internalType": "address[]",
          "name": "_takers",
          "type": "address[]"
        },
        {
          "internalType": "string[]",
          "name": "_symbols",
          "type": "string[]"
        },
        {
          "internalType": "uint256[]",
          "name": "_prices",
          "type": "uint256[]"
        }
      ],
      "name": "checkTakersRiskStatus",
      "outputs": [
        {
          "internalType": "bool[]",
          "name": "riskStatus",
          "type": "bool[]"
        }
      ],
      "stateMutability": "view",
      "type": "function"
    },
    {
      "inputs": [
        {
          "internalType": "address",
          "name": "_taker",
          "type": "address"
        },
        {
          "internalType": "string",
          "name": "_pair",
          "type": "string"
        },
        {
          "internalType": "enum ICommon.Direct",
          "name": "_type",
          "type": "uint8"
        },
        {
          "internalType": "uint256",
          "name": "_currentPrice",
          "type": "uint256"
        },
        {
          "internalType": "uint256",
          "name": "_deposit",
          "type": "uint256"
        }
      ],
      "name": "clearingTakerPosition",
      "outputs": [
        {
          "internalType": "uint256",
          "name": "remainingDeposit",
          "type": "uint256"
        },
        {
          "internalType": "bool",
          "name": "clear",
          "type": "bool"
        }
      ],
      "stateMutability": "nonpayable",
      "type": "function"
    },
    {
      "inputs": [
        {
          "internalType": "address",
          "name": "_taker",
          "type": "address"
        },
        {
          "internalType": "uint256",
          "name": "_dealID",
          "type": "uint256"
        },
        {
          "internalType": "uint256",
          "name": "_amount",
          "type": "uint256"
        },
        {
          "internalType": "enum IPerpetual.TradeType",
          "name": "_tradeType",
          "type": "uint8"
        },
        {
          "internalType": "uint256",
          "name": "_currentPrice",
          "type": "uint256"
        },
        {
          "internalType": "uint256",
          "name": "_tradeFeeRate",
          "type": "uint256"
        },
        {
          "internalType": "uint256",
          "name": "_profit",
          "type": "uint256"
        },
        {
          "internalType": "uint256",
          "name": "_loss",
          "type": "uint256"
        }
      ],
      "name": "closeDealEvent",
      "outputs": [],
      "stateMutability": "nonpayable",
      "type": "function"
    },
    {
      "inputs": [
        {
          "internalType": "address",
          "name": "_taker",
          "type": "address"
        },
        {
          "internalType": "string",
          "name": "_name",
          "type": "string"
        },
        {
          "internalType": "uint256",
          "name": "_amount",
          "type": "uint256"
        },
        {
          "internalType": "uint256",
          "name": "_currentPrice",
          "type": "uint256"
        },
        {
          "internalType": "enum ICommon.Direct",
          "name": "_type",
          "type": "uint8"
        },
        {
          "internalType": "uint256",
          "name": "_limitID",
          "type": "uint256"
        }
      ],
      "name": "closeOrder",
      "outputs": [
        {
          "components": [
            {
              "internalType": "uint256",
              "name": "totalMargin",
              "type": "uint256"
            },
            {
              "internalType": "uint256",
              "name": "tradingFee",
              "type": "uint256"
            },
            {
              "internalType": "uint256",
              "name": "gain",
              "type": "uint256"
            },
            {
              "internalType": "uint256",
              "name": "loss",
              "type": "uint256"
            }
          ],
          "internalType": "struct ICommon.CloseOrderResult",
          "name": "bulk",
          "type": "tuple"
        }
      ],
      "stateMutability": "nonpayable",
      "type": "function"
    },
    {
      "inputs": [
        {
          "internalType": "address",
          "name": "_user",
          "type": "address"
        },
        {
          "internalType": "string",
          "name": "_name",
          "type": "string"
        },
        {
          "internalType": "uint256",
          "name": "_price",
          "type": "uint256"
        }
      ],
      "name": "getMaxOpenAmount",
      "outputs": [
        {
          "internalType": "uint256",
          "name": "amount",
          "type": "uint256"
        }
      ],
      "stateMutability": "view",
      "type": "function"
    },
    {
      "inputs": [
        {
          "internalType": "address",
          "name": "_user",
          "type": "address"
        },
        {
          "internalType": "string[]",
          "name": "_symbols",
          "type": "string[]"
        },
        {
          "internalType": "uint256[]",
          "name": "_prices",
          "type": "uint256[]"
        }
      ],
      "name": "getMaxWithdrawableAmount",
      "outputs": [
        {
          "internalType": "uint256",
          "name": "_amount",
          "type": "uint256"
        }
      ],
      "stateMutability": "view",
      "type": "function"
    },
    {
      "inputs": [
        {
          "internalType": "address",
          "name": "_user",
          "type": "address"
        },
        {
          "internalType": "string[]",
          "name": "_symbols",
          "type": "string[]"
        },
        {
          "internalType": "uint256[]",
          "name": "_prices",
          "type": "uint256[]"
        }
      ],
      "name": "getPNL",
      "outputs": [
        {
          "internalType": "bool",
          "name": "flag",
          "type": "bool"
        },
        {
          "internalType": "uint256",
          "name": "amount",
          "type": "uint256"
        }
      ],
      "stateMutability": "view",
      "type": "function"
    },
    {
      "inputs": [
        {
          "internalType": "address",
          "name": "_taker",
          "type": "address"
        },
        {
          "internalType": "string",
          "name": "_name",
          "type": "string"
        },
        {
          "internalType": "uint256",
          "name": "_price",
          "type": "uint256"
        },
        {
          "internalType": "uint8",
          "name": "_direction",
          "type": "uint8"
        }
      ],
      "name": "getPNLByCertainPosition",
      "outputs": [
        {
          "internalType": "uint256",
          "name": "profit",
          "type": "uint256"
        },
        {
          "internalType": "uint256",
          "name": "loss",
          "type": "uint256"
        }
      ],
      "stateMutability": "view",
      "type": "function"
    },
    {
      "inputs": [
        {
          "internalType": "address",
          "name": "_taker",
          "type": "address"
        },
        {
          "internalType": "string[]",
          "name": "_symbols",
          "type": "string[]"
        },
        {
          "internalType": "uint256[]",
          "name": "_prices",
          "type": "uint256[]"
        }
      ],
      "name": "getPNLByPosition",
      "outputs": [
        {
          "internalType": "uint256",
          "name": "totalProfit",
          "type": "uint256"
        },
        {
          "internalType": "uint256",
          "name": "totalLoss",
          "type": "uint256"
        }
      ],
      "stateMutability": "view",
      "type": "function"
    },
    {
      "inputs": [],
      "name": "getShareNetValue",
      "outputs": [
        {
          "internalType": "uint256",
          "name": "",
          "type": "uint256"
        }
      ],
      "stateMutability": "view",
      "type": "function"
    },
    {
      "inputs": [
        {
          "internalType": "address",
          "name": "initialOwner",
          "type": "address"
        },
        {
          "internalType": "address",
          "name": "_priPool",
          "type": "address"
        },
        {
          "internalType": "address",
          "name": "_perpetual",
          "type": "address"
        },
        {
          "internalType": "address",
          "name": "_settle",
          "type": "address"
        }
      ],
      "name": "initialize",
      "outputs": [],
      "stateMutability": "nonpayable",
      "type": "function"
    },
    {
      "inputs": [
        {
          "internalType": "uint256",
          "name": "_dealID",
          "type": "uint256"
        },
        {
          "internalType": "uint256",
          "name": "_price",
          "type": "uint256"
        }
      ],
      "name": "liquidateMakerDeal",
      "outputs": [
        {
          "internalType": "bool",
          "name": "isLiquidated",
          "type": "bool"
        },
        {
          "internalType": "bool",
          "name": "isAgreement",
          "type": "bool"
        },
        {
          "internalType": "uint256",
          "name": "userProfit",
          "type": "uint256"
        }
      ],
      "stateMutability": "nonpayable",
      "type": "function"
    },
    {
      "inputs": [
        {
          "internalType": "uint256[]",
          "name": "_dealIDs",
          "type": "uint256[]"
        },
        {
          "internalType": "string[]",
          "name": "_symbols",
          "type": "string[]"
        },
        {
          "internalType": "uint256[]",
          "name": "_prices",
          "type": "uint256[]"
        }
      ],
      "name": "liquidateMakerDeals",
      "outputs": [],
      "stateMutability": "nonpayable",
      "type": "function"
    },
    {
      "inputs": [],
      "name": "owner",
      "outputs": [
        {
          "internalType": "address",
          "name": "",
          "type": "address"
        }
      ],
      "stateMutability": "view",
      "type": "function"
    },
    {
      "inputs": [],
      "name": "renounceOwnership",
      "outputs": [],
      "stateMutability": "nonpayable",
      "type": "function"
    },
    {
      "inputs": [
        {
          "internalType": "address",
          "name": "_orderBook",
          "type": "address"
        },
        {
          "internalType": "address",
          "name": "_station",
          "type": "address"
        }
      ],
      "name": "setKeepers",
      "outputs": [],
      "stateMutability": "nonpayable",
      "type": "function"
    },
    {
      "inputs": [
        {
          "internalType": "address",
          "name": "newOwner",
          "type": "address"
        }
      ],
      "name": "transferOwnership",
      "outputs": [],
      "stateMutability": "nonpayable",
      "type": "function"
    },
    {
      "inputs": [
        {
          "internalType": "string",
          "name": "_name",
          "type": "string"
        },
        {
          "internalType": "enum ICommon.Direct",
          "name": "_type",
          "type": "uint8"
        }
      ],
      "name": "verifyTradeStatus",
      "outputs": [],
      "stateMutability": "view",
      "type": "function"
    }
  ],
  "bytecode": "0x60808060405234601557614509908161001b8239f35b600080fdfe6080604052600436101561001a575b3461001557005b600080fd5b60003560e01c8063016f4dcb14611ac65780632b00020614611a1c5780633b1e6a5914611a01578063642bcd1814611996578063715018a6146118f0578063721db5621461189a5780638da5cb5b146118545780639324b549146117d35780639aa59c65146117ac578063b7288fdd14611611578063c254878b146115de578063c2b33564146114cd578063ca2afc4e14611406578063ca6ec372146112a5578063cd3fd61714610d31578063d0e3d0dc14610b61578063e6b34c6914610b3e578063eb4f2e361461079d578063ede13d8c14610778578063f2fde38b1461075a578063f5a4bc66146105bf578063f69ef33b14610555578063f8c8765e146102585763fafc57f20361000e57346100155760606003193601126100155760043567ffffffffffffffff8111610015573660238201121561001557806004013561016381611bc3565b916101716040519384611ba0565b8183526024602084019260051b8201019036821161001557602401915b818310610238578360243567ffffffffffffffff8111610015576101b6903690600401611d26565b60443567ffffffffffffffff8111610015576101d6903690600401611bdb565b8251916101e283612a5b565b9360005b8481106101ff57604051806101fb8882611c87565b0390f35b8061022085856001600160a01b03610219600196886123f9565b5116613359565b50505061022d82896123f9565b9015159052016101e6565b82356001600160a01b03811681036100155781526020928301920161018e565b3461001557608060031936011261001557610271611b26565b610279611b3c565b906044356001600160a01b03811680910361001557606435916001600160a01b038316809303610015577ff0c57e16840df040f15088dc2f81fe391c3923bec73e23a9662efc9c229c6a00549360ff8560401c16159467ffffffffffffffff81168015908161054d575b6001149081610543575b15908161053a575b50610510576001600160a01b0392818760017fffffffffffffffffffffffffffffffffffffffffffffffff000000000000000061037c9516177ff0c57e16840df040f15088dc2f81fe391c3923bec73e23a9662efc9c229c6a00556104bb575b5061035e61447a565b61036661447a565b61036f33613918565b610377613d94565b613918565b168073ffffffffffffffffffffffffffffffffffffffff19600154161760015560005260056020526040600020600160ff198254161790558073ffffffffffffffffffffffffffffffffffffffff19600254161760025560005260056020526040600020600160ff198254161790553060005260056020526040600020600160ff1982541617905573ffffffffffffffffffffffffffffffffffffffff19600054161760005561042857005b7fffffffffffffffffffffffffffffffffffffffffffffff00ffffffffffffffff7ff0c57e16840df040f15088dc2f81fe391c3923bec73e23a9662efc9c229c6a0054167ff0c57e16840df040f15088dc2f81fe391c3923bec73e23a9662efc9c229c6a00557fc7f505b2f371ae2175ee4913f4499e1f2633a7b5936321eed1cdaeb6115181d2602060405160018152a1005b7fffffffffffffffffffffffffffffffffffffffffffffff0000000000000000001668010000000000000001177ff0c57e16840df040f15088dc2f81fe391c3923bec73e23a9662efc9c229c6a005587610355565b7ff92ee8a90000000000000000000000000000000000000000000000000000000060005260046000fd5b905015876102f5565b303b1591506102ed565b8791506102e3565b346100155761056336611c38565b81519061056f82612a5b565b9260005b83811061058857604051806101fb8782611c87565b806105aa610598600193856123f9565b516105a383876123f9565b51906139e4565b6105b482886123f9565b901515905201610573565b3461001557610100600319360112610015576105d9611b26565b6044356064356005811015610015576084359260c4359160e4359233600052600560205261060e60ff60406000205416611e04565b7fc136432a1484e156abdd300674f3ca1991800b1936e60da2b47c69dda822f75a610140670de0b6b3a7640000806106518a61064c8b60a435611fd4565b611fd4565b040461065b613cc7565b906001600160a01b036000541691604051928352602083015260243560408301526000998a998a976060850152608084015260a083015260c08201528360e08201528661010082015242610120820152a180610706575b5050816106bd575050f35b7feb42cf637f927243245c50b4bf7fe105fe4f4d26209102240f2ba3d8e27a7df860606001600160a01b038086541693604051956005875260208701524260408701521693a480f35b6001600160a01b03825416604051916004835260208301524260408301527feb42cf637f927243245c50b4bf7fe105fe4f4d26209102240f2ba3d8e27a7df860606001600160a01b03861693a482856106b2565b346100155760206003193601126100155761077661036f611b26565b005b3461001557604061079161078b36611da5565b91613893565b82519182526020820152f35b346100155760606003193601126100155760043567ffffffffffffffff8111610015576107ce903690600401611bdb565b60243567ffffffffffffffff8111610015576107ee903690600401611d26565b9060443567ffffffffffffffff81116100155761080f903690600401611bdb565b9033600052600560205261082a60ff60406000205416611e04565b805191600090602085019060208101925b85811061084457005b6001600160a01b03600354169061085b81876123f9565b519160405180937fdcee347500000000000000000000000000000000000000000000000000000000825260648201906004830152606060248301528a51809152608482019060848160051b84010191889160005b818110610af357505050506003198282030160448301526020865191828152019088906000905b808210610ad757505050918160008160a09503925af18015610a4657600080809181958294610a6b575b5081610a63575b50610919575b5050600191500161083b565b6001600160a01b036002541693843b1561001557604051927f9048f2e0000000000000000000000000000000000000000000000000000000008452600084604481836001600160a01b0387169a8b60048401528160248401525af1938415610a46576109cc94610a52575b5061098e82613fb5565b9261099a818551612007565b84526109b4826109af60208701938451612007565b612007565b90526109c560408401918251611fc7565b9052614189565b6001600160a01b036002541691823b15610015576000926044849260405195869384927f9048f2e00000000000000000000000000000000000000000000000000000000084526004840152600a60248401525af1918215610a4657600192610a35575b8061090d565b6000610a4091611ba0565b88610a2f565b6040513d6000823e3d90fd5b6000610a5d91611ba0565b8c610984565b90508b610907565b95505091505060a0833d8211610acf575b81610a8960a09383611ba0565b81010312610acc5750610a9b8261239d565b91610aa86020820161239d565b906040810151916080610abd60608401611e4f565b9201519490929194928c610900565b80fd5b3d9150610a7c565b91935091602080600192865181520194019201869392916108d6565b91936020610b2e827fffffffffffffffffffffffffffffffffffffffffffffffffffffffffffffff7c600195979984950301885288516132ba565b96019401910191879493926108af565b34610015576020610b57610b5136611b10565b90613564565b6040519015158152f35b346100155760406003193601126100155760043567ffffffffffffffff811161001557610b92903690600401611cdf565b60243590600382101561001557610bb06001600160a01b0391614099565b168015610ced5760006001600160a01b03600254166024604051809481937fa666200f00000000000000000000000000000000000000000000000000000000835260048301525afa8015610a46576101c091600091610cca575b500151610c8657610c1a81611fbd565b60018114908115610c72575b5015610c2e57005b606460405162461bcd60e51b815260206004820152600a60248201527f77726f6e672074797065000000000000000000000000000000000000000000006044820152fd5b60029150610c7f81611fbd565b1481610c26565b606460405162461bcd60e51b815260206004820152601360248201527f446f206e6f7420747261646520737461747573000000000000000000000000006044820152fd5b610ce791503d806000833e610cdf8183611ba0565b81019061342d565b83610c0a565b606460405162461bcd60e51b815260206004820152600960248201527f756e537570706f727400000000000000000000000000000000000000000000006044820152fd5b346100155760c060031936011261001557610d4a611b26565b60243567ffffffffffffffff811161001557610d6a903690600401611cdf565b604435606435906084359260038410156100155760a43594610d8a6133f7565b50336000526005602052610da560ff60406000205416611e04565b610dad6133f7565b95610db6612a8c565b94610dc087611fbd565b610dd3610dcc88612c3f565b8585613df5565b929050602089929901986060830193845289528152600060c0604051610df881611b52565b8281528260208201528260408201528260608201528260808201528260a082015201526001600160a01b03600254166040517fe1fb28b800000000000000000000000000000000000000000000000000000000815260208180610e5f8b8b600484016132df565b0381855afa8015610a4657600090611272575b60e0915060846001600160a01b03610e898b614099565b169360405194859384927f07ec446600000000000000000000000000000000000000000000000000000000845260048401528d602484015289604484015260648301525afa8015610a4657604091600091611243575b50015160208b019081529160001985036111f75788519051610f0091611fc7565b87116111b3575b51670de0b6b3a7640000810290808204670de0b6b3a7640000149015171561119d578751610f3491611fe7565b610f3c613cc7565b908251916001600160a01b036000541692604051916101608352610f6461016084018b6132ba565b9460208401526040830152610f788c611fbd565b606082018c90527f3174923aee4fc7c29de893ec1a82807b9f70eea78b57219cce0e76a78350dd4792600360808401528a60a084015260c08301528560e08301526101008201528561012082015242610140820152806001600160a01b038816930390a2610fe588611fbd565b610ff9610ff189612c3f565b838787612ba5565b949060408b019860608c01968752818a528881518110611151575b50505061102b896000978893898952898c52613ea9565b60018a149990875b815181101561113c57600061104784611fbd565b8c156110ff575061105881836123f9565b515b8a8a10156110c9578a6000198203611077575b5050600101611033565b8a6110b76110af61109f8c6110a99a9f600198976110998f926110c099611fc7565b9061422b565b90929b9195612007565b9e612007565b978c51612007565b8b528d51612007565b8c52908a61106d565b50505050975093505050929150836080955b6110e3613d44565b5052604051938452516020840152516040830152516060820152f35b61110a828451611fc7565b906000198201918211611128575061112290836123f9565b5161105a565b80634e487b7160e01b602492526011600452fd5b505050975093505050929150836080956110db565b6111616111699161117e94611fd4565b825190611fe7565b8a52611176898851611fd4565b905190611fe7565b508a8088611014565b634e487b7160e01b600052602160045260246000fd5b634e487b7160e01b600052601160045260246000fd5b606460405162461bcd60e51b815260206004820152601360248201527f636c6f736520616d6f756e7420657863656564000000000000000000000000006044820152fd5b51871115610f0757606460405162461bcd60e51b815260206004820152601b60248201527f616d6f756e74206973206772656174207468656e20667265657a6500000000006044820152fd5b611265915060e03d60e01161126b575b61125d8183611ba0565b8101906132ff565b8c610edf565b503d611253565b506020813d60201161129d575b8161128c60209383611ba0565b810103126100155760e09051610e72565b3d915061127f565b346100155760a060031936011261001557600435600381101561001557602435604435906064356084359360016000916112de81611fbd565b036113b65750919290919083831061138e57670de0b6b3a7640000936113148361130f61131a946113209796611fd4565b611fe7565b92611fc7565b90611fd4565b046000905b80158015611386575b156113425760409182519182526020820152f35b606460405162461bcd60e51b815260206004820152600960248201527f504e4c206572726f7200000000000000000000000000000000000000000000006044820152fd5b50811561132e565b9261131a670de0b6b3a7640000936113146113af9461130f60009882611fd4565b0490611325565b8383116113e657506113dd92916113148261130f670de0b6b3a76400009761131a95611fd4565b04600090611325565b670de0b6b3a7640000936113146113af949361130f61131a949882611fd4565b346100155761141436611da5565b919061142d60009361142584613fb5565b92859461328a565b90156114c5575b5060408101519261144361413b565b670de0b6b3a764000003670de0b6b3a7640000811161119d57611471670de0b6b3a764000091602096611fd4565b0481811061148957505082915001515b604051908152f35b9091840182611499838351612007565b10156114a8575b505050611481565b6114bd9350906114b89151612007565b611fc7565b8280806114a0565b925083611434565b34610015576060600319360112610015576114e6611b3c565b6044358015158091036100155760206000913383526005825261150f60ff604085205416611e04565b60646001600160a01b03600354169160405194859384927fc2b3356400000000000000000000000000000000000000000000000000000000845260043560048501526001600160a01b038916602485015260448401525af1908115610a46576000916115ac575b508061157e57005b8161158b61077693613fb5565b916020830161159b828251612007565b90526109c560608401918251611fc7565b906020823d6020116115d6575b816115c660209383611ba0565b81010312610acc57505182611576565b3d91506115b9565b346100155760806115f76115f136611da5565b91613359565b916040519315158452602084015260408301526060820152f35b346100155760606003193601126100155761162a611b26565b60243567ffffffffffffffff81116100155761164a903690600401611cdf565b61169b61165683613fb5565b916020816001600160a01b03600254169560405194859283927fe1fb28b8000000000000000000000000000000000000000000000000000000008452600484016132df565b0381875afa918215610a4657600092611777575b509060846001600160a01b036116c660e094614099565b169460405195869384927f07ec446600000000000000000000000000000000000000000000000000000000845260048401526402540be4006024840152604435604484015260648301525afa918215610a4657600092611753575b5060200151906402540be4008202918083046402540be400149015171561119d57602091606061148192015190611fe7565b60209192506117709060e03d60e01161126b5761125d8183611ba0565b9190611721565b91506020823d6020116117a4575b8161179260209383611ba0565b810103126100155790519060846116af565b3d9150611785565b346100155760406117c56117bf36611da5565b9161328a565b825191151582526020820152f35b346100155760a0600319360112610015576117ec611b26565b60243567ffffffffffffffff81116100155761180c903690600401611cdf565b604435906003821015610015576040926118469233600052600560205261183960ff866000205416611e04565b6084359260643592612c52565b825191825215156020820152f35b346100155760006003193601126100155760206001600160a01b037f9016d09d72d40fdae2fd8ceac6b6234c7706214fd39c1cd1e609a0528c1993005416604051908152f35b34610015576080600319360112610015576118b3611b26565b60243567ffffffffffffffff8111610015576118d3903690600401611cdf565b60643560ff81168103610015576040926107919260443591612ba5565b3461001557600060031936011261001557611909613d94565b60006001600160a01b037f9016d09d72d40fdae2fd8ceac6b6234c7706214fd39c1cd1e609a0528c1993005473ffffffffffffffffffffffffffffffffffffffff1981167f9016d09d72d40fdae2fd8ceac6b6234c7706214fd39c1cd1e609a0528c19930055167f8be0079c531659141344cd1fd0a4f28419497f9722a3daafe3b4186f6b6457e08280a3005b34610015576119a436611c38565b906119af8151612a5b565b9160005b82518110156119f357806119de6119cc600193866123f9565b516119d783866123f9565b5190613564565b6119e882876123f9565b9015159052016119b3565b604051806101fb8682611c87565b34610015576000600319360112610015576020611481612423565b3461001557604060031936011261001557611a35611b26565b6001600160a01b0380611a46611b3c565b92611a4f613d94565b16918260005260056020526040600020600160ff1982541617905516908160005260056020526040600020600160ff1982541617905573ffffffffffffffffffffffffffffffffffffffff19600354161760035573ffffffffffffffffffffffffffffffffffffffff196004541617600455600080f35b34610015576060611af9611ad936611b10565b90336000526005602052611af460ff60406000205416611e04565b612014565b906040519215158352151560208301526040820152f35b6003196040910112610015576004359060243590565b600435906001600160a01b038216820361001557565b602435906001600160a01b038216820361001557565b60e0810190811067ffffffffffffffff821117611b6e57604052565b634e487b7160e01b600052604160045260246000fd5b60a0810190811067ffffffffffffffff821117611b6e57604052565b90601f601f19910116810190811067ffffffffffffffff821117611b6e57604052565b67ffffffffffffffff8111611b6e5760051b60200190565b9080601f83011215610015578135611bf281611bc3565b92611c006040519485611ba0565b81845260208085019260051b82010192831161001557602001905b828210611c285750505090565b8135815260209182019101611c1b565b9060406003198301126100155760043567ffffffffffffffff81116100155782611c6491600401611bdb565b916024359067ffffffffffffffff821161001557611c8491600401611bdb565b90565b602060408183019282815284518094520192019060005b818110611cab5750505090565b82511515845260209384019390920191600101611c9e565b67ffffffffffffffff8111611b6e57601f01601f191660200190565b81601f8201121561001557803590611cf682611cc3565b92611d046040519485611ba0565b8284526020838301011161001557816000926020809301838601378301015290565b9080601f83011215610015578135611d3d81611bc3565b92611d4b6040519485611ba0565b81845260208085019260051b820101918383116100155760208201905b838210611d7757505050505090565b813567ffffffffffffffff811161001557602091611d9a87848094880101611cdf565b815201910190611d68565b6060600319820112610015576004356001600160a01b0381168103610015579160243567ffffffffffffffff81116100155782611de491600401611d26565b916044359067ffffffffffffffff821161001557611c8491600401611bdb565b15611e0b57565b606460405162461bcd60e51b815260206004820152601a60248201527f63616c6c6572206973206e6f74206167656e74206b65657065720000000000006044820152fd5b51906001600160a01b038216820361001557565b60005b838110611e765750506000910152565b8181015183820152602001611e66565b81601f82011215610015578051611e9c81611cc3565b92611eaa6040519485611ba0565b8184526020828401011161001557611c849160208085019101611e63565b6020818303126100155780519067ffffffffffffffff8211610015570190610160828203126100155760405191610160830183811067ffffffffffffffff821117611b6e57604052611f1981611e4f565b83526020810151600381101561001557602084015260408101516006811015610015576040840152606081015160038110156100155760608401526080810151608084015260a081015167ffffffffffffffff81116100155761014092611f81918301611e86565b60a084015260c081015160c084015260e081015160e0840152610100810151610100840152610120810151610120840152015161014082015290565b6003111561118757565b9190820391821161119d57565b8181029291811591840414171561119d57565b8115611ff1570490565b634e487b7160e01b600052601260045260246000fd5b9190820180921161119d57565b919060249160006001600160a01b0360035416604051948580926320bf56eb60e21b82528860048301525afa928315610a465760009361237a575b5061205a82856139e4565b1561236e5760208301926001845161207181611fbd565b61207a81611fbd565b1480612361575b1561227d5760c0810193845195670de0b6b3a76400006120aa60e085019861131a8a5189611fc7565b04946120b7818784613be9565b909a925098908a1561226a5780890361220f575b5050505b6001600160a01b038451169160a0850151926120e9613cc7565b94516120f481611fbd565b60c087019460e08651980151916001600160a01b0360005416976121256040519361016085526101608501906132ba565b986020840152604083015261213981611fbd565b606082015280610140977f3174923aee4fc7c29de893ec1a82807b9f70eea78b57219cce0e76a78350dd47937fc136432a1484e156abdd300674f3ca1991800b1936e60da2b47c69dda822f75a9a6005608085015260a084015260c08301528660e0830152600061010083015260001961012083015242898301520390a26121bf613d44565b9251906001600160a01b0360005416936040519485526020850152604084015260036060840152608083015260a0820152600060c08201528460e0820152600061010082015242610120820152a1565b909250612236919750670de0b6b3a764000061223082998551905190611fd4565b04612007565b670de0b6b3a7640000810290808204670de0b6b3a7640000149015171561119d57612262915190611fe7565b3880806120cb565b5060009950899850889750505050505050565b6002845161228a81611fbd565b61229381611fbd565b1480612354575b156123475760c0810193845195670de0b6b3a76400006122c360e085019861131a888b51611fc7565b04946122d0818784613be9565b909a925098908a1561226a578089036122ec575b5050506120cf565b909250612313919750670de0b6b3a764000061230d82998551905190611fd4565b04611fc7565b670de0b6b3a7640000810290808204670de0b6b3a7640000149015171561119d5761233f915190611fe7565b3880806122e4565b5060009350839250829150565b508260e08201511161229a565b5060e08101518311612081565b60009350839250829150565b61239691933d8091833e61238e8183611ba0565b810190611ec8565b913861204f565b5190811515820361001557565b919060a083820312610015576123bf8361239d565b9260208101519260408201519260608301519067ffffffffffffffff8211610015576123f2608091611c84938601611e86565b9301611e4f565b805182101561240d5760209160051b010190565b634e487b7160e01b600052603260045260246000fd5b6001600160a01b036001541690604051917fcf5bd3770000000000000000000000000000000000000000000000000000000083526017600484015260006024840152600083604481845afa908115610a4657604493600092612a37575b50600090604051948580927fcf5bd377000000000000000000000000000000000000000000000000000000008252600e60048301528460248301525afa928315610a465760009081908295612a0d575b5082159081159182612a05575b6129f457821490816129ec575b506129bf576001600160a01b0360025416936040517fcd2ce4ae000000000000000000000000000000000000000000000000000000008152600081600481895afa908115610a4657600091612902575b5060015492946000946001600160a01b039094169385939285929091855b83518910156128475761256b89856123f9565b51906001600160a01b0361257e83614099565b169060208d6024604051809581937f41976e0900000000000000000000000000000000000000000000000000000000835260048301525afa918215610a4657600092612814575b50811561280857604051926040840184811067ffffffffffffffff821117611b6e57604052600084526020840190600082526000926040516306461a8b60e11b81526001600160a01b038c1694856004830152606060248301526040828d8180612632606482018a6132ba565b86604483015203915afa9182156127fb57908f979695949392918180936127b0575b50508185528852670de0b6b3a764000090612670908790611fd4565b049087518083101560001461279157509161269d6126956040936126ca979695612007565b895190611fc7565b965b60009483518097819482936306461a8b60e11b845260048401526060602484015260648301906132ba565b6001604483015203915afa92831561278657828094612746575b50508290528452670de0b6b3a7640000916126fe91611fd4565b0491828151101560001461272757916114b861271e926001945190612007565b985b0197612558565b612738600193612740939c9a612007565b905190611fc7565b96612720565b91935091506040823d821161277e575b8161276360409383611ba0565b81010312610acc5750805160209091015191816126fe6126e4565b3d9150612756565b6040513d84823e3d90fd5b6040926126ca96959492989f6127aa926114b891612007565b9d61269f565b925092939495969750506040823d82116127f3575b816127d260409383611ba0565b81010312610acc575080516020909101518e96959493929186612670612654565b3d91506127c5565b50604051903d90823e3d90fd5b99905060019150612720565b90916020823d821161283f575b8161282e60209383611ba0565b81010312610acc57505190386125c5565b3d9150612821565b9597509793509750505061285b9250612007565b90808211156128985761286d91611fc7565b90670de0b6b3a7640000820291808304670de0b6b3a7640000149015171561119d57611c8491611fe7565b608460405162461bcd60e51b815260206004820152602160248201527f657363726f77206163636f756e742073686f756c64206265206465746f6e617460448201527f65000000000000000000000000000000000000000000000000000000000000006064820152fd5b3d8083833e6129118183611ba0565b8101906020818303126129bb5780519067ffffffffffffffff82116129b3570181601f820112156129bb57805161294781611bc3565b936129556040519586611ba0565b81855260208086019260051b840101928484116129b75760208101925b848410612985575050505050503861253a565b835167ffffffffffffffff81116129b3576020916129a888848094870101611e86565b815201930192612972565b8380fd5b5080fd5b8280fd5b919250670de0b6b3a7640000820291808304670de0b6b3a7640000149015171561119d57611c8491611fe7565b9050386124ea565b50670de0b6b3a76400009450505050565b5082156124dd565b919050612a2d9294503d8091833e612a258183611ba0565b8101906123aa565b95935050386124d0565b6000919250612a4f903d8084833e612a258183611ba0565b50509150509190612480565b90612a6582611bc3565b612a726040519182611ba0565b828152601f19612a828294611bc3565b0190602036910137565b60405190612a9982611b84565b60606080836000815260006020820152600060408201526000838201520152565b90918015612b2857670de0b6b3a7640000612afb600092612ae660008097612ae0612a8c565b97613df5565b50604088015260208701819052908652611fd4565b0490825180831015600014612b1a575050612b17915190611fc7565b91565b90949350611c849250611fc7565b505050600090600090565b9291926000908415612b9d57670de0b6b3a7640000612b778396612b6260018697612b5c612a8c565b96613df5565b50604087015260208601819052908552611fd4565b825191900492508211612b9157612b179293945051611fc7565b611c8492505190611fc7565b509250508190565b919290928015612c335760ff670de0b6b3a7640000612bea600093612bd586600099612bcf612a8c565b99613df5565b5060408a015260208901819052908852611fd4565b049216612c19578251808310612c095750612b17929161273891612007565b611c8493506114b8919594612007565b825190949392908211612b9157612b179293945051611fc7565b50505050600090600090565b60ff6000199116019060ff821161119d57565b9093929192612c5f612a8c565b9094612c6a85611fbd565b612c7d612c7686612c3f565b8285613df5565b9592906020860196606087015260408601528186528452612ca45750505050505090600090565b612cb097959697613cc7565b9380519351670de0b6b3a7640000810290808204670de0b6b3a7640000149015171561119d57612ce1915190611fe7565b926001600160a01b036000541690604051956101608752612d066101608801866132ba565b9260208801526040870152612d1a89611fbd565b606086018990528589957f3174923aee4fc7c29de893ec1a82807b9f70eea78b57219cce0e76a78350dd479260046080612d8c9a015260a083015260c08201528760e0820152600061010082015260001961012082015242610140820152806001600160a01b038516930390a2613ea9565b9360005b8551811015613275576000612da486611fbd565b6001861490811561324a57506024612dbc83896123f9565b515b60006001600160a01b0360035416604051938480926320bf56eb60e21b82528560048301525afa918215610a465760009261322f575b5060408201805190600682101561118757600160009214908115613206575b50612e25575b50505050600101612d90565b80959192939581938891612e388c611fbd565b88806131f8575b156130fa5750612e70670de0b6b3a7640000612e6860c089015161131a8d60e08c015190611fc7565b048095612007565b978886613027575b505082608060e088015160e46001600160a01b03600154169160405194859384927ff26a3e1d0000000000000000000000000000000000000000000000000000000084528860048501528260248501528b60448501528c606485015282608485015260a48401528160c48401525af190811561301c5784859086928794612f8c575b50927fc136432a1484e156abdd300674f3ca1991800b1936e60da2b47c69dda822f75a98959261014098959260019c9b98955050505060c0612f3a613cc7565b960151906001600160a01b03845416966040519788526020880152604087015260036060870152608086015260a085015260c084015260e083015261010082015242610120820152a190388080612e19565b93505050506080813d8211613014575b81612fa960809383611ba0565b810103126129b357927fc136432a1484e156abdd300674f3ca1991800b1936e60da2b47c69dda822f75a959261014095928560019a999651602082015191612fff6060612ff86040840161239d565b920161239d565b9192909195989b9c5092959850929598612efa565b3d9150612f9c565b6040513d86823e3d90fd5b9198918683106130465750508461303d91611fc7565b965b3880612e78565b9550979150938297811560001461306457505060e08501519061303f565b61306d8c611fbd565b156130d95761309360c0870191670de0b6b3a7640000612230845160e08b015190611fd4565b90670de0b6b3a7640000820291808304670de0b6b3a764000014901517156130c557516130bf91611fe7565b9061303f565b602484634e487b7160e01b81526011600452fd5b61309360c0870191670de0b6b3a764000061230d845160e08b015190611fd4565b93946131058c611fbd565b88806131ea575b1561313d5750612e7084670de0b6b3a76400006131368c61131a60c08c01519160e08d0151611fc7565b0496612007565b94936131488c611fbd565b60028c1480806131dc575b1561317c575050612e70670de0b6b3a7640000612e6860c089015161131a8d60e08c0151611fc7565b9094906131888d611fbd565b806131ce575b61319d575b84612e7091612007565b9450612e7084670de0b6b3a76400006131c48c61131a60c08c01519160e08d015190611fc7565b0496915050613193565b5060e08701518a101561318e565b5060e08801518b1115613153565b5060e08701518a111561310c565b5060e08701518a1015612e3f565b905051600681101561321b5760021438612e13565b602482634e487b7160e01b81526021600452fd5b61324391923d8091833e61238e8183611ba0565b9038612df4565b613255838951611fc7565b906000198201918211611128575061326f602491896123f9565b51612dbe565b509250509150613283613d44565b5090600190565b906132959291613893565b908181106132ac57906132a791611fc7565b600191565b6132b591611fc7565b600091565b90601f19601f6020936132d881518092818752878088019101611e63565b0116010190565b6040906001600160a01b03611c84949316815281602082015201906132ba565b908160e09103126100155760c06040519161331983611b52565b805183526020810151602084015260408101516040840152606081015160608401526080810151608084015260a081015160a0840152015160c082015290565b92916133899061336885613fb5565b92670de0b6b3a7640000613382604086015161131a61413b565b0495613893565b9081928282106133a8575b505050509050600090600090600090600090565b906133c26133bb93925193849284611fc7565b9687612007565b10156133ce5780613394565b818511156133ea57506133e19084611fc7565b91600193929190565b9150506001929160009190565b604051906080820182811067ffffffffffffffff821117611b6e5760405260006060838281528260208201528260408201520152565b6020818303126100155780519067ffffffffffffffff82116100155701906101e08282031261001557604051916101e0830183811067ffffffffffffffff821117611b6e57604052805167ffffffffffffffff8111610015576101c092613495918301611e86565b8352602081015160208401526134ad60408201611e4f565b60408401526134be60608201611e4f565b60608401526134cf60808201611e4f565b60808401526134e060a08201611e4f565b60a08401526134f160c08201611e4f565b60c084015261350260e08201611e4f565b60e08401526101008101516101008401526101208101516101208401526101408101516101408401526101608101516101608401526101808101516101808401526101a08101516101a084015201516101c082015290565b6008111561118757565b60006001600160a01b0360035416916024604051809481937f0c3fc6b900000000000000000000000000000000000000000000000000000000835260048301525afa908115610a4657600091613766575b50906101608201514211801561371d575b6137165760608201600181516135db81611fbd565b6135e481611fbd565b14806136a5575b61369d57600290516135fc81611fbd565b61360581611fbd565b14918261361d575b505061361857600090565b600190565b90915060208101916001835161363281611fbd565b61363b81611fbd565b14928361368e575b8315613654575b505050388061360d565b6002919293505161366481611fbd565b61366d81611fbd565b14918261367f575b505038808061364a565b60c00151101590503880613675565b60c08301518210159350613643565b505050600190565b5060208301600181516136b781611fbd565b6136c081611fbd565b149081613707575b81156136d5575b506135eb565b60029150516136e381611fbd565b6136ec81611fbd565b14806136f9575b386136cf565b5060c08301518210156136f3565b60c085015184111591506136c8565b5050600090565b50604082016001815161372f8161355a565b6137388161355a565b14159081613747575b506135c6565b60029150516137558161355a565b61375e8161355a565b141538613741565b3d8083833e6137758183611ba0565b8101906020818303126129bb5780519067ffffffffffffffff82116129b3570190610180828203126129bb5760405192610180840184811067ffffffffffffffff82111761387f576040526137c983611e4f565b8452602083015160038110156129b7576020850152604083015160088110156129b7576040850152606083015160038110156129b757606085015260808301519067ffffffffffffffff8211610acc5750829161382a916101609401611e86565b608084015260a081015160a084015260c081015160c084015260e081015160e08401526101008101516101008401526101208101516101208401526101408101516101408401520151610160820152386135b5565b602482634e487b7160e01b81526041600452fd5b60009392849190825b845184101561390f57613906856109af866139006001956109af6138f86138e56138dd8c8c6138d6896138cf818e6123f9565b51926123f9565b5191612aba565b9690986123f9565b516138f08d8c6123f9565b51908c612b33565b969092612007565b9a612007565b9301929561389c565b95949350505050565b6001600160a01b031680156139b5576001600160a01b037f9016d09d72d40fdae2fd8ceac6b6234c7706214fd39c1cd1e609a0528c199300548273ffffffffffffffffffffffffffffffffffffffff198216177f9016d09d72d40fdae2fd8ceac6b6234c7706214fd39c1cd1e609a0528c19930055167f8be0079c531659141344cd1fd0a4f28419497f9722a3daafe3b4186f6b6457e0600080a3565b7f1e4fbdf700000000000000000000000000000000000000000000000000000000600052600060045260246000fd5b60249160006001600160a01b0360035416604051948580926320bf56eb60e21b82528660048301525afa928315610a4657600093613bce575b506040830192835193600685101561118757600160009514159081613ba4575b508015613b9c575b613b7c576020810160018151613a5a81611fbd565b613a6381611fbd565b1480613b8f575b15613b355750613a998160c0613a9060209560e0670de0b6b3a764000096015190611fc7565b91015190611fd4565b045b60446001600160a01b03600154169360405194859384927fd3c76d66000000000000000000000000000000000000000000000000000000008452600484015260248301525afa918215613b29578092613af357505090565b9091506020823d602011613b21575b81613b0f60209383611ba0565b81010312610acc5750611c849061239d565b3d9150613b02565b604051903d90823e3d90fd5b60029051613b4281611fbd565b613b4b81611fbd565b1480613b82575b15613b7c57613b768160c0613a9060209560e0670de0b6b3a7640000960151611fc7565b04613a9b565b50505090565b5060e08101518210613b52565b5060e08201518311613a6a565b508115613a45565b9050516006811015613bba576002141538613a3d565b602485634e487b7160e01b81526021600452fd5b613be291933d8091833e61238e8183611ba0565b9138613a1d565b9060e460809260006001600160a01b036001541660405196879586947ff26a3e1d000000000000000000000000000000000000000000000000000000008652600486015260016024860152604485015282606485015282608485015260a4840152600160c48401525af18015610a46576000928380938193613c6d575b5093929190565b9450915091506080833d608011613cbf575b81613c8c60809383611ba0565b81010312610acc5750815190602083015190613cb66060613caf6040870161239d565b950161239d565b91939238613c66565b3d9150613c7f565b600460206001600160a01b0360035416604051928380927fc3710f250000000000000000000000000000000000000000000000000000000082525afa908115610a4657600091613d15575090565b90506020813d602011613d3c575b81613d3060209383611ba0565b81010312610015575190565b3d9150613d23565b600060206001600160a01b03600354166004604051809481937fb99ac9270000000000000000000000000000000000000000000000000000000083525af1908115610a4657600091613d15575090565b6001600160a01b037f9016d09d72d40fdae2fd8ceac6b6234c7706214fd39c1cd1e609a0528c19930054163303613dc757565b7f118cdaa7000000000000000000000000000000000000000000000000000000006000523360045260246000fd5b90613e38926001600160a01b0360809381600354169260ff604051978896879586956306461a8b60e11b87521660048601526060602486015260648501906132ba565b9116604483015203915afa8015610a46576000928380938193613e5c575093929190565b9450915091506080833d608011613ea1575b81613e7b60809383611ba0565b81010312610acc5750815160208301516040840151606090940151909392909138613c66565b3d9150613e6e565b90613f03926001600160a01b03600093816003541692604051968795869485947f0f12fb590000000000000000000000000000000000000000000000000000000086521660048501526060602485015260648401906132ba565b90613f0d81611fbd565b604483015203915afa908115610a4657600091613f28575090565b3d8083833e613f378183611ba0565b8101906020818303126129bb5780519067ffffffffffffffff82116129b3570181601f820112156129bb57805190613f6e82611bc3565b93613f7c6040519586611ba0565b82855260208086019360051b830101938411610acc5750602001905b828210613fa55750505090565b8151815260209182019101613f98565b60006080604051613fc581611b84565b828152826020820152826040820152826060820152015260a06001600160a01b03602481600254169360405194859384927ffb47e0160000000000000000000000000000000000000000000000000000000084521660048301525afa908115610a4657600091614033575090565b905060a0813d60a011614091575b8161404e60a09383611ba0565b810103126100155760806040519161406583611b84565b805183526020810151602084015260408101516040840152606081015160608401520151608082015290565b3d9150614041565b60206140e6916001600160a01b036002541660405180809581947f05ca57cf00000000000000000000000000000000000000000000000000000000835286600484015260248301906132ba565b03915afa908115610a46576000916140fc575090565b6020813d602011614133575b8161411560209383611ba0565b810103126129b75751906001600160a01b0382168203610acc575090565b3d9150614108565b600460206001600160a01b0360025416604051928380927f89f00b6d0000000000000000000000000000000000000000000000000000000082525afa908115610a4657600091613d15575090565b90600254916001600160a01b0360009316803b156129b35760c48492836001600160a01b0393608060405197889687957fc9f35c3900000000000000000000000000000000000000000000000000000000875216600486015280516024860152602081015160448601526040810151606486015260608101516084860152015160a48401525af180156127865761421e575050565b8161422891611ba0565b50565b93929091936001600160a01b0360035416604051906320bf56eb60e21b8252826004830152600082602481845afa918215610a465760009261445f575b506040820194855195600687101561118757600160009714159081614435575b506144265785906001600160a01b036142a460a0860151614099565b16876001600160a01b03600254166024604051809481937fa666200f00000000000000000000000000000000000000000000000000000000835260048301525afa90811561441b5792889260001961010060e4979460609a99978791614401575b50015160c087015190928181106143f95750995b036143f1575b60206001600160a01b038651169501519b6143398d611fbd565b6040519c8d9889977f1b31c071000000000000000000000000000000000000000000000000000000008952600489015260248801528a604488015261437d81611fbd565b6064870152608486015260a485015260c48401525af180156127865782948380926143aa575b5050919392565b9293509450506060843d6060116143e9575b816143c960609383611ba0565b81010312610acc57508251906040602085015194015191939138806143a3565b3d91506143bc565b88915061431f565b905099614319565b61441591503d8089833e610cdf8183611ba0565b38614305565b6040513d8a823e3d90fd5b50505050508092509180918190565b905051600681101561444b576002141538614288565b602487634e487b7160e01b81526021600452fd5b61447391923d8091833e61238e8183611ba0565b9038614268565b60ff7ff0c57e16840df040f15088dc2f81fe391c3923bec73e23a9662efc9c229c6a005460401c16156144a957565b7fd7e6bcf80000000000000000000000000000000000000000000000000000000060005260046000fdfea26469706673582212203299fdad1a3b82aefeedb2ce2cf15ec334d3788e8eaa8dbb8d74af1521b4bc0964736f6c634300081c0033",
  "linkReferences": {},
  "deployedLinkReferences": {}
}