{
  "_format": "hh-sol-artifact-1",
  "contractName": "TradeAgent",
  "sourceName": "contracts/TradeAgent.sol",
  "abi": [
    {
      "inputs": [],
      "name": "InvalidInitialization",
      "type": "error"
    },
    {
      "inputs": [],
      "name": "NotInitializing",
      "type": "error"
    },
    {
      "inputs": [
        {
          "internalType": "address",
          "name": "owner",
          "type": "address"
        }
      ],
      "name": "OwnableInvalidOwner",
      "type": "error"
    },
    {
      "inputs": [
        {
          "internalType": "address",
          "name": "account",
          "type": "address"
        }
      ],
      "name": "OwnableUnauthorizedAccount",
      "type": "error"
    },
    {
      "anonymous": false,
      "inputs": [
        {
          "indexed": false,
          "internalType": "address",
          "name": "taker",
          "type": "address"
        },
        {
          "indexed": false,
          "internalType": "uint256",
          "name": "amount",
          "type": "uint256"
        },
        {
          "indexed": false,
          "internalType": "uint256",
          "name": "availableAmount",
          "type": "uint256"
        },
        {
          "indexed": false,
          "internalType": "uint256",
          "name": "marginAmount",
          "type": "uint256"
        },
        {
          "indexed": false,
          "internalType": "uint256",
          "name": "locked",
          "type": "uint256"
        },
        {
          "indexed": false,
          "internalType": "uint256",
          "name": "stage",
          "type": "uint256"
        },
        {
          "indexed": false,
          "internalType": "uint256",
          "name": "dif",
          "type": "uint256"
        }
      ],
      "name": "BalanceOfTaker",
      "type": "event"
    },
    {
      "anonymous": false,
      "inputs": [
        {
          "indexed": false,
          "internalType": "string",
          "name": "name",
          "type": "string"
        },
        {
          "indexed": true,
          "internalType": "address",
          "name": "taker",
          "type": "address"
        },
        {
          "indexed": false,
          "internalType": "uint256",
          "name": "orderID",
          "type": "uint256"
        },
        {
          "indexed": false,
          "internalType": "enum ICommon.Direct",
          "name": "orderType",
          "type": "uint8"
        },
        {
          "indexed": false,
          "internalType": "enum IPerpetual.OrderState",
          "name": "state",
          "type": "uint8"
        },
        {
          "indexed": false,
          "internalType": "enum ICommon.Offset",
          "name": "offset",
          "type": "uint8"
        },
        {
          "indexed": false,
          "internalType": "uint256",
          "name": "amount",
          "type": "uint256"
        },
        {
          "indexed": false,
          "internalType": "uint256",
          "name": "targetPrice",
          "type": "uint256"
        },
        {
          "indexed": false,
          "internalType": "uint256",
          "name": "margin",
          "type": "uint256"
        },
        {
          "indexed": false,
          "internalType": "uint256",
          "name": "extraFee",
          "type": "uint256"
        },
        {
          "indexed": false,
          "internalType": "uint256",
          "name": "tradingFee",
          "type": "uint256"
        },
        {
          "indexed": false,
          "internalType": "uint256",
          "name": "goodTill",
          "type": "uint256"
        }
      ],
      "name": "CreateLimitedOrder",
      "type": "event"
    },
    {
      "anonymous": false,
      "inputs": [
        {
          "indexed": false,
          "internalType": "uint256",
          "name": "limitOrderID",
          "type": "uint256"
        },
        {
          "indexed": false,
          "internalType": "uint256",
          "name": "openLimitPrice",
          "type": "uint256"
        },
        {
          "indexed": false,
          "internalType": "uint256",
          "name": "gainTriggerPrice",
          "type": "uint256"
        },
        {
          "indexed": false,
          "internalType": "uint256",
          "name": "gainLimitPrice",
          "type": "uint256"
        },
        {
          "indexed": false,
          "internalType": "uint256",
          "name": "lossTriggerPrice",
          "type": "uint256"
        },
        {
          "indexed": false,
          "internalType": "uint256",
          "name": "lossLimitPrice",
          "type": "uint256"
        }
      ],
      "name": "CreateTriggerCondition",
      "type": "event"
    },
    {
      "anonymous": false,
      "inputs": [
        {
          "indexed": false,
          "internalType": "uint256",
          "name": "code",
          "type": "uint256"
        },
        {
          "indexed": false,
          "internalType": "uint256",
          "name": "orderID",
          "type": "uint256"
        },
        {
          "indexed": false,
          "internalType": "string",
          "name": "message",
          "type": "string"
        }
      ],
      "name": "ErrorInfo",
      "type": "event"
    },
    {
      "anonymous": false,
      "inputs": [
        {
          "indexed": false,
          "internalType": "uint256",
          "name": "code",
          "type": "uint256"
        },
        {
          "indexed": false,
          "internalType": "uint256",
          "name": "orderID",
          "type": "uint256"
        },
        {
          "indexed": false,
          "internalType": "bytes",
          "name": "message",
          "type": "bytes"
        }
      ],
      "name": "ExceptErrorInfo",
      "type": "event"
    },
    {
      "anonymous": false,
      "inputs": [
        {
          "indexed": false,
          "internalType": "uint64",
          "name": "version",
          "type": "uint64"
        }
      ],
      "name": "Initialized",
      "type": "event"
    },
    {
      "anonymous": false,
      "inputs": [
        {
          "indexed": true,
          "internalType": "address",
          "name": "taker",
          "type": "address"
        },
        {
          "indexed": false,
          "internalType": "string",
          "name": "name",
          "type": "string"
        },
        {
          "indexed": false,
          "internalType": "uint256",
          "name": "orderID",
          "type": "uint256"
        },
        {
          "indexed": false,
          "internalType": "enum ICommon.Direct",
          "name": "direction",
          "type": "uint8"
        },
        {
          "indexed": false,
          "internalType": "enum IPerpetual.OrderType",
          "name": "orderType",
          "type": "uint8"
        },
        {
          "indexed": false,
          "internalType": "uint256",
          "name": "amount",
          "type": "uint256"
        },
        {
          "indexed": false,
          "internalType": "uint256",
          "name": "costPrice",
          "type": "uint256"
        },
        {
          "indexed": false,
          "internalType": "uint256",
          "name": "price",
          "type": "uint256"
        },
        {
          "indexed": false,
          "internalType": "uint256",
          "name": "tradingFee",
          "type": "uint256"
        },
        {
          "indexed": false,
          "internalType": "uint256",
          "name": "limitOrderId",
          "type": "uint256"
        },
        {
          "indexed": false,
          "internalType": "uint256",
          "name": "timestamp",
          "type": "uint256"
        }
      ],
      "name": "OrderHistory",
      "type": "event"
    },
    {
      "anonymous": false,
      "inputs": [
        {
          "indexed": true,
          "internalType": "address",
          "name": "previousOwner",
          "type": "address"
        },
        {
          "indexed": true,
          "internalType": "address",
          "name": "newOwner",
          "type": "address"
        }
      ],
      "name": "OwnershipTransferred",
      "type": "event"
    },
    {
      "anonymous": false,
      "inputs": [
        {
          "indexed": false,
          "internalType": "uint256",
          "name": "orderID",
          "type": "uint256"
        },
        {
          "indexed": false,
          "internalType": "uint256",
          "name": "dealID",
          "type": "uint256"
        },
        {
          "indexed": false,
          "internalType": "enum IPerpetual.TradeType",
          "name": "tradeType",
          "type": "uint8"
        },
        {
          "indexed": false,
          "internalType": "uint256",
          "name": "amount",
          "type": "uint256"
        },
        {
          "indexed": false,
          "internalType": "uint256",
          "name": "price",
          "type": "uint256"
        },
        {
          "indexed": false,
          "internalType": "uint256",
          "name": "tradingFee",
          "type": "uint256"
        },
        {
          "indexed": false,
          "internalType": "uint256",
          "name": "profit",
          "type": "uint256"
        },
        {
          "indexed": false,
          "internalType": "uint256",
          "name": "loss",
          "type": "uint256"
        },
        {
          "indexed": false,
          "internalType": "uint256",
          "name": "timestamp",
          "type": "uint256"
        }
      ],
      "name": "TradeHistory",
      "type": "event"
    },
    {
      "anonymous": false,
      "inputs": [
        {
          "indexed": true,
          "internalType": "address",
          "name": "taker",
          "type": "address"
        },
        {
          "indexed": false,
          "internalType": "enum ICommon.TransactionType",
          "name": "transactionType",
          "type": "uint8"
        },
        {
          "indexed": false,
          "internalType": "uint256",
          "name": "amount",
          "type": "uint256"
        },
        {
          "indexed": false,
          "internalType": "uint256",
          "name": "timestamp",
          "type": "uint256"
        }
      ],
      "name": "TransactionHistory",
      "type": "event"
    },
    {
      "anonymous": false,
      "inputs": [
        {
          "indexed": false,
          "internalType": "address",
          "name": "sender",
          "type": "address"
        },
        {
          "indexed": false,
          "internalType": "address",
          "name": "received",
          "type": "address"
        },
        {
          "indexed": false,
          "internalType": "enum ICommon.TransactionType",
          "name": "transactionType",
          "type": "uint8"
        },
        {
          "indexed": false,
          "internalType": "uint256",
          "name": "amount",
          "type": "uint256"
        },
        {
          "indexed": false,
          "internalType": "uint256",
          "name": "timestamp",
          "type": "uint256"
        }
      ],
      "name": "TransferFee",
      "type": "event"
    },
    {
      "stateMutability": "nonpayable",
      "type": "fallback"
    },
    {
      "inputs": [
        {
          "internalType": "enum ICommon.Direct",
          "name": "_type",
          "type": "uint8"
        },
        {
          "internalType": "uint256",
          "name": "_currentPrice",
          "type": "uint256"
        },
        {
          "internalType": "uint256",
          "name": "_dealPrice",
          "type": "uint256"
        },
        {
          "internalType": "uint256",
          "name": "_amount",
          "type": "uint256"
        },
        {
          "internalType": "uint256",
          "name": "_willClose",
          "type": "uint256"
        }
      ],
      "name": "calDealPNL",
      "outputs": [
        {
          "internalType": "uint256",
          "name": "profit",
          "type": "uint256"
        },
        {
          "internalType": "uint256",
          "name": "loss",
          "type": "uint256"
        }
      ],
      "stateMutability": "pure",
      "type": "function"
    },
    {
      "inputs": [
        {
          "internalType": "uint256",
          "name": "_orderID",
          "type": "uint256"
        },
        {
          "internalType": "address",
          "name": "_taker",
          "type": "address"
        },
        {
          "internalType": "bool",
          "name": "_status",
          "type": "bool"
        }
      ],
      "name": "cancelOrder",
      "outputs": [],
      "stateMutability": "nonpayable",
      "type": "function"
    },
    {
      "inputs": [
        {
          "internalType": "uint256",
          "name": "_dealID",
          "type": "uint256"
        },
        {
          "internalType": "uint256",
          "name": "_price",
          "type": "uint256"
        }
      ],
      "name": "checkMakerMarginRisk",
      "outputs": [
        {
          "internalType": "bool",
          "name": "isRisk",
          "type": "bool"
        }
      ],
      "stateMutability": "view",
      "type": "function"
    },
    {
      "inputs": [
        {
          "internalType": "uint256",
          "name": "_oID",
          "type": "uint256"
        },
        {
          "internalType": "uint256",
          "name": "_price",
          "type": "uint256"
        }
      ],
      "name": "checkOrder",
      "outputs": [
        {
          "internalType": "bool",
          "name": "success",
          "type": "bool"
        }
      ],
      "stateMutability": "view",
      "type": "function"
    },
    {
      "inputs": [
        {
          "internalType": "address",
          "name": "_taker",
          "type": "address"
        },
        {
          "internalType": "uint256",
          "name": "_maintenanceMargin",
          "type": "uint256"
        },
        {
          "internalType": "string[]",
          "name": "_symbols",
          "type": "string[]"
        },
        {
          "internalType": "uint256[]",
          "name": "_prices",
          "type": "uint256[]"
        }
      ],
      "name": "checkTakerMarginRisk",
      "outputs": [
        {
          "internalType": "bool",
          "name": "isRisk",
          "type": "bool"
        },
        {
          "internalType": "uint256",
          "name": "netLoss",
          "type": "uint256"
        },
        {
          "internalType": "uint256",
          "name": "overLoss",
          "type": "uint256"
        },
        {
          "internalType": "uint256",
          "name": "loss",
          "type": "uint256"
        }
      ],
      "stateMutability": "view",
      "type": "function"
    },
    {
      "inputs": [
        {
          "internalType": "address",
          "name": "_taker",
          "type": "address"
        },
        {
          "internalType": "string",
          "name": "_pair",
          "type": "string"
        },
        {
          "internalType": "enum ICommon.Direct",
          "name": "_type",
          "type": "uint8"
        },
        {
          "internalType": "uint256",
          "name": "_currentPrice",
          "type": "uint256"
        },
        {
          "internalType": "uint256",
          "name": "_deposit",
          "type": "uint256"
        }
      ],
      "name": "clearingTakerPosition",
      "outputs": [
        {
          "internalType": "uint256",
          "name": "remainingDeposit",
          "type": "uint256"
        },
        {
          "internalType": "bool",
          "name": "clear",
          "type": "bool"
        }
      ],
      "stateMutability": "nonpayable",
      "type": "function"
    },
    {
      "inputs": [
        {
          "internalType": "address",
          "name": "_taker",
          "type": "address"
        },
        {
          "internalType": "uint256",
          "name": "_dealID",
          "type": "uint256"
        },
        {
          "internalType": "uint256",
          "name": "_amount",
          "type": "uint256"
        },
        {
          "internalType": "enum IPerpetual.TradeType",
          "name": "_tradeType",
          "type": "uint8"
        },
        {
          "internalType": "uint256",
          "name": "_currentPrice",
          "type": "uint256"
        },
        {
          "internalType": "uint256",
          "name": "_tradeFeeRate",
          "type": "uint256"
        },
        {
          "internalType": "uint256",
          "name": "_profit",
          "type": "uint256"
        },
        {
          "internalType": "uint256",
          "name": "_loss",
          "type": "uint256"
        }
      ],
      "name": "closeDealEvent",
      "outputs": [],
      "stateMutability": "nonpayable",
      "type": "function"
    },
    {
      "inputs": [
        {
          "internalType": "address",
          "name": "_taker",
          "type": "address"
        },
        {
          "internalType": "string",
          "name": "_name",
          "type": "string"
        },
        {
          "internalType": "uint256",
          "name": "_amount",
          "type": "uint256"
        },
        {
          "internalType": "uint256",
          "name": "_currentPrice",
          "type": "uint256"
        },
        {
          "internalType": "enum ICommon.Direct",
          "name": "_type",
          "type": "uint8"
        },
        {
          "internalType": "uint256",
          "name": "_limitID",
          "type": "uint256"
        }
      ],
      "name": "closeOrder",
      "outputs": [
        {
          "components": [
            {
              "internalType": "uint256",
              "name": "totalMargin",
              "type": "uint256"
            },
            {
              "internalType": "uint256",
              "name": "tradingFee",
              "type": "uint256"
            },
            {
              "internalType": "uint256",
              "name": "gain",
              "type": "uint256"
            },
            {
              "internalType": "uint256",
              "name": "loss",
              "type": "uint256"
            }
          ],
          "internalType": "struct ICommon.CloseOrderResult",
          "name": "bulk",
          "type": "tuple"
        }
      ],
      "stateMutability": "nonpayable",
      "type": "function"
    },
    {
      "inputs": [
        {
          "internalType": "address",
          "name": "_user",
          "type": "address"
        },
        {
          "internalType": "string",
          "name": "_name",
          "type": "string"
        },
        {
          "internalType": "uint256",
          "name": "_price",
          "type": "uint256"
        },
        {
          "internalType": "enum ICommon.Direct",
          "name": "_type",
          "type": "uint8"
        }
      ],
      "name": "getMaxOpenAmount",
      "outputs": [
        {
          "internalType": "uint256",
          "name": "amount",
          "type": "uint256"
        }
      ],
      "stateMutability": "view",
      "type": "function"
    },
    {
      "inputs": [
        {
          "internalType": "address",
          "name": "_user",
          "type": "address"
        },
        {
          "internalType": "string[]",
          "name": "_symbols",
          "type": "string[]"
        },
        {
          "internalType": "uint256[]",
          "name": "_prices",
          "type": "uint256[]"
        }
      ],
      "name": "getMaxWithdrawableAmount",
      "outputs": [
        {
          "internalType": "uint256",
          "name": "_amount",
          "type": "uint256"
        }
      ],
      "stateMutability": "view",
      "type": "function"
    },
    {
      "inputs": [
        {
          "internalType": "address",
          "name": "_user",
          "type": "address"
        },
        {
          "internalType": "string[]",
          "name": "_symbols",
          "type": "string[]"
        },
        {
          "internalType": "uint256[]",
          "name": "_prices",
          "type": "uint256[]"
        }
      ],
      "name": "getPNL",
      "outputs": [
        {
          "internalType": "bool",
          "name": "flag",
          "type": "bool"
        },
        {
          "internalType": "uint256",
          "name": "amount",
          "type": "uint256"
        }
      ],
      "stateMutability": "view",
      "type": "function"
    },
    {
      "inputs": [
        {
          "internalType": "address",
          "name": "_taker",
          "type": "address"
        },
        {
          "internalType": "string",
          "name": "_name",
          "type": "string"
        },
        {
          "internalType": "uint256",
          "name": "_price",
          "type": "uint256"
        },
        {
          "internalType": "uint8",
          "name": "_direction",
          "type": "uint8"
        }
      ],
      "name": "getPNLByCertainPosition",
      "outputs": [
        {
          "internalType": "uint256",
          "name": "profit",
          "type": "uint256"
        },
        {
          "internalType": "uint256",
          "name": "loss",
          "type": "uint256"
        }
      ],
      "stateMutability": "view",
      "type": "function"
    },
    {
      "inputs": [
        {
          "internalType": "address",
          "name": "_taker",
          "type": "address"
        },
        {
          "internalType": "string[]",
          "name": "_symbols",
          "type": "string[]"
        },
        {
          "internalType": "uint256[]",
          "name": "_prices",
          "type": "uint256[]"
        }
      ],
      "name": "getPNLByPosition",
      "outputs": [
        {
          "internalType": "uint256",
          "name": "totalProfit",
          "type": "uint256"
        },
        {
          "internalType": "uint256",
          "name": "totalLoss",
          "type": "uint256"
        }
      ],
      "stateMutability": "view",
      "type": "function"
    },
    {
      "inputs": [],
      "name": "getShareNetValue",
      "outputs": [
        {
          "internalType": "uint256",
          "name": "",
          "type": "uint256"
        }
      ],
      "stateMutability": "view",
      "type": "function"
    },
    {
      "inputs": [
        {
          "internalType": "address",
          "name": "initialOwner",
          "type": "address"
        },
        {
          "internalType": "address",
          "name": "_priPool",
          "type": "address"
        },
        {
          "internalType": "address",
          "name": "_perpetual",
          "type": "address"
        }
      ],
      "name": "initialize",
      "outputs": [],
      "stateMutability": "nonpayable",
      "type": "function"
    },
    {
      "inputs": [
        {
          "internalType": "uint256",
          "name": "_dealID",
          "type": "uint256"
        },
        {
          "internalType": "uint256",
          "name": "_price",
          "type": "uint256"
        }
      ],
      "name": "liquidateMakerDeal",
      "outputs": [
        {
          "internalType": "bool",
          "name": "isLiquidated",
          "type": "bool"
        },
        {
          "internalType": "bool",
          "name": "isAgreement",
          "type": "bool"
        },
        {
          "internalType": "uint256",
          "name": "userProfit",
          "type": "uint256"
        }
      ],
      "stateMutability": "nonpayable",
      "type": "function"
    },
    {
      "inputs": [
        {
          "internalType": "uint256[]",
          "name": "_dealIDs",
          "type": "uint256[]"
        },
        {
          "internalType": "string[]",
          "name": "_symbols",
          "type": "string[]"
        },
        {
          "internalType": "uint256[]",
          "name": "_prices",
          "type": "uint256[]"
        }
      ],
      "name": "liquidateMakerDeals",
      "outputs": [],
      "stateMutability": "nonpayable",
      "type": "function"
    },
    {
      "inputs": [],
      "name": "owner",
      "outputs": [
        {
          "internalType": "address",
          "name": "",
          "type": "address"
        }
      ],
      "stateMutability": "view",
      "type": "function"
    },
    {
      "inputs": [],
      "name": "renounceOwnership",
      "outputs": [],
      "stateMutability": "nonpayable",
      "type": "function"
    },
    {
      "inputs": [
        {
          "internalType": "address",
          "name": "_orderBook",
          "type": "address"
        },
        {
          "internalType": "address",
          "name": "_station",
          "type": "address"
        }
      ],
      "name": "setKeepers",
      "outputs": [],
      "stateMutability": "nonpayable",
      "type": "function"
    },
    {
      "inputs": [
        {
          "internalType": "address",
          "name": "newOwner",
          "type": "address"
        }
      ],
      "name": "transferOwnership",
      "outputs": [],
      "stateMutability": "nonpayable",
      "type": "function"
    },
    {
      "inputs": [
        {
          "internalType": "string",
          "name": "_name",
          "type": "string"
        },
        {
          "internalType": "enum ICommon.Direct",
          "name": "_type",
          "type": "uint8"
        }
      ],
      "name": "verifyTradeStatus",
      "outputs": [],
      "stateMutability": "view",
      "type": "function"
    }
  ],
  "bytecode": "0x6080806040523460155761429d908161001b8239f35b600080fdfe6080604052600436101561001a575b3461001557005b600080fd5b60003560e01c8063016f4dcb146118d75780632b0002061461182d5780633b1e6a591461181257806341cdf4ef1461165757806346a227041461163e578063715018a614611598578063721db562146115425780637a549fa21461151f5780638da5cb5b146114d95780639324b549146114585780639aa59c6514611431578063c0c53b8b14611173578063c2b3356414611062578063ca2afc4e14610fa3578063ca6ec37214610e42578063cd3fd617146108e0578063d0e3d0dc146106ff578063daacb51d1461067a578063eb4f2e36146102d9578063ede13d8c146102b4578063f2fde38b146102895763f5a4bc660361000e5734610015576101006003193601126100155761012b611937565b60443560643591600583101561001557608435917febbb264ee0a0ae96eb7f0d3178c3d7cfed75dcb46bf54fb70fa43000eb77d76e61012060c4359260e4359533600052600460205261018560ff60406000205416611baa565b670de0b6b3a7640000806101a48361019f8660a435611d7e565b611d7e565b0404906101af613ad8565b92604051938452602435602085015260009960408501526060840152608083015260a08201528360c08201528560e082015242610100820152a180610241575b50816101f9578280f35b60606001600160a01b037f3d1da8320fcddb1c370f0c5ec1c37483e5301a7c02bd7478d62c7514643ceb1d92604051946005865260208601524260408601521692a238808280f35b604051906004825260208201524260408201527f3d1da8320fcddb1c370f0c5ec1c37483e5301a7c02bd7478d62c7514643ceb1d60606001600160a01b03841692a2386101ef565b34610015576020600319360112610015576102b26102a5611937565b6102ad613b76565b61389b565b005b346100155760406102cd6102c736611b48565b91613816565b82519182526020820152f35b346100155760606003193601126100155760043567ffffffffffffffff81116100155761030a903690600401611aeb565b60243567ffffffffffffffff81116100155761032a903690600401611a6c565b9060443567ffffffffffffffff81116100155761034b903690600401611aeb565b9033600052600460205261036660ff60406000205416611baa565b805191600090602085019060208101925b85811061038057005b6001600160a01b0360025416906103978187612278565b519160405180937fdcee347500000000000000000000000000000000000000000000000000000000825260648201906004830152606060248301528a51809152608482019060848160051b84010191889160005b81811061062f57505050506003198282030160448301526020865191828152019088906000905b80821061061357505050918160008160a09503925af18015610582576000808091819582946105a7575b508161059f575b50610455575b50506001915001610377565b6001600160a01b036001541693843b1561001557604051927f9048f2e0000000000000000000000000000000000000000000000000000000008452600084604481836001600160a01b0387169a8b60048401528160248401525af1938415610582576105089461058e575b506104ca82613bd7565b926104d6818551611db1565b84526104f0826104eb60208701938451611db1565b611db1565b905261050160408401918251611d71565b9052613f1d565b6001600160a01b036001541691823b15610015576000926044849260405195869384927f9048f2e00000000000000000000000000000000000000000000000000000000084526004840152600a60248401525af191821561058257600192610571575b80610449565b600061057c916119ce565b8861056b565b6040513d6000823e3d90fd5b6000610599916119ce565b8c6104c0565b90508b610443565b95505091505060a0833d821161060b575b816105c560a093836119ce565b8101031261060857506105d78261221c565b916105e46020820161221c565b9060408101519160806105f960608401611bf5565b9201519490929194928c61043c565b80fd5b3d91506105b8565b9193509160208060019286518152019401920186939291610412565b9193602061066a827fffffffffffffffffffffffffffffffffffffffffffffffffffffffffffffff7c6001959799849503018852885161284b565b96019401910191879493926103eb565b3461001557608060031936011261001557610693611937565b60443567ffffffffffffffff8111610015576106b3903690600401611a6c565b906064359067ffffffffffffffff8211610015576080926106db6106e5933690600401611aeb565b9160243590613792565b916040519315158452602084015260408301526060820152f35b346100155760406003193601126100155760043567ffffffffffffffff811161001557610730903690600401611a0d565b602435906003821015610015576001600160a01b0361074e82613cbb565b161561089c576107656001600160a01b0391613cbb565b1660006001600160a01b03600154166024604051809481937fa666200f00000000000000000000000000000000000000000000000000000000835260048301525afa8015610582576101c091600091610879575b500151610835576107c981611d51565b60018114908115610821575b50156107dd57005b606460405162461bcd60e51b815260206004820152600a60248201527f77726f6e672074797065000000000000000000000000000000000000000000006044820152fd5b6002915061082e81611d51565b14816107d5565b606460405162461bcd60e51b815260206004820152601360248201527f446f206e6f7420747261646520737461747573000000000000000000000000006044820152fd5b61089691503d806000833e61088e81836119ce565b810190613665565b836107b9565b606460405162461bcd60e51b815260206004820152600960248201527f756e537570706f727400000000000000000000000000000000000000000000006044820152fd5b346100155760c0600319360112610015576108f9611937565b60243567ffffffffffffffff811161001557610919903690600401611a0d565b604435606435906084359260038410156100155760a4359461093961362f565b5033600052600460205261095460ff60406000205416611baa565b61095c61362f565b95610965612b3f565b9461096f87611d51565b61098261097b88612fdd565b8585613d5d565b929050602089929901986060830193845289528152600060c06040516109a781611963565b8281528260208201528260408201528260608201528260808201528260a082015201526001600160a01b03600154166040517fe1fb28b800000000000000000000000000000000000000000000000000000000815260208180610a0e8b8b60048401612870565b0381855afa908115610582578b918a91600091610e09575b5060e0929360a4916001600160a01b03610a3f8d613cbb565b169060405196879586947fad74dc7f00000000000000000000000000000000000000000000000000000000865260048601526024850152610a7f81611d51565b604484015289606484015260848301525afa801561058257604091600091610dda575b50015160208b01908152916000198503610d8e5788519051610ac391611d71565b8711610d4a575b51670de0b6b3a7640000810290808204670de0b6b3a76400001490151715610d34578751610af791611d91565b7f878cac0b879164d8647426da983e248a51ef8192a43e4d3bb5b586ca2017ed54610b20613ad8565b918351604051916101408352610b3a61014084018b61284b565b946020840152610b498d611d51565b8c6040840152600360608401528a608084015260a08301528560c083015260e08201528561010082015242610120820152806001600160a01b038816930390a2610b9288611d51565b610ba6610b9e89612fdd565b838787612c58565b949060408b019860608c01968752818a528881518110610cfe575b505050610bd8896000978893898952898c52613e11565b60018a149990875b8151811015610ce9576000610bf484611d51565b8c15610cac5750610c058183612278565b515b8a8a1015610c76578a6000198203610c24575b5050600101610be0565b8a610c64610c5c610c4c8c610c569a9f60019897610c468f92610c6d99611d71565b90613fbf565b90929b9195611db1565b9e611db1565b978c51611db1565b8b528d51611db1565b8c52908a610c1a565b50505050975093505050929150836080955b610c90613b26565b5052604051938452516020840152516040830152516060820152f35b610cb7828451611d71565b906000198201918211610cd55750610ccf9083612278565b51610c07565b80634e487b7160e01b602492526011600452fd5b50505097509350505092915083608095610c88565b610d0e610d1691610d2b94611d7e565b825190611d91565b8a52610d23898851611d7e565b905190611d91565b508a8088610bc1565b634e487b7160e01b600052601160045260246000fd5b606460405162461bcd60e51b815260206004820152601360248201527f636c6f736520616d6f756e7420657863656564000000000000000000000000006044820152fd5b51871115610aca57606460405162461bcd60e51b815260206004820152601b60248201527f616d6f756e74206973206772656174207468656e20667265657a6500000000006044820152fd5b610dfc915060e03d60e011610e02575b610df481836119ce565b810190612890565b8c610aa2565b503d610dea565b925050506020813d602011610e3a575b81610e26602093836119ce565b8101031261001557518a90899060e0610a26565b3d9150610e19565b346100155760a06003193601126100155760043560038110156100155760243560443590606435608435936001600091610e7b81611d51565b03610f5357509192909190838310610f2b57670de0b6b3a764000093610eb183610eac610eb794610ebd9796611d7e565b611d91565b92611d71565b90611d7e565b046000905b80158015610f23575b15610edf5760409182519182526020820152f35b606460405162461bcd60e51b815260206004820152600960248201527f504e4c206572726f7200000000000000000000000000000000000000000000006044820152fd5b508115610ecb565b92610eb7670de0b6b3a764000093610eb1610f4c94610eac60009882611d7e565b0490610ec2565b838311610f835750610f7a9291610eb182610eac670de0b6b3a764000097610eb795611d7e565b04600090610ec2565b670de0b6b3a764000093610eb1610f4c9493610eac610eb7949882611d7e565b3461001557610fb136611b48565b9190610fca600093610fc284613bd7565b9285946135ff565b901561105a575b50604081015192670c7d713b49da0000840293808504670c7d713b49da00001490151715610d3457602093670de0b6b3a7640000900481811061101e57505082915001515b604051908152f35b909184018261102e838351611db1565b101561103d575b505050611016565b61105293509061104d9151611db1565b611d71565b828080611035565b925083610fd1565b346100155760606003193601126100155761107b61194d565b604435801515809103610015576020600091338352600482526110a460ff604085205416611baa565b60646001600160a01b03600254169160405194859384927fc2b3356400000000000000000000000000000000000000000000000000000000845260043560048501526001600160a01b038916602485015260448401525af190811561058257600091611141575b508061111357005b816111206102b293613bd7565b9160208301611130828251611db1565b905261050160608401918251611d71565b906020823d60201161116b575b8161115b602093836119ce565b810103126106085750518261110b565b3d915061114e565b346100155760606003193601126100155761118c611937565b61119461194d565b90604435906001600160a01b038216809203610015577ff0c57e16840df040f15088dc2f81fe391c3923bec73e23a9662efc9c229c6a00549260ff8460401c16159367ffffffffffffffff811680159081611429575b600114908161141f575b159081611416575b506113ec576001600160a01b0392818660017fffffffffffffffffffffffffffffffffffffffffffffffff00000000000000006112769516177ff0c57e16840df040f15088dc2f81fe391c3923bec73e23a9662efc9c229c6a0055611397575b5061126561420e565b61126d61420e565b6102a53361389b565b168073ffffffffffffffffffffffffffffffffffffffff19600054161760005560005260046020526040600020600160ff198254161790558073ffffffffffffffffffffffffffffffffffffffff19600154161760015560005260046020526040600020600160ff198254161790553060005260046020526040600020600160ff1982541617905561130457005b7fffffffffffffffffffffffffffffffffffffffffffffff00ffffffffffffffff7ff0c57e16840df040f15088dc2f81fe391c3923bec73e23a9662efc9c229c6a0054167ff0c57e16840df040f15088dc2f81fe391c3923bec73e23a9662efc9c229c6a00557fc7f505b2f371ae2175ee4913f4499e1f2633a7b5936321eed1cdaeb6115181d2602060405160018152a1005b7fffffffffffffffffffffffffffffffffffffffffffffff0000000000000000001668010000000000000001177ff0c57e16840df040f15088dc2f81fe391c3923bec73e23a9662efc9c229c6a00558661125c565b7ff92ee8a90000000000000000000000000000000000000000000000000000000060005260046000fd5b905015866111fc565b303b1591506111f4565b8691506111ea565b3461001557604061144a61144436611b48565b916135ff565b825191151582526020820152f35b346100155760a060031936011261001557611471611937565b60243567ffffffffffffffff811161001557611491903690600401611a0d565b604435906003821015610015576040926114cb923360005260046020526114be60ff866000205416611baa565b6084359260643592612ff0565b825191825215156020820152f35b346100155760006003193601126100155760206001600160a01b037f9016d09d72d40fdae2fd8ceac6b6234c7706214fd39c1cd1e609a0528c1993005416604051908152f35b3461001557602061153861153236611921565b90612cf2565b6040519015158152f35b346100155760806003193601126100155761155b611937565b60243567ffffffffffffffff81116100155761157b903690600401611a0d565b60643560ff81168103610015576040926102cd9260443591612c58565b34610015576000600319360112610015576115b1613b76565b60006001600160a01b037f9016d09d72d40fdae2fd8ceac6b6234c7706214fd39c1cd1e609a0528c1993005473ffffffffffffffffffffffffffffffffffffffff1981167f9016d09d72d40fdae2fd8ceac6b6234c7706214fd39c1cd1e609a0528c19930055167f8be0079c531659141344cd1fd0a4f28419497f9722a3daafe3b4186f6b6457e08280a3005b3461001557602061153861165136611921565b906128ea565b3461001557608060031936011261001557611670611937565b60243567ffffffffffffffff811161001557611690903690600401611a0d565b90606435906003821015610015576116f0916116ab82613bd7565b916020856001600160a01b03600154169260405196879283927fe1fb28b800000000000000000000000000000000000000000000000000000000845260048401612870565b0381845afa938415610582576000946117db575b5060a4906001600160a01b0361171d60e0959697613cbb565b1660405196879485937fad74dc7f00000000000000000000000000000000000000000000000000000000855260048501526402540be400602485015261176281611d51565b6044840152604435606484015260848301525afa918215610582576000926117b7575b5060200151906402540be4008202918083046402540be4001490151715610d3457602091606061101692015190611d91565b60209192506117d49060e03d60e011610e0257610df481836119ce565b9190611785565b909293506020813d60201161180a575b816117f8602093836119ce565b810103126100155751929160a4611704565b3d91506117eb565b346100155760006003193601126100155760206110166122a2565b3461001557604060031936011261001557611846611937565b6001600160a01b038061185761194d565b92611860613b76565b16918260005260046020526040600020600160ff1982541617905516908160005260046020526040600020600160ff1982541617905573ffffffffffffffffffffffffffffffffffffffff19600254161760025573ffffffffffffffffffffffffffffffffffffffff196003541617600355600080f35b3461001557606061190a6118ea36611921565b9033600052600460205261190560ff60406000205416611baa565b611dbe565b906040519215158352151560208301526040820152f35b6003196040910112610015576004359060243590565b600435906001600160a01b038216820361001557565b602435906001600160a01b038216820361001557565b60e0810190811067ffffffffffffffff82111761197f57604052565b634e487b7160e01b600052604160045260246000fd5b610160810190811067ffffffffffffffff82111761197f57604052565b60a0810190811067ffffffffffffffff82111761197f57604052565b90601f601f19910116810190811067ffffffffffffffff82111761197f57604052565b67ffffffffffffffff811161197f57601f01601f191660200190565b81601f8201121561001557803590611a24826119f1565b92611a3260405194856119ce565b8284526020838301011161001557816000926020809301838601378301015290565b67ffffffffffffffff811161197f5760051b60200190565b9080601f83011215610015578135611a8381611a54565b92611a9160405194856119ce565b81845260208085019260051b820101918383116100155760208201905b838210611abd57505050505090565b813567ffffffffffffffff811161001557602091611ae087848094880101611a0d565b815201910190611aae565b9080601f83011215610015578135611b0281611a54565b92611b1060405194856119ce565b81845260208085019260051b82010192831161001557602001905b828210611b385750505090565b8135815260209182019101611b2b565b6060600319820112610015576004356001600160a01b0381168103610015579160243567ffffffffffffffff81116100155782611b8791600401611a6c565b916044359067ffffffffffffffff821161001557611ba791600401611aeb565b90565b15611bb157565b606460405162461bcd60e51b815260206004820152601a60248201527f63616c6c6572206973206e6f74206167656e74206b65657065720000000000006044820152fd5b51906001600160a01b038216820361001557565b60005b838110611c1c5750506000910152565b8181015183820152602001611c0c565b81601f82011215610015578051611c42816119f1565b92611c5060405194856119ce565b8184526020828401011161001557611ba79160208085019101611c09565b6020818303126100155780519067ffffffffffffffff8211610015570190610160828203126100155760405191611ca483611995565b611cad81611bf5565b83526020810151600381101561001557602084015260408101516006811015610015576040840152606081015160038110156100155760608401526080810151608084015260a081015167ffffffffffffffff81116100155761014092611d15918301611c2c565b60a084015260c081015160c084015260e081015160e0840152610100810151610100840152610120810151610120840152015161014082015290565b60031115611d5b57565b634e487b7160e01b600052602160045260246000fd5b91908203918211610d3457565b81810292918115918404141715610d3457565b8115611d9b570490565b634e487b7160e01b600052601260045260246000fd5b91908201809211610d3457565b9160249060006001600160a01b0360025416604051938480926320bf56eb60e21b82528860048301525afa918215610582576000926121f9575b5060408201918251926006841015611d5b576001600094141590816121cf575b506121af5783156121ba575b611e2e84866128ea565b156121af57602081019260018451611e4581611d51565b611e4e81611d51565b14806121a2575b1561206a5760c0820194855196670de0b6b3a7640000611e7e60e0860199610eb78b5186611d71565b0495611e8b8388846139fb565b909b925099908b1561205857808a03611fbc575b5050509161012093917febbb264ee0a0ae96eb7f0d3178c3d7cfed75dcb46bf54fb70fa43000eb77d76e95935b7f878cac0b879164d8647426da983e248a51ef8192a43e4d3bb5b586ca2017ed54611f386001600160a01b038751169260a088015190611f0a613ad8565b9051611f1581611d51565b60c08a019960e08b5191015191604051958695610140875261014087019061284b565b936020860152611f4781611d51565b604085015260056060850152608084015260a08301528660c08301528760e0830152600019610100830152428a8301520390a2611f82613b26565b935190604051948552602085015260036040850152606084015260808301528060a08301528560c083015260e082015242610100820152a1565b90929450611fe4919850670de0b6b3a7640000611fde829a8551905190611d7e565b04611db1565b90670de0b6b3a7640000820291808304670de0b6b3a76400001490151715612044579161203a7febbb264ee0a0ae96eb7f0d3178c3d7cfed75dcb46bf54fb70fa43000eb77d76e96949261012096945190611d91565b9395819395611e9f565b602485634e487b7160e01b81526011600452fd5b50505050505093505092505080918190565b6002845161207781611d51565b61208081611d51565b1480612195575b1561218a5760c0820194855196670de0b6b3a76400006120b060e0860199610eb7858c51611d71565b04956120bd8388846139fb565b909b925099908b1561205857808a03612102575b5050509161012093917febbb264ee0a0ae96eb7f0d3178c3d7cfed75dcb46bf54fb70fa43000eb77d76e9593611ecc565b9092945061212a919850670de0b6b3a7640000612124829a8551905190611d7e565b04611d71565b90670de0b6b3a7640000820291808304670de0b6b3a7640000149015171561204457916121807febbb264ee0a0ae96eb7f0d3178c3d7cfed75dcb46bf54fb70fa43000eb77d76e96949261012096945190611d91565b93958193956120d1565b945084935083925050565b508460e083015111612087565b5060e08201518511611e55565b509250809150918190565b92506121c960a0840151613967565b92611e24565b90505160068110156121e5576002141538611e18565b602484634e487b7160e01b81526021600452fd5b61221591923d8091833e61220d81836119ce565b810190611c6e565b9038611df8565b5190811515820361001557565b919060a0838203126100155761223e8361221c565b9260208101519260408201519260608301519067ffffffffffffffff821161001557612271608091611ba7938601611c2c565b9301611bf5565b805182101561228c5760209160051b010190565b634e487b7160e01b600052603260045260246000fd5b6001600160a01b036000541690604051917fcf5bd3770000000000000000000000000000000000000000000000000000000083526017600484015260006024840152600083604481845afa90811561058257604493600092612827575b50600090604051948580927fcf5bd377000000000000000000000000000000000000000000000000000000008252600e60048301528460248301525afa92831561058257600090819082956127fd575b50821590811591826127f5575b6127e457821490816127dc575b506127af57600460006001600160a01b0360015416604051928380927fcd2ce4ae0000000000000000000000000000000000000000000000000000000082525afa908115610582576000916126f2575b5060009392919391829183946001600160a01b03855416926001600160a01b03865416955b8351881015612638576123f18885612278565b516123fb81613967565b801561262d5760405192604084019084821067ffffffffffffffff83111761197f578d91604052600085526020850190600082526000926001600160a01b03604051916306461a8b60e11b83521693846004830152606060248301526040828d818061246a606482018d61284b565b86604483015203915afa91821561262057908692918180936125df575b50508185528852670de0b6b3a7640000916124a191611d7e565b04908651808310156000146125c257506124cd6124c56124fb959493604093611db1565b885190611d71565b955b8d60009483518097819482936306461a8b60e11b8452600484015260606024840152606483019061284b565b6001604483015203915afa9283156125b757828094612577575b50508290528452670de0b6b3a76400009161252f91611d7e565b04918281511015600014612558579161104d61254f926001945190611db1565b975b01966123de565b612569600193612571939b99611db1565b905190611d71565b95612551565b91935091506040823d82116125af575b81612594604093836119ce565b8101031261060857508051602090910151918161252f612515565b3d9150612587565b6040513d84823e3d90fd5b6124fb94939261104d6125d992604094999f611db1565b9b6124cf565b92509250506040823d8211612618575b816125fc604093836119ce565b81010312610608575080516020909101518591806124a1612487565b3d91506125ef565b50604051903d90823e3d90fd5b505096600190612551565b94965096925096505061264b9250611db1565b90808211156126885761265d91611d71565b90670de0b6b3a7640000820291808304670de0b6b3a76400001490151715610d3457611ba791611d91565b608460405162461bcd60e51b815260206004820152602160248201527f657363726f77206163636f756e742073686f756c64206265206465746f6e617460448201527f65000000000000000000000000000000000000000000000000000000000000006064820152fd5b3d8083833e61270181836119ce565b8101906020818303126127ab5780519067ffffffffffffffff82116127a3570181601f820112156127ab57805161273781611a54565b9361274560405195866119ce565b81855260208086019260051b840101928484116127a75760208101925b84841061277557505050505050386123b9565b835167ffffffffffffffff81116127a35760209161279888848094870101611c2c565b815201930192612762565b8380fd5b5080fd5b8280fd5b919250670de0b6b3a7640000820291808304670de0b6b3a76400001490151715610d3457611ba791611d91565b905038612369565b50670de0b6b3a76400009450505050565b50821561235c565b91905061281d9294503d8091833e61281581836119ce565b810190612229565b959350503861234f565b600091925061283f903d8084833e61281581836119ce565b505091505091906122ff565b90601f19601f60209361286981518092818752878088019101611c09565b0116010190565b6040906001600160a01b03611ba79493168152816020820152019061284b565b908160e09103126100155760c0604051916128aa83611963565b805183526020810151602084015260408101516040840152606081015160608401526080810151608084015260a081015160a0840152015160c082015290565b60249160006001600160a01b0360025416604051948580926320bf56eb60e21b82528660048301525afa92831561058257600093612b24575b5060408301928351936006851015611d5b57600160009514908115612afb575b5015612ab7578115612aa2575b602081016001815161296181611d51565b61296a81611d51565b1480612a95575b15612a3b57506129a08160c061299760209560e0670de0b6b3a764000096015190611d71565b91015190611d7e565b045b60446001600160a01b038554169360405194859384927fd3c76d66000000000000000000000000000000000000000000000000000000008452600484015260248301525afa918215612a2f5780926129f957505090565b9091506020823d602011612a27575b81612a15602093836119ce565b810103126106085750611ba79061221c565b3d9150612a08565b604051903d90823e3d90fd5b60029051612a4881611d51565b612a5181611d51565b1480612a88575b15612a8257612a7c8160c061299760209560e0670de0b6b3a7640000960151611d71565b046129a2565b50505090565b5060e08101518210612a58565b5060e08201518311612971565b9050612ab160a0820151613967565b90612950565b606460405162461bcd60e51b815260206004820152600d60248201527f496e76616c6964207374617465000000000000000000000000000000000000006044820152fd5b9050516006811015612b105760021438612943565b602485634e487b7160e01b81526021600452fd5b612b3891933d8091833e61220d81836119ce565b9138612923565b60405190612b4c826119b2565b60606080836000815260006020820152600060408201526000838201520152565b90918015612bdb57670de0b6b3a7640000612bae600092612b9960008097612b93612b3f565b97613d5d565b50604088015260208701819052908652611d7e565b0490825180831015600014612bcd575050612bca915190611d71565b91565b90949350611ba79250611d71565b505050600090600090565b9291926000908415612c5057670de0b6b3a7640000612c2a8396612c1560018697612c0f612b3f565b96613d5d565b50604087015260208601819052908552611d7e565b825191900492508211612c4457612bca9293945051611d71565b611ba792505190611d71565b509250508190565b919290928015612ce65760ff670de0b6b3a7640000612c9d600093612c8886600099612c82612b3f565b99613d5d565b5060408a015260208901819052908852611d7e565b049216612ccc578251808310612cbc5750612bca929161256991611db1565b611ba7935061104d919594611db1565b825190949392908211612c4457612bca9293945051611d71565b50505050600090600090565b60006001600160a01b0360025416916024604051809481937f0c3fc6b900000000000000000000000000000000000000000000000000000000835260048301525afa90811561058257600091612ee2575b509061014082015142118015612eab575b612ea4576060820160018151612d6981611d51565b612d7281611d51565b1480612e33575b612e2b5760029051612d8a81611d51565b612d9381611d51565b149182612dab575b5050612da657600090565b600190565b909150602081019160018351612dc081611d51565b612dc981611d51565b149283612e1c575b8315612de2575b5050503880612d9b565b60029192935051612df281611d51565b612dfb81611d51565b149182612e0d575b5050388080612dd8565b60c00151101590503880612e03565b60c08301518210159350612dd1565b505050600190565b506020830160018151612e4581611d51565b612e4e81611d51565b149081612e95575b8115612e63575b50612d79565b6002915051612e7181611d51565b612e7a81611d51565b1480612e87575b38612e5d565b5060c0830151821015612e81565b60c08501518411159150612e56565b5050600090565b506040820180516007811015611d5b57600114159081612ecc575b50612d54565b9050516007811015611d5b576002141538612ec6565b3d8083833e612ef181836119ce565b8101906020818303126127ab5780519067ffffffffffffffff82116127a3570190610160828203126127ab5760405192612f2a84611995565b612f3383611bf5565b8452602083015160038110156127a7576020850152604083015160078110156127a7576040850152606083015160038110156127a757606085015260808301519067ffffffffffffffff821161060857508291612f94916101409401611c2c565b608084015260a081015160a084015260c081015160c084015260e081015160e0840152610100810151610100840152610120810151610120840152015161014082015238612d43565b60ff6000199116019060ff8211610d3457565b939093929192612ffe612b3f565b919461300985611d51565b61301c61301586612fdd565b8284613d5d565b94929060208701956060880152604087015281855285526130435750505050505090600090565b61304f97959697613ad8565b83519451670de0b6b3a7640000810290808204670de0b6b3a76400001490151715610d3457613114956130a67f878cac0b879164d8647426da983e248a51ef8192a43e4d3bb5b586ca2017ed54928b975190611d91565b6040519161014083526130bd61014084018861284b565b9460208401526130cc88611d51565b87604084015260046060840152608083015260a08201528760c0820152600060e082015260001961010082015242610120820152806001600160a01b038516930390a2613e11565b9360005b85518110156135ea57600061312c86611d51565b600186149081156135bf575060246131448389612278565b515b60006001600160a01b0360025416604051938480926320bf56eb60e21b82528560048301525afa918215610582576000926135a4575b50604082018051906006821015611d5b5760016000921490811561357b575b506131ad575b50505050600101613118565b809591929395819388916131c08c611d51565b888061356d575b1561346f57506131f8670de0b6b3a76400006131f060c0890151610eb78d60e08c015190611d71565b048095611db1565b97888661339c575b505082608060e088015160e46001600160a01b038454169160405194859384927ff26a3e1d0000000000000000000000000000000000000000000000000000000084528860048501528260248501528b60448501528c606485015282608485015260a48401528160c48401525af19081156133915784859086928794613301575b50927febbb264ee0a0ae96eb7f0d3178c3d7cfed75dcb46bf54fb70fa43000eb77d76e98959261012098959260019c9b98955050505060c06132c1613ad8565b960151906040519687526020870152600360408701526060860152608085015260a084015260c083015260e082015242610100820152a1903880806131a1565b93505050506080813d8211613389575b8161331e608093836119ce565b810103126127a357927febbb264ee0a0ae96eb7f0d3178c3d7cfed75dcb46bf54fb70fa43000eb77d76e959261012095928560019a999651602082015191613374606061336d6040840161221c565b920161221c565b9192909195989b9c5092959850929598613281565b3d9150613311565b6040513d86823e3d90fd5b9198918683106133bb575050846133b291611d71565b965b3880613200565b955097915093829781156000146133d957505060e0850151906133b4565b6133e28c611d51565b1561344e5761340860c0870191670de0b6b3a7640000611fde845160e08b015190611d7e565b90670de0b6b3a7640000820291808304670de0b6b3a7640000149015171561343a575161343491611d91565b906133b4565b602484634e487b7160e01b81526011600452fd5b61340860c0870191670de0b6b3a7640000612124845160e08b015190611d7e565b939461347a8c611d51565b888061355f575b156134b257506131f884670de0b6b3a76400006134ab8c610eb760c08c01519160e08d0151611d71565b0496611db1565b94936134bd8c611d51565b60028c148080613551575b156134f15750506131f8670de0b6b3a76400006131f060c0890151610eb78d60e08c0151611d71565b9094906134fd8d611d51565b80613543575b613512575b846131f891611db1565b94506131f884670de0b6b3a76400006135398c610eb760c08c01519160e08d015190611d71565b0496915050613508565b5060e08701518a1015613503565b5060e08801518b11156134c8565b5060e08701518a1115613481565b5060e08701518a10156131c7565b9050516006811015613590576002143861319b565b602482634e487b7160e01b81526021600452fd5b6135b891923d8091833e61220d81836119ce565b903861317c565b6135ca838951611d71565b906000198201918211610cd557506135e460249189612278565b51613146565b5092505091506135f8613b26565b5090600190565b9061360a9291613816565b90818110613621579061361c91611d71565b600191565b61362a91611d71565b600091565b604051906080820182811067ffffffffffffffff82111761197f5760405260006060838281528260208201528260408201520152565b6020818303126100155780519067ffffffffffffffff82116100155701906101e08282031261001557604051916101e0830183811067ffffffffffffffff82111761197f57604052805167ffffffffffffffff8111610015576101c0926136cd918301611c2c565b8352602081015160208401526136e560408201611bf5565b60408401526136f660608201611bf5565b606084015261370760808201611bf5565b608084015261371860a08201611bf5565b60a084015261372960c08201611bf5565b60c084015261373a60e08201611bf5565b60e08401526101008101516101008401526101208101516101208401526101408101516101408401526101608101516101608401526101808101516101808401526101a08101516101a084015201516101c082015290565b91926137a091949383613816565b9081928282106137bf575b505050509050600090600090600090600090565b906137e16137d06137da9493613bd7565b5193849284611d71565b9687611db1565b10156137ed57806137ab565b8185111561380957506138009084611d71565b91600193929190565b9150506001929160009190565b60009392849190825b845184101561389257613889856104eb866138836001956104eb61387b6138686138608c8c61385989613852818e612278565b5192612278565b5191612b6d565b969098612278565b516138738d8c612278565b51908c612be6565b969092611db1565b9a611db1565b9301929561381f565b95949350505050565b6001600160a01b03168015613938576001600160a01b037f9016d09d72d40fdae2fd8ceac6b6234c7706214fd39c1cd1e609a0528c199300548273ffffffffffffffffffffffffffffffffffffffff198216177f9016d09d72d40fdae2fd8ceac6b6234c7706214fd39c1cd1e609a0528c19930055167f8be0079c531659141344cd1fd0a4f28419497f9722a3daafe3b4186f6b6457e0600080a3565b7f1e4fbdf700000000000000000000000000000000000000000000000000000000600052600060045260246000fd5b6139786001600160a01b0391613cbb565b1660206001600160a01b03600154166024604051809481937f41976e0900000000000000000000000000000000000000000000000000000000835260048301525afa908115610582576000916139cc575090565b90506020813d6020116139f3575b816139e7602093836119ce565b81010312610015575190565b3d91506139da565b9060e460809260006001600160a01b0381541660405196879586947ff26a3e1d000000000000000000000000000000000000000000000000000000008652600486015260016024860152604485015282606485015282608485015260a4840152600160c48401525af18015610582576000928380938193613a7e575b5093929190565b9450915091506080833d608011613ad0575b81613a9d608093836119ce565b810103126106085750815190602083015190613ac76060613ac06040870161221c565b950161221c565b91939238613a77565b3d9150613a90565b600460206001600160a01b0360025416604051928380927fc3710f250000000000000000000000000000000000000000000000000000000082525afa908115610582576000916139cc575090565b600060206001600160a01b03600254166004604051809481937fb99ac9270000000000000000000000000000000000000000000000000000000083525af1908115610582576000916139cc575090565b6001600160a01b037f9016d09d72d40fdae2fd8ceac6b6234c7706214fd39c1cd1e609a0528c19930054163303613ba957565b7f118cdaa7000000000000000000000000000000000000000000000000000000006000523360045260246000fd5b60006080604051613be7816119b2565b828152826020820152826040820152826060820152015260a06001600160a01b03602481600154169360405194859384927ffb47e0160000000000000000000000000000000000000000000000000000000084521660048301525afa90811561058257600091613c55575090565b905060a0813d60a011613cb3575b81613c7060a093836119ce565b8101031261001557608060405191613c87836119b2565b805183526020810151602084015260408101516040840152606081015160608401520151608082015290565b3d9150613c63565b6020613d08916001600160a01b036001541660405180809581947f05ca57cf000000000000000000000000000000000000000000000000000000008352866004840152602483019061284b565b03915afa90811561058257600091613d1e575090565b6020813d602011613d55575b81613d37602093836119ce565b810103126127a75751906001600160a01b0382168203610608575090565b3d9150613d2a565b90613da0926001600160a01b0360809381600254169260ff604051978896879586956306461a8b60e11b875216600486015260606024860152606485019061284b565b9116604483015203915afa8015610582576000928380938193613dc4575093929190565b9450915091506080833d608011613e09575b81613de3608093836119ce565b810103126106085750815160208301516040840151606090940151909392909138613a77565b3d9150613dd6565b90613e6b926001600160a01b03600093816002541692604051968795869485947f0f12fb5900000000000000000000000000000000000000000000000000000000865216600485015260606024850152606484019061284b565b90613e7581611d51565b604483015203915afa90811561058257600091613e90575090565b3d8083833e613e9f81836119ce565b8101906020818303126127ab5780519067ffffffffffffffff82116127a3570181601f820112156127ab57805190613ed682611a54565b93613ee460405195866119ce565b82855260208086019360051b8301019384116106085750602001905b828210613f0d5750505090565b8151815260209182019101613f00565b90600154916001600160a01b0360009316803b156127a35760c48492836001600160a01b0393608060405197889687957fc9f35c3900000000000000000000000000000000000000000000000000000000875216600486015280516024860152602081015160448601526040810151606486015260608101516084860152015160a48401525af180156125b757613fb2575050565b81613fbc916119ce565b50565b93929091936001600160a01b0360025416604051906320bf56eb60e21b8252826004830152600082602481845afa918215610582576000926141f3575b5060408201948551956006871015611d5b576001600097141590816141c9575b506141ba5785906001600160a01b0361403860a0860151613cbb565b16876001600160a01b03600154166024604051809481937fa666200f00000000000000000000000000000000000000000000000000000000835260048301525afa9081156141af5792889260001961010060e4979460609a99978791614195575b50015160c0870151909281811061418d5750995b03614185575b60206001600160a01b038651169501519b6140cd8d611d51565b6040519c8d9889977f1b31c071000000000000000000000000000000000000000000000000000000008952600489015260248801528a604488015261411181611d51565b6064870152608486015260a485015260c48401525af180156125b757829483809261413e575b5050919392565b9293509450506060843d60601161417d575b8161415d606093836119ce565b810103126106085750825190604060208501519401519193913880614137565b3d9150614150565b8891506140b3565b9050996140ad565b6141a991503d8089833e61088e81836119ce565b38614099565b6040513d8a823e3d90fd5b50505050508092509180918190565b90505160068110156141df57600214153861401c565b602487634e487b7160e01b81526021600452fd5b61420791923d8091833e61220d81836119ce565b9038613ffc565b60ff7ff0c57e16840df040f15088dc2f81fe391c3923bec73e23a9662efc9c229c6a005460401c161561423d57565b7fd7e6bcf80000000000000000000000000000000000000000000000000000000060005260046000fdfea26469706673582212205ba55033337f3e881cb8d604d7d50163f76bd6dd6f6469c147f1f23e2ccd963764736f6c634300081c0033",
  "linkReferences": {},
  "deployedLinkReferences": {}
}