{
  "_format": "hh-sol-artifact-1",
  "contractName": "TradeAgent",
  "sourceName": "contracts/TradeAgent.sol",
  "abi": [
    {
      "inputs": [],
      "name": "InvalidInitialization",
      "type": "error"
    },
    {
      "inputs": [],
      "name": "NotInitializing",
      "type": "error"
    },
    {
      "inputs": [
        {
          "internalType": "address",
          "name": "owner",
          "type": "address"
        }
      ],
      "name": "OwnableInvalidOwner",
      "type": "error"
    },
    {
      "inputs": [
        {
          "internalType": "address",
          "name": "account",
          "type": "address"
        }
      ],
      "name": "OwnableUnauthorizedAccount",
      "type": "error"
    },
    {
      "anonymous": false,
      "inputs": [
        {
          "indexed": false,
          "internalType": "address",
          "name": "taker",
          "type": "address"
        },
        {
          "indexed": false,
          "internalType": "uint256",
          "name": "amount",
          "type": "uint256"
        },
        {
          "indexed": false,
          "internalType": "uint256",
          "name": "availableAmount",
          "type": "uint256"
        },
        {
          "indexed": false,
          "internalType": "uint256",
          "name": "marginAmount",
          "type": "uint256"
        },
        {
          "indexed": false,
          "internalType": "uint256",
          "name": "locked",
          "type": "uint256"
        },
        {
          "indexed": false,
          "internalType": "uint256",
          "name": "stage",
          "type": "uint256"
        },
        {
          "indexed": false,
          "internalType": "uint256",
          "name": "dif",
          "type": "uint256"
        }
      ],
      "name": "BalanceOfTaker",
      "type": "event"
    },
    {
      "anonymous": false,
      "inputs": [
        {
          "indexed": false,
          "internalType": "string",
          "name": "name",
          "type": "string"
        },
        {
          "indexed": true,
          "internalType": "address",
          "name": "taker",
          "type": "address"
        },
        {
          "indexed": true,
          "internalType": "address",
          "name": "token",
          "type": "address"
        },
        {
          "indexed": false,
          "internalType": "uint256",
          "name": "orderID",
          "type": "uint256"
        },
        {
          "indexed": false,
          "internalType": "enum ICommon.Direct",
          "name": "orderType",
          "type": "uint8"
        },
        {
          "indexed": false,
          "internalType": "enum IPerpetual.OrderState",
          "name": "state",
          "type": "uint8"
        },
        {
          "indexed": false,
          "internalType": "enum ICommon.Offset",
          "name": "offset",
          "type": "uint8"
        },
        {
          "indexed": false,
          "internalType": "uint256",
          "name": "amount",
          "type": "uint256"
        },
        {
          "indexed": false,
          "internalType": "uint256",
          "name": "targetPrice",
          "type": "uint256"
        },
        {
          "indexed": false,
          "internalType": "uint256",
          "name": "margin",
          "type": "uint256"
        },
        {
          "indexed": false,
          "internalType": "uint256",
          "name": "rewardGas",
          "type": "uint256"
        },
        {
          "indexed": false,
          "internalType": "uint256",
          "name": "tradingFee",
          "type": "uint256"
        },
        {
          "indexed": false,
          "internalType": "uint256",
          "name": "startTime",
          "type": "uint256"
        },
        {
          "indexed": false,
          "internalType": "uint256",
          "name": "goodTill",
          "type": "uint256"
        }
      ],
      "name": "CreateLimitedOrder",
      "type": "event"
    },
    {
      "anonymous": false,
      "inputs": [
        {
          "indexed": false,
          "internalType": "uint256",
          "name": "limitOrderID",
          "type": "uint256"
        },
        {
          "indexed": false,
          "internalType": "uint256",
          "name": "openLimitPrice",
          "type": "uint256"
        },
        {
          "indexed": false,
          "internalType": "uint256",
          "name": "gainTriggerPrice",
          "type": "uint256"
        },
        {
          "indexed": false,
          "internalType": "uint256",
          "name": "gainLimitPrice",
          "type": "uint256"
        },
        {
          "indexed": false,
          "internalType": "uint256",
          "name": "lossTriggerPrice",
          "type": "uint256"
        },
        {
          "indexed": false,
          "internalType": "uint256",
          "name": "lossLimitPrice",
          "type": "uint256"
        }
      ],
      "name": "CreateTriggerCondition",
      "type": "event"
    },
    {
      "anonymous": false,
      "inputs": [
        {
          "indexed": false,
          "internalType": "uint256",
          "name": "code",
          "type": "uint256"
        },
        {
          "indexed": false,
          "internalType": "uint256",
          "name": "orderID",
          "type": "uint256"
        },
        {
          "indexed": false,
          "internalType": "string",
          "name": "message",
          "type": "string"
        }
      ],
      "name": "ErrorInfo",
      "type": "event"
    },
    {
      "anonymous": false,
      "inputs": [
        {
          "indexed": false,
          "internalType": "uint256",
          "name": "code",
          "type": "uint256"
        },
        {
          "indexed": false,
          "internalType": "uint256",
          "name": "orderID",
          "type": "uint256"
        },
        {
          "indexed": false,
          "internalType": "bytes",
          "name": "message",
          "type": "bytes"
        }
      ],
      "name": "ExceptErrorInfo",
      "type": "event"
    },
    {
      "anonymous": false,
      "inputs": [
        {
          "indexed": false,
          "internalType": "uint64",
          "name": "version",
          "type": "uint64"
        }
      ],
      "name": "Initialized",
      "type": "event"
    },
    {
      "anonymous": false,
      "inputs": [
        {
          "indexed": true,
          "internalType": "address",
          "name": "taker",
          "type": "address"
        },
        {
          "indexed": false,
          "internalType": "string",
          "name": "name",
          "type": "string"
        },
        {
          "indexed": false,
          "internalType": "address",
          "name": "token",
          "type": "address"
        },
        {
          "indexed": false,
          "internalType": "uint256",
          "name": "orderID",
          "type": "uint256"
        },
        {
          "indexed": false,
          "internalType": "enum ICommon.Direct",
          "name": "direction",
          "type": "uint8"
        },
        {
          "indexed": false,
          "internalType": "enum IPerpetual.OrderType",
          "name": "orderType",
          "type": "uint8"
        },
        {
          "indexed": false,
          "internalType": "uint256",
          "name": "amount",
          "type": "uint256"
        },
        {
          "indexed": false,
          "internalType": "uint256",
          "name": "costPrice",
          "type": "uint256"
        },
        {
          "indexed": false,
          "internalType": "uint256",
          "name": "price",
          "type": "uint256"
        },
        {
          "indexed": false,
          "internalType": "uint256",
          "name": "tradingFee",
          "type": "uint256"
        },
        {
          "indexed": false,
          "internalType": "uint256",
          "name": "limitOrderId",
          "type": "uint256"
        },
        {
          "indexed": false,
          "internalType": "uint256",
          "name": "timestamp",
          "type": "uint256"
        }
      ],
      "name": "OrderHistory",
      "type": "event"
    },
    {
      "anonymous": false,
      "inputs": [
        {
          "indexed": true,
          "internalType": "address",
          "name": "previousOwner",
          "type": "address"
        },
        {
          "indexed": true,
          "internalType": "address",
          "name": "newOwner",
          "type": "address"
        }
      ],
      "name": "OwnershipTransferred",
      "type": "event"
    },
    {
      "anonymous": false,
      "inputs": [
        {
          "indexed": false,
          "internalType": "address",
          "name": "token",
          "type": "address"
        },
        {
          "indexed": false,
          "internalType": "uint256",
          "name": "orderID",
          "type": "uint256"
        },
        {
          "indexed": false,
          "internalType": "uint256",
          "name": "dealID",
          "type": "uint256"
        },
        {
          "indexed": false,
          "internalType": "enum IPerpetual.TradeType",
          "name": "tradeType",
          "type": "uint8"
        },
        {
          "indexed": false,
          "internalType": "uint256",
          "name": "amount",
          "type": "uint256"
        },
        {
          "indexed": false,
          "internalType": "uint256",
          "name": "price",
          "type": "uint256"
        },
        {
          "indexed": false,
          "internalType": "uint256",
          "name": "tradingFee",
          "type": "uint256"
        },
        {
          "indexed": false,
          "internalType": "uint256",
          "name": "profit",
          "type": "uint256"
        },
        {
          "indexed": false,
          "internalType": "uint256",
          "name": "loss",
          "type": "uint256"
        },
        {
          "indexed": false,
          "internalType": "uint256",
          "name": "timestamp",
          "type": "uint256"
        }
      ],
      "name": "TradeHistory",
      "type": "event"
    },
    {
      "anonymous": false,
      "inputs": [
        {
          "indexed": true,
          "internalType": "address",
          "name": "taker",
          "type": "address"
        },
        {
          "indexed": true,
          "internalType": "address",
          "name": "token",
          "type": "address"
        },
        {
          "indexed": false,
          "internalType": "enum ICommon.TransactionType",
          "name": "transactionType",
          "type": "uint8"
        },
        {
          "indexed": false,
          "internalType": "uint256",
          "name": "amount",
          "type": "uint256"
        },
        {
          "indexed": false,
          "internalType": "uint256",
          "name": "timestamp",
          "type": "uint256"
        }
      ],
      "name": "TransactionHistory",
      "type": "event"
    },
    {
      "anonymous": false,
      "inputs": [
        {
          "indexed": false,
          "internalType": "address",
          "name": "sender",
          "type": "address"
        },
        {
          "indexed": false,
          "internalType": "address",
          "name": "received",
          "type": "address"
        },
        {
          "indexed": false,
          "internalType": "enum ICommon.TransactionType",
          "name": "transactionType",
          "type": "uint8"
        },
        {
          "indexed": false,
          "internalType": "uint256",
          "name": "amount",
          "type": "uint256"
        },
        {
          "indexed": false,
          "internalType": "uint256",
          "name": "timestamp",
          "type": "uint256"
        }
      ],
      "name": "TransferFee",
      "type": "event"
    },
    {
      "anonymous": false,
      "inputs": [
        {
          "indexed": false,
          "internalType": "address",
          "name": "sender",
          "type": "address"
        },
        {
          "indexed": false,
          "internalType": "uint256",
          "name": "beforeLeverage",
          "type": "uint256"
        },
        {
          "indexed": false,
          "internalType": "uint256",
          "name": "afterLeverage",
          "type": "uint256"
        }
      ],
      "name": "setLeverage",
      "type": "event"
    },
    {
      "stateMutability": "nonpayable",
      "type": "fallback"
    },
    {
      "inputs": [
        {
          "internalType": "enum ICommon.Direct",
          "name": "_type",
          "type": "uint8"
        },
        {
          "internalType": "uint256",
          "name": "_currentPrice",
          "type": "uint256"
        },
        {
          "internalType": "uint256",
          "name": "_dealPrice",
          "type": "uint256"
        },
        {
          "internalType": "uint256",
          "name": "_amount",
          "type": "uint256"
        },
        {
          "internalType": "uint256",
          "name": "_willClose",
          "type": "uint256"
        }
      ],
      "name": "calDealPNL",
      "outputs": [
        {
          "internalType": "uint256",
          "name": "profit",
          "type": "uint256"
        },
        {
          "internalType": "uint256",
          "name": "loss",
          "type": "uint256"
        }
      ],
      "stateMutability": "pure",
      "type": "function"
    },
    {
      "inputs": [
        {
          "internalType": "uint256",
          "name": "_orderID",
          "type": "uint256"
        },
        {
          "internalType": "address",
          "name": "_taker",
          "type": "address"
        },
        {
          "internalType": "bool",
          "name": "_status",
          "type": "bool"
        }
      ],
      "name": "cancelOrder",
      "outputs": [],
      "stateMutability": "nonpayable",
      "type": "function"
    },
    {
      "inputs": [
        {
          "internalType": "uint256",
          "name": "_oID",
          "type": "uint256"
        },
        {
          "internalType": "uint256",
          "name": "_price",
          "type": "uint256"
        }
      ],
      "name": "checkLimitOrder",
      "outputs": [
        {
          "internalType": "bool",
          "name": "success",
          "type": "bool"
        }
      ],
      "stateMutability": "view",
      "type": "function"
    },
    {
      "inputs": [
        {
          "internalType": "uint256[]",
          "name": "_orders",
          "type": "uint256[]"
        },
        {
          "internalType": "uint256[]",
          "name": "_prices",
          "type": "uint256[]"
        }
      ],
      "name": "checkLimitOrders",
      "outputs": [
        {
          "internalType": "bool[]",
          "name": "result",
          "type": "bool[]"
        }
      ],
      "stateMutability": "view",
      "type": "function"
    },
    {
      "inputs": [
        {
          "internalType": "uint256[]",
          "name": "_deal",
          "type": "uint256[]"
        },
        {
          "internalType": "uint256[]",
          "name": "_price",
          "type": "uint256[]"
        }
      ],
      "name": "checkMakerDealsRiskStatus",
      "outputs": [
        {
          "internalType": "bool[]",
          "name": "riskStatus",
          "type": "bool[]"
        }
      ],
      "stateMutability": "view",
      "type": "function"
    },
    {
      "inputs": [
        {
          "internalType": "address",
          "name": "_taker",
          "type": "address"
        },
        {
          "internalType": "string[]",
          "name": "_symbols",
          "type": "string[]"
        },
        {
          "internalType": "uint256[]",
          "name": "_prices",
          "type": "uint256[]"
        }
      ],
      "name": "checkTakerRiskStatus",
      "outputs": [
        {
          "internalType": "bool",
          "name": "isRisk",
          "type": "bool"
        },
        {
          "internalType": "uint256",
          "name": "netLoss",
          "type": "uint256"
        },
        {
          "internalType": "uint256",
          "name": "overLoss",
          "type": "uint256"
        },
        {
          "internalType": "uint256",
          "name": "loss",
          "type": "uint256"
        }
      ],
      "stateMutability": "view",
      "type": "function"
    },
    {
      "inputs": [
        {
          "internalType": "address[]",
          "name": "_takers",
          "type": "address[]"
        },
        {
          "internalType": "string[]",
          "name": "_symbols",
          "type": "string[]"
        },
        {
          "internalType": "uint256[]",
          "name": "_prices",
          "type": "uint256[]"
        }
      ],
      "name": "checkTakersRiskStatus",
      "outputs": [
        {
          "internalType": "bool[]",
          "name": "riskStatus",
          "type": "bool[]"
        }
      ],
      "stateMutability": "view",
      "type": "function"
    },
    {
      "inputs": [
        {
          "internalType": "address",
          "name": "_taker",
          "type": "address"
        },
        {
          "internalType": "string",
          "name": "_pair",
          "type": "string"
        },
        {
          "internalType": "enum ICommon.Direct",
          "name": "_type",
          "type": "uint8"
        },
        {
          "internalType": "uint256",
          "name": "_currentPrice",
          "type": "uint256"
        },
        {
          "internalType": "uint256",
          "name": "_deposit",
          "type": "uint256"
        }
      ],
      "name": "clearingTakerPosition",
      "outputs": [
        {
          "internalType": "uint256",
          "name": "remainingDeposit",
          "type": "uint256"
        },
        {
          "internalType": "bool",
          "name": "clear",
          "type": "bool"
        }
      ],
      "stateMutability": "nonpayable",
      "type": "function"
    },
    {
      "inputs": [
        {
          "internalType": "address",
          "name": "_taker",
          "type": "address"
        },
        {
          "internalType": "uint256",
          "name": "_dealID",
          "type": "uint256"
        },
        {
          "internalType": "uint256",
          "name": "_amount",
          "type": "uint256"
        },
        {
          "internalType": "enum IPerpetual.TradeType",
          "name": "_tradeType",
          "type": "uint8"
        },
        {
          "internalType": "uint256",
          "name": "_currentPrice",
          "type": "uint256"
        },
        {
          "internalType": "uint256",
          "name": "_tradeFeeRate",
          "type": "uint256"
        },
        {
          "internalType": "uint256",
          "name": "_profit",
          "type": "uint256"
        },
        {
          "internalType": "uint256",
          "name": "_loss",
          "type": "uint256"
        }
      ],
      "name": "closeDealEvent",
      "outputs": [],
      "stateMutability": "nonpayable",
      "type": "function"
    },
    {
      "inputs": [
        {
          "internalType": "address",
          "name": "_taker",
          "type": "address"
        },
        {
          "internalType": "string",
          "name": "_name",
          "type": "string"
        },
        {
          "internalType": "uint256",
          "name": "_amount",
          "type": "uint256"
        },
        {
          "internalType": "uint256",
          "name": "_currentPrice",
          "type": "uint256"
        },
        {
          "internalType": "enum ICommon.Direct",
          "name": "_type",
          "type": "uint8"
        },
        {
          "internalType": "uint256",
          "name": "_limitID",
          "type": "uint256"
        }
      ],
      "name": "closeOrder",
      "outputs": [
        {
          "components": [
            {
              "internalType": "uint256",
              "name": "totalMargin",
              "type": "uint256"
            },
            {
              "internalType": "uint256",
              "name": "tradingFee",
              "type": "uint256"
            },
            {
              "internalType": "uint256",
              "name": "gain",
              "type": "uint256"
            },
            {
              "internalType": "uint256",
              "name": "loss",
              "type": "uint256"
            }
          ],
          "internalType": "struct ICommon.CloseOrderResult",
          "name": "bulk",
          "type": "tuple"
        }
      ],
      "stateMutability": "nonpayable",
      "type": "function"
    },
    {
      "inputs": [
        {
          "internalType": "address",
          "name": "_user",
          "type": "address"
        },
        {
          "internalType": "string",
          "name": "_name",
          "type": "string"
        },
        {
          "internalType": "uint256",
          "name": "_price",
          "type": "uint256"
        }
      ],
      "name": "getMaxOpenAmount",
      "outputs": [
        {
          "internalType": "uint256",
          "name": "amount",
          "type": "uint256"
        }
      ],
      "stateMutability": "view",
      "type": "function"
    },
    {
      "inputs": [
        {
          "internalType": "address",
          "name": "_user",
          "type": "address"
        },
        {
          "internalType": "string[]",
          "name": "_symbols",
          "type": "string[]"
        },
        {
          "internalType": "uint256[]",
          "name": "_prices",
          "type": "uint256[]"
        }
      ],
      "name": "getMaxWithdrawableAmount",
      "outputs": [
        {
          "internalType": "uint256",
          "name": "_amount",
          "type": "uint256"
        }
      ],
      "stateMutability": "view",
      "type": "function"
    },
    {
      "inputs": [
        {
          "internalType": "address",
          "name": "_user",
          "type": "address"
        },
        {
          "internalType": "string[]",
          "name": "_symbols",
          "type": "string[]"
        },
        {
          "internalType": "uint256[]",
          "name": "_prices",
          "type": "uint256[]"
        }
      ],
      "name": "getPNL",
      "outputs": [
        {
          "internalType": "bool",
          "name": "flag",
          "type": "bool"
        },
        {
          "internalType": "uint256",
          "name": "amount",
          "type": "uint256"
        }
      ],
      "stateMutability": "view",
      "type": "function"
    },
    {
      "inputs": [
        {
          "internalType": "address",
          "name": "_taker",
          "type": "address"
        },
        {
          "internalType": "string",
          "name": "_name",
          "type": "string"
        },
        {
          "internalType": "uint256",
          "name": "_price",
          "type": "uint256"
        },
        {
          "internalType": "uint8",
          "name": "_direction",
          "type": "uint8"
        }
      ],
      "name": "getPNLByCertainPosition",
      "outputs": [
        {
          "internalType": "uint256",
          "name": "profit",
          "type": "uint256"
        },
        {
          "internalType": "uint256",
          "name": "loss",
          "type": "uint256"
        }
      ],
      "stateMutability": "view",
      "type": "function"
    },
    {
      "inputs": [
        {
          "internalType": "address",
          "name": "_taker",
          "type": "address"
        },
        {
          "internalType": "string[]",
          "name": "_symbols",
          "type": "string[]"
        },
        {
          "internalType": "uint256[]",
          "name": "_prices",
          "type": "uint256[]"
        }
      ],
      "name": "getPNLByPosition",
      "outputs": [
        {
          "internalType": "uint256",
          "name": "totalProfit",
          "type": "uint256"
        },
        {
          "internalType": "uint256",
          "name": "totalLoss",
          "type": "uint256"
        }
      ],
      "stateMutability": "view",
      "type": "function"
    },
    {
      "inputs": [],
      "name": "getShareNetValue",
      "outputs": [
        {
          "internalType": "uint256",
          "name": "",
          "type": "uint256"
        }
      ],
      "stateMutability": "view",
      "type": "function"
    },
    {
      "inputs": [
        {
          "internalType": "address",
          "name": "initialOwner",
          "type": "address"
        },
        {
          "internalType": "address",
          "name": "_priPool",
          "type": "address"
        },
        {
          "internalType": "address",
          "name": "_perpetual",
          "type": "address"
        },
        {
          "internalType": "address",
          "name": "_settle",
          "type": "address"
        }
      ],
      "name": "initialize",
      "outputs": [],
      "stateMutability": "nonpayable",
      "type": "function"
    },
    {
      "inputs": [
        {
          "internalType": "uint256",
          "name": "_dealID",
          "type": "uint256"
        },
        {
          "internalType": "uint256",
          "name": "_price",
          "type": "uint256"
        }
      ],
      "name": "liquidateMakerDeal",
      "outputs": [
        {
          "internalType": "bool",
          "name": "isLiquidated",
          "type": "bool"
        },
        {
          "internalType": "bool",
          "name": "isAgreement",
          "type": "bool"
        },
        {
          "internalType": "uint256",
          "name": "userProfit",
          "type": "uint256"
        }
      ],
      "stateMutability": "nonpayable",
      "type": "function"
    },
    {
      "inputs": [
        {
          "internalType": "uint256[]",
          "name": "_dealIDs",
          "type": "uint256[]"
        },
        {
          "internalType": "string[]",
          "name": "_symbols",
          "type": "string[]"
        },
        {
          "internalType": "uint256[]",
          "name": "_prices",
          "type": "uint256[]"
        }
      ],
      "name": "liquidateMakerDeals",
      "outputs": [],
      "stateMutability": "nonpayable",
      "type": "function"
    },
    {
      "inputs": [],
      "name": "owner",
      "outputs": [
        {
          "internalType": "address",
          "name": "",
          "type": "address"
        }
      ],
      "stateMutability": "view",
      "type": "function"
    },
    {
      "inputs": [],
      "name": "renounceOwnership",
      "outputs": [],
      "stateMutability": "nonpayable",
      "type": "function"
    },
    {
      "inputs": [
        {
          "internalType": "address",
          "name": "_orderBook",
          "type": "address"
        },
        {
          "internalType": "address",
          "name": "_station",
          "type": "address"
        }
      ],
      "name": "setKeepers",
      "outputs": [],
      "stateMutability": "nonpayable",
      "type": "function"
    },
    {
      "inputs": [
        {
          "internalType": "address",
          "name": "newOwner",
          "type": "address"
        }
      ],
      "name": "transferOwnership",
      "outputs": [],
      "stateMutability": "nonpayable",
      "type": "function"
    },
    {
      "inputs": [
        {
          "internalType": "string",
          "name": "_name",
          "type": "string"
        },
        {
          "internalType": "enum ICommon.Direct",
          "name": "_type",
          "type": "uint8"
        }
      ],
      "name": "verifyTradeStatus",
      "outputs": [],
      "stateMutability": "view",
      "type": "function"
    }
  ],
  "bytecode": "0x60808060405234601557614562908161001b8239f35b600080fdfe6080604052600436101561001a575b3461001557005b600080fd5b60003560e01c8063016f4dcb14611aac5780632b00020614611a025780633b1e6a59146119e7578063642bcd181461197c578063715018a6146118d6578063721db562146118805780638da5cb5b1461183a5780639324b549146117b95780639aa59c6514611792578063b7288fdd146115f7578063c254878b146115c4578063c2b33564146114b3578063ca2afc4e146113ec578063ca6ec3721461128b578063cd3fd61714610d31578063d0e3d0dc14610b61578063e6b34c6914610b3e578063eb4f2e361461079d578063ede13d8c14610778578063f2fde38b1461075a578063f5a4bc66146105bf578063f69ef33b14610555578063f8c8765e146102585763fafc57f20361000e57346100155760606003193601126100155760043567ffffffffffffffff8111610015573660238201121561001557806004013561016381611ba9565b916101716040519384611b86565b8183526024602084019260051b8201019036821161001557602401915b818310610238578360243567ffffffffffffffff8111610015576101b6903690600401611d0c565b60443567ffffffffffffffff8111610015576101d6903690600401611bc1565b8251916101e283612ad2565b9360005b8481106101ff57604051806101fb8882611c6d565b0390f35b8061022085856001600160a01b0361021960019688612470565b51166133ce565b50505061022d8289612470565b9015159052016101e6565b82356001600160a01b03811681036100155781526020928301920161018e565b3461001557608060031936011261001557610271611b0c565b610279611b22565b906044356001600160a01b03811680910361001557606435916001600160a01b038316809303610015577ff0c57e16840df040f15088dc2f81fe391c3923bec73e23a9662efc9c229c6a00549360ff8560401c16159467ffffffffffffffff81168015908161054d575b6001149081610543575b15908161053a575b50610510576001600160a01b0392818760017fffffffffffffffffffffffffffffffffffffffffffffffff000000000000000061037c9516177ff0c57e16840df040f15088dc2f81fe391c3923bec73e23a9662efc9c229c6a00556104bb575b5061035e6144d3565b6103666144d3565b61036f33613971565b610377613ded565b613971565b168073ffffffffffffffffffffffffffffffffffffffff19600154161760015560005260056020526040600020600160ff198254161790558073ffffffffffffffffffffffffffffffffffffffff19600254161760025560005260056020526040600020600160ff198254161790553060005260056020526040600020600160ff1982541617905573ffffffffffffffffffffffffffffffffffffffff19600054161760005561042857005b7fffffffffffffffffffffffffffffffffffffffffffffff00ffffffffffffffff7ff0c57e16840df040f15088dc2f81fe391c3923bec73e23a9662efc9c229c6a0054167ff0c57e16840df040f15088dc2f81fe391c3923bec73e23a9662efc9c229c6a00557fc7f505b2f371ae2175ee4913f4499e1f2633a7b5936321eed1cdaeb6115181d2602060405160018152a1005b7fffffffffffffffffffffffffffffffffffffffffffffff0000000000000000001668010000000000000001177ff0c57e16840df040f15088dc2f81fe391c3923bec73e23a9662efc9c229c6a005587610355565b7ff92ee8a90000000000000000000000000000000000000000000000000000000060005260046000fd5b905015876102f5565b303b1591506102ed565b8791506102e3565b346100155761056336611c1e565b81519061056f82612ad2565b9260005b83811061058857604051806101fb8782611c6d565b806105aa61059860019385612470565b516105a38387612470565b5190613a3d565b6105b48288612470565b901515905201610573565b3461001557610100600319360112610015576105d9611b0c565b60643590604435600583101561001557608435907fc136432a1484e156abdd300674f3ca1991800b1936e60da2b47c69dda822f75a61014060c4359260e4359433600052600560205261063360ff60406000205416611dea565b670de0b6b3a7640000806106528361064d8660a435611fd0565b611fd0565b04049061065d613d20565b926001600160a01b036000541693604051948552602085015260243560408501526000996060850152608084015260a083015260c08201528360e08201528461010082015242610120820152a180610706575b50806106ba578280f35b7ffe1040c72b0fa917ba66cc39f1adcb8ea8a3d05c3848f202db07ddb406f7c96060606001600160a01b038086541694604051946005865260208601524260408601521692a381808280f35b6001600160a01b0384541690604051906004825260208201524260408201527ffe1040c72b0fa917ba66cc39f1adcb8ea8a3d05c3848f202db07ddb406f7c96060606001600160a01b03861692a3836106b0565b346100155760206003193601126100155761077661036f611b0c565b005b3461001557604061079161078b36611d8b565b916138ec565b82519182526020820152f35b346100155760606003193601126100155760043567ffffffffffffffff8111610015576107ce903690600401611bc1565b60243567ffffffffffffffff8111610015576107ee903690600401611d0c565b9060443567ffffffffffffffff81116100155761080f903690600401611bc1565b9033600052600560205261082a60ff60406000205416611dea565b805191600090602085019060208101925b85811061084457005b6001600160a01b03600354169061085b8187612470565b519160405180937fdcee347500000000000000000000000000000000000000000000000000000000825260648201906004830152606060248301528a51809152608482019060848160051b84010191889160005b818110610af357505050506003198282030160448301526020865191828152019088906000905b808210610ad757505050918160008160a09503925af18015610a4657600080809181958294610a6b575b5081610a63575b50610919575b5050600191500161083b565b6001600160a01b036002541693843b1561001557604051927f9048f2e0000000000000000000000000000000000000000000000000000000008452600084604481836001600160a01b0387169a8b60048401528160248401525af1938415610a46576109cc94610a52575b5061098e8261400e565b9261099a818551612003565b84526109b4826109af60208701938451612003565b612003565b90526109c560408401918251611fc3565b90526141e2565b6001600160a01b036002541691823b15610015576000926044849260405195869384927f9048f2e00000000000000000000000000000000000000000000000000000000084526004840152600a60248401525af1918215610a4657600192610a35575b8061090d565b6000610a4091611b86565b88610a2f565b6040513d6000823e3d90fd5b6000610a5d91611b86565b8c610984565b90508b610907565b95505091505060a0833d8211610acf575b81610a8960a09383611b86565b81010312610acc5750610a9b82612414565b91610aa860208201612414565b906040810151916080610abd60608401611e35565b9201519490929194928c610900565b80fd5b3d9150610a7c565b91935091602080600192865181520194019201869392916108d6565b91936020610b2e827fffffffffffffffffffffffffffffffffffffffffffffffffffffffffffffff7c6001959799849503018852885161332f565b96019401910191879493926108af565b34610015576020610b57610b5136611af6565b906135cf565b6040519015158152f35b346100155760406003193601126100155760043567ffffffffffffffff811161001557610b92903690600401611cc5565b60243590600382101561001557610bb06001600160a01b03916140f2565b168015610ced5760006001600160a01b03600254166024604051809481937fa666200f00000000000000000000000000000000000000000000000000000000835260048301525afa8015610a46576101c091600091610cca575b500151610c8657610c1a81611fa3565b60018114908115610c72575b5015610c2e57005b606460405162461bcd60e51b815260206004820152600a60248201527f77726f6e672074797065000000000000000000000000000000000000000000006044820152fd5b60029150610c7f81611fa3565b1481610c26565b606460405162461bcd60e51b815260206004820152601360248201527f446f206e6f7420747261646520737461747573000000000000000000000000006044820152fd5b610ce791503d806000833e610cdf8183611b86565b8101906134a2565b83610c0a565b606460405162461bcd60e51b815260206004820152600960248201527f756e537570706f727400000000000000000000000000000000000000000000006044820152fd5b346100155760c060031936011261001557610d4a611b0c565b60243567ffffffffffffffff811161001557610d6a903690600401611cc5565b604435606435906084359260038410156100155760a43594610d8a61346c565b50336000526005602052610da560ff60406000205416611dea565b610dad61346c565b95610db6612b03565b94610dc087611fa3565b610dd3610dcc88612cb6565b8585613e4e565b929050602089929901986060830193845289528152600060c0604051610df881611b38565b8281528260208201528260408201528260608201528260808201528260a082015201526001600160a01b03600254166040517fe1fb28b800000000000000000000000000000000000000000000000000000000815260208180610e5f8b8b60048401613354565b0381855afa8015610a4657600090611258575b60e0915060846001600160a01b03610e898b6140f2565b169360405194859384927f07ec446600000000000000000000000000000000000000000000000000000000845260048401528d602484015289604484015260648301525afa8015610a4657604091600091611229575b50015160208b019081529160001985036111dd5788519051610f0091611fc3565b8711611199575b51670de0b6b3a7640000810290808204670de0b6b3a76400001490151715611183578751610f3491611fe3565b7f3174923aee4fc7c29de893ec1a82807b9f70eea78b57219cce0e76a78350dd47610f5d613d20565b83516001600160a01b036000541693604051926101608452610f8361016085018c61332f565b9560208501526040840152610f978d611fa3565b8c6060840152600360808401528a60a084015260c08301528560e08301526101008201528561012082015242610140820152806001600160a01b038816930390a2610fe188611fa3565b610ff5610fed89612cb6565b838787612c1c565b949060408b019860608c01968752818a52888151811061114d575b505050611027896000978893898952898c52613f02565b60018a149990875b815181101561113857600061104384611fa3565b8c156110fb57506110548183612470565b515b8a8a10156110c5578a6000198203611073575b505060010161102f565b8a6110b36110ab61109b8c6110a59a9f600198976110958f926110bc99611fc3565b90614284565b90929b9195612003565b9e612003565b978c51612003565b8b528d51612003565b8c52908a611069565b50505050975093505050929150836080955b6110df613d9d565b5052604051938452516020840152516040830152516060820152f35b611106828451611fc3565b906000198201918211611124575061111e9083612470565b51611056565b80634e487b7160e01b602492526011600452fd5b505050975093505050929150836080956110d7565b61115d6111659161117a94611fd0565b825190611fe3565b8a52611172898851611fd0565b905190611fe3565b508a8088611010565b634e487b7160e01b600052601160045260246000fd5b606460405162461bcd60e51b815260206004820152601360248201527f636c6f736520616d6f756e7420657863656564000000000000000000000000006044820152fd5b51871115610f0757606460405162461bcd60e51b815260206004820152601b60248201527f616d6f756e74206973206772656174207468656e20667265657a6500000000006044820152fd5b61124b915060e03d60e011611251575b6112438183611b86565b810190613374565b8c610edf565b503d611239565b506020813d602011611283575b8161127260209383611b86565b810103126100155760e09051610e72565b3d9150611265565b346100155760a060031936011261001557600435600381101561001557602435604435906064356084359360016000916112c481611fa3565b0361139c5750919290919083831061137457670de0b6b3a7640000936112fa836112f5611300946113069796611fd0565b611fe3565b92611fc3565b90611fd0565b046000905b8015801561136c575b156113285760409182519182526020820152f35b606460405162461bcd60e51b815260206004820152600960248201527f504e4c206572726f7200000000000000000000000000000000000000000000006044820152fd5b508115611314565b92611300670de0b6b3a7640000936112fa611395946112f560009882611fd0565b049061130b565b8383116113cc57506113c392916112fa826112f5670de0b6b3a76400009761130095611fd0565b0460009061130b565b670de0b6b3a7640000936112fa61139594936112f5611300949882611fd0565b34610015576113fa36611d8b565b919061141360009361140b8461400e565b9285946132ff565b90156114ab575b50604081015192611429614194565b670de0b6b3a764000003670de0b6b3a7640000811161118357611457670de0b6b3a764000091602096611fd0565b0481811061146f57505082915001515b604051908152f35b909184018261147f838351612003565b101561148e575b505050611467565b6114a393509061149e9151612003565b611fc3565b828080611486565b92508361141a565b34610015576060600319360112610015576114cc611b22565b604435801515809103610015576020600091338352600582526114f560ff604085205416611dea565b60646001600160a01b03600354169160405194859384927fc2b3356400000000000000000000000000000000000000000000000000000000845260043560048501526001600160a01b038916602485015260448401525af1908115610a4657600091611592575b508061156457005b816115716107769361400e565b9160208301611581828251612003565b90526109c560608401918251611fc3565b906020823d6020116115bc575b816115ac60209383611b86565b81010312610acc5750518261155c565b3d915061159f565b346100155760806115dd6115d736611d8b565b916133ce565b916040519315158452602084015260408301526060820152f35b3461001557606060031936011261001557611610611b0c565b60243567ffffffffffffffff811161001557611630903690600401611cc5565b61168161163c8361400e565b916020816001600160a01b03600254169560405194859283927fe1fb28b800000000000000000000000000000000000000000000000000000000845260048401613354565b0381875afa918215610a465760009261175d575b509060846001600160a01b036116ac60e0946140f2565b169460405195869384927f07ec446600000000000000000000000000000000000000000000000000000000845260048401526402540be4006024840152604435604484015260648301525afa918215610a4657600092611739575b5060200151906402540be4008202918083046402540be400149015171561118357602091606061146792015190611fe3565b60209192506117569060e03d60e011611251576112438183611b86565b9190611707565b91506020823d60201161178a575b8161177860209383611b86565b81010312610015579051906084611695565b3d915061176b565b346100155760406117ab6117a536611d8b565b916132ff565b825191151582526020820152f35b346100155760a0600319360112610015576117d2611b0c565b60243567ffffffffffffffff8111610015576117f2903690600401611cc5565b6044359060038210156100155760409261182c9233600052600560205261181f60ff866000205416611dea565b6084359260643592612cc9565b825191825215156020820152f35b346100155760006003193601126100155760206001600160a01b037f9016d09d72d40fdae2fd8ceac6b6234c7706214fd39c1cd1e609a0528c1993005416604051908152f35b3461001557608060031936011261001557611899611b0c565b60243567ffffffffffffffff8111610015576118b9903690600401611cc5565b60643560ff81168103610015576040926107919260443591612c1c565b34610015576000600319360112610015576118ef613ded565b60006001600160a01b037f9016d09d72d40fdae2fd8ceac6b6234c7706214fd39c1cd1e609a0528c1993005473ffffffffffffffffffffffffffffffffffffffff1981167f9016d09d72d40fdae2fd8ceac6b6234c7706214fd39c1cd1e609a0528c19930055167f8be0079c531659141344cd1fd0a4f28419497f9722a3daafe3b4186f6b6457e08280a3005b346100155761198a36611c1e565b906119958151612ad2565b9160005b82518110156119d957806119c46119b260019386612470565b516119bd8386612470565b51906135cf565b6119ce8287612470565b901515905201611999565b604051806101fb8682611c6d565b3461001557600060031936011261001557602061146761249a565b3461001557604060031936011261001557611a1b611b0c565b6001600160a01b0380611a2c611b22565b92611a35613ded565b16918260005260056020526040600020600160ff1982541617905516908160005260056020526040600020600160ff1982541617905573ffffffffffffffffffffffffffffffffffffffff19600354161760035573ffffffffffffffffffffffffffffffffffffffff196004541617600455600080f35b34610015576060611adf611abf36611af6565b90336000526005602052611ada60ff60406000205416611dea565b612010565b906040519215158352151560208301526040820152f35b6003196040910112610015576004359060243590565b600435906001600160a01b038216820361001557565b602435906001600160a01b038216820361001557565b60e0810190811067ffffffffffffffff821117611b5457604052565b634e487b7160e01b600052604160045260246000fd5b60a0810190811067ffffffffffffffff821117611b5457604052565b90601f601f19910116810190811067ffffffffffffffff821117611b5457604052565b67ffffffffffffffff8111611b545760051b60200190565b9080601f83011215610015578135611bd881611ba9565b92611be66040519485611b86565b81845260208085019260051b82010192831161001557602001905b828210611c0e5750505090565b8135815260209182019101611c01565b9060406003198301126100155760043567ffffffffffffffff81116100155782611c4a91600401611bc1565b916024359067ffffffffffffffff821161001557611c6a91600401611bc1565b90565b602060408183019282815284518094520192019060005b818110611c915750505090565b82511515845260209384019390920191600101611c84565b67ffffffffffffffff8111611b5457601f01601f191660200190565b81601f8201121561001557803590611cdc82611ca9565b92611cea6040519485611b86565b8284526020838301011161001557816000926020809301838601378301015290565b9080601f83011215610015578135611d2381611ba9565b92611d316040519485611b86565b81845260208085019260051b820101918383116100155760208201905b838210611d5d57505050505090565b813567ffffffffffffffff811161001557602091611d8087848094880101611cc5565b815201910190611d4e565b6060600319820112610015576004356001600160a01b0381168103610015579160243567ffffffffffffffff81116100155782611dca91600401611d0c565b916044359067ffffffffffffffff821161001557611c6a91600401611bc1565b15611df157565b606460405162461bcd60e51b815260206004820152601a60248201527f63616c6c6572206973206e6f74206167656e74206b65657065720000000000006044820152fd5b51906001600160a01b038216820361001557565b60005b838110611e5c5750506000910152565b8181015183820152602001611e4c565b81601f82011215610015578051611e8281611ca9565b92611e906040519485611b86565b8184526020828401011161001557611c6a9160208085019101611e49565b6020818303126100155780519067ffffffffffffffff8211610015570190610160828203126100155760405191610160830183811067ffffffffffffffff821117611b5457604052611eff81611e35565b83526020810151600381101561001557602084015260408101516006811015610015576040840152606081015160038110156100155760608401526080810151608084015260a081015167ffffffffffffffff81116100155761014092611f67918301611e6c565b60a084015260c081015160c084015260e081015160e0840152610100810151610100840152610120810151610120840152015161014082015290565b60031115611fad57565b634e487b7160e01b600052602160045260246000fd5b9190820391821161118357565b8181029291811591840414171561118357565b8115611fed570490565b634e487b7160e01b600052601260045260246000fd5b9190820180921161118357565b9160249060006001600160a01b0360035416604051938480926320bf56eb60e21b82528860048301525afa918215610a46576000926123f1575b506120558385613a3d565b156123e55760208201916001835161206c81611fa3565b61207581611fa3565b14806123d8575b156122a35760c0810193845195670de0b6b3a76400006120a560e08501986113008a5186611fc3565b04946120b2838784613c42565b909a925098908a156122905780890361220c575b505050917fc136432a1484e156abdd300674f3ca1991800b1936e60da2b47c69dda822f75a9391610140935b7f3174923aee4fc7c29de893ec1a82807b9f70eea78b57219cce0e76a78350dd4761216b6001600160a01b038651169260a087015190612130613d20565b905161213b81611fa3565b60c089019860e08a51910151916001600160a01b036000541693604051968796610160885261016088019061332f565b946020870152604086015261217f81611fa3565b60608501526005608085015260a084015260c08301528660e0830152600061010083015260001961012083015242898301520390a26121bc613d9d565b9251906001600160a01b0360005416936040519485526020850152604084015260036060840152608083015260a0820152600060c08201528460e0820152600061010082015242610120820152a1565b9095939450612235919750670de0b6b3a764000061222f82998851905190611fd0565b04612003565b92670de0b6b3a7640000840293808504670de0b6b3a7640000149015171561118357612287610140947fc136432a1484e156abdd300674f3ca1991800b1936e60da2b47c69dda822f75a965190611fe3565b938193956120c6565b5060009950899850889750505050505050565b600283516122b081611fa3565b6122b981611fa3565b14806123cb575b156123be5760c0810193845195670de0b6b3a76400006122e960e0850198611300858b51611fc3565b04946122f6838784613c42565b909a925098908a156122905780890361233a575b505050917fc136432a1484e156abdd300674f3ca1991800b1936e60da2b47c69dda822f75a9391610140936120f2565b9095939450612363919750670de0b6b3a764000061235d82998851905190611fd0565b04611fc3565b92670de0b6b3a7640000840293808504670de0b6b3a76400001490151715611183576123b5610140947fc136432a1484e156abdd300674f3ca1991800b1936e60da2b47c69dda822f75a965190611fe3565b9381939561230a565b5060009350839250829150565b508360e0820151116122c0565b5060e0810151841161207c565b60009350839250829150565b61240d91923d8091833e6124058183611b86565b810190611eae565b903861204a565b5190811515820361001557565b919060a0838203126100155761243683612414565b9260208101519260408201519260608301519067ffffffffffffffff821161001557612469608091611c6a938601611e6c565b9301611e35565b80518210156124845760209160051b010190565b634e487b7160e01b600052603260045260246000fd5b6001600160a01b036001541690604051917fcf5bd3770000000000000000000000000000000000000000000000000000000083526017600484015260006024840152600083604481845afa908115610a4657604493600092612aae575b50600090604051948580927fcf5bd377000000000000000000000000000000000000000000000000000000008252600e60048301528460248301525afa928315610a465760009081908295612a84575b5082159081159182612a7c575b612a6b5782149081612a63575b50612a36576001600160a01b0360025416936040517fcd2ce4ae000000000000000000000000000000000000000000000000000000008152600081600481895afa908115610a4657600091612979575b5060015492946000946001600160a01b039094169385939285929091855b83518910156128be576125e28985612470565b51906001600160a01b036125f5836140f2565b169060208d6024604051809581937f41976e0900000000000000000000000000000000000000000000000000000000835260048301525afa918215610a465760009261288b575b50811561287f57604051926040840184811067ffffffffffffffff821117611b5457604052600084526020840190600082526000926040516306461a8b60e11b81526001600160a01b038c1694856004830152606060248301526040828d81806126a9606482018a61332f565b86604483015203915afa91821561287257908f97969594939291818093612827575b50508185528852670de0b6b3a7640000906126e7908790611fd0565b049087518083101560001461280857509161271461270c604093612741979695612003565b895190611fc3565b965b60009483518097819482936306461a8b60e11b8452600484015260606024840152606483019061332f565b6001604483015203915afa9283156127fd578280946127bd575b50508290528452670de0b6b3a76400009161277591611fd0565b0491828151101560001461279e579161149e612795926001945190612003565b985b01976125cf565b6127af6001936127b7939c9a612003565b905190611fc3565b96612797565b91935091506040823d82116127f5575b816127da60409383611b86565b81010312610acc57508051602090910151918161277561275b565b3d91506127cd565b6040513d84823e3d90fd5b60409261274196959492989f6128219261149e91612003565b9d612716565b925092939495969750506040823d821161286a575b8161284960409383611b86565b81010312610acc575080516020909101518e969594939291866126e76126cb565b3d915061283c565b50604051903d90823e3d90fd5b99905060019150612797565b90916020823d82116128b6575b816128a560209383611b86565b81010312610acc575051903861263c565b3d9150612898565b959750979350975050506128d29250612003565b908082111561290f576128e491611fc3565b90670de0b6b3a7640000820291808304670de0b6b3a7640000149015171561118357611c6a91611fe3565b608460405162461bcd60e51b815260206004820152602160248201527f657363726f77206163636f756e742073686f756c64206265206465746f6e617460448201527f65000000000000000000000000000000000000000000000000000000000000006064820152fd5b3d8083833e6129888183611b86565b810190602081830312612a325780519067ffffffffffffffff8211612a2a570181601f82011215612a325780516129be81611ba9565b936129cc6040519586611b86565b81855260208086019260051b84010192848411612a2e5760208101925b8484106129fc57505050505050386125b1565b835167ffffffffffffffff8111612a2a57602091612a1f88848094870101611e6c565b8152019301926129e9565b8380fd5b5080fd5b8280fd5b919250670de0b6b3a7640000820291808304670de0b6b3a7640000149015171561118357611c6a91611fe3565b905038612561565b50670de0b6b3a76400009450505050565b508215612554565b919050612aa49294503d8091833e612a9c8183611b86565b810190612421565b9593505038612547565b6000919250612ac6903d8084833e612a9c8183611b86565b505091505091906124f7565b90612adc82611ba9565b612ae96040519182611b86565b828152601f19612af98294611ba9565b0190602036910137565b60405190612b1082611b6a565b60606080836000815260006020820152600060408201526000838201520152565b90918015612b9f57670de0b6b3a7640000612b72600092612b5d60008097612b57612b03565b97613e4e565b50604088015260208701819052908652611fd0565b0490825180831015600014612b91575050612b8e915190611fc3565b91565b90949350611c6a9250611fc3565b505050600090600090565b9291926000908415612c1457670de0b6b3a7640000612bee8396612bd960018697612bd3612b03565b96613e4e565b50604087015260208601819052908552611fd0565b825191900492508211612c0857612b8e9293945051611fc3565b611c6a92505190611fc3565b509250508190565b919290928015612caa5760ff670de0b6b3a7640000612c61600093612c4c86600099612c46612b03565b99613e4e565b5060408a015260208901819052908852611fd0565b049216612c90578251808310612c805750612b8e92916127af91612003565b611c6a935061149e919594612003565b825190949392908211612c0857612b8e9293945051611fc3565b50505050600090600090565b60ff6000199116019060ff821161118357565b939093929192612cd7612b03565b9194612ce285611fa3565b612cf5612cee86612cb6565b8284613e4e565b9492906020870195606088015260408701528185528552612d1c5750505050505090600090565b612d2897959697613d20565b9383519051670de0b6b3a7640000810290808204670de0b6b3a7640000149015171561118357612e0195612d807f3174923aee4fc7c29de893ec1a82807b9f70eea78b57219cce0e76a78350dd47928b975190611fe3565b6001600160a01b036000541693604051926101608452612da461016085018961332f565b9560208501526040840152612db888611fa3565b8760608401526004608084015260a083015260c08201528760e0820152600061010082015260001961012082015242610140820152806001600160a01b038516930390a2613f02565b9360005b85518110156132ea576000612e1986611fa3565b600186149081156132bf57506024612e318389612470565b515b60006001600160a01b0360035416604051938480926320bf56eb60e21b82528560048301525afa918215610a46576000926132a4575b50604082018051906006821015611fad5760016000921490811561327b575b50612e9a575b50505050600101612e05565b80959192939581938891612ead8c611fa3565b888061326d575b1561316f5750612ee5670de0b6b3a7640000612edd60c08901516113008d60e08c015190611fc3565b048095612003565b97888661309c575b505082608060e088015160e46001600160a01b03600154169160405194859384927ff26a3e1d0000000000000000000000000000000000000000000000000000000084528860048501528260248501528b60448501528c606485015282608485015260a48401528160c48401525af19081156130915784859086928794613001575b50927fc136432a1484e156abdd300674f3ca1991800b1936e60da2b47c69dda822f75a98959261014098959260019c9b98955050505060c0612faf613d20565b960151906001600160a01b03845416966040519788526020880152604087015260036060870152608086015260a085015260c084015260e083015261010082015242610120820152a190388080612e8e565b93505050506080813d8211613089575b8161301e60809383611b86565b81010312612a2a57927fc136432a1484e156abdd300674f3ca1991800b1936e60da2b47c69dda822f75a959261014095928560019a999651602082015191613074606061306d60408401612414565b9201612414565b9192909195989b9c5092959850929598612f6f565b3d9150613011565b6040513d86823e3d90fd5b9198918683106130bb575050846130b291611fc3565b965b3880612eed565b955097915093829781156000146130d957505060e0850151906130b4565b6130e28c611fa3565b1561314e5761310860c0870191670de0b6b3a764000061222f845160e08b015190611fd0565b90670de0b6b3a7640000820291808304670de0b6b3a7640000149015171561313a575161313491611fe3565b906130b4565b602484634e487b7160e01b81526011600452fd5b61310860c0870191670de0b6b3a764000061235d845160e08b015190611fd0565b939461317a8c611fa3565b888061325f575b156131b25750612ee584670de0b6b3a76400006131ab8c61130060c08c01519160e08d0151611fc3565b0496612003565b94936131bd8c611fa3565b60028c148080613251575b156131f1575050612ee5670de0b6b3a7640000612edd60c08901516113008d60e08c0151611fc3565b9094906131fd8d611fa3565b80613243575b613212575b84612ee591612003565b9450612ee584670de0b6b3a76400006132398c61130060c08c01519160e08d015190611fc3565b0496915050613208565b5060e08701518a1015613203565b5060e08801518b11156131c8565b5060e08701518a1115613181565b5060e08701518a1015612eb4565b90505160068110156132905760021438612e88565b602482634e487b7160e01b81526021600452fd5b6132b891923d8091833e6124058183611b86565b9038612e69565b6132ca838951611fc3565b90600019820191821161112457506132e460249189612470565b51612e33565b5092505091506132f8613d9d565b5090600190565b9061330a92916138ec565b90818110613321579061331c91611fc3565b600191565b61332a91611fc3565b600091565b90601f19601f60209361334d81518092818752878088019101611e49565b0116010190565b6040906001600160a01b03611c6a9493168152816020820152019061332f565b908160e09103126100155760c06040519161338e83611b38565b805183526020810151602084015260408101516040840152606081015160608401526080810151608084015260a081015160a0840152015160c082015290565b92916133fe906133dd8561400e565b92670de0b6b3a76400006133f76040860151611300614194565b04956138ec565b90819282821061341d575b505050509050600090600090600090600090565b9061343761343093925193849284611fc3565b9687612003565b10156134435780613409565b8185111561345f57506134569084611fc3565b91600193929190565b9150506001929160009190565b604051906080820182811067ffffffffffffffff821117611b545760405260006060838281528260208201528260408201520152565b6020818303126100155780519067ffffffffffffffff82116100155701906101e08282031261001557604051916101e0830183811067ffffffffffffffff821117611b5457604052805167ffffffffffffffff8111610015576101c09261350a918301611e6c565b83526020810151602084015261352260408201611e35565b604084015261353360608201611e35565b606084015261354460808201611e35565b608084015261355560a08201611e35565b60a084015261356660c08201611e35565b60c084015261357760e08201611e35565b60e08401526101008101516101008401526101208101516101208401526101408101516101408401526101608101516101608401526101808101516101808401526101a08101516101a084015201516101c082015290565b60006001600160a01b0360035416916024604051809481937f0c3fc6b900000000000000000000000000000000000000000000000000000000835260048301525afa908115610a46576000916137bf575b509061016082015142118015613788575b61378157606082016001815161364681611fa3565b61364f81611fa3565b1480613710575b613708576002905161366781611fa3565b61367081611fa3565b149182613688575b505061368357600090565b600190565b90915060208101916001835161369d81611fa3565b6136a681611fa3565b1492836136f9575b83156136bf575b5050503880613678565b600291929350516136cf81611fa3565b6136d881611fa3565b1491826136ea575b50503880806136b5565b60c001511015905038806136e0565b60c083015182101593506136ae565b505050600190565b50602083016001815161372281611fa3565b61372b81611fa3565b149081613772575b8115613740575b50613656565b600291505161374e81611fa3565b61375781611fa3565b1480613764575b3861373a565b5060c083015182101561375e565b60c08501518411159150613733565b5050600090565b506040820180516007811015611fad576001141590816137a9575b50613631565b9050516007811015611fad5760021415386137a3565b3d8083833e6137ce8183611b86565b810190602081830312612a325780519067ffffffffffffffff8211612a2a57019061018082820312612a325760405192610180840184811067ffffffffffffffff8211176138d85760405261382283611e35565b845260208301516003811015612a2e57602085015260408301516007811015612a2e57604085015260608301516003811015612a2e57606085015260808301519067ffffffffffffffff8211610acc57508291613883916101609401611e6c565b608084015260a081015160a084015260c081015160c084015260e081015160e0840152610100810151610100840152610120810151610120840152610140810151610140840152015161016082015238613620565b602482634e487b7160e01b81526041600452fd5b60009392849190825b84518410156139685761395f856109af866139596001956109af61395161393e6139368c8c61392f89613928818e612470565b5192612470565b5191612b31565b969098612470565b516139498d8c612470565b51908c612baa565b969092612003565b9a612003565b930192956138f5565b95949350505050565b6001600160a01b03168015613a0e576001600160a01b037f9016d09d72d40fdae2fd8ceac6b6234c7706214fd39c1cd1e609a0528c199300548273ffffffffffffffffffffffffffffffffffffffff198216177f9016d09d72d40fdae2fd8ceac6b6234c7706214fd39c1cd1e609a0528c19930055167f8be0079c531659141344cd1fd0a4f28419497f9722a3daafe3b4186f6b6457e0600080a3565b7f1e4fbdf700000000000000000000000000000000000000000000000000000000600052600060045260246000fd5b60249160006001600160a01b0360035416604051948580926320bf56eb60e21b82528660048301525afa928315610a4657600093613c27575b5060408301928351936006851015611fad57600160009514159081613bfd575b508015613bf5575b613bd5576020810160018151613ab381611fa3565b613abc81611fa3565b1480613be8575b15613b8e5750613af28160c0613ae960209560e0670de0b6b3a764000096015190611fc3565b91015190611fd0565b045b60446001600160a01b03600154169360405194859384927fd3c76d66000000000000000000000000000000000000000000000000000000008452600484015260248301525afa918215613b82578092613b4c57505090565b9091506020823d602011613b7a575b81613b6860209383611b86565b81010312610acc5750611c6a90612414565b3d9150613b5b565b604051903d90823e3d90fd5b60029051613b9b81611fa3565b613ba481611fa3565b1480613bdb575b15613bd557613bcf8160c0613ae960209560e0670de0b6b3a7640000960151611fc3565b04613af4565b50505090565b5060e08101518210613bab565b5060e08201518311613ac3565b508115613a9e565b9050516006811015613c13576002141538613a96565b602485634e487b7160e01b81526021600452fd5b613c3b91933d8091833e6124058183611b86565b9138613a76565b9060e460809260006001600160a01b036001541660405196879586947ff26a3e1d000000000000000000000000000000000000000000000000000000008652600486015260016024860152604485015282606485015282608485015260a4840152600160c48401525af18015610a46576000928380938193613cc6575b5093929190565b9450915091506080833d608011613d18575b81613ce560809383611b86565b81010312610acc5750815190602083015190613d0f6060613d0860408701612414565b9501612414565b91939238613cbf565b3d9150613cd8565b600460206001600160a01b0360035416604051928380927fc3710f250000000000000000000000000000000000000000000000000000000082525afa908115610a4657600091613d6e575090565b90506020813d602011613d95575b81613d8960209383611b86565b81010312610015575190565b3d9150613d7c565b600060206001600160a01b03600354166004604051809481937fb99ac9270000000000000000000000000000000000000000000000000000000083525af1908115610a4657600091613d6e575090565b6001600160a01b037f9016d09d72d40fdae2fd8ceac6b6234c7706214fd39c1cd1e609a0528c19930054163303613e2057565b7f118cdaa7000000000000000000000000000000000000000000000000000000006000523360045260246000fd5b90613e91926001600160a01b0360809381600354169260ff604051978896879586956306461a8b60e11b875216600486015260606024860152606485019061332f565b9116604483015203915afa8015610a46576000928380938193613eb5575093929190565b9450915091506080833d608011613efa575b81613ed460809383611b86565b81010312610acc5750815160208301516040840151606090940151909392909138613cbf565b3d9150613ec7565b90613f5c926001600160a01b03600093816003541692604051968795869485947f0f12fb5900000000000000000000000000000000000000000000000000000000865216600485015260606024850152606484019061332f565b90613f6681611fa3565b604483015203915afa908115610a4657600091613f81575090565b3d8083833e613f908183611b86565b810190602081830312612a325780519067ffffffffffffffff8211612a2a570181601f82011215612a3257805190613fc782611ba9565b93613fd56040519586611b86565b82855260208086019360051b830101938411610acc5750602001905b828210613ffe5750505090565b8151815260209182019101613ff1565b6000608060405161401e81611b6a565b828152826020820152826040820152826060820152015260a06001600160a01b03602481600254169360405194859384927ffb47e0160000000000000000000000000000000000000000000000000000000084521660048301525afa908115610a465760009161408c575090565b905060a0813d60a0116140ea575b816140a760a09383611b86565b81010312610015576080604051916140be83611b6a565b805183526020810151602084015260408101516040840152606081015160608401520151608082015290565b3d915061409a565b602061413f916001600160a01b036002541660405180809581947f05ca57cf000000000000000000000000000000000000000000000000000000008352866004840152602483019061332f565b03915afa908115610a4657600091614155575090565b6020813d60201161418c575b8161416e60209383611b86565b81010312612a2e5751906001600160a01b0382168203610acc575090565b3d9150614161565b600460206001600160a01b0360025416604051928380927f89f00b6d0000000000000000000000000000000000000000000000000000000082525afa908115610a4657600091613d6e575090565b90600254916001600160a01b0360009316803b15612a2a5760c48492836001600160a01b0393608060405197889687957fc9f35c3900000000000000000000000000000000000000000000000000000000875216600486015280516024860152602081015160448601526040810151606486015260608101516084860152015160a48401525af180156127fd57614277575050565b8161428191611b86565b50565b93929091936001600160a01b0360035416604051906320bf56eb60e21b8252826004830152600082602481845afa918215610a46576000926144b8575b5060408201948551956006871015611fad5760016000971415908161448e575b5061447f5785906001600160a01b036142fd60a08601516140f2565b16876001600160a01b03600254166024604051809481937fa666200f00000000000000000000000000000000000000000000000000000000835260048301525afa9081156144745792889260001961010060e4979460609a9997879161445a575b50015160c087015190928181106144525750995b0361444a575b60206001600160a01b038651169501519b6143928d611fa3565b6040519c8d9889977f1b31c071000000000000000000000000000000000000000000000000000000008952600489015260248801528a60448801526143d681611fa3565b6064870152608486015260a485015260c48401525af180156127fd578294838092614403575b5050919392565b9293509450506060843d606011614442575b8161442260609383611b86565b81010312610acc57508251906040602085015194015191939138806143fc565b3d9150614415565b889150614378565b905099614372565b61446e91503d8089833e610cdf8183611b86565b3861435e565b6040513d8a823e3d90fd5b50505050508092509180918190565b90505160068110156144a45760021415386142e1565b602487634e487b7160e01b81526021600452fd5b6144cc91923d8091833e6124058183611b86565b90386142c1565b60ff7ff0c57e16840df040f15088dc2f81fe391c3923bec73e23a9662efc9c229c6a005460401c161561450257565b7fd7e6bcf80000000000000000000000000000000000000000000000000000000060005260046000fdfea26469706673582212201dea5f58fbc0abf243aefc34f6f5dba1fc354a4736a3ccc579b36036c896201c64736f6c634300081c0033",
  "linkReferences": {},
  "deployedLinkReferences": {}
}