{
  "_format": "hh-sol-artifact-1",
  "contractName": "TradeStation",
  "sourceName": "contracts/TradeStation.sol",
  "abi": [
    {
      "inputs": [],
      "name": "InvalidInitialization",
      "type": "error"
    },
    {
      "inputs": [],
      "name": "NotInitializing",
      "type": "error"
    },
    {
      "inputs": [
        {
          "internalType": "address",
          "name": "owner",
          "type": "address"
        }
      ],
      "name": "OwnableInvalidOwner",
      "type": "error"
    },
    {
      "inputs": [
        {
          "internalType": "address",
          "name": "account",
          "type": "address"
        }
      ],
      "name": "OwnableUnauthorizedAccount",
      "type": "error"
    },
    {
      "anonymous": false,
      "inputs": [
        {
          "indexed": false,
          "internalType": "address",
          "name": "taker",
          "type": "address"
        },
        {
          "indexed": false,
          "internalType": "uint256",
          "name": "amount",
          "type": "uint256"
        },
        {
          "indexed": false,
          "internalType": "uint256",
          "name": "availableAmount",
          "type": "uint256"
        },
        {
          "indexed": false,
          "internalType": "uint256",
          "name": "marginAmount",
          "type": "uint256"
        },
        {
          "indexed": false,
          "internalType": "uint256",
          "name": "locked",
          "type": "uint256"
        },
        {
          "indexed": false,
          "internalType": "uint256",
          "name": "stage",
          "type": "uint256"
        },
        {
          "indexed": false,
          "internalType": "uint256",
          "name": "dif",
          "type": "uint256"
        }
      ],
      "name": "BalanceOfTaker",
      "type": "event"
    },
    {
      "anonymous": false,
      "inputs": [
        {
          "indexed": false,
          "internalType": "string",
          "name": "name",
          "type": "string"
        },
        {
          "indexed": true,
          "internalType": "address",
          "name": "taker",
          "type": "address"
        },
        {
          "indexed": true,
          "internalType": "address",
          "name": "token",
          "type": "address"
        },
        {
          "indexed": false,
          "internalType": "uint256",
          "name": "orderID",
          "type": "uint256"
        },
        {
          "indexed": false,
          "internalType": "enum ICommon.Direct",
          "name": "orderType",
          "type": "uint8"
        },
        {
          "indexed": false,
          "internalType": "enum IPerpetual.OrderState",
          "name": "state",
          "type": "uint8"
        },
        {
          "indexed": false,
          "internalType": "enum ICommon.Offset",
          "name": "offset",
          "type": "uint8"
        },
        {
          "indexed": false,
          "internalType": "uint256",
          "name": "amount",
          "type": "uint256"
        },
        {
          "indexed": false,
          "internalType": "uint256",
          "name": "targetPrice",
          "type": "uint256"
        },
        {
          "indexed": false,
          "internalType": "uint256",
          "name": "margin",
          "type": "uint256"
        },
        {
          "indexed": false,
          "internalType": "uint256",
          "name": "rewardGas",
          "type": "uint256"
        },
        {
          "indexed": false,
          "internalType": "uint256",
          "name": "tradingFee",
          "type": "uint256"
        },
        {
          "indexed": false,
          "internalType": "uint256",
          "name": "startTime",
          "type": "uint256"
        },
        {
          "indexed": false,
          "internalType": "uint256",
          "name": "goodTill",
          "type": "uint256"
        }
      ],
      "name": "CreateLimitedOrder",
      "type": "event"
    },
    {
      "anonymous": false,
      "inputs": [
        {
          "indexed": false,
          "internalType": "uint256",
          "name": "limitOrderID",
          "type": "uint256"
        },
        {
          "indexed": false,
          "internalType": "uint256",
          "name": "openLimitPrice",
          "type": "uint256"
        },
        {
          "indexed": false,
          "internalType": "uint256",
          "name": "gainTriggerPrice",
          "type": "uint256"
        },
        {
          "indexed": false,
          "internalType": "uint256",
          "name": "gainLimitPrice",
          "type": "uint256"
        },
        {
          "indexed": false,
          "internalType": "uint256",
          "name": "lossTriggerPrice",
          "type": "uint256"
        },
        {
          "indexed": false,
          "internalType": "uint256",
          "name": "lossLimitPrice",
          "type": "uint256"
        }
      ],
      "name": "CreateTriggerCondition",
      "type": "event"
    },
    {
      "anonymous": false,
      "inputs": [
        {
          "indexed": false,
          "internalType": "uint256",
          "name": "code",
          "type": "uint256"
        },
        {
          "indexed": false,
          "internalType": "uint256",
          "name": "orderID",
          "type": "uint256"
        },
        {
          "indexed": false,
          "internalType": "string",
          "name": "message",
          "type": "string"
        }
      ],
      "name": "ErrorInfo",
      "type": "event"
    },
    {
      "anonymous": false,
      "inputs": [
        {
          "indexed": false,
          "internalType": "uint256",
          "name": "code",
          "type": "uint256"
        },
        {
          "indexed": false,
          "internalType": "uint256",
          "name": "orderID",
          "type": "uint256"
        },
        {
          "indexed": false,
          "internalType": "bytes",
          "name": "message",
          "type": "bytes"
        }
      ],
      "name": "ExceptErrorInfo",
      "type": "event"
    },
    {
      "anonymous": false,
      "inputs": [
        {
          "indexed": false,
          "internalType": "uint64",
          "name": "version",
          "type": "uint64"
        }
      ],
      "name": "Initialized",
      "type": "event"
    },
    {
      "anonymous": false,
      "inputs": [
        {
          "indexed": true,
          "internalType": "address",
          "name": "taker",
          "type": "address"
        },
        {
          "indexed": false,
          "internalType": "string",
          "name": "name",
          "type": "string"
        },
        {
          "indexed": false,
          "internalType": "address",
          "name": "token",
          "type": "address"
        },
        {
          "indexed": false,
          "internalType": "uint256",
          "name": "orderID",
          "type": "uint256"
        },
        {
          "indexed": false,
          "internalType": "enum ICommon.Direct",
          "name": "direction",
          "type": "uint8"
        },
        {
          "indexed": false,
          "internalType": "enum IPerpetual.OrderType",
          "name": "orderType",
          "type": "uint8"
        },
        {
          "indexed": false,
          "internalType": "uint256",
          "name": "amount",
          "type": "uint256"
        },
        {
          "indexed": false,
          "internalType": "uint256",
          "name": "costPrice",
          "type": "uint256"
        },
        {
          "indexed": false,
          "internalType": "uint256",
          "name": "price",
          "type": "uint256"
        },
        {
          "indexed": false,
          "internalType": "uint256",
          "name": "tradingFee",
          "type": "uint256"
        },
        {
          "indexed": false,
          "internalType": "uint256",
          "name": "limitOrderId",
          "type": "uint256"
        },
        {
          "indexed": false,
          "internalType": "uint256",
          "name": "timestamp",
          "type": "uint256"
        }
      ],
      "name": "OrderHistory",
      "type": "event"
    },
    {
      "anonymous": false,
      "inputs": [
        {
          "indexed": true,
          "internalType": "address",
          "name": "previousOwner",
          "type": "address"
        },
        {
          "indexed": true,
          "internalType": "address",
          "name": "newOwner",
          "type": "address"
        }
      ],
      "name": "OwnershipTransferred",
      "type": "event"
    },
    {
      "anonymous": false,
      "inputs": [
        {
          "indexed": false,
          "internalType": "address",
          "name": "token",
          "type": "address"
        },
        {
          "indexed": false,
          "internalType": "uint256",
          "name": "orderID",
          "type": "uint256"
        },
        {
          "indexed": false,
          "internalType": "uint256",
          "name": "dealID",
          "type": "uint256"
        },
        {
          "indexed": false,
          "internalType": "enum IPerpetual.TradeType",
          "name": "tradeType",
          "type": "uint8"
        },
        {
          "indexed": false,
          "internalType": "uint256",
          "name": "amount",
          "type": "uint256"
        },
        {
          "indexed": false,
          "internalType": "uint256",
          "name": "price",
          "type": "uint256"
        },
        {
          "indexed": false,
          "internalType": "uint256",
          "name": "tradingFee",
          "type": "uint256"
        },
        {
          "indexed": false,
          "internalType": "uint256",
          "name": "profit",
          "type": "uint256"
        },
        {
          "indexed": false,
          "internalType": "uint256",
          "name": "loss",
          "type": "uint256"
        },
        {
          "indexed": false,
          "internalType": "uint256",
          "name": "timestamp",
          "type": "uint256"
        }
      ],
      "name": "TradeHistory",
      "type": "event"
    },
    {
      "anonymous": false,
      "inputs": [
        {
          "indexed": true,
          "internalType": "address",
          "name": "taker",
          "type": "address"
        },
        {
          "indexed": true,
          "internalType": "address",
          "name": "token",
          "type": "address"
        },
        {
          "indexed": false,
          "internalType": "enum ICommon.TransactionType",
          "name": "transactionType",
          "type": "uint8"
        },
        {
          "indexed": false,
          "internalType": "uint256",
          "name": "amount",
          "type": "uint256"
        },
        {
          "indexed": false,
          "internalType": "uint256",
          "name": "timestamp",
          "type": "uint256"
        }
      ],
      "name": "TransactionHistory",
      "type": "event"
    },
    {
      "anonymous": false,
      "inputs": [
        {
          "indexed": false,
          "internalType": "address",
          "name": "sender",
          "type": "address"
        },
        {
          "indexed": false,
          "internalType": "address",
          "name": "received",
          "type": "address"
        },
        {
          "indexed": false,
          "internalType": "enum ICommon.TransactionType",
          "name": "transactionType",
          "type": "uint8"
        },
        {
          "indexed": false,
          "internalType": "uint256",
          "name": "amount",
          "type": "uint256"
        },
        {
          "indexed": false,
          "internalType": "uint256",
          "name": "timestamp",
          "type": "uint256"
        }
      ],
      "name": "TransferFee",
      "type": "event"
    },
    {
      "anonymous": false,
      "inputs": [
        {
          "indexed": false,
          "internalType": "address",
          "name": "sender",
          "type": "address"
        },
        {
          "indexed": false,
          "internalType": "uint256",
          "name": "beforeLeverage",
          "type": "uint256"
        },
        {
          "indexed": false,
          "internalType": "uint256",
          "name": "afterLeverage",
          "type": "uint256"
        }
      ],
      "name": "setLeverage",
      "type": "event"
    },
    {
      "stateMutability": "nonpayable",
      "type": "fallback"
    },
    {
      "inputs": [
        {
          "internalType": "address",
          "name": "_taker",
          "type": "address"
        },
        {
          "internalType": "uint256",
          "name": "_deposit",
          "type": "uint256"
        },
        {
          "internalType": "string[]",
          "name": "_pairs",
          "type": "string[]"
        },
        {
          "internalType": "uint256[]",
          "name": "_prices",
          "type": "uint256[]"
        }
      ],
      "name": "clearingTaker",
      "outputs": [
        {
          "internalType": "uint256",
          "name": "remainingDeposit",
          "type": "uint256"
        }
      ],
      "stateMutability": "nonpayable",
      "type": "function"
    },
    {
      "inputs": [
        {
          "internalType": "address",
          "name": "_taker",
          "type": "address"
        },
        {
          "internalType": "string",
          "name": "_name",
          "type": "string"
        },
        {
          "internalType": "uint256",
          "name": "_amount",
          "type": "uint256"
        },
        {
          "internalType": "uint256",
          "name": "_price",
          "type": "uint256"
        },
        {
          "internalType": "enum ICommon.Direct",
          "name": "_type",
          "type": "uint8"
        },
        {
          "internalType": "uint256",
          "name": "_limitID",
          "type": "uint256"
        }
      ],
      "name": "closeOrder",
      "outputs": [],
      "stateMutability": "nonpayable",
      "type": "function"
    },
    {
      "inputs": [
        {
          "internalType": "string",
          "name": "_name",
          "type": "string"
        },
        {
          "internalType": "uint256",
          "name": "_amount",
          "type": "uint256"
        },
        {
          "internalType": "uint256",
          "name": "_orderType",
          "type": "uint256"
        },
        {
          "internalType": "uint256",
          "name": "_price",
          "type": "uint256"
        },
        {
          "internalType": "enum ICommon.Direct",
          "name": "_type",
          "type": "uint8"
        },
        {
          "internalType": "uint256",
          "name": "_goodTill",
          "type": "uint256"
        },
        {
          "internalType": "address",
          "name": "_taker",
          "type": "address"
        },
        {
          "internalType": "uint256",
          "name": "_rewardGas",
          "type": "uint256"
        }
      ],
      "name": "closePosition",
      "outputs": [],
      "stateMutability": "payable",
      "type": "function"
    },
    {
      "inputs": [
        {
          "internalType": "address",
          "name": "initialOwner",
          "type": "address"
        },
        {
          "internalType": "address",
          "name": "_priPool",
          "type": "address"
        },
        {
          "internalType": "address",
          "name": "_perpetual",
          "type": "address"
        },
        {
          "internalType": "address",
          "name": "_settle",
          "type": "address"
        }
      ],
      "name": "initialize",
      "outputs": [],
      "stateMutability": "nonpayable",
      "type": "function"
    },
    {
      "inputs": [
        {
          "internalType": "address",
          "name": "_taker",
          "type": "address"
        },
        {
          "internalType": "string",
          "name": "_name",
          "type": "string"
        },
        {
          "internalType": "uint256",
          "name": "_amount",
          "type": "uint256"
        },
        {
          "internalType": "uint256",
          "name": "_price",
          "type": "uint256"
        },
        {
          "internalType": "enum ICommon.Direct",
          "name": "_type",
          "type": "uint8"
        },
        {
          "internalType": "uint256",
          "name": "_goodTill",
          "type": "uint256"
        },
        {
          "internalType": "uint256",
          "name": "_rewardsGas",
          "type": "uint256"
        }
      ],
      "name": "makeOpenLimitOrder",
      "outputs": [],
      "stateMutability": "nonpayable",
      "type": "function"
    },
    {
      "inputs": [
        {
          "internalType": "address",
          "name": "_taker",
          "type": "address"
        },
        {
          "internalType": "string",
          "name": "_name",
          "type": "string"
        },
        {
          "internalType": "uint256",
          "name": "_amount",
          "type": "uint256"
        },
        {
          "internalType": "uint256",
          "name": "_price",
          "type": "uint256"
        },
        {
          "internalType": "enum ICommon.Direct",
          "name": "_type",
          "type": "uint8"
        },
        {
          "internalType": "uint256",
          "name": "limitOrderID",
          "type": "uint256"
        }
      ],
      "name": "openOrder",
      "outputs": [],
      "stateMutability": "nonpayable",
      "type": "function"
    },
    {
      "inputs": [],
      "name": "owner",
      "outputs": [
        {
          "internalType": "address",
          "name": "",
          "type": "address"
        }
      ],
      "stateMutability": "view",
      "type": "function"
    },
    {
      "inputs": [],
      "name": "renounceOwnership",
      "outputs": [],
      "stateMutability": "nonpayable",
      "type": "function"
    },
    {
      "inputs": [
        {
          "internalType": "address",
          "name": "_orderBook",
          "type": "address"
        },
        {
          "internalType": "address",
          "name": "_agent",
          "type": "address"
        }
      ],
      "name": "setKeepers",
      "outputs": [],
      "stateMutability": "nonpayable",
      "type": "function"
    },
    {
      "inputs": [
        {
          "internalType": "string",
          "name": "_name",
          "type": "string"
        },
        {
          "internalType": "uint256",
          "name": "_amount",
          "type": "uint256"
        },
        {
          "internalType": "enum ICommon.Direct",
          "name": "_type",
          "type": "uint8"
        },
        {
          "internalType": "enum ICommon.Offset",
          "name": "_offset",
          "type": "uint8"
        },
        {
          "internalType": "uint256",
          "name": "_param1",
          "type": "uint256"
        },
        {
          "internalType": "uint256",
          "name": "_param2",
          "type": "uint256"
        },
        {
          "internalType": "uint256",
          "name": "_param3",
          "type": "uint256"
        },
        {
          "internalType": "uint256",
          "name": "_param4",
          "type": "uint256"
        },
        {
          "internalType": "uint256",
          "name": "_goodTill",
          "type": "uint256"
        },
        {
          "internalType": "address",
          "name": "_taker",
          "type": "address"
        }
      ],
      "name": "stopTakeOrder",
      "outputs": [],
      "stateMutability": "payable",
      "type": "function"
    },
    {
      "inputs": [
        {
          "internalType": "string",
          "name": "_name",
          "type": "string"
        },
        {
          "internalType": "uint256",
          "name": "_amount",
          "type": "uint256"
        },
        {
          "internalType": "uint256",
          "name": "_price",
          "type": "uint256"
        },
        {
          "internalType": "uint256",
          "name": "_orderType",
          "type": "uint256"
        },
        {
          "internalType": "enum ICommon.Direct",
          "name": "_type",
          "type": "uint8"
        },
        {
          "internalType": "uint256",
          "name": "_goodTill",
          "type": "uint256"
        },
        {
          "internalType": "address",
          "name": "_taker",
          "type": "address"
        },
        {
          "internalType": "uint256",
          "name": "_rewardGas",
          "type": "uint256"
        }
      ],
      "name": "tradeFutures",
      "outputs": [],
      "stateMutability": "payable",
      "type": "function"
    },
    {
      "inputs": [
        {
          "internalType": "address",
          "name": "newOwner",
          "type": "address"
        }
      ],
      "name": "transferOwnership",
      "outputs": [],
      "stateMutability": "nonpayable",
      "type": "function"
    },
    {
      "inputs": [
        {
          "internalType": "uint256[]",
          "name": "_orderID",
          "type": "uint256[]"
        },
        {
          "internalType": "string[]",
          "name": "_symbols",
          "type": "string[]"
        },
        {
          "internalType": "uint256[]",
          "name": "_prices",
          "type": "uint256[]"
        }
      ],
      "name": "triggerOrders",
      "outputs": [],
      "stateMutability": "nonpayable",
      "type": "function"
    }
  ],
  "bytecode": "0x608080604052346015576141e7908161001b8239f35b600080fdfe6080604052600436101561001a575b3461001557005b600080fd5b6000803560e01c8063274889e1146116455780632b000206146115a2578063715018a6146114fc5780637295751b1461131f5780638da5cb5b146112d9578063ad4a8e3b146110f3578063bcef60d714610ec1578063c3eea55914610de4578063cd3fd61714610b8a578063dcac2e881461060a578063eff6d7c3146103d3578063f2fde38b146103b35763f8c8765e146100b5575061000e565b346103b05760806003193601126103b0576100ce611bde565b6100d6611bf4565b6044356001600160a01b0381168091036103ae57606435916001600160a01b0383168093036103aa577ff0c57e16840df040f15088dc2f81fe391c3923bec73e23a9662efc9c229c6a00549360ff8560401c16159467ffffffffffffffff8116801590816103a2575b6001149081610398575b15908161038f575b50610367576001600160a01b039291818760017fffffffffffffffffffffffffffffffffffffffffffffffff00000000000000006101d99516177ff0c57e16840df040f15088dc2f81fe391c3923bec73e23a9662efc9c229c6a0055610312575b506101bb6140e6565b6101c36140e6565b6101cc33612032565b6101d46123e4565b612032565b168073ffffffffffffffffffffffffffffffffffffffff1960015416176001558452600560205260408420600160ff198254161790558073ffffffffffffffffffffffffffffffffffffffff1960025416176002558352600560205260408320600160ff19825416179055308352600560205260408320600160ff1982541617905573ffffffffffffffffffffffffffffffffffffffff1983541617825561027e5780f35b7fffffffffffffffffffffffffffffffffffffffffffffff00ffffffffffffffff7ff0c57e16840df040f15088dc2f81fe391c3923bec73e23a9662efc9c229c6a0054167ff0c57e16840df040f15088dc2f81fe391c3923bec73e23a9662efc9c229c6a00557fc7f505b2f371ae2175ee4913f4499e1f2633a7b5936321eed1cdaeb6115181d2602060405160018152a180f35b7fffffffffffffffffffffffffffffffffffffffffffffff0000000000000000001668010000000000000001177ff0c57e16840df040f15088dc2f81fe391c3923bec73e23a9662efc9c229c6a0055386101b2565b6004877ff92ee8a9000000000000000000000000000000000000000000000000000000008152fd5b90501538610151565b303b159150610149565b87915061013f565b8480fd5b835b80fd5b50346103b05760206003193601126103b0576103d06101cc611bde565b80f35b506101406003193601126103b0578060043567ffffffffffffffff811161060757610402903690600401611b97565b60443590600382101561060557606435916003831015610603576084359060c43592610124356001600160a01b0381168091036105ff57338752600560205261045160ff604089205416611dbe565b61045a86611e09565b600186146105ac575b61046c86611e09565b60028614610547575b6001600160a01b036003541692833b156105435787956104bb956040519889978896879663bfffc8bb60e01b885260048801526101806024880152610184870190611e36565b936104c581611e09565b60448601526104d381611e09565b6064850152602435608485015260a484015260a43560c484015260e483015260e43561010483015261010435610124830152600161014483015285610164830152039134905af18015610538576105275750f35b8161053191611b58565b6103b05780f35b6040513d84823e3d90fd5b8780fd5b955082158015906105a3575b1561055f578695610475565b606460405162461bcd60e51b815260206004820152601b60248201527f636c6f73652074726967676572207072696365206973207a65726f00000000006044820152fd5b50831515610553565b955082156105bb578695610463565b606460405162461bcd60e51b815260206004820152601a60248201527f6f70656e2074726967676572207072696365206973207a65726f0000000000006044820152fd5b8680fd5b505b505b50fd5b5061061436611c0a565b9190969395949295338952600560205261063460ff60408b205416611dbe565b61063e87866120fe565b6001600160a01b0361064f86613eba565b16896001600160a01b03600254166024604051809481937fa666200f00000000000000000000000000000000000000000000000000000000835260048301525afa8015610b7f578a90610a21575b6101409150015186106109dd576106b388612188565b6109035750506106dd9033875260056020526106d560ff604089205416611dbe565b838387612445565b916106e785612613565b92602084019384519460608301958651116108bf5761071e8251966107126040860198895190611e5b565b84528251905190611e5b565b9052610743604082019182519261073b6020860194855190611eb5565b9052886126f7565b6001600160a01b036003541690825160a08751925194015194833b156108bb576107af604051977f530e011e0000000000000000000000000000000000000000000000000000000089526001600160a01b038c1660048a015261014060248a0152610144890190611e36565b986107b981611e09565b60448801528a988996889687958995879560016064880152608487015260a486015260c485015260e484015261010483015260001961012483015203925af190811561089a578391610885575b50506001600160a01b0360025416905190803b156108815760405163d1937e3d60e01b81526001600160a01b0385166004820152602481019290925282908290818381604481015b03925af1801561053857610868575b50506103d0906121f3565b8161087291611b58565b61087d57813861085d565b5080fd5b8280fd5b8161088f91611b58565b61087d578138610806565b6040513d85823e3d90fd5b634e487b7160e01b600052602160045260246000fd5b8a80fd5b606460405162461bcd60e51b815260206004820152601160248201527f6f70656e20696e73756666696369656e740000000000000000000000000000006044820152fd5b9195949395929092338852600560205261092360ff60408a205416611dbe565b61092f81888489612445565b9061093987612613565b9760208901968751976060850198895111610999576103d09a61099499826109676109839451835190611e5b565b905261097b60608301918251905190611eb5565b90528a6126f7565b602060408501519401519489612260565b6121f3565b606460405162461bcd60e51b815260206004820152601760248201527f6f70656e206c696d697420696e73756666696369656e740000000000000000006044820152fd5b606460405162461bcd60e51b815260206004820152601560248201527f6f70656e20616d6f756e7420746f6f20736d616c6c00000000000000000000006044820152fd5b503d808b833e610a318183611b58565b8101906020818303126108bb5780519067ffffffffffffffff8211610b7b5701906101e0828203126108bb57604051906101e0820182811067ffffffffffffffff821117610b675760405282519267ffffffffffffffff8411610b6357610aa06101c092610140958301611ecf565b835260208101516020840152610ab86040820161201e565b6040840152610ac96060820161201e565b6060840152610ada6080820161201e565b6080840152610aeb60a0820161201e565b60a0840152610afc60c0820161201e565b60c0840152610b0d60e0820161201e565b60e084015261010081015161010084015261012081015161012084015283810151848401526101608101516101608401526101808101516101808401526101a08101516101a084015201516101c082015261069d565b8c80fd5b60248d634e487b7160e01b81526041600452fd5b8b80fd5b6040513d8c823e3d90fd5b50346103b057610c00816080610b9f36611d62565b93909792969194963383526005602052610bbf60ff604085205416611dbe565b6001600160a01b036004541694604051998a978896879563cd3fd61760e01b87526001600160a01b038d16600488015260c0602488015260c4870190611e36565b9360448601526064850152610c1481611e09565b608484015260a483015203925af191821561089a578392610d83575b50610c3a81612613565b906020820191610c4d8351855190611eb5565b90610c9b610c616040870193845190611eb5565b9287606088015196610c7960208a0198895190611eb5565b958690818110610d7b57610c8e929350611e5b565b90525b8251905190611eb5565b91808310610d37578695610cb38792610cd095611e5b565b835260408301805191519091818111610d25575050525b826126f7565b6001600160a01b03600254169151823b156106035760405163d1937e3d60e01b81526001600160a01b03909216600483015260248201529082908290818381604481015b03925af18015610538576105275750f35b610d30929350611e5b565b9052610cca565b606460405162461bcd60e51b815260206004820152601260248201527f73686f756c64206265206465746f6e61746500000000000000000000000000006044820152fd5b505052610c91565b9091506080813d608011610ddc575b81610d9f60809383611b58565b8101031261088157606060405191610db683611aee565b805183526020810151602084015260408101516040840152015160608201529038610c30565b3d9150610d92565b50346103b05760e06003193601126103b057610dfe611bde565b60243567ffffffffffffffff811161088157610e1e903690600401611b97565b60443591606435906084356003811015610ebd573386526005602052610e4a60ff604088205416611dbe565b610e5683868685612445565b92610e6083612613565b95602087018051976060870198895111610999576103d09882610e89610ea59451835190611e5b565b9052610e9d60608301918251905190611eb5565b9052856126f7565b60408501519260c43596602060a43597015195612260565b8580fd5b50346103b05760606003193601126103b05760043567ffffffffffffffff811161087d57610ef3903690600401611d05565b9060243567ffffffffffffffff811161087d57610f14903690600401611c86565b60443567ffffffffffffffff81116108815782610f3685923690600401611d05565b903381526005602052610f4f60ff604083205416611dbe565b80915b83518310156110ef57602490610f688486611e7e565b5192806001600160a01b0360035416604051948580927f0c3fc6b90000000000000000000000000000000000000000000000000000000082528860048301525afa9283156110e25781936110be575b506080830190610fd68251602086015190610fd182611e09565b6120fe565b610fe96001600160a01b03855116612188565b8096815b89518110156110ae57611000818b611e7e565b5160405161102f6020828161101e8183019687815193849201611e13565b81010301601f198101835282611b58565b51902084516040516110516020828161101e8183019687815193849201611e13565b5190201461106157600101610fed565b60019592985084611077929a9895979450611e7e565b51905b81156110a6576110956001600160a01b039261109c94612895565b51166121f3565b0191939290610f52565b50505061109c565b509795929491509560019361107a565b6110db9193503d8085833e6110d38183611b58565b810190611f14565b9187610fb7565b50604051903d90823e3d90fd5b5080f35b50346103b05761112a61110536611d62565b9493959091338852600560205261112260ff60408a205416611dbe565b838786612445565b9060019061113785612613565b96602088019788519760608601988951116108bf578a9961117083519a61116460408a019c8d5190611e5b565b85528251905190611e5b565b9052604082019182519261118a6020890194855190611eb5565b905260001982036112d0575b6111a090896126f7565b6001600160a01b03600354169386519160a08b519451980151863b15610b63578c9889958c956040519c8d9b8c9a8b997f530e011e000000000000000000000000000000000000000000000000000000008b526001600160a01b031660048b015260248a0161014090526101448a0161121891611e36565b9761122281611e09565b60448a01526064890161123491611ec2565b608488015260a487015260c486015260e485015261010484015261012483015203925af19081156112c55784916112b0575b50506001600160a01b03600254169151823b156106035760405163d1937e3d60e01b81526001600160a01b0390921660048301526024820152908290829081838160448101610d14565b816112ba91611b58565b610605578238611266565b6040513d86823e3d90fd5b60029550611196565b50346103b057806003193601126103b05760206001600160a01b037f9016d09d72d40fdae2fd8ceac6b6234c7706214fd39c1cd1e609a0528c1993005416604051908152f35b50346103b05760806003193601126103b057611339611bde565b9060443567ffffffffffffffff811161087d5761135a903690600401611c86565b9160643567ffffffffffffffff81116108815761137b903690600401611d05565b92338352600560205261139460ff604085205416611dbe565b602435916001600160a01b038491165b82518210156114f15784935b60ff851660028110156114e4576001600160a01b03600354169060016113d68688611e7e565b51910160ff81116114d05791611446898b936114018960ff60409816966113fc88611e09565b611e7e565b51948651978896879586947f9324b5490000000000000000000000000000000000000000000000000000000086528c600487015260a0602487015260a4860190611e36565b9261145081611e09565b60448501526064840152608483015203925af19081156114c5578691611480575b50600160ff91950116936113b0565b90506040813d82116114bd575b8161149a60409383611b58565b81010312610ebd576001816114b5602060ff94519201611ea8565b509150611471565b3d915061148d565b6040513d88823e3d90fd5b602489634e487b7160e01b81526011600452fd5b50935090600101906113a4565b602084604051908152f35b50346103b057806003193601126103b0576115156123e4565b806001600160a01b037f9016d09d72d40fdae2fd8ceac6b6234c7706214fd39c1cd1e609a0528c1993005473ffffffffffffffffffffffffffffffffffffffff1981167f9016d09d72d40fdae2fd8ceac6b6234c7706214fd39c1cd1e609a0528c19930055167f8be0079c531659141344cd1fd0a4f28419497f9722a3daafe3b4186f6b6457e08280a380f35b50346103b05760406003193601126103b0576001600160a01b036115c4611bde565b816115cd611bf4565b916115d66123e4565b16808452600560205260408420600160ff19825416179055808452600560205260408420600160ff1982541617905573ffffffffffffffffffffffffffffffffffffffff1960035416176003551673ffffffffffffffffffffffffffffffffffffffff19600454161760045580f35b5061164f36611c0a565b909695929491338952600560205261166d60ff60408b205416611dbe565b61167786886120fe565b604051610100810181811067ffffffffffffffff821117611ada5760405289815260208101908a82528a60408201526060808201528a60808201528a60a08201528a60c08201528a60e08201526001600160a01b03600354166116d989611e09565b60ff600019818b160111611ac65761174360808b8e936001600160a01b038f8e60ff60001981604051998a98899788977f0c8c3516000000000000000000000000000000000000000000000000000000008952166004880152606060248801526064870190611e36565b93160116604483015203915afa9283156105385782918394611a81575b5082611773958560408401525252611e5b565b8411611a3d57889261178489612188565b6119565750506117eb906080949533825260056020526117aa60ff604084205416611dbe565b6001600160a01b0360045416936040519788968795869463cd3fd61760e01b86526001600160a01b038d16600487015260c0602487015260c4860190611e36565b92604485015260648401526117ff81611e09565b608483015260001960a483015203925af190811561089a5783916118f7575b5061182882612613565b602081019061183a8251845190611eb5565b9061186661184e6040860193845190611eb5565b9287606087015195610c796020890197885190611eb5565b91808310610d3757869461187e869261189b95611e5b565b8352604083018051915190918181116118e5575050525b846126f7565b6001600160a01b0360025416905190803b156108815760405163d1937e3d60e01b81526001600160a01b03851660048201526024810192909252829082908183816044810161084e565b6118f0929350611e5b565b9052611895565b90506080813d60801161194e575b8161191260809383611b58565b810103126108815760606040519161192983611aee565b805183526020810151602084015260408101516040840152015160608201523861181e565b3d9150611905565b91509193926001600160a01b036003541694853b15611a39576119a26040519763bfffc8bb60e01b89526001600160a01b038a1660048a015261018060248a0152610184890190611e36565b946119ac81611e09565b604488015293889593879593869493859460026064870152608486015260a48501528760c48501528760e48501528761010485015261012484015286610144840152610164830152039134905af1801561089a57611a0f575b506103d0906121f3565b91611a1e816103d09394611b58565b9190611a05565b602489634e487b7160e01b81526021600452fd5b8880fd5b606460405162461bcd60e51b815260206004820152601660248201527f636c6f736520616d6f756e7420746f6f206c61726765000000000000000000006044820152fd5b9493509150506080833d608011611abe575b81611aa060809383611b58565b81010312610b7b578251602084015160609094015192939182611760565b3d9150611a93565b60248c634e487b7160e01b81526011600452fd5b60248b634e487b7160e01b81526041600452fd5b6080810190811067ffffffffffffffff821117611b0a57604052565b634e487b7160e01b600052604160045260246000fd5b60e0810190811067ffffffffffffffff821117611b0a57604052565b60a0810190811067ffffffffffffffff821117611b0a57604052565b90601f601f19910116810190811067ffffffffffffffff821117611b0a57604052565b67ffffffffffffffff8111611b0a57601f01601f191660200190565b81601f8201121561001557803590611bae82611b7b565b92611bbc6040519485611b58565b8284526020838301011161001557816000926020809301838601378301015290565b600435906001600160a01b038216820361001557565b602435906001600160a01b038216820361001557565b610100600319820112610015576004359067ffffffffffffffff821161001557611c3691600401611b97565b906024359060443590606435906084356003811015610015579060a4359060c4356001600160a01b0381168103610015579060e43590565b67ffffffffffffffff8111611b0a5760051b60200190565b9080601f83011215610015578135611c9d81611c6e565b92611cab6040519485611b58565b81845260208085019260051b820101918383116100155760208201905b838210611cd757505050505090565b813567ffffffffffffffff811161001557602091611cfa87848094880101611b97565b815201910190611cc8565b9080601f83011215610015578135611d1c81611c6e565b92611d2a6040519485611b58565b81845260208085019260051b82010192831161001557602001905b828210611d525750505090565b8135815260209182019101611d45565b9060c0600319830112610015576004356001600160a01b038116810361001557916024359067ffffffffffffffff821161001557611da291600401611b97565b9060443590606435906084356003811015610015579060a43590565b15611dc557565b606460405162461bcd60e51b815260206004820152601c60248201527f63616c6c6572206973206e6f742073746174696f6e206b6565706572000000006044820152fd5b600311156108a557565b60005b838110611e265750506000910152565b8181015183820152602001611e16565b90601f19601f602093611e5481518092818752878088019101611e13565b0116010190565b91908203918211611e6857565b634e487b7160e01b600052601160045260246000fd5b8051821015611e925760209160051b010190565b634e487b7160e01b600052603260045260246000fd5b5190811515820361001557565b91908201809211611e6857565b9060088210156108a55752565b81601f82011215610015578051611ee581611b7b565b92611ef36040519485611b58565b8184526020828401011161001557611f119160208085019101611e13565b90565b6020818303126100155780519067ffffffffffffffff8211610015570190610180828203126100155760405191610180830183811067ffffffffffffffff821117611b0a5760405280516001600160a01b0381168103610015578352602081015160038110156100155760208401526040810151600781101561001557604084015260608101516003811015610015576060840152608081015167ffffffffffffffff81116100155761016092611fcc918301611ecf565b608084015260a081015160a084015260c081015160c084015260e081015160e0840152610100810151610100840152610120810151610120840152610140810151610140840152015161016082015290565b51906001600160a01b038216820361001557565b6001600160a01b031680156120cf576001600160a01b037f9016d09d72d40fdae2fd8ceac6b6234c7706214fd39c1cd1e609a0528c199300548273ffffffffffffffffffffffffffffffffffffffff198216177f9016d09d72d40fdae2fd8ceac6b6234c7706214fd39c1cd1e609a0528c19930055167f8be0079c531659141344cd1fd0a4f28419497f9722a3daafe3b4186f6b6457e0600080a3565b7f1e4fbdf700000000000000000000000000000000000000000000000000000000600052600060045260246000fd5b90600454916001600160a01b036000931690813b156103ae57839161215a916040518095819482937fd0e3d0dc000000000000000000000000000000000000000000000000000000008452604060048501526044840190611e36565b9061216481611e09565b602483015203915afa80156105385761217b575050565b8161218591611b58565b50565b6000906001600160a01b036002541690813b15610881576001600160a01b03604484928360405195869485937f9048f2e00000000000000000000000000000000000000000000000000000000085521660048401528160248401525af180156105385761217b575050565b600254906001600160a01b036000921690813b15610881576001600160a01b03604484928360405195869485937f9048f2e0000000000000000000000000000000000000000000000000000000008552166004840152600a60248401525af180156105385761217b575050565b9692979395919490956000986001600160a01b036003541697883b156108bb576122b3906001600160a01b036040519b63bfffc8bb60e01b8d521660048c015261018060248c01526101848b0190611e36565b966122bd81611e09565b60448a0152600160648a0152608489015260a488015260c487015260e4860187905261010486015261012485015261014484018590526101648401528391839182900390829034905af180156105385761217b575050565b60248a634e487b7160e01b81526021600452fd5b9591939692969490946000976001600160a01b036003541696873b156123e05761237c906001600160a01b036040519a63bfffc8bb60e01b8c521660048b015261018060248b01526101848a0190611e36565b9561238681611e09565b604489015260026064890152608488015260a487015260c4860187905260e4860152610104850186905261012485015260016101448501526101648401528391839182900390829034905af180156105385761217b575050565b8980fd5b6001600160a01b037f9016d09d72d40fdae2fd8ceac6b6234c7706214fd39c1cd1e609a0528c1993005416330361241757565b7f118cdaa7000000000000000000000000000000000000000000000000000000006000523360045260246000fd5b919091600060c060405161245881611b20565b8281528260208201528260408201528260608201528260808201528260a082015201526001600160a01b0360025416926001600160a01b03604051927fe1fb28b800000000000000000000000000000000000000000000000000000000845216600483015260406024830152602082806124d56044820185611e36565b0381875afa9182156125d0576000926125dc575b50926084916001600160a01b0361250160e096613eba565b169060405196879586947f07ec446600000000000000000000000000000000000000000000000000000000865260048601526024850152604484015260648301525afa9081156125d057600091612556575090565b905060e0813d60e0116125c8575b8161257160e09383611b58565b810103126100155760c06040519161258883611b20565b805183526020810151602084015260408101516040840152606081015160608401526080810151608084015260a081015160a0840152015160c082015290565b3d9150612564565b6040513d6000823e3d90fd5b9150926020823d60201161260b575b816125f860209383611b58565b81010312610015579051909260e06124e9565b3d91506125eb565b6000608060405161262381611b3c565b828152826020820152826040820152826060820152015260a06001600160a01b03602481600254169360405194859384927ffb47e0160000000000000000000000000000000000000000000000000000000084521660048301525afa9081156125d057600091612691575090565b905060a0813d60a0116126ef575b816126ac60a09383611b58565b81010312610015576080604051916126c383611b3c565b805183526020810151602084015260408101516040840152606081015160608401520151608082015290565b3d915061269f565b90600254916001600160a01b0360009316803b156103ae5760c48492836001600160a01b0393608060405197889687957fc9f35c3900000000000000000000000000000000000000000000000000000000875216600486015280516024860152602081015160448601526040810151606486015260608101516084860152015160a48401525af180156105385761217b575050565b60009060033d1161279957565b905060046000803e60005160e01c90565b600060443d10611f11576040516003193d016004823e8051913d602484011167ffffffffffffffff841117612819578282019283519167ffffffffffffffff8311612811576003193d850101602084870101116128115750611f1192910160200190611b58565b949350505050565b92915050565b3d1561284a573d9061283082611b7b565b9161283e6040519384611b58565b82523d6000602084013e565b606090565b9296959491612878906001600160a01b0360a0969316855260c0602086015260c0850190611e36565b966040840152606083015261288c81611e09565b60808201520152565b906003546001600160a01b036000911691604051927f0c3fc6b90000000000000000000000000000000000000000000000000000000084528460048501528284602481845afa93841561089a578394613e96575b509060c0602492604051938480927f0187703f0000000000000000000000000000000000000000000000000000000082528960048301525afa91821561089a578392613dfa575b50828361016086019182514211613dee575b85600186511480613dce575b80613dc2575b80613db6575b613dab575b8691604089018051600781101561231557600114159081613d95575b50613d88575b8215613d80575b508115613d78575b50613bb45750600183511480613b94575b61358e57604460206001600160a01b0360045416604051928380927fe6b34c690000000000000000000000000000000000000000000000000000000082528b60048301528760248301525afa908115613474578591613554575b50612a09575b505050505050565b6001835114612ec7575060c084019081526060840160018151612a2b81611e09565b612a3481611e09565b03612d105750612a8d6001600160a01b0385511660e086015190612a66610100880151612a6083612613565b93611eb5565b60208301612a75828251611eb5565b9052612a8660608401918251611e5b565b90526126f7565b6001600160a01b0384511691608085019081519260a087019384519151956020890196875190612abc82611e09565b303b156123e05791612b018c8b9593869560405198899687967fad4a8e3b0000000000000000000000000000000000000000000000000000000088526004880161284f565b038183305af19182612cfb575b5050612c2a5750505050600190612b2361278c565b6308c379a014612bad575b50612b42575b50505b388080808080612a01565b7f4c94adf18d8bfad12d476c7b93150b992bfa3fb9a83d713dd8a97359b7413f8291612b806001600160a01b03612b7761281f565b9351168261413f565b612ba3604051928392600584526020840152606060408401526060830190611e36565b0390a13880612b34565b612bb56127aa565b9081612bc2575b50612b2e565b7f356c1ed0403936d05af0abea05fbda16720ce964f55d7010cee1ba6cd8e1f60a919250612c209092612bff6001600160a01b038651168761413f565b60405191829160058352876020840152606060408401526060830190611e36565b0390a13880612bbc565b6101208694989795939601978851966002835114612c56575b505050505050612c54929350614080565b565b6040830191825115801590612cee575b612c71575b50612c43565b909192939495976001600160a01b03612c9160809260011c809d51611e5b565b9951169551915192612ca284611e09565b519351940151946312cc0300420196874211612cda575091612c54999a959391612ccd979593612329565b8392388080808080612c6b565b80634e487b7160e01b602492526011600452fd5b5060808401511515612c66565b81612d0591611b58565b610ebd578538612b0e565b600291925051612d1f81611e09565b612d2881611e09565b14612d37575b50505050612b37565b6001600160a01b0383511660808401519060a08501519251602086015190612d5e82611e09565b303b15610ebd5791612d8a888795938695604051988996879663cd3fd61760e01b88526004880161284f565b038183305af19182612eb2575b5050612ea357600190612da861278c565b6308c379a014612e26575b50612dc4575b505038808080612d2e565b7f4c94adf18d8bfad12d476c7b93150b992bfa3fb9a83d713dd8a97359b7413f8291612df96001600160a01b03612b7761281f565b612e1c604051928392600684526020840152606060408401526060830190611e36565b0390a13880612db9565b612e2e6127aa565b9081612e3b575b50612db3565b7f356c1ed0403936d05af0abea05fbda16720ce964f55d7010cee1ba6cd8e1f60a919250612e999092612e786001600160a01b038651168761413f565b60405191829160068352876020840152606060408401526060830190611e36565b0390a13880612e35565b506101200151612c5491614080565b81612ebc91611b58565b61087d578138612d97565b93916001600160a01b038397969492975116906080840190612efc868351946020880195865191612ef783611e09565b613f5c565b61012085019889519760016060880151612f1581611e09565b612f1e81611e09565b14612f36575b50505050505050612c54929350614080565b6020830180518015908115613546575b50801561351d575b80156134f4575b156131ae5750508060c08701526001600160a01b0386511690835160a0880192835192875190612f8482611e09565b303b156123e05791612fc98c8b9593869560405198899687967fad4a8e3b0000000000000000000000000000000000000000000000000000000088526004880161284f565b038183305af19182613199575b50506130f95750505050612c54949550600190612ff161278c565b6308c379a01461307c575b50613011575b505b8392388080808080612f24565b6130737f4c94adf18d8bfad12d476c7b93150b992bfa3fb9a83d713dd8a97359b7413f82916130526001600160a01b0361304961281f565b9251168561413f565b60405191829160038352856020840152606060408401526060830190611e36565b0390a138613002565b6130846127aa565b9081613091575b50612ffc565b7f356c1ed0403936d05af0abea05fbda16720ce964f55d7010cee1ba6cd8e1f60a9192506130ef90926130ce6001600160a01b038651168761413f565b60405191829160038352876020840152606060408401526060830190611e36565b0390a1388061308b565b9092965061311189959294955160011c809a51611e5b565b96604084019283511580159061318c575b613139575b50505050505050612c54929350613004565b6001600160a01b036080915116955191519261315484611e09565b519351940151946312cc0300420196874211612cda575091612c54999a95939161317f979593612329565b8392388080808080613127565b5060808501511515613122565b816131a391611b58565b610ebd578538612fd6565b9150939194995089926001600160a01b0387511690519160a088015190519351956131d887611e09565b51303b15610ebd5761322796869560405198899687967fc3eea559000000000000000000000000000000000000000000000000000000008852600488015260e0602488015260e4870190611e36565b936044860152606485015261323b81611e09565b608484015260a48301528960c4830152038183305af191826134df575b50506133655750612c54939460019061326f61278c565b6308c379a0146132e8575b50613286575b50613004565b6132df7f4c94adf18d8bfad12d476c7b93150b992bfa3fb9a83d713dd8a97359b7413f82916132be6001600160a01b0361304961281f565b60405191829160048352856020840152606060408401526060830190611e36565b0390a138613280565b6132f06127aa565b90816132fd575b5061327a565b7f356c1ed0403936d05af0abea05fbda16720ce964f55d7010cee1ba6cd8e1f60a91925061335b909261333a6001600160a01b038651168761413f565b60405191829160048352876020840152606060408401526060830190611e36565b0390a138806132f7565b925050839160408101908151158015906134d2575b61338c575b5050612c54929350613004565b6001600160a01b0360035416604051927f49138690000000000000000000000000000000000000000000000000000000008452602084600481855afa9384156134c7578894613493575b50600019840193841161347f579060808893925192015193813b156103ae578360e49260405196879586947fbe63309e000000000000000000000000000000000000000000000000000000008652600486015260026024860152836044860152606485015282608485015260a48401528160c48401525af180156134745761345f575b8061337f565b61346a858092611b58565b6103ae5783613459565b6040513d87823e3d90fd5b602488634e487b7160e01b81526011600452fd5b9093506020813d6020116134bf575b816134af60209383611b58565b81010312610015575192386133d6565b3d91506134a2565b6040513d8a823e3d90fd5b506080810151151561337a565b816134e991611b58565b6105ff578638613258565b506002865161350281611e09565b61350b81611e09565b148015612f5557508051831015612f55565b506001865161352b81611e09565b61353481611e09565b148015612f4e57508051831115612f4e565b905060c08901511438612f46565b90506020813d602011613586575b8161356f60209383611b58565b810103126103aa5761358090611ea8565b386129fb565b3d9150613562565b90939183859796949795819260408101908151151580613b29575b156139f05760600191825180159283156139e5575b505081156139b2575b811561397c575b5015613972575090506001945b6001600160a01b03845116926080850190613604878351966020890197885191612ef783611e09565b61012086018051981561378f5750506001600160a01b0385511690519160a086015194519061363282611e09565b303b156103aa5761365a918891604051978896879663cd3fd61760e01b88526004880161284f565b038183305af1908161377a575b509394612c54946137735760019061367d61278c565b6308c379a0146136f6575b50613694575b50614080565b6136ed7f4c94adf18d8bfad12d476c7b93150b992bfa3fb9a83d713dd8a97359b7413f82916136cc6001600160a01b0361304961281f565b60405191829160018352856020840152606060408401526060830190611e36565b0390a13861368e565b6136fe6127aa565b908161370b575b50613688565b7f356c1ed0403936d05af0abea05fbda16720ce964f55d7010cee1ba6cd8e1f60a91925061376990926137486001600160a01b038651168761413f565b60405191829160018352876020840152606060408401526060830190611e36565b0390a13880613705565b5050614080565b613785878092611b58565b610ebd5738613667565b92976137a39060019692961c809451611e5b565b976001600160a01b0360035416926001600160a01b03885116905192516137c981611e09565b60a0890151975195853b156105435761380a9688946040519a8b998a98899763bfffc8bb60e01b895260048901526101806024890152610184880190611e36565b9461381481611e09565b604487015260026064870152608486015260a48501528460c48501528460e4850152846101048501526101248401528361014484015261016483015203925af1908161395d575b509394612c54946137735760019061387161278c565b6308c379a0146138e0575b506138875750614080565b6136ed7f4c94adf18d8bfad12d476c7b93150b992bfa3fb9a83d713dd8a97359b7413f82916138bf6001600160a01b0361304961281f565b60405191829160028352856020840152606060408401526060830190611e36565b6138e86127aa565b90816138f5575b5061387c565b7f356c1ed0403936d05af0abea05fbda16720ce964f55d7010cee1ba6cd8e1f60a91925061395390926139326001600160a01b038651168761413f565b60405191829160028352876020840152606060408401526060830190611e36565b0390a138806138ef565b613968878092611b58565b610ebd573861385b565b90919550516135db565b90506002602087015161398e81611e09565b61399781611e09565b1490816139a6575b50386135ce565b9050815110153861399f565b9050600160208701516139c481611e09565b6139cd81611e09565b14806139da575b906135c7565b5080825111156139d4565b5114915038806135be565b809293506080915001908151151580613abe575b15613ab2579060a08a9392019182518015928315613aa7575b50508115613a74575b8115613a3e575b5015613972575090506001946135db565b905060026020870151613a5081611e09565b613a5981611e09565b149081613a68575b5038613a2d565b90508151101538613a61565b905060016020870151613a8681611e09565b613a8f81611e09565b1480613a9c575b90613a26565b508082511115613a96565b511491503880613a1d565b50505050505050509050565b506020860160018151613ad081611e09565b613ad981611e09565b149081613b1d575b8115613aee575b50613a04565b6002915051613afc81611e09565b613b0581611e09565b1480613b12575b38613ae8565b508151831015613b0c565b83518511159150613ae1565b506020870160018151613b3b81611e09565b613b4481611e09565b149081613b88575b8115613b59575b506135a9565b6002915051613b6781611e09565b613b7081611e09565b1480613b7d575b38613b53565b508151831115613b77565b83518510159150613b4c565b5060026060860151613ba581611e09565b613bae81611e09565b146129a1565b939594925050506001600160a01b0381511660808201516020830151613bd981611e09565b6001600160a01b03875416908760206001600160a01b03600354166004604051809481937fb99ac9270000000000000000000000000000000000000000000000000000000083525af1908115613d6d578991613d3b575b50613c48604051946101608652610160860190611e36565b9260208501526040840152613c5c81611e09565b606083015281807f3174923aee4fc7c29de893ec1a82807b9f70eea78b57219cce0e76a78350dd47926007608061012098979601528960a08301528960c08301528960e0830152896101008301528887830152426101408301520390a201516001600160a01b036003541691823b156103aa57604051937fac89c79800000000000000000000000000000000000000000000000000000000855260048501526007811015613d2757838580948294606494602485015260448401525af180156105385761217b575050565b602485634e487b7160e01b81526021600452fd5b90506020813d602011613d65575b81613d5660209383611b58565b81010312611a39575138613c30565b3d9150613d49565b6040513d8b823e3d90fd5b905038612990565b915038612988565b6006935060019250612981565b9050516007811015611a2557600214153861297b565b50859150600161295f565b5060808601511561295a565b50604086015115612954565b5060026060890151613ddf81611e09565b613de881611e09565b1461294e565b50506001600590612942565b90915060c0813d60c011613e8e575b81613e1660c09383611b58565b81010312610881576040519060c0820182811067ffffffffffffffff821117613e7a579060a0916040528051835260208101516020840152604081015160408401526060810151606084015260808101516080840152015160a08201529038612930565b602485634e487b7160e01b81526041600452fd5b3d9150613e09565b602492919450613eb160c0913d8087833e6110d38183611b58565b949192506128e9565b6020613f07916001600160a01b036002541660405180809581947f05ca57cf0000000000000000000000000000000000000000000000000000000083528660048401526024830190611e36565b03915afa9081156125d057600091613f1d575090565b6020813d602011613f54575b81613f3660209383611b58565b8101031261087d5751906001600160a01b03821682036103b0575090565b3d9150613f29565b9291926001600160a01b036000541693600060206001600160a01b03600354166004604051809481937fb99ac9270000000000000000000000000000000000000000000000000000000083525af19081156125d05760009161404e575b50613fd1604051946101608652610160860190611e36565b9560208501526040840152613fe581611e09565b60608301526001600160a01b0382917f3174923aee4fc7c29de893ec1a82807b9f70eea78b57219cce0e76a78350dd479460066080850152600060a0850152600060c0850152600060e085015260006101008501526101208401524261014084015216930390a2565b90506020813d602011614078575b8161406960209383611b58565b81010312610015575138613fb9565b3d915061405c565b6001600160a01b036003541691823b1561001557604051917fac89c79800000000000000000000000000000000000000000000000000000000835260048301526003602483015260448201525a81606481600080968195f180156105385761217b575050565b60ff7ff0c57e16840df040f15088dc2f81fe391c3923bec73e23a9662efc9c229c6a005460401c161561411557565b7fd7e6bcf80000000000000000000000000000000000000000000000000000000060005260046000fd5b906000916001600160a01b0360045416803b156103ae579160648492836001600160a01b039560405196879586947fc2b3356400000000000000000000000000000000000000000000000000000000865260048601521660248401528160448401525af180156105385761217b57505056fea26469706673582212202d415f811f38680fec126059b9327111c71b86d8b867ce8af3e661fa9858176064736f6c634300081c0033",
  "linkReferences": {},
  "deployedLinkReferences": {}
}