{
  "_format": "hh-sol-artifact-1",
  "contractName": "TradeStation",
  "sourceName": "contracts/TradeStation.sol",
  "abi": [
    {
      "inputs": [],
      "name": "InvalidInitialization",
      "type": "error"
    },
    {
      "inputs": [],
      "name": "NotInitializing",
      "type": "error"
    },
    {
      "inputs": [
        {
          "internalType": "address",
          "name": "owner",
          "type": "address"
        }
      ],
      "name": "OwnableInvalidOwner",
      "type": "error"
    },
    {
      "inputs": [
        {
          "internalType": "address",
          "name": "account",
          "type": "address"
        }
      ],
      "name": "OwnableUnauthorizedAccount",
      "type": "error"
    },
    {
      "anonymous": false,
      "inputs": [
        {
          "indexed": false,
          "internalType": "address",
          "name": "taker",
          "type": "address"
        },
        {
          "indexed": false,
          "internalType": "uint256",
          "name": "amount",
          "type": "uint256"
        },
        {
          "indexed": false,
          "internalType": "uint256",
          "name": "availableAmount",
          "type": "uint256"
        },
        {
          "indexed": false,
          "internalType": "uint256",
          "name": "marginAmount",
          "type": "uint256"
        },
        {
          "indexed": false,
          "internalType": "uint256",
          "name": "locked",
          "type": "uint256"
        },
        {
          "indexed": false,
          "internalType": "uint256",
          "name": "stage",
          "type": "uint256"
        },
        {
          "indexed": false,
          "internalType": "uint256",
          "name": "dif",
          "type": "uint256"
        }
      ],
      "name": "BalanceOfTaker",
      "type": "event"
    },
    {
      "anonymous": false,
      "inputs": [
        {
          "indexed": false,
          "internalType": "string",
          "name": "name",
          "type": "string"
        },
        {
          "indexed": true,
          "internalType": "address",
          "name": "taker",
          "type": "address"
        },
        {
          "indexed": true,
          "internalType": "address",
          "name": "token",
          "type": "address"
        },
        {
          "indexed": false,
          "internalType": "uint256",
          "name": "orderID",
          "type": "uint256"
        },
        {
          "indexed": false,
          "internalType": "enum ICommon.Direct",
          "name": "orderType",
          "type": "uint8"
        },
        {
          "indexed": false,
          "internalType": "enum IPerpetual.OrderState",
          "name": "state",
          "type": "uint8"
        },
        {
          "indexed": false,
          "internalType": "enum ICommon.Offset",
          "name": "offset",
          "type": "uint8"
        },
        {
          "indexed": false,
          "internalType": "uint256",
          "name": "amount",
          "type": "uint256"
        },
        {
          "indexed": false,
          "internalType": "uint256",
          "name": "targetPrice",
          "type": "uint256"
        },
        {
          "indexed": false,
          "internalType": "uint256",
          "name": "margin",
          "type": "uint256"
        },
        {
          "indexed": false,
          "internalType": "uint256",
          "name": "rewardGas",
          "type": "uint256"
        },
        {
          "indexed": false,
          "internalType": "uint256",
          "name": "tradingFee",
          "type": "uint256"
        },
        {
          "indexed": false,
          "internalType": "uint256",
          "name": "startTime",
          "type": "uint256"
        },
        {
          "indexed": false,
          "internalType": "uint256",
          "name": "goodTill",
          "type": "uint256"
        }
      ],
      "name": "CreateLimitedOrder",
      "type": "event"
    },
    {
      "anonymous": false,
      "inputs": [
        {
          "indexed": false,
          "internalType": "uint256",
          "name": "limitOrderID",
          "type": "uint256"
        },
        {
          "indexed": false,
          "internalType": "uint256",
          "name": "openLimitPrice",
          "type": "uint256"
        },
        {
          "indexed": false,
          "internalType": "uint256",
          "name": "gainTriggerPrice",
          "type": "uint256"
        },
        {
          "indexed": false,
          "internalType": "uint256",
          "name": "gainLimitPrice",
          "type": "uint256"
        },
        {
          "indexed": false,
          "internalType": "uint256",
          "name": "lossTriggerPrice",
          "type": "uint256"
        },
        {
          "indexed": false,
          "internalType": "uint256",
          "name": "lossLimitPrice",
          "type": "uint256"
        }
      ],
      "name": "CreateTriggerCondition",
      "type": "event"
    },
    {
      "anonymous": false,
      "inputs": [
        {
          "indexed": false,
          "internalType": "uint256",
          "name": "code",
          "type": "uint256"
        },
        {
          "indexed": false,
          "internalType": "uint256",
          "name": "orderID",
          "type": "uint256"
        },
        {
          "indexed": false,
          "internalType": "string",
          "name": "message",
          "type": "string"
        }
      ],
      "name": "ErrorInfo",
      "type": "event"
    },
    {
      "anonymous": false,
      "inputs": [
        {
          "indexed": false,
          "internalType": "uint256",
          "name": "code",
          "type": "uint256"
        },
        {
          "indexed": false,
          "internalType": "uint256",
          "name": "orderID",
          "type": "uint256"
        },
        {
          "indexed": false,
          "internalType": "bytes",
          "name": "message",
          "type": "bytes"
        }
      ],
      "name": "ExceptErrorInfo",
      "type": "event"
    },
    {
      "anonymous": false,
      "inputs": [
        {
          "indexed": false,
          "internalType": "uint64",
          "name": "version",
          "type": "uint64"
        }
      ],
      "name": "Initialized",
      "type": "event"
    },
    {
      "anonymous": false,
      "inputs": [
        {
          "indexed": true,
          "internalType": "address",
          "name": "taker",
          "type": "address"
        },
        {
          "indexed": false,
          "internalType": "string",
          "name": "name",
          "type": "string"
        },
        {
          "indexed": false,
          "internalType": "address",
          "name": "token",
          "type": "address"
        },
        {
          "indexed": false,
          "internalType": "uint256",
          "name": "orderID",
          "type": "uint256"
        },
        {
          "indexed": false,
          "internalType": "enum ICommon.Direct",
          "name": "direction",
          "type": "uint8"
        },
        {
          "indexed": false,
          "internalType": "enum IPerpetual.OrderType",
          "name": "orderType",
          "type": "uint8"
        },
        {
          "indexed": false,
          "internalType": "uint256",
          "name": "amount",
          "type": "uint256"
        },
        {
          "indexed": false,
          "internalType": "uint256",
          "name": "costPrice",
          "type": "uint256"
        },
        {
          "indexed": false,
          "internalType": "uint256",
          "name": "price",
          "type": "uint256"
        },
        {
          "indexed": false,
          "internalType": "uint256",
          "name": "tradingFee",
          "type": "uint256"
        },
        {
          "indexed": false,
          "internalType": "uint256",
          "name": "limitOrderId",
          "type": "uint256"
        },
        {
          "indexed": false,
          "internalType": "uint256",
          "name": "timestamp",
          "type": "uint256"
        }
      ],
      "name": "OrderHistory",
      "type": "event"
    },
    {
      "anonymous": false,
      "inputs": [
        {
          "indexed": true,
          "internalType": "address",
          "name": "previousOwner",
          "type": "address"
        },
        {
          "indexed": true,
          "internalType": "address",
          "name": "newOwner",
          "type": "address"
        }
      ],
      "name": "OwnershipTransferred",
      "type": "event"
    },
    {
      "anonymous": false,
      "inputs": [
        {
          "indexed": false,
          "internalType": "address",
          "name": "token",
          "type": "address"
        },
        {
          "indexed": false,
          "internalType": "uint256",
          "name": "orderID",
          "type": "uint256"
        },
        {
          "indexed": false,
          "internalType": "uint256",
          "name": "dealID",
          "type": "uint256"
        },
        {
          "indexed": false,
          "internalType": "enum IPerpetual.TradeType",
          "name": "tradeType",
          "type": "uint8"
        },
        {
          "indexed": false,
          "internalType": "uint256",
          "name": "amount",
          "type": "uint256"
        },
        {
          "indexed": false,
          "internalType": "uint256",
          "name": "price",
          "type": "uint256"
        },
        {
          "indexed": false,
          "internalType": "uint256",
          "name": "tradingFee",
          "type": "uint256"
        },
        {
          "indexed": false,
          "internalType": "uint256",
          "name": "profit",
          "type": "uint256"
        },
        {
          "indexed": false,
          "internalType": "uint256",
          "name": "loss",
          "type": "uint256"
        },
        {
          "indexed": false,
          "internalType": "uint256",
          "name": "timestamp",
          "type": "uint256"
        }
      ],
      "name": "TradeHistory",
      "type": "event"
    },
    {
      "anonymous": false,
      "inputs": [
        {
          "indexed": true,
          "internalType": "address",
          "name": "taker",
          "type": "address"
        },
        {
          "indexed": true,
          "internalType": "address",
          "name": "token",
          "type": "address"
        },
        {
          "indexed": false,
          "internalType": "enum ICommon.TransactionType",
          "name": "transactionType",
          "type": "uint8"
        },
        {
          "indexed": false,
          "internalType": "uint256",
          "name": "amount",
          "type": "uint256"
        },
        {
          "indexed": false,
          "internalType": "uint256",
          "name": "timestamp",
          "type": "uint256"
        }
      ],
      "name": "TransactionHistory",
      "type": "event"
    },
    {
      "anonymous": false,
      "inputs": [
        {
          "indexed": false,
          "internalType": "address",
          "name": "sender",
          "type": "address"
        },
        {
          "indexed": false,
          "internalType": "address",
          "name": "received",
          "type": "address"
        },
        {
          "indexed": false,
          "internalType": "enum ICommon.TransactionType",
          "name": "transactionType",
          "type": "uint8"
        },
        {
          "indexed": false,
          "internalType": "uint256",
          "name": "amount",
          "type": "uint256"
        },
        {
          "indexed": false,
          "internalType": "uint256",
          "name": "timestamp",
          "type": "uint256"
        }
      ],
      "name": "TransferFee",
      "type": "event"
    },
    {
      "anonymous": false,
      "inputs": [
        {
          "indexed": false,
          "internalType": "address",
          "name": "sender",
          "type": "address"
        },
        {
          "indexed": false,
          "internalType": "uint256",
          "name": "beforeLeverage",
          "type": "uint256"
        },
        {
          "indexed": false,
          "internalType": "uint256",
          "name": "afterLeverage",
          "type": "uint256"
        }
      ],
      "name": "setLeverage",
      "type": "event"
    },
    {
      "stateMutability": "nonpayable",
      "type": "fallback"
    },
    {
      "inputs": [
        {
          "internalType": "address",
          "name": "_taker",
          "type": "address"
        },
        {
          "internalType": "uint256",
          "name": "_deposit",
          "type": "uint256"
        },
        {
          "internalType": "string[]",
          "name": "_pairs",
          "type": "string[]"
        },
        {
          "internalType": "uint256[]",
          "name": "_prices",
          "type": "uint256[]"
        }
      ],
      "name": "clearingTaker",
      "outputs": [
        {
          "internalType": "uint256",
          "name": "remainingDeposit",
          "type": "uint256"
        }
      ],
      "stateMutability": "nonpayable",
      "type": "function"
    },
    {
      "inputs": [
        {
          "internalType": "address",
          "name": "_taker",
          "type": "address"
        },
        {
          "internalType": "string",
          "name": "_name",
          "type": "string"
        },
        {
          "internalType": "uint256",
          "name": "_amount",
          "type": "uint256"
        },
        {
          "internalType": "uint256",
          "name": "_price",
          "type": "uint256"
        },
        {
          "internalType": "enum ICommon.Direct",
          "name": "_type",
          "type": "uint8"
        },
        {
          "internalType": "uint256",
          "name": "_limitID",
          "type": "uint256"
        }
      ],
      "name": "closeOrder",
      "outputs": [],
      "stateMutability": "nonpayable",
      "type": "function"
    },
    {
      "inputs": [
        {
          "internalType": "string",
          "name": "_name",
          "type": "string"
        },
        {
          "internalType": "uint256",
          "name": "_amount",
          "type": "uint256"
        },
        {
          "internalType": "uint256",
          "name": "_orderType",
          "type": "uint256"
        },
        {
          "internalType": "uint256",
          "name": "_price",
          "type": "uint256"
        },
        {
          "internalType": "enum ICommon.Direct",
          "name": "_type",
          "type": "uint8"
        },
        {
          "internalType": "uint256",
          "name": "_goodTill",
          "type": "uint256"
        },
        {
          "internalType": "address",
          "name": "_taker",
          "type": "address"
        },
        {
          "internalType": "uint256",
          "name": "_rewardGas",
          "type": "uint256"
        }
      ],
      "name": "closePosition",
      "outputs": [],
      "stateMutability": "payable",
      "type": "function"
    },
    {
      "inputs": [
        {
          "internalType": "address",
          "name": "initialOwner",
          "type": "address"
        },
        {
          "internalType": "address",
          "name": "_priPool",
          "type": "address"
        },
        {
          "internalType": "address",
          "name": "_perpetual",
          "type": "address"
        },
        {
          "internalType": "address",
          "name": "_settle",
          "type": "address"
        }
      ],
      "name": "initialize",
      "outputs": [],
      "stateMutability": "nonpayable",
      "type": "function"
    },
    {
      "inputs": [
        {
          "internalType": "address",
          "name": "_taker",
          "type": "address"
        },
        {
          "internalType": "string",
          "name": "_name",
          "type": "string"
        },
        {
          "internalType": "uint256",
          "name": "_amount",
          "type": "uint256"
        },
        {
          "internalType": "uint256",
          "name": "_price",
          "type": "uint256"
        },
        {
          "internalType": "enum ICommon.Direct",
          "name": "_type",
          "type": "uint8"
        },
        {
          "internalType": "uint256",
          "name": "_goodTill",
          "type": "uint256"
        },
        {
          "internalType": "uint256",
          "name": "_rewardsGas",
          "type": "uint256"
        }
      ],
      "name": "makeOpenLimitOrder",
      "outputs": [],
      "stateMutability": "nonpayable",
      "type": "function"
    },
    {
      "inputs": [
        {
          "internalType": "address",
          "name": "_taker",
          "type": "address"
        },
        {
          "internalType": "string",
          "name": "_name",
          "type": "string"
        },
        {
          "internalType": "uint256",
          "name": "_amount",
          "type": "uint256"
        },
        {
          "internalType": "uint256",
          "name": "_price",
          "type": "uint256"
        },
        {
          "internalType": "enum ICommon.Direct",
          "name": "_type",
          "type": "uint8"
        },
        {
          "internalType": "uint256",
          "name": "limitOrderID",
          "type": "uint256"
        }
      ],
      "name": "openOrder",
      "outputs": [],
      "stateMutability": "nonpayable",
      "type": "function"
    },
    {
      "inputs": [],
      "name": "owner",
      "outputs": [
        {
          "internalType": "address",
          "name": "",
          "type": "address"
        }
      ],
      "stateMutability": "view",
      "type": "function"
    },
    {
      "inputs": [],
      "name": "renounceOwnership",
      "outputs": [],
      "stateMutability": "nonpayable",
      "type": "function"
    },
    {
      "inputs": [
        {
          "internalType": "address",
          "name": "_orderBook",
          "type": "address"
        },
        {
          "internalType": "address",
          "name": "_agent",
          "type": "address"
        }
      ],
      "name": "setKeepers",
      "outputs": [],
      "stateMutability": "nonpayable",
      "type": "function"
    },
    {
      "inputs": [
        {
          "internalType": "string",
          "name": "_name",
          "type": "string"
        },
        {
          "internalType": "uint256",
          "name": "_amount",
          "type": "uint256"
        },
        {
          "internalType": "enum ICommon.Direct",
          "name": "_type",
          "type": "uint8"
        },
        {
          "internalType": "enum ICommon.Offset",
          "name": "_offset",
          "type": "uint8"
        },
        {
          "internalType": "uint256",
          "name": "_param1",
          "type": "uint256"
        },
        {
          "internalType": "uint256",
          "name": "_param2",
          "type": "uint256"
        },
        {
          "internalType": "uint256",
          "name": "_param3",
          "type": "uint256"
        },
        {
          "internalType": "uint256",
          "name": "_param4",
          "type": "uint256"
        },
        {
          "internalType": "uint256",
          "name": "_goodTill",
          "type": "uint256"
        },
        {
          "internalType": "address",
          "name": "_taker",
          "type": "address"
        }
      ],
      "name": "stopTakeOrder",
      "outputs": [],
      "stateMutability": "payable",
      "type": "function"
    },
    {
      "inputs": [
        {
          "internalType": "string",
          "name": "_name",
          "type": "string"
        },
        {
          "internalType": "uint256",
          "name": "_amount",
          "type": "uint256"
        },
        {
          "internalType": "uint256",
          "name": "_price",
          "type": "uint256"
        },
        {
          "internalType": "uint256",
          "name": "_orderType",
          "type": "uint256"
        },
        {
          "internalType": "enum ICommon.Direct",
          "name": "_type",
          "type": "uint8"
        },
        {
          "internalType": "uint256",
          "name": "_goodTill",
          "type": "uint256"
        },
        {
          "internalType": "address",
          "name": "_taker",
          "type": "address"
        },
        {
          "internalType": "uint256",
          "name": "_rewardGas",
          "type": "uint256"
        }
      ],
      "name": "tradeFutures",
      "outputs": [],
      "stateMutability": "payable",
      "type": "function"
    },
    {
      "inputs": [
        {
          "internalType": "address",
          "name": "newOwner",
          "type": "address"
        }
      ],
      "name": "transferOwnership",
      "outputs": [],
      "stateMutability": "nonpayable",
      "type": "function"
    },
    {
      "inputs": [
        {
          "internalType": "uint256[]",
          "name": "_orderID",
          "type": "uint256[]"
        },
        {
          "internalType": "string[]",
          "name": "_symbols",
          "type": "string[]"
        },
        {
          "internalType": "uint256[]",
          "name": "_prices",
          "type": "uint256[]"
        }
      ],
      "name": "triggerOrders",
      "outputs": [],
      "stateMutability": "nonpayable",
      "type": "function"
    }
  ],
  "bytecode": "0x6080806040523460155761402e908161001b8239f35b600080fdfe6080604052600436101561001a575b3461001557005b600080fd5b6000803560e01c8063274889e1146116395780632b00020614611596578063715018a6146114f05780637295751b146113235780638da5cb5b146112dd578063ad4a8e3b146110f3578063bcef60d714610ec1578063c3eea55914610de4578063cd3fd61714610b8a578063dcac2e881461060a578063eff6d7c3146103d3578063f2fde38b146103b35763f8c8765e146100b5575061000e565b346103b05760806003193601126103b0576100ce611bbe565b6100d6611bd4565b6044356001600160a01b0381168091036103ae57606435916001600160a01b0383168093036103aa577ff0c57e16840df040f15088dc2f81fe391c3923bec73e23a9662efc9c229c6a00549360ff8560401c16159467ffffffffffffffff8116801590816103a2575b6001149081610398575b15908161038f575b50610367576001600160a01b039291818760017fffffffffffffffffffffffffffffffffffffffffffffffff00000000000000006101d99516177ff0c57e16840df040f15088dc2f81fe391c3923bec73e23a9662efc9c229c6a0055610312575b506101bb613f9f565b6101c3613f9f565b6101cc33612002565b6101d46123a0565b612002565b168073ffffffffffffffffffffffffffffffffffffffff1960015416176001558452600560205260408420600160ff198254161790558073ffffffffffffffffffffffffffffffffffffffff1960025416176002558352600560205260408320600160ff19825416179055308352600560205260408320600160ff1982541617905573ffffffffffffffffffffffffffffffffffffffff1983541617825561027e5780f35b7fffffffffffffffffffffffffffffffffffffffffffffff00ffffffffffffffff7ff0c57e16840df040f15088dc2f81fe391c3923bec73e23a9662efc9c229c6a0054167ff0c57e16840df040f15088dc2f81fe391c3923bec73e23a9662efc9c229c6a00557fc7f505b2f371ae2175ee4913f4499e1f2633a7b5936321eed1cdaeb6115181d2602060405160018152a180f35b7fffffffffffffffffffffffffffffffffffffffffffffff0000000000000000001668010000000000000001177ff0c57e16840df040f15088dc2f81fe391c3923bec73e23a9662efc9c229c6a0055386101b2565b6004877ff92ee8a9000000000000000000000000000000000000000000000000000000008152fd5b90501538610151565b303b159150610149565b87915061013f565b8480fd5b835b80fd5b50346103b05760206003193601126103b0576103d06101cc611bbe565b80f35b506101406003193601126103b0578060043567ffffffffffffffff811161060757610402903690600401611b77565b60443590600382101561060557606435916003831015610603576084359060c43592610124356001600160a01b0381168091036105ff57338752600560205261045160ff604089205416611d9e565b61045a86611de9565b600186146105ac575b61046c86611de9565b60028614610547575b6001600160a01b036003541692833b156105435787956104bb956040519889978896879663bfffc8bb60e01b885260048801526101806024880152610184870190611e16565b936104c581611de9565b60448601526104d381611de9565b6064850152602435608485015260a484015260a43560c484015260e483015260e43561010483015261010435610124830152600161014483015285610164830152039134905af18015610538576105275750f35b8161053191611b38565b6103b05780f35b6040513d84823e3d90fd5b8780fd5b955082158015906105a3575b1561055f578695610475565b606460405162461bcd60e51b815260206004820152601b60248201527f636c6f73652074726967676572207072696365206973207a65726f00000000006044820152fd5b50831515610553565b955082156105bb578695610463565b606460405162461bcd60e51b815260206004820152601a60248201527f6f70656e2074726967676572207072696365206973207a65726f0000000000006044820152fd5b8680fd5b505b505b50fd5b5061061436611bea565b9190969395949295338952600560205261063460ff60408b205416611d9e565b61063e87866120ce565b6001600160a01b0361064f86613cfd565b16896001600160a01b03600254166024604051809481937fa666200f00000000000000000000000000000000000000000000000000000000835260048301525afa8015610b7f578a90610a21575b6101409150015186106109dd576106b388612158565b6109035750506106dd9033875260056020526106d560ff604089205416611d9e565b838387612401565b916106e7856125cf565b92602084019384519460608301958651116108bf5761071e8251966107126040860198895190611e3b565b84528251905190611e3b565b9052610743604082019182519261073b6020860194855190611e88565b9052886126b3565b6001600160a01b036003541690825160a08751925194015194833b156108bb576107af604051977f530e011e0000000000000000000000000000000000000000000000000000000089526001600160a01b038c1660048a015261014060248a0152610144890190611e16565b986107b981611de9565b60448801528a988996889687958995879560016064880152608487015260a486015260c485015260e484015261010483015260001961012483015203925af190811561089a578391610885575b50506001600160a01b0360025416905190803b156108815760405163d1937e3d60e01b81526001600160a01b0385166004820152602481019290925282908290818381604481015b03925af1801561053857610868575b50506103d0906121c3565b8161087291611b38565b61087d57813861085d565b5080fd5b8280fd5b8161088f91611b38565b61087d578138610806565b6040513d85823e3d90fd5b634e487b7160e01b600052602160045260246000fd5b8a80fd5b606460405162461bcd60e51b815260206004820152601160248201527f6f70656e20696e73756666696369656e740000000000000000000000000000006044820152fd5b9195949395929092338852600560205261092360ff60408a205416611d9e565b61092f81888489612401565b90610939876125cf565b9760208901968751976060850198895111610999576103d09a61099499826109676109839451835190611e3b565b905261097b60608301918251905190611e88565b90528a6126b3565b602060408501519401519489612230565b6121c3565b606460405162461bcd60e51b815260206004820152601760248201527f6f70656e206c696d697420696e73756666696369656e740000000000000000006044820152fd5b606460405162461bcd60e51b815260206004820152601560248201527f6f70656e20616d6f756e7420746f6f20736d616c6c00000000000000000000006044820152fd5b503d808b833e610a318183611b38565b8101906020818303126108bb5780519067ffffffffffffffff8211610b7b5701906101e0828203126108bb57604051906101e0820182811067ffffffffffffffff821117610b675760405282519267ffffffffffffffff8411610b6357610aa06101c092610140958301611e9f565b835260208101516020840152610ab860408201611fee565b6040840152610ac960608201611fee565b6060840152610ada60808201611fee565b6080840152610aeb60a08201611fee565b60a0840152610afc60c08201611fee565b60c0840152610b0d60e08201611fee565b60e084015261010081015161010084015261012081015161012084015283810151848401526101608101516101608401526101808101516101808401526101a08101516101a084015201516101c082015261069d565b8c80fd5b60248d634e487b7160e01b81526041600452fd5b8b80fd5b6040513d8c823e3d90fd5b50346103b057610c00816080610b9f36611d42565b93909792969194963383526005602052610bbf60ff604085205416611d9e565b6001600160a01b036004541694604051998a978896879563cd3fd61760e01b87526001600160a01b038d16600488015260c0602488015260c4870190611e16565b9360448601526064850152610c1481611de9565b608484015260a483015203925af191821561089a578392610d83575b50610c3a816125cf565b906020820191610c4d8351855190611e88565b90610c9b610c616040870193845190611e88565b9287606088015196610c7960208a0198895190611e88565b958690818110610d7b57610c8e929350611e3b565b90525b8251905190611e88565b91808310610d37578695610cb38792610cd095611e3b565b835260408301805191519091818111610d25575050525b826126b3565b6001600160a01b03600254169151823b156106035760405163d1937e3d60e01b81526001600160a01b03909216600483015260248201529082908290818381604481015b03925af18015610538576105275750f35b610d30929350611e3b565b9052610cca565b606460405162461bcd60e51b815260206004820152601260248201527f73686f756c64206265206465746f6e61746500000000000000000000000000006044820152fd5b505052610c91565b9091506080813d608011610ddc575b81610d9f60809383611b38565b8101031261088157606060405191610db683611ace565b805183526020810151602084015260408101516040840152015160608201529038610c30565b3d9150610d92565b50346103b05760e06003193601126103b057610dfe611bbe565b60243567ffffffffffffffff811161088157610e1e903690600401611b77565b60443591606435906084356003811015610ebd573386526005602052610e4a60ff604088205416611d9e565b610e5683868685612401565b92610e60836125cf565b95602087018051976060870198895111610999576103d09882610e89610ea59451835190611e3b565b9052610e9d60608301918251905190611e88565b9052856126b3565b60408501519260c43596602060a43597015195612230565b8580fd5b50346103b05760606003193601126103b05760043567ffffffffffffffff811161087d57610ef3903690600401611ce5565b9060243567ffffffffffffffff811161087d57610f14903690600401611c66565b60443567ffffffffffffffff81116108815782610f3685923690600401611ce5565b903381526005602052610f4f60ff604083205416611d9e565b80915b83518310156110ef57602490610f688486611e5e565b5192806001600160a01b0360035416604051948580927f0c3fc6b90000000000000000000000000000000000000000000000000000000082528860048301525afa9283156110e25781936110be575b506080830190610fd68251602086015190610fd182611de9565b6120ce565b610fe96001600160a01b03855116612158565b8096815b89518110156110ae57611000818b611e5e565b5160405161102f6020828161101e8183019687815193849201611df3565b81010301601f198101835282611b38565b51902084516040516110516020828161101e8183019687815193849201611df3565b5190201461106157600101610fed565b60019592985084611077929a9895979450611e5e565b51905b81156110a6576110956001600160a01b039261109c94612851565b51166121c3565b0191939290610f52565b50505061109c565b509795929491509560019361107a565b6110db9193503d8085833e6110d38183611b38565b810190611ee4565b9187610fb7565b50604051903d90823e3d90fd5b5080f35b50346103b05761112c61110536611d42565b91959094939295338852600560205261112460ff60408a205416611d9e565b868486612401565b91600194611139856125cf565b92602084019788519760608701988951116108bf578a9961117287519a61116660408b019c8d5190611e3b565b89528251905190611e3b565b9052604086019586519661118c60208a0198895190611e88565b905260001984036112d4575b6111a290896126b3565b6001600160a01b03600354169387519360a08b519851990151863b15610b635761121b998d996001600160a01b03978b978e976040519e8f9d8e9c8d9b7f530e011e000000000000000000000000000000000000000000000000000000008d521660048c015261014060248c01526101448b0190611e16565b9761122581611de9565b60448a015261123381611e95565b6064890152608488015260a487015260c486015260e485015261010484015261012483015203925af19081156112c95784916112b4575b50506001600160a01b03600254169151823b156106035760405163d1937e3d60e01b81526001600160a01b0390921660048301526024820152908290829081838160448101610d14565b816112be91611b38565b61060557823861126a565b6040513d86823e3d90fd5b60029150611198565b50346103b057806003193601126103b05760206001600160a01b037f9016d09d72d40fdae2fd8ceac6b6234c7706214fd39c1cd1e609a0528c1993005416604051908152f35b50346103b05760806003193601126103b05761133d611bbe565b9060443567ffffffffffffffff811161087d5761135e903690600401611c66565b9160643567ffffffffffffffff81116108815761137f903690600401611ce5565b92338352600560205261139860ff604085205416611d9e565b602435916001600160a01b038491165b82518210156114e55784935b60ff851660028110156114d8576001600160a01b03600354169060016113da8688611e5e565b51910160ff81116114c4579161144b898b936114058960ff602098169661140088611de9565b611e5e565b5194604051978896879586947f9324b5490000000000000000000000000000000000000000000000000000000086528c600487015260a0602487015260a4860190611e16565b9261145581611de9565b60448501526064840152608483015203925af19081156114b9578691611485575b50600160ff91950116936113b4565b905060203d81116114b2575b61149b8183611b38565b602082600092810103126103b05750516001611476565b503d611491565b6040513d88823e3d90fd5b602489634e487b7160e01b81526011600452fd5b50935090600101906113a8565b602084604051908152f35b50346103b057806003193601126103b0576115096123a0565b806001600160a01b037f9016d09d72d40fdae2fd8ceac6b6234c7706214fd39c1cd1e609a0528c1993005473ffffffffffffffffffffffffffffffffffffffff1981167f9016d09d72d40fdae2fd8ceac6b6234c7706214fd39c1cd1e609a0528c19930055167f8be0079c531659141344cd1fd0a4f28419497f9722a3daafe3b4186f6b6457e08280a380f35b50346103b05760406003193601126103b0576001600160a01b036115b8611bbe565b816115c1611bd4565b916115ca6123a0565b16808452600560205260408420600160ff19825416179055808452600560205260408420600160ff1982541617905573ffffffffffffffffffffffffffffffffffffffff1960035416176003551673ffffffffffffffffffffffffffffffffffffffff19600454161760045580f35b5061164336611bea565b909695929491338952600560205261166160ff60408b205416611d9e565b61166b86886120ce565b604051610100810181811067ffffffffffffffff821117611aba5760405289815260208101908a82528a60408201526060808201528a60808201528a60a08201528a60c08201528a60e08201526001600160a01b03600354166116cd89611de9565b60ff600019818b160111611aa65761173760808b8e936001600160a01b038f8e60ff60001981604051998a98899788977f0c8c3516000000000000000000000000000000000000000000000000000000008952166004880152606060248801526064870190611e16565b93160116604483015203915afa9283156105385782918394611a61575b5082611767958560408401525252611e3b565b8411611a1d57889261177889612158565b61194a5750506117df9060809495338252600560205261179e60ff604084205416611d9e565b6001600160a01b0360045416936040519788968795869463cd3fd61760e01b86526001600160a01b038d16600487015260c0602487015260c4860190611e16565b92604485015260648401526117f381611de9565b608483015260001960a483015203925af190811561089a5783916118eb575b5061181c826125cf565b602081019061182e8251845190611e88565b9061185a6118426040860193845190611e88565b9287606087015195610c796020890197885190611e88565b91808310610d37578694611872869261188f95611e3b565b8352604083018051915190918181116118d9575050525b846126b3565b6001600160a01b0360025416905190803b156108815760405163d1937e3d60e01b81526001600160a01b03851660048201526024810192909252829082908183816044810161084e565b6118e4929350611e3b565b9052611889565b90506080813d608011611942575b8161190660809383611b38565b810103126108815760606040519161191d83611ace565b8051835260208101516020840152604081015160408401520151606082015238611812565b3d91506118f9565b91509193926001600160a01b036003541694853b15611a19576119966040519763bfffc8bb60e01b89526001600160a01b038a1660048a015261018060248a0152610184890190611e16565b946119a081611de9565b604488015293889593879593869493859460026064870152608486015260a48501528760c48501528760e48501528761010485015261012484015286610144840152610164830152039134905af1801561089a57611a03575b506103d0906121c3565b91611a12816103d09394611b38565b91906119f9565b8880fd5b606460405162461bcd60e51b815260206004820152601660248201527f636c6f736520616d6f756e7420746f6f206c61726765000000000000000000006044820152fd5b9493509150506080833d608011611a9e575b81611a8060809383611b38565b81010312610b7b578251602084015160609094015192939182611754565b3d9150611a73565b60248c634e487b7160e01b81526011600452fd5b60248b634e487b7160e01b81526041600452fd5b6080810190811067ffffffffffffffff821117611aea57604052565b634e487b7160e01b600052604160045260246000fd5b60e0810190811067ffffffffffffffff821117611aea57604052565b60a0810190811067ffffffffffffffff821117611aea57604052565b90601f601f19910116810190811067ffffffffffffffff821117611aea57604052565b67ffffffffffffffff8111611aea57601f01601f191660200190565b81601f8201121561001557803590611b8e82611b5b565b92611b9c6040519485611b38565b8284526020838301011161001557816000926020809301838601378301015290565b600435906001600160a01b038216820361001557565b602435906001600160a01b038216820361001557565b610100600319820112610015576004359067ffffffffffffffff821161001557611c1691600401611b77565b906024359060443590606435906084356003811015610015579060a4359060c4356001600160a01b0381168103610015579060e43590565b67ffffffffffffffff8111611aea5760051b60200190565b9080601f83011215610015578135611c7d81611c4e565b92611c8b6040519485611b38565b81845260208085019260051b820101918383116100155760208201905b838210611cb757505050505090565b813567ffffffffffffffff811161001557602091611cda87848094880101611b77565b815201910190611ca8565b9080601f83011215610015578135611cfc81611c4e565b92611d0a6040519485611b38565b81845260208085019260051b82010192831161001557602001905b828210611d325750505090565b8135815260209182019101611d25565b9060c0600319830112610015576004356001600160a01b038116810361001557916024359067ffffffffffffffff821161001557611d8291600401611b77565b9060443590606435906084356003811015610015579060a43590565b15611da557565b606460405162461bcd60e51b815260206004820152601c60248201527f63616c6c6572206973206e6f742073746174696f6e206b6565706572000000006044820152fd5b600311156108a557565b60005b838110611e065750506000910152565b8181015183820152602001611df6565b90601f19601f602093611e3481518092818752878088019101611df3565b0116010190565b91908203918211611e4857565b634e487b7160e01b600052601160045260246000fd5b8051821015611e725760209160051b010190565b634e487b7160e01b600052603260045260246000fd5b91908201809211611e4857565b600811156108a557565b81601f82011215610015578051611eb581611b5b565b92611ec36040519485611b38565b8184526020828401011161001557611ee19160208085019101611df3565b90565b6020818303126100155780519067ffffffffffffffff8211610015570190610180828203126100155760405191610180830183811067ffffffffffffffff821117611aea5760405280516001600160a01b0381168103610015578352602081015160038110156100155760208401526040810151600881101561001557604084015260608101516003811015610015576060840152608081015167ffffffffffffffff81116100155761016092611f9c918301611e9f565b608084015260a081015160a084015260c081015160c084015260e081015160e0840152610100810151610100840152610120810151610120840152610140810151610140840152015161016082015290565b51906001600160a01b038216820361001557565b6001600160a01b0316801561209f576001600160a01b037f9016d09d72d40fdae2fd8ceac6b6234c7706214fd39c1cd1e609a0528c199300548273ffffffffffffffffffffffffffffffffffffffff198216177f9016d09d72d40fdae2fd8ceac6b6234c7706214fd39c1cd1e609a0528c19930055167f8be0079c531659141344cd1fd0a4f28419497f9722a3daafe3b4186f6b6457e0600080a3565b7f1e4fbdf700000000000000000000000000000000000000000000000000000000600052600060045260246000fd5b90600454916001600160a01b036000931690813b156103ae57839161212a916040518095819482937fd0e3d0dc000000000000000000000000000000000000000000000000000000008452604060048501526044840190611e16565b9061213481611de9565b602483015203915afa80156105385761214b575050565b8161215591611b38565b50565b6000906001600160a01b036002541690813b15610881576001600160a01b03604484928360405195869485937f9048f2e00000000000000000000000000000000000000000000000000000000085521660048401528160248401525af180156105385761214b575050565b600254906001600160a01b036000921690813b15610881576001600160a01b03604484928360405195869485937f9048f2e0000000000000000000000000000000000000000000000000000000008552166004840152600a60248401525af180156105385761214b575050565b9692979395919490956000986001600160a01b036003541697883b156108bb57612283906001600160a01b036040519b63bfffc8bb60e01b8d521660048c015261018060248c01526101848b0190611e16565b9661228d81611de9565b60448a0152600160648a0152608489015260a488015260c487015260e4860187905261010486015261012485015261014484018590526101648401528391839182900390829034905af180156105385761214b575050565b9591939692969490946000976001600160a01b036003541696873b1561239c57612338906001600160a01b036040519a63bfffc8bb60e01b8c521660048b015261018060248b01526101848a0190611e16565b9561234281611de9565b604489015260026064890152608488015260a487015260c4860187905260e4860152610104850186905261012485015260016101448501526101648401528391839182900390829034905af180156105385761214b575050565b8980fd5b6001600160a01b037f9016d09d72d40fdae2fd8ceac6b6234c7706214fd39c1cd1e609a0528c199300541633036123d357565b7f118cdaa7000000000000000000000000000000000000000000000000000000006000523360045260246000fd5b919091600060c060405161241481611b00565b8281528260208201528260408201528260608201528260808201528260a082015201526001600160a01b0360025416926001600160a01b03604051927fe1fb28b800000000000000000000000000000000000000000000000000000000845216600483015260406024830152602082806124916044820185611e16565b0381875afa91821561258c57600092612598575b50926084916001600160a01b036124bd60e096613cfd565b169060405196879586947f07ec446600000000000000000000000000000000000000000000000000000000865260048601526024850152604484015260648301525afa90811561258c57600091612512575090565b905060e0813d60e011612584575b8161252d60e09383611b38565b810103126100155760c06040519161254483611b00565b805183526020810151602084015260408101516040840152606081015160608401526080810151608084015260a081015160a0840152015160c082015290565b3d9150612520565b6040513d6000823e3d90fd5b9150926020823d6020116125c7575b816125b460209383611b38565b81010312610015579051909260e06124a5565b3d91506125a7565b600060806040516125df81611b1c565b828152826020820152826040820152826060820152015260a06001600160a01b03602481600254169360405194859384927ffb47e0160000000000000000000000000000000000000000000000000000000084521660048301525afa90811561258c5760009161264d575090565b905060a0813d60a0116126ab575b8161266860a09383611b38565b810103126100155760806040519161267f83611b1c565b805183526020810151602084015260408101516040840152606081015160608401520151608082015290565b3d915061265b565b90600254916001600160a01b0360009316803b156103ae5760c48492836001600160a01b0393608060405197889687957fc9f35c3900000000000000000000000000000000000000000000000000000000875216600486015280516024860152602081015160448601526040810151606486015260608101516084860152015160a48401525af180156105385761214b575050565b60009060033d1161275557565b905060046000803e60005160e01c90565b600060443d10611ee1576040516003193d016004823e8051913d602484011167ffffffffffffffff8411176127d5578282019283519167ffffffffffffffff83116127cd576003193d850101602084870101116127cd5750611ee192910160200190611b38565b949350505050565b92915050565b3d15612806573d906127ec82611b5b565b916127fa6040519384611b38565b82523d6000602084013e565b606090565b9296959491612834906001600160a01b0360a0969316855260c0602086015260c0850190611e16565b966040840152606083015261284881611de9565b60808201520152565b906003546001600160a01b036000911691604051927f0c3fc6b90000000000000000000000000000000000000000000000000000000084528460048501528284602481845afa93841561089a578394613cd9575b509060c0602492604051938480927f0187703f0000000000000000000000000000000000000000000000000000000082528960048301525afa91821561089a578392613c3d575b50600182511480613c1d575b61350c576101608401805142116134f357604460206001600160a01b0360045416604051928380927fe6b34c690000000000000000000000000000000000000000000000000000000082528b60048301528760248301525afa9081156133d85785916134b8575b5061296d575b505050505050565b6001835114612e2b575060c08401908152606084016001815161298f81611de9565b61299881611de9565b03612c7457506129f16001600160a01b0385511660e0860151906129ca6101008801516129c4836125cf565b93611e88565b602083016129d9828251611e88565b90526129ea60608401918251611e3b565b90526126b3565b6001600160a01b0384511691608085019081519260a087019384519151956020890196875190612a2082611de9565b303b1561239c5791612a658c8b9593869560405198899687967fad4a8e3b0000000000000000000000000000000000000000000000000000000088526004880161280b565b038183305af19182612c5f575b5050612b8e5750505050600190612a87612748565b6308c379a014612b11575b50612aa6575b50505b388080808080612965565b7f4c94adf18d8bfad12d476c7b93150b992bfa3fb9a83d713dd8a97359b7413f8291612ae46001600160a01b03612adb6127db565b93511682613f2d565b612b07604051928392600584526020840152606060408401526060830190611e16565b0390a13880612a98565b612b19612766565b9081612b26575b50612a92565b7f356c1ed0403936d05af0abea05fbda16720ce964f55d7010cee1ba6cd8e1f60a919250612b849092612b636001600160a01b0386511687613f2d565b60405191829160058352876020840152606060408401526060830190611e16565b0390a13880612b20565b6101208694989795939601978851966002835114612bba575b505050505050612bb8929350613ec3565b565b6040830191825115801590612c52575b612bd5575b50612ba7565b909192939495976001600160a01b03612bf560809260011c809d51611e3b565b9951169551915192612c0684611de9565b519351940151946312cc0300420196874211612c3e575091612bb8999a959391612c319795936122e5565b8392388080808080612bcf565b80634e487b7160e01b602492526011600452fd5b5060808401511515612bca565b81612c6991611b38565b610ebd578538612a72565b600291925051612c8381611de9565b612c8c81611de9565b14612c9b575b50505050612a9b565b6001600160a01b0383511660808401519060a08501519251602086015190612cc282611de9565b303b15610ebd5791612cee888795938695604051988996879663cd3fd61760e01b88526004880161280b565b038183305af19182612e16575b5050612e0757600190612d0c612748565b6308c379a014612d8a575b50612d28575b505038808080612c92565b7f4c94adf18d8bfad12d476c7b93150b992bfa3fb9a83d713dd8a97359b7413f8291612d5d6001600160a01b03612adb6127db565b612d80604051928392600684526020840152606060408401526060830190611e16565b0390a13880612d1d565b612d92612766565b9081612d9f575b50612d17565b7f356c1ed0403936d05af0abea05fbda16720ce964f55d7010cee1ba6cd8e1f60a919250612dfd9092612ddc6001600160a01b0386511687613f2d565b60405191829160068352876020840152606060408401526060830190611e16565b0390a13880612d99565b506101200151612bb891613ec3565b81612e2091611b38565b61087d578138612cfb565b93916001600160a01b038397969492975116906080840190612e60868351946020880195865191612e5b83611de9565b613d9f565b61012085019889519760016060880151612e7981611de9565b612e8281611de9565b14612e9a575b50505050505050612bb8929350613ec3565b60208301805180159081156134aa575b508015613481575b8015613458575b156131125750508060c08701526001600160a01b0386511690835160a0880192835192875190612ee882611de9565b303b1561239c5791612f2d8c8b9593869560405198899687967fad4a8e3b0000000000000000000000000000000000000000000000000000000088526004880161280b565b038183305af191826130fd575b505061305d5750505050612bb8949550600190612f55612748565b6308c379a014612fe0575b50612f75575b505b8392388080808080612e88565b612fd77f4c94adf18d8bfad12d476c7b93150b992bfa3fb9a83d713dd8a97359b7413f8291612fb66001600160a01b03612fad6127db565b92511685613f2d565b60405191829160038352856020840152606060408401526060830190611e16565b0390a138612f66565b612fe8612766565b9081612ff5575b50612f60565b7f356c1ed0403936d05af0abea05fbda16720ce964f55d7010cee1ba6cd8e1f60a91925061305390926130326001600160a01b0386511687613f2d565b60405191829160038352876020840152606060408401526060830190611e16565b0390a13880612fef565b9092965061307589959294955160011c809a51611e3b565b9660408401928351158015906130f0575b61309d575b50505050505050612bb8929350612f68565b6001600160a01b03608091511695519151926130b884611de9565b519351940151946312cc0300420196874211612c3e575091612bb8999a9593916130e39795936122e5565b839238808080808061308b565b5060808501511515613086565b8161310791611b38565b610ebd578538612f3a565b9150939194995089926001600160a01b0387511690519160a0880151905193519561313c87611de9565b51303b15610ebd5761318b96869560405198899687967fc3eea559000000000000000000000000000000000000000000000000000000008852600488015260e0602488015260e4870190611e16565b936044860152606485015261319f81611de9565b608484015260a48301528960c4830152038183305af19182613443575b50506132c95750612bb893946001906131d3612748565b6308c379a01461324c575b506131ea575b50612f68565b6132437f4c94adf18d8bfad12d476c7b93150b992bfa3fb9a83d713dd8a97359b7413f82916132226001600160a01b03612fad6127db565b60405191829160048352856020840152606060408401526060830190611e16565b0390a1386131e4565b613254612766565b9081613261575b506131de565b7f356c1ed0403936d05af0abea05fbda16720ce964f55d7010cee1ba6cd8e1f60a9192506132bf909261329e6001600160a01b0386511687613f2d565b60405191829160048352876020840152606060408401526060830190611e16565b0390a1388061325b565b92505083916040810190815115801590613436575b6132f0575b5050612bb8929350612f68565b6001600160a01b0360035416604051927f49138690000000000000000000000000000000000000000000000000000000008452602084600481855afa93841561342b5788946133f7575b5060001984019384116133e3579060808893925192015193813b156103ae578360e49260405196879586947fbe63309e000000000000000000000000000000000000000000000000000000008652600486015260026024860152836044860152606485015282608485015260a48401528160c48401525af180156133d8576133c3575b806132e3565b6133ce858092611b38565b6103ae57836133bd565b6040513d87823e3d90fd5b602488634e487b7160e01b81526011600452fd5b9093506020813d602011613423575b8161341360209383611b38565b810103126100155751923861333a565b3d9150613406565b6040513d8a823e3d90fd5b50608081015115156132de565b8161344d91611b38565b6105ff5786386131bc565b506002865161346681611de9565b61346f81611de9565b148015612eb957508051831015612eb9565b506001865161348f81611de9565b61349881611de9565b148015612eb257508051831115612eb2565b905060c08901511438612eaa565b90506020813d6020116134eb575b816134d360209383611b38565b810103126103aa575180151581036103aa573861295f565b3d91506134c6565b50505050906001600160a01b03612bb892511690613f2d565b929060408196959396019384511580613c11575b8015613c03575b8015613bba575b613b2457809487928151151580613ab9575b1561398957606001918251801592831561397e575b5050811561394b575b8115613915575b501561390c5750506001925b856001600160a01b03835116916080840161359a868251956020880196875191612e5b83611de9565b61012085018051971561372457506001600160a01b0385511690519160a08601519451906135c782611de9565b303b156103aa576135ef918891604051978896879663cd3fd61760e01b88526004880161280b565b038183305af1908161370f575b509394612bb89461370857600190613612612748565b6308c379a01461368b575b50613629575b50613ec3565b6136827f4c94adf18d8bfad12d476c7b93150b992bfa3fb9a83d713dd8a97359b7413f82916136616001600160a01b03612fad6127db565b60405191829160018352856020840152606060408401526060830190611e16565b0390a138613623565b613693612766565b90816136a0575b5061361d565b7f356c1ed0403936d05af0abea05fbda16720ce964f55d7010cee1ba6cd8e1f60a9192506136fe90926136dd6001600160a01b0386511687613f2d565b60405191829160018352876020840152606060408401526060830190611e16565b0390a1388061369a565b5050613ec3565b61371a878092611b38565b610ebd57386135fc565b919093966137379060011c809351611e3b565b966001600160a01b0360035416916001600160a01b03875116955191519561375e87611de9565b60a08801519661016089015195853b15610543576137a49688946040519a8b998a98899763bfffc8bb60e01b895260048901526101806024890152610184880190611e16565b946137ae81611de9565b604487015260026064870152608486015260a48501528460c48501528460e4850152846101048501526101248401528361014484015261016483015203925af190816138f7575b509394612bb8946137085760019061380b612748565b6308c379a01461387a575b506138215750613ec3565b6136827f4c94adf18d8bfad12d476c7b93150b992bfa3fb9a83d713dd8a97359b7413f82916138596001600160a01b03612fad6127db565b60405191829160028352856020840152606060408401526060830190611e16565b613882612766565b908161388f575b50613816565b7f356c1ed0403936d05af0abea05fbda16720ce964f55d7010cee1ba6cd8e1f60a9192506138ed90926138cc6001600160a01b0386511687613f2d565b60405191829160028352876020840152606060408401526060830190611e16565b0390a13880613889565b613902878092611b38565b610ebd57386137f5565b90935051613571565b90506002602085015161392781611de9565b61393081611de9565b14908161393f575b5038613565565b90508151101538613938565b90506001602085015161395d81611de9565b61396681611de9565b1480613973575b9061355e565b50808251111561396d565b511491503880613555565b905060808101908151151580613a4e575b15613a435760a0019182518015928315613a38575b50508115613a05575b81156139cf575b501561390c575050600192613571565b9050600260208501516139e181611de9565b6139ea81611de9565b1490816139f9575b50386139bf565b905081511015386139f2565b905060016020850151613a1781611de9565b613a2081611de9565b1480613a2d575b906139b8565b508082511115613a27565b5114915038806139af565b505050505050509050565b506020850160018151613a6081611de9565b613a6981611de9565b149081613aad575b8115613a7e575b5061399a565b6002915051613a8c81611de9565b613a9581611de9565b1480613aa2575b38613a78565b508151831015613a9c565b83518511159150613a71565b506020850160018151613acb81611de9565b613ad481611de9565b149081613b18575b8115613ae9575b50613540565b6002915051613af781611de9565b613b0081611de9565b1480613b0d575b38613ae3565b508151831115613b07565b83518510159150613adc565b5050819250613b52610120926001600160a01b038397969751166080840151602085015191612e5b83611de9565b01516001600160a01b036003541690813b156103ae576040517fac89c798000000000000000000000000000000000000000000000000000000008152600481019390935260648385809482946007602485015260448401525af180156105385761214b575050565b506040830160018151613bcc81611e95565b613bd581611e95565b14159081613be4575b5061352e565b6002915051613bf281611e95565b613bfb81611e95565b141538613bde565b506101608301514211613527565b50608082015115613520565b5060026060850151613c2e81611de9565b613c3781611de9565b146128f8565b90915060c0813d60c011613cd1575b81613c5960c09383611b38565b81010312610881576040519060c0820182811067ffffffffffffffff821117613cbd579060a0916040528051835260208101516020840152604081015160408401526060810151606084015260808101516080840152015160a082015290386128ec565b602485634e487b7160e01b81526041600452fd5b3d9150613c4c565b602492919450613cf460c0913d8087833e6110d38183611b38565b949192506128a5565b6020613d4a916001600160a01b036002541660405180809581947f05ca57cf0000000000000000000000000000000000000000000000000000000083528660048401526024830190611e16565b03915afa90811561258c57600091613d60575090565b6020813d602011613d97575b81613d7960209383611b38565b8101031261087d5751906001600160a01b03821682036103b0575090565b3d9150613d6c565b9291926001600160a01b036000541693600060206001600160a01b03600354166004604051809481937fb99ac9270000000000000000000000000000000000000000000000000000000083525af190811561258c57600091613e91575b50613e14604051946101608652610160860190611e16565b9560208501526040840152613e2881611de9565b60608301526001600160a01b0382917f3174923aee4fc7c29de893ec1a82807b9f70eea78b57219cce0e76a78350dd479460066080850152600060a0850152600060c0850152600060e085015260006101008501526101208401524261014084015216930390a2565b90506020813d602011613ebb575b81613eac60209383611b38565b81010312610015575138613dfc565b3d9150613e9f565b600354916001600160a01b036000931690813b156103ae576040517fac89c798000000000000000000000000000000000000000000000000000000008152600481019390935260648385809482946003602485015260448401525af180156105385761214b575050565b906000916001600160a01b0360045416803b156103ae579160648492836001600160a01b039560405196879586947fc2b3356400000000000000000000000000000000000000000000000000000000865260048601521660248401528160448401525af180156105385761214b575050565b60ff7ff0c57e16840df040f15088dc2f81fe391c3923bec73e23a9662efc9c229c6a005460401c1615613fce57565b7fd7e6bcf80000000000000000000000000000000000000000000000000000000060005260046000fdfea264697066735822122037162be6b4ea93f728fe934afac80b1eaab694264611b13cca66fb1e8e1370a964736f6c634300081c0033",
  "linkReferences": {},
  "deployedLinkReferences": {}
}