{
  "_format": "hh-sol-artifact-1",
  "contractName": "TradeStation",
  "sourceName": "contracts/TradeStation.sol",
  "abi": [
    {
      "inputs": [],
      "name": "InvalidInitialization",
      "type": "error"
    },
    {
      "inputs": [],
      "name": "NotInitializing",
      "type": "error"
    },
    {
      "inputs": [
        {
          "internalType": "address",
          "name": "owner",
          "type": "address"
        }
      ],
      "name": "OwnableInvalidOwner",
      "type": "error"
    },
    {
      "inputs": [
        {
          "internalType": "address",
          "name": "account",
          "type": "address"
        }
      ],
      "name": "OwnableUnauthorizedAccount",
      "type": "error"
    },
    {
      "anonymous": false,
      "inputs": [
        {
          "indexed": false,
          "internalType": "address",
          "name": "taker",
          "type": "address"
        },
        {
          "indexed": false,
          "internalType": "uint256",
          "name": "amount",
          "type": "uint256"
        },
        {
          "indexed": false,
          "internalType": "uint256",
          "name": "availableAmount",
          "type": "uint256"
        },
        {
          "indexed": false,
          "internalType": "uint256",
          "name": "marginAmount",
          "type": "uint256"
        },
        {
          "indexed": false,
          "internalType": "uint256",
          "name": "locked",
          "type": "uint256"
        },
        {
          "indexed": false,
          "internalType": "uint256",
          "name": "stage",
          "type": "uint256"
        },
        {
          "indexed": false,
          "internalType": "uint256",
          "name": "dif",
          "type": "uint256"
        }
      ],
      "name": "BalanceOfTaker",
      "type": "event"
    },
    {
      "anonymous": false,
      "inputs": [
        {
          "indexed": false,
          "internalType": "string",
          "name": "name",
          "type": "string"
        },
        {
          "indexed": true,
          "internalType": "address",
          "name": "taker",
          "type": "address"
        },
        {
          "indexed": true,
          "internalType": "address",
          "name": "token",
          "type": "address"
        },
        {
          "indexed": false,
          "internalType": "uint256",
          "name": "orderID",
          "type": "uint256"
        },
        {
          "indexed": false,
          "internalType": "enum ICommon.Direct",
          "name": "orderType",
          "type": "uint8"
        },
        {
          "indexed": false,
          "internalType": "enum IPerpetual.OrderState",
          "name": "state",
          "type": "uint8"
        },
        {
          "indexed": false,
          "internalType": "enum ICommon.Offset",
          "name": "offset",
          "type": "uint8"
        },
        {
          "indexed": false,
          "internalType": "uint256",
          "name": "amount",
          "type": "uint256"
        },
        {
          "indexed": false,
          "internalType": "uint256",
          "name": "targetPrice",
          "type": "uint256"
        },
        {
          "indexed": false,
          "internalType": "uint256",
          "name": "margin",
          "type": "uint256"
        },
        {
          "indexed": false,
          "internalType": "uint256",
          "name": "rewardGas",
          "type": "uint256"
        },
        {
          "indexed": false,
          "internalType": "uint256",
          "name": "tradingFee",
          "type": "uint256"
        },
        {
          "indexed": false,
          "internalType": "uint256",
          "name": "startTime",
          "type": "uint256"
        },
        {
          "indexed": false,
          "internalType": "uint256",
          "name": "goodTill",
          "type": "uint256"
        }
      ],
      "name": "CreateLimitedOrder",
      "type": "event"
    },
    {
      "anonymous": false,
      "inputs": [
        {
          "indexed": false,
          "internalType": "uint256",
          "name": "limitOrderID",
          "type": "uint256"
        },
        {
          "indexed": false,
          "internalType": "uint256",
          "name": "openLimitPrice",
          "type": "uint256"
        },
        {
          "indexed": false,
          "internalType": "uint256",
          "name": "gainTriggerPrice",
          "type": "uint256"
        },
        {
          "indexed": false,
          "internalType": "uint256",
          "name": "gainLimitPrice",
          "type": "uint256"
        },
        {
          "indexed": false,
          "internalType": "uint256",
          "name": "lossTriggerPrice",
          "type": "uint256"
        },
        {
          "indexed": false,
          "internalType": "uint256",
          "name": "lossLimitPrice",
          "type": "uint256"
        }
      ],
      "name": "CreateTriggerCondition",
      "type": "event"
    },
    {
      "anonymous": false,
      "inputs": [
        {
          "indexed": false,
          "internalType": "uint256",
          "name": "code",
          "type": "uint256"
        },
        {
          "indexed": false,
          "internalType": "uint256",
          "name": "orderID",
          "type": "uint256"
        },
        {
          "indexed": false,
          "internalType": "string",
          "name": "message",
          "type": "string"
        }
      ],
      "name": "ErrorInfo",
      "type": "event"
    },
    {
      "anonymous": false,
      "inputs": [
        {
          "indexed": false,
          "internalType": "uint256",
          "name": "code",
          "type": "uint256"
        },
        {
          "indexed": false,
          "internalType": "uint256",
          "name": "orderID",
          "type": "uint256"
        },
        {
          "indexed": false,
          "internalType": "bytes",
          "name": "message",
          "type": "bytes"
        }
      ],
      "name": "ExceptErrorInfo",
      "type": "event"
    },
    {
      "anonymous": false,
      "inputs": [
        {
          "indexed": false,
          "internalType": "uint64",
          "name": "version",
          "type": "uint64"
        }
      ],
      "name": "Initialized",
      "type": "event"
    },
    {
      "anonymous": false,
      "inputs": [
        {
          "indexed": false,
          "internalType": "string",
          "name": "name",
          "type": "string"
        },
        {
          "indexed": true,
          "internalType": "address",
          "name": "taker",
          "type": "address"
        },
        {
          "indexed": true,
          "internalType": "address",
          "name": "token",
          "type": "address"
        },
        {
          "indexed": false,
          "internalType": "uint256",
          "name": "orderID",
          "type": "uint256"
        },
        {
          "indexed": false,
          "internalType": "enum ICommon.Direct",
          "name": "orderType",
          "type": "uint8"
        },
        {
          "indexed": false,
          "internalType": "enum IPerpetual.OrderState",
          "name": "state",
          "type": "uint8"
        },
        {
          "indexed": false,
          "internalType": "enum ICommon.Offset",
          "name": "offset",
          "type": "uint8"
        },
        {
          "indexed": false,
          "internalType": "uint256",
          "name": "amount",
          "type": "uint256"
        },
        {
          "indexed": false,
          "internalType": "uint256",
          "name": "targetPrice",
          "type": "uint256"
        },
        {
          "indexed": false,
          "internalType": "uint256",
          "name": "margin",
          "type": "uint256"
        },
        {
          "indexed": false,
          "internalType": "uint256",
          "name": "rewardGas",
          "type": "uint256"
        },
        {
          "indexed": false,
          "internalType": "uint256",
          "name": "tradingFee",
          "type": "uint256"
        },
        {
          "indexed": false,
          "internalType": "uint256",
          "name": "startTime",
          "type": "uint256"
        },
        {
          "indexed": false,
          "internalType": "uint256",
          "name": "goodTill",
          "type": "uint256"
        }
      ],
      "name": "LimitedOrderHistory",
      "type": "event"
    },
    {
      "anonymous": false,
      "inputs": [
        {
          "indexed": true,
          "internalType": "address",
          "name": "taker",
          "type": "address"
        },
        {
          "indexed": false,
          "internalType": "string",
          "name": "name",
          "type": "string"
        },
        {
          "indexed": false,
          "internalType": "address",
          "name": "token",
          "type": "address"
        },
        {
          "indexed": false,
          "internalType": "uint256",
          "name": "orderID",
          "type": "uint256"
        },
        {
          "indexed": false,
          "internalType": "enum ICommon.Direct",
          "name": "direction",
          "type": "uint8"
        },
        {
          "indexed": false,
          "internalType": "enum IPerpetual.OrderType",
          "name": "orderType",
          "type": "uint8"
        },
        {
          "indexed": false,
          "internalType": "uint256",
          "name": "amount",
          "type": "uint256"
        },
        {
          "indexed": false,
          "internalType": "uint256",
          "name": "costPrice",
          "type": "uint256"
        },
        {
          "indexed": false,
          "internalType": "uint256",
          "name": "price",
          "type": "uint256"
        },
        {
          "indexed": false,
          "internalType": "uint256",
          "name": "tradingFee",
          "type": "uint256"
        },
        {
          "indexed": false,
          "internalType": "uint256",
          "name": "limitOrderId",
          "type": "uint256"
        },
        {
          "indexed": false,
          "internalType": "uint256",
          "name": "timestamp",
          "type": "uint256"
        }
      ],
      "name": "OrderHistory",
      "type": "event"
    },
    {
      "anonymous": false,
      "inputs": [
        {
          "indexed": true,
          "internalType": "address",
          "name": "previousOwner",
          "type": "address"
        },
        {
          "indexed": true,
          "internalType": "address",
          "name": "newOwner",
          "type": "address"
        }
      ],
      "name": "OwnershipTransferred",
      "type": "event"
    },
    {
      "anonymous": false,
      "inputs": [
        {
          "indexed": false,
          "internalType": "address",
          "name": "token",
          "type": "address"
        },
        {
          "indexed": false,
          "internalType": "uint256",
          "name": "orderID",
          "type": "uint256"
        },
        {
          "indexed": false,
          "internalType": "uint256",
          "name": "dealID",
          "type": "uint256"
        },
        {
          "indexed": false,
          "internalType": "enum IPerpetual.TradeType",
          "name": "tradeType",
          "type": "uint8"
        },
        {
          "indexed": false,
          "internalType": "uint256",
          "name": "amount",
          "type": "uint256"
        },
        {
          "indexed": false,
          "internalType": "uint256",
          "name": "price",
          "type": "uint256"
        },
        {
          "indexed": false,
          "internalType": "uint256",
          "name": "tradingFee",
          "type": "uint256"
        },
        {
          "indexed": false,
          "internalType": "uint256",
          "name": "profit",
          "type": "uint256"
        },
        {
          "indexed": false,
          "internalType": "uint256",
          "name": "loss",
          "type": "uint256"
        },
        {
          "indexed": false,
          "internalType": "uint256",
          "name": "timestamp",
          "type": "uint256"
        }
      ],
      "name": "TradeHistory",
      "type": "event"
    },
    {
      "anonymous": false,
      "inputs": [
        {
          "indexed": true,
          "internalType": "address",
          "name": "token",
          "type": "address"
        },
        {
          "indexed": true,
          "internalType": "address",
          "name": "sender",
          "type": "address"
        },
        {
          "indexed": true,
          "internalType": "address",
          "name": "received",
          "type": "address"
        },
        {
          "indexed": false,
          "internalType": "enum ICommon.TransactionType",
          "name": "transactionType",
          "type": "uint8"
        },
        {
          "indexed": false,
          "internalType": "uint256",
          "name": "amount",
          "type": "uint256"
        },
        {
          "indexed": false,
          "internalType": "uint256",
          "name": "timestamp",
          "type": "uint256"
        }
      ],
      "name": "TransactionHistory",
      "type": "event"
    },
    {
      "anonymous": false,
      "inputs": [
        {
          "indexed": false,
          "internalType": "address",
          "name": "token",
          "type": "address"
        },
        {
          "indexed": false,
          "internalType": "address",
          "name": "sender",
          "type": "address"
        },
        {
          "indexed": false,
          "internalType": "address",
          "name": "received",
          "type": "address"
        },
        {
          "indexed": false,
          "internalType": "enum ICommon.TransactionType",
          "name": "transactionType",
          "type": "uint8"
        },
        {
          "indexed": false,
          "internalType": "uint256",
          "name": "amount",
          "type": "uint256"
        },
        {
          "indexed": false,
          "internalType": "uint256",
          "name": "timestamp",
          "type": "uint256"
        }
      ],
      "name": "TransferFee",
      "type": "event"
    },
    {
      "anonymous": false,
      "inputs": [
        {
          "indexed": false,
          "internalType": "address",
          "name": "sender",
          "type": "address"
        },
        {
          "indexed": false,
          "internalType": "uint256",
          "name": "beforeLeverage",
          "type": "uint256"
        },
        {
          "indexed": false,
          "internalType": "uint256",
          "name": "afterLeverage",
          "type": "uint256"
        }
      ],
      "name": "setLeverage",
      "type": "event"
    },
    {
      "stateMutability": "nonpayable",
      "type": "fallback"
    },
    {
      "inputs": [
        {
          "internalType": "address",
          "name": "_taker",
          "type": "address"
        },
        {
          "internalType": "uint256",
          "name": "_deposit",
          "type": "uint256"
        },
        {
          "internalType": "string[]",
          "name": "_pairs",
          "type": "string[]"
        },
        {
          "internalType": "uint256[]",
          "name": "_prices",
          "type": "uint256[]"
        }
      ],
      "name": "clearingTaker",
      "outputs": [
        {
          "internalType": "uint256",
          "name": "remainingDeposit",
          "type": "uint256"
        }
      ],
      "stateMutability": "nonpayable",
      "type": "function"
    },
    {
      "inputs": [
        {
          "internalType": "address",
          "name": "_taker",
          "type": "address"
        },
        {
          "internalType": "string",
          "name": "_name",
          "type": "string"
        },
        {
          "internalType": "uint256",
          "name": "_amount",
          "type": "uint256"
        },
        {
          "internalType": "uint256",
          "name": "_price",
          "type": "uint256"
        },
        {
          "internalType": "enum ICommon.Direct",
          "name": "_type",
          "type": "uint8"
        },
        {
          "internalType": "uint256",
          "name": "_limitID",
          "type": "uint256"
        }
      ],
      "name": "closeOrder",
      "outputs": [],
      "stateMutability": "nonpayable",
      "type": "function"
    },
    {
      "inputs": [
        {
          "internalType": "string",
          "name": "_name",
          "type": "string"
        },
        {
          "internalType": "uint256",
          "name": "_amount",
          "type": "uint256"
        },
        {
          "internalType": "uint256",
          "name": "_orderType",
          "type": "uint256"
        },
        {
          "internalType": "uint256",
          "name": "_price",
          "type": "uint256"
        },
        {
          "internalType": "enum ICommon.Direct",
          "name": "_type",
          "type": "uint8"
        },
        {
          "internalType": "uint256",
          "name": "_goodTill",
          "type": "uint256"
        },
        {
          "internalType": "address",
          "name": "_taker",
          "type": "address"
        },
        {
          "internalType": "uint256",
          "name": "_rewardGas",
          "type": "uint256"
        }
      ],
      "name": "closePosition",
      "outputs": [],
      "stateMutability": "payable",
      "type": "function"
    },
    {
      "inputs": [
        {
          "internalType": "address",
          "name": "initialOwner",
          "type": "address"
        },
        {
          "internalType": "address",
          "name": "_priPool",
          "type": "address"
        },
        {
          "internalType": "address",
          "name": "_perpetual",
          "type": "address"
        },
        {
          "internalType": "address",
          "name": "_settle",
          "type": "address"
        }
      ],
      "name": "initialize",
      "outputs": [],
      "stateMutability": "nonpayable",
      "type": "function"
    },
    {
      "inputs": [
        {
          "internalType": "address",
          "name": "_taker",
          "type": "address"
        },
        {
          "internalType": "string",
          "name": "_name",
          "type": "string"
        },
        {
          "internalType": "uint256",
          "name": "_amount",
          "type": "uint256"
        },
        {
          "internalType": "uint256",
          "name": "_price",
          "type": "uint256"
        },
        {
          "internalType": "enum ICommon.Direct",
          "name": "_type",
          "type": "uint8"
        },
        {
          "internalType": "uint256",
          "name": "_goodTill",
          "type": "uint256"
        },
        {
          "internalType": "uint256",
          "name": "_rewardsGas",
          "type": "uint256"
        }
      ],
      "name": "makeOpenLimitOrder",
      "outputs": [],
      "stateMutability": "nonpayable",
      "type": "function"
    },
    {
      "inputs": [
        {
          "internalType": "address",
          "name": "_taker",
          "type": "address"
        },
        {
          "internalType": "string",
          "name": "_name",
          "type": "string"
        },
        {
          "internalType": "uint256",
          "name": "_amount",
          "type": "uint256"
        },
        {
          "internalType": "uint256",
          "name": "_price",
          "type": "uint256"
        },
        {
          "internalType": "enum ICommon.Direct",
          "name": "_type",
          "type": "uint8"
        },
        {
          "internalType": "uint256",
          "name": "_limitOrderID",
          "type": "uint256"
        },
        {
          "internalType": "uint256",
          "name": "_freezeAmount",
          "type": "uint256"
        }
      ],
      "name": "openOrder",
      "outputs": [],
      "stateMutability": "nonpayable",
      "type": "function"
    },
    {
      "inputs": [],
      "name": "owner",
      "outputs": [
        {
          "internalType": "address",
          "name": "",
          "type": "address"
        }
      ],
      "stateMutability": "view",
      "type": "function"
    },
    {
      "inputs": [],
      "name": "renounceOwnership",
      "outputs": [],
      "stateMutability": "nonpayable",
      "type": "function"
    },
    {
      "inputs": [
        {
          "internalType": "address",
          "name": "_orderBook",
          "type": "address"
        },
        {
          "internalType": "address",
          "name": "_agent",
          "type": "address"
        }
      ],
      "name": "setKeepers",
      "outputs": [],
      "stateMutability": "nonpayable",
      "type": "function"
    },
    {
      "inputs": [
        {
          "internalType": "string",
          "name": "_name",
          "type": "string"
        },
        {
          "internalType": "uint256",
          "name": "_amount",
          "type": "uint256"
        },
        {
          "internalType": "enum ICommon.Direct",
          "name": "_type",
          "type": "uint8"
        },
        {
          "internalType": "enum ICommon.Offset",
          "name": "_offset",
          "type": "uint8"
        },
        {
          "internalType": "uint256",
          "name": "_param1",
          "type": "uint256"
        },
        {
          "internalType": "uint256",
          "name": "_param2",
          "type": "uint256"
        },
        {
          "internalType": "uint256",
          "name": "_param3",
          "type": "uint256"
        },
        {
          "internalType": "uint256",
          "name": "_param4",
          "type": "uint256"
        },
        {
          "internalType": "uint256",
          "name": "_goodTill",
          "type": "uint256"
        },
        {
          "internalType": "address",
          "name": "_taker",
          "type": "address"
        }
      ],
      "name": "stopTakeOrder",
      "outputs": [],
      "stateMutability": "payable",
      "type": "function"
    },
    {
      "inputs": [
        {
          "internalType": "string",
          "name": "_name",
          "type": "string"
        },
        {
          "internalType": "uint256",
          "name": "_amount",
          "type": "uint256"
        },
        {
          "internalType": "uint256",
          "name": "_price",
          "type": "uint256"
        },
        {
          "internalType": "uint256",
          "name": "_orderType",
          "type": "uint256"
        },
        {
          "internalType": "enum ICommon.Direct",
          "name": "_type",
          "type": "uint8"
        },
        {
          "internalType": "uint256",
          "name": "_goodTill",
          "type": "uint256"
        },
        {
          "internalType": "address",
          "name": "_taker",
          "type": "address"
        },
        {
          "internalType": "uint256",
          "name": "_rewardGas",
          "type": "uint256"
        }
      ],
      "name": "tradeFutures",
      "outputs": [],
      "stateMutability": "payable",
      "type": "function"
    },
    {
      "inputs": [
        {
          "internalType": "address",
          "name": "newOwner",
          "type": "address"
        }
      ],
      "name": "transferOwnership",
      "outputs": [],
      "stateMutability": "nonpayable",
      "type": "function"
    },
    {
      "inputs": [
        {
          "internalType": "uint256[]",
          "name": "_orderID",
          "type": "uint256[]"
        },
        {
          "internalType": "string[]",
          "name": "_symbols",
          "type": "string[]"
        },
        {
          "internalType": "uint256[]",
          "name": "_prices",
          "type": "uint256[]"
        }
      ],
      "name": "triggerOrders",
      "outputs": [],
      "stateMutability": "nonpayable",
      "type": "function"
    }
  ],
  "bytecode": "0x60808060405234601557613f2d908161001b8239f35b600080fdfe6080604052600436101561001a575b3461001557005b600080fd5b6000803560e01c8063274889e1146116595780632b000206146115b6578063715018a6146115105780637295751b146113435780638da5cb5b146112fd578063bcef60d7146110cb578063c3eea55914611034578063cd3fd61714610dad578063dcac2e8814610875578063eff6d7c31461065e578063f2fde38b1461063e578063f8c8765e146103405763fffbe519146100b5575061000e565b34610294576100ee6100c636611d62565b929690959491939633895260056020526100e660ff60408b205416611dc2565b8783876139c1565b926001956100fb86613b8f565b936000198203610313575b50602084019788519760608701988951116102cf578a9961013f87519a61013360408b019c8d5190611e5f565b89528251905190611e5f565b9052610164604087019687519761015c60208b01998a5190611ffb565b905289613c73565b6001600160a01b03600354169387519360a08b519851990151863b156102cb576101dd998d996001600160a01b03978b978e976040519e8f9d8e9c8d9b7f530e011e000000000000000000000000000000000000000000000000000000008d521660048c015261014060248c01526101448b0190611e3a565b976101e781611e0d565b60448a01526101f5816120e8565b6064890152608488015260a487015260c486015260e485015261010484015261012483015203925af19081156102c05784916102a7575b50506001600160a01b03600254169151823b156102a25760405163d1937e3d60e01b81526001600160a01b03909216600483015260248201529082908290818381604481015b03925af18015610297576102835750f35b8161028d91611b58565b6102945780f35b80fd5b6040513d84823e3d90fd5b505050fd5b816102b191611b58565b6102bc57823861022c565b5050fd5b6040513d86823e3d90fd5b8c80fd5b606460405162461bcd60e51b815260206004820152601160248201527f6f70656e20696e73756666696369656e740000000000000000000000000000006044820152fd5b965060029660208501610327828251611ffb565b905261033860608601918251611e5f565b905238610106565b50346102945760806003193601126102945761035a611bde565b610362611bf4565b6044356001600160a01b03811680910361063a57606435916001600160a01b038316809303610636577ff0c57e16840df040f15088dc2f81fe391c3923bec73e23a9662efc9c229c6a00549360ff8560401c16159467ffffffffffffffff81168015908161062e575b6001149081610624575b15908161061b575b506105f3576001600160a01b039291818760017fffffffffffffffffffffffffffffffffffffffffffffffff00000000000000006104659516177ff0c57e16840df040f15088dc2f81fe391c3923bec73e23a9662efc9c229c6a005561059e575b50610447613e9e565b61044f613e9e565b6104583361201c565b6104606123c4565b61201c565b168073ffffffffffffffffffffffffffffffffffffffff1960015416176001558452600560205260408420600160ff198254161790558073ffffffffffffffffffffffffffffffffffffffff1960025416176002558352600560205260408320600160ff19825416179055308352600560205260408320600160ff1982541617905573ffffffffffffffffffffffffffffffffffffffff1983541617825561050a5780f35b7fffffffffffffffffffffffffffffffffffffffffffffff00ffffffffffffffff7ff0c57e16840df040f15088dc2f81fe391c3923bec73e23a9662efc9c229c6a0054167ff0c57e16840df040f15088dc2f81fe391c3923bec73e23a9662efc9c229c6a00557fc7f505b2f371ae2175ee4913f4499e1f2633a7b5936321eed1cdaeb6115181d2602060405160018152a180f35b7fffffffffffffffffffffffffffffffffffffffffffffff0000000000000000001668010000000000000001177ff0c57e16840df040f15088dc2f81fe391c3923bec73e23a9662efc9c229c6a00553861043e565b6004877ff92ee8a9000000000000000000000000000000000000000000000000000000008152fd5b905015386103dd565b303b1591506103d5565b8791506103cb565b8480fd5b8380fd5b50346102945760206003193601126102945761065b610458611bde565b80f35b50610140600319360112610294578060043567ffffffffffffffff81116108725761068d903690600401611b97565b6044359060038210156102bc576064359160038310156102a2576084359060c43592610124356001600160a01b03811680910361086e5733875260056020526106dc60ff604089205416611dc2565b6106e586611e0d565b6001861461081b575b6106f786611e0d565b600286146107b6575b6001600160a01b036003541692833b156107b2578795610746956040519889978896879663bfffc8bb60e01b885260048801526101806024880152610184870190611e3a565b9361075081611e0d565b604486015261075e81611e0d565b6064850152602435608485015260a484015260a43560c484015260e483015260e43561010483015261010435610124830152600161014483015285610164830152039134905af18015610297576102835750f35b8780fd5b95508215801590610812575b156107ce578695610700565b606460405162461bcd60e51b815260206004820152601b60248201527f636c6f73652074726967676572207072696365206973207a65726f00000000006044820152fd5b508315156107c2565b9550821561082a5786956106ee565b606460405162461bcd60e51b815260206004820152601a60248201527f6f70656e2074726967676572207072696365206973207a65726f0000000000006044820152fd5b8680fd5b50fd5b5061087f36611c0a565b9190969395949295338952600560205261089f60ff60408b205416611dc2565b6108a987866120f2565b6001600160a01b036108ba86613d08565b16896001600160a01b03600254166024604051809481937fa666200f00000000000000000000000000000000000000000000000000000000835260048301525afa8015610da2578a90610c48575b610140915001518610610c045761091e8861217c565b610b2a57505061094890338752600560205261094060ff604089205416611dc2565b8383876139c1565b9161095285613b8f565b92602084019384519460608301958651116102cf5761098982519661097d6040860198895190611e5f565b84528251905190611e5f565b90526109ae60408201918251926109a66020860194855190611ffb565b905288613c73565b6001600160a01b036003541690825160a08751925194015194833b15610b2657610a1a604051977f530e011e0000000000000000000000000000000000000000000000000000000089526001600160a01b038c1660048a015261014060248a0152610144890190611e3a565b98610a2481611e0d565b60448801528a988996889687958995879560016064880152608487015260a486015260c485015260e484015261010483015260001961012483015203925af1908115610b05578391610af0575b50506001600160a01b0360025416905190803b15610aec5760405163d1937e3d60e01b81526001600160a01b0385166004820152602481019290925282908290818381604481015b03925af1801561029757610ad3575b505061065b906121e7565b81610add91611b58565b610ae8578138610ac8565b5080fd5b8280fd5b81610afa91611b58565b610ae8578138610a71565b6040513d85823e3d90fd5b634e487b7160e01b600052602160045260246000fd5b8a80fd5b91959493959290923388526005602052610b4a60ff60408a205416611dc2565b610b56818884896139c1565b90610b6087613b8f565b9760208901968751976060850198895111610bc05761065b9a610bbb9982610b8e610baa9451835190611e5f565b9052610ba260608301918251905190611ffb565b90528a613c73565b602060408501519401519489612254565b6121e7565b606460405162461bcd60e51b815260206004820152601760248201527f6f70656e206c696d697420696e73756666696369656e740000000000000000006044820152fd5b606460405162461bcd60e51b815260206004820152601560248201527f6f70656e20616d6f756e7420746f6f20736d616c6c00000000000000000000006044820152fd5b503d808b833e610c588183611b58565b810190602081830312610b265780519067ffffffffffffffff8211610d9e5701906101e082820312610b2657604051906101e0820182811067ffffffffffffffff821117610d8a5760405282519267ffffffffffffffff84116102cb57610cc76101c092610140958301611eac565b835260208101516020840152610cdf60408201612008565b6040840152610cf060608201612008565b6060840152610d0160808201612008565b6080840152610d1260a08201612008565b60a0840152610d2360c08201612008565b60c0840152610d3460e08201612008565b60e084015261010081015161010084015261012081015161012084015283810151848401526101608101516101608401526101808101516101808401526101a08101516101a084015201516101c0820152610908565b60248d634e487b7160e01b81526041600452fd5b8b80fd5b6040513d8c823e3d90fd5b50346102945760c060031936011261029457610dc7611bde565b60243567ffffffffffffffff8111610aec57610de7903690600401611b97565b9060843591600383101561063a57610e546080913386526005602052610e1360ff604088205416611dc2565b6001600160a01b0360045416908660405180978195829463cd3fd61760e01b84526001600160a01b038a16600485015260c0602485015260c4840190611e3a565b9060443560448401526064356064840152610e6e81611e0d565b608483015260a43560a483015203925af1918215610b05578392610fd3575b50610e9781613b8f565b906020820191610eaa8351855190611ffb565b90610ef8610ebe6040870193845190611ffb565b9287606088015196610ed660208a0198895190611ffb565b958690818110610fcb57610eeb929350611e5f565b90525b8251905190611ffb565b91808310610f87578695610f108792610f2d95611e5f565b835260408301805191519091818111610f75575050525b82613c73565b6001600160a01b03600254169151823b156102a25760405163d1937e3d60e01b81526001600160a01b0390921660048301526024820152908290829081838160448101610272565b610f80929350611e5f565b9052610f27565b606460405162461bcd60e51b815260206004820152601260248201527f73686f756c64206265206465746f6e61746500000000000000000000000000006044820152fd5b505052610eee565b9091506080813d60801161102c575b81610fef60809383611b58565b81010312610aec5760606040519161100683611aee565b805183526020810151602084015260408101516040840152015160608201529038610e8d565b3d9150610fe2565b50346102945761104336611d62565b9495929093338852600560205261106060ff60408a205416611dc2565b61106c828289876139c1565b9261107685613b8f565b9760208901805199606087019a8b5111610bc05761065b9a8261109f6110bb9451835190611e5f565b90526110b360608301918251905190611ffb565b905287613c73565b6020604086015195015195612254565b50346102945760606003193601126102945760043567ffffffffffffffff8111610ae8576110fd903690600401611d05565b9060243567ffffffffffffffff8111610ae85761111e903690600401611c86565b60443567ffffffffffffffff8111610aec578261114085923690600401611d05565b90338152600560205261115960ff604083205416611dc2565b80915b83518310156112f9576024906111728486611e82565b5192806001600160a01b0360035416604051948580927f0c3fc6b90000000000000000000000000000000000000000000000000000000082528860048301525afa9283156112ec5781936112c8575b5060808301906111e082516020860151906111db82611e0d565b6120f2565b6111f36001600160a01b0385511661217c565b8096815b89518110156112b85761120a818b611e82565b51604051611239602082816112288183019687815193849201611e17565b81010301601f198101835282611b58565b519020845160405161125b602082816112288183019687815193849201611e17565b5190201461126b576001016111f7565b60019592985084611281929a9895979450611e82565b51905b81156112b05761129f6001600160a01b03926112a69461257b565b51166121e7565b019193929061115c565b5050506112a6565b5097959294915095600193611284565b6112e59193503d8085833e6112dd8183611b58565b810190611ef1565b91876111c1565b50604051903d90823e3d90fd5b5080f35b503461029457806003193601126102945760206001600160a01b037f9016d09d72d40fdae2fd8ceac6b6234c7706214fd39c1cd1e609a0528c1993005416604051908152f35b50346102945760806003193601126102945761135d611bde565b9060443567ffffffffffffffff8111610ae85761137e903690600401611c86565b9160643567ffffffffffffffff8111610aec5761139f903690600401611d05565b9233835260056020526113b860ff604085205416611dc2565b602435916001600160a01b038491165b82518210156115055784935b60ff851660028110156114f8576001600160a01b03600354169060016113fa8688611e82565b51910160ff81116114e4579161146b898b936114258960ff602098169661142088611e0d565b611e82565b5194604051978896879586947f9324b5490000000000000000000000000000000000000000000000000000000086528c600487015260a0602487015260a4860190611e3a565b9261147581611e0d565b60448501526064840152608483015203925af19081156114d95786916114a5575b50600160ff91950116936113d4565b905060203d81116114d2575b6114bb8183611b58565b602082600092810103126102945750516001611496565b503d6114b1565b6040513d88823e3d90fd5b602489634e487b7160e01b81526011600452fd5b50935090600101906113c8565b602084604051908152f35b50346102945780600319360112610294576115296123c4565b806001600160a01b037f9016d09d72d40fdae2fd8ceac6b6234c7706214fd39c1cd1e609a0528c1993005473ffffffffffffffffffffffffffffffffffffffff1981167f9016d09d72d40fdae2fd8ceac6b6234c7706214fd39c1cd1e609a0528c19930055167f8be0079c531659141344cd1fd0a4f28419497f9722a3daafe3b4186f6b6457e08280a380f35b5034610294576040600319360112610294576001600160a01b036115d8611bde565b816115e1611bf4565b916115ea6123c4565b16808452600560205260408420600160ff19825416179055808452600560205260408420600160ff1982541617905573ffffffffffffffffffffffffffffffffffffffff1960035416176003551673ffffffffffffffffffffffffffffffffffffffff19600454161760045580f35b5061166336611c0a565b909695929491338952600560205261168160ff60408b205416611dc2565b61168b86886120f2565b604051610100810181811067ffffffffffffffff821117611ada5760405289815260208101908a82528a60408201526060808201528a60808201528a60a08201528a60c08201528a60e08201526001600160a01b03600354166116ed89611e0d565b60ff600019818b160111611ac65761175760808b8e936001600160a01b038f8e60ff60001981604051998a98899788977f0c8c3516000000000000000000000000000000000000000000000000000000008952166004880152606060248801526064870190611e3a565b93160116604483015203915afa9283156102975782918394611a81575b5082611787958560408401525252611e5f565b8411611a3d5788926117988961217c565b61196a5750506117ff906080949533825260056020526117be60ff604084205416611dc2565b6001600160a01b0360045416936040519788968795869463cd3fd61760e01b86526001600160a01b038d16600487015260c0602487015260c4860190611e3a565b926044850152606484015261181381611e0d565b608483015260001960a483015203925af1908115610b0557839161190b575b5061183c82613b8f565b602081019061184e8251845190611ffb565b9061187a6118626040860193845190611ffb565b9287606087015195610ed66020890197885190611ffb565b91808310610f8757869461189286926118af95611e5f565b8352604083018051915190918181116118f9575050525b84613c73565b6001600160a01b0360025416905190803b15610aec5760405163d1937e3d60e01b81526001600160a01b038516600482015260248101929092528290829081838160448101610ab9565b611904929350611e5f565b90526118a9565b90506080813d608011611962575b8161192660809383611b58565b81010312610aec5760606040519161193d83611aee565b8051835260208101516020840152604081015160408401520151606082015238611832565b3d9150611919565b91509193926001600160a01b036003541694853b15611a39576119b66040519763bfffc8bb60e01b89526001600160a01b038a1660048a015261018060248a0152610184890190611e3a565b946119c081611e0d565b604488015293889593879593869493859460026064870152608486015260a48501528760c48501528760e48501528761010485015261012484015286610144840152610164830152039134905af18015610b0557611a23575b5061065b906121e7565b91611a328161065b9394611b58565b9190611a19565b8880fd5b606460405162461bcd60e51b815260206004820152601660248201527f636c6f736520616d6f756e7420746f6f206c61726765000000000000000000006044820152fd5b9493509150506080833d608011611abe575b81611aa060809383611b58565b81010312610d9e578251602084015160609094015192939182611774565b3d9150611a93565b60248c634e487b7160e01b81526011600452fd5b60248b634e487b7160e01b81526041600452fd5b6080810190811067ffffffffffffffff821117611b0a57604052565b634e487b7160e01b600052604160045260246000fd5b60e0810190811067ffffffffffffffff821117611b0a57604052565b60a0810190811067ffffffffffffffff821117611b0a57604052565b90601f601f19910116810190811067ffffffffffffffff821117611b0a57604052565b67ffffffffffffffff8111611b0a57601f01601f191660200190565b81601f8201121561001557803590611bae82611b7b565b92611bbc6040519485611b58565b8284526020838301011161001557816000926020809301838601378301015290565b600435906001600160a01b038216820361001557565b602435906001600160a01b038216820361001557565b610100600319820112610015576004359067ffffffffffffffff821161001557611c3691600401611b97565b906024359060443590606435906084356003811015610015579060a4359060c4356001600160a01b0381168103610015579060e43590565b67ffffffffffffffff8111611b0a5760051b60200190565b9080601f83011215610015578135611c9d81611c6e565b92611cab6040519485611b58565b81845260208085019260051b820101918383116100155760208201905b838210611cd757505050505090565b813567ffffffffffffffff811161001557602091611cfa87848094880101611b97565b815201910190611cc8565b9080601f83011215610015578135611d1c81611c6e565b92611d2a6040519485611b58565b81845260208085019260051b82010192831161001557602001905b828210611d525750505090565b8135815260209182019101611d45565b9060e0600319830112610015576004356001600160a01b038116810361001557916024359067ffffffffffffffff821161001557611da291600401611b97565b9060443590606435906084356003811015610015579060a4359060c43590565b15611dc957565b606460405162461bcd60e51b815260206004820152601c60248201527f63616c6c6572206973206e6f742073746174696f6e206b6565706572000000006044820152fd5b60031115610b1057565b60005b838110611e2a5750506000910152565b8181015183820152602001611e1a565b90601f19601f602093611e5881518092818752878088019101611e17565b0116010190565b91908203918211611e6c57565b634e487b7160e01b600052601160045260246000fd5b8051821015611e965760209160051b010190565b634e487b7160e01b600052603260045260246000fd5b81601f82011215610015578051611ec281611b7b565b92611ed06040519485611b58565b8184526020828401011161001557611eee9160208085019101611e17565b90565b6020818303126100155780519067ffffffffffffffff8211610015570190610180828203126100155760405191610180830183811067ffffffffffffffff821117611b0a5760405280516001600160a01b0381168103610015578352602081015160038110156100155760208401526040810151600881101561001557604084015260608101516003811015610015576060840152608081015167ffffffffffffffff81116100155761016092611fa9918301611eac565b608084015260a081015160a084015260c081015160c084015260e081015160e0840152610100810151610100840152610120810151610120840152610140810151610140840152015161016082015290565b91908201809211611e6c57565b51906001600160a01b038216820361001557565b6001600160a01b031680156120b9576001600160a01b037f9016d09d72d40fdae2fd8ceac6b6234c7706214fd39c1cd1e609a0528c199300548273ffffffffffffffffffffffffffffffffffffffff198216177f9016d09d72d40fdae2fd8ceac6b6234c7706214fd39c1cd1e609a0528c19930055167f8be0079c531659141344cd1fd0a4f28419497f9722a3daafe3b4186f6b6457e0600080a3565b7f1e4fbdf700000000000000000000000000000000000000000000000000000000600052600060045260246000fd5b60081115610b1057565b90600454916001600160a01b036000931690813b1561063a57839161214e916040518095819482937fd0e3d0dc000000000000000000000000000000000000000000000000000000008452604060048501526044840190611e3a565b9061215881611e0d565b602483015203915afa80156102975761216f575050565b8161217991611b58565b50565b6000906001600160a01b036002541690813b15610aec576001600160a01b03604484928360405195869485937f9048f2e00000000000000000000000000000000000000000000000000000000085521660048401528160248401525af180156102975761216f575050565b600254906001600160a01b036000921690813b15610aec576001600160a01b03604484928360405195869485937f9048f2e0000000000000000000000000000000000000000000000000000000008552166004840152600a60248401525af180156102975761216f575050565b9692979395919490956000986001600160a01b036003541697883b15610b26576122a7906001600160a01b036040519b63bfffc8bb60e01b8d521660048c015261018060248c01526101848b0190611e3a565b966122b181611e0d565b60448a0152600160648a0152608489015260a488015260c487015260e4860187905261010486015261012485015261014484018590526101648401528391839182900390829034905af180156102975761216f575050565b9591939692969490946000976001600160a01b036003541696873b156123c05761235c906001600160a01b036040519a63bfffc8bb60e01b8c521660048b015261018060248b01526101848a0190611e3a565b9561236681611e0d565b604489015260026064890152608488015260a487015260c4860187905260e4860152610104850186905261012485015260016101448501526101648401528391839182900390829034905af180156102975761216f575050565b8980fd5b6001600160a01b037f9016d09d72d40fdae2fd8ceac6b6234c7706214fd39c1cd1e609a0528c199300541633036123f757565b7f118cdaa7000000000000000000000000000000000000000000000000000000006000523360045260246000fd5b60009060033d1161243257565b905060046000803e60005160e01c90565b600060443d10611eee576040516003193d016004823e8051913d602484011167ffffffffffffffff8411176124b2578282019283519167ffffffffffffffff83116124aa576003193d850101602084870101116124aa5750611eee92910160200190611b58565b949350505050565b92915050565b3d156124e3573d906124c982611b7b565b916124d76040519384611b58565b82523d6000602084013e565b606090565b9296959491612511906001600160a01b0360a0969316855260c0602086015260c0850190611e3a565b966040840152606083015261252581611e0d565b60808201520152565b939060c095926001600160a01b03612559929a9998959a16865260e0602087015260e0860190611e3a565b976040850152606084015261256d81611e0d565b608083015260a08201520152565b906003546001600160a01b036000911691604051927f0c3fc6b90000000000000000000000000000000000000000000000000000000084528460048501528284602481845afa938415610b0557839461399d575b509060c0602492604051938480927f0187703f0000000000000000000000000000000000000000000000000000000082528960048301525afa918215610b05578392613901575b506001825114806138e1575b6132745761016084018051421161325b57604460206001600160a01b0360045416604051928380927fe6b34c690000000000000000000000000000000000000000000000000000000082528b60048301528760248301525afa908115613250578591613215575b50612697575b505050505050565b6001835114612b2a575060c0840190815260608401600181516126b981611e0d565b6126c281611e0d565b0361296857506126dc60e085015161010086015190611ffb565b6001600160a01b03855116916080860190815160a0880194855192519460208a019586519061270a82611e0d565b303b15610b26578a94928d86959361275093604051998a9788977ffffbe5190000000000000000000000000000000000000000000000000000000089526004890161252e565b038183305af1918261294f575b50506128795750505050600190612772612425565b6308c379a0146127fc575b50612791575b50505b38808080808061268f565b7f4c94adf18d8bfad12d476c7b93150b992bfa3fb9a83d713dd8a97359b7413f82916127cf6001600160a01b036127c66124b8565b93511682613e2c565b6127f2604051928392600584526020840152606060408401526060830190611e3a565b0390a13880612783565b612804612443565b9081612811575b5061277d565b7f356c1ed0403936d05af0abea05fbda16720ce964f55d7010cee1ba6cd8e1f60a91925061286f909261284e6001600160a01b0386511687613e2c565b60405191829160058352876020840152606060408401526060830190611e3a565b0390a1388061280b565b610120869598979496019182519660028151146128ac575b5050505050846128aa9495505060036040830152613daa565b565b60408101805115801590612942575b6128c6575b50612891565b9091929394976128db9060011c809651611e5f565b9760806001600160a01b0389511695519451916128f783611e0d565b519251930151936312cc030042019586421161292e57916128aa9b9c97959391612922979593612309565b949338808080806128c0565b60248d634e487b7160e01b81526011600452fd5b50608082015115156128bb565b8161295991611b58565b61296457853861275d565b8580fd5b60029192505161297781611e0d565b61298081611e0d565b1461298f575b50505050612786565b6001600160a01b0383511660808401519060a085015192516020860151906129b682611e0d565b303b1561296457916129e2888795938695604051988996879663cd3fd61760e01b8852600488016124e8565b038183305af19182612b15575b5050612afb57600190612a00612425565b6308c379a014612a7e575b50612a1c575b505038808080612986565b7f4c94adf18d8bfad12d476c7b93150b992bfa3fb9a83d713dd8a97359b7413f8291612a516001600160a01b036127c66124b8565b612a74604051928392600684526020840152606060408401526060830190611e3a565b0390a13880612a11565b612a86612443565b9081612a93575b50612a0b565b7f356c1ed0403936d05af0abea05fbda16720ce964f55d7010cee1ba6cd8e1f60a919250612af19092612ad06001600160a01b0386511687613e2c565b60405191829160068352876020840152606060408401526060830190611e3a565b0390a13880612a8d565b50600360408201526101208101516128aa92909190613daa565b81612b1f91611b58565b610ae85781386129ef565b909161012085019182519060016060880151612b4581611e0d565b612b4e81611e0d565b14612b5e575b5050505050505050565b602083019182518015908115613207575b5080156131db575b80156131af575b15612e11575050508260c08601526001600160a01b03855116926080860191825160a0880195865160208a0194855190612bb782611e0d565b303b15610b2657928a9392612c0a9592859460405197889586957ffffbe519000000000000000000000000000000000000000000000000000000008752600487015260e0602487015260e4860190611e3a565b9260448501526064840152612c1e81611e0d565b60848301528d60a48301528360c4830152038183305af19182612dfc575b5050612d52575050505050600190612c52612425565b6308c379a014612cd5575b50612c73575b50505b3880808080808080612b54565b7f4c94adf18d8bfad12d476c7b93150b992bfa3fb9a83d713dd8a97359b7413f8291612ca86001600160a01b036127c66124b8565b612ccb604051928392600384526020840152606060408401526060830190611e3a565b0390a13880612c63565b612cdd612443565b9081612cea575b50612c5d565b7f356c1ed0403936d05af0abea05fbda16720ce964f55d7010cee1ba6cd8e1f60a919250612d489092612d276001600160a01b0386511687613e2c565b60405191829160038352876020840152606060408401526060830190611e3a565b0390a13880612ce4565b612d68849998959796995160011c809551611e5f565b966040820190815115801590612def575b612d9d575b50505050505084612d989495505060036040830152613daa565b612c66565b60806001600160a01b038951169551945191612db883611e0d565b519251930151936312cc030042019586421161292e5791612d989b9c97959391612de3979593612309565b94933880808080612d7e565b5060808301511515612d79565b81612e0691611b58565b61086e578638612c3c565b9193509193506001600160a01b038695979651169060808601519260a0870151945190602088015190612e4382611e0d565b5191303b15610b2657928a959392612e8c92879694604051998a9788977fc3eea5590000000000000000000000000000000000000000000000000000000089526004890161252e565b038183305af1918261319a575b5050612fa457509091600190612ead612425565b6308c379a014612f27575b50612ec5575b5050612c66565b7f4c94adf18d8bfad12d476c7b93150b992bfa3fb9a83d713dd8a97359b7413f8291612efa6001600160a01b036127c66124b8565b612f1d604051928392600484526020840152606060408401526060830190611e3a565b0390a13880612ebe565b612f2f612443565b9081612f3c575b50612eb8565b7f356c1ed0403936d05af0abea05fbda16720ce964f55d7010cee1ba6cd8e1f60a919250612f9a9092612f796001600160a01b0386511687613e2c565b60405191829160048352876020840152606060408401526060830190611e3a565b0390a13880612f36565b604081019081511580159061318d575b613054575b505060400190600382526001600160a01b0360035416915190612fdb826120e8565b823b1561063a5790606484928360405195869485937fac89c7980000000000000000000000000000000000000000000000000000000085526004850152613021816120e8565b60248401528160448401525af180156102975761303f575050612c66565b61304a828092611b58565b6102945780612ebe565b6001600160a01b036003541691604051907f49138690000000000000000000000000000000000000000000000000000000008252602082600481875afa91821561318257879261314e575b50600019820191821161313a576080905192015192803b1561086e578692918360e49260405196879586947fbe63309e000000000000000000000000000000000000000000000000000000008652600486015260026024860152836044860152606485015282608485015260a48401528160c48401525af180156102c05790849115612fb9578161312f91611b58565b610aec578238612fb9565b602487634e487b7160e01b81526011600452fd5b9091506020813d60201161317a575b8161316a60209383611b58565b810103126100155751903861309f565b3d915061315d565b6040513d89823e3d90fd5b5060808101511515612fb4565b816131a491611b58565b610636578438612e99565b50600260208901516131c081611e0d565b6131c981611e0d565b148015612b7e57508251861015612b7e565b50600160208901516131ec81611e0d565b6131f581611e0d565b148015612b7757508251861115612b77565b905060c08901511438612b6f565b90506020813d602011613248575b8161323060209383611b58565b81010312610636575180151581036106365738612689565b3d9150613223565b6040513d87823e3d90fd5b50505050906001600160a01b036128aa92511690613e2c565b906040810191825115806138d5575b80156138c7575b801561387e575b613861578092849281511515806137f6575b156136d15760600191825180159283156136c6575b50508115613693575b811561365d575b50156136545750506001905b61012084018051921561346a57506001600160a01b0384511660808501519060a08601519260208701519061330882611e0d565b303b1561086e5791613334898895938695604051988996879663cd3fd61760e01b8852600488016124e8565b038183305af19182613455575b50506134415750600190613353612425565b6308c379a0146133c4575b50613367575050565b7f4c94adf18d8bfad12d476c7b93150b992bfa3fb9a83d713dd8a97359b7413f829161339c6001600160a01b036127c66124b8565b6133bf604051928392600184526020840152606060408401526060830190611e3a565b0390a1565b6133cc612443565b90816133d9575b5061335e565b7f356c1ed0403936d05af0abea05fbda16720ce964f55d7010cee1ba6cd8e1f60a91925061343790926134166001600160a01b0386511687613e2c565b60405191829160018352876020840152606060408401526060830190611e3a565b0390a138806133d3565b600360408401526128aa9390929150613daa565b8161345f91611b58565b610aec578238613341565b9161347a9060011c809351611e5f565b916001600160a01b0360035416906001600160a01b038651166080870151916020880151906134a882611e0d565b60a0890151956101608a015190863b156123c05792899694919287936134f597956040519a8b998a98899763bfffc8bb60e01b895260048901526101806024890152610184880190611e3a565b946134ff81611e0d565b604487015260026064870152608486015260a48501528460c48501528460e4850152846101048501526101248401528361014484015261016483015203925af19081613640575b506134415750600190613557612425565b6308c379a0146135c3575b5061356b575050565b7f4c94adf18d8bfad12d476c7b93150b992bfa3fb9a83d713dd8a97359b7413f82916135a06001600160a01b036127c66124b8565b6133bf604051928392600284526020840152606060408401526060830190611e3a565b6135cb612443565b90816135d8575b50613562565b7f356c1ed0403936d05af0abea05fbda16720ce964f55d7010cee1ba6cd8e1f60a91925061363690926136156001600160a01b0386511687613e2c565b60405191829160028352876020840152606060408401526060830190611e3a565b0390a138806135d2565b8361364d91949294611b58565b9138613546565b909150516132d4565b90506002602087015161366f81611e0d565b61367881611e0d565b149081613687575b50386132c8565b90508151101538613680565b9050600160208701516136a581611e0d565b6136ae81611e0d565b14806136bb575b906132c1565b5080825111156136b5565b5114915038806132b8565b90506080810190815115158061378b575b15612b545760a0019182518015928315613780575b5050811561374d575b8115613717575b50156136545750506001906132d4565b90506002602087015161372981611e0d565b61373281611e0d565b149081613741575b5038613707565b9050815110153861373a565b90506001602087015161375f81611e0d565b61376881611e0d565b1480613775575b90613700565b50808251111561376f565b5114915038806136f7565b50602087016001815161379d81611e0d565b6137a681611e0d565b1490816137ea575b81156137bb575b506136e2565b60029150516137c981611e0d565b6137d281611e0d565b14806137df575b386137b5565b5081518310156137d9565b835185111591506137ae565b50602087016001815161380881611e0d565b61381181611e0d565b149081613855575b8115613826575b506132a3565b600291505161383481611e0d565b61383d81611e0d565b148061384a575b38613820565b508151831115613844565b83518510159150613819565b50506003604084015250506101208101516128aa92909190613daa565b506040850160018151613890816120e8565b613899816120e8565b141590816138a8575b50613291565b60029150516138b6816120e8565b6138bf816120e8565b1415386138a2565b50610160850151421161328a565b50608082015115613283565b50600260608501516138f281611e0d565b6138fb81611e0d565b14612622565b90915060c0813d60c011613995575b8161391d60c09383611b58565b81010312610aec576040519060c0820182811067ffffffffffffffff821117613981579060a0916040528051835260208101516020840152604081015160408401526060810151606084015260808101516080840152015160a08201529038612616565b602485634e487b7160e01b81526041600452fd5b3d9150613910565b6024929194506139b860c0913d8087833e6112dd8183611b58565b949192506125cf565b919091600060c06040516139d481611b20565b8281528260208201528260408201528260608201528260808201528260a082015201526001600160a01b0360025416926001600160a01b03604051927fe1fb28b80000000000000000000000000000000000000000000000000000000084521660048301526040602483015260208280613a516044820185611e3a565b0381875afa918215613b4c57600092613b58575b50926084916001600160a01b03613a7d60e096613d08565b169060405196879586947f07ec446600000000000000000000000000000000000000000000000000000000865260048601526024850152604484015260648301525afa908115613b4c57600091613ad2575090565b905060e0813d60e011613b44575b81613aed60e09383611b58565b810103126100155760c060405191613b0483611b20565b805183526020810151602084015260408101516040840152606081015160608401526080810151608084015260a081015160a0840152015160c082015290565b3d9150613ae0565b6040513d6000823e3d90fd5b9150926020823d602011613b87575b81613b7460209383611b58565b81010312610015579051909260e0613a65565b3d9150613b67565b60006080604051613b9f81611b3c565b828152826020820152826040820152826060820152015260a06001600160a01b03602481600254169360405194859384927ffb47e0160000000000000000000000000000000000000000000000000000000084521660048301525afa908115613b4c57600091613c0d575090565b905060a0813d60a011613c6b575b81613c2860a09383611b58565b8101031261001557608060405191613c3f83611b3c565b805183526020810151602084015260408101516040840152606081015160608401520151608082015290565b3d9150613c1b565b90600254916001600160a01b0360009316803b1561063a5760c48492836001600160a01b0393608060405197889687957fc9f35c3900000000000000000000000000000000000000000000000000000000875216600486015280516024860152602081015160448601526040810151606486015260608101516084860152015160a48401525af180156102975761216f575050565b6020613d55916001600160a01b036002541660405180809581947f05ca57cf0000000000000000000000000000000000000000000000000000000083528660048401526024830190611e3a565b03915afa908115613b4c57600091613d6b575090565b6020813d602011613da2575b81613d8460209383611b58565b81010312610ae85751906001600160a01b0382168203610294575090565b3d9150613d77565b91906003549260406001600160a01b036000951692015191613dcb836120e8565b803b15610636578492918360649260405196879586947fac89c7980000000000000000000000000000000000000000000000000000000086526004860152613e12816120e8565b602485015260448401525af180156102975761216f575050565b906000916001600160a01b0360045416803b1561063a579160648492836001600160a01b039560405196879586947fc2b3356400000000000000000000000000000000000000000000000000000000865260048601521660248401528160448401525af180156102975761216f575050565b60ff7ff0c57e16840df040f15088dc2f81fe391c3923bec73e23a9662efc9c229c6a005460401c1615613ecd57565b7fd7e6bcf80000000000000000000000000000000000000000000000000000000060005260046000fdfea2646970667358221220d70a6c58d99b0eef48582a7338d600d38de46863c31fbeed00195ae03d70281a64736f6c634300081c0033",
  "linkReferences": {},
  "deployedLinkReferences": {}
}