{
  "_format": "hh-sol-artifact-1",
  "contractName": "TradeAgent",
  "sourceName": "contracts/TradeAgent.sol",
  "abi": [
    {
      "inputs": [],
      "name": "InvalidInitialization",
      "type": "error"
    },
    {
      "inputs": [],
      "name": "NotInitializing",
      "type": "error"
    },
    {
      "inputs": [
        {
          "internalType": "address",
          "name": "owner",
          "type": "address"
        }
      ],
      "name": "OwnableInvalidOwner",
      "type": "error"
    },
    {
      "inputs": [
        {
          "internalType": "address",
          "name": "account",
          "type": "address"
        }
      ],
      "name": "OwnableUnauthorizedAccount",
      "type": "error"
    },
    {
      "anonymous": false,
      "inputs": [
        {
          "indexed": false,
          "internalType": "address",
          "name": "taker",
          "type": "address"
        },
        {
          "indexed": false,
          "internalType": "uint256",
          "name": "amount",
          "type": "uint256"
        },
        {
          "indexed": false,
          "internalType": "uint256",
          "name": "availableAmount",
          "type": "uint256"
        },
        {
          "indexed": false,
          "internalType": "uint256",
          "name": "marginAmount",
          "type": "uint256"
        },
        {
          "indexed": false,
          "internalType": "uint256",
          "name": "locked",
          "type": "uint256"
        },
        {
          "indexed": false,
          "internalType": "uint256",
          "name": "stage",
          "type": "uint256"
        },
        {
          "indexed": false,
          "internalType": "uint256",
          "name": "dif",
          "type": "uint256"
        }
      ],
      "name": "BalanceOfTaker",
      "type": "event"
    },
    {
      "anonymous": false,
      "inputs": [
        {
          "indexed": false,
          "internalType": "string",
          "name": "name",
          "type": "string"
        },
        {
          "indexed": true,
          "internalType": "address",
          "name": "taker",
          "type": "address"
        },
        {
          "indexed": false,
          "internalType": "uint256",
          "name": "orderID",
          "type": "uint256"
        },
        {
          "indexed": false,
          "internalType": "enum ICommon.Direct",
          "name": "orderType",
          "type": "uint8"
        },
        {
          "indexed": false,
          "internalType": "enum IPerpetual.OrderState",
          "name": "state",
          "type": "uint8"
        },
        {
          "indexed": false,
          "internalType": "enum ICommon.Offset",
          "name": "offset",
          "type": "uint8"
        },
        {
          "indexed": false,
          "internalType": "uint256",
          "name": "amount",
          "type": "uint256"
        },
        {
          "indexed": false,
          "internalType": "uint256",
          "name": "targetPrice",
          "type": "uint256"
        },
        {
          "indexed": false,
          "internalType": "uint256",
          "name": "margin",
          "type": "uint256"
        },
        {
          "indexed": false,
          "internalType": "uint256",
          "name": "rewardGas",
          "type": "uint256"
        },
        {
          "indexed": false,
          "internalType": "uint256",
          "name": "tradingFee",
          "type": "uint256"
        },
        {
          "indexed": false,
          "internalType": "uint256",
          "name": "goodTill",
          "type": "uint256"
        }
      ],
      "name": "CreateLimitedOrder",
      "type": "event"
    },
    {
      "anonymous": false,
      "inputs": [
        {
          "indexed": false,
          "internalType": "uint256",
          "name": "limitOrderID",
          "type": "uint256"
        },
        {
          "indexed": false,
          "internalType": "uint256",
          "name": "openLimitPrice",
          "type": "uint256"
        },
        {
          "indexed": false,
          "internalType": "uint256",
          "name": "gainTriggerPrice",
          "type": "uint256"
        },
        {
          "indexed": false,
          "internalType": "uint256",
          "name": "gainLimitPrice",
          "type": "uint256"
        },
        {
          "indexed": false,
          "internalType": "uint256",
          "name": "lossTriggerPrice",
          "type": "uint256"
        },
        {
          "indexed": false,
          "internalType": "uint256",
          "name": "lossLimitPrice",
          "type": "uint256"
        }
      ],
      "name": "CreateTriggerCondition",
      "type": "event"
    },
    {
      "anonymous": false,
      "inputs": [
        {
          "indexed": false,
          "internalType": "uint256",
          "name": "code",
          "type": "uint256"
        },
        {
          "indexed": false,
          "internalType": "uint256",
          "name": "orderID",
          "type": "uint256"
        },
        {
          "indexed": false,
          "internalType": "string",
          "name": "message",
          "type": "string"
        }
      ],
      "name": "ErrorInfo",
      "type": "event"
    },
    {
      "anonymous": false,
      "inputs": [
        {
          "indexed": false,
          "internalType": "uint256",
          "name": "code",
          "type": "uint256"
        },
        {
          "indexed": false,
          "internalType": "uint256",
          "name": "orderID",
          "type": "uint256"
        },
        {
          "indexed": false,
          "internalType": "bytes",
          "name": "message",
          "type": "bytes"
        }
      ],
      "name": "ExceptErrorInfo",
      "type": "event"
    },
    {
      "anonymous": false,
      "inputs": [
        {
          "indexed": false,
          "internalType": "uint64",
          "name": "version",
          "type": "uint64"
        }
      ],
      "name": "Initialized",
      "type": "event"
    },
    {
      "anonymous": false,
      "inputs": [
        {
          "indexed": true,
          "internalType": "address",
          "name": "taker",
          "type": "address"
        },
        {
          "indexed": false,
          "internalType": "string",
          "name": "name",
          "type": "string"
        },
        {
          "indexed": false,
          "internalType": "uint256",
          "name": "orderID",
          "type": "uint256"
        },
        {
          "indexed": false,
          "internalType": "enum ICommon.Direct",
          "name": "direction",
          "type": "uint8"
        },
        {
          "indexed": false,
          "internalType": "enum IPerpetual.OrderType",
          "name": "orderType",
          "type": "uint8"
        },
        {
          "indexed": false,
          "internalType": "uint256",
          "name": "amount",
          "type": "uint256"
        },
        {
          "indexed": false,
          "internalType": "uint256",
          "name": "costPrice",
          "type": "uint256"
        },
        {
          "indexed": false,
          "internalType": "uint256",
          "name": "price",
          "type": "uint256"
        },
        {
          "indexed": false,
          "internalType": "uint256",
          "name": "tradingFee",
          "type": "uint256"
        },
        {
          "indexed": false,
          "internalType": "uint256",
          "name": "limitOrderId",
          "type": "uint256"
        },
        {
          "indexed": false,
          "internalType": "uint256",
          "name": "timestamp",
          "type": "uint256"
        }
      ],
      "name": "OrderHistory",
      "type": "event"
    },
    {
      "anonymous": false,
      "inputs": [
        {
          "indexed": true,
          "internalType": "address",
          "name": "previousOwner",
          "type": "address"
        },
        {
          "indexed": true,
          "internalType": "address",
          "name": "newOwner",
          "type": "address"
        }
      ],
      "name": "OwnershipTransferred",
      "type": "event"
    },
    {
      "anonymous": false,
      "inputs": [
        {
          "indexed": false,
          "internalType": "uint256",
          "name": "orderID",
          "type": "uint256"
        },
        {
          "indexed": false,
          "internalType": "uint256",
          "name": "dealID",
          "type": "uint256"
        },
        {
          "indexed": false,
          "internalType": "enum IPerpetual.TradeType",
          "name": "tradeType",
          "type": "uint8"
        },
        {
          "indexed": false,
          "internalType": "uint256",
          "name": "amount",
          "type": "uint256"
        },
        {
          "indexed": false,
          "internalType": "uint256",
          "name": "price",
          "type": "uint256"
        },
        {
          "indexed": false,
          "internalType": "uint256",
          "name": "tradingFee",
          "type": "uint256"
        },
        {
          "indexed": false,
          "internalType": "uint256",
          "name": "profit",
          "type": "uint256"
        },
        {
          "indexed": false,
          "internalType": "uint256",
          "name": "loss",
          "type": "uint256"
        },
        {
          "indexed": false,
          "internalType": "uint256",
          "name": "timestamp",
          "type": "uint256"
        }
      ],
      "name": "TradeHistory",
      "type": "event"
    },
    {
      "anonymous": false,
      "inputs": [
        {
          "indexed": true,
          "internalType": "address",
          "name": "taker",
          "type": "address"
        },
        {
          "indexed": false,
          "internalType": "enum ICommon.TransactionType",
          "name": "transactionType",
          "type": "uint8"
        },
        {
          "indexed": false,
          "internalType": "uint256",
          "name": "amount",
          "type": "uint256"
        },
        {
          "indexed": false,
          "internalType": "uint256",
          "name": "timestamp",
          "type": "uint256"
        }
      ],
      "name": "TransactionHistory",
      "type": "event"
    },
    {
      "anonymous": false,
      "inputs": [
        {
          "indexed": false,
          "internalType": "address",
          "name": "sender",
          "type": "address"
        },
        {
          "indexed": false,
          "internalType": "address",
          "name": "received",
          "type": "address"
        },
        {
          "indexed": false,
          "internalType": "enum ICommon.TransactionType",
          "name": "transactionType",
          "type": "uint8"
        },
        {
          "indexed": false,
          "internalType": "uint256",
          "name": "amount",
          "type": "uint256"
        },
        {
          "indexed": false,
          "internalType": "uint256",
          "name": "timestamp",
          "type": "uint256"
        }
      ],
      "name": "TransferFee",
      "type": "event"
    },
    {
      "anonymous": false,
      "inputs": [
        {
          "indexed": false,
          "internalType": "address",
          "name": "sender",
          "type": "address"
        },
        {
          "indexed": false,
          "internalType": "uint256",
          "name": "beforeLeverage",
          "type": "uint256"
        },
        {
          "indexed": false,
          "internalType": "uint256",
          "name": "afterLeverage",
          "type": "uint256"
        }
      ],
      "name": "setLeverage",
      "type": "event"
    },
    {
      "stateMutability": "nonpayable",
      "type": "fallback"
    },
    {
      "inputs": [
        {
          "internalType": "enum ICommon.Direct",
          "name": "_type",
          "type": "uint8"
        },
        {
          "internalType": "uint256",
          "name": "_currentPrice",
          "type": "uint256"
        },
        {
          "internalType": "uint256",
          "name": "_dealPrice",
          "type": "uint256"
        },
        {
          "internalType": "uint256",
          "name": "_amount",
          "type": "uint256"
        },
        {
          "internalType": "uint256",
          "name": "_willClose",
          "type": "uint256"
        }
      ],
      "name": "calDealPNL",
      "outputs": [
        {
          "internalType": "uint256",
          "name": "profit",
          "type": "uint256"
        },
        {
          "internalType": "uint256",
          "name": "loss",
          "type": "uint256"
        }
      ],
      "stateMutability": "pure",
      "type": "function"
    },
    {
      "inputs": [
        {
          "internalType": "uint256",
          "name": "_orderID",
          "type": "uint256"
        },
        {
          "internalType": "address",
          "name": "_taker",
          "type": "address"
        },
        {
          "internalType": "bool",
          "name": "_status",
          "type": "bool"
        }
      ],
      "name": "cancelOrder",
      "outputs": [],
      "stateMutability": "nonpayable",
      "type": "function"
    },
    {
      "inputs": [
        {
          "internalType": "uint256",
          "name": "_oID",
          "type": "uint256"
        },
        {
          "internalType": "uint256",
          "name": "_price",
          "type": "uint256"
        }
      ],
      "name": "checkLimitOrder",
      "outputs": [
        {
          "internalType": "bool",
          "name": "success",
          "type": "bool"
        }
      ],
      "stateMutability": "view",
      "type": "function"
    },
    {
      "inputs": [
        {
          "internalType": "uint256[]",
          "name": "_orders",
          "type": "uint256[]"
        },
        {
          "internalType": "uint256[]",
          "name": "_prices",
          "type": "uint256[]"
        }
      ],
      "name": "checkLimitOrders",
      "outputs": [
        {
          "internalType": "bool[]",
          "name": "result",
          "type": "bool[]"
        }
      ],
      "stateMutability": "view",
      "type": "function"
    },
    {
      "inputs": [
        {
          "internalType": "uint256[]",
          "name": "_deal",
          "type": "uint256[]"
        },
        {
          "internalType": "uint256[]",
          "name": "_price",
          "type": "uint256[]"
        }
      ],
      "name": "checkMakerDealsRiskStatus",
      "outputs": [
        {
          "internalType": "bool[]",
          "name": "riskStatus",
          "type": "bool[]"
        }
      ],
      "stateMutability": "view",
      "type": "function"
    },
    {
      "inputs": [
        {
          "internalType": "address",
          "name": "_taker",
          "type": "address"
        },
        {
          "internalType": "string[]",
          "name": "_symbols",
          "type": "string[]"
        },
        {
          "internalType": "uint256[]",
          "name": "_prices",
          "type": "uint256[]"
        }
      ],
      "name": "checkTakerRiskStatus",
      "outputs": [
        {
          "internalType": "bool",
          "name": "isRisk",
          "type": "bool"
        },
        {
          "internalType": "uint256",
          "name": "netLoss",
          "type": "uint256"
        },
        {
          "internalType": "uint256",
          "name": "overLoss",
          "type": "uint256"
        },
        {
          "internalType": "uint256",
          "name": "loss",
          "type": "uint256"
        }
      ],
      "stateMutability": "view",
      "type": "function"
    },
    {
      "inputs": [
        {
          "internalType": "address",
          "name": "_taker",
          "type": "address"
        },
        {
          "internalType": "string",
          "name": "_pair",
          "type": "string"
        },
        {
          "internalType": "enum ICommon.Direct",
          "name": "_type",
          "type": "uint8"
        },
        {
          "internalType": "uint256",
          "name": "_currentPrice",
          "type": "uint256"
        },
        {
          "internalType": "uint256",
          "name": "_deposit",
          "type": "uint256"
        }
      ],
      "name": "clearingTakerPosition",
      "outputs": [
        {
          "internalType": "uint256",
          "name": "remainingDeposit",
          "type": "uint256"
        },
        {
          "internalType": "bool",
          "name": "clear",
          "type": "bool"
        }
      ],
      "stateMutability": "nonpayable",
      "type": "function"
    },
    {
      "inputs": [
        {
          "internalType": "address",
          "name": "_taker",
          "type": "address"
        },
        {
          "internalType": "uint256",
          "name": "_dealID",
          "type": "uint256"
        },
        {
          "internalType": "uint256",
          "name": "_amount",
          "type": "uint256"
        },
        {
          "internalType": "enum IPerpetual.TradeType",
          "name": "_tradeType",
          "type": "uint8"
        },
        {
          "internalType": "uint256",
          "name": "_currentPrice",
          "type": "uint256"
        },
        {
          "internalType": "uint256",
          "name": "_tradeFeeRate",
          "type": "uint256"
        },
        {
          "internalType": "uint256",
          "name": "_profit",
          "type": "uint256"
        },
        {
          "internalType": "uint256",
          "name": "_loss",
          "type": "uint256"
        }
      ],
      "name": "closeDealEvent",
      "outputs": [],
      "stateMutability": "nonpayable",
      "type": "function"
    },
    {
      "inputs": [
        {
          "internalType": "address",
          "name": "_taker",
          "type": "address"
        },
        {
          "internalType": "string",
          "name": "_name",
          "type": "string"
        },
        {
          "internalType": "uint256",
          "name": "_amount",
          "type": "uint256"
        },
        {
          "internalType": "uint256",
          "name": "_currentPrice",
          "type": "uint256"
        },
        {
          "internalType": "enum ICommon.Direct",
          "name": "_type",
          "type": "uint8"
        },
        {
          "internalType": "uint256",
          "name": "_limitID",
          "type": "uint256"
        }
      ],
      "name": "closeOrder",
      "outputs": [
        {
          "components": [
            {
              "internalType": "uint256",
              "name": "totalMargin",
              "type": "uint256"
            },
            {
              "internalType": "uint256",
              "name": "tradingFee",
              "type": "uint256"
            },
            {
              "internalType": "uint256",
              "name": "gain",
              "type": "uint256"
            },
            {
              "internalType": "uint256",
              "name": "loss",
              "type": "uint256"
            }
          ],
          "internalType": "struct ICommon.CloseOrderResult",
          "name": "bulk",
          "type": "tuple"
        }
      ],
      "stateMutability": "nonpayable",
      "type": "function"
    },
    {
      "inputs": [
        {
          "internalType": "address",
          "name": "_user",
          "type": "address"
        },
        {
          "internalType": "string",
          "name": "_name",
          "type": "string"
        },
        {
          "internalType": "uint256",
          "name": "_price",
          "type": "uint256"
        }
      ],
      "name": "getMaxOpenAmount",
      "outputs": [
        {
          "internalType": "uint256",
          "name": "amount",
          "type": "uint256"
        }
      ],
      "stateMutability": "view",
      "type": "function"
    },
    {
      "inputs": [
        {
          "internalType": "address",
          "name": "_user",
          "type": "address"
        },
        {
          "internalType": "string[]",
          "name": "_symbols",
          "type": "string[]"
        },
        {
          "internalType": "uint256[]",
          "name": "_prices",
          "type": "uint256[]"
        }
      ],
      "name": "getMaxWithdrawableAmount",
      "outputs": [
        {
          "internalType": "uint256",
          "name": "_amount",
          "type": "uint256"
        }
      ],
      "stateMutability": "view",
      "type": "function"
    },
    {
      "inputs": [
        {
          "internalType": "address",
          "name": "_user",
          "type": "address"
        },
        {
          "internalType": "string[]",
          "name": "_symbols",
          "type": "string[]"
        },
        {
          "internalType": "uint256[]",
          "name": "_prices",
          "type": "uint256[]"
        }
      ],
      "name": "getPNL",
      "outputs": [
        {
          "internalType": "bool",
          "name": "flag",
          "type": "bool"
        },
        {
          "internalType": "uint256",
          "name": "amount",
          "type": "uint256"
        }
      ],
      "stateMutability": "view",
      "type": "function"
    },
    {
      "inputs": [
        {
          "internalType": "address",
          "name": "_taker",
          "type": "address"
        },
        {
          "internalType": "string",
          "name": "_name",
          "type": "string"
        },
        {
          "internalType": "uint256",
          "name": "_price",
          "type": "uint256"
        },
        {
          "internalType": "uint8",
          "name": "_direction",
          "type": "uint8"
        }
      ],
      "name": "getPNLByCertainPosition",
      "outputs": [
        {
          "internalType": "uint256",
          "name": "profit",
          "type": "uint256"
        },
        {
          "internalType": "uint256",
          "name": "loss",
          "type": "uint256"
        }
      ],
      "stateMutability": "view",
      "type": "function"
    },
    {
      "inputs": [
        {
          "internalType": "address",
          "name": "_taker",
          "type": "address"
        },
        {
          "internalType": "string[]",
          "name": "_symbols",
          "type": "string[]"
        },
        {
          "internalType": "uint256[]",
          "name": "_prices",
          "type": "uint256[]"
        }
      ],
      "name": "getPNLByPosition",
      "outputs": [
        {
          "internalType": "uint256",
          "name": "totalProfit",
          "type": "uint256"
        },
        {
          "internalType": "uint256",
          "name": "totalLoss",
          "type": "uint256"
        }
      ],
      "stateMutability": "view",
      "type": "function"
    },
    {
      "inputs": [],
      "name": "getShareNetValue",
      "outputs": [
        {
          "internalType": "uint256",
          "name": "",
          "type": "uint256"
        }
      ],
      "stateMutability": "view",
      "type": "function"
    },
    {
      "inputs": [
        {
          "internalType": "address",
          "name": "initialOwner",
          "type": "address"
        },
        {
          "internalType": "address",
          "name": "_priPool",
          "type": "address"
        },
        {
          "internalType": "address",
          "name": "_perpetual",
          "type": "address"
        }
      ],
      "name": "initialize",
      "outputs": [],
      "stateMutability": "nonpayable",
      "type": "function"
    },
    {
      "inputs": [
        {
          "internalType": "uint256",
          "name": "_dealID",
          "type": "uint256"
        },
        {
          "internalType": "uint256",
          "name": "_price",
          "type": "uint256"
        }
      ],
      "name": "liquidateMakerDeal",
      "outputs": [
        {
          "internalType": "bool",
          "name": "isLiquidated",
          "type": "bool"
        },
        {
          "internalType": "bool",
          "name": "isAgreement",
          "type": "bool"
        },
        {
          "internalType": "uint256",
          "name": "userProfit",
          "type": "uint256"
        }
      ],
      "stateMutability": "nonpayable",
      "type": "function"
    },
    {
      "inputs": [
        {
          "internalType": "uint256[]",
          "name": "_dealIDs",
          "type": "uint256[]"
        },
        {
          "internalType": "string[]",
          "name": "_symbols",
          "type": "string[]"
        },
        {
          "internalType": "uint256[]",
          "name": "_prices",
          "type": "uint256[]"
        }
      ],
      "name": "liquidateMakerDeals",
      "outputs": [],
      "stateMutability": "nonpayable",
      "type": "function"
    },
    {
      "inputs": [],
      "name": "owner",
      "outputs": [
        {
          "internalType": "address",
          "name": "",
          "type": "address"
        }
      ],
      "stateMutability": "view",
      "type": "function"
    },
    {
      "inputs": [],
      "name": "renounceOwnership",
      "outputs": [],
      "stateMutability": "nonpayable",
      "type": "function"
    },
    {
      "inputs": [
        {
          "internalType": "address",
          "name": "_orderBook",
          "type": "address"
        },
        {
          "internalType": "address",
          "name": "_station",
          "type": "address"
        }
      ],
      "name": "setKeepers",
      "outputs": [],
      "stateMutability": "nonpayable",
      "type": "function"
    },
    {
      "inputs": [
        {
          "internalType": "address",
          "name": "newOwner",
          "type": "address"
        }
      ],
      "name": "transferOwnership",
      "outputs": [],
      "stateMutability": "nonpayable",
      "type": "function"
    },
    {
      "inputs": [
        {
          "internalType": "string",
          "name": "_name",
          "type": "string"
        },
        {
          "internalType": "enum ICommon.Direct",
          "name": "_type",
          "type": "uint8"
        }
      ],
      "name": "verifyTradeStatus",
      "outputs": [],
      "stateMutability": "view",
      "type": "function"
    }
  ],
  "bytecode": "0x60808060405234601557614419908161001b8239f35b600080fdfe6080604052600436101561001a575b3461001557005b600080fd5b60003560e01c8063016f4dcb1461190d5780632b000206146118635780633b1e6a5914611848578063642bcd18146117dd578063715018a614611737578063721db562146116e15780638da5cb5b1461169b5780639324b5491461161a5780639aa59c65146115f3578063b7288fdd14611458578063c0c53b8b1461119a578063c254878b14611167578063c2b3356414611056578063ca2afc4e14610f8f578063ca6ec37214610e2e578063cd3fd617146108e6578063d0e3d0dc14610716578063e6b34c69146106f3578063eb4f2e3614610352578063ede13d8c1461032d578063f2fde38b14610302578063f5a4bc661461018a5763f69ef33b0361000e57346100155761012a36611a7f565b8151906101368261298b565b9260005b838110610153576040518061014f8782611ace565b0390f35b8061017561016360019385612321565b5161016e8387612321565b51906138cf565b61017f8288612321565b90151590520161013a565b3461001557610100600319360112610015576101a461196d565b60443560643591600583101561001557608435917febbb264ee0a0ae96eb7f0d3178c3d7cfed75dcb46bf54fb70fa43000eb77d76e61012060c4359260e435953360005260046020526101fe60ff60406000205416611c4b565b670de0b6b3a76400008061021d836102188660a435611e31565b611e31565b040490610228613bd7565b92604051938452602435602085015260009960408501526060840152608083015260a08201528360c08201528560e082015242610100820152a1806102ba575b5081610272578280f35b60606001600160a01b037f3d1da8320fcddb1c370f0c5ec1c37483e5301a7c02bd7478d62c7514643ceb1d92604051946005865260208601524260408601521692a281808280f35b604051906004825260208201524260408201527f3d1da8320fcddb1c370f0c5ec1c37483e5301a7c02bd7478d62c7514643ceb1d60606001600160a01b03841692a283610268565b346100155760206003193601126100155761032b61031e61196d565b610326613ca4565b613803565b005b3461001557604061034661034036611bec565b9161377e565b82519182526020820152f35b346100155760606003193601126100155760043567ffffffffffffffff811161001557610383903690600401611a22565b60243567ffffffffffffffff8111610015576103a3903690600401611b6d565b9060443567ffffffffffffffff8111610015576103c4903690600401611a22565b903360005260046020526103df60ff60406000205416611c4b565b805191600090602085019060208101925b8581106103f957005b6001600160a01b0360025416906104108187612321565b519160405180937fdcee347500000000000000000000000000000000000000000000000000000000825260648201906004830152606060248301528a51809152608482019060848160051b84010191889160005b8181106106a857505050506003198282030160448301526020865191828152019088906000905b80821061068c57505050918160008160a09503925af180156105fb57600080809181958294610620575b5081610618575b506104ce575b505060019150016103f0565b6001600160a01b036001541693843b1561001557604051927f9048f2e0000000000000000000000000000000000000000000000000000000008452600084604481836001600160a01b0387169a8b60048401528160248401525af19384156105fb5761058194610607575b5061054382613ec5565b9261054f818551611e64565b84526105698261056460208701938451611e64565b611e64565b905261057a60408401918251611e24565b9052614099565b6001600160a01b036001541691823b15610015576000926044849260405195869384927f9048f2e00000000000000000000000000000000000000000000000000000000084526004840152600a60248401525af19182156105fb576001926105ea575b806104c2565b60006105f5916119e7565b886105e4565b6040513d6000823e3d90fd5b6000610612916119e7565b8c610539565b90508b6104bc565b95505091505060a0833d8211610684575b8161063e60a093836119e7565b810103126106815750610650826122c5565b9161065d602082016122c5565b90604081015191608061067260608401611c96565b9201519490929194928c6104b5565b80fd5b3d9150610631565b919350916020806001928651815201940192018693929161048b565b919360206106e3827fffffffffffffffffffffffffffffffffffffffffffffffffffffffffffffff7c600195979984950301885288516131c1565b9601940191019187949392610464565b3461001557602061070c61070636611957565b90613461565b6040519015158152f35b346100155760406003193601126100155760043567ffffffffffffffff811161001557610747903690600401611b26565b602435906003821015610015576107656001600160a01b0391613fa9565b1680156108a25760006001600160a01b03600154166024604051809481937fa666200f00000000000000000000000000000000000000000000000000000000835260048301525afa80156105fb576101c09160009161087f575b50015161083b576107cf81611e04565b60018114908115610827575b50156107e357005b606460405162461bcd60e51b815260206004820152600a60248201527f77726f6e672074797065000000000000000000000000000000000000000000006044820152fd5b6002915061083481611e04565b14816107db565b606460405162461bcd60e51b815260206004820152601360248201527f446f206e6f7420747261646520737461747573000000000000000000000000006044820152fd5b61089c91503d806000833e61089481836119e7565b810190613334565b836107bf565b606460405162461bcd60e51b815260206004820152600960248201527f756e537570706f727400000000000000000000000000000000000000000000006044820152fd5b346100155760c0600319360112610015576108ff61196d565b60243567ffffffffffffffff81116100155761091f903690600401611b26565b604435606435906084359260038410156100155760a4359461093f6132fe565b5033600052600460205261095a60ff60406000205416611c4b565b6109626132fe565b9561096b6129bc565b9461097587611e04565b61098861098188612b6f565b8585613d05565b929050602089929901986060830193845289528152600060c06040516109ad81611999565b8281528260208201528260408201528260608201528260808201528260a082015201526001600160a01b03600154166040517fe1fb28b800000000000000000000000000000000000000000000000000000000815260208180610a148b8b600484016131e6565b0381855afa80156105fb57600090610dfb575b60e0915060846001600160a01b03610a3e8b613fa9565b169360405194859384927f07ec446600000000000000000000000000000000000000000000000000000000845260048401528d602484015289604484015260648301525afa80156105fb57604091600091610dcc575b50015160208b01908152916000198503610d805788519051610ab591611e24565b8711610d3c575b51670de0b6b3a7640000810290808204670de0b6b3a76400001490151715610d26578751610ae991611e44565b7f878cac0b879164d8647426da983e248a51ef8192a43e4d3bb5b586ca2017ed54610b12613bd7565b918351604051916101408352610b2c61014084018b6131c1565b946020840152610b3b8d611e04565b8c6040840152600360608401528a608084015260a08301528560c083015260e08201528561010082015242610120820152806001600160a01b038816930390a2610b8488611e04565b610b98610b9089612b6f565b838787612ad5565b949060408b019860608c01968752818a528881518110610cf0575b505050610bca896000978893898952898c52613db9565b60018a149990875b8151811015610cdb576000610be684611e04565b8c15610c9e5750610bf78183612321565b515b8a8a1015610c68578a6000198203610c16575b5050600101610bd2565b8a610c56610c4e610c3e8c610c489a9f60019897610c388f92610c5f99611e24565b9061413b565b90929b9195611e64565b9e611e64565b978c51611e64565b8b528d51611e64565b8c52908a610c0c565b50505050975093505050929150836080955b610c82613c54565b5052604051938452516020840152516040830152516060820152f35b610ca9828451611e24565b906000198201918211610cc75750610cc19083612321565b51610bf9565b80634e487b7160e01b602492526011600452fd5b50505097509350505092915083608095610c7a565b610d00610d0891610d1d94611e31565b825190611e44565b8a52610d15898851611e31565b905190611e44565b508a8088610bb3565b634e487b7160e01b600052601160045260246000fd5b606460405162461bcd60e51b815260206004820152601360248201527f636c6f736520616d6f756e7420657863656564000000000000000000000000006044820152fd5b51871115610abc57606460405162461bcd60e51b815260206004820152601b60248201527f616d6f756e74206973206772656174207468656e20667265657a6500000000006044820152fd5b610dee915060e03d60e011610df4575b610de681836119e7565b810190613206565b8c610a94565b503d610ddc565b506020813d602011610e26575b81610e15602093836119e7565b810103126100155760e09051610a27565b3d9150610e08565b346100155760a06003193601126100155760043560038110156100155760243560443590606435608435936001600091610e6781611e04565b03610f3f57509192909190838310610f1757670de0b6b3a764000093610e9d83610e98610ea394610ea99796611e31565b611e44565b92611e24565b90611e31565b046000905b80158015610f0f575b15610ecb5760409182519182526020820152f35b606460405162461bcd60e51b815260206004820152600960248201527f504e4c206572726f7200000000000000000000000000000000000000000000006044820152fd5b508115610eb7565b92610ea3670de0b6b3a764000093610e9d610f3894610e9860009882611e31565b0490610eae565b838311610f6f5750610f669291610e9d82610e98670de0b6b3a764000097610ea395611e31565b04600090610eae565b670de0b6b3a764000093610e9d610f389493610e98610ea3949882611e31565b3461001557610f9d36611bec565b9190610fb6600093610fae84613ec5565b928594613191565b901561104e575b50604081015192610fcc61404b565b670de0b6b3a764000003670de0b6b3a76400008111610d2657610ffa670de0b6b3a764000091602096611e31565b0481811061101257505082915001515b604051908152f35b9091840182611022838351611e64565b1015611031575b50505061100a565b6110469350906110419151611e64565b611e24565b828080611029565b925083610fbd565b346100155760606003193601126100155761106f611983565b6044358015158091036100155760206000913383526004825261109860ff604085205416611c4b565b60646001600160a01b03600254169160405194859384927fc2b3356400000000000000000000000000000000000000000000000000000000845260043560048501526001600160a01b038916602485015260448401525af19081156105fb57600091611135575b508061110757005b8161111461032b93613ec5565b9160208301611124828251611e64565b905261057a60608401918251611e24565b906020823d60201161115f575b8161114f602093836119e7565b81010312610681575051826110ff565b3d9150611142565b3461001557608061118061117a36611bec565b91613260565b916040519315158452602084015260408301526060820152f35b34610015576060600319360112610015576111b361196d565b6111bb611983565b90604435906001600160a01b038216809203610015577ff0c57e16840df040f15088dc2f81fe391c3923bec73e23a9662efc9c229c6a00549260ff8460401c16159367ffffffffffffffff811680159081611450575b6001149081611446575b15908161143d575b50611413576001600160a01b0392818660017fffffffffffffffffffffffffffffffffffffffffffffffff000000000000000061129d9516177ff0c57e16840df040f15088dc2f81fe391c3923bec73e23a9662efc9c229c6a00556113be575b5061128c61438a565b61129461438a565b61031e33613803565b168073ffffffffffffffffffffffffffffffffffffffff19600054161760005560005260046020526040600020600160ff198254161790558073ffffffffffffffffffffffffffffffffffffffff19600154161760015560005260046020526040600020600160ff198254161790553060005260046020526040600020600160ff1982541617905561132b57005b7fffffffffffffffffffffffffffffffffffffffffffffff00ffffffffffffffff7ff0c57e16840df040f15088dc2f81fe391c3923bec73e23a9662efc9c229c6a0054167ff0c57e16840df040f15088dc2f81fe391c3923bec73e23a9662efc9c229c6a00557fc7f505b2f371ae2175ee4913f4499e1f2633a7b5936321eed1cdaeb6115181d2602060405160018152a1005b7fffffffffffffffffffffffffffffffffffffffffffffff0000000000000000001668010000000000000001177ff0c57e16840df040f15088dc2f81fe391c3923bec73e23a9662efc9c229c6a005586611283565b7ff92ee8a90000000000000000000000000000000000000000000000000000000060005260046000fd5b90501586611223565b303b15915061121b565b869150611211565b346100155760606003193601126100155761147161196d565b60243567ffffffffffffffff811161001557611491903690600401611b26565b6114e261149d83613ec5565b916020816001600160a01b03600154169560405194859283927fe1fb28b8000000000000000000000000000000000000000000000000000000008452600484016131e6565b0381875afa9182156105fb576000926115be575b509060846001600160a01b0361150d60e094613fa9565b169460405195869384927f07ec446600000000000000000000000000000000000000000000000000000000845260048401526402540be4006024840152604435604484015260648301525afa9182156105fb5760009261159a575b5060200151906402540be4008202918083046402540be4001490151715610d2657602091606061100a92015190611e44565b60209192506115b79060e03d60e011610df457610de681836119e7565b9190611568565b91506020823d6020116115eb575b816115d9602093836119e7565b810103126100155790519060846114f6565b3d91506115cc565b3461001557604061160c61160636611bec565b91613191565b825191151582526020820152f35b346100155760a06003193601126100155761163361196d565b60243567ffffffffffffffff811161001557611653903690600401611b26565b6044359060038210156100155760409261168d9233600052600460205261168060ff866000205416611c4b565b6084359260643592612b82565b825191825215156020820152f35b346100155760006003193601126100155760206001600160a01b037f9016d09d72d40fdae2fd8ceac6b6234c7706214fd39c1cd1e609a0528c1993005416604051908152f35b34610015576080600319360112610015576116fa61196d565b60243567ffffffffffffffff81116100155761171a903690600401611b26565b60643560ff81168103610015576040926103469260443591612ad5565b3461001557600060031936011261001557611750613ca4565b60006001600160a01b037f9016d09d72d40fdae2fd8ceac6b6234c7706214fd39c1cd1e609a0528c1993005473ffffffffffffffffffffffffffffffffffffffff1981167f9016d09d72d40fdae2fd8ceac6b6234c7706214fd39c1cd1e609a0528c19930055167f8be0079c531659141344cd1fd0a4f28419497f9722a3daafe3b4186f6b6457e08280a3005b34610015576117eb36611a7f565b906117f6815161298b565b9160005b825181101561183a578061182561181360019386612321565b5161181e8386612321565b5190613461565b61182f8287612321565b9015159052016117fa565b6040518061014f8682611ace565b3461001557600060031936011261001557602061100a61234b565b346100155760406003193601126100155761187c61196d565b6001600160a01b038061188d611983565b92611896613ca4565b16918260005260046020526040600020600160ff1982541617905516908160005260046020526040600020600160ff1982541617905573ffffffffffffffffffffffffffffffffffffffff19600254161760025573ffffffffffffffffffffffffffffffffffffffff196003541617600355600080f35b3461001557606061194061192036611957565b9033600052600460205261193b60ff60406000205416611c4b565b611e71565b906040519215158352151560208301526040820152f35b6003196040910112610015576004359060243590565b600435906001600160a01b038216820361001557565b602435906001600160a01b038216820361001557565b60e0810190811067ffffffffffffffff8211176119b557604052565b634e487b7160e01b600052604160045260246000fd5b60a0810190811067ffffffffffffffff8211176119b557604052565b90601f601f19910116810190811067ffffffffffffffff8211176119b557604052565b67ffffffffffffffff81116119b55760051b60200190565b9080601f83011215610015578135611a3981611a0a565b92611a4760405194856119e7565b81845260208085019260051b82010192831161001557602001905b828210611a6f5750505090565b8135815260209182019101611a62565b9060406003198301126100155760043567ffffffffffffffff81116100155782611aab91600401611a22565b916024359067ffffffffffffffff821161001557611acb91600401611a22565b90565b602060408183019282815284518094520192019060005b818110611af25750505090565b82511515845260209384019390920191600101611ae5565b67ffffffffffffffff81116119b557601f01601f191660200190565b81601f8201121561001557803590611b3d82611b0a565b92611b4b60405194856119e7565b8284526020838301011161001557816000926020809301838601378301015290565b9080601f83011215610015578135611b8481611a0a565b92611b9260405194856119e7565b81845260208085019260051b820101918383116100155760208201905b838210611bbe57505050505090565b813567ffffffffffffffff811161001557602091611be187848094880101611b26565b815201910190611baf565b6060600319820112610015576004356001600160a01b0381168103610015579160243567ffffffffffffffff81116100155782611c2b91600401611b6d565b916044359067ffffffffffffffff821161001557611acb91600401611a22565b15611c5257565b606460405162461bcd60e51b815260206004820152601a60248201527f63616c6c6572206973206e6f74206167656e74206b65657065720000000000006044820152fd5b51906001600160a01b038216820361001557565b60005b838110611cbd5750506000910152565b8181015183820152602001611cad565b81601f82011215610015578051611ce381611b0a565b92611cf160405194856119e7565b8184526020828401011161001557611acb9160208085019101611caa565b6020818303126100155780519067ffffffffffffffff8211610015570190610160828203126100155760405191610160830183811067ffffffffffffffff8211176119b557604052611d6081611c96565b83526020810151600381101561001557602084015260408101516006811015610015576040840152606081015160038110156100155760608401526080810151608084015260a081015167ffffffffffffffff81116100155761014092611dc8918301611ccd565b60a084015260c081015160c084015260e081015160e0840152610100810151610100840152610120810151610120840152015161014082015290565b60031115611e0e57565b634e487b7160e01b600052602160045260246000fd5b91908203918211610d2657565b81810292918115918404141715610d2657565b8115611e4e570490565b634e487b7160e01b600052601260045260246000fd5b91908201809211610d2657565b919060249160006001600160a01b0360025416604051948580926320bf56eb60e21b82528860048301525afa9283156105fb576000936122a2575b5060408301928351936006851015611e0e57600160009514159081612278575b5061226e578293611edd84876138cf565b1561226357602082019360018551611ef481611e04565b611efd81611e04565b1480612256575b1561211a575060c0820194855196670de0b6b3a7640000611f2e60e0860199610ea38b5186611e24565b0495611f3b838884613afa565b909b925099908b1561210857808a0361206c575b5050509161012093917febbb264ee0a0ae96eb7f0d3178c3d7cfed75dcb46bf54fb70fa43000eb77d76e95935b7f878cac0b879164d8647426da983e248a51ef8192a43e4d3bb5b586ca2017ed54611fe86001600160a01b038751169260a088015190611fba613bd7565b9051611fc581611e04565b60c08a019960e08b519101519160405195869561014087526101408701906131c1565b936020860152611ff781611e04565b604085015260056060850152608084015260a08301528660c08301528760e0830152600019610100830152428a8301520390a2612032613c54565b935190604051948552602085015260036040850152606084015260808301528060a08301528560c083015260e082015242610100820152a1565b90929450612094919850670de0b6b3a764000061208e829a8551905190611e31565b04611e64565b90670de0b6b3a7640000820291808304670de0b6b3a764000014901517156120f457916120ea7febbb264ee0a0ae96eb7f0d3178c3d7cfed75dcb46bf54fb70fa43000eb77d76e96949261012096945190611e44565b9395819395611f4f565b602485634e487b7160e01b81526011600452fd5b50505050505093505092505080918190565b946002855161212881611e04565b61213181611e04565b1480612249575b1561223d57859660c0849796970196612170670de0b6b3a76400006121678a51610ea360e08a019d8e51611e24565b04978884613afa565b909b925099908b1561210857808a036121b5575b5050509161012093917febbb264ee0a0ae96eb7f0d3178c3d7cfed75dcb46bf54fb70fa43000eb77d76e9593611f7c565b909294506121dd919850670de0b6b3a76400006121d7829a8551905190611e31565b04611e24565b90670de0b6b3a7640000820291808304670de0b6b3a764000014901517156120f457916122337febbb264ee0a0ae96eb7f0d3178c3d7cfed75dcb46bf54fb70fa43000eb77d76e96949261012096945190611e44565b9395819395612184565b50945084935083925050565b508560e084015111612138565b5060e08301518111611f04565b945084935083925050565b5092505080918190565b905051600681101561228e576002141538611ecc565b602485634e487b7160e01b81526021600452fd5b6122be91933d8091833e6122b681836119e7565b810190611d0f565b9138611eac565b5190811515820361001557565b919060a083820312610015576122e7836122c5565b9260208101519260408201519260608301519067ffffffffffffffff82116100155761231a608091611acb938601611ccd565b9301611c96565b80518210156123355760209160051b010190565b634e487b7160e01b600052603260045260246000fd5b6001600160a01b036000541690604051917fcf5bd3770000000000000000000000000000000000000000000000000000000083526017600484015260006024840152600083604481845afa9081156105fb57604493600092612967575b50600090604051948580927fcf5bd377000000000000000000000000000000000000000000000000000000008252600e60048301528460248301525afa9283156105fb576000908190829561293d575b5082159081159182612935575b612924578214908161291c575b506128ef576001600160a01b0360015416936040517fcd2ce4ae000000000000000000000000000000000000000000000000000000008152600081600481895afa9081156105fb57600091612832575b509060009493929492839284956001600160a01b03865416926001600160a01b03875416965b83518910156127775761249b8985612321565b51906001600160a01b036124ae83613fa9565b169060208d6024604051809581937f41976e0900000000000000000000000000000000000000000000000000000000835260048301525afa9182156105fb57600092612744575b50811561273857604051926040840184811067ffffffffffffffff8211176119b557604052600084526020840190600082526000926040516306461a8b60e11b81526001600160a01b038c1694856004830152606060248301526040828d8180612562606482018a6131c1565b86604483015203915afa91821561272b57908f979695949392918180936126e0575b50508185528852670de0b6b3a7640000906125a0908790611e31565b04908751808310156000146126c15750916125cd6125c56040936125fa979695611e64565b895190611e24565b965b60009483518097819482936306461a8b60e11b845260048401526060602484015260648301906131c1565b6001604483015203915afa9283156126b657828094612676575b50508290528452670de0b6b3a76400009161262e91611e31565b04918281511015600014612657579161104161264e926001945190611e64565b985b0197612488565b612668600193612670939c9a611e64565b905190611e24565b96612650565b91935091506040823d82116126ae575b81612693604093836119e7565b8101031261068157508051602090910151918161262e612614565b3d9150612686565b6040513d84823e3d90fd5b6040926125fa96959492989f6126da9261104191611e64565b9d6125cf565b925092939495969750506040823d8211612723575b81612702604093836119e7565b81010312610681575080516020909101518e969594939291866125a0612584565b3d91506126f5565b50604051903d90823e3d90fd5b99905060019150612650565b90916020823d821161276f575b8161275e602093836119e7565b8101031261068157505190386124f5565b3d9150612751565b9597509793509750505061278b9250611e64565b90808211156127c85761279d91611e24565b90670de0b6b3a7640000820291808304670de0b6b3a76400001490151715610d2657611acb91611e44565b608460405162461bcd60e51b815260206004820152602160248201527f657363726f77206163636f756e742073686f756c64206265206465746f6e617460448201527f65000000000000000000000000000000000000000000000000000000000000006064820152fd5b3d8083833e61284181836119e7565b8101906020818303126128eb5780519067ffffffffffffffff82116128e3570181601f820112156128eb57805161287781611a0a565b9361288560405195866119e7565b81855260208086019260051b840101928484116128e75760208101925b8484106128b55750505050505038612462565b835167ffffffffffffffff81116128e3576020916128d888848094870101611ccd565b8152019301926128a2565b8380fd5b5080fd5b8280fd5b919250670de0b6b3a7640000820291808304670de0b6b3a76400001490151715610d2657611acb91611e44565b905038612412565b50670de0b6b3a76400009450505050565b508215612405565b91905061295d9294503d8091833e61295581836119e7565b8101906122d2565b95935050386123f8565b600091925061297f903d8084833e61295581836119e7565b505091505091906123a8565b9061299582611a0a565b6129a260405191826119e7565b828152601f196129b28294611a0a565b0190602036910137565b604051906129c9826119cb565b60606080836000815260006020820152600060408201526000838201520152565b90918015612a5857670de0b6b3a7640000612a2b600092612a1660008097612a106129bc565b97613d05565b50604088015260208701819052908652611e31565b0490825180831015600014612a4a575050612a47915190611e24565b91565b90949350611acb9250611e24565b505050600090600090565b9291926000908415612acd57670de0b6b3a7640000612aa78396612a9260018697612a8c6129bc565b96613d05565b50604087015260208601819052908552611e31565b825191900492508211612ac157612a479293945051611e24565b611acb92505190611e24565b509250508190565b919290928015612b635760ff670de0b6b3a7640000612b1a600093612b0586600099612aff6129bc565b99613d05565b5060408a015260208901819052908852611e31565b049216612b49578251808310612b395750612a47929161266891611e64565b611acb9350611041919594611e64565b825190949392908211612ac157612a479293945051611e24565b50505050600090600090565b60ff6000199116019060ff8211610d2657565b939093929192612b906129bc565b9194612b9b85611e04565b612bae612ba786612b6f565b8284613d05565b9492906020870195606088015260408701528185528552612bd55750505050505090600090565b612be197959697613bd7565b83519451670de0b6b3a7640000810290808204670de0b6b3a76400001490151715610d2657612ca695612c387f878cac0b879164d8647426da983e248a51ef8192a43e4d3bb5b586ca2017ed54928b975190611e44565b604051916101408352612c4f6101408401886131c1565b946020840152612c5e88611e04565b87604084015260046060840152608083015260a08201528760c0820152600060e082015260001961010082015242610120820152806001600160a01b038516930390a2613db9565b9360005b855181101561317c576000612cbe86611e04565b6001861490811561315157506024612cd68389612321565b515b60006001600160a01b0360025416604051938480926320bf56eb60e21b82528560048301525afa9182156105fb57600092613136575b50604082018051906006821015611e0e5760016000921490811561310d575b50612d3f575b50505050600101612caa565b80959192939581938891612d528c611e04565b88806130ff575b156130015750612d8a670de0b6b3a7640000612d8260c0890151610ea38d60e08c015190611e24565b048095611e64565b978886612f2e575b505082608060e088015160e46001600160a01b038454169160405194859384927ff26a3e1d0000000000000000000000000000000000000000000000000000000084528860048501528260248501528b60448501528c606485015282608485015260a48401528160c48401525af1908115612f235784859086928794612e93575b50927febbb264ee0a0ae96eb7f0d3178c3d7cfed75dcb46bf54fb70fa43000eb77d76e98959261012098959260019c9b98955050505060c0612e53613bd7565b960151906040519687526020870152600360408701526060860152608085015260a084015260c083015260e082015242610100820152a190388080612d33565b93505050506080813d8211612f1b575b81612eb0608093836119e7565b810103126128e357927febbb264ee0a0ae96eb7f0d3178c3d7cfed75dcb46bf54fb70fa43000eb77d76e959261012095928560019a999651602082015191612f066060612eff604084016122c5565b92016122c5565b9192909195989b9c5092959850929598612e13565b3d9150612ea3565b6040513d86823e3d90fd5b919891868310612f4d57505084612f4491611e24565b965b3880612d92565b95509791509382978115600014612f6b57505060e085015190612f46565b612f748c611e04565b15612fe057612f9a60c0870191670de0b6b3a764000061208e845160e08b015190611e31565b90670de0b6b3a7640000820291808304670de0b6b3a76400001490151715612fcc5751612fc691611e44565b90612f46565b602484634e487b7160e01b81526011600452fd5b612f9a60c0870191670de0b6b3a76400006121d7845160e08b015190611e31565b939461300c8c611e04565b88806130f1575b156130445750612d8a84670de0b6b3a764000061303d8c610ea360c08c01519160e08d0151611e24565b0496611e64565b949361304f8c611e04565b60028c1480806130e3575b15613083575050612d8a670de0b6b3a7640000612d8260c0890151610ea38d60e08c0151611e24565b90949061308f8d611e04565b806130d5575b6130a4575b84612d8a91611e64565b9450612d8a84670de0b6b3a76400006130cb8c610ea360c08c01519160e08d015190611e24565b049691505061309a565b5060e08701518a1015613095565b5060e08801518b111561305a565b5060e08701518a1115613013565b5060e08701518a1015612d59565b90505160068110156131225760021438612d2d565b602482634e487b7160e01b81526021600452fd5b61314a91923d8091833e6122b681836119e7565b9038612d0e565b61315c838951611e24565b906000198201918211610cc7575061317660249189612321565b51612cd8565b50925050915061318a613c54565b5090600190565b9061319c929161377e565b908181106131b357906131ae91611e24565b600191565b6131bc91611e24565b600091565b90601f19601f6020936131df81518092818752878088019101611caa565b0116010190565b6040906001600160a01b03611acb949316815281602082015201906131c1565b908160e09103126100155760c06040519161322083611999565b805183526020810151602084015260408101516040840152606081015160608401526080810151608084015260a081015160a0840152015160c082015290565b92916132909061326f85613ec5565b92670de0b6b3a76400006132896040860151610ea361404b565b049561377e565b9081928282106132af575b505050509050600090600090600090600090565b906132c96132c293925193849284611e24565b9687611e64565b10156132d5578061329b565b818511156132f157506132e89084611e24565b91600193929190565b9150506001929160009190565b604051906080820182811067ffffffffffffffff8211176119b55760405260006060838281528260208201528260408201520152565b6020818303126100155780519067ffffffffffffffff82116100155701906101e08282031261001557604051916101e0830183811067ffffffffffffffff8211176119b557604052805167ffffffffffffffff8111610015576101c09261339c918301611ccd565b8352602081015160208401526133b460408201611c96565b60408401526133c560608201611c96565b60608401526133d660808201611c96565b60808401526133e760a08201611c96565b60a08401526133f860c08201611c96565b60c084015261340960e08201611c96565b60e08401526101008101516101008401526101208101516101208401526101408101516101408401526101608101516101608401526101808101516101808401526101a08101516101a084015201516101c082015290565b60006001600160a01b0360025416916024604051809481937f0c3fc6b900000000000000000000000000000000000000000000000000000000835260048301525afa9081156105fb57600091613651575b50906101608201514211801561361a575b6136135760608201600181516134d881611e04565b6134e181611e04565b14806135a2575b61359a57600290516134f981611e04565b61350281611e04565b14918261351a575b505061351557600090565b600190565b90915060208101916001835161352f81611e04565b61353881611e04565b14928361358b575b8315613551575b505050388061350a565b6002919293505161356181611e04565b61356a81611e04565b14918261357c575b5050388080613547565b60c00151101590503880613572565b60c08301518210159350613540565b505050600190565b5060208301600181516135b481611e04565b6135bd81611e04565b149081613604575b81156135d2575b506134e8565b60029150516135e081611e04565b6135e981611e04565b14806135f6575b386135cc565b5060c08301518210156135f0565b60c085015184111591506135c5565b5050600090565b506040820180516007811015611e0e5760011415908161363b575b506134c3565b9050516007811015611e0e576002141538613635565b3d8083833e61366081836119e7565b8101906020818303126128eb5780519067ffffffffffffffff82116128e3570190610180828203126128eb5760405192610180840184811067ffffffffffffffff82111761376a576040526136b483611c96565b8452602083015160038110156128e7576020850152604083015160078110156128e7576040850152606083015160038110156128e757606085015260808301519067ffffffffffffffff821161068157508291613715916101609401611ccd565b608084015260a081015160a084015260c081015160c084015260e081015160e08401526101008101516101008401526101208101516101208401526101408101516101408401520151610160820152386134b2565b602482634e487b7160e01b81526041600452fd5b60009392849190825b84518410156137fa576137f185610564866137eb6001956105646137e36137d06137c88c8c6137c1896137ba818e612321565b5192612321565b51916129ea565b969098612321565b516137db8d8c612321565b51908c612a63565b969092611e64565b9a611e64565b93019295613787565b95949350505050565b6001600160a01b031680156138a0576001600160a01b037f9016d09d72d40fdae2fd8ceac6b6234c7706214fd39c1cd1e609a0528c199300548273ffffffffffffffffffffffffffffffffffffffff198216177f9016d09d72d40fdae2fd8ceac6b6234c7706214fd39c1cd1e609a0528c19930055167f8be0079c531659141344cd1fd0a4f28419497f9722a3daafe3b4186f6b6457e0600080a3565b7f1e4fbdf700000000000000000000000000000000000000000000000000000000600052600060045260246000fd5b60249160006001600160a01b0360025416604051948580926320bf56eb60e21b82528660048301525afa9283156105fb57600093613adf575b5060408301928351936006851015611e0e57600160009514908115613aca575b5015613a86578115613a6657602081016001815161394581611e04565b61394e81611e04565b1480613a79575b15613a1f57506139848160c061397b60209560e0670de0b6b3a764000096015190611e24565b91015190611e31565b045b60446001600160a01b038554169360405194859384927fd3c76d66000000000000000000000000000000000000000000000000000000008452600484015260248301525afa918215613a135780926139dd57505090565b9091506020823d602011613a0b575b816139f9602093836119e7565b810103126106815750611acb906122c5565b3d91506139ec565b604051903d90823e3d90fd5b60029051613a2c81611e04565b613a3581611e04565b1480613a6c575b15613a6657613a608160c061397b60209560e0670de0b6b3a7640000960151611e24565b04613986565b50505090565b5060e08101518210613a3c565b5060e08201518311613955565b606460405162461bcd60e51b815260206004820152600d60248201527f496e76616c6964207374617465000000000000000000000000000000000000006044820152fd5b905051600681101561228e5760021438613928565b613af391933d8091833e6122b681836119e7565b9138613908565b9060e460809260006001600160a01b0381541660405196879586947ff26a3e1d000000000000000000000000000000000000000000000000000000008652600486015260016024860152604485015282606485015282608485015260a4840152600160c48401525af180156105fb576000928380938193613b7d575b5093929190565b9450915091506080833d608011613bcf575b81613b9c608093836119e7565b810103126106815750815190602083015190613bc66060613bbf604087016122c5565b95016122c5565b91939238613b76565b3d9150613b8f565b600460206001600160a01b0360025416604051928380927fc3710f250000000000000000000000000000000000000000000000000000000082525afa9081156105fb57600091613c25575090565b90506020813d602011613c4c575b81613c40602093836119e7565b81010312610015575190565b3d9150613c33565b600060206001600160a01b03600254166004604051809481937fb99ac9270000000000000000000000000000000000000000000000000000000083525af19081156105fb57600091613c25575090565b6001600160a01b037f9016d09d72d40fdae2fd8ceac6b6234c7706214fd39c1cd1e609a0528c19930054163303613cd757565b7f118cdaa7000000000000000000000000000000000000000000000000000000006000523360045260246000fd5b90613d48926001600160a01b0360809381600254169260ff604051978896879586956306461a8b60e11b87521660048601526060602486015260648501906131c1565b9116604483015203915afa80156105fb576000928380938193613d6c575093929190565b9450915091506080833d608011613db1575b81613d8b608093836119e7565b810103126106815750815160208301516040840151606090940151909392909138613b76565b3d9150613d7e565b90613e13926001600160a01b03600093816002541692604051968795869485947f0f12fb590000000000000000000000000000000000000000000000000000000086521660048501526060602485015260648401906131c1565b90613e1d81611e04565b604483015203915afa9081156105fb57600091613e38575090565b3d8083833e613e4781836119e7565b8101906020818303126128eb5780519067ffffffffffffffff82116128e3570181601f820112156128eb57805190613e7e82611a0a565b93613e8c60405195866119e7565b82855260208086019360051b8301019384116106815750602001905b828210613eb55750505090565b8151815260209182019101613ea8565b60006080604051613ed5816119cb565b828152826020820152826040820152826060820152015260a06001600160a01b03602481600154169360405194859384927ffb47e0160000000000000000000000000000000000000000000000000000000084521660048301525afa9081156105fb57600091613f43575090565b905060a0813d60a011613fa1575b81613f5e60a093836119e7565b8101031261001557608060405191613f75836119cb565b805183526020810151602084015260408101516040840152606081015160608401520151608082015290565b3d9150613f51565b6020613ff6916001600160a01b036001541660405180809581947f05ca57cf00000000000000000000000000000000000000000000000000000000835286600484015260248301906131c1565b03915afa9081156105fb5760009161400c575090565b6020813d602011614043575b81614025602093836119e7565b810103126128e75751906001600160a01b0382168203610681575090565b3d9150614018565b600460206001600160a01b0360015416604051928380927f89f00b6d0000000000000000000000000000000000000000000000000000000082525afa9081156105fb57600091613c25575090565b90600154916001600160a01b0360009316803b156128e35760c48492836001600160a01b0393608060405197889687957fc9f35c3900000000000000000000000000000000000000000000000000000000875216600486015280516024860152602081015160448601526040810151606486015260608101516084860152015160a48401525af180156126b65761412e575050565b81614138916119e7565b50565b93929091936001600160a01b0360025416604051906320bf56eb60e21b8252826004830152600082602481845afa9182156105fb5760009261436f575b5060408201948551956006871015611e0e57600160009714159081614345575b506143365785906001600160a01b036141b460a0860151613fa9565b16876001600160a01b03600154166024604051809481937fa666200f00000000000000000000000000000000000000000000000000000000835260048301525afa90811561432b5792889260001961010060e4979460609a99978791614311575b50015160c087015190928181106143095750995b03614301575b60206001600160a01b038651169501519b6142498d611e04565b6040519c8d9889977f1b31c071000000000000000000000000000000000000000000000000000000008952600489015260248801528a604488015261428d81611e04565b6064870152608486015260a485015260c48401525af180156126b65782948380926142ba575b5050919392565b9293509450506060843d6060116142f9575b816142d9606093836119e7565b8101031261068157508251906040602085015194015191939138806142b3565b3d91506142cc565b88915061422f565b905099614229565b61432591503d8089833e61089481836119e7565b38614215565b6040513d8a823e3d90fd5b50505050508092509180918190565b905051600681101561435b576002141538614198565b602487634e487b7160e01b81526021600452fd5b61438391923d8091833e6122b681836119e7565b9038614178565b60ff7ff0c57e16840df040f15088dc2f81fe391c3923bec73e23a9662efc9c229c6a005460401c16156143b957565b7fd7e6bcf80000000000000000000000000000000000000000000000000000000060005260046000fdfea2646970667358221220bf92c5220c5c4e873ac382ffa1c5180afdbf5f86844489a321cfbcd57ad3736164736f6c634300081c0033",
  "linkReferences": {},
  "deployedLinkReferences": {}
}