{
  "_format": "hh-sol-artifact-1",
  "contractName": "TradeStation",
  "sourceName": "contracts/TradeStation.sol",
  "abi": [
    {
      "inputs": [],
      "name": "InvalidInitialization",
      "type": "error"
    },
    {
      "inputs": [],
      "name": "NotInitializing",
      "type": "error"
    },
    {
      "inputs": [
        {
          "internalType": "address",
          "name": "owner",
          "type": "address"
        }
      ],
      "name": "OwnableInvalidOwner",
      "type": "error"
    },
    {
      "inputs": [
        {
          "internalType": "address",
          "name": "account",
          "type": "address"
        }
      ],
      "name": "OwnableUnauthorizedAccount",
      "type": "error"
    },
    {
      "anonymous": false,
      "inputs": [
        {
          "indexed": false,
          "internalType": "address",
          "name": "taker",
          "type": "address"
        },
        {
          "indexed": false,
          "internalType": "uint256",
          "name": "amount",
          "type": "uint256"
        },
        {
          "indexed": false,
          "internalType": "uint256",
          "name": "availableAmount",
          "type": "uint256"
        },
        {
          "indexed": false,
          "internalType": "uint256",
          "name": "marginAmount",
          "type": "uint256"
        },
        {
          "indexed": false,
          "internalType": "uint256",
          "name": "locked",
          "type": "uint256"
        },
        {
          "indexed": false,
          "internalType": "uint256",
          "name": "stage",
          "type": "uint256"
        },
        {
          "indexed": false,
          "internalType": "uint256",
          "name": "dif",
          "type": "uint256"
        }
      ],
      "name": "BalanceOfTaker",
      "type": "event"
    },
    {
      "anonymous": false,
      "inputs": [
        {
          "indexed": false,
          "internalType": "string",
          "name": "name",
          "type": "string"
        },
        {
          "indexed": true,
          "internalType": "address",
          "name": "taker",
          "type": "address"
        },
        {
          "indexed": false,
          "internalType": "uint256",
          "name": "orderID",
          "type": "uint256"
        },
        {
          "indexed": false,
          "internalType": "enum ICommon.Direct",
          "name": "orderType",
          "type": "uint8"
        },
        {
          "indexed": false,
          "internalType": "enum IPerpetual.OrderState",
          "name": "state",
          "type": "uint8"
        },
        {
          "indexed": false,
          "internalType": "enum ICommon.Offset",
          "name": "offset",
          "type": "uint8"
        },
        {
          "indexed": false,
          "internalType": "uint256",
          "name": "amount",
          "type": "uint256"
        },
        {
          "indexed": false,
          "internalType": "uint256",
          "name": "targetPrice",
          "type": "uint256"
        },
        {
          "indexed": false,
          "internalType": "uint256",
          "name": "margin",
          "type": "uint256"
        },
        {
          "indexed": false,
          "internalType": "uint256",
          "name": "rewardGas",
          "type": "uint256"
        },
        {
          "indexed": false,
          "internalType": "uint256",
          "name": "tradingFee",
          "type": "uint256"
        },
        {
          "indexed": false,
          "internalType": "uint256",
          "name": "goodTill",
          "type": "uint256"
        }
      ],
      "name": "CreateLimitedOrder",
      "type": "event"
    },
    {
      "anonymous": false,
      "inputs": [
        {
          "indexed": false,
          "internalType": "uint256",
          "name": "limitOrderID",
          "type": "uint256"
        },
        {
          "indexed": false,
          "internalType": "uint256",
          "name": "openLimitPrice",
          "type": "uint256"
        },
        {
          "indexed": false,
          "internalType": "uint256",
          "name": "gainTriggerPrice",
          "type": "uint256"
        },
        {
          "indexed": false,
          "internalType": "uint256",
          "name": "gainLimitPrice",
          "type": "uint256"
        },
        {
          "indexed": false,
          "internalType": "uint256",
          "name": "lossTriggerPrice",
          "type": "uint256"
        },
        {
          "indexed": false,
          "internalType": "uint256",
          "name": "lossLimitPrice",
          "type": "uint256"
        }
      ],
      "name": "CreateTriggerCondition",
      "type": "event"
    },
    {
      "anonymous": false,
      "inputs": [
        {
          "indexed": false,
          "internalType": "uint256",
          "name": "code",
          "type": "uint256"
        },
        {
          "indexed": false,
          "internalType": "uint256",
          "name": "orderID",
          "type": "uint256"
        },
        {
          "indexed": false,
          "internalType": "string",
          "name": "message",
          "type": "string"
        }
      ],
      "name": "ErrorInfo",
      "type": "event"
    },
    {
      "anonymous": false,
      "inputs": [
        {
          "indexed": false,
          "internalType": "uint256",
          "name": "code",
          "type": "uint256"
        },
        {
          "indexed": false,
          "internalType": "uint256",
          "name": "orderID",
          "type": "uint256"
        },
        {
          "indexed": false,
          "internalType": "bytes",
          "name": "message",
          "type": "bytes"
        }
      ],
      "name": "ExceptErrorInfo",
      "type": "event"
    },
    {
      "anonymous": false,
      "inputs": [
        {
          "indexed": false,
          "internalType": "uint64",
          "name": "version",
          "type": "uint64"
        }
      ],
      "name": "Initialized",
      "type": "event"
    },
    {
      "anonymous": false,
      "inputs": [
        {
          "indexed": true,
          "internalType": "address",
          "name": "taker",
          "type": "address"
        },
        {
          "indexed": false,
          "internalType": "string",
          "name": "name",
          "type": "string"
        },
        {
          "indexed": false,
          "internalType": "uint256",
          "name": "orderID",
          "type": "uint256"
        },
        {
          "indexed": false,
          "internalType": "enum ICommon.Direct",
          "name": "direction",
          "type": "uint8"
        },
        {
          "indexed": false,
          "internalType": "enum IPerpetual.OrderType",
          "name": "orderType",
          "type": "uint8"
        },
        {
          "indexed": false,
          "internalType": "uint256",
          "name": "amount",
          "type": "uint256"
        },
        {
          "indexed": false,
          "internalType": "uint256",
          "name": "costPrice",
          "type": "uint256"
        },
        {
          "indexed": false,
          "internalType": "uint256",
          "name": "price",
          "type": "uint256"
        },
        {
          "indexed": false,
          "internalType": "uint256",
          "name": "tradingFee",
          "type": "uint256"
        },
        {
          "indexed": false,
          "internalType": "uint256",
          "name": "limitOrderId",
          "type": "uint256"
        },
        {
          "indexed": false,
          "internalType": "uint256",
          "name": "timestamp",
          "type": "uint256"
        }
      ],
      "name": "OrderHistory",
      "type": "event"
    },
    {
      "anonymous": false,
      "inputs": [
        {
          "indexed": true,
          "internalType": "address",
          "name": "previousOwner",
          "type": "address"
        },
        {
          "indexed": true,
          "internalType": "address",
          "name": "newOwner",
          "type": "address"
        }
      ],
      "name": "OwnershipTransferred",
      "type": "event"
    },
    {
      "anonymous": false,
      "inputs": [
        {
          "indexed": false,
          "internalType": "uint256",
          "name": "orderID",
          "type": "uint256"
        },
        {
          "indexed": false,
          "internalType": "uint256",
          "name": "dealID",
          "type": "uint256"
        },
        {
          "indexed": false,
          "internalType": "enum IPerpetual.TradeType",
          "name": "tradeType",
          "type": "uint8"
        },
        {
          "indexed": false,
          "internalType": "uint256",
          "name": "amount",
          "type": "uint256"
        },
        {
          "indexed": false,
          "internalType": "uint256",
          "name": "price",
          "type": "uint256"
        },
        {
          "indexed": false,
          "internalType": "uint256",
          "name": "tradingFee",
          "type": "uint256"
        },
        {
          "indexed": false,
          "internalType": "uint256",
          "name": "profit",
          "type": "uint256"
        },
        {
          "indexed": false,
          "internalType": "uint256",
          "name": "loss",
          "type": "uint256"
        },
        {
          "indexed": false,
          "internalType": "uint256",
          "name": "timestamp",
          "type": "uint256"
        }
      ],
      "name": "TradeHistory",
      "type": "event"
    },
    {
      "anonymous": false,
      "inputs": [
        {
          "indexed": true,
          "internalType": "address",
          "name": "taker",
          "type": "address"
        },
        {
          "indexed": false,
          "internalType": "enum ICommon.TransactionType",
          "name": "transactionType",
          "type": "uint8"
        },
        {
          "indexed": false,
          "internalType": "uint256",
          "name": "amount",
          "type": "uint256"
        },
        {
          "indexed": false,
          "internalType": "uint256",
          "name": "timestamp",
          "type": "uint256"
        }
      ],
      "name": "TransactionHistory",
      "type": "event"
    },
    {
      "anonymous": false,
      "inputs": [
        {
          "indexed": false,
          "internalType": "address",
          "name": "sender",
          "type": "address"
        },
        {
          "indexed": false,
          "internalType": "address",
          "name": "received",
          "type": "address"
        },
        {
          "indexed": false,
          "internalType": "enum ICommon.TransactionType",
          "name": "transactionType",
          "type": "uint8"
        },
        {
          "indexed": false,
          "internalType": "uint256",
          "name": "amount",
          "type": "uint256"
        },
        {
          "indexed": false,
          "internalType": "uint256",
          "name": "timestamp",
          "type": "uint256"
        }
      ],
      "name": "TransferFee",
      "type": "event"
    },
    {
      "anonymous": false,
      "inputs": [
        {
          "indexed": false,
          "internalType": "address",
          "name": "sender",
          "type": "address"
        },
        {
          "indexed": false,
          "internalType": "uint256",
          "name": "beforeLeverage",
          "type": "uint256"
        },
        {
          "indexed": false,
          "internalType": "uint256",
          "name": "afterLeverage",
          "type": "uint256"
        }
      ],
      "name": "setLeverage",
      "type": "event"
    },
    {
      "stateMutability": "nonpayable",
      "type": "fallback"
    },
    {
      "inputs": [
        {
          "internalType": "address",
          "name": "_taker",
          "type": "address"
        },
        {
          "internalType": "uint256",
          "name": "_deposit",
          "type": "uint256"
        },
        {
          "internalType": "string[]",
          "name": "_pairs",
          "type": "string[]"
        },
        {
          "internalType": "uint256[]",
          "name": "_prices",
          "type": "uint256[]"
        }
      ],
      "name": "clearingTaker",
      "outputs": [
        {
          "internalType": "uint256",
          "name": "remainingDeposit",
          "type": "uint256"
        }
      ],
      "stateMutability": "nonpayable",
      "type": "function"
    },
    {
      "inputs": [
        {
          "internalType": "address",
          "name": "_taker",
          "type": "address"
        },
        {
          "internalType": "string",
          "name": "_name",
          "type": "string"
        },
        {
          "internalType": "uint256",
          "name": "_amount",
          "type": "uint256"
        },
        {
          "internalType": "uint256",
          "name": "_price",
          "type": "uint256"
        },
        {
          "internalType": "enum ICommon.Direct",
          "name": "_type",
          "type": "uint8"
        },
        {
          "internalType": "uint256",
          "name": "_limitID",
          "type": "uint256"
        }
      ],
      "name": "closeOrder",
      "outputs": [],
      "stateMutability": "nonpayable",
      "type": "function"
    },
    {
      "inputs": [
        {
          "internalType": "string",
          "name": "_name",
          "type": "string"
        },
        {
          "internalType": "uint256",
          "name": "_amount",
          "type": "uint256"
        },
        {
          "internalType": "uint256",
          "name": "_orderType",
          "type": "uint256"
        },
        {
          "internalType": "uint256",
          "name": "_price",
          "type": "uint256"
        },
        {
          "internalType": "enum ICommon.Direct",
          "name": "_type",
          "type": "uint8"
        },
        {
          "internalType": "uint256",
          "name": "_goodTill",
          "type": "uint256"
        },
        {
          "internalType": "address",
          "name": "_taker",
          "type": "address"
        },
        {
          "internalType": "uint256",
          "name": "_rewardGas",
          "type": "uint256"
        }
      ],
      "name": "closePosition",
      "outputs": [],
      "stateMutability": "payable",
      "type": "function"
    },
    {
      "inputs": [
        {
          "internalType": "address",
          "name": "initialOwner",
          "type": "address"
        },
        {
          "internalType": "address",
          "name": "_priPool",
          "type": "address"
        },
        {
          "internalType": "address",
          "name": "_perpetual",
          "type": "address"
        }
      ],
      "name": "initialize",
      "outputs": [],
      "stateMutability": "nonpayable",
      "type": "function"
    },
    {
      "inputs": [
        {
          "internalType": "address",
          "name": "_taker",
          "type": "address"
        },
        {
          "internalType": "string",
          "name": "_name",
          "type": "string"
        },
        {
          "internalType": "uint256",
          "name": "_amount",
          "type": "uint256"
        },
        {
          "internalType": "uint256",
          "name": "_price",
          "type": "uint256"
        },
        {
          "internalType": "enum ICommon.Direct",
          "name": "_type",
          "type": "uint8"
        },
        {
          "internalType": "uint256",
          "name": "_goodTill",
          "type": "uint256"
        },
        {
          "internalType": "uint256",
          "name": "_rewardsGas",
          "type": "uint256"
        }
      ],
      "name": "makeOpenLimitOrder",
      "outputs": [],
      "stateMutability": "nonpayable",
      "type": "function"
    },
    {
      "inputs": [
        {
          "internalType": "address",
          "name": "_taker",
          "type": "address"
        },
        {
          "internalType": "string",
          "name": "_name",
          "type": "string"
        },
        {
          "internalType": "uint256",
          "name": "_amount",
          "type": "uint256"
        },
        {
          "internalType": "uint256",
          "name": "_price",
          "type": "uint256"
        },
        {
          "internalType": "enum ICommon.Direct",
          "name": "_type",
          "type": "uint8"
        },
        {
          "internalType": "uint256",
          "name": "limitOrderID",
          "type": "uint256"
        }
      ],
      "name": "openOrder",
      "outputs": [],
      "stateMutability": "nonpayable",
      "type": "function"
    },
    {
      "inputs": [],
      "name": "owner",
      "outputs": [
        {
          "internalType": "address",
          "name": "",
          "type": "address"
        }
      ],
      "stateMutability": "view",
      "type": "function"
    },
    {
      "inputs": [],
      "name": "renounceOwnership",
      "outputs": [],
      "stateMutability": "nonpayable",
      "type": "function"
    },
    {
      "inputs": [
        {
          "internalType": "address",
          "name": "_orderBook",
          "type": "address"
        },
        {
          "internalType": "address",
          "name": "_agent",
          "type": "address"
        }
      ],
      "name": "setKeepers",
      "outputs": [],
      "stateMutability": "nonpayable",
      "type": "function"
    },
    {
      "inputs": [
        {
          "internalType": "string",
          "name": "_name",
          "type": "string"
        },
        {
          "internalType": "uint256",
          "name": "_amount",
          "type": "uint256"
        },
        {
          "internalType": "enum ICommon.Direct",
          "name": "_type",
          "type": "uint8"
        },
        {
          "internalType": "enum ICommon.Offset",
          "name": "_offset",
          "type": "uint8"
        },
        {
          "internalType": "uint256",
          "name": "_param1",
          "type": "uint256"
        },
        {
          "internalType": "uint256",
          "name": "_param2",
          "type": "uint256"
        },
        {
          "internalType": "uint256",
          "name": "_param3",
          "type": "uint256"
        },
        {
          "internalType": "uint256",
          "name": "_param4",
          "type": "uint256"
        },
        {
          "internalType": "uint256",
          "name": "_goodTill",
          "type": "uint256"
        },
        {
          "internalType": "address",
          "name": "_taker",
          "type": "address"
        }
      ],
      "name": "stopTakeOrder",
      "outputs": [],
      "stateMutability": "payable",
      "type": "function"
    },
    {
      "inputs": [
        {
          "internalType": "string",
          "name": "_name",
          "type": "string"
        },
        {
          "internalType": "uint256",
          "name": "_amount",
          "type": "uint256"
        },
        {
          "internalType": "uint256",
          "name": "_price",
          "type": "uint256"
        },
        {
          "internalType": "uint256",
          "name": "_orderType",
          "type": "uint256"
        },
        {
          "internalType": "enum ICommon.Direct",
          "name": "_type",
          "type": "uint8"
        },
        {
          "internalType": "uint256",
          "name": "_goodTill",
          "type": "uint256"
        },
        {
          "internalType": "address",
          "name": "_taker",
          "type": "address"
        },
        {
          "internalType": "uint256",
          "name": "_rewardGas",
          "type": "uint256"
        }
      ],
      "name": "tradeFutures",
      "outputs": [],
      "stateMutability": "payable",
      "type": "function"
    },
    {
      "inputs": [
        {
          "internalType": "address",
          "name": "newOwner",
          "type": "address"
        }
      ],
      "name": "transferOwnership",
      "outputs": [],
      "stateMutability": "nonpayable",
      "type": "function"
    },
    {
      "inputs": [
        {
          "internalType": "uint256",
          "name": "_id",
          "type": "uint256"
        },
        {
          "internalType": "uint256",
          "name": "_currentPrice",
          "type": "uint256"
        }
      ],
      "name": "triggerOrder",
      "outputs": [],
      "stateMutability": "nonpayable",
      "type": "function"
    },
    {
      "inputs": [
        {
          "internalType": "uint256[]",
          "name": "_orderID",
          "type": "uint256[]"
        },
        {
          "internalType": "string[]",
          "name": "_symbols",
          "type": "string[]"
        },
        {
          "internalType": "uint256[]",
          "name": "_prices",
          "type": "uint256[]"
        }
      ],
      "name": "triggerOrders",
      "outputs": [],
      "stateMutability": "nonpayable",
      "type": "function"
    }
  ],
  "bytecode": "0x60808060405234601557614040908161001b8239f35b600080fdfe6080604052600436101561001a575b3461001557005b600080fd5b6000803560e01c8063274889e11461165657806327a119721461161e5780632b0002061461157b578063715018a6146114d55780637295751b146112f85780638da5cb5b146112b2578063ad4a8e3b146110d7578063bcef60d714610e98578063c0c53b8b14610bdd578063c3eea55914610b00578063cd3fd617146108a6578063dcac2e8814610326578063eff6d7c3146100ef5763f2fde38b146100c0575061000e565b346100ec5760206003193601126100ec576100e96100dc611bdb565b6100e4613b01565b6135ec565b80f35b80fd5b506101406003193601126100ec578060043567ffffffffffffffff81116103235761011e903690600401611b94565b6044359060038210156103215760643591600383101561031f576084359060c43592610124356001600160a01b03811680910361031b57338752600460205261016d60ff604089205416611dbb565b61017686611e06565b600186146102c8575b61018886611e06565b60028614610263575b6001600160a01b036002541692833b1561025f5787956101d7956040519889978896879663bfffc8bb60e01b885260048801526101806024880152610184870190611e33565b936101e181611e06565b60448601526101ef81611e06565b6064850152602435608485015260a484015260a43560c484015260e483015260e43561010483015261010435610124830152600161014483015285610164830152039134905af18015610254576102435750f35b8161024d91611b55565b6100ec5780f35b6040513d84823e3d90fd5b8780fd5b955082158015906102bf575b1561027b578695610191565b606460405162461bcd60e51b815260206004820152601b60248201527f636c6f73652074726967676572207072696365206973207a65726f00000000006044820152fd5b5083151561026f565b955082156102d757869561017f565b606460405162461bcd60e51b815260206004820152601a60248201527f6f70656e2074726967676572207072696365206973207a65726f0000000000006044820152fd5b8680fd5b505b505b50fd5b5061033036611c07565b9190969395949295338952600460205261035060ff60408b205416611dbb565b61035a87866136b8565b6001600160a01b0361036b86613e9d565b16896001600160a01b03600154166024604051809481937fa666200f00000000000000000000000000000000000000000000000000000000835260048301525afa801561089b578a9061073d575b6101409150015186106106f9576103cf88613735565b61061f5750506103f99033875260046020526103f160ff604089205416611dbb565b838387613b62565b9161040385613d24565b92602084019384519460608301958651116105db5761043a82519661042e6040860198895190611e58565b84528251905190611e58565b905261045f604082019182519261045760208601948551906120d4565b905288613e08565b6001600160a01b036002541690825160a08751925194015194833b156105d7576104cb604051977f530e011e0000000000000000000000000000000000000000000000000000000089526001600160a01b038c1660048a015261014060248a0152610144890190611e33565b986104d581611e06565b60448801528a988996889687958995879560016064880152608487015260a486015260c485015260e484015261010483015260001961012483015203925af19081156105b65783916105a1575b50506001600160a01b0360015416905190803b1561059d5760405163d1937e3d60e01b81526001600160a01b0385166004820152602481019290925282908290818381604481015b03925af1801561025457610584575b50506100e9906137a0565b8161058e91611b55565b610599578138610579565b5080fd5b8280fd5b816105ab91611b55565b610599578138610522565b6040513d85823e3d90fd5b634e487b7160e01b600052602160045260246000fd5b8a80fd5b606460405162461bcd60e51b815260206004820152601160248201527f6f70656e20696e73756666696369656e740000000000000000000000000000006044820152fd5b9195949395929092338852600460205261063f60ff60408a205416611dbb565b61064b81888489613b62565b9061065587613d24565b97602089019687519760608501988951116106b5576100e99a6106b0998261068361069f9451835190611e58565b9052610697606083019182519051906120d4565b90528a613e08565b60206040850151940151948961380d565b6137a0565b606460405162461bcd60e51b815260206004820152601760248201527f6f70656e206c696d697420696e73756666696369656e740000000000000000006044820152fd5b606460405162461bcd60e51b815260206004820152601560248201527f6f70656e20616d6f756e7420746f6f20736d616c6c00000000000000000000006044820152fd5b503d808b833e61074d8183611b55565b8101906020818303126105d75780519067ffffffffffffffff82116108975701906101e0828203126105d757604051906101e0820182811067ffffffffffffffff8211176108835760405282519267ffffffffffffffff841161087f576107bc6101c092610140958301611e7b565b8352602081015160208401526107d4604082016135d8565b60408401526107e5606082016135d8565b60608401526107f6608082016135d8565b608084015261080760a082016135d8565b60a084015261081860c082016135d8565b60c084015261082960e082016135d8565b60e084015261010081015161010084015261012081015161012084015283810151848401526101608101516101608401526101808101516101808401526101a08101516101a084015201516101c08201526103b9565b8c80fd5b60248d634e487b7160e01b81526041600452fd5b8b80fd5b6040513d8c823e3d90fd5b50346100ec5761091c8160806108bb36611d5f565b939097929691949633835260046020526108db60ff604085205416611dbb565b6001600160a01b036003541694604051998a978896879563cd3fd61760e01b87526001600160a01b038d16600488015260c0602488015260c4870190611e33565b936044860152606485015261093081611e06565b608484015260a483015203925af19182156105b6578392610a9f575b5061095681613d24565b90602082019161096983518551906120d4565b906109b761097d60408701938451906120d4565b928760608801519661099560208a01988951906120d4565b958690818110610a97576109aa929350611e58565b90525b82519051906120d4565b91808310610a535786956109cf87926109ec95611e58565b835260408301805191519091818111610a41575050525b82613e08565b6001600160a01b03600154169151823b1561031f5760405163d1937e3d60e01b81526001600160a01b03909216600483015260248201529082908290818381604481015b03925af18015610254576102435750f35b610a4c929350611e58565b90526109e6565b606460405162461bcd60e51b815260206004820152601260248201527f73686f756c64206265206465746f6e61746500000000000000000000000000006044820152fd5b5050526109ad565b9091506080813d608011610af8575b81610abb60809383611b55565b8101031261059d57606060405191610ad283611aeb565b80518352602081015160208401526040810151604084015201516060820152903861094c565b3d9150610aae565b50346100ec5760e06003193601126100ec57610b1a611bdb565b60243567ffffffffffffffff811161059d57610b3a903690600401611b94565b60443591606435906084356003811015610bd9573386526004602052610b6660ff604088205416611dbb565b610b7283868685613b62565b92610b7c83613d24565b956020870180519760608701988951116106b5576100e99882610ba5610bc19451835190611e58565b9052610bb9606083019182519051906120d4565b905285613e08565b60408501519260c43596602060a4359701519561380d565b8580fd5b50346100ec5760606003193601126100ec57610bf7611bdb565b610bff611bf1565b604435906001600160a01b038216809203610e94577ff0c57e16840df040f15088dc2f81fe391c3923bec73e23a9662efc9c229c6a00549260ff8460401c16159367ffffffffffffffff811680159081610e8c575b6001149081610e82575b159081610e79575b50610e51576001600160a01b039291818660017fffffffffffffffffffffffffffffffffffffffffffffffff0000000000000000610ce19516177ff0c57e16840df040f15088dc2f81fe391c3923bec73e23a9662efc9c229c6a0055610dfc575b50610cd0613fb1565b610cd8613fb1565b6100dc336135ec565b168073ffffffffffffffffffffffffffffffffffffffff198554161784558352600460205260408320600160ff198254161790558073ffffffffffffffffffffffffffffffffffffffff1960015416176001558252600460205260408220600160ff19825416179055308252600460205260408220600160ff19825416179055610d685780f35b7fffffffffffffffffffffffffffffffffffffffffffffff00ffffffffffffffff7ff0c57e16840df040f15088dc2f81fe391c3923bec73e23a9662efc9c229c6a0054167ff0c57e16840df040f15088dc2f81fe391c3923bec73e23a9662efc9c229c6a00557fc7f505b2f371ae2175ee4913f4499e1f2633a7b5936321eed1cdaeb6115181d2602060405160018152a180f35b7fffffffffffffffffffffffffffffffffffffffffffffff0000000000000000001668010000000000000001177ff0c57e16840df040f15088dc2f81fe391c3923bec73e23a9662efc9c229c6a005538610cc7565b6004867ff92ee8a9000000000000000000000000000000000000000000000000000000008152fd5b90501538610c66565b303b159150610c5e565b869150610c54565b8380fd5b50346100ec5760606003193601126100ec5760043567ffffffffffffffff811161059957610eca903690600401611d02565b9060243567ffffffffffffffff811161059957610eeb903690600401611c83565b9060443567ffffffffffffffff811161059957610f0c903690600401611d02565b903381526004602052610f2560ff604083205416611dbb565b80915b84518310156110d3576024610f3d84876135a1565b5191836001600160a01b0360025416604051938480927f0c3fc6b90000000000000000000000000000000000000000000000000000000082528760048301525afa9182156110c85784926110a4575b5060808201610faa8151602085015190610fa582611e06565b6136b8565b610fbd6001600160a01b03845116613735565b8496855b815181101561109557610fd481836135a1565b5160405161100360208281610ff28183019687815193849201611e10565b81010301601f198101835282611b55565b519020835160405161102560208281610ff28183019687815193849201611e10565b5190201461103557600101610fc1565b6110499198508360019694989593506135a1565b51905b811561108d5761107f6001600160a01b039261108694338952600460205261107a60ff60408b205416611dbb565b6120e1565b51166137a0565b0191610f28565b505050611086565b5096905060019391959261104c565b6110c19192503d8086833e6110b98183611b55565b810190611ec0565b9038610f8c565b6040513d86823e3d90fd5b5080f35b50346100ec5761110e6110e936611d5f565b9493959091338852600460205261110660ff60408a205416611dbb565b838786613b62565b9060019061111b85613d24565b96602088019788519760608601988951116105db578a9961115483519a61114860408a019c8d5190611e58565b85528251905190611e58565b9052604082019182519261116e60208901948551906120d4565b905260001982036112a9575b6111849089613e08565b6001600160a01b03600254169386519160a08b519451980151863b1561087f578c9889958c956040519c8d9b8c9a8b997f530e011e000000000000000000000000000000000000000000000000000000008b526001600160a01b031660048b015260248a0161014090526101448a016111fc91611e33565b9761120681611e06565b60448a015260648901611218916135cb565b608488015260a487015260c486015260e485015261010484015261012483015203925af19081156110c8578491611294575b50506001600160a01b03600154169151823b1561031f5760405163d1937e3d60e01b81526001600160a01b0390921660048301526024820152908290829081838160448101610a30565b8161129e91611b55565b61032157823861124a565b6002955061117a565b50346100ec57806003193601126100ec5760206001600160a01b037f9016d09d72d40fdae2fd8ceac6b6234c7706214fd39c1cd1e609a0528c1993005416604051908152f35b50346100ec5760806003193601126100ec57611312611bdb565b9060443567ffffffffffffffff811161059957611333903690600401611c83565b9160643567ffffffffffffffff811161059d57611354903690600401611d02565b92338352600460205261136d60ff604085205416611dbb565b602435916001600160a01b038491165b82518210156114ca5784935b60ff851660028110156114bd576001600160a01b03600254169060016113af86886135a1565b51910160ff81116114a9579161141f898b936113da8960ff60409816966113d588611e06565b6135a1565b51948651978896879586947f9324b5490000000000000000000000000000000000000000000000000000000086528c600487015260a0602487015260a4860190611e33565b9261142981611e06565b60448501526064840152608483015203925af190811561149e578691611459575b50600160ff9195011693611389565b90506040813d8211611496575b8161147360409383611b55565b81010312610bd95760018161148e602060ff945192016120c7565b50915061144a565b3d9150611466565b6040513d88823e3d90fd5b602489634e487b7160e01b81526011600452fd5b509350906001019061137d565b602084604051908152f35b50346100ec57806003193601126100ec576114ee613b01565b806001600160a01b037f9016d09d72d40fdae2fd8ceac6b6234c7706214fd39c1cd1e609a0528c1993005473ffffffffffffffffffffffffffffffffffffffff1981167f9016d09d72d40fdae2fd8ceac6b6234c7706214fd39c1cd1e609a0528c19930055167f8be0079c531659141344cd1fd0a4f28419497f9722a3daafe3b4186f6b6457e08280a380f35b50346100ec5760406003193601126100ec576001600160a01b0361159d611bdb565b816115a6611bf1565b916115af613b01565b16808452600460205260408420600160ff19825416179055808452600460205260408420600160ff1982541617905573ffffffffffffffffffffffffffffffffffffffff1960025416176002551673ffffffffffffffffffffffffffffffffffffffff19600354161760035580f35b50346100ec5760406003193601126100ec57338152600460205261164860ff604083205416611dbb565b6100e96024356004356120e1565b5061166036611c07565b909695929491338952600460205261167e60ff60408b205416611dbb565b61168886886136b8565b604051610100810181811067ffffffffffffffff821117611ad75760405289815260208101908a82528a60408201526060808201528a60808201528a60a08201528a60c08201528a60e08201526001600160a01b03600254166116ea89611e06565b60ff600019818b160111611ac35761175460808b8e936001600160a01b038f8e60ff60001981604051998a98899788977f0c8c3516000000000000000000000000000000000000000000000000000000008952166004880152606060248801526064870190611e33565b93160116604483015203915afa9283156102545782918394611a7e575b5082611784958560408401525252611e58565b8411611a3a57889261179589613735565b6119675750506117fc906080949533825260046020526117bb60ff604084205416611dbb565b6001600160a01b0360035416936040519788968795869463cd3fd61760e01b86526001600160a01b038d16600487015260c0602487015260c4860190611e33565b926044850152606484015261181081611e06565b608483015260001960a483015203925af19081156105b6578391611908575b5061183982613d24565b602081019061184b82518451906120d4565b9061187761185f60408601938451906120d4565b928760608701519561099560208901978851906120d4565b91808310610a5357869461188f86926118ac95611e58565b8352604083018051915190918181116118f6575050525b84613e08565b6001600160a01b0360015416905190803b1561059d5760405163d1937e3d60e01b81526001600160a01b03851660048201526024810192909252829082908183816044810161056a565b611901929350611e58565b90526118a6565b90506080813d60801161195f575b8161192360809383611b55565b8101031261059d5760606040519161193a83611aeb565b805183526020810151602084015260408101516040840152015160608201523861182f565b3d9150611916565b91509193926001600160a01b036002541694853b15611a36576119b36040519763bfffc8bb60e01b89526001600160a01b038a1660048a015261018060248a0152610184890190611e33565b946119bd81611e06565b604488015293889593879593869493859460026064870152608486015260a48501528760c48501528760e48501528761010485015261012484015286610144840152610164830152039134905af180156105b657611a20575b506100e9906137a0565b91611a2f816100e99394611b55565b9190611a16565b8880fd5b606460405162461bcd60e51b815260206004820152601660248201527f636c6f736520616d6f756e7420746f6f206c61726765000000000000000000006044820152fd5b9493509150506080833d608011611abb575b81611a9d60809383611b55565b81010312610897578251602084015160609094015192939182611771565b3d9150611a90565b60248c634e487b7160e01b81526011600452fd5b60248b634e487b7160e01b81526041600452fd5b6080810190811067ffffffffffffffff821117611b0757604052565b634e487b7160e01b600052604160045260246000fd5b60e0810190811067ffffffffffffffff821117611b0757604052565b60a0810190811067ffffffffffffffff821117611b0757604052565b90601f601f19910116810190811067ffffffffffffffff821117611b0757604052565b67ffffffffffffffff8111611b0757601f01601f191660200190565b81601f8201121561001557803590611bab82611b78565b92611bb96040519485611b55565b8284526020838301011161001557816000926020809301838601378301015290565b600435906001600160a01b038216820361001557565b602435906001600160a01b038216820361001557565b610100600319820112610015576004359067ffffffffffffffff821161001557611c3391600401611b94565b906024359060443590606435906084356003811015610015579060a4359060c4356001600160a01b0381168103610015579060e43590565b67ffffffffffffffff8111611b075760051b60200190565b9080601f83011215610015578135611c9a81611c6b565b92611ca86040519485611b55565b81845260208085019260051b820101918383116100155760208201905b838210611cd457505050505090565b813567ffffffffffffffff811161001557602091611cf787848094880101611b94565b815201910190611cc5565b9080601f83011215610015578135611d1981611c6b565b92611d276040519485611b55565b81845260208085019260051b82010192831161001557602001905b828210611d4f5750505090565b8135815260209182019101611d42565b9060c0600319830112610015576004356001600160a01b038116810361001557916024359067ffffffffffffffff821161001557611d9f91600401611b94565b9060443590606435906084356003811015610015579060a43590565b15611dc257565b606460405162461bcd60e51b815260206004820152601c60248201527f63616c6c6572206973206e6f742073746174696f6e206b6565706572000000006044820152fd5b600311156105c157565b60005b838110611e235750506000910152565b8181015183820152602001611e13565b90601f19601f602093611e5181518092818752878088019101611e10565b0116010190565b91908203918211611e6557565b634e487b7160e01b600052601160045260246000fd5b81601f82011215610015578051611e9181611b78565b92611e9f6040519485611b55565b8184526020828401011161001557611ebd9160208085019101611e10565b90565b6020818303126100155780519067ffffffffffffffff8211610015570190610160828203126100155760405191610160830183811067ffffffffffffffff821117611b075760405280516001600160a01b0381168103610015578352602081015160038110156100155760208401526040810151600781101561001557604084015260608101516003811015610015576060840152608081015167ffffffffffffffff81116100155761014092611f78918301611e7b565b608084015260a081015160a084015260c081015160c084015260e081015160e0840152610100810151610100840152610120810151610120840152015161014082015290565b60009060033d11611fcb57565b905060046000803e60005160e01c90565b600060443d10611ebd576040516003193d016004823e8051913d602484011167ffffffffffffffff84111761204b578282019283519167ffffffffffffffff8311612043576003193d850101602084870101116120435750611ebd92910160200190611b55565b949350505050565b92915050565b3d1561207c573d9061206282611b78565b916120706040519384611b55565b82523d6000602084013e565b606090565b92969594916120aa906001600160a01b0360a0969316855260c0602086015260c0850190611e33565b96604084015260608301526120be81611e06565b60808201520152565b5190811515820361001557565b91908201809211611e6557565b906002546001600160a01b0360009116604051927f0c3fc6b90000000000000000000000000000000000000000000000000000000084528460048501528284602481855afa9384156105b6578394613585575b506040519060c0820182811067ffffffffffffffff82111761357157604052838252602082019284845260408301938585526060840191868352608085019287845260a086019188835260c08b6024604051809481937fee32aa2f00000000000000000000000000000000000000000000000000000000835260048301525afa80156135665789908a908b908c80918190613512575b600196508852895285528a52855280885214806134f2575b612dc3575050604460206001600160a01b0360035416604051928380927fe6b34c690000000000000000000000000000000000000000000000000000000082528d60048301528860248301525afa908115612db8578791612d7e575b5061224e575b5050505050505050565b6001845114612702575060c08601918252606086016001815161227081611e06565b61227981611e06565b0361254857506122d26001600160a01b0387511660e0880151906122ab6101008a01516122a583613d24565b936120d4565b602083016122ba8282516120d4565b90526122cb60608401918251611e58565b9052613e08565b6001600160a01b0386511693608087019283519060a0890191825191519760208b019889519061230182611e06565b303b1561089757916123468e8d9593869560405198899687967fad4a8e3b00000000000000000000000000000000000000000000000000000000885260048801612081565b038183305af19182612533575b50506124735750505050505060019061236a611fbe565b6308c379a0146123f6575b5061238b575b50505b3880808080808080612244565b7f4c94adf18d8bfad12d476c7b93150b992bfa3fb9a83d713dd8a97359b7413f82916123c96001600160a01b036123c0612051565b93511682613f3f565b6123ec604051928392600584526020840152606060408401526060830190611e33565b0390a1388061237b565b6123fe611fdc565b908161240b575b50612375565b7f356c1ed0403936d05af0abea05fbda16720ce964f55d7010cee1ba6cd8e1f60a91925061246990926124486001600160a01b0386511687613f3f565b60405191829160058352876020840152606060408401526060830190611e33565b0390a13880612405565b61012088969a99979598019960028b5199511461249f575b5050505050505061249d929350613a9b565b565b825115801590612529575b1561248b57909192939495976124cd6001600160a01b039160011c809c51611e58565b98511694519051916124de83611e06565b5192519351946312cc030042019687421161251557509161249d999a9593916125089795936138c2565b839238808080808061248b565b80634e487b7160e01b602492526011600452fd5b50835115156124aa565b8161253d91611b55565b61025f578738612353565b91935050600291505161255a81611e06565b61256381611e06565b14612572575b5050505061237e565b6001600160a01b0383511660808401519060a0850151925160208601519061259982611e06565b303b15610bd957916125c5888795938695604051988996879663cd3fd61760e01b885260048801612081565b038183305af191826126ed575b50506126de576001906125e3611fbe565b6308c379a014612661575b506125ff575b505038808080612569565b7f4c94adf18d8bfad12d476c7b93150b992bfa3fb9a83d713dd8a97359b7413f82916126346001600160a01b036123c0612051565b612657604051928392600684526020840152606060408401526060830190611e33565b0390a138806125f4565b612669611fdc565b9081612676575b506125ee565b7f356c1ed0403936d05af0abea05fbda16720ce964f55d7010cee1ba6cd8e1f60a9192506126d490926126b36001600160a01b0386511687613f3f565b60405191829160068352876020840152606060408401526060830190611e33565b0390a13880612670565b50610120015161249d91613a9b565b816126f791611b55565b6105995781386125d2565b959397969492506001600160a01b038451169760808501926127378785519b602089019c8d519161273283611e06565b61397d565b6101208601998a51986001606089015161275081611e06565b61275981611e06565b14612772575b505050505050505061249d929350613a9b565b80518015908115612d70575b508015612d47575b8015612d1e575b156129dc57508160c08801526001600160a01b0387511691855160a08901938451928451906127bb82611e06565b303b156105d757916128008d8c9593869560405198899687967fad4a8e3b00000000000000000000000000000000000000000000000000000000885260048801612081565b038183305af191826129c7575b505061293257505050505061249d949550600190612829611fbe565b6308c379a0146128b5575b5061284a575b505b83923880808080808061275f565b6128ac7f4c94adf18d8bfad12d476c7b93150b992bfa3fb9a83d713dd8a97359b7413f829161288b6001600160a01b03612882612051565b92511685613f3f565b60405191829160038352856020840152606060408401526060830190611e33565b0390a13861283a565b6128bd611fdc565b90816128ca575b50612834565b7f356c1ed0403936d05af0abea05fbda16720ce964f55d7010cee1ba6cd8e1f60a91925061292890926129076001600160a01b0386511687613f3f565b60405191829160038352876020840152606060408401526060830190611e33565b0390a138806128c4565b909192939495975061294a8a5160011c809b51611e58565b978351158015906129bd575b61296d575b5050505050505061249d92935061283c565b6001600160a01b03905116945190519161298683611e06565b5192519351946312cc030042019687421161251557509161249d999a9593916129b09795936138c2565b839238808080808061295b565b5084511515612956565b816129d191611b55565b61031b57863861280d565b93959a5090508991936001600160a01b0387511690519060a08801519451925194612a0686611e06565b610140890151303b15610bd957612a5a96869560405198899687967fc3eea559000000000000000000000000000000000000000000000000000000008852600488015260e0602488015260e4870190611e33565b9360448601526064850152612a6e81611e06565b608484015260a48301528a60c4830152038183305af19182612d09575b5050612b9957505061249d9394600190612aa3611fbe565b6308c379a014612b1c575b50612aba575b5061283c565b612b137f4c94adf18d8bfad12d476c7b93150b992bfa3fb9a83d713dd8a97359b7413f8291612af26001600160a01b03612882612051565b60405191829160048352856020840152606060408401526060830190611e33565b0390a138612ab4565b612b24611fdc565b9081612b31575b50612aae565b7f356c1ed0403936d05af0abea05fbda16720ce964f55d7010cee1ba6cd8e1f60a919250612b8f9092612b6e6001600160a01b0386511687613f3f565b60405191829160048352876020840152606060408401526060830190611e33565b0390a13880612b2b565b915092508492815115801590612cff575b612bbc575b505061249d92935061283c565b6001600160a01b0360025416604051927f49138690000000000000000000000000000000000000000000000000000000008452602084600481855afa938415612cf4578894612cc0575b506000198401938411612cac579087929151915193813b15610e94578360e49260405196879586947fbe63309e000000000000000000000000000000000000000000000000000000008652600486015260026024860152836044860152606485015282608485015260a48401528160c48401525af18015612ca157612c8c575b80612baf565b612c97858092611b55565b610e945783612c86565b6040513d87823e3d90fd5b602488634e487b7160e01b81526011600452fd5b9093506020813d602011612cec575b81612cdc60209383611b55565b8101031261001557519238612c06565b3d9150612ccf565b6040513d8a823e3d90fd5b5080511515612baa565b81612d1391611b55565b61025f578738612a8b565b5060028251612d2c81611e06565b612d3581611e06565b14801561278d5750805183101561278d565b5060018251612d5581611e06565b612d5e81611e06565b14801561278657508051831115612786565b905060c0890151143861277e565b90506020813d602011612db0575b81612d9960209383611b55565b8101031261031b57612daa906120c7565b3861223e565b3d9150612d8c565b6040513d89823e3d90fd5b939150969480929450989795985115806134e9575b80156134db575b801561347c575b6133d75780968994835115158061336c575b1561324357505082518015928315613238575b50508115613205575b81156131cf575b50156131c65750506001925b856001600160a01b038351169160808401612e5086825195602088019687519161273283611e06565b610120850180519715612fde57506001600160a01b0385511690519160a0860151945190612e7d82611e06565b303b15612fda57612ea5918891604051978896879663cd3fd61760e01b885260048801612081565b038183305af19081612fc5575b50939461249d94612fbe57600190612ec8611fbe565b6308c379a014612f41575b50612edf575b50613a9b565b612f387f4c94adf18d8bfad12d476c7b93150b992bfa3fb9a83d713dd8a97359b7413f8291612f176001600160a01b03612882612051565b60405191829160018352856020840152606060408401526060830190611e33565b0390a138612ed9565b612f49611fdc565b9081612f56575b50612ed3565b7f356c1ed0403936d05af0abea05fbda16720ce964f55d7010cee1ba6cd8e1f60a919250612fb49092612f936001600160a01b0386511687613f3f565b60405191829160018352876020840152606060408401526060830190611e33565b0390a13880612f50565b5050613a9b565b612fd0878092611b55565b610bd95738612eb2565b8480fd5b91909396612ff19060011c809351611e58565b966001600160a01b0360025416916001600160a01b03875116955191519561301887611e06565b60a08801519661014089015195853b1561025f5761305e9688946040519a8b998a98899763bfffc8bb60e01b895260048901526101806024890152610184880190611e33565b9461306881611e06565b604487015260026064870152608486015260a48501528460c48501528460e4850152846101048501526101248401528361014484015261016483015203925af190816131b1575b50939461249d94612fbe576001906130c5611fbe565b6308c379a014613134575b506130db5750613a9b565b612f387f4c94adf18d8bfad12d476c7b93150b992bfa3fb9a83d713dd8a97359b7413f82916131136001600160a01b03612882612051565b60405191829160028352856020840152606060408401526060830190611e33565b61313c611fdc565b9081613149575b506130d0565b7f356c1ed0403936d05af0abea05fbda16720ce964f55d7010cee1ba6cd8e1f60a9192506131a790926131866001600160a01b0386511687613f3f565b60405191829160028352876020840152606060408401526060830190611e33565b0390a13880613143565b6131bc878092611b55565b610bd957386130af565b90935051612e27565b9050600260208501516131e181611e06565b6131ea81611e06565b1490816131f9575b5038612e1b565b905081511015386131f2565b90506001602085015161321781611e06565b61322081611e06565b148061322d575b90612e14565b508082511115613227565b511491503880612e0b565b925092508151151580613301575b156132f657825180159283156132eb575b505081156132b8575b8115613282575b50156131c6575050600192612e27565b90506002602085015161329481611e06565b61329d81611e06565b1490816132ac575b5038613272565b905081511015386132a5565b9050600160208501516132ca81611e06565b6132d381611e06565b14806132e0575b9061326b565b5080825111156132da565b511491503880613262565b505050505050509050565b50602085016001815161331381611e06565b61331c81611e06565b149081613360575b8115613331575b50613251565b600291505161333f81611e06565b61334881611e06565b1480613355575b3861332b565b50815181101561334f565b83518311159150613324565b50602087016001815161337e81611e06565b61338781611e06565b1490816133cb575b811561339c575b50612df8565b60029150516133aa81611e06565b6133b381611e06565b14806133c0575b38613396565b5083518311156133ba565b8551851015915061338f565b50505050819250613407610120926001600160a01b03839796975116608084015160208501519161273283611e06565b01516001600160a01b036002541691823b15610e945790606484928360405195869485937fac89c79800000000000000000000000000000000000000000000000000000000855260048501526006602485015260448401525af180156102545761346f575050565b8161347991611b55565b50565b5060408501805160078110156134c75760011415908161349d575b50612de6565b90505160078110156134b3576002141538613497565b60248a634e487b7160e01b81526021600452fd5b60248b634e487b7160e01b81526021600452fd5b506101408501514211612ddf565b50835115612dd8565b50600260608a015161350381611e06565b61350c81611e06565b146121e2565b50505050505060c0813d60c01161355e575b8161353160c09383611b55565b81010312611a36578051602082015160408301516060840151608085015160a090950151600195906121ca565b3d9150613524565b6040513d8b823e3d90fd5b602485634e487b7160e01b81526041600452fd5b61359a9194503d8085833e6110b98183611b55565b9238612134565b80518210156135b55760209160051b010190565b634e487b7160e01b600052603260045260246000fd5b9060088210156105c15752565b51906001600160a01b038216820361001557565b6001600160a01b03168015613689576001600160a01b037f9016d09d72d40fdae2fd8ceac6b6234c7706214fd39c1cd1e609a0528c199300548273ffffffffffffffffffffffffffffffffffffffff198216177f9016d09d72d40fdae2fd8ceac6b6234c7706214fd39c1cd1e609a0528c19930055167f8be0079c531659141344cd1fd0a4f28419497f9722a3daafe3b4186f6b6457e0600080a3565b7f1e4fbdf700000000000000000000000000000000000000000000000000000000600052600060045260246000fd5b90600354916001600160a01b036000931690813b15610e94578391613714916040518095819482937fd0e3d0dc000000000000000000000000000000000000000000000000000000008452604060048501526044840190611e33565b9061371e81611e06565b602483015203915afa80156102545761346f575050565b6000906001600160a01b036001541690813b1561059d576001600160a01b03604484928360405195869485937f9048f2e00000000000000000000000000000000000000000000000000000000085521660048401528160248401525af180156102545761346f575050565b600154906001600160a01b036000921690813b1561059d576001600160a01b03604484928360405195869485937f9048f2e0000000000000000000000000000000000000000000000000000000008552166004840152600a60248401525af180156102545761346f575050565b9692979395919490956000986001600160a01b036002541697883b156105d757613860906001600160a01b036040519b63bfffc8bb60e01b8d521660048c015261018060248c01526101848b0190611e33565b9661386a81611e06565b60448a0152600160648a0152608489015260a488015260c487015260e4860187905261010486015261012485015261014484018590526101648401528391839182900390829034905af180156102545761346f575050565b9591939692969490946000976001600160a01b036002541696873b1561397957613915906001600160a01b036040519a63bfffc8bb60e01b8c521660048b015261018060248b01526101848a0190611e33565b9561391f81611e06565b604489015260026064890152608488015260a487015260c4860187905260e4860152610104850186905261012485015260016101448501526101648401528391839182900390829034905af180156102545761346f575050565b8980fd5b6000939260206001600160a01b03600254166004604051809881937fb99ac9270000000000000000000000000000000000000000000000000000000083525af1948515613a8f57600095613a5b575b506139e4604051936101408552610140850190611e33565b9460208401526139f381611e06565b60408301526001600160a01b0382917f878cac0b879164d8647426da983e248a51ef8192a43e4d3bb5b586ca2017ed54946006606085015260006080850152600060a0850152600060c0850152600060e08501526101008401524261012084015216930390a2565b9094506020813d602011613a87575b81613a7760209383611b55565b81010312610015575193386139cc565b3d9150613a6a565b6040513d6000823e3d90fd5b6001600160a01b036002541691823b1561001557604051917fac89c79800000000000000000000000000000000000000000000000000000000835260048301526003602483015260448201525a81606481600080968195f180156102545761346f575050565b6001600160a01b037f9016d09d72d40fdae2fd8ceac6b6234c7706214fd39c1cd1e609a0528c19930054163303613b3457565b7f118cdaa7000000000000000000000000000000000000000000000000000000006000523360045260246000fd5b919091600060c0604051613b7581611b1d565b8281528260208201528260408201528260608201528260808201528260a082015201526001600160a01b0360015416926001600160a01b03604051927fe1fb28b80000000000000000000000000000000000000000000000000000000084521660048301526040602483015260208280613bf26044820185611e33565b0381875afa918215613a8f57600092613ced575b50926084916001600160a01b03613c1e60e096613e9d565b169060405196879586947f07ec446600000000000000000000000000000000000000000000000000000000865260048601526024850152604484015260648301525afa908115613a8f57600091613c73575090565b905060e0813d60e011613ce5575b81613c8e60e09383611b55565b810103126100155760c060405191613ca583611b1d565b805183526020810151602084015260408101516040840152606081015160608401526080810151608084015260a081015160a0840152015160c082015290565b3d9150613c81565b9150926020823d602011613d1c575b81613d0960209383611b55565b81010312610015579051909260e0613c06565b3d9150613cfc565b60006080604051613d3481611b39565b828152826020820152826040820152826060820152015260a06001600160a01b03602481600154169360405194859384927ffb47e0160000000000000000000000000000000000000000000000000000000084521660048301525afa908115613a8f57600091613da2575090565b905060a0813d60a011613e00575b81613dbd60a09383611b55565b8101031261001557608060405191613dd483611b39565b805183526020810151602084015260408101516040840152606081015160608401520151608082015290565b3d9150613db0565b90600154916001600160a01b0360009316803b15610e945760c48492836001600160a01b0393608060405197889687957fc9f35c3900000000000000000000000000000000000000000000000000000000875216600486015280516024860152602081015160448601526040810151606486015260608101516084860152015160a48401525af180156102545761346f575050565b6020613eea916001600160a01b036001541660405180809581947f05ca57cf0000000000000000000000000000000000000000000000000000000083528660048401526024830190611e33565b03915afa908115613a8f57600091613f00575090565b6020813d602011613f37575b81613f1960209383611b55565b810103126105995751906001600160a01b03821682036100ec575090565b3d9150613f0c565b906000916001600160a01b0360035416803b15610e94579160648492836001600160a01b039560405196879586947fc2b3356400000000000000000000000000000000000000000000000000000000865260048601521660248401528160448401525af180156102545761346f575050565b60ff7ff0c57e16840df040f15088dc2f81fe391c3923bec73e23a9662efc9c229c6a005460401c1615613fe057565b7fd7e6bcf80000000000000000000000000000000000000000000000000000000060005260046000fdfea2646970667358221220f76e28a6e66cd775bd3c25f9215baa979a91aa99241675d9bc8d1d1a19e0548864736f6c634300081c0033",
  "linkReferences": {},
  "deployedLinkReferences": {}
}