{
  "_format": "hh-sol-artifact-1",
  "contractName": "Underlying",
  "sourceName": "contracts/Underlying.sol",
  "abi": [
    {
      "inputs": [],
      "name": "InvalidInitialization",
      "type": "error"
    },
    {
      "inputs": [],
      "name": "NotInitializing",
      "type": "error"
    },
    {
      "inputs": [
        {
          "internalType": "address",
          "name": "owner",
          "type": "address"
        }
      ],
      "name": "OwnableInvalidOwner",
      "type": "error"
    },
    {
      "inputs": [
        {
          "internalType": "address",
          "name": "account",
          "type": "address"
        }
      ],
      "name": "OwnableUnauthorizedAccount",
      "type": "error"
    },
    {
      "anonymous": false,
      "inputs": [
        {
          "indexed": false,
          "internalType": "address",
          "name": "taker",
          "type": "address"
        },
        {
          "indexed": false,
          "internalType": "uint256",
          "name": "amount",
          "type": "uint256"
        },
        {
          "indexed": false,
          "internalType": "uint256",
          "name": "availableAmount",
          "type": "uint256"
        },
        {
          "indexed": false,
          "internalType": "uint256",
          "name": "marginAmount",
          "type": "uint256"
        },
        {
          "indexed": false,
          "internalType": "uint256",
          "name": "locked",
          "type": "uint256"
        },
        {
          "indexed": false,
          "internalType": "uint256",
          "name": "stage",
          "type": "uint256"
        },
        {
          "indexed": false,
          "internalType": "uint256",
          "name": "dif",
          "type": "uint256"
        }
      ],
      "name": "BalanceOfTaker",
      "type": "event"
    },
    {
      "anonymous": false,
      "inputs": [
        {
          "indexed": false,
          "internalType": "string",
          "name": "name",
          "type": "string"
        },
        {
          "indexed": true,
          "internalType": "address",
          "name": "taker",
          "type": "address"
        },
        {
          "indexed": false,
          "internalType": "uint256",
          "name": "orderID",
          "type": "uint256"
        },
        {
          "indexed": false,
          "internalType": "enum ICommon.Direct",
          "name": "orderType",
          "type": "uint8"
        },
        {
          "indexed": false,
          "internalType": "enum IPerpetual.OrderState",
          "name": "state",
          "type": "uint8"
        },
        {
          "indexed": false,
          "internalType": "enum ICommon.Offset",
          "name": "offset",
          "type": "uint8"
        },
        {
          "indexed": false,
          "internalType": "uint256",
          "name": "amount",
          "type": "uint256"
        },
        {
          "indexed": false,
          "internalType": "uint256",
          "name": "targetPrice",
          "type": "uint256"
        },
        {
          "indexed": false,
          "internalType": "uint256",
          "name": "margin",
          "type": "uint256"
        },
        {
          "indexed": false,
          "internalType": "uint256",
          "name": "extraFee",
          "type": "uint256"
        },
        {
          "indexed": false,
          "internalType": "uint256",
          "name": "tradingFee",
          "type": "uint256"
        },
        {
          "indexed": false,
          "internalType": "uint256",
          "name": "goodTill",
          "type": "uint256"
        }
      ],
      "name": "CreateLimitedOrder",
      "type": "event"
    },
    {
      "anonymous": false,
      "inputs": [
        {
          "indexed": false,
          "internalType": "uint256",
          "name": "limitOrderID",
          "type": "uint256"
        },
        {
          "indexed": false,
          "internalType": "uint256",
          "name": "openLimitPrice",
          "type": "uint256"
        },
        {
          "indexed": false,
          "internalType": "uint256",
          "name": "gainTriggerPrice",
          "type": "uint256"
        },
        {
          "indexed": false,
          "internalType": "uint256",
          "name": "gainLimitPrice",
          "type": "uint256"
        },
        {
          "indexed": false,
          "internalType": "uint256",
          "name": "lossTriggerPrice",
          "type": "uint256"
        },
        {
          "indexed": false,
          "internalType": "uint256",
          "name": "lossLimitPrice",
          "type": "uint256"
        }
      ],
      "name": "CreateTriggerCondition",
      "type": "event"
    },
    {
      "anonymous": false,
      "inputs": [
        {
          "indexed": false,
          "internalType": "uint256",
          "name": "code",
          "type": "uint256"
        },
        {
          "indexed": false,
          "internalType": "uint256",
          "name": "orderID",
          "type": "uint256"
        },
        {
          "indexed": false,
          "internalType": "string",
          "name": "message",
          "type": "string"
        }
      ],
      "name": "ErrorInfo",
      "type": "event"
    },
    {
      "anonymous": false,
      "inputs": [
        {
          "indexed": false,
          "internalType": "uint256",
          "name": "code",
          "type": "uint256"
        },
        {
          "indexed": false,
          "internalType": "uint256",
          "name": "orderID",
          "type": "uint256"
        },
        {
          "indexed": false,
          "internalType": "bytes",
          "name": "message",
          "type": "bytes"
        }
      ],
      "name": "ExceptErrorInfo",
      "type": "event"
    },
    {
      "anonymous": false,
      "inputs": [
        {
          "indexed": false,
          "internalType": "uint64",
          "name": "version",
          "type": "uint64"
        }
      ],
      "name": "Initialized",
      "type": "event"
    },
    {
      "anonymous": false,
      "inputs": [
        {
          "indexed": true,
          "internalType": "address",
          "name": "taker",
          "type": "address"
        },
        {
          "indexed": false,
          "internalType": "string",
          "name": "name",
          "type": "string"
        },
        {
          "indexed": false,
          "internalType": "uint256",
          "name": "orderID",
          "type": "uint256"
        },
        {
          "indexed": false,
          "internalType": "enum ICommon.Direct",
          "name": "direction",
          "type": "uint8"
        },
        {
          "indexed": false,
          "internalType": "enum IPerpetual.OrderType",
          "name": "orderType",
          "type": "uint8"
        },
        {
          "indexed": false,
          "internalType": "uint256",
          "name": "amount",
          "type": "uint256"
        },
        {
          "indexed": false,
          "internalType": "uint256",
          "name": "costPrice",
          "type": "uint256"
        },
        {
          "indexed": false,
          "internalType": "uint256",
          "name": "price",
          "type": "uint256"
        },
        {
          "indexed": false,
          "internalType": "uint256",
          "name": "tradingFee",
          "type": "uint256"
        },
        {
          "indexed": false,
          "internalType": "uint256",
          "name": "limitOrderId",
          "type": "uint256"
        },
        {
          "indexed": false,
          "internalType": "uint256",
          "name": "timestamp",
          "type": "uint256"
        }
      ],
      "name": "OrderHistory",
      "type": "event"
    },
    {
      "anonymous": false,
      "inputs": [
        {
          "indexed": true,
          "internalType": "address",
          "name": "previousOwner",
          "type": "address"
        },
        {
          "indexed": true,
          "internalType": "address",
          "name": "newOwner",
          "type": "address"
        }
      ],
      "name": "OwnershipTransferred",
      "type": "event"
    },
    {
      "anonymous": false,
      "inputs": [
        {
          "indexed": false,
          "internalType": "uint256",
          "name": "period",
          "type": "uint256"
        },
        {
          "indexed": false,
          "internalType": "uint256",
          "name": "gap",
          "type": "uint256"
        }
      ],
      "name": "SetFuzzyPrice",
      "type": "event"
    },
    {
      "anonymous": false,
      "inputs": [
        {
          "indexed": false,
          "internalType": "address",
          "name": "",
          "type": "address"
        },
        {
          "indexed": false,
          "internalType": "bool",
          "name": "",
          "type": "bool"
        }
      ],
      "name": "SetKeeper",
      "type": "event"
    },
    {
      "anonymous": false,
      "inputs": [
        {
          "indexed": false,
          "internalType": "uint256",
          "name": "orderID",
          "type": "uint256"
        },
        {
          "indexed": false,
          "internalType": "uint256",
          "name": "dealID",
          "type": "uint256"
        },
        {
          "indexed": false,
          "internalType": "enum IPerpetual.TradeType",
          "name": "tradeType",
          "type": "uint8"
        },
        {
          "indexed": false,
          "internalType": "uint256",
          "name": "amount",
          "type": "uint256"
        },
        {
          "indexed": false,
          "internalType": "uint256",
          "name": "price",
          "type": "uint256"
        },
        {
          "indexed": false,
          "internalType": "uint256",
          "name": "tradingFee",
          "type": "uint256"
        },
        {
          "indexed": false,
          "internalType": "uint256",
          "name": "profit",
          "type": "uint256"
        },
        {
          "indexed": false,
          "internalType": "uint256",
          "name": "loss",
          "type": "uint256"
        },
        {
          "indexed": false,
          "internalType": "uint256",
          "name": "timestamp",
          "type": "uint256"
        }
      ],
      "name": "TradeHistory",
      "type": "event"
    },
    {
      "anonymous": false,
      "inputs": [
        {
          "indexed": true,
          "internalType": "address",
          "name": "taker",
          "type": "address"
        },
        {
          "indexed": false,
          "internalType": "enum ICommon.TransactionType",
          "name": "transactionType",
          "type": "uint8"
        },
        {
          "indexed": false,
          "internalType": "uint256",
          "name": "amount",
          "type": "uint256"
        },
        {
          "indexed": false,
          "internalType": "uint256",
          "name": "timestamp",
          "type": "uint256"
        }
      ],
      "name": "TransactionHistory",
      "type": "event"
    },
    {
      "anonymous": false,
      "inputs": [
        {
          "indexed": false,
          "internalType": "address",
          "name": "sender",
          "type": "address"
        },
        {
          "indexed": false,
          "internalType": "address",
          "name": "received",
          "type": "address"
        },
        {
          "indexed": false,
          "internalType": "enum ICommon.TransactionType",
          "name": "transactionType",
          "type": "uint8"
        },
        {
          "indexed": false,
          "internalType": "uint256",
          "name": "amount",
          "type": "uint256"
        },
        {
          "indexed": false,
          "internalType": "uint256",
          "name": "timestamp",
          "type": "uint256"
        }
      ],
      "name": "TransferFee",
      "type": "event"
    },
    {
      "stateMutability": "nonpayable",
      "type": "fallback"
    },
    {
      "inputs": [
        {
          "internalType": "address",
          "name": "_primary",
          "type": "address"
        },
        {
          "internalType": "uint256",
          "name": "_amount",
          "type": "uint256"
        },
        {
          "internalType": "enum ICommon.Direct",
          "name": "_type",
          "type": "uint8"
        },
        {
          "internalType": "uint256",
          "name": "_price",
          "type": "uint256"
        },
        {
          "internalType": "uint256",
          "name": "_leverage",
          "type": "uint256"
        }
      ],
      "name": "getFees",
      "outputs": [
        {
          "components": [
            {
              "internalType": "uint256",
              "name": "total",
              "type": "uint256"
            },
            {
              "internalType": "uint256",
              "name": "marginAmount",
              "type": "uint256"
            },
            {
              "internalType": "uint256",
              "name": "tradingFee",
              "type": "uint256"
            },
            {
              "internalType": "uint256",
              "name": "totalLocked",
              "type": "uint256"
            },
            {
              "internalType": "uint256",
              "name": "currentPrice",
              "type": "uint256"
            },
            {
              "internalType": "uint256",
              "name": "dealPrice",
              "type": "uint256"
            },
            {
              "internalType": "uint256",
              "name": "amount",
              "type": "uint256"
            }
          ],
          "internalType": "struct IPerpetual.Fees",
          "name": "fee",
          "type": "tuple"
        }
      ],
      "stateMutability": "view",
      "type": "function"
    },
    {
      "inputs": [
        {
          "internalType": "address",
          "name": "_primary",
          "type": "address"
        }
      ],
      "name": "getPrice",
      "outputs": [
        {
          "internalType": "uint256",
          "name": "",
          "type": "uint256"
        }
      ],
      "stateMutability": "view",
      "type": "function"
    },
    {
      "inputs": [],
      "name": "getPrice",
      "outputs": [
        {
          "internalType": "uint256",
          "name": "",
          "type": "uint256"
        }
      ],
      "stateMutability": "view",
      "type": "function"
    },
    {
      "inputs": [],
      "name": "getSettleAddress",
      "outputs": [
        {
          "internalType": "address[]",
          "name": "",
          "type": "address[]"
        }
      ],
      "stateMutability": "view",
      "type": "function"
    },
    {
      "inputs": [
        {
          "internalType": "address",
          "name": "_primaryKey",
          "type": "address"
        }
      ],
      "name": "getSettleDetail",
      "outputs": [
        {
          "components": [
            {
              "internalType": "string",
              "name": "name",
              "type": "string"
            },
            {
              "internalType": "uint256",
              "name": "multi",
              "type": "uint256"
            },
            {
              "internalType": "address",
              "name": "settle",
              "type": "address"
            },
            {
              "internalType": "address",
              "name": "primary",
              "type": "address"
            },
            {
              "internalType": "address",
              "name": "privatePool",
              "type": "address"
            },
            {
              "internalType": "address",
              "name": "tradeAgent",
              "type": "address"
            },
            {
              "internalType": "address",
              "name": "orderBook",
              "type": "address"
            },
            {
              "internalType": "address",
              "name": "station",
              "type": "address"
            },
            {
              "internalType": "uint256",
              "name": "tradingFeeRate",
              "type": "uint256"
            },
            {
              "internalType": "uint256",
              "name": "rewardGas",
              "type": "uint256"
            },
            {
              "internalType": "uint256",
              "name": "minOrderAmount",
              "type": "uint256"
            },
            {
              "internalType": "uint256",
              "name": "leverage",
              "type": "uint256"
            },
            {
              "internalType": "uint256",
              "name": "lotMulti",
              "type": "uint256"
            },
            {
              "internalType": "uint256",
              "name": "version",
              "type": "uint256"
            },
            {
              "internalType": "uint256",
              "name": "status",
              "type": "uint256"
            }
          ],
          "internalType": "struct ICommon.PrimaryMultiItem",
          "name": "",
          "type": "tuple"
        }
      ],
      "stateMutability": "view",
      "type": "function"
    },
    {
      "inputs": [],
      "name": "getSettles",
      "outputs": [
        {
          "components": [
            {
              "internalType": "string",
              "name": "name",
              "type": "string"
            },
            {
              "internalType": "uint256",
              "name": "multi",
              "type": "uint256"
            },
            {
              "internalType": "address",
              "name": "settle",
              "type": "address"
            },
            {
              "internalType": "address",
              "name": "primary",
              "type": "address"
            },
            {
              "internalType": "address",
              "name": "privatePool",
              "type": "address"
            },
            {
              "internalType": "address",
              "name": "tradeAgent",
              "type": "address"
            },
            {
              "internalType": "address",
              "name": "orderBook",
              "type": "address"
            },
            {
              "internalType": "address",
              "name": "station",
              "type": "address"
            },
            {
              "internalType": "uint256",
              "name": "tradingFeeRate",
              "type": "uint256"
            },
            {
              "internalType": "uint256",
              "name": "rewardGas",
              "type": "uint256"
            },
            {
              "internalType": "uint256",
              "name": "minOrderAmount",
              "type": "uint256"
            },
            {
              "internalType": "uint256",
              "name": "leverage",
              "type": "uint256"
            },
            {
              "internalType": "uint256",
              "name": "lotMulti",
              "type": "uint256"
            },
            {
              "internalType": "uint256",
              "name": "version",
              "type": "uint256"
            },
            {
              "internalType": "uint256",
              "name": "status",
              "type": "uint256"
            }
          ],
          "internalType": "struct ICommon.PrimaryMultiItem[]",
          "name": "",
          "type": "tuple[]"
        }
      ],
      "stateMutability": "view",
      "type": "function"
    },
    {
      "inputs": [
        {
          "internalType": "address",
          "name": "_initialOwner",
          "type": "address"
        },
        {
          "internalType": "address",
          "name": "_oracle",
          "type": "address"
        },
        {
          "internalType": "string",
          "name": "_name",
          "type": "string"
        }
      ],
      "name": "initialize",
      "outputs": [],
      "stateMutability": "nonpayable",
      "type": "function"
    },
    {
      "inputs": [],
      "name": "name",
      "outputs": [
        {
          "internalType": "string",
          "name": "",
          "type": "string"
        }
      ],
      "stateMutability": "view",
      "type": "function"
    },
    {
      "inputs": [],
      "name": "oracleProxy",
      "outputs": [
        {
          "internalType": "contract IOracleProxy",
          "name": "",
          "type": "address"
        }
      ],
      "stateMutability": "view",
      "type": "function"
    },
    {
      "inputs": [],
      "name": "owner",
      "outputs": [
        {
          "internalType": "address",
          "name": "",
          "type": "address"
        }
      ],
      "stateMutability": "view",
      "type": "function"
    },
    {
      "inputs": [],
      "name": "renounceOwnership",
      "outputs": [],
      "stateMutability": "nonpayable",
      "type": "function"
    },
    {
      "inputs": [
        {
          "internalType": "address",
          "name": "_addr",
          "type": "address"
        },
        {
          "internalType": "bool",
          "name": "_auth",
          "type": "bool"
        }
      ],
      "name": "setKeeper",
      "outputs": [],
      "stateMutability": "nonpayable",
      "type": "function"
    },
    {
      "inputs": [
        {
          "internalType": "address",
          "name": "_oracle",
          "type": "address"
        }
      ],
      "name": "setOracle",
      "outputs": [],
      "stateMutability": "nonpayable",
      "type": "function"
    },
    {
      "inputs": [
        {
          "internalType": "string",
          "name": "_name",
          "type": "string"
        },
        {
          "internalType": "address",
          "name": "_settle",
          "type": "address"
        },
        {
          "internalType": "uint256",
          "name": "_multi",
          "type": "uint256"
        },
        {
          "internalType": "address",
          "name": "_primary",
          "type": "address"
        },
        {
          "internalType": "address",
          "name": "_agent",
          "type": "address"
        },
        {
          "internalType": "address",
          "name": "_private",
          "type": "address"
        },
        {
          "internalType": "address",
          "name": "_orderBook",
          "type": "address"
        },
        {
          "internalType": "address",
          "name": "_station",
          "type": "address"
        }
      ],
      "name": "setSettleMulti",
      "outputs": [],
      "stateMutability": "nonpayable",
      "type": "function"
    },
    {
      "inputs": [
        {
          "internalType": "address",
          "name": "newOwner",
          "type": "address"
        }
      ],
      "name": "transferOwnership",
      "outputs": [],
      "stateMutability": "nonpayable",
      "type": "function"
    },
    {
      "inputs": [
        {
          "internalType": "bytes",
          "name": "reportData",
          "type": "bytes"
        },
        {
          "internalType": "address",
          "name": "_primary",
          "type": "address"
        }
      ],
      "name": "verifyReport",
      "outputs": [
        {
          "internalType": "uint256",
          "name": "verifiedPrice",
          "type": "uint256"
        }
      ],
      "stateMutability": "payable",
      "type": "function"
    }
  ],
  "bytecode": "0x60808060405234601557612135908161001b8239f35b600080fdfe6080604052600436101561001a575b3461001557005b600080fd5b60003560e01c806306fdde0314611783578063167b349e1461175c5780631cb945e11461154c57806335f4e8b214610c6357806341976e0914610c405780634571e3a61461081a578063715018a6146107815780637adbf973146106f75780638da5cb5b146106b157806398d5fdca14610696578063a666200f14610508578063ad74dc7f146102b4578063b3d316c11461024b578063d1b9e853146101c6578063f2fde38b1461019b5763f3840d140361000e5734610015576000600319360112610015576040518060206005549283815201809260056000527f036b6384b5eca791c62761152d0c79bb0604c104a5fb6f4eb0703f3154bb3db09060005b81811061017c57505050816101309103826118b8565b6040519182916020830190602084525180915260408301919060005b81811061015a575050500390f35b82516001600160a01b031684528594506020938401939092019160010161014c565b82546001600160a01b031684526020909301926001928301920161011a565b34610015576020600319360112610015576101c46101b7611b27565b6101bf612045565b611f86565b005b34610015576040600319360112610015576101df611b27565b60243590811515809203610015577f8c2ff6748f99f65f4ebf8a1e973a289bad216c4d5b20fda1940d9e01118ae42a916001600160a01b03604092610222612045565b16908160005260076020528260002060ff1981541660ff831617905582519182526020820152a1005b60406003193601126100155760043567ffffffffffffffff8111610015573660238201121561001557806004013567ffffffffffffffff8111610015573660248284010111610015576020916102ac9160246102a5611b11565b9201611d7b565b604051908152f35b346100155760a0600319360112610015576102cd611b27565b6024359060036044351015610015576040519060643560843560e0840167ffffffffffffffff8111858210176104f25760405260008452602084019460008652604085016000815261048f60608701926000845260808801946000865260a0890196600088526001600160a01b0360c08b019960008b5216600052600660205289604060002091604051926103618461189b565b61036a816118db565b8452600181015460208501526001600160a01b0360028201541660408501526001600160a01b0360038201541660608501526001600160a01b0360048201541660808501526001600160a01b0360058201541660a08501526001600160a01b0360068201541660c08501526001600160a01b0360078201541660e085015260088101549361010081019485526009820154610120820152600a8201546101408201526101c0600e600b840154936101608401948552600c810154610180850152600d8101546101a08501520154910152818a52818b52858c5284156104e7575b509061047e6104606104839361047e9697611c20565b9561046e6004548098611c33565b80935261047e6003548094611c20565b611c33565b8b528951905190611c20565b9687825280519788018098116104d15760e0978352604051965187525160208701525160408601525160608501525160808401525160a08301525160c0820152f35b634e487b7160e01b600052601160045260246000fd5b51935061047e61044a565b634e487b7160e01b600052604160045260246000fd5b34610015576020600319360112610015576001600160a01b03610529611b27565b610531611b55565b50168060005260066020526001604060002001541561065257600052600660205261064e6040600020600e604051916105698361189b565b610572816118db565b8352600181015460208401526001600160a01b0360028201541660408401526001600160a01b0360038201541660608401526001600160a01b0360048201541660808401526001600160a01b0360058201541660a08401526001600160a01b0360068201541660c08401526001600160a01b0360078201541660e084015260088101546101008401526009810154610120840152600a810154610140840152600b810154610160840152600c810154610180840152600d8101546101a084015201546101c08201526040519182916020835260208301906119c7565b0390f35b606460405162461bcd60e51b815260206004820152601760248201527f496e76616c6964207072696d61727920616464726573730000000000000000006044820152fd5b346100155760006003193601126100155760206102ac611cb9565b346100155760006003193601126100155760206001600160a01b037f9016d09d72d40fdae2fd8ceac6b6234c7706214fd39c1cd1e609a0528c1993005416604051908152f35b34610015576020600319360112610015576001600160a01b03610718611b27565b610720612045565b16801561073d576001600160a01b03196001541617600155600080f35b606460405162461bcd60e51b815260206004820152600e60248201527f6f7261636c65206973207a65726f0000000000000000000000000000000000006044820152fd5b346100155760006003193601126100155761079a612045565b60006001600160a01b037f9016d09d72d40fdae2fd8ceac6b6234c7706214fd39c1cd1e609a0528c199300546001600160a01b031981167f9016d09d72d40fdae2fd8ceac6b6234c7706214fd39c1cd1e609a0528c19930055167f8be0079c531659141344cd1fd0a4f28419497f9722a3daafe3b4186f6b6457e08280a3005b3461001557606060031936011261001557610833611b27565b61083b611b11565b9060443567ffffffffffffffff81116100155761085c903690600401611aca565b917ff0c57e16840df040f15088dc2f81fe391c3923bec73e23a9662efc9c229c6a00549160ff8360401c16159267ffffffffffffffff811680159081610c38575b6001149081610c2e575b159081610c25575b50610bfb576001600160a01b0392818560017fffffffffffffffffffffffffffffffffffffffffffffffff0000000000000000879516177ff0c57e16840df040f15088dc2f81fe391c3923bec73e23a9662efc9c229c6a0055610ba6575b506109166120a6565b61091e6120a6565b61092733611f86565b61092f612045565b61093883611f86565b166001600160a01b031960015416176001553360005260076020526040600020600160ff198254161790551660005260076020526040600020600160ff19825416179055815167ffffffffffffffff81116104f257610998600054611861565b601f8111610b0f575b50602092601f8211600114610a8e576109d392938291600092610a83575b50506000198260011b9260031b1c19161790565b6000555b620f4240600355670de0b6b3a76400006004556109f057005b7fffffffffffffffffffffffffffffffffffffffffffffff00ffffffffffffffff7ff0c57e16840df040f15088dc2f81fe391c3923bec73e23a9662efc9c229c6a0054167ff0c57e16840df040f15088dc2f81fe391c3923bec73e23a9662efc9c229c6a00557fc7f505b2f371ae2175ee4913f4499e1f2633a7b5936321eed1cdaeb6115181d2602060405160018152a1005b0151905084806109bf565b601f19821693600080527f290decd9548b62a8d60345a988386fc84ba6bc95484008f6362f93160ef3e5639160005b868110610af75750836001959610610ade575b505050811b016000556109d7565b015160001960f88460031b161c19169055838080610ad0565b91926020600181928685015181550194019201610abd565b610b789060008052601f830160051c7f290decd9548b62a8d60345a988386fc84ba6bc95484008f6362f93160ef3e563019060208410610b7e575b601f0160051c7f290decd9548b62a8d60345a988386fc84ba6bc95484008f6362f93160ef3e5630190611c09565b836109a1565b7f290decd9548b62a8d60345a988386fc84ba6bc95484008f6362f93160ef3e5639150610b4a565b7fffffffffffffffffffffffffffffffffffffffffffffff0000000000000000001668010000000000000001177ff0c57e16840df040f15088dc2f81fe391c3923bec73e23a9662efc9c229c6a00558661090d565b7ff92ee8a90000000000000000000000000000000000000000000000000000000060005260046000fd5b905015866108af565b303b1591506108a7565b85915061089d565b346100155760206003193601126100155760206102ac610c5e611b27565b611c53565b34610015576101006003193601126100155760043567ffffffffffffffff811161001557610c95903690600401611aca565b610c9d611b11565b60443590606435916001600160a01b0383169283810361001557608435906001600160a01b0382168092036100155760a435906001600160a01b0382168092036100155760c435936001600160a01b0385168095036100155760e435956001600160a01b0387168097036100155733600052600760205260ff6040600020541615611508576001600160a01b0316916040517f95d89b41000000000000000000000000000000000000000000000000000000008152600081600481875afa9081156114fc57600091611476575b505115611432578115806112585750876000526006602052600160406000200154156000146110db5760055490680100000000000000008210156104f257610dbb826001610dda9401600555611bc4565b9091906001600160a01b038084549260031b9316831b921b1916179055565b60405197610de78961189b565b885260208801526040870152846060870152608086015260a085015260c084015260e083015266038d7ea4c6800061010083015266038d7ea4c68000610120830152655af3107a40006101408301526064610160830152670de0b6b3a7640000610180830152630134b42f6101a083015260006101c08301526000526006602052604060002090805180519067ffffffffffffffff82116104f257610e8c8454611861565b601f811161109e575b50602090601f831160011461102f57826101c093600e9593610ecc936000926110245750506000198260011b9260031b1c19161790565b84555b602081015160018501556001600160a01b036040820151166001600160a01b036002860191166001600160a01b03198254161790556001600160a01b036060820151166001600160a01b036003860191166001600160a01b03198254161790556001600160a01b036080820151166001600160a01b036004860191166001600160a01b03198254161790556001600160a01b0360a0820151166001600160a01b036005860191166001600160a01b03198254161790556001600160a01b0360c0820151166001600160a01b036006860191166001600160a01b03198254161790556001600160a01b0360e0820151166001600160a01b036007860191166001600160a01b031982541617905561010081015160088501556101208101516009850155610140810151600a850155610160810151600b850155610180810151600c8501556101a0810151600d8501550151910155005b0151905087806109bf565b9084600052806000209160005b601f1985168110611086575092600e94926001926101c09583601f1981161061106d575b505050811b018455610ecf565b015160001960f88460031b161c19169055868080611060565b9192602060018192868501518155019401920161103c565b6110cb90856000526020600020601f850160051c810191602086106110d1575b601f0160051c0190611c09565b84610e95565b90915081906110be565b509094956000939293526006602052604060002094875167ffffffffffffffff81116104f25761110b8754611861565b601f8111611226575b506020601f82116001146111bd5790806111479260079a9b6000926111b25750506000198260011b9260031b1c19161790565b86555b60028601906001600160a01b0319825416179055600185015560058401906001600160a01b031982541617905560048301906001600160a01b031982541617905560068201906001600160a01b031982541617905501906001600160a01b0319825416179055005b015190508b806109bf565b601f1982169988600052816000209a60005b81811061120e57509160079a9b918460019594106111f5575b505050811b01865561114a565b015160001960f88460031b161c191690558a80806111e8565b838301518d556001909c019b602093840193016111cf565b61125290886000526020600020601f840160051c810191602085106110d157601f0160051c0190611c09565b89611114565b9798505050505050505080611418575b61126e57005b600090815b6005548110156113ce57816001600160a01b0361128f83611bc4565b90549060031b1c16146112e657826112ac575b6001905b01611273565b6001600160a01b036112bd82611bc4565b90549060031b1c16908381038181116104d157600192610dbb6112df92611bc4565b90506112a2565b9160001981146104d1576001809101928260005260066020526000600e604082206113118154611861565b8061138d575b50828582015582600282015582600382015582600482015582600582015582600682015582600782015582600882015582600982015582600a82015582600b82015582600c82015582600d820155015561138861137382611bc4565b6001600160a01b0382549160031b1b19169055565b6112a6565b601f811186146113a257508281555b87611317565b818452602084206113bd91601f0160051c8101908701611c09565b80835282602081208183555561139c565b505060005b8181106113dc57005b60055490811561140257600019600192016113f961137382611bc4565b600555016113d3565b634e487b7160e01b600052603160045260246000fd5b508060005260066020526001604060002001541515611268565b606460405162461bcd60e51b815260206004820152601b60248201527f536574746c652061646472657373206973206e6f7420746f6b656e00000000006044820152fd5b903d8082843e61148681846118b8565b8201916020818403126114f45780519067ffffffffffffffff82116114f8570182601f820112156114f4578051916114bd83611aae565b936114cb60405195866118b8565b838552602084840101116114f15750906114eb916020808501910161197f565b8a610d6a565b80fd5b5080fd5b8280fd5b6040513d6000823e3d90fd5b606460405162461bcd60e51b815260206004820152601f60248201527f63616c6c6572206973206e6f7420756e6465726c79696e67206b6565706572006044820152fd5b346100155760006003193601126100155760055461156981611b3d565b9061157760405192836118b8565b808252601f1961158682611b3d565b0160005b81811061174557505060005b81811061162157826040518091602082016020835281518091526040830190602060408260051b8601019301916000905b8282106115d657505050500390f35b91936020611611827fffffffffffffffffffffffffffffffffffffffffffffffffffffffffffffffc0600195979984950301865288516119c7565b96019201920185949391926115c7565b806001600160a01b03611635600193611bc4565b90549060031b1c1660005260066020526040600020600e604051916116598361189b565b611662816118db565b83528481015460208401526001600160a01b0360028201541660408401526001600160a01b0360038201541660608401526001600160a01b0360048201541660808401526001600160a01b0360058201541660a08401526001600160a01b0360068201541660c08401526001600160a01b0360078201541660e084015260088101546101008401526009810154610120840152600a810154610140840152600b810154610160840152600c810154610180840152600d8101546101a084015201546101c08201526117338286611bf5565b5261173e8185611bf5565b5001611596565b602090611750611b55565b8282870101520161158a565b346100155760006003193601126100155760206001600160a01b0360015416604051908152f35b3461001557600060031936011261001557604051600080546117a481611861565b808452906001811690811561183d57506001146117e0575b61064e836117cc818503826118b8565b6040519182916020835260208301906119a2565b60008080527f290decd9548b62a8d60345a988386fc84ba6bc95484008f6362f93160ef3e563939250905b808210611823575090915081016020016117cc6117bc565b91926001816020925483858801015201910190929161180b565b60ff191660208086019190915291151560051b840190910191506117cc90506117bc565b90600182811c92168015611891575b602083101461187b57565b634e487b7160e01b600052602260045260246000fd5b91607f1691611870565b6101e0810190811067ffffffffffffffff8211176104f257604052565b90601f601f19910116810190811067ffffffffffffffff8211176104f257604052565b90604051918260008254926118ef84611861565b808452936001811690811561195d5750600114611916575b50611914925003836118b8565b565b90506000929192526020600020906000915b8183106119415750509060206119149282010138611907565b6020919350806001915483858901015201910190918492611928565b6020935061191495925060ff1991501682840152151560051b82010138611907565b60005b8381106119925750506000910152565b8181015183820152602001611982565b90601f19601f6020936119c08151809281875287808801910161197f565b0116010190565b906101c0806119e184516101e085526101e08501906119a2565b93602081015160208501526001600160a01b0360408201511660408501526001600160a01b0360608201511660608501526001600160a01b0360808201511660808501526001600160a01b0360a08201511660a08501526001600160a01b0360c08201511660c08501526001600160a01b0360e08201511660e08501526101008101516101008501526101208101516101208501526101408101516101408501526101608101516101608501526101808101516101808501526101a08101516101a0850152015191015290565b67ffffffffffffffff81116104f257601f01601f191660200190565b81601f8201121561001557803590611ae182611aae565b92611aef60405194856118b8565b8284526020838301011161001557816000926020809301838601378301015290565b602435906001600160a01b038216820361001557565b600435906001600160a01b038216820361001557565b67ffffffffffffffff81116104f25760051b60200190565b60405190611b628261189b565b60006101c083606081528260208201528260408201528260608201528260808201528260a08201528260c08201528260e08201528261010082015282610120820152826101408201528261016082015282610180820152826101a08201520152565b600554811015611bdf57600560005260206000200190600090565b634e487b7160e01b600052603260045260246000fd5b8051821015611bdf5760209160051b010190565b818110611c14575050565b60008155600101611c09565b818102929181159184041417156104d157565b8115611c3d570490565b634e487b7160e01b600052601260045260246000fd5b6001600160a01b03166000526006602052600160406000200154611c75611cb9565b908015611c9557611c8990611c9292611c20565b60045490611c33565b90565b5090565b9190826040910312610015576020825192015160ff811681036100155790565b60015460ff8160a01c16611d745760406001600160a01b039160048251809481937ffeaf968c000000000000000000000000000000000000000000000000000000008352165afa9081156114fc57600090600092611d3a575b50611d2260ff9160045490611c20565b911690604d82116104d157611c9291600a0a90611c33565b611d22925060ff9150611d649060403d604011611d6d575b611d5c81836118b8565b810190611c99565b92909150611d12565b503d611d52565b5060025490565b60009190600a8211611ede5750505034611e5f575b600460406001600160a01b03600154168151928380927ffeaf968c0000000000000000000000000000000000000000000000000000000082525afa80156114fc57600091600091611e3e575b505b60ff611ded6004548094611c20565b9116604d81116104d1576001600160a01b0391611e0d91600a0a90611c33565b92168015611e395760005260066020526001604060002001548015611e395761047e90611c9293611c20565b505090565b9050611e59915060403d604011611d6d57611d5c81836118b8565b38611ddc565b600080808034325af13d15611ed9573d611e7881611aae565b90611e8660405192836118b8565b8152600060203d92013e5b611d9057606460405162461bcd60e51b815260206004820152600f60248201527f7472616e73666572206661696c656400000000000000000000000000000000006044820152fd5b611e91565b81604091601f9360446001600160a01b036001541692601f198651978896879586947f1af189a400000000000000000000000000000000000000000000000000000000865260206004870152816024870152868601378a8582860101520116810103019134905af1908115611f7b578291611f5a575b50611dde565b9050611f75915060403d604011611d6d57611d5c81836118b8565b38611f54565b6040513d84823e3d90fd5b6001600160a01b03168015612016576001600160a01b037f9016d09d72d40fdae2fd8ceac6b6234c7706214fd39c1cd1e609a0528c19930054826001600160a01b03198216177f9016d09d72d40fdae2fd8ceac6b6234c7706214fd39c1cd1e609a0528c19930055167f8be0079c531659141344cd1fd0a4f28419497f9722a3daafe3b4186f6b6457e0600080a3565b7f1e4fbdf700000000000000000000000000000000000000000000000000000000600052600060045260246000fd5b6001600160a01b037f9016d09d72d40fdae2fd8ceac6b6234c7706214fd39c1cd1e609a0528c1993005416330361207857565b7f118cdaa7000000000000000000000000000000000000000000000000000000006000523360045260246000fd5b60ff7ff0c57e16840df040f15088dc2f81fe391c3923bec73e23a9662efc9c229c6a005460401c16156120d557565b7fd7e6bcf80000000000000000000000000000000000000000000000000000000060005260046000fdfea2646970667358221220dbf6b54ad903c2f42729d60ee68fe0101fc4e3dfc221eeb8d53b760a7e9a772d64736f6c634300081c0033",
  "linkReferences": {},
  "deployedLinkReferences": {}
}