{
  "_format": "hh-sol-artifact-1",
  "contractName": "Underlying",
  "sourceName": "contracts/Underlying.sol",
  "abi": [
    {
      "inputs": [],
      "name": "InvalidInitialization",
      "type": "error"
    },
    {
      "inputs": [],
      "name": "NotInitializing",
      "type": "error"
    },
    {
      "inputs": [
        {
          "internalType": "address",
          "name": "owner",
          "type": "address"
        }
      ],
      "name": "OwnableInvalidOwner",
      "type": "error"
    },
    {
      "inputs": [
        {
          "internalType": "address",
          "name": "account",
          "type": "address"
        }
      ],
      "name": "OwnableUnauthorizedAccount",
      "type": "error"
    },
    {
      "anonymous": false,
      "inputs": [
        {
          "indexed": false,
          "internalType": "address",
          "name": "taker",
          "type": "address"
        },
        {
          "indexed": false,
          "internalType": "uint256",
          "name": "amount",
          "type": "uint256"
        },
        {
          "indexed": false,
          "internalType": "uint256",
          "name": "availableAmount",
          "type": "uint256"
        },
        {
          "indexed": false,
          "internalType": "uint256",
          "name": "marginAmount",
          "type": "uint256"
        },
        {
          "indexed": false,
          "internalType": "uint256",
          "name": "locked",
          "type": "uint256"
        },
        {
          "indexed": false,
          "internalType": "uint256",
          "name": "stage",
          "type": "uint256"
        },
        {
          "indexed": false,
          "internalType": "uint256",
          "name": "dif",
          "type": "uint256"
        }
      ],
      "name": "BalanceOfTaker",
      "type": "event"
    },
    {
      "anonymous": false,
      "inputs": [
        {
          "indexed": false,
          "internalType": "string",
          "name": "name",
          "type": "string"
        },
        {
          "indexed": true,
          "internalType": "address",
          "name": "taker",
          "type": "address"
        },
        {
          "indexed": true,
          "internalType": "address",
          "name": "token",
          "type": "address"
        },
        {
          "indexed": false,
          "internalType": "uint256",
          "name": "orderID",
          "type": "uint256"
        },
        {
          "indexed": false,
          "internalType": "enum ICommon.Direct",
          "name": "orderType",
          "type": "uint8"
        },
        {
          "indexed": false,
          "internalType": "enum IPerpetual.OrderState",
          "name": "state",
          "type": "uint8"
        },
        {
          "indexed": false,
          "internalType": "enum ICommon.Offset",
          "name": "offset",
          "type": "uint8"
        },
        {
          "indexed": false,
          "internalType": "uint256",
          "name": "amount",
          "type": "uint256"
        },
        {
          "indexed": false,
          "internalType": "uint256",
          "name": "targetPrice",
          "type": "uint256"
        },
        {
          "indexed": false,
          "internalType": "uint256",
          "name": "margin",
          "type": "uint256"
        },
        {
          "indexed": false,
          "internalType": "uint256",
          "name": "rewardGas",
          "type": "uint256"
        },
        {
          "indexed": false,
          "internalType": "uint256",
          "name": "tradingFee",
          "type": "uint256"
        },
        {
          "indexed": false,
          "internalType": "uint256",
          "name": "startTime",
          "type": "uint256"
        },
        {
          "indexed": false,
          "internalType": "uint256",
          "name": "goodTill",
          "type": "uint256"
        }
      ],
      "name": "CreateLimitedOrder",
      "type": "event"
    },
    {
      "anonymous": false,
      "inputs": [
        {
          "indexed": false,
          "internalType": "uint256",
          "name": "limitOrderID",
          "type": "uint256"
        },
        {
          "indexed": false,
          "internalType": "uint256",
          "name": "openLimitPrice",
          "type": "uint256"
        },
        {
          "indexed": false,
          "internalType": "uint256",
          "name": "gainTriggerPrice",
          "type": "uint256"
        },
        {
          "indexed": false,
          "internalType": "uint256",
          "name": "gainLimitPrice",
          "type": "uint256"
        },
        {
          "indexed": false,
          "internalType": "uint256",
          "name": "lossTriggerPrice",
          "type": "uint256"
        },
        {
          "indexed": false,
          "internalType": "uint256",
          "name": "lossLimitPrice",
          "type": "uint256"
        }
      ],
      "name": "CreateTriggerCondition",
      "type": "event"
    },
    {
      "anonymous": false,
      "inputs": [
        {
          "indexed": false,
          "internalType": "uint256",
          "name": "code",
          "type": "uint256"
        },
        {
          "indexed": false,
          "internalType": "uint256",
          "name": "orderID",
          "type": "uint256"
        },
        {
          "indexed": false,
          "internalType": "string",
          "name": "message",
          "type": "string"
        }
      ],
      "name": "ErrorInfo",
      "type": "event"
    },
    {
      "anonymous": false,
      "inputs": [
        {
          "indexed": false,
          "internalType": "uint256",
          "name": "code",
          "type": "uint256"
        },
        {
          "indexed": false,
          "internalType": "uint256",
          "name": "orderID",
          "type": "uint256"
        },
        {
          "indexed": false,
          "internalType": "bytes",
          "name": "message",
          "type": "bytes"
        }
      ],
      "name": "ExceptErrorInfo",
      "type": "event"
    },
    {
      "anonymous": false,
      "inputs": [
        {
          "indexed": false,
          "internalType": "uint64",
          "name": "version",
          "type": "uint64"
        }
      ],
      "name": "Initialized",
      "type": "event"
    },
    {
      "anonymous": false,
      "inputs": [
        {
          "indexed": false,
          "internalType": "string",
          "name": "name",
          "type": "string"
        },
        {
          "indexed": true,
          "internalType": "address",
          "name": "taker",
          "type": "address"
        },
        {
          "indexed": true,
          "internalType": "address",
          "name": "token",
          "type": "address"
        },
        {
          "indexed": false,
          "internalType": "uint256",
          "name": "orderID",
          "type": "uint256"
        },
        {
          "indexed": false,
          "internalType": "enum ICommon.Direct",
          "name": "orderType",
          "type": "uint8"
        },
        {
          "indexed": false,
          "internalType": "enum IPerpetual.OrderState",
          "name": "state",
          "type": "uint8"
        },
        {
          "indexed": false,
          "internalType": "enum ICommon.Offset",
          "name": "offset",
          "type": "uint8"
        },
        {
          "indexed": false,
          "internalType": "uint256",
          "name": "amount",
          "type": "uint256"
        },
        {
          "indexed": false,
          "internalType": "uint256",
          "name": "targetPrice",
          "type": "uint256"
        },
        {
          "indexed": false,
          "internalType": "uint256",
          "name": "margin",
          "type": "uint256"
        },
        {
          "indexed": false,
          "internalType": "uint256",
          "name": "rewardGas",
          "type": "uint256"
        },
        {
          "indexed": false,
          "internalType": "uint256",
          "name": "tradingFee",
          "type": "uint256"
        },
        {
          "indexed": false,
          "internalType": "uint256",
          "name": "startTime",
          "type": "uint256"
        },
        {
          "indexed": false,
          "internalType": "uint256",
          "name": "goodTill",
          "type": "uint256"
        }
      ],
      "name": "LimitedOrderHistory",
      "type": "event"
    },
    {
      "anonymous": false,
      "inputs": [
        {
          "indexed": true,
          "internalType": "address",
          "name": "taker",
          "type": "address"
        },
        {
          "indexed": false,
          "internalType": "string",
          "name": "name",
          "type": "string"
        },
        {
          "indexed": false,
          "internalType": "address",
          "name": "token",
          "type": "address"
        },
        {
          "indexed": false,
          "internalType": "uint256",
          "name": "orderID",
          "type": "uint256"
        },
        {
          "indexed": false,
          "internalType": "enum ICommon.Direct",
          "name": "direction",
          "type": "uint8"
        },
        {
          "indexed": false,
          "internalType": "enum IPerpetual.OrderType",
          "name": "orderType",
          "type": "uint8"
        },
        {
          "indexed": false,
          "internalType": "uint256",
          "name": "amount",
          "type": "uint256"
        },
        {
          "indexed": false,
          "internalType": "uint256",
          "name": "costPrice",
          "type": "uint256"
        },
        {
          "indexed": false,
          "internalType": "uint256",
          "name": "price",
          "type": "uint256"
        },
        {
          "indexed": false,
          "internalType": "uint256",
          "name": "tradingFee",
          "type": "uint256"
        },
        {
          "indexed": false,
          "internalType": "uint256",
          "name": "limitOrderId",
          "type": "uint256"
        },
        {
          "indexed": false,
          "internalType": "uint256",
          "name": "timestamp",
          "type": "uint256"
        }
      ],
      "name": "OrderHistory",
      "type": "event"
    },
    {
      "anonymous": false,
      "inputs": [
        {
          "indexed": true,
          "internalType": "address",
          "name": "previousOwner",
          "type": "address"
        },
        {
          "indexed": true,
          "internalType": "address",
          "name": "newOwner",
          "type": "address"
        }
      ],
      "name": "OwnershipTransferred",
      "type": "event"
    },
    {
      "anonymous": false,
      "inputs": [
        {
          "indexed": false,
          "internalType": "uint256",
          "name": "period",
          "type": "uint256"
        },
        {
          "indexed": false,
          "internalType": "uint256",
          "name": "gap",
          "type": "uint256"
        }
      ],
      "name": "SetFuzzyPrice",
      "type": "event"
    },
    {
      "anonymous": false,
      "inputs": [
        {
          "indexed": false,
          "internalType": "address",
          "name": "token",
          "type": "address"
        },
        {
          "indexed": false,
          "internalType": "uint256",
          "name": "orderID",
          "type": "uint256"
        },
        {
          "indexed": false,
          "internalType": "uint256",
          "name": "dealID",
          "type": "uint256"
        },
        {
          "indexed": false,
          "internalType": "enum IPerpetual.TradeType",
          "name": "tradeType",
          "type": "uint8"
        },
        {
          "indexed": false,
          "internalType": "uint256",
          "name": "amount",
          "type": "uint256"
        },
        {
          "indexed": false,
          "internalType": "uint256",
          "name": "price",
          "type": "uint256"
        },
        {
          "indexed": false,
          "internalType": "uint256",
          "name": "tradingFee",
          "type": "uint256"
        },
        {
          "indexed": false,
          "internalType": "uint256",
          "name": "profit",
          "type": "uint256"
        },
        {
          "indexed": false,
          "internalType": "uint256",
          "name": "loss",
          "type": "uint256"
        },
        {
          "indexed": false,
          "internalType": "uint256",
          "name": "timestamp",
          "type": "uint256"
        }
      ],
      "name": "TradeHistory",
      "type": "event"
    },
    {
      "anonymous": false,
      "inputs": [
        {
          "indexed": true,
          "internalType": "address",
          "name": "token",
          "type": "address"
        },
        {
          "indexed": true,
          "internalType": "address",
          "name": "sender",
          "type": "address"
        },
        {
          "indexed": true,
          "internalType": "address",
          "name": "received",
          "type": "address"
        },
        {
          "indexed": false,
          "internalType": "enum ICommon.TransactionType",
          "name": "transactionType",
          "type": "uint8"
        },
        {
          "indexed": false,
          "internalType": "uint256",
          "name": "amount",
          "type": "uint256"
        },
        {
          "indexed": false,
          "internalType": "uint256",
          "name": "timestamp",
          "type": "uint256"
        }
      ],
      "name": "TransactionHistory",
      "type": "event"
    },
    {
      "anonymous": false,
      "inputs": [
        {
          "indexed": false,
          "internalType": "address",
          "name": "token",
          "type": "address"
        },
        {
          "indexed": false,
          "internalType": "address",
          "name": "sender",
          "type": "address"
        },
        {
          "indexed": false,
          "internalType": "address",
          "name": "received",
          "type": "address"
        },
        {
          "indexed": false,
          "internalType": "enum ICommon.TransactionType",
          "name": "transactionType",
          "type": "uint8"
        },
        {
          "indexed": false,
          "internalType": "uint256",
          "name": "amount",
          "type": "uint256"
        },
        {
          "indexed": false,
          "internalType": "uint256",
          "name": "timestamp",
          "type": "uint256"
        }
      ],
      "name": "TransferFee",
      "type": "event"
    },
    {
      "anonymous": false,
      "inputs": [
        {
          "indexed": false,
          "internalType": "address",
          "name": "sender",
          "type": "address"
        },
        {
          "indexed": false,
          "internalType": "string",
          "name": "name",
          "type": "string"
        },
        {
          "indexed": false,
          "internalType": "uint256",
          "name": "beforeLeverage",
          "type": "uint256"
        },
        {
          "indexed": false,
          "internalType": "uint256",
          "name": "afterLeverage",
          "type": "uint256"
        }
      ],
      "name": "setLeverage",
      "type": "event"
    },
    {
      "stateMutability": "nonpayable",
      "type": "fallback"
    },
    {
      "inputs": [
        {
          "internalType": "address",
          "name": "_primary",
          "type": "address"
        },
        {
          "internalType": "uint256",
          "name": "_amount",
          "type": "uint256"
        },
        {
          "internalType": "uint256",
          "name": "_price",
          "type": "uint256"
        },
        {
          "internalType": "uint256",
          "name": "_leverage",
          "type": "uint256"
        }
      ],
      "name": "getFees",
      "outputs": [
        {
          "components": [
            {
              "internalType": "uint256",
              "name": "total",
              "type": "uint256"
            },
            {
              "internalType": "uint256",
              "name": "marginAmount",
              "type": "uint256"
            },
            {
              "internalType": "uint256",
              "name": "tradingFee",
              "type": "uint256"
            },
            {
              "internalType": "uint256",
              "name": "totalLocked",
              "type": "uint256"
            },
            {
              "internalType": "uint256",
              "name": "currentPrice",
              "type": "uint256"
            },
            {
              "internalType": "uint256",
              "name": "dealPrice",
              "type": "uint256"
            },
            {
              "internalType": "uint256",
              "name": "amount",
              "type": "uint256"
            }
          ],
          "internalType": "struct IPerpetual.Fees",
          "name": "fee",
          "type": "tuple"
        }
      ],
      "stateMutability": "view",
      "type": "function"
    },
    {
      "inputs": [
        {
          "internalType": "address",
          "name": "_primary",
          "type": "address"
        }
      ],
      "name": "getPrice",
      "outputs": [
        {
          "internalType": "uint256",
          "name": "",
          "type": "uint256"
        }
      ],
      "stateMutability": "view",
      "type": "function"
    },
    {
      "inputs": [],
      "name": "getPrice",
      "outputs": [
        {
          "internalType": "uint256",
          "name": "",
          "type": "uint256"
        }
      ],
      "stateMutability": "view",
      "type": "function"
    },
    {
      "inputs": [],
      "name": "getSettleAddress",
      "outputs": [
        {
          "internalType": "address[]",
          "name": "",
          "type": "address[]"
        }
      ],
      "stateMutability": "view",
      "type": "function"
    },
    {
      "inputs": [
        {
          "internalType": "address",
          "name": "_primaryKey",
          "type": "address"
        }
      ],
      "name": "getSettleDetail",
      "outputs": [
        {
          "components": [
            {
              "internalType": "string",
              "name": "name",
              "type": "string"
            },
            {
              "internalType": "uint256",
              "name": "multi",
              "type": "uint256"
            },
            {
              "internalType": "address",
              "name": "settle",
              "type": "address"
            },
            {
              "internalType": "address",
              "name": "primary",
              "type": "address"
            },
            {
              "internalType": "address",
              "name": "privatePool",
              "type": "address"
            },
            {
              "internalType": "address",
              "name": "tradeAgent",
              "type": "address"
            },
            {
              "internalType": "address",
              "name": "orderBook",
              "type": "address"
            },
            {
              "internalType": "address",
              "name": "station",
              "type": "address"
            },
            {
              "internalType": "uint256",
              "name": "tradingFeeRate",
              "type": "uint256"
            },
            {
              "internalType": "uint256",
              "name": "rewardGas",
              "type": "uint256"
            },
            {
              "internalType": "uint256",
              "name": "minOrderAmount",
              "type": "uint256"
            },
            {
              "internalType": "uint256",
              "name": "leverage",
              "type": "uint256"
            },
            {
              "internalType": "uint256",
              "name": "lotMulti",
              "type": "uint256"
            },
            {
              "internalType": "uint256",
              "name": "version",
              "type": "uint256"
            },
            {
              "internalType": "uint256",
              "name": "status",
              "type": "uint256"
            }
          ],
          "internalType": "struct ICommon.PrimaryMultiItem",
          "name": "",
          "type": "tuple"
        }
      ],
      "stateMutability": "view",
      "type": "function"
    },
    {
      "inputs": [],
      "name": "getSettles",
      "outputs": [
        {
          "components": [
            {
              "internalType": "string",
              "name": "name",
              "type": "string"
            },
            {
              "internalType": "uint256",
              "name": "multi",
              "type": "uint256"
            },
            {
              "internalType": "address",
              "name": "settle",
              "type": "address"
            },
            {
              "internalType": "address",
              "name": "primary",
              "type": "address"
            },
            {
              "internalType": "address",
              "name": "privatePool",
              "type": "address"
            },
            {
              "internalType": "address",
              "name": "tradeAgent",
              "type": "address"
            },
            {
              "internalType": "address",
              "name": "orderBook",
              "type": "address"
            },
            {
              "internalType": "address",
              "name": "station",
              "type": "address"
            },
            {
              "internalType": "uint256",
              "name": "tradingFeeRate",
              "type": "uint256"
            },
            {
              "internalType": "uint256",
              "name": "rewardGas",
              "type": "uint256"
            },
            {
              "internalType": "uint256",
              "name": "minOrderAmount",
              "type": "uint256"
            },
            {
              "internalType": "uint256",
              "name": "leverage",
              "type": "uint256"
            },
            {
              "internalType": "uint256",
              "name": "lotMulti",
              "type": "uint256"
            },
            {
              "internalType": "uint256",
              "name": "version",
              "type": "uint256"
            },
            {
              "internalType": "uint256",
              "name": "status",
              "type": "uint256"
            }
          ],
          "internalType": "struct ICommon.PrimaryMultiItem[]",
          "name": "",
          "type": "tuple[]"
        }
      ],
      "stateMutability": "view",
      "type": "function"
    },
    {
      "inputs": [
        {
          "internalType": "address",
          "name": "_initialOwner",
          "type": "address"
        },
        {
          "internalType": "address",
          "name": "_oracle",
          "type": "address"
        },
        {
          "internalType": "string",
          "name": "_name",
          "type": "string"
        }
      ],
      "name": "initialize",
      "outputs": [],
      "stateMutability": "nonpayable",
      "type": "function"
    },
    {
      "inputs": [],
      "name": "name",
      "outputs": [
        {
          "internalType": "string",
          "name": "",
          "type": "string"
        }
      ],
      "stateMutability": "view",
      "type": "function"
    },
    {
      "inputs": [],
      "name": "oracleProxy",
      "outputs": [
        {
          "internalType": "contract IOracleProxy",
          "name": "",
          "type": "address"
        }
      ],
      "stateMutability": "view",
      "type": "function"
    },
    {
      "inputs": [],
      "name": "owner",
      "outputs": [
        {
          "internalType": "address",
          "name": "",
          "type": "address"
        }
      ],
      "stateMutability": "view",
      "type": "function"
    },
    {
      "inputs": [],
      "name": "renounceOwnership",
      "outputs": [],
      "stateMutability": "nonpayable",
      "type": "function"
    },
    {
      "inputs": [
        {
          "internalType": "address",
          "name": "_Keeper",
          "type": "address"
        }
      ],
      "name": "setKeeper",
      "outputs": [],
      "stateMutability": "nonpayable",
      "type": "function"
    },
    {
      "inputs": [
        {
          "internalType": "address",
          "name": "_oracle",
          "type": "address"
        }
      ],
      "name": "setOracle",
      "outputs": [],
      "stateMutability": "nonpayable",
      "type": "function"
    },
    {
      "inputs": [
        {
          "components": [
            {
              "internalType": "string",
              "name": "name",
              "type": "string"
            },
            {
              "internalType": "uint256",
              "name": "multi",
              "type": "uint256"
            },
            {
              "internalType": "address",
              "name": "settle",
              "type": "address"
            },
            {
              "internalType": "address",
              "name": "primary",
              "type": "address"
            },
            {
              "internalType": "address",
              "name": "privatePool",
              "type": "address"
            },
            {
              "internalType": "address",
              "name": "tradeAgent",
              "type": "address"
            },
            {
              "internalType": "address",
              "name": "orderBook",
              "type": "address"
            },
            {
              "internalType": "address",
              "name": "station",
              "type": "address"
            },
            {
              "internalType": "uint256",
              "name": "tradingFeeRate",
              "type": "uint256"
            },
            {
              "internalType": "uint256",
              "name": "rewardGas",
              "type": "uint256"
            },
            {
              "internalType": "uint256",
              "name": "minOrderAmount",
              "type": "uint256"
            },
            {
              "internalType": "uint256",
              "name": "leverage",
              "type": "uint256"
            },
            {
              "internalType": "uint256",
              "name": "lotMulti",
              "type": "uint256"
            },
            {
              "internalType": "uint256",
              "name": "version",
              "type": "uint256"
            },
            {
              "internalType": "uint256",
              "name": "status",
              "type": "uint256"
            }
          ],
          "internalType": "struct ICommon.PrimaryMultiItem",
          "name": "item",
          "type": "tuple"
        }
      ],
      "name": "setSettleUnit",
      "outputs": [],
      "stateMutability": "nonpayable",
      "type": "function"
    },
    {
      "inputs": [
        {
          "internalType": "address",
          "name": "_primary",
          "type": "address"
        },
        {
          "internalType": "uint256",
          "name": "_rewardGas",
          "type": "uint256"
        },
        {
          "internalType": "uint256",
          "name": "_leverage",
          "type": "uint256"
        },
        {
          "internalType": "uint256",
          "name": "_feeRate",
          "type": "uint256"
        },
        {
          "internalType": "uint256",
          "name": "_status",
          "type": "uint256"
        }
      ],
      "name": "setSettleUnitParams",
      "outputs": [],
      "stateMutability": "nonpayable",
      "type": "function"
    },
    {
      "inputs": [
        {
          "internalType": "address",
          "name": "newOwner",
          "type": "address"
        }
      ],
      "name": "transferOwnership",
      "outputs": [],
      "stateMutability": "nonpayable",
      "type": "function"
    },
    {
      "inputs": [
        {
          "internalType": "bytes",
          "name": "reportData",
          "type": "bytes"
        },
        {
          "internalType": "address",
          "name": "_primary",
          "type": "address"
        }
      ],
      "name": "verifyReport",
      "outputs": [
        {
          "internalType": "uint256",
          "name": "verifiedPrice",
          "type": "uint256"
        }
      ],
      "stateMutability": "payable",
      "type": "function"
    }
  ],
  "bytecode": "0x60808060405234601557612043908161001b8239f35b600080fdfe6080604052600436101561001a575b3461001557005b600080fd5b60003560e01c806306fdde031461163257806307ec446614611416578063167b349e146113ef5780631cb945e1146111df57806341976e09146111bc5780634571e3a614610d97578063602933ef146106045780636e49c2f61461054a578063715018a6146104b1578063748747e61461046a5780637adbf973146103ce5780638da5cb5b1461038857806398d5fdca1461036d578063a666200f1461023a578063b3d316c1146101d1578063f2fde38b146101a65763f3840d140361000e5734610015576000600319360112610015576040518060206005549283815201809260056000527f036b6384b5eca791c62761152d0c79bb0604c104a5fb6f4eb0703f3154bb3db09060005b818110610187575050508161013b910382611767565b6040519182916020830190602084525180915260408301919060005b818110610165575050500390f35b82516001600160a01b0316845285945060209384019390920191600101610157565b82546001600160a01b0316845260209093019260019283019201610125565b34610015576020600319360112610015576101cf6101c2611876565b6101ca611f53565b611e94565b005b60406003193601126100155760043567ffffffffffffffff8111610015573660238201121561001557806004013567ffffffffffffffff81116100155736602482840101116100155760209161023291602461022b61188c565b9201611c89565b604051908152f35b34610015576020600319360112610015576001600160a01b0361025b611876565b610263611a4b565b501660005260066020526103696040600020600e604051916102848361174a565b61028d8161178a565b8352600181015460208401526001600160a01b0360028201541660408401526001600160a01b0360038201541660608401526001600160a01b0360048201541660808401526001600160a01b0360058201541660a08401526001600160a01b0360068201541660c08401526001600160a01b0360078201541660e084015260088101546101008401526009810154610120840152600a810154610140840152600b810154610160840152600c810154610180840152600d8101546101a084015201546101c08201526040519182916020835260208301906118b6565b0390f35b34610015576000600319360112610015576020610232611bc7565b346100155760006003193601126100155760206001600160a01b037f9016d09d72d40fdae2fd8ceac6b6234c7706214fd39c1cd1e609a0528c1993005416604051908152f35b34610015576020600319360112610015576001600160a01b036103ef611876565b33600052600760205261040960ff60406000205416611b5c565b168015610426576001600160a01b03196001541617600155600080f35b606460405162461bcd60e51b815260206004820152600e60248201527f6f7261636c65206973207a65726f0000000000000000000000000000000000006044820152fd5b34610015576020600319360112610015576001600160a01b0361048b611876565b610493611f53565b1660005260076020526040600020600160ff19825416179055600080f35b34610015576000600319360112610015576104ca611f53565b60006001600160a01b037f9016d09d72d40fdae2fd8ceac6b6234c7706214fd39c1cd1e609a0528c199300546001600160a01b031981167f9016d09d72d40fdae2fd8ceac6b6234c7706214fd39c1cd1e609a0528c19930055167f8be0079c531659141344cd1fd0a4f28419497f9722a3daafe3b4186f6b6457e08280a3005b346100155760a0600319360112610015576001600160a01b0361056b611876565b33600052600760205261058560ff60406000205416611b5c565b16600052600660205260406000206001810154156105c0576024356009820155604435600b8201556064356008820155608435600e90910155005b606460405162461bcd60e51b815260206004820152601460248201527f7072696d617279206973206e6f742065786973740000000000000000000000006044820152fd5b346100155760206003193601126100155760043567ffffffffffffffff8111610015576101e0600319823603011261001557604051906106438261174a565b80600401359067ffffffffffffffff82116100155761066b6101c492600436918401016119b9565b835260248101356020840152610683604482016118a2565b6040840152610694606482016118a2565b60608401526106a5608482016118a2565b60808401526106b660a482016118a2565b60a08401526106c760c482016118a2565b60c08401526106d860e482016118a2565b60e08401526101048101356101008401526101248101356101208401526101448101356101408401526101648101356101608401526101848101356101808401526101a48101356101a084015201356101c082015233600052600760205261074760ff60406000205416611b5c565b602081015161096a576001600160a01b036060602083015192015116901580610950575b61077157005b600090815b60055481101561090657816001600160a01b0361079283611aba565b90549060031b1c161461081e57826107af575b6001905b01610776565b6001600160a01b036107c082611aba565b90549060031b1c1690838103818111610808576001926107e261080192611aba565b9091906001600160a01b038084549260031b9316831b921b1916179055565b90506107a5565b634e487b7160e01b600052601160045260246000fd5b916000198114610808576001809101928260005260066020526000600e604082206108498154611710565b806108c5575b50828582015582600282015582600382015582600482015582600582015582600682015582600782015582600882015582600982015582600a82015582600b82015582600c82015582600d82015501556108c06108ab82611aba565b6001600160a01b0382549160031b1b19169055565b6107a9565b601f811186146108da57508281555b8761084f565b818452602084206108f591601f0160051c8101908701611b45565b8083528260208120818355556108d4565b505060005b81811061091457005b60055490811561093a57600019600192016109316108ab82611aba565b6005550161090b565b634e487b7160e01b600052603160045260246000fd5b50806000526006602052600160406000200154151561076b565b600460006001600160a01b03604084015116604051928380927f95d89b410000000000000000000000000000000000000000000000000000000082525afa908115610d8b57600091610d05575b505115610cc1576001600160a01b03606082015116600052600660205260016040600020015415610c86575b6001600160a01b036060820151166000526006602052604060002090805180519067ffffffffffffffff8211610c7057610a1d8454611710565b601f8111610c33575b50602090601f8311600114610bc457826101c093600e9593610a5e93600092610bb9575b50506000198260011b9260031b1c19161790565b84555b602081015160018501556001600160a01b036040820151166001600160a01b036002860191166001600160a01b03198254161790556001600160a01b036060820151166001600160a01b036003860191166001600160a01b03198254161790556001600160a01b036080820151166001600160a01b036004860191166001600160a01b03198254161790556001600160a01b0360a0820151166001600160a01b036005860191166001600160a01b03198254161790556001600160a01b0360c0820151166001600160a01b036006860191166001600160a01b03198254161790556001600160a01b0360e0820151166001600160a01b036007860191166001600160a01b031982541617905561010081015160088501556101208101516009850155610140810151600a850155610160810151600b850155610180810151600c8501556101a0810151600d8501550151910155600080f35b015190508780610a4a565b9084600052806000209160005b601f1985168110610c1b575092600e94926001926101c09583601f19811610610c02575b505050811b018455610a61565b015160001960f88460031b161c19169055868080610bf5565b91926020600181928685015181550194019201610bd1565b610c6090856000526020600020601f850160051c81019160208610610c66575b601f0160051c0190611b45565b84610a26565b9091508190610c53565b634e487b7160e01b600052604160045260246000fd5b6001600160a01b036060820151166005549068010000000000000000821015610c70576107e2826001610cbc9401600555611aba565b6109e3565b606460405162461bcd60e51b815260206004820152601b60248201527f536574746c652061646472657373206973206e6f7420746f6b656e00000000006044820152fd5b903d8082843e610d158184611767565b820191602081840312610d835780519067ffffffffffffffff8211610d87570182601f82011215610d8357805191610d4c8361199d565b93610d5a6040519586611767565b83855260208484010111610d80575090610d7a916020808501910161182e565b826109b7565b80fd5b5080fd5b8280fd5b6040513d6000823e3d90fd5b3461001557606060031936011261001557610db0611876565b610db861188c565b9060443567ffffffffffffffff811161001557610dd99036906004016119b9565b917ff0c57e16840df040f15088dc2f81fe391c3923bec73e23a9662efc9c229c6a00549160ff8360401c16159267ffffffffffffffff8116801590816111b4575b60011490816111aa575b1590816111a1575b50611177576001600160a01b0392818560017fffffffffffffffffffffffffffffffffffffffffffffffff0000000000000000879516177ff0c57e16840df040f15088dc2f81fe391c3923bec73e23a9662efc9c229c6a0055611122575b50610e93611fb4565b610e9b611fb4565b610ea433611e94565b610eac611f53565b610eb583611e94565b166001600160a01b031960015416176001553360005260076020526040600020600160ff198254161790551660005260076020526040600020600160ff19825416179055815167ffffffffffffffff8111610c7057610f15600054611710565b601f811161108b575b50602092601f821160011461100a57610f4f92938291600092610fff5750506000198260011b9260031b1c19161790565b6000555b620f4240600355670de0b6b3a7640000600455610f6c57005b7fffffffffffffffffffffffffffffffffffffffffffffff00ffffffffffffffff7ff0c57e16840df040f15088dc2f81fe391c3923bec73e23a9662efc9c229c6a0054167ff0c57e16840df040f15088dc2f81fe391c3923bec73e23a9662efc9c229c6a00557fc7f505b2f371ae2175ee4913f4499e1f2633a7b5936321eed1cdaeb6115181d2602060405160018152a1005b015190508480610a4a565b601f19821693600080527f290decd9548b62a8d60345a988386fc84ba6bc95484008f6362f93160ef3e5639160005b868110611073575083600195961061105a575b505050811b01600055610f53565b015160001960f88460031b161c1916905583808061104c565b91926020600181928685015181550194019201611039565b6110f49060008052601f830160051c7f290decd9548b62a8d60345a988386fc84ba6bc95484008f6362f93160ef3e5630190602084106110fa575b601f0160051c7f290decd9548b62a8d60345a988386fc84ba6bc95484008f6362f93160ef3e5630190611b45565b83610f1e565b7f290decd9548b62a8d60345a988386fc84ba6bc95484008f6362f93160ef3e56391506110c6565b7fffffffffffffffffffffffffffffffffffffffffffffff0000000000000000001668010000000000000001177ff0c57e16840df040f15088dc2f81fe391c3923bec73e23a9662efc9c229c6a005586610e8a565b7ff92ee8a90000000000000000000000000000000000000000000000000000000060005260046000fd5b90501586610e2c565b303b159150610e24565b859150610e1a565b346100155760206003193601126100155760206102326111da611876565b611aff565b34610015576000600319360112610015576005546111fc81611a33565b9061120a6040519283611767565b808252601f1961121982611a33565b0160005b8181106113d857505060005b8181106112b457826040518091602082016020835281518091526040830190602060408260051b8601019301916000905b82821061126957505050500390f35b919360206112a4827fffffffffffffffffffffffffffffffffffffffffffffffffffffffffffffffc0600195979984950301865288516118b6565b960192019201859493919261125a565b806001600160a01b036112c8600193611aba565b90549060031b1c1660005260066020526040600020600e604051916112ec8361174a565b6112f58161178a565b83528481015460208401526001600160a01b0360028201541660408401526001600160a01b0360038201541660608401526001600160a01b0360048201541660808401526001600160a01b0360058201541660a08401526001600160a01b0360068201541660c08401526001600160a01b0360078201541660e084015260088101546101008401526009810154610120840152600a810154610140840152600b810154610160840152600c810154610180840152600d8101546101a084015201546101c08201526113c68286611aeb565b526113d18185611aeb565b5001611229565b6020906113e3611a4b565b8282870101520161121d565b346100155760006003193601126100155760206001600160a01b0360015416604051908152f35b346100155760806003193601126100155761142f611876565b6040516024359160443560643560e0840167ffffffffffffffff811185821017610c70576040526000845260208401946000865260408501600081526115e560608701926000845260808801946000865260a0890196600088526001600160a01b0360c08b019960008b5216600052600660205289604060002091604051926114b78461174a565b6114c08161178a565b8452600181015460208501526001600160a01b0360028201541660408501526001600160a01b0360038201541660608501526001600160a01b0360048201541660808501526001600160a01b0360058201541660a08501526001600160a01b0360068201541660c08501526001600160a01b0360078201541660e085015260088101549361010081019485526009820154610120820152600a8201546101408201526101c0600e600b840154936101608401948552600c810154610180850152600d8101546101a08501520154910152818a52818b52858c528415611627575b50906115d46115b66115d9936115d49697611a00565b956115c46004548098611a13565b8093526115d46003548094611a00565b611a13565b8b528951905190611a00565b9687825280519788018098116108085760e0978352604051965187525160208701525160408601525160608501525160808401525160a08301525160c0820152f35b5193506115d46115a0565b34610015576000600319360112610015576040516000805461165381611710565b80845290600181169081156116ec575060011461168f575b6103698361167b81850382611767565b604051918291602083526020830190611851565b60008080527f290decd9548b62a8d60345a988386fc84ba6bc95484008f6362f93160ef3e563939250905b8082106116d25750909150810160200161167b61166b565b9192600181602092548385880101520191019092916116ba565b60ff191660208086019190915291151560051b8401909101915061167b905061166b565b90600182811c92168015611740575b602083101461172a57565b634e487b7160e01b600052602260045260246000fd5b91607f169161171f565b6101e0810190811067ffffffffffffffff821117610c7057604052565b90601f601f19910116810190811067ffffffffffffffff821117610c7057604052565b906040519182600082549261179e84611710565b808452936001811690811561180c57506001146117c5575b506117c392500383611767565b565b90506000929192526020600020906000915b8183106117f05750509060206117c392820101386117b6565b60209193508060019154838589010152019101909184926117d7565b602093506117c395925060ff1991501682840152151560051b820101386117b6565b60005b8381106118415750506000910152565b8181015183820152602001611831565b90601f19601f60209361186f8151809281875287808801910161182e565b0116010190565b600435906001600160a01b038216820361001557565b602435906001600160a01b038216820361001557565b35906001600160a01b038216820361001557565b906101c0806118d084516101e085526101e0850190611851565b93602081015160208501526001600160a01b0360408201511660408501526001600160a01b0360608201511660608501526001600160a01b0360808201511660808501526001600160a01b0360a08201511660a08501526001600160a01b0360c08201511660c08501526001600160a01b0360e08201511660e08501526101008101516101008501526101208101516101208501526101408101516101408501526101608101516101608501526101808101516101808501526101a08101516101a0850152015191015290565b67ffffffffffffffff8111610c7057601f01601f191660200190565b81601f82011215610015578035906119d08261199d565b926119de6040519485611767565b8284526020838301011161001557816000926020809301838601378301015290565b8181029291811591840414171561080857565b8115611a1d570490565b634e487b7160e01b600052601260045260246000fd5b67ffffffffffffffff8111610c705760051b60200190565b60405190611a588261174a565b60006101c083606081528260208201528260408201528260608201528260808201528260a08201528260c08201528260e08201528261010082015282610120820152826101408201528261016082015282610180820152826101a08201520152565b600554811015611ad557600560005260206000200190600090565b634e487b7160e01b600052603260045260246000fd5b8051821015611ad55760209160051b010190565b6001600160a01b03166000526006602052600160406000200154611b21611bc7565b908015611b4157611b3590611b3e92611a00565b60045490611a13565b90565b5090565b818110611b50575050565b60008155600101611b45565b15611b6357565b606460405162461bcd60e51b815260206004820152601f60248201527f63616c6c6572206973206e6f7420756e6465726c79696e67206b6565706572006044820152fd5b9190826040910312610015576020825192015160ff811681036100155790565b60015460ff8160a01c16611c825760406001600160a01b039160048251809481937ffeaf968c000000000000000000000000000000000000000000000000000000008352165afa908115610d8b57600090600092611c48575b50611c3060ff9160045490611a00565b911690604d821161080857611b3e91600a0a90611a13565b611c30925060ff9150611c729060403d604011611c7b575b611c6a8183611767565b810190611ba7565b92909150611c20565b503d611c60565b5060025490565b60009190600a8211611dec5750505034611d6d575b600460406001600160a01b03600154168151928380927ffeaf968c0000000000000000000000000000000000000000000000000000000082525afa8015610d8b57600091600091611d4c575b505b60ff611cfb6004548094611a00565b9116604d8111610808576001600160a01b0391611d1b91600a0a90611a13565b92168015611d475760005260066020526001604060002001548015611d47576115d490611b3e93611a00565b505090565b9050611d67915060403d604011611c7b57611c6a8183611767565b38611cea565b600080808034325af13d15611de7573d611d868161199d565b90611d946040519283611767565b8152600060203d92013e5b611c9e57606460405162461bcd60e51b815260206004820152600f60248201527f7472616e73666572206661696c656400000000000000000000000000000000006044820152fd5b611d9f565b81604091601f9360446001600160a01b036001541692601f198651978896879586947f1af189a400000000000000000000000000000000000000000000000000000000865260206004870152816024870152868601378a8582860101520116810103019134905af1908115611e89578291611e68575b50611cec565b9050611e83915060403d604011611c7b57611c6a8183611767565b38611e62565b6040513d84823e3d90fd5b6001600160a01b03168015611f24576001600160a01b037f9016d09d72d40fdae2fd8ceac6b6234c7706214fd39c1cd1e609a0528c19930054826001600160a01b03198216177f9016d09d72d40fdae2fd8ceac6b6234c7706214fd39c1cd1e609a0528c19930055167f8be0079c531659141344cd1fd0a4f28419497f9722a3daafe3b4186f6b6457e0600080a3565b7f1e4fbdf700000000000000000000000000000000000000000000000000000000600052600060045260246000fd5b6001600160a01b037f9016d09d72d40fdae2fd8ceac6b6234c7706214fd39c1cd1e609a0528c19930054163303611f8657565b7f118cdaa7000000000000000000000000000000000000000000000000000000006000523360045260246000fd5b60ff7ff0c57e16840df040f15088dc2f81fe391c3923bec73e23a9662efc9c229c6a005460401c1615611fe357565b7fd7e6bcf80000000000000000000000000000000000000000000000000000000060005260046000fdfea2646970667358221220c2cbb268eb67d308fe6ce3b27f8d0ef35ab26fcbf03c6f199c8dbe7837e5030a64736f6c634300081c0033",
  "linkReferences": {},
  "deployedLinkReferences": {}
}