{
  "_format": "hh-sol-artifact-1",
  "contractName": "Underlying",
  "sourceName": "contracts/Underlying.sol",
  "abi": [
    {
      "inputs": [],
      "name": "InvalidInitialization",
      "type": "error"
    },
    {
      "inputs": [],
      "name": "NotInitializing",
      "type": "error"
    },
    {
      "inputs": [
        {
          "internalType": "address",
          "name": "owner",
          "type": "address"
        }
      ],
      "name": "OwnableInvalidOwner",
      "type": "error"
    },
    {
      "inputs": [
        {
          "internalType": "address",
          "name": "account",
          "type": "address"
        }
      ],
      "name": "OwnableUnauthorizedAccount",
      "type": "error"
    },
    {
      "anonymous": false,
      "inputs": [
        {
          "indexed": false,
          "internalType": "address",
          "name": "taker",
          "type": "address"
        },
        {
          "indexed": false,
          "internalType": "uint256",
          "name": "amount",
          "type": "uint256"
        },
        {
          "indexed": false,
          "internalType": "uint256",
          "name": "availableAmount",
          "type": "uint256"
        },
        {
          "indexed": false,
          "internalType": "uint256",
          "name": "marginAmount",
          "type": "uint256"
        },
        {
          "indexed": false,
          "internalType": "uint256",
          "name": "locked",
          "type": "uint256"
        },
        {
          "indexed": false,
          "internalType": "uint256",
          "name": "stage",
          "type": "uint256"
        },
        {
          "indexed": false,
          "internalType": "uint256",
          "name": "dif",
          "type": "uint256"
        }
      ],
      "name": "BalanceOfTaker",
      "type": "event"
    },
    {
      "anonymous": false,
      "inputs": [
        {
          "indexed": false,
          "internalType": "string",
          "name": "name",
          "type": "string"
        },
        {
          "indexed": true,
          "internalType": "address",
          "name": "taker",
          "type": "address"
        },
        {
          "indexed": true,
          "internalType": "address",
          "name": "token",
          "type": "address"
        },
        {
          "indexed": false,
          "internalType": "uint256",
          "name": "orderID",
          "type": "uint256"
        },
        {
          "indexed": false,
          "internalType": "enum ICommon.Direct",
          "name": "orderType",
          "type": "uint8"
        },
        {
          "indexed": false,
          "internalType": "enum IPerpetual.OrderState",
          "name": "state",
          "type": "uint8"
        },
        {
          "indexed": false,
          "internalType": "enum ICommon.Offset",
          "name": "offset",
          "type": "uint8"
        },
        {
          "indexed": false,
          "internalType": "uint256",
          "name": "amount",
          "type": "uint256"
        },
        {
          "indexed": false,
          "internalType": "uint256",
          "name": "targetPrice",
          "type": "uint256"
        },
        {
          "indexed": false,
          "internalType": "uint256",
          "name": "margin",
          "type": "uint256"
        },
        {
          "indexed": false,
          "internalType": "uint256",
          "name": "rewardGas",
          "type": "uint256"
        },
        {
          "indexed": false,
          "internalType": "uint256",
          "name": "tradingFee",
          "type": "uint256"
        },
        {
          "indexed": false,
          "internalType": "uint256",
          "name": "startTime",
          "type": "uint256"
        },
        {
          "indexed": false,
          "internalType": "uint256",
          "name": "goodTill",
          "type": "uint256"
        }
      ],
      "name": "CreateLimitedOrder",
      "type": "event"
    },
    {
      "anonymous": false,
      "inputs": [
        {
          "indexed": false,
          "internalType": "uint256",
          "name": "limitOrderID",
          "type": "uint256"
        },
        {
          "indexed": false,
          "internalType": "uint256",
          "name": "openLimitPrice",
          "type": "uint256"
        },
        {
          "indexed": false,
          "internalType": "uint256",
          "name": "gainTriggerPrice",
          "type": "uint256"
        },
        {
          "indexed": false,
          "internalType": "uint256",
          "name": "gainLimitPrice",
          "type": "uint256"
        },
        {
          "indexed": false,
          "internalType": "uint256",
          "name": "lossTriggerPrice",
          "type": "uint256"
        },
        {
          "indexed": false,
          "internalType": "uint256",
          "name": "lossLimitPrice",
          "type": "uint256"
        }
      ],
      "name": "CreateTriggerCondition",
      "type": "event"
    },
    {
      "anonymous": false,
      "inputs": [
        {
          "indexed": false,
          "internalType": "uint256",
          "name": "code",
          "type": "uint256"
        },
        {
          "indexed": false,
          "internalType": "uint256",
          "name": "orderID",
          "type": "uint256"
        },
        {
          "indexed": false,
          "internalType": "string",
          "name": "message",
          "type": "string"
        }
      ],
      "name": "ErrorInfo",
      "type": "event"
    },
    {
      "anonymous": false,
      "inputs": [
        {
          "indexed": false,
          "internalType": "uint256",
          "name": "code",
          "type": "uint256"
        },
        {
          "indexed": false,
          "internalType": "uint256",
          "name": "orderID",
          "type": "uint256"
        },
        {
          "indexed": false,
          "internalType": "bytes",
          "name": "message",
          "type": "bytes"
        }
      ],
      "name": "ExceptErrorInfo",
      "type": "event"
    },
    {
      "anonymous": false,
      "inputs": [
        {
          "indexed": false,
          "internalType": "uint64",
          "name": "version",
          "type": "uint64"
        }
      ],
      "name": "Initialized",
      "type": "event"
    },
    {
      "anonymous": false,
      "inputs": [
        {
          "indexed": false,
          "internalType": "string",
          "name": "name",
          "type": "string"
        },
        {
          "indexed": true,
          "internalType": "address",
          "name": "taker",
          "type": "address"
        },
        {
          "indexed": true,
          "internalType": "address",
          "name": "token",
          "type": "address"
        },
        {
          "indexed": false,
          "internalType": "uint256",
          "name": "orderID",
          "type": "uint256"
        },
        {
          "indexed": false,
          "internalType": "enum ICommon.Direct",
          "name": "orderType",
          "type": "uint8"
        },
        {
          "indexed": false,
          "internalType": "enum IPerpetual.OrderState",
          "name": "state",
          "type": "uint8"
        },
        {
          "indexed": false,
          "internalType": "enum ICommon.Offset",
          "name": "offset",
          "type": "uint8"
        },
        {
          "indexed": false,
          "internalType": "uint256",
          "name": "amount",
          "type": "uint256"
        },
        {
          "indexed": false,
          "internalType": "uint256",
          "name": "targetPrice",
          "type": "uint256"
        },
        {
          "indexed": false,
          "internalType": "uint256",
          "name": "margin",
          "type": "uint256"
        },
        {
          "indexed": false,
          "internalType": "uint256",
          "name": "rewardGas",
          "type": "uint256"
        },
        {
          "indexed": false,
          "internalType": "uint256",
          "name": "tradingFee",
          "type": "uint256"
        },
        {
          "indexed": false,
          "internalType": "uint256",
          "name": "startTime",
          "type": "uint256"
        },
        {
          "indexed": false,
          "internalType": "uint256",
          "name": "goodTill",
          "type": "uint256"
        }
      ],
      "name": "LimitedOrderHistory",
      "type": "event"
    },
    {
      "anonymous": false,
      "inputs": [
        {
          "indexed": true,
          "internalType": "address",
          "name": "taker",
          "type": "address"
        },
        {
          "indexed": false,
          "internalType": "string",
          "name": "name",
          "type": "string"
        },
        {
          "indexed": false,
          "internalType": "address",
          "name": "token",
          "type": "address"
        },
        {
          "indexed": false,
          "internalType": "uint256",
          "name": "orderID",
          "type": "uint256"
        },
        {
          "indexed": false,
          "internalType": "enum ICommon.Direct",
          "name": "direction",
          "type": "uint8"
        },
        {
          "indexed": false,
          "internalType": "enum IPerpetual.OrderType",
          "name": "orderType",
          "type": "uint8"
        },
        {
          "indexed": false,
          "internalType": "uint256",
          "name": "amount",
          "type": "uint256"
        },
        {
          "indexed": false,
          "internalType": "uint256",
          "name": "costPrice",
          "type": "uint256"
        },
        {
          "indexed": false,
          "internalType": "uint256",
          "name": "price",
          "type": "uint256"
        },
        {
          "indexed": false,
          "internalType": "uint256",
          "name": "tradingFee",
          "type": "uint256"
        },
        {
          "indexed": false,
          "internalType": "uint256",
          "name": "limitOrderId",
          "type": "uint256"
        },
        {
          "indexed": false,
          "internalType": "uint256",
          "name": "timestamp",
          "type": "uint256"
        }
      ],
      "name": "OrderHistory",
      "type": "event"
    },
    {
      "anonymous": false,
      "inputs": [
        {
          "indexed": true,
          "internalType": "address",
          "name": "previousOwner",
          "type": "address"
        },
        {
          "indexed": true,
          "internalType": "address",
          "name": "newOwner",
          "type": "address"
        }
      ],
      "name": "OwnershipTransferred",
      "type": "event"
    },
    {
      "anonymous": false,
      "inputs": [
        {
          "indexed": false,
          "internalType": "uint256",
          "name": "period",
          "type": "uint256"
        },
        {
          "indexed": false,
          "internalType": "uint256",
          "name": "gap",
          "type": "uint256"
        }
      ],
      "name": "SetFuzzyPrice",
      "type": "event"
    },
    {
      "anonymous": false,
      "inputs": [
        {
          "indexed": false,
          "internalType": "address",
          "name": "token",
          "type": "address"
        },
        {
          "indexed": false,
          "internalType": "uint256",
          "name": "orderID",
          "type": "uint256"
        },
        {
          "indexed": false,
          "internalType": "uint256",
          "name": "dealID",
          "type": "uint256"
        },
        {
          "indexed": false,
          "internalType": "enum IPerpetual.TradeType",
          "name": "tradeType",
          "type": "uint8"
        },
        {
          "indexed": false,
          "internalType": "uint256",
          "name": "amount",
          "type": "uint256"
        },
        {
          "indexed": false,
          "internalType": "uint256",
          "name": "price",
          "type": "uint256"
        },
        {
          "indexed": false,
          "internalType": "uint256",
          "name": "tradingFee",
          "type": "uint256"
        },
        {
          "indexed": false,
          "internalType": "uint256",
          "name": "profit",
          "type": "uint256"
        },
        {
          "indexed": false,
          "internalType": "uint256",
          "name": "loss",
          "type": "uint256"
        },
        {
          "indexed": false,
          "internalType": "uint256",
          "name": "timestamp",
          "type": "uint256"
        }
      ],
      "name": "TradeHistory",
      "type": "event"
    },
    {
      "anonymous": false,
      "inputs": [
        {
          "indexed": true,
          "internalType": "address",
          "name": "token",
          "type": "address"
        },
        {
          "indexed": true,
          "internalType": "address",
          "name": "sender",
          "type": "address"
        },
        {
          "indexed": true,
          "internalType": "address",
          "name": "received",
          "type": "address"
        },
        {
          "indexed": false,
          "internalType": "enum ICommon.TransactionType",
          "name": "transactionType",
          "type": "uint8"
        },
        {
          "indexed": false,
          "internalType": "uint256",
          "name": "amount",
          "type": "uint256"
        },
        {
          "indexed": false,
          "internalType": "uint256",
          "name": "timestamp",
          "type": "uint256"
        }
      ],
      "name": "TransactionHistory",
      "type": "event"
    },
    {
      "anonymous": false,
      "inputs": [
        {
          "indexed": false,
          "internalType": "address",
          "name": "token",
          "type": "address"
        },
        {
          "indexed": false,
          "internalType": "address",
          "name": "sender",
          "type": "address"
        },
        {
          "indexed": false,
          "internalType": "address",
          "name": "received",
          "type": "address"
        },
        {
          "indexed": false,
          "internalType": "enum ICommon.TransactionType",
          "name": "transactionType",
          "type": "uint8"
        },
        {
          "indexed": false,
          "internalType": "uint256",
          "name": "amount",
          "type": "uint256"
        },
        {
          "indexed": false,
          "internalType": "uint256",
          "name": "timestamp",
          "type": "uint256"
        }
      ],
      "name": "TransferFee",
      "type": "event"
    },
    {
      "anonymous": false,
      "inputs": [
        {
          "indexed": false,
          "internalType": "address",
          "name": "sender",
          "type": "address"
        },
        {
          "indexed": false,
          "internalType": "uint256",
          "name": "beforeLeverage",
          "type": "uint256"
        },
        {
          "indexed": false,
          "internalType": "uint256",
          "name": "afterLeverage",
          "type": "uint256"
        }
      ],
      "name": "setLeverage",
      "type": "event"
    },
    {
      "stateMutability": "nonpayable",
      "type": "fallback"
    },
    {
      "inputs": [
        {
          "internalType": "address",
          "name": "_primary",
          "type": "address"
        },
        {
          "internalType": "uint256",
          "name": "_amount",
          "type": "uint256"
        },
        {
          "internalType": "uint256",
          "name": "_price",
          "type": "uint256"
        },
        {
          "internalType": "uint256",
          "name": "_leverage",
          "type": "uint256"
        }
      ],
      "name": "getFees",
      "outputs": [
        {
          "components": [
            {
              "internalType": "uint256",
              "name": "total",
              "type": "uint256"
            },
            {
              "internalType": "uint256",
              "name": "marginAmount",
              "type": "uint256"
            },
            {
              "internalType": "uint256",
              "name": "tradingFee",
              "type": "uint256"
            },
            {
              "internalType": "uint256",
              "name": "totalLocked",
              "type": "uint256"
            },
            {
              "internalType": "uint256",
              "name": "currentPrice",
              "type": "uint256"
            },
            {
              "internalType": "uint256",
              "name": "dealPrice",
              "type": "uint256"
            },
            {
              "internalType": "uint256",
              "name": "amount",
              "type": "uint256"
            }
          ],
          "internalType": "struct IPerpetual.Fees",
          "name": "fee",
          "type": "tuple"
        }
      ],
      "stateMutability": "view",
      "type": "function"
    },
    {
      "inputs": [
        {
          "internalType": "address",
          "name": "_primary",
          "type": "address"
        }
      ],
      "name": "getPrice",
      "outputs": [
        {
          "internalType": "uint256",
          "name": "",
          "type": "uint256"
        }
      ],
      "stateMutability": "view",
      "type": "function"
    },
    {
      "inputs": [],
      "name": "getPrice",
      "outputs": [
        {
          "internalType": "uint256",
          "name": "",
          "type": "uint256"
        }
      ],
      "stateMutability": "view",
      "type": "function"
    },
    {
      "inputs": [],
      "name": "getSettleAddress",
      "outputs": [
        {
          "internalType": "address[]",
          "name": "",
          "type": "address[]"
        }
      ],
      "stateMutability": "view",
      "type": "function"
    },
    {
      "inputs": [
        {
          "internalType": "address",
          "name": "_primaryKey",
          "type": "address"
        }
      ],
      "name": "getSettleDetail",
      "outputs": [
        {
          "components": [
            {
              "internalType": "string",
              "name": "name",
              "type": "string"
            },
            {
              "internalType": "uint256",
              "name": "multi",
              "type": "uint256"
            },
            {
              "internalType": "address",
              "name": "settle",
              "type": "address"
            },
            {
              "internalType": "address",
              "name": "primary",
              "type": "address"
            },
            {
              "internalType": "address",
              "name": "privatePool",
              "type": "address"
            },
            {
              "internalType": "address",
              "name": "tradeAgent",
              "type": "address"
            },
            {
              "internalType": "address",
              "name": "orderBook",
              "type": "address"
            },
            {
              "internalType": "address",
              "name": "station",
              "type": "address"
            },
            {
              "internalType": "uint256",
              "name": "tradingFeeRate",
              "type": "uint256"
            },
            {
              "internalType": "uint256",
              "name": "rewardGas",
              "type": "uint256"
            },
            {
              "internalType": "uint256",
              "name": "minOrderAmount",
              "type": "uint256"
            },
            {
              "internalType": "uint256",
              "name": "leverage",
              "type": "uint256"
            },
            {
              "internalType": "uint256",
              "name": "lotMulti",
              "type": "uint256"
            },
            {
              "internalType": "uint256",
              "name": "version",
              "type": "uint256"
            },
            {
              "internalType": "uint256",
              "name": "status",
              "type": "uint256"
            }
          ],
          "internalType": "struct ICommon.PrimaryMultiItem",
          "name": "",
          "type": "tuple"
        }
      ],
      "stateMutability": "view",
      "type": "function"
    },
    {
      "inputs": [],
      "name": "getSettles",
      "outputs": [
        {
          "components": [
            {
              "internalType": "string",
              "name": "name",
              "type": "string"
            },
            {
              "internalType": "uint256",
              "name": "multi",
              "type": "uint256"
            },
            {
              "internalType": "address",
              "name": "settle",
              "type": "address"
            },
            {
              "internalType": "address",
              "name": "primary",
              "type": "address"
            },
            {
              "internalType": "address",
              "name": "privatePool",
              "type": "address"
            },
            {
              "internalType": "address",
              "name": "tradeAgent",
              "type": "address"
            },
            {
              "internalType": "address",
              "name": "orderBook",
              "type": "address"
            },
            {
              "internalType": "address",
              "name": "station",
              "type": "address"
            },
            {
              "internalType": "uint256",
              "name": "tradingFeeRate",
              "type": "uint256"
            },
            {
              "internalType": "uint256",
              "name": "rewardGas",
              "type": "uint256"
            },
            {
              "internalType": "uint256",
              "name": "minOrderAmount",
              "type": "uint256"
            },
            {
              "internalType": "uint256",
              "name": "leverage",
              "type": "uint256"
            },
            {
              "internalType": "uint256",
              "name": "lotMulti",
              "type": "uint256"
            },
            {
              "internalType": "uint256",
              "name": "version",
              "type": "uint256"
            },
            {
              "internalType": "uint256",
              "name": "status",
              "type": "uint256"
            }
          ],
          "internalType": "struct ICommon.PrimaryMultiItem[]",
          "name": "",
          "type": "tuple[]"
        }
      ],
      "stateMutability": "view",
      "type": "function"
    },
    {
      "inputs": [
        {
          "internalType": "address",
          "name": "_initialOwner",
          "type": "address"
        },
        {
          "internalType": "address",
          "name": "_oracle",
          "type": "address"
        },
        {
          "internalType": "string",
          "name": "_name",
          "type": "string"
        }
      ],
      "name": "initialize",
      "outputs": [],
      "stateMutability": "nonpayable",
      "type": "function"
    },
    {
      "inputs": [],
      "name": "name",
      "outputs": [
        {
          "internalType": "string",
          "name": "",
          "type": "string"
        }
      ],
      "stateMutability": "view",
      "type": "function"
    },
    {
      "inputs": [],
      "name": "oracleProxy",
      "outputs": [
        {
          "internalType": "contract IOracleProxy",
          "name": "",
          "type": "address"
        }
      ],
      "stateMutability": "view",
      "type": "function"
    },
    {
      "inputs": [],
      "name": "owner",
      "outputs": [
        {
          "internalType": "address",
          "name": "",
          "type": "address"
        }
      ],
      "stateMutability": "view",
      "type": "function"
    },
    {
      "inputs": [],
      "name": "renounceOwnership",
      "outputs": [],
      "stateMutability": "nonpayable",
      "type": "function"
    },
    {
      "inputs": [
        {
          "internalType": "address",
          "name": "_Keeper",
          "type": "address"
        }
      ],
      "name": "setKeeper",
      "outputs": [],
      "stateMutability": "nonpayable",
      "type": "function"
    },
    {
      "inputs": [
        {
          "internalType": "address",
          "name": "_oracle",
          "type": "address"
        }
      ],
      "name": "setOracle",
      "outputs": [],
      "stateMutability": "nonpayable",
      "type": "function"
    },
    {
      "inputs": [
        {
          "components": [
            {
              "internalType": "string",
              "name": "name",
              "type": "string"
            },
            {
              "internalType": "uint256",
              "name": "multi",
              "type": "uint256"
            },
            {
              "internalType": "address",
              "name": "settle",
              "type": "address"
            },
            {
              "internalType": "address",
              "name": "primary",
              "type": "address"
            },
            {
              "internalType": "address",
              "name": "privatePool",
              "type": "address"
            },
            {
              "internalType": "address",
              "name": "tradeAgent",
              "type": "address"
            },
            {
              "internalType": "address",
              "name": "orderBook",
              "type": "address"
            },
            {
              "internalType": "address",
              "name": "station",
              "type": "address"
            },
            {
              "internalType": "uint256",
              "name": "tradingFeeRate",
              "type": "uint256"
            },
            {
              "internalType": "uint256",
              "name": "rewardGas",
              "type": "uint256"
            },
            {
              "internalType": "uint256",
              "name": "minOrderAmount",
              "type": "uint256"
            },
            {
              "internalType": "uint256",
              "name": "leverage",
              "type": "uint256"
            },
            {
              "internalType": "uint256",
              "name": "lotMulti",
              "type": "uint256"
            },
            {
              "internalType": "uint256",
              "name": "version",
              "type": "uint256"
            },
            {
              "internalType": "uint256",
              "name": "status",
              "type": "uint256"
            }
          ],
          "internalType": "struct ICommon.PrimaryMultiItem",
          "name": "item",
          "type": "tuple"
        }
      ],
      "name": "setSettleUnit",
      "outputs": [],
      "stateMutability": "nonpayable",
      "type": "function"
    },
    {
      "inputs": [
        {
          "internalType": "address",
          "name": "_primary",
          "type": "address"
        },
        {
          "internalType": "uint256",
          "name": "_rewardGas",
          "type": "uint256"
        },
        {
          "internalType": "uint256",
          "name": "_leverage",
          "type": "uint256"
        },
        {
          "internalType": "uint256",
          "name": "_feeRate",
          "type": "uint256"
        },
        {
          "internalType": "uint256",
          "name": "_status",
          "type": "uint256"
        }
      ],
      "name": "setSettleUnitParams",
      "outputs": [],
      "stateMutability": "nonpayable",
      "type": "function"
    },
    {
      "inputs": [
        {
          "internalType": "address",
          "name": "newOwner",
          "type": "address"
        }
      ],
      "name": "transferOwnership",
      "outputs": [],
      "stateMutability": "nonpayable",
      "type": "function"
    },
    {
      "inputs": [
        {
          "internalType": "bytes",
          "name": "reportData",
          "type": "bytes"
        },
        {
          "internalType": "address",
          "name": "_primary",
          "type": "address"
        }
      ],
      "name": "verifyReport",
      "outputs": [
        {
          "internalType": "uint256",
          "name": "verifiedPrice",
          "type": "uint256"
        }
      ],
      "stateMutability": "payable",
      "type": "function"
    }
  ],
  "bytecode": "0x60808060405234601557612031908161001b8239f35b600080fdfe6080604052600436101561001a575b3461001557005b600080fd5b60003560e01c806306fdde031461162057806307ec446614611404578063167b349e146113dd5780631cb945e1146111cd57806341976e09146111aa5780634571e3a614610d85578063602933ef146105f25780636e49c2f614610538578063715018a61461049f578063748747e6146104585780637adbf973146103ce5780638da5cb5b1461038857806398d5fdca1461036d578063a666200f1461023a578063b3d316c1146101d1578063f2fde38b146101a65763f3840d140361000e5734610015576000600319360112610015576040518060206005549283815201809260056000527f036b6384b5eca791c62761152d0c79bb0604c104a5fb6f4eb0703f3154bb3db09060005b818110610187575050508161013b910382611755565b6040519182916020830190602084525180915260408301919060005b818110610165575050500390f35b82516001600160a01b0316845285945060209384019390920191600101610157565b82546001600160a01b0316845260209093019260019283019201610125565b34610015576020600319360112610015576101cf6101c2611864565b6101ca611f41565b611e82565b005b60406003193601126100155760043567ffffffffffffffff8111610015573660238201121561001557806004013567ffffffffffffffff81116100155736602482840101116100155760209161023291602461022b61187a565b9201611c77565b604051908152f35b34610015576020600319360112610015576001600160a01b0361025b611864565b610263611a39565b501660005260066020526103696040600020600e6040519161028483611738565b61028d81611778565b8352600181015460208401526001600160a01b0360028201541660408401526001600160a01b0360038201541660608401526001600160a01b0360048201541660808401526001600160a01b0360058201541660a08401526001600160a01b0360068201541660c08401526001600160a01b0360078201541660e084015260088101546101008401526009810154610120840152600a810154610140840152600b810154610160840152600c810154610180840152600d8101546101a084015201546101c08201526040519182916020835260208301906118a4565b0390f35b34610015576000600319360112610015576020610232611bb5565b346100155760006003193601126100155760206001600160a01b037f9016d09d72d40fdae2fd8ceac6b6234c7706214fd39c1cd1e609a0528c1993005416604051908152f35b34610015576020600319360112610015576001600160a01b036103ef611864565b6103f7611f41565b168015610414576001600160a01b03196001541617600155600080f35b606460405162461bcd60e51b815260206004820152600e60248201527f6f7261636c65206973207a65726f0000000000000000000000000000000000006044820152fd5b34610015576020600319360112610015576001600160a01b03610479611864565b610481611f41565b1660005260076020526040600020600160ff19825416179055600080f35b34610015576000600319360112610015576104b8611f41565b60006001600160a01b037f9016d09d72d40fdae2fd8ceac6b6234c7706214fd39c1cd1e609a0528c199300546001600160a01b031981167f9016d09d72d40fdae2fd8ceac6b6234c7706214fd39c1cd1e609a0528c19930055167f8be0079c531659141344cd1fd0a4f28419497f9722a3daafe3b4186f6b6457e08280a3005b346100155760a0600319360112610015576001600160a01b03610559611864565b33600052600760205261057360ff60406000205416611b4a565b16600052600660205260406000206001810154156105ae576024356009820155604435600b8201556064356008820155608435600e90910155005b606460405162461bcd60e51b815260206004820152601460248201527f7072696d617279206973206e6f742065786973740000000000000000000000006044820152fd5b346100155760206003193601126100155760043567ffffffffffffffff8111610015576101e06003198236030112610015576040519061063182611738565b80600401359067ffffffffffffffff8211610015576106596101c492600436918401016119a7565b83526024810135602084015261067160448201611890565b604084015261068260648201611890565b606084015261069360848201611890565b60808401526106a460a48201611890565b60a08401526106b560c48201611890565b60c08401526106c660e48201611890565b60e08401526101048101356101008401526101248101356101208401526101448101356101408401526101648101356101608401526101848101356101808401526101a48101356101a084015201356101c082015233600052600760205261073560ff60406000205416611b4a565b6020810151610958576001600160a01b03606060208301519201511690158061093e575b61075f57005b600090815b6005548110156108f457816001600160a01b0361078083611aa8565b90549060031b1c161461080c578261079d575b6001905b01610764565b6001600160a01b036107ae82611aa8565b90549060031b1c16908381038181116107f6576001926107d06107ef92611aa8565b9091906001600160a01b038084549260031b9316831b921b1916179055565b9050610793565b634e487b7160e01b600052601160045260246000fd5b9160001981146107f6576001809101928260005260066020526000600e6040822061083781546116fe565b806108b3575b50828582015582600282015582600382015582600482015582600582015582600682015582600782015582600882015582600982015582600a82015582600b82015582600c82015582600d82015501556108ae61089982611aa8565b6001600160a01b0382549160031b1b19169055565b610797565b601f811186146108c857508281555b8761083d565b818452602084206108e391601f0160051c8101908701611b33565b8083528260208120818355556108c2565b505060005b81811061090257005b600554908115610928576000196001920161091f61089982611aa8565b600555016108f9565b634e487b7160e01b600052603160045260246000fd5b508060005260066020526001604060002001541515610759565b600460006001600160a01b03604084015116604051928380927f95d89b410000000000000000000000000000000000000000000000000000000082525afa908115610d7957600091610cf3575b505115610caf576001600160a01b03606082015116600052600660205260016040600020015415610c74575b6001600160a01b036060820151166000526006602052604060002090805180519067ffffffffffffffff8211610c5e57610a0b84546116fe565b601f8111610c21575b50602090601f8311600114610bb257826101c093600e9593610a4c93600092610ba7575b50506000198260011b9260031b1c19161790565b84555b602081015160018501556001600160a01b036040820151166001600160a01b036002860191166001600160a01b03198254161790556001600160a01b036060820151166001600160a01b036003860191166001600160a01b03198254161790556001600160a01b036080820151166001600160a01b036004860191166001600160a01b03198254161790556001600160a01b0360a0820151166001600160a01b036005860191166001600160a01b03198254161790556001600160a01b0360c0820151166001600160a01b036006860191166001600160a01b03198254161790556001600160a01b0360e0820151166001600160a01b036007860191166001600160a01b031982541617905561010081015160088501556101208101516009850155610140810151600a850155610160810151600b850155610180810151600c8501556101a0810151600d8501550151910155600080f35b015190508780610a38565b9084600052806000209160005b601f1985168110610c09575092600e94926001926101c09583601f19811610610bf0575b505050811b018455610a4f565b015160001960f88460031b161c19169055868080610be3565b91926020600181928685015181550194019201610bbf565b610c4e90856000526020600020601f850160051c81019160208610610c54575b601f0160051c0190611b33565b84610a14565b9091508190610c41565b634e487b7160e01b600052604160045260246000fd5b6001600160a01b036060820151166005549068010000000000000000821015610c5e576107d0826001610caa9401600555611aa8565b6109d1565b606460405162461bcd60e51b815260206004820152601b60248201527f536574746c652061646472657373206973206e6f7420746f6b656e00000000006044820152fd5b903d8082843e610d038184611755565b820191602081840312610d715780519067ffffffffffffffff8211610d75570182601f82011215610d7157805191610d3a8361198b565b93610d486040519586611755565b83855260208484010111610d6e575090610d68916020808501910161181c565b826109a5565b80fd5b5080fd5b8280fd5b6040513d6000823e3d90fd5b3461001557606060031936011261001557610d9e611864565b610da661187a565b9060443567ffffffffffffffff811161001557610dc79036906004016119a7565b917ff0c57e16840df040f15088dc2f81fe391c3923bec73e23a9662efc9c229c6a00549160ff8360401c16159267ffffffffffffffff8116801590816111a2575b6001149081611198575b15908161118f575b50611165576001600160a01b0392818560017fffffffffffffffffffffffffffffffffffffffffffffffff0000000000000000879516177ff0c57e16840df040f15088dc2f81fe391c3923bec73e23a9662efc9c229c6a0055611110575b50610e81611fa2565b610e89611fa2565b610e9233611e82565b610e9a611f41565b610ea383611e82565b166001600160a01b031960015416176001553360005260076020526040600020600160ff198254161790551660005260076020526040600020600160ff19825416179055815167ffffffffffffffff8111610c5e57610f036000546116fe565b601f8111611079575b50602092601f8211600114610ff857610f3d92938291600092610fed5750506000198260011b9260031b1c19161790565b6000555b620f4240600355670de0b6b3a7640000600455610f5a57005b7fffffffffffffffffffffffffffffffffffffffffffffff00ffffffffffffffff7ff0c57e16840df040f15088dc2f81fe391c3923bec73e23a9662efc9c229c6a0054167ff0c57e16840df040f15088dc2f81fe391c3923bec73e23a9662efc9c229c6a00557fc7f505b2f371ae2175ee4913f4499e1f2633a7b5936321eed1cdaeb6115181d2602060405160018152a1005b015190508480610a38565b601f19821693600080527f290decd9548b62a8d60345a988386fc84ba6bc95484008f6362f93160ef3e5639160005b8681106110615750836001959610611048575b505050811b01600055610f41565b015160001960f88460031b161c1916905583808061103a565b91926020600181928685015181550194019201611027565b6110e29060008052601f830160051c7f290decd9548b62a8d60345a988386fc84ba6bc95484008f6362f93160ef3e5630190602084106110e8575b601f0160051c7f290decd9548b62a8d60345a988386fc84ba6bc95484008f6362f93160ef3e5630190611b33565b83610f0c565b7f290decd9548b62a8d60345a988386fc84ba6bc95484008f6362f93160ef3e56391506110b4565b7fffffffffffffffffffffffffffffffffffffffffffffff0000000000000000001668010000000000000001177ff0c57e16840df040f15088dc2f81fe391c3923bec73e23a9662efc9c229c6a005586610e78565b7ff92ee8a90000000000000000000000000000000000000000000000000000000060005260046000fd5b90501586610e1a565b303b159150610e12565b859150610e08565b346100155760206003193601126100155760206102326111c8611864565b611aed565b34610015576000600319360112610015576005546111ea81611a21565b906111f86040519283611755565b808252601f1961120782611a21565b0160005b8181106113c657505060005b8181106112a257826040518091602082016020835281518091526040830190602060408260051b8601019301916000905b82821061125757505050500390f35b91936020611292827fffffffffffffffffffffffffffffffffffffffffffffffffffffffffffffffc0600195979984950301865288516118a4565b9601920192018594939192611248565b806001600160a01b036112b6600193611aa8565b90549060031b1c1660005260066020526040600020600e604051916112da83611738565b6112e381611778565b83528481015460208401526001600160a01b0360028201541660408401526001600160a01b0360038201541660608401526001600160a01b0360048201541660808401526001600160a01b0360058201541660a08401526001600160a01b0360068201541660c08401526001600160a01b0360078201541660e084015260088101546101008401526009810154610120840152600a810154610140840152600b810154610160840152600c810154610180840152600d8101546101a084015201546101c08201526113b48286611ad9565b526113bf8185611ad9565b5001611217565b6020906113d1611a39565b8282870101520161120b565b346100155760006003193601126100155760206001600160a01b0360015416604051908152f35b346100155760806003193601126100155761141d611864565b6040516024359160443560643560e0840167ffffffffffffffff811185821017610c5e576040526000845260208401946000865260408501600081526115d360608701926000845260808801946000865260a0890196600088526001600160a01b0360c08b019960008b5216600052600660205289604060002091604051926114a584611738565b6114ae81611778565b8452600181015460208501526001600160a01b0360028201541660408501526001600160a01b0360038201541660608501526001600160a01b0360048201541660808501526001600160a01b0360058201541660a08501526001600160a01b0360068201541660c08501526001600160a01b0360078201541660e085015260088101549361010081019485526009820154610120820152600a8201546101408201526101c0600e600b840154936101608401948552600c810154610180850152600d8101546101a08501520154910152818a52818b52858c528415611615575b50906115c26115a46115c7936115c296976119ee565b956115b26004548098611a01565b8093526115c260035480946119ee565b611a01565b8b5289519051906119ee565b9687825280519788018098116107f65760e0978352604051965187525160208701525160408601525160608501525160808401525160a08301525160c0820152f35b5193506115c261158e565b346100155760006003193601126100155760405160008054611641816116fe565b80845290600181169081156116da575060011461167d575b6103698361166981850382611755565b60405191829160208352602083019061183f565b60008080527f290decd9548b62a8d60345a988386fc84ba6bc95484008f6362f93160ef3e563939250905b8082106116c057509091508101602001611669611659565b9192600181602092548385880101520191019092916116a8565b60ff191660208086019190915291151560051b840190910191506116699050611659565b90600182811c9216801561172e575b602083101461171857565b634e487b7160e01b600052602260045260246000fd5b91607f169161170d565b6101e0810190811067ffffffffffffffff821117610c5e57604052565b90601f601f19910116810190811067ffffffffffffffff821117610c5e57604052565b906040519182600082549261178c846116fe565b80845293600181169081156117fa57506001146117b3575b506117b192500383611755565b565b90506000929192526020600020906000915b8183106117de5750509060206117b192820101386117a4565b60209193508060019154838589010152019101909184926117c5565b602093506117b195925060ff1991501682840152151560051b820101386117a4565b60005b83811061182f5750506000910152565b818101518382015260200161181f565b90601f19601f60209361185d8151809281875287808801910161181c565b0116010190565b600435906001600160a01b038216820361001557565b602435906001600160a01b038216820361001557565b35906001600160a01b038216820361001557565b906101c0806118be84516101e085526101e085019061183f565b93602081015160208501526001600160a01b0360408201511660408501526001600160a01b0360608201511660608501526001600160a01b0360808201511660808501526001600160a01b0360a08201511660a08501526001600160a01b0360c08201511660c08501526001600160a01b0360e08201511660e08501526101008101516101008501526101208101516101208501526101408101516101408501526101608101516101608501526101808101516101808501526101a08101516101a0850152015191015290565b67ffffffffffffffff8111610c5e57601f01601f191660200190565b81601f82011215610015578035906119be8261198b565b926119cc6040519485611755565b8284526020838301011161001557816000926020809301838601378301015290565b818102929181159184041417156107f657565b8115611a0b570490565b634e487b7160e01b600052601260045260246000fd5b67ffffffffffffffff8111610c5e5760051b60200190565b60405190611a4682611738565b60006101c083606081528260208201528260408201528260608201528260808201528260a08201528260c08201528260e08201528261010082015282610120820152826101408201528261016082015282610180820152826101a08201520152565b600554811015611ac357600560005260206000200190600090565b634e487b7160e01b600052603260045260246000fd5b8051821015611ac35760209160051b010190565b6001600160a01b03166000526006602052600160406000200154611b0f611bb5565b908015611b2f57611b2390611b2c926119ee565b60045490611a01565b90565b5090565b818110611b3e575050565b60008155600101611b33565b15611b5157565b606460405162461bcd60e51b815260206004820152601f60248201527f63616c6c6572206973206e6f7420756e6465726c79696e67206b6565706572006044820152fd5b9190826040910312610015576020825192015160ff811681036100155790565b60015460ff8160a01c16611c705760406001600160a01b039160048251809481937ffeaf968c000000000000000000000000000000000000000000000000000000008352165afa908115610d7957600090600092611c36575b50611c1e60ff91600454906119ee565b911690604d82116107f657611b2c91600a0a90611a01565b611c1e925060ff9150611c609060403d604011611c69575b611c588183611755565b810190611b95565b92909150611c0e565b503d611c4e565b5060025490565b60009190600a8211611dda5750505034611d5b575b600460406001600160a01b03600154168151928380927ffeaf968c0000000000000000000000000000000000000000000000000000000082525afa8015610d7957600091600091611d3a575b505b60ff611ce960045480946119ee565b9116604d81116107f6576001600160a01b0391611d0991600a0a90611a01565b92168015611d355760005260066020526001604060002001548015611d35576115c290611b2c936119ee565b505090565b9050611d55915060403d604011611c6957611c588183611755565b38611cd8565b600080808034325af13d15611dd5573d611d748161198b565b90611d826040519283611755565b8152600060203d92013e5b611c8c57606460405162461bcd60e51b815260206004820152600f60248201527f7472616e73666572206661696c656400000000000000000000000000000000006044820152fd5b611d8d565b81604091601f9360446001600160a01b036001541692601f198651978896879586947f1af189a400000000000000000000000000000000000000000000000000000000865260206004870152816024870152868601378a8582860101520116810103019134905af1908115611e77578291611e56575b50611cda565b9050611e71915060403d604011611c6957611c588183611755565b38611e50565b6040513d84823e3d90fd5b6001600160a01b03168015611f12576001600160a01b037f9016d09d72d40fdae2fd8ceac6b6234c7706214fd39c1cd1e609a0528c19930054826001600160a01b03198216177f9016d09d72d40fdae2fd8ceac6b6234c7706214fd39c1cd1e609a0528c19930055167f8be0079c531659141344cd1fd0a4f28419497f9722a3daafe3b4186f6b6457e0600080a3565b7f1e4fbdf700000000000000000000000000000000000000000000000000000000600052600060045260246000fd5b6001600160a01b037f9016d09d72d40fdae2fd8ceac6b6234c7706214fd39c1cd1e609a0528c19930054163303611f7457565b7f118cdaa7000000000000000000000000000000000000000000000000000000006000523360045260246000fd5b60ff7ff0c57e16840df040f15088dc2f81fe391c3923bec73e23a9662efc9c229c6a005460401c1615611fd157565b7fd7e6bcf80000000000000000000000000000000000000000000000000000000060005260046000fdfea2646970667358221220143691771971e7175ed4365c8759cdf9f1d9feabd33819c90f4532696c4ef22b64736f6c634300081c0033",
  "linkReferences": {},
  "deployedLinkReferences": {}
}