{
  "_format": "hh-sol-artifact-1",
  "contractName": "Underlying",
  "sourceName": "contracts/Underlying.sol",
  "abi": [
    {
      "inputs": [],
      "name": "InvalidInitialization",
      "type": "error"
    },
    {
      "inputs": [],
      "name": "NotInitializing",
      "type": "error"
    },
    {
      "inputs": [
        {
          "internalType": "address",
          "name": "owner",
          "type": "address"
        }
      ],
      "name": "OwnableInvalidOwner",
      "type": "error"
    },
    {
      "inputs": [
        {
          "internalType": "address",
          "name": "account",
          "type": "address"
        }
      ],
      "name": "OwnableUnauthorizedAccount",
      "type": "error"
    },
    {
      "anonymous": false,
      "inputs": [
        {
          "indexed": false,
          "internalType": "address",
          "name": "taker",
          "type": "address"
        },
        {
          "indexed": false,
          "internalType": "uint256",
          "name": "amount",
          "type": "uint256"
        },
        {
          "indexed": false,
          "internalType": "uint256",
          "name": "availableAmount",
          "type": "uint256"
        },
        {
          "indexed": false,
          "internalType": "uint256",
          "name": "marginAmount",
          "type": "uint256"
        },
        {
          "indexed": false,
          "internalType": "uint256",
          "name": "locked",
          "type": "uint256"
        },
        {
          "indexed": false,
          "internalType": "uint256",
          "name": "stage",
          "type": "uint256"
        },
        {
          "indexed": false,
          "internalType": "uint256",
          "name": "dif",
          "type": "uint256"
        }
      ],
      "name": "BalanceOfTaker",
      "type": "event"
    },
    {
      "anonymous": false,
      "inputs": [
        {
          "indexed": false,
          "internalType": "string",
          "name": "name",
          "type": "string"
        },
        {
          "indexed": true,
          "internalType": "address",
          "name": "taker",
          "type": "address"
        },
        {
          "indexed": false,
          "internalType": "uint256",
          "name": "orderID",
          "type": "uint256"
        },
        {
          "indexed": false,
          "internalType": "enum ICommon.Direct",
          "name": "orderType",
          "type": "uint8"
        },
        {
          "indexed": false,
          "internalType": "enum IPerpetual.OrderState",
          "name": "state",
          "type": "uint8"
        },
        {
          "indexed": false,
          "internalType": "enum ICommon.Offset",
          "name": "offset",
          "type": "uint8"
        },
        {
          "indexed": false,
          "internalType": "uint256",
          "name": "amount",
          "type": "uint256"
        },
        {
          "indexed": false,
          "internalType": "uint256",
          "name": "targetPrice",
          "type": "uint256"
        },
        {
          "indexed": false,
          "internalType": "uint256",
          "name": "margin",
          "type": "uint256"
        },
        {
          "indexed": false,
          "internalType": "uint256",
          "name": "rewardGas",
          "type": "uint256"
        },
        {
          "indexed": false,
          "internalType": "uint256",
          "name": "tradingFee",
          "type": "uint256"
        },
        {
          "indexed": false,
          "internalType": "uint256",
          "name": "goodTill",
          "type": "uint256"
        }
      ],
      "name": "CreateLimitedOrder",
      "type": "event"
    },
    {
      "anonymous": false,
      "inputs": [
        {
          "indexed": false,
          "internalType": "uint256",
          "name": "limitOrderID",
          "type": "uint256"
        },
        {
          "indexed": false,
          "internalType": "uint256",
          "name": "openLimitPrice",
          "type": "uint256"
        },
        {
          "indexed": false,
          "internalType": "uint256",
          "name": "gainTriggerPrice",
          "type": "uint256"
        },
        {
          "indexed": false,
          "internalType": "uint256",
          "name": "gainLimitPrice",
          "type": "uint256"
        },
        {
          "indexed": false,
          "internalType": "uint256",
          "name": "lossTriggerPrice",
          "type": "uint256"
        },
        {
          "indexed": false,
          "internalType": "uint256",
          "name": "lossLimitPrice",
          "type": "uint256"
        }
      ],
      "name": "CreateTriggerCondition",
      "type": "event"
    },
    {
      "anonymous": false,
      "inputs": [
        {
          "indexed": false,
          "internalType": "uint256",
          "name": "code",
          "type": "uint256"
        },
        {
          "indexed": false,
          "internalType": "uint256",
          "name": "orderID",
          "type": "uint256"
        },
        {
          "indexed": false,
          "internalType": "string",
          "name": "message",
          "type": "string"
        }
      ],
      "name": "ErrorInfo",
      "type": "event"
    },
    {
      "anonymous": false,
      "inputs": [
        {
          "indexed": false,
          "internalType": "uint256",
          "name": "code",
          "type": "uint256"
        },
        {
          "indexed": false,
          "internalType": "uint256",
          "name": "orderID",
          "type": "uint256"
        },
        {
          "indexed": false,
          "internalType": "bytes",
          "name": "message",
          "type": "bytes"
        }
      ],
      "name": "ExceptErrorInfo",
      "type": "event"
    },
    {
      "anonymous": false,
      "inputs": [
        {
          "indexed": false,
          "internalType": "uint64",
          "name": "version",
          "type": "uint64"
        }
      ],
      "name": "Initialized",
      "type": "event"
    },
    {
      "anonymous": false,
      "inputs": [
        {
          "indexed": true,
          "internalType": "address",
          "name": "taker",
          "type": "address"
        },
        {
          "indexed": false,
          "internalType": "string",
          "name": "name",
          "type": "string"
        },
        {
          "indexed": false,
          "internalType": "uint256",
          "name": "orderID",
          "type": "uint256"
        },
        {
          "indexed": false,
          "internalType": "enum ICommon.Direct",
          "name": "direction",
          "type": "uint8"
        },
        {
          "indexed": false,
          "internalType": "enum IPerpetual.OrderType",
          "name": "orderType",
          "type": "uint8"
        },
        {
          "indexed": false,
          "internalType": "uint256",
          "name": "amount",
          "type": "uint256"
        },
        {
          "indexed": false,
          "internalType": "uint256",
          "name": "costPrice",
          "type": "uint256"
        },
        {
          "indexed": false,
          "internalType": "uint256",
          "name": "price",
          "type": "uint256"
        },
        {
          "indexed": false,
          "internalType": "uint256",
          "name": "tradingFee",
          "type": "uint256"
        },
        {
          "indexed": false,
          "internalType": "uint256",
          "name": "limitOrderId",
          "type": "uint256"
        },
        {
          "indexed": false,
          "internalType": "uint256",
          "name": "timestamp",
          "type": "uint256"
        }
      ],
      "name": "OrderHistory",
      "type": "event"
    },
    {
      "anonymous": false,
      "inputs": [
        {
          "indexed": true,
          "internalType": "address",
          "name": "previousOwner",
          "type": "address"
        },
        {
          "indexed": true,
          "internalType": "address",
          "name": "newOwner",
          "type": "address"
        }
      ],
      "name": "OwnershipTransferred",
      "type": "event"
    },
    {
      "anonymous": false,
      "inputs": [
        {
          "indexed": false,
          "internalType": "uint256",
          "name": "period",
          "type": "uint256"
        },
        {
          "indexed": false,
          "internalType": "uint256",
          "name": "gap",
          "type": "uint256"
        }
      ],
      "name": "SetFuzzyPrice",
      "type": "event"
    },
    {
      "anonymous": false,
      "inputs": [
        {
          "indexed": false,
          "internalType": "address",
          "name": "",
          "type": "address"
        },
        {
          "indexed": false,
          "internalType": "bool",
          "name": "",
          "type": "bool"
        }
      ],
      "name": "SetKeeper",
      "type": "event"
    },
    {
      "anonymous": false,
      "inputs": [
        {
          "indexed": false,
          "internalType": "uint256",
          "name": "orderID",
          "type": "uint256"
        },
        {
          "indexed": false,
          "internalType": "uint256",
          "name": "dealID",
          "type": "uint256"
        },
        {
          "indexed": false,
          "internalType": "enum IPerpetual.TradeType",
          "name": "tradeType",
          "type": "uint8"
        },
        {
          "indexed": false,
          "internalType": "uint256",
          "name": "amount",
          "type": "uint256"
        },
        {
          "indexed": false,
          "internalType": "uint256",
          "name": "price",
          "type": "uint256"
        },
        {
          "indexed": false,
          "internalType": "uint256",
          "name": "tradingFee",
          "type": "uint256"
        },
        {
          "indexed": false,
          "internalType": "uint256",
          "name": "profit",
          "type": "uint256"
        },
        {
          "indexed": false,
          "internalType": "uint256",
          "name": "loss",
          "type": "uint256"
        },
        {
          "indexed": false,
          "internalType": "uint256",
          "name": "timestamp",
          "type": "uint256"
        }
      ],
      "name": "TradeHistory",
      "type": "event"
    },
    {
      "anonymous": false,
      "inputs": [
        {
          "indexed": true,
          "internalType": "address",
          "name": "taker",
          "type": "address"
        },
        {
          "indexed": false,
          "internalType": "enum ICommon.TransactionType",
          "name": "transactionType",
          "type": "uint8"
        },
        {
          "indexed": false,
          "internalType": "uint256",
          "name": "amount",
          "type": "uint256"
        },
        {
          "indexed": false,
          "internalType": "uint256",
          "name": "timestamp",
          "type": "uint256"
        }
      ],
      "name": "TransactionHistory",
      "type": "event"
    },
    {
      "anonymous": false,
      "inputs": [
        {
          "indexed": false,
          "internalType": "address",
          "name": "sender",
          "type": "address"
        },
        {
          "indexed": false,
          "internalType": "address",
          "name": "received",
          "type": "address"
        },
        {
          "indexed": false,
          "internalType": "enum ICommon.TransactionType",
          "name": "transactionType",
          "type": "uint8"
        },
        {
          "indexed": false,
          "internalType": "uint256",
          "name": "amount",
          "type": "uint256"
        },
        {
          "indexed": false,
          "internalType": "uint256",
          "name": "timestamp",
          "type": "uint256"
        }
      ],
      "name": "TransferFee",
      "type": "event"
    },
    {
      "anonymous": false,
      "inputs": [
        {
          "indexed": false,
          "internalType": "address",
          "name": "sender",
          "type": "address"
        },
        {
          "indexed": false,
          "internalType": "uint256",
          "name": "beforeLeverage",
          "type": "uint256"
        },
        {
          "indexed": false,
          "internalType": "uint256",
          "name": "afterLeverage",
          "type": "uint256"
        }
      ],
      "name": "setLeverage",
      "type": "event"
    },
    {
      "stateMutability": "nonpayable",
      "type": "fallback"
    },
    {
      "inputs": [
        {
          "internalType": "address",
          "name": "_primary",
          "type": "address"
        },
        {
          "internalType": "uint256",
          "name": "_amount",
          "type": "uint256"
        },
        {
          "internalType": "uint256",
          "name": "_price",
          "type": "uint256"
        },
        {
          "internalType": "uint256",
          "name": "_leverage",
          "type": "uint256"
        }
      ],
      "name": "getFees",
      "outputs": [
        {
          "components": [
            {
              "internalType": "uint256",
              "name": "total",
              "type": "uint256"
            },
            {
              "internalType": "uint256",
              "name": "marginAmount",
              "type": "uint256"
            },
            {
              "internalType": "uint256",
              "name": "tradingFee",
              "type": "uint256"
            },
            {
              "internalType": "uint256",
              "name": "totalLocked",
              "type": "uint256"
            },
            {
              "internalType": "uint256",
              "name": "currentPrice",
              "type": "uint256"
            },
            {
              "internalType": "uint256",
              "name": "dealPrice",
              "type": "uint256"
            },
            {
              "internalType": "uint256",
              "name": "amount",
              "type": "uint256"
            }
          ],
          "internalType": "struct IPerpetual.Fees",
          "name": "fee",
          "type": "tuple"
        }
      ],
      "stateMutability": "view",
      "type": "function"
    },
    {
      "inputs": [
        {
          "internalType": "address",
          "name": "_primary",
          "type": "address"
        }
      ],
      "name": "getPrice",
      "outputs": [
        {
          "internalType": "uint256",
          "name": "",
          "type": "uint256"
        }
      ],
      "stateMutability": "view",
      "type": "function"
    },
    {
      "inputs": [],
      "name": "getPrice",
      "outputs": [
        {
          "internalType": "uint256",
          "name": "",
          "type": "uint256"
        }
      ],
      "stateMutability": "view",
      "type": "function"
    },
    {
      "inputs": [],
      "name": "getSettleAddress",
      "outputs": [
        {
          "internalType": "address[]",
          "name": "",
          "type": "address[]"
        }
      ],
      "stateMutability": "view",
      "type": "function"
    },
    {
      "inputs": [
        {
          "internalType": "address",
          "name": "_primaryKey",
          "type": "address"
        }
      ],
      "name": "getSettleDetail",
      "outputs": [
        {
          "components": [
            {
              "internalType": "string",
              "name": "name",
              "type": "string"
            },
            {
              "internalType": "uint256",
              "name": "multi",
              "type": "uint256"
            },
            {
              "internalType": "address",
              "name": "settle",
              "type": "address"
            },
            {
              "internalType": "address",
              "name": "primary",
              "type": "address"
            },
            {
              "internalType": "address",
              "name": "privatePool",
              "type": "address"
            },
            {
              "internalType": "address",
              "name": "tradeAgent",
              "type": "address"
            },
            {
              "internalType": "address",
              "name": "orderBook",
              "type": "address"
            },
            {
              "internalType": "address",
              "name": "station",
              "type": "address"
            },
            {
              "internalType": "uint256",
              "name": "tradingFeeRate",
              "type": "uint256"
            },
            {
              "internalType": "uint256",
              "name": "rewardGas",
              "type": "uint256"
            },
            {
              "internalType": "uint256",
              "name": "minOrderAmount",
              "type": "uint256"
            },
            {
              "internalType": "uint256",
              "name": "leverage",
              "type": "uint256"
            },
            {
              "internalType": "uint256",
              "name": "lotMulti",
              "type": "uint256"
            },
            {
              "internalType": "uint256",
              "name": "version",
              "type": "uint256"
            },
            {
              "internalType": "uint256",
              "name": "status",
              "type": "uint256"
            }
          ],
          "internalType": "struct ICommon.PrimaryMultiItem",
          "name": "",
          "type": "tuple"
        }
      ],
      "stateMutability": "view",
      "type": "function"
    },
    {
      "inputs": [],
      "name": "getSettles",
      "outputs": [
        {
          "components": [
            {
              "internalType": "string",
              "name": "name",
              "type": "string"
            },
            {
              "internalType": "uint256",
              "name": "multi",
              "type": "uint256"
            },
            {
              "internalType": "address",
              "name": "settle",
              "type": "address"
            },
            {
              "internalType": "address",
              "name": "primary",
              "type": "address"
            },
            {
              "internalType": "address",
              "name": "privatePool",
              "type": "address"
            },
            {
              "internalType": "address",
              "name": "tradeAgent",
              "type": "address"
            },
            {
              "internalType": "address",
              "name": "orderBook",
              "type": "address"
            },
            {
              "internalType": "address",
              "name": "station",
              "type": "address"
            },
            {
              "internalType": "uint256",
              "name": "tradingFeeRate",
              "type": "uint256"
            },
            {
              "internalType": "uint256",
              "name": "rewardGas",
              "type": "uint256"
            },
            {
              "internalType": "uint256",
              "name": "minOrderAmount",
              "type": "uint256"
            },
            {
              "internalType": "uint256",
              "name": "leverage",
              "type": "uint256"
            },
            {
              "internalType": "uint256",
              "name": "lotMulti",
              "type": "uint256"
            },
            {
              "internalType": "uint256",
              "name": "version",
              "type": "uint256"
            },
            {
              "internalType": "uint256",
              "name": "status",
              "type": "uint256"
            }
          ],
          "internalType": "struct ICommon.PrimaryMultiItem[]",
          "name": "",
          "type": "tuple[]"
        }
      ],
      "stateMutability": "view",
      "type": "function"
    },
    {
      "inputs": [
        {
          "internalType": "address",
          "name": "_initialOwner",
          "type": "address"
        },
        {
          "internalType": "address",
          "name": "_oracle",
          "type": "address"
        },
        {
          "internalType": "string",
          "name": "_name",
          "type": "string"
        }
      ],
      "name": "initialize",
      "outputs": [],
      "stateMutability": "nonpayable",
      "type": "function"
    },
    {
      "inputs": [],
      "name": "name",
      "outputs": [
        {
          "internalType": "string",
          "name": "",
          "type": "string"
        }
      ],
      "stateMutability": "view",
      "type": "function"
    },
    {
      "inputs": [],
      "name": "oracleProxy",
      "outputs": [
        {
          "internalType": "contract IOracleProxy",
          "name": "",
          "type": "address"
        }
      ],
      "stateMutability": "view",
      "type": "function"
    },
    {
      "inputs": [],
      "name": "owner",
      "outputs": [
        {
          "internalType": "address",
          "name": "",
          "type": "address"
        }
      ],
      "stateMutability": "view",
      "type": "function"
    },
    {
      "inputs": [],
      "name": "renounceOwnership",
      "outputs": [],
      "stateMutability": "nonpayable",
      "type": "function"
    },
    {
      "inputs": [
        {
          "internalType": "address",
          "name": "_addr",
          "type": "address"
        },
        {
          "internalType": "bool",
          "name": "_auth",
          "type": "bool"
        }
      ],
      "name": "setKeeper",
      "outputs": [],
      "stateMutability": "nonpayable",
      "type": "function"
    },
    {
      "inputs": [
        {
          "internalType": "address",
          "name": "_oracle",
          "type": "address"
        }
      ],
      "name": "setOracle",
      "outputs": [],
      "stateMutability": "nonpayable",
      "type": "function"
    },
    {
      "inputs": [
        {
          "internalType": "string",
          "name": "_name",
          "type": "string"
        },
        {
          "internalType": "address",
          "name": "_settle",
          "type": "address"
        },
        {
          "internalType": "uint256",
          "name": "_multi",
          "type": "uint256"
        },
        {
          "internalType": "address",
          "name": "_primary",
          "type": "address"
        },
        {
          "internalType": "address",
          "name": "_agent",
          "type": "address"
        },
        {
          "internalType": "address",
          "name": "_private",
          "type": "address"
        },
        {
          "internalType": "address",
          "name": "_orderBook",
          "type": "address"
        },
        {
          "internalType": "address",
          "name": "_station",
          "type": "address"
        }
      ],
      "name": "setSettleMulti",
      "outputs": [],
      "stateMutability": "nonpayable",
      "type": "function"
    },
    {
      "inputs": [
        {
          "internalType": "address",
          "name": "newOwner",
          "type": "address"
        }
      ],
      "name": "transferOwnership",
      "outputs": [],
      "stateMutability": "nonpayable",
      "type": "function"
    },
    {
      "inputs": [
        {
          "internalType": "bytes",
          "name": "reportData",
          "type": "bytes"
        },
        {
          "internalType": "address",
          "name": "_primary",
          "type": "address"
        }
      ],
      "name": "verifyReport",
      "outputs": [
        {
          "internalType": "uint256",
          "name": "verifiedPrice",
          "type": "uint256"
        }
      ],
      "stateMutability": "payable",
      "type": "function"
    }
  ],
  "bytecode": "0x60808060405234601557612129908161001b8239f35b600080fdfe6080604052600436101561001a575b3461001557005b600080fd5b60003560e01c806306fdde031461177757806307ec44661461155b578063167b349e146115345780631cb945e11461132457806335f4e8b214610a2557806341976e0914610a025780634571e3a6146105c6578063715018a61461052d5780637adbf973146104a35780638da5cb5b1461045d57806398d5fdca14610442578063a666200f146102b4578063b3d316c11461024b578063d1b9e853146101c6578063f2fde38b1461019b5763f3840d140361000e5734610015576000600319360112610015576040518060206005549283815201809260056000527f036b6384b5eca791c62761152d0c79bb0604c104a5fb6f4eb0703f3154bb3db09060005b81811061017c57505050816101309103826118ac565b6040519182916020830190602084525180915260408301919060005b81811061015a575050500390f35b82516001600160a01b031684528594506020938401939092019160010161014c565b82546001600160a01b031684526020909301926001928301920161011a565b34610015576020600319360112610015576101c46101b76119bb565b6101bf612039565b611f7a565b005b34610015576040600319360112610015576101df6119bb565b60243590811515809203610015577f8c2ff6748f99f65f4ebf8a1e973a289bad216c4d5b20fda1940d9e01118ae42a916001600160a01b03604092610222612039565b16908160005260076020528260002060ff1981541660ff831617905582519182526020820152a1005b60406003193601126100155760043567ffffffffffffffff8111610015573660238201121561001557806004013567ffffffffffffffff8111610015573660248284010111610015576020916102ac9160246102a56119d1565b9201611d6f565b604051908152f35b34610015576020600319360112610015576001600160a01b036102d56119bb565b6102dd611b7c565b5016806000526006602052600160406000200154156103fe5760005260066020526103fa6040600020600e604051916103158361188f565b61031e816118cf565b8352600181015460208401526001600160a01b0360028201541660408401526001600160a01b0360038201541660608401526001600160a01b0360048201541660808401526001600160a01b0360058201541660a08401526001600160a01b0360068201541660c08401526001600160a01b0360078201541660e084015260088101546101008401526009810154610120840152600a810154610140840152600b810154610160840152600c810154610180840152600d8101546101a084015201546101c08201526040519182916020835260208301906119e7565b0390f35b606460405162461bcd60e51b815260206004820152601760248201527f496e76616c6964207072696d61727920616464726573730000000000000000006044820152fd5b346100155760006003193601126100155760206102ac611cad565b346100155760006003193601126100155760206001600160a01b037f9016d09d72d40fdae2fd8ceac6b6234c7706214fd39c1cd1e609a0528c1993005416604051908152f35b34610015576020600319360112610015576001600160a01b036104c46119bb565b6104cc612039565b1680156104e9576001600160a01b03196001541617600155600080f35b606460405162461bcd60e51b815260206004820152600e60248201527f6f7261636c65206973207a65726f0000000000000000000000000000000000006044820152fd5b3461001557600060031936011261001557610546612039565b60006001600160a01b037f9016d09d72d40fdae2fd8ceac6b6234c7706214fd39c1cd1e609a0528c199300546001600160a01b031981167f9016d09d72d40fdae2fd8ceac6b6234c7706214fd39c1cd1e609a0528c19930055167f8be0079c531659141344cd1fd0a4f28419497f9722a3daafe3b4186f6b6457e08280a3005b34610015576060600319360112610015576105df6119bb565b6105e76119d1565b9060443567ffffffffffffffff811161001557610608903690600401611aea565b917ff0c57e16840df040f15088dc2f81fe391c3923bec73e23a9662efc9c229c6a00549160ff8360401c16159267ffffffffffffffff8116801590816109fa575b60011490816109f0575b1590816109e7575b506109bd576001600160a01b0392818560017fffffffffffffffffffffffffffffffffffffffffffffffff0000000000000000879516177ff0c57e16840df040f15088dc2f81fe391c3923bec73e23a9662efc9c229c6a0055610968575b506106c261209a565b6106ca61209a565b6106d333611f7a565b6106db612039565b6106e483611f7a565b166001600160a01b031960015416176001553360005260076020526040600020600160ff198254161790551660005260076020526040600020600160ff19825416179055815167ffffffffffffffff811161095257610744600054611855565b601f81116108bb575b50602092601f821160011461083a5761077f9293829160009261082f575b50506000198260011b9260031b1c19161790565b6000555b620f4240600355670de0b6b3a764000060045561079c57005b7fffffffffffffffffffffffffffffffffffffffffffffff00ffffffffffffffff7ff0c57e16840df040f15088dc2f81fe391c3923bec73e23a9662efc9c229c6a0054167ff0c57e16840df040f15088dc2f81fe391c3923bec73e23a9662efc9c229c6a00557fc7f505b2f371ae2175ee4913f4499e1f2633a7b5936321eed1cdaeb6115181d2602060405160018152a1005b01519050848061076b565b601f19821693600080527f290decd9548b62a8d60345a988386fc84ba6bc95484008f6362f93160ef3e5639160005b8681106108a3575083600195961061088a575b505050811b01600055610783565b015160001960f88460031b161c1916905583808061087c565b91926020600181928685015181550194019201610869565b6109249060008052601f830160051c7f290decd9548b62a8d60345a988386fc84ba6bc95484008f6362f93160ef3e56301906020841061092a575b601f0160051c7f290decd9548b62a8d60345a988386fc84ba6bc95484008f6362f93160ef3e5630190611c30565b8361074d565b7f290decd9548b62a8d60345a988386fc84ba6bc95484008f6362f93160ef3e56391506108f6565b634e487b7160e01b600052604160045260246000fd5b7fffffffffffffffffffffffffffffffffffffffffffffff0000000000000000001668010000000000000001177ff0c57e16840df040f15088dc2f81fe391c3923bec73e23a9662efc9c229c6a0055866106b9565b7ff92ee8a90000000000000000000000000000000000000000000000000000000060005260046000fd5b9050158661065b565b303b159150610653565b859150610649565b346100155760206003193601126100155760206102ac610a206119bb565b611c47565b34610015576101006003193601126100155760043567ffffffffffffffff811161001557610a57903690600401611aea565b610a5f6119d1565b60443590606435916001600160a01b0383169283810361001557608435906001600160a01b0382168092036100155760a435906001600160a01b0382168092036100155760c435936001600160a01b0385168095036100155760e435956001600160a01b0387168097036100155733600052600760205260ff60406000205416156112e0576001600160a01b0316916040517f95d89b41000000000000000000000000000000000000000000000000000000008152600081600481875afa9081156112d45760009161124e575b50511561120a5781158061101a575087600052600660205260016040600020015415600014610e9d57600554906801000000000000000082101561095257610b7d826001610b9c9401600555611beb565b9091906001600160a01b038084549260031b9316831b921b1916179055565b60405197610ba98961188f565b885260208801526040870152846060870152608086015260a085015260c084015260e083015266038d7ea4c6800061010083015266038d7ea4c68000610120830152655af3107a40006101408301526064610160830152670de0b6b3a7640000610180830152630134b42f6101a083015260006101c08301526000526006602052604060002090805180519067ffffffffffffffff821161095257610c4e8454611855565b601f8111610e60575b50602090601f8311600114610df157826101c093600e9593610c8e93600092610de65750506000198260011b9260031b1c19161790565b84555b602081015160018501556001600160a01b036040820151166001600160a01b036002860191166001600160a01b03198254161790556001600160a01b036060820151166001600160a01b036003860191166001600160a01b03198254161790556001600160a01b036080820151166001600160a01b036004860191166001600160a01b03198254161790556001600160a01b0360a0820151166001600160a01b036005860191166001600160a01b03198254161790556001600160a01b0360c0820151166001600160a01b036006860191166001600160a01b03198254161790556001600160a01b0360e0820151166001600160a01b036007860191166001600160a01b031982541617905561010081015160088501556101208101516009850155610140810151600a850155610160810151600b850155610180810151600c8501556101a0810151600d8501550151910155005b01519050878061076b565b9084600052806000209160005b601f1985168110610e48575092600e94926001926101c09583601f19811610610e2f575b505050811b018455610c91565b015160001960f88460031b161c19169055868080610e22565b91926020600181928685015181550194019201610dfe565b610e8d90856000526020600020601f850160051c81019160208610610e93575b601f0160051c0190611c30565b84610c57565b9091508190610e80565b509094956000939293526006602052604060002094875167ffffffffffffffff811161095257610ecd8754611855565b601f8111610fe8575b506020601f8211600114610f7f579080610f099260079a9b600092610f745750506000198260011b9260031b1c19161790565b86555b60028601906001600160a01b0319825416179055600185015560058401906001600160a01b031982541617905560048301906001600160a01b031982541617905560068201906001600160a01b031982541617905501906001600160a01b0319825416179055005b015190508b8061076b565b601f1982169988600052816000209a60005b818110610fd057509160079a9b91846001959410610fb7575b505050811b018655610f0c565b015160001960f88460031b161c191690558a8080610faa565b838301518d556001909c019b60209384019301610f91565b61101490886000526020600020601f840160051c81019160208510610e9357601f0160051c0190611c30565b89610ed6565b97985050505050505050806111f0575b61103057005b600090815b6005548110156111a657816001600160a01b0361105183611beb565b90549060031b1c16146110be578261106e575b6001905b01611035565b6001600160a01b0361107f82611beb565b90549060031b1c16908381038181116110a857600192610b7d6110a192611beb565b9050611064565b634e487b7160e01b600052601160045260246000fd5b9160001981146110a8576001809101928260005260066020526000600e604082206110e98154611855565b80611165575b50828582015582600282015582600382015582600482015582600582015582600682015582600782015582600882015582600982015582600a82015582600b82015582600c82015582600d820155015561116061114b82611beb565b6001600160a01b0382549160031b1b19169055565b611068565b601f8111861461117a57508281555b876110ef565b8184526020842061119591601f0160051c8101908701611c30565b808352826020812081835555611174565b505060005b8181106111b457005b6005549081156111da57600019600192016111d161114b82611beb565b600555016111ab565b634e487b7160e01b600052603160045260246000fd5b50806000526006602052600160406000200154151561102a565b606460405162461bcd60e51b815260206004820152601b60248201527f536574746c652061646472657373206973206e6f7420746f6b656e00000000006044820152fd5b903d8082843e61125e81846118ac565b8201916020818403126112cc5780519067ffffffffffffffff82116112d0570182601f820112156112cc5780519161129583611ace565b936112a360405195866118ac565b838552602084840101116112c95750906112c39160208085019101611973565b8a610b2c565b80fd5b5080fd5b8280fd5b6040513d6000823e3d90fd5b606460405162461bcd60e51b815260206004820152601f60248201527f63616c6c6572206973206e6f7420756e6465726c79696e67206b6565706572006044820152fd5b346100155760006003193601126100155760055461134181611b64565b9061134f60405192836118ac565b808252601f1961135e82611b64565b0160005b81811061151d57505060005b8181106113f957826040518091602082016020835281518091526040830190602060408260051b8601019301916000905b8282106113ae57505050500390f35b919360206113e9827fffffffffffffffffffffffffffffffffffffffffffffffffffffffffffffffc0600195979984950301865288516119e7565b960192019201859493919261139f565b806001600160a01b0361140d600193611beb565b90549060031b1c1660005260066020526040600020600e604051916114318361188f565b61143a816118cf565b83528481015460208401526001600160a01b0360028201541660408401526001600160a01b0360038201541660608401526001600160a01b0360048201541660808401526001600160a01b0360058201541660a08401526001600160a01b0360068201541660c08401526001600160a01b0360078201541660e084015260088101546101008401526009810154610120840152600a810154610140840152600b810154610160840152600c810154610180840152600d8101546101a084015201546101c082015261150b8286611c1c565b526115168185611c1c565b500161136e565b602090611528611b7c565b82828701015201611362565b346100155760006003193601126100155760206001600160a01b0360015416604051908152f35b34610015576080600319360112610015576115746119bb565b6040516024359160443560643560e0840167ffffffffffffffff8111858210176109525760405260008452602084019460008652604085016000815261172a60608701926000845260808801946000865260a0890196600088526001600160a01b0360c08b019960008b5216600052600660205289604060002091604051926115fc8461188f565b611605816118cf565b8452600181015460208501526001600160a01b0360028201541660408501526001600160a01b0360038201541660608501526001600160a01b0360048201541660808501526001600160a01b0360058201541660a08501526001600160a01b0360068201541660c08501526001600160a01b0360078201541660e085015260088101549361010081019485526009820154610120820152600a8201546101408201526101c0600e600b840154936101608401948552600c810154610180850152600d8101546101a08501520154910152818a52818b52858c52841561176c575b50906117196116fb61171e936117199697611b31565b956117096004548098611b44565b8093526117196003548094611b31565b611b44565b8b528951905190611b31565b9687825280519788018098116110a85760e0978352604051965187525160208701525160408601525160608501525160808401525160a08301525160c0820152f35b5193506117196116e5565b34610015576000600319360112610015576040516000805461179881611855565b808452906001811690811561183157506001146117d4575b6103fa836117c0818503826118ac565b604051918291602083526020830190611996565b60008080527f290decd9548b62a8d60345a988386fc84ba6bc95484008f6362f93160ef3e563939250905b808210611817575090915081016020016117c06117b0565b9192600181602092548385880101520191019092916117ff565b60ff191660208086019190915291151560051b840190910191506117c090506117b0565b90600182811c92168015611885575b602083101461186f57565b634e487b7160e01b600052602260045260246000fd5b91607f1691611864565b6101e0810190811067ffffffffffffffff82111761095257604052565b90601f601f19910116810190811067ffffffffffffffff82111761095257604052565b90604051918260008254926118e384611855565b8084529360018116908115611951575060011461190a575b50611908925003836118ac565b565b90506000929192526020600020906000915b81831061193557505090602061190892820101386118fb565b602091935080600191548385890101520191019091849261191c565b6020935061190895925060ff1991501682840152151560051b820101386118fb565b60005b8381106119865750506000910152565b8181015183820152602001611976565b90601f19601f6020936119b481518092818752878088019101611973565b0116010190565b600435906001600160a01b038216820361001557565b602435906001600160a01b038216820361001557565b906101c080611a0184516101e085526101e0850190611996565b93602081015160208501526001600160a01b0360408201511660408501526001600160a01b0360608201511660608501526001600160a01b0360808201511660808501526001600160a01b0360a08201511660a08501526001600160a01b0360c08201511660c08501526001600160a01b0360e08201511660e08501526101008101516101008501526101208101516101208501526101408101516101408501526101608101516101608501526101808101516101808501526101a08101516101a0850152015191015290565b67ffffffffffffffff811161095257601f01601f191660200190565b81601f8201121561001557803590611b0182611ace565b92611b0f60405194856118ac565b8284526020838301011161001557816000926020809301838601378301015290565b818102929181159184041417156110a857565b8115611b4e570490565b634e487b7160e01b600052601260045260246000fd5b67ffffffffffffffff81116109525760051b60200190565b60405190611b898261188f565b60006101c083606081528260208201528260408201528260608201528260808201528260a08201528260c08201528260e08201528261010082015282610120820152826101408201528261016082015282610180820152826101a08201520152565b600554811015611c0657600560005260206000200190600090565b634e487b7160e01b600052603260045260246000fd5b8051821015611c065760209160051b010190565b818110611c3b575050565b60008155600101611c30565b6001600160a01b03166000526006602052600160406000200154611c69611cad565b908015611c8957611c7d90611c8692611b31565b60045490611b44565b90565b5090565b9190826040910312610015576020825192015160ff811681036100155790565b60015460ff8160a01c16611d685760406001600160a01b039160048251809481937ffeaf968c000000000000000000000000000000000000000000000000000000008352165afa9081156112d457600090600092611d2e575b50611d1660ff9160045490611b31565b911690604d82116110a857611c8691600a0a90611b44565b611d16925060ff9150611d589060403d604011611d61575b611d5081836118ac565b810190611c8d565b92909150611d06565b503d611d46565b5060025490565b60009190600a8211611ed25750505034611e53575b600460406001600160a01b03600154168151928380927ffeaf968c0000000000000000000000000000000000000000000000000000000082525afa80156112d457600091600091611e32575b505b60ff611de16004548094611b31565b9116604d81116110a8576001600160a01b0391611e0191600a0a90611b44565b92168015611e2d5760005260066020526001604060002001548015611e2d5761171990611c8693611b31565b505090565b9050611e4d915060403d604011611d6157611d5081836118ac565b38611dd0565b600080808034325af13d15611ecd573d611e6c81611ace565b90611e7a60405192836118ac565b8152600060203d92013e5b611d8457606460405162461bcd60e51b815260206004820152600f60248201527f7472616e73666572206661696c656400000000000000000000000000000000006044820152fd5b611e85565b81604091601f9360446001600160a01b036001541692601f198651978896879586947f1af189a400000000000000000000000000000000000000000000000000000000865260206004870152816024870152868601378a8582860101520116810103019134905af1908115611f6f578291611f4e575b50611dd2565b9050611f69915060403d604011611d6157611d5081836118ac565b38611f48565b6040513d84823e3d90fd5b6001600160a01b0316801561200a576001600160a01b037f9016d09d72d40fdae2fd8ceac6b6234c7706214fd39c1cd1e609a0528c19930054826001600160a01b03198216177f9016d09d72d40fdae2fd8ceac6b6234c7706214fd39c1cd1e609a0528c19930055167f8be0079c531659141344cd1fd0a4f28419497f9722a3daafe3b4186f6b6457e0600080a3565b7f1e4fbdf700000000000000000000000000000000000000000000000000000000600052600060045260246000fd5b6001600160a01b037f9016d09d72d40fdae2fd8ceac6b6234c7706214fd39c1cd1e609a0528c1993005416330361206c57565b7f118cdaa7000000000000000000000000000000000000000000000000000000006000523360045260246000fd5b60ff7ff0c57e16840df040f15088dc2f81fe391c3923bec73e23a9662efc9c229c6a005460401c16156120c957565b7fd7e6bcf80000000000000000000000000000000000000000000000000000000060005260046000fdfea2646970667358221220a6af2fbf7eb49c9afc61c41b7ff2eda70d85bc11c99b99362f6fb7c3b10ebe4064736f6c634300081c0033",
  "linkReferences": {},
  "deployedLinkReferences": {}
}