{
  "_format": "hh-sol-artifact-1",
  "contractName": "LeadingContract",
  "sourceName": "contracts/LeadingContract.sol",
  "abi": [
    {
      "inputs": [],
      "name": "InvalidInitialization",
      "type": "error"
    },
    {
      "inputs": [],
      "name": "NotInitializing",
      "type": "error"
    },
    {
      "inputs": [
        {
          "internalType": "address",
          "name": "owner",
          "type": "address"
        }
      ],
      "name": "OwnableInvalidOwner",
      "type": "error"
    },
    {
      "inputs": [
        {
          "internalType": "address",
          "name": "account",
          "type": "address"
        }
      ],
      "name": "OwnableUnauthorizedAccount",
      "type": "error"
    },
    {
      "inputs": [],
      "name": "ReentrancyGuardReentrantCall",
      "type": "error"
    },
    {
      "anonymous": false,
      "inputs": [
        {
          "indexed": false,
          "internalType": "string",
          "name": "symbol",
          "type": "string"
        },
        {
          "indexed": false,
          "internalType": "uint256",
          "name": "amount",
          "type": "uint256"
        },
        {
          "indexed": false,
          "internalType": "uint256",
          "name": "price",
          "type": "uint256"
        },
        {
          "indexed": false,
          "internalType": "enum Direct",
          "name": "direct",
          "type": "uint8"
        },
        {
          "indexed": false,
          "internalType": "uint256",
          "name": "profit",
          "type": "uint256"
        }
      ],
      "name": "ClosePosition",
      "type": "event"
    },
    {
      "anonymous": false,
      "inputs": [
        {
          "indexed": false,
          "internalType": "uint256",
          "name": "OrderId",
          "type": "uint256"
        }
      ],
      "name": "ClosedAllOrder",
      "type": "event"
    },
    {
      "anonymous": false,
      "inputs": [
        {
          "indexed": false,
          "internalType": "address",
          "name": "trader",
          "type": "address"
        },
        {
          "indexed": false,
          "internalType": "address",
          "name": "token",
          "type": "address"
        },
        {
          "indexed": false,
          "internalType": "uint256",
          "name": "amount",
          "type": "uint256"
        }
      ],
      "name": "CommissionPaid",
      "type": "event"
    },
    {
      "anonymous": false,
      "inputs": [
        {
          "indexed": false,
          "internalType": "address",
          "name": "follower",
          "type": "address"
        },
        {
          "indexed": false,
          "internalType": "uint256",
          "name": "firstFollowTime",
          "type": "uint256"
        }
      ],
      "name": "FollowerAdded",
      "type": "event"
    },
    {
      "anonymous": false,
      "inputs": [
        {
          "indexed": false,
          "internalType": "address",
          "name": "follower",
          "type": "address"
        },
        {
          "indexed": false,
          "internalType": "uint256",
          "name": "removedFollowTime",
          "type": "uint256"
        }
      ],
      "name": "FollowerRemoved",
      "type": "event"
    },
    {
      "anonymous": false,
      "inputs": [
        {
          "indexed": false,
          "internalType": "uint64",
          "name": "version",
          "type": "uint64"
        }
      ],
      "name": "Initialized",
      "type": "event"
    },
    {
      "anonymous": false,
      "inputs": [
        {
          "indexed": true,
          "internalType": "address",
          "name": "previousOwner",
          "type": "address"
        },
        {
          "indexed": true,
          "internalType": "address",
          "name": "newOwner",
          "type": "address"
        }
      ],
      "name": "OwnershipTransferred",
      "type": "event"
    },
    {
      "anonymous": false,
      "inputs": [
        {
          "indexed": false,
          "internalType": "address",
          "name": "trader",
          "type": "address"
        },
        {
          "indexed": false,
          "internalType": "uint256",
          "name": "paidDistribute",
          "type": "uint256"
        },
        {
          "indexed": false,
          "internalType": "uint256",
          "name": "unpaidDistribute",
          "type": "uint256"
        }
      ],
      "name": "ProfitsDistributed",
      "type": "event"
    },
    {
      "anonymous": false,
      "inputs": [
        {
          "indexed": false,
          "internalType": "address",
          "name": "token",
          "type": "address"
        },
        {
          "indexed": false,
          "internalType": "uint256",
          "name": "orderId",
          "type": "uint256"
        },
        {
          "indexed": false,
          "internalType": "uint256",
          "name": "amount",
          "type": "uint256"
        },
        {
          "indexed": false,
          "internalType": "enum Direct",
          "name": "isBuy",
          "type": "uint8"
        },
        {
          "indexed": false,
          "internalType": "address",
          "name": "user",
          "type": "address"
        }
      ],
      "name": "Traded",
      "type": "event"
    },
    {
      "anonymous": false,
      "inputs": [
        {
          "indexed": false,
          "internalType": "bool",
          "name": "isDeposit",
          "type": "bool"
        },
        {
          "indexed": false,
          "internalType": "address",
          "name": "leader",
          "type": "address"
        },
        {
          "indexed": false,
          "internalType": "address",
          "name": "user",
          "type": "address"
        },
        {
          "indexed": false,
          "internalType": "address",
          "name": "token",
          "type": "address"
        },
        {
          "indexed": false,
          "internalType": "uint256",
          "name": "sid",
          "type": "uint256"
        },
        {
          "indexed": false,
          "internalType": "uint256",
          "name": "amount",
          "type": "uint256"
        },
        {
          "indexed": false,
          "internalType": "uint256",
          "name": "share",
          "type": "uint256"
        },
        {
          "indexed": false,
          "internalType": "uint256",
          "name": "time",
          "type": "uint256"
        },
        {
          "indexed": false,
          "internalType": "uint256",
          "name": "status",
          "type": "uint256"
        }
      ],
      "name": "TransformToken",
      "type": "event"
    },
    {
      "stateMutability": "payable",
      "type": "fallback"
    },
    {
      "inputs": [],
      "name": "Audit_Withdraw_Period",
      "outputs": [
        {
          "internalType": "uint256",
          "name": "",
          "type": "uint256"
        }
      ],
      "stateMutability": "view",
      "type": "function"
    },
    {
      "inputs": [],
      "name": "INACTIVE_PERIOD",
      "outputs": [
        {
          "internalType": "uint256",
          "name": "",
          "type": "uint256"
        }
      ],
      "stateMutability": "view",
      "type": "function"
    },
    {
      "inputs": [],
      "name": "LOW_NET_VALUE_THRESHOLD",
      "outputs": [
        {
          "internalType": "uint256",
          "name": "",
          "type": "uint256"
        }
      ],
      "stateMutability": "view",
      "type": "function"
    },
    {
      "inputs": [],
      "name": "accumulatedDepositAmount",
      "outputs": [
        {
          "internalType": "int256",
          "name": "",
          "type": "int256"
        }
      ],
      "stateMutability": "view",
      "type": "function"
    },
    {
      "inputs": [],
      "name": "accumulatedUnpaidProfit",
      "outputs": [
        {
          "internalType": "uint256",
          "name": "",
          "type": "uint256"
        }
      ],
      "stateMutability": "view",
      "type": "function"
    },
    {
      "inputs": [],
      "name": "accumulatedWithdrawAmount",
      "outputs": [
        {
          "internalType": "int256",
          "name": "",
          "type": "int256"
        }
      ],
      "stateMutability": "view",
      "type": "function"
    },
    {
      "inputs": [
        {
          "internalType": "uint256",
          "name": "",
          "type": "uint256"
        }
      ],
      "name": "allFollowers",
      "outputs": [
        {
          "internalType": "address",
          "name": "",
          "type": "address"
        }
      ],
      "stateMutability": "view",
      "type": "function"
    },
    {
      "inputs": [],
      "name": "allowedToken",
      "outputs": [
        {
          "internalType": "address",
          "name": "",
          "type": "address"
        }
      ],
      "stateMutability": "view",
      "type": "function"
    },
    {
      "inputs": [
        {
          "internalType": "string[]",
          "name": "_symbols",
          "type": "string[]"
        },
        {
          "internalType": "bytes[]",
          "name": "_priceUpdates",
          "type": "bytes[]"
        }
      ],
      "name": "autoDeleteContract",
      "outputs": [],
      "stateMutability": "payable",
      "type": "function"
    },
    {
      "inputs": [],
      "name": "cancelAllOrders",
      "outputs": [],
      "stateMutability": "nonpayable",
      "type": "function"
    },
    {
      "inputs": [
        {
          "internalType": "uint256[]",
          "name": "_ids",
          "type": "uint256[]"
        }
      ],
      "name": "cancelOrders",
      "outputs": [],
      "stateMutability": "nonpayable",
      "type": "function"
    },
    {
      "inputs": [
        {
          "internalType": "string[]",
          "name": "_symbols",
          "type": "string[]"
        },
        {
          "internalType": "bytes[]",
          "name": "_priceUpdates",
          "type": "bytes[]"
        }
      ],
      "name": "closeAllOrders",
      "outputs": [],
      "stateMutability": "payable",
      "type": "function"
    },
    {
      "inputs": [
        {
          "internalType": "string",
          "name": "_name",
          "type": "string"
        },
        {
          "internalType": "uint256",
          "name": "_amount",
          "type": "uint256"
        },
        {
          "internalType": "uint256",
          "name": "_orderType",
          "type": "uint256"
        },
        {
          "internalType": "uint256",
          "name": "_price",
          "type": "uint256"
        },
        {
          "internalType": "enum Direct",
          "name": "_type",
          "type": "uint8"
        },
        {
          "internalType": "uint256",
          "name": "_goodTill",
          "type": "uint256"
        },
        {
          "internalType": "uint256",
          "name": "_deadline",
          "type": "uint256"
        },
        {
          "internalType": "bytes",
          "name": "_priceUpdate",
          "type": "bytes"
        }
      ],
      "name": "closePosition",
      "outputs": [],
      "stateMutability": "payable",
      "type": "function"
    },
    {
      "inputs": [
        {
          "internalType": "uint256",
          "name": "_amount",
          "type": "uint256"
        },
        {
          "internalType": "string[]",
          "name": "_symbols",
          "type": "string[]"
        },
        {
          "internalType": "bytes[]",
          "name": "_reportData",
          "type": "bytes[]"
        }
      ],
      "name": "deposit",
      "outputs": [],
      "stateMutability": "payable",
      "type": "function"
    },
    {
      "inputs": [],
      "name": "depositWithdrawID",
      "outputs": [
        {
          "internalType": "uint256",
          "name": "",
          "type": "uint256"
        }
      ],
      "stateMutability": "view",
      "type": "function"
    },
    {
      "inputs": [
        {
          "internalType": "string[]",
          "name": "_symbols",
          "type": "string[]"
        },
        {
          "internalType": "bytes[]",
          "name": "_priceUpdates",
          "type": "bytes[]"
        }
      ],
      "name": "distributeProfits",
      "outputs": [],
      "stateMutability": "payable",
      "type": "function"
    },
    {
      "inputs": [],
      "name": "factory",
      "outputs": [
        {
          "internalType": "contract LeadingContractFactory",
          "name": "",
          "type": "address"
        }
      ],
      "stateMutability": "view",
      "type": "function"
    },
    {
      "inputs": [
        {
          "internalType": "address",
          "name": "",
          "type": "address"
        }
      ],
      "name": "followerIndex",
      "outputs": [
        {
          "internalType": "uint256",
          "name": "",
          "type": "uint256"
        }
      ],
      "stateMutability": "view",
      "type": "function"
    },
    {
      "inputs": [
        {
          "internalType": "uint256",
          "name": "",
          "type": "uint256"
        }
      ],
      "name": "followers",
      "outputs": [
        {
          "internalType": "address",
          "name": "userAddress",
          "type": "address"
        },
        {
          "internalType": "uint256",
          "name": "firstFollowTime",
          "type": "uint256"
        }
      ],
      "stateMutability": "view",
      "type": "function"
    },
    {
      "inputs": [],
      "name": "getAllFollowers",
      "outputs": [
        {
          "internalType": "address[]",
          "name": "",
          "type": "address[]"
        }
      ],
      "stateMutability": "view",
      "type": "function"
    },
    {
      "inputs": [
        {
          "internalType": "string[]",
          "name": "_symbols",
          "type": "string[]"
        },
        {
          "internalType": "uint256[]",
          "name": "_prices",
          "type": "uint256[]"
        }
      ],
      "name": "getAssetSummary",
      "outputs": [
        {
          "internalType": "uint256",
          "name": "assetAmount",
          "type": "uint256"
        },
        {
          "internalType": "uint256",
          "name": "netBalance",
          "type": "uint256"
        },
        {
          "internalType": "uint256",
          "name": "totalShares",
          "type": "uint256"
        },
        {
          "internalType": "uint256",
          "name": "netValue",
          "type": "uint256"
        }
      ],
      "stateMutability": "view",
      "type": "function"
    },
    {
      "inputs": [],
      "name": "getFollowerCount",
      "outputs": [
        {
          "internalType": "uint256",
          "name": "",
          "type": "uint256"
        }
      ],
      "stateMutability": "view",
      "type": "function"
    },
    {
      "inputs": [],
      "name": "getFollowers",
      "outputs": [
        {
          "internalType": "address[]",
          "name": "followerAddresses",
          "type": "address[]"
        }
      ],
      "stateMutability": "view",
      "type": "function"
    },
    {
      "inputs": [],
      "name": "getFollowersInfo",
      "outputs": [
        {
          "components": [
            {
              "internalType": "address",
              "name": "userAddress",
              "type": "address"
            },
            {
              "internalType": "uint256",
              "name": "firstFollowTime",
              "type": "uint256"
            }
          ],
          "internalType": "struct LeadingContract.Follower[]",
          "name": "",
          "type": "tuple[]"
        }
      ],
      "stateMutability": "view",
      "type": "function"
    },
    {
      "inputs": [],
      "name": "getLatestClosedProfit",
      "outputs": [
        {
          "internalType": "int256",
          "name": "profit",
          "type": "int256"
        }
      ],
      "stateMutability": "view",
      "type": "function"
    },
    {
      "inputs": [
        {
          "internalType": "uint256[]",
          "name": "indices",
          "type": "uint256[]"
        }
      ],
      "name": "getSupplyBalanceHistoryAtMultiple",
      "outputs": [
        {
          "internalType": "uint256[]",
          "name": "",
          "type": "uint256[]"
        },
        {
          "internalType": "uint256[]",
          "name": "",
          "type": "uint256[]"
        },
        {
          "internalType": "uint256[]",
          "name": "",
          "type": "uint256[]"
        }
      ],
      "stateMutability": "view",
      "type": "function"
    },
    {
      "inputs": [
        {
          "internalType": "uint256",
          "name": "index",
          "type": "uint256"
        }
      ],
      "name": "getSupplyBalanceHistoryItem",
      "outputs": [
        {
          "internalType": "int256",
          "name": "",
          "type": "int256"
        },
        {
          "internalType": "uint256",
          "name": "",
          "type": "uint256"
        },
        {
          "internalType": "uint256",
          "name": "",
          "type": "uint256"
        },
        {
          "internalType": "uint256",
          "name": "",
          "type": "uint256"
        }
      ],
      "stateMutability": "view",
      "type": "function"
    },
    {
      "inputs": [],
      "name": "getSupplyBalanceHistoryLength",
      "outputs": [
        {
          "internalType": "uint256",
          "name": "",
          "type": "uint256"
        }
      ],
      "stateMutability": "view",
      "type": "function"
    },
    {
      "inputs": [
        {
          "internalType": "string[]",
          "name": "_symbols",
          "type": "string[]"
        },
        {
          "internalType": "uint256[]",
          "name": "_prices",
          "type": "uint256[]"
        }
      ],
      "name": "getTotalBalance",
      "outputs": [
        {
          "internalType": "uint256",
          "name": "assetAmount",
          "type": "uint256"
        },
        {
          "internalType": "bool",
          "name": "gainLoss",
          "type": "bool"
        },
        {
          "internalType": "uint256",
          "name": "profit",
          "type": "uint256"
        }
      ],
      "stateMutability": "view",
      "type": "function"
    },
    {
      "inputs": [
        {
          "internalType": "address",
          "name": "user",
          "type": "address"
        }
      ],
      "name": "getUserShare",
      "outputs": [
        {
          "internalType": "uint256",
          "name": "_totalShares",
          "type": "uint256"
        },
        {
          "internalType": "uint256",
          "name": "_freezeShare",
          "type": "uint256"
        }
      ],
      "stateMutability": "view",
      "type": "function"
    },
    {
      "inputs": [
        {
          "internalType": "address",
          "name": "user",
          "type": "address"
        }
      ],
      "name": "getWithdrawItems",
      "outputs": [
        {
          "components": [
            {
              "internalType": "address",
              "name": "user",
              "type": "address"
            },
            {
              "internalType": "uint256",
              "name": "withdrawID",
              "type": "uint256"
            },
            {
              "internalType": "uint256",
              "name": "withdrawShare",
              "type": "uint256"
            },
            {
              "internalType": "uint256",
              "name": "withdrawAmount",
              "type": "uint256"
            },
            {
              "internalType": "uint256",
              "name": "withdrawTime",
              "type": "uint256"
            },
            {
              "internalType": "uint8",
              "name": "status",
              "type": "uint8"
            }
          ],
          "internalType": "struct LeadingContract.UserWithdrawShareItem[]",
          "name": "",
          "type": "tuple[]"
        }
      ],
      "stateMutability": "view",
      "type": "function"
    },
    {
      "inputs": [
        {
          "internalType": "uint256[]",
          "name": "items",
          "type": "uint256[]"
        },
        {
          "internalType": "bool",
          "name": "cancel",
          "type": "bool"
        },
        {
          "internalType": "string[]",
          "name": "_symbols",
          "type": "string[]"
        },
        {
          "internalType": "bytes[]",
          "name": "_reportData",
          "type": "bytes[]"
        }
      ],
      "name": "handleWithdrawItems",
      "outputs": [],
      "stateMutability": "payable",
      "type": "function"
    },
    {
      "inputs": [
        {
          "internalType": "uint256[]",
          "name": "items",
          "type": "uint256[]"
        },
        {
          "internalType": "string[]",
          "name": "_symbols",
          "type": "string[]"
        },
        {
          "internalType": "bytes[]",
          "name": "_reportData",
          "type": "bytes[]"
        }
      ],
      "name": "handleWithdrawItems4Risk",
      "outputs": [],
      "stateMutability": "payable",
      "type": "function"
    },
    {
      "inputs": [
        {
          "internalType": "address",
          "name": "",
          "type": "address"
        }
      ],
      "name": "hasFollowed",
      "outputs": [
        {
          "internalType": "bool",
          "name": "",
          "type": "bool"
        }
      ],
      "stateMutability": "view",
      "type": "function"
    },
    {
      "inputs": [
        {
          "internalType": "address",
          "name": "initialOwner",
          "type": "address"
        },
        {
          "internalType": "address",
          "name": "_trader",
          "type": "address"
        },
        {
          "internalType": "address payable",
          "name": "_factoryAddress",
          "type": "address"
        },
        {
          "internalType": "address",
          "name": "_perpetual",
          "type": "address"
        },
        {
          "internalType": "address",
          "name": "_tradeAgent",
          "type": "address"
        },
        {
          "internalType": "address",
          "name": "_orderBook",
          "type": "address"
        }
      ],
      "name": "initialize",
      "outputs": [],
      "stateMutability": "nonpayable",
      "type": "function"
    },
    {
      "inputs": [],
      "name": "isInactive",
      "outputs": [
        {
          "internalType": "bool",
          "name": "",
          "type": "bool"
        }
      ],
      "stateMutability": "view",
      "type": "function"
    },
    {
      "inputs": [],
      "name": "lastBalanceSnapTime",
      "outputs": [
        {
          "internalType": "uint256",
          "name": "",
          "type": "uint256"
        }
      ],
      "stateMutability": "view",
      "type": "function"
    },
    {
      "inputs": [],
      "name": "lastDistributionTime",
      "outputs": [
        {
          "internalType": "uint256",
          "name": "",
          "type": "uint256"
        }
      ],
      "stateMutability": "view",
      "type": "function"
    },
    {
      "inputs": [],
      "name": "lastSettleClosedBalance",
      "outputs": [
        {
          "internalType": "int256",
          "name": "",
          "type": "int256"
        }
      ],
      "stateMutability": "view",
      "type": "function"
    },
    {
      "inputs": [],
      "name": "lastTradeTime",
      "outputs": [
        {
          "internalType": "uint256",
          "name": "",
          "type": "uint256"
        }
      ],
      "stateMutability": "view",
      "type": "function"
    },
    {
      "inputs": [],
      "name": "orderBook",
      "outputs": [
        {
          "internalType": "contract IOrderBook",
          "name": "",
          "type": "address"
        }
      ],
      "stateMutability": "view",
      "type": "function"
    },
    {
      "inputs": [],
      "name": "owner",
      "outputs": [
        {
          "internalType": "address",
          "name": "",
          "type": "address"
        }
      ],
      "stateMutability": "view",
      "type": "function"
    },
    {
      "inputs": [],
      "name": "perpetual",
      "outputs": [
        {
          "internalType": "contract IPerpetuals",
          "name": "",
          "type": "address"
        }
      ],
      "stateMutability": "view",
      "type": "function"
    },
    {
      "inputs": [
        {
          "internalType": "string[]",
          "name": "symbols",
          "type": "string[]"
        },
        {
          "internalType": "bytes[]",
          "name": "reportData",
          "type": "bytes[]"
        }
      ],
      "name": "recordSupplyAndBalance",
      "outputs": [],
      "stateMutability": "payable",
      "type": "function"
    },
    {
      "inputs": [],
      "name": "renounceOwnership",
      "outputs": [],
      "stateMutability": "nonpayable",
      "type": "function"
    },
    {
      "inputs": [
        {
          "internalType": "string",
          "name": "_name",
          "type": "string"
        },
        {
          "internalType": "uint256",
          "name": "_leverage",
          "type": "uint256"
        }
      ],
      "name": "setUserLeverage",
      "outputs": [],
      "stateMutability": "nonpayable",
      "type": "function"
    },
    {
      "inputs": [
        {
          "internalType": "uint256",
          "name": "",
          "type": "uint256"
        }
      ],
      "name": "supplyBalanceHistory",
      "outputs": [
        {
          "internalType": "int256",
          "name": "totalProfit",
          "type": "int256"
        },
        {
          "internalType": "uint256",
          "name": "totalSupply",
          "type": "uint256"
        },
        {
          "internalType": "uint256",
          "name": "totalBalance",
          "type": "uint256"
        },
        {
          "internalType": "uint256",
          "name": "timestamp",
          "type": "uint256"
        }
      ],
      "stateMutability": "view",
      "type": "function"
    },
    {
      "inputs": [],
      "name": "totalShare",
      "outputs": [
        {
          "internalType": "uint256",
          "name": "",
          "type": "uint256"
        }
      ],
      "stateMutability": "view",
      "type": "function"
    },
    {
      "inputs": [
        {
          "internalType": "string",
          "name": "_name",
          "type": "string"
        },
        {
          "internalType": "uint256",
          "name": "_amount",
          "type": "uint256"
        },
        {
          "internalType": "uint256",
          "name": "_price",
          "type": "uint256"
        },
        {
          "internalType": "uint256",
          "name": "_orderType",
          "type": "uint256"
        },
        {
          "internalType": "enum Direct",
          "name": "_type",
          "type": "uint8"
        },
        {
          "internalType": "uint256",
          "name": "_goodTill",
          "type": "uint256"
        },
        {
          "internalType": "uint256",
          "name": "_deadline",
          "type": "uint256"
        },
        {
          "internalType": "bytes",
          "name": "_priceUpdate",
          "type": "bytes"
        }
      ],
      "name": "trade",
      "outputs": [],
      "stateMutability": "payable",
      "type": "function"
    },
    {
      "inputs": [],
      "name": "tradeAgent",
      "outputs": [
        {
          "internalType": "contract ITradeAgent",
          "name": "",
          "type": "address"
        }
      ],
      "stateMutability": "view",
      "type": "function"
    },
    {
      "inputs": [],
      "name": "trader",
      "outputs": [
        {
          "internalType": "address",
          "name": "",
          "type": "address"
        }
      ],
      "stateMutability": "view",
      "type": "function"
    },
    {
      "inputs": [
        {
          "internalType": "string[]",
          "name": "_symbols",
          "type": "string[]"
        },
        {
          "internalType": "bytes[]",
          "name": "_priceUpdates",
          "type": "bytes[]"
        }
      ],
      "name": "traderDeleteContract",
      "outputs": [],
      "stateMutability": "payable",
      "type": "function"
    },
    {
      "inputs": [
        {
          "internalType": "address",
          "name": "newOwner",
          "type": "address"
        }
      ],
      "name": "transferOwnership",
      "outputs": [],
      "stateMutability": "nonpayable",
      "type": "function"
    },
    {
      "inputs": [
        {
          "internalType": "address",
          "name": "",
          "type": "address"
        }
      ],
      "name": "userShares",
      "outputs": [
        {
          "internalType": "uint256",
          "name": "",
          "type": "uint256"
        }
      ],
      "stateMutability": "view",
      "type": "function"
    },
    {
      "inputs": [
        {
          "internalType": "uint256",
          "name": "",
          "type": "uint256"
        }
      ],
      "name": "userWithdrawItems",
      "outputs": [
        {
          "internalType": "address",
          "name": "user",
          "type": "address"
        },
        {
          "internalType": "uint256",
          "name": "withdrawID",
          "type": "uint256"
        },
        {
          "internalType": "uint256",
          "name": "withdrawShare",
          "type": "uint256"
        },
        {
          "internalType": "uint256",
          "name": "withdrawAmount",
          "type": "uint256"
        },
        {
          "internalType": "uint256",
          "name": "withdrawTime",
          "type": "uint256"
        },
        {
          "internalType": "uint8",
          "name": "status",
          "type": "uint8"
        }
      ],
      "stateMutability": "view",
      "type": "function"
    },
    {
      "inputs": [
        {
          "internalType": "uint256",
          "name": "_share",
          "type": "uint256"
        }
      ],
      "name": "withdraw",
      "outputs": [],
      "stateMutability": "nonpayable",
      "type": "function"
    },
    {
      "stateMutability": "payable",
      "type": "receive"
    }
  ],
  "bytecode": "0x60808060405234601557615778908161001b8239f35b600080fdfe61020080604052600436101561001157005b600060a05260a0513560e01c908163026c4207146132bf57508063028afabf14613117578063030fc7dd146130f35780630d79f561146130705780630fa4710914612ee8578063170794a814612d185780631758078b14612cf057806319e67d7514612cc75780631abc901f14612c7b578063227ddb4e1461260a5780632449e973146125115780632e1a7d4d1461235a5780632f1cc4d01461229a57806333eeae3d146122395780633f70498b1461220b578063490ae1cd1461209b5780634d7ddfec1461207c5780634e4c03e21461205d57806351c21fee14611fd65780635660143514611fae5780635e829a0214611f8857806366776f6214611efb57806368306b7614611edc5780636b66350b14611e9b578063715018a614611df757806375b1735014611dd8578063776af5ba14611db05780637829ae4a14611d915780637fcd8c4714611b8f57806385fa292f14611b6757806387ec936d14611b4d5780638da5cb5b14611b0657806390536e431461110c5780639f43ae3c146110ed578063a70c7ed414610ff4578063aa66ea6714610f83578063b2b7d9ac14610f64578063b55fb57414610e5e578063bacea2d214610e0a578063bbbaee4c14610d54578063c365e42114610cc1578063c45a015514610c99578063c89db57214610c7a578063c99e740714610c5d578063cc2a9a5b14610888578063cce13b8e14610869578063d1ab4aaa146105b3578063d4baf48814610594578063d5eee8b614610575578063de69b3aa14610539578063e5978686146103d2578063e5b1da6314610396578063f1268ef41461031d578063f262ff7e146102fe578063f2fde38b146102cf5763f8ef9a981461028857005b346102c95760206003193601126102c9576001600160a01b036102a96134f0565b1660a051526012602052602060ff604060a0512054166040519015158152f35b60a05180fd5b346102c95760206003193601126102c9576102f86102eb6134f0565b6102f36150e0565b61468d565b60a05180f35b346102c95760a0516003193601126102c9576020600554604051908152f35b610326366136a6565b61033c6001600160a01b03600354163314613736565b610344613c8d565b15610352576102f891614ac0565b606460405162461bcd60e51b815260206004820152601860248201527f436f6e7472616374206973206e6f7420696e61637469766500000000000000006044820152fd5b346102c95760206003193601126102c9576001600160a01b036103b76134f0565b1660a0515260186020526020604060a0512054604051908152f35b6101006003193601126102c95760043567ffffffffffffffff81116102c9576103ff9036906004016133fb565b6084359060038210156102c95760e43567ffffffffffffffff81116102c95761042c9036906004016133fb565b9061043561474c565b61044b6001600160a01b03600e541633146139cc565b6001600160a01b0360a0515416803b156102c9576104906104b3926104d8604051968795869485946372cbc34360e11b86526101006004870152610104860190613a60565b9160243560248601526044356044860152606435606486015260848501906142b9565b60a43560a484015260c43560c48401526003198382030160e484015260a05196613a60565b039134905af1801561052c57610513575b60017f9b779b17422d0df92223018b32b4d1fa46e071723d6817e2486d003becc55f005560a05180f35b60a05161051f916133a4565b60a0516102c957806104e9565b6040513d60a051823e3d90fd5b346102c95760206003193601126102c9576001600160a01b0361055a6134f0565b1660a0515260106020526020604060a0512054604051908152f35b346102c95760a0516003193601126102c9576020600654604051908152f35b346102c95760a0516003193601126102c9576020600b54604051908152f35b6101006003193601126102c95760043567ffffffffffffffff81116102c9576105e09036906004016133fb565b6024356084359160038310156102c95760e4359067ffffffffffffffff82116102c957366023830112156102c95781600401359067ffffffffffffffff82116102c95736602483850101116102c95761063761474c565b6001600160a01b03600e541661064e8133146139cc565b6001600160a01b0360a051541690813b156102c95760208793878660246106d2996106b3966040519b8c9a8b998a987fc8f5ede2000000000000000000000000000000000000000000000000000000008a5261012060048b01526101248a0190613a60565b96858901526044356044890152606435606489015260848801906142b9565b60a486015260a43560c486015260c43560e486015260031985850301610104860152828452018483013760a051838883010152601f19601f60a0519801160103019134905af1801561052c57610850575b50426006556001600160a01b03600f5416600460206001600160a01b0360015416604051928380927fc3710f250000000000000000000000000000000000000000000000000000000082525afa90811561052c5760a05191610819575b506000198101908111610801577fdbbd5ef86e8d481cd0d16075f381b0127c9d9fcd035a76a516d4efa8f8bbfc369360a0936107d0926040519485526020850152604084015260608301906142b9565b336080820152a160017f9b779b17422d0df92223018b32b4d1fa46e071723d6817e2486d003becc55f005560a05180f35b634e487b7160e01b60a051526011600452602460a051fd5b90506020813d602011610848575b81610834602093836133a4565b81010312610843575184610780565b600080fd5b3d9150610827565b60a05161085c916133a4565b60a0516102c95782610723565b346102c95760a0516003193601126102c9576020600a54604051908152f35b346102c95760c06003193601126102c9576108a16134f0565b6024356001600160a01b038116908190036102c957604435906001600160a01b0382168092036102c9576064356001600160a01b03811693908490036102c9576084356001600160a01b03811691908290036102c95760a4356001600160a01b03811691908290036102c9577ff0c57e16840df040f15088dc2f81fe391c3923bec73e23a9662efc9c229c6a00549060ff8260401c16159667ffffffffffffffff831680159081610c55575b6001149081610c4b575b159081610c42575b50610c1657610a11602092848a60017fffffffffffffffffffffffffffffffffffffffffffffffff000000000000000060049816177ff0c57e16840df040f15088dc2f81fe391c3923bec73e23a9662efc9c229c6a0055610bc1575b506109c46156e9565b6109cc6156e9565b6109d53361468d565b6109dd6156e9565b6109e56156e9565b60017f9b779b17422d0df92223018b32b4d1fa46e071723d6817e2486d003becc55f00556102f36150e0565b806001600160a01b031960a05154161760a05155604051928380927f2ca430510000000000000000000000000000000000000000000000000000000082525afa801561052c5760a05190610b81575b6001600160a01b039150166001600160a01b0319600f541617600f556001600160a01b031960015416176001556001600160a01b031960025416176002556001600160a01b0319600e541617600e556001600160a01b03196003541617600355620151806005554260065542600855610ade62015180420642613804565b600755610aeb5760a05180f35b7fffffffffffffffffffffffffffffffffffffffffffffff00ffffffffffffffff7ff0c57e16840df040f15088dc2f81fe391c3923bec73e23a9662efc9c229c6a0054167ff0c57e16840df040f15088dc2f81fe391c3923bec73e23a9662efc9c229c6a00557fc7f505b2f371ae2175ee4913f4499e1f2633a7b5936321eed1cdaeb6115181d2602060405160018152a16102f8565b506020813d602011610bb9575b81610b9b602093836133a4565b810103126102c957610bb46001600160a01b039161431c565b610a60565b3d9150610b8e565b7fffffffffffffffffffffffffffffffffffffffffffffff0000000000000000001668010000000000000001177ff0c57e16840df040f15088dc2f81fe391c3923bec73e23a9662efc9c229c6a00558a6109bb565b7ff92ee8a90000000000000000000000000000000000000000000000000000000060a05152600460a051fd5b9050158961095f565b303b159150610957565b89915061094d565b346102c95760a0516003193601126102c957602060405160018152f35b346102c95760a0516003193601126102c9576020601954604051908152f35b346102c95760a0516003193601126102c95760206001600160a01b0360035416604051908152f35b346102c95760a0516003193601126102c957604051806020601554918281520190601560a051527f55f448fdea98c4d29eb340757ef0a66cd03dbb9538908a6a81d96026b71ec4759060a0515b818110610d3557610d3185610d25818703826133a4565b604051918291826132db565b0390f35b82546001600160a01b0316845260209093019260019283019201610d0e565b346102c95760206003193601126102c9576001600160a01b03610d756134f0565b16308103610ddb5750610d86615344565b6009545b60a05191825b8151841015610dcb57610dc3600191610da98685613915565b5160a0515260176020526002604060a0512001549061395c565b930192610d90565b8260409182519182526020820152f35b8060a051526010602052604060a05120549060a051526011602052610e04604060a0512061538f565b90610d8a565b346102c95760206003193601126102c957610e2f610e296004356135cc565b5061399a565b805160208083015160408085015160609586015182519586529385019290925283015291810191909152608090f35b346102c95760206003193601126102c95760043567ffffffffffffffff81116102c957610e8f90369060040161353b565b610ea56001600160a01b03600e541633146139cc565b47906001600160a01b0360a051541690813b156102c95760405180927fb55fb574000000000000000000000000000000000000000000000000000000008252602060048301528180610efe60a051956024830190613598565b039160a051905af1801561052c57610f4b575b50610f1c9047613804565b80610f275760a05180f35b60a051610f4591819081908190335af1610f3f613827565b50613857565b806102f8565b60a051610f57916133a4565b60a0516102c95781610f11565b346102c95760a0516003193601126102c9576020600754604051908152f35b346102c95760206003193601126102c95760043560a05152601760205260c0604060a051206001600160a01b0381541690600181015490600281015460038201549060ff600560048501549401541693604051958652602086015260408501526060840152608083015260a0820152f35b346102c95760a0516003193601126102c957601654611012816133c7565b9061102060405192836133a4565b808252602082019081601660a051527fd833147d7dc355ba459fc788f669e58cfaf9dc25ddcd0702e87d69c7b512428960a051915b8383106110b75784866040519182916020830190602084525180915260408301919060a0515b818110611089575050500390f35b825180516001600160a01b03168552602090810151818601528695506040909401939092019160010161107b565b600260206001926040516110ca8161336c565b6001600160a01b0386541681528486015483820152815201920192019190611055565b346102c95760a0516003193601126102c9576020600d54604051908152f35b60606003193601126102c95760043567ffffffffffffffff81116102c95761113890369060040161353b565b6101e05260243567ffffffffffffffff81116102c95761115c903690600401613440565b6044359067ffffffffffffffff82116102c95761119b6111836111959336906004016134bf565b939061118d61474c565b84369161363a565b826148a6565b916111a581613d5c565b60a051916020925b818110611ad55750506111c08484613aeb565b5050670de0b6b3a7640000810290808204670de0b6b3a76400001490151715610801576009549193916111f29161393c565b610100526111fe6147c5565b60a05160055491949092835b6101e0515185101561129457611223856101e051613915565b5160a051526017865242611240856004604060a05120015461395c565b1061127a57611271600191611258876101e051613915565b5160a05152601788526002604060a0512001549061395c565b945b019361120a565b9360019060a05161128e826101e051613915565b52611273565b858781670de0b6b3a76400006112af8c956101005190613929565b0491015190808210611304575b5050505060a0515b6101e051518110156104e957806112e06001926101e051613915565b51848482156112fc57610100516112f693614c39565b016112c4565b5050506112f6565b906113129195929395613804565b60a05160c05260a05191611324615303565b61016052611330615303565b6080526001600160a01b0360a051541691604051927fcd2ce4ae0000000000000000000000000000000000000000000000000000000084528360048160a051935afa92831561052c5760a05193611aaf575b5060a0516101c0526001600160a01b036001541660e0526001600160a01b0360025416610120525b82516101c05110156116c95760a0969196516101a0525b600260ff6101a0511610156116b6576113dd6101c05184613915565b51604051907f0c6ff418000000000000000000000000000000000000000000000000000000008252818061141d60a051936101a051903060048501614252565b038160e0515afa801561052c5760a0516101405261168f575b5061143f6152ba565b966101405151156116875760a0516101805260a0515b875181101561167f576114688189613915565b516040516114968982816114858183019687815193849201613a3d565b81010301601f1981018352826133a4565b5190206114a66101c05187613915565b516040516114c38a82816114858183019687815193849201613a3d565b519020146114d357600101611455565b6114e09084999294613915565b51610180525b61153960406114f86101c05187613915565b518151809381927f721db562000000000000000000000000000000000000000000000000000000008352306004840152608060248401526084830190613a60565b61018051604483015260ff6101a0511660648301520381610120515afa801561052c5760a051918291611648575b50610180516060840152876101405101670de0b6b3a764000061158e610180518351613929565b0460808501526115a16101c05188613915565b5184526101a05160ff16898501525160408401528115611606575060a08201526115d060c05161016051613915565b526115e060c05161016051613915565b506115ec60c051613c7e565b60c0525b60ff60016101a05101166101a0529590956113c1565b809150611615575b50506115f0565b9061164092959160c082015261162d82608051613915565b5261163a81608051613915565b50613c7e565b92878061160e565b9150506040813d8211611677575b81611663604093836133a4565b810103126102c9578681519101518a611567565b3d9150611656565b5091966114e6565b9196506115f0565b6116ac903d8060a051833e6116a481836133a4565b8101906141d6565b6101405287611436565b95909560016101c051016101c0526113aa565b949392915094506116dc8160c05161395c565b90601f196117026116ec846133c7565b936116fa60405195866133a4565b8085526133c7565b018360a0515b828110611a995750505060a051600160c051146000146119d25761174690611732610160516138f8565b5161173c856138f8565b5261163a846138f8565b905b600181036119005750611772906117606080516138f8565b5161176b8285613915565b5282613915565b505b60a051935b81518510156118f657604061178e8684613915565b51015190608061179e8785613915565b5101518110156118d457505060a0519360606117ba8284613915565b510151156118bc5760a05160406117d18385613915565b51015160a051116118a7575b6001600160a01b0360a05154166117f48385613915565b51519161181861181360ff8861180a888a613915565b51015116614282565b614294565b916040519161182788846133a4565b60a0518352813b156102c95761185c94604051958694859384936372cbc34360e11b855260a0519842924292600488016142c6565b039160a051905af1801561052c5761188e575b50841561187f5760010193611779565b50505090505b828080806112bc565b60a05161189a916133a4565b60a0516102c9578661186f565b5060406118b48284613915565b5101516117dd565b634e487b7160e01b60a051526012600452602460a051fd5b6118f09060806118e78886999599613915565b51015190613804565b946117dd565b5050509050611885565b60021461190e575b50611774565b60c061191b6080516138f8565b51015160c061192b608051613905565b51015111156119845761193f6080516138f8565b5161194a8284613915565b526119558183613915565b50611961608051613905565b5190600181018091116108015761197c9161176b8285613915565b505b85611908565b61198f608051613905565b5161199a8284613915565b526119a58183613915565b506119b16080516138f8565b519060018101809111610801576119cc9161176b8285613915565b5061197e565b90600260c0510361174857905060a06119ed610160516138f8565b51015160a06119fe61016051613905565b5101511015611a5257611a13610160516138f8565b51611a1d836138f8565b52611a27826138f8565b50611a3461016051613905565b51611a3e83613905565b52611a4882613905565b505b600290611748565b611a5e61016051613905565b51611a68836138f8565b52611a72826138f8565b50611a7f610160516138f8565b51611a8983613905565b52611a9382613905565b50611a4a565b611aa16152ba565b828287010152018490611708565b611ace9193503d8060a051833e611ac681836133a4565b8101906140fe565b9187611382565b600190604051611ae586826133a4565b60a0518152611af48286613915565b52611aff8185613915565b50016111ad565b346102c95760a0516003193601126102c95760206001600160a01b037f9016d09d72d40fdae2fd8ceac6b6234c7706214fd39c1cd1e609a0528c1993005416604051908152f35b6104e9611b59366136a6565b90611b6261474c565b6143a8565b346102c95760a0516003193601126102c95760206001600160a01b03600f5416604051908152f35b611bbf611b9b366136a6565b90611ba461474c565b611bba6001600160a01b03600354163314613736565b6148a6565b506001600160a01b0360a0515416604051907fcd2ce4ae0000000000000000000000000000000000000000000000000000000082528160048160a051935afa90811561052c5760a05191611d75575b5060a0516020915b80518210156104e95760a0515b600260ff821610611c3957509060010190611c16565b6001600160a01b0360015416611c4f8484613915565b5160405180927f0c6ff4180000000000000000000000000000000000000000000000000000000082528180611c8c8760a051963060048501614252565b03915afa90811561052c5760a05191611d59575b50805115611d4e576001600160a01b0360a051541685611cc08686613915565b51920151611cd061181385614282565b9160405191611cdf89846133a4565b60a0518352813b156102c957611d1494604051958694859384936372cbc34360e11b855260a0519842924292600488016142c6565b039160a051905af1801561052c57611d35575b50600160ff915b0116611c23565b60a051611d41916133a4565b60a0516102c95784611d27565b50600160ff91611d2e565b611d6f91503d8060a051833e6116a481836133a4565b85611ca0565b611d8b91503d8060a051833e611ac681836133a4565b81611c0e565b346102c95760a0516003193601126102c9576020601654604051908152f35b346102c95760a0516003193601126102c95760206001600160a01b0360015416604051908152f35b346102c95760a0516003193601126102c9576020600854604051908152f35b346102c95760a0516003193601126102c957611e116150e0565b7f9016d09d72d40fdae2fd8ceac6b6234c7706214fd39c1cd1e609a0528c199300546001600160a01b031981167f9016d09d72d40fdae2fd8ceac6b6234c7706214fd39c1cd1e609a0528c199300556001600160a01b0360a05191167f8be0079c531659141344cd1fd0a4f28419497f9722a3daafe3b4186f6b6457e060a05160a051a360a05180f35b346102c95760206003193601126102c9576004356015548110156102c9576001600160a01b03611ecc602092613703565b90549060031b1c16604051908152f35b346102c95760a0516003193601126102c9576020600c54604051908152f35b60806003193601126102c95760043567ffffffffffffffff81116102c957611f2790369060040161353b565b60243580151581036102c95760443567ffffffffffffffff81116102c957611f53903690600401613440565b916064359267ffffffffffffffff84116102c957611f786104e99436906004016134bf565b939092611f8361474c565b613da5565b346102c95760a0516003193601126102c9576020611fa4613c8d565b6040519015158152f35b346102c95760a0516003193601126102c95760206001600160a01b0360025416604051908152f35b346102c957611ff9611fe7366135eb565b909190611ff26147c5565b5192613aeb565b5050906009549160a0519083612025575b92608093604051938452602084015260408301526060820152f35b9050670de0b6b3a7640000810292818404670de0b6b3a76400001482151715610801576120548160809561393c565b9190935061200a565b346102c95760a0516003193601126102c9576020600454604051908152f35b346102c95760a0516003193601126102c9576020604051624f1a008152f35b6120a4366136a6565b6120ba6001600160a01b03600e541633146139cc565b6120c26147c5565b60408101516121c75760600151612183576120dc91614ac0565b6001600160a01b03600354166001600160a01b03600e54166001600160a01b03600f5416823b156102c9576040517f7f7c149100000000000000000000000000000000000000000000000000000000815260a0516001600160a01b039384166004830152929091166024820152918290818060448101039160a051905af1801561052c5761216a5760a05180f35b60a051612176916133a4565b60a0516102c957806102f8565b606460405162461bcd60e51b815260206004820152601160248201527f4578697374206c696d6974206f726465720000000000000000000000000000006044820152fd5b606460405162461bcd60e51b815260206004820152600e60248201527f457869737420706f736974696f6e0000000000000000000000000000000000006044820152fd5b346102c957606061222461221e366135eb565b90613aeb565b90604051928352151560208301526040820152f35b346102c95760206003193601126102c9576004356019548110156102c957612260906135cc565b508054610d316001830154926003600282015491015490604051948594859094939260609260808301968352602083015260408201520152565b346102c95760406003193601126102c95760043567ffffffffffffffff81116102c9576122cb9036906004016133fb565b6122e16001600160a01b03600e541633146139cc565b6001600160a01b0360a0515416803b156102c957612333916040519283917f2f1cc4d0000000000000000000000000000000000000000000000000000000008352604060048401526044830190613a60565b916024356024830152818060a05194039160a051905af1801561052c5761216a5760a05180f35b346102c95760206003193601126102c95760043561237661474c565b6004546001810180911161080157806004553360a0515260116020526123a0604060a0512061538f565b60a0519092815b84518310156123c8576123c0600191610da98588613915565b9201916123a7565b816123e485923360a051526010602052604060a0512054613804565b106124cd57612402903360a051526011602052604060a051206154fe565b5061240e600454615487565b5060ff6005600454926040519061242482613350565b338252602082019085825260408301908152606083019060a0518252608084019242845260a08501976001895260a0515260176020526001600160a01b0380604060a05120965116166001600160a01b03198654161785555160018501555160028401555160038301555160048201550191511660ff1982541617905560017f9b779b17422d0df92223018b32b4d1fa46e071723d6817e2486d003becc55f005560a05160a051f35b606460405162461bcd60e51b815260206004820152601d60248201527f496e73756666696369656e7420617661696c61626c65207368617265730000006044820152fd5b346102c95760206003193601126102c95760043567ffffffffffffffff81116102c95761254290369060040161353b565b805161254d81613969565b9061255781613969565b61256082613969565b9160a051601954905b8281106125ac5761259086610d318761259e88604051958695606087526060870190613598565b908582036020870152613598565b908382036040850152613598565b806125b960019289613915565b518381106125c9575b5001612569565b6125d7610e296060926135cc565b60208101516125e6848b613915565b5260408101516125f68489613915565b5201516126038288613915565b52886125c2565b60606003193601126102c95760043560243567ffffffffffffffff81116102c957612639903690600401613440565b60443567ffffffffffffffff81116102c9576126599036906004016134bf565b909161266361474c565b600954612c53575050508034612c38575b3360a051526010602052604060a0512061268f82825461395c565b905561269d8160095461395c565b6009553360a05152601260205260ff604060a05120541615612a50575b6001600160a01b03600f54166001600160a01b0360a051541660a0515060a0515060a05150836040926127717fffffffff0000000000000000000000000000000000000000000000000000000060186020875161271789826133a4565b8281527f617070726f766528616464726573732c75696e7432353629000000000000000091019081522086519116602082019081526001600160a01b039590951660248201526044808201949094529283526064836133a4565b60a0519260a05192519160a051905af1612789613827565b81612a19575b50156102c9576001600160a01b03600f54166127ab84826153da565b80151580612a10575b80612a07575b6128f7575b50506001600160a01b0360a0515416803b156102c9578151907fb6b55f250000000000000000000000000000000000000000000000000000000082528460048301528160248160a0519360a051905af180156128eb576128d2575b5061282783600b546138a2565b600b556004549160018301809311610801577f613128987cba7a2073cf49ff02fbbe4e3728a0cf7ed9f8942569818fd0cfd66e9383610120946004556001600160a01b03600f541684519460a051506001865230602087015233908601526060850152608084015260a083015260c08201524260e08201526002610100820152a160017f9b779b17422d0df92223018b32b4d1fa46e071723d6817e2486d003becc55f005560a05180f35b60a0516128de916133a4565b60a0516102c9578361281a565b82513d60a051823e3d90fd5b82517fffffffff00000000000000000000000000000000000000000000000000000000906025906129296060826133a4565b8181527f74323536290000000000000000000000000000000000000000000000000000008660208301927f7472616e7366657246726f6d28616464726573732c616464726573732c75696e84520152201691835191602083019384523360248401523060448401526064830152606482526129a56084836133a4565b60a0519260a05192519160a051905af16129bd613827565b816129d0575b50156102c95783806127bf565b80518015925082156129e5575b5050846129c3565b81925090602091810103126102c9576020612a009101613a85565b84806129dd565b503015156127ba565b503315156127b4565b8051801592508215612a2e575b50508461278f565b81925090602091810103126102c9576020612a499101613a85565b8480612a26565b3360a051526012602052604060a05120600160ff1982541617905560155468010000000000000000811015612c2057806001612a8f9201601555613703565b81549060031b906001600160a01b0333831b921b19161790553360a051526018602052604060a051205415612b41575b6001600160a01b0360035416803b156102c9576040517fae5e55e600000000000000000000000000000000000000000000000000000000815260a08051336004840152306024840152905191929091839160449183915af1801561052c57612b28575b506126ba565b60a051612b34916133a4565b60a0516102c95782612b22565b604051612b4d8161336c565b338152602081019042825260165468010000000000000000811015612c2057806001612b7c9201601655613506565b929092612c07576001600160a01b03806001935116166001600160a01b0319845416178355519101556016543360a051526018602052604060a05120557f25721861c38b8c48f6705fecaea93b5de674735f1628fa9898ed0a89184aa25c60405180612bff423383602090939291936001600160a01b0360408201951681520152565b0390a1612abf565b634e487b7160e01b60a0515260a051600452602460a051fd5b634e487b7160e01b60a051526041600452602460a051fd5b60a051612c4e9080808034335af1610f3f613827565b612674565b61221e611195612c4e94612c6894369161363a565b5050612c7660095484613929565b61393c565b346102c95760206003193601126102c9576004356016548110156102c957612ca290613506565b508054600190910154604080516001600160a01b039093168352602083019190915290f35b346102c95760a0516003193601126102c95760206001600160a01b0360a0515416604051908152f35b346102c95760a0516003193601126102c95760206001600160a01b03600e5416604051908152f35b346102c95760206003193601126102c9576001600160a01b03612d396134f0565b16308103612ecc5750612d4a615344565b805190601f19612d5c6116ec846133c7565b0160a0515b818110612e8557505060a0515b8151811015612dfd5780612d8460019284613915565b5160a051526017602052604060a0512060ff600560405192612da584613350565b6001600160a01b03815416845285810154602085015260028101546040850152600381015460608501526004810154608085015201541660a0820152612deb8286613915565b52612df68185613915565b5001612d6e565b8260405180916020820160208352815180915260206040840192019060a0515b818110612e2b575050500390f35b91935091602060c060019260ff60a088516001600160a01b038151168452858101518685015260408101516040850152606081015160608501526080810151608085015201511660a0820152019401910191849392612e1d565b602090604051612e9481613350565b60a051815260a0518382015260a051604082015260a051606082015260a051608082015260a05160a082015282828701015201612d61565b60a051526011602052612ee3604060a0512061538f565b612d4a565b60406003193601126102c95760043567ffffffffffffffff81116102c957612f14903690600401613440565b60243567ffffffffffffffff81116102c957612f349036906004016134bf565b919062015180612f4660075442613804565b1061302c5761119561221e91612f5d94369161363a565b5050612f6e62015180420642613804565b80600755612f7a6138d7565b906009549260405192612f8c8461331e565b8084526020840194855260408401918252606084019283526019549081612ff9575b505060195468010000000000000000811015612c2057806001612fd492016019556135cc565b949094612c07576003935185555160018501555160028401555191015560a05160a051f35b60001982019182116108015761301d61302391613015846135cc565b5054906138be565b916135cc565b50558480612fae565b606460405162461bcd60e51b815260206004820152601760248201527f746f6f2073686f72742074696d6520696e74657276616c0000000000000000006044820152fd5b346102c95760a0516003193601126102c95760165461308e816133c7565b9061309c60405192836133a4565b808252601f196130ab826133c7565b0136602084013760a0515b8181106130cb5760405180610d3185826132db565b806001600160a01b036130df600193613506565b5054166130ec8286613915565b52016130b6565b346102c95760a0516003193601126102c957602061310f6138d7565b604051908152f35b346102c95760a0516003193601126102c95761313161474c565b476131486001600160a01b03600354163314613736565b6001600160a01b036001541690604051917f6f4907cb0000000000000000000000000000000000000000000000000000000083523060048401528260248160a051935afa91821561052c5760a0519261327d575b506001600160a01b0360a051541691823b156102c95760405180937fb55fb5740000000000000000000000000000000000000000000000000000000082526020600483015281806131f460a051956024830190613598565b039160a051905af191821561052c576132139261326b575b5047613804565b806132425760017f9b779b17422d0df92223018b32b4d1fa46e071723d6817e2486d003becc55f005560a05180f35b60a051600e54613265928291829182916001600160a01b03165af1610f3f613827565b806104e9565b60a051613277916133a4565b8261320c565b9091503d8060a051833e61329181836133a4565b81016020828203126102c957815167ffffffffffffffff81116102c9576132b892016137a7565b908261319c565b346102c95760a0516003193601126102c9576020906009548152f35b602060408183019282815284518094520192019060005b8181106132ff5750505090565b82516001600160a01b03168452602093840193909201916001016132f2565b6080810190811067ffffffffffffffff82111761333a57604052565b634e487b7160e01b600052604160045260246000fd5b60c0810190811067ffffffffffffffff82111761333a57604052565b6040810190811067ffffffffffffffff82111761333a57604052565b60a0810190811067ffffffffffffffff82111761333a57604052565b90601f601f19910116810190811067ffffffffffffffff82111761333a57604052565b67ffffffffffffffff811161333a5760051b60200190565b67ffffffffffffffff811161333a57601f01601f191660200190565b81601f8201121561084357602081359101613415826133df565b9261342360405194856133a4565b828452828201116108435781600092602092838601378301015290565b9080601f83011215610843578135613457816133c7565b9261346560405194856133a4565b81845260208085019260051b820101918383116108435760208201905b83821061349157505050505090565b813567ffffffffffffffff8111610843576020916134b4878480948801016133fb565b815201910190613482565b9181601f840112156108435782359167ffffffffffffffff8311610843576020808501948460051b01011161084357565b600435906001600160a01b038216820361084357565b60165481101561352557601660005260206000209060011b0190600090565b634e487b7160e01b600052603260045260246000fd5b9080601f83011215610843578135613552816133c7565b9261356060405194856133a4565b81845260208085019260051b82010192831161084357602001905b8282106135885750505090565b813581526020918201910161357b565b906020808351928381520192019060005b8181106135b65750505090565b82518452602093840193909201916001016135a9565b60195481101561352557601960005260206000209060021b0190600090565b9060406003198301126108435760043567ffffffffffffffff8111610843578261361791600401613440565b916024359067ffffffffffffffff8211610843576136379160040161353b565b90565b929190613646816133c7565b9361365460405195866133a4565b602085838152019160051b8101918383116108435781905b83821061367a575050505050565b813567ffffffffffffffff81116108435760209161369b87849387016133fb565b81520191019061366c565b9060406003198301126108435760043567ffffffffffffffff811161084357826136d291600401613440565b916024359067ffffffffffffffff82116108435780602383011215610843578160246136379360040135910161363a565b60155481101561352557601560005260206000200190600090565b80548210156135255760005260206000200190600090565b1561373d57565b608460405162461bcd60e51b815260206004820152602360248201527f4f6e6c7920666163746f72792063616e2063616c6c20746869732066756e637460448201527f696f6e00000000000000000000000000000000000000000000000000000000006064820152fd5b9080601f830112156108435781516137be816133c7565b926137cc60405194856133a4565b81845260208085019260051b82010192831161084357602001905b8282106137f45750505090565b81518152602091820191016137e7565b9190820391821161381157565b634e487b7160e01b600052601160045260246000fd5b3d15613852573d90613838826133df565b9161384660405193846133a4565b82523d6000602084013e565b606090565b1561385e57565b606460405162461bcd60e51b815260206004820152600f60248201527f7472616e73666572206661696c656400000000000000000000000000000000006044820152fd5b9190916000838201938412911290801582169115161761381157565b8181039291600013801582851316918412161761381157565b6136376138ef6138e56147c5565b51600c54906138a2565b600b54906138be565b8051156135255760200190565b8051600110156135255760400190565b80518210156135255760209160051b010190565b8181029291811591840414171561381157565b8115613946570490565b634e487b7160e01b600052601260045260246000fd5b9190820180921161381157565b90613973826133c7565b61398060405191826133a4565b828152601f1961399082946133c7565b0190602036910137565b906040516139a78161331e565b6060600382948054845260018101546020850152600281015460408501520154910152565b156139d357565b608460405162461bcd60e51b815260206004820152602560248201527f4f6e6c79207472616465722063616e206578656375746520746869732066756e60448201527f6374696f6e0000000000000000000000000000000000000000000000000000006064820152fd5b60005b838110613a505750506000910152565b8181015183820152602001613a40565b90601f19601f602093613a7e81518092818752878088019101613a3d565b0116010190565b5190811515820361084357565b9080602083519182815201916020808360051b8301019401926000915b838310613abe57505050505090565b9091929394602080613adc83601f1986600196030187528951613a60565b97019301930191939290613aaf565b90918151835103613c14576040613b6b93613b046147c5565b5193613b596001600160a01b0360025416918451978894859384937f9aa59c65000000000000000000000000000000000000000000000000000000008552306004860152606060248601526064850190613a92565b90600319848303016044850152613598565b03915afa918215613c08576000938493613bc2575b50828415613b98575082613b939161395c565b929190565b9250909250818111613bb1575050600090600090600090565b81613bbb91613804565b9160009190565b939092506040843d604011613c00575b81613bdf604093836133a4565b81010312613bfd57506020613bf384613a85565b9301519138613b80565b80fd5b3d9150613bd2565b6040513d6000823e3d90fd5b608460405162461bcd60e51b815260206004820152602160248201527f7072696365204172726179206c656e677468732061726520646966666572656e60448201527f74000000000000000000000000000000000000000000000000000000000000006064820152fd5b60001981146138115760010190565b624f1a00613c9d60065442613804565b11613cf957601954601e811015613cb5575b50600190565b6000907fffffffffffffffffffffffffffffffffffffffffffffffffffffffffffffffe28101818111613811575b818110613cfe575050601e14613cf95738613caf565b600190565b6002613d09826135cc565b500154612710810290808204612710149015171561381157613d3a60019182613d31856135cc565b5001549061393c565b10613d48575b600101613ce3565b91613d54600191613c7e565b929050613d40565b90613d66826133c7565b613d7360405191826133a4565b828152601f19613d8382946133c7565b019060005b828110613d9457505050565b806060602080938501015201613d88565b9394919290613f5757613ddc613dd6613de292613dce6001600160a01b03600e541633146139cc565b87369161363a565b846148a6565b83613aeb565b6020613df0979392976147c5565b01519615613f34575b50670de0b6b3a7640000810290808204670de0b6b3a7640000149015171561381157600954613e279161393c565b91613e3182613d5c565b9560209260005b818110613f0457505060005b8651811015613efa57613e578188613915565b51918260005260178552670de0b6b3a7640000613ec6876040600020604051613e7f81613350565b6001600160a01b03825416815260018201548a82015260a060ff60056002850154948560408601526003810154606086015260048101546080860152015416910152613929565b0490818110613eee57898888613ee260019695613ee895613804565b96614c39565b01613e44565b50505050945050505050565b5050945050505050565b600190604051613f1487826133a4565b60008152613f22828c613915565b52613f2d818b613915565b5001613e38565b9095818110613f4e5790613f4791613804565b9438613df9565b50505092505050565b5092505060005b81518110156140df57613f718183613915565b5190816000526017602052604060002091604051613f8e81613350565b6001600160a01b038454168152600184015460208201526002840154906040810191825260ff6005600387015496606084019788526004810154608085015201541660a08201528260005260176020526005604060002001600360ff198254161790556001600160a01b03339151160361409b576001937f613128987cba7a2073cf49ff02fbbe4e3728a0cf7ed9f8942569818fd0cfd66e926101209233600052601160205261404282604060002061562d565b5061404c8261555d565b506001600160a01b03600f5416925190519160405193600085523060208601523360408601526060850152608084015260a083015260c08201524260e08201526003610100820152a101613f5e565b606460405162461bcd60e51b815260206004820152601060248201527f77726f6e672077697468647261776572000000000000000000000000000000006044820152fd5b5050346140e857565b6140fc600080808034335af1610f3f613827565b565b6020818303126108435780519067ffffffffffffffff8211610843570181601f8201121561084357805190614132826133c7565b9261414060405194856133a4565b82845260208085019360051b830101918183116108435760208101935b83851061416c57505050505090565b845167ffffffffffffffff81116108435782019083603f830112156108435760208201519061419a826133df565b6141a760405191826133a4565b8281526040848401018610610843576141cb60209493859460408685019101613a3d565b81520194019361415d565b6020818303126108435780519067ffffffffffffffff8211610843570160a081830312610843576040519161420a83613388565b81518352602082015160208401526040820151604084015260608201516060840152608082015167ffffffffffffffff81116108435761424a92016137a7565b608082015290565b9161427b60ff916001600160a01b03604094979697168552606060208601526060850190613a60565b9416910152565b60ff60019116019060ff821161381157565b60ff1660038110156142a35790565b634e487b7160e01b600052602160045260246000fd5b9060038210156142a35752565b92614305906142e76136379896939794976101008752610100870190613a60565b966020860152600060408601526000606086015260808501906142b9565b60a083015260c082015260e0818403910152613a60565b51906001600160a01b038216820361084357565b91614348918352606060208401526060830190613a92565b906040818303910152815180825260208201916020808360051b8301019401926000915b83831061437b57505050505090565b909192939460208061439983601f1986600196030187528951613a60565b9701930193019193929061436c565b60085460009062093a808101809111614679574210614674576143c96138d7565b90600d5482131561466557600492936143e4600d54846138be565b92600d5560606001600160a01b0360035416604051958680927ff50200570000000000000000000000000000000000000000000000000000000082525afa9283156145f35782908395849561460a575b5061444461444d92606492613929565b04600a5461395c565b80600a55602061445b6147c5565b0151818111156146025750945b856144c3575b505050505060607f6326552a814f8b0fafe09c417dec98dc3a4a5fd9348a0277f67eb84e192aa05e9161449f615141565b6001600160a01b03600e541690600a549060405192835260208301526040820152a1565b6001600160a01b0383541690813b156145fe579183916144fa936040518095819482936352065a6560e11b84528c60048501614330565b039134905af180156145f3579261455992606095927f6326552a814f8b0fafe09c417dec98dc3a4a5fd9348a0277f67eb84e192aa05e97956145e3575b50508391801515806145d1575b61459b575b505080614574575b600c546138a2565b600c5561456881600a54613804565b600a559138808061446e565b614596816001600160a01b03600f54166001600160a01b03600e541690615196565b614551565b6145ca9192506145ad60649186613929565b046145b88186613804565b926001600160a01b03600f5416615196565b3880614549565b506001600160a01b0382161515614544565b816145ed916133a4565b38614537565b6040513d84823e3d90fd5b8380fd5b905094614468565b95509350506060843d60601161465d575b81614628606093836133a4565b810103126146595761444d606461444486519661464c60406020830151920161431c565b9790979692509250614434565b5080fd5b3d915061461b565b50915050600d556140fc615141565b505050565b602482634e487b7160e01b81526011600452fd5b6001600160a01b0316801561471d576001600160a01b037f9016d09d72d40fdae2fd8ceac6b6234c7706214fd39c1cd1e609a0528c19930054826001600160a01b03198216177f9016d09d72d40fdae2fd8ceac6b6234c7706214fd39c1cd1e609a0528c19930055167f8be0079c531659141344cd1fd0a4f28419497f9722a3daafe3b4186f6b6457e0600080a3565b7f1e4fbdf700000000000000000000000000000000000000000000000000000000600052600060045260246000fd5b60027f9b779b17422d0df92223018b32b4d1fa46e071723d6817e2486d003becc55f00541461479b5760027f9b779b17422d0df92223018b32b4d1fa46e071723d6817e2486d003becc55f0055565b7f3ee5aeb50000000000000000000000000000000000000000000000000000000060005260046000fd5b600060806040516147d581613388565b8281528260208201528260408201528260608201520152602460a06001600160a01b0360005416604051928380927ffb47e0160000000000000000000000000000000000000000000000000000000082523060048301525afa908115613c0857600091614840575090565b905060a0813d60a01161489e575b8161485b60a093836133a4565b810103126108435760806040519161487283613388565b805183526020810151602084015260408101516040840152606081015160608401520151608082015290565b3d915061484e565b8051825103614a7c576148ba81513461393c565b81518015613946573406926148cf8151613969565b9260005b815180821015614a725760001981019081116138115786908214614a61575b5061494b60206001600160a01b036003541661490e8486613915565b519060405180809581947f299ae7530000000000000000000000000000000000000000000000000000000083528660048401526024830190613a60565b03915afa908115613c0857600091614a19575b5060206149b66001600160a01b03926149778588613915565b51886040519586809581947fb3d316c1000000000000000000000000000000000000000000000000000000008352604060048401526044830190613a60565b600060248301520393165af1908115613c08576000916149e7575b50906001916149e08288613915565b52016148d3565b906020823d8211614a11575b81614a00602093836133a4565b81010312613bfd57505160016149d1565b3d91506149f3565b906020823d8211614a59575b81614a32602093836133a4565b81010312613bfd575060206149b6614a516001600160a01b039361431c565b92505061495e565b3d9150614a25565b614a6b919461395c565b92856148f2565b5050505050919050565b606460405162461bcd60e51b815260206004820152602060248201527f496e636f6e73697374656e74207072696365206172726179206c656e677468736044820152fd5b90614ac96147c5565b519060009082936001600160a01b0383541690813b156145fe57918391614b07936040518095819482936352065a6560e11b84528a60048501614330565b039134905af180156145f3578290614c29575b90505b601554811015614bb1576001600160a01b03614b3882613703565b90549060031b1c168083526010602052604083205480614b5d575b5050600101614b1d565b6001929195614b7b614b7287614ba194613929565b6009549061393c565b9081811115614ba85781614b8e91613804565b965b6001600160a01b03600f5416615196565b9038614b53565b90508496614b90565b50915050806009556015548160155580614bc9575050565b601582527f55f448fdea98c4d29eb340757ef0a66cd03dbb9538908a6a81d96026b71ec47501907f55f448fdea98c4d29eb340757ef0a66cd03dbb9538908a6a81d96026b71ec4755b828110614c1e57505050565b818155600101614c12565b614c32916133a4565b3881614b1a565b919392936000948386526017602052604086209186670de0b6b3a7640000614cb060405196614c6788613350565b6001600160a01b03875416885260018701546020890152600287015460ff600560408b0199838b52600381015460608d0152600481015460808d015201541660a08a0152613929565b04928682526017602052836003604084200155868252601760205260056040832001600260ff19825416179055614ce984600c546138a2565b600c556001600160a01b03825416803b15614f1357614d2093836040518096819582946352065a6560e11b84528a60048501614330565b03925af180156150d557615097575b50907f613128987cba7a2073cf49ff02fbbe4e3728a0cf7ed9f8942569818fd0cfd66e61012083614d7a614def956001600160a01b03600f54166001600160a01b0389511690615196565b6001600160a01b03600f541690845190604051928b8452306020850152336040850152606084015288608084015260a083015260c08201524260e08201526002610100820152a180516001600160a01b0384511687526010602052614de460408820918254613804565b905551600954613804565b6009556001600160a01b0381511684526010602052604084205415614e3b575b816040614e3894956001600160a01b03614e32945116815260116020522061562d565b5061555d565b50565b6001600160a01b038151168085526018602052604085205480614f17575b50506001600160a01b03815116845260126020526040842060ff198154169055836001600160a01b03600354166001600160a01b03835116813b15614f13576040517fdf51a5f60000000000000000000000000000000000000000000000000000000081526001600160a01b0391909116600482015230602482015291908290604490829084905af18015614f0857614ef3575b50614e0f565b614efe8580926133a4565b6145fe5738614eed565b6040513d87823e3d90fd5b8280fd5b601654600019810190811161508357808203614fdf575b50506016548015614fcb5760001901614f4681613506565b614fb85791614fae9187600185827f3ddbb648aaeaaabce96671fb64baf7032313b7a0ef5c7083332fab22b28b481b975501556016558087526018602052866040812055604051918291429083602090939291936001600160a01b0360408201951681520152565b0390a13880614e59565b602487634e487b7160e01b815280600452fd5b602486634e487b7160e01b81526031600452fd5b614fe881613506565b50600019830183811161506f57614ffe90613506565b91909161505c579181836001600160a01b03946150229403615038575b5050613506565b5054168652601860205260408620553880614f2e565b805482546001600160a01b031916908616178255600190810154910155388061501b565b602489634e487b7160e01b815280600452fd5b602489634e487b7160e01b81526011600452fd5b602487634e487b7160e01b81526011600452fd5b610120876150cb614def9594997f613128987cba7a2073cf49ff02fbbe4e3728a0cf7ed9f8942569818fd0cfd66e946133a4565b9792935050614d2f565b6040513d89823e3d90fd5b6001600160a01b037f9016d09d72d40fdae2fd8ceac6b6234c7706214fd39c1cd1e609a0528c1993005416330361511357565b7f118cdaa7000000000000000000000000000000000000000000000000000000006000523360045260246000fd5b61515062015180420642613804565b620151808104600481018091116138115760079006600019810190811161381157620151808102908082046201518014901517156138115761519191613804565b600855565b90916151a290826153da565b90811515806152a8575b6151b557505050565b6000928380936152576040936152497fffffffff000000000000000000000000000000000000000000000000000000006019602088516151f58a826133a4565b828152017f7472616e7366657228616464726573732c75696e7432353629000000000000008152201695519384926020840197885260248401602090939291936001600160a01b0360408201951681520152565b03601f1981018352826133a4565b51925af1615263613827565b81615271575b501561084357565b8051801592508215615286575b505038615269565b81925090602091810103126108435760206152a19101613a85565b388061527e565b506001600160a01b03831615156151ac565b6040519060e0820182811067ffffffffffffffff82111761333a57604052600060c083606081528260208201528260408201528260608201528260808201528260a08201520152565b6040516060919061531483826133a4565b6002815291601f19018260005b82811061532d57505050565b6020906153386152ba565b82828501015201615321565b604051906013548083528260208101601360005260206000209260005b8181106153765750506140fc925003836133a4565b8454835260019485019487945060209093019201615361565b906040519182815491828252602082019060005260206000209260005b8181106153c15750506140fc925003836133a4565b84548352600194850194879450602090930192016153ac565b60206001600160a01b03916004604051809481937f313ce567000000000000000000000000000000000000000000000000000000008352165afa908115613c085760009161544a575b5060ff16604d811161381157670de0b6b3a76400009161544691600a0a90613929565b0490565b6020813d60201161547f575b81615463602093836133a4565b8101031261465957519060ff82168203613bfd575060ff615423565b3d9150615456565b806000526014602052604060002054156000146154f8576013546801000000000000000081101561333a576154df6154c8826001859401601355601361371e565b81939154906000199060031b92831b921b19161790565b9055601354906000526014602052604060002055600190565b50600090565b60018101908260005281602052604060002054156000146155555780546801000000000000000081101561333a576155406154c882600187940185558461371e565b90555491600052602052604060002055600190565b505050600090565b600081815260146020526040902054801561562657600019810181811161381157601354906000198201918211613811578181036155ec575b50505060135480156155d657600019016155b181601361371e565b60001982549160031b1b19169055601355600052601460205260006040812055600190565b634e487b7160e01b600052603160045260246000fd5b61560e6155fd6154c893601361371e565b90549060031b1c928392601361371e565b90556000526014602052604060002055388080615596565b5050600090565b90600182019181600052826020526040600020548015156000146156e0576000198101818111613811578254906000198201918211613811578181036156a9575b505050805480156155d6576000190190615688828261371e565b60001982549160031b1b191690555560005260205260006040812055600190565b6156c96156b96154c8938661371e565b90549060031b1c9283928661371e565b90556000528360205260406000205538808061566e565b50505050600090565b60ff7ff0c57e16840df040f15088dc2f81fe391c3923bec73e23a9662efc9c229c6a005460401c161561571857565b7fd7e6bcf80000000000000000000000000000000000000000000000000000000060005260046000fdfea2646970667358221220181eeaaa47583a6fb54c6c21aa060b4dff50cbc95d3ad75a41948ab0c716825d64736f6c634300081c0033",
  "linkReferences": {},
  "deployedLinkReferences": {}
}