{
  "_format": "hh-sol-artifact-1",
  "contractName": "LeadingContract",
  "sourceName": "contracts/LeadingContract.sol",
  "abi": [
    {
      "inputs": [],
      "name": "InvalidInitialization",
      "type": "error"
    },
    {
      "inputs": [],
      "name": "NotInitializing",
      "type": "error"
    },
    {
      "inputs": [
        {
          "internalType": "address",
          "name": "owner",
          "type": "address"
        }
      ],
      "name": "OwnableInvalidOwner",
      "type": "error"
    },
    {
      "inputs": [
        {
          "internalType": "address",
          "name": "account",
          "type": "address"
        }
      ],
      "name": "OwnableUnauthorizedAccount",
      "type": "error"
    },
    {
      "inputs": [],
      "name": "ReentrancyGuardReentrantCall",
      "type": "error"
    },
    {
      "anonymous": false,
      "inputs": [
        {
          "indexed": false,
          "internalType": "address",
          "name": "trader",
          "type": "address"
        },
        {
          "indexed": false,
          "internalType": "address",
          "name": "token",
          "type": "address"
        },
        {
          "indexed": false,
          "internalType": "uint256",
          "name": "amount",
          "type": "uint256"
        }
      ],
      "name": "CommissionPaid",
      "type": "event"
    },
    {
      "anonymous": false,
      "inputs": [
        {
          "indexed": false,
          "internalType": "int256",
          "name": "totalProfit",
          "type": "int256"
        },
        {
          "indexed": false,
          "internalType": "uint256",
          "name": "totalShare",
          "type": "uint256"
        },
        {
          "indexed": false,
          "internalType": "uint256",
          "name": "totalAsset",
          "type": "uint256"
        },
        {
          "indexed": false,
          "internalType": "uint256",
          "name": "timestamp",
          "type": "uint256"
        }
      ],
      "name": "DailyAssetShare",
      "type": "event"
    },
    {
      "anonymous": false,
      "inputs": [
        {
          "indexed": false,
          "internalType": "address",
          "name": "follower",
          "type": "address"
        },
        {
          "indexed": false,
          "internalType": "uint256",
          "name": "firstFollowTime",
          "type": "uint256"
        }
      ],
      "name": "FollowerAdded",
      "type": "event"
    },
    {
      "anonymous": false,
      "inputs": [
        {
          "indexed": false,
          "internalType": "address",
          "name": "follower",
          "type": "address"
        },
        {
          "indexed": false,
          "internalType": "uint256",
          "name": "removedFollowTime",
          "type": "uint256"
        }
      ],
      "name": "FollowerRemoved",
      "type": "event"
    },
    {
      "anonymous": false,
      "inputs": [
        {
          "indexed": false,
          "internalType": "uint64",
          "name": "version",
          "type": "uint64"
        }
      ],
      "name": "Initialized",
      "type": "event"
    },
    {
      "anonymous": false,
      "inputs": [
        {
          "indexed": false,
          "internalType": "address",
          "name": "leadingContract",
          "type": "address"
        },
        {
          "indexed": false,
          "internalType": "address",
          "name": "leader",
          "type": "address"
        },
        {
          "indexed": false,
          "internalType": "address",
          "name": "token",
          "type": "address"
        },
        {
          "indexed": false,
          "internalType": "uint256",
          "name": "round",
          "type": "uint256"
        },
        {
          "indexed": false,
          "internalType": "uint256",
          "name": "startTime",
          "type": "uint256"
        },
        {
          "indexed": false,
          "internalType": "uint256",
          "name": "endTime",
          "type": "uint256"
        },
        {
          "indexed": false,
          "internalType": "uint256",
          "name": "accumulatedCommission",
          "type": "uint256"
        },
        {
          "indexed": false,
          "internalType": "int256",
          "name": "accumulatedDepositAmount",
          "type": "int256"
        },
        {
          "indexed": false,
          "internalType": "int256",
          "name": "accumulatedWithdrawAmount",
          "type": "int256"
        }
      ],
      "name": "LeadingContractReckon",
      "type": "event"
    },
    {
      "anonymous": false,
      "inputs": [
        {
          "indexed": true,
          "internalType": "address",
          "name": "previousOwner",
          "type": "address"
        },
        {
          "indexed": true,
          "internalType": "address",
          "name": "newOwner",
          "type": "address"
        }
      ],
      "name": "OwnershipTransferred",
      "type": "event"
    },
    {
      "anonymous": false,
      "inputs": [
        {
          "indexed": false,
          "internalType": "address",
          "name": "leadingContract",
          "type": "address"
        },
        {
          "indexed": false,
          "internalType": "address",
          "name": "trader",
          "type": "address"
        },
        {
          "indexed": false,
          "internalType": "address",
          "name": "token",
          "type": "address"
        },
        {
          "indexed": false,
          "internalType": "uint256",
          "name": "paidDistribute",
          "type": "uint256"
        },
        {
          "indexed": false,
          "internalType": "uint256",
          "name": "unpaidDistribute",
          "type": "uint256"
        }
      ],
      "name": "ProfitsDistributed",
      "type": "event"
    },
    {
      "anonymous": false,
      "inputs": [
        {
          "indexed": false,
          "internalType": "bool",
          "name": "isDeposit",
          "type": "bool"
        },
        {
          "indexed": false,
          "internalType": "address",
          "name": "leader",
          "type": "address"
        },
        {
          "indexed": false,
          "internalType": "address",
          "name": "user",
          "type": "address"
        },
        {
          "indexed": false,
          "internalType": "address",
          "name": "token",
          "type": "address"
        },
        {
          "indexed": false,
          "internalType": "uint256",
          "name": "sid",
          "type": "uint256"
        },
        {
          "indexed": false,
          "internalType": "uint256",
          "name": "amount",
          "type": "uint256"
        },
        {
          "indexed": false,
          "internalType": "uint256",
          "name": "share",
          "type": "uint256"
        },
        {
          "indexed": false,
          "internalType": "uint256",
          "name": "time",
          "type": "uint256"
        },
        {
          "indexed": false,
          "internalType": "uint256",
          "name": "status",
          "type": "uint256"
        }
      ],
      "name": "TransformToken",
      "type": "event"
    },
    {
      "stateMutability": "payable",
      "type": "fallback"
    },
    {
      "inputs": [],
      "name": "accumulatedCommission",
      "outputs": [
        {
          "internalType": "uint256",
          "name": "",
          "type": "uint256"
        }
      ],
      "stateMutability": "view",
      "type": "function"
    },
    {
      "inputs": [],
      "name": "accumulatedDepositAmount",
      "outputs": [
        {
          "internalType": "int256",
          "name": "",
          "type": "int256"
        }
      ],
      "stateMutability": "view",
      "type": "function"
    },
    {
      "inputs": [],
      "name": "accumulatedUnpaidProfit",
      "outputs": [
        {
          "internalType": "uint256",
          "name": "",
          "type": "uint256"
        }
      ],
      "stateMutability": "view",
      "type": "function"
    },
    {
      "inputs": [],
      "name": "accumulatedWithdrawAmount",
      "outputs": [
        {
          "internalType": "int256",
          "name": "",
          "type": "int256"
        }
      ],
      "stateMutability": "view",
      "type": "function"
    },
    {
      "inputs": [],
      "name": "allowedToken",
      "outputs": [
        {
          "internalType": "address",
          "name": "",
          "type": "address"
        }
      ],
      "stateMutability": "view",
      "type": "function"
    },
    {
      "inputs": [
        {
          "internalType": "uint256",
          "name": "",
          "type": "uint256"
        }
      ],
      "name": "assetShareHistory",
      "outputs": [
        {
          "internalType": "int256",
          "name": "totalProfit",
          "type": "int256"
        },
        {
          "internalType": "uint256",
          "name": "totalShare",
          "type": "uint256"
        },
        {
          "internalType": "uint256",
          "name": "totalAsset",
          "type": "uint256"
        },
        {
          "internalType": "uint256",
          "name": "timestamp",
          "type": "uint256"
        }
      ],
      "stateMutability": "view",
      "type": "function"
    },
    {
      "inputs": [],
      "name": "auditWithdrawPeriod",
      "outputs": [
        {
          "internalType": "uint256",
          "name": "",
          "type": "uint256"
        }
      ],
      "stateMutability": "view",
      "type": "function"
    },
    {
      "inputs": [],
      "name": "cancelAllLimitOrders",
      "outputs": [],
      "stateMutability": "nonpayable",
      "type": "function"
    },
    {
      "inputs": [
        {
          "internalType": "uint256[]",
          "name": "_ids",
          "type": "uint256[]"
        }
      ],
      "name": "cancelOrders",
      "outputs": [],
      "stateMutability": "nonpayable",
      "type": "function"
    },
    {
      "inputs": [
        {
          "internalType": "string",
          "name": "_name",
          "type": "string"
        },
        {
          "internalType": "uint256",
          "name": "_amount",
          "type": "uint256"
        },
        {
          "internalType": "uint256",
          "name": "_orderType",
          "type": "uint256"
        },
        {
          "internalType": "uint256",
          "name": "_price",
          "type": "uint256"
        },
        {
          "internalType": "enum Direct",
          "name": "_type",
          "type": "uint8"
        },
        {
          "internalType": "uint256",
          "name": "_goodTill",
          "type": "uint256"
        },
        {
          "internalType": "uint256",
          "name": "_deadline",
          "type": "uint256"
        },
        {
          "internalType": "bytes",
          "name": "_priceUpdate",
          "type": "bytes"
        }
      ],
      "name": "closePosition",
      "outputs": [],
      "stateMutability": "payable",
      "type": "function"
    },
    {
      "inputs": [],
      "name": "commissionRate",
      "outputs": [
        {
          "internalType": "uint256",
          "name": "",
          "type": "uint256"
        }
      ],
      "stateMutability": "view",
      "type": "function"
    },
    {
      "inputs": [],
      "name": "createdTime",
      "outputs": [
        {
          "internalType": "uint256",
          "name": "",
          "type": "uint256"
        }
      ],
      "stateMutability": "view",
      "type": "function"
    },
    {
      "inputs": [],
      "name": "dailyAssetShareSnapPeriod",
      "outputs": [
        {
          "internalType": "uint256",
          "name": "",
          "type": "uint256"
        }
      ],
      "stateMutability": "view",
      "type": "function"
    },
    {
      "inputs": [
        {
          "internalType": "uint256",
          "name": "_amount",
          "type": "uint256"
        },
        {
          "internalType": "string[]",
          "name": "_symbols",
          "type": "string[]"
        },
        {
          "internalType": "bytes[]",
          "name": "_reportData",
          "type": "bytes[]"
        }
      ],
      "name": "deposit",
      "outputs": [],
      "stateMutability": "payable",
      "type": "function"
    },
    {
      "inputs": [],
      "name": "distributeCommissionPeriod",
      "outputs": [
        {
          "internalType": "uint256",
          "name": "",
          "type": "uint256"
        }
      ],
      "stateMutability": "view",
      "type": "function"
    },
    {
      "inputs": [
        {
          "internalType": "string[]",
          "name": "_symbols",
          "type": "string[]"
        },
        {
          "internalType": "bytes[]",
          "name": "_priceUpdates",
          "type": "bytes[]"
        }
      ],
      "name": "distributeProfits",
      "outputs": [],
      "stateMutability": "payable",
      "type": "function"
    },
    {
      "inputs": [
        {
          "internalType": "string[]",
          "name": "symbols",
          "type": "string[]"
        },
        {
          "internalType": "bytes[]",
          "name": "reportData",
          "type": "bytes[]"
        }
      ],
      "name": "generateDailyAssetShare",
      "outputs": [],
      "stateMutability": "payable",
      "type": "function"
    },
    {
      "inputs": [],
      "name": "getAllFollowers",
      "outputs": [
        {
          "internalType": "address[]",
          "name": "",
          "type": "address[]"
        }
      ],
      "stateMutability": "view",
      "type": "function"
    },
    {
      "inputs": [
        {
          "internalType": "uint256",
          "name": "index",
          "type": "uint256"
        }
      ],
      "name": "getAssetShareHistoryItem",
      "outputs": [
        {
          "internalType": "int256",
          "name": "",
          "type": "int256"
        },
        {
          "internalType": "uint256",
          "name": "",
          "type": "uint256"
        },
        {
          "internalType": "uint256",
          "name": "",
          "type": "uint256"
        },
        {
          "internalType": "uint256",
          "name": "",
          "type": "uint256"
        }
      ],
      "stateMutability": "view",
      "type": "function"
    },
    {
      "inputs": [
        {
          "internalType": "uint256[]",
          "name": "indices",
          "type": "uint256[]"
        }
      ],
      "name": "getAssetSharesHistoriesByDay",
      "outputs": [
        {
          "components": [
            {
              "internalType": "int256",
              "name": "totalProfit",
              "type": "int256"
            },
            {
              "internalType": "uint256",
              "name": "totalShare",
              "type": "uint256"
            },
            {
              "internalType": "uint256",
              "name": "totalAsset",
              "type": "uint256"
            },
            {
              "internalType": "uint256",
              "name": "timestamp",
              "type": "uint256"
            }
          ],
          "internalType": "struct LeadingContract.DailyAssetShareItem[]",
          "name": "items",
          "type": "tuple[]"
        }
      ],
      "stateMutability": "view",
      "type": "function"
    },
    {
      "inputs": [],
      "name": "getAssetSharesHistoryDays",
      "outputs": [
        {
          "internalType": "uint256",
          "name": "",
          "type": "uint256"
        }
      ],
      "stateMutability": "view",
      "type": "function"
    },
    {
      "inputs": [],
      "name": "getFollowerCount",
      "outputs": [
        {
          "internalType": "uint256",
          "name": "",
          "type": "uint256"
        }
      ],
      "stateMutability": "view",
      "type": "function"
    },
    {
      "inputs": [],
      "name": "getFollowers",
      "outputs": [
        {
          "internalType": "address[]",
          "name": "followerAddresses",
          "type": "address[]"
        }
      ],
      "stateMutability": "view",
      "type": "function"
    },
    {
      "inputs": [],
      "name": "getFollowersInfo",
      "outputs": [
        {
          "components": [
            {
              "internalType": "address",
              "name": "userAddress",
              "type": "address"
            },
            {
              "internalType": "uint256",
              "name": "firstFollowTime",
              "type": "uint256"
            }
          ],
          "internalType": "struct LeadingContract.Follower[]",
          "name": "",
          "type": "tuple[]"
        }
      ],
      "stateMutability": "view",
      "type": "function"
    },
    {
      "inputs": [],
      "name": "getLatestClosedProfit",
      "outputs": [
        {
          "internalType": "int256",
          "name": "profit",
          "type": "int256"
        }
      ],
      "stateMutability": "view",
      "type": "function"
    },
    {
      "inputs": [
        {
          "internalType": "string[]",
          "name": "_symbols",
          "type": "string[]"
        },
        {
          "internalType": "uint256[]",
          "name": "_prices",
          "type": "uint256[]"
        }
      ],
      "name": "getTotalBalance",
      "outputs": [
        {
          "internalType": "uint256",
          "name": "assetAmount",
          "type": "uint256"
        },
        {
          "internalType": "bool",
          "name": "gainLoss",
          "type": "bool"
        },
        {
          "internalType": "uint256",
          "name": "profit",
          "type": "uint256"
        }
      ],
      "stateMutability": "view",
      "type": "function"
    },
    {
      "inputs": [
        {
          "internalType": "address",
          "name": "user",
          "type": "address"
        }
      ],
      "name": "getUserShare",
      "outputs": [
        {
          "internalType": "uint256",
          "name": "_totalShares",
          "type": "uint256"
        },
        {
          "internalType": "uint256",
          "name": "_freezeShare",
          "type": "uint256"
        }
      ],
      "stateMutability": "view",
      "type": "function"
    },
    {
      "inputs": [
        {
          "internalType": "address",
          "name": "user",
          "type": "address"
        }
      ],
      "name": "getWithdrawItems",
      "outputs": [
        {
          "components": [
            {
              "internalType": "address",
              "name": "user",
              "type": "address"
            },
            {
              "internalType": "uint256",
              "name": "withdrawID",
              "type": "uint256"
            },
            {
              "internalType": "uint256",
              "name": "withdrawShare",
              "type": "uint256"
            },
            {
              "internalType": "uint256",
              "name": "withdrawAmount",
              "type": "uint256"
            },
            {
              "internalType": "uint256",
              "name": "withdrawTime",
              "type": "uint256"
            },
            {
              "internalType": "uint8",
              "name": "status",
              "type": "uint8"
            }
          ],
          "internalType": "struct LeadingContract.UserWithdrawShareItem[]",
          "name": "",
          "type": "tuple[]"
        }
      ],
      "stateMutability": "view",
      "type": "function"
    },
    {
      "inputs": [
        {
          "internalType": "uint256[]",
          "name": "items",
          "type": "uint256[]"
        },
        {
          "internalType": "bool",
          "name": "cancel",
          "type": "bool"
        },
        {
          "internalType": "string[]",
          "name": "_symbols",
          "type": "string[]"
        },
        {
          "internalType": "bytes[]",
          "name": "_reportData",
          "type": "bytes[]"
        }
      ],
      "name": "handleWithdrawItems",
      "outputs": [],
      "stateMutability": "payable",
      "type": "function"
    },
    {
      "inputs": [
        {
          "internalType": "uint256[]",
          "name": "items",
          "type": "uint256[]"
        },
        {
          "internalType": "string[]",
          "name": "_symbols",
          "type": "string[]"
        },
        {
          "internalType": "bytes[]",
          "name": "_reportData",
          "type": "bytes[]"
        }
      ],
      "name": "handleWithdrawItems4Risk",
      "outputs": [],
      "stateMutability": "payable",
      "type": "function"
    },
    {
      "inputs": [
        {
          "internalType": "address",
          "name": "initialOwner",
          "type": "address"
        },
        {
          "internalType": "address",
          "name": "_trader",
          "type": "address"
        },
        {
          "internalType": "address payable",
          "name": "_factoryAddress",
          "type": "address"
        },
        {
          "internalType": "address",
          "name": "_perpetual",
          "type": "address"
        },
        {
          "internalType": "address",
          "name": "_tradeAgent",
          "type": "address"
        },
        {
          "internalType": "address",
          "name": "_orderBook",
          "type": "address"
        },
        {
          "internalType": "uint256",
          "name": "_rate",
          "type": "uint256"
        }
      ],
      "name": "initialize",
      "outputs": [],
      "stateMutability": "nonpayable",
      "type": "function"
    },
    {
      "inputs": [],
      "name": "lastBalanceSnapTime",
      "outputs": [
        {
          "internalType": "uint256",
          "name": "",
          "type": "uint256"
        }
      ],
      "stateMutability": "view",
      "type": "function"
    },
    {
      "inputs": [],
      "name": "lastDistributeProfit",
      "outputs": [
        {
          "internalType": "int256",
          "name": "",
          "type": "int256"
        }
      ],
      "stateMutability": "view",
      "type": "function"
    },
    {
      "inputs": [],
      "name": "lastDistributionTime",
      "outputs": [
        {
          "internalType": "uint256",
          "name": "",
          "type": "uint256"
        }
      ],
      "stateMutability": "view",
      "type": "function"
    },
    {
      "inputs": [],
      "name": "owner",
      "outputs": [
        {
          "internalType": "address",
          "name": "",
          "type": "address"
        }
      ],
      "stateMutability": "view",
      "type": "function"
    },
    {
      "inputs": [],
      "name": "perpetual",
      "outputs": [
        {
          "internalType": "contract IPerpetuals",
          "name": "",
          "type": "address"
        }
      ],
      "stateMutability": "view",
      "type": "function"
    },
    {
      "inputs": [
        {
          "internalType": "string[]",
          "name": "_symbols",
          "type": "string[]"
        },
        {
          "internalType": "bytes[]",
          "name": "_priceUpdates",
          "type": "bytes[]"
        }
      ],
      "name": "reckonLeadingContract",
      "outputs": [],
      "stateMutability": "payable",
      "type": "function"
    },
    {
      "inputs": [],
      "name": "renounceOwnership",
      "outputs": [],
      "stateMutability": "nonpayable",
      "type": "function"
    },
    {
      "inputs": [],
      "name": "round",
      "outputs": [
        {
          "internalType": "uint256",
          "name": "",
          "type": "uint256"
        }
      ],
      "stateMutability": "view",
      "type": "function"
    },
    {
      "inputs": [
        {
          "internalType": "string",
          "name": "_name",
          "type": "string"
        },
        {
          "internalType": "uint256",
          "name": "_leverage",
          "type": "uint256"
        }
      ],
      "name": "setUserLeverage",
      "outputs": [],
      "stateMutability": "nonpayable",
      "type": "function"
    },
    {
      "inputs": [],
      "name": "startTime",
      "outputs": [
        {
          "internalType": "uint256",
          "name": "",
          "type": "uint256"
        }
      ],
      "stateMutability": "view",
      "type": "function"
    },
    {
      "inputs": [],
      "name": "totalShare",
      "outputs": [
        {
          "internalType": "uint256",
          "name": "",
          "type": "uint256"
        }
      ],
      "stateMutability": "view",
      "type": "function"
    },
    {
      "inputs": [
        {
          "internalType": "string",
          "name": "_name",
          "type": "string"
        },
        {
          "internalType": "uint256",
          "name": "_amount",
          "type": "uint256"
        },
        {
          "internalType": "uint256",
          "name": "_price",
          "type": "uint256"
        },
        {
          "internalType": "uint256",
          "name": "_orderType",
          "type": "uint256"
        },
        {
          "internalType": "enum Direct",
          "name": "_type",
          "type": "uint8"
        },
        {
          "internalType": "uint256",
          "name": "_goodTill",
          "type": "uint256"
        },
        {
          "internalType": "uint256",
          "name": "_deadline",
          "type": "uint256"
        },
        {
          "internalType": "bytes",
          "name": "_priceUpdate",
          "type": "bytes"
        }
      ],
      "name": "trade",
      "outputs": [],
      "stateMutability": "payable",
      "type": "function"
    },
    {
      "inputs": [],
      "name": "trader",
      "outputs": [
        {
          "internalType": "address",
          "name": "",
          "type": "address"
        }
      ],
      "stateMutability": "view",
      "type": "function"
    },
    {
      "inputs": [
        {
          "internalType": "string[]",
          "name": "_symbols",
          "type": "string[]"
        },
        {
          "internalType": "bytes[]",
          "name": "_priceUpdates",
          "type": "bytes[]"
        }
      ],
      "name": "traderDeleteContract",
      "outputs": [],
      "stateMutability": "payable",
      "type": "function"
    },
    {
      "inputs": [
        {
          "internalType": "address",
          "name": "newOwner",
          "type": "address"
        }
      ],
      "name": "transferOwnership",
      "outputs": [],
      "stateMutability": "nonpayable",
      "type": "function"
    },
    {
      "inputs": [
        {
          "internalType": "address",
          "name": "",
          "type": "address"
        }
      ],
      "name": "userShares",
      "outputs": [
        {
          "internalType": "uint256",
          "name": "",
          "type": "uint256"
        }
      ],
      "stateMutability": "view",
      "type": "function"
    },
    {
      "inputs": [
        {
          "internalType": "uint256",
          "name": "",
          "type": "uint256"
        }
      ],
      "name": "userWithdrawItems",
      "outputs": [
        {
          "internalType": "address",
          "name": "user",
          "type": "address"
        },
        {
          "internalType": "uint256",
          "name": "withdrawID",
          "type": "uint256"
        },
        {
          "internalType": "uint256",
          "name": "withdrawShare",
          "type": "uint256"
        },
        {
          "internalType": "uint256",
          "name": "withdrawAmount",
          "type": "uint256"
        },
        {
          "internalType": "uint256",
          "name": "withdrawTime",
          "type": "uint256"
        },
        {
          "internalType": "uint8",
          "name": "status",
          "type": "uint8"
        }
      ],
      "stateMutability": "view",
      "type": "function"
    },
    {
      "inputs": [
        {
          "internalType": "uint256",
          "name": "_share",
          "type": "uint256"
        }
      ],
      "name": "withdraw",
      "outputs": [],
      "stateMutability": "nonpayable",
      "type": "function"
    },
    {
      "stateMutability": "payable",
      "type": "receive"
    }
  ],
  "bytecode": "0x60808060405234601557615245908161001b8239f35b600080fdfe6080806040526004361015610011575b005b600090813560e01c908163026c42071461230857508063030fc7dd146122ed5780630d79f5611461226e5780631460e39014611e83578063146ca53114611e65578063170794a814611c985780631758078b14611c715780631816129f14611c5357806319e67d7514611c2d578063227ddb4e146115cf5780632d9cd09a146115a65780632e1a7d4d146113db5780632f1cc4d0146113225780633f70498b146112ae578063490ae1cd1461114257806356c3748c146110c65780635ea1d6f8146110a857806366776f621461101a57806368306b7614610ffc578063715018a614610f6357806375b1735014610f455780637829ae4a14610f275780637832435e14610da057806378e9792514610d82578063796f471a14610c1b57806385fa292f14610bf457806387ec936d14610bcb5780638da5cb5b14610b8557806390536e4314610ad95780639823aa8e14610abb578063a34d87c514610a9d578063a70c7ed4146109ad578063aa66ea671461093f578063ae69367314610921578063b2b7d9ac14610903578063b2f4bdb0146108e5578063b55fb574146107e5578063bbbaee4c14610739578063c3633aa914610716578063c365e4211461068c578063cce13b8e1461066e578063d14ec0dc14610650578063d1ab4aaa146104bb578063d4baf4881461049d578063de69b3aa14610465578063dfce0f8314610413578063e597868614610293578063f2fde38b146102695763fde895980361000f573461026657806003193601126102665761025b6001600160a01b0360035416331461284b565b610263613cd2565b80f35b80fd5b503461026657602060031936011261026657610263610286612367565b61028e6146cf565b61312c565b50610100600319360112610266578060043567ffffffffffffffff8111610410576102c290369060040161245f565b608435600381101561040e5760e43567ffffffffffffffff811161040c576102ee90369060040161245f565b916102f76132cc565b61030d6001600160a01b0360145416331461297e565b6001600160a01b03845416803b156104085761036b61038e926103af8795604051978896879586957fe59786860000000000000000000000000000000000000000000000000000000087526101006004880152610104870190612a12565b926024356024870152604435604487015260643560648701526084860190613109565b60a43560a485015260c43560c48501526003198483030160e4850152612a12565b039134905af180156103fd576103e8575b5060017f9b779b17422d0df92223018b32b4d1fa46e071723d6817e2486d003becc55f005580f35b816103f291612408565b6102665780386103c0565b6040513d84823e3d90fd5b8480fd5b505b505b50fd5b5034610266576020600319360112610266576004358152601f602090815260409182902080546001820154600283015460039093015485519283529382015292830152606082015280608081015b0390f35b50346102665760206003193601126102665760406020916001600160a01b0361048c612367565b168152601683522054604051908152f35b50346102665780600319360112610266576020601154604051908152f35b50610100600319360112610266578060043567ffffffffffffffff8111610410576104ea90369060040161245f565b60843590600382101561040e5760e4359167ffffffffffffffff831161040c573660238401121561040c5782600401359267ffffffffffffffff84116104085736602485830101116104085761053e6132cc565b6001600160a01b03601454169361055685331461297e565b6001600160a01b0386541691823b1561064c5786946105df94601f19601f856105be9660246020976040519d8e9c8d9b8c9a7fc8f5ede2000000000000000000000000000000000000000000000000000000008c5261012060048d01526101248c0190612a12565b988435858c015260443560448c015260643560648c015260848b0190613109565b60a489015260a43560c489015260c43560e48901526003198888030161010489015282875201878601378986828601015201160103019134905af180156103fd576103e8575060017f9b779b17422d0df92223018b32b4d1fa46e071723d6817e2486d003becc55f005580f35b8680fd5b50346102665780600319360112610266576020600654604051908152f35b50346102665780600319360112610266576020601054604051908152f35b503461026657806003193601126102665760405180916020601b54928381520191601b82527f3ad8aa4f87544323a9d1e5dd902f40c356527a7955687113db5f9a85ad579dc1915b8181106106f757610461856106eb81870382612408565b60405191829182612324565b82546001600160a01b03168452602090930192600192830192016106d4565b503461026657806003193601126102665760206107316130ef565b604051908152f35b5034610266576020600319360112610266576001600160a01b0361075b612367565b163081036107be575061076c614c31565b90600f54905b809281935b81518510156107ae576107a6600191610790878561271e565b518552601d60205260026040862001549061280b565b940193610777565b8360409182519182526020820152f35b8082526016602052604082205490825260176020526107df60408320614c7c565b91610772565b50346102665760206003193601126102665760043567ffffffffffffffff81116108dd57610817903690600401612620565b61082d6001600160a01b0360145416331461297e565b8147916001600160a01b03825416803b156108e15761088783929183926040519485809481937fb55fb574000000000000000000000000000000000000000000000000000000008352602060048401526024830190612a9d565b03925af180156103fd576108c8575b50506108a29047612766565b81816108ab5780f35b8080806108c394335af16108bd612790565b506127c0565b388180f35b816108d291612408565b6108dd578138610896565b5080fd5b8280fd5b50346102665780600319360112610266576020600b54604051908152f35b50346102665780600319360112610266576020600d54604051908152f35b50346102665780600319360112610266576020600c54604051908152f35b503461026657602060031936011261026657604060c0916004358152601d602052206001600160a01b0381541690600181015490600281015460038201549060ff600560048501549401541693604051958652602086015260408501526060840152608083015260a0820152f35b5034610266578060031936011261026657601c546109ca8161242b565b6109d76040519182612408565b818152601c83526020810191837f0e4562a10381dec21b205ed72637e6b1b523bdd0e4d4d50af5cd23dd4500a211845b838310610a6757868587604051928392602084019060208552518091526040840192915b818110610a39575050500390f35b825180516001600160a01b031685526020908101518186015286955060409094019390920191600101610a2b565b60026020600192604051610a7a816123b4565b6001600160a01b0386541681528486015483820152815201920192019190610a07565b50346102665780600319360112610266576020601354604051908152f35b50346102665780600319360112610266576020600754604051908152f35b5060606003193601126102665760043567ffffffffffffffff81116108dd57610b06903690600401612620565b60243567ffffffffffffffff81116108e157610b269036906004016124a4565b6044359167ffffffffffffffff8311610b8157610b4a610b5a933690600401612523565b929091610b556132cc565b612faf565b60017f9b779b17422d0df92223018b32b4d1fa46e071723d6817e2486d003becc55f005580f35b8380fd5b503461026657806003193601126102665760206001600160a01b037f9016d09d72d40fdae2fd8ceac6b6234c7706214fd39c1cd1e609a0528c1993005416604051908152f35b50610b5a610bec610bdb366125c0565b610be69291926132cc565b82613345565b919050614730565b503461026657806003193601126102665760206001600160a01b0360155416604051908152f35b50346102665760206003193601126102665760043567ffffffffffffffff81116108dd57610c4d903690600401612620565b8051610c588161242b565b91610c666040519384612408565b818352601f19610c758361242b565b01845b818110610d53575050835b828110610cf1578385604051918291602083016020845282518091526020604085019301915b818110610cb7575050500390f35b9193509160206080600192606087518051835284810151858401526040810151604084015201516060820152019401910191849392610ca9565b80610cfe6001928461271e565b518652601f60205260408620600360405191610d19836123d0565b805483528481015460208401526002810154604084015201546060820152610d41828761271e565b52610d4c818661271e565b5001610c83565b602090604051610d62816123d0565b878152878382015287604082015287606082015282828801015201610c78565b50346102665780600319360112610266576020600a54604051908152f35b5060406003193601126102665760043567ffffffffffffffff81116108dd57610dcd9036906004016124a4565b60243567ffffffffffffffff81116108e157610ded903690600401612523565b9190610dfb600d5442612766565b60065411610ee357610be6610e1591610e1c943691612554565b5090612ad1565b50506003610e35610e2f60065442612746565b42612766565b9182600d55610e426126c8565b92600f54937f875d3f1c33f1e33a437fa5b25f89fbbc380939ba028855b4d2a892b3cc2369f960405195610e75876123d0565b8287526020870192818452610eb6604089019587875260608a0197818952604051948594859094939260609260808301968352602083015260408201520152565b0390a1610ec16130ef565b8652601f60205260408620945185555160018501555160028401555191015580f35b606460405162461bcd60e51b815260206004820152601760248201527f746f6f2073686f72742074696d6520696e74657276616c0000000000000000006044820152fd5b50346102665780600319360112610266576020601c54604051908152f35b50346102665780600319360112610266576020600e54604051908152f35b5034610266578060031936011261026657610f7c6146cf565b806001600160a01b037f9016d09d72d40fdae2fd8ceac6b6234c7706214fd39c1cd1e609a0528c199300546001600160a01b031981167f9016d09d72d40fdae2fd8ceac6b6234c7706214fd39c1cd1e609a0528c19930055167f8be0079c531659141344cd1fd0a4f28419497f9722a3daafe3b4186f6b6457e08280a380f35b50346102665780600319360112610266576020601254604051908152f35b5060806003193601126102665760043567ffffffffffffffff81116108dd57611047903690600401612620565b60243580151581036108e15760443567ffffffffffffffff8111610b81576110739036906004016124a4565b916064359267ffffffffffffffff841161040857611098610b5a943690600401612523565b9390926110a36132cc565b612c99565b50346102665780600319360112610266576020600554604051908152f35b5034610266576020600319360112610266576040906004358152601f60205220604051906110f3826123d0565b6104616060825492838552600181015494856020820152600360028301549283604084015201549283910152604051948594859094939260609260808301968352602083015260408201520152565b5061114c366125c0565b906111636001600160a01b0360145416331461297e565b61116b6131eb565b604081015161126a5760600151611226576111896111919282613345565b919050613ee9565b806001600160a01b03600354166001600160a01b03601454166001600160a01b0360155416823b1561040c576040517f7f7c14910000000000000000000000000000000000000000000000000000000081526001600160a01b039283166004820152911660248201529082908290604490829084905af180156103fd576112155750f35b8161121f91612408565b6102665780f35b606460405162461bcd60e51b815260206004820152601160248201527f4578697374206c696d6974206f726465720000000000000000000000000000006044820152fd5b606460405162461bcd60e51b815260206004820152600e60248201527f457869737420706f736974696f6e0000000000000000000000000000000000006044820152fd5b50346102665760406003193601126102665760043567ffffffffffffffff81116108dd576112e09036906004016124a4565b906024359067ffffffffffffffff821161026657606061130d846113073660048701612620565b90612ad1565b90604051928352151560208301526040820152f35b5034610266576040600319360112610266578060043567ffffffffffffffff81116104105761135590369060040161245f565b61136b6001600160a01b0360145416331461297e565b6001600160a01b03825416803b1561040e576113c283929183926040519485809481937f2f1cc4d0000000000000000000000000000000000000000000000000000000008352604060048401526044830190612a12565b602435602483015203925af180156103fd576112155750f35b5034610266576020600319360112610266576004356113f86132cc565b60045490600182018092116115925781600455338352601760205261141f60408420614c7c565b8391825b825184101561145a5761145260019161143c868661271e565b518852601d60205260026040892001549061280b565b930192611423565b908481611474889433865260166020526040862054612766565b1061154e5761148e90338452601760205260408420614fdb565b5061149a600454614f64565b5060ff600560045492604051906114b082612382565b3382526020820190858252604083019081526060830190878252608084019242845260a0850197600189528952601d6020526001600160a01b038060408b20965116166001600160a01b03198654161785555160018501555160028401555160038301555160048201550191511660ff1982541617905560017f9b779b17422d0df92223018b32b4d1fa46e071723d6817e2486d003becc55f005580f35b606460405162461bcd60e51b815260206004820152601d60248201527f496e73756666696369656e7420617661696c61626c65207368617265730000006044820152fd5b602483634e487b7160e01b81526011600452fd5b506102636115b3366125c0565b906115ca6001600160a01b0360035416331461284b565b6128bc565b5060606003193601126102665760043560243567ffffffffffffffff81116108e1576115ff9036906004016124a4565b60443567ffffffffffffffff8111610b815761161f903690600401612523565b90916116296132cc565b600f54611c00575050508034611be8575b42600a555b33835260166020526040832061165682825461280b565b905561166481600f5461280b565b600f55338352601860205260ff60408420541615611a01575b6001600160a01b03601554169183806001600160a01b038154169460409582856117337fffffffff00000000000000000000000000000000000000000000000000000000601860208c6116d281519182612408565b8281527f617070726f766528616464726573732c75696e743235362900000000000000009101908152208b519116602082019081526001600160a01b039095166024820152604481019290925281606481015b03601f198101835282612408565b51925af161173f612790565b816119ca575b5015610b8157836001600160a01b03601554166117628382614cc7565b90811515806119c1575b806119b8575b6118b2575b50506001600160a01b03815416803b156108dd5781809160248751809481937fb6b55f250000000000000000000000000000000000000000000000000000000083528860048401525af180156118a857611893575b50506117da8160115461267d565b6011556004546001810180911161187f57917f613128987cba7a2073cf49ff02fbbe4e3728a0cf7ed9f8942569818fd0cfd66e939183610120946004556001600160a01b03601554168451946001865230602087015233908601526060850152608084015260a083015260c08201524260e08201526002610100820152a160017f9b779b17422d0df92223018b32b4d1fa46e071723d6817e2486d003becc55f005580f35b602485634e487b7160e01b81526011600452fd5b8161189d91612408565b610b815783386117cc565b85513d84823e3d90fd5b8291827fffffffff00000000000000000000000000000000000000000000000000000000602589516118e5606082612408565b8181527f74323536290000000000000000000000000000000000000000000000000000008b60208301927f7472616e7366657246726f6d28616464726573732c616464726573732c75696e8452015220169188519060208201938452336024830152306044830152606482015260648152611961608482612408565b51925af161196d612790565b81611981575b5015610b8157833880611777565b8051801592508215611996575b505038611973565b81925090602091810103126104085760206119b19101612a37565b388061198e565b50301515611772565b5033151561176c565b80518015925082156119df575b505038611745565b81925090602091810103126104085760206119fa9101612a37565b38806119d7565b338352601860205260408320600160ff19825416179055601b5468010000000000000000811015611bd457806001611a3c9201601b55612818565b81549060031b906001600160a01b0333831b921b1916179055338352601e602052604083205415611aeb575b6001600160a01b0360035416803b15610b81576040517fae5e55e60000000000000000000000000000000000000000000000000000000081523360048201523060248201529084908290604490829084905af18015611ae057611acc575b5061167d565b83611ad991949294612408565b9138611ac6565b6040513d86823e3d90fd5b604051611af7816123b4565b33815260208101428152601c5468010000000000000000811015611bc057806001611b259201601c556126e9565b929092611bad57906001600160a01b03806001935116166001600160a01b031984541617835551910155601c54338452601e60205260408420557f25721861c38b8c48f6705fecaea93b5de674735f1628fa9898ed0a89184aa25c60405180611ba5423383602090939291936001600160a01b0360408201951681520152565b0390a1611a68565b602486634e487b7160e01b815280600452fd5b602486634e487b7160e01b81526041600452fd5b602484634e487b7160e01b81526041600452fd5b611bfb8380808034335af16108bd612790565b61163a565b610e15610be6611c2894611c15943691612554565b5050611c23600f5484612773565b612786565b61163f565b50346102665780600319360112610266576001600160a01b036020915416604051908152f35b50346102665780600319360112610266576020600854604051908152f35b503461026657806003193601126102665760206001600160a01b0360145416604051908152f35b5034610266576020600319360112610266576001600160a01b03611cba612367565b16308103611e4d5750611ccb614c31565b8051601f19611cf2611cdc8361242b565b92611cea6040519485612408565b80845261242b565b01835b818110611e12575050825b8251811015611d8b5780611d166001928561271e565b518552601d6020526040852060ff600560405192611d3384612382565b6001600160a01b03815416845285810154602085015260028101546040850152600381015460608501526004810154608085015201541660a0820152611d79828561271e565b52611d84818461271e565b5001611d00565b8184604051918291602083016020845282518091526020604085019301915b818110611db8575050500390f35b91935091602060c060019260ff60a088516001600160a01b038151168452858101518685015260408101516040850152606081015160608501526080810151608085015201511660a0820152019401910191849392611daa565b602090604051611e2181612382565b86815286838201528660408201528660608201528660808201528660a082015282828601015201611cf5565b81526017602052611e6060408220614c7c565b611ccb565b50346102665780600319360112610266576020600954604051908152f35b50346102665760e060031936011261026657611e9d612367565b6024356001600160a01b0381168091036108e157604435906001600160a01b038216809203610b81576064356001600160a01b03811680910361040857608435906001600160a01b03821680920361226a5760a435906001600160a01b03821680920361064c577ff0c57e16840df040f15088dc2f81fe391c3923bec73e23a9662efc9c229c6a00549560ff8760401c16159667ffffffffffffffff811680159081612262575b6001149081612258575b15908161224f575b506122275791612009602092848a60017fffffffffffffffffffffffffffffffffffffffffffffffff000000000000000060049816177ff0c57e16840df040f15088dc2f81fe391c3923bec73e23a9662efc9c229c6a00556121d2575b50611fbc614bd8565b611fc4614bd8565b611fcd3361312c565b611fd5614bd8565b611fdd614bd8565b60017f9b779b17422d0df92223018b32b4d1fa46e071723d6817e2486d003becc55f005561028e6146cf565b806001600160a01b03198a5416178955604051928380927f2ca430510000000000000000000000000000000000000000000000000000000082525afa80156121c7578790612187575b6001600160a01b039150166001600160a01b031960155416176015556001600160a01b031960015416176001556001600160a01b031960025416176002556001600160a01b0319601454161760145560c4356005556001600160a01b03196003541617600355620151806008556201518060065562093a80600755600160095542600b5542600e556120e962015180420642612766565b600d556120f35780f35b7fffffffffffffffffffffffffffffffffffffffffffffff00ffffffffffffffff7ff0c57e16840df040f15088dc2f81fe391c3923bec73e23a9662efc9c229c6a0054167ff0c57e16840df040f15088dc2f81fe391c3923bec73e23a9662efc9c229c6a00557fc7f505b2f371ae2175ee4913f4499e1f2633a7b5936321eed1cdaeb6115181d2602060405160018152a180f35b506020813d6020116121bf575b816121a160209383612408565b8101031261064c576121ba6001600160a01b0391612732565b612052565b3d9150612194565b6040513d89823e3d90fd5b7fffffffffffffffffffffffffffffffffffffffffffffff0000000000000000001668010000000000000001177ff0c57e16840df040f15088dc2f81fe391c3923bec73e23a9662efc9c229c6a005538611fb3565b6004897ff92ee8a9000000000000000000000000000000000000000000000000000000008152fd5b90501538611f56565b303b159150611f4e565b899150611f44565b8580fd5b5034610266578060031936011261026657601c5461228b8161242b565b916122996040519384612408565b818352601f196122a88361242b565b013660208501375b8181106122c557604051806104618582612324565b806001600160a01b036122d96001936126e9565b5054166122e6828661271e565b52016122b0565b503461026657806003193601126102665760206107316126c8565b9050346108dd57816003193601126108dd57602090600f548152f35b602060408183019282815284518094520192019060005b8181106123485750505090565b82516001600160a01b031684526020938401939092019160010161233b565b600435906001600160a01b038216820361237d57565b600080fd5b60c0810190811067ffffffffffffffff82111761239e57604052565b634e487b7160e01b600052604160045260246000fd5b6040810190811067ffffffffffffffff82111761239e57604052565b6080810190811067ffffffffffffffff82111761239e57604052565b60a0810190811067ffffffffffffffff82111761239e57604052565b90601f601f19910116810190811067ffffffffffffffff82111761239e57604052565b67ffffffffffffffff811161239e5760051b60200190565b67ffffffffffffffff811161239e57601f01601f191660200190565b81601f8201121561237d5760208135910161247982612443565b926124876040519485612408565b8284528282011161237d5781600092602092838601378301015290565b9080601f8301121561237d5781356124bb8161242b565b926124c96040519485612408565b81845260208085019260051b8201019183831161237d5760208201905b8382106124f557505050505090565b813567ffffffffffffffff811161237d576020916125188784809488010161245f565b8152019101906124e6565b9181601f8401121561237d5782359167ffffffffffffffff831161237d576020808501948460051b01011161237d57565b9291906125608161242b565b9361256e6040519586612408565b602085838152019160051b81019183831161237d5781905b838210612594575050505050565b813567ffffffffffffffff811161237d576020916125b5878493870161245f565b815201910190612586565b90604060031983011261237d5760043567ffffffffffffffff811161237d57826125ec916004016124a4565b916024359067ffffffffffffffff821161237d578060238301121561237d5781602461261d93600401359101612554565b90565b9080601f8301121561237d5781356126378161242b565b926126456040519485612408565b81845260208085019260051b82010192831161237d57602001905b82821061266d5750505090565b8135815260209182019101612660565b9190916000838201938412911290801582169115161761269957565b634e487b7160e01b600052601160045260246000fd5b8181039291600013801582851316918412161761269957565b61261d6126e06126d66131eb565b516012549061267d565b601154906126af565b601c5481101561270857601c60005260206000209060011b0190600090565b634e487b7160e01b600052603260045260246000fd5b80518210156127085760209160051b010190565b51906001600160a01b038216820361237d57565b8115612750570690565b634e487b7160e01b600052601260045260246000fd5b9190820391821161269957565b8181029291811591840414171561269957565b8115612750570490565b3d156127bb573d906127a182612443565b916127af6040519384612408565b82523d6000602084013e565b606090565b156127c757565b606460405162461bcd60e51b815260206004820152600f60248201527f7472616e73666572206661696c656400000000000000000000000000000000006044820152fd5b9190820180921161269957565b601b5481101561270857601b60005260206000200190600090565b80548210156127085760005260206000200190600090565b1561285257565b608460405162461bcd60e51b815260206004820152602660248201527f4f6e6c7920666163746f72792063616e2065786563757465207468697320667560448201527f6e6374696f6e00000000000000000000000000000000000000000000000000006064820152fd5b906128c79082613345565b9091600f548015612978576128dc8483612ad1565b5050670de0b6b3a7640000810290808204670de0b6b3a7640000149015171561269957670429d069189e00009161291291612786565b1015612934576129256129329382613646565b61292d613cd2565b613ee9565b565b606460405162461bcd60e51b815260206004820152601a60248201527f6e65742076616c7565206973206d6f7265207468656e20302e330000000000006044820152fd5b50505050565b1561298557565b608460405162461bcd60e51b815260206004820152602560248201527f4f6e6c79207472616465722063616e206578656375746520746869732066756e60448201527f6374696f6e0000000000000000000000000000000000000000000000000000006064820152fd5b60005b838110612a025750506000910152565b81810151838201526020016129f2565b90601f19601f602093612a30815180928187528780880191016129ef565b0116010190565b5190811515820361237d57565b9080602083519182815201916020808360051b8301019401926000915b838310612a7057505050505090565b9091929394602080612a8e83601f1986600196030187528951612a12565b97019301930191939290612a61565b906020808351928381520192019060005b818110612abb5750505090565b8251845260209384019390920191600101612aae565b90918151835103612c2f57612b6a92612ae86131eb565b5192612af2614141565b80151580612c26575b612c10575b5090604091612b586001600160a01b0360025416918451978894859384937f9aa59c65000000000000000000000000000000000000000000000000000000008552306004860152606060248601526064850190612a44565b90600319848303016044850152612a9d565b03915afa918215612c04576000938493612bc1575b50828415612b97575082612b929161280b565b929190565b9250909250818111612bb0575050600090600090600090565b81612bba91612766565b9160009190565b939092506040843d604011612bfc575b81612bde60409383612408565b8101031261026657506020612bf284612a37565b9301519138612b7f565b3d9150612bd1565b6040513d6000823e3d90fd5b612c1e906040939295612766565b939091612b00565b50808511612afb565b608460405162461bcd60e51b815260206004820152602160248201527f7072696365204172726179206c656e677468732061726520646966666572656e60448201527f74000000000000000000000000000000000000000000000000000000000000006064820152fd5b9390929192612e0b57612ccb612cd99592612cd192612cc46001600160a01b0360145416331461297e565b3691612554565b83613345565b949083612ad1565b6020612ce69392936131eb565b01519215612de8575b50670de0b6b3a7640000810290808204670de0b6b3a7640000149015171561269957600f54612d1d91612786565b9160005b8551811015612dd857612d34818761271e565b519283600052601d602052670de0b6b3a7640000612da5866040600020604051612d5d81612382565b6001600160a01b0382541681526001820154602082015260a060ff60056002850154948560408601526003810154606086015260048101546080860152015416910152612773565b0490818110612dcd57888787612dc160019695612dc795612766565b9761417e565b01612d21565b505050945050505050565b5094929150506129329250614612565b9091818110612e025790612dfb91612766565b9038612cef565b50505092505050565b50505060005b8151811015612f9257612e24818361271e565b519081600052601d602052604060002091604051612e4181612382565b6001600160a01b038454168152600184015460208201526002840154906040810191825260ff6005600387015496606084019788526004810154608085015201541660a082015282600052601d6020526005604060002001600360ff198254161790556001600160a01b033391511603612f4e576001937f613128987cba7a2073cf49ff02fbbe4e3728a0cf7ed9f8942569818fd0cfd66e9261012092336000526017602052612ef582604060002061510a565b50612eff8261503a565b506001600160a01b0360155416925190519160405193600085523060208601523360408601526060850152608084015260a083015260c08201524260e08201526003610100820152a101612e11565b606460405162461bcd60e51b815260206004820152601060248201527f77726f6e672077697468647261776572000000000000000000000000000000006044820152fd5b505034612f9b57565b612932600080808034335af16108bd612790565b9392612fc19192610be6913691612554565b60085491936000939091845b875186101561304857612fe0868961271e565b51600052601d60205242612ffc8660046040600020015461280b565b1161303257613029600191613011888b61271e565b51600052601d6020526002604060002001549061280b565b955b0194612fcd565b948060006130426001938b61271e565b5261302b565b9194509250939093156130e85761306790613061613cd2565b83613646565b61306f6131eb565b51670de0b6b3a7640000810290808204670de0b6b3a7640000149015171561269957600f5461309d91612786565b9160005b85518110156130d957806130b76001928861271e565b5184848783156130d0576130ca9361417e565b016130a1565b505050506130ca565b50909150612932929350614612565b5050509050565b62015180613105610e2f600b5483810690612766565b0490565b9060038210156131165752565b634e487b7160e01b600052602160045260246000fd5b6001600160a01b031680156131bc576001600160a01b037f9016d09d72d40fdae2fd8ceac6b6234c7706214fd39c1cd1e609a0528c19930054826001600160a01b03198216177f9016d09d72d40fdae2fd8ceac6b6234c7706214fd39c1cd1e609a0528c19930055167f8be0079c531659141344cd1fd0a4f28419497f9722a3daafe3b4186f6b6457e0600080a3565b7f1e4fbdf700000000000000000000000000000000000000000000000000000000600052600060045260246000fd5b600060806040516131fb816123ec565b8281528260208201528260408201528260608201520152602460a06001600160a01b0360005416604051928380927ffb47e0160000000000000000000000000000000000000000000000000000000082523060048301525afa908115612c0457600091613266575090565b905060a0813d60a0116132c4575b8161328160a09383612408565b8101031261237d57608060405191613298836123ec565b805183526020810151602084015260408101516040840152606081015160608401520151608082015290565b3d9150613274565b60027f9b779b17422d0df92223018b32b4d1fa46e071723d6817e2486d003becc55f00541461331b5760027f9b779b17422d0df92223018b32b4d1fa46e071723d6817e2486d003becc55f0055565b7f3ee5aeb50000000000000000000000000000000000000000000000000000000060005260046000fd5b80518251036135c1579061335a825134612786565b90613366835134612746565b90805190601f1961338f6133798461242b565b936133876040519586612408565b80855261242b565b013660208401378193815196601f196133c06133aa8a61242b565b996133b86040519b8c612408565b808b5261242b565b0160005b8181106135ae57505087966000966020975b8251808210156135a15760001981019081116126995788908214613590575b5061344d896001600160a01b0360035416613410848761271e565b519060405180809581947f299ae7530000000000000000000000000000000000000000000000000000000083528660048401526024830190612a12565b03915afa8015612c04578a9160009161354c575b50906134b9839261347a6001600160a01b03958b61271e565b51896040519687809581947fb3d316c1000000000000000000000000000000000000000000000000000000008352604060048401526044830190612a12565b600060248301520393165af1918215612c04578c92898c92600092613515575b50600194613503926134ec86809461271e565b526134fa6040519485612408565b6000845261271e565b5261350e818d61271e565b50016133d6565b939450509082813d8311613545575b61352e8183612408565b810103126102665750518b91908a908960016134d9565b503d613524565b9182813d8311613589575b6135618183612408565b81010312610266575090896134b96135806001600160a01b0394612732565b91929350613461565b503d613557565b61359a919561280b565b93876133f5565b5050985050945050505050565b60606020828c01810191909152016133c4565b606460405162461bcd60e51b815260206004820152602060248201527f496e636f6e73697374656e74207072696365206172726179206c656e677468736044820152fd5b6040519061361282612382565b600060a083606081528260208201528260408201528260608201528260808201520152565b60001981146126995760010190565b9190916004600093846001600160a01b03815416604051938480927fcd2ce4ae0000000000000000000000000000000000000000000000000000000082525afa918215613cc7578592613bca575b508151908160011b917f7fffffffffffffffffffffffffffffffffffffffffffffffffffffffffffffff811603613bb657601f196136d46133798461242b565b01865b818110613b9f575050856001600160a01b0360015416936001600160a01b0360025416915b8151811015613a445760005b6002811061371957506001016136fc565b9693613772946080613730848695969a999a61271e565b51604051809881927f0c8c3516000000000000000000000000000000000000000000000000000000008352306004840152606060248401526064830190612a12565b8c604483015203818a5afa958615612c04576000966139e4575b50613795613605565b968651156139d35760009a8b5b83518110156139b8576137b5818561271e565b516040516137e4602082816137d381830196878151938492016129ef565b81010301601f198101835282612408565b5190206137f1888861271e565b5160405161380f602082816137d381830196878151938492016129ef565b5190201461381f576001016137a2565b8498919c509a6040613890829f959d6138409060ff969e9d989a999a61271e565b51925b61384d898b61271e565b5190835196879384937f721db562000000000000000000000000000000000000000000000000000000008552306004860152608060248601526084850190612a12565b9186604485015216606483015203818b5afa918215612c0457600093849361397a575b506138d26020670de0b6b3a7640000928460608a015201928351612773565b0460808601526138e2868861271e565b518552602085018e9052516040850152811561392a575090826139229260a060019501525b613911828a61271e565b5261391c818961271e565b50613637565b995b01613708565b80915061393f575b5061392290600192613907565b907f800000000000000000000000000000000000000000000000000000000000000082146126995760009190910360a0830152613922613932565b939092506040843d82116139b0575b8161399660409383612408565b8101031261026657508251602090930151916138d26138b3565b3d9150613989565b509a9660ff919998939760406138908d9f959d989798613843565b979650976001919550929192613924565b90956080823d8211613a3c575b816139fe60809383612408565b810103126102665750606060405191613a16836123d0565b80518352602081015160208401526040810151604084015201516060820152943861378c565b3d91506139f1565b50505050915050613a56919250614d70565b90602060005b8351811015613b99576040613a71828661271e565b51015115613b91576001600160a01b036000541690613a90818661271e565b51516040613a9e838861271e565b5101519284613aad848961271e565b510151906001820180921161269957600382101561311657604051613ad28782612408565b60008152813b1561237d5760008094613b65613b4898613b2c946040519a8b98899788967fe59786860000000000000000000000000000000000000000000000000000000088526101006004890152610104880190612a12565b9360248701528660448701528660648701526084860190613109565b4260a48501524260c48501526003198483030160e4850152612a12565b03925af1918215612c0457600192613b80575b505b01613a5c565b6000613b8b91612408565b38613b78565b600190613b7a565b50509050565b602090613baa613605565b828287010152016136d7565b602486634e487b7160e01b81526011600452fd5b9091503d8086833e613bdc8183612408565b81019060208183031261226a5780519067ffffffffffffffff821161064c570181601f8201121561226a57805190613c138261242b565b92613c216040519485612408565b82845260208085019360051b83010191818311613cc35760208101935b838510613c515750505050509038613694565b845167ffffffffffffffff8111613cbf5782019083603f83011215613cbf57602082015190613c7f82612443565b613c8c6040519182612408565b8281526040848401018610613cbb57613cb0602094938594604086850191016129ef565b815201940193613c3e565b8c80fd5b8a80fd5b8880fd5b6040513d87823e3d90fd5b47600154906001600160a01b03600080936024604051809481937f6f4907cb000000000000000000000000000000000000000000000000000000008352306004840152165afa908115613dd5578391613de0575b506001600160a01b0383541690813b15610b8157613d7e849283926040519485809481937fb55fb574000000000000000000000000000000000000000000000000000000008352602060048401526024830190612a9d565b03925af18015613dd557613dbf575b50613d989047612766565b9081613da2575050565b808080612932946001600160a01b03601454165af16108bd612790565b91613dce81613d989394612408565b9190613d8d565b6040513d85823e3d90fd5b90503d8084833e613df18183612408565b810190602081830312610b815780519067ffffffffffffffff821161040857019080601f83011215610b81578151613e288161242b565b92613e366040519485612408565b81845260208085019260051b82010192831161226a57602001905b828210613e615750505038613d26565b8151815260209182019101613e51565b91613e89918352606060208401526060830190612a44565b906040818303910152815180825260208201916020808360051b8301019401926000915b838310613ebc57505050505090565b9091929394602080613eda83601f1986600196030187528951612a12565b97019301930191939290613ead565b90613ef26131eb565b5160009381613eff614141565b9081811161412e575b505081926001600160a01b03865416803b1561064c578660405180926352065a6560e11b8252818381613f40888d8c60048501613e71565b03925af180156121c75761411a575b50613f5c8360125461267d565b601255855b601b54811015614097576001600160a01b03613f7c82612818565b90549060031b1c168088526016602052604088205480613fa1575b5050600101613f61565b9095613fb9613fb08784612773565b600f5490612786565b908181111561408e5781613fcc91612766565b965b613fe482826001600160a01b0360155416614e4e565b600454926001840180941161407a57600484905560155460408051600081523060208201526001600160a01b039485169181019190915292166060830152608082019390935260a081019190915260c08101919091524260e08201526002610100820152600191907f613128987cba7a2073cf49ff02fbbe4e3728a0cf7ed9f8942569818fd0cfd66e9061012090a19038613f97565b60248b634e487b7160e01b81526011600452fd5b90508896613fce565b50915093926140aa925083600f55614612565b601b5481601b55806140ba575050565b601b82527f3ad8aa4f87544323a9d1e5dd902f40c356527a7955687113db5f9a85ad579dc101907f3ad8aa4f87544323a9d1e5dd902f40c356527a7955687113db5f9a85ad579dc15b82811061410f57505050565b818155600101614103565b8661412791979297612408565b9438613f4f565b614139929350612766565b903880613f08565b601054906141596141506126c8565b601354906126af565b600081136141645750565b91606461417861261d939460055490612773565b0461280b565b91939293600094838652601d602052604086209186670de0b6b3a76400006141f5604051966141ac88612382565b6001600160a01b03875416885260018701546020890152600287015460ff600560408b0199838b52600381015460608d0152600481015460808d015201541660a08a0152612773565b0492868252601d602052836003604084200155868252601d60205260056040832001600260ff1982541617905561422e8460125461267d565b6012556001600160a01b03825416803b156108e15761426593836040518096819582946352065a6560e11b84528a60048501613e71565b03925af180156121c7576145d8575b50907f613128987cba7a2073cf49ff02fbbe4e3728a0cf7ed9f8942569818fd0cfd66e826142bc61433f946001600160a01b03601554166001600160a01b0388511690614e4e565b6015548351604080516000815230602082015233918101919091526001600160a01b0390921660608301526080820188905260a082019290925260c08101919091524260e0820152600261010082015261012090a180516001600160a01b038451168752601660205261433460408820918254612766565b905551600f54612766565b600f556001600160a01b038151168452601660205260408420541561438b575b81604061438894956001600160a01b03614382945116815260176020522061510a565b5061503a565b50565b6001600160a01b03815116808552601e602052604085205480614458575b50506001600160a01b03815116845260186020526040842060ff198154169055836001600160a01b03600354166001600160a01b03835116813b156108e1576040517fdf51a5f60000000000000000000000000000000000000000000000000000000081526001600160a01b0391909116600482015230602482015291908290604490829084905af18015613cc757614443575b5061435f565b61444e858092612408565b610b81573861443d565b601c5460001981019081116145c457808203614520575b5050601c54801561450c5760001901614487816126e9565b6144f957916144ef9187600185827f3ddbb648aaeaaabce96671fb64baf7032313b7a0ef5c7083332fab22b28b481b97550155601c55808752601e602052866040812055604051918291429083602090939291936001600160a01b0360408201951681520152565b0390a138806143a9565b602487634e487b7160e01b815280600452fd5b602486634e487b7160e01b81526031600452fd5b614529816126e9565b5060001983018381116145b05761453f906126e9565b91909161459d579181836001600160a01b03946145639403614579575b50506126e9565b5054168652601e6020526040862055388061446f565b805482546001600160a01b031916908616178255600190810154910155388061455c565b602489634e487b7160e01b815280600452fd5b602489634e487b7160e01b81526011600452fd5b602487634e487b7160e01b81526011600452fd5b8661460961433f9493987f613128987cba7a2073cf49ff02fbbe4e3728a0cf7ed9f8942569818fd0cfd66e93612408565b96919250614274565b90600f546146cb5761462391614a3d565b6146ad6001600160a01b03601454167f9b4c8df72cad1b37ef25dc4ebc8cf34f53d771a1182c1740ddeb9092b783b2486101206001600160a01b03601554169260095493600a54600c546011549160125493604051953087526020870152604086015287606086015260808501524260a085015260c084015260e0830152610100820152a1613637565b6009556000600c556000601055600060115560006012556000601355565b5050565b6001600160a01b037f9016d09d72d40fdae2fd8ceac6b6234c7706214fd39c1cd1e609a0528c1993005416330361470257565b7f118cdaa7000000000000000000000000000000000000000000000000000000006000523360045260246000fd5b90614740600e546007549061280b565b42106146cb576004916000916147546131eb565b9060606001600160a01b0360035416604051968780927ff50200570000000000000000000000000000000000000000000000000000000082525afa918215611ae057849585936149f8575b50600f54614987575192836010555b836147c2575b5050505050506129326151c6565b6001600160a01b0385541690813b1561226a579185916147fa93836040518096819582946352065a6560e11b84528b60048501613e71565b03925af18015611ae057614973575b50819261481883600c5461280b565b600c5561482783601054612766565b60105584151580614961575b6148d3575b50505080915061484d575b80808080806147b4565b60a0816148937fd02394d66d13f483d5a33e67f60f1c8561b25608188ab82207b11115a926f5c2936001600160a01b03601554166001600160a01b036014541690614e4e565b6001600160a01b0360145416906001600160a01b03601554169060105491604051933085526020850152604084015260608301526080820152a138614843565b7fd02394d66d13f483d5a33e67f60f1c8561b25608188ab82207b11115a926f5c293506149106064614908859760a096612773565b048096612766565b9461492781846001600160a01b0360155416614e4e565b6001600160a01b03601554166001600160a01b0360405194308652166020850152604084015260608301526080820152a180388080614838565b506001600160a01b0382161515614833565b8361498091949294612408565b9138614809565b61498f6126c8565b6013548113156149e6576149c660646149bd6020936149b0601354826126af565b9060135560055490612773565b0460105461280b565b918260105501518181116000146149df57505b926147ae565b90506149d9565b955050505050506013556129326151c6565b955091506060853d606011614a35575b81614a1560609383612408565b81010312610b8157614a2e604060208701519601612732565b913861479f565b3d9150614a08565b90600491600091600090614a4f6131eb565b60606001600160a01b0360035416604051978880927ff50200570000000000000000000000000000000000000000000000000000000082525afa928315614bcc5780968194614b87575b50600f54614b2957505192836010555b83614abc575050505050506129326151c6565b6001600160a01b036000541691823b1561237d57614af592600092836040518096819582946352065a6560e11b84528b60048501613e71565b03925af18015612c0457614b125750819261481883600c5461280b565b614b20919350600090612408565b60009138614809565b614b316126c8565b601354811315614b7457614b5260646149bd6020936149b0601354826126af565b928360105501519050818111600014614b6d57505b92614aa9565b9050614b67565b96505050505050506013556129326151c6565b965092506060863d606011614bc4575b81614ba460609383612408565b810103126108e157614bbd604060208801519701612732565b9238614a99565b3d9150614b97565b604051903d90823e3d90fd5b60ff7ff0c57e16840df040f15088dc2f81fe391c3923bec73e23a9662efc9c229c6a005460401c1615614c0757565b7fd7e6bcf80000000000000000000000000000000000000000000000000000000060005260046000fd5b604051906019548083528260208101601960005260206000209260005b818110614c6357505061293292500383612408565b8454835260019485019487945060209093019201614c4e565b906040519182815491828252602082019060005260206000209260005b818110614cae57505061293292500383612408565b8454835260019485019487945060209093019201614c99565b60206001600160a01b03916004604051809481937f313ce567000000000000000000000000000000000000000000000000000000008352165afa908115612c0457600091614d33575b5060ff16604d811161269957670de0b6b3a76400009161310591600a0a90612773565b6020813d602011614d68575b81614d4c60209383612408565b810103126108dd57519060ff82168203610266575060ff614d10565b3d9150614d3f565b908151600181111561438857600090600019810190811192835b6126995781831015614e4857600090845b6126995784614daa8585612766565b831015614e3b575060a0614dbe838861271e565b5101516001830192838111612699578360019260a0614dde8a978c61271e565b51015113614def575b500191614d9b565b614e3490614dfd838b61271e565b5160008b614e1686614e0f868461271e565b519261271e565b52614e21858d61271e565b5050614e2d828c61271e565b528961271e565b5038614de7565b9360019192500192614d8a565b92505050565b9091614e5a9082614cc7565b9081151580614f52575b614e6d57505050565b600092838093614f016040936117257fffffffff00000000000000000000000000000000000000000000000000000000601960208851614ead8a82612408565b828152017f7472616e7366657228616464726573732c75696e7432353629000000000000008152201695519384926020840197885260248401602090939291936001600160a01b0360408201951681520152565b51925af1614f0d612790565b81614f1b575b501561237d57565b8051801592508215614f30575b505038614f13565b819250906020918101031261237d576020614f4b9101612a37565b3880614f28565b506001600160a01b0383161515614e64565b80600052601a60205260406000205415600014614fd5576019546801000000000000000081101561239e57614fbc614fa58260018594016019556019612833565b81939154906000199060031b92831b921b19161790565b905560195490600052601a602052604060002055600190565b50600090565b60018101908260005281602052604060002054156000146150325780546801000000000000000081101561239e5761501d614fa5826001879401855584612833565b90555491600052602052604060002055600190565b505050600090565b6000818152601a6020526040902054801561510357600019810181811161269957601954906000198201918211612699578181036150c9575b50505060195480156150b3576000190161508e816019612833565b60001982549160031b1b19169055601955600052601a60205260006040812055600190565b634e487b7160e01b600052603160045260246000fd5b6150eb6150da614fa5936019612833565b90549060031b1c9283926019612833565b9055600052601a602052604060002055388080615073565b5050600090565b90600182019181600052826020526040600020548015156000146151bd57600019810181811161269957825490600019820191821161269957818103615186575b505050805480156150b35760001901906151658282612833565b60001982549160031b1b191690555560005260205260006040812055600190565b6151a6615196614fa59386612833565b90549060031b1c92839286612833565b90556000528360205260406000205538808061514b565b50505050600090565b6151d562015180420642612766565b620151808104600381018091116126995760079006620151808102908082046201518014901517156126995761520a91612766565b600e5556fea2646970667358221220776561b16d59fe1ae4343ef664b681b319bf38841742ef9e4af5057f5c46e77764736f6c634300081c0033",
  "linkReferences": {},
  "deployedLinkReferences": {}
}