{
  "_format": "hh-sol-artifact-1",
  "contractName": "LeadingContractFactory",
  "sourceName": "contracts/LeadingContractFactory.sol",
  "abi": [
    {
      "inputs": [],
      "name": "InvalidInitialization",
      "type": "error"
    },
    {
      "inputs": [],
      "name": "NotInitializing",
      "type": "error"
    },
    {
      "inputs": [
        {
          "internalType": "address",
          "name": "owner",
          "type": "address"
        }
      ],
      "name": "OwnableInvalidOwner",
      "type": "error"
    },
    {
      "inputs": [
        {
          "internalType": "address",
          "name": "account",
          "type": "address"
        }
      ],
      "name": "OwnableUnauthorizedAccount",
      "type": "error"
    },
    {
      "inputs": [],
      "name": "ReentrancyGuardReentrantCall",
      "type": "error"
    },
    {
      "anonymous": false,
      "inputs": [
        {
          "indexed": true,
          "internalType": "address",
          "name": "newImplementation",
          "type": "address"
        }
      ],
      "name": "ImplementationUpdated",
      "type": "event"
    },
    {
      "anonymous": false,
      "inputs": [
        {
          "indexed": false,
          "internalType": "uint64",
          "name": "version",
          "type": "uint64"
        }
      ],
      "name": "Initialized",
      "type": "event"
    },
    {
      "anonymous": false,
      "inputs": [
        {
          "indexed": true,
          "internalType": "address",
          "name": "trader",
          "type": "address"
        },
        {
          "indexed": true,
          "internalType": "address",
          "name": "token",
          "type": "address"
        },
        {
          "indexed": false,
          "internalType": "address",
          "name": "contractAddress",
          "type": "address"
        },
        {
          "indexed": false,
          "internalType": "uint256",
          "name": "status",
          "type": "uint256"
        }
      ],
      "name": "LeadingContractAudit",
      "type": "event"
    },
    {
      "anonymous": false,
      "inputs": [
        {
          "indexed": true,
          "internalType": "address",
          "name": "trader",
          "type": "address"
        },
        {
          "indexed": true,
          "internalType": "address",
          "name": "token",
          "type": "address"
        },
        {
          "indexed": false,
          "internalType": "address",
          "name": "contractAddress",
          "type": "address"
        }
      ],
      "name": "LeadingContractCreated",
      "type": "event"
    },
    {
      "anonymous": false,
      "inputs": [
        {
          "indexed": true,
          "internalType": "address",
          "name": "trader",
          "type": "address"
        },
        {
          "indexed": true,
          "internalType": "address",
          "name": "token",
          "type": "address"
        }
      ],
      "name": "LeadingContractInfoUpdated",
      "type": "event"
    },
    {
      "anonymous": false,
      "inputs": [
        {
          "indexed": true,
          "internalType": "address",
          "name": "trader",
          "type": "address"
        },
        {
          "indexed": true,
          "internalType": "address",
          "name": "token",
          "type": "address"
        },
        {
          "indexed": false,
          "internalType": "address",
          "name": "contractAddress",
          "type": "address"
        }
      ],
      "name": "LeadingContractRemoved",
      "type": "event"
    },
    {
      "anonymous": false,
      "inputs": [
        {
          "indexed": true,
          "internalType": "address",
          "name": "trader",
          "type": "address"
        },
        {
          "indexed": true,
          "internalType": "address",
          "name": "token",
          "type": "address"
        },
        {
          "indexed": false,
          "internalType": "uint256",
          "name": "contractIndex",
          "type": "uint256"
        },
        {
          "indexed": false,
          "internalType": "bool",
          "name": "isActive",
          "type": "bool"
        }
      ],
      "name": "LeadingContractStatusUpdated",
      "type": "event"
    },
    {
      "anonymous": false,
      "inputs": [
        {
          "indexed": true,
          "internalType": "address",
          "name": "previousOwner",
          "type": "address"
        },
        {
          "indexed": true,
          "internalType": "address",
          "name": "newOwner",
          "type": "address"
        }
      ],
      "name": "OwnershipTransferred",
      "type": "event"
    },
    {
      "stateMutability": "payable",
      "type": "fallback"
    },
    {
      "inputs": [
        {
          "internalType": "address[]",
          "name": "_traders",
          "type": "address[]"
        },
        {
          "internalType": "address[]",
          "name": "_tokens",
          "type": "address[]"
        },
        {
          "internalType": "bool",
          "name": "_pass",
          "type": "bool"
        }
      ],
      "name": "auditLeadingContract",
      "outputs": [],
      "stateMutability": "nonpayable",
      "type": "function"
    },
    {
      "inputs": [
        {
          "internalType": "address",
          "name": "_token",
          "type": "address"
        },
        {
          "internalType": "address",
          "name": "_trader",
          "type": "address"
        },
        {
          "internalType": "string[]",
          "name": "_symbols",
          "type": "string[]"
        },
        {
          "internalType": "bytes[]",
          "name": "_priceUpdates",
          "type": "bytes[]"
        }
      ],
      "name": "autoDeleteInactiveContract",
      "outputs": [],
      "stateMutability": "payable",
      "type": "function"
    },
    {
      "inputs": [],
      "name": "bManager",
      "outputs": [
        {
          "internalType": "contract IBManager",
          "name": "",
          "type": "address"
        }
      ],
      "stateMutability": "view",
      "type": "function"
    },
    {
      "inputs": [
        {
          "internalType": "address",
          "name": "_tokenAddress",
          "type": "address"
        },
        {
          "internalType": "uint256",
          "name": "_commissionRate",
          "type": "uint256"
        },
        {
          "internalType": "string",
          "name": "_leadingProjectName",
          "type": "string"
        },
        {
          "internalType": "string",
          "name": "_leadingProjectDescription",
          "type": "string"
        }
      ],
      "name": "createLeadingContract",
      "outputs": [
        {
          "internalType": "address",
          "name": "",
          "type": "address"
        }
      ],
      "stateMutability": "nonpayable",
      "type": "function"
    },
    {
      "inputs": [
        {
          "internalType": "uint256",
          "name": "_days",
          "type": "uint256"
        }
      ],
      "name": "getAllLeadingContractInfo",
      "outputs": [
        {
          "components": [
            {
              "internalType": "address",
              "name": "contractAddress",
              "type": "address"
            },
            {
              "internalType": "address",
              "name": "traderAddress",
              "type": "address"
            },
            {
              "internalType": "string",
              "name": "traderName",
              "type": "string"
            },
            {
              "internalType": "string",
              "name": "traderDescription",
              "type": "string"
            },
            {
              "internalType": "address",
              "name": "tokenAddress",
              "type": "address"
            },
            {
              "internalType": "bool",
              "name": "isActive",
              "type": "bool"
            },
            {
              "internalType": "uint256",
              "name": "recentTotalShare",
              "type": "uint256"
            },
            {
              "internalType": "uint256",
              "name": "recentTotalBalance",
              "type": "uint256"
            },
            {
              "internalType": "uint256",
              "name": "pastTotalShare",
              "type": "uint256"
            },
            {
              "internalType": "uint256",
              "name": "pastTotalBalance",
              "type": "uint256"
            },
            {
              "internalType": "uint256",
              "name": "createTime",
              "type": "uint256"
            }
          ],
          "internalType": "struct LeadingContractFactory.LeadingContractInfo[]",
          "name": "",
          "type": "tuple[]"
        }
      ],
      "stateMutability": "view",
      "type": "function"
    },
    {
      "inputs": [
        {
          "internalType": "address",
          "name": "_trader",
          "type": "address"
        }
      ],
      "name": "getAllLeadingContractInfoByTrader",
      "outputs": [
        {
          "components": [
            {
              "internalType": "address",
              "name": "contractAddress",
              "type": "address"
            },
            {
              "internalType": "address",
              "name": "traderAddress",
              "type": "address"
            },
            {
              "internalType": "string",
              "name": "traderName",
              "type": "string"
            },
            {
              "internalType": "string",
              "name": "traderDescription",
              "type": "string"
            },
            {
              "internalType": "address",
              "name": "tokenAddress",
              "type": "address"
            },
            {
              "internalType": "bool",
              "name": "isActive",
              "type": "bool"
            },
            {
              "internalType": "uint256",
              "name": "recentTotalShare",
              "type": "uint256"
            },
            {
              "internalType": "uint256",
              "name": "recentTotalBalance",
              "type": "uint256"
            },
            {
              "internalType": "uint256",
              "name": "pastTotalShare",
              "type": "uint256"
            },
            {
              "internalType": "uint256",
              "name": "pastTotalBalance",
              "type": "uint256"
            },
            {
              "internalType": "uint256",
              "name": "createTime",
              "type": "uint256"
            }
          ],
          "internalType": "struct LeadingContractFactory.LeadingContractInfo[]",
          "name": "",
          "type": "tuple[]"
        }
      ],
      "stateMutability": "view",
      "type": "function"
    },
    {
      "inputs": [],
      "name": "getAllTraders",
      "outputs": [
        {
          "internalType": "address[]",
          "name": "",
          "type": "address[]"
        }
      ],
      "stateMutability": "view",
      "type": "function"
    },
    {
      "inputs": [],
      "name": "getDistributeProfitRate",
      "outputs": [
        {
          "internalType": "uint256",
          "name": "",
          "type": "uint256"
        },
        {
          "internalType": "uint256",
          "name": "",
          "type": "uint256"
        },
        {
          "internalType": "address",
          "name": "",
          "type": "address"
        }
      ],
      "stateMutability": "view",
      "type": "function"
    },
    {
      "inputs": [],
      "name": "getLeadingContractAddresses",
      "outputs": [
        {
          "internalType": "address[]",
          "name": "lists",
          "type": "address[]"
        }
      ],
      "stateMutability": "view",
      "type": "function"
    },
    {
      "inputs": [
        {
          "internalType": "address",
          "name": "trader",
          "type": "address"
        }
      ],
      "name": "getLeadingContractCount",
      "outputs": [
        {
          "internalType": "uint256",
          "name": "",
          "type": "uint256"
        }
      ],
      "stateMutability": "view",
      "type": "function"
    },
    {
      "inputs": [
        {
          "internalType": "address",
          "name": "_trader",
          "type": "address"
        },
        {
          "internalType": "address",
          "name": "_token",
          "type": "address"
        },
        {
          "internalType": "uint256",
          "name": "_days",
          "type": "uint256"
        }
      ],
      "name": "getLeadingContractInfo",
      "outputs": [
        {
          "components": [
            {
              "internalType": "address",
              "name": "contractAddress",
              "type": "address"
            },
            {
              "internalType": "address",
              "name": "traderAddress",
              "type": "address"
            },
            {
              "internalType": "string",
              "name": "traderName",
              "type": "string"
            },
            {
              "internalType": "string",
              "name": "traderDescription",
              "type": "string"
            },
            {
              "internalType": "address",
              "name": "tokenAddress",
              "type": "address"
            },
            {
              "internalType": "bool",
              "name": "isActive",
              "type": "bool"
            },
            {
              "internalType": "uint256",
              "name": "recentTotalShare",
              "type": "uint256"
            },
            {
              "internalType": "uint256",
              "name": "recentTotalBalance",
              "type": "uint256"
            },
            {
              "internalType": "uint256",
              "name": "pastTotalShare",
              "type": "uint256"
            },
            {
              "internalType": "uint256",
              "name": "pastTotalBalance",
              "type": "uint256"
            },
            {
              "internalType": "uint256",
              "name": "createTime",
              "type": "uint256"
            }
          ],
          "internalType": "struct LeadingContractFactory.LeadingContractInfo",
          "name": "",
          "type": "tuple"
        }
      ],
      "stateMutability": "view",
      "type": "function"
    },
    {
      "inputs": [
        {
          "internalType": "address",
          "name": "_contractAddress",
          "type": "address"
        }
      ],
      "name": "getLeadingContractInfoByAddress",
      "outputs": [
        {
          "components": [
            {
              "internalType": "address",
              "name": "contractAddress",
              "type": "address"
            },
            {
              "internalType": "address",
              "name": "traderAddress",
              "type": "address"
            },
            {
              "internalType": "string",
              "name": "traderName",
              "type": "string"
            },
            {
              "internalType": "string",
              "name": "traderDescription",
              "type": "string"
            },
            {
              "internalType": "address",
              "name": "tokenAddress",
              "type": "address"
            },
            {
              "internalType": "bool",
              "name": "isActive",
              "type": "bool"
            },
            {
              "internalType": "uint256",
              "name": "recentTotalShare",
              "type": "uint256"
            },
            {
              "internalType": "uint256",
              "name": "recentTotalBalance",
              "type": "uint256"
            },
            {
              "internalType": "uint256",
              "name": "pastTotalShare",
              "type": "uint256"
            },
            {
              "internalType": "uint256",
              "name": "pastTotalBalance",
              "type": "uint256"
            },
            {
              "internalType": "uint256",
              "name": "createTime",
              "type": "uint256"
            }
          ],
          "internalType": "struct LeadingContractFactory.LeadingContractInfo",
          "name": "",
          "type": "tuple"
        }
      ],
      "stateMutability": "view",
      "type": "function"
    },
    {
      "inputs": [
        {
          "internalType": "address",
          "name": "trader",
          "type": "address"
        }
      ],
      "name": "getLeadingContracts",
      "outputs": [
        {
          "internalType": "address[]",
          "name": "",
          "type": "address[]"
        }
      ],
      "stateMutability": "view",
      "type": "function"
    },
    {
      "inputs": [],
      "name": "getPendingLeadingContracts",
      "outputs": [
        {
          "components": [
            {
              "internalType": "address",
              "name": "contractAddress",
              "type": "address"
            },
            {
              "internalType": "address",
              "name": "traderAddress",
              "type": "address"
            },
            {
              "internalType": "string",
              "name": "traderName",
              "type": "string"
            },
            {
              "internalType": "string",
              "name": "traderDescription",
              "type": "string"
            },
            {
              "internalType": "address",
              "name": "tokenAddress",
              "type": "address"
            },
            {
              "internalType": "bool",
              "name": "isActive",
              "type": "bool"
            },
            {
              "internalType": "uint256",
              "name": "recentTotalShare",
              "type": "uint256"
            },
            {
              "internalType": "uint256",
              "name": "recentTotalBalance",
              "type": "uint256"
            },
            {
              "internalType": "uint256",
              "name": "pastTotalShare",
              "type": "uint256"
            },
            {
              "internalType": "uint256",
              "name": "pastTotalBalance",
              "type": "uint256"
            },
            {
              "internalType": "uint256",
              "name": "createTime",
              "type": "uint256"
            }
          ],
          "internalType": "struct LeadingContractFactory.LeadingContractInfo[]",
          "name": "",
          "type": "tuple[]"
        }
      ],
      "stateMutability": "view",
      "type": "function"
    },
    {
      "inputs": [
        {
          "internalType": "address",
          "name": "trader",
          "type": "address"
        }
      ],
      "name": "getTraderSupportedTokens",
      "outputs": [
        {
          "internalType": "address[]",
          "name": "",
          "type": "address[]"
        }
      ],
      "stateMutability": "view",
      "type": "function"
    },
    {
      "inputs": [
        {
          "internalType": "address",
          "name": "_user",
          "type": "address"
        }
      ],
      "name": "getUserFollowedContracts",
      "outputs": [
        {
          "components": [
            {
              "internalType": "address",
              "name": "contractAddress",
              "type": "address"
            },
            {
              "internalType": "address",
              "name": "traderAddress",
              "type": "address"
            },
            {
              "internalType": "string",
              "name": "traderName",
              "type": "string"
            },
            {
              "internalType": "string",
              "name": "traderDescription",
              "type": "string"
            },
            {
              "internalType": "address",
              "name": "tokenAddress",
              "type": "address"
            },
            {
              "internalType": "bool",
              "name": "isActive",
              "type": "bool"
            },
            {
              "internalType": "uint256",
              "name": "recentTotalShare",
              "type": "uint256"
            },
            {
              "internalType": "uint256",
              "name": "recentTotalBalance",
              "type": "uint256"
            },
            {
              "internalType": "uint256",
              "name": "pastTotalShare",
              "type": "uint256"
            },
            {
              "internalType": "uint256",
              "name": "pastTotalBalance",
              "type": "uint256"
            },
            {
              "internalType": "uint256",
              "name": "createTime",
              "type": "uint256"
            }
          ],
          "internalType": "struct LeadingContractFactory.LeadingContractInfo[]",
          "name": "",
          "type": "tuple[]"
        }
      ],
      "stateMutability": "view",
      "type": "function"
    },
    {
      "inputs": [
        {
          "internalType": "address",
          "name": "_initialOwner",
          "type": "address"
        },
        {
          "internalType": "address",
          "name": "_platformTradeFeeAccount",
          "type": "address"
        },
        {
          "internalType": "address",
          "name": "_bManager",
          "type": "address"
        }
      ],
      "name": "initialize",
      "outputs": [],
      "stateMutability": "nonpayable",
      "type": "function"
    },
    {
      "inputs": [
        {
          "internalType": "address",
          "name": "_trader",
          "type": "address"
        }
      ],
      "name": "isTrader",
      "outputs": [
        {
          "internalType": "bool",
          "name": "",
          "type": "bool"
        }
      ],
      "stateMutability": "view",
      "type": "function"
    },
    {
      "inputs": [],
      "name": "leadingContractImpl",
      "outputs": [
        {
          "internalType": "address",
          "name": "",
          "type": "address"
        }
      ],
      "stateMutability": "view",
      "type": "function"
    },
    {
      "inputs": [],
      "name": "owner",
      "outputs": [
        {
          "internalType": "address",
          "name": "",
          "type": "address"
        }
      ],
      "stateMutability": "view",
      "type": "function"
    },
    {
      "inputs": [],
      "name": "platformTradeFeeAccount",
      "outputs": [
        {
          "internalType": "address",
          "name": "",
          "type": "address"
        }
      ],
      "stateMutability": "view",
      "type": "function"
    },
    {
      "inputs": [
        {
          "internalType": "address",
          "name": "_user",
          "type": "address"
        },
        {
          "internalType": "address",
          "name": "_contractAddress",
          "type": "address"
        }
      ],
      "name": "recordUserFollowedContract",
      "outputs": [],
      "stateMutability": "nonpayable",
      "type": "function"
    },
    {
      "inputs": [
        {
          "internalType": "address",
          "name": "_trader",
          "type": "address"
        },
        {
          "internalType": "address",
          "name": "_token",
          "type": "address"
        }
      ],
      "name": "remove",
      "outputs": [],
      "stateMutability": "nonpayable",
      "type": "function"
    },
    {
      "inputs": [
        {
          "internalType": "address",
          "name": "_user",
          "type": "address"
        },
        {
          "internalType": "address",
          "name": "_contractAddress",
          "type": "address"
        }
      ],
      "name": "removeUserFollowedContract",
      "outputs": [],
      "stateMutability": "nonpayable",
      "type": "function"
    },
    {
      "inputs": [],
      "name": "renounceOwnership",
      "outputs": [],
      "stateMutability": "nonpayable",
      "type": "function"
    },
    {
      "inputs": [
        {
          "internalType": "address",
          "name": "_newImplementation",
          "type": "address"
        }
      ],
      "name": "setImplementation",
      "outputs": [],
      "stateMutability": "nonpayable",
      "type": "function"
    },
    {
      "inputs": [
        {
          "internalType": "address",
          "name": "newOwner",
          "type": "address"
        }
      ],
      "name": "transferOwnership",
      "outputs": [],
      "stateMutability": "nonpayable",
      "type": "function"
    },
    {
      "inputs": [
        {
          "internalType": "string",
          "name": "",
          "type": "string"
        }
      ],
      "name": "underlying",
      "outputs": [
        {
          "internalType": "address",
          "name": "",
          "type": "address"
        }
      ],
      "stateMutability": "view",
      "type": "function"
    },
    {
      "inputs": [
        {
          "internalType": "address",
          "name": "_tokenAddress",
          "type": "address"
        },
        {
          "internalType": "string",
          "name": "_traderName",
          "type": "string"
        },
        {
          "internalType": "string",
          "name": "_traderDescription",
          "type": "string"
        }
      ],
      "name": "updateTraderInfo",
      "outputs": [],
      "stateMutability": "nonpayable",
      "type": "function"
    },
    {
      "stateMutability": "payable",
      "type": "receive"
    }
  ],
  "bytecode": "0x6080806040523460155761479e908161001b8239f35b600080fdfe6080604052600436101561000f57005b6000803560e01c806296d244146127425780631024c97b1461271c5780631807cd0b146126f757806323f1fcbf146126d0578063299ae753146126695780634039ad0d1461263b57806340a6809b1461252a57806353be06e5146121585780635614579e14612131578063629b748514611fdb57806364a30a3814611d0d578063715018a614611c7457806379c4e5e414611a765780637f7c149114611a4b5780638ae1b5b71461177f5780638b92d628146116fc5780638da5cb5b146116b65780639fa45d5614611638578063ae5e55e6146115de578063afa85c091461143d578063b56eeef014611214578063c0c53b8b14610d90578063d784d42614610ce2578063df51a5f614610b9c578063e3b4a33f14610393578063ef90dde114610312578063f166ddd8146101bc578063f2fde38b1461018f5763f50200571461015557005b3461018c578060031936011261018c5760606005546006546001600160a01b03600154169060405192835260208301526040820152f35b80fd5b503461018c57602060031936011261018c576101b96101ac61286e565b6101b46136d0565b613433565b80f35b503461018c57602060031936011261018c576001600160a01b036101de61286e565b6101e6612b9e565b5016808252600b6020526001600160a01b03604083205416156102ce57816040916102ca9352600b60205220600960405191610221836129d3565b6001600160a01b0381541683526001600160a01b03600182015416602084015261024d60028201612c9c565b604084015261025e60038201612c9c565b606084015260ff60048201546001600160a01b038116608086015260a01c16151560a0840152600581015460c0840152600681015460e08401526007810154610100840152600881015461012084015201546101408201526040519182916020835260208301906128e7565b0390f35b606460405162461bcd60e51b815260206004820152601260248201527f436f6e7472616374206e6f7420666f756e6400000000000000000000000000006044820152fd5b503461018c578060031936011261018c5760405180916020600754928381520191600782527fa66cc928b5edb82af9bd49922954155ab7b0942694bea4ce44661d9a8736c688915b81811061037d576102ca8561037181870382612a06565b60405191829182612990565b825484526020909301926001928301920161035a565b503461018c57608060031936011261018c576103ad61286e565b906024359160443567ffffffffffffffff8111610b98576103d2903690600401612a7c565b9160643567ffffffffffffffff8111610b94576103f3903690600401612a7c565b933382526003602052604082206001600160a01b0384166000526020526001600160a01b0360406000205416610b2a576064811015610ae6576001600160a01b03908282815416946024604051809581937f873fd3c300000000000000000000000000000000000000000000000000000000835216978860048301525afa918215610adb57839261098f575b506001600160a01b0360c083015116916001600160a01b0360e081610100840151169201511690604051937f1460e390000000000000000000000000000000000000000000000000000000006020860152336024860152336044860152306064860152608485015260a484015260c483015260e482015260e4815261050661010482612a06565b6001600160a01b0360025416906001600160a01b037f9016d09d72d40fdae2fd8ceac6b6234c7706214fd39c1cd1e609a0528c19930054169160405192610da0918285019285841067ffffffffffffffff85111761097b5792859492606092610582956139c988398252602082015281604082015201906128c2565b039082f0801561096e576001600160a01b03169261059f84613915565b503382526003602052604082208360005260205260406000206001600160a01b0385166001600160a01b031982541617905583828060405180946105e2826129d3565b848252602082019033825260408301908152606083019a8b52608083019089825260a0840190600182526001600160a01b0360c0860194878652818060408a61014060e08c019b828d5261010081019d8e5261012081019e8f52019d8e4290528152600b602052209c5116166001600160a01b03198c5416178b5551166001600160a01b0360018b0191166001600160a01b0319825416179055600289019051805167ffffffffffffffff811161095a578b61069e8454612c62565b601f811161092a575b505060208c601f83116001146108c757906106d69383610800575b50506000198260011b9260031b1c19161790565b90555b600388019b519b8c5167ffffffffffffffff81116108b35760209d8b6106ff8454612c62565b601f8111610878575b50508e908c601f841160011461080b5760099b9a99989796959493610742939092836108005750506000198260011b9260031b1c19161790565b90555b6001600160a01b038060048b01935116166001600160a01b03198354161782555115157fffffffffffffffffffffff00ffffffffffffffffffffffffffffffffffffffff74ff000000000000000000000000000000000000000083549260a01b1691161790555160058701555160068601555160078501555160088401555191015560405190838252848201527f3cc9e154ebf4c45999f2227230f6bba5eb453e798922f40619e271ef3f60a98660403392a3604051908152f35b0151905038806106c2565b9190601f198416858452828420935b818110610860575091600193918560099e9d9c9b9a999897969410610847575b505050811b019055610745565b015160001960f88460031b161c1916905538808061083a565b9293602060018192878601518155019501930161081a565b602082866108a2945220601f850160051c810191602086106108a9575b601f0160051c0190612f0c565b8b38610708565b9091508190610895565b60248b634e487b7160e01b81526041600452fd5b9192601f198416858452828420935b81811061091257509084600195949392106108f9575b505050811b0190556106d9565b015160001960f88460031b161c191690553880806108ec565b929360206001819287860151815501950193016108d6565b60208286610953945220601f840160051c810191602085106108a957601f0160051c0190612f0c565b8b386106a7565b60248c634e487b7160e01b81526041600452fd5b50604051903d90823e3d90fd5b602487634e487b7160e01b81526041600452fd5b9091503d8084833e6109a18183612a06565b810190602081830312610ad35780519067ffffffffffffffff8211610ad7570161014081830312610ad35760405191610140830183811067ffffffffffffffff821117610abf576040526109f48261341f565b8352610a026020830161341f565b602084015260408201516040840152606082015167ffffffffffffffff8111610abb5781610a319184016133dd565b6060840152608082015167ffffffffffffffff8111610abb5791610a5d61012092610aae9483016133dd565b6080850152610a6e60a0820161341f565b60a0850152610a7f60c0820161341f565b60c0850152610a9060e0820161341f565b60e0850152610aa2610100820161341f565b6101008501520161341f565b610120820152903861047f565b8580fd5b602486634e487b7160e01b81526041600452fd5b8380fd5b8480fd5b6040513d85823e3d90fd5b606460405162461bcd60e51b815260206004820152602060248201527f636f6d6d697373696f6e2072617465206973206d6f7265207468656e203130306044820152fd5b608460405162461bcd60e51b815260206004820152602c60248201527f54726164657220616c726561647920686173206120636f6e747261637420666f60448201527f72207468697320746f6b656e00000000000000000000000000000000000000006064820152fd5b5080fd5b8280fd5b503461018c57604060031936011261018c57610bb661286e565b6001600160a01b03610bc6612889565b1690818352600b602052610be86001600160a01b036040852054163314613392565b6001600160a01b0316825b818452600c6020526040842054811015610cdc57818452600c602052826001600160a01b03610c258360408820612df8565b90549060031b1c1614610c3a57600101610bf3565b908092508352600c60205260408320828452600c6020526040842054906000198201918211610cc8576001600160a01b03610c7c610cb59493610c9693612df8565b90549060031b1c1691848652600c60205260408620612df8565b9091906001600160a01b038084549260031b9316831b921b1916179055565b8152600c6020526101b960408220612fdf565b602485634e487b7160e01b81526011600452fd5b50505080f35b503461018c57602060031936011261018c576001600160a01b03610d0461286e565b610d0c6136d0565b168015610d4c57806001600160a01b031960025416176002557f310ba5f1d2ed074b51e2eccd052a47ae9ab7c6b800d1fca3db3999d6a592ca038280a280f35b606460405162461bcd60e51b815260206004820152600f60248201527f496e76616c6964206164647265737300000000000000000000000000000000006044820152fd5b503461018c57606060031936011261018c57610daa61286e565b610db2612889565b604435906001600160a01b038216809203610ad3577ff0c57e16840df040f15088dc2f81fe391c3923bec73e23a9662efc9c229c6a00549260ff8460401c16159367ffffffffffffffff81168015908161120c575b6001149081611202575b1590816111f9575b506111d1578592610ed460049593838860017fffffffffffffffffffffffffffffffffffffffffffffffff00000000000000006001600160a01b039716177ff0c57e16840df040f15088dc2f81fe391c3923bec73e23a9662efc9c229c6a005561117c575b50610e8761396f565b610e8f61396f565b610e9833613433565b610ea061396f565b610ea861396f565b60017f9b779b17422d0df92223018b32b4d1fa46e071723d6817e2486d003becc55f00556101b46136d0565b6014600555826001600160a01b0319855416178455166001600160a01b03196001541617600155604051928380927f9816f4730000000000000000000000000000000000000000000000000000000082525afa8015610adb5783918491611043575b50835b8251811015610fa557806001600160a01b03610f5760019385612e5e565b51166001600160a01b03610f846020610f708589612e5e565b51816040519382858094519384920161289f565b8101600e81520301902091166001600160a01b031982541617905501610f39565b505050610faf5780f35b7fffffffffffffffffffffffffffffffffffffffffffffff00ffffffffffffffff7ff0c57e16840df040f15088dc2f81fe391c3923bec73e23a9662efc9c229c6a0054167ff0c57e16840df040f15088dc2f81fe391c3923bec73e23a9662efc9c229c6a00557fc7f505b2f371ae2175ee4913f4499e1f2633a7b5936321eed1cdaeb6115181d2602060405160018152a180f35b9150503d8084833e6110558183612a06565b810190604081830312610ad357805167ffffffffffffffff8111610ad75781019082601f83011215610ad75781519161108d83612a9a565b9261109b6040519485612a06565b80845260208085019160051b830101918583116111785760208101915b838310611146575050505060208101519067ffffffffffffffff8211610abb57019180601f84011215610ad75782516110f081612a9a565b936110fe6040519586612a06565b81855260208086019260051b82010192831161114257602001905b82821061112a575050509038610f36565b602080916111378461341f565b815201910190611119565b8680fd5b825167ffffffffffffffff811161117457602091611169898480948701016133dd565b8152019201916110b8565b8980fd5b8780fd5b7fffffffffffffffffffffffffffffffffffffffffffffff0000000000000000001668010000000000000001177ff0c57e16840df040f15088dc2f81fe391c3923bec73e23a9662efc9c229c6a005538610e7e565b6004867ff92ee8a9000000000000000000000000000000000000000000000000000000008152fd5b90501538610e19565b303b159150610e11565b869150610e07565b503461018c57602060031936011261018c576004805490359180805b838110611400575061124190612ebd565b918193825b82841061125b57604051806102ca8782612ab2565b6001600160a01b0361126c85612dc7565b90549060031b1c1691828252600d60205260408220604051808260208294549384815201908652602086209286905b8082106113db5750506112b092500382612a06565b82975b81518910156113cb576113c36001916113656001600160a01b036112d78d87612e5e565b5116888852600360205261137b896113718a6001600160a01b036040808320600090838916825260205220541680956113108d83613514565b98929591969097858352600b6020526002604084200190868452600b6020526009604060038187200195898152600b60205260ff6004838320015460a01c16998152600b6020522001549b6040519d8e6129d3565b8d5260208d0152612c9c565b60408b0152612c9c565b60608901526080880152151560a087015260c086015260e08501526101008401526101208301526101408201526113b2828c612e5e565b526113bd818b612e5e565b50612f23565b9801976112b3565b9750506001909401939150611246565b916001919350602082916001600160a01b03875416815201940192018492939161129b565b906114266001600160a01b036114198497969597612dc7565b90549060031b1c16612d5e565b518101809111610cc8579293919290600101611230565b503461018c57602060031936011261018c576001600160a01b0361145f61286e565b1690818152600d60205260408120906040518083602082955493848152019084526020842092845b8181106115bc57505061149c92500383612a06565b6114a68251612ebd565b92815b83518110156115ae57806001600160a01b036040816114ca60019589612e5e565b51168587526003602052818720836000921682526020522054168452600b602052604084206009604051916114fe836129d3565b6001600160a01b0381541683526001600160a01b038582015416602084015261152960028201612c9c565b604084015261153a60038201612c9c565b606084015260ff60048201546001600160a01b038116608086015260a01c16151560a0840152600581015460c0840152600681015460e084015260078101546101008401526008810154610120840152015461014082015261159c8288612e5e565b526115a78187612e5e565b50016114a9565b604051806102ca8782612ab2565b84546001600160a01b0316835260019485019487945060209093019201611487565b503461018c57604060031936011261018c576101b96115fb61286e565b6001600160a01b0361160b612889565b918183168552600b602052611627826040872054163314613392565b168352600c6020526040832061336a565b503461018c578060031936011261018c5760405180916020600454928381520191600482527f8a35acfbc15ff81a39ae7d344fd709f28e8600b4aa8c65c6b64bfe7fe36bd19b915b818110611697576102ca8561037181870382612a06565b82546001600160a01b0316845260209093019260019283019201611680565b503461018c578060031936011261018c5760206001600160a01b037f9016d09d72d40fdae2fd8ceac6b6234c7706214fd39c1cd1e609a0528c1993005416604051908152f35b503461018c57602060031936011261018c576001600160a01b0361171e61286e565b168152600d60205260408120604051918260208354918281520192825260208220915b8181106117605760208561175781870382612a06565b51604051908152f35b82546001600160a01b0316845260209093019260019283019201611741565b503461018c57606060031936011261018c5760043567ffffffffffffffff8111610b94576117b1903690600401612b30565b60243567ffffffffffffffff8111610b98576117d1903690600401612b30565b604435908115158203610ad3576117e66136d0565b8251815103611a0757825192845b8481106117ff578580f35b6001600160a01b036118118284612e5e565b51166001600160a01b036118258386612e5e565b51169080885260036020526001600160a01b036040808a206000908386168252602052205416808952600a6020526040892054611868575b5050506001016117f4565b61187181613731565b50861561198c57611881816138b5565b508861188c83612e10565b1561190f575b604083926118cf86838560019a99987f3cc9e154ebf4c45999f2227230f6bba5eb453e798922f40619e271ef3f60a9869752600d6020522061336a565b84847f90aeddfcb1428cce068a71e29d724f88317a2527526ca083e9246630a0d85d6360208551858152a38151908152866020820152a35b90388061185d565b506004546801000000000000000081101561197857604083926118cf86838e61196860019b9a99610c96898e7f3cc9e154ebf4c45999f2227230f6bba5eb453e798922f40619e271ef3f60a9869b016004556004612df8565b9550505050929394955050611892565b60248a634e487b7160e01b81526041600452fd5b908281600195946040937f3cc9e154ebf4c45999f2227230f6bba5eb453e798922f40619e271ef3f60a98685805188815260026020820152a38a526003602052818a206001600160a01b03600092168252602052206001600160a01b031981541690558752600b602052611a0260408820612f97565b611907565b606460405162461bcd60e51b815260206004820152601860248201527f706172616d206c656e677468206973206d69736d6174636800000000000000006044820152fd5b503461018c57604060031936011261018c576101b9611a6861286e565b611a70612889565b90613027565b503461018c57602060031936011261018c576001600160a01b03611a9861286e565b168152600c602052604081206040518082602082945493848152019085526020852092855b818110611c52575050611ad292500382612a06565b611adc8151612ebd565b9082835b8251811015611c05576001600160a01b03611afb8285612e5e565b51168552600b6020526001600160a01b03604086205416611b1f575b600101611ae0565b90611bfd6001916001600160a01b03611b388587612e5e565b51168752600b60205260408720600960405191611b54836129d3565b6001600160a01b0381541683526001600160a01b0386820154166020840152611b7f60028201612c9c565b6040840152611b9060038201612c9c565b606084015260ff60048201546001600160a01b038116608086015260a01c16151560a0840152600581015460c0840152600681015460e0840152600781015461010084015260088101546101208401520154610140820152611bf28288612e5e565b526113bd8187612e5e565b919050611b17565b848285611c1182612ebd565b925b828110611c2857604051806102ca8682612ab2565b80611c3560019284612e5e565b51611c408287612e5e565b52611c4b8186612e5e565b5001611c13565b84546001600160a01b0316835260019485019486945060209093019201611abd565b503461018c578060031936011261018c57611c8d6136d0565b806001600160a01b037f9016d09d72d40fdae2fd8ceac6b6234c7706214fd39c1cd1e609a0528c199300546001600160a01b031981167f9016d09d72d40fdae2fd8ceac6b6234c7706214fd39c1cd1e609a0528c19930055167f8be0079c531659141344cd1fd0a4f28419497f9722a3daafe3b4186f6b6457e08280a380f35b503461018c57606060031936011261018c57611d2761286e565b9060243567ffffffffffffffff8111610b9457611d48903690600401612a7c565b9160443567ffffffffffffffff8111610b9857611d69903690600401612a7c565b923383526003602052604083206001600160a01b0383166000526020526001600160a01b0360406000205416611da0811515612bf1565b8352600b6020526040832090600282019080519067ffffffffffffffff8211610abf57611dcd8354612c62565b601f8111611fab575b50602090601f8311600114611f45579180611e0a92600396959489926108005750506000198260011b9260031b1c19161790565b90555b01835167ffffffffffffffff8111611f3157611e298254612c62565b601f8111611f01575b506020601f8211600114611e96579080611e6a9286976001600160a01b0397926108005750506000198260011b9260031b1c19161790565b90555b16337f99aea1f1550ab3e43762b27dd94cb3caed3328e1fc7b39d72906f9802a8c8db48380a380f35b82855280852095601f198316865b818110611ee95750916001600160a01b03969791846001959410611ed0575b505050811b019055611e6d565b015160001960f88460031b161c19169055388080611ec3565b83830151895560019098019760209384019301611ea4565b611f2b9083865260208620601f840160051c810191602085106108a957601f0160051c0190612f0c565b38611e32565b602484634e487b7160e01b81526041600452fd5b8387528187209190601f198416885b818110611f93575091600193918560039897969410611f7b575b505050811b019055611e0d565b015160001960f884891b161c19169055388080611f6e565b92936020600181928786015181550195019301611f54565b611fd59084885260208820601f850160051c810191602086106108a957601f0160051c0190612f0c565b38611dd6565b503461018c578060031936011261018c57600954611ff881612ebd565b9082600954905b82811061201457604051806102ca8682612ab2565b8181101561211d577f6e1540171b6c0c960b71a7020d9f60077f6af931a8bbf590da0223dacf75c7af810154600386901b1c6001600160a01b03168552600b602052604080862090516001929160099061206d836129d3565b6001600160a01b0381541683526001600160a01b038582015416602084015261209860028201612c9c565b60408401526120a960038201612c9c565b606084015260ff60048201546001600160a01b038116608086015260a01c16151560a0840152600581015460c0840152600681015460e084015260078101546101008401526008810154610120840152015461014082015261210b8287612e5e565b526121168186612e5e565b5001611fff565b602485634e487b7160e01b81526032600452fd5b503461018c578060031936011261018c5760206001600160a01b0360025416604051908152f35b50608060031936011261018c5761216d61286e565b90612176612889565b9160443567ffffffffffffffff8111610b985736602382011215610b985780600401356121a281612a9a565b916121b06040519384612a06565b818352602083019160051b8101602401823682116111425760248301905b8282106124fa57505050506064359067ffffffffffffffff8211610ad75736602383011215610ad75781600401359061220682612a9a565b926122146040519485612a06565b82845260208401906024829460051b820101903682116124f65760248101925b8284106124b1575050505060027f9b779b17422d0df92223018b32b4d1fa46e071723d6817e2486d003becc55f0054146124895760027f9b779b17422d0df92223018b32b4d1fa46e071723d6817e2486d003becc55f00558351835103612445576001600160a01b03871686526003602052604086206001600160a01b03861687526020526001600160a01b03604087205416926122d3841515612e72565b833b156111425793918693916040519586947f2d9cd09a00000000000000000000000000000000000000000000000000000000865260448601906040600488015251809152606486019060648160051b880101939188905b8282106123f2575050505060031985830301602486015251808252602082019160208260051b820101939287915b8383106123bf575050505050828091039134905af18015610adb576123ab575b506123849192613027565b60017f9b779b17422d0df92223018b32b4d1fa46e071723d6817e2486d003becc55f005580f35b916123b98161238494612a06565b91612379565b92959750929550926020806123e083601f19866001960301875289516128c2565b9701930193018795938a979592612359565b929698509294966020612431867fffffffffffffffffffffffffffffffffffffffffffffffffffffffffffffff9c8394600196990301865289516128c2565b970192019201928a9795938997959361232b565b606460405162461bcd60e51b815260206004820152601860248201527f4172726179206c656e67746873206d757374206d6174636800000000000000006044820152fd5b6004867f3ee5aeb5000000000000000000000000000000000000000000000000000000008152fd5b833567ffffffffffffffff81116124f2578201366043820112156124f2576020916124e783923690604460248201359101612a45565b815201930192612234565b8a80fd5b8880fd5b813567ffffffffffffffff81116124f65760209161251f839260243691890101612a7c565b8152019101906121ce565b503461018c57602060031936011261018c576001600160a01b0361254c61286e565b16808252600d60205260408220916040518084602082965493848152019084526020842092845b81811061261957505061258892500384612a06565b825192601f196125b061259a86612a9a565b956125a86040519788612a06565b808752612a9a565b01366020860137815b815181101561260b576001908484526003602052604084206001600160a01b03806125e48487612e5e565b51161685526020526001600160a01b036040852054166126048288612e5e565b52016125b9565b604051806102ca8782612990565b84546001600160a01b0316835260019485019488945060209093019201612573565b503461018c57602060031936011261018c57602061265f61265a61286e565b612e10565b6040519015158152f35b503461018c57602060031936011261018c576004359067ffffffffffffffff821161018c5760206001600160a01b036126bc826126a93660048801612a7c565b816040519382858094519384920161289f565b8101600e8152030190205416604051908152f35b503461018c578060031936011261018c5760206001600160a01b0360015416604051908152f35b503461018c57602060031936011261018c576102ca61037161271761286e565b612d5e565b503461018c578060031936011261018c576001600160a01b036020915416604051908152f35b503461018c57606060031936011261018c576102ca9061276061286e565b6001600160a01b03612770612889565b91612779612b9e565b5016825260036020526001600160a01b03604083209116825260205260406001600160a01b0381832054166127af811515612bf1565b6127bb60443582613514565b9491929590938152600b60205220936009604051956127d9876129d3565b6001600160a01b0381541687526001600160a01b03600182015416602088015261280560028201612c9c565b604088015261281660038201612c9c565b606088015260ff60048201546001600160a01b03811660808a015260a01c16151560a0880152015461014086015260c085015260e08401526101008301526101208201526040519182916020835260208301906128e7565b600435906001600160a01b038216820361288457565b600080fd5b602435906001600160a01b038216820361288457565b60005b8381106128b25750506000910152565b81810151838201526020016128a2565b90601f19601f6020936128e08151809281875287808801910161289f565b0116010190565b906001600160a01b0382511681526001600160a01b0360208301511660208201526101408061293c61292a604086015161016060408701526101608601906128c2565b606086015185820360608701526128c2565b936001600160a01b03608082015116608085015260a0810151151560a085015260c081015160c085015260e081015160e0850152610100810151610100850152610120810151610120850152015191015290565b602060408183019282815284518094520192019060005b8181106129b45750505090565b82516001600160a01b03168452602093840193909201916001016129a7565b610160810190811067ffffffffffffffff8211176129f057604052565b634e487b7160e01b600052604160045260246000fd5b90601f601f19910116810190811067ffffffffffffffff8211176129f057604052565b67ffffffffffffffff81116129f057601f01601f191660200190565b929192612a5182612a29565b91612a5f6040519384612a06565b829481845281830111612884578281602093846000960137010152565b9080601f8301121561288457816020612a9793359101612a45565b90565b67ffffffffffffffff81116129f05760051b60200190565b602081016020825282518091526040820191602060408360051b8301019401926000915b838310612ae557505050505090565b9091929394602080612b21837fffffffffffffffffffffffffffffffffffffffffffffffffffffffffffffffc0866001960301875289516128e7565b97019301930191939290612ad6565b9080601f8301121561288457813590612b4882612a9a565b92612b566040519485612a06565b82845260208085019360051b82010191821161288457602001915b818310612b7e5750505090565b82356001600160a01b038116810361288457815260209283019201612b71565b60405190612bab826129d3565b600061014083828152826020820152606060408201526060808201528260808201528260a08201528260c08201528260e082015282610100820152826101208201520152565b15612bf857565b608460405162461bcd60e51b815260206004820152602b60248201527f4e6f20636f6e747261637420666f756e6420666f72207468697320747261646560448201527f7220616e6420746f6b656e0000000000000000000000000000000000000000006064820152fd5b90600182811c92168015612c92575b6020831014612c7c57565b634e487b7160e01b600052602260045260246000fd5b91607f1691612c71565b9060405191826000825492612cb084612c62565b8084529360018116908115612d1e5750600114612cd7575b50612cd592500383612a06565b565b90506000929192526020600020906000915b818310612d02575050906020612cd59282010138612cc8565b6020919350806001915483858901015201910190918492612ce9565b60209350612cd59592507fffffffffffffffffffffffffffffffffffffffffffffffffffffffffffffff0091501682840152151560051b82010138612cc8565b6001600160a01b0316600052600d60205260406000206040518082602082945493848152019060005260206000209260005b818110612da5575050612a9792500382612a06565b84546001600160a01b0316835260019485019486945060209093019201612d90565b600454811015612de257600460005260206000200190600090565b634e487b7160e01b600052603260045260246000fd5b8054821015612de25760005260206000200190600090565b6004549060005b828110612e2657505050600090565b6001600160a01b03612e3782612dc7565b90549060031b1c166001600160a01b03831614612e5657600101612e17565b505050600190565b8051821015612de25760209160051b010190565b15612e7957565b606460405162461bcd60e51b815260206004820152601760248201527f436f6e747261637420646f6573206e6f742065786973740000000000000000006044820152fd5b90612ec782612a9a565b612ed46040519182612a06565b828152601f19612ee48294612a9a565b019060005b828110612ef557505050565b602090612f00612b9e565b82828501015201612ee9565b818110612f17575050565b60008155600101612f0c565b6000198114612f325760010190565b634e487b7160e01b600052601160045260246000fd5b612f528154612c62565b9081612f5c575050565b81601f60009311600114612f6e575055565b81835260208320612f8a91601f0160051c810190600101612f0c565b8082528160208120915555565b6009600091828155826001820155612fb160028201612f48565b612fbd60038201612f48565b8260048201558260058201558260068201558260078201558260088201550155565b8054801561301157600019019061300e612ff98383612df8565b6001600160a01b0382549160031b1b19169055565b55565b634e487b7160e01b600052603160045260246000fd5b6001600160a01b031680600052600360205260406000206001600160a01b0383166000526020526001600160a01b036040600020541690613069821515612e72565b8133148015613337575b801561332e575b156132ea5780600052600360205260406000206001600160a01b03841660005260205260406000206001600160a01b0319815416905581600052600b6020526130c66040600020612f97565b60005b81600052600d6020526040600020548110156132e25781600052600d6020526001600160a01b036130fe826040600020612df8565b90549060031b1c166001600160a01b0385161461311d576001016130c9565b6000828152600d6020526040902080549394929360001981019291908311612f32576001600160a01b0361315761317394610c9693612df8565b90549060031b1c169185600052600d6020526040600020612df8565b81600052600d6020526131896040600020612fdf565b81600052600d602052604060002054156131e9575b60206001600160a01b037fa9c4cf795890a049971a6e43cf862d315ec5c7b8c4bfaf94616f1499231ba874926131d386613802565b506131dd86613731565b506040519586521693a3565b919060005b600454808210156132ad57826001600160a01b0361320b84612dc7565b90549060031b1c161461322157506001016131ee565b90600019829593949501918211612f3257610c966001600160a01b0361324961325794612dc7565b90549060031b1c1691612dc7565b600454908115613011576001600160a01b036020916000197fa9c4cf795890a049971a6e43cf862d315ec5c7b8c4bfaf94616f1499231ba87494016132a0612ff9826004612df8565b6004555b9250505061319e565b5050909160206001600160a01b037fa9c4cf795890a049971a6e43cf862d315ec5c7b8c4bfaf94616f1499231ba874926132a4565b509091613189565b606460405162461bcd60e51b815260206004820152600c60248201527f556e617574686f72697a656400000000000000000000000000000000000000006044820152fd5b5030331461307a565b506001600160a01b037f9016d09d72d40fdae2fd8ceac6b6234c7706214fd39c1cd1e609a0528c19930054163314613073565b90815491680100000000000000008310156129f05782610c96916001612cd595018155612df8565b1561339957565b606460405162461bcd60e51b815260206004820152601b60248201527f63616c6c6572206e6f7420636f6e7472616374206164647265737300000000006044820152fd5b81601f820112156128845780516133f381612a29565b926134016040519485612a06565b8184526020828401011161288457612a97916020808501910161289f565b51906001600160a01b038216820361288457565b6001600160a01b031680156134c3576001600160a01b037f9016d09d72d40fdae2fd8ceac6b6234c7706214fd39c1cd1e609a0528c19930054826001600160a01b03198216177f9016d09d72d40fdae2fd8ceac6b6234c7706214fd39c1cd1e609a0528c19930055167f8be0079c531659141344cd1fd0a4f28419497f9722a3daafe3b4186f6b6457e0600080a3565b7f1e4fbdf700000000000000000000000000000000000000000000000000000000600052600060045260246000fd5b9190826080910312612884578151916020810151916060604083015192015190565b6001600160a01b0316916040517fc89db572000000000000000000000000000000000000000000000000000000008152602081600481875afa9081156136545760009161369e575b50801561369057600019810192818411612f325780821115613686578103908111612f32576000198101908111612f3257925b604051927fbacea2d20000000000000000000000000000000000000000000000000000000084526004840152608083602481845afa801561365457600093600091613660575b5060809093946024604051809481937fbacea2d200000000000000000000000000000000000000000000000000000000835260048301525afa80156136545760009160009161362357509091565b9050613647915060803d60801161364d575b61363f8183612a06565b8101906134f2565b50915091565b503d613635565b6040513d6000823e3d90fd5b608080955061367b92503d861161364d5761363f8183612a06565b5094915093906135d5565b505060009261358f565b506000925082915081908190565b906020823d6020116136c8575b816136b860209383612a06565b8101031261018c5750513861355c565b3d91506136ab565b6001600160a01b037f9016d09d72d40fdae2fd8ceac6b6234c7706214fd39c1cd1e609a0528c1993005416330361370357565b7f118cdaa7000000000000000000000000000000000000000000000000000000006000523360045260246000fd5b6000818152600a602052604090205480156137fb576000198101818111612f3257600954906000198201918211612f32578181036137aa575b50505060095480156130115760001901613785816009612df8565b60001982549160031b1b19169055600955600052600a60205260006040812055600190565b6137e36137bb6137cc936009612df8565b90549060031b1c9283926009612df8565b81939154906000199060031b92831b921b19161790565b9055600052600a60205260406000205538808061376a565b5050600090565b60008181526008602052604090205480156137fb576000198101818111612f3257600754906000198201918211612f325781810361387b575b50505060075480156130115760001901613856816007612df8565b60001982549160031b1b19169055600755600052600860205260006040812055600190565b61389d61388c6137cc936007612df8565b90549060031b1c9283926007612df8565b9055600052600860205260406000205538808061383b565b8060005260086020526040600020541560001461390f57600754680100000000000000008110156129f0576138f66137cc8260018594016007556007612df8565b9055600754906000526008602052604060002055600190565b50600090565b80600052600a6020526040600020541560001461390f57600954680100000000000000008110156129f0576139566137cc8260018594016009556009612df8565b905560095490600052600a602052604060002055600190565b60ff7ff0c57e16840df040f15088dc2f81fe391c3923bec73e23a9662efc9c229c6a005460401c161561399e57565b7fd7e6bcf80000000000000000000000000000000000000000000000000000000060005260046000fdfe60a0604052610da08038038061001481610293565b928339810160608282031261028e5761002c826102b8565b610038602084016102b8565b604084015190936001600160401b03821161028e570182601f8201121561028e5780519061006d610068836102cc565b610293565b938285526020838301011161028e5760005b828110610279575050602060009184010152803b15610258577f360894a13ba1a3210667c828492db98dca3e2076cc3735a920a3ca505d382bbc80546001600160a01b0319166001600160a01b0383169081179091557fbc7cd75a20ee27fd9adebab32041f755214dbc6bffa90cc0225b39da2e5c2d3b600080a281511561023f5760008083602061013595519101845af43d15610237573d91610125610068846102cc565b9283523d6000602085013e6102e7565b505b604051906105ac8083016001600160401b038111848210176102215760209284926107d484396001600160a01b031681520301906000f080156102155760018060a01b031680608052600080516020610d80833981519152547f7e644d79422f17c01e4894b5f4f588d331ebfa28653d42ae832dc59e38c9798f6040805160018060a01b0384168152846020820152a181156101ff576001600160a01b03191617600080516020610d808339815191525560405161048b908161034982396080518160070152f35b633173bdd160e11b600052600060045260246000fd5b6040513d6000823e3d90fd5b634e487b7160e01b600052604160045260246000fd5b6060916102e7565b505034156101375763b398979f60e01b60005260046000fd5b634c9c8ce360e01b60009081526001600160a01b0391909116600452602490fd5b8060208092840101518282880101520161007f565b600080fd5b6040519190601f01601f191682016001600160401b0381118382101761022157604052565b51906001600160a01b038216820361028e57565b6001600160401b03811161022157601f01601f191660200190565b9061030d57508051156102fc57602081519101fd5b63d6bda27560e01b60005260046000fd5b8151158061033f575b61031e575090565b639996b31560e01b60009081526001600160a01b0391909116600452602490fd5b50803b1561031656fe6080604052337f000000000000000000000000000000000000000000000000000000000000000073ffffffffffffffffffffffffffffffffffffffff16036100c0576000357fffffffff00000000000000000000000000000000000000000000000000000000167f4f1ef28600000000000000000000000000000000000000000000000000000000146100b6577fd2b576ec0000000000000000000000000000000000000000000000000000000060005260046000fd5b6100be61018e565b005b60008073ffffffffffffffffffffffffffffffffffffffff7f360894a13ba1a3210667c828492db98dca3e2076cc3735a920a3ca505d382bbc5416368280378136915af43d6000803e15610113573d6000f35b3d6000fd5b7f4e487b7100000000000000000000000000000000000000000000000000000000600052604160045260246000fd5b90601f19601f604051930116820182811067ffffffffffffffff82111761016d57604052565b610118565b67ffffffffffffffff811161016d57601f01601f191660200190565b366004116102425760407ffffffffffffffffffffffffffffffffffffffffffffffffffffffffffffffffc3601126102425760043573ffffffffffffffffffffffffffffffffffffffff8116809103610242576024359067ffffffffffffffff821161024257366023830112156102425781600401359061021661021183610172565b610147565b91808352366024828601011161024257602081600092602461024097018387013784010152610247565b565b600080fd5b90813b156103395773ffffffffffffffffffffffffffffffffffffffff8216807fffffffffffffffffffffffff00000000000000000000000000000000000000007f360894a13ba1a3210667c828492db98dca3e2076cc3735a920a3ca505d382bbc5416177f360894a13ba1a3210667c828492db98dca3e2076cc3735a920a3ca505d382bbc557fbc7cd75a20ee27fd9adebab32041f755214dbc6bffa90cc0225b39da2e5c2d3b600080a2805115610306576103039161037d565b50565b50503461030f57565b7fb398979f0000000000000000000000000000000000000000000000000000000060005260046000fd5b73ffffffffffffffffffffffffffffffffffffffff827f4c9c8ce3000000000000000000000000000000000000000000000000000000006000521660045260246000fd5b6000806103b193602081519101845af43d156103b4573d916103a161021184610172565b9283523d6000602085013e6103b8565b90565b6060915b906103f757508051156103cd57602081519101fd5b7fd6bda2750000000000000000000000000000000000000000000000000000000060005260046000fd5b8151158061044c575b610408575090565b73ffffffffffffffffffffffffffffffffffffffff907f9996b315000000000000000000000000000000000000000000000000000000006000521660045260246000fd5b50803b1561040056fea26469706673582212207eb2e5e8909617ac14be56da5fb74304c296d95274d3a9ad9b11a3595d9f79b264736f6c634300081c003360803460bc57601f6105ac38819003918201601f19168301916001600160401b0383118484101760c15780849260209460405283398101031260bc57516001600160a01b0381169081900360bc57801560a657600080546001600160a01b031981168317825560405192916001600160a01b03909116907f8be0079c531659141344cd1fd0a4f28419497f9722a3daafe3b4186f6b6457e09080a36104d490816100d88239f35b631e4fbdf760e01b600052600060045260246000fd5b600080fd5b634e487b7160e01b600052604160045260246000fdfe6080604052600436101561001257600080fd5b6000803560e01c8063715018a61461033e5780638da5cb5b1461030b5780639623609d14610190578063ad3cb1cc1461012b5763f2fde38b1461005457600080fd5b346101285760206003193601126101285760043573ffffffffffffffffffffffffffffffffffffffff81168091036101265761008e61044f565b80156100fa5773ffffffffffffffffffffffffffffffffffffffff8254827fffffffffffffffffffffffff00000000000000000000000000000000000000008216178455167f8be0079c531659141344cd1fd0a4f28419497f9722a3daafe3b4186f6b6457e08380a380f35b6024827f1e4fbdf700000000000000000000000000000000000000000000000000000000815280600452fd5b505b80fd5b50346101285780600319360112610128575061018c60405161014e6040826103bc565b600581527f352e302e30000000000000000000000000000000000000000000000000000000602082015260405191829160208352602083019061040e565b0390f35b5060606003193601126101285760043573ffffffffffffffffffffffffffffffffffffffff81168091036101265760243573ffffffffffffffffffffffffffffffffffffffff81168091036102d25760443567ffffffffffffffff8111610307573660238201121561030757806004013567ffffffffffffffff81116102da5790816020601f19601f8896950116019161022d60405193846103bc565b81835236602483830101116102d657818592602460209301838601378301015261025561044f565b833b156102d2576102a49383926040518096819482937f4f1ef286000000000000000000000000000000000000000000000000000000008452600484015260406024840152604483019061040e565b039134905af180156102c5576102b75780f35b6102c0916103bc565b388180f35b50604051903d90823e3d90fd5b8280fd5b8480fd5b6024857f4e487b710000000000000000000000000000000000000000000000000000000081526041600452fd5b8380fd5b503461012857806003193601126101285773ffffffffffffffffffffffffffffffffffffffff6020915416604051908152f35b503461012857806003193601126101285761035761044f565b8073ffffffffffffffffffffffffffffffffffffffff81547fffffffffffffffffffffffff000000000000000000000000000000000000000081168355167f8be0079c531659141344cd1fd0a4f28419497f9722a3daafe3b4186f6b6457e08280a380f35b90601f601f19910116810190811067ffffffffffffffff8211176103df57604052565b7f4e487b7100000000000000000000000000000000000000000000000000000000600052604160045260246000fd5b919082519283825260005b84811061043a575050601f19601f8460006020809697860101520116010190565b80602080928401015182828601015201610419565b73ffffffffffffffffffffffffffffffffffffffff60005416330361047057565b7f118cdaa7000000000000000000000000000000000000000000000000000000006000523360045260246000fdfea2646970667358221220ea2109e56fc1c6f3c1c3756977591938a67f11d8d269ff70844bd5fabc0529f764736f6c634300081c0033b53127684a568b3173ae13b9f8a6016e243e63b6e8ee1178d6a717850b5d6103a26469706673582212203d454ba42c9ff37525f48e0be588a156e88c6a0b9df419c9ad4f3f6bb22702d864736f6c634300081c0033",
  "linkReferences": {},
  "deployedLinkReferences": {}
}