{
  "_format": "hh-sol-artifact-1",
  "contractName": "LeadingContract",
  "sourceName": "contracts/LeadingContract.sol",
  "abi": [
    {
      "inputs": [],
      "name": "InvalidInitialization",
      "type": "error"
    },
    {
      "inputs": [],
      "name": "NotInitializing",
      "type": "error"
    },
    {
      "inputs": [
        {
          "internalType": "address",
          "name": "owner",
          "type": "address"
        }
      ],
      "name": "OwnableInvalidOwner",
      "type": "error"
    },
    {
      "inputs": [
        {
          "internalType": "address",
          "name": "account",
          "type": "address"
        }
      ],
      "name": "OwnableUnauthorizedAccount",
      "type": "error"
    },
    {
      "inputs": [],
      "name": "ReentrancyGuardReentrantCall",
      "type": "error"
    },
    {
      "anonymous": false,
      "inputs": [
        {
          "indexed": false,
          "internalType": "string",
          "name": "symbol",
          "type": "string"
        },
        {
          "indexed": false,
          "internalType": "uint256",
          "name": "amount",
          "type": "uint256"
        },
        {
          "indexed": false,
          "internalType": "uint256",
          "name": "price",
          "type": "uint256"
        },
        {
          "indexed": false,
          "internalType": "enum Direct",
          "name": "direct",
          "type": "uint8"
        },
        {
          "indexed": false,
          "internalType": "uint256",
          "name": "profit",
          "type": "uint256"
        }
      ],
      "name": "ClosePosition",
      "type": "event"
    },
    {
      "anonymous": false,
      "inputs": [
        {
          "indexed": false,
          "internalType": "uint256",
          "name": "OrderId",
          "type": "uint256"
        }
      ],
      "name": "ClosedAllOrder",
      "type": "event"
    },
    {
      "anonymous": false,
      "inputs": [
        {
          "indexed": false,
          "internalType": "address",
          "name": "trader",
          "type": "address"
        },
        {
          "indexed": false,
          "internalType": "address",
          "name": "token",
          "type": "address"
        },
        {
          "indexed": false,
          "internalType": "uint256",
          "name": "amount",
          "type": "uint256"
        }
      ],
      "name": "CommissionPaid",
      "type": "event"
    },
    {
      "anonymous": false,
      "inputs": [
        {
          "indexed": false,
          "internalType": "address",
          "name": "follower",
          "type": "address"
        },
        {
          "indexed": false,
          "internalType": "uint256",
          "name": "firstFollowTime",
          "type": "uint256"
        }
      ],
      "name": "FollowerAdded",
      "type": "event"
    },
    {
      "anonymous": false,
      "inputs": [
        {
          "indexed": false,
          "internalType": "address",
          "name": "follower",
          "type": "address"
        },
        {
          "indexed": false,
          "internalType": "uint256",
          "name": "removedFollowTime",
          "type": "uint256"
        }
      ],
      "name": "FollowerRemoved",
      "type": "event"
    },
    {
      "anonymous": false,
      "inputs": [
        {
          "indexed": false,
          "internalType": "uint64",
          "name": "version",
          "type": "uint64"
        }
      ],
      "name": "Initialized",
      "type": "event"
    },
    {
      "anonymous": false,
      "inputs": [
        {
          "indexed": true,
          "internalType": "address",
          "name": "previousOwner",
          "type": "address"
        },
        {
          "indexed": true,
          "internalType": "address",
          "name": "newOwner",
          "type": "address"
        }
      ],
      "name": "OwnershipTransferred",
      "type": "event"
    },
    {
      "anonymous": false,
      "inputs": [
        {
          "indexed": false,
          "internalType": "address",
          "name": "trader",
          "type": "address"
        },
        {
          "indexed": false,
          "internalType": "uint256",
          "name": "paidDistribute",
          "type": "uint256"
        },
        {
          "indexed": false,
          "internalType": "uint256",
          "name": "unpaidDistribute",
          "type": "uint256"
        }
      ],
      "name": "ProfitsDistributed",
      "type": "event"
    },
    {
      "anonymous": false,
      "inputs": [
        {
          "indexed": false,
          "internalType": "address",
          "name": "token",
          "type": "address"
        },
        {
          "indexed": false,
          "internalType": "uint256",
          "name": "orderId",
          "type": "uint256"
        },
        {
          "indexed": false,
          "internalType": "uint256",
          "name": "amount",
          "type": "uint256"
        },
        {
          "indexed": false,
          "internalType": "enum Direct",
          "name": "isBuy",
          "type": "uint8"
        },
        {
          "indexed": false,
          "internalType": "address",
          "name": "user",
          "type": "address"
        }
      ],
      "name": "Traded",
      "type": "event"
    },
    {
      "anonymous": false,
      "inputs": [
        {
          "indexed": false,
          "internalType": "address",
          "name": "user",
          "type": "address"
        },
        {
          "indexed": false,
          "internalType": "address",
          "name": "token",
          "type": "address"
        },
        {
          "indexed": false,
          "internalType": "uint256",
          "name": "amount",
          "type": "uint256"
        },
        {
          "indexed": false,
          "internalType": "address",
          "name": "trader",
          "type": "address"
        },
        {
          "indexed": false,
          "internalType": "bool",
          "name": "isDeposit",
          "type": "bool"
        }
      ],
      "name": "TransformToken",
      "type": "event"
    },
    {
      "stateMutability": "payable",
      "type": "fallback"
    },
    {
      "inputs": [],
      "name": "Audit_Withdraw_Period",
      "outputs": [
        {
          "internalType": "uint256",
          "name": "",
          "type": "uint256"
        }
      ],
      "stateMutability": "view",
      "type": "function"
    },
    {
      "inputs": [],
      "name": "INACTIVE_PERIOD",
      "outputs": [
        {
          "internalType": "uint256",
          "name": "",
          "type": "uint256"
        }
      ],
      "stateMutability": "view",
      "type": "function"
    },
    {
      "inputs": [],
      "name": "LOW_NET_VALUE_THRESHOLD",
      "outputs": [
        {
          "internalType": "uint256",
          "name": "",
          "type": "uint256"
        }
      ],
      "stateMutability": "view",
      "type": "function"
    },
    {
      "inputs": [],
      "name": "accumulatedDepositAmount",
      "outputs": [
        {
          "internalType": "int256",
          "name": "",
          "type": "int256"
        }
      ],
      "stateMutability": "view",
      "type": "function"
    },
    {
      "inputs": [],
      "name": "accumulatedUnpaidProfit",
      "outputs": [
        {
          "internalType": "uint256",
          "name": "",
          "type": "uint256"
        }
      ],
      "stateMutability": "view",
      "type": "function"
    },
    {
      "inputs": [],
      "name": "accumulatedWithdrawAmount",
      "outputs": [
        {
          "internalType": "int256",
          "name": "",
          "type": "int256"
        }
      ],
      "stateMutability": "view",
      "type": "function"
    },
    {
      "inputs": [
        {
          "internalType": "uint256",
          "name": "",
          "type": "uint256"
        }
      ],
      "name": "allFollowers",
      "outputs": [
        {
          "internalType": "address",
          "name": "",
          "type": "address"
        }
      ],
      "stateMutability": "view",
      "type": "function"
    },
    {
      "inputs": [],
      "name": "allowedToken",
      "outputs": [
        {
          "internalType": "address",
          "name": "",
          "type": "address"
        }
      ],
      "stateMutability": "view",
      "type": "function"
    },
    {
      "inputs": [
        {
          "internalType": "string[]",
          "name": "_symbols",
          "type": "string[]"
        },
        {
          "internalType": "bytes[]",
          "name": "_priceUpdates",
          "type": "bytes[]"
        }
      ],
      "name": "autoDeleteContract",
      "outputs": [],
      "stateMutability": "payable",
      "type": "function"
    },
    {
      "inputs": [],
      "name": "cancelAllOrders",
      "outputs": [],
      "stateMutability": "nonpayable",
      "type": "function"
    },
    {
      "inputs": [
        {
          "internalType": "uint256[]",
          "name": "_ids",
          "type": "uint256[]"
        }
      ],
      "name": "cancelOrders",
      "outputs": [],
      "stateMutability": "nonpayable",
      "type": "function"
    },
    {
      "inputs": [
        {
          "internalType": "string[]",
          "name": "_symbols",
          "type": "string[]"
        },
        {
          "internalType": "bytes[]",
          "name": "_priceUpdates",
          "type": "bytes[]"
        }
      ],
      "name": "closeAllOrders",
      "outputs": [],
      "stateMutability": "payable",
      "type": "function"
    },
    {
      "inputs": [
        {
          "internalType": "string",
          "name": "_name",
          "type": "string"
        },
        {
          "internalType": "uint256",
          "name": "_amount",
          "type": "uint256"
        },
        {
          "internalType": "uint256",
          "name": "_orderType",
          "type": "uint256"
        },
        {
          "internalType": "uint256",
          "name": "_price",
          "type": "uint256"
        },
        {
          "internalType": "enum Direct",
          "name": "_type",
          "type": "uint8"
        },
        {
          "internalType": "uint256",
          "name": "_goodTill",
          "type": "uint256"
        },
        {
          "internalType": "uint256",
          "name": "_deadline",
          "type": "uint256"
        },
        {
          "internalType": "bytes",
          "name": "_priceUpdate",
          "type": "bytes"
        }
      ],
      "name": "closePosition",
      "outputs": [],
      "stateMutability": "payable",
      "type": "function"
    },
    {
      "inputs": [
        {
          "internalType": "uint256",
          "name": "_amount",
          "type": "uint256"
        },
        {
          "internalType": "string[]",
          "name": "_symbols",
          "type": "string[]"
        },
        {
          "internalType": "bytes[]",
          "name": "_reportData",
          "type": "bytes[]"
        }
      ],
      "name": "deposit",
      "outputs": [],
      "stateMutability": "payable",
      "type": "function"
    },
    {
      "inputs": [
        {
          "internalType": "string[]",
          "name": "_symbols",
          "type": "string[]"
        },
        {
          "internalType": "bytes[]",
          "name": "_priceUpdates",
          "type": "bytes[]"
        }
      ],
      "name": "distributeProfits",
      "outputs": [],
      "stateMutability": "payable",
      "type": "function"
    },
    {
      "inputs": [],
      "name": "factory",
      "outputs": [
        {
          "internalType": "contract LeadingContractFactory",
          "name": "",
          "type": "address"
        }
      ],
      "stateMutability": "view",
      "type": "function"
    },
    {
      "inputs": [
        {
          "internalType": "address",
          "name": "",
          "type": "address"
        }
      ],
      "name": "followerIndex",
      "outputs": [
        {
          "internalType": "uint256",
          "name": "",
          "type": "uint256"
        }
      ],
      "stateMutability": "view",
      "type": "function"
    },
    {
      "inputs": [
        {
          "internalType": "uint256",
          "name": "",
          "type": "uint256"
        }
      ],
      "name": "followers",
      "outputs": [
        {
          "internalType": "address",
          "name": "userAddress",
          "type": "address"
        },
        {
          "internalType": "uint256",
          "name": "firstFollowTime",
          "type": "uint256"
        }
      ],
      "stateMutability": "view",
      "type": "function"
    },
    {
      "inputs": [],
      "name": "getAllFollowers",
      "outputs": [
        {
          "internalType": "address[]",
          "name": "",
          "type": "address[]"
        }
      ],
      "stateMutability": "view",
      "type": "function"
    },
    {
      "inputs": [
        {
          "internalType": "string[]",
          "name": "_symbols",
          "type": "string[]"
        },
        {
          "internalType": "uint256[]",
          "name": "_prices",
          "type": "uint256[]"
        }
      ],
      "name": "getAssetSummary",
      "outputs": [
        {
          "internalType": "uint256",
          "name": "assetAmount",
          "type": "uint256"
        },
        {
          "internalType": "uint256",
          "name": "netBalance",
          "type": "uint256"
        },
        {
          "internalType": "uint256",
          "name": "totalShares",
          "type": "uint256"
        },
        {
          "internalType": "uint256",
          "name": "netValue",
          "type": "uint256"
        }
      ],
      "stateMutability": "view",
      "type": "function"
    },
    {
      "inputs": [],
      "name": "getFollowerCount",
      "outputs": [
        {
          "internalType": "uint256",
          "name": "",
          "type": "uint256"
        }
      ],
      "stateMutability": "view",
      "type": "function"
    },
    {
      "inputs": [],
      "name": "getFollowers",
      "outputs": [
        {
          "internalType": "address[]",
          "name": "followerAddresses",
          "type": "address[]"
        }
      ],
      "stateMutability": "view",
      "type": "function"
    },
    {
      "inputs": [],
      "name": "getFollowersInfo",
      "outputs": [
        {
          "components": [
            {
              "internalType": "address",
              "name": "userAddress",
              "type": "address"
            },
            {
              "internalType": "uint256",
              "name": "firstFollowTime",
              "type": "uint256"
            }
          ],
          "internalType": "struct LeadingContract.Follower[]",
          "name": "",
          "type": "tuple[]"
        }
      ],
      "stateMutability": "view",
      "type": "function"
    },
    {
      "inputs": [],
      "name": "getLatestClosedProfit",
      "outputs": [
        {
          "internalType": "int256",
          "name": "profit",
          "type": "int256"
        }
      ],
      "stateMutability": "view",
      "type": "function"
    },
    {
      "inputs": [
        {
          "internalType": "uint256[]",
          "name": "indices",
          "type": "uint256[]"
        }
      ],
      "name": "getSupplyBalanceHistoryAtMultiple",
      "outputs": [
        {
          "internalType": "uint256[]",
          "name": "",
          "type": "uint256[]"
        },
        {
          "internalType": "uint256[]",
          "name": "",
          "type": "uint256[]"
        },
        {
          "internalType": "uint256[]",
          "name": "",
          "type": "uint256[]"
        }
      ],
      "stateMutability": "view",
      "type": "function"
    },
    {
      "inputs": [
        {
          "internalType": "uint256",
          "name": "index",
          "type": "uint256"
        }
      ],
      "name": "getSupplyBalanceHistoryItem",
      "outputs": [
        {
          "internalType": "int256",
          "name": "",
          "type": "int256"
        },
        {
          "internalType": "uint256",
          "name": "",
          "type": "uint256"
        },
        {
          "internalType": "uint256",
          "name": "",
          "type": "uint256"
        },
        {
          "internalType": "uint256",
          "name": "",
          "type": "uint256"
        }
      ],
      "stateMutability": "view",
      "type": "function"
    },
    {
      "inputs": [],
      "name": "getSupplyBalanceHistoryLength",
      "outputs": [
        {
          "internalType": "uint256",
          "name": "",
          "type": "uint256"
        }
      ],
      "stateMutability": "view",
      "type": "function"
    },
    {
      "inputs": [
        {
          "internalType": "string[]",
          "name": "_symbols",
          "type": "string[]"
        },
        {
          "internalType": "uint256[]",
          "name": "_prices",
          "type": "uint256[]"
        }
      ],
      "name": "getTotalBalance",
      "outputs": [
        {
          "internalType": "uint256",
          "name": "assetAmount",
          "type": "uint256"
        },
        {
          "internalType": "bool",
          "name": "gainLoss",
          "type": "bool"
        },
        {
          "internalType": "uint256",
          "name": "profit",
          "type": "uint256"
        }
      ],
      "stateMutability": "view",
      "type": "function"
    },
    {
      "inputs": [
        {
          "internalType": "address",
          "name": "user",
          "type": "address"
        }
      ],
      "name": "getUserShare",
      "outputs": [
        {
          "internalType": "uint256",
          "name": "_totalShares",
          "type": "uint256"
        },
        {
          "internalType": "uint256",
          "name": "_freezeShare",
          "type": "uint256"
        }
      ],
      "stateMutability": "view",
      "type": "function"
    },
    {
      "inputs": [
        {
          "internalType": "address",
          "name": "user",
          "type": "address"
        }
      ],
      "name": "getWithdrawItems",
      "outputs": [
        {
          "components": [
            {
              "internalType": "address",
              "name": "user",
              "type": "address"
            },
            {
              "internalType": "uint256",
              "name": "withdrawID",
              "type": "uint256"
            },
            {
              "internalType": "uint256",
              "name": "withdrawShare",
              "type": "uint256"
            },
            {
              "internalType": "uint256",
              "name": "withdrawTime",
              "type": "uint256"
            }
          ],
          "internalType": "struct LeadingContract.UserWithdrawShareItem[]",
          "name": "",
          "type": "tuple[]"
        }
      ],
      "stateMutability": "view",
      "type": "function"
    },
    {
      "inputs": [
        {
          "internalType": "uint256[]",
          "name": "items",
          "type": "uint256[]"
        },
        {
          "internalType": "bool",
          "name": "cancel",
          "type": "bool"
        },
        {
          "internalType": "string[]",
          "name": "_symbols",
          "type": "string[]"
        },
        {
          "internalType": "bytes[]",
          "name": "_reportData",
          "type": "bytes[]"
        }
      ],
      "name": "handleWithdrawItems",
      "outputs": [],
      "stateMutability": "payable",
      "type": "function"
    },
    {
      "inputs": [
        {
          "internalType": "uint256[]",
          "name": "items",
          "type": "uint256[]"
        },
        {
          "internalType": "string[]",
          "name": "_symbols",
          "type": "string[]"
        },
        {
          "internalType": "bytes[]",
          "name": "_reportData",
          "type": "bytes[]"
        }
      ],
      "name": "handleWithdrawItems4Risk",
      "outputs": [],
      "stateMutability": "payable",
      "type": "function"
    },
    {
      "inputs": [
        {
          "internalType": "address",
          "name": "",
          "type": "address"
        }
      ],
      "name": "hasFollowed",
      "outputs": [
        {
          "internalType": "bool",
          "name": "",
          "type": "bool"
        }
      ],
      "stateMutability": "view",
      "type": "function"
    },
    {
      "inputs": [
        {
          "internalType": "address",
          "name": "initialOwner",
          "type": "address"
        },
        {
          "internalType": "address",
          "name": "_trader",
          "type": "address"
        },
        {
          "internalType": "address payable",
          "name": "_factoryAddress",
          "type": "address"
        },
        {
          "internalType": "address",
          "name": "_perpetual",
          "type": "address"
        },
        {
          "internalType": "address",
          "name": "_tradeAgent",
          "type": "address"
        },
        {
          "internalType": "address",
          "name": "_orderBook",
          "type": "address"
        }
      ],
      "name": "initialize",
      "outputs": [],
      "stateMutability": "nonpayable",
      "type": "function"
    },
    {
      "inputs": [],
      "name": "isInactive",
      "outputs": [
        {
          "internalType": "bool",
          "name": "",
          "type": "bool"
        }
      ],
      "stateMutability": "view",
      "type": "function"
    },
    {
      "inputs": [],
      "name": "lastBalanceSnapTime",
      "outputs": [
        {
          "internalType": "uint256",
          "name": "",
          "type": "uint256"
        }
      ],
      "stateMutability": "view",
      "type": "function"
    },
    {
      "inputs": [],
      "name": "lastDistributionTime",
      "outputs": [
        {
          "internalType": "uint256",
          "name": "",
          "type": "uint256"
        }
      ],
      "stateMutability": "view",
      "type": "function"
    },
    {
      "inputs": [],
      "name": "lastSettleClosedBalance",
      "outputs": [
        {
          "internalType": "int256",
          "name": "",
          "type": "int256"
        }
      ],
      "stateMutability": "view",
      "type": "function"
    },
    {
      "inputs": [],
      "name": "lastTradeTime",
      "outputs": [
        {
          "internalType": "uint256",
          "name": "",
          "type": "uint256"
        }
      ],
      "stateMutability": "view",
      "type": "function"
    },
    {
      "inputs": [],
      "name": "orderBook",
      "outputs": [
        {
          "internalType": "contract IOrderBook",
          "name": "",
          "type": "address"
        }
      ],
      "stateMutability": "view",
      "type": "function"
    },
    {
      "inputs": [],
      "name": "owner",
      "outputs": [
        {
          "internalType": "address",
          "name": "",
          "type": "address"
        }
      ],
      "stateMutability": "view",
      "type": "function"
    },
    {
      "inputs": [],
      "name": "perpetual",
      "outputs": [
        {
          "internalType": "contract IPerpetuals",
          "name": "",
          "type": "address"
        }
      ],
      "stateMutability": "view",
      "type": "function"
    },
    {
      "inputs": [
        {
          "internalType": "string[]",
          "name": "symbols",
          "type": "string[]"
        },
        {
          "internalType": "bytes[]",
          "name": "reportData",
          "type": "bytes[]"
        }
      ],
      "name": "recordSupplyAndBalance",
      "outputs": [],
      "stateMutability": "payable",
      "type": "function"
    },
    {
      "inputs": [],
      "name": "renounceOwnership",
      "outputs": [],
      "stateMutability": "nonpayable",
      "type": "function"
    },
    {
      "inputs": [
        {
          "internalType": "address",
          "name": "_newTrader",
          "type": "address"
        }
      ],
      "name": "setTrader",
      "outputs": [],
      "stateMutability": "nonpayable",
      "type": "function"
    },
    {
      "inputs": [
        {
          "internalType": "uint256",
          "name": "",
          "type": "uint256"
        }
      ],
      "name": "supplyBalanceHistory",
      "outputs": [
        {
          "internalType": "int256",
          "name": "totalProfit",
          "type": "int256"
        },
        {
          "internalType": "uint256",
          "name": "totalSupply",
          "type": "uint256"
        },
        {
          "internalType": "uint256",
          "name": "totalBalance",
          "type": "uint256"
        },
        {
          "internalType": "uint256",
          "name": "timestamp",
          "type": "uint256"
        }
      ],
      "stateMutability": "view",
      "type": "function"
    },
    {
      "inputs": [],
      "name": "totalShare",
      "outputs": [
        {
          "internalType": "uint256",
          "name": "",
          "type": "uint256"
        }
      ],
      "stateMutability": "view",
      "type": "function"
    },
    {
      "inputs": [
        {
          "internalType": "string",
          "name": "_name",
          "type": "string"
        },
        {
          "internalType": "uint256",
          "name": "_amount",
          "type": "uint256"
        },
        {
          "internalType": "uint256",
          "name": "_price",
          "type": "uint256"
        },
        {
          "internalType": "uint256",
          "name": "_orderType",
          "type": "uint256"
        },
        {
          "internalType": "enum Direct",
          "name": "_type",
          "type": "uint8"
        },
        {
          "internalType": "uint256",
          "name": "_goodTill",
          "type": "uint256"
        },
        {
          "internalType": "uint256",
          "name": "_deadline",
          "type": "uint256"
        },
        {
          "internalType": "bytes",
          "name": "_priceUpdate",
          "type": "bytes"
        }
      ],
      "name": "trade",
      "outputs": [],
      "stateMutability": "payable",
      "type": "function"
    },
    {
      "inputs": [],
      "name": "tradeAgent",
      "outputs": [
        {
          "internalType": "contract ITradeAgent",
          "name": "",
          "type": "address"
        }
      ],
      "stateMutability": "view",
      "type": "function"
    },
    {
      "inputs": [],
      "name": "trader",
      "outputs": [
        {
          "internalType": "address",
          "name": "",
          "type": "address"
        }
      ],
      "stateMutability": "view",
      "type": "function"
    },
    {
      "inputs": [
        {
          "internalType": "string[]",
          "name": "_symbols",
          "type": "string[]"
        },
        {
          "internalType": "bytes[]",
          "name": "_priceUpdates",
          "type": "bytes[]"
        }
      ],
      "name": "traderDeleteContract",
      "outputs": [],
      "stateMutability": "payable",
      "type": "function"
    },
    {
      "inputs": [
        {
          "internalType": "address",
          "name": "newOwner",
          "type": "address"
        }
      ],
      "name": "transferOwnership",
      "outputs": [],
      "stateMutability": "nonpayable",
      "type": "function"
    },
    {
      "inputs": [
        {
          "internalType": "address",
          "name": "",
          "type": "address"
        }
      ],
      "name": "userShares",
      "outputs": [
        {
          "internalType": "uint256",
          "name": "",
          "type": "uint256"
        }
      ],
      "stateMutability": "view",
      "type": "function"
    },
    {
      "inputs": [
        {
          "internalType": "uint256",
          "name": "",
          "type": "uint256"
        }
      ],
      "name": "userWithdrawItems",
      "outputs": [
        {
          "internalType": "address",
          "name": "user",
          "type": "address"
        },
        {
          "internalType": "uint256",
          "name": "withdrawID",
          "type": "uint256"
        },
        {
          "internalType": "uint256",
          "name": "withdrawShare",
          "type": "uint256"
        },
        {
          "internalType": "uint256",
          "name": "withdrawTime",
          "type": "uint256"
        }
      ],
      "stateMutability": "view",
      "type": "function"
    },
    {
      "inputs": [
        {
          "internalType": "uint256",
          "name": "_share",
          "type": "uint256"
        }
      ],
      "name": "withdraw",
      "outputs": [],
      "stateMutability": "nonpayable",
      "type": "function"
    },
    {
      "stateMutability": "payable",
      "type": "receive"
    }
  ],
  "bytecode": "0x6080806040523460155761551b908161001b8239f35b600080fdfe61020080604052600436101561001157005b600060a05260a0513560e01c908163026c4207146131e457508063028afabf1461303c578063030fc7dd146130185780630d79f56114612f955780630fa4710914612e0d578063170794a814612cb55780631758078b14612c8d57806319e67d7514612c645780631abc901f14612c18578063227ddb4e146126005780632449e973146125075780632e1a7d4d1461233d57806333eeae3d146122dc5780633f70498b146122ae578063490ae1cd1461213e5780634d7ddfec1461211f57806351c21fee1461209857806356601435146120705780635e829a021461204a57806366776f6214611fbd57806368306b7614611f9e5780636b66350b14611f5d578063715018a614611eb957806375b1735014611e9a578063776af5ba14611e725780637829ae4a14611e535780637fcd8c4714611c5157806385fa292f14611c2957806387ec936d14611c0f5780638da5cb5b14611bc857806390536e43146111e95780639f43ae3c146111ca578063a6bc18f9146110c9578063a70c7ed414610fd0578063aa66ea6714610f72578063b2b7d9ac14610f53578063b55fb57414610e4d578063bacea2d214610df9578063bbbaee4c14610d49578063c365e42114610cb6578063c45a015514610c8e578063c89db57214610c6f578063c99e740714610c52578063cc2a9a5b1461087d578063cce13b8e1461085e578063d1ab4aaa146105a8578063d4baf48814610589578063d5eee8b61461056a578063de69b3aa1461052e578063e5978686146103c7578063e5b1da631461038b578063f1268ef414610312578063f262ff7e146102f3578063f2fde38b146102c45763f8ef9a981461027d57005b346102be5760206003193601126102be576001600160a01b0361029e6133f9565b1660a051526011602052602060ff604060a0512054166040519015158152f35b60a05180fd5b346102be5760206003193601126102be576102ed6102e06133f9565b6102e8614e83565b6144c7565b60a05180f35b346102be5760a0516003193601126102be576020600454604051908152f35b61031b366135ce565b6103316001600160a01b0360035416331461365e565b610339613bf0565b15610347576102ed916148fa565b606460405162461bcd60e51b815260206004820152601860248201527f436f6e7472616374206973206e6f7420696e61637469766500000000000000006044820152fd5b346102be5760206003193601126102be576001600160a01b036103ac6133f9565b1660a0515260176020526020604060a0512054604051908152f35b6101006003193601126102be5760043567ffffffffffffffff81116102be576103f4903690600401613304565b6084359060038210156102be5760e43567ffffffffffffffff81116102be57610421903690600401613304565b9061042a614586565b6104406001600160a01b03600d54163314613b70565b6001600160a01b0360a0515416803b156102be576104856104a8926104cd604051968795869485946372cbc34360e11b8652610100600487015261010486019061395f565b9160243560248601526044356044860152606435606486015260848501906140f3565b60a43560a484015260c43560c48401526003198382030160e484015260a0519661395f565b039134905af1801561052157610508575b60017f9b779b17422d0df92223018b32b4d1fa46e071723d6817e2486d003becc55f005560a05180f35b60a051610514916132ad565b60a0516102be57806104de565b6040513d60a051823e3d90fd5b346102be5760206003193601126102be576001600160a01b0361054f6133f9565b1660a05152600f6020526020604060a0512054604051908152f35b346102be5760a0516003193601126102be576020600554604051908152f35b346102be5760a0516003193601126102be576020600a54604051908152f35b6101006003193601126102be5760043567ffffffffffffffff81116102be576105d5903690600401613304565b6024356084359160038310156102be5760e4359067ffffffffffffffff82116102be57366023830112156102be5781600401359067ffffffffffffffff82116102be5736602483850101116102be5761062c614586565b6001600160a01b03600d5416610643813314613b70565b6001600160a01b0360a051541690813b156102be5760208793878660246106c7996106a8966040519b8c9a8b998a987fc8f5ede2000000000000000000000000000000000000000000000000000000008a5261012060048b01526101248a019061395f565b96858901526044356044890152606435606489015260848801906140f3565b60a486015260a43560c486015260c43560e486015260031985850301610104860152828452018483013760a051838883010152601f19601f60a0519801160103019134905af1801561052157610845575b50426005556001600160a01b03600e5416600460206001600160a01b0360015416604051928380927fc3710f250000000000000000000000000000000000000000000000000000000082525afa9081156105215760a0519161080e575b5060001981019081116107f6577fdbbd5ef86e8d481cd0d16075f381b0127c9d9fcd035a76a516d4efa8f8bbfc369360a0936107c5926040519485526020850152604084015260608301906140f3565b336080820152a160017f9b779b17422d0df92223018b32b4d1fa46e071723d6817e2486d003becc55f005560a05180f35b634e487b7160e01b60a051526011600452602460a051fd5b90506020813d60201161083d575b81610829602093836132ad565b81010312610838575184610775565b600080fd5b3d915061081c565b60a051610851916132ad565b60a0516102be5782610718565b346102be5760a0516003193601126102be576020600954604051908152f35b346102be5760c06003193601126102be576108966133f9565b6024356001600160a01b038116908190036102be57604435906001600160a01b0382168092036102be576064356001600160a01b03811693908490036102be576084356001600160a01b03811691908290036102be5760a4356001600160a01b03811691908290036102be577ff0c57e16840df040f15088dc2f81fe391c3923bec73e23a9662efc9c229c6a00549060ff8260401c16159667ffffffffffffffff831680159081610c4a575b6001149081610c40575b159081610c37575b50610c0b57610a06602092848a60017fffffffffffffffffffffffffffffffffffffffffffffffff000000000000000060049816177ff0c57e16840df040f15088dc2f81fe391c3923bec73e23a9662efc9c229c6a0055610bb6575b506109b961548c565b6109c161548c565b6109ca336144c7565b6109d261548c565b6109da61548c565b60017f9b779b17422d0df92223018b32b4d1fa46e071723d6817e2486d003becc55f00556102e8614e83565b806001600160a01b031960a05154161760a05155604051928380927f2ca430510000000000000000000000000000000000000000000000000000000082525afa80156105215760a05190610b76575b6001600160a01b039150166001600160a01b0319600e541617600e556001600160a01b031960015416176001556001600160a01b031960025416176002556001600160a01b0319600d541617600d556001600160a01b03196003541617600355620151806004554260055542600755610ad36201518042064261372c565b600655610ae05760a05180f35b7fffffffffffffffffffffffffffffffffffffffffffffff00ffffffffffffffff7ff0c57e16840df040f15088dc2f81fe391c3923bec73e23a9662efc9c229c6a0054167ff0c57e16840df040f15088dc2f81fe391c3923bec73e23a9662efc9c229c6a00557fc7f505b2f371ae2175ee4913f4499e1f2633a7b5936321eed1cdaeb6115181d2602060405160018152a16102ed565b506020813d602011610bae575b81610b90602093836132ad565b810103126102be57610ba96001600160a01b0391614156565b610a55565b3d9150610b83565b7fffffffffffffffffffffffffffffffffffffffffffffff0000000000000000001668010000000000000001177ff0c57e16840df040f15088dc2f81fe391c3923bec73e23a9662efc9c229c6a00558a6109b0565b7ff92ee8a90000000000000000000000000000000000000000000000000000000060a05152600460a051fd5b90501589610954565b303b15915061094c565b899150610942565b346102be5760a0516003193601126102be57602060405160018152f35b346102be5760a0516003193601126102be576020601854604051908152f35b346102be5760a0516003193601126102be5760206001600160a01b0360035416604051908152f35b346102be5760a0516003193601126102be57604051806020601454918281520190601460a051527fce6d7b5282bd9a3661ae061feed1dbda4e52ab073b1f9285be6e155d9c38d4ec9060a0515b818110610d2a57610d2685610d1a818703826132ad565b60405191829182613200565b0390f35b82546001600160a01b0316845260209093019260019283019201610d03565b346102be5760206003193601126102be576001600160a01b03610d6a6133f9565b16308103610dca5750610d7b6150e7565b6008545b60a05191825b8151841015610dba57610db26001916002610da9610da3888761383d565b516134f4565b500154906138bf565b930192610d85565b8260409182519182526020820152f35b8060a05152600f602052604060a05120549060a051526010602052610df3604060a05120615132565b90610d7f565b346102be5760206003193601126102be57610e1e610e186004356134d5565b506138fd565b805160208083015160408085015160609586015182519586529385019290925283015291810191909152608090f35b346102be5760206003193601126102be5760043567ffffffffffffffff81116102be57610e7e903690600401613444565b610e946001600160a01b03600d54163314613b70565b47906001600160a01b0360a051541690813b156102be5760405180927fb55fb574000000000000000000000000000000000000000000000000000000008252602060048301528180610eed60a0519560248301906134a1565b039160a051905af1801561052157610f3a575b50610f0b904761372c565b80610f165760a05180f35b60a051610f3491819081908190335af1610f2e61374f565b5061377f565b806102ed565b60a051610f46916132ad565b60a0516102be5781610f00565b346102be5760a0516003193601126102be576020600654604051908152f35b346102be5760206003193601126102be576004356016548110156102be57610f9b6080916134f4565b506001600160a01b03815416906001810154906003600282015491015491604051938452602084015260408301526060820152f35b346102be5760a0516003193601126102be57601554610fee816132d0565b90610ffc60405192836132ad565b808252602082019081601560a051527f55f448fdea98c4d29eb340757ef0a66cd03dbb9538908a6a81d96026b71ec47560a051915b8383106110935784866040519182916020830190602084525180915260408301919060a0515b818110611065575050500390f35b825180516001600160a01b031685526020908101518186015286955060409094019390920191600101611057565b600260206001926040516110a681613275565b6001600160a01b0386541681528486015483820152815201920192019190611031565b346102be5760206003193601126102be576110e26133f9565b6001600160a01b03600354163303611160576001600160a01b0316801561111c576001600160a01b0319600d541617600d5560a05160a051f35b606460405162461bcd60e51b815260206004820152601660248201527f496e76616c6964207472616465722061646472657373000000000000000000006044820152fd5b608460405162461bcd60e51b815260206004820152602660248201527f4f6e6c7920666163746f72792063616e2065786563757465207468697320667560448201527f6e6374696f6e00000000000000000000000000000000000000000000000000006064820152fd5b346102be5760a0516003193601126102be576020600c54604051908152f35b60606003193601126102be5760043567ffffffffffffffff81116102be57611215903690600401613444565b6101e05260243567ffffffffffffffff81116102be57611239903690600401613349565b60443567ffffffffffffffff81116102be5761127761125f6112719236906004016133c8565b9290611269614586565b833691613562565b836146e0565b61128082613cbf565b9260a051926020935b818110611b9757505061129c82826139dd565b5050670de0b6b3a7640000810290808204670de0b6b3a764000014901517156107f65784926112cf85926008549061389f565b610100526112db6145ff565b9260a0519160a05193600454935b6101e0515186101561135557611305610da3876101e05161383d565b50611315866003429301546138bf565b1061133b576113326001916002610da9610da38a6101e05161383d565b955b01946112e9565b9460019060a05161134f826101e05161383d565b52611334565b87945081670de0b6b3a76400006113718993610100519061388c565b04910151908082106113c6575b5050505060a0515b6101e051518110156104de57806113a26001926101e05161383d565b51848482156113be57610100516113b893614a73565b01611386565b5050506113b8565b906113d4919592939561372c565b60a05160c05260a051916113e66150a6565b610160526113f26150a6565b6080526001600160a01b0360a051541691604051927fcd2ce4ae0000000000000000000000000000000000000000000000000000000084528360048160a051935afa9283156105215760a05193611b71575b5060a0516101c0526001600160a01b036001541660e0526001600160a01b0360025416610120525b82516101c051101561178b5760a0969196516101a0525b600260ff6101a0511610156117785761149f6101c0518461383d565b51604051907f0c6ff41800000000000000000000000000000000000000000000000000000000825281806114df60a051936101a05190306004850161408c565b038160e0515afa80156105215760a05161014052611751575b5061150161505d565b966101405151156117495760a0516101805260a0515b87518110156117415761152a818961383d565b51604051611558898281611547818301968781519384920161393c565b81010301601f1981018352826132ad565b5190206115686101c0518761383d565b516040516115858a8281611547818301968781519384920161393c565b5190201461159557600101611517565b6115a2908499929461383d565b51610180525b6115fb60406115ba6101c0518761383d565b518151809381927f721db56200000000000000000000000000000000000000000000000000000000835230600484015260806024840152608483019061395f565b61018051604483015260ff6101a0511660648301520381610120515afa80156105215760a05191829161170a575b50610180516060840152876101405101670de0b6b3a764000061165061018051835161388c565b0460808501526116636101c0518861383d565b5184526101a05160ff168985015251604084015281156116c8575060a082015261169260c0516101605161383d565b526116a260c0516101605161383d565b506116ae60c051613be1565b60c0525b60ff60016101a05101166101a052959095611483565b8091506116d7575b50506116b2565b9061170292959160c08201526116ef8260805161383d565b526116fc8160805161383d565b50613be1565b9287806116d0565b9150506040813d8211611739575b81611725604093836132ad565b810103126102be578681519101518a611629565b3d9150611718565b5091966115a8565b9196506116b2565b61176e903d8060a051833e61176681836132ad565b810190614010565b61014052876114f8565b95909560016101c051016101c05261146c565b9493929150945061179e8160c0516138bf565b90601f196117c46117ae846132d0565b936117bc60405195866132ad565b8085526132d0565b018360a0515b828110611b5b5750505060a051600160c05114600014611a9457611808906117f461016051613820565b516117fe85613820565b526116fc84613820565b905b600181036119c2575061183490611822608051613820565b5161182d828561383d565b528261383d565b505b60a051935b81518510156119b8576040611850868461383d565b510151906080611860878561383d565b51015181101561199657505060a05193606061187c828461383d565b5101511561197e5760a0516040611893838561383d565b51015160a05111611969575b6001600160a01b0360a05154166118b6838561383d565b5151916118da6118d560ff886118cc888a61383d565b510151166140bc565b6140ce565b91604051916118e988846132ad565b60a0518352813b156102be5761191e94604051958694859384936372cbc34360e11b855260a051984292429260048801614100565b039160a051905af1801561052157611950575b508415611941576001019361183b565b50505090505b8280808061137e565b60a05161195c916132ad565b60a0516102be5786611931565b506040611976828461383d565b51015161189f565b634e487b7160e01b60a051526012600452602460a051fd5b6119b29060806119a9888699959961383d565b5101519061372c565b9461189f565b5050509050611947565b6002146119d0575b50611836565b60c06119dd608051613820565b51015160c06119ed60805161382d565b5101511115611a4657611a01608051613820565b51611a0c828461383d565b52611a17818361383d565b50611a2360805161382d565b5190600181018091116107f657611a3e9161182d828561383d565b505b856119ca565b611a5160805161382d565b51611a5c828461383d565b52611a67818361383d565b50611a73608051613820565b5190600181018091116107f657611a8e9161182d828561383d565b50611a40565b90600260c0510361180a57905060a0611aaf61016051613820565b51015160a0611ac06101605161382d565b5101511015611b1457611ad561016051613820565b51611adf83613820565b52611ae982613820565b50611af66101605161382d565b51611b008361382d565b52611b0a8261382d565b505b60029061180a565b611b206101605161382d565b51611b2a83613820565b52611b3482613820565b50611b4161016051613820565b51611b4b8361382d565b52611b558261382d565b50611b0c565b611b6361505d565b8282870101520184906117ca565b611b909193503d8060a051833e611b8881836132ad565b810190613f38565b9187611444565b600190604051611ba787826132ad565b60a0518152611bb6828961383d565b52611bc1818861383d565b5001611289565b346102be5760a0516003193601126102be5760206001600160a01b037f9016d09d72d40fdae2fd8ceac6b6234c7706214fd39c1cd1e609a0528c1993005416604051908152f35b6104de611c1b366135ce565b90611c24614586565b6141e2565b346102be5760a0516003193601126102be5760206001600160a01b03600e5416604051908152f35b611c81611c5d366135ce565b90611c66614586565b611c7c6001600160a01b0360035416331461365e565b6146e0565b506001600160a01b0360a0515416604051907fcd2ce4ae0000000000000000000000000000000000000000000000000000000082528160048160a051935afa9081156105215760a05191611e37575b5060a0516020915b80518210156104de5760a0515b600260ff821610611cfb57509060010190611cd8565b6001600160a01b0360015416611d11848461383d565b5160405180927f0c6ff4180000000000000000000000000000000000000000000000000000000082528180611d4e8760a05196306004850161408c565b03915afa9081156105215760a05191611e1b575b50805115611e10576001600160a01b0360a051541685611d82868661383d565b51920151611d926118d5856140bc565b9160405191611da189846132ad565b60a0518352813b156102be57611dd694604051958694859384936372cbc34360e11b855260a051984292429260048801614100565b039160a051905af1801561052157611df7575b50600160ff915b0116611ce5565b60a051611e03916132ad565b60a0516102be5784611de9565b50600160ff91611df0565b611e3191503d8060a051833e61176681836132ad565b85611d62565b611e4d91503d8060a051833e611b8881836132ad565b81611cd0565b346102be5760a0516003193601126102be576020601554604051908152f35b346102be5760a0516003193601126102be5760206001600160a01b0360015416604051908152f35b346102be5760a0516003193601126102be576020600754604051908152f35b346102be5760a0516003193601126102be57611ed3614e83565b7f9016d09d72d40fdae2fd8ceac6b6234c7706214fd39c1cd1e609a0528c199300546001600160a01b031981167f9016d09d72d40fdae2fd8ceac6b6234c7706214fd39c1cd1e609a0528c199300556001600160a01b0360a05191167f8be0079c531659141344cd1fd0a4f28419497f9722a3daafe3b4186f6b6457e060a05160a051a360a05180f35b346102be5760206003193601126102be576004356014548110156102be576001600160a01b03611f8e60209261362b565b90549060031b1c16604051908152f35b346102be5760a0516003193601126102be576020600b54604051908152f35b60806003193601126102be5760043567ffffffffffffffff81116102be57611fe9903690600401613444565b60243580151581036102be5760443567ffffffffffffffff81116102be57612015903690600401613349565b916064359267ffffffffffffffff84116102be5761203a6104de9436906004016133c8565b939092612045614586565b613d08565b346102be5760a0516003193601126102be576020612066613bf0565b6040519015158152f35b346102be5760a0516003193601126102be5760206001600160a01b0360025416604051908152f35b346102be576120bb6120a936613513565b9091906120b46145ff565b51926139dd565b5050906008549160a05190836120e7575b92608093604051938452602084015260408301526060820152f35b9050670de0b6b3a7640000810292818404670de0b6b3a764000014821517156107f6576121168160809561389f565b919093506120cc565b346102be5760a0516003193601126102be576020604051624f1a008152f35b612147366135ce565b61215d6001600160a01b03600d54163314613b70565b6121656145ff565b604081015161226a57606001516122265761217f916148fa565b6001600160a01b03600354166001600160a01b03600d54166001600160a01b03600e5416823b156102be576040517f7f7c149100000000000000000000000000000000000000000000000000000000815260a0516001600160a01b039384166004830152929091166024820152918290818060448101039160a051905af180156105215761220d5760a05180f35b60a051612219916132ad565b60a0516102be57806102ed565b606460405162461bcd60e51b815260206004820152601160248201527f4578697374206c696d6974206f726465720000000000000000000000000000006044820152fd5b606460405162461bcd60e51b815260206004820152600e60248201527f457869737420706f736974696f6e0000000000000000000000000000000000006044820152fd5b346102be5760606122c76122c136613513565b906139dd565b90604051928352151560208301526040820152f35b346102be5760206003193601126102be576004356018548110156102be57612303906134d5565b508054610d266001830154926003600282015491015490604051948594859094939260609260808301968352602083015260408201520152565b346102be5760206003193601126102be57600435612359614586565b3360a051526010602052612371604060a05120615132565b60a05190815b83825184101561239f57506123976001916002610da9610da3878761383d565b920191612377565b6123ba81923360a05152600f602052604060a051205461372c565b106124c357601654903360a0515260106020526123dc82604060a051206152a1565b506123e68261522a565b50604051906123f482613243565b33825260208201928352604082019081526060820190428252601654680100000000000000008110156124ab5780600161243192016016556134f4565b949094612492576001600160a01b03806003955116166001600160a01b03198654161785555160018501555160028401555191015560017f9b779b17422d0df92223018b32b4d1fa46e071723d6817e2486d003becc55f005560a05160a051f35b634e487b7160e01b60a0515260a051600452602460a051fd5b634e487b7160e01b60a051526041600452602460a051fd5b606460405162461bcd60e51b815260206004820152601d60248201527f496e73756666696369656e7420617661696c61626c65207368617265730000006044820152fd5b346102be5760206003193601126102be5760043567ffffffffffffffff81116102be57612538903690600401613444565b8051612543816138cc565b9061254d816138cc565b612556826138cc565b9160a051601854905b8281106125a25761258686610d2687612594886040519586956060875260608701906134a1565b9085820360208701526134a1565b9083820360408501526134a1565b806125af6001928961383d565b518381106125bf575b500161255f565b6125cd610e186060926134d5565b60208101516125dc848b61383d565b5260408101516125ec848961383d565b5201516125f9828861383d565b52886125b8565b60606003193601126102be5760043560243567ffffffffffffffff81116102be5761262f903690600401613349565b60443567ffffffffffffffff81116102be5761264f9036906004016133c8565b612657614586565b600854612be6575050506126908134612bcb575b3360a05152600f602052604060a051206126868282546138bf565b90556008546138bf565b6008553360a05152601160205260ff604060a05120541615612a14575b6001600160a01b03600e5416906001600160a01b0360a051541660a0515060a0515060a05150816040936127657fffffffff0000000000000000000000000000000000000000000000000000000060186020885161270b8a826132ad565b8281527f617070726f766528616464726573732c75696e7432353629000000000000000091019081522087519116602082019081526001600160a01b039590951660248201526044808201949094529283526064836132ad565b60a0519260a05192519160a051905af161277d61374f565b816129dd575b50156102be576001600160a01b03600e541661279f828261517d565b801515806129d4575b806129cb575b6128bb575b50506001600160a01b0360a0515416803b156102be578251907fb6b55f250000000000000000000000000000000000000000000000000000000082528260048301528160248160a0519360a051905af180156128af57612896575b7fecca5b256ca62aec6a59af052fb9e6924c12daf46bef4fb5be7fcd92b1adfa4d60a0848461283f81600a546137ca565b600a55600e5482513381526001600160a01b0390911660208201529182015230606082015260016080820152a160017f9b779b17422d0df92223018b32b4d1fa46e071723d6817e2486d003becc55f005560a05180f35b60a0516128a2916132ad565b60a0516102be578261280e565b83513d60a051823e3d90fd5b83517fffffffff00000000000000000000000000000000000000000000000000000000906025906128ed6060826132ad565b8181527f74323536290000000000000000000000000000000000000000000000000000008760208301927f7472616e7366657246726f6d28616464726573732c616464726573732c75696e84520152201691845191602083019384523360248401523060448401526064830152606482526129696084836132ad565b60a0519260a05192519160a051905af161298161374f565b81612994575b50156102be5782806127b3565b80518015925082156129a9575b505083612987565b81925090602091810103126102be5760206129c4910161392f565b83806129a1565b503015156127ae565b503315156127a8565b80518015925082156129f2575b505083612783565b81925090602091810103126102be576020612a0d910161392f565b83806129ea565b3360a051526011602052604060a05120600160ff19825416179055601454680100000000000000008110156124ab57806001612a53920160145561362b565b81549060031b906001600160a01b0333831b921b19161790553360a051526017602052604060a051205415612b05575b6001600160a01b0360035416803b156102be576040517fae5e55e600000000000000000000000000000000000000000000000000000000815260a08051336004840152306024840152905191929091839160449183915af1801561052157612aec575b506126ad565b60a051612af8916132ad565b60a0516102be5781612ae6565b604051612b1181613275565b3381526020810190428252601554680100000000000000008110156124ab57806001612b40920160155561340f565b929092612492576001600160a01b03806001935116166001600160a01b0319845416178355519101556015543360a051526017602052604060a05120557f25721861c38b8c48f6705fecaea93b5de674735f1628fa9898ed0a89184aa25c60405180612bc3423383602090939291936001600160a01b0360408201951681520152565b0390a1612a83565b60a051612be19080808034335af1610f2e61374f565b61266b565b612690926122c1612bff612be194612c05943691613562565b826146e0565b5050612c136008548561388c565b61389f565b346102be5760206003193601126102be576004356015548110156102be57612c3f9061340f565b508054600190910154604080516001600160a01b039093168352602083019190915290f35b346102be5760a0516003193601126102be5760206001600160a01b0360a0515416604051908152f35b346102be5760a0516003193601126102be5760206001600160a01b03600d5416604051908152f35b346102be5760206003193601126102be576001600160a01b03612cd66133f9565b16308103612df15750612ce76150e7565b805190601f19612cf96117ae846132d0565b0160a0515b818110612dba57505060a0515b8151811015612d495780612d2d612d27610da36001948661383d565b50613851565b612d37828661383d565b52612d42818561383d565b5001612d0b565b8260405180916020820160208352815180915260206040840192019060a0515b818110612d77575050500390f35b9193509160206080600192606087516001600160a01b03815116835284810151858401526040810151604084015201516060820152019401910191849392612d69565b602090604051612dc981613243565b60a051815260a0518382015260a051604082015260a051606082015282828701015201612cfe565b60a051526010602052612e08604060a05120615132565b612ce7565b60406003193601126102be5760043567ffffffffffffffff81116102be57612e39903690600401613349565b60243567ffffffffffffffff81116102be57612e599036906004016133c8565b919062015180612e6b6006544261372c565b10612f5157612bff6122c191612e82943691613562565b5050612e936201518042064261372c565b80600655612e9f6137ff565b906008549260405192612eb184613243565b8084526020840194855260408401918252606084019283526018549081612f1e575b5050601854680100000000000000008110156124ab57806001612ef992016018556134d5565b949094612492576003935185555160018501555160028401555191015560a05160a051f35b60001982019182116107f657612f42612f4891612f3a846134d5565b5054906137e6565b916134d5565b50558480612ed3565b606460405162461bcd60e51b815260206004820152601760248201527f746f6f2073686f72742074696d6520696e74657276616c0000000000000000006044820152fd5b346102be5760a0516003193601126102be57601554612fb3816132d0565b90612fc160405192836132ad565b808252601f19612fd0826132d0565b0136602084013760a0515b818110612ff05760405180610d268582613200565b806001600160a01b0361300460019361340f565b505416613011828661383d565b5201612fdb565b346102be5760a0516003193601126102be5760206130346137ff565b604051908152f35b346102be5760a0516003193601126102be57613056614586565b4761306d6001600160a01b0360035416331461365e565b6001600160a01b036001541690604051917f6f4907cb0000000000000000000000000000000000000000000000000000000083523060048401528260248160a051935afa9182156105215760a051926131a2575b506001600160a01b0360a051541691823b156102be5760405180937fb55fb57400000000000000000000000000000000000000000000000000000000825260206004830152818061311960a0519560248301906134a1565b039160a051905af19182156105215761313892613190575b504761372c565b806131675760017f9b779b17422d0df92223018b32b4d1fa46e071723d6817e2486d003becc55f005560a05180f35b60a051600d5461318a928291829182916001600160a01b03165af1610f2e61374f565b806104de565b60a05161319c916132ad565b82613131565b9091503d8060a051833e6131b681836132ad565b81016020828203126102be57815167ffffffffffffffff81116102be576131dd92016136cf565b90826130c1565b346102be5760a0516003193601126102be576020906008548152f35b602060408183019282815284518094520192019060005b8181106132245750505090565b82516001600160a01b0316845260209384019390920191600101613217565b6080810190811067ffffffffffffffff82111761325f57604052565b634e487b7160e01b600052604160045260246000fd5b6040810190811067ffffffffffffffff82111761325f57604052565b60a0810190811067ffffffffffffffff82111761325f57604052565b90601f601f19910116810190811067ffffffffffffffff82111761325f57604052565b67ffffffffffffffff811161325f5760051b60200190565b67ffffffffffffffff811161325f57601f01601f191660200190565b81601f820112156108385760208135910161331e826132e8565b9261332c60405194856132ad565b828452828201116108385781600092602092838601378301015290565b9080601f83011215610838578135613360816132d0565b9261336e60405194856132ad565b81845260208085019260051b820101918383116108385760208201905b83821061339a57505050505090565b813567ffffffffffffffff8111610838576020916133bd87848094880101613304565b81520191019061338b565b9181601f840112156108385782359167ffffffffffffffff8311610838576020808501948460051b01011161083857565b600435906001600160a01b038216820361083857565b60155481101561342e57601560005260206000209060011b0190600090565b634e487b7160e01b600052603260045260246000fd5b9080601f8301121561083857813561345b816132d0565b9261346960405194856132ad565b81845260208085019260051b82010192831161083857602001905b8282106134915750505090565b8135815260209182019101613484565b906020808351928381520192019060005b8181106134bf5750505090565b82518452602093840193909201916001016134b2565b60185481101561342e57601860005260206000209060021b0190600090565b60165481101561342e57601660005260206000209060021b0190600090565b9060406003198301126108385760043567ffffffffffffffff8111610838578261353f91600401613349565b916024359067ffffffffffffffff82116108385761355f91600401613444565b90565b92919061356e816132d0565b9361357c60405195866132ad565b602085838152019160051b8101918383116108385781905b8382106135a2575050505050565b813567ffffffffffffffff8111610838576020916135c38784938701613304565b815201910190613594565b9060406003198301126108385760043567ffffffffffffffff811161083857826135fa91600401613349565b916024359067ffffffffffffffff821161083857806023830112156108385781602461355f93600401359101613562565b60145481101561342e57601460005260206000200190600090565b805482101561342e5760005260206000200190600090565b1561366557565b608460405162461bcd60e51b815260206004820152602360248201527f4f6e6c7920666163746f72792063616e2063616c6c20746869732066756e637460448201527f696f6e00000000000000000000000000000000000000000000000000000000006064820152fd5b9080601f830112156108385781516136e6816132d0565b926136f460405194856132ad565b81845260208085019260051b82010192831161083857602001905b82821061371c5750505090565b815181526020918201910161370f565b9190820391821161373957565b634e487b7160e01b600052601160045260246000fd5b3d1561377a573d90613760826132e8565b9161376e60405193846132ad565b82523d6000602084013e565b606090565b1561378657565b606460405162461bcd60e51b815260206004820152600f60248201527f7472616e73666572206661696c656400000000000000000000000000000000006044820152fd5b9190916000838201938412911290801582169115161761373957565b8181039291600013801582851316918412161761373957565b61355f61381761380d6145ff565b51600b54906137ca565b600a54906137e6565b80511561342e5760200190565b80516001101561342e5760400190565b805182101561342e5760209160051b010190565b9060405161385e81613243565b6060600382946001600160a01b03815416845260018101546020850152600281015460408501520154910152565b8181029291811591840414171561373957565b81156138a9570490565b634e487b7160e01b600052601260045260246000fd5b9190820180921161373957565b906138d6826132d0565b6138e360405191826132ad565b828152601f196138f382946132d0565b0190602036910137565b9060405161390a81613243565b6060600382948054845260018101546020850152600281015460408501520154910152565b5190811515820361083857565b60005b83811061394f5750506000910152565b818101518382015260200161393f565b90601f19601f60209361397d8151809281875287808801910161393c565b0116010190565b9080602083519182815201916020808360051b8301019401926000915b8383106139b057505050505090565b90919293946020806139ce83601f198660019603018752895161395f565b970193019301919392906139a1565b90918151835103613b06576040613a5d936139f66145ff565b5193613a4b6001600160a01b0360025416918451978894859384937f9aa59c65000000000000000000000000000000000000000000000000000000008552306004860152606060248601526064850190613984565b906003198483030160448501526134a1565b03915afa918215613afa576000938493613ab4575b50828415613a8a575082613a85916138bf565b929190565b9250909250818111613aa3575050600090600090600090565b81613aad9161372c565b9160009190565b939092506040843d604011613af2575b81613ad1604093836132ad565b81010312613aef57506020613ae58461392f565b9301519138613a72565b80fd5b3d9150613ac4565b6040513d6000823e3d90fd5b608460405162461bcd60e51b815260206004820152602160248201527f7072696365204172726179206c656e677468732061726520646966666572656e60448201527f74000000000000000000000000000000000000000000000000000000000000006064820152fd5b15613b7757565b608460405162461bcd60e51b815260206004820152602560248201527f4f6e6c79207472616465722063616e206578656375746520746869732066756e60448201527f6374696f6e0000000000000000000000000000000000000000000000000000006064820152fd5b60001981146137395760010190565b624f1a00613c006005544261372c565b11613c5c57601854601e811015613c18575b50600190565b6000907fffffffffffffffffffffffffffffffffffffffffffffffffffffffffffffffe28101818111613739575b818110613c61575050601e14613c5c5738613c12565b600190565b6002613c6c826134d5565b500154612710810290808204612710149015171561373957613c9d60019182613c94856134d5565b5001549061389f565b10613cab575b600101613c46565b91613cb7600191613be1565b929050613ca3565b90613cc9826132d0565b613cd660405191826132ad565b828152601f19613ce682946132d0565b019060005b828110613cf757505050565b806060602080938501015201613ceb565b9394919290613e6c57613d3f613d39613d4592613d316001600160a01b03600d54163314613b70565b873691613562565b846146e0565b836139dd565b6020613d529392936145ff565b01519215613e49575b50670de0b6b3a7640000810290808204670de0b6b3a7640000149015171561373957600854613d899161389f565b91613d9386613cbf565b95602060005b828110613e195750505060005b8551811015613e1057613db9818761383d565b5192670de0b6b3a7640000613ddd866040613dd6612d27896134f4565b015161388c565b0490818110613e0557888787613df960019695613dff9561372c565b97614a73565b01613da6565b505050945050505050565b50945050505050565b600190604051613e2984826132ad565b60008152613e37828c61383d565b52613e42818b61383d565b5001613d99565b9091818110613e635790613e5c9161372c565b9038613d5b565b50505092505050565b5092505060005b8151811015613f1957613e86818361383d565b5190613e91826134f4565b506001600160a01b03613ea43392613851565b511603613ed557613ece600192336000526010602052613ec88160406000206153d0565b50615300565b5001613e73565b606460405162461bcd60e51b815260206004820152601060248201527f77726f6e672077697468647261776572000000000000000000000000000000006044820152fd5b505034613f2257565b613f36600080808034335af1610f2e61374f565b565b6020818303126108385780519067ffffffffffffffff8211610838570181601f8201121561083857805190613f6c826132d0565b92613f7a60405194856132ad565b82845260208085019360051b830101918183116108385760208101935b838510613fa657505050505090565b845167ffffffffffffffff81116108385782019083603f8301121561083857602082015190613fd4826132e8565b613fe160405191826132ad565b8281526040848401018610610838576140056020949385946040868501910161393c565b815201940193613f97565b6020818303126108385780519067ffffffffffffffff8211610838570160a081830312610838576040519161404483613291565b81518352602082015160208401526040820151604084015260608201516060840152608082015167ffffffffffffffff81116108385761408492016136cf565b608082015290565b916140b560ff916001600160a01b0360409497969716855260606020860152606085019061395f565b9416910152565b60ff60019116019060ff821161373957565b60ff1660038110156140dd5790565b634e487b7160e01b600052602160045260246000fd5b9060038210156140dd5752565b9261413f9061412161355f989693979497610100875261010087019061395f565b966020860152600060408601526000606086015260808501906140f3565b60a083015260c082015260e081840391015261395f565b51906001600160a01b038216820361083857565b91614182918352606060208401526060830190613984565b906040818303910152815180825260208201916020808360051b8301019401926000915b8383106141b557505050505090565b90919293946020806141d383601f198660019603018752895161395f565b970193019301919392906141a6565b60075460009062093a8081018091116144b35742106144ae576142036137ff565b90600c5482131561449f576004929361421e600c54846137e6565b92600c5560606001600160a01b0360035416604051958680927ff50200570000000000000000000000000000000000000000000000000000000082525afa92831561442d57829083958495614444575b5061427e6142879260649261388c565b046009546138bf565b8060095560206142956145ff565b01518181111561443c5750945b856142fd575b505050505060607f6326552a814f8b0fafe09c417dec98dc3a4a5fd9348a0277f67eb84e192aa05e916142d9614ee4565b6001600160a01b03600d5416906009549060405192835260208301526040820152a1565b6001600160a01b0383541690813b1561443857918391614334936040518095819482936352065a6560e11b84528c6004850161416a565b039134905af1801561442d579261439392606095927f6326552a814f8b0fafe09c417dec98dc3a4a5fd9348a0277f67eb84e192aa05e979561441d575b505083918015158061440b575b6143d5575b5050806143ae575b600b546137ca565b600b556143a28160095461372c565b600955913880806142a8565b6143d0816001600160a01b03600e54166001600160a01b03600d541690614f39565b61438b565b6144049192506143e76064918661388c565b046143f2818661372c565b926001600160a01b03600e5416614f39565b3880614383565b506001600160a01b038216151561437e565b81614427916132ad565b38614371565b6040513d84823e3d90fd5b8380fd5b9050946142a2565b95509350506060843d606011614497575b81614462606093836132ad565b8101031261449357614287606461427e865196614486604060208301519201614156565b979097969250925061426e565b5080fd5b3d9150614455565b50915050600c55613f36614ee4565b505050565b602482634e487b7160e01b81526011600452fd5b6001600160a01b03168015614557576001600160a01b037f9016d09d72d40fdae2fd8ceac6b6234c7706214fd39c1cd1e609a0528c19930054826001600160a01b03198216177f9016d09d72d40fdae2fd8ceac6b6234c7706214fd39c1cd1e609a0528c19930055167f8be0079c531659141344cd1fd0a4f28419497f9722a3daafe3b4186f6b6457e0600080a3565b7f1e4fbdf700000000000000000000000000000000000000000000000000000000600052600060045260246000fd5b60027f9b779b17422d0df92223018b32b4d1fa46e071723d6817e2486d003becc55f0054146145d55760027f9b779b17422d0df92223018b32b4d1fa46e071723d6817e2486d003becc55f0055565b7f3ee5aeb50000000000000000000000000000000000000000000000000000000060005260046000fd5b6000608060405161460f81613291565b8281528260208201528260408201528260608201520152602460a06001600160a01b0360005416604051928380927ffb47e0160000000000000000000000000000000000000000000000000000000082523060048301525afa908115613afa5760009161467a575090565b905060a0813d60a0116146d8575b8161469560a093836132ad565b81010312610838576080604051916146ac83613291565b805183526020810151602084015260408101516040840152606081015160608401520151608082015290565b3d9150614688565b80518251036148b6576146f481513461389f565b815180156138a95734069261470981516138cc565b9260005b8151808210156148ac576000198101908111613739578690821461489b575b5061478560206001600160a01b0360035416614748848661383d565b519060405180809581947f299ae753000000000000000000000000000000000000000000000000000000008352866004840152602483019061395f565b03915afa908115613afa57600091614853575b5060206147f06001600160a01b03926147b1858861383d565b51886040519586809581947fb3d316c100000000000000000000000000000000000000000000000000000000835260406004840152604483019061395f565b600060248301520393165af1908115613afa57600091614821575b509060019161481a828861383d565b520161470d565b906020823d821161484b575b8161483a602093836132ad565b81010312613aef575051600161480b565b3d915061482d565b906020823d8211614893575b8161486c602093836132ad565b81010312613aef575060206147f061488b6001600160a01b0393614156565b925050614798565b3d915061485f565b6148a591946138bf565b928561472c565b5050505050919050565b606460405162461bcd60e51b815260206004820152602060248201527f496e636f6e73697374656e74207072696365206172726179206c656e677468736044820152fd5b906149036145ff565b519060009082936001600160a01b0383541690813b1561443857918391614941936040518095819482936352065a6560e11b84528a6004850161416a565b039134905af1801561442d578290614a63575b90505b6014548110156149eb576001600160a01b036149728261362b565b90549060031b1c16808352600f602052604083205480614997575b5050600101614957565b60019291956149b56149ac876149db9461388c565b6008549061389f565b90818111156149e257816149c89161372c565b965b6001600160a01b03600e5416614f39565b903861498d565b905084966149ca565b50915050806008556014548160145580614a03575050565b601482527fce6d7b5282bd9a3661ae061feed1dbda4e52ab073b1f9285be6e155d9c38d4ec01907fce6d7b5282bd9a3661ae061feed1dbda4e52ab073b1f9285be6e155d9c38d4ec5b828110614a5857505050565b818155600101614a4c565b614a6c916132ad565b3881614954565b9193929093614a84612d27846134f4565b9160408301918251670de0b6b3a7640000614aa26000998a9361388c565b0492614ab084600b546137ca565b600b556001600160a01b03825416803b15614cb757614ae793836040518096819582946352065a6560e11b84528a6004850161416a565b03925af18015614e7857614e3b575b50907fecca5b256ca62aec6a59af052fb9e6924c12daf46bef4fb5be7fcd92b1adfa4d60a083614b40614b99956001600160a01b03600e54166001600160a01b0389511690614f39565b6001600160a01b03600e5416906040519133835260208301526040820152306060820152886080820152a180516001600160a01b038451168752600f602052614b8e6040882091825461372c565b90555160085461372c565b6008556001600160a01b038151168452600f602052604084205415614bdf575b816040614bdc94956001600160a01b03613ec894511681526010602052206153d0565b50565b6001600160a01b038151168085526017602052604085205480614cbb575b50506001600160a01b03815116845260116020526040842060ff198154169055836001600160a01b03600354166001600160a01b03835116813b15614cb7576040517fdf51a5f60000000000000000000000000000000000000000000000000000000081526001600160a01b0391909116600482015230602482015291908290604490829084905af18015614cac57614c97575b50614bb9565b614ca28580926132ad565b6144385738614c91565b6040513d87823e3d90fd5b8280fd5b6015546000198101908111614e2757808203614d83575b50506015548015614d6f5760001901614cea8161340f565b614d5c5791614d529187600185827f3ddbb648aaeaaabce96671fb64baf7032313b7a0ef5c7083332fab22b28b481b975501556015558087526017602052866040812055604051918291429083602090939291936001600160a01b0360408201951681520152565b0390a13880614bfd565b602487634e487b7160e01b815280600452fd5b602486634e487b7160e01b81526031600452fd5b614d8c8161340f565b506000198301838111614e1357614da29061340f565b919091614e00579181836001600160a01b0394614dc69403614ddc575b505061340f565b5054168652601760205260408620553880614cd2565b805482546001600160a01b0319169086161782556001908101549101553880614dbf565b602489634e487b7160e01b815280600452fd5b602489634e487b7160e01b81526011600452fd5b602487634e487b7160e01b81526011600452fd5b60a087614e6e614b999594997fecca5b256ca62aec6a59af052fb9e6924c12daf46bef4fb5be7fcd92b1adfa4d946132ad565b9792935050614af6565b6040513d89823e3d90fd5b6001600160a01b037f9016d09d72d40fdae2fd8ceac6b6234c7706214fd39c1cd1e609a0528c19930054163303614eb657565b7f118cdaa7000000000000000000000000000000000000000000000000000000006000523360045260246000fd5b614ef36201518042064261372c565b6201518081046004810180911161373957600790066000198101908111613739576201518081029080820462015180149015171561373957614f349161372c565b600755565b9091614f45908261517d565b908115158061504b575b614f5857505050565b600092838093614ffa604093614fec7fffffffff00000000000000000000000000000000000000000000000000000000601960208851614f988a826132ad565b828152017f7472616e7366657228616464726573732c75696e7432353629000000000000008152201695519384926020840197885260248401602090939291936001600160a01b0360408201951681520152565b03601f1981018352826132ad565b51925af161500661374f565b81615014575b501561083857565b8051801592508215615029575b50503861500c565b8192509060209181010312610838576020615044910161392f565b3880615021565b506001600160a01b0383161515614f4f565b6040519060e0820182811067ffffffffffffffff82111761325f57604052600060c083606081528260208201528260408201528260608201528260808201528260a08201520152565b604051606091906150b783826132ad565b6002815291601f19018260005b8281106150d057505050565b6020906150db61505d565b828285010152016150c4565b604051906012548083528260208101601260005260206000209260005b818110615119575050613f36925003836132ad565b8454835260019485019487945060209093019201615104565b906040519182815491828252602082019060005260206000209260005b818110615164575050613f36925003836132ad565b845483526001948501948794506020909301920161514f565b60206001600160a01b03916004604051809481937f313ce567000000000000000000000000000000000000000000000000000000008352165afa908115613afa576000916151ed575b5060ff16604d811161373957670de0b6b3a7640000916151e991600a0a9061388c565b0490565b6020813d602011615222575b81615206602093836132ad565b8101031261449357519060ff82168203613aef575060ff6151c6565b3d91506151f9565b8060005260136020526040600020541560001461529b576012546801000000000000000081101561325f5761528261526b8260018594016012556012613646565b81939154906000199060031b92831b921b19161790565b9055601254906000526013602052604060002055600190565b50600090565b60018101908260005281602052604060002054156000146152f85780546801000000000000000081101561325f576152e361526b826001879401855584613646565b90555491600052602052604060002055600190565b505050600090565b60008181526013602052604090205480156153c9576000198101818111613739576012549060001982019182116137395781810361538f575b50505060125480156153795760001901615354816012613646565b60001982549160031b1b19169055601255600052601360205260006040812055600190565b634e487b7160e01b600052603160045260246000fd5b6153b16153a061526b936012613646565b90549060031b1c9283926012613646565b90556000526013602052604060002055388080615339565b5050600090565b90600182019181600052826020526040600020548015156000146154835760001981018181116137395782549060001982019182116137395781810361544c575b5050508054801561537957600019019061542b8282613646565b60001982549160031b1b191690555560005260205260006040812055600190565b61546c61545c61526b9386613646565b90549060031b1c92839286613646565b905560005283602052604060002055388080615411565b50505050600090565b60ff7ff0c57e16840df040f15088dc2f81fe391c3923bec73e23a9662efc9c229c6a005460401c16156154bb57565b7fd7e6bcf80000000000000000000000000000000000000000000000000000000060005260046000fdfea26469706673582212205f1f5ba037e4803ffa3b322b8df54302be443e8f37f8b9d5c16e438a7567286e64736f6c634300081c0033",
  "linkReferences": {},
  "deployedLinkReferences": {}
}