{
  "_format": "hh-sol-artifact-1",
  "contractName": "LeadingContract",
  "sourceName": "contracts/LeadingContract.sol",
  "abi": [
    {
      "inputs": [],
      "name": "InvalidInitialization",
      "type": "error"
    },
    {
      "inputs": [],
      "name": "NotInitializing",
      "type": "error"
    },
    {
      "inputs": [
        {
          "internalType": "address",
          "name": "owner",
          "type": "address"
        }
      ],
      "name": "OwnableInvalidOwner",
      "type": "error"
    },
    {
      "inputs": [
        {
          "internalType": "address",
          "name": "account",
          "type": "address"
        }
      ],
      "name": "OwnableUnauthorizedAccount",
      "type": "error"
    },
    {
      "inputs": [],
      "name": "ReentrancyGuardReentrantCall",
      "type": "error"
    },
    {
      "anonymous": false,
      "inputs": [
        {
          "indexed": false,
          "internalType": "address",
          "name": "trader",
          "type": "address"
        },
        {
          "indexed": false,
          "internalType": "address",
          "name": "token",
          "type": "address"
        },
        {
          "indexed": false,
          "internalType": "uint256",
          "name": "amount",
          "type": "uint256"
        }
      ],
      "name": "CommissionPaid",
      "type": "event"
    },
    {
      "anonymous": false,
      "inputs": [
        {
          "indexed": false,
          "internalType": "address",
          "name": "leadingContract",
          "type": "address"
        },
        {
          "indexed": false,
          "internalType": "address",
          "name": "leader",
          "type": "address"
        },
        {
          "indexed": false,
          "internalType": "address",
          "name": "token",
          "type": "address"
        },
        {
          "indexed": false,
          "internalType": "int256",
          "name": "totalProfit",
          "type": "int256"
        },
        {
          "indexed": false,
          "internalType": "uint256",
          "name": "totalShare",
          "type": "uint256"
        },
        {
          "indexed": false,
          "internalType": "uint256",
          "name": "totalAsset",
          "type": "uint256"
        },
        {
          "indexed": false,
          "internalType": "uint256",
          "name": "timestamp",
          "type": "uint256"
        }
      ],
      "name": "DailyAssetShare",
      "type": "event"
    },
    {
      "anonymous": false,
      "inputs": [
        {
          "indexed": false,
          "internalType": "address",
          "name": "follower",
          "type": "address"
        },
        {
          "indexed": false,
          "internalType": "uint256",
          "name": "firstFollowTime",
          "type": "uint256"
        }
      ],
      "name": "FollowerAdded",
      "type": "event"
    },
    {
      "anonymous": false,
      "inputs": [
        {
          "indexed": false,
          "internalType": "address",
          "name": "follower",
          "type": "address"
        },
        {
          "indexed": false,
          "internalType": "uint256",
          "name": "removedFollowTime",
          "type": "uint256"
        }
      ],
      "name": "FollowerRemoved",
      "type": "event"
    },
    {
      "anonymous": false,
      "inputs": [
        {
          "indexed": false,
          "internalType": "uint64",
          "name": "version",
          "type": "uint64"
        }
      ],
      "name": "Initialized",
      "type": "event"
    },
    {
      "anonymous": false,
      "inputs": [
        {
          "indexed": false,
          "internalType": "address",
          "name": "leadingContract",
          "type": "address"
        },
        {
          "indexed": false,
          "internalType": "address",
          "name": "leader",
          "type": "address"
        },
        {
          "indexed": false,
          "internalType": "address",
          "name": "token",
          "type": "address"
        },
        {
          "indexed": false,
          "internalType": "uint256",
          "name": "round",
          "type": "uint256"
        },
        {
          "indexed": false,
          "internalType": "uint256",
          "name": "startTime",
          "type": "uint256"
        },
        {
          "indexed": false,
          "internalType": "uint256",
          "name": "endTime",
          "type": "uint256"
        },
        {
          "indexed": false,
          "internalType": "uint256",
          "name": "accumulatedCommission",
          "type": "uint256"
        },
        {
          "indexed": false,
          "internalType": "int256",
          "name": "accumulatedDepositAmount",
          "type": "int256"
        },
        {
          "indexed": false,
          "internalType": "int256",
          "name": "accumulatedWithdrawAmount",
          "type": "int256"
        }
      ],
      "name": "LeadingContractReckon",
      "type": "event"
    },
    {
      "anonymous": false,
      "inputs": [
        {
          "indexed": true,
          "internalType": "address",
          "name": "previousOwner",
          "type": "address"
        },
        {
          "indexed": true,
          "internalType": "address",
          "name": "newOwner",
          "type": "address"
        }
      ],
      "name": "OwnershipTransferred",
      "type": "event"
    },
    {
      "anonymous": false,
      "inputs": [
        {
          "indexed": false,
          "internalType": "address",
          "name": "leadingContract",
          "type": "address"
        },
        {
          "indexed": false,
          "internalType": "address",
          "name": "trader",
          "type": "address"
        },
        {
          "indexed": false,
          "internalType": "address",
          "name": "token",
          "type": "address"
        },
        {
          "indexed": false,
          "internalType": "uint256",
          "name": "paidDistribute",
          "type": "uint256"
        },
        {
          "indexed": false,
          "internalType": "uint256",
          "name": "unpaidDistribute",
          "type": "uint256"
        },
        {
          "indexed": false,
          "internalType": "uint256",
          "name": "time",
          "type": "uint256"
        }
      ],
      "name": "ProfitsDistributed",
      "type": "event"
    },
    {
      "anonymous": false,
      "inputs": [
        {
          "indexed": false,
          "internalType": "bool",
          "name": "isDeposit",
          "type": "bool"
        },
        {
          "indexed": false,
          "internalType": "address",
          "name": "leader",
          "type": "address"
        },
        {
          "indexed": false,
          "internalType": "address",
          "name": "user",
          "type": "address"
        },
        {
          "indexed": false,
          "internalType": "address",
          "name": "token",
          "type": "address"
        },
        {
          "indexed": false,
          "internalType": "uint256",
          "name": "sid",
          "type": "uint256"
        },
        {
          "indexed": false,
          "internalType": "uint256",
          "name": "amount",
          "type": "uint256"
        },
        {
          "indexed": false,
          "internalType": "uint256",
          "name": "share",
          "type": "uint256"
        },
        {
          "indexed": false,
          "internalType": "uint256",
          "name": "time",
          "type": "uint256"
        },
        {
          "indexed": false,
          "internalType": "uint256",
          "name": "status",
          "type": "uint256"
        }
      ],
      "name": "TransformToken",
      "type": "event"
    },
    {
      "stateMutability": "payable",
      "type": "fallback"
    },
    {
      "inputs": [],
      "name": "accumulatedCommission",
      "outputs": [
        {
          "internalType": "uint256",
          "name": "",
          "type": "uint256"
        }
      ],
      "stateMutability": "view",
      "type": "function"
    },
    {
      "inputs": [],
      "name": "accumulatedDepositAmount",
      "outputs": [
        {
          "internalType": "int256",
          "name": "",
          "type": "int256"
        }
      ],
      "stateMutability": "view",
      "type": "function"
    },
    {
      "inputs": [],
      "name": "accumulatedUnpaidProfit",
      "outputs": [
        {
          "internalType": "uint256",
          "name": "",
          "type": "uint256"
        }
      ],
      "stateMutability": "view",
      "type": "function"
    },
    {
      "inputs": [],
      "name": "accumulatedWithdrawAmount",
      "outputs": [
        {
          "internalType": "int256",
          "name": "",
          "type": "int256"
        }
      ],
      "stateMutability": "view",
      "type": "function"
    },
    {
      "inputs": [],
      "name": "allowedToken",
      "outputs": [
        {
          "internalType": "address",
          "name": "",
          "type": "address"
        }
      ],
      "stateMutability": "view",
      "type": "function"
    },
    {
      "inputs": [
        {
          "internalType": "uint256",
          "name": "",
          "type": "uint256"
        }
      ],
      "name": "assetShareHistory",
      "outputs": [
        {
          "internalType": "int256",
          "name": "totalProfit",
          "type": "int256"
        },
        {
          "internalType": "uint256",
          "name": "totalShare",
          "type": "uint256"
        },
        {
          "internalType": "uint256",
          "name": "totalAsset",
          "type": "uint256"
        },
        {
          "internalType": "uint256",
          "name": "timestamp",
          "type": "uint256"
        }
      ],
      "stateMutability": "view",
      "type": "function"
    },
    {
      "inputs": [],
      "name": "auditWithdrawPeriod",
      "outputs": [
        {
          "internalType": "uint256",
          "name": "",
          "type": "uint256"
        }
      ],
      "stateMutability": "view",
      "type": "function"
    },
    {
      "inputs": [],
      "name": "cancelAllLimitOrders",
      "outputs": [],
      "stateMutability": "nonpayable",
      "type": "function"
    },
    {
      "inputs": [
        {
          "internalType": "uint256[]",
          "name": "_ids",
          "type": "uint256[]"
        }
      ],
      "name": "cancelOrders",
      "outputs": [],
      "stateMutability": "nonpayable",
      "type": "function"
    },
    {
      "inputs": [
        {
          "internalType": "string",
          "name": "_name",
          "type": "string"
        },
        {
          "internalType": "uint256",
          "name": "_amount",
          "type": "uint256"
        },
        {
          "internalType": "uint256",
          "name": "_orderType",
          "type": "uint256"
        },
        {
          "internalType": "uint256",
          "name": "_price",
          "type": "uint256"
        },
        {
          "internalType": "enum Direct",
          "name": "_type",
          "type": "uint8"
        },
        {
          "internalType": "uint256",
          "name": "_goodTill",
          "type": "uint256"
        },
        {
          "internalType": "uint256",
          "name": "_deadline",
          "type": "uint256"
        },
        {
          "internalType": "bytes",
          "name": "_priceUpdate",
          "type": "bytes"
        }
      ],
      "name": "closePosition",
      "outputs": [],
      "stateMutability": "payable",
      "type": "function"
    },
    {
      "inputs": [],
      "name": "commissionRate",
      "outputs": [
        {
          "internalType": "uint256",
          "name": "",
          "type": "uint256"
        }
      ],
      "stateMutability": "view",
      "type": "function"
    },
    {
      "inputs": [],
      "name": "createdTime",
      "outputs": [
        {
          "internalType": "uint256",
          "name": "",
          "type": "uint256"
        }
      ],
      "stateMutability": "view",
      "type": "function"
    },
    {
      "inputs": [],
      "name": "dailyAssetShareSnapPeriod",
      "outputs": [
        {
          "internalType": "uint256",
          "name": "",
          "type": "uint256"
        }
      ],
      "stateMutability": "view",
      "type": "function"
    },
    {
      "inputs": [
        {
          "internalType": "uint256",
          "name": "_amount",
          "type": "uint256"
        },
        {
          "internalType": "string[]",
          "name": "_symbols",
          "type": "string[]"
        },
        {
          "internalType": "bytes[]",
          "name": "_reportData",
          "type": "bytes[]"
        }
      ],
      "name": "deposit",
      "outputs": [],
      "stateMutability": "payable",
      "type": "function"
    },
    {
      "inputs": [],
      "name": "distributeCommissionPeriod",
      "outputs": [
        {
          "internalType": "uint256",
          "name": "",
          "type": "uint256"
        }
      ],
      "stateMutability": "view",
      "type": "function"
    },
    {
      "inputs": [
        {
          "internalType": "string[]",
          "name": "_symbols",
          "type": "string[]"
        },
        {
          "internalType": "bytes[]",
          "name": "_priceUpdates",
          "type": "bytes[]"
        }
      ],
      "name": "distributeProfits",
      "outputs": [],
      "stateMutability": "payable",
      "type": "function"
    },
    {
      "inputs": [
        {
          "internalType": "string[]",
          "name": "symbols",
          "type": "string[]"
        },
        {
          "internalType": "bytes[]",
          "name": "reportData",
          "type": "bytes[]"
        }
      ],
      "name": "generateDailyAssetShare",
      "outputs": [],
      "stateMutability": "payable",
      "type": "function"
    },
    {
      "inputs": [],
      "name": "getAllFollowers",
      "outputs": [
        {
          "internalType": "address[]",
          "name": "",
          "type": "address[]"
        }
      ],
      "stateMutability": "view",
      "type": "function"
    },
    {
      "inputs": [
        {
          "internalType": "uint256",
          "name": "index",
          "type": "uint256"
        }
      ],
      "name": "getAssetShareHistoryItem",
      "outputs": [
        {
          "internalType": "int256",
          "name": "",
          "type": "int256"
        },
        {
          "internalType": "uint256",
          "name": "",
          "type": "uint256"
        },
        {
          "internalType": "uint256",
          "name": "",
          "type": "uint256"
        },
        {
          "internalType": "uint256",
          "name": "",
          "type": "uint256"
        }
      ],
      "stateMutability": "view",
      "type": "function"
    },
    {
      "inputs": [
        {
          "internalType": "uint256[]",
          "name": "indices",
          "type": "uint256[]"
        }
      ],
      "name": "getAssetSharesHistoriesByDay",
      "outputs": [
        {
          "components": [
            {
              "internalType": "int256",
              "name": "totalProfit",
              "type": "int256"
            },
            {
              "internalType": "uint256",
              "name": "totalShare",
              "type": "uint256"
            },
            {
              "internalType": "uint256",
              "name": "totalAsset",
              "type": "uint256"
            },
            {
              "internalType": "uint256",
              "name": "timestamp",
              "type": "uint256"
            }
          ],
          "internalType": "struct LeadingContract.DailyAssetShareItem[]",
          "name": "items",
          "type": "tuple[]"
        }
      ],
      "stateMutability": "view",
      "type": "function"
    },
    {
      "inputs": [],
      "name": "getAssetSharesHistoryDays",
      "outputs": [
        {
          "internalType": "uint256",
          "name": "",
          "type": "uint256"
        }
      ],
      "stateMutability": "view",
      "type": "function"
    },
    {
      "inputs": [],
      "name": "getFollowerCount",
      "outputs": [
        {
          "internalType": "uint256",
          "name": "",
          "type": "uint256"
        }
      ],
      "stateMutability": "view",
      "type": "function"
    },
    {
      "inputs": [],
      "name": "getFollowers",
      "outputs": [
        {
          "internalType": "address[]",
          "name": "followerAddresses",
          "type": "address[]"
        }
      ],
      "stateMutability": "view",
      "type": "function"
    },
    {
      "inputs": [],
      "name": "getFollowersInfo",
      "outputs": [
        {
          "components": [
            {
              "internalType": "address",
              "name": "userAddress",
              "type": "address"
            },
            {
              "internalType": "uint256",
              "name": "firstFollowTime",
              "type": "uint256"
            }
          ],
          "internalType": "struct LeadingContract.Follower[]",
          "name": "",
          "type": "tuple[]"
        }
      ],
      "stateMutability": "view",
      "type": "function"
    },
    {
      "inputs": [],
      "name": "getLatestClosedProfit",
      "outputs": [
        {
          "internalType": "int256",
          "name": "profit",
          "type": "int256"
        }
      ],
      "stateMutability": "view",
      "type": "function"
    },
    {
      "inputs": [
        {
          "internalType": "string[]",
          "name": "_symbols",
          "type": "string[]"
        },
        {
          "internalType": "uint256[]",
          "name": "_prices",
          "type": "uint256[]"
        }
      ],
      "name": "getTotalBalance",
      "outputs": [
        {
          "internalType": "uint256",
          "name": "assetAmount",
          "type": "uint256"
        },
        {
          "internalType": "bool",
          "name": "gainLoss",
          "type": "bool"
        },
        {
          "internalType": "uint256",
          "name": "profit",
          "type": "uint256"
        }
      ],
      "stateMutability": "view",
      "type": "function"
    },
    {
      "inputs": [
        {
          "internalType": "address",
          "name": "user",
          "type": "address"
        }
      ],
      "name": "getUserShare",
      "outputs": [
        {
          "internalType": "uint256",
          "name": "_totalShares",
          "type": "uint256"
        },
        {
          "internalType": "uint256",
          "name": "_freezeShare",
          "type": "uint256"
        }
      ],
      "stateMutability": "view",
      "type": "function"
    },
    {
      "inputs": [
        {
          "internalType": "address",
          "name": "user",
          "type": "address"
        }
      ],
      "name": "getWithdrawItems",
      "outputs": [
        {
          "components": [
            {
              "internalType": "address",
              "name": "user",
              "type": "address"
            },
            {
              "internalType": "uint256",
              "name": "withdrawID",
              "type": "uint256"
            },
            {
              "internalType": "uint256",
              "name": "withdrawShare",
              "type": "uint256"
            },
            {
              "internalType": "uint256",
              "name": "withdrawAmount",
              "type": "uint256"
            },
            {
              "internalType": "uint256",
              "name": "withdrawTime",
              "type": "uint256"
            },
            {
              "internalType": "uint8",
              "name": "status",
              "type": "uint8"
            },
            {
              "internalType": "string",
              "name": "memo",
              "type": "string"
            }
          ],
          "internalType": "struct LeadingContract.WithdrawShareItem[]",
          "name": "",
          "type": "tuple[]"
        }
      ],
      "stateMutability": "view",
      "type": "function"
    },
    {
      "inputs": [],
      "name": "handleLeadingContractLiquidated",
      "outputs": [],
      "stateMutability": "nonpayable",
      "type": "function"
    },
    {
      "inputs": [
        {
          "internalType": "uint256[]",
          "name": "items",
          "type": "uint256[]"
        },
        {
          "internalType": "bool",
          "name": "cancel",
          "type": "bool"
        },
        {
          "internalType": "string[]",
          "name": "_symbols",
          "type": "string[]"
        },
        {
          "internalType": "bytes[]",
          "name": "_reportData",
          "type": "bytes[]"
        }
      ],
      "name": "handleWithdrawItems",
      "outputs": [],
      "stateMutability": "payable",
      "type": "function"
    },
    {
      "inputs": [
        {
          "internalType": "uint256[]",
          "name": "items",
          "type": "uint256[]"
        },
        {
          "internalType": "string[]",
          "name": "_symbols",
          "type": "string[]"
        },
        {
          "internalType": "bytes[]",
          "name": "_reportData",
          "type": "bytes[]"
        }
      ],
      "name": "handleWithdrawItems4Risk",
      "outputs": [],
      "stateMutability": "payable",
      "type": "function"
    },
    {
      "inputs": [
        {
          "internalType": "address",
          "name": "initialOwner",
          "type": "address"
        },
        {
          "internalType": "address",
          "name": "_trader",
          "type": "address"
        },
        {
          "internalType": "address payable",
          "name": "_factoryAddress",
          "type": "address"
        },
        {
          "internalType": "address",
          "name": "_perpetual",
          "type": "address"
        },
        {
          "internalType": "address",
          "name": "_tradeAgent",
          "type": "address"
        },
        {
          "internalType": "address",
          "name": "_orderBook",
          "type": "address"
        },
        {
          "internalType": "uint256",
          "name": "_rate",
          "type": "uint256"
        }
      ],
      "name": "initialize",
      "outputs": [],
      "stateMutability": "nonpayable",
      "type": "function"
    },
    {
      "inputs": [],
      "name": "lastBalanceSnapTime",
      "outputs": [
        {
          "internalType": "uint256",
          "name": "",
          "type": "uint256"
        }
      ],
      "stateMutability": "view",
      "type": "function"
    },
    {
      "inputs": [],
      "name": "lastDistributeProfit",
      "outputs": [
        {
          "internalType": "int256",
          "name": "",
          "type": "int256"
        }
      ],
      "stateMutability": "view",
      "type": "function"
    },
    {
      "inputs": [],
      "name": "lastDistributionTime",
      "outputs": [
        {
          "internalType": "uint256",
          "name": "",
          "type": "uint256"
        }
      ],
      "stateMutability": "view",
      "type": "function"
    },
    {
      "inputs": [],
      "name": "liquidateStatus",
      "outputs": [
        {
          "internalType": "bool",
          "name": "liquidated",
          "type": "bool"
        }
      ],
      "stateMutability": "view",
      "type": "function"
    },
    {
      "inputs": [],
      "name": "owner",
      "outputs": [
        {
          "internalType": "address",
          "name": "",
          "type": "address"
        }
      ],
      "stateMutability": "view",
      "type": "function"
    },
    {
      "inputs": [],
      "name": "perpetual",
      "outputs": [
        {
          "internalType": "contract IPerpetuals",
          "name": "",
          "type": "address"
        }
      ],
      "stateMutability": "view",
      "type": "function"
    },
    {
      "inputs": [
        {
          "internalType": "string[]",
          "name": "_symbols",
          "type": "string[]"
        },
        {
          "internalType": "bytes[]",
          "name": "_priceUpdates",
          "type": "bytes[]"
        }
      ],
      "name": "reckonLeadingContract",
      "outputs": [],
      "stateMutability": "payable",
      "type": "function"
    },
    {
      "inputs": [],
      "name": "renounceOwnership",
      "outputs": [],
      "stateMutability": "nonpayable",
      "type": "function"
    },
    {
      "inputs": [],
      "name": "round",
      "outputs": [
        {
          "internalType": "uint256",
          "name": "",
          "type": "uint256"
        }
      ],
      "stateMutability": "view",
      "type": "function"
    },
    {
      "inputs": [
        {
          "internalType": "string",
          "name": "_name",
          "type": "string"
        },
        {
          "internalType": "uint256",
          "name": "_leverage",
          "type": "uint256"
        }
      ],
      "name": "setUserLeverage",
      "outputs": [],
      "stateMutability": "nonpayable",
      "type": "function"
    },
    {
      "inputs": [],
      "name": "startTime",
      "outputs": [
        {
          "internalType": "uint256",
          "name": "",
          "type": "uint256"
        }
      ],
      "stateMutability": "view",
      "type": "function"
    },
    {
      "inputs": [],
      "name": "totalShare",
      "outputs": [
        {
          "internalType": "uint256",
          "name": "",
          "type": "uint256"
        }
      ],
      "stateMutability": "view",
      "type": "function"
    },
    {
      "inputs": [
        {
          "internalType": "string",
          "name": "_name",
          "type": "string"
        },
        {
          "internalType": "uint256",
          "name": "_amount",
          "type": "uint256"
        },
        {
          "internalType": "uint256",
          "name": "_price",
          "type": "uint256"
        },
        {
          "internalType": "uint256",
          "name": "_orderType",
          "type": "uint256"
        },
        {
          "internalType": "enum Direct",
          "name": "_type",
          "type": "uint8"
        },
        {
          "internalType": "uint256",
          "name": "_goodTill",
          "type": "uint256"
        },
        {
          "internalType": "uint256",
          "name": "_deadline",
          "type": "uint256"
        },
        {
          "internalType": "bytes",
          "name": "_priceUpdate",
          "type": "bytes"
        }
      ],
      "name": "trade",
      "outputs": [],
      "stateMutability": "payable",
      "type": "function"
    },
    {
      "inputs": [],
      "name": "trader",
      "outputs": [
        {
          "internalType": "address",
          "name": "",
          "type": "address"
        }
      ],
      "stateMutability": "view",
      "type": "function"
    },
    {
      "inputs": [
        {
          "internalType": "string[]",
          "name": "_symbols",
          "type": "string[]"
        },
        {
          "internalType": "bytes[]",
          "name": "_priceUpdates",
          "type": "bytes[]"
        }
      ],
      "name": "traderDeleteContract",
      "outputs": [],
      "stateMutability": "payable",
      "type": "function"
    },
    {
      "inputs": [
        {
          "internalType": "address",
          "name": "newOwner",
          "type": "address"
        }
      ],
      "name": "transferOwnership",
      "outputs": [],
      "stateMutability": "nonpayable",
      "type": "function"
    },
    {
      "inputs": [
        {
          "internalType": "address",
          "name": "",
          "type": "address"
        }
      ],
      "name": "userShares",
      "outputs": [
        {
          "internalType": "uint256",
          "name": "",
          "type": "uint256"
        }
      ],
      "stateMutability": "view",
      "type": "function"
    },
    {
      "inputs": [
        {
          "internalType": "uint256",
          "name": "",
          "type": "uint256"
        }
      ],
      "name": "userWithdrawItems",
      "outputs": [
        {
          "internalType": "address",
          "name": "user",
          "type": "address"
        },
        {
          "internalType": "uint256",
          "name": "withdrawID",
          "type": "uint256"
        },
        {
          "internalType": "uint256",
          "name": "withdrawShare",
          "type": "uint256"
        },
        {
          "internalType": "uint256",
          "name": "withdrawAmount",
          "type": "uint256"
        },
        {
          "internalType": "uint256",
          "name": "withdrawTime",
          "type": "uint256"
        },
        {
          "internalType": "uint8",
          "name": "status",
          "type": "uint8"
        }
      ],
      "stateMutability": "view",
      "type": "function"
    },
    {
      "inputs": [
        {
          "internalType": "uint256",
          "name": "_share",
          "type": "uint256"
        }
      ],
      "name": "withdraw",
      "outputs": [],
      "stateMutability": "nonpayable",
      "type": "function"
    },
    {
      "stateMutability": "payable",
      "type": "receive"
    }
  ],
  "bytecode": "0x60808060405234601557615777908161001b8239f35b600080fdfe6080806040526004361015610011575b005b600090813560e01c908163026c42071461258e57508063030fc7dd146125735780630d79f561146124f45780631460e3901461210d578063146ca531146120ef578063170794a814611e605780631758078b14611e395780631816129f14611e1b57806319e67d7514611df5578063227ddb4e1461176c5780632d9cd09a146117435780632e1a7d4d1461152e5780632f1cc4d0146114755780633f70498b14611401578063490ae1cd1461129557806356c3748c1461125357806359a3d8301461121a5780635ea1d6f8146111fc57806366776f621461116e57806368306b7614611150578063715018a6146110b757806375b17350146110995780637829ae4a1461107b5780637832435e14610fbb57806378e9792514610f9d578063796f471a14610e3657806385fa292f14610e0f57806387ec936d14610de65780638da5cb5b14610da057806390536e4314610d1b57806392a022ae14610ad75780639823aa8e14610ab9578063a34d87c514610a9b578063a70c7ed4146109c3578063aa66ea6714610955578063ae69367314610937578063b2b7d9ac14610919578063b2f4bdb0146108fb578063b55fb574146107fb578063bbbaee4c1461074f578063c3633aa91461072c578063c365e421146106a2578063cce13b8e14610684578063d14ec0dc14610666578063d1ab4aaa146104d1578063d4baf488146104b3578063de69b3aa1461047b578063dfce0f8314610429578063e5978686146102a9578063f2fde38b1461027f5763fde895980361000f573461027c578060031936011261027c576102716001600160a01b03600354163314612aba565b61027961419f565b80f35b80fd5b503461027c57602060031936011261027c5761027961029c6125ed565b6102a4614a92565b613548565b5061010060031936011261027c578060043567ffffffffffffffff8111610426576102d8903690600401612749565b60843560038110156104245760e43567ffffffffffffffff811161042257610304903690600401612749565b9161030d6136e8565b6103236001600160a01b03601454163314612bed565b6001600160a01b03845416803b1561041e576103816103a4926103c58795604051978896879586957fe5978686000000000000000000000000000000000000000000000000000000008752610100600488015261010487019061262b565b926024356024870152604435604487015260643560648701526084860190613525565b60a43560a485015260c43560c48501526003198483030160e485015261262b565b039134905af18015610413576103fe575b5060017f9b779b17422d0df92223018b32b4d1fa46e071723d6817e2486d003becc55f005580f35b81610408916126f2565b61027c5780386103d6565b6040513d84823e3d90fd5b8480fd5b505b505b50fd5b503461027c57602060031936011261027c576004358152601f602090815260409182902080546001820154600283015460039093015485519283529382015292830152606082015280608081015b0390f35b503461027c57602060031936011261027c5760406020916001600160a01b036104a26125ed565b168152601683522054604051908152f35b503461027c578060031936011261027c576020601154604051908152f35b5061010060031936011261027c578060043567ffffffffffffffff811161042657610500903690600401612749565b6084359060038210156104245760e4359167ffffffffffffffff831161042257366023840112156104225782600401359267ffffffffffffffff841161041e57366024858301011161041e576105546136e8565b6001600160a01b03601454169361056c853314612bed565b6001600160a01b0386541691823b156106625786946105f594601f19601f856105d49660246020976040519d8e9c8d9b8c9a7fc8f5ede2000000000000000000000000000000000000000000000000000000008c5261012060048d01526101248c019061262b565b988435858c015260443560448c015260643560648c015260848b0190613525565b60a489015260a43560c489015260c43560e48901526003198888030161010489015282875201878601378986828601015201160103019134905af18015610413576103fe575060017f9b779b17422d0df92223018b32b4d1fa46e071723d6817e2486d003becc55f005580f35b8680fd5b503461027c578060031936011261027c576020600654604051908152f35b503461027c578060031936011261027c576020601054604051908152f35b503461027c578060031936011261027c5760405180916020601b54928381520191601b82527f3ad8aa4f87544323a9d1e5dd902f40c356527a7955687113db5f9a85ad579dc1915b81811061070d5761047785610701818703826126f2565b604051918291826125aa565b82546001600160a01b03168452602090930192600192830192016106ea565b503461027c578060031936011261027c576020610747613505565b604051908152f35b503461027c57602060031936011261027c576001600160a01b036107716125ed565b163081036107d45750610782615179565b90600f54905b809281935b81518510156107c4576107bc6001916107a68785612a08565b518552601d602052600260408620015490612a7a565b94019361078d565b8360409182519182526020820152f35b8082526016602052604082205490825260176020526107f5604083206151c4565b91610788565b503461027c57602060031936011261027c5760043567ffffffffffffffff81116108f35761082d90369060040161290a565b6108436001600160a01b03601454163314612bed565b8147916001600160a01b03825416803b156108f75761089d83929183926040519485809481937fb55fb574000000000000000000000000000000000000000000000000000000008352602060048401526024830190612cc4565b03925af18015610413576108de575b50506108b89047612a50565b81816108c15780f35b8080806108d994335af16108d3612f34565b50612f64565b388180f35b816108e8916126f2565b6108f35781386108ac565b5080fd5b8280fd5b503461027c578060031936011261027c576020600b54604051908152f35b503461027c578060031936011261027c576020600d54604051908152f35b503461027c578060031936011261027c576020600c54604051908152f35b503461027c57602060031936011261027c57604060c0916004358152601d602052206001600160a01b0381541690600181015490600281015460038201549060ff600560048501549401541693604051958652602086015260408501526060840152608083015260a0820152f35b503461027c578060031936011261027c57601c546109e081612715565b6109ed60405191826126f2565b818152601c83526020810191837f0e4562a10381dec21b205ed72637e6b1b523bdd0e4d4d50af5cd23dd4500a211845b838310610a7d57868587604051928392602084019060208552518091526040840192915b818110610a4f575050500390f35b825180516001600160a01b031685526020908101518186015286955060409094019390920191600101610a41565b60026020600192610a8d856134c1565b815201920192019190610a1d565b503461027c578060031936011261027c576020601354604051908152f35b503461027c578060031936011261027c576020600754604051908152f35b503461027c578060031936011261027c57610af06136e8565b610af8613607565b511580610d10575b610b2c575b60017f9b779b17422d0df92223018b32b4d1fa46e071723d6817e2486d003becc55f005580f35b805b601c54811015610c98576001600160a01b03610b52610b4c836129d3565b506134c1565b5116808352601660205260408320546004549060018201809211610c8457610120827f613128987cba7a2073cf49ff02fbbe4e3728a0cf7ed9f8942569818fd0cfd66e928795946004556001600160a01b03601554169160405192878452306020850152866040850152606084015260808301528560a083015260c08201524260e08201526003610100820152a1610be981614fb2565b80825260186020526040822060ff1981541690556001600160a01b0360035416803b156108f7576040517fdf51a5f60000000000000000000000000000000000000000000000000000000081526001600160a01b0392909216600483015230602483015282908290604490829084905af1801561041357610c6f575b5050600101610b2e565b81610c79916126f2565b6108f3578138610c65565b602485634e487b7160e01b81526011600452fd5b5080600f55602090604051610cad83826126f2565b8181526000908381018460005b848110610d025750505060405191610cd285846126f2565b83835284830160005b828110610cf557505050610cf0929350614974565b610b05565b6060828201528601610cdb565b606081840152018590610cba565b50600f541515610b00565b50606060031936011261027c5760043567ffffffffffffffff81116108f357610d4890369060040161290a565b60243567ffffffffffffffff81116108f757610d6890369060040161278e565b6044359167ffffffffffffffff8311610d9c57610d8c610b0593369060040161280d565b929091610d976136e8565b6132d8565b8380fd5b503461027c578060031936011261027c5760206001600160a01b037f9016d09d72d40fdae2fd8ceac6b6234c7706214fd39c1cd1e609a0528c1993005416604051908152f35b50610b05610e07610df6366128aa565b610e019291926136e8565b82613761565b919050614af3565b503461027c578060031936011261027c5760206001600160a01b0360155416604051908152f35b503461027c57602060031936011261027c5760043567ffffffffffffffff81116108f357610e6890369060040161290a565b8051610e7381612715565b91610e8160405193846126f2565b818352601f19610e9083612715565b01845b818110610f6e575050835b828110610f0c578385604051918291602083016020845282518091526020604085019301915b818110610ed2575050500390f35b9193509160206080600192606087518051835284810151858401526040810151604084015201516060820152019401910191849392610ec4565b80610f1960019284612a08565b518652601f60205260408620600360405191610f34836126ba565b805483528481015460208401526002810154604084015201546060820152610f5c8287612a08565b52610f678186612a08565b5001610e9e565b602090604051610f7d816126ba565b878152878382015287604082015287606082015282828801015201610e93565b503461027c578060031936011261027c576020600a54604051908152f35b50604060031936011261027c5760043567ffffffffffffffff81116108f357610fe890369060040161278e565b60243567ffffffffffffffff81116108f75761100890369060040161280d565b9190611016600d5442612a50565b6006541161103757610e016110309161027994369161283e565b5090613a0d565b606460405162461bcd60e51b815260206004820152601760248201527f746f6f2073686f72742074696d6520696e74657276616c0000000000000000006044820152fd5b503461027c578060031936011261027c576020601c54604051908152f35b503461027c578060031936011261027c576020600e54604051908152f35b503461027c578060031936011261027c576110d0614a92565b806001600160a01b037f9016d09d72d40fdae2fd8ceac6b6234c7706214fd39c1cd1e609a0528c199300546001600160a01b031981167f9016d09d72d40fdae2fd8ceac6b6234c7706214fd39c1cd1e609a0528c19930055167f8be0079c531659141344cd1fd0a4f28419497f9722a3daafe3b4186f6b6457e08280a380f35b503461027c578060031936011261027c576020601254604051908152f35b50608060031936011261027c5760043567ffffffffffffffff81116108f35761119b90369060040161290a565b60243580151581036108f75760443567ffffffffffffffff8111610d9c576111c790369060040161278e565b916064359267ffffffffffffffff841161041e576111ec610b0594369060040161280d565b9390926111f76136e8565b612faf565b503461027c578060031936011261027c576020600554604051908152f35b503461027c578060031936011261027c57611233613607565b511580611248575b6020906040519015158152f35b50600f54151561123b565b503461027c57602060031936011261027c57610477611273600435612ec0565b6040805194855260208501939093529183015260608201529081906080820190565b5061129f366128aa565b906112b66001600160a01b03601454163314612bed565b6112be613607565b60408101516113bd5760600151611379576112dc6112e49282613761565b9190506143b6565b806001600160a01b03600354166001600160a01b03601454166001600160a01b0360155416823b15610422576040517f7f7c14910000000000000000000000000000000000000000000000000000000081526001600160a01b039283166004820152911660248201529082908290604490829084905af18015610413576113685750f35b81611372916126f2565b61027c5780f35b606460405162461bcd60e51b815260206004820152601160248201527f4578697374206c696d6974206f726465720000000000000000000000000000006044820152fd5b606460405162461bcd60e51b815260206004820152600e60248201527f457869737420706f736974696f6e0000000000000000000000000000000000006044820152fd5b503461027c57604060031936011261027c5760043567ffffffffffffffff81116108f35761143390369060040161278e565b906024359067ffffffffffffffff821161027c5760606114608461145a366004870161290a565b90612cf8565b90604051928352151560208301526040820152f35b503461027c57604060031936011261027c578060043567ffffffffffffffff8111610426576114a8903690600401612749565b6114be6001600160a01b03601454163314612bed565b6001600160a01b03825416803b156104245761151583929183926040519485809481937f2f1cc4d000000000000000000000000000000000000000000000000000000000835260406004840152604483019061262b565b602435602483015203925af18015610413576113685750f35b503461027c57602060031936011261027c5760043561154b6136e8565b80156116ff5760045490600182018092116116eb57816004553383526017602052611578604084206151c4565b8391825b82518410156115b3576115ab6001916115958686612a08565b518852601d602052600260408920015490612a7a565b93019261157c565b9084816115cd889433865260166020526040862054612a50565b106116a7576115e790338452601760205260408420615523565b506115f36004546154ac565b5060ff6005600454926040519061160982612682565b3382526020820190858252604083019081526060830190878252608084019242845260a0850197600189528952601d6020526001600160a01b038060408b20965116166001600160a01b03198654161785555160018501555160028401555160038301555160048201550191511660ff1982541617905560017f9b779b17422d0df92223018b32b4d1fa46e071723d6817e2486d003becc55f005580f35b606460405162461bcd60e51b815260206004820152601d60248201527f496e73756666696369656e7420617661696c61626c65207368617265730000006044820152fd5b602483634e487b7160e01b81526011600452fd5b606460405162461bcd60e51b815260206004820152600d60248201527f7368617265206973207a65726f000000000000000000000000000000000000006044820152fd5b50610279611750366128aa565b906117676001600160a01b03600354163314612aba565b612b2b565b50606060031936011261027c576004359060243567ffffffffffffffff81116108f35761179d90369060040161278e565b60443567ffffffffffffffff81116108f7576117bd90369060040161280d565b6117c56136e8565b8415611db1576117da91610e0191369161283e565b5090600f548015600014611d8d57508342600a555b338452601660205260408420611806828254612a7a565b905561181481600f54612a7a565b600f55338452601860205260ff60408520541615611b9e575b6118e79484806001600160a01b03601554166001600160a01b03825416828560409b8c936118d97fffffffff000000000000000000000000000000000000000000000000000000006018602088516118858a826126f2565b828152017f617070726f766528616464726573732c75696e743235362900000000000000008152201695519384926020840197885260248401602090939291936001600160a01b0360408201951681520152565b03601f1981018352826126f2565b51925af16118f3612f34565b81611b67575b501561041e57846001600160a01b0360155416611916838261520f565b9081151580611b5e575b80611b55575b611a4e575b5050546001600160a01b0316803b15611a4a5785809160248951809481937fb6b55f250000000000000000000000000000000000000000000000000000000083528760048401525af18015611a4057908691611a2b575b505061199081601154612967565b60115560045460018101809111611a1757957f613128987cba7a2073cf49ff02fbbe4e3728a0cf7ed9f8942569818fd0cfd66e926101209288610b0598996004556001600160a01b03601554168451946001865230602087015233908601526060850152608084015260a083015260c08201524260e08201526002610100820152a1613a0d565b602486634e487b7160e01b81526011600452fd5b81611a35916126f2565b61041e578438611982565b87513d88823e3d90fd5b8580fd5b8291827fffffffff0000000000000000000000000000000000000000000000000000000060258c7f7432353629000000000000000000000000000000000000000000000000000000815191611aa46060846126f2565b83835260208301927f7472616e7366657246726f6d28616464726573732c616464726573732c75696e845201522016918b519060208201938452336024830152306044830152606482015260648152611afe6084826126f2565b51925af1611b0a612f34565b81611b1e575b501561041e5784388061192b565b8051801592508215611b33575b505038611b10565b8192509060209181010312611a4a576020611b4e9101612c5e565b3880611b2b565b50301515611926565b50331515611920565b8051801592508215611b7c575b5050386118f9565b8192509060209181010312611a4a576020611b979101612c5e565b3880611b74565b338452601860205260408420600160ff19825416179055601b5468010000000000000000811015611d7957806001611bd99201601b55612a87565b81549060031b906001600160a01b0333831b921b1916179055338452601e602052604084205415611c90575b6001600160a01b036003541694853b1561041e576040517fae5e55e60000000000000000000000000000000000000000000000000000000081523360048201523060248201529585908790604490829084905af1958615611c85576118e796611c71575b50945061182d565b85611c7e919692966126f2565b9338611c69565b6040513d87823e3d90fd5b604051611c9c8161269e565b33815260208101428152601c5468010000000000000000811015611d6557806001611cca9201601c556129d3565b929092611d5257906001600160a01b03806001935116166001600160a01b031984541617835551910155601c54338552601e60205260408520557f25721861c38b8c48f6705fecaea93b5de674735f1628fa9898ed0a89184aa25c60405180611d4a423383602090939291936001600160a01b0360408201951681520152565b0390a1611c05565b602487634e487b7160e01b815280600452fd5b602487634e487b7160e01b81526041600452fd5b602485634e487b7160e01b81526041600452fd5b611dac90611da7611d9e8585612cf8565b50509187612a5d565b612a70565b6117ef565b606460405162461bcd60e51b815260206004820152600e60248201527f616d6f756e74206973207a65726f0000000000000000000000000000000000006044820152fd5b503461027c578060031936011261027c576001600160a01b036020915416604051908152f35b503461027c578060031936011261027c576020600854604051908152f35b503461027c578060031936011261027c5760206001600160a01b0360145416604051908152f35b503461027c57602060031936011261027c576001600160a01b03611e826125ed565b163081036120d75750611e93615179565b8051601f19611eba611ea483612715565b92611eb260405194856126f2565b808452612715565b01835b818110612095575050825b8251811015611fc35780611ede60019285612a08565b518552601d6020526040852060a060405191611ef983612682565b6001600160a01b03815416928381528582015480602083015260028301549081604084015260038401549283606082015260ff6005600487015496876080850152015416958691015260405195611f4f87612650565b8652602086015260408501526060840152608083015260a08201526040611f78815191826126f2565b600281527f6f6b000000000000000000000000000000000000000000000000000000000000602082015260c0820152611fb18285612a08565b52611fbc8184612a08565b5001611ec8565b81846040519182916020830160208452825180915260408401602060408360051b870101940192905b828210611ffb57505050500390f35b91936020612085827fffffffffffffffffffffffffffffffffffffffffffffffffffffffffffffffc0600195979984950301865260e060c08a516001600160a01b038151168452858101518685015260408101516040850152606081015160608501526080810151608085015260ff60a08201511660a08501520151918160c0820152019061262b565b9601920192018594939192611fec565b6020906040516120a481612650565b86815286838201528660408201528660608201528660808201528660a0820152606060c082015282828601015201611ebd565b815260176020526120ea604082206151c4565b611e93565b503461027c578060031936011261027c576020600954604051908152f35b503461027c5760e060031936011261027c576121276125ed565b6024356001600160a01b0381168091036108f757604435906001600160a01b038216809203610d9c576064356001600160a01b03811680910361041e57608435906001600160a01b038216809203611a4a5760a435906001600160a01b038216809203610662577ff0c57e16840df040f15088dc2f81fe391c3923bec73e23a9662efc9c229c6a00549560ff8760401c16159667ffffffffffffffff8116801590816124ec575b60011490816124e2575b1590816124d9575b506124b15791612293602092848a60017fffffffffffffffffffffffffffffffffffffffffffffffff000000000000000060049816177ff0c57e16840df040f15088dc2f81fe391c3923bec73e23a9662efc9c229c6a005561245c575b50612246615120565b61224e615120565b61225733613548565b61225f615120565b612267615120565b60017f9b779b17422d0df92223018b32b4d1fa46e071723d6817e2486d003becc55f00556102a4614a92565b806001600160a01b03198a5416178955604051928380927f2ca430510000000000000000000000000000000000000000000000000000000082525afa8015612451578790612411575b6001600160a01b039150166001600160a01b031960155416176015556001600160a01b031960015416176001556001600160a01b031960025416176002556001600160a01b0319601454161760145560c4356005556001600160a01b03196003541617600355620151806008556201518060065562093a80600755600160095542600b5542600e5561237362015180420642612a50565b600d5561237d5780f35b7fffffffffffffffffffffffffffffffffffffffffffffff00ffffffffffffffff7ff0c57e16840df040f15088dc2f81fe391c3923bec73e23a9662efc9c229c6a0054167ff0c57e16840df040f15088dc2f81fe391c3923bec73e23a9662efc9c229c6a00557fc7f505b2f371ae2175ee4913f4499e1f2633a7b5936321eed1cdaeb6115181d2602060405160018152a180f35b506020813d602011612449575b8161242b602093836126f2565b81010312610662576124446001600160a01b0391612a1c565b6122dc565b3d915061241e565b6040513d89823e3d90fd5b7fffffffffffffffffffffffffffffffffffffffffffffff0000000000000000001668010000000000000001177ff0c57e16840df040f15088dc2f81fe391c3923bec73e23a9662efc9c229c6a00553861223d565b6004897ff92ee8a9000000000000000000000000000000000000000000000000000000008152fd5b905015386121e0565b303b1591506121d8565b8991506121ce565b503461027c578060031936011261027c57601c5461251181612715565b9161251f60405193846126f2565b818352601f1961252e83612715565b013660208501375b81811061254b576040518061047785826125aa565b806001600160a01b0361255f6001936129d3565b50541661256c8286612a08565b5201612536565b503461027c578060031936011261027c5760206107476129b2565b9050346108f357816003193601126108f357602090600f548152f35b602060408183019282815284518094520192019060005b8181106125ce5750505090565b82516001600160a01b03168452602093840193909201916001016125c1565b600435906001600160a01b038216820361260357565b600080fd5b60005b83811061261b5750506000910152565b818101518382015260200161260b565b90601f19601f60209361264981518092818752878088019101612608565b0116010190565b60e0810190811067ffffffffffffffff82111761266c57604052565b634e487b7160e01b600052604160045260246000fd5b60c0810190811067ffffffffffffffff82111761266c57604052565b6040810190811067ffffffffffffffff82111761266c57604052565b6080810190811067ffffffffffffffff82111761266c57604052565b60a0810190811067ffffffffffffffff82111761266c57604052565b90601f601f19910116810190811067ffffffffffffffff82111761266c57604052565b67ffffffffffffffff811161266c5760051b60200190565b67ffffffffffffffff811161266c57601f01601f191660200190565b81601f82011215612603576020813591016127638261272d565b9261277160405194856126f2565b828452828201116126035781600092602092838601378301015290565b9080601f830112156126035781356127a581612715565b926127b360405194856126f2565b81845260208085019260051b820101918383116126035760208201905b8382106127df57505050505090565b813567ffffffffffffffff81116126035760209161280287848094880101612749565b8152019101906127d0565b9181601f840112156126035782359167ffffffffffffffff8311612603576020808501948460051b01011161260357565b92919061284a81612715565b9361285860405195866126f2565b602085838152019160051b8101918383116126035781905b83821061287e575050505050565b813567ffffffffffffffff81116126035760209161289f8784938701612749565b815201910190612870565b9060406003198301126126035760043567ffffffffffffffff811161260357826128d69160040161278e565b916024359067ffffffffffffffff82116126035780602383011215612603578160246129079360040135910161283e565b90565b9080601f8301121561260357813561292181612715565b9261292f60405194856126f2565b81845260208085019260051b82010192831161260357602001905b8282106129575750505090565b813581526020918201910161294a565b9190916000838201938412911290801582169115161761298357565b634e487b7160e01b600052601160045260246000fd5b8181039291600013801582851316918412161761298357565b6129076129ca6129c0613607565b5160125490612967565b60115490612999565b601c548110156129f257601c60005260206000209060011b0190600090565b634e487b7160e01b600052603260045260246000fd5b80518210156129f25760209160051b010190565b51906001600160a01b038216820361260357565b8115612a3a570690565b634e487b7160e01b600052601260045260246000fd5b9190820391821161298357565b8181029291811591840414171561298357565b8115612a3a570490565b9190820180921161298357565b601b548110156129f257601b60005260206000200190600090565b80548210156129f25760005260206000200190600090565b15612ac157565b608460405162461bcd60e51b815260206004820152602660248201527f4f6e6c7920666163746f72792063616e2065786563757465207468697320667560448201527f6e6374696f6e00000000000000000000000000000000000000000000000000006064820152fd5b90612b369082613761565b9091600f548015612be757612b4b8483612cf8565b5050670de0b6b3a7640000810290808204670de0b6b3a7640000149015171561298357670429d069189e000091612b8191612a70565b1015612ba357612b94612ba19382613b32565b612b9c61419f565b6143b6565b565b606460405162461bcd60e51b815260206004820152601a60248201527f6e65742076616c7565206973206d6f7265207468656e20302e330000000000006044820152fd5b50505050565b15612bf457565b608460405162461bcd60e51b815260206004820152602560248201527f4f6e6c79207472616465722063616e206578656375746520746869732066756e60448201527f6374696f6e0000000000000000000000000000000000000000000000000000006064820152fd5b5190811515820361260357565b9080602083519182815201916020808360051b8301019401926000915b838310612c9757505050505090565b9091929394602080612cb583601f198660019603018752895161262b565b97019301930191939290612c88565b906020808351928381520192019060005b818110612ce25750505090565b8251845260209384019390920191600101612cd5565b90918151835103612e5657612d9192612d0f613607565b5192612d19614627565b80151580612e4d575b612e37575b5090604091612d7f6001600160a01b0360025416918451978894859384937f9aa59c65000000000000000000000000000000000000000000000000000000008552306004860152606060248601526064850190612c6b565b90600319848303016044850152612cc4565b03915afa918215612e2b576000938493612de8575b50828415612dbe575082612db991612a7a565b929190565b9250909250818111612dd7575050600090600090600090565b81612de191612a50565b9160009190565b939092506040843d604011612e23575b81612e05604093836126f2565b8101031261027c57506020612e1984612c5e565b9301519138612da6565b3d9150612df8565b6040513d6000823e3d90fd5b612e45906040939295612a50565b939091612d27565b50808511612d22565b608460405162461bcd60e51b815260206004820152602160248201527f7072696365204172726179206c656e677468732061726520646966666572656e60448201527f74000000000000000000000000000000000000000000000000000000000000006064820152fd5b80612ec9613505565b14612f1657600052601f6020526040600020606060405192612eea846126ba565b825480855260018401549485602082015260036002860154958660408401520154938491015293929190565b50612f1f6129b2565b600f5491612f2b613607565b51919291904290565b3d15612f5f573d90612f458261272d565b91612f5360405193846126f2565b82523d6000602084013e565b606090565b15612f6b57565b606460405162461bcd60e51b815260206004820152600f60248201527f7472616e73666572206661696c656400000000000000000000000000000000006044820152fd5b94939092919261312957612fde91610e0191612fd76001600160a01b03601454163314612bed565b369161283e565b939092612feb8484612cf8565b6020612ff994939294613607565b01519315613105575b50670de0b6b3a7640000810290808204670de0b6b3a7640000149015171561298357600f5461303091612a70565b9260005b81518110156130ec576130478183612a08565b519384600052601d602052670de0b6b3a76400006130b887604060002060405161307081612682565b6001600160a01b0382541681526001820154602082015260a060ff60056002850154948560408601526003810154606086015260048101546080860152015416910152612a5d565b04908181106130e0578988886130d4600196956130da95612a50565b98614664565b01613034565b50505050945050505050565b50509492915050613100612ba19382613a0d565b614974565b909281811061311f579061311891612a50565b9138613002565b5050945050505050565b5050509060005b81518110156132bb576131438183612a08565b519081600052601d60205260406000209160405161316081612682565b6001600160a01b038454168152600184015460208201526002840154916040820192835260ff6005600387015496606085019788526004810154608086015201541660a083015280600052601d6020526005604060002001600360ff19825416179055336001600160a01b0383511603613277576001947f613128987cba7a2073cf49ff02fbbe4e3728a0cf7ed9f8942569818fd0cfd66e936001600160a01b036101209433600052601760205261321c85604060002061563c565b5061322685615582565b505116926001600160a01b03601554169251915192604051946000865230602087015260408601526060850152608084015260a083015260c08201524260e08201526003610100820152a101613130565b606460405162461bcd60e51b815260206004820152601060248201527f77726f6e672077697468647261776572000000000000000000000000000000006044820152fd5b5050346132c457565b612ba1600080808034335af16108d3612f34565b93926132ea9192610e0191369161283e565b90600091600093600854935b8751861015613371576133098689612a08565b51600052601d6020524261332586600460406000200154612a7a565b1161335b5761335260019161333a888b612a08565b51600052601d60205260026040600020015490612a7a565b955b01946132f6565b9480600061336b6001938b612a08565b52613354565b9450919490925083156134b9576133888583612cf8565b91670de0b6b3a7640000810290808204670de0b6b3a76400001490151715612983576133ca6133c3670de0b6b3a764000092600f5490612a70565b9788612a5d565b04916133e960206133d9613607565b01516133e3614627565b90612a50565b9115613498575b5010613445575b60005b8651811015613432578061341060019289612a08565b5185858883156134295761342393614664565b016133fa565b50505050613423565b509450909150613100612ba19382613a0d565b925061344f61419f565b6134598482613b32565b6134638482612cf8565b5050670de0b6b3a7640000810290808204670de0b6b3a7640000149015171561298357600f5461349291612a70565b926133f7565b808210156134ab57505060005b386133f0565b6134b491612a50565b6134a5565b945050505050565b906040516134ce8161269e565b6020600182946001600160a01b0381541684520154910152565b60005b8281106134f757505050565b6060828201526020016134eb565b6201518061352161351b600b5483810690612a50565b42612a50565b0490565b9060038210156135325752565b634e487b7160e01b600052602160045260246000fd5b6001600160a01b031680156135d8576001600160a01b037f9016d09d72d40fdae2fd8ceac6b6234c7706214fd39c1cd1e609a0528c19930054826001600160a01b03198216177f9016d09d72d40fdae2fd8ceac6b6234c7706214fd39c1cd1e609a0528c19930055167f8be0079c531659141344cd1fd0a4f28419497f9722a3daafe3b4186f6b6457e0600080a3565b7f1e4fbdf700000000000000000000000000000000000000000000000000000000600052600060045260246000fd5b60006080604051613617816126d6565b8281528260208201528260408201528260608201520152602460a06001600160a01b0360005416604051928380927ffb47e0160000000000000000000000000000000000000000000000000000000082523060048301525afa908115612e2b57600091613682575090565b905060a0813d60a0116136e0575b8161369d60a093836126f2565b81010312612603576080604051916136b4836126d6565b805183526020810151602084015260408101516040840152606081015160608401520151608082015290565b3d9150613690565b60027f9b779b17422d0df92223018b32b4d1fa46e071723d6817e2486d003becc55f0054146137375760027f9b779b17422d0df92223018b32b4d1fa46e071723d6817e2486d003becc55f0055565b7f3ee5aeb50000000000000000000000000000000000000000000000000000000060005260046000fd5b80518251036139c95790613776825134612a70565b90613782835134612a30565b90805190601f196137ab61379584612715565b936137a360405195866126f2565b808552612715565b0136602084013781938151966137e9601f196137df6137c98b612715565b9a6137d76040519c8d6126f2565b808c52612715565b0160208a016134e8565b879660209660005b8251808210156139bc57600019810190811161298357889082146139ab575b50613868896001600160a01b036003541661382b8487612a08565b519060405180809581947f299ae753000000000000000000000000000000000000000000000000000000008352866004840152602483019061262b565b03915afa8015612e2b578a91600091613967575b50906138d483926138956001600160a01b03958b612a08565b51896040519687809581947fb3d316c100000000000000000000000000000000000000000000000000000000835260406004840152604483019061262b565b600060248301520393165af1918215612e2b578c92898c92600092613930575b5060019461391e92613907868094612a08565b5261391560405194856126f2565b60008452612a08565b52613929818d612a08565b50016137f1565b939450509082813d8311613960575b61394981836126f2565b8101031261027c5750518b91908a908960016138f4565b503d61393f565b9182813d83116139a4575b61397c81836126f2565b8101031261027c575090896138d461399b6001600160a01b0394612a1c565b9192935061387c565b503d613972565b6139b59195612a7a565b9387613810565b5050985050945050505050565b606460405162461bcd60e51b815260206004820152602060248201527f496e636f6e73697374656e74207072696365206172726179206c656e677468736044820152fd5b90600390613a36613a2361351b60065442612a30565b9182600d55613a306129b2565b94612cf8565b50506001600160a01b03601454167fb5121494a0c161c71fbcd1118720df538d3e47bbe3d6c4ce5631034ad18665ca60e06001600160a01b036015541692600f549360405191308352602083015260408201528760608201528360808201528460a08201528560c0820152a160405194613aaf866126ba565b8552602085019081526040850191825260608501928352613ace613505565b600052601f60205260406000209451855551600185015551600284015551910155565b60405190613afe82612682565b600060a083606081528260208201528260408201528260608201528260808201520152565b60001981146129835760010190565b9190916004600093846001600160a01b03815416604051938480927fcd2ce4ae0000000000000000000000000000000000000000000000000000000082525afa918215611c855785926140a2575b508151908160011b917f7fffffffffffffffffffffffffffffffffffffffffffffffffffffffffffffff811603611a1757601f19613bc061379584612715565b01865b81811061408b575050856001600160a01b0360015416936001600160a01b0360025416915b8151811015613f305760005b60028110613c055750600101613be8565b9693613c5e946080613c1c848695969a999a612a08565b51604051809881927f0c8c351600000000000000000000000000000000000000000000000000000000835230600484015260606024840152606483019061262b565b8c604483015203818a5afa958615612e2b57600096613ed0575b50613c81613af1565b96865115613ebf5760009a8b5b8351811015613ea457613ca18185612a08565b51604051613cd060208281613cbf8183019687815193849201612608565b81010301601f1981018352826126f2565b519020613cdd8888612a08565b51604051613cfb60208281613cbf8183019687815193849201612608565b51902014613d0b57600101613c8e565b8498919c509a6040613d7c829f959d613d2c9060ff969e9d989a999a612a08565b51925b613d39898b612a08565b5190835196879384937f721db56200000000000000000000000000000000000000000000000000000000855230600486015260806024860152608485019061262b565b9186604485015216606483015203818b5afa918215612e2b576000938493613e66575b50613dbe6020670de0b6b3a7640000928460608a015201928351612a5d565b046080860152613dce8688612a08565b518552602085018e90525160408501528115613e1657509082613e0e9260a060019501525b613dfd828a612a08565b52613e088189612a08565b50613b23565b995b01613bf4565b809150613e2b575b50613e0e90600192613df3565b907f800000000000000000000000000000000000000000000000000000000000000082146129835760009190910360a0830152613e0e613e1e565b939092506040843d8211613e9c575b81613e82604093836126f2565b8101031261027c5750825160209093015191613dbe613d9f565b3d9150613e75565b509a9660ff91999893976040613d7c8d9f959d989798613d2f565b979650976001919550929192613e10565b90956080823d8211613f28575b81613eea608093836126f2565b8101031261027c5750606060405191613f02836126ba565b805183526020810151602084015260408101516040840152015160608201529438613c78565b3d9150613edd565b50505050915050613f429192506152b8565b90602060005b8351811015614085576040613f5d8286612a08565b5101511561407d576001600160a01b036000541690613f7c8186612a08565b51516040613f8a8388612a08565b5101519284613f998489612a08565b510151906001820180921161298357600382101561353257604051613fbe87826126f2565b60008152813b15612603576000809461405161403498614018946040519a8b98899788967fe5978686000000000000000000000000000000000000000000000000000000008852610100600489015261010488019061262b565b9360248701528660448701528660648701526084860190613525565b4260a48501524260c48501526003198483030160e485015261262b565b03925af1918215612e2b5760019261406c575b505b01613f48565b6000614077916126f2565b38614064565b600190614066565b50509050565b602090614096613af1565b82828701015201613bc3565b9091503d8086833e6140b481836126f2565b810190602081830312611a4a5780519067ffffffffffffffff8211610662570181601f82011215611a4a578051906140eb82612715565b926140f960405194856126f2565b82845260208085019360051b8301019181831161419b5760208101935b8385106141295750505050509038613b80565b845167ffffffffffffffff81116141975782019083603f83011215614197576020820151906141578261272d565b61416460405191826126f2565b82815260408484010186106141935761418860209493859460408685019101612608565b815201940193614116565b8c80fd5b8a80fd5b8880fd5b47600154906001600160a01b03600080936024604051809481937f6f4907cb000000000000000000000000000000000000000000000000000000008352306004840152165afa9081156142a25783916142ad575b506001600160a01b0383541690813b15610d9c5761424b849283926040519485809481937fb55fb574000000000000000000000000000000000000000000000000000000008352602060048401526024830190612cc4565b03925af180156142a25761428c575b506142659047612a50565b908161426f575050565b808080612ba1946001600160a01b03601454165af16108d3612f34565b9161429b8161426593946126f2565b919061425a565b6040513d85823e3d90fd5b90503d8084833e6142be81836126f2565b810190602081830312610d9c5780519067ffffffffffffffff821161041e57019080601f83011215610d9c5781516142f581612715565b9261430360405194856126f2565b81845260208085019260051b820101928311611a4a57602001905b82821061432e57505050386141f3565b815181526020918201910161431e565b91614356918352606060208401526060830190612c6b565b906040818303910152815180825260208201916020808360051b8301019401926000915b83831061438957505050505090565b90919293946020806143a783601f198660019603018752895161262b565b9701930193019193929061437a565b6143be613607565b5191600092808061443e575b50505050601b5481601b55806143de575050565b601b82527f3ad8aa4f87544323a9d1e5dd902f40c356527a7955687113db5f9a85ad579dc101907f3ad8aa4f87544323a9d1e5dd902f40c356527a7955687113db5f9a85ad579dc15b82811061443357505050565b818155600101614427565b61444c959192939495614627565b90818111614614575b505081926001600160a01b03865416803b15610662578660405180926352065a6560e11b825281838161448d888d8c6004850161433e565b03925af1801561245157614600575b506144a983601254612967565b601255855b601b548110156145e4576001600160a01b036144c982612a87565b90549060031b1c1680885260166020526040882054806144ee575b50506001016144ae565b90956145066144fd8784612a5d565b600f5490612a70565b90818111156145db578161451991612a50565b965b61453182826001600160a01b0360155416615396565b60045492600184018094116145c757600484905560155460408051600081523060208201526001600160a01b039485169181019190915292166060830152608082019390935260a081019190915260c08101919091524260e08201526002610100820152600191907f613128987cba7a2073cf49ff02fbbe4e3728a0cf7ed9f8942569818fd0cfd66e9061012090a190386144e4565b60248b634e487b7160e01b81526011600452fd5b9050889661451b565b50915093926145f7925083600f55614974565b388080806143ca565b8661460d919792976126f2565b943861449c565b61461f929350612a50565b903880614455565b6010549061463f6146366129b2565b60135490612999565b6000811361464a5750565b91606461465e612907939460055490612a5d565b04612a7a565b91939293600094838652601d602052604086209186670de0b6b3a76400006146db6040519661469288612682565b6001600160a01b03875416885260018701546020890152600287015460ff600560408b0199838b52600381015460608d0152600481015460808d015201541660a08a0152612a5d565b0492868252601d602052836003604084200155868252601d60205260056040832001600260ff1982541617905561471484601254612967565b6012556001600160a01b03825416803b156108f75761474b93836040518096819582946352065a6560e11b84528a6004850161433e565b03925af1801561245157614938575b50907f613128987cba7a2073cf49ff02fbbe4e3728a0cf7ed9f8942569818fd0cfd66e84836147a361482c956001600160a01b03601554166001600160a01b0389511690615396565b8551601554855160408051600081523060208201526001600160a01b0394851691810191909152929091166060830152608082019390935260a081019190915260c08101919091524260e0820152600261010082015261012090a180516001600160a01b038451168752601660205261482160408820918254612a50565b905551600f54612a50565b600f556001600160a01b0381511684526016602052604084205415614878575b81604061487594956001600160a01b0361486f945116815260176020522061563c565b50615582565b50565b61488b6001600160a01b03825116614fb2565b6001600160a01b03815116845260186020526040842060ff198154169055836001600160a01b03600354166001600160a01b03835116813b156108f7576040517fdf51a5f60000000000000000000000000000000000000000000000000000000081526001600160a01b0391909116600482015230602482015291908290604490829084905af18015611c8557614923575b5061484c565b61492e8580926126f2565b610d9c573861491d565b848761496a61482c9594997f613128987cba7a2073cf49ff02fbbe4e3728a0cf7ed9f8942569818fd0cfd66e946126f2565b979293505061475a565b90600f54614a8e578151614a7e575b5050614a0f6001600160a01b03601454167f9b4c8df72cad1b37ef25dc4ebc8cf34f53d771a1182c1740ddeb9092b783b2486101206001600160a01b03601554169260095493600a54600c546011549160125493604051953087526020870152604086015287606086015260808501524260a085015260c084015260e0830152610100820152a1613b23565b6009556000600c55600060105560006011556000601255600060135560209060405191614a3c81846126f2565b6000835260009281810193805b818110614a715750612ba193945060405192614a6581856126f2565b81845250368137613a0d565b6060868201528301614a49565b614a8791614e17565b3880614983565b5050565b6001600160a01b037f9016d09d72d40fdae2fd8ceac6b6234c7706214fd39c1cd1e609a0528c19930054163303614ac557565b7f118cdaa7000000000000000000000000000000000000000000000000000000006000523360045260246000fd5b90614b03600e5460075490612a7a565b4210614a8e57600491600091614b17613607565b9060606001600160a01b0360035416604051968780927ff50200570000000000000000000000000000000000000000000000000000000082525afa918215614d565784958593614dd2575b50600f54614d61575192836010555b83614b85575b505050505050612ba16156f8565b6001600160a01b0385541690813b15611a4a57918591614bbd93836040518096819582946352065a6560e11b84528b6004850161433e565b03925af18015614d5657614d42575b508192614bdb83600c54612a7a565b600c55614bea83601054612a50565b60105584151580614d30575b614c9c575b505050809150614c10575b8080808080614b77565b60c081614c567fec8a6a314616a4d51166ad3a4e6be5168d099641abcf820dab1093cfef7a7cc1936001600160a01b03601554166001600160a01b036014541690615396565b6001600160a01b0360145416906001600160a01b036015541690601054916040519330855260208501526040840152606083015260808201524260a0820152a138614c06565b7fec8a6a314616a4d51166ad3a4e6be5168d099641abcf820dab1093cfef7a7cc19350614cd96064614cd1859760c096612a5d565b048096612a50565b94614cf081846001600160a01b0360155416615396565b6001600160a01b03601554166001600160a01b03604051943086521660208501526040840152606083015260808201524260a0820152a180388080614bfb565b506001600160a01b0382161515614bf6565b83614d4f919492946126f2565b9138614bcc565b6040513d86823e3d90fd5b614d696129b2565b601354811315614dc057614da06064614d97602093614d8a60135482612999565b9060135560055490612a5d565b04601054612a7a565b91826010550151818111600014614db957505b92614b71565b9050614db3565b95505050505050601355612ba16156f8565b955091506060853d606011614e0f575b81614def606093836126f2565b81010312610d9c57614e08604060208701519601612a1c565b9138614b62565b3d9150614de2565b90600491600091600090614e29613607565b60606001600160a01b0360035416604051978880927ff50200570000000000000000000000000000000000000000000000000000000082525afa928315614fa65780968194614f61575b50600f54614f0357505192836010555b83614e9657505050505050612ba16156f8565b6001600160a01b036000541691823b1561260357614ecf92600092836040518096819582946352065a6560e11b84528b6004850161433e565b03925af18015612e2b57614eec57508192614bdb83600c54612a7a565b614efa9193506000906126f2565b60009138614bcc565b614f0b6129b2565b601354811315614f4e57614f2c6064614d97602093614d8a60135482612999565b928360105501519050818111600014614f4757505b92614e83565b9050614f41565b9650505050505050601355612ba16156f8565b965092506060863d606011614f9e575b81614f7e606093836126f2565b810103126108f757614f97604060208801519701612a1c565b9238614e73565b3d9150614f71565b604051903d90823e3d90fd5b6001600160a01b03811680600052601e60205260406000205480614fd557505050565b601c546000198101908111612983578082036150a2575b5050601c54801561508c576000190191615005836129d3565b929092615076577f3ddbb648aaeaaabce96671fb64baf7032313b7a0ef5c7083332fab22b28b481b9360006001858261507197550155601c55600052601e60205260006040812055604051918291429083602090939291936001600160a01b0360408201951681520152565b0390a1565b634e487b7160e01b600052600060045260246000fd5b634e487b7160e01b600052603160045260246000fd5b6150ab816129d3565b506000198301838111612983576150c1906129d3565b9290926150765782826150e4936001600160a01b0395036150fc575b50506129d3565b505416600052601e6020526040600020553880614fec565b805482546001600160a01b03191690861617825560019081015491015538806150dd565b60ff7ff0c57e16840df040f15088dc2f81fe391c3923bec73e23a9662efc9c229c6a005460401c161561514f57565b7fd7e6bcf80000000000000000000000000000000000000000000000000000000060005260046000fd5b604051906019548083528260208101601960005260206000209260005b8181106151ab575050612ba1925003836126f2565b8454835260019485019487945060209093019201615196565b906040519182815491828252602082019060005260206000209260005b8181106151f6575050612ba1925003836126f2565b84548352600194850194879450602090930192016151e1565b60206001600160a01b03916004604051809481937f313ce567000000000000000000000000000000000000000000000000000000008352165afa908115612e2b5760009161527b575b5060ff16604d811161298357670de0b6b3a76400009161352191600a0a90612a5d565b6020813d6020116152b0575b81615294602093836126f2565b810103126108f357519060ff8216820361027c575060ff615258565b3d9150615287565b908151600181111561487557600090600019810190811192835b612983578183101561539057600090845b61298357846152f28585612a50565b831015615383575060a06153068388612a08565b5101516001830192838111612983578360019260a06153268a978c612a08565b51015113615337575b5001916152e3565b61537c90615345838b612a08565b5160008b61535e866153578684612a08565b5192612a08565b52615369858d612a08565b5050615375828c612a08565b5289612a08565b503861532f565b93600191925001926152d2565b92505050565b90916153a2908261520f565b908115158061549a575b6153b557505050565b6000928380936154496040936118d97fffffffff000000000000000000000000000000000000000000000000000000006019602088516153f58a826126f2565b828152017f7472616e7366657228616464726573732c75696e7432353629000000000000008152201695519384926020840197885260248401602090939291936001600160a01b0360408201951681520152565b51925af1615455612f34565b81615463575b501561260357565b8051801592508215615478575b50503861545b565b81925090602091810103126126035760206154939101612c5e565b3880615470565b506001600160a01b03831615156153ac565b80600052601a6020526040600020541560001461551d576019546801000000000000000081101561266c576155046154ed8260018594016019556019612aa2565b81939154906000199060031b92831b921b19161790565b905560195490600052601a602052604060002055600190565b50600090565b600181019082600052816020526040600020541560001461557a5780546801000000000000000081101561266c576155656154ed826001879401855584612aa2565b90555491600052602052604060002055600190565b505050600090565b6000818152601a6020526040902054801561563557600019810181811161298357601954906000198201918211612983578181036155fb575b505050601954801561508c57600019016155d6816019612aa2565b60001982549160031b1b19169055601955600052601a60205260006040812055600190565b61561d61560c6154ed936019612aa2565b90549060031b1c9283926019612aa2565b9055600052601a6020526040600020553880806155bb565b5050600090565b90600182019181600052826020526040600020548015156000146156ef576000198101818111612983578254906000198201918211612983578181036156b8575b5050508054801561508c5760001901906156978282612aa2565b60001982549160031b1b191690555560005260205260006040812055600190565b6156d86156c86154ed9386612aa2565b90549060031b1c92839286612aa2565b90556000528360205260406000205538808061567d565b50505050600090565b61570762015180420642612a50565b620151808104600381018091116129835760079006620151808102908082046201518014901517156129835761573c91612a50565b600e5556fea26469706673582212207bfc1a57f98d75a9fe29081eb3e5e3ed95e9718f42db2c4f7047d8cb337b977864736f6c634300081c0033",
  "linkReferences": {},
  "deployedLinkReferences": {}
}