{
  "_format": "hh-sol-artifact-1",
  "contractName": "LeadingContractFactory",
  "sourceName": "contracts/LeadingContractFactory.sol",
  "abi": [
    {
      "inputs": [],
      "name": "InvalidInitialization",
      "type": "error"
    },
    {
      "inputs": [],
      "name": "NotInitializing",
      "type": "error"
    },
    {
      "inputs": [
        {
          "internalType": "address",
          "name": "owner",
          "type": "address"
        }
      ],
      "name": "OwnableInvalidOwner",
      "type": "error"
    },
    {
      "inputs": [
        {
          "internalType": "address",
          "name": "account",
          "type": "address"
        }
      ],
      "name": "OwnableUnauthorizedAccount",
      "type": "error"
    },
    {
      "inputs": [],
      "name": "ReentrancyGuardReentrantCall",
      "type": "error"
    },
    {
      "anonymous": false,
      "inputs": [
        {
          "indexed": true,
          "internalType": "address",
          "name": "newImplementation",
          "type": "address"
        }
      ],
      "name": "ImplementationUpdated",
      "type": "event"
    },
    {
      "anonymous": false,
      "inputs": [
        {
          "indexed": false,
          "internalType": "uint64",
          "name": "version",
          "type": "uint64"
        }
      ],
      "name": "Initialized",
      "type": "event"
    },
    {
      "anonymous": false,
      "inputs": [
        {
          "indexed": true,
          "internalType": "address",
          "name": "trader",
          "type": "address"
        },
        {
          "indexed": true,
          "internalType": "address",
          "name": "token",
          "type": "address"
        },
        {
          "indexed": false,
          "internalType": "address",
          "name": "contractAddress",
          "type": "address"
        },
        {
          "indexed": false,
          "internalType": "uint256",
          "name": "status",
          "type": "uint256"
        }
      ],
      "name": "LeadingContractAudit",
      "type": "event"
    },
    {
      "anonymous": false,
      "inputs": [
        {
          "indexed": true,
          "internalType": "address",
          "name": "trader",
          "type": "address"
        },
        {
          "indexed": true,
          "internalType": "address",
          "name": "token",
          "type": "address"
        },
        {
          "indexed": false,
          "internalType": "address",
          "name": "contractAddress",
          "type": "address"
        }
      ],
      "name": "LeadingContractCreated",
      "type": "event"
    },
    {
      "anonymous": false,
      "inputs": [
        {
          "indexed": true,
          "internalType": "address",
          "name": "trader",
          "type": "address"
        },
        {
          "indexed": true,
          "internalType": "address",
          "name": "token",
          "type": "address"
        }
      ],
      "name": "LeadingContractInfoUpdated",
      "type": "event"
    },
    {
      "anonymous": false,
      "inputs": [
        {
          "indexed": true,
          "internalType": "address",
          "name": "trader",
          "type": "address"
        },
        {
          "indexed": true,
          "internalType": "address",
          "name": "token",
          "type": "address"
        },
        {
          "indexed": false,
          "internalType": "address",
          "name": "contractAddress",
          "type": "address"
        }
      ],
      "name": "LeadingContractRemoved",
      "type": "event"
    },
    {
      "anonymous": false,
      "inputs": [
        {
          "indexed": true,
          "internalType": "address",
          "name": "trader",
          "type": "address"
        },
        {
          "indexed": true,
          "internalType": "address",
          "name": "token",
          "type": "address"
        },
        {
          "indexed": false,
          "internalType": "uint256",
          "name": "contractIndex",
          "type": "uint256"
        },
        {
          "indexed": false,
          "internalType": "bool",
          "name": "isActive",
          "type": "bool"
        }
      ],
      "name": "LeadingContractStatusUpdated",
      "type": "event"
    },
    {
      "anonymous": false,
      "inputs": [
        {
          "indexed": true,
          "internalType": "address",
          "name": "previousOwner",
          "type": "address"
        },
        {
          "indexed": true,
          "internalType": "address",
          "name": "newOwner",
          "type": "address"
        }
      ],
      "name": "OwnershipTransferred",
      "type": "event"
    },
    {
      "stateMutability": "payable",
      "type": "fallback"
    },
    {
      "inputs": [
        {
          "internalType": "address[]",
          "name": "_traders",
          "type": "address[]"
        },
        {
          "internalType": "address[]",
          "name": "_tokens",
          "type": "address[]"
        },
        {
          "internalType": "bool",
          "name": "_pass",
          "type": "bool"
        }
      ],
      "name": "auditLeadingContract",
      "outputs": [],
      "stateMutability": "nonpayable",
      "type": "function"
    },
    {
      "inputs": [
        {
          "internalType": "address",
          "name": "_token",
          "type": "address"
        },
        {
          "internalType": "address",
          "name": "_trader",
          "type": "address"
        },
        {
          "internalType": "string[]",
          "name": "_symbols",
          "type": "string[]"
        },
        {
          "internalType": "bytes[]",
          "name": "_priceUpdates",
          "type": "bytes[]"
        }
      ],
      "name": "autoDeleteInactiveContract",
      "outputs": [],
      "stateMutability": "payable",
      "type": "function"
    },
    {
      "inputs": [],
      "name": "bManager",
      "outputs": [
        {
          "internalType": "contract IBManager",
          "name": "",
          "type": "address"
        }
      ],
      "stateMutability": "view",
      "type": "function"
    },
    {
      "inputs": [
        {
          "internalType": "address",
          "name": "_tokenAddress",
          "type": "address"
        },
        {
          "internalType": "string",
          "name": "_leadingProjectName",
          "type": "string"
        },
        {
          "internalType": "string",
          "name": "_leadingProjectDescription",
          "type": "string"
        }
      ],
      "name": "createLeadingContract",
      "outputs": [
        {
          "internalType": "address",
          "name": "",
          "type": "address"
        }
      ],
      "stateMutability": "nonpayable",
      "type": "function"
    },
    {
      "inputs": [
        {
          "internalType": "uint256",
          "name": "_days",
          "type": "uint256"
        }
      ],
      "name": "getAllLeadingContractInfo",
      "outputs": [
        {
          "components": [
            {
              "internalType": "address",
              "name": "contractAddress",
              "type": "address"
            },
            {
              "internalType": "address",
              "name": "traderAddress",
              "type": "address"
            },
            {
              "internalType": "string",
              "name": "traderName",
              "type": "string"
            },
            {
              "internalType": "string",
              "name": "traderDescription",
              "type": "string"
            },
            {
              "internalType": "address",
              "name": "tokenAddress",
              "type": "address"
            },
            {
              "internalType": "bool",
              "name": "isActive",
              "type": "bool"
            },
            {
              "internalType": "uint256",
              "name": "recentTotalShare",
              "type": "uint256"
            },
            {
              "internalType": "uint256",
              "name": "recentTotalBalance",
              "type": "uint256"
            },
            {
              "internalType": "uint256",
              "name": "pastTotalShare",
              "type": "uint256"
            },
            {
              "internalType": "uint256",
              "name": "pastTotalBalance",
              "type": "uint256"
            },
            {
              "internalType": "uint256",
              "name": "createTime",
              "type": "uint256"
            }
          ],
          "internalType": "struct LeadingContractFactory.LeadingContractInfo[]",
          "name": "",
          "type": "tuple[]"
        }
      ],
      "stateMutability": "view",
      "type": "function"
    },
    {
      "inputs": [
        {
          "internalType": "address",
          "name": "_trader",
          "type": "address"
        }
      ],
      "name": "getAllLeadingContractInfoByTrader",
      "outputs": [
        {
          "components": [
            {
              "internalType": "address",
              "name": "contractAddress",
              "type": "address"
            },
            {
              "internalType": "address",
              "name": "traderAddress",
              "type": "address"
            },
            {
              "internalType": "string",
              "name": "traderName",
              "type": "string"
            },
            {
              "internalType": "string",
              "name": "traderDescription",
              "type": "string"
            },
            {
              "internalType": "address",
              "name": "tokenAddress",
              "type": "address"
            },
            {
              "internalType": "bool",
              "name": "isActive",
              "type": "bool"
            },
            {
              "internalType": "uint256",
              "name": "recentTotalShare",
              "type": "uint256"
            },
            {
              "internalType": "uint256",
              "name": "recentTotalBalance",
              "type": "uint256"
            },
            {
              "internalType": "uint256",
              "name": "pastTotalShare",
              "type": "uint256"
            },
            {
              "internalType": "uint256",
              "name": "pastTotalBalance",
              "type": "uint256"
            },
            {
              "internalType": "uint256",
              "name": "createTime",
              "type": "uint256"
            }
          ],
          "internalType": "struct LeadingContractFactory.LeadingContractInfo[]",
          "name": "",
          "type": "tuple[]"
        }
      ],
      "stateMutability": "view",
      "type": "function"
    },
    {
      "inputs": [],
      "name": "getAllTraders",
      "outputs": [
        {
          "internalType": "address[]",
          "name": "",
          "type": "address[]"
        }
      ],
      "stateMutability": "view",
      "type": "function"
    },
    {
      "inputs": [],
      "name": "getDistributeProfitRate",
      "outputs": [
        {
          "internalType": "uint256",
          "name": "",
          "type": "uint256"
        },
        {
          "internalType": "uint256",
          "name": "",
          "type": "uint256"
        },
        {
          "internalType": "address",
          "name": "",
          "type": "address"
        }
      ],
      "stateMutability": "view",
      "type": "function"
    },
    {
      "inputs": [],
      "name": "getLeadingContractAddresses",
      "outputs": [
        {
          "internalType": "address[]",
          "name": "lists",
          "type": "address[]"
        }
      ],
      "stateMutability": "view",
      "type": "function"
    },
    {
      "inputs": [
        {
          "internalType": "address",
          "name": "trader",
          "type": "address"
        }
      ],
      "name": "getLeadingContractCount",
      "outputs": [
        {
          "internalType": "uint256",
          "name": "",
          "type": "uint256"
        }
      ],
      "stateMutability": "view",
      "type": "function"
    },
    {
      "inputs": [
        {
          "internalType": "address",
          "name": "_trader",
          "type": "address"
        },
        {
          "internalType": "address",
          "name": "_token",
          "type": "address"
        },
        {
          "internalType": "uint256",
          "name": "_days",
          "type": "uint256"
        }
      ],
      "name": "getLeadingContractInfo",
      "outputs": [
        {
          "components": [
            {
              "internalType": "address",
              "name": "contractAddress",
              "type": "address"
            },
            {
              "internalType": "address",
              "name": "traderAddress",
              "type": "address"
            },
            {
              "internalType": "string",
              "name": "traderName",
              "type": "string"
            },
            {
              "internalType": "string",
              "name": "traderDescription",
              "type": "string"
            },
            {
              "internalType": "address",
              "name": "tokenAddress",
              "type": "address"
            },
            {
              "internalType": "bool",
              "name": "isActive",
              "type": "bool"
            },
            {
              "internalType": "uint256",
              "name": "recentTotalShare",
              "type": "uint256"
            },
            {
              "internalType": "uint256",
              "name": "recentTotalBalance",
              "type": "uint256"
            },
            {
              "internalType": "uint256",
              "name": "pastTotalShare",
              "type": "uint256"
            },
            {
              "internalType": "uint256",
              "name": "pastTotalBalance",
              "type": "uint256"
            },
            {
              "internalType": "uint256",
              "name": "createTime",
              "type": "uint256"
            }
          ],
          "internalType": "struct LeadingContractFactory.LeadingContractInfo",
          "name": "",
          "type": "tuple"
        }
      ],
      "stateMutability": "view",
      "type": "function"
    },
    {
      "inputs": [
        {
          "internalType": "address",
          "name": "_contractAddress",
          "type": "address"
        }
      ],
      "name": "getLeadingContractInfoByAddress",
      "outputs": [
        {
          "components": [
            {
              "internalType": "address",
              "name": "contractAddress",
              "type": "address"
            },
            {
              "internalType": "address",
              "name": "traderAddress",
              "type": "address"
            },
            {
              "internalType": "string",
              "name": "traderName",
              "type": "string"
            },
            {
              "internalType": "string",
              "name": "traderDescription",
              "type": "string"
            },
            {
              "internalType": "address",
              "name": "tokenAddress",
              "type": "address"
            },
            {
              "internalType": "bool",
              "name": "isActive",
              "type": "bool"
            },
            {
              "internalType": "uint256",
              "name": "recentTotalShare",
              "type": "uint256"
            },
            {
              "internalType": "uint256",
              "name": "recentTotalBalance",
              "type": "uint256"
            },
            {
              "internalType": "uint256",
              "name": "pastTotalShare",
              "type": "uint256"
            },
            {
              "internalType": "uint256",
              "name": "pastTotalBalance",
              "type": "uint256"
            },
            {
              "internalType": "uint256",
              "name": "createTime",
              "type": "uint256"
            }
          ],
          "internalType": "struct LeadingContractFactory.LeadingContractInfo",
          "name": "",
          "type": "tuple"
        }
      ],
      "stateMutability": "view",
      "type": "function"
    },
    {
      "inputs": [
        {
          "internalType": "address",
          "name": "trader",
          "type": "address"
        }
      ],
      "name": "getLeadingContracts",
      "outputs": [
        {
          "internalType": "address[]",
          "name": "",
          "type": "address[]"
        }
      ],
      "stateMutability": "view",
      "type": "function"
    },
    {
      "inputs": [],
      "name": "getPendingLeadingContracts",
      "outputs": [
        {
          "components": [
            {
              "internalType": "address",
              "name": "contractAddress",
              "type": "address"
            },
            {
              "internalType": "address",
              "name": "traderAddress",
              "type": "address"
            },
            {
              "internalType": "string",
              "name": "traderName",
              "type": "string"
            },
            {
              "internalType": "string",
              "name": "traderDescription",
              "type": "string"
            },
            {
              "internalType": "address",
              "name": "tokenAddress",
              "type": "address"
            },
            {
              "internalType": "bool",
              "name": "isActive",
              "type": "bool"
            },
            {
              "internalType": "uint256",
              "name": "recentTotalShare",
              "type": "uint256"
            },
            {
              "internalType": "uint256",
              "name": "recentTotalBalance",
              "type": "uint256"
            },
            {
              "internalType": "uint256",
              "name": "pastTotalShare",
              "type": "uint256"
            },
            {
              "internalType": "uint256",
              "name": "pastTotalBalance",
              "type": "uint256"
            },
            {
              "internalType": "uint256",
              "name": "createTime",
              "type": "uint256"
            }
          ],
          "internalType": "struct LeadingContractFactory.LeadingContractInfo[]",
          "name": "",
          "type": "tuple[]"
        }
      ],
      "stateMutability": "view",
      "type": "function"
    },
    {
      "inputs": [
        {
          "internalType": "address",
          "name": "trader",
          "type": "address"
        }
      ],
      "name": "getTraderSupportedTokens",
      "outputs": [
        {
          "internalType": "address[]",
          "name": "",
          "type": "address[]"
        }
      ],
      "stateMutability": "view",
      "type": "function"
    },
    {
      "inputs": [
        {
          "internalType": "address",
          "name": "_user",
          "type": "address"
        }
      ],
      "name": "getUserFollowedContracts",
      "outputs": [
        {
          "components": [
            {
              "internalType": "address",
              "name": "contractAddress",
              "type": "address"
            },
            {
              "internalType": "address",
              "name": "traderAddress",
              "type": "address"
            },
            {
              "internalType": "string",
              "name": "traderName",
              "type": "string"
            },
            {
              "internalType": "string",
              "name": "traderDescription",
              "type": "string"
            },
            {
              "internalType": "address",
              "name": "tokenAddress",
              "type": "address"
            },
            {
              "internalType": "bool",
              "name": "isActive",
              "type": "bool"
            },
            {
              "internalType": "uint256",
              "name": "recentTotalShare",
              "type": "uint256"
            },
            {
              "internalType": "uint256",
              "name": "recentTotalBalance",
              "type": "uint256"
            },
            {
              "internalType": "uint256",
              "name": "pastTotalShare",
              "type": "uint256"
            },
            {
              "internalType": "uint256",
              "name": "pastTotalBalance",
              "type": "uint256"
            },
            {
              "internalType": "uint256",
              "name": "createTime",
              "type": "uint256"
            }
          ],
          "internalType": "struct LeadingContractFactory.LeadingContractInfo[]",
          "name": "",
          "type": "tuple[]"
        }
      ],
      "stateMutability": "view",
      "type": "function"
    },
    {
      "inputs": [
        {
          "internalType": "address",
          "name": "_initialOwner",
          "type": "address"
        },
        {
          "internalType": "address",
          "name": "_platformTradeFeeAccount",
          "type": "address"
        },
        {
          "internalType": "address",
          "name": "_bManager",
          "type": "address"
        }
      ],
      "name": "initialize",
      "outputs": [],
      "stateMutability": "nonpayable",
      "type": "function"
    },
    {
      "inputs": [
        {
          "internalType": "address",
          "name": "_trader",
          "type": "address"
        }
      ],
      "name": "isTrader",
      "outputs": [
        {
          "internalType": "bool",
          "name": "",
          "type": "bool"
        }
      ],
      "stateMutability": "view",
      "type": "function"
    },
    {
      "inputs": [],
      "name": "leadingContractImpl",
      "outputs": [
        {
          "internalType": "address",
          "name": "",
          "type": "address"
        }
      ],
      "stateMutability": "view",
      "type": "function"
    },
    {
      "inputs": [],
      "name": "owner",
      "outputs": [
        {
          "internalType": "address",
          "name": "",
          "type": "address"
        }
      ],
      "stateMutability": "view",
      "type": "function"
    },
    {
      "inputs": [],
      "name": "platformTradeFeeAccount",
      "outputs": [
        {
          "internalType": "address",
          "name": "",
          "type": "address"
        }
      ],
      "stateMutability": "view",
      "type": "function"
    },
    {
      "inputs": [
        {
          "internalType": "address",
          "name": "_user",
          "type": "address"
        },
        {
          "internalType": "address",
          "name": "_contractAddress",
          "type": "address"
        }
      ],
      "name": "recordUserFollowedContract",
      "outputs": [],
      "stateMutability": "nonpayable",
      "type": "function"
    },
    {
      "inputs": [
        {
          "internalType": "address",
          "name": "_trader",
          "type": "address"
        },
        {
          "internalType": "address",
          "name": "_token",
          "type": "address"
        }
      ],
      "name": "remove",
      "outputs": [],
      "stateMutability": "nonpayable",
      "type": "function"
    },
    {
      "inputs": [
        {
          "internalType": "address",
          "name": "_user",
          "type": "address"
        },
        {
          "internalType": "address",
          "name": "_contractAddress",
          "type": "address"
        }
      ],
      "name": "removeUserFollowedContract",
      "outputs": [],
      "stateMutability": "nonpayable",
      "type": "function"
    },
    {
      "inputs": [],
      "name": "renounceOwnership",
      "outputs": [],
      "stateMutability": "nonpayable",
      "type": "function"
    },
    {
      "inputs": [
        {
          "internalType": "address",
          "name": "_newImplementation",
          "type": "address"
        }
      ],
      "name": "setImplementation",
      "outputs": [],
      "stateMutability": "nonpayable",
      "type": "function"
    },
    {
      "inputs": [
        {
          "internalType": "address",
          "name": "newOwner",
          "type": "address"
        }
      ],
      "name": "transferOwnership",
      "outputs": [],
      "stateMutability": "nonpayable",
      "type": "function"
    },
    {
      "inputs": [
        {
          "internalType": "string",
          "name": "",
          "type": "string"
        }
      ],
      "name": "underlying",
      "outputs": [
        {
          "internalType": "address",
          "name": "",
          "type": "address"
        }
      ],
      "stateMutability": "view",
      "type": "function"
    },
    {
      "inputs": [
        {
          "internalType": "address",
          "name": "_tokenAddress",
          "type": "address"
        },
        {
          "internalType": "string",
          "name": "_traderName",
          "type": "string"
        },
        {
          "internalType": "string",
          "name": "_traderDescription",
          "type": "string"
        }
      ],
      "name": "updateTraderInfo",
      "outputs": [],
      "stateMutability": "nonpayable",
      "type": "function"
    },
    {
      "stateMutability": "payable",
      "type": "receive"
    }
  ],
  "bytecode": "0x6080806040523460155761472d908161001b8239f35b600080fdfe6080604052600436101561000f57005b6000803560e01c806296d244146126725780631024c97b1461264c5780631807cd0b1461262757806323f1fcbf14612600578063299ae753146125995780634039ad0d1461256b57806340a6809b1461245a57806353be06e5146120885780635614579e14612061578063629b748514611f0b57806364a30a3814611c74578063715018a614611bdb57806379c4e5e4146119dd5780637c6ca3d91461128c5780637f7c1491146112615780638ae1b5b714610f8d5780638b92d62814610f0a5780638da5cb5b14610ec45780639fa45d5614610e46578063ae5e55e614610dec578063afa85c0914610c4b578063b56eeef014610a22578063c0c53b8b14610587578063d784d426146104d9578063df51a5f614610393578063ef90dde114610312578063f166ddd8146101bc578063f2fde38b1461018f5763f50200571461015557005b3461018c578060031936011261018c5760606005546006546001600160a01b03600154169060405192835260208301526040820152f35b80fd5b503461018c57602060031936011261018c576101b96101ac61279e565b6101b461365f565b6133c2565b80f35b503461018c57602060031936011261018c576001600160a01b036101de61279e565b6101e6612b2d565b5016808252600b6020526001600160a01b03604083205416156102ce57816040916102ca9352600b6020522060096040519161022183612903565b6001600160a01b0381541683526001600160a01b03600182015416602084015261024d60028201612c2b565b604084015261025e60038201612c2b565b606084015260ff60048201546001600160a01b038116608086015260a01c16151560a0840152600581015460c0840152600681015460e0840152600781015461010084015260088101546101208401520154610140820152604051918291602083526020830190612817565b0390f35b606460405162461bcd60e51b815260206004820152601260248201527f436f6e7472616374206e6f7420666f756e6400000000000000000000000000006044820152fd5b503461018c578060031936011261018c5760405180916020600754928381520191600782527fa66cc928b5edb82af9bd49922954155ab7b0942694bea4ce44661d9a8736c688915b81811061037d576102ca8561037181870382612936565b604051918291826128c0565b825484526020909301926001928301920161035a565b503461018c57604060031936011261018c576103ad61279e565b6001600160a01b036103bd6127b9565b1690818352600b6020526103df6001600160a01b036040852054163314613377565b6001600160a01b0316825b818452600c60205260408420548110156104d357818452600c602052826001600160a01b0361041c8360408820612d87565b90549060031b1c1614610431576001016103ea565b908092508352600c60205260408320828452600c60205260408420549060001982019182116104bf576001600160a01b036104736104ac949361048d93612d87565b90549060031b1c1691848652600c60205260408620612d87565b9091906001600160a01b038084549260031b9316831b921b1916179055565b8152600c6020526101b960408220612fc4565b602485634e487b7160e01b81526011600452fd5b50505080f35b503461018c57602060031936011261018c576001600160a01b036104fb61279e565b61050361365f565b16801561054357806001600160a01b031960025416176002557f310ba5f1d2ed074b51e2eccd052a47ae9ab7c6b800d1fca3db3999d6a592ca038280a280f35b606460405162461bcd60e51b815260206004820152600f60248201527f496e76616c6964206164647265737300000000000000000000000000000000006044820152fd5b503461018c57606060031936011261018c576105a161279e565b6105a96127b9565b604435906001600160a01b03821680920361097b577ff0c57e16840df040f15088dc2f81fe391c3923bec73e23a9662efc9c229c6a00549260ff8460401c16159367ffffffffffffffff811680159081610a1a575b6001149081610a10575b159081610a07575b506109df5785926106cb60049593838860017fffffffffffffffffffffffffffffffffffffffffffffffff00000000000000006001600160a01b039716177ff0c57e16840df040f15088dc2f81fe391c3923bec73e23a9662efc9c229c6a005561098a575b5061067e6138fe565b6106866138fe565b61068f336133c2565b6106976138fe565b61069f6138fe565b60017f9b779b17422d0df92223018b32b4d1fa46e071723d6817e2486d003becc55f00556101b461365f565b6014600555826001600160a01b0319855416178455166001600160a01b03196001541617600155604051928380927f9816f4730000000000000000000000000000000000000000000000000000000082525afa801561097f578391849161083a575b50835b825181101561079c57806001600160a01b0361074e60019385612ded565b51166001600160a01b0361077b60206107678589612ded565b5181604051938285809451938492016127cf565b8101600e81520301902091166001600160a01b031982541617905501610730565b5050506107a65780f35b7fffffffffffffffffffffffffffffffffffffffffffffff00ffffffffffffffff7ff0c57e16840df040f15088dc2f81fe391c3923bec73e23a9662efc9c229c6a0054167ff0c57e16840df040f15088dc2f81fe391c3923bec73e23a9662efc9c229c6a00557fc7f505b2f371ae2175ee4913f4499e1f2633a7b5936321eed1cdaeb6115181d2602060405160018152a180f35b9150503d8084833e61084c8183612936565b81019060408183031261097b57805167ffffffffffffffff811161093d5781019082601f8301121561093d57815191610884836129ca565b926108926040519485612936565b80845260208085019160051b830101918583116109775760208101915b838310610945575050505060208101519067ffffffffffffffff821161094157019180601f8401121561093d5782516108e7816129ca565b936108f56040519586612936565b81855260208086019260051b82010192831161093957602001905b82821061092157505050903861072d565b6020809161092e84612ed7565b815201910190610910565b8680fd5b8480fd5b8580fd5b825167ffffffffffffffff81116109735760209161096889848094870101612eeb565b8152019201916108af565b8980fd5b8780fd5b8380fd5b6040513d85823e3d90fd5b7fffffffffffffffffffffffffffffffffffffffffffffff0000000000000000001668010000000000000001177ff0c57e16840df040f15088dc2f81fe391c3923bec73e23a9662efc9c229c6a005538610675565b6004867ff92ee8a9000000000000000000000000000000000000000000000000000000008152fd5b90501538610610565b303b159150610608565b8691506105fe565b503461018c57602060031936011261018c576004805490359180805b838110610c0e5750610a4f90612e4c565b918193825b828410610a6957604051806102ca87826129e2565b6001600160a01b03610a7a85612d56565b90549060031b1c1691828252600d60205260408220604051808260208294549384815201908652602086209286905b808210610be9575050610abe92500382612936565b82975b8151891015610bd957610bd1600191610b736001600160a01b03610ae58d87612ded565b51168888526003602052610b8989610b7f8a6001600160a01b03604080832060009083891682526020522054168095610b1e8d836134a3565b98929591969097858352600b6020526002604084200190868452600b6020526009604060038187200195898152600b60205260ff6004838320015460a01c16998152600b6020522001549b6040519d8e612903565b8d5260208d0152612c2b565b60408b0152612c2b565b60608901526080880152151560a087015260c086015260e0850152610100840152610120830152610140820152610bc0828c612ded565b52610bcb818b612ded565b50612eb2565b980197610ac1565b9750506001909401939150610a54565b916001919350602082916001600160a01b038754168152019401920184929391610aa9565b90610c346001600160a01b03610c278497969597612d56565b90549060031b1c16612ced565b5181018091116104bf579293919290600101610a3e565b503461018c57602060031936011261018c576001600160a01b03610c6d61279e565b1690818152600d60205260408120906040518083602082955493848152019084526020842092845b818110610dca575050610caa92500383612936565b610cb48251612e4c565b92815b8351811015610dbc57806001600160a01b03604081610cd860019589612ded565b51168587526003602052818720836000921682526020522054168452600b60205260408420600960405191610d0c83612903565b6001600160a01b0381541683526001600160a01b0385820154166020840152610d3760028201612c2b565b6040840152610d4860038201612c2b565b606084015260ff60048201546001600160a01b038116608086015260a01c16151560a0840152600581015460c0840152600681015460e0840152600781015461010084015260088101546101208401520154610140820152610daa8288612ded565b52610db58187612ded565b5001610cb7565b604051806102ca87826129e2565b84546001600160a01b0316835260019485019487945060209093019201610c95565b503461018c57604060031936011261018c576101b9610e0961279e565b6001600160a01b03610e196127b9565b918183168552600b602052610e35826040872054163314613377565b168352600c6020526040832061334f565b503461018c578060031936011261018c5760405180916020600454928381520191600482527f8a35acfbc15ff81a39ae7d344fd709f28e8600b4aa8c65c6b64bfe7fe36bd19b915b818110610ea5576102ca8561037181870382612936565b82546001600160a01b0316845260209093019260019283019201610e8e565b503461018c578060031936011261018c5760206001600160a01b037f9016d09d72d40fdae2fd8ceac6b6234c7706214fd39c1cd1e609a0528c1993005416604051908152f35b503461018c57602060031936011261018c576001600160a01b03610f2c61279e565b168152600d60205260408120604051918260208354918281520192825260208220915b818110610f6e57602085610f6581870382612936565b51604051908152f35b82546001600160a01b0316845260209093019260019283019201610f4f565b503461018c57606060031936011261018c5760043567ffffffffffffffff811161125d57610fbf903690600401612abf565b60243567ffffffffffffffff811161125957610fdf903690600401612abf565b60443590811515820361097b57610ff461365f565b825181510361121557825192845b84811061100d578580f35b6001600160a01b0361101f8284612ded565b51166001600160a01b036110338386612ded565b51169080885260036020526001600160a01b036040808a206000908386168252602052205416808952600a6020526040892054611076575b505050600101611002565b61107f81613791565b50861561119a5761108f81613737565b508861109a83612d9f565b1561111d575b604083926110dd86838560019a99987f3cc9e154ebf4c45999f2227230f6bba5eb453e798922f40619e271ef3f60a9869752600d6020522061334f565b84847f90aeddfcb1428cce068a71e29d724f88317a2527526ca083e9246630a0d85d6360208551858152a38151908152866020820152a35b90388061106b565b506004546801000000000000000081101561118657604083926110dd86838e61117660019b9a9961048d898e7f3cc9e154ebf4c45999f2227230f6bba5eb453e798922f40619e271ef3f60a9869b016004556004612d87565b95505050509293949550506110a0565b60248a634e487b7160e01b81526041600452fd5b908281600195946040937f3cc9e154ebf4c45999f2227230f6bba5eb453e798922f40619e271ef3f60a98685805188815260026020820152a38a526003602052818a206001600160a01b03600092168252602052206001600160a01b031981541690558752600b60205261121060408820612f7c565b611115565b606460405162461bcd60e51b815260206004820152601860248201527f706172616d206c656e677468206973206d69736d6174636800000000000000006044820152fd5b8280fd5b5080fd5b503461018c57604060031936011261018c576101b961127e61279e565b6112866127b9565b9061300c565b503461018c5761129b36612a60565b929190913381526003602052604081206001600160a01b0383166000526020526001600160a01b0360406000205416611973576001600160a01b038181815416936024604051809481937f873fd3c300000000000000000000000000000000000000000000000000000000835216968760048301525afa90811561196857829161182a575b506001600160a01b0360c082015116906001600160a01b0360e081610100840151169201511690604051927fcc2a9a5b000000000000000000000000000000000000000000000000000000006020850152336024850152336044850152306064850152608484015260a483015260c482015260c481526113a160e482612936565b6001600160a01b0360025416906001600160a01b037f9016d09d72d40fdae2fd8ceac6b6234c7706214fd39c1cd1e609a0528c19930054169160405192610da0918285019285841067ffffffffffffffff851117611816579285949260609261141d9561395888398252602082015281604082015201906127f2565b039082f08015611809576001600160a01b03169261143a846136c0565b503382526003602052604082208360005260205260406000206001600160a01b0385166001600160a01b0319825416179055838280604051809461147d82612903565b848252602082019033825260408301908152606083019a8b52608083019089825260a0840190600182526001600160a01b0360c0860194878652818060408a61014060e08c019b828d5261010081019d8e5261012081019e8f52019d8e4290528152600b602052209c5116166001600160a01b03198c5416178b5551166001600160a01b0360018b0191166001600160a01b0319825416179055600289019051805167ffffffffffffffff81116117f5578b6115398454612bf1565b601f81116117c5575b505060208c601f83116001146117625790611571938361169b575b50506000198260011b9260031b1c19161790565b90555b600388019b519b8c5167ffffffffffffffff811161174e5760209d8b61159a8454612bf1565b601f8111611713575b50508e908c601f84116001146116a65760099b9a999897969594936115dd9390928361169b5750506000198260011b9260031b1c19161790565b90555b6001600160a01b038060048b01935116166001600160a01b03198354161782555115157fffffffffffffffffffffff00ffffffffffffffffffffffffffffffffffffffff74ff000000000000000000000000000000000000000083549260a01b1691161790555160058701555160068601555160078501555160088401555191015560405190838252848201527f3cc9e154ebf4c45999f2227230f6bba5eb453e798922f40619e271ef3f60a98660403392a3604051908152f35b01519050388061155d565b9190601f198416858452828420935b8181106116fb575091600193918560099e9d9c9b9a9998979694106116e2575b505050811b0190556115e0565b015160001960f88460031b161c191690553880806116d5565b929360206001819287860151815501950193016116b5565b6020828661173d945220601f850160051c81019160208610611744575b601f0160051c0190612e9b565b8b386115a3565b9091508190611730565b60248b634e487b7160e01b81526041600452fd5b9192601f198416858452828420935b8181106117ad5750908460019594939210611794575b505050811b019055611574565b015160001960f88460031b161c19169055388080611787565b92936020600181928786015181550195019301611771565b602082866117ee945220601f840160051c8101916020851061174457601f0160051c0190612e9b565b8b38611542565b60248c634e487b7160e01b81526041600452fd5b50604051903d90823e3d90fd5b602487634e487b7160e01b81526041600452fd5b90503d8083833e61183b8183612936565b8101906020818303126112595780519067ffffffffffffffff821161097b5701610140818303126112595760405191610140830183811067ffffffffffffffff8211176119545760405261188e82612ed7565b835261189c60208301612ed7565b602084015260408201516040840152606082015167ffffffffffffffff811161093d57816118cb918401612eeb565b6060840152608082015167ffffffffffffffff811161093d57916118f761012092611948948301612eeb565b608085015261190860a08201612ed7565b60a085015261191960c08201612ed7565b60c085015261192a60e08201612ed7565b60e085015261193c6101008201612ed7565b61010085015201612ed7565b61012082015238611320565b602485634e487b7160e01b81526041600452fd5b6040513d84823e3d90fd5b608460405162461bcd60e51b815260206004820152602c60248201527f54726164657220616c726561647920686173206120636f6e747261637420666f60448201527f72207468697320746f6b656e00000000000000000000000000000000000000006064820152fd5b503461018c57602060031936011261018c576001600160a01b036119ff61279e565b168152600c602052604081206040518082602082945493848152019085526020852092855b818110611bb9575050611a3992500382612936565b611a438151612e4c565b9082835b8251811015611b6c576001600160a01b03611a628285612ded565b51168552600b6020526001600160a01b03604086205416611a86575b600101611a47565b90611b646001916001600160a01b03611a9f8587612ded565b51168752600b60205260408720600960405191611abb83612903565b6001600160a01b0381541683526001600160a01b0386820154166020840152611ae660028201612c2b565b6040840152611af760038201612c2b565b606084015260ff60048201546001600160a01b038116608086015260a01c16151560a0840152600581015460c0840152600681015460e0840152600781015461010084015260088101546101208401520154610140820152611b598288612ded565b52610bcb8187612ded565b919050611a7e565b848285611b7882612e4c565b925b828110611b8f57604051806102ca86826129e2565b80611b9c60019284612ded565b51611ba78287612ded565b52611bb28186612ded565b5001611b7a565b84546001600160a01b0316835260019485019486945060209093019201611a24565b503461018c578060031936011261018c57611bf461365f565b806001600160a01b037f9016d09d72d40fdae2fd8ceac6b6234c7706214fd39c1cd1e609a0528c199300546001600160a01b031981167f9016d09d72d40fdae2fd8ceac6b6234c7706214fd39c1cd1e609a0528c19930055167f8be0079c531659141344cd1fd0a4f28419497f9722a3daafe3b4186f6b6457e08280a380f35b503461018c57611c8336612a60565b9291903383526003602052604083206001600160a01b0383166000526020526001600160a01b0360406000205416611cbc811515612b80565b8352600b6020526040832090600282019080519067ffffffffffffffff8211611ef757611ce98354612bf1565b601f8111611ec7575b50602090601f8311600114611e61579180611d26926003969594899261169b5750506000198260011b9260031b1c19161790565b90555b01835167ffffffffffffffff8111611e4d57611d458254612bf1565b601f8111611e1d575b506020601f8211600114611db2579080611d869286976001600160a01b03979261169b5750506000198260011b9260031b1c19161790565b90555b16337f99aea1f1550ab3e43762b27dd94cb3caed3328e1fc7b39d72906f9802a8c8db48380a380f35b82855280852095601f198316865b818110611e055750916001600160a01b03969791846001959410611dec575b505050811b019055611d89565b015160001960f88460031b161c19169055388080611ddf565b83830151895560019098019760209384019301611dc0565b611e479083865260208620601f840160051c8101916020851061174457601f0160051c0190612e9b565b38611d4e565b602484634e487b7160e01b81526041600452fd5b8387528187209190601f198416885b818110611eaf575091600193918560039897969410611e97575b505050811b019055611d29565b015160001960f884891b161c19169055388080611e8a565b92936020600181928786015181550195019301611e70565b611ef19084885260208820601f850160051c8101916020861061174457601f0160051c0190612e9b565b38611cf2565b602486634e487b7160e01b81526041600452fd5b503461018c578060031936011261018c57600954611f2881612e4c565b9082600954905b828110611f4457604051806102ca86826129e2565b8181101561204d577f6e1540171b6c0c960b71a7020d9f60077f6af931a8bbf590da0223dacf75c7af810154600386901b1c6001600160a01b03168552600b6020526040808620905160019291600990611f9d83612903565b6001600160a01b0381541683526001600160a01b0385820154166020840152611fc860028201612c2b565b6040840152611fd960038201612c2b565b606084015260ff60048201546001600160a01b038116608086015260a01c16151560a0840152600581015460c0840152600681015460e084015260078101546101008401526008810154610120840152015461014082015261203b8287612ded565b526120468186612ded565b5001611f2f565b602485634e487b7160e01b81526032600452fd5b503461018c578060031936011261018c5760206001600160a01b0360025416604051908152f35b50608060031936011261018c5761209d61279e565b906120a66127b9565b9160443567ffffffffffffffff811161125957366023820112156112595780600401356120d2816129ca565b916120e06040519384612936565b818352602083019160051b8101602401823682116109395760248301905b82821061242a57505050506064359067ffffffffffffffff821161093d573660238301121561093d57816004013590612136826129ca565b926121446040519485612936565b82845260208401906024829460051b820101903682116124265760248101925b8284106123e1575050505060027f9b779b17422d0df92223018b32b4d1fa46e071723d6817e2486d003becc55f0054146123b95760027f9b779b17422d0df92223018b32b4d1fa46e071723d6817e2486d003becc55f00558351835103612375576001600160a01b03871686526003602052604086206001600160a01b03861687526020526001600160a01b0360408720541692612203841515612e01565b833b156109395793918693916040519586947f2d9cd09a00000000000000000000000000000000000000000000000000000000865260448601906040600488015251809152606486019060648160051b880101939188905b828210612322575050505060031985830301602486015251808252602082019160208260051b820101939287915b8383106122ef575050505050828091039134905af1801561097f576122db575b506122b4919261300c565b60017f9b779b17422d0df92223018b32b4d1fa46e071723d6817e2486d003becc55f005580f35b916122e9816122b494612936565b916122a9565b929597509295509260208061231083601f19866001960301875289516127f2565b9701930193018795938a979592612289565b929698509294966020612361867fffffffffffffffffffffffffffffffffffffffffffffffffffffffffffffff9c8394600196990301865289516127f2565b970192019201928a9795938997959361225b565b606460405162461bcd60e51b815260206004820152601860248201527f4172726179206c656e67746873206d757374206d6174636800000000000000006044820152fd5b6004867f3ee5aeb5000000000000000000000000000000000000000000000000000000008152fd5b833567ffffffffffffffff8111612422578201366043820112156124225760209161241783923690604460248201359101612975565b815201930192612164565b8a80fd5b8880fd5b813567ffffffffffffffff81116124265760209161244f8392602436918901016129ac565b8152019101906120fe565b503461018c57602060031936011261018c576001600160a01b0361247c61279e565b16808252600d60205260408220916040518084602082965493848152019084526020842092845b8181106125495750506124b892500384612936565b825192601f196124e06124ca866129ca565b956124d86040519788612936565b8087526129ca565b01366020860137815b815181101561253b576001908484526003602052604084206001600160a01b03806125148487612ded565b51161685526020526001600160a01b036040852054166125348288612ded565b52016124e9565b604051806102ca87826128c0565b84546001600160a01b03168352600194850194889450602090930192016124a3565b503461018c57602060031936011261018c57602061258f61258a61279e565b612d9f565b6040519015158152f35b503461018c57602060031936011261018c576004359067ffffffffffffffff821161018c5760206001600160a01b036125ec826125d936600488016129ac565b81604051938285809451938492016127cf565b8101600e8152030190205416604051908152f35b503461018c578060031936011261018c5760206001600160a01b0360015416604051908152f35b503461018c57602060031936011261018c576102ca61037161264761279e565b612ced565b503461018c578060031936011261018c576001600160a01b036020915416604051908152f35b503461018c57606060031936011261018c576102ca9061269061279e565b6001600160a01b036126a06127b9565b916126a9612b2d565b5016825260036020526001600160a01b03604083209116825260205260406001600160a01b0381832054166126df811515612b80565b6126eb604435826134a3565b9491929590938152600b602052209360096040519561270987612903565b6001600160a01b0381541687526001600160a01b03600182015416602088015261273560028201612c2b565b604088015261274660038201612c2b565b606088015260ff60048201546001600160a01b03811660808a015260a01c16151560a0880152015461014086015260c085015260e0840152610100830152610120820152604051918291602083526020830190612817565b600435906001600160a01b03821682036127b457565b600080fd5b602435906001600160a01b03821682036127b457565b60005b8381106127e25750506000910152565b81810151838201526020016127d2565b90601f19601f602093612810815180928187528780880191016127cf565b0116010190565b906001600160a01b0382511681526001600160a01b0360208301511660208201526101408061286c61285a604086015161016060408701526101608601906127f2565b606086015185820360608701526127f2565b936001600160a01b03608082015116608085015260a0810151151560a085015260c081015160c085015260e081015160e0850152610100810151610100850152610120810151610120850152015191015290565b602060408183019282815284518094520192019060005b8181106128e45750505090565b82516001600160a01b03168452602093840193909201916001016128d7565b610160810190811067ffffffffffffffff82111761292057604052565b634e487b7160e01b600052604160045260246000fd5b90601f601f19910116810190811067ffffffffffffffff82111761292057604052565b67ffffffffffffffff811161292057601f01601f191660200190565b92919261298182612959565b9161298f6040519384612936565b8294818452818301116127b4578281602093846000960137010152565b9080601f830112156127b4578160206129c793359101612975565b90565b67ffffffffffffffff81116129205760051b60200190565b602081016020825282518091526040820191602060408360051b8301019401926000915b838310612a1557505050505090565b9091929394602080612a51837fffffffffffffffffffffffffffffffffffffffffffffffffffffffffffffffc086600196030187528951612817565b97019301930191939290612a06565b60606003198201126127b4576004356001600160a01b03811681036127b4579160243567ffffffffffffffff81116127b45782612a9f916004016129ac565b916044359067ffffffffffffffff82116127b4576129c7916004016129ac565b9080601f830112156127b457813590612ad7826129ca565b92612ae56040519485612936565b82845260208085019360051b8201019182116127b457602001915b818310612b0d5750505090565b82356001600160a01b03811681036127b457815260209283019201612b00565b60405190612b3a82612903565b600061014083828152826020820152606060408201526060808201528260808201528260a08201528260c08201528260e082015282610100820152826101208201520152565b15612b8757565b608460405162461bcd60e51b815260206004820152602b60248201527f4e6f20636f6e747261637420666f756e6420666f72207468697320747261646560448201527f7220616e6420746f6b656e0000000000000000000000000000000000000000006064820152fd5b90600182811c92168015612c21575b6020831014612c0b57565b634e487b7160e01b600052602260045260246000fd5b91607f1691612c00565b9060405191826000825492612c3f84612bf1565b8084529360018116908115612cad5750600114612c66575b50612c6492500383612936565b565b90506000929192526020600020906000915b818310612c91575050906020612c649282010138612c57565b6020919350806001915483858901015201910190918492612c78565b60209350612c649592507fffffffffffffffffffffffffffffffffffffffffffffffffffffffffffffff0091501682840152151560051b82010138612c57565b6001600160a01b0316600052600d60205260406000206040518082602082945493848152019060005260206000209260005b818110612d345750506129c792500382612936565b84546001600160a01b0316835260019485019486945060209093019201612d1f565b600454811015612d7157600460005260206000200190600090565b634e487b7160e01b600052603260045260246000fd5b8054821015612d715760005260206000200190600090565b6004549060005b828110612db557505050600090565b6001600160a01b03612dc682612d56565b90549060031b1c166001600160a01b03831614612de557600101612da6565b505050600190565b8051821015612d715760209160051b010190565b15612e0857565b606460405162461bcd60e51b815260206004820152601760248201527f436f6e747261637420646f6573206e6f742065786973740000000000000000006044820152fd5b90612e56826129ca565b612e636040519182612936565b828152601f19612e7382946129ca565b019060005b828110612e8457505050565b602090612e8f612b2d565b82828501015201612e78565b818110612ea6575050565b60008155600101612e9b565b6000198114612ec15760010190565b634e487b7160e01b600052601160045260246000fd5b51906001600160a01b03821682036127b457565b81601f820112156127b4578051612f0181612959565b92612f0f6040519485612936565b818452602082840101116127b4576129c791602080850191016127cf565b612f378154612bf1565b9081612f41575050565b81601f60009311600114612f53575055565b81835260208320612f6f91601f0160051c810190600101612e9b565b8082528160208120915555565b6009600091828155826001820155612f9660028201612f2d565b612fa260038201612f2d565b8260048201558260058201558260068201558260078201558260088201550155565b80548015612ff6576000190190612ff3612fde8383612d87565b6001600160a01b0382549160031b1b19169055565b55565b634e487b7160e01b600052603160045260246000fd5b6001600160a01b031680600052600360205260406000206001600160a01b0383166000526020526001600160a01b03604060002054169061304e821515612e01565b813314801561331c575b8015613313575b156132cf5780600052600360205260406000206001600160a01b03841660005260205260406000206001600160a01b0319815416905581600052600b6020526130ab6040600020612f7c565b60005b81600052600d6020526040600020548110156132c75781600052600d6020526001600160a01b036130e3826040600020612d87565b90549060031b1c166001600160a01b03851614613102576001016130ae565b6000828152600d6020526040902080549394929360001981019291908311612ec1576001600160a01b0361313c6131589461048d93612d87565b90549060031b1c169185600052600d6020526040600020612d87565b81600052600d60205261316e6040600020612fc4565b81600052600d602052604060002054156131ce575b60206001600160a01b037fa9c4cf795890a049971a6e43cf862d315ec5c7b8c4bfaf94616f1499231ba874926131b88661384b565b506131c286613791565b506040519586521693a3565b919060005b6004548082101561329257826001600160a01b036131f084612d56565b90549060031b1c161461320657506001016131d3565b90600019829593949501918211612ec15761048d6001600160a01b0361322e61323c94612d56565b90549060031b1c1691612d56565b600454908115612ff6576001600160a01b036020916000197fa9c4cf795890a049971a6e43cf862d315ec5c7b8c4bfaf94616f1499231ba8749401613285612fde826004612d87565b6004555b92505050613183565b5050909160206001600160a01b037fa9c4cf795890a049971a6e43cf862d315ec5c7b8c4bfaf94616f1499231ba87492613289565b50909161316e565b606460405162461bcd60e51b815260206004820152600c60248201527f556e617574686f72697a656400000000000000000000000000000000000000006044820152fd5b5030331461305f565b506001600160a01b037f9016d09d72d40fdae2fd8ceac6b6234c7706214fd39c1cd1e609a0528c19930054163314613058565b9081549168010000000000000000831015612920578261048d916001612c6495018155612d87565b1561337e57565b606460405162461bcd60e51b815260206004820152601b60248201527f63616c6c6572206e6f7420636f6e7472616374206164647265737300000000006044820152fd5b6001600160a01b03168015613452576001600160a01b037f9016d09d72d40fdae2fd8ceac6b6234c7706214fd39c1cd1e609a0528c19930054826001600160a01b03198216177f9016d09d72d40fdae2fd8ceac6b6234c7706214fd39c1cd1e609a0528c19930055167f8be0079c531659141344cd1fd0a4f28419497f9722a3daafe3b4186f6b6457e0600080a3565b7f1e4fbdf700000000000000000000000000000000000000000000000000000000600052600060045260246000fd5b91908260809103126127b4578151916020810151916060604083015192015190565b6001600160a01b0316916040517fc89db572000000000000000000000000000000000000000000000000000000008152602081600481875afa9081156135e35760009161362d575b50801561361f57600019810192818411612ec15780821115613615578103908111612ec1576000198101908111612ec157925b604051927fbacea2d20000000000000000000000000000000000000000000000000000000084526004840152608083602481845afa80156135e3576000936000916135ef575b5060809093946024604051809481937fbacea2d200000000000000000000000000000000000000000000000000000000835260048301525afa80156135e3576000916000916135b257509091565b90506135d6915060803d6080116135dc575b6135ce8183612936565b810190613481565b50915091565b503d6135c4565b6040513d6000823e3d90fd5b608080955061360a92503d86116135dc576135ce8183612936565b509491509390613564565b505060009261351e565b506000925082915081908190565b906020823d602011613657575b8161364760209383612936565b8101031261018c575051386134eb565b3d915061363a565b6001600160a01b037f9016d09d72d40fdae2fd8ceac6b6234c7706214fd39c1cd1e609a0528c1993005416330361369257565b7f118cdaa7000000000000000000000000000000000000000000000000000000006000523360045260246000fd5b80600052600a602052604060002054156000146137315760095468010000000000000000811015612920576137186137018260018594016009556009612d87565b81939154906000199060031b92831b921b19161790565b905560095490600052600a602052604060002055600190565b50600090565b806000526008602052604060002054156000146137315760075468010000000000000000811015612920576137786137018260018594016007556007612d87565b9055600754906000526008602052604060002055600190565b6000818152600a60205260409020548015613844576000198101818111612ec157600954906000198201918211612ec15781810361380a575b5050506009548015612ff657600019016137e5816009612d87565b60001982549160031b1b19169055600955600052600a60205260006040812055600190565b61382c61381b613701936009612d87565b90549060031b1c9283926009612d87565b9055600052600a6020526040600020553880806137ca565b5050600090565b6000818152600860205260409020548015613844576000198101818111612ec157600754906000198201918211612ec1578181036138c4575b5050506007548015612ff6576000190161389f816007612d87565b60001982549160031b1b19169055600755600052600860205260006040812055600190565b6138e66138d5613701936007612d87565b90549060031b1c9283926007612d87565b90556000526008602052604060002055388080613884565b60ff7ff0c57e16840df040f15088dc2f81fe391c3923bec73e23a9662efc9c229c6a005460401c161561392d57565b7fd7e6bcf80000000000000000000000000000000000000000000000000000000060005260046000fdfe60a0604052610da08038038061001481610293565b928339810160608282031261028e5761002c826102b8565b610038602084016102b8565b604084015190936001600160401b03821161028e570182601f8201121561028e5780519061006d610068836102cc565b610293565b938285526020838301011161028e5760005b828110610279575050602060009184010152803b15610258577f360894a13ba1a3210667c828492db98dca3e2076cc3735a920a3ca505d382bbc80546001600160a01b0319166001600160a01b0383169081179091557fbc7cd75a20ee27fd9adebab32041f755214dbc6bffa90cc0225b39da2e5c2d3b600080a281511561023f5760008083602061013595519101845af43d15610237573d91610125610068846102cc565b9283523d6000602085013e6102e7565b505b604051906105ac8083016001600160401b038111848210176102215760209284926107d484396001600160a01b031681520301906000f080156102155760018060a01b031680608052600080516020610d80833981519152547f7e644d79422f17c01e4894b5f4f588d331ebfa28653d42ae832dc59e38c9798f6040805160018060a01b0384168152846020820152a181156101ff576001600160a01b03191617600080516020610d808339815191525560405161048b908161034982396080518160070152f35b633173bdd160e11b600052600060045260246000fd5b6040513d6000823e3d90fd5b634e487b7160e01b600052604160045260246000fd5b6060916102e7565b505034156101375763b398979f60e01b60005260046000fd5b634c9c8ce360e01b60009081526001600160a01b0391909116600452602490fd5b8060208092840101518282880101520161007f565b600080fd5b6040519190601f01601f191682016001600160401b0381118382101761022157604052565b51906001600160a01b038216820361028e57565b6001600160401b03811161022157601f01601f191660200190565b9061030d57508051156102fc57602081519101fd5b63d6bda27560e01b60005260046000fd5b8151158061033f575b61031e575090565b639996b31560e01b60009081526001600160a01b0391909116600452602490fd5b50803b1561031656fe6080604052337f000000000000000000000000000000000000000000000000000000000000000073ffffffffffffffffffffffffffffffffffffffff16036100c0576000357fffffffff00000000000000000000000000000000000000000000000000000000167f4f1ef28600000000000000000000000000000000000000000000000000000000146100b6577fd2b576ec0000000000000000000000000000000000000000000000000000000060005260046000fd5b6100be61018e565b005b60008073ffffffffffffffffffffffffffffffffffffffff7f360894a13ba1a3210667c828492db98dca3e2076cc3735a920a3ca505d382bbc5416368280378136915af43d6000803e15610113573d6000f35b3d6000fd5b7f4e487b7100000000000000000000000000000000000000000000000000000000600052604160045260246000fd5b90601f19601f604051930116820182811067ffffffffffffffff82111761016d57604052565b610118565b67ffffffffffffffff811161016d57601f01601f191660200190565b366004116102425760407ffffffffffffffffffffffffffffffffffffffffffffffffffffffffffffffffc3601126102425760043573ffffffffffffffffffffffffffffffffffffffff8116809103610242576024359067ffffffffffffffff821161024257366023830112156102425781600401359061021661021183610172565b610147565b91808352366024828601011161024257602081600092602461024097018387013784010152610247565b565b600080fd5b90813b156103395773ffffffffffffffffffffffffffffffffffffffff8216807fffffffffffffffffffffffff00000000000000000000000000000000000000007f360894a13ba1a3210667c828492db98dca3e2076cc3735a920a3ca505d382bbc5416177f360894a13ba1a3210667c828492db98dca3e2076cc3735a920a3ca505d382bbc557fbc7cd75a20ee27fd9adebab32041f755214dbc6bffa90cc0225b39da2e5c2d3b600080a2805115610306576103039161037d565b50565b50503461030f57565b7fb398979f0000000000000000000000000000000000000000000000000000000060005260046000fd5b73ffffffffffffffffffffffffffffffffffffffff827f4c9c8ce3000000000000000000000000000000000000000000000000000000006000521660045260246000fd5b6000806103b193602081519101845af43d156103b4573d916103a161021184610172565b9283523d6000602085013e6103b8565b90565b6060915b906103f757508051156103cd57602081519101fd5b7fd6bda2750000000000000000000000000000000000000000000000000000000060005260046000fd5b8151158061044c575b610408575090565b73ffffffffffffffffffffffffffffffffffffffff907f9996b315000000000000000000000000000000000000000000000000000000006000521660045260246000fd5b50803b1561040056fea26469706673582212207eb2e5e8909617ac14be56da5fb74304c296d95274d3a9ad9b11a3595d9f79b264736f6c634300081c003360803460bc57601f6105ac38819003918201601f19168301916001600160401b0383118484101760c15780849260209460405283398101031260bc57516001600160a01b0381169081900360bc57801560a657600080546001600160a01b031981168317825560405192916001600160a01b03909116907f8be0079c531659141344cd1fd0a4f28419497f9722a3daafe3b4186f6b6457e09080a36104d490816100d88239f35b631e4fbdf760e01b600052600060045260246000fd5b600080fd5b634e487b7160e01b600052604160045260246000fdfe6080604052600436101561001257600080fd5b6000803560e01c8063715018a61461033e5780638da5cb5b1461030b5780639623609d14610190578063ad3cb1cc1461012b5763f2fde38b1461005457600080fd5b346101285760206003193601126101285760043573ffffffffffffffffffffffffffffffffffffffff81168091036101265761008e61044f565b80156100fa5773ffffffffffffffffffffffffffffffffffffffff8254827fffffffffffffffffffffffff00000000000000000000000000000000000000008216178455167f8be0079c531659141344cd1fd0a4f28419497f9722a3daafe3b4186f6b6457e08380a380f35b6024827f1e4fbdf700000000000000000000000000000000000000000000000000000000815280600452fd5b505b80fd5b50346101285780600319360112610128575061018c60405161014e6040826103bc565b600581527f352e302e30000000000000000000000000000000000000000000000000000000602082015260405191829160208352602083019061040e565b0390f35b5060606003193601126101285760043573ffffffffffffffffffffffffffffffffffffffff81168091036101265760243573ffffffffffffffffffffffffffffffffffffffff81168091036102d25760443567ffffffffffffffff8111610307573660238201121561030757806004013567ffffffffffffffff81116102da5790816020601f19601f8896950116019161022d60405193846103bc565b81835236602483830101116102d657818592602460209301838601378301015261025561044f565b833b156102d2576102a49383926040518096819482937f4f1ef286000000000000000000000000000000000000000000000000000000008452600484015260406024840152604483019061040e565b039134905af180156102c5576102b75780f35b6102c0916103bc565b388180f35b50604051903d90823e3d90fd5b8280fd5b8480fd5b6024857f4e487b710000000000000000000000000000000000000000000000000000000081526041600452fd5b8380fd5b503461012857806003193601126101285773ffffffffffffffffffffffffffffffffffffffff6020915416604051908152f35b503461012857806003193601126101285761035761044f565b8073ffffffffffffffffffffffffffffffffffffffff81547fffffffffffffffffffffffff000000000000000000000000000000000000000081168355167f8be0079c531659141344cd1fd0a4f28419497f9722a3daafe3b4186f6b6457e08280a380f35b90601f601f19910116810190811067ffffffffffffffff8211176103df57604052565b7f4e487b7100000000000000000000000000000000000000000000000000000000600052604160045260246000fd5b919082519283825260005b84811061043a575050601f19601f8460006020809697860101520116010190565b80602080928401015182828601015201610419565b73ffffffffffffffffffffffffffffffffffffffff60005416330361047057565b7f118cdaa7000000000000000000000000000000000000000000000000000000006000523360045260246000fdfea2646970667358221220ea2109e56fc1c6f3c1c3756977591938a67f11d8d269ff70844bd5fabc0529f764736f6c634300081c0033b53127684a568b3173ae13b9f8a6016e243e63b6e8ee1178d6a717850b5d6103a26469706673582212208194220af5d5841926941d4752030a3d19c8c7578ea4d57a08fbd4f80d20eb0864736f6c634300081c0033",
  "linkReferences": {},
  "deployedLinkReferences": {}
}