{
  "_format": "hh-sol-artifact-1",
  "contractName": "LeadingContract",
  "sourceName": "contracts/LeadingContract.sol",
  "abi": [
    {
      "inputs": [],
      "name": "InvalidInitialization",
      "type": "error"
    },
    {
      "inputs": [],
      "name": "NotInitializing",
      "type": "error"
    },
    {
      "inputs": [
        {
          "internalType": "address",
          "name": "owner",
          "type": "address"
        }
      ],
      "name": "OwnableInvalidOwner",
      "type": "error"
    },
    {
      "inputs": [
        {
          "internalType": "address",
          "name": "account",
          "type": "address"
        }
      ],
      "name": "OwnableUnauthorizedAccount",
      "type": "error"
    },
    {
      "inputs": [],
      "name": "ReentrancyGuardReentrantCall",
      "type": "error"
    },
    {
      "anonymous": false,
      "inputs": [
        {
          "indexed": false,
          "internalType": "address",
          "name": "trader",
          "type": "address"
        },
        {
          "indexed": false,
          "internalType": "address",
          "name": "token",
          "type": "address"
        },
        {
          "indexed": false,
          "internalType": "uint256",
          "name": "amount",
          "type": "uint256"
        }
      ],
      "name": "CommissionPaid",
      "type": "event"
    },
    {
      "anonymous": false,
      "inputs": [
        {
          "indexed": false,
          "internalType": "address",
          "name": "follower",
          "type": "address"
        },
        {
          "indexed": false,
          "internalType": "uint256",
          "name": "firstFollowTime",
          "type": "uint256"
        }
      ],
      "name": "FollowerAdded",
      "type": "event"
    },
    {
      "anonymous": false,
      "inputs": [
        {
          "indexed": false,
          "internalType": "address",
          "name": "follower",
          "type": "address"
        },
        {
          "indexed": false,
          "internalType": "uint256",
          "name": "removedFollowTime",
          "type": "uint256"
        }
      ],
      "name": "FollowerRemoved",
      "type": "event"
    },
    {
      "anonymous": false,
      "inputs": [
        {
          "indexed": false,
          "internalType": "uint64",
          "name": "version",
          "type": "uint64"
        }
      ],
      "name": "Initialized",
      "type": "event"
    },
    {
      "anonymous": false,
      "inputs": [
        {
          "indexed": false,
          "internalType": "address",
          "name": "leadingContract",
          "type": "address"
        },
        {
          "indexed": false,
          "internalType": "address",
          "name": "leader",
          "type": "address"
        },
        {
          "indexed": false,
          "internalType": "address",
          "name": "token",
          "type": "address"
        },
        {
          "indexed": false,
          "internalType": "uint256",
          "name": "round",
          "type": "uint256"
        },
        {
          "indexed": false,
          "internalType": "uint256",
          "name": "startTime",
          "type": "uint256"
        },
        {
          "indexed": false,
          "internalType": "uint256",
          "name": "endTime",
          "type": "uint256"
        },
        {
          "indexed": false,
          "internalType": "uint256",
          "name": "accumulatedCommission",
          "type": "uint256"
        },
        {
          "indexed": false,
          "internalType": "int256",
          "name": "accumulatedDepositAmount",
          "type": "int256"
        },
        {
          "indexed": false,
          "internalType": "int256",
          "name": "accumulatedWithdrawAmount",
          "type": "int256"
        }
      ],
      "name": "LeadingContractReckon",
      "type": "event"
    },
    {
      "anonymous": false,
      "inputs": [
        {
          "indexed": true,
          "internalType": "address",
          "name": "previousOwner",
          "type": "address"
        },
        {
          "indexed": true,
          "internalType": "address",
          "name": "newOwner",
          "type": "address"
        }
      ],
      "name": "OwnershipTransferred",
      "type": "event"
    },
    {
      "anonymous": false,
      "inputs": [
        {
          "indexed": false,
          "internalType": "address",
          "name": "leadingContract",
          "type": "address"
        },
        {
          "indexed": false,
          "internalType": "address",
          "name": "trader",
          "type": "address"
        },
        {
          "indexed": false,
          "internalType": "address",
          "name": "token",
          "type": "address"
        },
        {
          "indexed": false,
          "internalType": "uint256",
          "name": "paidDistribute",
          "type": "uint256"
        },
        {
          "indexed": false,
          "internalType": "uint256",
          "name": "unpaidDistribute",
          "type": "uint256"
        }
      ],
      "name": "ProfitsDistributed",
      "type": "event"
    },
    {
      "anonymous": false,
      "inputs": [
        {
          "indexed": false,
          "internalType": "bool",
          "name": "isDeposit",
          "type": "bool"
        },
        {
          "indexed": false,
          "internalType": "address",
          "name": "leader",
          "type": "address"
        },
        {
          "indexed": false,
          "internalType": "address",
          "name": "user",
          "type": "address"
        },
        {
          "indexed": false,
          "internalType": "address",
          "name": "token",
          "type": "address"
        },
        {
          "indexed": false,
          "internalType": "uint256",
          "name": "sid",
          "type": "uint256"
        },
        {
          "indexed": false,
          "internalType": "uint256",
          "name": "amount",
          "type": "uint256"
        },
        {
          "indexed": false,
          "internalType": "uint256",
          "name": "share",
          "type": "uint256"
        },
        {
          "indexed": false,
          "internalType": "uint256",
          "name": "time",
          "type": "uint256"
        },
        {
          "indexed": false,
          "internalType": "uint256",
          "name": "status",
          "type": "uint256"
        }
      ],
      "name": "TransformToken",
      "type": "event"
    },
    {
      "stateMutability": "payable",
      "type": "fallback"
    },
    {
      "inputs": [],
      "name": "accumulatedCommission",
      "outputs": [
        {
          "internalType": "uint256",
          "name": "",
          "type": "uint256"
        }
      ],
      "stateMutability": "view",
      "type": "function"
    },
    {
      "inputs": [],
      "name": "accumulatedDepositAmount",
      "outputs": [
        {
          "internalType": "int256",
          "name": "",
          "type": "int256"
        }
      ],
      "stateMutability": "view",
      "type": "function"
    },
    {
      "inputs": [],
      "name": "accumulatedUnpaidProfit",
      "outputs": [
        {
          "internalType": "uint256",
          "name": "",
          "type": "uint256"
        }
      ],
      "stateMutability": "view",
      "type": "function"
    },
    {
      "inputs": [],
      "name": "accumulatedWithdrawAmount",
      "outputs": [
        {
          "internalType": "int256",
          "name": "",
          "type": "int256"
        }
      ],
      "stateMutability": "view",
      "type": "function"
    },
    {
      "inputs": [],
      "name": "allowedToken",
      "outputs": [
        {
          "internalType": "address",
          "name": "",
          "type": "address"
        }
      ],
      "stateMutability": "view",
      "type": "function"
    },
    {
      "inputs": [
        {
          "internalType": "uint256",
          "name": "",
          "type": "uint256"
        }
      ],
      "name": "assetShareHistory",
      "outputs": [
        {
          "internalType": "int256",
          "name": "totalProfit",
          "type": "int256"
        },
        {
          "internalType": "uint256",
          "name": "totalShare",
          "type": "uint256"
        },
        {
          "internalType": "uint256",
          "name": "totalAsset",
          "type": "uint256"
        },
        {
          "internalType": "uint256",
          "name": "timestamp",
          "type": "uint256"
        }
      ],
      "stateMutability": "view",
      "type": "function"
    },
    {
      "inputs": [],
      "name": "auditWithdrawPeriod",
      "outputs": [
        {
          "internalType": "uint256",
          "name": "",
          "type": "uint256"
        }
      ],
      "stateMutability": "view",
      "type": "function"
    },
    {
      "inputs": [],
      "name": "cancelAllLimitOrders",
      "outputs": [],
      "stateMutability": "nonpayable",
      "type": "function"
    },
    {
      "inputs": [
        {
          "internalType": "uint256[]",
          "name": "_ids",
          "type": "uint256[]"
        }
      ],
      "name": "cancelOrders",
      "outputs": [],
      "stateMutability": "nonpayable",
      "type": "function"
    },
    {
      "inputs": [
        {
          "internalType": "string",
          "name": "_name",
          "type": "string"
        },
        {
          "internalType": "uint256",
          "name": "_amount",
          "type": "uint256"
        },
        {
          "internalType": "uint256",
          "name": "_orderType",
          "type": "uint256"
        },
        {
          "internalType": "uint256",
          "name": "_price",
          "type": "uint256"
        },
        {
          "internalType": "enum Direct",
          "name": "_type",
          "type": "uint8"
        },
        {
          "internalType": "uint256",
          "name": "_goodTill",
          "type": "uint256"
        },
        {
          "internalType": "uint256",
          "name": "_deadline",
          "type": "uint256"
        },
        {
          "internalType": "bytes",
          "name": "_priceUpdate",
          "type": "bytes"
        }
      ],
      "name": "closePosition",
      "outputs": [],
      "stateMutability": "payable",
      "type": "function"
    },
    {
      "inputs": [],
      "name": "commissionRate",
      "outputs": [
        {
          "internalType": "uint256",
          "name": "",
          "type": "uint256"
        }
      ],
      "stateMutability": "view",
      "type": "function"
    },
    {
      "inputs": [],
      "name": "dailyAssetShareSnapPeriod",
      "outputs": [
        {
          "internalType": "uint256",
          "name": "",
          "type": "uint256"
        }
      ],
      "stateMutability": "view",
      "type": "function"
    },
    {
      "inputs": [
        {
          "internalType": "uint256",
          "name": "_amount",
          "type": "uint256"
        },
        {
          "internalType": "string[]",
          "name": "_symbols",
          "type": "string[]"
        },
        {
          "internalType": "bytes[]",
          "name": "_reportData",
          "type": "bytes[]"
        }
      ],
      "name": "deposit",
      "outputs": [],
      "stateMutability": "payable",
      "type": "function"
    },
    {
      "inputs": [],
      "name": "distributeCommissionPeriod",
      "outputs": [
        {
          "internalType": "uint256",
          "name": "",
          "type": "uint256"
        }
      ],
      "stateMutability": "view",
      "type": "function"
    },
    {
      "inputs": [
        {
          "internalType": "string[]",
          "name": "_symbols",
          "type": "string[]"
        },
        {
          "internalType": "bytes[]",
          "name": "_priceUpdates",
          "type": "bytes[]"
        }
      ],
      "name": "distributeProfits",
      "outputs": [],
      "stateMutability": "payable",
      "type": "function"
    },
    {
      "inputs": [],
      "name": "getAllFollowers",
      "outputs": [
        {
          "internalType": "address[]",
          "name": "",
          "type": "address[]"
        }
      ],
      "stateMutability": "view",
      "type": "function"
    },
    {
      "inputs": [],
      "name": "getFollowerCount",
      "outputs": [
        {
          "internalType": "uint256",
          "name": "",
          "type": "uint256"
        }
      ],
      "stateMutability": "view",
      "type": "function"
    },
    {
      "inputs": [],
      "name": "getFollowers",
      "outputs": [
        {
          "internalType": "address[]",
          "name": "followerAddresses",
          "type": "address[]"
        }
      ],
      "stateMutability": "view",
      "type": "function"
    },
    {
      "inputs": [],
      "name": "getFollowersInfo",
      "outputs": [
        {
          "components": [
            {
              "internalType": "address",
              "name": "userAddress",
              "type": "address"
            },
            {
              "internalType": "uint256",
              "name": "firstFollowTime",
              "type": "uint256"
            }
          ],
          "internalType": "struct LeadingContract.Follower[]",
          "name": "",
          "type": "tuple[]"
        }
      ],
      "stateMutability": "view",
      "type": "function"
    },
    {
      "inputs": [],
      "name": "getLatestClosedProfit",
      "outputs": [
        {
          "internalType": "int256",
          "name": "profit",
          "type": "int256"
        }
      ],
      "stateMutability": "view",
      "type": "function"
    },
    {
      "inputs": [
        {
          "internalType": "uint256[]",
          "name": "indices",
          "type": "uint256[]"
        }
      ],
      "name": "getSupplyBalanceHistoryAtMultiple",
      "outputs": [
        {
          "internalType": "uint256[]",
          "name": "",
          "type": "uint256[]"
        },
        {
          "internalType": "uint256[]",
          "name": "",
          "type": "uint256[]"
        },
        {
          "internalType": "uint256[]",
          "name": "",
          "type": "uint256[]"
        }
      ],
      "stateMutability": "view",
      "type": "function"
    },
    {
      "inputs": [
        {
          "internalType": "uint256",
          "name": "index",
          "type": "uint256"
        }
      ],
      "name": "getSupplyBalanceHistoryItem",
      "outputs": [
        {
          "internalType": "int256",
          "name": "",
          "type": "int256"
        },
        {
          "internalType": "uint256",
          "name": "",
          "type": "uint256"
        },
        {
          "internalType": "uint256",
          "name": "",
          "type": "uint256"
        },
        {
          "internalType": "uint256",
          "name": "",
          "type": "uint256"
        }
      ],
      "stateMutability": "view",
      "type": "function"
    },
    {
      "inputs": [],
      "name": "getSupplyBalanceHistoryLength",
      "outputs": [
        {
          "internalType": "uint256",
          "name": "",
          "type": "uint256"
        }
      ],
      "stateMutability": "view",
      "type": "function"
    },
    {
      "inputs": [
        {
          "internalType": "string[]",
          "name": "_symbols",
          "type": "string[]"
        },
        {
          "internalType": "uint256[]",
          "name": "_prices",
          "type": "uint256[]"
        }
      ],
      "name": "getTotalBalance",
      "outputs": [
        {
          "internalType": "uint256",
          "name": "assetAmount",
          "type": "uint256"
        },
        {
          "internalType": "bool",
          "name": "gainLoss",
          "type": "bool"
        },
        {
          "internalType": "uint256",
          "name": "profit",
          "type": "uint256"
        }
      ],
      "stateMutability": "view",
      "type": "function"
    },
    {
      "inputs": [
        {
          "internalType": "address",
          "name": "user",
          "type": "address"
        }
      ],
      "name": "getUserShare",
      "outputs": [
        {
          "internalType": "uint256",
          "name": "_totalShares",
          "type": "uint256"
        },
        {
          "internalType": "uint256",
          "name": "_freezeShare",
          "type": "uint256"
        }
      ],
      "stateMutability": "view",
      "type": "function"
    },
    {
      "inputs": [
        {
          "internalType": "address",
          "name": "user",
          "type": "address"
        }
      ],
      "name": "getWithdrawItems",
      "outputs": [
        {
          "components": [
            {
              "internalType": "address",
              "name": "user",
              "type": "address"
            },
            {
              "internalType": "uint256",
              "name": "withdrawID",
              "type": "uint256"
            },
            {
              "internalType": "uint256",
              "name": "withdrawShare",
              "type": "uint256"
            },
            {
              "internalType": "uint256",
              "name": "withdrawAmount",
              "type": "uint256"
            },
            {
              "internalType": "uint256",
              "name": "withdrawTime",
              "type": "uint256"
            },
            {
              "internalType": "uint8",
              "name": "status",
              "type": "uint8"
            }
          ],
          "internalType": "struct LeadingContract.UserWithdrawShareItem[]",
          "name": "",
          "type": "tuple[]"
        }
      ],
      "stateMutability": "view",
      "type": "function"
    },
    {
      "inputs": [
        {
          "internalType": "uint256[]",
          "name": "items",
          "type": "uint256[]"
        },
        {
          "internalType": "bool",
          "name": "cancel",
          "type": "bool"
        },
        {
          "internalType": "string[]",
          "name": "_symbols",
          "type": "string[]"
        },
        {
          "internalType": "bytes[]",
          "name": "_reportData",
          "type": "bytes[]"
        }
      ],
      "name": "handleWithdrawItems",
      "outputs": [],
      "stateMutability": "payable",
      "type": "function"
    },
    {
      "inputs": [
        {
          "internalType": "uint256[]",
          "name": "items",
          "type": "uint256[]"
        },
        {
          "internalType": "string[]",
          "name": "_symbols",
          "type": "string[]"
        },
        {
          "internalType": "bytes[]",
          "name": "_reportData",
          "type": "bytes[]"
        }
      ],
      "name": "handleWithdrawItems4Risk",
      "outputs": [],
      "stateMutability": "payable",
      "type": "function"
    },
    {
      "inputs": [
        {
          "internalType": "address",
          "name": "initialOwner",
          "type": "address"
        },
        {
          "internalType": "address",
          "name": "_trader",
          "type": "address"
        },
        {
          "internalType": "address payable",
          "name": "_factoryAddress",
          "type": "address"
        },
        {
          "internalType": "address",
          "name": "_perpetual",
          "type": "address"
        },
        {
          "internalType": "address",
          "name": "_tradeAgent",
          "type": "address"
        },
        {
          "internalType": "address",
          "name": "_orderBook",
          "type": "address"
        },
        {
          "internalType": "uint256",
          "name": "_rate",
          "type": "uint256"
        }
      ],
      "name": "initialize",
      "outputs": [],
      "stateMutability": "nonpayable",
      "type": "function"
    },
    {
      "inputs": [],
      "name": "lastBalanceSnapTime",
      "outputs": [
        {
          "internalType": "uint256",
          "name": "",
          "type": "uint256"
        }
      ],
      "stateMutability": "view",
      "type": "function"
    },
    {
      "inputs": [],
      "name": "lastDistributeProfit",
      "outputs": [
        {
          "internalType": "int256",
          "name": "",
          "type": "int256"
        }
      ],
      "stateMutability": "view",
      "type": "function"
    },
    {
      "inputs": [],
      "name": "lastDistributionTime",
      "outputs": [
        {
          "internalType": "uint256",
          "name": "",
          "type": "uint256"
        }
      ],
      "stateMutability": "view",
      "type": "function"
    },
    {
      "inputs": [],
      "name": "owner",
      "outputs": [
        {
          "internalType": "address",
          "name": "",
          "type": "address"
        }
      ],
      "stateMutability": "view",
      "type": "function"
    },
    {
      "inputs": [],
      "name": "perpetual",
      "outputs": [
        {
          "internalType": "contract IPerpetuals",
          "name": "",
          "type": "address"
        }
      ],
      "stateMutability": "view",
      "type": "function"
    },
    {
      "inputs": [
        {
          "internalType": "string[]",
          "name": "_symbols",
          "type": "string[]"
        },
        {
          "internalType": "bytes[]",
          "name": "_priceUpdates",
          "type": "bytes[]"
        }
      ],
      "name": "reckonLeadingContract",
      "outputs": [],
      "stateMutability": "payable",
      "type": "function"
    },
    {
      "inputs": [
        {
          "internalType": "string[]",
          "name": "symbols",
          "type": "string[]"
        },
        {
          "internalType": "bytes[]",
          "name": "reportData",
          "type": "bytes[]"
        }
      ],
      "name": "recordSupplyAndBalance",
      "outputs": [],
      "stateMutability": "payable",
      "type": "function"
    },
    {
      "inputs": [],
      "name": "renounceOwnership",
      "outputs": [],
      "stateMutability": "nonpayable",
      "type": "function"
    },
    {
      "inputs": [],
      "name": "round",
      "outputs": [
        {
          "internalType": "uint256",
          "name": "",
          "type": "uint256"
        }
      ],
      "stateMutability": "view",
      "type": "function"
    },
    {
      "inputs": [
        {
          "internalType": "string",
          "name": "_name",
          "type": "string"
        },
        {
          "internalType": "uint256",
          "name": "_leverage",
          "type": "uint256"
        }
      ],
      "name": "setUserLeverage",
      "outputs": [],
      "stateMutability": "nonpayable",
      "type": "function"
    },
    {
      "inputs": [],
      "name": "startTime",
      "outputs": [
        {
          "internalType": "uint256",
          "name": "",
          "type": "uint256"
        }
      ],
      "stateMutability": "view",
      "type": "function"
    },
    {
      "inputs": [],
      "name": "totalShare",
      "outputs": [
        {
          "internalType": "uint256",
          "name": "",
          "type": "uint256"
        }
      ],
      "stateMutability": "view",
      "type": "function"
    },
    {
      "inputs": [
        {
          "internalType": "string",
          "name": "_name",
          "type": "string"
        },
        {
          "internalType": "uint256",
          "name": "_amount",
          "type": "uint256"
        },
        {
          "internalType": "uint256",
          "name": "_price",
          "type": "uint256"
        },
        {
          "internalType": "uint256",
          "name": "_orderType",
          "type": "uint256"
        },
        {
          "internalType": "enum Direct",
          "name": "_type",
          "type": "uint8"
        },
        {
          "internalType": "uint256",
          "name": "_goodTill",
          "type": "uint256"
        },
        {
          "internalType": "uint256",
          "name": "_deadline",
          "type": "uint256"
        },
        {
          "internalType": "bytes",
          "name": "_priceUpdate",
          "type": "bytes"
        }
      ],
      "name": "trade",
      "outputs": [],
      "stateMutability": "payable",
      "type": "function"
    },
    {
      "inputs": [],
      "name": "trader",
      "outputs": [
        {
          "internalType": "address",
          "name": "",
          "type": "address"
        }
      ],
      "stateMutability": "view",
      "type": "function"
    },
    {
      "inputs": [
        {
          "internalType": "string[]",
          "name": "_symbols",
          "type": "string[]"
        },
        {
          "internalType": "bytes[]",
          "name": "_priceUpdates",
          "type": "bytes[]"
        }
      ],
      "name": "traderDeleteContract",
      "outputs": [],
      "stateMutability": "payable",
      "type": "function"
    },
    {
      "inputs": [
        {
          "internalType": "address",
          "name": "newOwner",
          "type": "address"
        }
      ],
      "name": "transferOwnership",
      "outputs": [],
      "stateMutability": "nonpayable",
      "type": "function"
    },
    {
      "inputs": [
        {
          "internalType": "address",
          "name": "",
          "type": "address"
        }
      ],
      "name": "userShares",
      "outputs": [
        {
          "internalType": "uint256",
          "name": "",
          "type": "uint256"
        }
      ],
      "stateMutability": "view",
      "type": "function"
    },
    {
      "inputs": [
        {
          "internalType": "uint256",
          "name": "",
          "type": "uint256"
        }
      ],
      "name": "userWithdrawItems",
      "outputs": [
        {
          "internalType": "address",
          "name": "user",
          "type": "address"
        },
        {
          "internalType": "uint256",
          "name": "withdrawID",
          "type": "uint256"
        },
        {
          "internalType": "uint256",
          "name": "withdrawShare",
          "type": "uint256"
        },
        {
          "internalType": "uint256",
          "name": "withdrawAmount",
          "type": "uint256"
        },
        {
          "internalType": "uint256",
          "name": "withdrawTime",
          "type": "uint256"
        },
        {
          "internalType": "uint8",
          "name": "status",
          "type": "uint8"
        }
      ],
      "stateMutability": "view",
      "type": "function"
    },
    {
      "inputs": [
        {
          "internalType": "uint256",
          "name": "_share",
          "type": "uint256"
        }
      ],
      "name": "withdraw",
      "outputs": [],
      "stateMutability": "nonpayable",
      "type": "function"
    },
    {
      "stateMutability": "payable",
      "type": "receive"
    }
  ],
  "bytecode": "0x608080604052346015576151d9908161001b8239f35b600080fdfe6080806040526004361015610011575b005b600090813560e01c908163026c42071461224b57508063030fc7dd146122285780630d79f561146121a95780630fa47109146120355780631460e39014611c4a578063146ca53114611c2c578063170794a814611a5f5780631758078b14611a385780631816129f14611a1a57806319e67d75146119f4578063227ddb4e146113995780632449e973146112a05780632d9cd09a146112775780632e1a7d4d146110ac5780632f1cc4d014610ff35780633f70498b14610f7f578063490ae1cd14610e135780635ea1d6f814610df557806366776f6214610d6757806368306b7614610d49578063715018a614610cb057806375b1735014610c925780637829ae4a14610c7457806378e9792514610c5657806385fa292f14610c2f57806387ec936d14610c065780638da5cb5b14610bc057806390536e4314610b145780639823aa8e14610af6578063a34d87c514610ad8578063a70c7ed4146109e8578063aa66ea671461097a578063ae6936731461095c578063b2b7d9ac1461093e578063b55fb57414610842578063bacea2d2146107ed578063bbbaee4c14610741578063c365e421146106b7578063c89db57214610699578063cce13b8e1461067b578063d14ec0dc1461065d578063d1ab4aaa146104c8578063d4baf488146104aa578063de69b3aa14610472578063dfce0f8314610408578063e597868614610288578063f2fde38b1461025e5763fde895980361000f573461025b578060031936011261025b576102506001600160a01b03600354163314612844565b610258613c5e565b80f35b80fd5b503461025b57602060031936011261025b5761025861027b612481565b61028361465f565b6130d7565b5061010060031936011261025b578060043567ffffffffffffffff8111610405576102b7903690600401612387565b60843560038110156104035760e43567ffffffffffffffff8111610401576102e3903690600401612387565b916102ec613502565b6103026001600160a01b03601354163314612977565b6001600160a01b03845416803b156103fd57610360610383926103a48795604051978896879586957fe59786860000000000000000000000000000000000000000000000000000000087526101006004880152610104870190612a0b565b9260243560248701526044356044870152606435606487015260848601906130b4565b60a43560a485015260c43560c48501526003198483030160e4850152612a0b565b039134905af180156103f2576103dd575b5060017f9b779b17422d0df92223018b32b4d1fa46e071723d6817e2486d003becc55f005580f35b816103e791612330565b61025b5780386103b5565b6040513d84823e3d90fd5b8480fd5b505b505b50fd5b503461025b57602060031936011261025b57600435601e5481101561046e57610430906125f4565b50805461046a6001830154926003600282015491015490604051948594859094939260609260808301968352602083015260408201520152565b0390f35b5080fd5b503461025b57602060031936011261025b5760406020916001600160a01b03610499612481565b168152601583522054604051908152f35b503461025b578060031936011261025b576020601054604051908152f35b5061010060031936011261025b578060043567ffffffffffffffff8111610405576104f7903690600401612387565b6084359060038210156104035760e4359167ffffffffffffffff831161040157366023840112156104015782600401359267ffffffffffffffff84116103fd5736602485830101116103fd5761054b613502565b6001600160a01b036013541693610563853314612977565b6001600160a01b0386541691823b156106595786946105ec94601f19601f856105cb9660246020976040519d8e9c8d9b8c9a7fc8f5ede2000000000000000000000000000000000000000000000000000000008c5261012060048d01526101248c0190612a0b565b988435858c015260443560448c015260643560648c015260848b01906130b4565b60a489015260a43560c489015260c43560e48901526003198888030161010489015282875201878601378986828601015201160103019134905af180156103f2576103dd575060017f9b779b17422d0df92223018b32b4d1fa46e071723d6817e2486d003becc55f005580f35b8680fd5b503461025b578060031936011261025b576020600654604051908152f35b503461025b578060031936011261025b576020600f54604051908152f35b503461025b578060031936011261025b576020601e54604051908152f35b503461025b578060031936011261025b5760405180916020601a54928381520191601a82527f057c384a7d1c54f3a1b2e5e67b2617b8224fdfd1ea7234eea573a6ff665ff63e915b8181106107225761046a8561071681870382612330565b60405191829182612267565b82546001600160a01b03168452602090930192600192830192016106ff565b503461025b57602060031936011261025b576001600160a01b03610763612481565b163081036107c65750610774614bc1565b90600e54905b809281935b81518510156107b6576107ae60019161079887856126b4565b518552601c6020526002604086200154906127a1565b94019361077f565b8360409182519182526020820152f35b8082526015602052604082205490825260166020526107e760408320614c0c565b9161077a565b503461025b57602060031936011261025b5761081361080d6004356125f4565b50612812565b805160208083015160408085015160609586015182519586529385019290925283015291810191909152608090f35b503461025b57602060031936011261025b5760043567ffffffffffffffff811161046e57610874903690600401612497565b61088a6001600160a01b03601354163314612977565b8147916001600160a01b03825416803b1561093a576108e483929183926040519485809481937fb55fb5740000000000000000000000000000000000000000000000000000000083526020600484015260248301906124f4565b03925af180156103f257610925575b50506108ff90476126c8565b81816109085780f35b80808061092094335af161091a612726565b50612756565b388180f35b8161092f91612330565b61046e5781386108f3565b8280fd5b503461025b578060031936011261025b576020600c54604051908152f35b503461025b578060031936011261025b576020600b54604051908152f35b503461025b57602060031936011261025b57604060c0916004358152601c602052206001600160a01b0381541690600181015490600281015460038201549060ff600560048501549401541693604051958652602086015260408501526060840152608083015260a0820152f35b503461025b578060031936011261025b57601b54610a0581612353565b610a126040519182612330565b818152601b83526020810191837f3ad8aa4f87544323a9d1e5dd902f40c356527a7955687113db5f9a85ad579dc1845b838310610aa257868587604051928392602084019060208552518091526040840192915b818110610a74575050500390f35b825180516001600160a01b031685526020908101518186015286955060409094019390920191600101610a66565b60026020600192604051610ab5816122f8565b6001600160a01b0386541681528486015483820152815201920192019190610a42565b503461025b578060031936011261025b576020601254604051908152f35b503461025b578060031936011261025b576020600754604051908152f35b50606060031936011261025b5760043567ffffffffffffffff811161046e57610b41903690600401612497565b60243567ffffffffffffffff811161093a57610b619036906004016123d1565b6044359167ffffffffffffffff8311610bbc57610b85610b95933690600401612450565b929091610b90613502565b612f74565b60017f9b779b17422d0df92223018b32b4d1fa46e071723d6817e2486d003becc55f005580f35b8380fd5b503461025b578060031936011261025b5760206001600160a01b037f9016d09d72d40fdae2fd8ceac6b6234c7706214fd39c1cd1e609a0528c1993005416604051908152f35b50610b95610c27610c1636612594565b610c21929192613502565b82613277565b9190506146c0565b503461025b578060031936011261025b5760206001600160a01b0360145416604051908152f35b503461025b578060031936011261025b576020600a54604051908152f35b503461025b578060031936011261025b576020601b54604051908152f35b503461025b578060031936011261025b576020600d54604051908152f35b503461025b578060031936011261025b57610cc961465f565b806001600160a01b037f9016d09d72d40fdae2fd8ceac6b6234c7706214fd39c1cd1e609a0528c199300546001600160a01b031981167f9016d09d72d40fdae2fd8ceac6b6234c7706214fd39c1cd1e609a0528c19930055167f8be0079c531659141344cd1fd0a4f28419497f9722a3daafe3b4186f6b6457e08280a380f35b503461025b578060031936011261025b576020601154604051908152f35b50608060031936011261025b5760043567ffffffffffffffff811161046e57610d94903690600401612497565b602435801515810361093a5760443567ffffffffffffffff8111610bbc57610dc09036906004016123d1565b916064359267ffffffffffffffff84116103fd57610de5610b95943690600401612450565b939092610df0613502565b612c5e565b503461025b578060031936011261025b576020600554604051908152f35b50610e1d36612594565b90610e346001600160a01b03601354163314612977565b610e3c613196565b6040810151610f3b5760600151610ef757610e5a610e629282613277565b919050613e75565b806001600160a01b03600354166001600160a01b03601354166001600160a01b0360145416823b15610401576040517f7f7c14910000000000000000000000000000000000000000000000000000000081526001600160a01b039283166004820152911660248201529082908290604490829084905af180156103f257610ee65750f35b81610ef091612330565b61025b5780f35b606460405162461bcd60e51b815260206004820152601160248201527f4578697374206c696d6974206f726465720000000000000000000000000000006044820152fd5b606460405162461bcd60e51b815260206004820152600e60248201527f457869737420706f736974696f6e0000000000000000000000000000000000006044820152fd5b503461025b57604060031936011261025b5760043567ffffffffffffffff811161046e57610fb19036906004016123d1565b906024359067ffffffffffffffff821161025b576060610fde84610fd83660048701612497565b90612a96565b90604051928352151560208301526040820152f35b503461025b57604060031936011261025b578060043567ffffffffffffffff811161040557611026903690600401612387565b61103c6001600160a01b03601354163314612977565b6001600160a01b03825416803b156104035761109383929183926040519485809481937f2f1cc4d0000000000000000000000000000000000000000000000000000000008352604060048401526044830190612a0b565b602435602483015203925af180156103f257610ee65750f35b503461025b57602060031936011261025b576004356110c9613502565b6004549060018201809211611263578160045533835260166020526110f060408420614c0c565b8391825b825184101561112b5761112360019161110d86866126b4565b518852601c6020526002604089200154906127a1565b9301926110f4565b9084816111458894338652601560205260408620546126c8565b1061121f5761115f90338452601660205260408420614f6f565b5061116b600454614ef8565b5060ff60056004549260405190611181826122dc565b3382526020820190858252604083019081526060830190878252608084019242845260a0850197600189528952601c6020526001600160a01b038060408b20965116166001600160a01b03198654161785555160018501555160028401555160038301555160048201550191511660ff1982541617905560017f9b779b17422d0df92223018b32b4d1fa46e071723d6817e2486d003becc55f005580f35b606460405162461bcd60e51b815260206004820152601d60248201527f496e73756666696369656e7420617661696c61626c65207368617265730000006044820152fd5b602483634e487b7160e01b81526011600452fd5b5061025861128436612594565b9061129b6001600160a01b03600354163314612844565b6128b5565b503461025b57602060031936011261025b5760043567ffffffffffffffff811161046e576112d2903690600401612497565b90815190601e546112e2836127e1565b926112ec816127e1565b916112f6826127e1565b935b82811061133b5761131f8661046a8761132d886040519586956060875260608701906124f4565b9085820360208701526124f4565b9083820360408501526124f4565b80611348600192896126b4565b51838110611358575b50016112f8565b61136661080d6060926125f4565b6020810151611375848b6126b4565b52604081015161138584896126b4565b52015161139282886126b4565b5238611351565b50606060031936011261025b5760043560243567ffffffffffffffff811161093a576113c99036906004016123d1565b60443567ffffffffffffffff8111610bbc576113e9903690600401612450565b90916113f3613502565b600e546119c55750505080346119ad575b33835260156020526040832061141b8282546127a1565b905561142981600e546127a1565b600e55338352601760205260ff604084205416156117c6575b6001600160a01b03601454169183806001600160a01b038154169460409582856114f87fffffffff00000000000000000000000000000000000000000000000000000000601860208c61149781519182612330565b8281527f617070726f766528616464726573732c75696e743235362900000000000000009101908152208b519116602082019081526001600160a01b039095166024820152604481019290925281606481015b03601f198101835282612330565b51925af1611504612726565b8161178f575b5015610bbc57836001600160a01b03601454166115278382614c57565b9081151580611786575b8061177d575b611677575b50506001600160a01b03815416803b1561046e5781809160248751809481937fb6b55f250000000000000000000000000000000000000000000000000000000083528860048401525af1801561166d57611658575b505061159f81601054612629565b6010556004546001810180911161164457917f613128987cba7a2073cf49ff02fbbe4e3728a0cf7ed9f8942569818fd0cfd66e939183610120946004556001600160a01b03601454168451946001865230602087015233908601526060850152608084015260a083015260c08201524260e08201526002610100820152a160017f9b779b17422d0df92223018b32b4d1fa46e071723d6817e2486d003becc55f005580f35b602485634e487b7160e01b81526011600452fd5b8161166291612330565b610bbc578338611591565b85513d84823e3d90fd5b8291827fffffffff00000000000000000000000000000000000000000000000000000000602589516116aa606082612330565b8181527f74323536290000000000000000000000000000000000000000000000000000008b60208301927f7472616e7366657246726f6d28616464726573732c616464726573732c75696e8452015220169188519060208201938452336024830152306044830152606482015260648152611726608482612330565b51925af1611732612726565b81611746575b5015610bbc5783388061153c565b805180159250821561175b575b505038611738565b81925090602091810103126103fd5760206117769101612a30565b3880611753565b50301515611537565b50331515611531565b80518015925082156117a4575b50503861150a565b81925090602091810103126103fd5760206117bf9101612a30565b388061179c565b338352601760205260408320600160ff19825416179055601a5468010000000000000000811015611999578060016118019201601a556127ae565b81549060031b906001600160a01b0333831b921b1916179055338352601d6020526040832054156118b0575b6001600160a01b0360035416803b15610bbc576040517fae5e55e60000000000000000000000000000000000000000000000000000000081523360048201523060248201529084908290604490829084905af180156118a557611891575b50611442565b8361189e91949294612330565b913861188b565b6040513d86823e3d90fd5b6040516118bc816122f8565b33815260208101428152601b5468010000000000000000811015611985578060016118ea9201601b55612695565b92909261197257906001600160a01b03806001935116166001600160a01b031984541617835551910155601b54338452601d60205260408420557f25721861c38b8c48f6705fecaea93b5de674735f1628fa9898ed0a89184aa25c6040518061196a423383602090939291936001600160a01b0360408201951681520152565b0390a161182d565b602486634e487b7160e01b815280600452fd5b602486634e487b7160e01b81526041600452fd5b602484634e487b7160e01b81526041600452fd5b6119c08380808034335af161091a612726565b611404565b6119da610c216119c0946119e1943691612528565b5090612a96565b50506119ef600e5484612709565b61271c565b503461025b578060031936011261025b576001600160a01b036020915416604051908152f35b503461025b578060031936011261025b576020600854604051908152f35b503461025b578060031936011261025b5760206001600160a01b0360135416604051908152f35b503461025b57602060031936011261025b576001600160a01b03611a81612481565b16308103611c145750611a92614bc1565b8051601f19611ab9611aa383612353565b92611ab16040519485612330565b808452612353565b01835b818110611bd9575050825b8251811015611b525780611add600192856126b4565b518552601c6020526040852060ff600560405192611afa846122dc565b6001600160a01b03815416845285810154602085015260028101546040850152600381015460608501526004810154608085015201541660a0820152611b4082856126b4565b52611b4b81846126b4565b5001611ac7565b8184604051918291602083016020845282518091526020604085019301915b818110611b7f575050500390f35b91935091602060c060019260ff60a088516001600160a01b038151168452858101518685015260408101516040850152606081015160608501526080810151608085015201511660a0820152019401910191849392611b71565b602090604051611be8816122dc565b86815286838201528660408201528660608201528660808201528660a082015282828601015201611abc565b81526016602052611c2760408220614c0c565b611a92565b503461025b578060031936011261025b576020600954604051908152f35b503461025b5760e060031936011261025b57611c64612481565b6024356001600160a01b03811680910361093a57604435906001600160a01b038216809203610bbc576064356001600160a01b0381168091036103fd57608435906001600160a01b0382168092036120315760a435906001600160a01b038216809203610659577ff0c57e16840df040f15088dc2f81fe391c3923bec73e23a9662efc9c229c6a00549560ff8760401c16159667ffffffffffffffff811680159081612029575b600114908161201f575b159081612016575b50611fee5791611dd0602092848a60017fffffffffffffffffffffffffffffffffffffffffffffffff000000000000000060049816177ff0c57e16840df040f15088dc2f81fe391c3923bec73e23a9662efc9c229c6a0055611f99575b50611d83614b68565b611d8b614b68565b611d94336130d7565b611d9c614b68565b611da4614b68565b60017f9b779b17422d0df92223018b32b4d1fa46e071723d6817e2486d003becc55f005561028361465f565b806001600160a01b03198a5416178955604051928380927f2ca430510000000000000000000000000000000000000000000000000000000082525afa8015611f8e578790611f4e575b6001600160a01b039150166001600160a01b031960145416176014556001600160a01b031960015416176001556001600160a01b031960025416176002556001600160a01b0319601354161760135560c4356005556001600160a01b03196003541617600355620151806008556201518060065562093a80600755600160095542600a5542600d55611eb0620151804206426126c8565b600c55611eba5780f35b7fffffffffffffffffffffffffffffffffffffffffffffff00ffffffffffffffff7ff0c57e16840df040f15088dc2f81fe391c3923bec73e23a9662efc9c229c6a0054167ff0c57e16840df040f15088dc2f81fe391c3923bec73e23a9662efc9c229c6a00557fc7f505b2f371ae2175ee4913f4499e1f2633a7b5936321eed1cdaeb6115181d2602060405160018152a180f35b506020813d602011611f86575b81611f6860209383612330565b8101031261065957611f816001600160a01b03916126f5565b611e19565b3d9150611f5b565b6040513d89823e3d90fd5b7fffffffffffffffffffffffffffffffffffffffffffffff0000000000000000001668010000000000000001177ff0c57e16840df040f15088dc2f81fe391c3923bec73e23a9662efc9c229c6a005538611d7a565b6004897ff92ee8a9000000000000000000000000000000000000000000000000000000008152fd5b90501538611d1d565b303b159150611d15565b899150611d0b565b8580fd5b50604060031936011261025b5760043567ffffffffffffffff811161046e576120629036906004016123d1565b60243567ffffffffffffffff811161093a57612082903690600401612450565b9190612090600c54426126c8565b6006541161216557610c216119da916120aa943691612528565b5050906120c26120bc600654426126d5565b426126c8565b9182600c556120cf612674565b92600e5491604051946120e1866122aa565b8552602085019283526040850190815260608501918252601e54680100000000000000008110156121515780600161211c9201601e556125f4565b93909361213e5760039394955185555160018501555160028401555191015580f35b602485634e487b7160e01b815280600452fd5b602485634e487b7160e01b81526041600452fd5b606460405162461bcd60e51b815260206004820152601760248201527f746f6f2073686f72742074696d6520696e74657276616c0000000000000000006044820152fd5b503461025b578060031936011261025b57601b546121c681612353565b916121d46040519384612330565b818352601f196121e383612353565b013660208501375b818110612200576040518061046a8582612267565b806001600160a01b03612214600193612695565b50541661222182866126b4565b52016121eb565b503461025b578060031936011261025b576020612243612674565b604051908152f35b90503461046e578160031936011261046e57602090600e548152f35b602060408183019282815284518094520192019060005b81811061228b5750505090565b82516001600160a01b031684526020938401939092019160010161227e565b6080810190811067ffffffffffffffff8211176122c657604052565b634e487b7160e01b600052604160045260246000fd5b60c0810190811067ffffffffffffffff8211176122c657604052565b6040810190811067ffffffffffffffff8211176122c657604052565b60a0810190811067ffffffffffffffff8211176122c657604052565b90601f601f19910116810190811067ffffffffffffffff8211176122c657604052565b67ffffffffffffffff81116122c65760051b60200190565b67ffffffffffffffff81116122c657601f01601f191660200190565b81601f820112156123cc576020813591016123a18261236b565b926123af6040519485612330565b828452828201116123cc5781600092602092838601378301015290565b600080fd5b9080601f830112156123cc5781356123e881612353565b926123f66040519485612330565b81845260208085019260051b820101918383116123cc5760208201905b83821061242257505050505090565b813567ffffffffffffffff81116123cc5760209161244587848094880101612387565b815201910190612413565b9181601f840112156123cc5782359167ffffffffffffffff83116123cc576020808501948460051b0101116123cc57565b600435906001600160a01b03821682036123cc57565b9080601f830112156123cc5781356124ae81612353565b926124bc6040519485612330565b81845260208085019260051b8201019283116123cc57602001905b8282106124e45750505090565b81358152602091820191016124d7565b906020808351928381520192019060005b8181106125125750505090565b8251845260209384019390920191600101612505565b92919061253481612353565b936125426040519586612330565b602085838152019160051b8101918383116123cc5781905b838210612568575050505050565b813567ffffffffffffffff81116123cc576020916125898784938701612387565b81520191019061255a565b9060406003198301126123cc5760043567ffffffffffffffff81116123cc57826125c0916004016123d1565b916024359067ffffffffffffffff82116123cc57806023830112156123cc578160246125f193600401359101612528565b90565b601e5481101561261357601e60005260206000209060021b0190600090565b634e487b7160e01b600052603260045260246000fd5b9190916000838201938412911290801582169115161761264557565b634e487b7160e01b600052601160045260246000fd5b8181039291600013801582851316918412161761264557565b6125f161268c612682613196565b5160115490612629565b6010549061265b565b601b5481101561261357601b60005260206000209060011b0190600090565b80518210156126135760209160051b010190565b9190820391821161264557565b81156126df570690565b634e487b7160e01b600052601260045260246000fd5b51906001600160a01b03821682036123cc57565b8181029291811591840414171561264557565b81156126df570490565b3d15612751573d906127378261236b565b916127456040519384612330565b82523d6000602084013e565b606090565b1561275d57565b606460405162461bcd60e51b815260206004820152600f60248201527f7472616e73666572206661696c656400000000000000000000000000000000006044820152fd5b9190820180921161264557565b601a5481101561261357601a60005260206000200190600090565b80548210156126135760005260206000200190600090565b906127eb82612353565b6127f86040519182612330565b828152601f196128088294612353565b0190602036910137565b9060405161281f816122aa565b6060600382948054845260018101546020850152600281015460408501520154910152565b1561284b57565b608460405162461bcd60e51b815260206004820152602660248201527f4f6e6c7920666163746f72792063616e2065786563757465207468697320667560448201527f6e6374696f6e00000000000000000000000000000000000000000000000000006064820152fd5b906128c09082613277565b9091600e548015612971576128d58483612a96565b5050670de0b6b3a7640000810290808204670de0b6b3a7640000149015171561264557670429d069189e00009161290b9161271c565b101561292d5761291e61292b93826135bc565b612926613c5e565b613e75565b565b606460405162461bcd60e51b815260206004820152601a60248201527f6e65742076616c7565206973206d6f7265207468656e20302e330000000000006044820152fd5b50505050565b1561297e57565b608460405162461bcd60e51b815260206004820152602560248201527f4f6e6c79207472616465722063616e206578656375746520746869732066756e60448201527f6374696f6e0000000000000000000000000000000000000000000000000000006064820152fd5b60005b8381106129fb5750506000910152565b81810151838201526020016129eb565b90601f19601f602093612a29815180928187528780880191016129e8565b0116010190565b519081151582036123cc57565b9080602083519182815201916020808360051b8301019401926000915b838310612a6957505050505090565b9091929394602080612a8783601f1986600196030187528951612a0b565b97019301930191939290612a5a565b90918151835103612bf457612b2f92612aad613196565b5192612ab76140cd565b80151580612beb575b612bd5575b5090604091612b1d6001600160a01b0360025416918451978894859384937f9aa59c65000000000000000000000000000000000000000000000000000000008552306004860152606060248601526064850190612a3d565b906003198483030160448501526124f4565b03915afa918215612bc9576000938493612b86575b50828415612b5c575082612b57916127a1565b929190565b9250909250818111612b75575050600090600090600090565b81612b7f916126c8565b9160009190565b939092506040843d604011612bc1575b81612ba360409383612330565b8101031261025b57506020612bb784612a30565b9301519138612b44565b3d9150612b96565b6040513d6000823e3d90fd5b612be39060409392956126c8565b939091612ac5565b50808511612ac0565b608460405162461bcd60e51b815260206004820152602160248201527f7072696365204172726179206c656e677468732061726520646966666572656e60448201527f74000000000000000000000000000000000000000000000000000000000000006064820152fd5b9390929192612dd057612c90612c9e9592612c9692612c896001600160a01b03601354163314612977565b3691612528565b83613277565b949083612a96565b6020612cab939293613196565b01519215612dad575b50670de0b6b3a7640000810290808204670de0b6b3a7640000149015171561264557600e54612ce29161271c565b9160005b8551811015612d9d57612cf981876126b4565b519283600052601c602052670de0b6b3a7640000612d6a866040600020604051612d22816122dc565b6001600160a01b0382541681526001820154602082015260a060ff60056002850154948560408601526003810154606086015260048101546080860152015416910152612709565b0490818110612d9257888787612d8660019695612d8c956126c8565b9761410a565b01612ce6565b505050945050505050565b50949291505061292b925061459e565b9091818110612dc75790612dc0916126c8565b9038612cb4565b50505092505050565b50505060005b8151811015612f5757612de981836126b4565b519081600052601c602052604060002091604051612e06816122dc565b6001600160a01b038454168152600184015460208201526002840154906040810191825260ff6005600387015496606084019788526004810154608085015201541660a082015282600052601c6020526005604060002001600360ff198254161790556001600160a01b033391511603612f13576001937f613128987cba7a2073cf49ff02fbbe4e3728a0cf7ed9f8942569818fd0cfd66e9261012092336000526016602052612eba82604060002061509e565b50612ec482614fce565b506001600160a01b0360145416925190519160405193600085523060208601523360408601526060850152608084015260a083015260c08201524260e08201526003610100820152a101612dd6565b606460405162461bcd60e51b815260206004820152601060248201527f77726f6e672077697468647261776572000000000000000000000000000000006044820152fd5b505034612f6057565b61292b600080808034335af161091a612726565b9392612f869192610c21913691612528565b60085491936000939091845b875186101561300d57612fa586896126b4565b51600052601c60205242612fc1866004604060002001546127a1565b11612ff757612fee600191612fd6888b6126b4565b51600052601c602052600260406000200154906127a1565b955b0194612f92565b948060006130076001938b6126b4565b52612ff0565b9194509250939093156130ad5761302c90613026613c5e565b836135bc565b613034613196565b51670de0b6b3a7640000810290808204670de0b6b3a7640000149015171561264557600e546130629161271c565b9160005b855181101561309e578061307c600192886126b4565b5184848783156130955761308f9361410a565b01613066565b5050505061308f565b5090915061292b92935061459e565b5050509050565b9060038210156130c15752565b634e487b7160e01b600052602160045260246000fd5b6001600160a01b03168015613167576001600160a01b037f9016d09d72d40fdae2fd8ceac6b6234c7706214fd39c1cd1e609a0528c19930054826001600160a01b03198216177f9016d09d72d40fdae2fd8ceac6b6234c7706214fd39c1cd1e609a0528c19930055167f8be0079c531659141344cd1fd0a4f28419497f9722a3daafe3b4186f6b6457e0600080a3565b7f1e4fbdf700000000000000000000000000000000000000000000000000000000600052600060045260246000fd5b600060806040516131a681612314565b8281528260208201528260408201528260608201520152602460a06001600160a01b0360005416604051928380927ffb47e0160000000000000000000000000000000000000000000000000000000082523060048301525afa908115612bc957600091613211575090565b905060a0813d60a01161326f575b8161322c60a09383612330565b810103126123cc5760806040519161324383612314565b805183526020810151602084015260408101516040840152606081015160608401520151608082015290565b3d915061321f565b909181518351036134be579061328e81513461271c565b9261329a8251346126d5565b906132a581516127e1565b90805195601f196132ce6132b889612353565b986132c66040519a8b612330565b808a52612353565b0160005b8181106134ab57505086956000956020965b81518082101561349f576000198101908111612645578790821461348e575b5061335b886001600160a01b036003541661331e84866126b4565b519060405180809581947f299ae7530000000000000000000000000000000000000000000000000000000083528660048401526024830190612a0b565b03915afa8015612bc957899160009161344c575b50906133c66001600160a01b0392613387858a6126b4565b51886040519586809581947fb3d316c1000000000000000000000000000000000000000000000000000000008352604060048401526044830190612a0b565b600060248301520393165af1908115612bc95760009161341e575b50906001916133f082896126b4565b526040516133fe8a82612330565b6000815261340c828d6126b4565b52613417818c6126b4565b50016132e4565b908982813d8311613445575b6134348183612330565b8101031261025b57505160016133e1565b503d61342a565b9182813d8311613487575b6134618183612330565b8101031261025b5750886133c661347f6001600160a01b03936126f5565b91925061336f565b503d613457565b61349891946127a1565b9286613303565b50505094505050935050565b60606020828b01810191909152016132d2565b606460405162461bcd60e51b815260206004820152602060248201527f496e636f6e73697374656e74207072696365206172726179206c656e677468736044820152fd5b60027f9b779b17422d0df92223018b32b4d1fa46e071723d6817e2486d003becc55f0054146135515760027f9b779b17422d0df92223018b32b4d1fa46e071723d6817e2486d003becc55f0055565b7f3ee5aeb50000000000000000000000000000000000000000000000000000000060005260046000fd5b60405190613588826122dc565b600060a083606081528260208201528260408201528260608201528260808201520152565b60001981146126455760010190565b9190916004600093846001600160a01b03815416604051938480927fcd2ce4ae0000000000000000000000000000000000000000000000000000000082525afa918215613c53578592613b56575b508151908160011b917f7fffffffffffffffffffffffffffffffffffffffffffffffffffffffffffffff811603613b4257601f1961366061364a84612353565b936136586040519586612330565b808552612353565b01865b818110613b2b575050856001600160a01b0360015416936001600160a01b0360025416915b81518110156139d05760005b600281106136a55750600101613688565b96936136fe9460806136bc848695969a999a6126b4565b51604051809881927f0c8c3516000000000000000000000000000000000000000000000000000000008352306004840152606060248401526064830190612a0b565b8c604483015203818a5afa958615612bc957600096613970575b5061372161357b565b9686511561395f5760009a8b5b83518110156139445761374181856126b4565b516040516137706020828161375f81830196878151938492016129e8565b81010301601f198101835282612330565b51902061377d88886126b4565b5160405161379b6020828161375f81830196878151938492016129e8565b519020146137ab5760010161372e565b8498919c509a604061381c829f959d6137cc9060ff969e9d989a999a6126b4565b51925b6137d9898b6126b4565b5190835196879384937f721db562000000000000000000000000000000000000000000000000000000008552306004860152608060248601526084850190612a0b565b9186604485015216606483015203818b5afa918215612bc9576000938493613906575b5061385e6020670de0b6b3a7640000928460608a015201928351612709565b04608086015261386e86886126b4565b518552602085018e905251604085015281156138b6575090826138ae9260a060019501525b61389d828a6126b4565b526138a881896126b4565b506135ad565b995b01613694565b8091506138cb575b506138ae90600192613893565b907f800000000000000000000000000000000000000000000000000000000000000082146126455760009190910360a08301526138ae6138be565b939092506040843d821161393c575b8161392260409383612330565b8101031261025b575082516020909301519161385e61383f565b3d9150613915565b509a9660ff9199989397604061381c8d9f959d9897986137cf565b9796509760019195509291926138b0565b90956080823d82116139c8575b8161398a60809383612330565b8101031261025b57506060604051916139a2836122aa565b805183526020810151602084015260408101516040840152015160608201529438613718565b3d915061397d565b505050509150506139e2919250614d04565b90602060005b8351811015613b255760406139fd82866126b4565b51015115613b1d576001600160a01b036000541690613a1c81866126b4565b51516040613a2a83886126b4565b5101519284613a3984896126b4565b51015190600182018092116126455760038210156130c157604051613a5e8782612330565b60008152813b156123cc5760008094613af1613ad498613ab8946040519a8b98899788967fe59786860000000000000000000000000000000000000000000000000000000088526101006004890152610104880190612a0b565b93602487015286604487015286606487015260848601906130b4565b4260a48501524260c48501526003198483030160e4850152612a0b565b03925af1918215612bc957600192613b0c575b505b016139e8565b6000613b1791612330565b38613b04565b600190613b06565b50509050565b602090613b3661357b565b82828701015201613663565b602486634e487b7160e01b81526011600452fd5b9091503d8086833e613b688183612330565b8101906020818303126120315780519067ffffffffffffffff8211610659570181601f8201121561203157805190613b9f82612353565b92613bad6040519485612330565b82845260208085019360051b83010191818311613c4f5760208101935b838510613bdd575050505050903861360a565b845167ffffffffffffffff8111613c4b5782019083603f83011215613c4b57602082015190613c0b8261236b565b613c186040519182612330565b8281526040848401018610613c4757613c3c602094938594604086850191016129e8565b815201940193613bca565b8c80fd5b8a80fd5b8880fd5b6040513d87823e3d90fd5b47600154906001600160a01b03600080936024604051809481937f6f4907cb000000000000000000000000000000000000000000000000000000008352306004840152165afa908115613d61578391613d6c575b506001600160a01b0383541690813b15610bbc57613d0a849283926040519485809481937fb55fb5740000000000000000000000000000000000000000000000000000000083526020600484015260248301906124f4565b03925af18015613d6157613d4b575b50613d2490476126c8565b9081613d2e575050565b80808061292b946001600160a01b03601354165af161091a612726565b91613d5a81613d249394612330565b9190613d19565b6040513d85823e3d90fd5b90503d8084833e613d7d8183612330565b810190602081830312610bbc5780519067ffffffffffffffff82116103fd57019080601f83011215610bbc578151613db481612353565b92613dc26040519485612330565b81845260208085019260051b82010192831161203157602001905b828210613ded5750505038613cb2565b8151815260209182019101613ddd565b91613e15918352606060208401526060830190612a3d565b906040818303910152815180825260208201916020808360051b8301019401926000915b838310613e4857505050505090565b9091929394602080613e6683601f1986600196030187528951612a0b565b97019301930191939290613e39565b90613e7e613196565b5160009381613e8b6140cd565b908181116140ba575b505081926001600160a01b03865416803b15610659578660405180926352065a6560e11b8252818381613ecc888d8c60048501613dfd565b03925af18015611f8e576140a6575b50613ee883601154612629565b601155855b601a54811015614023576001600160a01b03613f08826127ae565b90549060031b1c168088526015602052604088205480613f2d575b5050600101613eed565b9095613f45613f3c8784612709565b600e549061271c565b908181111561401a5781613f58916126c8565b965b613f7082826001600160a01b0360145416614de2565b600454926001840180941161400657600484905560145460408051600081523060208201526001600160a01b039485169181019190915292166060830152608082019390935260a081019190915260c08101919091524260e08201526002610100820152600191907f613128987cba7a2073cf49ff02fbbe4e3728a0cf7ed9f8942569818fd0cfd66e9061012090a19038613f23565b60248b634e487b7160e01b81526011600452fd5b90508896613f5a565b5091509392614036925083600e5561459e565b601a5481601a5580614046575050565b601a82527f057c384a7d1c54f3a1b2e5e67b2617b8224fdfd1ea7234eea573a6ff665ff63e01907f057c384a7d1c54f3a1b2e5e67b2617b8224fdfd1ea7234eea573a6ff665ff63e5b82811061409b57505050565b81815560010161408f565b866140b391979297612330565b9438613edb565b6140c59293506126c8565b903880613e94565b600f54906140e56140dc612674565b6012549061265b565b600081136140f05750565b9160646141046125f1939460055490612709565b046127a1565b91939293600094838652601c602052604086209186670de0b6b3a764000061418160405196614138886122dc565b6001600160a01b03875416885260018701546020890152600287015460ff600560408b0199838b52600381015460608d0152600481015460808d015201541660a08a0152612709565b0492868252601c602052836003604084200155868252601c60205260056040832001600260ff198254161790556141ba84601154612629565b6011556001600160a01b03825416803b1561093a576141f193836040518096819582946352065a6560e11b84528a60048501613dfd565b03925af18015611f8e57614564575b50907f613128987cba7a2073cf49ff02fbbe4e3728a0cf7ed9f8942569818fd0cfd66e826142486142cb946001600160a01b03601454166001600160a01b0388511690614de2565b6014548351604080516000815230602082015233918101919091526001600160a01b0390921660608301526080820188905260a082019290925260c08101919091524260e0820152600261010082015261012090a180516001600160a01b03845116875260156020526142c0604088209182546126c8565b905551600e546126c8565b600e556001600160a01b0381511684526015602052604084205415614317575b81604061431494956001600160a01b0361430e945116815260166020522061509e565b50614fce565b50565b6001600160a01b03815116808552601d6020526040852054806143e4575b50506001600160a01b03815116845260176020526040842060ff198154169055836001600160a01b03600354166001600160a01b03835116813b1561093a576040517fdf51a5f60000000000000000000000000000000000000000000000000000000081526001600160a01b0391909116600482015230602482015291908290604490829084905af18015613c53576143cf575b506142eb565b6143da858092612330565b610bbc57386143c9565b601b546000198101908111614550578082036144ac575b5050601b548015614498576000190161441381612695565b614485579161447b9187600185827f3ddbb648aaeaaabce96671fb64baf7032313b7a0ef5c7083332fab22b28b481b97550155601b55808752601d602052866040812055604051918291429083602090939291936001600160a01b0360408201951681520152565b0390a13880614335565b602487634e487b7160e01b815280600452fd5b602486634e487b7160e01b81526031600452fd5b6144b581612695565b50600019830183811161453c576144cb90612695565b919091614529579181836001600160a01b03946144ef9403614505575b5050612695565b5054168652601d602052604086205538806143fb565b805482546001600160a01b03191690861617825560019081015491015538806144e8565b602489634e487b7160e01b815280600452fd5b602489634e487b7160e01b81526011600452fd5b602487634e487b7160e01b81526011600452fd5b866145956142cb9493987f613128987cba7a2073cf49ff02fbbe4e3728a0cf7ed9f8942569818fd0cfd66e93612330565b96919250614200565b90600e5461465b576145af916149cd565b6146396001600160a01b03601354167f9b4c8df72cad1b37ef25dc4ebc8cf34f53d771a1182c1740ddeb9092b783b2486101206001600160a01b03601454169260095493600a54600b546010549160115493604051953087526020870152604086015287606086015260808501524260a085015260c084015260e0830152610100820152a16135ad565b60095542600a556000600b556000600f55600060105560006011556000601255565b5050565b6001600160a01b037f9016d09d72d40fdae2fd8ceac6b6234c7706214fd39c1cd1e609a0528c1993005416330361469257565b7f118cdaa7000000000000000000000000000000000000000000000000000000006000523360045260246000fd5b906146d0600d54600754906127a1565b421061465b576004916000916146e4613196565b9060606001600160a01b0360035416604051968780927ff50200570000000000000000000000000000000000000000000000000000000082525afa9182156118a55784958593614988575b50600e5461491757519283600f555b83614752575b50505050505061292b61515a565b6001600160a01b0385541690813b156120315791859161478a93836040518096819582946352065a6560e11b84528b60048501613dfd565b03925af180156118a557614903575b5081926147a883600b546127a1565b600b556147b783600f546126c8565b600f55841515806148f1575b614863575b5050508091506147dd575b8080808080614744565b60a0816148237fd02394d66d13f483d5a33e67f60f1c8561b25608188ab82207b11115a926f5c2936001600160a01b03601454166001600160a01b036013541690614de2565b6001600160a01b0360135416906001600160a01b036014541690600f5491604051933085526020850152604084015260608301526080820152a1386147d3565b7fd02394d66d13f483d5a33e67f60f1c8561b25608188ab82207b11115a926f5c293506148a06064614898859760a096612709565b0480966126c8565b946148b781846001600160a01b0360145416614de2565b6001600160a01b03601454166001600160a01b0360405194308652166020850152604084015260608301526080820152a1803880806147c8565b506001600160a01b03821615156147c3565b8361491091949294612330565b9138614799565b61491f612674565b60125481131561497657614956606461494d6020936149406012548261265b565b9060125560055490612709565b04600f546127a1565b9182600f55015181811160001461496f57505b9261473e565b9050614969565b9550505050505060125561292b61515a565b955091506060853d6060116149c5575b816149a560609383612330565b81010312610bbc576149be6040602087015196016126f5565b913861472f565b3d9150614998565b906004916000916000906149df613196565b60606001600160a01b0360035416604051978880927ff50200570000000000000000000000000000000000000000000000000000000082525afa928315614b5c5780968194614b17575b50600e54614ab95750519283600f555b83614a4c5750505050505061292b61515a565b6001600160a01b036000541691823b156123cc57614a8592600092836040518096819582946352065a6560e11b84528b60048501613dfd565b03925af18015612bc957614aa2575081926147a883600b546127a1565b614ab0919350600090612330565b60009138614799565b614ac1612674565b601254811315614b0457614ae2606461494d6020936149406012548261265b565b9283600f5501519050818111600014614afd57505b92614a39565b9050614af7565b965050505050505060125561292b61515a565b965092506060863d606011614b54575b81614b3460609383612330565b8101031261093a57614b4d6040602088015197016126f5565b9238614a29565b3d9150614b27565b604051903d90823e3d90fd5b60ff7ff0c57e16840df040f15088dc2f81fe391c3923bec73e23a9662efc9c229c6a005460401c1615614b9757565b7fd7e6bcf80000000000000000000000000000000000000000000000000000000060005260046000fd5b604051906018548083528260208101601860005260206000209260005b818110614bf357505061292b92500383612330565b8454835260019485019487945060209093019201614bde565b906040519182815491828252602082019060005260206000209260005b818110614c3e57505061292b92500383612330565b8454835260019485019487945060209093019201614c29565b60206001600160a01b03916004604051809481937f313ce567000000000000000000000000000000000000000000000000000000008352165afa908115612bc957600091614cc7575b5060ff16604d811161264557670de0b6b3a764000091614cc391600a0a90612709565b0490565b6020813d602011614cfc575b81614ce060209383612330565b8101031261046e57519060ff8216820361025b575060ff614ca0565b3d9150614cd3565b908151600181111561431457600090600019810190811192835b6126455781831015614ddc57600090845b6126455784614d3e85856126c8565b831015614dcf575060a0614d5283886126b4565b5101516001830192838111612645578360019260a0614d728a978c6126b4565b51015113614d83575b500191614d2f565b614dc890614d91838b6126b4565b5160008b614daa86614da386846126b4565b51926126b4565b52614db5858d6126b4565b5050614dc1828c6126b4565b52896126b4565b5038614d7b565b9360019192500192614d1e565b92505050565b9091614dee9082614c57565b9081151580614ee6575b614e0157505050565b600092838093614e956040936114ea7fffffffff00000000000000000000000000000000000000000000000000000000601960208851614e418a82612330565b828152017f7472616e7366657228616464726573732c75696e7432353629000000000000008152201695519384926020840197885260248401602090939291936001600160a01b0360408201951681520152565b51925af1614ea1612726565b81614eaf575b50156123cc57565b8051801592508215614ec4575b505038614ea7565b81925090602091810103126123cc576020614edf9101612a30565b3880614ebc565b506001600160a01b0383161515614df8565b80600052601960205260406000205415600014614f6957601854680100000000000000008110156122c657614f50614f3982600185940160185560186127c9565b81939154906000199060031b92831b921b19161790565b9055601854906000526019602052604060002055600190565b50600090565b6001810190826000528160205260406000205415600014614fc6578054680100000000000000008110156122c657614fb1614f398260018794018555846127c9565b90555491600052602052604060002055600190565b505050600090565b6000818152601960205260409020548015615097576000198101818111612645576018549060001982019182116126455781810361505d575b505050601854801561504757600019016150228160186127c9565b60001982549160031b1b19169055601855600052601960205260006040812055600190565b634e487b7160e01b600052603160045260246000fd5b61507f61506e614f399360186127c9565b90549060031b1c92839260186127c9565b90556000526019602052604060002055388080615007565b5050600090565b90600182019181600052826020526040600020548015156000146151515760001981018181116126455782549060001982019182116126455781810361511a575b505050805480156150475760001901906150f982826127c9565b60001982549160031b1b191690555560005260205260006040812055600190565b61513a61512a614f3993866127c9565b90549060031b1c928392866127c9565b9055600052836020526040600020553880806150df565b50505050600090565b615169620151804206426126c8565b620151808104600381018091116126455760079006620151808102908082046201518014901517156126455761519e916126c8565b600d5556fea2646970667358221220564e7c73d49dac8d781c7e90cf830e8a13ed64194d529d758c13b00ed3b2086864736f6c634300081c0033",
  "linkReferences": {},
  "deployedLinkReferences": {}
}