{
  "_format": "hh-sol-artifact-1",
  "contractName": "LeadingContract",
  "sourceName": "contracts/LeadingContract.sol",
  "abi": [
    {
      "inputs": [],
      "name": "InvalidInitialization",
      "type": "error"
    },
    {
      "inputs": [],
      "name": "NotInitializing",
      "type": "error"
    },
    {
      "inputs": [
        {
          "internalType": "address",
          "name": "owner",
          "type": "address"
        }
      ],
      "name": "OwnableInvalidOwner",
      "type": "error"
    },
    {
      "inputs": [
        {
          "internalType": "address",
          "name": "account",
          "type": "address"
        }
      ],
      "name": "OwnableUnauthorizedAccount",
      "type": "error"
    },
    {
      "inputs": [],
      "name": "ReentrancyGuardReentrantCall",
      "type": "error"
    },
    {
      "anonymous": false,
      "inputs": [
        {
          "indexed": false,
          "internalType": "address",
          "name": "trader",
          "type": "address"
        },
        {
          "indexed": false,
          "internalType": "address",
          "name": "token",
          "type": "address"
        },
        {
          "indexed": false,
          "internalType": "uint256",
          "name": "amount",
          "type": "uint256"
        }
      ],
      "name": "CommissionPaid",
      "type": "event"
    },
    {
      "anonymous": false,
      "inputs": [
        {
          "indexed": false,
          "internalType": "address",
          "name": "follower",
          "type": "address"
        },
        {
          "indexed": false,
          "internalType": "uint256",
          "name": "firstFollowTime",
          "type": "uint256"
        }
      ],
      "name": "FollowerAdded",
      "type": "event"
    },
    {
      "anonymous": false,
      "inputs": [
        {
          "indexed": false,
          "internalType": "address",
          "name": "follower",
          "type": "address"
        },
        {
          "indexed": false,
          "internalType": "uint256",
          "name": "removedFollowTime",
          "type": "uint256"
        }
      ],
      "name": "FollowerRemoved",
      "type": "event"
    },
    {
      "anonymous": false,
      "inputs": [
        {
          "indexed": false,
          "internalType": "uint64",
          "name": "version",
          "type": "uint64"
        }
      ],
      "name": "Initialized",
      "type": "event"
    },
    {
      "anonymous": false,
      "inputs": [
        {
          "indexed": false,
          "internalType": "address",
          "name": "leadingContract",
          "type": "address"
        },
        {
          "indexed": false,
          "internalType": "address",
          "name": "leader",
          "type": "address"
        },
        {
          "indexed": false,
          "internalType": "address",
          "name": "token",
          "type": "address"
        },
        {
          "indexed": false,
          "internalType": "uint256",
          "name": "round",
          "type": "uint256"
        },
        {
          "indexed": false,
          "internalType": "uint256",
          "name": "startTime",
          "type": "uint256"
        },
        {
          "indexed": false,
          "internalType": "uint256",
          "name": "endTime",
          "type": "uint256"
        },
        {
          "indexed": false,
          "internalType": "uint256",
          "name": "accumulatedCommission",
          "type": "uint256"
        },
        {
          "indexed": false,
          "internalType": "int256",
          "name": "accumulatedDepositAmount",
          "type": "int256"
        },
        {
          "indexed": false,
          "internalType": "int256",
          "name": "accumulatedWithdrawAmount",
          "type": "int256"
        }
      ],
      "name": "LeadingContractReckon",
      "type": "event"
    },
    {
      "anonymous": false,
      "inputs": [
        {
          "indexed": true,
          "internalType": "address",
          "name": "previousOwner",
          "type": "address"
        },
        {
          "indexed": true,
          "internalType": "address",
          "name": "newOwner",
          "type": "address"
        }
      ],
      "name": "OwnershipTransferred",
      "type": "event"
    },
    {
      "anonymous": false,
      "inputs": [
        {
          "indexed": false,
          "internalType": "address",
          "name": "leadingContract",
          "type": "address"
        },
        {
          "indexed": false,
          "internalType": "address",
          "name": "trader",
          "type": "address"
        },
        {
          "indexed": false,
          "internalType": "address",
          "name": "token",
          "type": "address"
        },
        {
          "indexed": false,
          "internalType": "uint256",
          "name": "paidDistribute",
          "type": "uint256"
        },
        {
          "indexed": false,
          "internalType": "uint256",
          "name": "unpaidDistribute",
          "type": "uint256"
        }
      ],
      "name": "ProfitsDistributed",
      "type": "event"
    },
    {
      "anonymous": false,
      "inputs": [
        {
          "indexed": false,
          "internalType": "bool",
          "name": "isDeposit",
          "type": "bool"
        },
        {
          "indexed": false,
          "internalType": "address",
          "name": "leader",
          "type": "address"
        },
        {
          "indexed": false,
          "internalType": "address",
          "name": "user",
          "type": "address"
        },
        {
          "indexed": false,
          "internalType": "address",
          "name": "token",
          "type": "address"
        },
        {
          "indexed": false,
          "internalType": "uint256",
          "name": "sid",
          "type": "uint256"
        },
        {
          "indexed": false,
          "internalType": "uint256",
          "name": "amount",
          "type": "uint256"
        },
        {
          "indexed": false,
          "internalType": "uint256",
          "name": "share",
          "type": "uint256"
        },
        {
          "indexed": false,
          "internalType": "uint256",
          "name": "time",
          "type": "uint256"
        },
        {
          "indexed": false,
          "internalType": "uint256",
          "name": "status",
          "type": "uint256"
        }
      ],
      "name": "TransformToken",
      "type": "event"
    },
    {
      "stateMutability": "payable",
      "type": "fallback"
    },
    {
      "inputs": [],
      "name": "accumulatedCommission",
      "outputs": [
        {
          "internalType": "uint256",
          "name": "",
          "type": "uint256"
        }
      ],
      "stateMutability": "view",
      "type": "function"
    },
    {
      "inputs": [],
      "name": "accumulatedDepositAmount",
      "outputs": [
        {
          "internalType": "int256",
          "name": "",
          "type": "int256"
        }
      ],
      "stateMutability": "view",
      "type": "function"
    },
    {
      "inputs": [],
      "name": "accumulatedUnpaidProfit",
      "outputs": [
        {
          "internalType": "uint256",
          "name": "",
          "type": "uint256"
        }
      ],
      "stateMutability": "view",
      "type": "function"
    },
    {
      "inputs": [],
      "name": "accumulatedWithdrawAmount",
      "outputs": [
        {
          "internalType": "int256",
          "name": "",
          "type": "int256"
        }
      ],
      "stateMutability": "view",
      "type": "function"
    },
    {
      "inputs": [],
      "name": "allowedToken",
      "outputs": [
        {
          "internalType": "address",
          "name": "",
          "type": "address"
        }
      ],
      "stateMutability": "view",
      "type": "function"
    },
    {
      "inputs": [
        {
          "internalType": "uint256",
          "name": "",
          "type": "uint256"
        }
      ],
      "name": "assetShareHistory",
      "outputs": [
        {
          "internalType": "int256",
          "name": "totalProfit",
          "type": "int256"
        },
        {
          "internalType": "uint256",
          "name": "totalShare",
          "type": "uint256"
        },
        {
          "internalType": "uint256",
          "name": "totalAsset",
          "type": "uint256"
        },
        {
          "internalType": "uint256",
          "name": "timestamp",
          "type": "uint256"
        }
      ],
      "stateMutability": "view",
      "type": "function"
    },
    {
      "inputs": [],
      "name": "auditWithdrawPeriod",
      "outputs": [
        {
          "internalType": "uint256",
          "name": "",
          "type": "uint256"
        }
      ],
      "stateMutability": "view",
      "type": "function"
    },
    {
      "inputs": [],
      "name": "cancelAllLimitOrders",
      "outputs": [],
      "stateMutability": "nonpayable",
      "type": "function"
    },
    {
      "inputs": [
        {
          "internalType": "uint256[]",
          "name": "_ids",
          "type": "uint256[]"
        }
      ],
      "name": "cancelOrders",
      "outputs": [],
      "stateMutability": "nonpayable",
      "type": "function"
    },
    {
      "inputs": [
        {
          "internalType": "string",
          "name": "_name",
          "type": "string"
        },
        {
          "internalType": "uint256",
          "name": "_amount",
          "type": "uint256"
        },
        {
          "internalType": "uint256",
          "name": "_orderType",
          "type": "uint256"
        },
        {
          "internalType": "uint256",
          "name": "_price",
          "type": "uint256"
        },
        {
          "internalType": "enum Direct",
          "name": "_type",
          "type": "uint8"
        },
        {
          "internalType": "uint256",
          "name": "_goodTill",
          "type": "uint256"
        },
        {
          "internalType": "uint256",
          "name": "_deadline",
          "type": "uint256"
        },
        {
          "internalType": "bytes",
          "name": "_priceUpdate",
          "type": "bytes"
        }
      ],
      "name": "closePosition",
      "outputs": [],
      "stateMutability": "payable",
      "type": "function"
    },
    {
      "inputs": [],
      "name": "dailyAssetShareSnapPeriod",
      "outputs": [
        {
          "internalType": "uint256",
          "name": "",
          "type": "uint256"
        }
      ],
      "stateMutability": "view",
      "type": "function"
    },
    {
      "inputs": [
        {
          "internalType": "uint256",
          "name": "_amount",
          "type": "uint256"
        },
        {
          "internalType": "string[]",
          "name": "_symbols",
          "type": "string[]"
        },
        {
          "internalType": "bytes[]",
          "name": "_reportData",
          "type": "bytes[]"
        }
      ],
      "name": "deposit",
      "outputs": [],
      "stateMutability": "payable",
      "type": "function"
    },
    {
      "inputs": [],
      "name": "distributeCommissionPeriod",
      "outputs": [
        {
          "internalType": "uint256",
          "name": "",
          "type": "uint256"
        }
      ],
      "stateMutability": "view",
      "type": "function"
    },
    {
      "inputs": [
        {
          "internalType": "string[]",
          "name": "_symbols",
          "type": "string[]"
        },
        {
          "internalType": "bytes[]",
          "name": "_priceUpdates",
          "type": "bytes[]"
        }
      ],
      "name": "distributeProfits",
      "outputs": [],
      "stateMutability": "payable",
      "type": "function"
    },
    {
      "inputs": [],
      "name": "getAllFollowers",
      "outputs": [
        {
          "internalType": "address[]",
          "name": "",
          "type": "address[]"
        }
      ],
      "stateMutability": "view",
      "type": "function"
    },
    {
      "inputs": [],
      "name": "getFollowerCount",
      "outputs": [
        {
          "internalType": "uint256",
          "name": "",
          "type": "uint256"
        }
      ],
      "stateMutability": "view",
      "type": "function"
    },
    {
      "inputs": [],
      "name": "getFollowers",
      "outputs": [
        {
          "internalType": "address[]",
          "name": "followerAddresses",
          "type": "address[]"
        }
      ],
      "stateMutability": "view",
      "type": "function"
    },
    {
      "inputs": [],
      "name": "getFollowersInfo",
      "outputs": [
        {
          "components": [
            {
              "internalType": "address",
              "name": "userAddress",
              "type": "address"
            },
            {
              "internalType": "uint256",
              "name": "firstFollowTime",
              "type": "uint256"
            }
          ],
          "internalType": "struct LeadingContract.Follower[]",
          "name": "",
          "type": "tuple[]"
        }
      ],
      "stateMutability": "view",
      "type": "function"
    },
    {
      "inputs": [],
      "name": "getLatestClosedProfit",
      "outputs": [
        {
          "internalType": "int256",
          "name": "profit",
          "type": "int256"
        }
      ],
      "stateMutability": "view",
      "type": "function"
    },
    {
      "inputs": [
        {
          "internalType": "uint256[]",
          "name": "indices",
          "type": "uint256[]"
        }
      ],
      "name": "getSupplyBalanceHistoryAtMultiple",
      "outputs": [
        {
          "internalType": "uint256[]",
          "name": "",
          "type": "uint256[]"
        },
        {
          "internalType": "uint256[]",
          "name": "",
          "type": "uint256[]"
        },
        {
          "internalType": "uint256[]",
          "name": "",
          "type": "uint256[]"
        }
      ],
      "stateMutability": "view",
      "type": "function"
    },
    {
      "inputs": [
        {
          "internalType": "uint256",
          "name": "index",
          "type": "uint256"
        }
      ],
      "name": "getSupplyBalanceHistoryItem",
      "outputs": [
        {
          "internalType": "int256",
          "name": "",
          "type": "int256"
        },
        {
          "internalType": "uint256",
          "name": "",
          "type": "uint256"
        },
        {
          "internalType": "uint256",
          "name": "",
          "type": "uint256"
        },
        {
          "internalType": "uint256",
          "name": "",
          "type": "uint256"
        }
      ],
      "stateMutability": "view",
      "type": "function"
    },
    {
      "inputs": [],
      "name": "getSupplyBalanceHistoryLength",
      "outputs": [
        {
          "internalType": "uint256",
          "name": "",
          "type": "uint256"
        }
      ],
      "stateMutability": "view",
      "type": "function"
    },
    {
      "inputs": [
        {
          "internalType": "string[]",
          "name": "_symbols",
          "type": "string[]"
        },
        {
          "internalType": "uint256[]",
          "name": "_prices",
          "type": "uint256[]"
        }
      ],
      "name": "getTotalBalance",
      "outputs": [
        {
          "internalType": "uint256",
          "name": "assetAmount",
          "type": "uint256"
        },
        {
          "internalType": "bool",
          "name": "gainLoss",
          "type": "bool"
        },
        {
          "internalType": "uint256",
          "name": "profit",
          "type": "uint256"
        }
      ],
      "stateMutability": "view",
      "type": "function"
    },
    {
      "inputs": [
        {
          "internalType": "address",
          "name": "user",
          "type": "address"
        }
      ],
      "name": "getUserShare",
      "outputs": [
        {
          "internalType": "uint256",
          "name": "_totalShares",
          "type": "uint256"
        },
        {
          "internalType": "uint256",
          "name": "_freezeShare",
          "type": "uint256"
        }
      ],
      "stateMutability": "view",
      "type": "function"
    },
    {
      "inputs": [
        {
          "internalType": "address",
          "name": "user",
          "type": "address"
        }
      ],
      "name": "getWithdrawItems",
      "outputs": [
        {
          "components": [
            {
              "internalType": "address",
              "name": "user",
              "type": "address"
            },
            {
              "internalType": "uint256",
              "name": "withdrawID",
              "type": "uint256"
            },
            {
              "internalType": "uint256",
              "name": "withdrawShare",
              "type": "uint256"
            },
            {
              "internalType": "uint256",
              "name": "withdrawAmount",
              "type": "uint256"
            },
            {
              "internalType": "uint256",
              "name": "withdrawTime",
              "type": "uint256"
            },
            {
              "internalType": "uint8",
              "name": "status",
              "type": "uint8"
            }
          ],
          "internalType": "struct LeadingContract.UserWithdrawShareItem[]",
          "name": "",
          "type": "tuple[]"
        }
      ],
      "stateMutability": "view",
      "type": "function"
    },
    {
      "inputs": [
        {
          "internalType": "uint256[]",
          "name": "items",
          "type": "uint256[]"
        },
        {
          "internalType": "bool",
          "name": "cancel",
          "type": "bool"
        },
        {
          "internalType": "string[]",
          "name": "_symbols",
          "type": "string[]"
        },
        {
          "internalType": "bytes[]",
          "name": "_reportData",
          "type": "bytes[]"
        }
      ],
      "name": "handleWithdrawItems",
      "outputs": [],
      "stateMutability": "payable",
      "type": "function"
    },
    {
      "inputs": [
        {
          "internalType": "uint256[]",
          "name": "items",
          "type": "uint256[]"
        },
        {
          "internalType": "string[]",
          "name": "_symbols",
          "type": "string[]"
        },
        {
          "internalType": "bytes[]",
          "name": "_reportData",
          "type": "bytes[]"
        }
      ],
      "name": "handleWithdrawItems4Risk",
      "outputs": [],
      "stateMutability": "payable",
      "type": "function"
    },
    {
      "inputs": [
        {
          "internalType": "address",
          "name": "initialOwner",
          "type": "address"
        },
        {
          "internalType": "address",
          "name": "_trader",
          "type": "address"
        },
        {
          "internalType": "address payable",
          "name": "_factoryAddress",
          "type": "address"
        },
        {
          "internalType": "address",
          "name": "_perpetual",
          "type": "address"
        },
        {
          "internalType": "address",
          "name": "_tradeAgent",
          "type": "address"
        },
        {
          "internalType": "address",
          "name": "_orderBook",
          "type": "address"
        }
      ],
      "name": "initialize",
      "outputs": [],
      "stateMutability": "nonpayable",
      "type": "function"
    },
    {
      "inputs": [],
      "name": "lastBalanceSnapTime",
      "outputs": [
        {
          "internalType": "uint256",
          "name": "",
          "type": "uint256"
        }
      ],
      "stateMutability": "view",
      "type": "function"
    },
    {
      "inputs": [],
      "name": "lastDistributeProfit",
      "outputs": [
        {
          "internalType": "int256",
          "name": "",
          "type": "int256"
        }
      ],
      "stateMutability": "view",
      "type": "function"
    },
    {
      "inputs": [],
      "name": "lastDistributionTime",
      "outputs": [
        {
          "internalType": "uint256",
          "name": "",
          "type": "uint256"
        }
      ],
      "stateMutability": "view",
      "type": "function"
    },
    {
      "inputs": [],
      "name": "owner",
      "outputs": [
        {
          "internalType": "address",
          "name": "",
          "type": "address"
        }
      ],
      "stateMutability": "view",
      "type": "function"
    },
    {
      "inputs": [],
      "name": "perpetual",
      "outputs": [
        {
          "internalType": "contract IPerpetuals",
          "name": "",
          "type": "address"
        }
      ],
      "stateMutability": "view",
      "type": "function"
    },
    {
      "inputs": [
        {
          "internalType": "string[]",
          "name": "_symbols",
          "type": "string[]"
        },
        {
          "internalType": "bytes[]",
          "name": "_priceUpdates",
          "type": "bytes[]"
        }
      ],
      "name": "reckonLeadingContract",
      "outputs": [],
      "stateMutability": "payable",
      "type": "function"
    },
    {
      "inputs": [
        {
          "internalType": "string[]",
          "name": "symbols",
          "type": "string[]"
        },
        {
          "internalType": "bytes[]",
          "name": "reportData",
          "type": "bytes[]"
        }
      ],
      "name": "recordSupplyAndBalance",
      "outputs": [],
      "stateMutability": "payable",
      "type": "function"
    },
    {
      "inputs": [],
      "name": "renounceOwnership",
      "outputs": [],
      "stateMutability": "nonpayable",
      "type": "function"
    },
    {
      "inputs": [],
      "name": "round",
      "outputs": [
        {
          "internalType": "uint256",
          "name": "",
          "type": "uint256"
        }
      ],
      "stateMutability": "view",
      "type": "function"
    },
    {
      "inputs": [
        {
          "internalType": "string",
          "name": "_name",
          "type": "string"
        },
        {
          "internalType": "uint256",
          "name": "_leverage",
          "type": "uint256"
        }
      ],
      "name": "setUserLeverage",
      "outputs": [],
      "stateMutability": "nonpayable",
      "type": "function"
    },
    {
      "inputs": [],
      "name": "startTime",
      "outputs": [
        {
          "internalType": "uint256",
          "name": "",
          "type": "uint256"
        }
      ],
      "stateMutability": "view",
      "type": "function"
    },
    {
      "inputs": [],
      "name": "totalShare",
      "outputs": [
        {
          "internalType": "uint256",
          "name": "",
          "type": "uint256"
        }
      ],
      "stateMutability": "view",
      "type": "function"
    },
    {
      "inputs": [
        {
          "internalType": "string",
          "name": "_name",
          "type": "string"
        },
        {
          "internalType": "uint256",
          "name": "_amount",
          "type": "uint256"
        },
        {
          "internalType": "uint256",
          "name": "_price",
          "type": "uint256"
        },
        {
          "internalType": "uint256",
          "name": "_orderType",
          "type": "uint256"
        },
        {
          "internalType": "enum Direct",
          "name": "_type",
          "type": "uint8"
        },
        {
          "internalType": "uint256",
          "name": "_goodTill",
          "type": "uint256"
        },
        {
          "internalType": "uint256",
          "name": "_deadline",
          "type": "uint256"
        },
        {
          "internalType": "bytes",
          "name": "_priceUpdate",
          "type": "bytes"
        }
      ],
      "name": "trade",
      "outputs": [],
      "stateMutability": "payable",
      "type": "function"
    },
    {
      "inputs": [],
      "name": "trader",
      "outputs": [
        {
          "internalType": "address",
          "name": "",
          "type": "address"
        }
      ],
      "stateMutability": "view",
      "type": "function"
    },
    {
      "inputs": [
        {
          "internalType": "string[]",
          "name": "_symbols",
          "type": "string[]"
        },
        {
          "internalType": "bytes[]",
          "name": "_priceUpdates",
          "type": "bytes[]"
        }
      ],
      "name": "traderDeleteContract",
      "outputs": [],
      "stateMutability": "payable",
      "type": "function"
    },
    {
      "inputs": [
        {
          "internalType": "address",
          "name": "newOwner",
          "type": "address"
        }
      ],
      "name": "transferOwnership",
      "outputs": [],
      "stateMutability": "nonpayable",
      "type": "function"
    },
    {
      "inputs": [
        {
          "internalType": "address",
          "name": "",
          "type": "address"
        }
      ],
      "name": "userShares",
      "outputs": [
        {
          "internalType": "uint256",
          "name": "",
          "type": "uint256"
        }
      ],
      "stateMutability": "view",
      "type": "function"
    },
    {
      "inputs": [
        {
          "internalType": "uint256",
          "name": "",
          "type": "uint256"
        }
      ],
      "name": "userWithdrawItems",
      "outputs": [
        {
          "internalType": "address",
          "name": "user",
          "type": "address"
        },
        {
          "internalType": "uint256",
          "name": "withdrawID",
          "type": "uint256"
        },
        {
          "internalType": "uint256",
          "name": "withdrawShare",
          "type": "uint256"
        },
        {
          "internalType": "uint256",
          "name": "withdrawAmount",
          "type": "uint256"
        },
        {
          "internalType": "uint256",
          "name": "withdrawTime",
          "type": "uint256"
        },
        {
          "internalType": "uint8",
          "name": "status",
          "type": "uint8"
        }
      ],
      "stateMutability": "view",
      "type": "function"
    },
    {
      "inputs": [
        {
          "internalType": "uint256",
          "name": "_share",
          "type": "uint256"
        }
      ],
      "name": "withdraw",
      "outputs": [],
      "stateMutability": "nonpayable",
      "type": "function"
    },
    {
      "stateMutability": "payable",
      "type": "receive"
    }
  ],
  "bytecode": "0x608080604052346023576201518060055562093a806006556151bc90816100298239f35b600080fdfe6080806040526004361015610011575b005b600090813560e01c908163026c42071461220e57508063030fc7dd146121eb5780630d79f5611461216c5780630fa4710914611ffe578063146ca53114611fe0578063170794a814611e135780631758078b14611dec5780631816129f14611dce57806319e67d7514611da8578063227ddb4e1461174d5780632449e973146116545780632d9cd09a1461162b5780632e1a7d4d146114605780632f1cc4d0146113a75780633f70498b14611333578063490ae1cd146111c757806366776f621461113957806368306b761461111b578063715018a61461108257806375b17350146110645780637829ae4a1461104657806378e979251461102857806385fa292f1461100157806387ec936d14610fd85780638da5cb5b14610f9257806390536e4314610eea5780639823aa8e14610ecc578063a34d87c514610eae578063a70c7ed414610dbe578063aa66ea6714610d50578063ae69367314610d32578063b2b7d9ac14610d14578063b55fb57414610c1c578063bacea2d214610bc7578063bbbaee4c14610b1b578063c365e42114610a91578063c89db57214610a73578063cc2a9a5b1461068e578063cce13b8e14610670578063d14ec0dc14610652578063d1ab4aaa146104bd578063d4baf4881461049f578063de69b3aa14610467578063dfce0f83146103fd578063e59786861461027d578063f2fde38b146102535763fde895980361000f57346102505780600319360112610250576102456001600160a01b036003541633146127f3565b61024d613c21565b80f35b80fd5b50346102505760206003193601126102505761024d610270612444565b6102786146a6565b61309a565b50610100600319360112610250578060043567ffffffffffffffff81116103fa576102ac90369060040161234a565b60843560038110156103f85760e43567ffffffffffffffff81116103f6576102d890369060040161234a565b916102e16134c5565b6102f76001600160a01b03601254163314612926565b6001600160a01b03845416803b156103f257610355610378926103998795604051978896879586957fe597868600000000000000000000000000000000000000000000000000000000875261010060048801526101048701906129ba565b926024356024870152604435604487015260643560648701526084860190613077565b60a43560a485015260c43560c48501526003198483030160e48501526129ba565b039134905af180156103e7576103d2575b5060017f9b779b17422d0df92223018b32b4d1fa46e071723d6817e2486d003becc55f005580f35b816103dc916122f3565b6102505780386103aa565b6040513d84823e3d90fd5b8480fd5b505b505b50fd5b503461025057602060031936011261025057600435601d5481101561046357610425906125b7565b50805461045f6001830154926003600282015491015490604051948594859094939260609260808301968352602083015260408201520152565b0390f35b5080fd5b50346102505760206003193601126102505760406020916001600160a01b0361048e612444565b168152601483522054604051908152f35b50346102505780600319360112610250576020600f54604051908152f35b50610100600319360112610250578060043567ffffffffffffffff81116103fa576104ec90369060040161234a565b6084359060038210156103f85760e4359167ffffffffffffffff83116103f657366023840112156103f65782600401359267ffffffffffffffff84116103f25736602485830101116103f2576105406134c5565b6001600160a01b036012541693610558853314612926565b6001600160a01b0386541691823b1561064e5786946105e194601f19601f856105c09660246020976040519d8e9c8d9b8c9a7fc8f5ede2000000000000000000000000000000000000000000000000000000008c5261012060048d01526101248c01906129ba565b988435858c015260443560448c015260643560648c015260848b0190613077565b60a489015260a43560c489015260c43560e48901526003198888030161010489015282875201878601378986828601015201160103019134905af180156103e7576103d2575060017f9b779b17422d0df92223018b32b4d1fa46e071723d6817e2486d003becc55f005580f35b8680fd5b50346102505780600319360112610250576020600554604051908152f35b50346102505780600319360112610250576020600e54604051908152f35b50346102505760c0600319360112610250576106a8612444565b6024356001600160a01b038116809103610a6f57604435906001600160a01b038216809203610a6b576064356001600160a01b0381168091036103f257608435906001600160a01b038216809203610a675760a435906001600160a01b03821680920361064e577ff0c57e16840df040f15088dc2f81fe391c3923bec73e23a9662efc9c229c6a00549560ff8760401c16159667ffffffffffffffff811680159081610a5f575b6001149081610a55575b159081610a4c575b50610a245791610814602092848a60017fffffffffffffffffffffffffffffffffffffffffffffffff000000000000000060049816177ff0c57e16840df040f15088dc2f81fe391c3923bec73e23a9662efc9c229c6a00556109cf575b506107c761512d565b6107cf61512d565b6107d83361309a565b6107e061512d565b6107e861512d565b60017f9b779b17422d0df92223018b32b4d1fa46e071723d6817e2486d003becc55f00556102786146a6565b806001600160a01b03198a5416178955604051928380927f2ca430510000000000000000000000000000000000000000000000000000000082525afa80156109c4578790610984575b6001600160a01b039150166001600160a01b031960135416176013556001600160a01b031960015416176001556001600160a01b031960025416176002556001600160a01b031960125416176012556001600160a01b031960035416176003556201518060075560016008554260095542600c556108e66108e060055442612698565b4261268b565b600b556108f05780f35b7fffffffffffffffffffffffffffffffffffffffffffffff00ffffffffffffffff7ff0c57e16840df040f15088dc2f81fe391c3923bec73e23a9662efc9c229c6a0054167ff0c57e16840df040f15088dc2f81fe391c3923bec73e23a9662efc9c229c6a00557fc7f505b2f371ae2175ee4913f4499e1f2633a7b5936321eed1cdaeb6115181d2602060405160018152a180f35b506020813d6020116109bc575b8161099e602093836122f3565b8101031261064e576109b76001600160a01b0391613063565b61085d565b3d9150610991565b6040513d89823e3d90fd5b7fffffffffffffffffffffffffffffffffffffffffffffff0000000000000000001668010000000000000001177ff0c57e16840df040f15088dc2f81fe391c3923bec73e23a9662efc9c229c6a0055386107be565b6004897ff92ee8a9000000000000000000000000000000000000000000000000000000008152fd5b90501538610761565b303b159150610759565b89915061074f565b8580fd5b8380fd5b8280fd5b50346102505780600319360112610250576020601d54604051908152f35b503461025057806003193601126102505760405180916020601954928381520191601982527f944998273e477b495144fb8794c914197f3ccb46be2900f4698fd0ef743c9695915b818110610afc5761045f85610af0818703826122f3565b6040519182918261222a565b82546001600160a01b0316845260209093019260019283019201610ad9565b5034610250576020600319360112610250576001600160a01b03610b3d612444565b16308103610ba05750610b4e614b4b565b90600d54905b809281935b8151851015610b9057610b88600191610b728785612677565b518552601b602052600260408620015490612750565b940193610b59565b8360409182519182526020820152f35b808252601460205260408220549082526015602052610bc160408320614b96565b91610b54565b503461025057602060031936011261025057610bed610be76004356125b7565b506127c1565b805160208083015160408085015160609586015182519586529385019290925283015291810191909152608090f35b50346102505760206003193601126102505760043567ffffffffffffffff811161046357610c4e90369060040161245a565b610c646001600160a01b03601254163314612926565b8147916001600160a01b03825416803b15610a6f57610cbe83929183926040519485809481937fb55fb5740000000000000000000000000000000000000000000000000000000083526020600484015260248301906124b7565b03925af180156103e757610cff575b5050610cd9904761268b565b8181610ce25780f35b808080610cfa94335af1610cf46126d5565b50612705565b388180f35b81610d09916122f3565b610463578138610ccd565b50346102505780600319360112610250576020600b54604051908152f35b50346102505780600319360112610250576020600a54604051908152f35b503461025057602060031936011261025057604060c0916004358152601b602052206001600160a01b0381541690600181015490600281015460038201549060ff600560048501549401541693604051958652602086015260408501526060840152608083015260a0820152f35b5034610250578060031936011261025057601a54610ddb81612316565b610de860405191826122f3565b818152601a83526020810191837f057c384a7d1c54f3a1b2e5e67b2617b8224fdfd1ea7234eea573a6ff665ff63e845b838310610e7857868587604051928392602084019060208552518091526040840192915b818110610e4a575050500390f35b825180516001600160a01b031685526020908101518186015286955060409094019390920191600101610e3c565b60026020600192604051610e8b816122bb565b6001600160a01b0386541681528486015483820152815201920192019190610e18565b50346102505780600319360112610250576020601154604051908152f35b50346102505780600319360112610250576020600654604051908152f35b5060606003193601126102505760043567ffffffffffffffff811161046357610f1790369060040161245a565b60243567ffffffffffffffff8111610a6f57610f37903690600401612394565b6044359167ffffffffffffffff8311610a6b57610f5b610f6b933690600401612413565b929091610f666134c5565b612f23565b60017f9b779b17422d0df92223018b32b4d1fa46e071723d6817e2486d003becc55f005580f35b503461025057806003193601126102505760206001600160a01b037f9016d09d72d40fdae2fd8ceac6b6234c7706214fd39c1cd1e609a0528c1993005416604051908152f35b50610f6b610ff9610fe836612557565b610ff39291926134c5565b8261323a565b919050614707565b503461025057806003193601126102505760206001600160a01b0360135416604051908152f35b50346102505780600319360112610250576020600954604051908152f35b50346102505780600319360112610250576020601a54604051908152f35b50346102505780600319360112610250576020600c54604051908152f35b503461025057806003193601126102505761109b6146a6565b806001600160a01b037f9016d09d72d40fdae2fd8ceac6b6234c7706214fd39c1cd1e609a0528c199300546001600160a01b031981167f9016d09d72d40fdae2fd8ceac6b6234c7706214fd39c1cd1e609a0528c19930055167f8be0079c531659141344cd1fd0a4f28419497f9722a3daafe3b4186f6b6457e08280a380f35b50346102505780600319360112610250576020601054604051908152f35b5060806003193601126102505760043567ffffffffffffffff81116104635761116690369060040161245a565b6024358015158103610a6f5760443567ffffffffffffffff8111610a6b57611192903690600401612394565b916064359267ffffffffffffffff84116103f2576111b7610f6b943690600401612413565b9390926111c26134c5565b612c0d565b506111d136612557565b906111e86001600160a01b03601254163314612926565b6111f0613159565b60408101516112ef57606001516112ab5761120e611216928261323a565b919050613e38565b806001600160a01b03600354166001600160a01b03601254166001600160a01b0360135416823b156103f6576040517f7f7c14910000000000000000000000000000000000000000000000000000000081526001600160a01b039283166004820152911660248201529082908290604490829084905af180156103e75761129a5750f35b816112a4916122f3565b6102505780f35b606460405162461bcd60e51b815260206004820152601160248201527f4578697374206c696d6974206f726465720000000000000000000000000000006044820152fd5b606460405162461bcd60e51b815260206004820152600e60248201527f457869737420706f736974696f6e0000000000000000000000000000000000006044820152fd5b50346102505760406003193601126102505760043567ffffffffffffffff811161046357611365903690600401612394565b906024359067ffffffffffffffff82116102505760606113928461138c366004870161245a565b90612a45565b90604051928352151560208301526040820152f35b5034610250576040600319360112610250578060043567ffffffffffffffff81116103fa576113da90369060040161234a565b6113f06001600160a01b03601254163314612926565b6001600160a01b03825416803b156103f85761144783929183926040519485809481937f2f1cc4d00000000000000000000000000000000000000000000000000000000083526040600484015260448301906129ba565b602435602483015203925af180156103e75761129a5750f35b50346102505760206003193601126102505760043561147d6134c5565b6004549060018201809211611617578160045533835260156020526114a460408420614b96565b8391825b82518410156114df576114d76001916114c18686612677565b518852601b602052600260408920015490612750565b9301926114a8565b9084816114f988943386526014602052604086205461268b565b106115d35761151390338452601560205260408420614ef9565b5061151f600454614e82565b5060ff600560045492604051906115358261229f565b3382526020820190858252604083019081526060830190878252608084019242845260a0850197600189528952601b6020526001600160a01b038060408b20965116166001600160a01b03198654161785555160018501555160028401555160038301555160048201550191511660ff1982541617905560017f9b779b17422d0df92223018b32b4d1fa46e071723d6817e2486d003becc55f005580f35b606460405162461bcd60e51b815260206004820152601d60248201527f496e73756666696369656e7420617661696c61626c65207368617265730000006044820152fd5b602483634e487b7160e01b81526011600452fd5b5061024d61163836612557565b9061164f6001600160a01b036003541633146127f3565b612864565b50346102505760206003193601126102505760043567ffffffffffffffff81116104635761168690369060040161245a565b90815190601d5461169683612790565b926116a081612790565b916116aa82612790565b935b8281106116ef576116d38661045f876116e1886040519586956060875260608701906124b7565b9085820360208701526124b7565b9083820360408501526124b7565b806116fc60019289612677565b5183811061170c575b50016116ac565b61171a610be76060926125b7565b6020810151611729848b612677565b5260408101516117398489612677565b5201516117468288612677565b5238611705565b5060606003193601126102505760043560243567ffffffffffffffff8111610a6f5761177d903690600401612394565b60443567ffffffffffffffff8111610a6b5761179d903690600401612413565b90916117a76134c5565b600d54611d79575050508034611d61575b3383526014602052604083206117cf828254612750565b90556117dd81600d54612750565b600d55338352601660205260ff60408420541615611b7a575b6001600160a01b03601354169183806001600160a01b038154169460409582856118ac7fffffffff00000000000000000000000000000000000000000000000000000000601860208c61184b815191826122f3565b8281527f617070726f766528616464726573732c75696e743235362900000000000000009101908152208b519116602082019081526001600160a01b039095166024820152604481019290925281606481015b03601f1981018352826122f3565b51925af16118b86126d5565b81611b43575b5015610a6b57836001600160a01b03601354166118db8382614be1565b9081151580611b3a575b80611b31575b611a2b575b50506001600160a01b03815416803b156104635781809160248751809481937fb6b55f250000000000000000000000000000000000000000000000000000000083528860048401525af18015611a2157611a0c575b505061195381600f546125ec565b600f55600454600181018091116119f857917f613128987cba7a2073cf49ff02fbbe4e3728a0cf7ed9f8942569818fd0cfd66e939183610120946004556001600160a01b03601354168451946001865230602087015233908601526060850152608084015260a083015260c08201524260e08201526002610100820152a160017f9b779b17422d0df92223018b32b4d1fa46e071723d6817e2486d003becc55f005580f35b602485634e487b7160e01b81526011600452fd5b81611a16916122f3565b610a6b578338611945565b85513d84823e3d90fd5b8291827fffffffff0000000000000000000000000000000000000000000000000000000060258951611a5e6060826122f3565b8181527f74323536290000000000000000000000000000000000000000000000000000008b60208301927f7472616e7366657246726f6d28616464726573732c616464726573732c75696e8452015220169188519060208201938452336024830152306044830152606482015260648152611ada6084826122f3565b51925af1611ae66126d5565b81611afa575b5015610a6b578338806118f0565b8051801592508215611b0f575b505038611aec565b81925090602091810103126103f2576020611b2a91016129df565b3880611b07565b503015156118eb565b503315156118e5565b8051801592508215611b58575b5050386118be565b81925090602091810103126103f2576020611b7391016129df565b3880611b50565b338352601660205260408320600160ff1982541617905560195468010000000000000000811015611d4d57806001611bb5920160195561275d565b81549060031b906001600160a01b0333831b921b1916179055338352601c602052604083205415611c64575b6001600160a01b0360035416803b15610a6b576040517fae5e55e60000000000000000000000000000000000000000000000000000000081523360048201523060248201529084908290604490829084905af18015611c5957611c45575b506117f6565b83611c52919492946122f3565b9138611c3f565b6040513d86823e3d90fd5b604051611c70816122bb565b33815260208101428152601a5468010000000000000000811015611d3957806001611c9e9201601a55612658565b929092611d2657906001600160a01b03806001935116166001600160a01b031984541617835551910155601a54338452601c60205260408420557f25721861c38b8c48f6705fecaea93b5de674735f1628fa9898ed0a89184aa25c60405180611d1e423383602090939291936001600160a01b0360408201951681520152565b0390a1611be1565b602486634e487b7160e01b815280600452fd5b602486634e487b7160e01b81526041600452fd5b602484634e487b7160e01b81526041600452fd5b611d748380808034335af1610cf46126d5565b6117b8565b611d8e610ff3611d7494611d959436916124eb565b5090612a45565b5050611da3600d54846126b8565b6126cb565b50346102505780600319360112610250576001600160a01b036020915416604051908152f35b50346102505780600319360112610250576020600754604051908152f35b503461025057806003193601126102505760206001600160a01b0360125416604051908152f35b5034610250576020600319360112610250576001600160a01b03611e35612444565b16308103611fc85750611e46614b4b565b8051601f19611e6d611e5783612316565b92611e6560405194856122f3565b808452612316565b01835b818110611f8d575050825b8251811015611f065780611e9160019285612677565b518552601b6020526040852060ff600560405192611eae8461229f565b6001600160a01b03815416845285810154602085015260028101546040850152600381015460608501526004810154608085015201541660a0820152611ef48285612677565b52611eff8184612677565b5001611e7b565b8184604051918291602083016020845282518091526020604085019301915b818110611f33575050500390f35b91935091602060c060019260ff60a088516001600160a01b038151168452858101518685015260408101516040850152606081015160608501526080810151608085015201511660a0820152019401910191849392611f25565b602090604051611f9c8161229f565b86815286838201528660408201528660608201528660808201528660a082015282828601015201611e70565b81526015602052611fdb60408220614b96565b611e46565b50346102505780600319360112610250576020600854604051908152f35b5060406003193601126102505760043567ffffffffffffffff81116104635761202b903690600401612394565b60243567ffffffffffffffff8111610a6f5761204b903690600401612413565b9190612059600b544261268b565b6005541161212857610ff3611d8e916120739436916124eb565b5050906120856108e060055442612698565b9182600b55612092612637565b92600d5491604051946120a48661226d565b8552602085019283526040850190815260608501918252601d5468010000000000000000811015612114578060016120df9201601d556125b7565b9390936121015760039394955185555160018501555160028401555191015580f35b602485634e487b7160e01b815280600452fd5b602485634e487b7160e01b81526041600452fd5b606460405162461bcd60e51b815260206004820152601760248201527f746f6f2073686f72742074696d6520696e74657276616c0000000000000000006044820152fd5b5034610250578060031936011261025057601a5461218981612316565b9161219760405193846122f3565b818352601f196121a683612316565b013660208501375b8181106121c3576040518061045f858261222a565b806001600160a01b036121d7600193612658565b5054166121e48286612677565b52016121ae565b50346102505780600319360112610250576020612206612637565b604051908152f35b905034610463578160031936011261046357602090600d548152f35b602060408183019282815284518094520192019060005b81811061224e5750505090565b82516001600160a01b0316845260209384019390920191600101612241565b6080810190811067ffffffffffffffff82111761228957604052565b634e487b7160e01b600052604160045260246000fd5b60c0810190811067ffffffffffffffff82111761228957604052565b6040810190811067ffffffffffffffff82111761228957604052565b60a0810190811067ffffffffffffffff82111761228957604052565b90601f601f19910116810190811067ffffffffffffffff82111761228957604052565b67ffffffffffffffff81116122895760051b60200190565b67ffffffffffffffff811161228957601f01601f191660200190565b81601f8201121561238f576020813591016123648261232e565b9261237260405194856122f3565b8284528282011161238f5781600092602092838601378301015290565b600080fd5b9080601f8301121561238f5781356123ab81612316565b926123b960405194856122f3565b81845260208085019260051b8201019183831161238f5760208201905b8382106123e557505050505090565b813567ffffffffffffffff811161238f576020916124088784809488010161234a565b8152019101906123d6565b9181601f8401121561238f5782359167ffffffffffffffff831161238f576020808501948460051b01011161238f57565b600435906001600160a01b038216820361238f57565b9080601f8301121561238f57813561247181612316565b9261247f60405194856122f3565b81845260208085019260051b82010192831161238f57602001905b8282106124a75750505090565b813581526020918201910161249a565b906020808351928381520192019060005b8181106124d55750505090565b82518452602093840193909201916001016124c8565b9291906124f781612316565b9361250560405195866122f3565b602085838152019160051b81019183831161238f5781905b83821061252b575050505050565b813567ffffffffffffffff811161238f5760209161254c878493870161234a565b81520191019061251d565b90604060031983011261238f5760043567ffffffffffffffff811161238f578261258391600401612394565b916024359067ffffffffffffffff821161238f578060238301121561238f578160246125b4936004013591016124eb565b90565b601d548110156125d657601d60005260206000209060021b0190600090565b634e487b7160e01b600052603260045260246000fd5b9190916000838201938412911290801582169115161761260857565b634e487b7160e01b600052601160045260246000fd5b8181039291600013801582851316918412161761260857565b6125b461264f612645613159565b51601054906125ec565b600f549061261e565b601a548110156125d657601a60005260206000209060011b0190600090565b80518210156125d65760209160051b010190565b9190820391821161260857565b81156126a2570690565b634e487b7160e01b600052601260045260246000fd5b8181029291811591840414171561260857565b81156126a2570490565b3d15612700573d906126e68261232e565b916126f460405193846122f3565b82523d6000602084013e565b606090565b1561270c57565b606460405162461bcd60e51b815260206004820152600f60248201527f7472616e73666572206661696c656400000000000000000000000000000000006044820152fd5b9190820180921161260857565b6019548110156125d657601960005260206000200190600090565b80548210156125d65760005260206000200190600090565b9061279a82612316565b6127a760405191826122f3565b828152601f196127b78294612316565b0190602036910137565b906040516127ce8161226d565b6060600382948054845260018101546020850152600281015460408501520154910152565b156127fa57565b608460405162461bcd60e51b815260206004820152602660248201527f4f6e6c7920666163746f72792063616e2065786563757465207468697320667560448201527f6e6374696f6e00000000000000000000000000000000000000000000000000006064820152fd5b9061286f908261323a565b9091600d548015612920576128848483612a45565b5050670de0b6b3a7640000810290808204670de0b6b3a7640000149015171561260857670429d069189e0000916128ba916126cb565b10156128dc576128cd6128da938261357f565b6128d5613c21565b613e38565b565b606460405162461bcd60e51b815260206004820152601a60248201527f6e65742076616c7565206973206d6f7265207468656e20302e330000000000006044820152fd5b50505050565b1561292d57565b608460405162461bcd60e51b815260206004820152602560248201527f4f6e6c79207472616465722063616e206578656375746520746869732066756e60448201527f6374696f6e0000000000000000000000000000000000000000000000000000006064820152fd5b60005b8381106129aa5750506000910152565b818101518382015260200161299a565b90601f19601f6020936129d881518092818752878088019101612997565b0116010190565b5190811515820361238f57565b9080602083519182815201916020808360051b8301019401926000915b838310612a1857505050505090565b9091929394602080612a3683601f19866001960301875289516129ba565b97019301930191939290612a09565b90918151835103612ba357612ade92612a5c613159565b5192612a666140af565b80151580612b9a575b612b84575b5090604091612acc6001600160a01b0360025416918451978894859384937f9aa59c650000000000000000000000000000000000000000000000000000000085523060048601526060602486015260648501906129ec565b906003198483030160448501526124b7565b03915afa918215612b78576000938493612b35575b50828415612b0b575082612b0691612750565b929190565b9250909250818111612b24575050600090600090600090565b81612b2e9161268b565b9160009190565b939092506040843d604011612b70575b81612b52604093836122f3565b8101031261025057506020612b66846129df565b9301519138612af3565b3d9150612b45565b6040513d6000823e3d90fd5b612b9290604093929561268b565b939091612a74565b50808511612a6f565b608460405162461bcd60e51b815260206004820152602160248201527f7072696365204172726179206c656e677468732061726520646966666572656e60448201527f74000000000000000000000000000000000000000000000000000000000000006064820152fd5b9390929192612d7f57612c3f612c4d9592612c4592612c386001600160a01b03601254163314612926565b36916124eb565b8361323a565b949083612a45565b6020612c5a939293613159565b01519215612d5c575b50670de0b6b3a7640000810290808204670de0b6b3a7640000149015171561260857600d54612c91916126cb565b9160005b8551811015612d4c57612ca88187612677565b519283600052601b602052670de0b6b3a7640000612d19866040600020604051612cd18161229f565b6001600160a01b0382541681526001820154602082015260a060ff600560028501549485604086015260038101546060860152600481015460808601520154169101526126b8565b0490818110612d4157888787612d3560019695612d3b9561268b565b97614151565b01612c95565b505050945050505050565b5094929150506128da92506145e5565b9091818110612d765790612d6f9161268b565b9038612c63565b50505092505050565b50505060005b8151811015612f0657612d988183612677565b519081600052601b602052604060002091604051612db58161229f565b6001600160a01b038454168152600184015460208201526002840154906040810191825260ff6005600387015496606084019788526004810154608085015201541660a082015282600052601b6020526005604060002001600360ff198254161790556001600160a01b033391511603612ec2576001937f613128987cba7a2073cf49ff02fbbe4e3728a0cf7ed9f8942569818fd0cfd66e9261012092336000526015602052612e69826040600020615028565b50612e7382614f58565b506001600160a01b0360135416925190519160405193600085523060208601523360408601526060850152608084015260a083015260c08201524260e08201526003610100820152a101612d85565b606460405162461bcd60e51b815260206004820152601060248201527f77726f6e672077697468647261776572000000000000000000000000000000006044820152fd5b505034612f0f57565b6128da600080808034335af1610cf46126d5565b9392612f359192610ff39136916124eb565b60075491936000939091845b8751861015612fbc57612f548689612677565b51600052601b60205242612f7086600460406000200154612750565b11612fa657612f9d600191612f85888b612677565b51600052601b60205260026040600020015490612750565b955b0194612f41565b94806000612fb66001938b612677565b52612f9f565b91945092509390931561305c57612fdb90612fd5613c21565b8361357f565b612fe3613159565b51670de0b6b3a7640000810290808204670de0b6b3a7640000149015171561260857600d54613011916126cb565b9160005b855181101561304d578061302b60019288612677565b5184848783156130445761303e93614151565b01613015565b5050505061303e565b509091506128da9293506145e5565b5050509050565b51906001600160a01b038216820361238f57565b9060038210156130845752565b634e487b7160e01b600052602160045260246000fd5b6001600160a01b0316801561312a576001600160a01b037f9016d09d72d40fdae2fd8ceac6b6234c7706214fd39c1cd1e609a0528c19930054826001600160a01b03198216177f9016d09d72d40fdae2fd8ceac6b6234c7706214fd39c1cd1e609a0528c19930055167f8be0079c531659141344cd1fd0a4f28419497f9722a3daafe3b4186f6b6457e0600080a3565b7f1e4fbdf700000000000000000000000000000000000000000000000000000000600052600060045260246000fd5b60006080604051613169816122d7565b8281528260208201528260408201528260608201520152602460a06001600160a01b0360005416604051928380927ffb47e0160000000000000000000000000000000000000000000000000000000082523060048301525afa908115612b78576000916131d4575090565b905060a0813d60a011613232575b816131ef60a093836122f3565b8101031261238f57608060405191613206836122d7565b805183526020810151602084015260408101516040840152606081015160608401520151608082015290565b3d91506131e2565b9091815183510361348157906132518151346126cb565b9261325d825134612698565b906132688151612790565b90805195601f1961329161327b89612316565b986132896040519a8b6122f3565b808a52612316565b0160005b81811061346e57505086956000956020965b8151808210156134625760001981019081116126085787908214613451575b5061331e886001600160a01b03600354166132e18486612677565b519060405180809581947f299ae75300000000000000000000000000000000000000000000000000000000835286600484015260248301906129ba565b03915afa8015612b7857899160009161340f575b50906133896001600160a01b039261334a858a612677565b51886040519586809581947fb3d316c10000000000000000000000000000000000000000000000000000000083526040600484015260448301906129ba565b600060248301520393165af1908115612b78576000916133e1575b50906001916133b38289612677565b526040516133c18a826122f3565b600081526133cf828d612677565b526133da818c612677565b50016132a7565b908982813d8311613408575b6133f781836122f3565b8101031261025057505160016133a4565b503d6133ed565b9182813d831161344a575b61342481836122f3565b810103126102505750886133896134426001600160a01b0393613063565b919250613332565b503d61341a565b61345b9194612750565b92866132c6565b50505094505050935050565b60606020828b0181019190915201613295565b606460405162461bcd60e51b815260206004820152602060248201527f496e636f6e73697374656e74207072696365206172726179206c656e677468736044820152fd5b60027f9b779b17422d0df92223018b32b4d1fa46e071723d6817e2486d003becc55f0054146135145760027f9b779b17422d0df92223018b32b4d1fa46e071723d6817e2486d003becc55f0055565b7f3ee5aeb50000000000000000000000000000000000000000000000000000000060005260046000fd5b6040519061354b8261229f565b600060a083606081528260208201528260408201528260608201528260808201520152565b60001981146126085760010190565b9190916004600093846001600160a01b03815416604051938480927fcd2ce4ae0000000000000000000000000000000000000000000000000000000082525afa918215613c16578592613b19575b508151908160011b917f7fffffffffffffffffffffffffffffffffffffffffffffffffffffffffffffff811603613b0557601f1961362361360d84612316565b9361361b60405195866122f3565b808552612316565b01865b818110613aee575050856001600160a01b0360015416936001600160a01b0360025416915b81518110156139935760005b60028110613668575060010161364b565b96936136c194608061367f848695969a999a612677565b51604051809881927f0c8c35160000000000000000000000000000000000000000000000000000000083523060048401526060602484015260648301906129ba565b8c604483015203818a5afa958615612b7857600096613933575b506136e461353e565b968651156139225760009a8b5b8351811015613907576137048185612677565b51604051613733602082816137228183019687815193849201612997565b81010301601f1981018352826122f3565b5190206137408888612677565b5160405161375e602082816137228183019687815193849201612997565b5190201461376e576001016136f1565b8498919c509a60406137df829f959d61378f9060ff969e9d989a999a612677565b51925b61379c898b612677565b5190835196879384937f721db5620000000000000000000000000000000000000000000000000000000085523060048601526080602486015260848501906129ba565b9186604485015216606483015203818b5afa918215612b785760009384936138c9575b506138216020670de0b6b3a7640000928460608a0152019283516126b8565b0460808601526138318688612677565b518552602085018e90525160408501528115613879575090826138719260a060019501525b613860828a612677565b5261386b8189612677565b50613570565b995b01613657565b80915061388e575b5061387190600192613856565b907f800000000000000000000000000000000000000000000000000000000000000082146126085760009190910360a0830152613871613881565b939092506040843d82116138ff575b816138e5604093836122f3565b810103126102505750825160209093015191613821613802565b3d91506138d8565b509a9660ff919998939760406137df8d9f959d989798613792565b979650976001919550929192613873565b90956080823d821161398b575b8161394d608093836122f3565b8101031261025057506060604051916139658361226d565b8051835260208101516020840152604081015160408401520151606082015294386136db565b3d9150613940565b505050509150506139a5919250614c8e565b90602060005b8351811015613ae85760406139c08286612677565b51015115613ae0576001600160a01b0360005416906139df8186612677565b515160406139ed8388612677565b51015192846139fc8489612677565b510151906001820180921161260857600382101561308457604051613a2187826122f3565b60008152813b1561238f5760008094613ab4613a9798613a7b946040519a8b98899788967fe597868600000000000000000000000000000000000000000000000000000000885261010060048901526101048801906129ba565b9360248701528660448701528660648701526084860190613077565b4260a48501524260c48501526003198483030160e48501526129ba565b03925af1918215612b7857600192613acf575b505b016139ab565b6000613ada916122f3565b38613ac7565b600190613ac9565b50509050565b602090613af961353e565b82828701015201613626565b602486634e487b7160e01b81526011600452fd5b9091503d8086833e613b2b81836122f3565b810190602081830312610a675780519067ffffffffffffffff821161064e570181601f82011215610a6757805190613b6282612316565b92613b7060405194856122f3565b82845260208085019360051b83010191818311613c125760208101935b838510613ba057505050505090386135cd565b845167ffffffffffffffff8111613c0e5782019083603f83011215613c0e57602082015190613bce8261232e565b613bdb60405191826122f3565b8281526040848401018610613c0a57613bff60209493859460408685019101612997565b815201940193613b8d565b8c80fd5b8a80fd5b8880fd5b6040513d87823e3d90fd5b47600154906001600160a01b03600080936024604051809481937f6f4907cb000000000000000000000000000000000000000000000000000000008352306004840152165afa908115613d24578391613d2f575b506001600160a01b0383541690813b15610a6b57613ccd849283926040519485809481937fb55fb5740000000000000000000000000000000000000000000000000000000083526020600484015260248301906124b7565b03925af18015613d2457613d0e575b50613ce7904761268b565b9081613cf1575050565b8080806128da946001600160a01b03601254165af1610cf46126d5565b91613d1d81613ce793946122f3565b9190613cdc565b6040513d85823e3d90fd5b90503d8084833e613d4081836122f3565b810190602081830312610a6b5780519067ffffffffffffffff82116103f257019080601f83011215610a6b578151613d7781612316565b92613d8560405194856122f3565b81845260208085019260051b820101928311610a6757602001905b828210613db05750505038613c75565b8151815260209182019101613da0565b91613dd89183526060602084015260608301906129ec565b906040818303910152815180825260208201916020808360051b8301019401926000915b838310613e0b57505050505090565b9091929394602080613e2983601f19866001960301875289516129ba565b97019301930191939290613dfc565b90613e41613159565b5160009381613e4e6140af565b9081811161407d575b505081926001600160a01b03865416803b1561064e578660405180926352065a6560e11b8252818381613e8f888d8c60048501613dc0565b03925af180156109c457614069575b50613eab836010546125ec565b601055855b601954811015613fe6576001600160a01b03613ecb8261275d565b90549060031b1c168088526014602052604088205480613ef0575b5050600101613eb0565b9095613f08613eff87846126b8565b600d54906126cb565b9081811115613fdd5781613f1b9161268b565b965b613f3382826001600160a01b0360135416614d6c565b6004549260018401809411613fc957600484905560135460408051600081523060208201526001600160a01b039485169181019190915292166060830152608082019390935260a081019190915260c08101919091524260e08201526002610100820152600191907f613128987cba7a2073cf49ff02fbbe4e3728a0cf7ed9f8942569818fd0cfd66e9061012090a19038613ee6565b60248b634e487b7160e01b81526011600452fd5b90508896613f1d565b5091509392613ff9925083600d556145e5565b6019548160195580614009575050565b601982527f944998273e477b495144fb8794c914197f3ccb46be2900f4698fd0ef743c969501907f944998273e477b495144fb8794c914197f3ccb46be2900f4698fd0ef743c96955b82811061405e57505050565b818155600101614052565b86614076919792976122f3565b9438613e9e565b61408892935061268b565b903880613e57565b9081606091031261238f578051916125b4604060208401519301613063565b600e54906140c76140be612637565b6011549061261e565b600081136140d25750565b916004919260606001600160a01b03600354166040519485809263f502005760e01b82525afa928315612b78576125b4936064926141189260009261411e575b506126b8565b04612750565b61414191925060603d60601161414a575b61413981836122f3565b810190614090565b50509038614112565b503d61412f565b91939293600094838652601b602052604086209186670de0b6b3a76400006141c86040519661417f8861229f565b6001600160a01b03875416885260018701546020890152600287015460ff600560408b0199838b52600381015460608d0152600481015460808d015201541660a08a01526126b8565b0492868252601b602052836003604084200155868252601b60205260056040832001600260ff19825416179055614201846010546125ec565b6010556001600160a01b03825416803b15610a6f5761423893836040518096819582946352065a6560e11b84528a60048501613dc0565b03925af180156109c4576145ab575b50907f613128987cba7a2073cf49ff02fbbe4e3728a0cf7ed9f8942569818fd0cfd66e8261428f614312946001600160a01b03601354166001600160a01b0388511690614d6c565b6013548351604080516000815230602082015233918101919091526001600160a01b0390921660608301526080820188905260a082019290925260c08101919091524260e0820152600261010082015261012090a180516001600160a01b03845116875260146020526143076040882091825461268b565b905551600d5461268b565b600d556001600160a01b038151168452601460205260408420541561435e575b81604061435b94956001600160a01b036143559451168152601560205220615028565b50614f58565b50565b6001600160a01b03815116808552601c60205260408520548061442b575b50506001600160a01b03815116845260166020526040842060ff198154169055836001600160a01b03600354166001600160a01b03835116813b15610a6f576040517fdf51a5f60000000000000000000000000000000000000000000000000000000081526001600160a01b0391909116600482015230602482015291908290604490829084905af18015613c1657614416575b50614332565b6144218580926122f3565b610a6b5738614410565b601a546000198101908111614597578082036144f3575b5050601a5480156144df576000190161445a81612658565b6144cc57916144c29187600185827f3ddbb648aaeaaabce96671fb64baf7032313b7a0ef5c7083332fab22b28b481b97550155601a55808752601c602052866040812055604051918291429083602090939291936001600160a01b0360408201951681520152565b0390a1388061437c565b602487634e487b7160e01b815280600452fd5b602486634e487b7160e01b81526031600452fd5b6144fc81612658565b5060001983018381116145835761451290612658565b919091614570579181836001600160a01b0394614536940361454c575b5050612658565b5054168652601c60205260408620553880614442565b805482546001600160a01b031916908616178255600190810154910155388061452f565b602489634e487b7160e01b815280600452fd5b602489634e487b7160e01b81526011600452fd5b602487634e487b7160e01b81526011600452fd5b866145dc6143129493987f613128987cba7a2073cf49ff02fbbe4e3728a0cf7ed9f8942569818fd0cfd66e936122f3565b96919250614247565b90600d546146a2576145f6916149e0565b6146806001600160a01b03601254167f9b4c8df72cad1b37ef25dc4ebc8cf34f53d771a1182c1740ddeb9092b783b2486101206001600160a01b03601354169260085493600954600a54600f549160105493604051953087526020870152604086015287606086015260808501524260a085015260c084015260e0830152610100820152a1613570565b600855426009556000600a556000600e556000600f5560006010556000601155565b5050565b6001600160a01b037f9016d09d72d40fdae2fd8ceac6b6234c7706214fd39c1cd1e609a0528c199300541633036146d957565b7f118cdaa7000000000000000000000000000000000000000000000000000000006000523360045260246000fd5b90614717600c5460065490612750565b42106146a25760049160009161472b613159565b9060606001600160a01b03600354166040519687809263f502005760e01b82525afa918215611c595784859686946149b6575b50600d546149475750519283600e555b83614782575b5050505050506128da6150e4565b6001600160a01b0385541690813b15610a67579185916147ba93836040518096819582946352065a6560e11b84528b60048501613dc0565b03925af18015611c5957614933575b5081926147d883600a54612750565b600a556147e783600e5461268b565b600e5584151580614921575b614893575b50505080915061480d575b8080808080614774565b60a0816148537fd02394d66d13f483d5a33e67f60f1c8561b25608188ab82207b11115a926f5c2936001600160a01b03601354166001600160a01b036012541690614d6c565b6001600160a01b0360125416906001600160a01b036013541690600e5491604051933085526020850152604084015260608301526080820152a138614803565b7fd02394d66d13f483d5a33e67f60f1c8561b25608188ab82207b11115a926f5c293506148d060646148c8859760a0966126b8565b04809661268b565b946148e781846001600160a01b0360135416614d6c565b6001600160a01b03601354166001600160a01b0360405194308652166020850152604084015260608301526080820152a1803880806147f8565b506001600160a01b03821615156147f3565b83614940919492946122f3565b91386147c9565b61494f612637565b6011548113156149a357606461497a602093614983936149716011548261261e565b906011556126b8565b04600e54612750565b9182600e55015181811160001461499c57505b9261476e565b9050614996565b96505050505050506011556128da6150e4565b919350506149d491955060603d60601161414a5761413981836122f3565b9591929095923861475e565b906004916000916000906149f2613159565b60606001600160a01b03600354166040519788809263f502005760e01b82525afa928315614b3f578081978295614b15575b50600d54614ab5575050519283600e555b83614a48575050505050506128da6150e4565b6001600160a01b036000541691823b1561238f57614a8192600092836040518096819582946352065a6560e11b84528b60048501613dc0565b03925af18015612b7857614a9e575081926147d883600a54612750565b614aac9193506000906122f3565b600091386147c9565b614abd612637565b601154811315614b0157606461497a602093614adf936149716011548261261e565b9283600e5501519050818111600014614afa57505b92614a35565b9050614af4565b9750505050505050506011556128da6150e4565b91945050614b3391965060603d60601161414a5761413981836122f3565b96919390969338614a24565b604051903d90823e3d90fd5b604051906017548083528260208101601760005260206000209260005b818110614b7d5750506128da925003836122f3565b8454835260019485019487945060209093019201614b68565b906040519182815491828252602082019060005260206000209260005b818110614bc85750506128da925003836122f3565b8454835260019485019487945060209093019201614bb3565b60206001600160a01b03916004604051809481937f313ce567000000000000000000000000000000000000000000000000000000008352165afa908115612b7857600091614c51575b5060ff16604d811161260857670de0b6b3a764000091614c4d91600a0a906126b8565b0490565b6020813d602011614c86575b81614c6a602093836122f3565b8101031261046357519060ff82168203610250575060ff614c2a565b3d9150614c5d565b908151600181111561435b57600090600019810190811192835b6126085781831015614d6657600090845b6126085784614cc8858561268b565b831015614d59575060a0614cdc8388612677565b5101516001830192838111612608578360019260a0614cfc8a978c612677565b51015113614d0d575b500191614cb9565b614d5290614d1b838b612677565b5160008b614d3486614d2d8684612677565b5192612677565b52614d3f858d612677565b5050614d4b828c612677565b5289612677565b5038614d05565b9360019192500192614ca8565b92505050565b9091614d789082614be1565b9081151580614e70575b614d8b57505050565b600092838093614e1f60409361189e7fffffffff00000000000000000000000000000000000000000000000000000000601960208851614dcb8a826122f3565b828152017f7472616e7366657228616464726573732c75696e7432353629000000000000008152201695519384926020840197885260248401602090939291936001600160a01b0360408201951681520152565b51925af1614e2b6126d5565b81614e39575b501561238f57565b8051801592508215614e4e575b505038614e31565b819250906020918101031261238f576020614e6991016129df565b3880614e46565b506001600160a01b0383161515614d82565b80600052601860205260406000205415600014614ef3576017546801000000000000000081101561228957614eda614ec38260018594016017556017612778565b81939154906000199060031b92831b921b19161790565b9055601754906000526018602052604060002055600190565b50600090565b6001810190826000528160205260406000205415600014614f505780546801000000000000000081101561228957614f3b614ec3826001879401855584612778565b90555491600052602052604060002055600190565b505050600090565b60008181526018602052604090205480156150215760001981018181116126085760175490600019820191821161260857818103614fe7575b5050506017548015614fd15760001901614fac816017612778565b60001982549160031b1b19169055601755600052601860205260006040812055600190565b634e487b7160e01b600052603160045260246000fd5b615009614ff8614ec3936017612778565b90549060031b1c9283926017612778565b90556000526018602052604060002055388080614f91565b5050600090565b90600182019181600052826020526040600020548015156000146150db576000198101818111612608578254906000198201918211612608578181036150a4575b50505080548015614fd15760001901906150838282612778565b60001982549160031b1b191690555560005260205260006040812055600190565b6150c46150b4614ec39386612778565b90549060031b1c92839286612778565b905560005283602052604060002055388080615069565b50505050600090565b6150f36201518042064261268b565b62015180810460038101809111612608576007900662015180810290808204620151801490151715612608576151289161268b565b600c55565b60ff7ff0c57e16840df040f15088dc2f81fe391c3923bec73e23a9662efc9c229c6a005460401c161561515c57565b7fd7e6bcf80000000000000000000000000000000000000000000000000000000060005260046000fdfea2646970667358221220d6bef0f575a3ee1d644090665a002bcf84e663763925cc076825fb0d457d3b3d64736f6c634300081c0033",
  "linkReferences": {},
  "deployedLinkReferences": {}
}