{
  "_format": "hh-sol-artifact-1",
  "contractName": "BuyBack",
  "sourceName": "contracts/BuyBack.sol",
  "abi": [
    {
      "inputs": [],
      "name": "InvalidInitialization",
      "type": "error"
    },
    {
      "inputs": [],
      "name": "NotInitializing",
      "type": "error"
    },
    {
      "inputs": [
        {
          "internalType": "address",
          "name": "owner",
          "type": "address"
        }
      ],
      "name": "OwnableInvalidOwner",
      "type": "error"
    },
    {
      "inputs": [
        {
          "internalType": "address",
          "name": "account",
          "type": "address"
        }
      ],
      "name": "OwnableUnauthorizedAccount",
      "type": "error"
    },
    {
      "anonymous": false,
      "inputs": [
        {
          "indexed": false,
          "internalType": "address",
          "name": "user",
          "type": "address"
        },
        {
          "indexed": false,
          "internalType": "uint256",
          "name": "fccAmount",
          "type": "uint256"
        },
        {
          "indexed": false,
          "internalType": "address",
          "name": "token",
          "type": "address"
        },
        {
          "indexed": false,
          "internalType": "uint256",
          "name": "swapPrice",
          "type": "uint256"
        },
        {
          "indexed": false,
          "internalType": "uint256",
          "name": "swapAmount",
          "type": "uint256"
        }
      ],
      "name": "BuyBackAmount",
      "type": "event"
    },
    {
      "anonymous": false,
      "inputs": [
        {
          "indexed": false,
          "internalType": "uint64",
          "name": "version",
          "type": "uint64"
        }
      ],
      "name": "Initialized",
      "type": "event"
    },
    {
      "anonymous": false,
      "inputs": [
        {
          "indexed": true,
          "internalType": "address",
          "name": "previousOwner",
          "type": "address"
        },
        {
          "indexed": true,
          "internalType": "address",
          "name": "newOwner",
          "type": "address"
        }
      ],
      "name": "OwnershipTransferred",
      "type": "event"
    },
    {
      "anonymous": false,
      "inputs": [
        {
          "indexed": false,
          "internalType": "address",
          "name": "owner",
          "type": "address"
        },
        {
          "indexed": false,
          "internalType": "address",
          "name": "settle",
          "type": "address"
        },
        {
          "indexed": false,
          "internalType": "uint256",
          "name": "currentStageAmount",
          "type": "uint256"
        },
        {
          "indexed": false,
          "internalType": "uint256",
          "name": "lowerbound",
          "type": "uint256"
        },
        {
          "indexed": false,
          "internalType": "uint256",
          "name": "roundID",
          "type": "uint256"
        }
      ],
      "name": "SetRewardAmount",
      "type": "event"
    },
    {
      "anonymous": false,
      "inputs": [
        {
          "indexed": false,
          "internalType": "uint256",
          "name": "id",
          "type": "uint256"
        },
        {
          "indexed": false,
          "internalType": "uint256",
          "name": "amount",
          "type": "uint256"
        },
        {
          "indexed": false,
          "internalType": "uint256",
          "name": "timestamp",
          "type": "uint256"
        }
      ],
      "name": "UpdatePool",
      "type": "event"
    },
    {
      "stateMutability": "nonpayable",
      "type": "fallback"
    },
    {
      "inputs": [],
      "name": "FCCReceivedAddr",
      "outputs": [
        {
          "internalType": "address",
          "name": "",
          "type": "address"
        }
      ],
      "stateMutability": "view",
      "type": "function"
    },
    {
      "inputs": [
        {
          "internalType": "address",
          "name": "_settle",
          "type": "address"
        },
        {
          "internalType": "uint256",
          "name": "_defaultPrice",
          "type": "uint256"
        },
        {
          "internalType": "address",
          "name": "_numerator",
          "type": "address"
        },
        {
          "internalType": "address",
          "name": "_denominator",
          "type": "address"
        },
        {
          "internalType": "address",
          "name": "_pool",
          "type": "address"
        }
      ],
      "name": "addSettleBuybackInfo",
      "outputs": [],
      "stateMutability": "nonpayable",
      "type": "function"
    },
    {
      "inputs": [],
      "name": "currentStageAmount",
      "outputs": [
        {
          "internalType": "uint256",
          "name": "",
          "type": "uint256"
        }
      ],
      "stateMutability": "view",
      "type": "function"
    },
    {
      "inputs": [],
      "name": "deadAddress",
      "outputs": [
        {
          "internalType": "address",
          "name": "",
          "type": "address"
        }
      ],
      "stateMutability": "view",
      "type": "function"
    },
    {
      "inputs": [
        {
          "internalType": "address",
          "name": "_settle",
          "type": "address"
        },
        {
          "internalType": "bool",
          "name": "_disable",
          "type": "bool"
        }
      ],
      "name": "disableBuyBackInfo",
      "outputs": [],
      "stateMutability": "nonpayable",
      "type": "function"
    },
    {
      "inputs": [],
      "name": "elapseAmount",
      "outputs": [
        {
          "internalType": "uint256",
          "name": "",
          "type": "uint256"
        }
      ],
      "stateMutability": "view",
      "type": "function"
    },
    {
      "inputs": [
        {
          "internalType": "address",
          "name": "_settle",
          "type": "address"
        },
        {
          "internalType": "address",
          "name": "to",
          "type": "address"
        },
        {
          "internalType": "uint256",
          "name": "_amount",
          "type": "uint256"
        }
      ],
      "name": "fetch",
      "outputs": [],
      "stateMutability": "nonpayable",
      "type": "function"
    },
    {
      "inputs": [],
      "name": "getElapseAmount",
      "outputs": [
        {
          "internalType": "uint256",
          "name": "",
          "type": "uint256"
        }
      ],
      "stateMutability": "view",
      "type": "function"
    },
    {
      "inputs": [],
      "name": "getElapseAmountFromBlackHole",
      "outputs": [
        {
          "internalType": "uint256",
          "name": "",
          "type": "uint256"
        }
      ],
      "stateMutability": "view",
      "type": "function"
    },
    {
      "inputs": [],
      "name": "getSettleAddresses",
      "outputs": [
        {
          "internalType": "address[]",
          "name": "",
          "type": "address[]"
        }
      ],
      "stateMutability": "view",
      "type": "function"
    },
    {
      "inputs": [
        {
          "internalType": "address",
          "name": "_settle",
          "type": "address"
        }
      ],
      "name": "getSettleBuybackInfo",
      "outputs": [
        {
          "internalType": "uint256",
          "name": "_price",
          "type": "uint256"
        },
        {
          "internalType": "uint256",
          "name": "_TokenTotal",
          "type": "uint256"
        },
        {
          "internalType": "uint256",
          "name": "_FCCRemaining",
          "type": "uint256"
        },
        {
          "internalType": "uint256",
          "name": "_roundID",
          "type": "uint256"
        },
        {
          "internalType": "uint256",
          "name": "_stageAmount",
          "type": "uint256"
        },
        {
          "internalType": "uint256",
          "name": "_bound",
          "type": "uint256"
        },
        {
          "internalType": "address",
          "name": "_numerator",
          "type": "address"
        },
        {
          "internalType": "address",
          "name": "_denominator",
          "type": "address"
        },
        {
          "internalType": "address",
          "name": "_pool",
          "type": "address"
        }
      ],
      "stateMutability": "view",
      "type": "function"
    },
    {
      "inputs": [],
      "name": "getToken",
      "outputs": [
        {
          "internalType": "contract BEP20",
          "name": "",
          "type": "address"
        }
      ],
      "stateMutability": "view",
      "type": "function"
    },
    {
      "inputs": [
        {
          "internalType": "address",
          "name": "initialOwner",
          "type": "address"
        },
        {
          "internalType": "address",
          "name": "_fcc",
          "type": "address"
        }
      ],
      "name": "initialize",
      "outputs": [],
      "stateMutability": "nonpayable",
      "type": "function"
    },
    {
      "inputs": [],
      "name": "lowerBound",
      "outputs": [
        {
          "internalType": "uint256",
          "name": "",
          "type": "uint256"
        }
      ],
      "stateMutability": "view",
      "type": "function"
    },
    {
      "inputs": [],
      "name": "owner",
      "outputs": [
        {
          "internalType": "address",
          "name": "",
          "type": "address"
        }
      ],
      "stateMutability": "view",
      "type": "function"
    },
    {
      "inputs": [
        {
          "internalType": "address",
          "name": "_settle",
          "type": "address"
        }
      ],
      "name": "removeSettleBuybackInfo",
      "outputs": [],
      "stateMutability": "nonpayable",
      "type": "function"
    },
    {
      "inputs": [],
      "name": "renounceOwnership",
      "outputs": [],
      "stateMutability": "nonpayable",
      "type": "function"
    },
    {
      "inputs": [
        {
          "internalType": "address",
          "name": "_addr",
          "type": "address"
        },
        {
          "internalType": "bool",
          "name": "_status",
          "type": "bool"
        }
      ],
      "name": "setAddressParam",
      "outputs": [],
      "stateMutability": "nonpayable",
      "type": "function"
    },
    {
      "inputs": [
        {
          "internalType": "address",
          "name": "_received",
          "type": "address"
        }
      ],
      "name": "setReceivedAddress",
      "outputs": [],
      "stateMutability": "nonpayable",
      "type": "function"
    },
    {
      "inputs": [
        {
          "internalType": "address",
          "name": "_settle",
          "type": "address"
        },
        {
          "internalType": "uint256",
          "name": "_currentStageAmount",
          "type": "uint256"
        },
        {
          "internalType": "uint256",
          "name": "_lowerBound",
          "type": "uint256"
        },
        {
          "internalType": "uint256",
          "name": "_remaining",
          "type": "uint256"
        }
      ],
      "name": "setSettleParameters",
      "outputs": [],
      "stateMutability": "nonpayable",
      "type": "function"
    },
    {
      "inputs": [
        {
          "internalType": "enum BuyBack.SwapMode",
          "name": "_mode",
          "type": "uint8"
        }
      ],
      "name": "setSwapMode",
      "outputs": [],
      "stateMutability": "nonpayable",
      "type": "function"
    },
    {
      "inputs": [
        {
          "internalType": "address",
          "name": "_token",
          "type": "address"
        }
      ],
      "name": "setToken",
      "outputs": [],
      "stateMutability": "nonpayable",
      "type": "function"
    },
    {
      "inputs": [
        {
          "internalType": "address",
          "name": "_settle",
          "type": "address"
        },
        {
          "internalType": "uint256",
          "name": "_amount",
          "type": "uint256"
        },
        {
          "internalType": "uint256",
          "name": "_roundID",
          "type": "uint256"
        }
      ],
      "name": "swap",
      "outputs": [],
      "stateMutability": "nonpayable",
      "type": "function"
    },
    {
      "inputs": [],
      "name": "swap4Mode",
      "outputs": [
        {
          "internalType": "enum BuyBack.SwapMode",
          "name": "",
          "type": "uint8"
        }
      ],
      "stateMutability": "view",
      "type": "function"
    },
    {
      "inputs": [
        {
          "internalType": "address",
          "name": "_settle",
          "type": "address"
        },
        {
          "internalType": "uint256",
          "name": "_amount",
          "type": "uint256"
        },
        {
          "internalType": "uint256",
          "name": "_roundID",
          "type": "uint256"
        }
      ],
      "name": "swapByPercent",
      "outputs": [],
      "stateMutability": "nonpayable",
      "type": "function"
    },
    {
      "inputs": [
        {
          "internalType": "address",
          "name": "_settle",
          "type": "address"
        },
        {
          "internalType": "uint256",
          "name": "_amount",
          "type": "uint256"
        },
        {
          "internalType": "uint256",
          "name": "_roundID",
          "type": "uint256"
        },
        {
          "internalType": "uint256",
          "name": "_price",
          "type": "uint256"
        }
      ],
      "name": "swapByPrice",
      "outputs": [],
      "stateMutability": "nonpayable",
      "type": "function"
    },
    {
      "inputs": [
        {
          "internalType": "address",
          "name": "newOwner",
          "type": "address"
        }
      ],
      "name": "transferOwnership",
      "outputs": [],
      "stateMutability": "nonpayable",
      "type": "function"
    },
    {
      "inputs": [
        {
          "internalType": "address",
          "name": "_settle",
          "type": "address"
        },
        {
          "internalType": "address",
          "name": "_numerator",
          "type": "address"
        },
        {
          "internalType": "address",
          "name": "_denominator",
          "type": "address"
        },
        {
          "internalType": "address",
          "name": "_pool",
          "type": "address"
        },
        {
          "internalType": "uint256",
          "name": "_defaultPrice",
          "type": "uint256"
        }
      ],
      "name": "updateBuyBackInfo",
      "outputs": [],
      "stateMutability": "nonpayable",
      "type": "function"
    }
  ],
  "bytecode": "0x608080604052346015576126af908161001b8239f35b600080fdfe608080604052600436101561001c575b503461001757005b600080fd5b60003560e01c9081630f9527321461101057508063144fa6d714610f7457806321df0da714610f4d57806327c8f83514610f265780632aa088e414610f0c5780632e7fb6fa14610ed7578063356196b414610de1578063485cc95514610ad457806355a58b4314610ab65780636b4a8c6014610a9f578063715018a614610a06578063730e37481461093a57806388aa98f31461090957806389b7265c146108685780638da5cb5b1461082257806398d35202146107e25780639f1d0f59146107cb578063a384d6ff146107ad578063ad8d8d2414610783578063ae4f915c14610738578063ae70710e146106b7578063b389bb081461065f578063c82a44cb14610513578063caaddaa6146103ed578063cc317b0b14610232578063db3cbb4d146101c4578063eff4383b146101885763f2fde38b1461015d573861000f565b346100175760206003193601126100175761018661017961102b565b610181612534565b611f84565b005b346100175760006003193601126100175760206101bc6001600160a01b03600154166001600160a01b0360035416906120e4565b604051908152f35b34610017576020600319360112610017576101206001600160a01b0380806101f26101ed61102b565b611d92565b98979a9590966040959295949394519b8c5260208c015260408b015260608a0152608089015260a08801521660c08601521660e084015216610100820152f35b346100175760a06003193601126100175761024b61102b565b610253611057565b9061025c61106d565b608435906001600160a01b03821682036100175733600052600260205261028a60ff6040600020541661110a565b6001600160a01b03831692836000526007602052604060002054156102ab57005b836000526007602052600160406000205560065490680100000000000000008210156103d7576102e48260016103039401600655611d61565b9091906001600160a01b038084549260031b9316831b921b1916179055565b8260005260086020526040600020836000526007602052604060002054600052602052604060002093836001600160a01b03198654161785556001600160a01b036001860191166001600160a01b03198254161790556001600160a01b036002850191166001600160a01b03198254161790556001600160a01b036003840191166001600160a01b0319825416179055602435600483015560005260076020526040600020546008820155600954806007830155600982015542600a82015560095460058201556006600a54910155600080f35b634e487b7160e01b600052604160045260246000fd5b34610017576020600319360112610017576001600160a01b0361040e61102b565b33600052600260205261042860ff6040600020541661110a565b1680600052600760205260406000205461043e57005b60065490600019820191821161048457815b816001600160a01b0361046283611d61565b90549060031b1c161461049a5780156101865780156104845760001901610450565b634e487b7160e01b600052601160045260246000fd5b6102e46001600160a01b036104b26104c09495611d61565b90549060031b1c1691611d61565b60005260076020526000604081205560065480156104fd57600019016104e581611d61565b6001600160a01b0382549160031b1b19169055600655005b634e487b7160e01b600052603160045260246000fd5b346100175761052136611083565b90929133600052600260205261053e60ff6040600020541661110a565b61271084101561061b577f107d47bcb4708195f6abfe31a19d9da2630f565a42681a463ef4489f50440948936001600160a01b0360a094169283600052600760205261059060406000205415156111eb565b8360005260086020526040600020846000526007602052604060002054600052602052604060002083610610575b82610605575b816105fa575b505082600052600760205260406000205491604051933385526020850152604084015260608301526080820152a1005b6009015585806105ca565b8260068201556105c4565b8360058201556105be565b606460405162461bcd60e51b815260206004820152600b60248201527f77726f6e6720706172616d0000000000000000000000000000000000000000006044820152fd5b346100175760a06003193601126100175761018661067b61102b565b610683611041565b61068b611057565b61069361106d565b913360005260026020526106ae60ff6040600020541661110a565b60843593611c73565b34610017576060600319360112610017576106d061102b565b6106d8611041565b604435903360005260026020526106f660ff6040600020541661110a565b6001600160a01b0383166000526007602052604060002054151580610725575b61071c57005b6101869261222b565b508161073130856120e4565b1015610716565b346100175760206003193601126100175760043560038110156100175733600052600260205261076f60ff6040600020541661110a565b60ff60ff1960055416911617600555600080f35b346100175760006003193601126100175760206001600160a01b0360055460081c16604051908152f35b34610017576000600319360112610017576020600a54604051908152f35b34610017576101866107dc366110b1565b91611a0c565b346100175760006003193601126100175760ff60055416604051600382101561080c576020918152f35b634e487b7160e01b600052602160045260246000fd5b346100175760006003193601126100175760206001600160a01b037f9016d09d72d40fdae2fd8ceac6b6234c7706214fd39c1cd1e609a0528c1993005416604051908152f35b34610017576001600160a01b0361087e366110db565b919033600052600260205261089a60ff6040600020541661110a565b169081156108c55761018691600052600260205260406000209060ff60ff1983541691151516179055565b606460405162461bcd60e51b815260206004820152600460248201527f7a65726f000000000000000000000000000000000000000000000000000000006044820152fd5b346100175761018661091a366110db565b9033600052600260205261093560ff6040600020541661110a565b611997565b34610017576000600319360112610017576040518060206006549283815201809260066000527ff652222313e28459528d920b65115c16c04f3efc82aaedc97be59f3f377c0d3f9060005b8181106109e7575050508161099b91038261134a565b6040519182916020830190602084525180915260408301919060005b8181106109c5575050500390f35b82516001600160a01b03168452859450602093840193909201916001016109b7565b82546001600160a01b0316845260209093019260019283019201610985565b3461001757600060031936011261001757610a1f612534565b60006001600160a01b037f9016d09d72d40fdae2fd8ceac6b6234c7706214fd39c1cd1e609a0528c199300546001600160a01b031981167f9016d09d72d40fdae2fd8ceac6b6234c7706214fd39c1cd1e609a0528c19930055167f8be0079c531659141344cd1fd0a4f28419497f9722a3daafe3b4186f6b6457e08280a3005b3461001757610186610ab0366110b1565b91611625565b34610017576000600319360112610017576020600454604051908152f35b3461001757604060031936011261001757610aed61102b565b610af5611041565b7ff0c57e16840df040f15088dc2f81fe391c3923bec73e23a9662efc9c229c6a00549160ff8360401c16159267ffffffffffffffff811680159081610dd9575b6001149081610dcf575b159081610dc6575b50610d9c576001600160a01b0392818560017fffffffffffffffffffffffffffffffffffffffffffffffff0000000000000000879516177ff0c57e16840df040f15088dc2f81fe391c3923bec73e23a9662efc9c229c6a0055610d47575b50610bae612620565b610bb6612620565b610bbf33611f84565b610bc7612534565b610bd083611f84565b166001600160a01b03196001541617600155600260ff1960055416176005553360005260026020526040600020600160ff198254161790551660005260026020526040600020600160ff19825416179055670de0b6b3a764000060005561dead6001600160a01b0319600354161760035560006004557fffffffffffffffffffffff0000000000000000000000000000000000000000ff6005541660055569152d02c7e14af6800000600955611388600a556001600160a01b0319600b5416600b556001600160a01b0319600c5416600c55670de0b6b3a7640000600d55610cb457005b7fffffffffffffffffffffffffffffffffffffffffffffff00ffffffffffffffff7ff0c57e16840df040f15088dc2f81fe391c3923bec73e23a9662efc9c229c6a0054167ff0c57e16840df040f15088dc2f81fe391c3923bec73e23a9662efc9c229c6a00557fc7f505b2f371ae2175ee4913f4499e1f2633a7b5936321eed1cdaeb6115181d2602060405160018152a1005b7fffffffffffffffffffffffffffffffffffffffffffffff0000000000000000001668010000000000000001177ff0c57e16840df040f15088dc2f81fe391c3923bec73e23a9662efc9c229c6a005585610ba5565b7ff92ee8a90000000000000000000000000000000000000000000000000000000060005260046000fd5b90501585610b47565b303b159150610b3f565b859150610b35565b3461001757602060031936011261001757610dfa61102b565b336000526002602052610e1460ff6040600020541661110a565b6001600160a01b03811615610e6d577fffffffffffffffffffffff0000000000000000000000000000000000000000ff74ffffffffffffffffffffffffffffffffffffffff006005549260081b16911617600555600080f35b608460405162461bcd60e51b815260206004820152602160248201527f706c6174666f726d2072656365697665642061646472657373206973207a657260448201527f6f000000000000000000000000000000000000000000000000000000000000006064820152fd5b346100175760006003193601126100175760206101bc600454610f066001600160a01b036001541630906120e4565b90611392565b3461001757610186610f1d36611083565b9291909161139f565b346100175760006003193601126100175760206001600160a01b0360035416604051908152f35b346100175760006003193601126100175760206001600160a01b0360015416604051908152f35b34610017576020600319360112610017576001600160a01b03610f9561102b565b336000526002602052610faf60ff6040600020541661110a565b168015610fcc576001600160a01b03196001541617600155600080f35b606460405162461bcd60e51b815260206004820152601660248201527f706c6174666f726d20746f6b656e206973207a65726f000000000000000000006044820152fd5b34610017576000600319360112610017576020906009548152f35b600435906001600160a01b038216820361001757565b602435906001600160a01b038216820361001757565b604435906001600160a01b038216820361001757565b606435906001600160a01b038216820361001757565b6003196080910112610017576004356001600160a01b03811681036100175790602435906044359060643590565b6003196060910112610017576004356001600160a01b038116810361001757906024359060443590565b6003196040910112610017576004356001600160a01b0381168103610017579060243580151581036100175790565b1561111157565b606460405162461bcd60e51b815260206004820152601d60248201527f63616c6c6572206973206e6f7420627579206261636b206b65657065720000006044820152fd5b1561115c57565b606460405162461bcd60e51b815260206004820152600e60248201527f616d6f756e74206973207a65726f0000000000000000000000000000000000006044820152fd5b156111a757565b606460405162461bcd60e51b815260206004820152601260248201527f446f206e6f7420616c6c6f7720737761702e00000000000000000000000000006044820152fd5b156111f257565b606460405162461bcd60e51b815260206004820152601160248201527f736574746c65206e6f742065786973742e0000000000000000000000000000006044820152fd5b1561123d57565b606460405162461bcd60e51b815260206004820152601060248201527f6d69736d61746368656420726f756e64000000000000000000000000000000006044820152fd5b1561128857565b606460405162461bcd60e51b815260206004820152601960248201527f706c6174666f726d20746f6b656e206e6f7420656e6f756768000000000000006044820152fd5b8181029291811591840414171561048457565b81156112e9570490565b634e487b7160e01b600052601260045260246000fd5b1561130657565b606460405162461bcd60e51b815260206004820152600c60248201527f64697361626c65207377617000000000000000000000000000000000000000006044820152fd5b90601f601f19910116810190811067ffffffffffffffff8211176103d757604052565b90816020910312610017575180151581036100175790565b9190820391821161048457565b9190820180921161048457565b91926113ac821515611155565b60ff60055416600381101561080c5760026113c791146111a0565b6113d033612043565b61161f576001600160a01b03600154166001600160a01b038416908114611612576115089481600052600760205261140e60406000205415156111eb565b8160005260076020526114276040600020548214611236565b8160005260086020526040600020816000526020526009604060002001549161145c8561145430896120e4565b941015611281565b600054926114738561146e86896112cc565b6112df565b938185116115f7575b505060005260086020526040600020906000526020526040600020916114a960ff600b85015416156112ff565b6001546003546040517f23b872dd0000000000000000000000000000000000000000000000000000000081523360048201526001600160a01b039182166024820152604481018790529760209289921690829060009082906064820190565b03925af19586156115eb57856115b19461157a927f143ba53b3b18227b2fd6f49d25fd66d40e5b69b44dede9826200a8ca379923e3996115be575b5061154f85338461222b565b6009810161155e888254611385565b905561156c87600454611392565b60045542600a820155612356565b6040519485943386916080936001600160a01b039197969592978260a0860199168552602085015216604083015260608201520152565b0390a16115bc612079565b565b6115df9060203d6020116115e4575b6115d7818361134a565b81019061136d565b611543565b503d6115cd565b6040513d6000823e3d90fd5b90935061160a91955061146e85856112cc565b93388061147c565b50505050506115bc612079565b50505050565b611630821515611155565b60ff60055416600381101561080c57600161164b91146111a0565b61165433612043565b611992576001600160a01b03600154166001600160a01b0382169081146119865780600052600760205261168e60406000205415156111eb565b8060005260076020526116a76040600020548514611236565b806000526008602052604060002084600052602052600960406000200154936116d284861015611281565b81600052600860205260406000209060005260205261171460406000209461170160ff600b88015416156112ff565b61146e8561170f30876120e4565b6112cc565b916001600160a01b0360055460081c168015611942576001600160a01b03600154169060405163313ce56760e01b8152602081600481865afa9081156115eb5761177060ff61177f9361177693600091611913575b50166120d6565b886112cc565b600054906112df565b806117e7575b505050907f143ba53b3b18227b2fd6f49d25fd66d40e5b69b44dede9826200a8ca379923e3946117bb8460a0969594339061222b565b600a429101556040519233845260208401526040830152600060608301526080820152a16115bc612079565b9160009291838093819998979699506118c17fffffffff00000000000000000000000000000000000000000000000000000000602560405161182a60608261134a565b8181527f7432353629000000000000000000000000000000000000000000000000000000604060208301927f7472616e7366657246726f6d28616464726573732c616464726573732c75696e845201522016936118b36040519384926020840197885233602485016001600160a01b036040929594938160608401971683521660208201520152565b03601f19810183528261134a565b51925af16118cd6121eb565b816118e4575b501561001757909192388080611785565b80518015925082156118f9575b5050386118d3565b61190c925060208091830101910161136d565b38806118f1565b611935915060203d60201161193b575b61192d818361134a565b8101906120bd565b38611769565b503d611923565b606460405162461bcd60e51b815260206004820152601860248201527f72656365697665642061646472657373206973207a65726f00000000000000006044820152fd5b505050506115bc612079565b505050565b906001600160a01b0380600154169216918214611a0857816115bc9260005260076020526119cb60406000205415156111eb565b8060005260086020526040600020906000526007602052604060002054600052602052600b6040600020019060ff60ff1983541691151516179055565b5050565b90611a18811515611155565b60ff60055416600381101561080c576002611a3391146111a0565b611a3c33612043565b611992576001600160a01b0360015416926001600160a01b03831693841461198657836000526007602052611a7760406000205415156111eb565b836000526007602052611a906040600020548214611236565b83600052600860205260406000208160005260205260096040600020015493611abb83861015611281565b6000526008602052604060002090600052602052604060002092611ae660ff600b86015416156112ff565b611af030846120e4565b611b37611b2c6001600160a01b036001880154166001600160a01b036002890154166001600160a01b0360038a0154169060048a015492612595565b9261146e83856112cc565b918015611c2f57611b4f8161146e611bbf95876112cc565b916020856001600160a01b03600154166001600160a01b036003541660006040518099819582947f23b872dd00000000000000000000000000000000000000000000000000000000845233600485016001600160a01b036040929594938160608401971683521660208201520152565b03925af19081156115eb577f143ba53b3b18227b2fd6f49d25fd66d40e5b69b44dede9826200a8ca379923e397611c078589936115b19861157a96611c12575b501015611281565b61154f85338461222b565b611c2a9060203d6020116115e4576115d7818361134a565b611bff565b606460405162461bcd60e51b815260206004820152600d60248201527f7072696365206973207a65726f000000000000000000000000000000000000006044820152fd5b9290916001600160a01b0380600154169416938414611d2c57836004946000526007602052611ca860406000205415156111eb565b80600052600860205260406000209060005260076020526040600020546000526020526040600020926001600160a01b036001850191166001600160a01b03198254161790556001600160a01b036002840191166001600160a01b03198254161790556001600160a01b036003830191166001600160a01b03198254161790550155565b506001600160a01b03925082166001600160a01b0319600b541617600b55166001600160a01b0319600c541617600c55600d55565b600654811015611d7c57600660005260206000200190600090565b634e487b7160e01b600052603260045260246000fd5b6001600160a01b03600154166001600160a01b03821690808214611f455750806000526007602052611dca60406000205415156111eb565b8060005260086020526040600020906000526007602052604060002054600052602052604060002060405192610180840184811067ffffffffffffffff8211176103d75760405281546001600160a01b0316845260018201546001600160a01b0316926020850193845260028301546001600160a01b0316936040860194855260038401546001600160a01b031694606087019586526004850154956080880196875260058601549460a0890195865260068701549460c08a01958652600788015460e08b015260088801549961010081019a8b526009890154986101208201998a52600a810154610140830152600b015460ff16151590610160015230611ed1916120e4565b9788975197889186516001600160a01b03169086516001600160a01b03169086516001600160a01b0316905191611f0793612595565b90611f11916112cc565b90611f1b916112df565b98519551945193516001600160a01b031692516001600160a01b031691516001600160a01b031690565b9150506001600160a01b03600c5416906001600160a01b03600b5416611f6f600d54828486612595565b93600093600093600093600093600093929190565b6001600160a01b03168015612014576001600160a01b037f9016d09d72d40fdae2fd8ceac6b6234c7706214fd39c1cd1e609a0528c19930054826001600160a01b03198216177f9016d09d72d40fdae2fd8ceac6b6234c7706214fd39c1cd1e609a0528c19930055167f8be0079c531659141344cd1fd0a4f28419497f9722a3daafe3b4186f6b6457e0600080a3565b7f1e4fbdf700000000000000000000000000000000000000000000000000000000600052600060045260246000fd5b3f8015159081612051575090565b7fc5d2460186f7233c927e7db2dcc703c0e500b653ca82273b7bfad8045d85a4709150141590565b6001600160a01b036001541661208f30826120e4565b80612098575050565b6115bc916120a882600454611392565b6004556001600160a01b03600354169061222b565b90816020910312610017575160ff811681036100175790565b604d811161048457600a0a90565b6001600160a01b03166001600160a01b03604051927f70a08231000000000000000000000000000000000000000000000000000000008452166004830152602082602481845afa9182156115eb576000926121b6575b509060206004926040519384809263313ce56760e01b82525afa9081156115eb576121879260009261218a575b5060ff61217a61218192600054906112cc565b92166120d6565b906112df565b90565b61218191925061217a6121ad60ff9260203d60201161193b5761192d818361134a565b93925050612167565b91506020823d6020116121e3575b816121d16020938361134a565b8101031261001757905190602061213a565b3d91506121c4565b3d15612226573d9067ffffffffffffffff82116103d7576040519161221a601f8201601f19166020018461134a565b82523d6000602084013e565b606090565b9160405163313ce56760e01b81526020816004816001600160a01b0388165afa9182156115eb5761226d60ff61227394611776946000916119135750166120d6565b906112cc565b918261227e57505050565b6000928380936040926001600160a01b037fffffffff000000000000000000000000000000000000000000000000000000006019602087516122c0898261134a565b828152017f7472616e7366657228616464726573732c75696e743235362900000000000000815220169451926020840195865216602483015260448201526044815261230d60648261134a565b51925af16123196121eb565b81612327575b501561001757565b805180159250821561233c575b50503861231f565b61234f925060208091830101910161136d565b3880612334565b6009810180549161271083029280840461271014901517156104845761238260058201938454906112df565b93600682019485541015612398575b5050505050565b6001600160a01b03169081600052600760205260406000205460018101809111610484577ff5d2d72d9b25d6853afd7d0554a113b705234b6a68bb36b7f143662994632411956060956124fe92856000526007602052604060002055846000526008602052604060002085600052600760205260406000205460005260205260046040600020946001600160a01b0380825416166001600160a01b03198754161786556001600160a01b036001820154166001600160a01b036001880191166001600160a01b03198254161790556001600160a01b036002820154166001600160a01b036002880191166001600160a01b03198254161790556001600160a01b036003820154166001600160a01b036003880191166001600160a01b031982541617905501546004850155846000526007602052604060002054600885015554908160058501555460068401556124f0855482611392565b948560078501555490611392565b6009820155600a429101556000526007602052604060002054906040519182526020820152426040820152a13880808080612391565b6001600160a01b037f9016d09d72d40fdae2fd8ceac6b6234c7706214fd39c1cd1e609a0528c1993005416330361256757565b7f118cdaa7000000000000000000000000000000000000000000000000000000006000523360045260246000fd5b90919392936001600160a01b03821615158061260e575b806125fc575b6125bb57505050565b6125c8816125ce936120e4565b926120e4565b90801515806125f3575b6125e0575050565b61218792935061146e90600054906112cc565b508115156125d8565b506001600160a01b03811615156125b2565b506001600160a01b03831615156125ac565b60ff7ff0c57e16840df040f15088dc2f81fe391c3923bec73e23a9662efc9c229c6a005460401c161561264f57565b7fd7e6bcf80000000000000000000000000000000000000000000000000000000060005260046000fdfea264697066735822122082c6fb013ad118644331101b4cc589387b240058bc1938cd8e321a0d50844f4b64736f6c634300081c0033",
  "linkReferences": {},
  "deployedLinkReferences": {}
}