{
  "_format": "hh-sol-artifact-1",
  "contractName": "Perpetual",
  "sourceName": "contracts/Perpetual.sol",
  "abi": [
    {
      "inputs": [],
      "name": "InvalidInitialization",
      "type": "error"
    },
    {
      "inputs": [],
      "name": "NotInitializing",
      "type": "error"
    },
    {
      "inputs": [
        {
          "internalType": "address",
          "name": "owner",
          "type": "address"
        }
      ],
      "name": "OwnableInvalidOwner",
      "type": "error"
    },
    {
      "inputs": [
        {
          "internalType": "address",
          "name": "account",
          "type": "address"
        }
      ],
      "name": "OwnableUnauthorizedAccount",
      "type": "error"
    },
    {
      "inputs": [],
      "name": "ReentrancyGuardReentrantCall",
      "type": "error"
    },
    {
      "anonymous": false,
      "inputs": [
        {
          "indexed": false,
          "internalType": "address",
          "name": "token",
          "type": "address"
        },
        {
          "indexed": false,
          "internalType": "address",
          "name": "holder",
          "type": "address"
        },
        {
          "indexed": false,
          "internalType": "string",
          "name": "name",
          "type": "string"
        },
        {
          "indexed": false,
          "internalType": "enum ICommon.Direct",
          "name": "direct",
          "type": "uint8"
        },
        {
          "indexed": false,
          "internalType": "uint256",
          "name": "value",
          "type": "uint256"
        },
        {
          "indexed": false,
          "internalType": "uint256",
          "name": "size",
          "type": "uint256"
        },
        {
          "indexed": false,
          "internalType": "uint256",
          "name": "margin",
          "type": "uint256"
        },
        {
          "indexed": false,
          "internalType": "uint256",
          "name": "freeze",
          "type": "uint256"
        }
      ],
      "name": "AccountPosition",
      "type": "event"
    },
    {
      "anonymous": false,
      "inputs": [
        {
          "indexed": false,
          "internalType": "address",
          "name": "taker",
          "type": "address"
        },
        {
          "indexed": false,
          "internalType": "uint256",
          "name": "amount",
          "type": "uint256"
        },
        {
          "indexed": false,
          "internalType": "uint256",
          "name": "availableAmount",
          "type": "uint256"
        },
        {
          "indexed": false,
          "internalType": "uint256",
          "name": "marginAmount",
          "type": "uint256"
        },
        {
          "indexed": false,
          "internalType": "uint256",
          "name": "locked",
          "type": "uint256"
        },
        {
          "indexed": false,
          "internalType": "uint256",
          "name": "stage",
          "type": "uint256"
        },
        {
          "indexed": false,
          "internalType": "uint256",
          "name": "dif",
          "type": "uint256"
        }
      ],
      "name": "BalanceOfTaker",
      "type": "event"
    },
    {
      "anonymous": false,
      "inputs": [
        {
          "indexed": false,
          "internalType": "string",
          "name": "name",
          "type": "string"
        },
        {
          "indexed": true,
          "internalType": "address",
          "name": "taker",
          "type": "address"
        },
        {
          "indexed": true,
          "internalType": "address",
          "name": "token",
          "type": "address"
        },
        {
          "indexed": false,
          "internalType": "uint256",
          "name": "orderID",
          "type": "uint256"
        },
        {
          "indexed": false,
          "internalType": "enum ICommon.Direct",
          "name": "orderType",
          "type": "uint8"
        },
        {
          "indexed": false,
          "internalType": "enum IPerpetual.OrderState",
          "name": "state",
          "type": "uint8"
        },
        {
          "indexed": false,
          "internalType": "enum ICommon.Offset",
          "name": "offset",
          "type": "uint8"
        },
        {
          "indexed": false,
          "internalType": "uint256",
          "name": "amount",
          "type": "uint256"
        },
        {
          "indexed": false,
          "internalType": "uint256",
          "name": "targetPrice",
          "type": "uint256"
        },
        {
          "indexed": false,
          "internalType": "uint256",
          "name": "margin",
          "type": "uint256"
        },
        {
          "indexed": false,
          "internalType": "uint256",
          "name": "rewardGas",
          "type": "uint256"
        },
        {
          "indexed": false,
          "internalType": "uint256",
          "name": "tradingFee",
          "type": "uint256"
        },
        {
          "indexed": false,
          "internalType": "uint256",
          "name": "startTime",
          "type": "uint256"
        },
        {
          "indexed": false,
          "internalType": "uint256",
          "name": "goodTill",
          "type": "uint256"
        }
      ],
      "name": "CreateLimitedOrder",
      "type": "event"
    },
    {
      "anonymous": false,
      "inputs": [
        {
          "indexed": false,
          "internalType": "uint256",
          "name": "limitOrderID",
          "type": "uint256"
        },
        {
          "indexed": false,
          "internalType": "uint256",
          "name": "openLimitPrice",
          "type": "uint256"
        },
        {
          "indexed": false,
          "internalType": "uint256",
          "name": "gainTriggerPrice",
          "type": "uint256"
        },
        {
          "indexed": false,
          "internalType": "uint256",
          "name": "gainLimitPrice",
          "type": "uint256"
        },
        {
          "indexed": false,
          "internalType": "uint256",
          "name": "lossTriggerPrice",
          "type": "uint256"
        },
        {
          "indexed": false,
          "internalType": "uint256",
          "name": "lossLimitPrice",
          "type": "uint256"
        }
      ],
      "name": "CreateTriggerCondition",
      "type": "event"
    },
    {
      "anonymous": false,
      "inputs": [
        {
          "indexed": false,
          "internalType": "uint256",
          "name": "code",
          "type": "uint256"
        },
        {
          "indexed": false,
          "internalType": "uint256",
          "name": "orderID",
          "type": "uint256"
        },
        {
          "indexed": false,
          "internalType": "string",
          "name": "message",
          "type": "string"
        }
      ],
      "name": "ErrorInfo",
      "type": "event"
    },
    {
      "anonymous": false,
      "inputs": [
        {
          "indexed": false,
          "internalType": "uint256",
          "name": "code",
          "type": "uint256"
        },
        {
          "indexed": false,
          "internalType": "uint256",
          "name": "orderID",
          "type": "uint256"
        },
        {
          "indexed": false,
          "internalType": "bytes",
          "name": "message",
          "type": "bytes"
        }
      ],
      "name": "ExceptErrorInfo",
      "type": "event"
    },
    {
      "anonymous": false,
      "inputs": [
        {
          "indexed": false,
          "internalType": "uint64",
          "name": "version",
          "type": "uint64"
        }
      ],
      "name": "Initialized",
      "type": "event"
    },
    {
      "anonymous": false,
      "inputs": [
        {
          "indexed": false,
          "internalType": "string",
          "name": "name",
          "type": "string"
        },
        {
          "indexed": true,
          "internalType": "address",
          "name": "taker",
          "type": "address"
        },
        {
          "indexed": true,
          "internalType": "address",
          "name": "token",
          "type": "address"
        },
        {
          "indexed": false,
          "internalType": "uint256",
          "name": "orderID",
          "type": "uint256"
        },
        {
          "indexed": false,
          "internalType": "enum ICommon.Direct",
          "name": "orderType",
          "type": "uint8"
        },
        {
          "indexed": false,
          "internalType": "enum IPerpetual.OrderState",
          "name": "state",
          "type": "uint8"
        },
        {
          "indexed": false,
          "internalType": "enum ICommon.Offset",
          "name": "offset",
          "type": "uint8"
        },
        {
          "indexed": false,
          "internalType": "uint256",
          "name": "amount",
          "type": "uint256"
        },
        {
          "indexed": false,
          "internalType": "uint256",
          "name": "targetPrice",
          "type": "uint256"
        },
        {
          "indexed": false,
          "internalType": "uint256",
          "name": "margin",
          "type": "uint256"
        },
        {
          "indexed": false,
          "internalType": "uint256",
          "name": "rewardGas",
          "type": "uint256"
        },
        {
          "indexed": false,
          "internalType": "uint256",
          "name": "tradingFee",
          "type": "uint256"
        },
        {
          "indexed": false,
          "internalType": "uint256",
          "name": "startTime",
          "type": "uint256"
        },
        {
          "indexed": false,
          "internalType": "uint256",
          "name": "goodTill",
          "type": "uint256"
        }
      ],
      "name": "LimitedOrderHistory",
      "type": "event"
    },
    {
      "anonymous": false,
      "inputs": [
        {
          "indexed": true,
          "internalType": "address",
          "name": "taker",
          "type": "address"
        },
        {
          "indexed": false,
          "internalType": "string",
          "name": "name",
          "type": "string"
        },
        {
          "indexed": false,
          "internalType": "address",
          "name": "token",
          "type": "address"
        },
        {
          "indexed": false,
          "internalType": "uint256",
          "name": "orderID",
          "type": "uint256"
        },
        {
          "indexed": false,
          "internalType": "enum ICommon.Direct",
          "name": "direction",
          "type": "uint8"
        },
        {
          "indexed": false,
          "internalType": "enum IPerpetual.OrderType",
          "name": "orderType",
          "type": "uint8"
        },
        {
          "indexed": false,
          "internalType": "uint256",
          "name": "amount",
          "type": "uint256"
        },
        {
          "indexed": false,
          "internalType": "uint256",
          "name": "costPrice",
          "type": "uint256"
        },
        {
          "indexed": false,
          "internalType": "uint256",
          "name": "price",
          "type": "uint256"
        },
        {
          "indexed": false,
          "internalType": "uint256",
          "name": "tradingFee",
          "type": "uint256"
        },
        {
          "indexed": false,
          "internalType": "uint256",
          "name": "limitOrderId",
          "type": "uint256"
        },
        {
          "indexed": false,
          "internalType": "uint256",
          "name": "timestamp",
          "type": "uint256"
        }
      ],
      "name": "OrderHistory",
      "type": "event"
    },
    {
      "anonymous": false,
      "inputs": [
        {
          "indexed": true,
          "internalType": "address",
          "name": "previousOwner",
          "type": "address"
        },
        {
          "indexed": true,
          "internalType": "address",
          "name": "newOwner",
          "type": "address"
        }
      ],
      "name": "OwnershipTransferred",
      "type": "event"
    },
    {
      "anonymous": false,
      "inputs": [
        {
          "indexed": false,
          "internalType": "address",
          "name": "token",
          "type": "address"
        },
        {
          "indexed": false,
          "internalType": "uint256",
          "name": "orderID",
          "type": "uint256"
        },
        {
          "indexed": false,
          "internalType": "uint256",
          "name": "dealID",
          "type": "uint256"
        },
        {
          "indexed": false,
          "internalType": "enum IPerpetual.TradeType",
          "name": "tradeType",
          "type": "uint8"
        },
        {
          "indexed": false,
          "internalType": "uint256",
          "name": "amount",
          "type": "uint256"
        },
        {
          "indexed": false,
          "internalType": "uint256",
          "name": "price",
          "type": "uint256"
        },
        {
          "indexed": false,
          "internalType": "uint256",
          "name": "tradingFee",
          "type": "uint256"
        },
        {
          "indexed": false,
          "internalType": "uint256",
          "name": "profit",
          "type": "uint256"
        },
        {
          "indexed": false,
          "internalType": "uint256",
          "name": "loss",
          "type": "uint256"
        },
        {
          "indexed": false,
          "internalType": "uint256",
          "name": "timestamp",
          "type": "uint256"
        }
      ],
      "name": "TradeHistory",
      "type": "event"
    },
    {
      "anonymous": false,
      "inputs": [
        {
          "indexed": true,
          "internalType": "address",
          "name": "token",
          "type": "address"
        },
        {
          "indexed": true,
          "internalType": "address",
          "name": "sender",
          "type": "address"
        },
        {
          "indexed": true,
          "internalType": "address",
          "name": "received",
          "type": "address"
        },
        {
          "indexed": false,
          "internalType": "enum ICommon.TransactionType",
          "name": "transactionType",
          "type": "uint8"
        },
        {
          "indexed": false,
          "internalType": "uint256",
          "name": "amount",
          "type": "uint256"
        },
        {
          "indexed": false,
          "internalType": "uint256",
          "name": "timestamp",
          "type": "uint256"
        }
      ],
      "name": "TransactionHistory",
      "type": "event"
    },
    {
      "anonymous": false,
      "inputs": [
        {
          "indexed": false,
          "internalType": "address",
          "name": "sender",
          "type": "address"
        },
        {
          "indexed": false,
          "internalType": "string",
          "name": "name",
          "type": "string"
        },
        {
          "indexed": false,
          "internalType": "uint256",
          "name": "beforeLeverage",
          "type": "uint256"
        },
        {
          "indexed": false,
          "internalType": "uint256",
          "name": "afterLeverage",
          "type": "uint256"
        }
      ],
      "name": "setLeverage",
      "type": "event"
    },
    {
      "stateMutability": "nonpayable",
      "type": "fallback"
    },
    {
      "inputs": [],
      "name": "buybackAddr",
      "outputs": [
        {
          "internalType": "address",
          "name": "",
          "type": "address"
        }
      ],
      "stateMutability": "view",
      "type": "function"
    },
    {
      "inputs": [
        {
          "internalType": "uint256[]",
          "name": "_orderIDs",
          "type": "uint256[]"
        }
      ],
      "name": "cancelOrders",
      "outputs": [],
      "stateMutability": "nonpayable",
      "type": "function"
    },
    {
      "inputs": [
        {
          "internalType": "string",
          "name": "_name",
          "type": "string"
        },
        {
          "internalType": "uint256",
          "name": "_amount",
          "type": "uint256"
        },
        {
          "internalType": "uint256",
          "name": "_orderType",
          "type": "uint256"
        },
        {
          "internalType": "uint256",
          "name": "_price",
          "type": "uint256"
        },
        {
          "internalType": "enum ICommon.Direct",
          "name": "_type",
          "type": "uint8"
        },
        {
          "internalType": "uint256",
          "name": "_goodTill",
          "type": "uint256"
        },
        {
          "internalType": "uint256",
          "name": "_deadline",
          "type": "uint256"
        },
        {
          "internalType": "bytes",
          "name": "_priceUpdate",
          "type": "bytes"
        }
      ],
      "name": "closePosition",
      "outputs": [],
      "stateMutability": "payable",
      "type": "function"
    },
    {
      "inputs": [
        {
          "internalType": "uint256",
          "name": "_amount",
          "type": "uint256"
        }
      ],
      "name": "deposit",
      "outputs": [],
      "stateMutability": "nonpayable",
      "type": "function"
    },
    {
      "inputs": [
        {
          "internalType": "address",
          "name": "_takerAddress",
          "type": "address"
        },
        {
          "internalType": "uint256",
          "name": "_stage",
          "type": "uint256"
        }
      ],
      "name": "emitTakerBalance",
      "outputs": [],
      "stateMutability": "nonpayable",
      "type": "function"
    },
    {
      "inputs": [],
      "name": "fiatTokenAddr",
      "outputs": [
        {
          "internalType": "address",
          "name": "",
          "type": "address"
        }
      ],
      "stateMutability": "view",
      "type": "function"
    },
    {
      "inputs": [],
      "name": "getTradingPairs",
      "outputs": [
        {
          "internalType": "string[]",
          "name": "",
          "type": "string[]"
        }
      ],
      "stateMutability": "view",
      "type": "function"
    },
    {
      "inputs": [
        {
          "internalType": "string",
          "name": "_name",
          "type": "string"
        }
      ],
      "name": "getUnderlying",
      "outputs": [
        {
          "internalType": "contract Underlying",
          "name": "",
          "type": "address"
        }
      ],
      "stateMutability": "view",
      "type": "function"
    },
    {
      "inputs": [
        {
          "internalType": "address",
          "name": "_taker",
          "type": "address"
        }
      ],
      "name": "getUserAccount",
      "outputs": [
        {
          "components": [
            {
              "internalType": "uint256",
              "name": "depositAmount",
              "type": "uint256"
            },
            {
              "internalType": "uint256",
              "name": "availableAmount",
              "type": "uint256"
            },
            {
              "internalType": "uint256",
              "name": "marginAmount",
              "type": "uint256"
            },
            {
              "internalType": "uint256",
              "name": "orderLocked",
              "type": "uint256"
            },
            {
              "internalType": "uint256",
              "name": "lastTime",
              "type": "uint256"
            }
          ],
          "internalType": "struct IPerpetual.AccountInfo",
          "name": "user",
          "type": "tuple"
        }
      ],
      "stateMutability": "view",
      "type": "function"
    },
    {
      "inputs": [],
      "name": "getUserAddress",
      "outputs": [
        {
          "internalType": "address[]",
          "name": "",
          "type": "address[]"
        }
      ],
      "stateMutability": "view",
      "type": "function"
    },
    {
      "inputs": [
        {
          "internalType": "address",
          "name": "_user",
          "type": "address"
        },
        {
          "internalType": "string",
          "name": "_name",
          "type": "string"
        }
      ],
      "name": "getUserLeverage",
      "outputs": [
        {
          "internalType": "uint256",
          "name": "",
          "type": "uint256"
        }
      ],
      "stateMutability": "view",
      "type": "function"
    },
    {
      "inputs": [
        {
          "internalType": "address",
          "name": "initialOwner",
          "type": "address"
        },
        {
          "internalType": "address",
          "name": "_priPool",
          "type": "address"
        },
        {
          "internalType": "address",
          "name": "_riskFundAddr",
          "type": "address"
        },
        {
          "internalType": "address",
          "name": "_fiatTokenAddr",
          "type": "address"
        },
        {
          "internalType": "address",
          "name": "_tradeFeeAddr",
          "type": "address"
        },
        {
          "internalType": "address",
          "name": "_platformTradeFeeAddr",
          "type": "address"
        }
      ],
      "name": "initialize",
      "outputs": [],
      "stateMutability": "nonpayable",
      "type": "function"
    },
    {
      "inputs": [
        {
          "internalType": "uint256[]",
          "name": "_dealIDs",
          "type": "uint256[]"
        },
        {
          "internalType": "string[]",
          "name": "_symbols",
          "type": "string[]"
        },
        {
          "internalType": "bytes[]",
          "name": "_priceUpdate",
          "type": "bytes[]"
        }
      ],
      "name": "liquidateMakerDeals",
      "outputs": [],
      "stateMutability": "payable",
      "type": "function"
    },
    {
      "inputs": [
        {
          "internalType": "address[]",
          "name": "_taker",
          "type": "address[]"
        },
        {
          "internalType": "string[]",
          "name": "_symbols",
          "type": "string[]"
        },
        {
          "internalType": "bytes[]",
          "name": "_priceUpdate",
          "type": "bytes[]"
        }
      ],
      "name": "liquidateTaker",
      "outputs": [],
      "stateMutability": "payable",
      "type": "function"
    },
    {
      "inputs": [],
      "name": "maintenanceMarginRate",
      "outputs": [
        {
          "internalType": "uint256",
          "name": "",
          "type": "uint256"
        }
      ],
      "stateMutability": "view",
      "type": "function"
    },
    {
      "inputs": [],
      "name": "owner",
      "outputs": [
        {
          "internalType": "address",
          "name": "",
          "type": "address"
        }
      ],
      "stateMutability": "view",
      "type": "function"
    },
    {
      "inputs": [],
      "name": "platformTradeFeeAddr",
      "outputs": [
        {
          "internalType": "address",
          "name": "",
          "type": "address"
        }
      ],
      "stateMutability": "view",
      "type": "function"
    },
    {
      "inputs": [],
      "name": "renounceOwnership",
      "outputs": [],
      "stateMutability": "nonpayable",
      "type": "function"
    },
    {
      "inputs": [],
      "name": "riskFundAddr",
      "outputs": [
        {
          "internalType": "address",
          "name": "",
          "type": "address"
        }
      ],
      "stateMutability": "view",
      "type": "function"
    },
    {
      "inputs": [
        {
          "internalType": "address",
          "name": "_buyBack",
          "type": "address"
        },
        {
          "internalType": "address",
          "name": "_orderBook",
          "type": "address"
        },
        {
          "internalType": "address",
          "name": "_tradeAgent",
          "type": "address"
        },
        {
          "internalType": "address",
          "name": "_tradeStation",
          "type": "address"
        },
        {
          "internalType": "address",
          "name": "_marketAgent",
          "type": "address"
        },
        {
          "internalType": "address",
          "name": "_keeper1",
          "type": "address"
        }
      ],
      "name": "setKeepers",
      "outputs": [],
      "stateMutability": "nonpayable",
      "type": "function"
    },
    {
      "inputs": [
        {
          "internalType": "address",
          "name": "_platform",
          "type": "address"
        },
        {
          "internalType": "address",
          "name": "_tradeFee",
          "type": "address"
        },
        {
          "internalType": "bool",
          "name": "_mergeRemainingFeeToBuyBack",
          "type": "bool"
        }
      ],
      "name": "setTradeFeeAddr",
      "outputs": [],
      "stateMutability": "nonpayable",
      "type": "function"
    },
    {
      "inputs": [
        {
          "internalType": "string",
          "name": "_name",
          "type": "string"
        },
        {
          "internalType": "address",
          "name": "_underlying",
          "type": "address"
        }
      ],
      "name": "setUnderlying",
      "outputs": [],
      "stateMutability": "nonpayable",
      "type": "function"
    },
    {
      "inputs": [
        {
          "internalType": "string",
          "name": "_name",
          "type": "string"
        },
        {
          "internalType": "uint256",
          "name": "_leverage",
          "type": "uint256"
        }
      ],
      "name": "setUserLeverage",
      "outputs": [],
      "stateMutability": "nonpayable",
      "type": "function"
    },
    {
      "inputs": [
        {
          "internalType": "address",
          "name": "takerAddr",
          "type": "address"
        },
        {
          "internalType": "uint256",
          "name": "tradingFee",
          "type": "uint256"
        }
      ],
      "name": "splitTradeFee",
      "outputs": [],
      "stateMutability": "nonpayable",
      "type": "function"
    },
    {
      "inputs": [
        {
          "internalType": "string",
          "name": "_name",
          "type": "string"
        },
        {
          "internalType": "uint256",
          "name": "_amount",
          "type": "uint256"
        },
        {
          "internalType": "enum ICommon.Direct",
          "name": "_type",
          "type": "uint8"
        },
        {
          "internalType": "enum ICommon.Offset",
          "name": "_offset",
          "type": "uint8"
        },
        {
          "internalType": "uint256",
          "name": "_param1",
          "type": "uint256"
        },
        {
          "internalType": "uint256",
          "name": "_param2",
          "type": "uint256"
        },
        {
          "internalType": "uint256",
          "name": "_param3",
          "type": "uint256"
        },
        {
          "internalType": "uint256",
          "name": "_param4",
          "type": "uint256"
        },
        {
          "internalType": "uint256",
          "name": "_goodTill",
          "type": "uint256"
        },
        {
          "internalType": "uint256",
          "name": "_deadline",
          "type": "uint256"
        }
      ],
      "name": "stopTakeOrder",
      "outputs": [],
      "stateMutability": "payable",
      "type": "function"
    },
    {
      "inputs": [],
      "name": "tradeFeeAddr",
      "outputs": [
        {
          "internalType": "address",
          "name": "",
          "type": "address"
        }
      ],
      "stateMutability": "view",
      "type": "function"
    },
    {
      "inputs": [
        {
          "internalType": "string",
          "name": "_name",
          "type": "string"
        },
        {
          "internalType": "uint256",
          "name": "_amount",
          "type": "uint256"
        },
        {
          "internalType": "uint256",
          "name": "_price",
          "type": "uint256"
        },
        {
          "internalType": "uint256",
          "name": "_orderType",
          "type": "uint256"
        },
        {
          "internalType": "enum ICommon.Direct",
          "name": "_type",
          "type": "uint8"
        },
        {
          "internalType": "address",
          "name": "_inviter",
          "type": "address"
        },
        {
          "internalType": "uint256",
          "name": "_goodTill",
          "type": "uint256"
        },
        {
          "internalType": "uint256",
          "name": "_deadline",
          "type": "uint256"
        },
        {
          "internalType": "bytes",
          "name": "_priceUpdate",
          "type": "bytes"
        }
      ],
      "name": "tradeFutures",
      "outputs": [],
      "stateMutability": "payable",
      "type": "function"
    },
    {
      "inputs": [
        {
          "internalType": "address",
          "name": "newOwner",
          "type": "address"
        }
      ],
      "name": "transferOwnership",
      "outputs": [],
      "stateMutability": "nonpayable",
      "type": "function"
    },
    {
      "inputs": [
        {
          "internalType": "uint256[]",
          "name": "_orderIDs",
          "type": "uint256[]"
        },
        {
          "internalType": "string[]",
          "name": "_symbols",
          "type": "string[]"
        },
        {
          "internalType": "bytes[]",
          "name": "_priceUpdate",
          "type": "bytes[]"
        }
      ],
      "name": "triggerOrders",
      "outputs": [],
      "stateMutability": "payable",
      "type": "function"
    },
    {
      "inputs": [
        {
          "internalType": "address",
          "name": "_taker",
          "type": "address"
        },
        {
          "components": [
            {
              "internalType": "uint256",
              "name": "depositAmount",
              "type": "uint256"
            },
            {
              "internalType": "uint256",
              "name": "availableAmount",
              "type": "uint256"
            },
            {
              "internalType": "uint256",
              "name": "marginAmount",
              "type": "uint256"
            },
            {
              "internalType": "uint256",
              "name": "orderLocked",
              "type": "uint256"
            },
            {
              "internalType": "uint256",
              "name": "lastTime",
              "type": "uint256"
            }
          ],
          "internalType": "struct IPerpetual.AccountInfo",
          "name": "userInfo",
          "type": "tuple"
        }
      ],
      "name": "updateUserAsset",
      "outputs": [],
      "stateMutability": "nonpayable",
      "type": "function"
    },
    {
      "inputs": [
        {
          "internalType": "uint256",
          "name": "_amount",
          "type": "uint256"
        },
        {
          "internalType": "string[]",
          "name": "_symbols",
          "type": "string[]"
        },
        {
          "internalType": "bytes[]",
          "name": "_priceUpdate",
          "type": "bytes[]"
        }
      ],
      "name": "withdraw",
      "outputs": [],
      "stateMutability": "payable",
      "type": "function"
    }
  ],
  "bytecode": "0x60808060405234601557613eb7908161001b8239f35b600080fdfe6080604052600436101561001a575b3461001557005b600080fd5b6000803560e01c806305ca57cf146120235780630c41899814611ffc5780632ca4305114611fd55780632f1cc4d014611d275780633851969e14611c7057806338a1398614611b0a578063402d712c14611a98578063708b8d8614611802578063715018a61461176957806389f00b6d1461174b5780638da5cb5b146117055780639048f2e01461162c5780639c59b33a1461156e578063a40cb4ca14611364578063a70dc3fe1461133d578063b55fb57414611261578063b6b55f25146110c0578063c8f5ede214610db8578063c9f35c3914610cee578063cc2a9a5b146108b2578063cd2ce4ae14610795578063d1937e3d14610757578063d895797814610676578063e08061b31461064f578063e1fb28b8146105d0578063e59786861461044d578063ebc3eee814610385578063f2fde38b14610358578063f348285b14610331578063f74c3049146102345763fb47e0161461017b575061000e565b3461023157602060031936011261023157604060a0916001600160a01b036101a16122d4565b82608085516101af8161208a565b82815282602082015282878201528260608201520152168152600a602052206040516101da8161208a565b81549182825260018101546020830190815260028201549060408401918252608060046003850154946060870195865201549401938452604051948552516020850152516040840152516060830152516080820152f35b80fd5b5034610231576001600160a01b038080808080610250366122ea565b999461026198939492969198613804565b166001600160a01b0319601054161760105516806001600160a01b031960055416176005558952600960205260408920600160ff1982541617905516806001600160a01b031960065416176006558752600960205260408720600160ff1982541617905516806001600160a01b031960085416176008558552600960205260408520600160ff1982541617905516806001600160a01b031960075416176007558352600960205260408320600160ff19825416179055168152600960205260408120600160ff1982541617905580f35b503461023157806003193601126102315760206001600160a01b0360115416604051908152f35b5034610231576020600319360112610231576103826103756122d4565b61037d613804565b6131f8565b80f35b5034610231578060031936011261023157604051806020600e5491828152018091600e85527fbb7b4a454dc3493923482f07822329ed19e8244eff582cc204f8554c3620c3fd90855b81811061042e57505050826103e49103836120a6565b604051928392602084019060208552518091526040840192915b81811061040c575050500390f35b82516001600160a01b03168452859450602093840193909201916001016103fe565b82546001600160a01b03168452602090930192600192830192016103ce565b506101006003193601126102315760043567ffffffffffffffff81116105cc5761047b9036906004016120e5565b8160443591606435906084359160038310156105c85760e43567ffffffffffffffff81116105c4576104b19036906004016120e5565b906104ba6134cc565b6104c84260c43510156124a5565b348187610599575050506104dc9082613c3c565b9183905b6001600160a01b036008541691823b1561059557859461053a82604051998a97889687957f274889e1000000000000000000000000000000000000000000000000000000008752339360a435936024359060048a016128c9565b03925af1801561058857610570575b60017f9b779b17422d0df92223018b32b4d1fa46e071723d6817e2486d003becc55f005580f35b610579916120a6565b80600012610231573881610549565b50604051903d90823e3d90fd5b8580fd5b6105bf9193506105b86105ae86979497613764565b905034101561253b565b151561287e565b6104e0565b8480fd5b8380fd5b5080fd5b5034610231576040600319360112610231576105ea6122d4565b60243567ffffffffffffffff811161064b5760406020936001600160a01b0361061a6106299436906004016120e5565b94168152600c85522082612411565b5490811561063b575b50604051908152f35b610645915061341f565b38610632565b8280fd5b503461023157806003193601126102315760206001600160a01b0360125416604051908152f35b5060606003193601126102315760043567ffffffffffffffff81116105cc57366023820112156105cc5780600401356106ae8161212a565b916106bc60405193846120a6565b8183526024602084019260051b820101903682116105c457602401915b8183106107375750505060243567ffffffffffffffff811161064b5761070390369060040161219f565b6044359167ffffffffffffffff83116105c85761072761054993369060040161221e565b9290916107326134cc565b612c6b565b82356001600160a01b0381168103610015578152602092830192016106d9565b5034610231576040600319360112610231576103826107746122d4565b338352600960205261078c60ff6040852054166125a6565b60243590612950565b5034610231578060031936011261023157600d546107b28161212a565b906107c060405192836120a6565b808252600d83527fd7b6990105719101dabeb77144f2a3385c8033acd3af97e9423a695e81ad1eb59280602084015b838310610810576040516020808252819061080c908201886123b8565b0390f35b60405182875461081f816125f1565b808452906001811690811561088f5750600114610859575b506001928261084b859460209403826120a6565b8152019601920191946107ef565b888552602085208592505b81831061087957505081016020016001610837565b6001816020925483868801015201920191610864565b60ff191660208581019190915291151560051b8401909101915060019050610837565b5034610231576108c1366122ea565b9195939492907ff0c57e16840df040f15088dc2f81fe391c3923bec73e23a9662efc9c229c6a00549560ff8760401c16159667ffffffffffffffff811680159081610ce6575b6001149081610cdc575b159081610cd3575b50610cab576001600160a01b0394939192858094838b60017fffffffffffffffffffffffffffffffffffffffffffffffff0000000000000000859716177ff0c57e16840df040f15088dc2f81fe391c3923bec73e23a9662efc9c229c6a0055610c56575b50610986613e28565b61098e613e28565b610997336131f8565b61099f613e28565b6109a7613e28565b60017f9b779b17422d0df92223018b32b4d1fa46e071723d6817e2486d003becc55f00556109d3613804565b6109dc896131f8565b16806001600160a01b031960045416176004558852600960205260408820600160ff19825416179055166001600160a01b03196012541617601255166001600160a01b031960115416176011558186166001600160a01b0319600f541617600f55166001600160a01b0319601354161760135581806001600160a01b036004541695604096827fffffffff00000000000000000000000000000000000000000000000000000000601860208b51610a938d826120a6565b828152017f617070726f766528616464726573732c75696e743235362900000000000000008152201691895190602082019384526024820152600019604482015260448152610ae36064826120a6565b51925af1610aef613865565b81610c1f575b50156105cc576001600160a01b03903083526009602052848320600160ff198254161790551681526009602052828120600160ff19825416179055670de0b6b3a7640000815566038d7ea4c6800060015567016345785d8a0000600255506702c68af0bb1400006003557fffffffffffffffffffffff00ffffffffffffffffffffffffffffffffffffffff60085416600855610b8d57005b60207fc7f505b2f371ae2175ee4913f4499e1f2633a7b5936321eed1cdaeb6115181d2917fffffffffffffffffffffffffffffffffffffffffffffff00ffffffffffffffff7ff0c57e16840df040f15088dc2f81fe391c3923bec73e23a9662efc9c229c6a0054167ff0c57e16840df040f15088dc2f81fe391c3923bec73e23a9662efc9c229c6a00555160018152a1005b8051801592508215610c34575b505038610af5565b819250906020918101031261064b576020610c4f91016127dd565b3880610c2c565b7fffffffffffffffffffffffffffffffffffffffffffffff0000000000000000001668010000000000000001177ff0c57e16840df040f15088dc2f81fe391c3923bec73e23a9662efc9c229c6a00553861097d565b6004877ff92ee8a9000000000000000000000000000000000000000000000000000000008152fd5b90501538610919565b303b159150610911565b899150610907565b50346102315760c060031936011261023157610d086122d4565b60a07fffffffffffffffffffffffffffffffffffffffffffffffffffffffffffffffdc3601126105cc57600460405191610d418361208a565b6024358352602083016044358152604084016064358152606085019160843583526001600160a01b03608087019460a43586523389526009602052610d8c60ff60408b2054166125a6565b428652168752600a60205260408720955186555160018601555160028501555160038401555191015580f35b50610120600319360112610231578060043567ffffffffffffffff81116110bd57610de79036906004016120e5565b60243560843560443560643560038310156105955760a435916001600160a01b0383168093036110b9576101043567ffffffffffffffff8111610f4a57610e329036906004016120e5565b90610e3b6134cc565b610e494260e43510156124a5565b80936001600160a01b036007541690811515806110b0575b8061100d575b610f6c575b5050610e863491610e7c89613764565b92908910156124f0565b84610f4e57505050610e9a91925085613c3c565b90855b6001600160a01b036008541692833b15610f4a57610ef3828997604051998a98899788967fdcac2e88000000000000000000000000000000000000000000000000000000008852339460c4359460048a016128c9565b03925af18015610f3f57610f2a575b5060017f9b779b17422d0df92223018b32b4d1fa46e071723d6817e2486d003becc55f005580f35b81610f34916120a6565b610231578038610f02565b6040513d84823e3d90fd5b8780fd5b610f67929350610f5f90151561287e565b34101561253b565b610e9d565b60809060846001600160a01b03600f54168c60405195869485937ff1a78eff000000000000000000000000000000000000000000000000000000008552600485015260248401523360448401528160648401525af1801561100257610fd2575b80610e6c565b610ff39060803d608011610ffb575b610feb81836120a6565b81019061284e565b505050610fcc565b503d610fe1565b6040513d8b823e3d90fd5b506040517f147df887000000000000000000000000000000000000000000000000000000008152336004820152602081602481865afa80156110a5578b90611061575b6001600160a01b0391501615610e67565b506020813d60201161109d575b8161107b602093836120a6565b81010312611099576110946001600160a01b039161283a565b611050565b8a80fd5b3d915061106e565b6040513d8d823e3d90fd5b50801515610e61565b8680fd5b50fd5b503461023157602060031936011261023157600435600154811061121d57611112906111046110ee30613a2a565b916001600160a01b03600f541630903390613ad0565b61110d30613a2a565b61264e565b338252600a6020526004604083206111293361265b565b61113483825461262b565b81556001810161114584825461262b565b9055018054156111a5575b5061115a3361271c565b600f546040519160018352602083015242604083015230917feb42cf637f927243245c50b4bf7fe105fe4f4d26209102240f2ba3d8e27a7df860606001600160a01b0333941692a480f35b429055600e54680100000000000000008110156112095760018101600e55600e548110156111f557600e8352602083200180548360031b906001600160a01b0333831b921b191617905538611150565b602483634e487b7160e01b81526032600452fd5b602483634e487b7160e01b81526041600452fd5b606460405162461bcd60e51b815260206004820152601860248201527f6465706f73697420616d6f756e7420746f6f20736d616c6c00000000000000006044820152fd5b50346102315760206003193601126102315760043567ffffffffffffffff81116105cc57611293903690600401612142565b81805b8251811015611339576001600160a01b03600654166112b58285612810565b51813b156105c85783916064839260405194859384927fc2b3356400000000000000000000000000000000000000000000000000000000845260048401523360248401528160448401525af190811561132e578391611319575b5050600101611296565b81611323916120a6565b6105cc57813861130f565b6040513d85823e3d90fd5b5080f35b503461023157806003193601126102315760206001600160a01b0360135416604051908152f35b5060606003193601126102315760043560243567ffffffffffffffff811161064b5761139490369060040161219f565b60443567ffffffffffffffff81116105c8576114166113b9604092369060040161221e565b929093338752600a602052818720946113e088956001600160a01b03600654169284613545565b9183518095819482937f9aa59c6500000000000000000000000000000000000000000000000000000000845233600485016127ea565b03915afa9081156115635785908692611522575b501561151a575b5061143b3361265b565b600182019161144c8354928561262b565b82106114d65761146a91816114638680945461264e565b905561264e565b905561148281336001600160a01b03600f5416613895565b61148b3361271c565b600f546040519160028352602083015242604083015233917feb42cf637f927243245c50b4bf7fe105fe4f4d26209102240f2ba3d8e27a7df860606001600160a01b0330941692a480f35b606460405162461bcd60e51b815260206004820152601960248201527f776974686472657720616d6f756e7420746f6f206c61726765000000000000006044820152fd5b905038611431565b9150506040813d60401161155b575b8161153e604093836120a6565b810103126105c4576020611551826127dd565b910151903861142a565b3d9150611531565b6040513d87823e3d90fd5b5034610231576060600319360112610231576115886122d4565b6115906122be565b604435918215158093036105c8576001600160a01b03809233865260096020526115c060ff6040882054166125a6565b166001600160a01b03196012541617601255166001600160a01b031960135416176013557fffffffffffffffffffffff00ffffffffffffffffffffffffffffffffffffffff74ff00000000000000000000000000000000000000006008549260a01b1691161760085580f35b5034610231576040600319360112610231577f978f5a06b7f22ed0a8d1bfc4c6d9d44b320a6f206eb9dde65c1de4dc27f48cc060e06001600160a01b036116716122d4565b16808452600a6020526040842060018101546002820154611692818361262b565b916116a26003850154809461262b565b935493808511156116e4576116b7908561264e565b935b604051958652602086015260408501526060840152608083015260243560a083015260c0820152a180f35b84818110156116fc576116f69161264e565b936116b9565b505087936116b9565b503461023157806003193601126102315760206001600160a01b037f9016d09d72d40fdae2fd8ceac6b6234c7706214fd39c1cd1e609a0528c1993005416604051908152f35b50346102315780600319360112610231576020600254604051908152f35b5034610231578060031936011261023157611782613804565b806001600160a01b037f9016d09d72d40fdae2fd8ceac6b6234c7706214fd39c1cd1e609a0528c199300546001600160a01b031981167f9016d09d72d40fdae2fd8ceac6b6234c7706214fd39c1cd1e609a0528c19930055167f8be0079c531659141344cd1fd0a4f28419497f9722a3daafe3b4186f6b6457e08280a380f35b50346102315760406003193601126102315760043567ffffffffffffffff81116105cc576118349036906004016120e5565b61183c6122be565b90338352600960205261185560ff6040852054166125a6565b604051906001600160a01b0381519260208181850195611876818389612370565b8101600b8152030190205416156118c6575b60206001600160a01b03926118a892604051938492839251928391612370565b8101600b81520301902091166001600160a01b031982541617905580f35b600d5468010000000000000000811015611a845760018101600d55600d54811015611a7057600d85527fd7b6990105719101dabeb77144f2a3385c8033acd3af97e9423a695e81ad1eb50184611a5d57815167ffffffffffffffff8111611a475761193182546125f1565b601f81116119ff575b506020601f821160011461198b5792602092826001600160a01b0396936118a896600091611980575b506000198260011b9260031b1c19161790555b9250925050611888565b905083015138611963565b601f1982169083600052806000209160005b8181106119e75750836118a89693602096936001600160a01b039996600194106119ce575b5050811b019055611976565b85015160001960f88460031b161c1916905538806119c2565b9192602060018192868a01518155019401920161199d565b826000526020600020601f830160051c81019160208410611a3d575b601f0160051c01905b818110611a31575061193a565b60008155600101611a24565b9091508190611a1b565b634e487b7160e01b600052604160045260246000fd5b602485634e487b7160e01b815280600452fd5b602485634e487b7160e01b81526032600452fd5b602485634e487b7160e01b81526041600452fd5b5080611ac5611aa63661224f565b611ab2949192946134cc565b6001600160a01b03600854169285613545565b90803b156105c457610ef393858094604051968795869485937fbcef60d70000000000000000000000000000000000000000000000000000000085526004850161246b565b50610140600319360112610231578060043567ffffffffffffffff81116110bd57611b399036906004016120e5565b602435906044356003811015611c6b576064359260038410156105c457611b5e6134cc565b611b6d426101243510156124a5565b611b86610f5f611b7c85613764565b91908410156124f0565b6001600160a01b036008541690813b15610595578593611be091604051968795869485947feff6d7c30000000000000000000000000000000000000000000000000000000086526101406004870152610144860190612393565b926024850152611bef81612586565b6044840152611bfd81612586565b6064830152608435608483015260a43560a483015260c43560c483015260e43560e48301526101043561010483015233610124830152039134905af18015610f3f57610f2a575060017f9b779b17422d0df92223018b32b4d1fa46e071723d6817e2486d003becc55f005580f35b505050fd5b50611c9d81611c7e3661224f565b611c8a959192956134cc565b6001600160a01b03600654169286613545565b90803b156105c857611ce294848094604051978895869485937feb4f2e360000000000000000000000000000000000000000000000000000000085526004850161246b565b03925af1801561058857611d175760017f9b779b17422d0df92223018b32b4d1fa46e071723d6817e2486d003becc55f005580f35b611d20916120a6565b3881610549565b50346102315760406003193601126102315760043567ffffffffffffffff81116105cc57611d599036906004016120e5565b60243590338352600a602052608060408420600460405191611d7a8361208a565b805483526001810154602084015260028101546040840152600381015460608401520154918291015215611f9157611db18161341f565b8215159081611f86575b5015611f42576005546001600160a01b0316835b60028110611e55575050611e5190338452600c6020527f5f8b52a1e1daf1e1c1964bd91dcd938674bfde2807e4278de95a2f3e94d58ad9611e136040862083612411565b54604051809133825260806020830152611e306080830186612393565b9060408301528660608301520390a1338452600c6020526040842090612411565b5580f35b6040517f0c8c35160000000000000000000000000000000000000000000000000000000081523360048201526060602482015260808180611e996064820188612393565b8560448301520381865afa908115611f37578691611f03575b50611ebf57600101611dcf565b606460405162461bcd60e51b815260206004820152600960248201527f68617320617373657400000000000000000000000000000000000000000000006044820152fd5b90506080813d8211611f2f575b81611f1d608093836120a6565b81010312610595576020015138611eb2565b3d9150611f10565b6040513d88823e3d90fd5b606460405162461bcd60e51b815260206004820152601560248201527f6c65766572616765206f7574206f6620312d31303000000000000000000000006044820152fd5b905082111538611dbb565b606460405162461bcd60e51b815260206004820152601260248201527f75736572206973206e6f742065786973747300000000000000000000000000006044820152fd5b503461023157806003193601126102315760206001600160a01b03600f5416604051908152f35b503461023157806003193601126102315760206001600160a01b0360105416604051908152f35b5034610231576020600319360112610231576004359067ffffffffffffffff82116102315760206001600160a01b036120768261206336600488016120e5565b8160405193828580945193849201612370565b8101600b8152030190205416604051908152f35b60a0810190811067ffffffffffffffff821117611a4757604052565b90601f601f19910116810190811067ffffffffffffffff821117611a4757604052565b67ffffffffffffffff8111611a4757601f01601f191660200190565b81601f82011215610015576020813591016120ff826120c9565b9261210d60405194856120a6565b828452828201116100155781600092602092838601378301015290565b67ffffffffffffffff8111611a475760051b60200190565b9080601f830112156100155781356121598161212a565b9261216760405194856120a6565b81845260208085019260051b82010192831161001557602001905b82821061218f5750505090565b8135815260209182019101612182565b9080601f830112156100155781356121b68161212a565b926121c460405194856120a6565b81845260208085019260051b820101918383116100155760208201905b8382106121f057505050505090565b813567ffffffffffffffff811161001557602091612213878480948801016120e5565b8152019101906121e1565b9181601f840112156100155782359167ffffffffffffffff8311610015576020808501948460051b01011161001557565b60606003198201126100155760043567ffffffffffffffff8111610015578161227a91600401612142565b9160243567ffffffffffffffff8111610015578261229a9160040161219f565b916044359067ffffffffffffffff8211610015576122ba9160040161221e565b9091565b602435906001600160a01b038216820361001557565b600435906001600160a01b038216820361001557565b60031960c0910112610015576004356001600160a01b038116810361001557906024356001600160a01b038116810361001557906044356001600160a01b038116810361001557906064356001600160a01b038116810361001557906084356001600160a01b0381168103610015579060a4356001600160a01b03811681036100155790565b60005b8381106123835750506000910152565b8181015183820152602001612373565b90601f19601f6020936123b181518092818752878088019101612370565b0116010190565b9080602083519182815201916020808360051b8301019401926000915b8383106123e457505050505090565b909192939460208061240283601f1986600196030187528951612393565b970193019301919392906123d5565b60209061242b928260405194838680955193849201612370565b82019081520301902090565b906020808351928381520192019060005b8181106124555750505090565b8251845260209384019390920191600101612448565b91612494906124866124a29593606086526060860190612437565b9084820360208601526123b8565b916040818403910152612437565b90565b156124ac57565b606460405162461bcd60e51b815260206004820152600760248201527f65787069726564000000000000000000000000000000000000000000000000006044820152fd5b156124f757565b606460405162461bcd60e51b815260206004820152601560248201527f6f70656e20616d6f756e7420746f6f20736d616c6c00000000000000000000006044820152fd5b1561254257565b606460405162461bcd60e51b815260206004820152600b60248201527f6c657373207265776172640000000000000000000000000000000000000000006044820152fd5b6003111561259057565b634e487b7160e01b600052602160045260246000fd5b156125ad57565b606460405162461bcd60e51b815260206004820152601e60248201527f63616c6c6572206973206e6f742070657270657475616c206b656570657200006044820152fd5b90600182811c92168015612621575b602083101461260b57565b634e487b7160e01b600052602260045260246000fd5b91607f1691612600565b9190820180921161263857565b634e487b7160e01b600052601160045260246000fd5b9190820391821161263857565b60e06001600160a01b037f978f5a06b7f22ed0a8d1bfc4c6d9d44b320a6f206eb9dde65c1de4dc27f48cc0921680600052600a6020526040600020600181015460028201546126aa818361262b565b916126ba6003850154809461262b565b935493808511156126fa576126cf908561264e565b935b6040519586526020860152604085015260608401526080830152600060a083015260c0820152a1565b84818110156127125761270c9161264e565b936126d1565b50506000936126d1565b60e06001600160a01b037f978f5a06b7f22ed0a8d1bfc4c6d9d44b320a6f206eb9dde65c1de4dc27f48cc0921680600052600a60205260406000206001810154600282015461276b818361262b565b9161277b6003850154809461262b565b935493808511156127bb57612790908561264e565b935b6040519586526020860152604085015260608401526080830152600a60a083015260c0820152a1565b84818110156127d3576127cd9161264e565b93612792565b5050600093612792565b5190811515820361001557565b91612494906001600160a01b036124a295931684526060602085015260608401906123b8565b80518210156128245760209160051b010190565b634e487b7160e01b600052603260045260246000fd5b51906001600160a01b038216820361001557565b9190826080910312610015576128638261283a565b9160208101519160606128786040840161283a565b92015190565b1561288557565b606460405162461bcd60e51b815260206004820152600d60248201527f7072696365206973207a65726f000000000000000000000000000000000000006044820152fd5b94909360e09692999897936128f06001600160a01b03966101008952610100890190612393565b9a60208801526040870152606086015261290981612586565b608085015260a08401521660c08201520152565b8181029291811591840414171561263857565b811561293a570490565b634e487b7160e01b600052601260045260246000fd5b91909160008315612c65576007546001600160a01b0316938180808088612bb9575b612a2897985061298f6129876003548761291d565b875490612930565b949182816001600160a01b038416151580612bb1575b80612ba8575b612b5b575b50505050829080936001600160a01b038416151580612b52575b80612b49575b612afc575b505050506001600160a01b0360135416908290809383151580612af3575b80612aea575b612a9d575b50505050908160ff60085460a01c16612a2b575b505080916001600160a01b036012541690613cf7565b50565b9091506001600160a01b036010541690809282151580612a94575b80612a8b575b612a5b575b5050503880612a12565b612a8392935050600b600093612a7d83826001600160a01b03600f5416613895565b856139bd565b388080612a51565b50811515612a4c565b50811515612a46565b612ad69394508111600014612adf57612ab882600e9261264e565b935b612ad083826001600160a01b03600f5416613895565b866139bd565b388080806129fe565b9050600e8493612aba565b508015156129f9565b508115156129f3565b612b359394508111600014612b3e57612b1782600c9261264e565b935b612b2f83826001600160a01b03600f5416613895565b876139bd565b388080806129d5565b9050600c8593612b19565b508015156129d0565b508115156129ca565b612b949394508111600014612b9d57612b768260119261264e565b935b612b8e83826001600160a01b03600f5416613895565b896139bd565b388080806129b0565b905060118793612b78565b508015156129ab565b5060016129a5565b505050506080829560846001600160a01b03600f541660405198899384927ff1a78eff00000000000000000000000000000000000000000000000000000000845260048401528160248401526001600160a01b03891660448401528660648401525af1948515610f3f57612a2894958391849185918691612c42575b5090919291889750612972565b92505050612c5f915060803d608011610ffb57610feb81836120a6565b38612c35565b50509050565b9390919260005b85518110156131f0576001600160a01b03612c8d8288612810565b511680600052600a602052612ca6604060002054613d82565b80156131e657612cb58261265b565b612cc0848888613545565b90612d0a6080836001600160a01b03600654168a6040518095819482937fc254878b0000000000000000000000000000000000000000000000000000000084528b600485016127ea565b03915afa90811561315a576000916131ad575b50612de3575b5050907f978f5a06b7f22ed0a8d1bfc4c6d9d44b320a6f206eb9dde65c1de4dc27f48cc060e083600194600052600a6020526040600020858101546002820154612d6d818361262b565b91612d7d6003850154809461262b565b93549380851115612dc157612d92908561264e565b935b6040519586526020860152604085015260608401526080830152600b60a083015260c0820152a101612c72565b8481811015612dd957612dd39161264e565b93612d94565b5050600093612d94565b6001600160a01b036011541691612df983613a2a565b6001600160a01b03600f541693604051907fdd62ed3e0000000000000000000000000000000000000000000000000000000082526004820152306024820152602081604481885afa94851561315a578a9160009661316f575b50612e7e90612e78612e73612e6d612ef1996000549061291d565b92613d9b565b613a1c565b90612930565b808311613166575b50602091926001600160a01b036008541690600088612f03612ea8888a61262b565b936040519a8b97889687957f7295751b000000000000000000000000000000000000000000000000000000008752600487015260248601526080604486015260848501906123b8565b90600319848303016064850152612437565b03925af192831561315a57600093613126575b50928260e0928286600198977f978f5a06b7f22ed0a8d1bfc4c6d9d44b320a6f206eb9dde65c1de4dc27f48cc09714600014612fa5575050612f7191506001600160a01b03600f54166001600160a01b036004541690613895565b80600052600a6020526040600020600086820155600081556000600282015560006003820155600442910155929350612d23565b909181841115613068579061300961301b92612fe26001600160a01b03600f54166001600160a01b0360115416612fdc868a61264e565b91613895565b6001600160a01b03600f541690612fdc8761110d866001600160a01b03600454169461262b565b6001600160a01b03601154169361264e565b7feb42cf637f927243245c50b4bf7fe105fe4f4d26209102240f2ba3d8e27a7df860606001600160a01b03600f5460009460405195506008865260208601524260408601521692a4612f71565b926130c76130d99293946130a06001600160a01b03600f54166001600160a01b036011541690613098868961264e565b913091613ad0565b6001600160a01b03600f541690612fdc8461110d886001600160a01b03600454169461262b565b6001600160a01b03601154169261264e565b7feb42cf637f927243245c50b4bf7fe105fe4f4d26209102240f2ba3d8e27a7df860606001600160a01b03600f5460009460405195506009865260208601524260408601521692a4612f71565b90926020823d8211613152575b81613140602093836120a6565b81010312610231575051916001612f16565b3d9150613133565b6040513d6000823e3d90fd5b91506020612e86565b9150919293946020823d82116131a5575b8161318d602093836120a6565b81010312610231575051939291908990612e7e612e52565b3d9150613180565b906080823d82116131de575b816131c6608093836120a6565b8101031261023157506131d8906127dd565b38612d1d565b3d91506131b9565b5050505092505050565b505092505050565b6001600160a01b03168015613288576001600160a01b037f9016d09d72d40fdae2fd8ceac6b6234c7706214fd39c1cd1e609a0528c19930054826001600160a01b03198216177f9016d09d72d40fdae2fd8ceac6b6234c7706214fd39c1cd1e609a0528c19930055167f8be0079c531659141344cd1fd0a4f28419497f9722a3daafe3b4186f6b6457e0600080a3565b7f1e4fbdf700000000000000000000000000000000000000000000000000000000600052600060045260246000fd5b6020818303126100155780519067ffffffffffffffff82116100155701906101e08282031261001557604051916101e0830183811067ffffffffffffffff821117611a4757604052805167ffffffffffffffff81116100155781019180601f840112156100155782519261332a846120c9565b9161333860405193846120a6565b84835260208583010111610015576101c09361335a9160208085019101612370565b8352602081015160208401526133726040820161283a565b60408401526133836060820161283a565b60608401526133946080820161283a565b60808401526133a560a0820161283a565b60a08401526133b660c0820161283a565b60c08401526133c760e0820161283a565b60e08401526101008101516101008401526101208101516101208401526101408101516101408401526101608101516101608401526101808101516101808401526101a08101516101a084015201516101c082015290565b61344060206001600160a01b03928160405193828580945193849201612370565b8101600b815203019020541680613458575b50606490565b6000602491604051928380927fa666200f0000000000000000000000000000000000000000000000000000000082523060048301525afa801561315a57610160916000916134a9575b500151613452565b6134c691503d806000833e6134be81836120a6565b8101906132b7565b386134a1565b60027f9b779b17422d0df92223018b32b4d1fa46e071723d6817e2486d003becc55f00541461351b5760027f9b779b17422d0df92223018b32b4d1fa46e071723d6817e2486d003becc55f0055565b7f3ee5aeb50000000000000000000000000000000000000000000000000000000060005260046000fd5b90929192838251036137205761355c825134612930565b908251801561293a573406936135718661212a565b9361357f60405195866120a6565b868552601f1961358e8861212a565b01366020870137849560005b825180821015613714576000198101908111612638578114613703575b6001600160a01b036135e260206135ce8487612810565b518160405193828580945193849201612370565b8101600b815203019020541689821015612824578160051b8601357fffffffffffffffffffffffffffffffffffffffffffffffffffffffffffffffe18736030181121561001557860180359067ffffffffffffffff82116100155760200190803603821361001557601f92818a6064602095601f19604051988997889687947fb3d316c100000000000000000000000000000000000000000000000000000000865260406004870152816044870152868601376000858286010152306024850152011681010301925af190811561315a576000916136d1575b50906001916136ca828a612810565b520161359a565b906020823d82116136fb575b816136ea602093836120a6565b8101031261023157505160016136bb565b3d91506136dd565b948161370e9161262b565b946135b7565b50505050939450505050565b606460405162461bcd60e51b815260206004820152602060248201527f496e636f6e73697374656e74207072696365206172726179206c656e677468736044820152fd5b9060006001600160a01b0361378a60206024958160405193828580945193849201612370565b8101600b8152030190205416604051938480927fa666200f0000000000000000000000000000000000000000000000000000000082523060048301525afa91821561315a576000926137e7575b5061012061014083015192015190565b6137fd9192503d806000833e6134be81836120a6565b90386137d7565b6001600160a01b037f9016d09d72d40fdae2fd8ceac6b6234c7706214fd39c1cd1e609a0528c1993005416330361383757565b7f118cdaa7000000000000000000000000000000000000000000000000000000006000523360045260246000fd5b3d15613890573d90613876826120c9565b9161388460405193846120a6565b82523d6000602084013e565b606090565b916138af6138b8916138a9612e7386613d9b565b9061291d565b60005490612930565b91821515806139ab575b6138cb57505050565b6000928380936040926001600160a01b037fffffffff0000000000000000000000000000000000000000000000000000000060196020875161390d89826120a6565b828152017f7472616e7366657228616464726573732c75696e743235362900000000000000815220169451926020840195865216602483015260448201526044815261395a6064826120a6565b51925af1613966613865565b81613974575b501561001557565b8051801592508215613989575b50503861396c565b81925090602091810103126100155760206139a491016127dd565b3880613981565b506001600160a01b03821615156138c2565b92916001600160a01b03600f541691604051936013831015612590576001600160a01b0360609281927feb42cf637f927243245c50b4bf7fe105fe4f4d26209102240f2ba3d8e27a7df8958852602088015242604088015216951693a4565b604d811161263857600a0a90565b6001600160a01b03600f54166001600160a01b03604051927f70a08231000000000000000000000000000000000000000000000000000000008452166004830152602082602481845afa91821561315a57600092613a9a575b50612e78612e73612e6d6124a2946000549061291d565b91506020823d602011613ac8575b81613ab5602093836120a6565b8101031261001557905190612e78613a83565b3d9150613aa8565b9091926138af613ae6916138a9612e7385613d9b565b9283151580613c2a575b80613c18575b613b01575b50505050565b600080949381946001600160a01b037fffffffff000000000000000000000000000000000000000000000000000000006025604051613b416060826120a6565b8181527f7432353629000000000000000000000000000000000000000000000000000000604060208301927f7472616e7366657246726f6d28616464726573732c616464726573732c75696e84520152201694816040519460208601978852166024850152166044830152606482015260648152613bc06084826120a6565b51925af1613bcc613865565b81613be1575b50156100155738808080613afb565b8051801592508215613bf6575b505038613bd2565b8192509060209181010312610015576020613c1191016127dd565b3880613bee565b506001600160a01b0381161515613af6565b506001600160a01b0383161515613af0565b613caa916001600160a01b03613c62602080948160405193828580945193849201612370565b8101600b815203019020541660405180809581947fb3d316c1000000000000000000000000000000000000000000000000000000008352604060048401526044830190612393565b306024830152039134905af190811561315a57600091613cc8575090565b90506020813d602011613cef575b81613ce3602093836120a6565b81010312610015575190565b3d9150613cd6565b919290836001600160a01b038216151580613d79575b80613d70575b613d1f575b5050505090565b613d59939450828111600014613d625790613d3c83600d9361264e565b945b613d5484836001600160a01b03600f5416613895565b6139bd565b38808080613d18565b600d91925091600094613d3e565b50821515613d13565b50801515613d0d565b613d8b30613a2a565b808211613d96575090565b905090565b60206001600160a01b03916004604051809481937f313ce567000000000000000000000000000000000000000000000000000000008352165afa90811561315a57600091613deb575b5060ff1690565b6020813d602011613e20575b81613e04602093836120a6565b810103126105cc57519060ff82168203610231575060ff613de4565b3d9150613df7565b60ff7ff0c57e16840df040f15088dc2f81fe391c3923bec73e23a9662efc9c229c6a005460401c1615613e5757565b7fd7e6bcf80000000000000000000000000000000000000000000000000000000060005260046000fdfea264697066735822122053641942f854e545dedc7644ac0dd44e688ef32c4106877caee8f03be2ec3c4b64736f6c634300081c0033",
  "linkReferences": {},
  "deployedLinkReferences": {}
}