{
  "_format": "hh-sol-artifact-1",
  "contractName": "TradeStation",
  "sourceName": "contracts/TradeStation.sol",
  "abi": [
    {
      "inputs": [],
      "name": "InvalidInitialization",
      "type": "error"
    },
    {
      "inputs": [],
      "name": "NotInitializing",
      "type": "error"
    },
    {
      "inputs": [
        {
          "internalType": "address",
          "name": "owner",
          "type": "address"
        }
      ],
      "name": "OwnableInvalidOwner",
      "type": "error"
    },
    {
      "inputs": [
        {
          "internalType": "address",
          "name": "account",
          "type": "address"
        }
      ],
      "name": "OwnableUnauthorizedAccount",
      "type": "error"
    },
    {
      "anonymous": false,
      "inputs": [
        {
          "indexed": false,
          "internalType": "address",
          "name": "token",
          "type": "address"
        },
        {
          "indexed": false,
          "internalType": "address",
          "name": "holder",
          "type": "address"
        },
        {
          "indexed": false,
          "internalType": "string",
          "name": "name",
          "type": "string"
        },
        {
          "indexed": false,
          "internalType": "enum ICommon.Direct",
          "name": "direct",
          "type": "uint8"
        },
        {
          "indexed": false,
          "internalType": "uint256",
          "name": "value",
          "type": "uint256"
        },
        {
          "indexed": false,
          "internalType": "uint256",
          "name": "size",
          "type": "uint256"
        },
        {
          "indexed": false,
          "internalType": "uint256",
          "name": "margin",
          "type": "uint256"
        },
        {
          "indexed": false,
          "internalType": "uint256",
          "name": "freeze",
          "type": "uint256"
        }
      ],
      "name": "AccountPosition",
      "type": "event"
    },
    {
      "anonymous": false,
      "inputs": [
        {
          "indexed": false,
          "internalType": "address",
          "name": "taker",
          "type": "address"
        },
        {
          "indexed": false,
          "internalType": "uint256",
          "name": "amount",
          "type": "uint256"
        },
        {
          "indexed": false,
          "internalType": "uint256",
          "name": "availableAmount",
          "type": "uint256"
        },
        {
          "indexed": false,
          "internalType": "uint256",
          "name": "marginAmount",
          "type": "uint256"
        },
        {
          "indexed": false,
          "internalType": "uint256",
          "name": "locked",
          "type": "uint256"
        },
        {
          "indexed": false,
          "internalType": "uint256",
          "name": "stage",
          "type": "uint256"
        },
        {
          "indexed": false,
          "internalType": "uint256",
          "name": "dif",
          "type": "uint256"
        }
      ],
      "name": "BalanceOfTaker",
      "type": "event"
    },
    {
      "anonymous": false,
      "inputs": [
        {
          "indexed": false,
          "internalType": "string",
          "name": "name",
          "type": "string"
        },
        {
          "indexed": true,
          "internalType": "address",
          "name": "taker",
          "type": "address"
        },
        {
          "indexed": true,
          "internalType": "address",
          "name": "token",
          "type": "address"
        },
        {
          "indexed": false,
          "internalType": "uint256",
          "name": "orderID",
          "type": "uint256"
        },
        {
          "indexed": false,
          "internalType": "enum ICommon.Direct",
          "name": "orderType",
          "type": "uint8"
        },
        {
          "indexed": false,
          "internalType": "enum IPerpetual.OrderState",
          "name": "state",
          "type": "uint8"
        },
        {
          "indexed": false,
          "internalType": "enum ICommon.Offset",
          "name": "offset",
          "type": "uint8"
        },
        {
          "indexed": false,
          "internalType": "uint256",
          "name": "amount",
          "type": "uint256"
        },
        {
          "indexed": false,
          "internalType": "uint256",
          "name": "targetPrice",
          "type": "uint256"
        },
        {
          "indexed": false,
          "internalType": "uint256",
          "name": "margin",
          "type": "uint256"
        },
        {
          "indexed": false,
          "internalType": "uint256",
          "name": "rewardGas",
          "type": "uint256"
        },
        {
          "indexed": false,
          "internalType": "uint256",
          "name": "tradingFee",
          "type": "uint256"
        },
        {
          "indexed": false,
          "internalType": "uint256",
          "name": "startTime",
          "type": "uint256"
        },
        {
          "indexed": false,
          "internalType": "uint256",
          "name": "goodTill",
          "type": "uint256"
        }
      ],
      "name": "CreateLimitedOrder",
      "type": "event"
    },
    {
      "anonymous": false,
      "inputs": [
        {
          "indexed": false,
          "internalType": "uint256",
          "name": "limitOrderID",
          "type": "uint256"
        },
        {
          "indexed": false,
          "internalType": "uint256",
          "name": "openLimitPrice",
          "type": "uint256"
        },
        {
          "indexed": false,
          "internalType": "uint256",
          "name": "gainTriggerPrice",
          "type": "uint256"
        },
        {
          "indexed": false,
          "internalType": "uint256",
          "name": "gainLimitPrice",
          "type": "uint256"
        },
        {
          "indexed": false,
          "internalType": "uint256",
          "name": "lossTriggerPrice",
          "type": "uint256"
        },
        {
          "indexed": false,
          "internalType": "uint256",
          "name": "lossLimitPrice",
          "type": "uint256"
        }
      ],
      "name": "CreateTriggerCondition",
      "type": "event"
    },
    {
      "anonymous": false,
      "inputs": [
        {
          "indexed": false,
          "internalType": "uint256",
          "name": "code",
          "type": "uint256"
        },
        {
          "indexed": false,
          "internalType": "uint256",
          "name": "orderID",
          "type": "uint256"
        },
        {
          "indexed": false,
          "internalType": "string",
          "name": "message",
          "type": "string"
        }
      ],
      "name": "ErrorInfo",
      "type": "event"
    },
    {
      "anonymous": false,
      "inputs": [
        {
          "indexed": false,
          "internalType": "uint256",
          "name": "code",
          "type": "uint256"
        },
        {
          "indexed": false,
          "internalType": "uint256",
          "name": "orderID",
          "type": "uint256"
        },
        {
          "indexed": false,
          "internalType": "bytes",
          "name": "message",
          "type": "bytes"
        }
      ],
      "name": "ExceptErrorInfo",
      "type": "event"
    },
    {
      "anonymous": false,
      "inputs": [
        {
          "indexed": false,
          "internalType": "uint64",
          "name": "version",
          "type": "uint64"
        }
      ],
      "name": "Initialized",
      "type": "event"
    },
    {
      "anonymous": false,
      "inputs": [
        {
          "indexed": false,
          "internalType": "string",
          "name": "name",
          "type": "string"
        },
        {
          "indexed": true,
          "internalType": "address",
          "name": "taker",
          "type": "address"
        },
        {
          "indexed": true,
          "internalType": "address",
          "name": "token",
          "type": "address"
        },
        {
          "indexed": false,
          "internalType": "uint256",
          "name": "orderID",
          "type": "uint256"
        },
        {
          "indexed": false,
          "internalType": "enum ICommon.Direct",
          "name": "orderType",
          "type": "uint8"
        },
        {
          "indexed": false,
          "internalType": "enum IPerpetual.OrderState",
          "name": "state",
          "type": "uint8"
        },
        {
          "indexed": false,
          "internalType": "enum ICommon.Offset",
          "name": "offset",
          "type": "uint8"
        },
        {
          "indexed": false,
          "internalType": "uint256",
          "name": "amount",
          "type": "uint256"
        },
        {
          "indexed": false,
          "internalType": "uint256",
          "name": "targetPrice",
          "type": "uint256"
        },
        {
          "indexed": false,
          "internalType": "uint256",
          "name": "margin",
          "type": "uint256"
        },
        {
          "indexed": false,
          "internalType": "uint256",
          "name": "rewardGas",
          "type": "uint256"
        },
        {
          "indexed": false,
          "internalType": "uint256",
          "name": "tradingFee",
          "type": "uint256"
        },
        {
          "indexed": false,
          "internalType": "uint256",
          "name": "startTime",
          "type": "uint256"
        },
        {
          "indexed": false,
          "internalType": "uint256",
          "name": "goodTill",
          "type": "uint256"
        }
      ],
      "name": "LimitedOrderHistory",
      "type": "event"
    },
    {
      "anonymous": false,
      "inputs": [
        {
          "indexed": true,
          "internalType": "address",
          "name": "taker",
          "type": "address"
        },
        {
          "indexed": false,
          "internalType": "string",
          "name": "name",
          "type": "string"
        },
        {
          "indexed": false,
          "internalType": "address",
          "name": "token",
          "type": "address"
        },
        {
          "indexed": false,
          "internalType": "uint256",
          "name": "orderID",
          "type": "uint256"
        },
        {
          "indexed": false,
          "internalType": "enum ICommon.Direct",
          "name": "direction",
          "type": "uint8"
        },
        {
          "indexed": false,
          "internalType": "enum IPerpetual.OrderType",
          "name": "orderType",
          "type": "uint8"
        },
        {
          "indexed": false,
          "internalType": "uint256",
          "name": "amount",
          "type": "uint256"
        },
        {
          "indexed": false,
          "internalType": "uint256",
          "name": "costPrice",
          "type": "uint256"
        },
        {
          "indexed": false,
          "internalType": "uint256",
          "name": "price",
          "type": "uint256"
        },
        {
          "indexed": false,
          "internalType": "uint256",
          "name": "tradingFee",
          "type": "uint256"
        },
        {
          "indexed": false,
          "internalType": "uint256",
          "name": "limitOrderId",
          "type": "uint256"
        },
        {
          "indexed": false,
          "internalType": "uint256",
          "name": "timestamp",
          "type": "uint256"
        }
      ],
      "name": "OrderHistory",
      "type": "event"
    },
    {
      "anonymous": false,
      "inputs": [
        {
          "indexed": true,
          "internalType": "address",
          "name": "previousOwner",
          "type": "address"
        },
        {
          "indexed": true,
          "internalType": "address",
          "name": "newOwner",
          "type": "address"
        }
      ],
      "name": "OwnershipTransferred",
      "type": "event"
    },
    {
      "anonymous": false,
      "inputs": [
        {
          "indexed": false,
          "internalType": "address",
          "name": "token",
          "type": "address"
        },
        {
          "indexed": false,
          "internalType": "uint256",
          "name": "orderID",
          "type": "uint256"
        },
        {
          "indexed": false,
          "internalType": "uint256",
          "name": "dealID",
          "type": "uint256"
        },
        {
          "indexed": false,
          "internalType": "enum IPerpetual.TradeType",
          "name": "tradeType",
          "type": "uint8"
        },
        {
          "indexed": false,
          "internalType": "uint256",
          "name": "amount",
          "type": "uint256"
        },
        {
          "indexed": false,
          "internalType": "uint256",
          "name": "price",
          "type": "uint256"
        },
        {
          "indexed": false,
          "internalType": "uint256",
          "name": "tradingFee",
          "type": "uint256"
        },
        {
          "indexed": false,
          "internalType": "uint256",
          "name": "profit",
          "type": "uint256"
        },
        {
          "indexed": false,
          "internalType": "uint256",
          "name": "loss",
          "type": "uint256"
        },
        {
          "indexed": false,
          "internalType": "uint256",
          "name": "timestamp",
          "type": "uint256"
        }
      ],
      "name": "TradeHistory",
      "type": "event"
    },
    {
      "anonymous": false,
      "inputs": [
        {
          "indexed": true,
          "internalType": "address",
          "name": "token",
          "type": "address"
        },
        {
          "indexed": true,
          "internalType": "address",
          "name": "sender",
          "type": "address"
        },
        {
          "indexed": true,
          "internalType": "address",
          "name": "received",
          "type": "address"
        },
        {
          "indexed": false,
          "internalType": "enum ICommon.TransactionType",
          "name": "transactionType",
          "type": "uint8"
        },
        {
          "indexed": false,
          "internalType": "uint256",
          "name": "amount",
          "type": "uint256"
        },
        {
          "indexed": false,
          "internalType": "uint256",
          "name": "timestamp",
          "type": "uint256"
        }
      ],
      "name": "TransactionHistory",
      "type": "event"
    },
    {
      "anonymous": false,
      "inputs": [
        {
          "indexed": false,
          "internalType": "address",
          "name": "sender",
          "type": "address"
        },
        {
          "indexed": false,
          "internalType": "string",
          "name": "name",
          "type": "string"
        },
        {
          "indexed": false,
          "internalType": "uint256",
          "name": "beforeLeverage",
          "type": "uint256"
        },
        {
          "indexed": false,
          "internalType": "uint256",
          "name": "afterLeverage",
          "type": "uint256"
        }
      ],
      "name": "setLeverage",
      "type": "event"
    },
    {
      "stateMutability": "nonpayable",
      "type": "fallback"
    },
    {
      "inputs": [
        {
          "internalType": "address",
          "name": "_taker",
          "type": "address"
        },
        {
          "internalType": "uint256",
          "name": "_deposit",
          "type": "uint256"
        },
        {
          "internalType": "string[]",
          "name": "_pairs",
          "type": "string[]"
        },
        {
          "internalType": "uint256[]",
          "name": "_prices",
          "type": "uint256[]"
        }
      ],
      "name": "clearingTaker",
      "outputs": [
        {
          "internalType": "uint256",
          "name": "remainingDeposit",
          "type": "uint256"
        }
      ],
      "stateMutability": "nonpayable",
      "type": "function"
    },
    {
      "inputs": [
        {
          "internalType": "address",
          "name": "_taker",
          "type": "address"
        },
        {
          "internalType": "string",
          "name": "_name",
          "type": "string"
        },
        {
          "internalType": "uint256",
          "name": "_amount",
          "type": "uint256"
        },
        {
          "internalType": "uint256",
          "name": "_price",
          "type": "uint256"
        },
        {
          "internalType": "enum ICommon.Direct",
          "name": "_type",
          "type": "uint8"
        },
        {
          "internalType": "uint256",
          "name": "_limitID",
          "type": "uint256"
        }
      ],
      "name": "closeOrder",
      "outputs": [],
      "stateMutability": "nonpayable",
      "type": "function"
    },
    {
      "inputs": [
        {
          "internalType": "string",
          "name": "_name",
          "type": "string"
        },
        {
          "internalType": "uint256",
          "name": "_amount",
          "type": "uint256"
        },
        {
          "internalType": "uint256",
          "name": "_orderType",
          "type": "uint256"
        },
        {
          "internalType": "uint256",
          "name": "_price",
          "type": "uint256"
        },
        {
          "internalType": "enum ICommon.Direct",
          "name": "_type",
          "type": "uint8"
        },
        {
          "internalType": "uint256",
          "name": "_goodTill",
          "type": "uint256"
        },
        {
          "internalType": "address",
          "name": "_taker",
          "type": "address"
        },
        {
          "internalType": "uint256",
          "name": "_rewardGas",
          "type": "uint256"
        }
      ],
      "name": "closePosition",
      "outputs": [],
      "stateMutability": "payable",
      "type": "function"
    },
    {
      "inputs": [
        {
          "internalType": "address",
          "name": "initialOwner",
          "type": "address"
        },
        {
          "internalType": "address",
          "name": "_priPool",
          "type": "address"
        },
        {
          "internalType": "address",
          "name": "_perpetual",
          "type": "address"
        },
        {
          "internalType": "address",
          "name": "_settle",
          "type": "address"
        }
      ],
      "name": "initialize",
      "outputs": [],
      "stateMutability": "nonpayable",
      "type": "function"
    },
    {
      "inputs": [
        {
          "internalType": "address",
          "name": "_taker",
          "type": "address"
        },
        {
          "internalType": "string",
          "name": "_name",
          "type": "string"
        },
        {
          "internalType": "uint256",
          "name": "_amount",
          "type": "uint256"
        },
        {
          "internalType": "uint256",
          "name": "_price",
          "type": "uint256"
        },
        {
          "internalType": "enum ICommon.Direct",
          "name": "_type",
          "type": "uint8"
        },
        {
          "internalType": "uint256",
          "name": "_goodTill",
          "type": "uint256"
        },
        {
          "internalType": "uint256",
          "name": "_rewardsGas",
          "type": "uint256"
        }
      ],
      "name": "makeOpenLimitOrder",
      "outputs": [],
      "stateMutability": "nonpayable",
      "type": "function"
    },
    {
      "inputs": [
        {
          "internalType": "address",
          "name": "_taker",
          "type": "address"
        },
        {
          "internalType": "string",
          "name": "_name",
          "type": "string"
        },
        {
          "internalType": "uint256",
          "name": "_amount",
          "type": "uint256"
        },
        {
          "internalType": "uint256",
          "name": "_price",
          "type": "uint256"
        },
        {
          "internalType": "enum ICommon.Direct",
          "name": "_type",
          "type": "uint8"
        },
        {
          "internalType": "uint256",
          "name": "_limitOrderID",
          "type": "uint256"
        },
        {
          "internalType": "uint256",
          "name": "_freezeAmount",
          "type": "uint256"
        }
      ],
      "name": "openOrder",
      "outputs": [],
      "stateMutability": "nonpayable",
      "type": "function"
    },
    {
      "inputs": [],
      "name": "owner",
      "outputs": [
        {
          "internalType": "address",
          "name": "",
          "type": "address"
        }
      ],
      "stateMutability": "view",
      "type": "function"
    },
    {
      "inputs": [],
      "name": "renounceOwnership",
      "outputs": [],
      "stateMutability": "nonpayable",
      "type": "function"
    },
    {
      "inputs": [
        {
          "internalType": "address",
          "name": "_orderBook",
          "type": "address"
        },
        {
          "internalType": "address",
          "name": "_agent",
          "type": "address"
        }
      ],
      "name": "setKeepers",
      "outputs": [],
      "stateMutability": "nonpayable",
      "type": "function"
    },
    {
      "inputs": [
        {
          "internalType": "string",
          "name": "_name",
          "type": "string"
        },
        {
          "internalType": "uint256",
          "name": "_amount",
          "type": "uint256"
        },
        {
          "internalType": "enum ICommon.Direct",
          "name": "_type",
          "type": "uint8"
        },
        {
          "internalType": "enum ICommon.Offset",
          "name": "_offset",
          "type": "uint8"
        },
        {
          "internalType": "uint256",
          "name": "_param1",
          "type": "uint256"
        },
        {
          "internalType": "uint256",
          "name": "_param2",
          "type": "uint256"
        },
        {
          "internalType": "uint256",
          "name": "_param3",
          "type": "uint256"
        },
        {
          "internalType": "uint256",
          "name": "_param4",
          "type": "uint256"
        },
        {
          "internalType": "uint256",
          "name": "_goodTill",
          "type": "uint256"
        },
        {
          "internalType": "address",
          "name": "_taker",
          "type": "address"
        }
      ],
      "name": "stopTakeOrder",
      "outputs": [],
      "stateMutability": "payable",
      "type": "function"
    },
    {
      "inputs": [
        {
          "internalType": "string",
          "name": "_name",
          "type": "string"
        },
        {
          "internalType": "uint256",
          "name": "_amount",
          "type": "uint256"
        },
        {
          "internalType": "uint256",
          "name": "_price",
          "type": "uint256"
        },
        {
          "internalType": "uint256",
          "name": "_orderType",
          "type": "uint256"
        },
        {
          "internalType": "enum ICommon.Direct",
          "name": "_type",
          "type": "uint8"
        },
        {
          "internalType": "uint256",
          "name": "_goodTill",
          "type": "uint256"
        },
        {
          "internalType": "address",
          "name": "_taker",
          "type": "address"
        },
        {
          "internalType": "uint256",
          "name": "_rewardGas",
          "type": "uint256"
        }
      ],
      "name": "tradeFutures",
      "outputs": [],
      "stateMutability": "payable",
      "type": "function"
    },
    {
      "inputs": [
        {
          "internalType": "address",
          "name": "newOwner",
          "type": "address"
        }
      ],
      "name": "transferOwnership",
      "outputs": [],
      "stateMutability": "nonpayable",
      "type": "function"
    },
    {
      "inputs": [
        {
          "internalType": "uint256[]",
          "name": "_orderID",
          "type": "uint256[]"
        },
        {
          "internalType": "string[]",
          "name": "_symbols",
          "type": "string[]"
        },
        {
          "internalType": "uint256[]",
          "name": "_prices",
          "type": "uint256[]"
        }
      ],
      "name": "triggerOrders",
      "outputs": [],
      "stateMutability": "nonpayable",
      "type": "function"
    }
  ],
  "bytecode": "0x60808060405234601557613cf5908161001b8239f35b600080fdfe6080604052600436101561001a575b3461001557005b600080fd5b6000803560e01c8063274889e1146114445780632b000206146113a1578063715018a6146112fb5780637295751b1461112e5780638da5cb5b146110e8578063bcef60d714610eb6578063c3eea55914610e1f578063cd3fd61714610b98578063dcac2e8814610875578063eff6d7c31461065e578063f2fde38b1461063e578063f8c8765e146103405763fffbe519146100b5575061000e565b34610294576100ee6100c636611b51565b929690959491939633895260056020526100e660ff60408b205416611bb1565b878387613795565b926001956100fb866139f9565b936000198203610313575b50602084019788519760608701988951116102cf578a9961013f87519a61013360408b019c8d5190611c4e565b89528251905190611c4e565b9052610164604087019687519761015c60208b01998a5190611de0565b905289613add565b6001600160a01b03600354169387519360a08b519851990151863b156102cb576101dd998d996001600160a01b03978b978e976040519e8f9d8e9c8d9b7f530e011e000000000000000000000000000000000000000000000000000000008d521660048c015261014060248c01526101448b0190611c29565b976101e781611bfc565b60448a01526101f581611eb9565b6064890152608488015260a487015260c486015260e485015261010484015261012483015203925af19081156102c05784916102a7575b50506001600160a01b03600254169151823b156102a25760405163d1937e3d60e01b81526001600160a01b03909216600483015260248201529082908290818381604481015b03925af18015610297576102835750f35b8161028d91611947565b6102945780f35b80fd5b6040513d84823e3d90fd5b505050fd5b816102b191611947565b6102bc57823861022c565b5050fd5b6040513d86823e3d90fd5b8c80fd5b606460405162461bcd60e51b815260206004820152601160248201527f6f70656e20696e73756666696369656e740000000000000000000000000000006044820152fd5b965060029660208501610327828251611de0565b905261033860608601918251611c4e565b905238610106565b50346102945760806003193601126102945761035a6119cd565b6103626119e3565b6044356001600160a01b03811680910361063a57606435916001600160a01b038316809303610636577ff0c57e16840df040f15088dc2f81fe391c3923bec73e23a9662efc9c229c6a00549360ff8560401c16159467ffffffffffffffff81168015908161062e575b6001149081610624575b15908161061b575b506105f3576001600160a01b039291818760017fffffffffffffffffffffffffffffffffffffffffffffffff00000000000000006104659516177ff0c57e16840df040f15088dc2f81fe391c3923bec73e23a9662efc9c229c6a005561059e575b50610447613c66565b61044f613c66565b61045833611ded565b610460612195565b611ded565b168073ffffffffffffffffffffffffffffffffffffffff1960015416176001558452600560205260408420600160ff198254161790558073ffffffffffffffffffffffffffffffffffffffff1960025416176002558352600560205260408320600160ff19825416179055308352600560205260408320600160ff1982541617905573ffffffffffffffffffffffffffffffffffffffff1983541617825561050a5780f35b7fffffffffffffffffffffffffffffffffffffffffffffff00ffffffffffffffff7ff0c57e16840df040f15088dc2f81fe391c3923bec73e23a9662efc9c229c6a0054167ff0c57e16840df040f15088dc2f81fe391c3923bec73e23a9662efc9c229c6a00557fc7f505b2f371ae2175ee4913f4499e1f2633a7b5936321eed1cdaeb6115181d2602060405160018152a180f35b7fffffffffffffffffffffffffffffffffffffffffffffff0000000000000000001668010000000000000001177ff0c57e16840df040f15088dc2f81fe391c3923bec73e23a9662efc9c229c6a00553861043e565b6004877ff92ee8a9000000000000000000000000000000000000000000000000000000008152fd5b905015386103dd565b303b1591506103d5565b8791506103cb565b8480fd5b8380fd5b50346102945760206003193601126102945761065b6104586119cd565b80f35b50610140600319360112610294578060043567ffffffffffffffff81116108725761068d903690600401611986565b6044359060038210156102bc576064359160038310156102a2576084359060c43592610124356001600160a01b03811680910361086e5733875260056020526106dc60ff604089205416611bb1565b6106e586611bfc565b6001861461081b575b6106f786611bfc565b600286146107b6575b6001600160a01b036003541692833b156107b2578795610746956040519889978896879663bfffc8bb60e01b885260048801526101806024880152610184870190611c29565b9361075081611bfc565b604486015261075e81611bfc565b6064850152602435608485015260a484015260a43560c484015260e483015260e43561010483015261010435610124830152600161014483015285610164830152039134905af18015610297576102835750f35b8780fd5b95508215801590610812575b156107ce578695610700565b606460405162461bcd60e51b815260206004820152601b60248201527f636c6f73652074726967676572207072696365206973207a65726f00000000006044820152fd5b508315156107c2565b9550821561082a5786956106ee565b606460405162461bcd60e51b815260206004820152601a60248201527f6f70656e2074726967676572207072696365206973207a65726f0000000000006044820152fd5b8680fd5b50fd5b5061087f366119f9565b9190969395949295338952600560205261089f60ff60408b205416611bb1565b6108a98786611ec3565b6108b288611f4d565b610abe5750506108dc9033875260056020526108d460ff604089205416611bb1565b838387613795565b916108e6856139f9565b92602084019384519460608301958651116102cf5761091d8251966109116040860198895190611c4e565b84528251905190611c4e565b9052610942604082019182519261093a6020860194855190611de0565b905288613add565b6001600160a01b036003541690825160a08751925194015194833b15610aba576109ae604051977f530e011e0000000000000000000000000000000000000000000000000000000089526001600160a01b038c1660048a015261014060248a0152610144890190611c29565b986109b881611bfc565b60448801528a988996889687958995879560016064880152608487015260a486015260c485015260e484015261010483015260001961012483015203925af1908115610a99578391610a84575b50506001600160a01b0360025416905190803b15610a805760405163d1937e3d60e01b81526001600160a01b0385166004820152602481019290925282908290818381604481015b03925af1801561029757610a67575b505061065b90611fb8565b81610a7191611947565b610a7c578138610a5c565b5080fd5b8280fd5b81610a8e91611947565b610a7c578138610a05565b6040513d85823e3d90fd5b634e487b7160e01b600052602160045260246000fd5b8a80fd5b91959493959290923388526005602052610ade60ff60408a205416611bb1565b610aea81888489613795565b90610af4876139f9565b9760208901968751976060850198895111610b545761065b9a610b4f9982610b22610b3e9451835190611c4e565b9052610b3660608301918251905190611de0565b90528a613add565b602060408501519401519489612025565b611fb8565b606460405162461bcd60e51b815260206004820152601760248201527f6f70656e206c696d697420696e73756666696369656e740000000000000000006044820152fd5b50346102945760c060031936011261029457610bb26119cd565b60243567ffffffffffffffff8111610a8057610bd2903690600401611986565b9060843591600383101561063a57610c3f6080913386526005602052610bfe60ff604088205416611bb1565b6001600160a01b0360045416908660405180978195829463cd3fd61760e01b84526001600160a01b038a16600485015260c0602485015260c4840190611c29565b9060443560448401526064356064840152610c5981611bfc565b608483015260a43560a483015203925af1918215610a99578392610dbe575b50610c82816139f9565b906020820191610c958351855190611de0565b90610ce3610ca96040870193845190611de0565b9287606088015196610cc160208a0198895190611de0565b958690818110610db657610cd6929350611c4e565b90525b8251905190611de0565b91808310610d72578695610cfb8792610d1895611c4e565b835260408301805191519091818111610d60575050525b82613add565b6001600160a01b03600254169151823b156102a25760405163d1937e3d60e01b81526001600160a01b0390921660048301526024820152908290829081838160448101610272565b610d6b929350611c4e565b9052610d12565b606460405162461bcd60e51b815260206004820152601260248201527f73686f756c64206265206465746f6e61746500000000000000000000000000006044820152fd5b505052610cd9565b9091506080813d608011610e17575b81610dda60809383611947565b81010312610a8057606060405191610df1836118dd565b805183526020810151602084015260408101516040840152015160608201529038610c78565b3d9150610dcd565b503461029457610e2e36611b51565b94959290933388526005602052610e4b60ff60408a205416611bb1565b610e5782828987613795565b92610e61856139f9565b9760208901805199606087019a8b5111610b545761065b9a82610e8a610ea69451835190611c4e565b9052610e9e60608301918251905190611de0565b905287613add565b6020604086015195015195612025565b50346102945760606003193601126102945760043567ffffffffffffffff8111610a7c57610ee8903690600401611af4565b9060243567ffffffffffffffff8111610a7c57610f09903690600401611a75565b60443567ffffffffffffffff8111610a805782610f2b85923690600401611af4565b903381526005602052610f4460ff604083205416611bb1565b80915b83518310156110e457602490610f5d8486611c71565b5192806001600160a01b0360035416604051948580927f0c3fc6b90000000000000000000000000000000000000000000000000000000082528860048301525afa9283156110d75781936110b3575b506080830190610fcb8251602086015190610fc682611bfc565b611ec3565b610fde6001600160a01b03855116611f4d565b8096815b89518110156110a357610ff5818b611c71565b51604051611024602082816110138183019687815193849201611c06565b81010301601f198101835282611947565b5190208451604051611046602082816110138183019687815193849201611c06565b5190201461105657600101610fe2565b6001959298508461106c929a9895979450611c71565b51905b811561109b5761108a6001600160a01b03926110919461234f565b5116611fb8565b0191939290610f47565b505050611091565b509795929491509560019361106f565b6110d09193503d8085833e6110c88183611947565b810190611c9b565b9187610fac565b50604051903d90823e3d90fd5b5080f35b503461029457806003193601126102945760206001600160a01b037f9016d09d72d40fdae2fd8ceac6b6234c7706214fd39c1cd1e609a0528c1993005416604051908152f35b5034610294576080600319360112610294576111486119cd565b9060443567ffffffffffffffff8111610a7c57611169903690600401611a75565b9160643567ffffffffffffffff8111610a805761118a903690600401611af4565b9233835260056020526111a360ff604085205416611bb1565b602435916001600160a01b038491165b82518210156112f05784935b60ff851660028110156112e3576001600160a01b03600354169060016111e58688611c71565b51910160ff81116112cf5791611256898b936112108960ff602098169661120b88611bfc565b611c71565b5194604051978896879586947f9324b5490000000000000000000000000000000000000000000000000000000086528c600487015260a0602487015260a4860190611c29565b9261126081611bfc565b60448501526064840152608483015203925af19081156112c4578691611290575b50600160ff91950116936111bf565b905060203d81116112bd575b6112a68183611947565b602082600092810103126102945750516001611281565b503d61129c565b6040513d88823e3d90fd5b602489634e487b7160e01b81526011600452fd5b50935090600101906111b3565b602084604051908152f35b5034610294578060031936011261029457611314612195565b806001600160a01b037f9016d09d72d40fdae2fd8ceac6b6234c7706214fd39c1cd1e609a0528c1993005473ffffffffffffffffffffffffffffffffffffffff1981167f9016d09d72d40fdae2fd8ceac6b6234c7706214fd39c1cd1e609a0528c19930055167f8be0079c531659141344cd1fd0a4f28419497f9722a3daafe3b4186f6b6457e08280a380f35b5034610294576040600319360112610294576001600160a01b036113c36119cd565b816113cc6119e3565b916113d5612195565b16808452600560205260408420600160ff19825416179055808452600560205260408420600160ff1982541617905573ffffffffffffffffffffffffffffffffffffffff1960035416176003551673ffffffffffffffffffffffffffffffffffffffff19600454161760045580f35b5061144e366119f9565b909695929491338952600560205261146c60ff60408b205416611bb1565b6114768688611ec3565b604051610100810181811067ffffffffffffffff8211176118c95760405289815260208101908a82528a60408201526060808201528a60808201528a60a08201528a60c08201528a60e08201526001600160a01b03600354166114d889611bfc565b60ff600019818b1601116118b55761154260808b8e936001600160a01b038f8e60ff60001981604051998a98899788977f0c8c3516000000000000000000000000000000000000000000000000000000008952166004880152606060248801526064870190611c29565b93160116604483015203915afa928315610297578291839461186c575b5082611572958560408401525252611c4e565b841161182857889261158389611f4d565b6117555750506115ea906080949533825260056020526115a960ff604084205416611bb1565b6001600160a01b0360045416936040519788968795869463cd3fd61760e01b86526001600160a01b038d16600487015260c0602487015260c4860190611c29565b92604485015260648401526115fe81611bfc565b608483015260001960a483015203925af1908115610a995783916116f6575b50611627826139f9565b60208101906116398251845190611de0565b9061166561164d6040860193845190611de0565b9287606087015195610cc16020890197885190611de0565b91808310610d7257869461167d869261169a95611c4e565b8352604083018051915190918181116116e4575050525b84613add565b6001600160a01b0360025416905190803b15610a805760405163d1937e3d60e01b81526001600160a01b038516600482015260248101929092528290829081838160448101610a4d565b6116ef929350611c4e565b9052611694565b90506080813d60801161174d575b8161171160809383611947565b81010312610a8057606060405191611728836118dd565b805183526020810151602084015260408101516040840152015160608201523861161d565b3d9150611704565b91509193926001600160a01b036003541694853b15611824576117a16040519763bfffc8bb60e01b89526001600160a01b038a1660048a015261018060248a0152610184890190611c29565b946117ab81611bfc565b604488015293889593879593869493859460026064870152608486015260a48501528760c48501528760e48501528761010485015261012484015286610144840152610164830152039134905af18015610a995761180e575b5061065b90611fb8565b9161181d8161065b9394611947565b9190611804565b8880fd5b606460405162461bcd60e51b815260206004820152601660248201527f636c6f736520616d6f756e7420746f6f206c61726765000000000000000000006044820152fd5b9493509150506080833d6080116118ad575b8161188b60809383611947565b810103126118a957825160208401516060909401519293918261155f565b8b80fd5b3d915061187e565b60248c634e487b7160e01b81526011600452fd5b60248b634e487b7160e01b81526041600452fd5b6080810190811067ffffffffffffffff8211176118f957604052565b634e487b7160e01b600052604160045260246000fd5b60e0810190811067ffffffffffffffff8211176118f957604052565b60a0810190811067ffffffffffffffff8211176118f957604052565b90601f601f19910116810190811067ffffffffffffffff8211176118f957604052565b67ffffffffffffffff81116118f957601f01601f191660200190565b81601f820112156100155780359061199d8261196a565b926119ab6040519485611947565b8284526020838301011161001557816000926020809301838601378301015290565b600435906001600160a01b038216820361001557565b602435906001600160a01b038216820361001557565b610100600319820112610015576004359067ffffffffffffffff821161001557611a2591600401611986565b906024359060443590606435906084356003811015610015579060a4359060c4356001600160a01b0381168103610015579060e43590565b67ffffffffffffffff81116118f95760051b60200190565b9080601f83011215610015578135611a8c81611a5d565b92611a9a6040519485611947565b81845260208085019260051b820101918383116100155760208201905b838210611ac657505050505090565b813567ffffffffffffffff811161001557602091611ae987848094880101611986565b815201910190611ab7565b9080601f83011215610015578135611b0b81611a5d565b92611b196040519485611947565b81845260208085019260051b82010192831161001557602001905b828210611b415750505090565b8135815260209182019101611b34565b9060e0600319830112610015576004356001600160a01b038116810361001557916024359067ffffffffffffffff821161001557611b9191600401611986565b9060443590606435906084356003811015610015579060a4359060c43590565b15611bb857565b606460405162461bcd60e51b815260206004820152601c60248201527f63616c6c6572206973206e6f742073746174696f6e206b6565706572000000006044820152fd5b60031115610aa457565b60005b838110611c195750506000910152565b8181015183820152602001611c09565b90601f19601f602093611c4781518092818752878088019101611c06565b0116010190565b91908203918211611c5b57565b634e487b7160e01b600052601160045260246000fd5b8051821015611c855760209160051b010190565b634e487b7160e01b600052603260045260246000fd5b6020818303126100155780519067ffffffffffffffff8211610015570190610180828203126100155760405191610180830183811067ffffffffffffffff8211176118f95760405280516001600160a01b0381168103610015578352602081015160038110156100155760208401526040810151600881101561001557604084015260608101516003811015610015576060840152608081015167ffffffffffffffff81116100155781019180601f8401121561001557825192611d5e8461196a565b91611d6c6040519384611947565b848352602085830101116100155761016093611d8e9160208085019101611c06565b608084015260a081015160a084015260c081015160c084015260e081015160e0840152610100810151610100840152610120810151610120840152610140810151610140840152015161016082015290565b91908201809211611c5b57565b6001600160a01b03168015611e8a576001600160a01b037f9016d09d72d40fdae2fd8ceac6b6234c7706214fd39c1cd1e609a0528c199300548273ffffffffffffffffffffffffffffffffffffffff198216177f9016d09d72d40fdae2fd8ceac6b6234c7706214fd39c1cd1e609a0528c19930055167f8be0079c531659141344cd1fd0a4f28419497f9722a3daafe3b4186f6b6457e0600080a3565b7f1e4fbdf700000000000000000000000000000000000000000000000000000000600052600060045260246000fd5b60081115610aa457565b90600454916001600160a01b036000931690813b1561063a578391611f1f916040518095819482937fd0e3d0dc000000000000000000000000000000000000000000000000000000008452604060048501526044840190611c29565b90611f2981611bfc565b602483015203915afa801561029757611f40575050565b81611f4a91611947565b50565b6000906001600160a01b036002541690813b15610a80576001600160a01b03604484928360405195869485937f9048f2e00000000000000000000000000000000000000000000000000000000085521660048401528160248401525af1801561029757611f40575050565b600254906001600160a01b036000921690813b15610a80576001600160a01b03604484928360405195869485937f9048f2e0000000000000000000000000000000000000000000000000000000008552166004840152600a60248401525af1801561029757611f40575050565b9692979395919490956000986001600160a01b036003541697883b15610aba57612078906001600160a01b036040519b63bfffc8bb60e01b8d521660048c015261018060248c01526101848b0190611c29565b9661208281611bfc565b60448a0152600160648a0152608489015260a488015260c487015260e4860187905261010486015261012485015261014484018590526101648401528391839182900390829034905af1801561029757611f40575050565b9591939692969490946000976001600160a01b036003541696873b156121915761212d906001600160a01b036040519a63bfffc8bb60e01b8c521660048b015261018060248b01526101848a0190611c29565b9561213781611bfc565b604489015260026064890152608488015260a487015260c4860187905260e4860152610104850186905261012485015260016101448501526101648401528391839182900390829034905af1801561029757611f40575050565b8980fd5b6001600160a01b037f9016d09d72d40fdae2fd8ceac6b6234c7706214fd39c1cd1e609a0528c199300541633036121c857565b7f118cdaa7000000000000000000000000000000000000000000000000000000006000523360045260246000fd5b60009060033d1161220357565b905060046000803e60005160e01c90565b600060443d1061227b576040516003193d016004823e8051913d602484011167ffffffffffffffff841117612286578282019283519167ffffffffffffffff831161227e576003193d8501016020848701011161227e575061227b92910160200190611947565b90565b949350505050565b92915050565b3d156122b7573d9061229d8261196a565b916122ab6040519384611947565b82523d6000602084013e565b606090565b92969594916122e5906001600160a01b0360a0969316855260c0602086015260c0850190611c29565b96604084015260608301526122f981611bfc565b60808201520152565b939060c095926001600160a01b0361232d929a9998959a16865260e0602087015260e0860190611c29565b976040850152606084015261234181611bfc565b608083015260a08201520152565b906003546001600160a01b036000911691604051927f0c3fc6b90000000000000000000000000000000000000000000000000000000084528460048501528284602481845afa938415610a99578394613771575b509060c0602492604051938480927f0187703f0000000000000000000000000000000000000000000000000000000082528960048301525afa918215610a995783926136d5575b506001825114806136b5575b6130485761016084018051421161302f57604460206001600160a01b0360045416604051928380927fe6b34c690000000000000000000000000000000000000000000000000000000082528b60048301528760248301525afa908115613024578591612fe9575b5061246b575b505050505050565b60018351146128fe575060c08401908152606084016001815161248d81611bfc565b61249681611bfc565b0361273c57506124b060e085015161010086015190611de0565b6001600160a01b03855116916080860190815160a0880194855192519460208a01958651906124de82611bfc565b303b15610aba578a94928d86959361252493604051998a9788977ffffbe51900000000000000000000000000000000000000000000000000000000895260048901612302565b038183305af19182612723575b505061264d57505050506001906125466121f6565b6308c379a0146125d0575b50612565575b50505b388080808080612463565b7f4c94adf18d8bfad12d476c7b93150b992bfa3fb9a83d713dd8a97359b7413f82916125a36001600160a01b0361259a61228c565b93511682613bf4565b6125c6604051928392600584526020840152606060408401526060830190611c29565b0390a13880612557565b6125d8612214565b90816125e5575b50612551565b7f356c1ed0403936d05af0abea05fbda16720ce964f55d7010cee1ba6cd8e1f60a91925061264390926126226001600160a01b0386511687613bf4565b60405191829160058352876020840152606060408401526060830190611c29565b0390a138806125df565b61012086959897949601918251966002815114612680575b50505050508461267e9495505060036040830152613b72565b565b60408101805115801590612716575b61269a575b50612665565b9091929394976126af9060011c809651611c4e565b9760806001600160a01b0389511695519451916126cb83611bfc565b519251930151936312cc0300420195864211612702579161267e9b9c979593916126f69795936120da565b94933880808080612694565b60248d634e487b7160e01b81526011600452fd5b506080820151151561268f565b8161272d91611947565b612738578538612531565b8580fd5b60029192505161274b81611bfc565b61275481611bfc565b14612763575b5050505061255a565b6001600160a01b0383511660808401519060a0850151925160208601519061278a82611bfc565b303b1561273857916127b6888795938695604051988996879663cd3fd61760e01b8852600488016122bc565b038183305af191826128e9575b50506128cf576001906127d46121f6565b6308c379a014612852575b506127f0575b50503880808061275a565b7f4c94adf18d8bfad12d476c7b93150b992bfa3fb9a83d713dd8a97359b7413f82916128256001600160a01b0361259a61228c565b612848604051928392600684526020840152606060408401526060830190611c29565b0390a138806127e5565b61285a612214565b9081612867575b506127df565b7f356c1ed0403936d05af0abea05fbda16720ce964f55d7010cee1ba6cd8e1f60a9192506128c590926128a46001600160a01b0386511687613bf4565b60405191829160068352876020840152606060408401526060830190611c29565b0390a13880612861565b506003604082015261012081015161267e92909190613b72565b816128f391611947565b610a7c5781386127c3565b90916101208501918251906001606088015161291981611bfc565b61292281611bfc565b14612932575b5050505050505050565b602083019182518015908115612fdb575b508015612faf575b8015612f83575b15612be5575050508260c08601526001600160a01b03855116926080860191825160a0880195865160208a019485519061298b82611bfc565b303b15610aba57928a93926129de9592859460405197889586957ffffbe519000000000000000000000000000000000000000000000000000000008752600487015260e0602487015260e4860190611c29565b92604485015260648401526129f281611bfc565b60848301528d60a48301528360c4830152038183305af19182612bd0575b5050612b26575050505050600190612a266121f6565b6308c379a014612aa9575b50612a47575b50505b3880808080808080612928565b7f4c94adf18d8bfad12d476c7b93150b992bfa3fb9a83d713dd8a97359b7413f8291612a7c6001600160a01b0361259a61228c565b612a9f604051928392600384526020840152606060408401526060830190611c29565b0390a13880612a37565b612ab1612214565b9081612abe575b50612a31565b7f356c1ed0403936d05af0abea05fbda16720ce964f55d7010cee1ba6cd8e1f60a919250612b1c9092612afb6001600160a01b0386511687613bf4565b60405191829160038352876020840152606060408401526060830190611c29565b0390a13880612ab8565b612b3c849998959796995160011c809551611c4e565b966040820190815115801590612bc3575b612b71575b50505050505084612b6c9495505060036040830152613b72565b612a3a565b60806001600160a01b038951169551945191612b8c83611bfc565b519251930151936312cc03004201958642116127025791612b6c9b9c97959391612bb79795936120da565b94933880808080612b52565b5060808301511515612b4d565b81612bda91611947565b61086e578638612a10565b9193509193506001600160a01b038695979651169060808601519260a0870151945190602088015190612c1782611bfc565b5191303b15610aba57928a959392612c6092879694604051998a9788977fc3eea55900000000000000000000000000000000000000000000000000000000895260048901612302565b038183305af19182612f6e575b5050612d7857509091600190612c816121f6565b6308c379a014612cfb575b50612c99575b5050612a3a565b7f4c94adf18d8bfad12d476c7b93150b992bfa3fb9a83d713dd8a97359b7413f8291612cce6001600160a01b0361259a61228c565b612cf1604051928392600484526020840152606060408401526060830190611c29565b0390a13880612c92565b612d03612214565b9081612d10575b50612c8c565b7f356c1ed0403936d05af0abea05fbda16720ce964f55d7010cee1ba6cd8e1f60a919250612d6e9092612d4d6001600160a01b0386511687613bf4565b60405191829160048352876020840152606060408401526060830190611c29565b0390a13880612d0a565b6040810190815115801590612f61575b612e28575b505060400190600382526001600160a01b0360035416915190612daf82611eb9565b823b1561063a5790606484928360405195869485937fac89c7980000000000000000000000000000000000000000000000000000000085526004850152612df581611eb9565b60248401528160448401525af1801561029757612e13575050612a3a565b612e1e828092611947565b6102945780612c92565b6001600160a01b036003541691604051907f49138690000000000000000000000000000000000000000000000000000000008252602082600481875afa918215612f56578792612f22575b506000198201918211612f0e576080905192015192803b1561086e578692918360e49260405196879586947fbe63309e000000000000000000000000000000000000000000000000000000008652600486015260026024860152836044860152606485015282608485015260a48401528160c48401525af180156102c05790849115612d8d5781612f0391611947565b610a80578238612d8d565b602487634e487b7160e01b81526011600452fd5b9091506020813d602011612f4e575b81612f3e60209383611947565b8101031261001557519038612e73565b3d9150612f31565b6040513d89823e3d90fd5b5060808101511515612d88565b81612f7891611947565b610636578438612c6d565b5060026020890151612f9481611bfc565b612f9d81611bfc565b14801561295257508251861015612952565b5060016020890151612fc081611bfc565b612fc981611bfc565b14801561294b5750825186111561294b565b905060c08901511438612943565b90506020813d60201161301c575b8161300460209383611947565b8101031261063657518015158103610636573861245d565b3d9150612ff7565b6040513d87823e3d90fd5b50505050906001600160a01b0361267e92511690613bf4565b906040810191825115806136a9575b801561369b575b8015613652575b613635578092849281511515806135ca575b156134a557606001918251801592831561349a575b50508115613467575b8115613431575b50156134285750506001905b61012084018051921561323e57506001600160a01b0384511660808501519060a0860151926020870151906130dc82611bfc565b303b1561086e5791613108898895938695604051988996879663cd3fd61760e01b8852600488016122bc565b038183305af19182613229575b505061321557506001906131276121f6565b6308c379a014613198575b5061313b575050565b7f4c94adf18d8bfad12d476c7b93150b992bfa3fb9a83d713dd8a97359b7413f82916131706001600160a01b0361259a61228c565b613193604051928392600184526020840152606060408401526060830190611c29565b0390a1565b6131a0612214565b90816131ad575b50613132565b7f356c1ed0403936d05af0abea05fbda16720ce964f55d7010cee1ba6cd8e1f60a91925061320b90926131ea6001600160a01b0386511687613bf4565b60405191829160018352876020840152606060408401526060830190611c29565b0390a138806131a7565b6003604084015261267e9390929150613b72565b8161323391611947565b610a80578238613115565b9161324e9060011c809351611c4e565b916001600160a01b0360035416906001600160a01b0386511660808701519160208801519061327c82611bfc565b60a0890151956101608a015190863b156121915792899694919287936132c997956040519a8b998a98899763bfffc8bb60e01b895260048901526101806024890152610184880190611c29565b946132d381611bfc565b604487015260026064870152608486015260a48501528460c48501528460e4850152846101048501526101248401528361014484015261016483015203925af19081613414575b50613215575060019061332b6121f6565b6308c379a014613397575b5061333f575050565b7f4c94adf18d8bfad12d476c7b93150b992bfa3fb9a83d713dd8a97359b7413f82916133746001600160a01b0361259a61228c565b613193604051928392600284526020840152606060408401526060830190611c29565b61339f612214565b90816133ac575b50613336565b7f356c1ed0403936d05af0abea05fbda16720ce964f55d7010cee1ba6cd8e1f60a91925061340a90926133e96001600160a01b0386511687613bf4565b60405191829160028352876020840152606060408401526060830190611c29565b0390a138806133a6565b8361342191949294611947565b913861331a565b909150516130a8565b90506002602087015161344381611bfc565b61344c81611bfc565b14908161345b575b503861309c565b90508151101538613454565b90506001602087015161347981611bfc565b61348281611bfc565b148061348f575b90613095565b508082511115613489565b51149150388061308c565b90506080810190815115158061355f575b156129285760a0019182518015928315613554575b50508115613521575b81156134eb575b50156134285750506001906130a8565b9050600260208701516134fd81611bfc565b61350681611bfc565b149081613515575b50386134db565b9050815110153861350e565b90506001602087015161353381611bfc565b61353c81611bfc565b1480613549575b906134d4565b508082511115613543565b5114915038806134cb565b50602087016001815161357181611bfc565b61357a81611bfc565b1490816135be575b811561358f575b506134b6565b600291505161359d81611bfc565b6135a681611bfc565b14806135b3575b38613589565b5081518310156135ad565b83518511159150613582565b5060208701600181516135dc81611bfc565b6135e581611bfc565b149081613629575b81156135fa575b50613077565b600291505161360881611bfc565b61361181611bfc565b148061361e575b386135f4565b508151831115613618565b835185101591506135ed565b505060036040840152505061012081015161267e92909190613b72565b50604085016001815161366481611eb9565b61366d81611eb9565b1415908161367c575b50613065565b600291505161368a81611eb9565b61369381611eb9565b141538613676565b50610160850151421161305e565b50608082015115613057565b50600260608501516136c681611bfc565b6136cf81611bfc565b146123f6565b90915060c0813d60c011613769575b816136f160c09383611947565b81010312610a80576040519060c0820182811067ffffffffffffffff821117613755579060a0916040528051835260208101516020840152604081015160408401526060810151606084015260808101516080840152015160a082015290386123ea565b602485634e487b7160e01b81526041600452fd5b3d91506136e4565b60249291945061378c60c0913d8087833e6110c88183611947565b949192506123a3565b600060c06040516137a58161190f565b8281528260208201528260408201528260608201528260808201528260a082015201526001600160a01b0360025416916001600160a01b03604051927fe1fb28b800000000000000000000000000000000000000000000000000000000845216600483015260406024830152602082806138226044820185611c29565b0381865afa91821561396b576000926139c4575b5090602061387892604051809481927f05ca57cf0000000000000000000000000000000000000000000000000000000083528460048401526024830190611c29565b0381865afa91821561396b57600092613977575b50916001600160a01b0360849260e0959460405197889687957f07ec44660000000000000000000000000000000000000000000000000000000087526004870152602486015260448501526064840152165afa90811561396b576000916138f1575090565b905060e0813d60e011613963575b8161390c60e09383611947565b810103126100155760c0604051916139238361190f565b805183526020810151602084015260408101516040840152606081015160608401526080810151608084015260a081015160a0840152015160c082015290565b3d91506138ff565b6040513d6000823e3d90fd5b6020929192813d6020116139bc575b8161399360209383611947565b81010312610a7c5751906001600160a01b03821682036102945750906001600160a01b0361388c565b3d9150613986565b91506020823d6020116139f1575b816139df60209383611947565b81010312610015579051906020613836565b3d91506139d2565b60006080604051613a098161192b565b828152826020820152826040820152826060820152015260a06001600160a01b03602481600254169360405194859384927ffb47e0160000000000000000000000000000000000000000000000000000000084521660048301525afa90811561396b57600091613a77575090565b905060a0813d60a011613ad5575b81613a9260a09383611947565b8101031261001557608060405191613aa98361192b565b805183526020810151602084015260408101516040840152606081015160608401520151608082015290565b3d9150613a85565b90600254916001600160a01b0360009316803b1561063a5760c48492836001600160a01b0393608060405197889687957fc9f35c3900000000000000000000000000000000000000000000000000000000875216600486015280516024860152602081015160448601526040810151606486015260608101516084860152015160a48401525af1801561029757611f40575050565b91906003549260406001600160a01b036000951692015191613b9383611eb9565b803b15610636578492918360649260405196879586947fac89c7980000000000000000000000000000000000000000000000000000000086526004860152613bda81611eb9565b602485015260448401525af1801561029757611f40575050565b906000916001600160a01b0360045416803b1561063a579160648492836001600160a01b039560405196879586947fc2b3356400000000000000000000000000000000000000000000000000000000865260048601521660248401528160448401525af1801561029757611f40575050565b60ff7ff0c57e16840df040f15088dc2f81fe391c3923bec73e23a9662efc9c229c6a005460401c1615613c9557565b7fd7e6bcf80000000000000000000000000000000000000000000000000000000060005260046000fdfea26469706673582212201044d57383bbb8b1cc7abc07f9fd46b282dcd283f6062f39bc9dc4fde906812e64736f6c634300081c0033",
  "linkReferences": {},
  "deployedLinkReferences": {}
}