{
  "_format": "hh-sol-artifact-1",
  "contractName": "Underlying",
  "sourceName": "contracts/Underlying.sol",
  "abi": [
    {
      "inputs": [],
      "name": "InvalidInitialization",
      "type": "error"
    },
    {
      "inputs": [],
      "name": "NotInitializing",
      "type": "error"
    },
    {
      "inputs": [
        {
          "internalType": "address",
          "name": "owner",
          "type": "address"
        }
      ],
      "name": "OwnableInvalidOwner",
      "type": "error"
    },
    {
      "inputs": [
        {
          "internalType": "address",
          "name": "account",
          "type": "address"
        }
      ],
      "name": "OwnableUnauthorizedAccount",
      "type": "error"
    },
    {
      "anonymous": false,
      "inputs": [
        {
          "indexed": false,
          "internalType": "address",
          "name": "token",
          "type": "address"
        },
        {
          "indexed": false,
          "internalType": "address",
          "name": "holder",
          "type": "address"
        },
        {
          "indexed": false,
          "internalType": "string",
          "name": "name",
          "type": "string"
        },
        {
          "indexed": false,
          "internalType": "enum ICommon.Direct",
          "name": "direct",
          "type": "uint8"
        },
        {
          "indexed": false,
          "internalType": "uint256",
          "name": "value",
          "type": "uint256"
        },
        {
          "indexed": false,
          "internalType": "uint256",
          "name": "size",
          "type": "uint256"
        },
        {
          "indexed": false,
          "internalType": "uint256",
          "name": "margin",
          "type": "uint256"
        },
        {
          "indexed": false,
          "internalType": "uint256",
          "name": "freeze",
          "type": "uint256"
        }
      ],
      "name": "AccountPosition",
      "type": "event"
    },
    {
      "anonymous": false,
      "inputs": [
        {
          "indexed": false,
          "internalType": "address",
          "name": "taker",
          "type": "address"
        },
        {
          "indexed": false,
          "internalType": "uint256",
          "name": "amount",
          "type": "uint256"
        },
        {
          "indexed": false,
          "internalType": "uint256",
          "name": "availableAmount",
          "type": "uint256"
        },
        {
          "indexed": false,
          "internalType": "uint256",
          "name": "marginAmount",
          "type": "uint256"
        },
        {
          "indexed": false,
          "internalType": "uint256",
          "name": "locked",
          "type": "uint256"
        },
        {
          "indexed": false,
          "internalType": "uint256",
          "name": "stage",
          "type": "uint256"
        },
        {
          "indexed": false,
          "internalType": "uint256",
          "name": "dif",
          "type": "uint256"
        }
      ],
      "name": "BalanceOfTaker",
      "type": "event"
    },
    {
      "anonymous": false,
      "inputs": [
        {
          "indexed": false,
          "internalType": "string",
          "name": "name",
          "type": "string"
        },
        {
          "indexed": true,
          "internalType": "address",
          "name": "taker",
          "type": "address"
        },
        {
          "indexed": true,
          "internalType": "address",
          "name": "token",
          "type": "address"
        },
        {
          "indexed": false,
          "internalType": "uint256",
          "name": "orderID",
          "type": "uint256"
        },
        {
          "indexed": false,
          "internalType": "enum ICommon.Direct",
          "name": "orderType",
          "type": "uint8"
        },
        {
          "indexed": false,
          "internalType": "enum IPerpetual.OrderState",
          "name": "state",
          "type": "uint8"
        },
        {
          "indexed": false,
          "internalType": "enum ICommon.Offset",
          "name": "offset",
          "type": "uint8"
        },
        {
          "indexed": false,
          "internalType": "uint256",
          "name": "amount",
          "type": "uint256"
        },
        {
          "indexed": false,
          "internalType": "uint256",
          "name": "targetPrice",
          "type": "uint256"
        },
        {
          "indexed": false,
          "internalType": "uint256",
          "name": "margin",
          "type": "uint256"
        },
        {
          "indexed": false,
          "internalType": "uint256",
          "name": "rewardGas",
          "type": "uint256"
        },
        {
          "indexed": false,
          "internalType": "uint256",
          "name": "tradingFee",
          "type": "uint256"
        },
        {
          "indexed": false,
          "internalType": "uint256",
          "name": "startTime",
          "type": "uint256"
        },
        {
          "indexed": false,
          "internalType": "uint256",
          "name": "goodTill",
          "type": "uint256"
        }
      ],
      "name": "CreateLimitedOrder",
      "type": "event"
    },
    {
      "anonymous": false,
      "inputs": [
        {
          "indexed": false,
          "internalType": "uint256",
          "name": "limitOrderID",
          "type": "uint256"
        },
        {
          "indexed": false,
          "internalType": "uint256",
          "name": "openLimitPrice",
          "type": "uint256"
        },
        {
          "indexed": false,
          "internalType": "uint256",
          "name": "gainTriggerPrice",
          "type": "uint256"
        },
        {
          "indexed": false,
          "internalType": "uint256",
          "name": "gainLimitPrice",
          "type": "uint256"
        },
        {
          "indexed": false,
          "internalType": "uint256",
          "name": "lossTriggerPrice",
          "type": "uint256"
        },
        {
          "indexed": false,
          "internalType": "uint256",
          "name": "lossLimitPrice",
          "type": "uint256"
        }
      ],
      "name": "CreateTriggerCondition",
      "type": "event"
    },
    {
      "anonymous": false,
      "inputs": [
        {
          "indexed": false,
          "internalType": "uint256",
          "name": "code",
          "type": "uint256"
        },
        {
          "indexed": false,
          "internalType": "uint256",
          "name": "orderID",
          "type": "uint256"
        },
        {
          "indexed": false,
          "internalType": "string",
          "name": "message",
          "type": "string"
        }
      ],
      "name": "ErrorInfo",
      "type": "event"
    },
    {
      "anonymous": false,
      "inputs": [
        {
          "indexed": false,
          "internalType": "uint256",
          "name": "code",
          "type": "uint256"
        },
        {
          "indexed": false,
          "internalType": "uint256",
          "name": "orderID",
          "type": "uint256"
        },
        {
          "indexed": false,
          "internalType": "bytes",
          "name": "message",
          "type": "bytes"
        }
      ],
      "name": "ExceptErrorInfo",
      "type": "event"
    },
    {
      "anonymous": false,
      "inputs": [
        {
          "indexed": false,
          "internalType": "uint64",
          "name": "version",
          "type": "uint64"
        }
      ],
      "name": "Initialized",
      "type": "event"
    },
    {
      "anonymous": false,
      "inputs": [
        {
          "indexed": false,
          "internalType": "string",
          "name": "name",
          "type": "string"
        },
        {
          "indexed": true,
          "internalType": "address",
          "name": "taker",
          "type": "address"
        },
        {
          "indexed": true,
          "internalType": "address",
          "name": "token",
          "type": "address"
        },
        {
          "indexed": false,
          "internalType": "uint256",
          "name": "orderID",
          "type": "uint256"
        },
        {
          "indexed": false,
          "internalType": "enum ICommon.Direct",
          "name": "orderType",
          "type": "uint8"
        },
        {
          "indexed": false,
          "internalType": "enum IPerpetual.OrderState",
          "name": "state",
          "type": "uint8"
        },
        {
          "indexed": false,
          "internalType": "enum ICommon.Offset",
          "name": "offset",
          "type": "uint8"
        },
        {
          "indexed": false,
          "internalType": "uint256",
          "name": "amount",
          "type": "uint256"
        },
        {
          "indexed": false,
          "internalType": "uint256",
          "name": "targetPrice",
          "type": "uint256"
        },
        {
          "indexed": false,
          "internalType": "uint256",
          "name": "margin",
          "type": "uint256"
        },
        {
          "indexed": false,
          "internalType": "uint256",
          "name": "rewardGas",
          "type": "uint256"
        },
        {
          "indexed": false,
          "internalType": "uint256",
          "name": "tradingFee",
          "type": "uint256"
        },
        {
          "indexed": false,
          "internalType": "uint256",
          "name": "startTime",
          "type": "uint256"
        },
        {
          "indexed": false,
          "internalType": "uint256",
          "name": "goodTill",
          "type": "uint256"
        }
      ],
      "name": "LimitedOrderHistory",
      "type": "event"
    },
    {
      "anonymous": false,
      "inputs": [
        {
          "indexed": true,
          "internalType": "address",
          "name": "taker",
          "type": "address"
        },
        {
          "indexed": false,
          "internalType": "string",
          "name": "name",
          "type": "string"
        },
        {
          "indexed": false,
          "internalType": "address",
          "name": "token",
          "type": "address"
        },
        {
          "indexed": false,
          "internalType": "uint256",
          "name": "orderID",
          "type": "uint256"
        },
        {
          "indexed": false,
          "internalType": "enum ICommon.Direct",
          "name": "direction",
          "type": "uint8"
        },
        {
          "indexed": false,
          "internalType": "enum IPerpetual.OrderType",
          "name": "orderType",
          "type": "uint8"
        },
        {
          "indexed": false,
          "internalType": "uint256",
          "name": "amount",
          "type": "uint256"
        },
        {
          "indexed": false,
          "internalType": "uint256",
          "name": "costPrice",
          "type": "uint256"
        },
        {
          "indexed": false,
          "internalType": "uint256",
          "name": "price",
          "type": "uint256"
        },
        {
          "indexed": false,
          "internalType": "uint256",
          "name": "tradingFee",
          "type": "uint256"
        },
        {
          "indexed": false,
          "internalType": "uint256",
          "name": "limitOrderId",
          "type": "uint256"
        },
        {
          "indexed": false,
          "internalType": "uint256",
          "name": "timestamp",
          "type": "uint256"
        }
      ],
      "name": "OrderHistory",
      "type": "event"
    },
    {
      "anonymous": false,
      "inputs": [
        {
          "indexed": true,
          "internalType": "address",
          "name": "previousOwner",
          "type": "address"
        },
        {
          "indexed": true,
          "internalType": "address",
          "name": "newOwner",
          "type": "address"
        }
      ],
      "name": "OwnershipTransferred",
      "type": "event"
    },
    {
      "anonymous": false,
      "inputs": [
        {
          "indexed": false,
          "internalType": "uint256",
          "name": "period",
          "type": "uint256"
        },
        {
          "indexed": false,
          "internalType": "uint256",
          "name": "gap",
          "type": "uint256"
        }
      ],
      "name": "SetFuzzyPrice",
      "type": "event"
    },
    {
      "anonymous": false,
      "inputs": [
        {
          "indexed": false,
          "internalType": "address",
          "name": "token",
          "type": "address"
        },
        {
          "indexed": false,
          "internalType": "uint256",
          "name": "orderID",
          "type": "uint256"
        },
        {
          "indexed": false,
          "internalType": "uint256",
          "name": "dealID",
          "type": "uint256"
        },
        {
          "indexed": false,
          "internalType": "enum IPerpetual.TradeType",
          "name": "tradeType",
          "type": "uint8"
        },
        {
          "indexed": false,
          "internalType": "uint256",
          "name": "amount",
          "type": "uint256"
        },
        {
          "indexed": false,
          "internalType": "uint256",
          "name": "price",
          "type": "uint256"
        },
        {
          "indexed": false,
          "internalType": "uint256",
          "name": "tradingFee",
          "type": "uint256"
        },
        {
          "indexed": false,
          "internalType": "uint256",
          "name": "profit",
          "type": "uint256"
        },
        {
          "indexed": false,
          "internalType": "uint256",
          "name": "loss",
          "type": "uint256"
        },
        {
          "indexed": false,
          "internalType": "uint256",
          "name": "timestamp",
          "type": "uint256"
        }
      ],
      "name": "TradeHistory",
      "type": "event"
    },
    {
      "anonymous": false,
      "inputs": [
        {
          "indexed": true,
          "internalType": "address",
          "name": "token",
          "type": "address"
        },
        {
          "indexed": true,
          "internalType": "address",
          "name": "sender",
          "type": "address"
        },
        {
          "indexed": true,
          "internalType": "address",
          "name": "received",
          "type": "address"
        },
        {
          "indexed": false,
          "internalType": "enum ICommon.TransactionType",
          "name": "transactionType",
          "type": "uint8"
        },
        {
          "indexed": false,
          "internalType": "uint256",
          "name": "amount",
          "type": "uint256"
        },
        {
          "indexed": false,
          "internalType": "uint256",
          "name": "timestamp",
          "type": "uint256"
        }
      ],
      "name": "TransactionHistory",
      "type": "event"
    },
    {
      "anonymous": false,
      "inputs": [
        {
          "indexed": false,
          "internalType": "address",
          "name": "sender",
          "type": "address"
        },
        {
          "indexed": false,
          "internalType": "string",
          "name": "name",
          "type": "string"
        },
        {
          "indexed": false,
          "internalType": "uint256",
          "name": "beforeLeverage",
          "type": "uint256"
        },
        {
          "indexed": false,
          "internalType": "uint256",
          "name": "afterLeverage",
          "type": "uint256"
        }
      ],
      "name": "setLeverage",
      "type": "event"
    },
    {
      "stateMutability": "nonpayable",
      "type": "fallback"
    },
    {
      "inputs": [
        {
          "internalType": "address",
          "name": "_primary",
          "type": "address"
        },
        {
          "internalType": "uint256",
          "name": "_amount",
          "type": "uint256"
        },
        {
          "internalType": "uint256",
          "name": "_price",
          "type": "uint256"
        },
        {
          "internalType": "uint256",
          "name": "_leverage",
          "type": "uint256"
        }
      ],
      "name": "getFees",
      "outputs": [
        {
          "components": [
            {
              "internalType": "uint256",
              "name": "total",
              "type": "uint256"
            },
            {
              "internalType": "uint256",
              "name": "marginAmount",
              "type": "uint256"
            },
            {
              "internalType": "uint256",
              "name": "tradingFee",
              "type": "uint256"
            },
            {
              "internalType": "uint256",
              "name": "totalLocked",
              "type": "uint256"
            },
            {
              "internalType": "uint256",
              "name": "currentPrice",
              "type": "uint256"
            },
            {
              "internalType": "uint256",
              "name": "dealPrice",
              "type": "uint256"
            },
            {
              "internalType": "uint256",
              "name": "amount",
              "type": "uint256"
            }
          ],
          "internalType": "struct IPerpetual.Fees",
          "name": "fee",
          "type": "tuple"
        }
      ],
      "stateMutability": "view",
      "type": "function"
    },
    {
      "inputs": [
        {
          "internalType": "address",
          "name": "_primary",
          "type": "address"
        }
      ],
      "name": "getPrice",
      "outputs": [
        {
          "internalType": "uint256",
          "name": "",
          "type": "uint256"
        }
      ],
      "stateMutability": "view",
      "type": "function"
    },
    {
      "inputs": [],
      "name": "getPrice",
      "outputs": [
        {
          "internalType": "uint256",
          "name": "",
          "type": "uint256"
        }
      ],
      "stateMutability": "view",
      "type": "function"
    },
    {
      "inputs": [],
      "name": "getSettleAddress",
      "outputs": [
        {
          "internalType": "address[]",
          "name": "",
          "type": "address[]"
        }
      ],
      "stateMutability": "view",
      "type": "function"
    },
    {
      "inputs": [
        {
          "internalType": "address",
          "name": "_primaryKey",
          "type": "address"
        }
      ],
      "name": "getSettleDetail",
      "outputs": [
        {
          "components": [
            {
              "internalType": "string",
              "name": "name",
              "type": "string"
            },
            {
              "internalType": "uint256",
              "name": "multi",
              "type": "uint256"
            },
            {
              "internalType": "address",
              "name": "settle",
              "type": "address"
            },
            {
              "internalType": "address",
              "name": "primary",
              "type": "address"
            },
            {
              "internalType": "address",
              "name": "privatePool",
              "type": "address"
            },
            {
              "internalType": "address",
              "name": "tradeAgent",
              "type": "address"
            },
            {
              "internalType": "address",
              "name": "orderBook",
              "type": "address"
            },
            {
              "internalType": "address",
              "name": "station",
              "type": "address"
            },
            {
              "internalType": "uint256",
              "name": "tradingFeeRate",
              "type": "uint256"
            },
            {
              "internalType": "uint256",
              "name": "rewardGas",
              "type": "uint256"
            },
            {
              "internalType": "uint256",
              "name": "minOrderAmount",
              "type": "uint256"
            },
            {
              "internalType": "uint256",
              "name": "leverage",
              "type": "uint256"
            },
            {
              "internalType": "uint256",
              "name": "lotMulti",
              "type": "uint256"
            },
            {
              "internalType": "uint256",
              "name": "version",
              "type": "uint256"
            },
            {
              "internalType": "uint256",
              "name": "status",
              "type": "uint256"
            }
          ],
          "internalType": "struct ICommon.PrimaryMultiItem",
          "name": "item",
          "type": "tuple"
        }
      ],
      "stateMutability": "view",
      "type": "function"
    },
    {
      "inputs": [],
      "name": "getSettles",
      "outputs": [
        {
          "components": [
            {
              "internalType": "string",
              "name": "name",
              "type": "string"
            },
            {
              "internalType": "uint256",
              "name": "multi",
              "type": "uint256"
            },
            {
              "internalType": "address",
              "name": "settle",
              "type": "address"
            },
            {
              "internalType": "address",
              "name": "primary",
              "type": "address"
            },
            {
              "internalType": "address",
              "name": "privatePool",
              "type": "address"
            },
            {
              "internalType": "address",
              "name": "tradeAgent",
              "type": "address"
            },
            {
              "internalType": "address",
              "name": "orderBook",
              "type": "address"
            },
            {
              "internalType": "address",
              "name": "station",
              "type": "address"
            },
            {
              "internalType": "uint256",
              "name": "tradingFeeRate",
              "type": "uint256"
            },
            {
              "internalType": "uint256",
              "name": "rewardGas",
              "type": "uint256"
            },
            {
              "internalType": "uint256",
              "name": "minOrderAmount",
              "type": "uint256"
            },
            {
              "internalType": "uint256",
              "name": "leverage",
              "type": "uint256"
            },
            {
              "internalType": "uint256",
              "name": "lotMulti",
              "type": "uint256"
            },
            {
              "internalType": "uint256",
              "name": "version",
              "type": "uint256"
            },
            {
              "internalType": "uint256",
              "name": "status",
              "type": "uint256"
            }
          ],
          "internalType": "struct ICommon.PrimaryMultiItem[]",
          "name": "",
          "type": "tuple[]"
        }
      ],
      "stateMutability": "view",
      "type": "function"
    },
    {
      "inputs": [
        {
          "internalType": "address",
          "name": "_initialOwner",
          "type": "address"
        },
        {
          "internalType": "address",
          "name": "_oracle",
          "type": "address"
        },
        {
          "internalType": "string",
          "name": "_name",
          "type": "string"
        }
      ],
      "name": "initialize",
      "outputs": [],
      "stateMutability": "nonpayable",
      "type": "function"
    },
    {
      "inputs": [],
      "name": "name",
      "outputs": [
        {
          "internalType": "string",
          "name": "",
          "type": "string"
        }
      ],
      "stateMutability": "view",
      "type": "function"
    },
    {
      "inputs": [],
      "name": "oracleProxy",
      "outputs": [
        {
          "internalType": "contract IOracleProxy",
          "name": "",
          "type": "address"
        }
      ],
      "stateMutability": "view",
      "type": "function"
    },
    {
      "inputs": [],
      "name": "owner",
      "outputs": [
        {
          "internalType": "address",
          "name": "",
          "type": "address"
        }
      ],
      "stateMutability": "view",
      "type": "function"
    },
    {
      "inputs": [],
      "name": "renounceOwnership",
      "outputs": [],
      "stateMutability": "nonpayable",
      "type": "function"
    },
    {
      "inputs": [],
      "name": "rewardGas",
      "outputs": [
        {
          "internalType": "uint256",
          "name": "",
          "type": "uint256"
        }
      ],
      "stateMutability": "view",
      "type": "function"
    },
    {
      "inputs": [
        {
          "internalType": "address",
          "name": "_Keeper",
          "type": "address"
        }
      ],
      "name": "setKeeper",
      "outputs": [],
      "stateMutability": "nonpayable",
      "type": "function"
    },
    {
      "inputs": [
        {
          "internalType": "address",
          "name": "_oracle",
          "type": "address"
        }
      ],
      "name": "setOracle",
      "outputs": [],
      "stateMutability": "nonpayable",
      "type": "function"
    },
    {
      "inputs": [
        {
          "components": [
            {
              "internalType": "string",
              "name": "name",
              "type": "string"
            },
            {
              "internalType": "uint256",
              "name": "multi",
              "type": "uint256"
            },
            {
              "internalType": "address",
              "name": "settle",
              "type": "address"
            },
            {
              "internalType": "address",
              "name": "primary",
              "type": "address"
            },
            {
              "internalType": "address",
              "name": "privatePool",
              "type": "address"
            },
            {
              "internalType": "address",
              "name": "tradeAgent",
              "type": "address"
            },
            {
              "internalType": "address",
              "name": "orderBook",
              "type": "address"
            },
            {
              "internalType": "address",
              "name": "station",
              "type": "address"
            },
            {
              "internalType": "uint256",
              "name": "tradingFeeRate",
              "type": "uint256"
            },
            {
              "internalType": "uint256",
              "name": "rewardGas",
              "type": "uint256"
            },
            {
              "internalType": "uint256",
              "name": "minOrderAmount",
              "type": "uint256"
            },
            {
              "internalType": "uint256",
              "name": "leverage",
              "type": "uint256"
            },
            {
              "internalType": "uint256",
              "name": "lotMulti",
              "type": "uint256"
            },
            {
              "internalType": "uint256",
              "name": "version",
              "type": "uint256"
            },
            {
              "internalType": "uint256",
              "name": "status",
              "type": "uint256"
            }
          ],
          "internalType": "struct ICommon.PrimaryMultiItem",
          "name": "item",
          "type": "tuple"
        }
      ],
      "name": "setSettleUnit",
      "outputs": [],
      "stateMutability": "nonpayable",
      "type": "function"
    },
    {
      "inputs": [
        {
          "internalType": "address",
          "name": "_primary",
          "type": "address"
        },
        {
          "internalType": "string",
          "name": "_name",
          "type": "string"
        },
        {
          "internalType": "uint256",
          "name": "_rewardGas",
          "type": "uint256"
        },
        {
          "internalType": "uint256",
          "name": "_leverage",
          "type": "uint256"
        },
        {
          "internalType": "uint256",
          "name": "_feeRate",
          "type": "uint256"
        },
        {
          "internalType": "uint256",
          "name": "_status",
          "type": "uint256"
        }
      ],
      "name": "setSettleUnitParams",
      "outputs": [],
      "stateMutability": "nonpayable",
      "type": "function"
    },
    {
      "inputs": [
        {
          "internalType": "address",
          "name": "newOwner",
          "type": "address"
        }
      ],
      "name": "transferOwnership",
      "outputs": [],
      "stateMutability": "nonpayable",
      "type": "function"
    },
    {
      "inputs": [
        {
          "internalType": "bytes",
          "name": "reportData",
          "type": "bytes"
        },
        {
          "internalType": "address",
          "name": "_primary",
          "type": "address"
        }
      ],
      "name": "verifyReport",
      "outputs": [
        {
          "internalType": "uint256",
          "name": "verifiedPrice",
          "type": "uint256"
        }
      ],
      "stateMutability": "payable",
      "type": "function"
    }
  ],
  "bytecode": "0x608080604052346015576121d3908161001b8239f35b600080fdfe6080604052600436101561001a575b3461001557005b600080fd5b60003560e01c806306fdde031461164357806307ec446614611427578063167b349e146114005780631cb945e1146111db578063233cc9381461116e57806341976e091461114b5780634571e3a614610d1b578063602933ef14610588578063715018a6146104ef578063748747e6146104a857806378cc416d1461048a5780637adbf973146103ee5780638da5cb5b146103a857806398d5fdca1461038d578063a666200f14610245578063b3d316c1146101dc578063f2fde38b146101b15763f3840d140361000e5734610015576000600319360112610015576040518060206007549283815201809260076000527fa66cc928b5edb82af9bd49922954155ab7b0942694bea4ce44661d9a8736c6889060005b8181106101925750505081610146910382611778565b6040519182916020830190602084525180915260408301919060005b818110610170575050500390f35b82516001600160a01b0316845285945060209384019390920191600101610162565b82546001600160a01b0316845260209093019260019283019201610130565b34610015576020600319360112610015576101da6101cd611887565b6101d56120e3565b612024565b005b60406003193601126100155760043567ffffffffffffffff8111610015573660238201121561001557806004013567ffffffffffffffff81116100155736602482840101116100155760209161023d91602461023661189d565b9201611e19565b604051908152f35b34610015576020600319360112610015576001600160a01b03610266611887565b61026e611a5c565b5016600052600860205261037e60406000206040519061028d8261175b565b6102968161179b565b8252600181015460208301526001600160a01b0360028201541660408301526001600160a01b0360038201541660608301526001600160a01b0360048201541660808301526001600160a01b0360058201541660a08301526001600160a01b0360068201541660c08301526001600160a01b0360078201541660e083015260088101546101008301526009810154600e610120840192828452600a810154610140860152600b810154610160860152600c810154610180860152600d8101546101a086015201546101c084015215610382575b506040519182916020835260208301906118c7565b0390f35b600254905282610369565b3461001557600060031936011261001557602061023d611d6a565b346100155760006003193601126100155760206001600160a01b037f9016d09d72d40fdae2fd8ceac6b6234c7706214fd39c1cd1e609a0528c1993005416604051908152f35b34610015576020600319360112610015576001600160a01b0361040f611887565b33600052600960205261042960ff60406000205416611b10565b168015610446576001600160a01b03196001541617600155600080f35b606460405162461bcd60e51b815260206004820152600e60248201527f6f7261636c65206973207a65726f0000000000000000000000000000000000006044820152fd5b34610015576000600319360112610015576020600254604051908152f35b34610015576020600319360112610015576001600160a01b036104c9611887565b6104d16120e3565b1660005260096020526040600020600160ff19825416179055600080f35b34610015576000600319360112610015576105086120e3565b60006001600160a01b037f9016d09d72d40fdae2fd8ceac6b6234c7706214fd39c1cd1e609a0528c199300546001600160a01b031981167f9016d09d72d40fdae2fd8ceac6b6234c7706214fd39c1cd1e609a0528c19930055167f8be0079c531659141344cd1fd0a4f28419497f9722a3daafe3b4186f6b6457e08280a3005b346100155760206003193601126100155760043567ffffffffffffffff8111610015576101e0600319823603011261001557604051906105c78261175b565b80600401359067ffffffffffffffff8211610015576105ef6101c492600436918401016119ca565b835260248101356020840152610607604482016118b3565b6040840152610618606482016118b3565b6060840152610629608482016118b3565b608084015261063a60a482016118b3565b60a084015261064b60c482016118b3565b60c084015261065c60e482016118b3565b60e08401526101048101356101008401526101248101356101208401526101448101356101408401526101648101356101608401526101848101356101808401526101a48101356101a084015201356101c08201523360005260096020526106cb60ff60406000205416611b10565b60208101516108ee576001600160a01b0360606020830151920151169015806108d4575b6106f557005b600090815b60075481101561088a57816001600160a01b0361071683611acb565b90549060031b1c16146107a25782610733575b6001905b016106fa565b6001600160a01b0361074482611acb565b90549060031b1c169083810381811161078c5760019261076661078592611acb565b9091906001600160a01b038084549260031b9316831b921b1916179055565b9050610729565b634e487b7160e01b600052601160045260246000fd5b91600019811461078c576001809101928260005260086020526000600e604082206107cd8154611721565b80610849575b50828582015582600282015582600382015582600482015582600582015582600682015582600782015582600882015582600982015582600a82015582600b82015582600c82015582600d820155015561084461082f82611acb565b6001600160a01b0382549160031b1b19169055565b61072d565b601f8111861461085e57508281555b876107d3565b8184526020842061087991601f0160051c8101908701611b5b565b808352826020812081835555610858565b505060005b81811061089857005b6007549081156108be57600019600192016108b561082f82611acb565b6007550161088f565b634e487b7160e01b600052603160045260246000fd5b5080600052600860205260016040600020015415156106ef565b600460006001600160a01b03604084015116604051928380927f95d89b410000000000000000000000000000000000000000000000000000000082525afa908115610d0f57600091610c89575b505115610c45576001600160a01b03606082015116600052600860205260016040600020015415610c0a575b6001600160a01b036060820151166000526008602052604060002090805180519067ffffffffffffffff8211610bf4576109a18454611721565b601f8111610bb7575b50602090601f8311600114610b4857826101c093600e95936109e293600092610b3d575b50506000198260011b9260031b1c19161790565b84555b602081015160018501556001600160a01b036040820151166001600160a01b036002860191166001600160a01b03198254161790556001600160a01b036060820151166001600160a01b036003860191166001600160a01b03198254161790556001600160a01b036080820151166001600160a01b036004860191166001600160a01b03198254161790556001600160a01b0360a0820151166001600160a01b036005860191166001600160a01b03198254161790556001600160a01b0360c0820151166001600160a01b036006860191166001600160a01b03198254161790556001600160a01b0360e0820151166001600160a01b036007860191166001600160a01b031982541617905561010081015160088501556101208101516009850155610140810151600a850155610160810151600b850155610180810151600c8501556101a0810151600d8501550151910155600080f35b0151905087806109ce565b9084600052806000209160005b601f1985168110610b9f575092600e94926001926101c09583601f19811610610b86575b505050811b0184556109e5565b015160001960f88460031b161c19169055868080610b79565b91926020600181928685015181550194019201610b55565b610be490856000526020600020601f850160051c81019160208610610bea575b601f0160051c0190611b5b565b846109aa565b9091508190610bd7565b634e487b7160e01b600052604160045260246000fd5b6001600160a01b036060820151166007549068010000000000000000821015610bf457610766826001610c409401600755611acb565b610967565b606460405162461bcd60e51b815260206004820152601b60248201527f536574746c652061646472657373206973206e6f7420746f6b656e00000000006044820152fd5b903d8082843e610c998184611778565b820191602081840312610d075780519067ffffffffffffffff8211610d0b570182601f82011215610d0757805191610cd0836119ae565b93610cde6040519586611778565b83855260208484010111610d04575090610cfe916020808501910161183f565b8261093b565b80fd5b5080fd5b8280fd5b6040513d6000823e3d90fd5b3461001557606060031936011261001557610d34611887565b610d3c61189d565b9060443567ffffffffffffffff811161001557610d5d9036906004016119ca565b917ff0c57e16840df040f15088dc2f81fe391c3923bec73e23a9662efc9c229c6a00549160ff8360401c16159267ffffffffffffffff811680159081611143575b6001149081611139575b159081611130575b50611106576001600160a01b0392818560017fffffffffffffffffffffffffffffffffffffffffffffffff0000000000000000879516177ff0c57e16840df040f15088dc2f81fe391c3923bec73e23a9662efc9c229c6a00556110b1575b50610e17612144565b610e1f612144565b610e2833612024565b610e306120e3565b610e3983612024565b166001600160a01b031960015416176001553360005260096020526040600020600160ff198254161790551660005260096020526040600020600160ff19825416179055815167ffffffffffffffff8111610bf457610e99600054611721565b601f811161101a575b50602092601f8211600114610f9957610ed392938291600092610f8e5750506000198260011b9260031b1c19161790565b6000555b620f4240600555670de0b6b3a764000060065566038d7ea4c68000600255610efb57005b7fffffffffffffffffffffffffffffffffffffffffffffff00ffffffffffffffff7ff0c57e16840df040f15088dc2f81fe391c3923bec73e23a9662efc9c229c6a0054167ff0c57e16840df040f15088dc2f81fe391c3923bec73e23a9662efc9c229c6a00557fc7f505b2f371ae2175ee4913f4499e1f2633a7b5936321eed1cdaeb6115181d2602060405160018152a1005b0151905084806109ce565b601f19821693600080527f290decd9548b62a8d60345a988386fc84ba6bc95484008f6362f93160ef3e5639160005b8681106110025750836001959610610fe9575b505050811b01600055610ed7565b015160001960f88460031b161c19169055838080610fdb565b91926020600181928685015181550194019201610fc8565b6110839060008052601f830160051c7f290decd9548b62a8d60345a988386fc84ba6bc95484008f6362f93160ef3e563019060208410611089575b601f0160051c7f290decd9548b62a8d60345a988386fc84ba6bc95484008f6362f93160ef3e5630190611b5b565b83610ea2565b7f290decd9548b62a8d60345a988386fc84ba6bc95484008f6362f93160ef3e5639150611055565b7fffffffffffffffffffffffffffffffffffffffffffffff0000000000000000001668010000000000000001177ff0c57e16840df040f15088dc2f81fe391c3923bec73e23a9662efc9c229c6a005586610e0e565b7ff92ee8a90000000000000000000000000000000000000000000000000000000060005260046000fd5b90501586610db0565b303b159150610da8565b859150610d9e565b3461001557602060031936011261001557602061023d611169611887565b611d04565b346100155760c060031936011261001557611187611887565b6024359067ffffffffffffffff8211610015576111ab6101da9236906004016119ca565b903360005260096020526111c660ff60406000205416611b10565b60a43591608435916064359160443591611b72565b34610015576000600319360112610015576007546111f881611a44565b906112066040519283611778565b808252601f1961121582611a44565b0160005b8181106113e957505060005b8181106112b057826040518091602082016020835281518091526040830190602060408260051b8601019301916000905b82821061126557505050500390f35b919360206112a0827fffffffffffffffffffffffffffffffffffffffffffffffffffffffffffffffc0600195979984950301865288516118c7565b9601920192018594939192611256565b806001600160a01b036112c4600193611acb565b90549060031b1c1660005260086020526040600020604051906112e68261175b565b6112ef8161179b565b82528381015460208301526001600160a01b0360028201541660408301526001600160a01b0360038201541660608301526001600160a01b0360048201541660808301526001600160a01b0360058201541660a08301526001600160a01b0360068201541660c08301526001600160a01b0360078201541660e083015260088101546101008301526009810154600e610120840192828452600a810154610140860152600b810154610160860152600c810154610180860152600d8101546101a086015201546101c0840152156113de575b506113cc8286611afc565b526113d78185611afc565b5001611225565b6002549052856113c1565b6020906113f4611a5c565b82828701015201611219565b346100155760006003193601126100155760206001600160a01b0360015416604051908152f35b3461001557608060031936011261001557611440611887565b6040516024359160443560643560e0840167ffffffffffffffff811185821017610bf4576040526000845260208401946000865260408501600081526115f660608701926000845260808801946000865260a0890196600088526001600160a01b0360c08b019960008b5216600052600860205289604060002091604051926114c88461175b565b6114d18161179b565b8452600181015460208501526001600160a01b0360028201541660408501526001600160a01b0360038201541660608501526001600160a01b0360048201541660808501526001600160a01b0360058201541660a08501526001600160a01b0360068201541660c08501526001600160a01b0360078201541660e085015260088101549361010081019485526009820154610120820152600a8201546101408201526101c0600e600b840154936101608401948552600c810154610180850152600d8101546101a08501520154910152818a52818b52858c528415611638575b50906115e56115c76115ea936115e59697611a11565b956115d56006548098611a24565b8093526115e56005548094611a11565b611a24565b8b528951905190611a11565b96878252805197880180981161078c5760e0978352604051965187525160208701525160408601525160608501525160808401525160a08301525160c0820152f35b5193506115e56115b1565b34610015576000600319360112610015576040516000805461166481611721565b80845290600181169081156116fd57506001146116a0575b61037e8361168c81850382611778565b604051918291602083526020830190611862565b60008080527f290decd9548b62a8d60345a988386fc84ba6bc95484008f6362f93160ef3e563939250905b8082106116e35750909150810160200161168c61167c565b9192600181602092548385880101520191019092916116cb565b60ff191660208086019190915291151560051b8401909101915061168c905061167c565b90600182811c92168015611751575b602083101461173b57565b634e487b7160e01b600052602260045260246000fd5b91607f1691611730565b6101e0810190811067ffffffffffffffff821117610bf457604052565b90601f601f19910116810190811067ffffffffffffffff821117610bf457604052565b90604051918260008254926117af84611721565b808452936001811690811561181d57506001146117d6575b506117d492500383611778565b565b90506000929192526020600020906000915b8183106118015750509060206117d492820101386117c7565b60209193508060019154838589010152019101909184926117e8565b602093506117d495925060ff1991501682840152151560051b820101386117c7565b60005b8381106118525750506000910152565b8181015183820152602001611842565b90601f19601f6020936118808151809281875287808801910161183f565b0116010190565b600435906001600160a01b038216820361001557565b602435906001600160a01b038216820361001557565b35906001600160a01b038216820361001557565b906101c0806118e184516101e085526101e0850190611862565b93602081015160208501526001600160a01b0360408201511660408501526001600160a01b0360608201511660608501526001600160a01b0360808201511660808501526001600160a01b0360a08201511660a08501526001600160a01b0360c08201511660c08501526001600160a01b0360e08201511660e08501526101008101516101008501526101208101516101208501526101408101516101408501526101608101516101608501526101808101516101808501526101a08101516101a0850152015191015290565b67ffffffffffffffff8111610bf457601f01601f191660200190565b81601f82011215610015578035906119e1826119ae565b926119ef6040519485611778565b8284526020838301011161001557816000926020809301838601378301015290565b8181029291811591840414171561078c57565b8115611a2e570490565b634e487b7160e01b600052601260045260246000fd5b67ffffffffffffffff8111610bf45760051b60200190565b60405190611a698261175b565b60006101c083606081528260208201528260408201528260608201528260808201528260a08201528260c08201528260e08201528261010082015282610120820152826101408201528261016082015282610180820152826101a08201520152565b600754811015611ae657600760005260206000200190600090565b634e487b7160e01b600052603260045260246000fd5b8051821015611ae65760209160051b010190565b15611b1757565b606460405162461bcd60e51b815260206004820152601f60248201527f63616c6c6572206973206e6f7420756e6465726c79696e67206b6565706572006044820152fd5b818110611b66575050565b60008155600101611b5b565b909594939192906001600160a01b03168015611cf9576000526008602052604060002092600184015415611cb557865167ffffffffffffffff8111610bf457611bbb8554611721565b601f8111611c83575b506020601f8211600114611c19579080611bf892600e98999a600092611c0e5750506000198260011b9260031b1c19161790565b84555b6009840155600b83015560088201550155565b0151905038806109ce565b601f1982169886600052816000209960005b818110611c6b575091600e98999a91846001959410611c52575b505050811b018455611bfb565b015160001960f88460031b161c19169055388080611c45565b838301518c556001909b019a60209384019301611c2b565b611caf90866000526020600020601f840160051c81019160208510610bea57601f0160051c0190611b5b565b38611bc4565b606460405162461bcd60e51b815260206004820152601460248201527f7072696d617279206973206e6f742065786973740000000000000000000000006044820152fd5b505050600255509050565b6001600160a01b03166000526008602052600160406000200154611d26611d6a565b908015611d4657611d3a90611d4392611a11565b60065490611a24565b90565b5090565b9190826040910312610015576020825192015160ff811681036100155790565b600460406001600160a01b03600154168151928380927ffeaf968c0000000000000000000000000000000000000000000000000000000082525afa908115610d0f57600090600092611ddf575b50611dc760ff9160065490611a11565b911690604d821161078c57611d4391600a0a90611a24565b611dc7925060ff9150611e099060403d604011611e12575b611e018183611778565b810190611d4a565b92909150611db7565b503d611df7565b60009190600a8211611f7c5750505034611efd575b600460406001600160a01b03600154168151928380927ffeaf968c0000000000000000000000000000000000000000000000000000000082525afa8015610d0f57600091600091611edc575b505b60ff611e8b6006548094611a11565b9116604d811161078c576001600160a01b0391611eab91600a0a90611a24565b92168015611ed75760005260086020526001604060002001548015611ed7576115e590611d4393611a11565b505090565b9050611ef7915060403d604011611e1257611e018183611778565b38611e7a565b600080808034325af13d15611f77573d611f16816119ae565b90611f246040519283611778565b8152600060203d92013e5b611e2e57606460405162461bcd60e51b815260206004820152600f60248201527f7472616e73666572206661696c656400000000000000000000000000000000006044820152fd5b611f2f565b81604091601f9360446001600160a01b036001541692601f198651978896879586947f1af189a400000000000000000000000000000000000000000000000000000000865260206004870152816024870152868601378a8582860101520116810103019134905af1908115612019578291611ff8575b50611e7c565b9050612013915060403d604011611e1257611e018183611778565b38611ff2565b6040513d84823e3d90fd5b6001600160a01b031680156120b4576001600160a01b037f9016d09d72d40fdae2fd8ceac6b6234c7706214fd39c1cd1e609a0528c19930054826001600160a01b03198216177f9016d09d72d40fdae2fd8ceac6b6234c7706214fd39c1cd1e609a0528c19930055167f8be0079c531659141344cd1fd0a4f28419497f9722a3daafe3b4186f6b6457e0600080a3565b7f1e4fbdf700000000000000000000000000000000000000000000000000000000600052600060045260246000fd5b6001600160a01b037f9016d09d72d40fdae2fd8ceac6b6234c7706214fd39c1cd1e609a0528c1993005416330361211657565b7f118cdaa7000000000000000000000000000000000000000000000000000000006000523360045260246000fd5b60ff7ff0c57e16840df040f15088dc2f81fe391c3923bec73e23a9662efc9c229c6a005460401c161561217357565b7fd7e6bcf80000000000000000000000000000000000000000000000000000000060005260046000fdfea26469706673582212202d4280c7acebe223fcb063bc9d7c09fdd750948c6067b837871a1c632148863664736f6c634300081c0033",
  "linkReferences": {},
  "deployedLinkReferences": {}
}