{
  "_format": "hh-sol-artifact-1",
  "contractName": "LeadingContractFactory",
  "sourceName": "contracts/LeadingContractFactory.sol",
  "abi": [
    {
      "inputs": [],
      "name": "InvalidInitialization",
      "type": "error"
    },
    {
      "inputs": [],
      "name": "NotInitializing",
      "type": "error"
    },
    {
      "inputs": [
        {
          "internalType": "address",
          "name": "owner",
          "type": "address"
        }
      ],
      "name": "OwnableInvalidOwner",
      "type": "error"
    },
    {
      "inputs": [
        {
          "internalType": "address",
          "name": "account",
          "type": "address"
        }
      ],
      "name": "OwnableUnauthorizedAccount",
      "type": "error"
    },
    {
      "inputs": [],
      "name": "ReentrancyGuardReentrantCall",
      "type": "error"
    },
    {
      "anonymous": false,
      "inputs": [
        {
          "indexed": true,
          "internalType": "address",
          "name": "newImplementation",
          "type": "address"
        }
      ],
      "name": "ImplementationUpdated",
      "type": "event"
    },
    {
      "anonymous": false,
      "inputs": [
        {
          "indexed": false,
          "internalType": "uint64",
          "name": "version",
          "type": "uint64"
        }
      ],
      "name": "Initialized",
      "type": "event"
    },
    {
      "anonymous": false,
      "inputs": [
        {
          "indexed": true,
          "internalType": "address",
          "name": "trader",
          "type": "address"
        },
        {
          "indexed": true,
          "internalType": "address",
          "name": "token",
          "type": "address"
        },
        {
          "indexed": false,
          "internalType": "address",
          "name": "contractAddress",
          "type": "address"
        },
        {
          "indexed": false,
          "internalType": "uint256",
          "name": "status",
          "type": "uint256"
        }
      ],
      "name": "LeadingContractAudit",
      "type": "event"
    },
    {
      "anonymous": false,
      "inputs": [
        {
          "indexed": true,
          "internalType": "address",
          "name": "trader",
          "type": "address"
        },
        {
          "indexed": true,
          "internalType": "address",
          "name": "token",
          "type": "address"
        },
        {
          "indexed": false,
          "internalType": "address",
          "name": "contractAddress",
          "type": "address"
        }
      ],
      "name": "LeadingContractCreated",
      "type": "event"
    },
    {
      "anonymous": false,
      "inputs": [
        {
          "indexed": true,
          "internalType": "address",
          "name": "trader",
          "type": "address"
        },
        {
          "indexed": true,
          "internalType": "address",
          "name": "token",
          "type": "address"
        }
      ],
      "name": "LeadingContractInfoUpdated",
      "type": "event"
    },
    {
      "anonymous": false,
      "inputs": [
        {
          "indexed": true,
          "internalType": "address",
          "name": "trader",
          "type": "address"
        },
        {
          "indexed": true,
          "internalType": "address",
          "name": "token",
          "type": "address"
        },
        {
          "indexed": false,
          "internalType": "address",
          "name": "contractAddress",
          "type": "address"
        }
      ],
      "name": "LeadingContractRemoved",
      "type": "event"
    },
    {
      "anonymous": false,
      "inputs": [
        {
          "indexed": true,
          "internalType": "address",
          "name": "trader",
          "type": "address"
        },
        {
          "indexed": true,
          "internalType": "address",
          "name": "token",
          "type": "address"
        },
        {
          "indexed": false,
          "internalType": "uint256",
          "name": "contractIndex",
          "type": "uint256"
        },
        {
          "indexed": false,
          "internalType": "bool",
          "name": "isActive",
          "type": "bool"
        }
      ],
      "name": "LeadingContractStatusUpdated",
      "type": "event"
    },
    {
      "anonymous": false,
      "inputs": [
        {
          "indexed": true,
          "internalType": "address",
          "name": "previousOwner",
          "type": "address"
        },
        {
          "indexed": true,
          "internalType": "address",
          "name": "newOwner",
          "type": "address"
        }
      ],
      "name": "OwnershipTransferred",
      "type": "event"
    },
    {
      "stateMutability": "payable",
      "type": "fallback"
    },
    {
      "inputs": [
        {
          "internalType": "address[]",
          "name": "_traders",
          "type": "address[]"
        },
        {
          "internalType": "address[]",
          "name": "_tokens",
          "type": "address[]"
        },
        {
          "internalType": "bool",
          "name": "_pass",
          "type": "bool"
        }
      ],
      "name": "auditLeadingContract",
      "outputs": [],
      "stateMutability": "nonpayable",
      "type": "function"
    },
    {
      "inputs": [
        {
          "internalType": "address",
          "name": "_token",
          "type": "address"
        },
        {
          "internalType": "address",
          "name": "_trader",
          "type": "address"
        },
        {
          "internalType": "string[]",
          "name": "_symbols",
          "type": "string[]"
        },
        {
          "internalType": "bytes[]",
          "name": "_priceUpdates",
          "type": "bytes[]"
        }
      ],
      "name": "autoDeleteInactiveContract",
      "outputs": [],
      "stateMutability": "payable",
      "type": "function"
    },
    {
      "inputs": [],
      "name": "bManager",
      "outputs": [
        {
          "internalType": "contract IBManager",
          "name": "",
          "type": "address"
        }
      ],
      "stateMutability": "view",
      "type": "function"
    },
    {
      "inputs": [
        {
          "internalType": "address",
          "name": "_tokenAddress",
          "type": "address"
        },
        {
          "internalType": "uint256",
          "name": "_commissionRate",
          "type": "uint256"
        },
        {
          "internalType": "string",
          "name": "_leadingProjectName",
          "type": "string"
        },
        {
          "internalType": "string",
          "name": "_leadingProjectDescription",
          "type": "string"
        }
      ],
      "name": "createLeadingContract",
      "outputs": [
        {
          "internalType": "address",
          "name": "",
          "type": "address"
        }
      ],
      "stateMutability": "nonpayable",
      "type": "function"
    },
    {
      "inputs": [
        {
          "internalType": "uint256",
          "name": "_days",
          "type": "uint256"
        }
      ],
      "name": "getAllLeadingContractInfo",
      "outputs": [
        {
          "components": [
            {
              "internalType": "address",
              "name": "contractAddress",
              "type": "address"
            },
            {
              "internalType": "address",
              "name": "traderAddress",
              "type": "address"
            },
            {
              "internalType": "string",
              "name": "traderName",
              "type": "string"
            },
            {
              "internalType": "string",
              "name": "traderDescription",
              "type": "string"
            },
            {
              "internalType": "address",
              "name": "tokenAddress",
              "type": "address"
            },
            {
              "internalType": "bool",
              "name": "isActive",
              "type": "bool"
            },
            {
              "internalType": "uint256",
              "name": "recentTotalShare",
              "type": "uint256"
            },
            {
              "internalType": "uint256",
              "name": "recentTotalBalance",
              "type": "uint256"
            },
            {
              "internalType": "uint256",
              "name": "pastTotalShare",
              "type": "uint256"
            },
            {
              "internalType": "uint256",
              "name": "pastTotalBalance",
              "type": "uint256"
            },
            {
              "internalType": "uint256",
              "name": "createTime",
              "type": "uint256"
            }
          ],
          "internalType": "struct LeadingContractFactory.LeadingContractInfo[]",
          "name": "",
          "type": "tuple[]"
        }
      ],
      "stateMutability": "view",
      "type": "function"
    },
    {
      "inputs": [
        {
          "internalType": "address",
          "name": "_trader",
          "type": "address"
        }
      ],
      "name": "getAllLeadingContractInfoByTrader",
      "outputs": [
        {
          "components": [
            {
              "internalType": "address",
              "name": "contractAddress",
              "type": "address"
            },
            {
              "internalType": "address",
              "name": "traderAddress",
              "type": "address"
            },
            {
              "internalType": "string",
              "name": "traderName",
              "type": "string"
            },
            {
              "internalType": "string",
              "name": "traderDescription",
              "type": "string"
            },
            {
              "internalType": "address",
              "name": "tokenAddress",
              "type": "address"
            },
            {
              "internalType": "bool",
              "name": "isActive",
              "type": "bool"
            },
            {
              "internalType": "uint256",
              "name": "recentTotalShare",
              "type": "uint256"
            },
            {
              "internalType": "uint256",
              "name": "recentTotalBalance",
              "type": "uint256"
            },
            {
              "internalType": "uint256",
              "name": "pastTotalShare",
              "type": "uint256"
            },
            {
              "internalType": "uint256",
              "name": "pastTotalBalance",
              "type": "uint256"
            },
            {
              "internalType": "uint256",
              "name": "createTime",
              "type": "uint256"
            }
          ],
          "internalType": "struct LeadingContractFactory.LeadingContractInfo[]",
          "name": "",
          "type": "tuple[]"
        }
      ],
      "stateMutability": "view",
      "type": "function"
    },
    {
      "inputs": [],
      "name": "getAllTraders",
      "outputs": [
        {
          "internalType": "address[]",
          "name": "",
          "type": "address[]"
        }
      ],
      "stateMutability": "view",
      "type": "function"
    },
    {
      "inputs": [],
      "name": "getDistributeProfitRate",
      "outputs": [
        {
          "internalType": "uint256",
          "name": "",
          "type": "uint256"
        },
        {
          "internalType": "uint256",
          "name": "",
          "type": "uint256"
        },
        {
          "internalType": "address",
          "name": "",
          "type": "address"
        }
      ],
      "stateMutability": "view",
      "type": "function"
    },
    {
      "inputs": [],
      "name": "getLeadingContractAddresses",
      "outputs": [
        {
          "internalType": "address[]",
          "name": "lists",
          "type": "address[]"
        }
      ],
      "stateMutability": "view",
      "type": "function"
    },
    {
      "inputs": [
        {
          "internalType": "address",
          "name": "trader",
          "type": "address"
        }
      ],
      "name": "getLeadingContractCount",
      "outputs": [
        {
          "internalType": "uint256",
          "name": "",
          "type": "uint256"
        }
      ],
      "stateMutability": "view",
      "type": "function"
    },
    {
      "inputs": [
        {
          "internalType": "address",
          "name": "_trader",
          "type": "address"
        },
        {
          "internalType": "address",
          "name": "_token",
          "type": "address"
        },
        {
          "internalType": "uint256",
          "name": "_days",
          "type": "uint256"
        }
      ],
      "name": "getLeadingContractInfo",
      "outputs": [
        {
          "components": [
            {
              "internalType": "address",
              "name": "contractAddress",
              "type": "address"
            },
            {
              "internalType": "address",
              "name": "traderAddress",
              "type": "address"
            },
            {
              "internalType": "string",
              "name": "traderName",
              "type": "string"
            },
            {
              "internalType": "string",
              "name": "traderDescription",
              "type": "string"
            },
            {
              "internalType": "address",
              "name": "tokenAddress",
              "type": "address"
            },
            {
              "internalType": "bool",
              "name": "isActive",
              "type": "bool"
            },
            {
              "internalType": "uint256",
              "name": "recentTotalShare",
              "type": "uint256"
            },
            {
              "internalType": "uint256",
              "name": "recentTotalBalance",
              "type": "uint256"
            },
            {
              "internalType": "uint256",
              "name": "pastTotalShare",
              "type": "uint256"
            },
            {
              "internalType": "uint256",
              "name": "pastTotalBalance",
              "type": "uint256"
            },
            {
              "internalType": "uint256",
              "name": "createTime",
              "type": "uint256"
            }
          ],
          "internalType": "struct LeadingContractFactory.LeadingContractInfo",
          "name": "",
          "type": "tuple"
        }
      ],
      "stateMutability": "view",
      "type": "function"
    },
    {
      "inputs": [
        {
          "internalType": "address",
          "name": "_contractAddress",
          "type": "address"
        }
      ],
      "name": "getLeadingContractInfoByAddress",
      "outputs": [
        {
          "components": [
            {
              "internalType": "address",
              "name": "contractAddress",
              "type": "address"
            },
            {
              "internalType": "address",
              "name": "traderAddress",
              "type": "address"
            },
            {
              "internalType": "string",
              "name": "traderName",
              "type": "string"
            },
            {
              "internalType": "string",
              "name": "traderDescription",
              "type": "string"
            },
            {
              "internalType": "address",
              "name": "tokenAddress",
              "type": "address"
            },
            {
              "internalType": "bool",
              "name": "isActive",
              "type": "bool"
            },
            {
              "internalType": "uint256",
              "name": "recentTotalShare",
              "type": "uint256"
            },
            {
              "internalType": "uint256",
              "name": "recentTotalBalance",
              "type": "uint256"
            },
            {
              "internalType": "uint256",
              "name": "pastTotalShare",
              "type": "uint256"
            },
            {
              "internalType": "uint256",
              "name": "pastTotalBalance",
              "type": "uint256"
            },
            {
              "internalType": "uint256",
              "name": "createTime",
              "type": "uint256"
            }
          ],
          "internalType": "struct LeadingContractFactory.LeadingContractInfo",
          "name": "",
          "type": "tuple"
        }
      ],
      "stateMutability": "view",
      "type": "function"
    },
    {
      "inputs": [
        {
          "internalType": "address",
          "name": "trader",
          "type": "address"
        }
      ],
      "name": "getLeadingContracts",
      "outputs": [
        {
          "internalType": "address[]",
          "name": "",
          "type": "address[]"
        }
      ],
      "stateMutability": "view",
      "type": "function"
    },
    {
      "inputs": [],
      "name": "getPendingLeadingContracts",
      "outputs": [
        {
          "components": [
            {
              "internalType": "address",
              "name": "contractAddress",
              "type": "address"
            },
            {
              "internalType": "address",
              "name": "traderAddress",
              "type": "address"
            },
            {
              "internalType": "string",
              "name": "traderName",
              "type": "string"
            },
            {
              "internalType": "string",
              "name": "traderDescription",
              "type": "string"
            },
            {
              "internalType": "address",
              "name": "tokenAddress",
              "type": "address"
            },
            {
              "internalType": "bool",
              "name": "isActive",
              "type": "bool"
            },
            {
              "internalType": "uint256",
              "name": "recentTotalShare",
              "type": "uint256"
            },
            {
              "internalType": "uint256",
              "name": "recentTotalBalance",
              "type": "uint256"
            },
            {
              "internalType": "uint256",
              "name": "pastTotalShare",
              "type": "uint256"
            },
            {
              "internalType": "uint256",
              "name": "pastTotalBalance",
              "type": "uint256"
            },
            {
              "internalType": "uint256",
              "name": "createTime",
              "type": "uint256"
            }
          ],
          "internalType": "struct LeadingContractFactory.LeadingContractInfo[]",
          "name": "",
          "type": "tuple[]"
        }
      ],
      "stateMutability": "view",
      "type": "function"
    },
    {
      "inputs": [
        {
          "internalType": "address",
          "name": "trader",
          "type": "address"
        }
      ],
      "name": "getTraderSupportedTokens",
      "outputs": [
        {
          "internalType": "address[]",
          "name": "",
          "type": "address[]"
        }
      ],
      "stateMutability": "view",
      "type": "function"
    },
    {
      "inputs": [
        {
          "internalType": "address",
          "name": "_user",
          "type": "address"
        }
      ],
      "name": "getUserFollowedContracts",
      "outputs": [
        {
          "components": [
            {
              "internalType": "address",
              "name": "contractAddress",
              "type": "address"
            },
            {
              "internalType": "address",
              "name": "traderAddress",
              "type": "address"
            },
            {
              "internalType": "string",
              "name": "traderName",
              "type": "string"
            },
            {
              "internalType": "string",
              "name": "traderDescription",
              "type": "string"
            },
            {
              "internalType": "address",
              "name": "tokenAddress",
              "type": "address"
            },
            {
              "internalType": "bool",
              "name": "isActive",
              "type": "bool"
            },
            {
              "internalType": "uint256",
              "name": "recentTotalShare",
              "type": "uint256"
            },
            {
              "internalType": "uint256",
              "name": "recentTotalBalance",
              "type": "uint256"
            },
            {
              "internalType": "uint256",
              "name": "pastTotalShare",
              "type": "uint256"
            },
            {
              "internalType": "uint256",
              "name": "pastTotalBalance",
              "type": "uint256"
            },
            {
              "internalType": "uint256",
              "name": "createTime",
              "type": "uint256"
            }
          ],
          "internalType": "struct LeadingContractFactory.LeadingContractInfo[]",
          "name": "",
          "type": "tuple[]"
        }
      ],
      "stateMutability": "view",
      "type": "function"
    },
    {
      "inputs": [
        {
          "internalType": "address[]",
          "name": "_address",
          "type": "address[]"
        }
      ],
      "name": "handleLiquidateLeadingContracts",
      "outputs": [],
      "stateMutability": "nonpayable",
      "type": "function"
    },
    {
      "inputs": [
        {
          "internalType": "address",
          "name": "_initialOwner",
          "type": "address"
        },
        {
          "internalType": "address",
          "name": "_platformTradeFeeAccount",
          "type": "address"
        },
        {
          "internalType": "address",
          "name": "_bManager",
          "type": "address"
        }
      ],
      "name": "initialize",
      "outputs": [],
      "stateMutability": "nonpayable",
      "type": "function"
    },
    {
      "inputs": [
        {
          "internalType": "address",
          "name": "_trader",
          "type": "address"
        }
      ],
      "name": "isTrader",
      "outputs": [
        {
          "internalType": "bool",
          "name": "",
          "type": "bool"
        }
      ],
      "stateMutability": "view",
      "type": "function"
    },
    {
      "inputs": [],
      "name": "leadingContractImpl",
      "outputs": [
        {
          "internalType": "address",
          "name": "",
          "type": "address"
        }
      ],
      "stateMutability": "view",
      "type": "function"
    },
    {
      "inputs": [
        {
          "internalType": "address[]",
          "name": "_address",
          "type": "address[]"
        }
      ],
      "name": "liquidateStatus",
      "outputs": [
        {
          "internalType": "bool[]",
          "name": "status",
          "type": "bool[]"
        }
      ],
      "stateMutability": "view",
      "type": "function"
    },
    {
      "inputs": [],
      "name": "owner",
      "outputs": [
        {
          "internalType": "address",
          "name": "",
          "type": "address"
        }
      ],
      "stateMutability": "view",
      "type": "function"
    },
    {
      "inputs": [],
      "name": "platformTradeFeeAccount",
      "outputs": [
        {
          "internalType": "address",
          "name": "",
          "type": "address"
        }
      ],
      "stateMutability": "view",
      "type": "function"
    },
    {
      "inputs": [
        {
          "internalType": "address",
          "name": "_user",
          "type": "address"
        },
        {
          "internalType": "address",
          "name": "_contractAddress",
          "type": "address"
        }
      ],
      "name": "recordUserFollowedContract",
      "outputs": [],
      "stateMutability": "nonpayable",
      "type": "function"
    },
    {
      "inputs": [
        {
          "internalType": "address",
          "name": "_trader",
          "type": "address"
        },
        {
          "internalType": "address",
          "name": "_token",
          "type": "address"
        }
      ],
      "name": "remove",
      "outputs": [],
      "stateMutability": "nonpayable",
      "type": "function"
    },
    {
      "inputs": [
        {
          "internalType": "address",
          "name": "_user",
          "type": "address"
        },
        {
          "internalType": "address",
          "name": "_contractAddress",
          "type": "address"
        }
      ],
      "name": "removeUserFollowedContract",
      "outputs": [],
      "stateMutability": "nonpayable",
      "type": "function"
    },
    {
      "inputs": [],
      "name": "renounceOwnership",
      "outputs": [],
      "stateMutability": "nonpayable",
      "type": "function"
    },
    {
      "inputs": [
        {
          "internalType": "address",
          "name": "_newImplementation",
          "type": "address"
        }
      ],
      "name": "setImplementation",
      "outputs": [],
      "stateMutability": "nonpayable",
      "type": "function"
    },
    {
      "inputs": [
        {
          "internalType": "address",
          "name": "newOwner",
          "type": "address"
        }
      ],
      "name": "transferOwnership",
      "outputs": [],
      "stateMutability": "nonpayable",
      "type": "function"
    },
    {
      "inputs": [
        {
          "internalType": "string",
          "name": "",
          "type": "string"
        }
      ],
      "name": "underlying",
      "outputs": [
        {
          "internalType": "address",
          "name": "",
          "type": "address"
        }
      ],
      "stateMutability": "view",
      "type": "function"
    },
    {
      "inputs": [
        {
          "internalType": "address",
          "name": "_tokenAddress",
          "type": "address"
        },
        {
          "internalType": "string",
          "name": "_traderName",
          "type": "string"
        },
        {
          "internalType": "string",
          "name": "_traderDescription",
          "type": "string"
        }
      ],
      "name": "updateTraderInfo",
      "outputs": [],
      "stateMutability": "nonpayable",
      "type": "function"
    },
    {
      "stateMutability": "payable",
      "type": "receive"
    }
  ],
  "bytecode": "0x60808060405234601557614a36908161001b8239f35b600080fdfe6080604052600436101561000f57005b6000803560e01c806296d244146129da5780631024c97b146129b45780631807cd0b1461298f57806323f1fcbf14612968578063299ae753146129015780634039ad0d146128d357806340a6809b146127c257806353be06e5146123f05780635614579e146123c9578063629b74851461227357806364a30a3814611fa5578063715018a614611f0c57806377afe2ed14611d8157806379c4e5e414611b835780637f7c149114611b585780638ae1b5b71461188c5780638b92d628146118095780638da5cb5b146117c35780639fa45d5614611745578063ae5e55e6146116eb578063afa85c091461154a578063b56eeef014611321578063c0c53b8b14610e9d578063c1f550ff14610da5578063d784d42614610cf7578063df51a5f614610bb1578063e3b4a33f146103a9578063ef90dde114610328578063f166ddd8146101d2578063f2fde38b146101a55763f50200571461016b57005b346101a257806003193601126101a25760606005546006546001600160a01b03600154169060405192835260208301526040820152f35b80fd5b50346101a25760206003193601126101a2576101cf6101c2612b06565b6101ca613968565b6136cb565b80f35b50346101a25760206003193601126101a2576001600160a01b036101f4612b06565b6101fc612e36565b5016808252600b6020526001600160a01b03604083205416156102e457816040916102e09352600b6020522060096040519161023783612c6b565b6001600160a01b0381541683526001600160a01b03600182015416602084015261026360028201612f34565b604084015261027460038201612f34565b606084015260ff60048201546001600160a01b038116608086015260a01c16151560a0840152600581015460c0840152600681015460e0840152600781015461010084015260088101546101208401520154610140820152604051918291602083526020830190612b7f565b0390f35b606460405162461bcd60e51b815260206004820152601260248201527f436f6e7472616374206e6f7420666f756e6400000000000000000000000000006044820152fd5b50346101a257806003193601126101a25760405180916020600754928381520191600782527fa66cc928b5edb82af9bd49922954155ab7b0942694bea4ce44661d9a8736c688915b818110610393576102e08561038781870382612c9e565b60405191829182612c28565b8254845260209093019260019283019201610370565b50346101a25760806003193601126101a2576103c3612b06565b906024359160443567ffffffffffffffff8111610bad576103e8903690600401612d14565b9160643567ffffffffffffffff8111610ba957610409903690600401612d14565b933382526003602052604082206001600160a01b0384166000526020526001600160a01b0360406000205416610b3f5760328111610afb576001600160a01b03908282815416946024604051809581937f873fd3c300000000000000000000000000000000000000000000000000000000835216978860048301525afa918215610af05783926109a4575b506001600160a01b0360c083015116916001600160a01b0360e081610100840151169201511690604051937f1460e390000000000000000000000000000000000000000000000000000000006020860152336024860152336044860152306064860152608485015260a484015260c483015260e482015260e4815261051b61010482612c9e565b6001600160a01b0360025416906001600160a01b037f9016d09d72d40fdae2fd8ceac6b6234c7706214fd39c1cd1e609a0528c19930054169160405192610da0918285019285841067ffffffffffffffff851117610990579285949260609261059795613c618839825260208201528160408201520190612b5a565b039082f08015610983576001600160a01b0316926105b484613bad565b503382526003602052604082208360005260205260406000206001600160a01b0385166001600160a01b031982541617905583828060405180946105f782612c6b565b848252602082019033825260408301908152606083019a8b52608083019089825260a0840190600182526001600160a01b0360c0860194878652818060408a61014060e08c019b828d5261010081019d8e5261012081019e8f52019d8e4290528152600b602052209c5116166001600160a01b03198c5416178b5551166001600160a01b0360018b0191166001600160a01b0319825416179055600289019051805167ffffffffffffffff811161096f578b6106b38454612efa565b601f811161093f575b505060208c601f83116001146108dc57906106eb9383610815575b50506000198260011b9260031b1c19161790565b90555b600388019b519b8c5167ffffffffffffffff81116108c85760209d8b6107148454612efa565b601f811161088d575b50508e908c601f84116001146108205760099b9a99989796959493610757939092836108155750506000198260011b9260031b1c19161790565b90555b6001600160a01b038060048b01935116166001600160a01b03198354161782555115157fffffffffffffffffffffff00ffffffffffffffffffffffffffffffffffffffff74ff000000000000000000000000000000000000000083549260a01b1691161790555160058701555160068601555160078501555160088401555191015560405190838252848201527f3cc9e154ebf4c45999f2227230f6bba5eb453e798922f40619e271ef3f60a98660403392a3604051908152f35b0151905038806106d7565b9190601f198416858452828420935b818110610875575091600193918560099e9d9c9b9a99989796941061085c575b505050811b01905561075a565b015160001960f88460031b161c1916905538808061084f565b9293602060018192878601518155019501930161082f565b602082866108b7945220601f850160051c810191602086106108be575b601f0160051c01906131a4565b8b3861071d565b90915081906108aa565b60248b634e487b7160e01b81526041600452fd5b9192601f198416858452828420935b818110610927575090846001959493921061090e575b505050811b0190556106ee565b015160001960f88460031b161c19169055388080610901565b929360206001819287860151815501950193016108eb565b60208286610968945220601f840160051c810191602085106108be57601f0160051c01906131a4565b8b386106bc565b60248c634e487b7160e01b81526041600452fd5b50604051903d90823e3d90fd5b602487634e487b7160e01b81526041600452fd5b9091503d8084833e6109b68183612c9e565b810190602081830312610ae85780519067ffffffffffffffff8211610aec570161014081830312610ae85760405191610140830183811067ffffffffffffffff821117610ad457604052610a09826136b7565b8352610a17602083016136b7565b602084015260408201516040840152606082015167ffffffffffffffff8111610ad05781610a46918401613675565b6060840152608082015167ffffffffffffffff8111610ad05791610a7261012092610ac3948301613675565b6080850152610a8360a082016136b7565b60a0850152610a9460c082016136b7565b60c0850152610aa560e082016136b7565b60e0850152610ab761010082016136b7565b610100850152016136b7565b6101208201529038610494565b8580fd5b602486634e487b7160e01b81526041600452fd5b8380fd5b8480fd5b6040513d85823e3d90fd5b606460405162461bcd60e51b815260206004820152601f60248201527f636f6d6d697373696f6e2072617465206973206d6f7265207468656e203530006044820152fd5b608460405162461bcd60e51b815260206004820152602c60248201527f54726164657220616c726561647920686173206120636f6e747261637420666f60448201527f72207468697320746f6b656e00000000000000000000000000000000000000006064820152fd5b5080fd5b8280fd5b50346101a25760406003193601126101a257610bcb612b06565b6001600160a01b03610bdb612b21565b1690818352600b602052610bfd6001600160a01b03604085205416331461362a565b6001600160a01b0316825b818452600c6020526040842054811015610cf157818452600c602052826001600160a01b03610c3a8360408820613090565b90549060031b1c1614610c4f57600101610c08565b908092508352600c60205260408320828452600c6020526040842054906000198201918211610cdd576001600160a01b03610c91610cca9493610cab93613090565b90549060031b1c1691848652600c60205260408620613090565b9091906001600160a01b038084549260031b9316831b921b1916179055565b8152600c6020526101cf60408220613277565b602485634e487b7160e01b81526011600452fd5b50505080f35b50346101a25760206003193601126101a2576001600160a01b03610d19612b06565b610d21613968565b168015610d6157806001600160a01b031960025416176002557f310ba5f1d2ed074b51e2eccd052a47ae9ab7c6b800d1fca3db3999d6a592ca038280a280f35b606460405162461bcd60e51b815260206004820152600f60248201527f496e76616c6964206164647265737300000000000000000000000000000000006044820152fd5b50346101a25760206003193601126101a25760043567ffffffffffffffff8111610ba957610dd7903690600401612dc8565b805190825b828110610de7578380f35b610e116001600160a01b03610dfc83856130f6565b51166000526008602052604060002054151590565b610e1e575b600101610ddc565b836001600160a01b03610e3183856130f6565b5116803b15610ba9578180916004604051809481937f92a022ae0000000000000000000000000000000000000000000000000000000083525af18015610e9257610e7d575b5050610e16565b81610e8791612c9e565b610ae8578338610e76565b6040513d84823e3d90fd5b50346101a25760606003193601126101a257610eb7612b06565b610ebf612b21565b604435906001600160a01b038216809203610ae8577ff0c57e16840df040f15088dc2f81fe391c3923bec73e23a9662efc9c229c6a00549260ff8460401c16159367ffffffffffffffff811680159081611319575b600114908161130f575b159081611306575b506112de578592610fe160049593838860017fffffffffffffffffffffffffffffffffffffffffffffffff00000000000000006001600160a01b039716177ff0c57e16840df040f15088dc2f81fe391c3923bec73e23a9662efc9c229c6a0055611289575b50610f94613c07565b610f9c613c07565b610fa5336136cb565b610fad613c07565b610fb5613c07565b60017f9b779b17422d0df92223018b32b4d1fa46e071723d6817e2486d003becc55f00556101ca613968565b6014600555826001600160a01b0319855416178455166001600160a01b03196001541617600155604051928380927f9816f4730000000000000000000000000000000000000000000000000000000082525afa8015610af05783918491611150575b50835b82518110156110b257806001600160a01b03611064600193856130f6565b51166001600160a01b03611091602061107d85896130f6565b518160405193828580945193849201612b37565b8101600e81520301902091166001600160a01b031982541617905501611046565b5050506110bc5780f35b7fffffffffffffffffffffffffffffffffffffffffffffff00ffffffffffffffff7ff0c57e16840df040f15088dc2f81fe391c3923bec73e23a9662efc9c229c6a0054167ff0c57e16840df040f15088dc2f81fe391c3923bec73e23a9662efc9c229c6a00557fc7f505b2f371ae2175ee4913f4499e1f2633a7b5936321eed1cdaeb6115181d2602060405160018152a180f35b9150503d8084833e6111628183612c9e565b810190604081830312610ae857805167ffffffffffffffff8111610aec5781019082601f83011215610aec5781519161119a83612d32565b926111a86040519485612c9e565b80845260208085019160051b830101918583116112855760208101915b838310611253575050505060208101519067ffffffffffffffff8211610ad057019180601f84011215610aec5782516111fd81612d32565b9361120b6040519586612c9e565b81855260208086019260051b82010192831161124f57602001905b828210611237575050509038611043565b60208091611244846136b7565b815201910190611226565b8680fd5b825167ffffffffffffffff81116112815760209161127689848094870101613675565b8152019201916111c5565b8980fd5b8780fd5b7fffffffffffffffffffffffffffffffffffffffffffffff0000000000000000001668010000000000000001177ff0c57e16840df040f15088dc2f81fe391c3923bec73e23a9662efc9c229c6a005538610f8b565b6004867ff92ee8a9000000000000000000000000000000000000000000000000000000008152fd5b90501538610f26565b303b159150610f1e565b869150610f14565b50346101a25760206003193601126101a2576004805490359180805b83811061150d575061134e90613155565b918193825b82841061136857604051806102e08782612d4a565b6001600160a01b036113798561305f565b90549060031b1c1691828252600d60205260408220604051808260208294549384815201908652602086209286905b8082106114e85750506113bd92500382612c9e565b82975b81518910156114d8576114d06001916114726001600160a01b036113e48d876130f6565b511688885260036020526114888961147e8a6001600160a01b0360408083206000908389168252602052205416809561141d8d836137ac565b98929591969097858352600b6020526002604084200190868452600b6020526009604060038187200195898152600b60205260ff6004838320015460a01c16998152600b6020522001549b6040519d8e612c6b565b8d5260208d0152612f34565b60408b0152612f34565b60608901526080880152151560a087015260c086015260e08501526101008401526101208301526101408201526114bf828c6130f6565b526114ca818b6130f6565b506131bb565b9801976113c0565b9750506001909401939150611353565b916001919350602082916001600160a01b0387541681520194019201849293916113a8565b906115336001600160a01b03611526849796959761305f565b90549060031b1c16612ff6565b518101809111610cdd57929391929060010161133d565b50346101a25760206003193601126101a2576001600160a01b0361156c612b06565b1690818152600d60205260408120906040518083602082955493848152019084526020842092845b8181106116c95750506115a992500383612c9e565b6115b38251613155565b92815b83518110156116bb57806001600160a01b036040816115d7600195896130f6565b51168587526003602052818720836000921682526020522054168452600b6020526040842060096040519161160b83612c6b565b6001600160a01b0381541683526001600160a01b038582015416602084015261163660028201612f34565b604084015261164760038201612f34565b606084015260ff60048201546001600160a01b038116608086015260a01c16151560a0840152600581015460c0840152600681015460e08401526007810154610100840152600881015461012084015201546101408201526116a982886130f6565b526116b481876130f6565b50016115b6565b604051806102e08782612d4a565b84546001600160a01b0316835260019485019487945060209093019201611594565b50346101a25760406003193601126101a2576101cf611708612b06565b6001600160a01b03611718612b21565b918183168552600b60205261173482604087205416331461362a565b168352600c60205260408320613602565b50346101a257806003193601126101a25760405180916020600454928381520191600482527f8a35acfbc15ff81a39ae7d344fd709f28e8600b4aa8c65c6b64bfe7fe36bd19b915b8181106117a4576102e08561038781870382612c9e565b82546001600160a01b031684526020909301926001928301920161178d565b50346101a257806003193601126101a25760206001600160a01b037f9016d09d72d40fdae2fd8ceac6b6234c7706214fd39c1cd1e609a0528c1993005416604051908152f35b50346101a25760206003193601126101a2576001600160a01b0361182b612b06565b168152600d60205260408120604051918260208354918281520192825260208220915b81811061186d5760208561186481870382612c9e565b51604051908152f35b82546001600160a01b031684526020909301926001928301920161184e565b50346101a25760606003193601126101a25760043567ffffffffffffffff8111610ba9576118be903690600401612dc8565b60243567ffffffffffffffff8111610bad576118de903690600401612dc8565b604435908115158203610ae8576118f3613968565b8251815103611b1457825192845b84811061190c578580f35b6001600160a01b0361191e82846130f6565b51166001600160a01b0361193283866130f6565b51169080885260036020526001600160a01b036040808a206000908386168252602052205416808952600a6020526040892054611975575b505050600101611901565b61197e816139c9565b508615611a995761198e81613b4d565b5088611999836130a8565b15611a1c575b604083926119dc86838560019a99987f3cc9e154ebf4c45999f2227230f6bba5eb453e798922f40619e271ef3f60a9869752600d60205220613602565b84847f90aeddfcb1428cce068a71e29d724f88317a2527526ca083e9246630a0d85d6360208551858152a38151908152866020820152a35b90388061196a565b5060045468010000000000000000811015611a8557604083926119dc86838e611a7560019b9a99610cab898e7f3cc9e154ebf4c45999f2227230f6bba5eb453e798922f40619e271ef3f60a9869b016004556004613090565b955050505092939495505061199f565b60248a634e487b7160e01b81526041600452fd5b908281600195946040937f3cc9e154ebf4c45999f2227230f6bba5eb453e798922f40619e271ef3f60a98685805188815260026020820152a38a526003602052818a206001600160a01b03600092168252602052206001600160a01b031981541690558752600b602052611b0f6040882061322f565b611a14565b606460405162461bcd60e51b815260206004820152601860248201527f706172616d206c656e677468206973206d69736d6174636800000000000000006044820152fd5b50346101a25760406003193601126101a2576101cf611b75612b06565b611b7d612b21565b906132bf565b50346101a25760206003193601126101a2576001600160a01b03611ba5612b06565b168152600c602052604081206040518082602082945493848152019085526020852092855b818110611d5f575050611bdf92500382612c9e565b611be98151613155565b9082835b8251811015611d12576001600160a01b03611c0882856130f6565b51168552600b6020526001600160a01b03604086205416611c2c575b600101611bed565b90611d0a6001916001600160a01b03611c4585876130f6565b51168752600b60205260408720600960405191611c6183612c6b565b6001600160a01b0381541683526001600160a01b0386820154166020840152611c8c60028201612f34565b6040840152611c9d60038201612f34565b606084015260ff60048201546001600160a01b038116608086015260a01c16151560a0840152600581015460c0840152600681015460e0840152600781015461010084015260088101546101208401520154610140820152611cff82886130f6565b526114ca81876130f6565b919050611c24565b848285611d1e82613155565b925b828110611d3557604051806102e08682612d4a565b80611d42600192846130f6565b51611d4d82876130f6565b52611d5881866130f6565b5001611d20565b84546001600160a01b0316835260019485019486945060209093019201611bca565b50346101a25760206003193601126101a25760043567ffffffffffffffff8111610ba957611db3903690600401612dc8565b805190611dbf82612d32565b90611dcd6040519283612c9e565b828252611dd983612d32565b92601f19602084019401368537845b818110611e365750505090604051928392602084019060208552518091526040840192915b818110611e1b575050500390f35b82511515845285945060209384019390920191600101611e0d565b611e4b6001600160a01b03610dfc83866130f6565b611e58575b600101611de8565b8060206001600160a01b03611e6f600494876130f6565b5116604051938480927f59a3d8300000000000000000000000000000000000000000000000000000000082525afa8015611f01578790611ec4575b60019250611eb882876130f6565b90151590529050611e50565b50906020813d8211611ef9575b81611ede60209383612c9e565b8101031261124f575190811515820361124f57600191611eaa565b3d9150611ed1565b6040513d89823e3d90fd5b50346101a257806003193601126101a257611f25613968565b806001600160a01b037f9016d09d72d40fdae2fd8ceac6b6234c7706214fd39c1cd1e609a0528c199300546001600160a01b031981167f9016d09d72d40fdae2fd8ceac6b6234c7706214fd39c1cd1e609a0528c19930055167f8be0079c531659141344cd1fd0a4f28419497f9722a3daafe3b4186f6b6457e08280a380f35b50346101a25760606003193601126101a257611fbf612b06565b9060243567ffffffffffffffff8111610ba957611fe0903690600401612d14565b9160443567ffffffffffffffff8111610bad57612001903690600401612d14565b923383526003602052604083206001600160a01b0383166000526020526001600160a01b0360406000205416612038811515612e89565b8352600b6020526040832090600282019080519067ffffffffffffffff8211610ad4576120658354612efa565b601f8111612243575b50602090601f83116001146121dd5791806120a292600396959489926108155750506000198260011b9260031b1c19161790565b90555b01835167ffffffffffffffff81116121c9576120c18254612efa565b601f8111612199575b506020601f821160011461212e5790806121029286976001600160a01b0397926108155750506000198260011b9260031b1c19161790565b90555b16337f99aea1f1550ab3e43762b27dd94cb3caed3328e1fc7b39d72906f9802a8c8db48380a380f35b82855280852095601f198316865b8181106121815750916001600160a01b03969791846001959410612168575b505050811b019055612105565b015160001960f88460031b161c1916905538808061215b565b8383015189556001909801976020938401930161213c565b6121c39083865260208620601f840160051c810191602085106108be57601f0160051c01906131a4565b386120ca565b602484634e487b7160e01b81526041600452fd5b8387528187209190601f198416885b81811061222b575091600193918560039897969410612213575b505050811b0190556120a5565b015160001960f884891b161c19169055388080612206565b929360206001819287860151815501950193016121ec565b61226d9084885260208820601f850160051c810191602086106108be57601f0160051c01906131a4565b3861206e565b50346101a257806003193601126101a25760095461229081613155565b9082600954905b8281106122ac57604051806102e08682612d4a565b818110156123b5577f6e1540171b6c0c960b71a7020d9f60077f6af931a8bbf590da0223dacf75c7af810154600386901b1c6001600160a01b03168552600b602052604080862090516001929160099061230583612c6b565b6001600160a01b0381541683526001600160a01b038582015416602084015261233060028201612f34565b604084015261234160038201612f34565b606084015260ff60048201546001600160a01b038116608086015260a01c16151560a0840152600581015460c0840152600681015460e08401526007810154610100840152600881015461012084015201546101408201526123a382876130f6565b526123ae81866130f6565b5001612297565b602485634e487b7160e01b81526032600452fd5b50346101a257806003193601126101a25760206001600160a01b0360025416604051908152f35b5060806003193601126101a257612405612b06565b9061240e612b21565b9160443567ffffffffffffffff8111610bad5736602382011215610bad57806004013561243a81612d32565b916124486040519384612c9e565b818352602083019160051b81016024018236821161124f5760248301905b82821061279257505050506064359067ffffffffffffffff8211610aec5736602383011215610aec5781600401359061249e82612d32565b926124ac6040519485612c9e565b82845260208401906024829460051b8201019036821161278e5760248101925b828410612749575050505060027f9b779b17422d0df92223018b32b4d1fa46e071723d6817e2486d003becc55f0054146127215760027f9b779b17422d0df92223018b32b4d1fa46e071723d6817e2486d003becc55f005583518351036126dd576001600160a01b03871686526003602052604086206001600160a01b03861687526020526001600160a01b036040872054169261256b84151561310a565b833b1561124f5793918693916040519586947f2d9cd09a00000000000000000000000000000000000000000000000000000000865260448601906040600488015251809152606486019060648160051b880101939188905b82821061268a575050505060031985830301602486015251808252602082019160208260051b820101939287915b838310612657575050505050828091039134905af18015610af057612643575b5061261c91926132bf565b60017f9b779b17422d0df92223018b32b4d1fa46e071723d6817e2486d003becc55f005580f35b916126518161261c94612c9e565b91612611565b929597509295509260208061267883601f1986600196030187528951612b5a565b9701930193018795938a9795926125f1565b9296985092949660206126c9867fffffffffffffffffffffffffffffffffffffffffffffffffffffffffffffff9c839460019699030186528951612b5a565b970192019201928a979593899795936125c3565b606460405162461bcd60e51b815260206004820152601860248201527f4172726179206c656e67746873206d757374206d6174636800000000000000006044820152fd5b6004867f3ee5aeb5000000000000000000000000000000000000000000000000000000008152fd5b833567ffffffffffffffff811161278a5782013660438201121561278a5760209161277f83923690604460248201359101612cdd565b8152019301926124cc565b8a80fd5b8880fd5b813567ffffffffffffffff811161278e576020916127b7839260243691890101612d14565b815201910190612466565b50346101a25760206003193601126101a2576001600160a01b036127e4612b06565b16808252600d60205260408220916040518084602082965493848152019084526020842092845b8181106128b157505061282092500384612c9e565b825192601f1961284861283286612d32565b956128406040519788612c9e565b808752612d32565b01366020860137815b81518110156128a3576001908484526003602052604084206001600160a01b038061287c84876130f6565b51161685526020526001600160a01b0360408520541661289c82886130f6565b5201612851565b604051806102e08782612c28565b84546001600160a01b031683526001948501948894506020909301920161280b565b50346101a25760206003193601126101a25760206128f76128f2612b06565b6130a8565b6040519015158152f35b50346101a25760206003193601126101a2576004359067ffffffffffffffff82116101a25760206001600160a01b03612954826129413660048801612d14565b8160405193828580945193849201612b37565b8101600e8152030190205416604051908152f35b50346101a257806003193601126101a25760206001600160a01b0360015416604051908152f35b50346101a25760206003193601126101a2576102e06103876129af612b06565b612ff6565b50346101a257806003193601126101a2576001600160a01b036020915416604051908152f35b50346101a25760606003193601126101a2576102e0906129f8612b06565b6001600160a01b03612a08612b21565b91612a11612e36565b5016825260036020526001600160a01b03604083209116825260205260406001600160a01b038183205416612a47811515612e89565b612a53604435826137ac565b9491929590938152600b6020522093600960405195612a7187612c6b565b6001600160a01b0381541687526001600160a01b036001820154166020880152612a9d60028201612f34565b6040880152612aae60038201612f34565b606088015260ff60048201546001600160a01b03811660808a015260a01c16151560a0880152015461014086015260c085015260e0840152610100830152610120820152604051918291602083526020830190612b7f565b600435906001600160a01b0382168203612b1c57565b600080fd5b602435906001600160a01b0382168203612b1c57565b60005b838110612b4a5750506000910152565b8181015183820152602001612b3a565b90601f19601f602093612b7881518092818752878088019101612b37565b0116010190565b906001600160a01b0382511681526001600160a01b03602083015116602082015261014080612bd4612bc260408601516101606040870152610160860190612b5a565b60608601518582036060870152612b5a565b936001600160a01b03608082015116608085015260a0810151151560a085015260c081015160c085015260e081015160e0850152610100810151610100850152610120810151610120850152015191015290565b602060408183019282815284518094520192019060005b818110612c4c5750505090565b82516001600160a01b0316845260209384019390920191600101612c3f565b610160810190811067ffffffffffffffff821117612c8857604052565b634e487b7160e01b600052604160045260246000fd5b90601f601f19910116810190811067ffffffffffffffff821117612c8857604052565b67ffffffffffffffff8111612c8857601f01601f191660200190565b929192612ce982612cc1565b91612cf76040519384612c9e565b829481845281830111612b1c578281602093846000960137010152565b9080601f83011215612b1c57816020612d2f93359101612cdd565b90565b67ffffffffffffffff8111612c885760051b60200190565b602081016020825282518091526040820191602060408360051b8301019401926000915b838310612d7d57505050505090565b9091929394602080612db9837fffffffffffffffffffffffffffffffffffffffffffffffffffffffffffffffc086600196030187528951612b7f565b97019301930191939290612d6e565b9080601f83011215612b1c57813590612de082612d32565b92612dee6040519485612c9e565b82845260208085019360051b820101918211612b1c57602001915b818310612e165750505090565b82356001600160a01b0381168103612b1c57815260209283019201612e09565b60405190612e4382612c6b565b600061014083828152826020820152606060408201526060808201528260808201528260a08201528260c08201528260e082015282610100820152826101208201520152565b15612e9057565b608460405162461bcd60e51b815260206004820152602b60248201527f4e6f20636f6e747261637420666f756e6420666f72207468697320747261646560448201527f7220616e6420746f6b656e0000000000000000000000000000000000000000006064820152fd5b90600182811c92168015612f2a575b6020831014612f1457565b634e487b7160e01b600052602260045260246000fd5b91607f1691612f09565b9060405191826000825492612f4884612efa565b8084529360018116908115612fb65750600114612f6f575b50612f6d92500383612c9e565b565b90506000929192526020600020906000915b818310612f9a575050906020612f6d9282010138612f60565b6020919350806001915483858901015201910190918492612f81565b60209350612f6d9592507fffffffffffffffffffffffffffffffffffffffffffffffffffffffffffffff0091501682840152151560051b82010138612f60565b6001600160a01b0316600052600d60205260406000206040518082602082945493848152019060005260206000209260005b81811061303d575050612d2f92500382612c9e565b84546001600160a01b0316835260019485019486945060209093019201613028565b60045481101561307a57600460005260206000200190600090565b634e487b7160e01b600052603260045260246000fd5b805482101561307a5760005260206000200190600090565b6004549060005b8281106130be57505050600090565b6001600160a01b036130cf8261305f565b90549060031b1c166001600160a01b038316146130ee576001016130af565b505050600190565b805182101561307a5760209160051b010190565b1561311157565b606460405162461bcd60e51b815260206004820152601760248201527f436f6e747261637420646f6573206e6f742065786973740000000000000000006044820152fd5b9061315f82612d32565b61316c6040519182612c9e565b828152601f1961317c8294612d32565b019060005b82811061318d57505050565b602090613198612e36565b82828501015201613181565b8181106131af575050565b600081556001016131a4565b60001981146131ca5760010190565b634e487b7160e01b600052601160045260246000fd5b6131ea8154612efa565b90816131f4575050565b81601f60009311600114613206575055565b8183526020832061322291601f0160051c8101906001016131a4565b8082528160208120915555565b6009600091828155826001820155613249600282016131e0565b613255600382016131e0565b8260048201558260058201558260068201558260078201558260088201550155565b805480156132a95760001901906132a66132918383613090565b6001600160a01b0382549160031b1b19169055565b55565b634e487b7160e01b600052603160045260246000fd5b6001600160a01b031680600052600360205260406000206001600160a01b0383166000526020526001600160a01b03604060002054169061330182151561310a565b81331480156135cf575b80156135c6575b156135825780600052600360205260406000206001600160a01b03841660005260205260406000206001600160a01b0319815416905581600052600b60205261335e604060002061322f565b60005b81600052600d60205260406000205481101561357a5781600052600d6020526001600160a01b03613396826040600020613090565b90549060031b1c166001600160a01b038516146133b557600101613361565b6000828152600d60205260409020805493949293600019810192919083116131ca576001600160a01b036133ef61340b94610cab93613090565b90549060031b1c169185600052600d6020526040600020613090565b81600052600d6020526134216040600020613277565b81600052600d60205260406000205415613481575b60206001600160a01b037fa9c4cf795890a049971a6e43cf862d315ec5c7b8c4bfaf94616f1499231ba8749261346b86613a9a565b50613475866139c9565b506040519586521693a3565b919060005b6004548082101561354557826001600160a01b036134a38461305f565b90549060031b1c16146134b95750600101613486565b906000198295939495019182116131ca57610cab6001600160a01b036134e16134ef9461305f565b90549060031b1c169161305f565b6004549081156132a9576001600160a01b036020916000197fa9c4cf795890a049971a6e43cf862d315ec5c7b8c4bfaf94616f1499231ba8749401613538613291826004613090565b6004555b92505050613436565b5050909160206001600160a01b037fa9c4cf795890a049971a6e43cf862d315ec5c7b8c4bfaf94616f1499231ba8749261353c565b509091613421565b606460405162461bcd60e51b815260206004820152600c60248201527f556e617574686f72697a656400000000000000000000000000000000000000006044820152fd5b50303314613312565b506001600160a01b037f9016d09d72d40fdae2fd8ceac6b6234c7706214fd39c1cd1e609a0528c1993005416331461330b565b9081549168010000000000000000831015612c885782610cab916001612f6d95018155613090565b1561363157565b606460405162461bcd60e51b815260206004820152601b60248201527f63616c6c6572206e6f7420636f6e7472616374206164647265737300000000006044820152fd5b81601f82011215612b1c57805161368b81612cc1565b926136996040519485612c9e565b81845260208284010111612b1c57612d2f9160208085019101612b37565b51906001600160a01b0382168203612b1c57565b6001600160a01b0316801561375b576001600160a01b037f9016d09d72d40fdae2fd8ceac6b6234c7706214fd39c1cd1e609a0528c19930054826001600160a01b03198216177f9016d09d72d40fdae2fd8ceac6b6234c7706214fd39c1cd1e609a0528c19930055167f8be0079c531659141344cd1fd0a4f28419497f9722a3daafe3b4186f6b6457e0600080a3565b7f1e4fbdf700000000000000000000000000000000000000000000000000000000600052600060045260246000fd5b9190826080910312612b1c578151916020810151916060604083015192015190565b6001600160a01b0316916040517fc3633aa9000000000000000000000000000000000000000000000000000000008152602081600481875afa9081156138ec57600091613936575b508015613928576000198101928184116131ca578082111561391e5781039081116131ca5760001981019081116131ca57925b604051927f56c3748c0000000000000000000000000000000000000000000000000000000084526004840152608083602481845afa80156138ec576000936000916138f8575b5060809093946024604051809481937f56c3748c00000000000000000000000000000000000000000000000000000000835260048301525afa80156138ec576000916000916138bb57509091565b90506138df915060803d6080116138e5575b6138d78183612c9e565b81019061378a565b50915091565b503d6138cd565b6040513d6000823e3d90fd5b608080955061391392503d86116138e5576138d78183612c9e565b50949150939061386d565b5050600092613827565b506000925082915081908190565b906020823d602011613960575b8161395060209383612c9e565b810103126101a2575051386137f4565b3d9150613943565b6001600160a01b037f9016d09d72d40fdae2fd8ceac6b6234c7706214fd39c1cd1e609a0528c1993005416330361399b57565b7f118cdaa7000000000000000000000000000000000000000000000000000000006000523360045260246000fd5b6000818152600a60205260409020548015613a935760001981018181116131ca576009549060001982019182116131ca57818103613a42575b50505060095480156132a95760001901613a1d816009613090565b60001982549160031b1b19169055600955600052600a60205260006040812055600190565b613a7b613a53613a64936009613090565b90549060031b1c9283926009613090565b81939154906000199060031b92831b921b19161790565b9055600052600a602052604060002055388080613a02565b5050600090565b6000818152600860205260409020548015613a935760001981018181116131ca576007549060001982019182116131ca57818103613b13575b50505060075480156132a95760001901613aee816007613090565b60001982549160031b1b19169055600755600052600860205260006040812055600190565b613b35613b24613a64936007613090565b90549060031b1c9283926007613090565b90556000526008602052604060002055388080613ad3565b80600052600860205260406000205415600014613ba75760075468010000000000000000811015612c8857613b8e613a648260018594016007556007613090565b9055600754906000526008602052604060002055600190565b50600090565b80600052600a60205260406000205415600014613ba75760095468010000000000000000811015612c8857613bee613a648260018594016009556009613090565b905560095490600052600a602052604060002055600190565b60ff7ff0c57e16840df040f15088dc2f81fe391c3923bec73e23a9662efc9c229c6a005460401c1615613c3657565b7fd7e6bcf80000000000000000000000000000000000000000000000000000000060005260046000fdfe60a0604052610da08038038061001481610293565b928339810160608282031261028e5761002c826102b8565b610038602084016102b8565b604084015190936001600160401b03821161028e570182601f8201121561028e5780519061006d610068836102cc565b610293565b938285526020838301011161028e5760005b828110610279575050602060009184010152803b15610258577f360894a13ba1a3210667c828492db98dca3e2076cc3735a920a3ca505d382bbc80546001600160a01b0319166001600160a01b0383169081179091557fbc7cd75a20ee27fd9adebab32041f755214dbc6bffa90cc0225b39da2e5c2d3b600080a281511561023f5760008083602061013595519101845af43d15610237573d91610125610068846102cc565b9283523d6000602085013e6102e7565b505b604051906105ac8083016001600160401b038111848210176102215760209284926107d484396001600160a01b031681520301906000f080156102155760018060a01b031680608052600080516020610d80833981519152547f7e644d79422f17c01e4894b5f4f588d331ebfa28653d42ae832dc59e38c9798f6040805160018060a01b0384168152846020820152a181156101ff576001600160a01b03191617600080516020610d808339815191525560405161048b908161034982396080518160070152f35b633173bdd160e11b600052600060045260246000fd5b6040513d6000823e3d90fd5b634e487b7160e01b600052604160045260246000fd5b6060916102e7565b505034156101375763b398979f60e01b60005260046000fd5b634c9c8ce360e01b60009081526001600160a01b0391909116600452602490fd5b8060208092840101518282880101520161007f565b600080fd5b6040519190601f01601f191682016001600160401b0381118382101761022157604052565b51906001600160a01b038216820361028e57565b6001600160401b03811161022157601f01601f191660200190565b9061030d57508051156102fc57602081519101fd5b63d6bda27560e01b60005260046000fd5b8151158061033f575b61031e575090565b639996b31560e01b60009081526001600160a01b0391909116600452602490fd5b50803b1561031656fe6080604052337f000000000000000000000000000000000000000000000000000000000000000073ffffffffffffffffffffffffffffffffffffffff16036100c0576000357fffffffff00000000000000000000000000000000000000000000000000000000167f4f1ef28600000000000000000000000000000000000000000000000000000000146100b6577fd2b576ec0000000000000000000000000000000000000000000000000000000060005260046000fd5b6100be61018e565b005b60008073ffffffffffffffffffffffffffffffffffffffff7f360894a13ba1a3210667c828492db98dca3e2076cc3735a920a3ca505d382bbc5416368280378136915af43d6000803e15610113573d6000f35b3d6000fd5b7f4e487b7100000000000000000000000000000000000000000000000000000000600052604160045260246000fd5b90601f19601f604051930116820182811067ffffffffffffffff82111761016d57604052565b610118565b67ffffffffffffffff811161016d57601f01601f191660200190565b366004116102425760407ffffffffffffffffffffffffffffffffffffffffffffffffffffffffffffffffc3601126102425760043573ffffffffffffffffffffffffffffffffffffffff8116809103610242576024359067ffffffffffffffff821161024257366023830112156102425781600401359061021661021183610172565b610147565b91808352366024828601011161024257602081600092602461024097018387013784010152610247565b565b600080fd5b90813b156103395773ffffffffffffffffffffffffffffffffffffffff8216807fffffffffffffffffffffffff00000000000000000000000000000000000000007f360894a13ba1a3210667c828492db98dca3e2076cc3735a920a3ca505d382bbc5416177f360894a13ba1a3210667c828492db98dca3e2076cc3735a920a3ca505d382bbc557fbc7cd75a20ee27fd9adebab32041f755214dbc6bffa90cc0225b39da2e5c2d3b600080a2805115610306576103039161037d565b50565b50503461030f57565b7fb398979f0000000000000000000000000000000000000000000000000000000060005260046000fd5b73ffffffffffffffffffffffffffffffffffffffff827f4c9c8ce3000000000000000000000000000000000000000000000000000000006000521660045260246000fd5b6000806103b193602081519101845af43d156103b4573d916103a161021184610172565b9283523d6000602085013e6103b8565b90565b6060915b906103f757508051156103cd57602081519101fd5b7fd6bda2750000000000000000000000000000000000000000000000000000000060005260046000fd5b8151158061044c575b610408575090565b73ffffffffffffffffffffffffffffffffffffffff907f9996b315000000000000000000000000000000000000000000000000000000006000521660045260246000fd5b50803b1561040056fea26469706673582212207eb2e5e8909617ac14be56da5fb74304c296d95274d3a9ad9b11a3595d9f79b264736f6c634300081c003360803460bc57601f6105ac38819003918201601f19168301916001600160401b0383118484101760c15780849260209460405283398101031260bc57516001600160a01b0381169081900360bc57801560a657600080546001600160a01b031981168317825560405192916001600160a01b03909116907f8be0079c531659141344cd1fd0a4f28419497f9722a3daafe3b4186f6b6457e09080a36104d490816100d88239f35b631e4fbdf760e01b600052600060045260246000fd5b600080fd5b634e487b7160e01b600052604160045260246000fdfe6080604052600436101561001257600080fd5b6000803560e01c8063715018a61461033e5780638da5cb5b1461030b5780639623609d14610190578063ad3cb1cc1461012b5763f2fde38b1461005457600080fd5b346101285760206003193601126101285760043573ffffffffffffffffffffffffffffffffffffffff81168091036101265761008e61044f565b80156100fa5773ffffffffffffffffffffffffffffffffffffffff8254827fffffffffffffffffffffffff00000000000000000000000000000000000000008216178455167f8be0079c531659141344cd1fd0a4f28419497f9722a3daafe3b4186f6b6457e08380a380f35b6024827f1e4fbdf700000000000000000000000000000000000000000000000000000000815280600452fd5b505b80fd5b50346101285780600319360112610128575061018c60405161014e6040826103bc565b600581527f352e302e30000000000000000000000000000000000000000000000000000000602082015260405191829160208352602083019061040e565b0390f35b5060606003193601126101285760043573ffffffffffffffffffffffffffffffffffffffff81168091036101265760243573ffffffffffffffffffffffffffffffffffffffff81168091036102d25760443567ffffffffffffffff8111610307573660238201121561030757806004013567ffffffffffffffff81116102da5790816020601f19601f8896950116019161022d60405193846103bc565b81835236602483830101116102d657818592602460209301838601378301015261025561044f565b833b156102d2576102a49383926040518096819482937f4f1ef286000000000000000000000000000000000000000000000000000000008452600484015260406024840152604483019061040e565b039134905af180156102c5576102b75780f35b6102c0916103bc565b388180f35b50604051903d90823e3d90fd5b8280fd5b8480fd5b6024857f4e487b710000000000000000000000000000000000000000000000000000000081526041600452fd5b8380fd5b503461012857806003193601126101285773ffffffffffffffffffffffffffffffffffffffff6020915416604051908152f35b503461012857806003193601126101285761035761044f565b8073ffffffffffffffffffffffffffffffffffffffff81547fffffffffffffffffffffffff000000000000000000000000000000000000000081168355167f8be0079c531659141344cd1fd0a4f28419497f9722a3daafe3b4186f6b6457e08280a380f35b90601f601f19910116810190811067ffffffffffffffff8211176103df57604052565b7f4e487b7100000000000000000000000000000000000000000000000000000000600052604160045260246000fd5b919082519283825260005b84811061043a575050601f19601f8460006020809697860101520116010190565b80602080928401015182828601015201610419565b73ffffffffffffffffffffffffffffffffffffffff60005416330361047057565b7f118cdaa7000000000000000000000000000000000000000000000000000000006000523360045260246000fdfea2646970667358221220ea2109e56fc1c6f3c1c3756977591938a67f11d8d269ff70844bd5fabc0529f764736f6c634300081c0033b53127684a568b3173ae13b9f8a6016e243e63b6e8ee1178d6a717850b5d6103a2646970667358221220c4b3d774d8cb3c04c620252215360c1a387f0bdb561600926ad76491719dc56e64736f6c634300081c0033",
  "linkReferences": {},
  "deployedLinkReferences": {}
}