{
  "_format": "hh-sol-artifact-1",
  "contractName": "BManager",
  "sourceName": "contracts/deploy/BManager.sol",
  "abi": [
    {
      "inputs": [],
      "name": "InvalidInitialization",
      "type": "error"
    },
    {
      "inputs": [],
      "name": "NotInitializing",
      "type": "error"
    },
    {
      "inputs": [
        {
          "internalType": "address",
          "name": "owner",
          "type": "address"
        }
      ],
      "name": "OwnableInvalidOwner",
      "type": "error"
    },
    {
      "inputs": [
        {
          "internalType": "address",
          "name": "account",
          "type": "address"
        }
      ],
      "name": "OwnableUnauthorizedAccount",
      "type": "error"
    },
    {
      "anonymous": false,
      "inputs": [
        {
          "indexed": false,
          "internalType": "uint64",
          "name": "version",
          "type": "uint64"
        }
      ],
      "name": "Initialized",
      "type": "event"
    },
    {
      "anonymous": false,
      "inputs": [
        {
          "indexed": true,
          "internalType": "address",
          "name": "previousOwner",
          "type": "address"
        },
        {
          "indexed": true,
          "internalType": "address",
          "name": "newOwner",
          "type": "address"
        }
      ],
      "name": "OwnershipTransferred",
      "type": "event"
    },
    {
      "anonymous": false,
      "inputs": [
        {
          "indexed": false,
          "internalType": "address",
          "name": "creator",
          "type": "address"
        },
        {
          "indexed": false,
          "internalType": "address",
          "name": "settle",
          "type": "address"
        },
        {
          "indexed": false,
          "internalType": "address",
          "name": "perpetual",
          "type": "address"
        },
        {
          "indexed": false,
          "internalType": "address",
          "name": "privatePool",
          "type": "address"
        },
        {
          "indexed": false,
          "internalType": "address",
          "name": "orderBook",
          "type": "address"
        },
        {
          "indexed": false,
          "internalType": "address",
          "name": "tradeAgent",
          "type": "address"
        },
        {
          "indexed": false,
          "internalType": "address",
          "name": "tradeStation",
          "type": "address"
        }
      ],
      "name": "createTradePool",
      "type": "event"
    },
    {
      "stateMutability": "nonpayable",
      "type": "fallback"
    },
    {
      "inputs": [],
      "name": "buyBack",
      "outputs": [
        {
          "internalType": "contract BuyBack",
          "name": "",
          "type": "address"
        }
      ],
      "stateMutability": "view",
      "type": "function"
    },
    {
      "inputs": [
        {
          "internalType": "address",
          "name": "_settle",
          "type": "address"
        },
        {
          "internalType": "uint256",
          "name": "_multi",
          "type": "uint256"
        }
      ],
      "name": "createPerpetualTradeContract",
      "outputs": [],
      "stateMutability": "nonpayable",
      "type": "function"
    },
    {
      "inputs": [
        {
          "internalType": "address",
          "name": "_settle",
          "type": "address"
        }
      ],
      "name": "createPerpetualTradeContract",
      "outputs": [],
      "stateMutability": "nonpayable",
      "type": "function"
    },
    {
      "inputs": [
        {
          "internalType": "string",
          "name": "_tradePairName",
          "type": "string"
        },
        {
          "internalType": "address",
          "name": "_oracleAddr",
          "type": "address"
        }
      ],
      "name": "createUnderlying",
      "outputs": [],
      "stateMutability": "nonpayable",
      "type": "function"
    },
    {
      "inputs": [
        {
          "internalType": "address",
          "name": "_settle",
          "type": "address"
        }
      ],
      "name": "deletePerpetualTradeContract",
      "outputs": [],
      "stateMutability": "nonpayable",
      "type": "function"
    },
    {
      "inputs": [],
      "name": "getSettleList",
      "outputs": [
        {
          "internalType": "address[]",
          "name": "",
          "type": "address[]"
        }
      ],
      "stateMutability": "view",
      "type": "function"
    },
    {
      "inputs": [
        {
          "internalType": "address",
          "name": "_settle",
          "type": "address"
        }
      ],
      "name": "getTradePair",
      "outputs": [
        {
          "internalType": "string[]",
          "name": "pairs",
          "type": "string[]"
        }
      ],
      "stateMutability": "view",
      "type": "function"
    },
    {
      "inputs": [],
      "name": "getTradePoolUnit",
      "outputs": [
        {
          "components": [
            {
              "internalType": "address",
              "name": "creator",
              "type": "address"
            },
            {
              "internalType": "address",
              "name": "settle",
              "type": "address"
            },
            {
              "internalType": "uint256",
              "name": "decimals",
              "type": "uint256"
            },
            {
              "internalType": "string",
              "name": "settleName",
              "type": "string"
            },
            {
              "internalType": "string",
              "name": "symbol",
              "type": "string"
            },
            {
              "internalType": "contract PrivatePool",
              "name": "privatePool",
              "type": "address"
            },
            {
              "internalType": "contract Perpetual",
              "name": "perpetual",
              "type": "address"
            },
            {
              "internalType": "contract OrderBook",
              "name": "orderBook",
              "type": "address"
            },
            {
              "internalType": "contract TradeAgent",
              "name": "tradeAgent",
              "type": "address"
            },
            {
              "internalType": "contract TradeStation",
              "name": "tradeStation",
              "type": "address"
            }
          ],
          "internalType": "struct BManager.TradePoolUnit[]",
          "name": "",
          "type": "tuple[]"
        }
      ],
      "stateMutability": "view",
      "type": "function"
    },
    {
      "inputs": [
        {
          "internalType": "address",
          "name": "_settle",
          "type": "address"
        }
      ],
      "name": "getTradePoolUnit",
      "outputs": [
        {
          "components": [
            {
              "internalType": "address",
              "name": "creator",
              "type": "address"
            },
            {
              "internalType": "address",
              "name": "settle",
              "type": "address"
            },
            {
              "internalType": "uint256",
              "name": "decimals",
              "type": "uint256"
            },
            {
              "internalType": "string",
              "name": "settleName",
              "type": "string"
            },
            {
              "internalType": "string",
              "name": "symbol",
              "type": "string"
            },
            {
              "internalType": "contract PrivatePool",
              "name": "privatePool",
              "type": "address"
            },
            {
              "internalType": "contract Perpetual",
              "name": "perpetual",
              "type": "address"
            },
            {
              "internalType": "contract OrderBook",
              "name": "orderBook",
              "type": "address"
            },
            {
              "internalType": "contract TradeAgent",
              "name": "tradeAgent",
              "type": "address"
            },
            {
              "internalType": "contract TradeStation",
              "name": "tradeStation",
              "type": "address"
            }
          ],
          "internalType": "struct BManager.TradePoolUnit",
          "name": "pool",
          "type": "tuple"
        }
      ],
      "stateMutability": "view",
      "type": "function"
    },
    {
      "inputs": [],
      "name": "getUnderlying",
      "outputs": [
        {
          "internalType": "string[]",
          "name": "names",
          "type": "string[]"
        },
        {
          "internalType": "address[]",
          "name": "addresses",
          "type": "address[]"
        }
      ],
      "stateMutability": "view",
      "type": "function"
    },
    {
      "inputs": [],
      "name": "initBuyBackOrMarketAgent",
      "outputs": [],
      "stateMutability": "nonpayable",
      "type": "function"
    },
    {
      "inputs": [
        {
          "internalType": "address",
          "name": "_initialOwner",
          "type": "address"
        },
        {
          "internalType": "address",
          "name": "_riskAddr",
          "type": "address"
        },
        {
          "internalType": "address",
          "name": "_platformToken",
          "type": "address"
        },
        {
          "internalType": "address",
          "name": "_tradeFee",
          "type": "address"
        },
        {
          "internalType": "address",
          "name": "_platformTradeFee",
          "type": "address"
        }
      ],
      "name": "initialize",
      "outputs": [],
      "stateMutability": "nonpayable",
      "type": "function"
    },
    {
      "inputs": [],
      "name": "marketAgent",
      "outputs": [
        {
          "internalType": "contract MarketAgent",
          "name": "",
          "type": "address"
        }
      ],
      "stateMutability": "view",
      "type": "function"
    },
    {
      "inputs": [],
      "name": "owner",
      "outputs": [
        {
          "internalType": "address",
          "name": "",
          "type": "address"
        }
      ],
      "stateMutability": "view",
      "type": "function"
    },
    {
      "inputs": [],
      "name": "platformToken",
      "outputs": [
        {
          "internalType": "address",
          "name": "",
          "type": "address"
        }
      ],
      "stateMutability": "view",
      "type": "function"
    },
    {
      "inputs": [],
      "name": "platformTradeFeeAccount",
      "outputs": [
        {
          "internalType": "address",
          "name": "",
          "type": "address"
        }
      ],
      "stateMutability": "view",
      "type": "function"
    },
    {
      "inputs": [],
      "name": "proxyFactory",
      "outputs": [
        {
          "internalType": "contract ProxyFactory",
          "name": "",
          "type": "address"
        }
      ],
      "stateMutability": "view",
      "type": "function"
    },
    {
      "inputs": [],
      "name": "renounceOwnership",
      "outputs": [],
      "stateMutability": "nonpayable",
      "type": "function"
    },
    {
      "inputs": [],
      "name": "riskAddr",
      "outputs": [
        {
          "internalType": "address",
          "name": "",
          "type": "address"
        }
      ],
      "stateMutability": "view",
      "type": "function"
    },
    {
      "inputs": [
        {
          "internalType": "address",
          "name": "_addr",
          "type": "address"
        }
      ],
      "name": "setPlatformToken",
      "outputs": [],
      "stateMutability": "nonpayable",
      "type": "function"
    },
    {
      "inputs": [
        {
          "internalType": "address",
          "name": "_addr",
          "type": "address"
        }
      ],
      "name": "setPlatformTradeFeeAccount",
      "outputs": [],
      "stateMutability": "nonpayable",
      "type": "function"
    },
    {
      "inputs": [
        {
          "internalType": "address",
          "name": "_factory",
          "type": "address"
        }
      ],
      "name": "setProxyFactory",
      "outputs": [],
      "stateMutability": "nonpayable",
      "type": "function"
    },
    {
      "inputs": [
        {
          "internalType": "address",
          "name": "_addr",
          "type": "address"
        }
      ],
      "name": "setRiskAddr",
      "outputs": [],
      "stateMutability": "nonpayable",
      "type": "function"
    },
    {
      "inputs": [
        {
          "internalType": "address",
          "name": "_addr",
          "type": "address"
        }
      ],
      "name": "setTradeFeeAddr",
      "outputs": [],
      "stateMutability": "nonpayable",
      "type": "function"
    },
    {
      "inputs": [
        {
          "internalType": "address",
          "name": "_settle",
          "type": "address"
        },
        {
          "internalType": "string[]",
          "name": "_pairs",
          "type": "string[]"
        },
        {
          "internalType": "uint256",
          "name": "_opCode",
          "type": "uint256"
        }
      ],
      "name": "setTradePair",
      "outputs": [],
      "stateMutability": "nonpayable",
      "type": "function"
    },
    {
      "inputs": [
        {
          "internalType": "uint256",
          "name": "",
          "type": "uint256"
        }
      ],
      "name": "settleList",
      "outputs": [
        {
          "internalType": "address",
          "name": "",
          "type": "address"
        }
      ],
      "stateMutability": "view",
      "type": "function"
    },
    {
      "inputs": [],
      "name": "tradeFeeAddr",
      "outputs": [
        {
          "internalType": "address",
          "name": "",
          "type": "address"
        }
      ],
      "stateMutability": "view",
      "type": "function"
    },
    {
      "inputs": [
        {
          "internalType": "address",
          "name": "newOwner",
          "type": "address"
        }
      ],
      "name": "transferOwnership",
      "outputs": [],
      "stateMutability": "nonpayable",
      "type": "function"
    }
  ],
  "bytecode": "0x608080604052346015576142c6908161001b8239f35b600080fdfe6080604052600436101561001a575b3461001557005b600080fd5b6000803560e01c80630255a03b1461379a57806302d72f95146129d6578063032d2e321461294f5780631459457a146126a85780631789682a1461266557806323f1fcbf1461263e578063297ead8b1461258f578063534ec750146122075780635a4327d31461204d5780635cd9dee714611c1c578063645b3fd014611b9357806369a0eeb814611b6c578063715018a614611ad35780638187880514611a41578063873fd3c3146119645780638da5cb5b1461191e5780639360e33a146117d65780639816f4731461168f5780639a999fdb14611676578063a6447d97146107c3578063acdf4f181461079c578063c10f1a7514610775578063d1b812cd1461074e578063e08061b314610727578063eaa1606d146101ee578063f2fde38b146101c1578063f58520391461019b5763fbddd7511461015a575061000e565b34610198576020600319360112610198576001600160a01b0361017b613823565b6101836141d6565b166001600160a01b0319600754161760075580f35b80fd5b50346101985780600319360112610198576001600160a01b036020915416604051908152f35b5034610198576020600319360112610198576101eb6101de613823565b6101e66141d6565b614117565b80f35b5034610198576020600319360112610198576001600160a01b03610210613823565b16808252600860205260408220610235826001600160a01b0360018401541614613d46565b6001600160a01b0381541633036106e357826001600160a01b036006600493015416604051928380927fcd2ce4ae0000000000000000000000000000000000000000000000000000000082525afa9081156106d85783916106b6575b5061029a6141d6565b81835260086020528260408120604051906102b482613880565b6001600160a01b0381541682526001600160a01b036001820154169160208101928352600282015460408201526102ed60038301613c84565b60608201526102fe60048301613c84565b60808201526001600160a01b036005830154169160a082019283526001600160a01b036006820154169360c083019485526001600160a01b036007830154169660e084019788526101206001600160a01b03600981600887015416956101008801968752015416940193845261037f896001600160a01b0384511614613d46565b865b815181101561057e576103948183613c49565b516001600160a01b03600754166001600160a01b038551166001600160a01b038a51166001600160a01b03885116928d6001600160a01b03808d51169151166001600160a01b038c511691833b1561057a578f956104179387938a936040519a8b998a988997631afa745960e11b895261010060048a0152610104890190613974565b9560248801528760448801526064870152608486015260a485015260c484015260e483015203925af190811561056f578a91610556575b50506001600160a01b03885116906001600160a01b036007541690602060405180936305ca57cf60e01b8252826004830152818061048f6024820187613974565b03915afa91821561054b578b9261051b575b50823b15610517576104d7926001600160a01b038c809460405196879586948593633845c6c360e11b8552169060048401613c5d565b03925af190811561050c5789916104f3575b5050600101610381565b816104fd916138b3565b6105085787386104e9565b8780fd5b6040513d8b823e3d90fd5b8a80fd5b61053d91925060203d8111610544575b61053581836138b3565b810190613b8e565b90386104a1565b503d61052b565b6040513d8d823e3d90fd5b81610560916138b3565b61056b57883861044e565b8880fd5b6040513d8c823e3d90fd5b8f80fd5b878a8082526008602052816009604082208281558260018201558260028201556105aa600382016140c8565b6105b6600482016140c8565b8260058201558260068201558260078201558260088201550155815b600454808210156106b0576001600160a01b036105ee8361384f565b90549060031b1c16831461060557506001016105d2565b909150600019810190811161069c579061063a6001600160a01b0361062c6106599461384f565b90549060031b1c169161384f565b9091906001600160a01b038084549260031b9316831b921b1916179055565b6004548015610688576000190161066f8161384f565b6001600160a01b0382549160031b1b1916905560045580f35b602482634e487b7160e01b81526031600452fd5b602483634e487b7160e01b81526011600452fd5b50505080f35b6106d291503d8085833e6106ca81836138b3565b810190613bad565b38610291565b6040513d85823e3d90fd5b606460405162461bcd60e51b815260206004820152601660248201527f466f7262696464656e2c206e6f742063726561746f72000000000000000000006044820152fd5b503461019857806003193601126101985760206001600160a01b0360025416604051908152f35b503461019857806003193601126101985760206001600160a01b0360015416604051908152f35b503461019857806003193601126101985760206001600160a01b0360075416604051908152f35b503461019857806003193601126101985760206001600160a01b0360055416604051908152f35b5034610198576020600319360112610198576107dd613823565b906107e6613ddd565b6001600160a01b03821691828252600860205260408220926001840190806001600160a01b0383541614611632576004546801000000000000000081101561161e579061083e8461063a84600189960160045561384f565b60075482546040517f45d4b4510000000000000000000000000000000000000000000000000000000081526001600160a01b038781166004830152918216602482015293602092859260449284929091165af19182156116135785926115cf575b5060075485546002546003546040517f1a9a95870000000000000000000000000000000000000000000000000000000081526001600160a01b03968716600482018190529387166024820152888716604482015291861660648301528516608482015290939091602091839160a49183918b91165af19081156111d557869161158d575b506007546040517f047fd0d50000000000000000000000000000000000000000000000000000000081526001600160a01b0385811660048301529283166024820181905287841660448301529590929091602091849160649183918c91165af191821561158257879261153e575b506007546040517f649031820000000000000000000000000000000000000000000000000000000081526001600160a01b03868116600483015287811660248301528881166044830152909791602091899160649183918d91165af19687156111775790889493929185986114ef575b506007546040517fa55d4ec80000000000000000000000000000000000000000000000000000000081526001600160a01b038881166004830152898116602483015292831660448201529560209287921690829081606481015b03925af19384156111775788946114ab575b50826001600160a01b03198254161790556001600160a01b0333166001600160a01b031989541617885560058801846001600160a01b0319825416179055600988016001600160a01b0384166001600160a01b0319825416179055600888016001600160a01b0387166001600160a01b0319825416179055600788016001600160a01b0382166001600160a01b031982541617905560068801856001600160a01b03198254161790556040517f06fdde030000000000000000000000000000000000000000000000000000000081528781600481865afa908115611177578891611491575b50805160038a019167ffffffffffffffff821161147d57610b738354613b3d565b601f811161144d575b50602090601f83116001146113ea57610bac92918b91836112b9575b50506000198260011b9260031b1c19161790565b90555b6040517f313ce567000000000000000000000000000000000000000000000000000000008152602081600481865afa80156111775788906113ad575b60ff1660028a0155506040517f95d89b41000000000000000000000000000000000000000000000000000000008152978789600481865afa988915611177578899611386575b50600401885167ffffffffffffffff811161137257610c508254613b3d565b601f8111611337575b506020601f82116001146112c457926001600160a01b039392610c9a8386959486958e9f8f9d9e9f926112b95750506000198260011b9260031b1c19161790565b90555b16971692167fe34d8fa001b04475d221b96a007a245b5ce7381c8fa9a9bf4b8fb5ffecbca93e60e06040513381528460208201528860408201528660608201528960808201528560a08201528360c0820152a16001600160a01b03600554166001600160a01b0360065416600460206001600160a01b0360075416604051928380926306d6aa2760e51b82525afa90811561117757889161129a575b50883b15610508576001600160a01b0391604051937ff74c304900000000000000000000000000000000000000000000000000000000855260048501528a602485015286604485015284606485015260848401521660a4820152858160c481838b5af19081156111d5578691611285575b5050863b156111f557604051631580010360e11b81526001600160a01b038481166004830152821660248201528581604481838c5af19081156111d5578691611270575b5050823b156111f557604051631580010360e11b81526001600160a01b03888116600483015282166024820152858160448183885af19081156111d557869161125b575b5050803b156111f557604051631580010360e11b81526001600160a01b03888116600483015284166024820152858160448183865af19081156111d5578691611246575b5050600460206001600160a01b0360075416604051928380926306d6aa2760e51b82525afa9081156111d5578691611227575b50843b156111f9576040517ff6ef18390000000000000000000000000000000000000000000000000000000081526001600160a01b038881166004830152898116602483015285811660448301528381166064830152919091166084820152858160a48183895af19081156111d5578691611212575b50506001600160a01b0360065416803b156111f95785809160446040518094819363226dc99760e21b83528c6004840152600160248401525af19081156111d55786916111fd575b50506001600160a01b0360055416803b156111f95785809160a4604051809481937fcc317b0b000000000000000000000000000000000000000000000000000000008352886004840152670de0b6b3a764000060248401528160448401528160648401528160848401525af19081156111d55786916111e0575b50936004946001600160a01b03600754166040519687809262c1fbd760e51b82525afa9485156111d55786956111b9575b50855b85518110156111b5576001600160a01b03600754166110348288613c49565b5190803b1561056b578a899161106d838d9560405196879586948593631afa745960e11b85526101006004860152610104850190613974565b918d6024850152670de0b6b3a7640000604485015260648401528d60848401528a60a484015260c48301528a60e483015203925af19081156111775788916111a0575b50506110bc8187613c49565b516110fc60206001600160a01b03600754166110d8858b613c49565b519060405180809581946305ca57cf60e01b83528660048401526024830190613974565b03915afa90811561050c578991611182575b50893b1561056b576001600160a01b0389916111406040519485938493633845c6c360e11b8552169060048401613c5d565b0381838d5af190811561117757889161115e575b5050600101611015565b81611168916138b3565b611173578638611154565b8680fd5b6040513d8a823e3d90fd5b61119a915060203d81116105445761053581836138b3565b3861110e565b816111aa916138b3565b6111735786386110b0565b8680f35b6111ce9195503d8088833e6106ca81836138b3565b9338611012565b6040513d88823e3d90fd5b816111ea916138b3565b6111f5578438610fe1565b8480fd5b8580fd5b81611207916138b3565b6111f5578438610f67565b8161121c916138b3565b6111f5578438610f1f565b611240915060203d6020116105445761053581836138b3565b38610ea9565b81611250916138b3565b6111f5578438610e76565b81611265916138b3565b6111f5578438610e32565b8161127a916138b3565b6111f5578438610dee565b8161128f916138b3565b6111f5578438610daa565b6112b3915060203d6020116105445761053581836138b3565b38610d39565b015190503880610b98565b828a52808a209a601f1983168b5b81811061131f5750838c9d6001600160a01b0397948897949d9e9c9d889760019510611306575b505050811b019055610c9d565b015160001960f88460031b161c191690553880806112f9565b838301518e556001909d019c602093840193016112d2565b61136290838b5260208b20601f840160051c81019160208510611368575b601f0160051c0190613b77565b38610c59565b9091508190611355565b602489634e487b7160e01b81526041600452fd5b60049199506113a6903d808b833e61139e81836138b3565b810190613b17565b9890610c31565b506020813d6020116113e2575b816113c7602093836138b3565b81010312610508575160ff811681036105085760ff90610beb565b3d91506113ba565b838b52818b209190601f1984168c5b818110611435575090846001959493921061141c575b505050811b019055610baf565b015160001960f88460031b161c1916905538808061140f565b929360206001819287860151815501950193016113f9565b61147790848c5260208c20601f850160051c8101916020861061136857601f0160051c0190613b77565b38610b7c565b60248a634e487b7160e01b81526041600452fd5b6114a591503d808a833e61139e81836138b3565b38610b52565b9093506020813d6020116114e7575b816114c7602093836138b3565b8101031261050857516001600160a01b0381168103610508579238610a6d565b3d91506114ba565b919293945096506020813d602011611536575b8161150f602093836138b3565b8101031261050857516001600160a01b038116810361050857958793929190610a5b610a01565b3d9150611502565b9091506020813d60201161157a575b8161155a602093836138b3565b8101031261117357516001600160a01b0381168103611173579038610991565b3d915061154d565b6040513d89823e3d90fd5b90506020813d6020116115c7575b816115a8602093836138b3565b810103126111f957516001600160a01b03811681036111f95738610923565b3d915061159b565b9091506020813d60201161160b575b816115eb602093836138b3565b810103126111f557516001600160a01b03811681036111f557903861089f565b3d91506115de565b6040513d87823e3d90fd5b602485634e487b7160e01b81526041600452fd5b606460405162461bcd60e51b815260206004820152600e60248201527f616c7265616479206578697374730000000000000000000000000000000000006044820152fd5b50346101985780600319360112610198576101eb613ddd565b50346101985780600319360112610198576001600160a01b03600754166040519062c1fbd760e51b82528282600481845afa9182156106d85783926117ba575b50815190601f196116f86116e2846138d6565b936116f060405195866138b3565b8085526138d6565b01366020840137835b835181101561178c5780602061171a61173c9387613c49565b51604051809481926305ca57cf60e01b83528460048401526024830190613974565b0381865afa9182156111d5576001926001600160a01b0391889161176e575b50166117678286613c49565b5201611701565b611786915060203d81116105445761053581836138b3565b3861175b565b6117a8846117b685604051938493604085526040850190613a79565b908382036020850152613a3c565b0390f35b6117cf9192503d8085833e6106ca81836138b3565b90386116cf565b5034610198576020600319360112610198576004816001600160a01b03806117fc613823565b1680835260086020526118a260408420918360405161181a81613880565b8185541681528160018601541690602081019182526002860154604082015261184560038701613c84565b6060820152611855898701613c84565b60808201528260058701541660a08201526101208360098160068a0154169860c08501998a528260078201541660e086015282600882015416610100860152015416910152511614613d46565b5116604051928380927fcd2ce4ae0000000000000000000000000000000000000000000000000000000082525afa90811561191357826117b693926118f8575b5050604051918291602083526020830190613a79565b61190c92503d8091833e6106ca81836138b3565b38806118e2565b6040513d84823e3d90fd5b503461019857806003193601126101985760206001600160a01b037f9016d09d72d40fdae2fd8ceac6b6234c7706214fd39c1cd1e609a0528c1993005416604051908152f35b50346101985760206003193601126101985760406117b6916001600160a01b0361198c613823565b611994613d91565b501681526008602052206001600160a01b036009604051926119b584613880565b828154168452826001820154166020850152600281015460408501526119dd60038201613c84565b60608501526119ee60048201613c84565b60808501528260058201541660a08501528260068201541660c08501528260078201541660e085015282600882015416610100850152015416610120820152604051918291602083526020830190613999565b503461019857806003193601126101985760405180916020600454928381520191600482527f8a35acfbc15ff81a39ae7d344fd709f28e8600b4aa8c65c6b64bfe7fe36bd19b915b818110611ab4576117b685611aa0818703826138b3565b604051918291602083526020830190613a3c565b82546001600160a01b0316845260209093019260019283019201611a89565b5034610198578060031936011261019857611aec6141d6565b806001600160a01b037f9016d09d72d40fdae2fd8ceac6b6234c7706214fd39c1cd1e609a0528c199300546001600160a01b031981167f9016d09d72d40fdae2fd8ceac6b6234c7706214fd39c1cd1e609a0528c19930055167f8be0079c531659141344cd1fd0a4f28419497f9722a3daafe3b4186f6b6457e08280a380f35b503461019857806003193601126101985760206001600160a01b0360065416604051908152f35b5034610198576020600319360112610198576001600160a01b03611bb5613823565b611bbd6141d6565b168015611bd8576001600160a01b0319600254161760025580f35b606460405162461bcd60e51b815260206004820152601960248201527f5472616465204665652041646472657373206973207a65726f000000000000006044820152fd5b50346101985760406003193601126101985760043567ffffffffffffffff8111611faa57611c4e90369060040161390a565b611c56613839565b611c5e6141d6565b6001600160a01b0360075416908115612009576020611cb0859384936040519485809481937f5cd9dee70000000000000000000000000000000000000000000000000000000083528a60048401613c5d565b03925af18015611913576001600160a01b03918391611fea575b5016600460206001600160a01b0360075416604051928380926306d6aa2760e51b82525afa9081156106d8578391611fcb575b50813b15611f71576001600160a01b03602484928360405195869485937f748747e60000000000000000000000000000000000000000000000000000000085521660048401525af1801561191357611fb6575b505b600454811015611fb2576001600160a01b03611d6d8261384f565b90549060031b1c1683526008602052826040812060405190611d8e82613880565b6001600160a01b0381541682526001600160a01b03600182015416916020810192835260028201546040820152611dc760038301613c84565b6060820152611dd860048301613c84565b608082015260058201546001600160a01b0390811660a083018190526006840154821660c08401818152600780870154851660e0870181905260088801548616610100880181905260099098015486166101209097018790529054975191979296670de0b6b3a7640000959384169491939192909116843b15611fae578996611e869488948e946040519b8c9a8b998a98631afa745960e11b8a5261010060048b01526101048a0190613974565b96602489015260448801526064870152608486015260a485015260c484015260e483015203925af19081156106d8578391611f95575b50506001600160a01b039051166001600160a01b036007541690602060405180936305ca57cf60e01b82528260048301528180611efc602482018b613974565b03915afa9182156106d8578392611f75575b50803b15611f71576001600160a01b038391611f439383604051809681958294633845c6c360e11b8452168b60048401613c5d565b03925af1801561191357611f5c575b5050600101611d52565b81611f66916138b3565b611f71578238611f52565b8280fd5b611f8e91925060203d81116105445761053581836138b3565b9038611f0e565b81611f9f916138b3565b611faa578138611ebc565b5080fd5b8980fd5b8280f35b81611fc0916138b3565b611faa578138611d50565b611fe4915060203d6020116105445761053581836138b3565b38611cfd565b612003915060203d6020116105445761053581836138b3565b38611cca565b606460405162461bcd60e51b815260206004820152601a60248201527f696e76616c696420756e6465726c79696e6720666163746f72790000000000006044820152fd5b503461019857806003193601126101985760045461206a816138d6565b9061207860405192836138b3565b808252601f19612087826138d6565b01835b8181106121f0575050825b81811061211f5782846040519182916020830160208452825180915260408401602060408360051b870101940192905b8282106120d457505050500390f35b9193602061210f827fffffffffffffffffffffffffffffffffffffffffffffffffffffffffffffffc060019597998495030186528851613999565b96019201920185949391926120c5565b806001600160a01b0361213360019361384f565b90549060031b1c1685526008602052604085206001600160a01b0360096040519261215d84613880565b82815416845282868201541660208501526002810154604085015261218460038201613c84565b606085015261219560048201613c84565b60808501528260058201541660a08501528260068201541660c08501528260078201541660e0850152826008820154166101008501520154166101208201526121de8286613c49565b526121e98185613c49565b5001612095565b6020906121fb613d91565b8282870101520161208a565b503461019857606060031936011261019857612221613823565b6024359067ffffffffffffffff8211611f715736602383011215611f715781600401359161224e836138d6565b9261225c60405194856138b3565b80845260051b8101602401602084013682116111f95760248301905b82821061255f5786866001600160a01b03876122926141d6565b1680835260086020528260408120604051906122ad82613880565b6001600160a01b0381541682526001600160a01b036001820154169160208101928352600282015460408201526122e660038301613c84565b60608201526122f760048301613c84565b60808201526001600160a01b036005830154169160a082019283526001600160a01b036006820154169360c083019485526123776001600160a01b036007840154169760e085019889526101206001600160a01b0360098160088801541696610100890197885201541695019485526001600160a01b0383511614613d46565b855b88518110156111b55761238c818a613c49565b516001600160a01b03600754166001600160a01b038451169060016044351460001461255957670de0b6b3a76400005b6001600160a01b038a5116918c6001600160a01b038951166001600160a01b03808d5116925116946001600160a01b038c511696843b1561057a578f969767ffffffffffffffff986124339589958c956040519c8d9b8c9a8b99631afa745960e11b8b5261010060048c01526101048b0190613974565b9760248a01521660448801526064870152608486015260a485015260c484015260e483015203925af190811561050c578991612544575b50506001600160a01b03875116906001600160a01b036007541690602060405180936305ca57cf60e01b825282600483015281806124ab6024820187613974565b03915afa91821561056f578a92612524575b50823b15611fae576124f3926001600160a01b038b809460405196879586948593633845c6c360e11b8552169060048401613c5d565b03925af190811561117757889161250f575b5050600101612379565b81612519916138b3565b61117357868b612505565b61253d91925060203d81116105445761053581836138b3565b908d6124bd565b8161254e916138b3565b61050857878c61246a565b896123bc565b813567ffffffffffffffff81116105085760209161258483926024369189010161390a565b815201910190612278565b5034610198576020600319360112610198576001600160a01b036125b1613823565b6125b96141d6565b1680156125d4576001600160a01b0319600354161760035580f35b608460405162461bcd60e51b815260206004820152602260248201527f506c6174666f726d207472616465206665652041646472657373206973207a6560448201527f726f0000000000000000000000000000000000000000000000000000000000006064820152fd5b503461019857806003193601126101985760206001600160a01b0360035416604051908152f35b503461019857602060031936011261019857600435906004548210156101985760206001600160a01b036126988461384f565b90549060031b1c16604051908152f35b50346101985760a0600319360112610198576126c2613823565b6126ca613839565b6044356001600160a01b03811680910361294b57606435906001600160a01b0382168092036111f557608435926001600160a01b0384168094036111f9577ff0c57e16840df040f15088dc2f81fe391c3923bec73e23a9662efc9c229c6a00549460ff8660401c16159567ffffffffffffffff811680159081612943575b6001149081612939575b159081612930575b50612908576001600160a01b039291818860017fffffffffffffffffffffffffffffffffffffffffffffffff00000000000000006127d59516177ff0c57e16840df040f15088dc2f81fe391c3923bec73e23a9662efc9c229c6a00556128b3575b506127c4614237565b6127cc614237565b6101de33614117565b166001600160a01b03198654161785556001600160a01b031960015416176001556001600160a01b031960025416176002556001600160a01b0319600354161760035561281f5780f35b7fffffffffffffffffffffffffffffffffffffffffffffff00ffffffffffffffff7ff0c57e16840df040f15088dc2f81fe391c3923bec73e23a9662efc9c229c6a0054167ff0c57e16840df040f15088dc2f81fe391c3923bec73e23a9662efc9c229c6a00557fc7f505b2f371ae2175ee4913f4499e1f2633a7b5936321eed1cdaeb6115181d2602060405160018152a180f35b7fffffffffffffffffffffffffffffffffffffffffffffff0000000000000000001668010000000000000001177ff0c57e16840df040f15088dc2f81fe391c3923bec73e23a9662efc9c229c6a0055386127bb565b6004887ff92ee8a9000000000000000000000000000000000000000000000000000000008152fd5b9050153861275a565b303b159150612752565b889150612748565b8380fd5b5034610198576020600319360112610198576001600160a01b03612971613823565b6129796141d6565b168015612992576001600160a01b031982541617815580f35b606460405162461bcd60e51b815260206004820152601460248201527f7269736b2061646472657373206973207a65726f0000000000000000000000006044820152fd5b5034610198576040600319360112610198576129f0613823565b90602435906129fd613ddd565b6001600160a01b03831691828252600860205260408220906001820194846001600160a01b0387541614611632576004546801000000000000000081101561161e5790612a568161063a8460018997960160045561384f565b60075483546040517f45d4b4510000000000000000000000000000000000000000000000000000000081526001600160a01b038481166004830152918216602482015294602092869260449284929091165af1928315611613578593613756575b5060075485546002546003546040517f1a9a95870000000000000000000000000000000000000000000000000000000081526001600160a01b03978816600482018190529388166024820152858816604482015291871660648301528616608482015290949091602091839160a49183918b91165af19081156111d5578691613714575b506007546040517f047fd0d50000000000000000000000000000000000000000000000000000000081526001600160a01b0386811660048301529283166024820181905284841660448301529690929091602091849160649183918c91165af19182156115825787926136ce575b506007546040517f649031820000000000000000000000000000000000000000000000000000000081526001600160a01b03878116600483015288811660248301528086166044830152909491602091869116818b81606481015b03925af1938415611177578894613687575b506007546040517fa55d4ec80000000000000000000000000000000000000000000000000000000081526001600160a01b03888116600483015289811660248301529283166044820152999a989998916020918a9160649183918e91165af197881561050c578998613643575b50896001600160a01b03198254161790556001600160a01b0333166001600160a01b031982541617815560058101856001600160a01b0319825416179055600981016001600160a01b0388166001600160a01b0319825416179055600881016001600160a01b0384166001600160a01b0319825416179055600781016001600160a01b0383166001600160a01b031982541617905560068101866001600160a01b03198254161790556040517f06fdde0300000000000000000000000000000000000000000000000000000000815288816004818d5afa90811561050c578991613629575b508051600383019167ffffffffffffffff821161361557612d898354613b3d565b601f81116135e5575b50602090601f831160011461358257612dc192918c91836112b95750506000198260011b9260031b1c19161790565b90555b6040517f313ce5670000000000000000000000000000000000000000000000000000000081526020816004818d5afa801561050c578990613545575b60ff166002830155506040517f95d89b410000000000000000000000000000000000000000000000000000000081529088826004818d5afa91821561050c578992613526575b506004019080519067ffffffffffffffff821161147d57612e678354613b3d565b601f81116134f6575b506020908a601f841160011461348657836001600160a01b03969394879693958796612eaf94926112b95750506000198260011b9260031b1c19161790565b90555b1692169516917fe34d8fa001b04475d221b96a007a245b5ce7381c8fa9a9bf4b8fb5ffecbca93e60e06040513381528a60208201528760408201528660608201528460808201528860a08201528560c0820152a16001600160a01b03600554169760046001600160a01b036006541660206001600160a01b0360075416604051938480926306d6aa2760e51b82525afa91821561056f578a92613465575b50873b15611fae57906001600160a01b03916040519b7ff74c3049000000000000000000000000000000000000000000000000000000008d5260048d01528560248d01528960448d01528660648d015260848c01521660a48a0152878960c481838a5af180156111775761344c575b87985082979596973b156111f957604051631580010360e11b81526001600160a01b03898116600483015285166024820152868160448183885af1908115611582578791613437575b5050873b156111f957604051631580010360e11b81526001600160a01b038481166004830152851660248201528681604481838d5af1908115611582578791613422575b5050833b156111f957604051631580010360e11b81526001600160a01b03848116600483015289166024820152868160448183895af190811561158257879161340d575b5050600460206001600160a01b0360075416604051928380926306d6aa2760e51b82525afa9081156115825787916133ee575b50853b15611173576040517ff6ef18390000000000000000000000000000000000000000000000000000000081526001600160a01b03898116600483015285811660248301528a811660448301528681166064830152919091166084820152868160a481838a5af19081156115825787916133d9575b50506001600160a01b0360065416803b156111735786809160446040518094819363226dc99760e21b83528d6004840152600160248401525af19081156115825787916133c4575b50506001600160a01b0360055416803b156111735786809160a4604051809481937fcc317b0b0000000000000000000000000000000000000000000000000000000083528760048401528860248401528160448401528160648401528160848401525af19081156115825787916133af575b50946004956001600160a01b03600754166040519788809262c1fbd760e51b82525afa958615611582578796613393575b50865b865181101561338f576001600160a01b03600754166132468289613c49565b5190803b15611fae578b8a9161327f838e9560405196879586948593631afa745960e11b85526101006004860152610104850190613974565b918c60248501528d6044850152606484015260848301528960a48301528c60c48301528d60e483015203925af190811561050c57899161337a575b50506132c68188613c49565b516132e260206001600160a01b03600754166110d8858c613c49565b03915afa90811561056f578a9161335c575b508a3b15611fae5761332b918b6001600160a01b038c809460405196879586948593633845c6c360e11b8552169060048401613c5d565b03925af190811561050c578991613347575b5050600101613227565b81613351916138b3565b61050857873861333d565b613374915060203d81116105445761053581836138b3565b386132f4565b81613384916138b3565b6105085787386132ba565b8780f35b6133a89196503d8089833e6106ca81836138b3565b9438613224565b816133b9916138b3565b6111f95785386131f3565b816133ce916138b3565b6111f9578538613181565b816133e3916138b3565b6111f9578538613139565b613407915060203d6020116105445761053581836138b3565b386130c3565b81613417916138b3565b6111f9578538613090565b8161342c916138b3565b6111f957853861304c565b81613441916138b3565b6111f9578538613008565b94959690978161345b916138b3565b9594938790612fbf565b61347f91925060203d6020116105445761053581836138b3565b9038612f50565b50838b52818b209190601f1984168c5b8181106134de5750936001600160a01b039693879693600193838998106134c5575b505050811b019055612eb2565b015160001960f88460031b161c191690553880806134b8565b92936020600181928786015181550195019301613496565b61352090848c5260208c20601f850160051c8101916020861061136857601f0160051c0190613b77565b38612e70565b600491925061353e903d808c833e61139e81836138b3565b9190612e46565b506020813d60201161357a575b8161355f602093836138b3565b8101031261056b575160ff8116810361056b5760ff90612e00565b3d9150613552565b838c52818c209190601f1984168d5b8181106135cd57509084600195949392106135b4575b505050811b019055612dc4565b015160001960f88460031b161c191690553880806135a7565b92936020600181928786015181550195019301613591565b61360f90848d5260208d20601f850160051c8101916020861061136857601f0160051c0190613b77565b38612d92565b60248b634e487b7160e01b81526041600452fd5b61363d91503d808b833e61139e81836138b3565b38612d68565b9097506020813d60201161367f575b8161365f602093836138b3565b8101031261056b57516001600160a01b038116810361056b579638612c83565b3d9150613652565b9093506020813d6020116136c6575b816136a3602093836138b3565b810103126105085751986001600160a01b038a168a036105085798926020612c16565b3d9150613696565b9091506020813d60201161370c575b816136ea602093836138b3565b8101031261117357516001600160a01b03811681036111735790612c04612ba9565b3d91506136dd565b90506020813d60201161374e575b8161372f602093836138b3565b810103126111f957516001600160a01b03811681036111f95738612b3b565b3d9150613722565b9092506020813d602011613792575b81613772602093836138b3565b810103126111f557516001600160a01b03811681036111f5579138612ab7565b3d9150613765565b5034610198576020600319360112610198576001600160a01b036137bc613823565b6137c46141d6565b1680156137df576001600160a01b0319600154161760015580f35b606460405162461bcd60e51b815260206004820152601e60248201527f506c6174666f726d20546f6b656e2041646472657373206973207a65726f00006044820152fd5b600435906001600160a01b038216820361001557565b602435906001600160a01b038216820361001557565b60045481101561386a57600460005260206000200190600090565b634e487b7160e01b600052603260045260246000fd5b610140810190811067ffffffffffffffff82111761389d57604052565b634e487b7160e01b600052604160045260246000fd5b90601f601f19910116810190811067ffffffffffffffff82111761389d57604052565b67ffffffffffffffff811161389d5760051b60200190565b67ffffffffffffffff811161389d57601f01601f191660200190565b81601f8201121561001557803590613921826138ee565b9261392f60405194856138b3565b8284526020838301011161001557816000926020809301838601378301015290565b60005b8381106139645750506000910152565b8181015183820152602001613954565b90601f19601f60209361399281518092818752878088019101613951565b0116010190565b906001600160a01b0382511681526001600160a01b036020830151166020820152604082015160408201526101206001600160a01b0381613a006139ee60608701516101406060880152610140870190613974565b60808701518682036080880152613974565b948260a08201511660a08601528260c08201511660c08601528260e08201511660e0860152826101008201511661010086015201511691015290565b906020808351928381520192019060005b818110613a5a5750505090565b82516001600160a01b0316845260209384019390920191600101613a4d565b9080602083519182815201916020808360051b8301019401926000915b838310613aa557505050505090565b9091929394602080613ac383601f1986600196030187528951613974565b97019301930191939290613a96565b81601f82011215610015578051613ae8816138ee565b92613af660405194856138b3565b8184526020828401011161001557613b149160208085019101613951565b90565b9060208282031261001557815167ffffffffffffffff811161001557613b149201613ad2565b90600182811c92168015613b6d575b6020831014613b5757565b634e487b7160e01b600052602260045260246000fd5b91607f1691613b4c565b818110613b82575050565b60008155600101613b77565b9081602091031261001557516001600160a01b03811681036100155790565b6020818303126100155780519067ffffffffffffffff821161001557019080601f83011215610015578151613be1816138d6565b92613bef60405194856138b3565b81845260208085019260051b820101918383116100155760208201905b838210613c1b57505050505090565b815167ffffffffffffffff811161001557602091613c3e87848094880101613ad2565b815201910190613c0c565b805182101561386a5760209160051b010190565b906001600160a01b03613c7d602092959495604085526040850190613974565b9416910152565b9060405191826000825492613c9884613b3d565b8084529360018116908115613d065750600114613cbf575b50613cbd925003836138b3565b565b90506000929192526020600020906000915b818310613cea575050906020613cbd9282010138613cb0565b6020919350806001915483858901015201910190918492613cd1565b60209350613cbd9592507fffffffffffffffffffffffffffffffffffffffffffffffffffffffffffffff0091501682840152151560051b82010138613cb0565b15613d4d57565b606460405162461bcd60e51b815260206004820152600f60248201527f736574746c65206d69736d6174636800000000000000000000000000000000006044820152fd5b60405190613d9e82613880565b600061012083828152826020820152826040820152606080820152606060808201528260a08201528260c08201528260e0820152826101008201520152565b6005546001600160a01b036000911615613f5c575b6001600160a01b036006541615613e065750565b8060206001600160a01b03600754166004604051809481937f91f1cfc10000000000000000000000000000000000000000000000000000000083525af18015611913578290613f13575b6001600160a01b03915016806001600160a01b03196006541617600655600460206001600160a01b0360075416604051928380926306d6aa2760e51b82525afa9081156106d8578391613ef4575b50813b15611f71576001600160a01b036044849283604051958694859363226dc99760e21b8552166004840152600160248401525af1801561191357613ee2575050565b613eed8280926138b3565b6101985750565b613f0d915060203d6020116105445761053581836138b3565b38613e9e565b506020813d602011613f54575b81613f2d602093836138b3565b81010312611faa57516001600160a01b0381168103611faa576001600160a01b0390613e50565b3d9150613f20565b8060206001600160a01b036007541660246001600160a01b036001541660405194859384927f57d475ef00000000000000000000000000000000000000000000000000000000845260048401525af1801561191357829061407f575b6001600160a01b03915016806001600160a01b03196005541617600555600460206001600160a01b0360075416604051928380926306d6aa2760e51b82525afa9081156106d8578391614060575b50813b15611f71576001600160a01b036044849283604051958694859363226dc99760e21b8552166004840152600160248401525af18015611913578290614050575b5050613df2565b614059916138b3565b3881614049565b614079915060203d6020116105445761053581836138b3565b38614006565b506020813d6020116140c0575b81614099602093836138b3565b81010312611faa57516001600160a01b0381168103611faa576001600160a01b0390613fb8565b3d915061408c565b6140d28154613b3d565b90816140dc575050565b81601f600093116001146140ee575055565b8183526020832061410a91601f0160051c810190600101613b77565b8082528160208120915555565b6001600160a01b031680156141a7576001600160a01b037f9016d09d72d40fdae2fd8ceac6b6234c7706214fd39c1cd1e609a0528c19930054826001600160a01b03198216177f9016d09d72d40fdae2fd8ceac6b6234c7706214fd39c1cd1e609a0528c19930055167f8be0079c531659141344cd1fd0a4f28419497f9722a3daafe3b4186f6b6457e0600080a3565b7f1e4fbdf700000000000000000000000000000000000000000000000000000000600052600060045260246000fd5b6001600160a01b037f9016d09d72d40fdae2fd8ceac6b6234c7706214fd39c1cd1e609a0528c1993005416330361420957565b7f118cdaa7000000000000000000000000000000000000000000000000000000006000523360045260246000fd5b60ff7ff0c57e16840df040f15088dc2f81fe391c3923bec73e23a9662efc9c229c6a005460401c161561426657565b7fd7e6bcf80000000000000000000000000000000000000000000000000000000060005260046000fdfea264697066735822122031f3ca902f98589523441802a80d113e70fc6c16be1c16a6cf86e745a3922dde64736f6c634300081c0033",
  "linkReferences": {},
  "deployedLinkReferences": {}
}