{
  "_format": "hh-sol-artifact-1",
  "contractName": "LeadingContract",
  "sourceName": "contracts/LeadingContract.sol",
  "abi": [
    {
      "inputs": [],
      "name": "InvalidInitialization",
      "type": "error"
    },
    {
      "inputs": [],
      "name": "NotInitializing",
      "type": "error"
    },
    {
      "inputs": [
        {
          "internalType": "address",
          "name": "owner",
          "type": "address"
        }
      ],
      "name": "OwnableInvalidOwner",
      "type": "error"
    },
    {
      "inputs": [
        {
          "internalType": "address",
          "name": "account",
          "type": "address"
        }
      ],
      "name": "OwnableUnauthorizedAccount",
      "type": "error"
    },
    {
      "inputs": [],
      "name": "ReentrancyGuardReentrantCall",
      "type": "error"
    },
    {
      "anonymous": false,
      "inputs": [
        {
          "indexed": false,
          "internalType": "string",
          "name": "symbol",
          "type": "string"
        },
        {
          "indexed": false,
          "internalType": "uint256",
          "name": "amount",
          "type": "uint256"
        },
        {
          "indexed": false,
          "internalType": "uint256",
          "name": "price",
          "type": "uint256"
        },
        {
          "indexed": false,
          "internalType": "enum Direct",
          "name": "direct",
          "type": "uint8"
        },
        {
          "indexed": false,
          "internalType": "uint256",
          "name": "profit",
          "type": "uint256"
        }
      ],
      "name": "ClosePosition",
      "type": "event"
    },
    {
      "anonymous": false,
      "inputs": [
        {
          "indexed": false,
          "internalType": "uint256",
          "name": "OrderId",
          "type": "uint256"
        }
      ],
      "name": "ClosedAllOrder",
      "type": "event"
    },
    {
      "anonymous": false,
      "inputs": [
        {
          "indexed": false,
          "internalType": "address",
          "name": "trader",
          "type": "address"
        },
        {
          "indexed": false,
          "internalType": "address",
          "name": "token",
          "type": "address"
        },
        {
          "indexed": false,
          "internalType": "uint256",
          "name": "amount",
          "type": "uint256"
        }
      ],
      "name": "CommissionPaid",
      "type": "event"
    },
    {
      "anonymous": false,
      "inputs": [
        {
          "indexed": false,
          "internalType": "address",
          "name": "follower",
          "type": "address"
        },
        {
          "indexed": false,
          "internalType": "uint256",
          "name": "firstFollowTime",
          "type": "uint256"
        }
      ],
      "name": "FollowerAdded",
      "type": "event"
    },
    {
      "anonymous": false,
      "inputs": [
        {
          "indexed": false,
          "internalType": "address",
          "name": "follower",
          "type": "address"
        }
      ],
      "name": "FollowerRemoved",
      "type": "event"
    },
    {
      "anonymous": false,
      "inputs": [
        {
          "indexed": false,
          "internalType": "uint64",
          "name": "version",
          "type": "uint64"
        }
      ],
      "name": "Initialized",
      "type": "event"
    },
    {
      "anonymous": false,
      "inputs": [
        {
          "indexed": true,
          "internalType": "address",
          "name": "previousOwner",
          "type": "address"
        },
        {
          "indexed": true,
          "internalType": "address",
          "name": "newOwner",
          "type": "address"
        }
      ],
      "name": "OwnershipTransferred",
      "type": "event"
    },
    {
      "anonymous": false,
      "inputs": [
        {
          "indexed": false,
          "internalType": "address",
          "name": "trader",
          "type": "address"
        },
        {
          "indexed": false,
          "internalType": "uint256",
          "name": "paidDistribute",
          "type": "uint256"
        },
        {
          "indexed": false,
          "internalType": "uint256",
          "name": "unpaidDistribute",
          "type": "uint256"
        }
      ],
      "name": "ProfitsDistributed",
      "type": "event"
    },
    {
      "anonymous": false,
      "inputs": [
        {
          "indexed": false,
          "internalType": "address",
          "name": "token",
          "type": "address"
        },
        {
          "indexed": false,
          "internalType": "uint256",
          "name": "orderId",
          "type": "uint256"
        },
        {
          "indexed": false,
          "internalType": "uint256",
          "name": "amount",
          "type": "uint256"
        },
        {
          "indexed": false,
          "internalType": "enum Direct",
          "name": "isBuy",
          "type": "uint8"
        },
        {
          "indexed": false,
          "internalType": "address",
          "name": "user",
          "type": "address"
        }
      ],
      "name": "Traded",
      "type": "event"
    },
    {
      "anonymous": false,
      "inputs": [
        {
          "indexed": false,
          "internalType": "address",
          "name": "user",
          "type": "address"
        },
        {
          "indexed": false,
          "internalType": "address",
          "name": "token",
          "type": "address"
        },
        {
          "indexed": false,
          "internalType": "uint256",
          "name": "amount",
          "type": "uint256"
        },
        {
          "indexed": false,
          "internalType": "address",
          "name": "trader",
          "type": "address"
        },
        {
          "indexed": false,
          "internalType": "bool",
          "name": "isDeposit",
          "type": "bool"
        }
      ],
      "name": "TransformToken",
      "type": "event"
    },
    {
      "stateMutability": "payable",
      "type": "fallback"
    },
    {
      "inputs": [],
      "name": "Audit_Withdraw_Period",
      "outputs": [
        {
          "internalType": "uint256",
          "name": "",
          "type": "uint256"
        }
      ],
      "stateMutability": "view",
      "type": "function"
    },
    {
      "inputs": [],
      "name": "INACTIVE_PERIOD",
      "outputs": [
        {
          "internalType": "uint256",
          "name": "",
          "type": "uint256"
        }
      ],
      "stateMutability": "view",
      "type": "function"
    },
    {
      "inputs": [],
      "name": "LOW_NET_VALUE_THRESHOLD",
      "outputs": [
        {
          "internalType": "uint256",
          "name": "",
          "type": "uint256"
        }
      ],
      "stateMutability": "view",
      "type": "function"
    },
    {
      "inputs": [],
      "name": "accumulatedDepositAmount",
      "outputs": [
        {
          "internalType": "int256",
          "name": "",
          "type": "int256"
        }
      ],
      "stateMutability": "view",
      "type": "function"
    },
    {
      "inputs": [],
      "name": "accumulatedUnpaidProfit",
      "outputs": [
        {
          "internalType": "uint256",
          "name": "",
          "type": "uint256"
        }
      ],
      "stateMutability": "view",
      "type": "function"
    },
    {
      "inputs": [],
      "name": "accumulatedWithdrawAmount",
      "outputs": [
        {
          "internalType": "int256",
          "name": "",
          "type": "int256"
        }
      ],
      "stateMutability": "view",
      "type": "function"
    },
    {
      "inputs": [
        {
          "internalType": "uint256",
          "name": "",
          "type": "uint256"
        }
      ],
      "name": "allFollowers",
      "outputs": [
        {
          "internalType": "address",
          "name": "",
          "type": "address"
        }
      ],
      "stateMutability": "view",
      "type": "function"
    },
    {
      "inputs": [],
      "name": "allowedToken",
      "outputs": [
        {
          "internalType": "address",
          "name": "",
          "type": "address"
        }
      ],
      "stateMutability": "view",
      "type": "function"
    },
    {
      "inputs": [
        {
          "internalType": "string[]",
          "name": "_symbols",
          "type": "string[]"
        },
        {
          "internalType": "bytes[]",
          "name": "_priceUpdates",
          "type": "bytes[]"
        }
      ],
      "name": "autoDeleteContract",
      "outputs": [],
      "stateMutability": "payable",
      "type": "function"
    },
    {
      "inputs": [],
      "name": "cancelAllOrders",
      "outputs": [],
      "stateMutability": "nonpayable",
      "type": "function"
    },
    {
      "inputs": [
        {
          "internalType": "uint256[]",
          "name": "_ids",
          "type": "uint256[]"
        }
      ],
      "name": "cancelOrders",
      "outputs": [],
      "stateMutability": "nonpayable",
      "type": "function"
    },
    {
      "inputs": [
        {
          "internalType": "string[]",
          "name": "_symbols",
          "type": "string[]"
        },
        {
          "internalType": "bytes[]",
          "name": "_priceUpdates",
          "type": "bytes[]"
        }
      ],
      "name": "closeAllOrders",
      "outputs": [],
      "stateMutability": "payable",
      "type": "function"
    },
    {
      "inputs": [
        {
          "internalType": "string",
          "name": "_name",
          "type": "string"
        },
        {
          "internalType": "uint256",
          "name": "_amount",
          "type": "uint256"
        },
        {
          "internalType": "uint256",
          "name": "_orderType",
          "type": "uint256"
        },
        {
          "internalType": "uint256",
          "name": "_price",
          "type": "uint256"
        },
        {
          "internalType": "enum Direct",
          "name": "_type",
          "type": "uint8"
        },
        {
          "internalType": "uint256",
          "name": "_goodTill",
          "type": "uint256"
        },
        {
          "internalType": "uint256",
          "name": "_deadline",
          "type": "uint256"
        },
        {
          "internalType": "bytes",
          "name": "_priceUpdate",
          "type": "bytes"
        }
      ],
      "name": "closePosition",
      "outputs": [],
      "stateMutability": "payable",
      "type": "function"
    },
    {
      "inputs": [
        {
          "internalType": "uint256",
          "name": "_amount",
          "type": "uint256"
        },
        {
          "internalType": "string[]",
          "name": "_symbols",
          "type": "string[]"
        },
        {
          "internalType": "bytes[]",
          "name": "_reportData",
          "type": "bytes[]"
        }
      ],
      "name": "deposit",
      "outputs": [],
      "stateMutability": "payable",
      "type": "function"
    },
    {
      "inputs": [
        {
          "internalType": "string[]",
          "name": "_symbols",
          "type": "string[]"
        },
        {
          "internalType": "bytes[]",
          "name": "_priceUpdates",
          "type": "bytes[]"
        }
      ],
      "name": "distributeProfits",
      "outputs": [],
      "stateMutability": "payable",
      "type": "function"
    },
    {
      "inputs": [],
      "name": "factory",
      "outputs": [
        {
          "internalType": "contract LeadingContractFactory",
          "name": "",
          "type": "address"
        }
      ],
      "stateMutability": "view",
      "type": "function"
    },
    {
      "inputs": [
        {
          "internalType": "address",
          "name": "",
          "type": "address"
        }
      ],
      "name": "followerIndex",
      "outputs": [
        {
          "internalType": "uint256",
          "name": "",
          "type": "uint256"
        }
      ],
      "stateMutability": "view",
      "type": "function"
    },
    {
      "inputs": [
        {
          "internalType": "uint256",
          "name": "",
          "type": "uint256"
        }
      ],
      "name": "followers",
      "outputs": [
        {
          "internalType": "address",
          "name": "userAddress",
          "type": "address"
        },
        {
          "internalType": "uint256",
          "name": "firstFollowTime",
          "type": "uint256"
        }
      ],
      "stateMutability": "view",
      "type": "function"
    },
    {
      "inputs": [],
      "name": "getAllFollowers",
      "outputs": [
        {
          "internalType": "address[]",
          "name": "",
          "type": "address[]"
        }
      ],
      "stateMutability": "view",
      "type": "function"
    },
    {
      "inputs": [
        {
          "internalType": "string[]",
          "name": "_symbols",
          "type": "string[]"
        },
        {
          "internalType": "uint256[]",
          "name": "_prices",
          "type": "uint256[]"
        }
      ],
      "name": "getAssetSummary",
      "outputs": [
        {
          "internalType": "uint256",
          "name": "assetAmount",
          "type": "uint256"
        },
        {
          "internalType": "uint256",
          "name": "netBalance",
          "type": "uint256"
        },
        {
          "internalType": "uint256",
          "name": "totalShares",
          "type": "uint256"
        },
        {
          "internalType": "uint256",
          "name": "netValue",
          "type": "uint256"
        }
      ],
      "stateMutability": "view",
      "type": "function"
    },
    {
      "inputs": [],
      "name": "getFollowerCount",
      "outputs": [
        {
          "internalType": "uint256",
          "name": "",
          "type": "uint256"
        }
      ],
      "stateMutability": "view",
      "type": "function"
    },
    {
      "inputs": [],
      "name": "getFollowers",
      "outputs": [
        {
          "internalType": "address[]",
          "name": "followerAddresses",
          "type": "address[]"
        }
      ],
      "stateMutability": "view",
      "type": "function"
    },
    {
      "inputs": [],
      "name": "getFollowersInfo",
      "outputs": [
        {
          "components": [
            {
              "internalType": "address",
              "name": "userAddress",
              "type": "address"
            },
            {
              "internalType": "uint256",
              "name": "firstFollowTime",
              "type": "uint256"
            }
          ],
          "internalType": "struct LeadingContract.Follower[]",
          "name": "",
          "type": "tuple[]"
        }
      ],
      "stateMutability": "view",
      "type": "function"
    },
    {
      "inputs": [],
      "name": "getLatestClosedProfit",
      "outputs": [
        {
          "internalType": "int256",
          "name": "profit",
          "type": "int256"
        }
      ],
      "stateMutability": "view",
      "type": "function"
    },
    {
      "inputs": [
        {
          "internalType": "uint256[]",
          "name": "indices",
          "type": "uint256[]"
        }
      ],
      "name": "getSupplyBalanceHistoryAtMultiple",
      "outputs": [
        {
          "internalType": "uint256[]",
          "name": "",
          "type": "uint256[]"
        },
        {
          "internalType": "uint256[]",
          "name": "",
          "type": "uint256[]"
        },
        {
          "internalType": "uint256[]",
          "name": "",
          "type": "uint256[]"
        }
      ],
      "stateMutability": "view",
      "type": "function"
    },
    {
      "inputs": [
        {
          "internalType": "uint256",
          "name": "index",
          "type": "uint256"
        }
      ],
      "name": "getSupplyBalanceHistoryItem",
      "outputs": [
        {
          "internalType": "int256",
          "name": "",
          "type": "int256"
        },
        {
          "internalType": "uint256",
          "name": "",
          "type": "uint256"
        },
        {
          "internalType": "uint256",
          "name": "",
          "type": "uint256"
        },
        {
          "internalType": "uint256",
          "name": "",
          "type": "uint256"
        }
      ],
      "stateMutability": "view",
      "type": "function"
    },
    {
      "inputs": [],
      "name": "getSupplyBalanceHistoryLength",
      "outputs": [
        {
          "internalType": "uint256",
          "name": "",
          "type": "uint256"
        }
      ],
      "stateMutability": "view",
      "type": "function"
    },
    {
      "inputs": [
        {
          "internalType": "string[]",
          "name": "_symbols",
          "type": "string[]"
        },
        {
          "internalType": "uint256[]",
          "name": "_prices",
          "type": "uint256[]"
        }
      ],
      "name": "getTotalBalance",
      "outputs": [
        {
          "internalType": "uint256",
          "name": "assetAmount",
          "type": "uint256"
        },
        {
          "internalType": "bool",
          "name": "gainLoss",
          "type": "bool"
        },
        {
          "internalType": "uint256",
          "name": "profit",
          "type": "uint256"
        }
      ],
      "stateMutability": "view",
      "type": "function"
    },
    {
      "inputs": [
        {
          "internalType": "bool",
          "name": "isAll",
          "type": "bool"
        }
      ],
      "name": "getWithdrawItems",
      "outputs": [
        {
          "components": [
            {
              "internalType": "address",
              "name": "user",
              "type": "address"
            },
            {
              "internalType": "uint256",
              "name": "withdrawShare",
              "type": "uint256"
            },
            {
              "internalType": "uint256",
              "name": "withdrawTime",
              "type": "uint256"
            }
          ],
          "internalType": "struct LeadingContract.UserWithdrawShareItem[]",
          "name": "",
          "type": "tuple[]"
        }
      ],
      "stateMutability": "view",
      "type": "function"
    },
    {
      "inputs": [
        {
          "internalType": "uint256[]",
          "name": "items",
          "type": "uint256[]"
        },
        {
          "internalType": "bool",
          "name": "cancel",
          "type": "bool"
        },
        {
          "internalType": "string[]",
          "name": "_symbols",
          "type": "string[]"
        },
        {
          "internalType": "bytes[]",
          "name": "_reportData",
          "type": "bytes[]"
        }
      ],
      "name": "handleWithdrawItems",
      "outputs": [],
      "stateMutability": "payable",
      "type": "function"
    },
    {
      "inputs": [
        {
          "internalType": "uint256[]",
          "name": "items",
          "type": "uint256[]"
        },
        {
          "internalType": "string[]",
          "name": "_symbols",
          "type": "string[]"
        },
        {
          "internalType": "bytes[]",
          "name": "_reportData",
          "type": "bytes[]"
        }
      ],
      "name": "handleWithdrawItems4Risk",
      "outputs": [],
      "stateMutability": "payable",
      "type": "function"
    },
    {
      "inputs": [
        {
          "internalType": "address",
          "name": "",
          "type": "address"
        }
      ],
      "name": "hasFollowed",
      "outputs": [
        {
          "internalType": "bool",
          "name": "",
          "type": "bool"
        }
      ],
      "stateMutability": "view",
      "type": "function"
    },
    {
      "inputs": [
        {
          "internalType": "address",
          "name": "initialOwner",
          "type": "address"
        },
        {
          "internalType": "address",
          "name": "_trader",
          "type": "address"
        },
        {
          "internalType": "address payable",
          "name": "_factoryAddress",
          "type": "address"
        },
        {
          "internalType": "address",
          "name": "_perpetual",
          "type": "address"
        },
        {
          "internalType": "address",
          "name": "_tradeAgent",
          "type": "address"
        },
        {
          "internalType": "address",
          "name": "_orderBook",
          "type": "address"
        }
      ],
      "name": "initialize",
      "outputs": [],
      "stateMutability": "nonpayable",
      "type": "function"
    },
    {
      "inputs": [],
      "name": "isInactive",
      "outputs": [
        {
          "internalType": "bool",
          "name": "",
          "type": "bool"
        }
      ],
      "stateMutability": "view",
      "type": "function"
    },
    {
      "inputs": [],
      "name": "lastBalanceSnapTime",
      "outputs": [
        {
          "internalType": "uint256",
          "name": "",
          "type": "uint256"
        }
      ],
      "stateMutability": "view",
      "type": "function"
    },
    {
      "inputs": [],
      "name": "lastDistributionTime",
      "outputs": [
        {
          "internalType": "uint256",
          "name": "",
          "type": "uint256"
        }
      ],
      "stateMutability": "view",
      "type": "function"
    },
    {
      "inputs": [],
      "name": "lastSettleClosedBalance",
      "outputs": [
        {
          "internalType": "int256",
          "name": "",
          "type": "int256"
        }
      ],
      "stateMutability": "view",
      "type": "function"
    },
    {
      "inputs": [],
      "name": "lastTradeTime",
      "outputs": [
        {
          "internalType": "uint256",
          "name": "",
          "type": "uint256"
        }
      ],
      "stateMutability": "view",
      "type": "function"
    },
    {
      "inputs": [],
      "name": "orderBook",
      "outputs": [
        {
          "internalType": "contract IOrderBook",
          "name": "",
          "type": "address"
        }
      ],
      "stateMutability": "view",
      "type": "function"
    },
    {
      "inputs": [],
      "name": "owner",
      "outputs": [
        {
          "internalType": "address",
          "name": "",
          "type": "address"
        }
      ],
      "stateMutability": "view",
      "type": "function"
    },
    {
      "inputs": [],
      "name": "perpetual",
      "outputs": [
        {
          "internalType": "contract IPerpetuals",
          "name": "",
          "type": "address"
        }
      ],
      "stateMutability": "view",
      "type": "function"
    },
    {
      "inputs": [
        {
          "internalType": "string[]",
          "name": "symbols",
          "type": "string[]"
        },
        {
          "internalType": "bytes[]",
          "name": "reportData",
          "type": "bytes[]"
        }
      ],
      "name": "recordSupplyAndBalance",
      "outputs": [],
      "stateMutability": "payable",
      "type": "function"
    },
    {
      "inputs": [],
      "name": "renounceOwnership",
      "outputs": [],
      "stateMutability": "nonpayable",
      "type": "function"
    },
    {
      "inputs": [
        {
          "internalType": "address",
          "name": "_newTrader",
          "type": "address"
        }
      ],
      "name": "setTrader",
      "outputs": [],
      "stateMutability": "nonpayable",
      "type": "function"
    },
    {
      "inputs": [
        {
          "internalType": "uint256",
          "name": "",
          "type": "uint256"
        }
      ],
      "name": "supplyBalanceHistory",
      "outputs": [
        {
          "internalType": "int256",
          "name": "totalProfit",
          "type": "int256"
        },
        {
          "internalType": "uint256",
          "name": "totalSupply",
          "type": "uint256"
        },
        {
          "internalType": "uint256",
          "name": "totalBalance",
          "type": "uint256"
        },
        {
          "internalType": "uint256",
          "name": "timestamp",
          "type": "uint256"
        }
      ],
      "stateMutability": "view",
      "type": "function"
    },
    {
      "inputs": [],
      "name": "totalShare",
      "outputs": [
        {
          "internalType": "uint256",
          "name": "",
          "type": "uint256"
        }
      ],
      "stateMutability": "view",
      "type": "function"
    },
    {
      "inputs": [
        {
          "internalType": "string",
          "name": "_name",
          "type": "string"
        },
        {
          "internalType": "uint256",
          "name": "_amount",
          "type": "uint256"
        },
        {
          "internalType": "uint256",
          "name": "_price",
          "type": "uint256"
        },
        {
          "internalType": "uint256",
          "name": "_orderType",
          "type": "uint256"
        },
        {
          "internalType": "enum Direct",
          "name": "_type",
          "type": "uint8"
        },
        {
          "internalType": "uint256",
          "name": "_goodTill",
          "type": "uint256"
        },
        {
          "internalType": "uint256",
          "name": "_deadline",
          "type": "uint256"
        },
        {
          "internalType": "bytes",
          "name": "_priceUpdate",
          "type": "bytes"
        }
      ],
      "name": "trade",
      "outputs": [],
      "stateMutability": "payable",
      "type": "function"
    },
    {
      "inputs": [],
      "name": "tradeAgent",
      "outputs": [
        {
          "internalType": "contract ITradeAgent",
          "name": "",
          "type": "address"
        }
      ],
      "stateMutability": "view",
      "type": "function"
    },
    {
      "inputs": [],
      "name": "trader",
      "outputs": [
        {
          "internalType": "address",
          "name": "",
          "type": "address"
        }
      ],
      "stateMutability": "view",
      "type": "function"
    },
    {
      "inputs": [
        {
          "internalType": "string[]",
          "name": "_symbols",
          "type": "string[]"
        },
        {
          "internalType": "bytes[]",
          "name": "_priceUpdates",
          "type": "bytes[]"
        }
      ],
      "name": "traderDeleteContract",
      "outputs": [],
      "stateMutability": "payable",
      "type": "function"
    },
    {
      "inputs": [
        {
          "internalType": "address",
          "name": "newOwner",
          "type": "address"
        }
      ],
      "name": "transferOwnership",
      "outputs": [],
      "stateMutability": "nonpayable",
      "type": "function"
    },
    {
      "inputs": [
        {
          "internalType": "address",
          "name": "",
          "type": "address"
        }
      ],
      "name": "userShares",
      "outputs": [
        {
          "internalType": "uint256",
          "name": "",
          "type": "uint256"
        }
      ],
      "stateMutability": "view",
      "type": "function"
    },
    {
      "inputs": [
        {
          "internalType": "uint256",
          "name": "",
          "type": "uint256"
        }
      ],
      "name": "userWithdrawItems",
      "outputs": [
        {
          "internalType": "address",
          "name": "user",
          "type": "address"
        },
        {
          "internalType": "uint256",
          "name": "withdrawShare",
          "type": "uint256"
        },
        {
          "internalType": "uint256",
          "name": "withdrawTime",
          "type": "uint256"
        }
      ],
      "stateMutability": "view",
      "type": "function"
    },
    {
      "inputs": [
        {
          "internalType": "uint256",
          "name": "_share",
          "type": "uint256"
        }
      ],
      "name": "withdraw",
      "outputs": [],
      "stateMutability": "nonpayable",
      "type": "function"
    },
    {
      "stateMutability": "payable",
      "type": "receive"
    }
  ],
  "bytecode": "0x60808060405234601557615487908161001b8239f35b600080fdfe61020080604052600436101561001157005b600060a05260a0513560e01c908163026c42071461318157508063028afabf14612fd9578063030fc7dd14612fb55780630d79f56114612f325780630fa4710914612daa5780631758078b14612d8257806319e67d7514612d595780631abc901f14612d0d578063227ddb4e146126d25780632449e973146125d95780632e1a7d4d1461241e57806333eeae3d146123bd5780633f70498b1461238f578063490ae1cd1461221f5780634d7ddfec1461220057806351c21fee1461217957806356601435146121515780635e829a021461212b57806366776f621461209e57806368306b761461207f5780636b66350b1461203e578063715018a614611f9a57806375b1735014611f7b578063776af5ba14611f535780637829ae4a14611f345780637fcd8c4714611d3257806385fa292f14611d0a57806387ec936d14611cf05780638da5cb5b14611ca957806390536e43146112d8578063984d2dfd146111345780639f43ae3c14611115578063a6bc18f914611014578063a70c7ed414610f1b578063aa66ea6714610eb5578063b2b7d9ac14610e96578063b55fb57414610d90578063bacea2d214610d3c578063c365e42114610ca9578063c45a015514610c81578063c89db57214610c62578063c99e740714610c45578063cc2a9a5b14610870578063cce13b8e14610851578063d1ab4aaa1461059d578063d4baf4881461057e578063d5eee8b61461055f578063de69b3aa14610523578063e5978686146103bc578063e5b1da6314610380578063f1268ef414610307578063f262ff7e146102e8578063f2fde38b146102b95763f8ef9a981461027257005b346102b35760206003193601126102b3576001600160a01b036102936135e2565b1660a051526011602052602060ff604060a0512054166040519015158152f35b60a05180fd5b346102b35760206003193601126102b3576102e26102d56135e2565b6102dd614e36565b614491565b60a05180f35b346102b35760a0516003193601126102b3576020600454604051908152f35b61031036613552565b6103266001600160a01b03600354163314613617565b61032e613b6e565b1561033c576102e2916148c4565b606460405162461bcd60e51b815260206004820152601860248201527f436f6e7472616374206973206e6f7420696e61637469766500000000000000006044820152fd5b346102b35760206003193601126102b3576001600160a01b036103a16135e2565b1660a0515260176020526020604060a0512054604051908152f35b6101006003193601126102b35760043567ffffffffffffffff81116102b3576103e99036906004016132bd565b6084359060038210156102b35760e43567ffffffffffffffff81116102b3576104169036906004016132bd565b9061041f614550565b6104356001600160a01b03600d54163314613aee565b6001600160a01b0360a0515416803b156102b35761047a61049d926104c2604051968795869485946372cbc34360e11b865261010060048701526101048601906138dd565b9160243560248601526044356044860152606435606486015260848501906140a4565b60a43560a484015260c43560c48401526003198382030160e484015260a051966138dd565b039134905af18015610516576104fd575b60017f9b779b17422d0df92223018b32b4d1fa46e071723d6817e2486d003becc55f005560a05180f35b60a05161050991613266565b60a0516102b357806104d3565b6040513d60a051823e3d90fd5b346102b35760206003193601126102b3576001600160a01b036105446135e2565b1660a05152600f6020526020604060a0512054604051908152f35b346102b35760a0516003193601126102b3576020600554604051908152f35b346102b35760a0516003193601126102b3576020600a54604051908152f35b6101006003193601126102b35760043567ffffffffffffffff81116102b3576105ca9036906004016132bd565b6024356084359160038310156102b35760e4359067ffffffffffffffff82116102b357366023830112156102b35781600401359167ffffffffffffffff83116102b35736602484830101116102b357610621614550565b6106376001600160a01b03600d54163314613aee565b6001600160a01b0360a0515416803b156102b35761069560208594602494604051978896879586947faad9ecce00000000000000000000000000000000000000000000000000000000865261012060048701526101248601906138dd565b928b82860152604435604486015260643560648601526106b98d60848701906140a4565b3060a486015260a43560c486015260c43560e486015260031985850301610104860152828452018483013760a051838883010152601f19601f60a0519801160103019134905af1801561051657610838575b50426005556001600160a01b03600e5416600460206001600160a01b0360015416604051928380927fc3710f250000000000000000000000000000000000000000000000000000000082525afa9081156105165760a05191610801575b5060001981019081116107e9577fdbbd5ef86e8d481cd0d16075f381b0127c9d9fcd035a76a516d4efa8f8bbfc369360a0936107b8926040519485526020850152604084015260608301906140a4565b336080820152a160017f9b779b17422d0df92223018b32b4d1fa46e071723d6817e2486d003becc55f005560a05180f35b634e487b7160e01b60a051526011600452602460a051fd5b90506020813d602011610830575b8161081c60209383613266565b8101031261082b575184610768565b600080fd5b3d915061080f565b60a05161084491613266565b60a0516102b3578261070b565b346102b35760a0516003193601126102b3576020600954604051908152f35b346102b35760c06003193601126102b3576108896135e2565b6024356001600160a01b038116908190036102b357604435906001600160a01b0382168092036102b3576064356001600160a01b03811693908490036102b3576084356001600160a01b03811691908290036102b35760a4356001600160a01b03811691908290036102b3577ff0c57e16840df040f15088dc2f81fe391c3923bec73e23a9662efc9c229c6a00549060ff8260401c16159667ffffffffffffffff831680159081610c3d575b6001149081610c33575b159081610c2a575b50610bfe576109f9602092848a60017fffffffffffffffffffffffffffffffffffffffffffffffff000000000000000060049816177ff0c57e16840df040f15088dc2f81fe391c3923bec73e23a9662efc9c229c6a0055610ba9575b506109ac6153f8565b6109b46153f8565b6109bd33614491565b6109c56153f8565b6109cd6153f8565b60017f9b779b17422d0df92223018b32b4d1fa46e071723d6817e2486d003becc55f00556102dd614e36565b806001600160a01b031960a05154161760a05155604051928380927f2ca430510000000000000000000000000000000000000000000000000000000082525afa80156105165760a05190610b69575b6001600160a01b039150166001600160a01b0319600e541617600e556001600160a01b031960015416176001556001600160a01b031960025416176002556001600160a01b0319600d541617600d556001600160a01b03196003541617600355620151806004554260055542600755610ac6620151804206426136e5565b600655610ad35760a05180f35b7fffffffffffffffffffffffffffffffffffffffffffffff00ffffffffffffffff7ff0c57e16840df040f15088dc2f81fe391c3923bec73e23a9662efc9c229c6a0054167ff0c57e16840df040f15088dc2f81fe391c3923bec73e23a9662efc9c229c6a00557fc7f505b2f371ae2175ee4913f4499e1f2633a7b5936321eed1cdaeb6115181d2602060405160018152a16102e2565b506020813d602011610ba1575b81610b8360209383613266565b810103126102b357610b9c6001600160a01b0391614107565b610a48565b3d9150610b76565b7fffffffffffffffffffffffffffffffffffffffffffffff0000000000000000001668010000000000000001177ff0c57e16840df040f15088dc2f81fe391c3923bec73e23a9662efc9c229c6a00558a6109a3565b7ff92ee8a90000000000000000000000000000000000000000000000000000000060a05152600460a051fd5b90501589610947565b303b15915061093f565b899150610935565b346102b35760a0516003193601126102b357602060405160018152f35b346102b35760a0516003193601126102b3576020601854604051908152f35b346102b35760a0516003193601126102b35760206001600160a01b0360035416604051908152f35b346102b35760a0516003193601126102b357604051806020601454918281520190601460a051527fce6d7b5282bd9a3661ae061feed1dbda4e52ab073b1f9285be6e155d9c38d4ec9060a0515b818110610d1d57610d1985610d0d81870382613266565b6040519182918261319d565b0390f35b82546001600160a01b0316845260209093019260019283019201610cf6565b346102b35760206003193601126102b357610d61610d5b600435613478565b5061387b565b805160208083015160408085015160609586015182519586529385019290925283015291810191909152608090f35b346102b35760206003193601126102b35760043567ffffffffffffffff81116102b357610dc19036906004016133e7565b610dd76001600160a01b03600d54163314613aee565b47906001600160a01b0360a051541690813b156102b35760405180927fb55fb574000000000000000000000000000000000000000000000000000000008252602060048301528180610e3060a051956024830190613444565b039160a051905af1801561051657610e7d575b50610e4e90476136e5565b80610e595760a05180f35b60a051610e7791819081908190335af1610e71613708565b50613738565b806102e2565b60a051610e8991613266565b60a0516102b35781610e43565b346102b35760a0516003193601126102b3576020600654604051908152f35b346102b35760206003193601126102b3576004356016548110156102b357610edc906135f8565b506001600160a01b03815416610d1960026001840154930154604051938493846040919493926001600160a01b03606083019616825260208201520152565b346102b35760a0516003193601126102b357601554610f3981613289565b90610f476040519283613266565b808252602082019081601560a051527f55f448fdea98c4d29eb340757ef0a66cd03dbb9538908a6a81d96026b71ec47560a051915b838310610fde5784866040519182916020830190602084525180915260408301919060a0515b818110610fb0575050500390f35b825180516001600160a01b031685526020908101518186015286955060409094019390920191600101610fa2565b60026020600192604051610ff181613212565b6001600160a01b0386541681528486015483820152815201920192019190610f7c565b346102b35760206003193601126102b35761102d6135e2565b6001600160a01b036003541633036110ab576001600160a01b03168015611067576001600160a01b0319600d541617600d5560a05160a051f35b606460405162461bcd60e51b815260206004820152601660248201527f496e76616c6964207472616465722061646472657373000000000000000000006044820152fd5b608460405162461bcd60e51b815260206004820152602660248201527f4f6e6c7920666163746f72792063616e2065786563757465207468697320667560448201527f6e6374696f6e00000000000000000000000000000000000000000000000000006064820152fd5b346102b35760a0516003193601126102b3576020600c54604051908152f35b346102b35760206003193601126102b35760043580151581036102b357156112bb5760a051506040516012548082528160208101601260a05152602060a051209260a0515b8181106112a257505061118e92500382613266565b805190601f196111b66111a084613289565b936111ae6040519586613266565b808552613289565b0160a0515b81811061127357505060a0515b815181101561120c57806111f06111ea6111e4600194866137f6565b516135f8565b50613c3d565b6111fa82866137f6565b5261120581856137f6565b50016111c8565b8260405180916020820160208352815180915260206040840192019060a0515b81811061123a575050500390f35b9193509160206060600192604087516001600160a01b03815116835284810151858401520151604082015201940191019184939261122c565b6020906040516112828161322e565b60a051815260a0518382015260a0516040820152828287010152016111bb565b8454835260019485019486945060209093019201611179565b3360a0515260106020526112d3604060a0512061514b565b61118e565b60606003193601126102b35760043567ffffffffffffffff81116102b3576113049036906004016133e7565b6101e05260243567ffffffffffffffff81116102b357611328903690600401613302565b60443567ffffffffffffffff81116102b35761136661134e611360923690600401613381565b9290611358614550565b8336916134e6565b836146aa565b61136f82613c6e565b9260a051926020935b818110611c7857505061138b828261395b565b5050670de0b6b3a7640000810290808204670de0b6b3a764000014901517156107e95784926113be85926008549061381d565b610100526113ca6145c9565b9260a0519160a05193600454935b6101e0515186101561144c576113f46111e4876101e0516137f6565b506114048660024293015461383d565b1061143257611429600191826114206111e48a6101e0516137f6565b5001549061383d565b955b01946113d8565b9460019060a051611446826101e0516137f6565b5261142b565b87945081670de0b6b3a76400006114688993610100519061380a565b04910151908082106114bd575b5050505060a0515b6101e051518110156104d357806114996001926101e0516137f6565b51848482156114b557610100516114af93614a4c565b0161147d565b5050506114af565b906114cb91959293956136e5565b60a05160c05260a051916114dd615059565b610160526114e9615059565b6080526001600160a01b0360a051541691604051927fcd2ce4ae0000000000000000000000000000000000000000000000000000000084528360048160a051935afa9283156105165760a05193611c52575b5060a0516101c0526001600160a01b036001541660e0526001600160a01b0360025416610120525b82516101c05110156118825760a0969196516101a0525b600260ff6101a05116101561186f576115966101c051846137f6565b51604051907f0c6ff41800000000000000000000000000000000000000000000000000000000825281806115d660a051936101a05190306004850161403d565b038160e0515afa80156105165760a05161014052611848575b506115f8615010565b966101405151156118405760a0516101805260a0515b87518110156118385761162181896137f6565b5160405161164f89828161163e81830196878151938492016138ba565b81010301601f198101835282613266565b51902061165f6101c051876137f6565b5160405161167c8a828161163e81830196878151938492016138ba565b5190201461168c5760010161160e565b61169990849992946137f6565b51610180525b6116f260406116b16101c051876137f6565b518151809381927f721db5620000000000000000000000000000000000000000000000000000000083523060048401526080602484015260848301906138dd565b61018051604483015260ff6101a0511660648301520381610120515afa80156105165760a051918291611801575b50610180516060840152876101405101670de0b6b3a764000061174761018051835161380a565b04608085015261175a6101c051886137f6565b5184526101a05160ff168985015251604084015281156117bf575060a082015261178960c051610160516137f6565b5261179960c051610160516137f6565b506117a560c051613b5f565b60c0525b60ff60016101a05101166101a05295909561157a565b8091506117ce575b50506117a9565b906117f992959160c08201526117e6826080516137f6565b526117f3816080516137f6565b50613b5f565b9287806117c7565b9150506040813d8211611830575b8161181c60409383613266565b810103126102b3578681519101518a611720565b3d915061180f565b50919661169f565b9196506117a9565b611865903d8060a051833e61185d8183613266565b810190613fc1565b61014052876115ef565b95909560016101c051016101c052611563565b949392915094506118958160c05161383d565b90601f196118a56111a084613289565b018360a0515b828110611c3c5750505060a051600160c05114600014611b75576118e9906118d5610160516137d9565b516118df856137d9565b526117f3846137d9565b905b60018103611aa35750611915906119036080516137d9565b5161190e82856137f6565b52826137f6565b505b60a051935b8151851015611a9957604061193186846137f6565b51015190608061194187856137f6565b510151811015611a7757505060a05193606061195d82846137f6565b51015115611a5f5760a051604061197483856137f6565b51015160a05111611a4a575b6001600160a01b0360a051541661199783856137f6565b5151916119bb6119b660ff886119ad888a6137f6565b5101511661406d565b61407f565b91604051916119ca8884613266565b60a0518352813b156102b3576119ff94604051958694859384936372cbc34360e11b855260a0519842924292600488016140b1565b039160a051905af1801561051657611a31575b508415611a22576001019361191c565b50505090505b82808080611475565b60a051611a3d91613266565b60a0516102b35786611a12565b506040611a5782846137f6565b510151611980565b634e487b7160e01b60a051526012600452602460a051fd5b611a93906080611a8a88869995996137f6565b510151906136e5565b94611980565b5050509050611a28565b600214611ab1575b50611917565b60c0611abe6080516137d9565b51015160c0611ace6080516137e6565b5101511115611b2757611ae26080516137d9565b51611aed82846137f6565b52611af881836137f6565b50611b046080516137e6565b5190600181018091116107e957611b1f9161190e82856137f6565b505b85611aab565b611b326080516137e6565b51611b3d82846137f6565b52611b4881836137f6565b50611b546080516137d9565b5190600181018091116107e957611b6f9161190e82856137f6565b50611b21565b90600260c051036118eb57905060a0611b90610160516137d9565b51015160a0611ba1610160516137e6565b5101511015611bf557611bb6610160516137d9565b51611bc0836137d9565b52611bca826137d9565b50611bd7610160516137e6565b51611be1836137e6565b52611beb826137e6565b505b6002906118eb565b611c01610160516137e6565b51611c0b836137d9565b52611c15826137d9565b50611c22610160516137d9565b51611c2c836137e6565b52611c36826137e6565b50611bed565b611c44615010565b8282870101520184906118ab565b611c719193503d8060a051833e611c698183613266565b810190613ee9565b918761153b565b600190604051611c888782613266565b60a0518152611c9782896137f6565b52611ca281886137f6565b5001611378565b346102b35760a0516003193601126102b35760206001600160a01b037f9016d09d72d40fdae2fd8ceac6b6234c7706214fd39c1cd1e609a0528c1993005416604051908152f35b6104d3611cfc36613552565b90611d05614550565b614193565b346102b35760a0516003193601126102b35760206001600160a01b03600e5416604051908152f35b611d62611d3e36613552565b90611d47614550565b611d5d6001600160a01b03600354163314613617565b6146aa565b506001600160a01b0360a0515416604051907fcd2ce4ae0000000000000000000000000000000000000000000000000000000082528160048160a051935afa9081156105165760a05191611f18575b5060a0516020915b80518210156104d35760a0515b600260ff821610611ddc57509060010190611db9565b6001600160a01b0360015416611df284846137f6565b5160405180927f0c6ff4180000000000000000000000000000000000000000000000000000000082528180611e2f8760a05196306004850161403d565b03915afa9081156105165760a05191611efc575b50805115611ef1576001600160a01b0360a051541685611e6386866137f6565b51920151611e736119b68561406d565b9160405191611e828984613266565b60a0518352813b156102b357611eb794604051958694859384936372cbc34360e11b855260a0519842924292600488016140b1565b039160a051905af1801561051657611ed8575b50600160ff915b0116611dc6565b60a051611ee491613266565b60a0516102b35784611eca565b50600160ff91611ed1565b611f1291503d8060a051833e61185d8183613266565b85611e43565b611f2e91503d8060a051833e611c698183613266565b81611db1565b346102b35760a0516003193601126102b3576020601554604051908152f35b346102b35760a0516003193601126102b35760206001600160a01b0360015416604051908152f35b346102b35760a0516003193601126102b3576020600754604051908152f35b346102b35760a0516003193601126102b357611fb4614e36565b7f9016d09d72d40fdae2fd8ceac6b6234c7706214fd39c1cd1e609a0528c199300546001600160a01b031981167f9016d09d72d40fdae2fd8ceac6b6234c7706214fd39c1cd1e609a0528c199300556001600160a01b0360a05191167f8be0079c531659141344cd1fd0a4f28419497f9722a3daafe3b4186f6b6457e060a05160a051a360a05180f35b346102b35760206003193601126102b3576004356014548110156102b3576001600160a01b0361206f6020926135af565b90549060031b1c16604051908152f35b346102b35760a0516003193601126102b3576020600b54604051908152f35b60806003193601126102b35760043567ffffffffffffffff81116102b3576120ca9036906004016133e7565b60243580151581036102b35760443567ffffffffffffffff81116102b3576120f6903690600401613302565b916064359267ffffffffffffffff84116102b35761211b6104d3943690600401613381565b939092612126614550565b613cb7565b346102b35760a0516003193601126102b3576020612147613b6e565b6040519015158152f35b346102b35760a0516003193601126102b35760206001600160a01b0360025416604051908152f35b346102b35761219c61218a36613497565b9091906121956145c9565b519261395b565b5050906008549160a05190836121c8575b92608093604051938452602084015260408301526060820152f35b9050670de0b6b3a7640000810292818404670de0b6b3a764000014821517156107e9576121f78160809561381d565b919093506121ad565b346102b35760a0516003193601126102b3576020604051624f1a008152f35b61222836613552565b61223e6001600160a01b03600d54163314613aee565b6122466145c9565b604081015161234b576060015161230757612260916148c4565b6001600160a01b03600354166001600160a01b03600d54166001600160a01b03600e5416823b156102b3576040517f7f7c149100000000000000000000000000000000000000000000000000000000815260a0516001600160a01b039384166004830152929091166024820152918290818060448101039160a051905af18015610516576122ee5760a05180f35b60a0516122fa91613266565b60a0516102b357806102e2565b606460405162461bcd60e51b815260206004820152601160248201527f4578697374206c696d6974206f726465720000000000000000000000000000006044820152fd5b606460405162461bcd60e51b815260206004820152600e60248201527f457869737420706f736974696f6e0000000000000000000000000000000000006044820152fd5b346102b35760606123a86123a236613497565b9061395b565b90604051928352151560208301526040820152f35b346102b35760206003193601126102b3576004356018548110156102b3576123e490613478565b508054610d196001830154926003600282015491015490604051948594859094939260609260808301968352602083015260408201520152565b346102b35760206003193601126102b35760043561243a614550565b3360a051526010602052612452604060a0512061514b565b60a05190815b83825184101561247f5750612477600191826114206111e487876137f6565b920191612458565b61249a81923360a05152600f602052604060a05120546136e5565b10612595573360a0515260106020526124bb604060a051206016549061520d565b506124c7601654615196565b506040516124d48161322e565b33815260208101918252604081014281526016546801000000000000000081101561257d5780600161250992016016556135f8565b939093612564576001600160a01b03806002945116166001600160a01b03198554161784555160018401555191015560017f9b779b17422d0df92223018b32b4d1fa46e071723d6817e2486d003becc55f005560a05160a051f35b634e487b7160e01b60a0515260a051600452602460a051fd5b634e487b7160e01b60a051526041600452602460a051fd5b606460405162461bcd60e51b815260206004820152601360248201527f496e73756666696369656e7420736861726573000000000000000000000000006044820152fd5b346102b35760206003193601126102b35760043567ffffffffffffffff81116102b35761260a9036906004016133e7565b80516126158161384a565b9061261f8161384a565b6126288261384a565b9160a051601854905b8281106126745761265886610d198761266688604051958695606087526060870190613444565b908582036020870152613444565b908382036040850152613444565b80612681600192896137f6565b51838110612691575b5001612631565b61269f610d5b606092613478565b60208101516126ae848b6137f6565b5260408101516126be84896137f6565b5201516126cb82886137f6565b528861268a565b60606003193601126102b35760043560243567ffffffffffffffff81116102b357612701903690600401613302565b60443567ffffffffffffffff81116102b357612721903690600401613381565b612729614550565b600854612cdb575050506127628134612cc0575b3360a05152600f602052604060a0512061275882825461383d565b905560085461383d565b6008553360a05152601160205260ff604060a05120541615612b09575b6001600160a01b03600e5416906001600160a01b0360a051541660a0515060a0515060a05150816040936128377fffffffff000000000000000000000000000000000000000000000000000000006018602088516127dd8a82613266565b8281527f617070726f766528616464726573732c75696e7432353629000000000000000091019081522087519116602082019081526001600160a01b03959095166024820152604480820194909452928352606483613266565b60a0519260a05192519160a051905af161284f613708565b81612ad2575b50156102b3576001600160a01b03600e5416612871828261509a565b80151580612ac9575b80612ac0575b6129b0575b50506001600160a01b0360a05154166001600160a01b03600e5416906001600160a01b03600d5416813b156102b3578451927ff45346dc000000000000000000000000000000000000000000000000000000008452600484015283602484015260448301528160648160a0519360a051905af180156129a45761298b575b7fecca5b256ca62aec6a59af052fb9e6924c12daf46bef4fb5be7fcd92b1adfa4d60a0848461293481600a54613783565b600a55600e5482513381526001600160a01b0390911660208201529182015230606082015260016080820152a160017f9b779b17422d0df92223018b32b4d1fa46e071723d6817e2486d003becc55f005560a05180f35b60a05161299791613266565b60a0516102b35782612903565b83513d60a051823e3d90fd5b83517fffffffff00000000000000000000000000000000000000000000000000000000906025906129e2606082613266565b8181527f74323536290000000000000000000000000000000000000000000000000000008760208301927f7472616e7366657246726f6d28616464726573732c616464726573732c75696e8452015220169184519160208301938452336024840152306044840152606483015260648252612a5e608483613266565b60a0519260a05192519160a051905af1612a76613708565b81612a89575b50156102b3578280612885565b8051801592508215612a9e575b505083612a7c565b81925090602091810103126102b3576020612ab991016138ad565b8380612a96565b50301515612880565b5033151561287a565b8051801592508215612ae7575b505083612855565b81925090602091810103126102b3576020612b0291016138ad565b8380612adf565b3360a051526011602052604060a05120600160ff198254161790556014546801000000000000000081101561257d57806001612b4892016014556135af565b81549060031b906001600160a01b0333831b921b19161790553360a051526017602052604060a051205415612bfa575b6001600160a01b0360035416803b156102b3576040517fae5e55e600000000000000000000000000000000000000000000000000000000815260a08051336004840152306024840152905191929091839160449183915af1801561051657612be1575b5061277f565b60a051612bed91613266565b60a0516102b35781612bdb565b604051612c0681613212565b33815260208101904282526015546801000000000000000081101561257d57806001612c3592016015556133b2565b929092612564576001600160a01b03806001935116166001600160a01b0319845416178355519101556015543360a051526017602052604060a05120557f25721861c38b8c48f6705fecaea93b5de674735f1628fa9898ed0a89184aa25c60405180612cb8423383602090939291936001600160a01b0360408201951681520152565b0390a1612b78565b60a051612cd69080808034335af1610e71613708565b61273d565b612762926123a2612cf4612cd694612cfa9436916134e6565b826146aa565b5050612d086008548561380a565b61381d565b346102b35760206003193601126102b3576004356015548110156102b357612d34906133b2565b508054600190910154604080516001600160a01b039093168352602083019190915290f35b346102b35760a0516003193601126102b35760206001600160a01b0360a0515416604051908152f35b346102b35760a0516003193601126102b35760206001600160a01b03600d5416604051908152f35b60406003193601126102b35760043567ffffffffffffffff81116102b357612dd6903690600401613302565b60243567ffffffffffffffff81116102b357612df6903690600401613381565b919062015180612e08600654426136e5565b10612eee57612cf46123a291612e1f9436916134e6565b5050612e30620151804206426136e5565b80600655612e3c6137b8565b906008549260405192612e4e846131e0565b8084526020840194855260408401918252606084019283526018549081612ebb575b50506018546801000000000000000081101561257d57806001612e969201601855613478565b949094612564576003935185555160018501555160028401555191015560a05160a051f35b60001982019182116107e957612edf612ee591612ed784613478565b50549061379f565b91613478565b50558480612e70565b606460405162461bcd60e51b815260206004820152601760248201527f746f6f2073686f72742074696d6520696e74657276616c0000000000000000006044820152fd5b346102b35760a0516003193601126102b357601554612f5081613289565b90612f5e6040519283613266565b808252601f19612f6d82613289565b0136602084013760a0515b818110612f8d5760405180610d19858261319d565b806001600160a01b03612fa16001936133b2565b505416612fae82866137f6565b5201612f78565b346102b35760a0516003193601126102b3576020612fd16137b8565b604051908152f35b346102b35760a0516003193601126102b357612ff3614550565b4761300a6001600160a01b03600354163314613617565b6001600160a01b036001541690604051917f6f4907cb0000000000000000000000000000000000000000000000000000000083523060048401528260248160a051935afa9182156105165760a0519261313f575b506001600160a01b0360a051541691823b156102b35760405180937fb55fb5740000000000000000000000000000000000000000000000000000000082526020600483015281806130b660a051956024830190613444565b039160a051905af1918215610516576130d59261312d575b50476136e5565b806131045760017f9b779b17422d0df92223018b32b4d1fa46e071723d6817e2486d003becc55f005560a05180f35b60a051600d54613127928291829182916001600160a01b03165af1610e71613708565b806104d3565b60a05161313991613266565b826130ce565b9091503d8060a051833e6131538183613266565b81016020828203126102b357815167ffffffffffffffff81116102b35761317a9201613688565b908261305e565b346102b35760a0516003193601126102b3576020906008548152f35b602060408183019282815284518094520192019060005b8181106131c15750505090565b82516001600160a01b03168452602093840193909201916001016131b4565b6080810190811067ffffffffffffffff8211176131fc57604052565b634e487b7160e01b600052604160045260246000fd5b6040810190811067ffffffffffffffff8211176131fc57604052565b6060810190811067ffffffffffffffff8211176131fc57604052565b60a0810190811067ffffffffffffffff8211176131fc57604052565b90601f601f19910116810190811067ffffffffffffffff8211176131fc57604052565b67ffffffffffffffff81116131fc5760051b60200190565b67ffffffffffffffff81116131fc57601f01601f191660200190565b81601f8201121561082b576020813591016132d7826132a1565b926132e56040519485613266565b8284528282011161082b5781600092602092838601378301015290565b9080601f8301121561082b57813561331981613289565b926133276040519485613266565b81845260208085019260051b8201019183831161082b5760208201905b83821061335357505050505090565b813567ffffffffffffffff811161082b57602091613376878480948801016132bd565b815201910190613344565b9181601f8401121561082b5782359167ffffffffffffffff831161082b576020808501948460051b01011161082b57565b6015548110156133d157601560005260206000209060011b0190600090565b634e487b7160e01b600052603260045260246000fd5b9080601f8301121561082b5781356133fe81613289565b9261340c6040519485613266565b81845260208085019260051b82010192831161082b57602001905b8282106134345750505090565b8135815260209182019101613427565b906020808351928381520192019060005b8181106134625750505090565b8251845260209384019390920191600101613455565b6018548110156133d157601860005260206000209060021b0190600090565b90604060031983011261082b5760043567ffffffffffffffff811161082b57826134c391600401613302565b916024359067ffffffffffffffff821161082b576134e3916004016133e7565b90565b9291906134f281613289565b936135006040519586613266565b602085838152019160051b81019183831161082b5781905b838210613526575050505050565b813567ffffffffffffffff811161082b5760209161354787849387016132bd565b815201910190613518565b90604060031983011261082b5760043567ffffffffffffffff811161082b578261357e91600401613302565b916024359067ffffffffffffffff821161082b578060238301121561082b578160246134e3936004013591016134e6565b6014548110156133d157601460005260206000200190600090565b80548210156133d15760005260206000200190600090565b600435906001600160a01b038216820361082b57565b6016548110156133d15760166000526003602060002091020190600090565b1561361e57565b608460405162461bcd60e51b815260206004820152602360248201527f4f6e6c7920666163746f72792063616e2063616c6c20746869732066756e637460448201527f696f6e00000000000000000000000000000000000000000000000000000000006064820152fd5b9080601f8301121561082b57815161369f81613289565b926136ad6040519485613266565b81845260208085019260051b82010192831161082b57602001905b8282106136d55750505090565b81518152602091820191016136c8565b919082039182116136f257565b634e487b7160e01b600052601160045260246000fd5b3d15613733573d90613719826132a1565b916137276040519384613266565b82523d6000602084013e565b606090565b1561373f57565b606460405162461bcd60e51b815260206004820152600f60248201527f7472616e73666572206661696c656400000000000000000000000000000000006044820152fd5b919091600083820193841291129080158216911516176136f257565b818103929160001380158285131691841216176136f257565b6134e36137d06137c66145c9565b51600b5490613783565b600a549061379f565b8051156133d15760200190565b8051600110156133d15760400190565b80518210156133d15760209160051b010190565b818102929181159184041417156136f257565b8115613827570490565b634e487b7160e01b600052601260045260246000fd5b919082018092116136f257565b9061385482613289565b6138616040519182613266565b828152601f196138718294613289565b0190602036910137565b90604051613888816131e0565b6060600382948054845260018101546020850152600281015460408501520154910152565b5190811515820361082b57565b60005b8381106138cd5750506000910152565b81810151838201526020016138bd565b90601f19601f6020936138fb815180928187528780880191016138ba565b0116010190565b9080602083519182815201916020808360051b8301019401926000915b83831061392e57505050505090565b909192939460208061394c83601f19866001960301875289516138dd565b9701930193019193929061391f565b90918151835103613a845760406139db936139746145c9565b51936139c96001600160a01b0360025416918451978894859384937f9aa59c65000000000000000000000000000000000000000000000000000000008552306004860152606060248601526064850190613902565b90600319848303016044850152613444565b03915afa918215613a78576000938493613a32575b50828415613a08575082613a039161383d565b929190565b9250909250818111613a21575050600090600090600090565b81613a2b916136e5565b9160009190565b939092506040843d604011613a70575b81613a4f60409383613266565b81010312613a6d57506020613a63846138ad565b93015191386139f0565b80fd5b3d9150613a42565b6040513d6000823e3d90fd5b608460405162461bcd60e51b815260206004820152602160248201527f7072696365204172726179206c656e677468732061726520646966666572656e60448201527f74000000000000000000000000000000000000000000000000000000000000006064820152fd5b15613af557565b608460405162461bcd60e51b815260206004820152602560248201527f4f6e6c79207472616465722063616e206578656375746520746869732066756e60448201527f6374696f6e0000000000000000000000000000000000000000000000000000006064820152fd5b60001981146136f25760010190565b624f1a00613b7e600554426136e5565b11613bda57601854601e811015613b96575b50600190565b6000907fffffffffffffffffffffffffffffffffffffffffffffffffffffffffffffffe281018181116136f2575b818110613bdf575050601e14613bda5738613b90565b600190565b6002613bea82613478565b50015461271081029080820461271014901517156136f257613c1b60019182613c1285613478565b5001549061381d565b10613c29575b600101613bc4565b91613c35600191613b5f565b929050613c21565b90604051613c4a8161322e565b6040600282946001600160a01b038154168452600181015460208501520154910152565b90613c7882613289565b613c856040519182613266565b828152601f19613c958294613289565b019060005b828110613ca657505050565b806060602080938501015201613c9a565b9394919290613e1d57613cee613ce8613cf492613ce06001600160a01b03600d54163314613aee565b8736916134e6565b846146aa565b8361395b565b6020613d02979392976145c9565b01519615613dfa575b50670de0b6b3a7640000810290808204670de0b6b3a764000014901517156136f257600854613d399161381d565b91613d4382613c6e565b9560209260005b818110613dca57505060005b8651811015613dc057613d6981886137f6565b5191670de0b6b3a7640000613d8c8787613d856111ea886135f8565b015161380a565b0490818110613db457898888613da860019695613dae956136e5565b96614a4c565b01613d56565b50505050945050505050565b5050945050505050565b600190604051613dda8782613266565b60008152613de8828c6137f6565b52613df3818b6137f6565b5001613d4a565b9095818110613e145790613e0d916136e5565b9438613d0b565b50505092505050565b5092505060005b8151811015613eca57613e3781836137f6565b5190613e42826135f8565b506001600160a01b03613e553392613c3d565b511603613e8657613e7f600192336000526010602052613e7981604060002061533c565b5061526c565b5001613e24565b606460405162461bcd60e51b815260206004820152601160248201527f6e6f742077697468647261772073656c660000000000000000000000000000006044820152fd5b505034613ed357565b613ee7600080808034335af1610e71613708565b565b60208183031261082b5780519067ffffffffffffffff821161082b570181601f8201121561082b57805190613f1d82613289565b92613f2b6040519485613266565b82845260208085019360051b8301019181831161082b5760208101935b838510613f5757505050505090565b845167ffffffffffffffff811161082b5782019083603f8301121561082b57602082015190613f85826132a1565b613f926040519182613266565b828152604084840101861061082b57613fb6602094938594604086850191016138ba565b815201940193613f48565b60208183031261082b5780519067ffffffffffffffff821161082b570160a08183031261082b5760405191613ff58361324a565b81518352602082015160208401526040820151604084015260608201516060840152608082015167ffffffffffffffff811161082b576140359201613688565b608082015290565b9161406660ff916001600160a01b036040949796971685526060602086015260608501906138dd565b9416910152565b60ff60019116019060ff82116136f257565b60ff16600381101561408e5790565b634e487b7160e01b600052602160045260246000fd5b90600382101561408e5752565b926140f0906140d26134e398969397949761010087526101008701906138dd565b966020860152600060408601526000606086015260808501906140a4565b60a083015260c082015260e08184039101526138dd565b51906001600160a01b038216820361082b57565b91614133918352606060208401526060830190613902565b906040818303910152815180825260208201916020808360051b8301019401926000915b83831061416657505050505090565b909192939460208061418483601f19866001960301875289516138dd565b97019301930191939290614157565b91906007549260009362093a80810180911161447d574210614477576141b76137b8565b90600c5482131561446857906004916141d2600c548361379f565b91600c5560606001600160a01b0360035416604051948580927ff50200570000000000000000000000000000000000000000000000000000000082525afa9182156143f65786908794889461440d575b5061423261423b9260649261380a565b0460095461383d565b8060095560206142496145c9565b0151818111156144055750935b846142c9575b505050507f6326552a814f8b0fafe09c417dec98dc3a4a5fd9348a0277f67eb84e192aa05e91925061428c614e97565b6001600160a01b03600d54166142c4600954604051938493846040919493926001600160a01b03606083019616825260208201520152565b0390a1565b86906001600160a01b03825416803b15614401576142fe936040518095819482936352065a6560e11b84528b6004850161411b565b039134905af180156143f6579561435b9392917f6326552a814f8b0fafe09c417dec98dc3a4a5fd9348a0277f67eb84e192aa05e96976143e6575b50508391801515806143d4575b61439e575b505080614377575b600b54613783565b600b5561436a816009546136e5565b600955829138808061425c565b614399816001600160a01b03600e54166001600160a01b03600d541690614eec565b614353565b6143cd9192506143b06064918661380a565b046143bb81866136e5565b926001600160a01b03600e5416614eec565b388061434b565b506001600160a01b0382161515614346565b816143f091613266565b38614339565b6040513d88823e3d90fd5b8280fd5b905093614256565b94509250506060833d606011614460575b8161442b60609383613266565b8101031261445c5761423b606461423285519561444f604060208301519201614107565b9690969592509250614222565b8580fd5b3d915061441e565b50600c55509050613ee7614e97565b50509050565b602485634e487b7160e01b81526011600452fd5b6001600160a01b03168015614521576001600160a01b037f9016d09d72d40fdae2fd8ceac6b6234c7706214fd39c1cd1e609a0528c19930054826001600160a01b03198216177f9016d09d72d40fdae2fd8ceac6b6234c7706214fd39c1cd1e609a0528c19930055167f8be0079c531659141344cd1fd0a4f28419497f9722a3daafe3b4186f6b6457e0600080a3565b7f1e4fbdf700000000000000000000000000000000000000000000000000000000600052600060045260246000fd5b60027f9b779b17422d0df92223018b32b4d1fa46e071723d6817e2486d003becc55f00541461459f5760027f9b779b17422d0df92223018b32b4d1fa46e071723d6817e2486d003becc55f0055565b7f3ee5aeb50000000000000000000000000000000000000000000000000000000060005260046000fd5b600060806040516145d98161324a565b8281528260208201528260408201528260608201520152602460a06001600160a01b0360005416604051928380927ffb47e0160000000000000000000000000000000000000000000000000000000082523060048301525afa908115613a7857600091614644575090565b905060a0813d60a0116146a2575b8161465f60a09383613266565b8101031261082b576080604051916146768361324a565b805183526020810151602084015260408101516040840152606081015160608401520151608082015290565b3d9150614652565b8051825103614880576146be81513461381d565b81518015613827573406926146d3815161384a565b9260005b8151808210156148765760001981019081116136f25786908214614865575b5061474f60206001600160a01b036003541661471284866137f6565b519060405180809581947f299ae75300000000000000000000000000000000000000000000000000000000835286600484015260248301906138dd565b03915afa908115613a785760009161481d575b5060206147ba6001600160a01b039261477b85886137f6565b51886040519586809581947fb3d316c10000000000000000000000000000000000000000000000000000000083526040600484015260448301906138dd565b600060248301520393165af1908115613a78576000916147eb575b50906001916147e482886137f6565b52016146d7565b906020823d8211614815575b8161480460209383613266565b81010312613a6d57505160016147d5565b3d91506147f7565b906020823d821161485d575b8161483660209383613266565b81010312613a6d575060206147ba6148556001600160a01b0393614107565b925050614762565b3d9150614829565b61486f919461383d565b92856146f6565b5050505050919050565b606460405162461bcd60e51b815260206004820152602060248201527f496e636f6e73697374656e74207072696365206172726179206c656e677468736044820152fd5b906148cd6145c9565b519060009082936001600160a01b0383541690813b15614a485791839161490b936040518095819482936352065a6560e11b84528a6004850161411b565b039134905af18015614a3d578290614a2d575b90505b6014548110156149b5576001600160a01b0361493c826135af565b90549060031b1c16808352600f602052604083205480614961575b5050600101614921565b600192919561497f614976876149a59461380a565b6008549061381d565b90818111156149ac5781614992916136e5565b965b6001600160a01b03600e5416614eec565b9038614957565b90508496614994565b509150508060085560145481601455806149cd575050565b601482527fce6d7b5282bd9a3661ae061feed1dbda4e52ab073b1f9285be6e155d9c38d4ec01907fce6d7b5282bd9a3661ae061feed1dbda4e52ab073b1f9285be6e155d9c38d4ec5b828110614a2257505050565b818155600101614a16565b614a3691613266565b388161491e565b6040513d84823e3d90fd5b8380fd5b9193929093614a5d6111ea846135f8565b9160208301918251670de0b6b3a7640000614a7b6000998a9361380a565b0492614a8984600b54613783565b600b556001600160a01b03825416803b1561440157614ac093836040518096819582946352065a6560e11b84528a6004850161411b565b03925af18015614e2b57614dee575b50907fecca5b256ca62aec6a59af052fb9e6924c12daf46bef4fb5be7fcd92b1adfa4d60a083614b19614b72956001600160a01b03600e54166001600160a01b0389511690614eec565b6001600160a01b03600e5416906040519133835260208301526040820152306060820152886080820152a180516001600160a01b038451168752600f602052614b67604088209182546136e5565b9055516008546136e5565b6008556001600160a01b038151168452600f602052604084205415614bb8575b816040614bb594956001600160a01b03613e79945116815260106020522061533c565b50565b6001600160a01b038151168085526017602052604085205480614c90575b50506001600160a01b03815116845260116020526040842060ff198154169055836001600160a01b03600354166001600160a01b03835116813b15614401576040517fdf51a5f60000000000000000000000000000000000000000000000000000000081526001600160a01b0391909116600482015230602482015291908290604490829084905af18015614c8557614c70575b50614b92565b614c7b858092613266565b614a485738614c6a565b6040513d87823e3d90fd5b6015546000198101908111614dda57808203614d36575b50506015548015614d225760001901614cbf816133b2565b614d0f579160209187600185827f4debefde29c42d2fe769a035d885cb0fccb91a88423ab4760d790303aa3f38c19755015560155580875260178252866040812055604051908152a13880614bd6565b602487634e487b7160e01b815280600452fd5b602486634e487b7160e01b81526031600452fd5b614d3f816133b2565b506000198301838111614dc657614d55906133b2565b919091614db3579181836001600160a01b0394614d799403614d8f575b50506133b2565b5054168652601760205260408620553880614ca7565b805482546001600160a01b0319169086161782556001908101549101553880614d72565b602489634e487b7160e01b815280600452fd5b602489634e487b7160e01b81526011600452fd5b602487634e487b7160e01b81526011600452fd5b60a087614e21614b729594997fecca5b256ca62aec6a59af052fb9e6924c12daf46bef4fb5be7fcd92b1adfa4d94613266565b9792935050614acf565b6040513d89823e3d90fd5b6001600160a01b037f9016d09d72d40fdae2fd8ceac6b6234c7706214fd39c1cd1e609a0528c19930054163303614e6957565b7f118cdaa7000000000000000000000000000000000000000000000000000000006000523360045260246000fd5b614ea6620151804206426136e5565b620151808104600481018091116136f2576007900660001981019081116136f257620151808102908082046201518014901517156136f257614ee7916136e5565b600755565b9091614ef8908261509a565b9081151580614ffe575b614f0b57505050565b600092838093614fad604093614f9f7fffffffff00000000000000000000000000000000000000000000000000000000601960208851614f4b8a82613266565b828152017f7472616e7366657228616464726573732c75696e7432353629000000000000008152201695519384926020840197885260248401602090939291936001600160a01b0360408201951681520152565b03601f198101835282613266565b51925af1614fb9613708565b81614fc7575b501561082b57565b8051801592508215614fdc575b505038614fbf565b819250906020918101031261082b576020614ff791016138ad565b3880614fd4565b506001600160a01b0383161515614f02565b6040519060e0820182811067ffffffffffffffff8211176131fc57604052600060c083606081528260208201528260408201528260608201528260808201528260a08201520152565b6040516060919061506a8382613266565b6002815291601f19018260005b82811061508357505050565b60209061508e615010565b82828501015201615077565b60206001600160a01b03916004604051809481937f313ce567000000000000000000000000000000000000000000000000000000008352165afa908115613a785760009161510a575b5060ff16604d81116136f257670de0b6b3a76400009161510691600a0a9061380a565b0490565b6020813d602011615143575b8161512360209383613266565b8101031261513f57519060ff82168203613a6d575060ff6150e3565b5080fd5b3d9150615116565b906040519182815491828252602082019060005260206000209260005b81811061517d575050613ee792500383613266565b8454835260019485019487945060209093019201615168565b8060005260136020526040600020541560001461520757601254680100000000000000008110156131fc576151ee6151d782600185940160125560126135ca565b81939154906000199060031b92831b921b19161790565b9055601254906000526013602052604060002055600190565b50600090565b6001810190826000528160205260406000205415600014615264578054680100000000000000008110156131fc5761524f6151d78260018794018555846135ca565b90555491600052602052604060002055600190565b505050600090565b60008181526013602052604090205480156153355760001981018181116136f2576012549060001982019182116136f2578181036152fb575b50505060125480156152e557600019016152c08160126135ca565b60001982549160031b1b19169055601255600052601360205260006040812055600190565b634e487b7160e01b600052603160045260246000fd5b61531d61530c6151d79360126135ca565b90549060031b1c92839260126135ca565b905560005260136020526040600020553880806152a5565b5050600090565b90600182019181600052826020526040600020548015156000146153ef5760001981018181116136f25782549060001982019182116136f2578181036153b8575b505050805480156152e557600019019061539782826135ca565b60001982549160031b1b191690555560005260205260006040812055600190565b6153d86153c86151d793866135ca565b90549060031b1c928392866135ca565b90556000528360205260406000205538808061537d565b50505050600090565b60ff7ff0c57e16840df040f15088dc2f81fe391c3923bec73e23a9662efc9c229c6a005460401c161561542757565b7fd7e6bcf80000000000000000000000000000000000000000000000000000000060005260046000fdfea2646970667358221220eab12a4b7b4e3bbad9b5efd6d9ecb33bf6f0ba91748a98519d3f350f6c1fc04964736f6c634300081c0033",
  "linkReferences": {},
  "deployedLinkReferences": {}
}