{
  "_format": "hh-sol-artifact-1",
  "contractName": "LeadingContractFactory",
  "sourceName": "contracts/LeadingContractFactory.sol",
  "abi": [
    {
      "inputs": [],
      "name": "InvalidInitialization",
      "type": "error"
    },
    {
      "inputs": [],
      "name": "NotInitializing",
      "type": "error"
    },
    {
      "inputs": [
        {
          "internalType": "address",
          "name": "owner",
          "type": "address"
        }
      ],
      "name": "OwnableInvalidOwner",
      "type": "error"
    },
    {
      "inputs": [
        {
          "internalType": "address",
          "name": "account",
          "type": "address"
        }
      ],
      "name": "OwnableUnauthorizedAccount",
      "type": "error"
    },
    {
      "inputs": [],
      "name": "ReentrancyGuardReentrantCall",
      "type": "error"
    },
    {
      "anonymous": false,
      "inputs": [
        {
          "indexed": true,
          "internalType": "address",
          "name": "newImplementation",
          "type": "address"
        }
      ],
      "name": "ImplementationUpdated",
      "type": "event"
    },
    {
      "anonymous": false,
      "inputs": [
        {
          "indexed": false,
          "internalType": "uint64",
          "name": "version",
          "type": "uint64"
        }
      ],
      "name": "Initialized",
      "type": "event"
    },
    {
      "anonymous": false,
      "inputs": [
        {
          "indexed": true,
          "internalType": "address",
          "name": "trader",
          "type": "address"
        },
        {
          "indexed": true,
          "internalType": "address",
          "name": "token",
          "type": "address"
        },
        {
          "indexed": false,
          "internalType": "address",
          "name": "contractAddress",
          "type": "address"
        }
      ],
      "name": "LeadingContractCreated",
      "type": "event"
    },
    {
      "anonymous": false,
      "inputs": [
        {
          "indexed": true,
          "internalType": "address",
          "name": "trader",
          "type": "address"
        },
        {
          "indexed": true,
          "internalType": "address",
          "name": "token",
          "type": "address"
        }
      ],
      "name": "LeadingContractInfoUpdated",
      "type": "event"
    },
    {
      "anonymous": false,
      "inputs": [
        {
          "indexed": true,
          "internalType": "address",
          "name": "trader",
          "type": "address"
        },
        {
          "indexed": true,
          "internalType": "address",
          "name": "token",
          "type": "address"
        },
        {
          "indexed": false,
          "internalType": "address",
          "name": "contractAddress",
          "type": "address"
        }
      ],
      "name": "LeadingContractRemoved",
      "type": "event"
    },
    {
      "anonymous": false,
      "inputs": [
        {
          "indexed": true,
          "internalType": "address",
          "name": "trader",
          "type": "address"
        },
        {
          "indexed": true,
          "internalType": "address",
          "name": "token",
          "type": "address"
        },
        {
          "indexed": false,
          "internalType": "uint256",
          "name": "contractIndex",
          "type": "uint256"
        },
        {
          "indexed": false,
          "internalType": "bool",
          "name": "isActive",
          "type": "bool"
        }
      ],
      "name": "LeadingContractStatusUpdated",
      "type": "event"
    },
    {
      "anonymous": false,
      "inputs": [
        {
          "indexed": true,
          "internalType": "address",
          "name": "previousOwner",
          "type": "address"
        },
        {
          "indexed": true,
          "internalType": "address",
          "name": "newOwner",
          "type": "address"
        }
      ],
      "name": "OwnershipTransferred",
      "type": "event"
    },
    {
      "stateMutability": "payable",
      "type": "fallback"
    },
    {
      "inputs": [
        {
          "internalType": "uint256",
          "name": "",
          "type": "uint256"
        }
      ],
      "name": "allTraders",
      "outputs": [
        {
          "internalType": "address",
          "name": "",
          "type": "address"
        }
      ],
      "stateMutability": "view",
      "type": "function"
    },
    {
      "inputs": [
        {
          "internalType": "address",
          "name": "_token",
          "type": "address"
        },
        {
          "internalType": "address",
          "name": "_trader",
          "type": "address"
        },
        {
          "internalType": "string[]",
          "name": "_symbols",
          "type": "string[]"
        },
        {
          "internalType": "bytes[]",
          "name": "_priceUpdates",
          "type": "bytes[]"
        }
      ],
      "name": "autoDeleteInactiveContract",
      "outputs": [],
      "stateMutability": "payable",
      "type": "function"
    },
    {
      "inputs": [],
      "name": "bManager",
      "outputs": [
        {
          "internalType": "contract IBManager",
          "name": "",
          "type": "address"
        }
      ],
      "stateMutability": "view",
      "type": "function"
    },
    {
      "inputs": [
        {
          "internalType": "address",
          "name": "",
          "type": "address"
        }
      ],
      "name": "contractInfo",
      "outputs": [
        {
          "internalType": "address",
          "name": "contractAddress",
          "type": "address"
        },
        {
          "internalType": "address",
          "name": "traderAddress",
          "type": "address"
        },
        {
          "internalType": "string",
          "name": "traderName",
          "type": "string"
        },
        {
          "internalType": "string",
          "name": "traderDescription",
          "type": "string"
        },
        {
          "internalType": "address",
          "name": "tokenAddress",
          "type": "address"
        },
        {
          "internalType": "bool",
          "name": "isActive",
          "type": "bool"
        },
        {
          "internalType": "uint256",
          "name": "recentTotalShare",
          "type": "uint256"
        },
        {
          "internalType": "uint256",
          "name": "recentTotalBalance",
          "type": "uint256"
        },
        {
          "internalType": "uint256",
          "name": "pastTotalShare",
          "type": "uint256"
        },
        {
          "internalType": "uint256",
          "name": "pastTotalBalance",
          "type": "uint256"
        },
        {
          "internalType": "uint256",
          "name": "createTime",
          "type": "uint256"
        }
      ],
      "stateMutability": "view",
      "type": "function"
    },
    {
      "inputs": [
        {
          "internalType": "address",
          "name": "_tokenAddress",
          "type": "address"
        },
        {
          "internalType": "string",
          "name": "_leadingProjectName",
          "type": "string"
        },
        {
          "internalType": "string",
          "name": "_leadingProjectDescription",
          "type": "string"
        }
      ],
      "name": "createLeadingContract",
      "outputs": [
        {
          "internalType": "address",
          "name": "",
          "type": "address"
        }
      ],
      "stateMutability": "nonpayable",
      "type": "function"
    },
    {
      "inputs": [],
      "name": "distributeProfitRate",
      "outputs": [
        {
          "internalType": "uint256",
          "name": "",
          "type": "uint256"
        }
      ],
      "stateMutability": "view",
      "type": "function"
    },
    {
      "inputs": [
        {
          "internalType": "uint256",
          "name": "_days",
          "type": "uint256"
        }
      ],
      "name": "getAllLeadingContractInfo",
      "outputs": [
        {
          "components": [
            {
              "internalType": "address",
              "name": "contractAddress",
              "type": "address"
            },
            {
              "internalType": "address",
              "name": "traderAddress",
              "type": "address"
            },
            {
              "internalType": "string",
              "name": "traderName",
              "type": "string"
            },
            {
              "internalType": "string",
              "name": "traderDescription",
              "type": "string"
            },
            {
              "internalType": "address",
              "name": "tokenAddress",
              "type": "address"
            },
            {
              "internalType": "bool",
              "name": "isActive",
              "type": "bool"
            },
            {
              "internalType": "uint256",
              "name": "recentTotalShare",
              "type": "uint256"
            },
            {
              "internalType": "uint256",
              "name": "recentTotalBalance",
              "type": "uint256"
            },
            {
              "internalType": "uint256",
              "name": "pastTotalShare",
              "type": "uint256"
            },
            {
              "internalType": "uint256",
              "name": "pastTotalBalance",
              "type": "uint256"
            },
            {
              "internalType": "uint256",
              "name": "createTime",
              "type": "uint256"
            }
          ],
          "internalType": "struct LeadingContractFactory.LeadingContractInfo[]",
          "name": "",
          "type": "tuple[]"
        }
      ],
      "stateMutability": "view",
      "type": "function"
    },
    {
      "inputs": [
        {
          "internalType": "address",
          "name": "_trader",
          "type": "address"
        }
      ],
      "name": "getAllLeadingContractInfoByTrader",
      "outputs": [
        {
          "components": [
            {
              "internalType": "address",
              "name": "contractAddress",
              "type": "address"
            },
            {
              "internalType": "address",
              "name": "traderAddress",
              "type": "address"
            },
            {
              "internalType": "string",
              "name": "traderName",
              "type": "string"
            },
            {
              "internalType": "string",
              "name": "traderDescription",
              "type": "string"
            },
            {
              "internalType": "address",
              "name": "tokenAddress",
              "type": "address"
            },
            {
              "internalType": "bool",
              "name": "isActive",
              "type": "bool"
            },
            {
              "internalType": "uint256",
              "name": "recentTotalShare",
              "type": "uint256"
            },
            {
              "internalType": "uint256",
              "name": "recentTotalBalance",
              "type": "uint256"
            },
            {
              "internalType": "uint256",
              "name": "pastTotalShare",
              "type": "uint256"
            },
            {
              "internalType": "uint256",
              "name": "pastTotalBalance",
              "type": "uint256"
            },
            {
              "internalType": "uint256",
              "name": "createTime",
              "type": "uint256"
            }
          ],
          "internalType": "struct LeadingContractFactory.LeadingContractInfo[]",
          "name": "",
          "type": "tuple[]"
        }
      ],
      "stateMutability": "view",
      "type": "function"
    },
    {
      "inputs": [],
      "name": "getAllTraders",
      "outputs": [
        {
          "internalType": "address[]",
          "name": "",
          "type": "address[]"
        }
      ],
      "stateMutability": "view",
      "type": "function"
    },
    {
      "inputs": [],
      "name": "getDistributeProfitRate",
      "outputs": [
        {
          "internalType": "uint256",
          "name": "",
          "type": "uint256"
        },
        {
          "internalType": "uint256",
          "name": "",
          "type": "uint256"
        },
        {
          "internalType": "address",
          "name": "",
          "type": "address"
        }
      ],
      "stateMutability": "view",
      "type": "function"
    },
    {
      "inputs": [],
      "name": "getLeadingContractAddresses",
      "outputs": [
        {
          "internalType": "address[]",
          "name": "addresses",
          "type": "address[]"
        }
      ],
      "stateMutability": "view",
      "type": "function"
    },
    {
      "inputs": [
        {
          "internalType": "address",
          "name": "trader",
          "type": "address"
        }
      ],
      "name": "getLeadingContractCount",
      "outputs": [
        {
          "internalType": "uint256",
          "name": "",
          "type": "uint256"
        }
      ],
      "stateMutability": "view",
      "type": "function"
    },
    {
      "inputs": [
        {
          "internalType": "address",
          "name": "_trader",
          "type": "address"
        },
        {
          "internalType": "address",
          "name": "_token",
          "type": "address"
        },
        {
          "internalType": "uint256",
          "name": "_days",
          "type": "uint256"
        }
      ],
      "name": "getLeadingContractInfo",
      "outputs": [
        {
          "components": [
            {
              "internalType": "address",
              "name": "contractAddress",
              "type": "address"
            },
            {
              "internalType": "address",
              "name": "traderAddress",
              "type": "address"
            },
            {
              "internalType": "string",
              "name": "traderName",
              "type": "string"
            },
            {
              "internalType": "string",
              "name": "traderDescription",
              "type": "string"
            },
            {
              "internalType": "address",
              "name": "tokenAddress",
              "type": "address"
            },
            {
              "internalType": "bool",
              "name": "isActive",
              "type": "bool"
            },
            {
              "internalType": "uint256",
              "name": "recentTotalShare",
              "type": "uint256"
            },
            {
              "internalType": "uint256",
              "name": "recentTotalBalance",
              "type": "uint256"
            },
            {
              "internalType": "uint256",
              "name": "pastTotalShare",
              "type": "uint256"
            },
            {
              "internalType": "uint256",
              "name": "pastTotalBalance",
              "type": "uint256"
            },
            {
              "internalType": "uint256",
              "name": "createTime",
              "type": "uint256"
            }
          ],
          "internalType": "struct LeadingContractFactory.LeadingContractInfo",
          "name": "",
          "type": "tuple"
        }
      ],
      "stateMutability": "view",
      "type": "function"
    },
    {
      "inputs": [
        {
          "internalType": "address",
          "name": "_contractAddress",
          "type": "address"
        }
      ],
      "name": "getLeadingContractInfoByAddress",
      "outputs": [
        {
          "components": [
            {
              "internalType": "address",
              "name": "contractAddress",
              "type": "address"
            },
            {
              "internalType": "address",
              "name": "traderAddress",
              "type": "address"
            },
            {
              "internalType": "string",
              "name": "traderName",
              "type": "string"
            },
            {
              "internalType": "string",
              "name": "traderDescription",
              "type": "string"
            },
            {
              "internalType": "address",
              "name": "tokenAddress",
              "type": "address"
            },
            {
              "internalType": "bool",
              "name": "isActive",
              "type": "bool"
            },
            {
              "internalType": "uint256",
              "name": "recentTotalShare",
              "type": "uint256"
            },
            {
              "internalType": "uint256",
              "name": "recentTotalBalance",
              "type": "uint256"
            },
            {
              "internalType": "uint256",
              "name": "pastTotalShare",
              "type": "uint256"
            },
            {
              "internalType": "uint256",
              "name": "pastTotalBalance",
              "type": "uint256"
            },
            {
              "internalType": "uint256",
              "name": "createTime",
              "type": "uint256"
            }
          ],
          "internalType": "struct LeadingContractFactory.LeadingContractInfo",
          "name": "",
          "type": "tuple"
        }
      ],
      "stateMutability": "view",
      "type": "function"
    },
    {
      "inputs": [
        {
          "internalType": "address",
          "name": "trader",
          "type": "address"
        }
      ],
      "name": "getLeadingContracts",
      "outputs": [
        {
          "internalType": "address[]",
          "name": "",
          "type": "address[]"
        }
      ],
      "stateMutability": "view",
      "type": "function"
    },
    {
      "inputs": [
        {
          "internalType": "address",
          "name": "trader",
          "type": "address"
        }
      ],
      "name": "getTraderSupportedTokens",
      "outputs": [
        {
          "internalType": "address[]",
          "name": "",
          "type": "address[]"
        }
      ],
      "stateMutability": "view",
      "type": "function"
    },
    {
      "inputs": [
        {
          "internalType": "address",
          "name": "_user",
          "type": "address"
        }
      ],
      "name": "getUserFollowedContracts",
      "outputs": [
        {
          "components": [
            {
              "internalType": "address",
              "name": "contractAddress",
              "type": "address"
            },
            {
              "internalType": "address",
              "name": "traderAddress",
              "type": "address"
            },
            {
              "internalType": "string",
              "name": "traderName",
              "type": "string"
            },
            {
              "internalType": "string",
              "name": "traderDescription",
              "type": "string"
            },
            {
              "internalType": "address",
              "name": "tokenAddress",
              "type": "address"
            },
            {
              "internalType": "bool",
              "name": "isActive",
              "type": "bool"
            },
            {
              "internalType": "uint256",
              "name": "recentTotalShare",
              "type": "uint256"
            },
            {
              "internalType": "uint256",
              "name": "recentTotalBalance",
              "type": "uint256"
            },
            {
              "internalType": "uint256",
              "name": "pastTotalShare",
              "type": "uint256"
            },
            {
              "internalType": "uint256",
              "name": "pastTotalBalance",
              "type": "uint256"
            },
            {
              "internalType": "uint256",
              "name": "createTime",
              "type": "uint256"
            }
          ],
          "internalType": "struct LeadingContractFactory.LeadingContractInfo[]",
          "name": "",
          "type": "tuple[]"
        }
      ],
      "stateMutability": "view",
      "type": "function"
    },
    {
      "inputs": [
        {
          "internalType": "address",
          "name": "_initialOwner",
          "type": "address"
        },
        {
          "internalType": "address",
          "name": "_platformTradeFeeAccount",
          "type": "address"
        },
        {
          "internalType": "address",
          "name": "_bManager",
          "type": "address"
        }
      ],
      "name": "initialize",
      "outputs": [],
      "stateMutability": "nonpayable",
      "type": "function"
    },
    {
      "inputs": [
        {
          "internalType": "address",
          "name": "_trader",
          "type": "address"
        }
      ],
      "name": "isTrader",
      "outputs": [
        {
          "internalType": "bool",
          "name": "",
          "type": "bool"
        }
      ],
      "stateMutability": "view",
      "type": "function"
    },
    {
      "inputs": [],
      "name": "leadingContractImpl",
      "outputs": [
        {
          "internalType": "address",
          "name": "",
          "type": "address"
        }
      ],
      "stateMutability": "view",
      "type": "function"
    },
    {
      "inputs": [],
      "name": "owner",
      "outputs": [
        {
          "internalType": "address",
          "name": "",
          "type": "address"
        }
      ],
      "stateMutability": "view",
      "type": "function"
    },
    {
      "inputs": [],
      "name": "platformProfitRate",
      "outputs": [
        {
          "internalType": "uint256",
          "name": "",
          "type": "uint256"
        }
      ],
      "stateMutability": "view",
      "type": "function"
    },
    {
      "inputs": [],
      "name": "platformTradeFeeAccount",
      "outputs": [
        {
          "internalType": "address",
          "name": "",
          "type": "address"
        }
      ],
      "stateMutability": "view",
      "type": "function"
    },
    {
      "inputs": [
        {
          "internalType": "address",
          "name": "_user",
          "type": "address"
        },
        {
          "internalType": "address",
          "name": "_contractAddress",
          "type": "address"
        }
      ],
      "name": "recordUserFollowedContract",
      "outputs": [],
      "stateMutability": "nonpayable",
      "type": "function"
    },
    {
      "inputs": [
        {
          "internalType": "address",
          "name": "_trader",
          "type": "address"
        },
        {
          "internalType": "address",
          "name": "_token",
          "type": "address"
        }
      ],
      "name": "remove",
      "outputs": [],
      "stateMutability": "nonpayable",
      "type": "function"
    },
    {
      "inputs": [
        {
          "internalType": "address",
          "name": "_user",
          "type": "address"
        },
        {
          "internalType": "address",
          "name": "_contractAddress",
          "type": "address"
        }
      ],
      "name": "removeUserFollowedContract",
      "outputs": [],
      "stateMutability": "nonpayable",
      "type": "function"
    },
    {
      "inputs": [],
      "name": "renounceOwnership",
      "outputs": [],
      "stateMutability": "nonpayable",
      "type": "function"
    },
    {
      "inputs": [
        {
          "internalType": "address",
          "name": "_newImplementation",
          "type": "address"
        }
      ],
      "name": "setImplementation",
      "outputs": [],
      "stateMutability": "nonpayable",
      "type": "function"
    },
    {
      "inputs": [
        {
          "internalType": "address",
          "name": "",
          "type": "address"
        },
        {
          "internalType": "uint256",
          "name": "",
          "type": "uint256"
        }
      ],
      "name": "traderSupportedTokens",
      "outputs": [
        {
          "internalType": "address",
          "name": "",
          "type": "address"
        }
      ],
      "stateMutability": "view",
      "type": "function"
    },
    {
      "inputs": [
        {
          "internalType": "address",
          "name": "",
          "type": "address"
        },
        {
          "internalType": "address",
          "name": "",
          "type": "address"
        }
      ],
      "name": "traderTokenToContract",
      "outputs": [
        {
          "internalType": "address",
          "name": "",
          "type": "address"
        }
      ],
      "stateMutability": "view",
      "type": "function"
    },
    {
      "inputs": [
        {
          "internalType": "address",
          "name": "newOwner",
          "type": "address"
        }
      ],
      "name": "transferOwnership",
      "outputs": [],
      "stateMutability": "nonpayable",
      "type": "function"
    },
    {
      "inputs": [
        {
          "internalType": "string",
          "name": "",
          "type": "string"
        }
      ],
      "name": "underlying",
      "outputs": [
        {
          "internalType": "address",
          "name": "",
          "type": "address"
        }
      ],
      "stateMutability": "view",
      "type": "function"
    },
    {
      "inputs": [
        {
          "internalType": "address",
          "name": "_trader",
          "type": "address"
        },
        {
          "internalType": "address",
          "name": "_token",
          "type": "address"
        },
        {
          "internalType": "bool",
          "name": "_isActive",
          "type": "bool"
        }
      ],
      "name": "updateContractStatus",
      "outputs": [],
      "stateMutability": "nonpayable",
      "type": "function"
    },
    {
      "inputs": [
        {
          "internalType": "address",
          "name": "_tokenAddress",
          "type": "address"
        },
        {
          "internalType": "string",
          "name": "_traderName",
          "type": "string"
        },
        {
          "internalType": "string",
          "name": "_traderDescription",
          "type": "string"
        }
      ],
      "name": "updateTraderInfo",
      "outputs": [],
      "stateMutability": "nonpayable",
      "type": "function"
    },
    {
      "stateMutability": "payable",
      "type": "receive"
    }
  ],
  "bytecode": "0x6080806040523460155761478c908161001b8239f35b600080fdfe6080604052600436101561000f57005b6000803560e01c806296d244146126c45780630212385f146126915780631024c97b1461266b5780631807cd0b1461264657806323f1fcbf1461261f578063299ae753146125b857806338f906d3146124cc5780634039ad0d1461249e57806340a6809b146123b15780634f8ee78d1461235157806353be06e514611f4e5780635614579e14611f2757806364a30a3814611ca4578063715018a614611c0b57806379c4e5e414611a0d5780637c6ca3d9146112025780637f7c1491146111d75780638b92d628146111545780638da5cb5b1461110e5780639fa45d5614611084578063ae42d48614611066578063ae5e55e614610fd0578063afa85c0914610e2f578063b56eeef014610c08578063c0c53b8b1461076d578063d06b52eb14610714578063d784d42614610666578063df51a5f6146104dd578063e11eb98d146103e9578063ef90dde114610367578063f166ddd814610211578063f2fde38b146101e4578063f5020057146101ac5763fdde9efe1461018c57005b346101a957806003193601126101a9576020600554604051908152f35b80fd5b50346101a957806003193601126101a95760606005546006546001600160a01b03600154169060405192835260208301526040820152f35b50346101a95760206003193601126101a95761020e6102016127f0565b6102096137cb565b61352e565b80f35b50346101a95760206003193601126101a9576001600160a01b036102336127f0565b61023b612c56565b501680825260096020526001600160a01b0360408320541615610323578160409161031f93526009602052206009604051916102768361299e565b6001600160a01b0381541683526001600160a01b0360018201541660208401526102a260028201612b94565b60408401526102b360038201612b94565b606084015260ff60048201546001600160a01b038116608086015260a01c16151560a0840152600581015460c0840152600681015460e0840152600781015461010084015260088101546101208401520154610140820152604051918291602083526020830190612869565b0390f35b606460405162461bcd60e51b815260206004820152601260248201527f436f6e7472616374206e6f7420666f756e6400000000000000000000000000006044820152fd5b50346101a957806003193601126101a95760075461038481612dd1565b9082600754905b8281106103a0576040518061031f868261295b565b818110156103d557600190600786526001600160a01b03816020882001548760031b1c166103ce8287612e02565b520161038b565b602485634e487b7160e01b81526032600452fd5b50346101a95760206003193601126101a9576040906001600160a01b0361040e6127f0565b1681526009602052206001600160a01b038154166001600160a01b036001830154169161043d60028201612b94565b61044960038301612b94565b91600481015492600582015460068301549060ff6104a260078601549461049460096008890154980154986040519c8d9c8d5260208d015261016060408d01526101608c0190612844565b908a820360608c0152612844565b966001600160a01b03811660808a015260a01c16151560a088015260c087015260e08601526101008501526101208401526101408301520390f35b50346101a95760406003193601126101a9576104f76127f0565b6001600160a01b0361050761280b565b169081835260096020526105296001600160a01b03604085205416151561344d565b338352600960205261054c600160ff600460408720015460a01c16151514613498565b818352600960205261056c336001600160a01b03604086205416146134e3565b6001600160a01b0316825b818452600a602052604084205481101561066057818452600a602052826001600160a01b036105a98360408820612943565b90549060031b1c16146105be57600101610577565b908092508352600a60205260408320828452600a602052604084205490600019820191821161064c576001600160a01b03610600610639949361061a93612943565b90549060031b1c1691848652600a60205260408620612943565b9091906001600160a01b038084549260031b9316831b921b1916179055565b8152600a60205261020e60408220613090565b602485634e487b7160e01b81526011600452fd5b50505080f35b50346101a95760206003193601126101a9576001600160a01b036106886127f0565b6106906137cb565b1680156106d057806001600160a01b031960025416176002557f310ba5f1d2ed074b51e2eccd052a47ae9ab7c6b800d1fca3db3999d6a592ca038280a280f35b606460405162461bcd60e51b815260206004820152600f60248201527f496e76616c6964206164647265737300000000000000000000000000000000006044820152fd5b50346101a95760406003193601126101a9576001600160a01b0360406107386127f0565b928261074261280b565b94168152600360205220911660005260205260206001600160a01b0360406000205416604051908152f35b50346101a95760606003193601126101a9576107876127f0565b61078f61280b565b604435906001600160a01b038216809203610b61577ff0c57e16840df040f15088dc2f81fe391c3923bec73e23a9662efc9c229c6a00549260ff8460401c16159367ffffffffffffffff811680159081610c00575b6001149081610bf6575b159081610bed575b50610bc55785926108b160049593838860017fffffffffffffffffffffffffffffffffffffffffffffffff00000000000000006001600160a01b039716177ff0c57e16840df040f15088dc2f81fe391c3923bec73e23a9662efc9c229c6a0055610b70575b5061086461395d565b61086c61395d565b6108753361352e565b61087d61395d565b61088561395d565b60017f9b779b17422d0df92223018b32b4d1fa46e071723d6817e2486d003becc55f00556102096137cb565b6014600555826001600160a01b0319855416178455166001600160a01b03196001541617600155604051928380927f9816f4730000000000000000000000000000000000000000000000000000000082525afa8015610b655783918491610a20575b50835b825181101561098257806001600160a01b0361093460019385612e02565b51166001600160a01b03610961602061094d8589612e02565b518160405193828580945193849201612821565b8101600c81520301902091166001600160a01b031982541617905501610916565b50505061098c5780f35b7fffffffffffffffffffffffffffffffffffffffffffffff00ffffffffffffffff7ff0c57e16840df040f15088dc2f81fe391c3923bec73e23a9662efc9c229c6a0054167ff0c57e16840df040f15088dc2f81fe391c3923bec73e23a9662efc9c229c6a00557fc7f505b2f371ae2175ee4913f4499e1f2633a7b5936321eed1cdaeb6115181d2602060405160018152a180f35b9150503d8084833e610a3281836129d1565b810190604081830312610b6157805167ffffffffffffffff8111610b235781019082601f83011215610b2357815191610a6a83612a65565b92610a7860405194856129d1565b80845260208085019160051b83010191858311610b5d5760208101915b838310610b2b575050505060208101519067ffffffffffffffff8211610b2757019180601f84011215610b23578251610acd81612a65565b93610adb60405195866129d1565b81855260208086019260051b820101928311610b1f57602001905b828210610b07575050509038610913565b60208091610b1484612fc3565b815201910190610af6565b8680fd5b8480fd5b8580fd5b825167ffffffffffffffff8111610b5957602091610b4e89848094870101612fd7565b815201920191610a95565b8980fd5b8780fd5b8380fd5b6040513d85823e3d90fd5b7fffffffffffffffffffffffffffffffffffffffffffffff0000000000000000001668010000000000000001177ff0c57e16840df040f15088dc2f81fe391c3923bec73e23a9662efc9c229c6a00553861085b565b6004867ff92ee8a9000000000000000000000000000000000000000000000000000000008152fd5b905015386107f6565b303b1591506107ee565b8691506107e4565b50346101a95760206003193601126101a9576004805490359180805b838110610df25750610c3590612f4f565b918193825b828410610c4f576040518061031f8782612adc565b6001600160a01b03610c6085612912565b90549060031b1c1691828252600b60205260408220604051808260208294549384815201908652602086209286905b808210610dcd575050610ca4925003826129d1565b82975b8151891015610dbd57610db5600191610d576001600160a01b03610ccb8d87612e02565b51168888526003602052610d6d89610d638a6001600160a01b03604080832060009083891682526020522054168095610d048d8361360f565b9892959196909785835260096020526002604084200190868452600960205260096040600381872001958981528260205260ff6004838320015460a01c16998152826020522001549b6040519d8e61299e565b8d5260208d0152612b94565b60408b0152612b94565b60608901526080880152151560a087015260c086015260e0850152610100840152610120830152610140820152610da4828c612e02565b52610daf818b612e02565b50612f9e565b980197610ca7565b9750506001909401939150610c3a565b916001919350602082916001600160a01b038754168152019401920184929391610c8f565b90610e186001600160a01b03610e0b8497969597612912565b90549060031b1c16612d1a565b51810180911161064c579293919290600101610c24565b50346101a95760206003193601126101a9576001600160a01b03610e516127f0565b1690818152600b60205260408120906040518083602082955493848152019084526020842092845b818110610fae575050610e8e925003836129d1565b610e988251612f4f565b92815b8351811015610fa057806001600160a01b03604081610ebc60019589612e02565b51168587526003602052818720836000921682526020522054168452600960205260408420600960405191610ef08361299e565b6001600160a01b0381541683526001600160a01b0385820154166020840152610f1b60028201612b94565b6040840152610f2c60038201612b94565b606084015260ff60048201546001600160a01b038116608086015260a01c16151560a0840152600581015460c0840152600681015460e0840152600781015461010084015260088101546101208401520154610140820152610f8e8288612e02565b52610f998187612e02565b5001610e9b565b6040518061031f8782612adc565b84546001600160a01b0316835260019485019487945060209093019201610e79565b50346101a95760406003193601126101a95761020e610fed6127f0565b6001600160a01b03610ffd61280b565b91818316808652600960205261101a83604088205416151561344d565b338652600960205261103d600160ff600460408a20015460a01c16151514613498565b855260096020526110553383604088205416146134e3565b168352600a60205260408320613019565b50346101a957806003193601126101a9576020600654604051908152f35b50346101a957806003193601126101a95760405180916020600454928381520191600482527f8a35acfbc15ff81a39ae7d344fd709f28e8600b4aa8c65c6b64bfe7fe36bd19b915b8181106110ef5761031f856110e3818703826129d1565b6040519182918261295b565b82546001600160a01b03168452602090930192600192830192016110cc565b50346101a957806003193601126101a95760206001600160a01b037f9016d09d72d40fdae2fd8ceac6b6234c7706214fd39c1cd1e609a0528c1993005416604051908152f35b50346101a95760206003193601126101a9576001600160a01b036111766127f0565b168152600b60205260408120604051918260208354918281520192825260208220915b8181106111b8576020856111af818703826129d1565b51604051908152f35b82546001600160a01b0316845260209093019260019283019201611199565b50346101a95760406003193601126101a95761020e6111f46127f0565b6111fc61280b565b906130d8565b50346101a95761121136612a7d565b9092913383526003602052604083206001600160a01b0382166000526020526001600160a01b03604060002054166119a357826001600160a01b036024818354169360405194859384927f873fd3c30000000000000000000000000000000000000000000000000000000084521660048301525afa908115610b65578391611865575b506001600160a01b0360c0820151166001600160a01b03610100830151166001600160a01b0360e08401511690604051927fcc2a9a5b000000000000000000000000000000000000000000000000000000006020850152336024850152336044850152306064850152608484015260a483015260c482015260c4815261131b60e4826129d1565b6001600160a01b0360025416906001600160a01b037f9016d09d72d40fdae2fd8ceac6b6234c7706214fd39c1cd1e609a0528c19930054169160405192610da0918285019285841067ffffffffffffffff8511176118515792859492606092611397956139b78839825260208201528160408201520190612844565b039084f08015610b65576001600160a01b0316916113b48361382c565b5033845260036020526020604085209201916001600160a01b03808451161660005260205260406000206001600160a01b0384166001600160a01b031982541617905561140033612d83565b156117ed575b8394338552600b6020526040852083516001600160a01b031661142891613019565b82516001600160a01b031690604051926114418461299e565b858452602084019233845260408501928352606085019182526080850190815260a08501906001825260c086019189835260e08701938a85526101008801958b87526101208901978c89528b6101408b019d8e429052528d60096020526040902099516001600160a01b03166001600160a01b03168a546001600160a01b031916178a55516001600160a01b031660018a01906001600160a01b031681546001600160a01b031916179055600289019051805167ffffffffffffffff81116117d9578e61150e8454612b5a565b601f81116117a9575b50602090601f831160011461174657906115459383611673575b50506000198260011b9260031b1c19161790565b90555b518051600389019167ffffffffffffffff8211611732579c60209d61156d8454612b5a565b601f81116116f7575b508e91601f841160011461167e57836001600160a01b039e9f9a9896939460099c9a989561162297946115bc94926116735750506000198260011b9260031b1c19161790565b90555b8b8060048c01935116166001600160a01b03198354161782555115157fffffffffffffffffffffff00ffffffffffffffffffffffffffffffffffffffff74ff0000000000000000000000000000000000000000835492151560a01b169116179055565b5160058701555160068601555160078501555160088401555191015551166040518281527f90aeddfcb1428cce068a71e29d724f88317a2527526ca083e9246630a0d85d63843392a3604051908152f35b015190503880611531565b9190601f198416858452828420935b8181106116df5750936001600160a01b039e9f9a98969361162296936001938360099f9d9b98106116c6575b505050811b0190556115bf565b015160001960f88460031b161c191690553880806116b9565b9293602060018192878601518155019501930161168d565b6117229085845260208420601f860160051c81019160208710611728575b601f0160051c0190612f38565b38611576565b9091508190611715565b60248e634e487b7160e01b81526041600452fd5b9192601f198416858452828420935b8181106117915750908460019594939210611778575b505050811b019055611548565b015160001960f88460031b161c1916905538808061176b565b92936020600181928786015181550195019301611755565b6117d39085835260208320601f850160051c8101916020861061172857601f0160051c0190612f38565b38611517565b60248f634e487b7160e01b81526041600452fd5b600454946801000000000000000086101561183d576118366118188760018899016004556004612943565b33906001600160a01b038084549260031b9316831b921b1916179055565b9450611406565b602485634e487b7160e01b81526041600452fd5b602489634e487b7160e01b81526041600452fd5b90503d8084833e61187681836129d1565b810190602081830312610b615780519067ffffffffffffffff8211610b23570161014081830312610b615760405191610140830183811067ffffffffffffffff82111761198f576040526118c982612fc3565b83526118d760208301612fc3565b602084015260408201516040840152606082015167ffffffffffffffff8111610b275781611906918401612fd7565b6060840152608082015167ffffffffffffffff8111610b27579161193261012092611983948301612fd7565b608085015261194360a08201612fc3565b60a085015261195460c08201612fc3565b60c085015261196560e08201612fc3565b60e08501526119776101008201612fc3565b61010085015201612fc3565b61012082015238611294565b602486634e487b7160e01b81526041600452fd5b608460405162461bcd60e51b815260206004820152602c60248201527f54726164657220616c726561647920686173206120636f6e747261637420666f60448201527f72207468697320746f6b656e00000000000000000000000000000000000000006064820152fd5b50346101a95760206003193601126101a9576001600160a01b03611a2f6127f0565b168152600a602052604081206040518082602082945493848152019085526020852092855b818110611be9575050611a69925003826129d1565b611a738151612f4f565b9082835b8251811015611b9c576001600160a01b03611a928285612e02565b5116855260096020526001600160a01b03604086205416611ab6575b600101611a77565b90611b946001916001600160a01b03611acf8587612e02565b51168752600960205260408720600960405191611aeb8361299e565b6001600160a01b0381541683526001600160a01b0386820154166020840152611b1660028201612b94565b6040840152611b2760038201612b94565b606084015260ff60048201546001600160a01b038116608086015260a01c16151560a0840152600581015460c0840152600681015460e0840152600781015461010084015260088101546101208401520154610140820152611b898288612e02565b52610daf8187612e02565b919050611aae565b848285611ba882612f4f565b925b828110611bbf576040518061031f8682612adc565b80611bcc60019284612e02565b51611bd78287612e02565b52611be28186612e02565b5001611baa565b84546001600160a01b0316835260019485019486945060209093019201611a54565b50346101a957806003193601126101a957611c246137cb565b806001600160a01b037f9016d09d72d40fdae2fd8ceac6b6234c7706214fd39c1cd1e609a0528c199300546001600160a01b031981167f9016d09d72d40fdae2fd8ceac6b6234c7706214fd39c1cd1e609a0528c19930055167f8be0079c531659141344cd1fd0a4f28419497f9722a3daafe3b4186f6b6457e08280a380f35b50346101a957611cb336612a7d565b9291903383526003602052604083206001600160a01b0383166000526020526001600160a01b0360406000205416611cec811515612ca9565b835260096020526040832090600282019080519067ffffffffffffffff821161198f57611d198354612b5a565b601f8111611ef7575b50602090601f8311600114611e91579180611d5692600396959489926116735750506000198260011b9260031b1c19161790565b90555b01835167ffffffffffffffff8111611e7d57611d758254612b5a565b601f8111611e4d575b506020601f8211600114611de2579080611db69286976001600160a01b0397926116735750506000198260011b9260031b1c19161790565b90555b16337f99aea1f1550ab3e43762b27dd94cb3caed3328e1fc7b39d72906f9802a8c8db48380a380f35b82855280852095601f198316865b818110611e355750916001600160a01b03969791846001959410611e1c575b505050811b019055611db9565b015160001960f88460031b161c19169055388080611e0f565b83830151895560019098019760209384019301611df0565b611e779083865260208620601f840160051c8101916020851061172857601f0160051c0190612f38565b38611d7e565b602484634e487b7160e01b81526041600452fd5b8387528187209190601f198416885b818110611edf575091600193918560039897969410611ec7575b505050811b019055611d59565b015160001960f884891b161c19169055388080611eba565b92936020600181928786015181550195019301611ea0565b611f219084885260208820601f850160051c8101916020861061172857601f0160051c0190612f38565b38611d22565b50346101a957806003193601126101a95760206001600160a01b0360025416604051908152f35b5060806003193601126101a957611f636127f0565b611f6b61280b565b9060443567ffffffffffffffff8111610b615736602382011215610b6157806004013590611f9882612a65565b91611fa660405193846129d1565b80835260051b810160240160208301368211610b1f5760248301905b82821061231d57505050506064359067ffffffffffffffff8211610b235736602383011215610b23578160040135611ff981612a65565b9261200760405194856129d1565b8184526024602085019260051b82010190368211610b5d5760248101925b8284106122dc57505050506001600160a01b03841685526003602052604085206001600160a01b03841686526020526001600160a01b036040862054169161206e831515612e16565b6040517f5e829a02000000000000000000000000000000000000000000000000000000008152602081600481875afa90811561220e5787916122a1575b501561225d57815181510361221957823b15610b27576040517f7fcd8c470000000000000000000000000000000000000000000000000000000081528681806120f8858760048401612e61565b038134885af1801561220e576121f6575b5090829186933b15610b61576040517f028afabf000000000000000000000000000000000000000000000000000000008152848160048183885af19081156121eb5785916121d6575b5050823b15610b61576121969284926040518095819482937ff1268ef400000000000000000000000000000000000000000000000000000000845260048401612e61565b039134905af180156121cb576121b2575b505061020e916130d8565b816121bc916129d1565b6121c75782386121a7565b8280fd5b6040513d84823e3d90fd5b816121e0916129d1565b610b61578338612152565b6040513d87823e3d90fd5b866122059197929493976129d1565b94909138612109565b6040513d89823e3d90fd5b606460405162461bcd60e51b815260206004820152601860248201527f4172726179206c656e67746873206d757374206d6174636800000000000000006044820152fd5b606460405162461bcd60e51b815260206004820152601860248201527f436f6e7472616374206973206e6f7420696e61637469766500000000000000006044820152fd5b90506020813d6020116122d4575b816122bc602093836129d1565b81010312610b1f57518015158103610b1f57386120ab565b3d91506122af565b833567ffffffffffffffff8111610b5957820136604382011215610b595760209161231283923690604460248201359101612a10565b815201930192612025565b813567ffffffffffffffff811161234d57602091612342839260243691890101612a47565b815201910190611fc2565b8880fd5b50346101a95760406003193601126101a95761236b6127f0565b6001600160a01b03168152600b60205260408120805460243592908310156101a95760206001600160a01b036123a18585612943565b90549060031b1c16604051908152f35b50346101a95760206003193601126101a9576001600160a01b036123d36127f0565b16808252600b60205260408220916040518084602082965493848152019084526020842092845b81811061247c57505061240f925003846129d1565b6124198351612dd1565b92815b815181101561246e576001908484526003602052604084206001600160a01b03806124478487612e02565b51161685526020526001600160a01b036040852054166124678288612e02565b520161241c565b6040518061031f878261295b565b84546001600160a01b03168352600194850194889450602090930192016123fa565b50346101a95760206003193601126101a95760206124c26124bd6127f0565b612d83565b6040519015158152f35b50346101a95760606003193601126101a9576124e66127f0565b6124ee61280b565b90604435918215158303610b615761258f6001600160a01b0380936125116137cb565b1693848652600360205260408620848416875260205283604087205416612539811515612ca9565b8652600960205260046040872001907fffffffffffffffffffffff00ffffffffffffffffffffffffffffffffffffffff74ff0000000000000000000000000000000000000000835492151560a01b169116179055565b16907f99aea1f1550ab3e43762b27dd94cb3caed3328e1fc7b39d72906f9802a8c8db48380a380f35b50346101a95760206003193601126101a9576004359067ffffffffffffffff82116101a95760206001600160a01b0361260b826125f83660048801612a47565b8160405193828580945193849201612821565b8101600c8152030190205416604051908152f35b50346101a957806003193601126101a95760206001600160a01b0360015416604051908152f35b50346101a95760206003193601126101a95761031f6110e36126666127f0565b612d1a565b50346101a957806003193601126101a9576001600160a01b036020915416604051908152f35b50346101a95760206003193601126101a957600435906004548210156101a95760206001600160a01b036123a184612912565b50346101a95760606003193601126101a95761031f906126e26127f0565b6001600160a01b036126f261280b565b916126fb612c56565b5016825260036020526001600160a01b03604083209116825260205260406001600160a01b038183205416612731811515612ca9565b61273d6044358261360f565b94919295909381526009602052209360096040519561275b8761299e565b6001600160a01b0381541687526001600160a01b03600182015416602088015261278760028201612b94565b604088015261279860038201612b94565b606088015260ff60048201546001600160a01b03811660808a015260a01c16151560a0880152015461014086015260c085015260e0840152610100830152610120820152604051918291602083526020830190612869565b600435906001600160a01b038216820361280657565b600080fd5b602435906001600160a01b038216820361280657565b60005b8381106128345750506000910152565b8181015183820152602001612824565b90601f19601f60209361286281518092818752878088019101612821565b0116010190565b906001600160a01b0382511681526001600160a01b036020830151166020820152610140806128be6128ac60408601516101606040870152610160860190612844565b60608601518582036060870152612844565b936001600160a01b03608082015116608085015260a0810151151560a085015260c081015160c085015260e081015160e0850152610100810151610100850152610120810151610120850152015191015290565b60045481101561292d57600460005260206000200190600090565b634e487b7160e01b600052603260045260246000fd5b805482101561292d5760005260206000200190600090565b602060408183019282815284518094520192019060005b81811061297f5750505090565b82516001600160a01b0316845260209384019390920191600101612972565b610160810190811067ffffffffffffffff8211176129bb57604052565b634e487b7160e01b600052604160045260246000fd5b90601f601f19910116810190811067ffffffffffffffff8211176129bb57604052565b67ffffffffffffffff81116129bb57601f01601f191660200190565b929192612a1c826129f4565b91612a2a60405193846129d1565b829481845281830111612806578281602093846000960137010152565b9080601f8301121561280657816020612a6293359101612a10565b90565b67ffffffffffffffff81116129bb5760051b60200190565b6060600319820112612806576004356001600160a01b0381168103612806579160243567ffffffffffffffff81116128065782612abc91600401612a47565b916044359067ffffffffffffffff821161280657612a6291600401612a47565b602081016020825282518091526040820191602060408360051b8301019401926000915b838310612b0f57505050505090565b9091929394602080612b4b837fffffffffffffffffffffffffffffffffffffffffffffffffffffffffffffffc086600196030187528951612869565b97019301930191939290612b00565b90600182811c92168015612b8a575b6020831014612b7457565b634e487b7160e01b600052602260045260246000fd5b91607f1691612b69565b9060405191826000825492612ba884612b5a565b8084529360018116908115612c165750600114612bcf575b50612bcd925003836129d1565b565b90506000929192526020600020906000915b818310612bfa575050906020612bcd9282010138612bc0565b6020919350806001915483858901015201910190918492612be1565b60209350612bcd9592507fffffffffffffffffffffffffffffffffffffffffffffffffffffffffffffff0091501682840152151560051b82010138612bc0565b60405190612c638261299e565b600061014083828152826020820152606060408201526060808201528260808201528260a08201528260c08201528260e082015282610100820152826101208201520152565b15612cb057565b608460405162461bcd60e51b815260206004820152602b60248201527f4e6f20636f6e747261637420666f756e6420666f72207468697320747261646560448201527f7220616e6420746f6b656e0000000000000000000000000000000000000000006064820152fd5b6001600160a01b0316600052600b60205260406000206040518082602082945493848152019060005260206000209260005b818110612d61575050612a62925003826129d1565b84546001600160a01b0316835260019485019486945060209093019201612d4c565b6004549060005b828110612d9957505050600090565b6001600160a01b03612daa82612912565b90549060031b1c166001600160a01b03831614612dc957600101612d8a565b505050600190565b90612ddb82612a65565b612de860405191826129d1565b828152601f19612df88294612a65565b0190602036910137565b805182101561292d5760209160051b010190565b15612e1d57565b606460405162461bcd60e51b815260206004820152601760248201527f436f6e747261637420646f6573206e6f742065786973740000000000000000006044820152fd5b604081016040825282518091526060820190602060608260051b8501019401916000905b828210612eef57505050506020818303910152815180825260208201916020808360051b8301019401926000915b838310612ec257505050505090565b9091929394602080612ee083601f1986600196030187528951612844565b97019301930191939290612eb3565b90919294602080612f2a837fffffffffffffffffffffffffffffffffffffffffffffffffffffffffffffffa089600196030186528951612844565b970192019201909291612e85565b818110612f43575050565b60008155600101612f38565b90612f5982612a65565b612f6660405191826129d1565b828152601f19612f768294612a65565b019060005b828110612f8757505050565b602090612f92612c56565b82828501015201612f7b565b6000198114612fad5760010190565b634e487b7160e01b600052601160045260246000fd5b51906001600160a01b038216820361280657565b81601f82011215612806578051612fed816129f4565b92612ffb60405194856129d1565b8184526020828401011161280657612a629160208085019101612821565b90815491680100000000000000008310156129bb578261061a916001612bcd95018155612943565b61304b8154612b5a565b9081613055575050565b81601f60009311600114613067575055565b8183526020832061308391601f0160051c810190600101612f38565b8082528160208120915555565b805480156130c25760001901906130bf6130aa8383612943565b6001600160a01b0382549160031b1b19169055565b55565b634e487b7160e01b600052603160045260246000fd5b6001600160a01b031680600052600360205260406000206001600160a01b0383166000526020526001600160a01b03604060002054169061311a821515612e16565b813314801561341a575b8015613411575b156133cd5780600052600360205260406000206001600160a01b03841660005260205260406000206001600160a01b03198154169055816000526009602052600060096040822082815582600182015561318760028201613041565b61319360038201613041565b826004820155826005820155826006820155826007820155826008820155015560005b81600052600b6020526040600020548110156133c55781600052600b6020526001600160a01b036131eb826040600020612943565b90549060031b1c166001600160a01b0385161461320a576001016131b6565b6000828152600b6020526040902080549394929360001981019291908311612fad576001600160a01b036132446132609461061a93612943565b90549060031b1c169185600052600b6020526040600020612943565b81600052600b6020526132766040600020613090565b81600052600b602052604060002054156132cc575b60206001600160a01b037fa9c4cf795890a049971a6e43cf862d315ec5c7b8c4bfaf94616f1499231ba874926132c0866138a3565b506040519586521693a3565b919060005b6004548082101561339057826001600160a01b036132ee84612912565b90549060031b1c161461330457506001016132d1565b90600019829593949501918211612fad5761061a6001600160a01b0361332c61333a94612912565b90549060031b1c1691612912565b6004549081156130c2576001600160a01b036020916000197fa9c4cf795890a049971a6e43cf862d315ec5c7b8c4bfaf94616f1499231ba87494016133836130aa826004612943565b6004555b9250505061328b565b5050909160206001600160a01b037fa9c4cf795890a049971a6e43cf862d315ec5c7b8c4bfaf94616f1499231ba87492613387565b509091613276565b606460405162461bcd60e51b815260206004820152600c60248201527f556e617574686f72697a656400000000000000000000000000000000000000006044820152fd5b5030331461312b565b506001600160a01b037f9016d09d72d40fdae2fd8ceac6b6234c7706214fd39c1cd1e609a0528c19930054163314613124565b1561345457565b606460405162461bcd60e51b815260206004820152601860248201527f496e76616c696420636f6e7472616374206164647265737300000000000000006044820152fd5b1561349f57565b606460405162461bcd60e51b815260206004820152600e60248201527f496e76616c69642063616c6c65720000000000000000000000000000000000006044820152fd5b156134ea57565b606460405162461bcd60e51b815260206004820152601b60248201527f63616c6c6572206e6f7420636f6e7472616374206164647265737300000000006044820152fd5b6001600160a01b031680156135be576001600160a01b037f9016d09d72d40fdae2fd8ceac6b6234c7706214fd39c1cd1e609a0528c19930054826001600160a01b03198216177f9016d09d72d40fdae2fd8ceac6b6234c7706214fd39c1cd1e609a0528c19930055167f8be0079c531659141344cd1fd0a4f28419497f9722a3daafe3b4186f6b6457e0600080a3565b7f1e4fbdf700000000000000000000000000000000000000000000000000000000600052600060045260246000fd5b9190826080910312612806578151916020810151916060604083015192015190565b6001600160a01b0316916040517fc89db572000000000000000000000000000000000000000000000000000000008152602081600481875afa90811561374f57600091613799575b50801561378b57600019810192818411612fad5780821115613781578103908111612fad576000198101908111612fad57925b604051927fbacea2d20000000000000000000000000000000000000000000000000000000084526004840152608083602481845afa801561374f5760009360009161375b575b5060809093946024604051809481937fbacea2d200000000000000000000000000000000000000000000000000000000835260048301525afa801561374f5760009160009161371e57509091565b9050613742915060803d608011613748575b61373a81836129d1565b8101906135ed565b50915091565b503d613730565b6040513d6000823e3d90fd5b608080955061377692503d86116137485761373a81836129d1565b5094915093906136d0565b505060009261368a565b506000925082915081908190565b906020823d6020116137c3575b816137b3602093836129d1565b810103126101a957505138613657565b3d91506137a6565b6001600160a01b037f9016d09d72d40fdae2fd8ceac6b6234c7706214fd39c1cd1e609a0528c199300541633036137fe57565b7f118cdaa7000000000000000000000000000000000000000000000000000000006000523360045260246000fd5b8060005260086020526040600020541560001461389d57600754680100000000000000008110156129bb5761388461386d8260018594016007556007612943565b81939154906000199060031b92831b921b19161790565b9055600754906000526008602052604060002055600190565b50600090565b6000818152600860205260409020548015613956576000198101818111612fad57600754906000198201918211612fad5781810361391c575b50505060075480156130c257600019016138f7816007612943565b60001982549160031b1b19169055600755600052600860205260006040812055600190565b61393e61392d61386d936007612943565b90549060031b1c9283926007612943565b905560005260086020526040600020553880806138dc565b5050600090565b60ff7ff0c57e16840df040f15088dc2f81fe391c3923bec73e23a9662efc9c229c6a005460401c161561398c57565b7fd7e6bcf80000000000000000000000000000000000000000000000000000000060005260046000fdfe60a0604052610da08038038061001481610293565b928339810160608282031261028e5761002c826102b8565b610038602084016102b8565b604084015190936001600160401b03821161028e570182601f8201121561028e5780519061006d610068836102cc565b610293565b938285526020838301011161028e5760005b828110610279575050602060009184010152803b15610258577f360894a13ba1a3210667c828492db98dca3e2076cc3735a920a3ca505d382bbc80546001600160a01b0319166001600160a01b0383169081179091557fbc7cd75a20ee27fd9adebab32041f755214dbc6bffa90cc0225b39da2e5c2d3b600080a281511561023f5760008083602061013595519101845af43d15610237573d91610125610068846102cc565b9283523d6000602085013e6102e7565b505b604051906105ac8083016001600160401b038111848210176102215760209284926107d484396001600160a01b031681520301906000f080156102155760018060a01b031680608052600080516020610d80833981519152547f7e644d79422f17c01e4894b5f4f588d331ebfa28653d42ae832dc59e38c9798f6040805160018060a01b0384168152846020820152a181156101ff576001600160a01b03191617600080516020610d808339815191525560405161048b908161034982396080518160070152f35b633173bdd160e11b600052600060045260246000fd5b6040513d6000823e3d90fd5b634e487b7160e01b600052604160045260246000fd5b6060916102e7565b505034156101375763b398979f60e01b60005260046000fd5b634c9c8ce360e01b60009081526001600160a01b0391909116600452602490fd5b8060208092840101518282880101520161007f565b600080fd5b6040519190601f01601f191682016001600160401b0381118382101761022157604052565b51906001600160a01b038216820361028e57565b6001600160401b03811161022157601f01601f191660200190565b9061030d57508051156102fc57602081519101fd5b63d6bda27560e01b60005260046000fd5b8151158061033f575b61031e575090565b639996b31560e01b60009081526001600160a01b0391909116600452602490fd5b50803b1561031656fe6080604052337f000000000000000000000000000000000000000000000000000000000000000073ffffffffffffffffffffffffffffffffffffffff16036100c0576000357fffffffff00000000000000000000000000000000000000000000000000000000167f4f1ef28600000000000000000000000000000000000000000000000000000000146100b6577fd2b576ec0000000000000000000000000000000000000000000000000000000060005260046000fd5b6100be61018e565b005b60008073ffffffffffffffffffffffffffffffffffffffff7f360894a13ba1a3210667c828492db98dca3e2076cc3735a920a3ca505d382bbc5416368280378136915af43d6000803e15610113573d6000f35b3d6000fd5b7f4e487b7100000000000000000000000000000000000000000000000000000000600052604160045260246000fd5b90601f19601f604051930116820182811067ffffffffffffffff82111761016d57604052565b610118565b67ffffffffffffffff811161016d57601f01601f191660200190565b366004116102425760407ffffffffffffffffffffffffffffffffffffffffffffffffffffffffffffffffc3601126102425760043573ffffffffffffffffffffffffffffffffffffffff8116809103610242576024359067ffffffffffffffff821161024257366023830112156102425781600401359061021661021183610172565b610147565b91808352366024828601011161024257602081600092602461024097018387013784010152610247565b565b600080fd5b90813b156103395773ffffffffffffffffffffffffffffffffffffffff8216807fffffffffffffffffffffffff00000000000000000000000000000000000000007f360894a13ba1a3210667c828492db98dca3e2076cc3735a920a3ca505d382bbc5416177f360894a13ba1a3210667c828492db98dca3e2076cc3735a920a3ca505d382bbc557fbc7cd75a20ee27fd9adebab32041f755214dbc6bffa90cc0225b39da2e5c2d3b600080a2805115610306576103039161037d565b50565b50503461030f57565b7fb398979f0000000000000000000000000000000000000000000000000000000060005260046000fd5b73ffffffffffffffffffffffffffffffffffffffff827f4c9c8ce3000000000000000000000000000000000000000000000000000000006000521660045260246000fd5b6000806103b193602081519101845af43d156103b4573d916103a161021184610172565b9283523d6000602085013e6103b8565b90565b6060915b906103f757508051156103cd57602081519101fd5b7fd6bda2750000000000000000000000000000000000000000000000000000000060005260046000fd5b8151158061044c575b610408575090565b73ffffffffffffffffffffffffffffffffffffffff907f9996b315000000000000000000000000000000000000000000000000000000006000521660045260246000fd5b50803b1561040056fea26469706673582212207eb2e5e8909617ac14be56da5fb74304c296d95274d3a9ad9b11a3595d9f79b264736f6c634300081c003360803460bc57601f6105ac38819003918201601f19168301916001600160401b0383118484101760c15780849260209460405283398101031260bc57516001600160a01b0381169081900360bc57801560a657600080546001600160a01b031981168317825560405192916001600160a01b03909116907f8be0079c531659141344cd1fd0a4f28419497f9722a3daafe3b4186f6b6457e09080a36104d490816100d88239f35b631e4fbdf760e01b600052600060045260246000fd5b600080fd5b634e487b7160e01b600052604160045260246000fdfe6080604052600436101561001257600080fd5b6000803560e01c8063715018a61461033e5780638da5cb5b1461030b5780639623609d14610190578063ad3cb1cc1461012b5763f2fde38b1461005457600080fd5b346101285760206003193601126101285760043573ffffffffffffffffffffffffffffffffffffffff81168091036101265761008e61044f565b80156100fa5773ffffffffffffffffffffffffffffffffffffffff8254827fffffffffffffffffffffffff00000000000000000000000000000000000000008216178455167f8be0079c531659141344cd1fd0a4f28419497f9722a3daafe3b4186f6b6457e08380a380f35b6024827f1e4fbdf700000000000000000000000000000000000000000000000000000000815280600452fd5b505b80fd5b50346101285780600319360112610128575061018c60405161014e6040826103bc565b600581527f352e302e30000000000000000000000000000000000000000000000000000000602082015260405191829160208352602083019061040e565b0390f35b5060606003193601126101285760043573ffffffffffffffffffffffffffffffffffffffff81168091036101265760243573ffffffffffffffffffffffffffffffffffffffff81168091036102d25760443567ffffffffffffffff8111610307573660238201121561030757806004013567ffffffffffffffff81116102da5790816020601f19601f8896950116019161022d60405193846103bc565b81835236602483830101116102d657818592602460209301838601378301015261025561044f565b833b156102d2576102a49383926040518096819482937f4f1ef286000000000000000000000000000000000000000000000000000000008452600484015260406024840152604483019061040e565b039134905af180156102c5576102b75780f35b6102c0916103bc565b388180f35b50604051903d90823e3d90fd5b8280fd5b8480fd5b6024857f4e487b710000000000000000000000000000000000000000000000000000000081526041600452fd5b8380fd5b503461012857806003193601126101285773ffffffffffffffffffffffffffffffffffffffff6020915416604051908152f35b503461012857806003193601126101285761035761044f565b8073ffffffffffffffffffffffffffffffffffffffff81547fffffffffffffffffffffffff000000000000000000000000000000000000000081168355167f8be0079c531659141344cd1fd0a4f28419497f9722a3daafe3b4186f6b6457e08280a380f35b90601f601f19910116810190811067ffffffffffffffff8211176103df57604052565b7f4e487b7100000000000000000000000000000000000000000000000000000000600052604160045260246000fd5b919082519283825260005b84811061043a575050601f19601f8460006020809697860101520116010190565b80602080928401015182828601015201610419565b73ffffffffffffffffffffffffffffffffffffffff60005416330361047057565b7f118cdaa7000000000000000000000000000000000000000000000000000000006000523360045260246000fdfea2646970667358221220ea2109e56fc1c6f3c1c3756977591938a67f11d8d269ff70844bd5fabc0529f764736f6c634300081c0033b53127684a568b3173ae13b9f8a6016e243e63b6e8ee1178d6a717850b5d6103a2646970667358221220d98dcdbb32e19ff9fd4d19849ba5f20a505a91e2c0c75fad1b1cfa2bc8b622eb64736f6c634300081c0033",
  "linkReferences": {},
  "deployedLinkReferences": {}
}